{
  "abi": [
    {
      "inputs": [
        {
          "internalType": "address[]",
          "name": "initialAdmins",
          "type": "address[]"
        },
        {
          "internalType": "address",
          "name": "_utilityAddress",
          "type": "address"
        }
      ],
      "stateMutability": "nonpayable",
      "type": "constructor"
    },
    {
      "inputs": [],
      "name": "AccessControlBadConfirmation",
      "type": "error"
    },
    {
      "inputs": [
        {
          "internalType": "address",
          "name": "account",
          "type": "address"
        },
        {
          "internalType": "bytes32",
          "name": "neededRole",
          "type": "bytes32"
        }
      ],
      "name": "AccessControlUnauthorizedAccount",
      "type": "error"
    },
    {
      "inputs": [],
      "name": "ReentrancyGuardReentrantCall",
      "type": "error"
    },
    {
      "anonymous": false,
      "inputs": [
        {
          "indexed": true,
          "internalType": "address",
          "name": "user",
          "type": "address"
        },
        {
          "indexed": false,
          "internalType": "enum PoolFamilyAndFriends.TokenType",
          "name": "token",
          "type": "uint8"
        },
        {
          "indexed": false,
          "internalType": "uint256[]",
          "name": "indices",
          "type": "uint256[]"
        },
        {
          "indexed": false,
          "internalType": "uint256",
          "name": "totalPrincipal",
          "type": "uint256"
        },
        {
          "indexed": false,
          "internalType": "uint256",
          "name": "totalYield",
          "type": "uint256"
        },
        {
          "indexed": false,
          "internalType": "uint256",
          "name": "when",
          "type": "uint256"
        }
      ],
      "name": "BatchWithdraw",
      "type": "event"
    },
    {
      "anonymous": false,
      "inputs": [
        {
          "indexed": true,
          "internalType": "address",
          "name": "user",
          "type": "address"
        },
        {
          "indexed": false,
          "internalType": "enum PoolFamilyAndFriends.TokenType",
          "name": "token",
          "type": "uint8"
        },
        {
          "indexed": false,
          "internalType": "uint256",
          "name": "amount",
          "type": "uint256"
        },
        {
          "indexed": false,
          "internalType": "uint256",
          "name": "when",
          "type": "uint256"
        }
      ],
      "name": "ClaimUtility",
      "type": "event"
    },
    {
      "anonymous": false,
      "inputs": [
        {
          "indexed": true,
          "internalType": "address",
          "name": "user",
          "type": "address"
        },
        {
          "indexed": false,
          "internalType": "enum PoolFamilyAndFriends.TokenType",
          "name": "token",
          "type": "uint8"
        },
        {
          "indexed": false,
          "internalType": "uint256",
          "name": "amount",
          "type": "uint256"
        },
        {
          "indexed": false,
          "internalType": "uint256",
          "name": "when",
          "type": "uint256"
        },
        {
          "indexed": false,
          "internalType": "uint256",
          "name": "depositIndex",
          "type": "uint256"
        },
        {
          "indexed": false,
          "internalType": "bool",
          "name": "reinvestment",
          "type": "bool"
        }
      ],
      "name": "Deposit",
      "type": "event"
    },
    {
      "anonymous": false,
      "inputs": [
        {
          "indexed": true,
          "internalType": "address",
          "name": "user",
          "type": "address"
        },
        {
          "indexed": false,
          "internalType": "uint256[]",
          "name": "indices",
          "type": "uint256[]"
        }
      ],
      "name": "DepositsUnlocked",
      "type": "event"
    },
    {
      "anonymous": false,
      "inputs": [
        {
          "indexed": true,
          "internalType": "address",
          "name": "token",
          "type": "address"
        },
        {
          "indexed": true,
          "internalType": "address",
          "name": "to",
          "type": "address"
        },
        {
          "indexed": false,
          "internalType": "uint256",
          "name": "amount",
          "type": "uint256"
        }
      ],
      "name": "ERC20Rescued",
      "type": "event"
    },
    {
      "anonymous": false,
      "inputs": [
        {
          "indexed": false,
          "internalType": "uint256",
          "name": "when",
          "type": "uint256"
        }
      ],
      "name": "GlobalLiquidationEnabled",
      "type": "event"
    },
    {
      "anonymous": false,
      "inputs": [
        {
          "indexed": false,
          "internalType": "uint256",
          "name": "newPeriod",
          "type": "uint256"
        }
      ],
      "name": "LockupPeriodChanged",
      "type": "event"
    },
    {
      "anonymous": false,
      "inputs": [
        {
          "indexed": false,
          "internalType": "enum PoolFamilyAndFriends.TokenType",
          "name": "token",
          "type": "uint8"
        },
        {
          "indexed": false,
          "internalType": "uint256",
          "name": "newCap",
          "type": "uint256"
        }
      ],
      "name": "MaxCapChanged",
      "type": "event"
    },
    {
      "anonymous": false,
      "inputs": [
        {
          "indexed": false,
          "internalType": "bool",
          "name": "depositsPaused",
          "type": "bool"
        },
        {
          "indexed": false,
          "internalType": "bool",
          "name": "withdrawalsPaused",
          "type": "bool"
        }
      ],
      "name": "PauseChanged",
      "type": "event"
    },
    {
      "anonymous": false,
      "inputs": [
        {
          "indexed": true,
          "internalType": "address",
          "name": "user",
          "type": "address"
        },
        {
          "indexed": false,
          "internalType": "enum PoolFamilyAndFriends.TokenType",
          "name": "token",
          "type": "uint8"
        },
        {
          "indexed": false,
          "internalType": "uint256",
          "name": "amount",
          "type": "uint256"
        },
        {
          "indexed": false,
          "internalType": "uint256",
          "name": "when",
          "type": "uint256"
        }
      ],
      "name": "Reinvest",
      "type": "event"
    },
    {
      "anonymous": false,
      "inputs": [
        {
          "indexed": true,
          "internalType": "bytes32",
          "name": "role",
          "type": "bytes32"
        },
        {
          "indexed": true,
          "internalType": "bytes32",
          "name": "previousAdminRole",
          "type": "bytes32"
        },
        {
          "indexed": true,
          "internalType": "bytes32",
          "name": "newAdminRole",
          "type": "bytes32"
        }
      ],
      "name": "RoleAdminChanged",
      "type": "event"
    },
    {
      "anonymous": false,
      "inputs": [
        {
          "indexed": true,
          "internalType": "bytes32",
          "name": "role",
          "type": "bytes32"
        },
        {
          "indexed": true,
          "internalType": "address",
          "name": "account",
          "type": "address"
        },
        {
          "indexed": true,
          "internalType": "address",
          "name": "sender",
          "type": "address"
        }
      ],
      "name": "RoleGranted",
      "type": "event"
    },
    {
      "anonymous": false,
      "inputs": [
        {
          "indexed": true,
          "internalType": "bytes32",
          "name": "role",
          "type": "bytes32"
        },
        {
          "indexed": true,
          "internalType": "address",
          "name": "account",
          "type": "address"
        },
        {
          "indexed": true,
          "internalType": "address",
          "name": "sender",
          "type": "address"
        }
      ],
      "name": "RoleRevoked",
      "type": "event"
    },
    {
      "anonymous": false,
      "inputs": [
        {
          "indexed": true,
          "internalType": "address",
          "name": "user",
          "type": "address"
        },
        {
          "indexed": false,
          "internalType": "bool",
          "name": "status",
          "type": "bool"
        }
      ],
      "name": "UserWhitelisted",
      "type": "event"
    },
    {
      "anonymous": false,
      "inputs": [
        {
          "indexed": false,
          "internalType": "address",
          "name": "newUtilityAddress",
          "type": "address"
        }
      ],
      "name": "UtilityAddressChanged",
      "type": "event"
    },
    {
      "anonymous": false,
      "inputs": [
        {
          "indexed": true,
          "internalType": "address",
          "name": "admin",
          "type": "address"
        },
        {
          "indexed": false,
          "internalType": "enum PoolFamilyAndFriends.TokenType",
          "name": "token",
          "type": "uint8"
        },
        {
          "indexed": false,
          "internalType": "uint256",
          "name": "amount",
          "type": "uint256"
        },
        {
          "indexed": false,
          "internalType": "uint256",
          "name": "when",
          "type": "uint256"
        }
      ],
      "name": "UtilityInjected",
      "type": "event"
    },
    {
      "anonymous": false,
      "inputs": [
        {
          "indexed": true,
          "internalType": "address",
          "name": "to",
          "type": "address"
        },
        {
          "indexed": false,
          "internalType": "enum PoolFamilyAndFriends.TokenType",
          "name": "token",
          "type": "uint8"
        },
        {
          "indexed": false,
          "internalType": "uint256",
          "name": "amount",
          "type": "uint256"
        },
        {
          "indexed": false,
          "internalType": "uint256",
          "name": "when",
          "type": "uint256"
        }
      ],
      "name": "UtilityWithdrawn",
      "type": "event"
    },
    {
      "anonymous": false,
      "inputs": [
        {
          "indexed": true,
          "internalType": "address",
          "name": "user",
          "type": "address"
        },
        {
          "indexed": false,
          "internalType": "enum PoolFamilyAndFriends.TokenType",
          "name": "token",
          "type": "uint8"
        },
        {
          "indexed": false,
          "internalType": "uint256",
          "name": "principal",
          "type": "uint256"
        },
        {
          "indexed": false,
          "internalType": "uint256",
          "name": "yield",
          "type": "uint256"
        },
        {
          "indexed": false,
          "internalType": "uint256",
          "name": "when",
          "type": "uint256"
        },
        {
          "indexed": false,
          "internalType": "uint256",
          "name": "depositIndex",
          "type": "uint256"
        }
      ],
      "name": "Withdraw",
      "type": "event"
    },
    {
      "inputs": [],
      "name": "ADMIN_ROLE",
      "outputs": [
        {
          "internalType": "bytes32",
          "name": "",
          "type": "bytes32"
        }
      ],
      "stateMutability": "view",
      "type": "function"
    },
    {
      "inputs": [],
      "name": "DEFAULT_ADMIN_ROLE",
      "outputs": [
        {
          "internalType": "bytes32",
          "name": "",
          "type": "bytes32"
        }
      ],
      "stateMutability": "view",
      "type": "function"
    },
    {
      "inputs": [],
      "name": "PAUSER_ROLE",
      "outputs": [
        {
          "internalType": "bytes32",
          "name": "",
          "type": "bytes32"
        }
      ],
      "stateMutability": "view",
      "type": "function"
    },
    {
      "inputs": [],
      "name": "UNLOCKER_ROLE",
      "outputs": [
        {
          "internalType": "bytes32",
          "name": "",
          "type": "bytes32"
        }
      ],
      "stateMutability": "view",
      "type": "function"
    },
    {
      "inputs": [],
      "name": "USDC",
      "outputs": [
        {
          "internalType": "address",
          "name": "",
          "type": "address"
        }
      ],
      "stateMutability": "view",
      "type": "function"
    },
    {
      "inputs": [],
      "name": "UTILITY_INJECTOR_ROLE",
      "outputs": [
        {
          "internalType": "bytes32",
          "name": "",
          "type": "bytes32"
        }
      ],
      "stateMutability": "view",
      "type": "function"
    },
    {
      "inputs": [],
      "name": "UTILITY_WITHDRAWER_ROLE",
      "outputs": [
        {
          "internalType": "bytes32",
          "name": "",
          "type": "bytes32"
        }
      ],
      "stateMutability": "view",
      "type": "function"
    },
    {
      "inputs": [
        {
          "internalType": "uint256",
          "name": "",
          "type": "uint256"
        }
      ],
      "name": "allDepositors",
      "outputs": [
        {
          "internalType": "address",
          "name": "",
          "type": "address"
        }
      ],
      "stateMutability": "view",
      "type": "function"
    },
    {
      "inputs": [
        {
          "internalType": "uint256",
          "name": "",
          "type": "uint256"
        }
      ],
      "name": "allUsers",
      "outputs": [
        {
          "internalType": "address",
          "name": "",
          "type": "address"
        }
      ],
      "stateMutability": "view",
      "type": "function"
    },
    {
      "inputs": [
        {
          "internalType": "address",
          "name": "user",
          "type": "address"
        },
        {
          "internalType": "uint256",
          "name": "amount",
          "type": "uint256"
        }
      ],
      "name": "assignUtilityETH",
      "outputs": [],
      "stateMutability": "nonpayable",
      "type": "function"
    },
    {
      "inputs": [
        {
          "internalType": "address[]",
          "name": "users",
          "type": "address[]"
        },
        {
          "internalType": "uint256[]",
          "name": "amounts",
          "type": "uint256[]"
        }
      ],
      "name": "assignUtilityETHBatch",
      "outputs": [],
      "stateMutability": "nonpayable",
      "type": "function"
    },
    {
      "inputs": [
        {
          "internalType": "address",
          "name": "user",
          "type": "address"
        },
        {
          "internalType": "uint256",
          "name": "amount",
          "type": "uint256"
        }
      ],
      "name": "assignUtilityUSDC",
      "outputs": [],
      "stateMutability": "nonpayable",
      "type": "function"
    },
    {
      "inputs": [
        {
          "internalType": "address[]",
          "name": "users",
          "type": "address[]"
        },
        {
          "internalType": "uint256[]",
          "name": "amounts",
          "type": "uint256[]"
        }
      ],
      "name": "assignUtilityUSDCBatch",
      "outputs": [],
      "stateMutability": "nonpayable",
      "type": "function"
    },
    {
      "inputs": [
        {
          "internalType": "uint256[]",
          "name": "depositIndices",
          "type": "uint256[]"
        }
      ],
      "name": "batchWithdraw",
      "outputs": [],
      "stateMutability": "nonpayable",
      "type": "function"
    },
    {
      "inputs": [],
      "name": "claimUtilityETH",
      "outputs": [],
      "stateMutability": "nonpayable",
      "type": "function"
    },
    {
      "inputs": [],
      "name": "claimUtilityUSDC",
      "outputs": [],
      "stateMutability": "nonpayable",
      "type": "function"
    },
    {
      "inputs": [],
      "name": "depositETH",
      "outputs": [],
      "stateMutability": "payable",
      "type": "function"
    },
    {
      "inputs": [
        {
          "internalType": "uint256",
          "name": "amount",
          "type": "uint256"
        }
      ],
      "name": "depositUSDC",
      "outputs": [],
      "stateMutability": "nonpayable",
      "type": "function"
    },
    {
      "inputs": [],
      "name": "enableGlobalLiquidation",
      "outputs": [],
      "stateMutability": "nonpayable",
      "type": "function"
    },
    {
      "inputs": [
        {
          "internalType": "bytes32",
          "name": "role",
          "type": "bytes32"
        }
      ],
      "name": "getRoleAdmin",
      "outputs": [
        {
          "internalType": "bytes32",
          "name": "",
          "type": "bytes32"
        }
      ],
      "stateMutability": "view",
      "type": "function"
    },
    {
      "inputs": [
        {
          "internalType": "address",
          "name": "user",
          "type": "address"
        }
      ],
      "name": "getUserDeposits",
      "outputs": [
        {
          "components": [
            {
              "internalType": "enum PoolFamilyAndFriends.TokenType",
              "name": "token",
              "type": "uint8"
            },
            {
              "internalType": "uint256",
              "name": "amount",
              "type": "uint256"
            },
            {
              "internalType": "uint256",
              "name": "timestamp",
              "type": "uint256"
            },
            {
              "internalType": "bool",
              "name": "withdrawn",
              "type": "bool"
            },
            {
              "internalType": "bool",
              "name": "unlockedByAdmin",
              "type": "bool"
            },
            {
              "internalType": "bool",
              "name": "fullyRedeemable",
              "type": "bool"
            },
            {
              "internalType": "bool",
              "name": "isReinvestment",
              "type": "bool"
            },
            {
              "internalType": "uint256",
              "name": "withdrawnAt",
              "type": "uint256"
            },
            {
              "internalType": "uint256",
              "name": "yieldReceived",
              "type": "uint256"
            }
          ],
          "internalType": "struct PoolFamilyAndFriends.DepositInfo[]",
          "name": "",
          "type": "tuple[]"
        }
      ],
      "stateMutability": "view",
      "type": "function"
    },
    {
      "inputs": [
        {
          "internalType": "address",
          "name": "user",
          "type": "address"
        }
      ],
      "name": "getUserStats",
      "outputs": [
        {
          "internalType": "uint256",
          "name": "depositedETH",
          "type": "uint256"
        },
        {
          "internalType": "uint256",
          "name": "depositedUSDC",
          "type": "uint256"
        },
        {
          "internalType": "uint256",
          "name": "withdrawnETH",
          "type": "uint256"
        },
        {
          "internalType": "uint256",
          "name": "withdrawnUSDC",
          "type": "uint256"
        },
        {
          "internalType": "uint256",
          "name": "claimableUtilityETH",
          "type": "uint256"
        },
        {
          "internalType": "uint256",
          "name": "claimableUtilityUSDC",
          "type": "uint256"
        },
        {
          "internalType": "uint256",
          "name": "reinvestedETH",
          "type": "uint256"
        },
        {
          "internalType": "uint256",
          "name": "reinvestedUSDC",
          "type": "uint256"
        }
      ],
      "stateMutability": "view",
      "type": "function"
    },
    {
      "inputs": [],
      "name": "getVaultStats",
      "outputs": [
        {
          "internalType": "uint256",
          "name": "ethInVault",
          "type": "uint256"
        },
        {
          "internalType": "uint256",
          "name": "usdcInVault",
          "type": "uint256"
        },
        {
          "internalType": "uint256",
          "name": "totalDepositedETH_",
          "type": "uint256"
        },
        {
          "internalType": "uint256",
          "name": "totalDepositedUSDC_",
          "type": "uint256"
        },
        {
          "internalType": "uint256",
          "name": "totalWithdrawnETH_",
          "type": "uint256"
        },
        {
          "internalType": "uint256",
          "name": "totalWithdrawnUSDC_",
          "type": "uint256"
        },
        {
          "internalType": "uint256",
          "name": "totalUtilityETH_",
          "type": "uint256"
        },
        {
          "internalType": "uint256",
          "name": "totalUtilityUSDC_",
          "type": "uint256"
        },
        {
          "internalType": "uint256",
          "name": "totalReinvestedETH_",
          "type": "uint256"
        },
        {
          "internalType": "uint256",
          "name": "totalReinvestedUSDC_",
          "type": "uint256"
        },
        {
          "internalType": "uint256",
          "name": "numUsers",
          "type": "uint256"
        },
        {
          "internalType": "uint256",
          "name": "numWithdrawnUsers",
          "type": "uint256"
        }
      ],
      "stateMutability": "view",
      "type": "function"
    },
    {
      "inputs": [],
      "name": "globalLiquidationEnabled",
      "outputs": [
        {
          "internalType": "bool",
          "name": "",
          "type": "bool"
        }
      ],
      "stateMutability": "view",
      "type": "function"
    },
    {
      "inputs": [],
      "name": "globalLiquidationTimestamp",
      "outputs": [
        {
          "internalType": "uint256",
          "name": "",
          "type": "uint256"
        }
      ],
      "stateMutability": "view",
      "type": "function"
    },
    {
      "inputs": [
        {
          "internalType": "bytes32",
          "name": "role",
          "type": "bytes32"
        },
        {
          "internalType": "address",
          "name": "account",
          "type": "address"
        }
      ],
      "name": "grantRole",
      "outputs": [],
      "stateMutability": "nonpayable",
      "type": "function"
    },
    {
      "inputs": [
        {
          "internalType": "bytes32",
          "name": "role",
          "type": "bytes32"
        },
        {
          "internalType": "address",
          "name": "account",
          "type": "address"
        }
      ],
      "name": "hasRole",
      "outputs": [
        {
          "internalType": "bool",
          "name": "",
          "type": "bool"
        }
      ],
      "stateMutability": "view",
      "type": "function"
    },
    {
      "inputs": [
        {
          "internalType": "address",
          "name": "",
          "type": "address"
        }
      ],
      "name": "hasWithdrawn",
      "outputs": [
        {
          "internalType": "bool",
          "name": "",
          "type": "bool"
        }
      ],
      "stateMutability": "view",
      "type": "function"
    },
    {
      "inputs": [],
      "name": "injectUtilityETH",
      "outputs": [],
      "stateMutability": "payable",
      "type": "function"
    },
    {
      "inputs": [
        {
          "internalType": "uint256",
          "name": "amount",
          "type": "uint256"
        }
      ],
      "name": "injectUtilityUSDC",
      "outputs": [],
      "stateMutability": "nonpayable",
      "type": "function"
    },
    {
      "inputs": [
        {
          "internalType": "address",
          "name": "",
          "type": "address"
        }
      ],
      "name": "isWhitelisted",
      "outputs": [
        {
          "internalType": "bool",
          "name": "",
          "type": "bool"
        }
      ],
      "stateMutability": "view",
      "type": "function"
    },
    {
      "inputs": [],
      "name": "lockupPeriod",
      "outputs": [
        {
          "internalType": "uint256",
          "name": "",
          "type": "uint256"
        }
      ],
      "stateMutability": "view",
      "type": "function"
    },
    {
      "inputs": [],
      "name": "maxCapETH",
      "outputs": [
        {
          "internalType": "uint256",
          "name": "",
          "type": "uint256"
        }
      ],
      "stateMutability": "view",
      "type": "function"
    },
    {
      "inputs": [],
      "name": "maxCapUSDC",
      "outputs": [
        {
          "internalType": "uint256",
          "name": "",
          "type": "uint256"
        }
      ],
      "stateMutability": "view",
      "type": "function"
    },
    {
      "inputs": [],
      "name": "pausedDeposits",
      "outputs": [
        {
          "internalType": "bool",
          "name": "",
          "type": "bool"
        }
      ],
      "stateMutability": "view",
      "type": "function"
    },
    {
      "inputs": [],
      "name": "pausedWithdrawals",
      "outputs": [
        {
          "internalType": "bool",
          "name": "",
          "type": "bool"
        }
      ],
      "stateMutability": "view",
      "type": "function"
    },
    {
      "inputs": [],
      "name": "reinvestUtilityETH",
      "outputs": [],
      "stateMutability": "nonpayable",
      "type": "function"
    },
    {
      "inputs": [],
      "name": "reinvestUtilityUSDC",
      "outputs": [],
      "stateMutability": "nonpayable",
      "type": "function"
    },
    {
      "inputs": [
        {
          "internalType": "bytes32",
          "name": "role",
          "type": "bytes32"
        },
        {
          "internalType": "address",
          "name": "callerConfirmation",
          "type": "address"
        }
      ],
      "name": "renounceRole",
      "outputs": [],
      "stateMutability": "nonpayable",
      "type": "function"
    },
    {
      "inputs": [
        {
          "internalType": "address",
          "name": "token",
          "type": "address"
        },
        {
          "internalType": "address",
          "name": "to",
          "type": "address"
        },
        {
          "internalType": "uint256",
          "name": "amount",
          "type": "uint256"
        }
      ],
      "name": "rescueERC20",
      "outputs": [],
      "stateMutability": "nonpayable",
      "type": "function"
    },
    {
      "inputs": [
        {
          "internalType": "bytes32",
          "name": "role",
          "type": "bytes32"
        },
        {
          "internalType": "address",
          "name": "account",
          "type": "address"
        }
      ],
      "name": "revokeRole",
      "outputs": [],
      "stateMutability": "nonpayable",
      "type": "function"
    },
    {
      "inputs": [
        {
          "internalType": "uint256",
          "name": "newPeriod",
          "type": "uint256"
        }
      ],
      "name": "setLockupPeriod",
      "outputs": [],
      "stateMutability": "nonpayable",
      "type": "function"
    },
    {
      "inputs": [
        {
          "internalType": "enum PoolFamilyAndFriends.TokenType",
          "name": "token",
          "type": "uint8"
        },
        {
          "internalType": "uint256",
          "name": "newCap",
          "type": "uint256"
        }
      ],
      "name": "setMaxCap",
      "outputs": [],
      "stateMutability": "nonpayable",
      "type": "function"
    },
    {
      "inputs": [
        {
          "internalType": "bool",
          "name": "_deposits",
          "type": "bool"
        },
        {
          "internalType": "bool",
          "name": "_withdrawals",
          "type": "bool"
        }
      ],
      "name": "setPaused",
      "outputs": [],
      "stateMutability": "nonpayable",
      "type": "function"
    },
    {
      "inputs": [
        {
          "internalType": "address",
          "name": "newUtilityAddress",
          "type": "address"
        }
      ],
      "name": "setUtilityAddress",
      "outputs": [],
      "stateMutability": "nonpayable",
      "type": "function"
    },
    {
      "inputs": [
        {
          "internalType": "address",
          "name": "user",
          "type": "address"
        },
        {
          "internalType": "bool",
          "name": "status",
          "type": "bool"
        }
      ],
      "name": "setWhitelist",
      "outputs": [],
      "stateMutability": "nonpayable",
      "type": "function"
    },
    {
      "inputs": [
        {
          "internalType": "address[]",
          "name": "users",
          "type": "address[]"
        },
        {
          "internalType": "bool[]",
          "name": "statuses",
          "type": "bool[]"
        }
      ],
      "name": "setWhitelistBatch",
      "outputs": [],
      "stateMutability": "nonpayable",
      "type": "function"
    },
    {
      "inputs": [
        {
          "internalType": "bool",
          "name": "enabled",
          "type": "bool"
        }
      ],
      "name": "setWhitelistEnabled",
      "outputs": [],
      "stateMutability": "nonpayable",
      "type": "function"
    },
    {
      "inputs": [
        {
          "internalType": "bytes4",
          "name": "interfaceId",
          "type": "bytes4"
        }
      ],
      "name": "supportsInterface",
      "outputs": [
        {
          "internalType": "bool",
          "name": "",
          "type": "bool"
        }
      ],
      "stateMutability": "view",
      "type": "function"
    },
    {
      "inputs": [],
      "name": "totalDepositedETH",
      "outputs": [
        {
          "internalType": "uint256",
          "name": "",
          "type": "uint256"
        }
      ],
      "stateMutability": "view",
      "type": "function"
    },
    {
      "inputs": [],
      "name": "totalDepositedUSDC",
      "outputs": [
        {
          "internalType": "uint256",
          "name": "",
          "type": "uint256"
        }
      ],
      "stateMutability": "view",
      "type": "function"
    },
    {
      "inputs": [],
      "name": "totalReinvestedETH",
      "outputs": [
        {
          "internalType": "uint256",
          "name": "",
          "type": "uint256"
        }
      ],
      "stateMutability": "view",
      "type": "function"
    },
    {
      "inputs": [],
      "name": "totalReinvestedUSDC",
      "outputs": [
        {
          "internalType": "uint256",
          "name": "",
          "type": "uint256"
        }
      ],
      "stateMutability": "view",
      "type": "function"
    },
    {
      "inputs": [],
      "name": "totalUtilityETH",
      "outputs": [
        {
          "internalType": "uint256",
          "name": "",
          "type": "uint256"
        }
      ],
      "stateMutability": "view",
      "type": "function"
    },
    {
      "inputs": [],
      "name": "totalUtilityUSDC",
      "outputs": [
        {
          "internalType": "uint256",
          "name": "",
          "type": "uint256"
        }
      ],
      "stateMutability": "view",
      "type": "function"
    },
    {
      "inputs": [],
      "name": "totalWithdrawnETH",
      "outputs": [
        {
          "internalType": "uint256",
          "name": "",
          "type": "uint256"
        }
      ],
      "stateMutability": "view",
      "type": "function"
    },
    {
      "inputs": [],
      "name": "totalWithdrawnUSDC",
      "outputs": [
        {
          "internalType": "uint256",
          "name": "",
          "type": "uint256"
        }
      ],
      "stateMutability": "view",
      "type": "function"
    },
    {
      "inputs": [
        {
          "internalType": "address",
          "name": "user",
          "type": "address"
        },
        {
          "internalType": "uint256[]",
          "name": "depositIndices",
          "type": "uint256[]"
        }
      ],
      "name": "unlockDepositsForUser",
      "outputs": [],
      "stateMutability": "nonpayable",
      "type": "function"
    },
    {
      "inputs": [
        {
          "internalType": "address",
          "name": "",
          "type": "address"
        }
      ],
      "name": "userClaimableUtilityETH",
      "outputs": [
        {
          "internalType": "uint256",
          "name": "",
          "type": "uint256"
        }
      ],
      "stateMutability": "view",
      "type": "function"
    },
    {
      "inputs": [
        {
          "internalType": "address",
          "name": "",
          "type": "address"
        }
      ],
      "name": "userClaimableUtilityUSDC",
      "outputs": [
        {
          "internalType": "uint256",
          "name": "",
          "type": "uint256"
        }
      ],
      "stateMutability": "view",
      "type": "function"
    },
    {
      "inputs": [
        {
          "internalType": "address",
          "name": "",
          "type": "address"
        },
        {
          "internalType": "uint256",
          "name": "",
          "type": "uint256"
        }
      ],
      "name": "userDeposits",
      "outputs": [
        {
          "internalType": "enum PoolFamilyAndFriends.TokenType",
          "name": "token",
          "type": "uint8"
        },
        {
          "internalType": "uint256",
          "name": "amount",
          "type": "uint256"
        },
        {
          "internalType": "uint256",
          "name": "timestamp",
          "type": "uint256"
        },
        {
          "internalType": "bool",
          "name": "withdrawn",
          "type": "bool"
        },
        {
          "internalType": "bool",
          "name": "unlockedByAdmin",
          "type": "bool"
        },
        {
          "internalType": "bool",
          "name": "fullyRedeemable",
          "type": "bool"
        },
        {
          "internalType": "bool",
          "name": "isReinvestment",
          "type": "bool"
        },
        {
          "internalType": "uint256",
          "name": "withdrawnAt",
          "type": "uint256"
        },
        {
          "internalType": "uint256",
          "name": "yieldReceived",
          "type": "uint256"
        }
      ],
      "stateMutability": "view",
      "type": "function"
    },
    {
      "inputs": [
        {
          "internalType": "address",
          "name": "",
          "type": "address"
        }
      ],
      "name": "userTotalReinvestedETH",
      "outputs": [
        {
          "internalType": "uint256",
          "name": "",
          "type": "uint256"
        }
      ],
      "stateMutability": "view",
      "type": "function"
    },
    {
      "inputs": [
        {
          "internalType": "address",
          "name": "",
          "type": "address"
        }
      ],
      "name": "userTotalReinvestedUSDC",
      "outputs": [
        {
          "internalType": "uint256",
          "name": "",
          "type": "uint256"
        }
      ],
      "stateMutability": "view",
      "type": "function"
    },
    {
      "inputs": [],
      "name": "utilityAddress",
      "outputs": [
        {
          "internalType": "address",
          "name": "",
          "type": "address"
        }
      ],
      "stateMutability": "view",
      "type": "function"
    },
    {
      "inputs": [],
      "name": "whitelistEnabled",
      "outputs": [
        {
          "internalType": "bool",
          "name": "",
          "type": "bool"
        }
      ],
      "stateMutability": "view",
      "type": "function"
    },
    {
      "inputs": [
        {
          "internalType": "uint256",
          "name": "depositIndex",
          "type": "uint256"
        }
      ],
      "name": "withdraw",
      "outputs": [],
      "stateMutability": "nonpayable",
      "type": "function"
    },
    {
      "inputs": [
        {
          "internalType": "uint256",
          "name": "amount",
          "type": "uint256"
        }
      ],
      "name": "withdrawUtilityETH",
      "outputs": [],
      "stateMutability": "nonpayable",
      "type": "function"
    },
    {
      "inputs": [
        {
          "internalType": "uint256",
          "name": "amount",
          "type": "uint256"
        }
      ],
      "name": "withdrawUtilityUSDC",
      "outputs": [],
      "stateMutability": "nonpayable",
      "type": "function"
    },
    {
      "inputs": [
        {
          "internalType": "uint256",
          "name": "",
          "type": "uint256"
        }
      ],
      "name": "withdrawnUsers",
      "outputs": [
        {
          "internalType": "address",
          "name": "",
          "type": "address"
        }
      ],
      "stateMutability": "view",
      "type": "function"
    },
    {
      "stateMutability": "payable",
      "type": "receive"
    }
  ],
  "devdoc": {
    "errors": {
      "AccessControlBadConfirmation()": [
        {
          "details": "The caller of a function is not the expected one. NOTE: Don't confuse with {AccessControlUnauthorizedAccount}."
        }
      ],
      "AccessControlUnauthorizedAccount(address,bytes32)": [
        {
          "details": "The `account` is missing a role."
        }
      ],
      "ReentrancyGuardReentrantCall()": [
        {
          "details": "Unauthorized reentrant call."
        }
      ]
    },
    "events": {
      "RoleAdminChanged(bytes32,bytes32,bytes32)": {
        "details": "Emitted when `newAdminRole` is set as ``role``'s admin role, replacing `previousAdminRole` `DEFAULT_ADMIN_ROLE` is the starting admin for all roles, despite {RoleAdminChanged} not being emitted to signal this."
      },
      "RoleGranted(bytes32,address,address)": {
        "details": "Emitted when `account` is granted `role`. `sender` is the account that originated the contract call. This account bears the admin role (for the granted role). Expected in cases where the role was granted using the internal {AccessControl-_grantRole}."
      },
      "RoleRevoked(bytes32,address,address)": {
        "details": "Emitted when `account` is revoked `role`. `sender` is the account that originated the contract call:   - if using `revokeRole`, it is the admin role bearer   - if using `renounceRole`, it is the role bearer (i.e. `account`)"
      }
    },
    "kind": "dev",
    "methods": {
      "getRoleAdmin(bytes32)": {
        "details": "Returns the admin role that controls `role`. See {grantRole} and {revokeRole}. To change a role's admin, use {_setRoleAdmin}."
      },
      "grantRole(bytes32,address)": {
        "details": "Grants `role` to `account`. If `account` had not been already granted `role`, emits a {RoleGranted} event. Requirements: - the caller must have ``role``'s admin role. May emit a {RoleGranted} event."
      },
      "hasRole(bytes32,address)": {
        "details": "Returns `true` if `account` has been granted `role`."
      },
      "renounceRole(bytes32,address)": {
        "details": "Revokes `role` from the calling account. Roles are often managed via {grantRole} and {revokeRole}: this function's purpose is to provide a mechanism for accounts to lose their privileges if they are compromised (such as when a trusted device is misplaced). If the calling account had been revoked `role`, emits a {RoleRevoked} event. Requirements: - the caller must be `callerConfirmation`. May emit a {RoleRevoked} event."
      },
      "revokeRole(bytes32,address)": {
        "details": "Revokes `role` from `account`. If `account` had been granted `role`, emits a {RoleRevoked} event. Requirements: - the caller must have ``role``'s admin role. May emit a {RoleRevoked} event."
      },
      "supportsInterface(bytes4)": {
        "details": "See {IERC165-supportsInterface}."
      }
    },
    "title": "PoolFamilyAndFriends",
    "version": 1
  },
  "evm": {
    "assembly": "    /* \"FlattenedPool.sol\":20092:39501  contract PoolFamilyAndFriends is AccessControl, ReentrancyGuard {... */\n  mstore(0x40, 0x80)\n    /* \"FlattenedPool.sol\":20330:20338  180 days */\n  0xed4e00\n    /* \"FlattenedPool.sol\":20300:20338  uint256 public lockupPeriod = 180 days */\n  0x02\n  sstore\n    /* \"FlattenedPool.sol\":20371:20386  5_000_000 ether */\n  0x0422ca8b0a00a425000000\n    /* \"FlattenedPool.sol\":20344:20386  uint256 public maxCapETH = 5_000_000 ether */\n  0x03\n  sstore\n    /* \"FlattenedPool.sol\":20420:20435  5_000_000 * 1e6 */\n  0x048c27395000\n    /* \"FlattenedPool.sol\":20392:20435  uint256 public maxCapUSDC = 5_000_000 * 1e6 */\n  0x04\n  sstore\n    /* \"FlattenedPool.sol\":23654:24225  constructor(... */\n  callvalue\n  dup1\n  iszero\n  tag_1\n  jumpi\n  0x00\n  dup1\n  revert\ntag_1:\n  pop\n  mload(0x40)\n  sub(codesize, bytecodeSize)\n  dup1\n  bytecodeSize\n  dup4\n  codecopy\n  dup2\n  add\n  0x40\n  dup2\n  swap1\n  mstore\n  tag_2\n  swap2\n  tag_3\n  jump\t// in\ntag_2:\n    /* \"FlattenedPool.sol\":18276:18277  1 */\n  0x01\n    /* \"FlattenedPool.sol\":18480:18501  _status = NOT_ENTERED */\n  dup1\n  sstore\n    /* \"FlattenedPool.sol\":23760:23769  uint256 i */\n  0x00\n    /* \"FlattenedPool.sol\":23755:24177  for (uint256 i = 0; i < initialAdmins.length; i++) {... */\ntag_8:\n    /* \"FlattenedPool.sol\":23779:23792  initialAdmins */\n  dup3\n    /* \"FlattenedPool.sol\":23779:23799  initialAdmins.length */\n  mload\n    /* \"FlattenedPool.sol\":23775:23776  i */\n  dup2\n    /* \"FlattenedPool.sol\":23775:23799  i < initialAdmins.length */\n  lt\n    /* \"FlattenedPool.sol\":23755:24177  for (uint256 i = 0; i < initialAdmins.length; i++) {... */\n  iszero\n  tag_9\n  jumpi\n    /* \"FlattenedPool.sol\":23820:23868  _grantRole(DEFAULT_ADMIN_ROLE, initialAdmins[i]) */\n  tag_11\n    /* \"FlattenedPool.sol\":8650:8654  0x00 */\n  0x00\n    /* \"FlattenedPool.sol\":23831:23849  DEFAULT_ADMIN_ROLE */\n  dup1\n  shl\n    /* \"FlattenedPool.sol\":23851:23864  initialAdmins */\n  dup5\n    /* \"FlattenedPool.sol\":23865:23866  i */\n  dup4\n    /* \"FlattenedPool.sol\":23851:23867  initialAdmins[i] */\n  dup2\n  mload\n  dup2\n  lt\n  tag_13\n  jumpi\n  tag_13\n  tag_14\n  jump\t// in\ntag_13:\n  0x20\n  mul\n  0x20\n  add\n  add\n  mload\n    /* \"FlattenedPool.sol\":23820:23830  _grantRole */\n  shl(0x20, tag_15)\n    /* \"FlattenedPool.sol\":23820:23868  _grantRole(DEFAULT_ADMIN_ROLE, initialAdmins[i]) */\n  0x20\n  shr\n  jump\t// in\ntag_11:\n  pop\n    /* \"FlattenedPool.sol\":23882:23922  _grantRole(ADMIN_ROLE, initialAdmins[i]) */\n  tag_16\n    /* \"FlattenedPool.sol\":20706:20729  keccak256(\"ADMIN_ROLE\") */\n  0xa49807205ce4d355092ef5a8a18f56e8913cf4a201fbe287825b095693c21775\n    /* \"FlattenedPool.sol\":23905:23918  initialAdmins */\n  dup5\n    /* \"FlattenedPool.sol\":23919:23920  i */\n  dup4\n    /* \"FlattenedPool.sol\":23905:23921  initialAdmins[i] */\n  dup2\n  mload\n  dup2\n  lt\n  tag_13\n  jumpi\n  tag_13\n  tag_14\n  jump\t// in\n    /* \"FlattenedPool.sol\":23882:23922  _grantRole(ADMIN_ROLE, initialAdmins[i]) */\ntag_16:\n  pop\n    /* \"FlattenedPool.sol\":23936:23977  _grantRole(PAUSER_ROLE, initialAdmins[i]) */\n  tag_19\n    /* \"FlattenedPool.sol\":20773:20797  keccak256(\"PAUSER_ROLE\") */\n  0x65d7a28e3265b37a6474929f336521b332c1681b933f6cb9f3376673440d862a\n    /* \"FlattenedPool.sol\":23960:23973  initialAdmins */\n  dup5\n    /* \"FlattenedPool.sol\":23974:23975  i */\n  dup4\n    /* \"FlattenedPool.sol\":23960:23976  initialAdmins[i] */\n  dup2\n  mload\n  dup2\n  lt\n  tag_13\n  jumpi\n  tag_13\n  tag_14\n  jump\t// in\n    /* \"FlattenedPool.sol\":23936:23977  _grantRole(PAUSER_ROLE, initialAdmins[i]) */\ntag_19:\n  pop\n    /* \"FlattenedPool.sol\":23991:24034  _grantRole(UNLOCKER_ROLE, initialAdmins[i]) */\n  tag_22\n    /* \"FlattenedPool.sol\":20843:20869  keccak256(\"UNLOCKER_ROLE\") */\n  0xc806897caf4fd5068191157e44d3988e43139a37e0b97b6793e1ed1184140604\n    /* \"FlattenedPool.sol\":24017:24030  initialAdmins */\n  dup5\n    /* \"FlattenedPool.sol\":24031:24032  i */\n  dup4\n    /* \"FlattenedPool.sol\":24017:24033  initialAdmins[i] */\n  dup2\n  mload\n  dup2\n  lt\n  tag_13\n  jumpi\n  tag_13\n  tag_14\n  jump\t// in\n    /* \"FlattenedPool.sol\":23991:24034  _grantRole(UNLOCKER_ROLE, initialAdmins[i]) */\ntag_22:\n  pop\n    /* \"FlattenedPool.sol\":24048:24099  _grantRole(UTILITY_INJECTOR_ROLE, initialAdmins[i]) */\n  tag_25\n    /* \"FlattenedPool.sol\":20923:20957  keccak256(\"UTILITY_INJECTOR_ROLE\") */\n  0xf60566c40710959d8d30b6067ce3c53c757bec78eecb0e46b83c7f8194ffae37\n    /* \"FlattenedPool.sol\":24082:24095  initialAdmins */\n  dup5\n    /* \"FlattenedPool.sol\":24096:24097  i */\n  dup4\n    /* \"FlattenedPool.sol\":24082:24098  initialAdmins[i] */\n  dup2\n  mload\n  dup2\n  lt\n  tag_13\n  jumpi\n  tag_13\n  tag_14\n  jump\t// in\n    /* \"FlattenedPool.sol\":24048:24099  _grantRole(UTILITY_INJECTOR_ROLE, initialAdmins[i]) */\ntag_25:\n  pop\n    /* \"FlattenedPool.sol\":24113:24166  _grantRole(UTILITY_WITHDRAWER_ROLE, initialAdmins[i]) */\n  tag_28\n    /* \"FlattenedPool.sol\":21013:21049  keccak256(\"UTILITY_WITHDRAWER_ROLE\") */\n  0x78c90eb9e475048b483a290aee04b5fe48355537c3623c7637b17d3bed71c6ed\n    /* \"FlattenedPool.sol\":24149:24162  initialAdmins */\n  dup5\n    /* \"FlattenedPool.sol\":24163:24164  i */\n  dup4\n    /* \"FlattenedPool.sol\":24149:24165  initialAdmins[i] */\n  dup2\n  mload\n  dup2\n  lt\n  tag_13\n  jumpi\n  tag_13\n  tag_14\n  jump\t// in\n    /* \"FlattenedPool.sol\":24113:24166  _grantRole(UTILITY_WITHDRAWER_ROLE, initialAdmins[i]) */\ntag_28:\n  pop\n    /* \"FlattenedPool.sol\":23801:23804  i++ */\n  0x01\n  add\n    /* \"FlattenedPool.sol\":23755:24177  for (uint256 i = 0; i < initialAdmins.length; i++) {... */\n  jump(tag_8)\ntag_9:\n  pop\n    /* \"FlattenedPool.sol\":24186:24200  utilityAddress */\n  0x07\n    /* \"FlattenedPool.sol\":24186:24218  utilityAddress = _utilityAddress */\n  dup1\n  sload\n  not(sub(shl(0xa0, 0x01), 0x01))\n  and\n  sub(shl(0xa0, 0x01), 0x01)\n  swap3\n  swap1\n  swap3\n  and\n  swap2\n  swap1\n  swap2\n  or\n  swap1\n  sstore\n  pop\n    /* \"FlattenedPool.sol\":20092:39501  contract PoolFamilyAndFriends is AccessControl, ReentrancyGuard {... */\n  jump(tag_43)\n    /* \"FlattenedPool.sol\":12597:12913  function _grantRole(bytes32 role, address account) internal virtual returns (bool) {... */\ntag_15:\n    /* \"FlattenedPool.sol\":12674:12678  bool */\n  0x00\n    /* \"FlattenedPool.sol\":9372:9384  _roles[role] */\n  dup3\n  dup2\n  mstore\n  0x20\n  dup2\n  dup2\n  mstore\n  0x40\n  dup1\n  dup4\n  keccak256\n  sub(shl(0xa0, 0x01), 0x01)\n    /* \"FlattenedPool.sol\":9372:9401  _roles[role].hasRole[account] */\n  dup6\n  and\n  dup5\n  mstore\n  swap1\n  swap2\n  mstore\n  dup2\n  keccak256\n  sload\n  0xff\n  and\n    /* \"FlattenedPool.sol\":12690:12907  if (!hasRole(role, account)) {... */\n  tag_35\n  jumpi\n    /* \"FlattenedPool.sol\":12733:12739  _roles */\n  0x00\n    /* \"FlattenedPool.sol\":12733:12745  _roles[role] */\n  dup4\n  dup2\n  mstore\n  0x20\n  dup2\n  dup2\n  mstore\n  0x40\n  dup1\n  dup4\n  keccak256\n  sub(shl(0xa0, 0x01), 0x01)\n    /* \"FlattenedPool.sol\":12733:12762  _roles[role].hasRole[account] */\n  dup7\n  and\n  dup5\n  mstore\n  swap1\n  swap2\n  mstore\n  swap1\n  keccak256\n    /* \"FlattenedPool.sol\":12733:12769  _roles[role].hasRole[account] = true */\n  dup1\n  sload\n  not(0xff)\n  and\n    /* \"FlattenedPool.sol\":12765:12769  true */\n  0x01\n    /* \"FlattenedPool.sol\":12733:12769  _roles[role].hasRole[account] = true */\n  or\n  swap1\n  sstore\n    /* \"FlattenedPool.sol\":12815:12827  _msgSender() */\n  tag_36\n    /* \"FlattenedPool.sol\":4336:4346  msg.sender */\n  caller\n  swap1\n    /* \"FlattenedPool.sol\":4257:4353  function _msgSender() internal view virtual returns (address) {... */\n  jump\n    /* \"FlattenedPool.sol\":12815:12827  _msgSender() */\ntag_36:\n  sub(shl(0xa0, 0x01), 0x01)\n    /* \"FlattenedPool.sol\":12788:12828  RoleGranted(role, account, _msgSender()) */\n  and\n    /* \"FlattenedPool.sol\":12806:12813  account */\n  dup3\n  sub(shl(0xa0, 0x01), 0x01)\n    /* \"FlattenedPool.sol\":12788:12828  RoleGranted(role, account, _msgSender()) */\n  and\n    /* \"FlattenedPool.sol\":12800:12804  role */\n  dup5\n    /* \"FlattenedPool.sol\":12788:12828  RoleGranted(role, account, _msgSender()) */\n  0x2f8788117e7eff1d82e926ec794901d17c78024a50270940304540a733656f0d\n  mload(0x40)\n  mload(0x40)\n  dup1\n  swap2\n  sub\n  swap1\n  log4\n  pop\n    /* \"FlattenedPool.sol\":12849:12853  true */\n  0x01\n    /* \"FlattenedPool.sol\":12842:12853  return true */\n  jump(tag_38)\n    /* \"FlattenedPool.sol\":12690:12907  if (!hasRole(role, account)) {... */\ntag_35:\n  pop\n    /* \"FlattenedPool.sol\":12891:12896  false */\n  0x00\n    /* \"FlattenedPool.sol\":12690:12907  if (!hasRole(role, account)) {... */\ntag_38:\n    /* \"FlattenedPool.sol\":12597:12913  function _grantRole(bytes32 role, address account) internal virtual returns (bool) {... */\n  swap3\n  swap2\n  pop\n  pop\n  jump\t// out\n    /* \"#utility.yul\":14:141   */\ntag_41:\n    /* \"#utility.yul\":75:85   */\n  0x4e487b71\n    /* \"#utility.yul\":70:73   */\n  0xe0\n    /* \"#utility.yul\":66:86   */\n  shl\n    /* \"#utility.yul\":63:64   */\n  0x00\n    /* \"#utility.yul\":56:87   */\n  mstore\n    /* \"#utility.yul\":106:110   */\n  0x41\n    /* \"#utility.yul\":103:104   */\n  0x04\n    /* \"#utility.yul\":96:111   */\n  mstore\n    /* \"#utility.yul\":130:134   */\n  0x24\n    /* \"#utility.yul\":127:128   */\n  0x00\n    /* \"#utility.yul\":120:135   */\n  revert\n    /* \"#utility.yul\":146:323   */\ntag_42:\n    /* \"#utility.yul\":225:238   */\n  dup1\n  mload\n  sub(shl(0xa0, 0x01), 0x01)\n    /* \"#utility.yul\":267:298   */\n  dup2\n  and\n    /* \"#utility.yul\":257:299   */\n  dup2\n  eq\n    /* \"#utility.yul\":247:317   */\n  tag_46\n  jumpi\n    /* \"#utility.yul\":313:314   */\n  0x00\n    /* \"#utility.yul\":310:311   */\n  dup1\n    /* \"#utility.yul\":303:315   */\n  revert\n    /* \"#utility.yul\":247:317   */\ntag_46:\n    /* \"#utility.yul\":146:323   */\n  swap2\n  swap1\n  pop\n  jump\t// out\n    /* \"#utility.yul\":328:1544   */\ntag_3:\n    /* \"#utility.yul\":432:438   */\n  0x00\n    /* \"#utility.yul\":440:446   */\n  dup1\n    /* \"#utility.yul\":493:495   */\n  0x40\n    /* \"#utility.yul\":481:490   */\n  dup4\n    /* \"#utility.yul\":472:479   */\n  dup6\n    /* \"#utility.yul\":468:491   */\n  sub\n    /* \"#utility.yul\":464:496   */\n  slt\n    /* \"#utility.yul\":461:513   */\n  iszero\n  tag_48\n  jumpi\n    /* \"#utility.yul\":509:510   */\n  0x00\n    /* \"#utility.yul\":506:507   */\n  dup1\n    /* \"#utility.yul\":499:511   */\n  revert\n    /* \"#utility.yul\":461:513   */\ntag_48:\n    /* \"#utility.yul\":536:552   */\n  dup3\n  mload\n  sub(shl(0x40, 0x01), 0x01)\n    /* \"#utility.yul\":601:615   */\n  dup1\n  dup3\n  gt\n    /* \"#utility.yul\":598:632   */\n  iszero\n  tag_49\n  jumpi\n    /* \"#utility.yul\":628:629   */\n  0x00\n    /* \"#utility.yul\":625:626   */\n  dup1\n    /* \"#utility.yul\":618:630   */\n  revert\n    /* \"#utility.yul\":598:632   */\ntag_49:\n    /* \"#utility.yul\":666:672   */\n  dup2\n    /* \"#utility.yul\":655:664   */\n  dup6\n    /* \"#utility.yul\":651:673   */\n  add\n    /* \"#utility.yul\":641:673   */\n  swap2\n  pop\n    /* \"#utility.yul\":711:718   */\n  dup6\n    /* \"#utility.yul\":704:708   */\n  0x1f\n    /* \"#utility.yul\":700:702   */\n  dup4\n    /* \"#utility.yul\":696:709   */\n  add\n    /* \"#utility.yul\":692:719   */\n  slt\n    /* \"#utility.yul\":682:737   */\n  tag_50\n  jumpi\n    /* \"#utility.yul\":733:734   */\n  0x00\n    /* \"#utility.yul\":730:731   */\n  dup1\n    /* \"#utility.yul\":723:735   */\n  revert\n    /* \"#utility.yul\":682:737   */\ntag_50:\n    /* \"#utility.yul\":762:764   */\n  dup2\n    /* \"#utility.yul\":756:765   */\n  mload\n    /* \"#utility.yul\":784:788   */\n  0x20\n    /* \"#utility.yul\":807:809   */\n  dup3\n    /* \"#utility.yul\":803:805   */\n  dup3\n    /* \"#utility.yul\":800:810   */\n  gt\n    /* \"#utility.yul\":797:833   */\n  iszero\n  tag_52\n  jumpi\n    /* \"#utility.yul\":813:831   */\n  tag_52\n  tag_41\n  jump\t// in\ntag_52:\n    /* \"#utility.yul\":859:861   */\n  dup2\n    /* \"#utility.yul\":856:857   */\n  0x05\n    /* \"#utility.yul\":852:862   */\n  shl\n    /* \"#utility.yul\":891:893   */\n  0x40\n    /* \"#utility.yul\":885:894   */\n  mload\n    /* \"#utility.yul\":954:956   */\n  0x1f\n    /* \"#utility.yul\":950:957   */\n  not\n    /* \"#utility.yul\":945:947   */\n  0x3f\n    /* \"#utility.yul\":941:943   */\n  dup4\n    /* \"#utility.yul\":937:948   */\n  add\n    /* \"#utility.yul\":933:958   */\n  and\n    /* \"#utility.yul\":925:931   */\n  dup2\n    /* \"#utility.yul\":921:959   */\n  add\n    /* \"#utility.yul\":1009:1015   */\n  dup2\n    /* \"#utility.yul\":997:1007   */\n  dup2\n    /* \"#utility.yul\":994:1016   */\n  lt\n    /* \"#utility.yul\":989:991   */\n  dup7\n    /* \"#utility.yul\":977:987   */\n  dup3\n    /* \"#utility.yul\":974:992   */\n  gt\n    /* \"#utility.yul\":971:1017   */\n  or\n    /* \"#utility.yul\":968:1040   */\n  iszero\n  tag_54\n  jumpi\n    /* \"#utility.yul\":1020:1038   */\n  tag_54\n  tag_41\n  jump\t// in\ntag_54:\n    /* \"#utility.yul\":1056:1058   */\n  0x40\n    /* \"#utility.yul\":1049:1071   */\n  mstore\n    /* \"#utility.yul\":1106:1124   */\n  swap3\n  dup4\n  mstore\n    /* \"#utility.yul\":1140:1155   */\n  dup2\n  dup4\n  add\n  swap4\n  pop\n    /* \"#utility.yul\":1182:1193   */\n  dup5\n  dup2\n  add\n    /* \"#utility.yul\":1178:1198   */\n  dup3\n  add\n  swap3\n    /* \"#utility.yul\":1210:1229   */\n  dup10\n  dup5\n  gt\n    /* \"#utility.yul\":1207:1246   */\n  iszero\n  tag_55\n  jumpi\n    /* \"#utility.yul\":1242:1243   */\n  0x00\n    /* \"#utility.yul\":1239:1240   */\n  dup1\n    /* \"#utility.yul\":1232:1244   */\n  revert\n    /* \"#utility.yul\":1207:1246   */\ntag_55:\n    /* \"#utility.yul\":1266:1277   */\n  swap5\n  dup3\n  add\n  swap5\n    /* \"#utility.yul\":1286:1445   */\ntag_56:\n    /* \"#utility.yul\":1302:1308   */\n  dup4\n    /* \"#utility.yul\":1297:1300   */\n  dup7\n    /* \"#utility.yul\":1294:1309   */\n  lt\n    /* \"#utility.yul\":1286:1445   */\n  iszero\n  tag_58\n  jumpi\n    /* \"#utility.yul\":1368:1402   */\n  tag_59\n    /* \"#utility.yul\":1398:1401   */\n  dup7\n    /* \"#utility.yul\":1368:1402   */\n  tag_42\n  jump\t// in\ntag_59:\n    /* \"#utility.yul\":1356:1403   */\n  dup6\n  mstore\n    /* \"#utility.yul\":1319:1331   */\n  swap5\n  dup3\n  add\n  swap5\n    /* \"#utility.yul\":1423:1435   */\n  swap4\n  dup3\n  add\n  swap4\n    /* \"#utility.yul\":1286:1445   */\n  jump(tag_56)\ntag_58:\n    /* \"#utility.yul\":1464:1470   */\n  swap7\n  pop\n    /* \"#utility.yul\":1489:1538   */\n  tag_60\n  swap1\n  pop\n    /* \"#utility.yul\":1519:1537   */\n  dup8\n  dup3\n  add\n    /* \"#utility.yul\":1489:1538   */\n  tag_42\n  jump\t// in\ntag_60:\n    /* \"#utility.yul\":1479:1538   */\n  swap5\n  pop\n  pop\n  pop\n  pop\n  pop\n    /* \"#utility.yul\":328:1544   */\n  swap3\n  pop\n  swap3\n  swap1\n  pop\n  jump\t// out\n    /* \"#utility.yul\":1549:1676   */\ntag_14:\n    /* \"#utility.yul\":1610:1620   */\n  0x4e487b71\n    /* \"#utility.yul\":1605:1608   */\n  0xe0\n    /* \"#utility.yul\":1601:1621   */\n  shl\n    /* \"#utility.yul\":1598:1599   */\n  0x00\n    /* \"#utility.yul\":1591:1622   */\n  mstore\n    /* \"#utility.yul\":1641:1645   */\n  0x32\n    /* \"#utility.yul\":1638:1639   */\n  0x04\n    /* \"#utility.yul\":1631:1646   */\n  mstore\n    /* \"#utility.yul\":1665:1669   */\n  0x24\n    /* \"#utility.yul\":1662:1663   */\n  0x00\n    /* \"#utility.yul\":1655:1670   */\n  revert\n    /* \"#utility.yul\":1549:1676   */\ntag_43:\n    /* \"FlattenedPool.sol\":20092:39501  contract PoolFamilyAndFriends is AccessControl, ReentrancyGuard {... */\n  dataSize(sub_0)\n  dup1\n  dataOffset(sub_0)\n  0x00\n  codecopy\n  0x00\n  return\nstop\n\nsub_0: assembly {\n        /* \"FlattenedPool.sol\":20092:39501  contract PoolFamilyAndFriends is AccessControl, ReentrancyGuard {... */\n      mstore(0x40, 0x80)\n      jumpi(tag_1, lt(calldatasize, 0x04))\n      shr(0xe0, calldataload(0x00))\n      dup1\n      0x885f5029\n      gt\n      tag_72\n      jumpi\n      dup1\n      0xb758aeaa\n      gt\n      tag_73\n      jumpi\n      dup1\n      0xe340b783\n      gt\n      tag_74\n      jumpi\n      dup1\n      0xee947a7c\n      gt\n      tag_75\n      jumpi\n      dup1\n      0xf5f69af2\n      gt\n      tag_76\n      jumpi\n      dup1\n      0xf5f69af2\n      eq\n      tag_69\n      jumpi\n      dup1\n      0xf6326fb3\n      eq\n      tag_70\n      jumpi\n      dup1\n      0xf688bcfb\n      eq\n      tag_71\n      jumpi\n      0x00\n      dup1\n      revert\n    tag_76:\n      dup1\n      0xee947a7c\n      eq\n      tag_67\n      jumpi\n      dup1\n      0xf29b2239\n      eq\n      tag_68\n      jumpi\n      0x00\n      dup1\n      revert\n    tag_75:\n      dup1\n      0xe340b783\n      eq\n      tag_63\n      jumpi\n      dup1\n      0xe399067f\n      eq\n      tag_64\n      jumpi\n      dup1\n      0xe63ab1e9\n      eq\n      tag_65\n      jumpi\n      dup1\n      0xe9fe0c78\n      eq\n      tag_66\n      jumpi\n      0x00\n      dup1\n      revert\n    tag_74:\n      dup1\n      0xd830d5cc\n      gt\n      tag_77\n      jumpi\n      dup1\n      0xe02f6aca\n      gt\n      tag_78\n      jumpi\n      dup1\n      0xe02f6aca\n      eq\n      tag_60\n      jumpi\n      dup1\n      0xe043b2b2\n      eq\n      tag_61\n      jumpi\n      dup1\n      0xe15e23c1\n      eq\n      tag_62\n      jumpi\n      0x00\n      dup1\n      revert\n    tag_78:\n      dup1\n      0xd830d5cc\n      eq\n      tag_58\n      jumpi\n      dup1\n      0xda8d5add\n      eq\n      tag_59\n      jumpi\n      0x00\n      dup1\n      revert\n    tag_77:\n      dup1\n      0xb758aeaa\n      eq\n      tag_54\n      jumpi\n      dup1\n      0xbda821e8\n      eq\n      tag_55\n      jumpi\n      dup1\n      0xc771c390\n      eq\n      tag_56\n      jumpi\n      dup1\n      0xd547741f\n      eq\n      tag_57\n      jumpi\n      0x00\n      dup1\n      revert\n    tag_73:\n      dup1\n      0x97d9e5b4\n      gt\n      tag_79\n      jumpi\n      dup1\n      0xa2bdedf4\n      gt\n      tag_80\n      jumpi\n      dup1\n      0xb2118a8d\n      gt\n      tag_81\n      jumpi\n      dup1\n      0xb2118a8d\n      eq\n      tag_51\n      jumpi\n      dup1\n      0xb2b77ae2\n      eq\n      tag_52\n      jumpi\n      dup1\n      0xb65ba94b\n      eq\n      tag_53\n      jumpi\n      0x00\n      dup1\n      revert\n    tag_81:\n      dup1\n      0xa2bdedf4\n      eq\n      tag_49\n      jumpi\n      dup1\n      0xa59aa5a6\n      eq\n      tag_50\n      jumpi\n      0x00\n      dup1\n      revert\n    tag_80:\n      dup1\n      0x97d9e5b4\n      eq\n      tag_45\n      jumpi\n      dup1\n      0x9ddc3912\n      eq\n      tag_46\n      jumpi\n      dup1\n      0x9e657e33\n      eq\n      tag_47\n      jumpi\n      dup1\n      0xa217fddf\n      eq\n      tag_48\n      jumpi\n      0x00\n      dup1\n      revert\n    tag_79:\n      dup1\n      0x89bad0a6\n      gt\n      tag_82\n      jumpi\n      dup1\n      0x89bad0a6\n      eq\n      tag_41\n      jumpi\n      dup1\n      0x8b713b2e\n      eq\n      tag_42\n      jumpi\n      dup1\n      0x91d14854\n      eq\n      tag_43\n      jumpi\n      dup1\n      0x93055c43\n      eq\n      tag_44\n      jumpi\n      0x00\n      dup1\n      revert\n    tag_82:\n      dup1\n      0x885f5029\n      eq\n      tag_37\n      jumpi\n      dup1\n      0x886d589d\n      eq\n      tag_38\n      jumpi\n      dup1\n      0x899aa991\n      eq\n      tag_39\n      jumpi\n      dup1\n      0x89a30271\n      eq\n      tag_40\n      jumpi\n      0x00\n      dup1\n      revert\n    tag_72:\n      dup1\n      0x41debf1f\n      gt\n      tag_83\n      jumpi\n      dup1\n      0x64021b13\n      gt\n      tag_84\n      jumpi\n      dup1\n      0x72e55399\n      gt\n      tag_85\n      jumpi\n      dup1\n      0x762e1c73\n      gt\n      tag_86\n      jumpi\n      dup1\n      0x762e1c73\n      eq\n      tag_34\n      jumpi\n      dup1\n      0x76c1d3db\n      eq\n      tag_35\n      jumpi\n      dup1\n      0x867d099a\n      eq\n      tag_36\n      jumpi\n      0x00\n      dup1\n      revert\n    tag_86:\n      dup1\n      0x72e55399\n      eq\n      tag_32\n      jumpi\n      dup1\n      0x75b238fc\n      eq\n      tag_33\n      jumpi\n      0x00\n      dup1\n      revert\n    tag_85:\n      dup1\n      0x64021b13\n      eq\n      tag_28\n      jumpi\n      dup1\n      0x6426be48\n      eq\n      tag_29\n      jumpi\n      dup1\n      0x6c6ff56c\n      eq\n      tag_30\n      jumpi\n      dup1\n      0x6ec23995\n      eq\n      tag_31\n      jumpi\n      0x00\n      dup1\n      revert\n    tag_84:\n      dup1\n      0x53d6fd59\n      gt\n      tag_87\n      jumpi\n      dup1\n      0x53d6fd59\n      eq\n      tag_24\n      jumpi\n      dup1\n      0x588583a0\n      eq\n      tag_25\n      jumpi\n      dup1\n      0x5e2c19db\n      eq\n      tag_26\n      jumpi\n      dup1\n      0x6068d6cb\n      eq\n      tag_27\n      jumpi\n      0x00\n      dup1\n      revert\n    tag_87:\n      dup1\n      0x41debf1f\n      eq\n      tag_20\n      jumpi\n      dup1\n      0x47af19aa\n      eq\n      tag_21\n      jumpi\n      dup1\n      0x4e43603a\n      eq\n      tag_22\n      jumpi\n      dup1\n      0x51fb012d\n      eq\n      tag_23\n      jumpi\n      0x00\n      dup1\n      revert\n    tag_83:\n      dup1\n      0x27175b23\n      gt\n      tag_88\n      jumpi\n      dup1\n      0x2f2ff15d\n      gt\n      tag_89\n      jumpi\n      dup1\n      0x36568abe\n      gt\n      tag_90\n      jumpi\n      dup1\n      0x36568abe\n      eq\n      tag_17\n      jumpi\n      dup1\n      0x3ac43970\n      eq\n      tag_18\n      jumpi\n      dup1\n      0x3af32abf\n      eq\n      tag_19\n      jumpi\n      0x00\n      dup1\n      revert\n    tag_90:\n      dup1\n      0x2f2ff15d\n      eq\n      tag_15\n      jumpi\n      dup1\n      0x3408567c\n      eq\n      tag_16\n      jumpi\n      0x00\n      dup1\n      revert\n    tag_89:\n      dup1\n      0x27175b23\n      eq\n      tag_11\n      jumpi\n      dup1\n      0x275991d2\n      eq\n      tag_12\n      jumpi\n      dup1\n      0x2a5bf6d2\n      eq\n      tag_13\n      jumpi\n      dup1\n      0x2e1a7d4d\n      eq\n      tag_14\n      jumpi\n      0x00\n      dup1\n      revert\n    tag_88:\n      dup1\n      0x0c016ad5\n      gt\n      tag_91\n      jumpi\n      dup1\n      0x0c016ad5\n      eq\n      tag_7\n      jumpi\n      dup1\n      0x1c5aeef7\n      eq\n      tag_8\n      jumpi\n      dup1\n      0x246d47b7\n      eq\n      tag_9\n      jumpi\n      dup1\n      0x248a9ca3\n      eq\n      tag_10\n      jumpi\n      0x00\n      dup1\n      revert\n    tag_91:\n      dup1\n      0x01ffc9a7\n      eq\n      tag_3\n      jumpi\n      dup1\n      0x04c68af0\n      eq\n      tag_4\n      jumpi\n      dup1\n      0x052d9e7e\n      eq\n      tag_5\n      jumpi\n      dup1\n      0x08f43333\n      eq\n      tag_6\n      jumpi\n      0x00\n      dup1\n      revert\n    tag_1:\n      jumpi(tag_2, calldatasize)\n      stop\n    tag_2:\n      0x00\n      dup1\n      revert\n        /* \"FlattenedPool.sol\":8983:9185  function supportsInterface(bytes4 interfaceId) public view virtual override returns (bool) {... */\n    tag_3:\n      callvalue\n      dup1\n      iszero\n      tag_94\n      jumpi\n      0x00\n      dup1\n      revert\n    tag_94:\n      pop\n      tag_95\n      tag_96\n      calldatasize\n      0x04\n      tag_97\n      jump\t// in\n    tag_96:\n      tag_98\n      jump\t// in\n    tag_95:\n      mload(0x40)\n        /* \"#utility.yul\":566:580   */\n      swap1\n      iszero\n        /* \"#utility.yul\":559:581   */\n      iszero\n        /* \"#utility.yul\":541:582   */\n      dup2\n      mstore\n        /* \"#utility.yul\":529:531   */\n      0x20\n        /* \"#utility.yul\":514:532   */\n      add\n        /* \"FlattenedPool.sol\":8983:9185  function supportsInterface(bytes4 interfaceId) public view virtual override returns (bool) {... */\n    tag_99:\n      mload(0x40)\n      dup1\n      swap2\n      sub\n      swap1\n      return\n        /* \"FlattenedPool.sol\":21688:21746  mapping(address => uint256) public userTotalReinvestedUSDC */\n    tag_4:\n      callvalue\n      dup1\n      iszero\n      tag_101\n      jumpi\n      0x00\n      dup1\n      revert\n    tag_101:\n      pop\n      tag_102\n      tag_103\n      calldatasize\n      0x04\n      tag_104\n      jump\t// in\n    tag_103:\n      mstore(0x20, 0x0e)\n      0x00\n      swap1\n      dup2\n      mstore\n      0x40\n      swap1\n      keccak256\n      sload\n      dup2\n      jump\n    tag_102:\n      mload(0x40)\n        /* \"#utility.yul\":1131:1156   */\n      swap1\n      dup2\n      mstore\n        /* \"#utility.yul\":1119:1121   */\n      0x20\n        /* \"#utility.yul\":1104:1122   */\n      add\n        /* \"FlattenedPool.sol\":21688:21746  mapping(address => uint256) public userTotalReinvestedUSDC */\n      tag_99\n        /* \"#utility.yul\":985:1162   */\n      jump\n        /* \"FlattenedPool.sol\":24917:25033  function setWhitelistEnabled(bool enabled) external onlyRole(ADMIN_ROLE) {... */\n    tag_5:\n      callvalue\n      dup1\n      iszero\n      tag_108\n      jumpi\n      0x00\n      dup1\n      revert\n    tag_108:\n      pop\n      tag_109\n      tag_110\n      calldatasize\n      0x04\n      tag_111\n      jump\t// in\n    tag_110:\n      tag_112\n      jump\t// in\n    tag_109:\n      stop\n        /* \"FlattenedPool.sol\":21336:21389  mapping(address => DepositInfo[]) public userDeposits */\n    tag_6:\n      callvalue\n      dup1\n      iszero\n      tag_113\n      jumpi\n      0x00\n      dup1\n      revert\n    tag_113:\n      pop\n      tag_114\n      tag_115\n      calldatasize\n      0x04\n      tag_116\n      jump\t// in\n    tag_115:\n      tag_117\n      jump\t// in\n    tag_114:\n      mload(0x40)\n      tag_99\n      swap10\n      swap9\n      swap8\n      swap7\n      swap6\n      swap5\n      swap4\n      swap3\n      swap2\n      swap1\n      tag_119\n      jump\t// in\n        /* \"FlattenedPool.sol\":20875:20957  bytes32 public constant UTILITY_INJECTOR_ROLE = keccak256(\"UTILITY_INJECTOR_ROLE\") */\n    tag_7:\n      callvalue\n      dup1\n      iszero\n      tag_120\n      jumpi\n      0x00\n      dup1\n      revert\n    tag_120:\n      pop\n      tag_102\n        /* \"FlattenedPool.sol\":20923:20957  keccak256(\"UTILITY_INJECTOR_ROLE\") */\n      0xf60566c40710959d8d30b6067ce3c53c757bec78eecb0e46b83c7f8194ffae37\n        /* \"FlattenedPool.sol\":20875:20957  bytes32 public constant UTILITY_INJECTOR_ROLE = keccak256(\"UTILITY_INJECTOR_ROLE\") */\n      dup2\n      jump\n        /* \"FlattenedPool.sol\":20392:20435  uint256 public maxCapUSDC = 5_000_000 * 1e6 */\n    tag_8:\n      callvalue\n      dup1\n      iszero\n      tag_125\n      jumpi\n      0x00\n      dup1\n      revert\n    tag_125:\n      pop\n      tag_102\n      sload(0x04)\n      dup2\n      jump\n        /* \"FlattenedPool.sol\":20543:20579  bool public globalLiquidationEnabled */\n    tag_9:\n      callvalue\n      dup1\n      iszero\n      tag_129\n      jumpi\n      0x00\n      dup1\n      revert\n    tag_129:\n      pop\n      sload(0x05)\n      tag_95\n      swap1\n      0x01000000\n      swap1\n      div\n      0xff\n      and\n      dup2\n      jump\n        /* \"FlattenedPool.sol\":10228:10348  function getRoleAdmin(bytes32 role) public view virtual returns (bytes32) {... */\n    tag_10:\n      callvalue\n      dup1\n      iszero\n      tag_133\n      jumpi\n      0x00\n      dup1\n      revert\n    tag_133:\n      pop\n      tag_102\n      tag_135\n      calldatasize\n      0x04\n      tag_136\n      jump\t// in\n    tag_135:\n        /* \"FlattenedPool.sol\":10293:10300  bytes32 */\n      0x00\n        /* \"FlattenedPool.sol\":10319:10331  _roles[role] */\n      swap1\n      dup2\n      mstore\n      0x20\n      dup2\n      swap1\n      mstore\n      0x40\n      swap1\n      keccak256\n        /* \"FlattenedPool.sol\":10319:10341  _roles[role].adminRole */\n      0x01\n      add\n      sload\n      swap1\n        /* \"FlattenedPool.sol\":10228:10348  function getRoleAdmin(bytes32 role) public view virtual returns (bytes32) {... */\n      jump\n        /* \"FlattenedPool.sol\":21922:21955  uint256 public totalDepositedUSDC */\n    tag_11:\n      callvalue\n      dup1\n      iszero\n      tag_139\n      jumpi\n      0x00\n      dup1\n      revert\n    tag_139:\n      pop\n      tag_102\n      sload(0x13)\n      dup2\n      jump\n        /* \"FlattenedPool.sol\":35031:35478  function reinvestUtilityETH() external nonReentrant {... */\n    tag_12:\n      callvalue\n      dup1\n      iszero\n      tag_143\n      jumpi\n      0x00\n      dup1\n      revert\n    tag_143:\n      pop\n      tag_109\n      tag_145\n      jump\t// in\n        /* \"FlattenedPool.sol\":39047:39173  function getUserDeposits(address user) external view returns (DepositInfo[] memory) {... */\n    tag_13:\n      callvalue\n      dup1\n      iszero\n      tag_146\n      jumpi\n      0x00\n      dup1\n      revert\n    tag_146:\n      pop\n      tag_147\n      tag_148\n      calldatasize\n      0x04\n      tag_104\n      jump\t// in\n    tag_148:\n      tag_149\n      jump\t// in\n    tag_147:\n      mload(0x40)\n      tag_99\n      swap2\n      swap1\n      tag_151\n      jump\t// in\n        /* \"FlattenedPool.sol\":27461:28646  function withdraw(uint256 depositIndex) external nonReentrant whenWithdrawalsNotPaused {... */\n    tag_14:\n      callvalue\n      dup1\n      iszero\n      tag_152\n      jumpi\n      0x00\n      dup1\n      revert\n    tag_152:\n      pop\n      tag_109\n      tag_154\n      calldatasize\n      0x04\n      tag_136\n      jump\t// in\n    tag_154:\n      tag_156\n      jump\t// in\n        /* \"FlattenedPool.sol\":10644:10780  function grantRole(bytes32 role, address account) public virtual onlyRole(getRoleAdmin(role)) {... */\n    tag_15:\n      callvalue\n      dup1\n      iszero\n      tag_157\n      jumpi\n      0x00\n      dup1\n      revert\n    tag_157:\n      pop\n      tag_109\n      tag_159\n      calldatasize\n      0x04\n      tag_160\n      jump\t// in\n    tag_159:\n      tag_161\n      jump\t// in\n        /* \"FlattenedPool.sol\":21496:21554  mapping(address => uint256) public userClaimableUtilityETH */\n    tag_16:\n      callvalue\n      dup1\n      iszero\n      tag_162\n      jumpi\n      0x00\n      dup1\n      revert\n    tag_162:\n      pop\n      tag_102\n      tag_164\n      calldatasize\n      0x04\n      tag_104\n      jump\t// in\n    tag_164:\n      mstore(0x20, 0x0b)\n      0x00\n      swap1\n      dup2\n      mstore\n      0x40\n      swap1\n      keccak256\n      sload\n      dup2\n      jump\n        /* \"FlattenedPool.sol\":11746:11991  function renounceRole(bytes32 role, address callerConfirmation) public virtual {... */\n    tag_17:\n      callvalue\n      dup1\n      iszero\n      tag_167\n      jumpi\n      0x00\n      dup1\n      revert\n    tag_167:\n      pop\n      tag_109\n      tag_169\n      calldatasize\n      0x04\n      tag_160\n      jump\t// in\n    tag_169:\n      tag_170\n      jump\t// in\n        /* \"FlattenedPool.sol\":22074:22105  uint256 public totalUtilityUSDC */\n    tag_18:\n      callvalue\n      dup1\n      iszero\n      tag_171\n      jumpi\n      0x00\n      dup1\n      revert\n    tag_171:\n      pop\n      tag_102\n      sload(0x17)\n      dup2\n      jump\n        /* \"FlattenedPool.sol\":21395:21440  mapping(address => bool) public isWhitelisted */\n    tag_19:\n      callvalue\n      dup1\n      iszero\n      tag_175\n      jumpi\n      0x00\n      dup1\n      revert\n    tag_175:\n      pop\n      tag_95\n      tag_177\n      calldatasize\n      0x04\n      tag_104\n      jump\t// in\n    tag_177:\n      mstore(0x20, 0x09)\n      0x00\n      swap1\n      dup2\n      mstore\n      0x40\n      swap1\n      keccak256\n      sload\n      0xff\n      and\n      dup2\n      jump\n        /* \"FlattenedPool.sol\":33683:34188  function assignUtilityUSDCBatch(address[] calldata users, uint256[] calldata amounts) external onlyRole(ADMIN_ROLE) {... */\n    tag_20:\n      callvalue\n      dup1\n      iszero\n      tag_180\n      jumpi\n      0x00\n      dup1\n      revert\n    tag_180:\n      pop\n      tag_109\n      tag_182\n      calldatasize\n      0x04\n      tag_183\n      jump\t// in\n    tag_182:\n      tag_184\n      jump\t// in\n        /* \"FlattenedPool.sol\":25212:25559  function setWhitelistBatch(address[] calldata users, bool[] calldata statuses) external onlyRole(ADMIN_ROLE) {... */\n    tag_21:\n      callvalue\n      dup1\n      iszero\n      tag_185\n      jumpi\n      0x00\n      dup1\n      revert\n    tag_185:\n      pop\n      tag_109\n      tag_187\n      calldatasize\n      0x04\n      tag_183\n      jump\t// in\n    tag_187:\n      tag_189\n      jump\t// in\n        /* \"FlattenedPool.sol\":37893:39041  function getUserStats(address user) external view returns (... */\n    tag_22:\n      callvalue\n      dup1\n      iszero\n      tag_190\n      jumpi\n      0x00\n      dup1\n      revert\n    tag_190:\n      pop\n      tag_191\n      tag_192\n      calldatasize\n      0x04\n      tag_104\n      jump\t// in\n    tag_192:\n      tag_193\n      jump\t// in\n    tag_191:\n      0x40\n      dup1\n      mload\n        /* \"#utility.yul\":7575:7600   */\n      swap9\n      dup10\n      mstore\n        /* \"#utility.yul\":7631:7633   */\n      0x20\n        /* \"#utility.yul\":7616:7634   */\n      dup10\n      add\n        /* \"#utility.yul\":7609:7643   */\n      swap8\n      swap1\n      swap8\n      mstore\n        /* \"#utility.yul\":7659:7677   */\n      swap6\n      dup8\n      add\n        /* \"#utility.yul\":7652:7686   */\n      swap5\n      swap1\n      swap5\n      mstore\n        /* \"#utility.yul\":7717:7719   */\n      0x60\n        /* \"#utility.yul\":7702:7720   */\n      dup7\n      add\n        /* \"#utility.yul\":7695:7729   */\n      swap3\n      swap1\n      swap3\n      mstore\n        /* \"#utility.yul\":7760:7763   */\n      0x80\n        /* \"#utility.yul\":7745:7764   */\n      dup6\n      add\n        /* \"#utility.yul\":7738:7773   */\n      mstore\n        /* \"#utility.yul\":7804:7807   */\n      0xa0\n        /* \"#utility.yul\":7789:7808   */\n      dup5\n      add\n        /* \"#utility.yul\":7782:7817   */\n      mstore\n        /* \"#utility.yul\":7848:7851   */\n      0xc0\n        /* \"#utility.yul\":7833:7852   */\n      dup4\n      add\n        /* \"#utility.yul\":7826:7861   */\n      mstore\n        /* \"#utility.yul\":7892:7895   */\n      0xe0\n        /* \"#utility.yul\":7877:7896   */\n      dup3\n      add\n        /* \"#utility.yul\":7870:7905   */\n      mstore\n        /* \"#utility.yul\":7562:7565   */\n      0x0100\n        /* \"#utility.yul\":7547:7566   */\n      add\n        /* \"FlattenedPool.sol\":37893:39041  function getUserStats(address user) external view returns (... */\n      tag_99\n        /* \"#utility.yul\":7232:7911   */\n      jump\n        /* \"FlattenedPool.sol\":20509:20537  bool public whitelistEnabled */\n    tag_23:\n      callvalue\n      dup1\n      iszero\n      tag_196\n      jumpi\n      0x00\n      dup1\n      revert\n    tag_196:\n      pop\n      sload(0x05)\n      tag_95\n      swap1\n      0x010000\n      swap1\n      div\n      0xff\n      and\n      dup2\n      jump\n        /* \"FlattenedPool.sol\":25039:25207  function setWhitelist(address user, bool status) external onlyRole(ADMIN_ROLE) {... */\n    tag_24:\n      callvalue\n      dup1\n      iszero\n      tag_200\n      jumpi\n      0x00\n      dup1\n      revert\n    tag_200:\n      pop\n      tag_109\n      tag_202\n      calldatasize\n      0x04\n      tag_203\n      jump\t// in\n    tag_202:\n      tag_204\n      jump\t// in\n        /* \"FlattenedPool.sol\":20585:20626  uint256 public globalLiquidationTimestamp */\n    tag_25:\n      callvalue\n      dup1\n      iszero\n      tag_205\n      jumpi\n      0x00\n      dup1\n      revert\n    tag_205:\n      pop\n      tag_102\n      sload(0x06)\n      dup2\n      jump\n        /* \"FlattenedPool.sol\":21446:21490  mapping(address => bool) public hasWithdrawn */\n    tag_26:\n      callvalue\n      dup1\n      iszero\n      tag_209\n      jumpi\n      0x00\n      dup1\n      revert\n    tag_209:\n      pop\n      tag_95\n      tag_211\n      calldatasize\n      0x04\n      tag_104\n      jump\t// in\n    tag_211:\n      mstore(0x20, 0x0a)\n      0x00\n      swap1\n      dup2\n      mstore\n      0x40\n      swap1\n      keccak256\n      sload\n      0xff\n      and\n      dup2\n      jump\n        /* \"FlattenedPool.sol\":20442:20468  bool public pausedDeposits */\n    tag_27:\n      callvalue\n      dup1\n      iszero\n      tag_214\n      jumpi\n      0x00\n      dup1\n      revert\n    tag_214:\n      pop\n      sload(0x05)\n      tag_95\n      swap1\n      0xff\n      and\n      dup2\n      jump\n        /* \"FlattenedPool.sol\":31924:32178  function injectUtilityETH() external payable onlyRole(UTILITY_INJECTOR_ROLE) {... */\n    tag_28:\n      tag_109\n      tag_219\n      jump\t// in\n        /* \"FlattenedPool.sol\":24689:24911  function setPaused(bool _deposits, bool _withdrawals) external onlyRole(PAUSER_ROLE) {... */\n    tag_29:\n      callvalue\n      dup1\n      iszero\n      tag_220\n      jumpi\n      0x00\n      dup1\n      revert\n    tag_220:\n      pop\n      tag_109\n      tag_222\n      calldatasize\n      0x04\n      tag_223\n      jump\t// in\n    tag_222:\n      tag_224\n      jump\t// in\n        /* \"FlattenedPool.sol\":34641:34985  function claimUtilityUSDC() external nonReentrant {... */\n    tag_30:\n      callvalue\n      dup1\n      iszero\n      tag_225\n      jumpi\n      0x00\n      dup1\n      revert\n    tag_225:\n      pop\n      tag_109\n      tag_227\n      jump\t// in\n        /* \"FlattenedPool.sol\":32568:32842  function assignUtilityETH(address user, uint256 amount) external onlyRole(ADMIN_ROLE) {... */\n    tag_31:\n      callvalue\n      dup1\n      iszero\n      tag_228\n      jumpi\n      0x00\n      dup1\n      revert\n    tag_228:\n      pop\n      tag_109\n      tag_230\n      calldatasize\n      0x04\n      tag_116\n      jump\t// in\n    tag_230:\n      tag_231\n      jump\t// in\n        /* \"FlattenedPool.sol\":28683:30781  function batchWithdraw(uint256[] calldata depositIndices) external nonReentrant whenWithdrawalsNotPaused {... */\n    tag_32:\n      callvalue\n      dup1\n      iszero\n      tag_232\n      jumpi\n      0x00\n      dup1\n      revert\n    tag_232:\n      pop\n      tag_109\n      tag_234\n      calldatasize\n      0x04\n      tag_235\n      jump\t// in\n    tag_234:\n      tag_236\n      jump\t// in\n        /* \"FlattenedPool.sol\":20669:20729  bytes32 public constant ADMIN_ROLE = keccak256(\"ADMIN_ROLE\") */\n    tag_33:\n      callvalue\n      dup1\n      iszero\n      tag_237\n      jumpi\n      0x00\n      dup1\n      revert\n    tag_237:\n      pop\n      tag_102\n      0x00\n      dup1\n      mload\n      0x20\n      data_cb864c43dd5d441bb6271f424f11befa622c032dfd374d226e26fbbdb782b8f8\n      dup4\n      codecopy\n      dup2\n      mload\n      swap2\n      mstore\n      dup2\n      jump\n        /* \"FlattenedPool.sol\":32847:33125  function assignUtilityUSDC(address user, uint256 amount) external onlyRole(ADMIN_ROLE) {... */\n    tag_34:\n      callvalue\n      dup1\n      iszero\n      tag_241\n      jumpi\n      0x00\n      dup1\n      revert\n    tag_241:\n      pop\n      tag_109\n      tag_243\n      calldatasize\n      0x04\n      tag_116\n      jump\t// in\n    tag_243:\n      tag_244\n      jump\t// in\n        /* \"FlattenedPool.sol\":36458:36783  function withdrawUtilityUSDC(uint256 amount) external onlyRole(UTILITY_WITHDRAWER_ROLE) nonReentrant {... */\n    tag_35:\n      callvalue\n      dup1\n      iszero\n      tag_245\n      jumpi\n      0x00\n      dup1\n      revert\n    tag_245:\n      pop\n      tag_109\n      tag_247\n      calldatasize\n      0x04\n      tag_136\n      jump\t// in\n    tag_247:\n      tag_248\n      jump\t// in\n        /* \"FlattenedPool.sol\":30841:31294  function unlockDepositsForUser(address user, uint256[] calldata depositIndices) external onlyRole(UNLOCKER_ROLE) {... */\n    tag_36:\n      callvalue\n      dup1\n      iszero\n      tag_249\n      jumpi\n      0x00\n      dup1\n      revert\n    tag_249:\n      pop\n      tag_109\n      tag_251\n      calldatasize\n      0x04\n      tag_252\n      jump\t// in\n    tag_251:\n      tag_253\n      jump\t// in\n        /* \"FlattenedPool.sol\":20963:21049  bytes32 public constant UTILITY_WITHDRAWER_ROLE = keccak256(\"UTILITY_WITHDRAWER_ROLE\") */\n    tag_37:\n      callvalue\n      dup1\n      iszero\n      tag_254\n      jumpi\n      0x00\n      dup1\n      revert\n    tag_254:\n      pop\n      tag_102\n        /* \"FlattenedPool.sol\":21013:21049  keccak256(\"UTILITY_WITHDRAWER_ROLE\") */\n      0x78c90eb9e475048b483a290aee04b5fe48355537c3623c7637b17d3bed71c6ed\n        /* \"FlattenedPool.sol\":20963:21049  bytes32 public constant UTILITY_WITHDRAWER_ROLE = keccak256(\"UTILITY_WITHDRAWER_ROLE\") */\n      dup2\n      jump\n        /* \"FlattenedPool.sol\":21625:21682  mapping(address => uint256) public userTotalReinvestedETH */\n    tag_38:\n      callvalue\n      dup1\n      iszero\n      tag_258\n      jumpi\n      0x00\n      dup1\n      revert\n    tag_258:\n      pop\n      tag_102\n      tag_260\n      calldatasize\n      0x04\n      tag_104\n      jump\t// in\n    tag_260:\n      mstore(0x20, 0x0d)\n      0x00\n      swap1\n      dup2\n      mstore\n      0x40\n      swap1\n      keccak256\n      sload\n      dup2\n      jump\n        /* \"FlattenedPool.sol\":21884:21916  uint256 public totalDepositedETH */\n    tag_39:\n      callvalue\n      dup1\n      iszero\n      tag_263\n      jumpi\n      0x00\n      dup1\n      revert\n    tag_263:\n      pop\n      tag_102\n      sload(0x12)\n      dup2\n      jump\n        /* \"FlattenedPool.sol\":20187:20260  address public constant USDC = 0x833589fCD6eDb6E08f4c7C32D4f71b54bdA02913 */\n    tag_40:\n      callvalue\n      dup1\n      iszero\n      tag_267\n      jumpi\n      0x00\n      dup1\n      revert\n    tag_267:\n      pop\n      tag_268\n        /* \"FlattenedPool.sol\":20218:20260  0x833589fCD6eDb6E08f4c7C32D4f71b54bdA02913 */\n      0x833589fcd6edb6e08f4c7c32d4f71b54bda02913\n        /* \"FlattenedPool.sol\":20187:20260  address public constant USDC = 0x833589fCD6eDb6E08f4c7C32D4f71b54bdA02913 */\n      dup2\n      jump\n    tag_268:\n      mload(0x40)\n      sub(shl(0xa0, 0x01), 0x01)\n        /* \"#utility.yul\":9739:9794   */\n      swap1\n      swap2\n      and\n        /* \"#utility.yul\":9721:9795   */\n      dup2\n      mstore\n        /* \"#utility.yul\":9709:9711   */\n      0x20\n        /* \"#utility.yul\":9694:9712   */\n      add\n        /* \"FlattenedPool.sol\":20187:20260  address public constant USDC = 0x833589fCD6eDb6E08f4c7C32D4f71b54bdA02913 */\n      tag_99\n        /* \"#utility.yul\":9575:9801   */\n      jump\n        /* \"FlattenedPool.sol\":25565:25821  function setUtilityAddress(address newUtilityAddress) external onlyRole(ADMIN_ROLE) {... */\n    tag_41:\n      callvalue\n      dup1\n      iszero\n      tag_272\n      jumpi\n      0x00\n      dup1\n      revert\n    tag_272:\n      pop\n      tag_109\n      tag_274\n      calldatasize\n      0x04\n      tag_104\n      jump\t// in\n    tag_274:\n      tag_275\n      jump\t// in\n        /* \"FlattenedPool.sol\":21961:21993  uint256 public totalWithdrawnETH */\n    tag_42:\n      callvalue\n      dup1\n      iszero\n      tag_276\n      jumpi\n      0x00\n      dup1\n      revert\n    tag_276:\n      pop\n      tag_102\n      sload(0x14)\n      dup2\n      jump\n        /* \"FlattenedPool.sol\":9272:9408  function hasRole(bytes32 role, address account) public view virtual returns (bool) {... */\n    tag_43:\n      callvalue\n      dup1\n      iszero\n      tag_280\n      jumpi\n      0x00\n      dup1\n      revert\n    tag_280:\n      pop\n      tag_95\n      tag_282\n      calldatasize\n      0x04\n      tag_160\n      jump\t// in\n    tag_282:\n        /* \"FlattenedPool.sol\":9349:9353  bool */\n      0x00\n        /* \"FlattenedPool.sol\":9372:9384  _roles[role] */\n      swap2\n      dup3\n      mstore\n      0x20\n      dup3\n      dup2\n      mstore\n      0x40\n      dup1\n      dup5\n      keccak256\n      sub(shl(0xa0, 0x01), 0x01)\n        /* \"FlattenedPool.sol\":9372:9401  _roles[role].hasRole[account] */\n      swap4\n      swap1\n      swap4\n      and\n      dup5\n      mstore\n      swap2\n      swap1\n      mstore\n      swap1\n      keccak256\n      sload\n      0xff\n      and\n      swap1\n        /* \"FlattenedPool.sol\":9272:9408  function hasRole(bytes32 role, address account) public view virtual returns (bool) {... */\n      jump\n        /* \"FlattenedPool.sol\":35994:36452  function withdrawUtilityETH(uint256 amount) external onlyRole(UTILITY_WITHDRAWER_ROLE) nonReentrant {... */\n    tag_44:\n      callvalue\n      dup1\n      iszero\n      tag_285\n      jumpi\n      0x00\n      dup1\n      revert\n    tag_285:\n      pop\n      tag_109\n      tag_287\n      calldatasize\n      0x04\n      tag_136\n      jump\t// in\n    tag_287:\n      tag_288\n      jump\t// in\n        /* \"FlattenedPool.sol\":22111:22144  uint256 public totalReinvestedETH */\n    tag_45:\n      callvalue\n      dup1\n      iszero\n      tag_289\n      jumpi\n      0x00\n      dup1\n      revert\n    tag_289:\n      pop\n      tag_102\n      sload(0x18)\n      dup2\n      jump\n        /* \"FlattenedPool.sol\":20344:20386  uint256 public maxCapETH = 5_000_000 ether */\n    tag_46:\n      callvalue\n      dup1\n      iszero\n      tag_293\n      jumpi\n      0x00\n      dup1\n      revert\n    tag_293:\n      pop\n      tag_102\n      sload(0x03)\n      dup2\n      jump\n        /* \"FlattenedPool.sol\":21784:21815  address[] public withdrawnUsers */\n    tag_47:\n      callvalue\n      dup1\n      iszero\n      tag_297\n      jumpi\n      0x00\n      dup1\n      revert\n    tag_297:\n      pop\n      tag_268\n      tag_299\n      calldatasize\n      0x04\n      tag_136\n      jump\t// in\n    tag_299:\n      tag_300\n      jump\t// in\n        /* \"FlattenedPool.sol\":8605:8654  bytes32 public constant DEFAULT_ADMIN_ROLE = 0x00 */\n    tag_48:\n      callvalue\n      dup1\n      iszero\n      tag_302\n      jumpi\n      0x00\n      dup1\n      revert\n    tag_302:\n      pop\n      tag_102\n        /* \"FlattenedPool.sol\":8650:8654  0x00 */\n      0x00\n        /* \"FlattenedPool.sol\":8605:8654  bytes32 public constant DEFAULT_ADMIN_ROLE = 0x00 */\n      dup2\n      jump\n        /* \"FlattenedPool.sol\":21753:21778  address[] public allUsers */\n    tag_49:\n      callvalue\n      dup1\n      iszero\n      tag_306\n      jumpi\n      0x00\n      dup1\n      revert\n    tag_306:\n      pop\n      tag_268\n      tag_308\n      calldatasize\n      0x04\n      tag_136\n      jump\t// in\n    tag_308:\n      tag_309\n      jump\t// in\n        /* \"FlattenedPool.sol\":36838:37887  function getVaultStats() external view returns (... */\n    tag_50:\n      callvalue\n      dup1\n      iszero\n      tag_311\n      jumpi\n      0x00\n      dup1\n      revert\n    tag_311:\n      pop\n      tag_312\n      tag_313\n      jump\t// in\n    tag_312:\n      0x40\n      dup1\n      mload\n        /* \"#utility.yul\":10263:10288   */\n      swap13\n      dup14\n      mstore\n        /* \"#utility.yul\":10319:10321   */\n      0x20\n        /* \"#utility.yul\":10304:10322   */\n      dup14\n      add\n        /* \"#utility.yul\":10297:10331   */\n      swap12\n      swap1\n      swap12\n      mstore\n        /* \"#utility.yul\":10347:10365   */\n      swap10\n      dup12\n      add\n        /* \"#utility.yul\":10340:10374   */\n      swap9\n      swap1\n      swap9\n      mstore\n        /* \"#utility.yul\":10405:10407   */\n      0x60\n        /* \"#utility.yul\":10390:10408   */\n      dup11\n      add\n        /* \"#utility.yul\":10383:10417   */\n      swap7\n      swap1\n      swap7\n      mstore\n        /* \"#utility.yul\":10448:10451   */\n      0x80\n        /* \"#utility.yul\":10433:10452   */\n      dup10\n      add\n        /* \"#utility.yul\":10426:10461   */\n      swap5\n      swap1\n      swap5\n      mstore\n        /* \"#utility.yul\":10492:10495   */\n      0xa0\n        /* \"#utility.yul\":10477:10496   */\n      dup9\n      add\n        /* \"#utility.yul\":10470:10505   */\n      swap3\n      swap1\n      swap3\n      mstore\n        /* \"#utility.yul\":10536:10539   */\n      0xc0\n        /* \"#utility.yul\":10521:10540   */\n      dup8\n      add\n        /* \"#utility.yul\":10514:10549   */\n      mstore\n        /* \"#utility.yul\":10580:10583   */\n      0xe0\n        /* \"#utility.yul\":10565:10584   */\n      dup7\n      add\n        /* \"#utility.yul\":10558:10593   */\n      mstore\n        /* \"#utility.yul\":10624:10627   */\n      0x0100\n        /* \"#utility.yul\":10609:10628   */\n      dup6\n      add\n        /* \"#utility.yul\":10602:10637   */\n      mstore\n        /* \"#utility.yul\":10668:10671   */\n      0x0120\n        /* \"#utility.yul\":10653:10672   */\n      dup5\n      add\n        /* \"#utility.yul\":10646:10681   */\n      mstore\n        /* \"#utility.yul\":10712:10715   */\n      0x0140\n        /* \"#utility.yul\":10697:10716   */\n      dup4\n      add\n        /* \"#utility.yul\":10690:10726   */\n      mstore\n        /* \"#utility.yul\":10757:10760   */\n      0x0160\n        /* \"#utility.yul\":10742:10761   */\n      dup3\n      add\n        /* \"#utility.yul\":10735:10771   */\n      mstore\n        /* \"#utility.yul\":10250:10253   */\n      0x0180\n        /* \"#utility.yul\":10235:10254   */\n      add\n        /* \"FlattenedPool.sol\":36838:37887  function getVaultStats() external view returns (... */\n      tag_99\n        /* \"#utility.yul\":9806:10777   */\n      jump\n        /* \"FlattenedPool.sol\":39222:39464  function rescueERC20(address token, address to, uint256 amount) external onlyRole(ADMIN_ROLE) {... */\n    tag_51:\n      callvalue\n      dup1\n      iszero\n      tag_316\n      jumpi\n      0x00\n      dup1\n      revert\n    tag_316:\n      pop\n      tag_109\n      tag_318\n      calldatasize\n      0x04\n      tag_319\n      jump\t// in\n    tag_318:\n      tag_320\n      jump\t// in\n        /* \"FlattenedPool.sol\":20474:20503  bool public pausedWithdrawals */\n    tag_52:\n      callvalue\n      dup1\n      iszero\n      tag_321\n      jumpi\n      0x00\n      dup1\n      revert\n    tag_321:\n      pop\n      sload(0x05)\n      tag_95\n      swap1\n      0x0100\n      swap1\n      div\n      0xff\n      and\n      dup2\n      jump\n        /* \"FlattenedPool.sol\":22038:22068  uint256 public totalUtilityETH */\n    tag_53:\n      callvalue\n      dup1\n      iszero\n      tag_325\n      jumpi\n      0x00\n      dup1\n      revert\n    tag_325:\n      pop\n      tag_102\n      sload(0x16)\n      dup2\n      jump\n        /* \"FlattenedPool.sol\":33177:33678  function assignUtilityETHBatch(address[] calldata users, uint256[] calldata amounts) external onlyRole(ADMIN_ROLE) {... */\n    tag_54:\n      callvalue\n      dup1\n      iszero\n      tag_329\n      jumpi\n      0x00\n      dup1\n      revert\n    tag_329:\n      pop\n      tag_109\n      tag_331\n      calldatasize\n      0x04\n      tag_183\n      jump\t// in\n    tag_331:\n      tag_332\n      jump\t// in\n        /* \"FlattenedPool.sol\":35484:35938  function reinvestUtilityUSDC() external nonReentrant {... */\n    tag_55:\n      callvalue\n      dup1\n      iszero\n      tag_333\n      jumpi\n      0x00\n      dup1\n      revert\n    tag_333:\n      pop\n      tag_109\n      tag_335\n      jump\t// in\n        /* \"FlattenedPool.sol\":24266:24426  function setLockupPeriod(uint256 newPeriod) external onlyRole(ADMIN_ROLE) {... */\n    tag_56:\n      callvalue\n      dup1\n      iszero\n      tag_336\n      jumpi\n      0x00\n      dup1\n      revert\n    tag_336:\n      pop\n      tag_109\n      tag_338\n      calldatasize\n      0x04\n      tag_136\n      jump\t// in\n    tag_338:\n      tag_339\n      jump\t// in\n        /* \"FlattenedPool.sol\":11060:11198  function revokeRole(bytes32 role, address account) public virtual onlyRole(getRoleAdmin(role)) {... */\n    tag_57:\n      callvalue\n      dup1\n      iszero\n      tag_340\n      jumpi\n      0x00\n      dup1\n      revert\n    tag_340:\n      pop\n      tag_109\n      tag_342\n      calldatasize\n      0x04\n      tag_160\n      jump\t// in\n    tag_342:\n      tag_343\n      jump\t// in\n        /* \"FlattenedPool.sol\":32184:32509  function injectUtilityUSDC(uint256 amount) external onlyRole(UTILITY_INJECTOR_ROLE) {... */\n    tag_58:\n      callvalue\n      dup1\n      iszero\n      tag_344\n      jumpi\n      0x00\n      dup1\n      revert\n    tag_344:\n      pop\n      tag_109\n      tag_346\n      calldatasize\n      0x04\n      tag_136\n      jump\t// in\n    tag_346:\n      tag_347\n      jump\t// in\n        /* \"FlattenedPool.sol\":31300:31872  function enableGlobalLiquidation() external onlyRole(ADMIN_ROLE) {... */\n    tag_59:\n      callvalue\n      dup1\n      iszero\n      tag_348\n      jumpi\n      0x00\n      dup1\n      revert\n    tag_348:\n      pop\n      tag_109\n      tag_350\n      jump\t// in\n        /* \"FlattenedPool.sol\":21821:21851  address[] public allDepositors */\n    tag_60:\n      callvalue\n      dup1\n      iszero\n      tag_351\n      jumpi\n      0x00\n      dup1\n      revert\n    tag_351:\n      pop\n      tag_268\n      tag_353\n      calldatasize\n      0x04\n      tag_136\n      jump\t// in\n    tag_353:\n      tag_354\n      jump\t// in\n        /* \"FlattenedPool.sol\":20803:20869  bytes32 public constant UNLOCKER_ROLE = keccak256(\"UNLOCKER_ROLE\") */\n    tag_61:\n      callvalue\n      dup1\n      iszero\n      tag_356\n      jumpi\n      0x00\n      dup1\n      revert\n    tag_356:\n      pop\n      tag_102\n        /* \"FlattenedPool.sol\":20843:20869  keccak256(\"UNLOCKER_ROLE\") */\n      0xc806897caf4fd5068191157e44d3988e43139a37e0b97b6793e1ed1184140604\n        /* \"FlattenedPool.sol\":20803:20869  bytes32 public constant UNLOCKER_ROLE = keccak256(\"UNLOCKER_ROLE\") */\n      dup2\n      jump\n        /* \"FlattenedPool.sol\":22150:22184  uint256 public totalReinvestedUSDC */\n    tag_62:\n      callvalue\n      dup1\n      iszero\n      tag_360\n      jumpi\n      0x00\n      dup1\n      revert\n    tag_360:\n      pop\n      tag_102\n      sload(0x19)\n      dup2\n      jump\n        /* \"FlattenedPool.sol\":21999:22032  uint256 public totalWithdrawnUSDC */\n    tag_63:\n      callvalue\n      dup1\n      iszero\n      tag_364\n      jumpi\n      0x00\n      dup1\n      revert\n    tag_364:\n      pop\n      tag_102\n      sload(0x15)\n      dup2\n      jump\n        /* \"FlattenedPool.sol\":34234:34635  function claimUtilityETH() external nonReentrant {... */\n    tag_64:\n      callvalue\n      dup1\n      iszero\n      tag_368\n      jumpi\n      0x00\n      dup1\n      revert\n    tag_368:\n      pop\n      tag_109\n      tag_370\n      jump\t// in\n        /* \"FlattenedPool.sol\":20735:20797  bytes32 public constant PAUSER_ROLE = keccak256(\"PAUSER_ROLE\") */\n    tag_65:\n      callvalue\n      dup1\n      iszero\n      tag_371\n      jumpi\n      0x00\n      dup1\n      revert\n    tag_371:\n      pop\n      tag_102\n        /* \"FlattenedPool.sol\":20773:20797  keccak256(\"PAUSER_ROLE\") */\n      0x65d7a28e3265b37a6474929f336521b332c1681b933f6cb9f3376673440d862a\n        /* \"FlattenedPool.sol\":20735:20797  bytes32 public constant PAUSER_ROLE = keccak256(\"PAUSER_ROLE\") */\n      dup2\n      jump\n        /* \"FlattenedPool.sol\":21560:21619  mapping(address => uint256) public userClaimableUtilityUSDC */\n    tag_66:\n      callvalue\n      dup1\n      iszero\n      tag_375\n      jumpi\n      0x00\n      dup1\n      revert\n    tag_375:\n      pop\n      tag_102\n      tag_377\n      calldatasize\n      0x04\n      tag_104\n      jump\t// in\n    tag_377:\n      mstore(0x20, 0x0c)\n      0x00\n      swap1\n      dup2\n      mstore\n      0x40\n      swap1\n      keccak256\n      sload\n      dup2\n      jump\n        /* \"FlattenedPool.sol\":20300:20338  uint256 public lockupPeriod = 180 days */\n    tag_67:\n      callvalue\n      dup1\n      iszero\n      tag_380\n      jumpi\n      0x00\n      dup1\n      revert\n    tag_380:\n      pop\n      tag_102\n      sload(0x02)\n      dup2\n      jump\n        /* \"FlattenedPool.sol\":20633:20662  address public utilityAddress */\n    tag_68:\n      callvalue\n      dup1\n      iszero\n      tag_384\n      jumpi\n      0x00\n      dup1\n      revert\n    tag_384:\n      pop\n      sload(0x07)\n      tag_268\n      swap1\n      sub(shl(0xa0, 0x01), 0x01)\n      and\n      dup2\n      jump\n        /* \"FlattenedPool.sol\":24432:24683  function setMaxCap(TokenType token, uint256 newCap) external onlyRole(ADMIN_ROLE) {... */\n    tag_69:\n      callvalue\n      dup1\n      iszero\n      tag_388\n      jumpi\n      0x00\n      dup1\n      revert\n    tag_388:\n      pop\n      tag_109\n      tag_390\n      calldatasize\n      0x04\n      tag_391\n      jump\t// in\n    tag_390:\n      tag_392\n      jump\t// in\n        /* \"FlattenedPool.sol\":25854:26254  function depositETH() external payable nonReentrant whenDepositsNotPaused {... */\n    tag_70:\n      tag_109\n      tag_394\n      jump\t// in\n        /* \"FlattenedPool.sol\":26260:26730  function depositUSDC(uint256 amount) external nonReentrant whenDepositsNotPaused {... */\n    tag_71:\n      callvalue\n      dup1\n      iszero\n      tag_395\n      jumpi\n      0x00\n      dup1\n      revert\n    tag_395:\n      pop\n      tag_109\n      tag_397\n      calldatasize\n      0x04\n      tag_136\n      jump\t// in\n    tag_397:\n      tag_398\n      jump\t// in\n        /* \"FlattenedPool.sol\":8983:9185  function supportsInterface(bytes4 interfaceId) public view virtual override returns (bool) {... */\n    tag_98:\n        /* \"FlattenedPool.sol\":9068:9072  bool */\n      0x00\n      not(sub(shl(0xe0, 0x01), 0x01))\n        /* \"FlattenedPool.sol\":9091:9138  interfaceId == type(IAccessControl).interfaceId */\n      dup3\n      and\n      shl(0xe0, 0x7965db0b)\n      eq\n      dup1\n        /* \"FlattenedPool.sol\":9091:9178  interfaceId == type(IAccessControl).interfaceId || super.supportsInterface(interfaceId) */\n      tag_401\n      jumpi\n      pop\n      shl(0xe0, 0x01ffc9a7)\n      not(sub(shl(0xe0, 0x01), 0x01))\n        /* \"FlattenedPool.sol\":6439:6479  interfaceId == type(IERC165).interfaceId */\n      dup4\n      and\n      eq\n        /* \"FlattenedPool.sol\":9142:9178  super.supportsInterface(interfaceId) */\n    tag_401:\n        /* \"FlattenedPool.sol\":9084:9178  return interfaceId == type(IAccessControl).interfaceId || super.supportsInterface(interfaceId) */\n      swap3\n        /* \"FlattenedPool.sol\":8983:9185  function supportsInterface(bytes4 interfaceId) public view virtual override returns (bool) {... */\n      swap2\n      pop\n      pop\n      jump\t// out\n        /* \"FlattenedPool.sol\":24917:25033  function setWhitelistEnabled(bool enabled) external onlyRole(ADMIN_ROLE) {... */\n    tag_112:\n      0x00\n      dup1\n      mload\n      0x20\n      data_cb864c43dd5d441bb6271f424f11befa622c032dfd374d226e26fbbdb782b8f8\n      dup4\n      codecopy\n      dup2\n      mload\n      swap2\n      mstore\n        /* \"FlattenedPool.sol\":8882:8898  _checkRole(role) */\n      tag_404\n        /* \"FlattenedPool.sol\":8893:8897  role */\n      dup2\n        /* \"FlattenedPool.sol\":8882:8892  _checkRole */\n      tag_405\n        /* \"FlattenedPool.sol\":8882:8898  _checkRole(role) */\n      jump\t// in\n    tag_404:\n      pop\n        /* \"FlattenedPool.sol\":25000:25016  whitelistEnabled */\n      0x05\n        /* \"FlattenedPool.sol\":25000:25026  whitelistEnabled = enabled */\n      dup1\n      sload\n      swap2\n      iszero\n      iszero\n      0x010000\n      mul\n      not(0xff0000)\n      swap1\n      swap3\n      and\n      swap2\n      swap1\n      swap2\n      or\n      swap1\n      sstore\n        /* \"FlattenedPool.sol\":24917:25033  function setWhitelistEnabled(bool enabled) external onlyRole(ADMIN_ROLE) {... */\n      jump\t// out\n        /* \"FlattenedPool.sol\":21336:21389  mapping(address => DepositInfo[]) public userDeposits */\n    tag_117:\n      mstore(0x20, 0x08)\n      dup2\n      0x00\n      mstore\n      keccak256(0x00, 0x40)\n      dup2\n      dup2\n      sload\n      dup2\n      lt\n      tag_407\n      jumpi\n      0x00\n      dup1\n      revert\n    tag_407:\n      0x00\n      swap2\n      dup3\n      mstore\n      0x20\n      swap1\n      swap2\n      keccak256\n      0x06\n      swap1\n      swap2\n      mul\n      add\n      dup1\n      sload\n      0x01\n      dup3\n      add\n      sload\n      0x02\n      dup4\n      add\n      sload\n      0x03\n      dup5\n      add\n      sload\n      0x04\n      dup6\n      add\n      sload\n      0x05\n      swap1\n      swap6\n      add\n      sload\n      0xff\n      swap5\n      dup6\n      and\n      swap8\n      pop\n      swap3\n      swap6\n      pop\n      swap1\n      swap4\n      dup2\n      dup5\n      and\n      swap4\n      0x0100\n      dup4\n      div\n      dup2\n      and\n      swap4\n      0x010000\n      dup5\n      div\n      dup3\n      and\n      swap4\n      0x01000000\n      swap1\n      div\n      swap1\n      swap2\n      and\n      swap2\n      swap1\n      dup10\n      jump\t// out\n        /* \"FlattenedPool.sol\":35031:35478  function reinvestUtilityETH() external nonReentrant {... */\n    tag_145:\n        /* \"FlattenedPool.sol\":18919:18940  _nonReentrantBefore() */\n      tag_411\n        /* \"FlattenedPool.sol\":18919:18938  _nonReentrantBefore */\n      tag_412\n        /* \"FlattenedPool.sol\":18919:18940  _nonReentrantBefore() */\n      jump\t// in\n    tag_411:\n        /* \"FlattenedPool.sol\":35134:35144  msg.sender */\n      caller\n        /* \"FlattenedPool.sol\":35093:35107  uint256 amount */\n      0x00\n        /* \"FlattenedPool.sol\":35110:35145  userClaimableUtilityETH[msg.sender] */\n      swap1\n      dup2\n      mstore\n        /* \"FlattenedPool.sol\":35110:35133  userClaimableUtilityETH */\n      0x0b\n        /* \"FlattenedPool.sol\":35110:35145  userClaimableUtilityETH[msg.sender] */\n      0x20\n      mstore\n      0x40\n      swap1\n      keccak256\n      sload\n        /* \"FlattenedPool.sol\":35163:35173  amount > 0 */\n      dup1\n        /* \"FlattenedPool.sol\":35155:35188  require(amount > 0, \"No utility\") */\n      tag_414\n      jumpi\n      mload(0x40)\n      shl(0xe5, 0x461bcd)\n      dup2\n      mstore\n        /* \"#utility.yul\":11659:11661   */\n      0x20\n        /* \"FlattenedPool.sol\":35155:35188  require(amount > 0, \"No utility\") */\n      0x04\n      dup3\n      add\n        /* \"#utility.yul\":11641:11662   */\n      mstore\n        /* \"#utility.yul\":11698:11700   */\n      0x0a\n        /* \"#utility.yul\":11678:11696   */\n      0x24\n      dup3\n      add\n        /* \"#utility.yul\":11671:11701   */\n      mstore\n      shl(0xb0, 0x4e6f207574696c697479)\n        /* \"#utility.yul\":11717:11735   */\n      0x44\n      dup3\n      add\n        /* \"#utility.yul\":11710:11750   */\n      mstore\n        /* \"#utility.yul\":11767:11785   */\n      0x64\n      add\n        /* \"FlattenedPool.sol\":35155:35188  require(amount > 0, \"No utility\") */\n    tag_415:\n      mload(0x40)\n      dup1\n      swap2\n      sub\n      swap1\n      revert\n    tag_414:\n        /* \"FlattenedPool.sol\":35222:35232  msg.sender */\n      caller\n        /* \"FlattenedPool.sol\":35236:35237  0 */\n      0x00\n        /* \"FlattenedPool.sol\":35198:35233  userClaimableUtilityETH[msg.sender] */\n      dup2\n      dup2\n      mstore\n        /* \"FlattenedPool.sol\":35198:35221  userClaimableUtilityETH */\n      0x0b\n        /* \"FlattenedPool.sol\":35198:35233  userClaimableUtilityETH[msg.sender] */\n      0x20\n      mstore\n      0x40\n      dup2\n      keccak256\n        /* \"FlattenedPool.sol\":35198:35237  userClaimableUtilityETH[msg.sender] = 0 */\n      dup2\n      swap1\n      sstore\n        /* \"FlattenedPool.sol\":35247:35304  _registerDeposit(msg.sender, TokenType.ETH, amount, true) */\n      tag_417\n      swap2\n        /* \"FlattenedPool.sol\":35222:35232  msg.sender */\n      swap1\n        /* \"FlattenedPool.sol\":35291:35297  amount */\n      dup4\n        /* \"FlattenedPool.sol\":35299:35303  true */\n      0x01\n        /* \"FlattenedPool.sol\":35247:35263  _registerDeposit */\n      tag_418\n        /* \"FlattenedPool.sol\":35247:35304  _registerDeposit(msg.sender, TokenType.ETH, amount, true) */\n      jump\t// in\n    tag_417:\n        /* \"FlattenedPool.sol\":35336:35342  amount */\n      dup1\n        /* \"FlattenedPool.sol\":35314:35332  totalReinvestedETH */\n      0x18\n      0x00\n        /* \"FlattenedPool.sol\":35314:35342  totalReinvestedETH += amount */\n      dup3\n      dup3\n      sload\n      tag_419\n      swap2\n      swap1\n      tag_420\n      jump\t// in\n    tag_419:\n      swap1\n      swap2\n      sstore\n      pop\n      pop\n        /* \"FlattenedPool.sol\":35375:35385  msg.sender */\n      caller\n        /* \"FlattenedPool.sol\":35352:35386  userTotalReinvestedETH[msg.sender] */\n      0x00\n      swap1\n      dup2\n      mstore\n        /* \"FlattenedPool.sol\":35352:35374  userTotalReinvestedETH */\n      0x0d\n        /* \"FlattenedPool.sol\":35352:35386  userTotalReinvestedETH[msg.sender] */\n      0x20\n      mstore\n      0x40\n      dup2\n      keccak256\n        /* \"FlattenedPool.sol\":35352:35396  userTotalReinvestedETH[msg.sender] += amount */\n      dup1\n      sload\n        /* \"FlattenedPool.sol\":35390:35396  amount */\n      dup4\n      swap3\n        /* \"FlattenedPool.sol\":35352:35386  userTotalReinvestedETH[msg.sender] */\n      swap1\n        /* \"FlattenedPool.sol\":35352:35396  userTotalReinvestedETH[msg.sender] += amount */\n      tag_421\n      swap1\n        /* \"FlattenedPool.sol\":35390:35396  amount */\n      dup5\n      swap1\n        /* \"FlattenedPool.sol\":35352:35396  userTotalReinvestedETH[msg.sender] += amount */\n      tag_420\n      jump\t// in\n    tag_421:\n      swap1\n      swap2\n      sstore\n      pop\n      pop\n        /* \"FlattenedPool.sol\":35411:35471  Reinvest(msg.sender, TokenType.ETH, amount, block.timestamp) */\n      mload(0x40)\n        /* \"FlattenedPool.sol\":35420:35430  msg.sender */\n      caller\n      swap1\n        /* \"FlattenedPool.sol\":35411:35471  Reinvest(msg.sender, TokenType.ETH, amount, block.timestamp) */\n      0x997d2ec09b086de73d509bbc4ad2b52fd7e2338024464bede93a41abd6ccdc38\n      swap1\n      tag_422\n      swap1\n        /* \"FlattenedPool.sol\":35432:35445  TokenType.ETH */\n      0x00\n      swap1\n        /* \"FlattenedPool.sol\":35447:35453  amount */\n      dup6\n      swap1\n        /* \"FlattenedPool.sol\":35455:35470  block.timestamp */\n      timestamp\n      swap1\n        /* \"FlattenedPool.sol\":35411:35471  Reinvest(msg.sender, TokenType.ETH, amount, block.timestamp) */\n      tag_423\n      jump\t// in\n    tag_422:\n      mload(0x40)\n      dup1\n      swap2\n      sub\n      swap1\n      log2\n        /* \"FlattenedPool.sol\":35083:35478  {... */\n      pop\n        /* \"FlattenedPool.sol\":18961:18981  _nonReentrantAfter() */\n      tag_424\n        /* \"FlattenedPool.sol\":18276:18277  1 */\n      0x01\n        /* \"FlattenedPool.sol\":19487:19508  _status = NOT_ENTERED */\n      dup1\n      sstore\n        /* \"FlattenedPool.sol\":19307:19515  function _nonReentrantAfter() private {... */\n      jump\n        /* \"FlattenedPool.sol\":18961:18981  _nonReentrantAfter() */\n    tag_424:\n        /* \"FlattenedPool.sol\":35031:35478  function reinvestUtilityETH() external nonReentrant {... */\n      jump\t// out\n        /* \"FlattenedPool.sol\":39047:39173  function getUserDeposits(address user) external view returns (DepositInfo[] memory) {... */\n    tag_149:\n      sub(shl(0xa0, 0x01), 0x01)\n        /* \"FlattenedPool.sol\":39148:39166  userDeposits[user] */\n      dup2\n      and\n      0x00\n      swap1\n      dup2\n      mstore\n        /* \"FlattenedPool.sol\":39148:39160  userDeposits */\n      0x08\n        /* \"FlattenedPool.sol\":39148:39166  userDeposits[user] */\n      0x20\n      swap1\n      dup2\n      mstore\n      0x40\n      dup1\n      dup4\n      keccak256\n        /* \"FlattenedPool.sol\":39141:39166  return userDeposits[user] */\n      dup1\n      sload\n      dup3\n      mload\n      dup2\n      dup6\n      mul\n      dup2\n      add\n      dup6\n      add\n      swap1\n      swap4\n      mstore\n      dup1\n      dup4\n      mstore\n        /* \"FlattenedPool.sol\":39109:39129  DepositInfo[] memory */\n      0x60\n      swap5\n        /* \"FlattenedPool.sol\":39141:39166  return userDeposits[user] */\n      swap3\n      swap4\n        /* \"FlattenedPool.sol\":39148:39166  userDeposits[user] */\n      swap2\n      swap3\n        /* \"FlattenedPool.sol\":39141:39166  return userDeposits[user] */\n      swap1\n      swap2\n      dup5\n      add\n    tag_427:\n      dup3\n      dup3\n      lt\n      iszero\n      tag_428\n      jumpi\n      0x00\n      dup5\n      dup2\n      mstore\n      0x20\n      swap1\n      keccak256\n      0x40\n      dup1\n      mload\n      0x0120\n      dup2\n      add\n      swap1\n      swap2\n      mstore\n      0x06\n      dup5\n      mul\n      swap1\n      swap2\n      add\n      dup1\n      sload\n      dup3\n      swap1\n      0xff\n      and\n      0x01\n      dup2\n      gt\n      iszero\n      tag_431\n      jumpi\n      tag_431\n      tag_432\n      jump\t// in\n    tag_431:\n      0x01\n      dup2\n      gt\n      iszero\n      tag_434\n      jumpi\n      tag_434\n      tag_432\n      jump\t// in\n    tag_434:\n      dup2\n      mstore\n      0x01\n      dup3\n      dup2\n      add\n      sload\n      0x20\n      dup1\n      dup5\n      add\n      swap2\n      swap1\n      swap2\n      mstore\n      0x02\n      dup5\n      add\n      sload\n      0x40\n      dup5\n      add\n      mstore\n      0x03\n      dup5\n      add\n      sload\n      0xff\n      dup1\n      dup3\n      and\n      iszero\n      iszero\n      0x60\n      dup7\n      add\n      mstore\n      0x0100\n      dup1\n      dup4\n      div\n      dup3\n      and\n      iszero\n      iszero\n      0x80\n      dup8\n      add\n      mstore\n      0x010000\n      dup4\n      div\n      dup3\n      and\n      iszero\n      iszero\n      0xa0\n      dup8\n      add\n      mstore\n      0x01000000\n      swap1\n      swap3\n      div\n      and\n      iszero\n      iszero\n      0xc0\n      dup6\n      add\n      mstore\n      0x04\n      dup6\n      add\n      sload\n      0xe0\n      dup6\n      add\n      mstore\n      0x05\n      swap1\n      swap5\n      add\n      sload\n      swap4\n      swap1\n      swap3\n      add\n      swap3\n      swap1\n      swap3\n      mstore\n      swap2\n      dup4\n      mstore\n      swap3\n      swap1\n      swap3\n      add\n      swap2\n      add\n      jump(tag_427)\n    tag_428:\n      pop\n      pop\n      pop\n      pop\n      swap1\n      pop\n        /* \"FlattenedPool.sol\":39047:39173  function getUserDeposits(address user) external view returns (DepositInfo[] memory) {... */\n      swap2\n      swap1\n      pop\n      jump\t// out\n        /* \"FlattenedPool.sol\":27461:28646  function withdraw(uint256 depositIndex) external nonReentrant whenWithdrawalsNotPaused {... */\n    tag_156:\n        /* \"FlattenedPool.sol\":18919:18940  _nonReentrantBefore() */\n      tag_436\n        /* \"FlattenedPool.sol\":18919:18938  _nonReentrantBefore */\n      tag_412\n        /* \"FlattenedPool.sol\":18919:18940  _nonReentrantBefore() */\n      jump\t// in\n    tag_436:\n        /* \"FlattenedPool.sol\":23602:23619  pausedWithdrawals */\n      sload(0x05)\n      0x0100\n      swap1\n      div\n      0xff\n      and\n        /* \"FlattenedPool.sol\":23601:23619  !pausedWithdrawals */\n      iszero\n        /* \"FlattenedPool.sol\":23593:23642  require(!pausedWithdrawals, \"Withdrawals paused\") */\n      tag_438\n      jumpi\n      mload(0x40)\n      shl(0xe5, 0x461bcd)\n      dup2\n      mstore\n        /* \"#utility.yul\":12614:12616   */\n      0x20\n        /* \"FlattenedPool.sol\":23593:23642  require(!pausedWithdrawals, \"Withdrawals paused\") */\n      0x04\n      dup3\n      add\n        /* \"#utility.yul\":12596:12617   */\n      mstore\n        /* \"#utility.yul\":12653:12655   */\n      0x12\n        /* \"#utility.yul\":12633:12651   */\n      0x24\n      dup3\n      add\n        /* \"#utility.yul\":12626:12656   */\n      mstore\n        /* \"#utility.yul\":12692:12712   */\n      0x5769746864726177616c73207061757365640000000000000000000000000000\n        /* \"#utility.yul\":12672:12690   */\n      0x44\n      dup3\n      add\n        /* \"#utility.yul\":12665:12713   */\n      mstore\n        /* \"#utility.yul\":12730:12748   */\n      0x64\n      add\n        /* \"FlattenedPool.sol\":23593:23642  require(!pausedWithdrawals, \"Withdrawals paused\") */\n      tag_415\n        /* \"#utility.yul\":12412:12754   */\n      jump\n        /* \"FlattenedPool.sol\":23593:23642  require(!pausedWithdrawals, \"Withdrawals paused\") */\n    tag_438:\n        /* \"FlattenedPool.sol\":27597:27607  msg.sender */\n      caller\n        /* \"FlattenedPool.sol\":27558:27581  DepositInfo storage dep */\n      0x00\n        /* \"FlattenedPool.sol\":27584:27608  userDeposits[msg.sender] */\n      swap1\n      dup2\n      mstore\n        /* \"FlattenedPool.sol\":27584:27596  userDeposits */\n      0x08\n        /* \"FlattenedPool.sol\":27584:27608  userDeposits[msg.sender] */\n      0x20\n      mstore\n      0x40\n      dup2\n      keccak256\n        /* \"FlattenedPool.sol\":27584:27622  userDeposits[msg.sender][depositIndex] */\n      dup1\n      sload\n        /* \"FlattenedPool.sol\":27609:27621  depositIndex */\n      dup4\n      swap1\n        /* \"FlattenedPool.sol\":27584:27622  userDeposits[msg.sender][depositIndex] */\n      dup2\n      lt\n      tag_443\n      jumpi\n      tag_443\n      tag_444\n      jump\t// in\n    tag_443:\n      0x00\n      swap2\n      dup3\n      mstore\n      0x20\n      swap1\n      swap2\n      keccak256\n      0x06\n      swap1\n      swap2\n      mul\n      add\n        /* \"FlattenedPool.sol\":27641:27654  dep.withdrawn */\n      0x03\n      dup2\n      add\n      sload\n        /* \"FlattenedPool.sol\":27584:27622  userDeposits[msg.sender][depositIndex] */\n      swap1\n      swap2\n      pop\n        /* \"FlattenedPool.sol\":27641:27654  dep.withdrawn */\n      0xff\n      and\n        /* \"FlattenedPool.sol\":27640:27654  !dep.withdrawn */\n      iszero\n        /* \"FlattenedPool.sol\":27632:27676  require(!dep.withdrawn, \"Already withdrawn\") */\n      tag_446\n      jumpi\n      mload(0x40)\n      shl(0xe5, 0x461bcd)\n      dup2\n      mstore\n        /* \"#utility.yul\":13093:13095   */\n      0x20\n        /* \"FlattenedPool.sol\":27632:27676  require(!dep.withdrawn, \"Already withdrawn\") */\n      0x04\n      dup3\n      add\n        /* \"#utility.yul\":13075:13096   */\n      mstore\n        /* \"#utility.yul\":13132:13134   */\n      0x11\n        /* \"#utility.yul\":13112:13130   */\n      0x24\n      dup3\n      add\n        /* \"#utility.yul\":13105:13135   */\n      mstore\n        /* \"#utility.yul\":13171:13190   */\n      0x416c72656164792077697468647261776e000000000000000000000000000000\n        /* \"#utility.yul\":13151:13169   */\n      0x44\n      dup3\n      add\n        /* \"#utility.yul\":13144:13191   */\n      mstore\n        /* \"#utility.yul\":13208:13226   */\n      0x64\n      add\n        /* \"FlattenedPool.sol\":27632:27676  require(!dep.withdrawn, \"Already withdrawn\") */\n      tag_415\n        /* \"#utility.yul\":12891:13232   */\n      jump\n        /* \"FlattenedPool.sol\":27632:27676  require(!dep.withdrawn, \"Already withdrawn\") */\n    tag_446:\n        /* \"FlattenedPool.sol\":27742:27754  lockupPeriod */\n      sload(0x02)\n        /* \"FlattenedPool.sol\":27726:27729  dep */\n      dup2\n        /* \"FlattenedPool.sol\":27726:27739  dep.timestamp */\n      0x02\n      add\n      sload\n        /* \"FlattenedPool.sol\":27726:27754  dep.timestamp + lockupPeriod */\n      tag_449\n      swap2\n      swap1\n      tag_420\n      jump\t// in\n    tag_449:\n        /* \"FlattenedPool.sol\":27707:27722  block.timestamp */\n      timestamp\n        /* \"FlattenedPool.sol\":27707:27754  block.timestamp >= dep.timestamp + lockupPeriod */\n      lt\n      iszero\n        /* \"FlattenedPool.sol\":27707:27789  block.timestamp >= dep.timestamp + lockupPeriod ||... */\n      dup1\n      tag_450\n      jumpi\n      pop\n        /* \"FlattenedPool.sol\":27770:27789  dep.unlockedByAdmin */\n      0x03\n      dup2\n      add\n      sload\n      0x0100\n      swap1\n      div\n      0xff\n      and\n        /* \"FlattenedPool.sol\":27707:27789  block.timestamp >= dep.timestamp + lockupPeriod ||... */\n    tag_450:\n        /* \"FlattenedPool.sol\":27707:27854  block.timestamp >= dep.timestamp + lockupPeriod ||... */\n      dup1\n      tag_452\n      jumpi\n      pop\n        /* \"FlattenedPool.sol\":27806:27830  globalLiquidationEnabled */\n      sload(0x05)\n      0x01000000\n      swap1\n      div\n      0xff\n      and\n        /* \"FlattenedPool.sol\":27806:27853  globalLiquidationEnabled && dep.fullyRedeemable */\n      dup1\n      iszero\n      tag_452\n      jumpi\n      pop\n        /* \"FlattenedPool.sol\":27834:27853  dep.fullyRedeemable */\n      0x03\n      dup2\n      add\n      sload\n      0x010000\n      swap1\n      div\n      0xff\n      and\n        /* \"FlattenedPool.sol\":27806:27853  globalLiquidationEnabled && dep.fullyRedeemable */\n    tag_452:\n        /* \"FlattenedPool.sol\":27686:27894  require(... */\n      tag_453\n      jumpi\n      mload(0x40)\n      shl(0xe5, 0x461bcd)\n      dup2\n      mstore\n        /* \"#utility.yul\":13439:13441   */\n      0x20\n        /* \"FlattenedPool.sol\":27686:27894  require(... */\n      0x04\n      dup3\n      add\n        /* \"#utility.yul\":13421:13442   */\n      mstore\n        /* \"#utility.yul\":13478:13480   */\n      0x0e\n        /* \"#utility.yul\":13458:13476   */\n      0x24\n      dup3\n      add\n        /* \"#utility.yul\":13451:13481   */\n      mstore\n      shl(0x92, 0x11195c1bdcda5d081b1bd8dad959)\n        /* \"#utility.yul\":13497:13515   */\n      0x44\n      dup3\n      add\n        /* \"#utility.yul\":13490:13534   */\n      mstore\n        /* \"#utility.yul\":13551:13569   */\n      0x64\n      add\n        /* \"FlattenedPool.sol\":27686:27894  require(... */\n      tag_415\n        /* \"#utility.yul\":13237:13575   */\n      jump\n        /* \"FlattenedPool.sol\":27686:27894  require(... */\n    tag_453:\n        /* \"FlattenedPool.sol\":27904:27917  dep.withdrawn */\n      0x03\n      dup2\n      add\n        /* \"FlattenedPool.sol\":27904:27924  dep.withdrawn = true */\n      dup1\n      sload\n      not(0xff)\n      and\n        /* \"FlattenedPool.sol\":27920:27924  true */\n      0x01\n        /* \"FlattenedPool.sol\":27904:27924  dep.withdrawn = true */\n      or\n      swap1\n      sstore\n        /* \"FlattenedPool.sol\":27952:27967  block.timestamp */\n      timestamp\n        /* \"FlattenedPool.sol\":27934:27949  dep.withdrawnAt */\n      0x04\n      dup3\n      add\n        /* \"FlattenedPool.sol\":27934:27967  dep.withdrawnAt = block.timestamp */\n      sstore\n        /* \"FlattenedPool.sol\":27993:28010  dep.yieldReceived */\n      0x05\n      dup2\n      add\n      sload\n        /* \"FlattenedPool.sol\":27904:27917  dep.withdrawn */\n      0x00\n        /* \"FlattenedPool.sol\":28024:28033  dep.token */\n      dup3\n      sload\n      0xff\n      and\n      0x01\n        /* \"FlattenedPool.sol\":28024:28050  dep.token == TokenType.ETH */\n      dup2\n      gt\n      iszero\n      tag_459\n      jumpi\n      tag_459\n      tag_432\n      jump\t// in\n    tag_459:\n      sub\n        /* \"FlattenedPool.sol\":28020:28403  if (dep.token == TokenType.ETH) {... */\n      tag_460\n      jumpi\n        /* \"FlattenedPool.sol\":28087:28090  dep */\n      dup2\n        /* \"FlattenedPool.sol\":28087:28097  dep.amount */\n      0x01\n      add\n      sload\n        /* \"FlattenedPool.sol\":28066:28083  totalWithdrawnETH */\n      0x14\n      0x00\n        /* \"FlattenedPool.sol\":28066:28097  totalWithdrawnETH += dep.amount */\n      dup3\n      dup3\n      sload\n      tag_461\n      swap2\n      swap1\n      tag_420\n      jump\t// in\n    tag_461:\n      swap1\n      swap2\n      sstore\n      pop\n      pop\n        /* \"FlattenedPool.sol\":28153:28163  dep.amount */\n      0x01\n      dup3\n      add\n      sload\n        /* \"FlattenedPool.sol\":28112:28124  bool success */\n      0x00\n      swap1\n        /* \"FlattenedPool.sol\":28130:28140  msg.sender */\n      caller\n      swap1\n        /* \"FlattenedPool.sol\":28153:28171  dep.amount + yield */\n      tag_462\n      swap1\n        /* \"FlattenedPool.sol\":28166:28171  yield */\n      dup5\n      swap1\n        /* \"FlattenedPool.sol\":28153:28171  dep.amount + yield */\n      tag_420\n      jump\t// in\n    tag_462:\n        /* \"FlattenedPool.sol\":28130:28176  msg.sender.call{value: dep.amount + yield}(\"\") */\n      mload(0x40)\n      0x00\n      dup2\n      dup2\n      dup2\n      dup6\n      dup8\n      gas\n      call\n      swap3\n      pop\n      pop\n      pop\n      returndatasize\n      dup1\n      0x00\n      dup2\n      eq\n      tag_467\n      jumpi\n      mload(0x40)\n      swap2\n      pop\n      and(add(returndatasize, 0x3f), not(0x1f))\n      dup3\n      add\n      0x40\n      mstore\n      returndatasize\n      dup3\n      mstore\n      returndatasize\n      0x00\n      0x20\n      dup5\n      add\n      returndatacopy\n      jump(tag_466)\n    tag_467:\n      0x60\n      swap2\n      pop\n    tag_466:\n      pop\n        /* \"FlattenedPool.sol\":28111:28176  (bool success, ) = msg.sender.call{value: dep.amount + yield}(\"\") */\n      pop\n      swap1\n      pop\n        /* \"FlattenedPool.sol\":28198:28205  success */\n      dup1\n        /* \"FlattenedPool.sol\":28190:28229  require(success, \"ETH transfer failed\") */\n      tag_468\n      jumpi\n      mload(0x40)\n      shl(0xe5, 0x461bcd)\n      dup2\n      mstore\n        /* \"#utility.yul\":13992:13994   */\n      0x20\n        /* \"FlattenedPool.sol\":28190:28229  require(success, \"ETH transfer failed\") */\n      0x04\n      dup3\n      add\n        /* \"#utility.yul\":13974:13995   */\n      mstore\n        /* \"#utility.yul\":14031:14033   */\n      0x13\n        /* \"#utility.yul\":14011:14029   */\n      0x24\n      dup3\n      add\n        /* \"#utility.yul\":14004:14034   */\n      mstore\n      shl(0x6a, 0x115512081d1c985b9cd9995c8819985a5b1959)\n        /* \"#utility.yul\":14050:14068   */\n      0x44\n      dup3\n      add\n        /* \"#utility.yul\":14043:14092   */\n      mstore\n        /* \"#utility.yul\":14109:14127   */\n      0x64\n      add\n        /* \"FlattenedPool.sol\":28190:28229  require(success, \"ETH transfer failed\") */\n      tag_415\n        /* \"#utility.yul\":13790:14133   */\n      jump\n        /* \"FlattenedPool.sol\":28190:28229  require(success, \"ETH transfer failed\") */\n    tag_468:\n        /* \"FlattenedPool.sol\":28052:28240  {... */\n      pop\n        /* \"FlattenedPool.sol\":28020:28403  if (dep.token == TokenType.ETH) {... */\n      jump(tag_476)\n    tag_460:\n        /* \"FlattenedPool.sol\":28263:28277  TokenType.USDC */\n      0x01\n        /* \"FlattenedPool.sol\":28250:28259  dep.token */\n      dup3\n      sload\n      0xff\n      and\n      0x01\n        /* \"FlattenedPool.sol\":28250:28277  dep.token == TokenType.USDC */\n      dup2\n      gt\n      iszero\n      tag_475\n      jumpi\n      tag_475\n      tag_432\n      jump\t// in\n    tag_475:\n      sub\n        /* \"FlattenedPool.sol\":28246:28403  if (dep.token == TokenType.USDC) {... */\n      tag_476\n      jumpi\n        /* \"FlattenedPool.sol\":28315:28318  dep */\n      dup2\n        /* \"FlattenedPool.sol\":28315:28325  dep.amount */\n      0x01\n      add\n      sload\n        /* \"FlattenedPool.sol\":28293:28311  totalWithdrawnUSDC */\n      0x15\n      0x00\n        /* \"FlattenedPool.sol\":28293:28325  totalWithdrawnUSDC += dep.amount */\n      dup3\n      dup3\n      sload\n      tag_477\n      swap2\n      swap1\n      tag_420\n      jump\t// in\n    tag_477:\n      swap1\n      swap2\n      sstore\n      pop\n      pop\n        /* \"FlattenedPool.sol\":28373:28383  dep.amount */\n      0x01\n      dup3\n      add\n      sload\n        /* \"FlattenedPool.sol\":20218:20260  0x833589fCD6eDb6E08f4c7C32D4f71b54bdA02913 */\n      0x833589fcd6edb6e08f4c7c32d4f71b54bda02913\n      swap1\n        /* \"FlattenedPool.sol\":28339:28360  IERC20(USDC).transfer */\n      0xa9059cbb\n      swap1\n        /* \"FlattenedPool.sol\":28361:28371  msg.sender */\n      caller\n      swap1\n        /* \"FlattenedPool.sol\":28373:28391  dep.amount + yield */\n      tag_478\n      swap1\n        /* \"FlattenedPool.sol\":28386:28391  yield */\n      dup6\n      swap1\n        /* \"FlattenedPool.sol\":28373:28391  dep.amount + yield */\n      tag_420\n      jump\t// in\n    tag_478:\n        /* \"FlattenedPool.sol\":28339:28392  IERC20(USDC).transfer(msg.sender, dep.amount + yield) */\n      mload(0x40)\n      not(sub(shl(0xe0, 0x01), 0x01))\n      0xe0\n      dup6\n      swap1\n      shl\n      and\n      dup2\n      mstore\n      sub(shl(0xa0, 0x01), 0x01)\n        /* \"#utility.yul\":14330:14385   */\n      swap1\n      swap3\n      and\n        /* \"FlattenedPool.sol\":28339:28392  IERC20(USDC).transfer(msg.sender, dep.amount + yield) */\n      0x04\n      dup4\n      add\n        /* \"#utility.yul\":14312:14386   */\n      mstore\n        /* \"#utility.yul\":14402:14420   */\n      0x24\n      dup3\n      add\n        /* \"#utility.yul\":14395:14429   */\n      mstore\n        /* \"#utility.yul\":14285:14303   */\n      0x44\n      add\n        /* \"FlattenedPool.sol\":28339:28392  IERC20(USDC).transfer(msg.sender, dep.amount + yield) */\n      0x20\n      mload(0x40)\n      dup1\n      dup4\n      sub\n      dup2\n      0x00\n      dup8\n      gas\n      call\n      iszero\n      dup1\n      iszero\n      tag_482\n      jumpi\n      returndatasize\n      0x00\n      dup1\n      returndatacopy\n      revert(0x00, returndatasize)\n    tag_482:\n      pop\n      pop\n      pop\n      pop\n      mload(0x40)\n      returndatasize\n      not(0x1f)\n      0x1f\n      dup3\n      add\n      and\n      dup3\n      add\n      dup1\n      0x40\n      mstore\n      pop\n      dup2\n      add\n      swap1\n      tag_483\n      swap2\n      swap1\n      tag_484\n      jump\t// in\n    tag_483:\n      pop\n        /* \"FlattenedPool.sol\":28246:28403  if (dep.token == TokenType.USDC) {... */\n    tag_476:\n        /* \"FlattenedPool.sol\":28430:28440  msg.sender */\n      caller\n        /* \"FlattenedPool.sol\":28417:28441  hasWithdrawn[msg.sender] */\n      0x00\n      swap1\n      dup2\n      mstore\n        /* \"FlattenedPool.sol\":28417:28429  hasWithdrawn */\n      0x0a\n        /* \"FlattenedPool.sol\":28417:28441  hasWithdrawn[msg.sender] */\n      0x20\n      mstore\n      0x40\n      swap1\n      keccak256\n      sload\n      0xff\n      and\n        /* \"FlattenedPool.sol\":28412:28544  if (!hasWithdrawn[msg.sender]) {... */\n      tag_485\n      jumpi\n        /* \"FlattenedPool.sol\":28457:28471  withdrawnUsers */\n      0x10\n        /* \"FlattenedPool.sol\":28457:28488  withdrawnUsers.push(msg.sender) */\n      dup1\n      sload\n      0x01\n      dup2\n      dup2\n      add\n      swap1\n      swap3\n      sstore\n      0x1b6847dc741a1b0cd08d278845f9d819d87b734759afb55fe2de5cb82a9ae672\n      add\n      dup1\n      sload\n      not(sub(shl(0xa0, 0x01), 0x01))\n      and\n        /* \"FlattenedPool.sol\":28477:28487  msg.sender */\n      caller\n        /* \"FlattenedPool.sol\":28457:28488  withdrawnUsers.push(msg.sender) */\n      swap1\n      dup2\n      or\n      swap1\n      swap2\n      sstore\n      0x00\n        /* \"FlattenedPool.sol\":28502:28526  hasWithdrawn[msg.sender] */\n      swap1\n      dup2\n      mstore\n        /* \"FlattenedPool.sol\":28502:28514  hasWithdrawn */\n      0x0a\n        /* \"FlattenedPool.sol\":28457:28488  withdrawnUsers.push(msg.sender) */\n      0x20\n        /* \"FlattenedPool.sol\":28502:28526  hasWithdrawn[msg.sender] */\n      mstore\n      0x40\n      swap1\n      keccak256\n        /* \"FlattenedPool.sol\":28502:28533  hasWithdrawn[msg.sender] = true */\n      dup1\n      sload\n      not(0xff)\n      and\n      swap1\n      swap2\n      or\n      swap1\n      sstore\n        /* \"FlattenedPool.sol\":28412:28544  if (!hasWithdrawn[msg.sender]) {... */\n    tag_485:\n        /* \"FlattenedPool.sol\":28579:28588  dep.token */\n      dup2\n      sload\n      0x01\n        /* \"FlattenedPool.sol\":28590:28600  dep.amount */\n      dup4\n      add\n      sload\n        /* \"FlattenedPool.sol\":28558:28639  Withdraw(msg.sender, dep.token, dep.amount, yield, block.timestamp, depositIndex) */\n      mload(0x40)\n        /* \"FlattenedPool.sol\":28567:28577  msg.sender */\n      caller\n      swap3\n        /* \"FlattenedPool.sol\":28558:28639  Withdraw(msg.sender, dep.token, dep.amount, yield, block.timestamp, depositIndex) */\n      0xcb034b37ef3764745c35bafecd525367bcf312e9010239e6aeebbe6bcf57727f\n      swap3\n      tag_487\n      swap3\n        /* \"FlattenedPool.sol\":28579:28588  dep.token */\n      0xff\n      swap1\n      swap3\n      and\n      swap2\n        /* \"FlattenedPool.sol\":28602:28607  yield */\n      dup7\n      swap1\n        /* \"FlattenedPool.sol\":28609:28624  block.timestamp */\n      timestamp\n      swap1\n        /* \"FlattenedPool.sol\":28626:28638  depositIndex */\n      dup11\n      swap1\n        /* \"FlattenedPool.sol\":28558:28639  Withdraw(msg.sender, dep.token, dep.amount, yield, block.timestamp, depositIndex) */\n      tag_488\n      jump\t// in\n    tag_487:\n      mload(0x40)\n      dup1\n      swap2\n      sub\n      swap1\n      log2\n        /* \"FlattenedPool.sol\":27548:28646  {... */\n      pop\n      pop\n        /* \"FlattenedPool.sol\":18961:18981  _nonReentrantAfter() */\n      tag_489\n        /* \"FlattenedPool.sol\":18276:18277  1 */\n      0x01\n        /* \"FlattenedPool.sol\":19487:19508  _status = NOT_ENTERED */\n      dup1\n      sstore\n        /* \"FlattenedPool.sol\":19307:19515  function _nonReentrantAfter() private {... */\n      jump\n        /* \"FlattenedPool.sol\":18961:18981  _nonReentrantAfter() */\n    tag_489:\n        /* \"FlattenedPool.sol\":27461:28646  function withdraw(uint256 depositIndex) external nonReentrant whenWithdrawalsNotPaused {... */\n      pop\n      jump\t// out\n        /* \"FlattenedPool.sol\":10644:10780  function grantRole(bytes32 role, address account) public virtual onlyRole(getRoleAdmin(role)) {... */\n    tag_161:\n        /* \"FlattenedPool.sol\":10293:10300  bytes32 */\n      0x00\n        /* \"FlattenedPool.sol\":10319:10331  _roles[role] */\n      dup3\n      dup2\n      mstore\n      0x20\n      dup2\n      swap1\n      mstore\n      0x40\n      swap1\n      keccak256\n        /* \"FlattenedPool.sol\":10319:10341  _roles[role].adminRole */\n      0x01\n      add\n      sload\n        /* \"FlattenedPool.sol\":8882:8898  _checkRole(role) */\n      tag_492\n        /* \"FlattenedPool.sol\":8893:8897  role */\n      dup2\n        /* \"FlattenedPool.sol\":8882:8892  _checkRole */\n      tag_405\n        /* \"FlattenedPool.sol\":8882:8898  _checkRole(role) */\n      jump\t// in\n    tag_492:\n        /* \"FlattenedPool.sol\":10748:10773  _grantRole(role, account) */\n      tag_494\n        /* \"FlattenedPool.sol\":10759:10763  role */\n      dup4\n        /* \"FlattenedPool.sol\":10765:10772  account */\n      dup4\n        /* \"FlattenedPool.sol\":10748:10758  _grantRole */\n      tag_495\n        /* \"FlattenedPool.sol\":10748:10773  _grantRole(role, account) */\n      jump\t// in\n    tag_494:\n      pop\n        /* \"FlattenedPool.sol\":10644:10780  function grantRole(bytes32 role, address account) public virtual onlyRole(getRoleAdmin(role)) {... */\n      pop\n      pop\n      pop\n      jump\t// out\n        /* \"FlattenedPool.sol\":11746:11991  function renounceRole(bytes32 role, address callerConfirmation) public virtual {... */\n    tag_170:\n      sub(shl(0xa0, 0x01), 0x01)\n        /* \"FlattenedPool.sol\":11839:11873  callerConfirmation != _msgSender() */\n      dup2\n      and\n        /* \"FlattenedPool.sol\":4336:4346  msg.sender */\n      caller\n        /* \"FlattenedPool.sol\":11839:11873  callerConfirmation != _msgSender() */\n      eq\n        /* \"FlattenedPool.sol\":11835:11937  if (callerConfirmation != _msgSender()) {... */\n      tag_499\n      jumpi\n        /* \"FlattenedPool.sol\":11896:11926  AccessControlBadConfirmation() */\n      mload(0x40)\n      shl(0xe1, 0x334bd919)\n      dup2\n      mstore\n      0x04\n      add\n      mload(0x40)\n      dup1\n      swap2\n      sub\n      swap1\n      revert\n        /* \"FlattenedPool.sol\":11835:11937  if (callerConfirmation != _msgSender()) {... */\n    tag_499:\n        /* \"FlattenedPool.sol\":11947:11984  _revokeRole(role, callerConfirmation) */\n      tag_500\n        /* \"FlattenedPool.sol\":11959:11963  role */\n      dup3\n        /* \"FlattenedPool.sol\":11965:11983  callerConfirmation */\n      dup3\n        /* \"FlattenedPool.sol\":11947:11958  _revokeRole */\n      tag_501\n        /* \"FlattenedPool.sol\":11947:11984  _revokeRole(role, callerConfirmation) */\n      jump\t// in\n    tag_500:\n      pop\n        /* \"FlattenedPool.sol\":11746:11991  function renounceRole(bytes32 role, address callerConfirmation) public virtual {... */\n      pop\n      pop\n      jump\t// out\n        /* \"FlattenedPool.sol\":33683:34188  function assignUtilityUSDCBatch(address[] calldata users, uint256[] calldata amounts) external onlyRole(ADMIN_ROLE) {... */\n    tag_184:\n      0x00\n      dup1\n      mload\n      0x20\n      data_cb864c43dd5d441bb6271f424f11befa622c032dfd374d226e26fbbdb782b8f8\n      dup4\n      codecopy\n      dup2\n      mload\n      swap2\n      mstore\n        /* \"FlattenedPool.sol\":8882:8898  _checkRole(role) */\n      tag_503\n        /* \"FlattenedPool.sol\":8893:8897  role */\n      dup2\n        /* \"FlattenedPool.sol\":8882:8892  _checkRole */\n      tag_405\n        /* \"FlattenedPool.sol\":8882:8898  _checkRole(role) */\n      jump\t// in\n    tag_503:\n        /* \"FlattenedPool.sol\":33817:33847  users.length == amounts.length */\n      dup4\n      dup3\n      eq\n        /* \"FlattenedPool.sol\":33809:33860  require(users.length == amounts.length, \"Mismatch\") */\n      tag_505\n      jumpi\n      mload(0x40)\n      shl(0xe5, 0x461bcd)\n      dup2\n      mstore\n        /* \"#utility.yul\":15390:15392   */\n      0x20\n        /* \"FlattenedPool.sol\":33809:33860  require(users.length == amounts.length, \"Mismatch\") */\n      0x04\n      dup3\n      add\n        /* \"#utility.yul\":15372:15393   */\n      mstore\n        /* \"#utility.yul\":15429:15430   */\n      0x08\n        /* \"#utility.yul\":15409:15427   */\n      0x24\n      dup3\n      add\n        /* \"#utility.yul\":15402:15431   */\n      mstore\n      shl(0xc3, 0x09ad2e6dac2e8c6d)\n        /* \"#utility.yul\":15447:15465   */\n      0x44\n      dup3\n      add\n        /* \"#utility.yul\":15440:15478   */\n      mstore\n        /* \"#utility.yul\":15495:15513   */\n      0x64\n      add\n        /* \"FlattenedPool.sol\":33809:33860  require(users.length == amounts.length, \"Mismatch\") */\n      tag_415\n        /* \"#utility.yul\":15188:15519   */\n      jump\n        /* \"FlattenedPool.sol\":33809:33860  require(users.length == amounts.length, \"Mismatch\") */\n    tag_505:\n        /* \"FlattenedPool.sol\":33870:33883  uint256 total */\n      0x00\n      dup1\n        /* \"FlattenedPool.sol\":33893:34087  for (uint256 i = 0; i < users.length; i++) {... */\n    tag_508:\n        /* \"FlattenedPool.sol\":33913:33929  i < users.length */\n      dup6\n      dup2\n      lt\n        /* \"FlattenedPool.sol\":33893:34087  for (uint256 i = 0; i < users.length; i++) {... */\n      iszero\n      tag_509\n      jumpi\n        /* \"FlattenedPool.sol\":33971:33972  0 */\n      0x00\n        /* \"FlattenedPool.sol\":33958:33965  amounts */\n      dup6\n      dup6\n        /* \"FlattenedPool.sol\":33966:33967  i */\n      dup4\n        /* \"FlattenedPool.sol\":33958:33968  amounts[i] */\n      dup2\n      dup2\n      lt\n      tag_512\n      jumpi\n      tag_512\n      tag_444\n      jump\t// in\n    tag_512:\n      swap1\n      pop\n      0x20\n      mul\n      add\n      calldataload\n        /* \"FlattenedPool.sol\":33958:33972  amounts[i] > 0 */\n      gt\n        /* \"FlattenedPool.sol\":33950:33981  require(amounts[i] > 0, \"Zero\") */\n      tag_513\n      jumpi\n      mload(0x40)\n      shl(0xe5, 0x461bcd)\n      dup2\n      mstore\n      0x04\n      add\n      tag_415\n      swap1\n        /* \"#utility.yul\":15726:15728   */\n      0x20\n        /* \"#utility.yul\":15708:15729   */\n      dup1\n      dup3\n      mstore\n        /* \"#utility.yul\":15765:15766   */\n      0x04\n        /* \"#utility.yul\":15745:15763   */\n      swap1\n      dup3\n      add\n        /* \"#utility.yul\":15738:15767   */\n      mstore\n      shl(0xe0, 0x5a65726f)\n        /* \"#utility.yul\":15798:15800   */\n      0x40\n        /* \"#utility.yul\":15783:15801   */\n      dup3\n      add\n        /* \"#utility.yul\":15776:15810   */\n      mstore\n        /* \"#utility.yul\":15842:15844   */\n      0x60\n        /* \"#utility.yul\":15827:15845   */\n      add\n      swap1\n        /* \"#utility.yul\":15524:15851   */\n      jump\n        /* \"FlattenedPool.sol\":33950:33981  require(amounts[i] > 0, \"Zero\") */\n    tag_513:\n        /* \"FlattenedPool.sol\":34033:34040  amounts */\n      dup5\n      dup5\n        /* \"FlattenedPool.sol\":34041:34042  i */\n      dup3\n        /* \"FlattenedPool.sol\":34033:34043  amounts[i] */\n      dup2\n      dup2\n      lt\n      tag_517\n      jumpi\n      tag_517\n      tag_444\n      jump\t// in\n    tag_517:\n      swap1\n      pop\n      0x20\n      mul\n      add\n      calldataload\n        /* \"FlattenedPool.sol\":33995:34019  userClaimableUtilityUSDC */\n      0x0c\n        /* \"FlattenedPool.sol\":33995:34029  userClaimableUtilityUSDC[users[i]] */\n      0x00\n        /* \"FlattenedPool.sol\":34020:34025  users */\n      dup10\n      dup10\n        /* \"FlattenedPool.sol\":34026:34027  i */\n      dup6\n        /* \"FlattenedPool.sol\":34020:34028  users[i] */\n      dup2\n      dup2\n      lt\n      tag_519\n      jumpi\n      tag_519\n      tag_444\n      jump\t// in\n    tag_519:\n      swap1\n      pop\n      0x20\n      mul\n      add\n      0x20\n      dup2\n      add\n      swap1\n      tag_520\n      swap2\n      swap1\n      tag_104\n      jump\t// in\n    tag_520:\n      sub(shl(0xa0, 0x01), 0x01)\n        /* \"FlattenedPool.sol\":33995:34029  userClaimableUtilityUSDC[users[i]] */\n      and\n      sub(shl(0xa0, 0x01), 0x01)\n      and\n      dup2\n      mstore\n      0x20\n      add\n      swap1\n      dup2\n      mstore\n      0x20\n      add\n      0x00\n      keccak256\n      0x00\n        /* \"FlattenedPool.sol\":33995:34043  userClaimableUtilityUSDC[users[i]] += amounts[i] */\n      dup3\n      dup3\n      sload\n      tag_521\n      swap2\n      swap1\n      tag_420\n      jump\t// in\n    tag_521:\n      swap1\n      swap2\n      sstore\n      pop\n        /* \"FlattenedPool.sol\":34066:34073  amounts */\n      dup6\n      swap1\n      pop\n      dup5\n        /* \"FlattenedPool.sol\":34074:34075  i */\n      dup3\n        /* \"FlattenedPool.sol\":34066:34076  amounts[i] */\n      dup2\n      dup2\n      lt\n      tag_523\n      jumpi\n      tag_523\n      tag_444\n      jump\t// in\n    tag_523:\n      swap1\n      pop\n      0x20\n      mul\n      add\n      calldataload\n        /* \"FlattenedPool.sol\":34057:34076  total += amounts[i] */\n      dup3\n      tag_524\n      swap2\n      swap1\n      tag_420\n      jump\t// in\n    tag_524:\n      swap2\n      pop\n        /* \"FlattenedPool.sol\":33931:33934  i++ */\n      0x01\n      add\n        /* \"FlattenedPool.sol\":33893:34087  for (uint256 i = 0; i < users.length; i++) {... */\n      jump(tag_508)\n    tag_509:\n      pop\n        /* \"FlattenedPool.sol\":34113:34129  totalUtilityUSDC */\n      sload(0x17)\n        /* \"FlattenedPool.sol\":34104:34109  total */\n      dup2\n        /* \"FlattenedPool.sol\":34104:34129  total <= totalUtilityUSDC */\n      gt\n      iszero\n        /* \"FlattenedPool.sol\":34096:34146  require(total <= totalUtilityUSDC, \"Exceeds pool\") */\n      tag_525\n      jumpi\n      mload(0x40)\n      shl(0xe5, 0x461bcd)\n      dup2\n      mstore\n        /* \"#utility.yul\":16058:16060   */\n      0x20\n        /* \"FlattenedPool.sol\":34096:34146  require(total <= totalUtilityUSDC, \"Exceeds pool\") */\n      0x04\n      dup3\n      add\n        /* \"#utility.yul\":16040:16061   */\n      mstore\n        /* \"#utility.yul\":16097:16099   */\n      0x0c\n        /* \"#utility.yul\":16077:16095   */\n      0x24\n      dup3\n      add\n        /* \"#utility.yul\":16070:16100   */\n      mstore\n      shl(0xa2, 0x115e18d959591cc81c1bdbdb)\n        /* \"#utility.yul\":16116:16134   */\n      0x44\n      dup3\n      add\n        /* \"#utility.yul\":16109:16151   */\n      mstore\n        /* \"#utility.yul\":16168:16186   */\n      0x64\n      add\n        /* \"FlattenedPool.sol\":34096:34146  require(total <= totalUtilityUSDC, \"Exceeds pool\") */\n      tag_415\n        /* \"#utility.yul\":15856:16192   */\n      jump\n        /* \"FlattenedPool.sol\":34096:34146  require(total <= totalUtilityUSDC, \"Exceeds pool\") */\n    tag_525:\n        /* \"FlattenedPool.sol\":34176:34181  total */\n      dup1\n        /* \"FlattenedPool.sol\":34156:34172  totalUtilityUSDC */\n      0x17\n      0x00\n        /* \"FlattenedPool.sol\":34156:34181  totalUtilityUSDC -= total */\n      dup3\n      dup3\n      sload\n      tag_528\n      swap2\n      swap1\n      tag_529\n      jump\t// in\n    tag_528:\n      swap1\n      swap2\n      sstore\n      pop\n      pop\n      pop\n      pop\n      pop\n      pop\n      pop\n      pop\n        /* \"FlattenedPool.sol\":33683:34188  function assignUtilityUSDCBatch(address[] calldata users, uint256[] calldata amounts) external onlyRole(ADMIN_ROLE) {... */\n      jump\t// out\n        /* \"FlattenedPool.sol\":25212:25559  function setWhitelistBatch(address[] calldata users, bool[] calldata statuses) external onlyRole(ADMIN_ROLE) {... */\n    tag_189:\n      0x00\n      dup1\n      mload\n      0x20\n      data_cb864c43dd5d441bb6271f424f11befa622c032dfd374d226e26fbbdb782b8f8\n      dup4\n      codecopy\n      dup2\n      mload\n      swap2\n      mstore\n        /* \"FlattenedPool.sol\":8882:8898  _checkRole(role) */\n      tag_531\n        /* \"FlattenedPool.sol\":8893:8897  role */\n      dup2\n        /* \"FlattenedPool.sol\":8882:8892  _checkRole */\n      tag_405\n        /* \"FlattenedPool.sol\":8882:8898  _checkRole(role) */\n      jump\t// in\n    tag_531:\n        /* \"FlattenedPool.sol\":25339:25370  users.length == statuses.length */\n      dup4\n      dup3\n      eq\n        /* \"FlattenedPool.sol\":25331:25383  require(users.length == statuses.length, \"Mismatch\") */\n      tag_533\n      jumpi\n      mload(0x40)\n      shl(0xe5, 0x461bcd)\n      dup2\n      mstore\n        /* \"#utility.yul\":15390:15392   */\n      0x20\n        /* \"FlattenedPool.sol\":25331:25383  require(users.length == statuses.length, \"Mismatch\") */\n      0x04\n      dup3\n      add\n        /* \"#utility.yul\":15372:15393   */\n      mstore\n        /* \"#utility.yul\":15429:15430   */\n      0x08\n        /* \"#utility.yul\":15409:15427   */\n      0x24\n      dup3\n      add\n        /* \"#utility.yul\":15402:15431   */\n      mstore\n      shl(0xc3, 0x09ad2e6dac2e8c6d)\n        /* \"#utility.yul\":15447:15465   */\n      0x44\n      dup3\n      add\n        /* \"#utility.yul\":15440:15478   */\n      mstore\n        /* \"#utility.yul\":15495:15513   */\n      0x64\n      add\n        /* \"FlattenedPool.sol\":25331:25383  require(users.length == statuses.length, \"Mismatch\") */\n      tag_415\n        /* \"#utility.yul\":15188:15519   */\n      jump\n        /* \"FlattenedPool.sol\":25331:25383  require(users.length == statuses.length, \"Mismatch\") */\n    tag_533:\n        /* \"FlattenedPool.sol\":25398:25407  uint256 i */\n      0x00\n        /* \"FlattenedPool.sol\":25393:25553  for (uint256 i=0; i < users.length; i++) {... */\n    tag_535:\n        /* \"FlattenedPool.sol\":25411:25427  i < users.length */\n      dup5\n      dup2\n      lt\n        /* \"FlattenedPool.sol\":25393:25553  for (uint256 i=0; i < users.length; i++) {... */\n      iszero\n      tag_536\n      jumpi\n        /* \"FlattenedPool.sol\":25474:25482  statuses */\n      dup4\n      dup4\n        /* \"FlattenedPool.sol\":25483:25484  i */\n      dup3\n        /* \"FlattenedPool.sol\":25474:25485  statuses[i] */\n      dup2\n      dup2\n      lt\n      tag_539\n      jumpi\n      tag_539\n      tag_444\n      jump\t// in\n    tag_539:\n      swap1\n      pop\n      0x20\n      mul\n      add\n      0x20\n      dup2\n      add\n      swap1\n      tag_540\n      swap2\n      swap1\n      tag_111\n      jump\t// in\n    tag_540:\n        /* \"FlattenedPool.sol\":25448:25461  isWhitelisted */\n      0x09\n        /* \"FlattenedPool.sol\":25448:25471  isWhitelisted[users[i]] */\n      0x00\n        /* \"FlattenedPool.sol\":25462:25467  users */\n      dup9\n      dup9\n        /* \"FlattenedPool.sol\":25468:25469  i */\n      dup6\n        /* \"FlattenedPool.sol\":25462:25470  users[i] */\n      dup2\n      dup2\n      lt\n      tag_542\n      jumpi\n      tag_542\n      tag_444\n      jump\t// in\n    tag_542:\n      swap1\n      pop\n      0x20\n      mul\n      add\n      0x20\n      dup2\n      add\n      swap1\n      tag_543\n      swap2\n      swap1\n      tag_104\n      jump\t// in\n    tag_543:\n      sub(shl(0xa0, 0x01), 0x01)\n        /* \"FlattenedPool.sol\":25448:25471  isWhitelisted[users[i]] */\n      and\n      dup2\n      mstore\n      0x20\n      dup2\n      add\n      swap2\n      swap1\n      swap2\n      mstore\n      0x40\n      add\n      0x00\n      keccak256\n        /* \"FlattenedPool.sol\":25448:25485  isWhitelisted[users[i]] = statuses[i] */\n      dup1\n      sload\n      not(0xff)\n      and\n      swap2\n      iszero\n      iszero\n      swap2\n      swap1\n      swap2\n      or\n      swap1\n      sstore\n        /* \"FlattenedPool.sol\":25520:25525  users */\n      dup6\n      dup6\n        /* \"FlattenedPool.sol\":25526:25527  i */\n      dup3\n        /* \"FlattenedPool.sol\":25520:25528  users[i] */\n      dup2\n      dup2\n      lt\n      tag_545\n      jumpi\n      tag_545\n      tag_444\n      jump\t// in\n    tag_545:\n      swap1\n      pop\n      0x20\n      mul\n      add\n      0x20\n      dup2\n      add\n      swap1\n      tag_546\n      swap2\n      swap1\n      tag_104\n      jump\t// in\n    tag_546:\n      sub(shl(0xa0, 0x01), 0x01)\n        /* \"FlattenedPool.sol\":25504:25542  UserWhitelisted(users[i], statuses[i]) */\n      and\n      0x995d2434d36c9bceaab42c56efe51e8ffe41fd11cabefd9e2cb83700d8b2035e\n        /* \"FlattenedPool.sol\":25530:25538  statuses */\n      dup6\n      dup6\n        /* \"FlattenedPool.sol\":25539:25540  i */\n      dup5\n        /* \"FlattenedPool.sol\":25530:25541  statuses[i] */\n      dup2\n      dup2\n      lt\n      tag_548\n      jumpi\n      tag_548\n      tag_444\n      jump\t// in\n    tag_548:\n      swap1\n      pop\n      0x20\n      mul\n      add\n      0x20\n      dup2\n      add\n      swap1\n      tag_549\n      swap2\n      swap1\n      tag_111\n      jump\t// in\n    tag_549:\n        /* \"FlattenedPool.sol\":25504:25542  UserWhitelisted(users[i], statuses[i]) */\n      mload(0x40)\n        /* \"#utility.yul\":566:580   */\n      swap1\n      iszero\n        /* \"#utility.yul\":559:581   */\n      iszero\n        /* \"#utility.yul\":541:582   */\n      dup2\n      mstore\n        /* \"#utility.yul\":529:531   */\n      0x20\n        /* \"#utility.yul\":514:532   */\n      add\n        /* \"FlattenedPool.sol\":25504:25542  UserWhitelisted(users[i], statuses[i]) */\n      mload(0x40)\n      dup1\n      swap2\n      sub\n      swap1\n      log2\n        /* \"FlattenedPool.sol\":25429:25432  i++ */\n      0x01\n      add\n        /* \"FlattenedPool.sol\":25393:25553  for (uint256 i=0; i < users.length; i++) {... */\n      jump(tag_535)\n    tag_536:\n      pop\n        /* \"FlattenedPool.sol\":25212:25559  function setWhitelistBatch(address[] calldata users, bool[] calldata statuses) external onlyRole(ADMIN_ROLE) {... */\n      pop\n      pop\n      pop\n      pop\n      pop\n      jump\t// out\n        /* \"FlattenedPool.sol\":37893:39041  function getUserStats(address user) external view returns (... */\n    tag_193:\n      sub(shl(0xa0, 0x01), 0x01)\n        /* \"FlattenedPool.sol\":38261:38279  userDeposits[user] */\n      dup2\n      and\n        /* \"FlattenedPool.sol\":37961:37981  uint256 depositedETH */\n      0x00\n        /* \"FlattenedPool.sol\":38261:38279  userDeposits[user] */\n      swap1\n      dup2\n      mstore\n        /* \"FlattenedPool.sol\":38261:38273  userDeposits */\n      0x08\n        /* \"FlattenedPool.sol\":38261:38279  userDeposits[user] */\n      0x20\n      mstore\n      0x40\n      dup2\n      keccak256\n        /* \"FlattenedPool.sol\":37961:37981  uint256 depositedETH */\n      dup2\n      swap1\n      dup2\n      swap1\n      dup2\n      swap1\n      dup2\n      swap1\n      dup2\n      swap1\n      dup2\n      swap1\n      dup2\n      swap1\n      dup2\n        /* \"FlattenedPool.sol\":38289:38911  for (uint256 i = 0; i < deposits.length; i++) {... */\n    tag_552:\n        /* \"FlattenedPool.sol\":38313:38328  deposits.length */\n      dup2\n      sload\n        /* \"FlattenedPool.sol\":38309:38328  i < deposits.length */\n      dup2\n      lt\n        /* \"FlattenedPool.sol\":38289:38911  for (uint256 i = 0; i < deposits.length; i++) {... */\n      iszero\n      tag_553\n      jumpi\n        /* \"FlattenedPool.sol\":38374:38387  TokenType.ETH */\n      0x00\n        /* \"FlattenedPool.sol\":38353:38361  deposits */\n      dup3\n        /* \"FlattenedPool.sol\":38362:38363  i */\n      dup3\n        /* \"FlattenedPool.sol\":38353:38364  deposits[i] */\n      dup2\n      sload\n      dup2\n      lt\n      tag_558\n      jumpi\n      tag_558\n      tag_444\n      jump\t// in\n    tag_558:\n      0x00\n      swap2\n      dup3\n      mstore\n      0x20\n      swap1\n      swap2\n      keccak256\n      0x06\n      swap1\n      swap2\n      mul\n      add\n        /* \"FlattenedPool.sol\":38353:38370  deposits[i].token */\n      sload\n      0xff\n      and\n      0x01\n        /* \"FlattenedPool.sol\":38353:38387  deposits[i].token == TokenType.ETH */\n      dup2\n      gt\n      iszero\n      tag_561\n      jumpi\n      tag_561\n      tag_432\n      jump\t// in\n    tag_561:\n      sub\n        /* \"FlattenedPool.sol\":38349:38901  if (deposits[i].token == TokenType.ETH) {... */\n      tag_562\n      jumpi\n        /* \"FlattenedPool.sol\":38423:38431  deposits */\n      dup2\n        /* \"FlattenedPool.sol\":38432:38433  i */\n      dup2\n        /* \"FlattenedPool.sol\":38423:38434  deposits[i] */\n      dup2\n      sload\n      dup2\n      lt\n      tag_564\n      jumpi\n      tag_564\n      tag_444\n      jump\t// in\n    tag_564:\n      swap1\n      0x00\n      mstore\n      keccak256(0x00, 0x20)\n      swap1\n      0x06\n      mul\n      add\n        /* \"FlattenedPool.sol\":38423:38441  deposits[i].amount */\n      0x01\n      add\n      sload\n        /* \"FlattenedPool.sol\":38407:38441  depositedETH += deposits[i].amount */\n      dup11\n      tag_566\n      swap2\n      swap1\n      tag_420\n      jump\t// in\n    tag_566:\n      swap10\n      pop\n        /* \"FlattenedPool.sol\":38463:38471  deposits */\n      dup2\n        /* \"FlattenedPool.sol\":38472:38473  i */\n      dup2\n        /* \"FlattenedPool.sol\":38463:38474  deposits[i] */\n      dup2\n      sload\n      dup2\n      lt\n      tag_568\n      jumpi\n      tag_568\n      tag_444\n      jump\t// in\n    tag_568:\n      0x00\n      swap2\n      dup3\n      mstore\n      0x20\n      swap1\n      swap2\n      keccak256\n        /* \"FlattenedPool.sol\":38463:38484  deposits[i].withdrawn */\n      0x03\n        /* \"FlattenedPool.sol\":38463:38474  deposits[i] */\n      0x06\n      swap1\n      swap3\n      mul\n      add\n        /* \"FlattenedPool.sol\":38463:38484  deposits[i].withdrawn */\n      add\n      sload\n      0xff\n      and\n        /* \"FlattenedPool.sol\":38459:38520  if (deposits[i].withdrawn) withdrawnETH += deposits[i].amount */\n      iszero\n      tag_570\n      jumpi\n        /* \"FlattenedPool.sol\":38502:38510  deposits */\n      dup2\n        /* \"FlattenedPool.sol\":38511:38512  i */\n      dup2\n        /* \"FlattenedPool.sol\":38502:38513  deposits[i] */\n      dup2\n      sload\n      dup2\n      lt\n      tag_572\n      jumpi\n      tag_572\n      tag_444\n      jump\t// in\n    tag_572:\n      swap1\n      0x00\n      mstore\n      keccak256(0x00, 0x20)\n      swap1\n      0x06\n      mul\n      add\n        /* \"FlattenedPool.sol\":38502:38520  deposits[i].amount */\n      0x01\n      add\n      sload\n        /* \"FlattenedPool.sol\":38486:38520  withdrawnETH += deposits[i].amount */\n      dup9\n      tag_574\n      swap2\n      swap1\n      tag_420\n      jump\t// in\n    tag_574:\n      swap8\n      pop\n        /* \"FlattenedPool.sol\":38459:38520  if (deposits[i].withdrawn) withdrawnETH += deposits[i].amount */\n    tag_570:\n        /* \"FlattenedPool.sol\":38542:38550  deposits */\n      dup2\n        /* \"FlattenedPool.sol\":38551:38552  i */\n      dup2\n        /* \"FlattenedPool.sol\":38542:38553  deposits[i] */\n      dup2\n      sload\n      dup2\n      lt\n      tag_576\n      jumpi\n      tag_576\n      tag_444\n      jump\t// in\n    tag_576:\n      swap1\n      0x00\n      mstore\n      keccak256(0x00, 0x20)\n      swap1\n      0x06\n      mul\n      add\n        /* \"FlattenedPool.sol\":38542:38568  deposits[i].isReinvestment */\n      0x03\n      add\n      0x03\n      swap1\n      sload\n      swap1\n      0x0100\n      exp\n      swap1\n      div\n      0xff\n      and\n        /* \"FlattenedPool.sol\":38538:38605  if (deposits[i].isReinvestment) reinvestedETH += deposits[i].amount */\n      iszero\n      tag_578\n      jumpi\n        /* \"FlattenedPool.sol\":38587:38595  deposits */\n      dup2\n        /* \"FlattenedPool.sol\":38596:38597  i */\n      dup2\n        /* \"FlattenedPool.sol\":38587:38598  deposits[i] */\n      dup2\n      sload\n      dup2\n      lt\n      tag_580\n      jumpi\n      tag_580\n      tag_444\n      jump\t// in\n    tag_580:\n      swap1\n      0x00\n      mstore\n      keccak256(0x00, 0x20)\n      swap1\n      0x06\n      mul\n      add\n        /* \"FlattenedPool.sol\":38587:38605  deposits[i].amount */\n      0x01\n      add\n      sload\n        /* \"FlattenedPool.sol\":38570:38605  reinvestedETH += deposits[i].amount */\n      dup5\n      tag_582\n      swap2\n      swap1\n      tag_420\n      jump\t// in\n    tag_582:\n      swap4\n      pop\n        /* \"FlattenedPool.sol\":38538:38605  if (deposits[i].isReinvestment) reinvestedETH += deposits[i].amount */\n    tag_578:\n        /* \"FlattenedPool.sol\":38349:38901  if (deposits[i].token == TokenType.ETH) {... */\n      jump(tag_607)\n    tag_562:\n        /* \"FlattenedPool.sol\":38651:38665  TokenType.USDC */\n      0x01\n        /* \"FlattenedPool.sol\":38630:38638  deposits */\n      dup3\n        /* \"FlattenedPool.sol\":38639:38640  i */\n      dup3\n        /* \"FlattenedPool.sol\":38630:38641  deposits[i] */\n      dup2\n      sload\n      dup2\n      lt\n      tag_587\n      jumpi\n      tag_587\n      tag_444\n      jump\t// in\n    tag_587:\n      0x00\n      swap2\n      dup3\n      mstore\n      0x20\n      swap1\n      swap2\n      keccak256\n      0x06\n      swap1\n      swap2\n      mul\n      add\n        /* \"FlattenedPool.sol\":38630:38647  deposits[i].token */\n      sload\n      0xff\n      and\n      0x01\n        /* \"FlattenedPool.sol\":38630:38665  deposits[i].token == TokenType.USDC */\n      dup2\n      gt\n      iszero\n      tag_590\n      jumpi\n      tag_590\n      tag_432\n      jump\t// in\n    tag_590:\n      sub\n        /* \"FlattenedPool.sol\":38626:38901  if (deposits[i].token == TokenType.USDC) {... */\n      tag_607\n      jumpi\n        /* \"FlattenedPool.sol\":38702:38710  deposits */\n      dup2\n        /* \"FlattenedPool.sol\":38711:38712  i */\n      dup2\n        /* \"FlattenedPool.sol\":38702:38713  deposits[i] */\n      dup2\n      sload\n      dup2\n      lt\n      tag_593\n      jumpi\n      tag_593\n      tag_444\n      jump\t// in\n    tag_593:\n      swap1\n      0x00\n      mstore\n      keccak256(0x00, 0x20)\n      swap1\n      0x06\n      mul\n      add\n        /* \"FlattenedPool.sol\":38702:38720  deposits[i].amount */\n      0x01\n      add\n      sload\n        /* \"FlattenedPool.sol\":38685:38720  depositedUSDC += deposits[i].amount */\n      dup10\n      tag_595\n      swap2\n      swap1\n      tag_420\n      jump\t// in\n    tag_595:\n      swap9\n      pop\n        /* \"FlattenedPool.sol\":38742:38750  deposits */\n      dup2\n        /* \"FlattenedPool.sol\":38751:38752  i */\n      dup2\n        /* \"FlattenedPool.sol\":38742:38753  deposits[i] */\n      dup2\n      sload\n      dup2\n      lt\n      tag_597\n      jumpi\n      tag_597\n      tag_444\n      jump\t// in\n    tag_597:\n      0x00\n      swap2\n      dup3\n      mstore\n      0x20\n      swap1\n      swap2\n      keccak256\n        /* \"FlattenedPool.sol\":38742:38763  deposits[i].withdrawn */\n      0x03\n        /* \"FlattenedPool.sol\":38742:38753  deposits[i] */\n      0x06\n      swap1\n      swap3\n      mul\n      add\n        /* \"FlattenedPool.sol\":38742:38763  deposits[i].withdrawn */\n      add\n      sload\n      0xff\n      and\n        /* \"FlattenedPool.sol\":38738:38800  if (deposits[i].withdrawn) withdrawnUSDC += deposits[i].amount */\n      iszero\n      tag_599\n      jumpi\n        /* \"FlattenedPool.sol\":38782:38790  deposits */\n      dup2\n        /* \"FlattenedPool.sol\":38791:38792  i */\n      dup2\n        /* \"FlattenedPool.sol\":38782:38793  deposits[i] */\n      dup2\n      sload\n      dup2\n      lt\n      tag_601\n      jumpi\n      tag_601\n      tag_444\n      jump\t// in\n    tag_601:\n      swap1\n      0x00\n      mstore\n      keccak256(0x00, 0x20)\n      swap1\n      0x06\n      mul\n      add\n        /* \"FlattenedPool.sol\":38782:38800  deposits[i].amount */\n      0x01\n      add\n      sload\n        /* \"FlattenedPool.sol\":38765:38800  withdrawnUSDC += deposits[i].amount */\n      dup8\n      tag_603\n      swap2\n      swap1\n      tag_420\n      jump\t// in\n    tag_603:\n      swap7\n      pop\n        /* \"FlattenedPool.sol\":38738:38800  if (deposits[i].withdrawn) withdrawnUSDC += deposits[i].amount */\n    tag_599:\n        /* \"FlattenedPool.sol\":38822:38830  deposits */\n      dup2\n        /* \"FlattenedPool.sol\":38831:38832  i */\n      dup2\n        /* \"FlattenedPool.sol\":38822:38833  deposits[i] */\n      dup2\n      sload\n      dup2\n      lt\n      tag_605\n      jumpi\n      tag_605\n      tag_444\n      jump\t// in\n    tag_605:\n      swap1\n      0x00\n      mstore\n      keccak256(0x00, 0x20)\n      swap1\n      0x06\n      mul\n      add\n        /* \"FlattenedPool.sol\":38822:38848  deposits[i].isReinvestment */\n      0x03\n      add\n      0x03\n      swap1\n      sload\n      swap1\n      0x0100\n      exp\n      swap1\n      div\n      0xff\n      and\n        /* \"FlattenedPool.sol\":38818:38886  if (deposits[i].isReinvestment) reinvestedUSDC += deposits[i].amount */\n      iszero\n      tag_607\n      jumpi\n        /* \"FlattenedPool.sol\":38868:38876  deposits */\n      dup2\n        /* \"FlattenedPool.sol\":38877:38878  i */\n      dup2\n        /* \"FlattenedPool.sol\":38868:38879  deposits[i] */\n      dup2\n      sload\n      dup2\n      lt\n      tag_609\n      jumpi\n      tag_609\n      tag_444\n      jump\t// in\n    tag_609:\n      swap1\n      0x00\n      mstore\n      keccak256(0x00, 0x20)\n      swap1\n      0x06\n      mul\n      add\n        /* \"FlattenedPool.sol\":38868:38886  deposits[i].amount */\n      0x01\n      add\n      sload\n        /* \"FlattenedPool.sol\":38850:38886  reinvestedUSDC += deposits[i].amount */\n      dup4\n      tag_611\n      swap2\n      swap1\n      tag_420\n      jump\t// in\n    tag_611:\n      swap3\n      pop\n        /* \"FlattenedPool.sol\":38818:38886  if (deposits[i].isReinvestment) reinvestedUSDC += deposits[i].amount */\n    tag_607:\n        /* \"FlattenedPool.sol\":38330:38333  i++ */\n      0x01\n      add\n        /* \"FlattenedPool.sol\":38289:38911  for (uint256 i = 0; i < deposits.length; i++) {... */\n      jump(tag_552)\n    tag_553:\n      pop\n      pop\n      sub(shl(0xa0, 0x01), 0x01)\n        /* \"FlattenedPool.sol\":38942:38971  userClaimableUtilityETH[user] */\n      swap1\n      swap9\n      and\n      0x00\n      swap1\n      dup2\n      mstore\n        /* \"FlattenedPool.sol\":38942:38965  userClaimableUtilityETH */\n      0x0b\n        /* \"FlattenedPool.sol\":38942:38971  userClaimableUtilityETH[user] */\n      0x20\n      swap1\n      dup2\n      mstore\n      0x40\n      dup1\n      dup4\n      keccak256\n      sload\n        /* \"FlattenedPool.sol\":39004:39028  userClaimableUtilityUSDC */\n      0x0c\n        /* \"FlattenedPool.sol\":39004:39034  userClaimableUtilityUSDC[user] */\n      swap1\n      swap3\n      mstore\n      swap1\n      swap2\n      keccak256\n      sload\n        /* \"FlattenedPool.sol\":37893:39041  function getUserStats(address user) external view returns (... */\n      swap8\n      swap10\n      swap7\n      swap9\n      swap6\n      swap8\n      swap5\n      swap7\n        /* \"FlattenedPool.sol\":38942:38971  userClaimableUtilityETH[user] */\n      swap1\n      swap6\n        /* \"FlattenedPool.sol\":37893:39041  function getUserStats(address user) external view returns (... */\n      swap2\n      swap4\n      pop\n      swap1\n      swap2\n      pop\n      jump\t// out\n        /* \"FlattenedPool.sol\":25039:25207  function setWhitelist(address user, bool status) external onlyRole(ADMIN_ROLE) {... */\n    tag_204:\n      0x00\n      dup1\n      mload\n      0x20\n      data_cb864c43dd5d441bb6271f424f11befa622c032dfd374d226e26fbbdb782b8f8\n      dup4\n      codecopy\n      dup2\n      mload\n      swap2\n      mstore\n        /* \"FlattenedPool.sol\":8882:8898  _checkRole(role) */\n      tag_613\n        /* \"FlattenedPool.sol\":8893:8897  role */\n      dup2\n        /* \"FlattenedPool.sol\":8882:8892  _checkRole */\n      tag_405\n        /* \"FlattenedPool.sol\":8882:8898  _checkRole(role) */\n      jump\t// in\n    tag_613:\n      sub(shl(0xa0, 0x01), 0x01)\n        /* \"FlattenedPool.sol\":25128:25147  isWhitelisted[user] */\n      dup4\n      and\n      0x00\n      dup2\n      dup2\n      mstore\n        /* \"FlattenedPool.sol\":25128:25141  isWhitelisted */\n      0x09\n        /* \"FlattenedPool.sol\":25128:25147  isWhitelisted[user] */\n      0x20\n      swap1\n      dup2\n      mstore\n      0x40\n      swap2\n      dup3\n      swap1\n      keccak256\n        /* \"FlattenedPool.sol\":25128:25156  isWhitelisted[user] = status */\n      dup1\n      sload\n      not(0xff)\n      and\n      dup7\n      iszero\n      iszero\n      swap1\n      dup2\n      or\n      swap1\n      swap2\n      sstore\n        /* \"FlattenedPool.sol\":25171:25200  UserWhitelisted(user, status) */\n      swap2\n      mload\n        /* \"#utility.yul\":541:582   */\n      swap2\n      dup3\n      mstore\n        /* \"FlattenedPool.sol\":25171:25200  UserWhitelisted(user, status) */\n      0x995d2434d36c9bceaab42c56efe51e8ffe41fd11cabefd9e2cb83700d8b2035e\n      swap2\n        /* \"#utility.yul\":514:532   */\n      add\n        /* \"FlattenedPool.sol\":25171:25200  UserWhitelisted(user, status) */\n      mload(0x40)\n      dup1\n      swap2\n      sub\n      swap1\n      log2\n        /* \"FlattenedPool.sol\":25039:25207  function setWhitelist(address user, bool status) external onlyRole(ADMIN_ROLE) {... */\n      pop\n      pop\n      pop\n      jump\t// out\n        /* \"FlattenedPool.sol\":31924:32178  function injectUtilityETH() external payable onlyRole(UTILITY_INJECTOR_ROLE) {... */\n    tag_219:\n        /* \"FlattenedPool.sol\":20923:20957  keccak256(\"UTILITY_INJECTOR_ROLE\") */\n      0xf60566c40710959d8d30b6067ce3c53c757bec78eecb0e46b83c7f8194ffae37\n        /* \"FlattenedPool.sol\":8882:8898  _checkRole(role) */\n      tag_617\n        /* \"FlattenedPool.sol\":8893:8897  role */\n      dup2\n        /* \"FlattenedPool.sol\":8882:8892  _checkRole */\n      tag_405\n        /* \"FlattenedPool.sol\":8882:8898  _checkRole(role) */\n      jump\t// in\n    tag_617:\n        /* \"FlattenedPool.sol\":32031:32032  0 */\n      0x00\n        /* \"FlattenedPool.sol\":32019:32028  msg.value */\n      callvalue\n        /* \"FlattenedPool.sol\":32019:32032  msg.value > 0 */\n      gt\n        /* \"FlattenedPool.sol\":32011:32048  require(msg.value > 0, \"No ETH sent\") */\n      tag_619\n      jumpi\n      mload(0x40)\n      shl(0xe5, 0x461bcd)\n      dup2\n      mstore\n        /* \"#utility.yul\":16532:16534   */\n      0x20\n        /* \"FlattenedPool.sol\":32011:32048  require(msg.value > 0, \"No ETH sent\") */\n      0x04\n      dup3\n      add\n        /* \"#utility.yul\":16514:16535   */\n      mstore\n        /* \"#utility.yul\":16571:16573   */\n      0x0b\n        /* \"#utility.yul\":16551:16569   */\n      0x24\n      dup3\n      add\n        /* \"#utility.yul\":16544:16574   */\n      mstore\n      shl(0xaa, 0x139bc8115512081cd95b9d)\n        /* \"#utility.yul\":16590:16608   */\n      0x44\n      dup3\n      add\n        /* \"#utility.yul\":16583:16624   */\n      mstore\n        /* \"#utility.yul\":16641:16659   */\n      0x64\n      add\n        /* \"FlattenedPool.sol\":32011:32048  require(msg.value > 0, \"No ETH sent\") */\n      tag_415\n        /* \"#utility.yul\":16330:16665   */\n      jump\n        /* \"FlattenedPool.sol\":32011:32048  require(msg.value > 0, \"No ETH sent\") */\n    tag_619:\n        /* \"FlattenedPool.sol\":32077:32086  msg.value */\n      callvalue\n        /* \"FlattenedPool.sol\":32058:32073  totalUtilityETH */\n      0x16\n      0x00\n        /* \"FlattenedPool.sol\":32058:32086  totalUtilityETH += msg.value */\n      dup3\n      dup3\n      sload\n      tag_622\n      swap2\n      swap1\n      tag_420\n      jump\t// in\n    tag_622:\n      swap1\n      swap2\n      sstore\n      pop\n      pop\n        /* \"FlattenedPool.sol\":32101:32171  UtilityInjected(msg.sender, TokenType.ETH, msg.value, block.timestamp) */\n      mload(0x40)\n        /* \"FlattenedPool.sol\":32117:32127  msg.sender */\n      caller\n      swap1\n        /* \"FlattenedPool.sol\":32101:32171  UtilityInjected(msg.sender, TokenType.ETH, msg.value, block.timestamp) */\n      0x8bafec96fcffb6f12596b4635c76397b7bc1f363b22c49c13136b63677323dcc\n      swap1\n      tag_623\n      swap1\n        /* \"FlattenedPool.sol\":32129:32142  TokenType.ETH */\n      0x00\n      swap1\n        /* \"FlattenedPool.sol\":32144:32153  msg.value */\n      callvalue\n      swap1\n        /* \"FlattenedPool.sol\":32155:32170  block.timestamp */\n      timestamp\n      swap1\n        /* \"FlattenedPool.sol\":32101:32171  UtilityInjected(msg.sender, TokenType.ETH, msg.value, block.timestamp) */\n      tag_423\n      jump\t// in\n    tag_623:\n      mload(0x40)\n      dup1\n      swap2\n      sub\n      swap1\n      log2\n        /* \"FlattenedPool.sol\":31924:32178  function injectUtilityETH() external payable onlyRole(UTILITY_INJECTOR_ROLE) {... */\n      pop\n      jump\t// out\n        /* \"FlattenedPool.sol\":24689:24911  function setPaused(bool _deposits, bool _withdrawals) external onlyRole(PAUSER_ROLE) {... */\n    tag_224:\n        /* \"FlattenedPool.sol\":20773:20797  keccak256(\"PAUSER_ROLE\") */\n      0x65d7a28e3265b37a6474929f336521b332c1681b933f6cb9f3376673440d862a\n        /* \"FlattenedPool.sol\":8882:8898  _checkRole(role) */\n      tag_625\n        /* \"FlattenedPool.sol\":8893:8897  role */\n      dup2\n        /* \"FlattenedPool.sol\":8882:8892  _checkRole */\n      tag_405\n        /* \"FlattenedPool.sol\":8882:8898  _checkRole(role) */\n      jump\t// in\n    tag_625:\n        /* \"FlattenedPool.sol\":24784:24798  pausedDeposits */\n      0x05\n        /* \"FlattenedPool.sol\":24784:24810  pausedDeposits = _deposits */\n      dup1\n      sload\n        /* \"FlattenedPool.sol\":24820:24852  pausedWithdrawals = _withdrawals */\n      dup4\n      iszero\n      iszero\n        /* \"FlattenedPool.sol\":24784:24810  pausedDeposits = _deposits */\n      0x0100\n        /* \"FlattenedPool.sol\":24820:24852  pausedWithdrawals = _withdrawals */\n      dup2\n      mul\n      not(0xff00)\n        /* \"FlattenedPool.sol\":24784:24810  pausedDeposits = _deposits */\n      dup8\n      iszero\n      iszero\n        /* \"FlattenedPool.sol\":24820:24852  pausedWithdrawals = _withdrawals */\n      swap1\n      dup2\n      and\n      not(0xffff)\n      swap1\n      swap5\n      and\n      swap4\n      swap1\n      swap4\n      or\n      or\n      swap1\n      swap3\n      sstore\n        /* \"FlattenedPool.sol\":24867:24904  PauseChanged(_deposits, _withdrawals) */\n      0x40\n      dup1\n      mload\n        /* \"#utility.yul\":16832:16873   */\n      swap2\n      dup3\n      mstore\n        /* \"#utility.yul\":16904:16906   */\n      0x20\n        /* \"#utility.yul\":16889:16907   */\n      dup3\n      add\n        /* \"#utility.yul\":16882:16932   */\n      swap3\n      swap1\n      swap3\n      mstore\n        /* \"FlattenedPool.sol\":24867:24904  PauseChanged(_deposits, _withdrawals) */\n      0xac1664632d6278432aa05a6afc0aa83e5ea08e8df9a1436736daa5d6283211c0\n      swap2\n        /* \"#utility.yul\":16805:16823   */\n      add\n        /* \"FlattenedPool.sol\":24867:24904  PauseChanged(_deposits, _withdrawals) */\n    tag_627:\n      mload(0x40)\n      dup1\n      swap2\n      sub\n      swap1\n      log1\n        /* \"FlattenedPool.sol\":24689:24911  function setPaused(bool _deposits, bool _withdrawals) external onlyRole(PAUSER_ROLE) {... */\n      pop\n      pop\n      pop\n      jump\t// out\n        /* \"FlattenedPool.sol\":34641:34985  function claimUtilityUSDC() external nonReentrant {... */\n    tag_227:\n        /* \"FlattenedPool.sol\":18919:18940  _nonReentrantBefore() */\n      tag_630\n        /* \"FlattenedPool.sol\":18919:18938  _nonReentrantBefore */\n      tag_412\n        /* \"FlattenedPool.sol\":18919:18940  _nonReentrantBefore() */\n      jump\t// in\n    tag_630:\n        /* \"FlattenedPool.sol\":34743:34753  msg.sender */\n      caller\n        /* \"FlattenedPool.sol\":34701:34715  uint256 amount */\n      0x00\n        /* \"FlattenedPool.sol\":34718:34754  userClaimableUtilityUSDC[msg.sender] */\n      swap1\n      dup2\n      mstore\n        /* \"FlattenedPool.sol\":34718:34742  userClaimableUtilityUSDC */\n      0x0c\n        /* \"FlattenedPool.sol\":34718:34754  userClaimableUtilityUSDC[msg.sender] */\n      0x20\n      mstore\n      0x40\n      swap1\n      keccak256\n      sload\n        /* \"FlattenedPool.sol\":34772:34782  amount > 0 */\n      dup1\n        /* \"FlattenedPool.sol\":34764:34797  require(amount > 0, \"No utility\") */\n      tag_632\n      jumpi\n      mload(0x40)\n      shl(0xe5, 0x461bcd)\n      dup2\n      mstore\n        /* \"#utility.yul\":11659:11661   */\n      0x20\n        /* \"FlattenedPool.sol\":34764:34797  require(amount > 0, \"No utility\") */\n      0x04\n      dup3\n      add\n        /* \"#utility.yul\":11641:11662   */\n      mstore\n        /* \"#utility.yul\":11698:11700   */\n      0x0a\n        /* \"#utility.yul\":11678:11696   */\n      0x24\n      dup3\n      add\n        /* \"#utility.yul\":11671:11701   */\n      mstore\n      shl(0xb0, 0x4e6f207574696c697479)\n        /* \"#utility.yul\":11717:11735   */\n      0x44\n      dup3\n      add\n        /* \"#utility.yul\":11710:11750   */\n      mstore\n        /* \"#utility.yul\":11767:11785   */\n      0x64\n      add\n        /* \"FlattenedPool.sol\":34764:34797  require(amount > 0, \"No utility\") */\n      tag_415\n        /* \"#utility.yul\":11457:11791   */\n      jump\n        /* \"FlattenedPool.sol\":34764:34797  require(amount > 0, \"No utility\") */\n    tag_632:\n        /* \"FlattenedPool.sol\":34832:34842  msg.sender */\n      caller\n        /* \"FlattenedPool.sol\":34846:34847  0 */\n      0x00\n        /* \"FlattenedPool.sol\":34807:34843  userClaimableUtilityUSDC[msg.sender] */\n      dup2\n      dup2\n      mstore\n        /* \"FlattenedPool.sol\":34807:34831  userClaimableUtilityUSDC */\n      0x0c\n        /* \"FlattenedPool.sol\":34807:34843  userClaimableUtilityUSDC[msg.sender] */\n      0x20\n      mstore\n      0x40\n      dup1\n      dup3\n      keccak256\n        /* \"FlattenedPool.sol\":34807:34847  userClaimableUtilityUSDC[msg.sender] = 0 */\n      swap2\n      swap1\n      swap2\n      sstore\n        /* \"FlattenedPool.sol\":34857:34898  IERC20(USDC).transfer(msg.sender, amount) */\n      mload\n      shl(0xe0, 0xa9059cbb)\n      dup2\n      mstore\n      0x04\n      dup2\n      add\n        /* \"#utility.yul\":14312:14386   */\n      swap2\n      swap1\n      swap2\n      mstore\n        /* \"#utility.yul\":14402:14420   */\n      0x24\n      dup2\n      add\n        /* \"#utility.yul\":14395:14429   */\n      dup3\n      swap1\n      mstore\n        /* \"FlattenedPool.sol\":20218:20260  0x833589fCD6eDb6E08f4c7C32D4f71b54bdA02913 */\n      0x833589fcd6edb6e08f4c7c32d4f71b54bda02913\n      swap1\n        /* \"FlattenedPool.sol\":34857:34878  IERC20(USDC).transfer */\n      0xa9059cbb\n      swap1\n        /* \"#utility.yul\":14285:14303   */\n      0x44\n      add\n        /* \"FlattenedPool.sol\":34857:34898  IERC20(USDC).transfer(msg.sender, amount) */\n      0x20\n      mload(0x40)\n      dup1\n      dup4\n      sub\n      dup2\n      0x00\n      dup8\n      gas\n      call\n      iszero\n      dup1\n      iszero\n      tag_636\n      jumpi\n      returndatasize\n      0x00\n      dup1\n      returndatacopy\n      revert(0x00, returndatasize)\n    tag_636:\n      pop\n      pop\n      pop\n      pop\n      mload(0x40)\n      returndatasize\n      not(0x1f)\n      0x1f\n      dup3\n      add\n      and\n      dup3\n      add\n      dup1\n      0x40\n      mstore\n      pop\n      dup2\n      add\n      swap1\n      tag_637\n      swap2\n      swap1\n      tag_484\n      jump\t// in\n    tag_637:\n      pop\n        /* \"FlattenedPool.sol\":34926:34936  msg.sender */\n      caller\n      sub(shl(0xa0, 0x01), 0x01)\n        /* \"FlattenedPool.sol\":34913:34978  ClaimUtility(msg.sender, TokenType.USDC, amount, block.timestamp) */\n      and\n      0x6914793c7a82461acec66c7de7fdbbbf1f825c26bc2fe939b61f0e4f8964c2b5\n        /* \"FlattenedPool.sol\":34938:34952  TokenType.USDC */\n      0x01\n        /* \"FlattenedPool.sol\":34954:34960  amount */\n      dup4\n        /* \"FlattenedPool.sol\":34962:34977  block.timestamp */\n      timestamp\n        /* \"FlattenedPool.sol\":34913:34978  ClaimUtility(msg.sender, TokenType.USDC, amount, block.timestamp) */\n      mload(0x40)\n      tag_422\n      swap4\n      swap3\n      swap2\n      swap1\n      tag_423\n      jump\t// in\n        /* \"FlattenedPool.sol\":32568:32842  function assignUtilityETH(address user, uint256 amount) external onlyRole(ADMIN_ROLE) {... */\n    tag_231:\n      0x00\n      dup1\n      mload\n      0x20\n      data_cb864c43dd5d441bb6271f424f11befa622c032dfd374d226e26fbbdb782b8f8\n      dup4\n      codecopy\n      dup2\n      mload\n      swap2\n      mstore\n        /* \"FlattenedPool.sol\":8882:8898  _checkRole(role) */\n      tag_641\n        /* \"FlattenedPool.sol\":8893:8897  role */\n      dup2\n        /* \"FlattenedPool.sol\":8882:8892  _checkRole */\n      tag_405\n        /* \"FlattenedPool.sol\":8882:8898  _checkRole(role) */\n      jump\t// in\n    tag_641:\n        /* \"FlattenedPool.sol\":32681:32682  0 */\n      0x00\n        /* \"FlattenedPool.sol\":32672:32678  amount */\n      dup3\n        /* \"FlattenedPool.sol\":32672:32682  amount > 0 */\n      gt\n        /* \"FlattenedPool.sol\":32664:32691  require(amount > 0, \"Zero\") */\n      tag_643\n      jumpi\n      mload(0x40)\n      shl(0xe5, 0x461bcd)\n      dup2\n      mstore\n      0x04\n      add\n      tag_415\n      swap1\n        /* \"#utility.yul\":15726:15728   */\n      0x20\n        /* \"#utility.yul\":15708:15729   */\n      dup1\n      dup3\n      mstore\n        /* \"#utility.yul\":15765:15766   */\n      0x04\n        /* \"#utility.yul\":15745:15763   */\n      swap1\n      dup3\n      add\n        /* \"#utility.yul\":15738:15767   */\n      mstore\n      shl(0xe0, 0x5a65726f)\n        /* \"#utility.yul\":15798:15800   */\n      0x40\n        /* \"#utility.yul\":15783:15801   */\n      dup3\n      add\n        /* \"#utility.yul\":15776:15810   */\n      mstore\n        /* \"#utility.yul\":15842:15844   */\n      0x60\n        /* \"#utility.yul\":15827:15845   */\n      add\n      swap1\n        /* \"#utility.yul\":15524:15851   */\n      jump\n        /* \"FlattenedPool.sol\":32664:32691  require(amount > 0, \"Zero\") */\n    tag_643:\n        /* \"FlattenedPool.sol\":32719:32734  totalUtilityETH */\n      sload(0x16)\n        /* \"FlattenedPool.sol\":32709:32715  amount */\n      dup3\n        /* \"FlattenedPool.sol\":32709:32734  amount <= totalUtilityETH */\n      gt\n      iszero\n        /* \"FlattenedPool.sol\":32701:32751  require(amount <= totalUtilityETH, \"Exceeds pool\") */\n      tag_645\n      jumpi\n      mload(0x40)\n      shl(0xe5, 0x461bcd)\n      dup2\n      mstore\n        /* \"#utility.yul\":16058:16060   */\n      0x20\n        /* \"FlattenedPool.sol\":32701:32751  require(amount <= totalUtilityETH, \"Exceeds pool\") */\n      0x04\n      dup3\n      add\n        /* \"#utility.yul\":16040:16061   */\n      mstore\n        /* \"#utility.yul\":16097:16099   */\n      0x0c\n        /* \"#utility.yul\":16077:16095   */\n      0x24\n      dup3\n      add\n        /* \"#utility.yul\":16070:16100   */\n      mstore\n      shl(0xa2, 0x115e18d959591cc81c1bdbdb)\n        /* \"#utility.yul\":16116:16134   */\n      0x44\n      dup3\n      add\n        /* \"#utility.yul\":16109:16151   */\n      mstore\n        /* \"#utility.yul\":16168:16186   */\n      0x64\n      add\n        /* \"FlattenedPool.sol\":32701:32751  require(amount <= totalUtilityETH, \"Exceeds pool\") */\n      tag_415\n        /* \"#utility.yul\":15856:16192   */\n      jump\n        /* \"FlattenedPool.sol\":32701:32751  require(amount <= totalUtilityETH, \"Exceeds pool\") */\n    tag_645:\n      sub(shl(0xa0, 0x01), 0x01)\n        /* \"FlattenedPool.sol\":32761:32790  userClaimableUtilityETH[user] */\n      dup4\n      and\n      0x00\n      swap1\n      dup2\n      mstore\n        /* \"FlattenedPool.sol\":32761:32784  userClaimableUtilityETH */\n      0x0b\n        /* \"FlattenedPool.sol\":32761:32790  userClaimableUtilityETH[user] */\n      0x20\n      mstore\n      0x40\n      dup2\n      keccak256\n        /* \"FlattenedPool.sol\":32761:32800  userClaimableUtilityETH[user] += amount */\n      dup1\n      sload\n        /* \"FlattenedPool.sol\":32794:32800  amount */\n      dup5\n      swap3\n        /* \"FlattenedPool.sol\":32761:32790  userClaimableUtilityETH[user] */\n      swap1\n        /* \"FlattenedPool.sol\":32761:32800  userClaimableUtilityETH[user] += amount */\n      tag_647\n      swap1\n        /* \"FlattenedPool.sol\":32794:32800  amount */\n      dup5\n      swap1\n        /* \"FlattenedPool.sol\":32761:32800  userClaimableUtilityETH[user] += amount */\n      tag_420\n      jump\t// in\n    tag_647:\n      swap3\n      pop\n      pop\n      dup2\n      swap1\n      sstore\n      pop\n        /* \"FlattenedPool.sol\":32829:32835  amount */\n      dup2\n        /* \"FlattenedPool.sol\":32810:32825  totalUtilityETH */\n      0x16\n      0x00\n        /* \"FlattenedPool.sol\":32810:32835  totalUtilityETH -= amount */\n      dup3\n      dup3\n      sload\n      tag_648\n      swap2\n      swap1\n      tag_529\n      jump\t// in\n    tag_648:\n      swap1\n      swap2\n      sstore\n      pop\n      pop\n      pop\n      pop\n      pop\n        /* \"FlattenedPool.sol\":32568:32842  function assignUtilityETH(address user, uint256 amount) external onlyRole(ADMIN_ROLE) {... */\n      jump\t// out\n        /* \"FlattenedPool.sol\":28683:30781  function batchWithdraw(uint256[] calldata depositIndices) external nonReentrant whenWithdrawalsNotPaused {... */\n    tag_236:\n        /* \"FlattenedPool.sol\":18919:18940  _nonReentrantBefore() */\n      tag_650\n        /* \"FlattenedPool.sol\":18919:18938  _nonReentrantBefore */\n      tag_412\n        /* \"FlattenedPool.sol\":18919:18940  _nonReentrantBefore() */\n      jump\t// in\n    tag_650:\n        /* \"FlattenedPool.sol\":23602:23619  pausedWithdrawals */\n      sload(0x05)\n      0x0100\n      swap1\n      div\n      0xff\n      and\n        /* \"FlattenedPool.sol\":23601:23619  !pausedWithdrawals */\n      iszero\n        /* \"FlattenedPool.sol\":23593:23642  require(!pausedWithdrawals, \"Withdrawals paused\") */\n      tag_652\n      jumpi\n      mload(0x40)\n      shl(0xe5, 0x461bcd)\n      dup2\n      mstore\n        /* \"#utility.yul\":12614:12616   */\n      0x20\n        /* \"FlattenedPool.sol\":23593:23642  require(!pausedWithdrawals, \"Withdrawals paused\") */\n      0x04\n      dup3\n      add\n        /* \"#utility.yul\":12596:12617   */\n      mstore\n        /* \"#utility.yul\":12653:12655   */\n      0x12\n        /* \"#utility.yul\":12633:12651   */\n      0x24\n      dup3\n      add\n        /* \"#utility.yul\":12626:12656   */\n      mstore\n        /* \"#utility.yul\":12692:12712   */\n      0x5769746864726177616c73207061757365640000000000000000000000000000\n        /* \"#utility.yul\":12672:12690   */\n      0x44\n      dup3\n      add\n        /* \"#utility.yul\":12665:12713   */\n      mstore\n        /* \"#utility.yul\":12730:12748   */\n      0x64\n      add\n        /* \"FlattenedPool.sol\":23593:23642  require(!pausedWithdrawals, \"Withdrawals paused\") */\n      tag_415\n        /* \"#utility.yul\":12412:12754   */\n      jump\n        /* \"FlattenedPool.sol\":23593:23642  require(!pausedWithdrawals, \"Withdrawals paused\") */\n    tag_652:\n        /* \"FlattenedPool.sol\":28798:28823  uint256 totalPrincipalETH */\n      0x00\n        /* \"FlattenedPool.sol\":28833:28854  uint256 totalYieldETH */\n      dup1\n        /* \"FlattenedPool.sol\":28864:28890  uint256 totalPrincipalUSDC */\n      0x00\n        /* \"FlattenedPool.sol\":28900:28922  uint256 totalYieldUSDC */\n      dup1\n        /* \"FlattenedPool.sol\":28937:28946  uint256 i */\n      0x00\n        /* \"FlattenedPool.sol\":28932:30161  for (uint256 i = 0; i < depositIndices.length; i++) {... */\n    tag_655:\n        /* \"FlattenedPool.sol\":28952:28977  i < depositIndices.length */\n      dup6\n      dup2\n      lt\n        /* \"FlattenedPool.sol\":28932:30161  for (uint256 i = 0; i < depositIndices.length; i++) {... */\n      iszero\n      tag_656\n      jumpi\n        /* \"FlattenedPool.sol\":29037:29047  msg.sender */\n      caller\n        /* \"FlattenedPool.sol\":28998:29021  DepositInfo storage dep */\n      0x00\n        /* \"FlattenedPool.sol\":29024:29048  userDeposits[msg.sender] */\n      swap1\n      dup2\n      mstore\n        /* \"FlattenedPool.sol\":29024:29036  userDeposits */\n      0x08\n        /* \"FlattenedPool.sol\":29024:29048  userDeposits[msg.sender] */\n      0x20\n      mstore\n      0x40\n      dup2\n      keccak256\n        /* \"FlattenedPool.sol\":29049:29063  depositIndices */\n      dup9\n      dup9\n        /* \"FlattenedPool.sol\":29064:29065  i */\n      dup5\n        /* \"FlattenedPool.sol\":29049:29066  depositIndices[i] */\n      dup2\n      dup2\n      lt\n      tag_659\n      jumpi\n      tag_659\n      tag_444\n      jump\t// in\n    tag_659:\n      swap1\n      pop\n      0x20\n      mul\n      add\n      calldataload\n        /* \"FlattenedPool.sol\":29024:29067  userDeposits[msg.sender][depositIndices[i]] */\n      dup2\n      sload\n      dup2\n      lt\n      tag_661\n      jumpi\n      tag_661\n      tag_444\n      jump\t// in\n    tag_661:\n      0x00\n      swap2\n      dup3\n      mstore\n      0x20\n      swap1\n      swap2\n      keccak256\n      0x06\n      swap1\n      swap2\n      mul\n      add\n        /* \"FlattenedPool.sol\":29090:29103  dep.withdrawn */\n      0x03\n      dup2\n      add\n      sload\n        /* \"FlattenedPool.sol\":29024:29067  userDeposits[msg.sender][depositIndices[i]] */\n      swap1\n      swap2\n      pop\n        /* \"FlattenedPool.sol\":29090:29103  dep.withdrawn */\n      0xff\n      and\n        /* \"FlattenedPool.sol\":29089:29103  !dep.withdrawn */\n      iszero\n        /* \"FlattenedPool.sol\":29081:29125  require(!dep.withdrawn, \"Already withdrawn\") */\n      tag_663\n      jumpi\n      mload(0x40)\n      shl(0xe5, 0x461bcd)\n      dup2\n      mstore\n        /* \"#utility.yul\":13093:13095   */\n      0x20\n        /* \"FlattenedPool.sol\":29081:29125  require(!dep.withdrawn, \"Already withdrawn\") */\n      0x04\n      dup3\n      add\n        /* \"#utility.yul\":13075:13096   */\n      mstore\n        /* \"#utility.yul\":13132:13134   */\n      0x11\n        /* \"#utility.yul\":13112:13130   */\n      0x24\n      dup3\n      add\n        /* \"#utility.yul\":13105:13135   */\n      mstore\n        /* \"#utility.yul\":13171:13190   */\n      0x416c72656164792077697468647261776e000000000000000000000000000000\n        /* \"#utility.yul\":13151:13169   */\n      0x44\n      dup3\n      add\n        /* \"#utility.yul\":13144:13191   */\n      mstore\n        /* \"#utility.yul\":13208:13226   */\n      0x64\n      add\n        /* \"FlattenedPool.sol\":29081:29125  require(!dep.withdrawn, \"Already withdrawn\") */\n      tag_415\n        /* \"#utility.yul\":12891:13232   */\n      jump\n        /* \"FlattenedPool.sol\":29081:29125  require(!dep.withdrawn, \"Already withdrawn\") */\n    tag_663:\n        /* \"FlattenedPool.sol\":29199:29211  lockupPeriod */\n      sload(0x02)\n        /* \"FlattenedPool.sol\":29183:29186  dep */\n      dup2\n        /* \"FlattenedPool.sol\":29183:29196  dep.timestamp */\n      0x02\n      add\n      sload\n        /* \"FlattenedPool.sol\":29183:29211  dep.timestamp + lockupPeriod */\n      tag_665\n      swap2\n      swap1\n      tag_420\n      jump\t// in\n    tag_665:\n        /* \"FlattenedPool.sol\":29164:29179  block.timestamp */\n      timestamp\n        /* \"FlattenedPool.sol\":29164:29211  block.timestamp >= dep.timestamp + lockupPeriod */\n      lt\n      iszero\n        /* \"FlattenedPool.sol\":29164:29250  block.timestamp >= dep.timestamp + lockupPeriod ||... */\n      dup1\n      tag_666\n      jumpi\n      pop\n        /* \"FlattenedPool.sol\":29231:29250  dep.unlockedByAdmin */\n      0x03\n      dup2\n      add\n      sload\n      0x0100\n      swap1\n      div\n      0xff\n      and\n        /* \"FlattenedPool.sol\":29164:29250  block.timestamp >= dep.timestamp + lockupPeriod ||... */\n    tag_666:\n        /* \"FlattenedPool.sol\":29164:29319  block.timestamp >= dep.timestamp + lockupPeriod ||... */\n      dup1\n      tag_668\n      jumpi\n      pop\n        /* \"FlattenedPool.sol\":29271:29295  globalLiquidationEnabled */\n      sload(0x05)\n      0x01000000\n      swap1\n      div\n      0xff\n      and\n        /* \"FlattenedPool.sol\":29271:29318  globalLiquidationEnabled && dep.fullyRedeemable */\n      dup1\n      iszero\n      tag_668\n      jumpi\n      pop\n        /* \"FlattenedPool.sol\":29299:29318  dep.fullyRedeemable */\n      0x03\n      dup2\n      add\n      sload\n      0x010000\n      swap1\n      div\n      0xff\n      and\n        /* \"FlattenedPool.sol\":29271:29318  globalLiquidationEnabled && dep.fullyRedeemable */\n    tag_668:\n        /* \"FlattenedPool.sol\":29139:29367  require(... */\n      tag_669\n      jumpi\n      mload(0x40)\n      shl(0xe5, 0x461bcd)\n      dup2\n      mstore\n        /* \"#utility.yul\":13439:13441   */\n      0x20\n        /* \"FlattenedPool.sol\":29139:29367  require(... */\n      0x04\n      dup3\n      add\n        /* \"#utility.yul\":13421:13442   */\n      mstore\n        /* \"#utility.yul\":13478:13480   */\n      0x0e\n        /* \"#utility.yul\":13458:13476   */\n      0x24\n      dup3\n      add\n        /* \"#utility.yul\":13451:13481   */\n      mstore\n      shl(0x92, 0x11195c1bdcda5d081b1bd8dad959)\n        /* \"#utility.yul\":13497:13515   */\n      0x44\n      dup3\n      add\n        /* \"#utility.yul\":13490:13534   */\n      mstore\n        /* \"#utility.yul\":13551:13569   */\n      0x64\n      add\n        /* \"FlattenedPool.sol\":29139:29367  require(... */\n      tag_415\n        /* \"#utility.yul\":13237:13575   */\n      jump\n        /* \"FlattenedPool.sol\":29139:29367  require(... */\n    tag_669:\n        /* \"FlattenedPool.sol\":29381:29394  dep.withdrawn */\n      0x03\n      dup2\n      add\n        /* \"FlattenedPool.sol\":29381:29401  dep.withdrawn = true */\n      dup1\n      sload\n      not(0xff)\n      and\n        /* \"FlattenedPool.sol\":29397:29401  true */\n      0x01\n        /* \"FlattenedPool.sol\":29381:29401  dep.withdrawn = true */\n      or\n      swap1\n      sstore\n        /* \"FlattenedPool.sol\":29433:29448  block.timestamp */\n      timestamp\n        /* \"FlattenedPool.sol\":29415:29430  dep.withdrawnAt */\n      0x04\n      dup3\n      add\n        /* \"FlattenedPool.sol\":29415:29448  dep.withdrawnAt = block.timestamp */\n      sstore\n        /* \"FlattenedPool.sol\":29478:29495  dep.yieldReceived */\n      0x05\n      dup2\n      add\n      sload\n        /* \"FlattenedPool.sol\":29381:29394  dep.withdrawn */\n      0x00\n        /* \"FlattenedPool.sol\":29513:29522  dep.token */\n      dup3\n      sload\n      0xff\n      and\n      0x01\n        /* \"FlattenedPool.sol\":29513:29539  dep.token == TokenType.ETH */\n      dup2\n      gt\n      iszero\n      tag_674\n      jumpi\n      tag_674\n      tag_432\n      jump\t// in\n    tag_674:\n      sub\n        /* \"FlattenedPool.sol\":29509:29889  if (dep.token == TokenType.ETH) {... */\n      tag_675\n      jumpi\n        /* \"FlattenedPool.sol\":29580:29583  dep */\n      dup2\n        /* \"FlattenedPool.sol\":29580:29590  dep.amount */\n      0x01\n      add\n      sload\n        /* \"FlattenedPool.sol\":29559:29576  totalWithdrawnETH */\n      0x14\n      0x00\n        /* \"FlattenedPool.sol\":29559:29590  totalWithdrawnETH += dep.amount */\n      dup3\n      dup3\n      sload\n      tag_676\n      swap2\n      swap1\n      tag_420\n      jump\t// in\n    tag_676:\n      swap1\n      swap2\n      sstore\n      pop\n      pop\n        /* \"FlattenedPool.sol\":29629:29639  dep.amount */\n      0x01\n      dup3\n      add\n      sload\n        /* \"FlattenedPool.sol\":29608:29639  totalPrincipalETH += dep.amount */\n      tag_677\n      swap1\n      dup9\n      tag_420\n      jump\t// in\n    tag_677:\n      swap7\n      pop\n        /* \"FlattenedPool.sol\":29657:29679  totalYieldETH += yield */\n      tag_678\n        /* \"FlattenedPool.sol\":29674:29679  yield */\n      dup2\n        /* \"FlattenedPool.sol\":29657:29679  totalYieldETH += yield */\n      dup8\n      tag_420\n      jump\t// in\n    tag_678:\n      swap6\n      pop\n        /* \"FlattenedPool.sol\":29509:29889  if (dep.token == TokenType.ETH) {... */\n      jump(tag_684)\n    tag_675:\n        /* \"FlattenedPool.sol\":29717:29731  TokenType.USDC */\n      0x01\n        /* \"FlattenedPool.sol\":29704:29713  dep.token */\n      dup3\n      sload\n      0xff\n      and\n      0x01\n        /* \"FlattenedPool.sol\":29704:29731  dep.token == TokenType.USDC */\n      dup2\n      gt\n      iszero\n      tag_683\n      jumpi\n      tag_683\n      tag_432\n      jump\t// in\n    tag_683:\n      sub\n        /* \"FlattenedPool.sol\":29700:29889  if (dep.token == TokenType.USDC) {... */\n      tag_684\n      jumpi\n        /* \"FlattenedPool.sol\":29773:29776  dep */\n      dup2\n        /* \"FlattenedPool.sol\":29773:29783  dep.amount */\n      0x01\n      add\n      sload\n        /* \"FlattenedPool.sol\":29751:29769  totalWithdrawnUSDC */\n      0x15\n      0x00\n        /* \"FlattenedPool.sol\":29751:29783  totalWithdrawnUSDC += dep.amount */\n      dup3\n      dup3\n      sload\n      tag_685\n      swap2\n      swap1\n      tag_420\n      jump\t// in\n    tag_685:\n      swap1\n      swap2\n      sstore\n      pop\n      pop\n        /* \"FlattenedPool.sol\":29823:29833  dep.amount */\n      0x01\n      dup3\n      add\n      sload\n        /* \"FlattenedPool.sol\":29801:29833  totalPrincipalUSDC += dep.amount */\n      tag_686\n      swap1\n      dup7\n      tag_420\n      jump\t// in\n    tag_686:\n      swap5\n      pop\n        /* \"FlattenedPool.sol\":29851:29874  totalYieldUSDC += yield */\n      tag_687\n        /* \"FlattenedPool.sol\":29869:29874  yield */\n      dup2\n        /* \"FlattenedPool.sol\":29851:29874  totalYieldUSDC += yield */\n      dup6\n      tag_420\n      jump\t// in\n    tag_687:\n      swap4\n      pop\n        /* \"FlattenedPool.sol\":29700:29889  if (dep.token == TokenType.USDC) {... */\n    tag_684:\n        /* \"FlattenedPool.sol\":29920:29930  msg.sender */\n      caller\n        /* \"FlattenedPool.sol\":29907:29931  hasWithdrawn[msg.sender] */\n      0x00\n      swap1\n      dup2\n      mstore\n        /* \"FlattenedPool.sol\":29907:29919  hasWithdrawn */\n      0x0a\n        /* \"FlattenedPool.sol\":29907:29931  hasWithdrawn[msg.sender] */\n      0x20\n      mstore\n      0x40\n      swap1\n      keccak256\n      sload\n      0xff\n      and\n        /* \"FlattenedPool.sol\":29902:30046  if (!hasWithdrawn[msg.sender]) {... */\n      tag_688\n      jumpi\n        /* \"FlattenedPool.sol\":29951:29965  withdrawnUsers */\n      0x10\n        /* \"FlattenedPool.sol\":29951:29982  withdrawnUsers.push(msg.sender) */\n      dup1\n      sload\n      0x01\n      dup2\n      dup2\n      add\n      swap1\n      swap3\n      sstore\n      0x1b6847dc741a1b0cd08d278845f9d819d87b734759afb55fe2de5cb82a9ae672\n      add\n      dup1\n      sload\n      not(sub(shl(0xa0, 0x01), 0x01))\n      and\n        /* \"FlattenedPool.sol\":29971:29981  msg.sender */\n      caller\n        /* \"FlattenedPool.sol\":29951:29982  withdrawnUsers.push(msg.sender) */\n      swap1\n      dup2\n      or\n      swap1\n      swap2\n      sstore\n      0x00\n        /* \"FlattenedPool.sol\":30000:30024  hasWithdrawn[msg.sender] */\n      swap1\n      dup2\n      mstore\n        /* \"FlattenedPool.sol\":30000:30012  hasWithdrawn */\n      0x0a\n        /* \"FlattenedPool.sol\":29951:29982  withdrawnUsers.push(msg.sender) */\n      0x20\n        /* \"FlattenedPool.sol\":30000:30024  hasWithdrawn[msg.sender] */\n      mstore\n      0x40\n      swap1\n      keccak256\n        /* \"FlattenedPool.sol\":30000:30031  hasWithdrawn[msg.sender] = true */\n      dup1\n      sload\n      not(0xff)\n      and\n      swap1\n      swap2\n      or\n      swap1\n      sstore\n        /* \"FlattenedPool.sol\":29902:30046  if (!hasWithdrawn[msg.sender]) {... */\n    tag_688:\n        /* \"FlattenedPool.sol\":30085:30094  dep.token */\n      dup2\n      sload\n      0x01\n        /* \"FlattenedPool.sol\":30096:30106  dep.amount */\n      dup4\n      add\n      sload\n        /* \"FlattenedPool.sol\":30073:30083  msg.sender */\n      caller\n      swap2\n        /* \"FlattenedPool.sol\":30064:30150  Withdraw(msg.sender, dep.token, dep.amount, yield, block.timestamp, depositIndices[i]) */\n      0xcb034b37ef3764745c35bafecd525367bcf312e9010239e6aeebbe6bcf57727f\n      swap2\n        /* \"FlattenedPool.sol\":30085:30094  dep.token */\n      0xff\n      swap1\n      swap2\n      and\n      swap1\n        /* \"FlattenedPool.sol\":30108:30113  yield */\n      dup5\n        /* \"FlattenedPool.sol\":30115:30130  block.timestamp */\n      timestamp\n        /* \"FlattenedPool.sol\":30132:30146  depositIndices */\n      dup15\n      dup15\n        /* \"FlattenedPool.sol\":30147:30148  i */\n      dup11\n        /* \"FlattenedPool.sol\":30132:30149  depositIndices[i] */\n      dup2\n      dup2\n      lt\n      tag_691\n      jumpi\n      tag_691\n      tag_444\n      jump\t// in\n    tag_691:\n      swap1\n      pop\n      0x20\n      mul\n      add\n      calldataload\n        /* \"FlattenedPool.sol\":30064:30150  Withdraw(msg.sender, dep.token, dep.amount, yield, block.timestamp, depositIndices[i]) */\n      mload(0x40)\n      tag_692\n      swap6\n      swap5\n      swap4\n      swap3\n      swap2\n      swap1\n      tag_488\n      jump\t// in\n    tag_692:\n      mload(0x40)\n      dup1\n      swap2\n      sub\n      swap1\n      log2\n      pop\n      pop\n        /* \"FlattenedPool.sol\":28979:28982  i++ */\n      0x01\n      add\n        /* \"FlattenedPool.sol\":28932:30161  for (uint256 i = 0; i < depositIndices.length; i++) {... */\n      jump(tag_655)\n    tag_656:\n      pop\n        /* \"FlattenedPool.sol\":30210:30211  0 */\n      0x00\n        /* \"FlattenedPool.sol\":30174:30207  totalPrincipalETH + totalYieldETH */\n      tag_693\n        /* \"FlattenedPool.sol\":30194:30207  totalYieldETH */\n      dup5\n        /* \"FlattenedPool.sol\":30174:30191  totalPrincipalETH */\n      dup7\n        /* \"FlattenedPool.sol\":30174:30207  totalPrincipalETH + totalYieldETH */\n      tag_420\n      jump\t// in\n    tag_693:\n        /* \"FlattenedPool.sol\":30174:30211  totalPrincipalETH + totalYieldETH > 0 */\n      gt\n        /* \"FlattenedPool.sol\":30170:30497  if (totalPrincipalETH + totalYieldETH > 0) {... */\n      iszero\n      tag_694\n      jumpi\n        /* \"FlattenedPool.sol\":30228:30240  bool success */\n      0x00\n        /* \"FlattenedPool.sol\":30246:30256  msg.sender */\n      caller\n        /* \"FlattenedPool.sol\":30269:30302  totalPrincipalETH + totalYieldETH */\n      tag_695\n        /* \"FlattenedPool.sol\":30289:30302  totalYieldETH */\n      dup6\n        /* \"FlattenedPool.sol\":30269:30286  totalPrincipalETH */\n      dup8\n        /* \"FlattenedPool.sol\":30269:30302  totalPrincipalETH + totalYieldETH */\n      tag_420\n      jump\t// in\n    tag_695:\n        /* \"FlattenedPool.sol\":30246:30307  msg.sender.call{value: totalPrincipalETH + totalYieldETH}(\"\") */\n      mload(0x40)\n      0x00\n      dup2\n      dup2\n      dup2\n      dup6\n      dup8\n      gas\n      call\n      swap3\n      pop\n      pop\n      pop\n      returndatasize\n      dup1\n      0x00\n      dup2\n      eq\n      tag_699\n      jumpi\n      mload(0x40)\n      swap2\n      pop\n      and(add(returndatasize, 0x3f), not(0x1f))\n      dup3\n      add\n      0x40\n      mstore\n      returndatasize\n      dup3\n      mstore\n      returndatasize\n      0x00\n      0x20\n      dup5\n      add\n      returndatacopy\n      jump(tag_698)\n    tag_699:\n      0x60\n      swap2\n      pop\n    tag_698:\n      pop\n        /* \"FlattenedPool.sol\":30227:30307  (bool success, ) = msg.sender.call{value: totalPrincipalETH + totalYieldETH}(\"\") */\n      pop\n      swap1\n      pop\n        /* \"FlattenedPool.sol\":30329:30336  success */\n      dup1\n        /* \"FlattenedPool.sol\":30321:30360  require(success, \"ETH transfer failed\") */\n      tag_700\n      jumpi\n      mload(0x40)\n      shl(0xe5, 0x461bcd)\n      dup2\n      mstore\n        /* \"#utility.yul\":13992:13994   */\n      0x20\n        /* \"FlattenedPool.sol\":30321:30360  require(success, \"ETH transfer failed\") */\n      0x04\n      dup3\n      add\n        /* \"#utility.yul\":13974:13995   */\n      mstore\n        /* \"#utility.yul\":14031:14033   */\n      0x13\n        /* \"#utility.yul\":14011:14029   */\n      0x24\n      dup3\n      add\n        /* \"#utility.yul\":14004:14034   */\n      mstore\n      shl(0x6a, 0x115512081d1c985b9cd9995c8819985a5b1959)\n        /* \"#utility.yul\":14050:14068   */\n      0x44\n      dup3\n      add\n        /* \"#utility.yul\":14043:14092   */\n      mstore\n        /* \"#utility.yul\":14109:14127   */\n      0x64\n      add\n        /* \"FlattenedPool.sol\":30321:30360  require(success, \"ETH transfer failed\") */\n      tag_415\n        /* \"#utility.yul\":13790:14133   */\n      jump\n        /* \"FlattenedPool.sol\":30321:30360  require(success, \"ETH transfer failed\") */\n    tag_700:\n        /* \"FlattenedPool.sol\":30393:30403  msg.sender */\n      caller\n      sub(shl(0xa0, 0x01), 0x01)\n        /* \"FlattenedPool.sol\":30379:30486  BatchWithdraw(msg.sender, TokenType.ETH, depositIndices, totalPrincipalETH, totalYieldETH, block.timestamp) */\n      and\n      0xbf06e98fe211a4b82f625232ab1c7a75caea5e0d624bc267578d6f22fce788c3\n        /* \"FlattenedPool.sol\":30405:30418  TokenType.ETH */\n      0x00\n        /* \"FlattenedPool.sol\":30420:30434  depositIndices */\n      dup10\n      dup10\n        /* \"FlattenedPool.sol\":30436:30453  totalPrincipalETH */\n      dup10\n        /* \"FlattenedPool.sol\":30455:30468  totalYieldETH */\n      dup10\n        /* \"FlattenedPool.sol\":30470:30485  block.timestamp */\n      timestamp\n        /* \"FlattenedPool.sol\":30379:30486  BatchWithdraw(msg.sender, TokenType.ETH, depositIndices, totalPrincipalETH, totalYieldETH, block.timestamp) */\n      mload(0x40)\n      tag_702\n      swap7\n      swap6\n      swap5\n      swap4\n      swap3\n      swap2\n      swap1\n      tag_703\n      jump\t// in\n    tag_702:\n      mload(0x40)\n      dup1\n      swap2\n      sub\n      swap1\n      log2\n        /* \"FlattenedPool.sol\":30213:30497  {... */\n      pop\n        /* \"FlattenedPool.sol\":30170:30497  if (totalPrincipalETH + totalYieldETH > 0) {... */\n    tag_694:\n        /* \"FlattenedPool.sol\":30548:30549  0 */\n      0x00\n        /* \"FlattenedPool.sol\":30510:30545  totalPrincipalUSDC + totalYieldUSDC */\n      tag_704\n        /* \"FlattenedPool.sol\":30531:30545  totalYieldUSDC */\n      dup3\n        /* \"FlattenedPool.sol\":30510:30528  totalPrincipalUSDC */\n      dup5\n        /* \"FlattenedPool.sol\":30510:30545  totalPrincipalUSDC + totalYieldUSDC */\n      tag_420\n      jump\t// in\n    tag_704:\n        /* \"FlattenedPool.sol\":30510:30549  totalPrincipalUSDC + totalYieldUSDC > 0 */\n      gt\n        /* \"FlattenedPool.sol\":30506:30775  if (totalPrincipalUSDC + totalYieldUSDC > 0) {... */\n      iszero\n      tag_705\n      jumpi\n        /* \"FlattenedPool.sol\":20218:20260  0x833589fCD6eDb6E08f4c7C32D4f71b54bdA02913 */\n      0x833589fcd6edb6e08f4c7c32d4f71b54bda02913\n        /* \"FlattenedPool.sol\":30565:30586  IERC20(USDC).transfer */\n      0xa9059cbb\n        /* \"FlattenedPool.sol\":30587:30597  msg.sender */\n      caller\n        /* \"FlattenedPool.sol\":30599:30634  totalPrincipalUSDC + totalYieldUSDC */\n      tag_706\n        /* \"FlattenedPool.sol\":30620:30634  totalYieldUSDC */\n      dup5\n        /* \"FlattenedPool.sol\":30599:30617  totalPrincipalUSDC */\n      dup7\n        /* \"FlattenedPool.sol\":30599:30634  totalPrincipalUSDC + totalYieldUSDC */\n      tag_420\n      jump\t// in\n    tag_706:\n        /* \"FlattenedPool.sol\":30565:30635  IERC20(USDC).transfer(msg.sender, totalPrincipalUSDC + totalYieldUSDC) */\n      mload(0x40)\n      not(sub(shl(0xe0, 0x01), 0x01))\n      0xe0\n      dup6\n      swap1\n      shl\n      and\n      dup2\n      mstore\n      sub(shl(0xa0, 0x01), 0x01)\n        /* \"#utility.yul\":14330:14385   */\n      swap1\n      swap3\n      and\n        /* \"FlattenedPool.sol\":30565:30635  IERC20(USDC).transfer(msg.sender, totalPrincipalUSDC + totalYieldUSDC) */\n      0x04\n      dup4\n      add\n        /* \"#utility.yul\":14312:14386   */\n      mstore\n        /* \"#utility.yul\":14402:14420   */\n      0x24\n      dup3\n      add\n        /* \"#utility.yul\":14395:14429   */\n      mstore\n        /* \"#utility.yul\":14285:14303   */\n      0x44\n      add\n        /* \"FlattenedPool.sol\":30565:30635  IERC20(USDC).transfer(msg.sender, totalPrincipalUSDC + totalYieldUSDC) */\n      0x20\n      mload(0x40)\n      dup1\n      dup4\n      sub\n      dup2\n      0x00\n      dup8\n      gas\n      call\n      iszero\n      dup1\n      iszero\n      tag_709\n      jumpi\n      returndatasize\n      0x00\n      dup1\n      returndatacopy\n      revert(0x00, returndatasize)\n    tag_709:\n      pop\n      pop\n      pop\n      pop\n      mload(0x40)\n      returndatasize\n      not(0x1f)\n      0x1f\n      dup3\n      add\n      and\n      dup3\n      add\n      dup1\n      0x40\n      mstore\n      pop\n      dup2\n      add\n      swap1\n      tag_710\n      swap2\n      swap1\n      tag_484\n      jump\t// in\n    tag_710:\n      pop\n        /* \"FlattenedPool.sol\":30668:30678  msg.sender */\n      caller\n      sub(shl(0xa0, 0x01), 0x01)\n        /* \"FlattenedPool.sol\":30654:30764  BatchWithdraw(msg.sender, TokenType.USDC, depositIndices, totalPrincipalUSDC, totalYieldUSDC, block.timestamp) */\n      and\n      0xbf06e98fe211a4b82f625232ab1c7a75caea5e0d624bc267578d6f22fce788c3\n        /* \"FlattenedPool.sol\":30680:30694  TokenType.USDC */\n      0x01\n        /* \"FlattenedPool.sol\":30696:30710  depositIndices */\n      dup9\n      dup9\n        /* \"FlattenedPool.sol\":30712:30730  totalPrincipalUSDC */\n      dup7\n        /* \"FlattenedPool.sol\":30732:30746  totalYieldUSDC */\n      dup7\n        /* \"FlattenedPool.sol\":30748:30763  block.timestamp */\n      timestamp\n        /* \"FlattenedPool.sol\":30654:30764  BatchWithdraw(msg.sender, TokenType.USDC, depositIndices, totalPrincipalUSDC, totalYieldUSDC, block.timestamp) */\n      mload(0x40)\n      tag_711\n      swap7\n      swap6\n      swap5\n      swap4\n      swap3\n      swap2\n      swap1\n      tag_703\n      jump\t// in\n    tag_711:\n      mload(0x40)\n      dup1\n      swap2\n      sub\n      swap1\n      log2\n        /* \"FlattenedPool.sol\":30506:30775  if (totalPrincipalUSDC + totalYieldUSDC > 0) {... */\n    tag_705:\n        /* \"FlattenedPool.sol\":28788:30781  {... */\n      pop\n      pop\n      pop\n      pop\n        /* \"FlattenedPool.sol\":18961:18981  _nonReentrantAfter() */\n      tag_712\n        /* \"FlattenedPool.sol\":18276:18277  1 */\n      0x01\n        /* \"FlattenedPool.sol\":19487:19508  _status = NOT_ENTERED */\n      dup1\n      sstore\n        /* \"FlattenedPool.sol\":19307:19515  function _nonReentrantAfter() private {... */\n      jump\n        /* \"FlattenedPool.sol\":18961:18981  _nonReentrantAfter() */\n    tag_712:\n        /* \"FlattenedPool.sol\":28683:30781  function batchWithdraw(uint256[] calldata depositIndices) external nonReentrant whenWithdrawalsNotPaused {... */\n      pop\n      pop\n      jump\t// out\n        /* \"FlattenedPool.sol\":32847:33125  function assignUtilityUSDC(address user, uint256 amount) external onlyRole(ADMIN_ROLE) {... */\n    tag_244:\n      0x00\n      dup1\n      mload\n      0x20\n      data_cb864c43dd5d441bb6271f424f11befa622c032dfd374d226e26fbbdb782b8f8\n      dup4\n      codecopy\n      dup2\n      mload\n      swap2\n      mstore\n        /* \"FlattenedPool.sol\":8882:8898  _checkRole(role) */\n      tag_714\n        /* \"FlattenedPool.sol\":8893:8897  role */\n      dup2\n        /* \"FlattenedPool.sol\":8882:8892  _checkRole */\n      tag_405\n        /* \"FlattenedPool.sol\":8882:8898  _checkRole(role) */\n      jump\t// in\n    tag_714:\n        /* \"FlattenedPool.sol\":32961:32962  0 */\n      0x00\n        /* \"FlattenedPool.sol\":32952:32958  amount */\n      dup3\n        /* \"FlattenedPool.sol\":32952:32962  amount > 0 */\n      gt\n        /* \"FlattenedPool.sol\":32944:32971  require(amount > 0, \"Zero\") */\n      tag_716\n      jumpi\n      mload(0x40)\n      shl(0xe5, 0x461bcd)\n      dup2\n      mstore\n      0x04\n      add\n      tag_415\n      swap1\n        /* \"#utility.yul\":15726:15728   */\n      0x20\n        /* \"#utility.yul\":15708:15729   */\n      dup1\n      dup3\n      mstore\n        /* \"#utility.yul\":15765:15766   */\n      0x04\n        /* \"#utility.yul\":15745:15763   */\n      swap1\n      dup3\n      add\n        /* \"#utility.yul\":15738:15767   */\n      mstore\n      shl(0xe0, 0x5a65726f)\n        /* \"#utility.yul\":15798:15800   */\n      0x40\n        /* \"#utility.yul\":15783:15801   */\n      dup3\n      add\n        /* \"#utility.yul\":15776:15810   */\n      mstore\n        /* \"#utility.yul\":15842:15844   */\n      0x60\n        /* \"#utility.yul\":15827:15845   */\n      add\n      swap1\n        /* \"#utility.yul\":15524:15851   */\n      jump\n        /* \"FlattenedPool.sol\":32944:32971  require(amount > 0, \"Zero\") */\n    tag_716:\n        /* \"FlattenedPool.sol\":32999:33015  totalUtilityUSDC */\n      sload(0x17)\n        /* \"FlattenedPool.sol\":32989:32995  amount */\n      dup3\n        /* \"FlattenedPool.sol\":32989:33015  amount <= totalUtilityUSDC */\n      gt\n      iszero\n        /* \"FlattenedPool.sol\":32981:33032  require(amount <= totalUtilityUSDC, \"Exceeds pool\") */\n      tag_718\n      jumpi\n      mload(0x40)\n      shl(0xe5, 0x461bcd)\n      dup2\n      mstore\n        /* \"#utility.yul\":16058:16060   */\n      0x20\n        /* \"FlattenedPool.sol\":32981:33032  require(amount <= totalUtilityUSDC, \"Exceeds pool\") */\n      0x04\n      dup3\n      add\n        /* \"#utility.yul\":16040:16061   */\n      mstore\n        /* \"#utility.yul\":16097:16099   */\n      0x0c\n        /* \"#utility.yul\":16077:16095   */\n      0x24\n      dup3\n      add\n        /* \"#utility.yul\":16070:16100   */\n      mstore\n      shl(0xa2, 0x115e18d959591cc81c1bdbdb)\n        /* \"#utility.yul\":16116:16134   */\n      0x44\n      dup3\n      add\n        /* \"#utility.yul\":16109:16151   */\n      mstore\n        /* \"#utility.yul\":16168:16186   */\n      0x64\n      add\n        /* \"FlattenedPool.sol\":32981:33032  require(amount <= totalUtilityUSDC, \"Exceeds pool\") */\n      tag_415\n        /* \"#utility.yul\":15856:16192   */\n      jump\n        /* \"FlattenedPool.sol\":32981:33032  require(amount <= totalUtilityUSDC, \"Exceeds pool\") */\n    tag_718:\n      sub(shl(0xa0, 0x01), 0x01)\n        /* \"FlattenedPool.sol\":33042:33072  userClaimableUtilityUSDC[user] */\n      dup4\n      and\n      0x00\n      swap1\n      dup2\n      mstore\n        /* \"FlattenedPool.sol\":33042:33066  userClaimableUtilityUSDC */\n      0x0c\n        /* \"FlattenedPool.sol\":33042:33072  userClaimableUtilityUSDC[user] */\n      0x20\n      mstore\n      0x40\n      dup2\n      keccak256\n        /* \"FlattenedPool.sol\":33042:33082  userClaimableUtilityUSDC[user] += amount */\n      dup1\n      sload\n        /* \"FlattenedPool.sol\":33076:33082  amount */\n      dup5\n      swap3\n        /* \"FlattenedPool.sol\":33042:33072  userClaimableUtilityUSDC[user] */\n      swap1\n        /* \"FlattenedPool.sol\":33042:33082  userClaimableUtilityUSDC[user] += amount */\n      tag_720\n      swap1\n        /* \"FlattenedPool.sol\":33076:33082  amount */\n      dup5\n      swap1\n        /* \"FlattenedPool.sol\":33042:33082  userClaimableUtilityUSDC[user] += amount */\n      tag_420\n      jump\t// in\n    tag_720:\n      swap3\n      pop\n      pop\n      dup2\n      swap1\n      sstore\n      pop\n        /* \"FlattenedPool.sol\":33112:33118  amount */\n      dup2\n        /* \"FlattenedPool.sol\":33092:33108  totalUtilityUSDC */\n      0x17\n      0x00\n        /* \"FlattenedPool.sol\":33092:33118  totalUtilityUSDC -= amount */\n      dup3\n      dup3\n      sload\n      tag_648\n      swap2\n      swap1\n      tag_529\n      jump\t// in\n        /* \"FlattenedPool.sol\":36458:36783  function withdrawUtilityUSDC(uint256 amount) external onlyRole(UTILITY_WITHDRAWER_ROLE) nonReentrant {... */\n    tag_248:\n        /* \"FlattenedPool.sol\":21013:21049  keccak256(\"UTILITY_WITHDRAWER_ROLE\") */\n      0x78c90eb9e475048b483a290aee04b5fe48355537c3623c7637b17d3bed71c6ed\n        /* \"FlattenedPool.sol\":8882:8898  _checkRole(role) */\n      tag_723\n        /* \"FlattenedPool.sol\":8893:8897  role */\n      dup2\n        /* \"FlattenedPool.sol\":8882:8892  _checkRole */\n      tag_405\n        /* \"FlattenedPool.sol\":8882:8898  _checkRole(role) */\n      jump\t// in\n    tag_723:\n        /* \"FlattenedPool.sol\":18919:18940  _nonReentrantBefore() */\n      tag_725\n        /* \"FlattenedPool.sol\":18919:18938  _nonReentrantBefore */\n      tag_412\n        /* \"FlattenedPool.sol\":18919:18940  _nonReentrantBefore() */\n      jump\t// in\n    tag_725:\n        /* \"FlattenedPool.sol\":36577:36591  utilityAddress */\n      and(sub(shl(0xa0, 0x01), 0x01), sload(0x07))\n        /* \"FlattenedPool.sol\":36569:36633  require(utilityAddress != address(0), \"Utility address not set\") */\n      tag_727\n      jumpi\n      mload(0x40)\n      shl(0xe5, 0x461bcd)\n      dup2\n      mstore\n        /* \"#utility.yul\":18118:18120   */\n      0x20\n        /* \"FlattenedPool.sol\":36569:36633  require(utilityAddress != address(0), \"Utility address not set\") */\n      0x04\n      dup3\n      add\n        /* \"#utility.yul\":18100:18121   */\n      mstore\n        /* \"#utility.yul\":18157:18159   */\n      0x17\n        /* \"#utility.yul\":18137:18155   */\n      0x24\n      dup3\n      add\n        /* \"#utility.yul\":18130:18160   */\n      mstore\n        /* \"#utility.yul\":18196:18221   */\n      0x5574696c6974792061646472657373206e6f7420736574000000000000000000\n        /* \"#utility.yul\":18176:18194   */\n      0x44\n      dup3\n      add\n        /* \"#utility.yul\":18169:18222   */\n      mstore\n        /* \"#utility.yul\":18239:18257   */\n      0x64\n      add\n        /* \"FlattenedPool.sol\":36569:36633  require(utilityAddress != address(0), \"Utility address not set\") */\n      tag_415\n        /* \"#utility.yul\":17916:18263   */\n      jump\n        /* \"FlattenedPool.sol\":36569:36633  require(utilityAddress != address(0), \"Utility address not set\") */\n    tag_727:\n        /* \"FlattenedPool.sol\":36665:36679  utilityAddress */\n      sload(0x07)\n        /* \"FlattenedPool.sol\":36643:36688  IERC20(USDC).transfer(utilityAddress, amount) */\n      mload(0x40)\n      shl(0xe0, 0xa9059cbb)\n      dup2\n      mstore\n      sub(shl(0xa0, 0x01), 0x01)\n        /* \"FlattenedPool.sol\":36665:36679  utilityAddress */\n      swap1\n      swap2\n      and\n        /* \"FlattenedPool.sol\":36643:36688  IERC20(USDC).transfer(utilityAddress, amount) */\n      0x04\n      dup3\n      add\n        /* \"#utility.yul\":14312:14386   */\n      mstore\n        /* \"#utility.yul\":14402:14420   */\n      0x24\n      dup2\n      add\n        /* \"#utility.yul\":14395:14429   */\n      dup4\n      swap1\n      mstore\n        /* \"FlattenedPool.sol\":20218:20260  0x833589fCD6eDb6E08f4c7C32D4f71b54bdA02913 */\n      0x833589fcd6edb6e08f4c7c32d4f71b54bda02913\n      swap1\n        /* \"FlattenedPool.sol\":36643:36664  IERC20(USDC).transfer */\n      0xa9059cbb\n      swap1\n        /* \"#utility.yul\":14285:14303   */\n      0x44\n      add\n        /* \"FlattenedPool.sol\":36643:36688  IERC20(USDC).transfer(utilityAddress, amount) */\n      0x20\n      mload(0x40)\n      dup1\n      dup4\n      sub\n      dup2\n      0x00\n      dup8\n      gas\n      call\n      iszero\n      dup1\n      iszero\n      tag_732\n      jumpi\n      returndatasize\n      0x00\n      dup1\n      returndatacopy\n      revert(0x00, returndatasize)\n    tag_732:\n      pop\n      pop\n      pop\n      pop\n      mload(0x40)\n      returndatasize\n      not(0x1f)\n      0x1f\n      dup3\n      add\n      and\n      dup3\n      add\n      dup1\n      0x40\n      mstore\n      pop\n      dup2\n      add\n      swap1\n      tag_733\n      swap2\n      swap1\n      tag_484\n      jump\t// in\n    tag_733:\n      pop\n        /* \"FlattenedPool.sol\":36720:36734  utilityAddress */\n      sload(0x07)\n        /* \"FlattenedPool.sol\":36703:36776  UtilityWithdrawn(utilityAddress, TokenType.USDC, amount, block.timestamp) */\n      mload(0x40)\n      sub(shl(0xa0, 0x01), 0x01)\n        /* \"FlattenedPool.sol\":36720:36734  utilityAddress */\n      swap1\n      swap2\n      and\n      swap1\n        /* \"FlattenedPool.sol\":36703:36776  UtilityWithdrawn(utilityAddress, TokenType.USDC, amount, block.timestamp) */\n      0x9adbdc797aca3ce26a722598f00149b2328fd124444e6d0b10c4bdc7cfc38196\n      swap1\n      tag_734\n      swap1\n        /* \"FlattenedPool.sol\":36720:36734  utilityAddress */\n      0x01\n      swap1\n        /* \"FlattenedPool.sol\":36752:36758  amount */\n      dup7\n      swap1\n        /* \"FlattenedPool.sol\":36760:36775  block.timestamp */\n      timestamp\n      swap1\n        /* \"FlattenedPool.sol\":36703:36776  UtilityWithdrawn(utilityAddress, TokenType.USDC, amount, block.timestamp) */\n      tag_423\n      jump\t// in\n    tag_734:\n      mload(0x40)\n      dup1\n      swap2\n      sub\n      swap1\n      log2\n        /* \"FlattenedPool.sol\":18961:18981  _nonReentrantAfter() */\n      tag_712\n        /* \"FlattenedPool.sol\":18276:18277  1 */\n      0x01\n        /* \"FlattenedPool.sol\":19487:19508  _status = NOT_ENTERED */\n      dup1\n      sstore\n        /* \"FlattenedPool.sol\":19307:19515  function _nonReentrantAfter() private {... */\n      jump\n        /* \"FlattenedPool.sol\":30841:31294  function unlockDepositsForUser(address user, uint256[] calldata depositIndices) external onlyRole(UNLOCKER_ROLE) {... */\n    tag_253:\n        /* \"FlattenedPool.sol\":20843:20869  keccak256(\"UNLOCKER_ROLE\") */\n      0xc806897caf4fd5068191157e44d3988e43139a37e0b97b6793e1ed1184140604\n        /* \"FlattenedPool.sol\":8882:8898  _checkRole(role) */\n      tag_737\n        /* \"FlattenedPool.sol\":8893:8897  role */\n      dup2\n        /* \"FlattenedPool.sol\":8882:8892  _checkRole */\n      tag_405\n        /* \"FlattenedPool.sol\":8882:8898  _checkRole(role) */\n      jump\t// in\n    tag_737:\n        /* \"FlattenedPool.sol\":30969:30978  uint256 i */\n      0x00\n        /* \"FlattenedPool.sol\":30964:31235  for (uint256 i = 0; i < depositIndices.length; i++) {... */\n    tag_739:\n        /* \"FlattenedPool.sol\":30984:31009  i < depositIndices.length */\n      dup3\n      dup2\n      lt\n        /* \"FlattenedPool.sol\":30964:31235  for (uint256 i = 0; i < depositIndices.length; i++) {... */\n      iszero\n      tag_740\n      jumpi\n      sub(shl(0xa0, 0x01), 0x01)\n        /* \"FlattenedPool.sol\":31056:31074  userDeposits[user] */\n      dup6\n      and\n        /* \"FlattenedPool.sol\":31030:31053  DepositInfo storage dep */\n      0x00\n        /* \"FlattenedPool.sol\":31056:31074  userDeposits[user] */\n      swap1\n      dup2\n      mstore\n        /* \"FlattenedPool.sol\":31056:31068  userDeposits */\n      0x08\n        /* \"FlattenedPool.sol\":31056:31074  userDeposits[user] */\n      0x20\n      mstore\n      0x40\n      dup2\n      keccak256\n        /* \"FlattenedPool.sol\":31075:31089  depositIndices */\n      dup6\n      dup6\n        /* \"FlattenedPool.sol\":31090:31091  i */\n      dup5\n        /* \"FlattenedPool.sol\":31075:31092  depositIndices[i] */\n      dup2\n      dup2\n      lt\n      tag_743\n      jumpi\n      tag_743\n      tag_444\n      jump\t// in\n    tag_743:\n      swap1\n      pop\n      0x20\n      mul\n      add\n      calldataload\n        /* \"FlattenedPool.sol\":31056:31093  userDeposits[user][depositIndices[i]] */\n      dup2\n      sload\n      dup2\n      lt\n      tag_745\n      jumpi\n      tag_745\n      tag_444\n      jump\t// in\n    tag_745:\n      0x00\n      swap2\n      dup3\n      mstore\n      0x20\n      swap1\n      swap2\n      keccak256\n      0x06\n      swap1\n      swap2\n      mul\n      add\n        /* \"FlattenedPool.sol\":31116:31129  dep.withdrawn */\n      0x03\n      dup2\n      add\n      sload\n        /* \"FlattenedPool.sol\":31056:31093  userDeposits[user][depositIndices[i]] */\n      swap1\n      swap2\n      pop\n        /* \"FlattenedPool.sol\":31116:31129  dep.withdrawn */\n      0xff\n      and\n        /* \"FlattenedPool.sol\":31115:31129  !dep.withdrawn */\n      iszero\n        /* \"FlattenedPool.sol\":31115:31153  !dep.withdrawn && !dep.unlockedByAdmin */\n      dup1\n      iszero\n      tag_747\n      jumpi\n      pop\n        /* \"FlattenedPool.sol\":31134:31153  dep.unlockedByAdmin */\n      0x03\n      dup2\n      add\n      sload\n      0x0100\n      swap1\n      div\n      0xff\n      and\n        /* \"FlattenedPool.sol\":31133:31153  !dep.unlockedByAdmin */\n      iszero\n        /* \"FlattenedPool.sol\":31115:31153  !dep.withdrawn && !dep.unlockedByAdmin */\n    tag_747:\n        /* \"FlattenedPool.sol\":31107:31184  require(!dep.withdrawn && !dep.unlockedByAdmin, \"Already unlocked/withdrawn\") */\n      tag_748\n      jumpi\n      mload(0x40)\n      shl(0xe5, 0x461bcd)\n      dup2\n      mstore\n        /* \"#utility.yul\":18470:18472   */\n      0x20\n        /* \"FlattenedPool.sol\":31107:31184  require(!dep.withdrawn && !dep.unlockedByAdmin, \"Already unlocked/withdrawn\") */\n      0x04\n      dup3\n      add\n        /* \"#utility.yul\":18452:18473   */\n      mstore\n        /* \"#utility.yul\":18509:18511   */\n      0x1a\n        /* \"#utility.yul\":18489:18507   */\n      0x24\n      dup3\n      add\n        /* \"#utility.yul\":18482:18512   */\n      mstore\n        /* \"#utility.yul\":18548:18576   */\n      0x416c726561647920756e6c6f636b65642f77697468647261776e000000000000\n        /* \"#utility.yul\":18528:18546   */\n      0x44\n      dup3\n      add\n        /* \"#utility.yul\":18521:18577   */\n      mstore\n        /* \"#utility.yul\":18594:18612   */\n      0x64\n      add\n        /* \"FlattenedPool.sol\":31107:31184  require(!dep.withdrawn && !dep.unlockedByAdmin, \"Already unlocked/withdrawn\") */\n      tag_415\n        /* \"#utility.yul\":18268:18618   */\n      jump\n        /* \"FlattenedPool.sol\":31107:31184  require(!dep.withdrawn && !dep.unlockedByAdmin, \"Already unlocked/withdrawn\") */\n    tag_748:\n        /* \"FlattenedPool.sol\":31198:31217  dep.unlockedByAdmin */\n      0x03\n      add\n        /* \"FlattenedPool.sol\":31198:31224  dep.unlockedByAdmin = true */\n      dup1\n      sload\n      not(0xff00)\n      and\n      0x0100\n      or\n      swap1\n      sstore\n        /* \"FlattenedPool.sol\":31220:31224  true */\n      0x01\n        /* \"FlattenedPool.sol\":31011:31014  i++ */\n      add\n        /* \"FlattenedPool.sol\":30964:31235  for (uint256 i = 0; i < depositIndices.length; i++) {... */\n      jump(tag_739)\n    tag_740:\n      pop\n        /* \"FlattenedPool.sol\":31266:31270  user */\n      dup4\n      sub(shl(0xa0, 0x01), 0x01)\n        /* \"FlattenedPool.sol\":31249:31287  DepositsUnlocked(user, depositIndices) */\n      and\n      0x8b655a966f162e1d3686ea25cd61682331984ab5662b451deff96f12d716f45b\n        /* \"FlattenedPool.sol\":31272:31286  depositIndices */\n      dup5\n      dup5\n        /* \"FlattenedPool.sol\":31249:31287  DepositsUnlocked(user, depositIndices) */\n      mload(0x40)\n      tag_751\n      swap3\n      swap2\n      swap1\n      tag_752\n      jump\t// in\n    tag_751:\n      mload(0x40)\n      dup1\n      swap2\n      sub\n      swap1\n      log2\n        /* \"FlattenedPool.sol\":30841:31294  function unlockDepositsForUser(address user, uint256[] calldata depositIndices) external onlyRole(UNLOCKER_ROLE) {... */\n      pop\n      pop\n      pop\n      pop\n      jump\t// out\n        /* \"FlattenedPool.sol\":25565:25821  function setUtilityAddress(address newUtilityAddress) external onlyRole(ADMIN_ROLE) {... */\n    tag_275:\n      0x00\n      dup1\n      mload\n      0x20\n      data_cb864c43dd5d441bb6271f424f11befa622c032dfd374d226e26fbbdb782b8f8\n      dup4\n      codecopy\n      dup2\n      mload\n      swap2\n      mstore\n        /* \"FlattenedPool.sol\":8882:8898  _checkRole(role) */\n      tag_754\n        /* \"FlattenedPool.sol\":8893:8897  role */\n      dup2\n        /* \"FlattenedPool.sol\":8882:8892  _checkRole */\n      tag_405\n        /* \"FlattenedPool.sol\":8882:8898  _checkRole(role) */\n      jump\t// in\n    tag_754:\n      sub(shl(0xa0, 0x01), 0x01)\n        /* \"FlattenedPool.sol\":25667:25698  newUtilityAddress != address(0) */\n      dup3\n      and\n        /* \"FlattenedPool.sol\":25659:25715  require(newUtilityAddress != address(0), \"Zero address\") */\n      tag_756\n      jumpi\n      mload(0x40)\n      shl(0xe5, 0x461bcd)\n      dup2\n      mstore\n        /* \"#utility.yul\":19118:19120   */\n      0x20\n        /* \"FlattenedPool.sol\":25659:25715  require(newUtilityAddress != address(0), \"Zero address\") */\n      0x04\n      dup3\n      add\n        /* \"#utility.yul\":19100:19121   */\n      mstore\n        /* \"#utility.yul\":19157:19159   */\n      0x0c\n        /* \"#utility.yul\":19137:19155   */\n      0x24\n      dup3\n      add\n        /* \"#utility.yul\":19130:19160   */\n      mstore\n      shl(0xa0, 0x5a65726f2061646472657373)\n        /* \"#utility.yul\":19176:19194   */\n      0x44\n      dup3\n      add\n        /* \"#utility.yul\":19169:19211   */\n      mstore\n        /* \"#utility.yul\":19228:19246   */\n      0x64\n      add\n        /* \"FlattenedPool.sol\":25659:25715  require(newUtilityAddress != address(0), \"Zero address\") */\n      tag_415\n        /* \"#utility.yul\":18916:19252   */\n      jump\n        /* \"FlattenedPool.sol\":25659:25715  require(newUtilityAddress != address(0), \"Zero address\") */\n    tag_756:\n        /* \"FlattenedPool.sol\":25725:25739  utilityAddress */\n      0x07\n        /* \"FlattenedPool.sol\":25725:25759  utilityAddress = newUtilityAddress */\n      dup1\n      sload\n      not(sub(shl(0xa0, 0x01), 0x01))\n      and\n      sub(shl(0xa0, 0x01), 0x01)\n      dup5\n      and\n      swap1\n      dup2\n      or\n      swap1\n      swap2\n      sstore\n        /* \"FlattenedPool.sol\":25774:25814  UtilityAddressChanged(newUtilityAddress) */\n      mload(0x40)\n        /* \"#utility.yul\":9721:9795   */\n      swap1\n      dup2\n      mstore\n        /* \"FlattenedPool.sol\":25774:25814  UtilityAddressChanged(newUtilityAddress) */\n      0x1d6240e71a77c9e9d07d1d6ecbb9ea4274fcc8bc19adc5b05a3548ac7e40e189\n      swap1\n        /* \"#utility.yul\":9709:9711   */\n      0x20\n        /* \"#utility.yul\":9694:9712   */\n      add\n        /* \"FlattenedPool.sol\":25774:25814  UtilityAddressChanged(newUtilityAddress) */\n    tag_759:\n      mload(0x40)\n      dup1\n      swap2\n      sub\n      swap1\n      log1\n        /* \"FlattenedPool.sol\":25565:25821  function setUtilityAddress(address newUtilityAddress) external onlyRole(ADMIN_ROLE) {... */\n      pop\n      pop\n      jump\t// out\n        /* \"FlattenedPool.sol\":35994:36452  function withdrawUtilityETH(uint256 amount) external onlyRole(UTILITY_WITHDRAWER_ROLE) nonReentrant {... */\n    tag_288:\n        /* \"FlattenedPool.sol\":21013:21049  keccak256(\"UTILITY_WITHDRAWER_ROLE\") */\n      0x78c90eb9e475048b483a290aee04b5fe48355537c3623c7637b17d3bed71c6ed\n        /* \"FlattenedPool.sol\":8882:8898  _checkRole(role) */\n      tag_762\n        /* \"FlattenedPool.sol\":8893:8897  role */\n      dup2\n        /* \"FlattenedPool.sol\":8882:8892  _checkRole */\n      tag_405\n        /* \"FlattenedPool.sol\":8882:8898  _checkRole(role) */\n      jump\t// in\n    tag_762:\n        /* \"FlattenedPool.sol\":18919:18940  _nonReentrantBefore() */\n      tag_764\n        /* \"FlattenedPool.sol\":18919:18938  _nonReentrantBefore */\n      tag_412\n        /* \"FlattenedPool.sol\":18919:18940  _nonReentrantBefore() */\n      jump\t// in\n    tag_764:\n        /* \"FlattenedPool.sol\":36112:36126  utilityAddress */\n      and(sub(shl(0xa0, 0x01), 0x01), sload(0x07))\n        /* \"FlattenedPool.sol\":36104:36168  require(utilityAddress != address(0), \"Utility address not set\") */\n      tag_766\n      jumpi\n      mload(0x40)\n      shl(0xe5, 0x461bcd)\n      dup2\n      mstore\n        /* \"#utility.yul\":18118:18120   */\n      0x20\n        /* \"FlattenedPool.sol\":36104:36168  require(utilityAddress != address(0), \"Utility address not set\") */\n      0x04\n      dup3\n      add\n        /* \"#utility.yul\":18100:18121   */\n      mstore\n        /* \"#utility.yul\":18157:18159   */\n      0x17\n        /* \"#utility.yul\":18137:18155   */\n      0x24\n      dup3\n      add\n        /* \"#utility.yul\":18130:18160   */\n      mstore\n        /* \"#utility.yul\":18196:18221   */\n      0x5574696c6974792061646472657373206e6f7420736574000000000000000000\n        /* \"#utility.yul\":18176:18194   */\n      0x44\n      dup3\n      add\n        /* \"#utility.yul\":18169:18222   */\n      mstore\n        /* \"#utility.yul\":18239:18257   */\n      0x64\n      add\n        /* \"FlattenedPool.sol\":36104:36168  require(utilityAddress != address(0), \"Utility address not set\") */\n      tag_415\n        /* \"#utility.yul\":17916:18263   */\n      jump\n        /* \"FlattenedPool.sol\":36104:36168  require(utilityAddress != address(0), \"Utility address not set\") */\n    tag_766:\n        /* \"FlattenedPool.sol\":36196:36217  address(this).balance */\n      selfbalance\n        /* \"FlattenedPool.sol\":36186:36192  amount */\n      dup3\n        /* \"FlattenedPool.sol\":36186:36217  amount <= address(this).balance */\n      gt\n      iszero\n        /* \"FlattenedPool.sol\":36178:36242  require(amount <= address(this).balance, \"Insufficient balance\") */\n      tag_768\n      jumpi\n      mload(0x40)\n      shl(0xe5, 0x461bcd)\n      dup2\n      mstore\n        /* \"#utility.yul\":19459:19461   */\n      0x20\n        /* \"FlattenedPool.sol\":36178:36242  require(amount <= address(this).balance, \"Insufficient balance\") */\n      0x04\n      dup3\n      add\n        /* \"#utility.yul\":19441:19462   */\n      mstore\n        /* \"#utility.yul\":19498:19500   */\n      0x14\n        /* \"#utility.yul\":19478:19496   */\n      0x24\n      dup3\n      add\n        /* \"#utility.yul\":19471:19501   */\n      mstore\n        /* \"#utility.yul\":19537:19559   */\n      0x496e73756666696369656e742062616c616e6365000000000000000000000000\n        /* \"#utility.yul\":19517:19535   */\n      0x44\n      dup3\n      add\n        /* \"#utility.yul\":19510:19560   */\n      mstore\n        /* \"#utility.yul\":19577:19595   */\n      0x64\n      add\n        /* \"FlattenedPool.sol\":36178:36242  require(amount <= address(this).balance, \"Insufficient balance\") */\n      tag_415\n        /* \"#utility.yul\":19257:19601   */\n      jump\n        /* \"FlattenedPool.sol\":36178:36242  require(amount <= address(this).balance, \"Insufficient balance\") */\n    tag_768:\n        /* \"FlattenedPool.sol\":36271:36285  utilityAddress */\n      sload(0x07)\n        /* \"FlattenedPool.sol\":36271:36309  utilityAddress.call{value: amount}(\"\") */\n      mload(0x40)\n        /* \"FlattenedPool.sol\":36253:36265  bool success */\n      0x00\n      swap2\n      sub(shl(0xa0, 0x01), 0x01)\n        /* \"FlattenedPool.sol\":36271:36285  utilityAddress */\n      and\n      swap1\n        /* \"FlattenedPool.sol\":36298:36304  amount */\n      dup5\n      swap1\n        /* \"FlattenedPool.sol\":36253:36265  bool success */\n      dup4\n        /* \"FlattenedPool.sol\":36271:36309  utilityAddress.call{value: amount}(\"\") */\n      dup2\n        /* \"FlattenedPool.sol\":36253:36265  bool success */\n      dup2\n        /* \"FlattenedPool.sol\":36271:36309  utilityAddress.call{value: amount}(\"\") */\n      dup2\n        /* \"FlattenedPool.sol\":36298:36304  amount */\n      dup6\n        /* \"FlattenedPool.sol\":36271:36285  utilityAddress */\n      dup8\n        /* \"FlattenedPool.sol\":36271:36309  utilityAddress.call{value: amount}(\"\") */\n      gas\n      call\n      swap3\n      pop\n      pop\n      pop\n      returndatasize\n      dup1\n      0x00\n      dup2\n      eq\n      tag_774\n      jumpi\n      mload(0x40)\n      swap2\n      pop\n      and(add(returndatasize, 0x3f), not(0x1f))\n      dup3\n      add\n      0x40\n      mstore\n      returndatasize\n      dup3\n      mstore\n      returndatasize\n      0x00\n      0x20\n      dup5\n      add\n      returndatacopy\n      jump(tag_773)\n    tag_774:\n      0x60\n      swap2\n      pop\n    tag_773:\n      pop\n        /* \"FlattenedPool.sol\":36252:36309  (bool success, ) = utilityAddress.call{value: amount}(\"\") */\n      pop\n      swap1\n      pop\n        /* \"FlattenedPool.sol\":36327:36334  success */\n      dup1\n        /* \"FlattenedPool.sol\":36319:36358  require(success, \"ETH transfer failed\") */\n      tag_775\n      jumpi\n      mload(0x40)\n      shl(0xe5, 0x461bcd)\n      dup2\n      mstore\n        /* \"#utility.yul\":13992:13994   */\n      0x20\n        /* \"FlattenedPool.sol\":36319:36358  require(success, \"ETH transfer failed\") */\n      0x04\n      dup3\n      add\n        /* \"#utility.yul\":13974:13995   */\n      mstore\n        /* \"#utility.yul\":14031:14033   */\n      0x13\n        /* \"#utility.yul\":14011:14029   */\n      0x24\n      dup3\n      add\n        /* \"#utility.yul\":14004:14034   */\n      mstore\n      shl(0x6a, 0x115512081d1c985b9cd9995c8819985a5b1959)\n        /* \"#utility.yul\":14050:14068   */\n      0x44\n      dup3\n      add\n        /* \"#utility.yul\":14043:14092   */\n      mstore\n        /* \"#utility.yul\":14109:14127   */\n      0x64\n      add\n        /* \"FlattenedPool.sol\":36319:36358  require(success, \"ETH transfer failed\") */\n      tag_415\n        /* \"#utility.yul\":13790:14133   */\n      jump\n        /* \"FlattenedPool.sol\":36319:36358  require(success, \"ETH transfer failed\") */\n    tag_775:\n        /* \"FlattenedPool.sol\":36390:36404  utilityAddress */\n      sload(0x07)\n        /* \"FlattenedPool.sol\":36373:36445  UtilityWithdrawn(utilityAddress, TokenType.ETH, amount, block.timestamp) */\n      mload(0x40)\n      sub(shl(0xa0, 0x01), 0x01)\n        /* \"FlattenedPool.sol\":36390:36404  utilityAddress */\n      swap1\n      swap2\n      and\n      swap1\n        /* \"FlattenedPool.sol\":36373:36445  UtilityWithdrawn(utilityAddress, TokenType.ETH, amount, block.timestamp) */\n      0x9adbdc797aca3ce26a722598f00149b2328fd124444e6d0b10c4bdc7cfc38196\n      swap1\n      tag_777\n      swap1\n        /* \"FlattenedPool.sol\":36390:36404  utilityAddress */\n      0x00\n      swap1\n        /* \"FlattenedPool.sol\":36421:36427  amount */\n      dup8\n      swap1\n        /* \"FlattenedPool.sol\":36429:36444  block.timestamp */\n      timestamp\n      swap1\n        /* \"FlattenedPool.sol\":36373:36445  UtilityWithdrawn(utilityAddress, TokenType.ETH, amount, block.timestamp) */\n      tag_423\n      jump\t// in\n    tag_777:\n      mload(0x40)\n      dup1\n      swap2\n      sub\n      swap1\n      log2\n        /* \"FlattenedPool.sol\":36094:36452  {... */\n      pop\n        /* \"FlattenedPool.sol\":18961:18981  _nonReentrantAfter() */\n      tag_712\n        /* \"FlattenedPool.sol\":18276:18277  1 */\n      0x01\n        /* \"FlattenedPool.sol\":19487:19508  _status = NOT_ENTERED */\n      dup1\n      sstore\n        /* \"FlattenedPool.sol\":19307:19515  function _nonReentrantAfter() private {... */\n      jump\n        /* \"FlattenedPool.sol\":21784:21815  address[] public withdrawnUsers */\n    tag_300:\n      0x10\n      dup2\n      dup2\n      sload\n      dup2\n      lt\n      tag_779\n      jumpi\n      0x00\n      dup1\n      revert\n    tag_779:\n      0x00\n      swap2\n      dup3\n      mstore\n      0x20\n      swap1\n      swap2\n      keccak256\n      add\n      sload\n      sub(shl(0xa0, 0x01), 0x01)\n      and\n      swap1\n      pop\n      dup2\n      jump\t// out\n        /* \"FlattenedPool.sol\":21753:21778  address[] public allUsers */\n    tag_309:\n      0x0f\n      dup2\n      dup2\n      sload\n      dup2\n      lt\n      tag_779\n      jumpi\n      0x00\n      dup1\n      revert\n        /* \"FlattenedPool.sol\":36838:37887  function getVaultStats() external view returns (... */\n    tag_313:\n        /* \"FlattenedPool.sol\":37368:37405  IERC20(USDC).balanceOf(address(this)) */\n      mload(0x40)\n      shl(0xe0, 0x70a08231)\n      dup2\n      mstore\n        /* \"FlattenedPool.sol\":37399:37403  this */\n      address\n        /* \"FlattenedPool.sol\":37368:37405  IERC20(USDC).balanceOf(address(this)) */\n      0x04\n      dup3\n      add\n        /* \"#utility.yul\":9721:9795   */\n      mstore\n        /* \"FlattenedPool.sol\":37323:37344  address(this).balance */\n      selfbalance\n      swap1\n        /* \"FlattenedPool.sol\":36895:36913  uint256 ethInVault */\n      0x00\n      swap1\n      dup2\n      swap1\n      dup2\n      swap1\n      dup2\n      swap1\n      dup2\n      swap1\n      dup2\n      swap1\n      dup2\n      swap1\n      dup2\n      swap1\n      dup2\n      swap1\n      dup2\n      swap1\n      dup2\n      swap1\n        /* \"FlattenedPool.sol\":20218:20260  0x833589fCD6eDb6E08f4c7C32D4f71b54bdA02913 */\n      0x833589fcd6edb6e08f4c7c32d4f71b54bda02913\n      swap1\n        /* \"FlattenedPool.sol\":37368:37390  IERC20(USDC).balanceOf */\n      0x70a08231\n      swap1\n        /* \"#utility.yul\":9694:9712   */\n      0x24\n      add\n        /* \"FlattenedPool.sol\":37368:37405  IERC20(USDC).balanceOf(address(this)) */\n      0x20\n      mload(0x40)\n      dup1\n      dup4\n      sub\n      dup2\n      dup7\n      gas\n      staticcall\n      iszero\n      dup1\n      iszero\n      tag_786\n      jumpi\n      returndatasize\n      0x00\n      dup1\n      returndatacopy\n      revert(0x00, returndatasize)\n    tag_786:\n      pop\n      pop\n      pop\n      pop\n      mload(0x40)\n      returndatasize\n      not(0x1f)\n      0x1f\n      dup3\n      add\n      and\n      dup3\n      add\n      dup1\n      0x40\n      mstore\n      pop\n      dup2\n      add\n      swap1\n      tag_787\n      swap2\n      swap1\n      tag_788\n      jump\t// in\n    tag_787:\n        /* \"FlattenedPool.sol\":37354:37405  usdcInVault = IERC20(USDC).balanceOf(address(this)) */\n      swap11\n      pop\n        /* \"FlattenedPool.sol\":37436:37453  totalDepositedETH */\n      sload(0x12)\n        /* \"FlattenedPool.sol\":37415:37453  totalDepositedETH_ = totalDepositedETH */\n      swap10\n      pop\n        /* \"FlattenedPool.sol\":37485:37503  totalDepositedUSDC */\n      sload(0x13)\n        /* \"FlattenedPool.sol\":37463:37503  totalDepositedUSDC_ = totalDepositedUSDC */\n      swap9\n      pop\n        /* \"FlattenedPool.sol\":37534:37551  totalWithdrawnETH */\n      sload(0x14)\n        /* \"FlattenedPool.sol\":37513:37551  totalWithdrawnETH_ = totalWithdrawnETH */\n      swap8\n      pop\n        /* \"FlattenedPool.sol\":37583:37601  totalWithdrawnUSDC */\n      sload(0x15)\n        /* \"FlattenedPool.sol\":37561:37601  totalWithdrawnUSDC_ = totalWithdrawnUSDC */\n      swap7\n      pop\n        /* \"FlattenedPool.sol\":37630:37645  totalUtilityETH */\n      sload(0x16)\n        /* \"FlattenedPool.sol\":37611:37645  totalUtilityETH_ = totalUtilityETH */\n      swap6\n      pop\n        /* \"FlattenedPool.sol\":37675:37691  totalUtilityUSDC */\n      sload(0x17)\n        /* \"FlattenedPool.sol\":37655:37691  totalUtilityUSDC_ = totalUtilityUSDC */\n      swap5\n      pop\n        /* \"FlattenedPool.sol\":37723:37741  totalReinvestedETH */\n      sload(0x18)\n        /* \"FlattenedPool.sol\":37701:37741  totalReinvestedETH_ = totalReinvestedETH */\n      swap4\n      pop\n        /* \"FlattenedPool.sol\":37774:37793  totalReinvestedUSDC */\n      sload(0x19)\n        /* \"FlattenedPool.sol\":37751:37793  totalReinvestedUSDC_ = totalReinvestedUSDC */\n      swap3\n      pop\n        /* \"FlattenedPool.sol\":37814:37822  allUsers */\n      0x0f\n        /* \"FlattenedPool.sol\":37814:37829  allUsers.length */\n      dup1\n      sload\n      swap1\n      pop\n        /* \"FlattenedPool.sol\":37803:37829  numUsers = allUsers.length */\n      swap2\n      pop\n        /* \"FlattenedPool.sol\":37859:37873  withdrawnUsers */\n      0x10\n        /* \"FlattenedPool.sol\":37859:37880  withdrawnUsers.length */\n      dup1\n      sload\n      swap1\n      pop\n        /* \"FlattenedPool.sol\":37839:37880  numWithdrawnUsers = withdrawnUsers.length */\n      swap1\n      pop\n        /* \"FlattenedPool.sol\":36838:37887  function getVaultStats() external view returns (... */\n      swap1\n      swap2\n      swap3\n      swap4\n      swap5\n      swap6\n      swap7\n      swap8\n      swap9\n      swap10\n      swap11\n      swap12\n      jump\t// out\n        /* \"FlattenedPool.sol\":39222:39464  function rescueERC20(address token, address to, uint256 amount) external onlyRole(ADMIN_ROLE) {... */\n    tag_320:\n      0x00\n      dup1\n      mload\n      0x20\n      data_cb864c43dd5d441bb6271f424f11befa622c032dfd374d226e26fbbdb782b8f8\n      dup4\n      codecopy\n      dup2\n      mload\n      swap2\n      mstore\n        /* \"FlattenedPool.sol\":8882:8898  _checkRole(role) */\n      tag_790\n        /* \"FlattenedPool.sol\":8893:8897  role */\n      dup2\n        /* \"FlattenedPool.sol\":8882:8892  _checkRole */\n      tag_405\n        /* \"FlattenedPool.sol\":8882:8898  _checkRole(role) */\n      jump\t// in\n    tag_790:\n      sub(shl(0xa0, 0x01), 0x01)\n        /* \"FlattenedPool.sol\":39334:39350  to != address(0) */\n      dup4\n      and\n        /* \"FlattenedPool.sol\":39326:39367  require(to != address(0), \"Zero address\") */\n      tag_792\n      jumpi\n      mload(0x40)\n      shl(0xe5, 0x461bcd)\n      dup2\n      mstore\n        /* \"#utility.yul\":19118:19120   */\n      0x20\n        /* \"FlattenedPool.sol\":39326:39367  require(to != address(0), \"Zero address\") */\n      0x04\n      dup3\n      add\n        /* \"#utility.yul\":19100:19121   */\n      mstore\n        /* \"#utility.yul\":19157:19159   */\n      0x0c\n        /* \"#utility.yul\":19137:19155   */\n      0x24\n      dup3\n      add\n        /* \"#utility.yul\":19130:19160   */\n      mstore\n      shl(0xa0, 0x5a65726f2061646472657373)\n        /* \"#utility.yul\":19176:19194   */\n      0x44\n      dup3\n      add\n        /* \"#utility.yul\":19169:19211   */\n      mstore\n        /* \"#utility.yul\":19228:19246   */\n      0x64\n      add\n        /* \"FlattenedPool.sol\":39326:39367  require(to != address(0), \"Zero address\") */\n      tag_415\n        /* \"#utility.yul\":18916:19252   */\n      jump\n        /* \"FlattenedPool.sol\":39326:39367  require(to != address(0), \"Zero address\") */\n    tag_792:\n        /* \"FlattenedPool.sol\":39377:39411  IERC20(token).transfer(to, amount) */\n      mload(0x40)\n      shl(0xe0, 0xa9059cbb)\n      dup2\n      mstore\n      sub(shl(0xa0, 0x01), 0x01)\n        /* \"#utility.yul\":14330:14385   */\n      dup5\n      dup2\n      and\n        /* \"FlattenedPool.sol\":39377:39411  IERC20(token).transfer(to, amount) */\n      0x04\n      dup4\n      add\n        /* \"#utility.yul\":14312:14386   */\n      mstore\n        /* \"#utility.yul\":14402:14420   */\n      0x24\n      dup3\n      add\n        /* \"#utility.yul\":14395:14429   */\n      dup5\n      swap1\n      mstore\n        /* \"FlattenedPool.sol\":39377:39399  IERC20(token).transfer */\n      dup6\n      and\n      swap1\n      0xa9059cbb\n      swap1\n        /* \"#utility.yul\":14285:14303   */\n      0x44\n      add\n        /* \"FlattenedPool.sol\":39377:39411  IERC20(token).transfer(to, amount) */\n      0x20\n      mload(0x40)\n      dup1\n      dup4\n      sub\n      dup2\n      0x00\n      dup8\n      gas\n      call\n      iszero\n      dup1\n      iszero\n      tag_796\n      jumpi\n      returndatasize\n      0x00\n      dup1\n      returndatacopy\n      revert(0x00, returndatasize)\n    tag_796:\n      pop\n      pop\n      pop\n      pop\n      mload(0x40)\n      returndatasize\n      not(0x1f)\n      0x1f\n      dup3\n      add\n      and\n      dup3\n      add\n      dup1\n      0x40\n      mstore\n      pop\n      dup2\n      add\n      swap1\n      tag_797\n      swap2\n      swap1\n      tag_484\n      jump\t// in\n    tag_797:\n      pop\n        /* \"FlattenedPool.sol\":39446:39448  to */\n      dup3\n      sub(shl(0xa0, 0x01), 0x01)\n        /* \"FlattenedPool.sol\":39426:39457  ERC20Rescued(token, to, amount) */\n      and\n        /* \"FlattenedPool.sol\":39439:39444  token */\n      dup5\n      sub(shl(0xa0, 0x01), 0x01)\n        /* \"FlattenedPool.sol\":39426:39457  ERC20Rescued(token, to, amount) */\n      and\n      0x8bbfbb5d7fcacf6fc74005cdede0635561638507f576c95f7f294c22141be2e5\n        /* \"FlattenedPool.sol\":39450:39456  amount */\n      dup5\n        /* \"FlattenedPool.sol\":39426:39457  ERC20Rescued(token, to, amount) */\n      mload(0x40)\n      tag_798\n      swap2\n        /* \"#utility.yul\":1131:1156   */\n      dup2\n      mstore\n        /* \"#utility.yul\":1119:1121   */\n      0x20\n        /* \"#utility.yul\":1104:1122   */\n      add\n      swap1\n        /* \"#utility.yul\":985:1162   */\n      jump\n        /* \"FlattenedPool.sol\":39426:39457  ERC20Rescued(token, to, amount) */\n    tag_798:\n      mload(0x40)\n      dup1\n      swap2\n      sub\n      swap1\n      log3\n        /* \"FlattenedPool.sol\":39222:39464  function rescueERC20(address token, address to, uint256 amount) external onlyRole(ADMIN_ROLE) {... */\n      pop\n      pop\n      pop\n      pop\n      jump\t// out\n        /* \"FlattenedPool.sol\":33177:33678  function assignUtilityETHBatch(address[] calldata users, uint256[] calldata amounts) external onlyRole(ADMIN_ROLE) {... */\n    tag_332:\n      0x00\n      dup1\n      mload\n      0x20\n      data_cb864c43dd5d441bb6271f424f11befa622c032dfd374d226e26fbbdb782b8f8\n      dup4\n      codecopy\n      dup2\n      mload\n      swap2\n      mstore\n        /* \"FlattenedPool.sol\":8882:8898  _checkRole(role) */\n      tag_800\n        /* \"FlattenedPool.sol\":8893:8897  role */\n      dup2\n        /* \"FlattenedPool.sol\":8882:8892  _checkRole */\n      tag_405\n        /* \"FlattenedPool.sol\":8882:8898  _checkRole(role) */\n      jump\t// in\n    tag_800:\n        /* \"FlattenedPool.sol\":33310:33340  users.length == amounts.length */\n      dup4\n      dup3\n      eq\n        /* \"FlattenedPool.sol\":33302:33353  require(users.length == amounts.length, \"Mismatch\") */\n      tag_802\n      jumpi\n      mload(0x40)\n      shl(0xe5, 0x461bcd)\n      dup2\n      mstore\n        /* \"#utility.yul\":15390:15392   */\n      0x20\n        /* \"FlattenedPool.sol\":33302:33353  require(users.length == amounts.length, \"Mismatch\") */\n      0x04\n      dup3\n      add\n        /* \"#utility.yul\":15372:15393   */\n      mstore\n        /* \"#utility.yul\":15429:15430   */\n      0x08\n        /* \"#utility.yul\":15409:15427   */\n      0x24\n      dup3\n      add\n        /* \"#utility.yul\":15402:15431   */\n      mstore\n      shl(0xc3, 0x09ad2e6dac2e8c6d)\n        /* \"#utility.yul\":15447:15465   */\n      0x44\n      dup3\n      add\n        /* \"#utility.yul\":15440:15478   */\n      mstore\n        /* \"#utility.yul\":15495:15513   */\n      0x64\n      add\n        /* \"FlattenedPool.sol\":33302:33353  require(users.length == amounts.length, \"Mismatch\") */\n      tag_415\n        /* \"#utility.yul\":15188:15519   */\n      jump\n        /* \"FlattenedPool.sol\":33302:33353  require(users.length == amounts.length, \"Mismatch\") */\n    tag_802:\n        /* \"FlattenedPool.sol\":33363:33376  uint256 total */\n      0x00\n      dup1\n        /* \"FlattenedPool.sol\":33386:33579  for (uint256 i = 0; i < users.length; i++) {... */\n    tag_804:\n        /* \"FlattenedPool.sol\":33406:33422  i < users.length */\n      dup6\n      dup2\n      lt\n        /* \"FlattenedPool.sol\":33386:33579  for (uint256 i = 0; i < users.length; i++) {... */\n      iszero\n      tag_805\n      jumpi\n        /* \"FlattenedPool.sol\":33464:33465  0 */\n      0x00\n        /* \"FlattenedPool.sol\":33451:33458  amounts */\n      dup6\n      dup6\n        /* \"FlattenedPool.sol\":33459:33460  i */\n      dup4\n        /* \"FlattenedPool.sol\":33451:33461  amounts[i] */\n      dup2\n      dup2\n      lt\n      tag_808\n      jumpi\n      tag_808\n      tag_444\n      jump\t// in\n    tag_808:\n      swap1\n      pop\n      0x20\n      mul\n      add\n      calldataload\n        /* \"FlattenedPool.sol\":33451:33465  amounts[i] > 0 */\n      gt\n        /* \"FlattenedPool.sol\":33443:33474  require(amounts[i] > 0, \"Zero\") */\n      tag_809\n      jumpi\n      mload(0x40)\n      shl(0xe5, 0x461bcd)\n      dup2\n      mstore\n      0x04\n      add\n      tag_415\n      swap1\n        /* \"#utility.yul\":15726:15728   */\n      0x20\n        /* \"#utility.yul\":15708:15729   */\n      dup1\n      dup3\n      mstore\n        /* \"#utility.yul\":15765:15766   */\n      0x04\n        /* \"#utility.yul\":15745:15763   */\n      swap1\n      dup3\n      add\n        /* \"#utility.yul\":15738:15767   */\n      mstore\n      shl(0xe0, 0x5a65726f)\n        /* \"#utility.yul\":15798:15800   */\n      0x40\n        /* \"#utility.yul\":15783:15801   */\n      dup3\n      add\n        /* \"#utility.yul\":15776:15810   */\n      mstore\n        /* \"#utility.yul\":15842:15844   */\n      0x60\n        /* \"#utility.yul\":15827:15845   */\n      add\n      swap1\n        /* \"#utility.yul\":15524:15851   */\n      jump\n        /* \"FlattenedPool.sol\":33443:33474  require(amounts[i] > 0, \"Zero\") */\n    tag_809:\n        /* \"FlattenedPool.sol\":33525:33532  amounts */\n      dup5\n      dup5\n        /* \"FlattenedPool.sol\":33533:33534  i */\n      dup3\n        /* \"FlattenedPool.sol\":33525:33535  amounts[i] */\n      dup2\n      dup2\n      lt\n      tag_812\n      jumpi\n      tag_812\n      tag_444\n      jump\t// in\n    tag_812:\n      swap1\n      pop\n      0x20\n      mul\n      add\n      calldataload\n        /* \"FlattenedPool.sol\":33488:33511  userClaimableUtilityETH */\n      0x0b\n        /* \"FlattenedPool.sol\":33488:33521  userClaimableUtilityETH[users[i]] */\n      0x00\n        /* \"FlattenedPool.sol\":33512:33517  users */\n      dup10\n      dup10\n        /* \"FlattenedPool.sol\":33518:33519  i */\n      dup6\n        /* \"FlattenedPool.sol\":33512:33520  users[i] */\n      dup2\n      dup2\n      lt\n      tag_814\n      jumpi\n      tag_814\n      tag_444\n      jump\t// in\n    tag_814:\n      swap1\n      pop\n      0x20\n      mul\n      add\n      0x20\n      dup2\n      add\n      swap1\n      tag_815\n      swap2\n      swap1\n      tag_104\n      jump\t// in\n    tag_815:\n      sub(shl(0xa0, 0x01), 0x01)\n        /* \"FlattenedPool.sol\":33488:33521  userClaimableUtilityETH[users[i]] */\n      and\n      sub(shl(0xa0, 0x01), 0x01)\n      and\n      dup2\n      mstore\n      0x20\n      add\n      swap1\n      dup2\n      mstore\n      0x20\n      add\n      0x00\n      keccak256\n      0x00\n        /* \"FlattenedPool.sol\":33488:33535  userClaimableUtilityETH[users[i]] += amounts[i] */\n      dup3\n      dup3\n      sload\n      tag_816\n      swap2\n      swap1\n      tag_420\n      jump\t// in\n    tag_816:\n      swap1\n      swap2\n      sstore\n      pop\n        /* \"FlattenedPool.sol\":33558:33565  amounts */\n      dup6\n      swap1\n      pop\n      dup5\n        /* \"FlattenedPool.sol\":33566:33567  i */\n      dup3\n        /* \"FlattenedPool.sol\":33558:33568  amounts[i] */\n      dup2\n      dup2\n      lt\n      tag_818\n      jumpi\n      tag_818\n      tag_444\n      jump\t// in\n    tag_818:\n      swap1\n      pop\n      0x20\n      mul\n      add\n      calldataload\n        /* \"FlattenedPool.sol\":33549:33568  total += amounts[i] */\n      dup3\n      tag_819\n      swap2\n      swap1\n      tag_420\n      jump\t// in\n    tag_819:\n      swap2\n      pop\n        /* \"FlattenedPool.sol\":33424:33427  i++ */\n      0x01\n      add\n        /* \"FlattenedPool.sol\":33386:33579  for (uint256 i = 0; i < users.length; i++) {... */\n      jump(tag_804)\n    tag_805:\n      pop\n        /* \"FlattenedPool.sol\":33605:33620  totalUtilityETH */\n      sload(0x16)\n        /* \"FlattenedPool.sol\":33596:33601  total */\n      dup2\n        /* \"FlattenedPool.sol\":33596:33620  total <= totalUtilityETH */\n      gt\n      iszero\n        /* \"FlattenedPool.sol\":33588:33637  require(total <= totalUtilityETH, \"Exceeds pool\") */\n      tag_820\n      jumpi\n      mload(0x40)\n      shl(0xe5, 0x461bcd)\n      dup2\n      mstore\n        /* \"#utility.yul\":16058:16060   */\n      0x20\n        /* \"FlattenedPool.sol\":33588:33637  require(total <= totalUtilityETH, \"Exceeds pool\") */\n      0x04\n      dup3\n      add\n        /* \"#utility.yul\":16040:16061   */\n      mstore\n        /* \"#utility.yul\":16097:16099   */\n      0x0c\n        /* \"#utility.yul\":16077:16095   */\n      0x24\n      dup3\n      add\n        /* \"#utility.yul\":16070:16100   */\n      mstore\n      shl(0xa2, 0x115e18d959591cc81c1bdbdb)\n        /* \"#utility.yul\":16116:16134   */\n      0x44\n      dup3\n      add\n        /* \"#utility.yul\":16109:16151   */\n      mstore\n        /* \"#utility.yul\":16168:16186   */\n      0x64\n      add\n        /* \"FlattenedPool.sol\":33588:33637  require(total <= totalUtilityETH, \"Exceeds pool\") */\n      tag_415\n        /* \"#utility.yul\":15856:16192   */\n      jump\n        /* \"FlattenedPool.sol\":33588:33637  require(total <= totalUtilityETH, \"Exceeds pool\") */\n    tag_820:\n        /* \"FlattenedPool.sol\":33666:33671  total */\n      dup1\n        /* \"FlattenedPool.sol\":33647:33662  totalUtilityETH */\n      0x16\n      0x00\n        /* \"FlattenedPool.sol\":33647:33671  totalUtilityETH -= total */\n      dup3\n      dup3\n      sload\n      tag_528\n      swap2\n      swap1\n      tag_529\n      jump\t// in\n        /* \"FlattenedPool.sol\":35484:35938  function reinvestUtilityUSDC() external nonReentrant {... */\n    tag_335:\n        /* \"FlattenedPool.sol\":18919:18940  _nonReentrantBefore() */\n      tag_824\n        /* \"FlattenedPool.sol\":18919:18938  _nonReentrantBefore */\n      tag_412\n        /* \"FlattenedPool.sol\":18919:18940  _nonReentrantBefore() */\n      jump\t// in\n    tag_824:\n        /* \"FlattenedPool.sol\":35589:35599  msg.sender */\n      caller\n        /* \"FlattenedPool.sol\":35547:35561  uint256 amount */\n      0x00\n        /* \"FlattenedPool.sol\":35564:35600  userClaimableUtilityUSDC[msg.sender] */\n      swap1\n      dup2\n      mstore\n        /* \"FlattenedPool.sol\":35564:35588  userClaimableUtilityUSDC */\n      0x0c\n        /* \"FlattenedPool.sol\":35564:35600  userClaimableUtilityUSDC[msg.sender] */\n      0x20\n      mstore\n      0x40\n      swap1\n      keccak256\n      sload\n        /* \"FlattenedPool.sol\":35618:35628  amount > 0 */\n      dup1\n        /* \"FlattenedPool.sol\":35610:35643  require(amount > 0, \"No utility\") */\n      tag_826\n      jumpi\n      mload(0x40)\n      shl(0xe5, 0x461bcd)\n      dup2\n      mstore\n        /* \"#utility.yul\":11659:11661   */\n      0x20\n        /* \"FlattenedPool.sol\":35610:35643  require(amount > 0, \"No utility\") */\n      0x04\n      dup3\n      add\n        /* \"#utility.yul\":11641:11662   */\n      mstore\n        /* \"#utility.yul\":11698:11700   */\n      0x0a\n        /* \"#utility.yul\":11678:11696   */\n      0x24\n      dup3\n      add\n        /* \"#utility.yul\":11671:11701   */\n      mstore\n      shl(0xb0, 0x4e6f207574696c697479)\n        /* \"#utility.yul\":11717:11735   */\n      0x44\n      dup3\n      add\n        /* \"#utility.yul\":11710:11750   */\n      mstore\n        /* \"#utility.yul\":11767:11785   */\n      0x64\n      add\n        /* \"FlattenedPool.sol\":35610:35643  require(amount > 0, \"No utility\") */\n      tag_415\n        /* \"#utility.yul\":11457:11791   */\n      jump\n        /* \"FlattenedPool.sol\":35610:35643  require(amount > 0, \"No utility\") */\n    tag_826:\n        /* \"FlattenedPool.sol\":35678:35688  msg.sender */\n      caller\n        /* \"FlattenedPool.sol\":35692:35693  0 */\n      0x00\n        /* \"FlattenedPool.sol\":35653:35689  userClaimableUtilityUSDC[msg.sender] */\n      dup2\n      dup2\n      mstore\n        /* \"FlattenedPool.sol\":35653:35677  userClaimableUtilityUSDC */\n      0x0c\n        /* \"FlattenedPool.sol\":35653:35689  userClaimableUtilityUSDC[msg.sender] */\n      0x20\n      mstore\n      0x40\n      dup2\n      keccak256\n        /* \"FlattenedPool.sol\":35653:35693  userClaimableUtilityUSDC[msg.sender] = 0 */\n      sstore\n        /* \"FlattenedPool.sol\":35703:35761  _registerDeposit(msg.sender, TokenType.USDC, amount, true) */\n      tag_828\n      swap1\n        /* \"FlattenedPool.sol\":35732:35746  TokenType.USDC */\n      0x01\n        /* \"FlattenedPool.sol\":35748:35754  amount */\n      dup4\n        /* \"FlattenedPool.sol\":35732:35746  TokenType.USDC */\n      dup2\n        /* \"FlattenedPool.sol\":35703:35719  _registerDeposit */\n      tag_418\n        /* \"FlattenedPool.sol\":35703:35761  _registerDeposit(msg.sender, TokenType.USDC, amount, true) */\n      jump\t// in\n    tag_828:\n        /* \"FlattenedPool.sol\":35794:35800  amount */\n      dup1\n        /* \"FlattenedPool.sol\":35771:35790  totalReinvestedUSDC */\n      0x19\n      0x00\n        /* \"FlattenedPool.sol\":35771:35800  totalReinvestedUSDC += amount */\n      dup3\n      dup3\n      sload\n      tag_829\n      swap2\n      swap1\n      tag_420\n      jump\t// in\n    tag_829:\n      swap1\n      swap2\n      sstore\n      pop\n      pop\n        /* \"FlattenedPool.sol\":35834:35844  msg.sender */\n      caller\n        /* \"FlattenedPool.sol\":35810:35845  userTotalReinvestedUSDC[msg.sender] */\n      0x00\n      swap1\n      dup2\n      mstore\n        /* \"FlattenedPool.sol\":35810:35833  userTotalReinvestedUSDC */\n      0x0e\n        /* \"FlattenedPool.sol\":35810:35845  userTotalReinvestedUSDC[msg.sender] */\n      0x20\n      mstore\n      0x40\n      dup2\n      keccak256\n        /* \"FlattenedPool.sol\":35810:35855  userTotalReinvestedUSDC[msg.sender] += amount */\n      dup1\n      sload\n        /* \"FlattenedPool.sol\":35849:35855  amount */\n      dup4\n      swap3\n        /* \"FlattenedPool.sol\":35810:35845  userTotalReinvestedUSDC[msg.sender] */\n      swap1\n        /* \"FlattenedPool.sol\":35810:35855  userTotalReinvestedUSDC[msg.sender] += amount */\n      tag_830\n      swap1\n        /* \"FlattenedPool.sol\":35849:35855  amount */\n      dup5\n      swap1\n        /* \"FlattenedPool.sol\":35810:35855  userTotalReinvestedUSDC[msg.sender] += amount */\n      tag_420\n      jump\t// in\n    tag_830:\n      swap1\n      swap2\n      sstore\n      pop\n      pop\n        /* \"FlattenedPool.sol\":35870:35931  Reinvest(msg.sender, TokenType.USDC, amount, block.timestamp) */\n      mload(0x40)\n        /* \"FlattenedPool.sol\":35879:35889  msg.sender */\n      caller\n      swap1\n        /* \"FlattenedPool.sol\":35870:35931  Reinvest(msg.sender, TokenType.USDC, amount, block.timestamp) */\n      0x997d2ec09b086de73d509bbc4ad2b52fd7e2338024464bede93a41abd6ccdc38\n      swap1\n      tag_422\n      swap1\n        /* \"FlattenedPool.sol\":35891:35905  TokenType.USDC */\n      0x01\n      swap1\n        /* \"FlattenedPool.sol\":35907:35913  amount */\n      dup6\n      swap1\n        /* \"FlattenedPool.sol\":35915:35930  block.timestamp */\n      timestamp\n      swap1\n        /* \"FlattenedPool.sol\":35870:35931  Reinvest(msg.sender, TokenType.USDC, amount, block.timestamp) */\n      tag_423\n      jump\t// in\n        /* \"FlattenedPool.sol\":24266:24426  function setLockupPeriod(uint256 newPeriod) external onlyRole(ADMIN_ROLE) {... */\n    tag_339:\n      0x00\n      dup1\n      mload\n      0x20\n      data_cb864c43dd5d441bb6271f424f11befa622c032dfd374d226e26fbbdb782b8f8\n      dup4\n      codecopy\n      dup2\n      mload\n      swap2\n      mstore\n        /* \"FlattenedPool.sol\":8882:8898  _checkRole(role) */\n      tag_834\n        /* \"FlattenedPool.sol\":8893:8897  role */\n      dup2\n        /* \"FlattenedPool.sol\":8882:8892  _checkRole */\n      tag_405\n        /* \"FlattenedPool.sol\":8882:8898  _checkRole(role) */\n      jump\t// in\n    tag_834:\n        /* \"FlattenedPool.sol\":24350:24362  lockupPeriod */\n      0x02\n        /* \"FlattenedPool.sol\":24350:24374  lockupPeriod = newPeriod */\n      dup3\n      swap1\n      sstore\n        /* \"FlattenedPool.sol\":24389:24419  LockupPeriodChanged(newPeriod) */\n      mload(0x40)\n        /* \"#utility.yul\":1131:1156   */\n      dup3\n      dup2\n      mstore\n        /* \"FlattenedPool.sol\":24389:24419  LockupPeriodChanged(newPeriod) */\n      0xc5e00a325524bc148ddc05bb642b804e9ae1dfc670c217ed3c4c6595f7427ef4\n      swap1\n        /* \"#utility.yul\":1119:1121   */\n      0x20\n        /* \"#utility.yul\":1104:1122   */\n      add\n        /* \"FlattenedPool.sol\":24389:24419  LockupPeriodChanged(newPeriod) */\n      tag_759\n        /* \"#utility.yul\":985:1162   */\n      jump\n        /* \"FlattenedPool.sol\":11060:11198  function revokeRole(bytes32 role, address account) public virtual onlyRole(getRoleAdmin(role)) {... */\n    tag_343:\n        /* \"FlattenedPool.sol\":10293:10300  bytes32 */\n      0x00\n        /* \"FlattenedPool.sol\":10319:10331  _roles[role] */\n      dup3\n      dup2\n      mstore\n      0x20\n      dup2\n      swap1\n      mstore\n      0x40\n      swap1\n      keccak256\n        /* \"FlattenedPool.sol\":10319:10341  _roles[role].adminRole */\n      0x01\n      add\n      sload\n        /* \"FlattenedPool.sol\":8882:8898  _checkRole(role) */\n      tag_839\n        /* \"FlattenedPool.sol\":8893:8897  role */\n      dup2\n        /* \"FlattenedPool.sol\":8882:8892  _checkRole */\n      tag_405\n        /* \"FlattenedPool.sol\":8882:8898  _checkRole(role) */\n      jump\t// in\n    tag_839:\n        /* \"FlattenedPool.sol\":11165:11191  _revokeRole(role, account) */\n      tag_494\n        /* \"FlattenedPool.sol\":11177:11181  role */\n      dup4\n        /* \"FlattenedPool.sol\":11183:11190  account */\n      dup4\n        /* \"FlattenedPool.sol\":11165:11176  _revokeRole */\n      tag_501\n        /* \"FlattenedPool.sol\":11165:11191  _revokeRole(role, account) */\n      jump\t// in\n        /* \"FlattenedPool.sol\":32184:32509  function injectUtilityUSDC(uint256 amount) external onlyRole(UTILITY_INJECTOR_ROLE) {... */\n    tag_347:\n        /* \"FlattenedPool.sol\":20923:20957  keccak256(\"UTILITY_INJECTOR_ROLE\") */\n      0xf60566c40710959d8d30b6067ce3c53c757bec78eecb0e46b83c7f8194ffae37\n        /* \"FlattenedPool.sol\":8882:8898  _checkRole(role) */\n      tag_843\n        /* \"FlattenedPool.sol\":8893:8897  role */\n      dup2\n        /* \"FlattenedPool.sol\":8882:8892  _checkRole */\n      tag_405\n        /* \"FlattenedPool.sol\":8882:8898  _checkRole(role) */\n      jump\t// in\n    tag_843:\n        /* \"FlattenedPool.sol\":32295:32296  0 */\n      0x00\n        /* \"FlattenedPool.sol\":32286:32292  amount */\n      dup3\n        /* \"FlattenedPool.sol\":32286:32296  amount > 0 */\n      gt\n        /* \"FlattenedPool.sol\":32278:32313  require(amount > 0, \"No USDC sent\") */\n      tag_845\n      jumpi\n      mload(0x40)\n      shl(0xe5, 0x461bcd)\n      dup2\n      mstore\n        /* \"#utility.yul\":19997:19999   */\n      0x20\n        /* \"FlattenedPool.sol\":32278:32313  require(amount > 0, \"No USDC sent\") */\n      0x04\n      dup3\n      add\n        /* \"#utility.yul\":19979:20000   */\n      mstore\n        /* \"#utility.yul\":20036:20038   */\n      0x0c\n        /* \"#utility.yul\":20016:20034   */\n      0x24\n      dup3\n      add\n        /* \"#utility.yul\":20009:20039   */\n      mstore\n      shl(0xa2, 0x139bc81554d110c81cd95b9d)\n        /* \"#utility.yul\":20055:20073   */\n      0x44\n      dup3\n      add\n        /* \"#utility.yul\":20048:20090   */\n      mstore\n        /* \"#utility.yul\":20107:20125   */\n      0x64\n      add\n        /* \"FlattenedPool.sol\":32278:32313  require(amount > 0, \"No USDC sent\") */\n      tag_415\n        /* \"#utility.yul\":19795:20131   */\n      jump\n        /* \"FlattenedPool.sol\":32278:32313  require(amount > 0, \"No USDC sent\") */\n    tag_845:\n        /* \"FlattenedPool.sol\":32323:32383  IERC20(USDC).transferFrom(msg.sender, address(this), amount) */\n      mload(0x40)\n      shl(0xe0, 0x23b872dd)\n      dup2\n      mstore\n        /* \"FlattenedPool.sol\":32349:32359  msg.sender */\n      caller\n        /* \"FlattenedPool.sol\":32323:32383  IERC20(USDC).transferFrom(msg.sender, address(this), amount) */\n      0x04\n      dup3\n      add\n        /* \"#utility.yul\":20399:20433   */\n      mstore\n        /* \"FlattenedPool.sol\":32369:32373  this */\n      address\n        /* \"#utility.yul\":20449:20467   */\n      0x24\n      dup3\n      add\n        /* \"#utility.yul\":20442:20485   */\n      mstore\n        /* \"#utility.yul\":20501:20519   */\n      0x44\n      dup2\n      add\n        /* \"#utility.yul\":20494:20528   */\n      dup4\n      swap1\n      mstore\n        /* \"FlattenedPool.sol\":20218:20260  0x833589fCD6eDb6E08f4c7C32D4f71b54bdA02913 */\n      0x833589fcd6edb6e08f4c7c32d4f71b54bda02913\n      swap1\n        /* \"FlattenedPool.sol\":32323:32348  IERC20(USDC).transferFrom */\n      0x23b872dd\n      swap1\n        /* \"#utility.yul\":20311:20329   */\n      0x64\n      add\n        /* \"FlattenedPool.sol\":32323:32383  IERC20(USDC).transferFrom(msg.sender, address(this), amount) */\n      0x20\n      mload(0x40)\n      dup1\n      dup4\n      sub\n      dup2\n      0x00\n      dup8\n      gas\n      call\n      iszero\n      dup1\n      iszero\n      tag_851\n      jumpi\n      returndatasize\n      0x00\n      dup1\n      returndatacopy\n      revert(0x00, returndatasize)\n    tag_851:\n      pop\n      pop\n      pop\n      pop\n      mload(0x40)\n      returndatasize\n      not(0x1f)\n      0x1f\n      dup3\n      add\n      and\n      dup3\n      add\n      dup1\n      0x40\n      mstore\n      pop\n      dup2\n      add\n      swap1\n      tag_852\n      swap2\n      swap1\n      tag_484\n      jump\t// in\n    tag_852:\n      pop\n        /* \"FlattenedPool.sol\":32413:32419  amount */\n      dup2\n        /* \"FlattenedPool.sol\":32393:32409  totalUtilityUSDC */\n      0x17\n      0x00\n        /* \"FlattenedPool.sol\":32393:32419  totalUtilityUSDC += amount */\n      dup3\n      dup3\n      sload\n      tag_853\n      swap2\n      swap1\n      tag_420\n      jump\t// in\n    tag_853:\n      swap1\n      swap2\n      sstore\n      pop\n      pop\n        /* \"FlattenedPool.sol\":32434:32502  UtilityInjected(msg.sender, TokenType.USDC, amount, block.timestamp) */\n      mload(0x40)\n        /* \"FlattenedPool.sol\":32450:32460  msg.sender */\n      caller\n      swap1\n        /* \"FlattenedPool.sol\":32434:32502  UtilityInjected(msg.sender, TokenType.USDC, amount, block.timestamp) */\n      0x8bafec96fcffb6f12596b4635c76397b7bc1f363b22c49c13136b63677323dcc\n      swap1\n      tag_854\n      swap1\n        /* \"FlattenedPool.sol\":32462:32476  TokenType.USDC */\n      0x01\n      swap1\n        /* \"FlattenedPool.sol\":32478:32484  amount */\n      dup7\n      swap1\n        /* \"FlattenedPool.sol\":32486:32501  block.timestamp */\n      timestamp\n      swap1\n        /* \"FlattenedPool.sol\":32434:32502  UtilityInjected(msg.sender, TokenType.USDC, amount, block.timestamp) */\n      tag_423\n      jump\t// in\n    tag_854:\n      mload(0x40)\n      dup1\n      swap2\n      sub\n      swap1\n      log2\n        /* \"FlattenedPool.sol\":32184:32509  function injectUtilityUSDC(uint256 amount) external onlyRole(UTILITY_INJECTOR_ROLE) {... */\n      pop\n      pop\n      jump\t// out\n        /* \"FlattenedPool.sol\":31300:31872  function enableGlobalLiquidation() external onlyRole(ADMIN_ROLE) {... */\n    tag_350:\n      0x00\n      dup1\n      mload\n      0x20\n      data_cb864c43dd5d441bb6271f424f11befa622c032dfd374d226e26fbbdb782b8f8\n      dup4\n      codecopy\n      dup2\n      mload\n      swap2\n      mstore\n        /* \"FlattenedPool.sol\":8882:8898  _checkRole(role) */\n      tag_856\n        /* \"FlattenedPool.sol\":8893:8897  role */\n      dup2\n        /* \"FlattenedPool.sol\":8882:8892  _checkRole */\n      tag_405\n        /* \"FlattenedPool.sol\":8882:8898  _checkRole(role) */\n      jump\t// in\n    tag_856:\n        /* \"FlattenedPool.sol\":31384:31408  globalLiquidationEnabled */\n      sload(0x05)\n      0x01000000\n      swap1\n      div\n      0xff\n      and\n        /* \"FlattenedPool.sol\":31383:31408  !globalLiquidationEnabled */\n      iszero\n        /* \"FlattenedPool.sol\":31375:31428  require(!globalLiquidationEnabled, \"Already enabled\") */\n      tag_858\n      jumpi\n      mload(0x40)\n      shl(0xe5, 0x461bcd)\n      dup2\n      mstore\n        /* \"#utility.yul\":20741:20743   */\n      0x20\n        /* \"FlattenedPool.sol\":31375:31428  require(!globalLiquidationEnabled, \"Already enabled\") */\n      0x04\n      dup3\n      add\n        /* \"#utility.yul\":20723:20744   */\n      mstore\n        /* \"#utility.yul\":20780:20782   */\n      0x0f\n        /* \"#utility.yul\":20760:20778   */\n      0x24\n      dup3\n      add\n        /* \"#utility.yul\":20753:20783   */\n      mstore\n        /* \"#utility.yul\":20819:20836   */\n      0x416c726561647920656e61626c65640000000000000000000000000000000000\n        /* \"#utility.yul\":20799:20817   */\n      0x44\n      dup3\n      add\n        /* \"#utility.yul\":20792:20837   */\n      mstore\n        /* \"#utility.yul\":20854:20872   */\n      0x64\n      add\n        /* \"FlattenedPool.sol\":31375:31428  require(!globalLiquidationEnabled, \"Already enabled\") */\n      tag_415\n        /* \"#utility.yul\":20539:20878   */\n      jump\n        /* \"FlattenedPool.sol\":31375:31428  require(!globalLiquidationEnabled, \"Already enabled\") */\n    tag_858:\n        /* \"FlattenedPool.sol\":31438:31462  globalLiquidationEnabled */\n      0x05\n        /* \"FlattenedPool.sol\":31438:31469  globalLiquidationEnabled = true */\n      dup1\n      sload\n      not(0xff000000)\n      and\n      0x01000000\n      or\n      swap1\n      sstore\n        /* \"FlattenedPool.sol\":31508:31523  block.timestamp */\n      timestamp\n        /* \"FlattenedPool.sol\":31479:31505  globalLiquidationTimestamp */\n      0x06\n        /* \"FlattenedPool.sol\":31479:31523  globalLiquidationTimestamp = block.timestamp */\n      sstore\n        /* \"FlattenedPool.sol\":31438:31469  globalLiquidationEnabled = true */\n      0x00\n        /* \"FlattenedPool.sol\":31533:31810  for(uint256 i=0; i<allUsers.length; i++){... */\n    tag_861:\n        /* \"FlattenedPool.sol\":31552:31560  allUsers */\n      0x0f\n        /* \"FlattenedPool.sol\":31552:31567  allUsers.length */\n      sload\n        /* \"FlattenedPool.sol\":31550:31567  i<allUsers.length */\n      dup2\n      lt\n        /* \"FlattenedPool.sol\":31533:31810  for(uint256 i=0; i<allUsers.length; i++){... */\n      iszero\n      tag_862\n      jumpi\n        /* \"FlattenedPool.sol\":31587:31617  DepositInfo[] storage deposits */\n      0x00\n        /* \"FlattenedPool.sol\":31620:31632  userDeposits */\n      0x08\n        /* \"FlattenedPool.sol\":31620:31645  userDeposits[allUsers[i]] */\n      0x00\n        /* \"FlattenedPool.sol\":31633:31641  allUsers */\n      0x0f\n        /* \"FlattenedPool.sol\":31642:31643  i */\n      dup5\n        /* \"FlattenedPool.sol\":31633:31644  allUsers[i] */\n      dup2\n      sload\n      dup2\n      lt\n      tag_865\n      jumpi\n      tag_865\n      tag_444\n      jump\t// in\n    tag_865:\n      0x00\n      swap2\n      dup3\n      mstore\n      0x20\n      dup1\n      dup4\n      keccak256\n      swap1\n      swap2\n      add\n      sload\n      sub(shl(0xa0, 0x01), 0x01)\n      and\n        /* \"FlattenedPool.sol\":31620:31645  userDeposits[allUsers[i]] */\n      dup4\n      mstore\n      dup3\n      add\n      swap3\n      swap1\n      swap3\n      mstore\n      0x40\n      add\n      dup2\n      keccak256\n      swap2\n      pop\n        /* \"FlattenedPool.sol\":31659:31800  for (uint256 j = 0; j < deposits.length; j++) {... */\n    tag_867:\n        /* \"FlattenedPool.sol\":31683:31698  deposits.length */\n      dup2\n      sload\n        /* \"FlattenedPool.sol\":31679:31698  j < deposits.length */\n      dup2\n      lt\n        /* \"FlattenedPool.sol\":31659:31800  for (uint256 j = 0; j < deposits.length; j++) {... */\n      iszero\n      tag_868\n      jumpi\n        /* \"FlattenedPool.sol\":31728:31736  deposits */\n      dup2\n        /* \"FlattenedPool.sol\":31737:31738  j */\n      dup2\n        /* \"FlattenedPool.sol\":31728:31739  deposits[j] */\n      dup2\n      sload\n      dup2\n      lt\n      tag_871\n      jumpi\n      tag_871\n      tag_444\n      jump\t// in\n    tag_871:\n      0x00\n      swap2\n      dup3\n      mstore\n      0x20\n      swap1\n      swap2\n      keccak256\n        /* \"FlattenedPool.sol\":31728:31749  deposits[j].withdrawn */\n      0x03\n        /* \"FlattenedPool.sol\":31728:31739  deposits[j] */\n      0x06\n      swap1\n      swap3\n      mul\n      add\n        /* \"FlattenedPool.sol\":31728:31749  deposits[j].withdrawn */\n      add\n      sload\n      0xff\n      and\n        /* \"FlattenedPool.sol\":31723:31785  if (!deposits[j].withdrawn) deposits[j].fullyRedeemable = true */\n      tag_873\n      jumpi\n        /* \"FlattenedPool.sol\":31781:31785  true */\n      0x01\n        /* \"FlattenedPool.sol\":31751:31759  deposits */\n      dup3\n        /* \"FlattenedPool.sol\":31760:31761  j */\n      dup3\n        /* \"FlattenedPool.sol\":31751:31762  deposits[j] */\n      dup2\n      sload\n      dup2\n      lt\n      tag_875\n      jumpi\n      tag_875\n      tag_444\n      jump\t// in\n    tag_875:\n      swap1\n      0x00\n      mstore\n      keccak256(0x00, 0x20)\n      swap1\n      0x06\n      mul\n      add\n        /* \"FlattenedPool.sol\":31751:31778  deposits[j].fullyRedeemable */\n      0x03\n      add\n      0x02\n        /* \"FlattenedPool.sol\":31751:31785  deposits[j].fullyRedeemable = true */\n      0x0100\n      exp\n      dup2\n      sload\n      dup2\n      0xff\n      mul\n      not\n      and\n      swap1\n      dup4\n      iszero\n      iszero\n      mul\n      or\n      swap1\n      sstore\n      pop\n        /* \"FlattenedPool.sol\":31723:31785  if (!deposits[j].withdrawn) deposits[j].fullyRedeemable = true */\n    tag_873:\n        /* \"FlattenedPool.sol\":31700:31703  j++ */\n      0x01\n      add\n        /* \"FlattenedPool.sol\":31659:31800  for (uint256 j = 0; j < deposits.length; j++) {... */\n      jump(tag_867)\n    tag_868:\n      pop\n      pop\n        /* \"FlattenedPool.sol\":31569:31572  i++ */\n      0x01\n      add\n        /* \"FlattenedPool.sol\":31533:31810  for(uint256 i=0; i<allUsers.length; i++){... */\n      jump(tag_861)\n    tag_862:\n      pop\n        /* \"FlattenedPool.sol\":31824:31865  GlobalLiquidationEnabled(block.timestamp) */\n      mload(0x40)\n        /* \"FlattenedPool.sol\":31849:31864  block.timestamp */\n      timestamp\n        /* \"#utility.yul\":1131:1156   */\n      dup2\n      mstore\n        /* \"FlattenedPool.sol\":31824:31865  GlobalLiquidationEnabled(block.timestamp) */\n      0x2388ceaed48d21bd0802856df41a22705f9046a67a817a047352aa3bbfe5c5d1\n      swap1\n        /* \"#utility.yul\":1119:1121   */\n      0x20\n        /* \"#utility.yul\":1104:1122   */\n      add\n        /* \"FlattenedPool.sol\":31824:31865  GlobalLiquidationEnabled(block.timestamp) */\n      mload(0x40)\n      dup1\n      swap2\n      sub\n      swap1\n      log1\n        /* \"FlattenedPool.sol\":31300:31872  function enableGlobalLiquidation() external onlyRole(ADMIN_ROLE) {... */\n      pop\n      jump\t// out\n        /* \"FlattenedPool.sol\":21821:21851  address[] public allDepositors */\n    tag_354:\n      0x11\n      dup2\n      dup2\n      sload\n      dup2\n      lt\n      tag_779\n      jumpi\n      0x00\n      dup1\n      revert\n        /* \"FlattenedPool.sol\":34234:34635  function claimUtilityETH() external nonReentrant {... */\n    tag_370:\n        /* \"FlattenedPool.sol\":18919:18940  _nonReentrantBefore() */\n      tag_881\n        /* \"FlattenedPool.sol\":18919:18938  _nonReentrantBefore */\n      tag_412\n        /* \"FlattenedPool.sol\":18919:18940  _nonReentrantBefore() */\n      jump\t// in\n    tag_881:\n        /* \"FlattenedPool.sol\":34334:34344  msg.sender */\n      caller\n        /* \"FlattenedPool.sol\":34293:34307  uint256 amount */\n      0x00\n        /* \"FlattenedPool.sol\":34310:34345  userClaimableUtilityETH[msg.sender] */\n      swap1\n      dup2\n      mstore\n        /* \"FlattenedPool.sol\":34310:34333  userClaimableUtilityETH */\n      0x0b\n        /* \"FlattenedPool.sol\":34310:34345  userClaimableUtilityETH[msg.sender] */\n      0x20\n      mstore\n      0x40\n      swap1\n      keccak256\n      sload\n        /* \"FlattenedPool.sol\":34363:34373  amount > 0 */\n      dup1\n        /* \"FlattenedPool.sol\":34355:34388  require(amount > 0, \"No utility\") */\n      tag_883\n      jumpi\n      mload(0x40)\n      shl(0xe5, 0x461bcd)\n      dup2\n      mstore\n        /* \"#utility.yul\":11659:11661   */\n      0x20\n        /* \"FlattenedPool.sol\":34355:34388  require(amount > 0, \"No utility\") */\n      0x04\n      dup3\n      add\n        /* \"#utility.yul\":11641:11662   */\n      mstore\n        /* \"#utility.yul\":11698:11700   */\n      0x0a\n        /* \"#utility.yul\":11678:11696   */\n      0x24\n      dup3\n      add\n        /* \"#utility.yul\":11671:11701   */\n      mstore\n      shl(0xb0, 0x4e6f207574696c697479)\n        /* \"#utility.yul\":11717:11735   */\n      0x44\n      dup3\n      add\n        /* \"#utility.yul\":11710:11750   */\n      mstore\n        /* \"#utility.yul\":11767:11785   */\n      0x64\n      add\n        /* \"FlattenedPool.sol\":34355:34388  require(amount > 0, \"No utility\") */\n      tag_415\n        /* \"#utility.yul\":11457:11791   */\n      jump\n        /* \"FlattenedPool.sol\":34355:34388  require(amount > 0, \"No utility\") */\n    tag_883:\n        /* \"FlattenedPool.sol\":34422:34432  msg.sender */\n      caller\n        /* \"FlattenedPool.sol\":34436:34437  0 */\n      0x00\n        /* \"FlattenedPool.sol\":34398:34433  userClaimableUtilityETH[msg.sender] */\n      dup2\n      dup2\n      mstore\n        /* \"FlattenedPool.sol\":34398:34421  userClaimableUtilityETH */\n      0x0b\n        /* \"FlattenedPool.sol\":34398:34433  userClaimableUtilityETH[msg.sender] */\n      0x20\n      mstore\n      0x40\n      dup1\n      dup3\n      keccak256\n        /* \"FlattenedPool.sol\":34398:34437  userClaimableUtilityETH[msg.sender] = 0 */\n      dup3\n      swap1\n      sstore\n        /* \"FlattenedPool.sol\":34466:34500  msg.sender.call{value: amount}(\"\") */\n      mload\n        /* \"FlattenedPool.sol\":34436:34437  0 */\n      swap1\n      swap2\n        /* \"FlattenedPool.sol\":34422:34432  msg.sender */\n      swap1\n        /* \"FlattenedPool.sol\":34489:34495  amount */\n      dup4\n      swap1\n        /* \"FlattenedPool.sol\":34436:34437  0 */\n      dup4\n        /* \"FlattenedPool.sol\":34466:34500  msg.sender.call{value: amount}(\"\") */\n      dup2\n        /* \"FlattenedPool.sol\":34436:34437  0 */\n      dup2\n        /* \"FlattenedPool.sol\":34466:34500  msg.sender.call{value: amount}(\"\") */\n      dup2\n        /* \"FlattenedPool.sol\":34489:34495  amount */\n      dup6\n        /* \"FlattenedPool.sol\":34422:34432  msg.sender */\n      dup8\n        /* \"FlattenedPool.sol\":34466:34500  msg.sender.call{value: amount}(\"\") */\n      gas\n      call\n      swap3\n      pop\n      pop\n      pop\n      returndatasize\n      dup1\n      0x00\n      dup2\n      eq\n      tag_888\n      jumpi\n      mload(0x40)\n      swap2\n      pop\n      and(add(returndatasize, 0x3f), not(0x1f))\n      dup3\n      add\n      0x40\n      mstore\n      returndatasize\n      dup3\n      mstore\n      returndatasize\n      0x00\n      0x20\n      dup5\n      add\n      returndatacopy\n      jump(tag_887)\n    tag_888:\n      0x60\n      swap2\n      pop\n    tag_887:\n      pop\n        /* \"FlattenedPool.sol\":34447:34500  (bool success, ) = msg.sender.call{value: amount}(\"\") */\n      pop\n      swap1\n      pop\n        /* \"FlattenedPool.sol\":34518:34525  success */\n      dup1\n        /* \"FlattenedPool.sol\":34510:34549  require(success, \"ETH transfer failed\") */\n      tag_889\n      jumpi\n      mload(0x40)\n      shl(0xe5, 0x461bcd)\n      dup2\n      mstore\n        /* \"#utility.yul\":13992:13994   */\n      0x20\n        /* \"FlattenedPool.sol\":34510:34549  require(success, \"ETH transfer failed\") */\n      0x04\n      dup3\n      add\n        /* \"#utility.yul\":13974:13995   */\n      mstore\n        /* \"#utility.yul\":14031:14033   */\n      0x13\n        /* \"#utility.yul\":14011:14029   */\n      0x24\n      dup3\n      add\n        /* \"#utility.yul\":14004:14034   */\n      mstore\n      shl(0x6a, 0x115512081d1c985b9cd9995c8819985a5b1959)\n        /* \"#utility.yul\":14050:14068   */\n      0x44\n      dup3\n      add\n        /* \"#utility.yul\":14043:14092   */\n      mstore\n        /* \"#utility.yul\":14109:14127   */\n      0x64\n      add\n        /* \"FlattenedPool.sol\":34510:34549  require(success, \"ETH transfer failed\") */\n      tag_415\n        /* \"#utility.yul\":13790:14133   */\n      jump\n        /* \"FlattenedPool.sol\":34510:34549  require(success, \"ETH transfer failed\") */\n    tag_889:\n        /* \"FlattenedPool.sol\":34577:34587  msg.sender */\n      caller\n      sub(shl(0xa0, 0x01), 0x01)\n        /* \"FlattenedPool.sol\":34564:34628  ClaimUtility(msg.sender, TokenType.ETH, amount, block.timestamp) */\n      and\n      0x6914793c7a82461acec66c7de7fdbbbf1f825c26bc2fe939b61f0e4f8964c2b5\n        /* \"FlattenedPool.sol\":34589:34602  TokenType.ETH */\n      0x00\n        /* \"FlattenedPool.sol\":34604:34610  amount */\n      dup5\n        /* \"FlattenedPool.sol\":34612:34627  block.timestamp */\n      timestamp\n        /* \"FlattenedPool.sol\":34564:34628  ClaimUtility(msg.sender, TokenType.ETH, amount, block.timestamp) */\n      mload(0x40)\n      tag_891\n      swap4\n      swap3\n      swap2\n      swap1\n      tag_423\n      jump\t// in\n    tag_891:\n      mload(0x40)\n      dup1\n      swap2\n      sub\n      swap1\n      log2\n        /* \"FlattenedPool.sol\":34283:34635  {... */\n      pop\n      pop\n        /* \"FlattenedPool.sol\":18961:18981  _nonReentrantAfter() */\n      tag_424\n        /* \"FlattenedPool.sol\":18276:18277  1 */\n      0x01\n        /* \"FlattenedPool.sol\":19487:19508  _status = NOT_ENTERED */\n      dup1\n      sstore\n        /* \"FlattenedPool.sol\":19307:19515  function _nonReentrantAfter() private {... */\n      jump\n        /* \"FlattenedPool.sol\":24432:24683  function setMaxCap(TokenType token, uint256 newCap) external onlyRole(ADMIN_ROLE) {... */\n    tag_392:\n      0x00\n      dup1\n      mload\n      0x20\n      data_cb864c43dd5d441bb6271f424f11befa622c032dfd374d226e26fbbdb782b8f8\n      dup4\n      codecopy\n      dup2\n      mload\n      swap2\n      mstore\n        /* \"FlattenedPool.sol\":8882:8898  _checkRole(role) */\n      tag_894\n        /* \"FlattenedPool.sol\":8893:8897  role */\n      dup2\n        /* \"FlattenedPool.sol\":8882:8892  _checkRole */\n      tag_405\n        /* \"FlattenedPool.sol\":8882:8898  _checkRole(role) */\n      jump\t// in\n    tag_894:\n        /* \"FlattenedPool.sol\":24537:24550  TokenType.ETH */\n      0x00\n        /* \"FlattenedPool.sol\":24528:24533  token */\n      dup4\n        /* \"FlattenedPool.sol\":24528:24550  token == TokenType.ETH */\n      0x01\n      dup2\n      gt\n      iszero\n      tag_899\n      jumpi\n      tag_899\n      tag_432\n      jump\t// in\n    tag_899:\n      sub\n        /* \"FlattenedPool.sol\":24524:24633  if (token == TokenType.ETH) maxCapETH = newCap;... */\n      tag_900\n      jumpi\n        /* \"FlattenedPool.sol\":24552:24561  maxCapETH */\n      0x03\n        /* \"FlattenedPool.sol\":24552:24570  maxCapETH = newCap */\n      dup3\n      swap1\n      sstore\n        /* \"FlattenedPool.sol\":24524:24633  if (token == TokenType.ETH) maxCapETH = newCap;... */\n      jump(tag_906)\n    tag_900:\n        /* \"FlattenedPool.sol\":24598:24612  TokenType.USDC */\n      0x01\n        /* \"FlattenedPool.sol\":24589:24594  token */\n      dup4\n        /* \"FlattenedPool.sol\":24589:24612  token == TokenType.USDC */\n      0x01\n      dup2\n      gt\n      iszero\n      tag_905\n      jumpi\n      tag_905\n      tag_432\n      jump\t// in\n    tag_905:\n      sub\n        /* \"FlattenedPool.sol\":24585:24633  if (token == TokenType.USDC) maxCapUSDC = newCap */\n      tag_906\n      jumpi\n        /* \"FlattenedPool.sol\":24614:24624  maxCapUSDC */\n      0x04\n        /* \"FlattenedPool.sol\":24614:24633  maxCapUSDC = newCap */\n      dup3\n      swap1\n      sstore\n        /* \"FlattenedPool.sol\":24585:24633  if (token == TokenType.USDC) maxCapUSDC = newCap */\n    tag_906:\n        /* \"FlattenedPool.sol\":24648:24676  MaxCapChanged(token, newCap) */\n      0x5d7976bccd4b396c1a1a0020032e62bf8a381bcffc61e69a13ea61761b757218\n        /* \"FlattenedPool.sol\":24662:24667  token */\n      dup4\n        /* \"FlattenedPool.sol\":24669:24675  newCap */\n      dup4\n        /* \"FlattenedPool.sol\":24648:24676  MaxCapChanged(token, newCap) */\n      mload(0x40)\n      tag_627\n      swap3\n      swap2\n      swap1\n      tag_908\n      jump\t// in\n        /* \"FlattenedPool.sol\":25854:26254  function depositETH() external payable nonReentrant whenDepositsNotPaused {... */\n    tag_394:\n        /* \"FlattenedPool.sol\":18919:18940  _nonReentrantBefore() */\n      tag_910\n        /* \"FlattenedPool.sol\":18919:18938  _nonReentrantBefore */\n      tag_412\n        /* \"FlattenedPool.sol\":18919:18940  _nonReentrantBefore() */\n      jump\t// in\n    tag_910:\n        /* \"FlattenedPool.sol\":23510:23524  pausedDeposits */\n      and(0xff, sload(0x05))\n        /* \"FlattenedPool.sol\":23509:23524  !pausedDeposits */\n      iszero\n        /* \"FlattenedPool.sol\":23501:23544  require(!pausedDeposits, \"Deposits paused\") */\n      tag_912\n      jumpi\n      mload(0x40)\n      shl(0xe5, 0x461bcd)\n      dup2\n      mstore\n        /* \"#utility.yul\":21368:21370   */\n      0x20\n        /* \"FlattenedPool.sol\":23501:23544  require(!pausedDeposits, \"Deposits paused\") */\n      0x04\n      dup3\n      add\n        /* \"#utility.yul\":21350:21371   */\n      mstore\n        /* \"#utility.yul\":21407:21409   */\n      0x0f\n        /* \"#utility.yul\":21387:21405   */\n      0x24\n      dup3\n      add\n        /* \"#utility.yul\":21380:21410   */\n      mstore\n      shl(0x8a, 0x11195c1bdcda5d1cc81c185d5cd959)\n        /* \"#utility.yul\":21426:21444   */\n      0x44\n      dup3\n      add\n        /* \"#utility.yul\":21419:21464   */\n      mstore\n        /* \"#utility.yul\":21481:21499   */\n      0x64\n      add\n        /* \"FlattenedPool.sol\":23501:23544  require(!pausedDeposits, \"Deposits paused\") */\n      tag_415\n        /* \"#utility.yul\":21166:21505   */\n      jump\n        /* \"FlattenedPool.sol\":23501:23544  require(!pausedDeposits, \"Deposits paused\") */\n    tag_912:\n        /* \"FlattenedPool.sol\":25958:25959  0 */\n      0x00\n        /* \"FlattenedPool.sol\":25946:25955  msg.value */\n      callvalue\n        /* \"FlattenedPool.sol\":25946:25959  msg.value > 0 */\n      gt\n        /* \"FlattenedPool.sol\":25938:25975  require(msg.value > 0, \"No ETH sent\") */\n      tag_916\n      jumpi\n      mload(0x40)\n      shl(0xe5, 0x461bcd)\n      dup2\n      mstore\n        /* \"#utility.yul\":16532:16534   */\n      0x20\n        /* \"FlattenedPool.sol\":25938:25975  require(msg.value > 0, \"No ETH sent\") */\n      0x04\n      dup3\n      add\n        /* \"#utility.yul\":16514:16535   */\n      mstore\n        /* \"#utility.yul\":16571:16573   */\n      0x0b\n        /* \"#utility.yul\":16551:16569   */\n      0x24\n      dup3\n      add\n        /* \"#utility.yul\":16544:16574   */\n      mstore\n      shl(0xaa, 0x139bc8115512081cd95b9d)\n        /* \"#utility.yul\":16590:16608   */\n      0x44\n      dup3\n      add\n        /* \"#utility.yul\":16583:16624   */\n      mstore\n        /* \"#utility.yul\":16641:16659   */\n      0x64\n      add\n        /* \"FlattenedPool.sol\":25938:25975  require(msg.value > 0, \"No ETH sent\") */\n      tag_415\n        /* \"#utility.yul\":16330:16665   */\n      jump\n        /* \"FlattenedPool.sol\":25938:25975  require(msg.value > 0, \"No ETH sent\") */\n    tag_916:\n        /* \"FlattenedPool.sol\":26026:26035  maxCapETH */\n      sload(0x03)\n        /* \"FlattenedPool.sol\":26013:26022  msg.value */\n      callvalue\n        /* \"FlattenedPool.sol\":25993:26010  totalDepositedETH */\n      sload(0x12)\n        /* \"FlattenedPool.sol\":25993:26022  totalDepositedETH + msg.value */\n      tag_918\n      swap2\n      swap1\n      tag_420\n      jump\t// in\n    tag_918:\n        /* \"FlattenedPool.sol\":25993:26035  totalDepositedETH + msg.value <= maxCapETH */\n      gt\n      iszero\n        /* \"FlattenedPool.sol\":25985:26051  require(totalDepositedETH + msg.value <= maxCapETH, \"Cap reached\") */\n      tag_919\n      jumpi\n      mload(0x40)\n      shl(0xe5, 0x461bcd)\n      dup2\n      mstore\n        /* \"#utility.yul\":21712:21714   */\n      0x20\n        /* \"FlattenedPool.sol\":25985:26051  require(totalDepositedETH + msg.value <= maxCapETH, \"Cap reached\") */\n      0x04\n      dup3\n      add\n        /* \"#utility.yul\":21694:21715   */\n      mstore\n        /* \"#utility.yul\":21751:21753   */\n      0x0b\n        /* \"#utility.yul\":21731:21749   */\n      0x24\n      dup3\n      add\n        /* \"#utility.yul\":21724:21754   */\n      mstore\n      shl(0xaa, 0x10d85c081c995858da1959)\n        /* \"#utility.yul\":21770:21788   */\n      0x44\n      dup3\n      add\n        /* \"#utility.yul\":21763:21804   */\n      mstore\n        /* \"#utility.yul\":21821:21839   */\n      0x64\n      add\n        /* \"FlattenedPool.sol\":25985:26051  require(totalDepositedETH + msg.value <= maxCapETH, \"Cap reached\") */\n      tag_415\n        /* \"#utility.yul\":21510:21845   */\n      jump\n        /* \"FlattenedPool.sol\":25985:26051  require(totalDepositedETH + msg.value <= maxCapETH, \"Cap reached\") */\n    tag_919:\n        /* \"FlattenedPool.sol\":26065:26081  whitelistEnabled */\n      sload(0x05)\n      0x010000\n      swap1\n      div\n      0xff\n      and\n        /* \"FlattenedPool.sol\":26061:26136  if (whitelistEnabled) require(isWhitelisted[msg.sender], \"Not whitelisted\") */\n      iszero\n      tag_923\n      jumpi\n        /* \"FlattenedPool.sol\":26105:26115  msg.sender */\n      caller\n        /* \"FlattenedPool.sol\":26091:26116  isWhitelisted[msg.sender] */\n      0x00\n      swap1\n      dup2\n      mstore\n        /* \"FlattenedPool.sol\":26091:26104  isWhitelisted */\n      0x09\n        /* \"FlattenedPool.sol\":26091:26116  isWhitelisted[msg.sender] */\n      0x20\n      mstore\n      0x40\n      swap1\n      keccak256\n      sload\n      0xff\n      and\n        /* \"FlattenedPool.sol\":26083:26136  require(isWhitelisted[msg.sender], \"Not whitelisted\") */\n      tag_923\n      jumpi\n      mload(0x40)\n      shl(0xe5, 0x461bcd)\n      dup2\n      mstore\n        /* \"#utility.yul\":22052:22054   */\n      0x20\n        /* \"FlattenedPool.sol\":26083:26136  require(isWhitelisted[msg.sender], \"Not whitelisted\") */\n      0x04\n      dup3\n      add\n        /* \"#utility.yul\":22034:22055   */\n      mstore\n        /* \"#utility.yul\":22091:22093   */\n      0x0f\n        /* \"#utility.yul\":22071:22089   */\n      0x24\n      dup3\n      add\n        /* \"#utility.yul\":22064:22094   */\n      mstore\n      shl(0x8a, 0x139bdd081dda1a5d195b1a5cdd1959)\n        /* \"#utility.yul\":22110:22128   */\n      0x44\n      dup3\n      add\n        /* \"#utility.yul\":22103:22148   */\n      mstore\n        /* \"#utility.yul\":22165:22183   */\n      0x64\n      add\n        /* \"FlattenedPool.sol\":26083:26136  require(isWhitelisted[msg.sender], \"Not whitelisted\") */\n      tag_415\n        /* \"#utility.yul\":21850:22189   */\n      jump\n        /* \"FlattenedPool.sol\":26083:26136  require(isWhitelisted[msg.sender], \"Not whitelisted\") */\n    tag_923:\n        /* \"FlattenedPool.sol\":26146:26207  _registerDeposit(msg.sender, TokenType.ETH, msg.value, false) */\n      tag_926\n        /* \"FlattenedPool.sol\":26163:26173  msg.sender */\n      caller\n        /* \"FlattenedPool.sol\":26175:26188  TokenType.ETH */\n      0x00\n        /* \"FlattenedPool.sol\":26190:26199  msg.value */\n      callvalue\n        /* \"FlattenedPool.sol\":26201:26206  false */\n      0x00\n        /* \"FlattenedPool.sol\":26146:26162  _registerDeposit */\n      tag_418\n        /* \"FlattenedPool.sol\":26146:26207  _registerDeposit(msg.sender, TokenType.ETH, msg.value, false) */\n      jump\t// in\n    tag_926:\n        /* \"FlattenedPool.sol\":26238:26247  msg.value */\n      callvalue\n        /* \"FlattenedPool.sol\":26217:26234  totalDepositedETH */\n      0x12\n      0x00\n        /* \"FlattenedPool.sol\":26217:26247  totalDepositedETH += msg.value */\n      dup3\n      dup3\n      sload\n      tag_927\n      swap2\n      swap1\n      tag_420\n      jump\t// in\n    tag_927:\n      swap1\n      swap2\n      sstore\n      pop\n      pop\n        /* \"FlattenedPool.sol\":18276:18277  1 */\n      0x01\n        /* \"FlattenedPool.sol\":19487:19508  _status = NOT_ENTERED */\n      dup1\n      sstore\n        /* \"FlattenedPool.sol\":35031:35478  function reinvestUtilityETH() external nonReentrant {... */\n      jump\t// out\n        /* \"FlattenedPool.sol\":26260:26730  function depositUSDC(uint256 amount) external nonReentrant whenDepositsNotPaused {... */\n    tag_398:\n        /* \"FlattenedPool.sol\":18919:18940  _nonReentrantBefore() */\n      tag_930\n        /* \"FlattenedPool.sol\":18919:18938  _nonReentrantBefore */\n      tag_412\n        /* \"FlattenedPool.sol\":18919:18940  _nonReentrantBefore() */\n      jump\t// in\n    tag_930:\n        /* \"FlattenedPool.sol\":23510:23524  pausedDeposits */\n      and(0xff, sload(0x05))\n        /* \"FlattenedPool.sol\":23509:23524  !pausedDeposits */\n      iszero\n        /* \"FlattenedPool.sol\":23501:23544  require(!pausedDeposits, \"Deposits paused\") */\n      tag_932\n      jumpi\n      mload(0x40)\n      shl(0xe5, 0x461bcd)\n      dup2\n      mstore\n        /* \"#utility.yul\":21368:21370   */\n      0x20\n        /* \"FlattenedPool.sol\":23501:23544  require(!pausedDeposits, \"Deposits paused\") */\n      0x04\n      dup3\n      add\n        /* \"#utility.yul\":21350:21371   */\n      mstore\n        /* \"#utility.yul\":21407:21409   */\n      0x0f\n        /* \"#utility.yul\":21387:21405   */\n      0x24\n      dup3\n      add\n        /* \"#utility.yul\":21380:21410   */\n      mstore\n      shl(0x8a, 0x11195c1bdcda5d1cc81c185d5cd959)\n        /* \"#utility.yul\":21426:21444   */\n      0x44\n      dup3\n      add\n        /* \"#utility.yul\":21419:21464   */\n      mstore\n        /* \"#utility.yul\":21481:21499   */\n      0x64\n      add\n        /* \"FlattenedPool.sol\":23501:23544  require(!pausedDeposits, \"Deposits paused\") */\n      tag_415\n        /* \"#utility.yul\":21166:21505   */\n      jump\n        /* \"FlattenedPool.sol\":23501:23544  require(!pausedDeposits, \"Deposits paused\") */\n    tag_932:\n        /* \"FlattenedPool.sol\":26368:26369  0 */\n      0x00\n        /* \"FlattenedPool.sol\":26359:26365  amount */\n      dup2\n        /* \"FlattenedPool.sol\":26359:26369  amount > 0 */\n      gt\n        /* \"FlattenedPool.sol\":26351:26386  require(amount > 0, \"No USDC sent\") */\n      tag_935\n      jumpi\n      mload(0x40)\n      shl(0xe5, 0x461bcd)\n      dup2\n      mstore\n        /* \"#utility.yul\":19997:19999   */\n      0x20\n        /* \"FlattenedPool.sol\":26351:26386  require(amount > 0, \"No USDC sent\") */\n      0x04\n      dup3\n      add\n        /* \"#utility.yul\":19979:20000   */\n      mstore\n        /* \"#utility.yul\":20036:20038   */\n      0x0c\n        /* \"#utility.yul\":20016:20034   */\n      0x24\n      dup3\n      add\n        /* \"#utility.yul\":20009:20039   */\n      mstore\n      shl(0xa2, 0x139bc81554d110c81cd95b9d)\n        /* \"#utility.yul\":20055:20073   */\n      0x44\n      dup3\n      add\n        /* \"#utility.yul\":20048:20090   */\n      mstore\n        /* \"#utility.yul\":20107:20125   */\n      0x64\n      add\n        /* \"FlattenedPool.sol\":26351:26386  require(amount > 0, \"No USDC sent\") */\n      tag_415\n        /* \"#utility.yul\":19795:20131   */\n      jump\n        /* \"FlattenedPool.sol\":26351:26386  require(amount > 0, \"No USDC sent\") */\n    tag_935:\n        /* \"FlattenedPool.sol\":26435:26445  maxCapUSDC */\n      sload(0x04)\n        /* \"FlattenedPool.sol\":26425:26431  amount */\n      dup2\n        /* \"FlattenedPool.sol\":26404:26422  totalDepositedUSDC */\n      sload(0x13)\n        /* \"FlattenedPool.sol\":26404:26431  totalDepositedUSDC + amount */\n      tag_937\n      swap2\n      swap1\n      tag_420\n      jump\t// in\n    tag_937:\n        /* \"FlattenedPool.sol\":26404:26445  totalDepositedUSDC + amount <= maxCapUSDC */\n      gt\n      iszero\n        /* \"FlattenedPool.sol\":26396:26461  require(totalDepositedUSDC + amount <= maxCapUSDC, \"Cap reached\") */\n      tag_938\n      jumpi\n      mload(0x40)\n      shl(0xe5, 0x461bcd)\n      dup2\n      mstore\n        /* \"#utility.yul\":21712:21714   */\n      0x20\n        /* \"FlattenedPool.sol\":26396:26461  require(totalDepositedUSDC + amount <= maxCapUSDC, \"Cap reached\") */\n      0x04\n      dup3\n      add\n        /* \"#utility.yul\":21694:21715   */\n      mstore\n        /* \"#utility.yul\":21751:21753   */\n      0x0b\n        /* \"#utility.yul\":21731:21749   */\n      0x24\n      dup3\n      add\n        /* \"#utility.yul\":21724:21754   */\n      mstore\n      shl(0xaa, 0x10d85c081c995858da1959)\n        /* \"#utility.yul\":21770:21788   */\n      0x44\n      dup3\n      add\n        /* \"#utility.yul\":21763:21804   */\n      mstore\n        /* \"#utility.yul\":21821:21839   */\n      0x64\n      add\n        /* \"FlattenedPool.sol\":26396:26461  require(totalDepositedUSDC + amount <= maxCapUSDC, \"Cap reached\") */\n      tag_415\n        /* \"#utility.yul\":21510:21845   */\n      jump\n        /* \"FlattenedPool.sol\":26396:26461  require(totalDepositedUSDC + amount <= maxCapUSDC, \"Cap reached\") */\n    tag_938:\n        /* \"FlattenedPool.sol\":26475:26491  whitelistEnabled */\n      sload(0x05)\n      0x010000\n      swap1\n      div\n      0xff\n      and\n        /* \"FlattenedPool.sol\":26471:26546  if (whitelistEnabled) require(isWhitelisted[msg.sender], \"Not whitelisted\") */\n      iszero\n      tag_941\n      jumpi\n        /* \"FlattenedPool.sol\":26515:26525  msg.sender */\n      caller\n        /* \"FlattenedPool.sol\":26501:26526  isWhitelisted[msg.sender] */\n      0x00\n      swap1\n      dup2\n      mstore\n        /* \"FlattenedPool.sol\":26501:26514  isWhitelisted */\n      0x09\n        /* \"FlattenedPool.sol\":26501:26526  isWhitelisted[msg.sender] */\n      0x20\n      mstore\n      0x40\n      swap1\n      keccak256\n      sload\n      0xff\n      and\n        /* \"FlattenedPool.sol\":26493:26546  require(isWhitelisted[msg.sender], \"Not whitelisted\") */\n      tag_941\n      jumpi\n      mload(0x40)\n      shl(0xe5, 0x461bcd)\n      dup2\n      mstore\n        /* \"#utility.yul\":22052:22054   */\n      0x20\n        /* \"FlattenedPool.sol\":26493:26546  require(isWhitelisted[msg.sender], \"Not whitelisted\") */\n      0x04\n      dup3\n      add\n        /* \"#utility.yul\":22034:22055   */\n      mstore\n        /* \"#utility.yul\":22091:22093   */\n      0x0f\n        /* \"#utility.yul\":22071:22089   */\n      0x24\n      dup3\n      add\n        /* \"#utility.yul\":22064:22094   */\n      mstore\n      shl(0x8a, 0x139bdd081dda1a5d195b1a5cdd1959)\n        /* \"#utility.yul\":22110:22128   */\n      0x44\n      dup3\n      add\n        /* \"#utility.yul\":22103:22148   */\n      mstore\n        /* \"#utility.yul\":22165:22183   */\n      0x64\n      add\n        /* \"FlattenedPool.sol\":26493:26546  require(isWhitelisted[msg.sender], \"Not whitelisted\") */\n      tag_415\n        /* \"#utility.yul\":21850:22189   */\n      jump\n        /* \"FlattenedPool.sol\":26493:26546  require(isWhitelisted[msg.sender], \"Not whitelisted\") */\n    tag_941:\n        /* \"FlattenedPool.sol\":26556:26616  IERC20(USDC).transferFrom(msg.sender, address(this), amount) */\n      mload(0x40)\n      shl(0xe0, 0x23b872dd)\n      dup2\n      mstore\n        /* \"FlattenedPool.sol\":26582:26592  msg.sender */\n      caller\n        /* \"FlattenedPool.sol\":26556:26616  IERC20(USDC).transferFrom(msg.sender, address(this), amount) */\n      0x04\n      dup3\n      add\n        /* \"#utility.yul\":20399:20433   */\n      mstore\n        /* \"FlattenedPool.sol\":26602:26606  this */\n      address\n        /* \"#utility.yul\":20449:20467   */\n      0x24\n      dup3\n      add\n        /* \"#utility.yul\":20442:20485   */\n      mstore\n        /* \"#utility.yul\":20501:20519   */\n      0x44\n      dup2\n      add\n        /* \"#utility.yul\":20494:20528   */\n      dup3\n      swap1\n      mstore\n        /* \"FlattenedPool.sol\":20218:20260  0x833589fCD6eDb6E08f4c7C32D4f71b54bdA02913 */\n      0x833589fcd6edb6e08f4c7c32d4f71b54bda02913\n      swap1\n        /* \"FlattenedPool.sol\":26556:26581  IERC20(USDC).transferFrom */\n      0x23b872dd\n      swap1\n        /* \"#utility.yul\":20311:20329   */\n      0x64\n      add\n        /* \"FlattenedPool.sol\":26556:26616  IERC20(USDC).transferFrom(msg.sender, address(this), amount) */\n      0x20\n      mload(0x40)\n      dup1\n      dup4\n      sub\n      dup2\n      0x00\n      dup8\n      gas\n      call\n      iszero\n      dup1\n      iszero\n      tag_945\n      jumpi\n      returndatasize\n      0x00\n      dup1\n      returndatacopy\n      revert(0x00, returndatasize)\n    tag_945:\n      pop\n      pop\n      pop\n      pop\n      mload(0x40)\n      returndatasize\n      not(0x1f)\n      0x1f\n      dup3\n      add\n      and\n      dup3\n      add\n      dup1\n      0x40\n      mstore\n      pop\n      dup2\n      add\n      swap1\n      tag_946\n      swap2\n      swap1\n      tag_484\n      jump\t// in\n    tag_946:\n      pop\n        /* \"FlattenedPool.sol\":26626:26685  _registerDeposit(msg.sender, TokenType.USDC, amount, false) */\n      tag_947\n        /* \"FlattenedPool.sol\":26643:26653  msg.sender */\n      caller\n        /* \"FlattenedPool.sol\":26655:26669  TokenType.USDC */\n      0x01\n        /* \"FlattenedPool.sol\":26671:26677  amount */\n      dup4\n        /* \"FlattenedPool.sol\":26679:26684  false */\n      0x00\n        /* \"FlattenedPool.sol\":26626:26642  _registerDeposit */\n      tag_418\n        /* \"FlattenedPool.sol\":26626:26685  _registerDeposit(msg.sender, TokenType.USDC, amount, false) */\n      jump\t// in\n    tag_947:\n        /* \"FlattenedPool.sol\":26717:26723  amount */\n      dup1\n        /* \"FlattenedPool.sol\":26695:26713  totalDepositedUSDC */\n      0x13\n      0x00\n        /* \"FlattenedPool.sol\":26695:26723  totalDepositedUSDC += amount */\n      dup3\n      dup3\n      sload\n      tag_948\n      swap2\n      swap1\n      tag_420\n      jump\t// in\n    tag_948:\n      swap1\n      swap2\n      sstore\n      pop\n      pop\n        /* \"FlattenedPool.sol\":18276:18277  1 */\n      0x01\n        /* \"FlattenedPool.sol\":19487:19508  _status = NOT_ENTERED */\n      dup1\n      sstore\n        /* \"FlattenedPool.sol\":27461:28646  function withdraw(uint256 depositIndex) external nonReentrant whenWithdrawalsNotPaused {... */\n      pop\n      jump\t// out\n        /* \"FlattenedPool.sol\":9617:9720  function _checkRole(bytes32 role) internal view virtual {... */\n    tag_405:\n        /* \"FlattenedPool.sol\":9683:9713  _checkRole(role, _msgSender()) */\n      tag_489\n        /* \"FlattenedPool.sol\":9694:9698  role */\n      dup2\n        /* \"FlattenedPool.sol\":4336:4346  msg.sender */\n      caller\n        /* \"FlattenedPool.sol\":9683:9693  _checkRole */\n      tag_954\n        /* \"FlattenedPool.sol\":9683:9713  _checkRole(role, _msgSender()) */\n      jump\t// in\n        /* \"FlattenedPool.sol\":18994:19301  function _nonReentrantBefore() private {... */\n    tag_412:\n        /* \"FlattenedPool.sol\":18318:18319  2 */\n      0x02\n        /* \"FlattenedPool.sol\":19121:19128  _status */\n      sload(0x01)\n        /* \"FlattenedPool.sol\":19121:19139  _status == ENTERED */\n      sub\n        /* \"FlattenedPool.sol\":19117:19203  if (_status == ENTERED) {... */\n      tag_956\n      jumpi\n        /* \"FlattenedPool.sol\":19162:19192  ReentrancyGuardReentrantCall() */\n      mload(0x40)\n      shl(0xe0, 0x3ee5aeb5)\n      dup2\n      mstore\n      0x04\n      add\n      mload(0x40)\n      dup1\n      swap2\n      sub\n      swap1\n      revert\n        /* \"FlattenedPool.sol\":19117:19203  if (_status == ENTERED) {... */\n    tag_956:\n        /* \"FlattenedPool.sol\":18318:18319  2 */\n      0x02\n        /* \"FlattenedPool.sol\":19277:19284  _status */\n      0x01\n        /* \"FlattenedPool.sol\":19277:19294  _status = ENTERED */\n      sstore\n        /* \"FlattenedPool.sol\":18994:19301  function _nonReentrantBefore() private {... */\n      jump\t// out\n        /* \"FlattenedPool.sol\":26737:27431  function _registerDeposit(address user, TokenType token, uint256 amount, bool reinvestment) internal {... */\n    tag_418:\n      sub(shl(0xa0, 0x01), 0x01)\n        /* \"FlattenedPool.sol\":26848:26866  userDeposits[user] */\n      dup5\n      and\n      0x00\n      swap1\n      dup2\n      mstore\n        /* \"FlattenedPool.sol\":26848:26860  userDeposits */\n      0x08\n        /* \"FlattenedPool.sol\":26848:26866  userDeposits[user] */\n      0x20\n      mstore\n      0x40\n      swap1\n      dup2\n      swap1\n      keccak256\n        /* \"FlattenedPool.sol\":26872:27191  DepositInfo({... */\n      dup2\n      mload\n      0x0120\n      dup2\n      add\n      swap1\n      swap3\n      mstore\n        /* \"FlattenedPool.sol\":26848:26866  userDeposits[user] */\n      swap1\n        /* \"FlattenedPool.sol\":26872:27191  DepositInfo({... */\n      dup1\n        /* \"FlattenedPool.sol\":26905:26910  token */\n      dup6\n        /* \"FlattenedPool.sol\":26872:27191  DepositInfo({... */\n      0x01\n      dup2\n      gt\n      iszero\n      tag_959\n      jumpi\n      tag_959\n      tag_432\n      jump\t// in\n    tag_959:\n      dup2\n      mstore\n      0x20\n      dup1\n      dup3\n      add\n      dup7\n      swap1\n      mstore\n        /* \"FlattenedPool.sol\":26963:26978  block.timestamp */\n      timestamp\n        /* \"FlattenedPool.sol\":26872:27191  DepositInfo({... */\n      0x40\n      dup4\n      add\n      mstore\n      0x00\n      0x60\n      dup4\n      add\n      dup2\n      swap1\n      mstore\n      0x80\n      dup4\n      add\n      dup2\n      swap1\n      mstore\n      0xa0\n      dup4\n      add\n      dup2\n      swap1\n      mstore\n      dup6\n      iszero\n      iszero\n      0xc0\n      dup5\n      add\n      mstore\n      0xe0\n      dup4\n      add\n      dup2\n      swap1\n      mstore\n      0x0100\n      swap1\n      swap3\n      add\n      dup3\n      swap1\n      mstore\n        /* \"FlattenedPool.sol\":26848:27192  userDeposits[user].push(DepositInfo({... */\n      dup4\n      sload\n        /* \"FlattenedPool.sol\":26872:27191  DepositInfo({... */\n      0x01\n        /* \"FlattenedPool.sol\":26848:27192  userDeposits[user].push(DepositInfo({... */\n      dup2\n      dup2\n      add\n      dup7\n      sstore\n      swap5\n      dup4\n      mstore\n      swap2\n      keccak256\n      dup3\n      mload\n      0x06\n      swap1\n      swap3\n      mul\n      add\n      dup1\n      sload\n      swap3\n      swap4\n      swap1\n      swap3\n      dup4\n      swap2\n      not(0xff)\n      swap2\n      swap1\n      swap2\n      and\n      swap1\n      dup4\n      dup2\n      dup2\n      gt\n      iszero\n      tag_962\n      jumpi\n      tag_962\n      tag_432\n      jump\t// in\n    tag_962:\n      mul\n      or\n      swap1\n      sstore\n      pop\n      0x20\n      dup3\n      dup2\n      add\n      mload\n      0x01\n      dup4\n      dup2\n      add\n      swap2\n      swap1\n      swap2\n      sstore\n      0x40\n      dup1\n      dup6\n      add\n      mload\n      0x02\n      dup6\n      add\n      sstore\n      0x60\n      dup6\n      add\n      mload\n      0x03\n      dup6\n      add\n      dup1\n      sload\n      0x80\n      dup9\n      add\n      mload\n      0xa0\n      dup10\n      add\n      mload\n      0xc0\n      dup11\n      add\n      mload\n      not(0xffff)\n      swap1\n      swap4\n      and\n      swap5\n      iszero\n      iszero\n      not(0xff00)\n      and\n      swap5\n      swap1\n      swap5\n      or\n      0x0100\n      swap2\n      iszero\n      iszero\n      dup3\n      mul\n      or\n      not(0xffff0000)\n      and\n      0x010000\n      swap5\n      iszero\n      iszero\n      swap5\n      swap1\n      swap5\n      mul\n      not(0xff000000)\n      and\n      swap4\n      swap1\n      swap4\n      or\n      0x01000000\n      swap2\n      iszero\n      iszero\n      swap2\n      swap1\n      swap2\n      mul\n      or\n      swap1\n      sstore\n      0xe0\n      dup7\n      add\n      mload\n      0x04\n      dup7\n      add\n      sstore\n      swap1\n      swap5\n      add\n      mload\n      0x05\n      swap1\n      swap4\n      add\n      swap3\n      swap1\n      swap3\n      sstore\n      sub(shl(0xa0, 0x01), 0x01)\n        /* \"FlattenedPool.sol\":27206:27224  userDeposits[user] */\n      dup8\n      and\n      0x00\n      swap1\n      dup2\n      mstore\n        /* \"FlattenedPool.sol\":27206:27218  userDeposits */\n      0x08\n        /* \"FlattenedPool.sol\":27206:27224  userDeposits[user] */\n      swap1\n      swap2\n      mstore\n      swap2\n      swap1\n      swap2\n      keccak256\n        /* \"FlattenedPool.sol\":27206:27231  userDeposits[user].length */\n      sload\n        /* \"FlattenedPool.sol\":27206:27236  userDeposits[user].length == 1 */\n      swap1\n      sub\n        /* \"FlattenedPool.sol\":27202:27320  if (userDeposits[user].length == 1) {... */\n      tag_963\n      jumpi\n        /* \"FlattenedPool.sol\":27252:27260  allUsers */\n      0x0f\n        /* \"FlattenedPool.sol\":27252:27271  allUsers.push(user) */\n      dup1\n      sload\n      0x01\n      dup2\n      dup2\n      add\n      swap1\n      swap3\n      sstore\n      0x8d1108e10bcb7c27dddfc02ed9d693a074039d026cf4ea4240b40f7d581ac802\n      add\n      dup1\n      sload\n      sub(shl(0xa0, 0x01), 0x01)\n      dup8\n      and\n      not(sub(shl(0xa0, 0x01), 0x01))\n      swap2\n      dup3\n      and\n      dup2\n      or\n      swap1\n      swap3\n      sstore\n        /* \"FlattenedPool.sol\":27285:27298  allDepositors */\n      0x11\n        /* \"FlattenedPool.sol\":27285:27309  allDepositors.push(user) */\n      dup1\n      sload\n      swap4\n      dup5\n      add\n      dup2\n      sstore\n      0x00\n      mstore\n      0x31ecc21a745e3968a04e9570e4425bc18fa8019c68028196b546d1669c200c68\n      swap1\n      swap3\n      add\n      dup1\n      sload\n      swap1\n      swap3\n      and\n      or\n      swap1\n      sstore\n        /* \"FlattenedPool.sol\":27202:27320  if (userDeposits[user].length == 1) {... */\n    tag_963:\n      sub(shl(0xa0, 0x01), 0x01)\n        /* \"FlattenedPool.sol\":27334:27424  Deposit(user, token, amount, block.timestamp, userDeposits[user].length - 1, reinvestment) */\n      dup5\n      and\n        /* \"FlattenedPool.sol\":27380:27398  userDeposits[user] */\n      0x00\n      dup2\n      dup2\n      mstore\n        /* \"FlattenedPool.sol\":27380:27392  userDeposits */\n      0x08\n        /* \"FlattenedPool.sol\":27380:27398  userDeposits[user] */\n      0x20\n      mstore\n      0x40\n      swap1\n      keccak256\n        /* \"FlattenedPool.sol\":27380:27405  userDeposits[user].length */\n      sload\n        /* \"FlattenedPool.sol\":27334:27424  Deposit(user, token, amount, block.timestamp, userDeposits[user].length - 1, reinvestment) */\n      0x48916ac7f9777648255ab8645729ff3b5d20aa412a40fe81dac2433522eaa058\n      swap1\n        /* \"FlattenedPool.sol\":27348:27353  token */\n      dup6\n      swap1\n        /* \"FlattenedPool.sol\":27355:27361  amount */\n      dup6\n      swap1\n        /* \"FlattenedPool.sol\":27363:27378  block.timestamp */\n      timestamp\n      swap1\n        /* \"FlattenedPool.sol\":27380:27409  userDeposits[user].length - 1 */\n      tag_966\n      swap1\n        /* \"FlattenedPool.sol\":27408:27409  1 */\n      0x01\n      swap1\n        /* \"FlattenedPool.sol\":27380:27409  userDeposits[user].length - 1 */\n      tag_529\n      jump\t// in\n    tag_966:\n        /* \"FlattenedPool.sol\":27411:27423  reinvestment */\n      dup7\n        /* \"FlattenedPool.sol\":27334:27424  Deposit(user, token, amount, block.timestamp, userDeposits[user].length - 1, reinvestment) */\n      mload(0x40)\n      tag_751\n      swap6\n      swap5\n      swap4\n      swap3\n      swap2\n      swap1\n      tag_968\n      jump\t// in\n        /* \"FlattenedPool.sol\":12597:12913  function _grantRole(bytes32 role, address account) internal virtual returns (bool) {... */\n    tag_495:\n        /* \"FlattenedPool.sol\":12674:12678  bool */\n      0x00\n        /* \"FlattenedPool.sol\":9372:9384  _roles[role] */\n      dup3\n      dup2\n      mstore\n      0x20\n      dup2\n      dup2\n      mstore\n      0x40\n      dup1\n      dup4\n      keccak256\n      sub(shl(0xa0, 0x01), 0x01)\n        /* \"FlattenedPool.sol\":9372:9401  _roles[role].hasRole[account] */\n      dup6\n      and\n      dup5\n      mstore\n      swap1\n      swap2\n      mstore\n      dup2\n      keccak256\n      sload\n      0xff\n      and\n        /* \"FlattenedPool.sol\":12690:12907  if (!hasRole(role, account)) {... */\n      tag_972\n      jumpi\n        /* \"FlattenedPool.sol\":12733:12739  _roles */\n      0x00\n        /* \"FlattenedPool.sol\":12733:12745  _roles[role] */\n      dup4\n      dup2\n      mstore\n      0x20\n      dup2\n      dup2\n      mstore\n      0x40\n      dup1\n      dup4\n      keccak256\n      sub(shl(0xa0, 0x01), 0x01)\n        /* \"FlattenedPool.sol\":12733:12762  _roles[role].hasRole[account] */\n      dup7\n      and\n      dup5\n      mstore\n      swap1\n      swap2\n      mstore\n      swap1\n      keccak256\n        /* \"FlattenedPool.sol\":12733:12769  _roles[role].hasRole[account] = true */\n      dup1\n      sload\n      not(0xff)\n      and\n        /* \"FlattenedPool.sol\":12765:12769  true */\n      0x01\n        /* \"FlattenedPool.sol\":12733:12769  _roles[role].hasRole[account] = true */\n      or\n      swap1\n      sstore\n        /* \"FlattenedPool.sol\":12815:12827  _msgSender() */\n      tag_973\n        /* \"FlattenedPool.sol\":4336:4346  msg.sender */\n      caller\n      swap1\n        /* \"FlattenedPool.sol\":4257:4353  function _msgSender() internal view virtual returns (address) {... */\n      jump\n        /* \"FlattenedPool.sol\":12815:12827  _msgSender() */\n    tag_973:\n      sub(shl(0xa0, 0x01), 0x01)\n        /* \"FlattenedPool.sol\":12788:12828  RoleGranted(role, account, _msgSender()) */\n      and\n        /* \"FlattenedPool.sol\":12806:12813  account */\n      dup3\n      sub(shl(0xa0, 0x01), 0x01)\n        /* \"FlattenedPool.sol\":12788:12828  RoleGranted(role, account, _msgSender()) */\n      and\n        /* \"FlattenedPool.sol\":12800:12804  role */\n      dup5\n        /* \"FlattenedPool.sol\":12788:12828  RoleGranted(role, account, _msgSender()) */\n      0x2f8788117e7eff1d82e926ec794901d17c78024a50270940304540a733656f0d\n      mload(0x40)\n      mload(0x40)\n      dup1\n      swap2\n      sub\n      swap1\n      log4\n      pop\n        /* \"FlattenedPool.sol\":12849:12853  true */\n      0x01\n        /* \"FlattenedPool.sol\":12842:12853  return true */\n      jump(tag_401)\n        /* \"FlattenedPool.sol\":12690:12907  if (!hasRole(role, account)) {... */\n    tag_972:\n      pop\n        /* \"FlattenedPool.sol\":12891:12896  false */\n      0x00\n        /* \"FlattenedPool.sol\":12884:12896  return false */\n      jump(tag_401)\n        /* \"FlattenedPool.sol\":13150:13467  function _revokeRole(bytes32 role, address account) internal virtual returns (bool) {... */\n    tag_501:\n        /* \"FlattenedPool.sol\":13228:13232  bool */\n      0x00\n        /* \"FlattenedPool.sol\":9372:9384  _roles[role] */\n      dup3\n      dup2\n      mstore\n      0x20\n      dup2\n      dup2\n      mstore\n      0x40\n      dup1\n      dup4\n      keccak256\n      sub(shl(0xa0, 0x01), 0x01)\n        /* \"FlattenedPool.sol\":9372:9401  _roles[role].hasRole[account] */\n      dup6\n      and\n      dup5\n      mstore\n      swap1\n      swap2\n      mstore\n      dup2\n      keccak256\n      sload\n      0xff\n      and\n        /* \"FlattenedPool.sol\":13244:13461  if (hasRole(role, account)) {... */\n      iszero\n      tag_972\n      jumpi\n        /* \"FlattenedPool.sol\":13318:13323  false */\n      0x00\n        /* \"FlattenedPool.sol\":13286:13298  _roles[role] */\n      dup4\n      dup2\n      mstore\n      0x20\n      dup2\n      dup2\n      mstore\n      0x40\n      dup1\n      dup4\n      keccak256\n      sub(shl(0xa0, 0x01), 0x01)\n        /* \"FlattenedPool.sol\":13286:13315  _roles[role].hasRole[account] */\n      dup7\n      and\n      dup1\n      dup6\n      mstore\n      swap3\n      mstore\n      dup1\n      dup4\n      keccak256\n        /* \"FlattenedPool.sol\":13286:13323  _roles[role].hasRole[account] = false */\n      dup1\n      sload\n      not(0xff)\n      and\n      swap1\n      sstore\n        /* \"FlattenedPool.sol\":13342:13382  RoleRevoked(role, account, _msgSender()) */\n      mload\n        /* \"FlattenedPool.sol\":4336:4346  msg.sender */\n      caller\n      swap3\n        /* \"FlattenedPool.sol\":13286:13298  _roles[role] */\n      dup7\n      swap2\n        /* \"FlattenedPool.sol\":13342:13382  RoleRevoked(role, account, _msgSender()) */\n      0xf6391f5c32d9c69d2a47ea670b442974b53935d1edc7fd64eb21e047a839171b\n      swap2\n        /* \"FlattenedPool.sol\":13318:13323  false */\n      swap1\n        /* \"FlattenedPool.sol\":13342:13382  RoleRevoked(role, account, _msgSender()) */\n      log4\n      pop\n        /* \"FlattenedPool.sol\":13403:13407  true */\n      0x01\n        /* \"FlattenedPool.sol\":13396:13407  return true */\n      jump(tag_401)\n        /* \"FlattenedPool.sol\":9850:10047  function _checkRole(bytes32 role, address account) internal view virtual {... */\n    tag_954:\n        /* \"FlattenedPool.sol\":9349:9353  bool */\n      0x00\n        /* \"FlattenedPool.sol\":9372:9384  _roles[role] */\n      dup3\n      dup2\n      mstore\n      0x20\n      dup2\n      dup2\n      mstore\n      0x40\n      dup1\n      dup4\n      keccak256\n      sub(shl(0xa0, 0x01), 0x01)\n        /* \"FlattenedPool.sol\":9372:9401  _roles[role].hasRole[account] */\n      dup6\n      and\n      dup5\n      mstore\n      swap1\n      swap2\n      mstore\n      swap1\n      keccak256\n      sload\n      0xff\n      and\n        /* \"FlattenedPool.sol\":9933:10041  if (!hasRole(role, account)) {... */\n      tag_712\n      jumpi\n        /* \"FlattenedPool.sol\":9983:10030  AccessControlUnauthorizedAccount(account, role) */\n      mload(0x40)\n      shl(0xe0, 0xe2517d3f)\n      dup2\n      mstore\n      sub(shl(0xa0, 0x01), 0x01)\n        /* \"#utility.yul\":14330:14385   */\n      dup3\n      and\n        /* \"FlattenedPool.sol\":9983:10030  AccessControlUnauthorizedAccount(account, role) */\n      0x04\n      dup3\n      add\n        /* \"#utility.yul\":14312:14386   */\n      mstore\n        /* \"#utility.yul\":14402:14420   */\n      0x24\n      dup2\n      add\n        /* \"#utility.yul\":14395:14429   */\n      dup4\n      swap1\n      mstore\n        /* \"#utility.yul\":14285:14303   */\n      0x44\n      add\n        /* \"FlattenedPool.sol\":9983:10030  AccessControlUnauthorizedAccount(account, role) */\n      tag_415\n        /* \"#utility.yul\":14138:14435   */\n      jump\n        /* \"#utility.yul\":14:300   */\n    tag_97:\n        /* \"#utility.yul\":72:78   */\n      0x00\n        /* \"#utility.yul\":125:127   */\n      0x20\n        /* \"#utility.yul\":113:122   */\n      dup3\n        /* \"#utility.yul\":104:111   */\n      dup5\n        /* \"#utility.yul\":100:123   */\n      sub\n        /* \"#utility.yul\":96:128   */\n      slt\n        /* \"#utility.yul\":93:145   */\n      iszero\n      tag_995\n      jumpi\n        /* \"#utility.yul\":141:142   */\n      0x00\n        /* \"#utility.yul\":138:139   */\n      dup1\n        /* \"#utility.yul\":131:143   */\n      revert\n        /* \"#utility.yul\":93:145   */\n    tag_995:\n        /* \"#utility.yul\":167:190   */\n      dup2\n      calldataload\n      not(sub(shl(0xe0, 0x01), 0x01))\n        /* \"#utility.yul\":219:251   */\n      dup2\n      and\n        /* \"#utility.yul\":209:252   */\n      dup2\n      eq\n        /* \"#utility.yul\":199:270   */\n      tag_996\n      jumpi\n        /* \"#utility.yul\":266:267   */\n      0x00\n        /* \"#utility.yul\":263:264   */\n      dup1\n        /* \"#utility.yul\":256:268   */\n      revert\n        /* \"#utility.yul\":199:270   */\n    tag_996:\n        /* \"#utility.yul\":289:294   */\n      swap4\n        /* \"#utility.yul\":14:300   */\n      swap3\n      pop\n      pop\n      pop\n      jump\t// out\n        /* \"#utility.yul\":593:789   */\n    tag_987:\n        /* \"#utility.yul\":661:681   */\n      dup1\n      calldataload\n      sub(shl(0xa0, 0x01), 0x01)\n        /* \"#utility.yul\":710:764   */\n      dup2\n      and\n        /* \"#utility.yul\":700:765   */\n      dup2\n      eq\n        /* \"#utility.yul\":690:783   */\n      tag_1000\n      jumpi\n        /* \"#utility.yul\":779:780   */\n      0x00\n        /* \"#utility.yul\":776:777   */\n      dup1\n        /* \"#utility.yul\":769:781   */\n      revert\n        /* \"#utility.yul\":690:783   */\n    tag_1000:\n        /* \"#utility.yul\":593:789   */\n      swap2\n      swap1\n      pop\n      jump\t// out\n        /* \"#utility.yul\":794:980   */\n    tag_104:\n        /* \"#utility.yul\":853:859   */\n      0x00\n        /* \"#utility.yul\":906:908   */\n      0x20\n        /* \"#utility.yul\":894:903   */\n      dup3\n        /* \"#utility.yul\":885:892   */\n      dup5\n        /* \"#utility.yul\":881:904   */\n      sub\n        /* \"#utility.yul\":877:909   */\n      slt\n        /* \"#utility.yul\":874:926   */\n      iszero\n      tag_1002\n      jumpi\n        /* \"#utility.yul\":922:923   */\n      0x00\n        /* \"#utility.yul\":919:920   */\n      dup1\n        /* \"#utility.yul\":912:924   */\n      revert\n        /* \"#utility.yul\":874:926   */\n    tag_1002:\n        /* \"#utility.yul\":945:974   */\n      tag_996\n        /* \"#utility.yul\":964:973   */\n      dup3\n        /* \"#utility.yul\":945:974   */\n      tag_987\n      jump\t// in\n        /* \"#utility.yul\":1167:1285   */\n    tag_988:\n        /* \"#utility.yul\":1253:1258   */\n      dup1\n        /* \"#utility.yul\":1246:1259   */\n      iszero\n        /* \"#utility.yul\":1239:1260   */\n      iszero\n        /* \"#utility.yul\":1232:1237   */\n      dup2\n        /* \"#utility.yul\":1229:1261   */\n      eq\n        /* \"#utility.yul\":1219:1279   */\n      tag_489\n      jumpi\n        /* \"#utility.yul\":1275:1276   */\n      0x00\n        /* \"#utility.yul\":1272:1273   */\n      dup1\n        /* \"#utility.yul\":1265:1277   */\n      revert\n        /* \"#utility.yul\":1290:1531   */\n    tag_111:\n        /* \"#utility.yul\":1346:1352   */\n      0x00\n        /* \"#utility.yul\":1399:1401   */\n      0x20\n        /* \"#utility.yul\":1387:1396   */\n      dup3\n        /* \"#utility.yul\":1378:1385   */\n      dup5\n        /* \"#utility.yul\":1374:1397   */\n      sub\n        /* \"#utility.yul\":1370:1402   */\n      slt\n        /* \"#utility.yul\":1367:1419   */\n      iszero\n      tag_1008\n      jumpi\n        /* \"#utility.yul\":1415:1416   */\n      0x00\n        /* \"#utility.yul\":1412:1413   */\n      dup1\n        /* \"#utility.yul\":1405:1417   */\n      revert\n        /* \"#utility.yul\":1367:1419   */\n    tag_1008:\n        /* \"#utility.yul\":1454:1463   */\n      dup2\n        /* \"#utility.yul\":1441:1464   */\n      calldataload\n        /* \"#utility.yul\":1473:1501   */\n      tag_996\n        /* \"#utility.yul\":1495:1500   */\n      dup2\n        /* \"#utility.yul\":1473:1501   */\n      tag_988\n      jump\t// in\n        /* \"#utility.yul\":1536:1790   */\n    tag_116:\n        /* \"#utility.yul\":1604:1610   */\n      0x00\n        /* \"#utility.yul\":1612:1618   */\n      dup1\n        /* \"#utility.yul\":1665:1667   */\n      0x40\n        /* \"#utility.yul\":1653:1662   */\n      dup4\n        /* \"#utility.yul\":1644:1651   */\n      dup6\n        /* \"#utility.yul\":1640:1663   */\n      sub\n        /* \"#utility.yul\":1636:1668   */\n      slt\n        /* \"#utility.yul\":1633:1685   */\n      iszero\n      tag_1011\n      jumpi\n        /* \"#utility.yul\":1681:1682   */\n      0x00\n        /* \"#utility.yul\":1678:1679   */\n      dup1\n        /* \"#utility.yul\":1671:1683   */\n      revert\n        /* \"#utility.yul\":1633:1685   */\n    tag_1011:\n        /* \"#utility.yul\":1704:1733   */\n      tag_1012\n        /* \"#utility.yul\":1723:1732   */\n      dup4\n        /* \"#utility.yul\":1704:1733   */\n      tag_987\n      jump\t// in\n    tag_1012:\n        /* \"#utility.yul\":1694:1733   */\n      swap5\n        /* \"#utility.yul\":1780:1782   */\n      0x20\n        /* \"#utility.yul\":1765:1783   */\n      swap4\n      swap1\n      swap4\n      add\n        /* \"#utility.yul\":1752:1784   */\n      calldataload\n      swap4\n      pop\n      pop\n      pop\n        /* \"#utility.yul\":1536:1790   */\n      jump\t// out\n        /* \"#utility.yul\":1795:1922   */\n    tag_432:\n        /* \"#utility.yul\":1856:1866   */\n      0x4e487b71\n        /* \"#utility.yul\":1851:1854   */\n      0xe0\n        /* \"#utility.yul\":1847:1867   */\n      shl\n        /* \"#utility.yul\":1844:1845   */\n      0x00\n        /* \"#utility.yul\":1837:1868   */\n      mstore\n        /* \"#utility.yul\":1887:1891   */\n      0x21\n        /* \"#utility.yul\":1884:1885   */\n      0x04\n        /* \"#utility.yul\":1877:1892   */\n      mstore\n        /* \"#utility.yul\":1911:1915   */\n      0x24\n        /* \"#utility.yul\":1908:1909   */\n      0x00\n        /* \"#utility.yul\":1901:1916   */\n      revert\n        /* \"#utility.yul\":1927:2164   */\n    tag_989:\n        /* \"#utility.yul\":2008:2009   */\n      0x02\n        /* \"#utility.yul\":2001:2006   */\n      dup2\n        /* \"#utility.yul\":1998:2010   */\n      lt\n        /* \"#utility.yul\":1988:2131   */\n      tag_1015\n      jumpi\n        /* \"#utility.yul\":2053:2063   */\n      0x4e487b71\n        /* \"#utility.yul\":2048:2051   */\n      0xe0\n        /* \"#utility.yul\":2044:2064   */\n      shl\n        /* \"#utility.yul\":2041:2042   */\n      0x00\n        /* \"#utility.yul\":2034:2065   */\n      mstore\n        /* \"#utility.yul\":2088:2092   */\n      0x21\n        /* \"#utility.yul\":2085:2086   */\n      0x04\n        /* \"#utility.yul\":2078:2093   */\n      mstore\n        /* \"#utility.yul\":2116:2120   */\n      0x24\n        /* \"#utility.yul\":2113:2114   */\n      0x00\n        /* \"#utility.yul\":2106:2121   */\n      revert\n        /* \"#utility.yul\":1988:2131   */\n    tag_1015:\n        /* \"#utility.yul\":2140:2158   */\n      swap1\n      mstore\n        /* \"#utility.yul\":1927:2164   */\n      jump\t// out\n        /* \"#utility.yul\":2169:2990   */\n    tag_119:\n        /* \"#utility.yul\":2514:2517   */\n      0x0120\n        /* \"#utility.yul\":2499:2518   */\n      dup2\n      add\n        /* \"#utility.yul\":2527:2571   */\n      tag_1017\n        /* \"#utility.yul\":2503:2512   */\n      dup3\n        /* \"#utility.yul\":2553:2559   */\n      dup13\n        /* \"#utility.yul\":2527:2571   */\n      tag_989\n      jump\t// in\n    tag_1017:\n        /* \"#utility.yul\":2602:2604   */\n      0x20\n        /* \"#utility.yul\":2587:2605   */\n      dup3\n      add\n        /* \"#utility.yul\":2580:2614   */\n      swap10\n      swap1\n      swap10\n      mstore\n        /* \"#utility.yul\":2645:2647   */\n      0x40\n        /* \"#utility.yul\":2630:2648   */\n      dup2\n      add\n        /* \"#utility.yul\":2623:2657   */\n      swap8\n      swap1\n      swap8\n      mstore\n        /* \"#utility.yul\":2700:2714   */\n      swap5\n      iszero\n        /* \"#utility.yul\":2693:2715   */\n      iszero\n        /* \"#utility.yul\":2688:2690   */\n      0x60\n        /* \"#utility.yul\":2673:2691   */\n      dup8\n      add\n        /* \"#utility.yul\":2666:2716   */\n      mstore\n        /* \"#utility.yul\":2760:2774   */\n      swap3\n      iszero\n        /* \"#utility.yul\":2753:2775   */\n      iszero\n        /* \"#utility.yul\":2747:2750   */\n      0x80\n        /* \"#utility.yul\":2732:2751   */\n      dup7\n      add\n        /* \"#utility.yul\":2725:2776   */\n      mstore\n        /* \"#utility.yul\":2820:2834   */\n      swap1\n      iszero\n        /* \"#utility.yul\":2813:2835   */\n      iszero\n        /* \"#utility.yul\":2807:2810   */\n      0xa0\n        /* \"#utility.yul\":2792:2811   */\n      dup6\n      add\n        /* \"#utility.yul\":2785:2836   */\n      mstore\n        /* \"#utility.yul\":2880:2894   */\n      iszero\n        /* \"#utility.yul\":2873:2895   */\n      iszero\n        /* \"#utility.yul\":2867:2870   */\n      0xc0\n        /* \"#utility.yul\":2852:2871   */\n      dup5\n      add\n        /* \"#utility.yul\":2845:2896   */\n      mstore\n        /* \"#utility.yul\":2927:2930   */\n      0xe0\n        /* \"#utility.yul\":2912:2931   */\n      dup4\n      add\n        /* \"#utility.yul\":2905:2940   */\n      mstore\n        /* \"#utility.yul\":2971:2974   */\n      0x0100\n        /* \"#utility.yul\":2956:2975   */\n      swap1\n      swap2\n      add\n        /* \"#utility.yul\":2949:2984   */\n      mstore\n        /* \"#utility.yul\":2169:2990   */\n      swap2\n      swap1\n      pop\n      jump\t// out\n        /* \"#utility.yul\":3177:3357   */\n    tag_136:\n        /* \"#utility.yul\":3236:3242   */\n      0x00\n        /* \"#utility.yul\":3289:3291   */\n      0x20\n        /* \"#utility.yul\":3277:3286   */\n      dup3\n        /* \"#utility.yul\":3268:3275   */\n      dup5\n        /* \"#utility.yul\":3264:3287   */\n      sub\n        /* \"#utility.yul\":3260:3292   */\n      slt\n        /* \"#utility.yul\":3257:3309   */\n      iszero\n      tag_1020\n      jumpi\n        /* \"#utility.yul\":3305:3306   */\n      0x00\n        /* \"#utility.yul\":3302:3303   */\n      dup1\n        /* \"#utility.yul\":3295:3307   */\n      revert\n        /* \"#utility.yul\":3257:3309   */\n    tag_1020:\n      pop\n        /* \"#utility.yul\":3328:3351   */\n      calldataload\n      swap2\n        /* \"#utility.yul\":3177:3357   */\n      swap1\n      pop\n      jump\t// out\n        /* \"#utility.yul\":3362:4858   */\n    tag_151:\n        /* \"#utility.yul\":3589:3591   */\n      0x20\n        /* \"#utility.yul\":3641:3662   */\n      dup1\n      dup3\n      mstore\n        /* \"#utility.yul\":3711:3724   */\n      dup3\n      mload\n        /* \"#utility.yul\":3614:3632   */\n      dup3\n      dup3\n      add\n        /* \"#utility.yul\":3733:3755   */\n      dup2\n      swap1\n      mstore\n        /* \"#utility.yul\":3560:3564   */\n      0x00\n      swap2\n        /* \"#utility.yul\":3589:3591   */\n      swap1\n        /* \"#utility.yul\":3774:3776   */\n      0x40\n      swap1\n        /* \"#utility.yul\":3792:3810   */\n      dup2\n      dup6\n      add\n      swap1\n        /* \"#utility.yul\":3833:3848   */\n      dup7\n      dup5\n      add\n        /* \"#utility.yul\":3560:3564   */\n      dup6\n        /* \"#utility.yul\":3876:4832   */\n    tag_1022:\n        /* \"#utility.yul\":3890:3896   */\n      dup3\n        /* \"#utility.yul\":3887:3888   */\n      dup2\n        /* \"#utility.yul\":3884:3897   */\n      lt\n        /* \"#utility.yul\":3876:4832   */\n      iszero\n      tag_1024\n      jumpi\n        /* \"#utility.yul\":3955:3961   */\n      dup2\n        /* \"#utility.yul\":3949:3962   */\n      mload\n        /* \"#utility.yul\":3975:4016   */\n      tag_1025\n        /* \"#utility.yul\":4012:4015   */\n      dup6\n        /* \"#utility.yul\":4007:4009   */\n      dup3\n        /* \"#utility.yul\":4001:4010   */\n      mload\n        /* \"#utility.yul\":3975:4016   */\n      tag_989\n      jump\t// in\n    tag_1025:\n        /* \"#utility.yul\":4056:4067   */\n      dup1\n      dup8\n      add\n        /* \"#utility.yul\":4050:4068   */\n      mload\n        /* \"#utility.yul\":4036:4048   */\n      dup6\n      dup9\n      add\n        /* \"#utility.yul\":4029:4069   */\n      mstore\n        /* \"#utility.yul\":4109:4120   */\n      dup6\n      dup2\n      add\n        /* \"#utility.yul\":4103:4121   */\n      mload\n        /* \"#utility.yul\":4089:4101   */\n      dup7\n      dup7\n      add\n        /* \"#utility.yul\":4082:4122   */\n      mstore\n        /* \"#utility.yul\":4145:4149   */\n      0x60\n        /* \"#utility.yul\":4203:4214   */\n      dup1\n      dup3\n      add\n        /* \"#utility.yul\":4197:4215   */\n      mload\n        /* \"#utility.yul\":4190:4216   */\n      iszero\n        /* \"#utility.yul\":4183:4217   */\n      iszero\n        /* \"#utility.yul\":4169:4181   */\n      swap1\n      dup7\n      add\n        /* \"#utility.yul\":4162:4218   */\n      mstore\n        /* \"#utility.yul\":4241:4245   */\n      0x80\n        /* \"#utility.yul\":4299:4310   */\n      dup1\n      dup3\n      add\n        /* \"#utility.yul\":4293:4311   */\n      mload\n        /* \"#utility.yul\":4286:4312   */\n      iszero\n        /* \"#utility.yul\":4279:4313   */\n      iszero\n        /* \"#utility.yul\":4265:4277   */\n      swap1\n      dup7\n      add\n        /* \"#utility.yul\":4258:4314   */\n      mstore\n        /* \"#utility.yul\":4337:4341   */\n      0xa0\n        /* \"#utility.yul\":4380:4391   */\n      dup1\n      dup3\n      add\n        /* \"#utility.yul\":4374:4392   */\n      mload\n        /* \"#utility.yul\":375:388   */\n      iszero\n        /* \"#utility.yul\":368:389   */\n      iszero\n        /* \"#utility.yul\":4435:4447   */\n      swap1\n      dup7\n      add\n        /* \"#utility.yul\":356:390   */\n      mstore\n        /* \"#utility.yul\":4471:4475   */\n      0xc0\n        /* \"#utility.yul\":4516:4527   */\n      dup1\n      dup3\n      add\n        /* \"#utility.yul\":4510:4528   */\n      mload\n        /* \"#utility.yul\":375:388   */\n      iszero\n        /* \"#utility.yul\":368:389   */\n      iszero\n        /* \"#utility.yul\":4573:4585   */\n      swap1\n      dup7\n      add\n        /* \"#utility.yul\":356:390   */\n      mstore\n        /* \"#utility.yul\":4609:4613   */\n      0xe0\n        /* \"#utility.yul\":4653:4664   */\n      dup1\n      dup3\n      add\n        /* \"#utility.yul\":4647:4665   */\n      mload\n        /* \"#utility.yul\":4633:4645   */\n      swap1\n      dup7\n      add\n        /* \"#utility.yul\":4626:4666   */\n      mstore\n        /* \"#utility.yul\":4689:4695   */\n      0x0100\n        /* \"#utility.yul\":4735:4746   */\n      swap1\n      dup2\n      add\n        /* \"#utility.yul\":4729:4747   */\n      mload\n        /* \"#utility.yul\":4715:4727   */\n      swap1\n      dup6\n      add\n        /* \"#utility.yul\":4708:4748   */\n      mstore\n        /* \"#utility.yul\":4777:4783   */\n      0x0120\n        /* \"#utility.yul\":4768:4784   */\n      swap1\n      swap4\n      add\n      swap3\n        /* \"#utility.yul\":4807:4822   */\n      swap1\n      dup6\n      add\n      swap1\n        /* \"#utility.yul\":3912:3913   */\n      0x01\n        /* \"#utility.yul\":3905:3914   */\n      add\n        /* \"#utility.yul\":3876:4832   */\n      jump(tag_1022)\n    tag_1024:\n      pop\n        /* \"#utility.yul\":4849:4852   */\n      swap2\n      swap8\n        /* \"#utility.yul\":3362:4858   */\n      swap7\n      pop\n      pop\n      pop\n      pop\n      pop\n      pop\n      pop\n      jump\t// out\n        /* \"#utility.yul\":5048:5302   */\n    tag_160:\n        /* \"#utility.yul\":5116:5122   */\n      0x00\n        /* \"#utility.yul\":5124:5130   */\n      dup1\n        /* \"#utility.yul\":5177:5179   */\n      0x40\n        /* \"#utility.yul\":5165:5174   */\n      dup4\n        /* \"#utility.yul\":5156:5163   */\n      dup6\n        /* \"#utility.yul\":5152:5175   */\n      sub\n        /* \"#utility.yul\":5148:5180   */\n      slt\n        /* \"#utility.yul\":5145:5197   */\n      iszero\n      tag_1031\n      jumpi\n        /* \"#utility.yul\":5193:5194   */\n      0x00\n        /* \"#utility.yul\":5190:5191   */\n      dup1\n        /* \"#utility.yul\":5183:5195   */\n      revert\n        /* \"#utility.yul\":5145:5197   */\n    tag_1031:\n        /* \"#utility.yul\":5229:5238   */\n      dup3\n        /* \"#utility.yul\":5216:5239   */\n      calldataload\n        /* \"#utility.yul\":5206:5239   */\n      swap2\n      pop\n        /* \"#utility.yul\":5258:5296   */\n      tag_1032\n        /* \"#utility.yul\":5292:5294   */\n      0x20\n        /* \"#utility.yul\":5281:5290   */\n      dup5\n        /* \"#utility.yul\":5277:5295   */\n      add\n        /* \"#utility.yul\":5258:5296   */\n      tag_987\n      jump\t// in\n    tag_1032:\n        /* \"#utility.yul\":5248:5296   */\n      swap1\n      pop\n        /* \"#utility.yul\":5048:5302   */\n      swap3\n      pop\n      swap3\n      swap1\n      pop\n      jump\t// out\n        /* \"#utility.yul\":5307:5674   */\n    tag_990:\n        /* \"#utility.yul\":5370:5378   */\n      0x00\n        /* \"#utility.yul\":5380:5386   */\n      dup1\n        /* \"#utility.yul\":5434:5437   */\n      dup4\n        /* \"#utility.yul\":5427:5431   */\n      0x1f\n        /* \"#utility.yul\":5419:5425   */\n      dup5\n        /* \"#utility.yul\":5415:5432   */\n      add\n        /* \"#utility.yul\":5411:5438   */\n      slt\n        /* \"#utility.yul\":5401:5456   */\n      tag_1034\n      jumpi\n        /* \"#utility.yul\":5452:5453   */\n      0x00\n        /* \"#utility.yul\":5449:5450   */\n      dup1\n        /* \"#utility.yul\":5442:5454   */\n      revert\n        /* \"#utility.yul\":5401:5456   */\n    tag_1034:\n      pop\n        /* \"#utility.yul\":5475:5495   */\n      dup2\n      calldataload\n        /* \"#utility.yul\":5518:5536   */\n      0xffffffffffffffff\n        /* \"#utility.yul\":5507:5537   */\n      dup2\n      gt\n        /* \"#utility.yul\":5504:5554   */\n      iszero\n      tag_1035\n      jumpi\n        /* \"#utility.yul\":5550:5551   */\n      0x00\n        /* \"#utility.yul\":5547:5548   */\n      dup1\n        /* \"#utility.yul\":5540:5552   */\n      revert\n        /* \"#utility.yul\":5504:5554   */\n    tag_1035:\n        /* \"#utility.yul\":5587:5591   */\n      0x20\n        /* \"#utility.yul\":5579:5585   */\n      dup4\n        /* \"#utility.yul\":5575:5592   */\n      add\n        /* \"#utility.yul\":5563:5592   */\n      swap2\n      pop\n        /* \"#utility.yul\":5647:5650   */\n      dup4\n        /* \"#utility.yul\":5640:5644   */\n      0x20\n        /* \"#utility.yul\":5630:5636   */\n      dup3\n        /* \"#utility.yul\":5627:5628   */\n      0x05\n        /* \"#utility.yul\":5623:5637   */\n      shl\n        /* \"#utility.yul\":5615:5621   */\n      dup6\n        /* \"#utility.yul\":5611:5638   */\n      add\n        /* \"#utility.yul\":5607:5645   */\n      add\n        /* \"#utility.yul\":5604:5651   */\n      gt\n        /* \"#utility.yul\":5601:5668   */\n      iszero\n      tag_1036\n      jumpi\n        /* \"#utility.yul\":5664:5665   */\n      0x00\n        /* \"#utility.yul\":5661:5662   */\n      dup1\n        /* \"#utility.yul\":5654:5666   */\n      revert\n        /* \"#utility.yul\":5601:5668   */\n    tag_1036:\n        /* \"#utility.yul\":5307:5674   */\n      swap3\n      pop\n      swap3\n      swap1\n      pop\n      jump\t// out\n        /* \"#utility.yul\":5679:6452   */\n    tag_183:\n        /* \"#utility.yul\":5801:5807   */\n      0x00\n        /* \"#utility.yul\":5809:5815   */\n      dup1\n        /* \"#utility.yul\":5817:5823   */\n      0x00\n        /* \"#utility.yul\":5825:5831   */\n      dup1\n        /* \"#utility.yul\":5878:5880   */\n      0x40\n        /* \"#utility.yul\":5866:5875   */\n      dup6\n        /* \"#utility.yul\":5857:5864   */\n      dup8\n        /* \"#utility.yul\":5853:5876   */\n      sub\n        /* \"#utility.yul\":5849:5881   */\n      slt\n        /* \"#utility.yul\":5846:5898   */\n      iszero\n      tag_1038\n      jumpi\n        /* \"#utility.yul\":5894:5895   */\n      0x00\n        /* \"#utility.yul\":5891:5892   */\n      dup1\n        /* \"#utility.yul\":5884:5896   */\n      revert\n        /* \"#utility.yul\":5846:5898   */\n    tag_1038:\n        /* \"#utility.yul\":5934:5943   */\n      dup5\n        /* \"#utility.yul\":5921:5944   */\n      calldataload\n        /* \"#utility.yul\":5963:5981   */\n      0xffffffffffffffff\n        /* \"#utility.yul\":6004:6006   */\n      dup1\n        /* \"#utility.yul\":5996:6002   */\n      dup3\n        /* \"#utility.yul\":5993:6007   */\n      gt\n        /* \"#utility.yul\":5990:6024   */\n      iszero\n      tag_1039\n      jumpi\n        /* \"#utility.yul\":6020:6021   */\n      0x00\n        /* \"#utility.yul\":6017:6018   */\n      dup1\n        /* \"#utility.yul\":6010:6022   */\n      revert\n        /* \"#utility.yul\":5990:6024   */\n    tag_1039:\n        /* \"#utility.yul\":6059:6129   */\n      tag_1040\n        /* \"#utility.yul\":6121:6128   */\n      dup9\n        /* \"#utility.yul\":6112:6118   */\n      dup4\n        /* \"#utility.yul\":6101:6110   */\n      dup10\n        /* \"#utility.yul\":6097:6119   */\n      add\n        /* \"#utility.yul\":6059:6129   */\n      tag_990\n      jump\t// in\n    tag_1040:\n        /* \"#utility.yul\":6148:6156   */\n      swap1\n      swap7\n      pop\n        /* \"#utility.yul\":6033:6129   */\n      swap5\n      pop\n        /* \"#utility.yul\":6236:6238   */\n      0x20\n        /* \"#utility.yul\":6221:6239   */\n      dup8\n      add\n        /* \"#utility.yul\":6208:6240   */\n      calldataload\n      swap2\n      pop\n        /* \"#utility.yul\":6252:6268   */\n      dup1\n      dup3\n      gt\n        /* \"#utility.yul\":6249:6285   */\n      iszero\n      tag_1041\n      jumpi\n        /* \"#utility.yul\":6281:6282   */\n      0x00\n        /* \"#utility.yul\":6278:6279   */\n      dup1\n        /* \"#utility.yul\":6271:6283   */\n      revert\n        /* \"#utility.yul\":6249:6285   */\n    tag_1041:\n      pop\n        /* \"#utility.yul\":6320:6392   */\n      tag_1042\n        /* \"#utility.yul\":6384:6391   */\n      dup8\n        /* \"#utility.yul\":6373:6381   */\n      dup3\n        /* \"#utility.yul\":6362:6371   */\n      dup9\n        /* \"#utility.yul\":6358:6382   */\n      add\n        /* \"#utility.yul\":6320:6392   */\n      tag_990\n      jump\t// in\n    tag_1042:\n        /* \"#utility.yul\":5679:6452   */\n      swap6\n      swap9\n      swap5\n      swap8\n      pop\n        /* \"#utility.yul\":6411:6419   */\n      swap6\n      pop\n      pop\n      pop\n      pop\n        /* \"#utility.yul\":5679:6452   */\n      jump\t// out\n        /* \"#utility.yul\":7916:8231   */\n    tag_203:\n        /* \"#utility.yul\":7981:7987   */\n      0x00\n        /* \"#utility.yul\":7989:7995   */\n      dup1\n        /* \"#utility.yul\":8042:8044   */\n      0x40\n        /* \"#utility.yul\":8030:8039   */\n      dup4\n        /* \"#utility.yul\":8021:8028   */\n      dup6\n        /* \"#utility.yul\":8017:8040   */\n      sub\n        /* \"#utility.yul\":8013:8045   */\n      slt\n        /* \"#utility.yul\":8010:8062   */\n      iszero\n      tag_1051\n      jumpi\n        /* \"#utility.yul\":8058:8059   */\n      0x00\n        /* \"#utility.yul\":8055:8056   */\n      dup1\n        /* \"#utility.yul\":8048:8060   */\n      revert\n        /* \"#utility.yul\":8010:8062   */\n    tag_1051:\n        /* \"#utility.yul\":8081:8110   */\n      tag_1052\n        /* \"#utility.yul\":8100:8109   */\n      dup4\n        /* \"#utility.yul\":8081:8110   */\n      tag_987\n      jump\t// in\n    tag_1052:\n        /* \"#utility.yul\":8071:8110   */\n      swap2\n      pop\n        /* \"#utility.yul\":8160:8162   */\n      0x20\n        /* \"#utility.yul\":8149:8158   */\n      dup4\n        /* \"#utility.yul\":8145:8163   */\n      add\n        /* \"#utility.yul\":8132:8164   */\n      calldataload\n        /* \"#utility.yul\":8173:8201   */\n      tag_1053\n        /* \"#utility.yul\":8195:8200   */\n      dup2\n        /* \"#utility.yul\":8173:8201   */\n      tag_988\n      jump\t// in\n    tag_1053:\n        /* \"#utility.yul\":8220:8225   */\n      dup1\n        /* \"#utility.yul\":8210:8225   */\n      swap2\n      pop\n      pop\n        /* \"#utility.yul\":7916:8231   */\n      swap3\n      pop\n      swap3\n      swap1\n      pop\n      jump\t// out\n        /* \"#utility.yul\":8236:8612   */\n    tag_223:\n        /* \"#utility.yul\":8298:8304   */\n      0x00\n        /* \"#utility.yul\":8306:8312   */\n      dup1\n        /* \"#utility.yul\":8359:8361   */\n      0x40\n        /* \"#utility.yul\":8347:8356   */\n      dup4\n        /* \"#utility.yul\":8338:8345   */\n      dup6\n        /* \"#utility.yul\":8334:8357   */\n      sub\n        /* \"#utility.yul\":8330:8362   */\n      slt\n        /* \"#utility.yul\":8327:8379   */\n      iszero\n      tag_1055\n      jumpi\n        /* \"#utility.yul\":8375:8376   */\n      0x00\n        /* \"#utility.yul\":8372:8373   */\n      dup1\n        /* \"#utility.yul\":8365:8377   */\n      revert\n        /* \"#utility.yul\":8327:8379   */\n    tag_1055:\n        /* \"#utility.yul\":8414:8423   */\n      dup3\n        /* \"#utility.yul\":8401:8424   */\n      calldataload\n        /* \"#utility.yul\":8433:8461   */\n      tag_1052\n        /* \"#utility.yul\":8455:8460   */\n      dup2\n        /* \"#utility.yul\":8433:8461   */\n      tag_988\n      jump\t// in\n        /* \"#utility.yul\":8617:9054   */\n    tag_235:\n        /* \"#utility.yul\":8703:8709   */\n      0x00\n        /* \"#utility.yul\":8711:8717   */\n      dup1\n        /* \"#utility.yul\":8764:8766   */\n      0x20\n        /* \"#utility.yul\":8752:8761   */\n      dup4\n        /* \"#utility.yul\":8743:8750   */\n      dup6\n        /* \"#utility.yul\":8739:8762   */\n      sub\n        /* \"#utility.yul\":8735:8767   */\n      slt\n        /* \"#utility.yul\":8732:8784   */\n      iszero\n      tag_1059\n      jumpi\n        /* \"#utility.yul\":8780:8781   */\n      0x00\n        /* \"#utility.yul\":8777:8778   */\n      dup1\n        /* \"#utility.yul\":8770:8782   */\n      revert\n        /* \"#utility.yul\":8732:8784   */\n    tag_1059:\n        /* \"#utility.yul\":8820:8829   */\n      dup3\n        /* \"#utility.yul\":8807:8830   */\n      calldataload\n        /* \"#utility.yul\":8853:8871   */\n      0xffffffffffffffff\n        /* \"#utility.yul\":8845:8851   */\n      dup2\n        /* \"#utility.yul\":8842:8872   */\n      gt\n        /* \"#utility.yul\":8839:8889   */\n      iszero\n      tag_1060\n      jumpi\n        /* \"#utility.yul\":8885:8886   */\n      0x00\n        /* \"#utility.yul\":8882:8883   */\n      dup1\n        /* \"#utility.yul\":8875:8887   */\n      revert\n        /* \"#utility.yul\":8839:8889   */\n    tag_1060:\n        /* \"#utility.yul\":8924:8994   */\n      tag_1061\n        /* \"#utility.yul\":8986:8993   */\n      dup6\n        /* \"#utility.yul\":8977:8983   */\n      dup3\n        /* \"#utility.yul\":8966:8975   */\n      dup7\n        /* \"#utility.yul\":8962:8984   */\n      add\n        /* \"#utility.yul\":8924:8994   */\n      tag_990\n      jump\t// in\n    tag_1061:\n        /* \"#utility.yul\":9013:9021   */\n      swap1\n      swap7\n        /* \"#utility.yul\":8898:8994   */\n      swap1\n      swap6\n      pop\n        /* \"#utility.yul\":8617:9054   */\n      swap4\n      pop\n      pop\n      pop\n      pop\n      jump\t// out\n        /* \"#utility.yul\":9059:9570   */\n    tag_252:\n        /* \"#utility.yul\":9154:9160   */\n      0x00\n        /* \"#utility.yul\":9162:9168   */\n      dup1\n        /* \"#utility.yul\":9170:9176   */\n      0x00\n        /* \"#utility.yul\":9223:9225   */\n      0x40\n        /* \"#utility.yul\":9211:9220   */\n      dup5\n        /* \"#utility.yul\":9202:9209   */\n      dup7\n        /* \"#utility.yul\":9198:9221   */\n      sub\n        /* \"#utility.yul\":9194:9226   */\n      slt\n        /* \"#utility.yul\":9191:9243   */\n      iszero\n      tag_1063\n      jumpi\n        /* \"#utility.yul\":9239:9240   */\n      0x00\n        /* \"#utility.yul\":9236:9237   */\n      dup1\n        /* \"#utility.yul\":9229:9241   */\n      revert\n        /* \"#utility.yul\":9191:9243   */\n    tag_1063:\n        /* \"#utility.yul\":9262:9291   */\n      tag_1064\n        /* \"#utility.yul\":9281:9290   */\n      dup5\n        /* \"#utility.yul\":9262:9291   */\n      tag_987\n      jump\t// in\n    tag_1064:\n        /* \"#utility.yul\":9252:9291   */\n      swap3\n      pop\n        /* \"#utility.yul\":9342:9344   */\n      0x20\n        /* \"#utility.yul\":9331:9340   */\n      dup5\n        /* \"#utility.yul\":9327:9345   */\n      add\n        /* \"#utility.yul\":9314:9346   */\n      calldataload\n        /* \"#utility.yul\":9369:9387   */\n      0xffffffffffffffff\n        /* \"#utility.yul\":9361:9367   */\n      dup2\n        /* \"#utility.yul\":9358:9388   */\n      gt\n        /* \"#utility.yul\":9355:9405   */\n      iszero\n      tag_1065\n      jumpi\n        /* \"#utility.yul\":9401:9402   */\n      0x00\n        /* \"#utility.yul\":9398:9399   */\n      dup1\n        /* \"#utility.yul\":9391:9403   */\n      revert\n        /* \"#utility.yul\":9355:9405   */\n    tag_1065:\n        /* \"#utility.yul\":9440:9510   */\n      tag_1066\n        /* \"#utility.yul\":9502:9509   */\n      dup7\n        /* \"#utility.yul\":9493:9499   */\n      dup3\n        /* \"#utility.yul\":9482:9491   */\n      dup8\n        /* \"#utility.yul\":9478:9500   */\n      add\n        /* \"#utility.yul\":9440:9510   */\n      tag_990\n      jump\t// in\n    tag_1066:\n        /* \"#utility.yul\":9059:9570   */\n      swap5\n      swap8\n        /* \"#utility.yul\":9529:9537   */\n      swap1\n      swap7\n      pop\n        /* \"#utility.yul\":9414:9510   */\n      swap4\n      swap5\n      pop\n      pop\n      pop\n      pop\n        /* \"#utility.yul\":9059:9570   */\n      jump\t// out\n        /* \"#utility.yul\":10782:11110   */\n    tag_319:\n        /* \"#utility.yul\":10859:10865   */\n      0x00\n        /* \"#utility.yul\":10867:10873   */\n      dup1\n        /* \"#utility.yul\":10875:10881   */\n      0x00\n        /* \"#utility.yul\":10928:10930   */\n      0x60\n        /* \"#utility.yul\":10916:10925   */\n      dup5\n        /* \"#utility.yul\":10907:10914   */\n      dup7\n        /* \"#utility.yul\":10903:10926   */\n      sub\n        /* \"#utility.yul\":10899:10931   */\n      slt\n        /* \"#utility.yul\":10896:10948   */\n      iszero\n      tag_1070\n      jumpi\n        /* \"#utility.yul\":10944:10945   */\n      0x00\n        /* \"#utility.yul\":10941:10942   */\n      dup1\n        /* \"#utility.yul\":10934:10946   */\n      revert\n        /* \"#utility.yul\":10896:10948   */\n    tag_1070:\n        /* \"#utility.yul\":10967:10996   */\n      tag_1071\n        /* \"#utility.yul\":10986:10995   */\n      dup5\n        /* \"#utility.yul\":10967:10996   */\n      tag_987\n      jump\t// in\n    tag_1071:\n        /* \"#utility.yul\":10957:10996   */\n      swap3\n      pop\n        /* \"#utility.yul\":11015:11053   */\n      tag_1072\n        /* \"#utility.yul\":11049:11051   */\n      0x20\n        /* \"#utility.yul\":11038:11047   */\n      dup6\n        /* \"#utility.yul\":11034:11052   */\n      add\n        /* \"#utility.yul\":11015:11053   */\n      tag_987\n      jump\t// in\n    tag_1072:\n        /* \"#utility.yul\":11005:11053   */\n      swap2\n      pop\n        /* \"#utility.yul\":11100:11102   */\n      0x40\n        /* \"#utility.yul\":11089:11098   */\n      dup5\n        /* \"#utility.yul\":11085:11103   */\n      add\n        /* \"#utility.yul\":11072:11104   */\n      calldataload\n        /* \"#utility.yul\":11062:11104   */\n      swap1\n      pop\n        /* \"#utility.yul\":10782:11110   */\n      swap3\n      pop\n      swap3\n      pop\n      swap3\n      jump\t// out\n        /* \"#utility.yul\":11115:11452   */\n    tag_391:\n        /* \"#utility.yul\":11196:11202   */\n      0x00\n        /* \"#utility.yul\":11204:11210   */\n      dup1\n        /* \"#utility.yul\":11257:11259   */\n      0x40\n        /* \"#utility.yul\":11245:11254   */\n      dup4\n        /* \"#utility.yul\":11236:11243   */\n      dup6\n        /* \"#utility.yul\":11232:11255   */\n      sub\n        /* \"#utility.yul\":11228:11260   */\n      slt\n        /* \"#utility.yul\":11225:11277   */\n      iszero\n      tag_1074\n      jumpi\n        /* \"#utility.yul\":11273:11274   */\n      0x00\n        /* \"#utility.yul\":11270:11271   */\n      dup1\n        /* \"#utility.yul\":11263:11275   */\n      revert\n        /* \"#utility.yul\":11225:11277   */\n    tag_1074:\n        /* \"#utility.yul\":11312:11321   */\n      dup3\n        /* \"#utility.yul\":11299:11322   */\n      calldataload\n        /* \"#utility.yul\":11351:11352   */\n      0x02\n        /* \"#utility.yul\":11344:11349   */\n      dup2\n        /* \"#utility.yul\":11341:11353   */\n      lt\n        /* \"#utility.yul\":11331:11371   */\n      tag_1012\n      jumpi\n        /* \"#utility.yul\":11367:11368   */\n      0x00\n        /* \"#utility.yul\":11364:11365   */\n      dup1\n        /* \"#utility.yul\":11357:11369   */\n      revert\n        /* \"#utility.yul\":11796:11923   */\n    tag_991:\n        /* \"#utility.yul\":11857:11867   */\n      0x4e487b71\n        /* \"#utility.yul\":11852:11855   */\n      0xe0\n        /* \"#utility.yul\":11848:11868   */\n      shl\n        /* \"#utility.yul\":11845:11846   */\n      0x00\n        /* \"#utility.yul\":11838:11869   */\n      mstore\n        /* \"#utility.yul\":11888:11892   */\n      0x11\n        /* \"#utility.yul\":11885:11886   */\n      0x04\n        /* \"#utility.yul\":11878:11893   */\n      mstore\n        /* \"#utility.yul\":11912:11916   */\n      0x24\n        /* \"#utility.yul\":11909:11910   */\n      0x00\n        /* \"#utility.yul\":11902:11917   */\n      revert\n        /* \"#utility.yul\":11928:12053   */\n    tag_420:\n        /* \"#utility.yul\":11993:12002   */\n      dup1\n      dup3\n      add\n        /* \"#utility.yul\":12014:12024   */\n      dup1\n      dup3\n      gt\n        /* \"#utility.yul\":12011:12047   */\n      iszero\n      tag_401\n      jumpi\n        /* \"#utility.yul\":12027:12045   */\n      tag_401\n      tag_991\n      jump\t// in\n        /* \"#utility.yul\":12058:12407   */\n    tag_423:\n        /* \"#utility.yul\":12259:12261   */\n      0x60\n        /* \"#utility.yul\":12244:12262   */\n      dup2\n      add\n        /* \"#utility.yul\":12271:12315   */\n      tag_1082\n        /* \"#utility.yul\":12248:12257   */\n      dup3\n        /* \"#utility.yul\":12297:12303   */\n      dup7\n        /* \"#utility.yul\":12271:12315   */\n      tag_989\n      jump\t// in\n    tag_1082:\n        /* \"#utility.yul\":12346:12348   */\n      0x20\n        /* \"#utility.yul\":12331:12349   */\n      dup3\n      add\n        /* \"#utility.yul\":12324:12358   */\n      swap4\n      swap1\n      swap4\n      mstore\n        /* \"#utility.yul\":12389:12391   */\n      0x40\n        /* \"#utility.yul\":12374:12392   */\n      add\n        /* \"#utility.yul\":12367:12401   */\n      mstore\n        /* \"#utility.yul\":12058:12407   */\n      swap2\n      swap1\n      pop\n      jump\t// out\n        /* \"#utility.yul\":12759:12886   */\n    tag_444:\n        /* \"#utility.yul\":12820:12830   */\n      0x4e487b71\n        /* \"#utility.yul\":12815:12818   */\n      0xe0\n        /* \"#utility.yul\":12811:12831   */\n      shl\n        /* \"#utility.yul\":12808:12809   */\n      0x00\n        /* \"#utility.yul\":12801:12832   */\n      mstore\n        /* \"#utility.yul\":12851:12855   */\n      0x32\n        /* \"#utility.yul\":12848:12849   */\n      0x04\n        /* \"#utility.yul\":12841:12856   */\n      mstore\n        /* \"#utility.yul\":12875:12879   */\n      0x24\n        /* \"#utility.yul\":12872:12873   */\n      0x00\n        /* \"#utility.yul\":12865:12880   */\n      revert\n        /* \"#utility.yul\":14440:14685   */\n    tag_484:\n        /* \"#utility.yul\":14507:14513   */\n      0x00\n        /* \"#utility.yul\":14560:14562   */\n      0x20\n        /* \"#utility.yul\":14548:14557   */\n      dup3\n        /* \"#utility.yul\":14539:14546   */\n      dup5\n        /* \"#utility.yul\":14535:14558   */\n      sub\n        /* \"#utility.yul\":14531:14563   */\n      slt\n        /* \"#utility.yul\":14528:14580   */\n      iszero\n      tag_1091\n      jumpi\n        /* \"#utility.yul\":14576:14577   */\n      0x00\n        /* \"#utility.yul\":14573:14574   */\n      dup1\n        /* \"#utility.yul\":14566:14578   */\n      revert\n        /* \"#utility.yul\":14528:14580   */\n    tag_1091:\n        /* \"#utility.yul\":14608:14617   */\n      dup2\n        /* \"#utility.yul\":14602:14618   */\n      mload\n        /* \"#utility.yul\":14627:14655   */\n      tag_996\n        /* \"#utility.yul\":14649:14654   */\n      dup2\n        /* \"#utility.yul\":14627:14655   */\n      tag_988\n      jump\t// in\n        /* \"#utility.yul\":14690:15183   */\n    tag_488:\n        /* \"#utility.yul\":14947:14950   */\n      0xa0\n        /* \"#utility.yul\":14932:14951   */\n      dup2\n      add\n        /* \"#utility.yul\":14960:15004   */\n      tag_1094\n        /* \"#utility.yul\":14936:14945   */\n      dup3\n        /* \"#utility.yul\":14986:14992   */\n      dup9\n        /* \"#utility.yul\":14960:15004   */\n      tag_989\n      jump\t// in\n    tag_1094:\n        /* \"#utility.yul\":15040:15046   */\n      dup6\n        /* \"#utility.yul\":15035:15037   */\n      0x20\n        /* \"#utility.yul\":15024:15033   */\n      dup4\n        /* \"#utility.yul\":15020:15038   */\n      add\n        /* \"#utility.yul\":15013:15047   */\n      mstore\n        /* \"#utility.yul\":15083:15089   */\n      dup5\n        /* \"#utility.yul\":15078:15080   */\n      0x40\n        /* \"#utility.yul\":15067:15076   */\n      dup4\n        /* \"#utility.yul\":15063:15081   */\n      add\n        /* \"#utility.yul\":15056:15090   */\n      mstore\n        /* \"#utility.yul\":15126:15132   */\n      dup4\n        /* \"#utility.yul\":15121:15123   */\n      0x60\n        /* \"#utility.yul\":15110:15119   */\n      dup4\n        /* \"#utility.yul\":15106:15124   */\n      add\n        /* \"#utility.yul\":15099:15133   */\n      mstore\n        /* \"#utility.yul\":15170:15176   */\n      dup3\n        /* \"#utility.yul\":15164:15167   */\n      0x80\n        /* \"#utility.yul\":15153:15162   */\n      dup4\n        /* \"#utility.yul\":15149:15168   */\n      add\n        /* \"#utility.yul\":15142:15177   */\n      mstore\n        /* \"#utility.yul\":14690:15183   */\n      swap7\n      swap6\n      pop\n      pop\n      pop\n      pop\n      pop\n      pop\n      jump\t// out\n        /* \"#utility.yul\":16197:16325   */\n    tag_529:\n        /* \"#utility.yul\":16264:16273   */\n      dup2\n      dup2\n      sub\n        /* \"#utility.yul\":16285:16296   */\n      dup2\n      dup2\n      gt\n        /* \"#utility.yul\":16282:16319   */\n      iszero\n      tag_401\n      jumpi\n        /* \"#utility.yul\":16299:16317   */\n      tag_401\n      tag_991\n      jump\t// in\n        /* \"#utility.yul\":16943:17301   */\n    tag_992:\n        /* \"#utility.yul\":17043:17049   */\n      dup2\n        /* \"#utility.yul\":17038:17041   */\n      dup4\n        /* \"#utility.yul\":17031:17050   */\n      mstore\n        /* \"#utility.yul\":17013:17016   */\n      0x00\n        /* \"#utility.yul\":17073:17139   */\n      0x07ffffffffffffffffffffffffffffffffffffffffffffffffffffffffffffff\n        /* \"#utility.yul\":17065:17071   */\n      dup4\n        /* \"#utility.yul\":17062:17140   */\n      gt\n        /* \"#utility.yul\":17059:17157   */\n      iszero\n      tag_1104\n      jumpi\n        /* \"#utility.yul\":17153:17154   */\n      0x00\n        /* \"#utility.yul\":17150:17151   */\n      dup1\n        /* \"#utility.yul\":17143:17155   */\n      revert\n        /* \"#utility.yul\":17059:17157   */\n    tag_1104:\n        /* \"#utility.yul\":17189:17195   */\n      dup3\n        /* \"#utility.yul\":17186:17187   */\n      0x05\n        /* \"#utility.yul\":17182:17196   */\n      shl\n        /* \"#utility.yul\":17241:17249   */\n      dup1\n        /* \"#utility.yul\":17234:17239   */\n      dup4\n        /* \"#utility.yul\":17227:17231   */\n      0x20\n        /* \"#utility.yul\":17222:17225   */\n      dup8\n        /* \"#utility.yul\":17218:17232   */\n      add\n        /* \"#utility.yul\":17205:17250   */\n      calldatacopy\n        /* \"#utility.yul\":17270:17288   */\n      swap4\n      swap1\n      swap4\n      add\n        /* \"#utility.yul\":17290:17294   */\n      0x20\n        /* \"#utility.yul\":17266:17295   */\n      add\n      swap4\n        /* \"#utility.yul\":16943:17301   */\n      swap3\n      pop\n      pop\n      pop\n      jump\t// out\n        /* \"#utility.yul\":17306:17911   */\n    tag_703:\n        /* \"#utility.yul\":17600:17644   */\n      tag_1106\n        /* \"#utility.yul\":17634:17643   */\n      dup2\n        /* \"#utility.yul\":17626:17632   */\n      dup9\n        /* \"#utility.yul\":17600:17644   */\n      tag_989\n      jump\t// in\n    tag_1106:\n        /* \"#utility.yul\":17680:17683   */\n      0xa0\n        /* \"#utility.yul\":17675:17677   */\n      0x20\n        /* \"#utility.yul\":17664:17673   */\n      dup3\n        /* \"#utility.yul\":17660:17678   */\n      add\n        /* \"#utility.yul\":17653:17684   */\n      mstore\n        /* \"#utility.yul\":17581:17585   */\n      0x00\n        /* \"#utility.yul\":17701:17775   */\n      tag_1107\n        /* \"#utility.yul\":17770:17773   */\n      0xa0\n        /* \"#utility.yul\":17759:17768   */\n      dup4\n        /* \"#utility.yul\":17755:17774   */\n      add\n        /* \"#utility.yul\":17747:17753   */\n      dup8\n        /* \"#utility.yul\":17739:17745   */\n      dup10\n        /* \"#utility.yul\":17701:17775   */\n      tag_992\n      jump\t// in\n    tag_1107:\n        /* \"#utility.yul\":17806:17808   */\n      0x40\n        /* \"#utility.yul\":17791:17809   */\n      dup4\n      add\n        /* \"#utility.yul\":17784:17818   */\n      swap6\n      swap1\n      swap6\n      mstore\n      pop\n        /* \"#utility.yul\":17849:17851   */\n      0x60\n        /* \"#utility.yul\":17834:17852   */\n      dup2\n      add\n        /* \"#utility.yul\":17827:17861   */\n      swap3\n      swap1\n      swap3\n      mstore\n        /* \"#utility.yul\":17892:17895   */\n      0x80\n        /* \"#utility.yul\":17877:17896   */\n      swap1\n      swap2\n      add\n        /* \"#utility.yul\":17870:17905   */\n      mstore\n        /* \"#utility.yul\":17693:17775   */\n      swap4\n        /* \"#utility.yul\":17306:17911   */\n      swap3\n      pop\n      pop\n      pop\n      jump\t// out\n        /* \"#utility.yul\":18623:18911   */\n    tag_752:\n        /* \"#utility.yul\":18812:18814   */\n      0x20\n        /* \"#utility.yul\":18801:18810   */\n      dup2\n        /* \"#utility.yul\":18794:18815   */\n      mstore\n        /* \"#utility.yul\":18775:18779   */\n      0x00\n        /* \"#utility.yul\":18832:18905   */\n      tag_1111\n        /* \"#utility.yul\":18901:18903   */\n      0x20\n        /* \"#utility.yul\":18890:18899   */\n      dup4\n        /* \"#utility.yul\":18886:18904   */\n      add\n        /* \"#utility.yul\":18878:18884   */\n      dup5\n        /* \"#utility.yul\":18870:18876   */\n      dup7\n        /* \"#utility.yul\":18832:18905   */\n      tag_992\n      jump\t// in\n    tag_1111:\n        /* \"#utility.yul\":18824:18905   */\n      swap5\n        /* \"#utility.yul\":18623:18911   */\n      swap4\n      pop\n      pop\n      pop\n      pop\n      jump\t// out\n        /* \"#utility.yul\":19606:19790   */\n    tag_788:\n        /* \"#utility.yul\":19676:19682   */\n      0x00\n        /* \"#utility.yul\":19729:19731   */\n      0x20\n        /* \"#utility.yul\":19717:19726   */\n      dup3\n        /* \"#utility.yul\":19708:19715   */\n      dup5\n        /* \"#utility.yul\":19704:19727   */\n      sub\n        /* \"#utility.yul\":19700:19732   */\n      slt\n        /* \"#utility.yul\":19697:19749   */\n      iszero\n      tag_1115\n      jumpi\n        /* \"#utility.yul\":19745:19746   */\n      0x00\n        /* \"#utility.yul\":19742:19743   */\n      dup1\n        /* \"#utility.yul\":19735:19747   */\n      revert\n        /* \"#utility.yul\":19697:19749   */\n    tag_1115:\n      pop\n        /* \"#utility.yul\":19768:19784   */\n      mload\n      swap2\n        /* \"#utility.yul\":19606:19790   */\n      swap1\n      pop\n      jump\t// out\n        /* \"#utility.yul\":20883:21161   */\n    tag_908:\n        /* \"#utility.yul\":21056:21058   */\n      0x40\n        /* \"#utility.yul\":21041:21059   */\n      dup2\n      add\n        /* \"#utility.yul\":21068:21112   */\n      tag_1120\n        /* \"#utility.yul\":21045:21054   */\n      dup3\n        /* \"#utility.yul\":21094:21100   */\n      dup6\n        /* \"#utility.yul\":21068:21112   */\n      tag_989\n      jump\t// in\n    tag_1120:\n        /* \"#utility.yul\":21148:21154   */\n      dup3\n        /* \"#utility.yul\":21143:21145   */\n      0x20\n        /* \"#utility.yul\":21132:21141   */\n      dup4\n        /* \"#utility.yul\":21128:21146   */\n      add\n        /* \"#utility.yul\":21121:21155   */\n      mstore\n        /* \"#utility.yul\":20883:21161   */\n      swap4\n      swap3\n      pop\n      pop\n      pop\n      jump\t// out\n        /* \"#utility.yul\":22194:22697   */\n    tag_968:\n        /* \"#utility.yul\":22445:22448   */\n      0xa0\n        /* \"#utility.yul\":22430:22449   */\n      dup2\n      add\n        /* \"#utility.yul\":22458:22502   */\n      tag_1125\n        /* \"#utility.yul\":22434:22443   */\n      dup3\n        /* \"#utility.yul\":22484:22490   */\n      dup9\n        /* \"#utility.yul\":22458:22502   */\n      tag_989\n      jump\t// in\n    tag_1125:\n        /* \"#utility.yul\":22538:22544   */\n      dup6\n        /* \"#utility.yul\":22533:22535   */\n      0x20\n        /* \"#utility.yul\":22522:22531   */\n      dup4\n        /* \"#utility.yul\":22518:22536   */\n      add\n        /* \"#utility.yul\":22511:22545   */\n      mstore\n        /* \"#utility.yul\":22581:22587   */\n      dup5\n        /* \"#utility.yul\":22576:22578   */\n      0x40\n        /* \"#utility.yul\":22565:22574   */\n      dup4\n        /* \"#utility.yul\":22561:22579   */\n      add\n        /* \"#utility.yul\":22554:22588   */\n      mstore\n        /* \"#utility.yul\":22624:22630   */\n      dup4\n        /* \"#utility.yul\":22619:22621   */\n      0x60\n        /* \"#utility.yul\":22608:22617   */\n      dup4\n        /* \"#utility.yul\":22604:22622   */\n      add\n        /* \"#utility.yul\":22597:22631   */\n      mstore\n        /* \"#utility.yul\":22682:22688   */\n      dup3\n        /* \"#utility.yul\":22675:22689   */\n      iszero\n        /* \"#utility.yul\":22668:22690   */\n      iszero\n        /* \"#utility.yul\":22662:22665   */\n      0x80\n        /* \"#utility.yul\":22651:22660   */\n      dup4\n        /* \"#utility.yul\":22647:22666   */\n      add\n        /* \"#utility.yul\":22640:22691   */\n      mstore\n        /* \"#utility.yul\":22194:22697   */\n      swap7\n      swap6\n      pop\n      pop\n      pop\n      pop\n      pop\n      pop\n      jump\t// out\n    stop\n    data_cb864c43dd5d441bb6271f424f11befa622c032dfd374d226e26fbbdb782b8f8 a49807205ce4d355092ef5a8a18f56e8913cf4a201fbe287825b095693c21775\n\n    auxdata: 0xa264697066735822122008519663228ac38f799ce5393b8edfa32324d8e314171028cd06b12cbbae2a2e64736f6c63430008190033\n}\n",
    "bytecode": {
      "linkReferences": {},
      "object": "608060405262ed4e006002556a0422ca8b0a00a42500000060035565048c2739500060045534801561002f575f80fd5b5060405161442138038061442183398101604081905261004e916102a3565b600180555f5b82518110156101a4576100885f801b84838151811061007557610075610374565b60200260200101516101cb60201b60201c565b506100bf7fa49807205ce4d355092ef5a8a18f56e8913cf4a201fbe287825b095693c2177584838151811061007557610075610374565b506100f67f65d7a28e3265b37a6474929f336521b332c1681b933f6cb9f3376673440d862a84838151811061007557610075610374565b5061012d7fc806897caf4fd5068191157e44d3988e43139a37e0b97b6793e1ed118414060484838151811061007557610075610374565b506101647ff60566c40710959d8d30b6067ce3c53c757bec78eecb0e46b83c7f8194ffae3784838151811061007557610075610374565b5061019b7f78c90eb9e475048b483a290aee04b5fe48355537c3623c7637b17d3bed71c6ed84838151811061007557610075610374565b50600101610054565b50600780546001600160a01b0319166001600160a01b039290921691909117905550610388565b5f828152602081815260408083206001600160a01b038516845290915281205460ff1661026b575f838152602081815260408083206001600160a01b03861684529091529020805460ff191660011790556102233390565b6001600160a01b0316826001600160a01b0316847f2f8788117e7eff1d82e926ec794901d17c78024a50270940304540a733656f0d60405160405180910390a450600161026e565b505f5b92915050565b634e487b7160e01b5f52604160045260245ffd5b80516001600160a01b038116811461029e575f80fd5b919050565b5f80604083850312156102b4575f80fd5b82516001600160401b03808211156102ca575f80fd5b818501915085601f8301126102dd575f80fd5b81516020828211156102f1576102f1610274565b8160051b604051601f19603f8301168101818110868211171561031657610316610274565b604052928352818301935084810182019289841115610333575f80fd5b948201945b838610156103585761034986610288565b85529482019493820193610338565b96506103679050878201610288565b9450505050509250929050565b634e487b7160e01b5f52603260045260245ffd5b61408c806103955f395ff3fe608060405260043610610438575f3560e01c8063885f502911610237578063b758aeaa1161013c578063e340b783116100b7578063ee947a7c11610087578063f5f69af21161006d578063f5f69af214610d2a578063f6326fb314610d49578063f688bcfb14610d51575f80fd5b8063ee947a7c14610cf6578063f29b223914610d0b575f80fd5b8063e340b78314610c6f578063e399067f14610c84578063e63ab1e914610c98578063e9fe0c7814610ccb575f80fd5b8063d830d5cc1161010c578063e02f6aca116100f2578063e02f6aca14610c08578063e043b2b214610c27578063e15e23c114610c5a575f80fd5b8063d830d5cc14610bd5578063da8d5add14610bf4575f80fd5b8063b758aeaa14610b64578063bda821e814610b83578063c771c39014610b97578063d547741f14610bb6575f80fd5b806397d9e5b4116101cc578063a2bdedf41161019c578063b2118a8d11610182578063b2118a8d14610b12578063b2b77ae214610b31578063b65ba94b14610b4f575f80fd5b8063a2bdedf414610a86578063a59aa5a614610aa5575f80fd5b806397d9e5b414610a2a5780639ddc391214610a3f5780639e657e3314610a54578063a217fddf14610a73575f80fd5b806389bad0a61161020757806389bad0a6146109955780638b713b2e146109b457806391d14854146109c957806393055c4314610a0b575f80fd5b8063885f5029146108e3578063886d589d14610916578063899aa9911461094157806389a3027114610956575f80fd5b806341debf1f1161033d57806364021b13116102d257806372e55399116102a2578063762e1c7311610288578063762e1c731461088657806376c1d3db146108a5578063867d099a146108c4575f80fd5b806372e553991461084757806375b238fc14610866575f80fd5b806364021b13146107ed5780636426be48146107f55780636c6ff56c146108145780636ec2399514610828575f80fd5b806353d6fd591161030d57806353d6fd5914610772578063588583a0146107915780635e2c19db146107a65780636068d6cb146107d4575f80fd5b806341debf1f146106bb57806347af19aa146106da5780634e43603a146106f957806351fb012d14610753575f80fd5b806327175b23116103cd5780632f2ff15d1161039d57806336568abe1161038357806336568abe146106595780633ac43970146106785780633af32abf1461068d575f80fd5b80632f2ff15d1461060f5780633408567c1461062e575f80fd5b806327175b231461059b578063275991d2146105b05780632a5bf6d2146105c45780632e1a7d4d146105f0575f80fd5b80630c016ad5116104085780630c016ad5146105055780631c5aeef714610538578063246d47b71461054d578063248a9ca31461056d575f80fd5b806301ffc9a71461044357806304c68af014610477578063052d9e7e146104b057806308f43333146104d1575f80fd5b3661043f57005b5f80fd5b34801561044e575f80fd5b5061046261045d366004613a76565b610d70565b60405190151581526020015b60405180910390f35b348015610482575f80fd5b506104a2610491366004613abf565b600e6020525f908152604090205481565b60405190815260200161046e565b3480156104bb575f80fd5b506104cf6104ca366004613ae5565b610da6565b005b3480156104dc575f80fd5b506104f06104eb366004613b00565b610dda565b60405161046e99989796959493929190613b5c565b348015610510575f80fd5b506104a27ff60566c40710959d8d30b6067ce3c53c757bec78eecb0e46b83c7f8194ffae3781565b348015610543575f80fd5b506104a260045481565b348015610558575f80fd5b50600554610462906301000000900460ff1681565b348015610578575f80fd5b506104a2610587366004613bab565b5f9081526020819052604090206001015490565b3480156105a6575f80fd5b506104a260135481565b3480156105bb575f80fd5b506104cf610e4e565b3480156105cf575f80fd5b506105e36105de366004613abf565b610f45565b60405161046e9190613bc2565b3480156105fb575f80fd5b506104cf61060a366004613bab565b611053565b34801561061a575f80fd5b506104cf610629366004613c68565b611454565b348015610639575f80fd5b506104a2610648366004613abf565b600b6020525f908152604090205481565b348015610664575f80fd5b506104cf610673366004613c68565b61147e565b348015610683575f80fd5b506104a260175481565b348015610698575f80fd5b506104626106a7366004613abf565b60096020525f908152604090205460ff1681565b3480156106c6575f80fd5b506104cf6106d5366004613cda565b6114b6565b3480156106e5575f80fd5b506104cf6106f4366004613cda565b611666565b348015610704575f80fd5b50610718610713366004613abf565b6117d4565b604080519889526020890197909752958701949094526060860192909252608085015260a084015260c083015260e08201526101000161046e565b34801561075e575f80fd5b506005546104629062010000900460ff1681565b34801561077d575f80fd5b506104cf61078c366004613d41565b611aa3565b34801561079c575f80fd5b506104a260065481565b3480156107b1575f80fd5b506104626107c0366004613abf565b600a6020525f908152604090205460ff1681565b3480156107df575f80fd5b506005546104629060ff1681565b6104cf611b19565b348015610800575f80fd5b506104cf61080f366004613d76565b611bd7565b34801561081f575f80fd5b506104cf611c66565b348015610833575f80fd5b506104cf610842366004613b00565b611d82565b348015610852575f80fd5b506104cf610861366004613d92565b611e5b565b348015610871575f80fd5b506104a25f8051602061403783398151915281565b348015610891575f80fd5b506104cf6108a0366004613b00565b61238d565b3480156108b0575f80fd5b506104cf6108bf366004613bab565b61245c565b3480156108cf575f80fd5b506104cf6108de366004613dd1565b6125c2565b3480156108ee575f80fd5b506104a27f78c90eb9e475048b483a290aee04b5fe48355537c3623c7637b17d3bed71c6ed81565b348015610921575f80fd5b506104a2610930366004613abf565b600d6020525f908152604090205481565b34801561094c575f80fd5b506104a260125481565b348015610961575f80fd5b5061097d73833589fcd6edb6e08f4c7c32d4f71b54bda0291381565b6040516001600160a01b03909116815260200161046e565b3480156109a0575f80fd5b506104cf6109af366004613abf565b612715565b3480156109bf575f80fd5b506104a260145481565b3480156109d4575f80fd5b506104626109e3366004613c68565b5f918252602082815260408084206001600160a01b0393909316845291905290205460ff1690565b348015610a16575f80fd5b506104cf610a25366004613bab565b6127c7565b348015610a35575f80fd5b506104a260185481565b348015610a4a575f80fd5b506104a260035481565b348015610a5f575f80fd5b5061097d610a6e366004613bab565b61298c565b348015610a7e575f80fd5b506104a25f81565b348015610a91575f80fd5b5061097d610aa0366004613bab565b6129b4565b348015610ab0575f80fd5b50610ab96129c3565b604080519c8d5260208d019b909b52998b019890985260608a0196909652608089019490945260a088019290925260c087015260e08601526101008501526101208401526101408301526101608201526101800161046e565b348015610b1d575f80fd5b506104cf610b2c366004613e20565b612a94565b348015610b3c575f80fd5b5060055461046290610100900460ff1681565b348015610b5a575f80fd5b506104a260165481565b348015610b6f575f80fd5b506104cf610b7e366004613cda565b612bb4565b348015610b8e575f80fd5b506104cf612d57565b348015610ba2575f80fd5b506104cf610bb1366004613bab565b612e34565b348015610bc1575f80fd5b506104cf610bd0366004613c68565b612e80565b348015610be0575f80fd5b506104cf610bef366004613bab565b612ea4565b348015610bff575f80fd5b506104cf612fe5565b348015610c13575f80fd5b5061097d610c22366004613bab565b61316f565b348015610c32575f80fd5b506104a27fc806897caf4fd5068191157e44d3988e43139a37e0b97b6793e1ed118414060481565b348015610c65575f80fd5b506104a260195481565b348015610c7a575f80fd5b506104a260155481565b348015610c8f575f80fd5b506104cf61317e565b348015610ca3575f80fd5b506104a27f65d7a28e3265b37a6474929f336521b332c1681b933f6cb9f3376673440d862a81565b348015610cd6575f80fd5b506104a2610ce5366004613abf565b600c6020525f908152604090205481565b348015610d01575f80fd5b506104a260025481565b348015610d16575f80fd5b5060075461097d906001600160a01b031681565b348015610d35575f80fd5b506104cf610d44366004613e59565b6132b9565b6104cf613342565b348015610d5c575f80fd5b506104cf610d6b366004613bab565b6134a2565b5f6001600160e01b03198216637965db0b60e01b1480610da057506301ffc9a760e01b6001600160e01b03198316145b92915050565b5f80516020614037833981519152610dbd81613685565b5060058054911515620100000262ff000019909216919091179055565b6008602052815f5260405f208181548110610df3575f80fd5b5f91825260209091206006909102018054600182015460028301546003840154600485015460059095015460ff9485169750929550909381841693610100830481169362010000840482169363010000009004909116919089565b610e5661368f565b335f908152600b602052604090205480610ea45760405162461bcd60e51b815260206004820152600a6024820152694e6f207574696c69747960b01b60448201526064015b60405180910390fd5b335f818152600b60205260408120819055610ec291908360016136b9565b8060185f828254610ed39190613e8c565b9091555050335f908152600d602052604081208054839290610ef6908490613e8c565b909155505060405133907f997d2ec09b086de73d509bbc4ad2b52fd7e2338024464bede93a41abd6ccdc3890610f31905f9085904290613e9f565b60405180910390a250610f4360018055565b565b6001600160a01b0381165f908152600860209081526040808320805482518185028101850190935280835260609492939192909184015b82821015611048575f84815260209020604080516101208101909152600684029091018054829060ff166001811115610fb757610fb7613b28565b6001811115610fc857610fc8613b28565b815260018281015460208084019190915260028401546040840152600384015460ff808216151560608601526101008083048216151560808701526201000083048216151560a0870152630100000090920416151560c0850152600485015460e08501526005909401549390920192909252918352929092019101610f7c565b505050509050919050565b61105b61368f565b600554610100900460ff16156110b35760405162461bcd60e51b815260206004820152601260248201527f5769746864726177616c732070617573656400000000000000000000000000006044820152606401610e9b565b335f9081526008602052604081208054839081106110d3576110d3613ebe565b5f9182526020909120600690910201600381015490915060ff161561113a5760405162461bcd60e51b815260206004820152601160248201527f416c72656164792077697468647261776e0000000000000000000000000000006044820152606401610e9b565b600254816002015461114c9190613e8c565b4210158061116357506003810154610100900460ff165b8061118c57506005546301000000900460ff16801561118c5750600381015462010000900460ff165b6111c95760405162461bcd60e51b815260206004820152600e60248201526d11195c1bdcda5d081b1bd8dad95960921b6044820152606401610e9b565b60038101805460ff1916600117905542600482015560058101545f825460ff1660018111156111fa576111fa613b28565b036112b857816001015460145f8282546112149190613e8c565b909155505060018201545f90339061122d908490613e8c565b6040515f81818185875af1925050503d805f8114611266576040519150601f19603f3d011682016040523d82523d5f602084013e61126b565b606091505b50509050806112b25760405162461bcd60e51b8152602060048201526013602482015272115512081d1c985b9cd9995c8819985a5b1959606a1b6044820152606401610e9b565b5061138b565b6001825460ff1660018111156112d0576112d0613b28565b0361138b57816001015460155f8282546112ea9190613e8c565b9091555050600182015473833589fcd6edb6e08f4c7c32d4f71b54bda029139063a9059cbb90339061131d908590613e8c565b6040516001600160e01b031960e085901b1681526001600160a01b03909216600483015260248201526044016020604051808303815f875af1158015611365573d5f803e3d5ffd5b505050506040513d601f19601f820116820180604052508101906113899190613ed2565b505b335f908152600a602052604090205460ff166113fb576010805460018181019092557f1b6847dc741a1b0cd08d278845f9d819d87b734759afb55fe2de5cb82a9ae6720180546001600160a01b031916339081179091555f908152600a60205260409020805460ff191690911790555b8154600183015460405133927fcb034b37ef3764745c35bafecd525367bcf312e9010239e6aeebbe6bcf57727f9261143e9260ff90921691869042908a90613eed565b60405180910390a2505061145160018055565b50565b5f8281526020819052604090206001015461146e81613685565b61147883836138fc565b50505050565b6001600160a01b03811633146114a75760405163334bd91960e11b815260040160405180910390fd5b6114b182826139a3565b505050565b5f805160206140378339815191526114cd81613685565b8382146115075760405162461bcd60e51b815260206004820152600860248201526709ad2e6dac2e8c6d60c31b6044820152606401610e9b565b5f805b85811015611606575f85858381811061152557611525613ebe565b90506020020135116115625760405162461bcd60e51b8152600401610e9b906020808252600490820152635a65726f60e01b604082015260600190565b84848281811061157457611574613ebe565b90506020020135600c5f89898581811061159057611590613ebe565b90506020020160208101906115a59190613abf565b6001600160a01b03166001600160a01b031681526020019081526020015f205f8282546115d29190613e8c565b9091555085905084828181106115ea576115ea613ebe565b90506020020135826115fc9190613e8c565b915060010161150a565b506017548111156116485760405162461bcd60e51b815260206004820152600c60248201526b115e18d959591cc81c1bdbdb60a21b6044820152606401610e9b565b8060175f8282546116599190613f1d565b9091555050505050505050565b5f8051602061403783398151915261167d81613685565b8382146116b75760405162461bcd60e51b815260206004820152600860248201526709ad2e6dac2e8c6d60c31b6044820152606401610e9b565b5f5b848110156117cc578383828181106116d3576116d3613ebe565b90506020020160208101906116e89190613ae5565b60095f8888858181106116fd576116fd613ebe565b90506020020160208101906117129190613abf565b6001600160a01b0316815260208101919091526040015f20805460ff191691151591909117905585858281811061174b5761174b613ebe565b90506020020160208101906117609190613abf565b6001600160a01b03167f995d2434d36c9bceaab42c56efe51e8ffe41fd11cabefd9e2cb83700d8b2035e85858481811061179c5761179c613ebe565b90506020020160208101906117b19190613ae5565b604051901515815260200160405180910390a26001016116b9565b505050505050565b6001600160a01b0381165f9081526008602052604081208190819081908190819081908190815b8154811015611a6a575f82828154811061181757611817613ebe565b5f91825260209091206006909102015460ff16600181111561183b5761183b613b28565b036119355781818154811061185257611852613ebe565b905f5260205f209060060201600101548a61186d9190613e8c565b995081818154811061188157611881613ebe565b5f91825260209091206003600690920201015460ff16156118cc578181815481106118ae576118ae613ebe565b905f5260205f20906006020160010154886118c99190613e8c565b97505b8181815481106118de576118de613ebe565b905f5260205f20906006020160030160039054906101000a900460ff16156119305781818154811061191257611912613ebe565b905f5260205f209060060201600101548461192d9190613e8c565b93505b611a62565b600182828154811061194957611949613ebe565b5f91825260209091206006909102015460ff16600181111561196d5761196d613b28565b03611a625781818154811061198457611984613ebe565b905f5260205f209060060201600101548961199f9190613e8c565b98508181815481106119b3576119b3613ebe565b5f91825260209091206003600690920201015460ff16156119fe578181815481106119e0576119e0613ebe565b905f5260205f20906006020160010154876119fb9190613e8c565b96505b818181548110611a1057611a10613ebe565b905f5260205f20906006020160030160039054906101000a900460ff1615611a6257818181548110611a4457611a44613ebe565b905f5260205f2090600602016001015483611a5f9190613e8c565b92505b6001016117fb565b50506001600160a01b039098165f908152600b6020908152604080832054600c9092529091205497999698959794969095919350909150565b5f80516020614037833981519152611aba81613685565b6001600160a01b0383165f81815260096020908152604091829020805460ff191686151590811790915591519182527f995d2434d36c9bceaab42c56efe51e8ffe41fd11cabefd9e2cb83700d8b2035e910160405180910390a2505050565b7ff60566c40710959d8d30b6067ce3c53c757bec78eecb0e46b83c7f8194ffae37611b4381613685565b5f3411611b805760405162461bcd60e51b815260206004820152600b60248201526a139bc8115512081cd95b9d60aa1b6044820152606401610e9b565b3460165f828254611b919190613e8c565b909155505060405133907f8bafec96fcffb6f12596b4635c76397b7bc1f363b22c49c13136b63677323dcc90611bcc905f9034904290613e9f565b60405180910390a250565b7f65d7a28e3265b37a6474929f336521b332c1681b933f6cb9f3376673440d862a611c0181613685565b60058054831515610100810261ff001987151590811661ffff1990941693909317179092556040805191825260208201929092527fac1664632d6278432aa05a6afc0aa83e5ea08e8df9a1436736daa5d6283211c091015b60405180910390a1505050565b611c6e61368f565b335f908152600c602052604090205480611cb75760405162461bcd60e51b815260206004820152600a6024820152694e6f207574696c69747960b01b6044820152606401610e9b565b335f818152600c6020526040808220919091555163a9059cbb60e01b815260048101919091526024810182905273833589fcd6edb6e08f4c7c32d4f71b54bda029139063a9059cbb906044016020604051808303815f875af1158015611d1f573d5f803e3d5ffd5b505050506040513d601f19601f82011682018060405250810190611d439190613ed2565b50336001600160a01b03167f6914793c7a82461acec66c7de7fdbbbf1f825c26bc2fe939b61f0e4f8964c2b560018342604051610f3193929190613e9f565b5f80516020614037833981519152611d9981613685565b5f8211611dd15760405162461bcd60e51b8152600401610e9b906020808252600490820152635a65726f60e01b604082015260600190565b601654821115611e125760405162461bcd60e51b815260206004820152600c60248201526b115e18d959591cc81c1bdbdb60a21b6044820152606401610e9b565b6001600160a01b0383165f908152600b602052604081208054849290611e39908490613e8c565b925050819055508160165f828254611e519190613f1d565b9091555050505050565b611e6361368f565b600554610100900460ff1615611ebb5760405162461bcd60e51b815260206004820152601260248201527f5769746864726177616c732070617573656400000000000000000000000000006044820152606401610e9b565b5f805f805f5b8581101561219c57335f908152600860205260408120888884818110611ee957611ee9613ebe565b9050602002013581548110611f0057611f00613ebe565b5f9182526020909120600690910201600381015490915060ff1615611f675760405162461bcd60e51b815260206004820152601160248201527f416c72656164792077697468647261776e0000000000000000000000000000006044820152606401610e9b565b6002548160020154611f799190613e8c565b42101580611f9057506003810154610100900460ff165b80611fb957506005546301000000900460ff168015611fb95750600381015462010000900460ff165b611ff65760405162461bcd60e51b815260206004820152600e60248201526d11195c1bdcda5d081b1bd8dad95960921b6044820152606401610e9b565b60038101805460ff1916600117905542600482015560058101545f825460ff16600181111561202757612027613b28565b0361206857816001015460145f8282546120419190613e8c565b909155505060018201546120559088613e8c565b96506120618187613e8c565b95506120bd565b6001825460ff16600181111561208057612080613b28565b036120bd57816001015460155f82825461209a9190613e8c565b909155505060018201546120ae9086613e8c565b94506120ba8185613e8c565b93505b335f908152600a602052604090205460ff1661212d576010805460018181019092557f1b6847dc741a1b0cd08d278845f9d819d87b734759afb55fe2de5cb82a9ae6720180546001600160a01b031916339081179091555f908152600a60205260409020805460ff191690911790555b8154600183015433917fcb034b37ef3764745c35bafecd525367bcf312e9010239e6aeebbe6bcf57727f9160ff9091169084428e8e8a81811061217257612172613ebe565b9050602002013560405161218a959493929190613eed565b60405180910390a25050600101611ec1565b505f6121a88486613e8c565b111561228c575f336121ba8587613e8c565b6040515f81818185875af1925050503d805f81146121f3576040519150601f19603f3d011682016040523d82523d5f602084013e6121f8565b606091505b505090508061223f5760405162461bcd60e51b8152602060048201526013602482015272115512081d1c985b9cd9995c8819985a5b1959606a1b6044820152606401610e9b565b336001600160a01b03167fbf06e98fe211a4b82f625232ab1c7a75caea5e0d624bc267578d6f22fce788c35f898989894260405161228296959493929190613f79565b60405180910390a2505b5f6122978284613e8c565b111561237c5773833589fcd6edb6e08f4c7c32d4f71b54bda0291363a9059cbb336122c28486613e8c565b6040516001600160e01b031960e085901b1681526001600160a01b03909216600483015260248201526044016020604051808303815f875af115801561230a573d5f803e3d5ffd5b505050506040513d601f19601f8201168201806040525081019061232e9190613ed2565b50336001600160a01b03167fbf06e98fe211a4b82f625232ab1c7a75caea5e0d624bc267578d6f22fce788c36001888886864260405161237396959493929190613f79565b60405180910390a25b5050505061238960018055565b5050565b5f805160206140378339815191526123a481613685565b5f82116123dc5760405162461bcd60e51b8152600401610e9b906020808252600490820152635a65726f60e01b604082015260600190565b60175482111561241d5760405162461bcd60e51b815260206004820152600c60248201526b115e18d959591cc81c1bdbdb60a21b6044820152606401610e9b565b6001600160a01b0383165f908152600c602052604081208054849290612444908490613e8c565b925050819055508160175f828254611e519190613f1d565b7f78c90eb9e475048b483a290aee04b5fe48355537c3623c7637b17d3bed71c6ed61248681613685565b61248e61368f565b6007546001600160a01b03166124e65760405162461bcd60e51b815260206004820152601760248201527f5574696c6974792061646472657373206e6f74207365740000000000000000006044820152606401610e9b565b60075460405163a9059cbb60e01b81526001600160a01b0390911660048201526024810183905273833589fcd6edb6e08f4c7c32d4f71b54bda029139063a9059cbb906044016020604051808303815f875af1158015612548573d5f803e3d5ffd5b505050506040513d601f19601f8201168201806040525081019061256c9190613ed2565b506007546040516001600160a01b03909116907f9adbdc797aca3ce26a722598f00149b2328fd124444e6d0b10c4bdc7cfc38196906125b19060019086904290613e9f565b60405180910390a261238960018055565b7fc806897caf4fd5068191157e44d3988e43139a37e0b97b6793e1ed11841406046125ec81613685565b5f5b828110156126cb576001600160a01b0385165f90815260086020526040812085858481811061261f5761261f613ebe565b905060200201358154811061263657612636613ebe565b5f9182526020909120600690910201600381015490915060ff1615801561266757506003810154610100900460ff16155b6126b35760405162461bcd60e51b815260206004820152601a60248201527f416c726561647920756e6c6f636b65642f77697468647261776e0000000000006044820152606401610e9b565b600301805461ff0019166101001790556001016125ee565b50836001600160a01b03167f8b655a966f162e1d3686ea25cd61682331984ab5662b451deff96f12d716f45b8484604051612707929190613fb7565b60405180910390a250505050565b5f8051602061403783398151915261272c81613685565b6001600160a01b0382166127715760405162461bcd60e51b815260206004820152600c60248201526b5a65726f206164647265737360a01b6044820152606401610e9b565b600780546001600160a01b0319166001600160a01b0384169081179091556040519081527f1d6240e71a77c9e9d07d1d6ecbb9ea4274fcc8bc19adc5b05a3548ac7e40e189906020015b60405180910390a15050565b7f78c90eb9e475048b483a290aee04b5fe48355537c3623c7637b17d3bed71c6ed6127f181613685565b6127f961368f565b6007546001600160a01b03166128515760405162461bcd60e51b815260206004820152601760248201527f5574696c6974792061646472657373206e6f74207365740000000000000000006044820152606401610e9b565b478211156128a15760405162461bcd60e51b815260206004820152601460248201527f496e73756666696369656e742062616c616e63650000000000000000000000006044820152606401610e9b565b6007546040515f916001600160a01b03169084908381818185875af1925050503d805f81146128eb576040519150601f19603f3d011682016040523d82523d5f602084013e6128f0565b606091505b50509050806129375760405162461bcd60e51b8152602060048201526013602482015272115512081d1c985b9cd9995c8819985a5b1959606a1b6044820152606401610e9b565b6007546040516001600160a01b03909116907f9adbdc797aca3ce26a722598f00149b2328fd124444e6d0b10c4bdc7cfc381969061297a905f9087904290613e9f565b60405180910390a25061238960018055565b6010818154811061299b575f80fd5b5f918252602090912001546001600160a01b0316905081565b600f818154811061299b575f80fd5b6040516370a0823160e01b815230600482015247905f90819081908190819081908190819081908190819073833589fcd6edb6e08f4c7c32d4f71b54bda02913906370a0823190602401602060405180830381865afa158015612a28573d5f803e3d5ffd5b505050506040513d601f19601f82011682018060405250810190612a4c9190613fd2565b9a5060125499506013549850601454975060155496506016549550601754945060185493506019549250600f8054905091506010805490509050909192939495969798999a9b565b5f80516020614037833981519152612aab81613685565b6001600160a01b038316612af05760405162461bcd60e51b815260206004820152600c60248201526b5a65726f206164647265737360a01b6044820152606401610e9b565b60405163a9059cbb60e01b81526001600160a01b0384811660048301526024820184905285169063a9059cbb906044016020604051808303815f875af1158015612b3c573d5f803e3d5ffd5b505050506040513d601f19601f82011682018060405250810190612b609190613ed2565b50826001600160a01b0316846001600160a01b03167f8bbfbb5d7fcacf6fc74005cdede0635561638507f576c95f7f294c22141be2e584604051612ba691815260200190565b60405180910390a350505050565b5f80516020614037833981519152612bcb81613685565b838214612c055760405162461bcd60e51b815260206004820152600860248201526709ad2e6dac2e8c6d60c31b6044820152606401610e9b565b5f805b85811015612d04575f858583818110612c2357612c23613ebe565b9050602002013511612c605760405162461bcd60e51b8152600401610e9b906020808252600490820152635a65726f60e01b604082015260600190565b848482818110612c7257612c72613ebe565b90506020020135600b5f898985818110612c8e57612c8e613ebe565b9050602002016020810190612ca39190613abf565b6001600160a01b03166001600160a01b031681526020019081526020015f205f828254612cd09190613e8c565b909155508590508482818110612ce857612ce8613ebe565b9050602002013582612cfa9190613e8c565b9150600101612c08565b50601654811115612d465760405162461bcd60e51b815260206004820152600c60248201526b115e18d959591cc81c1bdbdb60a21b6044820152606401610e9b565b8060165f8282546116599190613f1d565b612d5f61368f565b335f908152600c602052604090205480612da85760405162461bcd60e51b815260206004820152600a6024820152694e6f207574696c69747960b01b6044820152606401610e9b565b335f818152600c6020526040812055612dc490600183816136b9565b8060195f828254612dd59190613e8c565b9091555050335f908152600e602052604081208054839290612df8908490613e8c565b909155505060405133907f997d2ec09b086de73d509bbc4ad2b52fd7e2338024464bede93a41abd6ccdc3890610f319060019085904290613e9f565b5f80516020614037833981519152612e4b81613685565b60028290556040518281527fc5e00a325524bc148ddc05bb642b804e9ae1dfc670c217ed3c4c6595f7427ef4906020016127bb565b5f82815260208190526040902060010154612e9a81613685565b61147883836139a3565b7ff60566c40710959d8d30b6067ce3c53c757bec78eecb0e46b83c7f8194ffae37612ece81613685565b5f8211612f0c5760405162461bcd60e51b815260206004820152600c60248201526b139bc81554d110c81cd95b9d60a21b6044820152606401610e9b565b6040516323b872dd60e01b81523360048201523060248201526044810183905273833589fcd6edb6e08f4c7c32d4f71b54bda02913906323b872dd906064016020604051808303815f875af1158015612f67573d5f803e3d5ffd5b505050506040513d601f19601f82011682018060405250810190612f8b9190613ed2565b508160175f828254612f9d9190613e8c565b909155505060405133907f8bafec96fcffb6f12596b4635c76397b7bc1f363b22c49c13136b63677323dcc90612fd99060019086904290613e9f565b60405180910390a25050565b5f80516020614037833981519152612ffc81613685565b6005546301000000900460ff16156130565760405162461bcd60e51b815260206004820152600f60248201527f416c726561647920656e61626c656400000000000000000000000000000000006044820152606401610e9b565b6005805463ff00000019166301000000179055426006555f5b600f54811015613138575f60085f600f848154811061309057613090613ebe565b5f9182526020808320909101546001600160a01b03168352820192909252604001812091505b815481101561312e578181815481106130d1576130d1613ebe565b5f91825260209091206003600690920201015460ff166131265760018282815481106130ff576130ff613ebe565b905f5260205f20906006020160030160026101000a81548160ff0219169083151502179055505b6001016130b6565b505060010161306f565b506040514281527f2388ceaed48d21bd0802856df41a22705f9046a67a817a047352aa3bbfe5c5d19060200160405180910390a150565b6011818154811061299b575f80fd5b61318661368f565b335f908152600b6020526040902054806131cf5760405162461bcd60e51b815260206004820152600a6024820152694e6f207574696c69747960b01b6044820152606401610e9b565b335f818152600b60205260408082208290555190919083908381818185875af1925050503d805f811461321d576040519150601f19603f3d011682016040523d82523d5f602084013e613222565b606091505b50509050806132695760405162461bcd60e51b8152602060048201526013602482015272115512081d1c985b9cd9995c8819985a5b1959606a1b6044820152606401610e9b565b336001600160a01b03167f6914793c7a82461acec66c7de7fdbbbf1f825c26bc2fe939b61f0e4f8964c2b55f84426040516132a693929190613e9f565b60405180910390a25050610f4360018055565b5f805160206140378339815191526132d081613685565b5f8360018111156132e3576132e3613b28565b036132f2576003829055613311565b600183600181111561330657613306613b28565b036133115760048290555b7f5d7976bccd4b396c1a1a0020032e62bf8a381bcffc61e69a13ea61761b7572188383604051611c59929190613fe9565b61334a61368f565b60055460ff161561338f5760405162461bcd60e51b815260206004820152600f60248201526e11195c1bdcda5d1cc81c185d5cd959608a1b6044820152606401610e9b565b5f34116133cc5760405162461bcd60e51b815260206004820152600b60248201526a139bc8115512081cd95b9d60aa1b6044820152606401610e9b565b600354346012546133dd9190613e8c565b11156134195760405162461bcd60e51b815260206004820152600b60248201526a10d85c081c995858da195960aa1b6044820152606401610e9b565b60055462010000900460ff161561347a57335f9081526009602052604090205460ff1661347a5760405162461bcd60e51b815260206004820152600f60248201526e139bdd081dda1a5d195b1a5cdd1959608a1b6044820152606401610e9b565b613486335f345f6136b9565b3460125f8282546134979190613e8c565b909155505060018055565b6134aa61368f565b60055460ff16156134ef5760405162461bcd60e51b815260206004820152600f60248201526e11195c1bdcda5d1cc81c185d5cd959608a1b6044820152606401610e9b565b5f811161352d5760405162461bcd60e51b815260206004820152600c60248201526b139bc81554d110c81cd95b9d60a21b6044820152606401610e9b565b6004548160135461353e9190613e8c565b111561357a5760405162461bcd60e51b815260206004820152600b60248201526a10d85c081c995858da195960aa1b6044820152606401610e9b565b60055462010000900460ff16156135db57335f9081526009602052604090205460ff166135db5760405162461bcd60e51b815260206004820152600f60248201526e139bdd081dda1a5d195b1a5cdd1959608a1b6044820152606401610e9b565b6040516323b872dd60e01b81523360048201523060248201526044810182905273833589fcd6edb6e08f4c7c32d4f71b54bda02913906323b872dd906064016020604051808303815f875af1158015613636573d5f803e3d5ffd5b505050506040513d601f19601f8201168201806040525081019061365a9190613ed2565b50613668336001835f6136b9565b8060135f8282546136799190613e8c565b90915550506001805550565b6114518133613a24565b6002600154036136b257604051633ee5aeb560e01b815260040160405180910390fd5b6002600155565b6001600160a01b0384165f90815260086020526040908190208151610120810190925290808560018111156136f0576136f0613b28565b815260208082018690524260408301525f606083018190526080830181905260a0830181905285151560c084015260e0830181905261010090920182905283546001818101865594835291208251600690920201805492939092839160ff199190911690838181111561376557613765613b28565b021790555060208281015160018381019190915560408085015160028501556060850151600385018054608088015160a089015160c08a015161ffff1990931694151561ff0019169490941761010091151582021763ffff00001916620100009415159490940263ff00000019169390931763010000009115159190910217905560e08601516004860155909401516005909301929092556001600160a01b0387165f90815260089091529190912054900361389e57600f805460018181019092557f8d1108e10bcb7c27dddfc02ed9d693a074039d026cf4ea4240b40f7d581ac8020180546001600160a01b0387166001600160a01b031991821681179092556011805493840181555f527f31ecc21a745e3968a04e9570e4425bc18fa8019c68028196b546d1669c200c6890920180549092161790555b6001600160a01b0384165f818152600860205260409020547f48916ac7f9777648255ab8645729ff3b5d20aa412a40fe81dac2433522eaa058908590859042906138ea90600190613f1d565b86604051612707959493929190614004565b5f828152602081815260408083206001600160a01b038516845290915281205460ff1661399c575f838152602081815260408083206001600160a01b03861684529091529020805460ff191660011790556139543390565b6001600160a01b0316826001600160a01b0316847f2f8788117e7eff1d82e926ec794901d17c78024a50270940304540a733656f0d60405160405180910390a4506001610da0565b505f610da0565b5f828152602081815260408083206001600160a01b038516845290915281205460ff161561399c575f838152602081815260408083206001600160a01b0386168085529252808320805460ff1916905551339286917ff6391f5c32d9c69d2a47ea670b442974b53935d1edc7fd64eb21e047a839171b9190a4506001610da0565b5f828152602081815260408083206001600160a01b038516845290915290205460ff166123895760405163e2517d3f60e01b81526001600160a01b038216600482015260248101839052604401610e9b565b5f60208284031215613a86575f80fd5b81356001600160e01b031981168114613a9d575f80fd5b9392505050565b80356001600160a01b0381168114613aba575f80fd5b919050565b5f60208284031215613acf575f80fd5b613a9d82613aa4565b8015158114611451575f80fd5b5f60208284031215613af5575f80fd5b8135613a9d81613ad8565b5f8060408385031215613b11575f80fd5b613b1a83613aa4565b946020939093013593505050565b634e487b7160e01b5f52602160045260245ffd5b60028110613b5857634e487b7160e01b5f52602160045260245ffd5b9052565b6101208101613b6b828c613b3c565b602082019990995260408101979097529415156060870152921515608086015290151560a0850152151560c084015260e083015261010090910152919050565b5f60208284031215613bbb575f80fd5b5035919050565b602080825282518282018190525f919060409081850190868401855b82811015613c5b578151613bf3858251613b3c565b8087015185880152858101518686015260608082015115159086015260808082015115159086015260a08082015115159086015260c08082015115159086015260e0808201519086015261010090810151908501526101209093019290850190600101613bde565b5091979650505050505050565b5f8060408385031215613c79575f80fd5b82359150613c8960208401613aa4565b90509250929050565b5f8083601f840112613ca2575f80fd5b50813567ffffffffffffffff811115613cb9575f80fd5b6020830191508360208260051b8501011115613cd3575f80fd5b9250929050565b5f805f8060408587031215613ced575f80fd5b843567ffffffffffffffff80821115613d04575f80fd5b613d1088838901613c92565b90965094506020870135915080821115613d28575f80fd5b50613d3587828801613c92565b95989497509550505050565b5f8060408385031215613d52575f80fd5b613d5b83613aa4565b91506020830135613d6b81613ad8565b809150509250929050565b5f8060408385031215613d87575f80fd5b8235613d5b81613ad8565b5f8060208385031215613da3575f80fd5b823567ffffffffffffffff811115613db9575f80fd5b613dc585828601613c92565b90969095509350505050565b5f805f60408486031215613de3575f80fd5b613dec84613aa4565b9250602084013567ffffffffffffffff811115613e07575f80fd5b613e1386828701613c92565b9497909650939450505050565b5f805f60608486031215613e32575f80fd5b613e3b84613aa4565b9250613e4960208501613aa4565b9150604084013590509250925092565b5f8060408385031215613e6a575f80fd5b823560028110613b1a575f80fd5b634e487b7160e01b5f52601160045260245ffd5b80820180821115610da057610da0613e78565b60608101613ead8286613b3c565b602082019390935260400152919050565b634e487b7160e01b5f52603260045260245ffd5b5f60208284031215613ee2575f80fd5b8151613a9d81613ad8565b60a08101613efb8288613b3c565b8560208301528460408301528360608301528260808301529695505050505050565b81810381811115610da057610da0613e78565b8183525f7f07ffffffffffffffffffffffffffffffffffffffffffffffffffffffffffffff831115613f60575f80fd5b8260051b80836020870137939093016020019392505050565b613f838188613b3c565b60a060208201525f613f9960a083018789613f30565b60408301959095525060608101929092526080909101529392505050565b602081525f613fca602083018486613f30565b949350505050565b5f60208284031215613fe2575f80fd5b5051919050565b60408101613ff78285613b3c565b8260208301529392505050565b60a081016140128288613b3c565b8560208301528460408301528360608301528215156080830152969550505050505056fea49807205ce4d355092ef5a8a18f56e8913cf4a201fbe287825b095693c21775a264697066735822122008519663228ac38f799ce5393b8edfa32324d8e314171028cd06b12cbbae2a2e64736f6c63430008190033",
      "opcodes": "PUSH1 0x80 PUSH1 0x40 MSTORE PUSH3 0xED4E00 PUSH1 0x2 SSTORE PUSH11 0x422CA8B0A00A425000000 PUSH1 0x3 SSTORE PUSH6 0x48C27395000 PUSH1 0x4 SSTORE CALLVALUE DUP1 ISZERO PUSH2 0x2F JUMPI PUSH0 DUP1 REVERT JUMPDEST POP PUSH1 0x40 MLOAD PUSH2 0x4421 CODESIZE SUB DUP1 PUSH2 0x4421 DUP4 CODECOPY DUP2 ADD PUSH1 0x40 DUP2 SWAP1 MSTORE PUSH2 0x4E SWAP2 PUSH2 0x2A3 JUMP JUMPDEST PUSH1 0x1 DUP1 SSTORE PUSH0 JUMPDEST DUP3 MLOAD DUP2 LT ISZERO PUSH2 0x1A4 JUMPI PUSH2 0x88 PUSH0 DUP1 SHL DUP5 DUP4 DUP2 MLOAD DUP2 LT PUSH2 0x75 JUMPI PUSH2 0x75 PUSH2 0x374 JUMP JUMPDEST PUSH1 0x20 MUL PUSH1 0x20 ADD ADD MLOAD PUSH2 0x1CB PUSH1 0x20 SHL PUSH1 0x20 SHR JUMP JUMPDEST POP PUSH2 0xBF PUSH32 0xA49807205CE4D355092EF5A8A18F56E8913CF4A201FBE287825B095693C21775 DUP5 DUP4 DUP2 MLOAD DUP2 LT PUSH2 0x75 JUMPI PUSH2 0x75 PUSH2 0x374 JUMP JUMPDEST POP PUSH2 0xF6 PUSH32 0x65D7A28E3265B37A6474929F336521B332C1681B933F6CB9F3376673440D862A DUP5 DUP4 DUP2 MLOAD DUP2 LT PUSH2 0x75 JUMPI PUSH2 0x75 PUSH2 0x374 JUMP JUMPDEST POP PUSH2 0x12D PUSH32 0xC806897CAF4FD5068191157E44D3988E43139A37E0B97B6793E1ED1184140604 DUP5 DUP4 DUP2 MLOAD DUP2 LT PUSH2 0x75 JUMPI PUSH2 0x75 PUSH2 0x374 JUMP JUMPDEST POP PUSH2 0x164 PUSH32 0xF60566C40710959D8D30B6067CE3C53C757BEC78EECB0E46B83C7F8194FFAE37 DUP5 DUP4 DUP2 MLOAD DUP2 LT PUSH2 0x75 JUMPI PUSH2 0x75 PUSH2 0x374 JUMP JUMPDEST POP PUSH2 0x19B PUSH32 0x78C90EB9E475048B483A290AEE04B5FE48355537C3623C7637B17D3BED71C6ED DUP5 DUP4 DUP2 MLOAD DUP2 LT PUSH2 0x75 JUMPI PUSH2 0x75 PUSH2 0x374 JUMP JUMPDEST POP PUSH1 0x1 ADD PUSH2 0x54 JUMP JUMPDEST POP PUSH1 0x7 DUP1 SLOAD PUSH1 0x1 PUSH1 0x1 PUSH1 0xA0 SHL SUB NOT AND PUSH1 0x1 PUSH1 0x1 PUSH1 0xA0 SHL SUB SWAP3 SWAP1 SWAP3 AND SWAP2 SWAP1 SWAP2 OR SWAP1 SSTORE POP PUSH2 0x388 JUMP JUMPDEST PUSH0 DUP3 DUP2 MSTORE PUSH1 0x20 DUP2 DUP2 MSTORE PUSH1 0x40 DUP1 DUP4 KECCAK256 PUSH1 0x1 PUSH1 0x1 PUSH1 0xA0 SHL SUB DUP6 AND DUP5 MSTORE SWAP1 SWAP2 MSTORE DUP2 KECCAK256 SLOAD PUSH1 0xFF AND PUSH2 0x26B JUMPI PUSH0 DUP4 DUP2 MSTORE PUSH1 0x20 DUP2 DUP2 MSTORE PUSH1 0x40 DUP1 DUP4 KECCAK256 PUSH1 0x1 PUSH1 0x1 PUSH1 0xA0 SHL SUB DUP7 AND DUP5 MSTORE SWAP1 SWAP2 MSTORE SWAP1 KECCAK256 DUP1 SLOAD PUSH1 0xFF NOT AND PUSH1 0x1 OR SWAP1 SSTORE PUSH2 0x223 CALLER SWAP1 JUMP JUMPDEST PUSH1 0x1 PUSH1 0x1 PUSH1 0xA0 SHL SUB AND DUP3 PUSH1 0x1 PUSH1 0x1 PUSH1 0xA0 SHL SUB AND DUP5 PUSH32 0x2F8788117E7EFF1D82E926EC794901D17C78024A50270940304540A733656F0D PUSH1 0x40 MLOAD PUSH1 0x40 MLOAD DUP1 SWAP2 SUB SWAP1 LOG4 POP PUSH1 0x1 PUSH2 0x26E JUMP JUMPDEST POP PUSH0 JUMPDEST SWAP3 SWAP2 POP POP JUMP JUMPDEST PUSH4 0x4E487B71 PUSH1 0xE0 SHL PUSH0 MSTORE PUSH1 0x41 PUSH1 0x4 MSTORE PUSH1 0x24 PUSH0 REVERT JUMPDEST DUP1 MLOAD PUSH1 0x1 PUSH1 0x1 PUSH1 0xA0 SHL SUB DUP2 AND DUP2 EQ PUSH2 0x29E JUMPI PUSH0 DUP1 REVERT JUMPDEST SWAP2 SWAP1 POP JUMP JUMPDEST PUSH0 DUP1 PUSH1 0x40 DUP4 DUP6 SUB SLT ISZERO PUSH2 0x2B4 JUMPI PUSH0 DUP1 REVERT JUMPDEST DUP3 MLOAD PUSH1 0x1 PUSH1 0x1 PUSH1 0x40 SHL SUB DUP1 DUP3 GT ISZERO PUSH2 0x2CA JUMPI PUSH0 DUP1 REVERT JUMPDEST DUP2 DUP6 ADD SWAP2 POP DUP6 PUSH1 0x1F DUP4 ADD SLT PUSH2 0x2DD JUMPI PUSH0 DUP1 REVERT JUMPDEST DUP2 MLOAD PUSH1 0x20 DUP3 DUP3 GT ISZERO PUSH2 0x2F1 JUMPI PUSH2 0x2F1 PUSH2 0x274 JUMP JUMPDEST DUP2 PUSH1 0x5 SHL PUSH1 0x40 MLOAD PUSH1 0x1F NOT PUSH1 0x3F DUP4 ADD AND DUP2 ADD DUP2 DUP2 LT DUP7 DUP3 GT OR ISZERO PUSH2 0x316 JUMPI PUSH2 0x316 PUSH2 0x274 JUMP JUMPDEST PUSH1 0x40 MSTORE SWAP3 DUP4 MSTORE DUP2 DUP4 ADD SWAP4 POP DUP5 DUP2 ADD DUP3 ADD SWAP3 DUP10 DUP5 GT ISZERO PUSH2 0x333 JUMPI PUSH0 DUP1 REVERT JUMPDEST SWAP5 DUP3 ADD SWAP5 JUMPDEST DUP4 DUP7 LT ISZERO PUSH2 0x358 JUMPI PUSH2 0x349 DUP7 PUSH2 0x288 JUMP JUMPDEST DUP6 MSTORE SWAP5 DUP3 ADD SWAP5 SWAP4 DUP3 ADD SWAP4 PUSH2 0x338 JUMP JUMPDEST SWAP7 POP PUSH2 0x367 SWAP1 POP DUP8 DUP3 ADD PUSH2 0x288 JUMP JUMPDEST SWAP5 POP POP POP POP POP SWAP3 POP SWAP3 SWAP1 POP JUMP JUMPDEST PUSH4 0x4E487B71 PUSH1 0xE0 SHL PUSH0 MSTORE PUSH1 0x32 PUSH1 0x4 MSTORE PUSH1 0x24 PUSH0 REVERT JUMPDEST PUSH2 0x408C DUP1 PUSH2 0x395 PUSH0 CODECOPY PUSH0 RETURN INVALID PUSH1 0x80 PUSH1 0x40 MSTORE PUSH1 0x4 CALLDATASIZE LT PUSH2 0x438 JUMPI PUSH0 CALLDATALOAD PUSH1 0xE0 SHR DUP1 PUSH4 0x885F5029 GT PUSH2 0x237 JUMPI DUP1 PUSH4 0xB758AEAA GT PUSH2 0x13C JUMPI DUP1 PUSH4 0xE340B783 GT PUSH2 0xB7 JUMPI DUP1 PUSH4 0xEE947A7C GT PUSH2 0x87 JUMPI DUP1 PUSH4 0xF5F69AF2 GT PUSH2 0x6D JUMPI DUP1 PUSH4 0xF5F69AF2 EQ PUSH2 0xD2A JUMPI DUP1 PUSH4 0xF6326FB3 EQ PUSH2 0xD49 JUMPI DUP1 PUSH4 0xF688BCFB EQ PUSH2 0xD51 JUMPI PUSH0 DUP1 REVERT JUMPDEST DUP1 PUSH4 0xEE947A7C EQ PUSH2 0xCF6 JUMPI DUP1 PUSH4 0xF29B2239 EQ PUSH2 0xD0B JUMPI PUSH0 DUP1 REVERT JUMPDEST DUP1 PUSH4 0xE340B783 EQ PUSH2 0xC6F JUMPI DUP1 PUSH4 0xE399067F EQ PUSH2 0xC84 JUMPI DUP1 PUSH4 0xE63AB1E9 EQ PUSH2 0xC98 JUMPI DUP1 PUSH4 0xE9FE0C78 EQ PUSH2 0xCCB JUMPI PUSH0 DUP1 REVERT JUMPDEST DUP1 PUSH4 0xD830D5CC GT PUSH2 0x10C JUMPI DUP1 PUSH4 0xE02F6ACA GT PUSH2 0xF2 JUMPI DUP1 PUSH4 0xE02F6ACA EQ PUSH2 0xC08 JUMPI DUP1 PUSH4 0xE043B2B2 EQ PUSH2 0xC27 JUMPI DUP1 PUSH4 0xE15E23C1 EQ PUSH2 0xC5A JUMPI PUSH0 DUP1 REVERT JUMPDEST DUP1 PUSH4 0xD830D5CC EQ PUSH2 0xBD5 JUMPI DUP1 PUSH4 0xDA8D5ADD EQ PUSH2 0xBF4 JUMPI PUSH0 DUP1 REVERT JUMPDEST DUP1 PUSH4 0xB758AEAA EQ PUSH2 0xB64 JUMPI DUP1 PUSH4 0xBDA821E8 EQ PUSH2 0xB83 JUMPI DUP1 PUSH4 0xC771C390 EQ PUSH2 0xB97 JUMPI DUP1 PUSH4 0xD547741F EQ PUSH2 0xBB6 JUMPI PUSH0 DUP1 REVERT JUMPDEST DUP1 PUSH4 0x97D9E5B4 GT PUSH2 0x1CC JUMPI DUP1 PUSH4 0xA2BDEDF4 GT PUSH2 0x19C JUMPI DUP1 PUSH4 0xB2118A8D GT PUSH2 0x182 JUMPI DUP1 PUSH4 0xB2118A8D EQ PUSH2 0xB12 JUMPI DUP1 PUSH4 0xB2B77AE2 EQ PUSH2 0xB31 JUMPI DUP1 PUSH4 0xB65BA94B EQ PUSH2 0xB4F JUMPI PUSH0 DUP1 REVERT JUMPDEST DUP1 PUSH4 0xA2BDEDF4 EQ PUSH2 0xA86 JUMPI DUP1 PUSH4 0xA59AA5A6 EQ PUSH2 0xAA5 JUMPI PUSH0 DUP1 REVERT JUMPDEST DUP1 PUSH4 0x97D9E5B4 EQ PUSH2 0xA2A JUMPI DUP1 PUSH4 0x9DDC3912 EQ PUSH2 0xA3F JUMPI DUP1 PUSH4 0x9E657E33 EQ PUSH2 0xA54 JUMPI DUP1 PUSH4 0xA217FDDF EQ PUSH2 0xA73 JUMPI PUSH0 DUP1 REVERT JUMPDEST DUP1 PUSH4 0x89BAD0A6 GT PUSH2 0x207 JUMPI DUP1 PUSH4 0x89BAD0A6 EQ PUSH2 0x995 JUMPI DUP1 PUSH4 0x8B713B2E EQ PUSH2 0x9B4 JUMPI DUP1 PUSH4 0x91D14854 EQ PUSH2 0x9C9 JUMPI DUP1 PUSH4 0x93055C43 EQ PUSH2 0xA0B JUMPI PUSH0 DUP1 REVERT JUMPDEST DUP1 PUSH4 0x885F5029 EQ PUSH2 0x8E3 JUMPI DUP1 PUSH4 0x886D589D EQ PUSH2 0x916 JUMPI DUP1 PUSH4 0x899AA991 EQ PUSH2 0x941 JUMPI DUP1 PUSH4 0x89A30271 EQ PUSH2 0x956 JUMPI PUSH0 DUP1 REVERT JUMPDEST DUP1 PUSH4 0x41DEBF1F GT PUSH2 0x33D JUMPI DUP1 PUSH4 0x64021B13 GT PUSH2 0x2D2 JUMPI DUP1 PUSH4 0x72E55399 GT PUSH2 0x2A2 JUMPI DUP1 PUSH4 0x762E1C73 GT PUSH2 0x288 JUMPI DUP1 PUSH4 0x762E1C73 EQ PUSH2 0x886 JUMPI DUP1 PUSH4 0x76C1D3DB EQ PUSH2 0x8A5 JUMPI DUP1 PUSH4 0x867D099A EQ PUSH2 0x8C4 JUMPI PUSH0 DUP1 REVERT JUMPDEST DUP1 PUSH4 0x72E55399 EQ PUSH2 0x847 JUMPI DUP1 PUSH4 0x75B238FC EQ PUSH2 0x866 JUMPI PUSH0 DUP1 REVERT JUMPDEST DUP1 PUSH4 0x64021B13 EQ PUSH2 0x7ED JUMPI DUP1 PUSH4 0x6426BE48 EQ PUSH2 0x7F5 JUMPI DUP1 PUSH4 0x6C6FF56C EQ PUSH2 0x814 JUMPI DUP1 PUSH4 0x6EC23995 EQ PUSH2 0x828 JUMPI PUSH0 DUP1 REVERT JUMPDEST DUP1 PUSH4 0x53D6FD59 GT PUSH2 0x30D JUMPI DUP1 PUSH4 0x53D6FD59 EQ PUSH2 0x772 JUMPI DUP1 PUSH4 0x588583A0 EQ PUSH2 0x791 JUMPI DUP1 PUSH4 0x5E2C19DB EQ PUSH2 0x7A6 JUMPI DUP1 PUSH4 0x6068D6CB EQ PUSH2 0x7D4 JUMPI PUSH0 DUP1 REVERT JUMPDEST DUP1 PUSH4 0x41DEBF1F EQ PUSH2 0x6BB JUMPI DUP1 PUSH4 0x47AF19AA EQ PUSH2 0x6DA JUMPI DUP1 PUSH4 0x4E43603A EQ PUSH2 0x6F9 JUMPI DUP1 PUSH4 0x51FB012D EQ PUSH2 0x753 JUMPI PUSH0 DUP1 REVERT JUMPDEST DUP1 PUSH4 0x27175B23 GT PUSH2 0x3CD JUMPI DUP1 PUSH4 0x2F2FF15D GT PUSH2 0x39D JUMPI DUP1 PUSH4 0x36568ABE GT PUSH2 0x383 JUMPI DUP1 PUSH4 0x36568ABE EQ PUSH2 0x659 JUMPI DUP1 PUSH4 0x3AC43970 EQ PUSH2 0x678 JUMPI DUP1 PUSH4 0x3AF32ABF EQ PUSH2 0x68D JUMPI PUSH0 DUP1 REVERT JUMPDEST DUP1 PUSH4 0x2F2FF15D EQ PUSH2 0x60F JUMPI DUP1 PUSH4 0x3408567C EQ PUSH2 0x62E JUMPI PUSH0 DUP1 REVERT JUMPDEST DUP1 PUSH4 0x27175B23 EQ PUSH2 0x59B JUMPI DUP1 PUSH4 0x275991D2 EQ PUSH2 0x5B0 JUMPI DUP1 PUSH4 0x2A5BF6D2 EQ PUSH2 0x5C4 JUMPI DUP1 PUSH4 0x2E1A7D4D EQ PUSH2 0x5F0 JUMPI PUSH0 DUP1 REVERT JUMPDEST DUP1 PUSH4 0xC016AD5 GT PUSH2 0x408 JUMPI DUP1 PUSH4 0xC016AD5 EQ PUSH2 0x505 JUMPI DUP1 PUSH4 0x1C5AEEF7 EQ PUSH2 0x538 JUMPI DUP1 PUSH4 0x246D47B7 EQ PUSH2 0x54D JUMPI DUP1 PUSH4 0x248A9CA3 EQ PUSH2 0x56D JUMPI PUSH0 DUP1 REVERT JUMPDEST DUP1 PUSH4 0x1FFC9A7 EQ PUSH2 0x443 JUMPI DUP1 PUSH4 0x4C68AF0 EQ PUSH2 0x477 JUMPI DUP1 PUSH4 0x52D9E7E EQ PUSH2 0x4B0 JUMPI DUP1 PUSH4 0x8F43333 EQ PUSH2 0x4D1 JUMPI PUSH0 DUP1 REVERT JUMPDEST CALLDATASIZE PUSH2 0x43F JUMPI STOP JUMPDEST PUSH0 DUP1 REVERT JUMPDEST CALLVALUE DUP1 ISZERO PUSH2 0x44E JUMPI PUSH0 DUP1 REVERT JUMPDEST POP PUSH2 0x462 PUSH2 0x45D CALLDATASIZE PUSH1 0x4 PUSH2 0x3A76 JUMP JUMPDEST PUSH2 0xD70 JUMP JUMPDEST PUSH1 0x40 MLOAD SWAP1 ISZERO ISZERO DUP2 MSTORE PUSH1 0x20 ADD JUMPDEST PUSH1 0x40 MLOAD DUP1 SWAP2 SUB SWAP1 RETURN JUMPDEST CALLVALUE DUP1 ISZERO PUSH2 0x482 JUMPI PUSH0 DUP1 REVERT JUMPDEST POP PUSH2 0x4A2 PUSH2 0x491 CALLDATASIZE PUSH1 0x4 PUSH2 0x3ABF JUMP JUMPDEST PUSH1 0xE PUSH1 0x20 MSTORE PUSH0 SWAP1 DUP2 MSTORE PUSH1 0x40 SWAP1 KECCAK256 SLOAD DUP2 JUMP JUMPDEST PUSH1 0x40 MLOAD SWAP1 DUP2 MSTORE PUSH1 0x20 ADD PUSH2 0x46E JUMP JUMPDEST CALLVALUE DUP1 ISZERO PUSH2 0x4BB JUMPI PUSH0 DUP1 REVERT JUMPDEST POP PUSH2 0x4CF PUSH2 0x4CA CALLDATASIZE PUSH1 0x4 PUSH2 0x3AE5 JUMP JUMPDEST PUSH2 0xDA6 JUMP JUMPDEST STOP JUMPDEST CALLVALUE DUP1 ISZERO PUSH2 0x4DC JUMPI PUSH0 DUP1 REVERT JUMPDEST POP PUSH2 0x4F0 PUSH2 0x4EB CALLDATASIZE PUSH1 0x4 PUSH2 0x3B00 JUMP JUMPDEST PUSH2 0xDDA JUMP JUMPDEST PUSH1 0x40 MLOAD PUSH2 0x46E SWAP10 SWAP9 SWAP8 SWAP7 SWAP6 SWAP5 SWAP4 SWAP3 SWAP2 SWAP1 PUSH2 0x3B5C JUMP JUMPDEST CALLVALUE DUP1 ISZERO PUSH2 0x510 JUMPI PUSH0 DUP1 REVERT JUMPDEST POP PUSH2 0x4A2 PUSH32 0xF60566C40710959D8D30B6067CE3C53C757BEC78EECB0E46B83C7F8194FFAE37 DUP2 JUMP JUMPDEST CALLVALUE DUP1 ISZERO PUSH2 0x543 JUMPI PUSH0 DUP1 REVERT JUMPDEST POP PUSH2 0x4A2 PUSH1 0x4 SLOAD DUP2 JUMP JUMPDEST CALLVALUE DUP1 ISZERO PUSH2 0x558 JUMPI PUSH0 DUP1 REVERT JUMPDEST POP PUSH1 0x5 SLOAD PUSH2 0x462 SWAP1 PUSH4 0x1000000 SWAP1 DIV PUSH1 0xFF AND DUP2 JUMP JUMPDEST CALLVALUE DUP1 ISZERO PUSH2 0x578 JUMPI PUSH0 DUP1 REVERT JUMPDEST POP PUSH2 0x4A2 PUSH2 0x587 CALLDATASIZE PUSH1 0x4 PUSH2 0x3BAB JUMP JUMPDEST PUSH0 SWAP1 DUP2 MSTORE PUSH1 0x20 DUP2 SWAP1 MSTORE PUSH1 0x40 SWAP1 KECCAK256 PUSH1 0x1 ADD SLOAD SWAP1 JUMP JUMPDEST CALLVALUE DUP1 ISZERO PUSH2 0x5A6 JUMPI PUSH0 DUP1 REVERT JUMPDEST POP PUSH2 0x4A2 PUSH1 0x13 SLOAD DUP2 JUMP JUMPDEST CALLVALUE DUP1 ISZERO PUSH2 0x5BB JUMPI PUSH0 DUP1 REVERT JUMPDEST POP PUSH2 0x4CF PUSH2 0xE4E JUMP JUMPDEST CALLVALUE DUP1 ISZERO PUSH2 0x5CF JUMPI PUSH0 DUP1 REVERT JUMPDEST POP PUSH2 0x5E3 PUSH2 0x5DE CALLDATASIZE PUSH1 0x4 PUSH2 0x3ABF JUMP JUMPDEST PUSH2 0xF45 JUMP JUMPDEST PUSH1 0x40 MLOAD PUSH2 0x46E SWAP2 SWAP1 PUSH2 0x3BC2 JUMP JUMPDEST CALLVALUE DUP1 ISZERO PUSH2 0x5FB JUMPI PUSH0 DUP1 REVERT JUMPDEST POP PUSH2 0x4CF PUSH2 0x60A CALLDATASIZE PUSH1 0x4 PUSH2 0x3BAB JUMP JUMPDEST PUSH2 0x1053 JUMP JUMPDEST CALLVALUE DUP1 ISZERO PUSH2 0x61A JUMPI PUSH0 DUP1 REVERT JUMPDEST POP PUSH2 0x4CF PUSH2 0x629 CALLDATASIZE PUSH1 0x4 PUSH2 0x3C68 JUMP JUMPDEST PUSH2 0x1454 JUMP JUMPDEST CALLVALUE DUP1 ISZERO PUSH2 0x639 JUMPI PUSH0 DUP1 REVERT JUMPDEST POP PUSH2 0x4A2 PUSH2 0x648 CALLDATASIZE PUSH1 0x4 PUSH2 0x3ABF JUMP JUMPDEST PUSH1 0xB PUSH1 0x20 MSTORE PUSH0 SWAP1 DUP2 MSTORE PUSH1 0x40 SWAP1 KECCAK256 SLOAD DUP2 JUMP JUMPDEST CALLVALUE DUP1 ISZERO PUSH2 0x664 JUMPI PUSH0 DUP1 REVERT JUMPDEST POP PUSH2 0x4CF PUSH2 0x673 CALLDATASIZE PUSH1 0x4 PUSH2 0x3C68 JUMP JUMPDEST PUSH2 0x147E JUMP JUMPDEST CALLVALUE DUP1 ISZERO PUSH2 0x683 JUMPI PUSH0 DUP1 REVERT JUMPDEST POP PUSH2 0x4A2 PUSH1 0x17 SLOAD DUP2 JUMP JUMPDEST CALLVALUE DUP1 ISZERO PUSH2 0x698 JUMPI PUSH0 DUP1 REVERT JUMPDEST POP PUSH2 0x462 PUSH2 0x6A7 CALLDATASIZE PUSH1 0x4 PUSH2 0x3ABF JUMP JUMPDEST PUSH1 0x9 PUSH1 0x20 MSTORE PUSH0 SWAP1 DUP2 MSTORE PUSH1 0x40 SWAP1 KECCAK256 SLOAD PUSH1 0xFF AND DUP2 JUMP JUMPDEST CALLVALUE DUP1 ISZERO PUSH2 0x6C6 JUMPI PUSH0 DUP1 REVERT JUMPDEST POP PUSH2 0x4CF PUSH2 0x6D5 CALLDATASIZE PUSH1 0x4 PUSH2 0x3CDA JUMP JUMPDEST PUSH2 0x14B6 JUMP JUMPDEST CALLVALUE DUP1 ISZERO PUSH2 0x6E5 JUMPI PUSH0 DUP1 REVERT JUMPDEST POP PUSH2 0x4CF PUSH2 0x6F4 CALLDATASIZE PUSH1 0x4 PUSH2 0x3CDA JUMP JUMPDEST PUSH2 0x1666 JUMP JUMPDEST CALLVALUE DUP1 ISZERO PUSH2 0x704 JUMPI PUSH0 DUP1 REVERT JUMPDEST POP PUSH2 0x718 PUSH2 0x713 CALLDATASIZE PUSH1 0x4 PUSH2 0x3ABF JUMP JUMPDEST PUSH2 0x17D4 JUMP JUMPDEST PUSH1 0x40 DUP1 MLOAD SWAP9 DUP10 MSTORE PUSH1 0x20 DUP10 ADD SWAP8 SWAP1 SWAP8 MSTORE SWAP6 DUP8 ADD SWAP5 SWAP1 SWAP5 MSTORE PUSH1 0x60 DUP7 ADD SWAP3 SWAP1 SWAP3 MSTORE PUSH1 0x80 DUP6 ADD MSTORE PUSH1 0xA0 DUP5 ADD MSTORE PUSH1 0xC0 DUP4 ADD MSTORE PUSH1 0xE0 DUP3 ADD MSTORE PUSH2 0x100 ADD PUSH2 0x46E JUMP JUMPDEST CALLVALUE DUP1 ISZERO PUSH2 0x75E JUMPI PUSH0 DUP1 REVERT JUMPDEST POP PUSH1 0x5 SLOAD PUSH2 0x462 SWAP1 PUSH3 0x10000 SWAP1 DIV PUSH1 0xFF AND DUP2 JUMP JUMPDEST CALLVALUE DUP1 ISZERO PUSH2 0x77D JUMPI PUSH0 DUP1 REVERT JUMPDEST POP PUSH2 0x4CF PUSH2 0x78C CALLDATASIZE PUSH1 0x4 PUSH2 0x3D41 JUMP JUMPDEST PUSH2 0x1AA3 JUMP JUMPDEST CALLVALUE DUP1 ISZERO PUSH2 0x79C JUMPI PUSH0 DUP1 REVERT JUMPDEST POP PUSH2 0x4A2 PUSH1 0x6 SLOAD DUP2 JUMP JUMPDEST CALLVALUE DUP1 ISZERO PUSH2 0x7B1 JUMPI PUSH0 DUP1 REVERT JUMPDEST POP PUSH2 0x462 PUSH2 0x7C0 CALLDATASIZE PUSH1 0x4 PUSH2 0x3ABF JUMP JUMPDEST PUSH1 0xA PUSH1 0x20 MSTORE PUSH0 SWAP1 DUP2 MSTORE PUSH1 0x40 SWAP1 KECCAK256 SLOAD PUSH1 0xFF AND DUP2 JUMP JUMPDEST CALLVALUE DUP1 ISZERO PUSH2 0x7DF JUMPI PUSH0 DUP1 REVERT JUMPDEST POP PUSH1 0x5 SLOAD PUSH2 0x462 SWAP1 PUSH1 0xFF AND DUP2 JUMP JUMPDEST PUSH2 0x4CF PUSH2 0x1B19 JUMP JUMPDEST CALLVALUE DUP1 ISZERO PUSH2 0x800 JUMPI PUSH0 DUP1 REVERT JUMPDEST POP PUSH2 0x4CF PUSH2 0x80F CALLDATASIZE PUSH1 0x4 PUSH2 0x3D76 JUMP JUMPDEST PUSH2 0x1BD7 JUMP JUMPDEST CALLVALUE DUP1 ISZERO PUSH2 0x81F JUMPI PUSH0 DUP1 REVERT JUMPDEST POP PUSH2 0x4CF PUSH2 0x1C66 JUMP JUMPDEST CALLVALUE DUP1 ISZERO PUSH2 0x833 JUMPI PUSH0 DUP1 REVERT JUMPDEST POP PUSH2 0x4CF PUSH2 0x842 CALLDATASIZE PUSH1 0x4 PUSH2 0x3B00 JUMP JUMPDEST PUSH2 0x1D82 JUMP JUMPDEST CALLVALUE DUP1 ISZERO PUSH2 0x852 JUMPI PUSH0 DUP1 REVERT JUMPDEST POP PUSH2 0x4CF PUSH2 0x861 CALLDATASIZE PUSH1 0x4 PUSH2 0x3D92 JUMP JUMPDEST PUSH2 0x1E5B JUMP JUMPDEST CALLVALUE DUP1 ISZERO PUSH2 0x871 JUMPI PUSH0 DUP1 REVERT JUMPDEST POP PUSH2 0x4A2 PUSH0 DUP1 MLOAD PUSH1 0x20 PUSH2 0x4037 DUP4 CODECOPY DUP2 MLOAD SWAP2 MSTORE DUP2 JUMP JUMPDEST CALLVALUE DUP1 ISZERO PUSH2 0x891 JUMPI PUSH0 DUP1 REVERT JUMPDEST POP PUSH2 0x4CF PUSH2 0x8A0 CALLDATASIZE PUSH1 0x4 PUSH2 0x3B00 JUMP JUMPDEST PUSH2 0x238D JUMP JUMPDEST CALLVALUE DUP1 ISZERO PUSH2 0x8B0 JUMPI PUSH0 DUP1 REVERT JUMPDEST POP PUSH2 0x4CF PUSH2 0x8BF CALLDATASIZE PUSH1 0x4 PUSH2 0x3BAB JUMP JUMPDEST PUSH2 0x245C JUMP JUMPDEST CALLVALUE DUP1 ISZERO PUSH2 0x8CF JUMPI PUSH0 DUP1 REVERT JUMPDEST POP PUSH2 0x4CF PUSH2 0x8DE CALLDATASIZE PUSH1 0x4 PUSH2 0x3DD1 JUMP JUMPDEST PUSH2 0x25C2 JUMP JUMPDEST CALLVALUE DUP1 ISZERO PUSH2 0x8EE JUMPI PUSH0 DUP1 REVERT JUMPDEST POP PUSH2 0x4A2 PUSH32 0x78C90EB9E475048B483A290AEE04B5FE48355537C3623C7637B17D3BED71C6ED DUP2 JUMP JUMPDEST CALLVALUE DUP1 ISZERO PUSH2 0x921 JUMPI PUSH0 DUP1 REVERT JUMPDEST POP PUSH2 0x4A2 PUSH2 0x930 CALLDATASIZE PUSH1 0x4 PUSH2 0x3ABF JUMP JUMPDEST PUSH1 0xD PUSH1 0x20 MSTORE PUSH0 SWAP1 DUP2 MSTORE PUSH1 0x40 SWAP1 KECCAK256 SLOAD DUP2 JUMP JUMPDEST CALLVALUE DUP1 ISZERO PUSH2 0x94C JUMPI PUSH0 DUP1 REVERT JUMPDEST POP PUSH2 0x4A2 PUSH1 0x12 SLOAD DUP2 JUMP JUMPDEST CALLVALUE DUP1 ISZERO PUSH2 0x961 JUMPI PUSH0 DUP1 REVERT JUMPDEST POP PUSH2 0x97D PUSH20 0x833589FCD6EDB6E08F4C7C32D4F71B54BDA02913 DUP2 JUMP JUMPDEST PUSH1 0x40 MLOAD PUSH1 0x1 PUSH1 0x1 PUSH1 0xA0 SHL SUB SWAP1 SWAP2 AND DUP2 MSTORE PUSH1 0x20 ADD PUSH2 0x46E JUMP JUMPDEST CALLVALUE DUP1 ISZERO PUSH2 0x9A0 JUMPI PUSH0 DUP1 REVERT JUMPDEST POP PUSH2 0x4CF PUSH2 0x9AF CALLDATASIZE PUSH1 0x4 PUSH2 0x3ABF JUMP JUMPDEST PUSH2 0x2715 JUMP JUMPDEST CALLVALUE DUP1 ISZERO PUSH2 0x9BF JUMPI PUSH0 DUP1 REVERT JUMPDEST POP PUSH2 0x4A2 PUSH1 0x14 SLOAD DUP2 JUMP JUMPDEST CALLVALUE DUP1 ISZERO PUSH2 0x9D4 JUMPI PUSH0 DUP1 REVERT JUMPDEST POP PUSH2 0x462 PUSH2 0x9E3 CALLDATASIZE PUSH1 0x4 PUSH2 0x3C68 JUMP JUMPDEST PUSH0 SWAP2 DUP3 MSTORE PUSH1 0x20 DUP3 DUP2 MSTORE PUSH1 0x40 DUP1 DUP5 KECCAK256 PUSH1 0x1 PUSH1 0x1 PUSH1 0xA0 SHL SUB SWAP4 SWAP1 SWAP4 AND DUP5 MSTORE SWAP2 SWAP1 MSTORE SWAP1 KECCAK256 SLOAD PUSH1 0xFF AND SWAP1 JUMP JUMPDEST CALLVALUE DUP1 ISZERO PUSH2 0xA16 JUMPI PUSH0 DUP1 REVERT JUMPDEST POP PUSH2 0x4CF PUSH2 0xA25 CALLDATASIZE PUSH1 0x4 PUSH2 0x3BAB JUMP JUMPDEST PUSH2 0x27C7 JUMP JUMPDEST CALLVALUE DUP1 ISZERO PUSH2 0xA35 JUMPI PUSH0 DUP1 REVERT JUMPDEST POP PUSH2 0x4A2 PUSH1 0x18 SLOAD DUP2 JUMP JUMPDEST CALLVALUE DUP1 ISZERO PUSH2 0xA4A JUMPI PUSH0 DUP1 REVERT JUMPDEST POP PUSH2 0x4A2 PUSH1 0x3 SLOAD DUP2 JUMP JUMPDEST CALLVALUE DUP1 ISZERO PUSH2 0xA5F JUMPI PUSH0 DUP1 REVERT JUMPDEST POP PUSH2 0x97D PUSH2 0xA6E CALLDATASIZE PUSH1 0x4 PUSH2 0x3BAB JUMP JUMPDEST PUSH2 0x298C JUMP JUMPDEST CALLVALUE DUP1 ISZERO PUSH2 0xA7E JUMPI PUSH0 DUP1 REVERT JUMPDEST POP PUSH2 0x4A2 PUSH0 DUP2 JUMP JUMPDEST CALLVALUE DUP1 ISZERO PUSH2 0xA91 JUMPI PUSH0 DUP1 REVERT JUMPDEST POP PUSH2 0x97D PUSH2 0xAA0 CALLDATASIZE PUSH1 0x4 PUSH2 0x3BAB JUMP JUMPDEST PUSH2 0x29B4 JUMP JUMPDEST CALLVALUE DUP1 ISZERO PUSH2 0xAB0 JUMPI PUSH0 DUP1 REVERT JUMPDEST POP PUSH2 0xAB9 PUSH2 0x29C3 JUMP JUMPDEST PUSH1 0x40 DUP1 MLOAD SWAP13 DUP14 MSTORE PUSH1 0x20 DUP14 ADD SWAP12 SWAP1 SWAP12 MSTORE SWAP10 DUP12 ADD SWAP9 SWAP1 SWAP9 MSTORE PUSH1 0x60 DUP11 ADD SWAP7 SWAP1 SWAP7 MSTORE PUSH1 0x80 DUP10 ADD SWAP5 SWAP1 SWAP5 MSTORE PUSH1 0xA0 DUP9 ADD SWAP3 SWAP1 SWAP3 MSTORE PUSH1 0xC0 DUP8 ADD MSTORE PUSH1 0xE0 DUP7 ADD MSTORE PUSH2 0x100 DUP6 ADD MSTORE PUSH2 0x120 DUP5 ADD MSTORE PUSH2 0x140 DUP4 ADD MSTORE PUSH2 0x160 DUP3 ADD MSTORE PUSH2 0x180 ADD PUSH2 0x46E JUMP JUMPDEST CALLVALUE DUP1 ISZERO PUSH2 0xB1D JUMPI PUSH0 DUP1 REVERT JUMPDEST POP PUSH2 0x4CF PUSH2 0xB2C CALLDATASIZE PUSH1 0x4 PUSH2 0x3E20 JUMP JUMPDEST PUSH2 0x2A94 JUMP JUMPDEST CALLVALUE DUP1 ISZERO PUSH2 0xB3C JUMPI PUSH0 DUP1 REVERT JUMPDEST POP PUSH1 0x5 SLOAD PUSH2 0x462 SWAP1 PUSH2 0x100 SWAP1 DIV PUSH1 0xFF AND DUP2 JUMP JUMPDEST CALLVALUE DUP1 ISZERO PUSH2 0xB5A JUMPI PUSH0 DUP1 REVERT JUMPDEST POP PUSH2 0x4A2 PUSH1 0x16 SLOAD DUP2 JUMP JUMPDEST CALLVALUE DUP1 ISZERO PUSH2 0xB6F JUMPI PUSH0 DUP1 REVERT JUMPDEST POP PUSH2 0x4CF PUSH2 0xB7E CALLDATASIZE PUSH1 0x4 PUSH2 0x3CDA JUMP JUMPDEST PUSH2 0x2BB4 JUMP JUMPDEST CALLVALUE DUP1 ISZERO PUSH2 0xB8E JUMPI PUSH0 DUP1 REVERT JUMPDEST POP PUSH2 0x4CF PUSH2 0x2D57 JUMP JUMPDEST CALLVALUE DUP1 ISZERO PUSH2 0xBA2 JUMPI PUSH0 DUP1 REVERT JUMPDEST POP PUSH2 0x4CF PUSH2 0xBB1 CALLDATASIZE PUSH1 0x4 PUSH2 0x3BAB JUMP JUMPDEST PUSH2 0x2E34 JUMP JUMPDEST CALLVALUE DUP1 ISZERO PUSH2 0xBC1 JUMPI PUSH0 DUP1 REVERT JUMPDEST POP PUSH2 0x4CF PUSH2 0xBD0 CALLDATASIZE PUSH1 0x4 PUSH2 0x3C68 JUMP JUMPDEST PUSH2 0x2E80 JUMP JUMPDEST CALLVALUE DUP1 ISZERO PUSH2 0xBE0 JUMPI PUSH0 DUP1 REVERT JUMPDEST POP PUSH2 0x4CF PUSH2 0xBEF CALLDATASIZE PUSH1 0x4 PUSH2 0x3BAB JUMP JUMPDEST PUSH2 0x2EA4 JUMP JUMPDEST CALLVALUE DUP1 ISZERO PUSH2 0xBFF JUMPI PUSH0 DUP1 REVERT JUMPDEST POP PUSH2 0x4CF PUSH2 0x2FE5 JUMP JUMPDEST CALLVALUE DUP1 ISZERO PUSH2 0xC13 JUMPI PUSH0 DUP1 REVERT JUMPDEST POP PUSH2 0x97D PUSH2 0xC22 CALLDATASIZE PUSH1 0x4 PUSH2 0x3BAB JUMP JUMPDEST PUSH2 0x316F JUMP JUMPDEST CALLVALUE DUP1 ISZERO PUSH2 0xC32 JUMPI PUSH0 DUP1 REVERT JUMPDEST POP PUSH2 0x4A2 PUSH32 0xC806897CAF4FD5068191157E44D3988E43139A37E0B97B6793E1ED1184140604 DUP2 JUMP JUMPDEST CALLVALUE DUP1 ISZERO PUSH2 0xC65 JUMPI PUSH0 DUP1 REVERT JUMPDEST POP PUSH2 0x4A2 PUSH1 0x19 SLOAD DUP2 JUMP JUMPDEST CALLVALUE DUP1 ISZERO PUSH2 0xC7A JUMPI PUSH0 DUP1 REVERT JUMPDEST POP PUSH2 0x4A2 PUSH1 0x15 SLOAD DUP2 JUMP JUMPDEST CALLVALUE DUP1 ISZERO PUSH2 0xC8F JUMPI PUSH0 DUP1 REVERT JUMPDEST POP PUSH2 0x4CF PUSH2 0x317E JUMP JUMPDEST CALLVALUE DUP1 ISZERO PUSH2 0xCA3 JUMPI PUSH0 DUP1 REVERT JUMPDEST POP PUSH2 0x4A2 PUSH32 0x65D7A28E3265B37A6474929F336521B332C1681B933F6CB9F3376673440D862A DUP2 JUMP JUMPDEST CALLVALUE DUP1 ISZERO PUSH2 0xCD6 JUMPI PUSH0 DUP1 REVERT JUMPDEST POP PUSH2 0x4A2 PUSH2 0xCE5 CALLDATASIZE PUSH1 0x4 PUSH2 0x3ABF JUMP JUMPDEST PUSH1 0xC PUSH1 0x20 MSTORE PUSH0 SWAP1 DUP2 MSTORE PUSH1 0x40 SWAP1 KECCAK256 SLOAD DUP2 JUMP JUMPDEST CALLVALUE DUP1 ISZERO PUSH2 0xD01 JUMPI PUSH0 DUP1 REVERT JUMPDEST POP PUSH2 0x4A2 PUSH1 0x2 SLOAD DUP2 JUMP JUMPDEST CALLVALUE DUP1 ISZERO PUSH2 0xD16 JUMPI PUSH0 DUP1 REVERT JUMPDEST POP PUSH1 0x7 SLOAD PUSH2 0x97D SWAP1 PUSH1 0x1 PUSH1 0x1 PUSH1 0xA0 SHL SUB AND DUP2 JUMP JUMPDEST CALLVALUE DUP1 ISZERO PUSH2 0xD35 JUMPI PUSH0 DUP1 REVERT JUMPDEST POP PUSH2 0x4CF PUSH2 0xD44 CALLDATASIZE PUSH1 0x4 PUSH2 0x3E59 JUMP JUMPDEST PUSH2 0x32B9 JUMP JUMPDEST PUSH2 0x4CF PUSH2 0x3342 JUMP JUMPDEST CALLVALUE DUP1 ISZERO PUSH2 0xD5C JUMPI PUSH0 DUP1 REVERT JUMPDEST POP PUSH2 0x4CF PUSH2 0xD6B CALLDATASIZE PUSH1 0x4 PUSH2 0x3BAB JUMP JUMPDEST PUSH2 0x34A2 JUMP JUMPDEST PUSH0 PUSH1 0x1 PUSH1 0x1 PUSH1 0xE0 SHL SUB NOT DUP3 AND PUSH4 0x7965DB0B PUSH1 0xE0 SHL EQ DUP1 PUSH2 0xDA0 JUMPI POP PUSH4 0x1FFC9A7 PUSH1 0xE0 SHL PUSH1 0x1 PUSH1 0x1 PUSH1 0xE0 SHL SUB NOT DUP4 AND EQ JUMPDEST SWAP3 SWAP2 POP POP JUMP JUMPDEST PUSH0 DUP1 MLOAD PUSH1 0x20 PUSH2 0x4037 DUP4 CODECOPY DUP2 MLOAD SWAP2 MSTORE PUSH2 0xDBD DUP2 PUSH2 0x3685 JUMP JUMPDEST POP PUSH1 0x5 DUP1 SLOAD SWAP2 ISZERO ISZERO PUSH3 0x10000 MUL PUSH3 0xFF0000 NOT SWAP1 SWAP3 AND SWAP2 SWAP1 SWAP2 OR SWAP1 SSTORE JUMP JUMPDEST PUSH1 0x8 PUSH1 0x20 MSTORE DUP2 PUSH0 MSTORE PUSH1 0x40 PUSH0 KECCAK256 DUP2 DUP2 SLOAD DUP2 LT PUSH2 0xDF3 JUMPI PUSH0 DUP1 REVERT JUMPDEST PUSH0 SWAP2 DUP3 MSTORE PUSH1 0x20 SWAP1 SWAP2 KECCAK256 PUSH1 0x6 SWAP1 SWAP2 MUL ADD DUP1 SLOAD PUSH1 0x1 DUP3 ADD SLOAD PUSH1 0x2 DUP4 ADD SLOAD PUSH1 0x3 DUP5 ADD SLOAD PUSH1 0x4 DUP6 ADD SLOAD PUSH1 0x5 SWAP1 SWAP6 ADD SLOAD PUSH1 0xFF SWAP5 DUP6 AND SWAP8 POP SWAP3 SWAP6 POP SWAP1 SWAP4 DUP2 DUP5 AND SWAP4 PUSH2 0x100 DUP4 DIV DUP2 AND SWAP4 PUSH3 0x10000 DUP5 DIV DUP3 AND SWAP4 PUSH4 0x1000000 SWAP1 DIV SWAP1 SWAP2 AND SWAP2 SWAP1 DUP10 JUMP JUMPDEST PUSH2 0xE56 PUSH2 0x368F JUMP JUMPDEST CALLER PUSH0 SWAP1 DUP2 MSTORE PUSH1 0xB PUSH1 0x20 MSTORE PUSH1 0x40 SWAP1 KECCAK256 SLOAD DUP1 PUSH2 0xEA4 JUMPI PUSH1 0x40 MLOAD PUSH3 0x461BCD PUSH1 0xE5 SHL DUP2 MSTORE PUSH1 0x20 PUSH1 0x4 DUP3 ADD MSTORE PUSH1 0xA PUSH1 0x24 DUP3 ADD MSTORE PUSH10 0x4E6F207574696C697479 PUSH1 0xB0 SHL PUSH1 0x44 DUP3 ADD MSTORE PUSH1 0x64 ADD JUMPDEST PUSH1 0x40 MLOAD DUP1 SWAP2 SUB SWAP1 REVERT JUMPDEST CALLER PUSH0 DUP2 DUP2 MSTORE PUSH1 0xB PUSH1 0x20 MSTORE PUSH1 0x40 DUP2 KECCAK256 DUP2 SWAP1 SSTORE PUSH2 0xEC2 SWAP2 SWAP1 DUP4 PUSH1 0x1 PUSH2 0x36B9 JUMP JUMPDEST DUP1 PUSH1 0x18 PUSH0 DUP3 DUP3 SLOAD PUSH2 0xED3 SWAP2 SWAP1 PUSH2 0x3E8C JUMP JUMPDEST SWAP1 SWAP2 SSTORE POP POP CALLER PUSH0 SWAP1 DUP2 MSTORE PUSH1 0xD PUSH1 0x20 MSTORE PUSH1 0x40 DUP2 KECCAK256 DUP1 SLOAD DUP4 SWAP3 SWAP1 PUSH2 0xEF6 SWAP1 DUP5 SWAP1 PUSH2 0x3E8C JUMP JUMPDEST SWAP1 SWAP2 SSTORE POP POP PUSH1 0x40 MLOAD CALLER SWAP1 PUSH32 0x997D2EC09B086DE73D509BBC4AD2B52FD7E2338024464BEDE93A41ABD6CCDC38 SWAP1 PUSH2 0xF31 SWAP1 PUSH0 SWAP1 DUP6 SWAP1 TIMESTAMP SWAP1 PUSH2 0x3E9F JUMP JUMPDEST PUSH1 0x40 MLOAD DUP1 SWAP2 SUB SWAP1 LOG2 POP PUSH2 0xF43 PUSH1 0x1 DUP1 SSTORE JUMP JUMPDEST JUMP JUMPDEST PUSH1 0x1 PUSH1 0x1 PUSH1 0xA0 SHL SUB DUP2 AND PUSH0 SWAP1 DUP2 MSTORE PUSH1 0x8 PUSH1 0x20 SWAP1 DUP2 MSTORE PUSH1 0x40 DUP1 DUP4 KECCAK256 DUP1 SLOAD DUP3 MLOAD DUP2 DUP6 MUL DUP2 ADD DUP6 ADD SWAP1 SWAP4 MSTORE DUP1 DUP4 MSTORE PUSH1 0x60 SWAP5 SWAP3 SWAP4 SWAP2 SWAP3 SWAP1 SWAP2 DUP5 ADD JUMPDEST DUP3 DUP3 LT ISZERO PUSH2 0x1048 JUMPI PUSH0 DUP5 DUP2 MSTORE PUSH1 0x20 SWAP1 KECCAK256 PUSH1 0x40 DUP1 MLOAD PUSH2 0x120 DUP2 ADD SWAP1 SWAP2 MSTORE PUSH1 0x6 DUP5 MUL SWAP1 SWAP2 ADD DUP1 SLOAD DUP3 SWAP1 PUSH1 0xFF AND PUSH1 0x1 DUP2 GT ISZERO PUSH2 0xFB7 JUMPI PUSH2 0xFB7 PUSH2 0x3B28 JUMP JUMPDEST PUSH1 0x1 DUP2 GT ISZERO PUSH2 0xFC8 JUMPI PUSH2 0xFC8 PUSH2 0x3B28 JUMP JUMPDEST DUP2 MSTORE PUSH1 0x1 DUP3 DUP2 ADD SLOAD PUSH1 0x20 DUP1 DUP5 ADD SWAP2 SWAP1 SWAP2 MSTORE PUSH1 0x2 DUP5 ADD SLOAD PUSH1 0x40 DUP5 ADD MSTORE PUSH1 0x3 DUP5 ADD SLOAD PUSH1 0xFF DUP1 DUP3 AND ISZERO ISZERO PUSH1 0x60 DUP7 ADD MSTORE PUSH2 0x100 DUP1 DUP4 DIV DUP3 AND ISZERO ISZERO PUSH1 0x80 DUP8 ADD MSTORE PUSH3 0x10000 DUP4 DIV DUP3 AND ISZERO ISZERO PUSH1 0xA0 DUP8 ADD MSTORE PUSH4 0x1000000 SWAP1 SWAP3 DIV AND ISZERO ISZERO PUSH1 0xC0 DUP6 ADD MSTORE PUSH1 0x4 DUP6 ADD SLOAD PUSH1 0xE0 DUP6 ADD MSTORE PUSH1 0x5 SWAP1 SWAP5 ADD SLOAD SWAP4 SWAP1 SWAP3 ADD SWAP3 SWAP1 SWAP3 MSTORE SWAP2 DUP4 MSTORE SWAP3 SWAP1 SWAP3 ADD SWAP2 ADD PUSH2 0xF7C JUMP JUMPDEST POP POP POP POP SWAP1 POP SWAP2 SWAP1 POP JUMP JUMPDEST PUSH2 0x105B PUSH2 0x368F JUMP JUMPDEST PUSH1 0x5 SLOAD PUSH2 0x100 SWAP1 DIV PUSH1 0xFF AND ISZERO PUSH2 0x10B3 JUMPI PUSH1 0x40 MLOAD PUSH3 0x461BCD PUSH1 0xE5 SHL DUP2 MSTORE PUSH1 0x20 PUSH1 0x4 DUP3 ADD MSTORE PUSH1 0x12 PUSH1 0x24 DUP3 ADD MSTORE PUSH32 0x5769746864726177616C73207061757365640000000000000000000000000000 PUSH1 0x44 DUP3 ADD MSTORE PUSH1 0x64 ADD PUSH2 0xE9B JUMP JUMPDEST CALLER PUSH0 SWAP1 DUP2 MSTORE PUSH1 0x8 PUSH1 0x20 MSTORE PUSH1 0x40 DUP2 KECCAK256 DUP1 SLOAD DUP4 SWAP1 DUP2 LT PUSH2 0x10D3 JUMPI PUSH2 0x10D3 PUSH2 0x3EBE JUMP JUMPDEST PUSH0 SWAP2 DUP3 MSTORE PUSH1 0x20 SWAP1 SWAP2 KECCAK256 PUSH1 0x6 SWAP1 SWAP2 MUL ADD PUSH1 0x3 DUP2 ADD SLOAD SWAP1 SWAP2 POP PUSH1 0xFF AND ISZERO PUSH2 0x113A JUMPI PUSH1 0x40 MLOAD PUSH3 0x461BCD PUSH1 0xE5 SHL DUP2 MSTORE PUSH1 0x20 PUSH1 0x4 DUP3 ADD MSTORE PUSH1 0x11 PUSH1 0x24 DUP3 ADD MSTORE PUSH32 0x416C72656164792077697468647261776E000000000000000000000000000000 PUSH1 0x44 DUP3 ADD MSTORE PUSH1 0x64 ADD PUSH2 0xE9B JUMP JUMPDEST PUSH1 0x2 SLOAD DUP2 PUSH1 0x2 ADD SLOAD PUSH2 0x114C SWAP2 SWAP1 PUSH2 0x3E8C JUMP JUMPDEST TIMESTAMP LT ISZERO DUP1 PUSH2 0x1163 JUMPI POP PUSH1 0x3 DUP2 ADD SLOAD PUSH2 0x100 SWAP1 DIV PUSH1 0xFF AND JUMPDEST DUP1 PUSH2 0x118C JUMPI POP PUSH1 0x5 SLOAD PUSH4 0x1000000 SWAP1 DIV PUSH1 0xFF AND DUP1 ISZERO PUSH2 0x118C JUMPI POP PUSH1 0x3 DUP2 ADD SLOAD PUSH3 0x10000 SWAP1 DIV PUSH1 0xFF AND JUMPDEST PUSH2 0x11C9 JUMPI PUSH1 0x40 MLOAD PUSH3 0x461BCD PUSH1 0xE5 SHL DUP2 MSTORE PUSH1 0x20 PUSH1 0x4 DUP3 ADD MSTORE PUSH1 0xE PUSH1 0x24 DUP3 ADD MSTORE PUSH14 0x11195C1BDCDA5D081B1BD8DAD959 PUSH1 0x92 SHL PUSH1 0x44 DUP3 ADD MSTORE PUSH1 0x64 ADD PUSH2 0xE9B JUMP JUMPDEST PUSH1 0x3 DUP2 ADD DUP1 SLOAD PUSH1 0xFF NOT AND PUSH1 0x1 OR SWAP1 SSTORE TIMESTAMP PUSH1 0x4 DUP3 ADD SSTORE PUSH1 0x5 DUP2 ADD SLOAD PUSH0 DUP3 SLOAD PUSH1 0xFF AND PUSH1 0x1 DUP2 GT ISZERO PUSH2 0x11FA JUMPI PUSH2 0x11FA PUSH2 0x3B28 JUMP JUMPDEST SUB PUSH2 0x12B8 JUMPI DUP2 PUSH1 0x1 ADD SLOAD PUSH1 0x14 PUSH0 DUP3 DUP3 SLOAD PUSH2 0x1214 SWAP2 SWAP1 PUSH2 0x3E8C JUMP JUMPDEST SWAP1 SWAP2 SSTORE POP POP PUSH1 0x1 DUP3 ADD SLOAD PUSH0 SWAP1 CALLER SWAP1 PUSH2 0x122D SWAP1 DUP5 SWAP1 PUSH2 0x3E8C JUMP JUMPDEST PUSH1 0x40 MLOAD PUSH0 DUP2 DUP2 DUP2 DUP6 DUP8 GAS CALL SWAP3 POP POP POP RETURNDATASIZE DUP1 PUSH0 DUP2 EQ PUSH2 0x1266 JUMPI PUSH1 0x40 MLOAD SWAP2 POP PUSH1 0x1F NOT PUSH1 0x3F RETURNDATASIZE ADD AND DUP3 ADD PUSH1 0x40 MSTORE RETURNDATASIZE DUP3 MSTORE RETURNDATASIZE PUSH0 PUSH1 0x20 DUP5 ADD RETURNDATACOPY PUSH2 0x126B JUMP JUMPDEST PUSH1 0x60 SWAP2 POP JUMPDEST POP POP SWAP1 POP DUP1 PUSH2 0x12B2 JUMPI PUSH1 0x40 MLOAD PUSH3 0x461BCD PUSH1 0xE5 SHL DUP2 MSTORE PUSH1 0x20 PUSH1 0x4 DUP3 ADD MSTORE PUSH1 0x13 PUSH1 0x24 DUP3 ADD MSTORE PUSH19 0x115512081D1C985B9CD9995C8819985A5B1959 PUSH1 0x6A SHL PUSH1 0x44 DUP3 ADD MSTORE PUSH1 0x64 ADD PUSH2 0xE9B JUMP JUMPDEST POP PUSH2 0x138B JUMP JUMPDEST PUSH1 0x1 DUP3 SLOAD PUSH1 0xFF AND PUSH1 0x1 DUP2 GT ISZERO PUSH2 0x12D0 JUMPI PUSH2 0x12D0 PUSH2 0x3B28 JUMP JUMPDEST SUB PUSH2 0x138B JUMPI DUP2 PUSH1 0x1 ADD SLOAD PUSH1 0x15 PUSH0 DUP3 DUP3 SLOAD PUSH2 0x12EA SWAP2 SWAP1 PUSH2 0x3E8C JUMP JUMPDEST SWAP1 SWAP2 SSTORE POP POP PUSH1 0x1 DUP3 ADD SLOAD PUSH20 0x833589FCD6EDB6E08F4C7C32D4F71B54BDA02913 SWAP1 PUSH4 0xA9059CBB SWAP1 CALLER SWAP1 PUSH2 0x131D SWAP1 DUP6 SWAP1 PUSH2 0x3E8C JUMP JUMPDEST PUSH1 0x40 MLOAD PUSH1 0x1 PUSH1 0x1 PUSH1 0xE0 SHL SUB NOT PUSH1 0xE0 DUP6 SWAP1 SHL AND DUP2 MSTORE PUSH1 0x1 PUSH1 0x1 PUSH1 0xA0 SHL SUB SWAP1 SWAP3 AND PUSH1 0x4 DUP4 ADD MSTORE PUSH1 0x24 DUP3 ADD MSTORE PUSH1 0x44 ADD PUSH1 0x20 PUSH1 0x40 MLOAD DUP1 DUP4 SUB DUP2 PUSH0 DUP8 GAS CALL ISZERO DUP1 ISZERO PUSH2 0x1365 JUMPI RETURNDATASIZE PUSH0 DUP1 RETURNDATACOPY RETURNDATASIZE PUSH0 REVERT JUMPDEST POP POP POP POP PUSH1 0x40 MLOAD RETURNDATASIZE PUSH1 0x1F NOT PUSH1 0x1F DUP3 ADD AND DUP3 ADD DUP1 PUSH1 0x40 MSTORE POP DUP2 ADD SWAP1 PUSH2 0x1389 SWAP2 SWAP1 PUSH2 0x3ED2 JUMP JUMPDEST POP JUMPDEST CALLER PUSH0 SWAP1 DUP2 MSTORE PUSH1 0xA PUSH1 0x20 MSTORE PUSH1 0x40 SWAP1 KECCAK256 SLOAD PUSH1 0xFF AND PUSH2 0x13FB JUMPI PUSH1 0x10 DUP1 SLOAD PUSH1 0x1 DUP2 DUP2 ADD SWAP1 SWAP3 SSTORE PUSH32 0x1B6847DC741A1B0CD08D278845F9D819D87B734759AFB55FE2DE5CB82A9AE672 ADD DUP1 SLOAD PUSH1 0x1 PUSH1 0x1 PUSH1 0xA0 SHL SUB NOT AND CALLER SWAP1 DUP2 OR SWAP1 SWAP2 SSTORE PUSH0 SWAP1 DUP2 MSTORE PUSH1 0xA PUSH1 0x20 MSTORE PUSH1 0x40 SWAP1 KECCAK256 DUP1 SLOAD PUSH1 0xFF NOT AND SWAP1 SWAP2 OR SWAP1 SSTORE JUMPDEST DUP2 SLOAD PUSH1 0x1 DUP4 ADD SLOAD PUSH1 0x40 MLOAD CALLER SWAP3 PUSH32 0xCB034B37EF3764745C35BAFECD525367BCF312E9010239E6AEEBBE6BCF57727F SWAP3 PUSH2 0x143E SWAP3 PUSH1 0xFF SWAP1 SWAP3 AND SWAP2 DUP7 SWAP1 TIMESTAMP SWAP1 DUP11 SWAP1 PUSH2 0x3EED JUMP JUMPDEST PUSH1 0x40 MLOAD DUP1 SWAP2 SUB SWAP1 LOG2 POP POP PUSH2 0x1451 PUSH1 0x1 DUP1 SSTORE JUMP JUMPDEST POP JUMP JUMPDEST PUSH0 DUP3 DUP2 MSTORE PUSH1 0x20 DUP2 SWAP1 MSTORE PUSH1 0x40 SWAP1 KECCAK256 PUSH1 0x1 ADD SLOAD PUSH2 0x146E DUP2 PUSH2 0x3685 JUMP JUMPDEST PUSH2 0x1478 DUP4 DUP4 PUSH2 0x38FC JUMP JUMPDEST POP POP POP POP JUMP JUMPDEST PUSH1 0x1 PUSH1 0x1 PUSH1 0xA0 SHL SUB DUP2 AND CALLER EQ PUSH2 0x14A7 JUMPI PUSH1 0x40 MLOAD PUSH4 0x334BD919 PUSH1 0xE1 SHL DUP2 MSTORE PUSH1 0x4 ADD PUSH1 0x40 MLOAD DUP1 SWAP2 SUB SWAP1 REVERT JUMPDEST PUSH2 0x14B1 DUP3 DUP3 PUSH2 0x39A3 JUMP JUMPDEST POP POP POP JUMP JUMPDEST PUSH0 DUP1 MLOAD PUSH1 0x20 PUSH2 0x4037 DUP4 CODECOPY DUP2 MLOAD SWAP2 MSTORE PUSH2 0x14CD DUP2 PUSH2 0x3685 JUMP JUMPDEST DUP4 DUP3 EQ PUSH2 0x1507 JUMPI PUSH1 0x40 MLOAD PUSH3 0x461BCD PUSH1 0xE5 SHL DUP2 MSTORE PUSH1 0x20 PUSH1 0x4 DUP3 ADD MSTORE PUSH1 0x8 PUSH1 0x24 DUP3 ADD MSTORE PUSH8 0x9AD2E6DAC2E8C6D PUSH1 0xC3 SHL PUSH1 0x44 DUP3 ADD MSTORE PUSH1 0x64 ADD PUSH2 0xE9B JUMP JUMPDEST PUSH0 DUP1 JUMPDEST DUP6 DUP2 LT ISZERO PUSH2 0x1606 JUMPI PUSH0 DUP6 DUP6 DUP4 DUP2 DUP2 LT PUSH2 0x1525 JUMPI PUSH2 0x1525 PUSH2 0x3EBE JUMP JUMPDEST SWAP1 POP PUSH1 0x20 MUL ADD CALLDATALOAD GT PUSH2 0x1562 JUMPI PUSH1 0x40 MLOAD PUSH3 0x461BCD PUSH1 0xE5 SHL DUP2 MSTORE PUSH1 0x4 ADD PUSH2 0xE9B SWAP1 PUSH1 0x20 DUP1 DUP3 MSTORE PUSH1 0x4 SWAP1 DUP3 ADD MSTORE PUSH4 0x5A65726F PUSH1 0xE0 SHL PUSH1 0x40 DUP3 ADD MSTORE PUSH1 0x60 ADD SWAP1 JUMP JUMPDEST DUP5 DUP5 DUP3 DUP2 DUP2 LT PUSH2 0x1574 JUMPI PUSH2 0x1574 PUSH2 0x3EBE JUMP JUMPDEST SWAP1 POP PUSH1 0x20 MUL ADD CALLDATALOAD PUSH1 0xC PUSH0 DUP10 DUP10 DUP6 DUP2 DUP2 LT PUSH2 0x1590 JUMPI PUSH2 0x1590 PUSH2 0x3EBE JUMP JUMPDEST SWAP1 POP PUSH1 0x20 MUL ADD PUSH1 0x20 DUP2 ADD SWAP1 PUSH2 0x15A5 SWAP2 SWAP1 PUSH2 0x3ABF JUMP JUMPDEST PUSH1 0x1 PUSH1 0x1 PUSH1 0xA0 SHL SUB AND PUSH1 0x1 PUSH1 0x1 PUSH1 0xA0 SHL SUB AND DUP2 MSTORE PUSH1 0x20 ADD SWAP1 DUP2 MSTORE PUSH1 0x20 ADD PUSH0 KECCAK256 PUSH0 DUP3 DUP3 SLOAD PUSH2 0x15D2 SWAP2 SWAP1 PUSH2 0x3E8C JUMP JUMPDEST SWAP1 SWAP2 SSTORE POP DUP6 SWAP1 POP DUP5 DUP3 DUP2 DUP2 LT PUSH2 0x15EA JUMPI PUSH2 0x15EA PUSH2 0x3EBE JUMP JUMPDEST SWAP1 POP PUSH1 0x20 MUL ADD CALLDATALOAD DUP3 PUSH2 0x15FC SWAP2 SWAP1 PUSH2 0x3E8C JUMP JUMPDEST SWAP2 POP PUSH1 0x1 ADD PUSH2 0x150A JUMP JUMPDEST POP PUSH1 0x17 SLOAD DUP2 GT ISZERO PUSH2 0x1648 JUMPI PUSH1 0x40 MLOAD PUSH3 0x461BCD PUSH1 0xE5 SHL DUP2 MSTORE PUSH1 0x20 PUSH1 0x4 DUP3 ADD MSTORE PUSH1 0xC PUSH1 0x24 DUP3 ADD MSTORE PUSH12 0x115E18D959591CC81C1BDBDB PUSH1 0xA2 SHL PUSH1 0x44 DUP3 ADD MSTORE PUSH1 0x64 ADD PUSH2 0xE9B JUMP JUMPDEST DUP1 PUSH1 0x17 PUSH0 DUP3 DUP3 SLOAD PUSH2 0x1659 SWAP2 SWAP1 PUSH2 0x3F1D JUMP JUMPDEST SWAP1 SWAP2 SSTORE POP POP POP POP POP POP POP POP JUMP JUMPDEST PUSH0 DUP1 MLOAD PUSH1 0x20 PUSH2 0x4037 DUP4 CODECOPY DUP2 MLOAD SWAP2 MSTORE PUSH2 0x167D DUP2 PUSH2 0x3685 JUMP JUMPDEST DUP4 DUP3 EQ PUSH2 0x16B7 JUMPI PUSH1 0x40 MLOAD PUSH3 0x461BCD PUSH1 0xE5 SHL DUP2 MSTORE PUSH1 0x20 PUSH1 0x4 DUP3 ADD MSTORE PUSH1 0x8 PUSH1 0x24 DUP3 ADD MSTORE PUSH8 0x9AD2E6DAC2E8C6D PUSH1 0xC3 SHL PUSH1 0x44 DUP3 ADD MSTORE PUSH1 0x64 ADD PUSH2 0xE9B JUMP JUMPDEST PUSH0 JUMPDEST DUP5 DUP2 LT ISZERO PUSH2 0x17CC JUMPI DUP4 DUP4 DUP3 DUP2 DUP2 LT PUSH2 0x16D3 JUMPI PUSH2 0x16D3 PUSH2 0x3EBE JUMP JUMPDEST SWAP1 POP PUSH1 0x20 MUL ADD PUSH1 0x20 DUP2 ADD SWAP1 PUSH2 0x16E8 SWAP2 SWAP1 PUSH2 0x3AE5 JUMP JUMPDEST PUSH1 0x9 PUSH0 DUP9 DUP9 DUP6 DUP2 DUP2 LT PUSH2 0x16FD JUMPI PUSH2 0x16FD PUSH2 0x3EBE JUMP JUMPDEST SWAP1 POP PUSH1 0x20 MUL ADD PUSH1 0x20 DUP2 ADD SWAP1 PUSH2 0x1712 SWAP2 SWAP1 PUSH2 0x3ABF JUMP JUMPDEST PUSH1 0x1 PUSH1 0x1 PUSH1 0xA0 SHL SUB AND DUP2 MSTORE PUSH1 0x20 DUP2 ADD SWAP2 SWAP1 SWAP2 MSTORE PUSH1 0x40 ADD PUSH0 KECCAK256 DUP1 SLOAD PUSH1 0xFF NOT AND SWAP2 ISZERO ISZERO SWAP2 SWAP1 SWAP2 OR SWAP1 SSTORE DUP6 DUP6 DUP3 DUP2 DUP2 LT PUSH2 0x174B JUMPI PUSH2 0x174B PUSH2 0x3EBE JUMP JUMPDEST SWAP1 POP PUSH1 0x20 MUL ADD PUSH1 0x20 DUP2 ADD SWAP1 PUSH2 0x1760 SWAP2 SWAP1 PUSH2 0x3ABF JUMP JUMPDEST PUSH1 0x1 PUSH1 0x1 PUSH1 0xA0 SHL SUB AND PUSH32 0x995D2434D36C9BCEAAB42C56EFE51E8FFE41FD11CABEFD9E2CB83700D8B2035E DUP6 DUP6 DUP5 DUP2 DUP2 LT PUSH2 0x179C JUMPI PUSH2 0x179C PUSH2 0x3EBE JUMP JUMPDEST SWAP1 POP PUSH1 0x20 MUL ADD PUSH1 0x20 DUP2 ADD SWAP1 PUSH2 0x17B1 SWAP2 SWAP1 PUSH2 0x3AE5 JUMP JUMPDEST PUSH1 0x40 MLOAD SWAP1 ISZERO ISZERO DUP2 MSTORE PUSH1 0x20 ADD PUSH1 0x40 MLOAD DUP1 SWAP2 SUB SWAP1 LOG2 PUSH1 0x1 ADD PUSH2 0x16B9 JUMP JUMPDEST POP POP POP POP POP POP JUMP JUMPDEST PUSH1 0x1 PUSH1 0x1 PUSH1 0xA0 SHL SUB DUP2 AND PUSH0 SWAP1 DUP2 MSTORE PUSH1 0x8 PUSH1 0x20 MSTORE PUSH1 0x40 DUP2 KECCAK256 DUP2 SWAP1 DUP2 SWAP1 DUP2 SWAP1 DUP2 SWAP1 DUP2 SWAP1 DUP2 SWAP1 DUP2 SWAP1 DUP2 JUMPDEST DUP2 SLOAD DUP2 LT ISZERO PUSH2 0x1A6A JUMPI PUSH0 DUP3 DUP3 DUP2 SLOAD DUP2 LT PUSH2 0x1817 JUMPI PUSH2 0x1817 PUSH2 0x3EBE JUMP JUMPDEST PUSH0 SWAP2 DUP3 MSTORE PUSH1 0x20 SWAP1 SWAP2 KECCAK256 PUSH1 0x6 SWAP1 SWAP2 MUL ADD SLOAD PUSH1 0xFF AND PUSH1 0x1 DUP2 GT ISZERO PUSH2 0x183B JUMPI PUSH2 0x183B PUSH2 0x3B28 JUMP JUMPDEST SUB PUSH2 0x1935 JUMPI DUP2 DUP2 DUP2 SLOAD DUP2 LT PUSH2 0x1852 JUMPI PUSH2 0x1852 PUSH2 0x3EBE JUMP JUMPDEST SWAP1 PUSH0 MSTORE PUSH1 0x20 PUSH0 KECCAK256 SWAP1 PUSH1 0x6 MUL ADD PUSH1 0x1 ADD SLOAD DUP11 PUSH2 0x186D SWAP2 SWAP1 PUSH2 0x3E8C JUMP JUMPDEST SWAP10 POP DUP2 DUP2 DUP2 SLOAD DUP2 LT PUSH2 0x1881 JUMPI PUSH2 0x1881 PUSH2 0x3EBE JUMP JUMPDEST PUSH0 SWAP2 DUP3 MSTORE PUSH1 0x20 SWAP1 SWAP2 KECCAK256 PUSH1 0x3 PUSH1 0x6 SWAP1 SWAP3 MUL ADD ADD SLOAD PUSH1 0xFF AND ISZERO PUSH2 0x18CC JUMPI DUP2 DUP2 DUP2 SLOAD DUP2 LT PUSH2 0x18AE JUMPI PUSH2 0x18AE PUSH2 0x3EBE JUMP JUMPDEST SWAP1 PUSH0 MSTORE PUSH1 0x20 PUSH0 KECCAK256 SWAP1 PUSH1 0x6 MUL ADD PUSH1 0x1 ADD SLOAD DUP9 PUSH2 0x18C9 SWAP2 SWAP1 PUSH2 0x3E8C JUMP JUMPDEST SWAP8 POP JUMPDEST DUP2 DUP2 DUP2 SLOAD DUP2 LT PUSH2 0x18DE JUMPI PUSH2 0x18DE PUSH2 0x3EBE JUMP JUMPDEST SWAP1 PUSH0 MSTORE PUSH1 0x20 PUSH0 KECCAK256 SWAP1 PUSH1 0x6 MUL ADD PUSH1 0x3 ADD PUSH1 0x3 SWAP1 SLOAD SWAP1 PUSH2 0x100 EXP SWAP1 DIV PUSH1 0xFF AND ISZERO PUSH2 0x1930 JUMPI DUP2 DUP2 DUP2 SLOAD DUP2 LT PUSH2 0x1912 JUMPI PUSH2 0x1912 PUSH2 0x3EBE JUMP JUMPDEST SWAP1 PUSH0 MSTORE PUSH1 0x20 PUSH0 KECCAK256 SWAP1 PUSH1 0x6 MUL ADD PUSH1 0x1 ADD SLOAD DUP5 PUSH2 0x192D SWAP2 SWAP1 PUSH2 0x3E8C JUMP JUMPDEST SWAP4 POP JUMPDEST PUSH2 0x1A62 JUMP JUMPDEST PUSH1 0x1 DUP3 DUP3 DUP2 SLOAD DUP2 LT PUSH2 0x1949 JUMPI PUSH2 0x1949 PUSH2 0x3EBE JUMP JUMPDEST PUSH0 SWAP2 DUP3 MSTORE PUSH1 0x20 SWAP1 SWAP2 KECCAK256 PUSH1 0x6 SWAP1 SWAP2 MUL ADD SLOAD PUSH1 0xFF AND PUSH1 0x1 DUP2 GT ISZERO PUSH2 0x196D JUMPI PUSH2 0x196D PUSH2 0x3B28 JUMP JUMPDEST SUB PUSH2 0x1A62 JUMPI DUP2 DUP2 DUP2 SLOAD DUP2 LT PUSH2 0x1984 JUMPI PUSH2 0x1984 PUSH2 0x3EBE JUMP JUMPDEST SWAP1 PUSH0 MSTORE PUSH1 0x20 PUSH0 KECCAK256 SWAP1 PUSH1 0x6 MUL ADD PUSH1 0x1 ADD SLOAD DUP10 PUSH2 0x199F SWAP2 SWAP1 PUSH2 0x3E8C JUMP JUMPDEST SWAP9 POP DUP2 DUP2 DUP2 SLOAD DUP2 LT PUSH2 0x19B3 JUMPI PUSH2 0x19B3 PUSH2 0x3EBE JUMP JUMPDEST PUSH0 SWAP2 DUP3 MSTORE PUSH1 0x20 SWAP1 SWAP2 KECCAK256 PUSH1 0x3 PUSH1 0x6 SWAP1 SWAP3 MUL ADD ADD SLOAD PUSH1 0xFF AND ISZERO PUSH2 0x19FE JUMPI DUP2 DUP2 DUP2 SLOAD DUP2 LT PUSH2 0x19E0 JUMPI PUSH2 0x19E0 PUSH2 0x3EBE JUMP JUMPDEST SWAP1 PUSH0 MSTORE PUSH1 0x20 PUSH0 KECCAK256 SWAP1 PUSH1 0x6 MUL ADD PUSH1 0x1 ADD SLOAD DUP8 PUSH2 0x19FB SWAP2 SWAP1 PUSH2 0x3E8C JUMP JUMPDEST SWAP7 POP JUMPDEST DUP2 DUP2 DUP2 SLOAD DUP2 LT PUSH2 0x1A10 JUMPI PUSH2 0x1A10 PUSH2 0x3EBE JUMP JUMPDEST SWAP1 PUSH0 MSTORE PUSH1 0x20 PUSH0 KECCAK256 SWAP1 PUSH1 0x6 MUL ADD PUSH1 0x3 ADD PUSH1 0x3 SWAP1 SLOAD SWAP1 PUSH2 0x100 EXP SWAP1 DIV PUSH1 0xFF AND ISZERO PUSH2 0x1A62 JUMPI DUP2 DUP2 DUP2 SLOAD DUP2 LT PUSH2 0x1A44 JUMPI PUSH2 0x1A44 PUSH2 0x3EBE JUMP JUMPDEST SWAP1 PUSH0 MSTORE PUSH1 0x20 PUSH0 KECCAK256 SWAP1 PUSH1 0x6 MUL ADD PUSH1 0x1 ADD SLOAD DUP4 PUSH2 0x1A5F SWAP2 SWAP1 PUSH2 0x3E8C JUMP JUMPDEST SWAP3 POP JUMPDEST PUSH1 0x1 ADD PUSH2 0x17FB JUMP JUMPDEST POP POP PUSH1 0x1 PUSH1 0x1 PUSH1 0xA0 SHL SUB SWAP1 SWAP9 AND PUSH0 SWAP1 DUP2 MSTORE PUSH1 0xB PUSH1 0x20 SWAP1 DUP2 MSTORE PUSH1 0x40 DUP1 DUP4 KECCAK256 SLOAD PUSH1 0xC SWAP1 SWAP3 MSTORE SWAP1 SWAP2 KECCAK256 SLOAD SWAP8 SWAP10 SWAP7 SWAP9 SWAP6 SWAP8 SWAP5 SWAP7 SWAP1 SWAP6 SWAP2 SWAP4 POP SWAP1 SWAP2 POP JUMP JUMPDEST PUSH0 DUP1 MLOAD PUSH1 0x20 PUSH2 0x4037 DUP4 CODECOPY DUP2 MLOAD SWAP2 MSTORE PUSH2 0x1ABA DUP2 PUSH2 0x3685 JUMP JUMPDEST PUSH1 0x1 PUSH1 0x1 PUSH1 0xA0 SHL SUB DUP4 AND PUSH0 DUP2 DUP2 MSTORE PUSH1 0x9 PUSH1 0x20 SWAP1 DUP2 MSTORE PUSH1 0x40 SWAP2 DUP3 SWAP1 KECCAK256 DUP1 SLOAD PUSH1 0xFF NOT AND DUP7 ISZERO ISZERO SWAP1 DUP2 OR SWAP1 SWAP2 SSTORE SWAP2 MLOAD SWAP2 DUP3 MSTORE PUSH32 0x995D2434D36C9BCEAAB42C56EFE51E8FFE41FD11CABEFD9E2CB83700D8B2035E SWAP2 ADD PUSH1 0x40 MLOAD DUP1 SWAP2 SUB SWAP1 LOG2 POP POP POP JUMP JUMPDEST PUSH32 0xF60566C40710959D8D30B6067CE3C53C757BEC78EECB0E46B83C7F8194FFAE37 PUSH2 0x1B43 DUP2 PUSH2 0x3685 JUMP JUMPDEST PUSH0 CALLVALUE GT PUSH2 0x1B80 JUMPI PUSH1 0x40 MLOAD PUSH3 0x461BCD PUSH1 0xE5 SHL DUP2 MSTORE PUSH1 0x20 PUSH1 0x4 DUP3 ADD MSTORE PUSH1 0xB PUSH1 0x24 DUP3 ADD MSTORE PUSH11 0x139BC8115512081CD95B9D PUSH1 0xAA SHL PUSH1 0x44 DUP3 ADD MSTORE PUSH1 0x64 ADD PUSH2 0xE9B JUMP JUMPDEST CALLVALUE PUSH1 0x16 PUSH0 DUP3 DUP3 SLOAD PUSH2 0x1B91 SWAP2 SWAP1 PUSH2 0x3E8C JUMP JUMPDEST SWAP1 SWAP2 SSTORE POP POP PUSH1 0x40 MLOAD CALLER SWAP1 PUSH32 0x8BAFEC96FCFFB6F12596B4635C76397B7BC1F363B22C49C13136B63677323DCC SWAP1 PUSH2 0x1BCC SWAP1 PUSH0 SWAP1 CALLVALUE SWAP1 TIMESTAMP SWAP1 PUSH2 0x3E9F JUMP JUMPDEST PUSH1 0x40 MLOAD DUP1 SWAP2 SUB SWAP1 LOG2 POP JUMP JUMPDEST PUSH32 0x65D7A28E3265B37A6474929F336521B332C1681B933F6CB9F3376673440D862A PUSH2 0x1C01 DUP2 PUSH2 0x3685 JUMP JUMPDEST PUSH1 0x5 DUP1 SLOAD DUP4 ISZERO ISZERO PUSH2 0x100 DUP2 MUL PUSH2 0xFF00 NOT DUP8 ISZERO ISZERO SWAP1 DUP2 AND PUSH2 0xFFFF NOT SWAP1 SWAP5 AND SWAP4 SWAP1 SWAP4 OR OR SWAP1 SWAP3 SSTORE PUSH1 0x40 DUP1 MLOAD SWAP2 DUP3 MSTORE PUSH1 0x20 DUP3 ADD SWAP3 SWAP1 SWAP3 MSTORE PUSH32 0xAC1664632D6278432AA05A6AFC0AA83E5EA08E8DF9A1436736DAA5D6283211C0 SWAP2 ADD JUMPDEST PUSH1 0x40 MLOAD DUP1 SWAP2 SUB SWAP1 LOG1 POP POP POP JUMP JUMPDEST PUSH2 0x1C6E PUSH2 0x368F JUMP JUMPDEST CALLER PUSH0 SWAP1 DUP2 MSTORE PUSH1 0xC PUSH1 0x20 MSTORE PUSH1 0x40 SWAP1 KECCAK256 SLOAD DUP1 PUSH2 0x1CB7 JUMPI PUSH1 0x40 MLOAD PUSH3 0x461BCD PUSH1 0xE5 SHL DUP2 MSTORE PUSH1 0x20 PUSH1 0x4 DUP3 ADD MSTORE PUSH1 0xA PUSH1 0x24 DUP3 ADD MSTORE PUSH10 0x4E6F207574696C697479 PUSH1 0xB0 SHL PUSH1 0x44 DUP3 ADD MSTORE PUSH1 0x64 ADD PUSH2 0xE9B JUMP JUMPDEST CALLER PUSH0 DUP2 DUP2 MSTORE PUSH1 0xC PUSH1 0x20 MSTORE PUSH1 0x40 DUP1 DUP3 KECCAK256 SWAP2 SWAP1 SWAP2 SSTORE MLOAD PUSH4 0xA9059CBB PUSH1 0xE0 SHL DUP2 MSTORE PUSH1 0x4 DUP2 ADD SWAP2 SWAP1 SWAP2 MSTORE PUSH1 0x24 DUP2 ADD DUP3 SWAP1 MSTORE PUSH20 0x833589FCD6EDB6E08F4C7C32D4F71B54BDA02913 SWAP1 PUSH4 0xA9059CBB SWAP1 PUSH1 0x44 ADD PUSH1 0x20 PUSH1 0x40 MLOAD DUP1 DUP4 SUB DUP2 PUSH0 DUP8 GAS CALL ISZERO DUP1 ISZERO PUSH2 0x1D1F JUMPI RETURNDATASIZE PUSH0 DUP1 RETURNDATACOPY RETURNDATASIZE PUSH0 REVERT JUMPDEST POP POP POP POP PUSH1 0x40 MLOAD RETURNDATASIZE PUSH1 0x1F NOT PUSH1 0x1F DUP3 ADD AND DUP3 ADD DUP1 PUSH1 0x40 MSTORE POP DUP2 ADD SWAP1 PUSH2 0x1D43 SWAP2 SWAP1 PUSH2 0x3ED2 JUMP JUMPDEST POP CALLER PUSH1 0x1 PUSH1 0x1 PUSH1 0xA0 SHL SUB AND PUSH32 0x6914793C7A82461ACEC66C7DE7FDBBBF1F825C26BC2FE939B61F0E4F8964C2B5 PUSH1 0x1 DUP4 TIMESTAMP PUSH1 0x40 MLOAD PUSH2 0xF31 SWAP4 SWAP3 SWAP2 SWAP1 PUSH2 0x3E9F JUMP JUMPDEST PUSH0 DUP1 MLOAD PUSH1 0x20 PUSH2 0x4037 DUP4 CODECOPY DUP2 MLOAD SWAP2 MSTORE PUSH2 0x1D99 DUP2 PUSH2 0x3685 JUMP JUMPDEST PUSH0 DUP3 GT PUSH2 0x1DD1 JUMPI PUSH1 0x40 MLOAD PUSH3 0x461BCD PUSH1 0xE5 SHL DUP2 MSTORE PUSH1 0x4 ADD PUSH2 0xE9B SWAP1 PUSH1 0x20 DUP1 DUP3 MSTORE PUSH1 0x4 SWAP1 DUP3 ADD MSTORE PUSH4 0x5A65726F PUSH1 0xE0 SHL PUSH1 0x40 DUP3 ADD MSTORE PUSH1 0x60 ADD SWAP1 JUMP JUMPDEST PUSH1 0x16 SLOAD DUP3 GT ISZERO PUSH2 0x1E12 JUMPI PUSH1 0x40 MLOAD PUSH3 0x461BCD PUSH1 0xE5 SHL DUP2 MSTORE PUSH1 0x20 PUSH1 0x4 DUP3 ADD MSTORE PUSH1 0xC PUSH1 0x24 DUP3 ADD MSTORE PUSH12 0x115E18D959591CC81C1BDBDB PUSH1 0xA2 SHL PUSH1 0x44 DUP3 ADD MSTORE PUSH1 0x64 ADD PUSH2 0xE9B JUMP JUMPDEST PUSH1 0x1 PUSH1 0x1 PUSH1 0xA0 SHL SUB DUP4 AND PUSH0 SWAP1 DUP2 MSTORE PUSH1 0xB PUSH1 0x20 MSTORE PUSH1 0x40 DUP2 KECCAK256 DUP1 SLOAD DUP5 SWAP3 SWAP1 PUSH2 0x1E39 SWAP1 DUP5 SWAP1 PUSH2 0x3E8C JUMP JUMPDEST SWAP3 POP POP DUP2 SWAP1 SSTORE POP DUP2 PUSH1 0x16 PUSH0 DUP3 DUP3 SLOAD PUSH2 0x1E51 SWAP2 SWAP1 PUSH2 0x3F1D JUMP JUMPDEST SWAP1 SWAP2 SSTORE POP POP POP POP POP JUMP JUMPDEST PUSH2 0x1E63 PUSH2 0x368F JUMP JUMPDEST PUSH1 0x5 SLOAD PUSH2 0x100 SWAP1 DIV PUSH1 0xFF AND ISZERO PUSH2 0x1EBB JUMPI PUSH1 0x40 MLOAD PUSH3 0x461BCD PUSH1 0xE5 SHL DUP2 MSTORE PUSH1 0x20 PUSH1 0x4 DUP3 ADD MSTORE PUSH1 0x12 PUSH1 0x24 DUP3 ADD MSTORE PUSH32 0x5769746864726177616C73207061757365640000000000000000000000000000 PUSH1 0x44 DUP3 ADD MSTORE PUSH1 0x64 ADD PUSH2 0xE9B JUMP JUMPDEST PUSH0 DUP1 PUSH0 DUP1 PUSH0 JUMPDEST DUP6 DUP2 LT ISZERO PUSH2 0x219C JUMPI CALLER PUSH0 SWAP1 DUP2 MSTORE PUSH1 0x8 PUSH1 0x20 MSTORE PUSH1 0x40 DUP2 KECCAK256 DUP9 DUP9 DUP5 DUP2 DUP2 LT PUSH2 0x1EE9 JUMPI PUSH2 0x1EE9 PUSH2 0x3EBE JUMP JUMPDEST SWAP1 POP PUSH1 0x20 MUL ADD CALLDATALOAD DUP2 SLOAD DUP2 LT PUSH2 0x1F00 JUMPI PUSH2 0x1F00 PUSH2 0x3EBE JUMP JUMPDEST PUSH0 SWAP2 DUP3 MSTORE PUSH1 0x20 SWAP1 SWAP2 KECCAK256 PUSH1 0x6 SWAP1 SWAP2 MUL ADD PUSH1 0x3 DUP2 ADD SLOAD SWAP1 SWAP2 POP PUSH1 0xFF AND ISZERO PUSH2 0x1F67 JUMPI PUSH1 0x40 MLOAD PUSH3 0x461BCD PUSH1 0xE5 SHL DUP2 MSTORE PUSH1 0x20 PUSH1 0x4 DUP3 ADD MSTORE PUSH1 0x11 PUSH1 0x24 DUP3 ADD MSTORE PUSH32 0x416C72656164792077697468647261776E000000000000000000000000000000 PUSH1 0x44 DUP3 ADD MSTORE PUSH1 0x64 ADD PUSH2 0xE9B JUMP JUMPDEST PUSH1 0x2 SLOAD DUP2 PUSH1 0x2 ADD SLOAD PUSH2 0x1F79 SWAP2 SWAP1 PUSH2 0x3E8C JUMP JUMPDEST TIMESTAMP LT ISZERO DUP1 PUSH2 0x1F90 JUMPI POP PUSH1 0x3 DUP2 ADD SLOAD PUSH2 0x100 SWAP1 DIV PUSH1 0xFF AND JUMPDEST DUP1 PUSH2 0x1FB9 JUMPI POP PUSH1 0x5 SLOAD PUSH4 0x1000000 SWAP1 DIV PUSH1 0xFF AND DUP1 ISZERO PUSH2 0x1FB9 JUMPI POP PUSH1 0x3 DUP2 ADD SLOAD PUSH3 0x10000 SWAP1 DIV PUSH1 0xFF AND JUMPDEST PUSH2 0x1FF6 JUMPI PUSH1 0x40 MLOAD PUSH3 0x461BCD PUSH1 0xE5 SHL DUP2 MSTORE PUSH1 0x20 PUSH1 0x4 DUP3 ADD MSTORE PUSH1 0xE PUSH1 0x24 DUP3 ADD MSTORE PUSH14 0x11195C1BDCDA5D081B1BD8DAD959 PUSH1 0x92 SHL PUSH1 0x44 DUP3 ADD MSTORE PUSH1 0x64 ADD PUSH2 0xE9B JUMP JUMPDEST PUSH1 0x3 DUP2 ADD DUP1 SLOAD PUSH1 0xFF NOT AND PUSH1 0x1 OR SWAP1 SSTORE TIMESTAMP PUSH1 0x4 DUP3 ADD SSTORE PUSH1 0x5 DUP2 ADD SLOAD PUSH0 DUP3 SLOAD PUSH1 0xFF AND PUSH1 0x1 DUP2 GT ISZERO PUSH2 0x2027 JUMPI PUSH2 0x2027 PUSH2 0x3B28 JUMP JUMPDEST SUB PUSH2 0x2068 JUMPI DUP2 PUSH1 0x1 ADD SLOAD PUSH1 0x14 PUSH0 DUP3 DUP3 SLOAD PUSH2 0x2041 SWAP2 SWAP1 PUSH2 0x3E8C JUMP JUMPDEST SWAP1 SWAP2 SSTORE POP POP PUSH1 0x1 DUP3 ADD SLOAD PUSH2 0x2055 SWAP1 DUP9 PUSH2 0x3E8C JUMP JUMPDEST SWAP7 POP PUSH2 0x2061 DUP2 DUP8 PUSH2 0x3E8C JUMP JUMPDEST SWAP6 POP PUSH2 0x20BD JUMP JUMPDEST PUSH1 0x1 DUP3 SLOAD PUSH1 0xFF AND PUSH1 0x1 DUP2 GT ISZERO PUSH2 0x2080 JUMPI PUSH2 0x2080 PUSH2 0x3B28 JUMP JUMPDEST SUB PUSH2 0x20BD JUMPI DUP2 PUSH1 0x1 ADD SLOAD PUSH1 0x15 PUSH0 DUP3 DUP3 SLOAD PUSH2 0x209A SWAP2 SWAP1 PUSH2 0x3E8C JUMP JUMPDEST SWAP1 SWAP2 SSTORE POP POP PUSH1 0x1 DUP3 ADD SLOAD PUSH2 0x20AE SWAP1 DUP7 PUSH2 0x3E8C JUMP JUMPDEST SWAP5 POP PUSH2 0x20BA DUP2 DUP6 PUSH2 0x3E8C JUMP JUMPDEST SWAP4 POP JUMPDEST CALLER PUSH0 SWAP1 DUP2 MSTORE PUSH1 0xA PUSH1 0x20 MSTORE PUSH1 0x40 SWAP1 KECCAK256 SLOAD PUSH1 0xFF AND PUSH2 0x212D JUMPI PUSH1 0x10 DUP1 SLOAD PUSH1 0x1 DUP2 DUP2 ADD SWAP1 SWAP3 SSTORE PUSH32 0x1B6847DC741A1B0CD08D278845F9D819D87B734759AFB55FE2DE5CB82A9AE672 ADD DUP1 SLOAD PUSH1 0x1 PUSH1 0x1 PUSH1 0xA0 SHL SUB NOT AND CALLER SWAP1 DUP2 OR SWAP1 SWAP2 SSTORE PUSH0 SWAP1 DUP2 MSTORE PUSH1 0xA PUSH1 0x20 MSTORE PUSH1 0x40 SWAP1 KECCAK256 DUP1 SLOAD PUSH1 0xFF NOT AND SWAP1 SWAP2 OR SWAP1 SSTORE JUMPDEST DUP2 SLOAD PUSH1 0x1 DUP4 ADD SLOAD CALLER SWAP2 PUSH32 0xCB034B37EF3764745C35BAFECD525367BCF312E9010239E6AEEBBE6BCF57727F SWAP2 PUSH1 0xFF SWAP1 SWAP2 AND SWAP1 DUP5 TIMESTAMP DUP15 DUP15 DUP11 DUP2 DUP2 LT PUSH2 0x2172 JUMPI PUSH2 0x2172 PUSH2 0x3EBE JUMP JUMPDEST SWAP1 POP PUSH1 0x20 MUL ADD CALLDATALOAD PUSH1 0x40 MLOAD PUSH2 0x218A SWAP6 SWAP5 SWAP4 SWAP3 SWAP2 SWAP1 PUSH2 0x3EED JUMP JUMPDEST PUSH1 0x40 MLOAD DUP1 SWAP2 SUB SWAP1 LOG2 POP POP PUSH1 0x1 ADD PUSH2 0x1EC1 JUMP JUMPDEST POP PUSH0 PUSH2 0x21A8 DUP5 DUP7 PUSH2 0x3E8C JUMP JUMPDEST GT ISZERO PUSH2 0x228C JUMPI PUSH0 CALLER PUSH2 0x21BA DUP6 DUP8 PUSH2 0x3E8C JUMP JUMPDEST PUSH1 0x40 MLOAD PUSH0 DUP2 DUP2 DUP2 DUP6 DUP8 GAS CALL SWAP3 POP POP POP RETURNDATASIZE DUP1 PUSH0 DUP2 EQ PUSH2 0x21F3 JUMPI PUSH1 0x40 MLOAD SWAP2 POP PUSH1 0x1F NOT PUSH1 0x3F RETURNDATASIZE ADD AND DUP3 ADD PUSH1 0x40 MSTORE RETURNDATASIZE DUP3 MSTORE RETURNDATASIZE PUSH0 PUSH1 0x20 DUP5 ADD RETURNDATACOPY PUSH2 0x21F8 JUMP JUMPDEST PUSH1 0x60 SWAP2 POP JUMPDEST POP POP SWAP1 POP DUP1 PUSH2 0x223F JUMPI PUSH1 0x40 MLOAD PUSH3 0x461BCD PUSH1 0xE5 SHL DUP2 MSTORE PUSH1 0x20 PUSH1 0x4 DUP3 ADD MSTORE PUSH1 0x13 PUSH1 0x24 DUP3 ADD MSTORE PUSH19 0x115512081D1C985B9CD9995C8819985A5B1959 PUSH1 0x6A SHL PUSH1 0x44 DUP3 ADD MSTORE PUSH1 0x64 ADD PUSH2 0xE9B JUMP JUMPDEST CALLER PUSH1 0x1 PUSH1 0x1 PUSH1 0xA0 SHL SUB AND PUSH32 0xBF06E98FE211A4B82F625232AB1C7A75CAEA5E0D624BC267578D6F22FCE788C3 PUSH0 DUP10 DUP10 DUP10 DUP10 TIMESTAMP PUSH1 0x40 MLOAD PUSH2 0x2282 SWAP7 SWAP6 SWAP5 SWAP4 SWAP3 SWAP2 SWAP1 PUSH2 0x3F79 JUMP JUMPDEST PUSH1 0x40 MLOAD DUP1 SWAP2 SUB SWAP1 LOG2 POP JUMPDEST PUSH0 PUSH2 0x2297 DUP3 DUP5 PUSH2 0x3E8C JUMP JUMPDEST GT ISZERO PUSH2 0x237C JUMPI PUSH20 0x833589FCD6EDB6E08F4C7C32D4F71B54BDA02913 PUSH4 0xA9059CBB CALLER PUSH2 0x22C2 DUP5 DUP7 PUSH2 0x3E8C JUMP JUMPDEST PUSH1 0x40 MLOAD PUSH1 0x1 PUSH1 0x1 PUSH1 0xE0 SHL SUB NOT PUSH1 0xE0 DUP6 SWAP1 SHL AND DUP2 MSTORE PUSH1 0x1 PUSH1 0x1 PUSH1 0xA0 SHL SUB SWAP1 SWAP3 AND PUSH1 0x4 DUP4 ADD MSTORE PUSH1 0x24 DUP3 ADD MSTORE PUSH1 0x44 ADD PUSH1 0x20 PUSH1 0x40 MLOAD DUP1 DUP4 SUB DUP2 PUSH0 DUP8 GAS CALL ISZERO DUP1 ISZERO PUSH2 0x230A JUMPI RETURNDATASIZE PUSH0 DUP1 RETURNDATACOPY RETURNDATASIZE PUSH0 REVERT JUMPDEST POP POP POP POP PUSH1 0x40 MLOAD RETURNDATASIZE PUSH1 0x1F NOT PUSH1 0x1F DUP3 ADD AND DUP3 ADD DUP1 PUSH1 0x40 MSTORE POP DUP2 ADD SWAP1 PUSH2 0x232E SWAP2 SWAP1 PUSH2 0x3ED2 JUMP JUMPDEST POP CALLER PUSH1 0x1 PUSH1 0x1 PUSH1 0xA0 SHL SUB AND PUSH32 0xBF06E98FE211A4B82F625232AB1C7A75CAEA5E0D624BC267578D6F22FCE788C3 PUSH1 0x1 DUP9 DUP9 DUP7 DUP7 TIMESTAMP PUSH1 0x40 MLOAD PUSH2 0x2373 SWAP7 SWAP6 SWAP5 SWAP4 SWAP3 SWAP2 SWAP1 PUSH2 0x3F79 JUMP JUMPDEST PUSH1 0x40 MLOAD DUP1 SWAP2 SUB SWAP1 LOG2 JUMPDEST POP POP POP POP PUSH2 0x2389 PUSH1 0x1 DUP1 SSTORE JUMP JUMPDEST POP POP JUMP JUMPDEST PUSH0 DUP1 MLOAD PUSH1 0x20 PUSH2 0x4037 DUP4 CODECOPY DUP2 MLOAD SWAP2 MSTORE PUSH2 0x23A4 DUP2 PUSH2 0x3685 JUMP JUMPDEST PUSH0 DUP3 GT PUSH2 0x23DC JUMPI PUSH1 0x40 MLOAD PUSH3 0x461BCD PUSH1 0xE5 SHL DUP2 MSTORE PUSH1 0x4 ADD PUSH2 0xE9B SWAP1 PUSH1 0x20 DUP1 DUP3 MSTORE PUSH1 0x4 SWAP1 DUP3 ADD MSTORE PUSH4 0x5A65726F PUSH1 0xE0 SHL PUSH1 0x40 DUP3 ADD MSTORE PUSH1 0x60 ADD SWAP1 JUMP JUMPDEST PUSH1 0x17 SLOAD DUP3 GT ISZERO PUSH2 0x241D JUMPI PUSH1 0x40 MLOAD PUSH3 0x461BCD PUSH1 0xE5 SHL DUP2 MSTORE PUSH1 0x20 PUSH1 0x4 DUP3 ADD MSTORE PUSH1 0xC PUSH1 0x24 DUP3 ADD MSTORE PUSH12 0x115E18D959591CC81C1BDBDB PUSH1 0xA2 SHL PUSH1 0x44 DUP3 ADD MSTORE PUSH1 0x64 ADD PUSH2 0xE9B JUMP JUMPDEST PUSH1 0x1 PUSH1 0x1 PUSH1 0xA0 SHL SUB DUP4 AND PUSH0 SWAP1 DUP2 MSTORE PUSH1 0xC PUSH1 0x20 MSTORE PUSH1 0x40 DUP2 KECCAK256 DUP1 SLOAD DUP5 SWAP3 SWAP1 PUSH2 0x2444 SWAP1 DUP5 SWAP1 PUSH2 0x3E8C JUMP JUMPDEST SWAP3 POP POP DUP2 SWAP1 SSTORE POP DUP2 PUSH1 0x17 PUSH0 DUP3 DUP3 SLOAD PUSH2 0x1E51 SWAP2 SWAP1 PUSH2 0x3F1D JUMP JUMPDEST PUSH32 0x78C90EB9E475048B483A290AEE04B5FE48355537C3623C7637B17D3BED71C6ED PUSH2 0x2486 DUP2 PUSH2 0x3685 JUMP JUMPDEST PUSH2 0x248E PUSH2 0x368F JUMP JUMPDEST PUSH1 0x7 SLOAD PUSH1 0x1 PUSH1 0x1 PUSH1 0xA0 SHL SUB AND PUSH2 0x24E6 JUMPI PUSH1 0x40 MLOAD PUSH3 0x461BCD PUSH1 0xE5 SHL DUP2 MSTORE PUSH1 0x20 PUSH1 0x4 DUP3 ADD MSTORE PUSH1 0x17 PUSH1 0x24 DUP3 ADD MSTORE PUSH32 0x5574696C6974792061646472657373206E6F7420736574000000000000000000 PUSH1 0x44 DUP3 ADD MSTORE PUSH1 0x64 ADD PUSH2 0xE9B JUMP JUMPDEST PUSH1 0x7 SLOAD PUSH1 0x40 MLOAD PUSH4 0xA9059CBB PUSH1 0xE0 SHL DUP2 MSTORE PUSH1 0x1 PUSH1 0x1 PUSH1 0xA0 SHL SUB SWAP1 SWAP2 AND PUSH1 0x4 DUP3 ADD MSTORE PUSH1 0x24 DUP2 ADD DUP4 SWAP1 MSTORE PUSH20 0x833589FCD6EDB6E08F4C7C32D4F71B54BDA02913 SWAP1 PUSH4 0xA9059CBB SWAP1 PUSH1 0x44 ADD PUSH1 0x20 PUSH1 0x40 MLOAD DUP1 DUP4 SUB DUP2 PUSH0 DUP8 GAS CALL ISZERO DUP1 ISZERO PUSH2 0x2548 JUMPI RETURNDATASIZE PUSH0 DUP1 RETURNDATACOPY RETURNDATASIZE PUSH0 REVERT JUMPDEST POP POP POP POP PUSH1 0x40 MLOAD RETURNDATASIZE PUSH1 0x1F NOT PUSH1 0x1F DUP3 ADD AND DUP3 ADD DUP1 PUSH1 0x40 MSTORE POP DUP2 ADD SWAP1 PUSH2 0x256C SWAP2 SWAP1 PUSH2 0x3ED2 JUMP JUMPDEST POP PUSH1 0x7 SLOAD PUSH1 0x40 MLOAD PUSH1 0x1 PUSH1 0x1 PUSH1 0xA0 SHL SUB SWAP1 SWAP2 AND SWAP1 PUSH32 0x9ADBDC797ACA3CE26A722598F00149B2328FD124444E6D0B10C4BDC7CFC38196 SWAP1 PUSH2 0x25B1 SWAP1 PUSH1 0x1 SWAP1 DUP7 SWAP1 TIMESTAMP SWAP1 PUSH2 0x3E9F JUMP JUMPDEST PUSH1 0x40 MLOAD DUP1 SWAP2 SUB SWAP1 LOG2 PUSH2 0x2389 PUSH1 0x1 DUP1 SSTORE JUMP JUMPDEST PUSH32 0xC806897CAF4FD5068191157E44D3988E43139A37E0B97B6793E1ED1184140604 PUSH2 0x25EC DUP2 PUSH2 0x3685 JUMP JUMPDEST PUSH0 JUMPDEST DUP3 DUP2 LT ISZERO PUSH2 0x26CB JUMPI PUSH1 0x1 PUSH1 0x1 PUSH1 0xA0 SHL SUB DUP6 AND PUSH0 SWAP1 DUP2 MSTORE PUSH1 0x8 PUSH1 0x20 MSTORE PUSH1 0x40 DUP2 KECCAK256 DUP6 DUP6 DUP5 DUP2 DUP2 LT PUSH2 0x261F JUMPI PUSH2 0x261F PUSH2 0x3EBE JUMP JUMPDEST SWAP1 POP PUSH1 0x20 MUL ADD CALLDATALOAD DUP2 SLOAD DUP2 LT PUSH2 0x2636 JUMPI PUSH2 0x2636 PUSH2 0x3EBE JUMP JUMPDEST PUSH0 SWAP2 DUP3 MSTORE PUSH1 0x20 SWAP1 SWAP2 KECCAK256 PUSH1 0x6 SWAP1 SWAP2 MUL ADD PUSH1 0x3 DUP2 ADD SLOAD SWAP1 SWAP2 POP PUSH1 0xFF AND ISZERO DUP1 ISZERO PUSH2 0x2667 JUMPI POP PUSH1 0x3 DUP2 ADD SLOAD PUSH2 0x100 SWAP1 DIV PUSH1 0xFF AND ISZERO JUMPDEST PUSH2 0x26B3 JUMPI PUSH1 0x40 MLOAD PUSH3 0x461BCD PUSH1 0xE5 SHL DUP2 MSTORE PUSH1 0x20 PUSH1 0x4 DUP3 ADD MSTORE PUSH1 0x1A PUSH1 0x24 DUP3 ADD MSTORE PUSH32 0x416C726561647920756E6C6F636B65642F77697468647261776E000000000000 PUSH1 0x44 DUP3 ADD MSTORE PUSH1 0x64 ADD PUSH2 0xE9B JUMP JUMPDEST PUSH1 0x3 ADD DUP1 SLOAD PUSH2 0xFF00 NOT AND PUSH2 0x100 OR SWAP1 SSTORE PUSH1 0x1 ADD PUSH2 0x25EE JUMP JUMPDEST POP DUP4 PUSH1 0x1 PUSH1 0x1 PUSH1 0xA0 SHL SUB AND PUSH32 0x8B655A966F162E1D3686EA25CD61682331984AB5662B451DEFF96F12D716F45B DUP5 DUP5 PUSH1 0x40 MLOAD PUSH2 0x2707 SWAP3 SWAP2 SWAP1 PUSH2 0x3FB7 JUMP JUMPDEST PUSH1 0x40 MLOAD DUP1 SWAP2 SUB SWAP1 LOG2 POP POP POP POP JUMP JUMPDEST PUSH0 DUP1 MLOAD PUSH1 0x20 PUSH2 0x4037 DUP4 CODECOPY DUP2 MLOAD SWAP2 MSTORE PUSH2 0x272C DUP2 PUSH2 0x3685 JUMP JUMPDEST PUSH1 0x1 PUSH1 0x1 PUSH1 0xA0 SHL SUB DUP3 AND PUSH2 0x2771 JUMPI PUSH1 0x40 MLOAD PUSH3 0x461BCD PUSH1 0xE5 SHL DUP2 MSTORE PUSH1 0x20 PUSH1 0x4 DUP3 ADD MSTORE PUSH1 0xC PUSH1 0x24 DUP3 ADD MSTORE PUSH12 0x5A65726F2061646472657373 PUSH1 0xA0 SHL PUSH1 0x44 DUP3 ADD MSTORE PUSH1 0x64 ADD PUSH2 0xE9B JUMP JUMPDEST PUSH1 0x7 DUP1 SLOAD PUSH1 0x1 PUSH1 0x1 PUSH1 0xA0 SHL SUB NOT AND PUSH1 0x1 PUSH1 0x1 PUSH1 0xA0 SHL SUB DUP5 AND SWAP1 DUP2 OR SWAP1 SWAP2 SSTORE PUSH1 0x40 MLOAD SWAP1 DUP2 MSTORE PUSH32 0x1D6240E71A77C9E9D07D1D6ECBB9EA4274FCC8BC19ADC5B05A3548AC7E40E189 SWAP1 PUSH1 0x20 ADD JUMPDEST PUSH1 0x40 MLOAD DUP1 SWAP2 SUB SWAP1 LOG1 POP POP JUMP JUMPDEST PUSH32 0x78C90EB9E475048B483A290AEE04B5FE48355537C3623C7637B17D3BED71C6ED PUSH2 0x27F1 DUP2 PUSH2 0x3685 JUMP JUMPDEST PUSH2 0x27F9 PUSH2 0x368F JUMP JUMPDEST PUSH1 0x7 SLOAD PUSH1 0x1 PUSH1 0x1 PUSH1 0xA0 SHL SUB AND PUSH2 0x2851 JUMPI PUSH1 0x40 MLOAD PUSH3 0x461BCD PUSH1 0xE5 SHL DUP2 MSTORE PUSH1 0x20 PUSH1 0x4 DUP3 ADD MSTORE PUSH1 0x17 PUSH1 0x24 DUP3 ADD MSTORE PUSH32 0x5574696C6974792061646472657373206E6F7420736574000000000000000000 PUSH1 0x44 DUP3 ADD MSTORE PUSH1 0x64 ADD PUSH2 0xE9B JUMP JUMPDEST SELFBALANCE DUP3 GT ISZERO PUSH2 0x28A1 JUMPI PUSH1 0x40 MLOAD PUSH3 0x461BCD PUSH1 0xE5 SHL DUP2 MSTORE PUSH1 0x20 PUSH1 0x4 DUP3 ADD MSTORE PUSH1 0x14 PUSH1 0x24 DUP3 ADD MSTORE PUSH32 0x496E73756666696369656E742062616C616E6365000000000000000000000000 PUSH1 0x44 DUP3 ADD MSTORE PUSH1 0x64 ADD PUSH2 0xE9B JUMP JUMPDEST PUSH1 0x7 SLOAD PUSH1 0x40 MLOAD PUSH0 SWAP2 PUSH1 0x1 PUSH1 0x1 PUSH1 0xA0 SHL SUB AND SWAP1 DUP5 SWAP1 DUP4 DUP2 DUP2 DUP2 DUP6 DUP8 GAS CALL SWAP3 POP POP POP RETURNDATASIZE DUP1 PUSH0 DUP2 EQ PUSH2 0x28EB JUMPI PUSH1 0x40 MLOAD SWAP2 POP PUSH1 0x1F NOT PUSH1 0x3F RETURNDATASIZE ADD AND DUP3 ADD PUSH1 0x40 MSTORE RETURNDATASIZE DUP3 MSTORE RETURNDATASIZE PUSH0 PUSH1 0x20 DUP5 ADD RETURNDATACOPY PUSH2 0x28F0 JUMP JUMPDEST PUSH1 0x60 SWAP2 POP JUMPDEST POP POP SWAP1 POP DUP1 PUSH2 0x2937 JUMPI PUSH1 0x40 MLOAD PUSH3 0x461BCD PUSH1 0xE5 SHL DUP2 MSTORE PUSH1 0x20 PUSH1 0x4 DUP3 ADD MSTORE PUSH1 0x13 PUSH1 0x24 DUP3 ADD MSTORE PUSH19 0x115512081D1C985B9CD9995C8819985A5B1959 PUSH1 0x6A SHL PUSH1 0x44 DUP3 ADD MSTORE PUSH1 0x64 ADD PUSH2 0xE9B JUMP JUMPDEST PUSH1 0x7 SLOAD PUSH1 0x40 MLOAD PUSH1 0x1 PUSH1 0x1 PUSH1 0xA0 SHL SUB SWAP1 SWAP2 AND SWAP1 PUSH32 0x9ADBDC797ACA3CE26A722598F00149B2328FD124444E6D0B10C4BDC7CFC38196 SWAP1 PUSH2 0x297A SWAP1 PUSH0 SWAP1 DUP8 SWAP1 TIMESTAMP SWAP1 PUSH2 0x3E9F JUMP JUMPDEST PUSH1 0x40 MLOAD DUP1 SWAP2 SUB SWAP1 LOG2 POP PUSH2 0x2389 PUSH1 0x1 DUP1 SSTORE JUMP JUMPDEST PUSH1 0x10 DUP2 DUP2 SLOAD DUP2 LT PUSH2 0x299B JUMPI PUSH0 DUP1 REVERT JUMPDEST PUSH0 SWAP2 DUP3 MSTORE PUSH1 0x20 SWAP1 SWAP2 KECCAK256 ADD SLOAD PUSH1 0x1 PUSH1 0x1 PUSH1 0xA0 SHL SUB AND SWAP1 POP DUP2 JUMP JUMPDEST PUSH1 0xF DUP2 DUP2 SLOAD DUP2 LT PUSH2 0x299B JUMPI PUSH0 DUP1 REVERT JUMPDEST PUSH1 0x40 MLOAD PUSH4 0x70A08231 PUSH1 0xE0 SHL DUP2 MSTORE ADDRESS PUSH1 0x4 DUP3 ADD MSTORE SELFBALANCE SWAP1 PUSH0 SWAP1 DUP2 SWAP1 DUP2 SWAP1 DUP2 SWAP1 DUP2 SWAP1 DUP2 SWAP1 DUP2 SWAP1 DUP2 SWAP1 DUP2 SWAP1 DUP2 SWAP1 DUP2 SWAP1 PUSH20 0x833589FCD6EDB6E08F4C7C32D4F71B54BDA02913 SWAP1 PUSH4 0x70A08231 SWAP1 PUSH1 0x24 ADD PUSH1 0x20 PUSH1 0x40 MLOAD DUP1 DUP4 SUB DUP2 DUP7 GAS STATICCALL ISZERO DUP1 ISZERO PUSH2 0x2A28 JUMPI RETURNDATASIZE PUSH0 DUP1 RETURNDATACOPY RETURNDATASIZE PUSH0 REVERT JUMPDEST POP POP POP POP PUSH1 0x40 MLOAD RETURNDATASIZE PUSH1 0x1F NOT PUSH1 0x1F DUP3 ADD AND DUP3 ADD DUP1 PUSH1 0x40 MSTORE POP DUP2 ADD SWAP1 PUSH2 0x2A4C SWAP2 SWAP1 PUSH2 0x3FD2 JUMP JUMPDEST SWAP11 POP PUSH1 0x12 SLOAD SWAP10 POP PUSH1 0x13 SLOAD SWAP9 POP PUSH1 0x14 SLOAD SWAP8 POP PUSH1 0x15 SLOAD SWAP7 POP PUSH1 0x16 SLOAD SWAP6 POP PUSH1 0x17 SLOAD SWAP5 POP PUSH1 0x18 SLOAD SWAP4 POP PUSH1 0x19 SLOAD SWAP3 POP PUSH1 0xF DUP1 SLOAD SWAP1 POP SWAP2 POP PUSH1 0x10 DUP1 SLOAD SWAP1 POP SWAP1 POP SWAP1 SWAP2 SWAP3 SWAP4 SWAP5 SWAP6 SWAP7 SWAP8 SWAP9 SWAP10 SWAP11 SWAP12 JUMP JUMPDEST PUSH0 DUP1 MLOAD PUSH1 0x20 PUSH2 0x4037 DUP4 CODECOPY DUP2 MLOAD SWAP2 MSTORE PUSH2 0x2AAB DUP2 PUSH2 0x3685 JUMP JUMPDEST PUSH1 0x1 PUSH1 0x1 PUSH1 0xA0 SHL SUB DUP4 AND PUSH2 0x2AF0 JUMPI PUSH1 0x40 MLOAD PUSH3 0x461BCD PUSH1 0xE5 SHL DUP2 MSTORE PUSH1 0x20 PUSH1 0x4 DUP3 ADD MSTORE PUSH1 0xC PUSH1 0x24 DUP3 ADD MSTORE PUSH12 0x5A65726F2061646472657373 PUSH1 0xA0 SHL PUSH1 0x44 DUP3 ADD MSTORE PUSH1 0x64 ADD PUSH2 0xE9B JUMP JUMPDEST PUSH1 0x40 MLOAD PUSH4 0xA9059CBB PUSH1 0xE0 SHL DUP2 MSTORE PUSH1 0x1 PUSH1 0x1 PUSH1 0xA0 SHL SUB DUP5 DUP2 AND PUSH1 0x4 DUP4 ADD MSTORE PUSH1 0x24 DUP3 ADD DUP5 SWAP1 MSTORE DUP6 AND SWAP1 PUSH4 0xA9059CBB SWAP1 PUSH1 0x44 ADD PUSH1 0x20 PUSH1 0x40 MLOAD DUP1 DUP4 SUB DUP2 PUSH0 DUP8 GAS CALL ISZERO DUP1 ISZERO PUSH2 0x2B3C JUMPI RETURNDATASIZE PUSH0 DUP1 RETURNDATACOPY RETURNDATASIZE PUSH0 REVERT JUMPDEST POP POP POP POP PUSH1 0x40 MLOAD RETURNDATASIZE PUSH1 0x1F NOT PUSH1 0x1F DUP3 ADD AND DUP3 ADD DUP1 PUSH1 0x40 MSTORE POP DUP2 ADD SWAP1 PUSH2 0x2B60 SWAP2 SWAP1 PUSH2 0x3ED2 JUMP JUMPDEST POP DUP3 PUSH1 0x1 PUSH1 0x1 PUSH1 0xA0 SHL SUB AND DUP5 PUSH1 0x1 PUSH1 0x1 PUSH1 0xA0 SHL SUB AND PUSH32 0x8BBFBB5D7FCACF6FC74005CDEDE0635561638507F576C95F7F294C22141BE2E5 DUP5 PUSH1 0x40 MLOAD PUSH2 0x2BA6 SWAP2 DUP2 MSTORE PUSH1 0x20 ADD SWAP1 JUMP JUMPDEST PUSH1 0x40 MLOAD DUP1 SWAP2 SUB SWAP1 LOG3 POP POP POP POP JUMP JUMPDEST PUSH0 DUP1 MLOAD PUSH1 0x20 PUSH2 0x4037 DUP4 CODECOPY DUP2 MLOAD SWAP2 MSTORE PUSH2 0x2BCB DUP2 PUSH2 0x3685 JUMP JUMPDEST DUP4 DUP3 EQ PUSH2 0x2C05 JUMPI PUSH1 0x40 MLOAD PUSH3 0x461BCD PUSH1 0xE5 SHL DUP2 MSTORE PUSH1 0x20 PUSH1 0x4 DUP3 ADD MSTORE PUSH1 0x8 PUSH1 0x24 DUP3 ADD MSTORE PUSH8 0x9AD2E6DAC2E8C6D PUSH1 0xC3 SHL PUSH1 0x44 DUP3 ADD MSTORE PUSH1 0x64 ADD PUSH2 0xE9B JUMP JUMPDEST PUSH0 DUP1 JUMPDEST DUP6 DUP2 LT ISZERO PUSH2 0x2D04 JUMPI PUSH0 DUP6 DUP6 DUP4 DUP2 DUP2 LT PUSH2 0x2C23 JUMPI PUSH2 0x2C23 PUSH2 0x3EBE JUMP JUMPDEST SWAP1 POP PUSH1 0x20 MUL ADD CALLDATALOAD GT PUSH2 0x2C60 JUMPI PUSH1 0x40 MLOAD PUSH3 0x461BCD PUSH1 0xE5 SHL DUP2 MSTORE PUSH1 0x4 ADD PUSH2 0xE9B SWAP1 PUSH1 0x20 DUP1 DUP3 MSTORE PUSH1 0x4 SWAP1 DUP3 ADD MSTORE PUSH4 0x5A65726F PUSH1 0xE0 SHL PUSH1 0x40 DUP3 ADD MSTORE PUSH1 0x60 ADD SWAP1 JUMP JUMPDEST DUP5 DUP5 DUP3 DUP2 DUP2 LT PUSH2 0x2C72 JUMPI PUSH2 0x2C72 PUSH2 0x3EBE JUMP JUMPDEST SWAP1 POP PUSH1 0x20 MUL ADD CALLDATALOAD PUSH1 0xB PUSH0 DUP10 DUP10 DUP6 DUP2 DUP2 LT PUSH2 0x2C8E JUMPI PUSH2 0x2C8E PUSH2 0x3EBE JUMP JUMPDEST SWAP1 POP PUSH1 0x20 MUL ADD PUSH1 0x20 DUP2 ADD SWAP1 PUSH2 0x2CA3 SWAP2 SWAP1 PUSH2 0x3ABF JUMP JUMPDEST PUSH1 0x1 PUSH1 0x1 PUSH1 0xA0 SHL SUB AND PUSH1 0x1 PUSH1 0x1 PUSH1 0xA0 SHL SUB AND DUP2 MSTORE PUSH1 0x20 ADD SWAP1 DUP2 MSTORE PUSH1 0x20 ADD PUSH0 KECCAK256 PUSH0 DUP3 DUP3 SLOAD PUSH2 0x2CD0 SWAP2 SWAP1 PUSH2 0x3E8C JUMP JUMPDEST SWAP1 SWAP2 SSTORE POP DUP6 SWAP1 POP DUP5 DUP3 DUP2 DUP2 LT PUSH2 0x2CE8 JUMPI PUSH2 0x2CE8 PUSH2 0x3EBE JUMP JUMPDEST SWAP1 POP PUSH1 0x20 MUL ADD CALLDATALOAD DUP3 PUSH2 0x2CFA SWAP2 SWAP1 PUSH2 0x3E8C JUMP JUMPDEST SWAP2 POP PUSH1 0x1 ADD PUSH2 0x2C08 JUMP JUMPDEST POP PUSH1 0x16 SLOAD DUP2 GT ISZERO PUSH2 0x2D46 JUMPI PUSH1 0x40 MLOAD PUSH3 0x461BCD PUSH1 0xE5 SHL DUP2 MSTORE PUSH1 0x20 PUSH1 0x4 DUP3 ADD MSTORE PUSH1 0xC PUSH1 0x24 DUP3 ADD MSTORE PUSH12 0x115E18D959591CC81C1BDBDB PUSH1 0xA2 SHL PUSH1 0x44 DUP3 ADD MSTORE PUSH1 0x64 ADD PUSH2 0xE9B JUMP JUMPDEST DUP1 PUSH1 0x16 PUSH0 DUP3 DUP3 SLOAD PUSH2 0x1659 SWAP2 SWAP1 PUSH2 0x3F1D JUMP JUMPDEST PUSH2 0x2D5F PUSH2 0x368F JUMP JUMPDEST CALLER PUSH0 SWAP1 DUP2 MSTORE PUSH1 0xC PUSH1 0x20 MSTORE PUSH1 0x40 SWAP1 KECCAK256 SLOAD DUP1 PUSH2 0x2DA8 JUMPI PUSH1 0x40 MLOAD PUSH3 0x461BCD PUSH1 0xE5 SHL DUP2 MSTORE PUSH1 0x20 PUSH1 0x4 DUP3 ADD MSTORE PUSH1 0xA PUSH1 0x24 DUP3 ADD MSTORE PUSH10 0x4E6F207574696C697479 PUSH1 0xB0 SHL PUSH1 0x44 DUP3 ADD MSTORE PUSH1 0x64 ADD PUSH2 0xE9B JUMP JUMPDEST CALLER PUSH0 DUP2 DUP2 MSTORE PUSH1 0xC PUSH1 0x20 MSTORE PUSH1 0x40 DUP2 KECCAK256 SSTORE PUSH2 0x2DC4 SWAP1 PUSH1 0x1 DUP4 DUP2 PUSH2 0x36B9 JUMP JUMPDEST DUP1 PUSH1 0x19 PUSH0 DUP3 DUP3 SLOAD PUSH2 0x2DD5 SWAP2 SWAP1 PUSH2 0x3E8C JUMP JUMPDEST SWAP1 SWAP2 SSTORE POP POP CALLER PUSH0 SWAP1 DUP2 MSTORE PUSH1 0xE PUSH1 0x20 MSTORE PUSH1 0x40 DUP2 KECCAK256 DUP1 SLOAD DUP4 SWAP3 SWAP1 PUSH2 0x2DF8 SWAP1 DUP5 SWAP1 PUSH2 0x3E8C JUMP JUMPDEST SWAP1 SWAP2 SSTORE POP POP PUSH1 0x40 MLOAD CALLER SWAP1 PUSH32 0x997D2EC09B086DE73D509BBC4AD2B52FD7E2338024464BEDE93A41ABD6CCDC38 SWAP1 PUSH2 0xF31 SWAP1 PUSH1 0x1 SWAP1 DUP6 SWAP1 TIMESTAMP SWAP1 PUSH2 0x3E9F JUMP JUMPDEST PUSH0 DUP1 MLOAD PUSH1 0x20 PUSH2 0x4037 DUP4 CODECOPY DUP2 MLOAD SWAP2 MSTORE PUSH2 0x2E4B DUP2 PUSH2 0x3685 JUMP JUMPDEST PUSH1 0x2 DUP3 SWAP1 SSTORE PUSH1 0x40 MLOAD DUP3 DUP2 MSTORE PUSH32 0xC5E00A325524BC148DDC05BB642B804E9AE1DFC670C217ED3C4C6595F7427EF4 SWAP1 PUSH1 0x20 ADD PUSH2 0x27BB JUMP JUMPDEST PUSH0 DUP3 DUP2 MSTORE PUSH1 0x20 DUP2 SWAP1 MSTORE PUSH1 0x40 SWAP1 KECCAK256 PUSH1 0x1 ADD SLOAD PUSH2 0x2E9A DUP2 PUSH2 0x3685 JUMP JUMPDEST PUSH2 0x1478 DUP4 DUP4 PUSH2 0x39A3 JUMP JUMPDEST PUSH32 0xF60566C40710959D8D30B6067CE3C53C757BEC78EECB0E46B83C7F8194FFAE37 PUSH2 0x2ECE DUP2 PUSH2 0x3685 JUMP JUMPDEST PUSH0 DUP3 GT PUSH2 0x2F0C JUMPI PUSH1 0x40 MLOAD PUSH3 0x461BCD PUSH1 0xE5 SHL DUP2 MSTORE PUSH1 0x20 PUSH1 0x4 DUP3 ADD MSTORE PUSH1 0xC PUSH1 0x24 DUP3 ADD MSTORE PUSH12 0x139BC81554D110C81CD95B9D PUSH1 0xA2 SHL PUSH1 0x44 DUP3 ADD MSTORE PUSH1 0x64 ADD PUSH2 0xE9B JUMP JUMPDEST PUSH1 0x40 MLOAD PUSH4 0x23B872DD PUSH1 0xE0 SHL DUP2 MSTORE CALLER PUSH1 0x4 DUP3 ADD MSTORE ADDRESS PUSH1 0x24 DUP3 ADD MSTORE PUSH1 0x44 DUP2 ADD DUP4 SWAP1 MSTORE PUSH20 0x833589FCD6EDB6E08F4C7C32D4F71B54BDA02913 SWAP1 PUSH4 0x23B872DD SWAP1 PUSH1 0x64 ADD PUSH1 0x20 PUSH1 0x40 MLOAD DUP1 DUP4 SUB DUP2 PUSH0 DUP8 GAS CALL ISZERO DUP1 ISZERO PUSH2 0x2F67 JUMPI RETURNDATASIZE PUSH0 DUP1 RETURNDATACOPY RETURNDATASIZE PUSH0 REVERT JUMPDEST POP POP POP POP PUSH1 0x40 MLOAD RETURNDATASIZE PUSH1 0x1F NOT PUSH1 0x1F DUP3 ADD AND DUP3 ADD DUP1 PUSH1 0x40 MSTORE POP DUP2 ADD SWAP1 PUSH2 0x2F8B SWAP2 SWAP1 PUSH2 0x3ED2 JUMP JUMPDEST POP DUP2 PUSH1 0x17 PUSH0 DUP3 DUP3 SLOAD PUSH2 0x2F9D SWAP2 SWAP1 PUSH2 0x3E8C JUMP JUMPDEST SWAP1 SWAP2 SSTORE POP POP PUSH1 0x40 MLOAD CALLER SWAP1 PUSH32 0x8BAFEC96FCFFB6F12596B4635C76397B7BC1F363B22C49C13136B63677323DCC SWAP1 PUSH2 0x2FD9 SWAP1 PUSH1 0x1 SWAP1 DUP7 SWAP1 TIMESTAMP SWAP1 PUSH2 0x3E9F JUMP JUMPDEST PUSH1 0x40 MLOAD DUP1 SWAP2 SUB SWAP1 LOG2 POP POP JUMP JUMPDEST PUSH0 DUP1 MLOAD PUSH1 0x20 PUSH2 0x4037 DUP4 CODECOPY DUP2 MLOAD SWAP2 MSTORE PUSH2 0x2FFC DUP2 PUSH2 0x3685 JUMP JUMPDEST PUSH1 0x5 SLOAD PUSH4 0x1000000 SWAP1 DIV PUSH1 0xFF AND ISZERO PUSH2 0x3056 JUMPI PUSH1 0x40 MLOAD PUSH3 0x461BCD PUSH1 0xE5 SHL DUP2 MSTORE PUSH1 0x20 PUSH1 0x4 DUP3 ADD MSTORE PUSH1 0xF PUSH1 0x24 DUP3 ADD MSTORE PUSH32 0x416C726561647920656E61626C65640000000000000000000000000000000000 PUSH1 0x44 DUP3 ADD MSTORE PUSH1 0x64 ADD PUSH2 0xE9B JUMP JUMPDEST PUSH1 0x5 DUP1 SLOAD PUSH4 0xFF000000 NOT AND PUSH4 0x1000000 OR SWAP1 SSTORE TIMESTAMP PUSH1 0x6 SSTORE PUSH0 JUMPDEST PUSH1 0xF SLOAD DUP2 LT ISZERO PUSH2 0x3138 JUMPI PUSH0 PUSH1 0x8 PUSH0 PUSH1 0xF DUP5 DUP2 SLOAD DUP2 LT PUSH2 0x3090 JUMPI PUSH2 0x3090 PUSH2 0x3EBE JUMP JUMPDEST PUSH0 SWAP2 DUP3 MSTORE PUSH1 0x20 DUP1 DUP4 KECCAK256 SWAP1 SWAP2 ADD SLOAD PUSH1 0x1 PUSH1 0x1 PUSH1 0xA0 SHL SUB AND DUP4 MSTORE DUP3 ADD SWAP3 SWAP1 SWAP3 MSTORE PUSH1 0x40 ADD DUP2 KECCAK256 SWAP2 POP JUMPDEST DUP2 SLOAD DUP2 LT ISZERO PUSH2 0x312E JUMPI DUP2 DUP2 DUP2 SLOAD DUP2 LT PUSH2 0x30D1 JUMPI PUSH2 0x30D1 PUSH2 0x3EBE JUMP JUMPDEST PUSH0 SWAP2 DUP3 MSTORE PUSH1 0x20 SWAP1 SWAP2 KECCAK256 PUSH1 0x3 PUSH1 0x6 SWAP1 SWAP3 MUL ADD ADD SLOAD PUSH1 0xFF AND PUSH2 0x3126 JUMPI PUSH1 0x1 DUP3 DUP3 DUP2 SLOAD DUP2 LT PUSH2 0x30FF JUMPI PUSH2 0x30FF PUSH2 0x3EBE JUMP JUMPDEST SWAP1 PUSH0 MSTORE PUSH1 0x20 PUSH0 KECCAK256 SWAP1 PUSH1 0x6 MUL ADD PUSH1 0x3 ADD PUSH1 0x2 PUSH2 0x100 EXP DUP2 SLOAD DUP2 PUSH1 0xFF MUL NOT AND SWAP1 DUP4 ISZERO ISZERO MUL OR SWAP1 SSTORE POP JUMPDEST PUSH1 0x1 ADD PUSH2 0x30B6 JUMP JUMPDEST POP POP PUSH1 0x1 ADD PUSH2 0x306F JUMP JUMPDEST POP PUSH1 0x40 MLOAD TIMESTAMP DUP2 MSTORE PUSH32 0x2388CEAED48D21BD0802856DF41A22705F9046A67A817A047352AA3BBFE5C5D1 SWAP1 PUSH1 0x20 ADD PUSH1 0x40 MLOAD DUP1 SWAP2 SUB SWAP1 LOG1 POP JUMP JUMPDEST PUSH1 0x11 DUP2 DUP2 SLOAD DUP2 LT PUSH2 0x299B JUMPI PUSH0 DUP1 REVERT JUMPDEST PUSH2 0x3186 PUSH2 0x368F JUMP JUMPDEST CALLER PUSH0 SWAP1 DUP2 MSTORE PUSH1 0xB PUSH1 0x20 MSTORE PUSH1 0x40 SWAP1 KECCAK256 SLOAD DUP1 PUSH2 0x31CF JUMPI PUSH1 0x40 MLOAD PUSH3 0x461BCD PUSH1 0xE5 SHL DUP2 MSTORE PUSH1 0x20 PUSH1 0x4 DUP3 ADD MSTORE PUSH1 0xA PUSH1 0x24 DUP3 ADD MSTORE PUSH10 0x4E6F207574696C697479 PUSH1 0xB0 SHL PUSH1 0x44 DUP3 ADD MSTORE PUSH1 0x64 ADD PUSH2 0xE9B JUMP JUMPDEST CALLER PUSH0 DUP2 DUP2 MSTORE PUSH1 0xB PUSH1 0x20 MSTORE PUSH1 0x40 DUP1 DUP3 KECCAK256 DUP3 SWAP1 SSTORE MLOAD SWAP1 SWAP2 SWAP1 DUP4 SWAP1 DUP4 DUP2 DUP2 DUP2 DUP6 DUP8 GAS CALL SWAP3 POP POP POP RETURNDATASIZE DUP1 PUSH0 DUP2 EQ PUSH2 0x321D JUMPI PUSH1 0x40 MLOAD SWAP2 POP PUSH1 0x1F NOT PUSH1 0x3F RETURNDATASIZE ADD AND DUP3 ADD PUSH1 0x40 MSTORE RETURNDATASIZE DUP3 MSTORE RETURNDATASIZE PUSH0 PUSH1 0x20 DUP5 ADD RETURNDATACOPY PUSH2 0x3222 JUMP JUMPDEST PUSH1 0x60 SWAP2 POP JUMPDEST POP POP SWAP1 POP DUP1 PUSH2 0x3269 JUMPI PUSH1 0x40 MLOAD PUSH3 0x461BCD PUSH1 0xE5 SHL DUP2 MSTORE PUSH1 0x20 PUSH1 0x4 DUP3 ADD MSTORE PUSH1 0x13 PUSH1 0x24 DUP3 ADD MSTORE PUSH19 0x115512081D1C985B9CD9995C8819985A5B1959 PUSH1 0x6A SHL PUSH1 0x44 DUP3 ADD MSTORE PUSH1 0x64 ADD PUSH2 0xE9B JUMP JUMPDEST CALLER PUSH1 0x1 PUSH1 0x1 PUSH1 0xA0 SHL SUB AND PUSH32 0x6914793C7A82461ACEC66C7DE7FDBBBF1F825C26BC2FE939B61F0E4F8964C2B5 PUSH0 DUP5 TIMESTAMP PUSH1 0x40 MLOAD PUSH2 0x32A6 SWAP4 SWAP3 SWAP2 SWAP1 PUSH2 0x3E9F JUMP JUMPDEST PUSH1 0x40 MLOAD DUP1 SWAP2 SUB SWAP1 LOG2 POP POP PUSH2 0xF43 PUSH1 0x1 DUP1 SSTORE JUMP JUMPDEST PUSH0 DUP1 MLOAD PUSH1 0x20 PUSH2 0x4037 DUP4 CODECOPY DUP2 MLOAD SWAP2 MSTORE PUSH2 0x32D0 DUP2 PUSH2 0x3685 JUMP JUMPDEST PUSH0 DUP4 PUSH1 0x1 DUP2 GT ISZERO PUSH2 0x32E3 JUMPI PUSH2 0x32E3 PUSH2 0x3B28 JUMP JUMPDEST SUB PUSH2 0x32F2 JUMPI PUSH1 0x3 DUP3 SWAP1 SSTORE PUSH2 0x3311 JUMP JUMPDEST PUSH1 0x1 DUP4 PUSH1 0x1 DUP2 GT ISZERO PUSH2 0x3306 JUMPI PUSH2 0x3306 PUSH2 0x3B28 JUMP JUMPDEST SUB PUSH2 0x3311 JUMPI PUSH1 0x4 DUP3 SWAP1 SSTORE JUMPDEST PUSH32 0x5D7976BCCD4B396C1A1A0020032E62BF8A381BCFFC61E69A13EA61761B757218 DUP4 DUP4 PUSH1 0x40 MLOAD PUSH2 0x1C59 SWAP3 SWAP2 SWAP1 PUSH2 0x3FE9 JUMP JUMPDEST PUSH2 0x334A PUSH2 0x368F JUMP JUMPDEST PUSH1 0x5 SLOAD PUSH1 0xFF AND ISZERO PUSH2 0x338F JUMPI PUSH1 0x40 MLOAD PUSH3 0x461BCD PUSH1 0xE5 SHL DUP2 MSTORE PUSH1 0x20 PUSH1 0x4 DUP3 ADD MSTORE PUSH1 0xF PUSH1 0x24 DUP3 ADD MSTORE PUSH15 0x11195C1BDCDA5D1CC81C185D5CD959 PUSH1 0x8A SHL PUSH1 0x44 DUP3 ADD MSTORE PUSH1 0x64 ADD PUSH2 0xE9B JUMP JUMPDEST PUSH0 CALLVALUE GT PUSH2 0x33CC JUMPI PUSH1 0x40 MLOAD PUSH3 0x461BCD PUSH1 0xE5 SHL DUP2 MSTORE PUSH1 0x20 PUSH1 0x4 DUP3 ADD MSTORE PUSH1 0xB PUSH1 0x24 DUP3 ADD MSTORE PUSH11 0x139BC8115512081CD95B9D PUSH1 0xAA SHL PUSH1 0x44 DUP3 ADD MSTORE PUSH1 0x64 ADD PUSH2 0xE9B JUMP JUMPDEST PUSH1 0x3 SLOAD CALLVALUE PUSH1 0x12 SLOAD PUSH2 0x33DD SWAP2 SWAP1 PUSH2 0x3E8C JUMP JUMPDEST GT ISZERO PUSH2 0x3419 JUMPI PUSH1 0x40 MLOAD PUSH3 0x461BCD PUSH1 0xE5 SHL DUP2 MSTORE PUSH1 0x20 PUSH1 0x4 DUP3 ADD MSTORE PUSH1 0xB PUSH1 0x24 DUP3 ADD MSTORE PUSH11 0x10D85C081C995858DA1959 PUSH1 0xAA SHL PUSH1 0x44 DUP3 ADD MSTORE PUSH1 0x64 ADD PUSH2 0xE9B JUMP JUMPDEST PUSH1 0x5 SLOAD PUSH3 0x10000 SWAP1 DIV PUSH1 0xFF AND ISZERO PUSH2 0x347A JUMPI CALLER PUSH0 SWAP1 DUP2 MSTORE PUSH1 0x9 PUSH1 0x20 MSTORE PUSH1 0x40 SWAP1 KECCAK256 SLOAD PUSH1 0xFF AND PUSH2 0x347A JUMPI PUSH1 0x40 MLOAD PUSH3 0x461BCD PUSH1 0xE5 SHL DUP2 MSTORE PUSH1 0x20 PUSH1 0x4 DUP3 ADD MSTORE PUSH1 0xF PUSH1 0x24 DUP3 ADD MSTORE PUSH15 0x139BDD081DDA1A5D195B1A5CDD1959 PUSH1 0x8A SHL PUSH1 0x44 DUP3 ADD MSTORE PUSH1 0x64 ADD PUSH2 0xE9B JUMP JUMPDEST PUSH2 0x3486 CALLER PUSH0 CALLVALUE PUSH0 PUSH2 0x36B9 JUMP JUMPDEST CALLVALUE PUSH1 0x12 PUSH0 DUP3 DUP3 SLOAD PUSH2 0x3497 SWAP2 SWAP1 PUSH2 0x3E8C JUMP JUMPDEST SWAP1 SWAP2 SSTORE POP POP PUSH1 0x1 DUP1 SSTORE JUMP JUMPDEST PUSH2 0x34AA PUSH2 0x368F JUMP JUMPDEST PUSH1 0x5 SLOAD PUSH1 0xFF AND ISZERO PUSH2 0x34EF JUMPI PUSH1 0x40 MLOAD PUSH3 0x461BCD PUSH1 0xE5 SHL DUP2 MSTORE PUSH1 0x20 PUSH1 0x4 DUP3 ADD MSTORE PUSH1 0xF PUSH1 0x24 DUP3 ADD MSTORE PUSH15 0x11195C1BDCDA5D1CC81C185D5CD959 PUSH1 0x8A SHL PUSH1 0x44 DUP3 ADD MSTORE PUSH1 0x64 ADD PUSH2 0xE9B JUMP JUMPDEST PUSH0 DUP2 GT PUSH2 0x352D JUMPI PUSH1 0x40 MLOAD PUSH3 0x461BCD PUSH1 0xE5 SHL DUP2 MSTORE PUSH1 0x20 PUSH1 0x4 DUP3 ADD MSTORE PUSH1 0xC PUSH1 0x24 DUP3 ADD MSTORE PUSH12 0x139BC81554D110C81CD95B9D PUSH1 0xA2 SHL PUSH1 0x44 DUP3 ADD MSTORE PUSH1 0x64 ADD PUSH2 0xE9B JUMP JUMPDEST PUSH1 0x4 SLOAD DUP2 PUSH1 0x13 SLOAD PUSH2 0x353E SWAP2 SWAP1 PUSH2 0x3E8C JUMP JUMPDEST GT ISZERO PUSH2 0x357A JUMPI PUSH1 0x40 MLOAD PUSH3 0x461BCD PUSH1 0xE5 SHL DUP2 MSTORE PUSH1 0x20 PUSH1 0x4 DUP3 ADD MSTORE PUSH1 0xB PUSH1 0x24 DUP3 ADD MSTORE PUSH11 0x10D85C081C995858DA1959 PUSH1 0xAA SHL PUSH1 0x44 DUP3 ADD MSTORE PUSH1 0x64 ADD PUSH2 0xE9B JUMP JUMPDEST PUSH1 0x5 SLOAD PUSH3 0x10000 SWAP1 DIV PUSH1 0xFF AND ISZERO PUSH2 0x35DB JUMPI CALLER PUSH0 SWAP1 DUP2 MSTORE PUSH1 0x9 PUSH1 0x20 MSTORE PUSH1 0x40 SWAP1 KECCAK256 SLOAD PUSH1 0xFF AND PUSH2 0x35DB JUMPI PUSH1 0x40 MLOAD PUSH3 0x461BCD PUSH1 0xE5 SHL DUP2 MSTORE PUSH1 0x20 PUSH1 0x4 DUP3 ADD MSTORE PUSH1 0xF PUSH1 0x24 DUP3 ADD MSTORE PUSH15 0x139BDD081DDA1A5D195B1A5CDD1959 PUSH1 0x8A SHL PUSH1 0x44 DUP3 ADD MSTORE PUSH1 0x64 ADD PUSH2 0xE9B JUMP JUMPDEST PUSH1 0x40 MLOAD PUSH4 0x23B872DD PUSH1 0xE0 SHL DUP2 MSTORE CALLER PUSH1 0x4 DUP3 ADD MSTORE ADDRESS PUSH1 0x24 DUP3 ADD MSTORE PUSH1 0x44 DUP2 ADD DUP3 SWAP1 MSTORE PUSH20 0x833589FCD6EDB6E08F4C7C32D4F71B54BDA02913 SWAP1 PUSH4 0x23B872DD SWAP1 PUSH1 0x64 ADD PUSH1 0x20 PUSH1 0x40 MLOAD DUP1 DUP4 SUB DUP2 PUSH0 DUP8 GAS CALL ISZERO DUP1 ISZERO PUSH2 0x3636 JUMPI RETURNDATASIZE PUSH0 DUP1 RETURNDATACOPY RETURNDATASIZE PUSH0 REVERT JUMPDEST POP POP POP POP PUSH1 0x40 MLOAD RETURNDATASIZE PUSH1 0x1F NOT PUSH1 0x1F DUP3 ADD AND DUP3 ADD DUP1 PUSH1 0x40 MSTORE POP DUP2 ADD SWAP1 PUSH2 0x365A SWAP2 SWAP1 PUSH2 0x3ED2 JUMP JUMPDEST POP PUSH2 0x3668 CALLER PUSH1 0x1 DUP4 PUSH0 PUSH2 0x36B9 JUMP JUMPDEST DUP1 PUSH1 0x13 PUSH0 DUP3 DUP3 SLOAD PUSH2 0x3679 SWAP2 SWAP1 PUSH2 0x3E8C JUMP JUMPDEST SWAP1 SWAP2 SSTORE POP POP PUSH1 0x1 DUP1 SSTORE POP JUMP JUMPDEST PUSH2 0x1451 DUP2 CALLER PUSH2 0x3A24 JUMP JUMPDEST PUSH1 0x2 PUSH1 0x1 SLOAD SUB PUSH2 0x36B2 JUMPI PUSH1 0x40 MLOAD PUSH4 0x3EE5AEB5 PUSH1 0xE0 SHL DUP2 MSTORE PUSH1 0x4 ADD PUSH1 0x40 MLOAD DUP1 SWAP2 SUB SWAP1 REVERT JUMPDEST PUSH1 0x2 PUSH1 0x1 SSTORE JUMP JUMPDEST PUSH1 0x1 PUSH1 0x1 PUSH1 0xA0 SHL SUB DUP5 AND PUSH0 SWAP1 DUP2 MSTORE PUSH1 0x8 PUSH1 0x20 MSTORE PUSH1 0x40 SWAP1 DUP2 SWAP1 KECCAK256 DUP2 MLOAD PUSH2 0x120 DUP2 ADD SWAP1 SWAP3 MSTORE SWAP1 DUP1 DUP6 PUSH1 0x1 DUP2 GT ISZERO PUSH2 0x36F0 JUMPI PUSH2 0x36F0 PUSH2 0x3B28 JUMP JUMPDEST DUP2 MSTORE PUSH1 0x20 DUP1 DUP3 ADD DUP7 SWAP1 MSTORE TIMESTAMP PUSH1 0x40 DUP4 ADD MSTORE PUSH0 PUSH1 0x60 DUP4 ADD DUP2 SWAP1 MSTORE PUSH1 0x80 DUP4 ADD DUP2 SWAP1 MSTORE PUSH1 0xA0 DUP4 ADD DUP2 SWAP1 MSTORE DUP6 ISZERO ISZERO PUSH1 0xC0 DUP5 ADD MSTORE PUSH1 0xE0 DUP4 ADD DUP2 SWAP1 MSTORE PUSH2 0x100 SWAP1 SWAP3 ADD DUP3 SWAP1 MSTORE DUP4 SLOAD PUSH1 0x1 DUP2 DUP2 ADD DUP7 SSTORE SWAP5 DUP4 MSTORE SWAP2 KECCAK256 DUP3 MLOAD PUSH1 0x6 SWAP1 SWAP3 MUL ADD DUP1 SLOAD SWAP3 SWAP4 SWAP1 SWAP3 DUP4 SWAP2 PUSH1 0xFF NOT SWAP2 SWAP1 SWAP2 AND SWAP1 DUP4 DUP2 DUP2 GT ISZERO PUSH2 0x3765 JUMPI PUSH2 0x3765 PUSH2 0x3B28 JUMP JUMPDEST MUL OR SWAP1 SSTORE POP PUSH1 0x20 DUP3 DUP2 ADD MLOAD PUSH1 0x1 DUP4 DUP2 ADD SWAP2 SWAP1 SWAP2 SSTORE PUSH1 0x40 DUP1 DUP6 ADD MLOAD PUSH1 0x2 DUP6 ADD SSTORE PUSH1 0x60 DUP6 ADD MLOAD PUSH1 0x3 DUP6 ADD DUP1 SLOAD PUSH1 0x80 DUP9 ADD MLOAD PUSH1 0xA0 DUP10 ADD MLOAD PUSH1 0xC0 DUP11 ADD MLOAD PUSH2 0xFFFF NOT SWAP1 SWAP4 AND SWAP5 ISZERO ISZERO PUSH2 0xFF00 NOT AND SWAP5 SWAP1 SWAP5 OR PUSH2 0x100 SWAP2 ISZERO ISZERO DUP3 MUL OR PUSH4 0xFFFF0000 NOT AND PUSH3 0x10000 SWAP5 ISZERO ISZERO SWAP5 SWAP1 SWAP5 MUL PUSH4 0xFF000000 NOT AND SWAP4 SWAP1 SWAP4 OR PUSH4 0x1000000 SWAP2 ISZERO ISZERO SWAP2 SWAP1 SWAP2 MUL OR SWAP1 SSTORE PUSH1 0xE0 DUP7 ADD MLOAD PUSH1 0x4 DUP7 ADD SSTORE SWAP1 SWAP5 ADD MLOAD PUSH1 0x5 SWAP1 SWAP4 ADD SWAP3 SWAP1 SWAP3 SSTORE PUSH1 0x1 PUSH1 0x1 PUSH1 0xA0 SHL SUB DUP8 AND PUSH0 SWAP1 DUP2 MSTORE PUSH1 0x8 SWAP1 SWAP2 MSTORE SWAP2 SWAP1 SWAP2 KECCAK256 SLOAD SWAP1 SUB PUSH2 0x389E JUMPI PUSH1 0xF DUP1 SLOAD PUSH1 0x1 DUP2 DUP2 ADD SWAP1 SWAP3 SSTORE PUSH32 0x8D1108E10BCB7C27DDDFC02ED9D693A074039D026CF4EA4240B40F7D581AC802 ADD DUP1 SLOAD PUSH1 0x1 PUSH1 0x1 PUSH1 0xA0 SHL SUB DUP8 AND PUSH1 0x1 PUSH1 0x1 PUSH1 0xA0 SHL SUB NOT SWAP2 DUP3 AND DUP2 OR SWAP1 SWAP3 SSTORE PUSH1 0x11 DUP1 SLOAD SWAP4 DUP5 ADD DUP2 SSTORE PUSH0 MSTORE PUSH32 0x31ECC21A745E3968A04E9570E4425BC18FA8019C68028196B546D1669C200C68 SWAP1 SWAP3 ADD DUP1 SLOAD SWAP1 SWAP3 AND OR SWAP1 SSTORE JUMPDEST PUSH1 0x1 PUSH1 0x1 PUSH1 0xA0 SHL SUB DUP5 AND PUSH0 DUP2 DUP2 MSTORE PUSH1 0x8 PUSH1 0x20 MSTORE PUSH1 0x40 SWAP1 KECCAK256 SLOAD PUSH32 0x48916AC7F9777648255AB8645729FF3B5D20AA412A40FE81DAC2433522EAA058 SWAP1 DUP6 SWAP1 DUP6 SWAP1 TIMESTAMP SWAP1 PUSH2 0x38EA SWAP1 PUSH1 0x1 SWAP1 PUSH2 0x3F1D JUMP JUMPDEST DUP7 PUSH1 0x40 MLOAD PUSH2 0x2707 SWAP6 SWAP5 SWAP4 SWAP3 SWAP2 SWAP1 PUSH2 0x4004 JUMP JUMPDEST PUSH0 DUP3 DUP2 MSTORE PUSH1 0x20 DUP2 DUP2 MSTORE PUSH1 0x40 DUP1 DUP4 KECCAK256 PUSH1 0x1 PUSH1 0x1 PUSH1 0xA0 SHL SUB DUP6 AND DUP5 MSTORE SWAP1 SWAP2 MSTORE DUP2 KECCAK256 SLOAD PUSH1 0xFF AND PUSH2 0x399C JUMPI PUSH0 DUP4 DUP2 MSTORE PUSH1 0x20 DUP2 DUP2 MSTORE PUSH1 0x40 DUP1 DUP4 KECCAK256 PUSH1 0x1 PUSH1 0x1 PUSH1 0xA0 SHL SUB DUP7 AND DUP5 MSTORE SWAP1 SWAP2 MSTORE SWAP1 KECCAK256 DUP1 SLOAD PUSH1 0xFF NOT AND PUSH1 0x1 OR SWAP1 SSTORE PUSH2 0x3954 CALLER SWAP1 JUMP JUMPDEST PUSH1 0x1 PUSH1 0x1 PUSH1 0xA0 SHL SUB AND DUP3 PUSH1 0x1 PUSH1 0x1 PUSH1 0xA0 SHL SUB AND DUP5 PUSH32 0x2F8788117E7EFF1D82E926EC794901D17C78024A50270940304540A733656F0D PUSH1 0x40 MLOAD PUSH1 0x40 MLOAD DUP1 SWAP2 SUB SWAP1 LOG4 POP PUSH1 0x1 PUSH2 0xDA0 JUMP JUMPDEST POP PUSH0 PUSH2 0xDA0 JUMP JUMPDEST PUSH0 DUP3 DUP2 MSTORE PUSH1 0x20 DUP2 DUP2 MSTORE PUSH1 0x40 DUP1 DUP4 KECCAK256 PUSH1 0x1 PUSH1 0x1 PUSH1 0xA0 SHL SUB DUP6 AND DUP5 MSTORE SWAP1 SWAP2 MSTORE DUP2 KECCAK256 SLOAD PUSH1 0xFF AND ISZERO PUSH2 0x399C JUMPI PUSH0 DUP4 DUP2 MSTORE PUSH1 0x20 DUP2 DUP2 MSTORE PUSH1 0x40 DUP1 DUP4 KECCAK256 PUSH1 0x1 PUSH1 0x1 PUSH1 0xA0 SHL SUB DUP7 AND DUP1 DUP6 MSTORE SWAP3 MSTORE DUP1 DUP4 KECCAK256 DUP1 SLOAD PUSH1 0xFF NOT AND SWAP1 SSTORE MLOAD CALLER SWAP3 DUP7 SWAP2 PUSH32 0xF6391F5C32D9C69D2A47EA670B442974B53935D1EDC7FD64EB21E047A839171B SWAP2 SWAP1 LOG4 POP PUSH1 0x1 PUSH2 0xDA0 JUMP JUMPDEST PUSH0 DUP3 DUP2 MSTORE PUSH1 0x20 DUP2 DUP2 MSTORE PUSH1 0x40 DUP1 DUP4 KECCAK256 PUSH1 0x1 PUSH1 0x1 PUSH1 0xA0 SHL SUB DUP6 AND DUP5 MSTORE SWAP1 SWAP2 MSTORE SWAP1 KECCAK256 SLOAD PUSH1 0xFF AND PUSH2 0x2389 JUMPI PUSH1 0x40 MLOAD PUSH4 0xE2517D3F PUSH1 0xE0 SHL DUP2 MSTORE PUSH1 0x1 PUSH1 0x1 PUSH1 0xA0 SHL SUB DUP3 AND PUSH1 0x4 DUP3 ADD MSTORE PUSH1 0x24 DUP2 ADD DUP4 SWAP1 MSTORE PUSH1 0x44 ADD PUSH2 0xE9B JUMP JUMPDEST PUSH0 PUSH1 0x20 DUP3 DUP5 SUB SLT ISZERO PUSH2 0x3A86 JUMPI PUSH0 DUP1 REVERT JUMPDEST DUP2 CALLDATALOAD PUSH1 0x1 PUSH1 0x1 PUSH1 0xE0 SHL SUB NOT DUP2 AND DUP2 EQ PUSH2 0x3A9D JUMPI PUSH0 DUP1 REVERT JUMPDEST SWAP4 SWAP3 POP POP POP JUMP JUMPDEST DUP1 CALLDATALOAD PUSH1 0x1 PUSH1 0x1 PUSH1 0xA0 SHL SUB DUP2 AND DUP2 EQ PUSH2 0x3ABA JUMPI PUSH0 DUP1 REVERT JUMPDEST SWAP2 SWAP1 POP JUMP JUMPDEST PUSH0 PUSH1 0x20 DUP3 DUP5 SUB SLT ISZERO PUSH2 0x3ACF JUMPI PUSH0 DUP1 REVERT JUMPDEST PUSH2 0x3A9D DUP3 PUSH2 0x3AA4 JUMP JUMPDEST DUP1 ISZERO ISZERO DUP2 EQ PUSH2 0x1451 JUMPI PUSH0 DUP1 REVERT JUMPDEST PUSH0 PUSH1 0x20 DUP3 DUP5 SUB SLT ISZERO PUSH2 0x3AF5 JUMPI PUSH0 DUP1 REVERT JUMPDEST DUP2 CALLDATALOAD PUSH2 0x3A9D DUP2 PUSH2 0x3AD8 JUMP JUMPDEST PUSH0 DUP1 PUSH1 0x40 DUP4 DUP6 SUB SLT ISZERO PUSH2 0x3B11 JUMPI PUSH0 DUP1 REVERT JUMPDEST PUSH2 0x3B1A DUP4 PUSH2 0x3AA4 JUMP JUMPDEST SWAP5 PUSH1 0x20 SWAP4 SWAP1 SWAP4 ADD CALLDATALOAD SWAP4 POP POP POP JUMP JUMPDEST PUSH4 0x4E487B71 PUSH1 0xE0 SHL PUSH0 MSTORE PUSH1 0x21 PUSH1 0x4 MSTORE PUSH1 0x24 PUSH0 REVERT JUMPDEST PUSH1 0x2 DUP2 LT PUSH2 0x3B58 JUMPI PUSH4 0x4E487B71 PUSH1 0xE0 SHL PUSH0 MSTORE PUSH1 0x21 PUSH1 0x4 MSTORE PUSH1 0x24 PUSH0 REVERT JUMPDEST SWAP1 MSTORE JUMP JUMPDEST PUSH2 0x120 DUP2 ADD PUSH2 0x3B6B DUP3 DUP13 PUSH2 0x3B3C JUMP JUMPDEST PUSH1 0x20 DUP3 ADD SWAP10 SWAP1 SWAP10 MSTORE PUSH1 0x40 DUP2 ADD SWAP8 SWAP1 SWAP8 MSTORE SWAP5 ISZERO ISZERO PUSH1 0x60 DUP8 ADD MSTORE SWAP3 ISZERO ISZERO PUSH1 0x80 DUP7 ADD MSTORE SWAP1 ISZERO ISZERO PUSH1 0xA0 DUP6 ADD MSTORE ISZERO ISZERO PUSH1 0xC0 DUP5 ADD MSTORE PUSH1 0xE0 DUP4 ADD MSTORE PUSH2 0x100 SWAP1 SWAP2 ADD MSTORE SWAP2 SWAP1 POP JUMP JUMPDEST PUSH0 PUSH1 0x20 DUP3 DUP5 SUB SLT ISZERO PUSH2 0x3BBB JUMPI PUSH0 DUP1 REVERT JUMPDEST POP CALLDATALOAD SWAP2 SWAP1 POP JUMP JUMPDEST PUSH1 0x20 DUP1 DUP3 MSTORE DUP3 MLOAD DUP3 DUP3 ADD DUP2 SWAP1 MSTORE PUSH0 SWAP2 SWAP1 PUSH1 0x40 SWAP1 DUP2 DUP6 ADD SWAP1 DUP7 DUP5 ADD DUP6 JUMPDEST DUP3 DUP2 LT ISZERO PUSH2 0x3C5B JUMPI DUP2 MLOAD PUSH2 0x3BF3 DUP6 DUP3 MLOAD PUSH2 0x3B3C JUMP JUMPDEST DUP1 DUP8 ADD MLOAD DUP6 DUP9 ADD MSTORE DUP6 DUP2 ADD MLOAD DUP7 DUP7 ADD MSTORE PUSH1 0x60 DUP1 DUP3 ADD MLOAD ISZERO ISZERO SWAP1 DUP7 ADD MSTORE PUSH1 0x80 DUP1 DUP3 ADD MLOAD ISZERO ISZERO SWAP1 DUP7 ADD MSTORE PUSH1 0xA0 DUP1 DUP3 ADD MLOAD ISZERO ISZERO SWAP1 DUP7 ADD MSTORE PUSH1 0xC0 DUP1 DUP3 ADD MLOAD ISZERO ISZERO SWAP1 DUP7 ADD MSTORE PUSH1 0xE0 DUP1 DUP3 ADD MLOAD SWAP1 DUP7 ADD MSTORE PUSH2 0x100 SWAP1 DUP2 ADD MLOAD SWAP1 DUP6 ADD MSTORE PUSH2 0x120 SWAP1 SWAP4 ADD SWAP3 SWAP1 DUP6 ADD SWAP1 PUSH1 0x1 ADD PUSH2 0x3BDE JUMP JUMPDEST POP SWAP2 SWAP8 SWAP7 POP POP POP POP POP POP POP JUMP JUMPDEST PUSH0 DUP1 PUSH1 0x40 DUP4 DUP6 SUB SLT ISZERO PUSH2 0x3C79 JUMPI PUSH0 DUP1 REVERT JUMPDEST DUP3 CALLDATALOAD SWAP2 POP PUSH2 0x3C89 PUSH1 0x20 DUP5 ADD PUSH2 0x3AA4 JUMP JUMPDEST SWAP1 POP SWAP3 POP SWAP3 SWAP1 POP JUMP JUMPDEST PUSH0 DUP1 DUP4 PUSH1 0x1F DUP5 ADD SLT PUSH2 0x3CA2 JUMPI PUSH0 DUP1 REVERT JUMPDEST POP DUP2 CALLDATALOAD PUSH8 0xFFFFFFFFFFFFFFFF DUP2 GT ISZERO PUSH2 0x3CB9 JUMPI PUSH0 DUP1 REVERT JUMPDEST PUSH1 0x20 DUP4 ADD SWAP2 POP DUP4 PUSH1 0x20 DUP3 PUSH1 0x5 SHL DUP6 ADD ADD GT ISZERO PUSH2 0x3CD3 JUMPI PUSH0 DUP1 REVERT JUMPDEST SWAP3 POP SWAP3 SWAP1 POP JUMP JUMPDEST PUSH0 DUP1 PUSH0 DUP1 PUSH1 0x40 DUP6 DUP8 SUB SLT ISZERO PUSH2 0x3CED JUMPI PUSH0 DUP1 REVERT JUMPDEST DUP5 CALLDATALOAD PUSH8 0xFFFFFFFFFFFFFFFF DUP1 DUP3 GT ISZERO PUSH2 0x3D04 JUMPI PUSH0 DUP1 REVERT JUMPDEST PUSH2 0x3D10 DUP9 DUP4 DUP10 ADD PUSH2 0x3C92 JUMP JUMPDEST SWAP1 SWAP7 POP SWAP5 POP PUSH1 0x20 DUP8 ADD CALLDATALOAD SWAP2 POP DUP1 DUP3 GT ISZERO PUSH2 0x3D28 JUMPI PUSH0 DUP1 REVERT JUMPDEST POP PUSH2 0x3D35 DUP8 DUP3 DUP9 ADD PUSH2 0x3C92 JUMP JUMPDEST SWAP6 SWAP9 SWAP5 SWAP8 POP SWAP6 POP POP POP POP JUMP JUMPDEST PUSH0 DUP1 PUSH1 0x40 DUP4 DUP6 SUB SLT ISZERO PUSH2 0x3D52 JUMPI PUSH0 DUP1 REVERT JUMPDEST PUSH2 0x3D5B DUP4 PUSH2 0x3AA4 JUMP JUMPDEST SWAP2 POP PUSH1 0x20 DUP4 ADD CALLDATALOAD PUSH2 0x3D6B DUP2 PUSH2 0x3AD8 JUMP JUMPDEST DUP1 SWAP2 POP POP SWAP3 POP SWAP3 SWAP1 POP JUMP JUMPDEST PUSH0 DUP1 PUSH1 0x40 DUP4 DUP6 SUB SLT ISZERO PUSH2 0x3D87 JUMPI PUSH0 DUP1 REVERT JUMPDEST DUP3 CALLDATALOAD PUSH2 0x3D5B DUP2 PUSH2 0x3AD8 JUMP JUMPDEST PUSH0 DUP1 PUSH1 0x20 DUP4 DUP6 SUB SLT ISZERO PUSH2 0x3DA3 JUMPI PUSH0 DUP1 REVERT JUMPDEST DUP3 CALLDATALOAD PUSH8 0xFFFFFFFFFFFFFFFF DUP2 GT ISZERO PUSH2 0x3DB9 JUMPI PUSH0 DUP1 REVERT JUMPDEST PUSH2 0x3DC5 DUP6 DUP3 DUP7 ADD PUSH2 0x3C92 JUMP JUMPDEST SWAP1 SWAP7 SWAP1 SWAP6 POP SWAP4 POP POP POP POP JUMP JUMPDEST PUSH0 DUP1 PUSH0 PUSH1 0x40 DUP5 DUP7 SUB SLT ISZERO PUSH2 0x3DE3 JUMPI PUSH0 DUP1 REVERT JUMPDEST PUSH2 0x3DEC DUP5 PUSH2 0x3AA4 JUMP JUMPDEST SWAP3 POP PUSH1 0x20 DUP5 ADD CALLDATALOAD PUSH8 0xFFFFFFFFFFFFFFFF DUP2 GT ISZERO PUSH2 0x3E07 JUMPI PUSH0 DUP1 REVERT JUMPDEST PUSH2 0x3E13 DUP7 DUP3 DUP8 ADD PUSH2 0x3C92 JUMP JUMPDEST SWAP5 SWAP8 SWAP1 SWAP7 POP SWAP4 SWAP5 POP POP POP POP JUMP JUMPDEST PUSH0 DUP1 PUSH0 PUSH1 0x60 DUP5 DUP7 SUB SLT ISZERO PUSH2 0x3E32 JUMPI PUSH0 DUP1 REVERT JUMPDEST PUSH2 0x3E3B DUP5 PUSH2 0x3AA4 JUMP JUMPDEST SWAP3 POP PUSH2 0x3E49 PUSH1 0x20 DUP6 ADD PUSH2 0x3AA4 JUMP JUMPDEST SWAP2 POP PUSH1 0x40 DUP5 ADD CALLDATALOAD SWAP1 POP SWAP3 POP SWAP3 POP SWAP3 JUMP JUMPDEST PUSH0 DUP1 PUSH1 0x40 DUP4 DUP6 SUB SLT ISZERO PUSH2 0x3E6A JUMPI PUSH0 DUP1 REVERT JUMPDEST DUP3 CALLDATALOAD PUSH1 0x2 DUP2 LT PUSH2 0x3B1A JUMPI PUSH0 DUP1 REVERT JUMPDEST PUSH4 0x4E487B71 PUSH1 0xE0 SHL PUSH0 MSTORE PUSH1 0x11 PUSH1 0x4 MSTORE PUSH1 0x24 PUSH0 REVERT JUMPDEST DUP1 DUP3 ADD DUP1 DUP3 GT ISZERO PUSH2 0xDA0 JUMPI PUSH2 0xDA0 PUSH2 0x3E78 JUMP JUMPDEST PUSH1 0x60 DUP2 ADD PUSH2 0x3EAD DUP3 DUP7 PUSH2 0x3B3C JUMP JUMPDEST PUSH1 0x20 DUP3 ADD SWAP4 SWAP1 SWAP4 MSTORE PUSH1 0x40 ADD MSTORE SWAP2 SWAP1 POP JUMP JUMPDEST PUSH4 0x4E487B71 PUSH1 0xE0 SHL PUSH0 MSTORE PUSH1 0x32 PUSH1 0x4 MSTORE PUSH1 0x24 PUSH0 REVERT JUMPDEST PUSH0 PUSH1 0x20 DUP3 DUP5 SUB SLT ISZERO PUSH2 0x3EE2 JUMPI PUSH0 DUP1 REVERT JUMPDEST DUP2 MLOAD PUSH2 0x3A9D DUP2 PUSH2 0x3AD8 JUMP JUMPDEST PUSH1 0xA0 DUP2 ADD PUSH2 0x3EFB DUP3 DUP9 PUSH2 0x3B3C JUMP JUMPDEST DUP6 PUSH1 0x20 DUP4 ADD MSTORE DUP5 PUSH1 0x40 DUP4 ADD MSTORE DUP4 PUSH1 0x60 DUP4 ADD MSTORE DUP3 PUSH1 0x80 DUP4 ADD MSTORE SWAP7 SWAP6 POP POP POP POP POP POP JUMP JUMPDEST DUP2 DUP2 SUB DUP2 DUP2 GT ISZERO PUSH2 0xDA0 JUMPI PUSH2 0xDA0 PUSH2 0x3E78 JUMP JUMPDEST DUP2 DUP4 MSTORE PUSH0 PUSH32 0x7FFFFFFFFFFFFFFFFFFFFFFFFFFFFFFFFFFFFFFFFFFFFFFFFFFFFFFFFFFFFFF DUP4 GT ISZERO PUSH2 0x3F60 JUMPI PUSH0 DUP1 REVERT JUMPDEST DUP3 PUSH1 0x5 SHL DUP1 DUP4 PUSH1 0x20 DUP8 ADD CALLDATACOPY SWAP4 SWAP1 SWAP4 ADD PUSH1 0x20 ADD SWAP4 SWAP3 POP POP POP JUMP JUMPDEST PUSH2 0x3F83 DUP2 DUP9 PUSH2 0x3B3C JUMP JUMPDEST PUSH1 0xA0 PUSH1 0x20 DUP3 ADD MSTORE PUSH0 PUSH2 0x3F99 PUSH1 0xA0 DUP4 ADD DUP8 DUP10 PUSH2 0x3F30 JUMP JUMPDEST PUSH1 0x40 DUP4 ADD SWAP6 SWAP1 SWAP6 MSTORE POP PUSH1 0x60 DUP2 ADD SWAP3 SWAP1 SWAP3 MSTORE PUSH1 0x80 SWAP1 SWAP2 ADD MSTORE SWAP4 SWAP3 POP POP POP JUMP JUMPDEST PUSH1 0x20 DUP2 MSTORE PUSH0 PUSH2 0x3FCA PUSH1 0x20 DUP4 ADD DUP5 DUP7 PUSH2 0x3F30 JUMP JUMPDEST SWAP5 SWAP4 POP POP POP POP JUMP JUMPDEST PUSH0 PUSH1 0x20 DUP3 DUP5 SUB SLT ISZERO PUSH2 0x3FE2 JUMPI PUSH0 DUP1 REVERT JUMPDEST POP MLOAD SWAP2 SWAP1 POP JUMP JUMPDEST PUSH1 0x40 DUP2 ADD PUSH2 0x3FF7 DUP3 DUP6 PUSH2 0x3B3C JUMP JUMPDEST DUP3 PUSH1 0x20 DUP4 ADD MSTORE SWAP4 SWAP3 POP POP POP JUMP JUMPDEST PUSH1 0xA0 DUP2 ADD PUSH2 0x4012 DUP3 DUP9 PUSH2 0x3B3C JUMP JUMPDEST DUP6 PUSH1 0x20 DUP4 ADD MSTORE DUP5 PUSH1 0x40 DUP4 ADD MSTORE DUP4 PUSH1 0x60 DUP4 ADD MSTORE DUP3 ISZERO ISZERO PUSH1 0x80 DUP4 ADD MSTORE SWAP7 SWAP6 POP POP POP POP POP POP JUMP INVALID LOG4 SWAP9 SMOD KECCAK256 TLOAD 0xE4 0xD3 SSTORE MULMOD 0x2E CREATE2 0xA8 LOG1 DUP16 JUMP 0xE8 SWAP2 EXTCODECOPY DELEGATECALL LOG2 ADD 0xFB 0xE2 DUP8 DUP3 JUMPDEST MULMOD JUMP SWAP4 0xC2 OR PUSH22 0xA264697066735822122008519663228AC38F799CE539 EXTCODESIZE DUP15 0xDF LOG3 0x23 0x24 0xD8 0xE3 EQ OR LT 0x28 0xCD MOD 0xB1 0x2C 0xBB 0xAE 0x2A 0x2E PUSH5 0x736F6C6343 STOP ADDMOD NOT STOP CALLER "
    },
    "gasEstimates": {
      "creation": {
        "codeDepositCost": "3304800",
        "executionCost": "infinite",
        "totalCost": "infinite"
      },
      "external": {
        "ADMIN_ROLE()": "infinite",
        "DEFAULT_ADMIN_ROLE()": "327",
        "PAUSER_ROLE()": "305",
        "UNLOCKER_ROLE()": "305",
        "USDC()": "350",
        "UTILITY_INJECTOR_ROLE()": "263",
        "UTILITY_WITHDRAWER_ROLE()": "263",
        "allDepositors(uint256)": "4700",
        "allUsers(uint256)": "4701",
        "assignUtilityETH(address,uint256)": "infinite",
        "assignUtilityETHBatch(address[],uint256[])": "infinite",
        "assignUtilityUSDC(address,uint256)": "infinite",
        "assignUtilityUSDCBatch(address[],uint256[])": "infinite",
        "batchWithdraw(uint256[])": "infinite",
        "claimUtilityETH()": "infinite",
        "claimUtilityUSDC()": "infinite",
        "depositETH()": "infinite",
        "depositUSDC(uint256)": "infinite",
        "enableGlobalLiquidation()": "infinite",
        "getRoleAdmin(bytes32)": "2579",
        "getUserDeposits(address)": "infinite",
        "getUserStats(address)": "infinite",
        "getVaultStats()": "infinite",
        "globalLiquidationEnabled()": "2422",
        "globalLiquidationTimestamp()": "2384",
        "grantRole(bytes32,address)": "33607",
        "hasRole(bytes32,address)": "2748",
        "hasWithdrawn(address)": "2629",
        "injectUtilityETH()": "28936",
        "injectUtilityUSDC(uint256)": "infinite",
        "isWhitelisted(address)": "2651",
        "lockupPeriod()": "2383",
        "maxCapETH()": "2384",
        "maxCapUSDC()": "2385",
        "pausedDeposits()": "2432",
        "pausedWithdrawals()": "2420",
        "reinvestUtilityETH()": "infinite",
        "reinvestUtilityUSDC()": "infinite",
        "renounceRole(bytes32,address)": "29067",
        "rescueERC20(address,address,uint256)": "infinite",
        "revokeRole(bytes32,address)": "33587",
        "setLockupPeriod(uint256)": "infinite",
        "setMaxCap(uint8,uint256)": "infinite",
        "setPaused(bool,bool)": "infinite",
        "setUtilityAddress(address)": "infinite",
        "setWhitelist(address,bool)": "infinite",
        "setWhitelistBatch(address[],bool[])": "infinite",
        "setWhitelistEnabled(bool)": "infinite",
        "supportsInterface(bytes4)": "493",
        "totalDepositedETH()": "2407",
        "totalDepositedUSDC()": "2363",
        "totalReinvestedETH()": "2362",
        "totalReinvestedUSDC()": "2427",
        "totalUtilityETH()": "2427",
        "totalUtilityUSDC()": "2406",
        "totalWithdrawnETH()": "2384",
        "totalWithdrawnUSDC()": "2361",
        "unlockDepositsForUser(address,uint256[])": "infinite",
        "userClaimableUtilityETH(address)": "2629",
        "userClaimableUtilityUSDC(address)": "2649",
        "userDeposits(address,uint256)": "15817",
        "userTotalReinvestedETH(address)": "2607",
        "userTotalReinvestedUSDC(address)": "2608",
        "utilityAddress()": "2447",
        "whitelistEnabled()": "2444",
        "withdraw(uint256)": "infinite",
        "withdrawUtilityETH(uint256)": "infinite",
        "withdrawUtilityUSDC(uint256)": "infinite",
        "withdrawnUsers(uint256)": "4723"
      },
      "internal": {
        "_registerDeposit(address,enum PoolFamilyAndFriends.TokenType,uint256,bool)": "infinite"
      }
    },
    "methodIdentifiers": {
      "ADMIN_ROLE()": "75b238fc",
      "DEFAULT_ADMIN_ROLE()": "a217fddf",
      "PAUSER_ROLE()": "e63ab1e9",
      "UNLOCKER_ROLE()": "e043b2b2",
      "USDC()": "89a30271",
      "UTILITY_INJECTOR_ROLE()": "0c016ad5",
      "UTILITY_WITHDRAWER_ROLE()": "885f5029",
      "allDepositors(uint256)": "e02f6aca",
      "allUsers(uint256)": "a2bdedf4",
      "assignUtilityETH(address,uint256)": "6ec23995",
      "assignUtilityETHBatch(address[],uint256[])": "b758aeaa",
      "assignUtilityUSDC(address,uint256)": "762e1c73",
      "assignUtilityUSDCBatch(address[],uint256[])": "41debf1f",
      "batchWithdraw(uint256[])": "72e55399",
      "claimUtilityETH()": "e399067f",
      "claimUtilityUSDC()": "6c6ff56c",
      "depositETH()": "f6326fb3",
      "depositUSDC(uint256)": "f688bcfb",
      "enableGlobalLiquidation()": "da8d5add",
      "getRoleAdmin(bytes32)": "248a9ca3",
      "getUserDeposits(address)": "2a5bf6d2",
      "getUserStats(address)": "4e43603a",
      "getVaultStats()": "a59aa5a6",
      "globalLiquidationEnabled()": "246d47b7",
      "globalLiquidationTimestamp()": "588583a0",
      "grantRole(bytes32,address)": "2f2ff15d",
      "hasRole(bytes32,address)": "91d14854",
      "hasWithdrawn(address)": "5e2c19db",
      "injectUtilityETH()": "64021b13",
      "injectUtilityUSDC(uint256)": "d830d5cc",
      "isWhitelisted(address)": "3af32abf",
      "lockupPeriod()": "ee947a7c",
      "maxCapETH()": "9ddc3912",
      "maxCapUSDC()": "1c5aeef7",
      "pausedDeposits()": "6068d6cb",
      "pausedWithdrawals()": "b2b77ae2",
      "reinvestUtilityETH()": "275991d2",
      "reinvestUtilityUSDC()": "bda821e8",
      "renounceRole(bytes32,address)": "36568abe",
      "rescueERC20(address,address,uint256)": "b2118a8d",
      "revokeRole(bytes32,address)": "d547741f",
      "setLockupPeriod(uint256)": "c771c390",
      "setMaxCap(uint8,uint256)": "f5f69af2",
      "setPaused(bool,bool)": "6426be48",
      "setUtilityAddress(address)": "89bad0a6",
      "setWhitelist(address,bool)": "53d6fd59",
      "setWhitelistBatch(address[],bool[])": "47af19aa",
      "setWhitelistEnabled(bool)": "052d9e7e",
      "supportsInterface(bytes4)": "01ffc9a7",
      "totalDepositedETH()": "899aa991",
      "totalDepositedUSDC()": "27175b23",
      "totalReinvestedETH()": "97d9e5b4",
      "totalReinvestedUSDC()": "e15e23c1",
      "totalUtilityETH()": "b65ba94b",
      "totalUtilityUSDC()": "3ac43970",
      "totalWithdrawnETH()": "8b713b2e",
      "totalWithdrawnUSDC()": "e340b783",
      "unlockDepositsForUser(address,uint256[])": "867d099a",
      "userClaimableUtilityETH(address)": "3408567c",
      "userClaimableUtilityUSDC(address)": "e9fe0c78",
      "userDeposits(address,uint256)": "08f43333",
      "userTotalReinvestedETH(address)": "886d589d",
      "userTotalReinvestedUSDC(address)": "04c68af0",
      "utilityAddress()": "f29b2239",
      "whitelistEnabled()": "51fb012d",
      "withdraw(uint256)": "2e1a7d4d",
      "withdrawUtilityETH(uint256)": "93055c43",
      "withdrawUtilityUSDC(uint256)": "76c1d3db",
      "withdrawnUsers(uint256)": "9e657e33"
    }
  },
  "storageLayout": {
    "storage": [
      {
        "astId": 163,
        "contract": "FlattenedPool.sol:PoolFamilyAndFriends",
        "label": "_roles",
        "offset": 0,
        "slot": "0",
        "type": "t_mapping(t_bytes32,t_struct(RoleData)158_storage)"
      },
      {
        "astId": 519,
        "contract": "FlattenedPool.sol:PoolFamilyAndFriends",
        "label": "_status",
        "offset": 0,
        "slot": "1",
        "type": "t_uint256"
      },
      {
        "astId": 592,
        "contract": "FlattenedPool.sol:PoolFamilyAndFriends",
        "label": "lockupPeriod",
        "offset": 0,
        "slot": "2",
        "type": "t_uint256"
      },
      {
        "astId": 595,
        "contract": "FlattenedPool.sol:PoolFamilyAndFriends",
        "label": "maxCapETH",
        "offset": 0,
        "slot": "3",
        "type": "t_uint256"
      },
      {
        "astId": 600,
        "contract": "FlattenedPool.sol:PoolFamilyAndFriends",
        "label": "maxCapUSDC",
        "offset": 0,
        "slot": "4",
        "type": "t_uint256"
      },
      {
        "astId": 602,
        "contract": "FlattenedPool.sol:PoolFamilyAndFriends",
        "label": "pausedDeposits",
        "offset": 0,
        "slot": "5",
        "type": "t_bool"
      },
      {
        "astId": 604,
        "contract": "FlattenedPool.sol:PoolFamilyAndFriends",
        "label": "pausedWithdrawals",
        "offset": 1,
        "slot": "5",
        "type": "t_bool"
      },
      {
        "astId": 606,
        "contract": "FlattenedPool.sol:PoolFamilyAndFriends",
        "label": "whitelistEnabled",
        "offset": 2,
        "slot": "5",
        "type": "t_bool"
      },
      {
        "astId": 608,
        "contract": "FlattenedPool.sol:PoolFamilyAndFriends",
        "label": "globalLiquidationEnabled",
        "offset": 3,
        "slot": "5",
        "type": "t_bool"
      },
      {
        "astId": 610,
        "contract": "FlattenedPool.sol:PoolFamilyAndFriends",
        "label": "globalLiquidationTimestamp",
        "offset": 0,
        "slot": "6",
        "type": "t_uint256"
      },
      {
        "astId": 612,
        "contract": "FlattenedPool.sol:PoolFamilyAndFriends",
        "label": "utilityAddress",
        "offset": 0,
        "slot": "7",
        "type": "t_address"
      },
      {
        "astId": 663,
        "contract": "FlattenedPool.sol:PoolFamilyAndFriends",
        "label": "userDeposits",
        "offset": 0,
        "slot": "8",
        "type": "t_mapping(t_address,t_array(t_struct(DepositInfo)657_storage)dyn_storage)"
      },
      {
        "astId": 667,
        "contract": "FlattenedPool.sol:PoolFamilyAndFriends",
        "label": "isWhitelisted",
        "offset": 0,
        "slot": "9",
        "type": "t_mapping(t_address,t_bool)"
      },
      {
        "astId": 671,
        "contract": "FlattenedPool.sol:PoolFamilyAndFriends",
        "label": "hasWithdrawn",
        "offset": 0,
        "slot": "10",
        "type": "t_mapping(t_address,t_bool)"
      },
      {
        "astId": 675,
        "contract": "FlattenedPool.sol:PoolFamilyAndFriends",
        "label": "userClaimableUtilityETH",
        "offset": 0,
        "slot": "11",
        "type": "t_mapping(t_address,t_uint256)"
      },
      {
        "astId": 679,
        "contract": "FlattenedPool.sol:PoolFamilyAndFriends",
        "label": "userClaimableUtilityUSDC",
        "offset": 0,
        "slot": "12",
        "type": "t_mapping(t_address,t_uint256)"
      },
      {
        "astId": 683,
        "contract": "FlattenedPool.sol:PoolFamilyAndFriends",
        "label": "userTotalReinvestedETH",
        "offset": 0,
        "slot": "13",
        "type": "t_mapping(t_address,t_uint256)"
      },
      {
        "astId": 687,
        "contract": "FlattenedPool.sol:PoolFamilyAndFriends",
        "label": "userTotalReinvestedUSDC",
        "offset": 0,
        "slot": "14",
        "type": "t_mapping(t_address,t_uint256)"
      },
      {
        "astId": 690,
        "contract": "FlattenedPool.sol:PoolFamilyAndFriends",
        "label": "allUsers",
        "offset": 0,
        "slot": "15",
        "type": "t_array(t_address)dyn_storage"
      },
      {
        "astId": 693,
        "contract": "FlattenedPool.sol:PoolFamilyAndFriends",
        "label": "withdrawnUsers",
        "offset": 0,
        "slot": "16",
        "type": "t_array(t_address)dyn_storage"
      },
      {
        "astId": 696,
        "contract": "FlattenedPool.sol:PoolFamilyAndFriends",
        "label": "allDepositors",
        "offset": 0,
        "slot": "17",
        "type": "t_array(t_address)dyn_storage"
      },
      {
        "astId": 698,
        "contract": "FlattenedPool.sol:PoolFamilyAndFriends",
        "label": "totalDepositedETH",
        "offset": 0,
        "slot": "18",
        "type": "t_uint256"
      },
      {
        "astId": 700,
        "contract": "FlattenedPool.sol:PoolFamilyAndFriends",
        "label": "totalDepositedUSDC",
        "offset": 0,
        "slot": "19",
        "type": "t_uint256"
      },
      {
        "astId": 702,
        "contract": "FlattenedPool.sol:PoolFamilyAndFriends",
        "label": "totalWithdrawnETH",
        "offset": 0,
        "slot": "20",
        "type": "t_uint256"
      },
      {
        "astId": 704,
        "contract": "FlattenedPool.sol:PoolFamilyAndFriends",
        "label": "totalWithdrawnUSDC",
        "offset": 0,
        "slot": "21",
        "type": "t_uint256"
      },
      {
        "astId": 706,
        "contract": "FlattenedPool.sol:PoolFamilyAndFriends",
        "label": "totalUtilityETH",
        "offset": 0,
        "slot": "22",
        "type": "t_uint256"
      },
      {
        "astId": 708,
        "contract": "FlattenedPool.sol:PoolFamilyAndFriends",
        "label": "totalUtilityUSDC",
        "offset": 0,
        "slot": "23",
        "type": "t_uint256"
      },
      {
        "astId": 710,
        "contract": "FlattenedPool.sol:PoolFamilyAndFriends",
        "label": "totalReinvestedETH",
        "offset": 0,
        "slot": "24",
        "type": "t_uint256"
      },
      {
        "astId": 712,
        "contract": "FlattenedPool.sol:PoolFamilyAndFriends",
        "label": "totalReinvestedUSDC",
        "offset": 0,
        "slot": "25",
        "type": "t_uint256"
      }
    ],
    "types": {
      "t_address": {
        "encoding": "inplace",
        "label": "address",
        "numberOfBytes": "20"
      },
      "t_array(t_address)dyn_storage": {
        "base": "t_address",
        "encoding": "dynamic_array",
        "label": "address[]",
        "numberOfBytes": "32"
      },
      "t_array(t_struct(DepositInfo)657_storage)dyn_storage": {
        "base": "t_struct(DepositInfo)657_storage",
        "encoding": "dynamic_array",
        "label": "struct PoolFamilyAndFriends.DepositInfo[]",
        "numberOfBytes": "32"
      },
      "t_bool": {
        "encoding": "inplace",
        "label": "bool",
        "numberOfBytes": "1"
      },
      "t_bytes32": {
        "encoding": "inplace",
        "label": "bytes32",
        "numberOfBytes": "32"
      },
      "t_enum(TokenType)589": {
        "encoding": "inplace",
        "label": "enum PoolFamilyAndFriends.TokenType",
        "numberOfBytes": "1"
      },
      "t_mapping(t_address,t_array(t_struct(DepositInfo)657_storage)dyn_storage)": {
        "encoding": "mapping",
        "key": "t_address",
        "label": "mapping(address => struct PoolFamilyAndFriends.DepositInfo[])",
        "numberOfBytes": "32",
        "value": "t_array(t_struct(DepositInfo)657_storage)dyn_storage"
      },
      "t_mapping(t_address,t_bool)": {
        "encoding": "mapping",
        "key": "t_address",
        "label": "mapping(address => bool)",
        "numberOfBytes": "32",
        "value": "t_bool"
      },
      "t_mapping(t_address,t_uint256)": {
        "encoding": "mapping",
        "key": "t_address",
        "label": "mapping(address => uint256)",
        "numberOfBytes": "32",
        "value": "t_uint256"
      },
      "t_mapping(t_bytes32,t_struct(RoleData)158_storage)": {
        "encoding": "mapping",
        "key": "t_bytes32",
        "label": "mapping(bytes32 => struct AccessControl.RoleData)",
        "numberOfBytes": "32",
        "value": "t_struct(RoleData)158_storage"
      },
      "t_struct(DepositInfo)657_storage": {
        "encoding": "inplace",
        "label": "struct PoolFamilyAndFriends.DepositInfo",
        "members": [
          {
            "astId": 640,
            "contract": "FlattenedPool.sol:PoolFamilyAndFriends",
            "label": "token",
            "offset": 0,
            "slot": "0",
            "type": "t_enum(TokenType)589"
          },
          {
            "astId": 642,
            "contract": "FlattenedPool.sol:PoolFamilyAndFriends",
            "label": "amount",
            "offset": 0,
            "slot": "1",
            "type": "t_uint256"
          },
          {
            "astId": 644,
            "contract": "FlattenedPool.sol:PoolFamilyAndFriends",
            "label": "timestamp",
            "offset": 0,
            "slot": "2",
            "type": "t_uint256"
          },
          {
            "astId": 646,
            "contract": "FlattenedPool.sol:PoolFamilyAndFriends",
            "label": "withdrawn",
            "offset": 0,
            "slot": "3",
            "type": "t_bool"
          },
          {
            "astId": 648,
            "contract": "FlattenedPool.sol:PoolFamilyAndFriends",
            "label": "unlockedByAdmin",
            "offset": 1,
            "slot": "3",
            "type": "t_bool"
          },
          {
            "astId": 650,
            "contract": "FlattenedPool.sol:PoolFamilyAndFriends",
            "label": "fullyRedeemable",
            "offset": 2,
            "slot": "3",
            "type": "t_bool"
          },
          {
            "astId": 652,
            "contract": "FlattenedPool.sol:PoolFamilyAndFriends",
            "label": "isReinvestment",
            "offset": 3,
            "slot": "3",
            "type": "t_bool"
          },
          {
            "astId": 654,
            "contract": "FlattenedPool.sol:PoolFamilyAndFriends",
            "label": "withdrawnAt",
            "offset": 0,
            "slot": "4",
            "type": "t_uint256"
          },
          {
            "astId": 656,
            "contract": "FlattenedPool.sol:PoolFamilyAndFriends",
            "label": "yieldReceived",
            "offset": 0,
            "slot": "5",
            "type": "t_uint256"
          }
        ],
        "numberOfBytes": "192"
      },
      "t_struct(RoleData)158_storage": {
        "encoding": "inplace",
        "label": "struct AccessControl.RoleData",
        "members": [
          {
            "astId": 155,
            "contract": "FlattenedPool.sol:PoolFamilyAndFriends",
            "label": "hasRole",
            "offset": 0,
            "slot": "0",
            "type": "t_mapping(t_address,t_bool)"
          },
          {
            "astId": 157,
            "contract": "FlattenedPool.sol:PoolFamilyAndFriends",
            "label": "adminRole",
            "offset": 0,
            "slot": "1",
            "type": "t_bytes32"
          }
        ],
        "numberOfBytes": "64"
      },
      "t_uint256": {
        "encoding": "inplace",
        "label": "uint256",
        "numberOfBytes": "32"
      }
    }
  },
  "userdoc": {
    "kind": "user",
    "methods": {},
    "notice": "Vault multi-token (ETH, USDC) con mtricas avanzadas, utilidad claimable, reinversin, batch y control granular.",
    "version": 1
  }
}