{
  "_format": "hh-sol-artifact-1",
  "contractName": "PoolPandorasSepolia",
  "sourceName": "contracts/PoolPandorasSepolia.sol",
  "abi": [
    {
      "inputs": [
        {
          "internalType": "address[]",
          "name": "initialAdmins",
          "type": "address[]"
        },
        {
          "internalType": "address",
          "name": "_utilityAddress",
          "type": "address"
        },
        {
          "internalType": "address",
          "name": "trustedForwarder",
          "type": "address"
        },
        {
          "internalType": "address",
          "name": "_usdcAddress",
          "type": "address"
        }
      ],
      "stateMutability": "nonpayable",
      "type": "constructor"
    },
    {
      "inputs": [],
      "name": "AccessControlBadConfirmation",
      "type": "error"
    },
    {
      "inputs": [
        {
          "internalType": "address",
          "name": "account",
          "type": "address"
        },
        {
          "internalType": "bytes32",
          "name": "neededRole",
          "type": "bytes32"
        }
      ],
      "name": "AccessControlUnauthorizedAccount",
      "type": "error"
    },
    {
      "inputs": [],
      "name": "AlreadyUnlockedOrWithdrawn",
      "type": "error"
    },
    {
      "inputs": [],
      "name": "AlreadyWithdrawn",
      "type": "error"
    },
    {
      "inputs": [],
      "name": "ArrayLengthMismatch",
      "type": "error"
    },
    {
      "inputs": [],
      "name": "CapReached",
      "type": "error"
    },
    {
      "inputs": [],
      "name": "DepositLocked",
      "type": "error"
    },
    {
      "inputs": [],
      "name": "DepositsPaused",
      "type": "error"
    },
    {
      "inputs": [],
      "name": "ExceedsTotalUtility",
      "type": "error"
    },
    {
      "inputs": [],
      "name": "GlobalLiquidationAlreadyEnabled",
      "type": "error"
    },
    {
      "inputs": [],
      "name": "InsufficientBalance",
      "type": "error"
    },
    {
      "inputs": [],
      "name": "InvalidAmount",
      "type": "error"
    },
    {
      "inputs": [],
      "name": "NoUtilityToClaim",
      "type": "error"
    },
    {
      "inputs": [],
      "name": "NotWhitelisted",
      "type": "error"
    },
    {
      "inputs": [],
      "name": "ReentrancyGuardReentrantCall",
      "type": "error"
    },
    {
      "inputs": [],
      "name": "ReturnedAmountExceedsInvested",
      "type": "error"
    },
    {
      "inputs": [],
      "name": "TransferFailed",
      "type": "error"
    },
    {
      "inputs": [],
      "name": "WithdrawalsPaused",
      "type": "error"
    },
    {
      "inputs": [],
      "name": "ZeroAddress",
      "type": "error"
    },
    {
      "anonymous": false,
      "inputs": [
        {
          "indexed": true,
          "internalType": "address",
          "name": "user",
          "type": "address"
        },
        {
          "indexed": false,
          "internalType": "enum PoolPandorasSepolia.TokenType",
          "name": "token",
          "type": "uint8"
        },
        {
          "indexed": false,
          "internalType": "uint256[]",
          "name": "indices",
          "type": "uint256[]"
        },
        {
          "indexed": false,
          "internalType": "uint256",
          "name": "totalPrincipal",
          "type": "uint256"
        },
        {
          "indexed": false,
          "internalType": "uint256",
          "name": "totalYield",
          "type": "uint256"
        },
        {
          "indexed": false,
          "internalType": "uint256",
          "name": "when",
          "type": "uint256"
        }
      ],
      "name": "BatchWithdraw",
      "type": "event"
    },
    {
      "anonymous": false,
      "inputs": [
        {
          "indexed": true,
          "internalType": "address",
          "name": "user",
          "type": "address"
        },
        {
          "indexed": false,
          "internalType": "enum PoolPandorasSepolia.TokenType",
          "name": "token",
          "type": "uint8"
        },
        {
          "indexed": false,
          "internalType": "uint256",
          "name": "amount",
          "type": "uint256"
        },
        {
          "indexed": false,
          "internalType": "uint256",
          "name": "when",
          "type": "uint256"
        }
      ],
      "name": "ClaimUtility",
      "type": "event"
    },
    {
      "anonymous": false,
      "inputs": [
        {
          "indexed": true,
          "internalType": "address",
          "name": "user",
          "type": "address"
        },
        {
          "indexed": false,
          "internalType": "enum PoolPandorasSepolia.TokenType",
          "name": "token",
          "type": "uint8"
        },
        {
          "indexed": false,
          "internalType": "uint256",
          "name": "amount",
          "type": "uint256"
        },
        {
          "indexed": false,
          "internalType": "uint256",
          "name": "when",
          "type": "uint256"
        },
        {
          "indexed": false,
          "internalType": "uint256",
          "name": "depositIndex",
          "type": "uint256"
        },
        {
          "indexed": false,
          "internalType": "bool",
          "name": "reinvestment",
          "type": "bool"
        }
      ],
      "name": "Deposit",
      "type": "event"
    },
    {
      "anonymous": false,
      "inputs": [
        {
          "indexed": true,
          "internalType": "address",
          "name": "user",
          "type": "address"
        },
        {
          "indexed": false,
          "internalType": "uint256[]",
          "name": "indices",
          "type": "uint256[]"
        }
      ],
      "name": "DepositsUnlocked",
      "type": "event"
    },
    {
      "anonymous": false,
      "inputs": [
        {
          "indexed": true,
          "internalType": "address",
          "name": "token",
          "type": "address"
        },
        {
          "indexed": true,
          "internalType": "address",
          "name": "to",
          "type": "address"
        },
        {
          "indexed": false,
          "internalType": "uint256",
          "name": "amount",
          "type": "uint256"
        }
      ],
      "name": "ERC20Rescued",
      "type": "event"
    },
    {
      "anonymous": false,
      "inputs": [
        {
          "indexed": false,
          "internalType": "uint256",
          "name": "when",
          "type": "uint256"
        }
      ],
      "name": "GlobalLiquidationEnabled",
      "type": "event"
    },
    {
      "anonymous": false,
      "inputs": [
        {
          "indexed": true,
          "internalType": "address",
          "name": "manager",
          "type": "address"
        },
        {
          "indexed": false,
          "internalType": "enum PoolPandorasSepolia.TokenType",
          "name": "token",
          "type": "uint8"
        },
        {
          "indexed": false,
          "internalType": "uint256",
          "name": "amount",
          "type": "uint256"
        },
        {
          "indexed": false,
          "internalType": "uint256",
          "name": "when",
          "type": "uint256"
        }
      ],
      "name": "InvestmentReturned",
      "type": "event"
    },
    {
      "anonymous": false,
      "inputs": [
        {
          "indexed": false,
          "internalType": "uint256",
          "name": "newPeriod",
          "type": "uint256"
        }
      ],
      "name": "LockupPeriodChanged",
      "type": "event"
    },
    {
      "anonymous": false,
      "inputs": [
        {
          "indexed": false,
          "internalType": "enum PoolPandorasSepolia.TokenType",
          "name": "token",
          "type": "uint8"
        },
        {
          "indexed": false,
          "internalType": "uint256",
          "name": "newCap",
          "type": "uint256"
        }
      ],
      "name": "MaxCapChanged",
      "type": "event"
    },
    {
      "anonymous": false,
      "inputs": [
        {
          "indexed": false,
          "internalType": "bool",
          "name": "depositsPaused",
          "type": "bool"
        },
        {
          "indexed": false,
          "internalType": "bool",
          "name": "withdrawalsPaused",
          "type": "bool"
        }
      ],
      "name": "PauseChanged",
      "type": "event"
    },
    {
      "anonymous": false,
      "inputs": [
        {
          "indexed": true,
          "internalType": "address",
          "name": "user",
          "type": "address"
        },
        {
          "indexed": false,
          "internalType": "enum PoolPandorasSepolia.TokenType",
          "name": "token",
          "type": "uint8"
        },
        {
          "indexed": false,
          "internalType": "uint256",
          "name": "amount",
          "type": "uint256"
        },
        {
          "indexed": false,
          "internalType": "uint256",
          "name": "when",
          "type": "uint256"
        }
      ],
      "name": "Reinvest",
      "type": "event"
    },
    {
      "anonymous": false,
      "inputs": [
        {
          "indexed": true,
          "internalType": "bytes32",
          "name": "role",
          "type": "bytes32"
        },
        {
          "indexed": true,
          "internalType": "bytes32",
          "name": "previousAdminRole",
          "type": "bytes32"
        },
        {
          "indexed": true,
          "internalType": "bytes32",
          "name": "newAdminRole",
          "type": "bytes32"
        }
      ],
      "name": "RoleAdminChanged",
      "type": "event"
    },
    {
      "anonymous": false,
      "inputs": [
        {
          "indexed": true,
          "internalType": "bytes32",
          "name": "role",
          "type": "bytes32"
        },
        {
          "indexed": true,
          "internalType": "address",
          "name": "account",
          "type": "address"
        },
        {
          "indexed": true,
          "internalType": "address",
          "name": "sender",
          "type": "address"
        }
      ],
      "name": "RoleGranted",
      "type": "event"
    },
    {
      "anonymous": false,
      "inputs": [
        {
          "indexed": true,
          "internalType": "bytes32",
          "name": "role",
          "type": "bytes32"
        },
        {
          "indexed": true,
          "internalType": "address",
          "name": "account",
          "type": "address"
        },
        {
          "indexed": true,
          "internalType": "address",
          "name": "sender",
          "type": "address"
        }
      ],
      "name": "RoleRevoked",
      "type": "event"
    },
    {
      "anonymous": false,
      "inputs": [
        {
          "indexed": true,
          "internalType": "address",
          "name": "user",
          "type": "address"
        },
        {
          "indexed": false,
          "internalType": "bool",
          "name": "status",
          "type": "bool"
        }
      ],
      "name": "UserWhitelisted",
      "type": "event"
    },
    {
      "anonymous": false,
      "inputs": [
        {
          "indexed": false,
          "internalType": "address",
          "name": "newUtilityAddress",
          "type": "address"
        }
      ],
      "name": "UtilityAddressChanged",
      "type": "event"
    },
    {
      "anonymous": false,
      "inputs": [
        {
          "indexed": true,
          "internalType": "address",
          "name": "admin",
          "type": "address"
        },
        {
          "indexed": false,
          "internalType": "enum PoolPandorasSepolia.TokenType",
          "name": "token",
          "type": "uint8"
        },
        {
          "indexed": false,
          "internalType": "uint256",
          "name": "amount",
          "type": "uint256"
        },
        {
          "indexed": false,
          "internalType": "uint256",
          "name": "when",
          "type": "uint256"
        }
      ],
      "name": "UtilityInjected",
      "type": "event"
    },
    {
      "anonymous": false,
      "inputs": [
        {
          "indexed": true,
          "internalType": "address",
          "name": "to",
          "type": "address"
        },
        {
          "indexed": false,
          "internalType": "enum PoolPandorasSepolia.TokenType",
          "name": "token",
          "type": "uint8"
        },
        {
          "indexed": false,
          "internalType": "uint256",
          "name": "amount",
          "type": "uint256"
        },
        {
          "indexed": false,
          "internalType": "uint256",
          "name": "when",
          "type": "uint256"
        }
      ],
      "name": "UtilityWithdrawn",
      "type": "event"
    },
    {
      "anonymous": false,
      "inputs": [
        {
          "indexed": true,
          "internalType": "address",
          "name": "user",
          "type": "address"
        },
        {
          "indexed": false,
          "internalType": "enum PoolPandorasSepolia.TokenType",
          "name": "token",
          "type": "uint8"
        },
        {
          "indexed": false,
          "internalType": "uint256",
          "name": "principal",
          "type": "uint256"
        },
        {
          "indexed": false,
          "internalType": "uint256",
          "name": "yield",
          "type": "uint256"
        },
        {
          "indexed": false,
          "internalType": "uint256",
          "name": "when",
          "type": "uint256"
        },
        {
          "indexed": false,
          "internalType": "uint256",
          "name": "depositIndex",
          "type": "uint256"
        }
      ],
      "name": "Withdraw",
      "type": "event"
    },
    {
      "anonymous": false,
      "inputs": [
        {
          "indexed": true,
          "internalType": "address",
          "name": "manager",
          "type": "address"
        },
        {
          "indexed": false,
          "internalType": "enum PoolPandorasSepolia.TokenType",
          "name": "token",
          "type": "uint8"
        },
        {
          "indexed": true,
          "internalType": "address",
          "name": "to",
          "type": "address"
        },
        {
          "indexed": false,
          "internalType": "uint256",
          "name": "amount",
          "type": "uint256"
        },
        {
          "indexed": false,
          "internalType": "uint256",
          "name": "when",
          "type": "uint256"
        }
      ],
      "name": "WithdrawnForInvestment",
      "type": "event"
    },
    {
      "inputs": [],
      "name": "ADMIN_ROLE",
      "outputs": [
        {
          "internalType": "bytes32",
          "name": "",
          "type": "bytes32"
        }
      ],
      "stateMutability": "view",
      "type": "function"
    },
    {
      "inputs": [],
      "name": "DEFAULT_ADMIN_ROLE",
      "outputs": [
        {
          "internalType": "bytes32",
          "name": "",
          "type": "bytes32"
        }
      ],
      "stateMutability": "view",
      "type": "function"
    },
    {
      "inputs": [],
      "name": "MANAGER_ROLE",
      "outputs": [
        {
          "internalType": "bytes32",
          "name": "",
          "type": "bytes32"
        }
      ],
      "stateMutability": "view",
      "type": "function"
    },
    {
      "inputs": [],
      "name": "PAUSER_ROLE",
      "outputs": [
        {
          "internalType": "bytes32",
          "name": "",
          "type": "bytes32"
        }
      ],
      "stateMutability": "view",
      "type": "function"
    },
    {
      "inputs": [],
      "name": "UNLOCKER_ROLE",
      "outputs": [
        {
          "internalType": "bytes32",
          "name": "",
          "type": "bytes32"
        }
      ],
      "stateMutability": "view",
      "type": "function"
    },
    {
      "inputs": [],
      "name": "UTILITY_INJECTOR_ROLE",
      "outputs": [
        {
          "internalType": "bytes32",
          "name": "",
          "type": "bytes32"
        }
      ],
      "stateMutability": "view",
      "type": "function"
    },
    {
      "inputs": [],
      "name": "UTILITY_WITHDRAWER_ROLE",
      "outputs": [
        {
          "internalType": "bytes32",
          "name": "",
          "type": "bytes32"
        }
      ],
      "stateMutability": "view",
      "type": "function"
    },
    {
      "inputs": [
        {
          "internalType": "address",
          "name": "user",
          "type": "address"
        },
        {
          "internalType": "uint256",
          "name": "amount",
          "type": "uint256"
        }
      ],
      "name": "assignUtilityETH",
      "outputs": [],
      "stateMutability": "nonpayable",
      "type": "function"
    },
    {
      "inputs": [
        {
          "internalType": "address[]",
          "name": "users",
          "type": "address[]"
        },
        {
          "internalType": "uint256[]",
          "name": "amounts",
          "type": "uint256[]"
        }
      ],
      "name": "assignUtilityETHBatch",
      "outputs": [],
      "stateMutability": "nonpayable",
      "type": "function"
    },
    {
      "inputs": [
        {
          "internalType": "address",
          "name": "user",
          "type": "address"
        },
        {
          "internalType": "uint256",
          "name": "amount",
          "type": "uint256"
        }
      ],
      "name": "assignUtilityUSDC",
      "outputs": [],
      "stateMutability": "nonpayable",
      "type": "function"
    },
    {
      "inputs": [
        {
          "internalType": "address[]",
          "name": "users",
          "type": "address[]"
        },
        {
          "internalType": "uint256[]",
          "name": "amounts",
          "type": "uint256[]"
        }
      ],
      "name": "assignUtilityUSDCBatch",
      "outputs": [],
      "stateMutability": "nonpayable",
      "type": "function"
    },
    {
      "inputs": [
        {
          "internalType": "uint256[]",
          "name": "depositIndices",
          "type": "uint256[]"
        }
      ],
      "name": "batchWithdraw",
      "outputs": [],
      "stateMutability": "nonpayable",
      "type": "function"
    },
    {
      "inputs": [],
      "name": "claimUtilityETH",
      "outputs": [],
      "stateMutability": "nonpayable",
      "type": "function"
    },
    {
      "inputs": [],
      "name": "claimUtilityUSDC",
      "outputs": [],
      "stateMutability": "nonpayable",
      "type": "function"
    },
    {
      "inputs": [],
      "name": "depositETH",
      "outputs": [],
      "stateMutability": "payable",
      "type": "function"
    },
    {
      "inputs": [
        {
          "internalType": "uint256",
          "name": "amount",
          "type": "uint256"
        }
      ],
      "name": "depositUSDC",
      "outputs": [],
      "stateMutability": "nonpayable",
      "type": "function"
    },
    {
      "inputs": [],
      "name": "enableGlobalLiquidation",
      "outputs": [],
      "stateMutability": "nonpayable",
      "type": "function"
    },
    {
      "inputs": [
        {
          "internalType": "bytes32",
          "name": "role",
          "type": "bytes32"
        }
      ],
      "name": "getRoleAdmin",
      "outputs": [
        {
          "internalType": "bytes32",
          "name": "",
          "type": "bytes32"
        }
      ],
      "stateMutability": "view",
      "type": "function"
    },
    {
      "inputs": [
        {
          "internalType": "address",
          "name": "user",
          "type": "address"
        }
      ],
      "name": "getUserDeposits",
      "outputs": [
        {
          "components": [
            {
              "internalType": "uint96",
              "name": "amount",
              "type": "uint96"
            },
            {
              "internalType": "uint96",
              "name": "yieldReceived",
              "type": "uint96"
            },
            {
              "internalType": "uint48",
              "name": "timestamp",
              "type": "uint48"
            },
            {
              "internalType": "uint48",
              "name": "withdrawnAt",
              "type": "uint48"
            },
            {
              "internalType": "enum PoolPandorasSepolia.TokenType",
              "name": "token",
              "type": "uint8"
            },
            {
              "internalType": "uint8",
              "name": "flags",
              "type": "uint8"
            }
          ],
          "internalType": "struct PoolPandorasSepolia.DepositInfo[]",
          "name": "",
          "type": "tuple[]"
        }
      ],
      "stateMutability": "view",
      "type": "function"
    },
    {
      "inputs": [
        {
          "internalType": "address",
          "name": "user",
          "type": "address"
        }
      ],
      "name": "getUserStats",
      "outputs": [
        {
          "internalType": "uint256",
          "name": "depositedETH",
          "type": "uint256"
        },
        {
          "internalType": "uint256",
          "name": "depositedUSDC",
          "type": "uint256"
        },
        {
          "internalType": "uint256",
          "name": "withdrawnETH",
          "type": "uint256"
        },
        {
          "internalType": "uint256",
          "name": "withdrawnUSDC",
          "type": "uint256"
        },
        {
          "internalType": "uint256",
          "name": "claimableUtilityETH",
          "type": "uint256"
        },
        {
          "internalType": "uint256",
          "name": "claimableUtilityUSDC",
          "type": "uint256"
        },
        {
          "internalType": "uint256",
          "name": "reinvestedETH",
          "type": "uint256"
        },
        {
          "internalType": "uint256",
          "name": "reinvestedUSDC",
          "type": "uint256"
        }
      ],
      "stateMutability": "view",
      "type": "function"
    },
    {
      "inputs": [],
      "name": "getVaultStats",
      "outputs": [
        {
          "internalType": "uint256",
          "name": "ethInVault",
          "type": "uint256"
        },
        {
          "internalType": "uint256",
          "name": "usdcInVault",
          "type": "uint256"
        },
        {
          "internalType": "uint256",
          "name": "totalDepositedETH_",
          "type": "uint256"
        },
        {
          "internalType": "uint256",
          "name": "totalDepositedUSDC_",
          "type": "uint256"
        },
        {
          "internalType": "uint256",
          "name": "totalWithdrawnETH_",
          "type": "uint256"
        },
        {
          "internalType": "uint256",
          "name": "totalWithdrawnUSDC_",
          "type": "uint256"
        },
        {
          "internalType": "uint256",
          "name": "totalUtilityETH_",
          "type": "uint256"
        },
        {
          "internalType": "uint256",
          "name": "totalUtilityUSDC_",
          "type": "uint256"
        },
        {
          "internalType": "uint256",
          "name": "totalReinvestedETH_",
          "type": "uint256"
        },
        {
          "internalType": "uint256",
          "name": "totalReinvestedUSDC_",
          "type": "uint256"
        },
        {
          "internalType": "uint256",
          "name": "totalInvestedETH_",
          "type": "uint256"
        },
        {
          "internalType": "uint256",
          "name": "totalInvestedUSDC_",
          "type": "uint256"
        },
        {
          "internalType": "uint256",
          "name": "numDepositors",
          "type": "uint256"
        },
        {
          "internalType": "uint256",
          "name": "numWithdrawnUsers",
          "type": "uint256"
        }
      ],
      "stateMutability": "view",
      "type": "function"
    },
    {
      "inputs": [],
      "name": "globalLiquidationEnabled",
      "outputs": [
        {
          "internalType": "bool",
          "name": "",
          "type": "bool"
        }
      ],
      "stateMutability": "view",
      "type": "function"
    },
    {
      "inputs": [],
      "name": "globalLiquidationTimestamp",
      "outputs": [
        {
          "internalType": "uint48",
          "name": "",
          "type": "uint48"
        }
      ],
      "stateMutability": "view",
      "type": "function"
    },
    {
      "inputs": [
        {
          "internalType": "bytes32",
          "name": "role",
          "type": "bytes32"
        },
        {
          "internalType": "address",
          "name": "account",
          "type": "address"
        }
      ],
      "name": "grantRole",
      "outputs": [],
      "stateMutability": "nonpayable",
      "type": "function"
    },
    {
      "inputs": [
        {
          "internalType": "bytes32",
          "name": "role",
          "type": "bytes32"
        },
        {
          "internalType": "address",
          "name": "account",
          "type": "address"
        }
      ],
      "name": "hasRole",
      "outputs": [
        {
          "internalType": "bool",
          "name": "",
          "type": "bool"
        }
      ],
      "stateMutability": "view",
      "type": "function"
    },
    {
      "inputs": [
        {
          "internalType": "address",
          "name": "",
          "type": "address"
        }
      ],
      "name": "hasWithdrawn",
      "outputs": [
        {
          "internalType": "bool",
          "name": "",
          "type": "bool"
        }
      ],
      "stateMutability": "view",
      "type": "function"
    },
    {
      "inputs": [],
      "name": "injectUtilityETH",
      "outputs": [],
      "stateMutability": "payable",
      "type": "function"
    },
    {
      "inputs": [
        {
          "internalType": "uint256",
          "name": "amount",
          "type": "uint256"
        }
      ],
      "name": "injectUtilityUSDC",
      "outputs": [],
      "stateMutability": "nonpayable",
      "type": "function"
    },
    {
      "inputs": [
        {
          "internalType": "address",
          "name": "",
          "type": "address"
        }
      ],
      "name": "isKnownDepositor",
      "outputs": [
        {
          "internalType": "bool",
          "name": "",
          "type": "bool"
        }
      ],
      "stateMutability": "view",
      "type": "function"
    },
    {
      "inputs": [
        {
          "internalType": "address",
          "name": "forwarder",
          "type": "address"
        }
      ],
      "name": "isTrustedForwarder",
      "outputs": [
        {
          "internalType": "bool",
          "name": "",
          "type": "bool"
        }
      ],
      "stateMutability": "view",
      "type": "function"
    },
    {
      "inputs": [
        {
          "internalType": "address",
          "name": "",
          "type": "address"
        }
      ],
      "name": "isWhitelisted",
      "outputs": [
        {
          "internalType": "bool",
          "name": "",
          "type": "bool"
        }
      ],
      "stateMutability": "view",
      "type": "function"
    },
    {
      "inputs": [],
      "name": "lockupPeriod",
      "outputs": [
        {
          "internalType": "uint256",
          "name": "",
          "type": "uint256"
        }
      ],
      "stateMutability": "view",
      "type": "function"
    },
    {
      "inputs": [],
      "name": "maxCapETH",
      "outputs": [
        {
          "internalType": "uint256",
          "name": "",
          "type": "uint256"
        }
      ],
      "stateMutability": "view",
      "type": "function"
    },
    {
      "inputs": [],
      "name": "maxCapUSDC",
      "outputs": [
        {
          "internalType": "uint256",
          "name": "",
          "type": "uint256"
        }
      ],
      "stateMutability": "view",
      "type": "function"
    },
    {
      "inputs": [],
      "name": "pausedDeposits",
      "outputs": [
        {
          "internalType": "bool",
          "name": "",
          "type": "bool"
        }
      ],
      "stateMutability": "view",
      "type": "function"
    },
    {
      "inputs": [],
      "name": "pausedWithdrawals",
      "outputs": [
        {
          "internalType": "bool",
          "name": "",
          "type": "bool"
        }
      ],
      "stateMutability": "view",
      "type": "function"
    },
    {
      "inputs": [],
      "name": "reinvestUtilityETH",
      "outputs": [],
      "stateMutability": "nonpayable",
      "type": "function"
    },
    {
      "inputs": [],
      "name": "reinvestUtilityUSDC",
      "outputs": [],
      "stateMutability": "nonpayable",
      "type": "function"
    },
    {
      "inputs": [
        {
          "internalType": "bytes32",
          "name": "role",
          "type": "bytes32"
        },
        {
          "internalType": "address",
          "name": "callerConfirmation",
          "type": "address"
        }
      ],
      "name": "renounceRole",
      "outputs": [],
      "stateMutability": "nonpayable",
      "type": "function"
    },
    {
      "inputs": [
        {
          "internalType": "address",
          "name": "token",
          "type": "address"
        },
        {
          "internalType": "address",
          "name": "to",
          "type": "address"
        },
        {
          "internalType": "uint256",
          "name": "amount",
          "type": "uint256"
        }
      ],
      "name": "rescueERC20",
      "outputs": [],
      "stateMutability": "nonpayable",
      "type": "function"
    },
    {
      "inputs": [],
      "name": "returnInvestmentETH",
      "outputs": [],
      "stateMutability": "payable",
      "type": "function"
    },
    {
      "inputs": [
        {
          "internalType": "uint256",
          "name": "amount",
          "type": "uint256"
        }
      ],
      "name": "returnInvestmentUSDC",
      "outputs": [],
      "stateMutability": "nonpayable",
      "type": "function"
    },
    {
      "inputs": [
        {
          "internalType": "bytes32",
          "name": "role",
          "type": "bytes32"
        },
        {
          "internalType": "address",
          "name": "account",
          "type": "address"
        }
      ],
      "name": "revokeRole",
      "outputs": [],
      "stateMutability": "nonpayable",
      "type": "function"
    },
    {
      "inputs": [
        {
          "internalType": "address",
          "name": "user",
          "type": "address"
        },
        {
          "internalType": "uint256[]",
          "name": "depositIndices",
          "type": "uint256[]"
        }
      ],
      "name": "setDepositsAsRedeemable",
      "outputs": [],
      "stateMutability": "nonpayable",
      "type": "function"
    },
    {
      "inputs": [
        {
          "internalType": "uint256",
          "name": "newPeriod",
          "type": "uint256"
        }
      ],
      "name": "setLockupPeriod",
      "outputs": [],
      "stateMutability": "nonpayable",
      "type": "function"
    },
    {
      "inputs": [
        {
          "internalType": "enum PoolPandorasSepolia.TokenType",
          "name": "token",
          "type": "uint8"
        },
        {
          "internalType": "uint256",
          "name": "newCap",
          "type": "uint256"
        }
      ],
      "name": "setMaxCap",
      "outputs": [],
      "stateMutability": "nonpayable",
      "type": "function"
    },
    {
      "inputs": [
        {
          "internalType": "bool",
          "name": "_deposits",
          "type": "bool"
        },
        {
          "internalType": "bool",
          "name": "_withdrawals",
          "type": "bool"
        }
      ],
      "name": "setPaused",
      "outputs": [],
      "stateMutability": "nonpayable",
      "type": "function"
    },
    {
      "inputs": [
        {
          "internalType": "address",
          "name": "newUtilityAddress",
          "type": "address"
        }
      ],
      "name": "setUtilityAddress",
      "outputs": [],
      "stateMutability": "nonpayable",
      "type": "function"
    },
    {
      "inputs": [
        {
          "internalType": "address",
          "name": "user",
          "type": "address"
        },
        {
          "internalType": "bool",
          "name": "status",
          "type": "bool"
        }
      ],
      "name": "setWhitelist",
      "outputs": [],
      "stateMutability": "nonpayable",
      "type": "function"
    },
    {
      "inputs": [
        {
          "internalType": "address[]",
          "name": "users",
          "type": "address[]"
        },
        {
          "internalType": "bool[]",
          "name": "statuses",
          "type": "bool[]"
        }
      ],
      "name": "setWhitelistBatch",
      "outputs": [],
      "stateMutability": "nonpayable",
      "type": "function"
    },
    {
      "inputs": [
        {
          "internalType": "bool",
          "name": "enabled",
          "type": "bool"
        }
      ],
      "name": "setWhitelistEnabled",
      "outputs": [],
      "stateMutability": "nonpayable",
      "type": "function"
    },
    {
      "inputs": [
        {
          "internalType": "bytes4",
          "name": "interfaceId",
          "type": "bytes4"
        }
      ],
      "name": "supportsInterface",
      "outputs": [
        {
          "internalType": "bool",
          "name": "",
          "type": "bool"
        }
      ],
      "stateMutability": "view",
      "type": "function"
    },
    {
      "inputs": [],
      "name": "totalDepositedETH",
      "outputs": [
        {
          "internalType": "uint256",
          "name": "",
          "type": "uint256"
        }
      ],
      "stateMutability": "view",
      "type": "function"
    },
    {
      "inputs": [],
      "name": "totalDepositedUSDC",
      "outputs": [
        {
          "internalType": "uint256",
          "name": "",
          "type": "uint256"
        }
      ],
      "stateMutability": "view",
      "type": "function"
    },
    {
      "inputs": [],
      "name": "totalInvestedETH",
      "outputs": [
        {
          "internalType": "uint256",
          "name": "",
          "type": "uint256"
        }
      ],
      "stateMutability": "view",
      "type": "function"
    },
    {
      "inputs": [],
      "name": "totalInvestedUSDC",
      "outputs": [
        {
          "internalType": "uint256",
          "name": "",
          "type": "uint256"
        }
      ],
      "stateMutability": "view",
      "type": "function"
    },
    {
      "inputs": [],
      "name": "totalReinvestedETH",
      "outputs": [
        {
          "internalType": "uint256",
          "name": "",
          "type": "uint256"
        }
      ],
      "stateMutability": "view",
      "type": "function"
    },
    {
      "inputs": [],
      "name": "totalReinvestedUSDC",
      "outputs": [
        {
          "internalType": "uint256",
          "name": "",
          "type": "uint256"
        }
      ],
      "stateMutability": "view",
      "type": "function"
    },
    {
      "inputs": [],
      "name": "totalUtilityETH",
      "outputs": [
        {
          "internalType": "uint256",
          "name": "",
          "type": "uint256"
        }
      ],
      "stateMutability": "view",
      "type": "function"
    },
    {
      "inputs": [],
      "name": "totalUtilityUSDC",
      "outputs": [
        {
          "internalType": "uint256",
          "name": "",
          "type": "uint256"
        }
      ],
      "stateMutability": "view",
      "type": "function"
    },
    {
      "inputs": [],
      "name": "totalWithdrawnETH",
      "outputs": [
        {
          "internalType": "uint256",
          "name": "",
          "type": "uint256"
        }
      ],
      "stateMutability": "view",
      "type": "function"
    },
    {
      "inputs": [],
      "name": "totalWithdrawnUSDC",
      "outputs": [
        {
          "internalType": "uint256",
          "name": "",
          "type": "uint256"
        }
      ],
      "stateMutability": "view",
      "type": "function"
    },
    {
      "inputs": [],
      "name": "trustedForwarder",
      "outputs": [
        {
          "internalType": "address",
          "name": "",
          "type": "address"
        }
      ],
      "stateMutability": "view",
      "type": "function"
    },
    {
      "inputs": [
        {
          "internalType": "address",
          "name": "user",
          "type": "address"
        },
        {
          "internalType": "uint256[]",
          "name": "depositIndices",
          "type": "uint256[]"
        }
      ],
      "name": "unlockDepositsForUser",
      "outputs": [],
      "stateMutability": "nonpayable",
      "type": "function"
    },
    {
      "inputs": [],
      "name": "usdc",
      "outputs": [
        {
          "internalType": "contract IERC20",
          "name": "",
          "type": "address"
        }
      ],
      "stateMutability": "view",
      "type": "function"
    },
    {
      "inputs": [
        {
          "internalType": "address",
          "name": "",
          "type": "address"
        }
      ],
      "name": "userClaimableUtilityETH",
      "outputs": [
        {
          "internalType": "uint256",
          "name": "",
          "type": "uint256"
        }
      ],
      "stateMutability": "view",
      "type": "function"
    },
    {
      "inputs": [
        {
          "internalType": "address",
          "name": "",
          "type": "address"
        }
      ],
      "name": "userClaimableUtilityUSDC",
      "outputs": [
        {
          "internalType": "uint256",
          "name": "",
          "type": "uint256"
        }
      ],
      "stateMutability": "view",
      "type": "function"
    },
    {
      "inputs": [
        {
          "internalType": "address",
          "name": "",
          "type": "address"
        },
        {
          "internalType": "uint256",
          "name": "",
          "type": "uint256"
        }
      ],
      "name": "userDeposits",
      "outputs": [
        {
          "internalType": "uint96",
          "name": "amount",
          "type": "uint96"
        },
        {
          "internalType": "uint96",
          "name": "yieldReceived",
          "type": "uint96"
        },
        {
          "internalType": "uint48",
          "name": "timestamp",
          "type": "uint48"
        },
        {
          "internalType": "uint48",
          "name": "withdrawnAt",
          "type": "uint48"
        },
        {
          "internalType": "enum PoolPandorasSepolia.TokenType",
          "name": "token",
          "type": "uint8"
        },
        {
          "internalType": "uint8",
          "name": "flags",
          "type": "uint8"
        }
      ],
      "stateMutability": "view",
      "type": "function"
    },
    {
      "inputs": [
        {
          "internalType": "address",
          "name": "",
          "type": "address"
        }
      ],
      "name": "userTotalReinvestedETH",
      "outputs": [
        {
          "internalType": "uint256",
          "name": "",
          "type": "uint256"
        }
      ],
      "stateMutability": "view",
      "type": "function"
    },
    {
      "inputs": [
        {
          "internalType": "address",
          "name": "",
          "type": "address"
        }
      ],
      "name": "userTotalReinvestedUSDC",
      "outputs": [
        {
          "internalType": "uint256",
          "name": "",
          "type": "uint256"
        }
      ],
      "stateMutability": "view",
      "type": "function"
    },
    {
      "inputs": [],
      "name": "utilityAddress",
      "outputs": [
        {
          "internalType": "address",
          "name": "",
          "type": "address"
        }
      ],
      "stateMutability": "view",
      "type": "function"
    },
    {
      "inputs": [],
      "name": "whitelistEnabled",
      "outputs": [
        {
          "internalType": "bool",
          "name": "",
          "type": "bool"
        }
      ],
      "stateMutability": "view",
      "type": "function"
    },
    {
      "inputs": [
        {
          "internalType": "uint256",
          "name": "depositIndex",
          "type": "uint256"
        }
      ],
      "name": "withdraw",
      "outputs": [],
      "stateMutability": "nonpayable",
      "type": "function"
    },
    {
      "inputs": [
        {
          "internalType": "address",
          "name": "to",
          "type": "address"
        },
        {
          "internalType": "uint256",
          "name": "amount",
          "type": "uint256"
        }
      ],
      "name": "withdrawForInvestmentETH",
      "outputs": [],
      "stateMutability": "nonpayable",
      "type": "function"
    },
    {
      "inputs": [
        {
          "internalType": "address",
          "name": "to",
          "type": "address"
        },
        {
          "internalType": "uint256",
          "name": "amount",
          "type": "uint256"
        }
      ],
      "name": "withdrawForInvestmentUSDC",
      "outputs": [],
      "stateMutability": "nonpayable",
      "type": "function"
    },
    {
      "inputs": [
        {
          "internalType": "uint256",
          "name": "amount",
          "type": "uint256"
        }
      ],
      "name": "withdrawUtilityETH",
      "outputs": [],
      "stateMutability": "nonpayable",
      "type": "function"
    },
    {
      "inputs": [
        {
          "internalType": "uint256",
          "name": "amount",
          "type": "uint256"
        }
      ],
      "name": "withdrawUtilityUSDC",
      "outputs": [],
      "stateMutability": "nonpayable",
      "type": "function"
    },
    {
      "inputs": [
        {
          "internalType": "uint256",
          "name": "",
          "type": "uint256"
        }
      ],
      "name": "withdrawnUsers",
      "outputs": [
        {
          "internalType": "address",
          "name": "",
          "type": "address"
        }
      ],
      "stateMutability": "view",
      "type": "function"
    },
    {
      "stateMutability": "payable",
      "type": "receive"
    }
  ],
  "bytecode": "0x60c0604052346200026257620042bd803803806200001d816200027d565b928339810190608081830312620002625780516001600160401b03908181116200026257820183601f8201121562000262578051918211620002675760059382851b6020928380620000718185016200027d565b809781520192820101928311620002625783809101915b8383106200024757509050620000a191508401620002a3565b93620000be6060620000b660408701620002a3565b9501620002a3565b9460019485805560805262ed4e006002556a0422ca8b0a00a42500000060035560049265048c27395000845560018060a01b03918281161562000236578354600160501b600160f01b03191660509190911b600160501b600160f01b031617835595811660a0526000958694865b620001a1575b604051613b4e90816200074f8239608051818181611abb0152818161263c0152613879015260a0518181816103db01528181610d8f015281816113d3015281816116b501528181611b5501528181611d90015281816122460152818161254201528181612a170152612d510152f35b805188101562000230576200020783838a871b8401015116620001c481620002b8565b50620001d08162000345565b50620001dc81620003f4565b50620001e88162000494565b50620001f48162000534565b506200020081620005d4565b5062000674565b5060001988146200021d5786809801976200012c565b634e487b7160e01b865260118552602486fd5b62000132565b60405163d92e233d60e01b81528590fd5b81906200025484620002a3565b815201910190839062000088565b600080fd5b634e487b7160e01b600052604160045260246000fd5b6040519190601f01601f191682016001600160401b038111838210176200026757604052565b51906001600160a01b03821682036200026257565b6001600160a01b0390811660008181527fad3228b676f7d3cd4284a5443f17f1962b36e491b30a40b2405849e597ba5fb5602052604081205490929060ff166200034057828052826020526040832082845260205260408320600160ff19825416179055620003266200070f565b16916000805160206200429d8339815191528180a4600190565b505090565b6001600160a01b0390811660008181527f7d7ffb7a348e1c6a02869081a26547b49160dd3df72d1d75a570eb9b698292ec602052604081205490927fa49807205ce4d355092ef5a8a18f56e8913cf4a201fbe287825b095693c217759160ff16620003ee576000805160206200429d83398151915290828552846020526040852084865260205260408520600160ff19825416179055620003e56200070f565b169380a4600190565b50505090565b6001600160a01b0390811660008181527ff7c9542c591017a21c74b6f3fab6263c7952fc0aaf9db4c22a2a04ddc7f8674f602052604081205490927f65d7a28e3265b37a6474929f336521b332c1681b933f6cb9f3376673440d862a9160ff16620003ee576000805160206200429d83398151915290828552846020526040852084865260205260408520600160ff19825416179055620003e56200070f565b6001600160a01b0390811660008181527f2eb8dcb37180405b14a1bdb0a7c9bf5c42acb064f7e582ada9a56e709d942e57602052604081205490927fc806897caf4fd5068191157e44d3988e43139a37e0b97b6793e1ed11841406049160ff16620003ee576000805160206200429d83398151915290828552846020526040852084865260205260408520600160ff19825416179055620003e56200070f565b6001600160a01b0390811660008181527f9505c8401a8a13f8b514b3efaaa61be2dc9810e3f02fbd8edeba297fdd793d65602052604081205490927ff60566c40710959d8d30b6067ce3c53c757bec78eecb0e46b83c7f8194ffae379160ff16620003ee576000805160206200429d83398151915290828552846020526040852084865260205260408520600160ff19825416179055620003e56200070f565b6001600160a01b0390811660008181527fca62ffb99fa36d4130bbee1a8581c4d2fd87e1d2bf4a5e65538ad96ae66582c9602052604081205490927f78c90eb9e475048b483a290aee04b5fe48355537c3623c7637b17d3bed71c6ed9160ff16620003ee576000805160206200429d83398151915290828552846020526040852084865260205260408520600160ff19825416179055620003e56200070f565b6001600160a01b0390811660008181527fe84508f2c7fa9c351146748b3025cb78b45df37d868e48c6a75102fecdeee645602052604081205490927f241ecf16d79d0f8dbfb92cbc07fe17840425976cf0667f022fe9877caa831b089160ff16620003ee576000805160206200429d83398151915290828552846020526040852084865260205260408520600160ff19825416179055620003e55b60143610158062000739575b156200073557601319360136811162000262573560601c90565b3390565b506080516001600160a01b031633146200071b56fe608080604052600436101561001d575b50361561001b57600080fd5b005b60003560e01c90816301ffc9a7146133cf5750806304c68af014613395578063052d9e7e1461335657806308f43333146132b25780630c016ad51461327757806317b51642146131ee5780631c5aeef7146131d0578063246d47b7146131aa578063248a9ca31461317b57806327175b231461315d578063275991d214612f1f5780632a5bf6d214612e005780632aad5edd14612de25780632e1a7d4d14612b6d5780632f2ff15d14612b2e5780633408567c14612af457806336568abe14612aa35780633ac4397014612a855780633af32abf14612a465780633e413bee14612a0157806341debf1f1461296557806347af19aa146128945780634e43603a1461270757806351fb012d146126e157806353d6fd5914612663578063572b6c0514612613578063588583a0146125eb5780635983b0bd146124c35780635e2c19db146124845780636068d6cb1461246157806364021b13146123ed5780636426be481461230e57806365d5ec96146122cf5780636c6ff56c146121bf5780636ec239951461215e57806372e5539914611c8b57806375b238fc14611c50578063762e1c7314611bea57806376c1d3db14611aea5780637da0a87714611aa5578063867d099a14611935578063885f5029146118fa578063886d589d146118c0578063899aa991146118a257806389bad0a6146118045780638b713b2e146117e65780638dd4928e1461165a57806391d148541461160d57806393055c431461156e57806397d9e5b4146115505780639ddc3912146115325780639e657e33146114d7578063a217fddf146114bb578063a59aa5a6146113a6578063b2118a8d146112d8578063b2b77ae2146112b2578063b65ba94b14611294578063b758aeaa146111bd578063bda821e814610f81578063c6d95b7414610ebc578063c771c39014610e70578063d547741f14610e31578063d830d5cc14610d2f578063da8d5add14610ca1578063e043b2b214610c66578063e15e23c114610c48578063e340b78314610c2a578063e399067f14610b61578063e63ab1e914610b26578063e9fe0c7814610aec578063ec87621c14610ab1578063ee947a7c14610a93578063f29b223914610a66578063f5f11350146109e0578063f5f69af21461096d578063f6326fb314610740578063f688bcfb146103a75763fd46a17114610384573861000f565b346103a25760003660031901126103a2576020601754604051908152f35b600080fd5b346103a2576020806003193601126103a257600435906103c5613972565b60055460ff811661072e576001600160a01b03907f0000000000000000000000000000000000000000000000000000000000000000821690811561071c57841561070a57610415856010546138e7565b600454106106f85760101c60ff16806106d7575b6106c55782846104799261043b61384e565b6040516323b872dd60e01b81526001600160a01b03909116600482015230602482015260448101929092529092839190829060009082906064820190565b03925af180156106b95761068c575b5061049161384e565b16918260005260068252604060002092604051936104ae856138f4565b6001600160601b03808416865284860160008152604087019665ffffffffffff908142168952606081019360008552608082019360019a8b865260a0840197600089528054600160401b8110156106765761050d918e8201815561346c565b9390936106605793518354925191516001600160f01b031990931694169390931760609390931b600160601b600160c01b03169290921760c09290921b65ffffffffffff60c01b1691909117815592519288018054925191909316939091600283101561064a576105ae9460ff60301b60ff9460301b169166ffffffffffffff191617178355511660ff60381b82549160381b169060ff60381b1916179055565b80600052600d8352604060002084815460ff81161561063b575b505060068452506040600020546000198101939084116106255760a0600080516020613ad98339815191529161061e958560405192898452830152426040830152606082015260006080820152a26010546138e7565b6010558055005b634e487b7160e01b600052601160045260246000fd5b60ff19161790558484816105c8565b634e487b7160e01b600052602160045260246000fd5b634e487b7160e01b600052600060045260246000fd5b634e487b7160e01b600052604160045260246000fd5b6106ab90833d85116106b2575b6106a38183613910565b810190613995565b5083610488565b503d610699565b6040513d6000823e3d90fd5b604051630b094f2760e31b8152600490fd5b50816106e161384e565b166000526007835260ff6040600020541615610429565b604051636bf4c8e960e11b8152600490fd5b60405163162908e360e11b8152600490fd5b60405163d92e233d60e01b8152600490fd5b60405163deeb694360e01b8152600490fd5b60003660031901126103a257610754613972565b60055460ff811661072e57341561070a5761077134600f546138e7565b600354106106f85760101c60ff1680610944575b6106c5576001600160a01b0361079961384e565b1680600052600660205260406000206040516107b4816138f4565b6001600160601b03908134168152602081019160008352604082019165ffffffffffff91824216845260608201946000865260808301946000865260a0840197600089528054600160401b811015610676576108159160018201815561346c565b9390936106605793518354925191516001600160f01b031990931694169390931760609390931b600160601b600160c01b03169290921760c09290921b65ffffffffffff60c01b1691909117815592516001939093018054925191909316939091600283101561064a576108b99460ff60301b60ff9460301b169166ffffffffffffff191617178355511660ff60381b82549160381b169060ff60381b1916179055565b80600052600d6020526040600020805460ff811615610934575b5050600660205260406000205460001981019081116106255760a0600080516020613ad9833981519152916040519060008252346020830152426040830152606082015260006080820152a261092b34600f546138e7565b600f5560018055005b60ff1916600117905581806108d3565b506001600160a01b0361095561384e565b16600052600760205260ff6040600020541615610785565b346103a25760403660031901126103a25760043560028110156103a25760407f5d7976bccd4b396c1a1a0020032e62bf8a381bcffc61e69a13ea61761b757218916024356109b9613567565b816109d757806003555b6109cf8351809361349e565b6020820152a1005b806004556109c3565b346103a2576109ee36613527565b906109f7613567565b60005b828110610a0357005b610a619060018060a01b0385166000526006602052610a5c6001610a376040600020610a308589896138b6565b359061346c565b5001805460ff60381b198116603891821c60ff1660041790911b60ff60381b16179055565b6138a7565b6109fa565b346103a25760003660031901126103a25760055460405160509190911c6001600160a01b03168152602090f35b346103a25760003660031901126103a2576020600254604051908152f35b346103a25760003660031901126103a25760206040517f241ecf16d79d0f8dbfb92cbc07fe17840425976cf0667f022fe9877caa831b088152f35b346103a25760203660031901126103a2576001600160a01b03610b0d613422565b16600052600a6020526020604060002054604051908152f35b346103a25760003660031901126103a25760206040517f65d7a28e3265b37a6474929f336521b332c1681b933f6cb9f3376673440d862a8152f35b346103a25760003660031901126103a257610b7a613972565b610b8261384e565b6001600160a01b03811660008181526009602052604090205490918115610c18576000808084819487835260096020528260408120555af1610bc2613932565b5015610c065760607f6914793c7a82461acec66c7de7fdbbbf1f825c26bc2fe939b61f0e4f8964c2b59160405190600082526020820152426040820152a260018055005b6040516312171d8360e31b8152600490fd5b604051633bd65a7b60e21b8152600490fd5b346103a25760003660031901126103a2576020601254604051908152f35b346103a25760003660031901126103a2576020601654604051908152f35b346103a25760003660031901126103a25760206040517fc806897caf4fd5068191157e44d3988e43139a37e0b97b6793e1ed11841406048152f35b346103a25760003660031901126103a257610cba613567565b60055460ff8160181c16610d1d5763010000009069ffffffffffff000000004260201b169069ffffffffffffff000000191617176005557f2388ceaed48d21bd0802856df41a22705f9046a67a817a047352aa3bbfe5c5d16020604051428152a1005b60405163ae7fe58960e01b8152600490fd5b346103a25760203660031901126103a257600435610d4b613641565b801561070a5780610d5a61384e565b6040516323b872dd60e01b81526001600160a01b039182166004820152306024820152604481019290925260208260648160007f000000000000000000000000000000000000000000000000000000000000000086165af19081156106b9577f8bafec96fcffb6f12596b4635c76397b7bc1f363b22c49c13136b63677323dcc92606092610e13575b50610df0846014546138e7565b601455610dfb61384e565b604051946001865260208601524260408601521692a2005b610e2a9060203d81116106b2576106a38183613910565b5084610de3565b346103a25760403660031901126103a25761001b600435610e50613438565b90806000526000602052610e6b60016040600020015461371b565b6137dc565b346103a25760203660031901126103a2577fc5e00a325524bc148ddc05bb642b804e9ae1dfc670c217ed3c4c6595f7427ef46020600435610eaf613567565b80600255604051908152a1005b346103a25760403660031901126103a257610ed5613422565b602435610ee06135d4565b610ee8613972565b6001600160a01b0382811692831561071c57478311610f6f5760008080858194610f14826017546138e7565b6017555af1610f21613932565b5015610c065760607f8d4f9c9a6da9172da9a02229d92e4af088c62953986a74048d010260b197def391610f5361384e565b604051946000865260208601524260408601521692a360018055005b604051631e9acf1760e31b8152600490fd5b346103a25760003660031901126103a257610f9a613972565b6001600160a01b03610faa61384e565b1680600052602090600a82526040600020548015610c185781600052600a8352600060408120556006835260406000209260405193610fe8856138f4565b6001600160601b03808416865282860160008152604087019665ffffffffffff908142168952606081019360008552608082019360019a8b865260a0840197600889528054600160401b81101561067657611047918e8201815561346c565b9390936106605793518354925191516001600160f01b031990931694169390931760609390931b600160601b600160c01b03169290921760c09290921b65ffffffffffff60c01b1691909117815592519288018054925191909316939091600283101561064a576110e89460ff60301b60ff9460301b169166ffffffffffffff191617178355511660ff60381b82549160381b169060ff60381b1916179055565b82600052600d8152604060002084815460ff8116156111ae575b50506006825250604060002054600019810191908211610625577f997d2ec09b086de73d509bbc4ad2b52fd7e2338024464bede93a41abd6ccdc389284600080516020613ad983398151915260a0606095604051908a8252858783015242604083015287820152896080820152a261117c816016546138e7565b60165584600052600c825260406000206111978282546138e7565b905560405191868352820152426040820152a28055005b60ff1916179055848481611102565b346103a2576111cb366134dc565b92916111d5613567565b838103611282579291906000936000935b818510611218576013548681811161120657611201916139ad565b601355005b604051632f37549d60e01b8152600490fd5b90919293946112288683866138b6565b3590811561070a5761127991611273916001600160a01b0361125361124e8b898c6138b6565b6138d3565b166000526009602052604060002061126c8382546138e7565b90556138e7565b956138a7565b939291906111e6565b60405163512509d360e11b8152600490fd5b346103a25760003660031901126103a2576020601354604051908152f35b346103a25760003660031901126103a257602060ff60055460081c166040519015158152f35b346103a25760603660031901126103a2576112f1613422565b6112f9613438565b60443591611305613567565b6001600160a01b038281169390841561071c5760405163a9059cbb60e01b81526001600160a01b03949094166004850152602484018290529190911691906020826044816000875af19081156106b9577f8bbfbb5d7fcacf6fc74005cdede0635561638507f576c95f7f294c22141be2e592602092611389575b50604051908152a3005b61139f90833d81116106b2576106a38183613910565b508561137f565b346103a25760003660031901126103a2576040516370a0823160e01b8152306004820152476020826024817f00000000000000000000000000000000000000000000000000000000000000006001600160a01b03165afa80156106b957600090611488575b6101c09250600f546010546011546012546013546014549060155492601654946017549660185498600e549a6040519c8d5260208d015260408c015260608b015260808a015260a089015260c088015260e087015261010086015261012085015261014084015261016083015260006101808301526101a0820152f35b506020823d82116114b3575b816114a160209383613910565b810103126103a2576101c0915161140b565b3d9150611494565b346103a25760003660031901126103a257602060405160008152f35b346103a25760203660031901126103a257600435600e548110156103a257600e6000527fbb7b4a454dc3493923482f07822329ed19e8244eff582cc204f8554c3620c3fd01546040516001600160a01b039091168152602090f35b346103a25760003660031901126103a2576020600354604051908152f35b346103a25760003660031901126103a2576020601554604051908152f35b346103a25760203660031901126103a25760043561158a6136ae565b611592613972565b6005546001600160a01b039060501c8116801561071c57478311610f6f57600080808581945af16115c1613932565b5015610c065760607f9adbdc797aca3ce26a722598f00149b2328fd124444e6d0b10c4bdc7cfc381969160055460501c169260405190600082526020820152426040820152a260018055005b346103a25760403660031901126103a257611626613438565b600435600052600060205260406000209060018060a01b0316600052602052602060ff604060002054166040519015158152f35b346103a25760403660031901126103a257611673613422565b6024359061167f6135d4565b611687613972565b6001600160a01b0381811692909190831561071c576040516370a0823160e01b8152306004820152602093907f00000000000000000000000000000000000000000000000000000000000000008216908581602481855afa9081156106b9576000916117b9575b508311610f6f5782859161174395611708836018546138e7565b60185560405163a9059cbb60e01b81526001600160a01b03909116600482015260248101929092529094859190829060009082906044820190565b03925af19182156106b9577f8d4f9c9a6da9172da9a02229d92e4af088c62953986a74048d010260b197def39360609361179c575b5061178161384e565b9060405195600187528601524260408601521692a360018055005b6117b290863d88116106b2576106a38183613910565b5086611778565b90508581813d83116117df575b6117d08183613910565b810103126103a25751876116ee565b503d6117c6565b346103a25760003660031901126103a2576020601154604051908152f35b346103a25760203660031901126103a25761181d613422565b611825613567565b6001600160a01b03811690811561071c57600580547fffff0000000000000000000000000000000000000000ffffffffffffffffffff1660509290921b600160501b600160f01b03169190911790556040519081527f1d6240e71a77c9e9d07d1d6ecbb9ea4274fcc8bc19adc5b05a3548ac7e40e18990602090a1005b346103a25760003660031901126103a2576020600f54604051908152f35b346103a25760203660031901126103a2576001600160a01b036118e1613422565b16600052600b6020526020604060002054604051908152f35b346103a25760003660031901126103a25760206040517f78c90eb9e475048b483a290aee04b5fe48355537c3623c7637b17d3bed71c6ed8152f35b346103a25761194336613527565b9161194c61384e565b6001600160a01b0390811660008181527f2eb8dcb37180405b14a1bdb0a7c9bf5c42acb064f7e582ada9a56e709d942e57602090815260409091205490959294929160ff917fc806897caf4fd5068191157e44d3988e43139a37e0b97b6793e1ed118414060490831615611a8757505060005b828110611a0557604051878152858716907f8b655a966f162e1d3686ea25cd61682331984ab5662b451deff96f12d716f45b9080611a00818c01888a613a49565b0390a2005b85851660005260068752611a226040600020610a308386886138b6565b5090600180920191825460381c90811615801590611a7b575b611a6957825460ff60381b191690841660021760381b60ff60381b1617909155611a64906138a7565b6119bf565b60405163181821bd60e11b8152600490fd5b50600281161515611a3b565b604492506040519163e2517d3f60e01b835260048301526024820152fd5b346103a25760003660031901126103a2576040517f00000000000000000000000000000000000000000000000000000000000000006001600160a01b03168152602090f35b346103a25760203660031901126103a257600435611b066136ae565b611b0e613972565b60055460501c6001600160a01b0390811690811561071c5760405163a9059cbb60e01b81526001600160a01b039290921660048301526024820183905260208260448160007f000000000000000000000000000000000000000000000000000000000000000086165af19081156106b9577f9adbdc797aca3ce26a722598f00149b2328fd124444e6d0b10c4bdc7cfc3819692606092611bcc575b5060055460501c169260405190600182526020820152426040820152a260018055005b611be39060203d81116106b2576106a38183613910565b5084611ba9565b346103a25760403660031901126103a257611c03613422565b602435611c0e613567565b801561070a57601454811161120657611c4b9160018060a01b0316600052600a6020526040600020611c418282546138e7565b90556014546139ad565b601455005b346103a25760003660031901126103a25760206040517fa49807205ce4d355092ef5a8a18f56e8913cf4a201fbe287825b095693c217758152f35b346103a25760203660031901126103a25760043567ffffffffffffffff81116103a257611cbc9036906004016134ab565b90611cc5613972565b60ff60055460081c1661214c57611cda61384e565b60009283929183808080805b868110611f3d575080611f28575b5080611f13575b506001600160a01b03831660009081526008602052604090205460ff161580611f0a575b611ed9575b611d2e81836138e7565b611e50575b5050611d3f84866138e7565b611d4a575b60018055005b836020611d5a611d8a96886138e7565b60405163a9059cbb60e01b81526001600160a01b0385166004820152602481019190915295869081906044820190565b038160007f00000000000000000000000000000000000000000000000000000000000000006001600160a01b03165af19485156106b9577fbf06e98fe211a4b82f625232ab1c7a75caea5e0d624bc267578d6f22fce788c395611e31575b50611e076040519485946001865260a0602087015260a0860191613a49565b604084019690965260608301524260808301526001600160a01b0316930390a28080808080611d44565b611e499060203d6020116106b2576106a38183613910565b5086611de8565b6000808080611e5f85876138e7565b875af1611e6a613932565b5015610c06577fbf06e98fe211a4b82f625232ab1c7a75caea5e0d624bc267578d6f22fce788c390604051906000825260a06020830152611eaf60a083018789613a49565b604083019490945260608201524260808201526001600160a01b0384169281900390a28580611d33565b611ee2836139ba565b6001600160a01b0383166000908152600860205260409020805460ff19166001179055611d24565b50831515611d1f565b611f1f906012546138e7565b60125587611cfb565b611f34906011546138e7565b60115588611cf4565b90939192611f4c82888a6138b6565b359460018060a01b0387166000526006602052611f6d86604060002061346c565b5091600183015460381c6001811661213a57611f9865ffffffffffff855460c01c16600254906138e7565b42108061212f575b8061210d575b6120fb57600160ff611fd2921617600185019060ff60381b82549160381b169060ff60381b1916179055565b65ffffffffffff421665ffffffffffff1960018501541617928360018201555491600260ff8560301c16101561064a5760ff8460301c161560001461209e578861204b989796959361209161205d6120999795612051600080516020613af9833981519152966001600160601b039e8f871680926138e7565b9b6138e7565b9c8460601c16906138e7565b995b6040516001600160a01b039094169584934291606082901c6001600160601b0390811692169060301c60ff1686613a1e565b0390a26138a7565b611ce6565b93919290959496889b9c6001600160601b03851696876120bd916138e7565b966120c7916138e7565b9c8460601c6001600160601b03166120de916138e7565b9b61209994612091600080516020613af98339815191529361205f565b60405163f38b9b5b60e01b8152600490fd5b5060ff60055460181c1680612123575b15611fa6565b5060048116151561211d565b506002811615611fa0565b604051636507689f60e01b8152600490fd5b604051636022a9e760e01b8152600490fd5b346103a25760403660031901126103a257612177613422565b602435612182613567565b801561070a576013548111611206576112019160018060a01b0316600052600960205260406000206121b58282546138e7565b90556013546139ad565b346103a25760003660031901126103a2576121d8613972565b6121e061384e565b6001600160a01b038181166000818152600a60209081526040909120549193928215610c18576000858152600a835260408082208290555163a9059cbb60e01b81526001600160a01b0395909516600486015260248501849052829185916044918391907f0000000000000000000000000000000000000000000000000000000000000000165af19182156106b9577f6914793c7a82461acec66c7de7fdbbbf1f825c26bc2fe939b61f0e4f8964c2b5936060936122b2575b506040519160018352820152426040820152a260018055005b6122c890833d85116106b2576106a38183613910565b5085612299565b346103a25760203660031901126103a2576001600160a01b036122f0613422565b16600052600d602052602060ff604060002054166040519015158152f35b346103a25760403660031901126103a25761232761344e565b61232f61345d565b9061233861384e565b6001600160a01b031660008181527ff7c9542c591017a21c74b6f3fab6263c7952fc0aaf9db4c22a2a04ddc7f8674f60205260409020547f65d7a28e3265b37a6474929f336521b332c1681b933f6cb9f3376673440d862a9060ff1615611a87577fac1664632d6278432aa05a6afc0aa83e5ea08e8df9a1436736daa5d6283211c0604085851515906005549015159061ff008260081b169060ff84169061ffff1916171760055582519182526020820152a1005b60003660031901126103a257612401613641565b341561070a57612413346013546138e7565b60135561241e61384e565b7f8bafec96fcffb6f12596b4635c76397b7bc1f363b22c49c13136b63677323dcc6060604051926000845234602085015242604085015260018060a01b031692a2005b346103a25760003660031901126103a257602060ff600554166040519015158152f35b346103a25760203660031901126103a2576001600160a01b036124a5613422565b166000526008602052602060ff604060002054166040519015158152f35b346103a25760203660031901126103a2576004356124df6135d4565b6124e7613972565b801561070a576018548082116125d95781612501916139ad565b6018558061250d61384e565b6040516323b872dd60e01b81526001600160a01b039182166004820152306024820152604481019290925260208260648160007f000000000000000000000000000000000000000000000000000000000000000086165af19081156106b9577f1b0029d3a4003762f16d0dc71199ce167b1d4bf00c5b97a3e28f613e921d6540926060926125bb575b5061259f61384e565b604051946001865260208601524260408601521692a260018055005b6125d29060203d81116106b2576106a38183613910565b5084612596565b604051630471131160e21b8152600490fd5b346103a25760003660031901126103a257602060055465ffffffffffff60405191831c168152f35b346103a25760203660031901126103a257602061262e613422565b6040519060018060a01b03807f0000000000000000000000000000000000000000000000000000000000000000169116148152f35b346103a25760403660031901126103a25761267c613422565b7f995d2434d36c9bceaab42c56efe51e8ffe41fd11cabefd9e2cb83700d8b2035e60206126a761345d565b926126b0613567565b6001600160a01b031660008181526007835260409020805460ff191660ff86151516179055926040519015158152a2005b346103a25760003660031901126103a257602060ff60055460101c166040519015158152f35b346103a25760203660031901126103a257612720613422565b6001600160a01b031660008181526006602052604081208054919283928392839283928392835b82811061279c575050509561010096600052600960205260406000205491600a60205260406000205493604051978852602088015260408701526060860152608085015260a084015260c083015260e0820152f35b6127af6127a9828461346c565b50613a6d565b9860a08a019960088b511615156080820151600281101561064a576128325760016127e66001600160601b039485855116906138e7565b9c511661281d575b612803575b50506127fe906138a7565b612747565b97612815916127fe93995116906138e7565b96908b6127f3565b9661282c9083835116906138e7565b966127ee565b600161284e6001600160601b039d9a949d9485855116906138e7565b99511661287f575b6128655750506127fe906138a7565b98612877916127fe939a5116906138e7565b97908b6127f3565b9b61288e9083835116906138e7565b9b612856565b346103a2576128a2366134dc565b6128aa613567565b8083036112825760005b8381106128bd57005b806128d46128cf6129609385876138b6565b6138c6565b6001600160a01b03907f995d2434d36c9bceaab42c56efe51e8ffe41fd11cabefd9e2cb83700d8b2035e908261290e61124e868b8d6138b6565b166000526129326020916007835260406000209060ff801983541691151516179055565b61294061124e858a8c6138b6565b9261294f6128cf86898b6138b6565b9360405194151585521692a26138a7565b6128b4565b346103a257612973366134dc565b929161297d613567565b838103611282579291906000936000935b8185106129a9576014548681811161120657611c4b916139ad565b90919293946129b98683866138b6565b3590811561070a576129f891611273916001600160a01b036129df61124e8b898c6138b6565b16600052600a602052604060002061126c8382546138e7565b9392919061298e565b346103a25760003660031901126103a2576040517f00000000000000000000000000000000000000000000000000000000000000006001600160a01b03168152602090f35b346103a25760203660031901126103a2576001600160a01b03612a67613422565b166000526007602052602060ff604060002054166040519015158152f35b346103a25760003660031901126103a2576020601454604051908152f35b346103a25760403660031901126103a257612abc613438565b6001600160a01b0380612acd61384e565b1690821603612ae25761001b906004356137dc565b60405163334bd91960e11b8152600490fd5b346103a25760203660031901126103a2576001600160a01b03612b15613422565b1660005260096020526020604060002054604051908152f35b346103a25760403660031901126103a25761001b600435612b4d613438565b90806000526000602052612b6860016040600020015461371b565b613755565b346103a2576020806003193601126103a257600435612b8a613972565b6005549160ff808460081c1661214c57612ba261384e565b9160018060a01b0390818416948560005260068252612bc581604060002061346c565b509360019788860190815460381c8a811661213a5765ffffffffffff9184612bf6848b5460c01c16600254906138e7565b42109182612dd6575b82612db6575b50506120fb57825460ff60381b19169084168b1760381b60ff60381b16178255421665ffffffffffff1982541617958682555494826001600160601b038088169760601c169760301c16600281101561064a57612cf95750612c69856011546138e7565b6011556000808080612c7b8a8a6138e7565b8b5af1612c86613932565b5015610c0657600080516020613af983398151915296612ccc945b8960005260088152836040600020541615612cd3575b50505460301c16604051948594429286613a1e565b0390a28055005b612cde6008926139ba565b896000525260406000208960ff198254161790558980612cb7565b9684612d4d600099612d0d896012546138e7565b601255612d1a8a8a6138e7565b60405163a9059cbb60e01b81526001600160a01b038616600482015260248101919091529a8b9283919082906044820190565b03927f0000000000000000000000000000000000000000000000000000000000000000165af19485156106b957600080516020613af983398151915298612ccc96612d99575b50612ca1565b612daf90823d84116106b2576106a38183613910565b508b612d93565b60181c16905080612dca575b15848d612c05565b50600481161515612dc2565b60028416159250612bff565b346103a25760003660031901126103a2576020601854604051908152f35b346103a2576020806003193601126103a2576001600160a01b03612e22613422565b1660005260068152604060002090815467ffffffffffffffff81116106765760405190612e54838260051b0183613910565b8082528282018094600052836000206000915b838310612f025760408051878152865181890181905289928201908960005b828110612e935784840385f35b9091928260c060019288516001600160601b0380825116835284820151168483015265ffffffffffff806040830151166040840152606090818301511690830152612ee66080808301519084019061349e565b60ff60a080920151169082015201960191019492919094612e86565b600286600192612f1185613a6d565b815201920192019190612e67565b346103a25760003660031901126103a257612f38613972565b6001600160a01b03612f4861384e565b1680600052602090600982526040600020548015610c185781600052600983526000604081205560068352604060002092604051612f85816138f4565b6001600160601b03808416825282820160008152604083019265ffffffffffff90814216855260608101936000855260808201936000855260a0830196600888528b54600160401b81101561067657612fe59060019d8e8201815561346c565b9390936106605793518354925191516001600160f01b031990931694169390931760609390931b600160601b600160c01b03169290921760c09290921b65ffffffffffff60c01b1691909117815592519288018054925191909316939091600283101561064a576130869460ff60301b60ff9460301b169166ffffffffffffff191617178355511660ff60381b82549160381b169060ff60381b1916179055565b82600052600d8152604060002084815460ff81161561314e575b50506006825250604060002054600019810191908211610625577f997d2ec09b086de73d509bbc4ad2b52fd7e2338024464bede93a41abd6ccdc389284600080516020613ad983398151915260a06060956040519060008252858783015242604083015287820152896080820152a261311b816015546138e7565b60155584600052600b825260406000206131368282546138e7565b90556040519160008352820152426040820152a28055005b60ff19161790558484816130a0565b346103a25760003660031901126103a2576020601054604051908152f35b346103a25760203660031901126103a25760043560005260006020526020600160406000200154604051908152f35b346103a25760003660031901126103a257602060ff60055460181c166040519015158152f35b346103a25760003660031901126103a2576020600454604051908152f35b60003660031901126103a2576132026135d4565b61320a613972565b341561070a576017548034116125d9576132259034906139ad565b60175561323061384e565b7f1b0029d3a4003762f16d0dc71199ce167b1d4bf00c5b97a3e28f613e921d65406060604051926000845234602085015242604085015260018060a01b031692a260018055005b346103a25760003660031901126103a25760206040517ff60566c40710959d8d30b6067ce3c53c757bec78eecb0e46b83c7f8194ffae378152f35b346103a25760403660031901126103a2576132cb613422565b6001600160a01b03166000908152600660205260409020805460243591908210156103a25760c0916132fc9161346c565b5060ff60018254920154604051926001600160601b0380821685528160601c16602085015265ffffffffffff8091861c1660408501528116606084015261334b60808401838360301c1661349e565b60381c1660a0820152f35b346103a25760203660031901126103a25761336f61344e565b613377613567565b62ff000060055491151560101b169062ff0000191617600555600080f35b346103a25760203660031901126103a2576001600160a01b036133b6613422565b16600052600c6020526020604060002054604051908152f35b346103a25760203660031901126103a2576004359063ffffffff60e01b82168092036103a257602091637965db0b60e01b8114908115613411575b5015158152f35b6301ffc9a760e01b1490508361340a565b600435906001600160a01b03821682036103a257565b602435906001600160a01b03821682036103a257565b6004359081151582036103a257565b6024359081151582036103a257565b80548210156134885760005260206000209060011b0190600090565b634e487b7160e01b600052603260045260246000fd5b90600282101561064a5752565b9181601f840112156103a25782359167ffffffffffffffff83116103a2576020808501948460051b0101116103a257565b60406003198201126103a25767ffffffffffffffff916004358381116103a25782613509916004016134ab565b939093926024359182116103a257613523916004016134ab565b9091565b9060406003198301126103a2576004356001600160a01b03811681036103a257916024359067ffffffffffffffff82116103a257613523916004016134ab565b61356f61384e565b6001600160a01b031660008181527f7d7ffb7a348e1c6a02869081a26547b49160dd3df72d1d75a570eb9b698292ec60205260409020547fa49807205ce4d355092ef5a8a18f56e8913cf4a201fbe287825b095693c217759060ff1615611a87575050565b6135dc61384e565b6001600160a01b031660008181527fe84508f2c7fa9c351146748b3025cb78b45df37d868e48c6a75102fecdeee64560205260409020547f241ecf16d79d0f8dbfb92cbc07fe17840425976cf0667f022fe9877caa831b089060ff1615611a87575050565b61364961384e565b6001600160a01b031660008181527f9505c8401a8a13f8b514b3efaaa61be2dc9810e3f02fbd8edeba297fdd793d6560205260409020547ff60566c40710959d8d30b6067ce3c53c757bec78eecb0e46b83c7f8194ffae379060ff1615611a87575050565b6136b661384e565b6001600160a01b031660008181527fca62ffb99fa36d4130bbee1a8581c4d2fd87e1d2bf4a5e65538ad96ae66582c960205260409020547f78c90eb9e475048b483a290aee04b5fe48355537c3623c7637b17d3bed71c6ed9060ff1615611a87575050565b61372361384e565b9080600052600060205260406000209160018060a01b0316918260005260205260ff6040600020541615611a87575050565b6000818152602081815260408083206001600160a01b039586168085529252822054919390929160ff166137d6577f2f8788117e7eff1d82e926ec794901d17c78024a50270940304540a733656f0d90828552846020526040852084865260205260408520600160ff198254161790556137cd61384e565b169380a4600190565b50505090565b6000818152602081815260408083206001600160a01b039586168085529252822054919390929160ff16156137d6577ff6391f5c32d9c69d2a47ea670b442974b53935d1edc7fd64eb21e047a839171b9082855284602052604085208486526020526040852060ff1981541690556137cd5b601436101580613875575b156138715760131936013681116103a2573560601c90565b3390565b50337f00000000000000000000000000000000000000000000000000000000000000006001600160a01b031614613859565b60001981146106255760010190565b91908110156134885760051b0190565b3580151581036103a25790565b356001600160a01b03811681036103a25790565b9190820180921161062557565b60c0810190811067ffffffffffffffff82111761067657604052565b90601f8019910116810190811067ffffffffffffffff82111761067657604052565b3d1561396d573d9067ffffffffffffffff82116106765760405191613961601f8201601f191660200184613910565b82523d6000602084013e565b606090565b600260015414613983576002600155565b604051633ee5aeb560e01b8152600490fd5b908160209103126103a2575180151581036103a25790565b9190820391821161062557565b600e54600160401b811015610676576001810180600e5581101561348857600e6000527fbb7b4a454dc3493923482f07822329ed19e8244eff582cc204f8554c3620c3fd0180546001600160a01b0319166001600160a01b03909216919091179055565b91926080939695949196613a368460a081019961349e565b6020840152604083015260608201520152565b81835290916001600160fb1b0383116103a25760209260051b809284830137010190565b90604051613a7a816138f4565b809260018154916001600160601b0380841685528360601c16602085015265ffffffffffff809360c01c1660408501520154908116606083015260ff8160301c16600281101561064a5760a09160ff91608085015260381c1691015256fe48916ac7f9777648255ab8645729ff3b5d20aa412a40fe81dac2433522eaa058cb034b37ef3764745c35bafecd525367bcf312e9010239e6aeebbe6bcf57727fa264697066735822122061bb41ac74a5b0b5f50f91cf69921ee25d2748831f2f742cccb8b034cb9f5fa964736f6c634300081400332f8788117e7eff1d82e926ec794901d17c78024a50270940304540a733656f0d",
  "linkReferences": {},
  "deployedLinkReferences": {}
}