{
  "_format": "hh-sol-artifact-1",
  "contractName": "PoolPandorasSepolia",
  "sourceName": "contracts/PoolPandorasSepolia.sol",
  "abi": [
    {
      "inputs": [
        {
          "internalType": "address[]",
          "name": "initialAdmins",
          "type": "address[]"
        },
        {
          "internalType": "address",
          "name": "_utilityAddress",
          "type": "address"
        },
        {
          "internalType": "address",
          "name": "trustedForwarder",
          "type": "address"
        },
        {
          "internalType": "address",
          "name": "_usdcAddress",
          "type": "address"
        }
      ],
      "stateMutability": "nonpayable",
      "type": "constructor"
    },
    {
      "inputs": [],
      "name": "AccessControlBadConfirmation",
      "type": "error"
    },
    {
      "inputs": [
        {
          "internalType": "address",
          "name": "account",
          "type": "address"
        },
        {
          "internalType": "bytes32",
          "name": "neededRole",
          "type": "bytes32"
        }
      ],
      "name": "AccessControlUnauthorizedAccount",
      "type": "error"
    },
    {
      "inputs": [],
      "name": "AlreadyUnlockedOrWithdrawn",
      "type": "error"
    },
    {
      "inputs": [],
      "name": "AlreadyWithdrawn",
      "type": "error"
    },
    {
      "inputs": [],
      "name": "ArrayLengthMismatch",
      "type": "error"
    },
    {
      "inputs": [],
      "name": "CapReached",
      "type": "error"
    },
    {
      "inputs": [],
      "name": "DepositLocked",
      "type": "error"
    },
    {
      "inputs": [],
      "name": "DepositsPaused",
      "type": "error"
    },
    {
      "inputs": [],
      "name": "ExceedsTotalUtility",
      "type": "error"
    },
    {
      "inputs": [],
      "name": "GlobalLiquidationAlreadyEnabled",
      "type": "error"
    },
    {
      "inputs": [],
      "name": "InsufficientBalance",
      "type": "error"
    },
    {
      "inputs": [],
      "name": "InvalidAmount",
      "type": "error"
    },
    {
      "inputs": [],
      "name": "NoUtilityToClaim",
      "type": "error"
    },
    {
      "inputs": [],
      "name": "NotWhitelisted",
      "type": "error"
    },
    {
      "inputs": [],
      "name": "ReentrancyGuardReentrantCall",
      "type": "error"
    },
    {
      "inputs": [],
      "name": "ReturnedAmountExceedsInvested",
      "type": "error"
    },
    {
      "inputs": [],
      "name": "TransferFailed",
      "type": "error"
    },
    {
      "inputs": [],
      "name": "WithdrawalsPaused",
      "type": "error"
    },
    {
      "inputs": [],
      "name": "ZeroAddress",
      "type": "error"
    },
    {
      "anonymous": false,
      "inputs": [
        {
          "indexed": true,
          "internalType": "address",
          "name": "user",
          "type": "address"
        },
        {
          "indexed": false,
          "internalType": "enum PoolPandorasSepolia.TokenType",
          "name": "token",
          "type": "uint8"
        },
        {
          "indexed": false,
          "internalType": "uint256[]",
          "name": "indices",
          "type": "uint256[]"
        },
        {
          "indexed": false,
          "internalType": "uint256",
          "name": "totalPrincipal",
          "type": "uint256"
        },
        {
          "indexed": false,
          "internalType": "uint256",
          "name": "totalYield",
          "type": "uint256"
        },
        {
          "indexed": false,
          "internalType": "uint256",
          "name": "when",
          "type": "uint256"
        }
      ],
      "name": "BatchWithdraw",
      "type": "event"
    },
    {
      "anonymous": false,
      "inputs": [
        {
          "indexed": true,
          "internalType": "address",
          "name": "user",
          "type": "address"
        },
        {
          "indexed": false,
          "internalType": "enum PoolPandorasSepolia.TokenType",
          "name": "token",
          "type": "uint8"
        },
        {
          "indexed": false,
          "internalType": "uint256",
          "name": "amount",
          "type": "uint256"
        },
        {
          "indexed": false,
          "internalType": "uint256",
          "name": "when",
          "type": "uint256"
        }
      ],
      "name": "ClaimUtility",
      "type": "event"
    },
    {
      "anonymous": false,
      "inputs": [
        {
          "indexed": true,
          "internalType": "address",
          "name": "user",
          "type": "address"
        },
        {
          "indexed": false,
          "internalType": "enum PoolPandorasSepolia.TokenType",
          "name": "token",
          "type": "uint8"
        },
        {
          "indexed": false,
          "internalType": "uint256",
          "name": "amount",
          "type": "uint256"
        },
        {
          "indexed": false,
          "internalType": "uint256",
          "name": "when",
          "type": "uint256"
        },
        {
          "indexed": false,
          "internalType": "uint256",
          "name": "depositIndex",
          "type": "uint256"
        },
        {
          "indexed": false,
          "internalType": "bool",
          "name": "reinvestment",
          "type": "bool"
        }
      ],
      "name": "Deposit",
      "type": "event"
    },
    {
      "anonymous": false,
      "inputs": [
        {
          "indexed": true,
          "internalType": "address",
          "name": "user",
          "type": "address"
        },
        {
          "indexed": false,
          "internalType": "uint256[]",
          "name": "indices",
          "type": "uint256[]"
        }
      ],
      "name": "DepositsUnlocked",
      "type": "event"
    },
    {
      "anonymous": false,
      "inputs": [
        {
          "indexed": true,
          "internalType": "address",
          "name": "token",
          "type": "address"
        },
        {
          "indexed": true,
          "internalType": "address",
          "name": "to",
          "type": "address"
        },
        {
          "indexed": false,
          "internalType": "uint256",
          "name": "amount",
          "type": "uint256"
        }
      ],
      "name": "ERC20Rescued",
      "type": "event"
    },
    {
      "anonymous": false,
      "inputs": [
        {
          "indexed": false,
          "internalType": "uint256",
          "name": "when",
          "type": "uint256"
        }
      ],
      "name": "GlobalLiquidationEnabled",
      "type": "event"
    },
    {
      "anonymous": false,
      "inputs": [
        {
          "indexed": true,
          "internalType": "address",
          "name": "manager",
          "type": "address"
        },
        {
          "indexed": false,
          "internalType": "enum PoolPandorasSepolia.TokenType",
          "name": "token",
          "type": "uint8"
        },
        {
          "indexed": false,
          "internalType": "uint256",
          "name": "amount",
          "type": "uint256"
        },
        {
          "indexed": false,
          "internalType": "uint256",
          "name": "when",
          "type": "uint256"
        }
      ],
      "name": "InvestmentReturned",
      "type": "event"
    },
    {
      "anonymous": false,
      "inputs": [
        {
          "indexed": false,
          "internalType": "uint256",
          "name": "newPeriod",
          "type": "uint256"
        }
      ],
      "name": "LockupPeriodChanged",
      "type": "event"
    },
    {
      "anonymous": false,
      "inputs": [
        {
          "indexed": false,
          "internalType": "enum PoolPandorasSepolia.TokenType",
          "name": "token",
          "type": "uint8"
        },
        {
          "indexed": false,
          "internalType": "uint256",
          "name": "newCap",
          "type": "uint256"
        }
      ],
      "name": "MaxCapChanged",
      "type": "event"
    },
    {
      "anonymous": false,
      "inputs": [
        {
          "indexed": false,
          "internalType": "bool",
          "name": "depositsPaused",
          "type": "bool"
        },
        {
          "indexed": false,
          "internalType": "bool",
          "name": "withdrawalsPaused",
          "type": "bool"
        }
      ],
      "name": "PauseChanged",
      "type": "event"
    },
    {
      "anonymous": false,
      "inputs": [
        {
          "indexed": true,
          "internalType": "uint256",
          "name": "id",
          "type": "uint256"
        },
        {
          "indexed": false,
          "internalType": "bool",
          "name": "executed",
          "type": "bool"
        }
      ],
      "name": "ProposalClosed",
      "type": "event"
    },
    {
      "anonymous": false,
      "inputs": [
        {
          "indexed": true,
          "internalType": "uint256",
          "name": "id",
          "type": "uint256"
        },
        {
          "indexed": true,
          "internalType": "address",
          "name": "proposer",
          "type": "address"
        },
        {
          "indexed": false,
          "internalType": "string",
          "name": "title",
          "type": "string"
        },
        {
          "indexed": false,
          "internalType": "uint256",
          "name": "endTime",
          "type": "uint256"
        }
      ],
      "name": "ProposalCreated",
      "type": "event"
    },
    {
      "anonymous": false,
      "inputs": [
        {
          "indexed": true,
          "internalType": "address",
          "name": "user",
          "type": "address"
        },
        {
          "indexed": false,
          "internalType": "enum PoolPandorasSepolia.TokenType",
          "name": "token",
          "type": "uint8"
        },
        {
          "indexed": false,
          "internalType": "uint256",
          "name": "amount",
          "type": "uint256"
        },
        {
          "indexed": false,
          "internalType": "uint256",
          "name": "when",
          "type": "uint256"
        }
      ],
      "name": "Reinvest",
      "type": "event"
    },
    {
      "anonymous": false,
      "inputs": [
        {
          "indexed": true,
          "internalType": "bytes32",
          "name": "role",
          "type": "bytes32"
        },
        {
          "indexed": true,
          "internalType": "bytes32",
          "name": "previousAdminRole",
          "type": "bytes32"
        },
        {
          "indexed": true,
          "internalType": "bytes32",
          "name": "newAdminRole",
          "type": "bytes32"
        }
      ],
      "name": "RoleAdminChanged",
      "type": "event"
    },
    {
      "anonymous": false,
      "inputs": [
        {
          "indexed": true,
          "internalType": "bytes32",
          "name": "role",
          "type": "bytes32"
        },
        {
          "indexed": true,
          "internalType": "address",
          "name": "account",
          "type": "address"
        },
        {
          "indexed": true,
          "internalType": "address",
          "name": "sender",
          "type": "address"
        }
      ],
      "name": "RoleGranted",
      "type": "event"
    },
    {
      "anonymous": false,
      "inputs": [
        {
          "indexed": true,
          "internalType": "bytes32",
          "name": "role",
          "type": "bytes32"
        },
        {
          "indexed": true,
          "internalType": "address",
          "name": "account",
          "type": "address"
        },
        {
          "indexed": true,
          "internalType": "address",
          "name": "sender",
          "type": "address"
        }
      ],
      "name": "RoleRevoked",
      "type": "event"
    },
    {
      "anonymous": false,
      "inputs": [
        {
          "indexed": true,
          "internalType": "address",
          "name": "user",
          "type": "address"
        },
        {
          "indexed": false,
          "internalType": "bool",
          "name": "status",
          "type": "bool"
        }
      ],
      "name": "UserWhitelisted",
      "type": "event"
    },
    {
      "anonymous": false,
      "inputs": [
        {
          "indexed": false,
          "internalType": "address",
          "name": "newUtilityAddress",
          "type": "address"
        }
      ],
      "name": "UtilityAddressChanged",
      "type": "event"
    },
    {
      "anonymous": false,
      "inputs": [
        {
          "indexed": true,
          "internalType": "address",
          "name": "admin",
          "type": "address"
        },
        {
          "indexed": false,
          "internalType": "enum PoolPandorasSepolia.TokenType",
          "name": "token",
          "type": "uint8"
        },
        {
          "indexed": false,
          "internalType": "uint256",
          "name": "amount",
          "type": "uint256"
        },
        {
          "indexed": false,
          "internalType": "uint256",
          "name": "when",
          "type": "uint256"
        }
      ],
      "name": "UtilityInjected",
      "type": "event"
    },
    {
      "anonymous": false,
      "inputs": [
        {
          "indexed": true,
          "internalType": "address",
          "name": "to",
          "type": "address"
        },
        {
          "indexed": false,
          "internalType": "enum PoolPandorasSepolia.TokenType",
          "name": "token",
          "type": "uint8"
        },
        {
          "indexed": false,
          "internalType": "uint256",
          "name": "amount",
          "type": "uint256"
        },
        {
          "indexed": false,
          "internalType": "uint256",
          "name": "when",
          "type": "uint256"
        }
      ],
      "name": "UtilityWithdrawn",
      "type": "event"
    },
    {
      "anonymous": false,
      "inputs": [
        {
          "indexed": true,
          "internalType": "uint256",
          "name": "id",
          "type": "uint256"
        },
        {
          "indexed": true,
          "internalType": "address",
          "name": "voter",
          "type": "address"
        },
        {
          "indexed": false,
          "internalType": "bool",
          "name": "support",
          "type": "bool"
        },
        {
          "indexed": false,
          "internalType": "uint256",
          "name": "weight",
          "type": "uint256"
        }
      ],
      "name": "Voted",
      "type": "event"
    },
    {
      "anonymous": false,
      "inputs": [
        {
          "indexed": true,
          "internalType": "address",
          "name": "user",
          "type": "address"
        },
        {
          "indexed": false,
          "internalType": "enum PoolPandorasSepolia.TokenType",
          "name": "token",
          "type": "uint8"
        },
        {
          "indexed": false,
          "internalType": "uint256",
          "name": "principal",
          "type": "uint256"
        },
        {
          "indexed": false,
          "internalType": "uint256",
          "name": "yield",
          "type": "uint256"
        },
        {
          "indexed": false,
          "internalType": "uint256",
          "name": "when",
          "type": "uint256"
        },
        {
          "indexed": false,
          "internalType": "uint256",
          "name": "depositIndex",
          "type": "uint256"
        }
      ],
      "name": "Withdraw",
      "type": "event"
    },
    {
      "anonymous": false,
      "inputs": [
        {
          "indexed": true,
          "internalType": "address",
          "name": "manager",
          "type": "address"
        },
        {
          "indexed": false,
          "internalType": "enum PoolPandorasSepolia.TokenType",
          "name": "token",
          "type": "uint8"
        },
        {
          "indexed": true,
          "internalType": "address",
          "name": "to",
          "type": "address"
        },
        {
          "indexed": false,
          "internalType": "uint256",
          "name": "amount",
          "type": "uint256"
        },
        {
          "indexed": false,
          "internalType": "uint256",
          "name": "when",
          "type": "uint256"
        }
      ],
      "name": "WithdrawnForInvestment",
      "type": "event"
    },
    {
      "inputs": [],
      "name": "ADMIN_ROLE",
      "outputs": [
        {
          "internalType": "bytes32",
          "name": "",
          "type": "bytes32"
        }
      ],
      "stateMutability": "view",
      "type": "function"
    },
    {
      "inputs": [],
      "name": "DEFAULT_ADMIN_ROLE",
      "outputs": [
        {
          "internalType": "bytes32",
          "name": "",
          "type": "bytes32"
        }
      ],
      "stateMutability": "view",
      "type": "function"
    },
    {
      "inputs": [],
      "name": "MANAGER_ROLE",
      "outputs": [
        {
          "internalType": "bytes32",
          "name": "",
          "type": "bytes32"
        }
      ],
      "stateMutability": "view",
      "type": "function"
    },
    {
      "inputs": [],
      "name": "PAUSER_ROLE",
      "outputs": [
        {
          "internalType": "bytes32",
          "name": "",
          "type": "bytes32"
        }
      ],
      "stateMutability": "view",
      "type": "function"
    },
    {
      "inputs": [],
      "name": "PROPOSAL_THRESHOLD",
      "outputs": [
        {
          "internalType": "uint256",
          "name": "",
          "type": "uint256"
        }
      ],
      "stateMutability": "view",
      "type": "function"
    },
    {
      "inputs": [],
      "name": "UNLOCKER_ROLE",
      "outputs": [
        {
          "internalType": "bytes32",
          "name": "",
          "type": "bytes32"
        }
      ],
      "stateMutability": "view",
      "type": "function"
    },
    {
      "inputs": [],
      "name": "UTILITY_INJECTOR_ROLE",
      "outputs": [
        {
          "internalType": "bytes32",
          "name": "",
          "type": "bytes32"
        }
      ],
      "stateMutability": "view",
      "type": "function"
    },
    {
      "inputs": [],
      "name": "UTILITY_WITHDRAWER_ROLE",
      "outputs": [
        {
          "internalType": "bytes32",
          "name": "",
          "type": "bytes32"
        }
      ],
      "stateMutability": "view",
      "type": "function"
    },
    {
      "inputs": [],
      "name": "VP_ETH_MULTIPLIER",
      "outputs": [
        {
          "internalType": "uint256",
          "name": "",
          "type": "uint256"
        }
      ],
      "stateMutability": "view",
      "type": "function"
    },
    {
      "inputs": [
        {
          "internalType": "address",
          "name": "user",
          "type": "address"
        },
        {
          "internalType": "uint256",
          "name": "amount",
          "type": "uint256"
        }
      ],
      "name": "assignUtilityETH",
      "outputs": [],
      "stateMutability": "nonpayable",
      "type": "function"
    },
    {
      "inputs": [
        {
          "internalType": "address[]",
          "name": "users",
          "type": "address[]"
        },
        {
          "internalType": "uint256[]",
          "name": "amounts",
          "type": "uint256[]"
        }
      ],
      "name": "assignUtilityETHBatch",
      "outputs": [],
      "stateMutability": "nonpayable",
      "type": "function"
    },
    {
      "inputs": [
        {
          "internalType": "address",
          "name": "user",
          "type": "address"
        },
        {
          "internalType": "uint256",
          "name": "amount",
          "type": "uint256"
        }
      ],
      "name": "assignUtilityUSDC",
      "outputs": [],
      "stateMutability": "nonpayable",
      "type": "function"
    },
    {
      "inputs": [
        {
          "internalType": "address[]",
          "name": "users",
          "type": "address[]"
        },
        {
          "internalType": "uint256[]",
          "name": "amounts",
          "type": "uint256[]"
        }
      ],
      "name": "assignUtilityUSDCBatch",
      "outputs": [],
      "stateMutability": "nonpayable",
      "type": "function"
    },
    {
      "inputs": [
        {
          "internalType": "uint256[]",
          "name": "depositIndices",
          "type": "uint256[]"
        }
      ],
      "name": "batchWithdraw",
      "outputs": [],
      "stateMutability": "nonpayable",
      "type": "function"
    },
    {
      "inputs": [],
      "name": "claimUtilityETH",
      "outputs": [],
      "stateMutability": "nonpayable",
      "type": "function"
    },
    {
      "inputs": [],
      "name": "claimUtilityUSDC",
      "outputs": [],
      "stateMutability": "nonpayable",
      "type": "function"
    },
    {
      "inputs": [
        {
          "internalType": "uint256",
          "name": "proposalId",
          "type": "uint256"
        }
      ],
      "name": "closeProposal",
      "outputs": [],
      "stateMutability": "nonpayable",
      "type": "function"
    },
    {
      "inputs": [
        {
          "internalType": "string",
          "name": "title",
          "type": "string"
        },
        {
          "internalType": "string",
          "name": "description",
          "type": "string"
        },
        {
          "internalType": "uint256",
          "name": "daysOpen",
          "type": "uint256"
        }
      ],
      "name": "createProposal",
      "outputs": [],
      "stateMutability": "nonpayable",
      "type": "function"
    },
    {
      "inputs": [],
      "name": "depositETH",
      "outputs": [],
      "stateMutability": "payable",
      "type": "function"
    },
    {
      "inputs": [
        {
          "internalType": "uint256",
          "name": "amount",
          "type": "uint256"
        }
      ],
      "name": "depositUSDC",
      "outputs": [],
      "stateMutability": "nonpayable",
      "type": "function"
    },
    {
      "inputs": [],
      "name": "enableGlobalLiquidation",
      "outputs": [],
      "stateMutability": "nonpayable",
      "type": "function"
    },
    {
      "inputs": [],
      "name": "getAllProposals",
      "outputs": [
        {
          "components": [
            {
              "internalType": "uint256",
              "name": "id",
              "type": "uint256"
            },
            {
              "internalType": "address",
              "name": "proposer",
              "type": "address"
            },
            {
              "internalType": "string",
              "name": "title",
              "type": "string"
            },
            {
              "internalType": "string",
              "name": "description",
              "type": "string"
            },
            {
              "internalType": "uint256",
              "name": "startTime",
              "type": "uint256"
            },
            {
              "internalType": "uint256",
              "name": "endTime",
              "type": "uint256"
            },
            {
              "internalType": "uint256",
              "name": "forVotes",
              "type": "uint256"
            },
            {
              "internalType": "uint256",
              "name": "againstVotes",
              "type": "uint256"
            },
            {
              "internalType": "bool",
              "name": "active",
              "type": "bool"
            },
            {
              "internalType": "bool",
              "name": "executed",
              "type": "bool"
            }
          ],
          "internalType": "struct PoolPandorasSepolia.Proposal[]",
          "name": "",
          "type": "tuple[]"
        }
      ],
      "stateMutability": "view",
      "type": "function"
    },
    {
      "inputs": [
        {
          "internalType": "bytes32",
          "name": "role",
          "type": "bytes32"
        }
      ],
      "name": "getRoleAdmin",
      "outputs": [
        {
          "internalType": "bytes32",
          "name": "",
          "type": "bytes32"
        }
      ],
      "stateMutability": "view",
      "type": "function"
    },
    {
      "inputs": [
        {
          "internalType": "address",
          "name": "user",
          "type": "address"
        }
      ],
      "name": "getUserDeposits",
      "outputs": [
        {
          "components": [
            {
              "internalType": "uint96",
              "name": "amount",
              "type": "uint96"
            },
            {
              "internalType": "uint96",
              "name": "yieldReceived",
              "type": "uint96"
            },
            {
              "internalType": "uint48",
              "name": "timestamp",
              "type": "uint48"
            },
            {
              "internalType": "uint48",
              "name": "withdrawnAt",
              "type": "uint48"
            },
            {
              "internalType": "enum PoolPandorasSepolia.TokenType",
              "name": "token",
              "type": "uint8"
            },
            {
              "internalType": "uint8",
              "name": "flags",
              "type": "uint8"
            }
          ],
          "internalType": "struct PoolPandorasSepolia.DepositInfo[]",
          "name": "",
          "type": "tuple[]"
        }
      ],
      "stateMutability": "view",
      "type": "function"
    },
    {
      "inputs": [
        {
          "internalType": "address",
          "name": "user",
          "type": "address"
        }
      ],
      "name": "getUserStats",
      "outputs": [
        {
          "internalType": "uint256",
          "name": "depositedETH",
          "type": "uint256"
        },
        {
          "internalType": "uint256",
          "name": "depositedUSDC",
          "type": "uint256"
        },
        {
          "internalType": "uint256",
          "name": "withdrawnETH",
          "type": "uint256"
        },
        {
          "internalType": "uint256",
          "name": "withdrawnUSDC",
          "type": "uint256"
        },
        {
          "internalType": "uint256",
          "name": "claimableUtilityETH",
          "type": "uint256"
        },
        {
          "internalType": "uint256",
          "name": "claimableUtilityUSDC",
          "type": "uint256"
        },
        {
          "internalType": "uint256",
          "name": "reinvestedETH",
          "type": "uint256"
        },
        {
          "internalType": "uint256",
          "name": "reinvestedUSDC",
          "type": "uint256"
        }
      ],
      "stateMutability": "view",
      "type": "function"
    },
    {
      "inputs": [],
      "name": "getVaultStats",
      "outputs": [
        {
          "internalType": "uint256",
          "name": "ethInVault",
          "type": "uint256"
        },
        {
          "internalType": "uint256",
          "name": "usdcInVault",
          "type": "uint256"
        },
        {
          "internalType": "uint256",
          "name": "totalDepositedETH_",
          "type": "uint256"
        },
        {
          "internalType": "uint256",
          "name": "totalDepositedUSDC_",
          "type": "uint256"
        },
        {
          "internalType": "uint256",
          "name": "totalWithdrawnETH_",
          "type": "uint256"
        },
        {
          "internalType": "uint256",
          "name": "totalWithdrawnUSDC_",
          "type": "uint256"
        },
        {
          "internalType": "uint256",
          "name": "totalUtilityETH_",
          "type": "uint256"
        },
        {
          "internalType": "uint256",
          "name": "totalUtilityUSDC_",
          "type": "uint256"
        },
        {
          "internalType": "uint256",
          "name": "totalReinvestedETH_",
          "type": "uint256"
        },
        {
          "internalType": "uint256",
          "name": "totalReinvestedUSDC_",
          "type": "uint256"
        },
        {
          "internalType": "uint256",
          "name": "totalInvestedETH_",
          "type": "uint256"
        },
        {
          "internalType": "uint256",
          "name": "totalInvestedUSDC_",
          "type": "uint256"
        },
        {
          "internalType": "uint256",
          "name": "numDepositors",
          "type": "uint256"
        },
        {
          "internalType": "uint256",
          "name": "numWithdrawnUsers",
          "type": "uint256"
        }
      ],
      "stateMutability": "view",
      "type": "function"
    },
    {
      "inputs": [
        {
          "internalType": "address",
          "name": "user",
          "type": "address"
        }
      ],
      "name": "getVotingPower",
      "outputs": [
        {
          "internalType": "uint256",
          "name": "",
          "type": "uint256"
        }
      ],
      "stateMutability": "view",
      "type": "function"
    },
    {
      "inputs": [],
      "name": "globalLiquidationEnabled",
      "outputs": [
        {
          "internalType": "bool",
          "name": "",
          "type": "bool"
        }
      ],
      "stateMutability": "view",
      "type": "function"
    },
    {
      "inputs": [],
      "name": "globalLiquidationTimestamp",
      "outputs": [
        {
          "internalType": "uint48",
          "name": "",
          "type": "uint48"
        }
      ],
      "stateMutability": "view",
      "type": "function"
    },
    {
      "inputs": [
        {
          "internalType": "bytes32",
          "name": "role",
          "type": "bytes32"
        },
        {
          "internalType": "address",
          "name": "account",
          "type": "address"
        }
      ],
      "name": "grantRole",
      "outputs": [],
      "stateMutability": "nonpayable",
      "type": "function"
    },
    {
      "inputs": [
        {
          "internalType": "bytes32",
          "name": "role",
          "type": "bytes32"
        },
        {
          "internalType": "address",
          "name": "account",
          "type": "address"
        }
      ],
      "name": "hasRole",
      "outputs": [
        {
          "internalType": "bool",
          "name": "",
          "type": "bool"
        }
      ],
      "stateMutability": "view",
      "type": "function"
    },
    {
      "inputs": [
        {
          "internalType": "uint256",
          "name": "",
          "type": "uint256"
        },
        {
          "internalType": "address",
          "name": "",
          "type": "address"
        }
      ],
      "name": "hasVoted",
      "outputs": [
        {
          "internalType": "bool",
          "name": "",
          "type": "bool"
        }
      ],
      "stateMutability": "view",
      "type": "function"
    },
    {
      "inputs": [
        {
          "internalType": "address",
          "name": "",
          "type": "address"
        }
      ],
      "name": "hasWithdrawn",
      "outputs": [
        {
          "internalType": "bool",
          "name": "",
          "type": "bool"
        }
      ],
      "stateMutability": "view",
      "type": "function"
    },
    {
      "inputs": [],
      "name": "injectUtilityETH",
      "outputs": [],
      "stateMutability": "payable",
      "type": "function"
    },
    {
      "inputs": [
        {
          "internalType": "uint256",
          "name": "amount",
          "type": "uint256"
        }
      ],
      "name": "injectUtilityUSDC",
      "outputs": [],
      "stateMutability": "nonpayable",
      "type": "function"
    },
    {
      "inputs": [
        {
          "internalType": "address",
          "name": "",
          "type": "address"
        }
      ],
      "name": "isKnownDepositor",
      "outputs": [
        {
          "internalType": "bool",
          "name": "",
          "type": "bool"
        }
      ],
      "stateMutability": "view",
      "type": "function"
    },
    {
      "inputs": [
        {
          "internalType": "address",
          "name": "forwarder",
          "type": "address"
        }
      ],
      "name": "isTrustedForwarder",
      "outputs": [
        {
          "internalType": "bool",
          "name": "",
          "type": "bool"
        }
      ],
      "stateMutability": "view",
      "type": "function"
    },
    {
      "inputs": [
        {
          "internalType": "address",
          "name": "",
          "type": "address"
        }
      ],
      "name": "isWhitelisted",
      "outputs": [
        {
          "internalType": "bool",
          "name": "",
          "type": "bool"
        }
      ],
      "stateMutability": "view",
      "type": "function"
    },
    {
      "inputs": [],
      "name": "lockupPeriod",
      "outputs": [
        {
          "internalType": "uint256",
          "name": "",
          "type": "uint256"
        }
      ],
      "stateMutability": "view",
      "type": "function"
    },
    {
      "inputs": [],
      "name": "maxCapETH",
      "outputs": [
        {
          "internalType": "uint256",
          "name": "",
          "type": "uint256"
        }
      ],
      "stateMutability": "view",
      "type": "function"
    },
    {
      "inputs": [],
      "name": "maxCapUSDC",
      "outputs": [
        {
          "internalType": "uint256",
          "name": "",
          "type": "uint256"
        }
      ],
      "stateMutability": "view",
      "type": "function"
    },
    {
      "inputs": [],
      "name": "pausedDeposits",
      "outputs": [
        {
          "internalType": "bool",
          "name": "",
          "type": "bool"
        }
      ],
      "stateMutability": "view",
      "type": "function"
    },
    {
      "inputs": [],
      "name": "pausedWithdrawals",
      "outputs": [
        {
          "internalType": "bool",
          "name": "",
          "type": "bool"
        }
      ],
      "stateMutability": "view",
      "type": "function"
    },
    {
      "inputs": [],
      "name": "proposalCount",
      "outputs": [
        {
          "internalType": "uint256",
          "name": "",
          "type": "uint256"
        }
      ],
      "stateMutability": "view",
      "type": "function"
    },
    {
      "inputs": [
        {
          "internalType": "uint256",
          "name": "",
          "type": "uint256"
        }
      ],
      "name": "proposals",
      "outputs": [
        {
          "internalType": "uint256",
          "name": "id",
          "type": "uint256"
        },
        {
          "internalType": "address",
          "name": "proposer",
          "type": "address"
        },
        {
          "internalType": "string",
          "name": "title",
          "type": "string"
        },
        {
          "internalType": "string",
          "name": "description",
          "type": "string"
        },
        {
          "internalType": "uint256",
          "name": "startTime",
          "type": "uint256"
        },
        {
          "internalType": "uint256",
          "name": "endTime",
          "type": "uint256"
        },
        {
          "internalType": "uint256",
          "name": "forVotes",
          "type": "uint256"
        },
        {
          "internalType": "uint256",
          "name": "againstVotes",
          "type": "uint256"
        },
        {
          "internalType": "bool",
          "name": "active",
          "type": "bool"
        },
        {
          "internalType": "bool",
          "name": "executed",
          "type": "bool"
        }
      ],
      "stateMutability": "view",
      "type": "function"
    },
    {
      "inputs": [],
      "name": "reinvestUtilityETH",
      "outputs": [],
      "stateMutability": "nonpayable",
      "type": "function"
    },
    {
      "inputs": [],
      "name": "reinvestUtilityUSDC",
      "outputs": [],
      "stateMutability": "nonpayable",
      "type": "function"
    },
    {
      "inputs": [
        {
          "internalType": "bytes32",
          "name": "role",
          "type": "bytes32"
        },
        {
          "internalType": "address",
          "name": "callerConfirmation",
          "type": "address"
        }
      ],
      "name": "renounceRole",
      "outputs": [],
      "stateMutability": "nonpayable",
      "type": "function"
    },
    {
      "inputs": [
        {
          "internalType": "address",
          "name": "token",
          "type": "address"
        },
        {
          "internalType": "address",
          "name": "to",
          "type": "address"
        },
        {
          "internalType": "uint256",
          "name": "amount",
          "type": "uint256"
        }
      ],
      "name": "rescueERC20",
      "outputs": [],
      "stateMutability": "nonpayable",
      "type": "function"
    },
    {
      "inputs": [],
      "name": "returnInvestmentETH",
      "outputs": [],
      "stateMutability": "payable",
      "type": "function"
    },
    {
      "inputs": [
        {
          "internalType": "uint256",
          "name": "amount",
          "type": "uint256"
        }
      ],
      "name": "returnInvestmentUSDC",
      "outputs": [],
      "stateMutability": "nonpayable",
      "type": "function"
    },
    {
      "inputs": [
        {
          "internalType": "bytes32",
          "name": "role",
          "type": "bytes32"
        },
        {
          "internalType": "address",
          "name": "account",
          "type": "address"
        }
      ],
      "name": "revokeRole",
      "outputs": [],
      "stateMutability": "nonpayable",
      "type": "function"
    },
    {
      "inputs": [
        {
          "internalType": "address",
          "name": "user",
          "type": "address"
        },
        {
          "internalType": "uint256[]",
          "name": "depositIndices",
          "type": "uint256[]"
        }
      ],
      "name": "setDepositsAsRedeemable",
      "outputs": [],
      "stateMutability": "nonpayable",
      "type": "function"
    },
    {
      "inputs": [
        {
          "internalType": "uint256",
          "name": "newPeriod",
          "type": "uint256"
        }
      ],
      "name": "setLockupPeriod",
      "outputs": [],
      "stateMutability": "nonpayable",
      "type": "function"
    },
    {
      "inputs": [
        {
          "internalType": "enum PoolPandorasSepolia.TokenType",
          "name": "token",
          "type": "uint8"
        },
        {
          "internalType": "uint256",
          "name": "newCap",
          "type": "uint256"
        }
      ],
      "name": "setMaxCap",
      "outputs": [],
      "stateMutability": "nonpayable",
      "type": "function"
    },
    {
      "inputs": [
        {
          "internalType": "bool",
          "name": "_deposits",
          "type": "bool"
        },
        {
          "internalType": "bool",
          "name": "_withdrawals",
          "type": "bool"
        }
      ],
      "name": "setPaused",
      "outputs": [],
      "stateMutability": "nonpayable",
      "type": "function"
    },
    {
      "inputs": [
        {
          "internalType": "address",
          "name": "newUtilityAddress",
          "type": "address"
        }
      ],
      "name": "setUtilityAddress",
      "outputs": [],
      "stateMutability": "nonpayable",
      "type": "function"
    },
    {
      "inputs": [
        {
          "internalType": "address",
          "name": "user",
          "type": "address"
        },
        {
          "internalType": "bool",
          "name": "status",
          "type": "bool"
        }
      ],
      "name": "setWhitelist",
      "outputs": [],
      "stateMutability": "nonpayable",
      "type": "function"
    },
    {
      "inputs": [
        {
          "internalType": "address[]",
          "name": "users",
          "type": "address[]"
        },
        {
          "internalType": "bool[]",
          "name": "statuses",
          "type": "bool[]"
        }
      ],
      "name": "setWhitelistBatch",
      "outputs": [],
      "stateMutability": "nonpayable",
      "type": "function"
    },
    {
      "inputs": [
        {
          "internalType": "bool",
          "name": "enabled",
          "type": "bool"
        }
      ],
      "name": "setWhitelistEnabled",
      "outputs": [],
      "stateMutability": "nonpayable",
      "type": "function"
    },
    {
      "inputs": [
        {
          "internalType": "bytes4",
          "name": "interfaceId",
          "type": "bytes4"
        }
      ],
      "name": "supportsInterface",
      "outputs": [
        {
          "internalType": "bool",
          "name": "",
          "type": "bool"
        }
      ],
      "stateMutability": "view",
      "type": "function"
    },
    {
      "inputs": [],
      "name": "totalDepositedETH",
      "outputs": [
        {
          "internalType": "uint256",
          "name": "",
          "type": "uint256"
        }
      ],
      "stateMutability": "view",
      "type": "function"
    },
    {
      "inputs": [],
      "name": "totalDepositedUSDC",
      "outputs": [
        {
          "internalType": "uint256",
          "name": "",
          "type": "uint256"
        }
      ],
      "stateMutability": "view",
      "type": "function"
    },
    {
      "inputs": [],
      "name": "totalInvestedETH",
      "outputs": [
        {
          "internalType": "uint256",
          "name": "",
          "type": "uint256"
        }
      ],
      "stateMutability": "view",
      "type": "function"
    },
    {
      "inputs": [],
      "name": "totalInvestedUSDC",
      "outputs": [
        {
          "internalType": "uint256",
          "name": "",
          "type": "uint256"
        }
      ],
      "stateMutability": "view",
      "type": "function"
    },
    {
      "inputs": [],
      "name": "totalReinvestedETH",
      "outputs": [
        {
          "internalType": "uint256",
          "name": "",
          "type": "uint256"
        }
      ],
      "stateMutability": "view",
      "type": "function"
    },
    {
      "inputs": [],
      "name": "totalReinvestedUSDC",
      "outputs": [
        {
          "internalType": "uint256",
          "name": "",
          "type": "uint256"
        }
      ],
      "stateMutability": "view",
      "type": "function"
    },
    {
      "inputs": [],
      "name": "totalUtilityETH",
      "outputs": [
        {
          "internalType": "uint256",
          "name": "",
          "type": "uint256"
        }
      ],
      "stateMutability": "view",
      "type": "function"
    },
    {
      "inputs": [],
      "name": "totalUtilityUSDC",
      "outputs": [
        {
          "internalType": "uint256",
          "name": "",
          "type": "uint256"
        }
      ],
      "stateMutability": "view",
      "type": "function"
    },
    {
      "inputs": [],
      "name": "totalWithdrawnETH",
      "outputs": [
        {
          "internalType": "uint256",
          "name": "",
          "type": "uint256"
        }
      ],
      "stateMutability": "view",
      "type": "function"
    },
    {
      "inputs": [],
      "name": "totalWithdrawnUSDC",
      "outputs": [
        {
          "internalType": "uint256",
          "name": "",
          "type": "uint256"
        }
      ],
      "stateMutability": "view",
      "type": "function"
    },
    {
      "inputs": [],
      "name": "trustedForwarder",
      "outputs": [
        {
          "internalType": "address",
          "name": "",
          "type": "address"
        }
      ],
      "stateMutability": "view",
      "type": "function"
    },
    {
      "inputs": [
        {
          "internalType": "address",
          "name": "user",
          "type": "address"
        },
        {
          "internalType": "uint256[]",
          "name": "depositIndices",
          "type": "uint256[]"
        }
      ],
      "name": "unlockDepositsForUser",
      "outputs": [],
      "stateMutability": "nonpayable",
      "type": "function"
    },
    {
      "inputs": [],
      "name": "usdc",
      "outputs": [
        {
          "internalType": "contract IERC20",
          "name": "",
          "type": "address"
        }
      ],
      "stateMutability": "view",
      "type": "function"
    },
    {
      "inputs": [
        {
          "internalType": "address",
          "name": "",
          "type": "address"
        }
      ],
      "name": "userClaimableUtilityETH",
      "outputs": [
        {
          "internalType": "uint256",
          "name": "",
          "type": "uint256"
        }
      ],
      "stateMutability": "view",
      "type": "function"
    },
    {
      "inputs": [
        {
          "internalType": "address",
          "name": "",
          "type": "address"
        }
      ],
      "name": "userClaimableUtilityUSDC",
      "outputs": [
        {
          "internalType": "uint256",
          "name": "",
          "type": "uint256"
        }
      ],
      "stateMutability": "view",
      "type": "function"
    },
    {
      "inputs": [
        {
          "internalType": "address",
          "name": "",
          "type": "address"
        },
        {
          "internalType": "uint256",
          "name": "",
          "type": "uint256"
        }
      ],
      "name": "userDeposits",
      "outputs": [
        {
          "internalType": "uint96",
          "name": "amount",
          "type": "uint96"
        },
        {
          "internalType": "uint96",
          "name": "yieldReceived",
          "type": "uint96"
        },
        {
          "internalType": "uint48",
          "name": "timestamp",
          "type": "uint48"
        },
        {
          "internalType": "uint48",
          "name": "withdrawnAt",
          "type": "uint48"
        },
        {
          "internalType": "enum PoolPandorasSepolia.TokenType",
          "name": "token",
          "type": "uint8"
        },
        {
          "internalType": "uint8",
          "name": "flags",
          "type": "uint8"
        }
      ],
      "stateMutability": "view",
      "type": "function"
    },
    {
      "inputs": [
        {
          "internalType": "address",
          "name": "",
          "type": "address"
        }
      ],
      "name": "userTotalReinvestedETH",
      "outputs": [
        {
          "internalType": "uint256",
          "name": "",
          "type": "uint256"
        }
      ],
      "stateMutability": "view",
      "type": "function"
    },
    {
      "inputs": [
        {
          "internalType": "address",
          "name": "",
          "type": "address"
        }
      ],
      "name": "userTotalReinvestedUSDC",
      "outputs": [
        {
          "internalType": "uint256",
          "name": "",
          "type": "uint256"
        }
      ],
      "stateMutability": "view",
      "type": "function"
    },
    {
      "inputs": [],
      "name": "utilityAddress",
      "outputs": [
        {
          "internalType": "address",
          "name": "",
          "type": "address"
        }
      ],
      "stateMutability": "view",
      "type": "function"
    },
    {
      "inputs": [
        {
          "internalType": "uint256",
          "name": "proposalId",
          "type": "uint256"
        },
        {
          "internalType": "bool",
          "name": "support",
          "type": "bool"
        }
      ],
      "name": "vote",
      "outputs": [],
      "stateMutability": "nonpayable",
      "type": "function"
    },
    {
      "inputs": [],
      "name": "whitelistEnabled",
      "outputs": [
        {
          "internalType": "bool",
          "name": "",
          "type": "bool"
        }
      ],
      "stateMutability": "view",
      "type": "function"
    },
    {
      "inputs": [
        {
          "internalType": "uint256",
          "name": "depositIndex",
          "type": "uint256"
        }
      ],
      "name": "withdraw",
      "outputs": [],
      "stateMutability": "nonpayable",
      "type": "function"
    },
    {
      "inputs": [
        {
          "internalType": "address",
          "name": "to",
          "type": "address"
        },
        {
          "internalType": "uint256",
          "name": "amount",
          "type": "uint256"
        }
      ],
      "name": "withdrawForInvestmentETH",
      "outputs": [],
      "stateMutability": "nonpayable",
      "type": "function"
    },
    {
      "inputs": [
        {
          "internalType": "address",
          "name": "to",
          "type": "address"
        },
        {
          "internalType": "uint256",
          "name": "amount",
          "type": "uint256"
        }
      ],
      "name": "withdrawForInvestmentUSDC",
      "outputs": [],
      "stateMutability": "nonpayable",
      "type": "function"
    },
    {
      "inputs": [
        {
          "internalType": "uint256",
          "name": "amount",
          "type": "uint256"
        }
      ],
      "name": "withdrawUtilityETH",
      "outputs": [],
      "stateMutability": "nonpayable",
      "type": "function"
    },
    {
      "inputs": [
        {
          "internalType": "uint256",
          "name": "amount",
          "type": "uint256"
        }
      ],
      "name": "withdrawUtilityUSDC",
      "outputs": [],
      "stateMutability": "nonpayable",
      "type": "function"
    },
    {
      "inputs": [
        {
          "internalType": "uint256",
          "name": "",
          "type": "uint256"
        }
      ],
      "name": "withdrawnUsers",
      "outputs": [
        {
          "internalType": "address",
          "name": "",
          "type": "address"
        }
      ],
      "stateMutability": "view",
      "type": "function"
    },
    {
      "stateMutability": "payable",
      "type": "receive"
    }
  ],
  "bytecode": "0x60c060405234620002625762004f89803803806200001d816200027d565b928339810190608081830312620002625780516001600160401b03908181116200026257820183601f8201121562000262578051918211620002675760059382851b6020928380620000718185016200027d565b809781520192820101928311620002625783809101915b8383106200024757509050620000a191508401620002a3565b93620000be6060620000b660408701620002a3565b9501620002a3565b9460019485805560805262ed4e006002556a0422ca8b0a00a42500000060035560049265048c27395000845560018060a01b03918281161562000236578354600160501b600160f01b03191660509190911b600160501b600160f01b031617835595811660a0526000958694865b620001a1575b60405161481a90816200074f8239608051818181611ff401528181612b910152614483015260a05181818161043f01528181610e110152818161190c01528181611bee015281816120ab015281816122e50152818161279b01528181612a9701528181612fb901526132f30152f35b805188101562000230576200020783838a871b8401015116620001c481620002b8565b50620001d08162000345565b50620001dc81620003f4565b50620001e88162000494565b50620001f48162000534565b506200020081620005d4565b5062000674565b5060001988146200021d5786809801976200012c565b634e487b7160e01b865260118552602486fd5b62000132565b60405163d92e233d60e01b81528590fd5b81906200025484620002a3565b815201910190839062000088565b600080fd5b634e487b7160e01b600052604160045260246000fd5b6040519190601f01601f191682016001600160401b038111838210176200026757604052565b51906001600160a01b03821682036200026257565b6001600160a01b0390811660008181527fad3228b676f7d3cd4284a5443f17f1962b36e491b30a40b2405849e597ba5fb5602052604081205490929060ff166200034057828052826020526040832082845260205260408320600160ff19825416179055620003266200070f565b169160008051602062004f698339815191528180a4600190565b505090565b6001600160a01b0390811660008181527f7d7ffb7a348e1c6a02869081a26547b49160dd3df72d1d75a570eb9b698292ec602052604081205490927fa49807205ce4d355092ef5a8a18f56e8913cf4a201fbe287825b095693c217759160ff16620003ee5760008051602062004f6983398151915290828552846020526040852084865260205260408520600160ff19825416179055620003e56200070f565b169380a4600190565b50505090565b6001600160a01b0390811660008181527ff7c9542c591017a21c74b6f3fab6263c7952fc0aaf9db4c22a2a04ddc7f8674f602052604081205490927f65d7a28e3265b37a6474929f336521b332c1681b933f6cb9f3376673440d862a9160ff16620003ee5760008051602062004f6983398151915290828552846020526040852084865260205260408520600160ff19825416179055620003e56200070f565b6001600160a01b0390811660008181527f2eb8dcb37180405b14a1bdb0a7c9bf5c42acb064f7e582ada9a56e709d942e57602052604081205490927fc806897caf4fd5068191157e44d3988e43139a37e0b97b6793e1ed11841406049160ff16620003ee5760008051602062004f6983398151915290828552846020526040852084865260205260408520600160ff19825416179055620003e56200070f565b6001600160a01b0390811660008181527f9505c8401a8a13f8b514b3efaaa61be2dc9810e3f02fbd8edeba297fdd793d65602052604081205490927ff60566c40710959d8d30b6067ce3c53c757bec78eecb0e46b83c7f8194ffae379160ff16620003ee5760008051602062004f6983398151915290828552846020526040852084865260205260408520600160ff19825416179055620003e56200070f565b6001600160a01b0390811660008181527fca62ffb99fa36d4130bbee1a8581c4d2fd87e1d2bf4a5e65538ad96ae66582c9602052604081205490927f78c90eb9e475048b483a290aee04b5fe48355537c3623c7637b17d3bed71c6ed9160ff16620003ee5760008051602062004f6983398151915290828552846020526040852084865260205260408520600160ff19825416179055620003e56200070f565b6001600160a01b0390811660008181527fe84508f2c7fa9c351146748b3025cb78b45df37d868e48c6a75102fecdeee645602052604081205490927f241ecf16d79d0f8dbfb92cbc07fe17840425976cf0667f022fe9877caa831b089160ff16620003ee5760008051602062004f6983398151915290828552846020526040852084865260205260408520600160ff19825416179055620003e55b60143610158062000739575b156200073557601319360136811162000262573560601c90565b3390565b506080516001600160a01b031633146200071b56fe6080604052600436101561001b575b361561001957600080fd5b005b60003560e01c8063013cf08b14613dbe57806301ffc9a714613d685780630386a01614613d0157806304c68af014613cc7578063052d9e7e14613c8857806308f4333314613be45780630c016ad514613ba95780630ce0ebf41461380e57806317b51642146137855780631c5aeef714613767578063246d47b714613741578063248a9ca31461371257806327175b23146136f4578063275991d2146134b65780632a5bf6d2146133a25780632aad5edd146133845780632e1a7d4d1461310f5780632f2ff15d146130d05780633408567c1461309657806336568abe146130455780633ac43970146130275780633af32abf14612fe85780633e413bee14612fa357806341debf1f14612f075780634385963214612eba57806347af19aa14612de95780634e43603a14612c5c57806351fb012d14612c3657806353d6fd5914612bb8578063572b6c0514612b68578063588583a014612b405780635983b0bd14612a185780635e2c19db146129d95780636068d6cb146129b657806364021b13146129425780636426be481461286357806365d5ec96146128245780636c6ff56c146127145780636ec23995146126b357806372e55399146121e157806375b238fc146121a6578063762e1c731461214057806376c1d3db146120405780637bd05cf5146120235780637da0a87714611fde578063867d099a14611e6e578063885f502914611e33578063886d589d14611df9578063899aa99114611ddb57806389bad0a614611d3d5780638b713b2e14611d1f5780638dd4928e14611b9357806391d1485414611b4657806393055c4314611aa757806397d9e5b414611a895780639ddc391214611a6b5780639e657e3314611a10578063a217fddf146119f4578063a59aa5a6146118df578063a6c26603146118bb578063b2118a8d146117ed578063b2b77ae2146117c7578063b65ba94b146117a9578063b758aeaa146116d2578063bb4d4436146116ac578063bda821e814611470578063c6d95b74146113ab578063c771c3901461135f578063c9d27afe14611154578063cceb68f514610ef2578063d547741f14610eb3578063d830d5cc14610db1578063da35c66414610d93578063da8d5add14610d05578063e043b2b214610cca578063e15e23c114610cac578063e340b78314610c8e578063e399067f14610bc5578063e63ab1e914610b8a578063e9fe0c7814610b50578063ec87621c14610b15578063ee947a7c14610af7578063f29b223914610aca578063f5f1135014610a44578063f5f69af2146109d1578063f6326fb3146107a4578063f688bcfb1461040b5763fd46a1710361000e5734610406576000366003190112610406576020601754604051908152f35b600080fd5b3461040657602080600319360112610406576004359061042961453d565b60055460ff8116610792576001600160a01b03907f0000000000000000000000000000000000000000000000000000000000000000821690811561078057841561076e57610479856010546144f1565b6004541061075c5760101c60ff168061073b575b6107295782846104dd9261049f614458565b6040516323b872dd60e01b81526001600160a01b03909116600482015230602482015260448101929092529092839190829060009082906064820190565b03925af1801561071d576106f0575b506104f5614458565b169182600052600682526040600020926040519361051285613ee0565b6001600160601b03808416865284860160008152604087019665ffffffffffff908142168952606081019360008552608082019360019a8b865260a0840197600089528054600160401b8110156106da57610571918e8201815561404c565b9390936106c45793518354925191516001600160f01b031990931694169390931760609390931b600160601b600160c01b03169290921760c09290921b65ffffffffffff60c01b169190911781559251928801805492519190931693909160028310156106ae576106129460ff60301b60ff9460301b169166ffffffffffffff191617178355511660ff60381b82549160381b169060ff60381b1916179055565b80600052600d8352604060002084815460ff81161561069f575b505060068452506040600020546000198101939084116106895760a06000805160206147a583398151915291610682958560405192898452830152426040830152606082015260006080820152a26010546144f1565b6010558055005b634e487b7160e01b600052601160045260246000fd5b60ff191617905584848161062c565b634e487b7160e01b600052602160045260246000fd5b634e487b7160e01b600052600060045260246000fd5b634e487b7160e01b600052604160045260246000fd5b61070f90833d8511610716575b6107078183613efb565b810190614560565b50836104ec565b503d6106fd565b6040513d6000823e3d90fd5b604051630b094f2760e31b8152600490fd5b5081610745614458565b166000526007835260ff604060002054161561048d565b604051636bf4c8e960e11b8152600490fd5b60405163162908e360e11b8152600490fd5b60405163d92e233d60e01b8152600490fd5b60405163deeb694360e01b8152600490fd5b6000366003190112610406576107b861453d565b60055460ff811661079257341561076e576107d534600f546144f1565b6003541061075c5760101c60ff16806109a8575b610729576001600160a01b036107fd614458565b16806000526006602052604060002060405161081881613ee0565b6001600160601b03908134168152602081019160008352604082019165ffffffffffff91824216845260608201946000865260808301946000865260a0840197600089528054600160401b8110156106da576108799160018201815561404c565b9390936106c45793518354925191516001600160f01b031990931694169390931760609390931b600160601b600160c01b03169290921760c09290921b65ffffffffffff60c01b169190911781559251600193909301805492519190931693909160028310156106ae5761091d9460ff60301b60ff9460301b169166ffffffffffffff191617178355511660ff60381b82549160381b169060ff60381b1916179055565b80600052600d6020526040600020805460ff811615610998575b5050600660205260406000205460001981019081116106895760a06000805160206147a5833981519152916040519060008252346020830152426040830152606082015260006080820152a261098f34600f546144f1565b600f5560018055005b60ff191660011790558180610937565b506001600160a01b036109b9614458565b16600052600760205260ff60406000205416156107e9565b346104065760403660031901126104065760043560028110156104065760407f5d7976bccd4b396c1a1a0020032e62bf8a381bcffc61e69a13ea61761b75721891602435610a1d614171565b81610a3b57806003555b610a338351809361407e565b6020820152a1005b80600455610a27565b3461040657610a5236614132565b90610a5b614171565b60005b828110610a6757005b610ac59060018060a01b0385166000526006602052610ac06001610a9b6040600020610a948589896144c0565b359061404c565b5001805460ff60381b198116603891821c60ff1660041790911b60ff60381b16179055565b6144b1565b610a5e565b346104065760003660031901126104065760055460405160509190911c6001600160a01b03168152602090f35b34610406576000366003190112610406576020600254604051908152f35b346104065760003660031901126104065760206040517f241ecf16d79d0f8dbfb92cbc07fe17840425976cf0667f022fe9877caa831b088152f35b34610406576020366003190112610406576001600160a01b03610b71614002565b16600052600a6020526020604060002054604051908152f35b346104065760003660031901126104065760206040517f65d7a28e3265b37a6474929f336521b332c1681b933f6cb9f3376673440d862a8152f35b3461040657600036600319011261040657610bde61453d565b610be6614458565b6001600160a01b03811660008181526009602052604090205490918115610c7c576000808084819487835260096020528260408120555af1610c266144fe565b5015610c6a5760607f6914793c7a82461acec66c7de7fdbbbf1f825c26bc2fe939b61f0e4f8964c2b59160405190600082526020820152426040820152a260018055005b6040516312171d8360e31b8152600490fd5b604051633bd65a7b60e21b8152600490fd5b34610406576000366003190112610406576020601254604051908152f35b34610406576000366003190112610406576020601654604051908152f35b346104065760003660031901126104065760206040517fc806897caf4fd5068191157e44d3988e43139a37e0b97b6793e1ed11841406048152f35b3461040657600036600319011261040657610d1e614171565b60055460ff8160181c16610d815763010000009069ffffffffffff000000004260201b169069ffffffffffffff000000191617176005557f2388ceaed48d21bd0802856df41a22705f9046a67a817a047352aa3bbfe5c5d16020604051428152a1005b60405163ae7fe58960e01b8152600490fd5b34610406576000366003190112610406576020601954604051908152f35b3461040657602036600319011261040657600435610dcd61424b565b801561076e5780610ddc614458565b6040516323b872dd60e01b81526001600160a01b039182166004820152306024820152604481019290925260208260648160007f000000000000000000000000000000000000000000000000000000000000000086165af190811561071d577f8bafec96fcffb6f12596b4635c76397b7bc1f363b22c49c13136b63677323dcc92606092610e95575b50610e72846014546144f1565b601455610e7d614458565b604051946001865260208601524260408601521692a2005b610eac9060203d8111610716576107078183613efb565b5084610e65565b3461040657604036600319011261040657610019600435610ed2614018565b90806000526000602052610eed600160406000200154614325565b6143e6565b3461040657600036600319011261040657601954610f0f81614779565b610f1c6040519182613efb565b818152601f19610f2b83614779565b0160005b8181106110f7575050600191825b8181111561102d578284604051918291602090818401828552835180915260408501928060408360051b8801019501936000905b838210610f7e5787870388f35b918496819592949698508190603f198b82030185528951908151815260018060a01b03838301511683820152610fd9610fc66040840151610140806040860152840190613fc2565b6060808501519084830390850152613fc2565b916080808201519083015260a0808201519083015260c0808201519083015260e081015160e08301526101008082015115159083015261012080910151151591015298019201920187969593919492610f71565b80600052602090601a825260406000206000198201828111610689576110f2936110ec926040519161105e83613ec4565b81548352898201546001600160a01b03169083015261107f60028201613f1c565b604083015261109060038201613f1c565b606083015260048101546080830152600581015460a0830152600681015460c0830152600781015460e083015260088091015460ff9182821615156101008501521c1615156101208201526110e58288614790565b5285614790565b506144b1565b610f3d565b60209060405161110681613ec4565b600081528260008183015260608060408401528083015260006080830152600060a0830152600060c0830152600060e083015260006101008301526000610120830152828601015201610f2f565b346104065760403660031901126104065760043561117061403d565b9061117961453d565b80600052602091601a8352604060002060ff6008820154161561132457600581015442116112f0576000838152601b8552604090206001600160a01b0390816111c0614458565b16600052855260ff604060002054166112bb576111e36111de614458565b6146a3565b91821561128457917f7c2de587c00d75474a0c6c6fa96fd3b45dc974cd4e8a75f712bb84c950dce1b5939160409386600052601b88528460002082611226614458565b16600052885284600020600160ff198254161790558360001461126f576006016112518382546144f1565b90555b61125c614458565b169583519215158352820152a360018055005b60070161127d8382546144f1565b9055611254565b60405162461bcd60e51b815260048101879052600f60248201526e2737902b37ba34b733902837bbb2b960891b6044820152606490fd5b60405162461bcd60e51b815260048101869052600d60248201526c105b1c9958591e481d9bdd1959609a1b6044820152606490fd5b60405162461bcd60e51b815260048101859052600c60248201526b159bdd1a5b99c8195b99195960a21b6044820152606490fd5b60405162461bcd60e51b815260048101859052601360248201527250726f706f73616c206e6f742061637469766560681b6044820152606490fd5b34610406576020366003190112610406577fc5e00a325524bc148ddc05bb642b804e9ae1dfc670c217ed3c4c6595f7427ef4602060043561139e614171565b80600255604051908152a1005b34610406576040366003190112610406576113c4614002565b6024356113cf6141de565b6113d761453d565b6001600160a01b038281169283156107805747831161145e5760008080858194611403826017546144f1565b6017555af16114106144fe565b5015610c6a5760607f8d4f9c9a6da9172da9a02229d92e4af088c62953986a74048d010260b197def391611442614458565b604051946000865260208601524260408601521692a360018055005b604051631e9acf1760e31b8152600490fd5b346104065760003660031901126104065761148961453d565b6001600160a01b03611499614458565b1680600052602090600a82526040600020548015610c7c5781600052600a83526000604081205560068352604060002092604051936114d785613ee0565b6001600160601b03808416865282860160008152604087019665ffffffffffff908142168952606081019360008552608082019360019a8b865260a0840197600889528054600160401b8110156106da57611536918e8201815561404c565b9390936106c45793518354925191516001600160f01b031990931694169390931760609390931b600160601b600160c01b03169290921760c09290921b65ffffffffffff60c01b169190911781559251928801805492519190931693909160028310156106ae576115d79460ff60301b60ff9460301b169166ffffffffffffff191617178355511660ff60381b82549160381b169060ff60381b1916179055565b82600052600d8152604060002084815460ff81161561169d575b50506006825250604060002054600019810191908211610689577f997d2ec09b086de73d509bbc4ad2b52fd7e2338024464bede93a41abd6ccdc3892846000805160206147a583398151915260a0606095604051908a8252858783015242604083015287820152896080820152a261166b816016546144f1565b60165584600052600c825260406000206116868282546144f1565b905560405191868352820152426040820152a28055005b60ff19161790558484816115f1565b346104065760203660031901126104065760206116ca6111de614002565b604051908152f35b34610406576116e0366140e8565b92916116ea614171565b838103611797579291906000936000935b81851061172d576013548681811161171b5761171691614578565b601355005b604051632f37549d60e01b8152600490fd5b909192939461173d8683866144c0565b3590811561076e5761178e91611788916001600160a01b036117686117638b898c6144c0565b6144dd565b16600052600960205260406000206117818382546144f1565b90556144f1565b956144b1565b939291906116fb565b60405163512509d360e11b8152600490fd5b34610406576000366003190112610406576020601354604051908152f35b3461040657600036600319011261040657602060ff60055460081c166040519015158152f35b3461040657606036600319011261040657611806614002565b61180e614018565b6044359161181a614171565b6001600160a01b03828116939084156107805760405163a9059cbb60e01b81526001600160a01b03949094166004850152602484018290529190911691906020826044816000875af190811561071d577f8bbfbb5d7fcacf6fc74005cdede0635561638507f576c95f7f294c22141be2e59260209261189e575b50604051908152a3005b6118b490833d8111610716576107078183613efb565b5085611894565b34610406576000366003190112610406576020604051681b1ae4d6e2ef5000008152f35b34610406576000366003190112610406576040516370a0823160e01b8152306004820152476020826024817f00000000000000000000000000000000000000000000000000000000000000006001600160a01b03165afa801561071d576000906119c1575b6101c09250600f546010546011546012546013546014549060155492601654946017549660185498600e549a6040519c8d5260208d015260408c015260608b015260808a015260a089015260c088015260e087015261010086015261012085015261014084015261016083015260006101808301526101a0820152f35b506020823d82116119ec575b816119da60209383613efb565b81010312610406576101c09151611944565b3d91506119cd565b3461040657600036600319011261040657602060405160008152f35b3461040657602036600319011261040657600435600e5481101561040657600e6000527fbb7b4a454dc3493923482f07822329ed19e8244eff582cc204f8554c3620c3fd01546040516001600160a01b039091168152602090f35b34610406576000366003190112610406576020600354604051908152f35b34610406576000366003190112610406576020601554604051908152f35b3461040657602036600319011261040657600435611ac36142b8565b611acb61453d565b6005546001600160a01b039060501c811680156107805747831161145e57600080808581945af1611afa6144fe565b5015610c6a5760607f9adbdc797aca3ce26a722598f00149b2328fd124444e6d0b10c4bdc7cfc381969160055460501c169260405190600082526020820152426040820152a260018055005b3461040657604036600319011261040657611b5f614018565b600435600052600060205260406000209060018060a01b0316600052602052602060ff604060002054166040519015158152f35b3461040657604036600319011261040657611bac614002565b60243590611bb86141de565b611bc061453d565b6001600160a01b03818116929091908315610780576040516370a0823160e01b8152306004820152602093907f00000000000000000000000000000000000000000000000000000000000000008216908581602481855afa90811561071d57600091611cf2575b50831161145e57828591611c7c95611c41836018546144f1565b60185560405163a9059cbb60e01b81526001600160a01b03909116600482015260248101929092529094859190829060009082906044820190565b03925af191821561071d577f8d4f9c9a6da9172da9a02229d92e4af088c62953986a74048d010260b197def393606093611cd5575b50611cba614458565b9060405195600187528601524260408601521692a360018055005b611ceb90863d8811610716576107078183613efb565b5086611cb1565b90508581813d8311611d18575b611d098183613efb565b81010312610406575187611c27565b503d611cff565b34610406576000366003190112610406576020601154604051908152f35b3461040657602036600319011261040657611d56614002565b611d5e614171565b6001600160a01b03811690811561078057600580547fffff0000000000000000000000000000000000000000ffffffffffffffffffff1660509290921b600160501b600160f01b03169190911790556040519081527f1d6240e71a77c9e9d07d1d6ecbb9ea4274fcc8bc19adc5b05a3548ac7e40e18990602090a1005b34610406576000366003190112610406576020600f54604051908152f35b34610406576020366003190112610406576001600160a01b03611e1a614002565b16600052600b6020526020604060002054604051908152f35b346104065760003660031901126104065760206040517f78c90eb9e475048b483a290aee04b5fe48355537c3623c7637b17d3bed71c6ed8152f35b3461040657611e7c36614132565b91611e85614458565b6001600160a01b0390811660008181527f2eb8dcb37180405b14a1bdb0a7c9bf5c42acb064f7e582ada9a56e709d942e57602090815260409091205490959294929160ff917fc806897caf4fd5068191157e44d3988e43139a37e0b97b6793e1ed118414060490831615611fc057505060005b828110611f3e57604051878152858716907f8b655a966f162e1d3686ea25cd61682331984ab5662b451deff96f12d716f45b9080611f39818c01888a614614565b0390a2005b85851660005260068752611f5b6040600020610a948386886144c0565b5090600180920191825460381c90811615801590611fb4575b611fa257825460ff60381b191690841660021760381b60ff60381b1617909155611f9d906144b1565b611ef8565b60405163181821bd60e11b8152600490fd5b50600281161515611f74565b604492506040519163e2517d3f60e01b835260048301526024820152fd5b34610406576000366003190112610406576040517f00000000000000000000000000000000000000000000000000000000000000006001600160a01b03168152602090f35b346104065760003660031901126104065760206040516107d08152f35b346104065760203660031901126104065760043561205c6142b8565b61206461453d565b60055460501c6001600160a01b039081169081156107805760405163a9059cbb60e01b81526001600160a01b039290921660048301526024820183905260208260448160007f000000000000000000000000000000000000000000000000000000000000000086165af190811561071d577f9adbdc797aca3ce26a722598f00149b2328fd124444e6d0b10c4bdc7cfc3819692606092612122575b5060055460501c169260405190600182526020820152426040820152a260018055005b6121399060203d8111610716576107078183613efb565b50846120ff565b3461040657604036600319011261040657612159614002565b602435612164614171565b801561076e57601454811161171b576121a19160018060a01b0316600052600a60205260406000206121978282546144f1565b9055601454614578565b601455005b346104065760003660031901126104065760206040517fa49807205ce4d355092ef5a8a18f56e8913cf4a201fbe287825b095693c217758152f35b34610406576020366003190112610406576004356001600160401b038111610406576122119036906004016140b8565b9061221a61453d565b60ff60055460081c166126a15761222f614458565b60009283929183808080805b86811061249257508061247d575b5080612468575b506001600160a01b03831660009081526008602052604090205460ff16158061245f575b61242e575b61228381836144f1565b6123a5575b505061229484866144f1565b61229f575b60018055005b8360206122af6122df96886144f1565b60405163a9059cbb60e01b81526001600160a01b0385166004820152602481019190915295869081906044820190565b038160007f00000000000000000000000000000000000000000000000000000000000000006001600160a01b03165af194851561071d577fbf06e98fe211a4b82f625232ab1c7a75caea5e0d624bc267578d6f22fce788c395612386575b5061235c6040519485946001865260a0602087015260a0860191614614565b604084019690965260608301524260808301526001600160a01b0316930390a28080808080612299565b61239e9060203d602011610716576107078183613efb565b508661233d565b60008080806123b485876144f1565b875af16123bf6144fe565b5015610c6a577fbf06e98fe211a4b82f625232ab1c7a75caea5e0d624bc267578d6f22fce788c390604051906000825260a0602083015261240460a083018789614614565b604083019490945260608201524260808201526001600160a01b0384169281900390a28580612288565b61243783614585565b6001600160a01b0383166000908152600860205260409020805460ff19166001179055612279565b50831515612274565b612474906012546144f1565b60125587612250565b612489906011546144f1565b60115588612249565b909391926124a182888a6144c0565b359460018060a01b03871660005260066020526124c286604060002061404c565b5091600183015460381c6001811661268f576124ed65ffffffffffff855460c01c16600254906144f1565b421080612684575b80612662575b61265057600160ff612527921617600185019060ff60381b82549160381b169060ff60381b1916179055565b65ffffffffffff421665ffffffffffff1960018501541617928360018201555491600260ff8560301c1610156106ae5760ff8460301c16156000146125f357886125a098979695936125e66125b26125ee97956125a66000805160206147c5833981519152966001600160601b039e8f871680926144f1565b9b6144f1565b9c8460601c16906144f1565b995b6040516001600160a01b039094169584934291606082901c6001600160601b0390811692169060301c60ff16866145e9565b0390a26144b1565b61223b565b93919290959496889b9c6001600160601b0385169687612612916144f1565b9661261c916144f1565b9c8460601c6001600160601b0316612633916144f1565b9b6125ee946125e66000805160206147c5833981519152936125b4565b60405163f38b9b5b60e01b8152600490fd5b5060ff60055460181c1680612678575b156124fb565b50600481161515612672565b5060028116156124f5565b604051636507689f60e01b8152600490fd5b604051636022a9e760e01b8152600490fd5b34610406576040366003190112610406576126cc614002565b6024356126d7614171565b801561076e57601354811161171b576117169160018060a01b03166000526009602052604060002061270a8282546144f1565b9055601354614578565b346104065760003660031901126104065761272d61453d565b612735614458565b6001600160a01b038181166000818152600a60209081526040909120549193928215610c7c576000858152600a835260408082208290555163a9059cbb60e01b81526001600160a01b0395909516600486015260248501849052829185916044918391907f0000000000000000000000000000000000000000000000000000000000000000165af191821561071d577f6914793c7a82461acec66c7de7fdbbbf1f825c26bc2fe939b61f0e4f8964c2b593606093612807575b506040519160018352820152426040820152a260018055005b61281d90833d8511610716576107078183613efb565b50856127ee565b34610406576020366003190112610406576001600160a01b03612845614002565b16600052600d602052602060ff604060002054166040519015158152f35b346104065760403660031901126104065761287c61402e565b61288461403d565b9061288d614458565b6001600160a01b031660008181527ff7c9542c591017a21c74b6f3fab6263c7952fc0aaf9db4c22a2a04ddc7f8674f60205260409020547f65d7a28e3265b37a6474929f336521b332c1681b933f6cb9f3376673440d862a9060ff1615611fc0577fac1664632d6278432aa05a6afc0aa83e5ea08e8df9a1436736daa5d6283211c0604085851515906005549015159061ff008260081b169060ff84169061ffff1916171760055582519182526020820152a1005b60003660031901126104065761295661424b565b341561076e57612968346013546144f1565b601355612973614458565b7f8bafec96fcffb6f12596b4635c76397b7bc1f363b22c49c13136b63677323dcc6060604051926000845234602085015242604085015260018060a01b031692a2005b3461040657600036600319011261040657602060ff600554166040519015158152f35b34610406576020366003190112610406576001600160a01b036129fa614002565b166000526008602052602060ff604060002054166040519015158152f35b3461040657602036600319011261040657600435612a346141de565b612a3c61453d565b801561076e57601854808211612b2e5781612a5691614578565b60185580612a62614458565b6040516323b872dd60e01b81526001600160a01b039182166004820152306024820152604481019290925260208260648160007f000000000000000000000000000000000000000000000000000000000000000086165af190811561071d577f1b0029d3a4003762f16d0dc71199ce167b1d4bf00c5b97a3e28f613e921d654092606092612b10575b50612af4614458565b604051946001865260208601524260408601521692a260018055005b612b279060203d8111610716576107078183613efb565b5084612aeb565b604051630471131160e21b8152600490fd5b3461040657600036600319011261040657602060055465ffffffffffff60405191831c168152f35b34610406576020366003190112610406576020612b83614002565b6040519060018060a01b03807f0000000000000000000000000000000000000000000000000000000000000000169116148152f35b3461040657604036600319011261040657612bd1614002565b7f995d2434d36c9bceaab42c56efe51e8ffe41fd11cabefd9e2cb83700d8b2035e6020612bfc61403d565b92612c05614171565b6001600160a01b031660008181526007835260409020805460ff191660ff86151516179055926040519015158152a2005b3461040657600036600319011261040657602060ff60055460101c166040519015158152f35b3461040657602036600319011261040657612c75614002565b6001600160a01b031660008181526006602052604081208054919283928392839283928392835b828110612cf1575050509561010096600052600960205260406000205491600a60205260406000205493604051978852602088015260408701526060860152608085015260a084015260c083015260e0820152f35b612d04612cfe828461404c565b50614638565b9860a08a019960088b51161515608082015160028110156106ae57612d87576001612d3b6001600160601b039485855116906144f1565b9c5116612d72575b612d58575b5050612d53906144b1565b612c9c565b97612d6a91612d5393995116906144f1565b96908b612d48565b96612d819083835116906144f1565b96612d43565b6001612da36001600160601b039d9a949d9485855116906144f1565b995116612dd4575b612dba575050612d53906144b1565b98612dcc91612d53939a5116906144f1565b97908b612d48565b9b612de39083835116906144f1565b9b612dab565b3461040657612df7366140e8565b612dff614171565b8083036117975760005b838110612e1257005b80612e29612e24612eb59385876144c0565b6144d0565b6001600160a01b03907f995d2434d36c9bceaab42c56efe51e8ffe41fd11cabefd9e2cb83700d8b2035e9082612e63611763868b8d6144c0565b16600052612e876020916007835260406000209060ff801983541691151516179055565b612e95611763858a8c6144c0565b92612ea4612e2486898b6144c0565b9360405194151585521692a26144b1565b612e09565b3461040657604036600319011261040657612ed3614018565b600435600052601b60205260406000209060018060a01b0316600052602052602060ff604060002054166040519015158152f35b3461040657612f15366140e8565b9291612f1f614171565b838103611797579291906000936000935b818510612f4b576014548681811161171b576121a191614578565b9091929394612f5b8683866144c0565b3590811561076e57612f9a91611788916001600160a01b03612f816117638b898c6144c0565b16600052600a60205260406000206117818382546144f1565b93929190612f30565b34610406576000366003190112610406576040517f00000000000000000000000000000000000000000000000000000000000000006001600160a01b03168152602090f35b34610406576020366003190112610406576001600160a01b03613009614002565b166000526007602052602060ff604060002054166040519015158152f35b34610406576000366003190112610406576020601454604051908152f35b346104065760403660031901126104065761305e614018565b6001600160a01b038061306f614458565b169082160361308457610019906004356143e6565b60405163334bd91960e11b8152600490fd5b34610406576020366003190112610406576001600160a01b036130b7614002565b1660005260096020526020604060002054604051908152f35b34610406576040366003190112610406576100196004356130ef614018565b9080600052600060205261310a600160406000200154614325565b61435f565b34610406576020806003193601126104065760043561312c61453d565b6005549160ff808460081c166126a157613144614458565b9160018060a01b039081841694856000526006825261316781604060002061404c565b509360019788860190815460381c8a811661268f5765ffffffffffff9184613198848b5460c01c16600254906144f1565b42109182613378575b82613358575b505061265057825460ff60381b19169084168b1760381b60ff60381b16178255421665ffffffffffff1982541617958682555494826001600160601b038088169760601c169760301c1660028110156106ae5761329b575061320b856011546144f1565b601155600080808061321d8a8a6144f1565b8b5af16132286144fe565b5015610c6a576000805160206147c58339815191529661326e945b8960005260088152836040600020541615613275575b50505460301c166040519485944292866145e9565b0390a28055005b613280600892614585565b896000525260406000208960ff198254161790558980613259565b96846132ef6000996132af896012546144f1565b6012556132bc8a8a6144f1565b60405163a9059cbb60e01b81526001600160a01b038616600482015260248101919091529a8b9283919082906044820190565b03927f0000000000000000000000000000000000000000000000000000000000000000165af194851561071d576000805160206147c58339815191529861326e9661333b575b50613243565b61335190823d8411610716576107078183613efb565b508b613335565b60181c1690508061336c575b15848d6131a7565b50600481161515613364565b600284161592506131a1565b34610406576000366003190112610406576020601854604051908152f35b3461040657602080600319360112610406576001600160a01b036133c4614002565b166000526006815260406000209081546133dd81614779565b906133eb6040519283613efb565b8082528282018094600052836000206000915b8383106134995760408051878152865181890181905289928201908960005b82811061342a5784840385f35b9091928260c060019288516001600160601b0380825116835284820151168483015265ffffffffffff80604083015116604084015260609081830151169083015261347d6080808301519084019061407e565b60ff60a08092015116908201520196019101949291909461341d565b6002866001926134a885614638565b8152019201920191906133fe565b34610406576000366003190112610406576134cf61453d565b6001600160a01b036134df614458565b1680600052602090600982526040600020548015610c7c578160005260098352600060408120556006835260406000209260405161351c81613ee0565b6001600160601b03808416825282820160008152604083019265ffffffffffff90814216855260608101936000855260808201936000855260a0830196600888528b54600160401b8110156106da5761357c9060019d8e8201815561404c565b9390936106c45793518354925191516001600160f01b031990931694169390931760609390931b600160601b600160c01b03169290921760c09290921b65ffffffffffff60c01b169190911781559251928801805492519190931693909160028310156106ae5761361d9460ff60301b60ff9460301b169166ffffffffffffff191617178355511660ff60381b82549160381b169060ff60381b1916179055565b82600052600d8152604060002084815460ff8116156136e5575b50506006825250604060002054600019810191908211610689577f997d2ec09b086de73d509bbc4ad2b52fd7e2338024464bede93a41abd6ccdc3892846000805160206147a583398151915260a06060956040519060008252858783015242604083015287820152896080820152a26136b2816015546144f1565b60155584600052600b825260406000206136cd8282546144f1565b90556040519160008352820152426040820152a28055005b60ff1916179055848481613637565b34610406576000366003190112610406576020601054604051908152f35b346104065760203660031901126104065760043560005260006020526020600160406000200154604051908152f35b3461040657600036600319011261040657602060ff60055460181c166040519015158152f35b34610406576000366003190112610406576020600454604051908152f35b6000366003190112610406576137996141de565b6137a161453d565b341561076e57601754803411612b2e576137bc903490614578565b6017556137c7614458565b7f1b0029d3a4003762f16d0dc71199ce167b1d4bf00c5b97a3e28f613e921d65406060604051926000845234602085015242604085015260018060a01b031692a260018055005b34610406576060366003190112610406576004356001600160401b0381116104065761383e90369060040161408b565b906024356001600160401b0381116104065761385e90369060040161408b565b91909261386961453d565b6044351561076e57600161387e6111de614458565b1061145e5761388e6019546144b1565b928360195583600052601a6020526040600020948486556138ad614458565b6001870180546001600160a01b0319166001600160a01b039092169190911790556001600160401b0383116106da576138e96002870154613e8a565b601f8111613b62575b50826000601f8211600114613af457600091613ae9575b508360011b906000198560031b1c19161760028701555b6001600160401b0382116106da57819061393d6003880154613e8a565b601f8111613a96575b50600090601f8311600114613a2557600092613a1a575b50508160011b916000199060031b1c19161760038501555b42600485015562015180806044350290604435820403610689577f98120a6aaa04295520ab4e01c6c1235dd316e822cc9ff31db7b3f197366d18bd9260086139bf606093426144f1565b600588018190559601805460ff19166001179055826001600160a01b036139e4614458565b1696604051948593604085528160408601528585013760008383018501526020830152601f01601f19168101030190a360018055005b01359050868061395d565b909250600387016000526020600020906000935b601f1984168510613a7e576001945083601f19811610613a64575b505050811b016003850155613975565b0135600019600384901b60f8161c19169055868080613a54565b81810135835560209485019460019093019201613a39565b909150600387016000526020600020601f840160051c810160208510613ae2575b90849392915b601f830160051c82018110613ad3575050613946565b60008155859450600101613abd565b5080613ab7565b905084013587613909565b90506002870160005260206000209060005b601f1986168110613b4a575084601f19811610613b30575b5050600183811b016002870155613920565b850135600019600386901b60f8161c191690558680613b1e565b9091602060018192858a013581550193019101613b06565b600287016000526020600020601f850160051c810160208610613ba2575b601f830160051c82018110613b965750506138f2565b60008155600101613b80565b5080613b80565b346104065760003660031901126104065760206040517ff60566c40710959d8d30b6067ce3c53c757bec78eecb0e46b83c7f8194ffae378152f35b3461040657604036600319011261040657613bfd614002565b6001600160a01b03166000908152600660205260409020805460243591908210156104065760c091613c2e9161404c565b5060ff60018254920154604051926001600160601b0380821685528160601c16602085015265ffffffffffff8091861c16604085015281166060840152613c7d60808401838360301c1661407e565b60381c1660a0820152f35b3461040657602036600319011261040657613ca161402e565b613ca9614171565b62ff000060055491151560101b169062ff0000191617600555600080f35b34610406576020366003190112610406576001600160a01b03613ce8614002565b16600052600c6020526020604060002054604051908152f35b3461040657602036600319011261040657600435613d1d614171565b80600052601a602052600860406000200161010061ffff198254161790557faffed5d901d9fbe9106721fa52653ede403c09699f9f810f6d378acc51fb50fa602060405160018152a2005b346104065760203660031901126104065760043563ffffffff60e01b811680910361040657602090637965db0b60e01b8114908115613dad575b506040519015158152f35b6301ffc9a760e01b14905082613da2565b34610406576020366003190112610406576004356000908152601a60205260409020805460018201546001600160a01b03169160ff613dff60028301613f1c565b613e0b60038401613f1c565b926004810154936005820154613e5a600684015492613e4c60086007870154960154966040519b8c9b8c5260208c01526101408060408d01528b0190613fc2565b9089820360608b0152613fc2565b95608088015260a087015260c086015260e0850152818116151561010085015260081c1615156101208301520390f35b90600182811c92168015613eba575b6020831014613ea457565b634e487b7160e01b600052602260045260246000fd5b91607f1691613e99565b61014081019081106001600160401b038211176106da57604052565b60c081019081106001600160401b038211176106da57604052565b90601f801991011681019081106001600160401b038211176106da57604052565b9060405191826000825492613f3084613e8a565b908184526001948581169081600014613f9f5750600114613f5c575b5050613f5a92500383613efb565b565b9093915060005260209081600020936000915b818310613f87575050613f5a93508201013880613f4c565b85548884018501529485019487945091830191613f6f565b915050613f5a94506020925060ff191682840152151560051b8201013880613f4c565b919082519283825260005b848110613fee575050826000602080949584010152601f8019910116010190565b602081830181015184830182015201613fcd565b600435906001600160a01b038216820361040657565b602435906001600160a01b038216820361040657565b60043590811515820361040657565b60243590811515820361040657565b80548210156140685760005260206000209060011b0190600090565b634e487b7160e01b600052603260045260246000fd5b9060028210156106ae5752565b9181601f84011215610406578235916001600160401b038311610406576020838186019501011161040657565b9181601f84011215610406578235916001600160401b038311610406576020808501948460051b01011161040657565b6040600319820112610406576001600160401b03916004358381116104065782614114916004016140b8565b939093926024359182116104065761412e916004016140b8565b9091565b906040600319830112610406576004356001600160a01b03811681036104065791602435906001600160401b0382116104065761412e916004016140b8565b614179614458565b6001600160a01b031660008181527f7d7ffb7a348e1c6a02869081a26547b49160dd3df72d1d75a570eb9b698292ec60205260409020547fa49807205ce4d355092ef5a8a18f56e8913cf4a201fbe287825b095693c217759060ff1615611fc0575050565b6141e6614458565b6001600160a01b031660008181527fe84508f2c7fa9c351146748b3025cb78b45df37d868e48c6a75102fecdeee64560205260409020547f241ecf16d79d0f8dbfb92cbc07fe17840425976cf0667f022fe9877caa831b089060ff1615611fc0575050565b614253614458565b6001600160a01b031660008181527f9505c8401a8a13f8b514b3efaaa61be2dc9810e3f02fbd8edeba297fdd793d6560205260409020547ff60566c40710959d8d30b6067ce3c53c757bec78eecb0e46b83c7f8194ffae379060ff1615611fc0575050565b6142c0614458565b6001600160a01b031660008181527fca62ffb99fa36d4130bbee1a8581c4d2fd87e1d2bf4a5e65538ad96ae66582c960205260409020547f78c90eb9e475048b483a290aee04b5fe48355537c3623c7637b17d3bed71c6ed9060ff1615611fc0575050565b61432d614458565b9080600052600060205260406000209160018060a01b0316918260005260205260ff6040600020541615611fc0575050565b6000818152602081815260408083206001600160a01b039586168085529252822054919390929160ff166143e0577f2f8788117e7eff1d82e926ec794901d17c78024a50270940304540a733656f0d90828552846020526040852084865260205260408520600160ff198254161790556143d7614458565b169380a4600190565b50505090565b6000818152602081815260408083206001600160a01b039586168085529252822054919390929160ff16156143e0577ff6391f5c32d9c69d2a47ea670b442974b53935d1edc7fd64eb21e047a839171b9082855284602052604085208486526020526040852060ff1981541690556143d75b60143610158061447f575b1561447b576013193601368111610406573560601c90565b3390565b50337f00000000000000000000000000000000000000000000000000000000000000006001600160a01b031614614463565b60001981146106895760010190565b91908110156140685760051b0190565b3580151581036104065790565b356001600160a01b03811681036104065790565b9190820180921161068957565b3d15614538573d906001600160401b0382116106da576040519161452c601f8201601f191660200184613efb565b82523d6000602084013e565b606090565b60026001541461454e576002600155565b604051633ee5aeb560e01b8152600490fd5b90816020910312610406575180151581036104065790565b9190820391821161068957565b600e54600160401b8110156106da576001810180600e5581101561406857600e6000527fbb7b4a454dc3493923482f07822329ed19e8244eff582cc204f8554c3620c3fd0180546001600160a01b0319166001600160a01b03909216919091179055565b919260809396959491966146018460a081019961407e565b6020840152604083015260608201520152565b81835290916001600160fb1b0383116104065760209260051b809284830137010190565b9060405161464581613ee0565b809260018154916001600160601b0380841685528360601c16602085015265ffffffffffff809360c01c1660408501520154908116606083015260ff8160301c1660028110156106ae5760a09160ff91608085015260381c16910152565b6001600160a01b0316600090815260066020526040812080548291825b8281106146fa575050506107d09081810291818304149015171561068957670de0b6b3a7640000620f42406146f7930491046144f1565b90565b614707612cfe828461404c565b600160a08201511615614724575b5061471f906144b1565b6146c0565b608081959295015160028110156106ae576147595761471f916001600160601b03614751925116906144f1565b935b90614715565b61471f9194956001600160601b03614773925116906144f1565b94614753565b6001600160401b0381116106da5760051b60200190565b80518210156140685760209160051b01019056fe48916ac7f9777648255ab8645729ff3b5d20aa412a40fe81dac2433522eaa058cb034b37ef3764745c35bafecd525367bcf312e9010239e6aeebbe6bcf57727fa264697066735822122082953f0c801794974c02a4f228a42ce359595faa3c95f7f403c10ee17fb6cd3264736f6c634300081400332f8788117e7eff1d82e926ec794901d17c78024a50270940304540a733656f0d",
  "linkReferences": {},
  "deployedLinkReferences": {}
}