{"contracts/core/ApplyPass.sol":{"ApplyPass":{"abi":[{"inputs":[{"internalType":"string","name":"name","type":"string"},{"internalType":"string","name":"symbol","type":"string"},{"internalType":"address","name":"initialOwner","type":"address"},{"internalType":"address","name":"trustedForwarder","type":"address"}],"stateMutability":"nonpayable","type":"constructor"},{"anonymous":false,"inputs":[{"indexed":true,"internalType":"address","name":"owner","type":"address"},{"indexed":true,"internalType":"address","name":"approved","type":"address"},{"indexed":true,"internalType":"uint256","name":"tokenId","type":"uint256"}],"name":"Approval","type":"event"},{"anonymous":false,"inputs":[{"indexed":true,"internalType":"address","name":"owner","type":"address"},{"indexed":true,"internalType":"address","name":"operator","type":"address"},{"indexed":false,"internalType":"bool","name":"approved","type":"bool"}],"name":"ApprovalForAll","type":"event"},{"anonymous":false,"inputs":[{"indexed":false,"internalType":"string","name":"newBaseURI","type":"string"}],"name":"BaseURIUpdated","type":"event"},{"anonymous":false,"inputs":[{"indexed":true,"internalType":"address","name":"previousOwner","type":"address"},{"indexed":true,"internalType":"address","name":"newOwner","type":"address"}],"name":"OwnershipTransferred","type":"event"},{"anonymous":false,"inputs":[{"indexed":false,"internalType":"bool","name":"isPaused","type":"bool"}],"name":"PausedUpdated","type":"event"},{"anonymous":false,"inputs":[{"indexed":true,"internalType":"address","name":"from","type":"address"},{"indexed":true,"internalType":"address","name":"to","type":"address"},{"indexed":true,"internalType":"uint256","name":"tokenId","type":"uint256"}],"name":"Transfer","type":"event"},{"inputs":[{"internalType":"address","name":"to","type":"address"}],"name":"adminMint","outputs":[],"stateMutability":"nonpayable","type":"function"},{"inputs":[{"internalType":"address","name":"to","type":"address"},{"internalType":"uint256","name":"tokenId","type":"uint256"}],"name":"approve","outputs":[],"stateMutability":"nonpayable","type":"function"},{"inputs":[{"internalType":"address","name":"owner","type":"address"}],"name":"balanceOf","outputs":[{"internalType":"uint256","name":"","type":"uint256"}],"stateMutability":"view","type":"function"},{"inputs":[],"name":"freeMint","outputs":[],"stateMutability":"nonpayable","type":"function"},{"inputs":[{"internalType":"uint256","name":"tokenId","type":"uint256"}],"name":"getApproved","outputs":[{"internalType":"address","name":"","type":"address"}],"stateMutability":"view","type":"function"},{"inputs":[],"name":"getTrustedForwarder","outputs":[{"internalType":"address","name":"","type":"address"}],"stateMutability":"view","type":"function"},{"inputs":[{"internalType":"address","name":"","type":"address"}],"name":"hasMinted","outputs":[{"internalType":"bool","name":"","type":"bool"}],"stateMutability":"view","type":"function"},{"inputs":[{"internalType":"address","name":"owner","type":"address"},{"internalType":"address","name":"operator","type":"address"}],"name":"isApprovedForAll","outputs":[{"internalType":"bool","name":"","type":"bool"}],"stateMutability":"view","type":"function"},{"inputs":[{"internalType":"address","name":"user","type":"address"}],"name":"isGateHolder","outputs":[{"internalType":"bool","name":"","type":"bool"}],"stateMutability":"view","type":"function"},{"inputs":[{"internalType":"address","name":"forwarder","type":"address"}],"name":"isTrustedForwarder","outputs":[{"internalType":"bool","name":"","type":"bool"}],"stateMutability":"view","type":"function"},{"inputs":[],"name":"name","outputs":[{"internalType":"string","name":"","type":"string"}],"stateMutability":"view","type":"function"},{"inputs":[],"name":"owner","outputs":[{"internalType":"address","name":"","type":"address"}],"stateMutability":"view","type":"function"},{"inputs":[{"internalType":"uint256","name":"tokenId","type":"uint256"}],"name":"ownerOf","outputs":[{"internalType":"address","name":"","type":"address"}],"stateMutability":"view","type":"function"},{"inputs":[],"name":"paused","outputs":[{"internalType":"bool","name":"","type":"bool"}],"stateMutability":"view","type":"function"},{"inputs":[],"name":"publicMintOpen","outputs":[{"internalType":"bool","name":"","type":"bool"}],"stateMutability":"view","type":"function"},{"inputs":[{"internalType":"address","name":"from","type":"address"},{"internalType":"address","name":"to","type":"address"},{"internalType":"uint256","name":"tokenId","type":"uint256"}],"name":"safeTransferFrom","outputs":[],"stateMutability":"nonpayable","type":"function"},{"inputs":[{"internalType":"address","name":"from","type":"address"},{"internalType":"address","name":"to","type":"address"},{"internalType":"uint256","name":"tokenId","type":"uint256"},{"internalType":"bytes","name":"data","type":"bytes"}],"name":"safeTransferFrom","outputs":[],"stateMutability":"nonpayable","type":"function"},{"inputs":[{"internalType":"address","name":"operator","type":"address"},{"internalType":"bool","name":"approved","type":"bool"}],"name":"setApprovalForAll","outputs":[],"stateMutability":"nonpayable","type":"function"},{"inputs":[{"internalType":"string","name":"baseURI","type":"string"}],"name":"setBaseURI","outputs":[],"stateMutability":"nonpayable","type":"function"},{"inputs":[{"internalType":"bool","name":"_paused","type":"bool"}],"name":"setPaused","outputs":[],"stateMutability":"nonpayable","type":"function"},{"inputs":[{"internalType":"bool","name":"_open","type":"bool"}],"name":"setPublicMintOpen","outputs":[],"stateMutability":"nonpayable","type":"function"},{"inputs":[{"internalType":"address","name":"forwarder","type":"address"}],"name":"setTrustedForwarder","outputs":[],"stateMutability":"nonpayable","type":"function"},{"inputs":[{"internalType":"bytes4","name":"interfaceId","type":"bytes4"}],"name":"supportsInterface","outputs":[{"internalType":"bool","name":"","type":"bool"}],"stateMutability":"view","type":"function"},{"inputs":[],"name":"symbol","outputs":[{"internalType":"string","name":"","type":"string"}],"stateMutability":"view","type":"function"},{"inputs":[{"internalType":"uint256","name":"tokenId","type":"uint256"}],"name":"tokenURI","outputs":[{"internalType":"string","name":"","type":"string"}],"stateMutability":"view","type":"function"},{"inputs":[],"name":"totalSupply","outputs":[{"internalType":"uint256","name":"","type":"uint256"}],"stateMutability":"view","type":"function"},{"inputs":[{"internalType":"address","name":"from","type":"address"},{"internalType":"address","name":"to","type":"address"},{"internalType":"uint256","name":"tokenId","type":"uint256"}],"name":"transferFrom","outputs":[],"stateMutability":"nonpayable","type":"function"},{"inputs":[{"internalType":"address","name":"newOwner","type":"address"}],"name":"transferOwnership","outputs":[],"stateMutability":"nonpayable","type":"function"}],"evm":{"bytecode":{"linkReferences":{},"object":"608060405234620003d35762001fac803803806200001d81620003d8565b928339810190608081830312620003d35780516001600160401b039190828111620003d3578362000050918301620003fe565b6020938483015190848211620003d3576200006d918401620003fe565b926200008a6060620000826040860162000470565b940162000470565b93825190828211620003bd576000968754926001958685811c95168015620003b2575b838610146200039e578190601f958681116200034b575b508390868311600114620002e7578b92620002db575b5050600019600383901b1c191690861b1788555b8151938411620002c75784548581811c91168015620002bc575b82821014620002a857908184869594931162000251575b5080928411600114620001e957508792620001dd575b5050600019600383901b1c191690821b1781555b600980546006929092556001600160a81b03199091166001600160a01b0393841617905580821615620001d457915b60088054610100600160a81b0319811685831b610100600160a81b031617825560405194841693911c16907f8be0079c531659141344cd1fd0a4f28419497f9722a3daafe3b4186f6b6457e09080a3611b269081620004868239f35b50339162000178565b01519050388062000135565b9190859450601f198416858a52838a20938a905b8282106200023757505084116200021d575b505050811b01815562000149565b015160001960f88460031b161c191690553880806200020f565b8484015186558897909501949384019390810190620001fd565b90919293508589528189208480870160051c8201928488106200029e575b9187968992969594930160051c01915b8281106200028f5750506200011f565b8b81558796508891016200027f565b925081926200026f565b634e487b7160e01b89526022600452602489fd5b90607f169062000108565b634e487b7160e01b88526041600452602488fd5b015190503880620000da565b8b8052848c208994509190601f1984168d5b878282106200033457505084116200031a575b505050811b018855620000ee565b015160001960f88460031b161c191690553880806200030c565b8385015186558c97909501949384019301620002f9565b9091508a8052838b208680850160051c82019286861062000394575b918a91869594930160051c01915b82811062000385575050620000c4565b8d81558594508a910162000375565b9250819262000367565b634e487b7160e01b8a52602260045260248afd5b94607f1694620000ad565b634e487b7160e01b600052604160045260246000fd5b600080fd5b6040519190601f01601f191682016001600160401b03811183821017620003bd57604052565b919080601f84011215620003d35782516001600160401b038111620003bd5760209062000434601f8201601f19168301620003d8565b92818452828287010111620003d35760005b8181106200045c57508260009394955001015290565b858101830151848201840152820162000446565b51906001600160a01b0382168203620003d35756fe608060408181526004918236101561001657600080fd5b600092833560e01c91826301ffc9a7146111555750816306fdde03146110ad578163081812fc1461108d578163095ea7b314610f0b57816316c38b3c14610e8e57816318160ddd14610e4f57816323b872dd14610e2857816338e21cce14610dea57816342842e0e14610db457816355f804b314610ba7578163572b6c0514610b735781635b70ea9f14610a445781635c975abb14610a205781636352211e146109ef5781636387f8041461099857816370a08231146109705781638da5cb5b1461094557816395d89b41146108625781639769dc0e146107ad578163a22cb465146106d4578163b88d4fde1461063f578163bcc9ca5b14610618578163c87b56dd14610346578163ce1b815f1461031d578163da742228146102c3578163e985e9c514610275578163f2fde38b1461018a575063fa9f3f271461015957600080fd5b346101865760203660031901126101865760209061017d610178611208565b611324565b15159051908152f35b5080fd5b905034610271576020366003190112610271576101a5611208565b6008549060018060a01b0392838360081c16936101cc816101c4611acc565b1686146118ed565b821694851561021d575050610100600160a81b0319909116600891821b610100600160a81b03161790557f8be0079c531659141344cd1fd0a4f28419497f9722a3daafe3b4186f6b6457e08380a380f35b906020608492519162461bcd60e51b8352820152602860248201527f4170706c79506173733a206e6577206f776e657220697320746865207a65726f604482015267206164647265737360c01b6064820152fd5b8280fd5b50503461018657806003193601126101865760ff81602093610295611208565b61029d611223565b6001600160a01b0391821683526005875283832091168252855220549151911615158152f35b833461031a57602036600319011261031a576102dd611208565b600880546001600160a01b03929161030391901c8316836102fc611acc565b16146118ed565b166001600160601b0360a01b600954161760095580f35b80fd5b50503461018657816003193601126101865760095490516001600160a01b039091168152602090f35b83915034610186576020918260031936011261031a5781356000818152600260205260409020548492918691610386906001600160a01b0316151561139b565b8151948391600754876103988261140d565b94858252888201956001938a85821691826000146105fb5750506001146105a2575b50906103c79103896112af565b8751156105835781809387917a184f03e93ff9f4daa797ed6e38ed64bf6a1f0100000000000000009081811015610576575b5050886d04ee2d6d415b85acef810000000080871015610567575b5050662386f26fc1000080861015610558575b506305f5e10080861015610549575b506127108086101561053d575b5050606484101561052f575b60219082600a80961015610528575b9392919061048583820161047d610474826112d1565b9a519a8b6112af565b808a526112d1565b888b019990601f1901368b3750870101905b6104f2575b50505050936104dd926104c294926104d16104ee978a51978895518092888801906111c0565b840191518093868401906111c0565b010380845201826112af565b925b519282849384528301906111e3565b0390f35b600019019083906f181899199a1a9b1b9c1cb0b131b232b360811b8282061a83530491821561052357919082610497565b61049c565b018261045e565b60649093049260020161044f565b90940493018b80610443565b6008919295049401908c610436565b6010919295049401908c610427565b9091929504940190888d610414565b0494508691508c806103f9565b505050509091506104ee9250519061059a8261127d565b8152926104df565b600789528891507fa66cc928b5edb82af9bd49922954155ab7b0942694bea4ce44661d9a8736c6885b8183106105e0575050810188016103c76103ba565b8054838d018c01528c9a8e99508c94509092019184016105cb565b60ff1916895291151560051b840190910191506103c790506103ba565b50503461018657816003193601126101865760209060ff60095460a01c1690519015158152f35b8390346101865760803660031901126101865761065a611208565b90610663611223565b916044356064359367ffffffffffffffff85116106d057366023860112156106d05761069e6106c8948660246106cd983693013591016112ed565b926106b86106b3846106ae611acc565b61155e565b611485565b6106c3838383611626565b61185a565b61153a565b80f35b8580fd5b9050346102715781600319360112610271576106ee611208565b91602435908115158092036107a957610705611acc565b6001600160a01b0394851694169283851461076757507f17307eab39ab6107e8899845ad3d59bd9653f200f220920489ca2b5937696c319160209184875260058352808720868852835280872060ff1981541660ff841617905551908152a380f35b6020606492519162461bcd60e51b8352820152601960248201527f4552433732313a20617070726f766520746f2063616c6c6572000000000000006044820152fd5b8480fd5b83915034610186576020366003190112610186576107c9611208565b600880546001600160a01b03916107e791901c8216826102fc611acc565b811691821561081f57506106cd92936006549261080384611944565b6006558552600a6020528420805460ff19166001179055611969565b606490602086519162461bcd60e51b8352820152601a60248201527f4170706c79506173733a20496e76616c696420616464726573730000000000006044820152fd5b5050346101865781600319360112610186578051908260018054916108868361140d565b8086529282811690811561091d57506001146108c1575b5050506108af826104ee9403836112af565b519182916020835260208301906111e3565b94508085527fb10e2d527612073b26eecdfd717e6a320cf44b4afac2b0732d9fcbe2b7fa0cf65b828610610905575050506108af8260206104ee958201019461089d565b805460208787018101919091529095019481016108e8565b6104ee9750869350602092506108af94915060ff191682840152151560051b8201019461089d565b50503461018657816003193601126101865760088054915191901c6001600160a01b03168152602090f35b50503461018657602036600319011261018657602090610991610178611208565b9051908152f35b833461031a57602036600319011261031a576109b2611239565b600880546109cf911c6001600160a01b03908116906102fc611acc565b6009805460ff60a01b191691151560a01b60ff60a01b1691909117905580f35b82843461031a57602036600319011261031a5750610a0f602092356113e7565b90516001600160a01b039091168152f35b50503461018657816003193601126101865760209060ff6008541690519015158152f35b8391503461018657816003193601126101865760ff60085416610b305760ff60095460a01c1615610aed57610a77611acc565b6001600160a01b038116808452600a6020528484205490929060ff16610aaa57506106cd92936006549261080384611944565b606490602086519162461bcd60e51b8352820152601e60248201527f4170706c79506173733a204f6e652070617373207065722077616c6c657400006044820152fd5b606490602084519162461bcd60e51b8352820152602060248201527f4170706c79506173733a205075626c6963206d696e7420697320636c6f7365646044820152fd5b606490602084519162461bcd60e51b8352820152601c60248201527f4170706c79506173733a204d696e74696e6720697320706175736564000000006044820152fd5b50503461018657602036600319011261018657602090610b91611208565b60018060a01b0380600954169116149051908152f35b8391503461018657602092836003193601126102715767ffffffffffffffff82358181116107a957366023820112156107a957610bed90369060248187013591016112ed565b92610c0960018060a01b038060085460081c16906102fc611acc565b8351918211610da15750610c1e60075461140d565b601f8111610d3f575b5084601f8211600114610c99579181610c88928697947f6741b2fc379fad678116fe3d4d4b9a1a184ab53ba36b86ad0fa66340b1ab41ad9791610c8e575b508160011b916000199060031b1c191617600755519282849384528301906111e3565b0390a180f35b905085015188610c65565b600785527fa66cc928b5edb82af9bd49922954155ab7b0942694bea4ce44661d9a8736c68890601f198316865b818110610d285750927f6741b2fc379fad678116fe3d4d4b9a1a184ab53ba36b86ad0fa66340b1ab41ad9697949260019282610c889610610d0f575b5050811b016007556104df565b87015160001960f88460031b161c191690558880610d02565b91928860018192868a015181550194019201610cc6565b600785527fa66cc928b5edb82af9bd49922954155ab7b0942694bea4ce44661d9a8736c688601f830160051c810191878410610d97575b601f0160051c01905b818110610d8c5750610c27565b858155600101610d7f565b9091508190610d76565b634e487b7160e01b855260419052602484fd5b505034610186576106c86106cd91610dcb36611248565b91925192610dd88461127d565b8684526106b86106b3846106ae611acc565b5050346101865760203660031901126101865760209160ff9082906001600160a01b03610e15611208565b168152600a855220541690519015158152f35b833461031a576106cd610e3a36611248565b91610e4a6106b3846106ae611acc565b611626565b838334610186578160031936011261018657600654600019810192908311610e7b576020838351908152f35b634e487b7160e01b815260118452602490fd5b5050346101865760203660031901126101865760207f31311016d7204faff81880133e3db244ae8a8b9ce15e83e2432258226d15f94291610ecd611239565b6008549190610ef36001600160a01b0380610ee6611acc565b16908560081c16146118ed565b15159160ff83169060ff19161760085551908152a180f35b905034610271578160031936011261027157610f25611208565b6024359290916001600160a01b0391908280610f40876113e7565b16941693808514611040578084610f55611acc565b1614908115611016575b5015610fae57848652602052842080546001600160a01b03191683179055610f86836113e7565b167f8c5be1e5ebec7d5bd14f71427d1e84f3dd0314c0f7b2291e5b200ac8c7c3b9258480a480f35b6020608492519162461bcd60e51b8352820152603d60248201527f4552433732313a20617070726f76652063616c6c6572206973206e6f7420746f60448201527f6b656e206f776e6572206f7220617070726f76656420666f7220616c6c0000006064820152fd5b9050611020611acc565b9087526005602052838388209116875260205260ff828720541638610f5f565b506020608492519162461bcd60e51b8352820152602160248201527f4552433732313a20617070726f76616c20746f2063757272656e74206f776e656044820152603960f91b6064820152fd5b82843461031a57602036600319011261031a5750610a0f60209235611447565b5050346101865781600319360112610186578051908280546110ce8161140d565b8085529160019180831690811561091d57506001146110f9575050506108af826104ee9403836112af565b80809650527f290decd9548b62a8d60345a988386fc84ba6bc95484008f6362f93160ef3e5635b82861061113d575050506108af8260206104ee958201019461089d565b80546020878701810191909152909501948101611120565b849134610271576020366003190112610271573563ffffffff60e01b811680910361027157602092506380ac58cd60e01b81149081156111af575b811561119e575b5015158152f35b6301ffc9a760e01b14905083611197565b635b5e139f60e01b81149150611190565b60005b8381106111d35750506000910152565b81810151838201526020016111c3565b906020916111fc815180928185528580860191016111c0565b601f01601f1916010190565b600435906001600160a01b038216820361121e57565b600080fd5b602435906001600160a01b038216820361121e57565b60043590811515820361121e57565b606090600319011261121e576001600160a01b0390600435828116810361121e5791602435908116810361121e579060443590565b6020810190811067ffffffffffffffff82111761129957604052565b634e487b7160e01b600052604160045260246000fd5b90601f8019910116810190811067ffffffffffffffff82111761129957604052565b67ffffffffffffffff811161129957601f01601f191660200190565b9291926112f9826112d1565b9161130760405193846112af565b82948184528183011161121e578281602093846000960137010152565b6001600160a01b0316801561134457600052600360205260406000205490565b60405162461bcd60e51b815260206004820152602960248201527f4552433732313a2061646472657373207a65726f206973206e6f7420612076616044820152683634b21037bbb732b960b91b6064820152608490fd5b156113a257565b60405162461bcd60e51b815260206004820152601860248201527f4552433732313a20696e76616c696420746f6b656e20494400000000000000006044820152606490fd5b6000908152600260205260409020546001600160a01b031661140a81151561139b565b90565b90600182811c9216801561143d575b602083101461142757565b634e487b7160e01b600052602260045260246000fd5b91607f169161141c565b60008181526002602052604090205461146a906001600160a01b0316151561139b565b6000908152600460205260409020546001600160a01b031690565b1561148c57565b60405162461bcd60e51b815260206004820152602d60248201527f4552433732313a2063616c6c6572206973206e6f7420746f6b656e206f776e6560448201526c1c881bdc88185c1c1c9bdd9959609a1b6064820152608490fd5b60809060208152603260208201527f4552433732313a207472616e7366657220746f206e6f6e20455243373231526560408201527131b2b4bb32b91034b6b83632b6b2b73a32b960711b60608201520190565b1561154157565b60405162461bcd60e51b81528061155a600482016114e7565b0390fd5b906001600160a01b038080611572846113e7565b169316918383149384156115a5575b50831561158f575b50505090565b61159b91929350611447565b1614388080611589565b909350600052600560205260406000208260005260205260ff604060002054169238611581565b156115d357565b60405162461bcd60e51b815260206004820152602560248201527f4552433732313a207472616e736665722066726f6d20696e636f72726563742060448201526437bbb732b960d91b6064820152608490fd5b9061164e91611634846113e7565b6001600160a01b03939184169284929091831684146115cc565b169182156116e6578161166b91611664866113e7565b16146115cc565b7fddf252ad1be2c89b69c2b068fc378daa952ba7f163c4a11628f55a4df523b3ef60008481526004602052604081206001600160601b0360a01b9081815416905583825260036020526040822060001981540190558482526040822060018154019055858252600260205284604083209182541617905580a4565b60405162461bcd60e51b8152602060048201526024808201527f4552433732313a207472616e7366657220746f20746865207a65726f206164646044820152637265737360e01b6064820152608490fd5b9290833b15611851576117959361174c611acc565b93604051809281630a85bd0160e11b9586825260018060a01b03809916600483015260009889918260248501526044840152608060648401528260209b8c9760848301906111e3565b0393165af1849181611811575b50611800575050503d6000146117f8573d6117bc816112d1565b906117ca60405192836112af565b81528091833d92013e5b805191826117f55760405162461bcd60e51b81528061155a600482016114e7565b01fd5b5060606117d4565b6001600160e01b0319161492509050565b9091508581813d831161184a575b61182981836112af565b810103126107a957516001600160e01b0319811681036107a95790386117a2565b503d61181f565b50915050600190565b92939190803b156118e3576118b894611871611acc565b92604051928391630a85bd0160e11b9586845260018060a01b039889809216600486015216602484015260448301526080606483015281806020998a9560848301906111e3565b03916000988991165af18491816118115750611800575050503d6000146117f8573d6117bc816112d1565b5050915050600190565b156118f457565b60405162461bcd60e51b815260206004820152602260248201527f4170706c79506173733a2063616c6c6572206973206e6f7420746865206f776e60448201526132b960f11b6064820152608490fd5b60001981146119535760010190565b634e487b7160e01b600052601160045260246000fd5b6040516119758161127d565b6000808252926001600160a01b038316928315611a3c57816106c894611a3a966119bd6119b784600052600260205260018060a01b0360406000205416151590565b15611a80565b6000838152600260205260409020546119e0906001600160a01b031615156119b7565b81815260036020526040812060018154019055828152600260205260408120826001600160601b0360a01b8254161790557fddf252ad1be2c89b69c2b068fc378daa952ba7f163c4a11628f55a4df523b3ef8180a4611737565b565b606460405162461bcd60e51b815260206004820152602060248201527f4552433732313a206d696e7420746f20746865207a65726f20616464726573736044820152fd5b15611a8757565b60405162461bcd60e51b815260206004820152601c60248201527f4552433732313a20746f6b656e20616c7265616479206d696e746564000000006044820152606490fd5b600954336001600160a01b0390911603611aec5736601319013560601c90565b339056fea2646970667358221220086e70df6135954ce02b1e16b35c453913ac639dc9e256d384ce074bb9b4eeff64736f6c63430008140033","opcodes":"PUSH1 0x80 PUSH1 0x40 MSTORE CALLVALUE PUSH3 0x3D3 JUMPI PUSH3 0x1FAC DUP1 CODESIZE SUB DUP1 PUSH3 0x1D DUP2 PUSH3 0x3D8 JUMP JUMPDEST SWAP3 DUP4 CODECOPY DUP2 ADD SWAP1 PUSH1 0x80 DUP2 DUP4 SUB SLT PUSH3 0x3D3 JUMPI DUP1 MLOAD PUSH1 0x1 PUSH1 0x1 PUSH1 0x40 SHL SUB SWAP2 SWAP1 DUP3 DUP2 GT PUSH3 0x3D3 JUMPI DUP4 PUSH3 0x50 SWAP2 DUP4 ADD PUSH3 0x3FE JUMP JUMPDEST PUSH1 0x20 SWAP4 DUP5 DUP4 ADD MLOAD SWAP1 DUP5 DUP3 GT PUSH3 0x3D3 JUMPI PUSH3 0x6D SWAP2 DUP5 ADD PUSH3 0x3FE JUMP JUMPDEST SWAP3 PUSH3 0x8A PUSH1 0x60 PUSH3 0x82 PUSH1 0x40 DUP7 ADD PUSH3 0x470 JUMP JUMPDEST SWAP5 ADD PUSH3 0x470 JUMP JUMPDEST SWAP4 DUP3 MLOAD SWAP1 DUP3 DUP3 GT PUSH3 0x3BD JUMPI PUSH1 0x0 SWAP7 DUP8 SLOAD SWAP3 PUSH1 0x1 SWAP6 DUP7 DUP6 DUP2 SHR SWAP6 AND DUP1 ISZERO PUSH3 0x3B2 JUMPI JUMPDEST DUP4 DUP7 LT EQ PUSH3 0x39E JUMPI DUP2 SWAP1 PUSH1 0x1F SWAP6 DUP7 DUP2 GT PUSH3 0x34B JUMPI JUMPDEST POP DUP4 SWAP1 DUP7 DUP4 GT PUSH1 0x1 EQ PUSH3 0x2E7 JUMPI DUP12 SWAP3 PUSH3 0x2DB JUMPI JUMPDEST POP POP PUSH1 0x0 NOT PUSH1 0x3 DUP4 SWAP1 SHL SHR NOT AND SWAP1 DUP7 SHL OR DUP9 SSTORE JUMPDEST DUP2 MLOAD SWAP4 DUP5 GT PUSH3 0x2C7 JUMPI DUP5 SLOAD DUP6 DUP2 DUP2 SHR SWAP2 AND DUP1 ISZERO PUSH3 0x2BC JUMPI JUMPDEST DUP3 DUP3 LT EQ PUSH3 0x2A8 JUMPI SWAP1 DUP2 DUP5 DUP7 SWAP6 SWAP5 SWAP4 GT PUSH3 0x251 JUMPI JUMPDEST POP DUP1 SWAP3 DUP5 GT PUSH1 0x1 EQ PUSH3 0x1E9 JUMPI POP DUP8 SWAP3 PUSH3 0x1DD JUMPI JUMPDEST POP POP PUSH1 0x0 NOT PUSH1 0x3 DUP4 SWAP1 SHL SHR NOT AND SWAP1 DUP3 SHL OR DUP2 SSTORE JUMPDEST PUSH1 0x9 DUP1 SLOAD PUSH1 0x6 SWAP3 SWAP1 SWAP3 SSTORE PUSH1 0x1 PUSH1 0x1 PUSH1 0xA8 SHL SUB NOT SWAP1 SWAP2 AND PUSH1 0x1 PUSH1 0x1 PUSH1 0xA0 SHL SUB SWAP4 DUP5 AND OR SWAP1 SSTORE DUP1 DUP3 AND ISZERO PUSH3 0x1D4 JUMPI SWAP2 JUMPDEST PUSH1 0x8 DUP1 SLOAD PUSH2 0x100 PUSH1 0x1 PUSH1 0xA8 SHL SUB NOT DUP2 AND DUP6 DUP4 SHL PUSH2 0x100 PUSH1 0x1 PUSH1 0xA8 SHL SUB AND OR DUP3 SSTORE PUSH1 0x40 MLOAD SWAP5 DUP5 AND SWAP4 SWAP2 SHR AND SWAP1 PUSH32 0x8BE0079C531659141344CD1FD0A4F28419497F9722A3DAAFE3B4186F6B6457E0 SWAP1 DUP1 LOG3 PUSH2 0x1B26 SWAP1 DUP2 PUSH3 0x486 DUP3 CODECOPY RETURN JUMPDEST POP CALLER SWAP2 PUSH3 0x178 JUMP JUMPDEST ADD MLOAD SWAP1 POP CODESIZE DUP1 PUSH3 0x135 JUMP JUMPDEST SWAP2 SWAP1 DUP6 SWAP5 POP PUSH1 0x1F NOT DUP5 AND DUP6 DUP11 MSTORE DUP4 DUP11 KECCAK256 SWAP4 DUP11 SWAP1 JUMPDEST DUP3 DUP3 LT PUSH3 0x237 JUMPI POP POP DUP5 GT PUSH3 0x21D JUMPI JUMPDEST POP POP POP DUP2 SHL ADD DUP2 SSTORE PUSH3 0x149 JUMP JUMPDEST ADD MLOAD PUSH1 0x0 NOT PUSH1 0xF8 DUP5 PUSH1 0x3 SHL AND SHR NOT AND SWAP1 SSTORE CODESIZE DUP1 DUP1 PUSH3 0x20F JUMP JUMPDEST DUP5 DUP5 ADD MLOAD DUP7 SSTORE DUP9 SWAP8 SWAP1 SWAP6 ADD SWAP5 SWAP4 DUP5 ADD SWAP4 SWAP1 DUP2 ADD SWAP1 PUSH3 0x1FD JUMP JUMPDEST SWAP1 SWAP2 SWAP3 SWAP4 POP DUP6 DUP10 MSTORE DUP2 DUP10 KECCAK256 DUP5 DUP1 DUP8 ADD PUSH1 0x5 SHR DUP3 ADD SWAP3 DUP5 DUP9 LT PUSH3 0x29E JUMPI JUMPDEST SWAP2 DUP8 SWAP7 DUP10 SWAP3 SWAP7 SWAP6 SWAP5 SWAP4 ADD PUSH1 0x5 SHR ADD SWAP2 JUMPDEST DUP3 DUP2 LT PUSH3 0x28F JUMPI POP POP PUSH3 0x11F JUMP JUMPDEST DUP12 DUP2 SSTORE DUP8 SWAP7 POP DUP9 SWAP2 ADD PUSH3 0x27F JUMP JUMPDEST SWAP3 POP DUP2 SWAP3 PUSH3 0x26F JUMP JUMPDEST PUSH4 0x4E487B71 PUSH1 0xE0 SHL DUP10 MSTORE PUSH1 0x22 PUSH1 0x4 MSTORE PUSH1 0x24 DUP10 REVERT JUMPDEST SWAP1 PUSH1 0x7F AND SWAP1 PUSH3 0x108 JUMP JUMPDEST PUSH4 0x4E487B71 PUSH1 0xE0 SHL DUP9 MSTORE PUSH1 0x41 PUSH1 0x4 MSTORE PUSH1 0x24 DUP9 REVERT JUMPDEST ADD MLOAD SWAP1 POP CODESIZE DUP1 PUSH3 0xDA JUMP JUMPDEST DUP12 DUP1 MSTORE DUP5 DUP13 KECCAK256 DUP10 SWAP5 POP SWAP2 SWAP1 PUSH1 0x1F NOT DUP5 AND DUP14 JUMPDEST DUP8 DUP3 DUP3 LT PUSH3 0x334 JUMPI POP POP DUP5 GT PUSH3 0x31A JUMPI JUMPDEST POP POP POP DUP2 SHL ADD DUP9 SSTORE PUSH3 0xEE JUMP JUMPDEST ADD MLOAD PUSH1 0x0 NOT PUSH1 0xF8 DUP5 PUSH1 0x3 SHL AND SHR NOT AND SWAP1 SSTORE CODESIZE DUP1 DUP1 PUSH3 0x30C JUMP JUMPDEST DUP4 DUP6 ADD MLOAD DUP7 SSTORE DUP13 SWAP8 SWAP1 SWAP6 ADD SWAP5 SWAP4 DUP5 ADD SWAP4 ADD PUSH3 0x2F9 JUMP JUMPDEST SWAP1 SWAP2 POP DUP11 DUP1 MSTORE DUP4 DUP12 KECCAK256 DUP7 DUP1 DUP6 ADD PUSH1 0x5 SHR DUP3 ADD SWAP3 DUP7 DUP7 LT PUSH3 0x394 JUMPI JUMPDEST SWAP2 DUP11 SWAP2 DUP7 SWAP6 SWAP5 SWAP4 ADD PUSH1 0x5 SHR ADD SWAP2 JUMPDEST DUP3 DUP2 LT PUSH3 0x385 JUMPI POP POP PUSH3 0xC4 JUMP JUMPDEST DUP14 DUP2 SSTORE DUP6 SWAP5 POP DUP11 SWAP2 ADD PUSH3 0x375 JUMP JUMPDEST SWAP3 POP DUP2 SWAP3 PUSH3 0x367 JUMP JUMPDEST PUSH4 0x4E487B71 PUSH1 0xE0 SHL DUP11 MSTORE PUSH1 0x22 PUSH1 0x4 MSTORE PUSH1 0x24 DUP11 REVERT JUMPDEST SWAP5 PUSH1 0x7F AND SWAP5 PUSH3 0xAD JUMP JUMPDEST PUSH4 0x4E487B71 PUSH1 0xE0 SHL PUSH1 0x0 MSTORE PUSH1 0x41 PUSH1 0x4 MSTORE PUSH1 0x24 PUSH1 0x0 REVERT JUMPDEST PUSH1 0x0 DUP1 REVERT JUMPDEST PUSH1 0x40 MLOAD SWAP2 SWAP1 PUSH1 0x1F ADD PUSH1 0x1F NOT AND DUP3 ADD PUSH1 0x1 PUSH1 0x1 PUSH1 0x40 SHL SUB DUP2 GT DUP4 DUP3 LT OR PUSH3 0x3BD JUMPI PUSH1 0x40 MSTORE JUMP JUMPDEST SWAP2 SWAP1 DUP1 PUSH1 0x1F DUP5 ADD SLT ISZERO PUSH3 0x3D3 JUMPI DUP3 MLOAD PUSH1 0x1 PUSH1 0x1 PUSH1 0x40 SHL SUB DUP2 GT PUSH3 0x3BD JUMPI PUSH1 0x20 SWAP1 PUSH3 0x434 PUSH1 0x1F DUP3 ADD PUSH1 0x1F NOT AND DUP4 ADD PUSH3 0x3D8 JUMP JUMPDEST SWAP3 DUP2 DUP5 MSTORE DUP3 DUP3 DUP8 ADD ADD GT PUSH3 0x3D3 JUMPI PUSH1 0x0 JUMPDEST DUP2 DUP2 LT PUSH3 0x45C JUMPI POP DUP3 PUSH1 0x0 SWAP4 SWAP5 SWAP6 POP ADD ADD MSTORE SWAP1 JUMP JUMPDEST DUP6 DUP2 ADD DUP4 ADD MLOAD DUP5 DUP3 ADD DUP5 ADD MSTORE DUP3 ADD PUSH3 0x446 JUMP JUMPDEST MLOAD SWAP1 PUSH1 0x1 PUSH1 0x1 PUSH1 0xA0 SHL SUB DUP3 AND DUP3 SUB PUSH3 0x3D3 JUMPI JUMP INVALID PUSH1 0x80 PUSH1 0x40 DUP2 DUP2 MSTORE PUSH1 0x4 SWAP2 DUP3 CALLDATASIZE LT ISZERO PUSH2 0x16 JUMPI PUSH1 0x0 DUP1 REVERT JUMPDEST PUSH1 0x0 SWAP3 DUP4 CALLDATALOAD PUSH1 0xE0 SHR SWAP2 DUP3 PUSH4 0x1FFC9A7 EQ PUSH2 0x1155 JUMPI POP DUP2 PUSH4 0x6FDDE03 EQ PUSH2 0x10AD JUMPI DUP2 PUSH4 0x81812FC EQ PUSH2 0x108D JUMPI DUP2 PUSH4 0x95EA7B3 EQ PUSH2 0xF0B JUMPI DUP2 PUSH4 0x16C38B3C EQ PUSH2 0xE8E JUMPI DUP2 PUSH4 0x18160DDD EQ PUSH2 0xE4F JUMPI DUP2 PUSH4 0x23B872DD EQ PUSH2 0xE28 JUMPI DUP2 PUSH4 0x38E21CCE EQ PUSH2 0xDEA JUMPI DUP2 PUSH4 0x42842E0E EQ PUSH2 0xDB4 JUMPI DUP2 PUSH4 0x55F804B3 EQ PUSH2 0xBA7 JUMPI DUP2 PUSH4 0x572B6C05 EQ PUSH2 0xB73 JUMPI DUP2 PUSH4 0x5B70EA9F EQ PUSH2 0xA44 JUMPI DUP2 PUSH4 0x5C975ABB EQ PUSH2 0xA20 JUMPI DUP2 PUSH4 0x6352211E EQ PUSH2 0x9EF JUMPI DUP2 PUSH4 0x6387F804 EQ PUSH2 0x998 JUMPI DUP2 PUSH4 0x70A08231 EQ PUSH2 0x970 JUMPI DUP2 PUSH4 0x8DA5CB5B EQ PUSH2 0x945 JUMPI DUP2 PUSH4 0x95D89B41 EQ PUSH2 0x862 JUMPI DUP2 PUSH4 0x9769DC0E EQ PUSH2 0x7AD JUMPI DUP2 PUSH4 0xA22CB465 EQ PUSH2 0x6D4 JUMPI DUP2 PUSH4 0xB88D4FDE EQ PUSH2 0x63F JUMPI DUP2 PUSH4 0xBCC9CA5B EQ PUSH2 0x618 JUMPI DUP2 PUSH4 0xC87B56DD EQ PUSH2 0x346 JUMPI DUP2 PUSH4 0xCE1B815F EQ PUSH2 0x31D JUMPI DUP2 PUSH4 0xDA742228 EQ PUSH2 0x2C3 JUMPI DUP2 PUSH4 0xE985E9C5 EQ PUSH2 0x275 JUMPI DUP2 PUSH4 0xF2FDE38B EQ PUSH2 0x18A JUMPI POP PUSH4 0xFA9F3F27 EQ PUSH2 0x159 JUMPI PUSH1 0x0 DUP1 REVERT JUMPDEST CALLVALUE PUSH2 0x186 JUMPI PUSH1 0x20 CALLDATASIZE PUSH1 0x3 NOT ADD SLT PUSH2 0x186 JUMPI PUSH1 0x20 SWAP1 PUSH2 0x17D PUSH2 0x178 PUSH2 0x1208 JUMP JUMPDEST PUSH2 0x1324 JUMP JUMPDEST ISZERO ISZERO SWAP1 MLOAD SWAP1 DUP2 MSTORE RETURN JUMPDEST POP DUP1 REVERT JUMPDEST SWAP1 POP CALLVALUE PUSH2 0x271 JUMPI PUSH1 0x20 CALLDATASIZE PUSH1 0x3 NOT ADD SLT PUSH2 0x271 JUMPI PUSH2 0x1A5 PUSH2 0x1208 JUMP JUMPDEST PUSH1 0x8 SLOAD SWAP1 PUSH1 0x1 DUP1 PUSH1 0xA0 SHL SUB SWAP3 DUP4 DUP4 PUSH1 0x8 SHR AND SWAP4 PUSH2 0x1CC DUP2 PUSH2 0x1C4 PUSH2 0x1ACC JUMP JUMPDEST AND DUP7 EQ PUSH2 0x18ED JUMP JUMPDEST DUP3 AND SWAP5 DUP6 ISZERO PUSH2 0x21D JUMPI POP POP PUSH2 0x100 PUSH1 0x1 PUSH1 0xA8 SHL SUB NOT SWAP1 SWAP2 AND PUSH1 0x8 SWAP2 DUP3 SHL PUSH2 0x100 PUSH1 0x1 PUSH1 0xA8 SHL SUB AND OR SWAP1 SSTORE PUSH32 0x8BE0079C531659141344CD1FD0A4F28419497F9722A3DAAFE3B4186F6B6457E0 DUP4 DUP1 LOG3 DUP1 RETURN JUMPDEST SWAP1 PUSH1 0x20 PUSH1 0x84 SWAP3 MLOAD SWAP2 PUSH3 0x461BCD PUSH1 0xE5 SHL DUP4 MSTORE DUP3 ADD MSTORE PUSH1 0x28 PUSH1 0x24 DUP3 ADD MSTORE PUSH32 0x4170706C79506173733A206E6577206F776E657220697320746865207A65726F PUSH1 0x44 DUP3 ADD MSTORE PUSH8 0x2061646472657373 PUSH1 0xC0 SHL PUSH1 0x64 DUP3 ADD MSTORE REVERT JUMPDEST DUP3 DUP1 REVERT JUMPDEST POP POP CALLVALUE PUSH2 0x186 JUMPI DUP1 PUSH1 0x3 NOT CALLDATASIZE ADD SLT PUSH2 0x186 JUMPI PUSH1 0xFF DUP2 PUSH1 0x20 SWAP4 PUSH2 0x295 PUSH2 0x1208 JUMP JUMPDEST PUSH2 0x29D PUSH2 0x1223 JUMP JUMPDEST PUSH1 0x1 PUSH1 0x1 PUSH1 0xA0 SHL SUB SWAP2 DUP3 AND DUP4 MSTORE PUSH1 0x5 DUP8 MSTORE DUP4 DUP4 KECCAK256 SWAP2 AND DUP3 MSTORE DUP6 MSTORE KECCAK256 SLOAD SWAP2 MLOAD SWAP2 AND ISZERO ISZERO DUP2 MSTORE RETURN JUMPDEST DUP4 CALLVALUE PUSH2 0x31A JUMPI PUSH1 0x20 CALLDATASIZE PUSH1 0x3 NOT ADD SLT PUSH2 0x31A JUMPI PUSH2 0x2DD PUSH2 0x1208 JUMP JUMPDEST PUSH1 0x8 DUP1 SLOAD PUSH1 0x1 PUSH1 0x1 PUSH1 0xA0 SHL SUB SWAP3 SWAP2 PUSH2 0x303 SWAP2 SWAP1 SHR DUP4 AND DUP4 PUSH2 0x2FC PUSH2 0x1ACC JUMP JUMPDEST AND EQ PUSH2 0x18ED JUMP JUMPDEST AND PUSH1 0x1 PUSH1 0x1 PUSH1 0x60 SHL SUB PUSH1 0xA0 SHL PUSH1 0x9 SLOAD AND OR PUSH1 0x9 SSTORE DUP1 RETURN JUMPDEST DUP1 REVERT JUMPDEST POP POP CALLVALUE PUSH2 0x186 JUMPI DUP2 PUSH1 0x3 NOT CALLDATASIZE ADD SLT PUSH2 0x186 JUMPI PUSH1 0x9 SLOAD SWAP1 MLOAD PUSH1 0x1 PUSH1 0x1 PUSH1 0xA0 SHL SUB SWAP1 SWAP2 AND DUP2 MSTORE PUSH1 0x20 SWAP1 RETURN JUMPDEST DUP4 SWAP2 POP CALLVALUE PUSH2 0x186 JUMPI PUSH1 0x20 SWAP2 DUP3 PUSH1 0x3 NOT CALLDATASIZE ADD SLT PUSH2 0x31A JUMPI DUP2 CALLDATALOAD PUSH1 0x0 DUP2 DUP2 MSTORE PUSH1 0x2 PUSH1 0x20 MSTORE PUSH1 0x40 SWAP1 KECCAK256 SLOAD DUP5 SWAP3 SWAP2 DUP7 SWAP2 PUSH2 0x386 SWAP1 PUSH1 0x1 PUSH1 0x1 PUSH1 0xA0 SHL SUB AND ISZERO ISZERO PUSH2 0x139B JUMP JUMPDEST DUP2 MLOAD SWAP5 DUP4 SWAP2 PUSH1 0x7 SLOAD DUP8 PUSH2 0x398 DUP3 PUSH2 0x140D JUMP JUMPDEST SWAP5 DUP6 DUP3 MSTORE DUP9 DUP3 ADD SWAP6 PUSH1 0x1 SWAP4 DUP11 DUP6 DUP3 AND SWAP2 DUP3 PUSH1 0x0 EQ PUSH2 0x5FB JUMPI POP POP PUSH1 0x1 EQ PUSH2 0x5A2 JUMPI JUMPDEST POP SWAP1 PUSH2 0x3C7 SWAP2 SUB DUP10 PUSH2 0x12AF JUMP JUMPDEST DUP8 MLOAD ISZERO PUSH2 0x583 JUMPI DUP2 DUP1 SWAP4 DUP8 SWAP2 PUSH27 0x184F03E93FF9F4DAA797ED6E38ED64BF6A1F010000000000000000 SWAP1 DUP2 DUP2 LT ISZERO PUSH2 0x576 JUMPI JUMPDEST POP POP DUP9 PUSH14 0x4EE2D6D415B85ACEF8100000000 DUP1 DUP8 LT ISZERO PUSH2 0x567 JUMPI JUMPDEST POP POP PUSH7 0x2386F26FC10000 DUP1 DUP7 LT ISZERO PUSH2 0x558 JUMPI JUMPDEST POP PUSH4 0x5F5E100 DUP1 DUP7 LT ISZERO PUSH2 0x549 JUMPI JUMPDEST POP PUSH2 0x2710 DUP1 DUP7 LT ISZERO PUSH2 0x53D JUMPI JUMPDEST POP POP PUSH1 0x64 DUP5 LT ISZERO PUSH2 0x52F JUMPI JUMPDEST PUSH1 0x21 SWAP1 DUP3 PUSH1 0xA DUP1 SWAP7 LT ISZERO PUSH2 0x528 JUMPI JUMPDEST SWAP4 SWAP3 SWAP2 SWAP1 PUSH2 0x485 DUP4 DUP3 ADD PUSH2 0x47D PUSH2 0x474 DUP3 PUSH2 0x12D1 JUMP JUMPDEST SWAP11 MLOAD SWAP11 DUP12 PUSH2 0x12AF JUMP JUMPDEST DUP1 DUP11 MSTORE PUSH2 0x12D1 JUMP JUMPDEST DUP9 DUP12 ADD SWAP10 SWAP1 PUSH1 0x1F NOT ADD CALLDATASIZE DUP12 CALLDATACOPY POP DUP8 ADD ADD SWAP1 JUMPDEST PUSH2 0x4F2 JUMPI JUMPDEST POP POP POP POP SWAP4 PUSH2 0x4DD SWAP3 PUSH2 0x4C2 SWAP5 SWAP3 PUSH2 0x4D1 PUSH2 0x4EE SWAP8 DUP11 MLOAD SWAP8 DUP9 SWAP6 MLOAD DUP1 SWAP3 DUP9 DUP9 ADD SWAP1 PUSH2 0x11C0 JUMP JUMPDEST DUP5 ADD SWAP2 MLOAD DUP1 SWAP4 DUP7 DUP5 ADD SWAP1 PUSH2 0x11C0 JUMP JUMPDEST ADD SUB DUP1 DUP5 MSTORE ADD DUP3 PUSH2 0x12AF JUMP JUMPDEST SWAP3 JUMPDEST MLOAD SWAP3 DUP3 DUP5 SWAP4 DUP5 MSTORE DUP4 ADD SWAP1 PUSH2 0x11E3 JUMP JUMPDEST SUB SWAP1 RETURN JUMPDEST PUSH1 0x0 NOT ADD SWAP1 DUP4 SWAP1 PUSH16 0x181899199A1A9B1B9C1CB0B131B232B3 PUSH1 0x81 SHL DUP3 DUP3 MOD BYTE DUP4 MSTORE8 DIV SWAP2 DUP3 ISZERO PUSH2 0x523 JUMPI SWAP2 SWAP1 DUP3 PUSH2 0x497 JUMP JUMPDEST PUSH2 0x49C JUMP JUMPDEST ADD DUP3 PUSH2 0x45E JUMP JUMPDEST PUSH1 0x64 SWAP1 SWAP4 DIV SWAP3 PUSH1 0x2 ADD PUSH2 0x44F JUMP JUMPDEST SWAP1 SWAP5 DIV SWAP4 ADD DUP12 DUP1 PUSH2 0x443 JUMP JUMPDEST PUSH1 0x8 SWAP2 SWAP3 SWAP6 DIV SWAP5 ADD SWAP1 DUP13 PUSH2 0x436 JUMP JUMPDEST PUSH1 0x10 SWAP2 SWAP3 SWAP6 DIV SWAP5 ADD SWAP1 DUP13 PUSH2 0x427 JUMP JUMPDEST SWAP1 SWAP2 SWAP3 SWAP6 DIV SWAP5 ADD SWAP1 DUP9 DUP14 PUSH2 0x414 JUMP JUMPDEST DIV SWAP5 POP DUP7 SWAP2 POP DUP13 DUP1 PUSH2 0x3F9 JUMP JUMPDEST POP POP POP POP SWAP1 SWAP2 POP PUSH2 0x4EE SWAP3 POP MLOAD SWAP1 PUSH2 0x59A DUP3 PUSH2 0x127D JUMP JUMPDEST DUP2 MSTORE SWAP3 PUSH2 0x4DF JUMP JUMPDEST PUSH1 0x7 DUP10 MSTORE DUP9 SWAP2 POP PUSH32 0xA66CC928B5EDB82AF9BD49922954155AB7B0942694BEA4CE44661D9A8736C688 JUMPDEST DUP2 DUP4 LT PUSH2 0x5E0 JUMPI POP POP DUP2 ADD DUP9 ADD PUSH2 0x3C7 PUSH2 0x3BA JUMP JUMPDEST DUP1 SLOAD DUP4 DUP14 ADD DUP13 ADD MSTORE DUP13 SWAP11 DUP15 SWAP10 POP DUP13 SWAP5 POP SWAP1 SWAP3 ADD SWAP2 DUP5 ADD PUSH2 0x5CB JUMP JUMPDEST PUSH1 0xFF NOT AND DUP10 MSTORE SWAP2 ISZERO ISZERO PUSH1 0x5 SHL DUP5 ADD SWAP1 SWAP2 ADD SWAP2 POP PUSH2 0x3C7 SWAP1 POP PUSH2 0x3BA JUMP JUMPDEST POP POP CALLVALUE PUSH2 0x186 JUMPI DUP2 PUSH1 0x3 NOT CALLDATASIZE ADD SLT PUSH2 0x186 JUMPI PUSH1 0x20 SWAP1 PUSH1 0xFF PUSH1 0x9 SLOAD PUSH1 0xA0 SHR AND SWAP1 MLOAD SWAP1 ISZERO ISZERO DUP2 MSTORE RETURN JUMPDEST DUP4 SWAP1 CALLVALUE PUSH2 0x186 JUMPI PUSH1 0x80 CALLDATASIZE PUSH1 0x3 NOT ADD SLT PUSH2 0x186 JUMPI PUSH2 0x65A PUSH2 0x1208 JUMP JUMPDEST SWAP1 PUSH2 0x663 PUSH2 0x1223 JUMP JUMPDEST SWAP2 PUSH1 0x44 CALLDATALOAD PUSH1 0x64 CALLDATALOAD SWAP4 PUSH8 0xFFFFFFFFFFFFFFFF DUP6 GT PUSH2 0x6D0 JUMPI CALLDATASIZE PUSH1 0x23 DUP7 ADD SLT ISZERO PUSH2 0x6D0 JUMPI PUSH2 0x69E PUSH2 0x6C8 SWAP5 DUP7 PUSH1 0x24 PUSH2 0x6CD SWAP9 CALLDATASIZE SWAP4 ADD CALLDATALOAD SWAP2 ADD PUSH2 0x12ED JUMP JUMPDEST SWAP3 PUSH2 0x6B8 PUSH2 0x6B3 DUP5 PUSH2 0x6AE PUSH2 0x1ACC JUMP JUMPDEST PUSH2 0x155E JUMP JUMPDEST PUSH2 0x1485 JUMP JUMPDEST PUSH2 0x6C3 DUP4 DUP4 DUP4 PUSH2 0x1626 JUMP JUMPDEST PUSH2 0x185A JUMP JUMPDEST PUSH2 0x153A JUMP JUMPDEST DUP1 RETURN JUMPDEST DUP6 DUP1 REVERT JUMPDEST SWAP1 POP CALLVALUE PUSH2 0x271 JUMPI DUP2 PUSH1 0x3 NOT CALLDATASIZE ADD SLT PUSH2 0x271 JUMPI PUSH2 0x6EE PUSH2 0x1208 JUMP JUMPDEST SWAP2 PUSH1 0x24 CALLDATALOAD SWAP1 DUP2 ISZERO ISZERO DUP1 SWAP3 SUB PUSH2 0x7A9 JUMPI PUSH2 0x705 PUSH2 0x1ACC JUMP JUMPDEST PUSH1 0x1 PUSH1 0x1 PUSH1 0xA0 SHL SUB SWAP5 DUP6 AND SWAP5 AND SWAP3 DUP4 DUP6 EQ PUSH2 0x767 JUMPI POP PUSH32 0x17307EAB39AB6107E8899845AD3D59BD9653F200F220920489CA2B5937696C31 SWAP2 PUSH1 0x20 SWAP2 DUP5 DUP8 MSTORE PUSH1 0x5 DUP4 MSTORE DUP1 DUP8 KECCAK256 DUP7 DUP9 MSTORE DUP4 MSTORE DUP1 DUP8 KECCAK256 PUSH1 0xFF NOT DUP2 SLOAD AND PUSH1 0xFF DUP5 AND OR SWAP1 SSTORE MLOAD SWAP1 DUP2 MSTORE LOG3 DUP1 RETURN JUMPDEST PUSH1 0x20 PUSH1 0x64 SWAP3 MLOAD SWAP2 PUSH3 0x461BCD PUSH1 0xE5 SHL DUP4 MSTORE DUP3 ADD MSTORE PUSH1 0x19 PUSH1 0x24 DUP3 ADD MSTORE PUSH32 0x4552433732313A20617070726F766520746F2063616C6C657200000000000000 PUSH1 0x44 DUP3 ADD MSTORE REVERT JUMPDEST DUP5 DUP1 REVERT JUMPDEST DUP4 SWAP2 POP CALLVALUE PUSH2 0x186 JUMPI PUSH1 0x20 CALLDATASIZE PUSH1 0x3 NOT ADD SLT PUSH2 0x186 JUMPI PUSH2 0x7C9 PUSH2 0x1208 JUMP JUMPDEST PUSH1 0x8 DUP1 SLOAD PUSH1 0x1 PUSH1 0x1 PUSH1 0xA0 SHL SUB SWAP2 PUSH2 0x7E7 SWAP2 SWAP1 SHR DUP3 AND DUP3 PUSH2 0x2FC PUSH2 0x1ACC JUMP JUMPDEST DUP2 AND SWAP2 DUP3 ISZERO PUSH2 0x81F JUMPI POP PUSH2 0x6CD SWAP3 SWAP4 PUSH1 0x6 SLOAD SWAP3 PUSH2 0x803 DUP5 PUSH2 0x1944 JUMP JUMPDEST PUSH1 0x6 SSTORE DUP6 MSTORE PUSH1 0xA PUSH1 0x20 MSTORE DUP5 KECCAK256 DUP1 SLOAD PUSH1 0xFF NOT AND PUSH1 0x1 OR SWAP1 SSTORE PUSH2 0x1969 JUMP JUMPDEST PUSH1 0x64 SWAP1 PUSH1 0x20 DUP7 MLOAD SWAP2 PUSH3 0x461BCD PUSH1 0xE5 SHL DUP4 MSTORE DUP3 ADD MSTORE PUSH1 0x1A PUSH1 0x24 DUP3 ADD MSTORE PUSH32 0x4170706C79506173733A20496E76616C69642061646472657373000000000000 PUSH1 0x44 DUP3 ADD MSTORE REVERT JUMPDEST POP POP CALLVALUE PUSH2 0x186 JUMPI DUP2 PUSH1 0x3 NOT CALLDATASIZE ADD SLT PUSH2 0x186 JUMPI DUP1 MLOAD SWAP1 DUP3 PUSH1 0x1 DUP1 SLOAD SWAP2 PUSH2 0x886 DUP4 PUSH2 0x140D JUMP JUMPDEST DUP1 DUP7 MSTORE SWAP3 DUP3 DUP2 AND SWAP1 DUP2 ISZERO PUSH2 0x91D JUMPI POP PUSH1 0x1 EQ PUSH2 0x8C1 JUMPI JUMPDEST POP POP POP PUSH2 0x8AF DUP3 PUSH2 0x4EE SWAP5 SUB DUP4 PUSH2 0x12AF JUMP JUMPDEST MLOAD SWAP2 DUP3 SWAP2 PUSH1 0x20 DUP4 MSTORE PUSH1 0x20 DUP4 ADD SWAP1 PUSH2 0x11E3 JUMP JUMPDEST SWAP5 POP DUP1 DUP6 MSTORE PUSH32 0xB10E2D527612073B26EECDFD717E6A320CF44B4AFAC2B0732D9FCBE2B7FA0CF6 JUMPDEST DUP3 DUP7 LT PUSH2 0x905 JUMPI POP POP POP PUSH2 0x8AF DUP3 PUSH1 0x20 PUSH2 0x4EE SWAP6 DUP3 ADD ADD SWAP5 PUSH2 0x89D JUMP JUMPDEST DUP1 SLOAD PUSH1 0x20 DUP8 DUP8 ADD DUP2 ADD SWAP2 SWAP1 SWAP2 MSTORE SWAP1 SWAP6 ADD SWAP5 DUP2 ADD PUSH2 0x8E8 JUMP JUMPDEST PUSH2 0x4EE SWAP8 POP DUP7 SWAP4 POP PUSH1 0x20 SWAP3 POP PUSH2 0x8AF SWAP5 SWAP2 POP PUSH1 0xFF NOT AND DUP3 DUP5 ADD MSTORE ISZERO ISZERO PUSH1 0x5 SHL DUP3 ADD ADD SWAP5 PUSH2 0x89D JUMP JUMPDEST POP POP CALLVALUE PUSH2 0x186 JUMPI DUP2 PUSH1 0x3 NOT CALLDATASIZE ADD SLT PUSH2 0x186 JUMPI PUSH1 0x8 DUP1 SLOAD SWAP2 MLOAD SWAP2 SWAP1 SHR PUSH1 0x1 PUSH1 0x1 PUSH1 0xA0 SHL SUB AND DUP2 MSTORE PUSH1 0x20 SWAP1 RETURN JUMPDEST POP POP CALLVALUE PUSH2 0x186 JUMPI PUSH1 0x20 CALLDATASIZE PUSH1 0x3 NOT ADD SLT PUSH2 0x186 JUMPI PUSH1 0x20 SWAP1 PUSH2 0x991 PUSH2 0x178 PUSH2 0x1208 JUMP JUMPDEST SWAP1 MLOAD SWAP1 DUP2 MSTORE RETURN JUMPDEST DUP4 CALLVALUE PUSH2 0x31A JUMPI PUSH1 0x20 CALLDATASIZE PUSH1 0x3 NOT ADD SLT PUSH2 0x31A JUMPI PUSH2 0x9B2 PUSH2 0x1239 JUMP JUMPDEST PUSH1 0x8 DUP1 SLOAD PUSH2 0x9CF SWAP2 SHR PUSH1 0x1 PUSH1 0x1 PUSH1 0xA0 SHL SUB SWAP1 DUP2 AND SWAP1 PUSH2 0x2FC PUSH2 0x1ACC JUMP JUMPDEST PUSH1 0x9 DUP1 SLOAD PUSH1 0xFF PUSH1 0xA0 SHL NOT AND SWAP2 ISZERO ISZERO PUSH1 0xA0 SHL PUSH1 0xFF PUSH1 0xA0 SHL AND SWAP2 SWAP1 SWAP2 OR SWAP1 SSTORE DUP1 RETURN JUMPDEST DUP3 DUP5 CALLVALUE PUSH2 0x31A JUMPI PUSH1 0x20 CALLDATASIZE PUSH1 0x3 NOT ADD SLT PUSH2 0x31A JUMPI POP PUSH2 0xA0F PUSH1 0x20 SWAP3 CALLDATALOAD PUSH2 0x13E7 JUMP JUMPDEST SWAP1 MLOAD PUSH1 0x1 PUSH1 0x1 PUSH1 0xA0 SHL SUB SWAP1 SWAP2 AND DUP2 MSTORE RETURN JUMPDEST POP POP CALLVALUE PUSH2 0x186 JUMPI DUP2 PUSH1 0x3 NOT CALLDATASIZE ADD SLT PUSH2 0x186 JUMPI PUSH1 0x20 SWAP1 PUSH1 0xFF PUSH1 0x8 SLOAD AND SWAP1 MLOAD SWAP1 ISZERO ISZERO DUP2 MSTORE RETURN JUMPDEST DUP4 SWAP2 POP CALLVALUE PUSH2 0x186 JUMPI DUP2 PUSH1 0x3 NOT CALLDATASIZE ADD SLT PUSH2 0x186 JUMPI PUSH1 0xFF PUSH1 0x8 SLOAD AND PUSH2 0xB30 JUMPI PUSH1 0xFF PUSH1 0x9 SLOAD PUSH1 0xA0 SHR AND ISZERO PUSH2 0xAED JUMPI PUSH2 0xA77 PUSH2 0x1ACC JUMP JUMPDEST PUSH1 0x1 PUSH1 0x1 PUSH1 0xA0 SHL SUB DUP2 AND DUP1 DUP5 MSTORE PUSH1 0xA PUSH1 0x20 MSTORE DUP5 DUP5 KECCAK256 SLOAD SWAP1 SWAP3 SWAP1 PUSH1 0xFF AND PUSH2 0xAAA JUMPI POP PUSH2 0x6CD SWAP3 SWAP4 PUSH1 0x6 SLOAD SWAP3 PUSH2 0x803 DUP5 PUSH2 0x1944 JUMP JUMPDEST PUSH1 0x64 SWAP1 PUSH1 0x20 DUP7 MLOAD SWAP2 PUSH3 0x461BCD PUSH1 0xE5 SHL DUP4 MSTORE DUP3 ADD MSTORE PUSH1 0x1E PUSH1 0x24 DUP3 ADD MSTORE PUSH32 0x4170706C79506173733A204F6E652070617373207065722077616C6C65740000 PUSH1 0x44 DUP3 ADD MSTORE REVERT JUMPDEST PUSH1 0x64 SWAP1 PUSH1 0x20 DUP5 MLOAD SWAP2 PUSH3 0x461BCD PUSH1 0xE5 SHL DUP4 MSTORE DUP3 ADD MSTORE PUSH1 0x20 PUSH1 0x24 DUP3 ADD MSTORE PUSH32 0x4170706C79506173733A205075626C6963206D696E7420697320636C6F736564 PUSH1 0x44 DUP3 ADD MSTORE REVERT JUMPDEST PUSH1 0x64 SWAP1 PUSH1 0x20 DUP5 MLOAD SWAP2 PUSH3 0x461BCD PUSH1 0xE5 SHL DUP4 MSTORE DUP3 ADD MSTORE PUSH1 0x1C PUSH1 0x24 DUP3 ADD MSTORE PUSH32 0x4170706C79506173733A204D696E74696E672069732070617573656400000000 PUSH1 0x44 DUP3 ADD MSTORE REVERT JUMPDEST POP POP CALLVALUE PUSH2 0x186 JUMPI PUSH1 0x20 CALLDATASIZE PUSH1 0x3 NOT ADD SLT PUSH2 0x186 JUMPI PUSH1 0x20 SWAP1 PUSH2 0xB91 PUSH2 0x1208 JUMP JUMPDEST PUSH1 0x1 DUP1 PUSH1 0xA0 SHL SUB DUP1 PUSH1 0x9 SLOAD AND SWAP2 AND EQ SWAP1 MLOAD SWAP1 DUP2 MSTORE RETURN JUMPDEST DUP4 SWAP2 POP CALLVALUE PUSH2 0x186 JUMPI PUSH1 0x20 SWAP3 DUP4 PUSH1 0x3 NOT CALLDATASIZE ADD SLT PUSH2 0x271 JUMPI PUSH8 0xFFFFFFFFFFFFFFFF DUP3 CALLDATALOAD DUP2 DUP2 GT PUSH2 0x7A9 JUMPI CALLDATASIZE PUSH1 0x23 DUP3 ADD SLT ISZERO PUSH2 0x7A9 JUMPI PUSH2 0xBED SWAP1 CALLDATASIZE SWAP1 PUSH1 0x24 DUP2 DUP8 ADD CALLDATALOAD SWAP2 ADD PUSH2 0x12ED JUMP JUMPDEST SWAP3 PUSH2 0xC09 PUSH1 0x1 DUP1 PUSH1 0xA0 SHL SUB DUP1 PUSH1 0x8 SLOAD PUSH1 0x8 SHR AND SWAP1 PUSH2 0x2FC PUSH2 0x1ACC JUMP JUMPDEST DUP4 MLOAD SWAP2 DUP3 GT PUSH2 0xDA1 JUMPI POP PUSH2 0xC1E PUSH1 0x7 SLOAD PUSH2 0x140D JUMP JUMPDEST PUSH1 0x1F DUP2 GT PUSH2 0xD3F JUMPI JUMPDEST POP DUP5 PUSH1 0x1F DUP3 GT PUSH1 0x1 EQ PUSH2 0xC99 JUMPI SWAP2 DUP2 PUSH2 0xC88 SWAP3 DUP7 SWAP8 SWAP5 PUSH32 0x6741B2FC379FAD678116FE3D4D4B9A1A184AB53BA36B86AD0FA66340B1AB41AD SWAP8 SWAP2 PUSH2 0xC8E JUMPI JUMPDEST POP DUP2 PUSH1 0x1 SHL SWAP2 PUSH1 0x0 NOT SWAP1 PUSH1 0x3 SHL SHR NOT AND OR PUSH1 0x7 SSTORE MLOAD SWAP3 DUP3 DUP5 SWAP4 DUP5 MSTORE DUP4 ADD SWAP1 PUSH2 0x11E3 JUMP JUMPDEST SUB SWAP1 LOG1 DUP1 RETURN JUMPDEST SWAP1 POP DUP6 ADD MLOAD DUP9 PUSH2 0xC65 JUMP JUMPDEST PUSH1 0x7 DUP6 MSTORE PUSH32 0xA66CC928B5EDB82AF9BD49922954155AB7B0942694BEA4CE44661D9A8736C688 SWAP1 PUSH1 0x1F NOT DUP4 AND DUP7 JUMPDEST DUP2 DUP2 LT PUSH2 0xD28 JUMPI POP SWAP3 PUSH32 0x6741B2FC379FAD678116FE3D4D4B9A1A184AB53BA36B86AD0FA66340B1AB41AD SWAP7 SWAP8 SWAP5 SWAP3 PUSH1 0x1 SWAP3 DUP3 PUSH2 0xC88 SWAP7 LT PUSH2 0xD0F JUMPI JUMPDEST POP POP DUP2 SHL ADD PUSH1 0x7 SSTORE PUSH2 0x4DF JUMP JUMPDEST DUP8 ADD MLOAD PUSH1 0x0 NOT PUSH1 0xF8 DUP5 PUSH1 0x3 SHL AND SHR NOT AND SWAP1 SSTORE DUP9 DUP1 PUSH2 0xD02 JUMP JUMPDEST SWAP2 SWAP3 DUP9 PUSH1 0x1 DUP2 SWAP3 DUP7 DUP11 ADD MLOAD DUP2 SSTORE ADD SWAP5 ADD SWAP3 ADD PUSH2 0xCC6 JUMP JUMPDEST PUSH1 0x7 DUP6 MSTORE PUSH32 0xA66CC928B5EDB82AF9BD49922954155AB7B0942694BEA4CE44661D9A8736C688 PUSH1 0x1F DUP4 ADD PUSH1 0x5 SHR DUP2 ADD SWAP2 DUP8 DUP5 LT PUSH2 0xD97 JUMPI JUMPDEST PUSH1 0x1F ADD PUSH1 0x5 SHR ADD SWAP1 JUMPDEST DUP2 DUP2 LT PUSH2 0xD8C JUMPI POP PUSH2 0xC27 JUMP JUMPDEST DUP6 DUP2 SSTORE PUSH1 0x1 ADD PUSH2 0xD7F JUMP JUMPDEST SWAP1 SWAP2 POP DUP2 SWAP1 PUSH2 0xD76 JUMP JUMPDEST PUSH4 0x4E487B71 PUSH1 0xE0 SHL DUP6 MSTORE PUSH1 0x41 SWAP1 MSTORE PUSH1 0x24 DUP5 REVERT JUMPDEST POP POP CALLVALUE PUSH2 0x186 JUMPI PUSH2 0x6C8 PUSH2 0x6CD SWAP2 PUSH2 0xDCB CALLDATASIZE PUSH2 0x1248 JUMP JUMPDEST SWAP2 SWAP3 MLOAD SWAP3 PUSH2 0xDD8 DUP5 PUSH2 0x127D JUMP JUMPDEST DUP7 DUP5 MSTORE PUSH2 0x6B8 PUSH2 0x6B3 DUP5 PUSH2 0x6AE PUSH2 0x1ACC JUMP JUMPDEST POP POP CALLVALUE PUSH2 0x186 JUMPI PUSH1 0x20 CALLDATASIZE PUSH1 0x3 NOT ADD SLT PUSH2 0x186 JUMPI PUSH1 0x20 SWAP2 PUSH1 0xFF SWAP1 DUP3 SWAP1 PUSH1 0x1 PUSH1 0x1 PUSH1 0xA0 SHL SUB PUSH2 0xE15 PUSH2 0x1208 JUMP JUMPDEST AND DUP2 MSTORE PUSH1 0xA DUP6 MSTORE KECCAK256 SLOAD AND SWAP1 MLOAD SWAP1 ISZERO ISZERO DUP2 MSTORE RETURN JUMPDEST DUP4 CALLVALUE PUSH2 0x31A JUMPI PUSH2 0x6CD PUSH2 0xE3A CALLDATASIZE PUSH2 0x1248 JUMP JUMPDEST SWAP2 PUSH2 0xE4A PUSH2 0x6B3 DUP5 PUSH2 0x6AE PUSH2 0x1ACC JUMP JUMPDEST PUSH2 0x1626 JUMP JUMPDEST DUP4 DUP4 CALLVALUE PUSH2 0x186 JUMPI DUP2 PUSH1 0x3 NOT CALLDATASIZE ADD SLT PUSH2 0x186 JUMPI PUSH1 0x6 SLOAD PUSH1 0x0 NOT DUP2 ADD SWAP3 SWAP1 DUP4 GT PUSH2 0xE7B JUMPI PUSH1 0x20 DUP4 DUP4 MLOAD SWAP1 DUP2 MSTORE RETURN JUMPDEST PUSH4 0x4E487B71 PUSH1 0xE0 SHL DUP2 MSTORE PUSH1 0x11 DUP5 MSTORE PUSH1 0x24 SWAP1 REVERT JUMPDEST POP POP CALLVALUE PUSH2 0x186 JUMPI PUSH1 0x20 CALLDATASIZE PUSH1 0x3 NOT ADD SLT PUSH2 0x186 JUMPI PUSH1 0x20 PUSH32 0x31311016D7204FAFF81880133E3DB244AE8A8B9CE15E83E2432258226D15F942 SWAP2 PUSH2 0xECD PUSH2 0x1239 JUMP JUMPDEST PUSH1 0x8 SLOAD SWAP2 SWAP1 PUSH2 0xEF3 PUSH1 0x1 PUSH1 0x1 PUSH1 0xA0 SHL SUB DUP1 PUSH2 0xEE6 PUSH2 0x1ACC JUMP JUMPDEST AND SWAP1 DUP6 PUSH1 0x8 SHR AND EQ PUSH2 0x18ED JUMP JUMPDEST ISZERO ISZERO SWAP2 PUSH1 0xFF DUP4 AND SWAP1 PUSH1 0xFF NOT AND OR PUSH1 0x8 SSTORE MLOAD SWAP1 DUP2 MSTORE LOG1 DUP1 RETURN JUMPDEST SWAP1 POP CALLVALUE PUSH2 0x271 JUMPI DUP2 PUSH1 0x3 NOT CALLDATASIZE ADD SLT PUSH2 0x271 JUMPI PUSH2 0xF25 PUSH2 0x1208 JUMP JUMPDEST PUSH1 0x24 CALLDATALOAD SWAP3 SWAP1 SWAP2 PUSH1 0x1 PUSH1 0x1 PUSH1 0xA0 SHL SUB SWAP2 SWAP1 DUP3 DUP1 PUSH2 0xF40 DUP8 PUSH2 0x13E7 JUMP JUMPDEST AND SWAP5 AND SWAP4 DUP1 DUP6 EQ PUSH2 0x1040 JUMPI DUP1 DUP5 PUSH2 0xF55 PUSH2 0x1ACC JUMP JUMPDEST AND EQ SWAP1 DUP2 ISZERO PUSH2 0x1016 JUMPI JUMPDEST POP ISZERO PUSH2 0xFAE JUMPI DUP5 DUP7 MSTORE PUSH1 0x20 MSTORE DUP5 KECCAK256 DUP1 SLOAD PUSH1 0x1 PUSH1 0x1 PUSH1 0xA0 SHL SUB NOT AND DUP4 OR SWAP1 SSTORE PUSH2 0xF86 DUP4 PUSH2 0x13E7 JUMP JUMPDEST AND PUSH32 0x8C5BE1E5EBEC7D5BD14F71427D1E84F3DD0314C0F7B2291E5B200AC8C7C3B925 DUP5 DUP1 LOG4 DUP1 RETURN JUMPDEST PUSH1 0x20 PUSH1 0x84 SWAP3 MLOAD SWAP2 PUSH3 0x461BCD PUSH1 0xE5 SHL DUP4 MSTORE DUP3 ADD MSTORE PUSH1 0x3D PUSH1 0x24 DUP3 ADD MSTORE PUSH32 0x4552433732313A20617070726F76652063616C6C6572206973206E6F7420746F PUSH1 0x44 DUP3 ADD MSTORE PUSH32 0x6B656E206F776E6572206F7220617070726F76656420666F7220616C6C000000 PUSH1 0x64 DUP3 ADD MSTORE REVERT JUMPDEST SWAP1 POP PUSH2 0x1020 PUSH2 0x1ACC JUMP JUMPDEST SWAP1 DUP8 MSTORE PUSH1 0x5 PUSH1 0x20 MSTORE DUP4 DUP4 DUP9 KECCAK256 SWAP2 AND DUP8 MSTORE PUSH1 0x20 MSTORE PUSH1 0xFF DUP3 DUP8 KECCAK256 SLOAD AND CODESIZE PUSH2 0xF5F JUMP JUMPDEST POP PUSH1 0x20 PUSH1 0x84 SWAP3 MLOAD SWAP2 PUSH3 0x461BCD PUSH1 0xE5 SHL DUP4 MSTORE DUP3 ADD MSTORE PUSH1 0x21 PUSH1 0x24 DUP3 ADD MSTORE PUSH32 0x4552433732313A20617070726F76616C20746F2063757272656E74206F776E65 PUSH1 0x44 DUP3 ADD MSTORE PUSH1 0x39 PUSH1 0xF9 SHL PUSH1 0x64 DUP3 ADD MSTORE REVERT JUMPDEST DUP3 DUP5 CALLVALUE PUSH2 0x31A JUMPI PUSH1 0x20 CALLDATASIZE PUSH1 0x3 NOT ADD SLT PUSH2 0x31A JUMPI POP PUSH2 0xA0F PUSH1 0x20 SWAP3 CALLDATALOAD PUSH2 0x1447 JUMP JUMPDEST POP POP CALLVALUE PUSH2 0x186 JUMPI DUP2 PUSH1 0x3 NOT CALLDATASIZE ADD SLT PUSH2 0x186 JUMPI DUP1 MLOAD SWAP1 DUP3 DUP1 SLOAD PUSH2 0x10CE DUP2 PUSH2 0x140D JUMP JUMPDEST DUP1 DUP6 MSTORE SWAP2 PUSH1 0x1 SWAP2 DUP1 DUP4 AND SWAP1 DUP2 ISZERO PUSH2 0x91D JUMPI POP PUSH1 0x1 EQ PUSH2 0x10F9 JUMPI POP POP POP PUSH2 0x8AF DUP3 PUSH2 0x4EE SWAP5 SUB DUP4 PUSH2 0x12AF JUMP JUMPDEST DUP1 DUP1 SWAP7 POP MSTORE PUSH32 0x290DECD9548B62A8D60345A988386FC84BA6BC95484008F6362F93160EF3E563 JUMPDEST DUP3 DUP7 LT PUSH2 0x113D JUMPI POP POP POP PUSH2 0x8AF DUP3 PUSH1 0x20 PUSH2 0x4EE SWAP6 DUP3 ADD ADD SWAP5 PUSH2 0x89D JUMP JUMPDEST DUP1 SLOAD PUSH1 0x20 DUP8 DUP8 ADD DUP2 ADD SWAP2 SWAP1 SWAP2 MSTORE SWAP1 SWAP6 ADD SWAP5 DUP2 ADD PUSH2 0x1120 JUMP JUMPDEST DUP5 SWAP2 CALLVALUE PUSH2 0x271 JUMPI PUSH1 0x20 CALLDATASIZE PUSH1 0x3 NOT ADD SLT PUSH2 0x271 JUMPI CALLDATALOAD PUSH4 0xFFFFFFFF PUSH1 0xE0 SHL DUP2 AND DUP1 SWAP2 SUB PUSH2 0x271 JUMPI PUSH1 0x20 SWAP3 POP PUSH4 0x80AC58CD PUSH1 0xE0 SHL DUP2 EQ SWAP1 DUP2 ISZERO PUSH2 0x11AF JUMPI JUMPDEST DUP2 ISZERO PUSH2 0x119E JUMPI JUMPDEST POP ISZERO ISZERO DUP2 MSTORE RETURN JUMPDEST PUSH4 0x1FFC9A7 PUSH1 0xE0 SHL EQ SWAP1 POP DUP4 PUSH2 0x1197 JUMP JUMPDEST PUSH4 0x5B5E139F PUSH1 0xE0 SHL DUP2 EQ SWAP2 POP PUSH2 0x1190 JUMP JUMPDEST PUSH1 0x0 JUMPDEST DUP4 DUP2 LT PUSH2 0x11D3 JUMPI POP POP PUSH1 0x0 SWAP2 ADD MSTORE JUMP JUMPDEST DUP2 DUP2 ADD MLOAD DUP4 DUP3 ADD MSTORE PUSH1 0x20 ADD PUSH2 0x11C3 JUMP JUMPDEST SWAP1 PUSH1 0x20 SWAP2 PUSH2 0x11FC DUP2 MLOAD DUP1 SWAP3 DUP2 DUP6 MSTORE DUP6 DUP1 DUP7 ADD SWAP2 ADD PUSH2 0x11C0 JUMP JUMPDEST PUSH1 0x1F ADD PUSH1 0x1F NOT AND ADD ADD SWAP1 JUMP JUMPDEST PUSH1 0x4 CALLDATALOAD SWAP1 PUSH1 0x1 PUSH1 0x1 PUSH1 0xA0 SHL SUB DUP3 AND DUP3 SUB PUSH2 0x121E JUMPI JUMP JUMPDEST PUSH1 0x0 DUP1 REVERT JUMPDEST PUSH1 0x24 CALLDATALOAD SWAP1 PUSH1 0x1 PUSH1 0x1 PUSH1 0xA0 SHL SUB DUP3 AND DUP3 SUB PUSH2 0x121E JUMPI JUMP JUMPDEST PUSH1 0x4 CALLDATALOAD SWAP1 DUP2 ISZERO ISZERO DUP3 SUB PUSH2 0x121E JUMPI JUMP JUMPDEST PUSH1 0x60 SWAP1 PUSH1 0x3 NOT ADD SLT PUSH2 0x121E JUMPI PUSH1 0x1 PUSH1 0x1 PUSH1 0xA0 SHL SUB SWAP1 PUSH1 0x4 CALLDATALOAD DUP3 DUP2 AND DUP2 SUB PUSH2 0x121E JUMPI SWAP2 PUSH1 0x24 CALLDATALOAD SWAP1 DUP2 AND DUP2 SUB PUSH2 0x121E JUMPI SWAP1 PUSH1 0x44 CALLDATALOAD SWAP1 JUMP JUMPDEST PUSH1 0x20 DUP2 ADD SWAP1 DUP2 LT PUSH8 0xFFFFFFFFFFFFFFFF DUP3 GT OR PUSH2 0x1299 JUMPI PUSH1 0x40 MSTORE JUMP JUMPDEST PUSH4 0x4E487B71 PUSH1 0xE0 SHL PUSH1 0x0 MSTORE PUSH1 0x41 PUSH1 0x4 MSTORE PUSH1 0x24 PUSH1 0x0 REVERT JUMPDEST SWAP1 PUSH1 0x1F DUP1 NOT SWAP2 ADD AND DUP2 ADD SWAP1 DUP2 LT PUSH8 0xFFFFFFFFFFFFFFFF DUP3 GT OR PUSH2 0x1299 JUMPI PUSH1 0x40 MSTORE JUMP JUMPDEST PUSH8 0xFFFFFFFFFFFFFFFF DUP2 GT PUSH2 0x1299 JUMPI PUSH1 0x1F ADD PUSH1 0x1F NOT AND PUSH1 0x20 ADD SWAP1 JUMP JUMPDEST SWAP3 SWAP2 SWAP3 PUSH2 0x12F9 DUP3 PUSH2 0x12D1 JUMP JUMPDEST SWAP2 PUSH2 0x1307 PUSH1 0x40 MLOAD SWAP4 DUP5 PUSH2 0x12AF JUMP JUMPDEST DUP3 SWAP5 DUP2 DUP5 MSTORE DUP2 DUP4 ADD GT PUSH2 0x121E JUMPI DUP3 DUP2 PUSH1 0x20 SWAP4 DUP5 PUSH1 0x0 SWAP7 ADD CALLDATACOPY ADD ADD MSTORE JUMP JUMPDEST PUSH1 0x1 PUSH1 0x1 PUSH1 0xA0 SHL SUB AND DUP1 ISZERO PUSH2 0x1344 JUMPI PUSH1 0x0 MSTORE PUSH1 0x3 PUSH1 0x20 MSTORE PUSH1 0x40 PUSH1 0x0 KECCAK256 SLOAD SWAP1 JUMP JUMPDEST PUSH1 0x40 MLOAD PUSH3 0x461BCD PUSH1 0xE5 SHL DUP2 MSTORE PUSH1 0x20 PUSH1 0x4 DUP3 ADD MSTORE PUSH1 0x29 PUSH1 0x24 DUP3 ADD MSTORE PUSH32 0x4552433732313A2061646472657373207A65726F206973206E6F742061207661 PUSH1 0x44 DUP3 ADD MSTORE PUSH9 0x3634B21037BBB732B9 PUSH1 0xB9 SHL PUSH1 0x64 DUP3 ADD MSTORE PUSH1 0x84 SWAP1 REVERT JUMPDEST ISZERO PUSH2 0x13A2 JUMPI JUMP JUMPDEST PUSH1 0x40 MLOAD PUSH3 0x461BCD PUSH1 0xE5 SHL DUP2 MSTORE PUSH1 0x20 PUSH1 0x4 DUP3 ADD MSTORE PUSH1 0x18 PUSH1 0x24 DUP3 ADD MSTORE PUSH32 0x4552433732313A20696E76616C696420746F6B656E2049440000000000000000 PUSH1 0x44 DUP3 ADD MSTORE PUSH1 0x64 SWAP1 REVERT JUMPDEST PUSH1 0x0 SWAP1 DUP2 MSTORE PUSH1 0x2 PUSH1 0x20 MSTORE PUSH1 0x40 SWAP1 KECCAK256 SLOAD PUSH1 0x1 PUSH1 0x1 PUSH1 0xA0 SHL SUB AND PUSH2 0x140A DUP2 ISZERO ISZERO PUSH2 0x139B JUMP JUMPDEST SWAP1 JUMP JUMPDEST SWAP1 PUSH1 0x1 DUP3 DUP2 SHR SWAP3 AND DUP1 ISZERO PUSH2 0x143D JUMPI JUMPDEST PUSH1 0x20 DUP4 LT EQ PUSH2 0x1427 JUMPI JUMP JUMPDEST PUSH4 0x4E487B71 PUSH1 0xE0 SHL PUSH1 0x0 MSTORE PUSH1 0x22 PUSH1 0x4 MSTORE PUSH1 0x24 PUSH1 0x0 REVERT JUMPDEST SWAP2 PUSH1 0x7F AND SWAP2 PUSH2 0x141C JUMP JUMPDEST PUSH1 0x0 DUP2 DUP2 MSTORE PUSH1 0x2 PUSH1 0x20 MSTORE PUSH1 0x40 SWAP1 KECCAK256 SLOAD PUSH2 0x146A SWAP1 PUSH1 0x1 PUSH1 0x1 PUSH1 0xA0 SHL SUB AND ISZERO ISZERO PUSH2 0x139B JUMP JUMPDEST PUSH1 0x0 SWAP1 DUP2 MSTORE PUSH1 0x4 PUSH1 0x20 MSTORE PUSH1 0x40 SWAP1 KECCAK256 SLOAD PUSH1 0x1 PUSH1 0x1 PUSH1 0xA0 SHL SUB AND SWAP1 JUMP JUMPDEST ISZERO PUSH2 0x148C JUMPI JUMP JUMPDEST PUSH1 0x40 MLOAD PUSH3 0x461BCD PUSH1 0xE5 SHL DUP2 MSTORE PUSH1 0x20 PUSH1 0x4 DUP3 ADD MSTORE PUSH1 0x2D PUSH1 0x24 DUP3 ADD MSTORE PUSH32 0x4552433732313A2063616C6C6572206973206E6F7420746F6B656E206F776E65 PUSH1 0x44 DUP3 ADD MSTORE PUSH13 0x1C881BDC88185C1C1C9BDD9959 PUSH1 0x9A SHL PUSH1 0x64 DUP3 ADD MSTORE PUSH1 0x84 SWAP1 REVERT JUMPDEST PUSH1 0x80 SWAP1 PUSH1 0x20 DUP2 MSTORE PUSH1 0x32 PUSH1 0x20 DUP3 ADD MSTORE PUSH32 0x4552433732313A207472616E7366657220746F206E6F6E204552433732315265 PUSH1 0x40 DUP3 ADD MSTORE PUSH18 0x31B2B4BB32B91034B6B83632B6B2B73A32B9 PUSH1 0x71 SHL PUSH1 0x60 DUP3 ADD MSTORE ADD SWAP1 JUMP JUMPDEST ISZERO PUSH2 0x1541 JUMPI JUMP JUMPDEST PUSH1 0x40 MLOAD PUSH3 0x461BCD PUSH1 0xE5 SHL DUP2 MSTORE DUP1 PUSH2 0x155A PUSH1 0x4 DUP3 ADD PUSH2 0x14E7 JUMP JUMPDEST SUB SWAP1 REVERT JUMPDEST SWAP1 PUSH1 0x1 PUSH1 0x1 PUSH1 0xA0 SHL SUB DUP1 DUP1 PUSH2 0x1572 DUP5 PUSH2 0x13E7 JUMP JUMPDEST AND SWAP4 AND SWAP2 DUP4 DUP4 EQ SWAP4 DUP5 ISZERO PUSH2 0x15A5 JUMPI JUMPDEST POP DUP4 ISZERO PUSH2 0x158F JUMPI JUMPDEST POP POP POP SWAP1 JUMP JUMPDEST PUSH2 0x159B SWAP2 SWAP3 SWAP4 POP PUSH2 0x1447 JUMP JUMPDEST AND EQ CODESIZE DUP1 DUP1 PUSH2 0x1589 JUMP JUMPDEST SWAP1 SWAP4 POP PUSH1 0x0 MSTORE PUSH1 0x5 PUSH1 0x20 MSTORE PUSH1 0x40 PUSH1 0x0 KECCAK256 DUP3 PUSH1 0x0 MSTORE PUSH1 0x20 MSTORE PUSH1 0xFF PUSH1 0x40 PUSH1 0x0 KECCAK256 SLOAD AND SWAP3 CODESIZE PUSH2 0x1581 JUMP JUMPDEST ISZERO PUSH2 0x15D3 JUMPI JUMP JUMPDEST PUSH1 0x40 MLOAD PUSH3 0x461BCD PUSH1 0xE5 SHL DUP2 MSTORE PUSH1 0x20 PUSH1 0x4 DUP3 ADD MSTORE PUSH1 0x25 PUSH1 0x24 DUP3 ADD MSTORE PUSH32 0x4552433732313A207472616E736665722066726F6D20696E636F727265637420 PUSH1 0x44 DUP3 ADD MSTORE PUSH5 0x37BBB732B9 PUSH1 0xD9 SHL PUSH1 0x64 DUP3 ADD MSTORE PUSH1 0x84 SWAP1 REVERT JUMPDEST SWAP1 PUSH2 0x164E SWAP2 PUSH2 0x1634 DUP5 PUSH2 0x13E7 JUMP JUMPDEST PUSH1 0x1 PUSH1 0x1 PUSH1 0xA0 SHL SUB SWAP4 SWAP2 DUP5 AND SWAP3 DUP5 SWAP3 SWAP1 SWAP2 DUP4 AND DUP5 EQ PUSH2 0x15CC JUMP JUMPDEST AND SWAP2 DUP3 ISZERO PUSH2 0x16E6 JUMPI DUP2 PUSH2 0x166B SWAP2 PUSH2 0x1664 DUP7 PUSH2 0x13E7 JUMP JUMPDEST AND EQ PUSH2 0x15CC JUMP JUMPDEST PUSH32 0xDDF252AD1BE2C89B69C2B068FC378DAA952BA7F163C4A11628F55A4DF523B3EF PUSH1 0x0 DUP5 DUP2 MSTORE PUSH1 0x4 PUSH1 0x20 MSTORE PUSH1 0x40 DUP2 KECCAK256 PUSH1 0x1 PUSH1 0x1 PUSH1 0x60 SHL SUB PUSH1 0xA0 SHL SWAP1 DUP2 DUP2 SLOAD AND SWAP1 SSTORE DUP4 DUP3 MSTORE PUSH1 0x3 PUSH1 0x20 MSTORE PUSH1 0x40 DUP3 KECCAK256 PUSH1 0x0 NOT DUP2 SLOAD ADD SWAP1 SSTORE DUP5 DUP3 MSTORE PUSH1 0x40 DUP3 KECCAK256 PUSH1 0x1 DUP2 SLOAD ADD SWAP1 SSTORE DUP6 DUP3 MSTORE PUSH1 0x2 PUSH1 0x20 MSTORE DUP5 PUSH1 0x40 DUP4 KECCAK256 SWAP2 DUP3 SLOAD AND OR SWAP1 SSTORE DUP1 LOG4 JUMP JUMPDEST PUSH1 0x40 MLOAD PUSH3 0x461BCD PUSH1 0xE5 SHL DUP2 MSTORE PUSH1 0x20 PUSH1 0x4 DUP3 ADD MSTORE PUSH1 0x24 DUP1 DUP3 ADD MSTORE PUSH32 0x4552433732313A207472616E7366657220746F20746865207A65726F20616464 PUSH1 0x44 DUP3 ADD MSTORE PUSH4 0x72657373 PUSH1 0xE0 SHL PUSH1 0x64 DUP3 ADD MSTORE PUSH1 0x84 SWAP1 REVERT JUMPDEST SWAP3 SWAP1 DUP4 EXTCODESIZE ISZERO PUSH2 0x1851 JUMPI PUSH2 0x1795 SWAP4 PUSH2 0x174C PUSH2 0x1ACC JUMP JUMPDEST SWAP4 PUSH1 0x40 MLOAD DUP1 SWAP3 DUP2 PUSH4 0xA85BD01 PUSH1 0xE1 SHL SWAP6 DUP7 DUP3 MSTORE PUSH1 0x1 DUP1 PUSH1 0xA0 SHL SUB DUP1 SWAP10 AND PUSH1 0x4 DUP4 ADD MSTORE PUSH1 0x0 SWAP9 DUP10 SWAP2 DUP3 PUSH1 0x24 DUP6 ADD MSTORE PUSH1 0x44 DUP5 ADD MSTORE PUSH1 0x80 PUSH1 0x64 DUP5 ADD MSTORE DUP3 PUSH1 0x20 SWAP12 DUP13 SWAP8 PUSH1 0x84 DUP4 ADD SWAP1 PUSH2 0x11E3 JUMP JUMPDEST SUB SWAP4 AND GAS CALL DUP5 SWAP2 DUP2 PUSH2 0x1811 JUMPI JUMPDEST POP PUSH2 0x1800 JUMPI POP POP POP RETURNDATASIZE PUSH1 0x0 EQ PUSH2 0x17F8 JUMPI RETURNDATASIZE PUSH2 0x17BC DUP2 PUSH2 0x12D1 JUMP JUMPDEST SWAP1 PUSH2 0x17CA PUSH1 0x40 MLOAD SWAP3 DUP4 PUSH2 0x12AF JUMP JUMPDEST DUP2 MSTORE DUP1 SWAP2 DUP4 RETURNDATASIZE SWAP3 ADD RETURNDATACOPY JUMPDEST DUP1 MLOAD SWAP2 DUP3 PUSH2 0x17F5 JUMPI PUSH1 0x40 MLOAD PUSH3 0x461BCD PUSH1 0xE5 SHL DUP2 MSTORE DUP1 PUSH2 0x155A PUSH1 0x4 DUP3 ADD PUSH2 0x14E7 JUMP JUMPDEST ADD REVERT JUMPDEST POP PUSH1 0x60 PUSH2 0x17D4 JUMP JUMPDEST PUSH1 0x1 PUSH1 0x1 PUSH1 0xE0 SHL SUB NOT AND EQ SWAP3 POP SWAP1 POP JUMP JUMPDEST SWAP1 SWAP2 POP DUP6 DUP2 DUP2 RETURNDATASIZE DUP4 GT PUSH2 0x184A JUMPI JUMPDEST PUSH2 0x1829 DUP2 DUP4 PUSH2 0x12AF JUMP JUMPDEST DUP2 ADD SUB SLT PUSH2 0x7A9 JUMPI MLOAD PUSH1 0x1 PUSH1 0x1 PUSH1 0xE0 SHL SUB NOT DUP2 AND DUP2 SUB PUSH2 0x7A9 JUMPI SWAP1 CODESIZE PUSH2 0x17A2 JUMP JUMPDEST POP RETURNDATASIZE PUSH2 0x181F JUMP JUMPDEST POP SWAP2 POP POP PUSH1 0x1 SWAP1 JUMP JUMPDEST SWAP3 SWAP4 SWAP2 SWAP1 DUP1 EXTCODESIZE ISZERO PUSH2 0x18E3 JUMPI PUSH2 0x18B8 SWAP5 PUSH2 0x1871 PUSH2 0x1ACC JUMP JUMPDEST SWAP3 PUSH1 0x40 MLOAD SWAP3 DUP4 SWAP2 PUSH4 0xA85BD01 PUSH1 0xE1 SHL SWAP6 DUP7 DUP5 MSTORE PUSH1 0x1 DUP1 PUSH1 0xA0 SHL SUB SWAP9 DUP10 DUP1 SWAP3 AND PUSH1 0x4 DUP7 ADD MSTORE AND PUSH1 0x24 DUP5 ADD MSTORE PUSH1 0x44 DUP4 ADD MSTORE PUSH1 0x80 PUSH1 0x64 DUP4 ADD MSTORE DUP2 DUP1 PUSH1 0x20 SWAP10 DUP11 SWAP6 PUSH1 0x84 DUP4 ADD SWAP1 PUSH2 0x11E3 JUMP JUMPDEST SUB SWAP2 PUSH1 0x0 SWAP9 DUP10 SWAP2 AND GAS CALL DUP5 SWAP2 DUP2 PUSH2 0x1811 JUMPI POP PUSH2 0x1800 JUMPI POP POP POP RETURNDATASIZE PUSH1 0x0 EQ PUSH2 0x17F8 JUMPI RETURNDATASIZE PUSH2 0x17BC DUP2 PUSH2 0x12D1 JUMP JUMPDEST POP POP SWAP2 POP POP PUSH1 0x1 SWAP1 JUMP JUMPDEST ISZERO PUSH2 0x18F4 JUMPI JUMP JUMPDEST PUSH1 0x40 MLOAD PUSH3 0x461BCD PUSH1 0xE5 SHL DUP2 MSTORE PUSH1 0x20 PUSH1 0x4 DUP3 ADD MSTORE PUSH1 0x22 PUSH1 0x24 DUP3 ADD MSTORE PUSH32 0x4170706C79506173733A2063616C6C6572206973206E6F7420746865206F776E PUSH1 0x44 DUP3 ADD MSTORE PUSH2 0x32B9 PUSH1 0xF1 SHL PUSH1 0x64 DUP3 ADD MSTORE PUSH1 0x84 SWAP1 REVERT JUMPDEST PUSH1 0x0 NOT DUP2 EQ PUSH2 0x1953 JUMPI PUSH1 0x1 ADD SWAP1 JUMP JUMPDEST PUSH4 0x4E487B71 PUSH1 0xE0 SHL PUSH1 0x0 MSTORE PUSH1 0x11 PUSH1 0x4 MSTORE PUSH1 0x24 PUSH1 0x0 REVERT JUMPDEST PUSH1 0x40 MLOAD PUSH2 0x1975 DUP2 PUSH2 0x127D JUMP JUMPDEST PUSH1 0x0 DUP1 DUP3 MSTORE SWAP3 PUSH1 0x1 PUSH1 0x1 PUSH1 0xA0 SHL SUB DUP4 AND SWAP3 DUP4 ISZERO PUSH2 0x1A3C JUMPI DUP2 PUSH2 0x6C8 SWAP5 PUSH2 0x1A3A SWAP7 PUSH2 0x19BD PUSH2 0x19B7 DUP5 PUSH1 0x0 MSTORE PUSH1 0x2 PUSH1 0x20 MSTORE PUSH1 0x1 DUP1 PUSH1 0xA0 SHL SUB PUSH1 0x40 PUSH1 0x0 KECCAK256 SLOAD AND ISZERO ISZERO SWAP1 JUMP JUMPDEST ISZERO PUSH2 0x1A80 JUMP JUMPDEST PUSH1 0x0 DUP4 DUP2 MSTORE PUSH1 0x2 PUSH1 0x20 MSTORE PUSH1 0x40 SWAP1 KECCAK256 SLOAD PUSH2 0x19E0 SWAP1 PUSH1 0x1 PUSH1 0x1 PUSH1 0xA0 SHL SUB AND ISZERO ISZERO PUSH2 0x19B7 JUMP JUMPDEST DUP2 DUP2 MSTORE PUSH1 0x3 PUSH1 0x20 MSTORE PUSH1 0x40 DUP2 KECCAK256 PUSH1 0x1 DUP2 SLOAD ADD SWAP1 SSTORE DUP3 DUP2 MSTORE PUSH1 0x2 PUSH1 0x20 MSTORE PUSH1 0x40 DUP2 KECCAK256 DUP3 PUSH1 0x1 PUSH1 0x1 PUSH1 0x60 SHL SUB PUSH1 0xA0 SHL DUP3 SLOAD AND OR SWAP1 SSTORE PUSH32 0xDDF252AD1BE2C89B69C2B068FC378DAA952BA7F163C4A11628F55A4DF523B3EF DUP2 DUP1 LOG4 PUSH2 0x1737 JUMP JUMPDEST JUMP JUMPDEST PUSH1 0x64 PUSH1 0x40 MLOAD PUSH3 0x461BCD PUSH1 0xE5 SHL DUP2 MSTORE PUSH1 0x20 PUSH1 0x4 DUP3 ADD MSTORE PUSH1 0x20 PUSH1 0x24 DUP3 ADD MSTORE PUSH32 0x4552433732313A206D696E7420746F20746865207A65726F2061646472657373 PUSH1 0x44 DUP3 ADD MSTORE REVERT JUMPDEST ISZERO PUSH2 0x1A87 JUMPI JUMP JUMPDEST PUSH1 0x40 MLOAD PUSH3 0x461BCD PUSH1 0xE5 SHL DUP2 MSTORE PUSH1 0x20 PUSH1 0x4 DUP3 ADD MSTORE PUSH1 0x1C PUSH1 0x24 DUP3 ADD MSTORE PUSH32 0x4552433732313A20746F6B656E20616C7265616479206D696E74656400000000 PUSH1 0x44 DUP3 ADD MSTORE PUSH1 0x64 SWAP1 REVERT JUMPDEST PUSH1 0x9 SLOAD CALLER PUSH1 0x1 PUSH1 0x1 PUSH1 0xA0 SHL SUB SWAP1 SWAP2 AND SUB PUSH2 0x1AEC JUMPI CALLDATASIZE PUSH1 0x13 NOT ADD CALLDATALOAD PUSH1 0x60 SHR SWAP1 JUMP JUMPDEST CALLER SWAP1 JUMP INVALID LOG2 PUSH5 0x6970667358 0x22 SLT KECCAK256 ADDMOD PUSH15 0x70DF6135954CE02B1E16B35C453913 0xAC PUSH4 0x9DC9E256 0xD3 DUP5 0xCE SMOD 0x4B 0xB9 0xB4 0xEE SELFDESTRUCT PUSH5 0x736F6C6343 STOP ADDMOD EQ STOP CALLER "},"methodIdentifiers":{"adminMint(address)":"9769dc0e","approve(address,uint256)":"095ea7b3","balanceOf(address)":"70a08231","freeMint()":"5b70ea9f","getApproved(uint256)":"081812fc","getTrustedForwarder()":"ce1b815f","hasMinted(address)":"38e21cce","isApprovedForAll(address,address)":"e985e9c5","isGateHolder(address)":"fa9f3f27","isTrustedForwarder(address)":"572b6c05","name()":"06fdde03","owner()":"8da5cb5b","ownerOf(uint256)":"6352211e","paused()":"5c975abb","publicMintOpen()":"bcc9ca5b","safeTransferFrom(address,address,uint256)":"42842e0e","safeTransferFrom(address,address,uint256,bytes)":"b88d4fde","setApprovalForAll(address,bool)":"a22cb465","setBaseURI(string)":"55f804b3","setPaused(bool)":"16c38b3c","setPublicMintOpen(bool)":"6387f804","setTrustedForwarder(address)":"da742228","supportsInterface(bytes4)":"01ffc9a7","symbol()":"95d89b41","tokenURI(uint256)":"c87b56dd","totalSupply()":"18160ddd","transferFrom(address,address,uint256)":"23b872dd","transferOwnership(address)":"f2fde38b"}}}}}