{
  "abi": [
    {
      "inputs": [
        {
          "internalType": "address",
          "name": "_defaultAdmin",
          "type": "address"
        },
        {
          "internalType": "string",
          "name": "_name",
          "type": "string"
        },
        {
          "internalType": "string",
          "name": "_symbol",
          "type": "string"
        }
      ],
      "stateMutability": "nonpayable",
      "type": "constructor"
    },
    {
      "inputs": [],
      "name": "ContractMetadataUnauthorized",
      "type": "error"
    },
    {
      "inputs": [],
      "name": "OwnableUnauthorized",
      "type": "error"
    },
    {
      "anonymous": false,
      "inputs": [
        {
          "indexed": true,
          "internalType": "address",
          "name": "owner",
          "type": "address"
        },
        {
          "indexed": true,
          "internalType": "address",
          "name": "spender",
          "type": "address"
        },
        {
          "indexed": false,
          "internalType": "uint256",
          "name": "value",
          "type": "uint256"
        }
      ],
      "name": "Approval",
      "type": "event"
    },
    {
      "anonymous": false,
      "inputs": [
        {
          "indexed": false,
          "internalType": "string",
          "name": "prevURI",
          "type": "string"
        },
        {
          "indexed": false,
          "internalType": "string",
          "name": "newURI",
          "type": "string"
        }
      ],
      "name": "ContractURIUpdated",
      "type": "event"
    },
    {
      "anonymous": false,
      "inputs": [
        {
          "indexed": true,
          "internalType": "address",
          "name": "prevOwner",
          "type": "address"
        },
        {
          "indexed": true,
          "internalType": "address",
          "name": "newOwner",
          "type": "address"
        }
      ],
      "name": "OwnerUpdated",
      "type": "event"
    },
    {
      "anonymous": false,
      "inputs": [
        {
          "indexed": true,
          "internalType": "address",
          "name": "mintedTo",
          "type": "address"
        },
        {
          "indexed": false,
          "internalType": "uint256",
          "name": "quantityMinted",
          "type": "uint256"
        }
      ],
      "name": "TokensMinted",
      "type": "event"
    },
    {
      "anonymous": false,
      "inputs": [
        {
          "indexed": true,
          "internalType": "address",
          "name": "from",
          "type": "address"
        },
        {
          "indexed": true,
          "internalType": "address",
          "name": "to",
          "type": "address"
        },
        {
          "indexed": false,
          "internalType": "uint256",
          "name": "value",
          "type": "uint256"
        }
      ],
      "name": "Transfer",
      "type": "event"
    },
    {
      "inputs": [],
      "name": "DOMAIN_SEPARATOR",
      "outputs": [
        {
          "internalType": "bytes32",
          "name": "",
          "type": "bytes32"
        }
      ],
      "stateMutability": "view",
      "type": "function"
    },
    {
      "inputs": [
        {
          "internalType": "address",
          "name": "owner",
          "type": "address"
        },
        {
          "internalType": "address",
          "name": "spender",
          "type": "address"
        }
      ],
      "name": "allowance",
      "outputs": [
        {
          "internalType": "uint256",
          "name": "",
          "type": "uint256"
        }
      ],
      "stateMutability": "view",
      "type": "function"
    },
    {
      "inputs": [
        {
          "internalType": "address",
          "name": "spender",
          "type": "address"
        },
        {
          "internalType": "uint256",
          "name": "amount",
          "type": "uint256"
        }
      ],
      "name": "approve",
      "outputs": [
        {
          "internalType": "bool",
          "name": "",
          "type": "bool"
        }
      ],
      "stateMutability": "nonpayable",
      "type": "function"
    },
    {
      "inputs": [
        {
          "internalType": "address",
          "name": "account",
          "type": "address"
        }
      ],
      "name": "balanceOf",
      "outputs": [
        {
          "internalType": "uint256",
          "name": "",
          "type": "uint256"
        }
      ],
      "stateMutability": "view",
      "type": "function"
    },
    {
      "inputs": [
        {
          "internalType": "uint256",
          "name": "_amount",
          "type": "uint256"
        }
      ],
      "name": "burn",
      "outputs": [],
      "stateMutability": "nonpayable",
      "type": "function"
    },
    {
      "inputs": [
        {
          "internalType": "address",
          "name": "_account",
          "type": "address"
        },
        {
          "internalType": "uint256",
          "name": "_amount",
          "type": "uint256"
        }
      ],
      "name": "burnFrom",
      "outputs": [],
      "stateMutability": "nonpayable",
      "type": "function"
    },
    {
      "inputs": [],
      "name": "contractURI",
      "outputs": [
        {
          "internalType": "string",
          "name": "",
          "type": "string"
        }
      ],
      "stateMutability": "view",
      "type": "function"
    },
    {
      "inputs": [],
      "name": "decimals",
      "outputs": [
        {
          "internalType": "uint8",
          "name": "",
          "type": "uint8"
        }
      ],
      "stateMutability": "view",
      "type": "function"
    },
    {
      "inputs": [
        {
          "internalType": "address",
          "name": "spender",
          "type": "address"
        },
        {
          "internalType": "uint256",
          "name": "subtractedValue",
          "type": "uint256"
        }
      ],
      "name": "decreaseAllowance",
      "outputs": [
        {
          "internalType": "bool",
          "name": "",
          "type": "bool"
        }
      ],
      "stateMutability": "nonpayable",
      "type": "function"
    },
    {
      "inputs": [
        {
          "internalType": "address",
          "name": "spender",
          "type": "address"
        },
        {
          "internalType": "uint256",
          "name": "addedValue",
          "type": "uint256"
        }
      ],
      "name": "increaseAllowance",
      "outputs": [
        {
          "internalType": "bool",
          "name": "",
          "type": "bool"
        }
      ],
      "stateMutability": "nonpayable",
      "type": "function"
    },
    {
      "inputs": [
        {
          "internalType": "address",
          "name": "_to",
          "type": "address"
        },
        {
          "internalType": "uint256",
          "name": "_amount",
          "type": "uint256"
        }
      ],
      "name": "mintTo",
      "outputs": [],
      "stateMutability": "nonpayable",
      "type": "function"
    },
    {
      "inputs": [
        {
          "internalType": "bytes[]",
          "name": "data",
          "type": "bytes[]"
        }
      ],
      "name": "multicall",
      "outputs": [
        {
          "internalType": "bytes[]",
          "name": "results",
          "type": "bytes[]"
        }
      ],
      "stateMutability": "nonpayable",
      "type": "function"
    },
    {
      "inputs": [],
      "name": "name",
      "outputs": [
        {
          "internalType": "string",
          "name": "",
          "type": "string"
        }
      ],
      "stateMutability": "view",
      "type": "function"
    },
    {
      "inputs": [
        {
          "internalType": "address",
          "name": "owner",
          "type": "address"
        }
      ],
      "name": "nonces",
      "outputs": [
        {
          "internalType": "uint256",
          "name": "",
          "type": "uint256"
        }
      ],
      "stateMutability": "view",
      "type": "function"
    },
    {
      "inputs": [],
      "name": "owner",
      "outputs": [
        {
          "internalType": "address",
          "name": "",
          "type": "address"
        }
      ],
      "stateMutability": "view",
      "type": "function"
    },
    {
      "inputs": [
        {
          "internalType": "address",
          "name": "owner",
          "type": "address"
        },
        {
          "internalType": "address",
          "name": "spender",
          "type": "address"
        },
        {
          "internalType": "uint256",
          "name": "value",
          "type": "uint256"
        },
        {
          "internalType": "uint256",
          "name": "deadline",
          "type": "uint256"
        },
        {
          "internalType": "uint8",
          "name": "v",
          "type": "uint8"
        },
        {
          "internalType": "bytes32",
          "name": "r",
          "type": "bytes32"
        },
        {
          "internalType": "bytes32",
          "name": "s",
          "type": "bytes32"
        }
      ],
      "name": "permit",
      "outputs": [],
      "stateMutability": "nonpayable",
      "type": "function"
    },
    {
      "inputs": [
        {
          "internalType": "string",
          "name": "_uri",
          "type": "string"
        }
      ],
      "name": "setContractURI",
      "outputs": [],
      "stateMutability": "nonpayable",
      "type": "function"
    },
    {
      "inputs": [
        {
          "internalType": "address",
          "name": "_newOwner",
          "type": "address"
        }
      ],
      "name": "setOwner",
      "outputs": [],
      "stateMutability": "nonpayable",
      "type": "function"
    },
    {
      "inputs": [],
      "name": "symbol",
      "outputs": [
        {
          "internalType": "string",
          "name": "",
          "type": "string"
        }
      ],
      "stateMutability": "view",
      "type": "function"
    },
    {
      "inputs": [],
      "name": "totalSupply",
      "outputs": [
        {
          "internalType": "uint256",
          "name": "",
          "type": "uint256"
        }
      ],
      "stateMutability": "view",
      "type": "function"
    },
    {
      "inputs": [
        {
          "internalType": "address",
          "name": "to",
          "type": "address"
        },
        {
          "internalType": "uint256",
          "name": "amount",
          "type": "uint256"
        }
      ],
      "name": "transfer",
      "outputs": [
        {
          "internalType": "bool",
          "name": "",
          "type": "bool"
        }
      ],
      "stateMutability": "nonpayable",
      "type": "function"
    },
    {
      "inputs": [
        {
          "internalType": "address",
          "name": "from",
          "type": "address"
        },
        {
          "internalType": "address",
          "name": "to",
          "type": "address"
        },
        {
          "internalType": "uint256",
          "name": "amount",
          "type": "uint256"
        }
      ],
      "name": "transferFrom",
      "outputs": [
        {
          "internalType": "bool",
          "name": "",
          "type": "bool"
        }
      ],
      "stateMutability": "nonpayable",
      "type": "function"
    }
  ],
  "devdoc": {
    "errors": {
      "ContractMetadataUnauthorized()": [
        {
          "details": "The sender is not authorized to perform the action"
        }
      ],
      "OwnableUnauthorized()": [
        {
          "details": "The sender is not authorized to perform the action"
        }
      ]
    },
    "events": {
      "ContractURIUpdated(string,string)": {
        "details": "Emitted when the contract URI is updated."
      },
      "OwnerUpdated(address,address)": {
        "details": "Emitted when a new Owner is set."
      },
      "TokensMinted(address,uint256)": {
        "details": "Emitted when tokens are minted with `mintTo`"
      }
    },
    "kind": "dev",
    "methods": {
      "DOMAIN_SEPARATOR()": {
        "details": "See {IERC20Permit-DOMAIN_SEPARATOR}."
      },
      "allowance(address,address)": {
        "details": "See {IERC20-allowance}."
      },
      "approve(address,uint256)": {
        "details": "See {IERC20-approve}. NOTE: If `amount` is the maximum `uint256`, the allowance is not updated on `transferFrom`. This is semantically equivalent to an infinite approval. Requirements: - `spender` cannot be the zero address."
      },
      "balanceOf(address)": {
        "details": "See {IERC20-balanceOf}."
      },
      "burn(uint256)": {
        "details": "Caller should own the `_amount` of tokens.",
        "params": {
          "_amount": "The number of tokens to burn."
        }
      },
      "burnFrom(address,uint256)": {
        "details": "`_account` should own the `_amount` of tokens.",
        "params": {
          "_account": "The account to burn tokens from.",
          "_amount": "The number of tokens to burn."
        }
      },
      "decimals()": {
        "details": "Returns the number of decimals used to get its user representation. For example, if `decimals` equals `2`, a balance of `505` tokens should be displayed to a user as `5.05` (`505 / 10 ** 2`). Tokens usually opt for a value of 18, imitating the relationship between Ether and Wei. This is the value {ERC20} uses, unless this function is overridden; NOTE: This information is only used for _display_ purposes: it in no way affects any of the arithmetic of the contract, including {IERC20-balanceOf} and {IERC20-transfer}."
      },
      "decreaseAllowance(address,uint256)": {
        "details": "Atomically decreases the allowance granted to `spender` by the caller. This is an alternative to {approve} that can be used as a mitigation for problems described in {IERC20-approve}. Emits an {Approval} event indicating the updated allowance. Requirements: - `spender` cannot be the zero address. - `spender` must have allowance for the caller of at least `subtractedValue`."
      },
      "increaseAllowance(address,uint256)": {
        "details": "Atomically increases the allowance granted to `spender` by the caller. This is an alternative to {approve} that can be used as a mitigation for problems described in {IERC20-approve}. Emits an {Approval} event indicating the updated allowance. Requirements: - `spender` cannot be the zero address."
      },
      "mintTo(address,uint256)": {
        "details": "The logic in the `_canMint` function determines whether the caller is authorized to mint tokens.",
        "params": {
          "_amount": "Quantity of tokens to mint.",
          "_to": "The recipient of the tokens to mint."
        }
      },
      "multicall(bytes[])": {
        "details": "Receives and executes a batch of function calls on this contract.",
        "params": {
          "data": "The bytes data that makes up the batch of function calls to execute."
        },
        "returns": {
          "results": "The bytes data that makes up the result of the batch of function calls executed."
        }
      },
      "name()": {
        "details": "Returns the name of the token."
      },
      "nonces(address)": {
        "details": "See {IERC20Permit-nonces}."
      },
      "permit(address,address,uint256,uint256,uint8,bytes32,bytes32)": {
        "details": "See {IERC20Permit-permit}."
      },
      "setContractURI(string)": {
        "details": "Caller should be authorized to setup contractURI, e.g. contract admin.                  See {_canSetContractURI}.                  Emits {ContractURIUpdated Event}.",
        "params": {
          "_uri": "keccak256 hash of the role. e.g. keccak256(\"TRANSFER_ROLE\")"
        }
      },
      "setOwner(address)": {
        "params": {
          "_newOwner": "The address to set as the new owner of the contract."
        }
      },
      "symbol()": {
        "details": "Returns the symbol of the token, usually a shorter version of the name."
      },
      "totalSupply()": {
        "details": "See {IERC20-totalSupply}."
      },
      "transfer(address,uint256)": {
        "details": "See {IERC20-transfer}. Requirements: - `to` cannot be the zero address. - the caller must have a balance of at least `amount`."
      },
      "transferFrom(address,address,uint256)": {
        "details": "See {IERC20-transferFrom}. Emits an {Approval} event indicating the updated allowance. This is not required by the EIP. See the note at the beginning of {ERC20}. NOTE: Does not update the allowance if the current allowance is the maximum `uint256`. Requirements: - `from` and `to` cannot be the zero address. - `from` must have a balance of at least `amount`. - the caller must have allowance for ``from``'s tokens of at least `amount`."
      }
    },
    "version": 1
  },
  "evm": {
    "assembly": "    /* \"PBOXToken.sol\":201:563  contract PBOXToken is ERC20Base {... */\n  mstore(0x40, 0x0100)\n    /* \"@thirdweb-dev/contracts/external-deps/openzeppelin/token/ERC20/extensions/ERC20Permit.sol\":1443:1538   */\n  0x6e71edae12b1b97f4d1f60370fef10105fa2faae0126114a169c64845d6126c9\n    /* \"@thirdweb-dev/contracts/external-deps/openzeppelin/token/ERC20/extensions/ERC20Permit.sol\":1390:1538   */\n  0xe0\n  mstore\n    /* \"PBOXToken.sol\":240:561  constructor(... */\n  callvalue\n  dup1\n  iszero\n  tag_1\n  jumpi\n  0x00\n  dup1\n  revert\ntag_1:\n  pop\n  mload(0x40)\n  sub(codesize, bytecodeSize)\n  dup1\n  bytecodeSize\n  dup4\n  codecopy\n  dup2\n  add\n  0x40\n  dup2\n  swap1\n  mstore\n  tag_2\n  swap2\n  tag_3\n  jump\t// in\ntag_2:\n    /* \"PBOXToken.sol\":367:380  _defaultAdmin */\n  dup3\n    /* \"PBOXToken.sol\":382:387  _name */\n  dup3\n    /* \"PBOXToken.sol\":389:396  _symbol */\n  dup3\n    /* \"PBOXToken.sol\":382:387  _name */\n  dup2\n    /* \"PBOXToken.sol\":389:396  _symbol */\n  dup2\n    /* \"PBOXToken.sol\":382:387  _name */\n  dup2\n    /* \"PBOXToken.sol\":389:396  _symbol */\n  dup2\n    /* \"@thirdweb-dev/contracts/external-deps/openzeppelin/token/ERC20/ERC20.sol\":2081:2086   */\n  0x05\n    /* \"@thirdweb-dev/contracts/external-deps/openzeppelin/token/ERC20/ERC20.sol\":2081:2094   */\n  tag_9\n    /* \"PBOXToken.sol\":382:387  _name */\n  dup4\n    /* \"@thirdweb-dev/contracts/external-deps/openzeppelin/token/ERC20/ERC20.sol\":2081:2086   */\n  dup3\n    /* \"@thirdweb-dev/contracts/external-deps/openzeppelin/token/ERC20/ERC20.sol\":2081:2094   */\n  tag_10\n  jump\t// in\ntag_9:\n  pop\n    /* \"@thirdweb-dev/contracts/external-deps/openzeppelin/token/ERC20/ERC20.sol\":2104:2111   */\n  0x06\n    /* \"@thirdweb-dev/contracts/external-deps/openzeppelin/token/ERC20/ERC20.sol\":2104:2121   */\n  tag_11\n    /* \"@thirdweb-dev/contracts/external-deps/openzeppelin/token/ERC20/ERC20.sol\":2114:2121   */\n  dup3\n    /* \"@thirdweb-dev/contracts/external-deps/openzeppelin/token/ERC20/ERC20.sol\":2104:2111   */\n  dup3\n    /* \"@thirdweb-dev/contracts/external-deps/openzeppelin/token/ERC20/ERC20.sol\":2104:2121   */\n  tag_10\n  jump\t// in\ntag_11:\n  pop\n  pop\n    /* \"@thirdweb-dev/contracts/external-deps/openzeppelin/token/ERC20/extensions/ERC20Permit.sol\":1877:1890   */\n  chainid\n    /* \"@thirdweb-dev/contracts/external-deps/openzeppelin/token/ERC20/extensions/ERC20Permit.sol\":1858:1890   */\n  0xa0\n  mstore\n  pop\n    /* \"@thirdweb-dev/contracts/external-deps/openzeppelin/token/ERC20/extensions/ERC20Permit.sol\":1923:1927   */\n  address\n    /* \"@thirdweb-dev/contracts/external-deps/openzeppelin/token/ERC20/extensions/ERC20Permit.sol\":1900:1928   */\n  0xc0\n  mstore\n    /* \"@thirdweb-dev/contracts/external-deps/openzeppelin/token/ERC20/extensions/ERC20Permit.sol\":1965:1988   */\n  tag_13\n    /* \"@thirdweb-dev/contracts/external-deps/openzeppelin/token/ERC20/extensions/ERC20Permit.sol\":1965:1986   */\n  tag_14\n    /* \"@thirdweb-dev/contracts/external-deps/openzeppelin/token/ERC20/extensions/ERC20Permit.sol\":1965:1988   */\n  jump\t// in\ntag_13:\n    /* \"@thirdweb-dev/contracts/external-deps/openzeppelin/token/ERC20/extensions/ERC20Permit.sol\":1938:1988   */\n  0x80\n  mstore\n  pop\n    /* \"@thirdweb-dev/contracts/base/ERC20Base.sol\":1429:1455   */\n  tag_16\n  swap1\n  pop\n    /* \"@thirdweb-dev/contracts/base/ERC20Base.sol\":1441:1454   */\n  dup4\n    /* \"@thirdweb-dev/contracts/base/ERC20Base.sol\":1429:1440   */\n  tag_17\n    /* \"@thirdweb-dev/contracts/base/ERC20Base.sol\":1429:1455   */\n  jump\t// in\ntag_16:\n    /* \"@thirdweb-dev/contracts/base/ERC20Base.sol\":1312:1462   */\n  pop\n  pop\n  pop\n    /* \"PBOXToken.sol\":510:554  _mint(_defaultAdmin, 1_000_000_000 * 10**18) */\n  tag_19\n    /* \"PBOXToken.sol\":516:529  _defaultAdmin */\n  dup4\n    /* \"PBOXToken.sol\":531:553  1_000_000_000 * 10**18 */\n  0x033b2e3c9fd0803ce8000000\n    /* \"PBOXToken.sol\":510:515  _mint */\n  shl(0x20, tag_20)\n    /* \"PBOXToken.sol\":510:554  _mint(_defaultAdmin, 1_000_000_000 * 10**18) */\n  0x20\n  shr\n  jump\t// in\ntag_19:\n    /* \"PBOXToken.sol\":240:561  constructor(... */\n  pop\n  pop\n  pop\n    /* \"PBOXToken.sol\":201:563  contract PBOXToken is ERC20Base {... */\n  jump(tag_55)\n    /* \"@thirdweb-dev/contracts/external-deps/openzeppelin/token/ERC20/extensions/ERC20Permit.sol\":3296:3734   */\ntag_14:\n    /* \"@thirdweb-dev/contracts/external-deps/openzeppelin/token/ERC20/extensions/ERC20Permit.sol\":3351:3358   */\n  0x00\n    /* \"@thirdweb-dev/contracts/external-deps/openzeppelin/token/ERC20/extensions/ERC20Permit.sol\":3448:3543   */\n  0x8b73c3c69bb8fe3d512ecc4cf759cc79239f7b179b0ffacaa9a75d522b39400f\n    /* \"@thirdweb-dev/contracts/external-deps/openzeppelin/token/ERC20/extensions/ERC20Permit.sol\":3581:3587   */\n  tag_23\n    /* \"@thirdweb-dev/contracts/external-deps/openzeppelin/token/ERC20/extensions/ERC20Permit.sol\":3581:3585   */\n  tag_24\n    /* \"@thirdweb-dev/contracts/external-deps/openzeppelin/token/ERC20/extensions/ERC20Permit.sol\":3581:3587   */\n  jump\t// in\ntag_23:\n    /* \"@thirdweb-dev/contracts/external-deps/openzeppelin/token/ERC20/extensions/ERC20Permit.sol\":3565:3589   */\n  dup1\n  mload\n  0x20\n  swap2\n  dup3\n  add\n  keccak256\n    /* \"@thirdweb-dev/contracts/external-deps/openzeppelin/token/ERC20/extensions/ERC20Permit.sol\":3416:3713   */\n  0x40\n  dup1\n  mload\n  swap3\n  dup4\n  add\n    /* \"#utility.yul\":4415:4440   */\n  swap4\n  swap1\n  swap4\n  mstore\n    /* \"#utility.yul\":4456:4474   */\n  swap2\n  dup2\n  add\n    /* \"#utility.yul\":4449:4483   */\n  swap2\n  swap1\n  swap2\n  mstore\n    /* \"@thirdweb-dev/contracts/external-deps/openzeppelin/token/ERC20/extensions/ERC20Permit.sol\":3611:3625   */\n  0xc89efdaa54c0f20c7adf612882df0950f5a951637e0307cdcb4c672f298b8bc6\n    /* \"#utility.yul\":4499:4517   */\n  0x60\n  dup3\n  add\n    /* \"#utility.yul\":4492:4526   */\n  mstore\n    /* \"@thirdweb-dev/contracts/external-deps/openzeppelin/token/ERC20/extensions/ERC20Permit.sol\":3647:3660   */\n  chainid\n    /* \"#utility.yul\":4542:4560   */\n  0x80\n  dup3\n  add\n    /* \"#utility.yul\":4535:4569   */\n  mstore\n    /* \"@thirdweb-dev/contracts/external-deps/openzeppelin/token/ERC20/extensions/ERC20Permit.sol\":3690:3694   */\n  address\n    /* \"#utility.yul\":4585:4604   */\n  0xa0\n  dup3\n  add\n    /* \"#utility.yul\":4578:4639   */\n  mstore\n    /* \"#utility.yul\":4387:4406   */\n  0xc0\n  add\n    /* \"@thirdweb-dev/contracts/external-deps/openzeppelin/token/ERC20/extensions/ERC20Permit.sol\":3416:3713   */\n  mload(0x40)\n  0x20\n  dup2\n  dup4\n  sub\n  sub\n  dup2\n  mstore\n  swap1\n  0x40\n  mstore\n    /* \"@thirdweb-dev/contracts/external-deps/openzeppelin/token/ERC20/extensions/ERC20Permit.sol\":3389:3727   */\n  dup1\n  mload\n  swap1\n  0x20\n  add\n  keccak256\n    /* \"@thirdweb-dev/contracts/external-deps/openzeppelin/token/ERC20/extensions/ERC20Permit.sol\":3370:3727   */\n  swap1\n  pop\n    /* \"@thirdweb-dev/contracts/external-deps/openzeppelin/token/ERC20/extensions/ERC20Permit.sol\":3296:3734   */\n  swap1\n  jump\t// out\n    /* \"@thirdweb-dev/contracts/extension/Ownable.sol\":1527:1699   */\ntag_17:\n    /* \"@thirdweb-dev/contracts/extension/Ownable.sol\":1607:1613   */\n  0x01\n  dup1\n  sload\n  sub(shl(0xa0, 0x01), 0x01)\n    /* \"@thirdweb-dev/contracts/extension/Ownable.sol\":1623:1641   */\n  dup4\n  dup2\n  and\n  not(sub(shl(0xa0, 0x01), 0x01))\n  dup4\n  and\n  dup2\n  or\n  swap1\n  swap4\n  sstore\n    /* \"@thirdweb-dev/contracts/extension/Ownable.sol\":1657:1692   */\n  mload(0x40)\n    /* \"@thirdweb-dev/contracts/extension/Ownable.sol\":1607:1613   */\n  swap2\n  and\n  swap2\n    /* \"@thirdweb-dev/contracts/extension/Ownable.sol\":1623:1641   */\n  swap1\n    /* \"@thirdweb-dev/contracts/extension/Ownable.sol\":1607:1613   */\n  dup3\n  swap1\n    /* \"@thirdweb-dev/contracts/extension/Ownable.sol\":1657:1692   */\n  0x8292fce18fa69edf4db7b94ea2e58241df0ae57f97e0a6c9b29067028bf92d76\n  swap1\n    /* \"@thirdweb-dev/contracts/extension/Ownable.sol\":1586:1604   */\n  0x00\n  swap1\n    /* \"@thirdweb-dev/contracts/extension/Ownable.sol\":1657:1692   */\n  log3\n    /* \"@thirdweb-dev/contracts/extension/Ownable.sol\":1576:1699   */\n  pop\n    /* \"@thirdweb-dev/contracts/extension/Ownable.sol\":1527:1699   */\n  pop\n  jump\t// out\n    /* \"@thirdweb-dev/contracts/external-deps/openzeppelin/token/ERC20/ERC20.sol\":8392:8781   */\ntag_20:\n  sub(shl(0xa0, 0x01), 0x01)\n    /* \"@thirdweb-dev/contracts/external-deps/openzeppelin/token/ERC20/ERC20.sol\":8475:8496   */\n  dup3\n  and\n    /* \"@thirdweb-dev/contracts/external-deps/openzeppelin/token/ERC20/ERC20.sol\":8467:8532   */\n  tag_29\n  jumpi\n  mload(0x40)\n  shl(0xe5, 0x461bcd)\n  dup2\n  mstore\n    /* \"#utility.yul\":4852:4854   */\n  0x20\n    /* \"@thirdweb-dev/contracts/external-deps/openzeppelin/token/ERC20/ERC20.sol\":8467:8532   */\n  0x04\n  dup3\n  add\n    /* \"#utility.yul\":4834:4855   */\n  mstore\n    /* \"#utility.yul\":4891:4893   */\n  0x1f\n    /* \"#utility.yul\":4871:4889   */\n  0x24\n  dup3\n  add\n    /* \"#utility.yul\":4864:4894   */\n  mstore\n    /* \"#utility.yul\":4930:4963   */\n  0x45524332303a206d696e7420746f20746865207a65726f206164647265737300\n    /* \"#utility.yul\":4910:4928   */\n  0x44\n  dup3\n  add\n    /* \"#utility.yul\":4903:4964   */\n  mstore\n    /* \"#utility.yul\":4981:4999   */\n  0x64\n  add\n    /* \"@thirdweb-dev/contracts/external-deps/openzeppelin/token/ERC20/ERC20.sol\":8467:8532   */\n  mload(0x40)\n  dup1\n  swap2\n  sub\n  swap1\n  revert\ntag_29:\n    /* \"@thirdweb-dev/contracts/external-deps/openzeppelin/token/ERC20/ERC20.sol\":8619:8625   */\n  dup1\n    /* \"@thirdweb-dev/contracts/external-deps/openzeppelin/token/ERC20/ERC20.sol\":8603:8615   */\n  0x04\n  0x00\n    /* \"@thirdweb-dev/contracts/external-deps/openzeppelin/token/ERC20/ERC20.sol\":8603:8625   */\n  dup3\n  dup3\n  sload\n  tag_34\n  swap2\n  swap1\n  tag_35\n  jump\t// in\ntag_34:\n  swap1\n  swap2\n  sstore\n  pop\n  pop\n  sub(shl(0xa0, 0x01), 0x01)\n    /* \"@thirdweb-dev/contracts/external-deps/openzeppelin/token/ERC20/ERC20.sol\":8635:8653   */\n  dup3\n  and\n  0x00\n  swap1\n  dup2\n  mstore\n    /* \"@thirdweb-dev/contracts/external-deps/openzeppelin/token/ERC20/ERC20.sol\":8635:8644   */\n  0x02\n    /* \"@thirdweb-dev/contracts/external-deps/openzeppelin/token/ERC20/ERC20.sol\":8635:8653   */\n  0x20\n  mstore\n  0x40\n  dup2\n  keccak256\n    /* \"@thirdweb-dev/contracts/external-deps/openzeppelin/token/ERC20/ERC20.sol\":8635:8663   */\n  dup1\n  sload\n    /* \"@thirdweb-dev/contracts/external-deps/openzeppelin/token/ERC20/ERC20.sol\":8657:8663   */\n  dup4\n  swap3\n    /* \"@thirdweb-dev/contracts/external-deps/openzeppelin/token/ERC20/ERC20.sol\":8635:8653   */\n  swap1\n    /* \"@thirdweb-dev/contracts/external-deps/openzeppelin/token/ERC20/ERC20.sol\":8635:8663   */\n  tag_36\n  swap1\n    /* \"@thirdweb-dev/contracts/external-deps/openzeppelin/token/ERC20/ERC20.sol\":8657:8663   */\n  dup5\n  swap1\n    /* \"@thirdweb-dev/contracts/external-deps/openzeppelin/token/ERC20/ERC20.sol\":8635:8663   */\n  tag_35\n  jump\t// in\ntag_36:\n  swap1\n  swap2\n  sstore\n  pop\n  pop\n    /* \"@thirdweb-dev/contracts/external-deps/openzeppelin/token/ERC20/ERC20.sol\":8678:8715   */\n  mload(0x40)\n    /* \"#utility.yul\":5383:5408   */\n  dup2\n  dup2\n  mstore\n  sub(shl(0xa0, 0x01), 0x01)\n    /* \"@thirdweb-dev/contracts/external-deps/openzeppelin/token/ERC20/ERC20.sol\":8678:8715   */\n  dup4\n  and\n  swap1\n    /* \"@thirdweb-dev/contracts/external-deps/openzeppelin/token/ERC20/ERC20.sol\":8695:8696   */\n  0x00\n  swap1\n    /* \"@thirdweb-dev/contracts/external-deps/openzeppelin/token/ERC20/ERC20.sol\":8678:8715   */\n  0xddf252ad1be2c89b69c2b068fc378daa952ba7f163c4a11628f55a4df523b3ef\n  swap1\n    /* \"#utility.yul\":5371:5373   */\n  0x20\n    /* \"#utility.yul\":5356:5374   */\n  add\n    /* \"@thirdweb-dev/contracts/external-deps/openzeppelin/token/ERC20/ERC20.sol\":8678:8715   */\n  mload(0x40)\n  dup1\n  swap2\n  sub\n  swap1\n  log3\n    /* \"@thirdweb-dev/contracts/external-deps/openzeppelin/token/ERC20/ERC20.sol\":8392:8781   */\n  pop\n  pop\n  jump\t// out\n    /* \"@thirdweb-dev/contracts/external-deps/openzeppelin/token/ERC20/ERC20.sol\":2193:2291   */\ntag_24:\n    /* \"@thirdweb-dev/contracts/external-deps/openzeppelin/token/ERC20/ERC20.sol\":2247:2260   */\n  0x60\n    /* \"@thirdweb-dev/contracts/external-deps/openzeppelin/token/ERC20/ERC20.sol\":2279:2284   */\n  0x05\n    /* \"@thirdweb-dev/contracts/external-deps/openzeppelin/token/ERC20/ERC20.sol\":2272:2284   */\n  dup1\n  sload\n  tag_42\n  swap1\n  tag_43\n  jump\t// in\ntag_42:\n  dup1\n  0x1f\n  add\n  0x20\n  dup1\n  swap2\n  div\n  mul\n  0x20\n  add\n  mload(0x40)\n  swap1\n  dup2\n  add\n  0x40\n  mstore\n  dup1\n  swap3\n  swap2\n  swap1\n  dup2\n  dup2\n  mstore\n  0x20\n  add\n  dup3\n  dup1\n  sload\n  tag_44\n  swap1\n  tag_43\n  jump\t// in\ntag_44:\n  dup1\n  iszero\n  tag_45\n  jumpi\n  dup1\n  0x1f\n  lt\n  tag_46\n  jumpi\n  0x0100\n  dup1\n  dup4\n  sload\n  div\n  mul\n  dup4\n  mstore\n  swap2\n  0x20\n  add\n  swap2\n  jump(tag_45)\ntag_46:\n  dup3\n  add\n  swap2\n  swap1\n  0x00\n  mstore\n  keccak256(0x00, 0x20)\n  swap1\ntag_47:\n  dup2\n  sload\n  dup2\n  mstore\n  swap1\n  0x01\n  add\n  swap1\n  0x20\n  add\n  dup1\n  dup4\n  gt\n  tag_47\n  jumpi\n  dup3\n  swap1\n  sub\n  0x1f\n  and\n  dup3\n  add\n  swap2\ntag_45:\n  pop\n  pop\n  pop\n  pop\n  pop\n  swap1\n  pop\n    /* \"@thirdweb-dev/contracts/external-deps/openzeppelin/token/ERC20/ERC20.sol\":2193:2291   */\n  swap1\n  jump\t// out\n    /* \"@thirdweb-dev/contracts/external-deps/openzeppelin/token/ERC20/ERC20.sol\":11712:11803   */\ntag_33:\n  pop\n  pop\n  pop\n  jump\t// out\n    /* \"#utility.yul\":14:141   */\ntag_50:\n    /* \"#utility.yul\":75:85   */\n  0x4e487b71\n    /* \"#utility.yul\":70:73   */\n  0xe0\n    /* \"#utility.yul\":66:86   */\n  shl\n    /* \"#utility.yul\":63:64   */\n  0x00\n    /* \"#utility.yul\":56:87   */\n  mstore\n    /* \"#utility.yul\":106:110   */\n  0x41\n    /* \"#utility.yul\":103:104   */\n  0x04\n    /* \"#utility.yul\":96:111   */\n  mstore\n    /* \"#utility.yul\":130:134   */\n  0x24\n    /* \"#utility.yul\":127:128   */\n  0x00\n    /* \"#utility.yul\":120:135   */\n  revert\n    /* \"#utility.yul\":146:862   */\ntag_51:\n    /* \"#utility.yul\":200:205   */\n  0x00\n    /* \"#utility.yul\":253:256   */\n  dup3\n    /* \"#utility.yul\":246:250   */\n  0x1f\n    /* \"#utility.yul\":238:244   */\n  dup4\n    /* \"#utility.yul\":234:251   */\n  add\n    /* \"#utility.yul\":230:257   */\n  slt\n    /* \"#utility.yul\":220:275   */\n  tag_58\n  jumpi\n    /* \"#utility.yul\":271:272   */\n  0x00\n    /* \"#utility.yul\":268:269   */\n  dup1\n    /* \"#utility.yul\":261:273   */\n  revert\n    /* \"#utility.yul\":220:275   */\ntag_58:\n    /* \"#utility.yul\":294:307   */\n  dup2\n  mload\n  sub(shl(0x40, 0x01), 0x01)\n    /* \"#utility.yul\":356:366   */\n  dup1\n  dup3\n  gt\n    /* \"#utility.yul\":353:389   */\n  iszero\n  tag_60\n  jumpi\n    /* \"#utility.yul\":369:387   */\n  tag_60\n  tag_50\n  jump\t// in\ntag_60:\n    /* \"#utility.yul\":444:446   */\n  0x40\n    /* \"#utility.yul\":438:447   */\n  mload\n    /* \"#utility.yul\":412:414   */\n  0x1f\n    /* \"#utility.yul\":498:511   */\n  dup4\n  add\n  not(0x1f)\n    /* \"#utility.yul\":494:516   */\n  swap1\n  dup2\n  and\n    /* \"#utility.yul\":518:520   */\n  0x3f\n    /* \"#utility.yul\":490:521   */\n  add\n    /* \"#utility.yul\":486:526   */\n  and\n    /* \"#utility.yul\":474:527   */\n  dup2\n  add\n  swap1\n    /* \"#utility.yul\":542:560   */\n  dup3\n  dup3\n  gt\n    /* \"#utility.yul\":562:584   */\n  dup2\n  dup4\n  lt\n    /* \"#utility.yul\":539:585   */\n  or\n    /* \"#utility.yul\":536:608   */\n  iszero\n  tag_62\n  jumpi\n    /* \"#utility.yul\":588:606   */\n  tag_62\n  tag_50\n  jump\t// in\ntag_62:\n    /* \"#utility.yul\":628:638   */\n  dup2\n    /* \"#utility.yul\":624:626   */\n  0x40\n    /* \"#utility.yul\":617:639   */\n  mstore\n    /* \"#utility.yul\":663:665   */\n  dup4\n    /* \"#utility.yul\":655:661   */\n  dup2\n    /* \"#utility.yul\":648:666   */\n  mstore\n    /* \"#utility.yul\":709:712   */\n  dup7\n    /* \"#utility.yul\":702:706   */\n  0x20\n    /* \"#utility.yul\":697:699   */\n  dup6\n    /* \"#utility.yul\":689:695   */\n  dup9\n    /* \"#utility.yul\":685:700   */\n  add\n    /* \"#utility.yul\":681:707   */\n  add\n    /* \"#utility.yul\":678:713   */\n  gt\n    /* \"#utility.yul\":675:730   */\n  iszero\n  tag_63\n  jumpi\n    /* \"#utility.yul\":726:727   */\n  0x00\n    /* \"#utility.yul\":723:724   */\n  dup1\n    /* \"#utility.yul\":716:728   */\n  revert\n    /* \"#utility.yul\":675:730   */\ntag_63:\n    /* \"#utility.yul\":783:785   */\n  dup4\n    /* \"#utility.yul\":776:780   */\n  0x20\n    /* \"#utility.yul\":768:774   */\n  dup8\n    /* \"#utility.yul\":764:781   */\n  add\n    /* \"#utility.yul\":757:761   */\n  0x20\n    /* \"#utility.yul\":749:755   */\n  dup4\n    /* \"#utility.yul\":745:762   */\n  add\n    /* \"#utility.yul\":739:786   */\n  mcopy\n    /* \"#utility.yul\":830:831   */\n  0x00\n    /* \"#utility.yul\":823:827   */\n  0x20\n    /* \"#utility.yul\":818:820   */\n  dup6\n    /* \"#utility.yul\":810:816   */\n  dup4\n    /* \"#utility.yul\":806:821   */\n  add\n    /* \"#utility.yul\":802:828   */\n  add\n    /* \"#utility.yul\":795:832   */\n  mstore\n    /* \"#utility.yul\":850:856   */\n  dup1\n    /* \"#utility.yul\":841:856   */\n  swap5\n  pop\n  pop\n  pop\n  pop\n  pop\n    /* \"#utility.yul\":146:862   */\n  swap3\n  swap2\n  pop\n  pop\n  jump\t// out\n    /* \"#utility.yul\":867:1596   */\ntag_3:\n    /* \"#utility.yul\":975:981   */\n  0x00\n    /* \"#utility.yul\":983:989   */\n  dup1\n    /* \"#utility.yul\":991:997   */\n  0x00\n    /* \"#utility.yul\":1044:1046   */\n  0x60\n    /* \"#utility.yul\":1032:1041   */\n  dup5\n    /* \"#utility.yul\":1023:1030   */\n  dup7\n    /* \"#utility.yul\":1019:1042   */\n  sub\n    /* \"#utility.yul\":1015:1047   */\n  slt\n    /* \"#utility.yul\":1012:1064   */\n  iszero\n  tag_65\n  jumpi\n    /* \"#utility.yul\":1060:1061   */\n  0x00\n    /* \"#utility.yul\":1057:1058   */\n  dup1\n    /* \"#utility.yul\":1050:1062   */\n  revert\n    /* \"#utility.yul\":1012:1064   */\ntag_65:\n    /* \"#utility.yul\":1086:1102   */\n  dup4\n  mload\n  sub(shl(0xa0, 0x01), 0x01)\n    /* \"#utility.yul\":1131:1162   */\n  dup2\n  and\n    /* \"#utility.yul\":1121:1163   */\n  dup2\n  eq\n    /* \"#utility.yul\":1111:1181   */\n  tag_66\n  jumpi\n    /* \"#utility.yul\":1177:1178   */\n  0x00\n    /* \"#utility.yul\":1174:1175   */\n  dup1\n    /* \"#utility.yul\":1167:1179   */\n  revert\n    /* \"#utility.yul\":1111:1181   */\ntag_66:\n    /* \"#utility.yul\":1249:1251   */\n  0x20\n    /* \"#utility.yul\":1234:1252   */\n  dup6\n  add\n    /* \"#utility.yul\":1228:1253   */\n  mload\n    /* \"#utility.yul\":1200:1205   */\n  swap1\n  swap4\n  pop\n  sub(shl(0x40, 0x01), 0x01)\n    /* \"#utility.yul\":1302:1316   */\n  dup1\n  dup3\n  gt\n    /* \"#utility.yul\":1299:1333   */\n  iszero\n  tag_67\n  jumpi\n    /* \"#utility.yul\":1329:1330   */\n  0x00\n    /* \"#utility.yul\":1326:1327   */\n  dup1\n    /* \"#utility.yul\":1319:1331   */\n  revert\n    /* \"#utility.yul\":1299:1333   */\ntag_67:\n    /* \"#utility.yul\":1352:1413   */\n  tag_68\n    /* \"#utility.yul\":1405:1412   */\n  dup8\n    /* \"#utility.yul\":1396:1402   */\n  dup4\n    /* \"#utility.yul\":1385:1394   */\n  dup9\n    /* \"#utility.yul\":1381:1403   */\n  add\n    /* \"#utility.yul\":1352:1413   */\n  tag_51\n  jump\t// in\ntag_68:\n    /* \"#utility.yul\":1342:1413   */\n  swap4\n  pop\n    /* \"#utility.yul\":1459:1461   */\n  0x40\n    /* \"#utility.yul\":1448:1457   */\n  dup7\n    /* \"#utility.yul\":1444:1462   */\n  add\n    /* \"#utility.yul\":1438:1463   */\n  mload\n    /* \"#utility.yul\":1422:1463   */\n  swap2\n  pop\n    /* \"#utility.yul\":1488:1490   */\n  dup1\n    /* \"#utility.yul\":1478:1486   */\n  dup3\n    /* \"#utility.yul\":1475:1491   */\n  gt\n    /* \"#utility.yul\":1472:1508   */\n  iszero\n  tag_69\n  jumpi\n    /* \"#utility.yul\":1504:1505   */\n  0x00\n    /* \"#utility.yul\":1501:1502   */\n  dup1\n    /* \"#utility.yul\":1494:1506   */\n  revert\n    /* \"#utility.yul\":1472:1508   */\ntag_69:\n  pop\n    /* \"#utility.yul\":1527:1590   */\n  tag_70\n    /* \"#utility.yul\":1582:1589   */\n  dup7\n    /* \"#utility.yul\":1571:1579   */\n  dup3\n    /* \"#utility.yul\":1560:1569   */\n  dup8\n    /* \"#utility.yul\":1556:1580   */\n  add\n    /* \"#utility.yul\":1527:1590   */\n  tag_51\n  jump\t// in\ntag_70:\n    /* \"#utility.yul\":1517:1590   */\n  swap2\n  pop\n  pop\n    /* \"#utility.yul\":867:1596   */\n  swap3\n  pop\n  swap3\n  pop\n  swap3\n  jump\t// out\n    /* \"#utility.yul\":1601:1981   */\ntag_43:\n    /* \"#utility.yul\":1680:1681   */\n  0x01\n    /* \"#utility.yul\":1676:1688   */\n  dup2\n  dup2\n  shr\n  swap1\n    /* \"#utility.yul\":1723:1735   */\n  dup3\n  and\n  dup1\n    /* \"#utility.yul\":1744:1805   */\n  tag_72\n  jumpi\n    /* \"#utility.yul\":1798:1802   */\n  0x7f\n    /* \"#utility.yul\":1790:1796   */\n  dup3\n    /* \"#utility.yul\":1786:1803   */\n  and\n    /* \"#utility.yul\":1776:1803   */\n  swap2\n  pop\n    /* \"#utility.yul\":1744:1805   */\ntag_72:\n    /* \"#utility.yul\":1851:1853   */\n  0x20\n    /* \"#utility.yul\":1843:1849   */\n  dup3\n    /* \"#utility.yul\":1840:1854   */\n  lt\n    /* \"#utility.yul\":1820:1838   */\n  dup2\n    /* \"#utility.yul\":1817:1855   */\n  sub\n    /* \"#utility.yul\":1814:1975   */\n  tag_73\n  jumpi\n    /* \"#utility.yul\":1897:1907   */\n  0x4e487b71\n    /* \"#utility.yul\":1892:1895   */\n  0xe0\n    /* \"#utility.yul\":1888:1908   */\n  shl\n    /* \"#utility.yul\":1885:1886   */\n  0x00\n    /* \"#utility.yul\":1878:1909   */\n  mstore\n    /* \"#utility.yul\":1932:1936   */\n  0x22\n    /* \"#utility.yul\":1929:1930   */\n  0x04\n    /* \"#utility.yul\":1922:1937   */\n  mstore\n    /* \"#utility.yul\":1960:1964   */\n  0x24\n    /* \"#utility.yul\":1957:1958   */\n  0x00\n    /* \"#utility.yul\":1950:1965   */\n  revert\n    /* \"#utility.yul\":1814:1975   */\ntag_73:\n  pop\n    /* \"#utility.yul\":1601:1981   */\n  swap2\n  swap1\n  pop\n  jump\t// out\n    /* \"#utility.yul\":2112:2630   */\ntag_53:\n    /* \"#utility.yul\":2214:2216   */\n  0x1f\n    /* \"#utility.yul\":2209:2212   */\n  dup3\n    /* \"#utility.yul\":2206:2217   */\n  gt\n    /* \"#utility.yul\":2203:2624   */\n  iszero\n  tag_33\n  jumpi\n    /* \"#utility.yul\":2250:2255   */\n  dup1\n    /* \"#utility.yul\":2247:2248   */\n  0x00\n    /* \"#utility.yul\":2240:2256   */\n  mstore\n    /* \"#utility.yul\":2294:2298   */\n  0x20\n    /* \"#utility.yul\":2291:2292   */\n  0x00\n    /* \"#utility.yul\":2281:2299   */\n  keccak256\n    /* \"#utility.yul\":2364:2366   */\n  0x1f\n    /* \"#utility.yul\":2352:2362   */\n  dup5\n    /* \"#utility.yul\":2348:2367   */\n  add\n    /* \"#utility.yul\":2345:2346   */\n  0x05\n    /* \"#utility.yul\":2341:2368   */\n  shr\n    /* \"#utility.yul\":2335:2339   */\n  dup2\n    /* \"#utility.yul\":2331:2369   */\n  add\n    /* \"#utility.yul\":2400:2404   */\n  0x20\n    /* \"#utility.yul\":2388:2398   */\n  dup6\n    /* \"#utility.yul\":2385:2405   */\n  lt\n    /* \"#utility.yul\":2382:2429   */\n  iszero\n  tag_77\n  jumpi\n  pop\n    /* \"#utility.yul\":2423:2427   */\n  dup1\n    /* \"#utility.yul\":2382:2429   */\ntag_77:\n    /* \"#utility.yul\":2478:2480   */\n  0x1f\n    /* \"#utility.yul\":2473:2476   */\n  dup5\n    /* \"#utility.yul\":2469:2481   */\n  add\n    /* \"#utility.yul\":2466:2467   */\n  0x05\n    /* \"#utility.yul\":2462:2482   */\n  shr\n    /* \"#utility.yul\":2456:2460   */\n  dup3\n    /* \"#utility.yul\":2452:2483   */\n  add\n    /* \"#utility.yul\":2442:2483   */\n  swap2\n  pop\n    /* \"#utility.yul\":2533:2614   */\ntag_78:\n    /* \"#utility.yul\":2551:2553   */\n  dup2\n    /* \"#utility.yul\":2544:2549   */\n  dup2\n    /* \"#utility.yul\":2541:2554   */\n  lt\n    /* \"#utility.yul\":2533:2614   */\n  iszero\n  tag_80\n  jumpi\n    /* \"#utility.yul\":2610:2611   */\n  0x00\n    /* \"#utility.yul\":2596:2612   */\n  dup2\n  sstore\n    /* \"#utility.yul\":2577:2578   */\n  0x01\n    /* \"#utility.yul\":2566:2579   */\n  add\n    /* \"#utility.yul\":2533:2614   */\n  jump(tag_78)\ntag_80:\n    /* \"#utility.yul\":2537:2540   */\n  pop\n  pop\n    /* \"#utility.yul\":2112:2630   */\n  pop\n  pop\n  pop\n  jump\t// out\n    /* \"#utility.yul\":2806:4151   */\ntag_10:\n    /* \"#utility.yul\":2926:2936   */\n  dup2\n  mload\n  sub(shl(0x40, 0x01), 0x01)\n    /* \"#utility.yul\":2948:2978   */\n  dup2\n  gt\n    /* \"#utility.yul\":2945:3001   */\n  iszero\n  tag_84\n  jumpi\n    /* \"#utility.yul\":2981:2999   */\n  tag_84\n  tag_50\n  jump\t// in\ntag_84:\n    /* \"#utility.yul\":3010:3107   */\n  tag_85\n    /* \"#utility.yul\":3100:3106   */\n  dup2\n    /* \"#utility.yul\":3060:3098   */\n  tag_86\n    /* \"#utility.yul\":3092:3096   */\n  dup5\n    /* \"#utility.yul\":3086:3097   */\n  sload\n    /* \"#utility.yul\":3060:3098   */\n  tag_43\n  jump\t// in\ntag_86:\n    /* \"#utility.yul\":3054:3058   */\n  dup5\n    /* \"#utility.yul\":3010:3107   */\n  tag_53\n  jump\t// in\ntag_85:\n    /* \"#utility.yul\":3162:3166   */\n  0x20\n  dup1\n    /* \"#utility.yul\":3219:3221   */\n  0x1f\n    /* \"#utility.yul\":3208:3222   */\n  dup4\n  gt\n    /* \"#utility.yul\":3236:3237   */\n  0x01\n    /* \"#utility.yul\":3231:3894   */\n  dup2\n  eq\n  tag_88\n  jumpi\n    /* \"#utility.yul\":3938:3939   */\n  0x00\n    /* \"#utility.yul\":3955:3961   */\n  dup5\n    /* \"#utility.yul\":3952:4041   */\n  iszero\n  tag_89\n  jumpi\n  pop\n    /* \"#utility.yul\":4007:4026   */\n  dup6\n  dup4\n  add\n    /* \"#utility.yul\":4001:4027   */\n  mload\n    /* \"#utility.yul\":3952:4041   */\ntag_89:\n  not(0x00)\n    /* \"#utility.yul\":2763:2764   */\n  0x03\n    /* \"#utility.yul\":2759:2770   */\n  dup7\n  swap1\n  shl\n    /* \"#utility.yul\":2755:2779   */\n  shr\n    /* \"#utility.yul\":2751:2780   */\n  not\n    /* \"#utility.yul\":2741:2781   */\n  and\n    /* \"#utility.yul\":2787:2788   */\n  0x01\n    /* \"#utility.yul\":2783:2794   */\n  dup6\n  swap1\n  shl\n    /* \"#utility.yul\":2738:2795   */\n  or\n    /* \"#utility.yul\":4054:4135   */\n  dup6\n  sstore\n    /* \"#utility.yul\":3201:4145   */\n  jump(tag_87)\n    /* \"#utility.yul\":3231:3894   */\ntag_88:\n    /* \"#utility.yul\":2059:2060   */\n  0x00\n    /* \"#utility.yul\":2052:2066   */\n  dup6\n  dup2\n  mstore\n    /* \"#utility.yul\":2096:2100   */\n  0x20\n    /* \"#utility.yul\":2083:2101   */\n  dup2\n  keccak256\n  not(0x1f)\n    /* \"#utility.yul\":3267:3287   */\n  dup7\n  and\n  swap2\n    /* \"#utility.yul\":3385:3621   */\ntag_92:\n    /* \"#utility.yul\":3399:3406   */\n  dup3\n    /* \"#utility.yul\":3396:3397   */\n  dup2\n    /* \"#utility.yul\":3393:3407   */\n  lt\n    /* \"#utility.yul\":3385:3621   */\n  iszero\n  tag_94\n  jumpi\n    /* \"#utility.yul\":3488:3507   */\n  dup9\n  dup7\n  add\n    /* \"#utility.yul\":3482:3508   */\n  mload\n    /* \"#utility.yul\":3467:3509   */\n  dup3\n  sstore\n    /* \"#utility.yul\":3580:3607   */\n  swap5\n  dup5\n  add\n  swap5\n    /* \"#utility.yul\":3548:3549   */\n  0x01\n    /* \"#utility.yul\":3536:3550   */\n  swap1\n  swap2\n  add\n  swap1\n    /* \"#utility.yul\":3415:3434   */\n  dup5\n  add\n    /* \"#utility.yul\":3385:3621   */\n  jump(tag_92)\ntag_94:\n    /* \"#utility.yul\":3389:3392   */\n  pop\n    /* \"#utility.yul\":3649:3655   */\n  dup6\n    /* \"#utility.yul\":3640:3647   */\n  dup3\n    /* \"#utility.yul\":3637:3656   */\n  lt\n    /* \"#utility.yul\":3634:3835   */\n  iszero\n  tag_95\n  jumpi\n    /* \"#utility.yul\":3710:3729   */\n  dup8\n  dup6\n  add\n    /* \"#utility.yul\":3704:3730   */\n  mload\n  not(0x00)\n    /* \"#utility.yul\":3793:3794   */\n  0x03\n    /* \"#utility.yul\":3789:3803   */\n  dup9\n  swap1\n  shl\n    /* \"#utility.yul\":3805:3808   */\n  0xf8\n    /* \"#utility.yul\":3785:3809   */\n  and\n    /* \"#utility.yul\":3781:3818   */\n  shr\n    /* \"#utility.yul\":3777:3819   */\n  not\n    /* \"#utility.yul\":3762:3820   */\n  and\n    /* \"#utility.yul\":3747:3821   */\n  dup2\n  sstore\n    /* \"#utility.yul\":3634:3835   */\ntag_95:\n  pop\n  pop\n    /* \"#utility.yul\":3881:3882   */\n  0x01\n    /* \"#utility.yul\":3872:3878   */\n  dup5\n    /* \"#utility.yul\":3869:3870   */\n  0x01\n    /* \"#utility.yul\":3865:3879   */\n  shl\n    /* \"#utility.yul\":3861:3883   */\n  add\n    /* \"#utility.yul\":3855:3859   */\n  dup6\n    /* \"#utility.yul\":3848:3884   */\n  sstore\n    /* \"#utility.yul\":3201:4145   */\ntag_87:\n  pop\n  pop\n  pop\n  pop\n    /* \"#utility.yul\":2806:4151   */\n  pop\n  pop\n  jump\t// out\n    /* \"#utility.yul\":5010:5232   */\ntag_35:\n    /* \"#utility.yul\":5075:5084   */\n  dup1\n  dup3\n  add\n    /* \"#utility.yul\":5096:5106   */\n  dup1\n  dup3\n  gt\n    /* \"#utility.yul\":5093:5226   */\n  iszero\n  tag_99\n  jumpi\n    /* \"#utility.yul\":5148:5158   */\n  0x4e487b71\n    /* \"#utility.yul\":5143:5146   */\n  0xe0\n    /* \"#utility.yul\":5139:5159   */\n  shl\n    /* \"#utility.yul\":5136:5137   */\n  0x00\n    /* \"#utility.yul\":5129:5160   */\n  mstore\n    /* \"#utility.yul\":5183:5187   */\n  0x11\n    /* \"#utility.yul\":5180:5181   */\n  0x04\n    /* \"#utility.yul\":5173:5188   */\n  mstore\n    /* \"#utility.yul\":5211:5215   */\n  0x24\n    /* \"#utility.yul\":5208:5209   */\n  0x00\n    /* \"#utility.yul\":5201:5216   */\n  revert\n    /* \"#utility.yul\":5093:5226   */\ntag_99:\n    /* \"#utility.yul\":5010:5232   */\n  swap3\n  swap2\n  pop\n  pop\n  jump\t// out\n    /* \"#utility.yul\":5237:5414   */\ntag_55:\n    /* \"PBOXToken.sol\":201:563  contract PBOXToken is ERC20Base {... */\n  mload(0x80)\n  mload(0xa0)\n  mload(0xc0)\n  mload(0xe0)\n  codecopy(0x00, dataOffset(sub_0), dataSize(sub_0))\n  0x00\n  assignImmutable(\"0x22615f586e4a86b23ead367df957a03709c50c3e9f8d9d951d77eb93984a0744\")\n  0x00\n  assignImmutable(\"0xd69b85eff1d6b032be2efa9877c087b40fe7111b09e822e2dfcddfe5951aa76d\")\n  0x00\n  assignImmutable(\"0x9e1fb2b79e882622ed243a034292b4fa176df601f71d921cffbf6c845001c2b4\")\n  0x00\n  assignImmutable(\"0x42d683e394a4df18653c7650f8aa08cb69f6a4b0d0acad4653af662538b2a674\")\n  return(0x00, dataSize(sub_0))\nstop\n\nsub_0: assembly {\n        /* \"PBOXToken.sol\":201:563  contract PBOXToken is ERC20Base {... */\n      mstore(0x40, 0x80)\n      callvalue\n      dup1\n      iszero\n      tag_1\n      jumpi\n      0x00\n      dup1\n      revert\n    tag_1:\n      pop\n      jumpi(tag_2, lt(calldatasize, 0x04))\n      shr(0xe0, calldataload(0x00))\n      dup1\n      0x79cc6790\n      gt\n      tag_25\n      jumpi\n      dup1\n      0xa457c2d7\n      gt\n      tag_26\n      jumpi\n      dup1\n      0xd505accf\n      gt\n      tag_27\n      jumpi\n      dup1\n      0xd505accf\n      eq\n      tag_22\n      jumpi\n      dup1\n      0xdd62ed3e\n      eq\n      tag_23\n      jumpi\n      dup1\n      0xe8a3d485\n      eq\n      tag_24\n      jumpi\n      0x00\n      dup1\n      revert\n    tag_27:\n      dup1\n      0xa457c2d7\n      eq\n      tag_19\n      jumpi\n      dup1\n      0xa9059cbb\n      eq\n      tag_20\n      jumpi\n      dup1\n      0xac9650d8\n      eq\n      tag_21\n      jumpi\n      0x00\n      dup1\n      revert\n    tag_26:\n      dup1\n      0x8da5cb5b\n      gt\n      tag_28\n      jumpi\n      dup1\n      0x8da5cb5b\n      eq\n      tag_16\n      jumpi\n      dup1\n      0x938e3d7b\n      eq\n      tag_17\n      jumpi\n      dup1\n      0x95d89b41\n      eq\n      tag_18\n      jumpi\n      0x00\n      dup1\n      revert\n    tag_28:\n      dup1\n      0x79cc6790\n      eq\n      tag_14\n      jumpi\n      dup1\n      0x7ecebe00\n      eq\n      tag_15\n      jumpi\n      0x00\n      dup1\n      revert\n    tag_25:\n      dup1\n      0x313ce567\n      gt\n      tag_29\n      jumpi\n      dup1\n      0x42966c68\n      gt\n      tag_30\n      jumpi\n      dup1\n      0x42966c68\n      eq\n      tag_11\n      jumpi\n      dup1\n      0x449a52f8\n      eq\n      tag_12\n      jumpi\n      dup1\n      0x70a08231\n      eq\n      tag_13\n      jumpi\n      0x00\n      dup1\n      revert\n    tag_30:\n      dup1\n      0x313ce567\n      eq\n      tag_8\n      jumpi\n      dup1\n      0x3644e515\n      eq\n      tag_9\n      jumpi\n      dup1\n      0x39509351\n      eq\n      tag_10\n      jumpi\n      0x00\n      dup1\n      revert\n    tag_29:\n      dup1\n      0x13af4035\n      gt\n      tag_31\n      jumpi\n      dup1\n      0x13af4035\n      eq\n      tag_5\n      jumpi\n      dup1\n      0x18160ddd\n      eq\n      tag_6\n      jumpi\n      dup1\n      0x23b872dd\n      eq\n      tag_7\n      jumpi\n      0x00\n      dup1\n      revert\n    tag_31:\n      dup1\n      0x06fdde03\n      eq\n      tag_3\n      jumpi\n      dup1\n      0x095ea7b3\n      eq\n      tag_4\n      jumpi\n    tag_2:\n      0x00\n      dup1\n      revert\n        /* \"@thirdweb-dev/contracts/external-deps/openzeppelin/token/ERC20/ERC20.sol\":2193:2291   */\n    tag_3:\n      tag_32\n      tag_33\n      jump\t// in\n    tag_32:\n      mload(0x40)\n      tag_34\n      swap2\n      swap1\n      tag_35\n      jump\t// in\n    tag_34:\n      mload(0x40)\n      dup1\n      swap2\n      sub\n      swap1\n      return\n        /* \"@thirdweb-dev/contracts/external-deps/openzeppelin/token/ERC20/ERC20.sol\":4470:4667   */\n    tag_4:\n      tag_36\n      tag_37\n      calldatasize\n      0x04\n      tag_38\n      jump\t// in\n    tag_37:\n      tag_39\n      jump\t// in\n    tag_36:\n      mload(0x40)\n        /* \"#utility.yul\":1158:1172   */\n      swap1\n      iszero\n        /* \"#utility.yul\":1151:1173   */\n      iszero\n        /* \"#utility.yul\":1133:1174   */\n      dup2\n      mstore\n        /* \"#utility.yul\":1121:1123   */\n      0x20\n        /* \"#utility.yul\":1106:1124   */\n      add\n        /* \"@thirdweb-dev/contracts/external-deps/openzeppelin/token/ERC20/ERC20.sol\":4470:4667   */\n      tag_34\n        /* \"#utility.yul\":993:1180   */\n      jump\n        /* \"@thirdweb-dev/contracts/extension/Ownable.sol\":1235:1412   */\n    tag_5:\n      tag_42\n      tag_43\n      calldatasize\n      0x04\n      tag_44\n      jump\t// in\n    tag_43:\n      tag_45\n      jump\t// in\n    tag_42:\n      stop\n        /* \"@thirdweb-dev/contracts/external-deps/openzeppelin/token/ERC20/ERC20.sol\":3281:3387   */\n    tag_6:\n        /* \"@thirdweb-dev/contracts/external-deps/openzeppelin/token/ERC20/ERC20.sol\":3368:3380   */\n      sload(0x04)\n        /* \"@thirdweb-dev/contracts/external-deps/openzeppelin/token/ERC20/ERC20.sol\":3281:3387   */\n    tag_46:\n      mload(0x40)\n        /* \"#utility.yul\":1522:1547   */\n      swap1\n      dup2\n      mstore\n        /* \"#utility.yul\":1510:1512   */\n      0x20\n        /* \"#utility.yul\":1495:1513   */\n      add\n        /* \"@thirdweb-dev/contracts/external-deps/openzeppelin/token/ERC20/ERC20.sol\":3281:3387   */\n      tag_34\n        /* \"#utility.yul\":1376:1553   */\n      jump\n        /* \"@thirdweb-dev/contracts/external-deps/openzeppelin/token/ERC20/ERC20.sol\":5229:5485   */\n    tag_7:\n      tag_36\n      tag_51\n      calldatasize\n      0x04\n      tag_52\n      jump\t// in\n    tag_51:\n      tag_53\n      jump\t// in\n        /* \"@thirdweb-dev/contracts/external-deps/openzeppelin/token/ERC20/ERC20.sol\":3130:3221   */\n    tag_8:\n      mload(0x40)\n        /* \"@thirdweb-dev/contracts/external-deps/openzeppelin/token/ERC20/ERC20.sol\":3212:3214   */\n      0x12\n        /* \"#utility.yul\":2033:2069   */\n      dup2\n      mstore\n        /* \"#utility.yul\":2021:2023   */\n      0x20\n        /* \"#utility.yul\":2006:2024   */\n      add\n        /* \"@thirdweb-dev/contracts/external-deps/openzeppelin/token/ERC20/ERC20.sol\":3130:3221   */\n      tag_34\n        /* \"#utility.yul\":1891:2075   */\n      jump\n        /* \"@thirdweb-dev/contracts/external-deps/openzeppelin/token/ERC20/extensions/ERC20Permit.sol\":3018:3290   */\n    tag_9:\n      tag_46\n      tag_60\n      jump\t// in\n        /* \"@thirdweb-dev/contracts/external-deps/openzeppelin/token/ERC20/ERC20.sol\":5880:6116   */\n    tag_10:\n      tag_36\n      tag_64\n      calldatasize\n      0x04\n      tag_38\n      jump\t// in\n    tag_64:\n      tag_65\n      jump\t// in\n        /* \"@thirdweb-dev/contracts/base/ERC20Base.sol\":2421:2585   */\n    tag_11:\n      tag_42\n      tag_68\n      calldatasize\n      0x04\n      tag_69\n      jump\t// in\n    tag_68:\n      tag_70\n      jump\t// in\n        /* \"@thirdweb-dev/contracts/base/ERC20Base.sol\":1989:2198   */\n    tag_12:\n      tag_42\n      tag_72\n      calldatasize\n      0x04\n      tag_38\n      jump\t// in\n    tag_72:\n      tag_73\n      jump\t// in\n        /* \"@thirdweb-dev/contracts/external-deps/openzeppelin/token/ERC20/ERC20.sol\":3445:3570   */\n    tag_13:\n      tag_46\n      tag_75\n      calldatasize\n      0x04\n      tag_44\n      jump\t// in\n    tag_75:\n      sub(shl(0xa0, 0x01), 0x01)\n        /* \"@thirdweb-dev/contracts/external-deps/openzeppelin/token/ERC20/ERC20.sol\":3545:3563   */\n      and\n        /* \"@thirdweb-dev/contracts/external-deps/openzeppelin/token/ERC20/ERC20.sol\":3519:3526   */\n      0x00\n        /* \"@thirdweb-dev/contracts/external-deps/openzeppelin/token/ERC20/ERC20.sol\":3545:3563   */\n      swap1\n      dup2\n      mstore\n        /* \"@thirdweb-dev/contracts/external-deps/openzeppelin/token/ERC20/ERC20.sol\":3545:3554   */\n      0x02\n        /* \"@thirdweb-dev/contracts/external-deps/openzeppelin/token/ERC20/ERC20.sol\":3545:3563   */\n      0x20\n      mstore\n      0x40\n      swap1\n      keccak256\n      sload\n      swap1\n        /* \"@thirdweb-dev/contracts/external-deps/openzeppelin/token/ERC20/ERC20.sol\":3445:3570   */\n      jump\n        /* \"@thirdweb-dev/contracts/base/ERC20Base.sol\":2882:3312   */\n    tag_14:\n      tag_42\n      tag_79\n      calldatasize\n      0x04\n      tag_38\n      jump\t// in\n    tag_79:\n      tag_80\n      jump\t// in\n        /* \"@thirdweb-dev/contracts/external-deps/openzeppelin/token/ERC20/extensions/ERC20Permit.sol\":2768:2894   */\n    tag_15:\n      tag_46\n      tag_82\n      calldatasize\n      0x04\n      tag_44\n      jump\t// in\n    tag_82:\n      tag_83\n      jump\t// in\n        /* \"@thirdweb-dev/contracts/extension/Ownable.sol\":973:1059   */\n    tag_16:\n        /* \"@thirdweb-dev/contracts/extension/Ownable.sol\":1046:1052   */\n      sload(0x01)\n        /* \"@thirdweb-dev/contracts/extension/Ownable.sol\":973:1059   */\n      mload(0x40)\n      sub(shl(0xa0, 0x01), 0x01)\n        /* \"@thirdweb-dev/contracts/extension/Ownable.sol\":1046:1052   */\n      swap1\n      swap2\n      and\n        /* \"#utility.yul\":2593:2667   */\n      dup2\n      mstore\n        /* \"#utility.yul\":2581:2583   */\n      0x20\n        /* \"#utility.yul\":2566:2584   */\n      add\n        /* \"@thirdweb-dev/contracts/extension/Ownable.sol\":973:1059   */\n      tag_34\n        /* \"#utility.yul\":2447:2673   */\n      jump\n        /* \"@thirdweb-dev/contracts/extension/ContractMetadata.sol\":1110:1311   */\n    tag_17:\n      tag_42\n      tag_90\n      calldatasize\n      0x04\n      tag_91\n      jump\t// in\n    tag_90:\n      tag_92\n      jump\t// in\n        /* \"@thirdweb-dev/contracts/external-deps/openzeppelin/token/ERC20/ERC20.sol\":2404:2506   */\n    tag_18:\n      tag_32\n      tag_94\n      jump\t// in\n        /* \"@thirdweb-dev/contracts/external-deps/openzeppelin/token/ERC20/ERC20.sol\":6603:7032   */\n    tag_19:\n      tag_36\n      tag_97\n      calldatasize\n      0x04\n      tag_38\n      jump\t// in\n    tag_97:\n      tag_98\n      jump\t// in\n        /* \"@thirdweb-dev/contracts/external-deps/openzeppelin/token/ERC20/ERC20.sol\":3766:3955   */\n    tag_20:\n      tag_36\n      tag_101\n      calldatasize\n      0x04\n      tag_38\n      jump\t// in\n    tag_101:\n      tag_102\n      jump\t// in\n        /* \"@thirdweb-dev/contracts/extension/Multicall.sol\":696:1263   */\n    tag_21:\n      tag_104\n      tag_105\n      calldatasize\n      0x04\n      tag_106\n      jump\t// in\n    tag_105:\n      tag_107\n      jump\t// in\n    tag_104:\n      mload(0x40)\n      tag_34\n      swap2\n      swap1\n      tag_109\n      jump\t// in\n        /* \"@thirdweb-dev/contracts/external-deps/openzeppelin/token/ERC20/extensions/ERC20Permit.sol\":2056:2707   */\n    tag_22:\n      tag_42\n      tag_111\n      calldatasize\n      0x04\n      tag_112\n      jump\t// in\n    tag_111:\n      tag_113\n      jump\t// in\n        /* \"@thirdweb-dev/contracts/external-deps/openzeppelin/token/ERC20/ERC20.sol\":4013:4162   */\n    tag_23:\n      tag_46\n      tag_115\n      calldatasize\n      0x04\n      tag_116\n      jump\t// in\n    tag_115:\n      sub(shl(0xa0, 0x01), 0x01)\n        /* \"@thirdweb-dev/contracts/external-deps/openzeppelin/token/ERC20/ERC20.sol\":4128:4146   */\n      swap2\n      dup3\n      and\n        /* \"@thirdweb-dev/contracts/external-deps/openzeppelin/token/ERC20/ERC20.sol\":4102:4109   */\n      0x00\n        /* \"@thirdweb-dev/contracts/external-deps/openzeppelin/token/ERC20/ERC20.sol\":4128:4146   */\n      swap1\n      dup2\n      mstore\n        /* \"@thirdweb-dev/contracts/external-deps/openzeppelin/token/ERC20/ERC20.sol\":4128:4139   */\n      0x03\n        /* \"@thirdweb-dev/contracts/external-deps/openzeppelin/token/ERC20/ERC20.sol\":4128:4146   */\n      0x20\n      swap1\n      dup2\n      mstore\n      0x40\n      dup1\n      dup4\n      keccak256\n        /* \"@thirdweb-dev/contracts/external-deps/openzeppelin/token/ERC20/ERC20.sol\":4128:4155   */\n      swap4\n      swap1\n      swap5\n      and\n      dup3\n      mstore\n      swap2\n      swap1\n      swap2\n      mstore\n      keccak256\n      sload\n      swap1\n        /* \"@thirdweb-dev/contracts/external-deps/openzeppelin/token/ERC20/ERC20.sol\":4013:4162   */\n      jump\n        /* \"@thirdweb-dev/contracts/extension/ContractMetadata.sol\":672:706   */\n    tag_24:\n      tag_32\n      tag_120\n      jump\t// in\n        /* \"@thirdweb-dev/contracts/external-deps/openzeppelin/token/ERC20/ERC20.sol\":2193:2291   */\n    tag_33:\n        /* \"@thirdweb-dev/contracts/external-deps/openzeppelin/token/ERC20/ERC20.sol\":2247:2260   */\n      0x60\n        /* \"@thirdweb-dev/contracts/external-deps/openzeppelin/token/ERC20/ERC20.sol\":2279:2284   */\n      0x05\n        /* \"@thirdweb-dev/contracts/external-deps/openzeppelin/token/ERC20/ERC20.sol\":2272:2284   */\n      dup1\n      sload\n      tag_123\n      swap1\n      tag_124\n      jump\t// in\n    tag_123:\n      dup1\n      0x1f\n      add\n      0x20\n      dup1\n      swap2\n      div\n      mul\n      0x20\n      add\n      mload(0x40)\n      swap1\n      dup2\n      add\n      0x40\n      mstore\n      dup1\n      swap3\n      swap2\n      swap1\n      dup2\n      dup2\n      mstore\n      0x20\n      add\n      dup3\n      dup1\n      sload\n      tag_125\n      swap1\n      tag_124\n      jump\t// in\n    tag_125:\n      dup1\n      iszero\n      tag_126\n      jumpi\n      dup1\n      0x1f\n      lt\n      tag_127\n      jumpi\n      0x0100\n      dup1\n      dup4\n      sload\n      div\n      mul\n      dup4\n      mstore\n      swap2\n      0x20\n      add\n      swap2\n      jump(tag_126)\n    tag_127:\n      dup3\n      add\n      swap2\n      swap1\n      0x00\n      mstore\n      keccak256(0x00, 0x20)\n      swap1\n    tag_128:\n      dup2\n      sload\n      dup2\n      mstore\n      swap1\n      0x01\n      add\n      swap1\n      0x20\n      add\n      dup1\n      dup4\n      gt\n      tag_128\n      jumpi\n      dup3\n      swap1\n      sub\n      0x1f\n      and\n      dup3\n      add\n      swap2\n    tag_126:\n      pop\n      pop\n      pop\n      pop\n      pop\n      swap1\n      pop\n        /* \"@thirdweb-dev/contracts/external-deps/openzeppelin/token/ERC20/ERC20.sol\":2193:2291   */\n      swap1\n      jump\t// out\n        /* \"@thirdweb-dev/contracts/external-deps/openzeppelin/token/ERC20/ERC20.sol\":4470:4667   */\n    tag_39:\n        /* \"@thirdweb-dev/contracts/external-deps/openzeppelin/token/ERC20/ERC20.sol\":4553:4557   */\n      0x00\n        /* \"@thirdweb-dev/contracts/base/ERC20Base.sol\":4478:4488   */\n      caller\n        /* \"@thirdweb-dev/contracts/external-deps/openzeppelin/token/ERC20/ERC20.sol\":4607:4639   */\n      tag_132\n        /* \"@thirdweb-dev/contracts/base/ERC20Base.sol\":4478:4488   */\n      dup2\n        /* \"@thirdweb-dev/contracts/external-deps/openzeppelin/token/ERC20/ERC20.sol\":4623:4630   */\n      dup6\n        /* \"@thirdweb-dev/contracts/external-deps/openzeppelin/token/ERC20/ERC20.sol\":4632:4638   */\n      dup6\n        /* \"@thirdweb-dev/contracts/external-deps/openzeppelin/token/ERC20/ERC20.sol\":4607:4615   */\n      tag_133\n        /* \"@thirdweb-dev/contracts/external-deps/openzeppelin/token/ERC20/ERC20.sol\":4607:4639   */\n      jump\t// in\n    tag_132:\n        /* \"@thirdweb-dev/contracts/external-deps/openzeppelin/token/ERC20/ERC20.sol\":4656:4660   */\n      0x01\n        /* \"@thirdweb-dev/contracts/external-deps/openzeppelin/token/ERC20/ERC20.sol\":4649:4660   */\n      swap2\n      pop\n      pop\n        /* \"@thirdweb-dev/contracts/external-deps/openzeppelin/token/ERC20/ERC20.sol\":4470:4667   */\n    tag_129:\n      swap3\n      swap2\n      pop\n      pop\n      jump\t// out\n        /* \"@thirdweb-dev/contracts/extension/Ownable.sol\":1235:1412   */\n    tag_45:\n        /* \"@thirdweb-dev/contracts/extension/Ownable.sol\":1305:1319   */\n      tag_135\n        /* \"@thirdweb-dev/contracts/extension/Ownable.sol\":1305:1317   */\n      tag_136\n        /* \"@thirdweb-dev/contracts/extension/Ownable.sol\":1305:1319   */\n      jump\t// in\n    tag_135:\n        /* \"@thirdweb-dev/contracts/extension/Ownable.sol\":1300:1374   */\n      tag_137\n      jumpi\n        /* \"@thirdweb-dev/contracts/extension/Ownable.sol\":1342:1363   */\n      mload(0x40)\n      shl(0xe1, 0x16ccb9cb)\n      dup2\n      mstore\n      0x04\n      add\n      mload(0x40)\n      dup1\n      swap2\n      sub\n      swap1\n      revert\n        /* \"@thirdweb-dev/contracts/extension/Ownable.sol\":1300:1374   */\n    tag_137:\n        /* \"@thirdweb-dev/contracts/extension/Ownable.sol\":1383:1405   */\n      tag_138\n        /* \"@thirdweb-dev/contracts/extension/Ownable.sol\":1395:1404   */\n      dup2\n        /* \"@thirdweb-dev/contracts/extension/Ownable.sol\":1383:1394   */\n      tag_139\n        /* \"@thirdweb-dev/contracts/extension/Ownable.sol\":1383:1405   */\n      jump\t// in\n    tag_138:\n        /* \"@thirdweb-dev/contracts/extension/Ownable.sol\":1235:1412   */\n      pop\n      jump\t// out\n        /* \"@thirdweb-dev/contracts/external-deps/openzeppelin/token/ERC20/ERC20.sol\":5229:5485   */\n    tag_53:\n        /* \"@thirdweb-dev/contracts/external-deps/openzeppelin/token/ERC20/ERC20.sol\":5326:5330   */\n      0x00\n        /* \"@thirdweb-dev/contracts/base/ERC20Base.sol\":4478:4488   */\n      caller\n        /* \"@thirdweb-dev/contracts/external-deps/openzeppelin/token/ERC20/ERC20.sol\":5382:5420   */\n      tag_143\n        /* \"@thirdweb-dev/contracts/external-deps/openzeppelin/token/ERC20/ERC20.sol\":5398:5402   */\n      dup6\n        /* \"@thirdweb-dev/contracts/base/ERC20Base.sol\":4478:4488   */\n      dup3\n        /* \"@thirdweb-dev/contracts/external-deps/openzeppelin/token/ERC20/ERC20.sol\":5413:5419   */\n      dup6\n        /* \"@thirdweb-dev/contracts/external-deps/openzeppelin/token/ERC20/ERC20.sol\":5382:5397   */\n      tag_144\n        /* \"@thirdweb-dev/contracts/external-deps/openzeppelin/token/ERC20/ERC20.sol\":5382:5420   */\n      jump\t// in\n    tag_143:\n        /* \"@thirdweb-dev/contracts/external-deps/openzeppelin/token/ERC20/ERC20.sol\":5430:5457   */\n      tag_145\n        /* \"@thirdweb-dev/contracts/external-deps/openzeppelin/token/ERC20/ERC20.sol\":5440:5444   */\n      dup6\n        /* \"@thirdweb-dev/contracts/external-deps/openzeppelin/token/ERC20/ERC20.sol\":5446:5448   */\n      dup6\n        /* \"@thirdweb-dev/contracts/external-deps/openzeppelin/token/ERC20/ERC20.sol\":5450:5456   */\n      dup6\n        /* \"@thirdweb-dev/contracts/external-deps/openzeppelin/token/ERC20/ERC20.sol\":5430:5439   */\n      tag_146\n        /* \"@thirdweb-dev/contracts/external-deps/openzeppelin/token/ERC20/ERC20.sol\":5430:5457   */\n      jump\t// in\n    tag_145:\n      pop\n        /* \"@thirdweb-dev/contracts/external-deps/openzeppelin/token/ERC20/ERC20.sol\":5474:5478   */\n      0x01\n      swap5\n        /* \"@thirdweb-dev/contracts/external-deps/openzeppelin/token/ERC20/ERC20.sol\":5229:5485   */\n      swap4\n      pop\n      pop\n      pop\n      pop\n      jump\t// out\n        /* \"@thirdweb-dev/contracts/external-deps/openzeppelin/token/ERC20/extensions/ERC20Permit.sol\":3018:3290   */\n    tag_60:\n        /* \"@thirdweb-dev/contracts/external-deps/openzeppelin/token/ERC20/extensions/ERC20Permit.sol\":3076:3083   */\n      0x00\n        /* \"@thirdweb-dev/contracts/external-deps/openzeppelin/token/ERC20/extensions/ERC20Permit.sol\":3107:3111   */\n      address\n      sub(shl(0xa0, 0x01), 0x01)\n        /* \"@thirdweb-dev/contracts/external-deps/openzeppelin/token/ERC20/extensions/ERC20Permit.sol\":3116:3128   */\n      immutable(\"0xd69b85eff1d6b032be2efa9877c087b40fe7111b09e822e2dfcddfe5951aa76d\")\n        /* \"@thirdweb-dev/contracts/external-deps/openzeppelin/token/ERC20/extensions/ERC20Permit.sol\":3099:3128   */\n      and\n      eq\n        /* \"@thirdweb-dev/contracts/external-deps/openzeppelin/token/ERC20/extensions/ERC20Permit.sol\":3099:3165   */\n      dup1\n      iszero\n      tag_149\n      jumpi\n      pop\n        /* \"@thirdweb-dev/contracts/external-deps/openzeppelin/token/ERC20/extensions/ERC20Permit.sol\":3149:3165   */\n      immutable(\"0x9e1fb2b79e882622ed243a034292b4fa176df601f71d921cffbf6c845001c2b4\")\n        /* \"@thirdweb-dev/contracts/external-deps/openzeppelin/token/ERC20/extensions/ERC20Permit.sol\":3132:3145   */\n      chainid\n        /* \"@thirdweb-dev/contracts/external-deps/openzeppelin/token/ERC20/extensions/ERC20Permit.sol\":3132:3165   */\n      eq\n        /* \"@thirdweb-dev/contracts/external-deps/openzeppelin/token/ERC20/extensions/ERC20Permit.sol\":3099:3165   */\n    tag_149:\n        /* \"@thirdweb-dev/contracts/external-deps/openzeppelin/token/ERC20/extensions/ERC20Permit.sol\":3095:3284   */\n      iszero\n      tag_150\n      jumpi\n      pop\n        /* \"@thirdweb-dev/contracts/external-deps/openzeppelin/token/ERC20/extensions/ERC20Permit.sol\":3188:3212   */\n      immutable(\"0x42d683e394a4df18653c7650f8aa08cb69f6a4b0d0acad4653af662538b2a674\")\n      swap1\n        /* \"@thirdweb-dev/contracts/external-deps/openzeppelin/token/ERC20/extensions/ERC20Permit.sol\":3018:3290   */\n      jump\t// out\n        /* \"@thirdweb-dev/contracts/external-deps/openzeppelin/token/ERC20/extensions/ERC20Permit.sol\":3095:3284   */\n    tag_150:\n        /* \"@thirdweb-dev/contracts/external-deps/openzeppelin/token/ERC20/extensions/ERC20Permit.sol\":3250:3273   */\n      tag_152\n        /* \"@thirdweb-dev/contracts/external-deps/openzeppelin/token/ERC20/extensions/ERC20Permit.sol\":3250:3271   */\n      tag_153\n        /* \"@thirdweb-dev/contracts/external-deps/openzeppelin/token/ERC20/extensions/ERC20Permit.sol\":3250:3273   */\n      jump\t// in\n    tag_152:\n        /* \"@thirdweb-dev/contracts/external-deps/openzeppelin/token/ERC20/extensions/ERC20Permit.sol\":3243:3273   */\n      swap1\n      pop\n        /* \"@thirdweb-dev/contracts/external-deps/openzeppelin/token/ERC20/extensions/ERC20Permit.sol\":3018:3290   */\n      swap1\n      jump\t// out\n        /* \"@thirdweb-dev/contracts/external-deps/openzeppelin/token/ERC20/ERC20.sol\":5880:6116   */\n    tag_65:\n        /* \"@thirdweb-dev/contracts/base/ERC20Base.sol\":4478:4488   */\n      caller\n        /* \"@thirdweb-dev/contracts/external-deps/openzeppelin/token/ERC20/ERC20.sol\":5968:5972   */\n      0x00\n        /* \"@thirdweb-dev/contracts/external-deps/openzeppelin/token/ERC20/ERC20.sol\":6047:6065   */\n      dup2\n      dup2\n      mstore\n        /* \"@thirdweb-dev/contracts/external-deps/openzeppelin/token/ERC20/ERC20.sol\":6047:6058   */\n      0x03\n        /* \"@thirdweb-dev/contracts/external-deps/openzeppelin/token/ERC20/ERC20.sol\":6047:6065   */\n      0x20\n      swap1\n      dup2\n      mstore\n      0x40\n      dup1\n      dup4\n      keccak256\n      sub(shl(0xa0, 0x01), 0x01)\n        /* \"@thirdweb-dev/contracts/external-deps/openzeppelin/token/ERC20/ERC20.sol\":6047:6074   */\n      dup8\n      and\n      dup5\n      mstore\n      swap1\n      swap2\n      mstore\n      dup2\n      keccak256\n      sload\n        /* \"@thirdweb-dev/contracts/external-deps/openzeppelin/token/ERC20/ERC20.sol\":5968:5972   */\n      swap1\n      swap2\n        /* \"@thirdweb-dev/contracts/base/ERC20Base.sol\":4478:4488   */\n      swap1\n        /* \"@thirdweb-dev/contracts/external-deps/openzeppelin/token/ERC20/ERC20.sol\":6022:6088   */\n      tag_132\n      swap1\n        /* \"@thirdweb-dev/contracts/base/ERC20Base.sol\":4478:4488   */\n      dup3\n      swap1\n        /* \"@thirdweb-dev/contracts/external-deps/openzeppelin/token/ERC20/ERC20.sol\":6047:6074   */\n      dup7\n      swap1\n        /* \"@thirdweb-dev/contracts/external-deps/openzeppelin/token/ERC20/ERC20.sol\":6047:6087   */\n      tag_157\n      swap1\n        /* \"@thirdweb-dev/contracts/external-deps/openzeppelin/token/ERC20/ERC20.sol\":6077:6087   */\n      dup8\n      swap1\n        /* \"@thirdweb-dev/contracts/external-deps/openzeppelin/token/ERC20/ERC20.sol\":6047:6087   */\n      tag_158\n      jump\t// in\n    tag_157:\n        /* \"@thirdweb-dev/contracts/external-deps/openzeppelin/token/ERC20/ERC20.sol\":6022:6030   */\n      tag_133\n        /* \"@thirdweb-dev/contracts/external-deps/openzeppelin/token/ERC20/ERC20.sol\":6022:6088   */\n      jump\t// in\n        /* \"@thirdweb-dev/contracts/base/ERC20Base.sol\":2421:2585   */\n    tag_70:\n        /* \"@thirdweb-dev/contracts/base/ERC20Base.sol\":2497:2507   */\n      caller\n        /* \"@thirdweb-dev/contracts/external-deps/openzeppelin/token/ERC20/ERC20.sol\":3519:3526   */\n      0x00\n        /* \"@thirdweb-dev/contracts/external-deps/openzeppelin/token/ERC20/ERC20.sol\":3545:3563   */\n      swap1\n      dup2\n      mstore\n        /* \"@thirdweb-dev/contracts/external-deps/openzeppelin/token/ERC20/ERC20.sol\":3545:3554   */\n      0x02\n        /* \"@thirdweb-dev/contracts/external-deps/openzeppelin/token/ERC20/ERC20.sol\":3545:3563   */\n      0x20\n      mstore\n      0x40\n      swap1\n      keccak256\n      sload\n        /* \"@thirdweb-dev/contracts/base/ERC20Base.sol\":2512:2519   */\n      dup2\n      gt\n        /* \"@thirdweb-dev/contracts/base/ERC20Base.sol\":2487:2519   */\n      iszero\n        /* \"@thirdweb-dev/contracts/base/ERC20Base.sol\":2479:2542   */\n      tag_161\n      jumpi\n      mload(0x40)\n      shl(0xe5, 0x461bcd)\n      dup2\n      mstore\n        /* \"#utility.yul\":6986:6988   */\n      0x20\n        /* \"@thirdweb-dev/contracts/base/ERC20Base.sol\":2479:2542   */\n      0x04\n      dup3\n      add\n        /* \"#utility.yul\":6968:6989   */\n      mstore\n        /* \"#utility.yul\":7025:7027   */\n      0x12\n        /* \"#utility.yul\":7005:7023   */\n      0x24\n      dup3\n      add\n        /* \"#utility.yul\":6998:7028   */\n      mstore\n        /* \"#utility.yul\":7064:7084   */\n      0x6e6f7420656e6f7567682062616c616e63650000000000000000000000000000\n        /* \"#utility.yul\":7044:7062   */\n      0x44\n      dup3\n      add\n        /* \"#utility.yul\":7037:7085   */\n      mstore\n        /* \"#utility.yul\":7102:7120   */\n      0x64\n      add\n        /* \"@thirdweb-dev/contracts/base/ERC20Base.sol\":2479:2542   */\n    tag_162:\n      mload(0x40)\n      dup1\n      swap2\n      sub\n      swap1\n      revert\n    tag_161:\n        /* \"@thirdweb-dev/contracts/base/ERC20Base.sol\":2552:2578   */\n      tag_138\n        /* \"@thirdweb-dev/contracts/base/ERC20Base.sol\":2558:2568   */\n      caller\n        /* \"@thirdweb-dev/contracts/base/ERC20Base.sol\":2570:2577   */\n      dup3\n        /* \"@thirdweb-dev/contracts/base/ERC20Base.sol\":2552:2557   */\n      tag_165\n        /* \"@thirdweb-dev/contracts/base/ERC20Base.sol\":2552:2578   */\n      jump\t// in\n        /* \"@thirdweb-dev/contracts/base/ERC20Base.sol\":1989:2198   */\n    tag_73:\n        /* \"@thirdweb-dev/contracts/base/ERC20Base.sol\":2068:2078   */\n      tag_167\n        /* \"@thirdweb-dev/contracts/base/ERC20Base.sol\":2068:2076   */\n      tag_136\n        /* \"@thirdweb-dev/contracts/base/ERC20Base.sol\":2068:2078   */\n      jump\t// in\n    tag_167:\n        /* \"@thirdweb-dev/contracts/base/ERC20Base.sol\":2060:2106   */\n      tag_169\n      jumpi\n      mload(0x40)\n      shl(0xe5, 0x461bcd)\n      dup2\n      mstore\n        /* \"#utility.yul\":7333:7335   */\n      0x20\n        /* \"@thirdweb-dev/contracts/base/ERC20Base.sol\":2060:2106   */\n      0x04\n      dup3\n      add\n        /* \"#utility.yul\":7315:7336   */\n      mstore\n        /* \"#utility.yul\":7372:7374   */\n      0x17\n        /* \"#utility.yul\":7352:7370   */\n      0x24\n      dup3\n      add\n        /* \"#utility.yul\":7345:7375   */\n      mstore\n        /* \"#utility.yul\":7411:7436   */\n      0x4e6f7420617574686f72697a656420746f206d696e742e000000000000000000\n        /* \"#utility.yul\":7391:7409   */\n      0x44\n      dup3\n      add\n        /* \"#utility.yul\":7384:7437   */\n      mstore\n        /* \"#utility.yul\":7454:7472   */\n      0x64\n      add\n        /* \"@thirdweb-dev/contracts/base/ERC20Base.sol\":2060:2106   */\n      tag_162\n        /* \"#utility.yul\":7131:7478   */\n      jump\n        /* \"@thirdweb-dev/contracts/base/ERC20Base.sol\":2060:2106   */\n    tag_169:\n        /* \"@thirdweb-dev/contracts/base/ERC20Base.sol\":2124:2131   */\n      dup1\n        /* \"@thirdweb-dev/contracts/base/ERC20Base.sol\":2135:2136   */\n      0x00\n        /* \"@thirdweb-dev/contracts/base/ERC20Base.sol\":2124:2136   */\n      sub\n        /* \"@thirdweb-dev/contracts/base/ERC20Base.sol\":2116:2161   */\n      tag_172\n      jumpi\n      mload(0x40)\n      shl(0xe5, 0x461bcd)\n      dup2\n      mstore\n        /* \"#utility.yul\":7685:7687   */\n      0x20\n        /* \"@thirdweb-dev/contracts/base/ERC20Base.sol\":2116:2161   */\n      0x04\n      dup3\n      add\n        /* \"#utility.yul\":7667:7688   */\n      mstore\n        /* \"#utility.yul\":7724:7726   */\n      0x14\n        /* \"#utility.yul\":7704:7722   */\n      0x24\n      dup3\n      add\n        /* \"#utility.yul\":7697:7727   */\n      mstore\n        /* \"#utility.yul\":7763:7785   */\n      0x4d696e74696e67207a65726f20746f6b656e732e000000000000000000000000\n        /* \"#utility.yul\":7743:7761   */\n      0x44\n      dup3\n      add\n        /* \"#utility.yul\":7736:7786   */\n      mstore\n        /* \"#utility.yul\":7803:7821   */\n      0x64\n      add\n        /* \"@thirdweb-dev/contracts/base/ERC20Base.sol\":2116:2161   */\n      tag_162\n        /* \"#utility.yul\":7483:7827   */\n      jump\n        /* \"@thirdweb-dev/contracts/base/ERC20Base.sol\":2116:2161   */\n    tag_172:\n        /* \"@thirdweb-dev/contracts/base/ERC20Base.sol\":2172:2191   */\n      tag_175\n        /* \"@thirdweb-dev/contracts/base/ERC20Base.sol\":2178:2181   */\n      dup3\n        /* \"@thirdweb-dev/contracts/base/ERC20Base.sol\":2183:2190   */\n      dup3\n        /* \"@thirdweb-dev/contracts/base/ERC20Base.sol\":2172:2177   */\n      tag_176\n        /* \"@thirdweb-dev/contracts/base/ERC20Base.sol\":2172:2191   */\n      jump\t// in\n    tag_175:\n        /* \"@thirdweb-dev/contracts/base/ERC20Base.sol\":1989:2198   */\n      pop\n      pop\n      jump\t// out\n        /* \"@thirdweb-dev/contracts/base/ERC20Base.sol\":2882:3312   */\n    tag_80:\n        /* \"@thirdweb-dev/contracts/base/ERC20Base.sol\":2979:2989   */\n      tag_179\n        /* \"@thirdweb-dev/contracts/base/ERC20Base.sol\":2979:2987   */\n      tag_136\n        /* \"@thirdweb-dev/contracts/base/ERC20Base.sol\":2979:2989   */\n      jump\t// in\n    tag_179:\n        /* \"@thirdweb-dev/contracts/base/ERC20Base.sol\":2971:3017   */\n      tag_181\n      jumpi\n      mload(0x40)\n      shl(0xe5, 0x461bcd)\n      dup2\n      mstore\n        /* \"#utility.yul\":8034:8036   */\n      0x20\n        /* \"@thirdweb-dev/contracts/base/ERC20Base.sol\":2971:3017   */\n      0x04\n      dup3\n      add\n        /* \"#utility.yul\":8016:8037   */\n      mstore\n        /* \"#utility.yul\":8073:8075   */\n      0x17\n        /* \"#utility.yul\":8053:8071   */\n      0x24\n      dup3\n      add\n        /* \"#utility.yul\":8046:8076   */\n      mstore\n        /* \"#utility.yul\":8112:8137   */\n      0x4e6f7420617574686f72697a656420746f206275726e2e000000000000000000\n        /* \"#utility.yul\":8092:8110   */\n      0x44\n      dup3\n      add\n        /* \"#utility.yul\":8085:8138   */\n      mstore\n        /* \"#utility.yul\":8155:8173   */\n      0x64\n      add\n        /* \"@thirdweb-dev/contracts/base/ERC20Base.sol\":2971:3017   */\n      tag_162\n        /* \"#utility.yul\":7832:8179   */\n      jump\n        /* \"@thirdweb-dev/contracts/base/ERC20Base.sol\":2971:3017   */\n    tag_181:\n        /* \"@thirdweb-dev/contracts/base/ERC20Base.sol\":3058:3065   */\n      dup1\n        /* \"@thirdweb-dev/contracts/base/ERC20Base.sol\":3035:3054   */\n      tag_184\n        /* \"@thirdweb-dev/contracts/base/ERC20Base.sol\":3045:3053   */\n      dup4\n      sub(shl(0xa0, 0x01), 0x01)\n        /* \"@thirdweb-dev/contracts/external-deps/openzeppelin/token/ERC20/ERC20.sol\":3545:3563   */\n      and\n        /* \"@thirdweb-dev/contracts/external-deps/openzeppelin/token/ERC20/ERC20.sol\":3519:3526   */\n      0x00\n        /* \"@thirdweb-dev/contracts/external-deps/openzeppelin/token/ERC20/ERC20.sol\":3545:3563   */\n      swap1\n      dup2\n      mstore\n        /* \"@thirdweb-dev/contracts/external-deps/openzeppelin/token/ERC20/ERC20.sol\":3545:3554   */\n      0x02\n        /* \"@thirdweb-dev/contracts/external-deps/openzeppelin/token/ERC20/ERC20.sol\":3545:3563   */\n      0x20\n      mstore\n      0x40\n      swap1\n      keccak256\n      sload\n      swap1\n        /* \"@thirdweb-dev/contracts/external-deps/openzeppelin/token/ERC20/ERC20.sol\":3445:3570   */\n      jump\n        /* \"@thirdweb-dev/contracts/base/ERC20Base.sol\":3035:3054   */\n    tag_184:\n        /* \"@thirdweb-dev/contracts/base/ERC20Base.sol\":3035:3065   */\n      lt\n      iszero\n        /* \"@thirdweb-dev/contracts/base/ERC20Base.sol\":3027:3088   */\n      tag_185\n      jumpi\n      mload(0x40)\n      shl(0xe5, 0x461bcd)\n      dup2\n      mstore\n        /* \"#utility.yul\":6986:6988   */\n      0x20\n        /* \"@thirdweb-dev/contracts/base/ERC20Base.sol\":3027:3088   */\n      0x04\n      dup3\n      add\n        /* \"#utility.yul\":6968:6989   */\n      mstore\n        /* \"#utility.yul\":7025:7027   */\n      0x12\n        /* \"#utility.yul\":7005:7023   */\n      0x24\n      dup3\n      add\n        /* \"#utility.yul\":6998:7028   */\n      mstore\n        /* \"#utility.yul\":7064:7084   */\n      0x6e6f7420656e6f7567682062616c616e63650000000000000000000000000000\n        /* \"#utility.yul\":7044:7062   */\n      0x44\n      dup3\n      add\n        /* \"#utility.yul\":7037:7085   */\n      mstore\n        /* \"#utility.yul\":7102:7120   */\n      0x64\n      add\n        /* \"@thirdweb-dev/contracts/base/ERC20Base.sol\":3027:3088   */\n      tag_162\n        /* \"#utility.yul\":6784:7126   */\n      jump\n        /* \"@thirdweb-dev/contracts/base/ERC20Base.sol\":3027:3088   */\n    tag_185:\n      sub(shl(0xa0, 0x01), 0x01)\n        /* \"@thirdweb-dev/contracts/external-deps/openzeppelin/token/ERC20/ERC20.sol\":4128:4146   */\n      dup3\n      and\n        /* \"@thirdweb-dev/contracts/base/ERC20Base.sol\":3098:3124   */\n      0x00\n        /* \"@thirdweb-dev/contracts/external-deps/openzeppelin/token/ERC20/ERC20.sol\":4128:4146   */\n      swap1\n      dup2\n      mstore\n        /* \"@thirdweb-dev/contracts/external-deps/openzeppelin/token/ERC20/ERC20.sol\":4128:4139   */\n      0x03\n        /* \"@thirdweb-dev/contracts/external-deps/openzeppelin/token/ERC20/ERC20.sol\":4128:4146   */\n      0x20\n      swap1\n      dup2\n      mstore\n      0x40\n      dup1\n      dup4\n      keccak256\n        /* \"@thirdweb-dev/contracts/base/ERC20Base.sol\":3147:3157   */\n      caller\n        /* \"@thirdweb-dev/contracts/external-deps/openzeppelin/token/ERC20/ERC20.sol\":4128:4155   */\n      dup5\n      mstore\n      swap1\n      swap2\n      mstore\n      dup2\n      keccak256\n      sload\n        /* \"@thirdweb-dev/contracts/base/ERC20Base.sol\":3127:3168   */\n      tag_188\n      swap1\n        /* \"@thirdweb-dev/contracts/base/ERC20Base.sol\":3161:3168   */\n      dup4\n      swap1\n        /* \"@thirdweb-dev/contracts/base/ERC20Base.sol\":3127:3168   */\n      tag_189\n      jump\t// in\n    tag_188:\n        /* \"@thirdweb-dev/contracts/base/ERC20Base.sol\":3098:3168   */\n      swap1\n      pop\n        /* \"@thirdweb-dev/contracts/base/ERC20Base.sol\":3178:3211   */\n      tag_190\n        /* \"@thirdweb-dev/contracts/base/ERC20Base.sol\":3187:3195   */\n      dup4\n        /* \"@thirdweb-dev/contracts/base/ERC20Base.sol\":3197:3207   */\n      caller\n        /* \"@thirdweb-dev/contracts/base/ERC20Base.sol\":3209:3210   */\n      0x00\n        /* \"@thirdweb-dev/contracts/base/ERC20Base.sol\":3178:3186   */\n      tag_133\n        /* \"@thirdweb-dev/contracts/base/ERC20Base.sol\":3178:3211   */\n      jump\t// in\n    tag_190:\n        /* \"@thirdweb-dev/contracts/base/ERC20Base.sol\":3221:3271   */\n      tag_191\n        /* \"@thirdweb-dev/contracts/base/ERC20Base.sol\":3230:3238   */\n      dup4\n        /* \"@thirdweb-dev/contracts/base/ERC20Base.sol\":3240:3250   */\n      caller\n        /* \"@thirdweb-dev/contracts/base/ERC20Base.sol\":3252:3270   */\n      dup4\n        /* \"@thirdweb-dev/contracts/base/ERC20Base.sol\":3221:3229   */\n      tag_133\n        /* \"@thirdweb-dev/contracts/base/ERC20Base.sol\":3221:3271   */\n      jump\t// in\n    tag_191:\n        /* \"@thirdweb-dev/contracts/base/ERC20Base.sol\":3281:3305   */\n      tag_192\n        /* \"@thirdweb-dev/contracts/base/ERC20Base.sol\":3287:3295   */\n      dup4\n        /* \"@thirdweb-dev/contracts/base/ERC20Base.sol\":3297:3304   */\n      dup4\n        /* \"@thirdweb-dev/contracts/base/ERC20Base.sol\":3281:3286   */\n      tag_165\n        /* \"@thirdweb-dev/contracts/base/ERC20Base.sol\":3281:3305   */\n      jump\t// in\n    tag_192:\n        /* \"@thirdweb-dev/contracts/base/ERC20Base.sol\":2961:3312   */\n      pop\n        /* \"@thirdweb-dev/contracts/base/ERC20Base.sol\":2882:3312   */\n      pop\n      pop\n      jump\t// out\n        /* \"@thirdweb-dev/contracts/external-deps/openzeppelin/token/ERC20/extensions/ERC20Permit.sol\":2768:2894   */\n    tag_83:\n      sub(shl(0xa0, 0x01), 0x01)\n        /* \"@thirdweb-dev/contracts/external-deps/openzeppelin/token/ERC20/extensions/ERC20Permit.sol\":2863:2877   */\n      dup2\n      and\n        /* \"@thirdweb-dev/contracts/external-deps/openzeppelin/token/ERC20/extensions/ERC20Permit.sol\":2837:2844   */\n      0x00\n        /* \"@thirdweb-dev/contracts/external-deps/openzeppelin/token/ERC20/extensions/ERC20Permit.sol\":2863:2877   */\n      swap1\n      dup2\n      mstore\n        /* \"@thirdweb-dev/contracts/external-deps/openzeppelin/token/ERC20/extensions/ERC20Permit.sol\":2863:2870   */\n      0x07\n        /* \"@thirdweb-dev/contracts/external-deps/openzeppelin/token/ERC20/extensions/ERC20Permit.sol\":2863:2877   */\n      0x20\n      mstore\n      0x40\n      dup2\n      keccak256\n        /* \"@thirdweb-dev/contracts/external-deps/openzeppelin/utils/Counters.sol\":918:932   */\n      sload\n        /* \"@thirdweb-dev/contracts/external-deps/openzeppelin/token/ERC20/extensions/ERC20Permit.sol\":2863:2887   */\n      tag_129\n        /* \"@thirdweb-dev/contracts/external-deps/openzeppelin/utils/Counters.sol\":827:939   */\n      jump\n        /* \"@thirdweb-dev/contracts/extension/ContractMetadata.sol\":1110:1311   */\n    tag_92:\n        /* \"@thirdweb-dev/contracts/extension/ContractMetadata.sol\":1187:1207   */\n      tag_198\n        /* \"@thirdweb-dev/contracts/extension/ContractMetadata.sol\":1187:1205   */\n      tag_136\n        /* \"@thirdweb-dev/contracts/extension/ContractMetadata.sol\":1187:1207   */\n      jump\t// in\n    tag_198:\n        /* \"@thirdweb-dev/contracts/extension/ContractMetadata.sol\":1182:1271   */\n      tag_200\n      jumpi\n        /* \"@thirdweb-dev/contracts/extension/ContractMetadata.sol\":1230:1260   */\n      mload(0x40)\n      shl(0xe0, 0x9f7f0925)\n      dup2\n      mstore\n      0x04\n      add\n      mload(0x40)\n      dup1\n      swap2\n      sub\n      swap1\n      revert\n        /* \"@thirdweb-dev/contracts/extension/ContractMetadata.sol\":1182:1271   */\n    tag_200:\n        /* \"@thirdweb-dev/contracts/extension/ContractMetadata.sol\":1281:1304   */\n      tag_138\n        /* \"@thirdweb-dev/contracts/extension/ContractMetadata.sol\":1299:1303   */\n      dup2\n        /* \"@thirdweb-dev/contracts/extension/ContractMetadata.sol\":1281:1298   */\n      tag_202\n        /* \"@thirdweb-dev/contracts/extension/ContractMetadata.sol\":1281:1304   */\n      jump\t// in\n        /* \"@thirdweb-dev/contracts/external-deps/openzeppelin/token/ERC20/ERC20.sol\":2404:2506   */\n    tag_94:\n        /* \"@thirdweb-dev/contracts/external-deps/openzeppelin/token/ERC20/ERC20.sol\":2460:2473   */\n      0x60\n        /* \"@thirdweb-dev/contracts/external-deps/openzeppelin/token/ERC20/ERC20.sol\":2492:2499   */\n      0x06\n        /* \"@thirdweb-dev/contracts/external-deps/openzeppelin/token/ERC20/ERC20.sol\":2485:2499   */\n      dup1\n      sload\n      tag_123\n      swap1\n      tag_124\n      jump\t// in\n        /* \"@thirdweb-dev/contracts/external-deps/openzeppelin/token/ERC20/ERC20.sol\":6603:7032   */\n    tag_98:\n        /* \"@thirdweb-dev/contracts/base/ERC20Base.sol\":4478:4488   */\n      caller\n        /* \"@thirdweb-dev/contracts/external-deps/openzeppelin/token/ERC20/ERC20.sol\":6696:6700   */\n      0x00\n        /* \"@thirdweb-dev/contracts/external-deps/openzeppelin/token/ERC20/ERC20.sol\":6777:6795   */\n      dup2\n      dup2\n      mstore\n        /* \"@thirdweb-dev/contracts/external-deps/openzeppelin/token/ERC20/ERC20.sol\":6777:6788   */\n      0x03\n        /* \"@thirdweb-dev/contracts/external-deps/openzeppelin/token/ERC20/ERC20.sol\":6777:6795   */\n      0x20\n      swap1\n      dup2\n      mstore\n      0x40\n      dup1\n      dup4\n      keccak256\n      sub(shl(0xa0, 0x01), 0x01)\n        /* \"@thirdweb-dev/contracts/external-deps/openzeppelin/token/ERC20/ERC20.sol\":6777:6804   */\n      dup8\n      and\n      dup5\n      mstore\n      swap1\n      swap2\n      mstore\n      dup2\n      keccak256\n      sload\n        /* \"@thirdweb-dev/contracts/external-deps/openzeppelin/token/ERC20/ERC20.sol\":6696:6700   */\n      swap1\n      swap2\n        /* \"@thirdweb-dev/contracts/base/ERC20Base.sol\":4478:4488   */\n      swap1\n        /* \"@thirdweb-dev/contracts/external-deps/openzeppelin/token/ERC20/ERC20.sol\":6822:6857   */\n      dup4\n      dup2\n      lt\n      iszero\n        /* \"@thirdweb-dev/contracts/external-deps/openzeppelin/token/ERC20/ERC20.sol\":6814:6899   */\n      tag_211\n      jumpi\n      mload(0x40)\n      shl(0xe5, 0x461bcd)\n      dup2\n      mstore\n        /* \"#utility.yul\":8519:8521   */\n      0x20\n        /* \"@thirdweb-dev/contracts/external-deps/openzeppelin/token/ERC20/ERC20.sol\":6814:6899   */\n      0x04\n      dup3\n      add\n        /* \"#utility.yul\":8501:8522   */\n      mstore\n        /* \"#utility.yul\":8558:8560   */\n      0x25\n        /* \"#utility.yul\":8538:8556   */\n      0x24\n      dup3\n      add\n        /* \"#utility.yul\":8531:8561   */\n      mstore\n        /* \"#utility.yul\":8597:8631   */\n      0x45524332303a2064656372656173656420616c6c6f77616e63652062656c6f77\n        /* \"#utility.yul\":8577:8595   */\n      0x44\n      dup3\n      add\n        /* \"#utility.yul\":8570:8632   */\n      mstore\n        /* \"#utility.yul\":8668:8675   */\n      0x207a65726f000000000000000000000000000000000000000000000000000000\n        /* \"#utility.yul\":8648:8666   */\n      0x64\n      dup3\n      add\n        /* \"#utility.yul\":8641:8676   */\n      mstore\n        /* \"#utility.yul\":8693:8712   */\n      0x84\n      add\n        /* \"@thirdweb-dev/contracts/external-deps/openzeppelin/token/ERC20/ERC20.sol\":6814:6899   */\n      tag_162\n        /* \"#utility.yul\":8317:8718   */\n      jump\n        /* \"@thirdweb-dev/contracts/external-deps/openzeppelin/token/ERC20/ERC20.sol\":6814:6899   */\n    tag_211:\n        /* \"@thirdweb-dev/contracts/external-deps/openzeppelin/token/ERC20/ERC20.sol\":6933:6993   */\n      tag_145\n        /* \"@thirdweb-dev/contracts/external-deps/openzeppelin/token/ERC20/ERC20.sol\":6942:6947   */\n      dup3\n        /* \"@thirdweb-dev/contracts/external-deps/openzeppelin/token/ERC20/ERC20.sol\":6949:6956   */\n      dup7\n        /* \"@thirdweb-dev/contracts/external-deps/openzeppelin/token/ERC20/ERC20.sol\":6977:6992   */\n      dup7\n        /* \"@thirdweb-dev/contracts/external-deps/openzeppelin/token/ERC20/ERC20.sol\":6958:6974   */\n      dup5\n        /* \"@thirdweb-dev/contracts/external-deps/openzeppelin/token/ERC20/ERC20.sol\":6958:6992   */\n      sub\n        /* \"@thirdweb-dev/contracts/external-deps/openzeppelin/token/ERC20/ERC20.sol\":6933:6941   */\n      tag_133\n        /* \"@thirdweb-dev/contracts/external-deps/openzeppelin/token/ERC20/ERC20.sol\":6933:6993   */\n      jump\t// in\n        /* \"@thirdweb-dev/contracts/external-deps/openzeppelin/token/ERC20/ERC20.sol\":3766:3955   */\n    tag_102:\n        /* \"@thirdweb-dev/contracts/external-deps/openzeppelin/token/ERC20/ERC20.sol\":3845:3849   */\n      0x00\n        /* \"@thirdweb-dev/contracts/base/ERC20Base.sol\":4478:4488   */\n      caller\n        /* \"@thirdweb-dev/contracts/external-deps/openzeppelin/token/ERC20/ERC20.sol\":3899:3927   */\n      tag_132\n        /* \"@thirdweb-dev/contracts/base/ERC20Base.sol\":4478:4488   */\n      dup2\n        /* \"@thirdweb-dev/contracts/external-deps/openzeppelin/token/ERC20/ERC20.sol\":3916:3918   */\n      dup6\n        /* \"@thirdweb-dev/contracts/external-deps/openzeppelin/token/ERC20/ERC20.sol\":3920:3926   */\n      dup6\n        /* \"@thirdweb-dev/contracts/external-deps/openzeppelin/token/ERC20/ERC20.sol\":3899:3908   */\n      tag_146\n        /* \"@thirdweb-dev/contracts/external-deps/openzeppelin/token/ERC20/ERC20.sol\":3899:3927   */\n      jump\t// in\n        /* \"@thirdweb-dev/contracts/extension/Multicall.sol\":696:1263   */\n    tag_107:\n        /* \"@thirdweb-dev/contracts/extension/Multicall.sol\":756:778   */\n      0x60\n        /* \"@thirdweb-dev/contracts/extension/Multicall.sol\":812:816   */\n      dup2\n        /* \"@thirdweb-dev/contracts/extension/Multicall.sol\":800:824   */\n      0xffffffffffffffff\n      dup2\n      gt\n      iszero\n      tag_220\n      jumpi\n      tag_220\n      tag_221\n      jump\t// in\n    tag_220:\n      mload(0x40)\n      swap1\n      dup1\n      dup3\n      mstore\n      dup1\n      0x20\n      mul\n      0x20\n      add\n      dup3\n      add\n      0x40\n      mstore\n      dup1\n      iszero\n      tag_222\n      jumpi\n      dup2\n      0x20\n      add\n    tag_223:\n      0x60\n      dup2\n      mstore\n      0x20\n      add\n      swap1\n      0x01\n      swap1\n      sub\n      swap1\n      dup2\n      tag_223\n      jumpi\n      swap1\n      pop\n    tag_222:\n      pop\n        /* \"@thirdweb-dev/contracts/extension/Multicall.sol\":790:824   */\n      swap1\n      pop\n        /* \"@thirdweb-dev/contracts/base/ERC20Base.sol\":4478:4488   */\n      caller\n        /* \"@thirdweb-dev/contracts/extension/Multicall.sol\":834:848   */\n      0x00\n      dup1\n        /* \"@thirdweb-dev/contracts/extension/Multicall.sol\":922:1233   */\n    tag_225:\n        /* \"@thirdweb-dev/contracts/extension/Multicall.sol\":942:957   */\n      dup5\n      dup2\n      lt\n        /* \"@thirdweb-dev/contracts/extension/Multicall.sol\":922:1233   */\n      iszero\n      tag_226\n      jumpi\n        /* \"@thirdweb-dev/contracts/extension/Multicall.sol\":982:993   */\n      dup2\n        /* \"@thirdweb-dev/contracts/extension/Multicall.sol\":978:1223   */\n      iszero\n      tag_228\n      jumpi\n        /* \"@thirdweb-dev/contracts/extension/Multicall.sol\":1026:1104   */\n      tag_229\n        /* \"@thirdweb-dev/contracts/extension/Multicall.sol\":1063:1067   */\n      address\n        /* \"@thirdweb-dev/contracts/extension/Multicall.sol\":1087:1091   */\n      dup8\n      dup8\n        /* \"@thirdweb-dev/contracts/extension/Multicall.sol\":1092:1093   */\n      dup5\n        /* \"@thirdweb-dev/contracts/extension/Multicall.sol\":1087:1094   */\n      dup2\n      dup2\n      lt\n      tag_231\n      jumpi\n      tag_231\n      tag_232\n      jump\t// in\n    tag_231:\n      swap1\n      pop\n      0x20\n      mul\n      dup2\n      add\n      swap1\n      tag_233\n      swap2\n      swap1\n      tag_234\n      jump\t// in\n    tag_233:\n        /* \"@thirdweb-dev/contracts/extension/Multicall.sol\":1096:1102   */\n      dup7\n        /* \"@thirdweb-dev/contracts/extension/Multicall.sol\":1070:1103   */\n      add(0x20, mload(0x40))\n      tag_235\n      swap4\n      swap3\n      swap2\n      swap1\n      tag_236\n      jump\t// in\n    tag_235:\n      mload(0x40)\n      0x20\n      dup2\n      dup4\n      sub\n      sub\n      dup2\n      mstore\n      swap1\n      0x40\n      mstore\n        /* \"@thirdweb-dev/contracts/extension/Multicall.sol\":1026:1054   */\n      tag_237\n        /* \"@thirdweb-dev/contracts/extension/Multicall.sol\":1026:1104   */\n      jump\t// in\n    tag_229:\n        /* \"@thirdweb-dev/contracts/extension/Multicall.sol\":1013:1020   */\n      dup5\n        /* \"@thirdweb-dev/contracts/extension/Multicall.sol\":1021:1022   */\n      dup3\n        /* \"@thirdweb-dev/contracts/extension/Multicall.sol\":1013:1023   */\n      dup2\n      mload\n      dup2\n      lt\n      tag_239\n      jumpi\n      tag_239\n      tag_232\n      jump\t// in\n    tag_239:\n      0x20\n      mul\n      0x20\n      add\n      add\n        /* \"@thirdweb-dev/contracts/extension/Multicall.sol\":1013:1104   */\n      dup2\n      swap1\n      mstore\n      pop\n        /* \"@thirdweb-dev/contracts/extension/Multicall.sol\":978:1223   */\n      jump(tag_240)\n    tag_228:\n        /* \"@thirdweb-dev/contracts/extension/Multicall.sol\":1156:1208   */\n      tag_241\n        /* \"@thirdweb-dev/contracts/extension/Multicall.sol\":1193:1197   */\n      address\n        /* \"@thirdweb-dev/contracts/extension/Multicall.sol\":1200:1204   */\n      dup8\n      dup8\n        /* \"@thirdweb-dev/contracts/extension/Multicall.sol\":1205:1206   */\n      dup5\n        /* \"@thirdweb-dev/contracts/extension/Multicall.sol\":1200:1207   */\n      dup2\n      dup2\n      lt\n      tag_243\n      jumpi\n      tag_243\n      tag_232\n      jump\t// in\n    tag_243:\n      swap1\n      pop\n      0x20\n      mul\n      dup2\n      add\n      swap1\n      tag_244\n      swap2\n      swap1\n      tag_234\n      jump\t// in\n    tag_244:\n        /* \"@thirdweb-dev/contracts/extension/Multicall.sol\":1156:1208   */\n      dup1\n      dup1\n      0x1f\n      add\n      0x20\n      dup1\n      swap2\n      div\n      mul\n      0x20\n      add\n      mload(0x40)\n      swap1\n      dup2\n      add\n      0x40\n      mstore\n      dup1\n      swap4\n      swap3\n      swap2\n      swap1\n      dup2\n      dup2\n      mstore\n      0x20\n      add\n      dup4\n      dup4\n      dup1\n      dup3\n      dup5\n      calldatacopy\n      0x00\n      swap3\n      add\n      swap2\n      swap1\n      swap2\n      mstore\n      pop\n        /* \"@thirdweb-dev/contracts/extension/Multicall.sol\":1156:1184   */\n      tag_237\n      swap3\n      pop\n      pop\n      pop\n        /* \"@thirdweb-dev/contracts/extension/Multicall.sol\":1156:1208   */\n      jump\t// in\n    tag_241:\n        /* \"@thirdweb-dev/contracts/extension/Multicall.sol\":1143:1150   */\n      dup5\n        /* \"@thirdweb-dev/contracts/extension/Multicall.sol\":1151:1152   */\n      dup3\n        /* \"@thirdweb-dev/contracts/extension/Multicall.sol\":1143:1153   */\n      dup2\n      mload\n      dup2\n      lt\n      tag_246\n      jumpi\n      tag_246\n      tag_232\n      jump\t// in\n    tag_246:\n      0x20\n      mul\n      0x20\n      add\n      add\n        /* \"@thirdweb-dev/contracts/extension/Multicall.sol\":1143:1208   */\n      dup2\n      swap1\n      mstore\n      pop\n        /* \"@thirdweb-dev/contracts/extension/Multicall.sol\":978:1223   */\n    tag_240:\n        /* \"@thirdweb-dev/contracts/extension/Multicall.sol\":959:962   */\n      0x01\n      add\n        /* \"@thirdweb-dev/contracts/extension/Multicall.sol\":922:1233   */\n      jump(tag_225)\n    tag_226:\n      pop\n        /* \"@thirdweb-dev/contracts/extension/Multicall.sol\":1242:1256   */\n      pop\n      pop\n        /* \"@thirdweb-dev/contracts/extension/Multicall.sol\":696:1263   */\n      swap3\n      swap2\n      pop\n      pop\n      jump\t// out\n        /* \"@thirdweb-dev/contracts/external-deps/openzeppelin/token/ERC20/extensions/ERC20Permit.sol\":2056:2707   */\n    tag_113:\n        /* \"@thirdweb-dev/contracts/external-deps/openzeppelin/token/ERC20/extensions/ERC20Permit.sol\":2291:2299   */\n      dup4\n        /* \"@thirdweb-dev/contracts/external-deps/openzeppelin/token/ERC20/extensions/ERC20Permit.sol\":2272:2287   */\n      timestamp\n        /* \"@thirdweb-dev/contracts/external-deps/openzeppelin/token/ERC20/extensions/ERC20Permit.sol\":2272:2299   */\n      gt\n      iszero\n        /* \"@thirdweb-dev/contracts/external-deps/openzeppelin/token/ERC20/extensions/ERC20Permit.sol\":2264:2333   */\n      tag_248\n      jumpi\n      mload(0x40)\n      shl(0xe5, 0x461bcd)\n      dup2\n      mstore\n        /* \"#utility.yul\":9948:9950   */\n      0x20\n        /* \"@thirdweb-dev/contracts/external-deps/openzeppelin/token/ERC20/extensions/ERC20Permit.sol\":2264:2333   */\n      0x04\n      dup3\n      add\n        /* \"#utility.yul\":9930:9951   */\n      mstore\n        /* \"#utility.yul\":9987:9989   */\n      0x1d\n        /* \"#utility.yul\":9967:9985   */\n      0x24\n      dup3\n      add\n        /* \"#utility.yul\":9960:9990   */\n      mstore\n        /* \"#utility.yul\":10026:10057   */\n      0x45524332305065726d69743a206578706972656420646561646c696e65000000\n        /* \"#utility.yul\":10006:10024   */\n      0x44\n      dup3\n      add\n        /* \"#utility.yul\":9999:10058   */\n      mstore\n        /* \"#utility.yul\":10075:10093   */\n      0x64\n      add\n        /* \"@thirdweb-dev/contracts/external-deps/openzeppelin/token/ERC20/extensions/ERC20Permit.sol\":2264:2333   */\n      tag_162\n        /* \"#utility.yul\":9746:10099   */\n      jump\n        /* \"@thirdweb-dev/contracts/external-deps/openzeppelin/token/ERC20/extensions/ERC20Permit.sol\":2264:2333   */\n    tag_248:\n        /* \"@thirdweb-dev/contracts/external-deps/openzeppelin/token/ERC20/extensions/ERC20Permit.sol\":2344:2362   */\n      0x00\n        /* \"@thirdweb-dev/contracts/external-deps/openzeppelin/token/ERC20/extensions/ERC20Permit.sol\":2386:2402   */\n      immutable(\"0x22615f586e4a86b23ead367df957a03709c50c3e9f8d9d951d77eb93984a0744\")\n        /* \"@thirdweb-dev/contracts/external-deps/openzeppelin/token/ERC20/extensions/ERC20Permit.sol\":2404:2409   */\n      dup9\n        /* \"@thirdweb-dev/contracts/external-deps/openzeppelin/token/ERC20/extensions/ERC20Permit.sol\":2411:2418   */\n      dup9\n        /* \"@thirdweb-dev/contracts/external-deps/openzeppelin/token/ERC20/extensions/ERC20Permit.sol\":2420:2425   */\n      dup9\n        /* \"@thirdweb-dev/contracts/external-deps/openzeppelin/token/ERC20/extensions/ERC20Permit.sol\":2427:2443   */\n      tag_251\n        /* \"@thirdweb-dev/contracts/external-deps/openzeppelin/token/ERC20/extensions/ERC20Permit.sol\":2437:2442   */\n      dup13\n        /* \"@thirdweb-dev/contracts/external-deps/openzeppelin/token/ERC20/extensions/ERC20Permit.sol\":2427:2436   */\n      tag_252\n        /* \"@thirdweb-dev/contracts/external-deps/openzeppelin/token/ERC20/extensions/ERC20Permit.sol\":2427:2443   */\n      jump\t// in\n    tag_251:\n        /* \"@thirdweb-dev/contracts/external-deps/openzeppelin/token/ERC20/extensions/ERC20Permit.sol\":2375:2454   */\n      0x40\n      dup1\n      mload\n      0x20\n      dup2\n      add\n        /* \"#utility.yul\":10391:10416   */\n      swap7\n      swap1\n      swap7\n      mstore\n      sub(shl(0xa0, 0x01), 0x01)\n        /* \"#utility.yul\":10513:10528   */\n      swap5\n      dup6\n      and\n        /* \"#utility.yul\":10493:10511   */\n      swap1\n      dup7\n      add\n        /* \"#utility.yul\":10486:10529   */\n      mstore\n        /* \"#utility.yul\":10565:10580   */\n      swap3\n      swap1\n      swap2\n      and\n        /* \"#utility.yul\":10545:10563   */\n      0x60\n      dup5\n      add\n        /* \"#utility.yul\":10538:10581   */\n      mstore\n        /* \"#utility.yul\":10597:10615   */\n      0x80\n      dup4\n      add\n        /* \"#utility.yul\":10590:10624   */\n      mstore\n        /* \"#utility.yul\":10640:10659   */\n      0xa0\n      dup3\n      add\n        /* \"#utility.yul\":10633:10668   */\n      mstore\n        /* \"#utility.yul\":10684:10703   */\n      0xc0\n      dup2\n      add\n        /* \"#utility.yul\":10677:10712   */\n      dup7\n      swap1\n      mstore\n        /* \"#utility.yul\":10363:10382   */\n      0xe0\n      add\n        /* \"@thirdweb-dev/contracts/external-deps/openzeppelin/token/ERC20/extensions/ERC20Permit.sol\":2375:2454   */\n      mload(0x40)\n      0x20\n      dup2\n      dup4\n      sub\n      sub\n      dup2\n      mstore\n      swap1\n      0x40\n      mstore\n        /* \"@thirdweb-dev/contracts/external-deps/openzeppelin/token/ERC20/extensions/ERC20Permit.sol\":2365:2455   */\n      dup1\n      mload\n      swap1\n      0x20\n      add\n      keccak256\n        /* \"@thirdweb-dev/contracts/external-deps/openzeppelin/token/ERC20/extensions/ERC20Permit.sol\":2344:2455   */\n      swap1\n      pop\n        /* \"@thirdweb-dev/contracts/external-deps/openzeppelin/token/ERC20/extensions/ERC20Permit.sol\":2466:2478   */\n      0x00\n        /* \"@thirdweb-dev/contracts/external-deps/openzeppelin/token/ERC20/extensions/ERC20Permit.sol\":2481:2534   */\n      tag_255\n        /* \"@thirdweb-dev/contracts/external-deps/openzeppelin/token/ERC20/extensions/ERC20Permit.sol\":2503:2521   */\n      tag_256\n        /* \"@thirdweb-dev/contracts/external-deps/openzeppelin/token/ERC20/extensions/ERC20Permit.sol\":2503:2519   */\n      tag_60\n        /* \"@thirdweb-dev/contracts/external-deps/openzeppelin/token/ERC20/extensions/ERC20Permit.sol\":2503:2521   */\n      jump\t// in\n    tag_256:\n        /* \"@thirdweb-dev/contracts/external-deps/openzeppelin/token/ERC20/extensions/ERC20Permit.sol\":2523:2533   */\n      dup4\n        /* \"@thirdweb-dev/contracts/external-deps/openzeppelin/utils/cryptography/ECDSA.sol\":8549:8553   */\n      0x40\n        /* \"@thirdweb-dev/contracts/external-deps/openzeppelin/utils/cryptography/ECDSA.sol\":8543:8554   */\n      mload\n      shl(0xf0, 0x1901)\n        /* \"@thirdweb-dev/contracts/external-deps/openzeppelin/utils/cryptography/ECDSA.sol\":8567:8590   */\n      dup2\n      mstore\n        /* \"@thirdweb-dev/contracts/external-deps/openzeppelin/utils/cryptography/ECDSA.sol\":8619:8623   */\n      0x02\n        /* \"@thirdweb-dev/contracts/external-deps/openzeppelin/utils/cryptography/ECDSA.sol\":8610:8624   */\n      dup2\n      add\n        /* \"@thirdweb-dev/contracts/external-deps/openzeppelin/utils/cryptography/ECDSA.sol\":8603:8642   */\n      swap3\n      swap1\n      swap3\n      mstore\n        /* \"@thirdweb-dev/contracts/external-deps/openzeppelin/utils/cryptography/ECDSA.sol\":8671:8675   */\n      0x22\n        /* \"@thirdweb-dev/contracts/external-deps/openzeppelin/utils/cryptography/ECDSA.sol\":8662:8676   */\n      dup3\n      add\n        /* \"@thirdweb-dev/contracts/external-deps/openzeppelin/utils/cryptography/ECDSA.sol\":8655:8689   */\n      mstore\n        /* \"@thirdweb-dev/contracts/external-deps/openzeppelin/utils/cryptography/ECDSA.sol\":8725:8729   */\n      0x42\n        /* \"@thirdweb-dev/contracts/external-deps/openzeppelin/utils/cryptography/ECDSA.sol\":8710:8730   */\n      swap1\n      keccak256\n      swap1\n        /* \"@thirdweb-dev/contracts/external-deps/openzeppelin/utils/cryptography/ECDSA.sol\":8349:8746   */\n      jump\n        /* \"@thirdweb-dev/contracts/external-deps/openzeppelin/token/ERC20/extensions/ERC20Permit.sol\":2481:2534   */\n    tag_255:\n        /* \"@thirdweb-dev/contracts/external-deps/openzeppelin/token/ERC20/extensions/ERC20Permit.sol\":2466:2534   */\n      swap1\n      pop\n        /* \"@thirdweb-dev/contracts/external-deps/openzeppelin/token/ERC20/extensions/ERC20Permit.sol\":2545:2559   */\n      0x00\n        /* \"@thirdweb-dev/contracts/external-deps/openzeppelin/token/ERC20/extensions/ERC20Permit.sol\":2562:2590   */\n      tag_258\n        /* \"@thirdweb-dev/contracts/external-deps/openzeppelin/token/ERC20/extensions/ERC20Permit.sol\":2576:2580   */\n      dup3\n        /* \"@thirdweb-dev/contracts/external-deps/openzeppelin/token/ERC20/extensions/ERC20Permit.sol\":2582:2583   */\n      dup8\n        /* \"@thirdweb-dev/contracts/external-deps/openzeppelin/token/ERC20/extensions/ERC20Permit.sol\":2585:2586   */\n      dup8\n        /* \"@thirdweb-dev/contracts/external-deps/openzeppelin/token/ERC20/extensions/ERC20Permit.sol\":2588:2589   */\n      dup8\n        /* \"@thirdweb-dev/contracts/external-deps/openzeppelin/token/ERC20/extensions/ERC20Permit.sol\":2562:2575   */\n      tag_259\n        /* \"@thirdweb-dev/contracts/external-deps/openzeppelin/token/ERC20/extensions/ERC20Permit.sol\":2562:2590   */\n      jump\t// in\n    tag_258:\n        /* \"@thirdweb-dev/contracts/external-deps/openzeppelin/token/ERC20/extensions/ERC20Permit.sol\":2545:2590   */\n      swap1\n      pop\n        /* \"@thirdweb-dev/contracts/external-deps/openzeppelin/token/ERC20/extensions/ERC20Permit.sol\":2618:2623   */\n      dup10\n      sub(shl(0xa0, 0x01), 0x01)\n        /* \"@thirdweb-dev/contracts/external-deps/openzeppelin/token/ERC20/extensions/ERC20Permit.sol\":2608:2623   */\n      and\n        /* \"@thirdweb-dev/contracts/external-deps/openzeppelin/token/ERC20/extensions/ERC20Permit.sol\":2608:2614   */\n      dup2\n      sub(shl(0xa0, 0x01), 0x01)\n        /* \"@thirdweb-dev/contracts/external-deps/openzeppelin/token/ERC20/extensions/ERC20Permit.sol\":2608:2623   */\n      and\n      eq\n        /* \"@thirdweb-dev/contracts/external-deps/openzeppelin/token/ERC20/extensions/ERC20Permit.sol\":2600:2658   */\n      tag_260\n      jumpi\n      mload(0x40)\n      shl(0xe5, 0x461bcd)\n      dup2\n      mstore\n        /* \"#utility.yul\":10925:10927   */\n      0x20\n        /* \"@thirdweb-dev/contracts/external-deps/openzeppelin/token/ERC20/extensions/ERC20Permit.sol\":2600:2658   */\n      0x04\n      dup3\n      add\n        /* \"#utility.yul\":10907:10928   */\n      mstore\n        /* \"#utility.yul\":10964:10966   */\n      0x1e\n        /* \"#utility.yul\":10944:10962   */\n      0x24\n      dup3\n      add\n        /* \"#utility.yul\":10937:10967   */\n      mstore\n        /* \"#utility.yul\":11003:11035   */\n      0x45524332305065726d69743a20696e76616c6964207369676e61747572650000\n        /* \"#utility.yul\":10983:11001   */\n      0x44\n      dup3\n      add\n        /* \"#utility.yul\":10976:11036   */\n      mstore\n        /* \"#utility.yul\":11053:11071   */\n      0x64\n      add\n        /* \"@thirdweb-dev/contracts/external-deps/openzeppelin/token/ERC20/extensions/ERC20Permit.sol\":2600:2658   */\n      tag_162\n        /* \"#utility.yul\":10723:11077   */\n      jump\n        /* \"@thirdweb-dev/contracts/external-deps/openzeppelin/token/ERC20/extensions/ERC20Permit.sol\":2600:2658   */\n    tag_260:\n        /* \"@thirdweb-dev/contracts/external-deps/openzeppelin/token/ERC20/extensions/ERC20Permit.sol\":2669:2700   */\n      tag_263\n        /* \"@thirdweb-dev/contracts/external-deps/openzeppelin/token/ERC20/extensions/ERC20Permit.sol\":2678:2683   */\n      dup11\n        /* \"@thirdweb-dev/contracts/external-deps/openzeppelin/token/ERC20/extensions/ERC20Permit.sol\":2685:2692   */\n      dup11\n        /* \"@thirdweb-dev/contracts/external-deps/openzeppelin/token/ERC20/extensions/ERC20Permit.sol\":2694:2699   */\n      dup11\n        /* \"@thirdweb-dev/contracts/external-deps/openzeppelin/token/ERC20/extensions/ERC20Permit.sol\":2669:2677   */\n      tag_133\n        /* \"@thirdweb-dev/contracts/external-deps/openzeppelin/token/ERC20/extensions/ERC20Permit.sol\":2669:2700   */\n      jump\t// in\n    tag_263:\n        /* \"@thirdweb-dev/contracts/external-deps/openzeppelin/token/ERC20/extensions/ERC20Permit.sol\":2254:2707   */\n      pop\n      pop\n      pop\n        /* \"@thirdweb-dev/contracts/external-deps/openzeppelin/token/ERC20/extensions/ERC20Permit.sol\":2056:2707   */\n      pop\n      pop\n      pop\n      pop\n      pop\n      pop\n      pop\n      jump\t// out\n        /* \"@thirdweb-dev/contracts/extension/ContractMetadata.sol\":672:706   */\n    tag_120:\n      0x00\n      dup1\n      sload\n      tag_265\n      swap1\n      tag_124\n      jump\t// in\n    tag_265:\n      dup1\n      0x1f\n      add\n      0x20\n      dup1\n      swap2\n      div\n      mul\n      0x20\n      add\n      mload(0x40)\n      swap1\n      dup2\n      add\n      0x40\n      mstore\n      dup1\n      swap3\n      swap2\n      swap1\n      dup2\n      dup2\n      mstore\n      0x20\n      add\n      dup3\n      dup1\n      sload\n      tag_266\n      swap1\n      tag_124\n      jump\t// in\n    tag_266:\n      dup1\n      iszero\n      tag_267\n      jumpi\n      dup1\n      0x1f\n      lt\n      tag_268\n      jumpi\n      0x0100\n      dup1\n      dup4\n      sload\n      div\n      mul\n      dup4\n      mstore\n      swap2\n      0x20\n      add\n      swap2\n      jump(tag_267)\n    tag_268:\n      dup3\n      add\n      swap2\n      swap1\n      0x00\n      mstore\n      keccak256(0x00, 0x20)\n      swap1\n    tag_269:\n      dup2\n      sload\n      dup2\n      mstore\n      swap1\n      0x01\n      add\n      swap1\n      0x20\n      add\n      dup1\n      dup4\n      gt\n      tag_269\n      jumpi\n      dup3\n      swap1\n      sub\n      0x1f\n      and\n      dup3\n      add\n      swap2\n    tag_267:\n      pop\n      pop\n      pop\n      pop\n      pop\n      dup2\n      jump\t// out\n        /* \"@thirdweb-dev/contracts/external-deps/openzeppelin/token/ERC20/ERC20.sol\":10100:10440   */\n    tag_133:\n      sub(shl(0xa0, 0x01), 0x01)\n        /* \"@thirdweb-dev/contracts/external-deps/openzeppelin/token/ERC20/ERC20.sol\":10201:10220   */\n      dup4\n      and\n        /* \"@thirdweb-dev/contracts/external-deps/openzeppelin/token/ERC20/ERC20.sol\":10193:10261   */\n      tag_272\n      jumpi\n      mload(0x40)\n      shl(0xe5, 0x461bcd)\n      dup2\n      mstore\n        /* \"#utility.yul\":11284:11286   */\n      0x20\n        /* \"@thirdweb-dev/contracts/external-deps/openzeppelin/token/ERC20/ERC20.sol\":10193:10261   */\n      0x04\n      dup3\n      add\n        /* \"#utility.yul\":11266:11287   */\n      mstore\n        /* \"#utility.yul\":11323:11325   */\n      0x24\n        /* \"#utility.yul\":11303:11321   */\n      dup1\n      dup3\n      add\n        /* \"#utility.yul\":11296:11326   */\n      mstore\n        /* \"#utility.yul\":11362:11396   */\n      0x45524332303a20617070726f76652066726f6d20746865207a65726f20616464\n        /* \"#utility.yul\":11342:11360   */\n      0x44\n      dup3\n      add\n        /* \"#utility.yul\":11335:11397   */\n      mstore\n      shl(0xe0, 0x72657373)\n        /* \"#utility.yul\":11413:11431   */\n      0x64\n      dup3\n      add\n        /* \"#utility.yul\":11406:11440   */\n      mstore\n        /* \"#utility.yul\":11457:11476   */\n      0x84\n      add\n        /* \"@thirdweb-dev/contracts/external-deps/openzeppelin/token/ERC20/ERC20.sol\":10193:10261   */\n      tag_162\n        /* \"#utility.yul\":11082:11482   */\n      jump\n        /* \"@thirdweb-dev/contracts/external-deps/openzeppelin/token/ERC20/ERC20.sol\":10193:10261   */\n    tag_272:\n      sub(shl(0xa0, 0x01), 0x01)\n        /* \"@thirdweb-dev/contracts/external-deps/openzeppelin/token/ERC20/ERC20.sol\":10279:10300   */\n      dup3\n      and\n        /* \"@thirdweb-dev/contracts/external-deps/openzeppelin/token/ERC20/ERC20.sol\":10271:10339   */\n      tag_275\n      jumpi\n      mload(0x40)\n      shl(0xe5, 0x461bcd)\n      dup2\n      mstore\n        /* \"#utility.yul\":11689:11691   */\n      0x20\n        /* \"@thirdweb-dev/contracts/external-deps/openzeppelin/token/ERC20/ERC20.sol\":10271:10339   */\n      0x04\n      dup3\n      add\n        /* \"#utility.yul\":11671:11692   */\n      mstore\n        /* \"#utility.yul\":11728:11730   */\n      0x22\n        /* \"#utility.yul\":11708:11726   */\n      0x24\n      dup3\n      add\n        /* \"#utility.yul\":11701:11731   */\n      mstore\n        /* \"#utility.yul\":11767:11801   */\n      0x45524332303a20617070726f766520746f20746865207a65726f206164647265\n        /* \"#utility.yul\":11747:11765   */\n      0x44\n      dup3\n      add\n        /* \"#utility.yul\":11740:11802   */\n      mstore\n      shl(0xf0, 0x7373)\n        /* \"#utility.yul\":11818:11836   */\n      0x64\n      dup3\n      add\n        /* \"#utility.yul\":11811:11843   */\n      mstore\n        /* \"#utility.yul\":11860:11879   */\n      0x84\n      add\n        /* \"@thirdweb-dev/contracts/external-deps/openzeppelin/token/ERC20/ERC20.sol\":10271:10339   */\n      tag_162\n        /* \"#utility.yul\":11487:11885   */\n      jump\n        /* \"@thirdweb-dev/contracts/external-deps/openzeppelin/token/ERC20/ERC20.sol\":10271:10339   */\n    tag_275:\n      sub(shl(0xa0, 0x01), 0x01)\n        /* \"@thirdweb-dev/contracts/external-deps/openzeppelin/token/ERC20/ERC20.sol\":10350:10368   */\n      dup4\n      dup2\n      and\n      0x00\n      dup2\n      dup2\n      mstore\n        /* \"@thirdweb-dev/contracts/external-deps/openzeppelin/token/ERC20/ERC20.sol\":10350:10361   */\n      0x03\n        /* \"@thirdweb-dev/contracts/external-deps/openzeppelin/token/ERC20/ERC20.sol\":10350:10368   */\n      0x20\n      swap1\n      dup2\n      mstore\n      0x40\n      dup1\n      dup4\n      keccak256\n        /* \"@thirdweb-dev/contracts/external-deps/openzeppelin/token/ERC20/ERC20.sol\":10350:10377   */\n      swap5\n      dup8\n      and\n      dup1\n      dup5\n      mstore\n      swap5\n      dup3\n      mstore\n      swap2\n      dup3\n      swap1\n      keccak256\n        /* \"@thirdweb-dev/contracts/external-deps/openzeppelin/token/ERC20/ERC20.sol\":10350:10386   */\n      dup6\n      swap1\n      sstore\n        /* \"@thirdweb-dev/contracts/external-deps/openzeppelin/token/ERC20/ERC20.sol\":10401:10433   */\n      swap1\n      mload\n        /* \"#utility.yul\":1522:1547   */\n      dup5\n      dup2\n      mstore\n        /* \"@thirdweb-dev/contracts/external-deps/openzeppelin/token/ERC20/ERC20.sol\":10401:10433   */\n      0x8c5be1e5ebec7d5bd14f71427d1e84f3dd0314c0f7b2291e5b200ac8c7c3b925\n      swap2\n        /* \"#utility.yul\":1495:1513   */\n      add\n        /* \"@thirdweb-dev/contracts/external-deps/openzeppelin/token/ERC20/ERC20.sol\":10401:10433   */\n      mload(0x40)\n      dup1\n      swap2\n      sub\n      swap1\n      log3\n        /* \"@thirdweb-dev/contracts/external-deps/openzeppelin/token/ERC20/ERC20.sol\":10100:10440   */\n      pop\n      pop\n      pop\n      jump\t// out\n        /* \"@thirdweb-dev/contracts/base/ERC20Base.sol\":4190:4305   */\n    tag_136:\n        /* \"@thirdweb-dev/contracts/base/ERC20Base.sol\":4254:4258   */\n      0x00\n        /* \"@thirdweb-dev/contracts/base/ERC20Base.sol\":4291:4298   */\n      tag_280\n        /* \"@thirdweb-dev/contracts/extension/Ownable.sol\":1046:1052   */\n      and(sub(shl(0xa0, 0x01), 0x01), sload(0x01))\n      swap1\n        /* \"@thirdweb-dev/contracts/extension/Ownable.sol\":973:1059   */\n      jump\n        /* \"@thirdweb-dev/contracts/base/ERC20Base.sol\":4291:4298   */\n    tag_280:\n      sub(shl(0xa0, 0x01), 0x01)\n        /* \"@thirdweb-dev/contracts/base/ERC20Base.sol\":4277:4298   */\n      and\n        /* \"@thirdweb-dev/contracts/base/ERC20Base.sol\":4277:4287   */\n      caller\n      sub(shl(0xa0, 0x01), 0x01)\n        /* \"@thirdweb-dev/contracts/base/ERC20Base.sol\":4277:4298   */\n      and\n      eq\n        /* \"@thirdweb-dev/contracts/base/ERC20Base.sol\":4270:4298   */\n      swap1\n      pop\n        /* \"@thirdweb-dev/contracts/base/ERC20Base.sol\":4190:4305   */\n      swap1\n      jump\t// out\n        /* \"@thirdweb-dev/contracts/extension/Ownable.sol\":1527:1699   */\n    tag_139:\n        /* \"@thirdweb-dev/contracts/extension/Ownable.sol\":1607:1613   */\n      0x01\n      dup1\n      sload\n      sub(shl(0xa0, 0x01), 0x01)\n        /* \"@thirdweb-dev/contracts/extension/Ownable.sol\":1623:1641   */\n      dup4\n      dup2\n      and\n      0xffffffffffffffffffffffff0000000000000000000000000000000000000000\n      dup4\n      and\n      dup2\n      or\n      swap1\n      swap4\n      sstore\n        /* \"@thirdweb-dev/contracts/extension/Ownable.sol\":1657:1692   */\n      mload(0x40)\n        /* \"@thirdweb-dev/contracts/extension/Ownable.sol\":1607:1613   */\n      swap2\n      and\n      swap2\n        /* \"@thirdweb-dev/contracts/extension/Ownable.sol\":1623:1641   */\n      swap1\n        /* \"@thirdweb-dev/contracts/extension/Ownable.sol\":1607:1613   */\n      dup3\n      swap1\n        /* \"@thirdweb-dev/contracts/extension/Ownable.sol\":1657:1692   */\n      0x8292fce18fa69edf4db7b94ea2e58241df0ae57f97e0a6c9b29067028bf92d76\n      swap1\n        /* \"@thirdweb-dev/contracts/extension/Ownable.sol\":1586:1604   */\n      0x00\n      swap1\n        /* \"@thirdweb-dev/contracts/extension/Ownable.sol\":1657:1692   */\n      log3\n        /* \"@thirdweb-dev/contracts/extension/Ownable.sol\":1576:1699   */\n      pop\n        /* \"@thirdweb-dev/contracts/extension/Ownable.sol\":1527:1699   */\n      pop\n      jump\t// out\n        /* \"@thirdweb-dev/contracts/external-deps/openzeppelin/token/ERC20/ERC20.sol\":10717:11128   */\n    tag_144:\n      sub(shl(0xa0, 0x01), 0x01)\n        /* \"@thirdweb-dev/contracts/external-deps/openzeppelin/token/ERC20/ERC20.sol\":4128:4146   */\n      dup4\n      dup2\n      and\n        /* \"@thirdweb-dev/contracts/external-deps/openzeppelin/token/ERC20/ERC20.sol\":10817:10841   */\n      0x00\n        /* \"@thirdweb-dev/contracts/external-deps/openzeppelin/token/ERC20/ERC20.sol\":4128:4146   */\n      swap1\n      dup2\n      mstore\n        /* \"@thirdweb-dev/contracts/external-deps/openzeppelin/token/ERC20/ERC20.sol\":4128:4139   */\n      0x03\n        /* \"@thirdweb-dev/contracts/external-deps/openzeppelin/token/ERC20/ERC20.sol\":4128:4146   */\n      0x20\n      swap1\n      dup2\n      mstore\n      0x40\n      dup1\n      dup4\n      keccak256\n        /* \"@thirdweb-dev/contracts/external-deps/openzeppelin/token/ERC20/ERC20.sol\":4128:4155   */\n      swap4\n      dup7\n      and\n      dup4\n      mstore\n      swap3\n      swap1\n      mstore\n      keccak256\n      sload\n      not(0x00)\n        /* \"@thirdweb-dev/contracts/external-deps/openzeppelin/token/ERC20/ERC20.sol\":10883:10920   */\n      dup2\n      eq\n        /* \"@thirdweb-dev/contracts/external-deps/openzeppelin/token/ERC20/ERC20.sol\":10879:11122   */\n      tag_288\n      jumpi\n        /* \"@thirdweb-dev/contracts/external-deps/openzeppelin/token/ERC20/ERC20.sol\":10964:10970   */\n      dup2\n        /* \"@thirdweb-dev/contracts/external-deps/openzeppelin/token/ERC20/ERC20.sol\":10944:10960   */\n      dup2\n        /* \"@thirdweb-dev/contracts/external-deps/openzeppelin/token/ERC20/ERC20.sol\":10944:10970   */\n      lt\n      iszero\n        /* \"@thirdweb-dev/contracts/external-deps/openzeppelin/token/ERC20/ERC20.sol\":10936:11004   */\n      tag_285\n      jumpi\n      mload(0x40)\n      shl(0xe5, 0x461bcd)\n      dup2\n      mstore\n        /* \"#utility.yul\":12092:12094   */\n      0x20\n        /* \"@thirdweb-dev/contracts/external-deps/openzeppelin/token/ERC20/ERC20.sol\":10936:11004   */\n      0x04\n      dup3\n      add\n        /* \"#utility.yul\":12074:12095   */\n      mstore\n        /* \"#utility.yul\":12131:12133   */\n      0x1d\n        /* \"#utility.yul\":12111:12129   */\n      0x24\n      dup3\n      add\n        /* \"#utility.yul\":12104:12134   */\n      mstore\n        /* \"#utility.yul\":12170:12201   */\n      0x45524332303a20696e73756666696369656e7420616c6c6f77616e6365000000\n        /* \"#utility.yul\":12150:12168   */\n      0x44\n      dup3\n      add\n        /* \"#utility.yul\":12143:12202   */\n      mstore\n        /* \"#utility.yul\":12219:12237   */\n      0x64\n      add\n        /* \"@thirdweb-dev/contracts/external-deps/openzeppelin/token/ERC20/ERC20.sol\":10936:11004   */\n      tag_162\n        /* \"#utility.yul\":11890:12243   */\n      jump\n        /* \"@thirdweb-dev/contracts/external-deps/openzeppelin/token/ERC20/ERC20.sol\":10936:11004   */\n    tag_285:\n        /* \"@thirdweb-dev/contracts/external-deps/openzeppelin/token/ERC20/ERC20.sol\":11046:11097   */\n      tag_288\n        /* \"@thirdweb-dev/contracts/external-deps/openzeppelin/token/ERC20/ERC20.sol\":11055:11060   */\n      dup5\n        /* \"@thirdweb-dev/contracts/external-deps/openzeppelin/token/ERC20/ERC20.sol\":11062:11069   */\n      dup5\n        /* \"@thirdweb-dev/contracts/external-deps/openzeppelin/token/ERC20/ERC20.sol\":11090:11096   */\n      dup5\n        /* \"@thirdweb-dev/contracts/external-deps/openzeppelin/token/ERC20/ERC20.sol\":11071:11087   */\n      dup5\n        /* \"@thirdweb-dev/contracts/external-deps/openzeppelin/token/ERC20/ERC20.sol\":11071:11096   */\n      sub\n        /* \"@thirdweb-dev/contracts/external-deps/openzeppelin/token/ERC20/ERC20.sol\":11046:11054   */\n      tag_133\n        /* \"@thirdweb-dev/contracts/external-deps/openzeppelin/token/ERC20/ERC20.sol\":11046:11097   */\n      jump\t// in\n    tag_288:\n        /* \"@thirdweb-dev/contracts/external-deps/openzeppelin/token/ERC20/ERC20.sol\":10807:11128   */\n      pop\n        /* \"@thirdweb-dev/contracts/external-deps/openzeppelin/token/ERC20/ERC20.sol\":10717:11128   */\n      pop\n      pop\n      pop\n      jump\t// out\n        /* \"@thirdweb-dev/contracts/external-deps/openzeppelin/token/ERC20/ERC20.sol\":7495:8116   */\n    tag_146:\n      sub(shl(0xa0, 0x01), 0x01)\n        /* \"@thirdweb-dev/contracts/external-deps/openzeppelin/token/ERC20/ERC20.sol\":7591:7609   */\n      dup4\n      and\n        /* \"@thirdweb-dev/contracts/external-deps/openzeppelin/token/ERC20/ERC20.sol\":7583:7651   */\n      tag_290\n      jumpi\n      mload(0x40)\n      shl(0xe5, 0x461bcd)\n      dup2\n      mstore\n        /* \"#utility.yul\":12450:12452   */\n      0x20\n        /* \"@thirdweb-dev/contracts/external-deps/openzeppelin/token/ERC20/ERC20.sol\":7583:7651   */\n      0x04\n      dup3\n      add\n        /* \"#utility.yul\":12432:12453   */\n      mstore\n        /* \"#utility.yul\":12489:12491   */\n      0x25\n        /* \"#utility.yul\":12469:12487   */\n      0x24\n      dup3\n      add\n        /* \"#utility.yul\":12462:12492   */\n      mstore\n        /* \"#utility.yul\":12528:12562   */\n      0x45524332303a207472616e736665722066726f6d20746865207a65726f206164\n        /* \"#utility.yul\":12508:12526   */\n      0x44\n      dup3\n      add\n        /* \"#utility.yul\":12501:12563   */\n      mstore\n        /* \"#utility.yul\":12599:12606   */\n      0x6472657373000000000000000000000000000000000000000000000000000000\n        /* \"#utility.yul\":12579:12597   */\n      0x64\n      dup3\n      add\n        /* \"#utility.yul\":12572:12607   */\n      mstore\n        /* \"#utility.yul\":12624:12643   */\n      0x84\n      add\n        /* \"@thirdweb-dev/contracts/external-deps/openzeppelin/token/ERC20/ERC20.sol\":7583:7651   */\n      tag_162\n        /* \"#utility.yul\":12248:12649   */\n      jump\n        /* \"@thirdweb-dev/contracts/external-deps/openzeppelin/token/ERC20/ERC20.sol\":7583:7651   */\n    tag_290:\n      sub(shl(0xa0, 0x01), 0x01)\n        /* \"@thirdweb-dev/contracts/external-deps/openzeppelin/token/ERC20/ERC20.sol\":7669:7685   */\n      dup3\n      and\n        /* \"@thirdweb-dev/contracts/external-deps/openzeppelin/token/ERC20/ERC20.sol\":7661:7725   */\n      tag_293\n      jumpi\n      mload(0x40)\n      shl(0xe5, 0x461bcd)\n      dup2\n      mstore\n        /* \"#utility.yul\":12856:12858   */\n      0x20\n        /* \"@thirdweb-dev/contracts/external-deps/openzeppelin/token/ERC20/ERC20.sol\":7661:7725   */\n      0x04\n      dup3\n      add\n        /* \"#utility.yul\":12838:12859   */\n      mstore\n        /* \"#utility.yul\":12895:12897   */\n      0x23\n        /* \"#utility.yul\":12875:12893   */\n      0x24\n      dup3\n      add\n        /* \"#utility.yul\":12868:12898   */\n      mstore\n        /* \"#utility.yul\":12934:12968   */\n      0x45524332303a207472616e7366657220746f20746865207a65726f2061646472\n        /* \"#utility.yul\":12914:12932   */\n      0x44\n      dup3\n      add\n        /* \"#utility.yul\":12907:12969   */\n      mstore\n      shl(0xe8, 0x657373)\n        /* \"#utility.yul\":12985:13003   */\n      0x64\n      dup3\n      add\n        /* \"#utility.yul\":12978:13011   */\n      mstore\n        /* \"#utility.yul\":13028:13047   */\n      0x84\n      add\n        /* \"@thirdweb-dev/contracts/external-deps/openzeppelin/token/ERC20/ERC20.sol\":7661:7725   */\n      tag_162\n        /* \"#utility.yul\":12654:13053   */\n      jump\n        /* \"@thirdweb-dev/contracts/external-deps/openzeppelin/token/ERC20/ERC20.sol\":7661:7725   */\n    tag_293:\n      sub(shl(0xa0, 0x01), 0x01)\n        /* \"@thirdweb-dev/contracts/external-deps/openzeppelin/token/ERC20/ERC20.sol\":7807:7822   */\n      dup4\n      and\n        /* \"@thirdweb-dev/contracts/external-deps/openzeppelin/token/ERC20/ERC20.sol\":7785:7804   */\n      0x00\n        /* \"@thirdweb-dev/contracts/external-deps/openzeppelin/token/ERC20/ERC20.sol\":7807:7822   */\n      swap1\n      dup2\n      mstore\n        /* \"@thirdweb-dev/contracts/external-deps/openzeppelin/token/ERC20/ERC20.sol\":7807:7816   */\n      0x02\n        /* \"@thirdweb-dev/contracts/external-deps/openzeppelin/token/ERC20/ERC20.sol\":7807:7822   */\n      0x20\n      mstore\n      0x40\n      swap1\n      keccak256\n      sload\n        /* \"@thirdweb-dev/contracts/external-deps/openzeppelin/token/ERC20/ERC20.sol\":7840:7861   */\n      dup2\n      dup2\n      lt\n      iszero\n        /* \"@thirdweb-dev/contracts/external-deps/openzeppelin/token/ERC20/ERC20.sol\":7832:7904   */\n      tag_298\n      jumpi\n      mload(0x40)\n      shl(0xe5, 0x461bcd)\n      dup2\n      mstore\n        /* \"#utility.yul\":13260:13262   */\n      0x20\n        /* \"@thirdweb-dev/contracts/external-deps/openzeppelin/token/ERC20/ERC20.sol\":7832:7904   */\n      0x04\n      dup3\n      add\n        /* \"#utility.yul\":13242:13263   */\n      mstore\n        /* \"#utility.yul\":13299:13301   */\n      0x26\n        /* \"#utility.yul\":13279:13297   */\n      0x24\n      dup3\n      add\n        /* \"#utility.yul\":13272:13302   */\n      mstore\n        /* \"#utility.yul\":13338:13372   */\n      0x45524332303a207472616e7366657220616d6f756e7420657863656564732062\n        /* \"#utility.yul\":13318:13336   */\n      0x44\n      dup3\n      add\n        /* \"#utility.yul\":13311:13373   */\n      mstore\n        /* \"#utility.yul\":13409:13417   */\n      0x616c616e63650000000000000000000000000000000000000000000000000000\n        /* \"#utility.yul\":13389:13407   */\n      0x64\n      dup3\n      add\n        /* \"#utility.yul\":13382:13418   */\n      mstore\n        /* \"#utility.yul\":13435:13454   */\n      0x84\n      add\n        /* \"@thirdweb-dev/contracts/external-deps/openzeppelin/token/ERC20/ERC20.sol\":7832:7904   */\n      tag_162\n        /* \"#utility.yul\":13058:13460   */\n      jump\n        /* \"@thirdweb-dev/contracts/external-deps/openzeppelin/token/ERC20/ERC20.sol\":7832:7904   */\n    tag_298:\n      sub(shl(0xa0, 0x01), 0x01)\n        /* \"@thirdweb-dev/contracts/external-deps/openzeppelin/token/ERC20/ERC20.sol\":7938:7953   */\n      dup1\n      dup6\n      and\n      0x00\n      swap1\n      dup2\n      mstore\n        /* \"@thirdweb-dev/contracts/external-deps/openzeppelin/token/ERC20/ERC20.sol\":7938:7947   */\n      0x02\n        /* \"@thirdweb-dev/contracts/external-deps/openzeppelin/token/ERC20/ERC20.sol\":7938:7953   */\n      0x20\n      mstore\n      0x40\n      dup1\n      dup3\n      keccak256\n        /* \"@thirdweb-dev/contracts/external-deps/openzeppelin/token/ERC20/ERC20.sol\":7956:7976   */\n      dup6\n      dup6\n      sub\n        /* \"@thirdweb-dev/contracts/external-deps/openzeppelin/token/ERC20/ERC20.sol\":7938:7976   */\n      swap1\n      sstore\n        /* \"@thirdweb-dev/contracts/external-deps/openzeppelin/token/ERC20/ERC20.sol\":7996:8009   */\n      swap2\n      dup6\n      and\n      dup2\n      mstore\n      swap1\n      dup2\n      keccak256\n        /* \"@thirdweb-dev/contracts/external-deps/openzeppelin/token/ERC20/ERC20.sol\":7996:8019   */\n      dup1\n      sload\n        /* \"@thirdweb-dev/contracts/external-deps/openzeppelin/token/ERC20/ERC20.sol\":7970:7976   */\n      dup5\n      swap3\n        /* \"@thirdweb-dev/contracts/external-deps/openzeppelin/token/ERC20/ERC20.sol\":7938:7953   */\n      swap1\n        /* \"@thirdweb-dev/contracts/external-deps/openzeppelin/token/ERC20/ERC20.sol\":7996:8019   */\n      tag_301\n      swap1\n        /* \"@thirdweb-dev/contracts/external-deps/openzeppelin/token/ERC20/ERC20.sol\":7970:7976   */\n      dup5\n      swap1\n        /* \"@thirdweb-dev/contracts/external-deps/openzeppelin/token/ERC20/ERC20.sol\":7996:8019   */\n      tag_158\n      jump\t// in\n    tag_301:\n      swap3\n      pop\n      pop\n      dup2\n      swap1\n      sstore\n      pop\n        /* \"@thirdweb-dev/contracts/external-deps/openzeppelin/token/ERC20/ERC20.sol\":8050:8052   */\n      dup3\n      sub(shl(0xa0, 0x01), 0x01)\n        /* \"@thirdweb-dev/contracts/external-deps/openzeppelin/token/ERC20/ERC20.sol\":8035:8061   */\n      and\n        /* \"@thirdweb-dev/contracts/external-deps/openzeppelin/token/ERC20/ERC20.sol\":8044:8048   */\n      dup5\n      sub(shl(0xa0, 0x01), 0x01)\n        /* \"@thirdweb-dev/contracts/external-deps/openzeppelin/token/ERC20/ERC20.sol\":8035:8061   */\n      and\n      0xddf252ad1be2c89b69c2b068fc378daa952ba7f163c4a11628f55a4df523b3ef\n        /* \"@thirdweb-dev/contracts/external-deps/openzeppelin/token/ERC20/ERC20.sol\":8054:8060   */\n      dup5\n        /* \"@thirdweb-dev/contracts/external-deps/openzeppelin/token/ERC20/ERC20.sol\":8035:8061   */\n      mload(0x40)\n      tag_302\n      swap2\n        /* \"#utility.yul\":1522:1547   */\n      dup2\n      mstore\n        /* \"#utility.yul\":1510:1512   */\n      0x20\n        /* \"#utility.yul\":1495:1513   */\n      add\n      swap1\n        /* \"#utility.yul\":1376:1553   */\n      jump\n        /* \"@thirdweb-dev/contracts/external-deps/openzeppelin/token/ERC20/ERC20.sol\":8035:8061   */\n    tag_302:\n      mload(0x40)\n      dup1\n      swap2\n      sub\n      swap1\n      log3\n        /* \"@thirdweb-dev/contracts/external-deps/openzeppelin/token/ERC20/ERC20.sol\":8072:8109   */\n      tag_288\n        /* \"@thirdweb-dev/contracts/base/ERC20Base.sol\":2882:3312   */\n      jump\n        /* \"@thirdweb-dev/contracts/external-deps/openzeppelin/token/ERC20/extensions/ERC20Permit.sol\":3296:3734   */\n    tag_153:\n        /* \"@thirdweb-dev/contracts/external-deps/openzeppelin/token/ERC20/extensions/ERC20Permit.sol\":3351:3358   */\n      0x00\n        /* \"@thirdweb-dev/contracts/external-deps/openzeppelin/token/ERC20/extensions/ERC20Permit.sol\":3448:3543   */\n      0x8b73c3c69bb8fe3d512ecc4cf759cc79239f7b179b0ffacaa9a75d522b39400f\n        /* \"@thirdweb-dev/contracts/external-deps/openzeppelin/token/ERC20/extensions/ERC20Permit.sol\":3581:3587   */\n      tag_306\n        /* \"@thirdweb-dev/contracts/external-deps/openzeppelin/token/ERC20/extensions/ERC20Permit.sol\":3581:3585   */\n      tag_33\n        /* \"@thirdweb-dev/contracts/external-deps/openzeppelin/token/ERC20/extensions/ERC20Permit.sol\":3581:3587   */\n      jump\t// in\n    tag_306:\n        /* \"@thirdweb-dev/contracts/external-deps/openzeppelin/token/ERC20/extensions/ERC20Permit.sol\":3565:3589   */\n      dup1\n      mload\n      0x20\n      swap2\n      dup3\n      add\n      keccak256\n        /* \"@thirdweb-dev/contracts/external-deps/openzeppelin/token/ERC20/extensions/ERC20Permit.sol\":3416:3713   */\n      0x40\n      dup1\n      mload\n      swap3\n      dup4\n      add\n        /* \"#utility.yul\":13724:13749   */\n      swap4\n      swap1\n      swap4\n      mstore\n        /* \"#utility.yul\":13765:13783   */\n      swap2\n      dup2\n      add\n        /* \"#utility.yul\":13758:13792   */\n      swap2\n      swap1\n      swap2\n      mstore\n        /* \"@thirdweb-dev/contracts/external-deps/openzeppelin/token/ERC20/extensions/ERC20Permit.sol\":3611:3625   */\n      0xc89efdaa54c0f20c7adf612882df0950f5a951637e0307cdcb4c672f298b8bc6\n        /* \"#utility.yul\":13808:13826   */\n      0x60\n      dup3\n      add\n        /* \"#utility.yul\":13801:13835   */\n      mstore\n        /* \"@thirdweb-dev/contracts/external-deps/openzeppelin/token/ERC20/extensions/ERC20Permit.sol\":3647:3660   */\n      chainid\n        /* \"#utility.yul\":13851:13869   */\n      0x80\n      dup3\n      add\n        /* \"#utility.yul\":13844:13878   */\n      mstore\n        /* \"@thirdweb-dev/contracts/external-deps/openzeppelin/token/ERC20/extensions/ERC20Permit.sol\":3690:3694   */\n      address\n        /* \"#utility.yul\":13894:13913   */\n      0xa0\n      dup3\n      add\n        /* \"#utility.yul\":13887:13971   */\n      mstore\n        /* \"#utility.yul\":13696:13715   */\n      0xc0\n      add\n        /* \"@thirdweb-dev/contracts/external-deps/openzeppelin/token/ERC20/extensions/ERC20Permit.sol\":3416:3713   */\n      mload(0x40)\n      0x20\n      dup2\n      dup4\n      sub\n      sub\n      dup2\n      mstore\n      swap1\n      0x40\n      mstore\n        /* \"@thirdweb-dev/contracts/external-deps/openzeppelin/token/ERC20/extensions/ERC20Permit.sol\":3389:3727   */\n      dup1\n      mload\n      swap1\n      0x20\n      add\n      keccak256\n        /* \"@thirdweb-dev/contracts/external-deps/openzeppelin/token/ERC20/extensions/ERC20Permit.sol\":3370:3727   */\n      swap1\n      pop\n        /* \"@thirdweb-dev/contracts/external-deps/openzeppelin/token/ERC20/extensions/ERC20Permit.sol\":3296:3734   */\n      swap1\n      jump\t// out\n        /* \"@thirdweb-dev/contracts/external-deps/openzeppelin/token/ERC20/ERC20.sol\":9101:9677   */\n    tag_165:\n      sub(shl(0xa0, 0x01), 0x01)\n        /* \"@thirdweb-dev/contracts/external-deps/openzeppelin/token/ERC20/ERC20.sol\":9184:9205   */\n      dup3\n      and\n        /* \"@thirdweb-dev/contracts/external-deps/openzeppelin/token/ERC20/ERC20.sol\":9176:9243   */\n      tag_310\n      jumpi\n      mload(0x40)\n      shl(0xe5, 0x461bcd)\n      dup2\n      mstore\n        /* \"#utility.yul\":14184:14186   */\n      0x20\n        /* \"@thirdweb-dev/contracts/external-deps/openzeppelin/token/ERC20/ERC20.sol\":9176:9243   */\n      0x04\n      dup3\n      add\n        /* \"#utility.yul\":14166:14187   */\n      mstore\n        /* \"#utility.yul\":14223:14225   */\n      0x21\n        /* \"#utility.yul\":14203:14221   */\n      0x24\n      dup3\n      add\n        /* \"#utility.yul\":14196:14226   */\n      mstore\n        /* \"#utility.yul\":14262:14296   */\n      0x45524332303a206275726e2066726f6d20746865207a65726f20616464726573\n        /* \"#utility.yul\":14242:14260   */\n      0x44\n      dup3\n      add\n        /* \"#utility.yul\":14235:14297   */\n      mstore\n      shl(0xf8, 0x73)\n        /* \"#utility.yul\":14313:14331   */\n      0x64\n      dup3\n      add\n        /* \"#utility.yul\":14306:14337   */\n      mstore\n        /* \"#utility.yul\":14354:14373   */\n      0x84\n      add\n        /* \"@thirdweb-dev/contracts/external-deps/openzeppelin/token/ERC20/ERC20.sol\":9176:9243   */\n      tag_162\n        /* \"#utility.yul\":13982:14379   */\n      jump\n        /* \"@thirdweb-dev/contracts/external-deps/openzeppelin/token/ERC20/ERC20.sol\":9176:9243   */\n    tag_310:\n      sub(shl(0xa0, 0x01), 0x01)\n        /* \"@thirdweb-dev/contracts/external-deps/openzeppelin/token/ERC20/ERC20.sol\":9339:9357   */\n      dup3\n      and\n        /* \"@thirdweb-dev/contracts/external-deps/openzeppelin/token/ERC20/ERC20.sol\":9314:9336   */\n      0x00\n        /* \"@thirdweb-dev/contracts/external-deps/openzeppelin/token/ERC20/ERC20.sol\":9339:9357   */\n      swap1\n      dup2\n      mstore\n        /* \"@thirdweb-dev/contracts/external-deps/openzeppelin/token/ERC20/ERC20.sol\":9339:9348   */\n      0x02\n        /* \"@thirdweb-dev/contracts/external-deps/openzeppelin/token/ERC20/ERC20.sol\":9339:9357   */\n      0x20\n      mstore\n      0x40\n      swap1\n      keccak256\n      sload\n        /* \"@thirdweb-dev/contracts/external-deps/openzeppelin/token/ERC20/ERC20.sol\":9375:9399   */\n      dup2\n      dup2\n      lt\n      iszero\n        /* \"@thirdweb-dev/contracts/external-deps/openzeppelin/token/ERC20/ERC20.sol\":9367:9438   */\n      tag_314\n      jumpi\n      mload(0x40)\n      shl(0xe5, 0x461bcd)\n      dup2\n      mstore\n        /* \"#utility.yul\":14586:14588   */\n      0x20\n        /* \"@thirdweb-dev/contracts/external-deps/openzeppelin/token/ERC20/ERC20.sol\":9367:9438   */\n      0x04\n      dup3\n      add\n        /* \"#utility.yul\":14568:14589   */\n      mstore\n        /* \"#utility.yul\":14625:14627   */\n      0x22\n        /* \"#utility.yul\":14605:14623   */\n      0x24\n      dup3\n      add\n        /* \"#utility.yul\":14598:14628   */\n      mstore\n        /* \"#utility.yul\":14664:14698   */\n      0x45524332303a206275726e20616d6f756e7420657863656564732062616c616e\n        /* \"#utility.yul\":14644:14662   */\n      0x44\n      dup3\n      add\n        /* \"#utility.yul\":14637:14699   */\n      mstore\n      shl(0xf0, 0x6365)\n        /* \"#utility.yul\":14715:14733   */\n      0x64\n      dup3\n      add\n        /* \"#utility.yul\":14708:14740   */\n      mstore\n        /* \"#utility.yul\":14757:14776   */\n      0x84\n      add\n        /* \"@thirdweb-dev/contracts/external-deps/openzeppelin/token/ERC20/ERC20.sol\":9367:9438   */\n      tag_162\n        /* \"#utility.yul\":14384:14782   */\n      jump\n        /* \"@thirdweb-dev/contracts/external-deps/openzeppelin/token/ERC20/ERC20.sol\":9367:9438   */\n    tag_314:\n      sub(shl(0xa0, 0x01), 0x01)\n        /* \"@thirdweb-dev/contracts/external-deps/openzeppelin/token/ERC20/ERC20.sol\":9472:9490   */\n      dup4\n      and\n      0x00\n      swap1\n      dup2\n      mstore\n        /* \"@thirdweb-dev/contracts/external-deps/openzeppelin/token/ERC20/ERC20.sol\":9472:9481   */\n      0x02\n        /* \"@thirdweb-dev/contracts/external-deps/openzeppelin/token/ERC20/ERC20.sol\":9472:9490   */\n      0x20\n      mstore\n      0x40\n      dup2\n      keccak256\n        /* \"@thirdweb-dev/contracts/external-deps/openzeppelin/token/ERC20/ERC20.sol\":9493:9516   */\n      dup4\n      dup4\n      sub\n        /* \"@thirdweb-dev/contracts/external-deps/openzeppelin/token/ERC20/ERC20.sol\":9472:9516   */\n      swap1\n      sstore\n        /* \"@thirdweb-dev/contracts/external-deps/openzeppelin/token/ERC20/ERC20.sol\":9536:9548   */\n      0x04\n        /* \"@thirdweb-dev/contracts/external-deps/openzeppelin/token/ERC20/ERC20.sol\":9536:9558   */\n      dup1\n      sload\n        /* \"@thirdweb-dev/contracts/external-deps/openzeppelin/token/ERC20/ERC20.sol\":9510:9516   */\n      dup5\n      swap3\n        /* \"@thirdweb-dev/contracts/external-deps/openzeppelin/token/ERC20/ERC20.sol\":9472:9490   */\n      swap1\n        /* \"@thirdweb-dev/contracts/external-deps/openzeppelin/token/ERC20/ERC20.sol\":9536:9558   */\n      tag_317\n      swap1\n        /* \"@thirdweb-dev/contracts/external-deps/openzeppelin/token/ERC20/ERC20.sol\":9510:9516   */\n      dup5\n      swap1\n        /* \"@thirdweb-dev/contracts/external-deps/openzeppelin/token/ERC20/ERC20.sol\":9536:9558   */\n      tag_189\n      jump\t// in\n    tag_317:\n      swap1\n      swap2\n      sstore\n      pop\n      pop\n        /* \"@thirdweb-dev/contracts/external-deps/openzeppelin/token/ERC20/ERC20.sol\":9574:9611   */\n      mload(0x40)\n        /* \"#utility.yul\":1522:1547   */\n      dup3\n      dup2\n      mstore\n        /* \"@thirdweb-dev/contracts/external-deps/openzeppelin/token/ERC20/ERC20.sol\":9600:9601   */\n      0x00\n      swap1\n      sub(shl(0xa0, 0x01), 0x01)\n        /* \"@thirdweb-dev/contracts/external-deps/openzeppelin/token/ERC20/ERC20.sol\":9574:9611   */\n      dup6\n      and\n      swap1\n      0xddf252ad1be2c89b69c2b068fc378daa952ba7f163c4a11628f55a4df523b3ef\n      swap1\n        /* \"#utility.yul\":1510:1512   */\n      0x20\n        /* \"#utility.yul\":1495:1513   */\n      add\n        /* \"@thirdweb-dev/contracts/external-deps/openzeppelin/token/ERC20/ERC20.sol\":9574:9611   */\n      mload(0x40)\n      dup1\n      swap2\n      sub\n      swap1\n      log3\n        /* \"@thirdweb-dev/contracts/base/ERC20Base.sol\":2961:3312   */\n      pop\n        /* \"@thirdweb-dev/contracts/base/ERC20Base.sol\":2882:3312   */\n      pop\n      pop\n      jump\t// out\n        /* \"@thirdweb-dev/contracts/external-deps/openzeppelin/token/ERC20/ERC20.sol\":8392:8781   */\n    tag_176:\n      sub(shl(0xa0, 0x01), 0x01)\n        /* \"@thirdweb-dev/contracts/external-deps/openzeppelin/token/ERC20/ERC20.sol\":8475:8496   */\n      dup3\n      and\n        /* \"@thirdweb-dev/contracts/external-deps/openzeppelin/token/ERC20/ERC20.sol\":8467:8532   */\n      tag_323\n      jumpi\n      mload(0x40)\n      shl(0xe5, 0x461bcd)\n      dup2\n      mstore\n        /* \"#utility.yul\":14989:14991   */\n      0x20\n        /* \"@thirdweb-dev/contracts/external-deps/openzeppelin/token/ERC20/ERC20.sol\":8467:8532   */\n      0x04\n      dup3\n      add\n        /* \"#utility.yul\":14971:14992   */\n      mstore\n        /* \"#utility.yul\":15028:15030   */\n      0x1f\n        /* \"#utility.yul\":15008:15026   */\n      0x24\n      dup3\n      add\n        /* \"#utility.yul\":15001:15031   */\n      mstore\n        /* \"#utility.yul\":15067:15100   */\n      0x45524332303a206d696e7420746f20746865207a65726f206164647265737300\n        /* \"#utility.yul\":15047:15065   */\n      0x44\n      dup3\n      add\n        /* \"#utility.yul\":15040:15101   */\n      mstore\n        /* \"#utility.yul\":15118:15136   */\n      0x64\n      add\n        /* \"@thirdweb-dev/contracts/external-deps/openzeppelin/token/ERC20/ERC20.sol\":8467:8532   */\n      tag_162\n        /* \"#utility.yul\":14787:15142   */\n      jump\n        /* \"@thirdweb-dev/contracts/external-deps/openzeppelin/token/ERC20/ERC20.sol\":8467:8532   */\n    tag_323:\n        /* \"@thirdweb-dev/contracts/external-deps/openzeppelin/token/ERC20/ERC20.sol\":8619:8625   */\n      dup1\n        /* \"@thirdweb-dev/contracts/external-deps/openzeppelin/token/ERC20/ERC20.sol\":8603:8615   */\n      0x04\n      0x00\n        /* \"@thirdweb-dev/contracts/external-deps/openzeppelin/token/ERC20/ERC20.sol\":8603:8625   */\n      dup3\n      dup3\n      sload\n      tag_327\n      swap2\n      swap1\n      tag_158\n      jump\t// in\n    tag_327:\n      swap1\n      swap2\n      sstore\n      pop\n      pop\n      sub(shl(0xa0, 0x01), 0x01)\n        /* \"@thirdweb-dev/contracts/external-deps/openzeppelin/token/ERC20/ERC20.sol\":8635:8653   */\n      dup3\n      and\n      0x00\n      swap1\n      dup2\n      mstore\n        /* \"@thirdweb-dev/contracts/external-deps/openzeppelin/token/ERC20/ERC20.sol\":8635:8644   */\n      0x02\n        /* \"@thirdweb-dev/contracts/external-deps/openzeppelin/token/ERC20/ERC20.sol\":8635:8653   */\n      0x20\n      mstore\n      0x40\n      dup2\n      keccak256\n        /* \"@thirdweb-dev/contracts/external-deps/openzeppelin/token/ERC20/ERC20.sol\":8635:8663   */\n      dup1\n      sload\n        /* \"@thirdweb-dev/contracts/external-deps/openzeppelin/token/ERC20/ERC20.sol\":8657:8663   */\n      dup4\n      swap3\n        /* \"@thirdweb-dev/contracts/external-deps/openzeppelin/token/ERC20/ERC20.sol\":8635:8653   */\n      swap1\n        /* \"@thirdweb-dev/contracts/external-deps/openzeppelin/token/ERC20/ERC20.sol\":8635:8663   */\n      tag_328\n      swap1\n        /* \"@thirdweb-dev/contracts/external-deps/openzeppelin/token/ERC20/ERC20.sol\":8657:8663   */\n      dup5\n      swap1\n        /* \"@thirdweb-dev/contracts/external-deps/openzeppelin/token/ERC20/ERC20.sol\":8635:8663   */\n      tag_158\n      jump\t// in\n    tag_328:\n      swap1\n      swap2\n      sstore\n      pop\n      pop\n        /* \"@thirdweb-dev/contracts/external-deps/openzeppelin/token/ERC20/ERC20.sol\":8678:8715   */\n      mload(0x40)\n        /* \"#utility.yul\":1522:1547   */\n      dup2\n      dup2\n      mstore\n      sub(shl(0xa0, 0x01), 0x01)\n        /* \"@thirdweb-dev/contracts/external-deps/openzeppelin/token/ERC20/ERC20.sol\":8678:8715   */\n      dup4\n      and\n      swap1\n        /* \"@thirdweb-dev/contracts/external-deps/openzeppelin/token/ERC20/ERC20.sol\":8695:8696   */\n      0x00\n      swap1\n        /* \"@thirdweb-dev/contracts/external-deps/openzeppelin/token/ERC20/ERC20.sol\":8678:8715   */\n      0xddf252ad1be2c89b69c2b068fc378daa952ba7f163c4a11628f55a4df523b3ef\n      swap1\n        /* \"#utility.yul\":1510:1512   */\n      0x20\n        /* \"#utility.yul\":1495:1513   */\n      add\n        /* \"@thirdweb-dev/contracts/external-deps/openzeppelin/token/ERC20/ERC20.sol\":8678:8715   */\n      mload(0x40)\n      dup1\n      swap2\n      sub\n      swap1\n      log3\n        /* \"@thirdweb-dev/contracts/base/ERC20Base.sol\":1989:2198   */\n      pop\n      pop\n      jump\t// out\n        /* \"@thirdweb-dev/contracts/extension/ContractMetadata.sol\":1393:1578   */\n    tag_202:\n        /* \"@thirdweb-dev/contracts/extension/ContractMetadata.sol\":1459:1480   */\n      0x00\n        /* \"@thirdweb-dev/contracts/extension/ContractMetadata.sol\":1483:1494   */\n      dup1\n        /* \"@thirdweb-dev/contracts/extension/ContractMetadata.sol\":1459:1494   */\n      dup1\n      sload\n      tag_337\n      swap1\n      tag_124\n      jump\t// in\n    tag_337:\n      dup1\n      0x1f\n      add\n      0x20\n      dup1\n      swap2\n      div\n      mul\n      0x20\n      add\n      mload(0x40)\n      swap1\n      dup2\n      add\n      0x40\n      mstore\n      dup1\n      swap3\n      swap2\n      swap1\n      dup2\n      dup2\n      mstore\n      0x20\n      add\n      dup3\n      dup1\n      sload\n      tag_338\n      swap1\n      tag_124\n      jump\t// in\n    tag_338:\n      dup1\n      iszero\n      tag_339\n      jumpi\n      dup1\n      0x1f\n      lt\n      tag_340\n      jumpi\n      0x0100\n      dup1\n      dup4\n      sload\n      div\n      mul\n      dup4\n      mstore\n      swap2\n      0x20\n      add\n      swap2\n      jump(tag_339)\n    tag_340:\n      dup3\n      add\n      swap2\n      swap1\n      0x00\n      mstore\n      keccak256(0x00, 0x20)\n      swap1\n    tag_341:\n      dup2\n      sload\n      dup2\n      mstore\n      swap1\n      0x01\n      add\n      swap1\n      0x20\n      add\n      dup1\n      dup4\n      gt\n      tag_341\n      jumpi\n      dup3\n      swap1\n      sub\n      0x1f\n      and\n      dup3\n      add\n      swap2\n    tag_339:\n      pop\n      pop\n      pop\n      pop\n      pop\n      swap1\n      pop\n        /* \"@thirdweb-dev/contracts/extension/ContractMetadata.sol\":1518:1522   */\n      dup2\n        /* \"@thirdweb-dev/contracts/extension/ContractMetadata.sol\":1504:1515   */\n      0x00\n        /* \"@thirdweb-dev/contracts/extension/ContractMetadata.sol\":1504:1522   */\n      swap1\n      dup2\n      tag_342\n      swap2\n      swap1\n      tag_343\n      jump\t// in\n    tag_342:\n      pop\n        /* \"@thirdweb-dev/contracts/extension/ContractMetadata.sol\":1538:1571   */\n      0xc9c7c3fe08b88b4df9d4d47ef47d2c43d55c025a0ba88ca442580ed9e7348a16\n        /* \"@thirdweb-dev/contracts/extension/ContractMetadata.sol\":1557:1564   */\n      dup2\n        /* \"@thirdweb-dev/contracts/extension/ContractMetadata.sol\":1566:1570   */\n      dup4\n        /* \"@thirdweb-dev/contracts/extension/ContractMetadata.sol\":1538:1571   */\n      mload(0x40)\n      tag_344\n      swap3\n      swap2\n      swap1\n      tag_345\n      jump\t// in\n    tag_344:\n      mload(0x40)\n      dup1\n      swap2\n      sub\n      swap1\n      log1\n        /* \"@thirdweb-dev/contracts/extension/ContractMetadata.sol\":1449:1578   */\n      pop\n        /* \"@thirdweb-dev/contracts/extension/ContractMetadata.sol\":1393:1578   */\n      pop\n      jump\t// out\n        /* \"@thirdweb-dev/contracts/lib/Address.sol\":6671:6869   */\n    tag_237:\n        /* \"@thirdweb-dev/contracts/lib/Address.sol\":6754:6766   */\n      0x60\n        /* \"@thirdweb-dev/contracts/lib/Address.sol\":6785:6862   */\n      tag_347\n        /* \"@thirdweb-dev/contracts/lib/Address.sol\":6806:6812   */\n      dup4\n        /* \"@thirdweb-dev/contracts/lib/Address.sol\":6814:6818   */\n      dup4\n        /* \"@thirdweb-dev/contracts/lib/Address.sol\":6785:6862   */\n      mload(0x40)\n      dup1\n      0x60\n      add\n      0x40\n      mstore\n      dup1\n      0x27\n      dup2\n      mstore\n      0x20\n      add\n      data_9fdcd12e4b726339b32a442b0a448365d5d85c96b2d2cff917b4f66c63110398\n      0x27\n      swap2\n      codecopy\n        /* \"@thirdweb-dev/contracts/lib/Address.sol\":6785:6805   */\n      tag_348\n        /* \"@thirdweb-dev/contracts/lib/Address.sol\":6785:6862   */\n      jump\t// in\n    tag_347:\n        /* \"@thirdweb-dev/contracts/lib/Address.sol\":6778:6862   */\n      swap4\n        /* \"@thirdweb-dev/contracts/lib/Address.sol\":6671:6869   */\n      swap3\n      pop\n      pop\n      pop\n      jump\t// out\n        /* \"@thirdweb-dev/contracts/external-deps/openzeppelin/token/ERC20/extensions/ERC20Permit.sol\":3865:4068   */\n    tag_252:\n      sub(shl(0xa0, 0x01), 0x01)\n        /* \"@thirdweb-dev/contracts/external-deps/openzeppelin/token/ERC20/extensions/ERC20Permit.sol\":3985:3999   */\n      dup2\n      and\n        /* \"@thirdweb-dev/contracts/external-deps/openzeppelin/token/ERC20/extensions/ERC20Permit.sol\":3925:3940   */\n      0x00\n        /* \"@thirdweb-dev/contracts/external-deps/openzeppelin/token/ERC20/extensions/ERC20Permit.sol\":3985:3999   */\n      swap1\n      dup2\n      mstore\n        /* \"@thirdweb-dev/contracts/external-deps/openzeppelin/token/ERC20/extensions/ERC20Permit.sol\":3985:3992   */\n      0x07\n        /* \"@thirdweb-dev/contracts/external-deps/openzeppelin/token/ERC20/extensions/ERC20Permit.sol\":3985:3999   */\n      0x20\n      mstore\n      0x40\n      swap1\n      keccak256\n        /* \"@thirdweb-dev/contracts/external-deps/openzeppelin/utils/Counters.sol\":918:932   */\n      dup1\n      sload\n        /* \"@thirdweb-dev/contracts/external-deps/openzeppelin/utils/Counters.sol\":1050:1051   */\n      0x01\n        /* \"@thirdweb-dev/contracts/external-deps/openzeppelin/utils/Counters.sol\":1032:1051   */\n      dup2\n      add\n      dup3\n      sstore\n        /* \"@thirdweb-dev/contracts/external-deps/openzeppelin/utils/Counters.sol\":918:932   */\n      swap1\n        /* \"@thirdweb-dev/contracts/external-deps/openzeppelin/token/ERC20/extensions/ERC20Permit.sol\":4044:4061   */\n    tag_351:\n        /* \"@thirdweb-dev/contracts/external-deps/openzeppelin/token/ERC20/extensions/ERC20Permit.sol\":3942:4068   */\n      pop\n        /* \"@thirdweb-dev/contracts/external-deps/openzeppelin/token/ERC20/extensions/ERC20Permit.sol\":3865:4068   */\n      swap2\n      swap1\n      pop\n      jump\t// out\n        /* \"@thirdweb-dev/contracts/external-deps/openzeppelin/utils/cryptography/ECDSA.sol\":6611:6843   */\n    tag_259:\n        /* \"@thirdweb-dev/contracts/external-deps/openzeppelin/utils/cryptography/ECDSA.sol\":6696:6703   */\n      0x00\n        /* \"@thirdweb-dev/contracts/external-deps/openzeppelin/utils/cryptography/ECDSA.sol\":6716:6733   */\n      dup1\n        /* \"@thirdweb-dev/contracts/external-deps/openzeppelin/utils/cryptography/ECDSA.sol\":6735:6753   */\n      0x00\n        /* \"@thirdweb-dev/contracts/external-deps/openzeppelin/utils/cryptography/ECDSA.sol\":6757:6782   */\n      tag_355\n        /* \"@thirdweb-dev/contracts/external-deps/openzeppelin/utils/cryptography/ECDSA.sol\":6768:6772   */\n      dup8\n        /* \"@thirdweb-dev/contracts/external-deps/openzeppelin/utils/cryptography/ECDSA.sol\":6774:6775   */\n      dup8\n        /* \"@thirdweb-dev/contracts/external-deps/openzeppelin/utils/cryptography/ECDSA.sol\":6777:6778   */\n      dup8\n        /* \"@thirdweb-dev/contracts/external-deps/openzeppelin/utils/cryptography/ECDSA.sol\":6780:6781   */\n      dup8\n        /* \"@thirdweb-dev/contracts/external-deps/openzeppelin/utils/cryptography/ECDSA.sol\":6757:6767   */\n      tag_356\n        /* \"@thirdweb-dev/contracts/external-deps/openzeppelin/utils/cryptography/ECDSA.sol\":6757:6782   */\n      jump\t// in\n    tag_355:\n        /* \"@thirdweb-dev/contracts/external-deps/openzeppelin/utils/cryptography/ECDSA.sol\":6715:6782   */\n      swap2\n      pop\n      swap2\n      pop\n        /* \"@thirdweb-dev/contracts/external-deps/openzeppelin/utils/cryptography/ECDSA.sol\":6792:6810   */\n      tag_357\n        /* \"@thirdweb-dev/contracts/external-deps/openzeppelin/utils/cryptography/ECDSA.sol\":6804:6809   */\n      dup2\n        /* \"@thirdweb-dev/contracts/external-deps/openzeppelin/utils/cryptography/ECDSA.sol\":6792:6803   */\n      tag_358\n        /* \"@thirdweb-dev/contracts/external-deps/openzeppelin/utils/cryptography/ECDSA.sol\":6792:6810   */\n      jump\t// in\n    tag_357:\n      pop\n        /* \"@thirdweb-dev/contracts/external-deps/openzeppelin/utils/cryptography/ECDSA.sol\":6827:6836   */\n      swap1\n      pop\n        /* \"@thirdweb-dev/contracts/external-deps/openzeppelin/utils/cryptography/ECDSA.sol\":6611:6843   */\n    tag_354:\n      swap5\n      swap4\n      pop\n      pop\n      pop\n      pop\n      jump\t// out\n        /* \"@thirdweb-dev/contracts/lib/Address.sol\":7055:7380   */\n    tag_348:\n        /* \"@thirdweb-dev/contracts/lib/Address.sol\":7196:7208   */\n      0x60\n        /* \"@thirdweb-dev/contracts/lib/Address.sol\":7221:7233   */\n      0x00\n        /* \"@thirdweb-dev/contracts/lib/Address.sol\":7235:7258   */\n      dup1\n        /* \"@thirdweb-dev/contracts/lib/Address.sol\":7262:7268   */\n      dup6\n      sub(shl(0xa0, 0x01), 0x01)\n        /* \"@thirdweb-dev/contracts/lib/Address.sol\":7262:7281   */\n      and\n        /* \"@thirdweb-dev/contracts/lib/Address.sol\":7282:7286   */\n      dup6\n        /* \"@thirdweb-dev/contracts/lib/Address.sol\":7262:7287   */\n      mload(0x40)\n      tag_362\n      swap2\n      swap1\n      tag_363\n      jump\t// in\n    tag_362:\n      0x00\n      mload(0x40)\n      dup1\n      dup4\n      sub\n      dup2\n      dup6\n      gas\n      delegatecall\n      swap2\n      pop\n      pop\n      returndatasize\n      dup1\n      0x00\n      dup2\n      eq\n      tag_366\n      jumpi\n      mload(0x40)\n      swap2\n      pop\n      and(add(returndatasize, 0x3f), not(0x1f))\n      dup3\n      add\n      0x40\n      mstore\n      returndatasize\n      dup3\n      mstore\n      returndatasize\n      0x00\n      0x20\n      dup5\n      add\n      returndatacopy\n      jump(tag_365)\n    tag_366:\n      0x60\n      swap2\n      pop\n    tag_365:\n      pop\n        /* \"@thirdweb-dev/contracts/lib/Address.sol\":7220:7287   */\n      swap2\n      pop\n      swap2\n      pop\n        /* \"@thirdweb-dev/contracts/lib/Address.sol\":7304:7373   */\n      tag_367\n        /* \"@thirdweb-dev/contracts/lib/Address.sol\":7331:7337   */\n      dup7\n        /* \"@thirdweb-dev/contracts/lib/Address.sol\":7339:7346   */\n      dup4\n        /* \"@thirdweb-dev/contracts/lib/Address.sol\":7348:7358   */\n      dup4\n        /* \"@thirdweb-dev/contracts/lib/Address.sol\":7360:7372   */\n      dup8\n        /* \"@thirdweb-dev/contracts/lib/Address.sol\":7304:7330   */\n      tag_368\n        /* \"@thirdweb-dev/contracts/lib/Address.sol\":7304:7373   */\n      jump\t// in\n    tag_367:\n        /* \"@thirdweb-dev/contracts/lib/Address.sol\":7297:7373   */\n      swap7\n        /* \"@thirdweb-dev/contracts/lib/Address.sol\":7055:7380   */\n      swap6\n      pop\n      pop\n      pop\n      pop\n      pop\n      pop\n      jump\t// out\n        /* \"@thirdweb-dev/contracts/external-deps/openzeppelin/utils/cryptography/ECDSA.sol\":5022:6478   */\n    tag_356:\n        /* \"@thirdweb-dev/contracts/external-deps/openzeppelin/utils/cryptography/ECDSA.sol\":5110:5117   */\n      0x00\n      dup1\n        /* \"@thirdweb-dev/contracts/external-deps/openzeppelin/utils/cryptography/ECDSA.sol\":6034:6100   */\n      0x7fffffffffffffffffffffffffffffff5d576e7357a4501ddfe92f46681b20a0\n        /* \"@thirdweb-dev/contracts/external-deps/openzeppelin/utils/cryptography/ECDSA.sol\":6021:6100   */\n      dup4\n      gt\n        /* \"@thirdweb-dev/contracts/external-deps/openzeppelin/utils/cryptography/ECDSA.sol\":6017:6178   */\n      iszero\n      tag_371\n      jumpi\n      pop\n        /* \"@thirdweb-dev/contracts/external-deps/openzeppelin/utils/cryptography/ECDSA.sol\":6132:6133   */\n      0x00\n      swap1\n      pop\n        /* \"@thirdweb-dev/contracts/external-deps/openzeppelin/utils/cryptography/ECDSA.sol\":6136:6166   */\n      0x03\n        /* \"@thirdweb-dev/contracts/external-deps/openzeppelin/utils/cryptography/ECDSA.sol\":6116:6167   */\n      jump(tag_370)\n        /* \"@thirdweb-dev/contracts/external-deps/openzeppelin/utils/cryptography/ECDSA.sol\":6017:6178   */\n    tag_371:\n        /* \"@thirdweb-dev/contracts/external-deps/openzeppelin/utils/cryptography/ECDSA.sol\":6289:6313   */\n      0x40\n      dup1\n      mload\n        /* \"@thirdweb-dev/contracts/external-deps/openzeppelin/utils/cryptography/ECDSA.sol\":6272:6286   */\n      0x00\n        /* \"@thirdweb-dev/contracts/external-deps/openzeppelin/utils/cryptography/ECDSA.sol\":6289:6313   */\n      dup1\n      dup3\n      mstore\n      0x20\n      dup3\n      add\n      dup1\n      dup5\n      mstore\n        /* \"#utility.yul\":18238:18263   */\n      dup10\n      swap1\n      mstore\n        /* \"#utility.yul\":18311:18315   */\n      0xff\n        /* \"#utility.yul\":18299:18316   */\n      dup9\n      and\n        /* \"#utility.yul\":18279:18297   */\n      swap3\n      dup3\n      add\n        /* \"#utility.yul\":18272:18317   */\n      swap3\n      swap1\n      swap3\n      mstore\n        /* \"#utility.yul\":18333:18351   */\n      0x60\n      dup2\n      add\n        /* \"#utility.yul\":18326:18360   */\n      dup7\n      swap1\n      mstore\n        /* \"#utility.yul\":18376:18394   */\n      0x80\n      dup2\n      add\n        /* \"#utility.yul\":18369:18403   */\n      dup6\n      swap1\n      mstore\n        /* \"@thirdweb-dev/contracts/external-deps/openzeppelin/utils/cryptography/ECDSA.sol\":6289:6313   */\n      0x01\n      swap1\n        /* \"#utility.yul\":18210:18229   */\n      0xa0\n      add\n        /* \"@thirdweb-dev/contracts/external-deps/openzeppelin/utils/cryptography/ECDSA.sol\":6289:6313   */\n      0x20\n      mload(0x40)\n      0x20\n      dup2\n      sub\n      swap1\n      dup1\n      dup5\n      sub\n      swap1\n      dup6\n      gas\n      staticcall\n      iszero\n      dup1\n      iszero\n      tag_375\n      jumpi\n      returndatasize\n      0x00\n      dup1\n      returndatacopy\n      revert(0x00, returndatasize)\n    tag_375:\n      pop\n      pop\n      mload(add(not(0x1f), mload(0x40)))\n      swap2\n      pop\n      pop\n      sub(shl(0xa0, 0x01), 0x01)\n        /* \"@thirdweb-dev/contracts/external-deps/openzeppelin/utils/cryptography/ECDSA.sol\":6327:6347   */\n      dup2\n      and\n        /* \"@thirdweb-dev/contracts/external-deps/openzeppelin/utils/cryptography/ECDSA.sol\":6323:6424   */\n      tag_376\n      jumpi\n        /* \"@thirdweb-dev/contracts/external-deps/openzeppelin/utils/cryptography/ECDSA.sol\":6379:6380   */\n      0x00\n        /* \"@thirdweb-dev/contracts/external-deps/openzeppelin/utils/cryptography/ECDSA.sol\":6383:6412   */\n      0x01\n        /* \"@thirdweb-dev/contracts/external-deps/openzeppelin/utils/cryptography/ECDSA.sol\":6363:6413   */\n      swap3\n      pop\n      swap3\n      pop\n      pop\n      jump(tag_370)\n        /* \"@thirdweb-dev/contracts/external-deps/openzeppelin/utils/cryptography/ECDSA.sol\":6323:6424   */\n    tag_376:\n        /* \"@thirdweb-dev/contracts/external-deps/openzeppelin/utils/cryptography/ECDSA.sol\":6442:6448   */\n      swap2\n      pop\n        /* \"@thirdweb-dev/contracts/external-deps/openzeppelin/utils/cryptography/ECDSA.sol\":6450:6470   */\n      0x00\n      swap1\n      pop\n        /* \"@thirdweb-dev/contracts/external-deps/openzeppelin/utils/cryptography/ECDSA.sol\":5022:6478   */\n    tag_370:\n      swap5\n      pop\n      swap5\n      swap3\n      pop\n      pop\n      pop\n      jump\t// out\n        /* \"@thirdweb-dev/contracts/external-deps/openzeppelin/utils/cryptography/ECDSA.sol\":583:1094   */\n    tag_358:\n        /* \"@thirdweb-dev/contracts/external-deps/openzeppelin/utils/cryptography/ECDSA.sol\":660:680   */\n      0x00\n        /* \"@thirdweb-dev/contracts/external-deps/openzeppelin/utils/cryptography/ECDSA.sol\":651:656   */\n      dup2\n        /* \"@thirdweb-dev/contracts/external-deps/openzeppelin/utils/cryptography/ECDSA.sol\":651:680   */\n      0x04\n      dup2\n      gt\n      iszero\n      tag_382\n      jumpi\n      tag_382\n      tag_380\n      jump\t// in\n    tag_382:\n      sub\n        /* \"@thirdweb-dev/contracts/external-deps/openzeppelin/utils/cryptography/ECDSA.sol\":647:1088   */\n      tag_383\n      jumpi\n        /* \"@thirdweb-dev/contracts/external-deps/openzeppelin/utils/cryptography/ECDSA.sol\":583:1094   */\n      pop\n      jump\t// out\n        /* \"@thirdweb-dev/contracts/external-deps/openzeppelin/utils/cryptography/ECDSA.sol\":647:1088   */\n    tag_383:\n        /* \"@thirdweb-dev/contracts/external-deps/openzeppelin/utils/cryptography/ECDSA.sol\":756:785   */\n      0x01\n        /* \"@thirdweb-dev/contracts/external-deps/openzeppelin/utils/cryptography/ECDSA.sol\":747:752   */\n      dup2\n        /* \"@thirdweb-dev/contracts/external-deps/openzeppelin/utils/cryptography/ECDSA.sol\":747:785   */\n      0x04\n      dup2\n      gt\n      iszero\n      tag_388\n      jumpi\n      tag_388\n      tag_380\n      jump\t// in\n    tag_388:\n      sub\n        /* \"@thirdweb-dev/contracts/external-deps/openzeppelin/utils/cryptography/ECDSA.sol\":743:1088   */\n      tag_389\n      jumpi\n        /* \"@thirdweb-dev/contracts/external-deps/openzeppelin/utils/cryptography/ECDSA.sol\":801:835   */\n      mload(0x40)\n      shl(0xe5, 0x461bcd)\n      dup2\n      mstore\n        /* \"#utility.yul\":18748:18750   */\n      0x20\n        /* \"@thirdweb-dev/contracts/external-deps/openzeppelin/utils/cryptography/ECDSA.sol\":801:835   */\n      0x04\n      dup3\n      add\n        /* \"#utility.yul\":18730:18751   */\n      mstore\n        /* \"#utility.yul\":18787:18789   */\n      0x18\n        /* \"#utility.yul\":18767:18785   */\n      0x24\n      dup3\n      add\n        /* \"#utility.yul\":18760:18790   */\n      mstore\n        /* \"#utility.yul\":18826:18852   */\n      0x45434453413a20696e76616c6964207369676e61747572650000000000000000\n        /* \"#utility.yul\":18806:18824   */\n      0x44\n      dup3\n      add\n        /* \"#utility.yul\":18799:18853   */\n      mstore\n        /* \"#utility.yul\":18870:18888   */\n      0x64\n      add\n        /* \"@thirdweb-dev/contracts/external-deps/openzeppelin/utils/cryptography/ECDSA.sol\":801:835   */\n      tag_162\n        /* \"#utility.yul\":18546:18894   */\n      jump\n        /* \"@thirdweb-dev/contracts/external-deps/openzeppelin/utils/cryptography/ECDSA.sol\":743:1088   */\n    tag_389:\n        /* \"@thirdweb-dev/contracts/external-deps/openzeppelin/utils/cryptography/ECDSA.sol\":865:900   */\n      0x02\n        /* \"@thirdweb-dev/contracts/external-deps/openzeppelin/utils/cryptography/ECDSA.sol\":856:861   */\n      dup2\n        /* \"@thirdweb-dev/contracts/external-deps/openzeppelin/utils/cryptography/ECDSA.sol\":856:900   */\n      0x04\n      dup2\n      gt\n      iszero\n      tag_396\n      jumpi\n      tag_396\n      tag_380\n      jump\t// in\n    tag_396:\n      sub\n        /* \"@thirdweb-dev/contracts/external-deps/openzeppelin/utils/cryptography/ECDSA.sol\":852:1088   */\n      tag_397\n      jumpi\n        /* \"@thirdweb-dev/contracts/external-deps/openzeppelin/utils/cryptography/ECDSA.sol\":916:957   */\n      mload(0x40)\n      shl(0xe5, 0x461bcd)\n      dup2\n      mstore\n        /* \"#utility.yul\":19101:19103   */\n      0x20\n        /* \"@thirdweb-dev/contracts/external-deps/openzeppelin/utils/cryptography/ECDSA.sol\":916:957   */\n      0x04\n      dup3\n      add\n        /* \"#utility.yul\":19083:19104   */\n      mstore\n        /* \"#utility.yul\":19140:19142   */\n      0x1f\n        /* \"#utility.yul\":19120:19138   */\n      0x24\n      dup3\n      add\n        /* \"#utility.yul\":19113:19143   */\n      mstore\n        /* \"#utility.yul\":19179:19212   */\n      0x45434453413a20696e76616c6964207369676e6174757265206c656e67746800\n        /* \"#utility.yul\":19159:19177   */\n      0x44\n      dup3\n      add\n        /* \"#utility.yul\":19152:19213   */\n      mstore\n        /* \"#utility.yul\":19230:19248   */\n      0x64\n      add\n        /* \"@thirdweb-dev/contracts/external-deps/openzeppelin/utils/cryptography/ECDSA.sol\":916:957   */\n      tag_162\n        /* \"#utility.yul\":18899:19254   */\n      jump\n        /* \"@thirdweb-dev/contracts/external-deps/openzeppelin/utils/cryptography/ECDSA.sol\":852:1088   */\n    tag_397:\n        /* \"@thirdweb-dev/contracts/external-deps/openzeppelin/utils/cryptography/ECDSA.sol\":987:1017   */\n      0x03\n        /* \"@thirdweb-dev/contracts/external-deps/openzeppelin/utils/cryptography/ECDSA.sol\":978:983   */\n      dup2\n        /* \"@thirdweb-dev/contracts/external-deps/openzeppelin/utils/cryptography/ECDSA.sol\":978:1017   */\n      0x04\n      dup2\n      gt\n      iszero\n      tag_404\n      jumpi\n      tag_404\n      tag_380\n      jump\t// in\n    tag_404:\n      sub\n        /* \"@thirdweb-dev/contracts/external-deps/openzeppelin/utils/cryptography/ECDSA.sol\":974:1088   */\n      tag_138\n      jumpi\n        /* \"@thirdweb-dev/contracts/external-deps/openzeppelin/utils/cryptography/ECDSA.sol\":1033:1077   */\n      mload(0x40)\n      shl(0xe5, 0x461bcd)\n      dup2\n      mstore\n        /* \"#utility.yul\":19461:19463   */\n      0x20\n        /* \"@thirdweb-dev/contracts/external-deps/openzeppelin/utils/cryptography/ECDSA.sol\":1033:1077   */\n      0x04\n      dup3\n      add\n        /* \"#utility.yul\":19443:19464   */\n      mstore\n        /* \"#utility.yul\":19500:19502   */\n      0x22\n        /* \"#utility.yul\":19480:19498   */\n      0x24\n      dup3\n      add\n        /* \"#utility.yul\":19473:19503   */\n      mstore\n        /* \"#utility.yul\":19539:19573   */\n      0x45434453413a20696e76616c6964207369676e6174757265202773272076616c\n        /* \"#utility.yul\":19519:19537   */\n      0x44\n      dup3\n      add\n        /* \"#utility.yul\":19512:19574   */\n      mstore\n      shl(0xf0, 0x7565)\n        /* \"#utility.yul\":19590:19608   */\n      0x64\n      dup3\n      add\n        /* \"#utility.yul\":19583:19615   */\n      mstore\n        /* \"#utility.yul\":19632:19651   */\n      0x84\n      add\n        /* \"@thirdweb-dev/contracts/external-deps/openzeppelin/utils/cryptography/ECDSA.sol\":1033:1077   */\n      tag_162\n        /* \"#utility.yul\":19259:19657   */\n      jump\n        /* \"@thirdweb-dev/contracts/lib/Address.sol\":7668:8296   */\n    tag_368:\n        /* \"@thirdweb-dev/contracts/lib/Address.sol\":7848:7860   */\n      0x60\n        /* \"@thirdweb-dev/contracts/lib/Address.sol\":7876:7883   */\n      dup4\n        /* \"@thirdweb-dev/contracts/lib/Address.sol\":7872:8290   */\n      iszero\n      tag_409\n      jumpi\n        /* \"@thirdweb-dev/contracts/lib/Address.sol\":7903:7913   */\n      dup3\n        /* \"@thirdweb-dev/contracts/lib/Address.sol\":7903:7920   */\n      mload\n        /* \"@thirdweb-dev/contracts/lib/Address.sol\":7924:7925   */\n      0x00\n        /* \"@thirdweb-dev/contracts/lib/Address.sol\":7903:7925   */\n      sub\n        /* \"@thirdweb-dev/contracts/lib/Address.sol\":7899:8185   */\n      tag_413\n      jumpi\n      sub(shl(0xa0, 0x01), 0x01)\n        /* \"@thirdweb-dev/contracts/lib/Address.sol\":1695:1714   */\n      dup6\n      and\n      extcodesize\n        /* \"@thirdweb-dev/contracts/lib/Address.sol\":8110:8170   */\n      tag_413\n      jumpi\n      mload(0x40)\n      shl(0xe5, 0x461bcd)\n      dup2\n      mstore\n        /* \"#utility.yul\":19864:19866   */\n      0x20\n        /* \"@thirdweb-dev/contracts/lib/Address.sol\":8110:8170   */\n      0x04\n      dup3\n      add\n        /* \"#utility.yul\":19846:19867   */\n      mstore\n        /* \"#utility.yul\":19903:19905   */\n      0x1d\n        /* \"#utility.yul\":19883:19901   */\n      0x24\n      dup3\n      add\n        /* \"#utility.yul\":19876:19906   */\n      mstore\n        /* \"#utility.yul\":19942:19973   */\n      0x416464726573733a2063616c6c20746f206e6f6e2d636f6e7472616374000000\n        /* \"#utility.yul\":19922:19940   */\n      0x44\n      dup3\n      add\n        /* \"#utility.yul\":19915:19974   */\n      mstore\n        /* \"#utility.yul\":19991:20009   */\n      0x64\n      add\n        /* \"@thirdweb-dev/contracts/lib/Address.sol\":8110:8170   */\n      tag_162\n        /* \"#utility.yul\":19662:20015   */\n      jump\n        /* \"@thirdweb-dev/contracts/lib/Address.sol\":8110:8170   */\n    tag_413:\n      pop\n        /* \"@thirdweb-dev/contracts/lib/Address.sol\":8205:8215   */\n      dup2\n        /* \"@thirdweb-dev/contracts/lib/Address.sol\":8198:8215   */\n      jump(tag_354)\n        /* \"@thirdweb-dev/contracts/lib/Address.sol\":7872:8290   */\n    tag_409:\n        /* \"@thirdweb-dev/contracts/lib/Address.sol\":8246:8279   */\n      tag_354\n        /* \"@thirdweb-dev/contracts/lib/Address.sol\":8254:8264   */\n      dup4\n        /* \"@thirdweb-dev/contracts/lib/Address.sol\":8266:8278   */\n      dup4\n        /* \"@thirdweb-dev/contracts/lib/Address.sol\":8977:8994   */\n      dup2\n      mload\n        /* \"@thirdweb-dev/contracts/lib/Address.sol\":8977:8998   */\n      iszero\n        /* \"@thirdweb-dev/contracts/lib/Address.sol\":8973:9352   */\n      tag_421\n      jumpi\n        /* \"@thirdweb-dev/contracts/lib/Address.sol\":9205:9215   */\n      dup2\n        /* \"@thirdweb-dev/contracts/lib/Address.sol\":9199:9216   */\n      mload\n        /* \"@thirdweb-dev/contracts/lib/Address.sol\":9261:9276   */\n      dup1\n        /* \"@thirdweb-dev/contracts/lib/Address.sol\":9248:9258   */\n      dup4\n        /* \"@thirdweb-dev/contracts/lib/Address.sol\":9244:9246   */\n      0x20\n        /* \"@thirdweb-dev/contracts/lib/Address.sol\":9240:9259   */\n      add\n        /* \"@thirdweb-dev/contracts/lib/Address.sol\":9233:9277   */\n      revert\n        /* \"@thirdweb-dev/contracts/lib/Address.sol\":8973:9352   */\n    tag_421:\n        /* \"@thirdweb-dev/contracts/lib/Address.sol\":9328:9340   */\n      dup1\n        /* \"@thirdweb-dev/contracts/lib/Address.sol\":9321:9341   */\n      mload(0x40)\n      shl(0xe5, 0x461bcd)\n      dup2\n      mstore\n      0x04\n      add\n      tag_162\n      swap2\n      swap1\n      tag_35\n      jump\t// in\n        /* \"#utility.yul\":14:303   */\n    tag_424:\n        /* \"#utility.yul\":56:59   */\n      0x00\n        /* \"#utility.yul\":94:99   */\n      dup2\n        /* \"#utility.yul\":88:100   */\n      mload\n        /* \"#utility.yul\":121:127   */\n      dup1\n        /* \"#utility.yul\":116:119   */\n      dup5\n        /* \"#utility.yul\":109:128   */\n      mstore\n        /* \"#utility.yul\":177:183   */\n      dup1\n        /* \"#utility.yul\":170:174   */\n      0x20\n        /* \"#utility.yul\":163:168   */\n      dup5\n        /* \"#utility.yul\":159:175   */\n      add\n        /* \"#utility.yul\":152:156   */\n      0x20\n        /* \"#utility.yul\":147:150   */\n      dup7\n        /* \"#utility.yul\":143:157   */\n      add\n        /* \"#utility.yul\":137:184   */\n      mcopy\n        /* \"#utility.yul\":229:230   */\n      0x00\n        /* \"#utility.yul\":222:226   */\n      0x20\n        /* \"#utility.yul\":213:219   */\n      dup3\n        /* \"#utility.yul\":208:211   */\n      dup7\n        /* \"#utility.yul\":204:220   */\n      add\n        /* \"#utility.yul\":200:227   */\n      add\n        /* \"#utility.yul\":193:231   */\n      mstore\n        /* \"#utility.yul\":292:296   */\n      0x20\n        /* \"#utility.yul\":285:287   */\n      0x1f\n        /* \"#utility.yul\":281:288   */\n      not\n        /* \"#utility.yul\":276:278   */\n      0x1f\n        /* \"#utility.yul\":268:274   */\n      dup4\n        /* \"#utility.yul\":264:279   */\n      add\n        /* \"#utility.yul\":260:289   */\n      and\n        /* \"#utility.yul\":255:258   */\n      dup6\n        /* \"#utility.yul\":251:290   */\n      add\n        /* \"#utility.yul\":247:297   */\n      add\n        /* \"#utility.yul\":240:297   */\n      swap2\n      pop\n      pop\n        /* \"#utility.yul\":14:303   */\n      swap3\n      swap2\n      pop\n      pop\n      jump\t// out\n        /* \"#utility.yul\":308:528   */\n    tag_35:\n        /* \"#utility.yul\":457:459   */\n      0x20\n        /* \"#utility.yul\":446:455   */\n      dup2\n        /* \"#utility.yul\":439:460   */\n      mstore\n        /* \"#utility.yul\":420:424   */\n      0x00\n        /* \"#utility.yul\":477:522   */\n      tag_347\n        /* \"#utility.yul\":518:520   */\n      0x20\n        /* \"#utility.yul\":507:516   */\n      dup4\n        /* \"#utility.yul\":503:521   */\n      add\n        /* \"#utility.yul\":495:501   */\n      dup5\n        /* \"#utility.yul\":477:522   */\n      tag_424\n      jump\t// in\n        /* \"#utility.yul\":533:729   */\n    tag_425:\n        /* \"#utility.yul\":601:621   */\n      dup1\n      calldataload\n      sub(shl(0xa0, 0x01), 0x01)\n        /* \"#utility.yul\":650:704   */\n      dup2\n      and\n        /* \"#utility.yul\":640:705   */\n      dup2\n      eq\n        /* \"#utility.yul\":630:723   */\n      tag_435\n      jumpi\n        /* \"#utility.yul\":719:720   */\n      0x00\n        /* \"#utility.yul\":716:717   */\n      dup1\n        /* \"#utility.yul\":709:721   */\n      revert\n        /* \"#utility.yul\":630:723   */\n    tag_435:\n        /* \"#utility.yul\":533:729   */\n      swap2\n      swap1\n      pop\n      jump\t// out\n        /* \"#utility.yul\":734:988   */\n    tag_38:\n        /* \"#utility.yul\":802:808   */\n      0x00\n        /* \"#utility.yul\":810:816   */\n      dup1\n        /* \"#utility.yul\":863:865   */\n      0x40\n        /* \"#utility.yul\":851:860   */\n      dup4\n        /* \"#utility.yul\":842:849   */\n      dup6\n        /* \"#utility.yul\":838:861   */\n      sub\n        /* \"#utility.yul\":834:866   */\n      slt\n        /* \"#utility.yul\":831:883   */\n      iszero\n      tag_437\n      jumpi\n        /* \"#utility.yul\":879:880   */\n      0x00\n        /* \"#utility.yul\":876:877   */\n      dup1\n        /* \"#utility.yul\":869:881   */\n      revert\n        /* \"#utility.yul\":831:883   */\n    tag_437:\n        /* \"#utility.yul\":902:931   */\n      tag_438\n        /* \"#utility.yul\":921:930   */\n      dup4\n        /* \"#utility.yul\":902:931   */\n      tag_425\n      jump\t// in\n    tag_438:\n        /* \"#utility.yul\":892:931   */\n      swap5\n        /* \"#utility.yul\":978:980   */\n      0x20\n        /* \"#utility.yul\":963:981   */\n      swap4\n      swap1\n      swap4\n      add\n        /* \"#utility.yul\":950:982   */\n      calldataload\n      swap4\n      pop\n      pop\n      pop\n        /* \"#utility.yul\":734:988   */\n      jump\t// out\n        /* \"#utility.yul\":1185:1371   */\n    tag_44:\n        /* \"#utility.yul\":1244:1250   */\n      0x00\n        /* \"#utility.yul\":1297:1299   */\n      0x20\n        /* \"#utility.yul\":1285:1294   */\n      dup3\n        /* \"#utility.yul\":1276:1283   */\n      dup5\n        /* \"#utility.yul\":1272:1295   */\n      sub\n        /* \"#utility.yul\":1268:1300   */\n      slt\n        /* \"#utility.yul\":1265:1317   */\n      iszero\n      tag_441\n      jumpi\n        /* \"#utility.yul\":1313:1314   */\n      0x00\n        /* \"#utility.yul\":1310:1311   */\n      dup1\n        /* \"#utility.yul\":1303:1315   */\n      revert\n        /* \"#utility.yul\":1265:1317   */\n    tag_441:\n        /* \"#utility.yul\":1336:1365   */\n      tag_347\n        /* \"#utility.yul\":1355:1364   */\n      dup3\n        /* \"#utility.yul\":1336:1365   */\n      tag_425\n      jump\t// in\n        /* \"#utility.yul\":1558:1886   */\n    tag_52:\n        /* \"#utility.yul\":1635:1641   */\n      0x00\n        /* \"#utility.yul\":1643:1649   */\n      dup1\n        /* \"#utility.yul\":1651:1657   */\n      0x00\n        /* \"#utility.yul\":1704:1706   */\n      0x60\n        /* \"#utility.yul\":1692:1701   */\n      dup5\n        /* \"#utility.yul\":1683:1690   */\n      dup7\n        /* \"#utility.yul\":1679:1702   */\n      sub\n        /* \"#utility.yul\":1675:1707   */\n      slt\n        /* \"#utility.yul\":1672:1724   */\n      iszero\n      tag_445\n      jumpi\n        /* \"#utility.yul\":1720:1721   */\n      0x00\n        /* \"#utility.yul\":1717:1718   */\n      dup1\n        /* \"#utility.yul\":1710:1722   */\n      revert\n        /* \"#utility.yul\":1672:1724   */\n    tag_445:\n        /* \"#utility.yul\":1743:1772   */\n      tag_446\n        /* \"#utility.yul\":1762:1771   */\n      dup5\n        /* \"#utility.yul\":1743:1772   */\n      tag_425\n      jump\t// in\n    tag_446:\n        /* \"#utility.yul\":1733:1772   */\n      swap3\n      pop\n        /* \"#utility.yul\":1791:1829   */\n      tag_447\n        /* \"#utility.yul\":1825:1827   */\n      0x20\n        /* \"#utility.yul\":1814:1823   */\n      dup6\n        /* \"#utility.yul\":1810:1828   */\n      add\n        /* \"#utility.yul\":1791:1829   */\n      tag_425\n      jump\t// in\n    tag_447:\n        /* \"#utility.yul\":1781:1829   */\n      swap2\n      pop\n        /* \"#utility.yul\":1876:1878   */\n      0x40\n        /* \"#utility.yul\":1865:1874   */\n      dup5\n        /* \"#utility.yul\":1861:1879   */\n      add\n        /* \"#utility.yul\":1848:1880   */\n      calldataload\n        /* \"#utility.yul\":1838:1880   */\n      swap1\n      pop\n        /* \"#utility.yul\":1558:1886   */\n      swap3\n      pop\n      swap3\n      pop\n      swap3\n      jump\t// out\n        /* \"#utility.yul\":2262:2442   */\n    tag_69:\n        /* \"#utility.yul\":2321:2327   */\n      0x00\n        /* \"#utility.yul\":2374:2376   */\n      0x20\n        /* \"#utility.yul\":2362:2371   */\n      dup3\n        /* \"#utility.yul\":2353:2360   */\n      dup5\n        /* \"#utility.yul\":2349:2372   */\n      sub\n        /* \"#utility.yul\":2345:2377   */\n      slt\n        /* \"#utility.yul\":2342:2394   */\n      iszero\n      tag_451\n      jumpi\n        /* \"#utility.yul\":2390:2391   */\n      0x00\n        /* \"#utility.yul\":2387:2388   */\n      dup1\n        /* \"#utility.yul\":2380:2392   */\n      revert\n        /* \"#utility.yul\":2342:2394   */\n    tag_451:\n      pop\n        /* \"#utility.yul\":2413:2436   */\n      calldataload\n      swap2\n        /* \"#utility.yul\":2262:2442   */\n      swap1\n      pop\n      jump\t// out\n        /* \"#utility.yul\":2678:2805   */\n    tag_221:\n        /* \"#utility.yul\":2739:2749   */\n      0x4e487b71\n        /* \"#utility.yul\":2734:2737   */\n      0xe0\n        /* \"#utility.yul\":2730:2750   */\n      shl\n        /* \"#utility.yul\":2727:2728   */\n      0x00\n        /* \"#utility.yul\":2720:2751   */\n      mstore\n        /* \"#utility.yul\":2770:2774   */\n      0x41\n        /* \"#utility.yul\":2767:2768   */\n      0x04\n        /* \"#utility.yul\":2760:2775   */\n      mstore\n        /* \"#utility.yul\":2794:2798   */\n      0x24\n        /* \"#utility.yul\":2791:2792   */\n      0x00\n        /* \"#utility.yul\":2784:2799   */\n      revert\n        /* \"#utility.yul\":2810:3732   */\n    tag_91:\n        /* \"#utility.yul\":2879:2885   */\n      0x00\n        /* \"#utility.yul\":2932:2934   */\n      0x20\n        /* \"#utility.yul\":2920:2929   */\n      dup3\n        /* \"#utility.yul\":2911:2918   */\n      dup5\n        /* \"#utility.yul\":2907:2930   */\n      sub\n        /* \"#utility.yul\":2903:2935   */\n      slt\n        /* \"#utility.yul\":2900:2952   */\n      iszero\n      tag_455\n      jumpi\n        /* \"#utility.yul\":2948:2949   */\n      0x00\n        /* \"#utility.yul\":2945:2946   */\n      dup1\n        /* \"#utility.yul\":2938:2950   */\n      revert\n        /* \"#utility.yul\":2900:2952   */\n    tag_455:\n        /* \"#utility.yul\":2988:2997   */\n      dup2\n        /* \"#utility.yul\":2975:2998   */\n      calldataload\n        /* \"#utility.yul\":3017:3035   */\n      0xffffffffffffffff\n        /* \"#utility.yul\":3058:3060   */\n      dup1\n        /* \"#utility.yul\":3050:3056   */\n      dup3\n        /* \"#utility.yul\":3047:3061   */\n      gt\n        /* \"#utility.yul\":3044:3078   */\n      iszero\n      tag_456\n      jumpi\n        /* \"#utility.yul\":3074:3075   */\n      0x00\n        /* \"#utility.yul\":3071:3072   */\n      dup1\n        /* \"#utility.yul\":3064:3076   */\n      revert\n        /* \"#utility.yul\":3044:3078   */\n    tag_456:\n        /* \"#utility.yul\":3112:3118   */\n      dup2\n        /* \"#utility.yul\":3101:3110   */\n      dup5\n        /* \"#utility.yul\":3097:3119   */\n      add\n        /* \"#utility.yul\":3087:3119   */\n      swap2\n      pop\n        /* \"#utility.yul\":3157:3164   */\n      dup5\n        /* \"#utility.yul\":3150:3154   */\n      0x1f\n        /* \"#utility.yul\":3146:3148   */\n      dup4\n        /* \"#utility.yul\":3142:3155   */\n      add\n        /* \"#utility.yul\":3138:3165   */\n      slt\n        /* \"#utility.yul\":3128:3183   */\n      tag_457\n      jumpi\n        /* \"#utility.yul\":3179:3180   */\n      0x00\n        /* \"#utility.yul\":3176:3177   */\n      dup1\n        /* \"#utility.yul\":3169:3181   */\n      revert\n        /* \"#utility.yul\":3128:3183   */\n    tag_457:\n        /* \"#utility.yul\":3215:3217   */\n      dup2\n        /* \"#utility.yul\":3202:3218   */\n      calldataload\n        /* \"#utility.yul\":3237:3239   */\n      dup2\n        /* \"#utility.yul\":3233:3235   */\n      dup2\n        /* \"#utility.yul\":3230:3240   */\n      gt\n        /* \"#utility.yul\":3227:3263   */\n      iszero\n      tag_459\n      jumpi\n        /* \"#utility.yul\":3243:3261   */\n      tag_459\n      tag_221\n      jump\t// in\n    tag_459:\n        /* \"#utility.yul\":3318:3320   */\n      0x40\n        /* \"#utility.yul\":3312:3321   */\n      mload\n        /* \"#utility.yul\":3286:3288   */\n      0x1f\n        /* \"#utility.yul\":3372:3385   */\n      dup3\n      add\n      not(0x1f)\n        /* \"#utility.yul\":3368:3390   */\n      swap1\n      dup2\n      and\n        /* \"#utility.yul\":3392:3394   */\n      0x3f\n        /* \"#utility.yul\":3364:3395   */\n      add\n        /* \"#utility.yul\":3360:3400   */\n      and\n        /* \"#utility.yul\":3348:3401   */\n      dup2\n      add\n      swap1\n        /* \"#utility.yul\":3416:3434   */\n      dup4\n      dup3\n      gt\n        /* \"#utility.yul\":3436:3458   */\n      dup2\n      dup4\n      lt\n        /* \"#utility.yul\":3413:3459   */\n      or\n        /* \"#utility.yul\":3410:3482   */\n      iszero\n      tag_461\n      jumpi\n        /* \"#utility.yul\":3462:3480   */\n      tag_461\n      tag_221\n      jump\t// in\n    tag_461:\n        /* \"#utility.yul\":3502:3512   */\n      dup2\n        /* \"#utility.yul\":3498:3500   */\n      0x40\n        /* \"#utility.yul\":3491:3513   */\n      mstore\n        /* \"#utility.yul\":3537:3539   */\n      dup3\n        /* \"#utility.yul\":3529:3535   */\n      dup2\n        /* \"#utility.yul\":3522:3540   */\n      mstore\n        /* \"#utility.yul\":3577:3584   */\n      dup8\n        /* \"#utility.yul\":3572:3574   */\n      0x20\n        /* \"#utility.yul\":3567:3569   */\n      dup5\n        /* \"#utility.yul\":3563:3565   */\n      dup8\n        /* \"#utility.yul\":3559:3570   */\n      add\n        /* \"#utility.yul\":3555:3575   */\n      add\n        /* \"#utility.yul\":3552:3585   */\n      gt\n        /* \"#utility.yul\":3549:3602   */\n      iszero\n      tag_462\n      jumpi\n        /* \"#utility.yul\":3598:3599   */\n      0x00\n        /* \"#utility.yul\":3595:3596   */\n      dup1\n        /* \"#utility.yul\":3588:3600   */\n      revert\n        /* \"#utility.yul\":3549:3602   */\n    tag_462:\n        /* \"#utility.yul\":3654:3656   */\n      dup3\n        /* \"#utility.yul\":3649:3651   */\n      0x20\n        /* \"#utility.yul\":3645:3647   */\n      dup7\n        /* \"#utility.yul\":3641:3652   */\n      add\n        /* \"#utility.yul\":3636:3638   */\n      0x20\n        /* \"#utility.yul\":3628:3634   */\n      dup4\n        /* \"#utility.yul\":3624:3639   */\n      add\n        /* \"#utility.yul\":3611:3657   */\n      calldatacopy\n        /* \"#utility.yul\":3699:3700   */\n      0x00\n        /* \"#utility.yul\":3677:3692   */\n      swap3\n      dup2\n      add\n        /* \"#utility.yul\":3694:3696   */\n      0x20\n        /* \"#utility.yul\":3673:3697   */\n      add\n        /* \"#utility.yul\":3666:3701   */\n      swap3\n      swap1\n      swap3\n      mstore\n      pop\n        /* \"#utility.yul\":3681:3687   */\n      swap6\n        /* \"#utility.yul\":2810:3732   */\n      swap5\n      pop\n      pop\n      pop\n      pop\n      pop\n      jump\t// out\n        /* \"#utility.yul\":3737:4363   */\n    tag_106:\n        /* \"#utility.yul\":3834:3840   */\n      0x00\n        /* \"#utility.yul\":3842:3848   */\n      dup1\n        /* \"#utility.yul\":3895:3897   */\n      0x20\n        /* \"#utility.yul\":3883:3892   */\n      dup4\n        /* \"#utility.yul\":3874:3881   */\n      dup6\n        /* \"#utility.yul\":3870:3893   */\n      sub\n        /* \"#utility.yul\":3866:3898   */\n      slt\n        /* \"#utility.yul\":3863:3915   */\n      iszero\n      tag_464\n      jumpi\n        /* \"#utility.yul\":3911:3912   */\n      0x00\n        /* \"#utility.yul\":3908:3909   */\n      dup1\n        /* \"#utility.yul\":3901:3913   */\n      revert\n        /* \"#utility.yul\":3863:3915   */\n    tag_464:\n        /* \"#utility.yul\":3951:3960   */\n      dup3\n        /* \"#utility.yul\":3938:3961   */\n      calldataload\n        /* \"#utility.yul\":3980:3998   */\n      0xffffffffffffffff\n        /* \"#utility.yul\":4021:4023   */\n      dup1\n        /* \"#utility.yul\":4013:4019   */\n      dup3\n        /* \"#utility.yul\":4010:4024   */\n      gt\n        /* \"#utility.yul\":4007:4041   */\n      iszero\n      tag_465\n      jumpi\n        /* \"#utility.yul\":4037:4038   */\n      0x00\n        /* \"#utility.yul\":4034:4035   */\n      dup1\n        /* \"#utility.yul\":4027:4039   */\n      revert\n        /* \"#utility.yul\":4007:4041   */\n    tag_465:\n        /* \"#utility.yul\":4075:4081   */\n      dup2\n        /* \"#utility.yul\":4064:4073   */\n      dup6\n        /* \"#utility.yul\":4060:4082   */\n      add\n        /* \"#utility.yul\":4050:4082   */\n      swap2\n      pop\n        /* \"#utility.yul\":4120:4127   */\n      dup6\n        /* \"#utility.yul\":4113:4117   */\n      0x1f\n        /* \"#utility.yul\":4109:4111   */\n      dup4\n        /* \"#utility.yul\":4105:4118   */\n      add\n        /* \"#utility.yul\":4101:4128   */\n      slt\n        /* \"#utility.yul\":4091:4146   */\n      tag_466\n      jumpi\n        /* \"#utility.yul\":4142:4143   */\n      0x00\n        /* \"#utility.yul\":4139:4140   */\n      dup1\n        /* \"#utility.yul\":4132:4144   */\n      revert\n        /* \"#utility.yul\":4091:4146   */\n    tag_466:\n        /* \"#utility.yul\":4182:4184   */\n      dup2\n        /* \"#utility.yul\":4169:4185   */\n      calldataload\n        /* \"#utility.yul\":4208:4210   */\n      dup2\n        /* \"#utility.yul\":4200:4206   */\n      dup2\n        /* \"#utility.yul\":4197:4211   */\n      gt\n        /* \"#utility.yul\":4194:4228   */\n      iszero\n      tag_467\n      jumpi\n        /* \"#utility.yul\":4224:4225   */\n      0x00\n        /* \"#utility.yul\":4221:4222   */\n      dup1\n        /* \"#utility.yul\":4214:4226   */\n      revert\n        /* \"#utility.yul\":4194:4228   */\n    tag_467:\n        /* \"#utility.yul\":4277:4284   */\n      dup7\n        /* \"#utility.yul\":4272:4274   */\n      0x20\n        /* \"#utility.yul\":4262:4268   */\n      dup3\n        /* \"#utility.yul\":4259:4260   */\n      0x05\n        /* \"#utility.yul\":4255:4269   */\n      shl\n        /* \"#utility.yul\":4251:4253   */\n      dup6\n        /* \"#utility.yul\":4247:4270   */\n      add\n        /* \"#utility.yul\":4243:4275   */\n      add\n        /* \"#utility.yul\":4240:4285   */\n      gt\n        /* \"#utility.yul\":4237:4302   */\n      iszero\n      tag_468\n      jumpi\n        /* \"#utility.yul\":4298:4299   */\n      0x00\n        /* \"#utility.yul\":4295:4296   */\n      dup1\n        /* \"#utility.yul\":4288:4300   */\n      revert\n        /* \"#utility.yul\":4237:4302   */\n    tag_468:\n        /* \"#utility.yul\":4329:4331   */\n      0x20\n        /* \"#utility.yul\":4321:4332   */\n      swap3\n      swap1\n      swap3\n      add\n      swap7\n        /* \"#utility.yul\":4351:4357   */\n      swap2\n      swap6\n      pop\n        /* \"#utility.yul\":3737:4363   */\n      swap1\n      swap4\n      pop\n      pop\n      pop\n      pop\n      jump\t// out\n        /* \"#utility.yul\":4368:5169   */\n    tag_109:\n        /* \"#utility.yul\":4528:4532   */\n      0x00\n        /* \"#utility.yul\":4557:4559   */\n      0x20\n        /* \"#utility.yul\":4597:4599   */\n      dup1\n        /* \"#utility.yul\":4586:4595   */\n      dup4\n        /* \"#utility.yul\":4582:4600   */\n      add\n        /* \"#utility.yul\":4627:4629   */\n      0x20\n        /* \"#utility.yul\":4616:4625   */\n      dup5\n        /* \"#utility.yul\":4609:4630   */\n      mstore\n        /* \"#utility.yul\":4650:4656   */\n      dup1\n        /* \"#utility.yul\":4685:4691   */\n      dup6\n        /* \"#utility.yul\":4679:4692   */\n      mload\n        /* \"#utility.yul\":4716:4722   */\n      dup1\n        /* \"#utility.yul\":4708:4714   */\n      dup4\n        /* \"#utility.yul\":4701:4723   */\n      mstore\n        /* \"#utility.yul\":4754:4756   */\n      0x40\n        /* \"#utility.yul\":4743:4752   */\n      dup7\n        /* \"#utility.yul\":4739:4757   */\n      add\n        /* \"#utility.yul\":4732:4757   */\n      swap2\n      pop\n        /* \"#utility.yul\":4816:4818   */\n      0x40\n        /* \"#utility.yul\":4806:4812   */\n      dup2\n        /* \"#utility.yul\":4803:4804   */\n      0x05\n        /* \"#utility.yul\":4799:4813   */\n      shl\n        /* \"#utility.yul\":4788:4797   */\n      dup8\n        /* \"#utility.yul\":4784:4814   */\n      add\n        /* \"#utility.yul\":4780:4819   */\n      add\n        /* \"#utility.yul\":4766:4819   */\n      swap3\n      pop\n        /* \"#utility.yul\":4854:4856   */\n      0x20\n        /* \"#utility.yul\":4846:4852   */\n      dup8\n        /* \"#utility.yul\":4842:4857   */\n      add\n        /* \"#utility.yul\":4875:4876   */\n      0x00\n        /* \"#utility.yul\":4885:5140   */\n    tag_470:\n        /* \"#utility.yul\":4899:4905   */\n      dup3\n        /* \"#utility.yul\":4896:4897   */\n      dup2\n        /* \"#utility.yul\":4893:4906   */\n      lt\n        /* \"#utility.yul\":4885:5140   */\n      iszero\n      tag_472\n      jumpi\n        /* \"#utility.yul\":4992:4994   */\n      0x3f\n        /* \"#utility.yul\":4988:4995   */\n      not\n        /* \"#utility.yul\":4976:4985   */\n      dup9\n        /* \"#utility.yul\":4968:4974   */\n      dup7\n        /* \"#utility.yul\":4964:4986   */\n      sub\n        /* \"#utility.yul\":4960:4996   */\n      add\n        /* \"#utility.yul\":4955:4958   */\n      dup5\n        /* \"#utility.yul\":4948:4997   */\n      mstore\n        /* \"#utility.yul\":5020:5060   */\n      tag_473\n        /* \"#utility.yul\":5053:5059   */\n      dup6\n        /* \"#utility.yul\":5044:5050   */\n      dup4\n        /* \"#utility.yul\":5038:5051   */\n      mload\n        /* \"#utility.yul\":5020:5060   */\n      tag_424\n      jump\t// in\n    tag_473:\n        /* \"#utility.yul\":5010:5060   */\n      swap5\n      pop\n        /* \"#utility.yul\":5118:5130   */\n      swap3\n      dup6\n      add\n      swap3\n        /* \"#utility.yul\":5083:5098   */\n      swap1\n      dup6\n      add\n      swap1\n        /* \"#utility.yul\":4921:4922   */\n      0x01\n        /* \"#utility.yul\":4914:4923   */\n      add\n        /* \"#utility.yul\":4885:5140   */\n      jump(tag_470)\n    tag_472:\n      pop\n        /* \"#utility.yul\":5157:5163   */\n      swap3\n      swap8\n        /* \"#utility.yul\":4368:5169   */\n      swap7\n      pop\n      pop\n      pop\n      pop\n      pop\n      pop\n      pop\n      jump\t// out\n        /* \"#utility.yul\":5174:5867   */\n    tag_112:\n        /* \"#utility.yul\":5285:5291   */\n      0x00\n        /* \"#utility.yul\":5293:5299   */\n      dup1\n        /* \"#utility.yul\":5301:5307   */\n      0x00\n        /* \"#utility.yul\":5309:5315   */\n      dup1\n        /* \"#utility.yul\":5317:5323   */\n      0x00\n        /* \"#utility.yul\":5325:5331   */\n      dup1\n        /* \"#utility.yul\":5333:5339   */\n      0x00\n        /* \"#utility.yul\":5386:5389   */\n      0xe0\n        /* \"#utility.yul\":5374:5383   */\n      dup9\n        /* \"#utility.yul\":5365:5372   */\n      dup11\n        /* \"#utility.yul\":5361:5384   */\n      sub\n        /* \"#utility.yul\":5357:5390   */\n      slt\n        /* \"#utility.yul\":5354:5407   */\n      iszero\n      tag_475\n      jumpi\n        /* \"#utility.yul\":5403:5404   */\n      0x00\n        /* \"#utility.yul\":5400:5401   */\n      dup1\n        /* \"#utility.yul\":5393:5405   */\n      revert\n        /* \"#utility.yul\":5354:5407   */\n    tag_475:\n        /* \"#utility.yul\":5426:5455   */\n      tag_476\n        /* \"#utility.yul\":5445:5454   */\n      dup9\n        /* \"#utility.yul\":5426:5455   */\n      tag_425\n      jump\t// in\n    tag_476:\n        /* \"#utility.yul\":5416:5455   */\n      swap7\n      pop\n        /* \"#utility.yul\":5474:5512   */\n      tag_477\n        /* \"#utility.yul\":5508:5510   */\n      0x20\n        /* \"#utility.yul\":5497:5506   */\n      dup10\n        /* \"#utility.yul\":5493:5511   */\n      add\n        /* \"#utility.yul\":5474:5512   */\n      tag_425\n      jump\t// in\n    tag_477:\n        /* \"#utility.yul\":5464:5512   */\n      swap6\n      pop\n        /* \"#utility.yul\":5559:5561   */\n      0x40\n        /* \"#utility.yul\":5548:5557   */\n      dup9\n        /* \"#utility.yul\":5544:5562   */\n      add\n        /* \"#utility.yul\":5531:5563   */\n      calldataload\n        /* \"#utility.yul\":5521:5563   */\n      swap5\n      pop\n        /* \"#utility.yul\":5610:5612   */\n      0x60\n        /* \"#utility.yul\":5599:5608   */\n      dup9\n        /* \"#utility.yul\":5595:5613   */\n      add\n        /* \"#utility.yul\":5582:5614   */\n      calldataload\n        /* \"#utility.yul\":5572:5614   */\n      swap4\n      pop\n        /* \"#utility.yul\":5664:5667   */\n      0x80\n        /* \"#utility.yul\":5653:5662   */\n      dup9\n        /* \"#utility.yul\":5649:5668   */\n      add\n        /* \"#utility.yul\":5636:5669   */\n      calldataload\n        /* \"#utility.yul\":5709:5713   */\n      0xff\n        /* \"#utility.yul\":5702:5707   */\n      dup2\n        /* \"#utility.yul\":5698:5714   */\n      and\n        /* \"#utility.yul\":5691:5696   */\n      dup2\n        /* \"#utility.yul\":5688:5715   */\n      eq\n        /* \"#utility.yul\":5678:5733   */\n      tag_478\n      jumpi\n        /* \"#utility.yul\":5729:5730   */\n      0x00\n        /* \"#utility.yul\":5726:5727   */\n      dup1\n        /* \"#utility.yul\":5719:5731   */\n      revert\n        /* \"#utility.yul\":5678:5733   */\n    tag_478:\n        /* \"#utility.yul\":5174:5867   */\n      swap7\n      swap10\n      swap6\n      swap9\n      pop\n      swap4\n      swap7\n      swap3\n      swap6\n        /* \"#utility.yul\":5752:5757   */\n      swap5\n        /* \"#utility.yul\":5804:5807   */\n      0xa0\n        /* \"#utility.yul\":5789:5808   */\n      dup5\n      add\n        /* \"#utility.yul\":5776:5809   */\n      calldataload\n      swap5\n      pop\n        /* \"#utility.yul\":5856:5859   */\n      0xc0\n        /* \"#utility.yul\":5841:5860   */\n      swap1\n      swap4\n      add\n        /* \"#utility.yul\":5828:5861   */\n      calldataload\n      swap3\n        /* \"#utility.yul\":5174:5867   */\n      swap2\n      pop\n      pop\n      jump\t// out\n        /* \"#utility.yul\":5872:6132   */\n    tag_116:\n        /* \"#utility.yul\":5940:5946   */\n      0x00\n        /* \"#utility.yul\":5948:5954   */\n      dup1\n        /* \"#utility.yul\":6001:6003   */\n      0x40\n        /* \"#utility.yul\":5989:5998   */\n      dup4\n        /* \"#utility.yul\":5980:5987   */\n      dup6\n        /* \"#utility.yul\":5976:5999   */\n      sub\n        /* \"#utility.yul\":5972:6004   */\n      slt\n        /* \"#utility.yul\":5969:6021   */\n      iszero\n      tag_480\n      jumpi\n        /* \"#utility.yul\":6017:6018   */\n      0x00\n        /* \"#utility.yul\":6014:6015   */\n      dup1\n        /* \"#utility.yul\":6007:6019   */\n      revert\n        /* \"#utility.yul\":5969:6021   */\n    tag_480:\n        /* \"#utility.yul\":6040:6069   */\n      tag_481\n        /* \"#utility.yul\":6059:6068   */\n      dup4\n        /* \"#utility.yul\":6040:6069   */\n      tag_425\n      jump\t// in\n    tag_481:\n        /* \"#utility.yul\":6030:6069   */\n      swap2\n      pop\n        /* \"#utility.yul\":6088:6126   */\n      tag_482\n        /* \"#utility.yul\":6122:6124   */\n      0x20\n        /* \"#utility.yul\":6111:6120   */\n      dup5\n        /* \"#utility.yul\":6107:6125   */\n      add\n        /* \"#utility.yul\":6088:6126   */\n      tag_425\n      jump\t// in\n    tag_482:\n        /* \"#utility.yul\":6078:6126   */\n      swap1\n      pop\n        /* \"#utility.yul\":5872:6132   */\n      swap3\n      pop\n      swap3\n      swap1\n      pop\n      jump\t// out\n        /* \"#utility.yul\":6137:6517   */\n    tag_124:\n        /* \"#utility.yul\":6216:6217   */\n      0x01\n        /* \"#utility.yul\":6212:6224   */\n      dup2\n      dup2\n      shr\n      swap1\n        /* \"#utility.yul\":6259:6271   */\n      dup3\n      and\n      dup1\n        /* \"#utility.yul\":6280:6341   */\n      tag_484\n      jumpi\n        /* \"#utility.yul\":6334:6338   */\n      0x7f\n        /* \"#utility.yul\":6326:6332   */\n      dup3\n        /* \"#utility.yul\":6322:6339   */\n      and\n        /* \"#utility.yul\":6312:6339   */\n      swap2\n      pop\n        /* \"#utility.yul\":6280:6341   */\n    tag_484:\n        /* \"#utility.yul\":6387:6389   */\n      0x20\n        /* \"#utility.yul\":6379:6385   */\n      dup3\n        /* \"#utility.yul\":6376:6390   */\n      lt\n        /* \"#utility.yul\":6356:6374   */\n      dup2\n        /* \"#utility.yul\":6353:6391   */\n      sub\n        /* \"#utility.yul\":6350:6511   */\n      tag_351\n      jumpi\n        /* \"#utility.yul\":6433:6443   */\n      0x4e487b71\n        /* \"#utility.yul\":6428:6431   */\n      0xe0\n        /* \"#utility.yul\":6424:6444   */\n      shl\n        /* \"#utility.yul\":6421:6422   */\n      0x00\n        /* \"#utility.yul\":6414:6445   */\n      mstore\n        /* \"#utility.yul\":6468:6472   */\n      0x22\n        /* \"#utility.yul\":6465:6466   */\n      0x04\n        /* \"#utility.yul\":6458:6473   */\n      mstore\n        /* \"#utility.yul\":6496:6500   */\n      0x24\n        /* \"#utility.yul\":6493:6494   */\n      0x00\n        /* \"#utility.yul\":6486:6501   */\n      revert\n        /* \"#utility.yul\":6522:6649   */\n    tag_426:\n        /* \"#utility.yul\":6583:6593   */\n      0x4e487b71\n        /* \"#utility.yul\":6578:6581   */\n      0xe0\n        /* \"#utility.yul\":6574:6594   */\n      shl\n        /* \"#utility.yul\":6571:6572   */\n      0x00\n        /* \"#utility.yul\":6564:6595   */\n      mstore\n        /* \"#utility.yul\":6614:6618   */\n      0x11\n        /* \"#utility.yul\":6611:6612   */\n      0x04\n        /* \"#utility.yul\":6604:6619   */\n      mstore\n        /* \"#utility.yul\":6638:6642   */\n      0x24\n        /* \"#utility.yul\":6635:6636   */\n      0x00\n        /* \"#utility.yul\":6628:6643   */\n      revert\n        /* \"#utility.yul\":6654:6779   */\n    tag_158:\n        /* \"#utility.yul\":6719:6728   */\n      dup1\n      dup3\n      add\n        /* \"#utility.yul\":6740:6750   */\n      dup1\n      dup3\n      gt\n        /* \"#utility.yul\":6737:6773   */\n      iszero\n      tag_129\n      jumpi\n        /* \"#utility.yul\":6753:6771   */\n      tag_129\n      tag_426\n      jump\t// in\n        /* \"#utility.yul\":8184:8312   */\n    tag_189:\n        /* \"#utility.yul\":8251:8260   */\n      dup2\n      dup2\n      sub\n        /* \"#utility.yul\":8272:8283   */\n      dup2\n      dup2\n      gt\n        /* \"#utility.yul\":8269:8306   */\n      iszero\n      tag_129\n      jumpi\n        /* \"#utility.yul\":8286:8304   */\n      tag_129\n      tag_426\n      jump\t// in\n        /* \"#utility.yul\":8723:8850   */\n    tag_232:\n        /* \"#utility.yul\":8784:8794   */\n      0x4e487b71\n        /* \"#utility.yul\":8779:8782   */\n      0xe0\n        /* \"#utility.yul\":8775:8795   */\n      shl\n        /* \"#utility.yul\":8772:8773   */\n      0x00\n        /* \"#utility.yul\":8765:8796   */\n      mstore\n        /* \"#utility.yul\":8815:8819   */\n      0x32\n        /* \"#utility.yul\":8812:8813   */\n      0x04\n        /* \"#utility.yul\":8805:8820   */\n      mstore\n        /* \"#utility.yul\":8839:8843   */\n      0x24\n        /* \"#utility.yul\":8836:8837   */\n      0x00\n        /* \"#utility.yul\":8829:8844   */\n      revert\n        /* \"#utility.yul\":8855:9376   */\n    tag_234:\n        /* \"#utility.yul\":8932:8936   */\n      0x00\n        /* \"#utility.yul\":8938:8944   */\n      dup1\n        /* \"#utility.yul\":8998:9009   */\n      dup4\n        /* \"#utility.yul\":8985:9010   */\n      calldataload\n        /* \"#utility.yul\":9092:9094   */\n      0x1e\n        /* \"#utility.yul\":9088:9095   */\n      not\n        /* \"#utility.yul\":9077:9085   */\n      dup5\n        /* \"#utility.yul\":9061:9075   */\n      calldatasize\n        /* \"#utility.yul\":9057:9086   */\n      sub\n        /* \"#utility.yul\":9053:9096   */\n      add\n        /* \"#utility.yul\":9033:9051   */\n      dup2\n        /* \"#utility.yul\":9029:9097   */\n      slt\n        /* \"#utility.yul\":9019:9115   */\n      tag_500\n      jumpi\n        /* \"#utility.yul\":9111:9112   */\n      0x00\n        /* \"#utility.yul\":9108:9109   */\n      dup1\n        /* \"#utility.yul\":9101:9113   */\n      revert\n        /* \"#utility.yul\":9019:9115   */\n    tag_500:\n        /* \"#utility.yul\":9138:9171   */\n      dup4\n      add\n        /* \"#utility.yul\":9190:9210   */\n      dup1\n      calldataload\n      swap2\n      pop\n        /* \"#utility.yul\":9233:9251   */\n      0xffffffffffffffff\n        /* \"#utility.yul\":9222:9252   */\n      dup3\n      gt\n        /* \"#utility.yul\":9219:9269   */\n      iszero\n      tag_501\n      jumpi\n        /* \"#utility.yul\":9265:9266   */\n      0x00\n        /* \"#utility.yul\":9262:9263   */\n      dup1\n        /* \"#utility.yul\":9255:9267   */\n      revert\n        /* \"#utility.yul\":9219:9269   */\n    tag_501:\n        /* \"#utility.yul\":9298:9302   */\n      0x20\n        /* \"#utility.yul\":9286:9303   */\n      add\n      swap2\n      pop\n        /* \"#utility.yul\":9329:9343   */\n      calldatasize\n        /* \"#utility.yul\":9325:9352   */\n      dup2\n      swap1\n      sub\n        /* \"#utility.yul\":9315:9353   */\n      dup3\n      sgt\n        /* \"#utility.yul\":9312:9370   */\n      iszero\n      tag_502\n      jumpi\n        /* \"#utility.yul\":9366:9367   */\n      0x00\n        /* \"#utility.yul\":9363:9364   */\n      dup1\n        /* \"#utility.yul\":9356:9368   */\n      revert\n        /* \"#utility.yul\":9312:9370   */\n    tag_502:\n        /* \"#utility.yul\":8855:9376   */\n      swap3\n      pop\n      swap3\n      swap1\n      pop\n      jump\t// out\n        /* \"#utility.yul\":9381:9741   */\n    tag_236:\n        /* \"#utility.yul\":9592:9598   */\n      dup3\n        /* \"#utility.yul\":9584:9590   */\n      dup5\n        /* \"#utility.yul\":9579:9582   */\n      dup3\n        /* \"#utility.yul\":9566:9599   */\n      calldatacopy\n        /* \"#utility.yul\":9662:9664   */\n      0x60\n        /* \"#utility.yul\":9658:9673   */\n      swap2\n      swap1\n      swap2\n      shl\n      not(0xffffffffffffffffffffffff)\n        /* \"#utility.yul\":9654:9707   */\n      and\n        /* \"#utility.yul\":9618:9634   */\n      swap2\n      add\n        /* \"#utility.yul\":9643:9708   */\n      swap1\n      dup2\n      mstore\n        /* \"#utility.yul\":9732:9734   */\n      0x14\n        /* \"#utility.yul\":9724:9735   */\n      add\n      swap2\n        /* \"#utility.yul\":9381:9741   */\n      swap1\n      pop\n      jump\t// out\n        /* \"#utility.yul\":15273:15791   */\n    tag_428:\n        /* \"#utility.yul\":15375:15377   */\n      0x1f\n        /* \"#utility.yul\":15370:15373   */\n      dup3\n        /* \"#utility.yul\":15367:15378   */\n      gt\n        /* \"#utility.yul\":15364:15785   */\n      iszero\n      tag_192\n      jumpi\n        /* \"#utility.yul\":15411:15416   */\n      dup1\n        /* \"#utility.yul\":15408:15409   */\n      0x00\n        /* \"#utility.yul\":15401:15417   */\n      mstore\n        /* \"#utility.yul\":15455:15459   */\n      0x20\n        /* \"#utility.yul\":15452:15453   */\n      0x00\n        /* \"#utility.yul\":15442:15460   */\n      keccak256\n        /* \"#utility.yul\":15525:15527   */\n      0x1f\n        /* \"#utility.yul\":15513:15523   */\n      dup5\n        /* \"#utility.yul\":15509:15528   */\n      add\n        /* \"#utility.yul\":15506:15507   */\n      0x05\n        /* \"#utility.yul\":15502:15529   */\n      shr\n        /* \"#utility.yul\":15496:15500   */\n      dup2\n        /* \"#utility.yul\":15492:15530   */\n      add\n        /* \"#utility.yul\":15561:15565   */\n      0x20\n        /* \"#utility.yul\":15549:15559   */\n      dup6\n        /* \"#utility.yul\":15546:15566   */\n      lt\n        /* \"#utility.yul\":15543:15590   */\n      iszero\n      tag_520\n      jumpi\n      pop\n        /* \"#utility.yul\":15584:15588   */\n      dup1\n        /* \"#utility.yul\":15543:15590   */\n    tag_520:\n        /* \"#utility.yul\":15639:15641   */\n      0x1f\n        /* \"#utility.yul\":15634:15637   */\n      dup5\n        /* \"#utility.yul\":15630:15642   */\n      add\n        /* \"#utility.yul\":15627:15628   */\n      0x05\n        /* \"#utility.yul\":15623:15643   */\n      shr\n        /* \"#utility.yul\":15617:15621   */\n      dup3\n        /* \"#utility.yul\":15613:15644   */\n      add\n        /* \"#utility.yul\":15603:15644   */\n      swap2\n      pop\n        /* \"#utility.yul\":15694:15775   */\n    tag_521:\n        /* \"#utility.yul\":15712:15714   */\n      dup2\n        /* \"#utility.yul\":15705:15710   */\n      dup2\n        /* \"#utility.yul\":15702:15715   */\n      lt\n        /* \"#utility.yul\":15694:15775   */\n      iszero\n      tag_523\n      jumpi\n        /* \"#utility.yul\":15771:15772   */\n      0x00\n        /* \"#utility.yul\":15757:15773   */\n      dup2\n      sstore\n        /* \"#utility.yul\":15738:15739   */\n      0x01\n        /* \"#utility.yul\":15727:15740   */\n      add\n        /* \"#utility.yul\":15694:15775   */\n      jump(tag_521)\n    tag_523:\n        /* \"#utility.yul\":15698:15701   */\n      pop\n      pop\n        /* \"#utility.yul\":15273:15791   */\n      pop\n      pop\n      pop\n      jump\t// out\n        /* \"#utility.yul\":15967:17312   */\n    tag_343:\n        /* \"#utility.yul\":16093:16096   */\n      dup2\n        /* \"#utility.yul\":16087:16097   */\n      mload\n        /* \"#utility.yul\":16120:16138   */\n      0xffffffffffffffff\n        /* \"#utility.yul\":16112:16118   */\n      dup2\n        /* \"#utility.yul\":16109:16139   */\n      gt\n        /* \"#utility.yul\":16106:16162   */\n      iszero\n      tag_527\n      jumpi\n        /* \"#utility.yul\":16142:16160   */\n      tag_527\n      tag_221\n      jump\t// in\n    tag_527:\n        /* \"#utility.yul\":16171:16268   */\n      tag_528\n        /* \"#utility.yul\":16261:16267   */\n      dup2\n        /* \"#utility.yul\":16221:16259   */\n      tag_529\n        /* \"#utility.yul\":16253:16257   */\n      dup5\n        /* \"#utility.yul\":16247:16258   */\n      sload\n        /* \"#utility.yul\":16221:16259   */\n      tag_124\n      jump\t// in\n    tag_529:\n        /* \"#utility.yul\":16215:16219   */\n      dup5\n        /* \"#utility.yul\":16171:16268   */\n      tag_428\n      jump\t// in\n    tag_528:\n        /* \"#utility.yul\":16323:16327   */\n      0x20\n      dup1\n        /* \"#utility.yul\":16380:16382   */\n      0x1f\n        /* \"#utility.yul\":16369:16383   */\n      dup4\n      gt\n        /* \"#utility.yul\":16397:16398   */\n      0x01\n        /* \"#utility.yul\":16392:17055   */\n      dup2\n      eq\n      tag_531\n      jumpi\n        /* \"#utility.yul\":17099:17100   */\n      0x00\n        /* \"#utility.yul\":17116:17122   */\n      dup5\n        /* \"#utility.yul\":17113:17202   */\n      iszero\n      tag_532\n      jumpi\n      pop\n        /* \"#utility.yul\":17168:17187   */\n      dup6\n      dup4\n      add\n        /* \"#utility.yul\":17162:17188   */\n      mload\n        /* \"#utility.yul\":17113:17202   */\n    tag_532:\n      not(0x00)\n        /* \"#utility.yul\":15924:15925   */\n      0x03\n        /* \"#utility.yul\":15920:15931   */\n      dup7\n      swap1\n      shl\n        /* \"#utility.yul\":15916:15940   */\n      shr\n        /* \"#utility.yul\":15912:15941   */\n      not\n        /* \"#utility.yul\":15902:15942   */\n      and\n        /* \"#utility.yul\":15948:15949   */\n      0x01\n        /* \"#utility.yul\":15944:15955   */\n      dup6\n      swap1\n      shl\n        /* \"#utility.yul\":15899:15956   */\n      or\n        /* \"#utility.yul\":17215:17296   */\n      dup6\n      sstore\n        /* \"#utility.yul\":16362:17306   */\n      jump(tag_530)\n        /* \"#utility.yul\":16392:17055   */\n    tag_531:\n        /* \"#utility.yul\":15220:15221   */\n      0x00\n        /* \"#utility.yul\":15213:15227   */\n      dup6\n      dup2\n      mstore\n        /* \"#utility.yul\":15257:15261   */\n      0x20\n        /* \"#utility.yul\":15244:15262   */\n      dup2\n      keccak256\n      not(0x1f)\n        /* \"#utility.yul\":16428:16448   */\n      dup7\n      and\n      swap2\n        /* \"#utility.yul\":16546:16782   */\n    tag_535:\n        /* \"#utility.yul\":16560:16567   */\n      dup3\n        /* \"#utility.yul\":16557:16558   */\n      dup2\n        /* \"#utility.yul\":16554:16568   */\n      lt\n        /* \"#utility.yul\":16546:16782   */\n      iszero\n      tag_537\n      jumpi\n        /* \"#utility.yul\":16649:16668   */\n      dup9\n      dup7\n      add\n        /* \"#utility.yul\":16643:16669   */\n      mload\n        /* \"#utility.yul\":16628:16670   */\n      dup3\n      sstore\n        /* \"#utility.yul\":16741:16768   */\n      swap5\n      dup5\n      add\n      swap5\n        /* \"#utility.yul\":16709:16710   */\n      0x01\n        /* \"#utility.yul\":16697:16711   */\n      swap1\n      swap2\n      add\n      swap1\n        /* \"#utility.yul\":16576:16595   */\n      dup5\n      add\n        /* \"#utility.yul\":16546:16782   */\n      jump(tag_535)\n    tag_537:\n        /* \"#utility.yul\":16550:16553   */\n      pop\n        /* \"#utility.yul\":16810:16816   */\n      dup6\n        /* \"#utility.yul\":16801:16808   */\n      dup3\n        /* \"#utility.yul\":16798:16817   */\n      lt\n        /* \"#utility.yul\":16795:16996   */\n      iszero\n      tag_538\n      jumpi\n        /* \"#utility.yul\":16871:16890   */\n      dup8\n      dup6\n      add\n        /* \"#utility.yul\":16865:16891   */\n      mload\n      not(0x00)\n        /* \"#utility.yul\":16954:16955   */\n      0x03\n        /* \"#utility.yul\":16950:16964   */\n      dup9\n      swap1\n      shl\n        /* \"#utility.yul\":16966:16969   */\n      0xf8\n        /* \"#utility.yul\":16946:16970   */\n      and\n        /* \"#utility.yul\":16942:16979   */\n      shr\n        /* \"#utility.yul\":16938:16980   */\n      not\n        /* \"#utility.yul\":16923:16981   */\n      and\n        /* \"#utility.yul\":16908:16982   */\n      dup2\n      sstore\n        /* \"#utility.yul\":16795:16996   */\n    tag_538:\n      pop\n      pop\n        /* \"#utility.yul\":17042:17043   */\n      0x01\n        /* \"#utility.yul\":17033:17039   */\n      dup5\n        /* \"#utility.yul\":17030:17031   */\n      0x01\n        /* \"#utility.yul\":17026:17040   */\n      shl\n        /* \"#utility.yul\":17022:17044   */\n      add\n        /* \"#utility.yul\":17016:17020   */\n      dup6\n        /* \"#utility.yul\":17009:17045   */\n      sstore\n        /* \"#utility.yul\":16362:17306   */\n    tag_530:\n      pop\n      pop\n      pop\n      pop\n        /* \"#utility.yul\":15967:17312   */\n      pop\n      pop\n      jump\t// out\n        /* \"#utility.yul\":17317:17700   */\n    tag_345:\n        /* \"#utility.yul\":17514:17516   */\n      0x40\n        /* \"#utility.yul\":17503:17512   */\n      dup2\n        /* \"#utility.yul\":17496:17517   */\n      mstore\n        /* \"#utility.yul\":17477:17481   */\n      0x00\n        /* \"#utility.yul\":17540:17585   */\n      tag_540\n        /* \"#utility.yul\":17581:17583   */\n      0x40\n        /* \"#utility.yul\":17570:17579   */\n      dup4\n        /* \"#utility.yul\":17566:17584   */\n      add\n        /* \"#utility.yul\":17558:17564   */\n      dup6\n        /* \"#utility.yul\":17540:17585   */\n      tag_424\n      jump\t// in\n    tag_540:\n        /* \"#utility.yul\":17633:17642   */\n      dup3\n        /* \"#utility.yul\":17625:17631   */\n      dup2\n        /* \"#utility.yul\":17621:17643   */\n      sub\n        /* \"#utility.yul\":17616:17618   */\n      0x20\n        /* \"#utility.yul\":17605:17614   */\n      dup5\n        /* \"#utility.yul\":17601:17619   */\n      add\n        /* \"#utility.yul\":17594:17644   */\n      mstore\n        /* \"#utility.yul\":17661:17694   */\n      tag_541\n        /* \"#utility.yul\":17687:17693   */\n      dup2\n        /* \"#utility.yul\":17679:17685   */\n      dup6\n        /* \"#utility.yul\":17661:17694   */\n      tag_424\n      jump\t// in\n    tag_541:\n        /* \"#utility.yul\":17653:17694   */\n      swap6\n        /* \"#utility.yul\":17317:17700   */\n      swap5\n      pop\n      pop\n      pop\n      pop\n      pop\n      jump\t// out\n        /* \"#utility.yul\":17705:18006   */\n    tag_363:\n        /* \"#utility.yul\":17834:17837   */\n      0x00\n        /* \"#utility.yul\":17872:17878   */\n      dup3\n        /* \"#utility.yul\":17866:17879   */\n      mload\n        /* \"#utility.yul\":17918:17924   */\n      dup1\n        /* \"#utility.yul\":17911:17915   */\n      0x20\n        /* \"#utility.yul\":17903:17909   */\n      dup6\n        /* \"#utility.yul\":17899:17916   */\n      add\n        /* \"#utility.yul\":17894:17897   */\n      dup5\n        /* \"#utility.yul\":17888:17925   */\n      mcopy\n        /* \"#utility.yul\":17980:17981   */\n      0x00\n        /* \"#utility.yul\":17944:17960   */\n      swap3\n      add\n        /* \"#utility.yul\":17969:17982   */\n      swap2\n      dup3\n      mstore\n      pop\n        /* \"#utility.yul\":17944:17960   */\n      swap2\n        /* \"#utility.yul\":17705:18006   */\n      swap1\n      pop\n      jump\t// out\n        /* \"#utility.yul\":18414:18541   */\n    tag_380:\n        /* \"#utility.yul\":18475:18485   */\n      0x4e487b71\n        /* \"#utility.yul\":18470:18473   */\n      0xe0\n        /* \"#utility.yul\":18466:18486   */\n      shl\n        /* \"#utility.yul\":18463:18464   */\n      0x00\n        /* \"#utility.yul\":18456:18487   */\n      mstore\n        /* \"#utility.yul\":18506:18510   */\n      0x21\n        /* \"#utility.yul\":18503:18504   */\n      0x04\n        /* \"#utility.yul\":18496:18511   */\n      mstore\n        /* \"#utility.yul\":18530:18534   */\n      0x24\n        /* \"#utility.yul\":18527:18528   */\n      0x00\n        /* \"#utility.yul\":18520:18535   */\n      revert\n    stop\n    data_9fdcd12e4b726339b32a442b0a448365d5d85c96b2d2cff917b4f66c63110398 416464726573733a206c6f772d6c6576656c2064656c65676174652063616c6c206661696c6564\n\n    auxdata: 0xa26469706673582212205ddf5feec44494a0808f611cbaddb9e5e29299ea6df309a68185397c01c2fe3b64736f6c63430008190033\n}\n",
    "bytecode": {
      "linkReferences": {},
      "object": "6101006040527f6e71edae12b1b97f4d1f60370fef10105fa2faae0126114a169c64845d6126c960e052348015610034575f80fd5b506040516122dd3803806122dd833981016040819052610053916103b2565b82828281818181600561006683826104b1565b50600661007382826104b1565b50504660a052503060c0526100866100bc565b60805250610095905083610150565b5050506100b4836b033b2e3c9fd0803ce80000006101a160201b60201c565b505050610595565b5f7f8b73c3c69bb8fe3d512ecc4cf759cc79239f7b179b0ffacaa9a75d522b39400f6100e6610281565b80516020918201206040805192830193909352918101919091527fc89efdaa54c0f20c7adf612882df0950f5a951637e0307cdcb4c672f298b8bc660608201524660808201523060a082015260c00160405160208183030381529060405280519060200120905090565b600180546001600160a01b038381166001600160a01b0319831681179093556040519116919082907f8292fce18fa69edf4db7b94ea2e58241df0ae57f97e0a6c9b29067028bf92d76905f90a35050565b6001600160a01b0382166101fb5760405162461bcd60e51b815260206004820152601f60248201527f45524332303a206d696e7420746f20746865207a65726f206164647265737300604482015260640160405180910390fd5b8060045f82825461020c9190610570565b90915550506001600160a01b0382165f9081526002602052604081208054839290610238908490610570565b90915550506040518181526001600160a01b038316905f907fddf252ad1be2c89b69c2b068fc378daa952ba7f163c4a11628f55a4df523b3ef9060200160405180910390a35050565b6060600580546102909061042e565b80601f01602080910402602001604051908101604052809291908181526020018280546102bc9061042e565b80156103075780601f106102de57610100808354040283529160200191610307565b820191905f5260205f20905b8154815290600101906020018083116102ea57829003601f168201915b5050505050905090565b505050565b634e487b7160e01b5f52604160045260245ffd5b5f82601f830112610339575f80fd5b81516001600160401b038082111561035357610353610316565b604051601f8301601f19908116603f0116810190828211818310171561037b5761037b610316565b81604052838152866020858801011115610393575f80fd5b8360208701602083015e5f602085830101528094505050505092915050565b5f805f606084860312156103c4575f80fd5b83516001600160a01b03811681146103da575f80fd5b60208501519093506001600160401b03808211156103f6575f80fd5b6104028783880161032a565b93506040860151915080821115610417575f80fd5b506104248682870161032a565b9150509250925092565b600181811c9082168061044257607f821691505b60208210810361046057634e487b7160e01b5f52602260045260245ffd5b50919050565b601f82111561031157805f5260205f20601f840160051c8101602085101561048b5750805b601f840160051c820191505b818110156104aa575f8155600101610497565b5050505050565b81516001600160401b038111156104ca576104ca610316565b6104de816104d8845461042e565b84610466565b602080601f831160018114610511575f84156104fa5750858301515b5f19600386901b1c1916600185901b178555610568565b5f85815260208120601f198616915b8281101561053f57888601518255948401946001909101908401610520565b508582101561055c57878501515f19600388901b60f8161c191681555b505060018460011b0185555b505050505050565b8082018082111561058f57634e487b7160e01b5f52601160045260245ffd5b92915050565b60805160a05160c05160e051611d156105c85f395f610a2a01525f61046e01525f61049801525f6104c20152611d155ff3fe608060405234801561000f575f80fd5b5060043610610179575f3560e01c806379cc6790116100d2578063a457c2d711610088578063d505accf11610063578063d505accf14610312578063dd62ed3e14610325578063e8a3d4851461035d575f80fd5b8063a457c2d7146102cc578063a9059cbb146102df578063ac9650d8146102f2575f80fd5b80638da5cb5b116100b85780638da5cb5b14610296578063938e3d7b146102b157806395d89b41146102c4575f80fd5b806379cc6790146102705780637ecebe0014610283575f80fd5b8063313ce5671161013257806342966c681161010d57806342966c6814610222578063449a52f81461023557806370a0823114610248575f80fd5b8063313ce567146101f85780633644e51514610207578063395093511461020f575f80fd5b806313af40351161016257806313af4035146101be57806318160ddd146101d357806323b872dd146101e5575f80fd5b806306fdde031461017d578063095ea7b31461019b575b5f80fd5b610185610365565b604051610192919061177a565b60405180910390f35b6101ae6101a93660046117a7565b6103f5565b6040519015158152602001610192565b6101d16101cc3660046117cf565b61040e565b005b6004545b604051908152602001610192565b6101ae6101f33660046117e8565b61043f565b60405160128152602001610192565b6101d7610462565b6101ae61021d3660046117a7565b6104f1565b6101d1610230366004611821565b61052f565b6101d16102433660046117a7565b61059c565b6101d76102563660046117cf565b6001600160a01b03165f9081526002602052604090205490565b6101d161027e3660046117a7565b61064d565b6101d76102913660046117cf565b610763565b6001546040516001600160a01b039091168152602001610192565b6101d16102bf36600461184c565b610780565b6101856107ae565b6101ae6102da3660046117a7565b6107bd565b6101ae6102ed3660046117a7565b610866565b6103056103003660046118f7565b610873565b6040516101929190611966565b6101d16103203660046119c8565b6109d7565b6101d7610333366004611a35565b6001600160a01b039182165f90815260036020908152604080832093909416825291909152205490565b610185610b5a565b60606005805461037490611a66565b80601f01602080910402602001604051908101604052809291908181526020018280546103a090611a66565b80156103eb5780601f106103c2576101008083540402835291602001916103eb565b820191905f5260205f20905b8154815290600101906020018083116103ce57829003601f168201915b5050505050905090565b5f33610402818585610be5565b60019150505b92915050565b610416610d08565b610433576040516316ccb9cb60e11b815260040160405180910390fd5b61043c81610d34565b50565b5f3361044c858285610d9d565b610457858585610e2d565b506001949350505050565b5f306001600160a01b037f0000000000000000000000000000000000000000000000000000000000000000161480156104ba57507f000000000000000000000000000000000000000000000000000000000000000046145b156104e457507f000000000000000000000000000000000000000000000000000000000000000090565b6104ec611028565b905090565b335f8181526003602090815260408083206001600160a01b0387168452909152812054909190610402908290869061052a908790611aac565b610be5565b335f908152600260205260409020548111156105925760405162461bcd60e51b815260206004820152601260248201527f6e6f7420656e6f7567682062616c616e6365000000000000000000000000000060448201526064015b60405180910390fd5b61043c33826110bc565b6105a4610d08565b6105f05760405162461bcd60e51b815260206004820152601760248201527f4e6f7420617574686f72697a656420746f206d696e742e0000000000000000006044820152606401610589565b805f0361063f5760405162461bcd60e51b815260206004820152601460248201527f4d696e74696e67207a65726f20746f6b656e732e0000000000000000000000006044820152606401610589565b6106498282611207565b5050565b610655610d08565b6106a15760405162461bcd60e51b815260206004820152601760248201527f4e6f7420617574686f72697a656420746f206275726e2e0000000000000000006044820152606401610589565b806106c0836001600160a01b03165f9081526002602052604090205490565b101561070e5760405162461bcd60e51b815260206004820152601260248201527f6e6f7420656e6f7567682062616c616e636500000000000000000000000000006044820152606401610589565b6001600160a01b0382165f90815260036020908152604080832033845290915281205461073c908390611abf565b905061074983335f610be5565b610754833383610be5565b61075e83836110bc565b505050565b6001600160a01b0381165f90815260076020526040812054610408565b610788610d08565b6107a557604051639f7f092560e01b815260040160405180910390fd5b61043c816112e3565b60606006805461037490611a66565b335f8181526003602090815260408083206001600160a01b0387168452909152812054909190838110156108595760405162461bcd60e51b815260206004820152602560248201527f45524332303a2064656372656173656420616c6c6f77616e63652062656c6f7760448201527f207a65726f0000000000000000000000000000000000000000000000000000006064820152608401610589565b6104578286868403610be5565b5f33610402818585610e2d565b60608167ffffffffffffffff81111561088e5761088e611838565b6040519080825280602002602001820160405280156108c157816020015b60608152602001906001900390816108ac5790505b509050335f805b848110156109ce57811561094757610925308787848181106108ec576108ec611ad2565b90506020028101906108fe9190611ae6565b8660405160200161091193929190611b30565b6040516020818303038152906040526113ba565b84828151811061093757610937611ad2565b60200260200101819052506109c6565b6109a83087878481811061095d5761095d611ad2565b905060200281019061096f9190611ae6565b8080601f0160208091040260200160405190810160405280939291908181526020018383808284375f920191909152506113ba92505050565b8482815181106109ba576109ba611ad2565b60200260200101819052505b6001016108c8565b50505092915050565b83421115610a275760405162461bcd60e51b815260206004820152601d60248201527f45524332305065726d69743a206578706972656420646561646c696e650000006044820152606401610589565b5f7f0000000000000000000000000000000000000000000000000000000000000000888888610a558c6113e6565b6040805160208101969096526001600160a01b0394851690860152929091166060840152608083015260a082015260c0810186905260e0016040516020818303038152906040528051906020012090505f610ad1610ab1610462565b8360405161190160f01b8152600281019290925260228201526042902090565b90505f610ae08287878761140d565b9050896001600160a01b0316816001600160a01b031614610b435760405162461bcd60e51b815260206004820152601e60248201527f45524332305065726d69743a20696e76616c6964207369676e617475726500006044820152606401610589565b610b4e8a8a8a610be5565b50505050505050505050565b5f8054610b6690611a66565b80601f0160208091040260200160405190810160405280929190818152602001828054610b9290611a66565b8015610bdd5780601f10610bb457610100808354040283529160200191610bdd565b820191905f5260205f20905b815481529060010190602001808311610bc057829003601f168201915b505050505081565b6001600160a01b038316610c475760405162461bcd60e51b8152602060048201526024808201527f45524332303a20617070726f76652066726f6d20746865207a65726f206164646044820152637265737360e01b6064820152608401610589565b6001600160a01b038216610ca85760405162461bcd60e51b815260206004820152602260248201527f45524332303a20617070726f766520746f20746865207a65726f206164647265604482015261737360f01b6064820152608401610589565b6001600160a01b038381165f8181526003602090815260408083209487168084529482529182902085905590518481527f8c5be1e5ebec7d5bd14f71427d1e84f3dd0314c0f7b2291e5b200ac8c7c3b925910160405180910390a3505050565b5f610d1b6001546001600160a01b031690565b6001600160a01b0316336001600160a01b031614905090565b600180546001600160a01b038381167fffffffffffffffffffffffff0000000000000000000000000000000000000000831681179093556040519116919082907f8292fce18fa69edf4db7b94ea2e58241df0ae57f97e0a6c9b29067028bf92d76905f90a35050565b6001600160a01b038381165f908152600360209081526040808320938616835292905220545f198114610e275781811015610e1a5760405162461bcd60e51b815260206004820152601d60248201527f45524332303a20696e73756666696369656e7420616c6c6f77616e63650000006044820152606401610589565b610e278484848403610be5565b50505050565b6001600160a01b038316610ea95760405162461bcd60e51b815260206004820152602560248201527f45524332303a207472616e736665722066726f6d20746865207a65726f20616460448201527f64726573730000000000000000000000000000000000000000000000000000006064820152608401610589565b6001600160a01b038216610f0b5760405162461bcd60e51b815260206004820152602360248201527f45524332303a207472616e7366657220746f20746865207a65726f206164647260448201526265737360e81b6064820152608401610589565b6001600160a01b0383165f9081526002602052604090205481811015610f995760405162461bcd60e51b815260206004820152602660248201527f45524332303a207472616e7366657220616d6f756e742065786365656473206260448201527f616c616e636500000000000000000000000000000000000000000000000000006064820152608401610589565b6001600160a01b038085165f90815260026020526040808220858503905591851681529081208054849290610fcf908490611aac565b92505081905550826001600160a01b0316846001600160a01b03167fddf252ad1be2c89b69c2b068fc378daa952ba7f163c4a11628f55a4df523b3ef8460405161101b91815260200190565b60405180910390a3610e27565b5f7f8b73c3c69bb8fe3d512ecc4cf759cc79239f7b179b0ffacaa9a75d522b39400f611052610365565b80516020918201206040805192830193909352918101919091527fc89efdaa54c0f20c7adf612882df0950f5a951637e0307cdcb4c672f298b8bc660608201524660808201523060a082015260c00160405160208183030381529060405280519060200120905090565b6001600160a01b03821661111c5760405162461bcd60e51b815260206004820152602160248201527f45524332303a206275726e2066726f6d20746865207a65726f206164647265736044820152607360f81b6064820152608401610589565b6001600160a01b0382165f908152600260205260409020548181101561118f5760405162461bcd60e51b815260206004820152602260248201527f45524332303a206275726e20616d6f756e7420657863656564732062616c616e604482015261636560f01b6064820152608401610589565b6001600160a01b0383165f9081526002602052604081208383039055600480548492906111bd908490611abf565b90915550506040518281525f906001600160a01b038516907fddf252ad1be2c89b69c2b068fc378daa952ba7f163c4a11628f55a4df523b3ef9060200160405180910390a3505050565b6001600160a01b03821661125d5760405162461bcd60e51b815260206004820152601f60248201527f45524332303a206d696e7420746f20746865207a65726f2061646472657373006044820152606401610589565b8060045f82825461126e9190611aac565b90915550506001600160a01b0382165f908152600260205260408120805483929061129a908490611aac565b90915550506040518181526001600160a01b038316905f907fddf252ad1be2c89b69c2b068fc378daa952ba7f163c4a11628f55a4df523b3ef9060200160405180910390a35050565b5f8080546112f090611a66565b80601f016020809104026020016040519081016040528092919081815260200182805461131c90611a66565b80156113675780601f1061133e57610100808354040283529160200191611367565b820191905f5260205f20905b81548152906001019060200180831161134a57829003601f168201915b50505050509050815f908161137c9190611ba1565b507fc9c7c3fe08b88b4df9d4d47ef47d2c43d55c025a0ba88ca442580ed9e7348a1681836040516113ae929190611c61565b60405180910390a15050565b60606113df8383604051806060016040528060278152602001611cb960279139611435565b9392505050565b6001600160a01b0381165f9081526007602052604090208054600181018255905b50919050565b5f805f61141c878787876114a9565b9150915061142981611566565b5090505b949350505050565b60605f80856001600160a01b0316856040516114519190611c8e565b5f60405180830381855af49150503d805f8114611489576040519150601f19603f3d011682016040523d82523d5f602084013e61148e565b606091505b509150915061149f868383876116af565b9695505050505050565b5f807f7fffffffffffffffffffffffffffffff5d576e7357a4501ddfe92f46681b20a08311156114de57505f9050600361155d565b604080515f8082526020820180845289905260ff881692820192909252606081018690526080810185905260019060a0016020604051602081039080840390855afa15801561152f573d5f803e3d5ffd5b5050604051601f1901519150506001600160a01b038116611557575f6001925092505061155d565b91505f90505b94509492505050565b5f81600481111561157957611579611ca4565b036115815750565b600181600481111561159557611595611ca4565b036115e25760405162461bcd60e51b815260206004820152601860248201527f45434453413a20696e76616c6964207369676e617475726500000000000000006044820152606401610589565b60028160048111156115f6576115f6611ca4565b036116435760405162461bcd60e51b815260206004820152601f60248201527f45434453413a20696e76616c6964207369676e6174757265206c656e677468006044820152606401610589565b600381600481111561165757611657611ca4565b0361043c5760405162461bcd60e51b815260206004820152602260248201527f45434453413a20696e76616c6964207369676e6174757265202773272076616c604482015261756560f01b6064820152608401610589565b6060831561171d5782515f03611716576001600160a01b0385163b6117165760405162461bcd60e51b815260206004820152601d60248201527f416464726573733a2063616c6c20746f206e6f6e2d636f6e74726163740000006044820152606401610589565b508161142d565b61142d83838151156117325781518083602001fd5b8060405162461bcd60e51b8152600401610589919061177a565b5f81518084528060208401602086015e5f602082860101526020601f19601f83011685010191505092915050565b602081525f6113df602083018461174c565b80356001600160a01b03811681146117a2575f80fd5b919050565b5f80604083850312156117b8575f80fd5b6117c18361178c565b946020939093013593505050565b5f602082840312156117df575f80fd5b6113df8261178c565b5f805f606084860312156117fa575f80fd5b6118038461178c565b92506118116020850161178c565b9150604084013590509250925092565b5f60208284031215611831575f80fd5b5035919050565b634e487b7160e01b5f52604160045260245ffd5b5f6020828403121561185c575f80fd5b813567ffffffffffffffff80821115611873575f80fd5b818401915084601f830112611886575f80fd5b81358181111561189857611898611838565b604051601f8201601f19908116603f011681019083821181831017156118c0576118c0611838565b816040528281528760208487010111156118d8575f80fd5b826020860160208301375f928101602001929092525095945050505050565b5f8060208385031215611908575f80fd5b823567ffffffffffffffff8082111561191f575f80fd5b818501915085601f830112611932575f80fd5b813581811115611940575f80fd5b8660208260051b8501011115611954575f80fd5b60209290920196919550909350505050565b5f60208083016020845280855180835260408601915060408160051b8701019250602087015f5b828110156119bb57603f198886030184526119a985835161174c565b9450928501929085019060010161198d565b5092979650505050505050565b5f805f805f805f60e0888a0312156119de575f80fd5b6119e78861178c565b96506119f56020890161178c565b95506040880135945060608801359350608088013560ff81168114611a18575f80fd5b9699959850939692959460a0840135945060c09093013592915050565b5f8060408385031215611a46575f80fd5b611a4f8361178c565b9150611a5d6020840161178c565b90509250929050565b600181811c90821680611a7a57607f821691505b60208210810361140757634e487b7160e01b5f52602260045260245ffd5b634e487b7160e01b5f52601160045260245ffd5b8082018082111561040857610408611a98565b8181038181111561040857610408611a98565b634e487b7160e01b5f52603260045260245ffd5b5f808335601e19843603018112611afb575f80fd5b83018035915067ffffffffffffffff821115611b15575f80fd5b602001915036819003821315611b29575f80fd5b9250929050565b8284823760609190911b6bffffffffffffffffffffffff19169101908152601401919050565b601f82111561075e57805f5260205f20601f840160051c81016020851015611b7b5750805b601f840160051c820191505b81811015611b9a575f8155600101611b87565b5050505050565b815167ffffffffffffffff811115611bbb57611bbb611838565b611bcf81611bc98454611a66565b84611b56565b602080601f831160018114611c02575f8415611beb5750858301515b5f19600386901b1c1916600185901b178555611c59565b5f85815260208120601f198616915b82811015611c3057888601518255948401946001909101908401611c11565b5085821015611c4d57878501515f19600388901b60f8161c191681555b505060018460011b0185555b505050505050565b604081525f611c73604083018561174c565b8281036020840152611c85818561174c565b95945050505050565b5f82518060208501845e5f920191825250919050565b634e487b7160e01b5f52602160045260245ffdfe416464726573733a206c6f772d6c6576656c2064656c65676174652063616c6c206661696c6564a26469706673582212205ddf5feec44494a0808f611cbaddb9e5e29299ea6df309a68185397c01c2fe3b64736f6c63430008190033",
      "opcodes": "PUSH2 0x100 PUSH1 0x40 MSTORE PUSH32 0x6E71EDAE12B1B97F4D1F60370FEF10105FA2FAAE0126114A169C64845D6126C9 PUSH1 0xE0 MSTORE CALLVALUE DUP1 ISZERO PUSH2 0x34 JUMPI PUSH0 DUP1 REVERT JUMPDEST POP PUSH1 0x40 MLOAD PUSH2 0x22DD CODESIZE SUB DUP1 PUSH2 0x22DD DUP4 CODECOPY DUP2 ADD PUSH1 0x40 DUP2 SWAP1 MSTORE PUSH2 0x53 SWAP2 PUSH2 0x3B2 JUMP JUMPDEST DUP3 DUP3 DUP3 DUP2 DUP2 DUP2 DUP2 PUSH1 0x5 PUSH2 0x66 DUP4 DUP3 PUSH2 0x4B1 JUMP JUMPDEST POP PUSH1 0x6 PUSH2 0x73 DUP3 DUP3 PUSH2 0x4B1 JUMP JUMPDEST POP POP CHAINID PUSH1 0xA0 MSTORE POP ADDRESS PUSH1 0xC0 MSTORE PUSH2 0x86 PUSH2 0xBC JUMP JUMPDEST PUSH1 0x80 MSTORE POP PUSH2 0x95 SWAP1 POP DUP4 PUSH2 0x150 JUMP JUMPDEST POP POP POP PUSH2 0xB4 DUP4 PUSH12 0x33B2E3C9FD0803CE8000000 PUSH2 0x1A1 PUSH1 0x20 SHL PUSH1 0x20 SHR JUMP JUMPDEST POP POP POP PUSH2 0x595 JUMP JUMPDEST PUSH0 PUSH32 0x8B73C3C69BB8FE3D512ECC4CF759CC79239F7B179B0FFACAA9A75D522B39400F PUSH2 0xE6 PUSH2 0x281 JUMP JUMPDEST DUP1 MLOAD PUSH1 0x20 SWAP2 DUP3 ADD KECCAK256 PUSH1 0x40 DUP1 MLOAD SWAP3 DUP4 ADD SWAP4 SWAP1 SWAP4 MSTORE SWAP2 DUP2 ADD SWAP2 SWAP1 SWAP2 MSTORE PUSH32 0xC89EFDAA54C0F20C7ADF612882DF0950F5A951637E0307CDCB4C672F298B8BC6 PUSH1 0x60 DUP3 ADD MSTORE CHAINID PUSH1 0x80 DUP3 ADD MSTORE ADDRESS PUSH1 0xA0 DUP3 ADD MSTORE PUSH1 0xC0 ADD PUSH1 0x40 MLOAD PUSH1 0x20 DUP2 DUP4 SUB SUB DUP2 MSTORE SWAP1 PUSH1 0x40 MSTORE DUP1 MLOAD SWAP1 PUSH1 0x20 ADD KECCAK256 SWAP1 POP SWAP1 JUMP JUMPDEST PUSH1 0x1 DUP1 SLOAD PUSH1 0x1 PUSH1 0x1 PUSH1 0xA0 SHL SUB DUP4 DUP2 AND PUSH1 0x1 PUSH1 0x1 PUSH1 0xA0 SHL SUB NOT DUP4 AND DUP2 OR SWAP1 SWAP4 SSTORE PUSH1 0x40 MLOAD SWAP2 AND SWAP2 SWAP1 DUP3 SWAP1 PUSH32 0x8292FCE18FA69EDF4DB7B94EA2E58241DF0AE57F97E0A6C9B29067028BF92D76 SWAP1 PUSH0 SWAP1 LOG3 POP POP JUMP JUMPDEST PUSH1 0x1 PUSH1 0x1 PUSH1 0xA0 SHL SUB DUP3 AND PUSH2 0x1FB JUMPI PUSH1 0x40 MLOAD PUSH3 0x461BCD PUSH1 0xE5 SHL DUP2 MSTORE PUSH1 0x20 PUSH1 0x4 DUP3 ADD MSTORE PUSH1 0x1F PUSH1 0x24 DUP3 ADD MSTORE PUSH32 0x45524332303A206D696E7420746F20746865207A65726F206164647265737300 PUSH1 0x44 DUP3 ADD MSTORE PUSH1 0x64 ADD PUSH1 0x40 MLOAD DUP1 SWAP2 SUB SWAP1 REVERT JUMPDEST DUP1 PUSH1 0x4 PUSH0 DUP3 DUP3 SLOAD PUSH2 0x20C SWAP2 SWAP1 PUSH2 0x570 JUMP JUMPDEST SWAP1 SWAP2 SSTORE POP POP PUSH1 0x1 PUSH1 0x1 PUSH1 0xA0 SHL SUB DUP3 AND PUSH0 SWAP1 DUP2 MSTORE PUSH1 0x2 PUSH1 0x20 MSTORE PUSH1 0x40 DUP2 KECCAK256 DUP1 SLOAD DUP4 SWAP3 SWAP1 PUSH2 0x238 SWAP1 DUP5 SWAP1 PUSH2 0x570 JUMP JUMPDEST SWAP1 SWAP2 SSTORE POP POP PUSH1 0x40 MLOAD DUP2 DUP2 MSTORE PUSH1 0x1 PUSH1 0x1 PUSH1 0xA0 SHL SUB DUP4 AND SWAP1 PUSH0 SWAP1 PUSH32 0xDDF252AD1BE2C89B69C2B068FC378DAA952BA7F163C4A11628F55A4DF523B3EF SWAP1 PUSH1 0x20 ADD PUSH1 0x40 MLOAD DUP1 SWAP2 SUB SWAP1 LOG3 POP POP JUMP JUMPDEST PUSH1 0x60 PUSH1 0x5 DUP1 SLOAD PUSH2 0x290 SWAP1 PUSH2 0x42E JUMP JUMPDEST DUP1 PUSH1 0x1F ADD PUSH1 0x20 DUP1 SWAP2 DIV MUL PUSH1 0x20 ADD PUSH1 0x40 MLOAD SWAP1 DUP2 ADD PUSH1 0x40 MSTORE DUP1 SWAP3 SWAP2 SWAP1 DUP2 DUP2 MSTORE PUSH1 0x20 ADD DUP3 DUP1 SLOAD PUSH2 0x2BC SWAP1 PUSH2 0x42E JUMP JUMPDEST DUP1 ISZERO PUSH2 0x307 JUMPI DUP1 PUSH1 0x1F LT PUSH2 0x2DE JUMPI PUSH2 0x100 DUP1 DUP4 SLOAD DIV MUL DUP4 MSTORE SWAP2 PUSH1 0x20 ADD SWAP2 PUSH2 0x307 JUMP JUMPDEST DUP3 ADD SWAP2 SWAP1 PUSH0 MSTORE PUSH1 0x20 PUSH0 KECCAK256 SWAP1 JUMPDEST DUP2 SLOAD DUP2 MSTORE SWAP1 PUSH1 0x1 ADD SWAP1 PUSH1 0x20 ADD DUP1 DUP4 GT PUSH2 0x2EA JUMPI DUP3 SWAP1 SUB PUSH1 0x1F AND DUP3 ADD SWAP2 JUMPDEST POP POP POP POP POP SWAP1 POP SWAP1 JUMP JUMPDEST POP POP POP JUMP JUMPDEST PUSH4 0x4E487B71 PUSH1 0xE0 SHL PUSH0 MSTORE PUSH1 0x41 PUSH1 0x4 MSTORE PUSH1 0x24 PUSH0 REVERT JUMPDEST PUSH0 DUP3 PUSH1 0x1F DUP4 ADD SLT PUSH2 0x339 JUMPI PUSH0 DUP1 REVERT JUMPDEST DUP2 MLOAD PUSH1 0x1 PUSH1 0x1 PUSH1 0x40 SHL SUB DUP1 DUP3 GT ISZERO PUSH2 0x353 JUMPI PUSH2 0x353 PUSH2 0x316 JUMP JUMPDEST PUSH1 0x40 MLOAD PUSH1 0x1F DUP4 ADD PUSH1 0x1F NOT SWAP1 DUP2 AND PUSH1 0x3F ADD AND DUP2 ADD SWAP1 DUP3 DUP3 GT DUP2 DUP4 LT OR ISZERO PUSH2 0x37B JUMPI PUSH2 0x37B PUSH2 0x316 JUMP JUMPDEST DUP2 PUSH1 0x40 MSTORE DUP4 DUP2 MSTORE DUP7 PUSH1 0x20 DUP6 DUP9 ADD ADD GT ISZERO PUSH2 0x393 JUMPI PUSH0 DUP1 REVERT JUMPDEST DUP4 PUSH1 0x20 DUP8 ADD PUSH1 0x20 DUP4 ADD MCOPY PUSH0 PUSH1 0x20 DUP6 DUP4 ADD ADD MSTORE DUP1 SWAP5 POP POP POP POP POP SWAP3 SWAP2 POP POP JUMP JUMPDEST PUSH0 DUP1 PUSH0 PUSH1 0x60 DUP5 DUP7 SUB SLT ISZERO PUSH2 0x3C4 JUMPI PUSH0 DUP1 REVERT JUMPDEST DUP4 MLOAD PUSH1 0x1 PUSH1 0x1 PUSH1 0xA0 SHL SUB DUP2 AND DUP2 EQ PUSH2 0x3DA JUMPI PUSH0 DUP1 REVERT JUMPDEST PUSH1 0x20 DUP6 ADD MLOAD SWAP1 SWAP4 POP PUSH1 0x1 PUSH1 0x1 PUSH1 0x40 SHL SUB DUP1 DUP3 GT ISZERO PUSH2 0x3F6 JUMPI PUSH0 DUP1 REVERT JUMPDEST PUSH2 0x402 DUP8 DUP4 DUP9 ADD PUSH2 0x32A JUMP JUMPDEST SWAP4 POP PUSH1 0x40 DUP7 ADD MLOAD SWAP2 POP DUP1 DUP3 GT ISZERO PUSH2 0x417 JUMPI PUSH0 DUP1 REVERT JUMPDEST POP PUSH2 0x424 DUP7 DUP3 DUP8 ADD PUSH2 0x32A JUMP JUMPDEST SWAP2 POP POP SWAP3 POP SWAP3 POP SWAP3 JUMP JUMPDEST PUSH1 0x1 DUP2 DUP2 SHR SWAP1 DUP3 AND DUP1 PUSH2 0x442 JUMPI PUSH1 0x7F DUP3 AND SWAP2 POP JUMPDEST PUSH1 0x20 DUP3 LT DUP2 SUB PUSH2 0x460 JUMPI PUSH4 0x4E487B71 PUSH1 0xE0 SHL PUSH0 MSTORE PUSH1 0x22 PUSH1 0x4 MSTORE PUSH1 0x24 PUSH0 REVERT JUMPDEST POP SWAP2 SWAP1 POP JUMP JUMPDEST PUSH1 0x1F DUP3 GT ISZERO PUSH2 0x311 JUMPI DUP1 PUSH0 MSTORE PUSH1 0x20 PUSH0 KECCAK256 PUSH1 0x1F DUP5 ADD PUSH1 0x5 SHR DUP2 ADD PUSH1 0x20 DUP6 LT ISZERO PUSH2 0x48B JUMPI POP DUP1 JUMPDEST PUSH1 0x1F DUP5 ADD PUSH1 0x5 SHR DUP3 ADD SWAP2 POP JUMPDEST DUP2 DUP2 LT ISZERO PUSH2 0x4AA JUMPI PUSH0 DUP2 SSTORE PUSH1 0x1 ADD PUSH2 0x497 JUMP JUMPDEST POP POP POP POP POP JUMP JUMPDEST DUP2 MLOAD PUSH1 0x1 PUSH1 0x1 PUSH1 0x40 SHL SUB DUP2 GT ISZERO PUSH2 0x4CA JUMPI PUSH2 0x4CA PUSH2 0x316 JUMP JUMPDEST PUSH2 0x4DE DUP2 PUSH2 0x4D8 DUP5 SLOAD PUSH2 0x42E JUMP JUMPDEST DUP5 PUSH2 0x466 JUMP JUMPDEST PUSH1 0x20 DUP1 PUSH1 0x1F DUP4 GT PUSH1 0x1 DUP2 EQ PUSH2 0x511 JUMPI PUSH0 DUP5 ISZERO PUSH2 0x4FA JUMPI POP DUP6 DUP4 ADD MLOAD JUMPDEST PUSH0 NOT PUSH1 0x3 DUP7 SWAP1 SHL SHR NOT AND PUSH1 0x1 DUP6 SWAP1 SHL OR DUP6 SSTORE PUSH2 0x568 JUMP JUMPDEST PUSH0 DUP6 DUP2 MSTORE PUSH1 0x20 DUP2 KECCAK256 PUSH1 0x1F NOT DUP7 AND SWAP2 JUMPDEST DUP3 DUP2 LT ISZERO PUSH2 0x53F JUMPI DUP9 DUP7 ADD MLOAD DUP3 SSTORE SWAP5 DUP5 ADD SWAP5 PUSH1 0x1 SWAP1 SWAP2 ADD SWAP1 DUP5 ADD PUSH2 0x520 JUMP JUMPDEST POP DUP6 DUP3 LT ISZERO PUSH2 0x55C JUMPI DUP8 DUP6 ADD MLOAD PUSH0 NOT PUSH1 0x3 DUP9 SWAP1 SHL PUSH1 0xF8 AND SHR NOT AND DUP2 SSTORE JUMPDEST POP POP PUSH1 0x1 DUP5 PUSH1 0x1 SHL ADD DUP6 SSTORE JUMPDEST POP POP POP POP POP POP JUMP JUMPDEST DUP1 DUP3 ADD DUP1 DUP3 GT ISZERO PUSH2 0x58F JUMPI PUSH4 0x4E487B71 PUSH1 0xE0 SHL PUSH0 MSTORE PUSH1 0x11 PUSH1 0x4 MSTORE PUSH1 0x24 PUSH0 REVERT JUMPDEST SWAP3 SWAP2 POP POP JUMP JUMPDEST PUSH1 0x80 MLOAD PUSH1 0xA0 MLOAD PUSH1 0xC0 MLOAD PUSH1 0xE0 MLOAD PUSH2 0x1D15 PUSH2 0x5C8 PUSH0 CODECOPY PUSH0 PUSH2 0xA2A ADD MSTORE PUSH0 PUSH2 0x46E ADD MSTORE PUSH0 PUSH2 0x498 ADD MSTORE PUSH0 PUSH2 0x4C2 ADD MSTORE PUSH2 0x1D15 PUSH0 RETURN INVALID PUSH1 0x80 PUSH1 0x40 MSTORE CALLVALUE DUP1 ISZERO PUSH2 0xF JUMPI PUSH0 DUP1 REVERT JUMPDEST POP PUSH1 0x4 CALLDATASIZE LT PUSH2 0x179 JUMPI PUSH0 CALLDATALOAD PUSH1 0xE0 SHR DUP1 PUSH4 0x79CC6790 GT PUSH2 0xD2 JUMPI DUP1 PUSH4 0xA457C2D7 GT PUSH2 0x88 JUMPI DUP1 PUSH4 0xD505ACCF GT PUSH2 0x63 JUMPI DUP1 PUSH4 0xD505ACCF EQ PUSH2 0x312 JUMPI DUP1 PUSH4 0xDD62ED3E EQ PUSH2 0x325 JUMPI DUP1 PUSH4 0xE8A3D485 EQ PUSH2 0x35D JUMPI PUSH0 DUP1 REVERT JUMPDEST DUP1 PUSH4 0xA457C2D7 EQ PUSH2 0x2CC JUMPI DUP1 PUSH4 0xA9059CBB EQ PUSH2 0x2DF JUMPI DUP1 PUSH4 0xAC9650D8 EQ PUSH2 0x2F2 JUMPI PUSH0 DUP1 REVERT JUMPDEST DUP1 PUSH4 0x8DA5CB5B GT PUSH2 0xB8 JUMPI DUP1 PUSH4 0x8DA5CB5B EQ PUSH2 0x296 JUMPI DUP1 PUSH4 0x938E3D7B EQ PUSH2 0x2B1 JUMPI DUP1 PUSH4 0x95D89B41 EQ PUSH2 0x2C4 JUMPI PUSH0 DUP1 REVERT JUMPDEST DUP1 PUSH4 0x79CC6790 EQ PUSH2 0x270 JUMPI DUP1 PUSH4 0x7ECEBE00 EQ PUSH2 0x283 JUMPI PUSH0 DUP1 REVERT JUMPDEST DUP1 PUSH4 0x313CE567 GT PUSH2 0x132 JUMPI DUP1 PUSH4 0x42966C68 GT PUSH2 0x10D JUMPI DUP1 PUSH4 0x42966C68 EQ PUSH2 0x222 JUMPI DUP1 PUSH4 0x449A52F8 EQ PUSH2 0x235 JUMPI DUP1 PUSH4 0x70A08231 EQ PUSH2 0x248 JUMPI PUSH0 DUP1 REVERT JUMPDEST DUP1 PUSH4 0x313CE567 EQ PUSH2 0x1F8 JUMPI DUP1 PUSH4 0x3644E515 EQ PUSH2 0x207 JUMPI DUP1 PUSH4 0x39509351 EQ PUSH2 0x20F JUMPI PUSH0 DUP1 REVERT JUMPDEST DUP1 PUSH4 0x13AF4035 GT PUSH2 0x162 JUMPI DUP1 PUSH4 0x13AF4035 EQ PUSH2 0x1BE JUMPI DUP1 PUSH4 0x18160DDD EQ PUSH2 0x1D3 JUMPI DUP1 PUSH4 0x23B872DD EQ PUSH2 0x1E5 JUMPI PUSH0 DUP1 REVERT JUMPDEST DUP1 PUSH4 0x6FDDE03 EQ PUSH2 0x17D JUMPI DUP1 PUSH4 0x95EA7B3 EQ PUSH2 0x19B JUMPI JUMPDEST PUSH0 DUP1 REVERT JUMPDEST PUSH2 0x185 PUSH2 0x365 JUMP JUMPDEST PUSH1 0x40 MLOAD PUSH2 0x192 SWAP2 SWAP1 PUSH2 0x177A JUMP JUMPDEST PUSH1 0x40 MLOAD DUP1 SWAP2 SUB SWAP1 RETURN JUMPDEST PUSH2 0x1AE PUSH2 0x1A9 CALLDATASIZE PUSH1 0x4 PUSH2 0x17A7 JUMP JUMPDEST PUSH2 0x3F5 JUMP JUMPDEST PUSH1 0x40 MLOAD SWAP1 ISZERO ISZERO DUP2 MSTORE PUSH1 0x20 ADD PUSH2 0x192 JUMP JUMPDEST PUSH2 0x1D1 PUSH2 0x1CC CALLDATASIZE PUSH1 0x4 PUSH2 0x17CF JUMP JUMPDEST PUSH2 0x40E JUMP JUMPDEST STOP JUMPDEST PUSH1 0x4 SLOAD JUMPDEST PUSH1 0x40 MLOAD SWAP1 DUP2 MSTORE PUSH1 0x20 ADD PUSH2 0x192 JUMP JUMPDEST PUSH2 0x1AE PUSH2 0x1F3 CALLDATASIZE PUSH1 0x4 PUSH2 0x17E8 JUMP JUMPDEST PUSH2 0x43F JUMP JUMPDEST PUSH1 0x40 MLOAD PUSH1 0x12 DUP2 MSTORE PUSH1 0x20 ADD PUSH2 0x192 JUMP JUMPDEST PUSH2 0x1D7 PUSH2 0x462 JUMP JUMPDEST PUSH2 0x1AE PUSH2 0x21D CALLDATASIZE PUSH1 0x4 PUSH2 0x17A7 JUMP JUMPDEST PUSH2 0x4F1 JUMP JUMPDEST PUSH2 0x1D1 PUSH2 0x230 CALLDATASIZE PUSH1 0x4 PUSH2 0x1821 JUMP JUMPDEST PUSH2 0x52F JUMP JUMPDEST PUSH2 0x1D1 PUSH2 0x243 CALLDATASIZE PUSH1 0x4 PUSH2 0x17A7 JUMP JUMPDEST PUSH2 0x59C JUMP JUMPDEST PUSH2 0x1D7 PUSH2 0x256 CALLDATASIZE PUSH1 0x4 PUSH2 0x17CF JUMP JUMPDEST PUSH1 0x1 PUSH1 0x1 PUSH1 0xA0 SHL SUB AND PUSH0 SWAP1 DUP2 MSTORE PUSH1 0x2 PUSH1 0x20 MSTORE PUSH1 0x40 SWAP1 KECCAK256 SLOAD SWAP1 JUMP JUMPDEST PUSH2 0x1D1 PUSH2 0x27E CALLDATASIZE PUSH1 0x4 PUSH2 0x17A7 JUMP JUMPDEST PUSH2 0x64D JUMP JUMPDEST PUSH2 0x1D7 PUSH2 0x291 CALLDATASIZE PUSH1 0x4 PUSH2 0x17CF JUMP JUMPDEST PUSH2 0x763 JUMP JUMPDEST PUSH1 0x1 SLOAD PUSH1 0x40 MLOAD PUSH1 0x1 PUSH1 0x1 PUSH1 0xA0 SHL SUB SWAP1 SWAP2 AND DUP2 MSTORE PUSH1 0x20 ADD PUSH2 0x192 JUMP JUMPDEST PUSH2 0x1D1 PUSH2 0x2BF CALLDATASIZE PUSH1 0x4 PUSH2 0x184C JUMP JUMPDEST PUSH2 0x780 JUMP JUMPDEST PUSH2 0x185 PUSH2 0x7AE JUMP JUMPDEST PUSH2 0x1AE PUSH2 0x2DA CALLDATASIZE PUSH1 0x4 PUSH2 0x17A7 JUMP JUMPDEST PUSH2 0x7BD JUMP JUMPDEST PUSH2 0x1AE PUSH2 0x2ED CALLDATASIZE PUSH1 0x4 PUSH2 0x17A7 JUMP JUMPDEST PUSH2 0x866 JUMP JUMPDEST PUSH2 0x305 PUSH2 0x300 CALLDATASIZE PUSH1 0x4 PUSH2 0x18F7 JUMP JUMPDEST PUSH2 0x873 JUMP JUMPDEST PUSH1 0x40 MLOAD PUSH2 0x192 SWAP2 SWAP1 PUSH2 0x1966 JUMP JUMPDEST PUSH2 0x1D1 PUSH2 0x320 CALLDATASIZE PUSH1 0x4 PUSH2 0x19C8 JUMP JUMPDEST PUSH2 0x9D7 JUMP JUMPDEST PUSH2 0x1D7 PUSH2 0x333 CALLDATASIZE PUSH1 0x4 PUSH2 0x1A35 JUMP JUMPDEST PUSH1 0x1 PUSH1 0x1 PUSH1 0xA0 SHL SUB SWAP2 DUP3 AND PUSH0 SWAP1 DUP2 MSTORE PUSH1 0x3 PUSH1 0x20 SWAP1 DUP2 MSTORE PUSH1 0x40 DUP1 DUP4 KECCAK256 SWAP4 SWAP1 SWAP5 AND DUP3 MSTORE SWAP2 SWAP1 SWAP2 MSTORE KECCAK256 SLOAD SWAP1 JUMP JUMPDEST PUSH2 0x185 PUSH2 0xB5A JUMP JUMPDEST PUSH1 0x60 PUSH1 0x5 DUP1 SLOAD PUSH2 0x374 SWAP1 PUSH2 0x1A66 JUMP JUMPDEST DUP1 PUSH1 0x1F ADD PUSH1 0x20 DUP1 SWAP2 DIV MUL PUSH1 0x20 ADD PUSH1 0x40 MLOAD SWAP1 DUP2 ADD PUSH1 0x40 MSTORE DUP1 SWAP3 SWAP2 SWAP1 DUP2 DUP2 MSTORE PUSH1 0x20 ADD DUP3 DUP1 SLOAD PUSH2 0x3A0 SWAP1 PUSH2 0x1A66 JUMP JUMPDEST DUP1 ISZERO PUSH2 0x3EB JUMPI DUP1 PUSH1 0x1F LT PUSH2 0x3C2 JUMPI PUSH2 0x100 DUP1 DUP4 SLOAD DIV MUL DUP4 MSTORE SWAP2 PUSH1 0x20 ADD SWAP2 PUSH2 0x3EB JUMP JUMPDEST DUP3 ADD SWAP2 SWAP1 PUSH0 MSTORE PUSH1 0x20 PUSH0 KECCAK256 SWAP1 JUMPDEST DUP2 SLOAD DUP2 MSTORE SWAP1 PUSH1 0x1 ADD SWAP1 PUSH1 0x20 ADD DUP1 DUP4 GT PUSH2 0x3CE JUMPI DUP3 SWAP1 SUB PUSH1 0x1F AND DUP3 ADD SWAP2 JUMPDEST POP POP POP POP POP SWAP1 POP SWAP1 JUMP JUMPDEST PUSH0 CALLER PUSH2 0x402 DUP2 DUP6 DUP6 PUSH2 0xBE5 JUMP JUMPDEST PUSH1 0x1 SWAP2 POP POP JUMPDEST SWAP3 SWAP2 POP POP JUMP JUMPDEST PUSH2 0x416 PUSH2 0xD08 JUMP JUMPDEST PUSH2 0x433 JUMPI PUSH1 0x40 MLOAD PUSH4 0x16CCB9CB PUSH1 0xE1 SHL DUP2 MSTORE PUSH1 0x4 ADD PUSH1 0x40 MLOAD DUP1 SWAP2 SUB SWAP1 REVERT JUMPDEST PUSH2 0x43C DUP2 PUSH2 0xD34 JUMP JUMPDEST POP JUMP JUMPDEST PUSH0 CALLER PUSH2 0x44C DUP6 DUP3 DUP6 PUSH2 0xD9D JUMP JUMPDEST PUSH2 0x457 DUP6 DUP6 DUP6 PUSH2 0xE2D JUMP JUMPDEST POP PUSH1 0x1 SWAP5 SWAP4 POP POP POP POP JUMP JUMPDEST PUSH0 ADDRESS PUSH1 0x1 PUSH1 0x1 PUSH1 0xA0 SHL SUB PUSH32 0x0 AND EQ DUP1 ISZERO PUSH2 0x4BA JUMPI POP PUSH32 0x0 CHAINID EQ JUMPDEST ISZERO PUSH2 0x4E4 JUMPI POP PUSH32 0x0 SWAP1 JUMP JUMPDEST PUSH2 0x4EC PUSH2 0x1028 JUMP JUMPDEST SWAP1 POP SWAP1 JUMP JUMPDEST CALLER PUSH0 DUP2 DUP2 MSTORE PUSH1 0x3 PUSH1 0x20 SWAP1 DUP2 MSTORE PUSH1 0x40 DUP1 DUP4 KECCAK256 PUSH1 0x1 PUSH1 0x1 PUSH1 0xA0 SHL SUB DUP8 AND DUP5 MSTORE SWAP1 SWAP2 MSTORE DUP2 KECCAK256 SLOAD SWAP1 SWAP2 SWAP1 PUSH2 0x402 SWAP1 DUP3 SWAP1 DUP7 SWAP1 PUSH2 0x52A SWAP1 DUP8 SWAP1 PUSH2 0x1AAC JUMP JUMPDEST PUSH2 0xBE5 JUMP JUMPDEST CALLER PUSH0 SWAP1 DUP2 MSTORE PUSH1 0x2 PUSH1 0x20 MSTORE PUSH1 0x40 SWAP1 KECCAK256 SLOAD DUP2 GT ISZERO PUSH2 0x592 JUMPI PUSH1 0x40 MLOAD PUSH3 0x461BCD PUSH1 0xE5 SHL DUP2 MSTORE PUSH1 0x20 PUSH1 0x4 DUP3 ADD MSTORE PUSH1 0x12 PUSH1 0x24 DUP3 ADD MSTORE PUSH32 0x6E6F7420656E6F7567682062616C616E63650000000000000000000000000000 PUSH1 0x44 DUP3 ADD MSTORE PUSH1 0x64 ADD JUMPDEST PUSH1 0x40 MLOAD DUP1 SWAP2 SUB SWAP1 REVERT JUMPDEST PUSH2 0x43C CALLER DUP3 PUSH2 0x10BC JUMP JUMPDEST PUSH2 0x5A4 PUSH2 0xD08 JUMP JUMPDEST PUSH2 0x5F0 JUMPI PUSH1 0x40 MLOAD PUSH3 0x461BCD PUSH1 0xE5 SHL DUP2 MSTORE PUSH1 0x20 PUSH1 0x4 DUP3 ADD MSTORE PUSH1 0x17 PUSH1 0x24 DUP3 ADD MSTORE PUSH32 0x4E6F7420617574686F72697A656420746F206D696E742E000000000000000000 PUSH1 0x44 DUP3 ADD MSTORE PUSH1 0x64 ADD PUSH2 0x589 JUMP JUMPDEST DUP1 PUSH0 SUB PUSH2 0x63F JUMPI PUSH1 0x40 MLOAD PUSH3 0x461BCD PUSH1 0xE5 SHL DUP2 MSTORE PUSH1 0x20 PUSH1 0x4 DUP3 ADD MSTORE PUSH1 0x14 PUSH1 0x24 DUP3 ADD MSTORE PUSH32 0x4D696E74696E67207A65726F20746F6B656E732E000000000000000000000000 PUSH1 0x44 DUP3 ADD MSTORE PUSH1 0x64 ADD PUSH2 0x589 JUMP JUMPDEST PUSH2 0x649 DUP3 DUP3 PUSH2 0x1207 JUMP JUMPDEST POP POP JUMP JUMPDEST PUSH2 0x655 PUSH2 0xD08 JUMP JUMPDEST PUSH2 0x6A1 JUMPI PUSH1 0x40 MLOAD PUSH3 0x461BCD PUSH1 0xE5 SHL DUP2 MSTORE PUSH1 0x20 PUSH1 0x4 DUP3 ADD MSTORE PUSH1 0x17 PUSH1 0x24 DUP3 ADD MSTORE PUSH32 0x4E6F7420617574686F72697A656420746F206275726E2E000000000000000000 PUSH1 0x44 DUP3 ADD MSTORE PUSH1 0x64 ADD PUSH2 0x589 JUMP JUMPDEST DUP1 PUSH2 0x6C0 DUP4 PUSH1 0x1 PUSH1 0x1 PUSH1 0xA0 SHL SUB AND PUSH0 SWAP1 DUP2 MSTORE PUSH1 0x2 PUSH1 0x20 MSTORE PUSH1 0x40 SWAP1 KECCAK256 SLOAD SWAP1 JUMP JUMPDEST LT ISZERO PUSH2 0x70E JUMPI PUSH1 0x40 MLOAD PUSH3 0x461BCD PUSH1 0xE5 SHL DUP2 MSTORE PUSH1 0x20 PUSH1 0x4 DUP3 ADD MSTORE PUSH1 0x12 PUSH1 0x24 DUP3 ADD MSTORE PUSH32 0x6E6F7420656E6F7567682062616C616E63650000000000000000000000000000 PUSH1 0x44 DUP3 ADD MSTORE PUSH1 0x64 ADD PUSH2 0x589 JUMP JUMPDEST PUSH1 0x1 PUSH1 0x1 PUSH1 0xA0 SHL SUB DUP3 AND PUSH0 SWAP1 DUP2 MSTORE PUSH1 0x3 PUSH1 0x20 SWAP1 DUP2 MSTORE PUSH1 0x40 DUP1 DUP4 KECCAK256 CALLER DUP5 MSTORE SWAP1 SWAP2 MSTORE DUP2 KECCAK256 SLOAD PUSH2 0x73C SWAP1 DUP4 SWAP1 PUSH2 0x1ABF JUMP JUMPDEST SWAP1 POP PUSH2 0x749 DUP4 CALLER PUSH0 PUSH2 0xBE5 JUMP JUMPDEST PUSH2 0x754 DUP4 CALLER DUP4 PUSH2 0xBE5 JUMP JUMPDEST PUSH2 0x75E DUP4 DUP4 PUSH2 0x10BC JUMP JUMPDEST POP POP POP JUMP JUMPDEST PUSH1 0x1 PUSH1 0x1 PUSH1 0xA0 SHL SUB DUP2 AND PUSH0 SWAP1 DUP2 MSTORE PUSH1 0x7 PUSH1 0x20 MSTORE PUSH1 0x40 DUP2 KECCAK256 SLOAD PUSH2 0x408 JUMP JUMPDEST PUSH2 0x788 PUSH2 0xD08 JUMP JUMPDEST PUSH2 0x7A5 JUMPI PUSH1 0x40 MLOAD PUSH4 0x9F7F0925 PUSH1 0xE0 SHL DUP2 MSTORE PUSH1 0x4 ADD PUSH1 0x40 MLOAD DUP1 SWAP2 SUB SWAP1 REVERT JUMPDEST PUSH2 0x43C DUP2 PUSH2 0x12E3 JUMP JUMPDEST PUSH1 0x60 PUSH1 0x6 DUP1 SLOAD PUSH2 0x374 SWAP1 PUSH2 0x1A66 JUMP JUMPDEST CALLER PUSH0 DUP2 DUP2 MSTORE PUSH1 0x3 PUSH1 0x20 SWAP1 DUP2 MSTORE PUSH1 0x40 DUP1 DUP4 KECCAK256 PUSH1 0x1 PUSH1 0x1 PUSH1 0xA0 SHL SUB DUP8 AND DUP5 MSTORE SWAP1 SWAP2 MSTORE DUP2 KECCAK256 SLOAD SWAP1 SWAP2 SWAP1 DUP4 DUP2 LT ISZERO PUSH2 0x859 JUMPI PUSH1 0x40 MLOAD PUSH3 0x461BCD PUSH1 0xE5 SHL DUP2 MSTORE PUSH1 0x20 PUSH1 0x4 DUP3 ADD MSTORE PUSH1 0x25 PUSH1 0x24 DUP3 ADD MSTORE PUSH32 0x45524332303A2064656372656173656420616C6C6F77616E63652062656C6F77 PUSH1 0x44 DUP3 ADD MSTORE PUSH32 0x207A65726F000000000000000000000000000000000000000000000000000000 PUSH1 0x64 DUP3 ADD MSTORE PUSH1 0x84 ADD PUSH2 0x589 JUMP JUMPDEST PUSH2 0x457 DUP3 DUP7 DUP7 DUP5 SUB PUSH2 0xBE5 JUMP JUMPDEST PUSH0 CALLER PUSH2 0x402 DUP2 DUP6 DUP6 PUSH2 0xE2D JUMP JUMPDEST PUSH1 0x60 DUP2 PUSH8 0xFFFFFFFFFFFFFFFF DUP2 GT ISZERO PUSH2 0x88E JUMPI PUSH2 0x88E PUSH2 0x1838 JUMP JUMPDEST PUSH1 0x40 MLOAD SWAP1 DUP1 DUP3 MSTORE DUP1 PUSH1 0x20 MUL PUSH1 0x20 ADD DUP3 ADD PUSH1 0x40 MSTORE DUP1 ISZERO PUSH2 0x8C1 JUMPI DUP2 PUSH1 0x20 ADD JUMPDEST PUSH1 0x60 DUP2 MSTORE PUSH1 0x20 ADD SWAP1 PUSH1 0x1 SWAP1 SUB SWAP1 DUP2 PUSH2 0x8AC JUMPI SWAP1 POP JUMPDEST POP SWAP1 POP CALLER PUSH0 DUP1 JUMPDEST DUP5 DUP2 LT ISZERO PUSH2 0x9CE JUMPI DUP2 ISZERO PUSH2 0x947 JUMPI PUSH2 0x925 ADDRESS DUP8 DUP8 DUP5 DUP2 DUP2 LT PUSH2 0x8EC JUMPI PUSH2 0x8EC PUSH2 0x1AD2 JUMP JUMPDEST SWAP1 POP PUSH1 0x20 MUL DUP2 ADD SWAP1 PUSH2 0x8FE SWAP2 SWAP1 PUSH2 0x1AE6 JUMP JUMPDEST DUP7 PUSH1 0x40 MLOAD PUSH1 0x20 ADD PUSH2 0x911 SWAP4 SWAP3 SWAP2 SWAP1 PUSH2 0x1B30 JUMP JUMPDEST PUSH1 0x40 MLOAD PUSH1 0x20 DUP2 DUP4 SUB SUB DUP2 MSTORE SWAP1 PUSH1 0x40 MSTORE PUSH2 0x13BA JUMP JUMPDEST DUP5 DUP3 DUP2 MLOAD DUP2 LT PUSH2 0x937 JUMPI PUSH2 0x937 PUSH2 0x1AD2 JUMP JUMPDEST PUSH1 0x20 MUL PUSH1 0x20 ADD ADD DUP2 SWAP1 MSTORE POP PUSH2 0x9C6 JUMP JUMPDEST PUSH2 0x9A8 ADDRESS DUP8 DUP8 DUP5 DUP2 DUP2 LT PUSH2 0x95D JUMPI PUSH2 0x95D PUSH2 0x1AD2 JUMP JUMPDEST SWAP1 POP PUSH1 0x20 MUL DUP2 ADD SWAP1 PUSH2 0x96F SWAP2 SWAP1 PUSH2 0x1AE6 JUMP JUMPDEST DUP1 DUP1 PUSH1 0x1F ADD PUSH1 0x20 DUP1 SWAP2 DIV MUL PUSH1 0x20 ADD PUSH1 0x40 MLOAD SWAP1 DUP2 ADD PUSH1 0x40 MSTORE DUP1 SWAP4 SWAP3 SWAP2 SWAP1 DUP2 DUP2 MSTORE PUSH1 0x20 ADD DUP4 DUP4 DUP1 DUP3 DUP5 CALLDATACOPY PUSH0 SWAP3 ADD SWAP2 SWAP1 SWAP2 MSTORE POP PUSH2 0x13BA SWAP3 POP POP POP JUMP JUMPDEST DUP5 DUP3 DUP2 MLOAD DUP2 LT PUSH2 0x9BA JUMPI PUSH2 0x9BA PUSH2 0x1AD2 JUMP JUMPDEST PUSH1 0x20 MUL PUSH1 0x20 ADD ADD DUP2 SWAP1 MSTORE POP JUMPDEST PUSH1 0x1 ADD PUSH2 0x8C8 JUMP JUMPDEST POP POP POP SWAP3 SWAP2 POP POP JUMP JUMPDEST DUP4 TIMESTAMP GT ISZERO PUSH2 0xA27 JUMPI PUSH1 0x40 MLOAD PUSH3 0x461BCD PUSH1 0xE5 SHL DUP2 MSTORE PUSH1 0x20 PUSH1 0x4 DUP3 ADD MSTORE PUSH1 0x1D PUSH1 0x24 DUP3 ADD MSTORE PUSH32 0x45524332305065726D69743A206578706972656420646561646C696E65000000 PUSH1 0x44 DUP3 ADD MSTORE PUSH1 0x64 ADD PUSH2 0x589 JUMP JUMPDEST PUSH0 PUSH32 0x0 DUP9 DUP9 DUP9 PUSH2 0xA55 DUP13 PUSH2 0x13E6 JUMP JUMPDEST PUSH1 0x40 DUP1 MLOAD PUSH1 0x20 DUP2 ADD SWAP7 SWAP1 SWAP7 MSTORE PUSH1 0x1 PUSH1 0x1 PUSH1 0xA0 SHL SUB SWAP5 DUP6 AND SWAP1 DUP7 ADD MSTORE SWAP3 SWAP1 SWAP2 AND PUSH1 0x60 DUP5 ADD MSTORE PUSH1 0x80 DUP4 ADD MSTORE PUSH1 0xA0 DUP3 ADD MSTORE PUSH1 0xC0 DUP2 ADD DUP7 SWAP1 MSTORE PUSH1 0xE0 ADD PUSH1 0x40 MLOAD PUSH1 0x20 DUP2 DUP4 SUB SUB DUP2 MSTORE SWAP1 PUSH1 0x40 MSTORE DUP1 MLOAD SWAP1 PUSH1 0x20 ADD KECCAK256 SWAP1 POP PUSH0 PUSH2 0xAD1 PUSH2 0xAB1 PUSH2 0x462 JUMP JUMPDEST DUP4 PUSH1 0x40 MLOAD PUSH2 0x1901 PUSH1 0xF0 SHL DUP2 MSTORE PUSH1 0x2 DUP2 ADD SWAP3 SWAP1 SWAP3 MSTORE PUSH1 0x22 DUP3 ADD MSTORE PUSH1 0x42 SWAP1 KECCAK256 SWAP1 JUMP JUMPDEST SWAP1 POP PUSH0 PUSH2 0xAE0 DUP3 DUP8 DUP8 DUP8 PUSH2 0x140D JUMP JUMPDEST SWAP1 POP DUP10 PUSH1 0x1 PUSH1 0x1 PUSH1 0xA0 SHL SUB AND DUP2 PUSH1 0x1 PUSH1 0x1 PUSH1 0xA0 SHL SUB AND EQ PUSH2 0xB43 JUMPI PUSH1 0x40 MLOAD PUSH3 0x461BCD PUSH1 0xE5 SHL DUP2 MSTORE PUSH1 0x20 PUSH1 0x4 DUP3 ADD MSTORE PUSH1 0x1E PUSH1 0x24 DUP3 ADD MSTORE PUSH32 0x45524332305065726D69743A20696E76616C6964207369676E61747572650000 PUSH1 0x44 DUP3 ADD MSTORE PUSH1 0x64 ADD PUSH2 0x589 JUMP JUMPDEST PUSH2 0xB4E DUP11 DUP11 DUP11 PUSH2 0xBE5 JUMP JUMPDEST POP POP POP POP POP POP POP POP POP POP JUMP JUMPDEST PUSH0 DUP1 SLOAD PUSH2 0xB66 SWAP1 PUSH2 0x1A66 JUMP JUMPDEST DUP1 PUSH1 0x1F ADD PUSH1 0x20 DUP1 SWAP2 DIV MUL PUSH1 0x20 ADD PUSH1 0x40 MLOAD SWAP1 DUP2 ADD PUSH1 0x40 MSTORE DUP1 SWAP3 SWAP2 SWAP1 DUP2 DUP2 MSTORE PUSH1 0x20 ADD DUP3 DUP1 SLOAD PUSH2 0xB92 SWAP1 PUSH2 0x1A66 JUMP JUMPDEST DUP1 ISZERO PUSH2 0xBDD JUMPI DUP1 PUSH1 0x1F LT PUSH2 0xBB4 JUMPI PUSH2 0x100 DUP1 DUP4 SLOAD DIV MUL DUP4 MSTORE SWAP2 PUSH1 0x20 ADD SWAP2 PUSH2 0xBDD JUMP JUMPDEST DUP3 ADD SWAP2 SWAP1 PUSH0 MSTORE PUSH1 0x20 PUSH0 KECCAK256 SWAP1 JUMPDEST DUP2 SLOAD DUP2 MSTORE SWAP1 PUSH1 0x1 ADD SWAP1 PUSH1 0x20 ADD DUP1 DUP4 GT PUSH2 0xBC0 JUMPI DUP3 SWAP1 SUB PUSH1 0x1F AND DUP3 ADD SWAP2 JUMPDEST POP POP POP POP POP DUP2 JUMP JUMPDEST PUSH1 0x1 PUSH1 0x1 PUSH1 0xA0 SHL SUB DUP4 AND PUSH2 0xC47 JUMPI PUSH1 0x40 MLOAD PUSH3 0x461BCD PUSH1 0xE5 SHL DUP2 MSTORE PUSH1 0x20 PUSH1 0x4 DUP3 ADD MSTORE PUSH1 0x24 DUP1 DUP3 ADD MSTORE PUSH32 0x45524332303A20617070726F76652066726F6D20746865207A65726F20616464 PUSH1 0x44 DUP3 ADD MSTORE PUSH4 0x72657373 PUSH1 0xE0 SHL PUSH1 0x64 DUP3 ADD MSTORE PUSH1 0x84 ADD PUSH2 0x589 JUMP JUMPDEST PUSH1 0x1 PUSH1 0x1 PUSH1 0xA0 SHL SUB DUP3 AND PUSH2 0xCA8 JUMPI PUSH1 0x40 MLOAD PUSH3 0x461BCD PUSH1 0xE5 SHL DUP2 MSTORE PUSH1 0x20 PUSH1 0x4 DUP3 ADD MSTORE PUSH1 0x22 PUSH1 0x24 DUP3 ADD MSTORE PUSH32 0x45524332303A20617070726F766520746F20746865207A65726F206164647265 PUSH1 0x44 DUP3 ADD MSTORE PUSH2 0x7373 PUSH1 0xF0 SHL PUSH1 0x64 DUP3 ADD MSTORE PUSH1 0x84 ADD PUSH2 0x589 JUMP JUMPDEST PUSH1 0x1 PUSH1 0x1 PUSH1 0xA0 SHL SUB DUP4 DUP2 AND PUSH0 DUP2 DUP2 MSTORE PUSH1 0x3 PUSH1 0x20 SWAP1 DUP2 MSTORE PUSH1 0x40 DUP1 DUP4 KECCAK256 SWAP5 DUP8 AND DUP1 DUP5 MSTORE SWAP5 DUP3 MSTORE SWAP2 DUP3 SWAP1 KECCAK256 DUP6 SWAP1 SSTORE SWAP1 MLOAD DUP5 DUP2 MSTORE PUSH32 0x8C5BE1E5EBEC7D5BD14F71427D1E84F3DD0314C0F7B2291E5B200AC8C7C3B925 SWAP2 ADD PUSH1 0x40 MLOAD DUP1 SWAP2 SUB SWAP1 LOG3 POP POP POP JUMP JUMPDEST PUSH0 PUSH2 0xD1B PUSH1 0x1 SLOAD PUSH1 0x1 PUSH1 0x1 PUSH1 0xA0 SHL SUB AND SWAP1 JUMP JUMPDEST PUSH1 0x1 PUSH1 0x1 PUSH1 0xA0 SHL SUB AND CALLER PUSH1 0x1 PUSH1 0x1 PUSH1 0xA0 SHL SUB AND EQ SWAP1 POP SWAP1 JUMP JUMPDEST PUSH1 0x1 DUP1 SLOAD PUSH1 0x1 PUSH1 0x1 PUSH1 0xA0 SHL SUB DUP4 DUP2 AND PUSH32 0xFFFFFFFFFFFFFFFFFFFFFFFF0000000000000000000000000000000000000000 DUP4 AND DUP2 OR SWAP1 SWAP4 SSTORE PUSH1 0x40 MLOAD SWAP2 AND SWAP2 SWAP1 DUP3 SWAP1 PUSH32 0x8292FCE18FA69EDF4DB7B94EA2E58241DF0AE57F97E0A6C9B29067028BF92D76 SWAP1 PUSH0 SWAP1 LOG3 POP POP JUMP JUMPDEST PUSH1 0x1 PUSH1 0x1 PUSH1 0xA0 SHL SUB DUP4 DUP2 AND PUSH0 SWAP1 DUP2 MSTORE PUSH1 0x3 PUSH1 0x20 SWAP1 DUP2 MSTORE PUSH1 0x40 DUP1 DUP4 KECCAK256 SWAP4 DUP7 AND DUP4 MSTORE SWAP3 SWAP1 MSTORE KECCAK256 SLOAD PUSH0 NOT DUP2 EQ PUSH2 0xE27 JUMPI DUP2 DUP2 LT ISZERO PUSH2 0xE1A JUMPI PUSH1 0x40 MLOAD PUSH3 0x461BCD PUSH1 0xE5 SHL DUP2 MSTORE PUSH1 0x20 PUSH1 0x4 DUP3 ADD MSTORE PUSH1 0x1D PUSH1 0x24 DUP3 ADD MSTORE PUSH32 0x45524332303A20696E73756666696369656E7420616C6C6F77616E6365000000 PUSH1 0x44 DUP3 ADD MSTORE PUSH1 0x64 ADD PUSH2 0x589 JUMP JUMPDEST PUSH2 0xE27 DUP5 DUP5 DUP5 DUP5 SUB PUSH2 0xBE5 JUMP JUMPDEST POP POP POP POP JUMP JUMPDEST PUSH1 0x1 PUSH1 0x1 PUSH1 0xA0 SHL SUB DUP4 AND PUSH2 0xEA9 JUMPI PUSH1 0x40 MLOAD PUSH3 0x461BCD PUSH1 0xE5 SHL DUP2 MSTORE PUSH1 0x20 PUSH1 0x4 DUP3 ADD MSTORE PUSH1 0x25 PUSH1 0x24 DUP3 ADD MSTORE PUSH32 0x45524332303A207472616E736665722066726F6D20746865207A65726F206164 PUSH1 0x44 DUP3 ADD MSTORE PUSH32 0x6472657373000000000000000000000000000000000000000000000000000000 PUSH1 0x64 DUP3 ADD MSTORE PUSH1 0x84 ADD PUSH2 0x589 JUMP JUMPDEST PUSH1 0x1 PUSH1 0x1 PUSH1 0xA0 SHL SUB DUP3 AND PUSH2 0xF0B JUMPI PUSH1 0x40 MLOAD PUSH3 0x461BCD PUSH1 0xE5 SHL DUP2 MSTORE PUSH1 0x20 PUSH1 0x4 DUP3 ADD MSTORE PUSH1 0x23 PUSH1 0x24 DUP3 ADD MSTORE PUSH32 0x45524332303A207472616E7366657220746F20746865207A65726F2061646472 PUSH1 0x44 DUP3 ADD MSTORE PUSH3 0x657373 PUSH1 0xE8 SHL PUSH1 0x64 DUP3 ADD MSTORE PUSH1 0x84 ADD PUSH2 0x589 JUMP JUMPDEST PUSH1 0x1 PUSH1 0x1 PUSH1 0xA0 SHL SUB DUP4 AND PUSH0 SWAP1 DUP2 MSTORE PUSH1 0x2 PUSH1 0x20 MSTORE PUSH1 0x40 SWAP1 KECCAK256 SLOAD DUP2 DUP2 LT ISZERO PUSH2 0xF99 JUMPI PUSH1 0x40 MLOAD PUSH3 0x461BCD PUSH1 0xE5 SHL DUP2 MSTORE PUSH1 0x20 PUSH1 0x4 DUP3 ADD MSTORE PUSH1 0x26 PUSH1 0x24 DUP3 ADD MSTORE PUSH32 0x45524332303A207472616E7366657220616D6F756E7420657863656564732062 PUSH1 0x44 DUP3 ADD MSTORE PUSH32 0x616C616E63650000000000000000000000000000000000000000000000000000 PUSH1 0x64 DUP3 ADD MSTORE PUSH1 0x84 ADD PUSH2 0x589 JUMP JUMPDEST PUSH1 0x1 PUSH1 0x1 PUSH1 0xA0 SHL SUB DUP1 DUP6 AND PUSH0 SWAP1 DUP2 MSTORE PUSH1 0x2 PUSH1 0x20 MSTORE PUSH1 0x40 DUP1 DUP3 KECCAK256 DUP6 DUP6 SUB SWAP1 SSTORE SWAP2 DUP6 AND DUP2 MSTORE SWAP1 DUP2 KECCAK256 DUP1 SLOAD DUP5 SWAP3 SWAP1 PUSH2 0xFCF SWAP1 DUP5 SWAP1 PUSH2 0x1AAC JUMP JUMPDEST SWAP3 POP POP DUP2 SWAP1 SSTORE POP DUP3 PUSH1 0x1 PUSH1 0x1 PUSH1 0xA0 SHL SUB AND DUP5 PUSH1 0x1 PUSH1 0x1 PUSH1 0xA0 SHL SUB AND PUSH32 0xDDF252AD1BE2C89B69C2B068FC378DAA952BA7F163C4A11628F55A4DF523B3EF DUP5 PUSH1 0x40 MLOAD PUSH2 0x101B SWAP2 DUP2 MSTORE PUSH1 0x20 ADD SWAP1 JUMP JUMPDEST PUSH1 0x40 MLOAD DUP1 SWAP2 SUB SWAP1 LOG3 PUSH2 0xE27 JUMP JUMPDEST PUSH0 PUSH32 0x8B73C3C69BB8FE3D512ECC4CF759CC79239F7B179B0FFACAA9A75D522B39400F PUSH2 0x1052 PUSH2 0x365 JUMP JUMPDEST DUP1 MLOAD PUSH1 0x20 SWAP2 DUP3 ADD KECCAK256 PUSH1 0x40 DUP1 MLOAD SWAP3 DUP4 ADD SWAP4 SWAP1 SWAP4 MSTORE SWAP2 DUP2 ADD SWAP2 SWAP1 SWAP2 MSTORE PUSH32 0xC89EFDAA54C0F20C7ADF612882DF0950F5A951637E0307CDCB4C672F298B8BC6 PUSH1 0x60 DUP3 ADD MSTORE CHAINID PUSH1 0x80 DUP3 ADD MSTORE ADDRESS PUSH1 0xA0 DUP3 ADD MSTORE PUSH1 0xC0 ADD PUSH1 0x40 MLOAD PUSH1 0x20 DUP2 DUP4 SUB SUB DUP2 MSTORE SWAP1 PUSH1 0x40 MSTORE DUP1 MLOAD SWAP1 PUSH1 0x20 ADD KECCAK256 SWAP1 POP SWAP1 JUMP JUMPDEST PUSH1 0x1 PUSH1 0x1 PUSH1 0xA0 SHL SUB DUP3 AND PUSH2 0x111C JUMPI PUSH1 0x40 MLOAD PUSH3 0x461BCD PUSH1 0xE5 SHL DUP2 MSTORE PUSH1 0x20 PUSH1 0x4 DUP3 ADD MSTORE PUSH1 0x21 PUSH1 0x24 DUP3 ADD MSTORE PUSH32 0x45524332303A206275726E2066726F6D20746865207A65726F20616464726573 PUSH1 0x44 DUP3 ADD MSTORE PUSH1 0x73 PUSH1 0xF8 SHL PUSH1 0x64 DUP3 ADD MSTORE PUSH1 0x84 ADD PUSH2 0x589 JUMP JUMPDEST PUSH1 0x1 PUSH1 0x1 PUSH1 0xA0 SHL SUB DUP3 AND PUSH0 SWAP1 DUP2 MSTORE PUSH1 0x2 PUSH1 0x20 MSTORE PUSH1 0x40 SWAP1 KECCAK256 SLOAD DUP2 DUP2 LT ISZERO PUSH2 0x118F JUMPI PUSH1 0x40 MLOAD PUSH3 0x461BCD PUSH1 0xE5 SHL DUP2 MSTORE PUSH1 0x20 PUSH1 0x4 DUP3 ADD MSTORE PUSH1 0x22 PUSH1 0x24 DUP3 ADD MSTORE PUSH32 0x45524332303A206275726E20616D6F756E7420657863656564732062616C616E PUSH1 0x44 DUP3 ADD MSTORE PUSH2 0x6365 PUSH1 0xF0 SHL PUSH1 0x64 DUP3 ADD MSTORE PUSH1 0x84 ADD PUSH2 0x589 JUMP JUMPDEST PUSH1 0x1 PUSH1 0x1 PUSH1 0xA0 SHL SUB DUP4 AND PUSH0 SWAP1 DUP2 MSTORE PUSH1 0x2 PUSH1 0x20 MSTORE PUSH1 0x40 DUP2 KECCAK256 DUP4 DUP4 SUB SWAP1 SSTORE PUSH1 0x4 DUP1 SLOAD DUP5 SWAP3 SWAP1 PUSH2 0x11BD SWAP1 DUP5 SWAP1 PUSH2 0x1ABF JUMP JUMPDEST SWAP1 SWAP2 SSTORE POP POP PUSH1 0x40 MLOAD DUP3 DUP2 MSTORE PUSH0 SWAP1 PUSH1 0x1 PUSH1 0x1 PUSH1 0xA0 SHL SUB DUP6 AND SWAP1 PUSH32 0xDDF252AD1BE2C89B69C2B068FC378DAA952BA7F163C4A11628F55A4DF523B3EF SWAP1 PUSH1 0x20 ADD PUSH1 0x40 MLOAD DUP1 SWAP2 SUB SWAP1 LOG3 POP POP POP JUMP JUMPDEST PUSH1 0x1 PUSH1 0x1 PUSH1 0xA0 SHL SUB DUP3 AND PUSH2 0x125D JUMPI PUSH1 0x40 MLOAD PUSH3 0x461BCD PUSH1 0xE5 SHL DUP2 MSTORE PUSH1 0x20 PUSH1 0x4 DUP3 ADD MSTORE PUSH1 0x1F PUSH1 0x24 DUP3 ADD MSTORE PUSH32 0x45524332303A206D696E7420746F20746865207A65726F206164647265737300 PUSH1 0x44 DUP3 ADD MSTORE PUSH1 0x64 ADD PUSH2 0x589 JUMP JUMPDEST DUP1 PUSH1 0x4 PUSH0 DUP3 DUP3 SLOAD PUSH2 0x126E SWAP2 SWAP1 PUSH2 0x1AAC JUMP JUMPDEST SWAP1 SWAP2 SSTORE POP POP PUSH1 0x1 PUSH1 0x1 PUSH1 0xA0 SHL SUB DUP3 AND PUSH0 SWAP1 DUP2 MSTORE PUSH1 0x2 PUSH1 0x20 MSTORE PUSH1 0x40 DUP2 KECCAK256 DUP1 SLOAD DUP4 SWAP3 SWAP1 PUSH2 0x129A SWAP1 DUP5 SWAP1 PUSH2 0x1AAC JUMP JUMPDEST SWAP1 SWAP2 SSTORE POP POP PUSH1 0x40 MLOAD DUP2 DUP2 MSTORE PUSH1 0x1 PUSH1 0x1 PUSH1 0xA0 SHL SUB DUP4 AND SWAP1 PUSH0 SWAP1 PUSH32 0xDDF252AD1BE2C89B69C2B068FC378DAA952BA7F163C4A11628F55A4DF523B3EF SWAP1 PUSH1 0x20 ADD PUSH1 0x40 MLOAD DUP1 SWAP2 SUB SWAP1 LOG3 POP POP JUMP JUMPDEST PUSH0 DUP1 DUP1 SLOAD PUSH2 0x12F0 SWAP1 PUSH2 0x1A66 JUMP JUMPDEST DUP1 PUSH1 0x1F ADD PUSH1 0x20 DUP1 SWAP2 DIV MUL PUSH1 0x20 ADD PUSH1 0x40 MLOAD SWAP1 DUP2 ADD PUSH1 0x40 MSTORE DUP1 SWAP3 SWAP2 SWAP1 DUP2 DUP2 MSTORE PUSH1 0x20 ADD DUP3 DUP1 SLOAD PUSH2 0x131C SWAP1 PUSH2 0x1A66 JUMP JUMPDEST DUP1 ISZERO PUSH2 0x1367 JUMPI DUP1 PUSH1 0x1F LT PUSH2 0x133E JUMPI PUSH2 0x100 DUP1 DUP4 SLOAD DIV MUL DUP4 MSTORE SWAP2 PUSH1 0x20 ADD SWAP2 PUSH2 0x1367 JUMP JUMPDEST DUP3 ADD SWAP2 SWAP1 PUSH0 MSTORE PUSH1 0x20 PUSH0 KECCAK256 SWAP1 JUMPDEST DUP2 SLOAD DUP2 MSTORE SWAP1 PUSH1 0x1 ADD SWAP1 PUSH1 0x20 ADD DUP1 DUP4 GT PUSH2 0x134A JUMPI DUP3 SWAP1 SUB PUSH1 0x1F AND DUP3 ADD SWAP2 JUMPDEST POP POP POP POP POP SWAP1 POP DUP2 PUSH0 SWAP1 DUP2 PUSH2 0x137C SWAP2 SWAP1 PUSH2 0x1BA1 JUMP JUMPDEST POP PUSH32 0xC9C7C3FE08B88B4DF9D4D47EF47D2C43D55C025A0BA88CA442580ED9E7348A16 DUP2 DUP4 PUSH1 0x40 MLOAD PUSH2 0x13AE SWAP3 SWAP2 SWAP1 PUSH2 0x1C61 JUMP JUMPDEST PUSH1 0x40 MLOAD DUP1 SWAP2 SUB SWAP1 LOG1 POP POP JUMP JUMPDEST PUSH1 0x60 PUSH2 0x13DF DUP4 DUP4 PUSH1 0x40 MLOAD DUP1 PUSH1 0x60 ADD PUSH1 0x40 MSTORE DUP1 PUSH1 0x27 DUP2 MSTORE PUSH1 0x20 ADD PUSH2 0x1CB9 PUSH1 0x27 SWAP2 CODECOPY PUSH2 0x1435 JUMP JUMPDEST SWAP4 SWAP3 POP POP POP JUMP JUMPDEST PUSH1 0x1 PUSH1 0x1 PUSH1 0xA0 SHL SUB DUP2 AND PUSH0 SWAP1 DUP2 MSTORE PUSH1 0x7 PUSH1 0x20 MSTORE PUSH1 0x40 SWAP1 KECCAK256 DUP1 SLOAD PUSH1 0x1 DUP2 ADD DUP3 SSTORE SWAP1 JUMPDEST POP SWAP2 SWAP1 POP JUMP JUMPDEST PUSH0 DUP1 PUSH0 PUSH2 0x141C DUP8 DUP8 DUP8 DUP8 PUSH2 0x14A9 JUMP JUMPDEST SWAP2 POP SWAP2 POP PUSH2 0x1429 DUP2 PUSH2 0x1566 JUMP JUMPDEST POP SWAP1 POP JUMPDEST SWAP5 SWAP4 POP POP POP POP JUMP JUMPDEST PUSH1 0x60 PUSH0 DUP1 DUP6 PUSH1 0x1 PUSH1 0x1 PUSH1 0xA0 SHL SUB AND DUP6 PUSH1 0x40 MLOAD PUSH2 0x1451 SWAP2 SWAP1 PUSH2 0x1C8E JUMP JUMPDEST PUSH0 PUSH1 0x40 MLOAD DUP1 DUP4 SUB DUP2 DUP6 GAS DELEGATECALL SWAP2 POP POP RETURNDATASIZE DUP1 PUSH0 DUP2 EQ PUSH2 0x1489 JUMPI PUSH1 0x40 MLOAD SWAP2 POP PUSH1 0x1F NOT PUSH1 0x3F RETURNDATASIZE ADD AND DUP3 ADD PUSH1 0x40 MSTORE RETURNDATASIZE DUP3 MSTORE RETURNDATASIZE PUSH0 PUSH1 0x20 DUP5 ADD RETURNDATACOPY PUSH2 0x148E JUMP JUMPDEST PUSH1 0x60 SWAP2 POP JUMPDEST POP SWAP2 POP SWAP2 POP PUSH2 0x149F DUP7 DUP4 DUP4 DUP8 PUSH2 0x16AF JUMP JUMPDEST SWAP7 SWAP6 POP POP POP POP POP POP JUMP JUMPDEST PUSH0 DUP1 PUSH32 0x7FFFFFFFFFFFFFFFFFFFFFFFFFFFFFFF5D576E7357A4501DDFE92F46681B20A0 DUP4 GT ISZERO PUSH2 0x14DE JUMPI POP PUSH0 SWAP1 POP PUSH1 0x3 PUSH2 0x155D JUMP JUMPDEST PUSH1 0x40 DUP1 MLOAD PUSH0 DUP1 DUP3 MSTORE PUSH1 0x20 DUP3 ADD DUP1 DUP5 MSTORE DUP10 SWAP1 MSTORE PUSH1 0xFF DUP9 AND SWAP3 DUP3 ADD SWAP3 SWAP1 SWAP3 MSTORE PUSH1 0x60 DUP2 ADD DUP7 SWAP1 MSTORE PUSH1 0x80 DUP2 ADD DUP6 SWAP1 MSTORE PUSH1 0x1 SWAP1 PUSH1 0xA0 ADD PUSH1 0x20 PUSH1 0x40 MLOAD PUSH1 0x20 DUP2 SUB SWAP1 DUP1 DUP5 SUB SWAP1 DUP6 GAS STATICCALL ISZERO DUP1 ISZERO PUSH2 0x152F JUMPI RETURNDATASIZE PUSH0 DUP1 RETURNDATACOPY RETURNDATASIZE PUSH0 REVERT JUMPDEST POP POP PUSH1 0x40 MLOAD PUSH1 0x1F NOT ADD MLOAD SWAP2 POP POP PUSH1 0x1 PUSH1 0x1 PUSH1 0xA0 SHL SUB DUP2 AND PUSH2 0x1557 JUMPI PUSH0 PUSH1 0x1 SWAP3 POP SWAP3 POP POP PUSH2 0x155D JUMP JUMPDEST SWAP2 POP PUSH0 SWAP1 POP JUMPDEST SWAP5 POP SWAP5 SWAP3 POP POP POP JUMP JUMPDEST PUSH0 DUP2 PUSH1 0x4 DUP2 GT ISZERO PUSH2 0x1579 JUMPI PUSH2 0x1579 PUSH2 0x1CA4 JUMP JUMPDEST SUB PUSH2 0x1581 JUMPI POP JUMP JUMPDEST PUSH1 0x1 DUP2 PUSH1 0x4 DUP2 GT ISZERO PUSH2 0x1595 JUMPI PUSH2 0x1595 PUSH2 0x1CA4 JUMP JUMPDEST SUB PUSH2 0x15E2 JUMPI PUSH1 0x40 MLOAD PUSH3 0x461BCD PUSH1 0xE5 SHL DUP2 MSTORE PUSH1 0x20 PUSH1 0x4 DUP3 ADD MSTORE PUSH1 0x18 PUSH1 0x24 DUP3 ADD MSTORE PUSH32 0x45434453413A20696E76616C6964207369676E61747572650000000000000000 PUSH1 0x44 DUP3 ADD MSTORE PUSH1 0x64 ADD PUSH2 0x589 JUMP JUMPDEST PUSH1 0x2 DUP2 PUSH1 0x4 DUP2 GT ISZERO PUSH2 0x15F6 JUMPI PUSH2 0x15F6 PUSH2 0x1CA4 JUMP JUMPDEST SUB PUSH2 0x1643 JUMPI PUSH1 0x40 MLOAD PUSH3 0x461BCD PUSH1 0xE5 SHL DUP2 MSTORE PUSH1 0x20 PUSH1 0x4 DUP3 ADD MSTORE PUSH1 0x1F PUSH1 0x24 DUP3 ADD MSTORE PUSH32 0x45434453413A20696E76616C6964207369676E6174757265206C656E67746800 PUSH1 0x44 DUP3 ADD MSTORE PUSH1 0x64 ADD PUSH2 0x589 JUMP JUMPDEST PUSH1 0x3 DUP2 PUSH1 0x4 DUP2 GT ISZERO PUSH2 0x1657 JUMPI PUSH2 0x1657 PUSH2 0x1CA4 JUMP JUMPDEST SUB PUSH2 0x43C JUMPI PUSH1 0x40 MLOAD PUSH3 0x461BCD PUSH1 0xE5 SHL DUP2 MSTORE PUSH1 0x20 PUSH1 0x4 DUP3 ADD MSTORE PUSH1 0x22 PUSH1 0x24 DUP3 ADD MSTORE PUSH32 0x45434453413A20696E76616C6964207369676E6174757265202773272076616C PUSH1 0x44 DUP3 ADD MSTORE PUSH2 0x7565 PUSH1 0xF0 SHL PUSH1 0x64 DUP3 ADD MSTORE PUSH1 0x84 ADD PUSH2 0x589 JUMP JUMPDEST PUSH1 0x60 DUP4 ISZERO PUSH2 0x171D JUMPI DUP3 MLOAD PUSH0 SUB PUSH2 0x1716 JUMPI PUSH1 0x1 PUSH1 0x1 PUSH1 0xA0 SHL SUB DUP6 AND EXTCODESIZE PUSH2 0x1716 JUMPI PUSH1 0x40 MLOAD PUSH3 0x461BCD PUSH1 0xE5 SHL DUP2 MSTORE PUSH1 0x20 PUSH1 0x4 DUP3 ADD MSTORE PUSH1 0x1D PUSH1 0x24 DUP3 ADD MSTORE PUSH32 0x416464726573733A2063616C6C20746F206E6F6E2D636F6E7472616374000000 PUSH1 0x44 DUP3 ADD MSTORE PUSH1 0x64 ADD PUSH2 0x589 JUMP JUMPDEST POP DUP2 PUSH2 0x142D JUMP JUMPDEST PUSH2 0x142D DUP4 DUP4 DUP2 MLOAD ISZERO PUSH2 0x1732 JUMPI DUP2 MLOAD DUP1 DUP4 PUSH1 0x20 ADD REVERT JUMPDEST DUP1 PUSH1 0x40 MLOAD PUSH3 0x461BCD PUSH1 0xE5 SHL DUP2 MSTORE PUSH1 0x4 ADD PUSH2 0x589 SWAP2 SWAP1 PUSH2 0x177A JUMP JUMPDEST PUSH0 DUP2 MLOAD DUP1 DUP5 MSTORE DUP1 PUSH1 0x20 DUP5 ADD PUSH1 0x20 DUP7 ADD MCOPY PUSH0 PUSH1 0x20 DUP3 DUP7 ADD ADD MSTORE PUSH1 0x20 PUSH1 0x1F NOT PUSH1 0x1F DUP4 ADD AND DUP6 ADD ADD SWAP2 POP POP SWAP3 SWAP2 POP POP JUMP JUMPDEST PUSH1 0x20 DUP2 MSTORE PUSH0 PUSH2 0x13DF PUSH1 0x20 DUP4 ADD DUP5 PUSH2 0x174C JUMP JUMPDEST DUP1 CALLDATALOAD PUSH1 0x1 PUSH1 0x1 PUSH1 0xA0 SHL SUB DUP2 AND DUP2 EQ PUSH2 0x17A2 JUMPI PUSH0 DUP1 REVERT JUMPDEST SWAP2 SWAP1 POP JUMP JUMPDEST PUSH0 DUP1 PUSH1 0x40 DUP4 DUP6 SUB SLT ISZERO PUSH2 0x17B8 JUMPI PUSH0 DUP1 REVERT JUMPDEST PUSH2 0x17C1 DUP4 PUSH2 0x178C JUMP JUMPDEST SWAP5 PUSH1 0x20 SWAP4 SWAP1 SWAP4 ADD CALLDATALOAD SWAP4 POP POP POP JUMP JUMPDEST PUSH0 PUSH1 0x20 DUP3 DUP5 SUB SLT ISZERO PUSH2 0x17DF JUMPI PUSH0 DUP1 REVERT JUMPDEST PUSH2 0x13DF DUP3 PUSH2 0x178C JUMP JUMPDEST PUSH0 DUP1 PUSH0 PUSH1 0x60 DUP5 DUP7 SUB SLT ISZERO PUSH2 0x17FA JUMPI PUSH0 DUP1 REVERT JUMPDEST PUSH2 0x1803 DUP5 PUSH2 0x178C JUMP JUMPDEST SWAP3 POP PUSH2 0x1811 PUSH1 0x20 DUP6 ADD PUSH2 0x178C JUMP JUMPDEST SWAP2 POP PUSH1 0x40 DUP5 ADD CALLDATALOAD SWAP1 POP SWAP3 POP SWAP3 POP SWAP3 JUMP JUMPDEST PUSH0 PUSH1 0x20 DUP3 DUP5 SUB SLT ISZERO PUSH2 0x1831 JUMPI PUSH0 DUP1 REVERT JUMPDEST POP CALLDATALOAD SWAP2 SWAP1 POP JUMP JUMPDEST PUSH4 0x4E487B71 PUSH1 0xE0 SHL PUSH0 MSTORE PUSH1 0x41 PUSH1 0x4 MSTORE PUSH1 0x24 PUSH0 REVERT JUMPDEST PUSH0 PUSH1 0x20 DUP3 DUP5 SUB SLT ISZERO PUSH2 0x185C JUMPI PUSH0 DUP1 REVERT JUMPDEST DUP2 CALLDATALOAD PUSH8 0xFFFFFFFFFFFFFFFF DUP1 DUP3 GT ISZERO PUSH2 0x1873 JUMPI PUSH0 DUP1 REVERT JUMPDEST DUP2 DUP5 ADD SWAP2 POP DUP5 PUSH1 0x1F DUP4 ADD SLT PUSH2 0x1886 JUMPI PUSH0 DUP1 REVERT JUMPDEST DUP2 CALLDATALOAD DUP2 DUP2 GT ISZERO PUSH2 0x1898 JUMPI PUSH2 0x1898 PUSH2 0x1838 JUMP JUMPDEST PUSH1 0x40 MLOAD PUSH1 0x1F DUP3 ADD PUSH1 0x1F NOT SWAP1 DUP2 AND PUSH1 0x3F ADD AND DUP2 ADD SWAP1 DUP4 DUP3 GT DUP2 DUP4 LT OR ISZERO PUSH2 0x18C0 JUMPI PUSH2 0x18C0 PUSH2 0x1838 JUMP JUMPDEST DUP2 PUSH1 0x40 MSTORE DUP3 DUP2 MSTORE DUP8 PUSH1 0x20 DUP5 DUP8 ADD ADD GT ISZERO PUSH2 0x18D8 JUMPI PUSH0 DUP1 REVERT JUMPDEST DUP3 PUSH1 0x20 DUP7 ADD PUSH1 0x20 DUP4 ADD CALLDATACOPY PUSH0 SWAP3 DUP2 ADD PUSH1 0x20 ADD SWAP3 SWAP1 SWAP3 MSTORE POP SWAP6 SWAP5 POP POP POP POP POP JUMP JUMPDEST PUSH0 DUP1 PUSH1 0x20 DUP4 DUP6 SUB SLT ISZERO PUSH2 0x1908 JUMPI PUSH0 DUP1 REVERT JUMPDEST DUP3 CALLDATALOAD PUSH8 0xFFFFFFFFFFFFFFFF DUP1 DUP3 GT ISZERO PUSH2 0x191F JUMPI PUSH0 DUP1 REVERT JUMPDEST DUP2 DUP6 ADD SWAP2 POP DUP6 PUSH1 0x1F DUP4 ADD SLT PUSH2 0x1932 JUMPI PUSH0 DUP1 REVERT JUMPDEST DUP2 CALLDATALOAD DUP2 DUP2 GT ISZERO PUSH2 0x1940 JUMPI PUSH0 DUP1 REVERT JUMPDEST DUP7 PUSH1 0x20 DUP3 PUSH1 0x5 SHL DUP6 ADD ADD GT ISZERO PUSH2 0x1954 JUMPI PUSH0 DUP1 REVERT JUMPDEST PUSH1 0x20 SWAP3 SWAP1 SWAP3 ADD SWAP7 SWAP2 SWAP6 POP SWAP1 SWAP4 POP POP POP POP JUMP JUMPDEST PUSH0 PUSH1 0x20 DUP1 DUP4 ADD PUSH1 0x20 DUP5 MSTORE DUP1 DUP6 MLOAD DUP1 DUP4 MSTORE PUSH1 0x40 DUP7 ADD SWAP2 POP PUSH1 0x40 DUP2 PUSH1 0x5 SHL DUP8 ADD ADD SWAP3 POP PUSH1 0x20 DUP8 ADD PUSH0 JUMPDEST DUP3 DUP2 LT ISZERO PUSH2 0x19BB JUMPI PUSH1 0x3F NOT DUP9 DUP7 SUB ADD DUP5 MSTORE PUSH2 0x19A9 DUP6 DUP4 MLOAD PUSH2 0x174C JUMP JUMPDEST SWAP5 POP SWAP3 DUP6 ADD SWAP3 SWAP1 DUP6 ADD SWAP1 PUSH1 0x1 ADD PUSH2 0x198D JUMP JUMPDEST POP SWAP3 SWAP8 SWAP7 POP POP POP POP POP POP POP JUMP JUMPDEST PUSH0 DUP1 PUSH0 DUP1 PUSH0 DUP1 PUSH0 PUSH1 0xE0 DUP9 DUP11 SUB SLT ISZERO PUSH2 0x19DE JUMPI PUSH0 DUP1 REVERT JUMPDEST PUSH2 0x19E7 DUP9 PUSH2 0x178C JUMP JUMPDEST SWAP7 POP PUSH2 0x19F5 PUSH1 0x20 DUP10 ADD PUSH2 0x178C JUMP JUMPDEST SWAP6 POP PUSH1 0x40 DUP9 ADD CALLDATALOAD SWAP5 POP PUSH1 0x60 DUP9 ADD CALLDATALOAD SWAP4 POP PUSH1 0x80 DUP9 ADD CALLDATALOAD PUSH1 0xFF DUP2 AND DUP2 EQ PUSH2 0x1A18 JUMPI PUSH0 DUP1 REVERT JUMPDEST SWAP7 SWAP10 SWAP6 SWAP9 POP SWAP4 SWAP7 SWAP3 SWAP6 SWAP5 PUSH1 0xA0 DUP5 ADD CALLDATALOAD SWAP5 POP PUSH1 0xC0 SWAP1 SWAP4 ADD CALLDATALOAD SWAP3 SWAP2 POP POP JUMP JUMPDEST PUSH0 DUP1 PUSH1 0x40 DUP4 DUP6 SUB SLT ISZERO PUSH2 0x1A46 JUMPI PUSH0 DUP1 REVERT JUMPDEST PUSH2 0x1A4F DUP4 PUSH2 0x178C JUMP JUMPDEST SWAP2 POP PUSH2 0x1A5D PUSH1 0x20 DUP5 ADD PUSH2 0x178C JUMP JUMPDEST SWAP1 POP SWAP3 POP SWAP3 SWAP1 POP JUMP JUMPDEST PUSH1 0x1 DUP2 DUP2 SHR SWAP1 DUP3 AND DUP1 PUSH2 0x1A7A JUMPI PUSH1 0x7F DUP3 AND SWAP2 POP JUMPDEST PUSH1 0x20 DUP3 LT DUP2 SUB PUSH2 0x1407 JUMPI PUSH4 0x4E487B71 PUSH1 0xE0 SHL PUSH0 MSTORE PUSH1 0x22 PUSH1 0x4 MSTORE PUSH1 0x24 PUSH0 REVERT JUMPDEST PUSH4 0x4E487B71 PUSH1 0xE0 SHL PUSH0 MSTORE PUSH1 0x11 PUSH1 0x4 MSTORE PUSH1 0x24 PUSH0 REVERT JUMPDEST DUP1 DUP3 ADD DUP1 DUP3 GT ISZERO PUSH2 0x408 JUMPI PUSH2 0x408 PUSH2 0x1A98 JUMP JUMPDEST DUP2 DUP2 SUB DUP2 DUP2 GT ISZERO PUSH2 0x408 JUMPI PUSH2 0x408 PUSH2 0x1A98 JUMP JUMPDEST PUSH4 0x4E487B71 PUSH1 0xE0 SHL PUSH0 MSTORE PUSH1 0x32 PUSH1 0x4 MSTORE PUSH1 0x24 PUSH0 REVERT JUMPDEST PUSH0 DUP1 DUP4 CALLDATALOAD PUSH1 0x1E NOT DUP5 CALLDATASIZE SUB ADD DUP2 SLT PUSH2 0x1AFB JUMPI PUSH0 DUP1 REVERT JUMPDEST DUP4 ADD DUP1 CALLDATALOAD SWAP2 POP PUSH8 0xFFFFFFFFFFFFFFFF DUP3 GT ISZERO PUSH2 0x1B15 JUMPI PUSH0 DUP1 REVERT JUMPDEST PUSH1 0x20 ADD SWAP2 POP CALLDATASIZE DUP2 SWAP1 SUB DUP3 SGT ISZERO PUSH2 0x1B29 JUMPI PUSH0 DUP1 REVERT JUMPDEST SWAP3 POP SWAP3 SWAP1 POP JUMP JUMPDEST DUP3 DUP5 DUP3 CALLDATACOPY PUSH1 0x60 SWAP2 SWAP1 SWAP2 SHL PUSH12 0xFFFFFFFFFFFFFFFFFFFFFFFF NOT AND SWAP2 ADD SWAP1 DUP2 MSTORE PUSH1 0x14 ADD SWAP2 SWAP1 POP JUMP JUMPDEST PUSH1 0x1F DUP3 GT ISZERO PUSH2 0x75E JUMPI DUP1 PUSH0 MSTORE PUSH1 0x20 PUSH0 KECCAK256 PUSH1 0x1F DUP5 ADD PUSH1 0x5 SHR DUP2 ADD PUSH1 0x20 DUP6 LT ISZERO PUSH2 0x1B7B JUMPI POP DUP1 JUMPDEST PUSH1 0x1F DUP5 ADD PUSH1 0x5 SHR DUP3 ADD SWAP2 POP JUMPDEST DUP2 DUP2 LT ISZERO PUSH2 0x1B9A JUMPI PUSH0 DUP2 SSTORE PUSH1 0x1 ADD PUSH2 0x1B87 JUMP JUMPDEST POP POP POP POP POP JUMP JUMPDEST DUP2 MLOAD PUSH8 0xFFFFFFFFFFFFFFFF DUP2 GT ISZERO PUSH2 0x1BBB JUMPI PUSH2 0x1BBB PUSH2 0x1838 JUMP JUMPDEST PUSH2 0x1BCF DUP2 PUSH2 0x1BC9 DUP5 SLOAD PUSH2 0x1A66 JUMP JUMPDEST DUP5 PUSH2 0x1B56 JUMP JUMPDEST PUSH1 0x20 DUP1 PUSH1 0x1F DUP4 GT PUSH1 0x1 DUP2 EQ PUSH2 0x1C02 JUMPI PUSH0 DUP5 ISZERO PUSH2 0x1BEB JUMPI POP DUP6 DUP4 ADD MLOAD JUMPDEST PUSH0 NOT PUSH1 0x3 DUP7 SWAP1 SHL SHR NOT AND PUSH1 0x1 DUP6 SWAP1 SHL OR DUP6 SSTORE PUSH2 0x1C59 JUMP JUMPDEST PUSH0 DUP6 DUP2 MSTORE PUSH1 0x20 DUP2 KECCAK256 PUSH1 0x1F NOT DUP7 AND SWAP2 JUMPDEST DUP3 DUP2 LT ISZERO PUSH2 0x1C30 JUMPI DUP9 DUP7 ADD MLOAD DUP3 SSTORE SWAP5 DUP5 ADD SWAP5 PUSH1 0x1 SWAP1 SWAP2 ADD SWAP1 DUP5 ADD PUSH2 0x1C11 JUMP JUMPDEST POP DUP6 DUP3 LT ISZERO PUSH2 0x1C4D JUMPI DUP8 DUP6 ADD MLOAD PUSH0 NOT PUSH1 0x3 DUP9 SWAP1 SHL PUSH1 0xF8 AND SHR NOT AND DUP2 SSTORE JUMPDEST POP POP PUSH1 0x1 DUP5 PUSH1 0x1 SHL ADD DUP6 SSTORE JUMPDEST POP POP POP POP POP POP JUMP JUMPDEST PUSH1 0x40 DUP2 MSTORE PUSH0 PUSH2 0x1C73 PUSH1 0x40 DUP4 ADD DUP6 PUSH2 0x174C JUMP JUMPDEST DUP3 DUP2 SUB PUSH1 0x20 DUP5 ADD MSTORE PUSH2 0x1C85 DUP2 DUP6 PUSH2 0x174C JUMP JUMPDEST SWAP6 SWAP5 POP POP POP POP POP JUMP JUMPDEST PUSH0 DUP3 MLOAD DUP1 PUSH1 0x20 DUP6 ADD DUP5 MCOPY PUSH0 SWAP3 ADD SWAP2 DUP3 MSTORE POP SWAP2 SWAP1 POP JUMP JUMPDEST PUSH4 0x4E487B71 PUSH1 0xE0 SHL PUSH0 MSTORE PUSH1 0x21 PUSH1 0x4 MSTORE PUSH1 0x24 PUSH0 REVERT INVALID COINBASE PUSH5 0x6472657373 GASPRICE KECCAK256 PUSH13 0x6F772D6C6576656C2064656C65 PUSH8 0x6174652063616C6C KECCAK256 PUSH7 0x61696C6564A264 PUSH10 0x706673582212205DDF5F 0xEE 0xC4 PREVRANDAO SWAP5 LOG0 DUP1 DUP16 PUSH2 0x1CBA 0xDD 0xB9 0xE5 0xE2 SWAP3 SWAP10 0xEA PUSH14 0xF309A68185397C01C2FE3B64736F PUSH13 0x63430008190033000000000000 "
    },
    "gasEstimates": {
      "creation": {
        "codeDepositCost": "1489000",
        "executionCost": "infinite",
        "totalCost": "infinite"
      },
      "external": {
        "DOMAIN_SEPARATOR()": "infinite",
        "allowance(address,address)": "infinite",
        "approve(address,uint256)": "24670",
        "balanceOf(address)": "2623",
        "burn(uint256)": "53084",
        "burnFrom(address,uint256)": "infinite",
        "contractURI()": "infinite",
        "decimals()": "222",
        "decreaseAllowance(address,uint256)": "26941",
        "increaseAllowance(address,uint256)": "infinite",
        "mintTo(address,uint256)": "infinite",
        "multicall(bytes[])": "infinite",
        "name()": "infinite",
        "nonces(address)": "2636",
        "owner()": "2345",
        "permit(address,address,uint256,uint256,uint8,bytes32,bytes32)": "infinite",
        "setContractURI(string)": "infinite",
        "setOwner(address)": "28390",
        "symbol()": "infinite",
        "totalSupply()": "2348",
        "transfer(address,uint256)": "infinite",
        "transferFrom(address,address,uint256)": "infinite"
      }
    },
    "methodIdentifiers": {
      "DOMAIN_SEPARATOR()": "3644e515",
      "allowance(address,address)": "dd62ed3e",
      "approve(address,uint256)": "095ea7b3",
      "balanceOf(address)": "70a08231",
      "burn(uint256)": "42966c68",
      "burnFrom(address,uint256)": "79cc6790",
      "contractURI()": "e8a3d485",
      "decimals()": "313ce567",
      "decreaseAllowance(address,uint256)": "a457c2d7",
      "increaseAllowance(address,uint256)": "39509351",
      "mintTo(address,uint256)": "449a52f8",
      "multicall(bytes[])": "ac9650d8",
      "name()": "06fdde03",
      "nonces(address)": "7ecebe00",
      "owner()": "8da5cb5b",
      "permit(address,address,uint256,uint256,uint8,bytes32,bytes32)": "d505accf",
      "setContractURI(string)": "938e3d7b",
      "setOwner(address)": "13af4035",
      "symbol()": "95d89b41",
      "totalSupply()": "18160ddd",
      "transfer(address,uint256)": "a9059cbb",
      "transferFrom(address,address,uint256)": "23b872dd"
    }
  },
  "storageLayout": {
    "storage": [
      {
        "astId": 253,
        "contract": "PBOXToken.sol:PBOXToken",
        "label": "contractURI",
        "offset": 0,
        "slot": "0",
        "type": "t_string_storage"
      },
      {
        "astId": 415,
        "contract": "PBOXToken.sol:PBOXToken",
        "label": "_owner",
        "offset": 0,
        "slot": "1",
        "type": "t_address"
      },
      {
        "astId": 1207,
        "contract": "PBOXToken.sol:PBOXToken",
        "label": "_balances",
        "offset": 0,
        "slot": "2",
        "type": "t_mapping(t_address,t_uint256)"
      },
      {
        "astId": 1213,
        "contract": "PBOXToken.sol:PBOXToken",
        "label": "_allowances",
        "offset": 0,
        "slot": "3",
        "type": "t_mapping(t_address,t_mapping(t_address,t_uint256))"
      },
      {
        "astId": 1215,
        "contract": "PBOXToken.sol:PBOXToken",
        "label": "_totalSupply",
        "offset": 0,
        "slot": "4",
        "type": "t_uint256"
      },
      {
        "astId": 1217,
        "contract": "PBOXToken.sol:PBOXToken",
        "label": "_name",
        "offset": 0,
        "slot": "5",
        "type": "t_string_storage"
      },
      {
        "astId": 1219,
        "contract": "PBOXToken.sol:PBOXToken",
        "label": "_symbol",
        "offset": 0,
        "slot": "6",
        "type": "t_string_storage"
      },
      {
        "astId": 544,
        "contract": "PBOXToken.sol:PBOXToken",
        "label": "_nonces",
        "offset": 0,
        "slot": "7",
        "type": "t_mapping(t_address,t_struct(Counter)1785_storage)"
      }
    ],
    "types": {
      "t_address": {
        "encoding": "inplace",
        "label": "address",
        "numberOfBytes": "20"
      },
      "t_mapping(t_address,t_mapping(t_address,t_uint256))": {
        "encoding": "mapping",
        "key": "t_address",
        "label": "mapping(address => mapping(address => uint256))",
        "numberOfBytes": "32",
        "value": "t_mapping(t_address,t_uint256)"
      },
      "t_mapping(t_address,t_struct(Counter)1785_storage)": {
        "encoding": "mapping",
        "key": "t_address",
        "label": "mapping(address => struct Counters.Counter)",
        "numberOfBytes": "32",
        "value": "t_struct(Counter)1785_storage"
      },
      "t_mapping(t_address,t_uint256)": {
        "encoding": "mapping",
        "key": "t_address",
        "label": "mapping(address => uint256)",
        "numberOfBytes": "32",
        "value": "t_uint256"
      },
      "t_string_storage": {
        "encoding": "bytes",
        "label": "string",
        "numberOfBytes": "32"
      },
      "t_struct(Counter)1785_storage": {
        "encoding": "inplace",
        "label": "struct Counters.Counter",
        "members": [
          {
            "astId": 1784,
            "contract": "PBOXToken.sol:PBOXToken",
            "label": "_value",
            "offset": 0,
            "slot": "0",
            "type": "t_uint256"
          }
        ],
        "numberOfBytes": "32"
      },
      "t_uint256": {
        "encoding": "inplace",
        "label": "uint256",
        "numberOfBytes": "32"
      }
    }
  },
  "userdoc": {
    "kind": "user",
    "methods": {
      "burn(uint256)": {
        "notice": "Lets an owner a given amount of their tokens."
      },
      "burnFrom(address,uint256)": {
        "notice": "Lets an owner burn a given amount of an account's tokens."
      },
      "contractURI()": {
        "notice": "Returns the contract metadata URI."
      },
      "mintTo(address,uint256)": {
        "notice": "Lets an authorized address mint tokens to a recipient."
      },
      "multicall(bytes[])": {
        "notice": "Receives and executes a batch of function calls on this contract."
      },
      "owner()": {
        "notice": "Returns the owner of the contract."
      },
      "setContractURI(string)": {
        "notice": "Lets a contract admin set the URI for contract-level metadata."
      },
      "setOwner(address)": {
        "notice": "Lets an authorized wallet set a new owner for the contract."
      }
    },
    "version": 1
  }
}