{
  "_format": "hh-sol-artifact-1",
  "contractName": "W2ELicense",
  "sourceName": "contracts/W2ELicense.sol",
  "abi": [
    {
      "inputs": [
        {
          "internalType": "string",
          "name": "name",
          "type": "string"
        },
        {
          "internalType": "string",
          "name": "symbol",
          "type": "string"
        },
        {
          "internalType": "uint256",
          "name": "_maxSupply",
          "type": "uint256"
        },
        {
          "internalType": "address",
          "name": "_pandoraOracle",
          "type": "address"
        },
        {
          "internalType": "address",
          "name": "_treasuryAddress",
          "type": "address"
        },
        {
          "internalType": "address",
          "name": "initialOwner",
          "type": "address"
        }
      ],
      "stateMutability": "nonpayable",
      "type": "constructor"
    },
    {
      "inputs": [],
      "name": "ApprovalCallerNotOwnerNorApproved",
      "type": "error"
    },
    {
      "inputs": [],
      "name": "ApprovalQueryForNonexistentToken",
      "type": "error"
    },
    {
      "inputs": [],
      "name": "BalanceQueryForZeroAddress",
      "type": "error"
    },
    {
      "inputs": [],
      "name": "MintERC2309QuantityExceedsLimit",
      "type": "error"
    },
    {
      "inputs": [],
      "name": "MintToZeroAddress",
      "type": "error"
    },
    {
      "inputs": [],
      "name": "MintZeroQuantity",
      "type": "error"
    },
    {
      "inputs": [],
      "name": "NotCompatibleWithSpotMints",
      "type": "error"
    },
    {
      "inputs": [],
      "name": "OwnerQueryForNonexistentToken",
      "type": "error"
    },
    {
      "inputs": [],
      "name": "OwnershipNotInitializedForExtraData",
      "type": "error"
    },
    {
      "inputs": [],
      "name": "SequentialMintExceedsLimit",
      "type": "error"
    },
    {
      "inputs": [],
      "name": "SequentialUpToTooSmall",
      "type": "error"
    },
    {
      "inputs": [],
      "name": "SpotMintTokenIdTooSmall",
      "type": "error"
    },
    {
      "inputs": [],
      "name": "TokenAlreadyExists",
      "type": "error"
    },
    {
      "inputs": [],
      "name": "TransferCallerNotOwnerNorApproved",
      "type": "error"
    },
    {
      "inputs": [],
      "name": "TransferFromIncorrectOwner",
      "type": "error"
    },
    {
      "inputs": [],
      "name": "TransferToNonERC721ReceiverImplementer",
      "type": "error"
    },
    {
      "inputs": [],
      "name": "TransferToZeroAddress",
      "type": "error"
    },
    {
      "inputs": [],
      "name": "URIQueryForNonexistentToken",
      "type": "error"
    },
    {
      "anonymous": false,
      "inputs": [
        {
          "indexed": true,
          "internalType": "address",
          "name": "owner",
          "type": "address"
        },
        {
          "indexed": true,
          "internalType": "address",
          "name": "approved",
          "type": "address"
        },
        {
          "indexed": true,
          "internalType": "uint256",
          "name": "tokenId",
          "type": "uint256"
        }
      ],
      "name": "Approval",
      "type": "event"
    },
    {
      "anonymous": false,
      "inputs": [
        {
          "indexed": true,
          "internalType": "address",
          "name": "owner",
          "type": "address"
        },
        {
          "indexed": true,
          "internalType": "address",
          "name": "operator",
          "type": "address"
        },
        {
          "indexed": false,
          "internalType": "bool",
          "name": "approved",
          "type": "bool"
        }
      ],
      "name": "ApprovalForAll",
      "type": "event"
    },
    {
      "anonymous": false,
      "inputs": [
        {
          "indexed": true,
          "internalType": "uint256",
          "name": "fromTokenId",
          "type": "uint256"
        },
        {
          "indexed": false,
          "internalType": "uint256",
          "name": "toTokenId",
          "type": "uint256"
        },
        {
          "indexed": true,
          "internalType": "address",
          "name": "from",
          "type": "address"
        },
        {
          "indexed": true,
          "internalType": "address",
          "name": "to",
          "type": "address"
        }
      ],
      "name": "ConsecutiveTransfer",
      "type": "event"
    },
    {
      "anonymous": false,
      "inputs": [
        {
          "indexed": true,
          "internalType": "address",
          "name": "recipient",
          "type": "address"
        },
        {
          "indexed": false,
          "internalType": "uint256",
          "name": "quantity",
          "type": "uint256"
        },
        {
          "indexed": false,
          "internalType": "uint256",
          "name": "totalMinted",
          "type": "uint256"
        }
      ],
      "name": "LicenseMinted",
      "type": "event"
    },
    {
      "anonymous": false,
      "inputs": [
        {
          "indexed": true,
          "internalType": "address",
          "name": "oldOracle",
          "type": "address"
        },
        {
          "indexed": true,
          "internalType": "address",
          "name": "newOracle",
          "type": "address"
        }
      ],
      "name": "OracleUpdated",
      "type": "event"
    },
    {
      "anonymous": false,
      "inputs": [
        {
          "indexed": true,
          "internalType": "address",
          "name": "previousOwner",
          "type": "address"
        },
        {
          "indexed": true,
          "internalType": "address",
          "name": "newOwner",
          "type": "address"
        }
      ],
      "name": "OwnershipTransferred",
      "type": "event"
    },
    {
      "anonymous": false,
      "inputs": [
        {
          "indexed": true,
          "internalType": "address",
          "name": "from",
          "type": "address"
        },
        {
          "indexed": true,
          "internalType": "address",
          "name": "to",
          "type": "address"
        },
        {
          "indexed": true,
          "internalType": "uint256",
          "name": "tokenId",
          "type": "uint256"
        }
      ],
      "name": "Transfer",
      "type": "event"
    },
    {
      "anonymous": false,
      "inputs": [
        {
          "indexed": true,
          "internalType": "address",
          "name": "oldTreasury",
          "type": "address"
        },
        {
          "indexed": true,
          "internalType": "address",
          "name": "newTreasury",
          "type": "address"
        }
      ],
      "name": "TreasuryUpdated",
      "type": "event"
    },
    {
      "inputs": [
        {
          "internalType": "address",
          "name": "to",
          "type": "address"
        },
        {
          "internalType": "uint256",
          "name": "tokenId",
          "type": "uint256"
        }
      ],
      "name": "approve",
      "outputs": [],
      "stateMutability": "payable",
      "type": "function"
    },
    {
      "inputs": [
        {
          "internalType": "address",
          "name": "owner",
          "type": "address"
        }
      ],
      "name": "balanceOf",
      "outputs": [
        {
          "internalType": "uint256",
          "name": "",
          "type": "uint256"
        }
      ],
      "stateMutability": "view",
      "type": "function"
    },
    {
      "inputs": [
        {
          "internalType": "uint256",
          "name": "tokenId",
          "type": "uint256"
        }
      ],
      "name": "getApproved",
      "outputs": [
        {
          "internalType": "address",
          "name": "",
          "type": "address"
        }
      ],
      "stateMutability": "view",
      "type": "function"
    },
    {
      "inputs": [
        {
          "internalType": "address",
          "name": "account",
          "type": "address"
        }
      ],
      "name": "getVotes",
      "outputs": [
        {
          "internalType": "uint256",
          "name": "",
          "type": "uint256"
        }
      ],
      "stateMutability": "view",
      "type": "function"
    },
    {
      "inputs": [
        {
          "internalType": "address",
          "name": "account",
          "type": "address"
        }
      ],
      "name": "hasActiveLicense",
      "outputs": [
        {
          "internalType": "bool",
          "name": "",
          "type": "bool"
        }
      ],
      "stateMutability": "view",
      "type": "function"
    },
    {
      "inputs": [
        {
          "internalType": "address",
          "name": "owner",
          "type": "address"
        },
        {
          "internalType": "address",
          "name": "operator",
          "type": "address"
        }
      ],
      "name": "isApprovedForAll",
      "outputs": [
        {
          "internalType": "bool",
          "name": "",
          "type": "bool"
        }
      ],
      "stateMutability": "view",
      "type": "function"
    },
    {
      "inputs": [],
      "name": "licensePrice",
      "outputs": [
        {
          "internalType": "uint256",
          "name": "",
          "type": "uint256"
        }
      ],
      "stateMutability": "view",
      "type": "function"
    },
    {
      "inputs": [],
      "name": "maxSupply",
      "outputs": [
        {
          "internalType": "uint256",
          "name": "",
          "type": "uint256"
        }
      ],
      "stateMutability": "view",
      "type": "function"
    },
    {
      "inputs": [
        {
          "internalType": "address",
          "name": "recipient",
          "type": "address"
        },
        {
          "internalType": "uint256",
          "name": "quantity",
          "type": "uint256"
        }
      ],
      "name": "mintLicense",
      "outputs": [],
      "stateMutability": "nonpayable",
      "type": "function"
    },
    {
      "inputs": [
        {
          "internalType": "uint256",
          "name": "quantity",
          "type": "uint256"
        }
      ],
      "name": "mintWithPayment",
      "outputs": [],
      "stateMutability": "payable",
      "type": "function"
    },
    {
      "inputs": [],
      "name": "name",
      "outputs": [
        {
          "internalType": "string",
          "name": "",
          "type": "string"
        }
      ],
      "stateMutability": "view",
      "type": "function"
    },
    {
      "inputs": [],
      "name": "owner",
      "outputs": [
        {
          "internalType": "address",
          "name": "",
          "type": "address"
        }
      ],
      "stateMutability": "view",
      "type": "function"
    },
    {
      "inputs": [
        {
          "internalType": "uint256",
          "name": "tokenId",
          "type": "uint256"
        }
      ],
      "name": "ownerOf",
      "outputs": [
        {
          "internalType": "address",
          "name": "",
          "type": "address"
        }
      ],
      "stateMutability": "view",
      "type": "function"
    },
    {
      "inputs": [],
      "name": "pandoraOracle",
      "outputs": [
        {
          "internalType": "address",
          "name": "",
          "type": "address"
        }
      ],
      "stateMutability": "view",
      "type": "function"
    },
    {
      "inputs": [],
      "name": "remainingSupply",
      "outputs": [
        {
          "internalType": "uint256",
          "name": "",
          "type": "uint256"
        }
      ],
      "stateMutability": "view",
      "type": "function"
    },
    {
      "inputs": [],
      "name": "renounceOwnership",
      "outputs": [],
      "stateMutability": "nonpayable",
      "type": "function"
    },
    {
      "inputs": [
        {
          "internalType": "address",
          "name": "from",
          "type": "address"
        },
        {
          "internalType": "address",
          "name": "to",
          "type": "address"
        },
        {
          "internalType": "uint256",
          "name": "tokenId",
          "type": "uint256"
        }
      ],
      "name": "safeTransferFrom",
      "outputs": [],
      "stateMutability": "payable",
      "type": "function"
    },
    {
      "inputs": [
        {
          "internalType": "address",
          "name": "from",
          "type": "address"
        },
        {
          "internalType": "address",
          "name": "to",
          "type": "address"
        },
        {
          "internalType": "uint256",
          "name": "tokenId",
          "type": "uint256"
        },
        {
          "internalType": "bytes",
          "name": "_data",
          "type": "bytes"
        }
      ],
      "name": "safeTransferFrom",
      "outputs": [],
      "stateMutability": "payable",
      "type": "function"
    },
    {
      "inputs": [
        {
          "internalType": "address",
          "name": "operator",
          "type": "address"
        },
        {
          "internalType": "bool",
          "name": "approved",
          "type": "bool"
        }
      ],
      "name": "setApprovalForAll",
      "outputs": [],
      "stateMutability": "nonpayable",
      "type": "function"
    },
    {
      "inputs": [
        {
          "internalType": "uint256",
          "name": "newPrice",
          "type": "uint256"
        }
      ],
      "name": "setLicensePrice",
      "outputs": [],
      "stateMutability": "nonpayable",
      "type": "function"
    },
    {
      "inputs": [
        {
          "internalType": "address",
          "name": "newOracle",
          "type": "address"
        }
      ],
      "name": "setPandoraOracle",
      "outputs": [],
      "stateMutability": "nonpayable",
      "type": "function"
    },
    {
      "inputs": [
        {
          "internalType": "address",
          "name": "newTreasury",
          "type": "address"
        }
      ],
      "name": "setTreasuryAddress",
      "outputs": [],
      "stateMutability": "nonpayable",
      "type": "function"
    },
    {
      "inputs": [
        {
          "internalType": "bytes4",
          "name": "interfaceId",
          "type": "bytes4"
        }
      ],
      "name": "supportsInterface",
      "outputs": [
        {
          "internalType": "bool",
          "name": "",
          "type": "bool"
        }
      ],
      "stateMutability": "view",
      "type": "function"
    },
    {
      "inputs": [],
      "name": "symbol",
      "outputs": [
        {
          "internalType": "string",
          "name": "",
          "type": "string"
        }
      ],
      "stateMutability": "view",
      "type": "function"
    },
    {
      "inputs": [
        {
          "internalType": "uint256",
          "name": "tokenId",
          "type": "uint256"
        }
      ],
      "name": "tokenURI",
      "outputs": [
        {
          "internalType": "string",
          "name": "",
          "type": "string"
        }
      ],
      "stateMutability": "view",
      "type": "function"
    },
    {
      "inputs": [],
      "name": "totalMinted",
      "outputs": [
        {
          "internalType": "uint256",
          "name": "",
          "type": "uint256"
        }
      ],
      "stateMutability": "view",
      "type": "function"
    },
    {
      "inputs": [],
      "name": "totalSupply",
      "outputs": [
        {
          "internalType": "uint256",
          "name": "result",
          "type": "uint256"
        }
      ],
      "stateMutability": "view",
      "type": "function"
    },
    {
      "inputs": [
        {
          "internalType": "address",
          "name": "from",
          "type": "address"
        },
        {
          "internalType": "address",
          "name": "to",
          "type": "address"
        },
        {
          "internalType": "uint256",
          "name": "tokenId",
          "type": "uint256"
        }
      ],
      "name": "transferFrom",
      "outputs": [],
      "stateMutability": "payable",
      "type": "function"
    },
    {
      "inputs": [
        {
          "internalType": "address",
          "name": "newOwner",
          "type": "address"
        }
      ],
      "name": "transferOwnership",
      "outputs": [],
      "stateMutability": "nonpayable",
      "type": "function"
    },
    {
      "inputs": [],
      "name": "treasuryAddress",
      "outputs": [
        {
          "internalType": "address",
          "name": "",
          "type": "address"
        }
      ],
      "stateMutability": "view",
      "type": "function"
    }
  ],
  "bytecode": "0x60806040523480156200001157600080fd5b5060405162001e7e38038062001e7e8339810160408190526200003491620002e6565b858560026200004483826200041f565b5060036200005382826200041f565b50506001600055506200006633620001b2565b60008411620000bc5760405162461bcd60e51b815260206004820181905260248201527f5732453a204d617820737570706c79206d75737420626520706f73697469766560448201526064015b60405180910390fd5b6001600160a01b038316620001145760405162461bcd60e51b815260206004820152601b60248201527f5732453a20496e76616c6964206f7261636c65206164647265737300000000006044820152606401620000b3565b6001600160a01b0382166200016c5760405162461bcd60e51b815260206004820152601d60248201527f5732453a20496e76616c696420747265617375727920616464726573730000006044820152606401620000b3565b50600b92909255600a80546001600160a01b039283166001600160a01b031991821617909155600d80549290931691161790555050662386f26fc10000600c55620004eb565b600980546001600160a01b038381166001600160a01b0319831681179093556040519116919082907f8be0079c531659141344cd1fd0a4f28419497f9722a3daafe3b4186f6b6457e090600090a35050565b634e487b7160e01b600052604160045260246000fd5b600082601f8301126200022c57600080fd5b81516001600160401b038082111562000249576200024962000204565b604051601f8301601f19908116603f0116810190828211818310171562000274576200027462000204565b816040528381526020925086838588010111156200029157600080fd5b600091505b83821015620002b5578582018301518183018401529082019062000296565b600093810190920192909252949350505050565b80516001600160a01b0381168114620002e157600080fd5b919050565b60008060008060008060c087890312156200030057600080fd5b86516001600160401b03808211156200031857600080fd5b620003268a838b016200021a565b975060208901519150808211156200033d57600080fd5b506200034c89828a016200021a565b955050604087015193506200036460608801620002c9565b92506200037460808801620002c9565b91506200038460a08801620002c9565b90509295509295509295565b600181811c90821680620003a557607f821691505b602082108103620003c657634e487b7160e01b600052602260045260246000fd5b50919050565b601f8211156200041a57600081815260208120601f850160051c81016020861015620003f55750805b601f850160051c820191505b81811015620004165782815560010162000401565b5050505b505050565b81516001600160401b038111156200043b576200043b62000204565b62000453816200044c845462000390565b84620003cc565b602080601f8311600181146200048b5760008415620004725750858301515b600019600386901b1c1916600185901b17855562000416565b600085815260208120601f198616915b82811015620004bc578886015182559484019460019091019084016200049b565b5085821015620004db5787850151600019600388901b60f8161c191681555b5050505050600190811b01905550565b61198380620004fb6000396000f3fe6080604052600436106101cd5760003560e01c80638da5cb5b116100f7578063c87b56dd11610095578063e985e9c511610064578063e985e9c5146104d0578063ee14ca81146104f0578063f2fde38b14610503578063f58351ce1461052357600080fd5b8063c87b56dd14610465578063d5abeb0114610485578063da0239a61461049b578063e6496fd7146104b057600080fd5b8063a22cb465116100d1578063a22cb465146103fd578063a2309ff81461041d578063b88d4fde14610432578063c5f956af1461044557600080fd5b80638da5cb5b146103aa57806395d89b41146103c85780639ab24eb0146103dd57600080fd5b806340010a7e1161016f5780636352211e1161013e5780636352211e146103355780636605bfda1461035557806370a0823114610375578063715018a61461039557600080fd5b806340010a7e146102cc57806342842e0e146102e257806345afae15146102f55780635d090cde1461031557600080fd5b8063081812fc116101ab578063081812fc14610261578063095ea7b31461028157806318160ddd1461029657806323b872dd146102b957600080fd5b806301ffc9a7146101d2578063025f77cb1461020757806306fdde031461023f575b600080fd5b3480156101de57600080fd5b506101f26101ed366004611567565b610543565b60405190151581526020015b60405180910390f35b34801561021357600080fd5b50600a54610227906001600160a01b031681565b6040516001600160a01b0390911681526020016101fe565b34801561024b57600080fd5b50610254610595565b6040516101fe91906115db565b34801561026d57600080fd5b5061022761027c3660046115ee565b610627565b61029461028f36600461161e565b610662565b005b3480156102a257600080fd5b506102ab610672565b6040519081526020016101fe565b6102946102c7366004611648565b610691565b3480156102d857600080fd5b506102ab600c5481565b6102946102f0366004611648565b6107f6565b34801561030157600080fd5b50610294610310366004611684565b610816565b34801561032157600080fd5b5061029461033036600461161e565b6108cb565b34801561034157600080fd5b506102276103503660046115ee565b610a2b565b34801561036157600080fd5b50610294610370366004611684565b610a36565b34801561038157600080fd5b506102ab610390366004611684565b610ae6565b3480156103a157600080fd5b50610294610b2c565b3480156103b657600080fd5b506009546001600160a01b0316610227565b3480156103d457600080fd5b50610254610b40565b3480156103e957600080fd5b506102ab6103f8366004611684565b610b4f565b34801561040957600080fd5b5061029461041836600461169f565b610b5a565b34801561042957600080fd5b506102ab610bc6565b6102946104403660046116f1565b610bd5565b34801561045157600080fd5b50600d54610227906001600160a01b031681565b34801561047157600080fd5b506102546104803660046115ee565b610c16565b34801561049157600080fd5b506102ab600b5481565b3480156104a757600080fd5b506102ab610c9c565b3480156104bc57600080fd5b506102946104cb3660046115ee565b610cb3565b3480156104dc57600080fd5b506101f26104eb3660046117cd565b610cc0565b6102946104fe3660046115ee565b610cee565b34801561050f57600080fd5b5061029461051e366004611684565b610ee3565b34801561052f57600080fd5b506101f261053e366004611684565b610f5c565b60006301ffc9a760e01b6001600160e01b03198316148061057457506380ac58cd60e01b6001600160e01b03198316145b8061058f5750635b5e139f60e01b6001600160e01b03198316145b92915050565b6060600280546105a490611800565b80601f01602080910402602001604051908101604052809291908181526020018280546105d090611800565b801561061d5780601f106105f25761010080835404028352916020019161061d565b820191906000526020600020905b81548152906001019060200180831161060057829003601f168201915b5050505050905090565b600061063282610f6f565b610646576106466333d1c03960e21b610fbd565b506000908152600660205260409020546001600160a01b031690565b61066e82826001610fc7565b5050565b60006001805460005403039050600019805b1461068e57600854015b90565b600061069c8261106a565b6001600160a01b0394851694909150811684146106c2576106c262a1148160e81b610fbd565b60008281526006602052604090208054338082146001600160a01b03881690911417610706576106f28633610cc0565b61070657610706632ce44b5f60e11b610fbd565b801561071157600082555b6001600160a01b038681166000908152600560205260408082208054600019019055918716808252919020805460010190554260a01b17600160e11b17600085815260046020526040812091909155600160e11b841690036107a3576001840160008181526004602052604081205490036107a15760005481146107a15760008181526004602052604090208490555b505b6001600160a01b0385168481887fddf252ad1be2c89b69c2b068fc378daa952ba7f163c4a11628f55a4df523b3ef600080a4806000036107ed576107ed633a954ecd60e21b610fbd565b50505050505050565b61081183838360405180602001604052806000815250610bd5565b505050565b61081e61110b565b6001600160a01b0381166108795760405162461bcd60e51b815260206004820152601b60248201527f5732453a20496e76616c6964206f7261636c652061646472657373000000000060448201526064015b60405180910390fd5b600a80546001600160a01b038381166001600160a01b0319831681179093556040519116919082907f078c3b417dadf69374a59793b829c52001247130433427049317bde56607b1b790600090a35050565b600a546001600160a01b031633146109255760405162461bcd60e51b815260206004820152601760248201527f5732453a204e6f742050616e646f7261204f7261636c650000000000000000006044820152606401610870565b600081610930611165565b61093a9190611850565b9050600b548111156109885760405162461bcd60e51b815260206004820152601760248201527615cc914e8813585e081cdd5c1c1b1e481c995858da1959604a1b6044820152606401610870565b6001600160a01b0383166109d75760405162461bcd60e51b815260206004820152601660248201527515cc914e88125b9d985b1a59081c9958da5c1a595b9d60521b6044820152606401610870565b6109e18383611175565b60408051838152602081018390526001600160a01b038516917f1b34d8487a319bb4bc294237f5de72c2c7f3a373fb8ffea7ecdf5fba22ad950e91015b60405180910390a2505050565b600061058f8261106a565b610a3e61110b565b6001600160a01b038116610a945760405162461bcd60e51b815260206004820152601d60248201527f5732453a20496e76616c696420747265617375727920616464726573730000006044820152606401610870565b600d80546001600160a01b038381166001600160a01b0319831681179093556040519116919082907f4ab5be82436d353e61ca18726e984e561f5c1cc7c6d38b29d2553c790434705a90600090a35050565b60006001600160a01b038216610b0657610b066323d3ad8160e21b610fbd565b506001600160a01b031660009081526005602052604090205467ffffffffffffffff1690565b610b3461110b565b610b3e600061118f565b565b6060600380546105a490611800565b600061058f82610ae6565b3360008181526007602090815260408083206001600160a01b03871680855290835292819020805460ff191686151590811790915590519081529192917f17307eab39ab6107e8899845ad3d59bd9653f200f220920489ca2b5937696c31910160405180910390a35050565b6000610bd0611165565b905090565b610be0848484610691565b6001600160a01b0383163b15610c1057610bfc848484846111e1565b610c1057610c106368d2bf6b60e11b610fbd565b50505050565b6060610c2182610f6f565b610c6d5760405162461bcd60e51b815260206004820152601960248201527f5732453a20546f6b656e20646f6573206e6f74206578697374000000000000006044820152606401610870565b610c76826112c3565b604051602001610c869190611863565b6040516020818303038152906040529050919050565b6000610ca6611165565b600b54610bd091906118b2565b610cbb61110b565b600c55565b6001600160a01b03918216600090815260076020908152604080832093909416825291909152205460ff1690565b60008111610d3e5760405162461bcd60e51b815260206004820152601e60248201527f5732453a205175616e74697479206d75737420626520706f73697469766500006044820152606401610870565b80600c54610d4c91906118c5565b341015610d9b5760405162461bcd60e51b815260206004820152601960248201527f5732453a20496e73756666696369656e74207061796d656e74000000000000006044820152606401610870565b600081610da6611165565b610db09190611850565b9050600b54811115610dfe5760405162461bcd60e51b815260206004820152601760248201527615cc914e8813585e081cdd5c1c1b1e481c995858da1959604a1b6044820152606401610870565b610e083383611175565b600d546040516000916001600160a01b03169034908381818185875af1925050503d8060008114610e55576040519150601f19603f3d011682016040523d82523d6000602084013e610e5a565b606091505b5050905080610eab5760405162461bcd60e51b815260206004820152601d60248201527f5732453a205472656173757279207472616e73666572206661696c65640000006044820152606401610870565b604080518481526020810184905233917f1b34d8487a319bb4bc294237f5de72c2c7f3a373fb8ffea7ecdf5fba22ad950e9101610a1e565b610eeb61110b565b6001600160a01b038116610f505760405162461bcd60e51b815260206004820152602660248201527f4f776e61626c653a206e6577206f776e657220697320746865207a65726f206160448201526564647265737360d01b6064820152608401610870565b610f598161118f565b50565b600080610f6883610ae6565b1192915050565b600081600111610fb857600054821015610fb85760005b5060008281526004602052604081205490819003610fae57610fa7836118dc565b9250610f86565b600160e01b161590505b919050565b8060005260046000fd5b6000610fd283610a2b565b9050818015610fea5750336001600160a01b03821614155b1561100d57610ff98133610cc0565b61100d5761100d6367d9dca160e11b610fbd565b60008381526006602052604080822080546001600160a01b0319166001600160a01b0388811691821790925591518693918516917f8c5be1e5ebec7d5bd14f71427d1e84f3dd0314c0f7b2291e5b200ac8c7c3b92591a450505050565b6000816001116110fb5750600081815260046020526040902054806000036110e85760005482106110a5576110a5636f96cda160e11b610fbd565b5b506000190160008181526004602052604090205480156110a657600160e01b81166000036110d357919050565b6110e3636f96cda160e11b610fbd565b6110a6565b600160e01b81166000036110fb57919050565b610fb8636f96cda160e11b610fbd565b6009546001600160a01b03163314610b3e5760405162461bcd60e51b815260206004820181905260248201527f4f776e61626c653a2063616c6c6572206973206e6f7420746865206f776e65726044820152606401610870565b6000546000199081019080610684565b61066e828260405180602001604052806000815250611356565b600980546001600160a01b038381166001600160a01b0319831681179093556040519116919082907f8be0079c531659141344cd1fd0a4f28419497f9722a3daafe3b4186f6b6457e090600090a35050565b604051630a85bd0160e11b81526000906001600160a01b0385169063150b7a02906112169033908990889088906004016118f3565b6020604051808303816000875af1925050508015611251575060408051601f3d908101601f1916820190925261124e91810190611930565b60015b6112a6573d80801561127f576040519150601f19603f3d011682016040523d82523d6000602084013e611284565b606091505b50805160000361129e5761129e6368d2bf6b60e11b610fbd565b805181602001fd5b6001600160e01b031916630a85bd0160e11b149050949350505050565b606060006112d0836113ba565b600101905060008167ffffffffffffffff8111156112f0576112f06116db565b6040519080825280601f01601f19166020018201604052801561131a576020820181803683370190505b5090508181016020015b600019016f181899199a1a9b1b9c1cb0b131b232b360811b600a86061a8153600a850494508461132457509392505050565b6113608383611492565b6001600160a01b0383163b15610811576000548281035b61138a60008683806001019450866111e1565b61139e5761139e6368d2bf6b60e11b610fbd565b8181106113775781600054146113b357600080fd5b5050505050565b60008072184f03e93ff9f4daa797ed6e38ed64bf6a1f0160401b83106113f95772184f03e93ff9f4daa797ed6e38ed64bf6a1f0160401b830492506040015b6d04ee2d6d415b85acef81000000008310611425576d04ee2d6d415b85acef8100000000830492506020015b662386f26fc10000831061144357662386f26fc10000830492506010015b6305f5e100831061145b576305f5e100830492506008015b612710831061146f57612710830492506004015b60648310611481576064830492506002015b600a831061058f5760010192915050565b60008054908290036114ae576114ae63b562e8dd60e01b610fbd565b60008181526004602090815260408083206001600160a01b0387164260a01b6001881460e11b1781179091558084526005909252822080546801000000000000000186020190559081900361150c5761150c622e076360e81b610fbd565b818301825b808360007fddf252ad1be2c89b69c2b068fc378daa952ba7f163c4a11628f55a4df523b3ef600080a4818160010191508103611511575060005550505050565b6001600160e01b031981168114610f5957600080fd5b60006020828403121561157957600080fd5b813561158481611551565b9392505050565b60005b838110156115a657818101518382015260200161158e565b50506000910152565b600081518084526115c781602086016020860161158b565b601f01601f19169290920160200192915050565b60208152600061158460208301846115af565b60006020828403121561160057600080fd5b5035919050565b80356001600160a01b0381168114610fb857600080fd5b6000806040838503121561163157600080fd5b61163a83611607565b946020939093013593505050565b60008060006060848603121561165d57600080fd5b61166684611607565b925061167460208501611607565b9150604084013590509250925092565b60006020828403121561169657600080fd5b61158482611607565b600080604083850312156116b257600080fd5b6116bb83611607565b9150602083013580151581146116d057600080fd5b809150509250929050565b634e487b7160e01b600052604160045260246000fd5b6000806000806080858703121561170757600080fd5b61171085611607565b935061171e60208601611607565b925060408501359150606085013567ffffffffffffffff8082111561174257600080fd5b818701915087601f83011261175657600080fd5b813581811115611768576117686116db565b604051601f8201601f19908116603f01168101908382118183101715611790576117906116db565b816040528281528a60208487010111156117a957600080fd5b82602086016020830137600060208483010152809550505050505092959194509250565b600080604083850312156117e057600080fd5b6117e983611607565b91506117f760208401611607565b90509250929050565b600181811c9082168061181457607f821691505b60208210810361183457634e487b7160e01b600052602260045260246000fd5b50919050565b634e487b7160e01b600052601160045260246000fd5b8082018082111561058f5761058f61183a565b7f68747470733a2f2f6170692e70616e646f7261732e636f6d2f6c6963656e73658152602f60f81b6020820152600082516118a581602185016020870161158b565b9190910160210192915050565b8181038181111561058f5761058f61183a565b808202811582820484141761058f5761058f61183a565b6000816118eb576118eb61183a565b506000190190565b6001600160a01b0385811682528416602082015260408101839052608060608201819052600090611926908301846115af565b9695505050505050565b60006020828403121561194257600080fd5b81516115848161155156fea26469706673582212207096462f54a91627aa2e1ec458d4c5665a63583f65979465d8ea04ed88070c7564736f6c63430008140033",
  "linkReferences": {},
  "deployedLinkReferences": {}
}