{
  "_format": "hh-sol-artifact-1",
  "contractName": "ModularFactory",
  "sourceName": "contracts/core/ModularFactory.sol",
  "abi": [
    {
      "inputs": [
        {
          "internalType": "address",
          "name": "_pboxToken",
          "type": "address"
        },
        {
          "internalType": "address",
          "name": "_pandoraKey",
          "type": "address"
        },
        {
          "internalType": "address",
          "name": "_rootTreasury",
          "type": "address"
        },
        {
          "internalType": "address",
          "name": "_pandoraOracle",
          "type": "address"
        },
        {
          "internalType": "address",
          "name": "initialOwner",
          "type": "address"
        }
      ],
      "stateMutability": "nonpayable",
      "type": "constructor"
    },
    {
      "anonymous": false,
      "inputs": [
        {
          "indexed": true,
          "internalType": "string",
          "name": "slug",
          "type": "string"
        },
        {
          "indexed": false,
          "internalType": "uint256",
          "name": "activationTime",
          "type": "uint256"
        }
      ],
      "name": "CreationActivated",
      "type": "event"
    },
    {
      "anonymous": false,
      "inputs": [
        {
          "indexed": true,
          "internalType": "string",
          "name": "slug",
          "type": "string"
        },
        {
          "indexed": true,
          "internalType": "address",
          "name": "creator",
          "type": "address"
        },
        {
          "components": [
            {
              "internalType": "address",
              "name": "treasury",
              "type": "address"
            },
            {
              "internalType": "address",
              "name": "loom",
              "type": "address"
            },
            {
              "internalType": "address",
              "name": "governor",
              "type": "address"
            },
            {
              "internalType": "address",
              "name": "timelock",
              "type": "address"
            }
          ],
          "indexed": false,
          "internalType": "struct ModularFactory.ContractAddresses",
          "name": "addresses",
          "type": "tuple"
        },
        {
          "indexed": false,
          "internalType": "uint256",
          "name": "initialCapital",
          "type": "uint256"
        }
      ],
      "name": "CreationDeployed",
      "type": "event"
    },
    {
      "anonymous": false,
      "inputs": [
        {
          "indexed": true,
          "internalType": "string",
          "name": "slug",
          "type": "string"
        },
        {
          "indexed": false,
          "internalType": "string",
          "name": "reason",
          "type": "string"
        }
      ],
      "name": "CreationPaused",
      "type": "event"
    },
    {
      "anonymous": false,
      "inputs": [
        {
          "indexed": true,
          "internalType": "string",
          "name": "slug",
          "type": "string"
        }
      ],
      "name": "CreationResumed",
      "type": "event"
    },
    {
      "anonymous": false,
      "inputs": [
        {
          "indexed": false,
          "internalType": "uint256",
          "name": "oldFee",
          "type": "uint256"
        },
        {
          "indexed": false,
          "internalType": "uint256",
          "name": "newFee",
          "type": "uint256"
        }
      ],
      "name": "DeploymentFeeUpdated",
      "type": "event"
    },
    {
      "anonymous": false,
      "inputs": [
        {
          "indexed": true,
          "internalType": "address",
          "name": "previousOwner",
          "type": "address"
        },
        {
          "indexed": true,
          "internalType": "address",
          "name": "newOwner",
          "type": "address"
        }
      ],
      "name": "OwnershipTransferred",
      "type": "event"
    },
    {
      "anonymous": false,
      "inputs": [
        {
          "indexed": false,
          "internalType": "address",
          "name": "account",
          "type": "address"
        }
      ],
      "name": "Paused",
      "type": "event"
    },
    {
      "anonymous": false,
      "inputs": [
        {
          "indexed": false,
          "internalType": "address",
          "name": "account",
          "type": "address"
        }
      ],
      "name": "Unpaused",
      "type": "event"
    },
    {
      "inputs": [
        {
          "internalType": "string",
          "name": "slug",
          "type": "string"
        }
      ],
      "name": "activateCreation",
      "outputs": [],
      "stateMutability": "nonpayable",
      "type": "function"
    },
    {
      "inputs": [
        {
          "internalType": "uint256",
          "name": "initialCapital",
          "type": "uint256"
        }
      ],
      "name": "calculateDeploymentCost",
      "outputs": [
        {
          "internalType": "uint256",
          "name": "deploymentFee_",
          "type": "uint256"
        },
        {
          "internalType": "uint256",
          "name": "initialCapital_",
          "type": "uint256"
        },
        {
          "internalType": "uint256",
          "name": "totalCost",
          "type": "uint256"
        }
      ],
      "stateMutability": "view",
      "type": "function"
    },
    {
      "inputs": [
        {
          "internalType": "string",
          "name": "",
          "type": "string"
        }
      ],
      "name": "creationAddresses",
      "outputs": [
        {
          "internalType": "address",
          "name": "treasury",
          "type": "address"
        },
        {
          "internalType": "address",
          "name": "loom",
          "type": "address"
        },
        {
          "internalType": "address",
          "name": "governor",
          "type": "address"
        },
        {
          "internalType": "address",
          "name": "timelock",
          "type": "address"
        }
      ],
      "stateMutability": "view",
      "type": "function"
    },
    {
      "inputs": [
        {
          "internalType": "string",
          "name": "",
          "type": "string"
        }
      ],
      "name": "creations",
      "outputs": [
        {
          "internalType": "string",
          "name": "slug",
          "type": "string"
        },
        {
          "internalType": "string",
          "name": "name",
          "type": "string"
        },
        {
          "internalType": "address",
          "name": "creator",
          "type": "address"
        },
        {
          "internalType": "uint256",
          "name": "deployedAt",
          "type": "uint256"
        },
        {
          "internalType": "uint256",
          "name": "initialCapital",
          "type": "uint256"
        },
        {
          "internalType": "bool",
          "name": "active",
          "type": "bool"
        },
        {
          "internalType": "uint256",
          "name": "totalFeesCollected",
          "type": "uint256"
        }
      ],
      "stateMutability": "view",
      "type": "function"
    },
    {
      "inputs": [
        {
          "internalType": "uint256",
          "name": "",
          "type": "uint256"
        }
      ],
      "name": "creationsPerDay",
      "outputs": [
        {
          "internalType": "uint256",
          "name": "",
          "type": "uint256"
        }
      ],
      "stateMutability": "view",
      "type": "function"
    },
    {
      "inputs": [
        {
          "components": [
            {
              "internalType": "string",
              "name": "slug",
              "type": "string"
            },
            {
              "internalType": "string",
              "name": "name",
              "type": "string"
            },
            {
              "internalType": "uint256",
              "name": "targetAmount",
              "type": "uint256"
            },
            {
              "internalType": "uint256",
              "name": "creatorPayoutPct",
              "type": "uint256"
            },
            {
              "internalType": "uint256",
              "name": "quorumPercentage",
              "type": "uint256"
            },
            {
              "internalType": "uint256",
              "name": "votingPeriodHours",
              "type": "uint256"
            },
            {
              "internalType": "address[]",
              "name": "treasurySigners",
              "type": "address[]"
            },
            {
              "internalType": "uint256",
              "name": "initialCapital",
              "type": "uint256"
            }
          ],
          "internalType": "struct ModularFactory.DeploymentConfig",
          "name": "config",
          "type": "tuple"
        }
      ],
      "name": "deployProtocolStack",
      "outputs": [
        {
          "components": [
            {
              "internalType": "address",
              "name": "treasury",
              "type": "address"
            },
            {
              "internalType": "address",
              "name": "loom",
              "type": "address"
            },
            {
              "internalType": "address",
              "name": "governor",
              "type": "address"
            },
            {
              "internalType": "address",
              "name": "timelock",
              "type": "address"
            }
          ],
          "internalType": "struct ModularFactory.ContractAddresses",
          "name": "addresses",
          "type": "tuple"
        }
      ],
      "stateMutability": "payable",
      "type": "function"
    },
    {
      "inputs": [],
      "name": "deploymentFee",
      "outputs": [
        {
          "internalType": "uint256",
          "name": "",
          "type": "uint256"
        }
      ],
      "stateMutability": "view",
      "type": "function"
    },
    {
      "inputs": [],
      "name": "emergencyPause",
      "outputs": [],
      "stateMutability": "nonpayable",
      "type": "function"
    },
    {
      "inputs": [],
      "name": "emergencyResume",
      "outputs": [],
      "stateMutability": "nonpayable",
      "type": "function"
    },
    {
      "inputs": [
        {
          "internalType": "string",
          "name": "slug",
          "type": "string"
        }
      ],
      "name": "getCreation",
      "outputs": [
        {
          "components": [
            {
              "internalType": "string",
              "name": "slug",
              "type": "string"
            },
            {
              "internalType": "string",
              "name": "name",
              "type": "string"
            },
            {
              "internalType": "address",
              "name": "creator",
              "type": "address"
            },
            {
              "internalType": "uint256",
              "name": "deployedAt",
              "type": "uint256"
            },
            {
              "internalType": "uint256",
              "name": "initialCapital",
              "type": "uint256"
            },
            {
              "internalType": "bool",
              "name": "active",
              "type": "bool"
            },
            {
              "internalType": "uint256",
              "name": "totalFeesCollected",
              "type": "uint256"
            }
          ],
          "internalType": "struct ModularFactory.CreationInfo",
          "name": "info",
          "type": "tuple"
        },
        {
          "components": [
            {
              "internalType": "address",
              "name": "treasury",
              "type": "address"
            },
            {
              "internalType": "address",
              "name": "loom",
              "type": "address"
            },
            {
              "internalType": "address",
              "name": "governor",
              "type": "address"
            },
            {
              "internalType": "address",
              "name": "timelock",
              "type": "address"
            }
          ],
          "internalType": "struct ModularFactory.ContractAddresses",
          "name": "addresses",
          "type": "tuple"
        }
      ],
      "stateMutability": "view",
      "type": "function"
    },
    {
      "inputs": [],
      "name": "getFactoryMetrics",
      "outputs": [
        {
          "internalType": "uint256",
          "name": "totalCreations_",
          "type": "uint256"
        },
        {
          "internalType": "uint256",
          "name": "activeCreations",
          "type": "uint256"
        },
        {
          "internalType": "uint256",
          "name": "pausedCreations",
          "type": "uint256"
        },
        {
          "internalType": "uint256",
          "name": "todayCreations",
          "type": "uint256"
        }
      ],
      "stateMutability": "view",
      "type": "function"
    },
    {
      "inputs": [
        {
          "internalType": "string",
          "name": "slug",
          "type": "string"
        }
      ],
      "name": "isSlugAvailable",
      "outputs": [
        {
          "internalType": "bool",
          "name": "",
          "type": "bool"
        }
      ],
      "stateMutability": "view",
      "type": "function"
    },
    {
      "inputs": [],
      "name": "maxCreationsPerDay",
      "outputs": [
        {
          "internalType": "uint256",
          "name": "",
          "type": "uint256"
        }
      ],
      "stateMutability": "view",
      "type": "function"
    },
    {
      "inputs": [],
      "name": "minInitialCapital",
      "outputs": [
        {
          "internalType": "uint256",
          "name": "",
          "type": "uint256"
        }
      ],
      "stateMutability": "view",
      "type": "function"
    },
    {
      "inputs": [],
      "name": "owner",
      "outputs": [
        {
          "internalType": "address",
          "name": "",
          "type": "address"
        }
      ],
      "stateMutability": "view",
      "type": "function"
    },
    {
      "inputs": [],
      "name": "pandoraKey",
      "outputs": [
        {
          "internalType": "address",
          "name": "",
          "type": "address"
        }
      ],
      "stateMutability": "view",
      "type": "function"
    },
    {
      "inputs": [],
      "name": "pandoraOracle",
      "outputs": [
        {
          "internalType": "address",
          "name": "",
          "type": "address"
        }
      ],
      "stateMutability": "view",
      "type": "function"
    },
    {
      "inputs": [
        {
          "internalType": "string",
          "name": "slug",
          "type": "string"
        },
        {
          "internalType": "string",
          "name": "reason",
          "type": "string"
        }
      ],
      "name": "pauseCreation",
      "outputs": [],
      "stateMutability": "nonpayable",
      "type": "function"
    },
    {
      "inputs": [],
      "name": "paused",
      "outputs": [
        {
          "internalType": "bool",
          "name": "",
          "type": "bool"
        }
      ],
      "stateMutability": "view",
      "type": "function"
    },
    {
      "inputs": [],
      "name": "pboxToken",
      "outputs": [
        {
          "internalType": "address payable",
          "name": "",
          "type": "address"
        }
      ],
      "stateMutability": "view",
      "type": "function"
    },
    {
      "inputs": [],
      "name": "renounceOwnership",
      "outputs": [],
      "stateMutability": "nonpayable",
      "type": "function"
    },
    {
      "inputs": [
        {
          "internalType": "string",
          "name": "slug",
          "type": "string"
        }
      ],
      "name": "resumeCreation",
      "outputs": [],
      "stateMutability": "nonpayable",
      "type": "function"
    },
    {
      "inputs": [],
      "name": "rootTreasury",
      "outputs": [
        {
          "internalType": "address",
          "name": "",
          "type": "address"
        }
      ],
      "stateMutability": "view",
      "type": "function"
    },
    {
      "inputs": [],
      "name": "totalCreations",
      "outputs": [
        {
          "internalType": "uint256",
          "name": "",
          "type": "uint256"
        }
      ],
      "stateMutability": "view",
      "type": "function"
    },
    {
      "inputs": [
        {
          "internalType": "address",
          "name": "newOwner",
          "type": "address"
        }
      ],
      "name": "transferOwnership",
      "outputs": [],
      "stateMutability": "nonpayable",
      "type": "function"
    },
    {
      "inputs": [
        {
          "internalType": "address",
          "name": "newPBOXToken",
          "type": "address"
        },
        {
          "internalType": "address",
          "name": "newPandoraKey",
          "type": "address"
        },
        {
          "internalType": "address",
          "name": "newRootTreasury",
          "type": "address"
        },
        {
          "internalType": "address",
          "name": "newOracle",
          "type": "address"
        }
      ],
      "name": "updateCoreAddresses",
      "outputs": [],
      "stateMutability": "nonpayable",
      "type": "function"
    },
    {
      "inputs": [
        {
          "internalType": "uint256",
          "name": "newFee",
          "type": "uint256"
        }
      ],
      "name": "updateDeploymentFee",
      "outputs": [],
      "stateMutability": "nonpayable",
      "type": "function"
    },
    {
      "inputs": [
        {
          "internalType": "uint256",
          "name": "newMinCapital",
          "type": "uint256"
        },
        {
          "internalType": "uint256",
          "name": "newMaxCreationsPerDay",
          "type": "uint256"
        }
      ],
      "name": "updateDeploymentLimits",
      "outputs": [],
      "stateMutability": "nonpayable",
      "type": "function"
    },
    {
      "stateMutability": "payable",
      "type": "receive"
    }
  ],
  "bytecode": "0x6080346200032757601f6200b31038819003918201601f191683019291906001600160401b038411838510176200032c578160a092849260409687528339810103126200032757620000518162000342565b6020906200006182840162000342565b906200006f85850162000342565b6200008b6080620000836060880162000342565b960162000342565b94620000973362000357565b60018055600254662386f26fc10000600655670de0b6b3a7640000600755600a6008556001600160a01b039484861615620002e35785169283156200029f5785169182156200025b5785169384156200021757610100600160a81b039060081b169060018060a81b0319161760025560018060a01b031991826003541617600355816004541617600455600554161760055580831690811591821590816200020b575b5062000150575b845161af7190816200039f8239f35b33906000541603620001c9576200017757506200016d9062000357565b3880808062000141565b60849083519062461bcd60e51b82526004820152602660248201527f4f776e61626c653a206e6577206f776e657220697320746865207a65726f206160448201526564647265737360d01b6064820152fd5b60648285519062461bcd60e51b825280600483015260248201527f4f776e61626c653a2063616c6c6572206973206e6f7420746865206f776e65726044820152fd5b9050331415386200013a565b885162461bcd60e51b815260048101889052601760248201527f466163746f72793a20496e76616c6964206f7261636c650000000000000000006044820152606490fd5b885162461bcd60e51b815260048101889052601e60248201527f466163746f72793a20496e76616c696420726f6f7420747265617375727900006044820152606490fd5b885162461bcd60e51b815260048101889052601c60248201527f466163746f72793a20496e76616c69642050616e646f7261204b6579000000006044820152606490fd5b885162461bcd60e51b815260048101889052601b60248201527f466163746f72793a20496e76616c69642050424f5820746f6b656e00000000006044820152606490fd5b600080fd5b634e487b7160e01b600052604160045260246000fd5b51906001600160a01b03821682036200032757565b600080546001600160a01b039283166001600160a01b03198216811783559216907f8be0079c531659141344cd1fd0a4f28419497f9722a3daafe3b4186f6b6457e09080a356fe60808060405260043610156200001f575b5036156200001d57600080fd5b005b600090813560e01c908163025f77cb1462001fed575080632057a7d11462001f895780632411673e1462001dc8578063250d88f31462001bfb578063263ad1bd1462001b4c578063298d81851462001b21578063359ff023146200194657806341b3977a1462000a5157806349611de71462000a31578063499200db14620009d75780634abefaac146200081a5780634b25c34b14620007a957806351858e2714620007485780635310ffca14620007285780635c975abb14620007035780636fcaf4a11462000574578063715018a61462000516578063719206dc14620004515780638397536814620004255780638da5cb5b14620003fc57806391a99e8814620003d157806393c87f0314620003375780639e13bc9c1462000317578063a17634aa14620002e8578063abf0c8b514620002a3578063ec0f3b681462000267578063f2cff57f14620002475763f2fde38b036200001057346200024457602036600319011262000244576200019562002288565b6200019f6200229f565b6001600160a01b03908116908115620001f057600054826001600160601b0360a01b821617600055167f8be0079c531659141344cd1fd0a4f28419497f9722a3daafe3b4186f6b6457e0600080a380f35b60405162461bcd60e51b815260206004820152602660248201527f4f776e61626c653a206e6577206f776e657220697320746865207a65726f206160448201526564647265737360d01b6064820152608490fd5b80fd5b503462000244578060031936011262000244576020600654604051908152f35b50346200024457602036600319011262000244576060600435600654906200029081836200231f565b9060405192835260208301526040820152f35b50346200024457806003193601126200024457608090600954906201518042048152600a60205260408120549060405192808452602084015260408301526060820152f35b5034620002445780600319360112620002445760025460405160089190911c6001600160a01b03168152602090f35b503462000244578060031936011262000244576020600754604051908152f35b50346200024457806003193601126200024457620003546200229f565b60025460ff811615620003955760ff19166002557f5db9ee0a495bf2e6ff9c91a7834c1ba4fdd244a5e8aa4e537bd38aeae4b073aa6020604051338152a180f35b60405162461bcd60e51b815260206004820152601460248201527314185d5cd8589b194e881b9bdd081c185d5cd95960621b6044820152606490fd5b503462000244578060031936011262000244576004546040516001600160a01b039091168152602090f35b50346200024457806003193601126200024457546040516001600160a01b039091168152602090f35b503462000244576020366003190112620002445760406020916004358152600a83522054604051908152f35b5034620002445760403660031901126200024457602435600435620004756200229f565b8015620004d15781156200048c5760075560085580f35b60405162461bcd60e51b815260206004820152601e60248201527f466163746f72793a20496e76616c6964206d6178206372656174696f6e7300006044820152606490fd5b60405162461bcd60e51b815260206004820152601c60248201527f466163746f72793a20496e76616c6964206d696e206361706974616c000000006044820152606490fd5b50346200024457806003193601126200024457620005336200229f565b600080546001600160a01b0319811682556001600160a01b03167f8be0079c531659141344cd1fd0a4f28419497f9722a3daafe3b4186f6b6457e08280a380f35b50346200024457602036600319011262000244576004356001600160401b038111620006ff57620005aa90369060040162002014565b90620005b56200229f565b82620005d560405184848237602081868101600c81520301902062002495565b6020810180516001600160a01b03918291620005f5908316151562002448565b511691823b15620006f057604051848160048183631fa5d41d60e11b988983525af1908115620006f4578591620006d8575b5050511690813b15620006c957829160048392604051948593849283525af18015620006cd57620006b1575b5050600560405183838237602081858101600b81520301902001600160ff198254161790558160405192839283378101600081520390207f45a00909320cd27fc4cae75472d839987cef7c59d8db14960b26d101c5c0d1468280a280f35b620006bc9062002090565b620006c957823862000653565b8280fd5b6040513d84823e3d90fd5b620006e39062002090565b620006f057833862000627565b8380fd5b6040513d87823e3d90fd5b5080fd5b50346200024457806003193601126200024457602060ff600254166040519015158152f35b503462000244578060031936011262000244576020600854604051908152f35b50346200024457806003193601126200024457620007656200229f565b6200076f620023f3565b600160ff1960025416176002557f62e78cea01bee320cd4e420270b5ea74000d11b0c9f74754ebdbfc544b05a2586020604051338152a180f35b503462000244576080620007d76020620007c33662002156565b816040519382858094519384920162002044565b8101600c81520301902060018060a01b03808254169181600182015416916003816002840154169201541691604051938452602084015260408301526060820152f35b50346200024457602080600319360112620006ff576004356001600160401b038111620006c9576200085190369060040162002014565b604051818382378381838101600b81520301902091600560018060a01b03936200088385600283015416151562002448565b019260ff84541662000992578590620008af604051858582378781878101600c81520301902062002495565b9080878301511691823b15620006f05760405184816004818363e362578760e01b988983525af1908115620006f45785916200097a575b5050511690813b15620006c957829160048392604051948593849283525af18015620006cd576200095e575b50507f9b42ae442918b9637624efca5ed9e481941e33f415bd612a1ab3c3bd622c8d0b92600160ff1982541617905581604051928392833781016000815203902091604051428152a280f35b620009699062002090565b6200097657843862000912565b8480fd5b620009859062002090565b620006f0578338620008e6565b60405162461bcd60e51b815260048101869052601760248201527f466163746f72793a20416c7265616479206163746976650000000000000000006044820152606490fd5b50346200024457602036600319011262000244577fbade80ae0982a2d3106c4f5afa708793d20a9d6441a6440011f99e9f69ad5f3c604060043562000a1b6200229f565b600654908060065582519182526020820152a180f35b503462000244578060031936011262000244576020600954604051908152f35b50600319602036820112620006ff576001600160401b0360043511620006ff576101009060043536030112620002445762000a8b620022f8565b506002600154146200190157600260015562000aa6620023f3565b62000abb60065460e46004350135906200231f565b3410620018bc5760075460e4600435013510620018775762000ae260048035018062002343565b9050156200183a5762000b0060246004350160043560040162002343565b905015620017fd5760326064600435013511620017b957600262000b2f60c46004350160043560040162002378565b9050106200177557600262000b4960048035018062002343565b604051929181908437600b90830190815282900360200190912001546001600160a01b031662001730576201518042048152600a60205260408120546008541115620016eb57604051908160408101106001600160401b03604084011117620016d55760408201604052600182526020368184013760018060a01b036005541691805115620016c15782602082015262000bee60c46004350160043560040162002378565b9360018060a01b03845416906040519384611fe68101106001600160401b03611fe687011117620016ad57611fe662008f568639610160611fe6860181815282519181018290526020909201916101800190875b8181106200168d57505060209150611fe68601810382611fe688010152878152019285965b8088106200165a575050611fe6840160408101919091526060810185905260016080820152600260a08201526004356044013560c08201819052601e60e0830152600a8104610100830152606490046101208201526101400152919250908190039082f08015620016115760035460043560a4013592906001600160a01b03168315610e10808602869004141715620016465760018060a01b038254166040519182611f568101106001600160401b03611f56850111176200163257611f56620024dc8439611f5683019081526001600160a01b038516602082015260043560840135604082015260646060820152610e10868102608083015260a082015260c081019190915281900360e0019082f092831562001611576005548254604051926001600160a01b03918216929091166001600160401b03614b248501908111908511176200161e5790610e1091614b24620044328639614b248501868152602081018790526001600160a01b038816604082018190526060820152608081019190915260a0810186905260c0810186905260646004359081013560e0830152608401356101008201819052919092026101208301526213c680610140830152610160820152610180810184905260146101a08201526101c08101919091526101e090829003019082f0928315620016115760025460081c6001600160a01b0316803b15620006c9576040516301a1bb6560e51b81526001600160a01b03861660048201529083908290602490829084905af18015620015ee57908391620015f9575b505060025460081c6001600160a01b0316803b15620006c9576040516301a1bb6560e51b81526001600160a01b03851660048201529083908290602490829084905af18015620015ee57908391620015d6575b5080808060043560e401356001600160a01b0388165af162000f1e620023b0565b5015620015805760405162000f3381620020c0565b6001600160a01b0384811682528581166020830152821660408201526060810183905260095462000f649062002438565b6009556201518042048352600a6020526040832062000f84815462002438565b905562000fda62000f9a60048035018062002343565b919062000fd062000fb660246004350160043560040162002343565b9190926040519562000fc887620020a4565b36916200211a565b845236916200211a565b602082015233604082015242606082015260e460043501356080820152600160a08201528360c082015260206200101c60043560040160043560040162002343565b91908260405193849283378101600b8152030190209080518051906001600160401b038211620014a057819062001054855462002199565b601f81116200152e575b50602090601f8311600114620014c0578892620014b4575b50508160011b916000199060031b1c19161782555b60208101518051906001600160401b038211620014a057620010b1600185015462002199565b601f811162001457575b50602090601f8311600114620013e05791806006949260c0948a92620013d4575b50508160011b916000199060031b1c19161760018501555b60018060a01b036040820151166001600160601b0360a01b60028601541617600285015560608101516003850155608081015160048501556005840160a0820151151560ff801983541691161790550151910155600360206200116260043560040160043560040162002343565b9190826040519384928337600c90820190815203019020825181546001600160a01b03199081166001600160a01b0392831617835560208501516001840180548316918416919091179055604085015160028401805483169184169190911790556060909401519290910180549093169181169190911790915560045460065484928392839283929091165af1620011f9620023b0565b50156200138f576200121f60e460043501356200121960065434620023e5565b620023e5565b806200132a575b50608093604051936200123985620020c0565b6001600160a01b039081168552908116602085015216604083015260608201526200126960048035018062002343565b9081604051928392833781016000815203902060405190620012b882846060908160018060a01b0391828151168552826020820151166020860152826040820151166040860152015116910152565b60e46004350135848301527f9e1563cf477962eedda98c0c91ea6b13d5cd3a4d2db4d1f9ae82bd38b726ea1d60a03393a3600180556200132860405180926060908160018060a01b0391828151168552826020820151166020860152826040820151166040860152015116910152565bf35b8280808093335af16200133c620023b0565b50156200134a573862001226565b60405162461bcd60e51b815260206004820152601d60248201527f466163746f72793a2045786365737320726566756e64206661696c65640000006044820152606490fd5b60405162461bcd60e51b815260206004820152601c60248201527f466163746f72793a20466565207472616e73666572206661696c6564000000006044820152606490fd5b015190503880620010dc565b906001850188526020882091885b601f19851681106200143e5750926006949260019260c09583601f1981161062001424575b505050811b016001850155620010f4565b015160001960f88460031b161c1916905538808062001413565b91926020600181928685015181550194019201620013ee565b60018501885260208820601f840160051c81016020851062001498575b601f830160051c820181106200148c575050620010bb565b89815560010162001474565b508062001474565b634e487b7160e01b87526041600452602487fd5b01519050388062001076565b9250848852602088209088935b601f198416851062001512576001945083601f19811610620014f8575b505050811b0182556200108b565b015160001960f88460031b161c19169055388080620014ea565b81810151835560209485019460019093019290910190620014cd565b90915084885260208820601f840160051c81016020851062001578575b90849392915b601f830160051c82018110620015695750506200105e565b8a815585945060010162001551565b50806200154b565b60405162461bcd60e51b815260206004820152602860248201527f466163746f72793a20455448207472616e7366657220746f20747265617375726044820152671e4819985a5b195960c21b6064820152608490fd5b620015e19062002090565b620006ff57813862000efd565b6040513d85823e3d90fd5b620016049062002090565b620006ff57813862000eaa565b50604051903d90823e3d90fd5b634e487b7160e01b85526041600452602485fd5b634e487b7160e01b84526041600452602484fd5b634e487b7160e01b82526011600452602482fd5b909384356001600160a01b038116919082900362001688576020816001938293520195019701969062000c67565b600080fd5b83516001600160a01b031683526020938401939092019160010162000c42565b634e487b7160e01b86526041600452602486fd5b634e487b7160e01b82526032600452602482fd5b634e487b7160e01b600052604160045260246000fd5b60405162461bcd60e51b815260206004820152601d60248201527f466163746f72793a204461696c79206c696d69742065786365656465640000006044820152606490fd5b60405162461bcd60e51b815260206004820152601c60248201527f466163746f72793a20536c756720616c726561647920657869737473000000006044820152606490fd5b606460405162461bcd60e51b815260206004820152602060248201527f466163746f72793a204e656564206174206c656173742032207369676e6572736044820152fd5b606460405162461bcd60e51b815260206004820152602060248201527f466163746f72793a2043726561746f72207061796f757420746f6f20686967686044820152fd5b60405162461bcd60e51b8152602060048201526015602482015274466163746f72793a20496e76616c6964206e616d6560581b6044820152606490fd5b60405162461bcd60e51b8152602060048201526015602482015274466163746f72793a20496e76616c696420736c756760581b6044820152606490fd5b60405162461bcd60e51b815260206004820152601e60248201527f466163746f72793a2042656c6f77206d696e696d756d206361706974616c00006044820152606490fd5b60405162461bcd60e51b815260206004820152601d60248201527f466163746f72793a20496e73756666696369656e74207061796d656e740000006044820152606490fd5b60405162461bcd60e51b815260206004820152601f60248201527f5265656e7472616e637947756172643a207265656e7472616e742063616c6c006044820152606490fd5b50346200024457608036600319011262000244576200196462002288565b6001600160a01b039060243582811691908290036200168857604435908382168092036200168857606435938085168095036200168857620019a56200229f565b81161562001adc57821562001a9757811562001a5257831562001a0d5760025490610100600160a81b039060081b1690610100600160a81b031916176002556001600160601b0360a01b91826003541617600355816004541617600455600554161760055580f35b60405162461bcd60e51b815260206004820152601760248201527f466163746f72793a20496e76616c6964206f7261636c650000000000000000006044820152606490fd5b60405162461bcd60e51b815260206004820152601e60248201527f466163746f72793a20496e76616c696420726f6f7420747265617375727900006044820152606490fd5b60405162461bcd60e51b815260206004820152601c60248201527f466163746f72793a20496e76616c69642050616e646f7261204b6579000000006044820152606490fd5b60405162461bcd60e51b815260206004820152601b60248201527f466163746f72793a20496e76616c69642050424f5820746f6b656e00000000006044820152606490fd5b503462000244578060031936011262000244576003546040516001600160a01b039091168152602090f35b5034620002445762001bcc62001b686020620007c33662002156565b8101600b81520301902062001b7d81620021d6565b9062001b8c60018201620021d6565b60018060a01b0360028301541691600381015460048201549062001bdb600660ff6005860154169401549460405198899860e08a5260e08a019062002069565b9088820360208a015262002069565b94604087015260608601526080850152151560a084015260c08301520390f35b50346200024457602080600319360112620006ff576004356001600160401b038111620006c9579162001dc462001c3a61018094369060040162002014565b909260c060405162001c4c81620020a4565b606081526060878201528260408201528260608201528260808201528260a0820152015262001c7a620022f8565b5083604051828582378181848101600b815203019020938260405193849283378101600c8152030190206040519362001cb385620020a4565b62001cbe84620021d6565b855262001cce60018501620021d6565b918186019283528560018060a01b03958660028201541696604083019788526003820154906060840191825262001d6762001d3260066004860154956080880196875260a060ff6005830154169801971515885201549660c08d0197885262002495565b9762001d53604051809e819e60a08352519160e060a0820152019062002069565b90518c8203609f190160c08e015262002069565b98511660e08a015251610100890152516101208801525115156101408701525161016086015281516001600160a01b0390811691860191825260208084015182169083015260408084015182169083015260609283015116910152565b0390f35b50346200024457604036600319011262000244576001600160401b03600435818111620006c95762001dff90369060040162002014565b9091602435908111620006f05762001e1c90369060040162002014565b909262001e286200229f565b62001e4760405184838237602081868101600c81520301902062002495565b6020810180516001600160a01b0391829162001e67908316151562002448565b511691823b1562001f8557604051888160048183638456cb5960e01b988983525af1801562001f7a5762001f60575b50518792911690813b15620006c957829160048392604051948593849283525af18015620006cd5762001f48575b50507f17a6c569feaa1bc517ff2da5b7c95b49e93d6bcab2e7a87df3f6034148d149c5926040916005835183838237602081858101600b8152030190200160ff19815416905581835192839283378101600081520390209382825193849260208452816020850152848401378181018301879052601f01601f19168101030190a280f35b62001f539062002090565b6200097657843862001ec4565b62001f7090989193929862002090565b9690913862001e96565b6040513d8b823e3d90fd5b8780fd5b5034620002445760203660031901126200024457600435906001600160401b03821162000244576020600262001fc3366004860162002014565b604051929181908437820191600b8352838160018060a01b03940301902001541615604051908152f35b905034620006ff5781600319360112620006ff576005546001600160a01b03168152602090f35b9181601f8401121562001688578235916001600160401b0383116200168857602083818601950101116200168857565b60005b838110620020585750506000910152565b818101518382015260200162002047565b90602091620020848151809281855285808601910162002044565b601f01601f1916010190565b6001600160401b038111620016d557604052565b60e081019081106001600160401b03821117620016d557604052565b608081019081106001600160401b03821117620016d557604052565b90601f801991011681019081106001600160401b03821117620016d557604052565b6001600160401b038111620016d557601f01601f191660200190565b9291926200212882620020fe565b91620021386040519384620020dc565b82948184528183011162001688578281602093846000960137010152565b60206003198201126200168857600435906001600160401b038211620016885780602383011215620016885781602462002196936004013591016200211a565b90565b90600182811c92168015620021cb575b6020831014620021b557565b634e487b7160e01b600052602260045260246000fd5b91607f1691620021a9565b9060405191826000825492620021ec8462002199565b9081845260019485811690816000146200226357506001146200221c575b50506200221a92500383620020dc565b565b9093915060005260209081600020936000915b8183106200224a5750506200221a935082010138806200220a565b855488840185015294850194879450918301916200222f565b9150506200221a94506020925060ff191682840152151560051b82010138806200220a565b600435906001600160a01b03821682036200168857565b6000546001600160a01b03163303620022b457565b606460405162461bcd60e51b815260206004820152602060248201527f4f776e61626c653a2063616c6c6572206973206e6f7420746865206f776e65726044820152fd5b604051906200230782620020c0565b60006060838281528260208201528260408201520152565b919082018092116200232d57565b634e487b7160e01b600052601160045260246000fd5b903590601e19813603018212156200168857018035906001600160401b03821162001688576020019181360383136200168857565b903590601e19813603018212156200168857018035906001600160401b0382116200168857602001918160051b360383136200168857565b3d15620023e0573d90620023c482620020fe565b91620023d46040519384620020dc565b82523d6000602084013e565b606090565b919082039182116200232d57565b60ff600254166200240057565b60405162461bcd60e51b815260206004820152601060248201526f14185d5cd8589b194e881c185d5cd95960821b6044820152606490fd5b60001981146200232d5760010190565b156200245057565b60405162461bcd60e51b815260206004820152601b60248201527f466163746f72793a204372656174696f6e206e6f7420666f756e6400000000006044820152606490fd5b90604051620024a481620020c0565b82546001600160a01b039081168252600184015481166020830152600284015481166040830152600390930154909216606083015256fe608034620002f857601f62001f5638819003918201601f191683019291906001600160401b03841183851017620002fd578160e09284926040968752833981010312620002f857620000518162000313565b60206200006081840162000313565b9084840151906060850151926080860151946200008560c060a0890151980162000313565b506000549060018060a01b031992338484161760005589519260018060a01b03928391823391167f8be0079c531659141344cd1fd0a4f28419497f9722a3daafe3b4186f6b6457e0600080a36001805516928315620002b65750169283156200027357600a8510158062000267575b15620002245760648610620001e1576201518087101580620001d3575b156200019057610e1088106200014d5750816002541617600255600354161760035560045560075560055560065551611c2d9081620003298239f35b60649089519062461bcd60e51b82526004820152601e60248201527f5732453a20457865637574696f6e2064656c617920746f6f2073686f727400006044820152fd5b60649089519062461bcd60e51b82526004820152601c60248201527f5732453a20566f74696e6720706572696f6420746f6f2073686f7274000000006044820152fd5b5062278d0087111562000111565b60649089519062461bcd60e51b82526004820152601b60248201527f5732453a20566f74696e672064656c617920746f6f2073686f727400000000006044820152fd5b60649089519062461bcd60e51b82526004820152601360248201527f5732453a20496e76616c69642071756f72756d000000000000000000000000006044820152fd5b506064851115620000f4565b60649089519062461bcd60e51b82526004820152601960248201527f5732453a20496e76616c6964206c6f6f6d2061646472657373000000000000006044820152fd5b62461bcd60e51b815260048101869052601a60248201527f5732453a20496e76616c6964206c6963656e736520746f6b656e0000000000006044820152606490fd5b600080fd5b634e487b7160e01b600052604160045260246000fd5b51906001600160a01b0382168203620002f85756fe6080806040526004908136101561001557600080fd5b60003560e01c908163013cf08b146110c75750806302a251a3146110a95780631156575d1461108b578063261f8a17146110665780632627780d1461104a57806332f6a1dc14610fd55780634fa76ec914610fb757806351ec538214610f8e5780636238099a14610dba578063715018a614610d6157806376e4309914610d435780637d5e81e214610b915780638b25798914610b735780638da5cb5b14610b4a5780639080936f14610b125780639e05220d14610ae9578063a64e024a14610acb578063aedfe53f14610aad578063b39b144414610a91578063bcbde21214610a74578063c9d27afe146106fe578063cc63604a146106d6578063d23254b41461066c578063da35c6641461064e578063ea0217cf146105d2578063f2fde38b146105065763fe0d94c11461014a57600080fd5b3461047557602036600319011261047557610163611a9a565b803560005260086020526040600020600a81019060ff825460101c166104ca57600781015442111561048e57806008849201546009820154906101a68282611432565b60025460405163144613ff60e31b81529760209189919082906001600160a01b03165afa801561048257600090610449575b6101ea9750606497889187549061143f565b04116104065711156103ca5760005b600282015481101561038e576102128160028401611af0565b905460039190911b1c6001600160a01b0316803b1561034b576102388260038501611af0565b90549060031b1c61024b83868601611af0565b5090604051916000908054906102608261123b565b916001811690811561033457506001146102ff575b5050916000939181859403925af13d156102fa573d6102938161132c565b906102a160405192836112a7565b8152600060203d92013e5b156102bf576102ba9061140d565b6101f9565b60405162461bcd60e51b8152602081850152601560248201527415cc914e88115e1958dd5d1a5bdb8819985a5b1959605a1b60448201528590fd5b6102ac565b90915060005260206000206000905b82821061032057505082018183610275565b60018160209254848801520191019061030e565b60ff19168652505080151502830190508183610275565b60405162461bcd60e51b8152602081860152601d60248201527f5732453a20546172676574206973206e6f74206120636f6e747261637400000060448201528690fd5b835462ff00ff19166201000417845582357f712ae1383f79ac853f8d882153778e0260ef8f03b504e2866e0593e04d2b291f600080a260018055005b60405162461bcd60e51b8152602081840152601660248201527515cc914e88141c9bdc1bdcd85b0819195999585d195960521b60448201528490fd5b60405162461bcd60e51b8152602081860152601760248201527f5732453a2051756f72756d206e6f74207265616368656400000000000000000060448201528690fd5b506020873d60201161047a575b81610463602093836112a7565b81010312610475576101ea96516101d8565b600080fd5b3d9150610456565b6040513d6000823e3d90fd5b60405162461bcd60e51b8152602081850152601560248201527415cc914e88159bdd1a5b99c81b9bdd08195b991959605a1b6044820152606490fd5b60405162461bcd60e51b8152602081850152601560248201527415cc914e88105b1c9958591e48195e1958dd5d1959605a1b6044820152606490fd5b5034610475576020366003190112610475576001600160a01b0381358181169290839003610475576105366113b5565b821561057f5750600054826bffffffffffffffffffffffff60a01b821617600055167f8be0079c531659141344cd1fd0a4f28419497f9722a3daafe3b4186f6b6457e0600080a3005b60849060206040519162461bcd60e51b8352820152602660248201527f4f776e61626c653a206e6577206f776e657220697320746865207a65726f206160448201526564647265737360d01b6064820152fd5b5034610475576020366003190112610475578035906105ef6113b5565b6201518082101580610641575b156106075750600555005b60649060206040519162461bcd60e51b8352820152601360248201527215cc914e88125b9d985b1a59081c195c9a5bd9606a1b6044820152fd5b5062278d008211156105fc565b34610475576000366003190112610475576020600b54604051908152f35b5034610475576040366003190112610475576024356001600160a01b038116919082900361047557356000526009602052604060002090600052602052606060406000206001815491015460ff604051928181161515845260081c16151560208301526040820152f35b5034610475576020366003190112610475576106f460209135611b08565b6040519015158152f35b50346104755760403660031901126104755780356024803592831515938481036104755761072a611a9a565b83600052602091600883526040600020600a81019260ff8454166005811015610a60578015908115610a55575b5015610a1257600682015442106109cf5760078201544211610998578660005260098552604060002033600052855260ff60406000205416610960576002546040516309ab24eb60e41b81523381860152969392919086908890869082906001600160a01b03165afa96871561048257600097610931575b5086156108f7576040516060810181811067ffffffffffffffff8211176108e3576040526001815260018782018b815260408301908a82528b60005260098a526040600020336000528a526040600020935115159060ff61ff0086549251151560081b1692169061ffff191617178355519101556000146108ce57600801610858868254611432565b90555b82549160ff83169160058310156108bb575050156108ab575b50506040519384528301527fcbdf6214089cba887ecbf35a0b6a734589959c9763342c756bb2a80ca2bc9f6e60403393a360018055005b60ff191660011790553880610874565b602190634e487b7160e01b600052526000fd5b6009016108dc868254611432565b905561085b565b85604186634e487b7160e01b600052526000fd5b60405162461bcd60e51b8152808401879052601481860152732b99229d102737903b37ba34b733903837bbb2b960611b6044820152606490fd5b9096508581813d8311610959575b61094981836112a7565b81010312610475575195386107cf565b503d61093f565b60405162461bcd60e51b81528084018690526012818801527115cc914e88105b1c9958591e481d9bdd195960721b6044820152606490fd5b60405162461bcd60e51b81528084018690526011818801527015cc914e88159bdd1a5b99c8195b991959607a1b6044820152606490fd5b60405162461bcd60e51b81528084018690526017818801527f5732453a20566f74696e67206e6f7420737461727465640000000000000000006044820152606490fd5b60405162461bcd60e51b81528084018690526018818801527f5732453a2050726f706f73616c206e6f742061637469766500000000000000006044820152606490fd5b600191501438610757565b86602185634e487b7160e01b600052526000fd5b34610475576000366003190112610475576020604051610e108152f35b3461047557600036600319011261047557602060405160648152f35b3461047557600036600319011261047557602060405162093a808152f35b3461047557600036600319011261047557602060405162278d008152f35b34610475576000366003190112610475576003546040516001600160a01b039091168152602090f35b503461047557602036600319011261047557356000526008602052602060ff600a6040600020015416610b486040518092611309565bf35b34610475576000366003190112610475576000546040516001600160a01b039091168152602090f35b34610475576000366003190112610475576020600654604051908152f35b50346104755760803660031901126104755780359067ffffffffffffffff80831161047557366023840112156104755782820135610bce8161139d565b91610bdc60405193846112a7565b8183526020948584016024809460051b83010191368311610475578401905b828210610d245750505081359080821161047557366023830112156104755781850135610c278161139d565b92610c3560405194856112a7565b818452848885019260051b820101913683116104755785899201905b838210610d15575050505060449283359082821161047557366023830112156104755781870135610c818161139d565b95610c8f60405197886112a7565b818752828a88019260051b8501019336851161047557838101925b858410610cdf5750505050505060643590811161047557610cd794610cd19136910161137f565b926114d3565b604051908152f35b833587811161047557820136604382011215610475578c91610d0a83923690878a8201359101611348565b815201930192610caa565b81358152908201908201610c51565b81356001600160a01b0381168103610475578152908701908701610bfb565b34610475576000366003190112610475576020600a54604051908152f35b3461047557600036600319011261047557610d7a6113b5565b600080546001600160a01b0319811682556001600160a01b03167f8be0079c531659141344cd1fd0a4f28419497f9722a3daafe3b4186f6b6457e08280a3005b5034610475576060806003193601126104755781356001600160a01b038181169391849003610475576024359360443567ffffffffffffffff811161047557610e06903690850161137f565b928115610f51578515610f0d575060405190602095634d784ac160e01b8784015260248301526044820152836064820152610e5681610e4860848201866112c9565b03601f1981018352826112a7565b604051610e6281611275565b6001815285368183013760405191610e7983611275565b6001835286368185013760405193610e9085611275565b600185528760005b818110610efe575050610ed9965060035416610eb383611a77565b526000610ebf84611a77565b52610ec984611a77565b52610ed383611a77565b506114d3565b8060005260088252600a60406000200161010061ff0019825416179055604051908152f35b88828289010152018890610e98565b60649060206040519162461bcd60e51b8352820152601c60248201527f5732453a20416d6f756e74206d75737420626520706f736974697665000000006044820152fd5b60649060206040519162461bcd60e51b8352820152601660248201527515cc914e88125b9d985b1a59081c9958da5c1a595b9d60521b6044820152fd5b34610475576000366003190112610475576002546040516001600160a01b039091168152602090f35b50346104755760003660031901126104755760209054604051908152f35b503461047557602036600319011261047557803590610ff26113b5565b600a8210158061103f575b156110055755005b60649060206040519162461bcd60e51b835282015260136024820152725732453a20496e76616c69642071756f72756d60681b6044820152fd5b506064821115610ffd565b34610475576000366003190112610475576020604051600a8152f35b34610475576000366003190112610475576040600b54600a5482519182526020820152f35b34610475576000366003190112610475576020600754604051908152f35b34610475576000366003190112610475576020600554604051908152f35b823461047557602091826003193601126104755781356000526008835260406000209283549260019460018060a01b038682015416958460058301916000908354936111128561123b565b948585528883821691826000146112195750506001146111da575b505061113b925003856112a7565b600681015493600782015461117c600884015492600a60098601549501549960ff8b60081c16976040519a8b528a01526101408060408b01528901906112c9565b956060880152608087015260a086015260c08501526111a160e0850160ff8716611309565b808210156111c55750829360ff9161010085015260101c1615156101208301520390f35b602190634e487b7160e01b6000525260246000fd5b87925060005281600020906000915b85831061120157505061113b9350820101898061112d565b8054838b0185015289945088939092019181016111e9565b925093505061113b94915060ff191682840152151560051b820101898061112d565b90600182811c9216801561126b575b602083101461125557565b634e487b7160e01b600052602260045260246000fd5b91607f169161124a565b6040810190811067ffffffffffffffff82111761129157604052565b634e487b7160e01b600052604160045260246000fd5b90601f8019910116810190811067ffffffffffffffff82111761129157604052565b919082519283825260005b8481106112f5575050826000602080949584010152601f8019910116010190565b6020818301810151848301820152016112d4565b9060058210156113165752565b634e487b7160e01b600052602160045260246000fd5b67ffffffffffffffff811161129157601f01601f191660200190565b9291926113548261132c565b9161136260405193846112a7565b829481845281830111610475578281602093846000960137010152565b9080601f830112156104755781602061139a93359101611348565b90565b67ffffffffffffffff81116112915760051b60200190565b6000546001600160a01b031633036113c957565b606460405162461bcd60e51b815260206004820152602060248201527f4f776e61626c653a2063616c6c6572206973206e6f7420746865206f776e65726044820152fd5b600019811461141c5760010190565b634e487b7160e01b600052601160045260246000fd5b9190820180921161141c57565b8181029291811591840414171561141c57565b81811061145d575050565b60008155600101611452565b9181811061147657505050565b61148c9260005260206000209182019101611452565b565b9190601f811161149d57505050565b61148c926000526020600020906020601f840160051c830193106114c9575b601f0160051c0190611452565b90915081906114bc565b90929192815181518091149081611a6c575b5015611a2f578151156119f4576114fd600b5461140d565b9384600b556007549061152661151d6115168442611432565b9342611432565b60055490611432565b92604051946101a0860186811067ffffffffffffffff821117611291576040528786523360208701526040860152606085015260808401528360a084015260c083015260e0820152600061010082015260006101208201526000610140820152600061016082015260006101808201528260005260086020526040600020815181556001810160018060a01b036020840151166bffffffffffffffffffffffff60a01b825416179055604082015180519067ffffffffffffffff821161129157600160401b8211611291576020600284019161160784845481865585611469565b0190600052602060002060005b8381106119d75750505050606082015180519067ffffffffffffffff821161129157600160401b8211611291576020600384019161165784845481865585611469565b0190600052602060002060005b8381106119c357505050506080820151805190600160401b821161129157600483015482600485015580831061194a575b5060200190600483016000526020600020916000905b828210611866575050505060a082015180519067ffffffffffffffff8211611291576116e7826116de600586015461123b565b6005860161148e565b602090601f83116001146117f357600a939291600091836117e8575b50508160011b916000199060031b1c19161760058201555b60c0830151600682015560e08301516007820155610100830151600882015561012083015160098201550190610140810151906005821015611316578254906101608101519160048310156113165760ff62ff000061018061ff00940151151560101b1694169062ffffff1916179160081b161717905561179d600a5461140d565b600a55817fe0269f7953e70365e80e614e4efe7d4bede59b7f5ad80982ea4064c97ee6f4ef6117d7604051936040855260408501906112c9565b92600060208201528033940390a390565b015190503880611703565b906005840160005260206000209160005b601f198516811061184e5750918391600193600a9695601f19811610611835575b505050811b01600582015561171b565b015160001960f88460031b161c19169055388080611825565b91926020600181928685015181550194019201611804565b805180519067ffffffffffffffff82116112915761188e82611888885461123b565b8861148e565b602090601f83116001146118da5792826001949360209386956000926118cf575b5050600019600383901b1c191690841b1787555b019401910190926116ab565b0151905038806118af565b908660005260206000209160005b601f1985168110611932575083602093600196938796938794601f19811610611919575b505050811b0187556118c3565b015160001960f88460031b161c1916905538808061190c565b919260206001819286850151815501940192016118e8565b600484016000526020600020908382015b818301811061196b575050611695565b806119786001925461123b565b80611985575b500161195b565b601f90818111841461199e575050600081555b3861197e565b6119ba60009284845260208420920160051c8201858301611452565b81835555611998565b600190602084519401938184015501611664565b82516001600160a01b031681830155602090920191600101611614565b60405162461bcd60e51b815260206004820152601360248201527215cc914e88115b5c1d1e481c1c9bdc1bdcd85b606a1b6044820152606490fd5b60405162461bcd60e51b815260206004820152601560248201527415cc914e88125b9d985b1a59081c1c9bdc1bdcd85b605a1b6044820152606490fd5b9050845114386114e5565b805115611a845760200190565b634e487b7160e01b600052603260045260246000fd5b600260015414611aab576002600155565b60405162461bcd60e51b815260206004820152601f60248201527f5265656e7472616e637947756172643a207265656e7472616e742063616c6c006044820152606490fd5b8054821015611a845760005260206000200190600090565b60009081526008602052604081209060ff600a83015460101c168015611be9575b611be4576009600883015492015490611b428284611432565b60025460405163144613ff60e31b815291929190602090829060049082906001600160a01b03165afa918215611bd8578092611b9e575b5050611b8a6064916004549061143f565b0411159182611b9857505090565b11919050565b9091506020823d8211611bd0575b81611bb9602093836112a7565b81010312611bcd575051611b8a6064611b79565b80fd5b3d9150611bac565b604051903d90823e3d90fd5b905090565b506007820154421115611b2956fea264697066735822122084ed37c75e49cc90f0825314c2031f4635fa2207d5378b17026c82c374883cbb64736f6c634300081400336080346200063d57601f62004b2438819003918201601f191683019291906001600160401b038411838510176200064257816101e092849260409687528339810103126200063d57620000528162000658565b9080602092838201620000659062000658565b906200007383870162000658565b90620000826060850162000658565b90620000916080860162000658565b9088620000a160a0880162000658565b620000af60c0890162000658565b9060e0890151946101008a0151966101208b0151986101408c01519a6101608d01519c6101a001519d6101c001620000e79062000658565b5060008054336001600160a01b0319808316821784559951936001600160a01b039390928416907f8be0079c531659141344cd1fd0a4f28419497f9722a3daafe3b4186f6b6457e09080a36001805560025492635e80a6bf6011556276a70060135561ffff196014541660011760145562278d00601655828b1615620005f957508116928315620005a85781169384156200055757811694851562000511578116958615620004cb57811696871562000485571697881562000440576064808b11620003e7578b151580620003dc575b156200039757620151808d10620003525762093a808e106200030d578e818115159182620002ff575b505015620002ba578f8110620002655750610100600160a81b039060081b169060018060a81b031916176002558560035416176003558460045416176004558360055416176005558260065416176006558160075416176007556008541617600855600955600d55600e55600f55601055601255429055516144b690816200066e8239f35b9150508f8f93506084945061676560f01b9250519262461bcd60e51b84526004840152602260248401527f5732453a20496e76616c69642066756e642073706c69742070657263656e74616044840152820152fd5b925050508d8f519062461bcd60e51b82526004820152601d60248201527f5732453a20496e76616c696420656d657267656e63792071756f72756d0000006044820152fd5b90915011158f8290620001e0565b925050508d8f519062461bcd60e51b82526004820152601f60248201527f5732453a20456d657267656e637920706572696f6420746f6f2073686f7274006044820152fd5b925050508d8f519062461bcd60e51b82526004820152601c60248201527f5732453a20566f74696e6720706572696f6420746f6f2073686f7274000000006044820152fd5b925050508d8f519062461bcd60e51b82526004820152601360248201527f5732453a20496e76616c69642071756f72756d000000000000000000000000006044820152fd5b50808c1115620001b7565b9150508f8f93506084945065656e7461676560d01b9250519262461bcd60e51b84526004840152602660248401527f5732453a20496e76616c69642063726561746f72207061796f757420706572636044840152820152fd5b508f8f606491519062461bcd60e51b82526004820152601b60248201527f5732453a20496e76616c69642063726561746f722077616c6c657400000000006044820152fd5b50508f8f606491519062461bcd60e51b82526004820152601c60248201527f5732453a20496e76616c696420706c6174666f726d2077616c6c6574000000006044820152fd5b50508f8f606491519062461bcd60e51b82526004820152601b60248201527f5732453a20496e76616c6964206f7261636c65206164647265737300000000006044820152fd5b50508f8f606491519062461bcd60e51b82526004820152601e60248201527f5732453a20496e76616c69642070726f746f636f6c20747265617375727900006044820152fd5b50508f8f608491519062461bcd60e51b82526004820152602260248201527f5732453a20496e76616c69642070616e646f726120726f6f7420747265617375604482015261727960f01b6064820152fd5b50508f8f608491519062461bcd60e51b82526004820152602260248201527f5732453a20496e76616c6964207574696c69747920746f6b656e206164647265604482015261737360f01b6064820152fd5b9150508f6064925062461bcd60e51b825280600483015260248201527f5732453a20496e76616c6964206c6963656e7365204e465420616464726573736044820152fd5b600080fd5b634e487b7160e01b600052604160045260246000fd5b51906001600160a01b03821682036200063d5756fe608080604052600436101561001357600080fd5b600090813560e01c908163025f77cb14613a4f5750806309fadd0b14613a325780630b88f3a214613a055780630d45d156146139b35780630e92e674146139965780631489a5001461397857806314ec768f14613761578063175c06d3146135ea5780631bc946de146135cc5780631bd4c81c146135a25780631d65e77e146133dc57806321150d3d14613359578063216743f11461332757806322f3e2d4146133045780632345105f146132915780632bd03820146132735780632c4da1b1146132555780632dd737e11461322c57806336ea0c921461320d578063385dc3df146131ef57806339a3ed28146131d15780633f4ba83a1461313c5780634ac7b987146130115780634c112ab714612ff35780634d55ed9b14612fd05780634d784ac114612c835780634f3fc2df14612c6557806351ebdd1714612b0a57806354e473c61461238d578063558e44d3146123705780635c975abb1461234d578063601aca7b1461206f57806366666aa91461205157806369c032c114611f22578063715018a614611ec8578063734dd80714611e9f578063753d4c3114611e81578063771aceef14611d5c57806378b38d2d14611c865780637a2249c714611a585780637cdc65f214611a2f5780637f94cf4014611a115780638456cb591461197d578063858cf15e1461195e57806388488c33146116ce578063893d8f4c146116b05780638a5cc496146116925780638d977672146115c35780638da5cb5b1461159c578063953b8fb81461157e578063977105c61461153a578063a07c3ef1146111ea578063a15f75ef1461112b578063a252456614610f64578063acbf482814610db7578063ae86ed8914610d8e578063b6cb58a514610d70578063b870c27514610d52578063bc3f931f14610c9a578063c238113b14610bca578063c5c4744c14610bac578063cb85fe3514610b8e578063d180b2e714610b64578063d74c06ba14610978578063d861221014610834578063da68d47d14610807578063de8f846c14610797578063e20fc1181461076e578063e3625787146106de578063e7246042146106c2578063eb79c8b71461052b578063eed2215a1461050d578063ef9b0836146104e8578063f2cbe469146104c4578063f2fde38b146103f95763fc2e95f91461036557600080fd5b346103f65760403660031901126103f657600435602435610384613cba565b80156103b15781835260196020526040832055601a54808211156103aa57505b601a5580f35b90506103a4565b60405162461bcd60e51b815260206004820152601f60248201527f5732453a204261736520636f7374206d75737420626520706f736974697665006044820152606490fd5b80fd5b50346103f65760203660031901126103f657610413613a94565b61041b613cba565b6001600160a01b0390811690811561047057600054826bffffffffffffffffffffffff60a01b821617600055167f8be0079c531659141344cd1fd0a4f28419497f9722a3daafe3b4186f6b6457e0600080a380f35b60405162461bcd60e51b815260206004820152602660248201527f4f776e61626c653a206e6577206f776e657220697320746865207a65726f206160448201526564647265737360d01b6064820152608490fd5b50346103f657806003193601126103f657602060405168056bc75e2d631000008152f35b50346103f657806003193601126103f6576020610503614342565b6040519015158152f35b50346103f657806003193601126103f6576020600954604051908152f35b50346103f65760403660031901126103f657610545613a94565b602435610550613cba565b610558613e60565b6001600160a01b039182169161056f831515613e0e565b61057a821515613dc2565b823b15908115610688575b501561064357610597814710156141ca565b8280808084865af16105a7614054565b50156105fe5760807faa895f492f736a5e2f0e6bb4caae358842a87b3b12f0c9b5d83af49d2afece7c916040519081526040602082015260086040820152671c1c9bdc1bdcd85b60c21b6060820152a26001805580f35b60405162461bcd60e51b815260206004820152601c60248201527f5732453a2054726561737572792072656c65617365206661696c6564000000006044820152606490fd5b60405162461bcd60e51b815260206004820152601c60248201527f5732453a20526563697069656e74206d617920626520756e73616665000000006044820152606490fd5b60055481168414915081156106b4575b81156106a6575b5038610585565b90506007541682143861069f565b600854811684149150610698565b50346103f657806003193601126103f657602060405160648152f35b50346103f657806003193601126103f6576106f7613cba565b60145460ff8160081c1661070a81613a74565b61071d5761ffff19166101011760145580f35b60405162461bcd60e51b815260206004820152602360248201527f5732453a2050726f746f636f6c206e6f7420696e207072652d6c69766520737460448201526261746560e81b6064820152608490fd5b50346103f657806003193601126103f6576007546040516001600160a01b039091168152602090f35b50346103f65760403660031901126103f65760406107b3613aaa565b916004358152601c602052209060018060a01b031660005260205260806040600020805490600260018201549101549060ff604051938181161515855260081c161515602084015260408301526060820152f35b50346103f657806003193601126103f65760025460405160089190911c6001600160a01b03168152602090f35b5060203660031901126103f65760043560018060a01b0361085a81600654163314613f20565b610862613e60565b61086d821515613dc2565b8134106109335782808080606461088660125488613eb6565b04946108928688613fb8565b9061089f87600c54613e53565b600c55600554165af16108b0614054565b50156108ee5760405191825260208201527f2f22b7f6e7f7df7d0eb3d1a543a2b6eb906e76a03540c2d66d2725270a5f6d3160403392a26001805580f35b60405162461bcd60e51b815260206004820152601d60248201527f5732453a205472656173757279207472616e73666572206661696c65640000006044820152606490fd5b60405162461bcd60e51b815260206004820152601a60248201527f5732453a20496e73756666696369656e74204554482073656e740000000000006044820152606490fd5b50346103f65760403660031901126103f657610992613a94565b60243561099d613e60565b6001600160a01b03918216916109b4831515613e0e565b6109bf821515613dc2565b6109ce60205460135490613e53565b421115610b115780600854163314908115610b04575b5015610aa4576109f6814710156141ca565b8280808084865af1610a06614054565b5015610a5f5760807faa895f492f736a5e2f0e6bb4caae358842a87b3b12f0c9b5d83af49d2afece7c9160405190815260406020820152600a604082015269696e616374697669747960b01b6060820152a26001805580f35b60405162461bcd60e51b815260206004820152601e60248201527f5732453a20496e61637469766974792072656c65617365206661696c656400006044820152606490fd5b60405162461bcd60e51b815260206004820152603260248201527f5732453a204f6e6c792063726561746f72206f722044414f2063616e2072656c6044820152716561736520627920696e616374697669747960701b6064820152608490fd5b90508354163314386109e4565b60405162461bcd60e51b815260206004820152602560248201527f5732453a20496e6163746976697479207468726573686f6c64206e6f742072656044820152641858da195960da1b6064820152608490fd5b50346103f65760203660031901126103f65760406020916004358152601983522054604051908152f35b50346103f657806003193601126103f6576020600e54604051908152f35b50346103f657806003193601126103f6576020600a54604051908152f35b50346103f65760403660031901126103f657610c11610be7613aaa565b6006546001600160a01b039190610c019083163314613f20565b610c09613e60565b161515613f6c565b6004358152601b60205260076040822001805460ff81166005811015610c8657600103610c485760ff191660021790556001805580f35b60405162461bcd60e51b815260206004820152601660248201527515cc914e8815185cdac81b9bdd08185c1c1c9bdd995960521b6044820152606490fd5b634e487b7160e01b84526021600452602484fd5b50346103f65760403660031901126103f6576040610cb6613aaa565b918060608351610cc581613b87565b828152826020820152828582015201526004358152601c602052209060018060a01b031660005260205260806040600020604051610d0281613b87565b81549160ff831615159283835260ff602084019160081c16151581526060600260018401549360408601948552015493019283526040519384525115156020840152516040830152516060820152f35b50346103f657806003193601126103f6576020601354604051908152f35b50346103f657806003193601126103f6576020601d54604051908152f35b50346103f657806003193601126103f6576003546040516001600160a01b039091168152602090f35b50346103f657806003193601126103f657610dd0613e60565b600a546015548110610f29576008546001600160a01b0391908216610df6338214614084565b6017548015610ee457601654610e0b91613e53565b4211610e9f57610e7292610e85858080806040966064610e4f7ff1ac99b40df92c75ed075d39e3b02858b41dca6aaa50b235f036e349755ae8d69a60095490613eb6565b0490610e5e600b548093613fb8565b9a8b8093610e6d8215156140d0565b613e53565b600b555af1610e7f614054565b50614128565b6008541692600b5482519182526020820152a26001805580f35b60405162461bcd60e51b815260206004820152601a60248201527f5732453a205061796f75742077696e646f7720657870697265640000000000006044820152606490fd5b60405162461bcd60e51b815260206004820152601b60248201527f5732453a20546172676574206e6f7420726561636865642079657400000000006044820152606490fd5b60405162461bcd60e51b815260206004820152601360248201527215cc914e8815185c99d95d081b9bdd081b595d606a1b6044820152606490fd5b50346103f657806003193601126103f65760025460405163058303b160e41b815260209260089290921c6001600160a01b031691908381600481865afa8015611120579084916110f2575b50506040805163ed6bac1d60e01b815292839060049082905afa9182156110e557819082936110ac575b506001938484019283851161109857919061100e610ff8859795613bc3565b966110066040519889613ba2565b808852613bc3565b8187019690601f1901368837845b86811115611066575060405195606087019387528287015260606040870152518092526080850195925b8281106110535785870386f35b8351875295810195928101928401611046565b8061108c9186949596999799526018855260408420546110868285614318565b52613d12565b9694969392919361101c565b634e487b7160e01b81526011600452602490fd5b9250506040823d6040116110dd575b816110c860409383613ba2565b810103126103f6578282519201519138610fd9565b3d91506110bb565b50604051903d90823e3d90fd5b813d8311611119575b6111058183613ba2565b81010312611114578238610faf565b600080fd5b503d6110fb565b6040513d84823e3d90fd5b50346103f657806003193601126103f657611144613e60565b6008546001600160a01b0390811661115d338214614084565b600a549081156111a557610e7292610e85858080806040966064610e4f7ff1ac99b40df92c75ed075d39e3b02858b41dca6aaa50b235f036e349755ae8d69a60095490613eb6565b60405162461bcd60e51b815260206004820152601860248201527f5732453a204e6f2066756e6473207261697365642079657400000000000000006044820152606490fd5b50346103f65760603660031901126103f6576044356001600160401b0381116115365761121b903690600401613b15565b611223613cba565b600435156114f157611236601d54613d12565b9182601d556040519361124885613b42565b838552806020860152600435604086015260243560608601524260808601528060a08601528060c08601528060e08601528061010086015280610120860152611292368484613d52565b610140860152838152601b60205260408120948051865560019586810160208301516112bd81613a74565b6112c681613a74565b60ff8019835416911617905560408201516002820155606082015160038201556080820151600482015560a0820151600582015560c082015160068201556007810160e083015160058110156114dd57918161132761014094600994613d89565b6101008501518154610100600160a81b031916600891821b610100600160a81b03161790915561012085015190820155919092015180519290910191906001600160401b0382116114c95761137c8354613bda565b601f8111611485575b5091839160209895938895508990601f831160011461141557600080516020614461833981519152969783928392879461140a575b50501b916000199060031b1c19161790555b6113d7601e54613d12565b601e556113ff6040519283928352600435898401526060604084015233966060840191613da1565b0390a3604051908152f35b0151925038806113ba565b8385528a8520601f1984169893929091865b8a811061146d575083600080516020614461833981519152999a10611454575b505050811b0190556113cc565b015160001960f88460031b161c19169055388080611447565b8183015184558c995092850192918d01918d01611427565b83855260208520601f840160051c810191602085106114bf575b601f0160051c01905b8181106114b55750611385565b85815589016114a8565b909150819061149f565b634e487b7160e01b84526041600452602484fd5b634e487b7160e01b85526021600452602485fd5b60405162461bcd60e51b815260206004820152601c60248201527f5732453a20526577617264206d75737420626520706f736974697665000000006044820152606490fd5b5080fd5b50346103f65760203660031901126103f65761156160018060a01b03600654163314613f20565b60043581526018602052604081206115798154613d12565b905580f35b50346103f657806003193601126103f6576020601554604051908152f35b50346103f657806003193601126103f657546040516001600160a01b039091168152602090f35b50346103f65760203660031901126103f6576040906004358152601b60205220805461168e60ff60018401541692600281015490600381015460048201546005830154600684015491600785015493611623600960088801549701613c14565b966040519a8b9a8b5261163581613a74565b60208b015260408a01526060890152608088015260a087015260c086015261166360e0860160ff8316613ac0565b60081c6001600160a01b03166101008501526101208401526101606101408401819052830190613af0565b0390f35b50346103f657806003193601126103f6576020600f54604051908152f35b50346103f657806003193601126103f6576020601f54604051908152f35b50346103f65760208060031936011261153657600435906116ed613e60565b818352601b8152604083206007810180549160ff8316600581101561194a5761190d5760058101549260068201546117258186613e53565b60025460405163144613ff60e31b81529196919088908290600490829060081c6001600160a01b03165afa908115611902578a916118d3575b5061176e606491600d5490613eb6565b0486108015906118ba575b1561187a57111561186b5750600160ff1983541617825560ff6001820154166117a181613a74565b80158061185e575b1561184f57506117b99054613ec9565b42835560ff815416600581101561183b5715611812575b9160409160ff7fe706375806608dd57ef39176f88f78ca596a2ee8bdff66998ae082f0c1d116209454169161180784518094613ac0565b820152a26001805580f35b601e5480156118275760001901601e556117d0565b634e487b7160e01b86526011600452602486fd5b634e487b7160e01b86526021600452602486fd5b6118599150613a74565b6117b9565b50600282015415156117a9565b60ff19166002178255506117b9565b60405162461bcd60e51b815260048101889052601860248201527715cc914e8810d85b9b9bdd08199a5b985b1a5e99481e595d60421b6044820152606490fd5b506118cc6004850154600e5490613e53565b4211611779565b90508781813d83116118fb575b6118ea8183613ba2565b81010312611114575161176e61175e565b503d6118e0565b6040513d8c823e3d90fd5b60405162461bcd60e51b81526004810185905260156024820152745732453a205461736b206e6f742070656e64696e6760581b6044820152606490fd5b634e487b7160e01b87526021600452602487fd5b50346103f657806003193601126103f6576020604051635e80a6bf8152f35b50346103f657806003193601126103f657611996613cba565b60025460ff81166119d95760019060ff1916176002557f62e78cea01bee320cd4e420270b5ea74000d11b0c9f74754ebdbfc544b05a2586020604051338152a180f35b60405162461bcd60e51b815260206004820152601060248201526f14185d5cd8589b194e881c185d5cd95960821b6044820152606490fd5b50346103f657806003193601126103f6576020601a54604051908152f35b50346103f657806003193601126103f6576008546040516001600160a01b039091168152602090f35b50346103f657602080600319360112611536576004356001600160401b038111611c825736602382011215611c8257806004013592611a9684613bc3565b91611aa46040519384613ba2565b8483528383016024809660051b83010191368311611c7e578601905b828210611c5f5750506006546001600160a01b03949150611ae49085163314613f20565b611aec613e60565b60145460ff811615611c115760ff19166014556003549293928316928290815b8651811015611bdd5781611b208289614318565b516040516370a0823160e01b815291166004820181905285828b818b5afa918215611bd2578592611ba3575b5081611b63575b5050611b5e90613d12565b611b0c565b7ffb518729fe519091f8dd997a899a92dcf814cc8101d7181f2b505fb7daf4607686611b9484611b5e96959a613e53565b98604051908152a29038611b53565b9091508581813d8311611bcb575b611bbb8183613ba2565b8101031261111457519038611b4c565b503d611bb1565b6040513d87823e3d90fd5b82857ffa98b265f0ea4ee4a32d6bd71eb75eb433367a19ee3b7fb0510514f3a1338946866040519283523392a26001805580f35b60405162461bcd60e51b8152600481018390526021818801527f5732453a2050726f746f636f6c20616c726561647920646561637469766174656044820152601960fa1b6064820152608490fd5b81356001600160a01b0381168103611114578152908501908501611ac0565b8380fd5b8280fd5b50346103f65760203660031901126103f6576004356001600160401b03811161153657611cb7903690600401613b15565b90611cc0613cba565b611ccf602054600f5490613e53565b421115611d1757611d117f19ad580ac4de783866d2548cc126e86b8bdabd95323ccebfa5e4018b6b160ac9916040519182916020835233956020840191613da1565b0390a280f35b60405162461bcd60e51b815260206004820152601f60248201527f5732453a204e6f7420616e20656d657267656e637920736974756174696f6e006044820152606490fd5b50346103f657806003193601126103f65760ff8060145460081c169060018060a01b0360025460081c16604051809163058303b160e41b825281600460209485935afa908115611bd2578591611e54575b50600a54600b5490600c5492601d5494889660015b87811115611dfd57505060e0985060405197611ddd81613a74565b885287015260408601526060850152608084015260a083015260c0820152f35b808b52601b835281600760408d200154166005811015611e405715611e2b575b611e2690613d12565b611dc2565b97611e38611e2691613d12565b989050611e1d565b634e487b7160e01b8c52602160045260248cfd5b90508181813d8311611e7a575b611e6b8183613ba2565b81010312611114575138611dad565b503d611e61565b50346103f657806003193601126103f6576020601654604051908152f35b50346103f657806003193601126103f6576005546040516001600160a01b039091168152602090f35b50346103f657806003193601126103f657611ee1613cba565b600080546001600160a01b0319811682556001600160a01b03167f8be0079c531659141344cd1fd0a4f28419497f9722a3daafe3b4186f6b6457e08280a380f35b50346103f65760403660031901126103f657611f3c613a94565b600654602435916001600160a01b0391611f599083163314613f20565b611f61613e60565b1690611f6e821515613e0e565b611f79811515613dc2565b611f92611f8b602054600f5490613e53565b4211614174565b611f9e814710156141ca565b8280808084865af1611fae614054565b501561200c5760807faa895f492f736a5e2f0e6bb4caae358842a87b3b12f0c9b5d83af49d2afece7c9160405190815260406020820152600f60408201526e71756f72756d5f616e645f74696d6560881b6060820152a26001805580f35b60405162461bcd60e51b815260206004820152601d60248201527f5732453a20456d657267656e63792072656c65617365206661696c65640000006044820152606490fd5b50346103f657806003193601126103f6576020600c54604051908152f35b50346103f65760403660031901126103f657612089613a94565b6006546001600160a01b039190602435906120a79084163314613f20565b6120af613e60565b828216926120be841515613f6c565b811561230957846120d3606484048094613fb8565b93826003541692806007541693803b15611c7e576040516340c10f1960e01b8082526001600160a01b039690961660048201526024810187905290849081908390604490829084905af191826122f5575b50506121d85782612133613fc5565b6308c379a01461214a575b604051903d90823e3d90fd5b612152613fe3565b8061215d575061213e565b6121d4906121b4603a60405180937f4d696e7420706c6174666f726d20666565206661696c65643a2000000000000060208301526121a48151809260208686019101613acd565b810103601a810184520182613ba2565b60405162461bcd60e51b8152602060048201529182916024830190613af0565b0390fd5b6003541692833b15611c82576040519081526001600160a01b03919091166004820152602481018590529181908390604490829084905af191826122dd575b50506122a65783612226613fc5565b6308c379a01461223c57604051903d90823e3d90fd5b612244613fe3565b8061224f575061213e565b6121d4906121b4603f60405180937f4d696e7420776f726b657220636f6d6d697373696f6e206661696c65643a200060208301526122968151809260208686019101613acd565b810103601f810184520182613ba2565b7fd4aefb4b84804a4c139b1151ee766446b22cb5273adf0178e7575862bcc4a7809160409182519182526020820152a26001805580f35b6122e690613b74565b6122f1578438612217565b8480fd5b6122fe90613b74565b611c7e578338612124565b606460405162461bcd60e51b815260206004820152602060248201527f5732453a20436f6d6d697373696f6e206d75737420626520706f7369746976656044820152fd5b50346103f657806003193601126103f657602060ff600254166040519015158152f35b50346103f657806003193601126103f65760206040516103e88152f35b50346103f65760403660031901126103f6576024803515159081813503611c8257600254916040516370a0823160e01b90818152336004820152602081858160018060a01b03809960081c165afa908115612aff578691612acd575b5015612a91576123f7613e60565b6004358552601b602052604085209060ff6007830154166005811015612a7e57612a435761242c6004830154600e5490613e53565b42116129ff576004358652601c602052604086203360005260205260ff604060002054166129c657600382015490816128d4575b509060039160026040519161247483613b87565b6001835260208301908682526040840190815260608401914283526004358b52601c60205260408b20336000526020526040600020945115159060ff61ff0087549251151560081b1692169061ffff1916171784555160018401555191015583356000146128bf57600581016124ea8154613d12565b90555b6124f8601f54613d12565b601f550154604051918252602082015233907fcbdf6214089cba887ecbf35a0b6a734589959c9763342c756bb2a80ca2bc9f6e604060043592a36004358352601b60205260408320906125546005830154600684015490613e53565b918360025460081c169260405160208160048163144613ff60e31b988982525afa9081156128b4578791612882575b50612590600d5482613eb6565b5060508102908082046050149015171561286f576064900411159081612840575b506125bf575b836001805580f35b6125c7613e60565b6004358452601b602052604084209160078301549060ff8216600581101561282d576127f157600584015460068501549160206126048484613e53565b9760025460081c169160046040518094819382525afa9081156127e65788916127b2575b50612638606491600d5490613eb6565b048610801590612799575b1561275a5711156127495750600160ff1960078401541617600783015560ff60018301541661267181613a74565b80158061273c575b1561272e57506126898254613ec9565b4260205560ff600783015416600581101561271b57156126f0575b50600760ff91015416906126bb6040518093613ac0565b60208201527fe706375806608dd57ef39176f88f78ca596a2ee8bdff66998ae082f0c1d11620604060043592a23880806125b7565b601e54908115612709575060001901601e5560076126a4565b634e487b7160e01b8552601160045284fd5b50634e487b7160e01b8452602160045283fd5b61273790613a74565b612689565b5060028301541515612679565b60ff19166002176007830155612689565b60405162461bcd60e51b8152602060048201526018818601527715cc914e8810d85b9b9bdd08199a5b985b1a5e99481e595d60421b6044820152606490fd5b506127ab6004860154600e5490613e53565b4211612643565b90506020813d6020116127de575b816127cd60209383613ba2565b810103126111145751612638612628565b3d91506127c0565b6040513d8a823e3d90fd5b60405162461bcd60e51b815260206004820152601581850152745732453a205461736b206e6f742070656e64696e6760581b6044820152606490fd5b634e487b7160e01b875260216004528387fd5b6004915001546202a300810180911161285c57421115386125b1565b50634e487b7160e01b8452601160045283fd5b634e487b7160e01b875260116004528387fd5b90506020813d6020116128ac575b8161289d60209383613ba2565b81010312611114575138612583565b3d9150612890565b6040513d89823e3d90fd5b600681016128cd8154613d12565b90556124ed565b6020866003541691866040518094819382523360048301525afa80156128b4578291889161298f575b506129119061290b3361439b565b90613e53565b1061294057906003916004358752601c6020526040872033600052602052806001604060002001559091612460565b60405162461bcd60e51b8152602060048201526022818601527f5732453a20496e73756666696369656e74207374616b6520666f7220766f74696044820152616e6760f01b6064820152608490fd5b9150506020813d6020116129be575b816129ab60209383613ba2565b81010312611114575181906129116128fd565b3d915061299e565b60405162461bcd60e51b8152602060048201526012818601527115cc914e88105b1c9958591e481d9bdd195960721b6044820152606490fd5b60405162461bcd60e51b8152602060048201526018818601527f5732453a20566f74696e6720706572696f6420656e64656400000000000000006044820152606490fd5b60405162461bcd60e51b815260206004820152601481860152735732453a205461736b206e6f742061637469766560601b6044820152606490fd5b634e487b7160e01b875260216004528487fd5b60405162461bcd60e51b8152602060048201526015818501527415cc914e88131a58d95b9cd9481c995c5d5a5c9959605a1b6044820152606490fd5b90506020813d602011612af7575b81612ae860209383613ba2565b810103126111145751386123e9565b3d9150612adb565b6040513d88823e3d90fd5b50346103f657806003193601126103f657612b23613e60565b60ff60145416612c20576003546040516370a0823160e01b8152336004820152906020908190839060249082906001600160a01b03165afa918215612c15578392612be6575b508115612ba2577ffb518729fe519091f8dd997a899a92dcf814cc8101d7181f2b505fb7daf46076906040519283523392a26001805580f35b6064906040519062461bcd60e51b82526004820152601960248201527f5732453a204e6f20756e636c61696d65642062616c616e6365000000000000006044820152fd5b9080925081813d8311612c0e575b612bfe8183613ba2565b8101031261111457519038612b69565b503d612bf4565b6040513d85823e3d90fd5b60405162461bcd60e51b815260206004820152601a60248201527f5732453a2050726f746f636f6c207374696c6c206163746976650000000000006044820152606490fd5b50346103f657806003193601126103f6576020601154604051908152f35b50346103f65760603660031901126103f657612c9d613aaa565b906044356001600160401b03811161153657612cbd903690600401613b15565b90612cc6613cba565b612cd36004351515613dc2565b612ce76001600160a01b0385161515613e0e565b612cf2601d54613d12565b9283601d55604051602081019060043582526bffffffffffffffffffffffff198760601b16604082015284846054830137612d3f6054828781018683820152036034810184520182613ba2565b51902060405195612d4f87613b42565b8587526002602088015282604088015268056bc75e2d6310000060608801524260808801528260a08801528260c08801528260e088015260018060a01b0316610100870152610120860152612da5368484613d52565b610140860152838152601b6020526040812094805186556001958681016020830151612dd081613a74565b612dd981613a74565b60ff8019835416911617905560408201516002820155606082015160038201556080820151600482015560a0820151600582015560c082015160068201556007810160e083015160058110156114dd579181612e3a61014094600994613d89565b6101008501518154610100600160a81b031916600891821b610100600160a81b03161790915561012085015190820155919092015180519290910191906001600160401b0382116114c957612e8f8354613bda565b601f8111612f8c575b5091839160209895938895508990601f8311600114612f1c576000805160206144618339815191529697839283928794612f11575b50501b916000199060031b1c19161790555b612eea601e54613d12565b601e556113ff60405192839260028452898401526060604084015233966060840191613da1565b015192503880612ecd565b8385528a8520601f1984169893929091865b8a8110612f74575083600080516020614461833981519152999a10612f5b575b505050811b019055612edf565b015160001960f88460031b161c19169055388080612f4e565b8183015184558c995092850192918d01918d01612f2e565b83855260208520601f840160051c81019160208510612fc6575b601f0160051c01905b818110612fbc5750612e98565b8581558901612faf565b9091508190612fa6565b50346103f65760203660031901126103f657612fea613cba565b60043560155580f35b50346103f657806003193601126103f6576020601754604051908152f35b50346103f65760203660031901126103f65760043561302e613cba565b613036613e60565b613041811515613dc2565b600c548181106130f7578161305591613fb8565b600c55818080808460018060a01b03600354165af1613072614054565b50156130b357600c5460405191825260208201527f2d2ea9fb5109dacbe8f4343ad96906f9ced59807c426a0d21fc84ad462b83d6460403392a26001805580f35b606460405162461bcd60e51b815260206004820152602060248201527f5732453a2052657761726420706f6f6c207472616e73666572206661696c65646044820152fd5b60405162461bcd60e51b815260206004820152601d60248201527f5732453a20496e73756666696369656e742072657761726420706f6f6c0000006044820152606490fd5b50346103f657806003193601126103f657613155613cba565b60025460ff8116156131955760ff19166002557f5db9ee0a495bf2e6ff9c91a7834c1ba4fdd244a5e8aa4e537bd38aeae4b073aa6020604051338152a180f35b60405162461bcd60e51b815260206004820152601460248201527314185d5cd8589b194e881b9bdd081c185d5cd95960621b6044820152606490fd5b50346103f657806003193601126103f6576020601254604051908152f35b50346103f657806003193601126103f6576020604051620151808152f35b50346103f65760203660031901126103f6576020610503600435614221565b50346103f657806003193601126103f6576004546040516001600160a01b039091168152602090f35b50346103f657806003193601126103f6576020600b54604051908152f35b50346103f657806003193601126103f6576020601054604051908152f35b50346103f65760203660031901126103f6578060018060a01b036132ba81600654163314613f20565b60025460081c16803b15613301578190602460405180948193633334fd4160e21b835260043560048401525af18015611120576132f5575080f35b6132fe90613b74565b80f35b50fd5b50346103f657806003193601126103f657602060ff601454166040519015158152f35b50346103f657806003193601126103f657601d54601e54601f5460408051938452602084019290925290820152606090f35b50346103f65760203660031901126103f657600435600481101561153657600190613382613cba565b61338b81613a74565b60145461ff008260081b169061ff001916176014556133a981613a74565b14806133d2575b806133c4575b6133bd5780f35b4260175580f35b50600a5460155411156133b6565b50601754156133b0565b50346103f65760203660031901126103f65760606101406040516133ff81613b42565b83815283602082015283604082015283838201528360808201528360a08201528360c08201528360e0820152836101008201528361012082015201526004358152601b60205260408120906040519061345782613b42565b8254825260ff60018401541661346c81613a74565b6020830152600283015460408301526003830154606083015260048301546080830152600583015460a0830152600683015460c083015260078301549060ff821690600582101561358e575060e0830152600890811c6001600160a01b0316610100830152820154610120820152610140916134ea90600901613c14565b8282015261168e6040519283926020845280516020850152602081015161351081613a74565b60408501526040810151606085015260608101516080850152608081015160a085015260a081015160c085015260c081015160e085015261355a60e0820151610100860190613ac0565b6101008101516001600160a01b03166101208581019190915281015182850152015161016080840152610180830190613af0565b634e487b7160e01b81526021600452602490fd5b50346103f65760203660031901126103f65760406020916004358152601883522054604051908152f35b50346103f657806003193601126103f6576020600d54604051908152f35b50346103f65760403660031901126103f657613604613a94565b60243561360f613cba565b613617613e60565b6001600160a01b039182169161362e831515613e0e565b613639821515613dc2565b60025460081c16604051809163144613ff60e31b825281600460209485935afa908115611bd2578591613732575b5061367760649160105490613eb6565b049061368a611f8b8254600f5490613e53565b613696834710156141ca565b8480808086885af16136a6614054565b50156136e257916040917f9dafb22dc2954bed775d40fdf499bb61c15ae9d0c8a59fc47bae3398dabb9c11938351928352820152a26001805580f35b6084906040519062461bcd60e51b825260048201526024808201527f5732453a20456d657267656e63792066756e6473207472616e736665722066616044820152631a5b195960e21b6064820152fd5b90508181813d831161375a575b6137498183613ba2565b810103126122f15751613677613667565b503d61373f565b50346103f65760603660031901126103f657602435604435600435613784613cba565b8015158061396d575b15613932576201518083101580613925575b156138e05762093a80821015806138d3575b1561388e577f32fa47401857a485cf1182f3c2c4bc0728037ad5dc22bd48633e9f98f0fa648f927fb40dec3cd070c2f82c63f16d29f782d5b72bd71f4b63dfde51bdd1620081f21092604092600d5492600e5493600f549083600d5582600e5584600f557f968d937680c1f7f833709125e5fe03f808947ae9cc8425608eca21a9b361ae47875180613856888789846040919493926060820195825260208201520152565b0390a16f676f7665726e616e63655f72756c657360801b875152865195871b9060801b17178452841b9060801b17176020820152a280f35b60405162461bcd60e51b815260206004820152601d60248201527f5732453a20496e76616c696420656d657267656e637920706572696f640000006044820152606490fd5b506276a7008211156137b1565b60405162461bcd60e51b815260206004820152601a60248201527f5732453a20496e76616c696420766f74696e6720706572696f640000000000006044820152606490fd5b5062278d0083111561379f565b60405162461bcd60e51b81526020600482015260136024820152725732453a20496e76616c69642071756f72756d60681b6044820152606490fd5b50606481111561378d565b50346103f657806003193601126103f6576020601e54604051908152f35b50346103f657806003193601126103f65760208054604051908152f35b50346103f65760203660031901126103f6576139fb6004356139e060018060a01b03600654163314613f20565b6139e8613e60565b6139f3811515613dc2565b600a54613e53565b600a556001805580f35b50346103f657806003193601126103f657602060ff60145460081c1660405190613a2e81613a74565b8152f35b50346103f657806003193601126103f65760206040516101f48152f35b9050346115365781600319360112611536576006546001600160a01b03168152602090f35b60041115613a7e57565b634e487b7160e01b600052602160045260246000fd5b600435906001600160a01b038216820361111457565b602435906001600160a01b038216820361111457565b906005821015613a7e5752565b60005b838110613ae05750506000910152565b8181015183820152602001613ad0565b90602091613b0981518092818552858086019101613acd565b601f01601f1916010190565b9181601f84011215611114578235916001600160401b038311611114576020838186019501011161111457565b61016081019081106001600160401b03821117613b5e57604052565b634e487b7160e01b600052604160045260246000fd5b6001600160401b038111613b5e57604052565b608081019081106001600160401b03821117613b5e57604052565b90601f801991011681019081106001600160401b03821117613b5e57604052565b6001600160401b038111613b5e5760051b60200190565b90600182811c92168015613c0a575b6020831014613bf457565b634e487b7160e01b600052602260045260246000fd5b91607f1691613be9565b9060405191826000825492613c2884613bda565b908184526001948581169081600014613c975750600114613c54575b5050613c5292500383613ba2565b565b9093915060005260209081600020936000915b818310613c7f575050613c5293508201013880613c44565b85548884018501529485019487945091830191613c67565b915050613c5294506020925060ff191682840152151560051b8201013880613c44565b6000546001600160a01b03163303613cce57565b606460405162461bcd60e51b815260206004820152602060248201527f4f776e61626c653a2063616c6c6572206973206e6f7420746865206f776e65726044820152fd5b6000198114613d215760010190565b634e487b7160e01b600052601160045260246000fd5b6001600160401b038111613b5e57601f01601f191660200190565b929192613d5e82613d37565b91613d6c6040519384613ba2565b829481845281830111611114578281602093846000960137010152565b906005811015613a7e5760ff80198354169116179055565b908060209392818452848401376000828201840152601f01601f1916010190565b15613dc957565b60405162461bcd60e51b815260206004820152601c60248201527f5732453a20416d6f756e74206d75737420626520706f736974697665000000006044820152606490fd5b15613e1557565b60405162461bcd60e51b815260206004820152601660248201527515cc914e88125b9d985b1a59081c9958da5c1a595b9d60521b6044820152606490fd5b91908201809211613d2157565b600260015414613e71576002600155565b60405162461bcd60e51b815260206004820152601f60248201527f5265656e7472616e637947756172643a207265656e7472616e742063616c6c006044820152606490fd5b81810292918115918404141715613d2157565b80600052601b6020526040600020600560028201549101548015613f1b577fda04004d58812f3e164f58e498158acca1b0054d975fce0e3bafdf56f2e254ba91604091825191818352046020820152a2565b505050565b15613f2757565b60405162461bcd60e51b815260206004820152601760248201527f5732453a204e6f742050616e646f7261204f7261636c650000000000000000006044820152606490fd5b15613f7357565b60405162461bcd60e51b815260206004820152601b60248201527f5732453a20496e76616c696420776f726b6572206164647265737300000000006044820152606490fd5b91908203918211613d2157565b60009060033d11613fd257565b905060046000803e60005160e01c90565b600060443d1061404057604051600319913d83016004833e81516001600160401b03918282113d6024840111176140435781840194855193841161404b573d85010160208487010111614043575061404092910160200190613ba2565b90565b949350505050565b50949350505050565b3d1561407f573d9061406582613d37565b916140736040519384613ba2565b82523d6000602084013e565b606090565b1561408b57565b60405162461bcd60e51b815260206004820152601e60248201527f5732453a204f6e6c792063726561746f722063616e20776974686472617700006044820152606490fd5b156140d757565b60405162461bcd60e51b815260206004820152602360248201527f5732453a204e6f2066756e647320617661696c61626c6520666f7220637265616044820152623a37b960e91b6064820152608490fd5b1561412f57565b60405162461bcd60e51b815260206004820152601a60248201527f5732453a2043726561746f72207061796f7574206661696c65640000000000006044820152606490fd5b1561417b57565b60405162461bcd60e51b815260206004820152602160248201527f5732453a20456d657267656e637920706572696f64206e6f74207265616368656044820152601960fa1b6064820152608490fd5b156141d157565b60405162461bcd60e51b815260206004820152602260248201527f5732453a20496e73756666696369656e7420636f6e74726163742062616c616e604482015261636560f01b6064820152608490fd5b6000908152601b602052604081209060ff6007830154166005811015614304576142ff576142586005830154600684015490613e53565b60025460405163144613ff60e31b8152919291906020908290600490829060081c6001600160a01b03165afa91821561213e5780926142c8575b50506142a3606491600d5490613eb6565b0411908115916142b1575090565b6142c3915060040154600e5490613e53565b421190565b9091506020823d82116142f7575b816142e360209383613ba2565b810103126103f65750516142a36064614292565b3d91506142d6565b905090565b634e487b7160e01b82526021600452602482fd5b805182101561432c5760209160051b010190565b634e487b7160e01b600052603260045260246000fd5b600a5460155481108015614391575b61438b5761436460175460165490613e53565b421161438b57606461437c6143869260095490613eb6565b04600b5490613fb8565b151590565b50600090565b5060175415614351565b60035460405163c345315360e01b81526001600160a01b0392831660048201529160809183916024918391165afa60009182828492859461440a575b506143e55750505050600090565b826143f7575b50506140405750600090565b6144019250613e53565b421038806143eb565b9492509250506080833d8211614458575b8161442860809383613ba2565b810103126103f657825192602081015193606060408301519201519283151584036103f6575093909192386143d7565b3d915061441b56fec776fbd4d206dd3edc8ac9ca9129ed5cc454a4663161f6b97bfa8cae6918ad1fa26469706673582212207cd81e7955534edde49e508c13b4c900d03e780beb172be39440f4d04859ed1264736f6c63430008140033608060405234620005ea5762001fe6803803806200001d81620005ef565b92833981019061016081830312620005ea5780516001600160401b0390818111620005ea57836200005091840162000640565b926020830151918211620005ea576200006b91830162000640565b62000079604083016200062b565b9162000088606082016200062b565b60808201519160a08101519460c082015160e08301519061010084015192620000bb61014061012087015196016200062b565b50620000c73362000703565b600180556002805460ff191681558a51106200059957600388511062000555576001600160a01b0381161562000510576001600160a01b03861615620004cb57600187101580620004bf575b156200046f5760028910158062000463575b156200041e5760005b8a5181101562000249576001600160a01b036200014c828d620006d8565b51161562000204576001600160a01b0362000168828d620006d8565b5116600052600360205260ff60406000205416620001bf57620001b9906001600160a01b0362000199828e620006d8565b511660005260036020526040600020600160ff19825416179055620006b2565b6200012e565b60405162461bcd60e51b815260206004820152601d60248201527f5732453a204475706c69636174652050616e646f7261207369676e65720000006044820152606490fd5b60405162461bcd60e51b815260206004820152601b60248201527f5732453a20496e76616c69642050616e646f7261207369676e657200000000006044820152606490fd5b508860005b895181101562000369576001600160a01b036200026c828c620006d8565b51161562000324576001600160a01b0362000288828c620006d8565b5116600052600460205260ff60406000205416620002df57620002d9906001600160a01b03620002b9828d620006d8565b511660005260046020526040600020600160ff19825416179055620006b2565b6200024e565b60405162461bcd60e51b815260206004820152601960248201527f5732453a204475706c69636174652044414f207369676e6572000000000000006044820152606490fd5b60405162461bcd60e51b815260206004820152601760248201527f5732453a20496e76616c69642044414f207369676e65720000000000000000006044820152606490fd5b508760055560065560018060a01b03199060018060a01b031681600754161760075560018060a01b038616906008541617600855600955600a55600b55600e55426010553360018060a01b036000541603620003da57620003ca9062000703565b60405161189b90816200074b8239f35b606460405162461bcd60e51b815260206004820152602060248201527f4f776e61626c653a2063616c6c6572206973206e6f7420746865206f776e65726044820152fd5b60405162461bcd60e51b815260206004820152601e60248201527f5732453a20496e76616c69642044414f20636f6e6669726d6174696f6e7300006044820152606490fd5b50875189111562000125565b60405162461bcd60e51b815260206004820152602260248201527f5732453a20496e76616c69642050616e646f726120636f6e6669726d6174696f6044820152616e7360f01b6064820152608490fd5b50895187111562000113565b60405162461bcd60e51b815260206004820152601560248201527f5732453a20496e76616c696420676f7665726e6f7200000000000000000000006044820152606490fd5b60405162461bcd60e51b815260206004820152601360248201527f5732453a20496e76616c6964206f7261636c65000000000000000000000000006044820152606490fd5b606460405162461bcd60e51b815260206004820152602060248201527f5732453a204e656564206174206c6561737420332044414f207369676e6572736044820152fd5b60405162461bcd60e51b8152602060048201526024808201527f5732453a204e656564206174206c6561737420322050616e646f7261207369676044820152636e65727360e01b6064820152608490fd5b600080fd5b6040519190601f01601f191682016001600160401b038111838210176200061557604052565b634e487b7160e01b600052604160045260246000fd5b51906001600160a01b0382168203620005ea57565b81601f82011215620005ea578051916001600160401b03831162000615578260051b602092838062000674818501620005ef565b809781520192820101928311620005ea578301905b82821062000698575050505090565b838091620006a6846200062b565b81520191019062000689565b6000198114620006c25760010190565b634e487b7160e01b600052601160045260246000fd5b8051821015620006ed5760209160051b010190565b634e487b7160e01b600052603260045260246000fd5b600080546001600160a01b039283166001600160a01b03198216811783559216907f8be0079c531659141344cd1fd0a4f28419497f9722a3daafe3b4186f6b6457e09080a356fe6080604081815260049182361015610022575b505050361561002057600080fd5b005b600092833560e01c9182628ac91d1461135457508163013cf08b146112cc578163025f77cb146112a357816308330a14146110fe5781630d61b5191461102057816312065fe0146110055781631b8f4a3914610f305781633027a00514610ef35781633e882b6c14610ed45781633f4ba83a14610e3e5781635c975abb14610e1a578163715018a614610dc05781637d19ac7b14610cbc5781637f819c6114610c9d5781638456cb5914610c095781638a78e3bd14610bcb5781638da5cb5b14610ba3578163a2240e1914610ad1578163b026a79b14610ab2578163b4a7a18714610a93578163b679e0bc14610938578163bb4ee28114610884578163bc28d87814610790578163bc903cb814610712578163bcd037c8146106f3578163bf49ec301461054a578163c19c1dfb1461052b578163cc63604a146104c0578163da35c664146104a1578163dc3c491e146102d7578163e3625787146102b8578163f059cf2b14610299578163f2fde38b146101d2575063fd1e77f6146101a75780610012565b346101ce57816003193601126101ce5760085490516001600160a01b039091168152602090f35b5080fd5b905034610295576020366003190112610295576101ed611393565b906101f66113c4565b6001600160a01b0391821692831561024357505082546001600160a01b0319811683178455167f8be0079c531659141344cd1fd0a4f28419497f9722a3daafe3b4186f6b6457e08380a380f35b906020608492519162461bcd60e51b8352820152602660248201527f4f776e61626c653a206e6577206f776e657220697320746865207a65726f206160448201526564647265737360d01b6064820152fd5b8280fd5b5050346101ce57816003193601126101ce57602090600f549051908152f35b83346102d457806003193601126102d4576102d16113c4565b80f35b80fd5b919050346102955760208060031936011261049d5782359160018060a01b03610305816007541633146115c3565b838652600c835281862060018101958654600954811061044c576005830154600a54906201518091828102928184041490151715610439579061034791611799565b42106103f65760068301805460ff19166003179055610365906117a6565b87808080868654168b54905af161037a61169f565b50156103b35750907f64fc870a506f8609c6ec600ea66ff687bb7d87a7054b69a82096289efd1b9457939291541694549051908152a380f35b835162461bcd60e51b8152908101859052601e60248201527f5732453a20456d657267656e6379207472616e73666572206661696c656400006044820152606490fd5b845162461bcd60e51b8152808301879052601d60248201527f5732453a20456d657267656e637920706572696f64206e6f74206d65740000006044820152606490fd5b634e487b7160e01b8b526011845260248bfd5b845162461bcd60e51b8152808301879052602560248201527f5732453a20416d6f756e742062656c6f7720656d657267656e637920746872656044820152641cda1bdb1960da1b6064820152608490fd5b8380fd5b5050346101ce57816003193601126101ce57602090600d549051908152f35b8383346101ce5760203660031901126101ce5782358252600c602052600681832001549160ff831690600582101561051857602060018314848682610509575b50519015158152f35b60081c60ff1615915083610500565b634e487b7160e01b815260218552602490fd5b5050346101ce57816003193601126101ce576020906005549051908152f35b9190503461029557606036600319011261029557610566611393565b67ffffffffffffffff92602435916044358581116106ef57366023820112156106ef57808301359586116106ef5736602487830101116106ef576007546001600160a01b0393906105ba90851633146115c3565b6105c2611743565b600b548511610699576105d74786111561141c565b6105e0856117a6565b8780808088875af16105f061169f565b5015610656575091849391866024606095827f0fb5fc6cac683d927f79899abfc1ebb501806f459b7a1928ea31e5ef6ec7d0e899519889978852806020890152870152018585013782870184018890521694601f01601f19168101030190a26001805580f35b606490602087519162461bcd60e51b8352820152601c60248201527f5732453a20446972656374206f7065726174696f6e206661696c6564000000006044820152fd5b608490602087519162461bcd60e51b8352820152602a60248201527f5732453a20416d6f756e74206578636565647320646972656374206f706572616044820152691d1a5bdb881b1a5b5a5d60b21b6064820152fd5b8680fd5b5050346101ce57816003193601126101ce576020906009549051908152f35b91905034610295576020366003190112610295578060ff9160e09484358152600c6020522060018060a01b0381541693600182015492600283015490600660038501549385015494015494815197885260208801528601526060850152608084015261078360a08401838316611370565b60081c16151560c0820152f35b9050346102955760203660031901126102955780359160018060a01b036007541633148015610870575b1561082d57828452600c60205283206006018054909160ff821690600582101561081a5750906107ec600292156114d9565b60ff19161790557fd92fba445edb3153b571e6df782d7a66fd0ce668519273670820ee3a86da0ef48280a280f35b634e487b7160e01b865260219052602485fd5b906020606492519162461bcd60e51b8352820152601d60248201527f5732453a204e6f7420617574686f72697a656420746f2072656a6563740000006044820152fd5b503384528160205260ff81852054166107ba565b9190503461029557610895366113ae565b9290916108a06113c4565b82156108fc57600784106108b9575050600955600a5580f35b906020606492519162461bcd60e51b8352820152601e60248201527f5732453a20496e76616c696420696e616374697669747920706572696f6400006044820152fd5b906020606492519162461bcd60e51b8352820152601660248201527515cc914e88125b9d985b1a59081d1a1c995cda1bdb1960521b6044820152fd5b9190503461029557602036600319011261029557813590338452600360205261096660ff828620541661148d565b61096e611743565b818452600c60205280842092600684019081549060ff82166005811015610a8057600161099b911461160f565b6109ab60ff8360081c161561165b565b6002600387015410610a2d57509160209160037f3b7c90df35b419337cff0919fe91849006607bb66c4373623f06f9d48c1ebb989460ff191617905560018501946109f686546117a6565b60018060a01b0390610a1c88808080868654168c54905af1610a1661169f565b50611700565b541694549051908152a36001805580f35b608490602085519162461bcd60e51b8352820152602760248201527f5732453a20496e73756666696369656e742050616e646f726120636f6e6669726044820152666d6174696f6e7360c81b6064820152fd5b634e487b7160e01b885260218252602488fd5b5050346101ce57816003193601126101ce576020906010549051908152f35b5050346101ce57816003193601126101ce57602090600b549051908152f35b9190503461029557610ae2366113ae565b929091610aed6113c4565b82151580610b9a575b15610b6157828411610b0d575050600e55600b5580f35b906020608492519162461bcd60e51b8352820152602860248201527f5732453a20446972656374206c696d6974206d757374206265203c3d206461696044820152671b1e481b1a5b5a5d60c21b6064820152fd5b906020606492519162461bcd60e51b835282015260136024820152725732453a20496e76616c6964206c696d69747360681b6044820152fd5b50831515610af6565b5050346101ce57816003193601126101ce57905490516001600160a01b039091168152602090f35b5050346101ce5760203660031901126101ce5760209160ff9082906001600160a01b03610bf6611393565b1681526003855220541690519015158152f35b905034610295578260031936011261029557610c236113c4565b6002549060ff8216610c67575060ff1916600117600255513381527f62e78cea01bee320cd4e420270b5ea74000d11b0c9f74754ebdbfc544b05a25890602090a180f35b606490602084519162461bcd60e51b8352820152601060248201526f14185d5cd8589b194e881c185d5cd95960821b6044820152fd5b5050346101ce57816003193601126101ce576020906006549051908152f35b8383346101ce57602092836003193601126102955780359133845281855260ff818520541615610d8857828452600c85528084209060ff600683015416956005871015610d7557610d116102d19697156114d9565b6008830190338852818152610d2c60ff848a20541615611525565b338852528520600160ff1982541617905501610d488154611468565b905533817f497af2a04e2020d6b5425410f75c514b7a1467c3f321a902a8ee29e5f58b83838580a361157f565b634e487b7160e01b865260218452602486fd5b5162461bcd60e51b815290810184905260136024820152722b99229d102737ba102220a79039b4b3b732b960691b6044820152606490fd5b83346102d457806003193601126102d457610dd96113c4565b80546001600160a01b03198116825581906001600160a01b03167f8be0079c531659141344cd1fd0a4f28419497f9722a3daafe3b4186f6b6457e08280a380f35b5050346101ce57816003193601126101ce5760209060ff6002541690519015158152f35b905034610295578260031936011261029557610e586113c4565b6002549060ff821615610e9a575060ff1916600255513381527f5db9ee0a495bf2e6ff9c91a7834c1ba4fdd244a5e8aa4e537bd38aeae4b073aa90602090a180f35b606490602084519162461bcd60e51b8352820152601460248201527314185d5cd8589b194e881b9bdd081c185d5cd95960621b6044820152fd5b5050346101ce57816003193601126101ce57602090600a549051908152f35b9050346102955760203660031901126102955760209260ff918391906001600160a01b03610f1f611393565b168252855220541690519015158152f35b8383346101ce5760203660031901126101ce578235903383526003602052610f5d60ff828520541661148d565b818352600c6020528083209060ff6006830154166005811015610ff25791600391610f8c6102d19594156114d9565b6007820133875280602052610fa760ff838920541615611525565b3387526020528520600160ff1982541617905501610fc58154611468565b905533817f5555650fe50b1775aba29f9b22419cebc9472e2cf125159d41a92ab8e756cc7e8580a361157f565b634e487b7160e01b855260218652602485fd5b5050346101ce57816003193601126101ce5751478152602090f35b919050346102955760203660031901126102955781359060018060a01b0361104d816007541633146115c3565b611055611743565b828552600c60205281852093600685019081549060ff82169060058210156110eb5750916003602094926110ad60017f3b7c90df35b419337cff0919fe91849006607bb66c4373623f06f9d48c1ebb9898961461160f565b6110bd60ff8260081c161561165b565b60ff191617905560018601956110d387546117a6565b610a1c88808080868654168c54905af1610a1661169f565b634e487b7160e01b895260219052602488fd5b905082346102d45760603660031901126102d45761111a611393565b604435916024359161112a6113c4565b6001600160a01b03169384156112675782156112245761114c4784111561141c565b83156111e157602060068787877f85b1e5bd1e58840265c40582ff09f8cbfab823e041a824467b654a99b5156d3960608989611189600d54611468565b97889586600d55868352600c8b5288832090886bffffffffffffffffffffffff60a01b83541617825584600183015560028201554260058201550160ff1981541690558651918252868983015286820152a351908152f35b606490602087519162461bcd60e51b8352820152601960248201527f5732453a20496e76616c696420707572706f73652068617368000000000000006044820152fd5b606490602087519162461bcd60e51b8352820152601c60248201527f5732453a20416d6f756e74206d75737420626520706f736974697665000000006044820152fd5b606490602087519162461bcd60e51b8352820152601660248201527515cc914e88125b9d985b1a59081c9958da5c1a595b9d60521b6044820152fd5b5050346101ce57816003193601126101ce5760075490516001600160a01b039091168152602090f35b9050346102955760203660031901126102955780826101009460ff93358152600c6020522060018060a01b03815416936001820154926002830154600384015491840154926006600586015495015495815198895260208901528701526060860152608085015260a084015261134760c08401838316611370565b60081c16151560e0820152f35b8490346101ce57816003193601126101ce57602090600e548152f35b90600582101561137d5752565b634e487b7160e01b600052602160045260246000fd5b600435906001600160a01b03821682036113a957565b600080fd5b60409060031901126113a9576004359060243590565b6000546001600160a01b031633036113d857565b606460405162461bcd60e51b815260206004820152602060248201527f4f776e61626c653a2063616c6c6572206973206e6f7420746865206f776e65726044820152fd5b1561142357565b60405162461bcd60e51b815260206004820152601960248201527f5732453a20496e73756666696369656e742062616c616e6365000000000000006044820152606490fd5b60001981146114775760010190565b634e487b7160e01b600052601160045260246000fd5b1561149457565b60405162461bcd60e51b815260206004820152601760248201527f5732453a204e6f742050616e646f7261207369676e65720000000000000000006044820152606490fd5b156114e057565b60405162461bcd60e51b815260206004820152601960248201527f5732453a2050726f706f73616c206e6f742070656e64696e67000000000000006044820152606490fd5b1561152c57565b60405162461bcd60e51b815260206004820152602560248201527f5732453a20416c726561647920636f6e6669726d65642062792074686973207360448201526434b3b732b960d91b6064820152608490fd5b600052600c602052604060002060038101546005541115806115b3575b6115a35750565b600601805460ff19166001179055565b506004810154600654111561159c565b156115ca57565b60405162461bcd60e51b815260206004820152601760248201527f5732453a204e6f742050616e646f7261206f7261636c650000000000000000006044820152606490fd5b1561161657565b60405162461bcd60e51b815260206004820152601a60248201527f5732453a2050726f706f73616c206e6f7420617070726f7665640000000000006044820152606490fd5b1561166257565b60405162461bcd60e51b815260206004820152601560248201527415cc914e88141c9bdc1bdcd85b08195e1c1a5c9959605a1b6044820152606490fd5b3d156116fb5767ffffffffffffffff903d8281116116e55760405192601f8201601f19908116603f01168401908111848210176116e55760405282523d6000602084013e565b634e487b7160e01b600052604160045260246000fd5b606090565b1561170757565b60405162461bcd60e51b815260206004820152601460248201527315cc914e88151c985b9cd9995c8819985a5b195960621b6044820152606490fd5b600260015414611754576002600155565b60405162461bcd60e51b815260206004820152601f60248201527f5265656e7472616e637947756172643a207265656e7472616e742063616c6c006044820152606490fd5b9190820180921161147757565b60105462015180810180911161147757421015611827575b600f54906117cc8183611799565b600e54106117e2576117dd91611799565b600f55565b60405162461bcd60e51b815260206004820152601960248201527f5732453a204461696c79206c696d6974206578636565646564000000000000006044820152606490fd5b6000600f55426010557fda4e39dd56d72c2ee3d132e0146bc39e905e78e3bc64c40190421c7b2bcef2ab6040805160008152426020820152a16117be56fea264697066735822122003767ffc880fdf967c46188cee76b64ab4741f1660bbeb2e4cc6ee79d18e670864736f6c63430008140033a2646970667358221220137e603cc2bd2a258b5abeee811afed992567db633a5ac510f9dff968243b1db64736f6c63430008140033",
  "linkReferences": {},
  "deployedLinkReferences": {}
}