{
  "_format": "hh-sol-artifact-1",
  "contractName": "ModularFactory",
  "sourceName": "contracts/core/ModularFactory.sol",
  "abi": [
    {
      "inputs": [
        {
          "internalType": "address",
          "name": "_pboxToken",
          "type": "address"
        },
        {
          "internalType": "address",
          "name": "_pandoraKey",
          "type": "address"
        },
        {
          "internalType": "address",
          "name": "_rootTreasury",
          "type": "address"
        },
        {
          "internalType": "address",
          "name": "_pandoraOracle",
          "type": "address"
        },
        {
          "internalType": "address",
          "name": "initialOwner",
          "type": "address"
        }
      ],
      "stateMutability": "nonpayable",
      "type": "constructor"
    },
    {
      "anonymous": false,
      "inputs": [
        {
          "indexed": true,
          "internalType": "string",
          "name": "slug",
          "type": "string"
        },
        {
          "indexed": false,
          "internalType": "uint256",
          "name": "activationTime",
          "type": "uint256"
        }
      ],
      "name": "CreationActivated",
      "type": "event"
    },
    {
      "anonymous": false,
      "inputs": [
        {
          "indexed": true,
          "internalType": "string",
          "name": "slug",
          "type": "string"
        },
        {
          "indexed": true,
          "internalType": "address",
          "name": "creator",
          "type": "address"
        },
        {
          "components": [
            {
              "internalType": "address",
              "name": "registry",
              "type": "address"
            },
            {
              "internalType": "address",
              "name": "treasury",
              "type": "address"
            },
            {
              "internalType": "address",
              "name": "loom",
              "type": "address"
            },
            {
              "internalType": "address",
              "name": "governor",
              "type": "address"
            },
            {
              "internalType": "address",
              "name": "timelock",
              "type": "address"
            }
          ],
          "indexed": false,
          "internalType": "struct ModularFactory.ContractAddresses",
          "name": "addresses",
          "type": "tuple"
        },
        {
          "indexed": false,
          "internalType": "uint256",
          "name": "initialCapital",
          "type": "uint256"
        }
      ],
      "name": "CreationDeployed",
      "type": "event"
    },
    {
      "anonymous": false,
      "inputs": [
        {
          "indexed": true,
          "internalType": "string",
          "name": "slug",
          "type": "string"
        },
        {
          "indexed": false,
          "internalType": "string",
          "name": "reason",
          "type": "string"
        }
      ],
      "name": "CreationPaused",
      "type": "event"
    },
    {
      "anonymous": false,
      "inputs": [
        {
          "indexed": true,
          "internalType": "string",
          "name": "slug",
          "type": "string"
        }
      ],
      "name": "CreationResumed",
      "type": "event"
    },
    {
      "anonymous": false,
      "inputs": [
        {
          "indexed": false,
          "internalType": "uint256",
          "name": "oldFee",
          "type": "uint256"
        },
        {
          "indexed": false,
          "internalType": "uint256",
          "name": "newFee",
          "type": "uint256"
        }
      ],
      "name": "DeploymentFeeUpdated",
      "type": "event"
    },
    {
      "anonymous": false,
      "inputs": [
        {
          "indexed": true,
          "internalType": "address",
          "name": "previousOwner",
          "type": "address"
        },
        {
          "indexed": true,
          "internalType": "address",
          "name": "newOwner",
          "type": "address"
        }
      ],
      "name": "OwnershipTransferred",
      "type": "event"
    },
    {
      "anonymous": false,
      "inputs": [
        {
          "indexed": false,
          "internalType": "address",
          "name": "account",
          "type": "address"
        }
      ],
      "name": "Paused",
      "type": "event"
    },
    {
      "anonymous": false,
      "inputs": [
        {
          "indexed": false,
          "internalType": "address",
          "name": "account",
          "type": "address"
        }
      ],
      "name": "Unpaused",
      "type": "event"
    },
    {
      "inputs": [
        {
          "internalType": "string",
          "name": "slug",
          "type": "string"
        }
      ],
      "name": "activateCreation",
      "outputs": [],
      "stateMutability": "nonpayable",
      "type": "function"
    },
    {
      "inputs": [
        {
          "internalType": "uint256",
          "name": "initialCapital",
          "type": "uint256"
        }
      ],
      "name": "calculateDeploymentCost",
      "outputs": [
        {
          "internalType": "uint256",
          "name": "deploymentFee_",
          "type": "uint256"
        },
        {
          "internalType": "uint256",
          "name": "initialCapital_",
          "type": "uint256"
        },
        {
          "internalType": "uint256",
          "name": "totalCost",
          "type": "uint256"
        }
      ],
      "stateMutability": "view",
      "type": "function"
    },
    {
      "inputs": [
        {
          "internalType": "string",
          "name": "",
          "type": "string"
        }
      ],
      "name": "creationAddresses",
      "outputs": [
        {
          "internalType": "address",
          "name": "registry",
          "type": "address"
        },
        {
          "internalType": "address",
          "name": "treasury",
          "type": "address"
        },
        {
          "internalType": "address",
          "name": "loom",
          "type": "address"
        },
        {
          "internalType": "address",
          "name": "governor",
          "type": "address"
        },
        {
          "internalType": "address",
          "name": "timelock",
          "type": "address"
        }
      ],
      "stateMutability": "view",
      "type": "function"
    },
    {
      "inputs": [
        {
          "internalType": "string",
          "name": "",
          "type": "string"
        }
      ],
      "name": "creations",
      "outputs": [
        {
          "internalType": "string",
          "name": "slug",
          "type": "string"
        },
        {
          "internalType": "string",
          "name": "name",
          "type": "string"
        },
        {
          "internalType": "address",
          "name": "creator",
          "type": "address"
        },
        {
          "internalType": "uint256",
          "name": "deployedAt",
          "type": "uint256"
        },
        {
          "internalType": "uint256",
          "name": "initialCapital",
          "type": "uint256"
        },
        {
          "internalType": "bool",
          "name": "active",
          "type": "bool"
        },
        {
          "internalType": "uint256",
          "name": "totalFeesCollected",
          "type": "uint256"
        }
      ],
      "stateMutability": "view",
      "type": "function"
    },
    {
      "inputs": [
        {
          "internalType": "uint256",
          "name": "",
          "type": "uint256"
        }
      ],
      "name": "creationsPerDay",
      "outputs": [
        {
          "internalType": "uint256",
          "name": "",
          "type": "uint256"
        }
      ],
      "stateMutability": "view",
      "type": "function"
    },
    {
      "inputs": [
        {
          "components": [
            {
              "internalType": "string",
              "name": "slug",
              "type": "string"
            },
            {
              "internalType": "string",
              "name": "name",
              "type": "string"
            },
            {
              "internalType": "uint256",
              "name": "targetAmount",
              "type": "uint256"
            },
            {
              "internalType": "uint256",
              "name": "creatorPayoutPct",
              "type": "uint256"
            },
            {
              "internalType": "uint256",
              "name": "quorumPercentage",
              "type": "uint256"
            },
            {
              "internalType": "uint256",
              "name": "votingPeriodHours",
              "type": "uint256"
            },
            {
              "internalType": "address[]",
              "name": "treasurySigners",
              "type": "address[]"
            },
            {
              "internalType": "uint256",
              "name": "initialCapital",
              "type": "uint256"
            }
          ],
          "internalType": "struct ModularFactory.DeploymentConfig",
          "name": "config",
          "type": "tuple"
        }
      ],
      "name": "deployProtocolStack",
      "outputs": [
        {
          "components": [
            {
              "internalType": "address",
              "name": "registry",
              "type": "address"
            },
            {
              "internalType": "address",
              "name": "treasury",
              "type": "address"
            },
            {
              "internalType": "address",
              "name": "loom",
              "type": "address"
            },
            {
              "internalType": "address",
              "name": "governor",
              "type": "address"
            },
            {
              "internalType": "address",
              "name": "timelock",
              "type": "address"
            }
          ],
          "internalType": "struct ModularFactory.ContractAddresses",
          "name": "addresses",
          "type": "tuple"
        }
      ],
      "stateMutability": "payable",
      "type": "function"
    },
    {
      "inputs": [],
      "name": "deploymentFee",
      "outputs": [
        {
          "internalType": "uint256",
          "name": "",
          "type": "uint256"
        }
      ],
      "stateMutability": "view",
      "type": "function"
    },
    {
      "inputs": [],
      "name": "emergencyPause",
      "outputs": [],
      "stateMutability": "nonpayable",
      "type": "function"
    },
    {
      "inputs": [],
      "name": "emergencyResume",
      "outputs": [],
      "stateMutability": "nonpayable",
      "type": "function"
    },
    {
      "inputs": [
        {
          "internalType": "string",
          "name": "slug",
          "type": "string"
        }
      ],
      "name": "getCreation",
      "outputs": [
        {
          "components": [
            {
              "internalType": "string",
              "name": "slug",
              "type": "string"
            },
            {
              "internalType": "string",
              "name": "name",
              "type": "string"
            },
            {
              "internalType": "address",
              "name": "creator",
              "type": "address"
            },
            {
              "internalType": "uint256",
              "name": "deployedAt",
              "type": "uint256"
            },
            {
              "internalType": "uint256",
              "name": "initialCapital",
              "type": "uint256"
            },
            {
              "internalType": "bool",
              "name": "active",
              "type": "bool"
            },
            {
              "internalType": "uint256",
              "name": "totalFeesCollected",
              "type": "uint256"
            }
          ],
          "internalType": "struct ModularFactory.CreationInfo",
          "name": "info",
          "type": "tuple"
        },
        {
          "components": [
            {
              "internalType": "address",
              "name": "registry",
              "type": "address"
            },
            {
              "internalType": "address",
              "name": "treasury",
              "type": "address"
            },
            {
              "internalType": "address",
              "name": "loom",
              "type": "address"
            },
            {
              "internalType": "address",
              "name": "governor",
              "type": "address"
            },
            {
              "internalType": "address",
              "name": "timelock",
              "type": "address"
            }
          ],
          "internalType": "struct ModularFactory.ContractAddresses",
          "name": "addresses",
          "type": "tuple"
        }
      ],
      "stateMutability": "view",
      "type": "function"
    },
    {
      "inputs": [],
      "name": "getFactoryMetrics",
      "outputs": [
        {
          "internalType": "uint256",
          "name": "totalCreations_",
          "type": "uint256"
        },
        {
          "internalType": "uint256",
          "name": "activeCreations",
          "type": "uint256"
        },
        {
          "internalType": "uint256",
          "name": "pausedCreations",
          "type": "uint256"
        },
        {
          "internalType": "uint256",
          "name": "todayCreations",
          "type": "uint256"
        }
      ],
      "stateMutability": "view",
      "type": "function"
    },
    {
      "inputs": [
        {
          "internalType": "string",
          "name": "slug",
          "type": "string"
        }
      ],
      "name": "isSlugAvailable",
      "outputs": [
        {
          "internalType": "bool",
          "name": "",
          "type": "bool"
        }
      ],
      "stateMutability": "view",
      "type": "function"
    },
    {
      "inputs": [],
      "name": "maxCreationsPerDay",
      "outputs": [
        {
          "internalType": "uint256",
          "name": "",
          "type": "uint256"
        }
      ],
      "stateMutability": "view",
      "type": "function"
    },
    {
      "inputs": [],
      "name": "minInitialCapital",
      "outputs": [
        {
          "internalType": "uint256",
          "name": "",
          "type": "uint256"
        }
      ],
      "stateMutability": "view",
      "type": "function"
    },
    {
      "inputs": [],
      "name": "owner",
      "outputs": [
        {
          "internalType": "address",
          "name": "",
          "type": "address"
        }
      ],
      "stateMutability": "view",
      "type": "function"
    },
    {
      "inputs": [],
      "name": "pandoraKey",
      "outputs": [
        {
          "internalType": "address",
          "name": "",
          "type": "address"
        }
      ],
      "stateMutability": "view",
      "type": "function"
    },
    {
      "inputs": [],
      "name": "pandoraOracle",
      "outputs": [
        {
          "internalType": "address",
          "name": "",
          "type": "address"
        }
      ],
      "stateMutability": "view",
      "type": "function"
    },
    {
      "inputs": [
        {
          "internalType": "string",
          "name": "slug",
          "type": "string"
        },
        {
          "internalType": "string",
          "name": "reason",
          "type": "string"
        }
      ],
      "name": "pauseCreation",
      "outputs": [],
      "stateMutability": "nonpayable",
      "type": "function"
    },
    {
      "inputs": [],
      "name": "paused",
      "outputs": [
        {
          "internalType": "bool",
          "name": "",
          "type": "bool"
        }
      ],
      "stateMutability": "view",
      "type": "function"
    },
    {
      "inputs": [],
      "name": "pboxToken",
      "outputs": [
        {
          "internalType": "address payable",
          "name": "",
          "type": "address"
        }
      ],
      "stateMutability": "view",
      "type": "function"
    },
    {
      "inputs": [],
      "name": "renounceOwnership",
      "outputs": [],
      "stateMutability": "nonpayable",
      "type": "function"
    },
    {
      "inputs": [
        {
          "internalType": "string",
          "name": "slug",
          "type": "string"
        }
      ],
      "name": "resumeCreation",
      "outputs": [],
      "stateMutability": "nonpayable",
      "type": "function"
    },
    {
      "inputs": [],
      "name": "rootTreasury",
      "outputs": [
        {
          "internalType": "address",
          "name": "",
          "type": "address"
        }
      ],
      "stateMutability": "view",
      "type": "function"
    },
    {
      "inputs": [],
      "name": "totalCreations",
      "outputs": [
        {
          "internalType": "uint256",
          "name": "",
          "type": "uint256"
        }
      ],
      "stateMutability": "view",
      "type": "function"
    },
    {
      "inputs": [
        {
          "internalType": "address",
          "name": "newOwner",
          "type": "address"
        }
      ],
      "name": "transferOwnership",
      "outputs": [],
      "stateMutability": "nonpayable",
      "type": "function"
    },
    {
      "inputs": [
        {
          "internalType": "address",
          "name": "newPBOXToken",
          "type": "address"
        },
        {
          "internalType": "address",
          "name": "newPandoraKey",
          "type": "address"
        },
        {
          "internalType": "address",
          "name": "newRootTreasury",
          "type": "address"
        },
        {
          "internalType": "address",
          "name": "newOracle",
          "type": "address"
        }
      ],
      "name": "updateCoreAddresses",
      "outputs": [],
      "stateMutability": "nonpayable",
      "type": "function"
    },
    {
      "inputs": [
        {
          "internalType": "uint256",
          "name": "newFee",
          "type": "uint256"
        }
      ],
      "name": "updateDeploymentFee",
      "outputs": [],
      "stateMutability": "nonpayable",
      "type": "function"
    },
    {
      "inputs": [
        {
          "internalType": "uint256",
          "name": "newMinCapital",
          "type": "uint256"
        },
        {
          "internalType": "uint256",
          "name": "newMaxCreationsPerDay",
          "type": "uint256"
        }
      ],
      "name": "updateDeploymentLimits",
      "outputs": [],
      "stateMutability": "nonpayable",
      "type": "function"
    },
    {
      "stateMutability": "payable",
      "type": "receive"
    }
  ],
  "bytecode": "0x6080346200032757601f620093b738819003918201601f191683019291906001600160401b038411838510176200032c578160a092849260409687528339810103126200032757620000518162000342565b6020906200006182840162000342565b906200006f85850162000342565b6200008b6080620000836060880162000342565b960162000342565b94620000973362000357565b60018055600254662386f26fc10000600655670de0b6b3a7640000600755600a6008556001600160a01b039484861615620002e35785169283156200029f5785169182156200025b5785169384156200021757610100600160a81b039060081b169060018060a81b0319161760025560018060a01b031991826003541617600355816004541617600455600554161760055580831690811591821590816200020b575b5062000150575b845161901890816200039f8239f35b33906000541603620001c9576200017757506200016d9062000357565b3880808062000141565b60849083519062461bcd60e51b82526004820152602660248201527f4f776e61626c653a206e6577206f776e657220697320746865207a65726f206160448201526564647265737360d01b6064820152fd5b60648285519062461bcd60e51b825280600483015260248201527f4f776e61626c653a2063616c6c6572206973206e6f7420746865206f776e65726044820152fd5b9050331415386200013a565b885162461bcd60e51b815260048101889052601760248201527f466163746f72793a20496e76616c6964206f7261636c650000000000000000006044820152606490fd5b885162461bcd60e51b815260048101889052601e60248201527f466163746f72793a20496e76616c696420726f6f7420747265617375727900006044820152606490fd5b885162461bcd60e51b815260048101889052601c60248201527f466163746f72793a20496e76616c69642050616e646f7261204b6579000000006044820152606490fd5b885162461bcd60e51b815260048101889052601b60248201527f466163746f72793a20496e76616c69642050424f5820746f6b656e00000000006044820152606490fd5b600080fd5b634e487b7160e01b600052604160045260246000fd5b51906001600160a01b03821682036200032757565b600080546001600160a01b039283166001600160a01b03198216811783559216907f8be0079c531659141344cd1fd0a4f28419497f9722a3daafe3b4186f6b6457e09080a356fe60808060405260043610156200001f575b5036156200001d57600080fd5b005b600090813560e01c908163025f77cb1462002015575080632057a7d11462001fb15780632411673e1462001dea578063250d88f31462001c4a578063263ad1bd1462001b9b578063298d81851462001b70578063359ff023146200199557806341b3977a1462000a6957806349611de71462000a49578063499200db14620009ef5780634abefaac14620008295780634b25c34b14620007ac57806351858e27146200074b5780635310ffca146200072b5780635c975abb14620007065780636fcaf4a11462000574578063715018a61462000516578063719206dc14620004515780638397536814620004255780638da5cb5b14620003fc57806391a99e8814620003d157806393c87f0314620003375780639e13bc9c1462000317578063a17634aa14620002e8578063abf0c8b514620002a3578063ec0f3b681462000267578063f2cff57f14620002475763f2fde38b0362000010573462000244576020366003190112620002445762000195620022ef565b6200019f62002306565b6001600160a01b03908116908115620001f057600054826001600160601b0360a01b821617600055167f8be0079c531659141344cd1fd0a4f28419497f9722a3daafe3b4186f6b6457e0600080a380f35b60405162461bcd60e51b815260206004820152602660248201527f4f776e61626c653a206e6577206f776e657220697320746865207a65726f206160448201526564647265737360d01b6064820152608490fd5b80fd5b503462000244578060031936011262000244576020600654604051908152f35b50346200024457602036600319011262000244576060600435600654906200029081836200238c565b9060405192835260208301526040820152f35b50346200024457806003193601126200024457608090600954906201518042048152600a60205260408120549060405192808452602084015260408301526060820152f35b5034620002445780600319360112620002445760025460405160089190911c6001600160a01b03168152602090f35b503462000244578060031936011262000244576020600754604051908152f35b503462000244578060031936011262000244576200035462002306565b60025460ff811615620003955760ff19166002557f5db9ee0a495bf2e6ff9c91a7834c1ba4fdd244a5e8aa4e537bd38aeae4b073aa6020604051338152a180f35b60405162461bcd60e51b815260206004820152601460248201527314185d5cd8589b194e881b9bdd081c185d5cd95960621b6044820152606490fd5b503462000244578060031936011262000244576004546040516001600160a01b039091168152602090f35b50346200024457806003193601126200024457546040516001600160a01b039091168152602090f35b503462000244576020366003190112620002445760406020916004358152600a83522054604051908152f35b50346200024457604036600319011262000244576024356004356200047562002306565b8015620004d15781156200048c5760075560085580f35b60405162461bcd60e51b815260206004820152601e60248201527f466163746f72793a20496e76616c6964206d6178206372656174696f6e7300006044820152606490fd5b60405162461bcd60e51b815260206004820152601c60248201527f466163746f72793a20496e76616c6964206d696e206361706974616c000000006044820152606490fd5b503462000244578060031936011262000244576200053362002306565b600080546001600160a01b0319811682556001600160a01b03167f8be0079c531659141344cd1fd0a4f28419497f9722a3daafe3b4186f6b6457e08280a380f35b50346200024457602036600319011262000244576004356001600160401b0381116200070257620005aa9036906004016200203c565b90620005b562002306565b82620005d560405184848237602081868101600c81520301902062002502565b6040810180516001600160a01b03918291620005f59083161515620024b5565b511691823b15620006f357604051848160048183631fa5d41d60e11b988983525af1908115620006f7578591620006db575b5050602001511690813b15620006cc57829160048392604051948593849283525af18015620006d057620006b4575b5050600560405183838237602081858101600b81520301902001600160ff198254161790558160405192839283378101600081520390207f45a00909320cd27fc4cae75472d839987cef7c59d8db14960b26d101c5c0d1468280a280f35b620006bf90620020f7565b620006cc57823862000656565b8280fd5b6040513d84823e3d90fd5b620006e690620020f7565b620006f357833862000627565b8380fd5b6040513d87823e3d90fd5b5080fd5b50346200024457806003193601126200024457602060ff600254166040519015158152f35b503462000244578060031936011262000244576020600854604051908152f35b503462000244578060031936011262000244576200076862002306565b6200077262002460565b600160ff1960025416176002557f62e78cea01bee320cd4e420270b5ea74000d11b0c9f74754ebdbfc544b05a2586020604051338152a180f35b5034620002445760a0620007da6020620007c636620021bd565b81604051938285809451938492016200206c565b8101600c815203019020600180831b0380825416918160018201541691806002830154169060048160038501541693015416926040519485526020850152604084015260608301526080820152f35b5034620002445760208060031936011262000702576004356001600160401b038111620006cc57620008609036906004016200203c565b604051818382378381838101600b81520301902091600560018060a01b039362000892856002830154161515620024b5565b019260ff845416620009aa578590620008be604051858582378781878101600c81520301902062002502565b908060408301511691823b15620006f3576040519084826004818363e362578760e01b988983525af18015620006f757899286916200098d575b505001511690813b15620006cc57829160048392604051948593849283525af18015620006d05762000971575b50507f9b42ae442918b9637624efca5ed9e481941e33f415bd612a1ab3c3bd622c8d0b92600160ff1982541617905581604051928392833781016000815203902091604051428152a280f35b6200097c90620020f7565b6200098957843862000925565b8480fd5b6200099b91929350620020f7565b620006f35787908438620008f8565b60405162461bcd60e51b815260048101869052601760248201527f466163746f72793a20416c7265616479206163746976650000000000000000006044820152606490fd5b50346200024457602036600319011262000244577fbade80ae0982a2d3106c4f5afa708793d20a9d6441a6440011f99e9f69ad5f3c604060043562000a3362002306565b600654908060065582519182526020820152a180f35b503462000244578060031936011262000244576020600954604051908152f35b5060031960203682011262000702576001600160401b036004351162000702576101009060043536030112620002445762000aa36200235f565b506002600154146200195057600260015562000abe62002460565b62000ad360065460e46004350135906200238c565b34106200190b5760075460e4600435013510620018c65762000afa600480350180620023b0565b905015620018895762000b18602460043501600435600401620023b0565b9050156200184c57603260646004350135116200180857600262000b4760c460043501600435600401620023e5565b905010620017c457600262000b61600480350180620023b0565b604051929181908437600b90830190815282900360200190912001546001600160a01b03166200177f576201518042048152600a602052604081205460085411156200173a57604051908160408101106001600160401b03604084011117620017245760408201604052600182526020368184013760018060a01b0360055416825115620017105760208301528054604051906001600160a01b03166001600160401b03610ac9830190811190831117620016fc57610ac9620025558339610ac9820152602081610ac9810103019082f08015620016ef5762000c4f60c460043501600435600401620023e5565b600554845460405192969293926001600160a01b0391821692909116906001600160401b0361207c860190811190861117620016db5761207c62006f67863961016061207c860181815282519181018290526020909201916101800190885b818110620016bb5750506020915061207c860181038261207c88010152888152019286975b8089106200168857505061207c840160408101919091526060810186905260016080820152600260a08201526004356044013560c08201819052601e60e0830152600a81046101008301526064900461012082015261014001528190039083f09182156200167c5760035460043560a40135906001600160a01b03168115610e10808402849004141715620016685760018060a01b0383541660405191826120948101106001600160401b036120948501111762001654576120946200301e843961209483019081526020810185905260043560840135604082015260646060820152610e10848102608083015260a082015260c081019190915281900360e0019083f0908115620006d0576005548354604051926001600160a01b03918216929091166001600160401b03611eb5850190811190851117620016405790610e1091611eb5620050b286396001600160a01b03888116611eb5870190815260208101899052908a16604082018190526060820152608081019190915260a081018490523360c082015260646004359081013560e0830152608401356101008201819052919092026101208301526213c680610140830152610160820152635e80a6bf61018082015260146101a08201526101c08101919091526101e090829003019083f08015620006d05760025460081c6001600160a01b0316803b15620006f3576040516301a1bb6560e51b81526001600160a01b03831660048201529084908290602490829084905af180156200161d5790849162001628575b505060025460081c6001600160a01b0316803b15620006f3576040516301a1bb6560e51b81526001600160a01b03871660048201529084908290602490829084905af180156200161d5790849162001605575b5080808060043560e401356001600160a01b038a165af162000f836200241d565b5015620015af5760405162000f988162002127565b6001600160a01b03858116825286811660208301528281166040830152831660608201526080810184905260095462000fd190620024a5565b6009556201518042048452600a6020526040842062000ff18154620024a5565b90556200104762001007600480350180620023b0565b91906200103d62001023602460043501600435600401620023b0565b9190926040519562001035876200210b565b369162002181565b8452369162002181565b602082015233604082015242606082015260e460043501356080820152600160a08201528460c0820152602062001089600435600401600435600401620023b0565b91908260405193849283378101600b8152030190209080518051906001600160401b038211620014cf578190620010c1855462002200565b601f81116200155d575b50602090601f8311600114620014ef578992620014e3575b50508160011b916000199060031b1c19161782555b60208101518051906001600160401b038211620014cf576200111e600185015462002200565b601f811162001486575b50602090601f83116001146200140f5791806006949260c0948b9262001403575b50508160011b916000199060031b1c19161760018501555b60018060a01b036040820151166001600160601b0360a01b60028601541617600285015560608101516003850155608081015160048501556005840160a0820151151560ff80198354169116179055015191015560046020620011cb8235830183358401620023b0565b9190826040519384928337600c90820190815203019020825181546001600160a01b03199081166001600160a01b039283161783556020850151600184018054831691841691909117905560408501516002840180548316918416919091179055606085015160038401805483169184169190911790556080909401519290910180549093169181169190911790915560045460065485928392839283929091165af1620012786200241d565b5015620013be576200129e60e46004350135620012986006543462002452565b62002452565b8062001359575b5060a09460405194620012b88662002127565b6000196001881b019081168652908116602086015290811660408501521660608301526080820152620012f0600480350180620023b0565b9081604051928392833781016000815203902060405190620013138284620020b8565b60e46004350135848301527fcd2f71a104d038d630234fc5ae7c8d7313bee3c09ea067e924abe17e8552fa4c60c03393a360018055620013576040518092620020b8565bf35b8380808093335af16200136b6200241d565b5015620013795785620012a5565b60405162461bcd60e51b815260206004820152601d60248201527f466163746f72793a2045786365737320726566756e64206661696c65640000006044820152606490fd5b60405162461bcd60e51b815260206004820152601c60248201527f466163746f72793a20466565207472616e73666572206661696c6564000000006044820152606490fd5b015190508c8062001149565b906001850189526020892091895b601f19851681106200146d5750926006949260019260c09583601f1981161062001453575b505050811b01600185015562001161565b015160001960f88460031b161c191690558c808062001442565b919260206001819286850151815501940192016200141d565b60018501895260208920601f840160051c810160208510620014c7575b601f830160051c82018110620014bb57505062001128565b8a8155600101620014a3565b5080620014a3565b634e487b7160e01b88526041600452602488fd5b015190508a80620010e3565b9250848952602089209089935b601f198416851062001541576001945083601f1981161062001527575b505050811b018255620010f8565b015160001960f88460031b161c191690558a808062001519565b81810151835560209485019460019093019290910190620014fc565b90915084895260208920601f840160051c810160208510620015a7575b90849392915b601f830160051c8201811062001598575050620010cb565b8b815585945060010162001580565b50806200157a565b60405162461bcd60e51b815260206004820152602860248201527f466163746f72793a20455448207472616e7366657220746f20747265617375726044820152671e4819985a5b195960c21b6064820152608490fd5b6200161090620020f7565b620006cc57828662000f62565b6040513d86823e3d90fd5b6200163390620020f7565b620006cc57828662000f0f565b634e487b7160e01b86526041600452602486fd5b634e487b7160e01b85526041600452602485fd5b634e487b7160e01b83526011600452602483fd5b604051903d90823e3d90fd5b909384356001600160a01b0381169190829003620016b6576020816001938293520195019801979062000cd3565b600080fd5b83516001600160a01b031683526020938401939092019160010162000cae565b634e487b7160e01b87526041600452602487fd5b50604051903d90823e3d90fd5b634e487b7160e01b83526041600452602483fd5b634e487b7160e01b82526032600452602482fd5b634e487b7160e01b600052604160045260246000fd5b60405162461bcd60e51b815260206004820152601d60248201527f466163746f72793a204461696c79206c696d69742065786365656465640000006044820152606490fd5b60405162461bcd60e51b815260206004820152601c60248201527f466163746f72793a20536c756720616c726561647920657869737473000000006044820152606490fd5b606460405162461bcd60e51b815260206004820152602060248201527f466163746f72793a204e656564206174206c656173742032207369676e6572736044820152fd5b606460405162461bcd60e51b815260206004820152602060248201527f466163746f72793a2043726561746f72207061796f757420746f6f20686967686044820152fd5b60405162461bcd60e51b8152602060048201526015602482015274466163746f72793a20496e76616c6964206e616d6560581b6044820152606490fd5b60405162461bcd60e51b8152602060048201526015602482015274466163746f72793a20496e76616c696420736c756760581b6044820152606490fd5b60405162461bcd60e51b815260206004820152601e60248201527f466163746f72793a2042656c6f77206d696e696d756d206361706974616c00006044820152606490fd5b60405162461bcd60e51b815260206004820152601d60248201527f466163746f72793a20496e73756666696369656e74207061796d656e740000006044820152606490fd5b60405162461bcd60e51b815260206004820152601f60248201527f5265656e7472616e637947756172643a207265656e7472616e742063616c6c006044820152606490fd5b5034620002445760803660031901126200024457620019b3620022ef565b6001600160a01b03906024358281169190829003620016b65760443590838216809203620016b65760643593808516809503620016b657620019f462002306565b81161562001b2b57821562001ae657811562001aa157831562001a5c5760025490610100600160a81b039060081b1690610100600160a81b031916176002556001600160601b0360a01b91826003541617600355816004541617600455600554161760055580f35b60405162461bcd60e51b815260206004820152601760248201527f466163746f72793a20496e76616c6964206f7261636c650000000000000000006044820152606490fd5b60405162461bcd60e51b815260206004820152601e60248201527f466163746f72793a20496e76616c696420726f6f7420747265617375727900006044820152606490fd5b60405162461bcd60e51b815260206004820152601c60248201527f466163746f72793a20496e76616c69642050616e646f7261204b6579000000006044820152606490fd5b60405162461bcd60e51b815260206004820152601b60248201527f466163746f72793a20496e76616c69642050424f5820746f6b656e00000000006044820152606490fd5b503462000244578060031936011262000244576003546040516001600160a01b039091168152602090f35b5034620002445762001c1b62001bb76020620007c636620021bd565b8101600b81520301902062001bcc816200223d565b9062001bdb600182016200223d565b60018060a01b0360028301541691600381015460048201549062001c2a600660ff6005860154169401549460405198899860e08a5260e08a019062002091565b9088820360208a015262002091565b94604087015260608601526080850152151560a084015260c08301520390f35b5034620002445760208060031936011262000702576004356001600160401b038111620006cc579162001de662001c896101a09436906004016200203c565b909260c060405162001c9b816200210b565b606081526060878201528260408201528260608201528260808201528260a0820152015262001cc96200235f565b5083604051828582378181848101600b815203019020938260405193849283378101600c8152030190206040519362001d02856200210b565b62001d0d846200223d565b855262001d1d600185016200223d565b918186019283528560018060a01b03958660028201541696604083019788526003820154906060840191825262001db662001d8160066004860154956080880196875260a060ff6005830154169801971515885201549660c08d0197885262002502565b9762001da2604051809e819e60c08352519160e060c0820152019062002091565b90518c820360bf190160e08e015262002091565b9851166101008a0152516101208901525161014088015251151561016087015251610180860152840190620020b8565b0390f35b50346200024457604036600319011262000244576001600160401b03600435818111620006cc5762001e219036906004016200203c565b9091602435908111620006f35762001e3e9036906004016200203c565b909262001e4a62002306565b62001e6960405184838237602081868101600c81520301902062002502565b6040810180516001600160a01b0391829162001e899083161515620024b5565b511691823b1562001fad57604051888160048183638456cb5960e01b988983525af1801562001fa25762001f85575b50602001518792911690813b15620006cc57829160048392604051948593849283525af18015620006d05762001f6d575b50507f17a6c569feaa1bc517ff2da5b7c95b49e93d6bcab2e7a87df3f6034148d149c5926040916005835183838237602081858101600b8152030190200160ff19815416905581835192839283378101600081520390209382825193849260208452816020850152848401378181018301879052601f01601f19168101030190a280f35b62001f7890620020f7565b6200098957843862001ee9565b9762001f9760209994939294620020f7565b979290919262001eb8565b6040513d8b823e3d90fd5b8780fd5b5034620002445760203660031901126200024457600435906001600160401b03821162000244576020600262001feb36600486016200203c565b604051929181908437820191600b8352838160018060a01b03940301902001541615604051908152f35b90503462000702578160031936011262000702576005546001600160a01b03168152602090f35b9181601f84011215620016b6578235916001600160401b038311620016b65760208381860195010111620016b657565b60005b838110620020805750506000910152565b81810151838201526020016200206f565b90602091620020ac815180928185528580860191016200206c565b601f01601f1916010190565b80516001600160a01b03908116835260208083015182169084015260408083015182169084015260608083015182169084015260809182015116910152565b6001600160401b0381116200172457604052565b60e081019081106001600160401b038211176200172457604052565b60a081019081106001600160401b038211176200172457604052565b90601f801991011681019081106001600160401b038211176200172457604052565b6001600160401b0381116200172457601f01601f191660200190565b9291926200218f8262002165565b916200219f604051938462002143565b829481845281830111620016b6578281602093846000960137010152565b6020600319820112620016b657600435906001600160401b038211620016b65780602383011215620016b657816024620021fd9360040135910162002181565b90565b90600182811c9216801562002232575b60208310146200221c57565b634e487b7160e01b600052602260045260246000fd5b91607f169162002210565b9060405191826000825492620022538462002200565b908184526001948581169081600014620022ca575060011462002283575b5050620022819250038362002143565b565b9093915060005260209081600020936000915b818310620022b1575050620022819350820101388062002271565b8554888401850152948501948794509183019162002296565b9150506200228194506020925060ff191682840152151560051b820101388062002271565b600435906001600160a01b0382168203620016b657565b6000546001600160a01b031633036200231b57565b606460405162461bcd60e51b815260206004820152602060248201527f4f776e61626c653a2063616c6c6572206973206e6f7420746865206f776e65726044820152fd5b604051906200236e8262002127565b60006080838281528260208201528260408201528260608201520152565b919082018092116200239a57565b634e487b7160e01b600052601160045260246000fd5b903590601e1981360301821215620016b657018035906001600160401b038211620016b657602001918136038313620016b657565b903590601e1981360301821215620016b657018035906001600160401b038211620016b657602001918160051b36038313620016b657565b3d156200244d573d90620024318262002165565b9162002441604051938462002143565b82523d6000602084013e565b606090565b919082039182116200239a57565b60ff600254166200246d57565b60405162461bcd60e51b815260206004820152601060248201526f14185d5cd8589b194e881c185d5cd95960821b6044820152606490fd5b60001981146200239a5760010190565b15620024bd57565b60405162461bcd60e51b815260206004820152601b60248201527f466163746f72793a204372656174696f6e206e6f7420666f756e6400000000006044820152606490fd5b90604051620025118162002127565b82546001600160a01b039081168252600184015481166020830152600284015481166040830152600384015481166060830152600490930154909216608083015256fe60803461013f57601f610ac938819003918201601f19168301916001600160401b038311848410176101445780849260209460405283398101031261013f57516001600160a01b038082169081830361013f5761005b3361015a565b81159182159081610134575b5061007c575b60405161092790816101a28239f35b339060005416036100f05761009c576100949061015a565b38808061006d565b60405162461bcd60e51b815260206004820152602660248201527f4f776e61626c653a206e6577206f776e657220697320746865207a65726f206160448201526564647265737360d01b6064820152608490fd5b606460405162461bcd60e51b815260206004820152602060248201527f4f776e61626c653a2063616c6c6572206973206e6f7420746865206f776e65726044820152fd5b905033141538610067565b600080fd5b634e487b7160e01b600052604160045260246000fd5b600080546001600160a01b039283166001600160a01b03198216811783559216907f8be0079c531659141344cd1fd0a4f28419497f9722a3daafe3b4186f6b6457e09080a356fe6080604081815260048036101561001557600080fd5b600092833560e01c9081630b7883dc1461066a575080630c506b251461063b57806319d8ed751461042e57806351800536146103ee578063703fb2f114610333578063715018a6146102d65780638da5cb5b146102ae578063aa3aa46014610292578063eddb6b911461024d578063eecea000146101615763f2fde38b1461009c57600080fd5b3461015d57602036600319011261015d576100b56106d1565b906100be61075c565b6001600160a01b0391821692831561010b57505082546001600160a01b0319811683178455167f8be0079c531659141344cd1fd0a4f28419497f9722a3daafe3b4186f6b6457e08380a380f35b906020608492519162461bcd60e51b8352820152602660248201527f4f776e61626c653a206e6577206f776e657220697320746865207a65726f206160448201526564647265737360d01b6064820152fd5b8280fd5b503461015d578160031936011261015d5761017a6106d1565b91602435801515928382036102495761019161075c565b6001600160a01b0394851680875260026020528387205490951615610206575083855260026020908152828620805460ff60a81b191692151560a81b60ff60a81b16929092179091557f132b0b44257a2bb527194a8bcbf863827ae4df9b33353d4f323d9e02bf404fe792909151908152a280f35b606490602084519162461bcd60e51b8352820152601860248201527f52656769737472793a204e6f74207265676973746572656400000000000000006044820152fd5b8580fd5b50503461028e57602036600319011261028e5760209160ff9082906001600160a01b036102786106d1565b16815260028552205460a81c1690519015158152f35b5080fd5b50503461028e578160031936011261028e576020905160028152f35b50503461028e578160031936011261028e57905490516001600160a01b039091168152602090f35b83346103305780600319360112610330576102ef61075c565b80546001600160a01b03198116825581906001600160a01b03167f8be0079c531659141344cd1fd0a4f28419497f9722a3daafe3b4186f6b6457e08280a380f35b80fd5b50503461028e578160031936011261028e5780516001805480835281855260208084019592939186907fb10e2d527612073b26eecdfd717e6a320cf44b4afac2b0732d9fcbe2b7fa0cf690855b8181106103d257505050826103969103836107b4565b8451948186019282875251809352850195925b8281106103b65785870386f35b83516001600160a01b03168752958101959281019284016103a9565b82546001600160a01b0316845292840192918701918701610380565b503461015d57602036600319011261015d573591600154831015610330575061041860209261070f565b905491519160018060a01b039160031b1c168152f35b503461015d578160031936011261015d576104476106d1565b9160249283359260068410156102495761045f61075c565b6001600160a01b039182169485156105f95785875260026020528284882054166105b75783516080810181811067ffffffffffffffff8211176105a557855286815260208101868152858201600181526060830191428352898b52600260205286888c2094511684549151600681101561059357925160ff60a81b90151560a81b1660ff60a01b60a09490941b939093166001600160b01b03199290921660ff60a81b199190911617171782556001905191015560015491680100000000000000008310156105825750506020927f01eae2edf370f1fd320489a4c2b396edb10055f7ea5926a1f450dbdb7368f07b949261056383600161057e950160015561070f565b819291549060031b9189831b921b19161790555180926106ec565ba280f35b634e487b7160e01b88526041905286fd5b634e487b7160e01b8d5260218852868dfd5b634e487b7160e01b8952604184528289fd5b90601c606492602086519362461bcd60e51b85528401528201527f52656769737472793a20416c72656164792072656769737465726564000000006044820152fd5b906019606492602086519362461bcd60e51b85528401528201527f52656769737472793a20496e76616c69642061646472657373000000000000006044820152fd5b50503461028e57602036600319011261028e5760209061066161065c6106d1565b6107ec565b90519015158152f35b8490843461015d57602036600319011261015d576080926001600160a01b03919060ff908290846106996106d1565b1681526002602052206001815491015493811685526106c060208601838360a01c166106ec565b60a81c161515908301526060820152f35b600435906001600160a01b03821682036106e757565b600080fd5b9060068210156106f95752565b634e487b7160e01b600052602160045260246000fd5b6001548110156107465760016000527fb10e2d527612073b26eecdfd717e6a320cf44b4afac2b0732d9fcbe2b7fa0cf60190600090565b634e487b7160e01b600052603260045260246000fd5b6000546001600160a01b0316330361077057565b606460405162461bcd60e51b815260206004820152602060248201527f4f776e61626c653a2063616c6c6572206973206e6f7420746865206f776e65726044820152fd5b90601f8019910116810190811067ffffffffffffffff8211176107d657604052565b634e487b7160e01b600052604160045260246000fd5b60006001918254915b8281106108055750505050600090565b61080e8161070f565b60018060a01b0391549060031b1c168060005260026020528260ff60406000205460a81c16610860575b5050600019811461084a5783016107f5565b634e487b7160e01b600052601160045260246000fd5b6108699161087a565b610874573882610838565b50505090565b6040516370a0823160e01b81526001600160a01b0392831660048201529160209183916024918391165afa600091816108be575b506108b95750600090565b151590565b90916020823d82116108e9575b816108d8602093836107b4565b8101031261033057505190386108ae565b3d91506108cb56fea2646970667358221220c0f07259719d3e705e7cd38fbf1595b62b177a09b7f9c79abbc6c076806e853764736f6c63430008140033608034620002f857601f6200209438819003918201601f191683019291906001600160401b03841183851017620002fd578160e09284926040968752833981010312620002f857620000518162000313565b60206200006081840162000313565b9084840151906060850151926080860151946200008560c060a0890151980162000313565b506000549060018060a01b031992338484161760005589519260018060a01b03928391823391167f8be0079c531659141344cd1fd0a4f28419497f9722a3daafe3b4186f6b6457e0600080a36001805516928315620002b65750169283156200027357600a8510158062000267575b15620002245760648610620001e1576201518087101580620001d3575b156200019057610e1088106200014d5750816002541617600255600354161760035560045560075560055560065551611d6b9081620003298239f35b60649089519062461bcd60e51b82526004820152601e60248201527f5732453a20457865637574696f6e2064656c617920746f6f2073686f727400006044820152fd5b60649089519062461bcd60e51b82526004820152601c60248201527f5732453a20566f74696e6720706572696f6420746f6f2073686f7274000000006044820152fd5b5062278d0087111562000111565b60649089519062461bcd60e51b82526004820152601b60248201527f5732453a20566f74696e672064656c617920746f6f2073686f727400000000006044820152fd5b60649089519062461bcd60e51b82526004820152601360248201527f5732453a20496e76616c69642071756f72756d000000000000000000000000006044820152fd5b506064851115620000f4565b60649089519062461bcd60e51b82526004820152601960248201527f5732453a20496e76616c6964206c6f6f6d2061646472657373000000000000006044820152fd5b62461bcd60e51b815260048101869052601a60248201527f5732453a20496e76616c6964206c6963656e736520746f6b656e0000000000006044820152606490fd5b600080fd5b634e487b7160e01b600052604160045260246000fd5b51906001600160a01b0382168203620002f85756fe6080806040526004908136101561001557600080fd5b60003560e01c908163013cf08b146111f45750806302a251a3146111d65780631156575d146111b8578063261f8a17146111935780632627780d1461117757806332f6a1dc146111025780634fa76ec9146110e457806351ec5382146110bb5780636238099a14610ee75780636d3c18d314610e58578063715018a614610dff57806376e4309914610de15780637d5e81e214610c2f5780638b25798914610c115780638da5cb5b14610be85780639080936f14610bb05780639e05220d14610b87578063a64e024a14610b69578063aedfe53f14610b4b578063b39b144414610b2f578063bcbde21214610b12578063c9d27afe1461079c578063cc63604a14610774578063d23254b41461070a578063da35c664146106ec578063ea0217cf14610670578063f2fde38b146105ab578063f82226501461051c5763fe0d94c11461016057600080fd5b3461048b57602036600319011261048b57610179611bd8565b803560005260086020526040600020600a81019060ff825460101c166104e05760078101544211156104a457806008849201546009820154906101bc8282611575565b60025460405163144613ff60e31b81529760209189919082906001600160a01b03165afa80156104985760009061045f575b61020097506064978891875490611582565b041161041c5711156103e05760005b60028201548110156103a4576102288160028401611c2e565b905460039190911b1c6001600160a01b0316803b156103615761024e8260038501611c2e565b90549060031b1c61026183868601611c2e565b50906040519160009080549061027682611368565b916001811690811561034a5750600114610315575b5050916000939181859403925af13d15610310573d6102a981611459565b906102b760405192836113d4565b8152600060203d92013e5b156102d5576102d090611550565b61020f565b60405162461bcd60e51b8152602081850152601560248201527415cc914e88115e1958dd5d1a5bdb8819985a5b1959605a1b60448201528590fd5b6102c2565b90915060005260206000206000905b8282106103365750508201818361028b565b600181602092548488015201910190610324565b60ff1916865250508015150283019050818361028b565b60405162461bcd60e51b8152602081860152601d60248201527f5732453a20546172676574206973206e6f74206120636f6e747261637400000060448201528690fd5b835462ff00ff19166201000417845582357f712ae1383f79ac853f8d882153778e0260ef8f03b504e2866e0593e04d2b291f600080a260018055005b60405162461bcd60e51b8152602081840152601660248201527515cc914e88141c9bdc1bdcd85b0819195999585d195960521b60448201528490fd5b60405162461bcd60e51b8152602081860152601760248201527f5732453a2051756f72756d206e6f74207265616368656400000000000000000060448201528690fd5b506020873d602011610490575b81610479602093836113d4565b8101031261048b5761020096516101ee565b600080fd5b3d915061046c565b6040513d6000823e3d90fd5b60405162461bcd60e51b8152602081850152601560248201527415cc914e88159bdd1a5b99c81b9bdd08195b991959605a1b6044820152606490fd5b60405162461bcd60e51b8152602081850152601560248201527415cc914e88105b1c9958591e48195e1958dd5d1959605a1b6044820152606490fd5b503461048b57602036600319011261048b576105366114ca565b61053e6114f8565b6001600160a01b031690811561056757506001600160601b0360a01b6003541617600355600080f35b60649060206040519162461bcd60e51b8352820152601960248201527f5732453a20496e76616c6964206c6f6f6d2061646472657373000000000000006044820152fd5b503461048b57602036600319011261048b576105c56114ca565b6105cd6114f8565b6001600160a01b0390811691821561061d5750600054826001600160601b0360a01b821617600055167f8be0079c531659141344cd1fd0a4f28419497f9722a3daafe3b4186f6b6457e0600080a3005b60849060206040519162461bcd60e51b8352820152602660248201527f4f776e61626c653a206e6577206f776e657220697320746865207a65726f206160448201526564647265737360d01b6064820152fd5b503461048b57602036600319011261048b5780359061068d6114f8565b62015180821015806106df575b156106a55750600555005b60649060206040519162461bcd60e51b8352820152601360248201527215cc914e88125b9d985b1a59081c195c9a5bd9606a1b6044820152fd5b5062278d0082111561069a565b3461048b57600036600319011261048b576020600b54604051908152f35b503461048b57604036600319011261048b576024356001600160a01b038116919082900361048b57356000526009602052604060002090600052602052606060406000206001815491015460ff604051928181161515845260081c16151560208301526040820152f35b503461048b57602036600319011261048b5761079260209135611c46565b6040519015158152f35b503461048b57604036600319011261048b57803560248035928315159384810361048b576107c8611bd8565b83600052602091600883526040600020600a81019260ff8454166005811015610afe578015908115610af3575b5015610ab05760068201544210610a6d5760078201544211610a36578660005260098552604060002033600052855260ff604060002054166109fe576002546040516309ab24eb60e41b81523381860152969392919086908890869082906001600160a01b03165afa968715610498576000976109cf575b508615610995576040516060810181811067ffffffffffffffff821117610981576040526001815260018782018b815260408301908a82528b60005260098a526040600020336000528a526040600020935115159060ff61ff0086549251151560081b1692169061ffff1916171783555191015560001461096c576008016108f6868254611575565b90555b82549160ff831691600583101561095957505015610949575b50506040519384528301527fcbdf6214089cba887ecbf35a0b6a734589959c9763342c756bb2a80ca2bc9f6e60403393a360018055005b60ff191660011790553880610912565b602190634e487b7160e01b600052526000fd5b60090161097a868254611575565b90556108f9565b85604186634e487b7160e01b600052526000fd5b60405162461bcd60e51b8152808401879052601481860152732b99229d102737903b37ba34b733903837bbb2b960611b6044820152606490fd5b9096508581813d83116109f7575b6109e781836113d4565b8101031261048b5751953861086d565b503d6109dd565b60405162461bcd60e51b81528084018690526012818801527115cc914e88105b1c9958591e481d9bdd195960721b6044820152606490fd5b60405162461bcd60e51b81528084018690526011818801527015cc914e88159bdd1a5b99c8195b991959607a1b6044820152606490fd5b60405162461bcd60e51b81528084018690526017818801527f5732453a20566f74696e67206e6f7420737461727465640000000000000000006044820152606490fd5b60405162461bcd60e51b81528084018690526018818801527f5732453a2050726f706f73616c206e6f742061637469766500000000000000006044820152606490fd5b6001915014386107f5565b86602185634e487b7160e01b600052526000fd5b3461048b57600036600319011261048b576020604051610e108152f35b3461048b57600036600319011261048b57602060405160648152f35b3461048b57600036600319011261048b57602060405162093a808152f35b3461048b57600036600319011261048b57602060405162278d008152f35b3461048b57600036600319011261048b576003546040516001600160a01b039091168152602090f35b503461048b57602036600319011261048b57356000526008602052602060ff600a6040600020015416610be66040518092611436565bf35b3461048b57600036600319011261048b576000546040516001600160a01b039091168152602090f35b3461048b57600036600319011261048b576020600654604051908152f35b503461048b57608036600319011261048b5780359067ffffffffffffffff80831161048b573660238401121561048b5782820135610c6c816114e0565b91610c7a60405193846113d4565b8183526020948584016024809460051b8301019136831161048b578401905b828210610dc25750505081359080821161048b573660238301121561048b5781850135610cc5816114e0565b92610cd360405194856113d4565b818452848885019260051b8201019136831161048b5785899201905b838210610db3575050505060449283359082821161048b573660238301121561048b5781870135610d1f816114e0565b95610d2d60405197886113d4565b818752828a88019260051b8501019336851161048b57838101925b858410610d7d5750505050505060643590811161048b57610d7594610d6f913691016114ac565b92611616565b604051908152f35b833587811161048b5782013660438201121561048b578c91610da883923690878a8201359101611475565b815201930192610d48565b81358152908201908201610cef565b81356001600160a01b038116810361048b578152908701908701610c99565b3461048b57600036600319011261048b576020600a54604051908152f35b3461048b57600036600319011261048b57610e186114f8565b600080546001600160a01b0319811682556001600160a01b03167f8be0079c531659141344cd1fd0a4f28419497f9722a3daafe3b4186f6b6457e08280a3005b503461048b57602036600319011261048b57610e726114ca565b610e7a6114f8565b6001600160a01b0316908115610ea357506001600160601b0360a01b6002541617600255600080f35b60649060206040519162461bcd60e51b8352820152601a60248201527f5732453a20496e76616c6964206c6963656e736520746f6b656e0000000000006044820152fd5b503461048b5760608060031936011261048b5781356001600160a01b03818116939184900361048b576024359360443567ffffffffffffffff811161048b57610f3390369085016114ac565b92811561107e57851561103a575060405190602095634d784ac160e01b8784015260248301526044820152836064820152610f8381610f7560848201866113f6565b03601f1981018352826113d4565b604051610f8f816113a2565b6001815285368183013760405191610fa6836113a2565b6001835286368185013760405193610fbd856113a2565b600185528760005b81811061102b575050611006965060035416610fe083611bb5565b526000610fec84611bb5565b52610ff684611bb5565b5261100083611bb5565b50611616565b8060005260088252600a60406000200161010061ff0019825416179055604051908152f35b88828289010152018890610fc5565b60649060206040519162461bcd60e51b8352820152601c60248201527f5732453a20416d6f756e74206d75737420626520706f736974697665000000006044820152fd5b60649060206040519162461bcd60e51b8352820152601660248201527515cc914e88125b9d985b1a59081c9958da5c1a595b9d60521b6044820152fd5b3461048b57600036600319011261048b576002546040516001600160a01b039091168152602090f35b503461048b57600036600319011261048b5760209054604051908152f35b503461048b57602036600319011261048b5780359061111f6114f8565b600a8210158061116c575b156111325755005b60649060206040519162461bcd60e51b835282015260136024820152725732453a20496e76616c69642071756f72756d60681b6044820152fd5b50606482111561112a565b3461048b57600036600319011261048b576020604051600a8152f35b3461048b57600036600319011261048b576040600b54600a5482519182526020820152f35b3461048b57600036600319011261048b576020600754604051908152f35b3461048b57600036600319011261048b576020600554604051908152f35b823461048b576020918260031936011261048b5781356000526008835260406000209283549260019460018060a01b0386820154169584600583019160009083549361123f85611368565b94858552888382169182600014611346575050600114611307575b5050611268925003856113d4565b60068101549360078201546112a9600884015492600a60098601549501549960ff8b60081c16976040519a8b528a01526101408060408b01528901906113f6565b956060880152608087015260a086015260c08501526112ce60e0850160ff8716611436565b808210156112f25750829360ff9161010085015260101c1615156101208301520390f35b602190634e487b7160e01b6000525260246000fd5b87925060005281600020906000915b85831061132e5750506112689350820101898061125a565b8054838b018501528994508893909201918101611316565b925093505061126894915060ff191682840152151560051b820101898061125a565b90600182811c92168015611398575b602083101461138257565b634e487b7160e01b600052602260045260246000fd5b91607f1691611377565b6040810190811067ffffffffffffffff8211176113be57604052565b634e487b7160e01b600052604160045260246000fd5b90601f8019910116810190811067ffffffffffffffff8211176113be57604052565b919082519283825260005b848110611422575050826000602080949584010152601f8019910116010190565b602081830181015184830182015201611401565b9060058210156114435752565b634e487b7160e01b600052602160045260246000fd5b67ffffffffffffffff81116113be57601f01601f191660200190565b92919261148182611459565b9161148f60405193846113d4565b82948184528183011161048b578281602093846000960137010152565b9080601f8301121561048b578160206114c793359101611475565b90565b600435906001600160a01b038216820361048b57565b67ffffffffffffffff81116113be5760051b60200190565b6000546001600160a01b0316330361150c57565b606460405162461bcd60e51b815260206004820152602060248201527f4f776e61626c653a2063616c6c6572206973206e6f7420746865206f776e65726044820152fd5b600019811461155f5760010190565b634e487b7160e01b600052601160045260246000fd5b9190820180921161155f57565b8181029291811591840414171561155f57565b8181106115a0575050565b60008155600101611595565b918181106115b957505050565b6115cf9260005260206000209182019101611595565b565b9190601f81116115e057505050565b6115cf926000526020600020906020601f840160051c8301931061160c575b601f0160051c0190611595565b90915081906115ff565b90929192815181518091149081611baa575b5015611b6d57815115611b3257611640600b54611550565b9384600b55600754906116696116606116598442611575565b9342611575565b60055490611575565b92604051946101a0860186811067ffffffffffffffff8211176113be576040528786523360208701526040860152606085015260808401528360a084015260c083015260e0820152600061010082015260006101208201526000610140820152600061016082015260006101808201528260005260086020526040600020815181556001810160018060a01b036020840151166001600160601b0360a01b825416179055604082015180519067ffffffffffffffff82116113be57600160401b82116113be5760206002840191611745848454818655856115ac565b0190600052602060002060005b838110611b155750505050606082015180519067ffffffffffffffff82116113be57600160401b82116113be5760206003840191611795848454818655856115ac565b0190600052602060002060005b838110611b0157505050506080820151805190600160401b82116113be576004830154826004850155808310611a88575b5060200190600483016000526020600020916000905b8282106119a4575050505060a082015180519067ffffffffffffffff82116113be576118258261181c6005860154611368565b600586016115d1565b602090601f831160011461193157600a93929160009183611926575b50508160011b916000199060031b1c19161760058201555b60c0830151600682015560e08301516007820155610100830151600882015561012083015160098201550190610140810151906005821015611443578254906101608101519160048310156114435760ff62ff000061018061ff00940151151560101b1694169062ffffff1916179160081b16171790556118db600a54611550565b600a55817fe0269f7953e70365e80e614e4efe7d4bede59b7f5ad80982ea4064c97ee6f4ef611915604051936040855260408501906113f6565b92600060208201528033940390a390565b015190503880611841565b906005840160005260206000209160005b601f198516811061198c5750918391600193600a9695601f19811610611973575b505050811b016005820155611859565b015160001960f88460031b161c19169055388080611963565b91926020600181928685015181550194019201611942565b805180519067ffffffffffffffff82116113be576119cc826119c68854611368565b886115d1565b602090601f8311600114611a18579282600194936020938695600092611a0d575b5050600019600383901b1c191690841b1787555b019401910190926117e9565b0151905038806119ed565b908660005260206000209160005b601f1985168110611a70575083602093600196938796938794601f19811610611a57575b505050811b018755611a01565b015160001960f88460031b161c19169055388080611a4a565b91926020600181928685015181550194019201611a26565b600484016000526020600020908382015b8183018110611aa95750506117d3565b80611ab660019254611368565b80611ac3575b5001611a99565b601f908181118414611adc575050600081555b38611abc565b611af860009284845260208420920160051c8201858301611595565b81835555611ad6565b6001906020845194019381840155016117a2565b82516001600160a01b031681830155602090920191600101611752565b60405162461bcd60e51b815260206004820152601360248201527215cc914e88115b5c1d1e481c1c9bdc1bdcd85b606a1b6044820152606490fd5b60405162461bcd60e51b815260206004820152601560248201527415cc914e88125b9d985b1a59081c1c9bdc1bdcd85b605a1b6044820152606490fd5b905084511438611628565b805115611bc25760200190565b634e487b7160e01b600052603260045260246000fd5b600260015414611be9576002600155565b60405162461bcd60e51b815260206004820152601f60248201527f5265656e7472616e637947756172643a207265656e7472616e742063616c6c006044820152606490fd5b8054821015611bc25760005260206000200190600090565b60009081526008602052604081209060ff600a83015460101c168015611d27575b611d22576009600883015492015490611c808284611575565b60025460405163144613ff60e31b815291929190602090829060049082906001600160a01b03165afa918215611d16578092611cdc575b5050611cc860649160045490611582565b0411159182611cd657505090565b11919050565b9091506020823d8211611d0e575b81611cf7602093836113d4565b81010312611d0b575051611cc86064611cb7565b80fd5b3d9150611cea565b604051903d90823e3d90fd5b905090565b506007820154421115611c6756fea2646970667358221220b35514418a9ee1c581039d270e123ab820f838a38a6176f685cf322bed44e87664736f6c63430008140033608034620004ca57601f62001eb538819003918201601f191683019291906001600160401b03841183851017620004cf57816101e09284926040968752833981010312620004ca576200005281620004e5565b9060209062000063828201620004e5565b9062000071858201620004e5565b936200008060608301620004e5565b946200008f60808401620004e5565b916200009e60a08501620004e5565b91620000ad60c08601620004e5565b9160e0860151906101008701519261012088015194610140890151966101608a015198620000e56101c06101a08d01519c01620004e5565b9d620000f133620004fa565b6001808055600254635e80a6bf6011556276a7006013556014805461ffff191690921790915562278d006016556001600160a01b039d878f161562000484578e1695861562000433578e16918215620003e2578e169283156200039c578e1693841562000356578e1694851562000310578e16968715620002ca57610100600160a81b039060081b169060018060a81b0319161760025560018060a01b0319948560035416176003558460045416176004558360055416176005558260065416176006558160075416176007556008541617600855600955600d55600e55600f5560105560125542601d558083169081159182159081620002be575b5062000203575b84516119739081620005428239f35b339060005416036200027c576200022a57506200022090620004fa565b38808080620001f4565b60849083519062461bcd60e51b82526004820152602660248201527f4f776e61626c653a206e6577206f776e657220697320746865207a65726f206160448201526564647265737360d01b6064820152fd5b60648285519062461bcd60e51b825280600483015260248201527f4f776e61626c653a2063616c6c6572206973206e6f7420746865206f776e65726044820152fd5b905033141538620001ed565b50508f5162461bcd60e51b8152600481018f9052601b60248201527f5732453a20496e76616c69642063726561746f722077616c6c657400000000006044820152606490fd5b50508f5162461bcd60e51b8152600481018f9052601c60248201527f5732453a20496e76616c696420706c6174666f726d2077616c6c6574000000006044820152606490fd5b50508f5162461bcd60e51b8152600481018f9052601b60248201527f5732453a20496e76616c6964206f7261636c65206164647265737300000000006044820152606490fd5b50508f5162461bcd60e51b8152600481018f9052601e60248201527f5732453a20496e76616c69642070726f746f636f6c20747265617375727900006044820152606490fd5b50508f5162461bcd60e51b8152600481018f9052602260248201527f5732453a20496e76616c69642070616e646f726120726f6f7420747265617375604482015261727960f01b6064820152608490fd5b50508f5162461bcd60e51b8152600481018f9052602260248201527f5732453a20496e76616c6964207574696c69747920746f6b656e206164647265604482015261737360f01b6064820152608490fd5b50508f5162461bcd60e51b8152600481018f9052601d60248201527f5732453a20496e76616c696420726567697374727920616464726573730000006044820152606490fd5b600080fd5b634e487b7160e01b600052604160045260246000fd5b51906001600160a01b0382168203620004ca57565b600080546001600160a01b039283166001600160a01b03198216811783559216907f8be0079c531659141344cd1fd0a4f28419497f9722a3daafe3b4186f6b6457e09080a356fe608080604052600436101561001357600080fd5b60003560e01c908163025f77cb1461170e5750806309fadd0b146116f15780630b88f3a2146116c45780630d45d1561461168b5780630e92e6741461166d5780631489a5001461164f5780631bc946de1461163157806322f3e2d41461160e5780632bd03820146115f05780632c4da1b1146115d25780632dd737e1146115a9578063385dc3df1461158b57806339a3ed281461156d5780633f4ba83a146114d95780634c112ab7146114bb5780634f3fc2df1461149d57806354e473c61461110d578063558e44d3146110f05780635c975abb146110cd57806366666aa9146110af5780636b6a78271461101d578063715018a614610fc4578063734dd80714610f9b578063753d4c3114610f7d5780637b10399914610f505780637cdc65f214610f275780638456cb5914610e94578063858cf15e14610e7557806388488c3314610d4c578063893d8f4c14610d2e5780638a5cc49614610d105780638d97767214610b755780638da5cb5b14610b4c578063953b8fb814610b2e578063a07c3ef114610787578063a15f75ef14610627578063aa3aa4601461060b578063ae86ed89146105e2578063b6cb58a5146105c4578063b870c275146105a6578063c5c4744c14610588578063cb85fe351461056a578063d86122101461043a578063de8f846c146103c4578063e20fc1181461039b578063e362578714610371578063e724604214610355578063eed2215a14610337578063f2cbe469146103135763f2fde38b1461024557600080fd5b3461030e57602036600319011261030e5761025e61173c565b6102666117bb565b6001600160a01b039081169081156102ba57600054826bffffffffffffffffffffffff60a01b821617600055167f8be0079c531659141344cd1fd0a4f28419497f9722a3daafe3b4186f6b6457e0600080a3005b60405162461bcd60e51b815260206004820152602660248201527f4f776e61626c653a206e6577206f776e657220697320746865207a65726f206160448201526564647265737360d01b6064820152608490fd5b600080fd5b3461030e57600036600319011261030e57602060405168056bc75e2d631000008152f35b3461030e57600036600319011261030e576020600954604051908152f35b3461030e57600036600319011261030e57602060405160648152f35b3461030e57600036600319011261030e5761038a6117bb565b6014805461ff001916610100179055005b3461030e57600036600319011261030e576007546040516001600160a01b039091168152602090f35b3461030e57604036600319011261030e576024356001600160a01b0381169081900361030e57600435600052601960205260406000209060005260205260806040600020805490600260018201549101549060ff604051938181161515855260081c161515602084015260408301526060820152f35b602036600319011261030e5760043560018060a01b0361045f816006541633146118a1565b61046761183e565b81341061052d5760008080806064610481601254886118ed565b049461048f86600c54611894565b600c55600554166104a08688611900565b905af16104ab61190d565b50156104e85760405191825260208201527f2f22b7f6e7f7df7d0eb3d1a543a2b6eb906e76a03540c2d66d2725270a5f6d3160403392a260018055005b60405162461bcd60e51b815260206004820152601d60248201527f5732453a205472656173757279207472616e73666572206661696c65640000006044820152606490fd5b60405162461bcd60e51b81526020600482015260156024820152740ae648a744092dce6eaccccd2c6d2cadce8408aa89605b1b6044820152606490fd5b3461030e57600036600319011261030e576020600e54604051908152f35b3461030e57600036600319011261030e576020600a54604051908152f35b3461030e57600036600319011261030e576020601354604051908152f35b3461030e57600036600319011261030e576020601a54604051908152f35b3461030e57600036600319011261030e576003546040516001600160a01b039091168152602090f35b3461030e57600036600319011261030e57602060405160028152f35b3461030e57600036600319011261030e5761064061183e565b6008546001600160a01b03908116903382900361074e576064610668600a54600954906118ed565b04610676600b548092611900565b928315610719576000808581949361068f828496611894565b600b555af161069c61190d565b50156106df5760407ff1ac99b40df92c75ed075d39e3b02858b41dca6aaa50b235f036e349755ae8d6916008541692600b5482519182526020820152a260018055005b60405162461bcd60e51b815260206004820152601260248201527115cc914e8814185e5bdd5d0819985a5b195960721b6044820152606490fd5b60405162461bcd60e51b815260206004820152600d60248201526c5732453a204e6f2066756e647360981b6044820152606490fd5b60405162461bcd60e51b81526020600482015260116024820152702b99229d1027b7363c9031b932b0ba37b960791b6044820152606490fd5b3461030e57606036600319011261030e5767ffffffffffffffff6044351161030e5736602360443501121561030e5767ffffffffffffffff604435600401351161030e573660246044356004013560443501011161030e576107e76117bb565b6107f2601a54611813565b80601a5560405190610160820182811067ffffffffffffffff821117610b02576040528082526000602083015260043560408301526024356060830152426080830152600060a0830152600060c0830152600060e08301526000610100830152600061012083015261086960443560040135611822565b610876604051918261178c565b60443560048101358083529060240160208301376000602060443560040135830101526101408301528060005260186020526040600020918051835560019283810160208301516108c681611732565b6108cf81611732565b60ff8019835416911617905560408201516002820155606082015160038201556080820151600482015560a0820151600582015560c08201516006820155600781019060e0830151906005821015610b185782600992610140945460ff610100600160a81b0361010089015160081b169216906affffffffffffffffffffff60a81b161717905561012084015160088201550191015192835167ffffffffffffffff8111610b02576109818354611752565b601f8111610abb575b506020948590601f8311600114610a5957928293918392600094610a4e575b50501b916000199060031b1c19161790555b6109c6601b54611813565b601b55604051600081526004358382015260606040820152604435600401356060820152604435600401356024604435016080830137600060806044356004013583010152817fc776fbd4d206dd3edc8ac9ca9129ed5cc454a4663161f6b97bfa8cae6918ad1f3392608081601f19601f6044356004013501168101030190a3604051908152f35b0151925087806109a9565b90601f198316918560005283886000209360005b87828210610aa357505010610a8a575b505050811b0190556109bb565b015160001960f88460031b161c19169055858080610a7d565b84860151875590950194938a01938692508a01610a6d565b836000526020600020601f830160051c81019160208410610af8575b601f0160051c01905b818110610aed575061098a565b600081558301610ae0565b9091508190610ad7565b634e487b7160e01b600052604160045260246000fd5b634e487b7160e01b600052602160045260246000fd5b3461030e57600036600319011261030e576020601554604051908152f35b3461030e57600036600319011261030e576000546040516001600160a01b039091168152602090f35b3461030e5760208060031936011261030e5760043560005260188152604060002080549160019160ff838201541660028201546003830154600484015460058501549160068601549360078701549588600960088a015499019a6040519b8c916000918054610be381611752565b80865295818416918215610cee575050600114610cae575b5050610c099250038b61178c565b6040519a8b52610c1881611732565b888b015260408a01526060890152608088015260a087015260c0860152610c4560e0860160ff83166117ae565b60081c6001600160a01b0316610100850152610120840152610160610140840181905282519084018190529160005b838110610c995750505081610180916000838284010152601f80199101168101030190f35b81810183015185820161018001528201610c74565b8d925060005281600020906000915b858310610cd5575050610c0993508201018e80610bfb565b819484848396959654920101520191018d928d92610cbd565b9250935050610c0994915060ff191682840152151560051b8201018e80610bfb565b3461030e57600036600319011261030e576020600f54604051908152f35b3461030e57600036600319011261030e576020601c54604051908152f35b3461030e57602036600319011261030e57600435610d6861183e565b806000526018602052604060002060078101805460ff81166005811015610b1857610e3857600583019060068254940193845410600014610e2a5750815460ff191660011782555b42601d55601b54918215610e14577fe706375806608dd57ef39176f88f78ca596a2ee8bdff66998ae082f0c1d116209360ff610dfc9260409560001901601b5554169254905490611894565b610e08835180936117ae565b6020820152a260018055005b634e487b7160e01b600052601160045260246000fd5b60ff19166002178255610db0565b60405162461bcd60e51b81526020600482015260156024820152745732453a205461736b206e6f742070656e64696e6760581b6044820152606490fd5b3461030e57600036600319011261030e576020604051635e80a6bf8152f35b3461030e57600036600319011261030e57610ead6117bb565b60025460ff8116610eef5760019060ff1916176002557f62e78cea01bee320cd4e420270b5ea74000d11b0c9f74754ebdbfc544b05a2586020604051338152a1005b60405162461bcd60e51b815260206004820152601060248201526f14185d5cd8589b194e881c185d5cd95960821b6044820152606490fd5b3461030e57600036600319011261030e576008546040516001600160a01b039091168152602090f35b3461030e57600036600319011261030e5760025460405160089190911c6001600160a01b03168152602090f35b3461030e57600036600319011261030e576020601654604051908152f35b3461030e57600036600319011261030e576005546040516001600160a01b039091168152602090f35b3461030e57600036600319011261030e57610fdd6117bb565b600080546001600160a01b0319811682556001600160a01b03167f8be0079c531659141344cd1fd0a4f28419497f9722a3daafe3b4186f6b6457e08280a3005b3461030e57602036600319011261030e5761103661173c565b61103e6117bb565b6001600160a01b0316801561106a576bffffffffffffffffffffffff60a01b6005541617600555600080f35b60405162461bcd60e51b815260206004820152601d60248201527f5732453a20496e76616c696420747265617375727920616464726573730000006044820152606490fd5b3461030e57600036600319011261030e576020600c54604051908152f35b3461030e57600036600319011261030e57602060ff600254166040519015158152f35b3461030e57600036600319011261030e5760206040516103e88152f35b3461030e57604036600319011261030e5760043560249081358015159283820361030e576002549060405192630c506b2560e01b84523360048501526020938481848160018060a01b03809860081c165afa90811561138657600091611467575b50156114195761117c61183e565b846000526018845260406000209160ff6007840154166005811015611404576113ca578560005260198552604060002033600052855260ff604060002054166113925760038301938186865492836112d6575b50505060405191608083019083821067ffffffffffffffff8311176112c25750906002916040526001835286830190898252604084019081526060840191428352896000526019895260406000203360005289526040600020945115159060ff61ff0087549251151560081b1692169061ffff191617178455516001840155519101556000146112ae576005016112668154611813565b90555b611274601c54611813565b601c5554906040519384528301527fcbdf6214089cba887ecbf35a0b6a734589959c9763342c756bb2a80ca2bc9f6e60403393a360018055005b6006016112bb8154611813565b9055611269565b634e487b7160e01b60009081526041600452fd5b60035416604051928380926370a0823160e01b82523360048301525afa8015611386578291600091611355575b50106113115781868a6111cf565b60405162461bcd60e51b8152600481018790526017818401527f5732453a20496e73756666696369656e74207374616b650000000000000000006044820152606490fd5b809250888092503d831161137f575b61136e818361178c565b8101031261030e578190518a611303565b503d611364565b6040513d6000823e3d90fd5b8460126064926040519262461bcd60e51b845260048401528201527115cc914e88105b1c9958591e481d9bdd195960721b6044820152fd5b8460146064926040519262461bcd60e51b84526004840152820152735732453a205461736b206e6f742061637469766560601b6044820152fd5b50634e487b7160e01b60009081526021600452fd5b60405162461bcd60e51b8152600481018590526021818401527f5732453a20417574686f72697a656420617274696661637420726571756972656044820152601960fa1b6064820152608490fd5b90508481813d8311611496575b61147e818361178c565b8101031261030e5751801515810361030e578761116e565b503d611474565b3461030e57600036600319011261030e576020601154604051908152f35b3461030e57600036600319011261030e576020601754604051908152f35b3461030e57600036600319011261030e576114f26117bb565b60025460ff8116156115315760ff19166002557f5db9ee0a495bf2e6ff9c91a7834c1ba4fdd244a5e8aa4e537bd38aeae4b073aa6020604051338152a1005b60405162461bcd60e51b815260206004820152601460248201527314185d5cd8589b194e881b9bdd081c185d5cd95960621b6044820152606490fd5b3461030e57600036600319011261030e576020601254604051908152f35b3461030e57600036600319011261030e576020604051620151808152f35b3461030e57600036600319011261030e576004546040516001600160a01b039091168152602090f35b3461030e57600036600319011261030e576020600b54604051908152f35b3461030e57600036600319011261030e576020601054604051908152f35b3461030e57600036600319011261030e57602060ff601454166040519015158152f35b3461030e57600036600319011261030e576020600d54604051908152f35b3461030e57600036600319011261030e576020601b54604051908152f35b3461030e57600036600319011261030e576020601d54604051908152f35b3461030e57602036600319011261030e576116b160018060a01b036006541633146118a1565b6116bf600435600a54611894565b600a55005b3461030e57600036600319011261030e57602060ff60145460081c16604051906116ed81611732565b8152f35b3461030e57600036600319011261030e5760206040516101f48152f35b3461030e57600036600319011261030e576006546001600160a01b03168152602090f35b60041115610b1857565b600435906001600160a01b038216820361030e57565b90600182811c92168015611782575b602083101461176c57565b634e487b7160e01b600052602260045260246000fd5b91607f1691611761565b90601f8019910116810190811067ffffffffffffffff821117610b0257604052565b906005821015610b185752565b6000546001600160a01b031633036117cf57565b606460405162461bcd60e51b815260206004820152602060248201527f4f776e61626c653a2063616c6c6572206973206e6f7420746865206f776e65726044820152fd5b6000198114610e145760010190565b67ffffffffffffffff8111610b0257601f01601f191660200190565b60026001541461184f576002600155565b60405162461bcd60e51b815260206004820152601f60248201527f5265656e7472616e637947756172643a207265656e7472616e742063616c6c006044820152606490fd5b91908201809211610e1457565b156118a857565b60405162461bcd60e51b815260206004820152601760248201527f5732453a204e6f742050616e646f7261204f7261636c650000000000000000006044820152606490fd5b81810292918115918404141715610e1457565b91908203918211610e1457565b3d15611938573d9061191e82611822565b9161192c604051938461178c565b82523d6000602084013e565b60609056fea264697066735822122043599419d94f48a52b749b3ee8d78017e7683090c5fa6c4d4fe419f7dddb566f64736f6c63430008140033608060405234620005ea576200207c803803806200001d81620005ef565b92833981019061016081830312620005ea5780516001600160401b0390818111620005ea57836200005091840162000640565b926020830151918211620005ea576200006b91830162000640565b62000079604083016200062b565b9162000088606082016200062b565b60808201519160a08101519460c082015160e08301519061010084015192620000bb61014061012087015196016200062b565b50620000c73362000703565b600180556002805460ff191681558a51106200059957600388511062000555576001600160a01b0381161562000510576001600160a01b03861615620004cb57600187101580620004bf575b156200046f5760028910158062000463575b156200041e5760005b8a5181101562000249576001600160a01b036200014c828d620006d8565b51161562000204576001600160a01b0362000168828d620006d8565b5116600052600360205260ff60406000205416620001bf57620001b9906001600160a01b0362000199828e620006d8565b511660005260036020526040600020600160ff19825416179055620006b2565b6200012e565b60405162461bcd60e51b815260206004820152601d60248201527f5732453a204475706c69636174652050616e646f7261207369676e65720000006044820152606490fd5b60405162461bcd60e51b815260206004820152601b60248201527f5732453a20496e76616c69642050616e646f7261207369676e657200000000006044820152606490fd5b508860005b895181101562000369576001600160a01b036200026c828c620006d8565b51161562000324576001600160a01b0362000288828c620006d8565b5116600052600460205260ff60406000205416620002df57620002d9906001600160a01b03620002b9828d620006d8565b511660005260046020526040600020600160ff19825416179055620006b2565b6200024e565b60405162461bcd60e51b815260206004820152601960248201527f5732453a204475706c69636174652044414f207369676e6572000000000000006044820152606490fd5b60405162461bcd60e51b815260206004820152601760248201527f5732453a20496e76616c69642044414f207369676e65720000000000000000006044820152606490fd5b508760055560065560018060a01b03199060018060a01b031681600754161760075560018060a01b038616906008541617600855600955600a55600b55600e55426010553360018060a01b036000541603620003da57620003ca9062000703565b60405161193190816200074b8239f35b606460405162461bcd60e51b815260206004820152602060248201527f4f776e61626c653a2063616c6c6572206973206e6f7420746865206f776e65726044820152fd5b60405162461bcd60e51b815260206004820152601e60248201527f5732453a20496e76616c69642044414f20636f6e6669726d6174696f6e7300006044820152606490fd5b50875189111562000125565b60405162461bcd60e51b815260206004820152602260248201527f5732453a20496e76616c69642050616e646f726120636f6e6669726d6174696f6044820152616e7360f01b6064820152608490fd5b50895187111562000113565b60405162461bcd60e51b815260206004820152601560248201527f5732453a20496e76616c696420676f7665726e6f7200000000000000000000006044820152606490fd5b60405162461bcd60e51b815260206004820152601360248201527f5732453a20496e76616c6964206f7261636c65000000000000000000000000006044820152606490fd5b606460405162461bcd60e51b815260206004820152602060248201527f5732453a204e656564206174206c6561737420332044414f207369676e6572736044820152fd5b60405162461bcd60e51b8152602060048201526024808201527f5732453a204e656564206174206c6561737420322050616e646f7261207369676044820152636e65727360e01b6064820152608490fd5b600080fd5b6040519190601f01601f191682016001600160401b038111838210176200061557604052565b634e487b7160e01b600052604160045260246000fd5b51906001600160a01b0382168203620005ea57565b81601f82011215620005ea578051916001600160401b03831162000615578260051b602092838062000674818501620005ef565b809781520192820101928311620005ea578301905b82821062000698575050505090565b838091620006a6846200062b565b81520191019062000689565b6000198114620006c25760010190565b634e487b7160e01b600052601160045260246000fd5b8051821015620006ed5760209160051b010190565b634e487b7160e01b600052603260045260246000fd5b600080546001600160a01b039283166001600160a01b03198216811783559216907f8be0079c531659141344cd1fd0a4f28419497f9722a3daafe3b4186f6b6457e09080a356fe6080604081815260049182361015610022575b505050361561002057600080fd5b005b600092833560e01c9182628ac91d146113ea57508163013cf08b14611362578163025f77cb1461133957816308330a14146111945781630d61b519146110b657816312065fe01461109b5781631b8f4a3914610fc65781633027a00514610f895781633e882b6c14610f6a5781633f4ba83a14610ed45781635c975abb14610eb057816370d67e4914610e25578163715018a614610dcb5781637d19ac7b14610cc75781637f819c6114610ca85781638456cb5914610c145781638a78e3bd14610bd65781638da5cb5b14610bae578163a2240e1914610adc578163b026a79b14610abd578163b4a7a18714610a9e578163b679e0bc14610943578163bb4ee2811461088f578163bc28d8781461079b578163bc903cb81461071d578163bcd037c8146106fe578163bf49ec3014610555578163c19c1dfb14610536578163cc63604a146104cb578163da35c664146104ac578163dc3c491e146102e2578163e3625787146102c3578163f059cf2b146102a4578163f2fde38b146101dd575063fd1e77f6146101b25780610012565b346101d957816003193601126101d95760085490516001600160a01b039091168152602090f35b5080fd5b9050346102a05760203660031901126102a0576101f8611429565b9061020161145a565b6001600160a01b0391821692831561024e57505082546001600160a01b0319811683178455167f8be0079c531659141344cd1fd0a4f28419497f9722a3daafe3b4186f6b6457e08380a380f35b906020608492519162461bcd60e51b8352820152602660248201527f4f776e61626c653a206e6577206f776e657220697320746865207a65726f206160448201526564647265737360d01b6064820152fd5b8280fd5b5050346101d957816003193601126101d957602090600f549051908152f35b83346102df57806003193601126102df576102dc61145a565b80f35b80fd5b919050346102a0576020806003193601126104a85782359160018060a01b0361031081600754163314611659565b838652600c8352818620600181019586546009548110610457576005830154600a5490620151809182810292818404149015171561044457906103529161182f565b42106104015760068301805460ff191660031790556103709061183c565b87808080868654168b54905af1610385611735565b50156103be5750907f64fc870a506f8609c6ec600ea66ff687bb7d87a7054b69a82096289efd1b9457939291541694549051908152a380f35b835162461bcd60e51b8152908101859052601e60248201527f5732453a20456d657267656e6379207472616e73666572206661696c656400006044820152606490fd5b845162461bcd60e51b8152808301879052601d60248201527f5732453a20456d657267656e637920706572696f64206e6f74206d65740000006044820152606490fd5b634e487b7160e01b8b526011845260248bfd5b845162461bcd60e51b8152808301879052602560248201527f5732453a20416d6f756e742062656c6f7720656d657267656e637920746872656044820152641cda1bdb1960da1b6064820152608490fd5b8380fd5b5050346101d957816003193601126101d957602090600d549051908152f35b8383346101d95760203660031901126101d95782358252600c602052600681832001549160ff831690600582101561052357602060018314848682610514575b50519015158152f35b60081c60ff161591508361050b565b634e487b7160e01b815260218552602490fd5b5050346101d957816003193601126101d9576020906005549051908152f35b919050346102a05760603660031901126102a057610571611429565b67ffffffffffffffff92602435916044358581116106fa57366023820112156106fa57808301359586116106fa5736602487830101116106fa576007546001600160a01b0393906105c59085163314611659565b6105cd6117d9565b600b5485116106a4576105e2478611156114b2565b6105eb8561183c565b8780808088875af16105fb611735565b5015610661575091849391866024606095827f0fb5fc6cac683d927f79899abfc1ebb501806f459b7a1928ea31e5ef6ec7d0e899519889978852806020890152870152018585013782870184018890521694601f01601f19168101030190a26001805580f35b606490602087519162461bcd60e51b8352820152601c60248201527f5732453a20446972656374206f7065726174696f6e206661696c6564000000006044820152fd5b608490602087519162461bcd60e51b8352820152602a60248201527f5732453a20416d6f756e74206578636565647320646972656374206f706572616044820152691d1a5bdb881b1a5b5a5d60b21b6064820152fd5b8680fd5b5050346101d957816003193601126101d9576020906009549051908152f35b919050346102a05760203660031901126102a0578060ff9160e09484358152600c6020522060018060a01b0381541693600182015492600283015490600660038501549385015494015494815197885260208801528601526060850152608084015261078e60a08401838316611406565b60081c16151560c0820152f35b9050346102a05760203660031901126102a05780359160018060a01b03600754163314801561087b575b1561083857828452600c60205283206006018054909160ff82169060058210156108255750906107f76002921561156f565b60ff19161790557fd92fba445edb3153b571e6df782d7a66fd0ce668519273670820ee3a86da0ef48280a280f35b634e487b7160e01b865260219052602485fd5b906020606492519162461bcd60e51b8352820152601d60248201527f5732453a204e6f7420617574686f72697a656420746f2072656a6563740000006044820152fd5b503384528160205260ff81852054166107c5565b919050346102a0576108a036611444565b9290916108ab61145a565b821561090757600784106108c4575050600955600a5580f35b906020606492519162461bcd60e51b8352820152601e60248201527f5732453a20496e76616c696420696e616374697669747920706572696f6400006044820152fd5b906020606492519162461bcd60e51b8352820152601660248201527515cc914e88125b9d985b1a59081d1a1c995cda1bdb1960521b6044820152fd5b919050346102a05760203660031901126102a057813590338452600360205261097160ff8286205416611523565b6109796117d9565b818452600c60205280842092600684019081549060ff82166005811015610a8b5760016109a691146116a5565b6109b660ff8360081c16156116f1565b6002600387015410610a3857509160209160037f3b7c90df35b419337cff0919fe91849006607bb66c4373623f06f9d48c1ebb989460ff19161790556001850194610a01865461183c565b60018060a01b0390610a2788808080868654168c54905af1610a21611735565b50611796565b541694549051908152a36001805580f35b608490602085519162461bcd60e51b8352820152602760248201527f5732453a20496e73756666696369656e742050616e646f726120636f6e6669726044820152666d6174696f6e7360c81b6064820152fd5b634e487b7160e01b885260218252602488fd5b5050346101d957816003193601126101d9576020906010549051908152f35b5050346101d957816003193601126101d957602090600b549051908152f35b919050346102a057610aed36611444565b929091610af861145a565b82151580610ba5575b15610b6c57828411610b18575050600e55600b5580f35b906020608492519162461bcd60e51b8352820152602860248201527f5732453a20446972656374206c696d6974206d757374206265203c3d206461696044820152671b1e481b1a5b5a5d60c21b6064820152fd5b906020606492519162461bcd60e51b835282015260136024820152725732453a20496e76616c6964206c696d69747360681b6044820152fd5b50831515610b01565b5050346101d957816003193601126101d957905490516001600160a01b039091168152602090f35b5050346101d95760203660031901126101d95760209160ff9082906001600160a01b03610c01611429565b1681526003855220541690519015158152f35b9050346102a057826003193601126102a057610c2e61145a565b6002549060ff8216610c72575060ff1916600117600255513381527f62e78cea01bee320cd4e420270b5ea74000d11b0c9f74754ebdbfc544b05a25890602090a180f35b606490602084519162461bcd60e51b8352820152601060248201526f14185d5cd8589b194e881c185d5cd95960821b6044820152fd5b5050346101d957816003193601126101d9576020906006549051908152f35b8383346101d957602092836003193601126102a05780359133845281855260ff818520541615610d9357828452600c85528084209060ff600683015416956005871015610d8057610d1c6102dc96971561156f565b6008830190338852818152610d3760ff848a205416156115bb565b338852528520600160ff1982541617905501610d5381546114fe565b905533817f497af2a04e2020d6b5425410f75c514b7a1467c3f321a902a8ee29e5f58b83838580a3611615565b634e487b7160e01b865260218452602486fd5b5162461bcd60e51b815290810184905260136024820152722b99229d102737ba102220a79039b4b3b732b960691b6044820152606490fd5b83346102df57806003193601126102df57610de461145a565b80546001600160a01b03198116825581906001600160a01b03167f8be0079c531659141344cd1fd0a4f28419497f9722a3daafe3b4186f6b6457e08280a380f35b9050346102a05760203660031901126102a057610e40611429565b610e4861145a565b6001600160a01b0316918215610e755750506bffffffffffffffffffffffff60a01b600854161760085580f35b906020606492519162461bcd60e51b835282015260156024820152742b99229d1024b73b30b634b21033b7bb32b93737b960591b6044820152fd5b5050346101d957816003193601126101d95760209060ff6002541690519015158152f35b9050346102a057826003193601126102a057610eee61145a565b6002549060ff821615610f30575060ff1916600255513381527f5db9ee0a495bf2e6ff9c91a7834c1ba4fdd244a5e8aa4e537bd38aeae4b073aa90602090a180f35b606490602084519162461bcd60e51b8352820152601460248201527314185d5cd8589b194e881b9bdd081c185d5cd95960621b6044820152fd5b5050346101d957816003193601126101d957602090600a549051908152f35b9050346102a05760203660031901126102a05760209260ff918391906001600160a01b03610fb5611429565b168252855220541690519015158152f35b8383346101d95760203660031901126101d9578235903383526003602052610ff360ff8285205416611523565b818352600c6020528083209060ff600683015416600581101561108857916003916110226102dc95941561156f565b600782013387528060205261103d60ff8389205416156115bb565b3387526020528520600160ff198254161790550161105b81546114fe565b905533817f5555650fe50b1775aba29f9b22419cebc9472e2cf125159d41a92ab8e756cc7e8580a3611615565b634e487b7160e01b855260218652602485fd5b5050346101d957816003193601126101d95751478152602090f35b919050346102a05760203660031901126102a05781359060018060a01b036110e381600754163314611659565b6110eb6117d9565b828552600c60205281852093600685019081549060ff821690600582101561118157509160036020949261114360017f3b7c90df35b419337cff0919fe91849006607bb66c4373623f06f9d48c1ebb989896146116a5565b61115360ff8260081c16156116f1565b60ff19161790556001860195611169875461183c565b610a2788808080868654168c54905af1610a21611735565b634e487b7160e01b895260219052602488fd5b905082346102df5760603660031901126102df576111b0611429565b60443591602435916111c061145a565b6001600160a01b03169384156112fd5782156112ba576111e2478411156114b2565b831561127757602060068787877f85b1e5bd1e58840265c40582ff09f8cbfab823e041a824467b654a99b5156d396060898961121f600d546114fe565b97889586600d55868352600c8b5288832090886bffffffffffffffffffffffff60a01b83541617825584600183015560028201554260058201550160ff1981541690558651918252868983015286820152a351908152f35b606490602087519162461bcd60e51b8352820152601960248201527f5732453a20496e76616c696420707572706f73652068617368000000000000006044820152fd5b606490602087519162461bcd60e51b8352820152601c60248201527f5732453a20416d6f756e74206d75737420626520706f736974697665000000006044820152fd5b606490602087519162461bcd60e51b8352820152601660248201527515cc914e88125b9d985b1a59081c9958da5c1a595b9d60521b6044820152fd5b5050346101d957816003193601126101d95760075490516001600160a01b039091168152602090f35b9050346102a05760203660031901126102a05780826101009460ff93358152600c6020522060018060a01b03815416936001820154926002830154600384015491840154926006600586015495015495815198895260208901528701526060860152608085015260a08401526113dd60c08401838316611406565b60081c16151560e0820152f35b8490346101d957816003193601126101d957602090600e548152f35b9060058210156114135752565b634e487b7160e01b600052602160045260246000fd5b600435906001600160a01b038216820361143f57565b600080fd5b604090600319011261143f576004359060243590565b6000546001600160a01b0316330361146e57565b606460405162461bcd60e51b815260206004820152602060248201527f4f776e61626c653a2063616c6c6572206973206e6f7420746865206f776e65726044820152fd5b156114b957565b60405162461bcd60e51b815260206004820152601960248201527f5732453a20496e73756666696369656e742062616c616e6365000000000000006044820152606490fd5b600019811461150d5760010190565b634e487b7160e01b600052601160045260246000fd5b1561152a57565b60405162461bcd60e51b815260206004820152601760248201527f5732453a204e6f742050616e646f7261207369676e65720000000000000000006044820152606490fd5b1561157657565b60405162461bcd60e51b815260206004820152601960248201527f5732453a2050726f706f73616c206e6f742070656e64696e67000000000000006044820152606490fd5b156115c257565b60405162461bcd60e51b815260206004820152602560248201527f5732453a20416c726561647920636f6e6669726d65642062792074686973207360448201526434b3b732b960d91b6064820152608490fd5b600052600c60205260406000206003810154600554111580611649575b6116395750565b600601805460ff19166001179055565b5060048101546006541115611632565b1561166057565b60405162461bcd60e51b815260206004820152601760248201527f5732453a204e6f742050616e646f7261206f7261636c650000000000000000006044820152606490fd5b156116ac57565b60405162461bcd60e51b815260206004820152601a60248201527f5732453a2050726f706f73616c206e6f7420617070726f7665640000000000006044820152606490fd5b156116f857565b60405162461bcd60e51b815260206004820152601560248201527415cc914e88141c9bdc1bdcd85b08195e1c1a5c9959605a1b6044820152606490fd5b3d156117915767ffffffffffffffff903d82811161177b5760405192601f8201601f19908116603f011684019081118482101761177b5760405282523d6000602084013e565b634e487b7160e01b600052604160045260246000fd5b606090565b1561179d57565b60405162461bcd60e51b815260206004820152601460248201527315cc914e88151c985b9cd9995c8819985a5b195960621b6044820152606490fd5b6002600154146117ea576002600155565b60405162461bcd60e51b815260206004820152601f60248201527f5265656e7472616e637947756172643a207265656e7472616e742063616c6c006044820152606490fd5b9190820180921161150d57565b60105462015180810180911161150d574210156118bd575b600f5490611862818361182f565b600e5410611878576118739161182f565b600f55565b60405162461bcd60e51b815260206004820152601960248201527f5732453a204461696c79206c696d6974206578636565646564000000000000006044820152606490fd5b6000600f55426010557fda4e39dd56d72c2ee3d132e0146bc39e905e78e3bc64c40190421c7b2bcef2ab6040805160008152426020820152a161185456fea2646970667358221220fd0f6b0ae7a65ffb54bf9c01619edbb8f557c8b481449e75fb4527bd6f2aecb064736f6c63430008140033a264697066735822122056ee6f4b313e917ab4622e863d0a87cffbf7e02fca5ae0c17dc6d78f49758bd764736f6c63430008140033",
  "linkReferences": {},
  "deployedLinkReferences": {}
}