{
  "_format": "hh-sol-artifact-1",
  "contractName": "ProtocolRegistry",
  "sourceName": "contracts/core/ProtocolRegistry.sol",
  "abi": [
    {
      "inputs": [
        {
          "internalType": "address",
          "name": "initialOwner",
          "type": "address"
        }
      ],
      "stateMutability": "nonpayable",
      "type": "constructor"
    },
    {
      "anonymous": false,
      "inputs": [
        {
          "indexed": true,
          "internalType": "address",
          "name": "artifact",
          "type": "address"
        },
        {
          "indexed": false,
          "internalType": "bool",
          "name": "isAuthorized",
          "type": "bool"
        }
      ],
      "name": "ArtifactAuthorizationUpdated",
      "type": "event"
    },
    {
      "anonymous": false,
      "inputs": [
        {
          "indexed": true,
          "internalType": "address",
          "name": "artifact",
          "type": "address"
        },
        {
          "indexed": false,
          "internalType": "enum ProtocolRegistry.ArtifactType",
          "name": "artifactType",
          "type": "uint8"
        }
      ],
      "name": "ArtifactRegistered",
      "type": "event"
    },
    {
      "anonymous": false,
      "inputs": [
        {
          "indexed": true,
          "internalType": "address",
          "name": "previousOwner",
          "type": "address"
        },
        {
          "indexed": true,
          "internalType": "address",
          "name": "newOwner",
          "type": "address"
        }
      ],
      "name": "OwnershipTransferred",
      "type": "event"
    },
    {
      "inputs": [],
      "name": "PROTOCOL_VERSION",
      "outputs": [
        {
          "internalType": "uint8",
          "name": "",
          "type": "uint8"
        }
      ],
      "stateMutability": "view",
      "type": "function"
    },
    {
      "inputs": [
        {
          "internalType": "uint256",
          "name": "",
          "type": "uint256"
        }
      ],
      "name": "artifactList",
      "outputs": [
        {
          "internalType": "address",
          "name": "",
          "type": "address"
        }
      ],
      "stateMutability": "view",
      "type": "function"
    },
    {
      "inputs": [
        {
          "internalType": "address",
          "name": "",
          "type": "address"
        }
      ],
      "name": "artifacts",
      "outputs": [
        {
          "internalType": "address",
          "name": "artifactAddress",
          "type": "address"
        },
        {
          "internalType": "enum ProtocolRegistry.ArtifactType",
          "name": "artifactType",
          "type": "uint8"
        },
        {
          "internalType": "bool",
          "name": "isAuthorized",
          "type": "bool"
        },
        {
          "internalType": "uint256",
          "name": "registeredAt",
          "type": "uint256"
        }
      ],
      "stateMutability": "view",
      "type": "function"
    },
    {
      "inputs": [],
      "name": "getArtifactList",
      "outputs": [
        {
          "internalType": "address[]",
          "name": "",
          "type": "address[]"
        }
      ],
      "stateMutability": "view",
      "type": "function"
    },
    {
      "inputs": [
        {
          "internalType": "address",
          "name": "_user",
          "type": "address"
        }
      ],
      "name": "hasAnyAuthorizedArtifact",
      "outputs": [
        {
          "internalType": "bool",
          "name": "",
          "type": "bool"
        }
      ],
      "stateMutability": "view",
      "type": "function"
    },
    {
      "inputs": [
        {
          "internalType": "address",
          "name": "_artifact",
          "type": "address"
        }
      ],
      "name": "isAuthorizedArtifact",
      "outputs": [
        {
          "internalType": "bool",
          "name": "",
          "type": "bool"
        }
      ],
      "stateMutability": "view",
      "type": "function"
    },
    {
      "inputs": [],
      "name": "owner",
      "outputs": [
        {
          "internalType": "address",
          "name": "",
          "type": "address"
        }
      ],
      "stateMutability": "view",
      "type": "function"
    },
    {
      "inputs": [
        {
          "internalType": "address",
          "name": "_artifact",
          "type": "address"
        },
        {
          "internalType": "enum ProtocolRegistry.ArtifactType",
          "name": "_type",
          "type": "uint8"
        }
      ],
      "name": "registerArtifact",
      "outputs": [],
      "stateMutability": "nonpayable",
      "type": "function"
    },
    {
      "inputs": [],
      "name": "renounceOwnership",
      "outputs": [],
      "stateMutability": "nonpayable",
      "type": "function"
    },
    {
      "inputs": [
        {
          "internalType": "address",
          "name": "_artifact",
          "type": "address"
        },
        {
          "internalType": "bool",
          "name": "_isAuthorized",
          "type": "bool"
        }
      ],
      "name": "setAuthorization",
      "outputs": [],
      "stateMutability": "nonpayable",
      "type": "function"
    },
    {
      "inputs": [
        {
          "internalType": "address",
          "name": "newOwner",
          "type": "address"
        }
      ],
      "name": "transferOwnership",
      "outputs": [],
      "stateMutability": "nonpayable",
      "type": "function"
    }
  ],
  "bytecode": "0x60803461013f57601f610ac938819003918201601f19168301916001600160401b038311848410176101445780849260209460405283398101031261013f57516001600160a01b038082169081830361013f5761005b3361015a565b81159182159081610134575b5061007c575b60405161092790816101a28239f35b339060005416036100f05761009c576100949061015a565b38808061006d565b60405162461bcd60e51b815260206004820152602660248201527f4f776e61626c653a206e6577206f776e657220697320746865207a65726f206160448201526564647265737360d01b6064820152608490fd5b606460405162461bcd60e51b815260206004820152602060248201527f4f776e61626c653a2063616c6c6572206973206e6f7420746865206f776e65726044820152fd5b905033141538610067565b600080fd5b634e487b7160e01b600052604160045260246000fd5b600080546001600160a01b039283166001600160a01b03198216811783559216907f8be0079c531659141344cd1fd0a4f28419497f9722a3daafe3b4186f6b6457e09080a356fe6080604081815260048036101561001557600080fd5b600092833560e01c9081630b7883dc1461066a575080630c506b251461063b57806319d8ed751461042e57806351800536146103ee578063703fb2f114610333578063715018a6146102d65780638da5cb5b146102ae578063aa3aa46014610292578063eddb6b911461024d578063eecea000146101615763f2fde38b1461009c57600080fd5b3461015d57602036600319011261015d576100b56106d1565b906100be61075c565b6001600160a01b0391821692831561010b57505082546001600160a01b0319811683178455167f8be0079c531659141344cd1fd0a4f28419497f9722a3daafe3b4186f6b6457e08380a380f35b906020608492519162461bcd60e51b8352820152602660248201527f4f776e61626c653a206e6577206f776e657220697320746865207a65726f206160448201526564647265737360d01b6064820152fd5b8280fd5b503461015d578160031936011261015d5761017a6106d1565b91602435801515928382036102495761019161075c565b6001600160a01b0394851680875260026020528387205490951615610206575083855260026020908152828620805460ff60a81b191692151560a81b60ff60a81b16929092179091557f132b0b44257a2bb527194a8bcbf863827ae4df9b33353d4f323d9e02bf404fe792909151908152a280f35b606490602084519162461bcd60e51b8352820152601860248201527f52656769737472793a204e6f74207265676973746572656400000000000000006044820152fd5b8580fd5b50503461028e57602036600319011261028e5760209160ff9082906001600160a01b036102786106d1565b16815260028552205460a81c1690519015158152f35b5080fd5b50503461028e578160031936011261028e576020905160028152f35b50503461028e578160031936011261028e57905490516001600160a01b039091168152602090f35b83346103305780600319360112610330576102ef61075c565b80546001600160a01b03198116825581906001600160a01b03167f8be0079c531659141344cd1fd0a4f28419497f9722a3daafe3b4186f6b6457e08280a380f35b80fd5b50503461028e578160031936011261028e5780516001805480835281855260208084019592939186907fb10e2d527612073b26eecdfd717e6a320cf44b4afac2b0732d9fcbe2b7fa0cf690855b8181106103d257505050826103969103836107b4565b8451948186019282875251809352850195925b8281106103b65785870386f35b83516001600160a01b03168752958101959281019284016103a9565b82546001600160a01b0316845292840192918701918701610380565b503461015d57602036600319011261015d573591600154831015610330575061041860209261070f565b905491519160018060a01b039160031b1c168152f35b503461015d578160031936011261015d576104476106d1565b9160249283359260068410156102495761045f61075c565b6001600160a01b039182169485156105f95785875260026020528284882054166105b75783516080810181811067ffffffffffffffff8211176105a557855286815260208101868152858201600181526060830191428352898b52600260205286888c2094511684549151600681101561059357925160ff60a81b90151560a81b1660ff60a01b60a09490941b939093166001600160b01b03199290921660ff60a81b199190911617171782556001905191015560015491680100000000000000008310156105825750506020927f01eae2edf370f1fd320489a4c2b396edb10055f7ea5926a1f450dbdb7368f07b949261056383600161057e950160015561070f565b819291549060031b9189831b921b19161790555180926106ec565ba280f35b634e487b7160e01b88526041905286fd5b634e487b7160e01b8d5260218852868dfd5b634e487b7160e01b8952604184528289fd5b90601c606492602086519362461bcd60e51b85528401528201527f52656769737472793a20416c72656164792072656769737465726564000000006044820152fd5b906019606492602086519362461bcd60e51b85528401528201527f52656769737472793a20496e76616c69642061646472657373000000000000006044820152fd5b50503461028e57602036600319011261028e5760209061066161065c6106d1565b6107ec565b90519015158152f35b8490843461015d57602036600319011261015d576080926001600160a01b03919060ff908290846106996106d1565b1681526002602052206001815491015493811685526106c060208601838360a01c166106ec565b60a81c161515908301526060820152f35b600435906001600160a01b03821682036106e757565b600080fd5b9060068210156106f95752565b634e487b7160e01b600052602160045260246000fd5b6001548110156107465760016000527fb10e2d527612073b26eecdfd717e6a320cf44b4afac2b0732d9fcbe2b7fa0cf60190600090565b634e487b7160e01b600052603260045260246000fd5b6000546001600160a01b0316330361077057565b606460405162461bcd60e51b815260206004820152602060248201527f4f776e61626c653a2063616c6c6572206973206e6f7420746865206f776e65726044820152fd5b90601f8019910116810190811067ffffffffffffffff8211176107d657604052565b634e487b7160e01b600052604160045260246000fd5b60006001918254915b8281106108055750505050600090565b61080e8161070f565b60018060a01b0391549060031b1c168060005260026020528260ff60406000205460a81c16610860575b5050600019811461084a5783016107f5565b634e487b7160e01b600052601160045260246000fd5b6108699161087a565b610874573882610838565b50505090565b6040516370a0823160e01b81526001600160a01b0392831660048201529160209183916024918391165afa600091816108be575b506108b95750600090565b151590565b90916020823d82116108e9575b816108d8602093836107b4565b8101031261033057505190386108ae565b3d91506108cb56fea2646970667358221220c0f07259719d3e705e7cd38fbf1595b62b177a09b7f9c79abbc6c076806e853764736f6c63430008140033",
  "linkReferences": {},
  "deployedLinkReferences": {}
}