{
  "_format": "hh-sol-artifact-1",
  "contractName": "ApplyPass",
  "sourceName": "contracts/core/ApplyPass.sol",
  "abi": [
    {
      "inputs": [
        {
          "internalType": "string",
          "name": "name",
          "type": "string"
        },
        {
          "internalType": "string",
          "name": "symbol",
          "type": "string"
        },
        {
          "internalType": "address",
          "name": "initialOwner",
          "type": "address"
        },
        {
          "internalType": "address",
          "name": "trustedForwarder",
          "type": "address"
        }
      ],
      "stateMutability": "nonpayable",
      "type": "constructor"
    },
    {
      "anonymous": false,
      "inputs": [
        {
          "indexed": true,
          "internalType": "address",
          "name": "owner",
          "type": "address"
        },
        {
          "indexed": true,
          "internalType": "address",
          "name": "approved",
          "type": "address"
        },
        {
          "indexed": true,
          "internalType": "uint256",
          "name": "tokenId",
          "type": "uint256"
        }
      ],
      "name": "Approval",
      "type": "event"
    },
    {
      "anonymous": false,
      "inputs": [
        {
          "indexed": true,
          "internalType": "address",
          "name": "owner",
          "type": "address"
        },
        {
          "indexed": true,
          "internalType": "address",
          "name": "operator",
          "type": "address"
        },
        {
          "indexed": false,
          "internalType": "bool",
          "name": "approved",
          "type": "bool"
        }
      ],
      "name": "ApprovalForAll",
      "type": "event"
    },
    {
      "anonymous": false,
      "inputs": [
        {
          "indexed": false,
          "internalType": "string",
          "name": "newBaseURI",
          "type": "string"
        }
      ],
      "name": "BaseURIUpdated",
      "type": "event"
    },
    {
      "anonymous": false,
      "inputs": [
        {
          "indexed": true,
          "internalType": "address",
          "name": "previousOwner",
          "type": "address"
        },
        {
          "indexed": true,
          "internalType": "address",
          "name": "newOwner",
          "type": "address"
        }
      ],
      "name": "OwnershipTransferred",
      "type": "event"
    },
    {
      "anonymous": false,
      "inputs": [
        {
          "indexed": false,
          "internalType": "bool",
          "name": "isPaused",
          "type": "bool"
        }
      ],
      "name": "PausedUpdated",
      "type": "event"
    },
    {
      "anonymous": false,
      "inputs": [
        {
          "indexed": true,
          "internalType": "address",
          "name": "from",
          "type": "address"
        },
        {
          "indexed": true,
          "internalType": "address",
          "name": "to",
          "type": "address"
        },
        {
          "indexed": true,
          "internalType": "uint256",
          "name": "tokenId",
          "type": "uint256"
        }
      ],
      "name": "Transfer",
      "type": "event"
    },
    {
      "inputs": [
        {
          "internalType": "address",
          "name": "to",
          "type": "address"
        }
      ],
      "name": "adminMint",
      "outputs": [],
      "stateMutability": "nonpayable",
      "type": "function"
    },
    {
      "inputs": [
        {
          "internalType": "address",
          "name": "to",
          "type": "address"
        },
        {
          "internalType": "uint256",
          "name": "tokenId",
          "type": "uint256"
        }
      ],
      "name": "approve",
      "outputs": [],
      "stateMutability": "nonpayable",
      "type": "function"
    },
    {
      "inputs": [
        {
          "internalType": "address",
          "name": "owner",
          "type": "address"
        }
      ],
      "name": "balanceOf",
      "outputs": [
        {
          "internalType": "uint256",
          "name": "",
          "type": "uint256"
        }
      ],
      "stateMutability": "view",
      "type": "function"
    },
    {
      "inputs": [],
      "name": "freeMint",
      "outputs": [],
      "stateMutability": "nonpayable",
      "type": "function"
    },
    {
      "inputs": [
        {
          "internalType": "uint256",
          "name": "tokenId",
          "type": "uint256"
        }
      ],
      "name": "getApproved",
      "outputs": [
        {
          "internalType": "address",
          "name": "",
          "type": "address"
        }
      ],
      "stateMutability": "view",
      "type": "function"
    },
    {
      "inputs": [],
      "name": "getTrustedForwarder",
      "outputs": [
        {
          "internalType": "address",
          "name": "",
          "type": "address"
        }
      ],
      "stateMutability": "view",
      "type": "function"
    },
    {
      "inputs": [
        {
          "internalType": "address",
          "name": "",
          "type": "address"
        }
      ],
      "name": "hasMinted",
      "outputs": [
        {
          "internalType": "bool",
          "name": "",
          "type": "bool"
        }
      ],
      "stateMutability": "view",
      "type": "function"
    },
    {
      "inputs": [
        {
          "internalType": "address",
          "name": "owner",
          "type": "address"
        },
        {
          "internalType": "address",
          "name": "operator",
          "type": "address"
        }
      ],
      "name": "isApprovedForAll",
      "outputs": [
        {
          "internalType": "bool",
          "name": "",
          "type": "bool"
        }
      ],
      "stateMutability": "view",
      "type": "function"
    },
    {
      "inputs": [
        {
          "internalType": "address",
          "name": "user",
          "type": "address"
        }
      ],
      "name": "isGateHolder",
      "outputs": [
        {
          "internalType": "bool",
          "name": "",
          "type": "bool"
        }
      ],
      "stateMutability": "view",
      "type": "function"
    },
    {
      "inputs": [
        {
          "internalType": "address",
          "name": "forwarder",
          "type": "address"
        }
      ],
      "name": "isTrustedForwarder",
      "outputs": [
        {
          "internalType": "bool",
          "name": "",
          "type": "bool"
        }
      ],
      "stateMutability": "view",
      "type": "function"
    },
    {
      "inputs": [],
      "name": "name",
      "outputs": [
        {
          "internalType": "string",
          "name": "",
          "type": "string"
        }
      ],
      "stateMutability": "view",
      "type": "function"
    },
    {
      "inputs": [],
      "name": "owner",
      "outputs": [
        {
          "internalType": "address",
          "name": "",
          "type": "address"
        }
      ],
      "stateMutability": "view",
      "type": "function"
    },
    {
      "inputs": [
        {
          "internalType": "uint256",
          "name": "tokenId",
          "type": "uint256"
        }
      ],
      "name": "ownerOf",
      "outputs": [
        {
          "internalType": "address",
          "name": "",
          "type": "address"
        }
      ],
      "stateMutability": "view",
      "type": "function"
    },
    {
      "inputs": [],
      "name": "paused",
      "outputs": [
        {
          "internalType": "bool",
          "name": "",
          "type": "bool"
        }
      ],
      "stateMutability": "view",
      "type": "function"
    },
    {
      "inputs": [],
      "name": "publicMintOpen",
      "outputs": [
        {
          "internalType": "bool",
          "name": "",
          "type": "bool"
        }
      ],
      "stateMutability": "view",
      "type": "function"
    },
    {
      "inputs": [
        {
          "internalType": "address",
          "name": "from",
          "type": "address"
        },
        {
          "internalType": "address",
          "name": "to",
          "type": "address"
        },
        {
          "internalType": "uint256",
          "name": "tokenId",
          "type": "uint256"
        }
      ],
      "name": "safeTransferFrom",
      "outputs": [],
      "stateMutability": "nonpayable",
      "type": "function"
    },
    {
      "inputs": [
        {
          "internalType": "address",
          "name": "from",
          "type": "address"
        },
        {
          "internalType": "address",
          "name": "to",
          "type": "address"
        },
        {
          "internalType": "uint256",
          "name": "tokenId",
          "type": "uint256"
        },
        {
          "internalType": "bytes",
          "name": "data",
          "type": "bytes"
        }
      ],
      "name": "safeTransferFrom",
      "outputs": [],
      "stateMutability": "nonpayable",
      "type": "function"
    },
    {
      "inputs": [
        {
          "internalType": "address",
          "name": "operator",
          "type": "address"
        },
        {
          "internalType": "bool",
          "name": "approved",
          "type": "bool"
        }
      ],
      "name": "setApprovalForAll",
      "outputs": [],
      "stateMutability": "nonpayable",
      "type": "function"
    },
    {
      "inputs": [
        {
          "internalType": "string",
          "name": "baseURI",
          "type": "string"
        }
      ],
      "name": "setBaseURI",
      "outputs": [],
      "stateMutability": "nonpayable",
      "type": "function"
    },
    {
      "inputs": [
        {
          "internalType": "bool",
          "name": "_paused",
          "type": "bool"
        }
      ],
      "name": "setPaused",
      "outputs": [],
      "stateMutability": "nonpayable",
      "type": "function"
    },
    {
      "inputs": [
        {
          "internalType": "bool",
          "name": "_open",
          "type": "bool"
        }
      ],
      "name": "setPublicMintOpen",
      "outputs": [],
      "stateMutability": "nonpayable",
      "type": "function"
    },
    {
      "inputs": [
        {
          "internalType": "address",
          "name": "forwarder",
          "type": "address"
        }
      ],
      "name": "setTrustedForwarder",
      "outputs": [],
      "stateMutability": "nonpayable",
      "type": "function"
    },
    {
      "inputs": [
        {
          "internalType": "bytes4",
          "name": "interfaceId",
          "type": "bytes4"
        }
      ],
      "name": "supportsInterface",
      "outputs": [
        {
          "internalType": "bool",
          "name": "",
          "type": "bool"
        }
      ],
      "stateMutability": "view",
      "type": "function"
    },
    {
      "inputs": [],
      "name": "symbol",
      "outputs": [
        {
          "internalType": "string",
          "name": "",
          "type": "string"
        }
      ],
      "stateMutability": "view",
      "type": "function"
    },
    {
      "inputs": [
        {
          "internalType": "uint256",
          "name": "tokenId",
          "type": "uint256"
        }
      ],
      "name": "tokenURI",
      "outputs": [
        {
          "internalType": "string",
          "name": "",
          "type": "string"
        }
      ],
      "stateMutability": "view",
      "type": "function"
    },
    {
      "inputs": [],
      "name": "totalSupply",
      "outputs": [
        {
          "internalType": "uint256",
          "name": "",
          "type": "uint256"
        }
      ],
      "stateMutability": "view",
      "type": "function"
    },
    {
      "inputs": [
        {
          "internalType": "address",
          "name": "from",
          "type": "address"
        },
        {
          "internalType": "address",
          "name": "to",
          "type": "address"
        },
        {
          "internalType": "uint256",
          "name": "tokenId",
          "type": "uint256"
        }
      ],
      "name": "transferFrom",
      "outputs": [],
      "stateMutability": "nonpayable",
      "type": "function"
    },
    {
      "inputs": [
        {
          "internalType": "address",
          "name": "newOwner",
          "type": "address"
        }
      ],
      "name": "transferOwnership",
      "outputs": [],
      "stateMutability": "nonpayable",
      "type": "function"
    }
  ],
  "bytecode": "0x608060405234620003d35762001fac803803806200001d81620003d8565b928339810190608081830312620003d35780516001600160401b039190828111620003d3578362000050918301620003fe565b6020938483015190848211620003d3576200006d918401620003fe565b926200008a6060620000826040860162000470565b940162000470565b93825190828211620003bd576000968754926001958685811c95168015620003b2575b838610146200039e578190601f958681116200034b575b508390868311600114620002e7578b92620002db575b5050600019600383901b1c191690861b1788555b8151938411620002c75784548581811c91168015620002bc575b82821014620002a857908184869594931162000251575b5080928411600114620001e957508792620001dd575b5050600019600383901b1c191690821b1781555b600980546006929092556001600160a81b03199091166001600160a01b0393841617905580821615620001d457915b60088054610100600160a81b0319811685831b610100600160a81b031617825560405194841693911c16907f8be0079c531659141344cd1fd0a4f28419497f9722a3daafe3b4186f6b6457e09080a3611b269081620004868239f35b50339162000178565b01519050388062000135565b9190859450601f198416858a52838a20938a905b8282106200023757505084116200021d575b505050811b01815562000149565b015160001960f88460031b161c191690553880806200020f565b8484015186558897909501949384019390810190620001fd565b90919293508589528189208480870160051c8201928488106200029e575b9187968992969594930160051c01915b8281106200028f5750506200011f565b8b81558796508891016200027f565b925081926200026f565b634e487b7160e01b89526022600452602489fd5b90607f169062000108565b634e487b7160e01b88526041600452602488fd5b015190503880620000da565b8b8052848c208994509190601f1984168d5b878282106200033457505084116200031a575b505050811b018855620000ee565b015160001960f88460031b161c191690553880806200030c565b8385015186558c97909501949384019301620002f9565b9091508a8052838b208680850160051c82019286861062000394575b918a91869594930160051c01915b82811062000385575050620000c4565b8d81558594508a910162000375565b9250819262000367565b634e487b7160e01b8a52602260045260248afd5b94607f1694620000ad565b634e487b7160e01b600052604160045260246000fd5b600080fd5b6040519190601f01601f191682016001600160401b03811183821017620003bd57604052565b919080601f84011215620003d35782516001600160401b038111620003bd5760209062000434601f8201601f19168301620003d8565b92818452828287010111620003d35760005b8181106200045c57508260009394955001015290565b858101830151848201840152820162000446565b51906001600160a01b0382168203620003d35756fe608060408181526004918236101561001657600080fd5b600092833560e01c91826301ffc9a7146111555750816306fdde03146110ad578163081812fc1461108d578163095ea7b314610f0b57816316c38b3c14610e8e57816318160ddd14610e4f57816323b872dd14610e2857816338e21cce14610dea57816342842e0e14610db457816355f804b314610ba7578163572b6c0514610b735781635b70ea9f14610a445781635c975abb14610a205781636352211e146109ef5781636387f8041461099857816370a08231146109705781638da5cb5b1461094557816395d89b41146108625781639769dc0e146107ad578163a22cb465146106d4578163b88d4fde1461063f578163bcc9ca5b14610618578163c87b56dd14610346578163ce1b815f1461031d578163da742228146102c3578163e985e9c514610275578163f2fde38b1461018a575063fa9f3f271461015957600080fd5b346101865760203660031901126101865760209061017d610178611208565b611324565b15159051908152f35b5080fd5b905034610271576020366003190112610271576101a5611208565b6008549060018060a01b0392838360081c16936101cc816101c4611acc565b1686146118ed565b821694851561021d575050610100600160a81b0319909116600891821b610100600160a81b03161790557f8be0079c531659141344cd1fd0a4f28419497f9722a3daafe3b4186f6b6457e08380a380f35b906020608492519162461bcd60e51b8352820152602860248201527f4170706c79506173733a206e6577206f776e657220697320746865207a65726f604482015267206164647265737360c01b6064820152fd5b8280fd5b50503461018657806003193601126101865760ff81602093610295611208565b61029d611223565b6001600160a01b0391821683526005875283832091168252855220549151911615158152f35b833461031a57602036600319011261031a576102dd611208565b600880546001600160a01b03929161030391901c8316836102fc611acc565b16146118ed565b166001600160601b0360a01b600954161760095580f35b80fd5b50503461018657816003193601126101865760095490516001600160a01b039091168152602090f35b83915034610186576020918260031936011261031a5781356000818152600260205260409020548492918691610386906001600160a01b0316151561139b565b8151948391600754876103988261140d565b94858252888201956001938a85821691826000146105fb5750506001146105a2575b50906103c79103896112af565b8751156105835781809387917a184f03e93ff9f4daa797ed6e38ed64bf6a1f0100000000000000009081811015610576575b5050886d04ee2d6d415b85acef810000000080871015610567575b5050662386f26fc1000080861015610558575b506305f5e10080861015610549575b506127108086101561053d575b5050606484101561052f575b60219082600a80961015610528575b9392919061048583820161047d610474826112d1565b9a519a8b6112af565b808a526112d1565b888b019990601f1901368b3750870101905b6104f2575b50505050936104dd926104c294926104d16104ee978a51978895518092888801906111c0565b840191518093868401906111c0565b010380845201826112af565b925b519282849384528301906111e3565b0390f35b600019019083906f181899199a1a9b1b9c1cb0b131b232b360811b8282061a83530491821561052357919082610497565b61049c565b018261045e565b60649093049260020161044f565b90940493018b80610443565b6008919295049401908c610436565b6010919295049401908c610427565b9091929504940190888d610414565b0494508691508c806103f9565b505050509091506104ee9250519061059a8261127d565b8152926104df565b600789528891507fa66cc928b5edb82af9bd49922954155ab7b0942694bea4ce44661d9a8736c6885b8183106105e0575050810188016103c76103ba565b8054838d018c01528c9a8e99508c94509092019184016105cb565b60ff1916895291151560051b840190910191506103c790506103ba565b50503461018657816003193601126101865760209060ff60095460a01c1690519015158152f35b8390346101865760803660031901126101865761065a611208565b90610663611223565b916044356064359367ffffffffffffffff85116106d057366023860112156106d05761069e6106c8948660246106cd983693013591016112ed565b926106b86106b3846106ae611acc565b61155e565b611485565b6106c3838383611626565b61185a565b61153a565b80f35b8580fd5b9050346102715781600319360112610271576106ee611208565b91602435908115158092036107a957610705611acc565b6001600160a01b0394851694169283851461076757507f17307eab39ab6107e8899845ad3d59bd9653f200f220920489ca2b5937696c319160209184875260058352808720868852835280872060ff1981541660ff841617905551908152a380f35b6020606492519162461bcd60e51b8352820152601960248201527f4552433732313a20617070726f766520746f2063616c6c6572000000000000006044820152fd5b8480fd5b83915034610186576020366003190112610186576107c9611208565b600880546001600160a01b03916107e791901c8216826102fc611acc565b811691821561081f57506106cd92936006549261080384611944565b6006558552600a6020528420805460ff19166001179055611969565b606490602086519162461bcd60e51b8352820152601a60248201527f4170706c79506173733a20496e76616c696420616464726573730000000000006044820152fd5b5050346101865781600319360112610186578051908260018054916108868361140d565b8086529282811690811561091d57506001146108c1575b5050506108af826104ee9403836112af565b519182916020835260208301906111e3565b94508085527fb10e2d527612073b26eecdfd717e6a320cf44b4afac2b0732d9fcbe2b7fa0cf65b828610610905575050506108af8260206104ee958201019461089d565b805460208787018101919091529095019481016108e8565b6104ee9750869350602092506108af94915060ff191682840152151560051b8201019461089d565b50503461018657816003193601126101865760088054915191901c6001600160a01b03168152602090f35b50503461018657602036600319011261018657602090610991610178611208565b9051908152f35b833461031a57602036600319011261031a576109b2611239565b600880546109cf911c6001600160a01b03908116906102fc611acc565b6009805460ff60a01b191691151560a01b60ff60a01b1691909117905580f35b82843461031a57602036600319011261031a5750610a0f602092356113e7565b90516001600160a01b039091168152f35b50503461018657816003193601126101865760209060ff6008541690519015158152f35b8391503461018657816003193601126101865760ff60085416610b305760ff60095460a01c1615610aed57610a77611acc565b6001600160a01b038116808452600a6020528484205490929060ff16610aaa57506106cd92936006549261080384611944565b606490602086519162461bcd60e51b8352820152601e60248201527f4170706c79506173733a204f6e652070617373207065722077616c6c657400006044820152fd5b606490602084519162461bcd60e51b8352820152602060248201527f4170706c79506173733a205075626c6963206d696e7420697320636c6f7365646044820152fd5b606490602084519162461bcd60e51b8352820152601c60248201527f4170706c79506173733a204d696e74696e6720697320706175736564000000006044820152fd5b50503461018657602036600319011261018657602090610b91611208565b60018060a01b0380600954169116149051908152f35b8391503461018657602092836003193601126102715767ffffffffffffffff82358181116107a957366023820112156107a957610bed90369060248187013591016112ed565b92610c0960018060a01b038060085460081c16906102fc611acc565b8351918211610da15750610c1e60075461140d565b601f8111610d3f575b5084601f8211600114610c99579181610c88928697947f6741b2fc379fad678116fe3d4d4b9a1a184ab53ba36b86ad0fa66340b1ab41ad9791610c8e575b508160011b916000199060031b1c191617600755519282849384528301906111e3565b0390a180f35b905085015188610c65565b600785527fa66cc928b5edb82af9bd49922954155ab7b0942694bea4ce44661d9a8736c68890601f198316865b818110610d285750927f6741b2fc379fad678116fe3d4d4b9a1a184ab53ba36b86ad0fa66340b1ab41ad9697949260019282610c889610610d0f575b5050811b016007556104df565b87015160001960f88460031b161c191690558880610d02565b91928860018192868a015181550194019201610cc6565b600785527fa66cc928b5edb82af9bd49922954155ab7b0942694bea4ce44661d9a8736c688601f830160051c810191878410610d97575b601f0160051c01905b818110610d8c5750610c27565b858155600101610d7f565b9091508190610d76565b634e487b7160e01b855260419052602484fd5b505034610186576106c86106cd91610dcb36611248565b91925192610dd88461127d565b8684526106b86106b3846106ae611acc565b5050346101865760203660031901126101865760209160ff9082906001600160a01b03610e15611208565b168152600a855220541690519015158152f35b833461031a576106cd610e3a36611248565b91610e4a6106b3846106ae611acc565b611626565b838334610186578160031936011261018657600654600019810192908311610e7b576020838351908152f35b634e487b7160e01b815260118452602490fd5b5050346101865760203660031901126101865760207f31311016d7204faff81880133e3db244ae8a8b9ce15e83e2432258226d15f94291610ecd611239565b6008549190610ef36001600160a01b0380610ee6611acc565b16908560081c16146118ed565b15159160ff83169060ff19161760085551908152a180f35b905034610271578160031936011261027157610f25611208565b6024359290916001600160a01b0391908280610f40876113e7565b16941693808514611040578084610f55611acc565b1614908115611016575b5015610fae57848652602052842080546001600160a01b03191683179055610f86836113e7565b167f8c5be1e5ebec7d5bd14f71427d1e84f3dd0314c0f7b2291e5b200ac8c7c3b9258480a480f35b6020608492519162461bcd60e51b8352820152603d60248201527f4552433732313a20617070726f76652063616c6c6572206973206e6f7420746f60448201527f6b656e206f776e6572206f7220617070726f76656420666f7220616c6c0000006064820152fd5b9050611020611acc565b9087526005602052838388209116875260205260ff828720541638610f5f565b506020608492519162461bcd60e51b8352820152602160248201527f4552433732313a20617070726f76616c20746f2063757272656e74206f776e656044820152603960f91b6064820152fd5b82843461031a57602036600319011261031a5750610a0f60209235611447565b5050346101865781600319360112610186578051908280546110ce8161140d565b8085529160019180831690811561091d57506001146110f9575050506108af826104ee9403836112af565b80809650527f290decd9548b62a8d60345a988386fc84ba6bc95484008f6362f93160ef3e5635b82861061113d575050506108af8260206104ee958201019461089d565b80546020878701810191909152909501948101611120565b849134610271576020366003190112610271573563ffffffff60e01b811680910361027157602092506380ac58cd60e01b81149081156111af575b811561119e575b5015158152f35b6301ffc9a760e01b14905083611197565b635b5e139f60e01b81149150611190565b60005b8381106111d35750506000910152565b81810151838201526020016111c3565b906020916111fc815180928185528580860191016111c0565b601f01601f1916010190565b600435906001600160a01b038216820361121e57565b600080fd5b602435906001600160a01b038216820361121e57565b60043590811515820361121e57565b606090600319011261121e576001600160a01b0390600435828116810361121e5791602435908116810361121e579060443590565b6020810190811067ffffffffffffffff82111761129957604052565b634e487b7160e01b600052604160045260246000fd5b90601f8019910116810190811067ffffffffffffffff82111761129957604052565b67ffffffffffffffff811161129957601f01601f191660200190565b9291926112f9826112d1565b9161130760405193846112af565b82948184528183011161121e578281602093846000960137010152565b6001600160a01b0316801561134457600052600360205260406000205490565b60405162461bcd60e51b815260206004820152602960248201527f4552433732313a2061646472657373207a65726f206973206e6f7420612076616044820152683634b21037bbb732b960b91b6064820152608490fd5b156113a257565b60405162461bcd60e51b815260206004820152601860248201527f4552433732313a20696e76616c696420746f6b656e20494400000000000000006044820152606490fd5b6000908152600260205260409020546001600160a01b031661140a81151561139b565b90565b90600182811c9216801561143d575b602083101461142757565b634e487b7160e01b600052602260045260246000fd5b91607f169161141c565b60008181526002602052604090205461146a906001600160a01b0316151561139b565b6000908152600460205260409020546001600160a01b031690565b1561148c57565b60405162461bcd60e51b815260206004820152602d60248201527f4552433732313a2063616c6c6572206973206e6f7420746f6b656e206f776e6560448201526c1c881bdc88185c1c1c9bdd9959609a1b6064820152608490fd5b60809060208152603260208201527f4552433732313a207472616e7366657220746f206e6f6e20455243373231526560408201527131b2b4bb32b91034b6b83632b6b2b73a32b960711b60608201520190565b1561154157565b60405162461bcd60e51b81528061155a600482016114e7565b0390fd5b906001600160a01b038080611572846113e7565b169316918383149384156115a5575b50831561158f575b50505090565b61159b91929350611447565b1614388080611589565b909350600052600560205260406000208260005260205260ff604060002054169238611581565b156115d357565b60405162461bcd60e51b815260206004820152602560248201527f4552433732313a207472616e736665722066726f6d20696e636f72726563742060448201526437bbb732b960d91b6064820152608490fd5b9061164e91611634846113e7565b6001600160a01b03939184169284929091831684146115cc565b169182156116e6578161166b91611664866113e7565b16146115cc565b7fddf252ad1be2c89b69c2b068fc378daa952ba7f163c4a11628f55a4df523b3ef60008481526004602052604081206001600160601b0360a01b9081815416905583825260036020526040822060001981540190558482526040822060018154019055858252600260205284604083209182541617905580a4565b60405162461bcd60e51b8152602060048201526024808201527f4552433732313a207472616e7366657220746f20746865207a65726f206164646044820152637265737360e01b6064820152608490fd5b9290833b15611851576117959361174c611acc565b93604051809281630a85bd0160e11b9586825260018060a01b03809916600483015260009889918260248501526044840152608060648401528260209b8c9760848301906111e3565b0393165af1849181611811575b50611800575050503d6000146117f8573d6117bc816112d1565b906117ca60405192836112af565b81528091833d92013e5b805191826117f55760405162461bcd60e51b81528061155a600482016114e7565b01fd5b5060606117d4565b6001600160e01b0319161492509050565b9091508581813d831161184a575b61182981836112af565b810103126107a957516001600160e01b0319811681036107a95790386117a2565b503d61181f565b50915050600190565b92939190803b156118e3576118b894611871611acc565b92604051928391630a85bd0160e11b9586845260018060a01b039889809216600486015216602484015260448301526080606483015281806020998a9560848301906111e3565b03916000988991165af18491816118115750611800575050503d6000146117f8573d6117bc816112d1565b5050915050600190565b156118f457565b60405162461bcd60e51b815260206004820152602260248201527f4170706c79506173733a2063616c6c6572206973206e6f7420746865206f776e60448201526132b960f11b6064820152608490fd5b60001981146119535760010190565b634e487b7160e01b600052601160045260246000fd5b6040516119758161127d565b6000808252926001600160a01b038316928315611a3c57816106c894611a3a966119bd6119b784600052600260205260018060a01b0360406000205416151590565b15611a80565b6000838152600260205260409020546119e0906001600160a01b031615156119b7565b81815260036020526040812060018154019055828152600260205260408120826001600160601b0360a01b8254161790557fddf252ad1be2c89b69c2b068fc378daa952ba7f163c4a11628f55a4df523b3ef8180a4611737565b565b606460405162461bcd60e51b815260206004820152602060248201527f4552433732313a206d696e7420746f20746865207a65726f20616464726573736044820152fd5b15611a8757565b60405162461bcd60e51b815260206004820152601c60248201527f4552433732313a20746f6b656e20616c7265616479206d696e746564000000006044820152606490fd5b600954336001600160a01b0390911603611aec5736601319013560601c90565b339056fea2646970667358221220086e70df6135954ce02b1e16b35c453913ac639dc9e256d384ce074bb9b4eeff64736f6c63430008140033",
  "linkReferences": {},
  "deployedLinkReferences": {}
}