{
  "_format": "hh-sol-artifact-1",
  "contractName": "W2ELicense",
  "sourceName": "contracts/core/W2ELicense.sol",
  "abi": [
    {
      "inputs": [
        {
          "internalType": "string",
          "name": "name",
          "type": "string"
        },
        {
          "internalType": "string",
          "name": "symbol",
          "type": "string"
        },
        {
          "internalType": "uint256",
          "name": "_maxSupply",
          "type": "uint256"
        },
        {
          "internalType": "uint256",
          "name": "_licensePrice",
          "type": "uint256"
        },
        {
          "internalType": "address",
          "name": "_pandoraOracle",
          "type": "address"
        },
        {
          "internalType": "address",
          "name": "_treasuryAddress",
          "type": "address"
        },
        {
          "internalType": "address",
          "name": "initialOwner",
          "type": "address"
        }
      ],
      "stateMutability": "nonpayable",
      "type": "constructor"
    },
    {
      "inputs": [],
      "name": "ApprovalCallerNotOwnerNorApproved",
      "type": "error"
    },
    {
      "inputs": [],
      "name": "ApprovalQueryForNonexistentToken",
      "type": "error"
    },
    {
      "inputs": [],
      "name": "BalanceQueryForZeroAddress",
      "type": "error"
    },
    {
      "inputs": [],
      "name": "MintERC2309QuantityExceedsLimit",
      "type": "error"
    },
    {
      "inputs": [],
      "name": "MintToZeroAddress",
      "type": "error"
    },
    {
      "inputs": [],
      "name": "MintZeroQuantity",
      "type": "error"
    },
    {
      "inputs": [],
      "name": "NotCompatibleWithSpotMints",
      "type": "error"
    },
    {
      "inputs": [],
      "name": "OwnerQueryForNonexistentToken",
      "type": "error"
    },
    {
      "inputs": [],
      "name": "OwnershipNotInitializedForExtraData",
      "type": "error"
    },
    {
      "inputs": [],
      "name": "SequentialMintExceedsLimit",
      "type": "error"
    },
    {
      "inputs": [],
      "name": "SequentialUpToTooSmall",
      "type": "error"
    },
    {
      "inputs": [],
      "name": "SpotMintTokenIdTooSmall",
      "type": "error"
    },
    {
      "inputs": [],
      "name": "TokenAlreadyExists",
      "type": "error"
    },
    {
      "inputs": [],
      "name": "TransferCallerNotOwnerNorApproved",
      "type": "error"
    },
    {
      "inputs": [],
      "name": "TransferFromIncorrectOwner",
      "type": "error"
    },
    {
      "inputs": [],
      "name": "TransferToNonERC721ReceiverImplementer",
      "type": "error"
    },
    {
      "inputs": [],
      "name": "TransferToZeroAddress",
      "type": "error"
    },
    {
      "inputs": [],
      "name": "URIQueryForNonexistentToken",
      "type": "error"
    },
    {
      "anonymous": false,
      "inputs": [
        {
          "indexed": true,
          "internalType": "address",
          "name": "owner",
          "type": "address"
        },
        {
          "indexed": true,
          "internalType": "address",
          "name": "approved",
          "type": "address"
        },
        {
          "indexed": true,
          "internalType": "uint256",
          "name": "tokenId",
          "type": "uint256"
        }
      ],
      "name": "Approval",
      "type": "event"
    },
    {
      "anonymous": false,
      "inputs": [
        {
          "indexed": true,
          "internalType": "address",
          "name": "owner",
          "type": "address"
        },
        {
          "indexed": true,
          "internalType": "address",
          "name": "operator",
          "type": "address"
        },
        {
          "indexed": false,
          "internalType": "bool",
          "name": "approved",
          "type": "bool"
        }
      ],
      "name": "ApprovalForAll",
      "type": "event"
    },
    {
      "anonymous": false,
      "inputs": [
        {
          "indexed": true,
          "internalType": "uint256",
          "name": "fromTokenId",
          "type": "uint256"
        },
        {
          "indexed": false,
          "internalType": "uint256",
          "name": "toTokenId",
          "type": "uint256"
        },
        {
          "indexed": true,
          "internalType": "address",
          "name": "from",
          "type": "address"
        },
        {
          "indexed": true,
          "internalType": "address",
          "name": "to",
          "type": "address"
        }
      ],
      "name": "ConsecutiveTransfer",
      "type": "event"
    },
    {
      "anonymous": false,
      "inputs": [
        {
          "indexed": true,
          "internalType": "address",
          "name": "recipient",
          "type": "address"
        },
        {
          "indexed": false,
          "internalType": "uint256",
          "name": "quantity",
          "type": "uint256"
        },
        {
          "indexed": false,
          "internalType": "uint256",
          "name": "totalMinted",
          "type": "uint256"
        }
      ],
      "name": "LicenseMinted",
      "type": "event"
    },
    {
      "anonymous": false,
      "inputs": [
        {
          "indexed": true,
          "internalType": "uint256",
          "name": "oldPrice",
          "type": "uint256"
        },
        {
          "indexed": true,
          "internalType": "uint256",
          "name": "newPrice",
          "type": "uint256"
        }
      ],
      "name": "LicensePriceUpdated",
      "type": "event"
    },
    {
      "anonymous": false,
      "inputs": [
        {
          "indexed": true,
          "internalType": "uint256",
          "name": "tokenId",
          "type": "uint256"
        },
        {
          "indexed": false,
          "internalType": "uint256",
          "name": "oldPhase",
          "type": "uint256"
        },
        {
          "indexed": false,
          "internalType": "uint256",
          "name": "newPhase",
          "type": "uint256"
        }
      ],
      "name": "LicenseUpgraded",
      "type": "event"
    },
    {
      "anonymous": false,
      "inputs": [
        {
          "indexed": true,
          "internalType": "address",
          "name": "oldOracle",
          "type": "address"
        },
        {
          "indexed": true,
          "internalType": "address",
          "name": "newOracle",
          "type": "address"
        }
      ],
      "name": "OracleUpdated",
      "type": "event"
    },
    {
      "anonymous": false,
      "inputs": [
        {
          "indexed": true,
          "internalType": "address",
          "name": "previousOwner",
          "type": "address"
        },
        {
          "indexed": true,
          "internalType": "address",
          "name": "newOwner",
          "type": "address"
        }
      ],
      "name": "OwnershipTransferred",
      "type": "event"
    },
    {
      "anonymous": false,
      "inputs": [
        {
          "indexed": true,
          "internalType": "address",
          "name": "receiver",
          "type": "address"
        },
        {
          "indexed": false,
          "internalType": "uint96",
          "name": "feeNumerator",
          "type": "uint96"
        }
      ],
      "name": "RoyaltyUpdated",
      "type": "event"
    },
    {
      "anonymous": false,
      "inputs": [
        {
          "indexed": true,
          "internalType": "address",
          "name": "from",
          "type": "address"
        },
        {
          "indexed": true,
          "internalType": "address",
          "name": "to",
          "type": "address"
        },
        {
          "indexed": true,
          "internalType": "uint256",
          "name": "tokenId",
          "type": "uint256"
        }
      ],
      "name": "Transfer",
      "type": "event"
    },
    {
      "anonymous": false,
      "inputs": [
        {
          "indexed": true,
          "internalType": "address",
          "name": "oldTreasury",
          "type": "address"
        },
        {
          "indexed": true,
          "internalType": "address",
          "name": "newTreasury",
          "type": "address"
        }
      ],
      "name": "TreasuryUpdated",
      "type": "event"
    },
    {
      "inputs": [
        {
          "internalType": "uint256",
          "name": "newPhaseId",
          "type": "uint256"
        },
        {
          "internalType": "uint256",
          "name": "newPhaseMaxSupply",
          "type": "uint256"
        }
      ],
      "name": "advanceToPhase",
      "outputs": [],
      "stateMutability": "nonpayable",
      "type": "function"
    },
    {
      "inputs": [
        {
          "internalType": "address",
          "name": "to",
          "type": "address"
        },
        {
          "internalType": "uint256",
          "name": "tokenId",
          "type": "uint256"
        }
      ],
      "name": "approve",
      "outputs": [],
      "stateMutability": "payable",
      "type": "function"
    },
    {
      "inputs": [
        {
          "internalType": "address",
          "name": "owner",
          "type": "address"
        }
      ],
      "name": "balanceOf",
      "outputs": [
        {
          "internalType": "uint256",
          "name": "",
          "type": "uint256"
        }
      ],
      "stateMutability": "view",
      "type": "function"
    },
    {
      "inputs": [
        {
          "internalType": "uint256",
          "name": "tokenId",
          "type": "uint256"
        }
      ],
      "name": "getApproved",
      "outputs": [
        {
          "internalType": "address",
          "name": "",
          "type": "address"
        }
      ],
      "stateMutability": "view",
      "type": "function"
    },
    {
      "inputs": [
        {
          "internalType": "uint256",
          "name": "tokenId",
          "type": "uint256"
        }
      ],
      "name": "getLicensePhase",
      "outputs": [
        {
          "internalType": "uint256",
          "name": "",
          "type": "uint256"
        }
      ],
      "stateMutability": "view",
      "type": "function"
    },
    {
      "inputs": [],
      "name": "getPhaseStats",
      "outputs": [
        {
          "internalType": "uint256",
          "name": "currentPhase",
          "type": "uint256"
        },
        {
          "internalType": "uint256",
          "name": "totalPhases",
          "type": "uint256"
        }
      ],
      "stateMutability": "view",
      "type": "function"
    },
    {
      "inputs": [
        {
          "internalType": "address",
          "name": "account",
          "type": "address"
        }
      ],
      "name": "getVotes",
      "outputs": [
        {
          "internalType": "uint256",
          "name": "",
          "type": "uint256"
        }
      ],
      "stateMutability": "view",
      "type": "function"
    },
    {
      "inputs": [
        {
          "internalType": "address",
          "name": "account",
          "type": "address"
        }
      ],
      "name": "hasActiveLicense",
      "outputs": [
        {
          "internalType": "bool",
          "name": "",
          "type": "bool"
        }
      ],
      "stateMutability": "view",
      "type": "function"
    },
    {
      "inputs": [
        {
          "internalType": "address",
          "name": "owner",
          "type": "address"
        },
        {
          "internalType": "address",
          "name": "operator",
          "type": "address"
        }
      ],
      "name": "isApprovedForAll",
      "outputs": [
        {
          "internalType": "bool",
          "name": "",
          "type": "bool"
        }
      ],
      "stateMutability": "view",
      "type": "function"
    },
    {
      "inputs": [],
      "name": "licensePrice",
      "outputs": [
        {
          "internalType": "uint256",
          "name": "",
          "type": "uint256"
        }
      ],
      "stateMutability": "view",
      "type": "function"
    },
    {
      "inputs": [
        {
          "internalType": "uint256",
          "name": "",
          "type": "uint256"
        }
      ],
      "name": "licenseUsageCount",
      "outputs": [
        {
          "internalType": "uint256",
          "name": "",
          "type": "uint256"
        }
      ],
      "stateMutability": "view",
      "type": "function"
    },
    {
      "inputs": [],
      "name": "maxSupply",
      "outputs": [
        {
          "internalType": "uint256",
          "name": "",
          "type": "uint256"
        }
      ],
      "stateMutability": "view",
      "type": "function"
    },
    {
      "inputs": [
        {
          "internalType": "address",
          "name": "recipient",
          "type": "address"
        },
        {
          "internalType": "uint256",
          "name": "quantity",
          "type": "uint256"
        }
      ],
      "name": "mintLicense",
      "outputs": [],
      "stateMutability": "nonpayable",
      "type": "function"
    },
    {
      "inputs": [
        {
          "internalType": "uint256",
          "name": "quantity",
          "type": "uint256"
        }
      ],
      "name": "mintWithPayment",
      "outputs": [],
      "stateMutability": "payable",
      "type": "function"
    },
    {
      "inputs": [],
      "name": "name",
      "outputs": [
        {
          "internalType": "string",
          "name": "",
          "type": "string"
        }
      ],
      "stateMutability": "view",
      "type": "function"
    },
    {
      "inputs": [],
      "name": "owner",
      "outputs": [
        {
          "internalType": "address",
          "name": "",
          "type": "address"
        }
      ],
      "stateMutability": "view",
      "type": "function"
    },
    {
      "inputs": [
        {
          "internalType": "uint256",
          "name": "tokenId",
          "type": "uint256"
        }
      ],
      "name": "ownerOf",
      "outputs": [
        {
          "internalType": "address",
          "name": "",
          "type": "address"
        }
      ],
      "stateMutability": "view",
      "type": "function"
    },
    {
      "inputs": [],
      "name": "pandoraOracle",
      "outputs": [
        {
          "internalType": "address",
          "name": "",
          "type": "address"
        }
      ],
      "stateMutability": "view",
      "type": "function"
    },
    {
      "inputs": [],
      "name": "phaseId",
      "outputs": [
        {
          "internalType": "uint256",
          "name": "",
          "type": "uint256"
        }
      ],
      "stateMutability": "view",
      "type": "function"
    },
    {
      "inputs": [
        {
          "internalType": "uint256",
          "name": "",
          "type": "uint256"
        }
      ],
      "name": "phaseMaxSupply",
      "outputs": [
        {
          "internalType": "uint256",
          "name": "",
          "type": "uint256"
        }
      ],
      "stateMutability": "view",
      "type": "function"
    },
    {
      "inputs": [
        {
          "internalType": "uint256",
          "name": "tokenId",
          "type": "uint256"
        }
      ],
      "name": "recordLicenseUsage",
      "outputs": [],
      "stateMutability": "nonpayable",
      "type": "function"
    },
    {
      "inputs": [],
      "name": "remainingSupply",
      "outputs": [
        {
          "internalType": "uint256",
          "name": "",
          "type": "uint256"
        }
      ],
      "stateMutability": "view",
      "type": "function"
    },
    {
      "inputs": [],
      "name": "renounceOwnership",
      "outputs": [],
      "stateMutability": "nonpayable",
      "type": "function"
    },
    {
      "inputs": [
        {
          "internalType": "uint256",
          "name": "tokenId",
          "type": "uint256"
        },
        {
          "internalType": "uint256",
          "name": "salePrice",
          "type": "uint256"
        }
      ],
      "name": "royaltyInfo",
      "outputs": [
        {
          "internalType": "address",
          "name": "",
          "type": "address"
        },
        {
          "internalType": "uint256",
          "name": "",
          "type": "uint256"
        }
      ],
      "stateMutability": "view",
      "type": "function"
    },
    {
      "inputs": [
        {
          "internalType": "address",
          "name": "from",
          "type": "address"
        },
        {
          "internalType": "address",
          "name": "to",
          "type": "address"
        },
        {
          "internalType": "uint256",
          "name": "tokenId",
          "type": "uint256"
        }
      ],
      "name": "safeTransferFrom",
      "outputs": [],
      "stateMutability": "payable",
      "type": "function"
    },
    {
      "inputs": [
        {
          "internalType": "address",
          "name": "from",
          "type": "address"
        },
        {
          "internalType": "address",
          "name": "to",
          "type": "address"
        },
        {
          "internalType": "uint256",
          "name": "tokenId",
          "type": "uint256"
        },
        {
          "internalType": "bytes",
          "name": "_data",
          "type": "bytes"
        }
      ],
      "name": "safeTransferFrom",
      "outputs": [],
      "stateMutability": "payable",
      "type": "function"
    },
    {
      "inputs": [
        {
          "internalType": "address",
          "name": "operator",
          "type": "address"
        },
        {
          "internalType": "bool",
          "name": "approved",
          "type": "bool"
        }
      ],
      "name": "setApprovalForAll",
      "outputs": [],
      "stateMutability": "nonpayable",
      "type": "function"
    },
    {
      "inputs": [
        {
          "internalType": "uint256",
          "name": "newPrice",
          "type": "uint256"
        }
      ],
      "name": "setLicensePrice",
      "outputs": [],
      "stateMutability": "nonpayable",
      "type": "function"
    },
    {
      "inputs": [
        {
          "internalType": "address",
          "name": "newOracle",
          "type": "address"
        }
      ],
      "name": "setPandoraOracle",
      "outputs": [],
      "stateMutability": "nonpayable",
      "type": "function"
    },
    {
      "inputs": [
        {
          "internalType": "address",
          "name": "receiver",
          "type": "address"
        },
        {
          "internalType": "uint96",
          "name": "feeNumerator",
          "type": "uint96"
        }
      ],
      "name": "setRoyaltyInfo",
      "outputs": [],
      "stateMutability": "nonpayable",
      "type": "function"
    },
    {
      "inputs": [
        {
          "internalType": "address",
          "name": "newTreasury",
          "type": "address"
        }
      ],
      "name": "setTreasuryAddress",
      "outputs": [],
      "stateMutability": "nonpayable",
      "type": "function"
    },
    {
      "inputs": [
        {
          "internalType": "bytes4",
          "name": "interfaceId",
          "type": "bytes4"
        }
      ],
      "name": "supportsInterface",
      "outputs": [
        {
          "internalType": "bool",
          "name": "",
          "type": "bool"
        }
      ],
      "stateMutability": "view",
      "type": "function"
    },
    {
      "inputs": [],
      "name": "symbol",
      "outputs": [
        {
          "internalType": "string",
          "name": "",
          "type": "string"
        }
      ],
      "stateMutability": "view",
      "type": "function"
    },
    {
      "inputs": [
        {
          "internalType": "uint256",
          "name": "tokenId",
          "type": "uint256"
        }
      ],
      "name": "tokenURI",
      "outputs": [
        {
          "internalType": "string",
          "name": "",
          "type": "string"
        }
      ],
      "stateMutability": "view",
      "type": "function"
    },
    {
      "inputs": [],
      "name": "totalMinted",
      "outputs": [
        {
          "internalType": "uint256",
          "name": "",
          "type": "uint256"
        }
      ],
      "stateMutability": "view",
      "type": "function"
    },
    {
      "inputs": [],
      "name": "totalSupply",
      "outputs": [
        {
          "internalType": "uint256",
          "name": "result",
          "type": "uint256"
        }
      ],
      "stateMutability": "view",
      "type": "function"
    },
    {
      "inputs": [
        {
          "internalType": "address",
          "name": "from",
          "type": "address"
        },
        {
          "internalType": "address",
          "name": "to",
          "type": "address"
        },
        {
          "internalType": "uint256",
          "name": "tokenId",
          "type": "uint256"
        }
      ],
      "name": "transferFrom",
      "outputs": [],
      "stateMutability": "payable",
      "type": "function"
    },
    {
      "inputs": [
        {
          "internalType": "address",
          "name": "newOwner",
          "type": "address"
        }
      ],
      "name": "transferOwnership",
      "outputs": [],
      "stateMutability": "nonpayable",
      "type": "function"
    },
    {
      "inputs": [],
      "name": "treasuryAddress",
      "outputs": [
        {
          "internalType": "address",
          "name": "",
          "type": "address"
        }
      ],
      "stateMutability": "view",
      "type": "function"
    },
    {
      "inputs": [
        {
          "internalType": "uint256",
          "name": "tokenId",
          "type": "uint256"
        },
        {
          "internalType": "uint256",
          "name": "newPhaseId",
          "type": "uint256"
        }
      ],
      "name": "upgradeLicense",
      "outputs": [],
      "stateMutability": "nonpayable",
      "type": "function"
    }
  ],
  "bytecode": "0x608060405234620000bc576200273c803803806200001d81620000d7565b92833981019060e081830312620000bc5780516001600160401b0390818111620000bc57836200004f91840162000103565b906020830151908111620000bc57620000ac936200006f91840162000103565b6040830151606084015191620000886080860162000175565b93620000a560c06200009d60a0890162000175565b970162000175565b5062000270565b6040516120199081620007238239f35b600080fd5b634e487b7160e01b600052604160045260246000fd5b6040519190601f01601f191682016001600160401b03811183821017620000fd57604052565b620000c1565b919080601f84011215620000bc5782516001600160401b038111620000fd5760209062000139601f8201601f19168301620000d7565b92818452828287010111620000bc5760005b8181106200016157508260009394955001015290565b85810183015184820184015282016200014b565b51906001600160a01b0382168203620000bc57565b156200019257565b606460405162461bcd60e51b815260206004820152602060248201527f5732453a204d617820737570706c79206d75737420626520706f7369746976656044820152fd5b15620001de57565b60405162461bcd60e51b815260206004820152601b60248201527f5732453a20496e76616c6964206f7261636c65206164647265737300000000006044820152606490fd5b156200022b57565b60405162461bcd60e51b815260206004820152601d60248201527f5732453a20496e76616c696420747265617375727920616464726573730000006044820152606490fd5b805194969594929392906001600160401b038211620000fd57620002a1826200029b6002546200046e565b620004ab565b60209081601f8411600114620003cd5750620003bf979893836200034594620003679794620002ee94600092620003c1575b50508160011b916000199060031b1c1916176002556200055d565b620002f96001600055565b620003043362000650565b620003118515156200018a565b620003366001600160a01b036200032c8582161515620001d6565b8716151562000223565b6200034085600d55565b600e55565b600c80546001600160a01b0319166001600160a01b0392909216919091179055565b600f80546001600160a01b0319166001600160a01b0384161790556200038d6001601055565b600160005260116020527f17bc176d2408558f6e4111feebc3cab4e16b63e967be91cde721f4c8a488b5525562000699565b565b015190503880620002d3565b60026000529190601f1984167f405787fa12a823e0f2b7631cc41b3ba8828b3321ca811111fa75cd3aa3bb5ace936000905b8282106200045557505084620003679794620002ee94620003bf9c9d98946200034598600195106200043b575b505050811b016002556200055d565b015160001960f88460031b161c191690553880806200042c565b80600186978294978701518155019601940190620003ff565b90600182811c92168015620004a0575b60208310146200048a57565b634e487b7160e01b600052602260045260246000fd5b91607f16916200047e565b601f8111620004b8575050565b6000906002825260208220906020601f850160051c83019410620004f9575b601f0160051c01915b828110620004ed57505050565b818155600101620004e0565b9092508290620004d7565b601f811162000511575050565b6000906003825260208220906020601f850160051c8301941062000552575b601f0160051c01915b8281106200054657505050565b81815560010162000539565b909250829062000530565b80519091906001600160401b038111620000fd576200058981620005836003546200046e565b62000504565b602080601f8311600114620005c85750819293600092620005bc575b50508160011b916000199060031b1c191617600355565b015190503880620005a5565b6003600052601f198316949091907fc2575a0e9e593c00f959f8c92f12db2869c3395a3b0502d05e2516446f71f85b926000905b878210620006375750508360019596106200061d575b505050811b01600355565b015160001960f88460031b161c1916905538808062000612565b80600185968294968601518155019501930190620005fc565b600980546001600160a01b039283166001600160a01b0319821681179092559091167f8be0079c531659141344cd1fd0a4f28419497f9722a3daafe3b4186f6b6457e0600080a3565b6001600160a01b03168015620006dd57604080519081016001600160401b03811182821017620000fd576040528181526101f4602090910152607d60a21b17600a55565b60405162461bcd60e51b815260206004820152601960248201527f455243323938313a20696e76616c6964207265636569766572000000000000006044820152606490fdfe6080604052600436101561001257600080fd5b60003560e01c806301ffc9a714610292578063025f77cb1461028d57806302fa7c471461028857806306ba01eb1461028357806306fdde031461027e578063081812fc14610279578063095ea7b31461027457806318160ddd1461026f57806323b872dd1461026a5780632a55205a1461026557806340010a7e1461026057806342842e0e1461025b57806345afae151461025657806358303b10146102515780635d090cde1461024c5780636352211e146102475780636605bfda1461024257806370a0823114610224578063715018a61461023d5780637ca62aff1461023857806383ac412f146102335780638da5cb5b1461022e57806395d89b41146102295780639ab24eb014610224578063a22cb4651461021f578063a2309ff81461021a578063aa98053f14610215578063b88d4fde14610210578063c5f956af1461020b578063c87b56dd14610206578063ccd3f50414610201578063d5abeb01146101fc578063da0239a6146101f7578063e6496fd7146101f2578063e985e9c5146101ed578063ed6bac1d146101e8578063ee14ca81146101e3578063f2fde38b146101de578063f58351ce146101d95763f9c5d19a146101d457600080fd5b611580565b611558565b611494565b61138d565b611326565b6112c9565b61127f565b611251565b611233565b6111de565b610fda565b610fb1565b610f2d565b610d8c565b610d6a565b610cdc565b610b17565b610c19565b610bf0565b610bc4565b610b98565b610b3a565b610a62565b610a33565b61094e565b610930565b61087b565b610858565b61083a565b610798565b610784565b610728565b610677565b610624565b610518565b610496565b610359565b610304565b6102ae565b6001600160e01b03198116036102a957565b600080fd5b346102a95760203660031901126102a95760206004356102cd81610297565b63ffffffff60e01b1663152a902d60e11b81149081156102f3575b506040519015158152f35b6301ffc9a760e01b149050386102e8565b346102a95760003660031901126102a957600c546040516001600160a01b039091168152602090f35b600435906001600160a01b03821682036102a957565b602435906001600160a01b03821682036102a957565b346102a95760403660031901126102a95761037261032d565b6024356001600160601b0381168082036102a9576127109061039261167c565b1161043e576001600160a01b038216917f8039bd6e4e7dba001c8840eb2e118d9d131246faa7d0d04335f7305127ec0b10916104399161041f906103d7861515611723565b6103f16103e2610f02565b6001600160a01b039092168252565b6001600160601b0383166020820152516001600160a01b03166001600160a01b031960a084901b1617600a55565b6040516001600160601b0390911681529081906020820190565b0390a2005b60405162461bcd60e51b815260206004820152602a60248201527f455243323938313a20726f79616c7479206665652077696c6c206578636565646044820152692073616c65507269636560b01b6064820152608490fd5b346102a95760203660031901126102a95760206104b46004356119cc565b604051908152f35b60005b8381106104cf5750506000910152565b81810151838201526020016104bf565b906020916104f8815180928185528580860191016104bc565b601f01601f1916010190565b9060206105159281815201906104df565b90565b346102a9576000806003193601126106215760405190806002549060019180831c92808216928315610617575b60209283861085146106035785885260208801949081156105e25750600114610589575b6105858761057981890382610ee0565b60405191829182610504565b0390f35b600260005294509192917f405787fa12a823e0f2b7631cc41b3ba8828b3321ca811111fa75cd3aa3bb5ace5b8386106105d15750505091019050610579826105853880610569565b8054858701529482019481016105b5565b60ff191685525050505090151560051b019050610579826105853880610569565b634e487b7160e01b82526022600452602482fd5b93607f1693610545565b80fd5b346102a95760203660031901126102a95760043561064181611ada565b15610666576000526006602052602060018060a01b0360406000205416604051908152f35b6333d1c03960e21b60005260046000fd5b60403660031901126102a95761068b61032d565b6001600160a01b039060243590826106a283611a42565b168033036106f6575b600093838552600660205260408520921691826001600160601b0360a01b8254161790557f8c5be1e5ebec7d5bd14f71427d1e84f3dd0314c0f7b2291e5b200ac8c7c3b9258480a480f35b600081815260076020908152604080832033845290915290205460ff166106ab576367d9dca160e11b60005260046000fd5b346102a95760003660031901126102a9576000546001546040519103600019018152602090f35b60609060031901126102a9576001600160a01b039060043582811681036102a9579160243590811681036102a9579060443590565b6107966107903661074f565b91611b42565b005b346102a95760403660031901126102a957600435600052600b6020526040600020604051906107c682610ea3565b546001600160a01b0380821680845260a09290921c6020840152901561082a575b61080b6108036001600160601b03602085015116602435611710565b612710900490565b915160408051929091166001600160a01b031682526020820192909252f35b90506108346116d4565b906107e7565b346102a95760003660031901126102a9576020600e54604051908152f35b6107966108643661074f565b906040519261087284610ec4565b60008452611cd2565b346102a95760203660031901126102a95761089461032d565b61089c61167c565b6001600160a01b039081169081156108eb57600c54826001600160601b0360a01b821617600c55167f078c3b417dadf69374a59793b829c52001247130433427049317bde56607b1b7600080a3005b60405162461bcd60e51b815260206004820152601b60248201527f5732453a20496e76616c6964206f7261636c65206164647265737300000000006044820152606490fd5b346102a95760003660031901126102a9576020601054604051908152f35b346102a95760403660031901126102a95761096761032d565b6024359060018060a01b0361098181600c5416331461176f565b60005460001984820181019291018210610a2e576109a3600d548311156117c8565b82169283156109f0576109d7817f1b34d8487a319bb4bc294237f5de72c2c7f3a373fb8ffea7ecdf5fba22ad950e94611e48565b6040805191825260208201929092529081908101610439565b60405162461bcd60e51b815260206004820152601660248201527515cc914e88125b9d985b1a59081c9958da5c1a595b9d60521b6044820152606490fd5b6116fa565b346102a95760203660031901126102a95760206001600160a01b03610a59600435611a42565b16604051908152f35b346102a95760203660031901126102a957610a7b61032d565b610a8361167c565b6001600160a01b03908116908115610ad257600f54826001600160601b0360a01b821617600f55167f4ab5be82436d353e61ca18726e984e561f5c1cc7c6d38b29d2553c790434705a600080a3005b60405162461bcd60e51b815260206004820152601d60248201527f5732453a20496e76616c696420747265617375727920616464726573730000006044820152606490fd5b346102a95760203660031901126102a95760206104b4610b3561032d565b611a07565b346102a95760008060031936011261062157610b5461167c565b600980546001600160a01b0319811690915581906001600160a01b03167f8be0079c531659141344cd1fd0a4f28419497f9722a3daafe3b4186f6b6457e08280a380f35b346102a95760203660031901126102a95760043560005260116020526020604060002054604051908152f35b346102a95760203660031901126102a95760043560005260126020526020604060002054604051908152f35b346102a95760003660031901126102a9576009546040516001600160a01b039091168152602090f35b346102a9576000806003193601126106215760405190806003549060019180831c92808216928315610cd2575b60209283861085146106035785885260208801949081156105e25750600114610c79576105858761057981890382610ee0565b600360005294509192917fc2575a0e9e593c00f959f8c92f12db2869c3395a3b0502d05e2516446f71f85b5b838610610cc15750505091019050610579826105853880610569565b805485870152948201948101610ca5565b93607f1693610c46565b346102a95760403660031901126102a957610cf561032d565b602435908115158092036102a9573360009081526007602090815260408083206001600160a01b0385168452909152902060ff1981541660ff841617905560405191825260018060a01b0316907f17307eab39ab6107e8899845ad3d59bd9653f200f220920489ca2b5937696c3160203392a3005b346102a95760003660031901126102a957602060001960005401604051908152f35b346102a95760403660031901126102a957602435600435610dab61167c565b601054811115610e3a578115610dea57610dd981610dc98493601055565b6000526011602052604060002090565b55600d548111610de557005b600d55005b60405162461bcd60e51b815260206004820152602260248201527f5732453a20506861736520737570706c79206d75737420626520706f73697469604482015261766560f01b6064820152608490fd5b60405162461bcd60e51b815260206004820152602560248201527f5732453a2043616e206f6e6c7920616476616e636520746f2068696768657220604482015264706861736560d81b6064820152608490fd5b634e487b7160e01b600052604160045260246000fd5b6040810190811067ffffffffffffffff821117610ebf57604052565b610e8d565b6020810190811067ffffffffffffffff821117610ebf57604052565b90601f8019910116810190811067ffffffffffffffff821117610ebf57604052565b60405190610f0f82610ea3565b565b67ffffffffffffffff8111610ebf57601f01601f191660200190565b60803660031901126102a957610f4161032d565b610f49610343565b6064359167ffffffffffffffff83116102a957366023840112156102a957826004013591610f7683610f11565b92610f846040519485610ee0565b80845236602482870101116102a95760208160009260246107969801838801378501015260443591611cd2565b346102a95760003660031901126102a957600f546040516001600160a01b039091168152602090f35b346102a95760203660031901126102a957600435610ff781611ada565b1561119957600090807a184f03e93ff9f4daa797ed6e38ed64bf6a1f010000000000000000818181101561118b575b50506d04ee2d6d415b85acef81000000008083101561117c575b50662386f26fc100008083101561116d575b506305f5e1008083101561115e575b506127108083101561114f575b50606482101561113f575b600a80921015611135575b6001908160216110958287016118f3565b95860101905b6110ff575b6105856110f1610579876040519283916110eb602084016021907f68747470733a2f2f6170692e70616e646f7261732e636f6d2f6c6963656e73658152602f60f81b60208201520190565b906118dc565b03601f198101835282610ee0565b600019019083906f181899199a1a9b1b9c1cb0b131b232b360811b8282061a8353049182156111305791908261109b565b6110a0565b9160010191611084565b9190606460029104910191611079565b6004919392049101913861106e565b60089193920491019138611061565b60109193920491019138611052565b60209193920491019138611040565b604094500491503880611026565b60405162461bcd60e51b815260206004820152601960248201527f5732453a20546f6b656e20646f6573206e6f74206578697374000000000000006044820152606490fd5b346102a95760203660031901126102a95760043561120760018060a01b03600c5416331461176f565b61121861121382611ada565b611925565b6000526012602052604060002061122f8154611971565b9055005b346102a95760003660031901126102a9576020600d54604051908152f35b346102a95760003660031901126102a957600d546001600054820301908111610a2e57602090604051908152f35b346102a95760203660031901126102a95760043561129b61167c565b600e5481600e557fde29518294b67b15c622c33e091aa7ee4b00122daf20eedf488072e33d96fe74600080a3005b346102a95760403660031901126102a957602060ff61131a6112e961032d565b6112f1610343565b6001600160a01b0391821660009081526007865260408082209290931681526020919091522090565b54166040519015158152f35b346102a957600080600319360112610621576010546001825b600a82111561135c575b5050604080519182526020820192909252f35b81815260116020526040812054919390929115611384575061137d83611971565b909161133f565b92819250611349565b60203660031901126102a957600435801561144f576113b96113b182600e54611710565b341015611814565b6000907f1b34d8487a319bb4bc294237f5de72c2c7f3a373fb8ffea7ecdf5fba22ad950e6114496113ef836000198654016117bb565b6113fd600d548211156117c8565b6114078433611e48565b6114308580808034611420600f5460018060a01b031690565b5af161142a611860565b50611890565b6040805194855260208501919091523393918291820190565b0390a280f35b60405162461bcd60e51b815260206004820152601e60248201527f5732453a205175616e74697479206d75737420626520706f73697469766500006044820152606490fd5b346102a95760203660031901126102a9576114ad61032d565b6114b561167c565b6001600160a01b0390811690811561150457600954826001600160601b0360a01b821617600955167f8be0079c531659141344cd1fd0a4f28419497f9722a3daafe3b4186f6b6457e0600080a3005b60405162461bcd60e51b815260206004820152602660248201527f4f776e61626c653a206e6577206f776e657220697320746865207a65726f206160448201526564647265737360d01b6064820152608490fd5b346102a95760203660031901126102a9576020611576610b3561032d565b1515604051908152f35b346102a95760403660031901126102a9576004356024356115ac60018060a01b03600c5416331461176f565b6115b861121383611ada565b6115c1826119cc565b811115611629577fb4c5114dafb9430311b9c0e893d2181f328319c82627d1dcf3493b20bca66b1f906115f8601054821115611980565b611601836119cc565b6000848152601260205260408120556040805191825260208201929092529081908101610439565b60405162461bcd60e51b815260206004820152602560248201527f5732453a2043616e206f6e6c79207570677261646520746f2068696768657220604482015264706861736560d81b6064820152608490fd5b6009546001600160a01b0316330361169057565b606460405162461bcd60e51b815260206004820152602060248201527f4f776e61626c653a2063616c6c6572206973206e6f7420746865206f776e65726044820152fd5b604051906116e182610ea3565b600a546001600160a01b038116835260a01c6020830152565b634e487b7160e01b600052601160045260246000fd5b81810292918115918404141715610a2e57565b1561172a57565b60405162461bcd60e51b815260206004820152601960248201527f455243323938313a20696e76616c6964207265636569766572000000000000006044820152606490fd5b1561177657565b60405162461bcd60e51b815260206004820152601760248201527f5732453a204e6f742050616e646f7261204f7261636c650000000000000000006044820152606490fd5b91908201809211610a2e57565b156117cf57565b60405162461bcd60e51b815260206004820152601760248201527f5732453a204d617820737570706c7920726561636865640000000000000000006044820152606490fd5b1561181b57565b60405162461bcd60e51b815260206004820152601960248201527f5732453a20496e73756666696369656e74207061796d656e74000000000000006044820152606490fd5b3d1561188b573d9061187182610f11565b9161187f6040519384610ee0565b82523d6000602084013e565b606090565b1561189757565b60405162461bcd60e51b815260206004820152601d60248201527f5732453a205472656173757279207472616e73666572206661696c65640000006044820152606490fd5b906118ef602092828151948592016104bc565b0190565b906118fd82610f11565b61190a6040519182610ee0565b828152809261191b601f1991610f11565b0190602036910137565b1561192c57565b60405162461bcd60e51b815260206004820152601b60248201527f5732453a204c6963656e736520646f6573206e6f7420657869737400000000006044820152606490fd5b6000198114610a2e5760010190565b1561198757565b60405162461bcd60e51b815260206004820152601c60248201527f5732453a205068617365206e6f742079657420617661696c61626c65000000006044820152606490fd5b6119d861121382611ada565b60005260126020526040600020546064811015611a0157603211156119fc57600190565b600290565b50600390565b6001600160a01b03168015611a3157600052600560205267ffffffffffffffff6040600020541690565b6323d3ad8160e21b60005260046000fd5b600190808211611ac957611a60816000526004602052604060002090565b54918215611a7d575b5050600160e01b8116156105155780611ac9565b600054821015611ac95790815b15611a695790915060001901611aaa816000526004602052604060002090565b54918215611ac2575050600160e01b8116611ac95790565b9081611a8a565b636f96cda160e11b60005260046000fd5b600091906001908381831115611aef57505050565b80548210611afc57505050565b9293509082815b611b15575b505050600160e01b161590565b828152600460205260408120549350909183611b3d578015610a2e5760001901919081611b03565b611b08565b919091611b4e82611a42565b6001600160a01b0391821693909190818316859003611ccd5760008481526006602052604090208054611b946001600160a01b03881633908114908314171590565b1590565b611c7f575b611c75575b506001600160a01b0385811660009081526005602090815260408083208054600019019055928416825282822080546001019055868252600490522091169384929091600160e11b904260a01b851782179055811615611c2b575b507fddf252ad1be2c89b69c2b068fc378daa952ba7f163c4a11628f55a4df523b3ef600080a415611c2657565b611fb1565b60018401611c43816000526004602052604060002090565b5415611c50575b50611bf9565b6000548114611c4a57611c6d906000526004602052604060002090565b553880611c4a565b6000905538611b9e565b611cc3611b90611cbc33611ca58b60018060a01b03166000526007602052604060002090565b9060018060a01b0316600052602052604060002090565b5460ff1690565b15611b9957611fa0565b611f90565b929190611ce0828286611b42565b803b611ced575b50505050565b611cf693611e1f565b15611d045738808080611ce7565b6368d2bf6b60e11b60005260046000fd5b908160209103126102a9575161051581610297565b610515939260809260018060a01b0316825260006020830152604082015281606082015201906104df565b6001600160a01b039182168152911660208201526040810191909152608060608201819052610515929101906104df565b611daf60209160009394604051948580948193630a85bd0160e11b998a84523360048501611d2a565b03926001600160a01b03165af160009181611def575b50611de157611dd2611860565b805115611d0457805190602001fd5b6001600160e01b0319161490565b611e1191925060203d8111611e18575b611e098183610ee0565b810190611d15565b9038611dc5565b503d611dff565b92602091611daf936000604051809681958294630a85bd0160e11b9a8b85523360048601611d55565b604051611e5481610ec4565b6000928382528354928115611f8b576000848152600460205260409020600192906001600160a01b038316904260a01b83861460e11b17821790556001600160a01b038316600090815260056020526040902068010000000000000001830281540190558015611f865781860195908480805b611f37575b50505050848655813b611ee2575b505050505050565b84039180805b611f03575b5050505050815403610621578080808080611eda565b15611f2a575b85611f1b611b90868487019686611d86565b611f255781611ee8565b611d04565b848310611f095780611eed565b15611f6e575b50878583838b7fddf252ad1be2c89b69c2b068fc378daa952ba7f163c4a11628f55a4df523b3ef8180a49081611ec7565b90910190868214611f7f5784611f3d565b8481611ecc565b611fd3565b611fc2565b62a1148160e81b60005260046000fd5b632ce44b5f60e11b60005260046000fd5b633a954ecd60e21b60005260046000fd5b63b562e8dd60e01b60005260046000fd5b622e076360e81b60005260046000fdfea2646970667358221220e31df22c98822c37c18570a40931b71d4ea1d218fa4de4889418a04ed0aba5b164736f6c63430008140033",
  "linkReferences": {},
  "deployedLinkReferences": {}
}