{
  "_format": "hh-sol-artifact-1",
  "contractName": "PoolFamilyAndFriends",
  "sourceName": "contracts/PoolFamilyAndFriends.sol",
  "abi": [
    {
      "inputs": [
        {
          "internalType": "address[]",
          "name": "initialAdmins",
          "type": "address[]"
        },
        {
          "internalType": "address",
          "name": "_utilityAddress",
          "type": "address"
        }
      ],
      "stateMutability": "nonpayable",
      "type": "constructor"
    },
    {
      "inputs": [],
      "name": "AccessControlBadConfirmation",
      "type": "error"
    },
    {
      "inputs": [
        {
          "internalType": "address",
          "name": "account",
          "type": "address"
        },
        {
          "internalType": "bytes32",
          "name": "neededRole",
          "type": "bytes32"
        }
      ],
      "name": "AccessControlUnauthorizedAccount",
      "type": "error"
    },
    {
      "inputs": [],
      "name": "ReentrancyGuardReentrantCall",
      "type": "error"
    },
    {
      "anonymous": false,
      "inputs": [
        {
          "indexed": true,
          "internalType": "address",
          "name": "user",
          "type": "address"
        },
        {
          "indexed": false,
          "internalType": "enum PoolFamilyAndFriends.TokenType",
          "name": "token",
          "type": "uint8"
        },
        {
          "indexed": false,
          "internalType": "uint256[]",
          "name": "indices",
          "type": "uint256[]"
        },
        {
          "indexed": false,
          "internalType": "uint256",
          "name": "totalPrincipal",
          "type": "uint256"
        },
        {
          "indexed": false,
          "internalType": "uint256",
          "name": "totalYield",
          "type": "uint256"
        },
        {
          "indexed": false,
          "internalType": "uint256",
          "name": "when",
          "type": "uint256"
        }
      ],
      "name": "BatchWithdraw",
      "type": "event"
    },
    {
      "anonymous": false,
      "inputs": [
        {
          "indexed": true,
          "internalType": "address",
          "name": "user",
          "type": "address"
        },
        {
          "indexed": false,
          "internalType": "enum PoolFamilyAndFriends.TokenType",
          "name": "token",
          "type": "uint8"
        },
        {
          "indexed": false,
          "internalType": "uint256",
          "name": "amount",
          "type": "uint256"
        },
        {
          "indexed": false,
          "internalType": "uint256",
          "name": "when",
          "type": "uint256"
        }
      ],
      "name": "ClaimUtility",
      "type": "event"
    },
    {
      "anonymous": false,
      "inputs": [
        {
          "indexed": true,
          "internalType": "address",
          "name": "user",
          "type": "address"
        },
        {
          "indexed": false,
          "internalType": "enum PoolFamilyAndFriends.TokenType",
          "name": "token",
          "type": "uint8"
        },
        {
          "indexed": false,
          "internalType": "uint256",
          "name": "amount",
          "type": "uint256"
        },
        {
          "indexed": false,
          "internalType": "uint256",
          "name": "when",
          "type": "uint256"
        },
        {
          "indexed": false,
          "internalType": "uint256",
          "name": "depositIndex",
          "type": "uint256"
        },
        {
          "indexed": false,
          "internalType": "bool",
          "name": "reinvestment",
          "type": "bool"
        }
      ],
      "name": "Deposit",
      "type": "event"
    },
    {
      "anonymous": false,
      "inputs": [
        {
          "indexed": true,
          "internalType": "address",
          "name": "user",
          "type": "address"
        },
        {
          "indexed": false,
          "internalType": "uint256[]",
          "name": "indices",
          "type": "uint256[]"
        }
      ],
      "name": "DepositsUnlocked",
      "type": "event"
    },
    {
      "anonymous": false,
      "inputs": [
        {
          "indexed": true,
          "internalType": "address",
          "name": "token",
          "type": "address"
        },
        {
          "indexed": true,
          "internalType": "address",
          "name": "to",
          "type": "address"
        },
        {
          "indexed": false,
          "internalType": "uint256",
          "name": "amount",
          "type": "uint256"
        }
      ],
      "name": "ERC20Rescued",
      "type": "event"
    },
    {
      "anonymous": false,
      "inputs": [
        {
          "indexed": false,
          "internalType": "uint256",
          "name": "when",
          "type": "uint256"
        }
      ],
      "name": "GlobalLiquidationEnabled",
      "type": "event"
    },
    {
      "anonymous": false,
      "inputs": [
        {
          "indexed": false,
          "internalType": "uint256",
          "name": "newPeriod",
          "type": "uint256"
        }
      ],
      "name": "LockupPeriodChanged",
      "type": "event"
    },
    {
      "anonymous": false,
      "inputs": [
        {
          "indexed": false,
          "internalType": "enum PoolFamilyAndFriends.TokenType",
          "name": "token",
          "type": "uint8"
        },
        {
          "indexed": false,
          "internalType": "uint256",
          "name": "newCap",
          "type": "uint256"
        }
      ],
      "name": "MaxCapChanged",
      "type": "event"
    },
    {
      "anonymous": false,
      "inputs": [
        {
          "indexed": false,
          "internalType": "bool",
          "name": "depositsPaused",
          "type": "bool"
        },
        {
          "indexed": false,
          "internalType": "bool",
          "name": "withdrawalsPaused",
          "type": "bool"
        }
      ],
      "name": "PauseChanged",
      "type": "event"
    },
    {
      "anonymous": false,
      "inputs": [
        {
          "indexed": true,
          "internalType": "address",
          "name": "user",
          "type": "address"
        },
        {
          "indexed": false,
          "internalType": "enum PoolFamilyAndFriends.TokenType",
          "name": "token",
          "type": "uint8"
        },
        {
          "indexed": false,
          "internalType": "uint256",
          "name": "amount",
          "type": "uint256"
        },
        {
          "indexed": false,
          "internalType": "uint256",
          "name": "when",
          "type": "uint256"
        }
      ],
      "name": "Reinvest",
      "type": "event"
    },
    {
      "anonymous": false,
      "inputs": [
        {
          "indexed": true,
          "internalType": "bytes32",
          "name": "role",
          "type": "bytes32"
        },
        {
          "indexed": true,
          "internalType": "bytes32",
          "name": "previousAdminRole",
          "type": "bytes32"
        },
        {
          "indexed": true,
          "internalType": "bytes32",
          "name": "newAdminRole",
          "type": "bytes32"
        }
      ],
      "name": "RoleAdminChanged",
      "type": "event"
    },
    {
      "anonymous": false,
      "inputs": [
        {
          "indexed": true,
          "internalType": "bytes32",
          "name": "role",
          "type": "bytes32"
        },
        {
          "indexed": true,
          "internalType": "address",
          "name": "account",
          "type": "address"
        },
        {
          "indexed": true,
          "internalType": "address",
          "name": "sender",
          "type": "address"
        }
      ],
      "name": "RoleGranted",
      "type": "event"
    },
    {
      "anonymous": false,
      "inputs": [
        {
          "indexed": true,
          "internalType": "bytes32",
          "name": "role",
          "type": "bytes32"
        },
        {
          "indexed": true,
          "internalType": "address",
          "name": "account",
          "type": "address"
        },
        {
          "indexed": true,
          "internalType": "address",
          "name": "sender",
          "type": "address"
        }
      ],
      "name": "RoleRevoked",
      "type": "event"
    },
    {
      "anonymous": false,
      "inputs": [
        {
          "indexed": true,
          "internalType": "address",
          "name": "user",
          "type": "address"
        },
        {
          "indexed": false,
          "internalType": "bool",
          "name": "status",
          "type": "bool"
        }
      ],
      "name": "UserWhitelisted",
      "type": "event"
    },
    {
      "anonymous": false,
      "inputs": [
        {
          "indexed": false,
          "internalType": "address",
          "name": "newUtilityAddress",
          "type": "address"
        }
      ],
      "name": "UtilityAddressChanged",
      "type": "event"
    },
    {
      "anonymous": false,
      "inputs": [
        {
          "indexed": true,
          "internalType": "address",
          "name": "admin",
          "type": "address"
        },
        {
          "indexed": false,
          "internalType": "enum PoolFamilyAndFriends.TokenType",
          "name": "token",
          "type": "uint8"
        },
        {
          "indexed": false,
          "internalType": "uint256",
          "name": "amount",
          "type": "uint256"
        },
        {
          "indexed": false,
          "internalType": "uint256",
          "name": "when",
          "type": "uint256"
        }
      ],
      "name": "UtilityInjected",
      "type": "event"
    },
    {
      "anonymous": false,
      "inputs": [
        {
          "indexed": true,
          "internalType": "address",
          "name": "to",
          "type": "address"
        },
        {
          "indexed": false,
          "internalType": "enum PoolFamilyAndFriends.TokenType",
          "name": "token",
          "type": "uint8"
        },
        {
          "indexed": false,
          "internalType": "uint256",
          "name": "amount",
          "type": "uint256"
        },
        {
          "indexed": false,
          "internalType": "uint256",
          "name": "when",
          "type": "uint256"
        }
      ],
      "name": "UtilityWithdrawn",
      "type": "event"
    },
    {
      "anonymous": false,
      "inputs": [
        {
          "indexed": true,
          "internalType": "address",
          "name": "user",
          "type": "address"
        },
        {
          "indexed": false,
          "internalType": "enum PoolFamilyAndFriends.TokenType",
          "name": "token",
          "type": "uint8"
        },
        {
          "indexed": false,
          "internalType": "uint256",
          "name": "principal",
          "type": "uint256"
        },
        {
          "indexed": false,
          "internalType": "uint256",
          "name": "yield",
          "type": "uint256"
        },
        {
          "indexed": false,
          "internalType": "uint256",
          "name": "when",
          "type": "uint256"
        },
        {
          "indexed": false,
          "internalType": "uint256",
          "name": "depositIndex",
          "type": "uint256"
        }
      ],
      "name": "Withdraw",
      "type": "event"
    },
    {
      "inputs": [],
      "name": "ADMIN_ROLE",
      "outputs": [
        {
          "internalType": "bytes32",
          "name": "",
          "type": "bytes32"
        }
      ],
      "stateMutability": "view",
      "type": "function"
    },
    {
      "inputs": [],
      "name": "DEFAULT_ADMIN_ROLE",
      "outputs": [
        {
          "internalType": "bytes32",
          "name": "",
          "type": "bytes32"
        }
      ],
      "stateMutability": "view",
      "type": "function"
    },
    {
      "inputs": [],
      "name": "PAUSER_ROLE",
      "outputs": [
        {
          "internalType": "bytes32",
          "name": "",
          "type": "bytes32"
        }
      ],
      "stateMutability": "view",
      "type": "function"
    },
    {
      "inputs": [],
      "name": "UNLOCKER_ROLE",
      "outputs": [
        {
          "internalType": "bytes32",
          "name": "",
          "type": "bytes32"
        }
      ],
      "stateMutability": "view",
      "type": "function"
    },
    {
      "inputs": [],
      "name": "USDC",
      "outputs": [
        {
          "internalType": "address",
          "name": "",
          "type": "address"
        }
      ],
      "stateMutability": "view",
      "type": "function"
    },
    {
      "inputs": [],
      "name": "UTILITY_INJECTOR_ROLE",
      "outputs": [
        {
          "internalType": "bytes32",
          "name": "",
          "type": "bytes32"
        }
      ],
      "stateMutability": "view",
      "type": "function"
    },
    {
      "inputs": [],
      "name": "UTILITY_WITHDRAWER_ROLE",
      "outputs": [
        {
          "internalType": "bytes32",
          "name": "",
          "type": "bytes32"
        }
      ],
      "stateMutability": "view",
      "type": "function"
    },
    {
      "inputs": [
        {
          "internalType": "uint256",
          "name": "",
          "type": "uint256"
        }
      ],
      "name": "allDepositors",
      "outputs": [
        {
          "internalType": "address",
          "name": "",
          "type": "address"
        }
      ],
      "stateMutability": "view",
      "type": "function"
    },
    {
      "inputs": [
        {
          "internalType": "uint256",
          "name": "",
          "type": "uint256"
        }
      ],
      "name": "allUsers",
      "outputs": [
        {
          "internalType": "address",
          "name": "",
          "type": "address"
        }
      ],
      "stateMutability": "view",
      "type": "function"
    },
    {
      "inputs": [
        {
          "internalType": "address",
          "name": "user",
          "type": "address"
        },
        {
          "internalType": "uint256",
          "name": "amount",
          "type": "uint256"
        }
      ],
      "name": "assignUtilityETH",
      "outputs": [],
      "stateMutability": "nonpayable",
      "type": "function"
    },
    {
      "inputs": [
        {
          "internalType": "address[]",
          "name": "users",
          "type": "address[]"
        },
        {
          "internalType": "uint256[]",
          "name": "amounts",
          "type": "uint256[]"
        }
      ],
      "name": "assignUtilityETHBatch",
      "outputs": [],
      "stateMutability": "nonpayable",
      "type": "function"
    },
    {
      "inputs": [
        {
          "internalType": "address",
          "name": "user",
          "type": "address"
        },
        {
          "internalType": "uint256",
          "name": "amount",
          "type": "uint256"
        }
      ],
      "name": "assignUtilityUSDC",
      "outputs": [],
      "stateMutability": "nonpayable",
      "type": "function"
    },
    {
      "inputs": [
        {
          "internalType": "address[]",
          "name": "users",
          "type": "address[]"
        },
        {
          "internalType": "uint256[]",
          "name": "amounts",
          "type": "uint256[]"
        }
      ],
      "name": "assignUtilityUSDCBatch",
      "outputs": [],
      "stateMutability": "nonpayable",
      "type": "function"
    },
    {
      "inputs": [
        {
          "internalType": "uint256[]",
          "name": "depositIndices",
          "type": "uint256[]"
        }
      ],
      "name": "batchWithdraw",
      "outputs": [],
      "stateMutability": "nonpayable",
      "type": "function"
    },
    {
      "inputs": [],
      "name": "claimUtilityETH",
      "outputs": [],
      "stateMutability": "nonpayable",
      "type": "function"
    },
    {
      "inputs": [],
      "name": "claimUtilityUSDC",
      "outputs": [],
      "stateMutability": "nonpayable",
      "type": "function"
    },
    {
      "inputs": [],
      "name": "depositETH",
      "outputs": [],
      "stateMutability": "payable",
      "type": "function"
    },
    {
      "inputs": [
        {
          "internalType": "uint256",
          "name": "amount",
          "type": "uint256"
        }
      ],
      "name": "depositUSDC",
      "outputs": [],
      "stateMutability": "nonpayable",
      "type": "function"
    },
    {
      "inputs": [],
      "name": "enableGlobalLiquidation",
      "outputs": [],
      "stateMutability": "nonpayable",
      "type": "function"
    },
    {
      "inputs": [
        {
          "internalType": "bytes32",
          "name": "role",
          "type": "bytes32"
        }
      ],
      "name": "getRoleAdmin",
      "outputs": [
        {
          "internalType": "bytes32",
          "name": "",
          "type": "bytes32"
        }
      ],
      "stateMutability": "view",
      "type": "function"
    },
    {
      "inputs": [
        {
          "internalType": "address",
          "name": "user",
          "type": "address"
        }
      ],
      "name": "getUserDeposits",
      "outputs": [
        {
          "components": [
            {
              "internalType": "enum PoolFamilyAndFriends.TokenType",
              "name": "token",
              "type": "uint8"
            },
            {
              "internalType": "uint256",
              "name": "amount",
              "type": "uint256"
            },
            {
              "internalType": "uint256",
              "name": "timestamp",
              "type": "uint256"
            },
            {
              "internalType": "bool",
              "name": "withdrawn",
              "type": "bool"
            },
            {
              "internalType": "bool",
              "name": "unlockedByAdmin",
              "type": "bool"
            },
            {
              "internalType": "bool",
              "name": "fullyRedeemable",
              "type": "bool"
            },
            {
              "internalType": "bool",
              "name": "isReinvestment",
              "type": "bool"
            },
            {
              "internalType": "uint256",
              "name": "withdrawnAt",
              "type": "uint256"
            },
            {
              "internalType": "uint256",
              "name": "yieldReceived",
              "type": "uint256"
            }
          ],
          "internalType": "struct PoolFamilyAndFriends.DepositInfo[]",
          "name": "",
          "type": "tuple[]"
        }
      ],
      "stateMutability": "view",
      "type": "function"
    },
    {
      "inputs": [
        {
          "internalType": "address",
          "name": "user",
          "type": "address"
        }
      ],
      "name": "getUserStats",
      "outputs": [
        {
          "internalType": "uint256",
          "name": "depositedETH",
          "type": "uint256"
        },
        {
          "internalType": "uint256",
          "name": "depositedUSDC",
          "type": "uint256"
        },
        {
          "internalType": "uint256",
          "name": "withdrawnETH",
          "type": "uint256"
        },
        {
          "internalType": "uint256",
          "name": "withdrawnUSDC",
          "type": "uint256"
        },
        {
          "internalType": "uint256",
          "name": "claimableUtilityETH",
          "type": "uint256"
        },
        {
          "internalType": "uint256",
          "name": "claimableUtilityUSDC",
          "type": "uint256"
        },
        {
          "internalType": "uint256",
          "name": "reinvestedETH",
          "type": "uint256"
        },
        {
          "internalType": "uint256",
          "name": "reinvestedUSDC",
          "type": "uint256"
        }
      ],
      "stateMutability": "view",
      "type": "function"
    },
    {
      "inputs": [],
      "name": "getVaultStats",
      "outputs": [
        {
          "internalType": "uint256",
          "name": "ethInVault",
          "type": "uint256"
        },
        {
          "internalType": "uint256",
          "name": "usdcInVault",
          "type": "uint256"
        },
        {
          "internalType": "uint256",
          "name": "totalDepositedETH_",
          "type": "uint256"
        },
        {
          "internalType": "uint256",
          "name": "totalDepositedUSDC_",
          "type": "uint256"
        },
        {
          "internalType": "uint256",
          "name": "totalWithdrawnETH_",
          "type": "uint256"
        },
        {
          "internalType": "uint256",
          "name": "totalWithdrawnUSDC_",
          "type": "uint256"
        },
        {
          "internalType": "uint256",
          "name": "totalUtilityETH_",
          "type": "uint256"
        },
        {
          "internalType": "uint256",
          "name": "totalUtilityUSDC_",
          "type": "uint256"
        },
        {
          "internalType": "uint256",
          "name": "totalReinvestedETH_",
          "type": "uint256"
        },
        {
          "internalType": "uint256",
          "name": "totalReinvestedUSDC_",
          "type": "uint256"
        },
        {
          "internalType": "uint256",
          "name": "numUsers",
          "type": "uint256"
        },
        {
          "internalType": "uint256",
          "name": "numWithdrawnUsers",
          "type": "uint256"
        }
      ],
      "stateMutability": "view",
      "type": "function"
    },
    {
      "inputs": [],
      "name": "globalLiquidationEnabled",
      "outputs": [
        {
          "internalType": "bool",
          "name": "",
          "type": "bool"
        }
      ],
      "stateMutability": "view",
      "type": "function"
    },
    {
      "inputs": [],
      "name": "globalLiquidationTimestamp",
      "outputs": [
        {
          "internalType": "uint256",
          "name": "",
          "type": "uint256"
        }
      ],
      "stateMutability": "view",
      "type": "function"
    },
    {
      "inputs": [
        {
          "internalType": "bytes32",
          "name": "role",
          "type": "bytes32"
        },
        {
          "internalType": "address",
          "name": "account",
          "type": "address"
        }
      ],
      "name": "grantRole",
      "outputs": [],
      "stateMutability": "nonpayable",
      "type": "function"
    },
    {
      "inputs": [
        {
          "internalType": "bytes32",
          "name": "role",
          "type": "bytes32"
        },
        {
          "internalType": "address",
          "name": "account",
          "type": "address"
        }
      ],
      "name": "hasRole",
      "outputs": [
        {
          "internalType": "bool",
          "name": "",
          "type": "bool"
        }
      ],
      "stateMutability": "view",
      "type": "function"
    },
    {
      "inputs": [
        {
          "internalType": "address",
          "name": "",
          "type": "address"
        }
      ],
      "name": "hasWithdrawn",
      "outputs": [
        {
          "internalType": "bool",
          "name": "",
          "type": "bool"
        }
      ],
      "stateMutability": "view",
      "type": "function"
    },
    {
      "inputs": [],
      "name": "injectUtilityETH",
      "outputs": [],
      "stateMutability": "payable",
      "type": "function"
    },
    {
      "inputs": [
        {
          "internalType": "uint256",
          "name": "amount",
          "type": "uint256"
        }
      ],
      "name": "injectUtilityUSDC",
      "outputs": [],
      "stateMutability": "nonpayable",
      "type": "function"
    },
    {
      "inputs": [
        {
          "internalType": "address",
          "name": "",
          "type": "address"
        }
      ],
      "name": "isWhitelisted",
      "outputs": [
        {
          "internalType": "bool",
          "name": "",
          "type": "bool"
        }
      ],
      "stateMutability": "view",
      "type": "function"
    },
    {
      "inputs": [],
      "name": "lockupPeriod",
      "outputs": [
        {
          "internalType": "uint256",
          "name": "",
          "type": "uint256"
        }
      ],
      "stateMutability": "view",
      "type": "function"
    },
    {
      "inputs": [],
      "name": "maxCapETH",
      "outputs": [
        {
          "internalType": "uint256",
          "name": "",
          "type": "uint256"
        }
      ],
      "stateMutability": "view",
      "type": "function"
    },
    {
      "inputs": [],
      "name": "maxCapUSDC",
      "outputs": [
        {
          "internalType": "uint256",
          "name": "",
          "type": "uint256"
        }
      ],
      "stateMutability": "view",
      "type": "function"
    },
    {
      "inputs": [],
      "name": "pausedDeposits",
      "outputs": [
        {
          "internalType": "bool",
          "name": "",
          "type": "bool"
        }
      ],
      "stateMutability": "view",
      "type": "function"
    },
    {
      "inputs": [],
      "name": "pausedWithdrawals",
      "outputs": [
        {
          "internalType": "bool",
          "name": "",
          "type": "bool"
        }
      ],
      "stateMutability": "view",
      "type": "function"
    },
    {
      "inputs": [],
      "name": "reinvestUtilityETH",
      "outputs": [],
      "stateMutability": "nonpayable",
      "type": "function"
    },
    {
      "inputs": [],
      "name": "reinvestUtilityUSDC",
      "outputs": [],
      "stateMutability": "nonpayable",
      "type": "function"
    },
    {
      "inputs": [
        {
          "internalType": "bytes32",
          "name": "role",
          "type": "bytes32"
        },
        {
          "internalType": "address",
          "name": "callerConfirmation",
          "type": "address"
        }
      ],
      "name": "renounceRole",
      "outputs": [],
      "stateMutability": "nonpayable",
      "type": "function"
    },
    {
      "inputs": [
        {
          "internalType": "address",
          "name": "token",
          "type": "address"
        },
        {
          "internalType": "address",
          "name": "to",
          "type": "address"
        },
        {
          "internalType": "uint256",
          "name": "amount",
          "type": "uint256"
        }
      ],
      "name": "rescueERC20",
      "outputs": [],
      "stateMutability": "nonpayable",
      "type": "function"
    },
    {
      "inputs": [
        {
          "internalType": "bytes32",
          "name": "role",
          "type": "bytes32"
        },
        {
          "internalType": "address",
          "name": "account",
          "type": "address"
        }
      ],
      "name": "revokeRole",
      "outputs": [],
      "stateMutability": "nonpayable",
      "type": "function"
    },
    {
      "inputs": [
        {
          "internalType": "uint256",
          "name": "newPeriod",
          "type": "uint256"
        }
      ],
      "name": "setLockupPeriod",
      "outputs": [],
      "stateMutability": "nonpayable",
      "type": "function"
    },
    {
      "inputs": [
        {
          "internalType": "enum PoolFamilyAndFriends.TokenType",
          "name": "token",
          "type": "uint8"
        },
        {
          "internalType": "uint256",
          "name": "newCap",
          "type": "uint256"
        }
      ],
      "name": "setMaxCap",
      "outputs": [],
      "stateMutability": "nonpayable",
      "type": "function"
    },
    {
      "inputs": [
        {
          "internalType": "bool",
          "name": "_deposits",
          "type": "bool"
        },
        {
          "internalType": "bool",
          "name": "_withdrawals",
          "type": "bool"
        }
      ],
      "name": "setPaused",
      "outputs": [],
      "stateMutability": "nonpayable",
      "type": "function"
    },
    {
      "inputs": [
        {
          "internalType": "address",
          "name": "newUtilityAddress",
          "type": "address"
        }
      ],
      "name": "setUtilityAddress",
      "outputs": [],
      "stateMutability": "nonpayable",
      "type": "function"
    },
    {
      "inputs": [
        {
          "internalType": "address",
          "name": "user",
          "type": "address"
        },
        {
          "internalType": "bool",
          "name": "status",
          "type": "bool"
        }
      ],
      "name": "setWhitelist",
      "outputs": [],
      "stateMutability": "nonpayable",
      "type": "function"
    },
    {
      "inputs": [
        {
          "internalType": "address[]",
          "name": "users",
          "type": "address[]"
        },
        {
          "internalType": "bool[]",
          "name": "statuses",
          "type": "bool[]"
        }
      ],
      "name": "setWhitelistBatch",
      "outputs": [],
      "stateMutability": "nonpayable",
      "type": "function"
    },
    {
      "inputs": [
        {
          "internalType": "bool",
          "name": "enabled",
          "type": "bool"
        }
      ],
      "name": "setWhitelistEnabled",
      "outputs": [],
      "stateMutability": "nonpayable",
      "type": "function"
    },
    {
      "inputs": [
        {
          "internalType": "bytes4",
          "name": "interfaceId",
          "type": "bytes4"
        }
      ],
      "name": "supportsInterface",
      "outputs": [
        {
          "internalType": "bool",
          "name": "",
          "type": "bool"
        }
      ],
      "stateMutability": "view",
      "type": "function"
    },
    {
      "inputs": [],
      "name": "totalDepositedETH",
      "outputs": [
        {
          "internalType": "uint256",
          "name": "",
          "type": "uint256"
        }
      ],
      "stateMutability": "view",
      "type": "function"
    },
    {
      "inputs": [],
      "name": "totalDepositedUSDC",
      "outputs": [
        {
          "internalType": "uint256",
          "name": "",
          "type": "uint256"
        }
      ],
      "stateMutability": "view",
      "type": "function"
    },
    {
      "inputs": [],
      "name": "totalReinvestedETH",
      "outputs": [
        {
          "internalType": "uint256",
          "name": "",
          "type": "uint256"
        }
      ],
      "stateMutability": "view",
      "type": "function"
    },
    {
      "inputs": [],
      "name": "totalReinvestedUSDC",
      "outputs": [
        {
          "internalType": "uint256",
          "name": "",
          "type": "uint256"
        }
      ],
      "stateMutability": "view",
      "type": "function"
    },
    {
      "inputs": [],
      "name": "totalUtilityETH",
      "outputs": [
        {
          "internalType": "uint256",
          "name": "",
          "type": "uint256"
        }
      ],
      "stateMutability": "view",
      "type": "function"
    },
    {
      "inputs": [],
      "name": "totalUtilityUSDC",
      "outputs": [
        {
          "internalType": "uint256",
          "name": "",
          "type": "uint256"
        }
      ],
      "stateMutability": "view",
      "type": "function"
    },
    {
      "inputs": [],
      "name": "totalWithdrawnETH",
      "outputs": [
        {
          "internalType": "uint256",
          "name": "",
          "type": "uint256"
        }
      ],
      "stateMutability": "view",
      "type": "function"
    },
    {
      "inputs": [],
      "name": "totalWithdrawnUSDC",
      "outputs": [
        {
          "internalType": "uint256",
          "name": "",
          "type": "uint256"
        }
      ],
      "stateMutability": "view",
      "type": "function"
    },
    {
      "inputs": [
        {
          "internalType": "address",
          "name": "user",
          "type": "address"
        },
        {
          "internalType": "uint256[]",
          "name": "depositIndices",
          "type": "uint256[]"
        }
      ],
      "name": "unlockDepositsForUser",
      "outputs": [],
      "stateMutability": "nonpayable",
      "type": "function"
    },
    {
      "inputs": [
        {
          "internalType": "address",
          "name": "",
          "type": "address"
        }
      ],
      "name": "userClaimableUtilityETH",
      "outputs": [
        {
          "internalType": "uint256",
          "name": "",
          "type": "uint256"
        }
      ],
      "stateMutability": "view",
      "type": "function"
    },
    {
      "inputs": [
        {
          "internalType": "address",
          "name": "",
          "type": "address"
        }
      ],
      "name": "userClaimableUtilityUSDC",
      "outputs": [
        {
          "internalType": "uint256",
          "name": "",
          "type": "uint256"
        }
      ],
      "stateMutability": "view",
      "type": "function"
    },
    {
      "inputs": [
        {
          "internalType": "address",
          "name": "",
          "type": "address"
        },
        {
          "internalType": "uint256",
          "name": "",
          "type": "uint256"
        }
      ],
      "name": "userDeposits",
      "outputs": [
        {
          "internalType": "enum PoolFamilyAndFriends.TokenType",
          "name": "token",
          "type": "uint8"
        },
        {
          "internalType": "uint256",
          "name": "amount",
          "type": "uint256"
        },
        {
          "internalType": "uint256",
          "name": "timestamp",
          "type": "uint256"
        },
        {
          "internalType": "bool",
          "name": "withdrawn",
          "type": "bool"
        },
        {
          "internalType": "bool",
          "name": "unlockedByAdmin",
          "type": "bool"
        },
        {
          "internalType": "bool",
          "name": "fullyRedeemable",
          "type": "bool"
        },
        {
          "internalType": "bool",
          "name": "isReinvestment",
          "type": "bool"
        },
        {
          "internalType": "uint256",
          "name": "withdrawnAt",
          "type": "uint256"
        },
        {
          "internalType": "uint256",
          "name": "yieldReceived",
          "type": "uint256"
        }
      ],
      "stateMutability": "view",
      "type": "function"
    },
    {
      "inputs": [
        {
          "internalType": "address",
          "name": "",
          "type": "address"
        }
      ],
      "name": "userTotalReinvestedETH",
      "outputs": [
        {
          "internalType": "uint256",
          "name": "",
          "type": "uint256"
        }
      ],
      "stateMutability": "view",
      "type": "function"
    },
    {
      "inputs": [
        {
          "internalType": "address",
          "name": "",
          "type": "address"
        }
      ],
      "name": "userTotalReinvestedUSDC",
      "outputs": [
        {
          "internalType": "uint256",
          "name": "",
          "type": "uint256"
        }
      ],
      "stateMutability": "view",
      "type": "function"
    },
    {
      "inputs": [],
      "name": "utilityAddress",
      "outputs": [
        {
          "internalType": "address",
          "name": "",
          "type": "address"
        }
      ],
      "stateMutability": "view",
      "type": "function"
    },
    {
      "inputs": [],
      "name": "whitelistEnabled",
      "outputs": [
        {
          "internalType": "bool",
          "name": "",
          "type": "bool"
        }
      ],
      "stateMutability": "view",
      "type": "function"
    },
    {
      "inputs": [
        {
          "internalType": "uint256",
          "name": "depositIndex",
          "type": "uint256"
        }
      ],
      "name": "withdraw",
      "outputs": [],
      "stateMutability": "nonpayable",
      "type": "function"
    },
    {
      "inputs": [
        {
          "internalType": "uint256",
          "name": "amount",
          "type": "uint256"
        }
      ],
      "name": "withdrawUtilityETH",
      "outputs": [],
      "stateMutability": "nonpayable",
      "type": "function"
    },
    {
      "inputs": [
        {
          "internalType": "uint256",
          "name": "amount",
          "type": "uint256"
        }
      ],
      "name": "withdrawUtilityUSDC",
      "outputs": [],
      "stateMutability": "nonpayable",
      "type": "function"
    },
    {
      "inputs": [
        {
          "internalType": "uint256",
          "name": "",
          "type": "uint256"
        }
      ],
      "name": "withdrawnUsers",
      "outputs": [
        {
          "internalType": "address",
          "name": "",
          "type": "address"
        }
      ],
      "stateMutability": "view",
      "type": "function"
    },
    {
      "stateMutability": "payable",
      "type": "receive"
    }
  ],
  "bytecode": "0x608060405262ed4e006002556a0422ca8b0a00a42500000060035565048c2739500060045534801561003057600080fd5b50604051616f13380380616f138339818101604052810190610052919061059a565b6001808190555060005b8251811015610217576100926000801b84838151811061007f5761007e6105f6565b5b602002602001015161026060201b60201c565b506100dd7fa49807205ce4d355092ef5a8a18f56e8913cf4a201fbe287825b095693c217758483815181106100ca576100c96105f6565b5b602002602001015161026060201b60201c565b506101287f65d7a28e3265b37a6474929f336521b332c1681b933f6cb9f3376673440d862a848381518110610115576101146105f6565b5b602002602001015161026060201b60201c565b506101737fc806897caf4fd5068191157e44d3988e43139a37e0b97b6793e1ed11841406048483815181106101605761015f6105f6565b5b602002602001015161026060201b60201c565b506101be7ff60566c40710959d8d30b6067ce3c53c757bec78eecb0e46b83c7f8194ffae378483815181106101ab576101aa6105f6565b5b602002602001015161026060201b60201c565b506102097f78c90eb9e475048b483a290aee04b5fe48355537c3623c7637b17d3bed71c6ed8483815181106101f6576101f56105f6565b5b602002602001015161026060201b60201c565b50808060010191505061005c565b5080600760006101000a81548173ffffffffffffffffffffffffffffffffffffffff021916908373ffffffffffffffffffffffffffffffffffffffff1602179055505050610625565b6000610272838361035d60201b60201c565b61035257600160008085815260200190815260200160002060000160008473ffffffffffffffffffffffffffffffffffffffff1673ffffffffffffffffffffffffffffffffffffffff16815260200190815260200160002060006101000a81548160ff0219169083151502179055506102ef6103c760201b60201c565b73ffffffffffffffffffffffffffffffffffffffff168273ffffffffffffffffffffffffffffffffffffffff16847f2f8788117e7eff1d82e926ec794901d17c78024a50270940304540a733656f0d60405160405180910390a460019050610357565b600090505b92915050565b600080600084815260200190815260200160002060000160008373ffffffffffffffffffffffffffffffffffffffff1673ffffffffffffffffffffffffffffffffffffffff16815260200190815260200160002060009054906101000a900460ff16905092915050565b600033905090565b6000604051905090565b600080fd5b600080fd5b600080fd5b6000601f19601f8301169050919050565b7f4e487b7100000000000000000000000000000000000000000000000000000000600052604160045260246000fd5b610431826103e8565b810181811067ffffffffffffffff821117156104505761044f6103f9565b5b80604052505050565b60006104636103cf565b905061046f8282610428565b919050565b600067ffffffffffffffff82111561048f5761048e6103f9565b5b602082029050602081019050919050565b600080fd5b600073ffffffffffffffffffffffffffffffffffffffff82169050919050565b60006104d0826104a5565b9050919050565b6104e0816104c5565b81146104eb57600080fd5b50565b6000815190506104fd816104d7565b92915050565b600061051661051184610474565b610459565b90508083825260208201905060208402830185811115610539576105386104a0565b5b835b81811015610562578061054e88826104ee565b84526020840193505060208101905061053b565b5050509392505050565b600082601f830112610581576105806103e3565b5b8151610591848260208601610503565b91505092915050565b600080604083850312156105b1576105b06103d9565b5b600083015167ffffffffffffffff8111156105cf576105ce6103de565b5b6105db8582860161056c565b92505060206105ec858286016104ee565b9150509250929050565b7f4e487b7100000000000000000000000000000000000000000000000000000000600052603260045260246000fd5b6168df806106346000396000f3fe6080604052600436106103fe5760003560e01c8063885f502911610213578063b758aeaa11610123578063e340b783116100ab578063ee947a7c1161007a578063ee947a7c14610f45578063f29b223914610f70578063f5f69af214610f9b578063f6326fb314610fc4578063f688bcfb14610fce57610405565b8063e340b78314610e9b578063e399067f14610ec6578063e63ab1e914610edd578063e9fe0c7814610f0857610405565b8063d830d5cc116100f2578063d830d5cc14610dc8578063da8d5add14610df1578063e02f6aca14610e08578063e043b2b214610e45578063e15e23c114610e7057610405565b8063b758aeaa14610d36578063bda821e814610d5f578063c771c39014610d76578063d547741f14610d9f57610405565b806397d9e5b4116101a6578063a2bdedf411610175578063a2bdedf414610c44578063a59aa5a614610c81578063b2118a8d14610cb7578063b2b77ae214610ce0578063b65ba94b14610d0b57610405565b806397d9e5b414610b865780639ddc391214610bb15780639e657e3314610bdc578063a217fddf14610c1957610405565b806389bad0a6116101e257806389bad0a614610acc5780638b713b2e14610af557806391d1485414610b2057806393055c4314610b5d57610405565b8063885f502914610a0e578063886d589d14610a39578063899aa99114610a7657806389a3027114610aa157610405565b806341debf1f1161030e57806364021b13116102a157806372e553991161027057806372e553991461093f57806375b238fc14610968578063762e1c731461099357806376c1d3db146109bc578063867d099a146109e557610405565b806364021b13146108cc5780636426be48146108d65780636c6ff56c146108ff5780636ec239951461091657610405565b806353d6fd59116102dd57806353d6fd5914610810578063588583a0146108395780635e2c19db146108645780636068d6cb146108a157610405565b806341debf1f1461074f57806347af19aa146107785780634e43603a146107a157806351fb012d146107e557610405565b806327175b23116103915780632f2ff15d116103605780632f2ff15d146106585780633408567c1461068157806336568abe146106be5780633ac43970146106e75780633af32abf1461071257610405565b806327175b23146105b0578063275991d2146105db5780632a5bf6d2146105f25780632e1a7d4d1461062f57610405565b80630c016ad5116103cd5780630c016ad5146104f25780631c5aeef71461051d578063246d47b714610548578063248a9ca31461057357610405565b806301ffc9a71461040a57806304c68af014610447578063052d9e7e1461048457806308f43333146104ad57610405565b3661040557005b600080fd5b34801561041657600080fd5b50610431600480360381019061042c91906151c8565b610ff7565b60405161043e9190615210565b60405180910390f35b34801561045357600080fd5b5061046e60048036038101906104699190615289565b611071565b60405161047b91906152cf565b60405180910390f35b34801561049057600080fd5b506104ab60048036038101906104a69190615316565b611089565b005b3480156104b957600080fd5b506104d460048036038101906104cf919061536f565b6110d1565b6040516104e999989796959493929190615426565b60405180910390f35b3480156104fe57600080fd5b5061050761117d565b60405161051491906154cc565b60405180910390f35b34801561052957600080fd5b506105326111a1565b60405161053f91906152cf565b60405180910390f35b34801561055457600080fd5b5061055d6111a7565b60405161056a9190615210565b60405180910390f35b34801561057f57600080fd5b5061059a60048036038101906105959190615513565b6111ba565b6040516105a791906154cc565b60405180910390f35b3480156105bc57600080fd5b506105c56111d9565b6040516105d291906152cf565b60405180910390f35b3480156105e757600080fd5b506105f06111df565b005b3480156105fe57600080fd5b5061061960048036038101906106149190615289565b61138e565b60405161062691906156d4565b60405180910390f35b34801561063b57600080fd5b50610656600480360381019061065191906156f6565b6114fc565b005b34801561066457600080fd5b5061067f600480360381019061067a9190615723565b611a73565b005b34801561068d57600080fd5b506106a860048036038101906106a39190615289565b611a95565b6040516106b591906152cf565b60405180910390f35b3480156106ca57600080fd5b506106e560048036038101906106e09190615723565b611aad565b005b3480156106f357600080fd5b506106fc611b28565b60405161070991906152cf565b60405180910390f35b34801561071e57600080fd5b5061073960048036038101906107349190615289565b611b2e565b6040516107469190615210565b60405180910390f35b34801561075b57600080fd5b506107766004803603810190610771919061581e565b611b4e565b005b34801561078457600080fd5b5061079f600480360381019061079a91906158f5565b611d60565b005b3480156107ad57600080fd5b506107c860048036038101906107c39190615289565b611f36565b6040516107dc989796959493929190615976565b60405180910390f35b3480156107f157600080fd5b506107fa6122fe565b6040516108079190615210565b60405180910390f35b34801561081c57600080fd5b50610837600480360381019061083291906159f4565b612311565b005b34801561084557600080fd5b5061084e6123e5565b60405161085b91906152cf565b60405180910390f35b34801561087057600080fd5b5061088b60048036038101906108869190615289565b6123eb565b6040516108989190615210565b60405180910390f35b3480156108ad57600080fd5b506108b661240b565b6040516108c39190615210565b60405180910390f35b6108d461241e565b005b3480156108e257600080fd5b506108fd60048036038101906108f89190615a34565b6124fa565b005b34801561090b57600080fd5b50610914612596565b005b34801561092257600080fd5b5061093d6004803603810190610938919061536f565b61275b565b005b34801561094b57600080fd5b5061096660048036038101906109619190615a74565b612881565b005b34801561097457600080fd5b5061097d612f65565b60405161098a91906154cc565b60405180910390f35b34801561099f57600080fd5b506109ba60048036038101906109b5919061536f565b612f89565b005b3480156109c857600080fd5b506109e360048036038101906109de91906156f6565b6130af565b005b3480156109f157600080fd5b50610a0c6004803603810190610a079190615ac1565b6132a8565b005b348015610a1a57600080fd5b50610a2361344b565b604051610a3091906154cc565b60405180910390f35b348015610a4557600080fd5b50610a606004803603810190610a5b9190615289565b61346f565b604051610a6d91906152cf565b60405180910390f35b348015610a8257600080fd5b50610a8b613487565b604051610a9891906152cf565b60405180910390f35b348015610aad57600080fd5b50610ab661348d565b604051610ac39190615b30565b60405180910390f35b348015610ad857600080fd5b50610af36004803603810190610aee9190615289565b6134a5565b005b348015610b0157600080fd5b50610b0a6135ba565b604051610b1791906152cf565b60405180910390f35b348015610b2c57600080fd5b50610b476004803603810190610b429190615723565b6135c0565b604051610b549190615210565b60405180910390f35b348015610b6957600080fd5b50610b846004803603810190610b7f91906156f6565b61362a565b005b348015610b9257600080fd5b50610b9b613880565b604051610ba891906152cf565b60405180910390f35b348015610bbd57600080fd5b50610bc6613886565b604051610bd391906152cf565b60405180910390f35b348015610be857600080fd5b50610c036004803603810190610bfe91906156f6565b61388c565b604051610c109190615b30565b60405180910390f35b348015610c2557600080fd5b50610c2e6138cb565b604051610c3b91906154cc565b60405180910390f35b348015610c5057600080fd5b50610c6b6004803603810190610c6691906156f6565b6138d2565b604051610c789190615b30565b60405180910390f35b348015610c8d57600080fd5b50610c96613911565b604051610cae9c9b9a99989796959493929190615b4b565b60405180910390f35b348015610cc357600080fd5b50610cde6004803603810190610cd99190615c05565b6139fc565b005b348015610cec57600080fd5b50610cf5613b7f565b604051610d029190615210565b60405180910390f35b348015610d1757600080fd5b50610d20613b92565b604051610d2d91906152cf565b60405180910390f35b348015610d4257600080fd5b50610d5d6004803603810190610d58919061581e565b613b98565b005b348015610d6b57600080fd5b50610d74613daa565b005b348015610d8257600080fd5b50610d9d6004803603810190610d9891906156f6565b613f59565b005b348015610dab57600080fd5b50610dc66004803603810190610dc19190615723565b613fc5565b005b348015610dd457600080fd5b50610def6004803603810190610dea91906156f6565b613fe7565b005b348015610dfd57600080fd5b50610e06614159565b005b348015610e1457600080fd5b50610e2f6004803603810190610e2a91906156f6565b614360565b604051610e3c9190615b30565b60405180910390f35b348015610e5157600080fd5b50610e5a61439f565b604051610e6791906154cc565b60405180910390f35b348015610e7c57600080fd5b50610e856143c3565b604051610e9291906152cf565b60405180910390f35b348015610ea757600080fd5b50610eb06143c9565b604051610ebd91906152cf565b60405180910390f35b348015610ed257600080fd5b50610edb6143cf565b005b348015610ee957600080fd5b50610ef26145ae565b604051610eff91906154cc565b60405180910390f35b348015610f1457600080fd5b50610f2f6004803603810190610f2a9190615289565b6145d2565b604051610f3c91906152cf565b60405180910390f35b348015610f5157600080fd5b50610f5a6145ea565b604051610f6791906152cf565b60405180910390f35b348015610f7c57600080fd5b50610f856145f0565b604051610f929190615b30565b60405180910390f35b348015610fa757600080fd5b50610fc26004803603810190610fbd9190615c7d565b614616565b005b610fcc6146ea565b005b348015610fda57600080fd5b50610ff56004803603810190610ff091906156f6565b6148aa565b005b60007f7965db0b000000000000000000000000000000000000000000000000000000007bffffffffffffffffffffffffffffffffffffffffffffffffffffffff1916827bffffffffffffffffffffffffffffffffffffffffffffffffffffffff1916148061106a575061106982614b00565b5b9050919050565b600e6020528060005260406000206000915090505481565b7fa49807205ce4d355092ef5a8a18f56e8913cf4a201fbe287825b095693c217756110b381614b6a565b81600560026101000a81548160ff0219169083151502179055505050565b600860205281600052604060002081815481106110ed57600080fd5b9060005260206000209060060201600091509150508060000160009054906101000a900460ff16908060010154908060020154908060030160009054906101000a900460ff16908060030160019054906101000a900460ff16908060030160029054906101000a900460ff16908060030160039054906101000a900460ff16908060040154908060050154905089565b7ff60566c40710959d8d30b6067ce3c53c757bec78eecb0e46b83c7f8194ffae3781565b60045481565b600560039054906101000a900460ff1681565b6000806000838152602001908152602001600020600101549050919050565b60135481565b6111e7614b7e565b6000600b60003373ffffffffffffffffffffffffffffffffffffffff1673ffffffffffffffffffffffffffffffffffffffff1681526020019081526020016000205490506000811161126e576040517f08c379a000000000000000000000000000000000000000000000000000000000815260040161126590615d1a565b60405180910390fd5b6000600b60003373ffffffffffffffffffffffffffffffffffffffff1673ffffffffffffffffffffffffffffffffffffffff168152602001908152602001600020819055506112c1336000836001614bc4565b80601860008282546112d39190615d69565b9250508190555080600d60003373ffffffffffffffffffffffffffffffffffffffff1673ffffffffffffffffffffffffffffffffffffffff16815260200190815260200160002060008282546113299190615d69565b925050819055503373ffffffffffffffffffffffffffffffffffffffff167f997d2ec09b086de73d509bbc4ad2b52fd7e2338024464bede93a41abd6ccdc386000834260405161137b93929190615d9d565b60405180910390a25061138c614f21565b565b6060600860008373ffffffffffffffffffffffffffffffffffffffff1673ffffffffffffffffffffffffffffffffffffffff168152602001908152602001600020805480602002602001604051908101604052809291908181526020016000905b828210156114f15783829060005260206000209060060201604051806101200160405290816000820160009054906101000a900460ff166001811115611438576114376153af565b5b600181111561144a576114496153af565b5b815260200160018201548152602001600282015481526020016003820160009054906101000a900460ff161515151581526020016003820160019054906101000a900460ff161515151581526020016003820160029054906101000a900460ff161515151581526020016003820160039054906101000a900460ff1615151515815260200160048201548152602001600582015481525050815260200190600101906113ef565b505050509050919050565b611504614b7e565b600560019054906101000a900460ff1615611554576040517f08c379a000000000000000000000000000000000000000000000000000000000815260040161154b90615e20565b60405180910390fd5b6000600860003373ffffffffffffffffffffffffffffffffffffffff1673ffffffffffffffffffffffffffffffffffffffff16815260200190815260200160002082815481106115a7576115a6615e40565b5b906000526020600020906006020190508060030160009054906101000a900460ff1615611609576040517f08c379a000000000000000000000000000000000000000000000000000000000815260040161160090615ebb565b60405180910390fd5b600254816002015461161b9190615d69565b4210158061163757508060030160019054906101000a900460ff165b806116685750600560039054906101000a900460ff16801561166757508060030160029054906101000a900460ff165b5b6116a7576040517f08c379a000000000000000000000000000000000000000000000000000000000815260040161169e90615f27565b60405180910390fd5b60018160030160006101000a81548160ff021916908315150217905550428160040181905550600081600501549050600060018111156116ea576116e96153af565b5b8260000160009054906101000a900460ff16600181111561170e5761170d6153af565b5b036117f1578160010154601460008282546117299190615d69565b9250508190555060003373ffffffffffffffffffffffffffffffffffffffff168284600101546117599190615d69565b60405161176590615f78565b60006040518083038185875af1925050503d80600081146117a2576040519150601f19603f3d011682016040523d82523d6000602084013e6117a7565b606091505b50509050806117eb576040517f08c379a00000000000000000000000000000000000000000000000000000000081526004016117e290615fd9565b60405180910390fd5b506118ee565b600180811115611804576118036153af565b5b8260000160009054906101000a900460ff166001811115611828576118276153af565b5b036118ed578160010154601560008282546118439190615d69565b9250508190555073833589fcd6edb6e08f4c7c32d4f71b54bda0291373ffffffffffffffffffffffffffffffffffffffff1663a9059cbb3383856001015461188b9190615d69565b6040518363ffffffff1660e01b81526004016118a8929190615ff9565b6020604051808303816000875af11580156118c7573d6000803e3d6000fd5b505050506040513d601f19601f820116820180604052508101906118eb9190616037565b505b5b600a60003373ffffffffffffffffffffffffffffffffffffffff1673ffffffffffffffffffffffffffffffffffffffff16815260200190815260200160002060009054906101000a900460ff166119fb576010339080600181540180825580915050600190039060005260206000200160009091909190916101000a81548173ffffffffffffffffffffffffffffffffffffffff021916908373ffffffffffffffffffffffffffffffffffffffff1602179055506001600a60003373ffffffffffffffffffffffffffffffffffffffff1673ffffffffffffffffffffffffffffffffffffffff16815260200190815260200160002060006101000a81548160ff0219169083151502179055505b3373ffffffffffffffffffffffffffffffffffffffff167fcb034b37ef3764745c35bafecd525367bcf312e9010239e6aeebbe6bcf57727f8360000160009054906101000a900460ff168460010154844288604051611a5e959493929190616064565b60405180910390a25050611a70614f21565b50565b611a7c826111ba565b611a8581614b6a565b611a8f8383614f2a565b50505050565b600b6020528060005260406000206000915090505481565b611ab561501b565b73ffffffffffffffffffffffffffffffffffffffff168173ffffffffffffffffffffffffffffffffffffffff1614611b19576040517f6697b23200000000000000000000000000000000000000000000000000000000815260040160405180910390fd5b611b238282615023565b505050565b60175481565b60096020528060005260406000206000915054906101000a900460ff1681565b7fa49807205ce4d355092ef5a8a18f56e8913cf4a201fbe287825b095693c21775611b7881614b6a565b828290508585905014611bc0576040517f08c379a0000000000000000000000000000000000000000000000000000000008152600401611bb790616103565b60405180910390fd5b600080600090505b86869050811015611cf9576000858583818110611be857611be7615e40565b5b9050602002013511611c2f576040517f08c379a0000000000000000000000000000000000000000000000000000000008152600401611c269061616f565b60405180910390fd5b848482818110611c4257611c41615e40565b5b90506020020135600c6000898985818110611c6057611c5f615e40565b5b9050602002016020810190611c759190615289565b73ffffffffffffffffffffffffffffffffffffffff1673ffffffffffffffffffffffffffffffffffffffff1681526020019081526020016000206000828254611cbe9190615d69565b92505081905550848482818110611cd857611cd7615e40565b5b9050602002013582611cea9190615d69565b91508080600101915050611bc8565b50601754811115611d3f576040517f08c379a0000000000000000000000000000000000000000000000000000000008152600401611d36906161db565b60405180910390fd5b8060176000828254611d5191906161fb565b92505081905550505050505050565b7fa49807205ce4d355092ef5a8a18f56e8913cf4a201fbe287825b095693c21775611d8a81614b6a565b828290508585905014611dd2576040517f08c379a0000000000000000000000000000000000000000000000000000000008152600401611dc990616103565b60405180910390fd5b60005b85859050811015611f2e57838382818110611df357611df2615e40565b5b9050602002016020810190611e089190615316565b60096000888885818110611e1f57611e1e615e40565b5b9050602002016020810190611e349190615289565b73ffffffffffffffffffffffffffffffffffffffff1673ffffffffffffffffffffffffffffffffffffffff16815260200190815260200160002060006101000a81548160ff021916908315150217905550858582818110611e9857611e97615e40565b5b9050602002016020810190611ead9190615289565b73ffffffffffffffffffffffffffffffffffffffff167f995d2434d36c9bceaab42c56efe51e8ffe41fd11cabefd9e2cb83700d8b2035e858584818110611ef757611ef6615e40565b5b9050602002016020810190611f0c9190615316565b604051611f199190615210565b60405180910390a28080600101915050611dd5565b505050505050565b6000806000806000806000806000600860008b73ffffffffffffffffffffffffffffffffffffffff1673ffffffffffffffffffffffffffffffffffffffff168152602001908152602001600020905060005b818054905081101561226d5760006001811115611fa857611fa76153af565b5b828281548110611fbb57611fba615e40565b5b906000526020600020906006020160000160009054906101000a900460ff166001811115611fec57611feb6153af565b5b036120fc5781818154811061200457612003615e40565b5b9060005260206000209060060201600101548a6120219190615d69565b995081818154811061203657612035615e40565b5b906000526020600020906006020160030160009054906101000a900460ff161561208d5781818154811061206d5761206c615e40565b5b9060005260206000209060060201600101548861208a9190615d69565b97505b8181815481106120a05761209f615e40565b5b906000526020600020906006020160030160039054906101000a900460ff16156120f7578181815481106120d7576120d6615e40565b5b906000526020600020906006020160010154846120f49190615d69565b93505b612260565b60018081111561210f5761210e6153af565b5b82828154811061212257612121615e40565b5b906000526020600020906006020160000160009054906101000a900460ff166001811115612153576121526153af565b5b0361225f5781818154811061216b5761216a615e40565b5b906000526020600020906006020160010154896121889190615d69565b985081818154811061219d5761219c615e40565b5b906000526020600020906006020160030160009054906101000a900460ff16156121f4578181815481106121d4576121d3615e40565b5b906000526020600020906006020160010154876121f19190615d69565b96505b81818154811061220757612206615e40565b5b906000526020600020906006020160030160039054906101000a900460ff161561225e5781818154811061223e5761223d615e40565b5b9060005260206000209060060201600101548361225b9190615d69565b92505b5b5b8080600101915050611f88565b50600b60008b73ffffffffffffffffffffffffffffffffffffffff1673ffffffffffffffffffffffffffffffffffffffff168152602001908152602001600020549450600c60008b73ffffffffffffffffffffffffffffffffffffffff1673ffffffffffffffffffffffffffffffffffffffff16815260200190815260200160002054935050919395975091939597565b600560029054906101000a900460ff1681565b7fa49807205ce4d355092ef5a8a18f56e8913cf4a201fbe287825b095693c2177561233b81614b6a565b81600960008573ffffffffffffffffffffffffffffffffffffffff1673ffffffffffffffffffffffffffffffffffffffff16815260200190815260200160002060006101000a81548160ff0219169083151502179055508273ffffffffffffffffffffffffffffffffffffffff167f995d2434d36c9bceaab42c56efe51e8ffe41fd11cabefd9e2cb83700d8b2035e836040516123d89190615210565b60405180910390a2505050565b60065481565b600a6020528060005260406000206000915054906101000a900460ff1681565b600560009054906101000a900460ff1681565b7ff60566c40710959d8d30b6067ce3c53c757bec78eecb0e46b83c7f8194ffae3761244881614b6a565b6000341161248b576040517f08c379a00000000000000000000000000000000000000000000000000000000081526004016124829061627b565b60405180910390fd5b346016600082825461249d9190615d69565b925050819055503373ffffffffffffffffffffffffffffffffffffffff167f8bafec96fcffb6f12596b4635c76397b7bc1f363b22c49c13136b63677323dcc600034426040516124ef93929190615d9d565b60405180910390a250565b7f65d7a28e3265b37a6474929f336521b332c1681b933f6cb9f3376673440d862a61252481614b6a565b82600560006101000a81548160ff02191690831515021790555081600560016101000a81548160ff0219169083151502179055507fac1664632d6278432aa05a6afc0aa83e5ea08e8df9a1436736daa5d6283211c0838360405161258992919061629b565b60405180910390a1505050565b61259e614b7e565b6000600c60003373ffffffffffffffffffffffffffffffffffffffff1673ffffffffffffffffffffffffffffffffffffffff16815260200190815260200160002054905060008111612625576040517f08c379a000000000000000000000000000000000000000000000000000000000815260040161261c90615d1a565b60405180910390fd5b6000600c60003373ffffffffffffffffffffffffffffffffffffffff1673ffffffffffffffffffffffffffffffffffffffff1681526020019081526020016000208190555073833589fcd6edb6e08f4c7c32d4f71b54bda0291373ffffffffffffffffffffffffffffffffffffffff1663a9059cbb33836040518363ffffffff1660e01b81526004016126b9929190615ff9565b6020604051808303816000875af11580156126d8573d6000803e3d6000fd5b505050506040513d601f19601f820116820180604052508101906126fc9190616037565b503373ffffffffffffffffffffffffffffffffffffffff167f6914793c7a82461acec66c7de7fdbbbf1f825c26bc2fe939b61f0e4f8964c2b56001834260405161274893929190615d9d565b60405180910390a250612759614f21565b565b7fa49807205ce4d355092ef5a8a18f56e8913cf4a201fbe287825b095693c2177561278581614b6a565b600082116127c8576040517f08c379a00000000000000000000000000000000000000000000000000000000081526004016127bf9061616f565b60405180910390fd5b60165482111561280d576040517f08c379a0000000000000000000000000000000000000000000000000000000008152600401612804906161db565b60405180910390fd5b81600b60008573ffffffffffffffffffffffffffffffffffffffff1673ffffffffffffffffffffffffffffffffffffffff168152602001908152602001600020600082825461285c9190615d69565b92505081905550816016600082825461287591906161fb565b92505081905550505050565b612889614b7e565b600560019054906101000a900460ff16156128d9576040517f08c379a00000000000000000000000000000000000000000000000000000000081526004016128d090615e20565b60405180910390fd5b60008060008060005b86869050811015612d22576000600860003373ffffffffffffffffffffffffffffffffffffffff1673ffffffffffffffffffffffffffffffffffffffff16815260200190815260200160002088888481811061294157612940615e40565b5b905060200201358154811061295957612958615e40565b5b906000526020600020906006020190508060030160009054906101000a900460ff16156129bb576040517f08c379a00000000000000000000000000000000000000000000000000000000081526004016129b290615ebb565b60405180910390fd5b60025481600201546129cd9190615d69565b421015806129e957508060030160019054906101000a900460ff165b80612a1a5750600560039054906101000a900460ff168015612a1957508060030160029054906101000a900460ff165b5b612a59576040517f08c379a0000000000000000000000000000000000000000000000000000000008152600401612a5090615f27565b60405180910390fd5b60018160030160006101000a81548160ff02191690831515021790555042816004018190555060008160050154905060006001811115612a9c57612a9b6153af565b5b8260000160009054906101000a900460ff166001811115612ac057612abf6153af565b5b03612b0757816001015460146000828254612adb9190615d69565b92505081905550816001015487612af29190615d69565b96508086612b009190615d69565b9550612b82565b600180811115612b1a57612b196153af565b5b8260000160009054906101000a900460ff166001811115612b3e57612b3d6153af565b5b03612b8157816001015460156000828254612b599190615d69565b92505081905550816001015485612b709190615d69565b94508084612b7e9190615d69565b93505b5b600a60003373ffffffffffffffffffffffffffffffffffffffff1673ffffffffffffffffffffffffffffffffffffffff16815260200190815260200160002060009054906101000a900460ff16612c8f576010339080600181540180825580915050600190039060005260206000200160009091909190916101000a81548173ffffffffffffffffffffffffffffffffffffffff021916908373ffffffffffffffffffffffffffffffffffffffff1602179055506001600a60003373ffffffffffffffffffffffffffffffffffffffff1673ffffffffffffffffffffffffffffffffffffffff16815260200190815260200160002060006101000a81548160ff0219169083151502179055505b3373ffffffffffffffffffffffffffffffffffffffff167fcb034b37ef3764745c35bafecd525367bcf312e9010239e6aeebbe6bcf57727f8360000160009054906101000a900460ff16846001015484428e8e8a818110612cf357612cf2615e40565b5b90506020020135604051612d0b959493929190616064565b60405180910390a2505080806001019150506128e2565b5060008385612d319190615d69565b1115612e495760003373ffffffffffffffffffffffffffffffffffffffff168486612d5c9190615d69565b604051612d6890615f78565b60006040518083038185875af1925050503d8060008114612da5576040519150601f19603f3d011682016040523d82523d6000602084013e612daa565b606091505b5050905080612dee576040517f08c379a0000000000000000000000000000000000000000000000000000000008152600401612de590615fd9565b60405180910390fd5b3373ffffffffffffffffffffffffffffffffffffffff167fbf06e98fe211a4b82f625232ab1c7a75caea5e0d624bc267578d6f22fce788c360008989898942604051612e3f9695949392919061633f565b60405180910390a2505b60008183612e579190615d69565b1115612f555773833589fcd6edb6e08f4c7c32d4f71b54bda0291373ffffffffffffffffffffffffffffffffffffffff1663a9059cbb338385612e9a9190615d69565b6040518363ffffffff1660e01b8152600401612eb7929190615ff9565b6020604051808303816000875af1158015612ed6573d6000803e3d6000fd5b505050506040513d601f19601f82011682018060405250810190612efa9190616037565b503373ffffffffffffffffffffffffffffffffffffffff167fbf06e98fe211a4b82f625232ab1c7a75caea5e0d624bc267578d6f22fce788c360018888868642604051612f4c9695949392919061633f565b60405180910390a25b50505050612f61614f21565b5050565b7fa49807205ce4d355092ef5a8a18f56e8913cf4a201fbe287825b095693c2177581565b7fa49807205ce4d355092ef5a8a18f56e8913cf4a201fbe287825b095693c21775612fb381614b6a565b60008211612ff6576040517f08c379a0000000000000000000000000000000000000000000000000000000008152600401612fed9061616f565b60405180910390fd5b60175482111561303b576040517f08c379a0000000000000000000000000000000000000000000000000000000008152600401613032906161db565b60405180910390fd5b81600c60008573ffffffffffffffffffffffffffffffffffffffff1673ffffffffffffffffffffffffffffffffffffffff168152602001908152602001600020600082825461308a9190615d69565b9250508190555081601760008282546130a391906161fb565b92505081905550505050565b7f78c90eb9e475048b483a290aee04b5fe48355537c3623c7637b17d3bed71c6ed6130d981614b6a565b6130e1614b7e565b600073ffffffffffffffffffffffffffffffffffffffff16600760009054906101000a900473ffffffffffffffffffffffffffffffffffffffff1673ffffffffffffffffffffffffffffffffffffffff1603613172576040517f08c379a0000000000000000000000000000000000000000000000000000000008152600401613169906163e7565b60405180910390fd5b73833589fcd6edb6e08f4c7c32d4f71b54bda0291373ffffffffffffffffffffffffffffffffffffffff1663a9059cbb600760009054906101000a900473ffffffffffffffffffffffffffffffffffffffff16846040518363ffffffff1660e01b81526004016131e3929190615ff9565b6020604051808303816000875af1158015613202573d6000803e3d6000fd5b505050506040513d601f19601f820116820180604052508101906132269190616037565b50600760009054906101000a900473ffffffffffffffffffffffffffffffffffffffff1673ffffffffffffffffffffffffffffffffffffffff167f9adbdc797aca3ce26a722598f00149b2328fd124444e6d0b10c4bdc7cfc381966001844260405161329493929190615d9d565b60405180910390a26132a4614f21565b5050565b7fc806897caf4fd5068191157e44d3988e43139a37e0b97b6793e1ed11841406046132d281614b6a565b60005b838390508110156133f4576000600860008773ffffffffffffffffffffffffffffffffffffffff1673ffffffffffffffffffffffffffffffffffffffff16815260200190815260200160002085858481811061333457613333615e40565b5b905060200201358154811061334c5761334b615e40565b5b906000526020600020906006020190508060030160009054906101000a900460ff1615801561338a57508060030160019054906101000a900460ff16155b6133c9576040517f08c379a00000000000000000000000000000000000000000000000000000000081526004016133c090616453565b60405180910390fd5b60018160030160016101000a81548160ff0219169083151502179055505080806001019150506132d5565b508373ffffffffffffffffffffffffffffffffffffffff167f8b655a966f162e1d3686ea25cd61682331984ab5662b451deff96f12d716f45b848460405161343d929190616473565b60405180910390a250505050565b7f78c90eb9e475048b483a290aee04b5fe48355537c3623c7637b17d3bed71c6ed81565b600d6020528060005260406000206000915090505481565b60125481565b73833589fcd6edb6e08f4c7c32d4f71b54bda0291381565b7fa49807205ce4d355092ef5a8a18f56e8913cf4a201fbe287825b095693c217756134cf81614b6a565b600073ffffffffffffffffffffffffffffffffffffffff168273ffffffffffffffffffffffffffffffffffffffff160361353e576040517f08c379a0000000000000000000000000000000000000000000000000000000008152600401613535906164e3565b60405180910390fd5b81600760006101000a81548173ffffffffffffffffffffffffffffffffffffffff021916908373ffffffffffffffffffffffffffffffffffffffff1602179055507f1d6240e71a77c9e9d07d1d6ecbb9ea4274fcc8bc19adc5b05a3548ac7e40e189826040516135ae9190615b30565b60405180910390a15050565b60145481565b600080600084815260200190815260200160002060000160008373ffffffffffffffffffffffffffffffffffffffff1673ffffffffffffffffffffffffffffffffffffffff16815260200190815260200160002060009054906101000a900460ff16905092915050565b7f78c90eb9e475048b483a290aee04b5fe48355537c3623c7637b17d3bed71c6ed61365481614b6a565b61365c614b7e565b600073ffffffffffffffffffffffffffffffffffffffff16600760009054906101000a900473ffffffffffffffffffffffffffffffffffffffff1673ffffffffffffffffffffffffffffffffffffffff16036136ed576040517f08c379a00000000000000000000000000000000000000000000000000000000081526004016136e4906163e7565b60405180910390fd5b47821115613730576040517f08c379a00000000000000000000000000000000000000000000000000000000081526004016137279061654f565b60405180910390fd5b6000600760009054906101000a900473ffffffffffffffffffffffffffffffffffffffff1673ffffffffffffffffffffffffffffffffffffffff168360405161377890615f78565b60006040518083038185875af1925050503d80600081146137b5576040519150601f19603f3d011682016040523d82523d6000602084013e6137ba565b606091505b50509050806137fe576040517f08c379a00000000000000000000000000000000000000000000000000000000081526004016137f590615fd9565b60405180910390fd5b600760009054906101000a900473ffffffffffffffffffffffffffffffffffffffff1673ffffffffffffffffffffffffffffffffffffffff167f9adbdc797aca3ce26a722598f00149b2328fd124444e6d0b10c4bdc7cfc381966000854260405161386b93929190615d9d565b60405180910390a25061387c614f21565b5050565b60185481565b60035481565b6010818154811061389c57600080fd5b906000526020600020016000915054906101000a900473ffffffffffffffffffffffffffffffffffffffff1681565b6000801b81565b600f81815481106138e257600080fd5b906000526020600020016000915054906101000a900473ffffffffffffffffffffffffffffffffffffffff1681565b600080600080600080600080600080600080479b5073833589fcd6edb6e08f4c7c32d4f71b54bda0291373ffffffffffffffffffffffffffffffffffffffff166370a08231306040518263ffffffff1660e01b81526004016139739190615b30565b602060405180830381865afa158015613990573d6000803e3d6000fd5b505050506040513d601f19601f820116820180604052508101906139b49190616584565b9a5060125499506013549850601454975060155496506016549550601754945060185493506019549250600f8054905091506010805490509050909192939495969798999a9b565b7fa49807205ce4d355092ef5a8a18f56e8913cf4a201fbe287825b095693c21775613a2681614b6a565b600073ffffffffffffffffffffffffffffffffffffffff168373ffffffffffffffffffffffffffffffffffffffff1603613a95576040517f08c379a0000000000000000000000000000000000000000000000000000000008152600401613a8c906164e3565b60405180910390fd5b8373ffffffffffffffffffffffffffffffffffffffff1663a9059cbb84846040518363ffffffff1660e01b8152600401613ad0929190615ff9565b6020604051808303816000875af1158015613aef573d6000803e3d6000fd5b505050506040513d601f19601f82011682018060405250810190613b139190616037565b508273ffffffffffffffffffffffffffffffffffffffff168473ffffffffffffffffffffffffffffffffffffffff167f8bbfbb5d7fcacf6fc74005cdede0635561638507f576c95f7f294c22141be2e584604051613b7191906152cf565b60405180910390a350505050565b600560019054906101000a900460ff1681565b60165481565b7fa49807205ce4d355092ef5a8a18f56e8913cf4a201fbe287825b095693c21775613bc281614b6a565b828290508585905014613c0a576040517f08c379a0000000000000000000000000000000000000000000000000000000008152600401613c0190616103565b60405180910390fd5b600080600090505b86869050811015613d43576000858583818110613c3257613c31615e40565b5b9050602002013511613c79576040517f08c379a0000000000000000000000000000000000000000000000000000000008152600401613c709061616f565b60405180910390fd5b848482818110613c8c57613c8b615e40565b5b90506020020135600b6000898985818110613caa57613ca9615e40565b5b9050602002016020810190613cbf9190615289565b73ffffffffffffffffffffffffffffffffffffffff1673ffffffffffffffffffffffffffffffffffffffff1681526020019081526020016000206000828254613d089190615d69565b92505081905550848482818110613d2257613d21615e40565b5b9050602002013582613d349190615d69565b91508080600101915050613c12565b50601654811115613d89576040517f08c379a0000000000000000000000000000000000000000000000000000000008152600401613d80906161db565b60405180910390fd5b8060166000828254613d9b91906161fb565b92505081905550505050505050565b613db2614b7e565b6000600c60003373ffffffffffffffffffffffffffffffffffffffff1673ffffffffffffffffffffffffffffffffffffffff16815260200190815260200160002054905060008111613e39576040517f08c379a0000000000000000000000000000000000000000000000000000000008152600401613e3090615d1a565b60405180910390fd5b6000600c60003373ffffffffffffffffffffffffffffffffffffffff1673ffffffffffffffffffffffffffffffffffffffff16815260200190815260200160002081905550613e8c336001836001614bc4565b8060196000828254613e9e9190615d69565b9250508190555080600e60003373ffffffffffffffffffffffffffffffffffffffff1673ffffffffffffffffffffffffffffffffffffffff1681526020019081526020016000206000828254613ef49190615d69565b925050819055503373ffffffffffffffffffffffffffffffffffffffff167f997d2ec09b086de73d509bbc4ad2b52fd7e2338024464bede93a41abd6ccdc3860018342604051613f4693929190615d9d565b60405180910390a250613f57614f21565b565b7fa49807205ce4d355092ef5a8a18f56e8913cf4a201fbe287825b095693c21775613f8381614b6a565b816002819055507fc5e00a325524bc148ddc05bb642b804e9ae1dfc670c217ed3c4c6595f7427ef482604051613fb991906152cf565b60405180910390a15050565b613fce826111ba565b613fd781614b6a565b613fe18383615023565b50505050565b7ff60566c40710959d8d30b6067ce3c53c757bec78eecb0e46b83c7f8194ffae3761401181614b6a565b60008211614054576040517f08c379a000000000000000000000000000000000000000000000000000000000815260040161404b906165fd565b60405180910390fd5b73833589fcd6edb6e08f4c7c32d4f71b54bda0291373ffffffffffffffffffffffffffffffffffffffff166323b872dd3330856040518463ffffffff1660e01b81526004016140a59392919061661d565b6020604051808303816000875af11580156140c4573d6000803e3d6000fd5b505050506040513d601f19601f820116820180604052508101906140e89190616037565b5081601760008282546140fb9190615d69565b925050819055503373ffffffffffffffffffffffffffffffffffffffff167f8bafec96fcffb6f12596b4635c76397b7bc1f363b22c49c13136b63677323dcc6001844260405161414d93929190615d9d565b60405180910390a25050565b7fa49807205ce4d355092ef5a8a18f56e8913cf4a201fbe287825b095693c2177561418381614b6a565b600560039054906101000a900460ff16156141d3576040517f08c379a00000000000000000000000000000000000000000000000000000000081526004016141ca906166a0565b60405180910390fd5b6001600560036101000a81548160ff0219169083151502179055504260068190555060005b600f8054905081101561432557600060086000600f848154811061421f5761421e615e40565b5b9060005260206000200160009054906101000a900473ffffffffffffffffffffffffffffffffffffffff1673ffffffffffffffffffffffffffffffffffffffff1673ffffffffffffffffffffffffffffffffffffffff168152602001908152602001600020905060005b8180549050811015614316578181815481106142a8576142a7615e40565b5b906000526020600020906006020160030160009054906101000a900460ff166143095760018282815481106142e0576142df615e40565b5b906000526020600020906006020160030160026101000a81548160ff0219169083151502179055505b8080600101915050614289565b505080806001019150506141f8565b507f2388ceaed48d21bd0802856df41a22705f9046a67a817a047352aa3bbfe5c5d14260405161435591906152cf565b60405180910390a150565b6011818154811061437057600080fd5b906000526020600020016000915054906101000a900473ffffffffffffffffffffffffffffffffffffffff1681565b7fc806897caf4fd5068191157e44d3988e43139a37e0b97b6793e1ed118414060481565b60195481565b60155481565b6143d7614b7e565b6000600b60003373ffffffffffffffffffffffffffffffffffffffff1673ffffffffffffffffffffffffffffffffffffffff1681526020019081526020016000205490506000811161445e576040517f08c379a000000000000000000000000000000000000000000000000000000000815260040161445590615d1a565b60405180910390fd5b6000600b60003373ffffffffffffffffffffffffffffffffffffffff1673ffffffffffffffffffffffffffffffffffffffff1681526020019081526020016000208190555060003373ffffffffffffffffffffffffffffffffffffffff16826040516144c990615f78565b60006040518083038185875af1925050503d8060008114614506576040519150601f19603f3d011682016040523d82523d6000602084013e61450b565b606091505b505090508061454f576040517f08c379a000000000000000000000000000000000000000000000000000000000815260040161454690615fd9565b60405180910390fd5b3373ffffffffffffffffffffffffffffffffffffffff167f6914793c7a82461acec66c7de7fdbbbf1f825c26bc2fe939b61f0e4f8964c2b56000844260405161459a93929190615d9d565b60405180910390a250506145ac614f21565b565b7f65d7a28e3265b37a6474929f336521b332c1681b933f6cb9f3376673440d862a81565b600c6020528060005260406000206000915090505481565b60025481565b600760009054906101000a900473ffffffffffffffffffffffffffffffffffffffff1681565b7fa49807205ce4d355092ef5a8a18f56e8913cf4a201fbe287825b095693c2177561464081614b6a565b60006001811115614654576146536153af565b5b836001811115614667576146666153af565b5b0361467857816003819055506146ac565b60018081111561468b5761468a6153af565b5b83600181111561469e5761469d6153af565b5b036146ab57816004819055505b5b7f5d7976bccd4b396c1a1a0020032e62bf8a381bcffc61e69a13ea61761b75721883836040516146dd9291906166c0565b60405180910390a1505050565b6146f2614b7e565b600560009054906101000a900460ff1615614742576040517f08c379a000000000000000000000000000000000000000000000000000000000815260040161473990616735565b60405180910390fd5b60003411614785576040517f08c379a000000000000000000000000000000000000000000000000000000000815260040161477c9061627b565b60405180910390fd5b600354346012546147969190615d69565b11156147d7576040517f08c379a00000000000000000000000000000000000000000000000000000000081526004016147ce906167a1565b60405180910390fd5b600560029054906101000a900460ff161561487957600960003373ffffffffffffffffffffffffffffffffffffffff1673ffffffffffffffffffffffffffffffffffffffff16815260200190815260200160002060009054906101000a900460ff16614878576040517f08c379a000000000000000000000000000000000000000000000000000000000815260040161486f9061680d565b60405180910390fd5b5b614887336000346000614bc4565b34601260008282546148999190615d69565b925050819055506148a8614f21565b565b6148b2614b7e565b600560009054906101000a900460ff1615614902576040517f08c379a00000000000000000000000000000000000000000000000000000000081526004016148f990616735565b60405180910390fd5b60008111614945576040517f08c379a000000000000000000000000000000000000000000000000000000000815260040161493c906165fd565b60405180910390fd5b600454816013546149569190615d69565b1115614997576040517f08c379a000000000000000000000000000000000000000000000000000000000815260040161498e906167a1565b60405180910390fd5b600560029054906101000a900460ff1615614a3957600960003373ffffffffffffffffffffffffffffffffffffffff1673ffffffffffffffffffffffffffffffffffffffff16815260200190815260200160002060009054906101000a900460ff16614a38576040517f08c379a0000000000000000000000000000000000000000000000000000000008152600401614a2f9061680d565b60405180910390fd5b5b73833589fcd6edb6e08f4c7c32d4f71b54bda0291373ffffffffffffffffffffffffffffffffffffffff166323b872dd3330846040518463ffffffff1660e01b8152600401614a8a9392919061661d565b6020604051808303816000875af1158015614aa9573d6000803e3d6000fd5b505050506040513d601f19601f82011682018060405250810190614acd9190616037565b50614adc336001836000614bc4565b8060136000828254614aee9190615d69565b92505081905550614afd614f21565b50565b60007f01ffc9a7000000000000000000000000000000000000000000000000000000007bffffffffffffffffffffffffffffffffffffffffffffffffffffffff1916827bffffffffffffffffffffffffffffffffffffffffffffffffffffffff1916149050919050565b614b7b81614b7661501b565b615115565b50565b600260015403614bba576040517f3ee5aeb500000000000000000000000000000000000000000000000000000000815260040160405180910390fd5b6002600181905550565b600860008573ffffffffffffffffffffffffffffffffffffffff1673ffffffffffffffffffffffffffffffffffffffff168152602001908152602001600020604051806101200160405280856001811115614c2257614c216153af565b5b81526020018481526020014281526020016000151581526020016000151581526020016000151581526020018315158152602001600081526020016000815250908060018154018082558091505060019003906000526020600020906006020160009091909190915060008201518160000160006101000a81548160ff02191690836001811115614cb657614cb56153af565b5b0217905550602082015181600101556040820151816002015560608201518160030160006101000a81548160ff02191690831515021790555060808201518160030160016101000a81548160ff02191690831515021790555060a08201518160030160026101000a81548160ff02191690831515021790555060c08201518160030160036101000a81548160ff02191690831515021790555060e08201518160040155610100820151816005015550506001600860008673ffffffffffffffffffffffffffffffffffffffff1673ffffffffffffffffffffffffffffffffffffffff1681526020019081526020016000208054905003614e7757600f849080600181540180825580915050600190039060005260206000200160009091909190916101000a81548173ffffffffffffffffffffffffffffffffffffffff021916908373ffffffffffffffffffffffffffffffffffffffff1602179055506011849080600181540180825580915050600190039060005260206000200160009091909190916101000a81548173ffffffffffffffffffffffffffffffffffffffff021916908373ffffffffffffffffffffffffffffffffffffffff1602179055505b8373ffffffffffffffffffffffffffffffffffffffff167f48916ac7f9777648255ab8645729ff3b5d20aa412a40fe81dac2433522eaa0588484426001600860008b73ffffffffffffffffffffffffffffffffffffffff1673ffffffffffffffffffffffffffffffffffffffff16815260200190815260200160002080549050614f0191906161fb565b86604051614f1395949392919061682d565b60405180910390a250505050565b60018081905550565b6000614f3683836135c0565b61501057600160008085815260200190815260200160002060000160008473ffffffffffffffffffffffffffffffffffffffff1673ffffffffffffffffffffffffffffffffffffffff16815260200190815260200160002060006101000a81548160ff021916908315150217905550614fad61501b565b73ffffffffffffffffffffffffffffffffffffffff168273ffffffffffffffffffffffffffffffffffffffff16847f2f8788117e7eff1d82e926ec794901d17c78024a50270940304540a733656f0d60405160405180910390a460019050615015565b600090505b92915050565b600033905090565b600061502f83836135c0565b1561510a57600080600085815260200190815260200160002060000160008473ffffffffffffffffffffffffffffffffffffffff1673ffffffffffffffffffffffffffffffffffffffff16815260200190815260200160002060006101000a81548160ff0219169083151502179055506150a761501b565b73ffffffffffffffffffffffffffffffffffffffff168273ffffffffffffffffffffffffffffffffffffffff16847ff6391f5c32d9c69d2a47ea670b442974b53935d1edc7fd64eb21e047a839171b60405160405180910390a46001905061510f565b600090505b92915050565b61511f82826135c0565b6151625780826040517fe2517d3f000000000000000000000000000000000000000000000000000000008152600401615159929190616880565b60405180910390fd5b5050565b600080fd5b600080fd5b60007fffffffff0000000000000000000000000000000000000000000000000000000082169050919050565b6151a581615170565b81146151b057600080fd5b50565b6000813590506151c28161519c565b92915050565b6000602082840312156151de576151dd615166565b5b60006151ec848285016151b3565b91505092915050565b60008115159050919050565b61520a816151f5565b82525050565b60006020820190506152256000830184615201565b92915050565b600073ffffffffffffffffffffffffffffffffffffffff82169050919050565b60006152568261522b565b9050919050565b6152668161524b565b811461527157600080fd5b50565b6000813590506152838161525d565b92915050565b60006020828403121561529f5761529e615166565b5b60006152ad84828501615274565b91505092915050565b6000819050919050565b6152c9816152b6565b82525050565b60006020820190506152e460008301846152c0565b92915050565b6152f3816151f5565b81146152fe57600080fd5b50565b600081359050615310816152ea565b92915050565b60006020828403121561532c5761532b615166565b5b600061533a84828501615301565b91505092915050565b61534c816152b6565b811461535757600080fd5b50565b60008135905061536981615343565b92915050565b6000806040838503121561538657615385615166565b5b600061539485828601615274565b92505060206153a58582860161535a565b9150509250929050565b7f4e487b7100000000000000000000000000000000000000000000000000000000600052602160045260246000fd5b600281106153ef576153ee6153af565b5b50565b6000819050615400826153de565b919050565b6000615410826153f2565b9050919050565b61542081615405565b82525050565b60006101208201905061543c600083018c615417565b615449602083018b6152c0565b615456604083018a6152c0565b6154636060830189615201565b6154706080830188615201565b61547d60a0830187615201565b61548a60c0830186615201565b61549760e08301856152c0565b6154a56101008301846152c0565b9a9950505050505050505050565b6000819050919050565b6154c6816154b3565b82525050565b60006020820190506154e160008301846154bd565b92915050565b6154f0816154b3565b81146154fb57600080fd5b50565b60008135905061550d816154e7565b92915050565b60006020828403121561552957615528615166565b5b6000615537848285016154fe565b91505092915050565b600081519050919050565b600082825260208201905092915050565b6000819050602082019050919050565b61557581615405565b82525050565b615584816152b6565b82525050565b615593816151f5565b82525050565b610120820160008201516155b0600085018261556c565b5060208201516155c3602085018261557b565b5060408201516155d6604085018261557b565b5060608201516155e9606085018261558a565b5060808201516155fc608085018261558a565b5060a082015161560f60a085018261558a565b5060c082015161562260c085018261558a565b5060e082015161563560e085018261557b565b5061010082015161564a61010085018261557b565b50505050565b600061565c8383615599565b6101208301905092915050565b6000602082019050919050565b600061568182615540565b61568b818561554b565b93506156968361555c565b8060005b838110156156c75781516156ae8882615650565b97506156b983615669565b92505060018101905061569a565b5085935050505092915050565b600060208201905081810360008301526156ee8184615676565b905092915050565b60006020828403121561570c5761570b615166565b5b600061571a8482850161535a565b91505092915050565b6000806040838503121561573a57615739615166565b5b6000615748858286016154fe565b925050602061575985828601615274565b9150509250929050565b600080fd5b600080fd5b600080fd5b60008083601f84011261578857615787615763565b5b8235905067ffffffffffffffff8111156157a5576157a4615768565b5b6020830191508360208202830111156157c1576157c061576d565b5b9250929050565b60008083601f8401126157de576157dd615763565b5b8235905067ffffffffffffffff8111156157fb576157fa615768565b5b6020830191508360208202830111156158175761581661576d565b5b9250929050565b6000806000806040858703121561583857615837615166565b5b600085013567ffffffffffffffff8111156158565761585561516b565b5b61586287828801615772565b9450945050602085013567ffffffffffffffff8111156158855761588461516b565b5b615891878288016157c8565b925092505092959194509250565b60008083601f8401126158b5576158b4615763565b5b8235905067ffffffffffffffff8111156158d2576158d1615768565b5b6020830191508360208202830111156158ee576158ed61576d565b5b9250929050565b6000806000806040858703121561590f5761590e615166565b5b600085013567ffffffffffffffff81111561592d5761592c61516b565b5b61593987828801615772565b9450945050602085013567ffffffffffffffff81111561595c5761595b61516b565b5b6159688782880161589f565b925092505092959194509250565b60006101008201905061598c600083018b6152c0565b615999602083018a6152c0565b6159a660408301896152c0565b6159b360608301886152c0565b6159c060808301876152c0565b6159cd60a08301866152c0565b6159da60c08301856152c0565b6159e760e08301846152c0565b9998505050505050505050565b60008060408385031215615a0b57615a0a615166565b5b6000615a1985828601615274565b9250506020615a2a85828601615301565b9150509250929050565b60008060408385031215615a4b57615a4a615166565b5b6000615a5985828601615301565b9250506020615a6a85828601615301565b9150509250929050565b60008060208385031215615a8b57615a8a615166565b5b600083013567ffffffffffffffff811115615aa957615aa861516b565b5b615ab5858286016157c8565b92509250509250929050565b600080600060408486031215615ada57615ad9615166565b5b6000615ae886828701615274565b935050602084013567ffffffffffffffff811115615b0957615b0861516b565b5b615b15868287016157c8565b92509250509250925092565b615b2a8161524b565b82525050565b6000602082019050615b456000830184615b21565b92915050565b600061018082019050615b61600083018f6152c0565b615b6e602083018e6152c0565b615b7b604083018d6152c0565b615b88606083018c6152c0565b615b95608083018b6152c0565b615ba260a083018a6152c0565b615baf60c08301896152c0565b615bbc60e08301886152c0565b615bca6101008301876152c0565b615bd86101208301866152c0565b615be66101408301856152c0565b615bf46101608301846152c0565b9d9c50505050505050505050505050565b600080600060608486031215615c1e57615c1d615166565b5b6000615c2c86828701615274565b9350506020615c3d86828701615274565b9250506040615c4e8682870161535a565b9150509250925092565b60028110615c6557600080fd5b50565b600081359050615c7781615c58565b92915050565b60008060408385031215615c9457615c93615166565b5b6000615ca285828601615c68565b9250506020615cb38582860161535a565b9150509250929050565b600082825260208201905092915050565b7f4e6f207574696c69747900000000000000000000000000000000000000000000600082015250565b6000615d04600a83615cbd565b9150615d0f82615cce565b602082019050919050565b60006020820190508181036000830152615d3381615cf7565b9050919050565b7f4e487b7100000000000000000000000000000000000000000000000000000000600052601160045260246000fd5b6000615d74826152b6565b9150615d7f836152b6565b9250828201905080821115615d9757615d96615d3a565b5b92915050565b6000606082019050615db26000830186615417565b615dbf60208301856152c0565b615dcc60408301846152c0565b949350505050565b7f5769746864726177616c73207061757365640000000000000000000000000000600082015250565b6000615e0a601283615cbd565b9150615e1582615dd4565b602082019050919050565b60006020820190508181036000830152615e3981615dfd565b9050919050565b7f4e487b7100000000000000000000000000000000000000000000000000000000600052603260045260246000fd5b7f416c72656164792077697468647261776e000000000000000000000000000000600082015250565b6000615ea5601183615cbd565b9150615eb082615e6f565b602082019050919050565b60006020820190508181036000830152615ed481615e98565b9050919050565b7f4465706f736974206c6f636b6564000000000000000000000000000000000000600082015250565b6000615f11600e83615cbd565b9150615f1c82615edb565b602082019050919050565b60006020820190508181036000830152615f4081615f04565b9050919050565b600081905092915050565b50565b6000615f62600083615f47565b9150615f6d82615f52565b600082019050919050565b6000615f8382615f55565b9150819050919050565b7f455448207472616e73666572206661696c656400000000000000000000000000600082015250565b6000615fc3601383615cbd565b9150615fce82615f8d565b602082019050919050565b60006020820190508181036000830152615ff281615fb6565b9050919050565b600060408201905061600e6000830185615b21565b61601b60208301846152c0565b9392505050565b600081519050616031816152ea565b92915050565b60006020828403121561604d5761604c615166565b5b600061605b84828501616022565b91505092915050565b600060a0820190506160796000830188615417565b61608660208301876152c0565b61609360408301866152c0565b6160a060608301856152c0565b6160ad60808301846152c0565b9695505050505050565b7f4d69736d61746368000000000000000000000000000000000000000000000000600082015250565b60006160ed600883615cbd565b91506160f8826160b7565b602082019050919050565b6000602082019050818103600083015261611c816160e0565b9050919050565b7f5a65726f00000000000000000000000000000000000000000000000000000000600082015250565b6000616159600483615cbd565b915061616482616123565b602082019050919050565b600060208201905081810360008301526161888161614c565b9050919050565b7f4578636565647320706f6f6c0000000000000000000000000000000000000000600082015250565b60006161c5600c83615cbd565b91506161d08261618f565b602082019050919050565b600060208201905081810360008301526161f4816161b8565b9050919050565b6000616206826152b6565b9150616211836152b6565b925082820390508181111561622957616228615d3a565b5b92915050565b7f4e6f204554482073656e74000000000000000000000000000000000000000000600082015250565b6000616265600b83615cbd565b91506162708261622f565b602082019050919050565b6000602082019050818103600083015261629481616258565b9050919050565b60006040820190506162b06000830185615201565b6162bd6020830184615201565b9392505050565b600082825260208201905092915050565b600080fd5b82818337505050565b60006162ef83856162c4565b93507f07ffffffffffffffffffffffffffffffffffffffffffffffffffffffffffffff831115616322576163216162d5565b5b6020830292506163338385846162da565b82840190509392505050565b600060a0820190506163546000830189615417565b81810360208301526163678187896162e3565b905061637660408301866152c0565b61638360608301856152c0565b61639060808301846152c0565b979650505050505050565b7f5574696c6974792061646472657373206e6f7420736574000000000000000000600082015250565b60006163d1601783615cbd565b91506163dc8261639b565b602082019050919050565b60006020820190508181036000830152616400816163c4565b9050919050565b7f416c726561647920756e6c6f636b65642f77697468647261776e000000000000600082015250565b600061643d601a83615cbd565b915061644882616407565b602082019050919050565b6000602082019050818103600083015261646c81616430565b9050919050565b6000602082019050818103600083015261648e8184866162e3565b90509392505050565b7f5a65726f20616464726573730000000000000000000000000000000000000000600082015250565b60006164cd600c83615cbd565b91506164d882616497565b602082019050919050565b600060208201905081810360008301526164fc816164c0565b9050919050565b7f496e73756666696369656e742062616c616e6365000000000000000000000000600082015250565b6000616539601483615cbd565b915061654482616503565b602082019050919050565b600060208201905081810360008301526165688161652c565b9050919050565b60008151905061657e81615343565b92915050565b60006020828403121561659a57616599615166565b5b60006165a88482850161656f565b91505092915050565b7f4e6f20555344432073656e740000000000000000000000000000000000000000600082015250565b60006165e7600c83615cbd565b91506165f2826165b1565b602082019050919050565b60006020820190508181036000830152616616816165da565b9050919050565b60006060820190506166326000830186615b21565b61663f6020830185615b21565b61664c60408301846152c0565b949350505050565b7f416c726561647920656e61626c65640000000000000000000000000000000000600082015250565b600061668a600f83615cbd565b915061669582616654565b602082019050919050565b600060208201905081810360008301526166b98161667d565b9050919050565b60006040820190506166d56000830185615417565b6166e260208301846152c0565b9392505050565b7f4465706f73697473207061757365640000000000000000000000000000000000600082015250565b600061671f600f83615cbd565b915061672a826166e9565b602082019050919050565b6000602082019050818103600083015261674e81616712565b9050919050565b7f4361702072656163686564000000000000000000000000000000000000000000600082015250565b600061678b600b83615cbd565b915061679682616755565b602082019050919050565b600060208201905081810360008301526167ba8161677e565b9050919050565b7f4e6f742077686974656c69737465640000000000000000000000000000000000600082015250565b60006167f7600f83615cbd565b9150616802826167c1565b602082019050919050565b60006020820190508181036000830152616826816167ea565b9050919050565b600060a0820190506168426000830188615417565b61684f60208301876152c0565b61685c60408301866152c0565b61686960608301856152c0565b6168766080830184615201565b9695505050505050565b60006040820190506168956000830185615b21565b6168a260208301846154bd565b939250505056fea264697066735822122049e6f00f8c5f6204916bc5470cca14f028828e5be8cb7c96f1dbcea0bb37d76364736f6c63430008190033",
  "linkReferences": {},
  "deployedLinkReferences": {}
}