{
  "_format": "hh-sol-artifact-1",
  "contractName": "W2ELoom",
  "sourceName": "contracts/core/W2ELoom.sol",
  "abi": [
    {
      "inputs": [
        {
          "internalType": "address",
          "name": "_licenseNFT",
          "type": "address"
        },
        {
          "internalType": "address",
          "name": "_utilityToken",
          "type": "address"
        },
        {
          "internalType": "address",
          "name": "_pandoraRootTreasury",
          "type": "address"
        },
        {
          "internalType": "address",
          "name": "_protocolTreasuryAddress",
          "type": "address"
        },
        {
          "internalType": "address",
          "name": "_pandoraOracle",
          "type": "address"
        },
        {
          "internalType": "address",
          "name": "_platformFeeWallet",
          "type": "address"
        },
        {
          "internalType": "address",
          "name": "_creatorWallet",
          "type": "address"
        },
        {
          "internalType": "uint256",
          "name": "_creatorPayoutPct",
          "type": "uint256"
        },
        {
          "internalType": "uint256",
          "name": "_minQuorumPercentage",
          "type": "uint256"
        },
        {
          "internalType": "uint256",
          "name": "_votingPeriodSeconds",
          "type": "uint256"
        },
        {
          "internalType": "uint256",
          "name": "_emergencyPeriodSeconds",
          "type": "uint256"
        },
        {
          "internalType": "uint256",
          "name": "_emergencyQuorumPct",
          "type": "uint256"
        },
        {
          "internalType": "uint256",
          "name": "_stakingRewardRate",
          "type": "uint256"
        },
        {
          "internalType": "uint256",
          "name": "_phiFundSplitPct",
          "type": "uint256"
        },
        {
          "internalType": "address",
          "name": "initialOwner",
          "type": "address"
        }
      ],
      "stateMutability": "nonpayable",
      "type": "constructor"
    },
    {
      "anonymous": false,
      "inputs": [
        {
          "indexed": true,
          "internalType": "address",
          "name": "creator",
          "type": "address"
        },
        {
          "indexed": false,
          "internalType": "uint256",
          "name": "amount",
          "type": "uint256"
        },
        {
          "indexed": false,
          "internalType": "uint256",
          "name": "totalPaidOut",
          "type": "uint256"
        }
      ],
      "name": "CreatorPayoutReleased",
      "type": "event"
    },
    {
      "anonymous": false,
      "inputs": [
        {
          "indexed": true,
          "internalType": "address",
          "name": "recipient",
          "type": "address"
        },
        {
          "indexed": false,
          "internalType": "uint256",
          "name": "amount",
          "type": "uint256"
        },
        {
          "indexed": false,
          "internalType": "uint256",
          "name": "emergencyQuorum",
          "type": "uint256"
        }
      ],
      "name": "EmergencyFundsReleased",
      "type": "event"
    },
    {
      "anonymous": false,
      "inputs": [
        {
          "indexed": true,
          "internalType": "address",
          "name": "triggeredBy",
          "type": "address"
        },
        {
          "indexed": false,
          "internalType": "bytes",
          "name": "data",
          "type": "bytes"
        }
      ],
      "name": "EmergencyTriggered",
      "type": "event"
    },
    {
      "anonymous": false,
      "inputs": [
        {
          "indexed": false,
          "internalType": "uint256",
          "name": "minQuorum",
          "type": "uint256"
        },
        {
          "indexed": false,
          "internalType": "uint256",
          "name": "votingPeriod",
          "type": "uint256"
        },
        {
          "indexed": false,
          "internalType": "uint256",
          "name": "emergencyPeriod",
          "type": "uint256"
        }
      ],
      "name": "GovernanceRulesUpdated",
      "type": "event"
    },
    {
      "anonymous": false,
      "inputs": [
        {
          "indexed": true,
          "internalType": "address",
          "name": "previousOwner",
          "type": "address"
        },
        {
          "indexed": true,
          "internalType": "address",
          "name": "newOwner",
          "type": "address"
        }
      ],
      "name": "OwnershipTransferred",
      "type": "event"
    },
    {
      "anonymous": false,
      "inputs": [
        {
          "indexed": false,
          "internalType": "address",
          "name": "account",
          "type": "address"
        }
      ],
      "name": "Paused",
      "type": "event"
    },
    {
      "anonymous": false,
      "inputs": [
        {
          "indexed": true,
          "internalType": "address",
          "name": "deactivatedBy",
          "type": "address"
        },
        {
          "indexed": false,
          "internalType": "uint256",
          "name": "totalSwept",
          "type": "uint256"
        }
      ],
      "name": "ProtocolDeactivated",
      "type": "event"
    },
    {
      "anonymous": false,
      "inputs": [
        {
          "indexed": true,
          "internalType": "string",
          "name": "parameter",
          "type": "string"
        },
        {
          "indexed": false,
          "internalType": "uint256",
          "name": "oldValue",
          "type": "uint256"
        },
        {
          "indexed": false,
          "internalType": "uint256",
          "name": "newValue",
          "type": "uint256"
        }
      ],
      "name": "ProtocolParameterChanged",
      "type": "event"
    },
    {
      "anonymous": false,
      "inputs": [
        {
          "indexed": true,
          "internalType": "address",
          "name": "depositor",
          "type": "address"
        },
        {
          "indexed": false,
          "internalType": "uint256",
          "name": "amount",
          "type": "uint256"
        },
        {
          "indexed": false,
          "internalType": "uint256",
          "name": "rewardPoolAllocated",
          "type": "uint256"
        }
      ],
      "name": "RevenueDeposited",
      "type": "event"
    },
    {
      "anonymous": false,
      "inputs": [
        {
          "indexed": true,
          "internalType": "uint256",
          "name": "taskId",
          "type": "uint256"
        },
        {
          "indexed": false,
          "internalType": "uint256",
          "name": "totalCorrectVotes",
          "type": "uint256"
        },
        {
          "indexed": false,
          "internalType": "uint256",
          "name": "rewardPerVote",
          "type": "uint256"
        }
      ],
      "name": "RewardDistributed",
      "type": "event"
    },
    {
      "anonymous": false,
      "inputs": [
        {
          "indexed": true,
          "internalType": "address",
          "name": "caller",
          "type": "address"
        },
        {
          "indexed": false,
          "internalType": "uint256",
          "name": "amount",
          "type": "uint256"
        },
        {
          "indexed": false,
          "internalType": "uint256",
          "name": "newRewardPool",
          "type": "uint256"
        }
      ],
      "name": "RewardPoolRefilled",
      "type": "event"
    },
    {
      "anonymous": false,
      "inputs": [
        {
          "indexed": true,
          "internalType": "address",
          "name": "worker",
          "type": "address"
        },
        {
          "indexed": false,
          "internalType": "uint256",
          "name": "commissionAmount",
          "type": "uint256"
        },
        {
          "indexed": false,
          "internalType": "uint256",
          "name": "platformFee",
          "type": "uint256"
        }
      ],
      "name": "SalesCommissionPaid",
      "type": "event"
    },
    {
      "anonymous": false,
      "inputs": [
        {
          "indexed": true,
          "internalType": "uint256",
          "name": "taskId",
          "type": "uint256"
        },
        {
          "indexed": false,
          "internalType": "enum W2ELoom.TaskType",
          "name": "taskType",
          "type": "uint8"
        },
        {
          "indexed": true,
          "internalType": "address",
          "name": "creator",
          "type": "address"
        },
        {
          "indexed": false,
          "internalType": "uint256",
          "name": "rewardAmount",
          "type": "uint256"
        },
        {
          "indexed": false,
          "internalType": "string",
          "name": "description",
          "type": "string"
        }
      ],
      "name": "TaskCreated",
      "type": "event"
    },
    {
      "anonymous": false,
      "inputs": [
        {
          "indexed": true,
          "internalType": "uint256",
          "name": "taskId",
          "type": "uint256"
        },
        {
          "indexed": false,
          "internalType": "enum W2ELoom.TaskStatus",
          "name": "status",
          "type": "uint8"
        },
        {
          "indexed": false,
          "internalType": "uint256",
          "name": "totalVotes",
          "type": "uint256"
        }
      ],
      "name": "TaskFinalized",
      "type": "event"
    },
    {
      "anonymous": false,
      "inputs": [
        {
          "indexed": true,
          "internalType": "address",
          "name": "recipient",
          "type": "address"
        },
        {
          "indexed": false,
          "internalType": "uint256",
          "name": "amount",
          "type": "uint256"
        },
        {
          "indexed": false,
          "internalType": "string",
          "name": "releaseType",
          "type": "string"
        }
      ],
      "name": "TreasuryFundsReleased",
      "type": "event"
    },
    {
      "anonymous": false,
      "inputs": [
        {
          "indexed": true,
          "internalType": "address",
          "name": "user",
          "type": "address"
        },
        {
          "indexed": false,
          "internalType": "uint256",
          "name": "amount",
          "type": "uint256"
        }
      ],
      "name": "UnclaimedSwept",
      "type": "event"
    },
    {
      "anonymous": false,
      "inputs": [
        {
          "indexed": false,
          "internalType": "address",
          "name": "account",
          "type": "address"
        }
      ],
      "name": "Unpaused",
      "type": "event"
    },
    {
      "anonymous": false,
      "inputs": [
        {
          "indexed": true,
          "internalType": "uint256",
          "name": "taskId",
          "type": "uint256"
        },
        {
          "indexed": true,
          "internalType": "address",
          "name": "voter",
          "type": "address"
        },
        {
          "indexed": false,
          "internalType": "bool",
          "name": "vote",
          "type": "bool"
        },
        {
          "indexed": false,
          "internalType": "uint256",
          "name": "stakeAmount",
          "type": "uint256"
        }
      ],
      "name": "VoteCast",
      "type": "event"
    },
    {
      "inputs": [],
      "name": "DEFAULT_FEE_PERCENTAGE",
      "outputs": [
        {
          "internalType": "uint256",
          "name": "",
          "type": "uint256"
        }
      ],
      "stateMutability": "view",
      "type": "function"
    },
    {
      "inputs": [],
      "name": "DEFAULT_STAKING_APY",
      "outputs": [
        {
          "internalType": "uint256",
          "name": "",
          "type": "uint256"
        }
      ],
      "stateMutability": "view",
      "type": "function"
    },
    {
      "inputs": [],
      "name": "MAX_FEE_PERCENTAGE",
      "outputs": [
        {
          "internalType": "uint256",
          "name": "",
          "type": "uint256"
        }
      ],
      "stateMutability": "view",
      "type": "function"
    },
    {
      "inputs": [],
      "name": "MIN_FUNDING_STAKE",
      "outputs": [
        {
          "internalType": "uint256",
          "name": "",
          "type": "uint256"
        }
      ],
      "stateMutability": "view",
      "type": "function"
    },
    {
      "inputs": [],
      "name": "MIN_LOCK_PERIOD",
      "outputs": [
        {
          "internalType": "uint256",
          "name": "",
          "type": "uint256"
        }
      ],
      "stateMutability": "view",
      "type": "function"
    },
    {
      "inputs": [],
      "name": "MIN_STAKING_REWARD_RATE",
      "outputs": [
        {
          "internalType": "uint256",
          "name": "",
          "type": "uint256"
        }
      ],
      "stateMutability": "view",
      "type": "function"
    },
    {
      "inputs": [],
      "name": "activateProtocol",
      "outputs": [],
      "stateMutability": "nonpayable",
      "type": "function"
    },
    {
      "inputs": [],
      "name": "activeTaskCount",
      "outputs": [
        {
          "internalType": "uint256",
          "name": "",
          "type": "uint256"
        }
      ],
      "stateMutability": "view",
      "type": "function"
    },
    {
      "inputs": [],
      "name": "canCreatorClaim",
      "outputs": [
        {
          "internalType": "bool",
          "name": "",
          "type": "bool"
        }
      ],
      "stateMutability": "view",
      "type": "function"
    },
    {
      "inputs": [
        {
          "internalType": "uint256",
          "name": "taskId",
          "type": "uint256"
        }
      ],
      "name": "canFinalizeTask",
      "outputs": [
        {
          "internalType": "bool",
          "name": "",
          "type": "bool"
        }
      ],
      "stateMutability": "view",
      "type": "function"
    },
    {
      "inputs": [],
      "name": "claimUnclaimedUtility",
      "outputs": [],
      "stateMutability": "nonpayable",
      "type": "function"
    },
    {
      "inputs": [
        {
          "internalType": "uint256",
          "name": "amount",
          "type": "uint256"
        },
        {
          "internalType": "address payable",
          "name": "recipient",
          "type": "address"
        },
        {
          "internalType": "string",
          "name": "description",
          "type": "string"
        }
      ],
      "name": "createFundingTask",
      "outputs": [
        {
          "internalType": "uint256",
          "name": "",
          "type": "uint256"
        }
      ],
      "stateMutability": "nonpayable",
      "type": "function"
    },
    {
      "inputs": [
        {
          "internalType": "uint256",
          "name": "rewardAmount",
          "type": "uint256"
        },
        {
          "internalType": "uint256",
          "name": "requiredStake",
          "type": "uint256"
        },
        {
          "internalType": "string",
          "name": "description",
          "type": "string"
        }
      ],
      "name": "createValidationTask",
      "outputs": [
        {
          "internalType": "uint256",
          "name": "",
          "type": "uint256"
        }
      ],
      "stateMutability": "nonpayable",
      "type": "function"
    },
    {
      "inputs": [],
      "name": "creatorPaidOut",
      "outputs": [
        {
          "internalType": "uint256",
          "name": "",
          "type": "uint256"
        }
      ],
      "stateMutability": "view",
      "type": "function"
    },
    {
      "inputs": [],
      "name": "creatorPayoutPct",
      "outputs": [
        {
          "internalType": "uint256",
          "name": "",
          "type": "uint256"
        }
      ],
      "stateMutability": "view",
      "type": "function"
    },
    {
      "inputs": [],
      "name": "creatorWallet",
      "outputs": [
        {
          "internalType": "address",
          "name": "",
          "type": "address"
        }
      ],
      "stateMutability": "view",
      "type": "function"
    },
    {
      "inputs": [
        {
          "internalType": "address[]",
          "name": "users",
          "type": "address[]"
        }
      ],
      "name": "deactivateAndSweep",
      "outputs": [],
      "stateMutability": "nonpayable",
      "type": "function"
    },
    {
      "inputs": [
        {
          "internalType": "uint256",
          "name": "amount",
          "type": "uint256"
        }
      ],
      "name": "depositProtocolRevenue",
      "outputs": [],
      "stateMutability": "payable",
      "type": "function"
    },
    {
      "inputs": [],
      "name": "emergencyInactivitySeconds",
      "outputs": [
        {
          "internalType": "uint256",
          "name": "",
          "type": "uint256"
        }
      ],
      "stateMutability": "view",
      "type": "function"
    },
    {
      "inputs": [],
      "name": "emergencyQuorumPct",
      "outputs": [
        {
          "internalType": "uint256",
          "name": "",
          "type": "uint256"
        }
      ],
      "stateMutability": "view",
      "type": "function"
    },
    {
      "inputs": [
        {
          "internalType": "uint256",
          "name": "taskId",
          "type": "uint256"
        }
      ],
      "name": "finalizeTask",
      "outputs": [],
      "stateMutability": "nonpayable",
      "type": "function"
    },
    {
      "inputs": [],
      "name": "getParticipationMetrics",
      "outputs": [
        {
          "internalType": "uint256",
          "name": "totalTasks",
          "type": "uint256"
        },
        {
          "internalType": "uint256",
          "name": "activeTasks",
          "type": "uint256"
        },
        {
          "internalType": "uint256",
          "name": "totalVotes",
          "type": "uint256"
        }
      ],
      "stateMutability": "view",
      "type": "function"
    },
    {
      "inputs": [],
      "name": "getPhaseMetrics",
      "outputs": [
        {
          "internalType": "uint256",
          "name": "currentPhase",
          "type": "uint256"
        },
        {
          "internalType": "uint256",
          "name": "totalPhases",
          "type": "uint256"
        },
        {
          "internalType": "uint256[]",
          "name": "salesCounts",
          "type": "uint256[]"
        }
      ],
      "stateMutability": "view",
      "type": "function"
    },
    {
      "inputs": [],
      "name": "getProtocolStats",
      "outputs": [
        {
          "internalType": "enum W2ELoom.ProtocolState",
          "name": "currentState",
          "type": "uint8"
        },
        {
          "internalType": "uint256",
          "name": "currentPhase",
          "type": "uint256"
        },
        {
          "internalType": "uint256",
          "name": "totalRaised_",
          "type": "uint256"
        },
        {
          "internalType": "uint256",
          "name": "creatorPaid_",
          "type": "uint256"
        },
        {
          "internalType": "uint256",
          "name": "rewardPool_",
          "type": "uint256"
        },
        {
          "internalType": "uint256",
          "name": "totalTasks_",
          "type": "uint256"
        },
        {
          "internalType": "uint256",
          "name": "activeTasks_",
          "type": "uint256"
        }
      ],
      "stateMutability": "view",
      "type": "function"
    },
    {
      "inputs": [
        {
          "internalType": "uint256",
          "name": "taskId",
          "type": "uint256"
        }
      ],
      "name": "getTask",
      "outputs": [
        {
          "components": [
            {
              "internalType": "uint256",
              "name": "id",
              "type": "uint256"
            },
            {
              "internalType": "enum W2ELoom.TaskType",
              "name": "taskType",
              "type": "uint8"
            },
            {
              "internalType": "uint256",
              "name": "rewardAmount",
              "type": "uint256"
            },
            {
              "internalType": "uint256",
              "name": "requiredStake",
              "type": "uint256"
            },
            {
              "internalType": "uint256",
              "name": "startTime",
              "type": "uint256"
            },
            {
              "internalType": "uint256",
              "name": "approvalVotes",
              "type": "uint256"
            },
            {
              "internalType": "uint256",
              "name": "rejectionVotes",
              "type": "uint256"
            },
            {
              "internalType": "enum W2ELoom.TaskStatus",
              "name": "status",
              "type": "uint8"
            },
            {
              "internalType": "address payable",
              "name": "fundingRecipient",
              "type": "address"
            },
            {
              "internalType": "bytes32",
              "name": "offChainProof",
              "type": "bytes32"
            },
            {
              "internalType": "string",
              "name": "description",
              "type": "string"
            }
          ],
          "internalType": "struct W2ELoom.W2ETask",
          "name": "",
          "type": "tuple"
        }
      ],
      "stateMutability": "view",
      "type": "function"
    },
    {
      "inputs": [
        {
          "internalType": "uint256",
          "name": "taskId",
          "type": "uint256"
        },
        {
          "internalType": "address",
          "name": "voter",
          "type": "address"
        }
      ],
      "name": "getVote",
      "outputs": [
        {
          "components": [
            {
              "internalType": "bool",
              "name": "hasVoted",
              "type": "bool"
            },
            {
              "internalType": "bool",
              "name": "vote",
              "type": "bool"
            },
            {
              "internalType": "uint256",
              "name": "stakeAmount",
              "type": "uint256"
            },
            {
              "internalType": "uint256",
              "name": "voteTime",
              "type": "uint256"
            }
          ],
          "internalType": "struct W2ELoom.VoteInfo",
          "name": "",
          "type": "tuple"
        }
      ],
      "stateMutability": "view",
      "type": "function"
    },
    {
      "inputs": [
        {
          "internalType": "address",
          "name": "workerAddress",
          "type": "address"
        },
        {
          "internalType": "uint256",
          "name": "commissionAmount",
          "type": "uint256"
        }
      ],
      "name": "grantSalesCommission",
      "outputs": [],
      "stateMutability": "nonpayable",
      "type": "function"
    },
    {
      "inputs": [],
      "name": "inactivityThresholdSeconds",
      "outputs": [
        {
          "internalType": "uint256",
          "name": "",
          "type": "uint256"
        }
      ],
      "stateMutability": "view",
      "type": "function"
    },
    {
      "inputs": [
        {
          "internalType": "uint256",
          "name": "licenseId",
          "type": "uint256"
        }
      ],
      "name": "incrementUsageCount",
      "outputs": [],
      "stateMutability": "nonpayable",
      "type": "function"
    },
    {
      "inputs": [
        {
          "internalType": "uint256",
          "name": "taskId",
          "type": "uint256"
        },
        {
          "internalType": "address",
          "name": "workerAddress",
          "type": "address"
        }
      ],
      "name": "invalidateCommission",
      "outputs": [],
      "stateMutability": "nonpayable",
      "type": "function"
    },
    {
      "inputs": [],
      "name": "isActive",
      "outputs": [
        {
          "internalType": "bool",
          "name": "",
          "type": "bool"
        }
      ],
      "stateMutability": "view",
      "type": "function"
    },
    {
      "inputs": [],
      "name": "lastTaskFinalizedTime",
      "outputs": [
        {
          "internalType": "uint256",
          "name": "",
          "type": "uint256"
        }
      ],
      "stateMutability": "view",
      "type": "function"
    },
    {
      "inputs": [],
      "name": "licenseNFT",
      "outputs": [
        {
          "internalType": "contract W2ELicense",
          "name": "",
          "type": "address"
        }
      ],
      "stateMutability": "view",
      "type": "function"
    },
    {
      "inputs": [],
      "name": "minQuorumPercentage",
      "outputs": [
        {
          "internalType": "uint256",
          "name": "",
          "type": "uint256"
        }
      ],
      "stateMutability": "view",
      "type": "function"
    },
    {
      "inputs": [],
      "name": "owner",
      "outputs": [
        {
          "internalType": "address",
          "name": "",
          "type": "address"
        }
      ],
      "stateMutability": "view",
      "type": "function"
    },
    {
      "inputs": [],
      "name": "pandoraOracle",
      "outputs": [
        {
          "internalType": "address",
          "name": "",
          "type": "address"
        }
      ],
      "stateMutability": "view",
      "type": "function"
    },
    {
      "inputs": [],
      "name": "pandoraRootTreasury",
      "outputs": [
        {
          "internalType": "address",
          "name": "",
          "type": "address"
        }
      ],
      "stateMutability": "view",
      "type": "function"
    },
    {
      "inputs": [],
      "name": "pause",
      "outputs": [],
      "stateMutability": "nonpayable",
      "type": "function"
    },
    {
      "inputs": [],
      "name": "paused",
      "outputs": [
        {
          "internalType": "bool",
          "name": "",
          "type": "bool"
        }
      ],
      "stateMutability": "view",
      "type": "function"
    },
    {
      "inputs": [],
      "name": "payoutWindowSeconds",
      "outputs": [
        {
          "internalType": "uint256",
          "name": "",
          "type": "uint256"
        }
      ],
      "stateMutability": "view",
      "type": "function"
    },
    {
      "inputs": [
        {
          "internalType": "uint256",
          "name": "",
          "type": "uint256"
        }
      ],
      "name": "phaseSalesCount",
      "outputs": [
        {
          "internalType": "uint256",
          "name": "",
          "type": "uint256"
        }
      ],
      "stateMutability": "view",
      "type": "function"
    },
    {
      "inputs": [],
      "name": "phiFundSplitPct",
      "outputs": [
        {
          "internalType": "uint256",
          "name": "",
          "type": "uint256"
        }
      ],
      "stateMutability": "view",
      "type": "function"
    },
    {
      "inputs": [],
      "name": "platformFeeWallet",
      "outputs": [
        {
          "internalType": "address",
          "name": "",
          "type": "address"
        }
      ],
      "stateMutability": "view",
      "type": "function"
    },
    {
      "inputs": [],
      "name": "protocolState",
      "outputs": [
        {
          "internalType": "enum W2ELoom.ProtocolState",
          "name": "",
          "type": "uint8"
        }
      ],
      "stateMutability": "view",
      "type": "function"
    },
    {
      "inputs": [],
      "name": "protocolTreasuryAddress",
      "outputs": [
        {
          "internalType": "address",
          "name": "",
          "type": "address"
        }
      ],
      "stateMutability": "view",
      "type": "function"
    },
    {
      "inputs": [
        {
          "internalType": "uint256",
          "name": "amount",
          "type": "uint256"
        }
      ],
      "name": "recordInitialSale",
      "outputs": [],
      "stateMutability": "nonpayable",
      "type": "function"
    },
    {
      "inputs": [
        {
          "internalType": "uint256",
          "name": "phaseId",
          "type": "uint256"
        }
      ],
      "name": "recordPhaseSale",
      "outputs": [],
      "stateMutability": "nonpayable",
      "type": "function"
    },
    {
      "inputs": [
        {
          "internalType": "uint256",
          "name": "taskTypeId",
          "type": "uint256"
        },
        {
          "internalType": "uint256",
          "name": "baseCost",
          "type": "uint256"
        }
      ],
      "name": "registerTaskType",
      "outputs": [],
      "stateMutability": "nonpayable",
      "type": "function"
    },
    {
      "inputs": [
        {
          "internalType": "address payable",
          "name": "recipient",
          "type": "address"
        },
        {
          "internalType": "uint256",
          "name": "amount",
          "type": "uint256"
        }
      ],
      "name": "releaseByInactivity",
      "outputs": [],
      "stateMutability": "nonpayable",
      "type": "function"
    },
    {
      "inputs": [
        {
          "internalType": "address payable",
          "name": "recipient",
          "type": "address"
        },
        {
          "internalType": "uint256",
          "name": "amount",
          "type": "uint256"
        }
      ],
      "name": "releaseByProposal",
      "outputs": [],
      "stateMutability": "nonpayable",
      "type": "function"
    },
    {
      "inputs": [
        {
          "internalType": "address payable",
          "name": "recipient",
          "type": "address"
        },
        {
          "internalType": "uint256",
          "name": "amount",
          "type": "uint256"
        }
      ],
      "name": "releaseByQuorumAndTime",
      "outputs": [],
      "stateMutability": "nonpayable",
      "type": "function"
    },
    {
      "inputs": [
        {
          "internalType": "address payable",
          "name": "recipient",
          "type": "address"
        },
        {
          "internalType": "uint256",
          "name": "amount",
          "type": "uint256"
        }
      ],
      "name": "releaseEmergencyFunds",
      "outputs": [],
      "stateMutability": "nonpayable",
      "type": "function"
    },
    {
      "inputs": [],
      "name": "releaseInitialCapital",
      "outputs": [],
      "stateMutability": "nonpayable",
      "type": "function"
    },
    {
      "inputs": [],
      "name": "releaseInitialCapitalSecure",
      "outputs": [],
      "stateMutability": "nonpayable",
      "type": "function"
    },
    {
      "inputs": [],
      "name": "renounceOwnership",
      "outputs": [],
      "stateMutability": "nonpayable",
      "type": "function"
    },
    {
      "inputs": [],
      "name": "rewardPool",
      "outputs": [
        {
          "internalType": "uint256",
          "name": "",
          "type": "uint256"
        }
      ],
      "stateMutability": "view",
      "type": "function"
    },
    {
      "inputs": [
        {
          "internalType": "uint256",
          "name": "_minQuorum",
          "type": "uint256"
        },
        {
          "internalType": "uint256",
          "name": "_votingPeriod",
          "type": "uint256"
        },
        {
          "internalType": "uint256",
          "name": "_emergencyPeriod",
          "type": "uint256"
        }
      ],
      "name": "setGovernanceRules",
      "outputs": [],
      "stateMutability": "nonpayable",
      "type": "function"
    },
    {
      "inputs": [
        {
          "internalType": "enum W2ELoom.ProtocolState",
          "name": "newState",
          "type": "uint8"
        }
      ],
      "name": "setProtocolState",
      "outputs": [],
      "stateMutability": "nonpayable",
      "type": "function"
    },
    {
      "inputs": [
        {
          "internalType": "uint256",
          "name": "newTarget",
          "type": "uint256"
        }
      ],
      "name": "setTargetAmount",
      "outputs": [],
      "stateMutability": "nonpayable",
      "type": "function"
    },
    {
      "inputs": [],
      "name": "stakingRewardRate",
      "outputs": [
        {
          "internalType": "uint256",
          "name": "",
          "type": "uint256"
        }
      ],
      "stateMutability": "view",
      "type": "function"
    },
    {
      "inputs": [],
      "name": "targetAmount",
      "outputs": [
        {
          "internalType": "uint256",
          "name": "",
          "type": "uint256"
        }
      ],
      "stateMutability": "view",
      "type": "function"
    },
    {
      "inputs": [],
      "name": "targetReachedTime",
      "outputs": [
        {
          "internalType": "uint256",
          "name": "",
          "type": "uint256"
        }
      ],
      "stateMutability": "view",
      "type": "function"
    },
    {
      "inputs": [],
      "name": "taskCount",
      "outputs": [
        {
          "internalType": "uint256",
          "name": "",
          "type": "uint256"
        }
      ],
      "stateMutability": "view",
      "type": "function"
    },
    {
      "inputs": [
        {
          "internalType": "uint256",
          "name": "",
          "type": "uint256"
        }
      ],
      "name": "taskTypeBaseCost",
      "outputs": [
        {
          "internalType": "uint256",
          "name": "",
          "type": "uint256"
        }
      ],
      "stateMutability": "view",
      "type": "function"
    },
    {
      "inputs": [],
      "name": "taskTypeCount",
      "outputs": [
        {
          "internalType": "uint256",
          "name": "",
          "type": "uint256"
        }
      ],
      "stateMutability": "view",
      "type": "function"
    },
    {
      "inputs": [
        {
          "internalType": "uint256",
          "name": "",
          "type": "uint256"
        },
        {
          "internalType": "address",
          "name": "",
          "type": "address"
        }
      ],
      "name": "taskVotes",
      "outputs": [
        {
          "internalType": "bool",
          "name": "hasVoted",
          "type": "bool"
        },
        {
          "internalType": "bool",
          "name": "vote",
          "type": "bool"
        },
        {
          "internalType": "uint256",
          "name": "stakeAmount",
          "type": "uint256"
        },
        {
          "internalType": "uint256",
          "name": "voteTime",
          "type": "uint256"
        }
      ],
      "stateMutability": "view",
      "type": "function"
    },
    {
      "inputs": [
        {
          "internalType": "uint256",
          "name": "",
          "type": "uint256"
        }
      ],
      "name": "tasks",
      "outputs": [
        {
          "internalType": "uint256",
          "name": "id",
          "type": "uint256"
        },
        {
          "internalType": "enum W2ELoom.TaskType",
          "name": "taskType",
          "type": "uint8"
        },
        {
          "internalType": "uint256",
          "name": "rewardAmount",
          "type": "uint256"
        },
        {
          "internalType": "uint256",
          "name": "requiredStake",
          "type": "uint256"
        },
        {
          "internalType": "uint256",
          "name": "startTime",
          "type": "uint256"
        },
        {
          "internalType": "uint256",
          "name": "approvalVotes",
          "type": "uint256"
        },
        {
          "internalType": "uint256",
          "name": "rejectionVotes",
          "type": "uint256"
        },
        {
          "internalType": "enum W2ELoom.TaskStatus",
          "name": "status",
          "type": "uint8"
        },
        {
          "internalType": "address payable",
          "name": "fundingRecipient",
          "type": "address"
        },
        {
          "internalType": "bytes32",
          "name": "offChainProof",
          "type": "bytes32"
        },
        {
          "internalType": "string",
          "name": "description",
          "type": "string"
        }
      ],
      "stateMutability": "view",
      "type": "function"
    },
    {
      "inputs": [],
      "name": "totalRaised",
      "outputs": [
        {
          "internalType": "uint256",
          "name": "",
          "type": "uint256"
        }
      ],
      "stateMutability": "view",
      "type": "function"
    },
    {
      "inputs": [],
      "name": "totalVoteCount",
      "outputs": [
        {
          "internalType": "uint256",
          "name": "",
          "type": "uint256"
        }
      ],
      "stateMutability": "view",
      "type": "function"
    },
    {
      "inputs": [
        {
          "internalType": "address",
          "name": "newOwner",
          "type": "address"
        }
      ],
      "name": "transferOwnership",
      "outputs": [],
      "stateMutability": "nonpayable",
      "type": "function"
    },
    {
      "inputs": [
        {
          "internalType": "bytes",
          "name": "data",
          "type": "bytes"
        }
      ],
      "name": "triggerEmergencyRelease",
      "outputs": [],
      "stateMutability": "nonpayable",
      "type": "function"
    },
    {
      "inputs": [],
      "name": "unpause",
      "outputs": [],
      "stateMutability": "nonpayable",
      "type": "function"
    },
    {
      "inputs": [],
      "name": "utilityToken",
      "outputs": [
        {
          "internalType": "contract IW2EUtilityToken",
          "name": "",
          "type": "address"
        }
      ],
      "stateMutability": "view",
      "type": "function"
    },
    {
      "inputs": [
        {
          "internalType": "uint256",
          "name": "taskId",
          "type": "uint256"
        },
        {
          "internalType": "bool",
          "name": "approve",
          "type": "bool"
        }
      ],
      "name": "voteOnTask",
      "outputs": [],
      "stateMutability": "nonpayable",
      "type": "function"
    },
    {
      "inputs": [],
      "name": "votingPeriodSeconds",
      "outputs": [
        {
          "internalType": "uint256",
          "name": "",
          "type": "uint256"
        }
      ],
      "stateMutability": "view",
      "type": "function"
    },
    {
      "inputs": [
        {
          "internalType": "uint256",
          "name": "amount",
          "type": "uint256"
        }
      ],
      "name": "withdrawRewardFunds",
      "outputs": [],
      "stateMutability": "nonpayable",
      "type": "function"
    }
  ],
  "bytecode": "0x6080346200063d57601f62004b2438819003918201601f191683019291906001600160401b038411838510176200064257816101e092849260409687528339810103126200063d57620000528162000658565b9080602092838201620000659062000658565b906200007383870162000658565b90620000826060850162000658565b90620000916080860162000658565b9088620000a160a0880162000658565b620000af60c0890162000658565b9060e0890151946101008a0151966101208b0151986101408c01519a6101608d01519c6101a001519d6101c001620000e79062000658565b5060008054336001600160a01b0319808316821784559951936001600160a01b039390928416907f8be0079c531659141344cd1fd0a4f28419497f9722a3daafe3b4186f6b6457e09080a36001805560025492635e80a6bf6011556276a70060135561ffff196014541660011760145562278d00601655828b1615620005f957508116928315620005a85781169384156200055757811694851562000511578116958615620004cb57811696871562000485571697881562000440576064808b11620003e7578b151580620003dc575b156200039757620151808d10620003525762093a808e106200030d578e818115159182620002ff575b505015620002ba578f8110620002655750610100600160a81b039060081b169060018060a81b031916176002558560035416176003558460045416176004558360055416176005558260065416176006558160075416176007556008541617600855600955600d55600e55600f55601055601255429055516144b690816200066e8239f35b9150508f8f93506084945061676560f01b9250519262461bcd60e51b84526004840152602260248401527f5732453a20496e76616c69642066756e642073706c69742070657263656e74616044840152820152fd5b925050508d8f519062461bcd60e51b82526004820152601d60248201527f5732453a20496e76616c696420656d657267656e63792071756f72756d0000006044820152fd5b90915011158f8290620001e0565b925050508d8f519062461bcd60e51b82526004820152601f60248201527f5732453a20456d657267656e637920706572696f6420746f6f2073686f7274006044820152fd5b925050508d8f519062461bcd60e51b82526004820152601c60248201527f5732453a20566f74696e6720706572696f6420746f6f2073686f7274000000006044820152fd5b925050508d8f519062461bcd60e51b82526004820152601360248201527f5732453a20496e76616c69642071756f72756d000000000000000000000000006044820152fd5b50808c1115620001b7565b9150508f8f93506084945065656e7461676560d01b9250519262461bcd60e51b84526004840152602660248401527f5732453a20496e76616c69642063726561746f72207061796f757420706572636044840152820152fd5b508f8f606491519062461bcd60e51b82526004820152601b60248201527f5732453a20496e76616c69642063726561746f722077616c6c657400000000006044820152fd5b50508f8f606491519062461bcd60e51b82526004820152601c60248201527f5732453a20496e76616c696420706c6174666f726d2077616c6c6574000000006044820152fd5b50508f8f606491519062461bcd60e51b82526004820152601b60248201527f5732453a20496e76616c6964206f7261636c65206164647265737300000000006044820152fd5b50508f8f606491519062461bcd60e51b82526004820152601e60248201527f5732453a20496e76616c69642070726f746f636f6c20747265617375727900006044820152fd5b50508f8f608491519062461bcd60e51b82526004820152602260248201527f5732453a20496e76616c69642070616e646f726120726f6f7420747265617375604482015261727960f01b6064820152fd5b50508f8f608491519062461bcd60e51b82526004820152602260248201527f5732453a20496e76616c6964207574696c69747920746f6b656e206164647265604482015261737360f01b6064820152fd5b9150508f6064925062461bcd60e51b825280600483015260248201527f5732453a20496e76616c6964206c6963656e7365204e465420616464726573736044820152fd5b600080fd5b634e487b7160e01b600052604160045260246000fd5b51906001600160a01b03821682036200063d5756fe608080604052600436101561001357600080fd5b600090813560e01c908163025f77cb14613a4f5750806309fadd0b14613a325780630b88f3a214613a055780630d45d156146139b35780630e92e674146139965780631489a5001461397857806314ec768f14613761578063175c06d3146135ea5780631bc946de146135cc5780631bd4c81c146135a25780631d65e77e146133dc57806321150d3d14613359578063216743f11461332757806322f3e2d4146133045780632345105f146132915780632bd03820146132735780632c4da1b1146132555780632dd737e11461322c57806336ea0c921461320d578063385dc3df146131ef57806339a3ed28146131d15780633f4ba83a1461313c5780634ac7b987146130115780634c112ab714612ff35780634d55ed9b14612fd05780634d784ac114612c835780634f3fc2df14612c6557806351ebdd1714612b0a57806354e473c61461238d578063558e44d3146123705780635c975abb1461234d578063601aca7b1461206f57806366666aa91461205157806369c032c114611f22578063715018a614611ec8578063734dd80714611e9f578063753d4c3114611e81578063771aceef14611d5c57806378b38d2d14611c865780637a2249c714611a585780637cdc65f214611a2f5780637f94cf4014611a115780638456cb591461197d578063858cf15e1461195e57806388488c33146116ce578063893d8f4c146116b05780638a5cc496146116925780638d977672146115c35780638da5cb5b1461159c578063953b8fb81461157e578063977105c61461153a578063a07c3ef1146111ea578063a15f75ef1461112b578063a252456614610f64578063acbf482814610db7578063ae86ed8914610d8e578063b6cb58a514610d70578063b870c27514610d52578063bc3f931f14610c9a578063c238113b14610bca578063c5c4744c14610bac578063cb85fe3514610b8e578063d180b2e714610b64578063d74c06ba14610978578063d861221014610834578063da68d47d14610807578063de8f846c14610797578063e20fc1181461076e578063e3625787146106de578063e7246042146106c2578063eb79c8b71461052b578063eed2215a1461050d578063ef9b0836146104e8578063f2cbe469146104c4578063f2fde38b146103f95763fc2e95f91461036557600080fd5b346103f65760403660031901126103f657600435602435610384613cba565b80156103b15781835260196020526040832055601a54808211156103aa57505b601a5580f35b90506103a4565b60405162461bcd60e51b815260206004820152601f60248201527f5732453a204261736520636f7374206d75737420626520706f736974697665006044820152606490fd5b80fd5b50346103f65760203660031901126103f657610413613a94565b61041b613cba565b6001600160a01b0390811690811561047057600054826bffffffffffffffffffffffff60a01b821617600055167f8be0079c531659141344cd1fd0a4f28419497f9722a3daafe3b4186f6b6457e0600080a380f35b60405162461bcd60e51b815260206004820152602660248201527f4f776e61626c653a206e6577206f776e657220697320746865207a65726f206160448201526564647265737360d01b6064820152608490fd5b50346103f657806003193601126103f657602060405168056bc75e2d631000008152f35b50346103f657806003193601126103f6576020610503614342565b6040519015158152f35b50346103f657806003193601126103f6576020600954604051908152f35b50346103f65760403660031901126103f657610545613a94565b602435610550613cba565b610558613e60565b6001600160a01b039182169161056f831515613e0e565b61057a821515613dc2565b823b15908115610688575b501561064357610597814710156141ca565b8280808084865af16105a7614054565b50156105fe5760807faa895f492f736a5e2f0e6bb4caae358842a87b3b12f0c9b5d83af49d2afece7c916040519081526040602082015260086040820152671c1c9bdc1bdcd85b60c21b6060820152a26001805580f35b60405162461bcd60e51b815260206004820152601c60248201527f5732453a2054726561737572792072656c65617365206661696c6564000000006044820152606490fd5b60405162461bcd60e51b815260206004820152601c60248201527f5732453a20526563697069656e74206d617920626520756e73616665000000006044820152606490fd5b60055481168414915081156106b4575b81156106a6575b5038610585565b90506007541682143861069f565b600854811684149150610698565b50346103f657806003193601126103f657602060405160648152f35b50346103f657806003193601126103f6576106f7613cba565b60145460ff8160081c1661070a81613a74565b61071d5761ffff19166101011760145580f35b60405162461bcd60e51b815260206004820152602360248201527f5732453a2050726f746f636f6c206e6f7420696e207072652d6c69766520737460448201526261746560e81b6064820152608490fd5b50346103f657806003193601126103f6576007546040516001600160a01b039091168152602090f35b50346103f65760403660031901126103f65760406107b3613aaa565b916004358152601c602052209060018060a01b031660005260205260806040600020805490600260018201549101549060ff604051938181161515855260081c161515602084015260408301526060820152f35b50346103f657806003193601126103f65760025460405160089190911c6001600160a01b03168152602090f35b5060203660031901126103f65760043560018060a01b0361085a81600654163314613f20565b610862613e60565b61086d821515613dc2565b8134106109335782808080606461088660125488613eb6565b04946108928688613fb8565b9061089f87600c54613e53565b600c55600554165af16108b0614054565b50156108ee5760405191825260208201527f2f22b7f6e7f7df7d0eb3d1a543a2b6eb906e76a03540c2d66d2725270a5f6d3160403392a26001805580f35b60405162461bcd60e51b815260206004820152601d60248201527f5732453a205472656173757279207472616e73666572206661696c65640000006044820152606490fd5b60405162461bcd60e51b815260206004820152601a60248201527f5732453a20496e73756666696369656e74204554482073656e740000000000006044820152606490fd5b50346103f65760403660031901126103f657610992613a94565b60243561099d613e60565b6001600160a01b03918216916109b4831515613e0e565b6109bf821515613dc2565b6109ce60205460135490613e53565b421115610b115780600854163314908115610b04575b5015610aa4576109f6814710156141ca565b8280808084865af1610a06614054565b5015610a5f5760807faa895f492f736a5e2f0e6bb4caae358842a87b3b12f0c9b5d83af49d2afece7c9160405190815260406020820152600a604082015269696e616374697669747960b01b6060820152a26001805580f35b60405162461bcd60e51b815260206004820152601e60248201527f5732453a20496e61637469766974792072656c65617365206661696c656400006044820152606490fd5b60405162461bcd60e51b815260206004820152603260248201527f5732453a204f6e6c792063726561746f72206f722044414f2063616e2072656c6044820152716561736520627920696e616374697669747960701b6064820152608490fd5b90508354163314386109e4565b60405162461bcd60e51b815260206004820152602560248201527f5732453a20496e6163746976697479207468726573686f6c64206e6f742072656044820152641858da195960da1b6064820152608490fd5b50346103f65760203660031901126103f65760406020916004358152601983522054604051908152f35b50346103f657806003193601126103f6576020600e54604051908152f35b50346103f657806003193601126103f6576020600a54604051908152f35b50346103f65760403660031901126103f657610c11610be7613aaa565b6006546001600160a01b039190610c019083163314613f20565b610c09613e60565b161515613f6c565b6004358152601b60205260076040822001805460ff81166005811015610c8657600103610c485760ff191660021790556001805580f35b60405162461bcd60e51b815260206004820152601660248201527515cc914e8815185cdac81b9bdd08185c1c1c9bdd995960521b6044820152606490fd5b634e487b7160e01b84526021600452602484fd5b50346103f65760403660031901126103f6576040610cb6613aaa565b918060608351610cc581613b87565b828152826020820152828582015201526004358152601c602052209060018060a01b031660005260205260806040600020604051610d0281613b87565b81549160ff831615159283835260ff602084019160081c16151581526060600260018401549360408601948552015493019283526040519384525115156020840152516040830152516060820152f35b50346103f657806003193601126103f6576020601354604051908152f35b50346103f657806003193601126103f6576020601d54604051908152f35b50346103f657806003193601126103f6576003546040516001600160a01b039091168152602090f35b50346103f657806003193601126103f657610dd0613e60565b600a546015548110610f29576008546001600160a01b0391908216610df6338214614084565b6017548015610ee457601654610e0b91613e53565b4211610e9f57610e7292610e85858080806040966064610e4f7ff1ac99b40df92c75ed075d39e3b02858b41dca6aaa50b235f036e349755ae8d69a60095490613eb6565b0490610e5e600b548093613fb8565b9a8b8093610e6d8215156140d0565b613e53565b600b555af1610e7f614054565b50614128565b6008541692600b5482519182526020820152a26001805580f35b60405162461bcd60e51b815260206004820152601a60248201527f5732453a205061796f75742077696e646f7720657870697265640000000000006044820152606490fd5b60405162461bcd60e51b815260206004820152601b60248201527f5732453a20546172676574206e6f7420726561636865642079657400000000006044820152606490fd5b60405162461bcd60e51b815260206004820152601360248201527215cc914e8815185c99d95d081b9bdd081b595d606a1b6044820152606490fd5b50346103f657806003193601126103f65760025460405163058303b160e41b815260209260089290921c6001600160a01b031691908381600481865afa8015611120579084916110f2575b50506040805163ed6bac1d60e01b815292839060049082905afa9182156110e557819082936110ac575b506001938484019283851161109857919061100e610ff8859795613bc3565b966110066040519889613ba2565b808852613bc3565b8187019690601f1901368837845b86811115611066575060405195606087019387528287015260606040870152518092526080850195925b8281106110535785870386f35b8351875295810195928101928401611046565b8061108c9186949596999799526018855260408420546110868285614318565b52613d12565b9694969392919361101c565b634e487b7160e01b81526011600452602490fd5b9250506040823d6040116110dd575b816110c860409383613ba2565b810103126103f6578282519201519138610fd9565b3d91506110bb565b50604051903d90823e3d90fd5b813d8311611119575b6111058183613ba2565b81010312611114578238610faf565b600080fd5b503d6110fb565b6040513d84823e3d90fd5b50346103f657806003193601126103f657611144613e60565b6008546001600160a01b0390811661115d338214614084565b600a549081156111a557610e7292610e85858080806040966064610e4f7ff1ac99b40df92c75ed075d39e3b02858b41dca6aaa50b235f036e349755ae8d69a60095490613eb6565b60405162461bcd60e51b815260206004820152601860248201527f5732453a204e6f2066756e6473207261697365642079657400000000000000006044820152606490fd5b50346103f65760603660031901126103f6576044356001600160401b0381116115365761121b903690600401613b15565b611223613cba565b600435156114f157611236601d54613d12565b9182601d556040519361124885613b42565b838552806020860152600435604086015260243560608601524260808601528060a08601528060c08601528060e08601528061010086015280610120860152611292368484613d52565b610140860152838152601b60205260408120948051865560019586810160208301516112bd81613a74565b6112c681613a74565b60ff8019835416911617905560408201516002820155606082015160038201556080820151600482015560a0820151600582015560c082015160068201556007810160e083015160058110156114dd57918161132761014094600994613d89565b6101008501518154610100600160a81b031916600891821b610100600160a81b03161790915561012085015190820155919092015180519290910191906001600160401b0382116114c95761137c8354613bda565b601f8111611485575b5091839160209895938895508990601f831160011461141557600080516020614461833981519152969783928392879461140a575b50501b916000199060031b1c19161790555b6113d7601e54613d12565b601e556113ff6040519283928352600435898401526060604084015233966060840191613da1565b0390a3604051908152f35b0151925038806113ba565b8385528a8520601f1984169893929091865b8a811061146d575083600080516020614461833981519152999a10611454575b505050811b0190556113cc565b015160001960f88460031b161c19169055388080611447565b8183015184558c995092850192918d01918d01611427565b83855260208520601f840160051c810191602085106114bf575b601f0160051c01905b8181106114b55750611385565b85815589016114a8565b909150819061149f565b634e487b7160e01b84526041600452602484fd5b634e487b7160e01b85526021600452602485fd5b60405162461bcd60e51b815260206004820152601c60248201527f5732453a20526577617264206d75737420626520706f736974697665000000006044820152606490fd5b5080fd5b50346103f65760203660031901126103f65761156160018060a01b03600654163314613f20565b60043581526018602052604081206115798154613d12565b905580f35b50346103f657806003193601126103f6576020601554604051908152f35b50346103f657806003193601126103f657546040516001600160a01b039091168152602090f35b50346103f65760203660031901126103f6576040906004358152601b60205220805461168e60ff60018401541692600281015490600381015460048201546005830154600684015491600785015493611623600960088801549701613c14565b966040519a8b9a8b5261163581613a74565b60208b015260408a01526060890152608088015260a087015260c086015261166360e0860160ff8316613ac0565b60081c6001600160a01b03166101008501526101208401526101606101408401819052830190613af0565b0390f35b50346103f657806003193601126103f6576020600f54604051908152f35b50346103f657806003193601126103f6576020601f54604051908152f35b50346103f65760208060031936011261153657600435906116ed613e60565b818352601b8152604083206007810180549160ff8316600581101561194a5761190d5760058101549260068201546117258186613e53565b60025460405163144613ff60e31b81529196919088908290600490829060081c6001600160a01b03165afa908115611902578a916118d3575b5061176e606491600d5490613eb6565b0486108015906118ba575b1561187a57111561186b5750600160ff1983541617825560ff6001820154166117a181613a74565b80158061185e575b1561184f57506117b99054613ec9565b42835560ff815416600581101561183b5715611812575b9160409160ff7fe706375806608dd57ef39176f88f78ca596a2ee8bdff66998ae082f0c1d116209454169161180784518094613ac0565b820152a26001805580f35b601e5480156118275760001901601e556117d0565b634e487b7160e01b86526011600452602486fd5b634e487b7160e01b86526021600452602486fd5b6118599150613a74565b6117b9565b50600282015415156117a9565b60ff19166002178255506117b9565b60405162461bcd60e51b815260048101889052601860248201527715cc914e8810d85b9b9bdd08199a5b985b1a5e99481e595d60421b6044820152606490fd5b506118cc6004850154600e5490613e53565b4211611779565b90508781813d83116118fb575b6118ea8183613ba2565b81010312611114575161176e61175e565b503d6118e0565b6040513d8c823e3d90fd5b60405162461bcd60e51b81526004810185905260156024820152745732453a205461736b206e6f742070656e64696e6760581b6044820152606490fd5b634e487b7160e01b87526021600452602487fd5b50346103f657806003193601126103f6576020604051635e80a6bf8152f35b50346103f657806003193601126103f657611996613cba565b60025460ff81166119d95760019060ff1916176002557f62e78cea01bee320cd4e420270b5ea74000d11b0c9f74754ebdbfc544b05a2586020604051338152a180f35b60405162461bcd60e51b815260206004820152601060248201526f14185d5cd8589b194e881c185d5cd95960821b6044820152606490fd5b50346103f657806003193601126103f6576020601a54604051908152f35b50346103f657806003193601126103f6576008546040516001600160a01b039091168152602090f35b50346103f657602080600319360112611536576004356001600160401b038111611c825736602382011215611c8257806004013592611a9684613bc3565b91611aa46040519384613ba2565b8483528383016024809660051b83010191368311611c7e578601905b828210611c5f5750506006546001600160a01b03949150611ae49085163314613f20565b611aec613e60565b60145460ff811615611c115760ff19166014556003549293928316928290815b8651811015611bdd5781611b208289614318565b516040516370a0823160e01b815291166004820181905285828b818b5afa918215611bd2578592611ba3575b5081611b63575b5050611b5e90613d12565b611b0c565b7ffb518729fe519091f8dd997a899a92dcf814cc8101d7181f2b505fb7daf4607686611b9484611b5e96959a613e53565b98604051908152a29038611b53565b9091508581813d8311611bcb575b611bbb8183613ba2565b8101031261111457519038611b4c565b503d611bb1565b6040513d87823e3d90fd5b82857ffa98b265f0ea4ee4a32d6bd71eb75eb433367a19ee3b7fb0510514f3a1338946866040519283523392a26001805580f35b60405162461bcd60e51b8152600481018390526021818801527f5732453a2050726f746f636f6c20616c726561647920646561637469766174656044820152601960fa1b6064820152608490fd5b81356001600160a01b0381168103611114578152908501908501611ac0565b8380fd5b8280fd5b50346103f65760203660031901126103f6576004356001600160401b03811161153657611cb7903690600401613b15565b90611cc0613cba565b611ccf602054600f5490613e53565b421115611d1757611d117f19ad580ac4de783866d2548cc126e86b8bdabd95323ccebfa5e4018b6b160ac9916040519182916020835233956020840191613da1565b0390a280f35b60405162461bcd60e51b815260206004820152601f60248201527f5732453a204e6f7420616e20656d657267656e637920736974756174696f6e006044820152606490fd5b50346103f657806003193601126103f65760ff8060145460081c169060018060a01b0360025460081c16604051809163058303b160e41b825281600460209485935afa908115611bd2578591611e54575b50600a54600b5490600c5492601d5494889660015b87811115611dfd57505060e0985060405197611ddd81613a74565b885287015260408601526060850152608084015260a083015260c0820152f35b808b52601b835281600760408d200154166005811015611e405715611e2b575b611e2690613d12565b611dc2565b97611e38611e2691613d12565b989050611e1d565b634e487b7160e01b8c52602160045260248cfd5b90508181813d8311611e7a575b611e6b8183613ba2565b81010312611114575138611dad565b503d611e61565b50346103f657806003193601126103f6576020601654604051908152f35b50346103f657806003193601126103f6576005546040516001600160a01b039091168152602090f35b50346103f657806003193601126103f657611ee1613cba565b600080546001600160a01b0319811682556001600160a01b03167f8be0079c531659141344cd1fd0a4f28419497f9722a3daafe3b4186f6b6457e08280a380f35b50346103f65760403660031901126103f657611f3c613a94565b600654602435916001600160a01b0391611f599083163314613f20565b611f61613e60565b1690611f6e821515613e0e565b611f79811515613dc2565b611f92611f8b602054600f5490613e53565b4211614174565b611f9e814710156141ca565b8280808084865af1611fae614054565b501561200c5760807faa895f492f736a5e2f0e6bb4caae358842a87b3b12f0c9b5d83af49d2afece7c9160405190815260406020820152600f60408201526e71756f72756d5f616e645f74696d6560881b6060820152a26001805580f35b60405162461bcd60e51b815260206004820152601d60248201527f5732453a20456d657267656e63792072656c65617365206661696c65640000006044820152606490fd5b50346103f657806003193601126103f6576020600c54604051908152f35b50346103f65760403660031901126103f657612089613a94565b6006546001600160a01b039190602435906120a79084163314613f20565b6120af613e60565b828216926120be841515613f6c565b811561230957846120d3606484048094613fb8565b93826003541692806007541693803b15611c7e576040516340c10f1960e01b8082526001600160a01b039690961660048201526024810187905290849081908390604490829084905af191826122f5575b50506121d85782612133613fc5565b6308c379a01461214a575b604051903d90823e3d90fd5b612152613fe3565b8061215d575061213e565b6121d4906121b4603a60405180937f4d696e7420706c6174666f726d20666565206661696c65643a2000000000000060208301526121a48151809260208686019101613acd565b810103601a810184520182613ba2565b60405162461bcd60e51b8152602060048201529182916024830190613af0565b0390fd5b6003541692833b15611c82576040519081526001600160a01b03919091166004820152602481018590529181908390604490829084905af191826122dd575b50506122a65783612226613fc5565b6308c379a01461223c57604051903d90823e3d90fd5b612244613fe3565b8061224f575061213e565b6121d4906121b4603f60405180937f4d696e7420776f726b657220636f6d6d697373696f6e206661696c65643a200060208301526122968151809260208686019101613acd565b810103601f810184520182613ba2565b7fd4aefb4b84804a4c139b1151ee766446b22cb5273adf0178e7575862bcc4a7809160409182519182526020820152a26001805580f35b6122e690613b74565b6122f1578438612217565b8480fd5b6122fe90613b74565b611c7e578338612124565b606460405162461bcd60e51b815260206004820152602060248201527f5732453a20436f6d6d697373696f6e206d75737420626520706f7369746976656044820152fd5b50346103f657806003193601126103f657602060ff600254166040519015158152f35b50346103f657806003193601126103f65760206040516103e88152f35b50346103f65760403660031901126103f6576024803515159081813503611c8257600254916040516370a0823160e01b90818152336004820152602081858160018060a01b03809960081c165afa908115612aff578691612acd575b5015612a91576123f7613e60565b6004358552601b602052604085209060ff6007830154166005811015612a7e57612a435761242c6004830154600e5490613e53565b42116129ff576004358652601c602052604086203360005260205260ff604060002054166129c657600382015490816128d4575b509060039160026040519161247483613b87565b6001835260208301908682526040840190815260608401914283526004358b52601c60205260408b20336000526020526040600020945115159060ff61ff0087549251151560081b1692169061ffff1916171784555160018401555191015583356000146128bf57600581016124ea8154613d12565b90555b6124f8601f54613d12565b601f550154604051918252602082015233907fcbdf6214089cba887ecbf35a0b6a734589959c9763342c756bb2a80ca2bc9f6e604060043592a36004358352601b60205260408320906125546005830154600684015490613e53565b918360025460081c169260405160208160048163144613ff60e31b988982525afa9081156128b4578791612882575b50612590600d5482613eb6565b5060508102908082046050149015171561286f576064900411159081612840575b506125bf575b836001805580f35b6125c7613e60565b6004358452601b602052604084209160078301549060ff8216600581101561282d576127f157600584015460068501549160206126048484613e53565b9760025460081c169160046040518094819382525afa9081156127e65788916127b2575b50612638606491600d5490613eb6565b048610801590612799575b1561275a5711156127495750600160ff1960078401541617600783015560ff60018301541661267181613a74565b80158061273c575b1561272e57506126898254613ec9565b4260205560ff600783015416600581101561271b57156126f0575b50600760ff91015416906126bb6040518093613ac0565b60208201527fe706375806608dd57ef39176f88f78ca596a2ee8bdff66998ae082f0c1d11620604060043592a23880806125b7565b601e54908115612709575060001901601e5560076126a4565b634e487b7160e01b8552601160045284fd5b50634e487b7160e01b8452602160045283fd5b61273790613a74565b612689565b5060028301541515612679565b60ff19166002176007830155612689565b60405162461bcd60e51b8152602060048201526018818601527715cc914e8810d85b9b9bdd08199a5b985b1a5e99481e595d60421b6044820152606490fd5b506127ab6004860154600e5490613e53565b4211612643565b90506020813d6020116127de575b816127cd60209383613ba2565b810103126111145751612638612628565b3d91506127c0565b6040513d8a823e3d90fd5b60405162461bcd60e51b815260206004820152601581850152745732453a205461736b206e6f742070656e64696e6760581b6044820152606490fd5b634e487b7160e01b875260216004528387fd5b6004915001546202a300810180911161285c57421115386125b1565b50634e487b7160e01b8452601160045283fd5b634e487b7160e01b875260116004528387fd5b90506020813d6020116128ac575b8161289d60209383613ba2565b81010312611114575138612583565b3d9150612890565b6040513d89823e3d90fd5b600681016128cd8154613d12565b90556124ed565b6020866003541691866040518094819382523360048301525afa80156128b4578291889161298f575b506129119061290b3361439b565b90613e53565b1061294057906003916004358752601c6020526040872033600052602052806001604060002001559091612460565b60405162461bcd60e51b8152602060048201526022818601527f5732453a20496e73756666696369656e74207374616b6520666f7220766f74696044820152616e6760f01b6064820152608490fd5b9150506020813d6020116129be575b816129ab60209383613ba2565b81010312611114575181906129116128fd565b3d915061299e565b60405162461bcd60e51b8152602060048201526012818601527115cc914e88105b1c9958591e481d9bdd195960721b6044820152606490fd5b60405162461bcd60e51b8152602060048201526018818601527f5732453a20566f74696e6720706572696f6420656e64656400000000000000006044820152606490fd5b60405162461bcd60e51b815260206004820152601481860152735732453a205461736b206e6f742061637469766560601b6044820152606490fd5b634e487b7160e01b875260216004528487fd5b60405162461bcd60e51b8152602060048201526015818501527415cc914e88131a58d95b9cd9481c995c5d5a5c9959605a1b6044820152606490fd5b90506020813d602011612af7575b81612ae860209383613ba2565b810103126111145751386123e9565b3d9150612adb565b6040513d88823e3d90fd5b50346103f657806003193601126103f657612b23613e60565b60ff60145416612c20576003546040516370a0823160e01b8152336004820152906020908190839060249082906001600160a01b03165afa918215612c15578392612be6575b508115612ba2577ffb518729fe519091f8dd997a899a92dcf814cc8101d7181f2b505fb7daf46076906040519283523392a26001805580f35b6064906040519062461bcd60e51b82526004820152601960248201527f5732453a204e6f20756e636c61696d65642062616c616e6365000000000000006044820152fd5b9080925081813d8311612c0e575b612bfe8183613ba2565b8101031261111457519038612b69565b503d612bf4565b6040513d85823e3d90fd5b60405162461bcd60e51b815260206004820152601a60248201527f5732453a2050726f746f636f6c207374696c6c206163746976650000000000006044820152606490fd5b50346103f657806003193601126103f6576020601154604051908152f35b50346103f65760603660031901126103f657612c9d613aaa565b906044356001600160401b03811161153657612cbd903690600401613b15565b90612cc6613cba565b612cd36004351515613dc2565b612ce76001600160a01b0385161515613e0e565b612cf2601d54613d12565b9283601d55604051602081019060043582526bffffffffffffffffffffffff198760601b16604082015284846054830137612d3f6054828781018683820152036034810184520182613ba2565b51902060405195612d4f87613b42565b8587526002602088015282604088015268056bc75e2d6310000060608801524260808801528260a08801528260c08801528260e088015260018060a01b0316610100870152610120860152612da5368484613d52565b610140860152838152601b6020526040812094805186556001958681016020830151612dd081613a74565b612dd981613a74565b60ff8019835416911617905560408201516002820155606082015160038201556080820151600482015560a0820151600582015560c082015160068201556007810160e083015160058110156114dd579181612e3a61014094600994613d89565b6101008501518154610100600160a81b031916600891821b610100600160a81b03161790915561012085015190820155919092015180519290910191906001600160401b0382116114c957612e8f8354613bda565b601f8111612f8c575b5091839160209895938895508990601f8311600114612f1c576000805160206144618339815191529697839283928794612f11575b50501b916000199060031b1c19161790555b612eea601e54613d12565b601e556113ff60405192839260028452898401526060604084015233966060840191613da1565b015192503880612ecd565b8385528a8520601f1984169893929091865b8a8110612f74575083600080516020614461833981519152999a10612f5b575b505050811b019055612edf565b015160001960f88460031b161c19169055388080612f4e565b8183015184558c995092850192918d01918d01612f2e565b83855260208520601f840160051c81019160208510612fc6575b601f0160051c01905b818110612fbc5750612e98565b8581558901612faf565b9091508190612fa6565b50346103f65760203660031901126103f657612fea613cba565b60043560155580f35b50346103f657806003193601126103f6576020601754604051908152f35b50346103f65760203660031901126103f65760043561302e613cba565b613036613e60565b613041811515613dc2565b600c548181106130f7578161305591613fb8565b600c55818080808460018060a01b03600354165af1613072614054565b50156130b357600c5460405191825260208201527f2d2ea9fb5109dacbe8f4343ad96906f9ced59807c426a0d21fc84ad462b83d6460403392a26001805580f35b606460405162461bcd60e51b815260206004820152602060248201527f5732453a2052657761726420706f6f6c207472616e73666572206661696c65646044820152fd5b60405162461bcd60e51b815260206004820152601d60248201527f5732453a20496e73756666696369656e742072657761726420706f6f6c0000006044820152606490fd5b50346103f657806003193601126103f657613155613cba565b60025460ff8116156131955760ff19166002557f5db9ee0a495bf2e6ff9c91a7834c1ba4fdd244a5e8aa4e537bd38aeae4b073aa6020604051338152a180f35b60405162461bcd60e51b815260206004820152601460248201527314185d5cd8589b194e881b9bdd081c185d5cd95960621b6044820152606490fd5b50346103f657806003193601126103f6576020601254604051908152f35b50346103f657806003193601126103f6576020604051620151808152f35b50346103f65760203660031901126103f6576020610503600435614221565b50346103f657806003193601126103f6576004546040516001600160a01b039091168152602090f35b50346103f657806003193601126103f6576020600b54604051908152f35b50346103f657806003193601126103f6576020601054604051908152f35b50346103f65760203660031901126103f6578060018060a01b036132ba81600654163314613f20565b60025460081c16803b15613301578190602460405180948193633334fd4160e21b835260043560048401525af18015611120576132f5575080f35b6132fe90613b74565b80f35b50fd5b50346103f657806003193601126103f657602060ff601454166040519015158152f35b50346103f657806003193601126103f657601d54601e54601f5460408051938452602084019290925290820152606090f35b50346103f65760203660031901126103f657600435600481101561153657600190613382613cba565b61338b81613a74565b60145461ff008260081b169061ff001916176014556133a981613a74565b14806133d2575b806133c4575b6133bd5780f35b4260175580f35b50600a5460155411156133b6565b50601754156133b0565b50346103f65760203660031901126103f65760606101406040516133ff81613b42565b83815283602082015283604082015283838201528360808201528360a08201528360c08201528360e0820152836101008201528361012082015201526004358152601b60205260408120906040519061345782613b42565b8254825260ff60018401541661346c81613a74565b6020830152600283015460408301526003830154606083015260048301546080830152600583015460a0830152600683015460c083015260078301549060ff821690600582101561358e575060e0830152600890811c6001600160a01b0316610100830152820154610120820152610140916134ea90600901613c14565b8282015261168e6040519283926020845280516020850152602081015161351081613a74565b60408501526040810151606085015260608101516080850152608081015160a085015260a081015160c085015260c081015160e085015261355a60e0820151610100860190613ac0565b6101008101516001600160a01b03166101208581019190915281015182850152015161016080840152610180830190613af0565b634e487b7160e01b81526021600452602490fd5b50346103f65760203660031901126103f65760406020916004358152601883522054604051908152f35b50346103f657806003193601126103f6576020600d54604051908152f35b50346103f65760403660031901126103f657613604613a94565b60243561360f613cba565b613617613e60565b6001600160a01b039182169161362e831515613e0e565b613639821515613dc2565b60025460081c16604051809163144613ff60e31b825281600460209485935afa908115611bd2578591613732575b5061367760649160105490613eb6565b049061368a611f8b8254600f5490613e53565b613696834710156141ca565b8480808086885af16136a6614054565b50156136e257916040917f9dafb22dc2954bed775d40fdf499bb61c15ae9d0c8a59fc47bae3398dabb9c11938351928352820152a26001805580f35b6084906040519062461bcd60e51b825260048201526024808201527f5732453a20456d657267656e63792066756e6473207472616e736665722066616044820152631a5b195960e21b6064820152fd5b90508181813d831161375a575b6137498183613ba2565b810103126122f15751613677613667565b503d61373f565b50346103f65760603660031901126103f657602435604435600435613784613cba565b8015158061396d575b15613932576201518083101580613925575b156138e05762093a80821015806138d3575b1561388e577f32fa47401857a485cf1182f3c2c4bc0728037ad5dc22bd48633e9f98f0fa648f927fb40dec3cd070c2f82c63f16d29f782d5b72bd71f4b63dfde51bdd1620081f21092604092600d5492600e5493600f549083600d5582600e5584600f557f968d937680c1f7f833709125e5fe03f808947ae9cc8425608eca21a9b361ae47875180613856888789846040919493926060820195825260208201520152565b0390a16f676f7665726e616e63655f72756c657360801b875152865195871b9060801b17178452841b9060801b17176020820152a280f35b60405162461bcd60e51b815260206004820152601d60248201527f5732453a20496e76616c696420656d657267656e637920706572696f640000006044820152606490fd5b506276a7008211156137b1565b60405162461bcd60e51b815260206004820152601a60248201527f5732453a20496e76616c696420766f74696e6720706572696f640000000000006044820152606490fd5b5062278d0083111561379f565b60405162461bcd60e51b81526020600482015260136024820152725732453a20496e76616c69642071756f72756d60681b6044820152606490fd5b50606481111561378d565b50346103f657806003193601126103f6576020601e54604051908152f35b50346103f657806003193601126103f65760208054604051908152f35b50346103f65760203660031901126103f6576139fb6004356139e060018060a01b03600654163314613f20565b6139e8613e60565b6139f3811515613dc2565b600a54613e53565b600a556001805580f35b50346103f657806003193601126103f657602060ff60145460081c1660405190613a2e81613a74565b8152f35b50346103f657806003193601126103f65760206040516101f48152f35b9050346115365781600319360112611536576006546001600160a01b03168152602090f35b60041115613a7e57565b634e487b7160e01b600052602160045260246000fd5b600435906001600160a01b038216820361111457565b602435906001600160a01b038216820361111457565b906005821015613a7e5752565b60005b838110613ae05750506000910152565b8181015183820152602001613ad0565b90602091613b0981518092818552858086019101613acd565b601f01601f1916010190565b9181601f84011215611114578235916001600160401b038311611114576020838186019501011161111457565b61016081019081106001600160401b03821117613b5e57604052565b634e487b7160e01b600052604160045260246000fd5b6001600160401b038111613b5e57604052565b608081019081106001600160401b03821117613b5e57604052565b90601f801991011681019081106001600160401b03821117613b5e57604052565b6001600160401b038111613b5e5760051b60200190565b90600182811c92168015613c0a575b6020831014613bf457565b634e487b7160e01b600052602260045260246000fd5b91607f1691613be9565b9060405191826000825492613c2884613bda565b908184526001948581169081600014613c975750600114613c54575b5050613c5292500383613ba2565b565b9093915060005260209081600020936000915b818310613c7f575050613c5293508201013880613c44565b85548884018501529485019487945091830191613c67565b915050613c5294506020925060ff191682840152151560051b8201013880613c44565b6000546001600160a01b03163303613cce57565b606460405162461bcd60e51b815260206004820152602060248201527f4f776e61626c653a2063616c6c6572206973206e6f7420746865206f776e65726044820152fd5b6000198114613d215760010190565b634e487b7160e01b600052601160045260246000fd5b6001600160401b038111613b5e57601f01601f191660200190565b929192613d5e82613d37565b91613d6c6040519384613ba2565b829481845281830111611114578281602093846000960137010152565b906005811015613a7e5760ff80198354169116179055565b908060209392818452848401376000828201840152601f01601f1916010190565b15613dc957565b60405162461bcd60e51b815260206004820152601c60248201527f5732453a20416d6f756e74206d75737420626520706f736974697665000000006044820152606490fd5b15613e1557565b60405162461bcd60e51b815260206004820152601660248201527515cc914e88125b9d985b1a59081c9958da5c1a595b9d60521b6044820152606490fd5b91908201809211613d2157565b600260015414613e71576002600155565b60405162461bcd60e51b815260206004820152601f60248201527f5265656e7472616e637947756172643a207265656e7472616e742063616c6c006044820152606490fd5b81810292918115918404141715613d2157565b80600052601b6020526040600020600560028201549101548015613f1b577fda04004d58812f3e164f58e498158acca1b0054d975fce0e3bafdf56f2e254ba91604091825191818352046020820152a2565b505050565b15613f2757565b60405162461bcd60e51b815260206004820152601760248201527f5732453a204e6f742050616e646f7261204f7261636c650000000000000000006044820152606490fd5b15613f7357565b60405162461bcd60e51b815260206004820152601b60248201527f5732453a20496e76616c696420776f726b6572206164647265737300000000006044820152606490fd5b91908203918211613d2157565b60009060033d11613fd257565b905060046000803e60005160e01c90565b600060443d1061404057604051600319913d83016004833e81516001600160401b03918282113d6024840111176140435781840194855193841161404b573d85010160208487010111614043575061404092910160200190613ba2565b90565b949350505050565b50949350505050565b3d1561407f573d9061406582613d37565b916140736040519384613ba2565b82523d6000602084013e565b606090565b1561408b57565b60405162461bcd60e51b815260206004820152601e60248201527f5732453a204f6e6c792063726561746f722063616e20776974686472617700006044820152606490fd5b156140d757565b60405162461bcd60e51b815260206004820152602360248201527f5732453a204e6f2066756e647320617661696c61626c6520666f7220637265616044820152623a37b960e91b6064820152608490fd5b1561412f57565b60405162461bcd60e51b815260206004820152601a60248201527f5732453a2043726561746f72207061796f7574206661696c65640000000000006044820152606490fd5b1561417b57565b60405162461bcd60e51b815260206004820152602160248201527f5732453a20456d657267656e637920706572696f64206e6f74207265616368656044820152601960fa1b6064820152608490fd5b156141d157565b60405162461bcd60e51b815260206004820152602260248201527f5732453a20496e73756666696369656e7420636f6e74726163742062616c616e604482015261636560f01b6064820152608490fd5b6000908152601b602052604081209060ff6007830154166005811015614304576142ff576142586005830154600684015490613e53565b60025460405163144613ff60e31b8152919291906020908290600490829060081c6001600160a01b03165afa91821561213e5780926142c8575b50506142a3606491600d5490613eb6565b0411908115916142b1575090565b6142c3915060040154600e5490613e53565b421190565b9091506020823d82116142f7575b816142e360209383613ba2565b810103126103f65750516142a36064614292565b3d91506142d6565b905090565b634e487b7160e01b82526021600452602482fd5b805182101561432c5760209160051b010190565b634e487b7160e01b600052603260045260246000fd5b600a5460155481108015614391575b61438b5761436460175460165490613e53565b421161438b57606461437c6143869260095490613eb6565b04600b5490613fb8565b151590565b50600090565b5060175415614351565b60035460405163c345315360e01b81526001600160a01b0392831660048201529160809183916024918391165afa60009182828492859461440a575b506143e55750505050600090565b826143f7575b50506140405750600090565b6144019250613e53565b421038806143eb565b9492509250506080833d8211614458575b8161442860809383613ba2565b810103126103f657825192602081015193606060408301519201519283151584036103f6575093909192386143d7565b3d915061441b56fec776fbd4d206dd3edc8ac9ca9129ed5cc454a4663161f6b97bfa8cae6918ad1fa26469706673582212207cd81e7955534edde49e508c13b4c900d03e780beb172be39440f4d04859ed1264736f6c63430008140033",
  "linkReferences": {},
  "deployedLinkReferences": {}
}