{
  "_format": "hh-sol-artifact-1",
  "contractName": "PBOXToken",
  "sourceName": "contracts/core/PBOXToken.sol",
  "abi": [
    {
      "inputs": [
        {
          "internalType": "address",
          "name": "_factory",
          "type": "address"
        },
        {
          "internalType": "address",
          "name": "_rootTreasury",
          "type": "address"
        },
        {
          "internalType": "address",
          "name": "admin",
          "type": "address"
        }
      ],
      "stateMutability": "nonpayable",
      "type": "constructor"
    },
    {
      "anonymous": false,
      "inputs": [
        {
          "indexed": true,
          "internalType": "address",
          "name": "owner",
          "type": "address"
        },
        {
          "indexed": true,
          "internalType": "address",
          "name": "spender",
          "type": "address"
        },
        {
          "indexed": false,
          "internalType": "uint256",
          "name": "value",
          "type": "uint256"
        }
      ],
      "name": "Approval",
      "type": "event"
    },
    {
      "anonymous": false,
      "inputs": [
        {
          "indexed": true,
          "internalType": "address",
          "name": "user",
          "type": "address"
        },
        {
          "indexed": false,
          "internalType": "uint256",
          "name": "pboxAmount",
          "type": "uint256"
        },
        {
          "indexed": false,
          "internalType": "uint256",
          "name": "feeAmount",
          "type": "uint256"
        },
        {
          "indexed": false,
          "internalType": "uint256",
          "name": "liquidityAmount",
          "type": "uint256"
        },
        {
          "indexed": true,
          "internalType": "address",
          "name": "backingAsset",
          "type": "address"
        }
      ],
      "name": "ConversionExecuted",
      "type": "event"
    },
    {
      "anonymous": false,
      "inputs": [
        {
          "indexed": false,
          "internalType": "uint256",
          "name": "oldFee",
          "type": "uint256"
        },
        {
          "indexed": false,
          "internalType": "uint256",
          "name": "newFee",
          "type": "uint256"
        }
      ],
      "name": "ConversionFeeUpdated",
      "type": "event"
    },
    {
      "anonymous": false,
      "inputs": [
        {
          "indexed": true,
          "internalType": "address",
          "name": "oldFactory",
          "type": "address"
        },
        {
          "indexed": true,
          "internalType": "address",
          "name": "newFactory",
          "type": "address"
        }
      ],
      "name": "FactoryUpdated",
      "type": "event"
    },
    {
      "anonymous": false,
      "inputs": [
        {
          "indexed": true,
          "internalType": "bytes32",
          "name": "role",
          "type": "bytes32"
        },
        {
          "indexed": true,
          "internalType": "bytes32",
          "name": "previousAdminRole",
          "type": "bytes32"
        },
        {
          "indexed": true,
          "internalType": "bytes32",
          "name": "newAdminRole",
          "type": "bytes32"
        }
      ],
      "name": "RoleAdminChanged",
      "type": "event"
    },
    {
      "anonymous": false,
      "inputs": [
        {
          "indexed": true,
          "internalType": "bytes32",
          "name": "role",
          "type": "bytes32"
        },
        {
          "indexed": true,
          "internalType": "address",
          "name": "account",
          "type": "address"
        },
        {
          "indexed": true,
          "internalType": "address",
          "name": "sender",
          "type": "address"
        }
      ],
      "name": "RoleGranted",
      "type": "event"
    },
    {
      "anonymous": false,
      "inputs": [
        {
          "indexed": true,
          "internalType": "bytes32",
          "name": "role",
          "type": "bytes32"
        },
        {
          "indexed": true,
          "internalType": "address",
          "name": "account",
          "type": "address"
        },
        {
          "indexed": true,
          "internalType": "address",
          "name": "sender",
          "type": "address"
        }
      ],
      "name": "RoleRevoked",
      "type": "event"
    },
    {
      "anonymous": false,
      "inputs": [
        {
          "indexed": true,
          "internalType": "address",
          "name": "from",
          "type": "address"
        },
        {
          "indexed": false,
          "internalType": "uint256",
          "name": "amount",
          "type": "uint256"
        },
        {
          "indexed": false,
          "internalType": "string",
          "name": "reason",
          "type": "string"
        }
      ],
      "name": "TokensBurned",
      "type": "event"
    },
    {
      "anonymous": false,
      "inputs": [
        {
          "indexed": true,
          "internalType": "address",
          "name": "to",
          "type": "address"
        },
        {
          "indexed": false,
          "internalType": "uint256",
          "name": "amount",
          "type": "uint256"
        },
        {
          "indexed": false,
          "internalType": "string",
          "name": "reason",
          "type": "string"
        }
      ],
      "name": "TokensMinted",
      "type": "event"
    },
    {
      "anonymous": false,
      "inputs": [
        {
          "indexed": true,
          "internalType": "address",
          "name": "from",
          "type": "address"
        },
        {
          "indexed": true,
          "internalType": "address",
          "name": "to",
          "type": "address"
        },
        {
          "indexed": false,
          "internalType": "uint256",
          "name": "value",
          "type": "uint256"
        }
      ],
      "name": "Transfer",
      "type": "event"
    },
    {
      "inputs": [],
      "name": "ADMIN_ROLE",
      "outputs": [
        {
          "internalType": "bytes32",
          "name": "",
          "type": "bytes32"
        }
      ],
      "stateMutability": "view",
      "type": "function"
    },
    {
      "inputs": [],
      "name": "BURNER_ROLE",
      "outputs": [
        {
          "internalType": "bytes32",
          "name": "",
          "type": "bytes32"
        }
      ],
      "stateMutability": "view",
      "type": "function"
    },
    {
      "inputs": [],
      "name": "DEFAULT_ADMIN_ROLE",
      "outputs": [
        {
          "internalType": "bytes32",
          "name": "",
          "type": "bytes32"
        }
      ],
      "stateMutability": "view",
      "type": "function"
    },
    {
      "inputs": [],
      "name": "MAX_TOTAL_SUPPLY",
      "outputs": [
        {
          "internalType": "uint256",
          "name": "",
          "type": "uint256"
        }
      ],
      "stateMutability": "view",
      "type": "function"
    },
    {
      "inputs": [],
      "name": "MINTER_ROLE",
      "outputs": [
        {
          "internalType": "bytes32",
          "name": "",
          "type": "bytes32"
        }
      ],
      "stateMutability": "view",
      "type": "function"
    },
    {
      "inputs": [
        {
          "internalType": "address",
          "name": "owner",
          "type": "address"
        },
        {
          "internalType": "address",
          "name": "spender",
          "type": "address"
        }
      ],
      "name": "allowance",
      "outputs": [
        {
          "internalType": "uint256",
          "name": "",
          "type": "uint256"
        }
      ],
      "stateMutability": "view",
      "type": "function"
    },
    {
      "inputs": [
        {
          "internalType": "address",
          "name": "spender",
          "type": "address"
        },
        {
          "internalType": "uint256",
          "name": "amount",
          "type": "uint256"
        }
      ],
      "name": "approve",
      "outputs": [
        {
          "internalType": "bool",
          "name": "",
          "type": "bool"
        }
      ],
      "stateMutability": "nonpayable",
      "type": "function"
    },
    {
      "inputs": [
        {
          "internalType": "address",
          "name": "burner",
          "type": "address"
        }
      ],
      "name": "authorizeBurner",
      "outputs": [],
      "stateMutability": "nonpayable",
      "type": "function"
    },
    {
      "inputs": [
        {
          "internalType": "address",
          "name": "account",
          "type": "address"
        }
      ],
      "name": "balanceOf",
      "outputs": [
        {
          "internalType": "uint256",
          "name": "",
          "type": "uint256"
        }
      ],
      "stateMutability": "view",
      "type": "function"
    },
    {
      "inputs": [
        {
          "internalType": "uint256",
          "name": "amount",
          "type": "uint256"
        }
      ],
      "name": "burn",
      "outputs": [],
      "stateMutability": "nonpayable",
      "type": "function"
    },
    {
      "inputs": [
        {
          "internalType": "address",
          "name": "account",
          "type": "address"
        },
        {
          "internalType": "uint256",
          "name": "amount",
          "type": "uint256"
        }
      ],
      "name": "burnFrom",
      "outputs": [],
      "stateMutability": "nonpayable",
      "type": "function"
    },
    {
      "inputs": [
        {
          "internalType": "address",
          "name": "from",
          "type": "address"
        },
        {
          "internalType": "uint256",
          "name": "amount",
          "type": "uint256"
        },
        {
          "internalType": "string",
          "name": "reason",
          "type": "string"
        }
      ],
      "name": "burnFromAuthorized",
      "outputs": [],
      "stateMutability": "nonpayable",
      "type": "function"
    },
    {
      "inputs": [
        {
          "internalType": "uint256",
          "name": "amount",
          "type": "uint256"
        }
      ],
      "name": "calculateConversion",
      "outputs": [
        {
          "internalType": "uint256",
          "name": "feeAmount",
          "type": "uint256"
        },
        {
          "internalType": "uint256",
          "name": "netAmount",
          "type": "uint256"
        },
        {
          "internalType": "uint256",
          "name": "totalCost",
          "type": "uint256"
        }
      ],
      "stateMutability": "view",
      "type": "function"
    },
    {
      "inputs": [
        {
          "internalType": "address",
          "name": "user",
          "type": "address"
        },
        {
          "internalType": "uint256",
          "name": "amount",
          "type": "uint256"
        }
      ],
      "name": "canConvert",
      "outputs": [
        {
          "internalType": "bool",
          "name": "",
          "type": "bool"
        }
      ],
      "stateMutability": "view",
      "type": "function"
    },
    {
      "inputs": [],
      "name": "conversionFeeBps",
      "outputs": [
        {
          "internalType": "uint256",
          "name": "",
          "type": "uint256"
        }
      ],
      "stateMutability": "view",
      "type": "function"
    },
    {
      "inputs": [
        {
          "internalType": "uint256",
          "name": "amount",
          "type": "uint256"
        },
        {
          "internalType": "address",
          "name": "backingAsset",
          "type": "address"
        }
      ],
      "name": "convertToLiquidity",
      "outputs": [],
      "stateMutability": "nonpayable",
      "type": "function"
    },
    {
      "inputs": [
        {
          "internalType": "address",
          "name": "",
          "type": "address"
        },
        {
          "internalType": "uint256",
          "name": "",
          "type": "uint256"
        }
      ],
      "name": "dailyConversions",
      "outputs": [
        {
          "internalType": "uint256",
          "name": "",
          "type": "uint256"
        }
      ],
      "stateMutability": "view",
      "type": "function"
    },
    {
      "inputs": [],
      "name": "decimals",
      "outputs": [
        {
          "internalType": "uint8",
          "name": "",
          "type": "uint8"
        }
      ],
      "stateMutability": "view",
      "type": "function"
    },
    {
      "inputs": [
        {
          "internalType": "address",
          "name": "spender",
          "type": "address"
        },
        {
          "internalType": "uint256",
          "name": "subtractedValue",
          "type": "uint256"
        }
      ],
      "name": "decreaseAllowance",
      "outputs": [
        {
          "internalType": "bool",
          "name": "",
          "type": "bool"
        }
      ],
      "stateMutability": "nonpayable",
      "type": "function"
    },
    {
      "inputs": [],
      "name": "factory",
      "outputs": [
        {
          "internalType": "address",
          "name": "",
          "type": "address"
        }
      ],
      "stateMutability": "view",
      "type": "function"
    },
    {
      "inputs": [
        {
          "internalType": "bytes32",
          "name": "role",
          "type": "bytes32"
        }
      ],
      "name": "getRoleAdmin",
      "outputs": [
        {
          "internalType": "bytes32",
          "name": "",
          "type": "bytes32"
        }
      ],
      "stateMutability": "view",
      "type": "function"
    },
    {
      "inputs": [],
      "name": "getTokenInfo",
      "outputs": [
        {
          "internalType": "uint256",
          "name": "totalSupply_",
          "type": "uint256"
        },
        {
          "internalType": "uint256",
          "name": "maxSupply_",
          "type": "uint256"
        },
        {
          "internalType": "uint256",
          "name": "conversionFee_",
          "type": "uint256"
        },
        {
          "internalType": "uint256",
          "name": "minConversion_",
          "type": "uint256"
        },
        {
          "internalType": "uint256",
          "name": "maxDailyConversion_",
          "type": "uint256"
        }
      ],
      "stateMutability": "view",
      "type": "function"
    },
    {
      "inputs": [
        {
          "internalType": "bytes32",
          "name": "role",
          "type": "bytes32"
        },
        {
          "internalType": "address",
          "name": "account",
          "type": "address"
        }
      ],
      "name": "grantRole",
      "outputs": [],
      "stateMutability": "nonpayable",
      "type": "function"
    },
    {
      "inputs": [
        {
          "internalType": "bytes32",
          "name": "role",
          "type": "bytes32"
        },
        {
          "internalType": "address",
          "name": "account",
          "type": "address"
        }
      ],
      "name": "hasRole",
      "outputs": [
        {
          "internalType": "bool",
          "name": "",
          "type": "bool"
        }
      ],
      "stateMutability": "view",
      "type": "function"
    },
    {
      "inputs": [
        {
          "internalType": "address",
          "name": "spender",
          "type": "address"
        },
        {
          "internalType": "uint256",
          "name": "addedValue",
          "type": "uint256"
        }
      ],
      "name": "increaseAllowance",
      "outputs": [
        {
          "internalType": "bool",
          "name": "",
          "type": "bool"
        }
      ],
      "stateMutability": "nonpayable",
      "type": "function"
    },
    {
      "inputs": [
        {
          "internalType": "address",
          "name": "",
          "type": "address"
        }
      ],
      "name": "lastConversionDay",
      "outputs": [
        {
          "internalType": "uint256",
          "name": "",
          "type": "uint256"
        }
      ],
      "stateMutability": "view",
      "type": "function"
    },
    {
      "inputs": [],
      "name": "maxDailyConversion",
      "outputs": [
        {
          "internalType": "uint256",
          "name": "",
          "type": "uint256"
        }
      ],
      "stateMutability": "view",
      "type": "function"
    },
    {
      "inputs": [],
      "name": "minConversionAmount",
      "outputs": [
        {
          "internalType": "uint256",
          "name": "",
          "type": "uint256"
        }
      ],
      "stateMutability": "view",
      "type": "function"
    },
    {
      "inputs": [
        {
          "internalType": "address",
          "name": "to",
          "type": "address"
        },
        {
          "internalType": "uint256",
          "name": "amount",
          "type": "uint256"
        },
        {
          "internalType": "string",
          "name": "reason",
          "type": "string"
        }
      ],
      "name": "mint",
      "outputs": [],
      "stateMutability": "nonpayable",
      "type": "function"
    },
    {
      "inputs": [],
      "name": "name",
      "outputs": [
        {
          "internalType": "string",
          "name": "",
          "type": "string"
        }
      ],
      "stateMutability": "view",
      "type": "function"
    },
    {
      "inputs": [
        {
          "internalType": "bytes32",
          "name": "role",
          "type": "bytes32"
        },
        {
          "internalType": "address",
          "name": "account",
          "type": "address"
        }
      ],
      "name": "renounceRole",
      "outputs": [],
      "stateMutability": "nonpayable",
      "type": "function"
    },
    {
      "inputs": [
        {
          "internalType": "address",
          "name": "burner",
          "type": "address"
        }
      ],
      "name": "revokeBurner",
      "outputs": [],
      "stateMutability": "nonpayable",
      "type": "function"
    },
    {
      "inputs": [
        {
          "internalType": "bytes32",
          "name": "role",
          "type": "bytes32"
        },
        {
          "internalType": "address",
          "name": "account",
          "type": "address"
        }
      ],
      "name": "revokeRole",
      "outputs": [],
      "stateMutability": "nonpayable",
      "type": "function"
    },
    {
      "inputs": [],
      "name": "rootTreasury",
      "outputs": [
        {
          "internalType": "address",
          "name": "",
          "type": "address"
        }
      ],
      "stateMutability": "view",
      "type": "function"
    },
    {
      "inputs": [
        {
          "internalType": "bytes4",
          "name": "interfaceId",
          "type": "bytes4"
        }
      ],
      "name": "supportsInterface",
      "outputs": [
        {
          "internalType": "bool",
          "name": "",
          "type": "bool"
        }
      ],
      "stateMutability": "view",
      "type": "function"
    },
    {
      "inputs": [],
      "name": "symbol",
      "outputs": [
        {
          "internalType": "string",
          "name": "",
          "type": "string"
        }
      ],
      "stateMutability": "view",
      "type": "function"
    },
    {
      "inputs": [],
      "name": "totalSupply",
      "outputs": [
        {
          "internalType": "uint256",
          "name": "",
          "type": "uint256"
        }
      ],
      "stateMutability": "view",
      "type": "function"
    },
    {
      "inputs": [
        {
          "internalType": "address",
          "name": "to",
          "type": "address"
        },
        {
          "internalType": "uint256",
          "name": "amount",
          "type": "uint256"
        }
      ],
      "name": "transfer",
      "outputs": [
        {
          "internalType": "bool",
          "name": "",
          "type": "bool"
        }
      ],
      "stateMutability": "nonpayable",
      "type": "function"
    },
    {
      "inputs": [
        {
          "internalType": "address",
          "name": "from",
          "type": "address"
        },
        {
          "internalType": "address",
          "name": "to",
          "type": "address"
        },
        {
          "internalType": "uint256",
          "name": "amount",
          "type": "uint256"
        }
      ],
      "name": "transferFrom",
      "outputs": [
        {
          "internalType": "bool",
          "name": "",
          "type": "bool"
        }
      ],
      "stateMutability": "nonpayable",
      "type": "function"
    },
    {
      "inputs": [
        {
          "internalType": "uint256",
          "name": "newFeeBps",
          "type": "uint256"
        }
      ],
      "name": "updateConversionFee",
      "outputs": [],
      "stateMutability": "nonpayable",
      "type": "function"
    },
    {
      "inputs": [
        {
          "internalType": "uint256",
          "name": "newMinConversion",
          "type": "uint256"
        },
        {
          "internalType": "uint256",
          "name": "newMaxDaily",
          "type": "uint256"
        }
      ],
      "name": "updateConversionLimits",
      "outputs": [],
      "stateMutability": "nonpayable",
      "type": "function"
    },
    {
      "inputs": [
        {
          "internalType": "address",
          "name": "newFactory",
          "type": "address"
        }
      ],
      "name": "updateFactory",
      "outputs": [],
      "stateMutability": "nonpayable",
      "type": "function"
    },
    {
      "stateMutability": "payable",
      "type": "receive"
    }
  ],
  "bytecode": "0x6080346200069357601f62002aff38819003828101601f199081168501949290916001600160401b03918287118588101762000698578160609286926040998a5283398101031262000693576200005683620006ce565b9060209162000074876200006c858801620006ce565b9601620006ce565b916200007f620006ae565b94601386527f50616e646f7261277320424f5820546f6b656e0000000000000000000000000085870152620000b3620006ae565b97600498898152630a0849eb60e31b878201528751928484116200058e5760039384549960019a8b81811c9116801562000688575b8b82101462000673579081868493116200061d575b508a90868311600114620005af57600092620005a3575b505060001982871b1c1916908a1b1784555b81519485116200058e578a548981811c9116801562000583575b898210146200056e5790818487969594931162000512575b5088928511600114620004aa57506000936200049e575b505082871b92600019911b1c19161786555b6006849055603260095568056bc75e2d63100000600a55683635c9adc5dea00000600b556001600160a01b039081169485156200045b578116918215620004185716948515620003d5575060018060a01b0319848160075416176007556008541617600855600080526005938482528560002081600052825260ff8660002054161562000399575b7fa49807205ce4d355092ef5a8a18f56e8913cf4a201fbe287825b095693c2177590816000528583528660002081600052835260ff876000205416156200035c575b50507f9f2df0fed2c77648de5860a4cc508cd0818c85b8b8a1ab4ceeef8d981c8956a6806000528482528560002084600052825260ff866000205416156200031f575b507f3c11d16cbaffd01df69ce1c404f6340ee057498f5f00246190ea54220576a84893846000528082528560002084600052825260ff86600020541615620002e0575b85516123fb9081620006e48239f35b84600052815284600020908360005252836000209060ff19825416179055339160008051602062002adf833981519152600080a43880808080620002d1565b8060005284825285600020846000528252856000208360ff1982541617905583339160008051602062002adf833981519152600080a4386200028e565b8160005285835286600020816000528352866000208460ff19825416179055339160008051602062002adf833981519152600080a438806200024b565b6000805284825285600020816000528252856000208360ff198254161790553381600060008051602062002adf8339815191528180a462000209565b865162461bcd60e51b8152908101839052601360248201527f50424f583a20496e76616c69642061646d696e000000000000000000000000006044820152606490fd5b875162461bcd60e51b8152808801859052601660248201527f50424f583a20496e76616c6964207472656173757279000000000000000000006044820152606490fd5b875162461bcd60e51b8152808801859052601560248201527f50424f583a20496e76616c696420666163746f727900000000000000000000006044820152606490fd5b0151915038806200016f565b89959392919316928b600052886000209360005b8a828210620004fb5750508511620004e0575b50505050811b01865562000181565b01519060f884600019921b161c1916905538808080620004d1565b8385015187558c98909601959384019301620004be565b9091929394508b600052886000208480880160051c8201928b891062000564575b918c91899897969594930160051c01915b8281106200055457505062000158565b600081558897508c910162000544565b9250819262000533565b60228c634e487b7160e01b6000525260246000fd5b90607f169062000140565b60418b634e487b7160e01b6000525260246000fd5b01519050388062000114565b90848d941691886000528c600020928d6000905b828210620005fc5750508411620005e3575b505050811b01845562000126565b015160001983891b60f8161c19169055388080620005d5565b91929395968291958786015181550195019301908e95949392918e620005c3565b909150866000528a6000208680850160051c8201928d861062000669575b918e91869594930160051c01915b82811062000659575050620000fd565b600081558594508e910162000649565b925081926200063b565b60228e634e487b7160e01b6000525260246000fd5b90607f1690620000e8565b600080fd5b634e487b7160e01b600052604160045260246000fd5b60408051919082016001600160401b038111838210176200069857604052565b51906001600160a01b0382168203620006935756fe6080604090808252600480361015610022575b505050361561002057600080fd5b005b600091823560e01c90816301ffc9a7146116575750806306fdde03146115635780630900cc3314611511578063095ea7b3146114e757806318160ddd146114c857806323b872dd1461148b578063248a9ca31461145f578063282c51f3146114365780632f2ff15d14611388578063313ce5671461136c57806333039d3d1461134657806334376ca0146112a857806336568abe1461121857806339509351146111c85780633e53f7db1461110857806342966c68146110e357806347141e8f14610ffc578063481cd0f814610fdd578063559358f414610d6f578063656aaba114610d3d57806370a0823114610d0657806375b238fc14610cdd57806379cc679014610caa5780637c2e939614610c8b57806391a99e8814610c6257806391d1485414610c1a57806395d89b4114610b1b57806398fae45514610ae3578063a217fddf14610ac8578063a457c2d714610a24578063a65fa1f0146109e3578063a9059cbb146109b2578063ab131eee1461095c578063abb1dc4414610913578063bbc1511f146108f4578063c45a0155146108cb578063d3fc98641461056c578063d539139314610531578063d547741f146104f3578063d9f165dc1461030e578063dd62ed3e146102c55763f7f9bc6a0361001257346102c1576102073661172b565b909261021161178d565b6001600160a01b0381169485156102865750907ffad31924d655455395c87544c8aa1ffdb5a7505a22a3c2e03f28003b6556a75f949596610276846102809461025b8215156120a1565b898b528a60205261027182858d2054101561217e565b6121ca565b51938493846120ed565b0390a280f35b606490602089519162461bcd60e51b8352820152601560248201527450424f583a20496e76616c6964206164647265737360581b6044820152fd5b5080fd5b8284346102c157806003193601126102c157806020926102e36116fa565b6102eb611715565b6001600160a01b0391821683526001865283832091168252845220549051908152f35b5082346104ef576020806003193601126104eb5761032a6116fa565b906000805160206123a6833981519152855260058152828520338652815261035760ff84872054166122d1565b6001600160a01b038281169490939085156104b25750906103fa929185600754958616956bffffffffffffffffffffffff60a01b16176007557f9f2df0fed2c77648de5860a4cc508cd0818c85b8b8a1ab4ceeef8d981c8956a69182885260058152818820868952815260ff828920541661046c575b6103d686611b61565b82885260058152818820878952815260ff828920541615610421575b505050611ac2565b7f333c7678baf16017cf31e1d2f90143a62aab01a67a0807f6836a4304ceabb5558380a380f35b8288526005815281882090878952528620600160ff198254161790558433917f2f8788117e7eff1d82e926ec794901d17c78024a50270940304540a733656f0d8880a48580806103f2565b828852600581528188208689528152818820805460ff191690553386847ff6391f5c32d9c69d2a47ea670b442974b53935d1edc7fd64eb21e047a839171b8b80a46103cd565b82606492519162461bcd60e51b8352820152601560248201527450424f583a20496e76616c696420666163746f727960581b6044820152fd5b8380fd5b8280fd5b5082346104ef57806003193601126104ef5761052e91356105296001610517611715565b93838752600560205286200154611964565b611bfc565b80f35b8284346102c157816003193601126102c157602090517f9f2df0fed2c77648de5860a4cc508cd0818c85b8b8a1ab4ceeef8d981c8956a68152f35b50346102c15761057b3661172b565b90927f9f2df0fed2c77648de5860a4cc508cd0818c85b8b8a1ab4ceeef8d981c8956a69081875260209160058352888820338952835260ff89892054161561070857506105c661211b565b6001600160a01b03169485156106c7576105e18415156120a1565b600254906a52b7d2dcc80cd2e40000006105fb8684611c2d565b1161068457509685877fddf252ad1be2c89b69c2b068fc378daa952ba7f163c4a11628f55a4df523b3ef6106799594610657887f9d89e36eadf856db0ad9ffb5a569e07f95634dddd9501141ecf04820484ad0dc9b9c9d611c2d565b6002558383528281528483208881540190558451888152a351938493846120ed565b0390a2600160065580f35b885162461bcd60e51b8152908101839052601960248201527f50424f583a204d617820737570706c79206578636565646564000000000000006044820152606490fd5b60649188519162461bcd60e51b8352820152601760248201527f50424f583a20496e76616c696420726563697069656e740000000000000000006044820152fd5b8683898b9361071633611f92565b85519161072283611a6e565b604283528483019360603686378351156108b857603085538351906001918210156108a55790607860218601536041915b81831161083a575050506107f8576107f49386936107e0936107d16048946107a89a519a8576020b1b1b2b9b9a1b7b73a3937b61d1030b1b1b7bab73a1604d1b8d9788015282519283916037890191016116ab565b8401917001034b99036b4b9b9b4b733903937b6329607d1b6037840152518093868401906116ab565b01036028810187520185611aa0565b5162461bcd60e51b815292839283016116ce565b0390fd5b50505080606493519262461bcd60e51b845283015260248201527f537472696e67733a20686578206c656e67746820696e73756666696369656e746044820152fd5b909192600f81166010811015610892576f181899199a1a9b1b9c1cb0b131b232b360811b901a61086a8588611f6b565b53881c92801561087f57600019019190610753565b634e487b7160e01b825260118952602482fd5b634e487b7160e01b835260328a52602483fd5b634e487b7160e01b815260328852602490fd5b634e487b7160e01b815260328752602490fd5b8284346102c157816003193601126102c15760075490516001600160a01b039091168152602090f35b8284346102c157816003193601126102c157602090600b549051908152f35b8284346102c157816003193601126102c15760a09060025490600954600a5490600b549280519485526a52b7d2dcc80cd2e4000000602086015284015260608301526080820152f35b5090346109af5760203660031901126109af5750356109ab61271061098360095484611f58565b049161098f8382612171565b9351938493846040919493926060820195825260208201520152565b0390f35b80fd5b8284346102c157806003193601126102c1576020906109dc6109d26116fa565b6024359033611c50565b5160018152f35b8284346102c157806003193601126102c15760209181906001600160a01b03610a0a6116fa565b168152600c84528181206024358252845220549051908152f35b5090346109af57826003193601126109af57610a3e6116fa565b918360243592338152600160205281812060018060a01b0386168252602052205490828210610a77576020856109dc8585038733611dbe565b608490602086519162461bcd60e51b8352820152602560248201527f45524332303a2064656372656173656420616c6c6f77616e63652062656c6f77604482015264207a65726f60d81b6064820152fd5b8284346102c157816003193601126102c15751908152602090f35b8284346102c15760203660031901126102c15760209181906001600160a01b03610b0b6116fa565b168152600d845220549051908152f35b5091346102c157816003193601126102c157805191809380549160019083821c92828516948515610c10575b6020958686108114610bfd57858952908115610bd95750600114610b81575b6109ab8787610b77828c0383611aa0565b51918291826116ce565b81529295507f8a35acfbc15ff81a39ae7d344fd709f28e8600b4aa8c65c6b64bfe7fe36bd19b5b828410610bc657505050826109ab94610b7792820101943880610b66565b8054868501880152928601928101610ba8565b60ff19168887015250505050151560051b8301019250610b77826109ab3880610b66565b634e487b7160e01b845260228352602484fd5b93607f1693610b47565b508290346104ef57816003193601126104ef578160209360ff92610c3c611715565b90358252600586528282206001600160a01b039091168252855220549151911615158152f35b8284346102c157816003193601126102c15760085490516001600160a01b039091168152602090f35b8284346102c157816003193601126102c1576020906009549051908152f35b8284346102c1573660031901126109af5761052e610cc66116fa565b60243590610cd261178d565b610271823383611ec0565b8284346102c157816003193601126102c157602090516000805160206123a68339815191528152f35b8284346102c15760203660031901126102c15760209181906001600160a01b03610d2e6116fa565b16815280845220549051908152f35b8284346102c157806003193601126102c157602090610d66610d5d6116fa565b60243590612310565b90519015158152f35b5082346104ef57806003193601126104ef57813591610d8c611715565b610d9461211b565b600a548410610f9a576001600160a01b03168015610f5757620151804204338652602092600d84528185882081815403610f3e575b5050338752600c84528487208288528452610de78686892054611c2d565b600b5410610eed575091839291601494927fdd7a0416675888f3e31cec0248ab0c1232d23121f6c7a201f3f1c92b38417b40610e9489612710610e2c6009548c611f58565b0493610e4d8b89610e3d8883612171565b94338152808b522054101561217e565b610e578b336121ca565b338c52600c8752878c20908c528652868b20610e748b8254611c2d565b905586518a81526020810194909452604084015233929081906060820190565b0390a38151948552840152820152733634b8bab4b234ba3cafb1b7b73b32b939b4b7b760611b60608201527ffad31924d655455395c87544c8aa1ffdb5a7505a22a3c2e03f28003b6556a75f60803392a2600160065580f35b845162461bcd60e51b8152908101849052602560248201527f50424f583a204461696c7920636f6e76657273696f6e206c696d697420657863604482015264195959195960da1b6064820152608490fd5b55600c8452848720828852845286858120558188610dc9565b506020606492519162461bcd60e51b8352820152601b60248201527f50424f583a20496e76616c6964206261636b696e6720617373657400000000006044820152fd5b506020606492519162461bcd60e51b8352820152601e60248201527f50424f583a2042656c6f77206d696e696d756d20636f6e76657273696f6e00006044820152fd5b8284346102c157816003193601126102c157602090600a549051908152f35b508290346104ef57816003193601126104ef57803590602435926000805160206123a68339815191528552600560205280852033865260205261104460ff82872054166122d1565b82156110a0578284111561105d575050600a55600b5580f35b906020606492519162461bcd60e51b8352820152601760248201527f50424f583a20496e76616c6964206d6178206461696c790000000000000000006044820152fd5b906020606492519162461bcd60e51b8352820152601c60248201527f50424f583a20496e76616c6964206d696e20636f6e76657273696f6e000000006044820152fd5b50346102c15760203660031901126102c15761052e9061110161178d565b35336121ca565b508290346104ef5760203660031901126104ef578035906000805160206123a68339815191528452600560205282842033855260205261114d60ff84862054166122d1565b6101f482116111905750907fa5a6ad6f3528204b2c97451b1f5df06191d8eb8fe5021c905e1778b888e9308891600954908060095582519182526020820152a180f35b606490602084519162461bcd60e51b835282015260126024820152710a0849eb074408ccaca40e8dede40d0d2ced60731b6044820152fd5b8284346102c157806003193601126102c1576109dc6020926112116111eb6116fa565b338352600186528483206001600160a01b03821684528652918490205460243590611c2d565b9033611dbe565b50346102c157826003193601126102c157611231611715565b90336001600160a01b0383160361124d579061052e9135611bfc565b608490602085519162461bcd60e51b8352820152602f60248201527f416363657373436f6e74726f6c3a2063616e206f6e6c792072656e6f756e636560448201526e103937b632b9903337b91039b2b63360891b6064820152fd5b508290346104ef5760203660031901126104ef576112c46116fa565b916000805160206123a6833981519152845260056020528084203385526020526112f360ff82862054166122d1565b6001600160a01b0383161561130c578361052e84611ac2565b906020606492519162461bcd60e51b83528201526014602482015273282127ac1d1024b73b30b634b210313ab93732b960611b6044820152fd5b8284346102c157816003193601126102c157602090516a52b7d2dcc80cd2e40000008152f35b8284346102c157816003193601126102c1576020905160128152f35b508290346104ef57816003193601126104ef5735906113a5611715565b9082845260056020526113bd60018286200154611964565b828452600560209081528185206001600160a01b039093168086529290528084205460ff16156113eb578380f35b82845260056020528084208285526020528320600160ff1982541617905533917f2f8788117e7eff1d82e926ec794901d17c78024a50270940304540a733656f0d8480a48180808380f35b8284346102c157816003193601126102c157602090516000805160206123868339815191528152f35b508290346104ef5760203660031901126104ef5781602093600192358152600585522001549051908152f35b8284346102c15760603660031901126102c1576020906109dc6114ac6116fa565b6114b4611715565b604435916114c3833383611ec0565b611c50565b8284346102c157816003193601126102c1576020906002549051908152f35b8284346102c157806003193601126102c1576020906109dc6115076116fa565b6024359033611dbe565b8284346102c15760203660031901126102c15761052e9061155e60ff6115356116fa565b926000805160206123a683398151915286526005602052808620338752602052852054166122d1565b611b61565b5082346104ef57826003193601126104ef57805191836003549060019082821c92828116801561164d575b602095868610821461163a575084885290811561161857506001146115bf575b6109ab8686610b77828b0383611aa0565b929550600383527fc2575a0e9e593c00f959f8c92f12db2869c3395a3b0502d05e2516446f71f85b5b82841061160557505050826109ab94610b779282010194866115ae565b80548685018801529286019281016115e8565b60ff191687860152505050151560051b8301019250610b77826109ab866115ae565b634e487b7160e01b845260229052602483fd5b93607f169361158e565b919050346104ef5760203660031901126104ef573563ffffffff60e01b81168091036104ef5760209250637965db0b60e01b811490811561169a575b5015158152f35b6301ffc9a760e01b14905083611693565b60005b8381106116be5750506000910152565b81810151838201526020016116ae565b604091602082526116ee81518092816020860152602086860191016116ab565b601f01601f1916010190565b600435906001600160a01b038216820361171057565b600080fd5b602435906001600160a01b038216820361171057565b906060600319830112611710576004356001600160a01b038116810361171057916024359160443567ffffffffffffffff9283821161171057806023830112156117105781600401359384116117105760248483010111611710576024019190565b3360009081527f847f481f687befb06ed3511f1a8dcef57e83007c0147ae5047583d705617093760209081526040808320549092906000805160206123868339815191529060ff16156117e05750505050565b6117e933611f92565b8451916117f583611a6e565b6042835284830193606036863783511561195057603085538351906001918210156119505790607860218601536041915b8183116118e2575050506118a0576107a893859361188a9361187b6048946107f49951988576020b1b1b2b9b9a1b7b73a3937b61d1030b1b1b7bab73a1604d1b8b9788015282519283916037890191016116ab565b01036028810185520183611aa0565b5162461bcd60e51b8152918291600483016116ce565b60648486519062461bcd60e51b825280600483015260248201527f537472696e67733a20686578206c656e67746820696e73756666696369656e746044820152fd5b909192600f8116601081101561193c576f181899199a1a9b1b9c1cb0b131b232b360811b901a6119128588611f6b565b5360041c92801561192857600019019190611826565b634e487b7160e01b82526011600452602482fd5b634e487b7160e01b83526032600452602483fd5b634e487b7160e01b81526032600452602490fd5b600081815260209060058252604092838220338352835260ff84832054161561198d5750505050565b61199633611f92565b8451916119a283611a6e565b6042835284830193606036863783511561195057603085538351906001918210156119505790607860218601536041915b818311611a28575050506118a0576107a893859361188a9361187b6048946107f49951988576020b1b1b2b9b9a1b7b73a3937b61d1030b1b1b7bab73a1604d1b8b9788015282519283916037890191016116ab565b909192600f8116601081101561193c576f181899199a1a9b1b9c1cb0b131b232b360811b901a611a588588611f6b565b5360041c928015611928576000190191906119d3565b6080810190811067ffffffffffffffff821117611a8a57604052565b634e487b7160e01b600052604160045260246000fd5b90601f8019910116810190811067ffffffffffffffff821117611a8a57604052565b6001600160a01b031660008181527f847f481f687befb06ed3511f1a8dcef57e83007c0147ae5047583d705617093760205260408120549091906000805160206123868339815191529060ff1615611b1957505050565b80835260056020526040832082845260205260408320600160ff198254161790557f2f8788117e7eff1d82e926ec794901d17c78024a50270940304540a733656f0d339380a4565b6001600160a01b031660008181527f847f481f687befb06ed3511f1a8dcef57e83007c0147ae5047583d705617093760205260408120549091906000805160206123868339815191529060ff16611bb757505050565b8083526005602052604083208284526020526040832060ff1981541690557ff6391f5c32d9c69d2a47ea670b442974b53935d1edc7fd64eb21e047a839171b339380a4565b906000918083526005602052604083209160018060a01b03169182845260205260ff604084205416611bb757505050565b91908201809211611c3a57565b634e487b7160e01b600052601160045260246000fd5b6001600160a01b03908116918215611d6b5716918215611d1a57600082815280602052604081205491808310611cc657604082827fddf252ad1be2c89b69c2b068fc378daa952ba7f163c4a11628f55a4df523b3ef958760209652828652038282205586815220818154019055604051908152a3565b60405162461bcd60e51b815260206004820152602660248201527f45524332303a207472616e7366657220616d6f756e7420657863656564732062604482015265616c616e636560d01b6064820152608490fd5b60405162461bcd60e51b815260206004820152602360248201527f45524332303a207472616e7366657220746f20746865207a65726f206164647260448201526265737360e81b6064820152608490fd5b60405162461bcd60e51b815260206004820152602560248201527f45524332303a207472616e736665722066726f6d20746865207a65726f206164604482015264647265737360d81b6064820152608490fd5b6001600160a01b03908116918215611e6f5716918215611e1f5760207f8c5be1e5ebec7d5bd14f71427d1e84f3dd0314c0f7b2291e5b200ac8c7c3b925918360005260018252604060002085600052825280604060002055604051908152a3565b60405162461bcd60e51b815260206004820152602260248201527f45524332303a20617070726f766520746f20746865207a65726f206164647265604482015261737360f01b6064820152608490fd5b60405162461bcd60e51b8152602060048201526024808201527f45524332303a20617070726f76652066726f6d20746865207a65726f206164646044820152637265737360e01b6064820152608490fd5b9060018060a01b0380831660005260016020526040600020908216600052602052604060002054926000198403611ef8575b50505050565b808410611f1357611f0a930391611dbe565b38808080611ef2565b60405162461bcd60e51b815260206004820152601d60248201527f45524332303a20696e73756666696369656e7420616c6c6f77616e63650000006044820152606490fd5b81810292918115918404141715611c3a57565b908151811015611f7c570160200190565b634e487b7160e01b600052603260045260246000fd5b604051906060820182811067ffffffffffffffff821117611a8a57604052602a8252602082016040368237825115611f7c57603090538151600190811015611f7c57607860218401536029905b808211612033575050611fef5790565b606460405162461bcd60e51b815260206004820152602060248201527f537472696e67733a20686578206c656e67746820696e73756666696369656e746044820152fd5b9091600f8116601081101561208c576f181899199a1a9b1b9c1cb0b131b232b360811b901a6120628486611f6b565b5360041c918015612077576000190190611fdf565b60246000634e487b7160e01b81526011600452fd5b60246000634e487b7160e01b81526032600452fd5b156120a857565b60405162461bcd60e51b815260206004820152601d60248201527f50424f583a20416d6f756e74206d75737420626520706f7369746976650000006044820152606490fd5b91926060938192845260406020850152816040850152848401376000828201840152601f01601f1916010190565b60026006541461212c576002600655565b60405162461bcd60e51b815260206004820152601f60248201527f5265656e7472616e637947756172643a207265656e7472616e742063616c6c006044820152606490fd5b91908203918211611c3a57565b1561218557565b60405162461bcd60e51b815260206004820152601a60248201527f50424f583a20496e73756666696369656e742062616c616e63650000000000006044820152606490fd5b6001600160a01b031680156122825760009181835282602052604083205481811061223257817fddf252ad1be2c89b69c2b068fc378daa952ba7f163c4a11628f55a4df523b3ef926020928587528684520360408620558060025403600255604051908152a3565b60405162461bcd60e51b815260206004820152602260248201527f45524332303a206275726e20616d6f756e7420657863656564732062616c616e604482015261636560f01b6064820152608490fd5b60405162461bcd60e51b815260206004820152602160248201527f45524332303a206275726e2066726f6d20746865207a65726f206164647265736044820152607360f81b6064820152608490fd5b156122d857565b60405162461bcd60e51b815260206004820152601060248201526f282127ac1d1027b7363c9030b236b4b760811b6044820152606490fd5b90600a54811061237e5760009160018060a01b03168252816020528060408320541061237a5761236c91620151804204600d602052806040832054146000146123745790604091600c6020528282209082526020522054611c2d565b600b54101590565b50611c2d565b5090565b505060009056fe3c11d16cbaffd01df69ce1c404f6340ee057498f5f00246190ea54220576a848a49807205ce4d355092ef5a8a18f56e8913cf4a201fbe287825b095693c21775a26469706673582212207c628b16f5a02876ee0e9b7e5af129fb99b760ac8b6e83c2ff23db36725ef21264736f6c634300081400332f8788117e7eff1d82e926ec794901d17c78024a50270940304540a733656f0d",
  "linkReferences": {},
  "deployedLinkReferences": {}
}