{
  "_format": "hh-sol-artifact-1",
  "contractName": "PBOXToken",
  "sourceName": "contracts/core/PBOXToken.sol",
  "abi": [
    {
      "inputs": [
        {
          "internalType": "address",
          "name": "_factory",
          "type": "address"
        },
        {
          "internalType": "address",
          "name": "_rootTreasury",
          "type": "address"
        },
        {
          "internalType": "address",
          "name": "admin",
          "type": "address"
        }
      ],
      "stateMutability": "nonpayable",
      "type": "constructor"
    },
    {
      "anonymous": false,
      "inputs": [
        {
          "indexed": true,
          "internalType": "address",
          "name": "owner",
          "type": "address"
        },
        {
          "indexed": true,
          "internalType": "address",
          "name": "spender",
          "type": "address"
        },
        {
          "indexed": false,
          "internalType": "uint256",
          "name": "value",
          "type": "uint256"
        }
      ],
      "name": "Approval",
      "type": "event"
    },
    {
      "anonymous": false,
      "inputs": [
        {
          "indexed": true,
          "internalType": "address",
          "name": "user",
          "type": "address"
        },
        {
          "indexed": false,
          "internalType": "uint256",
          "name": "pboxAmount",
          "type": "uint256"
        },
        {
          "indexed": false,
          "internalType": "uint256",
          "name": "feeAmount",
          "type": "uint256"
        },
        {
          "indexed": false,
          "internalType": "uint256",
          "name": "liquidityAmount",
          "type": "uint256"
        },
        {
          "indexed": true,
          "internalType": "address",
          "name": "backingAsset",
          "type": "address"
        }
      ],
      "name": "ConversionExecuted",
      "type": "event"
    },
    {
      "anonymous": false,
      "inputs": [
        {
          "indexed": false,
          "internalType": "uint256",
          "name": "oldFee",
          "type": "uint256"
        },
        {
          "indexed": false,
          "internalType": "uint256",
          "name": "newFee",
          "type": "uint256"
        }
      ],
      "name": "ConversionFeeUpdated",
      "type": "event"
    },
    {
      "anonymous": false,
      "inputs": [
        {
          "indexed": false,
          "internalType": "uint256",
          "name": "newMinConversion",
          "type": "uint256"
        },
        {
          "indexed": false,
          "internalType": "uint256",
          "name": "newMaxDaily",
          "type": "uint256"
        }
      ],
      "name": "ConversionLimitsUpdated",
      "type": "event"
    },
    {
      "anonymous": false,
      "inputs": [
        {
          "indexed": true,
          "internalType": "address",
          "name": "to",
          "type": "address"
        },
        {
          "indexed": false,
          "internalType": "uint256",
          "name": "amount",
          "type": "uint256"
        }
      ],
      "name": "EmergencyWithdraw",
      "type": "event"
    },
    {
      "anonymous": false,
      "inputs": [
        {
          "indexed": true,
          "internalType": "address",
          "name": "oldFactory",
          "type": "address"
        },
        {
          "indexed": true,
          "internalType": "address",
          "name": "newFactory",
          "type": "address"
        }
      ],
      "name": "FactoryUpdated",
      "type": "event"
    },
    {
      "anonymous": false,
      "inputs": [
        {
          "indexed": false,
          "internalType": "address",
          "name": "account",
          "type": "address"
        }
      ],
      "name": "Paused",
      "type": "event"
    },
    {
      "anonymous": false,
      "inputs": [
        {
          "indexed": true,
          "internalType": "bytes32",
          "name": "role",
          "type": "bytes32"
        },
        {
          "indexed": true,
          "internalType": "bytes32",
          "name": "previousAdminRole",
          "type": "bytes32"
        },
        {
          "indexed": true,
          "internalType": "bytes32",
          "name": "newAdminRole",
          "type": "bytes32"
        }
      ],
      "name": "RoleAdminChanged",
      "type": "event"
    },
    {
      "anonymous": false,
      "inputs": [
        {
          "indexed": true,
          "internalType": "bytes32",
          "name": "role",
          "type": "bytes32"
        },
        {
          "indexed": true,
          "internalType": "address",
          "name": "account",
          "type": "address"
        },
        {
          "indexed": true,
          "internalType": "address",
          "name": "sender",
          "type": "address"
        }
      ],
      "name": "RoleGranted",
      "type": "event"
    },
    {
      "anonymous": false,
      "inputs": [
        {
          "indexed": true,
          "internalType": "bytes32",
          "name": "role",
          "type": "bytes32"
        },
        {
          "indexed": true,
          "internalType": "address",
          "name": "account",
          "type": "address"
        },
        {
          "indexed": true,
          "internalType": "address",
          "name": "sender",
          "type": "address"
        }
      ],
      "name": "RoleRevoked",
      "type": "event"
    },
    {
      "anonymous": false,
      "inputs": [
        {
          "indexed": true,
          "internalType": "address",
          "name": "from",
          "type": "address"
        },
        {
          "indexed": false,
          "internalType": "uint256",
          "name": "amount",
          "type": "uint256"
        },
        {
          "indexed": false,
          "internalType": "string",
          "name": "reason",
          "type": "string"
        }
      ],
      "name": "TokensBurned",
      "type": "event"
    },
    {
      "anonymous": false,
      "inputs": [
        {
          "indexed": true,
          "internalType": "address",
          "name": "to",
          "type": "address"
        },
        {
          "indexed": false,
          "internalType": "uint256",
          "name": "amount",
          "type": "uint256"
        },
        {
          "indexed": false,
          "internalType": "enum PBOXToken.MintReason",
          "name": "reason",
          "type": "uint8"
        }
      ],
      "name": "TokensMinted",
      "type": "event"
    },
    {
      "anonymous": false,
      "inputs": [
        {
          "indexed": true,
          "internalType": "address",
          "name": "from",
          "type": "address"
        },
        {
          "indexed": true,
          "internalType": "address",
          "name": "to",
          "type": "address"
        },
        {
          "indexed": false,
          "internalType": "uint256",
          "name": "value",
          "type": "uint256"
        }
      ],
      "name": "Transfer",
      "type": "event"
    },
    {
      "anonymous": false,
      "inputs": [
        {
          "indexed": false,
          "internalType": "address",
          "name": "account",
          "type": "address"
        }
      ],
      "name": "Unpaused",
      "type": "event"
    },
    {
      "inputs": [],
      "name": "ADMIN_ROLE",
      "outputs": [
        {
          "internalType": "bytes32",
          "name": "",
          "type": "bytes32"
        }
      ],
      "stateMutability": "view",
      "type": "function"
    },
    {
      "inputs": [],
      "name": "BURNER_ROLE",
      "outputs": [
        {
          "internalType": "bytes32",
          "name": "",
          "type": "bytes32"
        }
      ],
      "stateMutability": "view",
      "type": "function"
    },
    {
      "inputs": [],
      "name": "DEFAULT_ADMIN_ROLE",
      "outputs": [
        {
          "internalType": "bytes32",
          "name": "",
          "type": "bytes32"
        }
      ],
      "stateMutability": "view",
      "type": "function"
    },
    {
      "inputs": [],
      "name": "MAX_TOTAL_SUPPLY",
      "outputs": [
        {
          "internalType": "uint256",
          "name": "",
          "type": "uint256"
        }
      ],
      "stateMutability": "view",
      "type": "function"
    },
    {
      "inputs": [],
      "name": "MINTER_ROLE",
      "outputs": [
        {
          "internalType": "bytes32",
          "name": "",
          "type": "bytes32"
        }
      ],
      "stateMutability": "view",
      "type": "function"
    },
    {
      "inputs": [
        {
          "internalType": "address",
          "name": "owner",
          "type": "address"
        },
        {
          "internalType": "address",
          "name": "spender",
          "type": "address"
        }
      ],
      "name": "allowance",
      "outputs": [
        {
          "internalType": "uint256",
          "name": "",
          "type": "uint256"
        }
      ],
      "stateMutability": "view",
      "type": "function"
    },
    {
      "inputs": [
        {
          "internalType": "address",
          "name": "spender",
          "type": "address"
        },
        {
          "internalType": "uint256",
          "name": "amount",
          "type": "uint256"
        }
      ],
      "name": "approve",
      "outputs": [
        {
          "internalType": "bool",
          "name": "",
          "type": "bool"
        }
      ],
      "stateMutability": "nonpayable",
      "type": "function"
    },
    {
      "inputs": [
        {
          "internalType": "address",
          "name": "burner",
          "type": "address"
        }
      ],
      "name": "authorizeBurner",
      "outputs": [],
      "stateMutability": "nonpayable",
      "type": "function"
    },
    {
      "inputs": [
        {
          "internalType": "address",
          "name": "account",
          "type": "address"
        }
      ],
      "name": "balanceOf",
      "outputs": [
        {
          "internalType": "uint256",
          "name": "",
          "type": "uint256"
        }
      ],
      "stateMutability": "view",
      "type": "function"
    },
    {
      "inputs": [
        {
          "internalType": "uint256",
          "name": "amount",
          "type": "uint256"
        }
      ],
      "name": "burn",
      "outputs": [],
      "stateMutability": "nonpayable",
      "type": "function"
    },
    {
      "inputs": [
        {
          "internalType": "address",
          "name": "account",
          "type": "address"
        },
        {
          "internalType": "uint256",
          "name": "amount",
          "type": "uint256"
        }
      ],
      "name": "burnFrom",
      "outputs": [],
      "stateMutability": "nonpayable",
      "type": "function"
    },
    {
      "inputs": [
        {
          "internalType": "address",
          "name": "from",
          "type": "address"
        },
        {
          "internalType": "uint256",
          "name": "amount",
          "type": "uint256"
        },
        {
          "internalType": "string",
          "name": "reason",
          "type": "string"
        }
      ],
      "name": "burnFromAuthorized",
      "outputs": [],
      "stateMutability": "nonpayable",
      "type": "function"
    },
    {
      "inputs": [
        {
          "internalType": "uint256",
          "name": "amount",
          "type": "uint256"
        }
      ],
      "name": "calculateConversion",
      "outputs": [
        {
          "internalType": "uint256",
          "name": "feeAmount",
          "type": "uint256"
        },
        {
          "internalType": "uint256",
          "name": "netAmount",
          "type": "uint256"
        },
        {
          "internalType": "uint256",
          "name": "totalCost",
          "type": "uint256"
        }
      ],
      "stateMutability": "view",
      "type": "function"
    },
    {
      "inputs": [
        {
          "internalType": "address",
          "name": "user",
          "type": "address"
        },
        {
          "internalType": "uint256",
          "name": "amount",
          "type": "uint256"
        }
      ],
      "name": "canConvert",
      "outputs": [
        {
          "internalType": "bool",
          "name": "",
          "type": "bool"
        }
      ],
      "stateMutability": "view",
      "type": "function"
    },
    {
      "inputs": [],
      "name": "conversionFeeBps",
      "outputs": [
        {
          "internalType": "uint256",
          "name": "",
          "type": "uint256"
        }
      ],
      "stateMutability": "view",
      "type": "function"
    },
    {
      "inputs": [
        {
          "internalType": "uint256",
          "name": "amount",
          "type": "uint256"
        },
        {
          "internalType": "address",
          "name": "backingAsset",
          "type": "address"
        }
      ],
      "name": "convertToLiquidity",
      "outputs": [],
      "stateMutability": "nonpayable",
      "type": "function"
    },
    {
      "inputs": [
        {
          "internalType": "address",
          "name": "",
          "type": "address"
        },
        {
          "internalType": "uint256",
          "name": "",
          "type": "uint256"
        }
      ],
      "name": "dailyConversions",
      "outputs": [
        {
          "internalType": "uint256",
          "name": "",
          "type": "uint256"
        }
      ],
      "stateMutability": "view",
      "type": "function"
    },
    {
      "inputs": [],
      "name": "decimals",
      "outputs": [
        {
          "internalType": "uint8",
          "name": "",
          "type": "uint8"
        }
      ],
      "stateMutability": "view",
      "type": "function"
    },
    {
      "inputs": [
        {
          "internalType": "address",
          "name": "spender",
          "type": "address"
        },
        {
          "internalType": "uint256",
          "name": "subtractedValue",
          "type": "uint256"
        }
      ],
      "name": "decreaseAllowance",
      "outputs": [
        {
          "internalType": "bool",
          "name": "",
          "type": "bool"
        }
      ],
      "stateMutability": "nonpayable",
      "type": "function"
    },
    {
      "inputs": [],
      "name": "factory",
      "outputs": [
        {
          "internalType": "address",
          "name": "",
          "type": "address"
        }
      ],
      "stateMutability": "view",
      "type": "function"
    },
    {
      "inputs": [
        {
          "internalType": "bytes32",
          "name": "role",
          "type": "bytes32"
        }
      ],
      "name": "getRoleAdmin",
      "outputs": [
        {
          "internalType": "bytes32",
          "name": "",
          "type": "bytes32"
        }
      ],
      "stateMutability": "view",
      "type": "function"
    },
    {
      "inputs": [],
      "name": "getTokenInfo",
      "outputs": [
        {
          "internalType": "uint256",
          "name": "totalSupply_",
          "type": "uint256"
        },
        {
          "internalType": "uint256",
          "name": "maxSupply_",
          "type": "uint256"
        },
        {
          "internalType": "uint256",
          "name": "conversionFee_",
          "type": "uint256"
        },
        {
          "internalType": "uint256",
          "name": "minConversion_",
          "type": "uint256"
        },
        {
          "internalType": "uint256",
          "name": "maxDailyConversion_",
          "type": "uint256"
        }
      ],
      "stateMutability": "view",
      "type": "function"
    },
    {
      "inputs": [
        {
          "internalType": "bytes32",
          "name": "role",
          "type": "bytes32"
        },
        {
          "internalType": "address",
          "name": "account",
          "type": "address"
        }
      ],
      "name": "grantRole",
      "outputs": [],
      "stateMutability": "nonpayable",
      "type": "function"
    },
    {
      "inputs": [
        {
          "internalType": "bytes32",
          "name": "role",
          "type": "bytes32"
        },
        {
          "internalType": "address",
          "name": "account",
          "type": "address"
        }
      ],
      "name": "hasRole",
      "outputs": [
        {
          "internalType": "bool",
          "name": "",
          "type": "bool"
        }
      ],
      "stateMutability": "view",
      "type": "function"
    },
    {
      "inputs": [
        {
          "internalType": "address",
          "name": "spender",
          "type": "address"
        },
        {
          "internalType": "uint256",
          "name": "addedValue",
          "type": "uint256"
        }
      ],
      "name": "increaseAllowance",
      "outputs": [
        {
          "internalType": "bool",
          "name": "",
          "type": "bool"
        }
      ],
      "stateMutability": "nonpayable",
      "type": "function"
    },
    {
      "inputs": [
        {
          "internalType": "address",
          "name": "",
          "type": "address"
        }
      ],
      "name": "lastConversionDay",
      "outputs": [
        {
          "internalType": "uint256",
          "name": "",
          "type": "uint256"
        }
      ],
      "stateMutability": "view",
      "type": "function"
    },
    {
      "inputs": [],
      "name": "maxDailyConversion",
      "outputs": [
        {
          "internalType": "uint256",
          "name": "",
          "type": "uint256"
        }
      ],
      "stateMutability": "view",
      "type": "function"
    },
    {
      "inputs": [],
      "name": "minConversionAmount",
      "outputs": [
        {
          "internalType": "uint256",
          "name": "",
          "type": "uint256"
        }
      ],
      "stateMutability": "view",
      "type": "function"
    },
    {
      "inputs": [
        {
          "internalType": "address",
          "name": "to",
          "type": "address"
        },
        {
          "internalType": "uint256",
          "name": "amount",
          "type": "uint256"
        },
        {
          "internalType": "enum PBOXToken.MintReason",
          "name": "reason",
          "type": "uint8"
        }
      ],
      "name": "mint",
      "outputs": [],
      "stateMutability": "nonpayable",
      "type": "function"
    },
    {
      "inputs": [],
      "name": "name",
      "outputs": [
        {
          "internalType": "string",
          "name": "",
          "type": "string"
        }
      ],
      "stateMutability": "view",
      "type": "function"
    },
    {
      "inputs": [],
      "name": "pause",
      "outputs": [],
      "stateMutability": "nonpayable",
      "type": "function"
    },
    {
      "inputs": [],
      "name": "paused",
      "outputs": [
        {
          "internalType": "bool",
          "name": "",
          "type": "bool"
        }
      ],
      "stateMutability": "view",
      "type": "function"
    },
    {
      "inputs": [
        {
          "internalType": "bytes32",
          "name": "role",
          "type": "bytes32"
        },
        {
          "internalType": "address",
          "name": "account",
          "type": "address"
        }
      ],
      "name": "renounceRole",
      "outputs": [],
      "stateMutability": "nonpayable",
      "type": "function"
    },
    {
      "inputs": [
        {
          "internalType": "address",
          "name": "burner",
          "type": "address"
        }
      ],
      "name": "revokeBurner",
      "outputs": [],
      "stateMutability": "nonpayable",
      "type": "function"
    },
    {
      "inputs": [
        {
          "internalType": "bytes32",
          "name": "role",
          "type": "bytes32"
        },
        {
          "internalType": "address",
          "name": "account",
          "type": "address"
        }
      ],
      "name": "revokeRole",
      "outputs": [],
      "stateMutability": "nonpayable",
      "type": "function"
    },
    {
      "inputs": [],
      "name": "rootTreasury",
      "outputs": [
        {
          "internalType": "address",
          "name": "",
          "type": "address"
        }
      ],
      "stateMutability": "view",
      "type": "function"
    },
    {
      "inputs": [
        {
          "internalType": "bytes4",
          "name": "interfaceId",
          "type": "bytes4"
        }
      ],
      "name": "supportsInterface",
      "outputs": [
        {
          "internalType": "bool",
          "name": "",
          "type": "bool"
        }
      ],
      "stateMutability": "view",
      "type": "function"
    },
    {
      "inputs": [],
      "name": "symbol",
      "outputs": [
        {
          "internalType": "string",
          "name": "",
          "type": "string"
        }
      ],
      "stateMutability": "view",
      "type": "function"
    },
    {
      "inputs": [],
      "name": "totalSupply",
      "outputs": [
        {
          "internalType": "uint256",
          "name": "",
          "type": "uint256"
        }
      ],
      "stateMutability": "view",
      "type": "function"
    },
    {
      "inputs": [
        {
          "internalType": "address",
          "name": "to",
          "type": "address"
        },
        {
          "internalType": "uint256",
          "name": "amount",
          "type": "uint256"
        }
      ],
      "name": "transfer",
      "outputs": [
        {
          "internalType": "bool",
          "name": "",
          "type": "bool"
        }
      ],
      "stateMutability": "nonpayable",
      "type": "function"
    },
    {
      "inputs": [
        {
          "internalType": "address",
          "name": "from",
          "type": "address"
        },
        {
          "internalType": "address",
          "name": "to",
          "type": "address"
        },
        {
          "internalType": "uint256",
          "name": "amount",
          "type": "uint256"
        }
      ],
      "name": "transferFrom",
      "outputs": [
        {
          "internalType": "bool",
          "name": "",
          "type": "bool"
        }
      ],
      "stateMutability": "nonpayable",
      "type": "function"
    },
    {
      "inputs": [],
      "name": "unpause",
      "outputs": [],
      "stateMutability": "nonpayable",
      "type": "function"
    },
    {
      "inputs": [
        {
          "internalType": "uint256",
          "name": "newFeeBps",
          "type": "uint256"
        }
      ],
      "name": "updateConversionFee",
      "outputs": [],
      "stateMutability": "nonpayable",
      "type": "function"
    },
    {
      "inputs": [
        {
          "internalType": "uint256",
          "name": "newMinConversion",
          "type": "uint256"
        },
        {
          "internalType": "uint256",
          "name": "newMaxDaily",
          "type": "uint256"
        }
      ],
      "name": "updateConversionLimits",
      "outputs": [],
      "stateMutability": "nonpayable",
      "type": "function"
    },
    {
      "inputs": [
        {
          "internalType": "address",
          "name": "newFactory",
          "type": "address"
        }
      ],
      "name": "updateFactory",
      "outputs": [],
      "stateMutability": "nonpayable",
      "type": "function"
    },
    {
      "inputs": [
        {
          "internalType": "address",
          "name": "to",
          "type": "address"
        }
      ],
      "name": "withdrawETH",
      "outputs": [],
      "stateMutability": "nonpayable",
      "type": "function"
    },
    {
      "stateMutability": "payable",
      "type": "receive"
    }
  ],
  "bytecode": "0x608034620006b157601f62002ea038819003828101601f199081168501949290916001600160401b039182871185881017620006b6578160609286926040998a52833981010312620006b1576200005683620006ec565b9060209162000074876200006c858801620006ec565b9601620006ec565b916200007f620006cc565b94601386527f50616e646f7261277320424f5820546f6b656e0000000000000000000000000085870152620000b3620006cc565b97600498898152630a0849eb60e31b87820152875192848411620005ac5760039384549960019a8b81811c91168015620006a6575b8b82101462000691579081868493116200063b575b508a90868311600114620005cd57600092620005c1575b505060001982871b1c1916908a1b1784555b8151948511620005ac578a548981811c91168015620005a1575b898210146200058c5790818487969594931162000530575b5088928511600114620004c85750600093620004bc575b505082871b92600019911b1c19161786555b6006849055600754603260095568056bc75e2d63100000600a55683635c9adc5dea00000600b556001600160a01b0380831696919291871562000479578116938415620004365716968715620003f357506001600160a81b0319909116600891821b610100600160a81b03161760075580546001600160a01b031916919091179055600080805260058083528682208683528352908690205490949060ff1615620003b7575b7fa49807205ce4d355092ef5a8a18f56e8913cf4a201fbe287825b095693c2177590816000528583528660002081600052835260ff876000205416156200037a575b50507f9f2df0fed2c77648de5860a4cc508cd0818c85b8b8a1ab4ceeef8d981c8956a6806000528482528560002084600052825260ff866000205416156200033d575b507f3c11d16cbaffd01df69ce1c404f6340ee057498f5f00246190ea54220576a84893846000528082528560002084600052825260ff86600020541615620002fe575b855161277e9081620007028239f35b84600052815284600020908360005252836000209060ff19825416179055339160008051602062002e80833981519152600080a43880808080620002ef565b8060005284825285600020846000528252856000208360ff1982541617905583339160008051602062002e80833981519152600080a438620002ac565b8160005285835286600020816000528352866000208460ff19825416179055339160008051602062002e80833981519152600080a4388062000269565b6000805284825285600020816000528252856000208360ff198254161790553381600060008051602062002e808339815191528180a462000227565b885162461bcd60e51b8152908101859052601360248201527f50424f583a20496e76616c69642061646d696e000000000000000000000000006044820152606490fd5b895162461bcd60e51b8152808a01879052601660248201527f50424f583a20496e76616c6964207472656173757279000000000000000000006044820152606490fd5b895162461bcd60e51b8152808a01879052601560248201527f50424f583a20496e76616c696420666163746f727900000000000000000000006044820152606490fd5b0151915038806200016f565b89959392919316928b600052886000209360005b8a828210620005195750508511620004fe575b50505050811b01865562000181565b01519060f884600019921b161c1916905538808080620004ef565b8385015187558c98909601959384019301620004dc565b9091929394508b600052886000208480880160051c8201928b891062000582575b918c91899897969594930160051c01915b8281106200057257505062000158565b600081558897508c910162000562565b9250819262000551565b60228c634e487b7160e01b6000525260246000fd5b90607f169062000140565b60418b634e487b7160e01b6000525260246000fd5b01519050388062000114565b90848d941691886000528c600020928d6000905b8282106200061a575050841162000601575b505050811b01845562000126565b015160001983891b60f8161c19169055388080620005f3565b91929395968291958786015181550195019301908e95949392918e620005e1565b909150866000528a6000208680850160051c8201928d861062000687575b918e91869594930160051c01915b82811062000677575050620000fd565b600081558594508e910162000667565b9250819262000659565b60228e634e487b7160e01b6000525260246000fd5b90607f1690620000e8565b600080fd5b634e487b7160e01b600052604160045260246000fd5b60408051919082016001600160401b03811183821017620006b657604052565b51906001600160a01b0382168203620006b15756fe60806040818152600480361015610021575b505050361561001f57600080fd5b005b600092833560e01c90816301ffc9a7146119e25750806306fdde03146118ee5780630900cc331461189c578063095ea7b31461187257806318160ddd1461185357806323b872dd14611816578063248a9ca3146117ec578063282c51f3146117c35780632f2ff15d14611717578063313ce567146116fb57806333039d3d146116d557806334376ca01461163957806336568abe146115a757806339509351146115575780633e53f7db146114995780633f4ba83a146113de57806342966c68146113b857806347141e8f146112a3578063481cd0f814611284578063559358f41461100e5780635c975abb14610fea5780636112e8ac14610c71578063656aaba114610c3f578063690d832014610ace57806370a0823114610a9757806375b238fc14610a6e57806379cc679014610a3b5780637c2e939614610a1c5780638456cb591461099d57806391a99e881461097457806391d148541461092e57806395d89b411461082e57806398fae455146107f6578063a217fddf146107db578063a457c2d714610737578063a65fa1f0146106f6578063a9059cbb146106c5578063ab131eee1461066f578063abb1dc4414610626578063bbc1511f14610607578063c45a0155146105da578063d53913931461059f578063d547741f14610561578063d9f165dc14610371578063dd62ed3e146103245763f7f9bc6a03610011578291346103205760603660031901126103205761023f611a85565b6024356044359367ffffffffffffffff9081861161031c573660238701121561031c57850135908111610318573660248287010111610318578060247ffad31924d655455395c87544c8aa1ffdb5a7505a22a3c2e03f28003b6556a75f966102ea856060976102ac611ab6565b6001600160a01b0381169b6102e59083908c908f6102cb811515612610565b6102d68415156123ca565b815280602052205410156124bd565b612509565b828751978896875280602088015286015201848401378181018301879052601f01601f19168101030190a280f35b8580fd5b8680fd5b5050fd5b50503461036d578060031936011261036d5780602092610342611a85565b61034a611aa0565b6001600160a01b0391821683526001865283832091168252845220549051908152f35b5080fd5b50903461055d576020806003193601126105595761038d611a85565b9060008051602061272983398151915285526005815282852033865281526103ba60ff8487205416612654565b6001600160a01b038281169490939085156105205750906104689291600754948560081c1694610100600160a81b038460081b1690610100600160a81b031916176007557f9f2df0fed2c77648de5860a4cc508cd0818c85b8b8a1ab4ceeef8d981c8956a69182885260058152818820868952815260ff82892054166104da575b61044486611e8a565b82885260058152818820878952815260ff82892054161561048f575b505050611deb565b7f333c7678baf16017cf31e1d2f90143a62aab01a67a0807f6836a4304ceabb5558380a380f35b8288526005815281882090878952528620600160ff198254161790558433917f2f8788117e7eff1d82e926ec794901d17c78024a50270940304540a733656f0d8880a4388080610460565b828852600581528188208689528152818820805460ff191690553386847ff6391f5c32d9c69d2a47ea670b442974b53935d1edc7fd64eb21e047a839171b8b80a461043b565b82606492519162461bcd60e51b8352820152601560248201527450424f583a20496e76616c696420666163746f727960581b6044820152fd5b8380fd5b8280fd5b50903461055d578060031936011261055d5761059c91356105976001610585611aa0565b93838752600560205286200154611c8d565b611f25565b80f35b50503461036d578160031936011261036d57602090517f9f2df0fed2c77648de5860a4cc508cd0818c85b8b8a1ab4ceeef8d981c8956a68152f35b50503461036d578160031936011261036d57600754905160089190911c6001600160a01b03168152602090f35b50503461036d578160031936011261036d57602090600b549051908152f35b50503461036d578160031936011261036d5760a09060025490600954600a5490600b549280519485526a52b7d2dcc80cd2e4000000602086015284015260608301526080820152f35b5082346106c25760203660031901126106c25750356106be61271061069660095484612281565b04916106a283826124b0565b9351938493846040919493926060820195825260208201520152565b0390f35b80fd5b50503461036d578060031936011261036d576020906106ef6106e5611a85565b6024359033611f79565b5160018152f35b50503461036d578060031936011261036d5760209181906001600160a01b0361071d611a85565b168152600c84528181206024358252845220549051908152f35b5082346106c257826003193601126106c257610751611a85565b918360243592338152600160205281812060018060a01b038616825260205220549082821061078a576020856106ef85850387336120e7565b608490602086519162461bcd60e51b8352820152602560248201527f45524332303a2064656372656173656420616c6c6f77616e63652062656c6f77604482015264207a65726f60d81b6064820152fd5b50503461036d578160031936011261036d5751908152602090f35b50503461036d57602036600319011261036d5760209181906001600160a01b0361081e611a85565b168152600d845220549051908152f35b5091903461036d578160031936011261036d57805191809380549160019083821c92828516948515610924575b6020958686108114610911578589529081156108ed5750600114610895575b6106be878761088b828c0383611dc9565b5191829182611a59565b81529295507f8a35acfbc15ff81a39ae7d344fd709f28e8600b4aa8c65c6b64bfe7fe36bd19b5b8284106108da57505050826106be9461088b9282010194388061087a565b80548685018801529286019281016108bc565b60ff19168887015250505050151560051b830101925061088b826106be388061087a565b634e487b7160e01b845260228352602484fd5b93607f169361085b565b503461055d578160031936011261055d578160209360ff9261094e611aa0565b90358252600586528282206001600160a01b039091168252855220549151911615158152f35b50503461036d578160031936011261036d5760085490516001600160a01b039091168152602090f35b50503461036d578160031936011261036d5760207f62e78cea01bee320cd4e420270b5ea74000d11b0c9f74754ebdbfc544b05a2589160008051602061272983398151915284526005825280842033855282526109ff60ff8286205416612654565b610a07612416565b600160ff19600754161760075551338152a180f35b50503461036d578160031936011261036d576020906009549051908152f35b50503461036d573660031901126106c25761059c610a57611a85565b60243590610a63611ab6565b6102e58233836121e9565b50503461036d578160031936011261036d57602090516000805160206127298339815191528152f35b50503461036d57602036600319011261036d5760209181906001600160a01b03610abf611a85565b16815280845220549051908152f35b50903461055d576020908160031936011261055957610aeb611a85565b906000805160206127298339815191528552600583528085203386528352610b1860ff8287205416612654565b6001600160a01b03821693610b2e851515612610565b47928315610bfd578680808681945af13d15610bf8573d67ffffffffffffffff8111610be557835190610b6a601f8201601f1916880183611dc9565b815287863d92013e5b15610ba45750519081527f5fafa99d0643513820be26656b45130b01e1c03062e1266bf36f88cbd3bd96959190a280f35b83606492519162461bcd60e51b8352820152601960248201527f50424f583a20455448205472616e73666572206661696c6564000000000000006044820152fd5b634e487b7160e01b885260418352602488fd5b610b73565b5083606492519162461bcd60e51b8352820152601860248201527f50424f583a204e6f2045544820746f20776974686472617700000000000000006044820152fd5b50503461036d578060031936011261036d57602090610c68610c5f611a85565b60243590612693565b90519015158152f35b5082903461036d57606036600319011261036d57610c8d611a85565b92602493843590604435906006821015610318577f9f2df0fed2c77648de5860a4cc508cd0818c85b8b8a1ab4ceeef8d981c8956a69081875260209160058352858820338952835260ff868920541615610e285750610cea61245a565b610cf2612416565b6001600160a01b0316948515610de857610d0d8415156123ca565b600254976a52b7d2dcc80cd2e4000000610d27868b611f56565b11610da8575050610d5b837f76d60a91a67c624bb26c8f8d753854f29a83ca2f9b903c6bd8ad5d9042424517969798611f56565b60025585875286815283872083815401905585877fddf252ad1be2c89b69c2b068fc378daa952ba7f163c4a11628f55a4df523b3ef838751878152a38351928352820152a2600160065580f35b60199060649387519362461bcd60e51b85528401528201527f50424f583a204d617820737570706c79206578636565646564000000000000006044820152fd5b60178860649387519362461bcd60e51b85528401528201527f50424f583a20496e76616c696420726563697069656e740000000000000000006044820152fd5b8683898b8994610e37336122bb565b9091865192610e4584611d97565b60428452858401946060368737845115610fd85760308653845190600191821015610fc65790607860218701536041915b818311610f5d57505050610f1c5750610f18938693610f0493610ef5604894610ecc9a519a8576020b1b1b2b9b9a1b7b73a3937b61d1030b1b1b7bab73a1604d1b8d978801528251928391603789019101611a36565b8401917001034b99036b4b9b9b4b733903937b6329607d1b603784015251809386840190611a36565b01036028810187520185611dc9565b5162461bcd60e51b81529283928301611a59565b0390fd5b9250505081606494519362461bcd60e51b85528401528201527f537472696e67733a20686578206c656e67746820696e73756666696369656e746044820152fd5b909192600f81166010811015610fb4576f181899199a1a9b1b9c1cb0b131b232b360811b901a610f8d8589612294565b53891c928015610fa257600019019190610e76565b634e487b7160e01b825260118a528482fd5b634e487b7160e01b835260328b528583fd5b634e487b7160e01b8152603289528390fd5b634e487b7160e01b8152603288529050fd5b50503461036d578160031936011261036d5760209060ff6007541690519015158152f35b50903461055d578060031936011261055d5781359161102b611aa0565b61103361245a565b61103b612416565b600a548410611241576001600160a01b031680156111fe57620151804204338652602092600d845281858820818154036111e5575b5050338752600c8452848720828852845261108e8686892054611f56565b600b5410611194575091839291601494927fdd7a0416675888f3e31cec0248ab0c1232d23121f6c7a201f3f1c92b38417b4061113b896127106110d36009548c612281565b04936110f48b896110e488836124b0565b94338152808b52205410156124bd565b6110fe8b33612509565b338c52600c8752878c20908c528652868b2061111b8b8254611f56565b905586518a81526020810194909452604084015233929081906060820190565b0390a38151948552840152820152733634b8bab4b234ba3cafb1b7b73b32b939b4b7b760611b60608201527ffad31924d655455395c87544c8aa1ffdb5a7505a22a3c2e03f28003b6556a75f60803392a2600160065580f35b845162461bcd60e51b8152908101849052602560248201527f50424f583a204461696c7920636f6e76657273696f6e206c696d697420657863604482015264195959195960da1b6064820152608490fd5b55600c8452848720828852845286858120558138611070565b506020606492519162461bcd60e51b8352820152601b60248201527f50424f583a20496e76616c6964206261636b696e6720617373657400000000006044820152fd5b506020606492519162461bcd60e51b8352820152601e60248201527f50424f583a2042656c6f77206d696e696d756d20636f6e76657273696f6e00006044820152fd5b50503461036d578160031936011261036d57602090600a549051908152f35b5091903461036d578060031936011261036d57823560243593600080516020612729833981519152845260056020528284203385526020526112ea60ff8486205416612654565b8115611375578185111561133257507fac0de6374cb974d6724274787df3dcbfbc3ad92055143d5fde6a3c5db52fd451929381600a5580600b5582519182526020820152a180f35b606490602084519162461bcd60e51b8352820152601760248201527f50424f583a20496e76616c6964206d6178206461696c790000000000000000006044820152fd5b606490602084519162461bcd60e51b8352820152601c60248201527f50424f583a20496e76616c6964206d696e20636f6e76657273696f6e000000006044820152fd5b83823461036d57602036600319011261036d5761059c906113d7611ab6565b3533612509565b503461055d578260031936011261055d576000805160206127298339815191528352600560205281832033845260205261141d60ff8385205416612654565b6007549060ff82161561145f575060ff1916600755513381527f5db9ee0a495bf2e6ff9c91a7834c1ba4fdd244a5e8aa4e537bd38aeae4b073aa90602090a180f35b606490602084519162461bcd60e51b8352820152601460248201527314185d5cd8589b194e881b9bdd081c185d5cd95960621b6044820152fd5b503461055d57602036600319011261055d57803590600080516020612729833981519152845260056020528284203385526020526114dc60ff8486205416612654565b6101f4821161151f5750907fa5a6ad6f3528204b2c97451b1f5df06191d8eb8fe5021c905e1778b888e9308891600954908060095582519182526020820152a180f35b606490602084519162461bcd60e51b835282015260126024820152710a0849eb074408ccaca40e8dede40d0d2ced60731b6044820152fd5b50503461036d578060031936011261036d576106ef6020926115a061157a611a85565b338352600186528483206001600160a01b03821684528652918490205460243590611f56565b90336120e7565b5082903461036d578260031936011261036d576115c2611aa0565b90336001600160a01b038316036115de579061059c9135611f25565b608490602085519162461bcd60e51b8352820152602f60248201527f416363657373436f6e74726f6c3a2063616e206f6e6c792072656e6f756e636560448201526e103937b632b9903337b91039b2b63360891b6064820152fd5b503461055d57602036600319011261055d57611653611a85565b916000805160206127298339815191528452600560205280842033855260205261168260ff8286205416612654565b6001600160a01b0383161561169b578361059c84611deb565b906020606492519162461bcd60e51b83528201526014602482015273282127ac1d1024b73b30b634b210313ab93732b960611b6044820152fd5b50503461036d578160031936011261036d57602090516a52b7d2dcc80cd2e40000008152f35b50503461036d578160031936011261036d576020905160128152f35b503461055d578160031936011261055d573590611732611aa0565b90828452600560205261174a60018286200154611c8d565b828452600560209081528185206001600160a01b039093168086529290528084205460ff1615611778578380f35b82845260056020528084208285526020528320600160ff1982541617905533917f2f8788117e7eff1d82e926ec794901d17c78024a50270940304540a733656f0d8480a43880808380f35b50503461036d578160031936011261036d57602090516000805160206127098339815191528152f35b503461055d57602036600319011261055d5781602093600192358152600585522001549051908152f35b50503461036d57606036600319011261036d576020906106ef611837611a85565b61183f611aa0565b6044359161184e8333836121e9565b611f79565b50503461036d578160031936011261036d576020906002549051908152f35b50503461036d578060031936011261036d576020906106ef611892611a85565b60243590336120e7565b50503461036d57602036600319011261036d5761059c906118e960ff6118c0611a85565b926000805160206127298339815191528652600560205280862033875260205285205416612654565b611e8a565b50903461055d578260031936011261055d57805191836003549060019082821c9282811680156119d8575b60209586861082146119c557508488529081156119a3575060011461194a575b6106be868661088b828b0383611dc9565b929550600383527fc2575a0e9e593c00f959f8c92f12db2869c3395a3b0502d05e2516446f71f85b5b82841061199057505050826106be9461088b928201019438611939565b8054868501880152928601928101611973565b60ff191687860152505050151560051b830101925061088b826106be38611939565b634e487b7160e01b845260229052602483fd5b93607f1693611919565b9250503461055d57602036600319011261055d573563ffffffff60e01b811680910361055d5760209250637965db0b60e01b8114908115611a25575b5015158152f35b6301ffc9a760e01b14905038611a1e565b60005b838110611a495750506000910152565b8181015183820152602001611a39565b60409160208252611a798151809281602086015260208686019101611a36565b601f01601f1916010190565b600435906001600160a01b0382168203611a9b57565b600080fd5b602435906001600160a01b0382168203611a9b57565b3360009081527f847f481f687befb06ed3511f1a8dcef57e83007c0147ae5047583d705617093760209081526040808320549092906000805160206127098339815191529060ff1615611b095750505050565b611b12336122bb565b845191611b1e83611d97565b60428352848301936060368637835115611c795760308553835190600191821015611c795790607860218601536041915b818311611c0b57505050611bc957610ecc938593611bb393611ba4604894610f189951988576020b1b1b2b9b9a1b7b73a3937b61d1030b1b1b7bab73a1604d1b8b978801528251928391603789019101611a36565b01036028810185520183611dc9565b5162461bcd60e51b815291829160048301611a59565b60648486519062461bcd60e51b825280600483015260248201527f537472696e67733a20686578206c656e67746820696e73756666696369656e746044820152fd5b909192600f81166010811015611c65576f181899199a1a9b1b9c1cb0b131b232b360811b901a611c3b8588612294565b5360041c928015611c5157600019019190611b4f565b634e487b7160e01b82526011600452602482fd5b634e487b7160e01b83526032600452602483fd5b634e487b7160e01b81526032600452602490fd5b600081815260209060058252604092838220338352835260ff848320541615611cb65750505050565b611cbf336122bb565b845191611ccb83611d97565b60428352848301936060368637835115611c795760308553835190600191821015611c795790607860218601536041915b818311611d5157505050611bc957610ecc938593611bb393611ba4604894610f189951988576020b1b1b2b9b9a1b7b73a3937b61d1030b1b1b7bab73a1604d1b8b978801528251928391603789019101611a36565b909192600f81166010811015611c65576f181899199a1a9b1b9c1cb0b131b232b360811b901a611d818588612294565b5360041c928015611c5157600019019190611cfc565b6080810190811067ffffffffffffffff821117611db357604052565b634e487b7160e01b600052604160045260246000fd5b90601f8019910116810190811067ffffffffffffffff821117611db357604052565b6001600160a01b031660008181527f847f481f687befb06ed3511f1a8dcef57e83007c0147ae5047583d705617093760205260408120549091906000805160206127098339815191529060ff1615611e4257505050565b80835260056020526040832082845260205260408320600160ff198254161790557f2f8788117e7eff1d82e926ec794901d17c78024a50270940304540a733656f0d339380a4565b6001600160a01b031660008181527f847f481f687befb06ed3511f1a8dcef57e83007c0147ae5047583d705617093760205260408120549091906000805160206127098339815191529060ff16611ee057505050565b8083526005602052604083208284526020526040832060ff1981541690557ff6391f5c32d9c69d2a47ea670b442974b53935d1edc7fd64eb21e047a839171b339380a4565b906000918083526005602052604083209160018060a01b03169182845260205260ff604084205416611ee057505050565b91908201809211611f6357565b634e487b7160e01b600052601160045260246000fd5b6001600160a01b03908116918215612094571691821561204357600082815280602052604081205491808310611fef57604082827fddf252ad1be2c89b69c2b068fc378daa952ba7f163c4a11628f55a4df523b3ef958760209652828652038282205586815220818154019055604051908152a3565b60405162461bcd60e51b815260206004820152602660248201527f45524332303a207472616e7366657220616d6f756e7420657863656564732062604482015265616c616e636560d01b6064820152608490fd5b60405162461bcd60e51b815260206004820152602360248201527f45524332303a207472616e7366657220746f20746865207a65726f206164647260448201526265737360e81b6064820152608490fd5b60405162461bcd60e51b815260206004820152602560248201527f45524332303a207472616e736665722066726f6d20746865207a65726f206164604482015264647265737360d81b6064820152608490fd5b6001600160a01b0390811691821561219857169182156121485760207f8c5be1e5ebec7d5bd14f71427d1e84f3dd0314c0f7b2291e5b200ac8c7c3b925918360005260018252604060002085600052825280604060002055604051908152a3565b60405162461bcd60e51b815260206004820152602260248201527f45524332303a20617070726f766520746f20746865207a65726f206164647265604482015261737360f01b6064820152608490fd5b60405162461bcd60e51b8152602060048201526024808201527f45524332303a20617070726f76652066726f6d20746865207a65726f206164646044820152637265737360e01b6064820152608490fd5b9060018060a01b0380831660005260016020526040600020908216600052602052604060002054926000198403612221575b50505050565b80841061223c576122339303916120e7565b3880808061221b565b60405162461bcd60e51b815260206004820152601d60248201527f45524332303a20696e73756666696369656e7420616c6c6f77616e63650000006044820152606490fd5b81810292918115918404141715611f6357565b9081518110156122a5570160200190565b634e487b7160e01b600052603260045260246000fd5b604051906060820182811067ffffffffffffffff821117611db357604052602a82526020820160403682378251156122a5576030905381516001908110156122a557607860218401536029905b80821161235c5750506123185790565b606460405162461bcd60e51b815260206004820152602060248201527f537472696e67733a20686578206c656e67746820696e73756666696369656e746044820152fd5b9091600f811660108110156123b5576f181899199a1a9b1b9c1cb0b131b232b360811b901a61238b8486612294565b5360041c9180156123a0576000190190612308565b60246000634e487b7160e01b81526011600452fd5b60246000634e487b7160e01b81526032600452fd5b156123d157565b60405162461bcd60e51b815260206004820152601d60248201527f50424f583a20416d6f756e74206d75737420626520706f7369746976650000006044820152606490fd5b60ff6007541661242257565b60405162461bcd60e51b815260206004820152601060248201526f14185d5cd8589b194e881c185d5cd95960821b6044820152606490fd5b60026006541461246b576002600655565b60405162461bcd60e51b815260206004820152601f60248201527f5265656e7472616e637947756172643a207265656e7472616e742063616c6c006044820152606490fd5b91908203918211611f6357565b156124c457565b60405162461bcd60e51b815260206004820152601a60248201527f50424f583a20496e73756666696369656e742062616c616e63650000000000006044820152606490fd5b6001600160a01b031680156125c15760009181835282602052604083205481811061257157817fddf252ad1be2c89b69c2b068fc378daa952ba7f163c4a11628f55a4df523b3ef926020928587528684520360408620558060025403600255604051908152a3565b60405162461bcd60e51b815260206004820152602260248201527f45524332303a206275726e20616d6f756e7420657863656564732062616c616e604482015261636560f01b6064820152608490fd5b60405162461bcd60e51b815260206004820152602160248201527f45524332303a206275726e2066726f6d20746865207a65726f206164647265736044820152607360f81b6064820152608490fd5b1561261757565b60405162461bcd60e51b815260206004820152601560248201527450424f583a20496e76616c6964206164647265737360581b6044820152606490fd5b1561265b57565b60405162461bcd60e51b815260206004820152601060248201526f282127ac1d1027b7363c9030b236b4b760811b6044820152606490fd5b90600a5481106127015760009160018060a01b0316825281602052806040832054106126fd576126ef91620151804204600d602052806040832054146000146126f75790604091600c6020528282209082526020522054611f56565b600b54101590565b50611f56565b5090565b505060009056fe3c11d16cbaffd01df69ce1c404f6340ee057498f5f00246190ea54220576a848a49807205ce4d355092ef5a8a18f56e8913cf4a201fbe287825b095693c21775a2646970667358221220185a55b91d7c05a6246977e64b32e312c7756a11b3ed52d8ffa5910fbdcf07c864736f6c634300081400332f8788117e7eff1d82e926ec794901d17c78024a50270940304540a733656f0d",
  "linkReferences": {},
  "deployedLinkReferences": {}
}