{"contracts/PoolPandoras.sol":{"PoolPandoras":{"abi":[{"inputs":[{"internalType":"address[]","name":"initialAdmins","type":"address[]"},{"internalType":"address","name":"_utilityAddress","type":"address"},{"internalType":"address","name":"trustedForwarder","type":"address"},{"internalType":"address","name":"_usdcAddress","type":"address"}],"stateMutability":"nonpayable","type":"constructor"},{"inputs":[],"name":"AccessControlBadConfirmation","type":"error"},{"inputs":[{"internalType":"address","name":"account","type":"address"},{"internalType":"bytes32","name":"neededRole","type":"bytes32"}],"name":"AccessControlUnauthorizedAccount","type":"error"},{"inputs":[],"name":"AlreadyUnlockedOrWithdrawn","type":"error"},{"inputs":[],"name":"AlreadyWithdrawn","type":"error"},{"inputs":[],"name":"ArrayLengthMismatch","type":"error"},{"inputs":[],"name":"CapReached","type":"error"},{"inputs":[],"name":"DepositLocked","type":"error"},{"inputs":[],"name":"DepositsPaused","type":"error"},{"inputs":[],"name":"ExceedsTotalUtility","type":"error"},{"inputs":[],"name":"GlobalLiquidationAlreadyEnabled","type":"error"},{"inputs":[],"name":"InsufficientBalance","type":"error"},{"inputs":[],"name":"InvalidAmount","type":"error"},{"inputs":[],"name":"NoUtilityToClaim","type":"error"},{"inputs":[],"name":"NotWhitelisted","type":"error"},{"inputs":[],"name":"ReentrancyGuardReentrantCall","type":"error"},{"inputs":[],"name":"ReturnedAmountExceedsInvested","type":"error"},{"inputs":[],"name":"TransferFailed","type":"error"},{"inputs":[],"name":"WithdrawalsPaused","type":"error"},{"inputs":[],"name":"ZeroAddress","type":"error"},{"anonymous":false,"inputs":[{"indexed":true,"internalType":"address","name":"user","type":"address"},{"indexed":false,"internalType":"enum PoolPandoras.TokenType","name":"token","type":"uint8"},{"indexed":false,"internalType":"uint256[]","name":"indices","type":"uint256[]"},{"indexed":false,"internalType":"uint256","name":"totalPrincipal","type":"uint256"},{"indexed":false,"internalType":"uint256","name":"totalYield","type":"uint256"},{"indexed":false,"internalType":"uint256","name":"when","type":"uint256"}],"name":"BatchWithdraw","type":"event"},{"anonymous":false,"inputs":[{"indexed":true,"internalType":"address","name":"user","type":"address"},{"indexed":false,"internalType":"enum PoolPandoras.TokenType","name":"token","type":"uint8"},{"indexed":false,"internalType":"uint256","name":"amount","type":"uint256"},{"indexed":false,"internalType":"uint256","name":"when","type":"uint256"}],"name":"ClaimUtility","type":"event"},{"anonymous":false,"inputs":[{"indexed":false,"internalType":"string","name":"key","type":"string"},{"indexed":false,"internalType":"uint256","name":"value","type":"uint256"}],"name":"ConfigChanged","type":"event"},{"anonymous":false,"inputs":[{"indexed":true,"internalType":"address","name":"user","type":"address"},{"indexed":false,"internalType":"enum PoolPandoras.TokenType","name":"token","type":"uint8"},{"indexed":false,"internalType":"uint256","name":"amount","type":"uint256"},{"indexed":false,"internalType":"uint256","name":"when","type":"uint256"},{"indexed":false,"internalType":"uint256","name":"depositIndex","type":"uint256"},{"indexed":false,"internalType":"bool","name":"reinvestment","type":"bool"}],"name":"Deposit","type":"event"},{"anonymous":false,"inputs":[{"indexed":true,"internalType":"address","name":"user","type":"address"},{"indexed":false,"internalType":"uint256[]","name":"indices","type":"uint256[]"}],"name":"DepositsUnlocked","type":"event"},{"anonymous":false,"inputs":[{"indexed":true,"internalType":"address","name":"token","type":"address"},{"indexed":true,"internalType":"address","name":"to","type":"address"},{"indexed":false,"internalType":"uint256","name":"amount","type":"uint256"}],"name":"ERC20Rescued","type":"event"},{"anonymous":false,"inputs":[{"indexed":false,"internalType":"uint256","name":"when","type":"uint256"}],"name":"GlobalLiquidationEnabled","type":"event"},{"anonymous":false,"inputs":[{"indexed":true,"internalType":"address","name":"manager","type":"address"},{"indexed":false,"internalType":"enum PoolPandoras.TokenType","name":"token","type":"uint8"},{"indexed":false,"internalType":"uint256","name":"amount","type":"uint256"},{"indexed":false,"internalType":"uint256","name":"when","type":"uint256"}],"name":"InvestmentReturned","type":"event"},{"anonymous":false,"inputs":[{"indexed":false,"internalType":"uint256","name":"newPeriod","type":"uint256"}],"name":"LockupPeriodChanged","type":"event"},{"anonymous":false,"inputs":[{"indexed":false,"internalType":"enum PoolPandoras.TokenType","name":"token","type":"uint8"},{"indexed":false,"internalType":"uint256","name":"newCap","type":"uint256"}],"name":"MaxCapChanged","type":"event"},{"anonymous":false,"inputs":[{"indexed":false,"internalType":"bool","name":"depositsPaused","type":"bool"},{"indexed":false,"internalType":"bool","name":"withdrawalsPaused","type":"bool"}],"name":"PauseChanged","type":"event"},{"anonymous":false,"inputs":[{"indexed":true,"internalType":"address","name":"user","type":"address"},{"indexed":false,"internalType":"uint256","name":"amount","type":"uint256"},{"indexed":false,"internalType":"uint256","name":"penalty","type":"uint256"},{"indexed":false,"internalType":"uint256","name":"when","type":"uint256"}],"name":"PenaltyApplied","type":"event"},{"anonymous":false,"inputs":[{"indexed":true,"internalType":"uint256","name":"id","type":"uint256"},{"indexed":false,"internalType":"bool","name":"executed","type":"bool"}],"name":"ProposalClosed","type":"event"},{"anonymous":false,"inputs":[{"indexed":true,"internalType":"uint256","name":"id","type":"uint256"},{"indexed":true,"internalType":"address","name":"proposer","type":"address"},{"indexed":false,"internalType":"string","name":"title","type":"string"},{"indexed":false,"internalType":"uint256","name":"endTime","type":"uint256"}],"name":"ProposalCreated","type":"event"},{"anonymous":false,"inputs":[{"indexed":true,"internalType":"address","name":"user","type":"address"},{"indexed":false,"internalType":"enum PoolPandoras.TokenType","name":"token","type":"uint8"},{"indexed":false,"internalType":"uint256","name":"amount","type":"uint256"},{"indexed":false,"internalType":"uint256","name":"when","type":"uint256"}],"name":"Reinvest","type":"event"},{"anonymous":false,"inputs":[{"indexed":true,"internalType":"bytes32","name":"role","type":"bytes32"},{"indexed":true,"internalType":"bytes32","name":"previousAdminRole","type":"bytes32"},{"indexed":true,"internalType":"bytes32","name":"newAdminRole","type":"bytes32"}],"name":"RoleAdminChanged","type":"event"},{"anonymous":false,"inputs":[{"indexed":true,"internalType":"bytes32","name":"role","type":"bytes32"},{"indexed":true,"internalType":"address","name":"account","type":"address"},{"indexed":true,"internalType":"address","name":"sender","type":"address"}],"name":"RoleGranted","type":"event"},{"anonymous":false,"inputs":[{"indexed":true,"internalType":"bytes32","name":"role","type":"bytes32"},{"indexed":true,"internalType":"address","name":"account","type":"address"},{"indexed":true,"internalType":"address","name":"sender","type":"address"}],"name":"RoleRevoked","type":"event"},{"anonymous":false,"inputs":[{"indexed":true,"internalType":"address","name":"user","type":"address"},{"indexed":false,"internalType":"bool","name":"status","type":"bool"}],"name":"UserWhitelisted","type":"event"},{"anonymous":false,"inputs":[{"indexed":false,"internalType":"address","name":"newUtilityAddress","type":"address"}],"name":"UtilityAddressChanged","type":"event"},{"anonymous":false,"inputs":[{"indexed":true,"internalType":"address","name":"admin","type":"address"},{"indexed":false,"internalType":"enum PoolPandoras.TokenType","name":"token","type":"uint8"},{"indexed":false,"internalType":"uint256","name":"amount","type":"uint256"},{"indexed":false,"internalType":"uint256","name":"when","type":"uint256"}],"name":"UtilityInjected","type":"event"},{"anonymous":false,"inputs":[{"indexed":true,"internalType":"address","name":"to","type":"address"},{"indexed":false,"internalType":"enum PoolPandoras.TokenType","name":"token","type":"uint8"},{"indexed":false,"internalType":"uint256","name":"amount","type":"uint256"},{"indexed":false,"internalType":"uint256","name":"when","type":"uint256"}],"name":"UtilityWithdrawn","type":"event"},{"anonymous":false,"inputs":[{"indexed":true,"internalType":"uint256","name":"id","type":"uint256"},{"indexed":true,"internalType":"address","name":"voter","type":"address"},{"indexed":false,"internalType":"bool","name":"support","type":"bool"},{"indexed":false,"internalType":"uint256","name":"weight","type":"uint256"}],"name":"Voted","type":"event"},{"anonymous":false,"inputs":[{"indexed":true,"internalType":"address","name":"user","type":"address"},{"indexed":false,"internalType":"enum PoolPandoras.TokenType","name":"token","type":"uint8"},{"indexed":false,"internalType":"uint256","name":"principal","type":"uint256"},{"indexed":false,"internalType":"uint256","name":"yield","type":"uint256"},{"indexed":false,"internalType":"uint256","name":"when","type":"uint256"},{"indexed":false,"internalType":"uint256","name":"depositIndex","type":"uint256"}],"name":"Withdraw","type":"event"},{"anonymous":false,"inputs":[{"indexed":true,"internalType":"address","name":"manager","type":"address"},{"indexed":false,"internalType":"enum PoolPandoras.TokenType","name":"token","type":"uint8"},{"indexed":true,"internalType":"address","name":"to","type":"address"},{"indexed":false,"internalType":"uint256","name":"amount","type":"uint256"},{"indexed":false,"internalType":"uint256","name":"when","type":"uint256"}],"name":"WithdrawnForInvestment","type":"event"},{"inputs":[],"name":"ADMIN_ROLE","outputs":[{"internalType":"bytes32","name":"","type":"bytes32"}],"stateMutability":"view","type":"function"},{"inputs":[],"name":"DEFAULT_ADMIN_ROLE","outputs":[{"internalType":"bytes32","name":"","type":"bytes32"}],"stateMutability":"view","type":"function"},{"inputs":[],"name":"MANAGER_ROLE","outputs":[{"internalType":"bytes32","name":"","type":"bytes32"}],"stateMutability":"view","type":"function"},{"inputs":[],"name":"PAUSER_ROLE","outputs":[{"internalType":"bytes32","name":"","type":"bytes32"}],"stateMutability":"view","type":"function"},{"inputs":[],"name":"PROPOSAL_CREATOR_ROLE","outputs":[{"internalType":"bytes32","name":"","type":"bytes32"}],"stateMutability":"view","type":"function"},{"inputs":[],"name":"PROPOSAL_THRESHOLD","outputs":[{"internalType":"uint256","name":"","type":"uint256"}],"stateMutability":"view","type":"function"},{"inputs":[],"name":"UNLOCKER_ROLE","outputs":[{"internalType":"bytes32","name":"","type":"bytes32"}],"stateMutability":"view","type":"function"},{"inputs":[],"name":"UTILITY_INJECTOR_ROLE","outputs":[{"internalType":"bytes32","name":"","type":"bytes32"}],"stateMutability":"view","type":"function"},{"inputs":[],"name":"UTILITY_WITHDRAWER_ROLE","outputs":[{"internalType":"bytes32","name":"","type":"bytes32"}],"stateMutability":"view","type":"function"},{"inputs":[],"name":"VP_ETH_MULTIPLIER","outputs":[{"internalType":"uint256","name":"","type":"uint256"}],"stateMutability":"view","type":"function"},{"inputs":[{"internalType":"address","name":"user","type":"address"},{"internalType":"uint256","name":"amount","type":"uint256"}],"name":"assignUtilityETH","outputs":[],"stateMutability":"nonpayable","type":"function"},{"inputs":[{"internalType":"address[]","name":"users","type":"address[]"},{"internalType":"uint256[]","name":"amounts","type":"uint256[]"}],"name":"assignUtilityETHBatch","outputs":[],"stateMutability":"nonpayable","type":"function"},{"inputs":[{"internalType":"address","name":"user","type":"address"},{"internalType":"uint256","name":"amount","type":"uint256"}],"name":"assignUtilityUSDC","outputs":[],"stateMutability":"nonpayable","type":"function"},{"inputs":[{"internalType":"address[]","name":"users","type":"address[]"},{"internalType":"uint256[]","name":"amounts","type":"uint256[]"}],"name":"assignUtilityUSDCBatch","outputs":[],"stateMutability":"nonpayable","type":"function"},{"inputs":[{"internalType":"uint256[]","name":"depositIndices","type":"uint256[]"}],"name":"batchWithdraw","outputs":[],"stateMutability":"nonpayable","type":"function"},{"inputs":[],"name":"claimUtilityETH","outputs":[],"stateMutability":"nonpayable","type":"function"},{"inputs":[],"name":"claimUtilityUSDC","outputs":[],"stateMutability":"nonpayable","type":"function"},{"inputs":[{"internalType":"uint256","name":"proposalId","type":"uint256"}],"name":"closeProposal","outputs":[],"stateMutability":"nonpayable","type":"function"},{"inputs":[{"internalType":"string","name":"title","type":"string"},{"internalType":"string","name":"description","type":"string"},{"internalType":"uint256","name":"daysOpen","type":"uint256"}],"name":"createProposal","outputs":[],"stateMutability":"nonpayable","type":"function"},{"inputs":[],"name":"depositETH","outputs":[],"stateMutability":"payable","type":"function"},{"inputs":[{"internalType":"uint256","name":"amount","type":"uint256"}],"name":"depositUSDC","outputs":[],"stateMutability":"nonpayable","type":"function"},{"inputs":[],"name":"earlyWithdrawalPenaltyBps","outputs":[{"internalType":"uint256","name":"","type":"uint256"}],"stateMutability":"view","type":"function"},{"inputs":[],"name":"enableGlobalLiquidation","outputs":[],"stateMutability":"nonpayable","type":"function"},{"inputs":[],"name":"getAllProposals","outputs":[{"components":[{"internalType":"uint256","name":"id","type":"uint256"},{"internalType":"address","name":"proposer","type":"address"},{"internalType":"string","name":"title","type":"string"},{"internalType":"string","name":"description","type":"string"},{"internalType":"uint256","name":"startTime","type":"uint256"},{"internalType":"uint256","name":"endTime","type":"uint256"},{"internalType":"uint256","name":"forVotes","type":"uint256"},{"internalType":"uint256","name":"againstVotes","type":"uint256"},{"internalType":"bool","name":"active","type":"bool"},{"internalType":"bool","name":"executed","type":"bool"}],"internalType":"struct PoolPandoras.Proposal[]","name":"","type":"tuple[]"}],"stateMutability":"view","type":"function"},{"inputs":[{"internalType":"bytes32","name":"role","type":"bytes32"}],"name":"getRoleAdmin","outputs":[{"internalType":"bytes32","name":"","type":"bytes32"}],"stateMutability":"view","type":"function"},{"inputs":[{"internalType":"address","name":"user","type":"address"}],"name":"getUserDeposits","outputs":[{"components":[{"internalType":"uint96","name":"amount","type":"uint96"},{"internalType":"uint96","name":"yieldReceived","type":"uint96"},{"internalType":"uint48","name":"timestamp","type":"uint48"},{"internalType":"uint48","name":"withdrawnAt","type":"uint48"},{"internalType":"enum PoolPandoras.TokenType","name":"token","type":"uint8"},{"internalType":"uint8","name":"flags","type":"uint8"}],"internalType":"struct PoolPandoras.DepositInfo[]","name":"","type":"tuple[]"}],"stateMutability":"view","type":"function"},{"inputs":[{"internalType":"address","name":"user","type":"address"}],"name":"getUserStats","outputs":[{"internalType":"uint256","name":"depositedETH","type":"uint256"},{"internalType":"uint256","name":"depositedUSDC","type":"uint256"},{"internalType":"uint256","name":"withdrawnETH","type":"uint256"},{"internalType":"uint256","name":"withdrawnUSDC","type":"uint256"},{"internalType":"uint256","name":"claimableUtilityETH","type":"uint256"},{"internalType":"uint256","name":"claimableUtilityUSDC","type":"uint256"},{"internalType":"uint256","name":"reinvestedETH","type":"uint256"},{"internalType":"uint256","name":"reinvestedUSDC","type":"uint256"}],"stateMutability":"view","type":"function"},{"inputs":[],"name":"getVaultStats","outputs":[{"internalType":"uint256","name":"ethInVault","type":"uint256"},{"internalType":"uint256","name":"usdcInVault","type":"uint256"},{"internalType":"uint256","name":"totalDepositedETH_","type":"uint256"},{"internalType":"uint256","name":"totalDepositedUSDC_","type":"uint256"},{"internalType":"uint256","name":"totalWithdrawnETH_","type":"uint256"},{"internalType":"uint256","name":"totalWithdrawnUSDC_","type":"uint256"},{"internalType":"uint256","name":"totalUtilityETH_","type":"uint256"},{"internalType":"uint256","name":"totalUtilityUSDC_","type":"uint256"},{"internalType":"uint256","name":"totalReinvestedETH_","type":"uint256"},{"internalType":"uint256","name":"totalReinvestedUSDC_","type":"uint256"},{"internalType":"uint256","name":"totalInvestedETH_","type":"uint256"},{"internalType":"uint256","name":"totalInvestedUSDC_","type":"uint256"},{"internalType":"uint256","name":"numDepositors","type":"uint256"},{"internalType":"uint256","name":"numWithdrawnUsers","type":"uint256"}],"stateMutability":"view","type":"function"},{"inputs":[{"internalType":"address","name":"user","type":"address"}],"name":"getVotingPower","outputs":[{"internalType":"uint256","name":"","type":"uint256"}],"stateMutability":"view","type":"function"},{"inputs":[],"name":"globalLiquidationEnabled","outputs":[{"internalType":"bool","name":"","type":"bool"}],"stateMutability":"view","type":"function"},{"inputs":[],"name":"globalLiquidationTimestamp","outputs":[{"internalType":"uint48","name":"","type":"uint48"}],"stateMutability":"view","type":"function"},{"inputs":[{"internalType":"bytes32","name":"role","type":"bytes32"},{"internalType":"address","name":"account","type":"address"}],"name":"grantRole","outputs":[],"stateMutability":"nonpayable","type":"function"},{"inputs":[{"internalType":"bytes32","name":"role","type":"bytes32"},{"internalType":"address","name":"account","type":"address"}],"name":"hasRole","outputs":[{"internalType":"bool","name":"","type":"bool"}],"stateMutability":"view","type":"function"},{"inputs":[{"internalType":"uint256","name":"","type":"uint256"},{"internalType":"address","name":"","type":"address"}],"name":"hasVoted","outputs":[{"internalType":"bool","name":"","type":"bool"}],"stateMutability":"view","type":"function"},{"inputs":[{"internalType":"address","name":"","type":"address"}],"name":"hasWithdrawn","outputs":[{"internalType":"bool","name":"","type":"bool"}],"stateMutability":"view","type":"function"},{"inputs":[],"name":"injectUtilityETH","outputs":[],"stateMutability":"payable","type":"function"},{"inputs":[{"internalType":"uint256","name":"amount","type":"uint256"}],"name":"injectUtilityUSDC","outputs":[],"stateMutability":"nonpayable","type":"function"},{"inputs":[{"internalType":"address","name":"","type":"address"}],"name":"isKnownDepositor","outputs":[{"internalType":"bool","name":"","type":"bool"}],"stateMutability":"view","type":"function"},{"inputs":[{"internalType":"address","name":"forwarder","type":"address"}],"name":"isTrustedForwarder","outputs":[{"internalType":"bool","name":"","type":"bool"}],"stateMutability":"view","type":"function"},{"inputs":[{"internalType":"address","name":"","type":"address"}],"name":"isWhitelisted","outputs":[{"internalType":"bool","name":"","type":"bool"}],"stateMutability":"view","type":"function"},{"inputs":[],"name":"lockupPeriod","outputs":[{"internalType":"uint256","name":"","type":"uint256"}],"stateMutability":"view","type":"function"},{"inputs":[],"name":"maxCapETH","outputs":[{"internalType":"uint256","name":"","type":"uint256"}],"stateMutability":"view","type":"function"},{"inputs":[],"name":"maxCapUSDC","outputs":[{"internalType":"uint256","name":"","type":"uint256"}],"stateMutability":"view","type":"function"},{"inputs":[],"name":"minDepositETH","outputs":[{"internalType":"uint256","name":"","type":"uint256"}],"stateMutability":"view","type":"function"},{"inputs":[],"name":"minDepositUSDC","outputs":[{"internalType":"uint256","name":"","type":"uint256"}],"stateMutability":"view","type":"function"},{"inputs":[],"name":"pausedDeposits","outputs":[{"internalType":"bool","name":"","type":"bool"}],"stateMutability":"view","type":"function"},{"inputs":[],"name":"pausedWithdrawals","outputs":[{"internalType":"bool","name":"","type":"bool"}],"stateMutability":"view","type":"function"},{"inputs":[],"name":"proposalCount","outputs":[{"internalType":"uint256","name":"","type":"uint256"}],"stateMutability":"view","type":"function"},{"inputs":[{"internalType":"uint256","name":"","type":"uint256"}],"name":"proposals","outputs":[{"internalType":"uint256","name":"id","type":"uint256"},{"internalType":"address","name":"proposer","type":"address"},{"internalType":"string","name":"title","type":"string"},{"internalType":"string","name":"description","type":"string"},{"internalType":"uint256","name":"startTime","type":"uint256"},{"internalType":"uint256","name":"endTime","type":"uint256"},{"internalType":"uint256","name":"forVotes","type":"uint256"},{"internalType":"uint256","name":"againstVotes","type":"uint256"},{"internalType":"bool","name":"active","type":"bool"},{"internalType":"bool","name":"executed","type":"bool"}],"stateMutability":"view","type":"function"},{"inputs":[],"name":"reinvestUtilityETH","outputs":[],"stateMutability":"nonpayable","type":"function"},{"inputs":[],"name":"reinvestUtilityUSDC","outputs":[],"stateMutability":"nonpayable","type":"function"},{"inputs":[{"internalType":"bytes32","name":"role","type":"bytes32"},{"internalType":"address","name":"callerConfirmation","type":"address"}],"name":"renounceRole","outputs":[],"stateMutability":"nonpayable","type":"function"},{"inputs":[{"internalType":"address","name":"token","type":"address"},{"internalType":"address","name":"to","type":"address"},{"internalType":"uint256","name":"amount","type":"uint256"}],"name":"rescueERC20","outputs":[],"stateMutability":"nonpayable","type":"function"},{"inputs":[],"name":"returnInvestmentETH","outputs":[],"stateMutability":"payable","type":"function"},{"inputs":[{"internalType":"uint256","name":"amount","type":"uint256"}],"name":"returnInvestmentUSDC","outputs":[],"stateMutability":"nonpayable","type":"function"},{"inputs":[{"internalType":"bytes32","name":"role","type":"bytes32"},{"internalType":"address","name":"account","type":"address"}],"name":"revokeRole","outputs":[],"stateMutability":"nonpayable","type":"function"},{"inputs":[{"internalType":"address","name":"user","type":"address"},{"internalType":"uint256[]","name":"depositIndices","type":"uint256[]"}],"name":"setDepositsAsRedeemable","outputs":[],"stateMutability":"nonpayable","type":"function"},{"inputs":[{"internalType":"uint256","name":"bps","type":"uint256"}],"name":"setEarlyWithdrawalPenalty","outputs":[],"stateMutability":"nonpayable","type":"function"},{"inputs":[{"internalType":"uint256","name":"newPeriod","type":"uint256"}],"name":"setLockupPeriod","outputs":[],"stateMutability":"nonpayable","type":"function"},{"inputs":[{"internalType":"enum PoolPandoras.TokenType","name":"token","type":"uint8"},{"internalType":"uint256","name":"newCap","type":"uint256"}],"name":"setMaxCap","outputs":[],"stateMutability":"nonpayable","type":"function"},{"inputs":[{"internalType":"enum PoolPandoras.TokenType","name":"token","type":"uint8"},{"internalType":"uint256","name":"newMin","type":"uint256"}],"name":"setMinDeposit","outputs":[],"stateMutability":"nonpayable","type":"function"},{"inputs":[{"internalType":"bool","name":"_deposits","type":"bool"},{"internalType":"bool","name":"_withdrawals","type":"bool"}],"name":"setPaused","outputs":[],"stateMutability":"nonpayable","type":"function"},{"inputs":[{"internalType":"address","name":"newUtilityAddress","type":"address"}],"name":"setUtilityAddress","outputs":[],"stateMutability":"nonpayable","type":"function"},{"inputs":[{"internalType":"address","name":"user","type":"address"},{"internalType":"bool","name":"status","type":"bool"}],"name":"setWhitelist","outputs":[],"stateMutability":"nonpayable","type":"function"},{"inputs":[{"internalType":"address[]","name":"users","type":"address[]"},{"internalType":"bool[]","name":"statuses","type":"bool[]"}],"name":"setWhitelistBatch","outputs":[],"stateMutability":"nonpayable","type":"function"},{"inputs":[{"internalType":"bool","name":"enabled","type":"bool"}],"name":"setWhitelistEnabled","outputs":[],"stateMutability":"nonpayable","type":"function"},{"inputs":[{"internalType":"bytes4","name":"interfaceId","type":"bytes4"}],"name":"supportsInterface","outputs":[{"internalType":"bool","name":"","type":"bool"}],"stateMutability":"view","type":"function"},{"inputs":[],"name":"totalDepositedETH","outputs":[{"internalType":"uint256","name":"","type":"uint256"}],"stateMutability":"view","type":"function"},{"inputs":[],"name":"totalDepositedUSDC","outputs":[{"internalType":"uint256","name":"","type":"uint256"}],"stateMutability":"view","type":"function"},{"inputs":[],"name":"totalInvestedETH","outputs":[{"internalType":"uint256","name":"","type":"uint256"}],"stateMutability":"view","type":"function"},{"inputs":[],"name":"totalInvestedUSDC","outputs":[{"internalType":"uint256","name":"","type":"uint256"}],"stateMutability":"view","type":"function"},{"inputs":[],"name":"totalReinvestedETH","outputs":[{"internalType":"uint256","name":"","type":"uint256"}],"stateMutability":"view","type":"function"},{"inputs":[],"name":"totalReinvestedUSDC","outputs":[{"internalType":"uint256","name":"","type":"uint256"}],"stateMutability":"view","type":"function"},{"inputs":[],"name":"totalUtilityETH","outputs":[{"internalType":"uint256","name":"","type":"uint256"}],"stateMutability":"view","type":"function"},{"inputs":[],"name":"totalUtilityUSDC","outputs":[{"internalType":"uint256","name":"","type":"uint256"}],"stateMutability":"view","type":"function"},{"inputs":[],"name":"totalWithdrawnETH","outputs":[{"internalType":"uint256","name":"","type":"uint256"}],"stateMutability":"view","type":"function"},{"inputs":[],"name":"totalWithdrawnUSDC","outputs":[{"internalType":"uint256","name":"","type":"uint256"}],"stateMutability":"view","type":"function"},{"inputs":[],"name":"trustedForwarder","outputs":[{"internalType":"address","name":"","type":"address"}],"stateMutability":"view","type":"function"},{"inputs":[{"internalType":"address","name":"user","type":"address"},{"internalType":"uint256[]","name":"depositIndices","type":"uint256[]"}],"name":"unlockDepositsForUser","outputs":[],"stateMutability":"nonpayable","type":"function"},{"inputs":[],"name":"usdc","outputs":[{"internalType":"contract IERC20","name":"","type":"address"}],"stateMutability":"view","type":"function"},{"inputs":[{"internalType":"address","name":"","type":"address"}],"name":"userClaimableUtilityETH","outputs":[{"internalType":"uint256","name":"","type":"uint256"}],"stateMutability":"view","type":"function"},{"inputs":[{"internalType":"address","name":"","type":"address"}],"name":"userClaimableUtilityUSDC","outputs":[{"internalType":"uint256","name":"","type":"uint256"}],"stateMutability":"view","type":"function"},{"inputs":[{"internalType":"address","name":"","type":"address"},{"internalType":"uint256","name":"","type":"uint256"}],"name":"userDeposits","outputs":[{"internalType":"uint96","name":"amount","type":"uint96"},{"internalType":"uint96","name":"yieldReceived","type":"uint96"},{"internalType":"uint48","name":"timestamp","type":"uint48"},{"internalType":"uint48","name":"withdrawnAt","type":"uint48"},{"internalType":"enum PoolPandoras.TokenType","name":"token","type":"uint8"},{"internalType":"uint8","name":"flags","type":"uint8"}],"stateMutability":"view","type":"function"},{"inputs":[{"internalType":"address","name":"","type":"address"}],"name":"userTotalReinvestedETH","outputs":[{"internalType":"uint256","name":"","type":"uint256"}],"stateMutability":"view","type":"function"},{"inputs":[{"internalType":"address","name":"","type":"address"}],"name":"userTotalReinvestedUSDC","outputs":[{"internalType":"uint256","name":"","type":"uint256"}],"stateMutability":"view","type":"function"},{"inputs":[],"name":"utilityAddress","outputs":[{"internalType":"address","name":"","type":"address"}],"stateMutability":"view","type":"function"},{"inputs":[{"internalType":"uint256","name":"proposalId","type":"uint256"},{"internalType":"bool","name":"support","type":"bool"}],"name":"vote","outputs":[],"stateMutability":"nonpayable","type":"function"},{"inputs":[],"name":"whitelistEnabled","outputs":[{"internalType":"bool","name":"","type":"bool"}],"stateMutability":"view","type":"function"},{"inputs":[{"internalType":"uint256","name":"depositIndex","type":"uint256"}],"name":"withdraw","outputs":[],"stateMutability":"nonpayable","type":"function"},{"inputs":[{"internalType":"address","name":"to","type":"address"},{"internalType":"uint256","name":"amount","type":"uint256"}],"name":"withdrawForInvestmentETH","outputs":[],"stateMutability":"nonpayable","type":"function"},{"inputs":[{"internalType":"address","name":"to","type":"address"},{"internalType":"uint256","name":"amount","type":"uint256"}],"name":"withdrawForInvestmentUSDC","outputs":[],"stateMutability":"nonpayable","type":"function"},{"inputs":[{"internalType":"uint256","name":"amount","type":"uint256"}],"name":"withdrawUtilityETH","outputs":[],"stateMutability":"nonpayable","type":"function"},{"inputs":[{"internalType":"uint256","name":"amount","type":"uint256"}],"name":"withdrawUtilityUSDC","outputs":[],"stateMutability":"nonpayable","type":"function"},{"inputs":[{"internalType":"uint256","name":"","type":"uint256"}],"name":"withdrawnUsers","outputs":[{"internalType":"address","name":"","type":"address"}],"stateMutability":"view","type":"function"},{"stateMutability":"payable","type":"receive"}],"evm":{"bytecode":{"linkReferences":{},"object":"60c0604052346200028b576200562f803803806200001d81620002a6565b9283398101906080818303126200028b5780516001600160401b03908181116200028b57820183601f820112156200028b578051918211620002905760059382851b602092838062000071818501620002a6565b8097815201928201019283116200028b5783809101915b8383106200027057509050620000a191508401620002cc565b93620000be6060620000b660408701620002cc565b9501620002cc565b9460019485805560805262ed4e006002556a0422ca8b0a00a42500000060035560049265048c27395000845566038d7ea4c680008355620f42406006556000948560075560018060a01b0392838116156200025f5760088054600160501b600160f01b03191660509290921b600160501b600160f01b031691909117905596821660a0529395869490865b620001be575b604051614df790816200081882396080518181816121e301528181612ecb0152614a4d015260a05181818161048101528181610f2501528181611a3e01528181611d20015281816122b8015281816124f201528181612ad501528181612dd1015281816132f301526136dc0152f35b805188101562000259576200023083838a871b8401015116620001e181620002e1565b50620001ed816200036e565b50620001f9816200041d565b506200020581620004bd565b5062000211816200055d565b506200021d81620005fd565b5062000229816200069d565b506200073d565b5060001988146200024657868098019762000149565b634e487b7160e01b865260118552602486fd5b6200014f565b60405163d92e233d60e01b81528690fd5b81906200027d84620002cc565b815201910190839062000088565b600080fd5b634e487b7160e01b600052604160045260246000fd5b6040519190601f01601f191682016001600160401b038111838210176200029057604052565b51906001600160a01b03821682036200028b57565b6001600160a01b0390811660008181527fad3228b676f7d3cd4284a5443f17f1962b36e491b30a40b2405849e597ba5fb5602052604081205490929060ff166200036957828052826020526040832082845260205260408320600160ff198254161790556200034f620007d8565b16916000805160206200560f8339815191528180a4600190565b505090565b6001600160a01b0390811660008181527f7d7ffb7a348e1c6a02869081a26547b49160dd3df72d1d75a570eb9b698292ec602052604081205490927fa49807205ce4d355092ef5a8a18f56e8913cf4a201fbe287825b095693c217759160ff1662000417576000805160206200560f83398151915290828552846020526040852084865260205260408520600160ff198254161790556200040e620007d8565b169380a4600190565b50505090565b6001600160a01b0390811660008181527ff7c9542c591017a21c74b6f3fab6263c7952fc0aaf9db4c22a2a04ddc7f8674f602052604081205490927f65d7a28e3265b37a6474929f336521b332c1681b933f6cb9f3376673440d862a9160ff1662000417576000805160206200560f83398151915290828552846020526040852084865260205260408520600160ff198254161790556200040e620007d8565b6001600160a01b0390811660008181527f2eb8dcb37180405b14a1bdb0a7c9bf5c42acb064f7e582ada9a56e709d942e57602052604081205490927fc806897caf4fd5068191157e44d3988e43139a37e0b97b6793e1ed11841406049160ff1662000417576000805160206200560f83398151915290828552846020526040852084865260205260408520600160ff198254161790556200040e620007d8565b6001600160a01b0390811660008181527f9505c8401a8a13f8b514b3efaaa61be2dc9810e3f02fbd8edeba297fdd793d65602052604081205490927ff60566c40710959d8d30b6067ce3c53c757bec78eecb0e46b83c7f8194ffae379160ff1662000417576000805160206200560f83398151915290828552846020526040852084865260205260408520600160ff198254161790556200040e620007d8565b6001600160a01b0390811660008181527fca62ffb99fa36d4130bbee1a8581c4d2fd87e1d2bf4a5e65538ad96ae66582c9602052604081205490927f78c90eb9e475048b483a290aee04b5fe48355537c3623c7637b17d3bed71c6ed9160ff1662000417576000805160206200560f83398151915290828552846020526040852084865260205260408520600160ff198254161790556200040e620007d8565b6001600160a01b0390811660008181527fe84508f2c7fa9c351146748b3025cb78b45df37d868e48c6a75102fecdeee645602052604081205490927f241ecf16d79d0f8dbfb92cbc07fe17840425976cf0667f022fe9877caa831b089160ff1662000417576000805160206200560f83398151915290828552846020526040852084865260205260408520600160ff198254161790556200040e620007d8565b6001600160a01b0390811660008181527f45f124abc56411fa20fb79132d4e5e0dad891ecf0313a820e14c2799f454ad5b602052604081205490927f8a21e8fdae6c23863f7de5307e2e7162c88dab602a41610addb5f1505d2593989160ff1662000417576000805160206200560f83398151915290828552846020526040852084865260205260408520600160ff198254161790556200040e5b60143610158062000802575b15620007fe5760131936013681116200028b573560601c90565b3390565b506080516001600160a01b03163314620007e456fe6080604052600436101561001b575b361561001957600080fd5b005b60003560e01c8063013cf08b1461434e57806301ffc9a7146142f85780630386a0161461429157806304c68af014614257578063052d9e7e1461421857806308f43333146141745780630c016ad5146141395780630ce0ebf414613d4557806315b3958e14613d0a57806317b5164214613c815780631c5aeef714613c63578063246d47b714613c3d578063248a9ca314613c0e57806327175b2314613bf0578063275991d2146139b25780632a5bf6d21461389e5780632aad5edd146138805780632b9c4ede146138625780632e1a7d4d146134495780632f2ff15d1461340a5780633408567c146133d057806336568abe1461337f5780633ac43970146133615780633af32abf146133225780633e413bee146132dd57806341debf1f1461324157806343859632146131f457806347af19aa146131235780634e43603a14612f9657806351fb012d14612f7057806353d6fd5914612ef2578063572b6c0514612ea2578063588583a014612e7a5780635983b0bd14612d525780635e2c19db14612d135780636068d6cb14612cf057806364021b1314612c7c5780636426be4814612b9d57806365d5ec9614612b5e5780636c6ff56c14612a4e5780636ec23995146129ed57806372e55399146123ee57806375b238fc146123b3578063762e1c731461234d57806376c1d3db1461224d5780637bd05cf5146122305780637c48373b146122125780637da0a877146121cd578063867d099a1461205d578063885f502914612022578063886d589d14611fe8578063899aa99114611fca57806389bad0a614611f2c5780638a2e98f314611e6f5780638b713b2e14611e515780638dd4928e14611cc557806391d1485414611c7857806393055c4314611bd957806397d9e5b414611bbb5780639ddc391214611b9d5780639e657e3314611b42578063a217fddf14611b26578063a59aa5a614611a11578063a6317f2a146119f3578063a6c26603146119cf578063b2118a8d14611901578063b2b77ae2146118db578063b65ba94b146118bd578063b758aeaa146117e6578063bb4d4436146117c0578063bda821e814611584578063c6d95b74146114bf578063c771c39014611473578063c9d27afe14611268578063cceb68f514611006578063d547741f14610fc7578063d830d5cc14610ec5578063da35c66414610ea7578063da8d5add14610e19578063e043b2b214610dde578063e0912d2a14610d0a578063e15e23c114610cec578063e340b78314610cce578063e399067f14610c05578063e63ab1e914610bca578063e9fe0c7814610b90578063ec87621c14610b55578063ee947a7c14610b37578063f29b223914610b0a578063f5f1135014610a84578063f5f69af214610a19578063f6326fb3146107e9578063f688bcfb1461044d5763fd46a1710361000e5734610448576000366003190112610448576020601a54604051908152f35b600080fd5b3461044857602080600319360112610448576004359061046b614b07565b60085460ff81166107d7576001600160a01b03907f000000000000000000000000000000000000000000000000000000000000000082169081156107c55760065485106107b3576104be85601354614abb565b600454106107a15760101c60ff1680610780575b61076e578284610522926104e4614a22565b6040516323b872dd60e01b81526001600160a01b03909116600482015230602482015260448101929092529092839190829060009082906064820190565b03925af1801561076257610735575b5061053a614a22565b169182600052600982526040600020926040519361055785614470565b6001600160601b03808416865284860160008152604087019665ffffffffffff908142168952606081019360008552608082019360019a8b865260a0840197600089528054600160401b81101561071f576105b6918e820181556145f7565b9390936107095793518354925191516001600160f01b031990931694169390931760609390931b600160601b600160c01b03169290921760c09290921b65ffffffffffff60c01b169190911781559251928801805492519190931693909160028310156106f3576106579460ff60301b60ff9460301b169166ffffffffffffff191617178355511660ff60381b82549160381b169060ff60381b1916179055565b8060005260108352604060002084815460ff8116156106e4575b505060098452506040600020546000198101939084116106ce5760a0600080516020614d82833981519152916106c7958560405192898452830152426040830152606082015260006080820152a2601354614abb565b6013558055005b634e487b7160e01b600052601160045260246000fd5b60ff1916179055848481610671565b634e487b7160e01b600052602160045260246000fd5b634e487b7160e01b600052600060045260246000fd5b634e487b7160e01b600052604160045260246000fd5b61075490833d851161075b575b61074c81836144a6565b810190614b2a565b5083610531565b503d610742565b6040513d6000823e3d90fd5b604051630b094f2760e31b8152600490fd5b508161078a614a22565b16600052600a835260ff60406000205416156104d2565b604051636bf4c8e960e11b8152600490fd5b60405163162908e360e11b8152600490fd5b60405163d92e233d60e01b8152600490fd5b60405163deeb694360e01b8152600490fd5b6000366003190112610448576107fd614b07565b60085460ff81166107d75760055434106107b35761081d34601254614abb565b600354106107a15760101c60ff16806109f0575b61076e576001600160a01b03610845614a22565b16806000526009602052604060002060405161086081614470565b6001600160601b03908134168152602081019160008352604082019165ffffffffffff91824216845260608201946000865260808301946000865260a0840197600089528054600160401b81101561071f576108c1916001820181556145f7565b9390936107095793518354925191516001600160f01b031990931694169390931760609390931b600160601b600160c01b03169290921760c09290921b65ffffffffffff60c01b169190911781559251600193909301805492519190931693909160028310156106f3576109659460ff60301b60ff9460301b169166ffffffffffffff191617178355511660ff60381b82549160381b169060ff60381b1916179055565b8060005260106020526040600020805460ff8116156109e0575b5050600960205260406000205460001981019081116106ce5760a0600080516020614d82833981519152916040519060008252346020830152426040830152606082015260006080820152a26109d734601254614abb565b60125560018055005b60ff19166001179055818061097f565b506001600160a01b03610a01614a22565b16600052600a60205260ff6040600020541615610831565b3461044857610a273661471c565b610a2f61473b565b60028210156106f3577f5d7976bccd4b396c1a1a0020032e62bf8a381bcffc61e69a13ea61761b7572189160409181610a7b57806003555b610a7383518093614629565b6020820152a1005b80600455610a67565b3461044857610a92366146dd565b90610a9b61473b565b60005b828110610aa757005b610b059060018060a01b0385166000526009602052610b006001610adb6040600020610ad4858989614a8a565b35906145f7565b5001805460ff60381b198116603891821c60ff1660041790911b60ff60381b16179055565b614a7b565b610a9e565b346104485760003660031901126104485760085460405160509190911c6001600160a01b03168152602090f35b34610448576000366003190112610448576020600254604051908152f35b346104485760003660031901126104485760206040517f241ecf16d79d0f8dbfb92cbc07fe17840425976cf0667f022fe9877caa831b088152f35b34610448576020366003190112610448576001600160a01b03610bb16145ad565b16600052600d6020526020604060002054604051908152f35b346104485760003660031901126104485760206040517f65d7a28e3265b37a6474929f336521b332c1681b933f6cb9f3376673440d862a8152f35b3461044857600036600319011261044857610c1e614b07565b610c26614a22565b6001600160a01b0381166000818152600c602052604090205490918115610cbc5760008080848194878352600c6020528260408120555af1610c66614ac8565b5015610caa5760607f6914793c7a82461acec66c7de7fdbbbf1f825c26bc2fe939b61f0e4f8964c2b59160405190600082526020820152426040820152a260018055005b6040516312171d8360e31b8152600490fd5b604051633bd65a7b60e21b8152600490fd5b34610448576000366003190112610448576020601554604051908152f35b34610448576000366003190112610448576020601954604051908152f35b3461044857610d183661471c565b90610d2161473b565b60028110156106f3577fe2020ccdffc33d6bd83958b54f2a2c8ff6a9ed4c929f154aa10fe7f5ff238b2291610d9d91158015610dd557816005555b15610da857604051610d6d8161448b565b600d81526c0dad2dc88cae0dee6d2e88aa89609b1b6020820152905b60405192839260408452604084019061456d565b9060208301520390a1005b604051610db48161448b565b600e81526d6d696e4465706f7369745553444360901b602082015290610d89565b81600655610d5c565b346104485760003660031901126104485760206040517fc806897caf4fd5068191157e44d3988e43139a37e0b97b6793e1ed11841406048152f35b3461044857600036600319011261044857610e3261473b565b60085460ff8160181c16610e955763010000009069ffffffffffff000000004260201b169069ffffffffffffff000000191617176008557f2388ceaed48d21bd0802856df41a22705f9046a67a817a047352aa3bbfe5c5d16020604051428152a1005b60405163ae7fe58960e01b8152600490fd5b34610448576000366003190112610448576020601c54604051908152f35b3461044857602036600319011261044857600435610ee1614815565b80156107b35780610ef0614a22565b6040516323b872dd60e01b81526001600160a01b039182166004820152306024820152604481019290925260208260648160007f000000000000000000000000000000000000000000000000000000000000000086165af1908115610762577f8bafec96fcffb6f12596b4635c76397b7bc1f363b22c49c13136b63677323dcc92606092610fa9575b50610f8684601754614abb565b601755610f91614a22565b604051946001865260208601524260408601521692a2005b610fc09060203d811161075b5761074c81836144a6565b5084610f79565b3461044857604036600319011261044857610019600435610fe66145c3565b908060005260006020526110016001604060002001546148ef565b6149b0565b3461044857600036600319011261044857601c5461102381614d56565b61103060405191826144a6565b818152601f1961103f83614d56565b0160005b81811061120b575050600191825b81811115611141578284604051918291602090818401828552835180915260408501928060408360051b8801019501936000905b8382106110925787870388f35b918496819592949698508190603f198b82030185528951908151815260018060a01b038383015116838201526110ed6110da604084015161014080604086015284019061456d565b606080850151908483039085015261456d565b916080808201519083015260a0808201519083015260c0808201519083015260e081015160e08301526101008082015115159083015261012080910151151591015298019201920187969593919492611085565b80600052602090601d8252604060002060001982018281116106ce5761120693611200926040519161117283614454565b81548352898201546001600160a01b031690830152611193600282016144c7565b60408301526111a4600382016144c7565b606083015260048101546080830152600581015460a0830152600681015460c0830152600781015460e083015260088091015460ff9182821615156101008501521c1615156101208201526111f98288614d6d565b5285614d6d565b50614a7b565b611051565b60209060405161121a81614454565b600081528260008183015260608060408401528083015260006080830152600060a0830152600060c0830152600060e083015260006101008301526000610120830152828601015201611043565b34610448576040366003190112610448576004356112846145e8565b9061128d614b07565b80600052602091601d8352604060002060ff600882015416156114385760058101544211611404576000838152601e8552604090206001600160a01b0390816112d4614a22565b16600052855260ff604060002054166113cf576112f76112f2614a22565b614c80565b91821561139857917f7c2de587c00d75474a0c6c6fa96fd3b45dc974cd4e8a75f712bb84c950dce1b5939160409386600052601e8852846000208261133a614a22565b16600052885284600020600160ff198254161790558360001461138357600601611365838254614abb565b90555b611370614a22565b169583519215158352820152a360018055005b600701611391838254614abb565b9055611368565b60405162461bcd60e51b815260048101879052600f60248201526e2737902b37ba34b733902837bbb2b960891b6044820152606490fd5b60405162461bcd60e51b815260048101869052600d60248201526c105b1c9958591e481d9bdd1959609a1b6044820152606490fd5b60405162461bcd60e51b815260048101859052600c60248201526b159bdd1a5b99c8195b99195960a21b6044820152606490fd5b60405162461bcd60e51b815260048101859052601360248201527250726f706f73616c206e6f742061637469766560681b6044820152606490fd5b34610448576020366003190112610448577fc5e00a325524bc148ddc05bb642b804e9ae1dfc670c217ed3c4c6595f7427ef460206004356114b261473b565b80600255604051908152a1005b34610448576040366003190112610448576114d86145ad565b6024356114e36147a8565b6114eb614b07565b6001600160a01b038281169283156107c557478311611572576000808085819461151782601a54614abb565b601a555af1611524614ac8565b5015610caa5760607f8d4f9c9a6da9172da9a02229d92e4af088c62953986a74048d010260b197def391611556614a22565b604051946000865260208601524260408601521692a360018055005b604051631e9acf1760e31b8152600490fd5b346104485760003660031901126104485761159d614b07565b6001600160a01b036115ad614a22565b1680600052602090600d82526040600020548015610cbc5781600052600d83526000604081205560098352604060002092604051936115eb85614470565b6001600160601b03808416865282860160008152604087019665ffffffffffff908142168952606081019360008552608082019360019a8b865260a0840197600889528054600160401b81101561071f5761164a918e820181556145f7565b9390936107095793518354925191516001600160f01b031990931694169390931760609390931b600160601b600160c01b03169290921760c09290921b65ffffffffffff60c01b169190911781559251928801805492519190931693909160028310156106f3576116eb9460ff60301b60ff9460301b169166ffffffffffffff191617178355511660ff60381b82549160381b169060ff60381b1916179055565b8260005260108152604060002084815460ff8116156117b1575b505060098252506040600020546000198101919082116106ce577f997d2ec09b086de73d509bbc4ad2b52fd7e2338024464bede93a41abd6ccdc389284600080516020614d8283398151915260a0606095604051908a8252858783015242604083015287820152896080820152a261177f81601954614abb565b60195584600052600f8252604060002061179a828254614abb565b905560405191868352820152426040820152a28055005b60ff1916179055848481611705565b346104485760203660031901126104485760206117de6112f26145ad565b604051908152f35b34610448576117f436614693565b92916117fe61473b565b8381036118ab579291906000936000935b818510611841576016548681811161182f5761182a91614b42565b601655005b604051632f37549d60e01b8152600490fd5b9091929394611851868386614a8a565b359081156107b3576118a29161189c916001600160a01b0361187c6118778b898c614a8a565b614aa7565b16600052600c6020526040600020611895838254614abb565b9055614abb565b95614a7b565b9392919061180f565b60405163512509d360e11b8152600490fd5b34610448576000366003190112610448576020601654604051908152f35b3461044857600036600319011261044857602060ff60085460081c166040519015158152f35b346104485760603660031901126104485761191a6145ad565b6119226145c3565b6044359161192e61473b565b6001600160a01b03828116939084156107c55760405163a9059cbb60e01b81526001600160a01b03949094166004850152602484018290529190911691906020826044816000875af1908115610762577f8bbfbb5d7fcacf6fc74005cdede0635561638507f576c95f7f294c22141be2e5926020926119b2575b50604051908152a3005b6119c890833d811161075b5761074c81836144a6565b50856119a8565b34610448576000366003190112610448576020604051681b1ae4d6e2ef5000008152f35b34610448576000366003190112610448576020600754604051908152f35b34610448576000366003190112610448576040516370a0823160e01b8152306004820152476020826024817f00000000000000000000000000000000000000000000000000000000000000006001600160a01b03165afa801561076257600090611af3575b6101c09250601254601354601454601554601654601754906018549260195494601a5496601b54986011549a6040519c8d5260208d015260408c015260608b015260808a015260a089015260c088015260e087015261010086015261012085015261014084015261016083015260006101808301526101a0820152f35b506020823d8211611b1e575b81611b0c602093836144a6565b81010312610448576101c09151611a76565b3d9150611aff565b3461044857600036600319011261044857602060405160008152f35b34610448576020366003190112610448576004356011548110156104485760116000527f31ecc21a745e3968a04e9570e4425bc18fa8019c68028196b546d1669c200c6801546040516001600160a01b039091168152602090f35b34610448576000366003190112610448576020600354604051908152f35b34610448576000366003190112610448576020601854604051908152f35b3461044857602036600319011261044857600435611bf5614882565b611bfd614b07565b6008546001600160a01b039060501c811680156107c55747831161157257600080808581945af1611c2c614ac8565b5015610caa5760607f9adbdc797aca3ce26a722598f00149b2328fd124444e6d0b10c4bdc7cfc381969160085460501c169260405190600082526020820152426040820152a260018055005b3461044857604036600319011261044857611c916145c3565b600435600052600060205260406000209060018060a01b0316600052602052602060ff604060002054166040519015158152f35b3461044857604036600319011261044857611cde6145ad565b60243590611cea6147a8565b611cf2614b07565b6001600160a01b038181169290919083156107c5576040516370a0823160e01b8152306004820152602093907f00000000000000000000000000000000000000000000000000000000000000008216908581602481855afa90811561076257600091611e24575b50831161157257828591611dae95611d7383601b54614abb565b601b5560405163a9059cbb60e01b81526001600160a01b03909116600482015260248101929092529094859190829060009082906044820190565b03925af1918215610762577f8d4f9c9a6da9172da9a02229d92e4af088c62953986a74048d010260b197def393606093611e07575b50611dec614a22565b9060405195600187528601524260408601521692a360018055005b611e1d90863d881161075b5761074c81836144a6565b5086611de3565b90508581813d8311611e4a575b611e3b81836144a6565b81010312610448575187611d59565b503d611e31565b34610448576000366003190112610448576020601454604051908152f35b3461044857602036600319011261044857600435611e8b61473b565b6127108111611ef9576080817fe2020ccdffc33d6bd83958b54f2a2c8ff6a9ed4c929f154aa10fe7f5ff238b22926007556040519060408252601960408301527f6561726c795769746864726177616c50656e616c74794270730000000000000060608301526020820152a1005b60405162461bcd60e51b815260206004820152600b60248201526a496e76616c69642042505360a81b6044820152606490fd5b3461044857602036600319011261044857611f456145ad565b611f4d61473b565b6001600160a01b0381169081156107c557600880547fffff0000000000000000000000000000000000000000ffffffffffffffffffff1660509290921b600160501b600160f01b03169190911790556040519081527f1d6240e71a77c9e9d07d1d6ecbb9ea4274fcc8bc19adc5b05a3548ac7e40e18990602090a1005b34610448576000366003190112610448576020601254604051908152f35b34610448576020366003190112610448576001600160a01b036120096145ad565b16600052600e6020526020604060002054604051908152f35b346104485760003660031901126104485760206040517f78c90eb9e475048b483a290aee04b5fe48355537c3623c7637b17d3bed71c6ed8152f35b346104485761206b366146dd565b91612074614a22565b6001600160a01b0390811660008181527f2eb8dcb37180405b14a1bdb0a7c9bf5c42acb064f7e582ada9a56e709d942e57602090815260409091205490959294929160ff917fc806897caf4fd5068191157e44d3988e43139a37e0b97b6793e1ed1184140604908316156121af57505060005b82811061212d57604051878152858716907f8b655a966f162e1d3686ea25cd61682331984ab5662b451deff96f12d716f45b9080612128818c01888a614bf1565b0390a2005b8585166000526009875261214a6040600020610ad4838688614a8a565b5090600180920191825460381c908116158015906121a3575b61219157825460ff60381b191690841660021760381b60ff60381b161790915561218c90614a7b565b6120e7565b60405163181821bd60e11b8152600490fd5b50600281161515612163565b604492506040519163e2517d3f60e01b835260048301526024820152fd5b34610448576000366003190112610448576040517f00000000000000000000000000000000000000000000000000000000000000006001600160a01b03168152602090f35b34610448576000366003190112610448576020600654604051908152f35b346104485760003660031901126104485760206040516107d08152f35b3461044857602036600319011261044857600435612269614882565b612271614b07565b60085460501c6001600160a01b039081169081156107c55760405163a9059cbb60e01b81526001600160a01b039290921660048301526024820183905260208260448160007f000000000000000000000000000000000000000000000000000000000000000086165af1908115610762577f9adbdc797aca3ce26a722598f00149b2328fd124444e6d0b10c4bdc7cfc381969260609261232f575b5060085460501c169260405190600182526020820152426040820152a260018055005b6123469060203d811161075b5761074c81836144a6565b508461230c565b34610448576040366003190112610448576123666145ad565b60243561237161473b565b80156107b357601754811161182f576123ae9160018060a01b0316600052600d60205260406000206123a4828254614abb565b9055601754614b42565b601755005b346104485760003660031901126104485760206040517fa49807205ce4d355092ef5a8a18f56e8913cf4a201fbe287825b095693c217758152f35b34610448576020366003190112610448576004356001600160401b0381116104485761241e903690600401614663565b90612427614b07565b60ff60085460081c166129db5761243c614a22565b60009283929183808080805b86811061269f57508061268a575b5080612675575b506001600160a01b0383166000908152600b602052604090205460ff16158061266c575b61263b575b6124908183614abb565b6125b2575b50506124a18486614abb565b6124ac575b60018055005b8360206124bc6124ec9688614abb565b60405163a9059cbb60e01b81526001600160a01b0385166004820152602481019190915295869081906044820190565b038160007f00000000000000000000000000000000000000000000000000000000000000006001600160a01b03165af1948515610762577fbf06e98fe211a4b82f625232ab1c7a75caea5e0d624bc267578d6f22fce788c395612593575b506125696040519485946001865260a0602087015260a0860191614bf1565b604084019690965260608301524260808301526001600160a01b0316930390a280808080806124a6565b6125ab9060203d60201161075b5761074c81836144a6565b508661254a565b60008080806125c18587614abb565b875af16125cc614ac8565b5015610caa577fbf06e98fe211a4b82f625232ab1c7a75caea5e0d624bc267578d6f22fce788c390604051906000825260a0602083015261261160a083018789614bf1565b604083019490945260608201524260808201526001600160a01b0384169281900390a28580612495565b61264483614b62565b6001600160a01b0383166000908152600b60205260409020805460ff19166001179055612486565b50831515612481565b61268190601554614abb565b6015558761245d565b61269690601454614abb565b60145588612456565b6126ae81888a97949697614a8a565b3560018060a01b03871660005260096020526126ce8160406000206145f7565b5094600186015460018160381c166129c9576126f9875465ffffffffffff6002549160c01c16614abb565b4210806129bb575b80612996575b61297d575b600160ff6127379260381c1617600188019060ff60381b82549160381b169060ff60381b1916179055565b65ffffffffffff421665ffffffffffff1960018801541617918260018801558654916001600160601b0383169384908b60009261278160025465ffffffffffff8960c01c16614abb565b42108061296f575b8061294a575b6128bd575b5050600260ff8260301c1610156106f35760301c60ff166128505761282e600080516020614da28339815191529360ff60016128018f958a6127e7816128369e9d9c9a846127ed9561283b575b50614abb565b9d614abb565b9e6001600160601b038860601c1690614abb565b9c5b015460301c169360405194859460018060a01b0316976001600160601b03429360601c169186614bc6565b0390a2614a7b565b612448565b6128486016918254614abb565b9055386127e1565b9d61286e8b9e9f958099878297959a9d9c9699986128b05750614abb565b9761287891614abb565b9d8160601c6001600160601b031661288f91614abb565b9c61282e6128369660ff6001600080516020614da283398151915296612803565b6128486017918254614abb565b600754806128cc575b50612794565b88945061290d61271061290561293f937f4515dd4239fbbcde39ac2bd5b1d60b7ccae104945f1429d0fa69eea33447885895969c614b4f565b048096614b42565b604080516001600160601b039095168552602085018790524290850152986001600160a01b0316929081906060820190565b0390a28b38806128c6565b5060ff60085460181c1680612960575b1561278f565b5060048360381c16151561295a565b5060028360381c1615612789565b60075461270c5760405163f38b9b5b60e01b8152600490fd5b5060ff60085460181c16806129ac575b15612707565b5060048160381c1615156129a6565b5060028160381c1615612701565b604051636507689f60e01b8152600490fd5b604051636022a9e760e01b8152600490fd5b3461044857604036600319011261044857612a066145ad565b602435612a1161473b565b80156107b357601654811161182f5761182a9160018060a01b0316600052600c6020526040600020612a44828254614abb565b9055601654614b42565b3461044857600036600319011261044857612a67614b07565b612a6f614a22565b6001600160a01b038181166000818152600d60209081526040909120549193928215610cbc576000858152600d835260408082208290555163a9059cbb60e01b81526001600160a01b0395909516600486015260248501849052829185916044918391907f0000000000000000000000000000000000000000000000000000000000000000165af1918215610762577f6914793c7a82461acec66c7de7fdbbbf1f825c26bc2fe939b61f0e4f8964c2b593606093612b41575b506040519160018352820152426040820152a260018055005b612b5790833d851161075b5761074c81836144a6565b5085612b28565b34610448576020366003190112610448576001600160a01b03612b7f6145ad565b166000526010602052602060ff604060002054166040519015158152f35b3461044857604036600319011261044857612bb66145d9565b612bbe6145e8565b90612bc7614a22565b6001600160a01b031660008181527ff7c9542c591017a21c74b6f3fab6263c7952fc0aaf9db4c22a2a04ddc7f8674f60205260409020547f65d7a28e3265b37a6474929f336521b332c1681b933f6cb9f3376673440d862a9060ff16156121af577fac1664632d6278432aa05a6afc0aa83e5ea08e8df9a1436736daa5d6283211c0604085851515906008549015159061ff008260081b169060ff84169061ffff1916171760085582519182526020820152a1005b600036600319011261044857612c90614815565b34156107b357612ca234601654614abb565b601655612cad614a22565b7f8bafec96fcffb6f12596b4635c76397b7bc1f363b22c49c13136b63677323dcc6060604051926000845234602085015242604085015260018060a01b031692a2005b3461044857600036600319011261044857602060ff600854166040519015158152f35b34610448576020366003190112610448576001600160a01b03612d346145ad565b16600052600b602052602060ff604060002054166040519015158152f35b3461044857602036600319011261044857600435612d6e6147a8565b612d76614b07565b80156107b357601b54808211612e685781612d9091614b42565b601b5580612d9c614a22565b6040516323b872dd60e01b81526001600160a01b039182166004820152306024820152604481019290925260208260648160007f000000000000000000000000000000000000000000000000000000000000000086165af1908115610762577f1b0029d3a4003762f16d0dc71199ce167b1d4bf00c5b97a3e28f613e921d654092606092612e4a575b50612e2e614a22565b604051946001865260208601524260408601521692a260018055005b612e619060203d811161075b5761074c81836144a6565b5084612e25565b604051630471131160e21b8152600490fd5b3461044857600036600319011261044857602060085465ffffffffffff60405191831c168152f35b34610448576020366003190112610448576020612ebd6145ad565b6040519060018060a01b03807f0000000000000000000000000000000000000000000000000000000000000000169116148152f35b3461044857604036600319011261044857612f0b6145ad565b7f995d2434d36c9bceaab42c56efe51e8ffe41fd11cabefd9e2cb83700d8b2035e6020612f366145e8565b92612f3f61473b565b6001600160a01b03166000818152600a835260409020805460ff191660ff86151516179055926040519015158152a2005b3461044857600036600319011261044857602060ff60085460101c166040519015158152f35b3461044857602036600319011261044857612faf6145ad565b6001600160a01b031660008181526009602052604081208054919283928392839283928392835b82811061302b575050509561010096600052600c60205260406000205491600d60205260406000205493604051978852602088015260408701526060860152608085015260a084015260c083015260e0820152f35b61303e61303882846145f7565b50614c15565b9860a08a019960088b51161515608082015160028110156106f3576130c15760016130756001600160601b03948585511690614abb565b9c51166130ac575b613092575b505061308d90614a7b565b612fd6565b976130a49161308d9399511690614abb565b96908b613082565b966130bb908383511690614abb565b9661307d565b60016130dd6001600160601b039d9a949d948585511690614abb565b99511661310e575b6130f457505061308d90614a7b565b986131069161308d939a511690614abb565b97908b613082565b9b61311d908383511690614abb565b9b6130e5565b346104485761313136614693565b61313961473b565b8083036118ab5760005b83811061314c57005b8061316361315e6131ef938587614a8a565b614a9a565b6001600160a01b03907f995d2434d36c9bceaab42c56efe51e8ffe41fd11cabefd9e2cb83700d8b2035e908261319d611877868b8d614a8a565b166000526131c1602091600a835260406000209060ff801983541691151516179055565b6131cf611877858a8c614a8a565b926131de61315e86898b614a8a565b9360405194151585521692a2614a7b565b613143565b346104485760403660031901126104485761320d6145c3565b600435600052601e60205260406000209060018060a01b0316600052602052602060ff604060002054166040519015158152f35b346104485761324f36614693565b929161325961473b565b8381036118ab579291906000936000935b818510613285576017548681811161182f576123ae91614b42565b9091929394613295868386614a8a565b359081156107b3576132d49161189c916001600160a01b036132bb6118778b898c614a8a565b16600052600d6020526040600020611895838254614abb565b9392919061326a565b34610448576000366003190112610448576040517f00000000000000000000000000000000000000000000000000000000000000006001600160a01b03168152602090f35b34610448576020366003190112610448576001600160a01b036133436145ad565b16600052600a602052602060ff604060002054166040519015158152f35b34610448576000366003190112610448576020601754604051908152f35b34610448576040366003190112610448576133986145c3565b6001600160a01b03806133a9614a22565b16908216036133be57610019906004356149b0565b60405163334bd91960e11b8152600490fd5b34610448576020366003190112610448576001600160a01b036133f16145ad565b16600052600c6020526020604060002054604051908152f35b34610448576040366003190112610448576100196004356134296145c3565b908060005260006020526134446001604060002001546148ef565b614929565b3461044857602036600319011261044857613462614b07565b60085460ff8160081c166129db57613478614a22565b9060018060a01b038216600052600960205261349a60043560406000206145f7565b5090600182015460381c90600182166129c9576134c6835465ffffffffffff6002549160c01c16614abb565b42109081613856575b81613835575b5061381c575b600160ff613503921617600183019060ff60381b82549160381b169060ff60381b1916179055565b65ffffffffffff421665ffffffffffff1960018301541617918260018301558154906001600160601b038216938460009161354b60025465ffffffffffff8760c01c16614abb565b42108061380e575b806137e9575b613765575b600260ff8260301c1610156106f35760301c60ff16613673575061358e6001600160601b03855416601454614abb565b6014558061365e575b5060008080806135b36001600160601b038760601c1689614abb565b855af16135be614ac8565b5015610caa5761362960ff6001600080516020614da2833981519152955b818060a01b038516600052600b602052826040600020541615613632575b015460301c169460405193849360018060a01b031696600435926001600160601b03429360601c169186614bc6565b0390a260018055005b61363b85614b62565b818060a01b038516600052600b60205260406000208284198254161790556135fa565b61366a90601654614abb565b60165584613597565b906136846136d69592601554614abb565b60155580613750575b5060206136a66001600160601b038560601c1687614abb565b60405163a9059cbb60e01b81526001600160a01b0385166004820152602481019190915294859081906044820190565b038160007f00000000000000000000000000000000000000000000000000000000000000006001600160a01b03165af19384156107625760016136299260ff92600080516020614da283398151915297613731575b506135dc565b6137499060203d60201161075b5761074c81836144a6565b508861372b565b61375c90601754614abb565b6017558561368d565b60075480613774575b5061355e565b879350613788612710916137909399614b4f565b048093614b42565b604080516001600160601b03841681526020810185905242918101919091529096906001600160a01b038516907f4515dd4239fbbcde39ac2bd5b1d60b7ccae104945f1429d0fa69eea33447885890606090a28761376e565b5060ff60085460181c16806137ff575b15613559565b5060048160381c1615156137f9565b5060028160381c1615613553565b6007546134db5760405163f38b9b5b60e01b8152600490fd5b60ff915060181c168061384a575b15846134d5565b50600481161515613843565b600283161591506134cf565b34610448576000366003190112610448576020600554604051908152f35b34610448576000366003190112610448576020601b54604051908152f35b3461044857602080600319360112610448576001600160a01b036138c06145ad565b166000526009815260406000209081546138d981614d56565b906138e760405192836144a6565b8082528282018094600052836000206000915b8383106139955760408051878152865181890181905289928201908960005b8281106139265784840385f35b9091928260c060019288516001600160601b0380825116835284820151168483015265ffffffffffff80604083015116604084015260609081830151169083015261397960808083015190840190614629565b60ff60a080920151169082015201960191019492919094613919565b6002866001926139a485614c15565b8152019201920191906138fa565b34610448576000366003190112610448576139cb614b07565b6001600160a01b036139db614a22565b1680600052602090600c82526040600020548015610cbc5781600052600c83526000604081205560098352604060002092604051613a1881614470565b6001600160601b03808416825282820160008152604083019265ffffffffffff90814216855260608101936000855260808201936000855260a0830196600888528b54600160401b81101561071f57613a789060019d8e820181556145f7565b9390936107095793518354925191516001600160f01b031990931694169390931760609390931b600160601b600160c01b03169290921760c09290921b65ffffffffffff60c01b169190911781559251928801805492519190931693909160028310156106f357613b199460ff60301b60ff9460301b169166ffffffffffffff191617178355511660ff60381b82549160381b169060ff60381b1916179055565b8260005260108152604060002084815460ff811615613be1575b505060098252506040600020546000198101919082116106ce577f997d2ec09b086de73d509bbc4ad2b52fd7e2338024464bede93a41abd6ccdc389284600080516020614d8283398151915260a06060956040519060008252858783015242604083015287820152896080820152a2613bae81601854614abb565b60185584600052600e82526040600020613bc9828254614abb565b90556040519160008352820152426040820152a28055005b60ff1916179055848481613b33565b34610448576000366003190112610448576020601354604051908152f35b346104485760203660031901126104485760043560005260006020526020600160406000200154604051908152f35b3461044857600036600319011261044857602060ff60085460181c166040519015158152f35b34610448576000366003190112610448576020600454604051908152f35b600036600319011261044857613c956147a8565b613c9d614b07565b34156107b357601a54803411612e6857613cb8903490614b42565b601a55613cc3614a22565b7f1b0029d3a4003762f16d0dc71199ce167b1d4bf00c5b97a3e28f613e921d65406060604051926000845234602085015242604085015260018060a01b031692a260018055005b346104485760003660031901126104485760206040517f8a21e8fdae6c23863f7de5307e2e7162c88dab602a41610addb5f1505d2593988152f35b34610448576060366003190112610448576004356001600160401b03811161044857613d75903690600401614636565b906024356001600160401b03811161044857613d95903690600401614636565b919092613da0614b07565b613da8614a22565b6001600160a01b031660008181527f45f124abc56411fa20fb79132d4e5e0dad891ecf0313a820e14c2799f454ad5b60205260409020547f8a21e8fdae6c23863f7de5307e2e7162c88dab602a41610addb5f1505d2593989060ff16156121af575050604435156107b357613e1e601c54614a7b565b9283601c5583600052601d602052604060002094848655613e3d614a22565b6001870180546001600160a01b0319166001600160a01b039092169190911790556001600160401b03831161071f57613e79600287015461441a565b601f81116140f2575b50826000601f821160011461408457600091614079575b508360011b906000198560031b1c19161760028701555b6001600160401b03821161071f578190613ecd600388015461441a565b601f8111614026575b50600090601f8311600114613fb557600092613faa575b50508160011b916000199060031b1c19161760038501555b426004850155620151808060443502906044358204036106ce577f98120a6aaa04295520ab4e01c6c1235dd316e822cc9ff31db7b3f197366d18bd926008613f4f60609342614abb565b600588018190559601805460ff19166001179055826001600160a01b03613f74614a22565b1696604051948593604085528160408601528585013760008383018501526020830152601f01601f19168101030190a360018055005b013590508680613eed565b909250600387016000526020600020906000935b601f198416851061400e576001945083601f19811610613ff4575b505050811b016003850155613f05565b0135600019600384901b60f8161c19169055868080613fe4565b81810135835560209485019460019093019201613fc9565b909150600387016000526020600020601f840160051c810160208510614072575b90849392915b601f830160051c82018110614063575050613ed6565b6000815585945060010161404d565b5080614047565b905084013587613e99565b90506002870160005260206000209060005b601f19861681106140da575084601f198116106140c0575b5050600183811b016002870155613eb0565b850135600019600386901b60f8161c1916905586806140ae565b9091602060018192858a013581550193019101614096565b600287016000526020600020601f850160051c810160208610614132575b601f830160051c82018110614126575050613e82565b60008155600101614110565b5080614110565b346104485760003660031901126104485760206040517ff60566c40710959d8d30b6067ce3c53c757bec78eecb0e46b83c7f8194ffae378152f35b346104485760403660031901126104485761418d6145ad565b6001600160a01b03166000908152600960205260409020805460243591908210156104485760c0916141be916145f7565b5060ff60018254920154604051926001600160601b0380821685528160601c16602085015265ffffffffffff8091861c1660408501528116606084015261420d60808401838360301c16614629565b60381c1660a0820152f35b34610448576020366003190112610448576142316145d9565b61423961473b565b62ff000060085491151560101b169062ff0000191617600855600080f35b34610448576020366003190112610448576001600160a01b036142786145ad565b16600052600f6020526020604060002054604051908152f35b34610448576020366003190112610448576004356142ad61473b565b80600052601d602052600860406000200161010061ffff198254161790557faffed5d901d9fbe9106721fa52653ede403c09699f9f810f6d378acc51fb50fa602060405160018152a2005b346104485760203660031901126104485760043563ffffffff60e01b811680910361044857602090637965db0b60e01b811490811561433d575b506040519015158152f35b6301ffc9a760e01b14905082614332565b34610448576020366003190112610448576004356000908152601d60205260409020805460018201546001600160a01b03169160ff61438f600283016144c7565b61439b600384016144c7565b9260048101549360058201546143ea6006840154926143dc60086007870154960154966040519b8c9b8c5260208c01526101408060408d01528b019061456d565b9089820360608b015261456d565b95608088015260a087015260c086015260e0850152818116151561010085015260081c1615156101208301520390f35b90600182811c9216801561444a575b602083101461443457565b634e487b7160e01b600052602260045260246000fd5b91607f1691614429565b61014081019081106001600160401b0382111761071f57604052565b60c081019081106001600160401b0382111761071f57604052565b604081019081106001600160401b0382111761071f57604052565b90601f801991011681019081106001600160401b0382111761071f57604052565b90604051918260008254926144db8461441a565b90818452600194858116908160001461454a5750600114614507575b5050614505925003836144a6565b565b9093915060005260209081600020936000915b818310614532575050614505935082010138806144f7565b8554888401850152948501948794509183019161451a565b91505061450594506020925060ff191682840152151560051b82010138806144f7565b919082519283825260005b848110614599575050826000602080949584010152601f8019910116010190565b602081830181015184830182015201614578565b600435906001600160a01b038216820361044857565b602435906001600160a01b038216820361044857565b60043590811515820361044857565b60243590811515820361044857565b80548210156146135760005260206000209060011b0190600090565b634e487b7160e01b600052603260045260246000fd5b9060028210156106f35752565b9181601f84011215610448578235916001600160401b038311610448576020838186019501011161044857565b9181601f84011215610448578235916001600160401b038311610448576020808501948460051b01011161044857565b6040600319820112610448576001600160401b039160043583811161044857826146bf91600401614663565b93909392602435918211610448576146d991600401614663565b9091565b906040600319830112610448576004356001600160a01b03811681036104485791602435906001600160401b038211610448576146d991600401614663565b6040906003190112610448576004356002811015610448579060243590565b614743614a22565b6001600160a01b031660008181527f7d7ffb7a348e1c6a02869081a26547b49160dd3df72d1d75a570eb9b698292ec60205260409020547fa49807205ce4d355092ef5a8a18f56e8913cf4a201fbe287825b095693c217759060ff16156121af575050565b6147b0614a22565b6001600160a01b031660008181527fe84508f2c7fa9c351146748b3025cb78b45df37d868e48c6a75102fecdeee64560205260409020547f241ecf16d79d0f8dbfb92cbc07fe17840425976cf0667f022fe9877caa831b089060ff16156121af575050565b61481d614a22565b6001600160a01b031660008181527f9505c8401a8a13f8b514b3efaaa61be2dc9810e3f02fbd8edeba297fdd793d6560205260409020547ff60566c40710959d8d30b6067ce3c53c757bec78eecb0e46b83c7f8194ffae379060ff16156121af575050565b61488a614a22565b6001600160a01b031660008181527fca62ffb99fa36d4130bbee1a8581c4d2fd87e1d2bf4a5e65538ad96ae66582c960205260409020547f78c90eb9e475048b483a290aee04b5fe48355537c3623c7637b17d3bed71c6ed9060ff16156121af575050565b6148f7614a22565b9080600052600060205260406000209160018060a01b0316918260005260205260ff60406000205416156121af575050565b6000818152602081815260408083206001600160a01b039586168085529252822054919390929160ff166149aa577f2f8788117e7eff1d82e926ec794901d17c78024a50270940304540a733656f0d90828552846020526040852084865260205260408520600160ff198254161790556149a1614a22565b169380a4600190565b50505090565b6000818152602081815260408083206001600160a01b039586168085529252822054919390929160ff16156149aa577ff6391f5c32d9c69d2a47ea670b442974b53935d1edc7fd64eb21e047a839171b9082855284602052604085208486526020526040852060ff1981541690556149a15b601436101580614a49575b15614a45576013193601368111610448573560601c90565b3390565b50337f00000000000000000000000000000000000000000000000000000000000000006001600160a01b031614614a2d565b60001981146106ce5760010190565b91908110156146135760051b0190565b3580151581036104485790565b356001600160a01b03811681036104485790565b919082018092116106ce57565b3d15614b02573d906001600160401b03821161071f5760405191614af6601f8201601f1916602001846144a6565b82523d6000602084013e565b606090565b600260015414614b18576002600155565b604051633ee5aeb560e01b8152600490fd5b90816020910312610448575180151581036104485790565b919082039182116106ce57565b818102929181159184041417156106ce57565b601154600160401b81101561071f5760018101806011558110156146135760116000527f31ecc21a745e3968a04e9570e4425bc18fa8019c68028196b546d1669c200c680180546001600160a01b0319166001600160a01b03909216919091179055565b91926080939695949196614bde8460a0810199614629565b6020840152604083015260608201520152565b81835290916001600160fb1b0383116104485760209260051b809284830137010190565b90604051614c2281614470565b809260018154916001600160601b0380841685528360601c16602085015265ffffffffffff809360c01c1660408501520154908116606083015260ff8160301c1660028110156106f35760a09160ff91608085015260381c16910152565b6001600160a01b0316600090815260096020526040812080548291825b828110614cd7575050506107d0908181029181830414901517156106ce57670de0b6b3a7640000620f4240614cd493049104614abb565b90565b614ce461303882846145f7565b600160a08201511615614d01575b50614cfc90614a7b565b614c9d565b608081959295015160028110156106f357614d3657614cfc916001600160601b03614d2e92511690614abb565b935b90614cf2565b614cfc9194956001600160601b03614d5092511690614abb565b94614d30565b6001600160401b03811161071f5760051b60200190565b80518210156146135760209160051b01019056fe48916ac7f9777648255ab8645729ff3b5d20aa412a40fe81dac2433522eaa058cb034b37ef3764745c35bafecd525367bcf312e9010239e6aeebbe6bcf57727fa26469706673582212205a109b28223910b8b1763dae120903cdde901f317cee3ad989c84fbeb0ffb84664736f6c634300081400332f8788117e7eff1d82e926ec794901d17c78024a50270940304540a733656f0d","opcodes":"PUSH1 0xC0 PUSH1 0x40 MSTORE CALLVALUE PUSH3 0x28B JUMPI PUSH3 0x562F DUP1 CODESIZE SUB DUP1 PUSH3 0x1D DUP2 PUSH3 0x2A6 JUMP JUMPDEST SWAP3 DUP4 CODECOPY DUP2 ADD SWAP1 PUSH1 0x80 DUP2 DUP4 SUB SLT PUSH3 0x28B JUMPI DUP1 MLOAD PUSH1 0x1 PUSH1 0x1 PUSH1 0x40 SHL SUB SWAP1 DUP2 DUP2 GT PUSH3 0x28B JUMPI DUP3 ADD DUP4 PUSH1 0x1F DUP3 ADD SLT ISZERO PUSH3 0x28B JUMPI DUP1 MLOAD SWAP2 DUP3 GT PUSH3 0x290 JUMPI PUSH1 0x5 SWAP4 DUP3 DUP6 SHL PUSH1 0x20 SWAP3 DUP4 DUP1 PUSH3 0x71 DUP2 DUP6 ADD PUSH3 0x2A6 JUMP JUMPDEST DUP1 SWAP8 DUP2 MSTORE ADD SWAP3 DUP3 ADD ADD SWAP3 DUP4 GT PUSH3 0x28B JUMPI DUP4 DUP1 SWAP2 ADD SWAP2 JUMPDEST DUP4 DUP4 LT PUSH3 0x270 JUMPI POP SWAP1 POP PUSH3 0xA1 SWAP2 POP DUP5 ADD PUSH3 0x2CC JUMP JUMPDEST SWAP4 PUSH3 0xBE PUSH1 0x60 PUSH3 0xB6 PUSH1 0x40 DUP8 ADD PUSH3 0x2CC JUMP JUMPDEST SWAP6 ADD PUSH3 0x2CC JUMP JUMPDEST SWAP5 PUSH1 0x1 SWAP5 DUP6 DUP1 SSTORE PUSH1 0x80 MSTORE PUSH3 0xED4E00 PUSH1 0x2 SSTORE PUSH11 0x422CA8B0A00A425000000 PUSH1 0x3 SSTORE PUSH1 0x4 SWAP3 PUSH6 0x48C27395000 DUP5 SSTORE PUSH7 0x38D7EA4C68000 DUP4 SSTORE PUSH3 0xF4240 PUSH1 0x6 SSTORE PUSH1 0x0 SWAP5 DUP6 PUSH1 0x7 SSTORE PUSH1 0x1 DUP1 PUSH1 0xA0 SHL SUB SWAP3 DUP4 DUP2 AND ISZERO PUSH3 0x25F JUMPI PUSH1 0x8 DUP1 SLOAD PUSH1 0x1 PUSH1 0x50 SHL PUSH1 0x1 PUSH1 0xF0 SHL SUB NOT AND PUSH1 0x50 SWAP3 SWAP1 SWAP3 SHL PUSH1 0x1 PUSH1 0x50 SHL PUSH1 0x1 PUSH1 0xF0 SHL SUB AND SWAP2 SWAP1 SWAP2 OR SWAP1 SSTORE SWAP7 DUP3 AND PUSH1 0xA0 MSTORE SWAP4 SWAP6 DUP7 SWAP5 SWAP1 DUP7 JUMPDEST PUSH3 0x1BE JUMPI JUMPDEST PUSH1 0x40 MLOAD PUSH2 0x4DF7 SWAP1 DUP2 PUSH3 0x818 DUP3 CODECOPY PUSH1 0x80 MLOAD DUP2 DUP2 DUP2 PUSH2 0x21E3 ADD MSTORE DUP2 DUP2 PUSH2 0x2ECB ADD MSTORE PUSH2 0x4A4D ADD MSTORE PUSH1 0xA0 MLOAD DUP2 DUP2 DUP2 PUSH2 0x481 ADD MSTORE DUP2 DUP2 PUSH2 0xF25 ADD MSTORE DUP2 DUP2 PUSH2 0x1A3E ADD MSTORE DUP2 DUP2 PUSH2 0x1D20 ADD MSTORE DUP2 DUP2 PUSH2 0x22B8 ADD MSTORE DUP2 DUP2 PUSH2 0x24F2 ADD MSTORE DUP2 DUP2 PUSH2 0x2AD5 ADD MSTORE DUP2 DUP2 PUSH2 0x2DD1 ADD MSTORE DUP2 DUP2 PUSH2 0x32F3 ADD MSTORE PUSH2 0x36DC ADD MSTORE RETURN JUMPDEST DUP1 MLOAD DUP9 LT ISZERO PUSH3 0x259 JUMPI PUSH3 0x230 DUP4 DUP4 DUP11 DUP8 SHL DUP5 ADD ADD MLOAD AND PUSH3 0x1E1 DUP2 PUSH3 0x2E1 JUMP JUMPDEST POP PUSH3 0x1ED DUP2 PUSH3 0x36E JUMP JUMPDEST POP PUSH3 0x1F9 DUP2 PUSH3 0x41D JUMP JUMPDEST POP PUSH3 0x205 DUP2 PUSH3 0x4BD JUMP JUMPDEST POP PUSH3 0x211 DUP2 PUSH3 0x55D JUMP JUMPDEST POP PUSH3 0x21D DUP2 PUSH3 0x5FD JUMP JUMPDEST POP PUSH3 0x229 DUP2 PUSH3 0x69D JUMP JUMPDEST POP PUSH3 0x73D JUMP JUMPDEST POP PUSH1 0x0 NOT DUP9 EQ PUSH3 0x246 JUMPI DUP7 DUP1 SWAP9 ADD SWAP8 PUSH3 0x149 JUMP JUMPDEST PUSH4 0x4E487B71 PUSH1 0xE0 SHL DUP7 MSTORE PUSH1 0x11 DUP6 MSTORE PUSH1 0x24 DUP7 REVERT JUMPDEST PUSH3 0x14F JUMP JUMPDEST PUSH1 0x40 MLOAD PUSH4 0xD92E233D PUSH1 0xE0 SHL DUP2 MSTORE DUP7 SWAP1 REVERT JUMPDEST DUP2 SWAP1 PUSH3 0x27D DUP5 PUSH3 0x2CC JUMP JUMPDEST DUP2 MSTORE ADD SWAP2 ADD SWAP1 DUP4 SWAP1 PUSH3 0x88 JUMP JUMPDEST PUSH1 0x0 DUP1 REVERT JUMPDEST PUSH4 0x4E487B71 PUSH1 0xE0 SHL PUSH1 0x0 MSTORE PUSH1 0x41 PUSH1 0x4 MSTORE PUSH1 0x24 PUSH1 0x0 REVERT JUMPDEST PUSH1 0x40 MLOAD SWAP2 SWAP1 PUSH1 0x1F ADD PUSH1 0x1F NOT AND DUP3 ADD PUSH1 0x1 PUSH1 0x1 PUSH1 0x40 SHL SUB DUP2 GT DUP4 DUP3 LT OR PUSH3 0x290 JUMPI PUSH1 0x40 MSTORE JUMP JUMPDEST MLOAD SWAP1 PUSH1 0x1 PUSH1 0x1 PUSH1 0xA0 SHL SUB DUP3 AND DUP3 SUB PUSH3 0x28B JUMPI JUMP JUMPDEST PUSH1 0x1 PUSH1 0x1 PUSH1 0xA0 SHL SUB SWAP1 DUP2 AND PUSH1 0x0 DUP2 DUP2 MSTORE PUSH32 0xAD3228B676F7D3CD4284A5443F17F1962B36E491B30A40B2405849E597BA5FB5 PUSH1 0x20 MSTORE PUSH1 0x40 DUP2 KECCAK256 SLOAD SWAP1 SWAP3 SWAP1 PUSH1 0xFF AND PUSH3 0x369 JUMPI DUP3 DUP1 MSTORE DUP3 PUSH1 0x20 MSTORE PUSH1 0x40 DUP4 KECCAK256 DUP3 DUP5 MSTORE PUSH1 0x20 MSTORE PUSH1 0x40 DUP4 KECCAK256 PUSH1 0x1 PUSH1 0xFF NOT DUP3 SLOAD AND OR SWAP1 SSTORE PUSH3 0x34F PUSH3 0x7D8 JUMP JUMPDEST AND SWAP2 PUSH1 0x0 DUP1 MLOAD PUSH1 0x20 PUSH3 0x560F DUP4 CODECOPY DUP2 MLOAD SWAP2 MSTORE DUP2 DUP1 LOG4 PUSH1 0x1 SWAP1 JUMP JUMPDEST POP POP SWAP1 JUMP JUMPDEST PUSH1 0x1 PUSH1 0x1 PUSH1 0xA0 SHL SUB SWAP1 DUP2 AND PUSH1 0x0 DUP2 DUP2 MSTORE PUSH32 0x7D7FFB7A348E1C6A02869081A26547B49160DD3DF72D1D75A570EB9B698292EC PUSH1 0x20 MSTORE PUSH1 0x40 DUP2 KECCAK256 SLOAD SWAP1 SWAP3 PUSH32 0xA49807205CE4D355092EF5A8A18F56E8913CF4A201FBE287825B095693C21775 SWAP2 PUSH1 0xFF AND PUSH3 0x417 JUMPI PUSH1 0x0 DUP1 MLOAD PUSH1 0x20 PUSH3 0x560F DUP4 CODECOPY DUP2 MLOAD SWAP2 MSTORE SWAP1 DUP3 DUP6 MSTORE DUP5 PUSH1 0x20 MSTORE PUSH1 0x40 DUP6 KECCAK256 DUP5 DUP7 MSTORE PUSH1 0x20 MSTORE PUSH1 0x40 DUP6 KECCAK256 PUSH1 0x1 PUSH1 0xFF NOT DUP3 SLOAD AND OR SWAP1 SSTORE PUSH3 0x40E PUSH3 0x7D8 JUMP JUMPDEST AND SWAP4 DUP1 LOG4 PUSH1 0x1 SWAP1 JUMP JUMPDEST POP POP POP SWAP1 JUMP JUMPDEST PUSH1 0x1 PUSH1 0x1 PUSH1 0xA0 SHL SUB SWAP1 DUP2 AND PUSH1 0x0 DUP2 DUP2 MSTORE PUSH32 0xF7C9542C591017A21C74B6F3FAB6263C7952FC0AAF9DB4C22A2A04DDC7F8674F PUSH1 0x20 MSTORE PUSH1 0x40 DUP2 KECCAK256 SLOAD SWAP1 SWAP3 PUSH32 0x65D7A28E3265B37A6474929F336521B332C1681B933F6CB9F3376673440D862A SWAP2 PUSH1 0xFF AND PUSH3 0x417 JUMPI PUSH1 0x0 DUP1 MLOAD PUSH1 0x20 PUSH3 0x560F DUP4 CODECOPY DUP2 MLOAD SWAP2 MSTORE SWAP1 DUP3 DUP6 MSTORE DUP5 PUSH1 0x20 MSTORE PUSH1 0x40 DUP6 KECCAK256 DUP5 DUP7 MSTORE PUSH1 0x20 MSTORE PUSH1 0x40 DUP6 KECCAK256 PUSH1 0x1 PUSH1 0xFF NOT DUP3 SLOAD AND OR SWAP1 SSTORE PUSH3 0x40E PUSH3 0x7D8 JUMP JUMPDEST PUSH1 0x1 PUSH1 0x1 PUSH1 0xA0 SHL SUB SWAP1 DUP2 AND PUSH1 0x0 DUP2 DUP2 MSTORE PUSH32 0x2EB8DCB37180405B14A1BDB0A7C9BF5C42ACB064F7E582ADA9A56E709D942E57 PUSH1 0x20 MSTORE PUSH1 0x40 DUP2 KECCAK256 SLOAD SWAP1 SWAP3 PUSH32 0xC806897CAF4FD5068191157E44D3988E43139A37E0B97B6793E1ED1184140604 SWAP2 PUSH1 0xFF AND PUSH3 0x417 JUMPI PUSH1 0x0 DUP1 MLOAD PUSH1 0x20 PUSH3 0x560F DUP4 CODECOPY DUP2 MLOAD SWAP2 MSTORE SWAP1 DUP3 DUP6 MSTORE DUP5 PUSH1 0x20 MSTORE PUSH1 0x40 DUP6 KECCAK256 DUP5 DUP7 MSTORE PUSH1 0x20 MSTORE PUSH1 0x40 DUP6 KECCAK256 PUSH1 0x1 PUSH1 0xFF NOT DUP3 SLOAD AND OR SWAP1 SSTORE PUSH3 0x40E PUSH3 0x7D8 JUMP JUMPDEST PUSH1 0x1 PUSH1 0x1 PUSH1 0xA0 SHL SUB SWAP1 DUP2 AND PUSH1 0x0 DUP2 DUP2 MSTORE PUSH32 0x9505C8401A8A13F8B514B3EFAAA61BE2DC9810E3F02FBD8EDEBA297FDD793D65 PUSH1 0x20 MSTORE PUSH1 0x40 DUP2 KECCAK256 SLOAD SWAP1 SWAP3 PUSH32 0xF60566C40710959D8D30B6067CE3C53C757BEC78EECB0E46B83C7F8194FFAE37 SWAP2 PUSH1 0xFF AND PUSH3 0x417 JUMPI PUSH1 0x0 DUP1 MLOAD PUSH1 0x20 PUSH3 0x560F DUP4 CODECOPY DUP2 MLOAD SWAP2 MSTORE SWAP1 DUP3 DUP6 MSTORE DUP5 PUSH1 0x20 MSTORE PUSH1 0x40 DUP6 KECCAK256 DUP5 DUP7 MSTORE PUSH1 0x20 MSTORE PUSH1 0x40 DUP6 KECCAK256 PUSH1 0x1 PUSH1 0xFF NOT DUP3 SLOAD AND OR SWAP1 SSTORE PUSH3 0x40E PUSH3 0x7D8 JUMP JUMPDEST PUSH1 0x1 PUSH1 0x1 PUSH1 0xA0 SHL SUB SWAP1 DUP2 AND PUSH1 0x0 DUP2 DUP2 MSTORE PUSH32 0xCA62FFB99FA36D4130BBEE1A8581C4D2FD87E1D2BF4A5E65538AD96AE66582C9 PUSH1 0x20 MSTORE PUSH1 0x40 DUP2 KECCAK256 SLOAD SWAP1 SWAP3 PUSH32 0x78C90EB9E475048B483A290AEE04B5FE48355537C3623C7637B17D3BED71C6ED SWAP2 PUSH1 0xFF AND PUSH3 0x417 JUMPI PUSH1 0x0 DUP1 MLOAD PUSH1 0x20 PUSH3 0x560F DUP4 CODECOPY DUP2 MLOAD SWAP2 MSTORE SWAP1 DUP3 DUP6 MSTORE DUP5 PUSH1 0x20 MSTORE PUSH1 0x40 DUP6 KECCAK256 DUP5 DUP7 MSTORE PUSH1 0x20 MSTORE PUSH1 0x40 DUP6 KECCAK256 PUSH1 0x1 PUSH1 0xFF NOT DUP3 SLOAD AND OR SWAP1 SSTORE PUSH3 0x40E PUSH3 0x7D8 JUMP JUMPDEST PUSH1 0x1 PUSH1 0x1 PUSH1 0xA0 SHL SUB SWAP1 DUP2 AND PUSH1 0x0 DUP2 DUP2 MSTORE PUSH32 0xE84508F2C7FA9C351146748B3025CB78B45DF37D868E48C6A75102FECDEEE645 PUSH1 0x20 MSTORE PUSH1 0x40 DUP2 KECCAK256 SLOAD SWAP1 SWAP3 PUSH32 0x241ECF16D79D0F8DBFB92CBC07FE17840425976CF0667F022FE9877CAA831B08 SWAP2 PUSH1 0xFF AND PUSH3 0x417 JUMPI PUSH1 0x0 DUP1 MLOAD PUSH1 0x20 PUSH3 0x560F DUP4 CODECOPY DUP2 MLOAD SWAP2 MSTORE SWAP1 DUP3 DUP6 MSTORE DUP5 PUSH1 0x20 MSTORE PUSH1 0x40 DUP6 KECCAK256 DUP5 DUP7 MSTORE PUSH1 0x20 MSTORE PUSH1 0x40 DUP6 KECCAK256 PUSH1 0x1 PUSH1 0xFF NOT DUP3 SLOAD AND OR SWAP1 SSTORE PUSH3 0x40E PUSH3 0x7D8 JUMP JUMPDEST PUSH1 0x1 PUSH1 0x1 PUSH1 0xA0 SHL SUB SWAP1 DUP2 AND PUSH1 0x0 DUP2 DUP2 MSTORE PUSH32 0x45F124ABC56411FA20FB79132D4E5E0DAD891ECF0313A820E14C2799F454AD5B PUSH1 0x20 MSTORE PUSH1 0x40 DUP2 KECCAK256 SLOAD SWAP1 SWAP3 PUSH32 0x8A21E8FDAE6C23863F7DE5307E2E7162C88DAB602A41610ADDB5F1505D259398 SWAP2 PUSH1 0xFF AND PUSH3 0x417 JUMPI PUSH1 0x0 DUP1 MLOAD PUSH1 0x20 PUSH3 0x560F DUP4 CODECOPY DUP2 MLOAD SWAP2 MSTORE SWAP1 DUP3 DUP6 MSTORE DUP5 PUSH1 0x20 MSTORE PUSH1 0x40 DUP6 KECCAK256 DUP5 DUP7 MSTORE PUSH1 0x20 MSTORE PUSH1 0x40 DUP6 KECCAK256 PUSH1 0x1 PUSH1 0xFF NOT DUP3 SLOAD AND OR SWAP1 SSTORE PUSH3 0x40E JUMPDEST PUSH1 0x14 CALLDATASIZE LT ISZERO DUP1 PUSH3 0x802 JUMPI JUMPDEST ISZERO PUSH3 0x7FE JUMPI PUSH1 0x13 NOT CALLDATASIZE ADD CALLDATASIZE DUP2 GT PUSH3 0x28B JUMPI CALLDATALOAD PUSH1 0x60 SHR SWAP1 JUMP JUMPDEST CALLER SWAP1 JUMP JUMPDEST POP PUSH1 0x80 MLOAD PUSH1 0x1 PUSH1 0x1 PUSH1 0xA0 SHL SUB AND CALLER EQ PUSH3 0x7E4 JUMP INVALID PUSH1 0x80 PUSH1 0x40 MSTORE PUSH1 0x4 CALLDATASIZE LT ISZERO PUSH2 0x1B JUMPI JUMPDEST CALLDATASIZE ISZERO PUSH2 0x19 JUMPI PUSH1 0x0 DUP1 REVERT JUMPDEST STOP JUMPDEST PUSH1 0x0 CALLDATALOAD PUSH1 0xE0 SHR DUP1 PUSH4 0x13CF08B EQ PUSH2 0x434E JUMPI DUP1 PUSH4 0x1FFC9A7 EQ PUSH2 0x42F8 JUMPI DUP1 PUSH4 0x386A016 EQ PUSH2 0x4291 JUMPI DUP1 PUSH4 0x4C68AF0 EQ PUSH2 0x4257 JUMPI DUP1 PUSH4 0x52D9E7E EQ PUSH2 0x4218 JUMPI DUP1 PUSH4 0x8F43333 EQ PUSH2 0x4174 JUMPI DUP1 PUSH4 0xC016AD5 EQ PUSH2 0x4139 JUMPI DUP1 PUSH4 0xCE0EBF4 EQ PUSH2 0x3D45 JUMPI DUP1 PUSH4 0x15B3958E EQ PUSH2 0x3D0A JUMPI DUP1 PUSH4 0x17B51642 EQ PUSH2 0x3C81 JUMPI DUP1 PUSH4 0x1C5AEEF7 EQ PUSH2 0x3C63 JUMPI DUP1 PUSH4 0x246D47B7 EQ PUSH2 0x3C3D JUMPI DUP1 PUSH4 0x248A9CA3 EQ PUSH2 0x3C0E JUMPI DUP1 PUSH4 0x27175B23 EQ PUSH2 0x3BF0 JUMPI DUP1 PUSH4 0x275991D2 EQ PUSH2 0x39B2 JUMPI DUP1 PUSH4 0x2A5BF6D2 EQ PUSH2 0x389E JUMPI DUP1 PUSH4 0x2AAD5EDD EQ PUSH2 0x3880 JUMPI DUP1 PUSH4 0x2B9C4EDE EQ PUSH2 0x3862 JUMPI DUP1 PUSH4 0x2E1A7D4D EQ PUSH2 0x3449 JUMPI DUP1 PUSH4 0x2F2FF15D EQ PUSH2 0x340A JUMPI DUP1 PUSH4 0x3408567C EQ PUSH2 0x33D0 JUMPI DUP1 PUSH4 0x36568ABE EQ PUSH2 0x337F JUMPI DUP1 PUSH4 0x3AC43970 EQ PUSH2 0x3361 JUMPI DUP1 PUSH4 0x3AF32ABF EQ PUSH2 0x3322 JUMPI DUP1 PUSH4 0x3E413BEE EQ PUSH2 0x32DD JUMPI DUP1 PUSH4 0x41DEBF1F EQ PUSH2 0x3241 JUMPI DUP1 PUSH4 0x43859632 EQ PUSH2 0x31F4 JUMPI DUP1 PUSH4 0x47AF19AA EQ PUSH2 0x3123 JUMPI DUP1 PUSH4 0x4E43603A EQ PUSH2 0x2F96 JUMPI DUP1 PUSH4 0x51FB012D EQ PUSH2 0x2F70 JUMPI DUP1 PUSH4 0x53D6FD59 EQ PUSH2 0x2EF2 JUMPI DUP1 PUSH4 0x572B6C05 EQ PUSH2 0x2EA2 JUMPI DUP1 PUSH4 0x588583A0 EQ PUSH2 0x2E7A JUMPI DUP1 PUSH4 0x5983B0BD EQ PUSH2 0x2D52 JUMPI DUP1 PUSH4 0x5E2C19DB EQ PUSH2 0x2D13 JUMPI DUP1 PUSH4 0x6068D6CB EQ PUSH2 0x2CF0 JUMPI DUP1 PUSH4 0x64021B13 EQ PUSH2 0x2C7C JUMPI DUP1 PUSH4 0x6426BE48 EQ PUSH2 0x2B9D JUMPI DUP1 PUSH4 0x65D5EC96 EQ PUSH2 0x2B5E JUMPI DUP1 PUSH4 0x6C6FF56C EQ PUSH2 0x2A4E JUMPI DUP1 PUSH4 0x6EC23995 EQ PUSH2 0x29ED JUMPI DUP1 PUSH4 0x72E55399 EQ PUSH2 0x23EE JUMPI DUP1 PUSH4 0x75B238FC EQ PUSH2 0x23B3 JUMPI DUP1 PUSH4 0x762E1C73 EQ PUSH2 0x234D JUMPI DUP1 PUSH4 0x76C1D3DB EQ PUSH2 0x224D JUMPI DUP1 PUSH4 0x7BD05CF5 EQ PUSH2 0x2230 JUMPI DUP1 PUSH4 0x7C48373B EQ PUSH2 0x2212 JUMPI DUP1 PUSH4 0x7DA0A877 EQ PUSH2 0x21CD JUMPI DUP1 PUSH4 0x867D099A EQ PUSH2 0x205D JUMPI DUP1 PUSH4 0x885F5029 EQ PUSH2 0x2022 JUMPI DUP1 PUSH4 0x886D589D EQ PUSH2 0x1FE8 JUMPI DUP1 PUSH4 0x899AA991 EQ PUSH2 0x1FCA JUMPI DUP1 PUSH4 0x89BAD0A6 EQ PUSH2 0x1F2C JUMPI DUP1 PUSH4 0x8A2E98F3 EQ PUSH2 0x1E6F JUMPI DUP1 PUSH4 0x8B713B2E EQ PUSH2 0x1E51 JUMPI DUP1 PUSH4 0x8DD4928E EQ PUSH2 0x1CC5 JUMPI DUP1 PUSH4 0x91D14854 EQ PUSH2 0x1C78 JUMPI DUP1 PUSH4 0x93055C43 EQ PUSH2 0x1BD9 JUMPI DUP1 PUSH4 0x97D9E5B4 EQ PUSH2 0x1BBB JUMPI DUP1 PUSH4 0x9DDC3912 EQ PUSH2 0x1B9D JUMPI DUP1 PUSH4 0x9E657E33 EQ PUSH2 0x1B42 JUMPI DUP1 PUSH4 0xA217FDDF EQ PUSH2 0x1B26 JUMPI DUP1 PUSH4 0xA59AA5A6 EQ PUSH2 0x1A11 JUMPI DUP1 PUSH4 0xA6317F2A EQ PUSH2 0x19F3 JUMPI DUP1 PUSH4 0xA6C26603 EQ PUSH2 0x19CF JUMPI DUP1 PUSH4 0xB2118A8D EQ PUSH2 0x1901 JUMPI DUP1 PUSH4 0xB2B77AE2 EQ PUSH2 0x18DB JUMPI DUP1 PUSH4 0xB65BA94B EQ PUSH2 0x18BD JUMPI DUP1 PUSH4 0xB758AEAA EQ PUSH2 0x17E6 JUMPI DUP1 PUSH4 0xBB4D4436 EQ PUSH2 0x17C0 JUMPI DUP1 PUSH4 0xBDA821E8 EQ PUSH2 0x1584 JUMPI DUP1 PUSH4 0xC6D95B74 EQ PUSH2 0x14BF JUMPI DUP1 PUSH4 0xC771C390 EQ PUSH2 0x1473 JUMPI DUP1 PUSH4 0xC9D27AFE EQ PUSH2 0x1268 JUMPI DUP1 PUSH4 0xCCEB68F5 EQ PUSH2 0x1006 JUMPI DUP1 PUSH4 0xD547741F EQ PUSH2 0xFC7 JUMPI DUP1 PUSH4 0xD830D5CC EQ PUSH2 0xEC5 JUMPI DUP1 PUSH4 0xDA35C664 EQ PUSH2 0xEA7 JUMPI DUP1 PUSH4 0xDA8D5ADD EQ PUSH2 0xE19 JUMPI DUP1 PUSH4 0xE043B2B2 EQ PUSH2 0xDDE JUMPI DUP1 PUSH4 0xE0912D2A EQ PUSH2 0xD0A JUMPI DUP1 PUSH4 0xE15E23C1 EQ PUSH2 0xCEC JUMPI DUP1 PUSH4 0xE340B783 EQ PUSH2 0xCCE JUMPI DUP1 PUSH4 0xE399067F EQ PUSH2 0xC05 JUMPI DUP1 PUSH4 0xE63AB1E9 EQ PUSH2 0xBCA JUMPI DUP1 PUSH4 0xE9FE0C78 EQ PUSH2 0xB90 JUMPI DUP1 PUSH4 0xEC87621C EQ PUSH2 0xB55 JUMPI DUP1 PUSH4 0xEE947A7C EQ PUSH2 0xB37 JUMPI DUP1 PUSH4 0xF29B2239 EQ PUSH2 0xB0A JUMPI DUP1 PUSH4 0xF5F11350 EQ PUSH2 0xA84 JUMPI DUP1 PUSH4 0xF5F69AF2 EQ PUSH2 0xA19 JUMPI DUP1 PUSH4 0xF6326FB3 EQ PUSH2 0x7E9 JUMPI DUP1 PUSH4 0xF688BCFB EQ PUSH2 0x44D JUMPI PUSH4 0xFD46A171 SUB PUSH2 0xE JUMPI CALLVALUE PUSH2 0x448 JUMPI PUSH1 0x0 CALLDATASIZE PUSH1 0x3 NOT ADD SLT PUSH2 0x448 JUMPI PUSH1 0x20 PUSH1 0x1A SLOAD PUSH1 0x40 MLOAD SWAP1 DUP2 MSTORE RETURN JUMPDEST PUSH1 0x0 DUP1 REVERT JUMPDEST CALLVALUE PUSH2 0x448 JUMPI PUSH1 0x20 DUP1 PUSH1 0x3 NOT CALLDATASIZE ADD SLT PUSH2 0x448 JUMPI PUSH1 0x4 CALLDATALOAD SWAP1 PUSH2 0x46B PUSH2 0x4B07 JUMP JUMPDEST PUSH1 0x8 SLOAD PUSH1 0xFF DUP2 AND PUSH2 0x7D7 JUMPI PUSH1 0x1 PUSH1 0x1 PUSH1 0xA0 SHL SUB SWAP1 PUSH32 0x0 DUP3 AND SWAP1 DUP2 ISZERO PUSH2 0x7C5 JUMPI PUSH1 0x6 SLOAD DUP6 LT PUSH2 0x7B3 JUMPI PUSH2 0x4BE DUP6 PUSH1 0x13 SLOAD PUSH2 0x4ABB JUMP JUMPDEST PUSH1 0x4 SLOAD LT PUSH2 0x7A1 JUMPI PUSH1 0x10 SHR PUSH1 0xFF AND DUP1 PUSH2 0x780 JUMPI JUMPDEST PUSH2 0x76E JUMPI DUP3 DUP5 PUSH2 0x522 SWAP3 PUSH2 0x4E4 PUSH2 0x4A22 JUMP JUMPDEST PUSH1 0x40 MLOAD PUSH4 0x23B872DD PUSH1 0xE0 SHL DUP2 MSTORE PUSH1 0x1 PUSH1 0x1 PUSH1 0xA0 SHL SUB SWAP1 SWAP2 AND PUSH1 0x4 DUP3 ADD MSTORE ADDRESS PUSH1 0x24 DUP3 ADD MSTORE PUSH1 0x44 DUP2 ADD SWAP3 SWAP1 SWAP3 MSTORE SWAP1 SWAP3 DUP4 SWAP2 SWAP1 DUP3 SWAP1 PUSH1 0x0 SWAP1 DUP3 SWAP1 PUSH1 0x64 DUP3 ADD SWAP1 JUMP JUMPDEST SUB SWAP3 GAS CALL DUP1 ISZERO PUSH2 0x762 JUMPI PUSH2 0x735 JUMPI JUMPDEST POP PUSH2 0x53A PUSH2 0x4A22 JUMP JUMPDEST AND SWAP2 DUP3 PUSH1 0x0 MSTORE PUSH1 0x9 DUP3 MSTORE PUSH1 0x40 PUSH1 0x0 KECCAK256 SWAP3 PUSH1 0x40 MLOAD SWAP4 PUSH2 0x557 DUP6 PUSH2 0x4470 JUMP JUMPDEST PUSH1 0x1 PUSH1 0x1 PUSH1 0x60 SHL SUB DUP1 DUP5 AND DUP7 MSTORE DUP5 DUP7 ADD PUSH1 0x0 DUP2 MSTORE PUSH1 0x40 DUP8 ADD SWAP7 PUSH6 0xFFFFFFFFFFFF SWAP1 DUP2 TIMESTAMP AND DUP10 MSTORE PUSH1 0x60 DUP2 ADD SWAP4 PUSH1 0x0 DUP6 MSTORE PUSH1 0x80 DUP3 ADD SWAP4 PUSH1 0x1 SWAP11 DUP12 DUP7 MSTORE PUSH1 0xA0 DUP5 ADD SWAP8 PUSH1 0x0 DUP10 MSTORE DUP1 SLOAD PUSH1 0x1 PUSH1 0x40 SHL DUP2 LT ISZERO PUSH2 0x71F JUMPI PUSH2 0x5B6 SWAP2 DUP15 DUP3 ADD DUP2 SSTORE PUSH2 0x45F7 JUMP JUMPDEST SWAP4 SWAP1 SWAP4 PUSH2 0x709 JUMPI SWAP4 MLOAD DUP4 SLOAD SWAP3 MLOAD SWAP2 MLOAD PUSH1 0x1 PUSH1 0x1 PUSH1 0xF0 SHL SUB NOT SWAP1 SWAP4 AND SWAP5 AND SWAP4 SWAP1 SWAP4 OR PUSH1 0x60 SWAP4 SWAP1 SWAP4 SHL PUSH1 0x1 PUSH1 0x60 SHL PUSH1 0x1 PUSH1 0xC0 SHL SUB AND SWAP3 SWAP1 SWAP3 OR PUSH1 0xC0 SWAP3 SWAP1 SWAP3 SHL PUSH6 0xFFFFFFFFFFFF PUSH1 0xC0 SHL AND SWAP2 SWAP1 SWAP2 OR DUP2 SSTORE SWAP3 MLOAD SWAP3 DUP9 ADD DUP1 SLOAD SWAP3 MLOAD SWAP2 SWAP1 SWAP4 AND SWAP4 SWAP1 SWAP2 PUSH1 0x2 DUP4 LT ISZERO PUSH2 0x6F3 JUMPI PUSH2 0x657 SWAP5 PUSH1 0xFF PUSH1 0x30 SHL PUSH1 0xFF SWAP5 PUSH1 0x30 SHL AND SWAP2 PUSH7 0xFFFFFFFFFFFFFF NOT AND OR OR DUP4 SSTORE MLOAD AND PUSH1 0xFF PUSH1 0x38 SHL DUP3 SLOAD SWAP2 PUSH1 0x38 SHL AND SWAP1 PUSH1 0xFF PUSH1 0x38 SHL NOT AND OR SWAP1 SSTORE JUMP JUMPDEST DUP1 PUSH1 0x0 MSTORE PUSH1 0x10 DUP4 MSTORE PUSH1 0x40 PUSH1 0x0 KECCAK256 DUP5 DUP2 SLOAD PUSH1 0xFF DUP2 AND ISZERO PUSH2 0x6E4 JUMPI JUMPDEST POP POP PUSH1 0x9 DUP5 MSTORE POP PUSH1 0x40 PUSH1 0x0 KECCAK256 SLOAD PUSH1 0x0 NOT DUP2 ADD SWAP4 SWAP1 DUP5 GT PUSH2 0x6CE JUMPI PUSH1 0xA0 PUSH1 0x0 DUP1 MLOAD PUSH1 0x20 PUSH2 0x4D82 DUP4 CODECOPY DUP2 MLOAD SWAP2 MSTORE SWAP2 PUSH2 0x6C7 SWAP6 DUP6 PUSH1 0x40 MLOAD SWAP3 DUP10 DUP5 MSTORE DUP4 ADD MSTORE TIMESTAMP PUSH1 0x40 DUP4 ADD MSTORE PUSH1 0x60 DUP3 ADD MSTORE PUSH1 0x0 PUSH1 0x80 DUP3 ADD MSTORE LOG2 PUSH1 0x13 SLOAD PUSH2 0x4ABB JUMP JUMPDEST PUSH1 0x13 SSTORE DUP1 SSTORE STOP JUMPDEST PUSH4 0x4E487B71 PUSH1 0xE0 SHL PUSH1 0x0 MSTORE PUSH1 0x11 PUSH1 0x4 MSTORE PUSH1 0x24 PUSH1 0x0 REVERT JUMPDEST PUSH1 0xFF NOT AND OR SWAP1 SSTORE DUP5 DUP5 DUP2 PUSH2 0x671 JUMP JUMPDEST PUSH4 0x4E487B71 PUSH1 0xE0 SHL PUSH1 0x0 MSTORE PUSH1 0x21 PUSH1 0x4 MSTORE PUSH1 0x24 PUSH1 0x0 REVERT JUMPDEST PUSH4 0x4E487B71 PUSH1 0xE0 SHL PUSH1 0x0 MSTORE PUSH1 0x0 PUSH1 0x4 MSTORE PUSH1 0x24 PUSH1 0x0 REVERT JUMPDEST PUSH4 0x4E487B71 PUSH1 0xE0 SHL PUSH1 0x0 MSTORE PUSH1 0x41 PUSH1 0x4 MSTORE PUSH1 0x24 PUSH1 0x0 REVERT JUMPDEST PUSH2 0x754 SWAP1 DUP4 RETURNDATASIZE DUP6 GT PUSH2 0x75B JUMPI JUMPDEST PUSH2 0x74C DUP2 DUP4 PUSH2 0x44A6 JUMP JUMPDEST DUP2 ADD SWAP1 PUSH2 0x4B2A JUMP JUMPDEST POP DUP4 PUSH2 0x531 JUMP JUMPDEST POP RETURNDATASIZE PUSH2 0x742 JUMP JUMPDEST PUSH1 0x40 MLOAD RETURNDATASIZE PUSH1 0x0 DUP3 RETURNDATACOPY RETURNDATASIZE SWAP1 REVERT JUMPDEST PUSH1 0x40 MLOAD PUSH4 0xB094F27 PUSH1 0xE3 SHL DUP2 MSTORE PUSH1 0x4 SWAP1 REVERT JUMPDEST POP DUP2 PUSH2 0x78A PUSH2 0x4A22 JUMP JUMPDEST AND PUSH1 0x0 MSTORE PUSH1 0xA DUP4 MSTORE PUSH1 0xFF PUSH1 0x40 PUSH1 0x0 KECCAK256 SLOAD AND ISZERO PUSH2 0x4D2 JUMP JUMPDEST PUSH1 0x40 MLOAD PUSH4 0x6BF4C8E9 PUSH1 0xE1 SHL DUP2 MSTORE PUSH1 0x4 SWAP1 REVERT JUMPDEST PUSH1 0x40 MLOAD PUSH4 0x162908E3 PUSH1 0xE1 SHL DUP2 MSTORE PUSH1 0x4 SWAP1 REVERT JUMPDEST PUSH1 0x40 MLOAD PUSH4 0xD92E233D PUSH1 0xE0 SHL DUP2 MSTORE PUSH1 0x4 SWAP1 REVERT JUMPDEST PUSH1 0x40 MLOAD PUSH4 0xDEEB6943 PUSH1 0xE0 SHL DUP2 MSTORE PUSH1 0x4 SWAP1 REVERT JUMPDEST PUSH1 0x0 CALLDATASIZE PUSH1 0x3 NOT ADD SLT PUSH2 0x448 JUMPI PUSH2 0x7FD PUSH2 0x4B07 JUMP JUMPDEST PUSH1 0x8 SLOAD PUSH1 0xFF DUP2 AND PUSH2 0x7D7 JUMPI PUSH1 0x5 SLOAD CALLVALUE LT PUSH2 0x7B3 JUMPI PUSH2 0x81D CALLVALUE PUSH1 0x12 SLOAD PUSH2 0x4ABB JUMP JUMPDEST PUSH1 0x3 SLOAD LT PUSH2 0x7A1 JUMPI PUSH1 0x10 SHR PUSH1 0xFF AND DUP1 PUSH2 0x9F0 JUMPI JUMPDEST PUSH2 0x76E JUMPI PUSH1 0x1 PUSH1 0x1 PUSH1 0xA0 SHL SUB PUSH2 0x845 PUSH2 0x4A22 JUMP JUMPDEST AND DUP1 PUSH1 0x0 MSTORE PUSH1 0x9 PUSH1 0x20 MSTORE PUSH1 0x40 PUSH1 0x0 KECCAK256 PUSH1 0x40 MLOAD PUSH2 0x860 DUP2 PUSH2 0x4470 JUMP JUMPDEST PUSH1 0x1 PUSH1 0x1 PUSH1 0x60 SHL SUB SWAP1 DUP2 CALLVALUE AND DUP2 MSTORE PUSH1 0x20 DUP2 ADD SWAP2 PUSH1 0x0 DUP4 MSTORE PUSH1 0x40 DUP3 ADD SWAP2 PUSH6 0xFFFFFFFFFFFF SWAP2 DUP3 TIMESTAMP AND DUP5 MSTORE PUSH1 0x60 DUP3 ADD SWAP5 PUSH1 0x0 DUP7 MSTORE PUSH1 0x80 DUP4 ADD SWAP5 PUSH1 0x0 DUP7 MSTORE PUSH1 0xA0 DUP5 ADD SWAP8 PUSH1 0x0 DUP10 MSTORE DUP1 SLOAD PUSH1 0x1 PUSH1 0x40 SHL DUP2 LT ISZERO PUSH2 0x71F JUMPI PUSH2 0x8C1 SWAP2 PUSH1 0x1 DUP3 ADD DUP2 SSTORE PUSH2 0x45F7 JUMP JUMPDEST SWAP4 SWAP1 SWAP4 PUSH2 0x709 JUMPI SWAP4 MLOAD DUP4 SLOAD SWAP3 MLOAD SWAP2 MLOAD PUSH1 0x1 PUSH1 0x1 PUSH1 0xF0 SHL SUB NOT SWAP1 SWAP4 AND SWAP5 AND SWAP4 SWAP1 SWAP4 OR PUSH1 0x60 SWAP4 SWAP1 SWAP4 SHL PUSH1 0x1 PUSH1 0x60 SHL PUSH1 0x1 PUSH1 0xC0 SHL SUB AND SWAP3 SWAP1 SWAP3 OR PUSH1 0xC0 SWAP3 SWAP1 SWAP3 SHL PUSH6 0xFFFFFFFFFFFF PUSH1 0xC0 SHL AND SWAP2 SWAP1 SWAP2 OR DUP2 SSTORE SWAP3 MLOAD PUSH1 0x1 SWAP4 SWAP1 SWAP4 ADD DUP1 SLOAD SWAP3 MLOAD SWAP2 SWAP1 SWAP4 AND SWAP4 SWAP1 SWAP2 PUSH1 0x2 DUP4 LT ISZERO PUSH2 0x6F3 JUMPI PUSH2 0x965 SWAP5 PUSH1 0xFF PUSH1 0x30 SHL PUSH1 0xFF SWAP5 PUSH1 0x30 SHL AND SWAP2 PUSH7 0xFFFFFFFFFFFFFF NOT AND OR OR DUP4 SSTORE MLOAD AND PUSH1 0xFF PUSH1 0x38 SHL DUP3 SLOAD SWAP2 PUSH1 0x38 SHL AND SWAP1 PUSH1 0xFF PUSH1 0x38 SHL NOT AND OR SWAP1 SSTORE JUMP JUMPDEST DUP1 PUSH1 0x0 MSTORE PUSH1 0x10 PUSH1 0x20 MSTORE PUSH1 0x40 PUSH1 0x0 KECCAK256 DUP1 SLOAD PUSH1 0xFF DUP2 AND ISZERO PUSH2 0x9E0 JUMPI JUMPDEST POP POP PUSH1 0x9 PUSH1 0x20 MSTORE PUSH1 0x40 PUSH1 0x0 KECCAK256 SLOAD PUSH1 0x0 NOT DUP2 ADD SWAP1 DUP2 GT PUSH2 0x6CE JUMPI PUSH1 0xA0 PUSH1 0x0 DUP1 MLOAD PUSH1 0x20 PUSH2 0x4D82 DUP4 CODECOPY DUP2 MLOAD SWAP2 MSTORE SWAP2 PUSH1 0x40 MLOAD SWAP1 PUSH1 0x0 DUP3 MSTORE CALLVALUE PUSH1 0x20 DUP4 ADD MSTORE TIMESTAMP PUSH1 0x40 DUP4 ADD MSTORE PUSH1 0x60 DUP3 ADD MSTORE PUSH1 0x0 PUSH1 0x80 DUP3 ADD MSTORE LOG2 PUSH2 0x9D7 CALLVALUE PUSH1 0x12 SLOAD PUSH2 0x4ABB JUMP JUMPDEST PUSH1 0x12 SSTORE PUSH1 0x1 DUP1 SSTORE STOP JUMPDEST PUSH1 0xFF NOT AND PUSH1 0x1 OR SWAP1 SSTORE DUP2 DUP1 PUSH2 0x97F JUMP JUMPDEST POP PUSH1 0x1 PUSH1 0x1 PUSH1 0xA0 SHL SUB PUSH2 0xA01 PUSH2 0x4A22 JUMP JUMPDEST AND PUSH1 0x0 MSTORE PUSH1 0xA PUSH1 0x20 MSTORE PUSH1 0xFF PUSH1 0x40 PUSH1 0x0 KECCAK256 SLOAD AND ISZERO PUSH2 0x831 JUMP JUMPDEST CALLVALUE PUSH2 0x448 JUMPI PUSH2 0xA27 CALLDATASIZE PUSH2 0x471C JUMP JUMPDEST PUSH2 0xA2F PUSH2 0x473B JUMP JUMPDEST PUSH1 0x2 DUP3 LT ISZERO PUSH2 0x6F3 JUMPI PUSH32 0x5D7976BCCD4B396C1A1A0020032E62BF8A381BCFFC61E69A13EA61761B757218 SWAP2 PUSH1 0x40 SWAP2 DUP2 PUSH2 0xA7B JUMPI DUP1 PUSH1 0x3 SSTORE JUMPDEST PUSH2 0xA73 DUP4 MLOAD DUP1 SWAP4 PUSH2 0x4629 JUMP JUMPDEST PUSH1 0x20 DUP3 ADD MSTORE LOG1 STOP JUMPDEST DUP1 PUSH1 0x4 SSTORE PUSH2 0xA67 JUMP JUMPDEST CALLVALUE PUSH2 0x448 JUMPI PUSH2 0xA92 CALLDATASIZE PUSH2 0x46DD JUMP JUMPDEST SWAP1 PUSH2 0xA9B PUSH2 0x473B JUMP JUMPDEST PUSH1 0x0 JUMPDEST DUP3 DUP2 LT PUSH2 0xAA7 JUMPI STOP JUMPDEST PUSH2 0xB05 SWAP1 PUSH1 0x1 DUP1 PUSH1 0xA0 SHL SUB DUP6 AND PUSH1 0x0 MSTORE PUSH1 0x9 PUSH1 0x20 MSTORE PUSH2 0xB00 PUSH1 0x1 PUSH2 0xADB PUSH1 0x40 PUSH1 0x0 KECCAK256 PUSH2 0xAD4 DUP6 DUP10 DUP10 PUSH2 0x4A8A JUMP JUMPDEST CALLDATALOAD SWAP1 PUSH2 0x45F7 JUMP JUMPDEST POP ADD DUP1 SLOAD PUSH1 0xFF PUSH1 0x38 SHL NOT DUP2 AND PUSH1 0x38 SWAP2 DUP3 SHR PUSH1 0xFF AND PUSH1 0x4 OR SWAP1 SWAP2 SHL PUSH1 0xFF PUSH1 0x38 SHL AND OR SWAP1 SSTORE JUMP JUMPDEST PUSH2 0x4A7B JUMP JUMPDEST PUSH2 0xA9E JUMP JUMPDEST CALLVALUE PUSH2 0x448 JUMPI PUSH1 0x0 CALLDATASIZE PUSH1 0x3 NOT ADD SLT PUSH2 0x448 JUMPI PUSH1 0x8 SLOAD PUSH1 0x40 MLOAD PUSH1 0x50 SWAP2 SWAP1 SWAP2 SHR PUSH1 0x1 PUSH1 0x1 PUSH1 0xA0 SHL SUB AND DUP2 MSTORE PUSH1 0x20 SWAP1 RETURN JUMPDEST CALLVALUE PUSH2 0x448 JUMPI PUSH1 0x0 CALLDATASIZE PUSH1 0x3 NOT ADD SLT PUSH2 0x448 JUMPI PUSH1 0x20 PUSH1 0x2 SLOAD PUSH1 0x40 MLOAD SWAP1 DUP2 MSTORE RETURN JUMPDEST CALLVALUE PUSH2 0x448 JUMPI PUSH1 0x0 CALLDATASIZE PUSH1 0x3 NOT ADD SLT PUSH2 0x448 JUMPI PUSH1 0x20 PUSH1 0x40 MLOAD PUSH32 0x241ECF16D79D0F8DBFB92CBC07FE17840425976CF0667F022FE9877CAA831B08 DUP2 MSTORE RETURN JUMPDEST CALLVALUE PUSH2 0x448 JUMPI PUSH1 0x20 CALLDATASIZE PUSH1 0x3 NOT ADD SLT PUSH2 0x448 JUMPI PUSH1 0x1 PUSH1 0x1 PUSH1 0xA0 SHL SUB PUSH2 0xBB1 PUSH2 0x45AD JUMP JUMPDEST AND PUSH1 0x0 MSTORE PUSH1 0xD PUSH1 0x20 MSTORE PUSH1 0x20 PUSH1 0x40 PUSH1 0x0 KECCAK256 SLOAD PUSH1 0x40 MLOAD SWAP1 DUP2 MSTORE RETURN JUMPDEST CALLVALUE PUSH2 0x448 JUMPI PUSH1 0x0 CALLDATASIZE PUSH1 0x3 NOT ADD SLT PUSH2 0x448 JUMPI PUSH1 0x20 PUSH1 0x40 MLOAD PUSH32 0x65D7A28E3265B37A6474929F336521B332C1681B933F6CB9F3376673440D862A DUP2 MSTORE RETURN JUMPDEST CALLVALUE PUSH2 0x448 JUMPI PUSH1 0x0 CALLDATASIZE PUSH1 0x3 NOT ADD SLT PUSH2 0x448 JUMPI PUSH2 0xC1E PUSH2 0x4B07 JUMP JUMPDEST PUSH2 0xC26 PUSH2 0x4A22 JUMP JUMPDEST PUSH1 0x1 PUSH1 0x1 PUSH1 0xA0 SHL SUB DUP2 AND PUSH1 0x0 DUP2 DUP2 MSTORE PUSH1 0xC PUSH1 0x20 MSTORE PUSH1 0x40 SWAP1 KECCAK256 SLOAD SWAP1 SWAP2 DUP2 ISZERO PUSH2 0xCBC JUMPI PUSH1 0x0 DUP1 DUP1 DUP5 DUP2 SWAP5 DUP8 DUP4 MSTORE PUSH1 0xC PUSH1 0x20 MSTORE DUP3 PUSH1 0x40 DUP2 KECCAK256 SSTORE GAS CALL PUSH2 0xC66 PUSH2 0x4AC8 JUMP JUMPDEST POP ISZERO PUSH2 0xCAA JUMPI PUSH1 0x60 PUSH32 0x6914793C7A82461ACEC66C7DE7FDBBBF1F825C26BC2FE939B61F0E4F8964C2B5 SWAP2 PUSH1 0x40 MLOAD SWAP1 PUSH1 0x0 DUP3 MSTORE PUSH1 0x20 DUP3 ADD MSTORE TIMESTAMP PUSH1 0x40 DUP3 ADD MSTORE LOG2 PUSH1 0x1 DUP1 SSTORE STOP JUMPDEST PUSH1 0x40 MLOAD PUSH4 0x12171D83 PUSH1 0xE3 SHL DUP2 MSTORE PUSH1 0x4 SWAP1 REVERT JUMPDEST PUSH1 0x40 MLOAD PUSH4 0x3BD65A7B PUSH1 0xE2 SHL DUP2 MSTORE PUSH1 0x4 SWAP1 REVERT JUMPDEST CALLVALUE PUSH2 0x448 JUMPI PUSH1 0x0 CALLDATASIZE PUSH1 0x3 NOT ADD SLT PUSH2 0x448 JUMPI PUSH1 0x20 PUSH1 0x15 SLOAD PUSH1 0x40 MLOAD SWAP1 DUP2 MSTORE RETURN JUMPDEST CALLVALUE PUSH2 0x448 JUMPI PUSH1 0x0 CALLDATASIZE PUSH1 0x3 NOT ADD SLT PUSH2 0x448 JUMPI PUSH1 0x20 PUSH1 0x19 SLOAD PUSH1 0x40 MLOAD SWAP1 DUP2 MSTORE RETURN JUMPDEST CALLVALUE PUSH2 0x448 JUMPI PUSH2 0xD18 CALLDATASIZE PUSH2 0x471C JUMP JUMPDEST SWAP1 PUSH2 0xD21 PUSH2 0x473B JUMP JUMPDEST PUSH1 0x2 DUP2 LT ISZERO PUSH2 0x6F3 JUMPI PUSH32 0xE2020CCDFFC33D6BD83958B54F2A2C8FF6A9ED4C929F154AA10FE7F5FF238B22 SWAP2 PUSH2 0xD9D SWAP2 ISZERO DUP1 ISZERO PUSH2 0xDD5 JUMPI DUP2 PUSH1 0x5 SSTORE JUMPDEST ISZERO PUSH2 0xDA8 JUMPI PUSH1 0x40 MLOAD PUSH2 0xD6D DUP2 PUSH2 0x448B JUMP JUMPDEST PUSH1 0xD DUP2 MSTORE PUSH13 0xDAD2DC88CAE0DEE6D2E88AA89 PUSH1 0x9B SHL PUSH1 0x20 DUP3 ADD MSTORE SWAP1 JUMPDEST PUSH1 0x40 MLOAD SWAP3 DUP4 SWAP3 PUSH1 0x40 DUP5 MSTORE PUSH1 0x40 DUP5 ADD SWAP1 PUSH2 0x456D JUMP JUMPDEST SWAP1 PUSH1 0x20 DUP4 ADD MSTORE SUB SWAP1 LOG1 STOP JUMPDEST PUSH1 0x40 MLOAD PUSH2 0xDB4 DUP2 PUSH2 0x448B JUMP JUMPDEST PUSH1 0xE DUP2 MSTORE PUSH14 0x6D696E4465706F73697455534443 PUSH1 0x90 SHL PUSH1 0x20 DUP3 ADD MSTORE SWAP1 PUSH2 0xD89 JUMP JUMPDEST DUP2 PUSH1 0x6 SSTORE PUSH2 0xD5C JUMP JUMPDEST CALLVALUE PUSH2 0x448 JUMPI PUSH1 0x0 CALLDATASIZE PUSH1 0x3 NOT ADD SLT PUSH2 0x448 JUMPI PUSH1 0x20 PUSH1 0x40 MLOAD PUSH32 0xC806897CAF4FD5068191157E44D3988E43139A37E0B97B6793E1ED1184140604 DUP2 MSTORE RETURN JUMPDEST CALLVALUE PUSH2 0x448 JUMPI PUSH1 0x0 CALLDATASIZE PUSH1 0x3 NOT ADD SLT PUSH2 0x448 JUMPI PUSH2 0xE32 PUSH2 0x473B JUMP JUMPDEST PUSH1 0x8 SLOAD PUSH1 0xFF DUP2 PUSH1 0x18 SHR AND PUSH2 0xE95 JUMPI PUSH4 0x1000000 SWAP1 PUSH10 0xFFFFFFFFFFFF00000000 TIMESTAMP PUSH1 0x20 SHL AND SWAP1 PUSH10 0xFFFFFFFFFFFFFF000000 NOT AND OR OR PUSH1 0x8 SSTORE PUSH32 0x2388CEAED48D21BD0802856DF41A22705F9046A67A817A047352AA3BBFE5C5D1 PUSH1 0x20 PUSH1 0x40 MLOAD TIMESTAMP DUP2 MSTORE LOG1 STOP JUMPDEST PUSH1 0x40 MLOAD PUSH4 0xAE7FE589 PUSH1 0xE0 SHL DUP2 MSTORE PUSH1 0x4 SWAP1 REVERT JUMPDEST CALLVALUE PUSH2 0x448 JUMPI PUSH1 0x0 CALLDATASIZE PUSH1 0x3 NOT ADD SLT PUSH2 0x448 JUMPI PUSH1 0x20 PUSH1 0x1C SLOAD PUSH1 0x40 MLOAD SWAP1 DUP2 MSTORE RETURN JUMPDEST CALLVALUE PUSH2 0x448 JUMPI PUSH1 0x20 CALLDATASIZE PUSH1 0x3 NOT ADD SLT PUSH2 0x448 JUMPI PUSH1 0x4 CALLDATALOAD PUSH2 0xEE1 PUSH2 0x4815 JUMP JUMPDEST DUP1 ISZERO PUSH2 0x7B3 JUMPI DUP1 PUSH2 0xEF0 PUSH2 0x4A22 JUMP JUMPDEST PUSH1 0x40 MLOAD PUSH4 0x23B872DD PUSH1 0xE0 SHL DUP2 MSTORE PUSH1 0x1 PUSH1 0x1 PUSH1 0xA0 SHL SUB SWAP2 DUP3 AND PUSH1 0x4 DUP3 ADD MSTORE ADDRESS PUSH1 0x24 DUP3 ADD MSTORE PUSH1 0x44 DUP2 ADD SWAP3 SWAP1 SWAP3 MSTORE PUSH1 0x20 DUP3 PUSH1 0x64 DUP2 PUSH1 0x0 PUSH32 0x0 DUP7 AND GAS CALL SWAP1 DUP2 ISZERO PUSH2 0x762 JUMPI PUSH32 0x8BAFEC96FCFFB6F12596B4635C76397B7BC1F363B22C49C13136B63677323DCC SWAP3 PUSH1 0x60 SWAP3 PUSH2 0xFA9 JUMPI JUMPDEST POP PUSH2 0xF86 DUP5 PUSH1 0x17 SLOAD PUSH2 0x4ABB JUMP JUMPDEST PUSH1 0x17 SSTORE PUSH2 0xF91 PUSH2 0x4A22 JUMP JUMPDEST PUSH1 0x40 MLOAD SWAP5 PUSH1 0x1 DUP7 MSTORE PUSH1 0x20 DUP7 ADD MSTORE TIMESTAMP PUSH1 0x40 DUP7 ADD MSTORE AND SWAP3 LOG2 STOP JUMPDEST PUSH2 0xFC0 SWAP1 PUSH1 0x20 RETURNDATASIZE DUP2 GT PUSH2 0x75B JUMPI PUSH2 0x74C DUP2 DUP4 PUSH2 0x44A6 JUMP JUMPDEST POP DUP5 PUSH2 0xF79 JUMP JUMPDEST CALLVALUE PUSH2 0x448 JUMPI PUSH1 0x40 CALLDATASIZE PUSH1 0x3 NOT ADD SLT PUSH2 0x448 JUMPI PUSH2 0x19 PUSH1 0x4 CALLDATALOAD PUSH2 0xFE6 PUSH2 0x45C3 JUMP JUMPDEST SWAP1 DUP1 PUSH1 0x0 MSTORE PUSH1 0x0 PUSH1 0x20 MSTORE PUSH2 0x1001 PUSH1 0x1 PUSH1 0x40 PUSH1 0x0 KECCAK256 ADD SLOAD PUSH2 0x48EF JUMP JUMPDEST PUSH2 0x49B0 JUMP JUMPDEST CALLVALUE PUSH2 0x448 JUMPI PUSH1 0x0 CALLDATASIZE PUSH1 0x3 NOT ADD SLT PUSH2 0x448 JUMPI PUSH1 0x1C SLOAD PUSH2 0x1023 DUP2 PUSH2 0x4D56 JUMP JUMPDEST PUSH2 0x1030 PUSH1 0x40 MLOAD SWAP2 DUP3 PUSH2 0x44A6 JUMP JUMPDEST DUP2 DUP2 MSTORE PUSH1 0x1F NOT PUSH2 0x103F DUP4 PUSH2 0x4D56 JUMP JUMPDEST ADD PUSH1 0x0 JUMPDEST DUP2 DUP2 LT PUSH2 0x120B JUMPI POP POP PUSH1 0x1 SWAP2 DUP3 JUMPDEST DUP2 DUP2 GT ISZERO PUSH2 0x1141 JUMPI DUP3 DUP5 PUSH1 0x40 MLOAD SWAP2 DUP3 SWAP2 PUSH1 0x20 SWAP1 DUP2 DUP5 ADD DUP3 DUP6 MSTORE DUP4 MLOAD DUP1 SWAP2 MSTORE PUSH1 0x40 DUP6 ADD SWAP3 DUP1 PUSH1 0x40 DUP4 PUSH1 0x5 SHL DUP9 ADD ADD SWAP6 ADD SWAP4 PUSH1 0x0 SWAP1 JUMPDEST DUP4 DUP3 LT PUSH2 0x1092 JUMPI DUP8 DUP8 SUB DUP9 RETURN JUMPDEST SWAP2 DUP5 SWAP7 DUP2 SWAP6 SWAP3 SWAP5 SWAP7 SWAP9 POP DUP2 SWAP1 PUSH1 0x3F NOT DUP12 DUP3 SUB ADD DUP6 MSTORE DUP10 MLOAD SWAP1 DUP2 MLOAD DUP2 MSTORE PUSH1 0x1 DUP1 PUSH1 0xA0 SHL SUB DUP4 DUP4 ADD MLOAD AND DUP4 DUP3 ADD MSTORE PUSH2 0x10ED PUSH2 0x10DA PUSH1 0x40 DUP5 ADD MLOAD PUSH2 0x140 DUP1 PUSH1 0x40 DUP7 ADD MSTORE DUP5 ADD SWAP1 PUSH2 0x456D JUMP JUMPDEST PUSH1 0x60 DUP1 DUP6 ADD MLOAD SWAP1 DUP5 DUP4 SUB SWAP1 DUP6 ADD MSTORE PUSH2 0x456D JUMP JUMPDEST SWAP2 PUSH1 0x80 DUP1 DUP3 ADD MLOAD SWAP1 DUP4 ADD MSTORE PUSH1 0xA0 DUP1 DUP3 ADD MLOAD SWAP1 DUP4 ADD MSTORE PUSH1 0xC0 DUP1 DUP3 ADD MLOAD SWAP1 DUP4 ADD MSTORE PUSH1 0xE0 DUP2 ADD MLOAD PUSH1 0xE0 DUP4 ADD MSTORE PUSH2 0x100 DUP1 DUP3 ADD MLOAD ISZERO ISZERO SWAP1 DUP4 ADD MSTORE PUSH2 0x120 DUP1 SWAP2 ADD MLOAD ISZERO ISZERO SWAP2 ADD MSTORE SWAP9 ADD SWAP3 ADD SWAP3 ADD DUP8 SWAP7 SWAP6 SWAP4 SWAP2 SWAP5 SWAP3 PUSH2 0x1085 JUMP JUMPDEST DUP1 PUSH1 0x0 MSTORE PUSH1 0x20 SWAP1 PUSH1 0x1D DUP3 MSTORE PUSH1 0x40 PUSH1 0x0 KECCAK256 PUSH1 0x0 NOT DUP3 ADD DUP3 DUP2 GT PUSH2 0x6CE JUMPI PUSH2 0x1206 SWAP4 PUSH2 0x1200 SWAP3 PUSH1 0x40 MLOAD SWAP2 PUSH2 0x1172 DUP4 PUSH2 0x4454 JUMP JUMPDEST DUP2 SLOAD DUP4 MSTORE DUP10 DUP3 ADD SLOAD PUSH1 0x1 PUSH1 0x1 PUSH1 0xA0 SHL SUB AND SWAP1 DUP4 ADD MSTORE PUSH2 0x1193 PUSH1 0x2 DUP3 ADD PUSH2 0x44C7 JUMP JUMPDEST PUSH1 0x40 DUP4 ADD MSTORE PUSH2 0x11A4 PUSH1 0x3 DUP3 ADD PUSH2 0x44C7 JUMP JUMPDEST PUSH1 0x60 DUP4 ADD MSTORE PUSH1 0x4 DUP2 ADD SLOAD PUSH1 0x80 DUP4 ADD MSTORE PUSH1 0x5 DUP2 ADD SLOAD PUSH1 0xA0 DUP4 ADD MSTORE PUSH1 0x6 DUP2 ADD SLOAD PUSH1 0xC0 DUP4 ADD MSTORE PUSH1 0x7 DUP2 ADD SLOAD PUSH1 0xE0 DUP4 ADD MSTORE PUSH1 0x8 DUP1 SWAP2 ADD SLOAD PUSH1 0xFF SWAP2 DUP3 DUP3 AND ISZERO ISZERO PUSH2 0x100 DUP6 ADD MSTORE SHR AND ISZERO ISZERO PUSH2 0x120 DUP3 ADD MSTORE PUSH2 0x11F9 DUP3 DUP9 PUSH2 0x4D6D JUMP JUMPDEST MSTORE DUP6 PUSH2 0x4D6D JUMP JUMPDEST POP PUSH2 0x4A7B JUMP JUMPDEST PUSH2 0x1051 JUMP JUMPDEST PUSH1 0x20 SWAP1 PUSH1 0x40 MLOAD PUSH2 0x121A DUP2 PUSH2 0x4454 JUMP JUMPDEST PUSH1 0x0 DUP2 MSTORE DUP3 PUSH1 0x0 DUP2 DUP4 ADD MSTORE PUSH1 0x60 DUP1 PUSH1 0x40 DUP5 ADD MSTORE DUP1 DUP4 ADD MSTORE PUSH1 0x0 PUSH1 0x80 DUP4 ADD MSTORE PUSH1 0x0 PUSH1 0xA0 DUP4 ADD MSTORE PUSH1 0x0 PUSH1 0xC0 DUP4 ADD MSTORE PUSH1 0x0 PUSH1 0xE0 DUP4 ADD MSTORE PUSH1 0x0 PUSH2 0x100 DUP4 ADD MSTORE PUSH1 0x0 PUSH2 0x120 DUP4 ADD MSTORE DUP3 DUP7 ADD ADD MSTORE ADD PUSH2 0x1043 JUMP JUMPDEST CALLVALUE PUSH2 0x448 JUMPI PUSH1 0x40 CALLDATASIZE PUSH1 0x3 NOT ADD SLT PUSH2 0x448 JUMPI PUSH1 0x4 CALLDATALOAD PUSH2 0x1284 PUSH2 0x45E8 JUMP JUMPDEST SWAP1 PUSH2 0x128D PUSH2 0x4B07 JUMP JUMPDEST DUP1 PUSH1 0x0 MSTORE PUSH1 0x20 SWAP2 PUSH1 0x1D DUP4 MSTORE PUSH1 0x40 PUSH1 0x0 KECCAK256 PUSH1 0xFF PUSH1 0x8 DUP3 ADD SLOAD AND ISZERO PUSH2 0x1438 JUMPI PUSH1 0x5 DUP2 ADD SLOAD TIMESTAMP GT PUSH2 0x1404 JUMPI PUSH1 0x0 DUP4 DUP2 MSTORE PUSH1 0x1E DUP6 MSTORE PUSH1 0x40 SWAP1 KECCAK256 PUSH1 0x1 PUSH1 0x1 PUSH1 0xA0 SHL SUB SWAP1 DUP2 PUSH2 0x12D4 PUSH2 0x4A22 JUMP JUMPDEST AND PUSH1 0x0 MSTORE DUP6 MSTORE PUSH1 0xFF PUSH1 0x40 PUSH1 0x0 KECCAK256 SLOAD AND PUSH2 0x13CF JUMPI PUSH2 0x12F7 PUSH2 0x12F2 PUSH2 0x4A22 JUMP JUMPDEST PUSH2 0x4C80 JUMP JUMPDEST SWAP2 DUP3 ISZERO PUSH2 0x1398 JUMPI SWAP2 PUSH32 0x7C2DE587C00D75474A0C6C6FA96FD3B45DC974CD4E8A75F712BB84C950DCE1B5 SWAP4 SWAP2 PUSH1 0x40 SWAP4 DUP7 PUSH1 0x0 MSTORE PUSH1 0x1E DUP9 MSTORE DUP5 PUSH1 0x0 KECCAK256 DUP3 PUSH2 0x133A PUSH2 0x4A22 JUMP JUMPDEST AND PUSH1 0x0 MSTORE DUP9 MSTORE DUP5 PUSH1 0x0 KECCAK256 PUSH1 0x1 PUSH1 0xFF NOT DUP3 SLOAD AND OR SWAP1 SSTORE DUP4 PUSH1 0x0 EQ PUSH2 0x1383 JUMPI PUSH1 0x6 ADD PUSH2 0x1365 DUP4 DUP3 SLOAD PUSH2 0x4ABB JUMP JUMPDEST SWAP1 SSTORE JUMPDEST PUSH2 0x1370 PUSH2 0x4A22 JUMP JUMPDEST AND SWAP6 DUP4 MLOAD SWAP3 ISZERO ISZERO DUP4 MSTORE DUP3 ADD MSTORE LOG3 PUSH1 0x1 DUP1 SSTORE STOP JUMPDEST PUSH1 0x7 ADD PUSH2 0x1391 DUP4 DUP3 SLOAD PUSH2 0x4ABB JUMP JUMPDEST SWAP1 SSTORE PUSH2 0x1368 JUMP JUMPDEST PUSH1 0x40 MLOAD PUSH3 0x461BCD PUSH1 0xE5 SHL DUP2 MSTORE PUSH1 0x4 DUP2 ADD DUP8 SWAP1 MSTORE PUSH1 0xF PUSH1 0x24 DUP3 ADD MSTORE PUSH15 0x2737902B37BA34B733902837BBB2B9 PUSH1 0x89 SHL PUSH1 0x44 DUP3 ADD MSTORE PUSH1 0x64 SWAP1 REVERT JUMPDEST PUSH1 0x40 MLOAD PUSH3 0x461BCD PUSH1 0xE5 SHL DUP2 MSTORE PUSH1 0x4 DUP2 ADD DUP7 SWAP1 MSTORE PUSH1 0xD PUSH1 0x24 DUP3 ADD MSTORE PUSH13 0x105B1C9958591E481D9BDD1959 PUSH1 0x9A SHL PUSH1 0x44 DUP3 ADD MSTORE PUSH1 0x64 SWAP1 REVERT JUMPDEST PUSH1 0x40 MLOAD PUSH3 0x461BCD PUSH1 0xE5 SHL DUP2 MSTORE PUSH1 0x4 DUP2 ADD DUP6 SWAP1 MSTORE PUSH1 0xC PUSH1 0x24 DUP3 ADD MSTORE PUSH12 0x159BDD1A5B99C8195B991959 PUSH1 0xA2 SHL PUSH1 0x44 DUP3 ADD MSTORE PUSH1 0x64 SWAP1 REVERT JUMPDEST PUSH1 0x40 MLOAD PUSH3 0x461BCD PUSH1 0xE5 SHL DUP2 MSTORE PUSH1 0x4 DUP2 ADD DUP6 SWAP1 MSTORE PUSH1 0x13 PUSH1 0x24 DUP3 ADD MSTORE PUSH19 0x50726F706F73616C206E6F7420616374697665 PUSH1 0x68 SHL PUSH1 0x44 DUP3 ADD MSTORE PUSH1 0x64 SWAP1 REVERT JUMPDEST CALLVALUE PUSH2 0x448 JUMPI PUSH1 0x20 CALLDATASIZE PUSH1 0x3 NOT ADD SLT PUSH2 0x448 JUMPI PUSH32 0xC5E00A325524BC148DDC05BB642B804E9AE1DFC670C217ED3C4C6595F7427EF4 PUSH1 0x20 PUSH1 0x4 CALLDATALOAD PUSH2 0x14B2 PUSH2 0x473B JUMP JUMPDEST DUP1 PUSH1 0x2 SSTORE PUSH1 0x40 MLOAD SWAP1 DUP2 MSTORE LOG1 STOP JUMPDEST CALLVALUE PUSH2 0x448 JUMPI PUSH1 0x40 CALLDATASIZE PUSH1 0x3 NOT ADD SLT PUSH2 0x448 JUMPI PUSH2 0x14D8 PUSH2 0x45AD JUMP JUMPDEST PUSH1 0x24 CALLDATALOAD PUSH2 0x14E3 PUSH2 0x47A8 JUMP JUMPDEST PUSH2 0x14EB PUSH2 0x4B07 JUMP JUMPDEST PUSH1 0x1 PUSH1 0x1 PUSH1 0xA0 SHL SUB DUP3 DUP2 AND SWAP3 DUP4 ISZERO PUSH2 0x7C5 JUMPI SELFBALANCE DUP4 GT PUSH2 0x1572 JUMPI PUSH1 0x0 DUP1 DUP1 DUP6 DUP2 SWAP5 PUSH2 0x1517 DUP3 PUSH1 0x1A SLOAD PUSH2 0x4ABB JUMP JUMPDEST PUSH1 0x1A SSTORE GAS CALL PUSH2 0x1524 PUSH2 0x4AC8 JUMP JUMPDEST POP ISZERO PUSH2 0xCAA JUMPI PUSH1 0x60 PUSH32 0x8D4F9C9A6DA9172DA9A02229D92E4AF088C62953986A74048D010260B197DEF3 SWAP2 PUSH2 0x1556 PUSH2 0x4A22 JUMP JUMPDEST PUSH1 0x40 MLOAD SWAP5 PUSH1 0x0 DUP7 MSTORE PUSH1 0x20 DUP7 ADD MSTORE TIMESTAMP PUSH1 0x40 DUP7 ADD MSTORE AND SWAP3 LOG3 PUSH1 0x1 DUP1 SSTORE STOP JUMPDEST PUSH1 0x40 MLOAD PUSH4 0x1E9ACF17 PUSH1 0xE3 SHL DUP2 MSTORE PUSH1 0x4 SWAP1 REVERT JUMPDEST CALLVALUE PUSH2 0x448 JUMPI PUSH1 0x0 CALLDATASIZE PUSH1 0x3 NOT ADD SLT PUSH2 0x448 JUMPI PUSH2 0x159D PUSH2 0x4B07 JUMP JUMPDEST PUSH1 0x1 PUSH1 0x1 PUSH1 0xA0 SHL SUB PUSH2 0x15AD PUSH2 0x4A22 JUMP JUMPDEST AND DUP1 PUSH1 0x0 MSTORE PUSH1 0x20 SWAP1 PUSH1 0xD DUP3 MSTORE PUSH1 0x40 PUSH1 0x0 KECCAK256 SLOAD DUP1 ISZERO PUSH2 0xCBC JUMPI DUP2 PUSH1 0x0 MSTORE PUSH1 0xD DUP4 MSTORE PUSH1 0x0 PUSH1 0x40 DUP2 KECCAK256 SSTORE PUSH1 0x9 DUP4 MSTORE PUSH1 0x40 PUSH1 0x0 KECCAK256 SWAP3 PUSH1 0x40 MLOAD SWAP4 PUSH2 0x15EB DUP6 PUSH2 0x4470 JUMP JUMPDEST PUSH1 0x1 PUSH1 0x1 PUSH1 0x60 SHL SUB DUP1 DUP5 AND DUP7 MSTORE DUP3 DUP7 ADD PUSH1 0x0 DUP2 MSTORE PUSH1 0x40 DUP8 ADD SWAP7 PUSH6 0xFFFFFFFFFFFF SWAP1 DUP2 TIMESTAMP AND DUP10 MSTORE PUSH1 0x60 DUP2 ADD SWAP4 PUSH1 0x0 DUP6 MSTORE PUSH1 0x80 DUP3 ADD SWAP4 PUSH1 0x1 SWAP11 DUP12 DUP7 MSTORE PUSH1 0xA0 DUP5 ADD SWAP8 PUSH1 0x8 DUP10 MSTORE DUP1 SLOAD PUSH1 0x1 PUSH1 0x40 SHL DUP2 LT ISZERO PUSH2 0x71F JUMPI PUSH2 0x164A SWAP2 DUP15 DUP3 ADD DUP2 SSTORE PUSH2 0x45F7 JUMP JUMPDEST SWAP4 SWAP1 SWAP4 PUSH2 0x709 JUMPI SWAP4 MLOAD DUP4 SLOAD SWAP3 MLOAD SWAP2 MLOAD PUSH1 0x1 PUSH1 0x1 PUSH1 0xF0 SHL SUB NOT SWAP1 SWAP4 AND SWAP5 AND SWAP4 SWAP1 SWAP4 OR PUSH1 0x60 SWAP4 SWAP1 SWAP4 SHL PUSH1 0x1 PUSH1 0x60 SHL PUSH1 0x1 PUSH1 0xC0 SHL SUB AND SWAP3 SWAP1 SWAP3 OR PUSH1 0xC0 SWAP3 SWAP1 SWAP3 SHL PUSH6 0xFFFFFFFFFFFF PUSH1 0xC0 SHL AND SWAP2 SWAP1 SWAP2 OR DUP2 SSTORE SWAP3 MLOAD SWAP3 DUP9 ADD DUP1 SLOAD SWAP3 MLOAD SWAP2 SWAP1 SWAP4 AND SWAP4 SWAP1 SWAP2 PUSH1 0x2 DUP4 LT ISZERO PUSH2 0x6F3 JUMPI PUSH2 0x16EB SWAP5 PUSH1 0xFF PUSH1 0x30 SHL PUSH1 0xFF SWAP5 PUSH1 0x30 SHL AND SWAP2 PUSH7 0xFFFFFFFFFFFFFF NOT AND OR OR DUP4 SSTORE MLOAD AND PUSH1 0xFF PUSH1 0x38 SHL DUP3 SLOAD SWAP2 PUSH1 0x38 SHL AND SWAP1 PUSH1 0xFF PUSH1 0x38 SHL NOT AND OR SWAP1 SSTORE JUMP JUMPDEST DUP3 PUSH1 0x0 MSTORE PUSH1 0x10 DUP2 MSTORE PUSH1 0x40 PUSH1 0x0 KECCAK256 DUP5 DUP2 SLOAD PUSH1 0xFF DUP2 AND ISZERO PUSH2 0x17B1 JUMPI JUMPDEST POP POP PUSH1 0x9 DUP3 MSTORE POP PUSH1 0x40 PUSH1 0x0 KECCAK256 SLOAD PUSH1 0x0 NOT DUP2 ADD SWAP2 SWAP1 DUP3 GT PUSH2 0x6CE JUMPI PUSH32 0x997D2EC09B086DE73D509BBC4AD2B52FD7E2338024464BEDE93A41ABD6CCDC38 SWAP3 DUP5 PUSH1 0x0 DUP1 MLOAD PUSH1 0x20 PUSH2 0x4D82 DUP4 CODECOPY DUP2 MLOAD SWAP2 MSTORE PUSH1 0xA0 PUSH1 0x60 SWAP6 PUSH1 0x40 MLOAD SWAP1 DUP11 DUP3 MSTORE DUP6 DUP8 DUP4 ADD MSTORE TIMESTAMP PUSH1 0x40 DUP4 ADD MSTORE DUP8 DUP3 ADD MSTORE DUP10 PUSH1 0x80 DUP3 ADD MSTORE LOG2 PUSH2 0x177F DUP2 PUSH1 0x19 SLOAD PUSH2 0x4ABB JUMP JUMPDEST PUSH1 0x19 SSTORE DUP5 PUSH1 0x0 MSTORE PUSH1 0xF DUP3 MSTORE PUSH1 0x40 PUSH1 0x0 KECCAK256 PUSH2 0x179A DUP3 DUP3 SLOAD PUSH2 0x4ABB JUMP JUMPDEST SWAP1 SSTORE PUSH1 0x40 MLOAD SWAP2 DUP7 DUP4 MSTORE DUP3 ADD MSTORE TIMESTAMP PUSH1 0x40 DUP3 ADD MSTORE LOG2 DUP1 SSTORE STOP JUMPDEST PUSH1 0xFF NOT AND OR SWAP1 SSTORE DUP5 DUP5 DUP2 PUSH2 0x1705 JUMP JUMPDEST CALLVALUE PUSH2 0x448 JUMPI PUSH1 0x20 CALLDATASIZE PUSH1 0x3 NOT ADD SLT PUSH2 0x448 JUMPI PUSH1 0x20 PUSH2 0x17DE PUSH2 0x12F2 PUSH2 0x45AD JUMP JUMPDEST PUSH1 0x40 MLOAD SWAP1 DUP2 MSTORE RETURN JUMPDEST CALLVALUE PUSH2 0x448 JUMPI PUSH2 0x17F4 CALLDATASIZE PUSH2 0x4693 JUMP JUMPDEST SWAP3 SWAP2 PUSH2 0x17FE PUSH2 0x473B JUMP JUMPDEST DUP4 DUP2 SUB PUSH2 0x18AB JUMPI SWAP3 SWAP2 SWAP1 PUSH1 0x0 SWAP4 PUSH1 0x0 SWAP4 JUMPDEST DUP2 DUP6 LT PUSH2 0x1841 JUMPI PUSH1 0x16 SLOAD DUP7 DUP2 DUP2 GT PUSH2 0x182F JUMPI PUSH2 0x182A SWAP2 PUSH2 0x4B42 JUMP JUMPDEST PUSH1 0x16 SSTORE STOP JUMPDEST PUSH1 0x40 MLOAD PUSH4 0x2F37549D PUSH1 0xE0 SHL DUP2 MSTORE PUSH1 0x4 SWAP1 REVERT JUMPDEST SWAP1 SWAP2 SWAP3 SWAP4 SWAP5 PUSH2 0x1851 DUP7 DUP4 DUP7 PUSH2 0x4A8A JUMP JUMPDEST CALLDATALOAD SWAP1 DUP2 ISZERO PUSH2 0x7B3 JUMPI PUSH2 0x18A2 SWAP2 PUSH2 0x189C SWAP2 PUSH1 0x1 PUSH1 0x1 PUSH1 0xA0 SHL SUB PUSH2 0x187C PUSH2 0x1877 DUP12 DUP10 DUP13 PUSH2 0x4A8A JUMP JUMPDEST PUSH2 0x4AA7 JUMP JUMPDEST AND PUSH1 0x0 MSTORE PUSH1 0xC PUSH1 0x20 MSTORE PUSH1 0x40 PUSH1 0x0 KECCAK256 PUSH2 0x1895 DUP4 DUP3 SLOAD PUSH2 0x4ABB JUMP JUMPDEST SWAP1 SSTORE PUSH2 0x4ABB JUMP JUMPDEST SWAP6 PUSH2 0x4A7B JUMP JUMPDEST SWAP4 SWAP3 SWAP2 SWAP1 PUSH2 0x180F JUMP JUMPDEST PUSH1 0x40 MLOAD PUSH4 0x512509D3 PUSH1 0xE1 SHL DUP2 MSTORE PUSH1 0x4 SWAP1 REVERT JUMPDEST CALLVALUE PUSH2 0x448 JUMPI PUSH1 0x0 CALLDATASIZE PUSH1 0x3 NOT ADD SLT PUSH2 0x448 JUMPI PUSH1 0x20 PUSH1 0x16 SLOAD PUSH1 0x40 MLOAD SWAP1 DUP2 MSTORE RETURN JUMPDEST CALLVALUE PUSH2 0x448 JUMPI PUSH1 0x0 CALLDATASIZE PUSH1 0x3 NOT ADD SLT PUSH2 0x448 JUMPI PUSH1 0x20 PUSH1 0xFF PUSH1 0x8 SLOAD PUSH1 0x8 SHR AND PUSH1 0x40 MLOAD SWAP1 ISZERO ISZERO DUP2 MSTORE RETURN JUMPDEST CALLVALUE PUSH2 0x448 JUMPI PUSH1 0x60 CALLDATASIZE PUSH1 0x3 NOT ADD SLT PUSH2 0x448 JUMPI PUSH2 0x191A PUSH2 0x45AD JUMP JUMPDEST PUSH2 0x1922 PUSH2 0x45C3 JUMP JUMPDEST PUSH1 0x44 CALLDATALOAD SWAP2 PUSH2 0x192E PUSH2 0x473B JUMP JUMPDEST PUSH1 0x1 PUSH1 0x1 PUSH1 0xA0 SHL SUB DUP3 DUP2 AND SWAP4 SWAP1 DUP5 ISZERO PUSH2 0x7C5 JUMPI PUSH1 0x40 MLOAD PUSH4 0xA9059CBB PUSH1 0xE0 SHL DUP2 MSTORE PUSH1 0x1 PUSH1 0x1 PUSH1 0xA0 SHL SUB SWAP5 SWAP1 SWAP5 AND PUSH1 0x4 DUP6 ADD MSTORE PUSH1 0x24 DUP5 ADD DUP3 SWAP1 MSTORE SWAP2 SWAP1 SWAP2 AND SWAP2 SWAP1 PUSH1 0x20 DUP3 PUSH1 0x44 DUP2 PUSH1 0x0 DUP8 GAS CALL SWAP1 DUP2 ISZERO PUSH2 0x762 JUMPI PUSH32 0x8BBFBB5D7FCACF6FC74005CDEDE0635561638507F576C95F7F294C22141BE2E5 SWAP3 PUSH1 0x20 SWAP3 PUSH2 0x19B2 JUMPI JUMPDEST POP PUSH1 0x40 MLOAD SWAP1 DUP2 MSTORE LOG3 STOP JUMPDEST PUSH2 0x19C8 SWAP1 DUP4 RETURNDATASIZE DUP2 GT PUSH2 0x75B JUMPI PUSH2 0x74C DUP2 DUP4 PUSH2 0x44A6 JUMP JUMPDEST POP DUP6 PUSH2 0x19A8 JUMP JUMPDEST CALLVALUE PUSH2 0x448 JUMPI PUSH1 0x0 CALLDATASIZE PUSH1 0x3 NOT ADD SLT PUSH2 0x448 JUMPI PUSH1 0x20 PUSH1 0x40 MLOAD PUSH9 0x1B1AE4D6E2EF500000 DUP2 MSTORE RETURN JUMPDEST CALLVALUE PUSH2 0x448 JUMPI PUSH1 0x0 CALLDATASIZE PUSH1 0x3 NOT ADD SLT PUSH2 0x448 JUMPI PUSH1 0x20 PUSH1 0x7 SLOAD PUSH1 0x40 MLOAD SWAP1 DUP2 MSTORE RETURN JUMPDEST CALLVALUE PUSH2 0x448 JUMPI PUSH1 0x0 CALLDATASIZE PUSH1 0x3 NOT ADD SLT PUSH2 0x448 JUMPI PUSH1 0x40 MLOAD PUSH4 0x70A08231 PUSH1 0xE0 SHL DUP2 MSTORE ADDRESS PUSH1 0x4 DUP3 ADD MSTORE SELFBALANCE PUSH1 0x20 DUP3 PUSH1 0x24 DUP2 PUSH32 0x0 PUSH1 0x1 PUSH1 0x1 PUSH1 0xA0 SHL SUB AND GAS STATICCALL DUP1 ISZERO PUSH2 0x762 JUMPI PUSH1 0x0 SWAP1 PUSH2 0x1AF3 JUMPI JUMPDEST PUSH2 0x1C0 SWAP3 POP PUSH1 0x12 SLOAD PUSH1 0x13 SLOAD PUSH1 0x14 SLOAD PUSH1 0x15 SLOAD PUSH1 0x16 SLOAD PUSH1 0x17 SLOAD SWAP1 PUSH1 0x18 SLOAD SWAP3 PUSH1 0x19 SLOAD SWAP5 PUSH1 0x1A SLOAD SWAP7 PUSH1 0x1B SLOAD SWAP9 PUSH1 0x11 SLOAD SWAP11 PUSH1 0x40 MLOAD SWAP13 DUP14 MSTORE PUSH1 0x20 DUP14 ADD MSTORE PUSH1 0x40 DUP13 ADD MSTORE PUSH1 0x60 DUP12 ADD MSTORE PUSH1 0x80 DUP11 ADD MSTORE PUSH1 0xA0 DUP10 ADD MSTORE PUSH1 0xC0 DUP9 ADD MSTORE PUSH1 0xE0 DUP8 ADD MSTORE PUSH2 0x100 DUP7 ADD MSTORE PUSH2 0x120 DUP6 ADD MSTORE PUSH2 0x140 DUP5 ADD MSTORE PUSH2 0x160 DUP4 ADD MSTORE PUSH1 0x0 PUSH2 0x180 DUP4 ADD MSTORE PUSH2 0x1A0 DUP3 ADD MSTORE RETURN JUMPDEST POP PUSH1 0x20 DUP3 RETURNDATASIZE DUP3 GT PUSH2 0x1B1E JUMPI JUMPDEST DUP2 PUSH2 0x1B0C PUSH1 0x20 SWAP4 DUP4 PUSH2 0x44A6 JUMP JUMPDEST DUP2 ADD SUB SLT PUSH2 0x448 JUMPI PUSH2 0x1C0 SWAP2 MLOAD PUSH2 0x1A76 JUMP JUMPDEST RETURNDATASIZE SWAP2 POP PUSH2 0x1AFF JUMP JUMPDEST CALLVALUE PUSH2 0x448 JUMPI PUSH1 0x0 CALLDATASIZE PUSH1 0x3 NOT ADD SLT PUSH2 0x448 JUMPI PUSH1 0x20 PUSH1 0x40 MLOAD PUSH1 0x0 DUP2 MSTORE RETURN JUMPDEST CALLVALUE PUSH2 0x448 JUMPI PUSH1 0x20 CALLDATASIZE PUSH1 0x3 NOT ADD SLT PUSH2 0x448 JUMPI PUSH1 0x4 CALLDATALOAD PUSH1 0x11 SLOAD DUP2 LT ISZERO PUSH2 0x448 JUMPI PUSH1 0x11 PUSH1 0x0 MSTORE PUSH32 0x31ECC21A745E3968A04E9570E4425BC18FA8019C68028196B546D1669C200C68 ADD SLOAD PUSH1 0x40 MLOAD PUSH1 0x1 PUSH1 0x1 PUSH1 0xA0 SHL SUB SWAP1 SWAP2 AND DUP2 MSTORE PUSH1 0x20 SWAP1 RETURN JUMPDEST CALLVALUE PUSH2 0x448 JUMPI PUSH1 0x0 CALLDATASIZE PUSH1 0x3 NOT ADD SLT PUSH2 0x448 JUMPI PUSH1 0x20 PUSH1 0x3 SLOAD PUSH1 0x40 MLOAD SWAP1 DUP2 MSTORE RETURN JUMPDEST CALLVALUE PUSH2 0x448 JUMPI PUSH1 0x0 CALLDATASIZE PUSH1 0x3 NOT ADD SLT PUSH2 0x448 JUMPI PUSH1 0x20 PUSH1 0x18 SLOAD PUSH1 0x40 MLOAD SWAP1 DUP2 MSTORE RETURN JUMPDEST CALLVALUE PUSH2 0x448 JUMPI PUSH1 0x20 CALLDATASIZE PUSH1 0x3 NOT ADD SLT PUSH2 0x448 JUMPI PUSH1 0x4 CALLDATALOAD PUSH2 0x1BF5 PUSH2 0x4882 JUMP JUMPDEST PUSH2 0x1BFD PUSH2 0x4B07 JUMP JUMPDEST PUSH1 0x8 SLOAD PUSH1 0x1 PUSH1 0x1 PUSH1 0xA0 SHL SUB SWAP1 PUSH1 0x50 SHR DUP2 AND DUP1 ISZERO PUSH2 0x7C5 JUMPI SELFBALANCE DUP4 GT PUSH2 0x1572 JUMPI PUSH1 0x0 DUP1 DUP1 DUP6 DUP2 SWAP5 GAS CALL PUSH2 0x1C2C PUSH2 0x4AC8 JUMP JUMPDEST POP ISZERO PUSH2 0xCAA JUMPI PUSH1 0x60 PUSH32 0x9ADBDC797ACA3CE26A722598F00149B2328FD124444E6D0B10C4BDC7CFC38196 SWAP2 PUSH1 0x8 SLOAD PUSH1 0x50 SHR AND SWAP3 PUSH1 0x40 MLOAD SWAP1 PUSH1 0x0 DUP3 MSTORE PUSH1 0x20 DUP3 ADD MSTORE TIMESTAMP PUSH1 0x40 DUP3 ADD MSTORE LOG2 PUSH1 0x1 DUP1 SSTORE STOP JUMPDEST CALLVALUE PUSH2 0x448 JUMPI PUSH1 0x40 CALLDATASIZE PUSH1 0x3 NOT ADD SLT PUSH2 0x448 JUMPI PUSH2 0x1C91 PUSH2 0x45C3 JUMP JUMPDEST PUSH1 0x4 CALLDATALOAD PUSH1 0x0 MSTORE PUSH1 0x0 PUSH1 0x20 MSTORE PUSH1 0x40 PUSH1 0x0 KECCAK256 SWAP1 PUSH1 0x1 DUP1 PUSH1 0xA0 SHL SUB AND PUSH1 0x0 MSTORE PUSH1 0x20 MSTORE PUSH1 0x20 PUSH1 0xFF PUSH1 0x40 PUSH1 0x0 KECCAK256 SLOAD AND PUSH1 0x40 MLOAD SWAP1 ISZERO ISZERO DUP2 MSTORE RETURN JUMPDEST CALLVALUE PUSH2 0x448 JUMPI PUSH1 0x40 CALLDATASIZE PUSH1 0x3 NOT ADD SLT PUSH2 0x448 JUMPI PUSH2 0x1CDE PUSH2 0x45AD JUMP JUMPDEST PUSH1 0x24 CALLDATALOAD SWAP1 PUSH2 0x1CEA PUSH2 0x47A8 JUMP JUMPDEST PUSH2 0x1CF2 PUSH2 0x4B07 JUMP JUMPDEST PUSH1 0x1 PUSH1 0x1 PUSH1 0xA0 SHL SUB DUP2 DUP2 AND SWAP3 SWAP1 SWAP2 SWAP1 DUP4 ISZERO PUSH2 0x7C5 JUMPI PUSH1 0x40 MLOAD PUSH4 0x70A08231 PUSH1 0xE0 SHL DUP2 MSTORE ADDRESS PUSH1 0x4 DUP3 ADD MSTORE PUSH1 0x20 SWAP4 SWAP1 PUSH32 0x0 DUP3 AND SWAP1 DUP6 DUP2 PUSH1 0x24 DUP2 DUP6 GAS STATICCALL SWAP1 DUP2 ISZERO PUSH2 0x762 JUMPI PUSH1 0x0 SWAP2 PUSH2 0x1E24 JUMPI JUMPDEST POP DUP4 GT PUSH2 0x1572 JUMPI DUP3 DUP6 SWAP2 PUSH2 0x1DAE SWAP6 PUSH2 0x1D73 DUP4 PUSH1 0x1B SLOAD PUSH2 0x4ABB JUMP JUMPDEST PUSH1 0x1B SSTORE PUSH1 0x40 MLOAD PUSH4 0xA9059CBB PUSH1 0xE0 SHL DUP2 MSTORE PUSH1 0x1 PUSH1 0x1 PUSH1 0xA0 SHL SUB SWAP1 SWAP2 AND PUSH1 0x4 DUP3 ADD MSTORE PUSH1 0x24 DUP2 ADD SWAP3 SWAP1 SWAP3 MSTORE SWAP1 SWAP5 DUP6 SWAP2 SWAP1 DUP3 SWAP1 PUSH1 0x0 SWAP1 DUP3 SWAP1 PUSH1 0x44 DUP3 ADD SWAP1 JUMP JUMPDEST SUB SWAP3 GAS CALL SWAP2 DUP3 ISZERO PUSH2 0x762 JUMPI PUSH32 0x8D4F9C9A6DA9172DA9A02229D92E4AF088C62953986A74048D010260B197DEF3 SWAP4 PUSH1 0x60 SWAP4 PUSH2 0x1E07 JUMPI JUMPDEST POP PUSH2 0x1DEC PUSH2 0x4A22 JUMP JUMPDEST SWAP1 PUSH1 0x40 MLOAD SWAP6 PUSH1 0x1 DUP8 MSTORE DUP7 ADD MSTORE TIMESTAMP PUSH1 0x40 DUP7 ADD MSTORE AND SWAP3 LOG3 PUSH1 0x1 DUP1 SSTORE STOP JUMPDEST PUSH2 0x1E1D SWAP1 DUP7 RETURNDATASIZE DUP9 GT PUSH2 0x75B JUMPI PUSH2 0x74C DUP2 DUP4 PUSH2 0x44A6 JUMP JUMPDEST POP DUP7 PUSH2 0x1DE3 JUMP JUMPDEST SWAP1 POP DUP6 DUP2 DUP2 RETURNDATASIZE DUP4 GT PUSH2 0x1E4A JUMPI JUMPDEST PUSH2 0x1E3B DUP2 DUP4 PUSH2 0x44A6 JUMP JUMPDEST DUP2 ADD SUB SLT PUSH2 0x448 JUMPI MLOAD DUP8 PUSH2 0x1D59 JUMP JUMPDEST POP RETURNDATASIZE PUSH2 0x1E31 JUMP JUMPDEST CALLVALUE PUSH2 0x448 JUMPI PUSH1 0x0 CALLDATASIZE PUSH1 0x3 NOT ADD SLT PUSH2 0x448 JUMPI PUSH1 0x20 PUSH1 0x14 SLOAD PUSH1 0x40 MLOAD SWAP1 DUP2 MSTORE RETURN JUMPDEST CALLVALUE PUSH2 0x448 JUMPI PUSH1 0x20 CALLDATASIZE PUSH1 0x3 NOT ADD SLT PUSH2 0x448 JUMPI PUSH1 0x4 CALLDATALOAD PUSH2 0x1E8B PUSH2 0x473B JUMP JUMPDEST PUSH2 0x2710 DUP2 GT PUSH2 0x1EF9 JUMPI PUSH1 0x80 DUP2 PUSH32 0xE2020CCDFFC33D6BD83958B54F2A2C8FF6A9ED4C929F154AA10FE7F5FF238B22 SWAP3 PUSH1 0x7 SSTORE PUSH1 0x40 MLOAD SWAP1 PUSH1 0x40 DUP3 MSTORE PUSH1 0x19 PUSH1 0x40 DUP4 ADD MSTORE PUSH32 0x6561726C795769746864726177616C50656E616C747942707300000000000000 PUSH1 0x60 DUP4 ADD MSTORE PUSH1 0x20 DUP3 ADD MSTORE LOG1 STOP JUMPDEST PUSH1 0x40 MLOAD PUSH3 0x461BCD PUSH1 0xE5 SHL DUP2 MSTORE PUSH1 0x20 PUSH1 0x4 DUP3 ADD MSTORE PUSH1 0xB PUSH1 0x24 DUP3 ADD MSTORE PUSH11 0x496E76616C696420425053 PUSH1 0xA8 SHL PUSH1 0x44 DUP3 ADD MSTORE PUSH1 0x64 SWAP1 REVERT JUMPDEST CALLVALUE PUSH2 0x448 JUMPI PUSH1 0x20 CALLDATASIZE PUSH1 0x3 NOT ADD SLT PUSH2 0x448 JUMPI PUSH2 0x1F45 PUSH2 0x45AD JUMP JUMPDEST PUSH2 0x1F4D PUSH2 0x473B JUMP JUMPDEST PUSH1 0x1 PUSH1 0x1 PUSH1 0xA0 SHL SUB DUP2 AND SWAP1 DUP2 ISZERO PUSH2 0x7C5 JUMPI PUSH1 0x8 DUP1 SLOAD PUSH32 0xFFFF0000000000000000000000000000000000000000FFFFFFFFFFFFFFFFFFFF AND PUSH1 0x50 SWAP3 SWAP1 SWAP3 SHL PUSH1 0x1 PUSH1 0x50 SHL PUSH1 0x1 PUSH1 0xF0 SHL SUB AND SWAP2 SWAP1 SWAP2 OR SWAP1 SSTORE PUSH1 0x40 MLOAD SWAP1 DUP2 MSTORE PUSH32 0x1D6240E71A77C9E9D07D1D6ECBB9EA4274FCC8BC19ADC5B05A3548AC7E40E189 SWAP1 PUSH1 0x20 SWAP1 LOG1 STOP JUMPDEST CALLVALUE PUSH2 0x448 JUMPI PUSH1 0x0 CALLDATASIZE PUSH1 0x3 NOT ADD SLT PUSH2 0x448 JUMPI PUSH1 0x20 PUSH1 0x12 SLOAD PUSH1 0x40 MLOAD SWAP1 DUP2 MSTORE RETURN JUMPDEST CALLVALUE PUSH2 0x448 JUMPI PUSH1 0x20 CALLDATASIZE PUSH1 0x3 NOT ADD SLT PUSH2 0x448 JUMPI PUSH1 0x1 PUSH1 0x1 PUSH1 0xA0 SHL SUB PUSH2 0x2009 PUSH2 0x45AD JUMP JUMPDEST AND PUSH1 0x0 MSTORE PUSH1 0xE PUSH1 0x20 MSTORE PUSH1 0x20 PUSH1 0x40 PUSH1 0x0 KECCAK256 SLOAD PUSH1 0x40 MLOAD SWAP1 DUP2 MSTORE RETURN JUMPDEST CALLVALUE PUSH2 0x448 JUMPI PUSH1 0x0 CALLDATASIZE PUSH1 0x3 NOT ADD SLT PUSH2 0x448 JUMPI PUSH1 0x20 PUSH1 0x40 MLOAD PUSH32 0x78C90EB9E475048B483A290AEE04B5FE48355537C3623C7637B17D3BED71C6ED DUP2 MSTORE RETURN JUMPDEST CALLVALUE PUSH2 0x448 JUMPI PUSH2 0x206B CALLDATASIZE PUSH2 0x46DD JUMP JUMPDEST SWAP2 PUSH2 0x2074 PUSH2 0x4A22 JUMP JUMPDEST PUSH1 0x1 PUSH1 0x1 PUSH1 0xA0 SHL SUB SWAP1 DUP2 AND PUSH1 0x0 DUP2 DUP2 MSTORE PUSH32 0x2EB8DCB37180405B14A1BDB0A7C9BF5C42ACB064F7E582ADA9A56E709D942E57 PUSH1 0x20 SWAP1 DUP2 MSTORE PUSH1 0x40 SWAP1 SWAP2 KECCAK256 SLOAD SWAP1 SWAP6 SWAP3 SWAP5 SWAP3 SWAP2 PUSH1 0xFF SWAP2 PUSH32 0xC806897CAF4FD5068191157E44D3988E43139A37E0B97B6793E1ED1184140604 SWAP1 DUP4 AND ISZERO PUSH2 0x21AF JUMPI POP POP PUSH1 0x0 JUMPDEST DUP3 DUP2 LT PUSH2 0x212D JUMPI PUSH1 0x40 MLOAD DUP8 DUP2 MSTORE DUP6 DUP8 AND SWAP1 PUSH32 0x8B655A966F162E1D3686EA25CD61682331984AB5662B451DEFF96F12D716F45B SWAP1 DUP1 PUSH2 0x2128 DUP2 DUP13 ADD DUP9 DUP11 PUSH2 0x4BF1 JUMP JUMPDEST SUB SWAP1 LOG2 STOP JUMPDEST DUP6 DUP6 AND PUSH1 0x0 MSTORE PUSH1 0x9 DUP8 MSTORE PUSH2 0x214A PUSH1 0x40 PUSH1 0x0 KECCAK256 PUSH2 0xAD4 DUP4 DUP7 DUP9 PUSH2 0x4A8A JUMP JUMPDEST POP SWAP1 PUSH1 0x1 DUP1 SWAP3 ADD SWAP2 DUP3 SLOAD PUSH1 0x38 SHR SWAP1 DUP2 AND ISZERO DUP1 ISZERO SWAP1 PUSH2 0x21A3 JUMPI JUMPDEST PUSH2 0x2191 JUMPI DUP3 SLOAD PUSH1 0xFF PUSH1 0x38 SHL NOT AND SWAP1 DUP5 AND PUSH1 0x2 OR PUSH1 0x38 SHL PUSH1 0xFF PUSH1 0x38 SHL AND OR SWAP1 SWAP2 SSTORE PUSH2 0x218C SWAP1 PUSH2 0x4A7B JUMP JUMPDEST PUSH2 0x20E7 JUMP JUMPDEST PUSH1 0x40 MLOAD PUSH4 0x181821BD PUSH1 0xE1 SHL DUP2 MSTORE PUSH1 0x4 SWAP1 REVERT JUMPDEST POP PUSH1 0x2 DUP2 AND ISZERO ISZERO PUSH2 0x2163 JUMP JUMPDEST PUSH1 0x44 SWAP3 POP PUSH1 0x40 MLOAD SWAP2 PUSH4 0xE2517D3F PUSH1 0xE0 SHL DUP4 MSTORE PUSH1 0x4 DUP4 ADD MSTORE PUSH1 0x24 DUP3 ADD MSTORE REVERT JUMPDEST CALLVALUE PUSH2 0x448 JUMPI PUSH1 0x0 CALLDATASIZE PUSH1 0x3 NOT ADD SLT PUSH2 0x448 JUMPI PUSH1 0x40 MLOAD PUSH32 0x0 PUSH1 0x1 PUSH1 0x1 PUSH1 0xA0 SHL SUB AND DUP2 MSTORE PUSH1 0x20 SWAP1 RETURN JUMPDEST CALLVALUE PUSH2 0x448 JUMPI PUSH1 0x0 CALLDATASIZE PUSH1 0x3 NOT ADD SLT PUSH2 0x448 JUMPI PUSH1 0x20 PUSH1 0x6 SLOAD PUSH1 0x40 MLOAD SWAP1 DUP2 MSTORE RETURN JUMPDEST CALLVALUE PUSH2 0x448 JUMPI PUSH1 0x0 CALLDATASIZE PUSH1 0x3 NOT ADD SLT PUSH2 0x448 JUMPI PUSH1 0x20 PUSH1 0x40 MLOAD PUSH2 0x7D0 DUP2 MSTORE RETURN JUMPDEST CALLVALUE PUSH2 0x448 JUMPI PUSH1 0x20 CALLDATASIZE PUSH1 0x3 NOT ADD SLT PUSH2 0x448 JUMPI PUSH1 0x4 CALLDATALOAD PUSH2 0x2269 PUSH2 0x4882 JUMP JUMPDEST PUSH2 0x2271 PUSH2 0x4B07 JUMP JUMPDEST PUSH1 0x8 SLOAD PUSH1 0x50 SHR PUSH1 0x1 PUSH1 0x1 PUSH1 0xA0 SHL SUB SWAP1 DUP2 AND SWAP1 DUP2 ISZERO PUSH2 0x7C5 JUMPI PUSH1 0x40 MLOAD PUSH4 0xA9059CBB PUSH1 0xE0 SHL DUP2 MSTORE PUSH1 0x1 PUSH1 0x1 PUSH1 0xA0 SHL SUB SWAP3 SWAP1 SWAP3 AND PUSH1 0x4 DUP4 ADD MSTORE PUSH1 0x24 DUP3 ADD DUP4 SWAP1 MSTORE PUSH1 0x20 DUP3 PUSH1 0x44 DUP2 PUSH1 0x0 PUSH32 0x0 DUP7 AND GAS CALL SWAP1 DUP2 ISZERO PUSH2 0x762 JUMPI PUSH32 0x9ADBDC797ACA3CE26A722598F00149B2328FD124444E6D0B10C4BDC7CFC38196 SWAP3 PUSH1 0x60 SWAP3 PUSH2 0x232F JUMPI JUMPDEST POP PUSH1 0x8 SLOAD PUSH1 0x50 SHR AND SWAP3 PUSH1 0x40 MLOAD SWAP1 PUSH1 0x1 DUP3 MSTORE PUSH1 0x20 DUP3 ADD MSTORE TIMESTAMP PUSH1 0x40 DUP3 ADD MSTORE LOG2 PUSH1 0x1 DUP1 SSTORE STOP JUMPDEST PUSH2 0x2346 SWAP1 PUSH1 0x20 RETURNDATASIZE DUP2 GT PUSH2 0x75B JUMPI PUSH2 0x74C DUP2 DUP4 PUSH2 0x44A6 JUMP JUMPDEST POP DUP5 PUSH2 0x230C JUMP JUMPDEST CALLVALUE PUSH2 0x448 JUMPI PUSH1 0x40 CALLDATASIZE PUSH1 0x3 NOT ADD SLT PUSH2 0x448 JUMPI PUSH2 0x2366 PUSH2 0x45AD JUMP JUMPDEST PUSH1 0x24 CALLDATALOAD PUSH2 0x2371 PUSH2 0x473B JUMP JUMPDEST DUP1 ISZERO PUSH2 0x7B3 JUMPI PUSH1 0x17 SLOAD DUP2 GT PUSH2 0x182F JUMPI PUSH2 0x23AE SWAP2 PUSH1 0x1 DUP1 PUSH1 0xA0 SHL SUB AND PUSH1 0x0 MSTORE PUSH1 0xD PUSH1 0x20 MSTORE PUSH1 0x40 PUSH1 0x0 KECCAK256 PUSH2 0x23A4 DUP3 DUP3 SLOAD PUSH2 0x4ABB JUMP JUMPDEST SWAP1 SSTORE PUSH1 0x17 SLOAD PUSH2 0x4B42 JUMP JUMPDEST PUSH1 0x17 SSTORE STOP JUMPDEST CALLVALUE PUSH2 0x448 JUMPI PUSH1 0x0 CALLDATASIZE PUSH1 0x3 NOT ADD SLT PUSH2 0x448 JUMPI PUSH1 0x20 PUSH1 0x40 MLOAD PUSH32 0xA49807205CE4D355092EF5A8A18F56E8913CF4A201FBE287825B095693C21775 DUP2 MSTORE RETURN JUMPDEST CALLVALUE PUSH2 0x448 JUMPI PUSH1 0x20 CALLDATASIZE PUSH1 0x3 NOT ADD SLT PUSH2 0x448 JUMPI PUSH1 0x4 CALLDATALOAD PUSH1 0x1 PUSH1 0x1 PUSH1 0x40 SHL SUB DUP2 GT PUSH2 0x448 JUMPI PUSH2 0x241E SWAP1 CALLDATASIZE SWAP1 PUSH1 0x4 ADD PUSH2 0x4663 JUMP JUMPDEST SWAP1 PUSH2 0x2427 PUSH2 0x4B07 JUMP JUMPDEST PUSH1 0xFF PUSH1 0x8 SLOAD PUSH1 0x8 SHR AND PUSH2 0x29DB JUMPI PUSH2 0x243C PUSH2 0x4A22 JUMP JUMPDEST PUSH1 0x0 SWAP3 DUP4 SWAP3 SWAP2 DUP4 DUP1 DUP1 DUP1 DUP1 JUMPDEST DUP7 DUP2 LT PUSH2 0x269F JUMPI POP DUP1 PUSH2 0x268A JUMPI JUMPDEST POP DUP1 PUSH2 0x2675 JUMPI JUMPDEST POP PUSH1 0x1 PUSH1 0x1 PUSH1 0xA0 SHL SUB DUP4 AND PUSH1 0x0 SWAP1 DUP2 MSTORE PUSH1 0xB PUSH1 0x20 MSTORE PUSH1 0x40 SWAP1 KECCAK256 SLOAD PUSH1 0xFF AND ISZERO DUP1 PUSH2 0x266C JUMPI JUMPDEST PUSH2 0x263B JUMPI JUMPDEST PUSH2 0x2490 DUP2 DUP4 PUSH2 0x4ABB JUMP JUMPDEST PUSH2 0x25B2 JUMPI JUMPDEST POP POP PUSH2 0x24A1 DUP5 DUP7 PUSH2 0x4ABB JUMP JUMPDEST PUSH2 0x24AC JUMPI JUMPDEST PUSH1 0x1 DUP1 SSTORE STOP JUMPDEST DUP4 PUSH1 0x20 PUSH2 0x24BC PUSH2 0x24EC SWAP7 DUP9 PUSH2 0x4ABB JUMP JUMPDEST PUSH1 0x40 MLOAD PUSH4 0xA9059CBB PUSH1 0xE0 SHL DUP2 MSTORE PUSH1 0x1 PUSH1 0x1 PUSH1 0xA0 SHL SUB DUP6 AND PUSH1 0x4 DUP3 ADD MSTORE PUSH1 0x24 DUP2 ADD SWAP2 SWAP1 SWAP2 MSTORE SWAP6 DUP7 SWAP1 DUP2 SWAP1 PUSH1 0x44 DUP3 ADD SWAP1 JUMP JUMPDEST SUB DUP2 PUSH1 0x0 PUSH32 0x0 PUSH1 0x1 PUSH1 0x1 PUSH1 0xA0 SHL SUB AND GAS CALL SWAP5 DUP6 ISZERO PUSH2 0x762 JUMPI PUSH32 0xBF06E98FE211A4B82F625232AB1C7A75CAEA5E0D624BC267578D6F22FCE788C3 SWAP6 PUSH2 0x2593 JUMPI JUMPDEST POP PUSH2 0x2569 PUSH1 0x40 MLOAD SWAP5 DUP6 SWAP5 PUSH1 0x1 DUP7 MSTORE PUSH1 0xA0 PUSH1 0x20 DUP8 ADD MSTORE PUSH1 0xA0 DUP7 ADD SWAP2 PUSH2 0x4BF1 JUMP JUMPDEST PUSH1 0x40 DUP5 ADD SWAP7 SWAP1 SWAP7 MSTORE PUSH1 0x60 DUP4 ADD MSTORE TIMESTAMP PUSH1 0x80 DUP4 ADD MSTORE PUSH1 0x1 PUSH1 0x1 PUSH1 0xA0 SHL SUB AND SWAP4 SUB SWAP1 LOG2 DUP1 DUP1 DUP1 DUP1 DUP1 PUSH2 0x24A6 JUMP JUMPDEST PUSH2 0x25AB SWAP1 PUSH1 0x20 RETURNDATASIZE PUSH1 0x20 GT PUSH2 0x75B JUMPI PUSH2 0x74C DUP2 DUP4 PUSH2 0x44A6 JUMP JUMPDEST POP DUP7 PUSH2 0x254A JUMP JUMPDEST PUSH1 0x0 DUP1 DUP1 DUP1 PUSH2 0x25C1 DUP6 DUP8 PUSH2 0x4ABB JUMP JUMPDEST DUP8 GAS CALL PUSH2 0x25CC PUSH2 0x4AC8 JUMP JUMPDEST POP ISZERO PUSH2 0xCAA JUMPI PUSH32 0xBF06E98FE211A4B82F625232AB1C7A75CAEA5E0D624BC267578D6F22FCE788C3 SWAP1 PUSH1 0x40 MLOAD SWAP1 PUSH1 0x0 DUP3 MSTORE PUSH1 0xA0 PUSH1 0x20 DUP4 ADD MSTORE PUSH2 0x2611 PUSH1 0xA0 DUP4 ADD DUP8 DUP10 PUSH2 0x4BF1 JUMP JUMPDEST PUSH1 0x40 DUP4 ADD SWAP5 SWAP1 SWAP5 MSTORE PUSH1 0x60 DUP3 ADD MSTORE TIMESTAMP PUSH1 0x80 DUP3 ADD MSTORE PUSH1 0x1 PUSH1 0x1 PUSH1 0xA0 SHL SUB DUP5 AND SWAP3 DUP2 SWAP1 SUB SWAP1 LOG2 DUP6 DUP1 PUSH2 0x2495 JUMP JUMPDEST PUSH2 0x2644 DUP4 PUSH2 0x4B62 JUMP JUMPDEST PUSH1 0x1 PUSH1 0x1 PUSH1 0xA0 SHL SUB DUP4 AND PUSH1 0x0 SWAP1 DUP2 MSTORE PUSH1 0xB PUSH1 0x20 MSTORE PUSH1 0x40 SWAP1 KECCAK256 DUP1 SLOAD PUSH1 0xFF NOT AND PUSH1 0x1 OR SWAP1 SSTORE PUSH2 0x2486 JUMP JUMPDEST POP DUP4 ISZERO ISZERO PUSH2 0x2481 JUMP JUMPDEST PUSH2 0x2681 SWAP1 PUSH1 0x15 SLOAD PUSH2 0x4ABB JUMP JUMPDEST PUSH1 0x15 SSTORE DUP8 PUSH2 0x245D JUMP JUMPDEST PUSH2 0x2696 SWAP1 PUSH1 0x14 SLOAD PUSH2 0x4ABB JUMP JUMPDEST PUSH1 0x14 SSTORE DUP9 PUSH2 0x2456 JUMP JUMPDEST PUSH2 0x26AE DUP2 DUP9 DUP11 SWAP8 SWAP5 SWAP7 SWAP8 PUSH2 0x4A8A JUMP JUMPDEST CALLDATALOAD PUSH1 0x1 DUP1 PUSH1 0xA0 SHL SUB DUP8 AND PUSH1 0x0 MSTORE PUSH1 0x9 PUSH1 0x20 MSTORE PUSH2 0x26CE DUP2 PUSH1 0x40 PUSH1 0x0 KECCAK256 PUSH2 0x45F7 JUMP JUMPDEST POP SWAP5 PUSH1 0x1 DUP7 ADD SLOAD PUSH1 0x1 DUP2 PUSH1 0x38 SHR AND PUSH2 0x29C9 JUMPI PUSH2 0x26F9 DUP8 SLOAD PUSH6 0xFFFFFFFFFFFF PUSH1 0x2 SLOAD SWAP2 PUSH1 0xC0 SHR AND PUSH2 0x4ABB JUMP JUMPDEST TIMESTAMP LT DUP1 PUSH2 0x29BB JUMPI JUMPDEST DUP1 PUSH2 0x2996 JUMPI JUMPDEST PUSH2 0x297D JUMPI JUMPDEST PUSH1 0x1 PUSH1 0xFF PUSH2 0x2737 SWAP3 PUSH1 0x38 SHR AND OR PUSH1 0x1 DUP9 ADD SWAP1 PUSH1 0xFF PUSH1 0x38 SHL DUP3 SLOAD SWAP2 PUSH1 0x38 SHL AND SWAP1 PUSH1 0xFF PUSH1 0x38 SHL NOT AND OR SWAP1 SSTORE JUMP JUMPDEST PUSH6 0xFFFFFFFFFFFF TIMESTAMP AND PUSH6 0xFFFFFFFFFFFF NOT PUSH1 0x1 DUP9 ADD SLOAD AND OR SWAP2 DUP3 PUSH1 0x1 DUP9 ADD SSTORE DUP7 SLOAD SWAP2 PUSH1 0x1 PUSH1 0x1 PUSH1 0x60 SHL SUB DUP4 AND SWAP4 DUP5 SWAP1 DUP12 PUSH1 0x0 SWAP3 PUSH2 0x2781 PUSH1 0x2 SLOAD PUSH6 0xFFFFFFFFFFFF DUP10 PUSH1 0xC0 SHR AND PUSH2 0x4ABB JUMP JUMPDEST TIMESTAMP LT DUP1 PUSH2 0x296F JUMPI JUMPDEST DUP1 PUSH2 0x294A JUMPI JUMPDEST PUSH2 0x28BD JUMPI JUMPDEST POP POP PUSH1 0x2 PUSH1 0xFF DUP3 PUSH1 0x30 SHR AND LT ISZERO PUSH2 0x6F3 JUMPI PUSH1 0x30 SHR PUSH1 0xFF AND PUSH2 0x2850 JUMPI PUSH2 0x282E PUSH1 0x0 DUP1 MLOAD PUSH1 0x20 PUSH2 0x4DA2 DUP4 CODECOPY DUP2 MLOAD SWAP2 MSTORE SWAP4 PUSH1 0xFF PUSH1 0x1 PUSH2 0x2801 DUP16 SWAP6 DUP11 PUSH2 0x27E7 DUP2 PUSH2 0x2836 SWAP15 SWAP14 SWAP13 SWAP11 DUP5 PUSH2 0x27ED SWAP6 PUSH2 0x283B JUMPI JUMPDEST POP PUSH2 0x4ABB JUMP JUMPDEST SWAP14 PUSH2 0x4ABB JUMP JUMPDEST SWAP15 PUSH1 0x1 PUSH1 0x1 PUSH1 0x60 SHL SUB DUP9 PUSH1 0x60 SHR AND SWAP1 PUSH2 0x4ABB JUMP JUMPDEST SWAP13 JUMPDEST ADD SLOAD PUSH1 0x30 SHR AND SWAP4 PUSH1 0x40 MLOAD SWAP5 DUP6 SWAP5 PUSH1 0x1 DUP1 PUSH1 0xA0 SHL SUB AND SWAP8 PUSH1 0x1 PUSH1 0x1 PUSH1 0x60 SHL SUB TIMESTAMP SWAP4 PUSH1 0x60 SHR AND SWAP2 DUP7 PUSH2 0x4BC6 JUMP JUMPDEST SUB SWAP1 LOG2 PUSH2 0x4A7B JUMP JUMPDEST PUSH2 0x2448 JUMP JUMPDEST PUSH2 0x2848 PUSH1 0x16 SWAP2 DUP3 SLOAD PUSH2 0x4ABB JUMP JUMPDEST SWAP1 SSTORE CODESIZE PUSH2 0x27E1 JUMP JUMPDEST SWAP14 PUSH2 0x286E DUP12 SWAP15 SWAP16 SWAP6 DUP1 SWAP10 DUP8 DUP3 SWAP8 SWAP6 SWAP11 SWAP14 SWAP13 SWAP7 SWAP10 SWAP9 PUSH2 0x28B0 JUMPI POP PUSH2 0x4ABB JUMP JUMPDEST SWAP8 PUSH2 0x2878 SWAP2 PUSH2 0x4ABB JUMP JUMPDEST SWAP14 DUP2 PUSH1 0x60 SHR PUSH1 0x1 PUSH1 0x1 PUSH1 0x60 SHL SUB AND PUSH2 0x288F SWAP2 PUSH2 0x4ABB JUMP JUMPDEST SWAP13 PUSH2 0x282E PUSH2 0x2836 SWAP7 PUSH1 0xFF PUSH1 0x1 PUSH1 0x0 DUP1 MLOAD PUSH1 0x20 PUSH2 0x4DA2 DUP4 CODECOPY DUP2 MLOAD SWAP2 MSTORE SWAP7 PUSH2 0x2803 JUMP JUMPDEST PUSH2 0x2848 PUSH1 0x17 SWAP2 DUP3 SLOAD PUSH2 0x4ABB JUMP JUMPDEST PUSH1 0x7 SLOAD DUP1 PUSH2 0x28CC JUMPI JUMPDEST POP PUSH2 0x2794 JUMP JUMPDEST DUP9 SWAP5 POP PUSH2 0x290D PUSH2 0x2710 PUSH2 0x2905 PUSH2 0x293F SWAP4 PUSH32 0x4515DD4239FBBCDE39AC2BD5B1D60B7CCAE104945F1429D0FA69EEA334478858 SWAP6 SWAP7 SWAP13 PUSH2 0x4B4F JUMP JUMPDEST DIV DUP1 SWAP7 PUSH2 0x4B42 JUMP JUMPDEST PUSH1 0x40 DUP1 MLOAD PUSH1 0x1 PUSH1 0x1 PUSH1 0x60 SHL SUB SWAP1 SWAP6 AND DUP6 MSTORE PUSH1 0x20 DUP6 ADD DUP8 SWAP1 MSTORE TIMESTAMP SWAP1 DUP6 ADD MSTORE SWAP9 PUSH1 0x1 PUSH1 0x1 PUSH1 0xA0 SHL SUB AND SWAP3 SWAP1 DUP2 SWAP1 PUSH1 0x60 DUP3 ADD SWAP1 JUMP JUMPDEST SUB SWAP1 LOG2 DUP12 CODESIZE DUP1 PUSH2 0x28C6 JUMP JUMPDEST POP PUSH1 0xFF PUSH1 0x8 SLOAD PUSH1 0x18 SHR AND DUP1 PUSH2 0x2960 JUMPI JUMPDEST ISZERO PUSH2 0x278F JUMP JUMPDEST POP PUSH1 0x4 DUP4 PUSH1 0x38 SHR AND ISZERO ISZERO PUSH2 0x295A JUMP JUMPDEST POP PUSH1 0x2 DUP4 PUSH1 0x38 SHR AND ISZERO PUSH2 0x2789 JUMP JUMPDEST PUSH1 0x7 SLOAD PUSH2 0x270C JUMPI PUSH1 0x40 MLOAD PUSH4 0xF38B9B5B PUSH1 0xE0 SHL DUP2 MSTORE PUSH1 0x4 SWAP1 REVERT JUMPDEST POP PUSH1 0xFF PUSH1 0x8 SLOAD PUSH1 0x18 SHR AND DUP1 PUSH2 0x29AC JUMPI JUMPDEST ISZERO PUSH2 0x2707 JUMP JUMPDEST POP PUSH1 0x4 DUP2 PUSH1 0x38 SHR AND ISZERO ISZERO PUSH2 0x29A6 JUMP JUMPDEST POP PUSH1 0x2 DUP2 PUSH1 0x38 SHR AND ISZERO PUSH2 0x2701 JUMP JUMPDEST PUSH1 0x40 MLOAD PUSH4 0x6507689F PUSH1 0xE0 SHL DUP2 MSTORE PUSH1 0x4 SWAP1 REVERT JUMPDEST PUSH1 0x40 MLOAD PUSH4 0x6022A9E7 PUSH1 0xE0 SHL DUP2 MSTORE PUSH1 0x4 SWAP1 REVERT JUMPDEST CALLVALUE PUSH2 0x448 JUMPI PUSH1 0x40 CALLDATASIZE PUSH1 0x3 NOT ADD SLT PUSH2 0x448 JUMPI PUSH2 0x2A06 PUSH2 0x45AD JUMP JUMPDEST PUSH1 0x24 CALLDATALOAD PUSH2 0x2A11 PUSH2 0x473B JUMP JUMPDEST DUP1 ISZERO PUSH2 0x7B3 JUMPI PUSH1 0x16 SLOAD DUP2 GT PUSH2 0x182F JUMPI PUSH2 0x182A SWAP2 PUSH1 0x1 DUP1 PUSH1 0xA0 SHL SUB AND PUSH1 0x0 MSTORE PUSH1 0xC PUSH1 0x20 MSTORE PUSH1 0x40 PUSH1 0x0 KECCAK256 PUSH2 0x2A44 DUP3 DUP3 SLOAD PUSH2 0x4ABB JUMP JUMPDEST SWAP1 SSTORE PUSH1 0x16 SLOAD PUSH2 0x4B42 JUMP JUMPDEST CALLVALUE PUSH2 0x448 JUMPI PUSH1 0x0 CALLDATASIZE PUSH1 0x3 NOT ADD SLT PUSH2 0x448 JUMPI PUSH2 0x2A67 PUSH2 0x4B07 JUMP JUMPDEST PUSH2 0x2A6F PUSH2 0x4A22 JUMP JUMPDEST PUSH1 0x1 PUSH1 0x1 PUSH1 0xA0 SHL SUB DUP2 DUP2 AND PUSH1 0x0 DUP2 DUP2 MSTORE PUSH1 0xD PUSH1 0x20 SWAP1 DUP2 MSTORE PUSH1 0x40 SWAP1 SWAP2 KECCAK256 SLOAD SWAP2 SWAP4 SWAP3 DUP3 ISZERO PUSH2 0xCBC JUMPI PUSH1 0x0 DUP6 DUP2 MSTORE PUSH1 0xD DUP4 MSTORE PUSH1 0x40 DUP1 DUP3 KECCAK256 DUP3 SWAP1 SSTORE MLOAD PUSH4 0xA9059CBB PUSH1 0xE0 SHL DUP2 MSTORE PUSH1 0x1 PUSH1 0x1 PUSH1 0xA0 SHL SUB SWAP6 SWAP1 SWAP6 AND PUSH1 0x4 DUP7 ADD MSTORE PUSH1 0x24 DUP6 ADD DUP5 SWAP1 MSTORE DUP3 SWAP2 DUP6 SWAP2 PUSH1 0x44 SWAP2 DUP4 SWAP2 SWAP1 PUSH32 0x0 AND GAS CALL SWAP2 DUP3 ISZERO PUSH2 0x762 JUMPI PUSH32 0x6914793C7A82461ACEC66C7DE7FDBBBF1F825C26BC2FE939B61F0E4F8964C2B5 SWAP4 PUSH1 0x60 SWAP4 PUSH2 0x2B41 JUMPI JUMPDEST POP PUSH1 0x40 MLOAD SWAP2 PUSH1 0x1 DUP4 MSTORE DUP3 ADD MSTORE TIMESTAMP PUSH1 0x40 DUP3 ADD MSTORE LOG2 PUSH1 0x1 DUP1 SSTORE STOP JUMPDEST PUSH2 0x2B57 SWAP1 DUP4 RETURNDATASIZE DUP6 GT PUSH2 0x75B JUMPI PUSH2 0x74C DUP2 DUP4 PUSH2 0x44A6 JUMP JUMPDEST POP DUP6 PUSH2 0x2B28 JUMP JUMPDEST CALLVALUE PUSH2 0x448 JUMPI PUSH1 0x20 CALLDATASIZE PUSH1 0x3 NOT ADD SLT PUSH2 0x448 JUMPI PUSH1 0x1 PUSH1 0x1 PUSH1 0xA0 SHL SUB PUSH2 0x2B7F PUSH2 0x45AD JUMP JUMPDEST AND PUSH1 0x0 MSTORE PUSH1 0x10 PUSH1 0x20 MSTORE PUSH1 0x20 PUSH1 0xFF PUSH1 0x40 PUSH1 0x0 KECCAK256 SLOAD AND PUSH1 0x40 MLOAD SWAP1 ISZERO ISZERO DUP2 MSTORE RETURN JUMPDEST CALLVALUE PUSH2 0x448 JUMPI PUSH1 0x40 CALLDATASIZE PUSH1 0x3 NOT ADD SLT PUSH2 0x448 JUMPI PUSH2 0x2BB6 PUSH2 0x45D9 JUMP JUMPDEST PUSH2 0x2BBE PUSH2 0x45E8 JUMP JUMPDEST SWAP1 PUSH2 0x2BC7 PUSH2 0x4A22 JUMP JUMPDEST PUSH1 0x1 PUSH1 0x1 PUSH1 0xA0 SHL SUB AND PUSH1 0x0 DUP2 DUP2 MSTORE PUSH32 0xF7C9542C591017A21C74B6F3FAB6263C7952FC0AAF9DB4C22A2A04DDC7F8674F PUSH1 0x20 MSTORE PUSH1 0x40 SWAP1 KECCAK256 SLOAD PUSH32 0x65D7A28E3265B37A6474929F336521B332C1681B933F6CB9F3376673440D862A SWAP1 PUSH1 0xFF AND ISZERO PUSH2 0x21AF JUMPI PUSH32 0xAC1664632D6278432AA05A6AFC0AA83E5EA08E8DF9A1436736DAA5D6283211C0 PUSH1 0x40 DUP6 DUP6 ISZERO ISZERO SWAP1 PUSH1 0x8 SLOAD SWAP1 ISZERO ISZERO SWAP1 PUSH2 0xFF00 DUP3 PUSH1 0x8 SHL AND SWAP1 PUSH1 0xFF DUP5 AND SWAP1 PUSH2 0xFFFF NOT AND OR OR PUSH1 0x8 SSTORE DUP3 MLOAD SWAP2 DUP3 MSTORE PUSH1 0x20 DUP3 ADD MSTORE LOG1 STOP JUMPDEST PUSH1 0x0 CALLDATASIZE PUSH1 0x3 NOT ADD SLT PUSH2 0x448 JUMPI PUSH2 0x2C90 PUSH2 0x4815 JUMP JUMPDEST CALLVALUE ISZERO PUSH2 0x7B3 JUMPI PUSH2 0x2CA2 CALLVALUE PUSH1 0x16 SLOAD PUSH2 0x4ABB JUMP JUMPDEST PUSH1 0x16 SSTORE PUSH2 0x2CAD PUSH2 0x4A22 JUMP JUMPDEST PUSH32 0x8BAFEC96FCFFB6F12596B4635C76397B7BC1F363B22C49C13136B63677323DCC PUSH1 0x60 PUSH1 0x40 MLOAD SWAP3 PUSH1 0x0 DUP5 MSTORE CALLVALUE PUSH1 0x20 DUP6 ADD MSTORE TIMESTAMP PUSH1 0x40 DUP6 ADD MSTORE PUSH1 0x1 DUP1 PUSH1 0xA0 SHL SUB AND SWAP3 LOG2 STOP JUMPDEST CALLVALUE PUSH2 0x448 JUMPI PUSH1 0x0 CALLDATASIZE PUSH1 0x3 NOT ADD SLT PUSH2 0x448 JUMPI PUSH1 0x20 PUSH1 0xFF PUSH1 0x8 SLOAD AND PUSH1 0x40 MLOAD SWAP1 ISZERO ISZERO DUP2 MSTORE RETURN JUMPDEST CALLVALUE PUSH2 0x448 JUMPI PUSH1 0x20 CALLDATASIZE PUSH1 0x3 NOT ADD SLT PUSH2 0x448 JUMPI PUSH1 0x1 PUSH1 0x1 PUSH1 0xA0 SHL SUB PUSH2 0x2D34 PUSH2 0x45AD JUMP JUMPDEST AND PUSH1 0x0 MSTORE PUSH1 0xB PUSH1 0x20 MSTORE PUSH1 0x20 PUSH1 0xFF PUSH1 0x40 PUSH1 0x0 KECCAK256 SLOAD AND PUSH1 0x40 MLOAD SWAP1 ISZERO ISZERO DUP2 MSTORE RETURN JUMPDEST CALLVALUE PUSH2 0x448 JUMPI PUSH1 0x20 CALLDATASIZE PUSH1 0x3 NOT ADD SLT PUSH2 0x448 JUMPI PUSH1 0x4 CALLDATALOAD PUSH2 0x2D6E PUSH2 0x47A8 JUMP JUMPDEST PUSH2 0x2D76 PUSH2 0x4B07 JUMP JUMPDEST DUP1 ISZERO PUSH2 0x7B3 JUMPI PUSH1 0x1B SLOAD DUP1 DUP3 GT PUSH2 0x2E68 JUMPI DUP2 PUSH2 0x2D90 SWAP2 PUSH2 0x4B42 JUMP JUMPDEST PUSH1 0x1B SSTORE DUP1 PUSH2 0x2D9C PUSH2 0x4A22 JUMP JUMPDEST PUSH1 0x40 MLOAD PUSH4 0x23B872DD PUSH1 0xE0 SHL DUP2 MSTORE PUSH1 0x1 PUSH1 0x1 PUSH1 0xA0 SHL SUB SWAP2 DUP3 AND PUSH1 0x4 DUP3 ADD MSTORE ADDRESS PUSH1 0x24 DUP3 ADD MSTORE PUSH1 0x44 DUP2 ADD SWAP3 SWAP1 SWAP3 MSTORE PUSH1 0x20 DUP3 PUSH1 0x64 DUP2 PUSH1 0x0 PUSH32 0x0 DUP7 AND GAS CALL SWAP1 DUP2 ISZERO PUSH2 0x762 JUMPI PUSH32 0x1B0029D3A4003762F16D0DC71199CE167B1D4BF00C5B97A3E28F613E921D6540 SWAP3 PUSH1 0x60 SWAP3 PUSH2 0x2E4A JUMPI JUMPDEST POP PUSH2 0x2E2E PUSH2 0x4A22 JUMP JUMPDEST PUSH1 0x40 MLOAD SWAP5 PUSH1 0x1 DUP7 MSTORE PUSH1 0x20 DUP7 ADD MSTORE TIMESTAMP PUSH1 0x40 DUP7 ADD MSTORE AND SWAP3 LOG2 PUSH1 0x1 DUP1 SSTORE STOP JUMPDEST PUSH2 0x2E61 SWAP1 PUSH1 0x20 RETURNDATASIZE DUP2 GT PUSH2 0x75B JUMPI PUSH2 0x74C DUP2 DUP4 PUSH2 0x44A6 JUMP JUMPDEST POP DUP5 PUSH2 0x2E25 JUMP JUMPDEST PUSH1 0x40 MLOAD PUSH4 0x4711311 PUSH1 0xE2 SHL DUP2 MSTORE PUSH1 0x4 SWAP1 REVERT JUMPDEST CALLVALUE PUSH2 0x448 JUMPI PUSH1 0x0 CALLDATASIZE PUSH1 0x3 NOT ADD SLT PUSH2 0x448 JUMPI PUSH1 0x20 PUSH1 0x8 SLOAD PUSH6 0xFFFFFFFFFFFF PUSH1 0x40 MLOAD SWAP2 DUP4 SHR AND DUP2 MSTORE RETURN JUMPDEST CALLVALUE PUSH2 0x448 JUMPI PUSH1 0x20 CALLDATASIZE PUSH1 0x3 NOT ADD SLT PUSH2 0x448 JUMPI PUSH1 0x20 PUSH2 0x2EBD PUSH2 0x45AD JUMP JUMPDEST PUSH1 0x40 MLOAD SWAP1 PUSH1 0x1 DUP1 PUSH1 0xA0 SHL SUB DUP1 PUSH32 0x0 AND SWAP2 AND EQ DUP2 MSTORE RETURN JUMPDEST CALLVALUE PUSH2 0x448 JUMPI PUSH1 0x40 CALLDATASIZE PUSH1 0x3 NOT ADD SLT PUSH2 0x448 JUMPI PUSH2 0x2F0B PUSH2 0x45AD JUMP JUMPDEST PUSH32 0x995D2434D36C9BCEAAB42C56EFE51E8FFE41FD11CABEFD9E2CB83700D8B2035E PUSH1 0x20 PUSH2 0x2F36 PUSH2 0x45E8 JUMP JUMPDEST SWAP3 PUSH2 0x2F3F PUSH2 0x473B JUMP JUMPDEST PUSH1 0x1 PUSH1 0x1 PUSH1 0xA0 SHL SUB AND PUSH1 0x0 DUP2 DUP2 MSTORE PUSH1 0xA DUP4 MSTORE PUSH1 0x40 SWAP1 KECCAK256 DUP1 SLOAD PUSH1 0xFF NOT AND PUSH1 0xFF DUP7 ISZERO ISZERO AND OR SWAP1 SSTORE SWAP3 PUSH1 0x40 MLOAD SWAP1 ISZERO ISZERO DUP2 MSTORE LOG2 STOP JUMPDEST CALLVALUE PUSH2 0x448 JUMPI PUSH1 0x0 CALLDATASIZE PUSH1 0x3 NOT ADD SLT PUSH2 0x448 JUMPI PUSH1 0x20 PUSH1 0xFF PUSH1 0x8 SLOAD PUSH1 0x10 SHR AND PUSH1 0x40 MLOAD SWAP1 ISZERO ISZERO DUP2 MSTORE RETURN JUMPDEST CALLVALUE PUSH2 0x448 JUMPI PUSH1 0x20 CALLDATASIZE PUSH1 0x3 NOT ADD SLT PUSH2 0x448 JUMPI PUSH2 0x2FAF PUSH2 0x45AD JUMP JUMPDEST PUSH1 0x1 PUSH1 0x1 PUSH1 0xA0 SHL SUB AND PUSH1 0x0 DUP2 DUP2 MSTORE PUSH1 0x9 PUSH1 0x20 MSTORE PUSH1 0x40 DUP2 KECCAK256 DUP1 SLOAD SWAP2 SWAP3 DUP4 SWAP3 DUP4 SWAP3 DUP4 SWAP3 DUP4 SWAP3 DUP4 SWAP3 DUP4 JUMPDEST DUP3 DUP2 LT PUSH2 0x302B JUMPI POP POP POP SWAP6 PUSH2 0x100 SWAP7 PUSH1 0x0 MSTORE PUSH1 0xC PUSH1 0x20 MSTORE PUSH1 0x40 PUSH1 0x0 KECCAK256 SLOAD SWAP2 PUSH1 0xD PUSH1 0x20 MSTORE PUSH1 0x40 PUSH1 0x0 KECCAK256 SLOAD SWAP4 PUSH1 0x40 MLOAD SWAP8 DUP9 MSTORE PUSH1 0x20 DUP9 ADD MSTORE PUSH1 0x40 DUP8 ADD MSTORE PUSH1 0x60 DUP7 ADD MSTORE PUSH1 0x80 DUP6 ADD MSTORE PUSH1 0xA0 DUP5 ADD MSTORE PUSH1 0xC0 DUP4 ADD MSTORE PUSH1 0xE0 DUP3 ADD MSTORE RETURN JUMPDEST PUSH2 0x303E PUSH2 0x3038 DUP3 DUP5 PUSH2 0x45F7 JUMP JUMPDEST POP PUSH2 0x4C15 JUMP JUMPDEST SWAP9 PUSH1 0xA0 DUP11 ADD SWAP10 PUSH1 0x8 DUP12 MLOAD AND ISZERO ISZERO PUSH1 0x80 DUP3 ADD MLOAD PUSH1 0x2 DUP2 LT ISZERO PUSH2 0x6F3 JUMPI PUSH2 0x30C1 JUMPI PUSH1 0x1 PUSH2 0x3075 PUSH1 0x1 PUSH1 0x1 PUSH1 0x60 SHL SUB SWAP5 DUP6 DUP6 MLOAD AND SWAP1 PUSH2 0x4ABB JUMP JUMPDEST SWAP13 MLOAD AND PUSH2 0x30AC JUMPI JUMPDEST PUSH2 0x3092 JUMPI JUMPDEST POP POP PUSH2 0x308D SWAP1 PUSH2 0x4A7B JUMP JUMPDEST PUSH2 0x2FD6 JUMP JUMPDEST SWAP8 PUSH2 0x30A4 SWAP2 PUSH2 0x308D SWAP4 SWAP10 MLOAD AND SWAP1 PUSH2 0x4ABB JUMP JUMPDEST SWAP7 SWAP1 DUP12 PUSH2 0x3082 JUMP JUMPDEST SWAP7 PUSH2 0x30BB SWAP1 DUP4 DUP4 MLOAD AND SWAP1 PUSH2 0x4ABB JUMP JUMPDEST SWAP7 PUSH2 0x307D JUMP JUMPDEST PUSH1 0x1 PUSH2 0x30DD PUSH1 0x1 PUSH1 0x1 PUSH1 0x60 SHL SUB SWAP14 SWAP11 SWAP5 SWAP14 SWAP5 DUP6 DUP6 MLOAD AND SWAP1 PUSH2 0x4ABB JUMP JUMPDEST SWAP10 MLOAD AND PUSH2 0x310E JUMPI JUMPDEST PUSH2 0x30F4 JUMPI POP POP PUSH2 0x308D SWAP1 PUSH2 0x4A7B JUMP JUMPDEST SWAP9 PUSH2 0x3106 SWAP2 PUSH2 0x308D SWAP4 SWAP11 MLOAD AND SWAP1 PUSH2 0x4ABB JUMP JUMPDEST SWAP8 SWAP1 DUP12 PUSH2 0x3082 JUMP JUMPDEST SWAP12 PUSH2 0x311D SWAP1 DUP4 DUP4 MLOAD AND SWAP1 PUSH2 0x4ABB JUMP JUMPDEST SWAP12 PUSH2 0x30E5 JUMP JUMPDEST CALLVALUE PUSH2 0x448 JUMPI PUSH2 0x3131 CALLDATASIZE PUSH2 0x4693 JUMP JUMPDEST PUSH2 0x3139 PUSH2 0x473B JUMP JUMPDEST DUP1 DUP4 SUB PUSH2 0x18AB JUMPI PUSH1 0x0 JUMPDEST DUP4 DUP2 LT PUSH2 0x314C JUMPI STOP JUMPDEST DUP1 PUSH2 0x3163 PUSH2 0x315E PUSH2 0x31EF SWAP4 DUP6 DUP8 PUSH2 0x4A8A JUMP JUMPDEST PUSH2 0x4A9A JUMP JUMPDEST PUSH1 0x1 PUSH1 0x1 PUSH1 0xA0 SHL SUB SWAP1 PUSH32 0x995D2434D36C9BCEAAB42C56EFE51E8FFE41FD11CABEFD9E2CB83700D8B2035E SWAP1 DUP3 PUSH2 0x319D PUSH2 0x1877 DUP7 DUP12 DUP14 PUSH2 0x4A8A JUMP JUMPDEST AND PUSH1 0x0 MSTORE PUSH2 0x31C1 PUSH1 0x20 SWAP2 PUSH1 0xA DUP4 MSTORE PUSH1 0x40 PUSH1 0x0 KECCAK256 SWAP1 PUSH1 0xFF DUP1 NOT DUP4 SLOAD AND SWAP2 ISZERO ISZERO AND OR SWAP1 SSTORE JUMP JUMPDEST PUSH2 0x31CF PUSH2 0x1877 DUP6 DUP11 DUP13 PUSH2 0x4A8A JUMP JUMPDEST SWAP3 PUSH2 0x31DE PUSH2 0x315E DUP7 DUP10 DUP12 PUSH2 0x4A8A JUMP JUMPDEST SWAP4 PUSH1 0x40 MLOAD SWAP5 ISZERO ISZERO DUP6 MSTORE AND SWAP3 LOG2 PUSH2 0x4A7B JUMP JUMPDEST PUSH2 0x3143 JUMP JUMPDEST CALLVALUE PUSH2 0x448 JUMPI PUSH1 0x40 CALLDATASIZE PUSH1 0x3 NOT ADD SLT PUSH2 0x448 JUMPI PUSH2 0x320D PUSH2 0x45C3 JUMP JUMPDEST PUSH1 0x4 CALLDATALOAD PUSH1 0x0 MSTORE PUSH1 0x1E PUSH1 0x20 MSTORE PUSH1 0x40 PUSH1 0x0 KECCAK256 SWAP1 PUSH1 0x1 DUP1 PUSH1 0xA0 SHL SUB AND PUSH1 0x0 MSTORE PUSH1 0x20 MSTORE PUSH1 0x20 PUSH1 0xFF PUSH1 0x40 PUSH1 0x0 KECCAK256 SLOAD AND PUSH1 0x40 MLOAD SWAP1 ISZERO ISZERO DUP2 MSTORE RETURN JUMPDEST CALLVALUE PUSH2 0x448 JUMPI PUSH2 0x324F CALLDATASIZE PUSH2 0x4693 JUMP JUMPDEST SWAP3 SWAP2 PUSH2 0x3259 PUSH2 0x473B JUMP JUMPDEST DUP4 DUP2 SUB PUSH2 0x18AB JUMPI SWAP3 SWAP2 SWAP1 PUSH1 0x0 SWAP4 PUSH1 0x0 SWAP4 JUMPDEST DUP2 DUP6 LT PUSH2 0x3285 JUMPI PUSH1 0x17 SLOAD DUP7 DUP2 DUP2 GT PUSH2 0x182F JUMPI PUSH2 0x23AE SWAP2 PUSH2 0x4B42 JUMP JUMPDEST SWAP1 SWAP2 SWAP3 SWAP4 SWAP5 PUSH2 0x3295 DUP7 DUP4 DUP7 PUSH2 0x4A8A JUMP JUMPDEST CALLDATALOAD SWAP1 DUP2 ISZERO PUSH2 0x7B3 JUMPI PUSH2 0x32D4 SWAP2 PUSH2 0x189C SWAP2 PUSH1 0x1 PUSH1 0x1 PUSH1 0xA0 SHL SUB PUSH2 0x32BB PUSH2 0x1877 DUP12 DUP10 DUP13 PUSH2 0x4A8A JUMP JUMPDEST AND PUSH1 0x0 MSTORE PUSH1 0xD PUSH1 0x20 MSTORE PUSH1 0x40 PUSH1 0x0 KECCAK256 PUSH2 0x1895 DUP4 DUP3 SLOAD PUSH2 0x4ABB JUMP JUMPDEST SWAP4 SWAP3 SWAP2 SWAP1 PUSH2 0x326A JUMP JUMPDEST CALLVALUE PUSH2 0x448 JUMPI PUSH1 0x0 CALLDATASIZE PUSH1 0x3 NOT ADD SLT PUSH2 0x448 JUMPI PUSH1 0x40 MLOAD PUSH32 0x0 PUSH1 0x1 PUSH1 0x1 PUSH1 0xA0 SHL SUB AND DUP2 MSTORE PUSH1 0x20 SWAP1 RETURN JUMPDEST CALLVALUE PUSH2 0x448 JUMPI PUSH1 0x20 CALLDATASIZE PUSH1 0x3 NOT ADD SLT PUSH2 0x448 JUMPI PUSH1 0x1 PUSH1 0x1 PUSH1 0xA0 SHL SUB PUSH2 0x3343 PUSH2 0x45AD JUMP JUMPDEST AND PUSH1 0x0 MSTORE PUSH1 0xA PUSH1 0x20 MSTORE PUSH1 0x20 PUSH1 0xFF PUSH1 0x40 PUSH1 0x0 KECCAK256 SLOAD AND PUSH1 0x40 MLOAD SWAP1 ISZERO ISZERO DUP2 MSTORE RETURN JUMPDEST CALLVALUE PUSH2 0x448 JUMPI PUSH1 0x0 CALLDATASIZE PUSH1 0x3 NOT ADD SLT PUSH2 0x448 JUMPI PUSH1 0x20 PUSH1 0x17 SLOAD PUSH1 0x40 MLOAD SWAP1 DUP2 MSTORE RETURN JUMPDEST CALLVALUE PUSH2 0x448 JUMPI PUSH1 0x40 CALLDATASIZE PUSH1 0x3 NOT ADD SLT PUSH2 0x448 JUMPI PUSH2 0x3398 PUSH2 0x45C3 JUMP JUMPDEST PUSH1 0x1 PUSH1 0x1 PUSH1 0xA0 SHL SUB DUP1 PUSH2 0x33A9 PUSH2 0x4A22 JUMP JUMPDEST AND SWAP1 DUP3 AND SUB PUSH2 0x33BE JUMPI PUSH2 0x19 SWAP1 PUSH1 0x4 CALLDATALOAD PUSH2 0x49B0 JUMP JUMPDEST PUSH1 0x40 MLOAD PUSH4 0x334BD919 PUSH1 0xE1 SHL DUP2 MSTORE PUSH1 0x4 SWAP1 REVERT JUMPDEST CALLVALUE PUSH2 0x448 JUMPI PUSH1 0x20 CALLDATASIZE PUSH1 0x3 NOT ADD SLT PUSH2 0x448 JUMPI PUSH1 0x1 PUSH1 0x1 PUSH1 0xA0 SHL SUB PUSH2 0x33F1 PUSH2 0x45AD JUMP JUMPDEST AND PUSH1 0x0 MSTORE PUSH1 0xC PUSH1 0x20 MSTORE PUSH1 0x20 PUSH1 0x40 PUSH1 0x0 KECCAK256 SLOAD PUSH1 0x40 MLOAD SWAP1 DUP2 MSTORE RETURN JUMPDEST CALLVALUE PUSH2 0x448 JUMPI PUSH1 0x40 CALLDATASIZE PUSH1 0x3 NOT ADD SLT PUSH2 0x448 JUMPI PUSH2 0x19 PUSH1 0x4 CALLDATALOAD PUSH2 0x3429 PUSH2 0x45C3 JUMP JUMPDEST SWAP1 DUP1 PUSH1 0x0 MSTORE PUSH1 0x0 PUSH1 0x20 MSTORE PUSH2 0x3444 PUSH1 0x1 PUSH1 0x40 PUSH1 0x0 KECCAK256 ADD SLOAD PUSH2 0x48EF JUMP JUMPDEST PUSH2 0x4929 JUMP JUMPDEST CALLVALUE PUSH2 0x448 JUMPI PUSH1 0x20 CALLDATASIZE PUSH1 0x3 NOT ADD SLT PUSH2 0x448 JUMPI PUSH2 0x3462 PUSH2 0x4B07 JUMP JUMPDEST PUSH1 0x8 SLOAD PUSH1 0xFF DUP2 PUSH1 0x8 SHR AND PUSH2 0x29DB JUMPI PUSH2 0x3478 PUSH2 0x4A22 JUMP JUMPDEST SWAP1 PUSH1 0x1 DUP1 PUSH1 0xA0 SHL SUB DUP3 AND PUSH1 0x0 MSTORE PUSH1 0x9 PUSH1 0x20 MSTORE PUSH2 0x349A PUSH1 0x4 CALLDATALOAD PUSH1 0x40 PUSH1 0x0 KECCAK256 PUSH2 0x45F7 JUMP JUMPDEST POP SWAP1 PUSH1 0x1 DUP3 ADD SLOAD PUSH1 0x38 SHR SWAP1 PUSH1 0x1 DUP3 AND PUSH2 0x29C9 JUMPI PUSH2 0x34C6 DUP4 SLOAD PUSH6 0xFFFFFFFFFFFF PUSH1 0x2 SLOAD SWAP2 PUSH1 0xC0 SHR AND PUSH2 0x4ABB JUMP JUMPDEST TIMESTAMP LT SWAP1 DUP2 PUSH2 0x3856 JUMPI JUMPDEST DUP2 PUSH2 0x3835 JUMPI JUMPDEST POP PUSH2 0x381C JUMPI JUMPDEST PUSH1 0x1 PUSH1 0xFF PUSH2 0x3503 SWAP3 AND OR PUSH1 0x1 DUP4 ADD SWAP1 PUSH1 0xFF PUSH1 0x38 SHL DUP3 SLOAD SWAP2 PUSH1 0x38 SHL AND SWAP1 PUSH1 0xFF PUSH1 0x38 SHL NOT AND OR SWAP1 SSTORE JUMP JUMPDEST PUSH6 0xFFFFFFFFFFFF TIMESTAMP AND PUSH6 0xFFFFFFFFFFFF NOT PUSH1 0x1 DUP4 ADD SLOAD AND OR SWAP2 DUP3 PUSH1 0x1 DUP4 ADD SSTORE DUP2 SLOAD SWAP1 PUSH1 0x1 PUSH1 0x1 PUSH1 0x60 SHL SUB DUP3 AND SWAP4 DUP5 PUSH1 0x0 SWAP2 PUSH2 0x354B PUSH1 0x2 SLOAD PUSH6 0xFFFFFFFFFFFF DUP8 PUSH1 0xC0 SHR AND PUSH2 0x4ABB JUMP JUMPDEST TIMESTAMP LT DUP1 PUSH2 0x380E JUMPI JUMPDEST DUP1 PUSH2 0x37E9 JUMPI JUMPDEST PUSH2 0x3765 JUMPI JUMPDEST PUSH1 0x2 PUSH1 0xFF DUP3 PUSH1 0x30 SHR AND LT ISZERO PUSH2 0x6F3 JUMPI PUSH1 0x30 SHR PUSH1 0xFF AND PUSH2 0x3673 JUMPI POP PUSH2 0x358E PUSH1 0x1 PUSH1 0x1 PUSH1 0x60 SHL SUB DUP6 SLOAD AND PUSH1 0x14 SLOAD PUSH2 0x4ABB JUMP JUMPDEST PUSH1 0x14 SSTORE DUP1 PUSH2 0x365E JUMPI JUMPDEST POP PUSH1 0x0 DUP1 DUP1 DUP1 PUSH2 0x35B3 PUSH1 0x1 PUSH1 0x1 PUSH1 0x60 SHL SUB DUP8 PUSH1 0x60 SHR AND DUP10 PUSH2 0x4ABB JUMP JUMPDEST DUP6 GAS CALL PUSH2 0x35BE PUSH2 0x4AC8 JUMP JUMPDEST POP ISZERO PUSH2 0xCAA JUMPI PUSH2 0x3629 PUSH1 0xFF PUSH1 0x1 PUSH1 0x0 DUP1 MLOAD PUSH1 0x20 PUSH2 0x4DA2 DUP4 CODECOPY DUP2 MLOAD SWAP2 MSTORE SWAP6 JUMPDEST DUP2 DUP1 PUSH1 0xA0 SHL SUB DUP6 AND PUSH1 0x0 MSTORE PUSH1 0xB PUSH1 0x20 MSTORE DUP3 PUSH1 0x40 PUSH1 0x0 KECCAK256 SLOAD AND ISZERO PUSH2 0x3632 JUMPI JUMPDEST ADD SLOAD PUSH1 0x30 SHR AND SWAP5 PUSH1 0x40 MLOAD SWAP4 DUP5 SWAP4 PUSH1 0x1 DUP1 PUSH1 0xA0 SHL SUB AND SWAP7 PUSH1 0x4 CALLDATALOAD SWAP3 PUSH1 0x1 PUSH1 0x1 PUSH1 0x60 SHL SUB TIMESTAMP SWAP4 PUSH1 0x60 SHR AND SWAP2 DUP7 PUSH2 0x4BC6 JUMP JUMPDEST SUB SWAP1 LOG2 PUSH1 0x1 DUP1 SSTORE STOP JUMPDEST PUSH2 0x363B DUP6 PUSH2 0x4B62 JUMP JUMPDEST DUP2 DUP1 PUSH1 0xA0 SHL SUB DUP6 AND PUSH1 0x0 MSTORE PUSH1 0xB PUSH1 0x20 MSTORE PUSH1 0x40 PUSH1 0x0 KECCAK256 DUP3 DUP5 NOT DUP3 SLOAD AND OR SWAP1 SSTORE PUSH2 0x35FA JUMP JUMPDEST PUSH2 0x366A SWAP1 PUSH1 0x16 SLOAD PUSH2 0x4ABB JUMP JUMPDEST PUSH1 0x16 SSTORE DUP5 PUSH2 0x3597 JUMP JUMPDEST SWAP1 PUSH2 0x3684 PUSH2 0x36D6 SWAP6 SWAP3 PUSH1 0x15 SLOAD PUSH2 0x4ABB JUMP JUMPDEST PUSH1 0x15 SSTORE DUP1 PUSH2 0x3750 JUMPI JUMPDEST POP PUSH1 0x20 PUSH2 0x36A6 PUSH1 0x1 PUSH1 0x1 PUSH1 0x60 SHL SUB DUP6 PUSH1 0x60 SHR AND DUP8 PUSH2 0x4ABB JUMP JUMPDEST PUSH1 0x40 MLOAD PUSH4 0xA9059CBB PUSH1 0xE0 SHL DUP2 MSTORE PUSH1 0x1 PUSH1 0x1 PUSH1 0xA0 SHL SUB DUP6 AND PUSH1 0x4 DUP3 ADD MSTORE PUSH1 0x24 DUP2 ADD SWAP2 SWAP1 SWAP2 MSTORE SWAP5 DUP6 SWAP1 DUP2 SWAP1 PUSH1 0x44 DUP3 ADD SWAP1 JUMP JUMPDEST SUB DUP2 PUSH1 0x0 PUSH32 0x0 PUSH1 0x1 PUSH1 0x1 PUSH1 0xA0 SHL SUB AND GAS CALL SWAP4 DUP5 ISZERO PUSH2 0x762 JUMPI PUSH1 0x1 PUSH2 0x3629 SWAP3 PUSH1 0xFF SWAP3 PUSH1 0x0 DUP1 MLOAD PUSH1 0x20 PUSH2 0x4DA2 DUP4 CODECOPY DUP2 MLOAD SWAP2 MSTORE SWAP8 PUSH2 0x3731 JUMPI JUMPDEST POP PUSH2 0x35DC JUMP JUMPDEST PUSH2 0x3749 SWAP1 PUSH1 0x20 RETURNDATASIZE PUSH1 0x20 GT PUSH2 0x75B JUMPI PUSH2 0x74C DUP2 DUP4 PUSH2 0x44A6 JUMP JUMPDEST POP DUP9 PUSH2 0x372B JUMP JUMPDEST PUSH2 0x375C SWAP1 PUSH1 0x17 SLOAD PUSH2 0x4ABB JUMP JUMPDEST PUSH1 0x17 SSTORE DUP6 PUSH2 0x368D JUMP JUMPDEST PUSH1 0x7 SLOAD DUP1 PUSH2 0x3774 JUMPI JUMPDEST POP PUSH2 0x355E JUMP JUMPDEST DUP8 SWAP4 POP PUSH2 0x3788 PUSH2 0x2710 SWAP2 PUSH2 0x3790 SWAP4 SWAP10 PUSH2 0x4B4F JUMP JUMPDEST DIV DUP1 SWAP4 PUSH2 0x4B42 JUMP JUMPDEST PUSH1 0x40 DUP1 MLOAD PUSH1 0x1 PUSH1 0x1 PUSH1 0x60 SHL SUB DUP5 AND DUP2 MSTORE PUSH1 0x20 DUP2 ADD DUP6 SWAP1 MSTORE TIMESTAMP SWAP2 DUP2 ADD SWAP2 SWAP1 SWAP2 MSTORE SWAP1 SWAP7 SWAP1 PUSH1 0x1 PUSH1 0x1 PUSH1 0xA0 SHL SUB DUP6 AND SWAP1 PUSH32 0x4515DD4239FBBCDE39AC2BD5B1D60B7CCAE104945F1429D0FA69EEA334478858 SWAP1 PUSH1 0x60 SWAP1 LOG2 DUP8 PUSH2 0x376E JUMP JUMPDEST POP PUSH1 0xFF PUSH1 0x8 SLOAD PUSH1 0x18 SHR AND DUP1 PUSH2 0x37FF JUMPI JUMPDEST ISZERO PUSH2 0x3559 JUMP JUMPDEST POP PUSH1 0x4 DUP2 PUSH1 0x38 SHR AND ISZERO ISZERO PUSH2 0x37F9 JUMP JUMPDEST POP PUSH1 0x2 DUP2 PUSH1 0x38 SHR AND ISZERO PUSH2 0x3553 JUMP JUMPDEST PUSH1 0x7 SLOAD PUSH2 0x34DB JUMPI PUSH1 0x40 MLOAD PUSH4 0xF38B9B5B PUSH1 0xE0 SHL DUP2 MSTORE PUSH1 0x4 SWAP1 REVERT JUMPDEST PUSH1 0xFF SWAP2 POP PUSH1 0x18 SHR AND DUP1 PUSH2 0x384A JUMPI JUMPDEST ISZERO DUP5 PUSH2 0x34D5 JUMP JUMPDEST POP PUSH1 0x4 DUP2 AND ISZERO ISZERO PUSH2 0x3843 JUMP JUMPDEST PUSH1 0x2 DUP4 AND ISZERO SWAP2 POP PUSH2 0x34CF JUMP JUMPDEST CALLVALUE PUSH2 0x448 JUMPI PUSH1 0x0 CALLDATASIZE PUSH1 0x3 NOT ADD SLT PUSH2 0x448 JUMPI PUSH1 0x20 PUSH1 0x5 SLOAD PUSH1 0x40 MLOAD SWAP1 DUP2 MSTORE RETURN JUMPDEST CALLVALUE PUSH2 0x448 JUMPI PUSH1 0x0 CALLDATASIZE PUSH1 0x3 NOT ADD SLT PUSH2 0x448 JUMPI PUSH1 0x20 PUSH1 0x1B SLOAD PUSH1 0x40 MLOAD SWAP1 DUP2 MSTORE RETURN JUMPDEST CALLVALUE PUSH2 0x448 JUMPI PUSH1 0x20 DUP1 PUSH1 0x3 NOT CALLDATASIZE ADD SLT PUSH2 0x448 JUMPI PUSH1 0x1 PUSH1 0x1 PUSH1 0xA0 SHL SUB PUSH2 0x38C0 PUSH2 0x45AD JUMP JUMPDEST AND PUSH1 0x0 MSTORE PUSH1 0x9 DUP2 MSTORE PUSH1 0x40 PUSH1 0x0 KECCAK256 SWAP1 DUP2 SLOAD PUSH2 0x38D9 DUP2 PUSH2 0x4D56 JUMP JUMPDEST SWAP1 PUSH2 0x38E7 PUSH1 0x40 MLOAD SWAP3 DUP4 PUSH2 0x44A6 JUMP JUMPDEST DUP1 DUP3 MSTORE DUP3 DUP3 ADD DUP1 SWAP5 PUSH1 0x0 MSTORE DUP4 PUSH1 0x0 KECCAK256 PUSH1 0x0 SWAP2 JUMPDEST DUP4 DUP4 LT PUSH2 0x3995 JUMPI PUSH1 0x40 DUP1 MLOAD DUP8 DUP2 MSTORE DUP7 MLOAD DUP2 DUP10 ADD DUP2 SWAP1 MSTORE DUP10 SWAP3 DUP3 ADD SWAP1 DUP10 PUSH1 0x0 JUMPDEST DUP3 DUP2 LT PUSH2 0x3926 JUMPI DUP5 DUP5 SUB DUP6 RETURN JUMPDEST SWAP1 SWAP2 SWAP3 DUP3 PUSH1 0xC0 PUSH1 0x1 SWAP3 DUP9 MLOAD PUSH1 0x1 PUSH1 0x1 PUSH1 0x60 SHL SUB DUP1 DUP3 MLOAD AND DUP4 MSTORE DUP5 DUP3 ADD MLOAD AND DUP5 DUP4 ADD MSTORE PUSH6 0xFFFFFFFFFFFF DUP1 PUSH1 0x40 DUP4 ADD MLOAD AND PUSH1 0x40 DUP5 ADD MSTORE PUSH1 0x60 SWAP1 DUP2 DUP4 ADD MLOAD AND SWAP1 DUP4 ADD MSTORE PUSH2 0x3979 PUSH1 0x80 DUP1 DUP4 ADD MLOAD SWAP1 DUP5 ADD SWAP1 PUSH2 0x4629 JUMP JUMPDEST PUSH1 0xFF PUSH1 0xA0 DUP1 SWAP3 ADD MLOAD AND SWAP1 DUP3 ADD MSTORE ADD SWAP7 ADD SWAP2 ADD SWAP5 SWAP3 SWAP2 SWAP1 SWAP5 PUSH2 0x3919 JUMP JUMPDEST PUSH1 0x2 DUP7 PUSH1 0x1 SWAP3 PUSH2 0x39A4 DUP6 PUSH2 0x4C15 JUMP JUMPDEST DUP2 MSTORE ADD SWAP3 ADD SWAP3 ADD SWAP2 SWAP1 PUSH2 0x38FA JUMP JUMPDEST CALLVALUE PUSH2 0x448 JUMPI PUSH1 0x0 CALLDATASIZE PUSH1 0x3 NOT ADD SLT PUSH2 0x448 JUMPI PUSH2 0x39CB PUSH2 0x4B07 JUMP JUMPDEST PUSH1 0x1 PUSH1 0x1 PUSH1 0xA0 SHL SUB PUSH2 0x39DB PUSH2 0x4A22 JUMP JUMPDEST AND DUP1 PUSH1 0x0 MSTORE PUSH1 0x20 SWAP1 PUSH1 0xC DUP3 MSTORE PUSH1 0x40 PUSH1 0x0 KECCAK256 SLOAD DUP1 ISZERO PUSH2 0xCBC JUMPI DUP2 PUSH1 0x0 MSTORE PUSH1 0xC DUP4 MSTORE PUSH1 0x0 PUSH1 0x40 DUP2 KECCAK256 SSTORE PUSH1 0x9 DUP4 MSTORE PUSH1 0x40 PUSH1 0x0 KECCAK256 SWAP3 PUSH1 0x40 MLOAD PUSH2 0x3A18 DUP2 PUSH2 0x4470 JUMP JUMPDEST PUSH1 0x1 PUSH1 0x1 PUSH1 0x60 SHL SUB DUP1 DUP5 AND DUP3 MSTORE DUP3 DUP3 ADD PUSH1 0x0 DUP2 MSTORE PUSH1 0x40 DUP4 ADD SWAP3 PUSH6 0xFFFFFFFFFFFF SWAP1 DUP2 TIMESTAMP AND DUP6 MSTORE PUSH1 0x60 DUP2 ADD SWAP4 PUSH1 0x0 DUP6 MSTORE PUSH1 0x80 DUP3 ADD SWAP4 PUSH1 0x0 DUP6 MSTORE PUSH1 0xA0 DUP4 ADD SWAP7 PUSH1 0x8 DUP9 MSTORE DUP12 SLOAD PUSH1 0x1 PUSH1 0x40 SHL DUP2 LT ISZERO PUSH2 0x71F JUMPI PUSH2 0x3A78 SWAP1 PUSH1 0x1 SWAP14 DUP15 DUP3 ADD DUP2 SSTORE PUSH2 0x45F7 JUMP JUMPDEST SWAP4 SWAP1 SWAP4 PUSH2 0x709 JUMPI SWAP4 MLOAD DUP4 SLOAD SWAP3 MLOAD SWAP2 MLOAD PUSH1 0x1 PUSH1 0x1 PUSH1 0xF0 SHL SUB NOT SWAP1 SWAP4 AND SWAP5 AND SWAP4 SWAP1 SWAP4 OR PUSH1 0x60 SWAP4 SWAP1 SWAP4 SHL PUSH1 0x1 PUSH1 0x60 SHL PUSH1 0x1 PUSH1 0xC0 SHL SUB AND SWAP3 SWAP1 SWAP3 OR PUSH1 0xC0 SWAP3 SWAP1 SWAP3 SHL PUSH6 0xFFFFFFFFFFFF PUSH1 0xC0 SHL AND SWAP2 SWAP1 SWAP2 OR DUP2 SSTORE SWAP3 MLOAD SWAP3 DUP9 ADD DUP1 SLOAD SWAP3 MLOAD SWAP2 SWAP1 SWAP4 AND SWAP4 SWAP1 SWAP2 PUSH1 0x2 DUP4 LT ISZERO PUSH2 0x6F3 JUMPI PUSH2 0x3B19 SWAP5 PUSH1 0xFF PUSH1 0x30 SHL PUSH1 0xFF SWAP5 PUSH1 0x30 SHL AND SWAP2 PUSH7 0xFFFFFFFFFFFFFF NOT AND OR OR DUP4 SSTORE MLOAD AND PUSH1 0xFF PUSH1 0x38 SHL DUP3 SLOAD SWAP2 PUSH1 0x38 SHL AND SWAP1 PUSH1 0xFF PUSH1 0x38 SHL NOT AND OR SWAP1 SSTORE JUMP JUMPDEST DUP3 PUSH1 0x0 MSTORE PUSH1 0x10 DUP2 MSTORE PUSH1 0x40 PUSH1 0x0 KECCAK256 DUP5 DUP2 SLOAD PUSH1 0xFF DUP2 AND ISZERO PUSH2 0x3BE1 JUMPI JUMPDEST POP POP PUSH1 0x9 DUP3 MSTORE POP PUSH1 0x40 PUSH1 0x0 KECCAK256 SLOAD PUSH1 0x0 NOT DUP2 ADD SWAP2 SWAP1 DUP3 GT PUSH2 0x6CE JUMPI PUSH32 0x997D2EC09B086DE73D509BBC4AD2B52FD7E2338024464BEDE93A41ABD6CCDC38 SWAP3 DUP5 PUSH1 0x0 DUP1 MLOAD PUSH1 0x20 PUSH2 0x4D82 DUP4 CODECOPY DUP2 MLOAD SWAP2 MSTORE PUSH1 0xA0 PUSH1 0x60 SWAP6 PUSH1 0x40 MLOAD SWAP1 PUSH1 0x0 DUP3 MSTORE DUP6 DUP8 DUP4 ADD MSTORE TIMESTAMP PUSH1 0x40 DUP4 ADD MSTORE DUP8 DUP3 ADD MSTORE DUP10 PUSH1 0x80 DUP3 ADD MSTORE LOG2 PUSH2 0x3BAE DUP2 PUSH1 0x18 SLOAD PUSH2 0x4ABB JUMP JUMPDEST PUSH1 0x18 SSTORE DUP5 PUSH1 0x0 MSTORE PUSH1 0xE DUP3 MSTORE PUSH1 0x40 PUSH1 0x0 KECCAK256 PUSH2 0x3BC9 DUP3 DUP3 SLOAD PUSH2 0x4ABB JUMP JUMPDEST SWAP1 SSTORE PUSH1 0x40 MLOAD SWAP2 PUSH1 0x0 DUP4 MSTORE DUP3 ADD MSTORE TIMESTAMP PUSH1 0x40 DUP3 ADD MSTORE LOG2 DUP1 SSTORE STOP JUMPDEST PUSH1 0xFF NOT AND OR SWAP1 SSTORE DUP5 DUP5 DUP2 PUSH2 0x3B33 JUMP JUMPDEST CALLVALUE PUSH2 0x448 JUMPI PUSH1 0x0 CALLDATASIZE PUSH1 0x3 NOT ADD SLT PUSH2 0x448 JUMPI PUSH1 0x20 PUSH1 0x13 SLOAD PUSH1 0x40 MLOAD SWAP1 DUP2 MSTORE RETURN JUMPDEST CALLVALUE PUSH2 0x448 JUMPI PUSH1 0x20 CALLDATASIZE PUSH1 0x3 NOT ADD SLT PUSH2 0x448 JUMPI PUSH1 0x4 CALLDATALOAD PUSH1 0x0 MSTORE PUSH1 0x0 PUSH1 0x20 MSTORE PUSH1 0x20 PUSH1 0x1 PUSH1 0x40 PUSH1 0x0 KECCAK256 ADD SLOAD PUSH1 0x40 MLOAD SWAP1 DUP2 MSTORE RETURN JUMPDEST CALLVALUE PUSH2 0x448 JUMPI PUSH1 0x0 CALLDATASIZE PUSH1 0x3 NOT ADD SLT PUSH2 0x448 JUMPI PUSH1 0x20 PUSH1 0xFF PUSH1 0x8 SLOAD PUSH1 0x18 SHR AND PUSH1 0x40 MLOAD SWAP1 ISZERO ISZERO DUP2 MSTORE RETURN JUMPDEST CALLVALUE PUSH2 0x448 JUMPI PUSH1 0x0 CALLDATASIZE PUSH1 0x3 NOT ADD SLT PUSH2 0x448 JUMPI PUSH1 0x20 PUSH1 0x4 SLOAD PUSH1 0x40 MLOAD SWAP1 DUP2 MSTORE RETURN JUMPDEST PUSH1 0x0 CALLDATASIZE PUSH1 0x3 NOT ADD SLT PUSH2 0x448 JUMPI PUSH2 0x3C95 PUSH2 0x47A8 JUMP JUMPDEST PUSH2 0x3C9D PUSH2 0x4B07 JUMP JUMPDEST CALLVALUE ISZERO PUSH2 0x7B3 JUMPI PUSH1 0x1A SLOAD DUP1 CALLVALUE GT PUSH2 0x2E68 JUMPI PUSH2 0x3CB8 SWAP1 CALLVALUE SWAP1 PUSH2 0x4B42 JUMP JUMPDEST PUSH1 0x1A SSTORE PUSH2 0x3CC3 PUSH2 0x4A22 JUMP JUMPDEST PUSH32 0x1B0029D3A4003762F16D0DC71199CE167B1D4BF00C5B97A3E28F613E921D6540 PUSH1 0x60 PUSH1 0x40 MLOAD SWAP3 PUSH1 0x0 DUP5 MSTORE CALLVALUE PUSH1 0x20 DUP6 ADD MSTORE TIMESTAMP PUSH1 0x40 DUP6 ADD MSTORE PUSH1 0x1 DUP1 PUSH1 0xA0 SHL SUB AND SWAP3 LOG2 PUSH1 0x1 DUP1 SSTORE STOP JUMPDEST CALLVALUE PUSH2 0x448 JUMPI PUSH1 0x0 CALLDATASIZE PUSH1 0x3 NOT ADD SLT PUSH2 0x448 JUMPI PUSH1 0x20 PUSH1 0x40 MLOAD PUSH32 0x8A21E8FDAE6C23863F7DE5307E2E7162C88DAB602A41610ADDB5F1505D259398 DUP2 MSTORE RETURN JUMPDEST CALLVALUE PUSH2 0x448 JUMPI PUSH1 0x60 CALLDATASIZE PUSH1 0x3 NOT ADD SLT PUSH2 0x448 JUMPI PUSH1 0x4 CALLDATALOAD PUSH1 0x1 PUSH1 0x1 PUSH1 0x40 SHL SUB DUP2 GT PUSH2 0x448 JUMPI PUSH2 0x3D75 SWAP1 CALLDATASIZE SWAP1 PUSH1 0x4 ADD PUSH2 0x4636 JUMP JUMPDEST SWAP1 PUSH1 0x24 CALLDATALOAD PUSH1 0x1 PUSH1 0x1 PUSH1 0x40 SHL SUB DUP2 GT PUSH2 0x448 JUMPI PUSH2 0x3D95 SWAP1 CALLDATASIZE SWAP1 PUSH1 0x4 ADD PUSH2 0x4636 JUMP JUMPDEST SWAP2 SWAP1 SWAP3 PUSH2 0x3DA0 PUSH2 0x4B07 JUMP JUMPDEST PUSH2 0x3DA8 PUSH2 0x4A22 JUMP JUMPDEST PUSH1 0x1 PUSH1 0x1 PUSH1 0xA0 SHL SUB AND PUSH1 0x0 DUP2 DUP2 MSTORE PUSH32 0x45F124ABC56411FA20FB79132D4E5E0DAD891ECF0313A820E14C2799F454AD5B PUSH1 0x20 MSTORE PUSH1 0x40 SWAP1 KECCAK256 SLOAD PUSH32 0x8A21E8FDAE6C23863F7DE5307E2E7162C88DAB602A41610ADDB5F1505D259398 SWAP1 PUSH1 0xFF AND ISZERO PUSH2 0x21AF JUMPI POP POP PUSH1 0x44 CALLDATALOAD ISZERO PUSH2 0x7B3 JUMPI PUSH2 0x3E1E PUSH1 0x1C SLOAD PUSH2 0x4A7B JUMP JUMPDEST SWAP3 DUP4 PUSH1 0x1C SSTORE DUP4 PUSH1 0x0 MSTORE PUSH1 0x1D PUSH1 0x20 MSTORE PUSH1 0x40 PUSH1 0x0 KECCAK256 SWAP5 DUP5 DUP7 SSTORE PUSH2 0x3E3D PUSH2 0x4A22 JUMP JUMPDEST PUSH1 0x1 DUP8 ADD DUP1 SLOAD PUSH1 0x1 PUSH1 0x1 PUSH1 0xA0 SHL SUB NOT AND PUSH1 0x1 PUSH1 0x1 PUSH1 0xA0 SHL SUB SWAP1 SWAP3 AND SWAP2 SWAP1 SWAP2 OR SWAP1 SSTORE PUSH1 0x1 PUSH1 0x1 PUSH1 0x40 SHL SUB DUP4 GT PUSH2 0x71F JUMPI PUSH2 0x3E79 PUSH1 0x2 DUP8 ADD SLOAD PUSH2 0x441A JUMP JUMPDEST PUSH1 0x1F DUP2 GT PUSH2 0x40F2 JUMPI JUMPDEST POP DUP3 PUSH1 0x0 PUSH1 0x1F DUP3 GT PUSH1 0x1 EQ PUSH2 0x4084 JUMPI PUSH1 0x0 SWAP2 PUSH2 0x4079 JUMPI JUMPDEST POP DUP4 PUSH1 0x1 SHL SWAP1 PUSH1 0x0 NOT DUP6 PUSH1 0x3 SHL SHR NOT AND OR PUSH1 0x2 DUP8 ADD SSTORE JUMPDEST PUSH1 0x1 PUSH1 0x1 PUSH1 0x40 SHL SUB DUP3 GT PUSH2 0x71F JUMPI DUP2 SWAP1 PUSH2 0x3ECD PUSH1 0x3 DUP9 ADD SLOAD PUSH2 0x441A JUMP JUMPDEST PUSH1 0x1F DUP2 GT PUSH2 0x4026 JUMPI JUMPDEST POP PUSH1 0x0 SWAP1 PUSH1 0x1F DUP4 GT PUSH1 0x1 EQ PUSH2 0x3FB5 JUMPI PUSH1 0x0 SWAP3 PUSH2 0x3FAA JUMPI JUMPDEST POP POP DUP2 PUSH1 0x1 SHL SWAP2 PUSH1 0x0 NOT SWAP1 PUSH1 0x3 SHL SHR NOT AND OR PUSH1 0x3 DUP6 ADD SSTORE JUMPDEST TIMESTAMP PUSH1 0x4 DUP6 ADD SSTORE PUSH3 0x15180 DUP1 PUSH1 0x44 CALLDATALOAD MUL SWAP1 PUSH1 0x44 CALLDATALOAD DUP3 DIV SUB PUSH2 0x6CE JUMPI PUSH32 0x98120A6AAA04295520AB4E01C6C1235DD316E822CC9FF31DB7B3F197366D18BD SWAP3 PUSH1 0x8 PUSH2 0x3F4F PUSH1 0x60 SWAP4 TIMESTAMP PUSH2 0x4ABB JUMP JUMPDEST PUSH1 0x5 DUP9 ADD DUP2 SWAP1 SSTORE SWAP7 ADD DUP1 SLOAD PUSH1 0xFF NOT AND PUSH1 0x1 OR SWAP1 SSTORE DUP3 PUSH1 0x1 PUSH1 0x1 PUSH1 0xA0 SHL SUB PUSH2 0x3F74 PUSH2 0x4A22 JUMP JUMPDEST AND SWAP7 PUSH1 0x40 MLOAD SWAP5 DUP6 SWAP4 PUSH1 0x40 DUP6 MSTORE DUP2 PUSH1 0x40 DUP7 ADD MSTORE DUP6 DUP6 ADD CALLDATACOPY PUSH1 0x0 DUP4 DUP4 ADD DUP6 ADD MSTORE PUSH1 0x20 DUP4 ADD MSTORE PUSH1 0x1F ADD PUSH1 0x1F NOT AND DUP2 ADD SUB ADD SWAP1 LOG3 PUSH1 0x1 DUP1 SSTORE STOP JUMPDEST ADD CALLDATALOAD SWAP1 POP DUP7 DUP1 PUSH2 0x3EED JUMP JUMPDEST SWAP1 SWAP3 POP PUSH1 0x3 DUP8 ADD PUSH1 0x0 MSTORE PUSH1 0x20 PUSH1 0x0 KECCAK256 SWAP1 PUSH1 0x0 SWAP4 JUMPDEST PUSH1 0x1F NOT DUP5 AND DUP6 LT PUSH2 0x400E JUMPI PUSH1 0x1 SWAP5 POP DUP4 PUSH1 0x1F NOT DUP2 AND LT PUSH2 0x3FF4 JUMPI JUMPDEST POP POP POP DUP2 SHL ADD PUSH1 0x3 DUP6 ADD SSTORE PUSH2 0x3F05 JUMP JUMPDEST ADD CALLDATALOAD PUSH1 0x0 NOT PUSH1 0x3 DUP5 SWAP1 SHL PUSH1 0xF8 AND SHR NOT AND SWAP1 SSTORE DUP7 DUP1 DUP1 PUSH2 0x3FE4 JUMP JUMPDEST DUP2 DUP2 ADD CALLDATALOAD DUP4 SSTORE PUSH1 0x20 SWAP5 DUP6 ADD SWAP5 PUSH1 0x1 SWAP1 SWAP4 ADD SWAP3 ADD PUSH2 0x3FC9 JUMP JUMPDEST SWAP1 SWAP2 POP PUSH1 0x3 DUP8 ADD PUSH1 0x0 MSTORE PUSH1 0x20 PUSH1 0x0 KECCAK256 PUSH1 0x1F DUP5 ADD PUSH1 0x5 SHR DUP2 ADD PUSH1 0x20 DUP6 LT PUSH2 0x4072 JUMPI JUMPDEST SWAP1 DUP5 SWAP4 SWAP3 SWAP2 JUMPDEST PUSH1 0x1F DUP4 ADD PUSH1 0x5 SHR DUP3 ADD DUP2 LT PUSH2 0x4063 JUMPI POP POP PUSH2 0x3ED6 JUMP JUMPDEST PUSH1 0x0 DUP2 SSTORE DUP6 SWAP5 POP PUSH1 0x1 ADD PUSH2 0x404D JUMP JUMPDEST POP DUP1 PUSH2 0x4047 JUMP JUMPDEST SWAP1 POP DUP5 ADD CALLDATALOAD DUP8 PUSH2 0x3E99 JUMP JUMPDEST SWAP1 POP PUSH1 0x2 DUP8 ADD PUSH1 0x0 MSTORE PUSH1 0x20 PUSH1 0x0 KECCAK256 SWAP1 PUSH1 0x0 JUMPDEST PUSH1 0x1F NOT DUP7 AND DUP2 LT PUSH2 0x40DA JUMPI POP DUP5 PUSH1 0x1F NOT DUP2 AND LT PUSH2 0x40C0 JUMPI JUMPDEST POP POP PUSH1 0x1 DUP4 DUP2 SHL ADD PUSH1 0x2 DUP8 ADD SSTORE PUSH2 0x3EB0 JUMP JUMPDEST DUP6 ADD CALLDATALOAD PUSH1 0x0 NOT PUSH1 0x3 DUP7 SWAP1 SHL PUSH1 0xF8 AND SHR NOT AND SWAP1 SSTORE DUP7 DUP1 PUSH2 0x40AE JUMP JUMPDEST SWAP1 SWAP2 PUSH1 0x20 PUSH1 0x1 DUP2 SWAP3 DUP6 DUP11 ADD CALLDATALOAD DUP2 SSTORE ADD SWAP4 ADD SWAP2 ADD PUSH2 0x4096 JUMP JUMPDEST PUSH1 0x2 DUP8 ADD PUSH1 0x0 MSTORE PUSH1 0x20 PUSH1 0x0 KECCAK256 PUSH1 0x1F DUP6 ADD PUSH1 0x5 SHR DUP2 ADD PUSH1 0x20 DUP7 LT PUSH2 0x4132 JUMPI JUMPDEST PUSH1 0x1F DUP4 ADD PUSH1 0x5 SHR DUP3 ADD DUP2 LT PUSH2 0x4126 JUMPI POP POP PUSH2 0x3E82 JUMP JUMPDEST PUSH1 0x0 DUP2 SSTORE PUSH1 0x1 ADD PUSH2 0x4110 JUMP JUMPDEST POP DUP1 PUSH2 0x4110 JUMP JUMPDEST CALLVALUE PUSH2 0x448 JUMPI PUSH1 0x0 CALLDATASIZE PUSH1 0x3 NOT ADD SLT PUSH2 0x448 JUMPI PUSH1 0x20 PUSH1 0x40 MLOAD PUSH32 0xF60566C40710959D8D30B6067CE3C53C757BEC78EECB0E46B83C7F8194FFAE37 DUP2 MSTORE RETURN JUMPDEST CALLVALUE PUSH2 0x448 JUMPI PUSH1 0x40 CALLDATASIZE PUSH1 0x3 NOT ADD SLT PUSH2 0x448 JUMPI PUSH2 0x418D PUSH2 0x45AD JUMP JUMPDEST PUSH1 0x1 PUSH1 0x1 PUSH1 0xA0 SHL SUB AND PUSH1 0x0 SWAP1 DUP2 MSTORE PUSH1 0x9 PUSH1 0x20 MSTORE PUSH1 0x40 SWAP1 KECCAK256 DUP1 SLOAD PUSH1 0x24 CALLDATALOAD SWAP2 SWAP1 DUP3 LT ISZERO PUSH2 0x448 JUMPI PUSH1 0xC0 SWAP2 PUSH2 0x41BE SWAP2 PUSH2 0x45F7 JUMP JUMPDEST POP PUSH1 0xFF PUSH1 0x1 DUP3 SLOAD SWAP3 ADD SLOAD PUSH1 0x40 MLOAD SWAP3 PUSH1 0x1 PUSH1 0x1 PUSH1 0x60 SHL SUB DUP1 DUP3 AND DUP6 MSTORE DUP2 PUSH1 0x60 SHR AND PUSH1 0x20 DUP6 ADD MSTORE PUSH6 0xFFFFFFFFFFFF DUP1 SWAP2 DUP7 SHR AND PUSH1 0x40 DUP6 ADD MSTORE DUP2 AND PUSH1 0x60 DUP5 ADD MSTORE PUSH2 0x420D PUSH1 0x80 DUP5 ADD DUP4 DUP4 PUSH1 0x30 SHR AND PUSH2 0x4629 JUMP JUMPDEST PUSH1 0x38 SHR AND PUSH1 0xA0 DUP3 ADD MSTORE RETURN JUMPDEST CALLVALUE PUSH2 0x448 JUMPI PUSH1 0x20 CALLDATASIZE PUSH1 0x3 NOT ADD SLT PUSH2 0x448 JUMPI PUSH2 0x4231 PUSH2 0x45D9 JUMP JUMPDEST PUSH2 0x4239 PUSH2 0x473B JUMP JUMPDEST PUSH3 0xFF0000 PUSH1 0x8 SLOAD SWAP2 ISZERO ISZERO PUSH1 0x10 SHL AND SWAP1 PUSH3 0xFF0000 NOT AND OR PUSH1 0x8 SSTORE PUSH1 0x0 DUP1 RETURN JUMPDEST CALLVALUE PUSH2 0x448 JUMPI PUSH1 0x20 CALLDATASIZE PUSH1 0x3 NOT ADD SLT PUSH2 0x448 JUMPI PUSH1 0x1 PUSH1 0x1 PUSH1 0xA0 SHL SUB PUSH2 0x4278 PUSH2 0x45AD JUMP JUMPDEST AND PUSH1 0x0 MSTORE PUSH1 0xF PUSH1 0x20 MSTORE PUSH1 0x20 PUSH1 0x40 PUSH1 0x0 KECCAK256 SLOAD PUSH1 0x40 MLOAD SWAP1 DUP2 MSTORE RETURN JUMPDEST CALLVALUE PUSH2 0x448 JUMPI PUSH1 0x20 CALLDATASIZE PUSH1 0x3 NOT ADD SLT PUSH2 0x448 JUMPI PUSH1 0x4 CALLDATALOAD PUSH2 0x42AD PUSH2 0x473B JUMP JUMPDEST DUP1 PUSH1 0x0 MSTORE PUSH1 0x1D PUSH1 0x20 MSTORE PUSH1 0x8 PUSH1 0x40 PUSH1 0x0 KECCAK256 ADD PUSH2 0x100 PUSH2 0xFFFF NOT DUP3 SLOAD AND OR SWAP1 SSTORE PUSH32 0xAFFED5D901D9FBE9106721FA52653EDE403C09699F9F810F6D378ACC51FB50FA PUSH1 0x20 PUSH1 0x40 MLOAD PUSH1 0x1 DUP2 MSTORE LOG2 STOP JUMPDEST CALLVALUE PUSH2 0x448 JUMPI PUSH1 0x20 CALLDATASIZE PUSH1 0x3 NOT ADD SLT PUSH2 0x448 JUMPI PUSH1 0x4 CALLDATALOAD PUSH4 0xFFFFFFFF PUSH1 0xE0 SHL DUP2 AND DUP1 SWAP2 SUB PUSH2 0x448 JUMPI PUSH1 0x20 SWAP1 PUSH4 0x7965DB0B PUSH1 0xE0 SHL DUP2 EQ SWAP1 DUP2 ISZERO PUSH2 0x433D JUMPI JUMPDEST POP PUSH1 0x40 MLOAD SWAP1 ISZERO ISZERO DUP2 MSTORE RETURN JUMPDEST PUSH4 0x1FFC9A7 PUSH1 0xE0 SHL EQ SWAP1 POP DUP3 PUSH2 0x4332 JUMP JUMPDEST CALLVALUE PUSH2 0x448 JUMPI PUSH1 0x20 CALLDATASIZE PUSH1 0x3 NOT ADD SLT PUSH2 0x448 JUMPI PUSH1 0x4 CALLDATALOAD PUSH1 0x0 SWAP1 DUP2 MSTORE PUSH1 0x1D PUSH1 0x20 MSTORE PUSH1 0x40 SWAP1 KECCAK256 DUP1 SLOAD PUSH1 0x1 DUP3 ADD SLOAD PUSH1 0x1 PUSH1 0x1 PUSH1 0xA0 SHL SUB AND SWAP2 PUSH1 0xFF PUSH2 0x438F PUSH1 0x2 DUP4 ADD PUSH2 0x44C7 JUMP JUMPDEST PUSH2 0x439B PUSH1 0x3 DUP5 ADD PUSH2 0x44C7 JUMP JUMPDEST SWAP3 PUSH1 0x4 DUP2 ADD SLOAD SWAP4 PUSH1 0x5 DUP3 ADD SLOAD PUSH2 0x43EA PUSH1 0x6 DUP5 ADD SLOAD SWAP3 PUSH2 0x43DC PUSH1 0x8 PUSH1 0x7 DUP8 ADD SLOAD SWAP7 ADD SLOAD SWAP7 PUSH1 0x40 MLOAD SWAP12 DUP13 SWAP12 DUP13 MSTORE PUSH1 0x20 DUP13 ADD MSTORE PUSH2 0x140 DUP1 PUSH1 0x40 DUP14 ADD MSTORE DUP12 ADD SWAP1 PUSH2 0x456D JUMP JUMPDEST SWAP1 DUP10 DUP3 SUB PUSH1 0x60 DUP12 ADD MSTORE PUSH2 0x456D JUMP JUMPDEST SWAP6 PUSH1 0x80 DUP9 ADD MSTORE PUSH1 0xA0 DUP8 ADD MSTORE PUSH1 0xC0 DUP7 ADD MSTORE PUSH1 0xE0 DUP6 ADD MSTORE DUP2 DUP2 AND ISZERO ISZERO PUSH2 0x100 DUP6 ADD MSTORE PUSH1 0x8 SHR AND ISZERO ISZERO PUSH2 0x120 DUP4 ADD MSTORE SUB SWAP1 RETURN JUMPDEST SWAP1 PUSH1 0x1 DUP3 DUP2 SHR SWAP3 AND DUP1 ISZERO PUSH2 0x444A JUMPI JUMPDEST PUSH1 0x20 DUP4 LT EQ PUSH2 0x4434 JUMPI JUMP JUMPDEST PUSH4 0x4E487B71 PUSH1 0xE0 SHL PUSH1 0x0 MSTORE PUSH1 0x22 PUSH1 0x4 MSTORE PUSH1 0x24 PUSH1 0x0 REVERT JUMPDEST SWAP2 PUSH1 0x7F AND SWAP2 PUSH2 0x4429 JUMP JUMPDEST PUSH2 0x140 DUP2 ADD SWAP1 DUP2 LT PUSH1 0x1 PUSH1 0x1 PUSH1 0x40 SHL SUB DUP3 GT OR PUSH2 0x71F JUMPI PUSH1 0x40 MSTORE JUMP JUMPDEST PUSH1 0xC0 DUP2 ADD SWAP1 DUP2 LT PUSH1 0x1 PUSH1 0x1 PUSH1 0x40 SHL SUB DUP3 GT OR PUSH2 0x71F JUMPI PUSH1 0x40 MSTORE JUMP JUMPDEST PUSH1 0x40 DUP2 ADD SWAP1 DUP2 LT PUSH1 0x1 PUSH1 0x1 PUSH1 0x40 SHL SUB DUP3 GT OR PUSH2 0x71F JUMPI PUSH1 0x40 MSTORE JUMP JUMPDEST SWAP1 PUSH1 0x1F DUP1 NOT SWAP2 ADD AND DUP2 ADD SWAP1 DUP2 LT PUSH1 0x1 PUSH1 0x1 PUSH1 0x40 SHL SUB DUP3 GT OR PUSH2 0x71F JUMPI PUSH1 0x40 MSTORE JUMP JUMPDEST SWAP1 PUSH1 0x40 MLOAD SWAP2 DUP3 PUSH1 0x0 DUP3 SLOAD SWAP3 PUSH2 0x44DB DUP5 PUSH2 0x441A JUMP JUMPDEST SWAP1 DUP2 DUP5 MSTORE PUSH1 0x1 SWAP5 DUP6 DUP2 AND SWAP1 DUP2 PUSH1 0x0 EQ PUSH2 0x454A JUMPI POP PUSH1 0x1 EQ PUSH2 0x4507 JUMPI JUMPDEST POP POP PUSH2 0x4505 SWAP3 POP SUB DUP4 PUSH2 0x44A6 JUMP JUMPDEST JUMP JUMPDEST SWAP1 SWAP4 SWAP2 POP PUSH1 0x0 MSTORE PUSH1 0x20 SWAP1 DUP2 PUSH1 0x0 KECCAK256 SWAP4 PUSH1 0x0 SWAP2 JUMPDEST DUP2 DUP4 LT PUSH2 0x4532 JUMPI POP POP PUSH2 0x4505 SWAP4 POP DUP3 ADD ADD CODESIZE DUP1 PUSH2 0x44F7 JUMP JUMPDEST DUP6 SLOAD DUP9 DUP5 ADD DUP6 ADD MSTORE SWAP5 DUP6 ADD SWAP5 DUP8 SWAP5 POP SWAP2 DUP4 ADD SWAP2 PUSH2 0x451A JUMP JUMPDEST SWAP2 POP POP PUSH2 0x4505 SWAP5 POP PUSH1 0x20 SWAP3 POP PUSH1 0xFF NOT AND DUP3 DUP5 ADD MSTORE ISZERO ISZERO PUSH1 0x5 SHL DUP3 ADD ADD CODESIZE DUP1 PUSH2 0x44F7 JUMP JUMPDEST SWAP2 SWAP1 DUP3 MLOAD SWAP3 DUP4 DUP3 MSTORE PUSH1 0x0 JUMPDEST DUP5 DUP2 LT PUSH2 0x4599 JUMPI POP POP DUP3 PUSH1 0x0 PUSH1 0x20 DUP1 SWAP5 SWAP6 DUP5 ADD ADD MSTORE PUSH1 0x1F DUP1 NOT SWAP2 ADD AND ADD ADD SWAP1 JUMP JUMPDEST PUSH1 0x20 DUP2 DUP4 ADD DUP2 ADD MLOAD DUP5 DUP4 ADD DUP3 ADD MSTORE ADD PUSH2 0x4578 JUMP JUMPDEST PUSH1 0x4 CALLDATALOAD SWAP1 PUSH1 0x1 PUSH1 0x1 PUSH1 0xA0 SHL SUB DUP3 AND DUP3 SUB PUSH2 0x448 JUMPI JUMP JUMPDEST PUSH1 0x24 CALLDATALOAD SWAP1 PUSH1 0x1 PUSH1 0x1 PUSH1 0xA0 SHL SUB DUP3 AND DUP3 SUB PUSH2 0x448 JUMPI JUMP JUMPDEST PUSH1 0x4 CALLDATALOAD SWAP1 DUP2 ISZERO ISZERO DUP3 SUB PUSH2 0x448 JUMPI JUMP JUMPDEST PUSH1 0x24 CALLDATALOAD SWAP1 DUP2 ISZERO ISZERO DUP3 SUB PUSH2 0x448 JUMPI JUMP JUMPDEST DUP1 SLOAD DUP3 LT ISZERO PUSH2 0x4613 JUMPI PUSH1 0x0 MSTORE PUSH1 0x20 PUSH1 0x0 KECCAK256 SWAP1 PUSH1 0x1 SHL ADD SWAP1 PUSH1 0x0 SWAP1 JUMP JUMPDEST PUSH4 0x4E487B71 PUSH1 0xE0 SHL PUSH1 0x0 MSTORE PUSH1 0x32 PUSH1 0x4 MSTORE PUSH1 0x24 PUSH1 0x0 REVERT JUMPDEST SWAP1 PUSH1 0x2 DUP3 LT ISZERO PUSH2 0x6F3 JUMPI MSTORE JUMP JUMPDEST SWAP2 DUP2 PUSH1 0x1F DUP5 ADD SLT ISZERO PUSH2 0x448 JUMPI DUP3 CALLDATALOAD SWAP2 PUSH1 0x1 PUSH1 0x1 PUSH1 0x40 SHL SUB DUP4 GT PUSH2 0x448 JUMPI PUSH1 0x20 DUP4 DUP2 DUP7 ADD SWAP6 ADD ADD GT PUSH2 0x448 JUMPI JUMP JUMPDEST SWAP2 DUP2 PUSH1 0x1F DUP5 ADD SLT ISZERO PUSH2 0x448 JUMPI DUP3 CALLDATALOAD SWAP2 PUSH1 0x1 PUSH1 0x1 PUSH1 0x40 SHL SUB DUP4 GT PUSH2 0x448 JUMPI PUSH1 0x20 DUP1 DUP6 ADD SWAP5 DUP5 PUSH1 0x5 SHL ADD ADD GT PUSH2 0x448 JUMPI JUMP JUMPDEST PUSH1 0x40 PUSH1 0x3 NOT DUP3 ADD SLT PUSH2 0x448 JUMPI PUSH1 0x1 PUSH1 0x1 PUSH1 0x40 SHL SUB SWAP2 PUSH1 0x4 CALLDATALOAD DUP4 DUP2 GT PUSH2 0x448 JUMPI DUP3 PUSH2 0x46BF SWAP2 PUSH1 0x4 ADD PUSH2 0x4663 JUMP JUMPDEST SWAP4 SWAP1 SWAP4 SWAP3 PUSH1 0x24 CALLDATALOAD SWAP2 DUP3 GT PUSH2 0x448 JUMPI PUSH2 0x46D9 SWAP2 PUSH1 0x4 ADD PUSH2 0x4663 JUMP JUMPDEST SWAP1 SWAP2 JUMP JUMPDEST SWAP1 PUSH1 0x40 PUSH1 0x3 NOT DUP4 ADD SLT PUSH2 0x448 JUMPI PUSH1 0x4 CALLDATALOAD PUSH1 0x1 PUSH1 0x1 PUSH1 0xA0 SHL SUB DUP2 AND DUP2 SUB PUSH2 0x448 JUMPI SWAP2 PUSH1 0x24 CALLDATALOAD SWAP1 PUSH1 0x1 PUSH1 0x1 PUSH1 0x40 SHL SUB DUP3 GT PUSH2 0x448 JUMPI PUSH2 0x46D9 SWAP2 PUSH1 0x4 ADD PUSH2 0x4663 JUMP JUMPDEST PUSH1 0x40 SWAP1 PUSH1 0x3 NOT ADD SLT PUSH2 0x448 JUMPI PUSH1 0x4 CALLDATALOAD PUSH1 0x2 DUP2 LT ISZERO PUSH2 0x448 JUMPI SWAP1 PUSH1 0x24 CALLDATALOAD SWAP1 JUMP JUMPDEST PUSH2 0x4743 PUSH2 0x4A22 JUMP JUMPDEST PUSH1 0x1 PUSH1 0x1 PUSH1 0xA0 SHL SUB AND PUSH1 0x0 DUP2 DUP2 MSTORE PUSH32 0x7D7FFB7A348E1C6A02869081A26547B49160DD3DF72D1D75A570EB9B698292EC PUSH1 0x20 MSTORE PUSH1 0x40 SWAP1 KECCAK256 SLOAD PUSH32 0xA49807205CE4D355092EF5A8A18F56E8913CF4A201FBE287825B095693C21775 SWAP1 PUSH1 0xFF AND ISZERO PUSH2 0x21AF JUMPI POP POP JUMP JUMPDEST PUSH2 0x47B0 PUSH2 0x4A22 JUMP JUMPDEST PUSH1 0x1 PUSH1 0x1 PUSH1 0xA0 SHL SUB AND PUSH1 0x0 DUP2 DUP2 MSTORE PUSH32 0xE84508F2C7FA9C351146748B3025CB78B45DF37D868E48C6A75102FECDEEE645 PUSH1 0x20 MSTORE PUSH1 0x40 SWAP1 KECCAK256 SLOAD PUSH32 0x241ECF16D79D0F8DBFB92CBC07FE17840425976CF0667F022FE9877CAA831B08 SWAP1 PUSH1 0xFF AND ISZERO PUSH2 0x21AF JUMPI POP POP JUMP JUMPDEST PUSH2 0x481D PUSH2 0x4A22 JUMP JUMPDEST PUSH1 0x1 PUSH1 0x1 PUSH1 0xA0 SHL SUB AND PUSH1 0x0 DUP2 DUP2 MSTORE PUSH32 0x9505C8401A8A13F8B514B3EFAAA61BE2DC9810E3F02FBD8EDEBA297FDD793D65 PUSH1 0x20 MSTORE PUSH1 0x40 SWAP1 KECCAK256 SLOAD PUSH32 0xF60566C40710959D8D30B6067CE3C53C757BEC78EECB0E46B83C7F8194FFAE37 SWAP1 PUSH1 0xFF AND ISZERO PUSH2 0x21AF JUMPI POP POP JUMP JUMPDEST PUSH2 0x488A PUSH2 0x4A22 JUMP JUMPDEST PUSH1 0x1 PUSH1 0x1 PUSH1 0xA0 SHL SUB AND PUSH1 0x0 DUP2 DUP2 MSTORE PUSH32 0xCA62FFB99FA36D4130BBEE1A8581C4D2FD87E1D2BF4A5E65538AD96AE66582C9 PUSH1 0x20 MSTORE PUSH1 0x40 SWAP1 KECCAK256 SLOAD PUSH32 0x78C90EB9E475048B483A290AEE04B5FE48355537C3623C7637B17D3BED71C6ED SWAP1 PUSH1 0xFF AND ISZERO PUSH2 0x21AF JUMPI POP POP JUMP JUMPDEST PUSH2 0x48F7 PUSH2 0x4A22 JUMP JUMPDEST SWAP1 DUP1 PUSH1 0x0 MSTORE PUSH1 0x0 PUSH1 0x20 MSTORE PUSH1 0x40 PUSH1 0x0 KECCAK256 SWAP2 PUSH1 0x1 DUP1 PUSH1 0xA0 SHL SUB AND SWAP2 DUP3 PUSH1 0x0 MSTORE PUSH1 0x20 MSTORE PUSH1 0xFF PUSH1 0x40 PUSH1 0x0 KECCAK256 SLOAD AND ISZERO PUSH2 0x21AF JUMPI POP POP JUMP JUMPDEST PUSH1 0x0 DUP2 DUP2 MSTORE PUSH1 0x20 DUP2 DUP2 MSTORE PUSH1 0x40 DUP1 DUP4 KECCAK256 PUSH1 0x1 PUSH1 0x1 PUSH1 0xA0 SHL SUB SWAP6 DUP7 AND DUP1 DUP6 MSTORE SWAP3 MSTORE DUP3 KECCAK256 SLOAD SWAP2 SWAP4 SWAP1 SWAP3 SWAP2 PUSH1 0xFF AND PUSH2 0x49AA JUMPI PUSH32 0x2F8788117E7EFF1D82E926EC794901D17C78024A50270940304540A733656F0D SWAP1 DUP3 DUP6 MSTORE DUP5 PUSH1 0x20 MSTORE PUSH1 0x40 DUP6 KECCAK256 DUP5 DUP7 MSTORE PUSH1 0x20 MSTORE PUSH1 0x40 DUP6 KECCAK256 PUSH1 0x1 PUSH1 0xFF NOT DUP3 SLOAD AND OR SWAP1 SSTORE PUSH2 0x49A1 PUSH2 0x4A22 JUMP JUMPDEST AND SWAP4 DUP1 LOG4 PUSH1 0x1 SWAP1 JUMP JUMPDEST POP POP POP SWAP1 JUMP JUMPDEST PUSH1 0x0 DUP2 DUP2 MSTORE PUSH1 0x20 DUP2 DUP2 MSTORE PUSH1 0x40 DUP1 DUP4 KECCAK256 PUSH1 0x1 PUSH1 0x1 PUSH1 0xA0 SHL SUB SWAP6 DUP7 AND DUP1 DUP6 MSTORE SWAP3 MSTORE DUP3 KECCAK256 SLOAD SWAP2 SWAP4 SWAP1 SWAP3 SWAP2 PUSH1 0xFF AND ISZERO PUSH2 0x49AA JUMPI PUSH32 0xF6391F5C32D9C69D2A47EA670B442974B53935D1EDC7FD64EB21E047A839171B SWAP1 DUP3 DUP6 MSTORE DUP5 PUSH1 0x20 MSTORE PUSH1 0x40 DUP6 KECCAK256 DUP5 DUP7 MSTORE PUSH1 0x20 MSTORE PUSH1 0x40 DUP6 KECCAK256 PUSH1 0xFF NOT DUP2 SLOAD AND SWAP1 SSTORE PUSH2 0x49A1 JUMPDEST PUSH1 0x14 CALLDATASIZE LT ISZERO DUP1 PUSH2 0x4A49 JUMPI JUMPDEST ISZERO PUSH2 0x4A45 JUMPI PUSH1 0x13 NOT CALLDATASIZE ADD CALLDATASIZE DUP2 GT PUSH2 0x448 JUMPI CALLDATALOAD PUSH1 0x60 SHR SWAP1 JUMP JUMPDEST CALLER SWAP1 JUMP JUMPDEST POP CALLER PUSH32 0x0 PUSH1 0x1 PUSH1 0x1 PUSH1 0xA0 SHL SUB AND EQ PUSH2 0x4A2D JUMP JUMPDEST PUSH1 0x0 NOT DUP2 EQ PUSH2 0x6CE JUMPI PUSH1 0x1 ADD SWAP1 JUMP JUMPDEST SWAP2 SWAP1 DUP2 LT ISZERO PUSH2 0x4613 JUMPI PUSH1 0x5 SHL ADD SWAP1 JUMP JUMPDEST CALLDATALOAD DUP1 ISZERO ISZERO DUP2 SUB PUSH2 0x448 JUMPI SWAP1 JUMP JUMPDEST CALLDATALOAD PUSH1 0x1 PUSH1 0x1 PUSH1 0xA0 SHL SUB DUP2 AND DUP2 SUB PUSH2 0x448 JUMPI SWAP1 JUMP JUMPDEST SWAP2 SWAP1 DUP3 ADD DUP1 SWAP3 GT PUSH2 0x6CE JUMPI JUMP JUMPDEST RETURNDATASIZE ISZERO PUSH2 0x4B02 JUMPI RETURNDATASIZE SWAP1 PUSH1 0x1 PUSH1 0x1 PUSH1 0x40 SHL SUB DUP3 GT PUSH2 0x71F JUMPI PUSH1 0x40 MLOAD SWAP2 PUSH2 0x4AF6 PUSH1 0x1F DUP3 ADD PUSH1 0x1F NOT AND PUSH1 0x20 ADD DUP5 PUSH2 0x44A6 JUMP JUMPDEST DUP3 MSTORE RETURNDATASIZE PUSH1 0x0 PUSH1 0x20 DUP5 ADD RETURNDATACOPY JUMP JUMPDEST PUSH1 0x60 SWAP1 JUMP JUMPDEST PUSH1 0x2 PUSH1 0x1 SLOAD EQ PUSH2 0x4B18 JUMPI PUSH1 0x2 PUSH1 0x1 SSTORE JUMP JUMPDEST PUSH1 0x40 MLOAD PUSH4 0x3EE5AEB5 PUSH1 0xE0 SHL DUP2 MSTORE PUSH1 0x4 SWAP1 REVERT JUMPDEST SWAP1 DUP2 PUSH1 0x20 SWAP2 SUB SLT PUSH2 0x448 JUMPI MLOAD DUP1 ISZERO ISZERO DUP2 SUB PUSH2 0x448 JUMPI SWAP1 JUMP JUMPDEST SWAP2 SWAP1 DUP3 SUB SWAP2 DUP3 GT PUSH2 0x6CE JUMPI JUMP JUMPDEST DUP2 DUP2 MUL SWAP3 SWAP2 DUP2 ISZERO SWAP2 DUP5 DIV EQ OR ISZERO PUSH2 0x6CE JUMPI JUMP JUMPDEST PUSH1 0x11 SLOAD PUSH1 0x1 PUSH1 0x40 SHL DUP2 LT ISZERO PUSH2 0x71F JUMPI PUSH1 0x1 DUP2 ADD DUP1 PUSH1 0x11 SSTORE DUP2 LT ISZERO PUSH2 0x4613 JUMPI PUSH1 0x11 PUSH1 0x0 MSTORE PUSH32 0x31ECC21A745E3968A04E9570E4425BC18FA8019C68028196B546D1669C200C68 ADD DUP1 SLOAD PUSH1 0x1 PUSH1 0x1 PUSH1 0xA0 SHL SUB NOT AND PUSH1 0x1 PUSH1 0x1 PUSH1 0xA0 SHL SUB SWAP1 SWAP3 AND SWAP2 SWAP1 SWAP2 OR SWAP1 SSTORE JUMP JUMPDEST SWAP2 SWAP3 PUSH1 0x80 SWAP4 SWAP7 SWAP6 SWAP5 SWAP2 SWAP7 PUSH2 0x4BDE DUP5 PUSH1 0xA0 DUP2 ADD SWAP10 PUSH2 0x4629 JUMP JUMPDEST PUSH1 0x20 DUP5 ADD MSTORE PUSH1 0x40 DUP4 ADD MSTORE PUSH1 0x60 DUP3 ADD MSTORE ADD MSTORE JUMP JUMPDEST DUP2 DUP4 MSTORE SWAP1 SWAP2 PUSH1 0x1 PUSH1 0x1 PUSH1 0xFB SHL SUB DUP4 GT PUSH2 0x448 JUMPI PUSH1 0x20 SWAP3 PUSH1 0x5 SHL DUP1 SWAP3 DUP5 DUP4 ADD CALLDATACOPY ADD ADD SWAP1 JUMP JUMPDEST SWAP1 PUSH1 0x40 MLOAD PUSH2 0x4C22 DUP2 PUSH2 0x4470 JUMP JUMPDEST DUP1 SWAP3 PUSH1 0x1 DUP2 SLOAD SWAP2 PUSH1 0x1 PUSH1 0x1 PUSH1 0x60 SHL SUB DUP1 DUP5 AND DUP6 MSTORE DUP4 PUSH1 0x60 SHR AND PUSH1 0x20 DUP6 ADD MSTORE PUSH6 0xFFFFFFFFFFFF DUP1 SWAP4 PUSH1 0xC0 SHR AND PUSH1 0x40 DUP6 ADD MSTORE ADD SLOAD SWAP1 DUP2 AND PUSH1 0x60 DUP4 ADD MSTORE PUSH1 0xFF DUP2 PUSH1 0x30 SHR AND PUSH1 0x2 DUP2 LT ISZERO PUSH2 0x6F3 JUMPI PUSH1 0xA0 SWAP2 PUSH1 0xFF SWAP2 PUSH1 0x80 DUP6 ADD MSTORE PUSH1 0x38 SHR AND SWAP2 ADD MSTORE JUMP JUMPDEST PUSH1 0x1 PUSH1 0x1 PUSH1 0xA0 SHL SUB AND PUSH1 0x0 SWAP1 DUP2 MSTORE PUSH1 0x9 PUSH1 0x20 MSTORE PUSH1 0x40 DUP2 KECCAK256 DUP1 SLOAD DUP3 SWAP2 DUP3 JUMPDEST DUP3 DUP2 LT PUSH2 0x4CD7 JUMPI POP POP POP PUSH2 0x7D0 SWAP1 DUP2 DUP2 MUL SWAP2 DUP2 DUP4 DIV EQ SWAP1 ISZERO OR ISZERO PUSH2 0x6CE JUMPI PUSH8 0xDE0B6B3A7640000 PUSH3 0xF4240 PUSH2 0x4CD4 SWAP4 DIV SWAP2 DIV PUSH2 0x4ABB JUMP JUMPDEST SWAP1 JUMP JUMPDEST PUSH2 0x4CE4 PUSH2 0x3038 DUP3 DUP5 PUSH2 0x45F7 JUMP JUMPDEST PUSH1 0x1 PUSH1 0xA0 DUP3 ADD MLOAD AND ISZERO PUSH2 0x4D01 JUMPI JUMPDEST POP PUSH2 0x4CFC SWAP1 PUSH2 0x4A7B JUMP JUMPDEST PUSH2 0x4C9D JUMP JUMPDEST PUSH1 0x80 DUP2 SWAP6 SWAP3 SWAP6 ADD MLOAD PUSH1 0x2 DUP2 LT ISZERO PUSH2 0x6F3 JUMPI PUSH2 0x4D36 JUMPI PUSH2 0x4CFC SWAP2 PUSH1 0x1 PUSH1 0x1 PUSH1 0x60 SHL SUB PUSH2 0x4D2E SWAP3 MLOAD AND SWAP1 PUSH2 0x4ABB JUMP JUMPDEST SWAP4 JUMPDEST SWAP1 PUSH2 0x4CF2 JUMP JUMPDEST PUSH2 0x4CFC SWAP2 SWAP5 SWAP6 PUSH1 0x1 PUSH1 0x1 PUSH1 0x60 SHL SUB PUSH2 0x4D50 SWAP3 MLOAD AND SWAP1 PUSH2 0x4ABB JUMP JUMPDEST SWAP5 PUSH2 0x4D30 JUMP JUMPDEST PUSH1 0x1 PUSH1 0x1 PUSH1 0x40 SHL SUB DUP2 GT PUSH2 0x71F JUMPI PUSH1 0x5 SHL PUSH1 0x20 ADD SWAP1 JUMP JUMPDEST DUP1 MLOAD DUP3 LT ISZERO PUSH2 0x4613 JUMPI PUSH1 0x20 SWAP2 PUSH1 0x5 SHL ADD ADD SWAP1 JUMP INVALID BASEFEE SWAP2 PUSH11 0xC7F9777648255AB8645729 SELFDESTRUCT EXTCODESIZE 0x5D KECCAK256 0xAA COINBASE 0x2A BLOCKHASH INVALID DUP2 0xDA 0xC2 NUMBER CALLDATALOAD 0x22 0xEA LOG0 PC 0xCB SUB 0x4B CALLDATACOPY 0xEF CALLDATACOPY PUSH5 0x745C35BAFE 0xCD MSTORE MSTORE8 PUSH8 0xBCF312E9010239E6 0xAE 0xEB 0xBE PUSH12 0xCF57727FA264697066735822 SLT KECCAK256 GAS LT SWAP12 0x28 0x22 CODECOPY LT 0xB8 0xB1 PUSH23 0x3DAE120903CDDE901F317CEE3AD989C84FBEB0FFB84664 PUSH20 0x6F6C634300081400332F8788117E7EFF1D82E926 0xEC PUSH26 0x4901D17C78024A50270940304540A733656F0D00000000000000 "},"methodIdentifiers":{"ADMIN_ROLE()":"75b238fc","DEFAULT_ADMIN_ROLE()":"a217fddf","MANAGER_ROLE()":"ec87621c","PAUSER_ROLE()":"e63ab1e9","PROPOSAL_CREATOR_ROLE()":"15b3958e","PROPOSAL_THRESHOLD()":"a6c26603","UNLOCKER_ROLE()":"e043b2b2","UTILITY_INJECTOR_ROLE()":"0c016ad5","UTILITY_WITHDRAWER_ROLE()":"885f5029","VP_ETH_MULTIPLIER()":"7bd05cf5","assignUtilityETH(address,uint256)":"6ec23995","assignUtilityETHBatch(address[],uint256[])":"b758aeaa","assignUtilityUSDC(address,uint256)":"762e1c73","assignUtilityUSDCBatch(address[],uint256[])":"41debf1f","batchWithdraw(uint256[])":"72e55399","claimUtilityETH()":"e399067f","claimUtilityUSDC()":"6c6ff56c","closeProposal(uint256)":"0386a016","createProposal(string,string,uint256)":"0ce0ebf4","depositETH()":"f6326fb3","depositUSDC(uint256)":"f688bcfb","earlyWithdrawalPenaltyBps()":"a6317f2a","enableGlobalLiquidation()":"da8d5add","getAllProposals()":"cceb68f5","getRoleAdmin(bytes32)":"248a9ca3","getUserDeposits(address)":"2a5bf6d2","getUserStats(address)":"4e43603a","getVaultStats()":"a59aa5a6","getVotingPower(address)":"bb4d4436","globalLiquidationEnabled()":"246d47b7","globalLiquidationTimestamp()":"588583a0","grantRole(bytes32,address)":"2f2ff15d","hasRole(bytes32,address)":"91d14854","hasVoted(uint256,address)":"43859632","hasWithdrawn(address)":"5e2c19db","injectUtilityETH()":"64021b13","injectUtilityUSDC(uint256)":"d830d5cc","isKnownDepositor(address)":"65d5ec96","isTrustedForwarder(address)":"572b6c05","isWhitelisted(address)":"3af32abf","lockupPeriod()":"ee947a7c","maxCapETH()":"9ddc3912","maxCapUSDC()":"1c5aeef7","minDepositETH()":"2b9c4ede","minDepositUSDC()":"7c48373b","pausedDeposits()":"6068d6cb","pausedWithdrawals()":"b2b77ae2","proposalCount()":"da35c664","proposals(uint256)":"013cf08b","reinvestUtilityETH()":"275991d2","reinvestUtilityUSDC()":"bda821e8","renounceRole(bytes32,address)":"36568abe","rescueERC20(address,address,uint256)":"b2118a8d","returnInvestmentETH()":"17b51642","returnInvestmentUSDC(uint256)":"5983b0bd","revokeRole(bytes32,address)":"d547741f","setDepositsAsRedeemable(address,uint256[])":"f5f11350","setEarlyWithdrawalPenalty(uint256)":"8a2e98f3","setLockupPeriod(uint256)":"c771c390","setMaxCap(uint8,uint256)":"f5f69af2","setMinDeposit(uint8,uint256)":"e0912d2a","setPaused(bool,bool)":"6426be48","setUtilityAddress(address)":"89bad0a6","setWhitelist(address,bool)":"53d6fd59","setWhitelistBatch(address[],bool[])":"47af19aa","setWhitelistEnabled(bool)":"052d9e7e","supportsInterface(bytes4)":"01ffc9a7","totalDepositedETH()":"899aa991","totalDepositedUSDC()":"27175b23","totalInvestedETH()":"fd46a171","totalInvestedUSDC()":"2aad5edd","totalReinvestedETH()":"97d9e5b4","totalReinvestedUSDC()":"e15e23c1","totalUtilityETH()":"b65ba94b","totalUtilityUSDC()":"3ac43970","totalWithdrawnETH()":"8b713b2e","totalWithdrawnUSDC()":"e340b783","trustedForwarder()":"7da0a877","unlockDepositsForUser(address,uint256[])":"867d099a","usdc()":"3e413bee","userClaimableUtilityETH(address)":"3408567c","userClaimableUtilityUSDC(address)":"e9fe0c78","userDeposits(address,uint256)":"08f43333","userTotalReinvestedETH(address)":"886d589d","userTotalReinvestedUSDC(address)":"04c68af0","utilityAddress()":"f29b2239","vote(uint256,bool)":"c9d27afe","whitelistEnabled()":"51fb012d","withdraw(uint256)":"2e1a7d4d","withdrawForInvestmentETH(address,uint256)":"c6d95b74","withdrawForInvestmentUSDC(address,uint256)":"8dd4928e","withdrawUtilityETH(uint256)":"93055c43","withdrawUtilityUSDC(uint256)":"76c1d3db","withdrawnUsers(uint256)":"9e657e33"}}}}}