{"contracts/PoolFamilyAndFriends.sol":{"PoolFamilyAndFriends":{"abi":[{"inputs":[{"internalType":"address[]","name":"initialAdmins","type":"address[]"},{"internalType":"address","name":"_utilityAddress","type":"address"}],"stateMutability":"nonpayable","type":"constructor"},{"inputs":[],"name":"AccessControlBadConfirmation","type":"error"},{"inputs":[{"internalType":"address","name":"account","type":"address"},{"internalType":"bytes32","name":"neededRole","type":"bytes32"}],"name":"AccessControlUnauthorizedAccount","type":"error"},{"inputs":[],"name":"ReentrancyGuardReentrantCall","type":"error"},{"anonymous":false,"inputs":[{"indexed":true,"internalType":"address","name":"user","type":"address"},{"indexed":false,"internalType":"enum PoolFamilyAndFriends.TokenType","name":"token","type":"uint8"},{"indexed":false,"internalType":"uint256[]","name":"indices","type":"uint256[]"},{"indexed":false,"internalType":"uint256","name":"totalPrincipal","type":"uint256"},{"indexed":false,"internalType":"uint256","name":"totalYield","type":"uint256"},{"indexed":false,"internalType":"uint256","name":"when","type":"uint256"}],"name":"BatchWithdraw","type":"event"},{"anonymous":false,"inputs":[{"indexed":true,"internalType":"address","name":"user","type":"address"},{"indexed":false,"internalType":"enum PoolFamilyAndFriends.TokenType","name":"token","type":"uint8"},{"indexed":false,"internalType":"uint256","name":"amount","type":"uint256"},{"indexed":false,"internalType":"uint256","name":"when","type":"uint256"}],"name":"ClaimUtility","type":"event"},{"anonymous":false,"inputs":[{"indexed":true,"internalType":"address","name":"user","type":"address"},{"indexed":false,"internalType":"enum PoolFamilyAndFriends.TokenType","name":"token","type":"uint8"},{"indexed":false,"internalType":"uint256","name":"amount","type":"uint256"},{"indexed":false,"internalType":"uint256","name":"when","type":"uint256"},{"indexed":false,"internalType":"uint256","name":"depositIndex","type":"uint256"},{"indexed":false,"internalType":"bool","name":"reinvestment","type":"bool"}],"name":"Deposit","type":"event"},{"anonymous":false,"inputs":[{"indexed":true,"internalType":"address","name":"user","type":"address"},{"indexed":false,"internalType":"uint256[]","name":"indices","type":"uint256[]"}],"name":"DepositsUnlocked","type":"event"},{"anonymous":false,"inputs":[{"indexed":true,"internalType":"address","name":"token","type":"address"},{"indexed":true,"internalType":"address","name":"to","type":"address"},{"indexed":false,"internalType":"uint256","name":"amount","type":"uint256"}],"name":"ERC20Rescued","type":"event"},{"anonymous":false,"inputs":[{"indexed":false,"internalType":"uint256","name":"when","type":"uint256"}],"name":"GlobalLiquidationEnabled","type":"event"},{"anonymous":false,"inputs":[{"indexed":false,"internalType":"uint256","name":"newPeriod","type":"uint256"}],"name":"LockupPeriodChanged","type":"event"},{"anonymous":false,"inputs":[{"indexed":false,"internalType":"enum PoolFamilyAndFriends.TokenType","name":"token","type":"uint8"},{"indexed":false,"internalType":"uint256","name":"newCap","type":"uint256"}],"name":"MaxCapChanged","type":"event"},{"anonymous":false,"inputs":[{"indexed":false,"internalType":"bool","name":"depositsPaused","type":"bool"},{"indexed":false,"internalType":"bool","name":"withdrawalsPaused","type":"bool"}],"name":"PauseChanged","type":"event"},{"anonymous":false,"inputs":[{"indexed":true,"internalType":"address","name":"user","type":"address"},{"indexed":false,"internalType":"enum PoolFamilyAndFriends.TokenType","name":"token","type":"uint8"},{"indexed":false,"internalType":"uint256","name":"amount","type":"uint256"},{"indexed":false,"internalType":"uint256","name":"when","type":"uint256"}],"name":"Reinvest","type":"event"},{"anonymous":false,"inputs":[{"indexed":true,"internalType":"bytes32","name":"role","type":"bytes32"},{"indexed":true,"internalType":"bytes32","name":"previousAdminRole","type":"bytes32"},{"indexed":true,"internalType":"bytes32","name":"newAdminRole","type":"bytes32"}],"name":"RoleAdminChanged","type":"event"},{"anonymous":false,"inputs":[{"indexed":true,"internalType":"bytes32","name":"role","type":"bytes32"},{"indexed":true,"internalType":"address","name":"account","type":"address"},{"indexed":true,"internalType":"address","name":"sender","type":"address"}],"name":"RoleGranted","type":"event"},{"anonymous":false,"inputs":[{"indexed":true,"internalType":"bytes32","name":"role","type":"bytes32"},{"indexed":true,"internalType":"address","name":"account","type":"address"},{"indexed":true,"internalType":"address","name":"sender","type":"address"}],"name":"RoleRevoked","type":"event"},{"anonymous":false,"inputs":[{"indexed":true,"internalType":"address","name":"user","type":"address"},{"indexed":false,"internalType":"bool","name":"status","type":"bool"}],"name":"UserWhitelisted","type":"event"},{"anonymous":false,"inputs":[{"indexed":false,"internalType":"address","name":"newUtilityAddress","type":"address"}],"name":"UtilityAddressChanged","type":"event"},{"anonymous":false,"inputs":[{"indexed":true,"internalType":"address","name":"admin","type":"address"},{"indexed":false,"internalType":"enum PoolFamilyAndFriends.TokenType","name":"token","type":"uint8"},{"indexed":false,"internalType":"uint256","name":"amount","type":"uint256"},{"indexed":false,"internalType":"uint256","name":"when","type":"uint256"}],"name":"UtilityInjected","type":"event"},{"anonymous":false,"inputs":[{"indexed":true,"internalType":"address","name":"to","type":"address"},{"indexed":false,"internalType":"enum PoolFamilyAndFriends.TokenType","name":"token","type":"uint8"},{"indexed":false,"internalType":"uint256","name":"amount","type":"uint256"},{"indexed":false,"internalType":"uint256","name":"when","type":"uint256"}],"name":"UtilityWithdrawn","type":"event"},{"anonymous":false,"inputs":[{"indexed":true,"internalType":"address","name":"user","type":"address"},{"indexed":false,"internalType":"enum PoolFamilyAndFriends.TokenType","name":"token","type":"uint8"},{"indexed":false,"internalType":"uint256","name":"principal","type":"uint256"},{"indexed":false,"internalType":"uint256","name":"yield","type":"uint256"},{"indexed":false,"internalType":"uint256","name":"when","type":"uint256"},{"indexed":false,"internalType":"uint256","name":"depositIndex","type":"uint256"}],"name":"Withdraw","type":"event"},{"inputs":[],"name":"ADMIN_ROLE","outputs":[{"internalType":"bytes32","name":"","type":"bytes32"}],"stateMutability":"view","type":"function"},{"inputs":[],"name":"DEFAULT_ADMIN_ROLE","outputs":[{"internalType":"bytes32","name":"","type":"bytes32"}],"stateMutability":"view","type":"function"},{"inputs":[],"name":"PAUSER_ROLE","outputs":[{"internalType":"bytes32","name":"","type":"bytes32"}],"stateMutability":"view","type":"function"},{"inputs":[],"name":"UNLOCKER_ROLE","outputs":[{"internalType":"bytes32","name":"","type":"bytes32"}],"stateMutability":"view","type":"function"},{"inputs":[],"name":"USDC","outputs":[{"internalType":"address","name":"","type":"address"}],"stateMutability":"view","type":"function"},{"inputs":[],"name":"UTILITY_INJECTOR_ROLE","outputs":[{"internalType":"bytes32","name":"","type":"bytes32"}],"stateMutability":"view","type":"function"},{"inputs":[],"name":"UTILITY_WITHDRAWER_ROLE","outputs":[{"internalType":"bytes32","name":"","type":"bytes32"}],"stateMutability":"view","type":"function"},{"inputs":[{"internalType":"uint256","name":"","type":"uint256"}],"name":"allDepositors","outputs":[{"internalType":"address","name":"","type":"address"}],"stateMutability":"view","type":"function"},{"inputs":[{"internalType":"uint256","name":"","type":"uint256"}],"name":"allUsers","outputs":[{"internalType":"address","name":"","type":"address"}],"stateMutability":"view","type":"function"},{"inputs":[{"internalType":"address","name":"user","type":"address"},{"internalType":"uint256","name":"amount","type":"uint256"}],"name":"assignUtilityETH","outputs":[],"stateMutability":"nonpayable","type":"function"},{"inputs":[{"internalType":"address[]","name":"users","type":"address[]"},{"internalType":"uint256[]","name":"amounts","type":"uint256[]"}],"name":"assignUtilityETHBatch","outputs":[],"stateMutability":"nonpayable","type":"function"},{"inputs":[{"internalType":"address","name":"user","type":"address"},{"internalType":"uint256","name":"amount","type":"uint256"}],"name":"assignUtilityUSDC","outputs":[],"stateMutability":"nonpayable","type":"function"},{"inputs":[{"internalType":"address[]","name":"users","type":"address[]"},{"internalType":"uint256[]","name":"amounts","type":"uint256[]"}],"name":"assignUtilityUSDCBatch","outputs":[],"stateMutability":"nonpayable","type":"function"},{"inputs":[{"internalType":"uint256[]","name":"depositIndices","type":"uint256[]"}],"name":"batchWithdraw","outputs":[],"stateMutability":"nonpayable","type":"function"},{"inputs":[],"name":"claimUtilityETH","outputs":[],"stateMutability":"nonpayable","type":"function"},{"inputs":[],"name":"claimUtilityUSDC","outputs":[],"stateMutability":"nonpayable","type":"function"},{"inputs":[],"name":"depositETH","outputs":[],"stateMutability":"payable","type":"function"},{"inputs":[{"internalType":"uint256","name":"amount","type":"uint256"}],"name":"depositUSDC","outputs":[],"stateMutability":"nonpayable","type":"function"},{"inputs":[],"name":"enableGlobalLiquidation","outputs":[],"stateMutability":"nonpayable","type":"function"},{"inputs":[{"internalType":"bytes32","name":"role","type":"bytes32"}],"name":"getRoleAdmin","outputs":[{"internalType":"bytes32","name":"","type":"bytes32"}],"stateMutability":"view","type":"function"},{"inputs":[{"internalType":"address","name":"user","type":"address"}],"name":"getUserDeposits","outputs":[{"components":[{"internalType":"enum PoolFamilyAndFriends.TokenType","name":"token","type":"uint8"},{"internalType":"uint256","name":"amount","type":"uint256"},{"internalType":"uint256","name":"timestamp","type":"uint256"},{"internalType":"bool","name":"withdrawn","type":"bool"},{"internalType":"bool","name":"unlockedByAdmin","type":"bool"},{"internalType":"bool","name":"fullyRedeemable","type":"bool"},{"internalType":"bool","name":"isReinvestment","type":"bool"},{"internalType":"uint256","name":"withdrawnAt","type":"uint256"},{"internalType":"uint256","name":"yieldReceived","type":"uint256"}],"internalType":"struct PoolFamilyAndFriends.DepositInfo[]","name":"","type":"tuple[]"}],"stateMutability":"view","type":"function"},{"inputs":[{"internalType":"address","name":"user","type":"address"}],"name":"getUserStats","outputs":[{"internalType":"uint256","name":"depositedETH","type":"uint256"},{"internalType":"uint256","name":"depositedUSDC","type":"uint256"},{"internalType":"uint256","name":"withdrawnETH","type":"uint256"},{"internalType":"uint256","name":"withdrawnUSDC","type":"uint256"},{"internalType":"uint256","name":"claimableUtilityETH","type":"uint256"},{"internalType":"uint256","name":"claimableUtilityUSDC","type":"uint256"},{"internalType":"uint256","name":"reinvestedETH","type":"uint256"},{"internalType":"uint256","name":"reinvestedUSDC","type":"uint256"}],"stateMutability":"view","type":"function"},{"inputs":[],"name":"getVaultStats","outputs":[{"internalType":"uint256","name":"ethInVault","type":"uint256"},{"internalType":"uint256","name":"usdcInVault","type":"uint256"},{"internalType":"uint256","name":"totalDepositedETH_","type":"uint256"},{"internalType":"uint256","name":"totalDepositedUSDC_","type":"uint256"},{"internalType":"uint256","name":"totalWithdrawnETH_","type":"uint256"},{"internalType":"uint256","name":"totalWithdrawnUSDC_","type":"uint256"},{"internalType":"uint256","name":"totalUtilityETH_","type":"uint256"},{"internalType":"uint256","name":"totalUtilityUSDC_","type":"uint256"},{"internalType":"uint256","name":"totalReinvestedETH_","type":"uint256"},{"internalType":"uint256","name":"totalReinvestedUSDC_","type":"uint256"},{"internalType":"uint256","name":"numUsers","type":"uint256"},{"internalType":"uint256","name":"numWithdrawnUsers","type":"uint256"}],"stateMutability":"view","type":"function"},{"inputs":[],"name":"globalLiquidationEnabled","outputs":[{"internalType":"bool","name":"","type":"bool"}],"stateMutability":"view","type":"function"},{"inputs":[],"name":"globalLiquidationTimestamp","outputs":[{"internalType":"uint256","name":"","type":"uint256"}],"stateMutability":"view","type":"function"},{"inputs":[{"internalType":"bytes32","name":"role","type":"bytes32"},{"internalType":"address","name":"account","type":"address"}],"name":"grantRole","outputs":[],"stateMutability":"nonpayable","type":"function"},{"inputs":[{"internalType":"bytes32","name":"role","type":"bytes32"},{"internalType":"address","name":"account","type":"address"}],"name":"hasRole","outputs":[{"internalType":"bool","name":"","type":"bool"}],"stateMutability":"view","type":"function"},{"inputs":[{"internalType":"address","name":"","type":"address"}],"name":"hasWithdrawn","outputs":[{"internalType":"bool","name":"","type":"bool"}],"stateMutability":"view","type":"function"},{"inputs":[],"name":"injectUtilityETH","outputs":[],"stateMutability":"payable","type":"function"},{"inputs":[{"internalType":"uint256","name":"amount","type":"uint256"}],"name":"injectUtilityUSDC","outputs":[],"stateMutability":"nonpayable","type":"function"},{"inputs":[{"internalType":"address","name":"","type":"address"}],"name":"isWhitelisted","outputs":[{"internalType":"bool","name":"","type":"bool"}],"stateMutability":"view","type":"function"},{"inputs":[],"name":"lockupPeriod","outputs":[{"internalType":"uint256","name":"","type":"uint256"}],"stateMutability":"view","type":"function"},{"inputs":[],"name":"maxCapETH","outputs":[{"internalType":"uint256","name":"","type":"uint256"}],"stateMutability":"view","type":"function"},{"inputs":[],"name":"maxCapUSDC","outputs":[{"internalType":"uint256","name":"","type":"uint256"}],"stateMutability":"view","type":"function"},{"inputs":[],"name":"pausedDeposits","outputs":[{"internalType":"bool","name":"","type":"bool"}],"stateMutability":"view","type":"function"},{"inputs":[],"name":"pausedWithdrawals","outputs":[{"internalType":"bool","name":"","type":"bool"}],"stateMutability":"view","type":"function"},{"inputs":[],"name":"reinvestUtilityETH","outputs":[],"stateMutability":"nonpayable","type":"function"},{"inputs":[],"name":"reinvestUtilityUSDC","outputs":[],"stateMutability":"nonpayable","type":"function"},{"inputs":[{"internalType":"bytes32","name":"role","type":"bytes32"},{"internalType":"address","name":"callerConfirmation","type":"address"}],"name":"renounceRole","outputs":[],"stateMutability":"nonpayable","type":"function"},{"inputs":[{"internalType":"address","name":"token","type":"address"},{"internalType":"address","name":"to","type":"address"},{"internalType":"uint256","name":"amount","type":"uint256"}],"name":"rescueERC20","outputs":[],"stateMutability":"nonpayable","type":"function"},{"inputs":[{"internalType":"bytes32","name":"role","type":"bytes32"},{"internalType":"address","name":"account","type":"address"}],"name":"revokeRole","outputs":[],"stateMutability":"nonpayable","type":"function"},{"inputs":[{"internalType":"uint256","name":"newPeriod","type":"uint256"}],"name":"setLockupPeriod","outputs":[],"stateMutability":"nonpayable","type":"function"},{"inputs":[{"internalType":"enum PoolFamilyAndFriends.TokenType","name":"token","type":"uint8"},{"internalType":"uint256","name":"newCap","type":"uint256"}],"name":"setMaxCap","outputs":[],"stateMutability":"nonpayable","type":"function"},{"inputs":[{"internalType":"bool","name":"_deposits","type":"bool"},{"internalType":"bool","name":"_withdrawals","type":"bool"}],"name":"setPaused","outputs":[],"stateMutability":"nonpayable","type":"function"},{"inputs":[{"internalType":"address","name":"newUtilityAddress","type":"address"}],"name":"setUtilityAddress","outputs":[],"stateMutability":"nonpayable","type":"function"},{"inputs":[{"internalType":"address","name":"user","type":"address"},{"internalType":"bool","name":"status","type":"bool"}],"name":"setWhitelist","outputs":[],"stateMutability":"nonpayable","type":"function"},{"inputs":[{"internalType":"address[]","name":"users","type":"address[]"},{"internalType":"bool[]","name":"statuses","type":"bool[]"}],"name":"setWhitelistBatch","outputs":[],"stateMutability":"nonpayable","type":"function"},{"inputs":[{"internalType":"bool","name":"enabled","type":"bool"}],"name":"setWhitelistEnabled","outputs":[],"stateMutability":"nonpayable","type":"function"},{"inputs":[{"internalType":"bytes4","name":"interfaceId","type":"bytes4"}],"name":"supportsInterface","outputs":[{"internalType":"bool","name":"","type":"bool"}],"stateMutability":"view","type":"function"},{"inputs":[],"name":"totalDepositedETH","outputs":[{"internalType":"uint256","name":"","type":"uint256"}],"stateMutability":"view","type":"function"},{"inputs":[],"name":"totalDepositedUSDC","outputs":[{"internalType":"uint256","name":"","type":"uint256"}],"stateMutability":"view","type":"function"},{"inputs":[],"name":"totalReinvestedETH","outputs":[{"internalType":"uint256","name":"","type":"uint256"}],"stateMutability":"view","type":"function"},{"inputs":[],"name":"totalReinvestedUSDC","outputs":[{"internalType":"uint256","name":"","type":"uint256"}],"stateMutability":"view","type":"function"},{"inputs":[],"name":"totalUtilityETH","outputs":[{"internalType":"uint256","name":"","type":"uint256"}],"stateMutability":"view","type":"function"},{"inputs":[],"name":"totalUtilityUSDC","outputs":[{"internalType":"uint256","name":"","type":"uint256"}],"stateMutability":"view","type":"function"},{"inputs":[],"name":"totalWithdrawnETH","outputs":[{"internalType":"uint256","name":"","type":"uint256"}],"stateMutability":"view","type":"function"},{"inputs":[],"name":"totalWithdrawnUSDC","outputs":[{"internalType":"uint256","name":"","type":"uint256"}],"stateMutability":"view","type":"function"},{"inputs":[{"internalType":"address","name":"user","type":"address"},{"internalType":"uint256[]","name":"depositIndices","type":"uint256[]"}],"name":"unlockDepositsForUser","outputs":[],"stateMutability":"nonpayable","type":"function"},{"inputs":[{"internalType":"address","name":"","type":"address"}],"name":"userClaimableUtilityETH","outputs":[{"internalType":"uint256","name":"","type":"uint256"}],"stateMutability":"view","type":"function"},{"inputs":[{"internalType":"address","name":"","type":"address"}],"name":"userClaimableUtilityUSDC","outputs":[{"internalType":"uint256","name":"","type":"uint256"}],"stateMutability":"view","type":"function"},{"inputs":[{"internalType":"address","name":"","type":"address"},{"internalType":"uint256","name":"","type":"uint256"}],"name":"userDeposits","outputs":[{"internalType":"enum PoolFamilyAndFriends.TokenType","name":"token","type":"uint8"},{"internalType":"uint256","name":"amount","type":"uint256"},{"internalType":"uint256","name":"timestamp","type":"uint256"},{"internalType":"bool","name":"withdrawn","type":"bool"},{"internalType":"bool","name":"unlockedByAdmin","type":"bool"},{"internalType":"bool","name":"fullyRedeemable","type":"bool"},{"internalType":"bool","name":"isReinvestment","type":"bool"},{"internalType":"uint256","name":"withdrawnAt","type":"uint256"},{"internalType":"uint256","name":"yieldReceived","type":"uint256"}],"stateMutability":"view","type":"function"},{"inputs":[{"internalType":"address","name":"","type":"address"}],"name":"userTotalReinvestedETH","outputs":[{"internalType":"uint256","name":"","type":"uint256"}],"stateMutability":"view","type":"function"},{"inputs":[{"internalType":"address","name":"","type":"address"}],"name":"userTotalReinvestedUSDC","outputs":[{"internalType":"uint256","name":"","type":"uint256"}],"stateMutability":"view","type":"function"},{"inputs":[],"name":"utilityAddress","outputs":[{"internalType":"address","name":"","type":"address"}],"stateMutability":"view","type":"function"},{"inputs":[],"name":"whitelistEnabled","outputs":[{"internalType":"bool","name":"","type":"bool"}],"stateMutability":"view","type":"function"},{"inputs":[{"internalType":"uint256","name":"depositIndex","type":"uint256"}],"name":"withdraw","outputs":[],"stateMutability":"nonpayable","type":"function"},{"inputs":[{"internalType":"uint256","name":"amount","type":"uint256"}],"name":"withdrawUtilityETH","outputs":[],"stateMutability":"nonpayable","type":"function"},{"inputs":[{"internalType":"uint256","name":"amount","type":"uint256"}],"name":"withdrawUtilityUSDC","outputs":[],"stateMutability":"nonpayable","type":"function"},{"inputs":[{"internalType":"uint256","name":"","type":"uint256"}],"name":"withdrawnUsers","outputs":[{"internalType":"address","name":"","type":"address"}],"stateMutability":"view","type":"function"},{"stateMutability":"payable","type":"receive"}],"evm":{"bytecode":{"linkReferences":{},"object":"608060405262ed4e006002556a0422ca8b0a00a42500000060035565048c2739500060045534801561003057600080fd5b50604051616f13380380616f138339818101604052810190610052919061059a565b6001808190555060005b8251811015610217576100926000801b84838151811061007f5761007e6105f6565b5b602002602001015161026060201b60201c565b506100dd7fa49807205ce4d355092ef5a8a18f56e8913cf4a201fbe287825b095693c217758483815181106100ca576100c96105f6565b5b602002602001015161026060201b60201c565b506101287f65d7a28e3265b37a6474929f336521b332c1681b933f6cb9f3376673440d862a848381518110610115576101146105f6565b5b602002602001015161026060201b60201c565b506101737fc806897caf4fd5068191157e44d3988e43139a37e0b97b6793e1ed11841406048483815181106101605761015f6105f6565b5b602002602001015161026060201b60201c565b506101be7ff60566c40710959d8d30b6067ce3c53c757bec78eecb0e46b83c7f8194ffae378483815181106101ab576101aa6105f6565b5b602002602001015161026060201b60201c565b506102097f78c90eb9e475048b483a290aee04b5fe48355537c3623c7637b17d3bed71c6ed8483815181106101f6576101f56105f6565b5b602002602001015161026060201b60201c565b50808060010191505061005c565b5080600760006101000a81548173ffffffffffffffffffffffffffffffffffffffff021916908373ffffffffffffffffffffffffffffffffffffffff1602179055505050610625565b6000610272838361035d60201b60201c565b61035257600160008085815260200190815260200160002060000160008473ffffffffffffffffffffffffffffffffffffffff1673ffffffffffffffffffffffffffffffffffffffff16815260200190815260200160002060006101000a81548160ff0219169083151502179055506102ef6103c760201b60201c565b73ffffffffffffffffffffffffffffffffffffffff168273ffffffffffffffffffffffffffffffffffffffff16847f2f8788117e7eff1d82e926ec794901d17c78024a50270940304540a733656f0d60405160405180910390a460019050610357565b600090505b92915050565b600080600084815260200190815260200160002060000160008373ffffffffffffffffffffffffffffffffffffffff1673ffffffffffffffffffffffffffffffffffffffff16815260200190815260200160002060009054906101000a900460ff16905092915050565b600033905090565b6000604051905090565b600080fd5b600080fd5b600080fd5b6000601f19601f8301169050919050565b7f4e487b7100000000000000000000000000000000000000000000000000000000600052604160045260246000fd5b610431826103e8565b810181811067ffffffffffffffff821117156104505761044f6103f9565b5b80604052505050565b60006104636103cf565b905061046f8282610428565b919050565b600067ffffffffffffffff82111561048f5761048e6103f9565b5b602082029050602081019050919050565b600080fd5b600073ffffffffffffffffffffffffffffffffffffffff82169050919050565b60006104d0826104a5565b9050919050565b6104e0816104c5565b81146104eb57600080fd5b50565b6000815190506104fd816104d7565b92915050565b600061051661051184610474565b610459565b90508083825260208201905060208402830185811115610539576105386104a0565b5b835b81811015610562578061054e88826104ee565b84526020840193505060208101905061053b565b5050509392505050565b600082601f830112610581576105806103e3565b5b8151610591848260208601610503565b91505092915050565b600080604083850312156105b1576105b06103d9565b5b600083015167ffffffffffffffff8111156105cf576105ce6103de565b5b6105db8582860161056c565b92505060206105ec858286016104ee565b9150509250929050565b7f4e487b7100000000000000000000000000000000000000000000000000000000600052603260045260246000fd5b6168df806106346000396000f3fe6080604052600436106103fe5760003560e01c8063885f502911610213578063b758aeaa11610123578063e340b783116100ab578063ee947a7c1161007a578063ee947a7c14610f45578063f29b223914610f70578063f5f69af214610f9b578063f6326fb314610fc4578063f688bcfb14610fce57610405565b8063e340b78314610e9b578063e399067f14610ec6578063e63ab1e914610edd578063e9fe0c7814610f0857610405565b8063d830d5cc116100f2578063d830d5cc14610dc8578063da8d5add14610df1578063e02f6aca14610e08578063e043b2b214610e45578063e15e23c114610e7057610405565b8063b758aeaa14610d36578063bda821e814610d5f578063c771c39014610d76578063d547741f14610d9f57610405565b806397d9e5b4116101a6578063a2bdedf411610175578063a2bdedf414610c44578063a59aa5a614610c81578063b2118a8d14610cb7578063b2b77ae214610ce0578063b65ba94b14610d0b57610405565b806397d9e5b414610b865780639ddc391214610bb15780639e657e3314610bdc578063a217fddf14610c1957610405565b806389bad0a6116101e257806389bad0a614610acc5780638b713b2e14610af557806391d1485414610b2057806393055c4314610b5d57610405565b8063885f502914610a0e578063886d589d14610a39578063899aa99114610a7657806389a3027114610aa157610405565b806341debf1f1161030e57806364021b13116102a157806372e553991161027057806372e553991461093f57806375b238fc14610968578063762e1c731461099357806376c1d3db146109bc578063867d099a146109e557610405565b806364021b13146108cc5780636426be48146108d65780636c6ff56c146108ff5780636ec239951461091657610405565b806353d6fd59116102dd57806353d6fd5914610810578063588583a0146108395780635e2c19db146108645780636068d6cb146108a157610405565b806341debf1f1461074f57806347af19aa146107785780634e43603a146107a157806351fb012d146107e557610405565b806327175b23116103915780632f2ff15d116103605780632f2ff15d146106585780633408567c1461068157806336568abe146106be5780633ac43970146106e75780633af32abf1461071257610405565b806327175b23146105b0578063275991d2146105db5780632a5bf6d2146105f25780632e1a7d4d1461062f57610405565b80630c016ad5116103cd5780630c016ad5146104f25780631c5aeef71461051d578063246d47b714610548578063248a9ca31461057357610405565b806301ffc9a71461040a57806304c68af014610447578063052d9e7e1461048457806308f43333146104ad57610405565b3661040557005b600080fd5b34801561041657600080fd5b50610431600480360381019061042c91906151c8565b610ff7565b60405161043e9190615210565b60405180910390f35b34801561045357600080fd5b5061046e60048036038101906104699190615289565b611071565b60405161047b91906152cf565b60405180910390f35b34801561049057600080fd5b506104ab60048036038101906104a69190615316565b611089565b005b3480156104b957600080fd5b506104d460048036038101906104cf919061536f565b6110d1565b6040516104e999989796959493929190615426565b60405180910390f35b3480156104fe57600080fd5b5061050761117d565b60405161051491906154cc565b60405180910390f35b34801561052957600080fd5b506105326111a1565b60405161053f91906152cf565b60405180910390f35b34801561055457600080fd5b5061055d6111a7565b60405161056a9190615210565b60405180910390f35b34801561057f57600080fd5b5061059a60048036038101906105959190615513565b6111ba565b6040516105a791906154cc565b60405180910390f35b3480156105bc57600080fd5b506105c56111d9565b6040516105d291906152cf565b60405180910390f35b3480156105e757600080fd5b506105f06111df565b005b3480156105fe57600080fd5b5061061960048036038101906106149190615289565b61138e565b60405161062691906156d4565b60405180910390f35b34801561063b57600080fd5b50610656600480360381019061065191906156f6565b6114fc565b005b34801561066457600080fd5b5061067f600480360381019061067a9190615723565b611a73565b005b34801561068d57600080fd5b506106a860048036038101906106a39190615289565b611a95565b6040516106b591906152cf565b60405180910390f35b3480156106ca57600080fd5b506106e560048036038101906106e09190615723565b611aad565b005b3480156106f357600080fd5b506106fc611b28565b60405161070991906152cf565b60405180910390f35b34801561071e57600080fd5b5061073960048036038101906107349190615289565b611b2e565b6040516107469190615210565b60405180910390f35b34801561075b57600080fd5b506107766004803603810190610771919061581e565b611b4e565b005b34801561078457600080fd5b5061079f600480360381019061079a91906158f5565b611d60565b005b3480156107ad57600080fd5b506107c860048036038101906107c39190615289565b611f36565b6040516107dc989796959493929190615976565b60405180910390f35b3480156107f157600080fd5b506107fa6122fe565b6040516108079190615210565b60405180910390f35b34801561081c57600080fd5b50610837600480360381019061083291906159f4565b612311565b005b34801561084557600080fd5b5061084e6123e5565b60405161085b91906152cf565b60405180910390f35b34801561087057600080fd5b5061088b60048036038101906108869190615289565b6123eb565b6040516108989190615210565b60405180910390f35b3480156108ad57600080fd5b506108b661240b565b6040516108c39190615210565b60405180910390f35b6108d461241e565b005b3480156108e257600080fd5b506108fd60048036038101906108f89190615a34565b6124fa565b005b34801561090b57600080fd5b50610914612596565b005b34801561092257600080fd5b5061093d6004803603810190610938919061536f565b61275b565b005b34801561094b57600080fd5b5061096660048036038101906109619190615a74565b612881565b005b34801561097457600080fd5b5061097d612f65565b60405161098a91906154cc565b60405180910390f35b34801561099f57600080fd5b506109ba60048036038101906109b5919061536f565b612f89565b005b3480156109c857600080fd5b506109e360048036038101906109de91906156f6565b6130af565b005b3480156109f157600080fd5b50610a0c6004803603810190610a079190615ac1565b6132a8565b005b348015610a1a57600080fd5b50610a2361344b565b604051610a3091906154cc565b60405180910390f35b348015610a4557600080fd5b50610a606004803603810190610a5b9190615289565b61346f565b604051610a6d91906152cf565b60405180910390f35b348015610a8257600080fd5b50610a8b613487565b604051610a9891906152cf565b60405180910390f35b348015610aad57600080fd5b50610ab661348d565b604051610ac39190615b30565b60405180910390f35b348015610ad857600080fd5b50610af36004803603810190610aee9190615289565b6134a5565b005b348015610b0157600080fd5b50610b0a6135ba565b604051610b1791906152cf565b60405180910390f35b348015610b2c57600080fd5b50610b476004803603810190610b429190615723565b6135c0565b604051610b549190615210565b60405180910390f35b348015610b6957600080fd5b50610b846004803603810190610b7f91906156f6565b61362a565b005b348015610b9257600080fd5b50610b9b613880565b604051610ba891906152cf565b60405180910390f35b348015610bbd57600080fd5b50610bc6613886565b604051610bd391906152cf565b60405180910390f35b348015610be857600080fd5b50610c036004803603810190610bfe91906156f6565b61388c565b604051610c109190615b30565b60405180910390f35b348015610c2557600080fd5b50610c2e6138cb565b604051610c3b91906154cc565b60405180910390f35b348015610c5057600080fd5b50610c6b6004803603810190610c6691906156f6565b6138d2565b604051610c789190615b30565b60405180910390f35b348015610c8d57600080fd5b50610c96613911565b604051610cae9c9b9a99989796959493929190615b4b565b60405180910390f35b348015610cc357600080fd5b50610cde6004803603810190610cd99190615c05565b6139fc565b005b348015610cec57600080fd5b50610cf5613b7f565b604051610d029190615210565b60405180910390f35b348015610d1757600080fd5b50610d20613b92565b604051610d2d91906152cf565b60405180910390f35b348015610d4257600080fd5b50610d5d6004803603810190610d58919061581e565b613b98565b005b348015610d6b57600080fd5b50610d74613daa565b005b348015610d8257600080fd5b50610d9d6004803603810190610d9891906156f6565b613f59565b005b348015610dab57600080fd5b50610dc66004803603810190610dc19190615723565b613fc5565b005b348015610dd457600080fd5b50610def6004803603810190610dea91906156f6565b613fe7565b005b348015610dfd57600080fd5b50610e06614159565b005b348015610e1457600080fd5b50610e2f6004803603810190610e2a91906156f6565b614360565b604051610e3c9190615b30565b60405180910390f35b348015610e5157600080fd5b50610e5a61439f565b604051610e6791906154cc565b60405180910390f35b348015610e7c57600080fd5b50610e856143c3565b604051610e9291906152cf565b60405180910390f35b348015610ea757600080fd5b50610eb06143c9565b604051610ebd91906152cf565b60405180910390f35b348015610ed257600080fd5b50610edb6143cf565b005b348015610ee957600080fd5b50610ef26145ae565b604051610eff91906154cc565b60405180910390f35b348015610f1457600080fd5b50610f2f6004803603810190610f2a9190615289565b6145d2565b604051610f3c91906152cf565b60405180910390f35b348015610f5157600080fd5b50610f5a6145ea565b604051610f6791906152cf565b60405180910390f35b348015610f7c57600080fd5b50610f856145f0565b604051610f929190615b30565b60405180910390f35b348015610fa757600080fd5b50610fc26004803603810190610fbd9190615c7d565b614616565b005b610fcc6146ea565b005b348015610fda57600080fd5b50610ff56004803603810190610ff091906156f6565b6148aa565b005b60007f7965db0b000000000000000000000000000000000000000000000000000000007bffffffffffffffffffffffffffffffffffffffffffffffffffffffff1916827bffffffffffffffffffffffffffffffffffffffffffffffffffffffff1916148061106a575061106982614b00565b5b9050919050565b600e6020528060005260406000206000915090505481565b7fa49807205ce4d355092ef5a8a18f56e8913cf4a201fbe287825b095693c217756110b381614b6a565b81600560026101000a81548160ff0219169083151502179055505050565b600860205281600052604060002081815481106110ed57600080fd5b9060005260206000209060060201600091509150508060000160009054906101000a900460ff16908060010154908060020154908060030160009054906101000a900460ff16908060030160019054906101000a900460ff16908060030160029054906101000a900460ff16908060030160039054906101000a900460ff16908060040154908060050154905089565b7ff60566c40710959d8d30b6067ce3c53c757bec78eecb0e46b83c7f8194ffae3781565b60045481565b600560039054906101000a900460ff1681565b6000806000838152602001908152602001600020600101549050919050565b60135481565b6111e7614b7e565b6000600b60003373ffffffffffffffffffffffffffffffffffffffff1673ffffffffffffffffffffffffffffffffffffffff1681526020019081526020016000205490506000811161126e576040517f08c379a000000000000000000000000000000000000000000000000000000000815260040161126590615d1a565b60405180910390fd5b6000600b60003373ffffffffffffffffffffffffffffffffffffffff1673ffffffffffffffffffffffffffffffffffffffff168152602001908152602001600020819055506112c1336000836001614bc4565b80601860008282546112d39190615d69565b9250508190555080600d60003373ffffffffffffffffffffffffffffffffffffffff1673ffffffffffffffffffffffffffffffffffffffff16815260200190815260200160002060008282546113299190615d69565b925050819055503373ffffffffffffffffffffffffffffffffffffffff167f997d2ec09b086de73d509bbc4ad2b52fd7e2338024464bede93a41abd6ccdc386000834260405161137b93929190615d9d565b60405180910390a25061138c614f21565b565b6060600860008373ffffffffffffffffffffffffffffffffffffffff1673ffffffffffffffffffffffffffffffffffffffff168152602001908152602001600020805480602002602001604051908101604052809291908181526020016000905b828210156114f15783829060005260206000209060060201604051806101200160405290816000820160009054906101000a900460ff166001811115611438576114376153af565b5b600181111561144a576114496153af565b5b815260200160018201548152602001600282015481526020016003820160009054906101000a900460ff161515151581526020016003820160019054906101000a900460ff161515151581526020016003820160029054906101000a900460ff161515151581526020016003820160039054906101000a900460ff1615151515815260200160048201548152602001600582015481525050815260200190600101906113ef565b505050509050919050565b611504614b7e565b600560019054906101000a900460ff1615611554576040517f08c379a000000000000000000000000000000000000000000000000000000000815260040161154b90615e20565b60405180910390fd5b6000600860003373ffffffffffffffffffffffffffffffffffffffff1673ffffffffffffffffffffffffffffffffffffffff16815260200190815260200160002082815481106115a7576115a6615e40565b5b906000526020600020906006020190508060030160009054906101000a900460ff1615611609576040517f08c379a000000000000000000000000000000000000000000000000000000000815260040161160090615ebb565b60405180910390fd5b600254816002015461161b9190615d69565b4210158061163757508060030160019054906101000a900460ff165b806116685750600560039054906101000a900460ff16801561166757508060030160029054906101000a900460ff165b5b6116a7576040517f08c379a000000000000000000000000000000000000000000000000000000000815260040161169e90615f27565b60405180910390fd5b60018160030160006101000a81548160ff021916908315150217905550428160040181905550600081600501549050600060018111156116ea576116e96153af565b5b8260000160009054906101000a900460ff16600181111561170e5761170d6153af565b5b036117f1578160010154601460008282546117299190615d69565b9250508190555060003373ffffffffffffffffffffffffffffffffffffffff168284600101546117599190615d69565b60405161176590615f78565b60006040518083038185875af1925050503d80600081146117a2576040519150601f19603f3d011682016040523d82523d6000602084013e6117a7565b606091505b50509050806117eb576040517f08c379a00000000000000000000000000000000000000000000000000000000081526004016117e290615fd9565b60405180910390fd5b506118ee565b600180811115611804576118036153af565b5b8260000160009054906101000a900460ff166001811115611828576118276153af565b5b036118ed578160010154601560008282546118439190615d69565b9250508190555073833589fcd6edb6e08f4c7c32d4f71b54bda0291373ffffffffffffffffffffffffffffffffffffffff1663a9059cbb3383856001015461188b9190615d69565b6040518363ffffffff1660e01b81526004016118a8929190615ff9565b6020604051808303816000875af11580156118c7573d6000803e3d6000fd5b505050506040513d601f19601f820116820180604052508101906118eb9190616037565b505b5b600a60003373ffffffffffffffffffffffffffffffffffffffff1673ffffffffffffffffffffffffffffffffffffffff16815260200190815260200160002060009054906101000a900460ff166119fb576010339080600181540180825580915050600190039060005260206000200160009091909190916101000a81548173ffffffffffffffffffffffffffffffffffffffff021916908373ffffffffffffffffffffffffffffffffffffffff1602179055506001600a60003373ffffffffffffffffffffffffffffffffffffffff1673ffffffffffffffffffffffffffffffffffffffff16815260200190815260200160002060006101000a81548160ff0219169083151502179055505b3373ffffffffffffffffffffffffffffffffffffffff167fcb034b37ef3764745c35bafecd525367bcf312e9010239e6aeebbe6bcf57727f8360000160009054906101000a900460ff168460010154844288604051611a5e959493929190616064565b60405180910390a25050611a70614f21565b50565b611a7c826111ba565b611a8581614b6a565b611a8f8383614f2a565b50505050565b600b6020528060005260406000206000915090505481565b611ab561501b565b73ffffffffffffffffffffffffffffffffffffffff168173ffffffffffffffffffffffffffffffffffffffff1614611b19576040517f6697b23200000000000000000000000000000000000000000000000000000000815260040160405180910390fd5b611b238282615023565b505050565b60175481565b60096020528060005260406000206000915054906101000a900460ff1681565b7fa49807205ce4d355092ef5a8a18f56e8913cf4a201fbe287825b095693c21775611b7881614b6a565b828290508585905014611bc0576040517f08c379a0000000000000000000000000000000000000000000000000000000008152600401611bb790616103565b60405180910390fd5b600080600090505b86869050811015611cf9576000858583818110611be857611be7615e40565b5b9050602002013511611c2f576040517f08c379a0000000000000000000000000000000000000000000000000000000008152600401611c269061616f565b60405180910390fd5b848482818110611c4257611c41615e40565b5b90506020020135600c6000898985818110611c6057611c5f615e40565b5b9050602002016020810190611c759190615289565b73ffffffffffffffffffffffffffffffffffffffff1673ffffffffffffffffffffffffffffffffffffffff1681526020019081526020016000206000828254611cbe9190615d69565b92505081905550848482818110611cd857611cd7615e40565b5b9050602002013582611cea9190615d69565b91508080600101915050611bc8565b50601754811115611d3f576040517f08c379a0000000000000000000000000000000000000000000000000000000008152600401611d36906161db565b60405180910390fd5b8060176000828254611d5191906161fb565b92505081905550505050505050565b7fa49807205ce4d355092ef5a8a18f56e8913cf4a201fbe287825b095693c21775611d8a81614b6a565b828290508585905014611dd2576040517f08c379a0000000000000000000000000000000000000000000000000000000008152600401611dc990616103565b60405180910390fd5b60005b85859050811015611f2e57838382818110611df357611df2615e40565b5b9050602002016020810190611e089190615316565b60096000888885818110611e1f57611e1e615e40565b5b9050602002016020810190611e349190615289565b73ffffffffffffffffffffffffffffffffffffffff1673ffffffffffffffffffffffffffffffffffffffff16815260200190815260200160002060006101000a81548160ff021916908315150217905550858582818110611e9857611e97615e40565b5b9050602002016020810190611ead9190615289565b73ffffffffffffffffffffffffffffffffffffffff167f995d2434d36c9bceaab42c56efe51e8ffe41fd11cabefd9e2cb83700d8b2035e858584818110611ef757611ef6615e40565b5b9050602002016020810190611f0c9190615316565b604051611f199190615210565b60405180910390a28080600101915050611dd5565b505050505050565b6000806000806000806000806000600860008b73ffffffffffffffffffffffffffffffffffffffff1673ffffffffffffffffffffffffffffffffffffffff168152602001908152602001600020905060005b818054905081101561226d5760006001811115611fa857611fa76153af565b5b828281548110611fbb57611fba615e40565b5b906000526020600020906006020160000160009054906101000a900460ff166001811115611fec57611feb6153af565b5b036120fc5781818154811061200457612003615e40565b5b9060005260206000209060060201600101548a6120219190615d69565b995081818154811061203657612035615e40565b5b906000526020600020906006020160030160009054906101000a900460ff161561208d5781818154811061206d5761206c615e40565b5b9060005260206000209060060201600101548861208a9190615d69565b97505b8181815481106120a05761209f615e40565b5b906000526020600020906006020160030160039054906101000a900460ff16156120f7578181815481106120d7576120d6615e40565b5b906000526020600020906006020160010154846120f49190615d69565b93505b612260565b60018081111561210f5761210e6153af565b5b82828154811061212257612121615e40565b5b906000526020600020906006020160000160009054906101000a900460ff166001811115612153576121526153af565b5b0361225f5781818154811061216b5761216a615e40565b5b906000526020600020906006020160010154896121889190615d69565b985081818154811061219d5761219c615e40565b5b906000526020600020906006020160030160009054906101000a900460ff16156121f4578181815481106121d4576121d3615e40565b5b906000526020600020906006020160010154876121f19190615d69565b96505b81818154811061220757612206615e40565b5b906000526020600020906006020160030160039054906101000a900460ff161561225e5781818154811061223e5761223d615e40565b5b9060005260206000209060060201600101548361225b9190615d69565b92505b5b5b8080600101915050611f88565b50600b60008b73ffffffffffffffffffffffffffffffffffffffff1673ffffffffffffffffffffffffffffffffffffffff168152602001908152602001600020549450600c60008b73ffffffffffffffffffffffffffffffffffffffff1673ffffffffffffffffffffffffffffffffffffffff16815260200190815260200160002054935050919395975091939597565b600560029054906101000a900460ff1681565b7fa49807205ce4d355092ef5a8a18f56e8913cf4a201fbe287825b095693c2177561233b81614b6a565b81600960008573ffffffffffffffffffffffffffffffffffffffff1673ffffffffffffffffffffffffffffffffffffffff16815260200190815260200160002060006101000a81548160ff0219169083151502179055508273ffffffffffffffffffffffffffffffffffffffff167f995d2434d36c9bceaab42c56efe51e8ffe41fd11cabefd9e2cb83700d8b2035e836040516123d89190615210565b60405180910390a2505050565b60065481565b600a6020528060005260406000206000915054906101000a900460ff1681565b600560009054906101000a900460ff1681565b7ff60566c40710959d8d30b6067ce3c53c757bec78eecb0e46b83c7f8194ffae3761244881614b6a565b6000341161248b576040517f08c379a00000000000000000000000000000000000000000000000000000000081526004016124829061627b565b60405180910390fd5b346016600082825461249d9190615d69565b925050819055503373ffffffffffffffffffffffffffffffffffffffff167f8bafec96fcffb6f12596b4635c76397b7bc1f363b22c49c13136b63677323dcc600034426040516124ef93929190615d9d565b60405180910390a250565b7f65d7a28e3265b37a6474929f336521b332c1681b933f6cb9f3376673440d862a61252481614b6a565b82600560006101000a81548160ff02191690831515021790555081600560016101000a81548160ff0219169083151502179055507fac1664632d6278432aa05a6afc0aa83e5ea08e8df9a1436736daa5d6283211c0838360405161258992919061629b565b60405180910390a1505050565b61259e614b7e565b6000600c60003373ffffffffffffffffffffffffffffffffffffffff1673ffffffffffffffffffffffffffffffffffffffff16815260200190815260200160002054905060008111612625576040517f08c379a000000000000000000000000000000000000000000000000000000000815260040161261c90615d1a565b60405180910390fd5b6000600c60003373ffffffffffffffffffffffffffffffffffffffff1673ffffffffffffffffffffffffffffffffffffffff1681526020019081526020016000208190555073833589fcd6edb6e08f4c7c32d4f71b54bda0291373ffffffffffffffffffffffffffffffffffffffff1663a9059cbb33836040518363ffffffff1660e01b81526004016126b9929190615ff9565b6020604051808303816000875af11580156126d8573d6000803e3d6000fd5b505050506040513d601f19601f820116820180604052508101906126fc9190616037565b503373ffffffffffffffffffffffffffffffffffffffff167f6914793c7a82461acec66c7de7fdbbbf1f825c26bc2fe939b61f0e4f8964c2b56001834260405161274893929190615d9d565b60405180910390a250612759614f21565b565b7fa49807205ce4d355092ef5a8a18f56e8913cf4a201fbe287825b095693c2177561278581614b6a565b600082116127c8576040517f08c379a00000000000000000000000000000000000000000000000000000000081526004016127bf9061616f565b60405180910390fd5b60165482111561280d576040517f08c379a0000000000000000000000000000000000000000000000000000000008152600401612804906161db565b60405180910390fd5b81600b60008573ffffffffffffffffffffffffffffffffffffffff1673ffffffffffffffffffffffffffffffffffffffff168152602001908152602001600020600082825461285c9190615d69565b92505081905550816016600082825461287591906161fb565b92505081905550505050565b612889614b7e565b600560019054906101000a900460ff16156128d9576040517f08c379a00000000000000000000000000000000000000000000000000000000081526004016128d090615e20565b60405180910390fd5b60008060008060005b86869050811015612d22576000600860003373ffffffffffffffffffffffffffffffffffffffff1673ffffffffffffffffffffffffffffffffffffffff16815260200190815260200160002088888481811061294157612940615e40565b5b905060200201358154811061295957612958615e40565b5b906000526020600020906006020190508060030160009054906101000a900460ff16156129bb576040517f08c379a00000000000000000000000000000000000000000000000000000000081526004016129b290615ebb565b60405180910390fd5b60025481600201546129cd9190615d69565b421015806129e957508060030160019054906101000a900460ff165b80612a1a5750600560039054906101000a900460ff168015612a1957508060030160029054906101000a900460ff165b5b612a59576040517f08c379a0000000000000000000000000000000000000000000000000000000008152600401612a5090615f27565b60405180910390fd5b60018160030160006101000a81548160ff02191690831515021790555042816004018190555060008160050154905060006001811115612a9c57612a9b6153af565b5b8260000160009054906101000a900460ff166001811115612ac057612abf6153af565b5b03612b0757816001015460146000828254612adb9190615d69565b92505081905550816001015487612af29190615d69565b96508086612b009190615d69565b9550612b82565b600180811115612b1a57612b196153af565b5b8260000160009054906101000a900460ff166001811115612b3e57612b3d6153af565b5b03612b8157816001015460156000828254612b599190615d69565b92505081905550816001015485612b709190615d69565b94508084612b7e9190615d69565b93505b5b600a60003373ffffffffffffffffffffffffffffffffffffffff1673ffffffffffffffffffffffffffffffffffffffff16815260200190815260200160002060009054906101000a900460ff16612c8f576010339080600181540180825580915050600190039060005260206000200160009091909190916101000a81548173ffffffffffffffffffffffffffffffffffffffff021916908373ffffffffffffffffffffffffffffffffffffffff1602179055506001600a60003373ffffffffffffffffffffffffffffffffffffffff1673ffffffffffffffffffffffffffffffffffffffff16815260200190815260200160002060006101000a81548160ff0219169083151502179055505b3373ffffffffffffffffffffffffffffffffffffffff167fcb034b37ef3764745c35bafecd525367bcf312e9010239e6aeebbe6bcf57727f8360000160009054906101000a900460ff16846001015484428e8e8a818110612cf357612cf2615e40565b5b90506020020135604051612d0b959493929190616064565b60405180910390a2505080806001019150506128e2565b5060008385612d319190615d69565b1115612e495760003373ffffffffffffffffffffffffffffffffffffffff168486612d5c9190615d69565b604051612d6890615f78565b60006040518083038185875af1925050503d8060008114612da5576040519150601f19603f3d011682016040523d82523d6000602084013e612daa565b606091505b5050905080612dee576040517f08c379a0000000000000000000000000000000000000000000000000000000008152600401612de590615fd9565b60405180910390fd5b3373ffffffffffffffffffffffffffffffffffffffff167fbf06e98fe211a4b82f625232ab1c7a75caea5e0d624bc267578d6f22fce788c360008989898942604051612e3f9695949392919061633f565b60405180910390a2505b60008183612e579190615d69565b1115612f555773833589fcd6edb6e08f4c7c32d4f71b54bda0291373ffffffffffffffffffffffffffffffffffffffff1663a9059cbb338385612e9a9190615d69565b6040518363ffffffff1660e01b8152600401612eb7929190615ff9565b6020604051808303816000875af1158015612ed6573d6000803e3d6000fd5b505050506040513d601f19601f82011682018060405250810190612efa9190616037565b503373ffffffffffffffffffffffffffffffffffffffff167fbf06e98fe211a4b82f625232ab1c7a75caea5e0d624bc267578d6f22fce788c360018888868642604051612f4c9695949392919061633f565b60405180910390a25b50505050612f61614f21565b5050565b7fa49807205ce4d355092ef5a8a18f56e8913cf4a201fbe287825b095693c2177581565b7fa49807205ce4d355092ef5a8a18f56e8913cf4a201fbe287825b095693c21775612fb381614b6a565b60008211612ff6576040517f08c379a0000000000000000000000000000000000000000000000000000000008152600401612fed9061616f565b60405180910390fd5b60175482111561303b576040517f08c379a0000000000000000000000000000000000000000000000000000000008152600401613032906161db565b60405180910390fd5b81600c60008573ffffffffffffffffffffffffffffffffffffffff1673ffffffffffffffffffffffffffffffffffffffff168152602001908152602001600020600082825461308a9190615d69565b9250508190555081601760008282546130a391906161fb565b92505081905550505050565b7f78c90eb9e475048b483a290aee04b5fe48355537c3623c7637b17d3bed71c6ed6130d981614b6a565b6130e1614b7e565b600073ffffffffffffffffffffffffffffffffffffffff16600760009054906101000a900473ffffffffffffffffffffffffffffffffffffffff1673ffffffffffffffffffffffffffffffffffffffff1603613172576040517f08c379a0000000000000000000000000000000000000000000000000000000008152600401613169906163e7565b60405180910390fd5b73833589fcd6edb6e08f4c7c32d4f71b54bda0291373ffffffffffffffffffffffffffffffffffffffff1663a9059cbb600760009054906101000a900473ffffffffffffffffffffffffffffffffffffffff16846040518363ffffffff1660e01b81526004016131e3929190615ff9565b6020604051808303816000875af1158015613202573d6000803e3d6000fd5b505050506040513d601f19601f820116820180604052508101906132269190616037565b50600760009054906101000a900473ffffffffffffffffffffffffffffffffffffffff1673ffffffffffffffffffffffffffffffffffffffff167f9adbdc797aca3ce26a722598f00149b2328fd124444e6d0b10c4bdc7cfc381966001844260405161329493929190615d9d565b60405180910390a26132a4614f21565b5050565b7fc806897caf4fd5068191157e44d3988e43139a37e0b97b6793e1ed11841406046132d281614b6a565b60005b838390508110156133f4576000600860008773ffffffffffffffffffffffffffffffffffffffff1673ffffffffffffffffffffffffffffffffffffffff16815260200190815260200160002085858481811061333457613333615e40565b5b905060200201358154811061334c5761334b615e40565b5b906000526020600020906006020190508060030160009054906101000a900460ff1615801561338a57508060030160019054906101000a900460ff16155b6133c9576040517f08c379a00000000000000000000000000000000000000000000000000000000081526004016133c090616453565b60405180910390fd5b60018160030160016101000a81548160ff0219169083151502179055505080806001019150506132d5565b508373ffffffffffffffffffffffffffffffffffffffff167f8b655a966f162e1d3686ea25cd61682331984ab5662b451deff96f12d716f45b848460405161343d929190616473565b60405180910390a250505050565b7f78c90eb9e475048b483a290aee04b5fe48355537c3623c7637b17d3bed71c6ed81565b600d6020528060005260406000206000915090505481565b60125481565b73833589fcd6edb6e08f4c7c32d4f71b54bda0291381565b7fa49807205ce4d355092ef5a8a18f56e8913cf4a201fbe287825b095693c217756134cf81614b6a565b600073ffffffffffffffffffffffffffffffffffffffff168273ffffffffffffffffffffffffffffffffffffffff160361353e576040517f08c379a0000000000000000000000000000000000000000000000000000000008152600401613535906164e3565b60405180910390fd5b81600760006101000a81548173ffffffffffffffffffffffffffffffffffffffff021916908373ffffffffffffffffffffffffffffffffffffffff1602179055507f1d6240e71a77c9e9d07d1d6ecbb9ea4274fcc8bc19adc5b05a3548ac7e40e189826040516135ae9190615b30565b60405180910390a15050565b60145481565b600080600084815260200190815260200160002060000160008373ffffffffffffffffffffffffffffffffffffffff1673ffffffffffffffffffffffffffffffffffffffff16815260200190815260200160002060009054906101000a900460ff16905092915050565b7f78c90eb9e475048b483a290aee04b5fe48355537c3623c7637b17d3bed71c6ed61365481614b6a565b61365c614b7e565b600073ffffffffffffffffffffffffffffffffffffffff16600760009054906101000a900473ffffffffffffffffffffffffffffffffffffffff1673ffffffffffffffffffffffffffffffffffffffff16036136ed576040517f08c379a00000000000000000000000000000000000000000000000000000000081526004016136e4906163e7565b60405180910390fd5b47821115613730576040517f08c379a00000000000000000000000000000000000000000000000000000000081526004016137279061654f565b60405180910390fd5b6000600760009054906101000a900473ffffffffffffffffffffffffffffffffffffffff1673ffffffffffffffffffffffffffffffffffffffff168360405161377890615f78565b60006040518083038185875af1925050503d80600081146137b5576040519150601f19603f3d011682016040523d82523d6000602084013e6137ba565b606091505b50509050806137fe576040517f08c379a00000000000000000000000000000000000000000000000000000000081526004016137f590615fd9565b60405180910390fd5b600760009054906101000a900473ffffffffffffffffffffffffffffffffffffffff1673ffffffffffffffffffffffffffffffffffffffff167f9adbdc797aca3ce26a722598f00149b2328fd124444e6d0b10c4bdc7cfc381966000854260405161386b93929190615d9d565b60405180910390a25061387c614f21565b5050565b60185481565b60035481565b6010818154811061389c57600080fd5b906000526020600020016000915054906101000a900473ffffffffffffffffffffffffffffffffffffffff1681565b6000801b81565b600f81815481106138e257600080fd5b906000526020600020016000915054906101000a900473ffffffffffffffffffffffffffffffffffffffff1681565b600080600080600080600080600080600080479b5073833589fcd6edb6e08f4c7c32d4f71b54bda0291373ffffffffffffffffffffffffffffffffffffffff166370a08231306040518263ffffffff1660e01b81526004016139739190615b30565b602060405180830381865afa158015613990573d6000803e3d6000fd5b505050506040513d601f19601f820116820180604052508101906139b49190616584565b9a5060125499506013549850601454975060155496506016549550601754945060185493506019549250600f8054905091506010805490509050909192939495969798999a9b565b7fa49807205ce4d355092ef5a8a18f56e8913cf4a201fbe287825b095693c21775613a2681614b6a565b600073ffffffffffffffffffffffffffffffffffffffff168373ffffffffffffffffffffffffffffffffffffffff1603613a95576040517f08c379a0000000000000000000000000000000000000000000000000000000008152600401613a8c906164e3565b60405180910390fd5b8373ffffffffffffffffffffffffffffffffffffffff1663a9059cbb84846040518363ffffffff1660e01b8152600401613ad0929190615ff9565b6020604051808303816000875af1158015613aef573d6000803e3d6000fd5b505050506040513d601f19601f82011682018060405250810190613b139190616037565b508273ffffffffffffffffffffffffffffffffffffffff168473ffffffffffffffffffffffffffffffffffffffff167f8bbfbb5d7fcacf6fc74005cdede0635561638507f576c95f7f294c22141be2e584604051613b7191906152cf565b60405180910390a350505050565b600560019054906101000a900460ff1681565b60165481565b7fa49807205ce4d355092ef5a8a18f56e8913cf4a201fbe287825b095693c21775613bc281614b6a565b828290508585905014613c0a576040517f08c379a0000000000000000000000000000000000000000000000000000000008152600401613c0190616103565b60405180910390fd5b600080600090505b86869050811015613d43576000858583818110613c3257613c31615e40565b5b9050602002013511613c79576040517f08c379a0000000000000000000000000000000000000000000000000000000008152600401613c709061616f565b60405180910390fd5b848482818110613c8c57613c8b615e40565b5b90506020020135600b6000898985818110613caa57613ca9615e40565b5b9050602002016020810190613cbf9190615289565b73ffffffffffffffffffffffffffffffffffffffff1673ffffffffffffffffffffffffffffffffffffffff1681526020019081526020016000206000828254613d089190615d69565b92505081905550848482818110613d2257613d21615e40565b5b9050602002013582613d349190615d69565b91508080600101915050613c12565b50601654811115613d89576040517f08c379a0000000000000000000000000000000000000000000000000000000008152600401613d80906161db565b60405180910390fd5b8060166000828254613d9b91906161fb565b92505081905550505050505050565b613db2614b7e565b6000600c60003373ffffffffffffffffffffffffffffffffffffffff1673ffffffffffffffffffffffffffffffffffffffff16815260200190815260200160002054905060008111613e39576040517f08c379a0000000000000000000000000000000000000000000000000000000008152600401613e3090615d1a565b60405180910390fd5b6000600c60003373ffffffffffffffffffffffffffffffffffffffff1673ffffffffffffffffffffffffffffffffffffffff16815260200190815260200160002081905550613e8c336001836001614bc4565b8060196000828254613e9e9190615d69565b9250508190555080600e60003373ffffffffffffffffffffffffffffffffffffffff1673ffffffffffffffffffffffffffffffffffffffff1681526020019081526020016000206000828254613ef49190615d69565b925050819055503373ffffffffffffffffffffffffffffffffffffffff167f997d2ec09b086de73d509bbc4ad2b52fd7e2338024464bede93a41abd6ccdc3860018342604051613f4693929190615d9d565b60405180910390a250613f57614f21565b565b7fa49807205ce4d355092ef5a8a18f56e8913cf4a201fbe287825b095693c21775613f8381614b6a565b816002819055507fc5e00a325524bc148ddc05bb642b804e9ae1dfc670c217ed3c4c6595f7427ef482604051613fb991906152cf565b60405180910390a15050565b613fce826111ba565b613fd781614b6a565b613fe18383615023565b50505050565b7ff60566c40710959d8d30b6067ce3c53c757bec78eecb0e46b83c7f8194ffae3761401181614b6a565b60008211614054576040517f08c379a000000000000000000000000000000000000000000000000000000000815260040161404b906165fd565b60405180910390fd5b73833589fcd6edb6e08f4c7c32d4f71b54bda0291373ffffffffffffffffffffffffffffffffffffffff166323b872dd3330856040518463ffffffff1660e01b81526004016140a59392919061661d565b6020604051808303816000875af11580156140c4573d6000803e3d6000fd5b505050506040513d601f19601f820116820180604052508101906140e89190616037565b5081601760008282546140fb9190615d69565b925050819055503373ffffffffffffffffffffffffffffffffffffffff167f8bafec96fcffb6f12596b4635c76397b7bc1f363b22c49c13136b63677323dcc6001844260405161414d93929190615d9d565b60405180910390a25050565b7fa49807205ce4d355092ef5a8a18f56e8913cf4a201fbe287825b095693c2177561418381614b6a565b600560039054906101000a900460ff16156141d3576040517f08c379a00000000000000000000000000000000000000000000000000000000081526004016141ca906166a0565b60405180910390fd5b6001600560036101000a81548160ff0219169083151502179055504260068190555060005b600f8054905081101561432557600060086000600f848154811061421f5761421e615e40565b5b9060005260206000200160009054906101000a900473ffffffffffffffffffffffffffffffffffffffff1673ffffffffffffffffffffffffffffffffffffffff1673ffffffffffffffffffffffffffffffffffffffff168152602001908152602001600020905060005b8180549050811015614316578181815481106142a8576142a7615e40565b5b906000526020600020906006020160030160009054906101000a900460ff166143095760018282815481106142e0576142df615e40565b5b906000526020600020906006020160030160026101000a81548160ff0219169083151502179055505b8080600101915050614289565b505080806001019150506141f8565b507f2388ceaed48d21bd0802856df41a22705f9046a67a817a047352aa3bbfe5c5d14260405161435591906152cf565b60405180910390a150565b6011818154811061437057600080fd5b906000526020600020016000915054906101000a900473ffffffffffffffffffffffffffffffffffffffff1681565b7fc806897caf4fd5068191157e44d3988e43139a37e0b97b6793e1ed118414060481565b60195481565b60155481565b6143d7614b7e565b6000600b60003373ffffffffffffffffffffffffffffffffffffffff1673ffffffffffffffffffffffffffffffffffffffff1681526020019081526020016000205490506000811161445e576040517f08c379a000000000000000000000000000000000000000000000000000000000815260040161445590615d1a565b60405180910390fd5b6000600b60003373ffffffffffffffffffffffffffffffffffffffff1673ffffffffffffffffffffffffffffffffffffffff1681526020019081526020016000208190555060003373ffffffffffffffffffffffffffffffffffffffff16826040516144c990615f78565b60006040518083038185875af1925050503d8060008114614506576040519150601f19603f3d011682016040523d82523d6000602084013e61450b565b606091505b505090508061454f576040517f08c379a000000000000000000000000000000000000000000000000000000000815260040161454690615fd9565b60405180910390fd5b3373ffffffffffffffffffffffffffffffffffffffff167f6914793c7a82461acec66c7de7fdbbbf1f825c26bc2fe939b61f0e4f8964c2b56000844260405161459a93929190615d9d565b60405180910390a250506145ac614f21565b565b7f65d7a28e3265b37a6474929f336521b332c1681b933f6cb9f3376673440d862a81565b600c6020528060005260406000206000915090505481565b60025481565b600760009054906101000a900473ffffffffffffffffffffffffffffffffffffffff1681565b7fa49807205ce4d355092ef5a8a18f56e8913cf4a201fbe287825b095693c2177561464081614b6a565b60006001811115614654576146536153af565b5b836001811115614667576146666153af565b5b0361467857816003819055506146ac565b60018081111561468b5761468a6153af565b5b83600181111561469e5761469d6153af565b5b036146ab57816004819055505b5b7f5d7976bccd4b396c1a1a0020032e62bf8a381bcffc61e69a13ea61761b75721883836040516146dd9291906166c0565b60405180910390a1505050565b6146f2614b7e565b600560009054906101000a900460ff1615614742576040517f08c379a000000000000000000000000000000000000000000000000000000000815260040161473990616735565b60405180910390fd5b60003411614785576040517f08c379a000000000000000000000000000000000000000000000000000000000815260040161477c9061627b565b60405180910390fd5b600354346012546147969190615d69565b11156147d7576040517f08c379a00000000000000000000000000000000000000000000000000000000081526004016147ce906167a1565b60405180910390fd5b600560029054906101000a900460ff161561487957600960003373ffffffffffffffffffffffffffffffffffffffff1673ffffffffffffffffffffffffffffffffffffffff16815260200190815260200160002060009054906101000a900460ff16614878576040517f08c379a000000000000000000000000000000000000000000000000000000000815260040161486f9061680d565b60405180910390fd5b5b614887336000346000614bc4565b34601260008282546148999190615d69565b925050819055506148a8614f21565b565b6148b2614b7e565b600560009054906101000a900460ff1615614902576040517f08c379a00000000000000000000000000000000000000000000000000000000081526004016148f990616735565b60405180910390fd5b60008111614945576040517f08c379a000000000000000000000000000000000000000000000000000000000815260040161493c906165fd565b60405180910390fd5b600454816013546149569190615d69565b1115614997576040517f08c379a000000000000000000000000000000000000000000000000000000000815260040161498e906167a1565b60405180910390fd5b600560029054906101000a900460ff1615614a3957600960003373ffffffffffffffffffffffffffffffffffffffff1673ffffffffffffffffffffffffffffffffffffffff16815260200190815260200160002060009054906101000a900460ff16614a38576040517f08c379a0000000000000000000000000000000000000000000000000000000008152600401614a2f9061680d565b60405180910390fd5b5b73833589fcd6edb6e08f4c7c32d4f71b54bda0291373ffffffffffffffffffffffffffffffffffffffff166323b872dd3330846040518463ffffffff1660e01b8152600401614a8a9392919061661d565b6020604051808303816000875af1158015614aa9573d6000803e3d6000fd5b505050506040513d601f19601f82011682018060405250810190614acd9190616037565b50614adc336001836000614bc4565b8060136000828254614aee9190615d69565b92505081905550614afd614f21565b50565b60007f01ffc9a7000000000000000000000000000000000000000000000000000000007bffffffffffffffffffffffffffffffffffffffffffffffffffffffff1916827bffffffffffffffffffffffffffffffffffffffffffffffffffffffff1916149050919050565b614b7b81614b7661501b565b615115565b50565b600260015403614bba576040517f3ee5aeb500000000000000000000000000000000000000000000000000000000815260040160405180910390fd5b6002600181905550565b600860008573ffffffffffffffffffffffffffffffffffffffff1673ffffffffffffffffffffffffffffffffffffffff168152602001908152602001600020604051806101200160405280856001811115614c2257614c216153af565b5b81526020018481526020014281526020016000151581526020016000151581526020016000151581526020018315158152602001600081526020016000815250908060018154018082558091505060019003906000526020600020906006020160009091909190915060008201518160000160006101000a81548160ff02191690836001811115614cb657614cb56153af565b5b0217905550602082015181600101556040820151816002015560608201518160030160006101000a81548160ff02191690831515021790555060808201518160030160016101000a81548160ff02191690831515021790555060a08201518160030160026101000a81548160ff02191690831515021790555060c08201518160030160036101000a81548160ff02191690831515021790555060e08201518160040155610100820151816005015550506001600860008673ffffffffffffffffffffffffffffffffffffffff1673ffffffffffffffffffffffffffffffffffffffff1681526020019081526020016000208054905003614e7757600f849080600181540180825580915050600190039060005260206000200160009091909190916101000a81548173ffffffffffffffffffffffffffffffffffffffff021916908373ffffffffffffffffffffffffffffffffffffffff1602179055506011849080600181540180825580915050600190039060005260206000200160009091909190916101000a81548173ffffffffffffffffffffffffffffffffffffffff021916908373ffffffffffffffffffffffffffffffffffffffff1602179055505b8373ffffffffffffffffffffffffffffffffffffffff167f48916ac7f9777648255ab8645729ff3b5d20aa412a40fe81dac2433522eaa0588484426001600860008b73ffffffffffffffffffffffffffffffffffffffff1673ffffffffffffffffffffffffffffffffffffffff16815260200190815260200160002080549050614f0191906161fb565b86604051614f1395949392919061682d565b60405180910390a250505050565b60018081905550565b6000614f3683836135c0565b61501057600160008085815260200190815260200160002060000160008473ffffffffffffffffffffffffffffffffffffffff1673ffffffffffffffffffffffffffffffffffffffff16815260200190815260200160002060006101000a81548160ff021916908315150217905550614fad61501b565b73ffffffffffffffffffffffffffffffffffffffff168273ffffffffffffffffffffffffffffffffffffffff16847f2f8788117e7eff1d82e926ec794901d17c78024a50270940304540a733656f0d60405160405180910390a460019050615015565b600090505b92915050565b600033905090565b600061502f83836135c0565b1561510a57600080600085815260200190815260200160002060000160008473ffffffffffffffffffffffffffffffffffffffff1673ffffffffffffffffffffffffffffffffffffffff16815260200190815260200160002060006101000a81548160ff0219169083151502179055506150a761501b565b73ffffffffffffffffffffffffffffffffffffffff168273ffffffffffffffffffffffffffffffffffffffff16847ff6391f5c32d9c69d2a47ea670b442974b53935d1edc7fd64eb21e047a839171b60405160405180910390a46001905061510f565b600090505b92915050565b61511f82826135c0565b6151625780826040517fe2517d3f000000000000000000000000000000000000000000000000000000008152600401615159929190616880565b60405180910390fd5b5050565b600080fd5b600080fd5b60007fffffffff0000000000000000000000000000000000000000000000000000000082169050919050565b6151a581615170565b81146151b057600080fd5b50565b6000813590506151c28161519c565b92915050565b6000602082840312156151de576151dd615166565b5b60006151ec848285016151b3565b91505092915050565b60008115159050919050565b61520a816151f5565b82525050565b60006020820190506152256000830184615201565b92915050565b600073ffffffffffffffffffffffffffffffffffffffff82169050919050565b60006152568261522b565b9050919050565b6152668161524b565b811461527157600080fd5b50565b6000813590506152838161525d565b92915050565b60006020828403121561529f5761529e615166565b5b60006152ad84828501615274565b91505092915050565b6000819050919050565b6152c9816152b6565b82525050565b60006020820190506152e460008301846152c0565b92915050565b6152f3816151f5565b81146152fe57600080fd5b50565b600081359050615310816152ea565b92915050565b60006020828403121561532c5761532b615166565b5b600061533a84828501615301565b91505092915050565b61534c816152b6565b811461535757600080fd5b50565b60008135905061536981615343565b92915050565b6000806040838503121561538657615385615166565b5b600061539485828601615274565b92505060206153a58582860161535a565b9150509250929050565b7f4e487b7100000000000000000000000000000000000000000000000000000000600052602160045260246000fd5b600281106153ef576153ee6153af565b5b50565b6000819050615400826153de565b919050565b6000615410826153f2565b9050919050565b61542081615405565b82525050565b60006101208201905061543c600083018c615417565b615449602083018b6152c0565b615456604083018a6152c0565b6154636060830189615201565b6154706080830188615201565b61547d60a0830187615201565b61548a60c0830186615201565b61549760e08301856152c0565b6154a56101008301846152c0565b9a9950505050505050505050565b6000819050919050565b6154c6816154b3565b82525050565b60006020820190506154e160008301846154bd565b92915050565b6154f0816154b3565b81146154fb57600080fd5b50565b60008135905061550d816154e7565b92915050565b60006020828403121561552957615528615166565b5b6000615537848285016154fe565b91505092915050565b600081519050919050565b600082825260208201905092915050565b6000819050602082019050919050565b61557581615405565b82525050565b615584816152b6565b82525050565b615593816151f5565b82525050565b610120820160008201516155b0600085018261556c565b5060208201516155c3602085018261557b565b5060408201516155d6604085018261557b565b5060608201516155e9606085018261558a565b5060808201516155fc608085018261558a565b5060a082015161560f60a085018261558a565b5060c082015161562260c085018261558a565b5060e082015161563560e085018261557b565b5061010082015161564a61010085018261557b565b50505050565b600061565c8383615599565b6101208301905092915050565b6000602082019050919050565b600061568182615540565b61568b818561554b565b93506156968361555c565b8060005b838110156156c75781516156ae8882615650565b97506156b983615669565b92505060018101905061569a565b5085935050505092915050565b600060208201905081810360008301526156ee8184615676565b905092915050565b60006020828403121561570c5761570b615166565b5b600061571a8482850161535a565b91505092915050565b6000806040838503121561573a57615739615166565b5b6000615748858286016154fe565b925050602061575985828601615274565b9150509250929050565b600080fd5b600080fd5b600080fd5b60008083601f84011261578857615787615763565b5b8235905067ffffffffffffffff8111156157a5576157a4615768565b5b6020830191508360208202830111156157c1576157c061576d565b5b9250929050565b60008083601f8401126157de576157dd615763565b5b8235905067ffffffffffffffff8111156157fb576157fa615768565b5b6020830191508360208202830111156158175761581661576d565b5b9250929050565b6000806000806040858703121561583857615837615166565b5b600085013567ffffffffffffffff8111156158565761585561516b565b5b61586287828801615772565b9450945050602085013567ffffffffffffffff8111156158855761588461516b565b5b615891878288016157c8565b925092505092959194509250565b60008083601f8401126158b5576158b4615763565b5b8235905067ffffffffffffffff8111156158d2576158d1615768565b5b6020830191508360208202830111156158ee576158ed61576d565b5b9250929050565b6000806000806040858703121561590f5761590e615166565b5b600085013567ffffffffffffffff81111561592d5761592c61516b565b5b61593987828801615772565b9450945050602085013567ffffffffffffffff81111561595c5761595b61516b565b5b6159688782880161589f565b925092505092959194509250565b60006101008201905061598c600083018b6152c0565b615999602083018a6152c0565b6159a660408301896152c0565b6159b360608301886152c0565b6159c060808301876152c0565b6159cd60a08301866152c0565b6159da60c08301856152c0565b6159e760e08301846152c0565b9998505050505050505050565b60008060408385031215615a0b57615a0a615166565b5b6000615a1985828601615274565b9250506020615a2a85828601615301565b9150509250929050565b60008060408385031215615a4b57615a4a615166565b5b6000615a5985828601615301565b9250506020615a6a85828601615301565b9150509250929050565b60008060208385031215615a8b57615a8a615166565b5b600083013567ffffffffffffffff811115615aa957615aa861516b565b5b615ab5858286016157c8565b92509250509250929050565b600080600060408486031215615ada57615ad9615166565b5b6000615ae886828701615274565b935050602084013567ffffffffffffffff811115615b0957615b0861516b565b5b615b15868287016157c8565b92509250509250925092565b615b2a8161524b565b82525050565b6000602082019050615b456000830184615b21565b92915050565b600061018082019050615b61600083018f6152c0565b615b6e602083018e6152c0565b615b7b604083018d6152c0565b615b88606083018c6152c0565b615b95608083018b6152c0565b615ba260a083018a6152c0565b615baf60c08301896152c0565b615bbc60e08301886152c0565b615bca6101008301876152c0565b615bd86101208301866152c0565b615be66101408301856152c0565b615bf46101608301846152c0565b9d9c50505050505050505050505050565b600080600060608486031215615c1e57615c1d615166565b5b6000615c2c86828701615274565b9350506020615c3d86828701615274565b9250506040615c4e8682870161535a565b9150509250925092565b60028110615c6557600080fd5b50565b600081359050615c7781615c58565b92915050565b60008060408385031215615c9457615c93615166565b5b6000615ca285828601615c68565b9250506020615cb38582860161535a565b9150509250929050565b600082825260208201905092915050565b7f4e6f207574696c69747900000000000000000000000000000000000000000000600082015250565b6000615d04600a83615cbd565b9150615d0f82615cce565b602082019050919050565b60006020820190508181036000830152615d3381615cf7565b9050919050565b7f4e487b7100000000000000000000000000000000000000000000000000000000600052601160045260246000fd5b6000615d74826152b6565b9150615d7f836152b6565b9250828201905080821115615d9757615d96615d3a565b5b92915050565b6000606082019050615db26000830186615417565b615dbf60208301856152c0565b615dcc60408301846152c0565b949350505050565b7f5769746864726177616c73207061757365640000000000000000000000000000600082015250565b6000615e0a601283615cbd565b9150615e1582615dd4565b602082019050919050565b60006020820190508181036000830152615e3981615dfd565b9050919050565b7f4e487b7100000000000000000000000000000000000000000000000000000000600052603260045260246000fd5b7f416c72656164792077697468647261776e000000000000000000000000000000600082015250565b6000615ea5601183615cbd565b9150615eb082615e6f565b602082019050919050565b60006020820190508181036000830152615ed481615e98565b9050919050565b7f4465706f736974206c6f636b6564000000000000000000000000000000000000600082015250565b6000615f11600e83615cbd565b9150615f1c82615edb565b602082019050919050565b60006020820190508181036000830152615f4081615f04565b9050919050565b600081905092915050565b50565b6000615f62600083615f47565b9150615f6d82615f52565b600082019050919050565b6000615f8382615f55565b9150819050919050565b7f455448207472616e73666572206661696c656400000000000000000000000000600082015250565b6000615fc3601383615cbd565b9150615fce82615f8d565b602082019050919050565b60006020820190508181036000830152615ff281615fb6565b9050919050565b600060408201905061600e6000830185615b21565b61601b60208301846152c0565b9392505050565b600081519050616031816152ea565b92915050565b60006020828403121561604d5761604c615166565b5b600061605b84828501616022565b91505092915050565b600060a0820190506160796000830188615417565b61608660208301876152c0565b61609360408301866152c0565b6160a060608301856152c0565b6160ad60808301846152c0565b9695505050505050565b7f4d69736d61746368000000000000000000000000000000000000000000000000600082015250565b60006160ed600883615cbd565b91506160f8826160b7565b602082019050919050565b6000602082019050818103600083015261611c816160e0565b9050919050565b7f5a65726f00000000000000000000000000000000000000000000000000000000600082015250565b6000616159600483615cbd565b915061616482616123565b602082019050919050565b600060208201905081810360008301526161888161614c565b9050919050565b7f4578636565647320706f6f6c0000000000000000000000000000000000000000600082015250565b60006161c5600c83615cbd565b91506161d08261618f565b602082019050919050565b600060208201905081810360008301526161f4816161b8565b9050919050565b6000616206826152b6565b9150616211836152b6565b925082820390508181111561622957616228615d3a565b5b92915050565b7f4e6f204554482073656e74000000000000000000000000000000000000000000600082015250565b6000616265600b83615cbd565b91506162708261622f565b602082019050919050565b6000602082019050818103600083015261629481616258565b9050919050565b60006040820190506162b06000830185615201565b6162bd6020830184615201565b9392505050565b600082825260208201905092915050565b600080fd5b82818337505050565b60006162ef83856162c4565b93507f07ffffffffffffffffffffffffffffffffffffffffffffffffffffffffffffff831115616322576163216162d5565b5b6020830292506163338385846162da565b82840190509392505050565b600060a0820190506163546000830189615417565b81810360208301526163678187896162e3565b905061637660408301866152c0565b61638360608301856152c0565b61639060808301846152c0565b979650505050505050565b7f5574696c6974792061646472657373206e6f7420736574000000000000000000600082015250565b60006163d1601783615cbd565b91506163dc8261639b565b602082019050919050565b60006020820190508181036000830152616400816163c4565b9050919050565b7f416c726561647920756e6c6f636b65642f77697468647261776e000000000000600082015250565b600061643d601a83615cbd565b915061644882616407565b602082019050919050565b6000602082019050818103600083015261646c81616430565b9050919050565b6000602082019050818103600083015261648e8184866162e3565b90509392505050565b7f5a65726f20616464726573730000000000000000000000000000000000000000600082015250565b60006164cd600c83615cbd565b91506164d882616497565b602082019050919050565b600060208201905081810360008301526164fc816164c0565b9050919050565b7f496e73756666696369656e742062616c616e6365000000000000000000000000600082015250565b6000616539601483615cbd565b915061654482616503565b602082019050919050565b600060208201905081810360008301526165688161652c565b9050919050565b60008151905061657e81615343565b92915050565b60006020828403121561659a57616599615166565b5b60006165a88482850161656f565b91505092915050565b7f4e6f20555344432073656e740000000000000000000000000000000000000000600082015250565b60006165e7600c83615cbd565b91506165f2826165b1565b602082019050919050565b60006020820190508181036000830152616616816165da565b9050919050565b60006060820190506166326000830186615b21565b61663f6020830185615b21565b61664c60408301846152c0565b949350505050565b7f416c726561647920656e61626c65640000000000000000000000000000000000600082015250565b600061668a600f83615cbd565b915061669582616654565b602082019050919050565b600060208201905081810360008301526166b98161667d565b9050919050565b60006040820190506166d56000830185615417565b6166e260208301846152c0565b9392505050565b7f4465706f73697473207061757365640000000000000000000000000000000000600082015250565b600061671f600f83615cbd565b915061672a826166e9565b602082019050919050565b6000602082019050818103600083015261674e81616712565b9050919050565b7f4361702072656163686564000000000000000000000000000000000000000000600082015250565b600061678b600b83615cbd565b915061679682616755565b602082019050919050565b600060208201905081810360008301526167ba8161677e565b9050919050565b7f4e6f742077686974656c69737465640000000000000000000000000000000000600082015250565b60006167f7600f83615cbd565b9150616802826167c1565b602082019050919050565b60006020820190508181036000830152616826816167ea565b9050919050565b600060a0820190506168426000830188615417565b61684f60208301876152c0565b61685c60408301866152c0565b61686960608301856152c0565b6168766080830184615201565b9695505050505050565b60006040820190506168956000830185615b21565b6168a260208301846154bd565b939250505056fea264697066735822122049e6f00f8c5f6204916bc5470cca14f028828e5be8cb7c96f1dbcea0bb37d76364736f6c63430008190033","opcodes":"PUSH1 0x80 PUSH1 0x40 MSTORE PUSH3 0xED4E00 PUSH1 0x2 SSTORE PUSH11 0x422CA8B0A00A425000000 PUSH1 0x3 SSTORE PUSH6 0x48C27395000 PUSH1 0x4 SSTORE CALLVALUE DUP1 ISZERO PUSH2 0x30 JUMPI PUSH1 0x0 DUP1 REVERT JUMPDEST POP PUSH1 0x40 MLOAD PUSH2 0x6F13 CODESIZE SUB DUP1 PUSH2 0x6F13 DUP4 CODECOPY DUP2 DUP2 ADD PUSH1 0x40 MSTORE DUP2 ADD SWAP1 PUSH2 0x52 SWAP2 SWAP1 PUSH2 0x59A JUMP JUMPDEST PUSH1 0x1 DUP1 DUP2 SWAP1 SSTORE POP PUSH1 0x0 JUMPDEST DUP3 MLOAD DUP2 LT ISZERO PUSH2 0x217 JUMPI PUSH2 0x92 PUSH1 0x0 DUP1 SHL DUP5 DUP4 DUP2 MLOAD DUP2 LT PUSH2 0x7F JUMPI PUSH2 0x7E PUSH2 0x5F6 JUMP JUMPDEST JUMPDEST PUSH1 0x20 MUL PUSH1 0x20 ADD ADD MLOAD PUSH2 0x260 PUSH1 0x20 SHL PUSH1 0x20 SHR JUMP JUMPDEST POP PUSH2 0xDD PUSH32 0xA49807205CE4D355092EF5A8A18F56E8913CF4A201FBE287825B095693C21775 DUP5 DUP4 DUP2 MLOAD DUP2 LT PUSH2 0xCA JUMPI PUSH2 0xC9 PUSH2 0x5F6 JUMP JUMPDEST JUMPDEST PUSH1 0x20 MUL PUSH1 0x20 ADD ADD MLOAD PUSH2 0x260 PUSH1 0x20 SHL PUSH1 0x20 SHR JUMP JUMPDEST POP PUSH2 0x128 PUSH32 0x65D7A28E3265B37A6474929F336521B332C1681B933F6CB9F3376673440D862A DUP5 DUP4 DUP2 MLOAD DUP2 LT PUSH2 0x115 JUMPI PUSH2 0x114 PUSH2 0x5F6 JUMP JUMPDEST JUMPDEST PUSH1 0x20 MUL PUSH1 0x20 ADD ADD MLOAD PUSH2 0x260 PUSH1 0x20 SHL PUSH1 0x20 SHR JUMP JUMPDEST POP PUSH2 0x173 PUSH32 0xC806897CAF4FD5068191157E44D3988E43139A37E0B97B6793E1ED1184140604 DUP5 DUP4 DUP2 MLOAD DUP2 LT PUSH2 0x160 JUMPI PUSH2 0x15F PUSH2 0x5F6 JUMP JUMPDEST JUMPDEST PUSH1 0x20 MUL PUSH1 0x20 ADD ADD MLOAD PUSH2 0x260 PUSH1 0x20 SHL PUSH1 0x20 SHR JUMP JUMPDEST POP PUSH2 0x1BE PUSH32 0xF60566C40710959D8D30B6067CE3C53C757BEC78EECB0E46B83C7F8194FFAE37 DUP5 DUP4 DUP2 MLOAD DUP2 LT PUSH2 0x1AB JUMPI PUSH2 0x1AA PUSH2 0x5F6 JUMP JUMPDEST JUMPDEST PUSH1 0x20 MUL PUSH1 0x20 ADD ADD MLOAD PUSH2 0x260 PUSH1 0x20 SHL PUSH1 0x20 SHR JUMP JUMPDEST POP PUSH2 0x209 PUSH32 0x78C90EB9E475048B483A290AEE04B5FE48355537C3623C7637B17D3BED71C6ED DUP5 DUP4 DUP2 MLOAD DUP2 LT PUSH2 0x1F6 JUMPI PUSH2 0x1F5 PUSH2 0x5F6 JUMP JUMPDEST JUMPDEST PUSH1 0x20 MUL PUSH1 0x20 ADD ADD MLOAD PUSH2 0x260 PUSH1 0x20 SHL PUSH1 0x20 SHR JUMP JUMPDEST POP DUP1 DUP1 PUSH1 0x1 ADD SWAP2 POP POP PUSH2 0x5C JUMP JUMPDEST POP DUP1 PUSH1 0x7 PUSH1 0x0 PUSH2 0x100 EXP DUP2 SLOAD DUP2 PUSH20 0xFFFFFFFFFFFFFFFFFFFFFFFFFFFFFFFFFFFFFFFF MUL NOT AND SWAP1 DUP4 PUSH20 0xFFFFFFFFFFFFFFFFFFFFFFFFFFFFFFFFFFFFFFFF AND MUL OR SWAP1 SSTORE POP POP POP PUSH2 0x625 JUMP JUMPDEST PUSH1 0x0 PUSH2 0x272 DUP4 DUP4 PUSH2 0x35D PUSH1 0x20 SHL PUSH1 0x20 SHR JUMP JUMPDEST PUSH2 0x352 JUMPI PUSH1 0x1 PUSH1 0x0 DUP1 DUP6 DUP2 MSTORE PUSH1 0x20 ADD SWAP1 DUP2 MSTORE PUSH1 0x20 ADD PUSH1 0x0 KECCAK256 PUSH1 0x0 ADD PUSH1 0x0 DUP5 PUSH20 0xFFFFFFFFFFFFFFFFFFFFFFFFFFFFFFFFFFFFFFFF AND PUSH20 0xFFFFFFFFFFFFFFFFFFFFFFFFFFFFFFFFFFFFFFFF AND DUP2 MSTORE PUSH1 0x20 ADD SWAP1 DUP2 MSTORE PUSH1 0x20 ADD PUSH1 0x0 KECCAK256 PUSH1 0x0 PUSH2 0x100 EXP DUP2 SLOAD DUP2 PUSH1 0xFF MUL NOT AND SWAP1 DUP4 ISZERO ISZERO MUL OR SWAP1 SSTORE POP PUSH2 0x2EF PUSH2 0x3C7 PUSH1 0x20 SHL PUSH1 0x20 SHR JUMP JUMPDEST PUSH20 0xFFFFFFFFFFFFFFFFFFFFFFFFFFFFFFFFFFFFFFFF AND DUP3 PUSH20 0xFFFFFFFFFFFFFFFFFFFFFFFFFFFFFFFFFFFFFFFF AND DUP5 PUSH32 0x2F8788117E7EFF1D82E926EC794901D17C78024A50270940304540A733656F0D PUSH1 0x40 MLOAD PUSH1 0x40 MLOAD DUP1 SWAP2 SUB SWAP1 LOG4 PUSH1 0x1 SWAP1 POP PUSH2 0x357 JUMP JUMPDEST PUSH1 0x0 SWAP1 POP JUMPDEST SWAP3 SWAP2 POP POP JUMP JUMPDEST PUSH1 0x0 DUP1 PUSH1 0x0 DUP5 DUP2 MSTORE PUSH1 0x20 ADD SWAP1 DUP2 MSTORE PUSH1 0x20 ADD PUSH1 0x0 KECCAK256 PUSH1 0x0 ADD PUSH1 0x0 DUP4 PUSH20 0xFFFFFFFFFFFFFFFFFFFFFFFFFFFFFFFFFFFFFFFF AND PUSH20 0xFFFFFFFFFFFFFFFFFFFFFFFFFFFFFFFFFFFFFFFF AND DUP2 MSTORE PUSH1 0x20 ADD SWAP1 DUP2 MSTORE PUSH1 0x20 ADD PUSH1 0x0 KECCAK256 PUSH1 0x0 SWAP1 SLOAD SWAP1 PUSH2 0x100 EXP SWAP1 DIV PUSH1 0xFF AND SWAP1 POP SWAP3 SWAP2 POP POP JUMP JUMPDEST PUSH1 0x0 CALLER SWAP1 POP SWAP1 JUMP JUMPDEST PUSH1 0x0 PUSH1 0x40 MLOAD SWAP1 POP SWAP1 JUMP JUMPDEST PUSH1 0x0 DUP1 REVERT JUMPDEST PUSH1 0x0 DUP1 REVERT JUMPDEST PUSH1 0x0 DUP1 REVERT JUMPDEST PUSH1 0x0 PUSH1 0x1F NOT PUSH1 0x1F DUP4 ADD AND SWAP1 POP SWAP2 SWAP1 POP JUMP JUMPDEST PUSH32 0x4E487B7100000000000000000000000000000000000000000000000000000000 PUSH1 0x0 MSTORE PUSH1 0x41 PUSH1 0x4 MSTORE PUSH1 0x24 PUSH1 0x0 REVERT JUMPDEST PUSH2 0x431 DUP3 PUSH2 0x3E8 JUMP JUMPDEST DUP2 ADD DUP2 DUP2 LT PUSH8 0xFFFFFFFFFFFFFFFF DUP3 GT OR ISZERO PUSH2 0x450 JUMPI PUSH2 0x44F PUSH2 0x3F9 JUMP JUMPDEST JUMPDEST DUP1 PUSH1 0x40 MSTORE POP POP POP JUMP JUMPDEST PUSH1 0x0 PUSH2 0x463 PUSH2 0x3CF JUMP JUMPDEST SWAP1 POP PUSH2 0x46F DUP3 DUP3 PUSH2 0x428 JUMP JUMPDEST SWAP2 SWAP1 POP JUMP JUMPDEST PUSH1 0x0 PUSH8 0xFFFFFFFFFFFFFFFF DUP3 GT ISZERO PUSH2 0x48F JUMPI PUSH2 0x48E PUSH2 0x3F9 JUMP JUMPDEST JUMPDEST PUSH1 0x20 DUP3 MUL SWAP1 POP PUSH1 0x20 DUP2 ADD SWAP1 POP SWAP2 SWAP1 POP JUMP JUMPDEST PUSH1 0x0 DUP1 REVERT JUMPDEST PUSH1 0x0 PUSH20 0xFFFFFFFFFFFFFFFFFFFFFFFFFFFFFFFFFFFFFFFF DUP3 AND SWAP1 POP SWAP2 SWAP1 POP JUMP JUMPDEST PUSH1 0x0 PUSH2 0x4D0 DUP3 PUSH2 0x4A5 JUMP JUMPDEST SWAP1 POP SWAP2 SWAP1 POP JUMP JUMPDEST PUSH2 0x4E0 DUP2 PUSH2 0x4C5 JUMP JUMPDEST DUP2 EQ PUSH2 0x4EB JUMPI PUSH1 0x0 DUP1 REVERT JUMPDEST POP JUMP JUMPDEST PUSH1 0x0 DUP2 MLOAD SWAP1 POP PUSH2 0x4FD DUP2 PUSH2 0x4D7 JUMP JUMPDEST SWAP3 SWAP2 POP POP JUMP JUMPDEST PUSH1 0x0 PUSH2 0x516 PUSH2 0x511 DUP5 PUSH2 0x474 JUMP JUMPDEST PUSH2 0x459 JUMP JUMPDEST SWAP1 POP DUP1 DUP4 DUP3 MSTORE PUSH1 0x20 DUP3 ADD SWAP1 POP PUSH1 0x20 DUP5 MUL DUP4 ADD DUP6 DUP2 GT ISZERO PUSH2 0x539 JUMPI PUSH2 0x538 PUSH2 0x4A0 JUMP JUMPDEST JUMPDEST DUP4 JUMPDEST DUP2 DUP2 LT ISZERO PUSH2 0x562 JUMPI DUP1 PUSH2 0x54E DUP9 DUP3 PUSH2 0x4EE JUMP JUMPDEST DUP5 MSTORE PUSH1 0x20 DUP5 ADD SWAP4 POP POP PUSH1 0x20 DUP2 ADD SWAP1 POP PUSH2 0x53B JUMP JUMPDEST POP POP POP SWAP4 SWAP3 POP POP POP JUMP JUMPDEST PUSH1 0x0 DUP3 PUSH1 0x1F DUP4 ADD SLT PUSH2 0x581 JUMPI PUSH2 0x580 PUSH2 0x3E3 JUMP JUMPDEST JUMPDEST DUP2 MLOAD PUSH2 0x591 DUP5 DUP3 PUSH1 0x20 DUP7 ADD PUSH2 0x503 JUMP JUMPDEST SWAP2 POP POP SWAP3 SWAP2 POP POP JUMP JUMPDEST PUSH1 0x0 DUP1 PUSH1 0x40 DUP4 DUP6 SUB SLT ISZERO PUSH2 0x5B1 JUMPI PUSH2 0x5B0 PUSH2 0x3D9 JUMP JUMPDEST JUMPDEST PUSH1 0x0 DUP4 ADD MLOAD PUSH8 0xFFFFFFFFFFFFFFFF DUP2 GT ISZERO PUSH2 0x5CF JUMPI PUSH2 0x5CE PUSH2 0x3DE JUMP JUMPDEST JUMPDEST PUSH2 0x5DB DUP6 DUP3 DUP7 ADD PUSH2 0x56C JUMP JUMPDEST SWAP3 POP POP PUSH1 0x20 PUSH2 0x5EC DUP6 DUP3 DUP7 ADD PUSH2 0x4EE JUMP JUMPDEST SWAP2 POP POP SWAP3 POP SWAP3 SWAP1 POP JUMP JUMPDEST PUSH32 0x4E487B7100000000000000000000000000000000000000000000000000000000 PUSH1 0x0 MSTORE PUSH1 0x32 PUSH1 0x4 MSTORE PUSH1 0x24 PUSH1 0x0 REVERT JUMPDEST PUSH2 0x68DF DUP1 PUSH2 0x634 PUSH1 0x0 CODECOPY PUSH1 0x0 RETURN INVALID PUSH1 0x80 PUSH1 0x40 MSTORE PUSH1 0x4 CALLDATASIZE LT PUSH2 0x3FE JUMPI PUSH1 0x0 CALLDATALOAD PUSH1 0xE0 SHR DUP1 PUSH4 0x885F5029 GT PUSH2 0x213 JUMPI DUP1 PUSH4 0xB758AEAA GT PUSH2 0x123 JUMPI DUP1 PUSH4 0xE340B783 GT PUSH2 0xAB JUMPI DUP1 PUSH4 0xEE947A7C GT PUSH2 0x7A JUMPI DUP1 PUSH4 0xEE947A7C EQ PUSH2 0xF45 JUMPI DUP1 PUSH4 0xF29B2239 EQ PUSH2 0xF70 JUMPI DUP1 PUSH4 0xF5F69AF2 EQ PUSH2 0xF9B JUMPI DUP1 PUSH4 0xF6326FB3 EQ PUSH2 0xFC4 JUMPI DUP1 PUSH4 0xF688BCFB EQ PUSH2 0xFCE JUMPI PUSH2 0x405 JUMP JUMPDEST DUP1 PUSH4 0xE340B783 EQ PUSH2 0xE9B JUMPI DUP1 PUSH4 0xE399067F EQ PUSH2 0xEC6 JUMPI DUP1 PUSH4 0xE63AB1E9 EQ PUSH2 0xEDD JUMPI DUP1 PUSH4 0xE9FE0C78 EQ PUSH2 0xF08 JUMPI PUSH2 0x405 JUMP JUMPDEST DUP1 PUSH4 0xD830D5CC GT PUSH2 0xF2 JUMPI DUP1 PUSH4 0xD830D5CC EQ PUSH2 0xDC8 JUMPI DUP1 PUSH4 0xDA8D5ADD EQ PUSH2 0xDF1 JUMPI DUP1 PUSH4 0xE02F6ACA EQ PUSH2 0xE08 JUMPI DUP1 PUSH4 0xE043B2B2 EQ PUSH2 0xE45 JUMPI DUP1 PUSH4 0xE15E23C1 EQ PUSH2 0xE70 JUMPI PUSH2 0x405 JUMP JUMPDEST DUP1 PUSH4 0xB758AEAA EQ PUSH2 0xD36 JUMPI DUP1 PUSH4 0xBDA821E8 EQ PUSH2 0xD5F JUMPI DUP1 PUSH4 0xC771C390 EQ PUSH2 0xD76 JUMPI DUP1 PUSH4 0xD547741F EQ PUSH2 0xD9F JUMPI PUSH2 0x405 JUMP JUMPDEST DUP1 PUSH4 0x97D9E5B4 GT PUSH2 0x1A6 JUMPI DUP1 PUSH4 0xA2BDEDF4 GT PUSH2 0x175 JUMPI DUP1 PUSH4 0xA2BDEDF4 EQ PUSH2 0xC44 JUMPI DUP1 PUSH4 0xA59AA5A6 EQ PUSH2 0xC81 JUMPI DUP1 PUSH4 0xB2118A8D EQ PUSH2 0xCB7 JUMPI DUP1 PUSH4 0xB2B77AE2 EQ PUSH2 0xCE0 JUMPI DUP1 PUSH4 0xB65BA94B EQ PUSH2 0xD0B JUMPI PUSH2 0x405 JUMP JUMPDEST DUP1 PUSH4 0x97D9E5B4 EQ PUSH2 0xB86 JUMPI DUP1 PUSH4 0x9DDC3912 EQ PUSH2 0xBB1 JUMPI DUP1 PUSH4 0x9E657E33 EQ PUSH2 0xBDC JUMPI DUP1 PUSH4 0xA217FDDF EQ PUSH2 0xC19 JUMPI PUSH2 0x405 JUMP JUMPDEST DUP1 PUSH4 0x89BAD0A6 GT PUSH2 0x1E2 JUMPI DUP1 PUSH4 0x89BAD0A6 EQ PUSH2 0xACC JUMPI DUP1 PUSH4 0x8B713B2E EQ PUSH2 0xAF5 JUMPI DUP1 PUSH4 0x91D14854 EQ PUSH2 0xB20 JUMPI DUP1 PUSH4 0x93055C43 EQ PUSH2 0xB5D JUMPI PUSH2 0x405 JUMP JUMPDEST DUP1 PUSH4 0x885F5029 EQ PUSH2 0xA0E JUMPI DUP1 PUSH4 0x886D589D EQ PUSH2 0xA39 JUMPI DUP1 PUSH4 0x899AA991 EQ PUSH2 0xA76 JUMPI DUP1 PUSH4 0x89A30271 EQ PUSH2 0xAA1 JUMPI PUSH2 0x405 JUMP JUMPDEST DUP1 PUSH4 0x41DEBF1F GT PUSH2 0x30E JUMPI DUP1 PUSH4 0x64021B13 GT PUSH2 0x2A1 JUMPI DUP1 PUSH4 0x72E55399 GT PUSH2 0x270 JUMPI DUP1 PUSH4 0x72E55399 EQ PUSH2 0x93F JUMPI DUP1 PUSH4 0x75B238FC EQ PUSH2 0x968 JUMPI DUP1 PUSH4 0x762E1C73 EQ PUSH2 0x993 JUMPI DUP1 PUSH4 0x76C1D3DB EQ PUSH2 0x9BC JUMPI DUP1 PUSH4 0x867D099A EQ PUSH2 0x9E5 JUMPI PUSH2 0x405 JUMP JUMPDEST DUP1 PUSH4 0x64021B13 EQ PUSH2 0x8CC JUMPI DUP1 PUSH4 0x6426BE48 EQ PUSH2 0x8D6 JUMPI DUP1 PUSH4 0x6C6FF56C EQ PUSH2 0x8FF JUMPI DUP1 PUSH4 0x6EC23995 EQ PUSH2 0x916 JUMPI PUSH2 0x405 JUMP JUMPDEST DUP1 PUSH4 0x53D6FD59 GT PUSH2 0x2DD JUMPI DUP1 PUSH4 0x53D6FD59 EQ PUSH2 0x810 JUMPI DUP1 PUSH4 0x588583A0 EQ PUSH2 0x839 JUMPI DUP1 PUSH4 0x5E2C19DB EQ PUSH2 0x864 JUMPI DUP1 PUSH4 0x6068D6CB EQ PUSH2 0x8A1 JUMPI PUSH2 0x405 JUMP JUMPDEST DUP1 PUSH4 0x41DEBF1F EQ PUSH2 0x74F JUMPI DUP1 PUSH4 0x47AF19AA EQ PUSH2 0x778 JUMPI DUP1 PUSH4 0x4E43603A EQ PUSH2 0x7A1 JUMPI DUP1 PUSH4 0x51FB012D EQ PUSH2 0x7E5 JUMPI PUSH2 0x405 JUMP JUMPDEST DUP1 PUSH4 0x27175B23 GT PUSH2 0x391 JUMPI DUP1 PUSH4 0x2F2FF15D GT PUSH2 0x360 JUMPI DUP1 PUSH4 0x2F2FF15D EQ PUSH2 0x658 JUMPI DUP1 PUSH4 0x3408567C EQ PUSH2 0x681 JUMPI DUP1 PUSH4 0x36568ABE EQ PUSH2 0x6BE JUMPI DUP1 PUSH4 0x3AC43970 EQ PUSH2 0x6E7 JUMPI DUP1 PUSH4 0x3AF32ABF EQ PUSH2 0x712 JUMPI PUSH2 0x405 JUMP JUMPDEST DUP1 PUSH4 0x27175B23 EQ PUSH2 0x5B0 JUMPI DUP1 PUSH4 0x275991D2 EQ PUSH2 0x5DB JUMPI DUP1 PUSH4 0x2A5BF6D2 EQ PUSH2 0x5F2 JUMPI DUP1 PUSH4 0x2E1A7D4D EQ PUSH2 0x62F JUMPI PUSH2 0x405 JUMP JUMPDEST DUP1 PUSH4 0xC016AD5 GT PUSH2 0x3CD JUMPI DUP1 PUSH4 0xC016AD5 EQ PUSH2 0x4F2 JUMPI DUP1 PUSH4 0x1C5AEEF7 EQ PUSH2 0x51D JUMPI DUP1 PUSH4 0x246D47B7 EQ PUSH2 0x548 JUMPI DUP1 PUSH4 0x248A9CA3 EQ PUSH2 0x573 JUMPI PUSH2 0x405 JUMP JUMPDEST DUP1 PUSH4 0x1FFC9A7 EQ PUSH2 0x40A JUMPI DUP1 PUSH4 0x4C68AF0 EQ PUSH2 0x447 JUMPI DUP1 PUSH4 0x52D9E7E EQ PUSH2 0x484 JUMPI DUP1 PUSH4 0x8F43333 EQ PUSH2 0x4AD JUMPI PUSH2 0x405 JUMP JUMPDEST CALLDATASIZE PUSH2 0x405 JUMPI STOP JUMPDEST PUSH1 0x0 DUP1 REVERT JUMPDEST CALLVALUE DUP1 ISZERO PUSH2 0x416 JUMPI PUSH1 0x0 DUP1 REVERT JUMPDEST POP PUSH2 0x431 PUSH1 0x4 DUP1 CALLDATASIZE SUB DUP2 ADD SWAP1 PUSH2 0x42C SWAP2 SWAP1 PUSH2 0x51C8 JUMP JUMPDEST PUSH2 0xFF7 JUMP JUMPDEST PUSH1 0x40 MLOAD PUSH2 0x43E SWAP2 SWAP1 PUSH2 0x5210 JUMP JUMPDEST PUSH1 0x40 MLOAD DUP1 SWAP2 SUB SWAP1 RETURN JUMPDEST CALLVALUE DUP1 ISZERO PUSH2 0x453 JUMPI PUSH1 0x0 DUP1 REVERT JUMPDEST POP PUSH2 0x46E PUSH1 0x4 DUP1 CALLDATASIZE SUB DUP2 ADD SWAP1 PUSH2 0x469 SWAP2 SWAP1 PUSH2 0x5289 JUMP JUMPDEST PUSH2 0x1071 JUMP JUMPDEST PUSH1 0x40 MLOAD PUSH2 0x47B SWAP2 SWAP1 PUSH2 0x52CF JUMP JUMPDEST PUSH1 0x40 MLOAD DUP1 SWAP2 SUB SWAP1 RETURN JUMPDEST CALLVALUE DUP1 ISZERO PUSH2 0x490 JUMPI PUSH1 0x0 DUP1 REVERT JUMPDEST POP PUSH2 0x4AB PUSH1 0x4 DUP1 CALLDATASIZE SUB DUP2 ADD SWAP1 PUSH2 0x4A6 SWAP2 SWAP1 PUSH2 0x5316 JUMP JUMPDEST PUSH2 0x1089 JUMP JUMPDEST STOP JUMPDEST CALLVALUE DUP1 ISZERO PUSH2 0x4B9 JUMPI PUSH1 0x0 DUP1 REVERT JUMPDEST POP PUSH2 0x4D4 PUSH1 0x4 DUP1 CALLDATASIZE SUB DUP2 ADD SWAP1 PUSH2 0x4CF SWAP2 SWAP1 PUSH2 0x536F JUMP JUMPDEST PUSH2 0x10D1 JUMP JUMPDEST PUSH1 0x40 MLOAD PUSH2 0x4E9 SWAP10 SWAP9 SWAP8 SWAP7 SWAP6 SWAP5 SWAP4 SWAP3 SWAP2 SWAP1 PUSH2 0x5426 JUMP JUMPDEST PUSH1 0x40 MLOAD DUP1 SWAP2 SUB SWAP1 RETURN JUMPDEST CALLVALUE DUP1 ISZERO PUSH2 0x4FE JUMPI PUSH1 0x0 DUP1 REVERT JUMPDEST POP PUSH2 0x507 PUSH2 0x117D JUMP JUMPDEST PUSH1 0x40 MLOAD PUSH2 0x514 SWAP2 SWAP1 PUSH2 0x54CC JUMP JUMPDEST PUSH1 0x40 MLOAD DUP1 SWAP2 SUB SWAP1 RETURN JUMPDEST CALLVALUE DUP1 ISZERO PUSH2 0x529 JUMPI PUSH1 0x0 DUP1 REVERT JUMPDEST POP PUSH2 0x532 PUSH2 0x11A1 JUMP JUMPDEST PUSH1 0x40 MLOAD PUSH2 0x53F SWAP2 SWAP1 PUSH2 0x52CF JUMP JUMPDEST PUSH1 0x40 MLOAD DUP1 SWAP2 SUB SWAP1 RETURN JUMPDEST CALLVALUE DUP1 ISZERO PUSH2 0x554 JUMPI PUSH1 0x0 DUP1 REVERT JUMPDEST POP PUSH2 0x55D PUSH2 0x11A7 JUMP JUMPDEST PUSH1 0x40 MLOAD PUSH2 0x56A SWAP2 SWAP1 PUSH2 0x5210 JUMP JUMPDEST PUSH1 0x40 MLOAD DUP1 SWAP2 SUB SWAP1 RETURN JUMPDEST CALLVALUE DUP1 ISZERO PUSH2 0x57F JUMPI PUSH1 0x0 DUP1 REVERT JUMPDEST POP PUSH2 0x59A PUSH1 0x4 DUP1 CALLDATASIZE SUB DUP2 ADD SWAP1 PUSH2 0x595 SWAP2 SWAP1 PUSH2 0x5513 JUMP JUMPDEST PUSH2 0x11BA JUMP JUMPDEST PUSH1 0x40 MLOAD PUSH2 0x5A7 SWAP2 SWAP1 PUSH2 0x54CC JUMP JUMPDEST PUSH1 0x40 MLOAD DUP1 SWAP2 SUB SWAP1 RETURN JUMPDEST CALLVALUE DUP1 ISZERO PUSH2 0x5BC JUMPI PUSH1 0x0 DUP1 REVERT JUMPDEST POP PUSH2 0x5C5 PUSH2 0x11D9 JUMP JUMPDEST PUSH1 0x40 MLOAD PUSH2 0x5D2 SWAP2 SWAP1 PUSH2 0x52CF JUMP JUMPDEST PUSH1 0x40 MLOAD DUP1 SWAP2 SUB SWAP1 RETURN JUMPDEST CALLVALUE DUP1 ISZERO PUSH2 0x5E7 JUMPI PUSH1 0x0 DUP1 REVERT JUMPDEST POP PUSH2 0x5F0 PUSH2 0x11DF JUMP JUMPDEST STOP JUMPDEST CALLVALUE DUP1 ISZERO PUSH2 0x5FE JUMPI PUSH1 0x0 DUP1 REVERT JUMPDEST POP PUSH2 0x619 PUSH1 0x4 DUP1 CALLDATASIZE SUB DUP2 ADD SWAP1 PUSH2 0x614 SWAP2 SWAP1 PUSH2 0x5289 JUMP JUMPDEST PUSH2 0x138E JUMP JUMPDEST PUSH1 0x40 MLOAD PUSH2 0x626 SWAP2 SWAP1 PUSH2 0x56D4 JUMP JUMPDEST PUSH1 0x40 MLOAD DUP1 SWAP2 SUB SWAP1 RETURN JUMPDEST CALLVALUE DUP1 ISZERO PUSH2 0x63B JUMPI PUSH1 0x0 DUP1 REVERT JUMPDEST POP PUSH2 0x656 PUSH1 0x4 DUP1 CALLDATASIZE SUB DUP2 ADD SWAP1 PUSH2 0x651 SWAP2 SWAP1 PUSH2 0x56F6 JUMP JUMPDEST PUSH2 0x14FC JUMP JUMPDEST STOP JUMPDEST CALLVALUE DUP1 ISZERO PUSH2 0x664 JUMPI PUSH1 0x0 DUP1 REVERT JUMPDEST POP PUSH2 0x67F PUSH1 0x4 DUP1 CALLDATASIZE SUB DUP2 ADD SWAP1 PUSH2 0x67A SWAP2 SWAP1 PUSH2 0x5723 JUMP JUMPDEST PUSH2 0x1A73 JUMP JUMPDEST STOP JUMPDEST CALLVALUE DUP1 ISZERO PUSH2 0x68D JUMPI PUSH1 0x0 DUP1 REVERT JUMPDEST POP PUSH2 0x6A8 PUSH1 0x4 DUP1 CALLDATASIZE SUB DUP2 ADD SWAP1 PUSH2 0x6A3 SWAP2 SWAP1 PUSH2 0x5289 JUMP JUMPDEST PUSH2 0x1A95 JUMP JUMPDEST PUSH1 0x40 MLOAD PUSH2 0x6B5 SWAP2 SWAP1 PUSH2 0x52CF JUMP JUMPDEST PUSH1 0x40 MLOAD DUP1 SWAP2 SUB SWAP1 RETURN JUMPDEST CALLVALUE DUP1 ISZERO PUSH2 0x6CA JUMPI PUSH1 0x0 DUP1 REVERT JUMPDEST POP PUSH2 0x6E5 PUSH1 0x4 DUP1 CALLDATASIZE SUB DUP2 ADD SWAP1 PUSH2 0x6E0 SWAP2 SWAP1 PUSH2 0x5723 JUMP JUMPDEST PUSH2 0x1AAD JUMP JUMPDEST STOP JUMPDEST CALLVALUE DUP1 ISZERO PUSH2 0x6F3 JUMPI PUSH1 0x0 DUP1 REVERT JUMPDEST POP PUSH2 0x6FC PUSH2 0x1B28 JUMP JUMPDEST PUSH1 0x40 MLOAD PUSH2 0x709 SWAP2 SWAP1 PUSH2 0x52CF JUMP JUMPDEST PUSH1 0x40 MLOAD DUP1 SWAP2 SUB SWAP1 RETURN JUMPDEST CALLVALUE DUP1 ISZERO PUSH2 0x71E JUMPI PUSH1 0x0 DUP1 REVERT JUMPDEST POP PUSH2 0x739 PUSH1 0x4 DUP1 CALLDATASIZE SUB DUP2 ADD SWAP1 PUSH2 0x734 SWAP2 SWAP1 PUSH2 0x5289 JUMP JUMPDEST PUSH2 0x1B2E JUMP JUMPDEST PUSH1 0x40 MLOAD PUSH2 0x746 SWAP2 SWAP1 PUSH2 0x5210 JUMP JUMPDEST PUSH1 0x40 MLOAD DUP1 SWAP2 SUB SWAP1 RETURN JUMPDEST CALLVALUE DUP1 ISZERO PUSH2 0x75B JUMPI PUSH1 0x0 DUP1 REVERT JUMPDEST POP PUSH2 0x776 PUSH1 0x4 DUP1 CALLDATASIZE SUB DUP2 ADD SWAP1 PUSH2 0x771 SWAP2 SWAP1 PUSH2 0x581E JUMP JUMPDEST PUSH2 0x1B4E JUMP JUMPDEST STOP JUMPDEST CALLVALUE DUP1 ISZERO PUSH2 0x784 JUMPI PUSH1 0x0 DUP1 REVERT JUMPDEST POP PUSH2 0x79F PUSH1 0x4 DUP1 CALLDATASIZE SUB DUP2 ADD SWAP1 PUSH2 0x79A SWAP2 SWAP1 PUSH2 0x58F5 JUMP JUMPDEST PUSH2 0x1D60 JUMP JUMPDEST STOP JUMPDEST CALLVALUE DUP1 ISZERO PUSH2 0x7AD JUMPI PUSH1 0x0 DUP1 REVERT JUMPDEST POP PUSH2 0x7C8 PUSH1 0x4 DUP1 CALLDATASIZE SUB DUP2 ADD SWAP1 PUSH2 0x7C3 SWAP2 SWAP1 PUSH2 0x5289 JUMP JUMPDEST PUSH2 0x1F36 JUMP JUMPDEST PUSH1 0x40 MLOAD PUSH2 0x7DC SWAP9 SWAP8 SWAP7 SWAP6 SWAP5 SWAP4 SWAP3 SWAP2 SWAP1 PUSH2 0x5976 JUMP JUMPDEST PUSH1 0x40 MLOAD DUP1 SWAP2 SUB SWAP1 RETURN JUMPDEST CALLVALUE DUP1 ISZERO PUSH2 0x7F1 JUMPI PUSH1 0x0 DUP1 REVERT JUMPDEST POP PUSH2 0x7FA PUSH2 0x22FE JUMP JUMPDEST PUSH1 0x40 MLOAD PUSH2 0x807 SWAP2 SWAP1 PUSH2 0x5210 JUMP JUMPDEST PUSH1 0x40 MLOAD DUP1 SWAP2 SUB SWAP1 RETURN JUMPDEST CALLVALUE DUP1 ISZERO PUSH2 0x81C JUMPI PUSH1 0x0 DUP1 REVERT JUMPDEST POP PUSH2 0x837 PUSH1 0x4 DUP1 CALLDATASIZE SUB DUP2 ADD SWAP1 PUSH2 0x832 SWAP2 SWAP1 PUSH2 0x59F4 JUMP JUMPDEST PUSH2 0x2311 JUMP JUMPDEST STOP JUMPDEST CALLVALUE DUP1 ISZERO PUSH2 0x845 JUMPI PUSH1 0x0 DUP1 REVERT JUMPDEST POP PUSH2 0x84E PUSH2 0x23E5 JUMP JUMPDEST PUSH1 0x40 MLOAD PUSH2 0x85B SWAP2 SWAP1 PUSH2 0x52CF JUMP JUMPDEST PUSH1 0x40 MLOAD DUP1 SWAP2 SUB SWAP1 RETURN JUMPDEST CALLVALUE DUP1 ISZERO PUSH2 0x870 JUMPI PUSH1 0x0 DUP1 REVERT JUMPDEST POP PUSH2 0x88B PUSH1 0x4 DUP1 CALLDATASIZE SUB DUP2 ADD SWAP1 PUSH2 0x886 SWAP2 SWAP1 PUSH2 0x5289 JUMP JUMPDEST PUSH2 0x23EB JUMP JUMPDEST PUSH1 0x40 MLOAD PUSH2 0x898 SWAP2 SWAP1 PUSH2 0x5210 JUMP JUMPDEST PUSH1 0x40 MLOAD DUP1 SWAP2 SUB SWAP1 RETURN JUMPDEST CALLVALUE DUP1 ISZERO PUSH2 0x8AD JUMPI PUSH1 0x0 DUP1 REVERT JUMPDEST POP PUSH2 0x8B6 PUSH2 0x240B JUMP JUMPDEST PUSH1 0x40 MLOAD PUSH2 0x8C3 SWAP2 SWAP1 PUSH2 0x5210 JUMP JUMPDEST PUSH1 0x40 MLOAD DUP1 SWAP2 SUB SWAP1 RETURN JUMPDEST PUSH2 0x8D4 PUSH2 0x241E JUMP JUMPDEST STOP JUMPDEST CALLVALUE DUP1 ISZERO PUSH2 0x8E2 JUMPI PUSH1 0x0 DUP1 REVERT JUMPDEST POP PUSH2 0x8FD PUSH1 0x4 DUP1 CALLDATASIZE SUB DUP2 ADD SWAP1 PUSH2 0x8F8 SWAP2 SWAP1 PUSH2 0x5A34 JUMP JUMPDEST PUSH2 0x24FA JUMP JUMPDEST STOP JUMPDEST CALLVALUE DUP1 ISZERO PUSH2 0x90B JUMPI PUSH1 0x0 DUP1 REVERT JUMPDEST POP PUSH2 0x914 PUSH2 0x2596 JUMP JUMPDEST STOP JUMPDEST CALLVALUE DUP1 ISZERO PUSH2 0x922 JUMPI PUSH1 0x0 DUP1 REVERT JUMPDEST POP PUSH2 0x93D PUSH1 0x4 DUP1 CALLDATASIZE SUB DUP2 ADD SWAP1 PUSH2 0x938 SWAP2 SWAP1 PUSH2 0x536F JUMP JUMPDEST PUSH2 0x275B JUMP JUMPDEST STOP JUMPDEST CALLVALUE DUP1 ISZERO PUSH2 0x94B JUMPI PUSH1 0x0 DUP1 REVERT JUMPDEST POP PUSH2 0x966 PUSH1 0x4 DUP1 CALLDATASIZE SUB DUP2 ADD SWAP1 PUSH2 0x961 SWAP2 SWAP1 PUSH2 0x5A74 JUMP JUMPDEST PUSH2 0x2881 JUMP JUMPDEST STOP JUMPDEST CALLVALUE DUP1 ISZERO PUSH2 0x974 JUMPI PUSH1 0x0 DUP1 REVERT JUMPDEST POP PUSH2 0x97D PUSH2 0x2F65 JUMP JUMPDEST PUSH1 0x40 MLOAD PUSH2 0x98A SWAP2 SWAP1 PUSH2 0x54CC JUMP JUMPDEST PUSH1 0x40 MLOAD DUP1 SWAP2 SUB SWAP1 RETURN JUMPDEST CALLVALUE DUP1 ISZERO PUSH2 0x99F JUMPI PUSH1 0x0 DUP1 REVERT JUMPDEST POP PUSH2 0x9BA PUSH1 0x4 DUP1 CALLDATASIZE SUB DUP2 ADD SWAP1 PUSH2 0x9B5 SWAP2 SWAP1 PUSH2 0x536F JUMP JUMPDEST PUSH2 0x2F89 JUMP JUMPDEST STOP JUMPDEST CALLVALUE DUP1 ISZERO PUSH2 0x9C8 JUMPI PUSH1 0x0 DUP1 REVERT JUMPDEST POP PUSH2 0x9E3 PUSH1 0x4 DUP1 CALLDATASIZE SUB DUP2 ADD SWAP1 PUSH2 0x9DE SWAP2 SWAP1 PUSH2 0x56F6 JUMP JUMPDEST PUSH2 0x30AF JUMP JUMPDEST STOP JUMPDEST CALLVALUE DUP1 ISZERO PUSH2 0x9F1 JUMPI PUSH1 0x0 DUP1 REVERT JUMPDEST POP PUSH2 0xA0C PUSH1 0x4 DUP1 CALLDATASIZE SUB DUP2 ADD SWAP1 PUSH2 0xA07 SWAP2 SWAP1 PUSH2 0x5AC1 JUMP JUMPDEST PUSH2 0x32A8 JUMP JUMPDEST STOP JUMPDEST CALLVALUE DUP1 ISZERO PUSH2 0xA1A JUMPI PUSH1 0x0 DUP1 REVERT JUMPDEST POP PUSH2 0xA23 PUSH2 0x344B JUMP JUMPDEST PUSH1 0x40 MLOAD PUSH2 0xA30 SWAP2 SWAP1 PUSH2 0x54CC JUMP JUMPDEST PUSH1 0x40 MLOAD DUP1 SWAP2 SUB SWAP1 RETURN JUMPDEST CALLVALUE DUP1 ISZERO PUSH2 0xA45 JUMPI PUSH1 0x0 DUP1 REVERT JUMPDEST POP PUSH2 0xA60 PUSH1 0x4 DUP1 CALLDATASIZE SUB DUP2 ADD SWAP1 PUSH2 0xA5B SWAP2 SWAP1 PUSH2 0x5289 JUMP JUMPDEST PUSH2 0x346F JUMP JUMPDEST PUSH1 0x40 MLOAD PUSH2 0xA6D SWAP2 SWAP1 PUSH2 0x52CF JUMP JUMPDEST PUSH1 0x40 MLOAD DUP1 SWAP2 SUB SWAP1 RETURN JUMPDEST CALLVALUE DUP1 ISZERO PUSH2 0xA82 JUMPI PUSH1 0x0 DUP1 REVERT JUMPDEST POP PUSH2 0xA8B PUSH2 0x3487 JUMP JUMPDEST PUSH1 0x40 MLOAD PUSH2 0xA98 SWAP2 SWAP1 PUSH2 0x52CF JUMP JUMPDEST PUSH1 0x40 MLOAD DUP1 SWAP2 SUB SWAP1 RETURN JUMPDEST CALLVALUE DUP1 ISZERO PUSH2 0xAAD JUMPI PUSH1 0x0 DUP1 REVERT JUMPDEST POP PUSH2 0xAB6 PUSH2 0x348D JUMP JUMPDEST PUSH1 0x40 MLOAD PUSH2 0xAC3 SWAP2 SWAP1 PUSH2 0x5B30 JUMP JUMPDEST PUSH1 0x40 MLOAD DUP1 SWAP2 SUB SWAP1 RETURN JUMPDEST CALLVALUE DUP1 ISZERO PUSH2 0xAD8 JUMPI PUSH1 0x0 DUP1 REVERT JUMPDEST POP PUSH2 0xAF3 PUSH1 0x4 DUP1 CALLDATASIZE SUB DUP2 ADD SWAP1 PUSH2 0xAEE SWAP2 SWAP1 PUSH2 0x5289 JUMP JUMPDEST PUSH2 0x34A5 JUMP JUMPDEST STOP JUMPDEST CALLVALUE DUP1 ISZERO PUSH2 0xB01 JUMPI PUSH1 0x0 DUP1 REVERT JUMPDEST POP PUSH2 0xB0A PUSH2 0x35BA JUMP JUMPDEST PUSH1 0x40 MLOAD PUSH2 0xB17 SWAP2 SWAP1 PUSH2 0x52CF JUMP JUMPDEST PUSH1 0x40 MLOAD DUP1 SWAP2 SUB SWAP1 RETURN JUMPDEST CALLVALUE DUP1 ISZERO PUSH2 0xB2C JUMPI PUSH1 0x0 DUP1 REVERT JUMPDEST POP PUSH2 0xB47 PUSH1 0x4 DUP1 CALLDATASIZE SUB DUP2 ADD SWAP1 PUSH2 0xB42 SWAP2 SWAP1 PUSH2 0x5723 JUMP JUMPDEST PUSH2 0x35C0 JUMP JUMPDEST PUSH1 0x40 MLOAD PUSH2 0xB54 SWAP2 SWAP1 PUSH2 0x5210 JUMP JUMPDEST PUSH1 0x40 MLOAD DUP1 SWAP2 SUB SWAP1 RETURN JUMPDEST CALLVALUE DUP1 ISZERO PUSH2 0xB69 JUMPI PUSH1 0x0 DUP1 REVERT JUMPDEST POP PUSH2 0xB84 PUSH1 0x4 DUP1 CALLDATASIZE SUB DUP2 ADD SWAP1 PUSH2 0xB7F SWAP2 SWAP1 PUSH2 0x56F6 JUMP JUMPDEST PUSH2 0x362A JUMP JUMPDEST STOP JUMPDEST CALLVALUE DUP1 ISZERO PUSH2 0xB92 JUMPI PUSH1 0x0 DUP1 REVERT JUMPDEST POP PUSH2 0xB9B PUSH2 0x3880 JUMP JUMPDEST PUSH1 0x40 MLOAD PUSH2 0xBA8 SWAP2 SWAP1 PUSH2 0x52CF JUMP JUMPDEST PUSH1 0x40 MLOAD DUP1 SWAP2 SUB SWAP1 RETURN JUMPDEST CALLVALUE DUP1 ISZERO PUSH2 0xBBD JUMPI PUSH1 0x0 DUP1 REVERT JUMPDEST POP PUSH2 0xBC6 PUSH2 0x3886 JUMP JUMPDEST PUSH1 0x40 MLOAD PUSH2 0xBD3 SWAP2 SWAP1 PUSH2 0x52CF JUMP JUMPDEST PUSH1 0x40 MLOAD DUP1 SWAP2 SUB SWAP1 RETURN JUMPDEST CALLVALUE DUP1 ISZERO PUSH2 0xBE8 JUMPI PUSH1 0x0 DUP1 REVERT JUMPDEST POP PUSH2 0xC03 PUSH1 0x4 DUP1 CALLDATASIZE SUB DUP2 ADD SWAP1 PUSH2 0xBFE SWAP2 SWAP1 PUSH2 0x56F6 JUMP JUMPDEST PUSH2 0x388C JUMP JUMPDEST PUSH1 0x40 MLOAD PUSH2 0xC10 SWAP2 SWAP1 PUSH2 0x5B30 JUMP JUMPDEST PUSH1 0x40 MLOAD DUP1 SWAP2 SUB SWAP1 RETURN JUMPDEST CALLVALUE DUP1 ISZERO PUSH2 0xC25 JUMPI PUSH1 0x0 DUP1 REVERT JUMPDEST POP PUSH2 0xC2E PUSH2 0x38CB JUMP JUMPDEST PUSH1 0x40 MLOAD PUSH2 0xC3B SWAP2 SWAP1 PUSH2 0x54CC JUMP JUMPDEST PUSH1 0x40 MLOAD DUP1 SWAP2 SUB SWAP1 RETURN JUMPDEST CALLVALUE DUP1 ISZERO PUSH2 0xC50 JUMPI PUSH1 0x0 DUP1 REVERT JUMPDEST POP PUSH2 0xC6B PUSH1 0x4 DUP1 CALLDATASIZE SUB DUP2 ADD SWAP1 PUSH2 0xC66 SWAP2 SWAP1 PUSH2 0x56F6 JUMP JUMPDEST PUSH2 0x38D2 JUMP JUMPDEST PUSH1 0x40 MLOAD PUSH2 0xC78 SWAP2 SWAP1 PUSH2 0x5B30 JUMP JUMPDEST PUSH1 0x40 MLOAD DUP1 SWAP2 SUB SWAP1 RETURN JUMPDEST CALLVALUE DUP1 ISZERO PUSH2 0xC8D JUMPI PUSH1 0x0 DUP1 REVERT JUMPDEST POP PUSH2 0xC96 PUSH2 0x3911 JUMP JUMPDEST PUSH1 0x40 MLOAD PUSH2 0xCAE SWAP13 SWAP12 SWAP11 SWAP10 SWAP9 SWAP8 SWAP7 SWAP6 SWAP5 SWAP4 SWAP3 SWAP2 SWAP1 PUSH2 0x5B4B JUMP JUMPDEST PUSH1 0x40 MLOAD DUP1 SWAP2 SUB SWAP1 RETURN JUMPDEST CALLVALUE DUP1 ISZERO PUSH2 0xCC3 JUMPI PUSH1 0x0 DUP1 REVERT JUMPDEST POP PUSH2 0xCDE PUSH1 0x4 DUP1 CALLDATASIZE SUB DUP2 ADD SWAP1 PUSH2 0xCD9 SWAP2 SWAP1 PUSH2 0x5C05 JUMP JUMPDEST PUSH2 0x39FC JUMP JUMPDEST STOP JUMPDEST CALLVALUE DUP1 ISZERO PUSH2 0xCEC JUMPI PUSH1 0x0 DUP1 REVERT JUMPDEST POP PUSH2 0xCF5 PUSH2 0x3B7F JUMP JUMPDEST PUSH1 0x40 MLOAD PUSH2 0xD02 SWAP2 SWAP1 PUSH2 0x5210 JUMP JUMPDEST PUSH1 0x40 MLOAD DUP1 SWAP2 SUB SWAP1 RETURN JUMPDEST CALLVALUE DUP1 ISZERO PUSH2 0xD17 JUMPI PUSH1 0x0 DUP1 REVERT JUMPDEST POP PUSH2 0xD20 PUSH2 0x3B92 JUMP JUMPDEST PUSH1 0x40 MLOAD PUSH2 0xD2D SWAP2 SWAP1 PUSH2 0x52CF JUMP JUMPDEST PUSH1 0x40 MLOAD DUP1 SWAP2 SUB SWAP1 RETURN JUMPDEST CALLVALUE DUP1 ISZERO PUSH2 0xD42 JUMPI PUSH1 0x0 DUP1 REVERT JUMPDEST POP PUSH2 0xD5D PUSH1 0x4 DUP1 CALLDATASIZE SUB DUP2 ADD SWAP1 PUSH2 0xD58 SWAP2 SWAP1 PUSH2 0x581E JUMP JUMPDEST PUSH2 0x3B98 JUMP JUMPDEST STOP JUMPDEST CALLVALUE DUP1 ISZERO PUSH2 0xD6B JUMPI PUSH1 0x0 DUP1 REVERT JUMPDEST POP PUSH2 0xD74 PUSH2 0x3DAA JUMP JUMPDEST STOP JUMPDEST CALLVALUE DUP1 ISZERO PUSH2 0xD82 JUMPI PUSH1 0x0 DUP1 REVERT JUMPDEST POP PUSH2 0xD9D PUSH1 0x4 DUP1 CALLDATASIZE SUB DUP2 ADD SWAP1 PUSH2 0xD98 SWAP2 SWAP1 PUSH2 0x56F6 JUMP JUMPDEST PUSH2 0x3F59 JUMP JUMPDEST STOP JUMPDEST CALLVALUE DUP1 ISZERO PUSH2 0xDAB JUMPI PUSH1 0x0 DUP1 REVERT JUMPDEST POP PUSH2 0xDC6 PUSH1 0x4 DUP1 CALLDATASIZE SUB DUP2 ADD SWAP1 PUSH2 0xDC1 SWAP2 SWAP1 PUSH2 0x5723 JUMP JUMPDEST PUSH2 0x3FC5 JUMP JUMPDEST STOP JUMPDEST CALLVALUE DUP1 ISZERO PUSH2 0xDD4 JUMPI PUSH1 0x0 DUP1 REVERT JUMPDEST POP PUSH2 0xDEF PUSH1 0x4 DUP1 CALLDATASIZE SUB DUP2 ADD SWAP1 PUSH2 0xDEA SWAP2 SWAP1 PUSH2 0x56F6 JUMP JUMPDEST PUSH2 0x3FE7 JUMP JUMPDEST STOP JUMPDEST CALLVALUE DUP1 ISZERO PUSH2 0xDFD JUMPI PUSH1 0x0 DUP1 REVERT JUMPDEST POP PUSH2 0xE06 PUSH2 0x4159 JUMP JUMPDEST STOP JUMPDEST CALLVALUE DUP1 ISZERO PUSH2 0xE14 JUMPI PUSH1 0x0 DUP1 REVERT JUMPDEST POP PUSH2 0xE2F PUSH1 0x4 DUP1 CALLDATASIZE SUB DUP2 ADD SWAP1 PUSH2 0xE2A SWAP2 SWAP1 PUSH2 0x56F6 JUMP JUMPDEST PUSH2 0x4360 JUMP JUMPDEST PUSH1 0x40 MLOAD PUSH2 0xE3C SWAP2 SWAP1 PUSH2 0x5B30 JUMP JUMPDEST PUSH1 0x40 MLOAD DUP1 SWAP2 SUB SWAP1 RETURN JUMPDEST CALLVALUE DUP1 ISZERO PUSH2 0xE51 JUMPI PUSH1 0x0 DUP1 REVERT JUMPDEST POP PUSH2 0xE5A PUSH2 0x439F JUMP JUMPDEST PUSH1 0x40 MLOAD PUSH2 0xE67 SWAP2 SWAP1 PUSH2 0x54CC JUMP JUMPDEST PUSH1 0x40 MLOAD DUP1 SWAP2 SUB SWAP1 RETURN JUMPDEST CALLVALUE DUP1 ISZERO PUSH2 0xE7C JUMPI PUSH1 0x0 DUP1 REVERT JUMPDEST POP PUSH2 0xE85 PUSH2 0x43C3 JUMP JUMPDEST PUSH1 0x40 MLOAD PUSH2 0xE92 SWAP2 SWAP1 PUSH2 0x52CF JUMP JUMPDEST PUSH1 0x40 MLOAD DUP1 SWAP2 SUB SWAP1 RETURN JUMPDEST CALLVALUE DUP1 ISZERO PUSH2 0xEA7 JUMPI PUSH1 0x0 DUP1 REVERT JUMPDEST POP PUSH2 0xEB0 PUSH2 0x43C9 JUMP JUMPDEST PUSH1 0x40 MLOAD PUSH2 0xEBD SWAP2 SWAP1 PUSH2 0x52CF JUMP JUMPDEST PUSH1 0x40 MLOAD DUP1 SWAP2 SUB SWAP1 RETURN JUMPDEST CALLVALUE DUP1 ISZERO PUSH2 0xED2 JUMPI PUSH1 0x0 DUP1 REVERT JUMPDEST POP PUSH2 0xEDB PUSH2 0x43CF JUMP JUMPDEST STOP JUMPDEST CALLVALUE DUP1 ISZERO PUSH2 0xEE9 JUMPI PUSH1 0x0 DUP1 REVERT JUMPDEST POP PUSH2 0xEF2 PUSH2 0x45AE JUMP JUMPDEST PUSH1 0x40 MLOAD PUSH2 0xEFF SWAP2 SWAP1 PUSH2 0x54CC JUMP JUMPDEST PUSH1 0x40 MLOAD DUP1 SWAP2 SUB SWAP1 RETURN JUMPDEST CALLVALUE DUP1 ISZERO PUSH2 0xF14 JUMPI PUSH1 0x0 DUP1 REVERT JUMPDEST POP PUSH2 0xF2F PUSH1 0x4 DUP1 CALLDATASIZE SUB DUP2 ADD SWAP1 PUSH2 0xF2A SWAP2 SWAP1 PUSH2 0x5289 JUMP JUMPDEST PUSH2 0x45D2 JUMP JUMPDEST PUSH1 0x40 MLOAD PUSH2 0xF3C SWAP2 SWAP1 PUSH2 0x52CF JUMP JUMPDEST PUSH1 0x40 MLOAD DUP1 SWAP2 SUB SWAP1 RETURN JUMPDEST CALLVALUE DUP1 ISZERO PUSH2 0xF51 JUMPI PUSH1 0x0 DUP1 REVERT JUMPDEST POP PUSH2 0xF5A PUSH2 0x45EA JUMP JUMPDEST PUSH1 0x40 MLOAD PUSH2 0xF67 SWAP2 SWAP1 PUSH2 0x52CF JUMP JUMPDEST PUSH1 0x40 MLOAD DUP1 SWAP2 SUB SWAP1 RETURN JUMPDEST CALLVALUE DUP1 ISZERO PUSH2 0xF7C JUMPI PUSH1 0x0 DUP1 REVERT JUMPDEST POP PUSH2 0xF85 PUSH2 0x45F0 JUMP JUMPDEST PUSH1 0x40 MLOAD PUSH2 0xF92 SWAP2 SWAP1 PUSH2 0x5B30 JUMP JUMPDEST PUSH1 0x40 MLOAD DUP1 SWAP2 SUB SWAP1 RETURN JUMPDEST CALLVALUE DUP1 ISZERO PUSH2 0xFA7 JUMPI PUSH1 0x0 DUP1 REVERT JUMPDEST POP PUSH2 0xFC2 PUSH1 0x4 DUP1 CALLDATASIZE SUB DUP2 ADD SWAP1 PUSH2 0xFBD SWAP2 SWAP1 PUSH2 0x5C7D JUMP JUMPDEST PUSH2 0x4616 JUMP JUMPDEST STOP JUMPDEST PUSH2 0xFCC PUSH2 0x46EA JUMP JUMPDEST STOP JUMPDEST CALLVALUE DUP1 ISZERO PUSH2 0xFDA JUMPI PUSH1 0x0 DUP1 REVERT JUMPDEST POP PUSH2 0xFF5 PUSH1 0x4 DUP1 CALLDATASIZE SUB DUP2 ADD SWAP1 PUSH2 0xFF0 SWAP2 SWAP1 PUSH2 0x56F6 JUMP JUMPDEST PUSH2 0x48AA JUMP JUMPDEST STOP JUMPDEST PUSH1 0x0 PUSH32 0x7965DB0B00000000000000000000000000000000000000000000000000000000 PUSH28 0xFFFFFFFFFFFFFFFFFFFFFFFFFFFFFFFFFFFFFFFFFFFFFFFFFFFFFFFF NOT AND DUP3 PUSH28 0xFFFFFFFFFFFFFFFFFFFFFFFFFFFFFFFFFFFFFFFFFFFFFFFFFFFFFFFF NOT AND EQ DUP1 PUSH2 0x106A JUMPI POP PUSH2 0x1069 DUP3 PUSH2 0x4B00 JUMP JUMPDEST JUMPDEST SWAP1 POP SWAP2 SWAP1 POP JUMP JUMPDEST PUSH1 0xE PUSH1 0x20 MSTORE DUP1 PUSH1 0x0 MSTORE PUSH1 0x40 PUSH1 0x0 KECCAK256 PUSH1 0x0 SWAP2 POP SWAP1 POP SLOAD DUP2 JUMP JUMPDEST PUSH32 0xA49807205CE4D355092EF5A8A18F56E8913CF4A201FBE287825B095693C21775 PUSH2 0x10B3 DUP2 PUSH2 0x4B6A JUMP JUMPDEST DUP2 PUSH1 0x5 PUSH1 0x2 PUSH2 0x100 EXP DUP2 SLOAD DUP2 PUSH1 0xFF MUL NOT AND SWAP1 DUP4 ISZERO ISZERO MUL OR SWAP1 SSTORE POP POP POP JUMP JUMPDEST PUSH1 0x8 PUSH1 0x20 MSTORE DUP2 PUSH1 0x0 MSTORE PUSH1 0x40 PUSH1 0x0 KECCAK256 DUP2 DUP2 SLOAD DUP2 LT PUSH2 0x10ED JUMPI PUSH1 0x0 DUP1 REVERT JUMPDEST SWAP1 PUSH1 0x0 MSTORE PUSH1 0x20 PUSH1 0x0 KECCAK256 SWAP1 PUSH1 0x6 MUL ADD PUSH1 0x0 SWAP2 POP SWAP2 POP POP DUP1 PUSH1 0x0 ADD PUSH1 0x0 SWAP1 SLOAD SWAP1 PUSH2 0x100 EXP SWAP1 DIV PUSH1 0xFF AND SWAP1 DUP1 PUSH1 0x1 ADD SLOAD SWAP1 DUP1 PUSH1 0x2 ADD SLOAD SWAP1 DUP1 PUSH1 0x3 ADD PUSH1 0x0 SWAP1 SLOAD SWAP1 PUSH2 0x100 EXP SWAP1 DIV PUSH1 0xFF AND SWAP1 DUP1 PUSH1 0x3 ADD PUSH1 0x1 SWAP1 SLOAD SWAP1 PUSH2 0x100 EXP SWAP1 DIV PUSH1 0xFF AND SWAP1 DUP1 PUSH1 0x3 ADD PUSH1 0x2 SWAP1 SLOAD SWAP1 PUSH2 0x100 EXP SWAP1 DIV PUSH1 0xFF AND SWAP1 DUP1 PUSH1 0x3 ADD PUSH1 0x3 SWAP1 SLOAD SWAP1 PUSH2 0x100 EXP SWAP1 DIV PUSH1 0xFF AND SWAP1 DUP1 PUSH1 0x4 ADD SLOAD SWAP1 DUP1 PUSH1 0x5 ADD SLOAD SWAP1 POP DUP10 JUMP JUMPDEST PUSH32 0xF60566C40710959D8D30B6067CE3C53C757BEC78EECB0E46B83C7F8194FFAE37 DUP2 JUMP JUMPDEST PUSH1 0x4 SLOAD DUP2 JUMP JUMPDEST PUSH1 0x5 PUSH1 0x3 SWAP1 SLOAD SWAP1 PUSH2 0x100 EXP SWAP1 DIV PUSH1 0xFF AND DUP2 JUMP JUMPDEST PUSH1 0x0 DUP1 PUSH1 0x0 DUP4 DUP2 MSTORE PUSH1 0x20 ADD SWAP1 DUP2 MSTORE PUSH1 0x20 ADD PUSH1 0x0 KECCAK256 PUSH1 0x1 ADD SLOAD SWAP1 POP SWAP2 SWAP1 POP JUMP JUMPDEST PUSH1 0x13 SLOAD DUP2 JUMP JUMPDEST PUSH2 0x11E7 PUSH2 0x4B7E JUMP JUMPDEST PUSH1 0x0 PUSH1 0xB PUSH1 0x0 CALLER PUSH20 0xFFFFFFFFFFFFFFFFFFFFFFFFFFFFFFFFFFFFFFFF AND PUSH20 0xFFFFFFFFFFFFFFFFFFFFFFFFFFFFFFFFFFFFFFFF AND DUP2 MSTORE PUSH1 0x20 ADD SWAP1 DUP2 MSTORE PUSH1 0x20 ADD PUSH1 0x0 KECCAK256 SLOAD SWAP1 POP PUSH1 0x0 DUP2 GT PUSH2 0x126E JUMPI PUSH1 0x40 MLOAD PUSH32 0x8C379A000000000000000000000000000000000000000000000000000000000 DUP2 MSTORE PUSH1 0x4 ADD PUSH2 0x1265 SWAP1 PUSH2 0x5D1A JUMP JUMPDEST PUSH1 0x40 MLOAD DUP1 SWAP2 SUB SWAP1 REVERT JUMPDEST PUSH1 0x0 PUSH1 0xB PUSH1 0x0 CALLER PUSH20 0xFFFFFFFFFFFFFFFFFFFFFFFFFFFFFFFFFFFFFFFF AND PUSH20 0xFFFFFFFFFFFFFFFFFFFFFFFFFFFFFFFFFFFFFFFF AND DUP2 MSTORE PUSH1 0x20 ADD SWAP1 DUP2 MSTORE PUSH1 0x20 ADD PUSH1 0x0 KECCAK256 DUP2 SWAP1 SSTORE POP PUSH2 0x12C1 CALLER PUSH1 0x0 DUP4 PUSH1 0x1 PUSH2 0x4BC4 JUMP JUMPDEST DUP1 PUSH1 0x18 PUSH1 0x0 DUP3 DUP3 SLOAD PUSH2 0x12D3 SWAP2 SWAP1 PUSH2 0x5D69 JUMP JUMPDEST SWAP3 POP POP DUP2 SWAP1 SSTORE POP DUP1 PUSH1 0xD PUSH1 0x0 CALLER PUSH20 0xFFFFFFFFFFFFFFFFFFFFFFFFFFFFFFFFFFFFFFFF AND PUSH20 0xFFFFFFFFFFFFFFFFFFFFFFFFFFFFFFFFFFFFFFFF AND DUP2 MSTORE PUSH1 0x20 ADD SWAP1 DUP2 MSTORE PUSH1 0x20 ADD PUSH1 0x0 KECCAK256 PUSH1 0x0 DUP3 DUP3 SLOAD PUSH2 0x1329 SWAP2 SWAP1 PUSH2 0x5D69 JUMP JUMPDEST SWAP3 POP POP DUP2 SWAP1 SSTORE POP CALLER PUSH20 0xFFFFFFFFFFFFFFFFFFFFFFFFFFFFFFFFFFFFFFFF AND PUSH32 0x997D2EC09B086DE73D509BBC4AD2B52FD7E2338024464BEDE93A41ABD6CCDC38 PUSH1 0x0 DUP4 TIMESTAMP PUSH1 0x40 MLOAD PUSH2 0x137B SWAP4 SWAP3 SWAP2 SWAP1 PUSH2 0x5D9D JUMP JUMPDEST PUSH1 0x40 MLOAD DUP1 SWAP2 SUB SWAP1 LOG2 POP PUSH2 0x138C PUSH2 0x4F21 JUMP JUMPDEST JUMP JUMPDEST PUSH1 0x60 PUSH1 0x8 PUSH1 0x0 DUP4 PUSH20 0xFFFFFFFFFFFFFFFFFFFFFFFFFFFFFFFFFFFFFFFF AND PUSH20 0xFFFFFFFFFFFFFFFFFFFFFFFFFFFFFFFFFFFFFFFF AND DUP2 MSTORE PUSH1 0x20 ADD SWAP1 DUP2 MSTORE PUSH1 0x20 ADD PUSH1 0x0 KECCAK256 DUP1 SLOAD DUP1 PUSH1 0x20 MUL PUSH1 0x20 ADD PUSH1 0x40 MLOAD SWAP1 DUP2 ADD PUSH1 0x40 MSTORE DUP1 SWAP3 SWAP2 SWAP1 DUP2 DUP2 MSTORE PUSH1 0x20 ADD PUSH1 0x0 SWAP1 JUMPDEST DUP3 DUP3 LT ISZERO PUSH2 0x14F1 JUMPI DUP4 DUP3 SWAP1 PUSH1 0x0 MSTORE PUSH1 0x20 PUSH1 0x0 KECCAK256 SWAP1 PUSH1 0x6 MUL ADD PUSH1 0x40 MLOAD DUP1 PUSH2 0x120 ADD PUSH1 0x40 MSTORE SWAP1 DUP2 PUSH1 0x0 DUP3 ADD PUSH1 0x0 SWAP1 SLOAD SWAP1 PUSH2 0x100 EXP SWAP1 DIV PUSH1 0xFF AND PUSH1 0x1 DUP2 GT ISZERO PUSH2 0x1438 JUMPI PUSH2 0x1437 PUSH2 0x53AF JUMP JUMPDEST JUMPDEST PUSH1 0x1 DUP2 GT ISZERO PUSH2 0x144A JUMPI PUSH2 0x1449 PUSH2 0x53AF JUMP JUMPDEST JUMPDEST DUP2 MSTORE PUSH1 0x20 ADD PUSH1 0x1 DUP3 ADD SLOAD DUP2 MSTORE PUSH1 0x20 ADD PUSH1 0x2 DUP3 ADD SLOAD DUP2 MSTORE PUSH1 0x20 ADD PUSH1 0x3 DUP3 ADD PUSH1 0x0 SWAP1 SLOAD SWAP1 PUSH2 0x100 EXP SWAP1 DIV PUSH1 0xFF AND ISZERO ISZERO ISZERO ISZERO DUP2 MSTORE PUSH1 0x20 ADD PUSH1 0x3 DUP3 ADD PUSH1 0x1 SWAP1 SLOAD SWAP1 PUSH2 0x100 EXP SWAP1 DIV PUSH1 0xFF AND ISZERO ISZERO ISZERO ISZERO DUP2 MSTORE PUSH1 0x20 ADD PUSH1 0x3 DUP3 ADD PUSH1 0x2 SWAP1 SLOAD SWAP1 PUSH2 0x100 EXP SWAP1 DIV PUSH1 0xFF AND ISZERO ISZERO ISZERO ISZERO DUP2 MSTORE PUSH1 0x20 ADD PUSH1 0x3 DUP3 ADD PUSH1 0x3 SWAP1 SLOAD SWAP1 PUSH2 0x100 EXP SWAP1 DIV PUSH1 0xFF AND ISZERO ISZERO ISZERO ISZERO DUP2 MSTORE PUSH1 0x20 ADD PUSH1 0x4 DUP3 ADD SLOAD DUP2 MSTORE PUSH1 0x20 ADD PUSH1 0x5 DUP3 ADD SLOAD DUP2 MSTORE POP POP DUP2 MSTORE PUSH1 0x20 ADD SWAP1 PUSH1 0x1 ADD SWAP1 PUSH2 0x13EF JUMP JUMPDEST POP POP POP POP SWAP1 POP SWAP2 SWAP1 POP JUMP JUMPDEST PUSH2 0x1504 PUSH2 0x4B7E JUMP JUMPDEST PUSH1 0x5 PUSH1 0x1 SWAP1 SLOAD SWAP1 PUSH2 0x100 EXP SWAP1 DIV PUSH1 0xFF AND ISZERO PUSH2 0x1554 JUMPI PUSH1 0x40 MLOAD PUSH32 0x8C379A000000000000000000000000000000000000000000000000000000000 DUP2 MSTORE PUSH1 0x4 ADD PUSH2 0x154B SWAP1 PUSH2 0x5E20 JUMP JUMPDEST PUSH1 0x40 MLOAD DUP1 SWAP2 SUB SWAP1 REVERT JUMPDEST PUSH1 0x0 PUSH1 0x8 PUSH1 0x0 CALLER PUSH20 0xFFFFFFFFFFFFFFFFFFFFFFFFFFFFFFFFFFFFFFFF AND PUSH20 0xFFFFFFFFFFFFFFFFFFFFFFFFFFFFFFFFFFFFFFFF AND DUP2 MSTORE PUSH1 0x20 ADD SWAP1 DUP2 MSTORE PUSH1 0x20 ADD PUSH1 0x0 KECCAK256 DUP3 DUP2 SLOAD DUP2 LT PUSH2 0x15A7 JUMPI PUSH2 0x15A6 PUSH2 0x5E40 JUMP JUMPDEST JUMPDEST SWAP1 PUSH1 0x0 MSTORE PUSH1 0x20 PUSH1 0x0 KECCAK256 SWAP1 PUSH1 0x6 MUL ADD SWAP1 POP DUP1 PUSH1 0x3 ADD PUSH1 0x0 SWAP1 SLOAD SWAP1 PUSH2 0x100 EXP SWAP1 DIV PUSH1 0xFF AND ISZERO PUSH2 0x1609 JUMPI PUSH1 0x40 MLOAD PUSH32 0x8C379A000000000000000000000000000000000000000000000000000000000 DUP2 MSTORE PUSH1 0x4 ADD PUSH2 0x1600 SWAP1 PUSH2 0x5EBB JUMP JUMPDEST PUSH1 0x40 MLOAD DUP1 SWAP2 SUB SWAP1 REVERT JUMPDEST PUSH1 0x2 SLOAD DUP2 PUSH1 0x2 ADD SLOAD PUSH2 0x161B SWAP2 SWAP1 PUSH2 0x5D69 JUMP JUMPDEST TIMESTAMP LT ISZERO DUP1 PUSH2 0x1637 JUMPI POP DUP1 PUSH1 0x3 ADD PUSH1 0x1 SWAP1 SLOAD SWAP1 PUSH2 0x100 EXP SWAP1 DIV PUSH1 0xFF AND JUMPDEST DUP1 PUSH2 0x1668 JUMPI POP PUSH1 0x5 PUSH1 0x3 SWAP1 SLOAD SWAP1 PUSH2 0x100 EXP SWAP1 DIV PUSH1 0xFF AND DUP1 ISZERO PUSH2 0x1667 JUMPI POP DUP1 PUSH1 0x3 ADD PUSH1 0x2 SWAP1 SLOAD SWAP1 PUSH2 0x100 EXP SWAP1 DIV PUSH1 0xFF AND JUMPDEST JUMPDEST PUSH2 0x16A7 JUMPI PUSH1 0x40 MLOAD PUSH32 0x8C379A000000000000000000000000000000000000000000000000000000000 DUP2 MSTORE PUSH1 0x4 ADD PUSH2 0x169E SWAP1 PUSH2 0x5F27 JUMP JUMPDEST PUSH1 0x40 MLOAD DUP1 SWAP2 SUB SWAP1 REVERT JUMPDEST PUSH1 0x1 DUP2 PUSH1 0x3 ADD PUSH1 0x0 PUSH2 0x100 EXP DUP2 SLOAD DUP2 PUSH1 0xFF MUL NOT AND SWAP1 DUP4 ISZERO ISZERO MUL OR SWAP1 SSTORE POP TIMESTAMP DUP2 PUSH1 0x4 ADD DUP2 SWAP1 SSTORE POP PUSH1 0x0 DUP2 PUSH1 0x5 ADD SLOAD SWAP1 POP PUSH1 0x0 PUSH1 0x1 DUP2 GT ISZERO PUSH2 0x16EA JUMPI PUSH2 0x16E9 PUSH2 0x53AF JUMP JUMPDEST JUMPDEST DUP3 PUSH1 0x0 ADD PUSH1 0x0 SWAP1 SLOAD SWAP1 PUSH2 0x100 EXP SWAP1 DIV PUSH1 0xFF AND PUSH1 0x1 DUP2 GT ISZERO PUSH2 0x170E JUMPI PUSH2 0x170D PUSH2 0x53AF JUMP JUMPDEST JUMPDEST SUB PUSH2 0x17F1 JUMPI DUP2 PUSH1 0x1 ADD SLOAD PUSH1 0x14 PUSH1 0x0 DUP3 DUP3 SLOAD PUSH2 0x1729 SWAP2 SWAP1 PUSH2 0x5D69 JUMP JUMPDEST SWAP3 POP POP DUP2 SWAP1 SSTORE POP PUSH1 0x0 CALLER PUSH20 0xFFFFFFFFFFFFFFFFFFFFFFFFFFFFFFFFFFFFFFFF AND DUP3 DUP5 PUSH1 0x1 ADD SLOAD PUSH2 0x1759 SWAP2 SWAP1 PUSH2 0x5D69 JUMP JUMPDEST PUSH1 0x40 MLOAD PUSH2 0x1765 SWAP1 PUSH2 0x5F78 JUMP JUMPDEST PUSH1 0x0 PUSH1 0x40 MLOAD DUP1 DUP4 SUB DUP2 DUP6 DUP8 GAS CALL SWAP3 POP POP POP RETURNDATASIZE DUP1 PUSH1 0x0 DUP2 EQ PUSH2 0x17A2 JUMPI PUSH1 0x40 MLOAD SWAP2 POP PUSH1 0x1F NOT PUSH1 0x3F RETURNDATASIZE ADD AND DUP3 ADD PUSH1 0x40 MSTORE RETURNDATASIZE DUP3 MSTORE RETURNDATASIZE PUSH1 0x0 PUSH1 0x20 DUP5 ADD RETURNDATACOPY PUSH2 0x17A7 JUMP JUMPDEST PUSH1 0x60 SWAP2 POP JUMPDEST POP POP SWAP1 POP DUP1 PUSH2 0x17EB JUMPI PUSH1 0x40 MLOAD PUSH32 0x8C379A000000000000000000000000000000000000000000000000000000000 DUP2 MSTORE PUSH1 0x4 ADD PUSH2 0x17E2 SWAP1 PUSH2 0x5FD9 JUMP JUMPDEST PUSH1 0x40 MLOAD DUP1 SWAP2 SUB SWAP1 REVERT JUMPDEST POP PUSH2 0x18EE JUMP JUMPDEST PUSH1 0x1 DUP1 DUP2 GT ISZERO PUSH2 0x1804 JUMPI PUSH2 0x1803 PUSH2 0x53AF JUMP JUMPDEST JUMPDEST DUP3 PUSH1 0x0 ADD PUSH1 0x0 SWAP1 SLOAD SWAP1 PUSH2 0x100 EXP SWAP1 DIV PUSH1 0xFF AND PUSH1 0x1 DUP2 GT ISZERO PUSH2 0x1828 JUMPI PUSH2 0x1827 PUSH2 0x53AF JUMP JUMPDEST JUMPDEST SUB PUSH2 0x18ED JUMPI DUP2 PUSH1 0x1 ADD SLOAD PUSH1 0x15 PUSH1 0x0 DUP3 DUP3 SLOAD PUSH2 0x1843 SWAP2 SWAP1 PUSH2 0x5D69 JUMP JUMPDEST SWAP3 POP POP DUP2 SWAP1 SSTORE POP PUSH20 0x833589FCD6EDB6E08F4C7C32D4F71B54BDA02913 PUSH20 0xFFFFFFFFFFFFFFFFFFFFFFFFFFFFFFFFFFFFFFFF AND PUSH4 0xA9059CBB CALLER DUP4 DUP6 PUSH1 0x1 ADD SLOAD PUSH2 0x188B SWAP2 SWAP1 PUSH2 0x5D69 JUMP JUMPDEST PUSH1 0x40 MLOAD DUP4 PUSH4 0xFFFFFFFF AND PUSH1 0xE0 SHL DUP2 MSTORE PUSH1 0x4 ADD PUSH2 0x18A8 SWAP3 SWAP2 SWAP1 PUSH2 0x5FF9 JUMP JUMPDEST PUSH1 0x20 PUSH1 0x40 MLOAD DUP1 DUP4 SUB DUP2 PUSH1 0x0 DUP8 GAS CALL ISZERO DUP1 ISZERO PUSH2 0x18C7 JUMPI RETURNDATASIZE PUSH1 0x0 DUP1 RETURNDATACOPY RETURNDATASIZE PUSH1 0x0 REVERT JUMPDEST POP POP POP POP PUSH1 0x40 MLOAD RETURNDATASIZE PUSH1 0x1F NOT PUSH1 0x1F DUP3 ADD AND DUP3 ADD DUP1 PUSH1 0x40 MSTORE POP DUP2 ADD SWAP1 PUSH2 0x18EB SWAP2 SWAP1 PUSH2 0x6037 JUMP JUMPDEST POP JUMPDEST JUMPDEST PUSH1 0xA PUSH1 0x0 CALLER PUSH20 0xFFFFFFFFFFFFFFFFFFFFFFFFFFFFFFFFFFFFFFFF AND PUSH20 0xFFFFFFFFFFFFFFFFFFFFFFFFFFFFFFFFFFFFFFFF AND DUP2 MSTORE PUSH1 0x20 ADD SWAP1 DUP2 MSTORE PUSH1 0x20 ADD PUSH1 0x0 KECCAK256 PUSH1 0x0 SWAP1 SLOAD SWAP1 PUSH2 0x100 EXP SWAP1 DIV PUSH1 0xFF AND PUSH2 0x19FB JUMPI PUSH1 0x10 CALLER SWAP1 DUP1 PUSH1 0x1 DUP2 SLOAD ADD DUP1 DUP3 SSTORE DUP1 SWAP2 POP POP PUSH1 0x1 SWAP1 SUB SWAP1 PUSH1 0x0 MSTORE PUSH1 0x20 PUSH1 0x0 KECCAK256 ADD PUSH1 0x0 SWAP1 SWAP2 SWAP1 SWAP2 SWAP1 SWAP2 PUSH2 0x100 EXP DUP2 SLOAD DUP2 PUSH20 0xFFFFFFFFFFFFFFFFFFFFFFFFFFFFFFFFFFFFFFFF MUL NOT AND SWAP1 DUP4 PUSH20 0xFFFFFFFFFFFFFFFFFFFFFFFFFFFFFFFFFFFFFFFF AND MUL OR SWAP1 SSTORE POP PUSH1 0x1 PUSH1 0xA PUSH1 0x0 CALLER PUSH20 0xFFFFFFFFFFFFFFFFFFFFFFFFFFFFFFFFFFFFFFFF AND PUSH20 0xFFFFFFFFFFFFFFFFFFFFFFFFFFFFFFFFFFFFFFFF AND DUP2 MSTORE PUSH1 0x20 ADD SWAP1 DUP2 MSTORE PUSH1 0x20 ADD PUSH1 0x0 KECCAK256 PUSH1 0x0 PUSH2 0x100 EXP DUP2 SLOAD DUP2 PUSH1 0xFF MUL NOT AND SWAP1 DUP4 ISZERO ISZERO MUL OR SWAP1 SSTORE POP JUMPDEST CALLER PUSH20 0xFFFFFFFFFFFFFFFFFFFFFFFFFFFFFFFFFFFFFFFF AND PUSH32 0xCB034B37EF3764745C35BAFECD525367BCF312E9010239E6AEEBBE6BCF57727F DUP4 PUSH1 0x0 ADD PUSH1 0x0 SWAP1 SLOAD SWAP1 PUSH2 0x100 EXP SWAP1 DIV PUSH1 0xFF AND DUP5 PUSH1 0x1 ADD SLOAD DUP5 TIMESTAMP DUP9 PUSH1 0x40 MLOAD PUSH2 0x1A5E SWAP6 SWAP5 SWAP4 SWAP3 SWAP2 SWAP1 PUSH2 0x6064 JUMP JUMPDEST PUSH1 0x40 MLOAD DUP1 SWAP2 SUB SWAP1 LOG2 POP POP PUSH2 0x1A70 PUSH2 0x4F21 JUMP JUMPDEST POP JUMP JUMPDEST PUSH2 0x1A7C DUP3 PUSH2 0x11BA JUMP JUMPDEST PUSH2 0x1A85 DUP2 PUSH2 0x4B6A JUMP JUMPDEST PUSH2 0x1A8F DUP4 DUP4 PUSH2 0x4F2A JUMP JUMPDEST POP POP POP POP JUMP JUMPDEST PUSH1 0xB PUSH1 0x20 MSTORE DUP1 PUSH1 0x0 MSTORE PUSH1 0x40 PUSH1 0x0 KECCAK256 PUSH1 0x0 SWAP2 POP SWAP1 POP SLOAD DUP2 JUMP JUMPDEST PUSH2 0x1AB5 PUSH2 0x501B JUMP JUMPDEST PUSH20 0xFFFFFFFFFFFFFFFFFFFFFFFFFFFFFFFFFFFFFFFF AND DUP2 PUSH20 0xFFFFFFFFFFFFFFFFFFFFFFFFFFFFFFFFFFFFFFFF AND EQ PUSH2 0x1B19 JUMPI PUSH1 0x40 MLOAD PUSH32 0x6697B23200000000000000000000000000000000000000000000000000000000 DUP2 MSTORE PUSH1 0x4 ADD PUSH1 0x40 MLOAD DUP1 SWAP2 SUB SWAP1 REVERT JUMPDEST PUSH2 0x1B23 DUP3 DUP3 PUSH2 0x5023 JUMP JUMPDEST POP POP POP JUMP JUMPDEST PUSH1 0x17 SLOAD DUP2 JUMP JUMPDEST PUSH1 0x9 PUSH1 0x20 MSTORE DUP1 PUSH1 0x0 MSTORE PUSH1 0x40 PUSH1 0x0 KECCAK256 PUSH1 0x0 SWAP2 POP SLOAD SWAP1 PUSH2 0x100 EXP SWAP1 DIV PUSH1 0xFF AND DUP2 JUMP JUMPDEST PUSH32 0xA49807205CE4D355092EF5A8A18F56E8913CF4A201FBE287825B095693C21775 PUSH2 0x1B78 DUP2 PUSH2 0x4B6A JUMP JUMPDEST DUP3 DUP3 SWAP1 POP DUP6 DUP6 SWAP1 POP EQ PUSH2 0x1BC0 JUMPI PUSH1 0x40 MLOAD PUSH32 0x8C379A000000000000000000000000000000000000000000000000000000000 DUP2 MSTORE PUSH1 0x4 ADD PUSH2 0x1BB7 SWAP1 PUSH2 0x6103 JUMP JUMPDEST PUSH1 0x40 MLOAD DUP1 SWAP2 SUB SWAP1 REVERT JUMPDEST PUSH1 0x0 DUP1 PUSH1 0x0 SWAP1 POP JUMPDEST DUP7 DUP7 SWAP1 POP DUP2 LT ISZERO PUSH2 0x1CF9 JUMPI PUSH1 0x0 DUP6 DUP6 DUP4 DUP2 DUP2 LT PUSH2 0x1BE8 JUMPI PUSH2 0x1BE7 PUSH2 0x5E40 JUMP JUMPDEST JUMPDEST SWAP1 POP PUSH1 0x20 MUL ADD CALLDATALOAD GT PUSH2 0x1C2F JUMPI PUSH1 0x40 MLOAD PUSH32 0x8C379A000000000000000000000000000000000000000000000000000000000 DUP2 MSTORE PUSH1 0x4 ADD PUSH2 0x1C26 SWAP1 PUSH2 0x616F JUMP JUMPDEST PUSH1 0x40 MLOAD DUP1 SWAP2 SUB SWAP1 REVERT JUMPDEST DUP5 DUP5 DUP3 DUP2 DUP2 LT PUSH2 0x1C42 JUMPI PUSH2 0x1C41 PUSH2 0x5E40 JUMP JUMPDEST JUMPDEST SWAP1 POP PUSH1 0x20 MUL ADD CALLDATALOAD PUSH1 0xC PUSH1 0x0 DUP10 DUP10 DUP6 DUP2 DUP2 LT PUSH2 0x1C60 JUMPI PUSH2 0x1C5F PUSH2 0x5E40 JUMP JUMPDEST JUMPDEST SWAP1 POP PUSH1 0x20 MUL ADD PUSH1 0x20 DUP2 ADD SWAP1 PUSH2 0x1C75 SWAP2 SWAP1 PUSH2 0x5289 JUMP JUMPDEST PUSH20 0xFFFFFFFFFFFFFFFFFFFFFFFFFFFFFFFFFFFFFFFF AND PUSH20 0xFFFFFFFFFFFFFFFFFFFFFFFFFFFFFFFFFFFFFFFF AND DUP2 MSTORE PUSH1 0x20 ADD SWAP1 DUP2 MSTORE PUSH1 0x20 ADD PUSH1 0x0 KECCAK256 PUSH1 0x0 DUP3 DUP3 SLOAD PUSH2 0x1CBE SWAP2 SWAP1 PUSH2 0x5D69 JUMP JUMPDEST SWAP3 POP POP DUP2 SWAP1 SSTORE POP DUP5 DUP5 DUP3 DUP2 DUP2 LT PUSH2 0x1CD8 JUMPI PUSH2 0x1CD7 PUSH2 0x5E40 JUMP JUMPDEST JUMPDEST SWAP1 POP PUSH1 0x20 MUL ADD CALLDATALOAD DUP3 PUSH2 0x1CEA SWAP2 SWAP1 PUSH2 0x5D69 JUMP JUMPDEST SWAP2 POP DUP1 DUP1 PUSH1 0x1 ADD SWAP2 POP POP PUSH2 0x1BC8 JUMP JUMPDEST POP PUSH1 0x17 SLOAD DUP2 GT ISZERO PUSH2 0x1D3F JUMPI PUSH1 0x40 MLOAD PUSH32 0x8C379A000000000000000000000000000000000000000000000000000000000 DUP2 MSTORE PUSH1 0x4 ADD PUSH2 0x1D36 SWAP1 PUSH2 0x61DB JUMP JUMPDEST PUSH1 0x40 MLOAD DUP1 SWAP2 SUB SWAP1 REVERT JUMPDEST DUP1 PUSH1 0x17 PUSH1 0x0 DUP3 DUP3 SLOAD PUSH2 0x1D51 SWAP2 SWAP1 PUSH2 0x61FB JUMP JUMPDEST SWAP3 POP POP DUP2 SWAP1 SSTORE POP POP POP POP POP POP POP JUMP JUMPDEST PUSH32 0xA49807205CE4D355092EF5A8A18F56E8913CF4A201FBE287825B095693C21775 PUSH2 0x1D8A DUP2 PUSH2 0x4B6A JUMP JUMPDEST DUP3 DUP3 SWAP1 POP DUP6 DUP6 SWAP1 POP EQ PUSH2 0x1DD2 JUMPI PUSH1 0x40 MLOAD PUSH32 0x8C379A000000000000000000000000000000000000000000000000000000000 DUP2 MSTORE PUSH1 0x4 ADD PUSH2 0x1DC9 SWAP1 PUSH2 0x6103 JUMP JUMPDEST PUSH1 0x40 MLOAD DUP1 SWAP2 SUB SWAP1 REVERT JUMPDEST PUSH1 0x0 JUMPDEST DUP6 DUP6 SWAP1 POP DUP2 LT ISZERO PUSH2 0x1F2E JUMPI DUP4 DUP4 DUP3 DUP2 DUP2 LT PUSH2 0x1DF3 JUMPI PUSH2 0x1DF2 PUSH2 0x5E40 JUMP JUMPDEST JUMPDEST SWAP1 POP PUSH1 0x20 MUL ADD PUSH1 0x20 DUP2 ADD SWAP1 PUSH2 0x1E08 SWAP2 SWAP1 PUSH2 0x5316 JUMP JUMPDEST PUSH1 0x9 PUSH1 0x0 DUP9 DUP9 DUP6 DUP2 DUP2 LT PUSH2 0x1E1F JUMPI PUSH2 0x1E1E PUSH2 0x5E40 JUMP JUMPDEST JUMPDEST SWAP1 POP PUSH1 0x20 MUL ADD PUSH1 0x20 DUP2 ADD SWAP1 PUSH2 0x1E34 SWAP2 SWAP1 PUSH2 0x5289 JUMP JUMPDEST PUSH20 0xFFFFFFFFFFFFFFFFFFFFFFFFFFFFFFFFFFFFFFFF AND PUSH20 0xFFFFFFFFFFFFFFFFFFFFFFFFFFFFFFFFFFFFFFFF AND DUP2 MSTORE PUSH1 0x20 ADD SWAP1 DUP2 MSTORE PUSH1 0x20 ADD PUSH1 0x0 KECCAK256 PUSH1 0x0 PUSH2 0x100 EXP DUP2 SLOAD DUP2 PUSH1 0xFF MUL NOT AND SWAP1 DUP4 ISZERO ISZERO MUL OR SWAP1 SSTORE POP DUP6 DUP6 DUP3 DUP2 DUP2 LT PUSH2 0x1E98 JUMPI PUSH2 0x1E97 PUSH2 0x5E40 JUMP JUMPDEST JUMPDEST SWAP1 POP PUSH1 0x20 MUL ADD PUSH1 0x20 DUP2 ADD SWAP1 PUSH2 0x1EAD SWAP2 SWAP1 PUSH2 0x5289 JUMP JUMPDEST PUSH20 0xFFFFFFFFFFFFFFFFFFFFFFFFFFFFFFFFFFFFFFFF AND PUSH32 0x995D2434D36C9BCEAAB42C56EFE51E8FFE41FD11CABEFD9E2CB83700D8B2035E DUP6 DUP6 DUP5 DUP2 DUP2 LT PUSH2 0x1EF7 JUMPI PUSH2 0x1EF6 PUSH2 0x5E40 JUMP JUMPDEST JUMPDEST SWAP1 POP PUSH1 0x20 MUL ADD PUSH1 0x20 DUP2 ADD SWAP1 PUSH2 0x1F0C SWAP2 SWAP1 PUSH2 0x5316 JUMP JUMPDEST PUSH1 0x40 MLOAD PUSH2 0x1F19 SWAP2 SWAP1 PUSH2 0x5210 JUMP JUMPDEST PUSH1 0x40 MLOAD DUP1 SWAP2 SUB SWAP1 LOG2 DUP1 DUP1 PUSH1 0x1 ADD SWAP2 POP POP PUSH2 0x1DD5 JUMP JUMPDEST POP POP POP POP POP POP JUMP JUMPDEST PUSH1 0x0 DUP1 PUSH1 0x0 DUP1 PUSH1 0x0 DUP1 PUSH1 0x0 DUP1 PUSH1 0x0 PUSH1 0x8 PUSH1 0x0 DUP12 PUSH20 0xFFFFFFFFFFFFFFFFFFFFFFFFFFFFFFFFFFFFFFFF AND PUSH20 0xFFFFFFFFFFFFFFFFFFFFFFFFFFFFFFFFFFFFFFFF AND DUP2 MSTORE PUSH1 0x20 ADD SWAP1 DUP2 MSTORE PUSH1 0x20 ADD PUSH1 0x0 KECCAK256 SWAP1 POP PUSH1 0x0 JUMPDEST DUP2 DUP1 SLOAD SWAP1 POP DUP2 LT ISZERO PUSH2 0x226D JUMPI PUSH1 0x0 PUSH1 0x1 DUP2 GT ISZERO PUSH2 0x1FA8 JUMPI PUSH2 0x1FA7 PUSH2 0x53AF JUMP JUMPDEST JUMPDEST DUP3 DUP3 DUP2 SLOAD DUP2 LT PUSH2 0x1FBB JUMPI PUSH2 0x1FBA PUSH2 0x5E40 JUMP JUMPDEST JUMPDEST SWAP1 PUSH1 0x0 MSTORE PUSH1 0x20 PUSH1 0x0 KECCAK256 SWAP1 PUSH1 0x6 MUL ADD PUSH1 0x0 ADD PUSH1 0x0 SWAP1 SLOAD SWAP1 PUSH2 0x100 EXP SWAP1 DIV PUSH1 0xFF AND PUSH1 0x1 DUP2 GT ISZERO PUSH2 0x1FEC JUMPI PUSH2 0x1FEB PUSH2 0x53AF JUMP JUMPDEST JUMPDEST SUB PUSH2 0x20FC JUMPI DUP2 DUP2 DUP2 SLOAD DUP2 LT PUSH2 0x2004 JUMPI PUSH2 0x2003 PUSH2 0x5E40 JUMP JUMPDEST JUMPDEST SWAP1 PUSH1 0x0 MSTORE PUSH1 0x20 PUSH1 0x0 KECCAK256 SWAP1 PUSH1 0x6 MUL ADD PUSH1 0x1 ADD SLOAD DUP11 PUSH2 0x2021 SWAP2 SWAP1 PUSH2 0x5D69 JUMP JUMPDEST SWAP10 POP DUP2 DUP2 DUP2 SLOAD DUP2 LT PUSH2 0x2036 JUMPI PUSH2 0x2035 PUSH2 0x5E40 JUMP JUMPDEST JUMPDEST SWAP1 PUSH1 0x0 MSTORE PUSH1 0x20 PUSH1 0x0 KECCAK256 SWAP1 PUSH1 0x6 MUL ADD PUSH1 0x3 ADD PUSH1 0x0 SWAP1 SLOAD SWAP1 PUSH2 0x100 EXP SWAP1 DIV PUSH1 0xFF AND ISZERO PUSH2 0x208D JUMPI DUP2 DUP2 DUP2 SLOAD DUP2 LT PUSH2 0x206D JUMPI PUSH2 0x206C PUSH2 0x5E40 JUMP JUMPDEST JUMPDEST SWAP1 PUSH1 0x0 MSTORE PUSH1 0x20 PUSH1 0x0 KECCAK256 SWAP1 PUSH1 0x6 MUL ADD PUSH1 0x1 ADD SLOAD DUP9 PUSH2 0x208A SWAP2 SWAP1 PUSH2 0x5D69 JUMP JUMPDEST SWAP8 POP JUMPDEST DUP2 DUP2 DUP2 SLOAD DUP2 LT PUSH2 0x20A0 JUMPI PUSH2 0x209F PUSH2 0x5E40 JUMP JUMPDEST JUMPDEST SWAP1 PUSH1 0x0 MSTORE PUSH1 0x20 PUSH1 0x0 KECCAK256 SWAP1 PUSH1 0x6 MUL ADD PUSH1 0x3 ADD PUSH1 0x3 SWAP1 SLOAD SWAP1 PUSH2 0x100 EXP SWAP1 DIV PUSH1 0xFF AND ISZERO PUSH2 0x20F7 JUMPI DUP2 DUP2 DUP2 SLOAD DUP2 LT PUSH2 0x20D7 JUMPI PUSH2 0x20D6 PUSH2 0x5E40 JUMP JUMPDEST JUMPDEST SWAP1 PUSH1 0x0 MSTORE PUSH1 0x20 PUSH1 0x0 KECCAK256 SWAP1 PUSH1 0x6 MUL ADD PUSH1 0x1 ADD SLOAD DUP5 PUSH2 0x20F4 SWAP2 SWAP1 PUSH2 0x5D69 JUMP JUMPDEST SWAP4 POP JUMPDEST PUSH2 0x2260 JUMP JUMPDEST PUSH1 0x1 DUP1 DUP2 GT ISZERO PUSH2 0x210F JUMPI PUSH2 0x210E PUSH2 0x53AF JUMP JUMPDEST JUMPDEST DUP3 DUP3 DUP2 SLOAD DUP2 LT PUSH2 0x2122 JUMPI PUSH2 0x2121 PUSH2 0x5E40 JUMP JUMPDEST JUMPDEST SWAP1 PUSH1 0x0 MSTORE PUSH1 0x20 PUSH1 0x0 KECCAK256 SWAP1 PUSH1 0x6 MUL ADD PUSH1 0x0 ADD PUSH1 0x0 SWAP1 SLOAD SWAP1 PUSH2 0x100 EXP SWAP1 DIV PUSH1 0xFF AND PUSH1 0x1 DUP2 GT ISZERO PUSH2 0x2153 JUMPI PUSH2 0x2152 PUSH2 0x53AF JUMP JUMPDEST JUMPDEST SUB PUSH2 0x225F JUMPI DUP2 DUP2 DUP2 SLOAD DUP2 LT PUSH2 0x216B JUMPI PUSH2 0x216A PUSH2 0x5E40 JUMP JUMPDEST JUMPDEST SWAP1 PUSH1 0x0 MSTORE PUSH1 0x20 PUSH1 0x0 KECCAK256 SWAP1 PUSH1 0x6 MUL ADD PUSH1 0x1 ADD SLOAD DUP10 PUSH2 0x2188 SWAP2 SWAP1 PUSH2 0x5D69 JUMP JUMPDEST SWAP9 POP DUP2 DUP2 DUP2 SLOAD DUP2 LT PUSH2 0x219D JUMPI PUSH2 0x219C PUSH2 0x5E40 JUMP JUMPDEST JUMPDEST SWAP1 PUSH1 0x0 MSTORE PUSH1 0x20 PUSH1 0x0 KECCAK256 SWAP1 PUSH1 0x6 MUL ADD PUSH1 0x3 ADD PUSH1 0x0 SWAP1 SLOAD SWAP1 PUSH2 0x100 EXP SWAP1 DIV PUSH1 0xFF AND ISZERO PUSH2 0x21F4 JUMPI DUP2 DUP2 DUP2 SLOAD DUP2 LT PUSH2 0x21D4 JUMPI PUSH2 0x21D3 PUSH2 0x5E40 JUMP JUMPDEST JUMPDEST SWAP1 PUSH1 0x0 MSTORE PUSH1 0x20 PUSH1 0x0 KECCAK256 SWAP1 PUSH1 0x6 MUL ADD PUSH1 0x1 ADD SLOAD DUP8 PUSH2 0x21F1 SWAP2 SWAP1 PUSH2 0x5D69 JUMP JUMPDEST SWAP7 POP JUMPDEST DUP2 DUP2 DUP2 SLOAD DUP2 LT PUSH2 0x2207 JUMPI PUSH2 0x2206 PUSH2 0x5E40 JUMP JUMPDEST JUMPDEST SWAP1 PUSH1 0x0 MSTORE PUSH1 0x20 PUSH1 0x0 KECCAK256 SWAP1 PUSH1 0x6 MUL ADD PUSH1 0x3 ADD PUSH1 0x3 SWAP1 SLOAD SWAP1 PUSH2 0x100 EXP SWAP1 DIV PUSH1 0xFF AND ISZERO PUSH2 0x225E JUMPI DUP2 DUP2 DUP2 SLOAD DUP2 LT PUSH2 0x223E JUMPI PUSH2 0x223D PUSH2 0x5E40 JUMP JUMPDEST JUMPDEST SWAP1 PUSH1 0x0 MSTORE PUSH1 0x20 PUSH1 0x0 KECCAK256 SWAP1 PUSH1 0x6 MUL ADD PUSH1 0x1 ADD SLOAD DUP4 PUSH2 0x225B SWAP2 SWAP1 PUSH2 0x5D69 JUMP JUMPDEST SWAP3 POP JUMPDEST JUMPDEST JUMPDEST DUP1 DUP1 PUSH1 0x1 ADD SWAP2 POP POP PUSH2 0x1F88 JUMP JUMPDEST POP PUSH1 0xB PUSH1 0x0 DUP12 PUSH20 0xFFFFFFFFFFFFFFFFFFFFFFFFFFFFFFFFFFFFFFFF AND PUSH20 0xFFFFFFFFFFFFFFFFFFFFFFFFFFFFFFFFFFFFFFFF AND DUP2 MSTORE PUSH1 0x20 ADD SWAP1 DUP2 MSTORE PUSH1 0x20 ADD PUSH1 0x0 KECCAK256 SLOAD SWAP5 POP PUSH1 0xC PUSH1 0x0 DUP12 PUSH20 0xFFFFFFFFFFFFFFFFFFFFFFFFFFFFFFFFFFFFFFFF AND PUSH20 0xFFFFFFFFFFFFFFFFFFFFFFFFFFFFFFFFFFFFFFFF AND DUP2 MSTORE PUSH1 0x20 ADD SWAP1 DUP2 MSTORE PUSH1 0x20 ADD PUSH1 0x0 KECCAK256 SLOAD SWAP4 POP POP SWAP2 SWAP4 SWAP6 SWAP8 POP SWAP2 SWAP4 SWAP6 SWAP8 JUMP JUMPDEST PUSH1 0x5 PUSH1 0x2 SWAP1 SLOAD SWAP1 PUSH2 0x100 EXP SWAP1 DIV PUSH1 0xFF AND DUP2 JUMP JUMPDEST PUSH32 0xA49807205CE4D355092EF5A8A18F56E8913CF4A201FBE287825B095693C21775 PUSH2 0x233B DUP2 PUSH2 0x4B6A JUMP JUMPDEST DUP2 PUSH1 0x9 PUSH1 0x0 DUP6 PUSH20 0xFFFFFFFFFFFFFFFFFFFFFFFFFFFFFFFFFFFFFFFF AND PUSH20 0xFFFFFFFFFFFFFFFFFFFFFFFFFFFFFFFFFFFFFFFF AND DUP2 MSTORE PUSH1 0x20 ADD SWAP1 DUP2 MSTORE PUSH1 0x20 ADD PUSH1 0x0 KECCAK256 PUSH1 0x0 PUSH2 0x100 EXP DUP2 SLOAD DUP2 PUSH1 0xFF MUL NOT AND SWAP1 DUP4 ISZERO ISZERO MUL OR SWAP1 SSTORE POP DUP3 PUSH20 0xFFFFFFFFFFFFFFFFFFFFFFFFFFFFFFFFFFFFFFFF AND PUSH32 0x995D2434D36C9BCEAAB42C56EFE51E8FFE41FD11CABEFD9E2CB83700D8B2035E DUP4 PUSH1 0x40 MLOAD PUSH2 0x23D8 SWAP2 SWAP1 PUSH2 0x5210 JUMP JUMPDEST PUSH1 0x40 MLOAD DUP1 SWAP2 SUB SWAP1 LOG2 POP POP POP JUMP JUMPDEST PUSH1 0x6 SLOAD DUP2 JUMP JUMPDEST PUSH1 0xA PUSH1 0x20 MSTORE DUP1 PUSH1 0x0 MSTORE PUSH1 0x40 PUSH1 0x0 KECCAK256 PUSH1 0x0 SWAP2 POP SLOAD SWAP1 PUSH2 0x100 EXP SWAP1 DIV PUSH1 0xFF AND DUP2 JUMP JUMPDEST PUSH1 0x5 PUSH1 0x0 SWAP1 SLOAD SWAP1 PUSH2 0x100 EXP SWAP1 DIV PUSH1 0xFF AND DUP2 JUMP JUMPDEST PUSH32 0xF60566C40710959D8D30B6067CE3C53C757BEC78EECB0E46B83C7F8194FFAE37 PUSH2 0x2448 DUP2 PUSH2 0x4B6A JUMP JUMPDEST PUSH1 0x0 CALLVALUE GT PUSH2 0x248B JUMPI PUSH1 0x40 MLOAD PUSH32 0x8C379A000000000000000000000000000000000000000000000000000000000 DUP2 MSTORE PUSH1 0x4 ADD PUSH2 0x2482 SWAP1 PUSH2 0x627B JUMP JUMPDEST PUSH1 0x40 MLOAD DUP1 SWAP2 SUB SWAP1 REVERT JUMPDEST CALLVALUE PUSH1 0x16 PUSH1 0x0 DUP3 DUP3 SLOAD PUSH2 0x249D SWAP2 SWAP1 PUSH2 0x5D69 JUMP JUMPDEST SWAP3 POP POP DUP2 SWAP1 SSTORE POP CALLER PUSH20 0xFFFFFFFFFFFFFFFFFFFFFFFFFFFFFFFFFFFFFFFF AND PUSH32 0x8BAFEC96FCFFB6F12596B4635C76397B7BC1F363B22C49C13136B63677323DCC PUSH1 0x0 CALLVALUE TIMESTAMP PUSH1 0x40 MLOAD PUSH2 0x24EF SWAP4 SWAP3 SWAP2 SWAP1 PUSH2 0x5D9D JUMP JUMPDEST PUSH1 0x40 MLOAD DUP1 SWAP2 SUB SWAP1 LOG2 POP JUMP JUMPDEST PUSH32 0x65D7A28E3265B37A6474929F336521B332C1681B933F6CB9F3376673440D862A PUSH2 0x2524 DUP2 PUSH2 0x4B6A JUMP JUMPDEST DUP3 PUSH1 0x5 PUSH1 0x0 PUSH2 0x100 EXP DUP2 SLOAD DUP2 PUSH1 0xFF MUL NOT AND SWAP1 DUP4 ISZERO ISZERO MUL OR SWAP1 SSTORE POP DUP2 PUSH1 0x5 PUSH1 0x1 PUSH2 0x100 EXP DUP2 SLOAD DUP2 PUSH1 0xFF MUL NOT AND SWAP1 DUP4 ISZERO ISZERO MUL OR SWAP1 SSTORE POP PUSH32 0xAC1664632D6278432AA05A6AFC0AA83E5EA08E8DF9A1436736DAA5D6283211C0 DUP4 DUP4 PUSH1 0x40 MLOAD PUSH2 0x2589 SWAP3 SWAP2 SWAP1 PUSH2 0x629B JUMP JUMPDEST PUSH1 0x40 MLOAD DUP1 SWAP2 SUB SWAP1 LOG1 POP POP POP JUMP JUMPDEST PUSH2 0x259E PUSH2 0x4B7E JUMP JUMPDEST PUSH1 0x0 PUSH1 0xC PUSH1 0x0 CALLER PUSH20 0xFFFFFFFFFFFFFFFFFFFFFFFFFFFFFFFFFFFFFFFF AND PUSH20 0xFFFFFFFFFFFFFFFFFFFFFFFFFFFFFFFFFFFFFFFF AND DUP2 MSTORE PUSH1 0x20 ADD SWAP1 DUP2 MSTORE PUSH1 0x20 ADD PUSH1 0x0 KECCAK256 SLOAD SWAP1 POP PUSH1 0x0 DUP2 GT PUSH2 0x2625 JUMPI PUSH1 0x40 MLOAD PUSH32 0x8C379A000000000000000000000000000000000000000000000000000000000 DUP2 MSTORE PUSH1 0x4 ADD PUSH2 0x261C SWAP1 PUSH2 0x5D1A JUMP JUMPDEST PUSH1 0x40 MLOAD DUP1 SWAP2 SUB SWAP1 REVERT JUMPDEST PUSH1 0x0 PUSH1 0xC PUSH1 0x0 CALLER PUSH20 0xFFFFFFFFFFFFFFFFFFFFFFFFFFFFFFFFFFFFFFFF AND PUSH20 0xFFFFFFFFFFFFFFFFFFFFFFFFFFFFFFFFFFFFFFFF AND DUP2 MSTORE PUSH1 0x20 ADD SWAP1 DUP2 MSTORE PUSH1 0x20 ADD PUSH1 0x0 KECCAK256 DUP2 SWAP1 SSTORE POP PUSH20 0x833589FCD6EDB6E08F4C7C32D4F71B54BDA02913 PUSH20 0xFFFFFFFFFFFFFFFFFFFFFFFFFFFFFFFFFFFFFFFF AND PUSH4 0xA9059CBB CALLER DUP4 PUSH1 0x40 MLOAD DUP4 PUSH4 0xFFFFFFFF AND PUSH1 0xE0 SHL DUP2 MSTORE PUSH1 0x4 ADD PUSH2 0x26B9 SWAP3 SWAP2 SWAP1 PUSH2 0x5FF9 JUMP JUMPDEST PUSH1 0x20 PUSH1 0x40 MLOAD DUP1 DUP4 SUB DUP2 PUSH1 0x0 DUP8 GAS CALL ISZERO DUP1 ISZERO PUSH2 0x26D8 JUMPI RETURNDATASIZE PUSH1 0x0 DUP1 RETURNDATACOPY RETURNDATASIZE PUSH1 0x0 REVERT JUMPDEST POP POP POP POP PUSH1 0x40 MLOAD RETURNDATASIZE PUSH1 0x1F NOT PUSH1 0x1F DUP3 ADD AND DUP3 ADD DUP1 PUSH1 0x40 MSTORE POP DUP2 ADD SWAP1 PUSH2 0x26FC SWAP2 SWAP1 PUSH2 0x6037 JUMP JUMPDEST POP CALLER PUSH20 0xFFFFFFFFFFFFFFFFFFFFFFFFFFFFFFFFFFFFFFFF AND PUSH32 0x6914793C7A82461ACEC66C7DE7FDBBBF1F825C26BC2FE939B61F0E4F8964C2B5 PUSH1 0x1 DUP4 TIMESTAMP PUSH1 0x40 MLOAD PUSH2 0x2748 SWAP4 SWAP3 SWAP2 SWAP1 PUSH2 0x5D9D JUMP JUMPDEST PUSH1 0x40 MLOAD DUP1 SWAP2 SUB SWAP1 LOG2 POP PUSH2 0x2759 PUSH2 0x4F21 JUMP JUMPDEST JUMP JUMPDEST PUSH32 0xA49807205CE4D355092EF5A8A18F56E8913CF4A201FBE287825B095693C21775 PUSH2 0x2785 DUP2 PUSH2 0x4B6A JUMP JUMPDEST PUSH1 0x0 DUP3 GT PUSH2 0x27C8 JUMPI PUSH1 0x40 MLOAD PUSH32 0x8C379A000000000000000000000000000000000000000000000000000000000 DUP2 MSTORE PUSH1 0x4 ADD PUSH2 0x27BF SWAP1 PUSH2 0x616F JUMP JUMPDEST PUSH1 0x40 MLOAD DUP1 SWAP2 SUB SWAP1 REVERT JUMPDEST PUSH1 0x16 SLOAD DUP3 GT ISZERO PUSH2 0x280D JUMPI PUSH1 0x40 MLOAD PUSH32 0x8C379A000000000000000000000000000000000000000000000000000000000 DUP2 MSTORE PUSH1 0x4 ADD PUSH2 0x2804 SWAP1 PUSH2 0x61DB JUMP JUMPDEST PUSH1 0x40 MLOAD DUP1 SWAP2 SUB SWAP1 REVERT JUMPDEST DUP2 PUSH1 0xB PUSH1 0x0 DUP6 PUSH20 0xFFFFFFFFFFFFFFFFFFFFFFFFFFFFFFFFFFFFFFFF AND PUSH20 0xFFFFFFFFFFFFFFFFFFFFFFFFFFFFFFFFFFFFFFFF AND DUP2 MSTORE PUSH1 0x20 ADD SWAP1 DUP2 MSTORE PUSH1 0x20 ADD PUSH1 0x0 KECCAK256 PUSH1 0x0 DUP3 DUP3 SLOAD PUSH2 0x285C SWAP2 SWAP1 PUSH2 0x5D69 JUMP JUMPDEST SWAP3 POP POP DUP2 SWAP1 SSTORE POP DUP2 PUSH1 0x16 PUSH1 0x0 DUP3 DUP3 SLOAD PUSH2 0x2875 SWAP2 SWAP1 PUSH2 0x61FB JUMP JUMPDEST SWAP3 POP POP DUP2 SWAP1 SSTORE POP POP POP POP JUMP JUMPDEST PUSH2 0x2889 PUSH2 0x4B7E JUMP JUMPDEST PUSH1 0x5 PUSH1 0x1 SWAP1 SLOAD SWAP1 PUSH2 0x100 EXP SWAP1 DIV PUSH1 0xFF AND ISZERO PUSH2 0x28D9 JUMPI PUSH1 0x40 MLOAD PUSH32 0x8C379A000000000000000000000000000000000000000000000000000000000 DUP2 MSTORE PUSH1 0x4 ADD PUSH2 0x28D0 SWAP1 PUSH2 0x5E20 JUMP JUMPDEST PUSH1 0x40 MLOAD DUP1 SWAP2 SUB SWAP1 REVERT JUMPDEST PUSH1 0x0 DUP1 PUSH1 0x0 DUP1 PUSH1 0x0 JUMPDEST DUP7 DUP7 SWAP1 POP DUP2 LT ISZERO PUSH2 0x2D22 JUMPI PUSH1 0x0 PUSH1 0x8 PUSH1 0x0 CALLER PUSH20 0xFFFFFFFFFFFFFFFFFFFFFFFFFFFFFFFFFFFFFFFF AND PUSH20 0xFFFFFFFFFFFFFFFFFFFFFFFFFFFFFFFFFFFFFFFF AND DUP2 MSTORE PUSH1 0x20 ADD SWAP1 DUP2 MSTORE PUSH1 0x20 ADD PUSH1 0x0 KECCAK256 DUP9 DUP9 DUP5 DUP2 DUP2 LT PUSH2 0x2941 JUMPI PUSH2 0x2940 PUSH2 0x5E40 JUMP JUMPDEST JUMPDEST SWAP1 POP PUSH1 0x20 MUL ADD CALLDATALOAD DUP2 SLOAD DUP2 LT PUSH2 0x2959 JUMPI PUSH2 0x2958 PUSH2 0x5E40 JUMP JUMPDEST JUMPDEST SWAP1 PUSH1 0x0 MSTORE PUSH1 0x20 PUSH1 0x0 KECCAK256 SWAP1 PUSH1 0x6 MUL ADD SWAP1 POP DUP1 PUSH1 0x3 ADD PUSH1 0x0 SWAP1 SLOAD SWAP1 PUSH2 0x100 EXP SWAP1 DIV PUSH1 0xFF AND ISZERO PUSH2 0x29BB JUMPI PUSH1 0x40 MLOAD PUSH32 0x8C379A000000000000000000000000000000000000000000000000000000000 DUP2 MSTORE PUSH1 0x4 ADD PUSH2 0x29B2 SWAP1 PUSH2 0x5EBB JUMP JUMPDEST PUSH1 0x40 MLOAD DUP1 SWAP2 SUB SWAP1 REVERT JUMPDEST PUSH1 0x2 SLOAD DUP2 PUSH1 0x2 ADD SLOAD PUSH2 0x29CD SWAP2 SWAP1 PUSH2 0x5D69 JUMP JUMPDEST TIMESTAMP LT ISZERO DUP1 PUSH2 0x29E9 JUMPI POP DUP1 PUSH1 0x3 ADD PUSH1 0x1 SWAP1 SLOAD SWAP1 PUSH2 0x100 EXP SWAP1 DIV PUSH1 0xFF AND JUMPDEST DUP1 PUSH2 0x2A1A JUMPI POP PUSH1 0x5 PUSH1 0x3 SWAP1 SLOAD SWAP1 PUSH2 0x100 EXP SWAP1 DIV PUSH1 0xFF AND DUP1 ISZERO PUSH2 0x2A19 JUMPI POP DUP1 PUSH1 0x3 ADD PUSH1 0x2 SWAP1 SLOAD SWAP1 PUSH2 0x100 EXP SWAP1 DIV PUSH1 0xFF AND JUMPDEST JUMPDEST PUSH2 0x2A59 JUMPI PUSH1 0x40 MLOAD PUSH32 0x8C379A000000000000000000000000000000000000000000000000000000000 DUP2 MSTORE PUSH1 0x4 ADD PUSH2 0x2A50 SWAP1 PUSH2 0x5F27 JUMP JUMPDEST PUSH1 0x40 MLOAD DUP1 SWAP2 SUB SWAP1 REVERT JUMPDEST PUSH1 0x1 DUP2 PUSH1 0x3 ADD PUSH1 0x0 PUSH2 0x100 EXP DUP2 SLOAD DUP2 PUSH1 0xFF MUL NOT AND SWAP1 DUP4 ISZERO ISZERO MUL OR SWAP1 SSTORE POP TIMESTAMP DUP2 PUSH1 0x4 ADD DUP2 SWAP1 SSTORE POP PUSH1 0x0 DUP2 PUSH1 0x5 ADD SLOAD SWAP1 POP PUSH1 0x0 PUSH1 0x1 DUP2 GT ISZERO PUSH2 0x2A9C JUMPI PUSH2 0x2A9B PUSH2 0x53AF JUMP JUMPDEST JUMPDEST DUP3 PUSH1 0x0 ADD PUSH1 0x0 SWAP1 SLOAD SWAP1 PUSH2 0x100 EXP SWAP1 DIV PUSH1 0xFF AND PUSH1 0x1 DUP2 GT ISZERO PUSH2 0x2AC0 JUMPI PUSH2 0x2ABF PUSH2 0x53AF JUMP JUMPDEST JUMPDEST SUB PUSH2 0x2B07 JUMPI DUP2 PUSH1 0x1 ADD SLOAD PUSH1 0x14 PUSH1 0x0 DUP3 DUP3 SLOAD PUSH2 0x2ADB SWAP2 SWAP1 PUSH2 0x5D69 JUMP JUMPDEST SWAP3 POP POP DUP2 SWAP1 SSTORE POP DUP2 PUSH1 0x1 ADD SLOAD DUP8 PUSH2 0x2AF2 SWAP2 SWAP1 PUSH2 0x5D69 JUMP JUMPDEST SWAP7 POP DUP1 DUP7 PUSH2 0x2B00 SWAP2 SWAP1 PUSH2 0x5D69 JUMP JUMPDEST SWAP6 POP PUSH2 0x2B82 JUMP JUMPDEST PUSH1 0x1 DUP1 DUP2 GT ISZERO PUSH2 0x2B1A JUMPI PUSH2 0x2B19 PUSH2 0x53AF JUMP JUMPDEST JUMPDEST DUP3 PUSH1 0x0 ADD PUSH1 0x0 SWAP1 SLOAD SWAP1 PUSH2 0x100 EXP SWAP1 DIV PUSH1 0xFF AND PUSH1 0x1 DUP2 GT ISZERO PUSH2 0x2B3E JUMPI PUSH2 0x2B3D PUSH2 0x53AF JUMP JUMPDEST JUMPDEST SUB PUSH2 0x2B81 JUMPI DUP2 PUSH1 0x1 ADD SLOAD PUSH1 0x15 PUSH1 0x0 DUP3 DUP3 SLOAD PUSH2 0x2B59 SWAP2 SWAP1 PUSH2 0x5D69 JUMP JUMPDEST SWAP3 POP POP DUP2 SWAP1 SSTORE POP DUP2 PUSH1 0x1 ADD SLOAD DUP6 PUSH2 0x2B70 SWAP2 SWAP1 PUSH2 0x5D69 JUMP JUMPDEST SWAP5 POP DUP1 DUP5 PUSH2 0x2B7E SWAP2 SWAP1 PUSH2 0x5D69 JUMP JUMPDEST SWAP4 POP JUMPDEST JUMPDEST PUSH1 0xA PUSH1 0x0 CALLER PUSH20 0xFFFFFFFFFFFFFFFFFFFFFFFFFFFFFFFFFFFFFFFF AND PUSH20 0xFFFFFFFFFFFFFFFFFFFFFFFFFFFFFFFFFFFFFFFF AND DUP2 MSTORE PUSH1 0x20 ADD SWAP1 DUP2 MSTORE PUSH1 0x20 ADD PUSH1 0x0 KECCAK256 PUSH1 0x0 SWAP1 SLOAD SWAP1 PUSH2 0x100 EXP SWAP1 DIV PUSH1 0xFF AND PUSH2 0x2C8F JUMPI PUSH1 0x10 CALLER SWAP1 DUP1 PUSH1 0x1 DUP2 SLOAD ADD DUP1 DUP3 SSTORE DUP1 SWAP2 POP POP PUSH1 0x1 SWAP1 SUB SWAP1 PUSH1 0x0 MSTORE PUSH1 0x20 PUSH1 0x0 KECCAK256 ADD PUSH1 0x0 SWAP1 SWAP2 SWAP1 SWAP2 SWAP1 SWAP2 PUSH2 0x100 EXP DUP2 SLOAD DUP2 PUSH20 0xFFFFFFFFFFFFFFFFFFFFFFFFFFFFFFFFFFFFFFFF MUL NOT AND SWAP1 DUP4 PUSH20 0xFFFFFFFFFFFFFFFFFFFFFFFFFFFFFFFFFFFFFFFF AND MUL OR SWAP1 SSTORE POP PUSH1 0x1 PUSH1 0xA PUSH1 0x0 CALLER PUSH20 0xFFFFFFFFFFFFFFFFFFFFFFFFFFFFFFFFFFFFFFFF AND PUSH20 0xFFFFFFFFFFFFFFFFFFFFFFFFFFFFFFFFFFFFFFFF AND DUP2 MSTORE PUSH1 0x20 ADD SWAP1 DUP2 MSTORE PUSH1 0x20 ADD PUSH1 0x0 KECCAK256 PUSH1 0x0 PUSH2 0x100 EXP DUP2 SLOAD DUP2 PUSH1 0xFF MUL NOT AND SWAP1 DUP4 ISZERO ISZERO MUL OR SWAP1 SSTORE POP JUMPDEST CALLER PUSH20 0xFFFFFFFFFFFFFFFFFFFFFFFFFFFFFFFFFFFFFFFF AND PUSH32 0xCB034B37EF3764745C35BAFECD525367BCF312E9010239E6AEEBBE6BCF57727F DUP4 PUSH1 0x0 ADD PUSH1 0x0 SWAP1 SLOAD SWAP1 PUSH2 0x100 EXP SWAP1 DIV PUSH1 0xFF AND DUP5 PUSH1 0x1 ADD SLOAD DUP5 TIMESTAMP DUP15 DUP15 DUP11 DUP2 DUP2 LT PUSH2 0x2CF3 JUMPI PUSH2 0x2CF2 PUSH2 0x5E40 JUMP JUMPDEST JUMPDEST SWAP1 POP PUSH1 0x20 MUL ADD CALLDATALOAD PUSH1 0x40 MLOAD PUSH2 0x2D0B SWAP6 SWAP5 SWAP4 SWAP3 SWAP2 SWAP1 PUSH2 0x6064 JUMP JUMPDEST PUSH1 0x40 MLOAD DUP1 SWAP2 SUB SWAP1 LOG2 POP POP DUP1 DUP1 PUSH1 0x1 ADD SWAP2 POP POP PUSH2 0x28E2 JUMP JUMPDEST POP PUSH1 0x0 DUP4 DUP6 PUSH2 0x2D31 SWAP2 SWAP1 PUSH2 0x5D69 JUMP JUMPDEST GT ISZERO PUSH2 0x2E49 JUMPI PUSH1 0x0 CALLER PUSH20 0xFFFFFFFFFFFFFFFFFFFFFFFFFFFFFFFFFFFFFFFF AND DUP5 DUP7 PUSH2 0x2D5C SWAP2 SWAP1 PUSH2 0x5D69 JUMP JUMPDEST PUSH1 0x40 MLOAD PUSH2 0x2D68 SWAP1 PUSH2 0x5F78 JUMP JUMPDEST PUSH1 0x0 PUSH1 0x40 MLOAD DUP1 DUP4 SUB DUP2 DUP6 DUP8 GAS CALL SWAP3 POP POP POP RETURNDATASIZE DUP1 PUSH1 0x0 DUP2 EQ PUSH2 0x2DA5 JUMPI PUSH1 0x40 MLOAD SWAP2 POP PUSH1 0x1F NOT PUSH1 0x3F RETURNDATASIZE ADD AND DUP3 ADD PUSH1 0x40 MSTORE RETURNDATASIZE DUP3 MSTORE RETURNDATASIZE PUSH1 0x0 PUSH1 0x20 DUP5 ADD RETURNDATACOPY PUSH2 0x2DAA JUMP JUMPDEST PUSH1 0x60 SWAP2 POP JUMPDEST POP POP SWAP1 POP DUP1 PUSH2 0x2DEE JUMPI PUSH1 0x40 MLOAD PUSH32 0x8C379A000000000000000000000000000000000000000000000000000000000 DUP2 MSTORE PUSH1 0x4 ADD PUSH2 0x2DE5 SWAP1 PUSH2 0x5FD9 JUMP JUMPDEST PUSH1 0x40 MLOAD DUP1 SWAP2 SUB SWAP1 REVERT JUMPDEST CALLER PUSH20 0xFFFFFFFFFFFFFFFFFFFFFFFFFFFFFFFFFFFFFFFF AND PUSH32 0xBF06E98FE211A4B82F625232AB1C7A75CAEA5E0D624BC267578D6F22FCE788C3 PUSH1 0x0 DUP10 DUP10 DUP10 DUP10 TIMESTAMP PUSH1 0x40 MLOAD PUSH2 0x2E3F SWAP7 SWAP6 SWAP5 SWAP4 SWAP3 SWAP2 SWAP1 PUSH2 0x633F JUMP JUMPDEST PUSH1 0x40 MLOAD DUP1 SWAP2 SUB SWAP1 LOG2 POP JUMPDEST PUSH1 0x0 DUP2 DUP4 PUSH2 0x2E57 SWAP2 SWAP1 PUSH2 0x5D69 JUMP JUMPDEST GT ISZERO PUSH2 0x2F55 JUMPI PUSH20 0x833589FCD6EDB6E08F4C7C32D4F71B54BDA02913 PUSH20 0xFFFFFFFFFFFFFFFFFFFFFFFFFFFFFFFFFFFFFFFF AND PUSH4 0xA9059CBB CALLER DUP4 DUP6 PUSH2 0x2E9A SWAP2 SWAP1 PUSH2 0x5D69 JUMP JUMPDEST PUSH1 0x40 MLOAD DUP4 PUSH4 0xFFFFFFFF AND PUSH1 0xE0 SHL DUP2 MSTORE PUSH1 0x4 ADD PUSH2 0x2EB7 SWAP3 SWAP2 SWAP1 PUSH2 0x5FF9 JUMP JUMPDEST PUSH1 0x20 PUSH1 0x40 MLOAD DUP1 DUP4 SUB DUP2 PUSH1 0x0 DUP8 GAS CALL ISZERO DUP1 ISZERO PUSH2 0x2ED6 JUMPI RETURNDATASIZE PUSH1 0x0 DUP1 RETURNDATACOPY RETURNDATASIZE PUSH1 0x0 REVERT JUMPDEST POP POP POP POP PUSH1 0x40 MLOAD RETURNDATASIZE PUSH1 0x1F NOT PUSH1 0x1F DUP3 ADD AND DUP3 ADD DUP1 PUSH1 0x40 MSTORE POP DUP2 ADD SWAP1 PUSH2 0x2EFA SWAP2 SWAP1 PUSH2 0x6037 JUMP JUMPDEST POP CALLER PUSH20 0xFFFFFFFFFFFFFFFFFFFFFFFFFFFFFFFFFFFFFFFF AND PUSH32 0xBF06E98FE211A4B82F625232AB1C7A75CAEA5E0D624BC267578D6F22FCE788C3 PUSH1 0x1 DUP9 DUP9 DUP7 DUP7 TIMESTAMP PUSH1 0x40 MLOAD PUSH2 0x2F4C SWAP7 SWAP6 SWAP5 SWAP4 SWAP3 SWAP2 SWAP1 PUSH2 0x633F JUMP JUMPDEST PUSH1 0x40 MLOAD DUP1 SWAP2 SUB SWAP1 LOG2 JUMPDEST POP POP POP POP PUSH2 0x2F61 PUSH2 0x4F21 JUMP JUMPDEST POP POP JUMP JUMPDEST PUSH32 0xA49807205CE4D355092EF5A8A18F56E8913CF4A201FBE287825B095693C21775 DUP2 JUMP JUMPDEST PUSH32 0xA49807205CE4D355092EF5A8A18F56E8913CF4A201FBE287825B095693C21775 PUSH2 0x2FB3 DUP2 PUSH2 0x4B6A JUMP JUMPDEST PUSH1 0x0 DUP3 GT PUSH2 0x2FF6 JUMPI PUSH1 0x40 MLOAD PUSH32 0x8C379A000000000000000000000000000000000000000000000000000000000 DUP2 MSTORE PUSH1 0x4 ADD PUSH2 0x2FED SWAP1 PUSH2 0x616F JUMP JUMPDEST PUSH1 0x40 MLOAD DUP1 SWAP2 SUB SWAP1 REVERT JUMPDEST PUSH1 0x17 SLOAD DUP3 GT ISZERO PUSH2 0x303B JUMPI PUSH1 0x40 MLOAD PUSH32 0x8C379A000000000000000000000000000000000000000000000000000000000 DUP2 MSTORE PUSH1 0x4 ADD PUSH2 0x3032 SWAP1 PUSH2 0x61DB JUMP JUMPDEST PUSH1 0x40 MLOAD DUP1 SWAP2 SUB SWAP1 REVERT JUMPDEST DUP2 PUSH1 0xC PUSH1 0x0 DUP6 PUSH20 0xFFFFFFFFFFFFFFFFFFFFFFFFFFFFFFFFFFFFFFFF AND PUSH20 0xFFFFFFFFFFFFFFFFFFFFFFFFFFFFFFFFFFFFFFFF AND DUP2 MSTORE PUSH1 0x20 ADD SWAP1 DUP2 MSTORE PUSH1 0x20 ADD PUSH1 0x0 KECCAK256 PUSH1 0x0 DUP3 DUP3 SLOAD PUSH2 0x308A SWAP2 SWAP1 PUSH2 0x5D69 JUMP JUMPDEST SWAP3 POP POP DUP2 SWAP1 SSTORE POP DUP2 PUSH1 0x17 PUSH1 0x0 DUP3 DUP3 SLOAD PUSH2 0x30A3 SWAP2 SWAP1 PUSH2 0x61FB JUMP JUMPDEST SWAP3 POP POP DUP2 SWAP1 SSTORE POP POP POP POP JUMP JUMPDEST PUSH32 0x78C90EB9E475048B483A290AEE04B5FE48355537C3623C7637B17D3BED71C6ED PUSH2 0x30D9 DUP2 PUSH2 0x4B6A JUMP JUMPDEST PUSH2 0x30E1 PUSH2 0x4B7E JUMP JUMPDEST PUSH1 0x0 PUSH20 0xFFFFFFFFFFFFFFFFFFFFFFFFFFFFFFFFFFFFFFFF AND PUSH1 0x7 PUSH1 0x0 SWAP1 SLOAD SWAP1 PUSH2 0x100 EXP SWAP1 DIV PUSH20 0xFFFFFFFFFFFFFFFFFFFFFFFFFFFFFFFFFFFFFFFF AND PUSH20 0xFFFFFFFFFFFFFFFFFFFFFFFFFFFFFFFFFFFFFFFF AND SUB PUSH2 0x3172 JUMPI PUSH1 0x40 MLOAD PUSH32 0x8C379A000000000000000000000000000000000000000000000000000000000 DUP2 MSTORE PUSH1 0x4 ADD PUSH2 0x3169 SWAP1 PUSH2 0x63E7 JUMP JUMPDEST PUSH1 0x40 MLOAD DUP1 SWAP2 SUB SWAP1 REVERT JUMPDEST PUSH20 0x833589FCD6EDB6E08F4C7C32D4F71B54BDA02913 PUSH20 0xFFFFFFFFFFFFFFFFFFFFFFFFFFFFFFFFFFFFFFFF AND PUSH4 0xA9059CBB PUSH1 0x7 PUSH1 0x0 SWAP1 SLOAD SWAP1 PUSH2 0x100 EXP SWAP1 DIV PUSH20 0xFFFFFFFFFFFFFFFFFFFFFFFFFFFFFFFFFFFFFFFF AND DUP5 PUSH1 0x40 MLOAD DUP4 PUSH4 0xFFFFFFFF AND PUSH1 0xE0 SHL DUP2 MSTORE PUSH1 0x4 ADD PUSH2 0x31E3 SWAP3 SWAP2 SWAP1 PUSH2 0x5FF9 JUMP JUMPDEST PUSH1 0x20 PUSH1 0x40 MLOAD DUP1 DUP4 SUB DUP2 PUSH1 0x0 DUP8 GAS CALL ISZERO DUP1 ISZERO PUSH2 0x3202 JUMPI RETURNDATASIZE PUSH1 0x0 DUP1 RETURNDATACOPY RETURNDATASIZE PUSH1 0x0 REVERT JUMPDEST POP POP POP POP PUSH1 0x40 MLOAD RETURNDATASIZE PUSH1 0x1F NOT PUSH1 0x1F DUP3 ADD AND DUP3 ADD DUP1 PUSH1 0x40 MSTORE POP DUP2 ADD SWAP1 PUSH2 0x3226 SWAP2 SWAP1 PUSH2 0x6037 JUMP JUMPDEST POP PUSH1 0x7 PUSH1 0x0 SWAP1 SLOAD SWAP1 PUSH2 0x100 EXP SWAP1 DIV PUSH20 0xFFFFFFFFFFFFFFFFFFFFFFFFFFFFFFFFFFFFFFFF AND PUSH20 0xFFFFFFFFFFFFFFFFFFFFFFFFFFFFFFFFFFFFFFFF AND PUSH32 0x9ADBDC797ACA3CE26A722598F00149B2328FD124444E6D0B10C4BDC7CFC38196 PUSH1 0x1 DUP5 TIMESTAMP PUSH1 0x40 MLOAD PUSH2 0x3294 SWAP4 SWAP3 SWAP2 SWAP1 PUSH2 0x5D9D JUMP JUMPDEST PUSH1 0x40 MLOAD DUP1 SWAP2 SUB SWAP1 LOG2 PUSH2 0x32A4 PUSH2 0x4F21 JUMP JUMPDEST POP POP JUMP JUMPDEST PUSH32 0xC806897CAF4FD5068191157E44D3988E43139A37E0B97B6793E1ED1184140604 PUSH2 0x32D2 DUP2 PUSH2 0x4B6A JUMP JUMPDEST PUSH1 0x0 JUMPDEST DUP4 DUP4 SWAP1 POP DUP2 LT ISZERO PUSH2 0x33F4 JUMPI PUSH1 0x0 PUSH1 0x8 PUSH1 0x0 DUP8 PUSH20 0xFFFFFFFFFFFFFFFFFFFFFFFFFFFFFFFFFFFFFFFF AND PUSH20 0xFFFFFFFFFFFFFFFFFFFFFFFFFFFFFFFFFFFFFFFF AND DUP2 MSTORE PUSH1 0x20 ADD SWAP1 DUP2 MSTORE PUSH1 0x20 ADD PUSH1 0x0 KECCAK256 DUP6 DUP6 DUP5 DUP2 DUP2 LT PUSH2 0x3334 JUMPI PUSH2 0x3333 PUSH2 0x5E40 JUMP JUMPDEST JUMPDEST SWAP1 POP PUSH1 0x20 MUL ADD CALLDATALOAD DUP2 SLOAD DUP2 LT PUSH2 0x334C JUMPI PUSH2 0x334B PUSH2 0x5E40 JUMP JUMPDEST JUMPDEST SWAP1 PUSH1 0x0 MSTORE PUSH1 0x20 PUSH1 0x0 KECCAK256 SWAP1 PUSH1 0x6 MUL ADD SWAP1 POP DUP1 PUSH1 0x3 ADD PUSH1 0x0 SWAP1 SLOAD SWAP1 PUSH2 0x100 EXP SWAP1 DIV PUSH1 0xFF AND ISZERO DUP1 ISZERO PUSH2 0x338A JUMPI POP DUP1 PUSH1 0x3 ADD PUSH1 0x1 SWAP1 SLOAD SWAP1 PUSH2 0x100 EXP SWAP1 DIV PUSH1 0xFF AND ISZERO JUMPDEST PUSH2 0x33C9 JUMPI PUSH1 0x40 MLOAD PUSH32 0x8C379A000000000000000000000000000000000000000000000000000000000 DUP2 MSTORE PUSH1 0x4 ADD PUSH2 0x33C0 SWAP1 PUSH2 0x6453 JUMP JUMPDEST PUSH1 0x40 MLOAD DUP1 SWAP2 SUB SWAP1 REVERT JUMPDEST PUSH1 0x1 DUP2 PUSH1 0x3 ADD PUSH1 0x1 PUSH2 0x100 EXP DUP2 SLOAD DUP2 PUSH1 0xFF MUL NOT AND SWAP1 DUP4 ISZERO ISZERO MUL OR SWAP1 SSTORE POP POP DUP1 DUP1 PUSH1 0x1 ADD SWAP2 POP POP PUSH2 0x32D5 JUMP JUMPDEST POP DUP4 PUSH20 0xFFFFFFFFFFFFFFFFFFFFFFFFFFFFFFFFFFFFFFFF AND PUSH32 0x8B655A966F162E1D3686EA25CD61682331984AB5662B451DEFF96F12D716F45B DUP5 DUP5 PUSH1 0x40 MLOAD PUSH2 0x343D SWAP3 SWAP2 SWAP1 PUSH2 0x6473 JUMP JUMPDEST PUSH1 0x40 MLOAD DUP1 SWAP2 SUB SWAP1 LOG2 POP POP POP POP JUMP JUMPDEST PUSH32 0x78C90EB9E475048B483A290AEE04B5FE48355537C3623C7637B17D3BED71C6ED DUP2 JUMP JUMPDEST PUSH1 0xD PUSH1 0x20 MSTORE DUP1 PUSH1 0x0 MSTORE PUSH1 0x40 PUSH1 0x0 KECCAK256 PUSH1 0x0 SWAP2 POP SWAP1 POP SLOAD DUP2 JUMP JUMPDEST PUSH1 0x12 SLOAD DUP2 JUMP JUMPDEST PUSH20 0x833589FCD6EDB6E08F4C7C32D4F71B54BDA02913 DUP2 JUMP JUMPDEST PUSH32 0xA49807205CE4D355092EF5A8A18F56E8913CF4A201FBE287825B095693C21775 PUSH2 0x34CF DUP2 PUSH2 0x4B6A JUMP JUMPDEST PUSH1 0x0 PUSH20 0xFFFFFFFFFFFFFFFFFFFFFFFFFFFFFFFFFFFFFFFF AND DUP3 PUSH20 0xFFFFFFFFFFFFFFFFFFFFFFFFFFFFFFFFFFFFFFFF AND SUB PUSH2 0x353E JUMPI PUSH1 0x40 MLOAD PUSH32 0x8C379A000000000000000000000000000000000000000000000000000000000 DUP2 MSTORE PUSH1 0x4 ADD PUSH2 0x3535 SWAP1 PUSH2 0x64E3 JUMP JUMPDEST PUSH1 0x40 MLOAD DUP1 SWAP2 SUB SWAP1 REVERT JUMPDEST DUP2 PUSH1 0x7 PUSH1 0x0 PUSH2 0x100 EXP DUP2 SLOAD DUP2 PUSH20 0xFFFFFFFFFFFFFFFFFFFFFFFFFFFFFFFFFFFFFFFF MUL NOT AND SWAP1 DUP4 PUSH20 0xFFFFFFFFFFFFFFFFFFFFFFFFFFFFFFFFFFFFFFFF AND MUL OR SWAP1 SSTORE POP PUSH32 0x1D6240E71A77C9E9D07D1D6ECBB9EA4274FCC8BC19ADC5B05A3548AC7E40E189 DUP3 PUSH1 0x40 MLOAD PUSH2 0x35AE SWAP2 SWAP1 PUSH2 0x5B30 JUMP JUMPDEST PUSH1 0x40 MLOAD DUP1 SWAP2 SUB SWAP1 LOG1 POP POP JUMP JUMPDEST PUSH1 0x14 SLOAD DUP2 JUMP JUMPDEST PUSH1 0x0 DUP1 PUSH1 0x0 DUP5 DUP2 MSTORE PUSH1 0x20 ADD SWAP1 DUP2 MSTORE PUSH1 0x20 ADD PUSH1 0x0 KECCAK256 PUSH1 0x0 ADD PUSH1 0x0 DUP4 PUSH20 0xFFFFFFFFFFFFFFFFFFFFFFFFFFFFFFFFFFFFFFFF AND PUSH20 0xFFFFFFFFFFFFFFFFFFFFFFFFFFFFFFFFFFFFFFFF AND DUP2 MSTORE PUSH1 0x20 ADD SWAP1 DUP2 MSTORE PUSH1 0x20 ADD PUSH1 0x0 KECCAK256 PUSH1 0x0 SWAP1 SLOAD SWAP1 PUSH2 0x100 EXP SWAP1 DIV PUSH1 0xFF AND SWAP1 POP SWAP3 SWAP2 POP POP JUMP JUMPDEST PUSH32 0x78C90EB9E475048B483A290AEE04B5FE48355537C3623C7637B17D3BED71C6ED PUSH2 0x3654 DUP2 PUSH2 0x4B6A JUMP JUMPDEST PUSH2 0x365C PUSH2 0x4B7E JUMP JUMPDEST PUSH1 0x0 PUSH20 0xFFFFFFFFFFFFFFFFFFFFFFFFFFFFFFFFFFFFFFFF AND PUSH1 0x7 PUSH1 0x0 SWAP1 SLOAD SWAP1 PUSH2 0x100 EXP SWAP1 DIV PUSH20 0xFFFFFFFFFFFFFFFFFFFFFFFFFFFFFFFFFFFFFFFF AND PUSH20 0xFFFFFFFFFFFFFFFFFFFFFFFFFFFFFFFFFFFFFFFF AND SUB PUSH2 0x36ED JUMPI PUSH1 0x40 MLOAD PUSH32 0x8C379A000000000000000000000000000000000000000000000000000000000 DUP2 MSTORE PUSH1 0x4 ADD PUSH2 0x36E4 SWAP1 PUSH2 0x63E7 JUMP JUMPDEST PUSH1 0x40 MLOAD DUP1 SWAP2 SUB SWAP1 REVERT JUMPDEST SELFBALANCE DUP3 GT ISZERO PUSH2 0x3730 JUMPI PUSH1 0x40 MLOAD PUSH32 0x8C379A000000000000000000000000000000000000000000000000000000000 DUP2 MSTORE PUSH1 0x4 ADD PUSH2 0x3727 SWAP1 PUSH2 0x654F JUMP JUMPDEST PUSH1 0x40 MLOAD DUP1 SWAP2 SUB SWAP1 REVERT JUMPDEST PUSH1 0x0 PUSH1 0x7 PUSH1 0x0 SWAP1 SLOAD SWAP1 PUSH2 0x100 EXP SWAP1 DIV PUSH20 0xFFFFFFFFFFFFFFFFFFFFFFFFFFFFFFFFFFFFFFFF AND PUSH20 0xFFFFFFFFFFFFFFFFFFFFFFFFFFFFFFFFFFFFFFFF AND DUP4 PUSH1 0x40 MLOAD PUSH2 0x3778 SWAP1 PUSH2 0x5F78 JUMP JUMPDEST PUSH1 0x0 PUSH1 0x40 MLOAD DUP1 DUP4 SUB DUP2 DUP6 DUP8 GAS CALL SWAP3 POP POP POP RETURNDATASIZE DUP1 PUSH1 0x0 DUP2 EQ PUSH2 0x37B5 JUMPI PUSH1 0x40 MLOAD SWAP2 POP PUSH1 0x1F NOT PUSH1 0x3F RETURNDATASIZE ADD AND DUP3 ADD PUSH1 0x40 MSTORE RETURNDATASIZE DUP3 MSTORE RETURNDATASIZE PUSH1 0x0 PUSH1 0x20 DUP5 ADD RETURNDATACOPY PUSH2 0x37BA JUMP JUMPDEST PUSH1 0x60 SWAP2 POP JUMPDEST POP POP SWAP1 POP DUP1 PUSH2 0x37FE JUMPI PUSH1 0x40 MLOAD PUSH32 0x8C379A000000000000000000000000000000000000000000000000000000000 DUP2 MSTORE PUSH1 0x4 ADD PUSH2 0x37F5 SWAP1 PUSH2 0x5FD9 JUMP JUMPDEST PUSH1 0x40 MLOAD DUP1 SWAP2 SUB SWAP1 REVERT JUMPDEST PUSH1 0x7 PUSH1 0x0 SWAP1 SLOAD SWAP1 PUSH2 0x100 EXP SWAP1 DIV PUSH20 0xFFFFFFFFFFFFFFFFFFFFFFFFFFFFFFFFFFFFFFFF AND PUSH20 0xFFFFFFFFFFFFFFFFFFFFFFFFFFFFFFFFFFFFFFFF AND PUSH32 0x9ADBDC797ACA3CE26A722598F00149B2328FD124444E6D0B10C4BDC7CFC38196 PUSH1 0x0 DUP6 TIMESTAMP PUSH1 0x40 MLOAD PUSH2 0x386B SWAP4 SWAP3 SWAP2 SWAP1 PUSH2 0x5D9D JUMP JUMPDEST PUSH1 0x40 MLOAD DUP1 SWAP2 SUB SWAP1 LOG2 POP PUSH2 0x387C PUSH2 0x4F21 JUMP JUMPDEST POP POP JUMP JUMPDEST PUSH1 0x18 SLOAD DUP2 JUMP JUMPDEST PUSH1 0x3 SLOAD DUP2 JUMP JUMPDEST PUSH1 0x10 DUP2 DUP2 SLOAD DUP2 LT PUSH2 0x389C JUMPI PUSH1 0x0 DUP1 REVERT JUMPDEST SWAP1 PUSH1 0x0 MSTORE PUSH1 0x20 PUSH1 0x0 KECCAK256 ADD PUSH1 0x0 SWAP2 POP SLOAD SWAP1 PUSH2 0x100 EXP SWAP1 DIV PUSH20 0xFFFFFFFFFFFFFFFFFFFFFFFFFFFFFFFFFFFFFFFF AND DUP2 JUMP JUMPDEST PUSH1 0x0 DUP1 SHL DUP2 JUMP JUMPDEST PUSH1 0xF DUP2 DUP2 SLOAD DUP2 LT PUSH2 0x38E2 JUMPI PUSH1 0x0 DUP1 REVERT JUMPDEST SWAP1 PUSH1 0x0 MSTORE PUSH1 0x20 PUSH1 0x0 KECCAK256 ADD PUSH1 0x0 SWAP2 POP SLOAD SWAP1 PUSH2 0x100 EXP SWAP1 DIV PUSH20 0xFFFFFFFFFFFFFFFFFFFFFFFFFFFFFFFFFFFFFFFF AND DUP2 JUMP JUMPDEST PUSH1 0x0 DUP1 PUSH1 0x0 DUP1 PUSH1 0x0 DUP1 PUSH1 0x0 DUP1 PUSH1 0x0 DUP1 PUSH1 0x0 DUP1 SELFBALANCE SWAP12 POP PUSH20 0x833589FCD6EDB6E08F4C7C32D4F71B54BDA02913 PUSH20 0xFFFFFFFFFFFFFFFFFFFFFFFFFFFFFFFFFFFFFFFF AND PUSH4 0x70A08231 ADDRESS PUSH1 0x40 MLOAD DUP3 PUSH4 0xFFFFFFFF AND PUSH1 0xE0 SHL DUP2 MSTORE PUSH1 0x4 ADD PUSH2 0x3973 SWAP2 SWAP1 PUSH2 0x5B30 JUMP JUMPDEST PUSH1 0x20 PUSH1 0x40 MLOAD DUP1 DUP4 SUB DUP2 DUP7 GAS STATICCALL ISZERO DUP1 ISZERO PUSH2 0x3990 JUMPI RETURNDATASIZE PUSH1 0x0 DUP1 RETURNDATACOPY RETURNDATASIZE PUSH1 0x0 REVERT JUMPDEST POP POP POP POP PUSH1 0x40 MLOAD RETURNDATASIZE PUSH1 0x1F NOT PUSH1 0x1F DUP3 ADD AND DUP3 ADD DUP1 PUSH1 0x40 MSTORE POP DUP2 ADD SWAP1 PUSH2 0x39B4 SWAP2 SWAP1 PUSH2 0x6584 JUMP JUMPDEST SWAP11 POP PUSH1 0x12 SLOAD SWAP10 POP PUSH1 0x13 SLOAD SWAP9 POP PUSH1 0x14 SLOAD SWAP8 POP PUSH1 0x15 SLOAD SWAP7 POP PUSH1 0x16 SLOAD SWAP6 POP PUSH1 0x17 SLOAD SWAP5 POP PUSH1 0x18 SLOAD SWAP4 POP PUSH1 0x19 SLOAD SWAP3 POP PUSH1 0xF DUP1 SLOAD SWAP1 POP SWAP2 POP PUSH1 0x10 DUP1 SLOAD SWAP1 POP SWAP1 POP SWAP1 SWAP2 SWAP3 SWAP4 SWAP5 SWAP6 SWAP7 SWAP8 SWAP9 SWAP10 SWAP11 SWAP12 JUMP JUMPDEST PUSH32 0xA49807205CE4D355092EF5A8A18F56E8913CF4A201FBE287825B095693C21775 PUSH2 0x3A26 DUP2 PUSH2 0x4B6A JUMP JUMPDEST PUSH1 0x0 PUSH20 0xFFFFFFFFFFFFFFFFFFFFFFFFFFFFFFFFFFFFFFFF AND DUP4 PUSH20 0xFFFFFFFFFFFFFFFFFFFFFFFFFFFFFFFFFFFFFFFF AND SUB PUSH2 0x3A95 JUMPI PUSH1 0x40 MLOAD PUSH32 0x8C379A000000000000000000000000000000000000000000000000000000000 DUP2 MSTORE PUSH1 0x4 ADD PUSH2 0x3A8C SWAP1 PUSH2 0x64E3 JUMP JUMPDEST PUSH1 0x40 MLOAD DUP1 SWAP2 SUB SWAP1 REVERT JUMPDEST DUP4 PUSH20 0xFFFFFFFFFFFFFFFFFFFFFFFFFFFFFFFFFFFFFFFF AND PUSH4 0xA9059CBB DUP5 DUP5 PUSH1 0x40 MLOAD DUP4 PUSH4 0xFFFFFFFF AND PUSH1 0xE0 SHL DUP2 MSTORE PUSH1 0x4 ADD PUSH2 0x3AD0 SWAP3 SWAP2 SWAP1 PUSH2 0x5FF9 JUMP JUMPDEST PUSH1 0x20 PUSH1 0x40 MLOAD DUP1 DUP4 SUB DUP2 PUSH1 0x0 DUP8 GAS CALL ISZERO DUP1 ISZERO PUSH2 0x3AEF JUMPI RETURNDATASIZE PUSH1 0x0 DUP1 RETURNDATACOPY RETURNDATASIZE PUSH1 0x0 REVERT JUMPDEST POP POP POP POP PUSH1 0x40 MLOAD RETURNDATASIZE PUSH1 0x1F NOT PUSH1 0x1F DUP3 ADD AND DUP3 ADD DUP1 PUSH1 0x40 MSTORE POP DUP2 ADD SWAP1 PUSH2 0x3B13 SWAP2 SWAP1 PUSH2 0x6037 JUMP JUMPDEST POP DUP3 PUSH20 0xFFFFFFFFFFFFFFFFFFFFFFFFFFFFFFFFFFFFFFFF AND DUP5 PUSH20 0xFFFFFFFFFFFFFFFFFFFFFFFFFFFFFFFFFFFFFFFF AND PUSH32 0x8BBFBB5D7FCACF6FC74005CDEDE0635561638507F576C95F7F294C22141BE2E5 DUP5 PUSH1 0x40 MLOAD PUSH2 0x3B71 SWAP2 SWAP1 PUSH2 0x52CF JUMP JUMPDEST PUSH1 0x40 MLOAD DUP1 SWAP2 SUB SWAP1 LOG3 POP POP POP POP JUMP JUMPDEST PUSH1 0x5 PUSH1 0x1 SWAP1 SLOAD SWAP1 PUSH2 0x100 EXP SWAP1 DIV PUSH1 0xFF AND DUP2 JUMP JUMPDEST PUSH1 0x16 SLOAD DUP2 JUMP JUMPDEST PUSH32 0xA49807205CE4D355092EF5A8A18F56E8913CF4A201FBE287825B095693C21775 PUSH2 0x3BC2 DUP2 PUSH2 0x4B6A JUMP JUMPDEST DUP3 DUP3 SWAP1 POP DUP6 DUP6 SWAP1 POP EQ PUSH2 0x3C0A JUMPI PUSH1 0x40 MLOAD PUSH32 0x8C379A000000000000000000000000000000000000000000000000000000000 DUP2 MSTORE PUSH1 0x4 ADD PUSH2 0x3C01 SWAP1 PUSH2 0x6103 JUMP JUMPDEST PUSH1 0x40 MLOAD DUP1 SWAP2 SUB SWAP1 REVERT JUMPDEST PUSH1 0x0 DUP1 PUSH1 0x0 SWAP1 POP JUMPDEST DUP7 DUP7 SWAP1 POP DUP2 LT ISZERO PUSH2 0x3D43 JUMPI PUSH1 0x0 DUP6 DUP6 DUP4 DUP2 DUP2 LT PUSH2 0x3C32 JUMPI PUSH2 0x3C31 PUSH2 0x5E40 JUMP JUMPDEST JUMPDEST SWAP1 POP PUSH1 0x20 MUL ADD CALLDATALOAD GT PUSH2 0x3C79 JUMPI PUSH1 0x40 MLOAD PUSH32 0x8C379A000000000000000000000000000000000000000000000000000000000 DUP2 MSTORE PUSH1 0x4 ADD PUSH2 0x3C70 SWAP1 PUSH2 0x616F JUMP JUMPDEST PUSH1 0x40 MLOAD DUP1 SWAP2 SUB SWAP1 REVERT JUMPDEST DUP5 DUP5 DUP3 DUP2 DUP2 LT PUSH2 0x3C8C JUMPI PUSH2 0x3C8B PUSH2 0x5E40 JUMP JUMPDEST JUMPDEST SWAP1 POP PUSH1 0x20 MUL ADD CALLDATALOAD PUSH1 0xB PUSH1 0x0 DUP10 DUP10 DUP6 DUP2 DUP2 LT PUSH2 0x3CAA JUMPI PUSH2 0x3CA9 PUSH2 0x5E40 JUMP JUMPDEST JUMPDEST SWAP1 POP PUSH1 0x20 MUL ADD PUSH1 0x20 DUP2 ADD SWAP1 PUSH2 0x3CBF SWAP2 SWAP1 PUSH2 0x5289 JUMP JUMPDEST PUSH20 0xFFFFFFFFFFFFFFFFFFFFFFFFFFFFFFFFFFFFFFFF AND PUSH20 0xFFFFFFFFFFFFFFFFFFFFFFFFFFFFFFFFFFFFFFFF AND DUP2 MSTORE PUSH1 0x20 ADD SWAP1 DUP2 MSTORE PUSH1 0x20 ADD PUSH1 0x0 KECCAK256 PUSH1 0x0 DUP3 DUP3 SLOAD PUSH2 0x3D08 SWAP2 SWAP1 PUSH2 0x5D69 JUMP JUMPDEST SWAP3 POP POP DUP2 SWAP1 SSTORE POP DUP5 DUP5 DUP3 DUP2 DUP2 LT PUSH2 0x3D22 JUMPI PUSH2 0x3D21 PUSH2 0x5E40 JUMP JUMPDEST JUMPDEST SWAP1 POP PUSH1 0x20 MUL ADD CALLDATALOAD DUP3 PUSH2 0x3D34 SWAP2 SWAP1 PUSH2 0x5D69 JUMP JUMPDEST SWAP2 POP DUP1 DUP1 PUSH1 0x1 ADD SWAP2 POP POP PUSH2 0x3C12 JUMP JUMPDEST POP PUSH1 0x16 SLOAD DUP2 GT ISZERO PUSH2 0x3D89 JUMPI PUSH1 0x40 MLOAD PUSH32 0x8C379A000000000000000000000000000000000000000000000000000000000 DUP2 MSTORE PUSH1 0x4 ADD PUSH2 0x3D80 SWAP1 PUSH2 0x61DB JUMP JUMPDEST PUSH1 0x40 MLOAD DUP1 SWAP2 SUB SWAP1 REVERT JUMPDEST DUP1 PUSH1 0x16 PUSH1 0x0 DUP3 DUP3 SLOAD PUSH2 0x3D9B SWAP2 SWAP1 PUSH2 0x61FB JUMP JUMPDEST SWAP3 POP POP DUP2 SWAP1 SSTORE POP POP POP POP POP POP POP JUMP JUMPDEST PUSH2 0x3DB2 PUSH2 0x4B7E JUMP JUMPDEST PUSH1 0x0 PUSH1 0xC PUSH1 0x0 CALLER PUSH20 0xFFFFFFFFFFFFFFFFFFFFFFFFFFFFFFFFFFFFFFFF AND PUSH20 0xFFFFFFFFFFFFFFFFFFFFFFFFFFFFFFFFFFFFFFFF AND DUP2 MSTORE PUSH1 0x20 ADD SWAP1 DUP2 MSTORE PUSH1 0x20 ADD PUSH1 0x0 KECCAK256 SLOAD SWAP1 POP PUSH1 0x0 DUP2 GT PUSH2 0x3E39 JUMPI PUSH1 0x40 MLOAD PUSH32 0x8C379A000000000000000000000000000000000000000000000000000000000 DUP2 MSTORE PUSH1 0x4 ADD PUSH2 0x3E30 SWAP1 PUSH2 0x5D1A JUMP JUMPDEST PUSH1 0x40 MLOAD DUP1 SWAP2 SUB SWAP1 REVERT JUMPDEST PUSH1 0x0 PUSH1 0xC PUSH1 0x0 CALLER PUSH20 0xFFFFFFFFFFFFFFFFFFFFFFFFFFFFFFFFFFFFFFFF AND PUSH20 0xFFFFFFFFFFFFFFFFFFFFFFFFFFFFFFFFFFFFFFFF AND DUP2 MSTORE PUSH1 0x20 ADD SWAP1 DUP2 MSTORE PUSH1 0x20 ADD PUSH1 0x0 KECCAK256 DUP2 SWAP1 SSTORE POP PUSH2 0x3E8C CALLER PUSH1 0x1 DUP4 PUSH1 0x1 PUSH2 0x4BC4 JUMP JUMPDEST DUP1 PUSH1 0x19 PUSH1 0x0 DUP3 DUP3 SLOAD PUSH2 0x3E9E SWAP2 SWAP1 PUSH2 0x5D69 JUMP JUMPDEST SWAP3 POP POP DUP2 SWAP1 SSTORE POP DUP1 PUSH1 0xE PUSH1 0x0 CALLER PUSH20 0xFFFFFFFFFFFFFFFFFFFFFFFFFFFFFFFFFFFFFFFF AND PUSH20 0xFFFFFFFFFFFFFFFFFFFFFFFFFFFFFFFFFFFFFFFF AND DUP2 MSTORE PUSH1 0x20 ADD SWAP1 DUP2 MSTORE PUSH1 0x20 ADD PUSH1 0x0 KECCAK256 PUSH1 0x0 DUP3 DUP3 SLOAD PUSH2 0x3EF4 SWAP2 SWAP1 PUSH2 0x5D69 JUMP JUMPDEST SWAP3 POP POP DUP2 SWAP1 SSTORE POP CALLER PUSH20 0xFFFFFFFFFFFFFFFFFFFFFFFFFFFFFFFFFFFFFFFF AND PUSH32 0x997D2EC09B086DE73D509BBC4AD2B52FD7E2338024464BEDE93A41ABD6CCDC38 PUSH1 0x1 DUP4 TIMESTAMP PUSH1 0x40 MLOAD PUSH2 0x3F46 SWAP4 SWAP3 SWAP2 SWAP1 PUSH2 0x5D9D JUMP JUMPDEST PUSH1 0x40 MLOAD DUP1 SWAP2 SUB SWAP1 LOG2 POP PUSH2 0x3F57 PUSH2 0x4F21 JUMP JUMPDEST JUMP JUMPDEST PUSH32 0xA49807205CE4D355092EF5A8A18F56E8913CF4A201FBE287825B095693C21775 PUSH2 0x3F83 DUP2 PUSH2 0x4B6A JUMP JUMPDEST DUP2 PUSH1 0x2 DUP2 SWAP1 SSTORE POP PUSH32 0xC5E00A325524BC148DDC05BB642B804E9AE1DFC670C217ED3C4C6595F7427EF4 DUP3 PUSH1 0x40 MLOAD PUSH2 0x3FB9 SWAP2 SWAP1 PUSH2 0x52CF JUMP JUMPDEST PUSH1 0x40 MLOAD DUP1 SWAP2 SUB SWAP1 LOG1 POP POP JUMP JUMPDEST PUSH2 0x3FCE DUP3 PUSH2 0x11BA JUMP JUMPDEST PUSH2 0x3FD7 DUP2 PUSH2 0x4B6A JUMP JUMPDEST PUSH2 0x3FE1 DUP4 DUP4 PUSH2 0x5023 JUMP JUMPDEST POP POP POP POP JUMP JUMPDEST PUSH32 0xF60566C40710959D8D30B6067CE3C53C757BEC78EECB0E46B83C7F8194FFAE37 PUSH2 0x4011 DUP2 PUSH2 0x4B6A JUMP JUMPDEST PUSH1 0x0 DUP3 GT PUSH2 0x4054 JUMPI PUSH1 0x40 MLOAD PUSH32 0x8C379A000000000000000000000000000000000000000000000000000000000 DUP2 MSTORE PUSH1 0x4 ADD PUSH2 0x404B SWAP1 PUSH2 0x65FD JUMP JUMPDEST PUSH1 0x40 MLOAD DUP1 SWAP2 SUB SWAP1 REVERT JUMPDEST PUSH20 0x833589FCD6EDB6E08F4C7C32D4F71B54BDA02913 PUSH20 0xFFFFFFFFFFFFFFFFFFFFFFFFFFFFFFFFFFFFFFFF AND PUSH4 0x23B872DD CALLER ADDRESS DUP6 PUSH1 0x40 MLOAD DUP5 PUSH4 0xFFFFFFFF AND PUSH1 0xE0 SHL DUP2 MSTORE PUSH1 0x4 ADD PUSH2 0x40A5 SWAP4 SWAP3 SWAP2 SWAP1 PUSH2 0x661D JUMP JUMPDEST PUSH1 0x20 PUSH1 0x40 MLOAD DUP1 DUP4 SUB DUP2 PUSH1 0x0 DUP8 GAS CALL ISZERO DUP1 ISZERO PUSH2 0x40C4 JUMPI RETURNDATASIZE PUSH1 0x0 DUP1 RETURNDATACOPY RETURNDATASIZE PUSH1 0x0 REVERT JUMPDEST POP POP POP POP PUSH1 0x40 MLOAD RETURNDATASIZE PUSH1 0x1F NOT PUSH1 0x1F DUP3 ADD AND DUP3 ADD DUP1 PUSH1 0x40 MSTORE POP DUP2 ADD SWAP1 PUSH2 0x40E8 SWAP2 SWAP1 PUSH2 0x6037 JUMP JUMPDEST POP DUP2 PUSH1 0x17 PUSH1 0x0 DUP3 DUP3 SLOAD PUSH2 0x40FB SWAP2 SWAP1 PUSH2 0x5D69 JUMP JUMPDEST SWAP3 POP POP DUP2 SWAP1 SSTORE POP CALLER PUSH20 0xFFFFFFFFFFFFFFFFFFFFFFFFFFFFFFFFFFFFFFFF AND PUSH32 0x8BAFEC96FCFFB6F12596B4635C76397B7BC1F363B22C49C13136B63677323DCC PUSH1 0x1 DUP5 TIMESTAMP PUSH1 0x40 MLOAD PUSH2 0x414D SWAP4 SWAP3 SWAP2 SWAP1 PUSH2 0x5D9D JUMP JUMPDEST PUSH1 0x40 MLOAD DUP1 SWAP2 SUB SWAP1 LOG2 POP POP JUMP JUMPDEST PUSH32 0xA49807205CE4D355092EF5A8A18F56E8913CF4A201FBE287825B095693C21775 PUSH2 0x4183 DUP2 PUSH2 0x4B6A JUMP JUMPDEST PUSH1 0x5 PUSH1 0x3 SWAP1 SLOAD SWAP1 PUSH2 0x100 EXP SWAP1 DIV PUSH1 0xFF AND ISZERO PUSH2 0x41D3 JUMPI PUSH1 0x40 MLOAD PUSH32 0x8C379A000000000000000000000000000000000000000000000000000000000 DUP2 MSTORE PUSH1 0x4 ADD PUSH2 0x41CA SWAP1 PUSH2 0x66A0 JUMP JUMPDEST PUSH1 0x40 MLOAD DUP1 SWAP2 SUB SWAP1 REVERT JUMPDEST PUSH1 0x1 PUSH1 0x5 PUSH1 0x3 PUSH2 0x100 EXP DUP2 SLOAD DUP2 PUSH1 0xFF MUL NOT AND SWAP1 DUP4 ISZERO ISZERO MUL OR SWAP1 SSTORE POP TIMESTAMP PUSH1 0x6 DUP2 SWAP1 SSTORE POP PUSH1 0x0 JUMPDEST PUSH1 0xF DUP1 SLOAD SWAP1 POP DUP2 LT ISZERO PUSH2 0x4325 JUMPI PUSH1 0x0 PUSH1 0x8 PUSH1 0x0 PUSH1 0xF DUP5 DUP2 SLOAD DUP2 LT PUSH2 0x421F JUMPI PUSH2 0x421E PUSH2 0x5E40 JUMP JUMPDEST JUMPDEST SWAP1 PUSH1 0x0 MSTORE PUSH1 0x20 PUSH1 0x0 KECCAK256 ADD PUSH1 0x0 SWAP1 SLOAD SWAP1 PUSH2 0x100 EXP SWAP1 DIV PUSH20 0xFFFFFFFFFFFFFFFFFFFFFFFFFFFFFFFFFFFFFFFF AND PUSH20 0xFFFFFFFFFFFFFFFFFFFFFFFFFFFFFFFFFFFFFFFF AND PUSH20 0xFFFFFFFFFFFFFFFFFFFFFFFFFFFFFFFFFFFFFFFF AND DUP2 MSTORE PUSH1 0x20 ADD SWAP1 DUP2 MSTORE PUSH1 0x20 ADD PUSH1 0x0 KECCAK256 SWAP1 POP PUSH1 0x0 JUMPDEST DUP2 DUP1 SLOAD SWAP1 POP DUP2 LT ISZERO PUSH2 0x4316 JUMPI DUP2 DUP2 DUP2 SLOAD DUP2 LT PUSH2 0x42A8 JUMPI PUSH2 0x42A7 PUSH2 0x5E40 JUMP JUMPDEST JUMPDEST SWAP1 PUSH1 0x0 MSTORE PUSH1 0x20 PUSH1 0x0 KECCAK256 SWAP1 PUSH1 0x6 MUL ADD PUSH1 0x3 ADD PUSH1 0x0 SWAP1 SLOAD SWAP1 PUSH2 0x100 EXP SWAP1 DIV PUSH1 0xFF AND PUSH2 0x4309 JUMPI PUSH1 0x1 DUP3 DUP3 DUP2 SLOAD DUP2 LT PUSH2 0x42E0 JUMPI PUSH2 0x42DF PUSH2 0x5E40 JUMP JUMPDEST JUMPDEST SWAP1 PUSH1 0x0 MSTORE PUSH1 0x20 PUSH1 0x0 KECCAK256 SWAP1 PUSH1 0x6 MUL ADD PUSH1 0x3 ADD PUSH1 0x2 PUSH2 0x100 EXP DUP2 SLOAD DUP2 PUSH1 0xFF MUL NOT AND SWAP1 DUP4 ISZERO ISZERO MUL OR SWAP1 SSTORE POP JUMPDEST DUP1 DUP1 PUSH1 0x1 ADD SWAP2 POP POP PUSH2 0x4289 JUMP JUMPDEST POP POP DUP1 DUP1 PUSH1 0x1 ADD SWAP2 POP POP PUSH2 0x41F8 JUMP JUMPDEST POP PUSH32 0x2388CEAED48D21BD0802856DF41A22705F9046A67A817A047352AA3BBFE5C5D1 TIMESTAMP PUSH1 0x40 MLOAD PUSH2 0x4355 SWAP2 SWAP1 PUSH2 0x52CF JUMP JUMPDEST PUSH1 0x40 MLOAD DUP1 SWAP2 SUB SWAP1 LOG1 POP JUMP JUMPDEST PUSH1 0x11 DUP2 DUP2 SLOAD DUP2 LT PUSH2 0x4370 JUMPI PUSH1 0x0 DUP1 REVERT JUMPDEST SWAP1 PUSH1 0x0 MSTORE PUSH1 0x20 PUSH1 0x0 KECCAK256 ADD PUSH1 0x0 SWAP2 POP SLOAD SWAP1 PUSH2 0x100 EXP SWAP1 DIV PUSH20 0xFFFFFFFFFFFFFFFFFFFFFFFFFFFFFFFFFFFFFFFF AND DUP2 JUMP JUMPDEST PUSH32 0xC806897CAF4FD5068191157E44D3988E43139A37E0B97B6793E1ED1184140604 DUP2 JUMP JUMPDEST PUSH1 0x19 SLOAD DUP2 JUMP JUMPDEST PUSH1 0x15 SLOAD DUP2 JUMP JUMPDEST PUSH2 0x43D7 PUSH2 0x4B7E JUMP JUMPDEST PUSH1 0x0 PUSH1 0xB PUSH1 0x0 CALLER PUSH20 0xFFFFFFFFFFFFFFFFFFFFFFFFFFFFFFFFFFFFFFFF AND PUSH20 0xFFFFFFFFFFFFFFFFFFFFFFFFFFFFFFFFFFFFFFFF AND DUP2 MSTORE PUSH1 0x20 ADD SWAP1 DUP2 MSTORE PUSH1 0x20 ADD PUSH1 0x0 KECCAK256 SLOAD SWAP1 POP PUSH1 0x0 DUP2 GT PUSH2 0x445E JUMPI PUSH1 0x40 MLOAD PUSH32 0x8C379A000000000000000000000000000000000000000000000000000000000 DUP2 MSTORE PUSH1 0x4 ADD PUSH2 0x4455 SWAP1 PUSH2 0x5D1A JUMP JUMPDEST PUSH1 0x40 MLOAD DUP1 SWAP2 SUB SWAP1 REVERT JUMPDEST PUSH1 0x0 PUSH1 0xB PUSH1 0x0 CALLER PUSH20 0xFFFFFFFFFFFFFFFFFFFFFFFFFFFFFFFFFFFFFFFF AND PUSH20 0xFFFFFFFFFFFFFFFFFFFFFFFFFFFFFFFFFFFFFFFF AND DUP2 MSTORE PUSH1 0x20 ADD SWAP1 DUP2 MSTORE PUSH1 0x20 ADD PUSH1 0x0 KECCAK256 DUP2 SWAP1 SSTORE POP PUSH1 0x0 CALLER PUSH20 0xFFFFFFFFFFFFFFFFFFFFFFFFFFFFFFFFFFFFFFFF AND DUP3 PUSH1 0x40 MLOAD PUSH2 0x44C9 SWAP1 PUSH2 0x5F78 JUMP JUMPDEST PUSH1 0x0 PUSH1 0x40 MLOAD DUP1 DUP4 SUB DUP2 DUP6 DUP8 GAS CALL SWAP3 POP POP POP RETURNDATASIZE DUP1 PUSH1 0x0 DUP2 EQ PUSH2 0x4506 JUMPI PUSH1 0x40 MLOAD SWAP2 POP PUSH1 0x1F NOT PUSH1 0x3F RETURNDATASIZE ADD AND DUP3 ADD PUSH1 0x40 MSTORE RETURNDATASIZE DUP3 MSTORE RETURNDATASIZE PUSH1 0x0 PUSH1 0x20 DUP5 ADD RETURNDATACOPY PUSH2 0x450B JUMP JUMPDEST PUSH1 0x60 SWAP2 POP JUMPDEST POP POP SWAP1 POP DUP1 PUSH2 0x454F JUMPI PUSH1 0x40 MLOAD PUSH32 0x8C379A000000000000000000000000000000000000000000000000000000000 DUP2 MSTORE PUSH1 0x4 ADD PUSH2 0x4546 SWAP1 PUSH2 0x5FD9 JUMP JUMPDEST PUSH1 0x40 MLOAD DUP1 SWAP2 SUB SWAP1 REVERT JUMPDEST CALLER PUSH20 0xFFFFFFFFFFFFFFFFFFFFFFFFFFFFFFFFFFFFFFFF AND PUSH32 0x6914793C7A82461ACEC66C7DE7FDBBBF1F825C26BC2FE939B61F0E4F8964C2B5 PUSH1 0x0 DUP5 TIMESTAMP PUSH1 0x40 MLOAD PUSH2 0x459A SWAP4 SWAP3 SWAP2 SWAP1 PUSH2 0x5D9D JUMP JUMPDEST PUSH1 0x40 MLOAD DUP1 SWAP2 SUB SWAP1 LOG2 POP POP PUSH2 0x45AC PUSH2 0x4F21 JUMP JUMPDEST JUMP JUMPDEST PUSH32 0x65D7A28E3265B37A6474929F336521B332C1681B933F6CB9F3376673440D862A DUP2 JUMP JUMPDEST PUSH1 0xC PUSH1 0x20 MSTORE DUP1 PUSH1 0x0 MSTORE PUSH1 0x40 PUSH1 0x0 KECCAK256 PUSH1 0x0 SWAP2 POP SWAP1 POP SLOAD DUP2 JUMP JUMPDEST PUSH1 0x2 SLOAD DUP2 JUMP JUMPDEST PUSH1 0x7 PUSH1 0x0 SWAP1 SLOAD SWAP1 PUSH2 0x100 EXP SWAP1 DIV PUSH20 0xFFFFFFFFFFFFFFFFFFFFFFFFFFFFFFFFFFFFFFFF AND DUP2 JUMP JUMPDEST PUSH32 0xA49807205CE4D355092EF5A8A18F56E8913CF4A201FBE287825B095693C21775 PUSH2 0x4640 DUP2 PUSH2 0x4B6A JUMP JUMPDEST PUSH1 0x0 PUSH1 0x1 DUP2 GT ISZERO PUSH2 0x4654 JUMPI PUSH2 0x4653 PUSH2 0x53AF JUMP JUMPDEST JUMPDEST DUP4 PUSH1 0x1 DUP2 GT ISZERO PUSH2 0x4667 JUMPI PUSH2 0x4666 PUSH2 0x53AF JUMP JUMPDEST JUMPDEST SUB PUSH2 0x4678 JUMPI DUP2 PUSH1 0x3 DUP2 SWAP1 SSTORE POP PUSH2 0x46AC JUMP JUMPDEST PUSH1 0x1 DUP1 DUP2 GT ISZERO PUSH2 0x468B JUMPI PUSH2 0x468A PUSH2 0x53AF JUMP JUMPDEST JUMPDEST DUP4 PUSH1 0x1 DUP2 GT ISZERO PUSH2 0x469E JUMPI PUSH2 0x469D PUSH2 0x53AF JUMP JUMPDEST JUMPDEST SUB PUSH2 0x46AB JUMPI DUP2 PUSH1 0x4 DUP2 SWAP1 SSTORE POP JUMPDEST JUMPDEST PUSH32 0x5D7976BCCD4B396C1A1A0020032E62BF8A381BCFFC61E69A13EA61761B757218 DUP4 DUP4 PUSH1 0x40 MLOAD PUSH2 0x46DD SWAP3 SWAP2 SWAP1 PUSH2 0x66C0 JUMP JUMPDEST PUSH1 0x40 MLOAD DUP1 SWAP2 SUB SWAP1 LOG1 POP POP POP JUMP JUMPDEST PUSH2 0x46F2 PUSH2 0x4B7E JUMP JUMPDEST PUSH1 0x5 PUSH1 0x0 SWAP1 SLOAD SWAP1 PUSH2 0x100 EXP SWAP1 DIV PUSH1 0xFF AND ISZERO PUSH2 0x4742 JUMPI PUSH1 0x40 MLOAD PUSH32 0x8C379A000000000000000000000000000000000000000000000000000000000 DUP2 MSTORE PUSH1 0x4 ADD PUSH2 0x4739 SWAP1 PUSH2 0x6735 JUMP JUMPDEST PUSH1 0x40 MLOAD DUP1 SWAP2 SUB SWAP1 REVERT JUMPDEST PUSH1 0x0 CALLVALUE GT PUSH2 0x4785 JUMPI PUSH1 0x40 MLOAD PUSH32 0x8C379A000000000000000000000000000000000000000000000000000000000 DUP2 MSTORE PUSH1 0x4 ADD PUSH2 0x477C SWAP1 PUSH2 0x627B JUMP JUMPDEST PUSH1 0x40 MLOAD DUP1 SWAP2 SUB SWAP1 REVERT JUMPDEST PUSH1 0x3 SLOAD CALLVALUE PUSH1 0x12 SLOAD PUSH2 0x4796 SWAP2 SWAP1 PUSH2 0x5D69 JUMP JUMPDEST GT ISZERO PUSH2 0x47D7 JUMPI PUSH1 0x40 MLOAD PUSH32 0x8C379A000000000000000000000000000000000000000000000000000000000 DUP2 MSTORE PUSH1 0x4 ADD PUSH2 0x47CE SWAP1 PUSH2 0x67A1 JUMP JUMPDEST PUSH1 0x40 MLOAD DUP1 SWAP2 SUB SWAP1 REVERT JUMPDEST PUSH1 0x5 PUSH1 0x2 SWAP1 SLOAD SWAP1 PUSH2 0x100 EXP SWAP1 DIV PUSH1 0xFF AND ISZERO PUSH2 0x4879 JUMPI PUSH1 0x9 PUSH1 0x0 CALLER PUSH20 0xFFFFFFFFFFFFFFFFFFFFFFFFFFFFFFFFFFFFFFFF AND PUSH20 0xFFFFFFFFFFFFFFFFFFFFFFFFFFFFFFFFFFFFFFFF AND DUP2 MSTORE PUSH1 0x20 ADD SWAP1 DUP2 MSTORE PUSH1 0x20 ADD PUSH1 0x0 KECCAK256 PUSH1 0x0 SWAP1 SLOAD SWAP1 PUSH2 0x100 EXP SWAP1 DIV PUSH1 0xFF AND PUSH2 0x4878 JUMPI PUSH1 0x40 MLOAD PUSH32 0x8C379A000000000000000000000000000000000000000000000000000000000 DUP2 MSTORE PUSH1 0x4 ADD PUSH2 0x486F SWAP1 PUSH2 0x680D JUMP JUMPDEST PUSH1 0x40 MLOAD DUP1 SWAP2 SUB SWAP1 REVERT JUMPDEST JUMPDEST PUSH2 0x4887 CALLER PUSH1 0x0 CALLVALUE PUSH1 0x0 PUSH2 0x4BC4 JUMP JUMPDEST CALLVALUE PUSH1 0x12 PUSH1 0x0 DUP3 DUP3 SLOAD PUSH2 0x4899 SWAP2 SWAP1 PUSH2 0x5D69 JUMP JUMPDEST SWAP3 POP POP DUP2 SWAP1 SSTORE POP PUSH2 0x48A8 PUSH2 0x4F21 JUMP JUMPDEST JUMP JUMPDEST PUSH2 0x48B2 PUSH2 0x4B7E JUMP JUMPDEST PUSH1 0x5 PUSH1 0x0 SWAP1 SLOAD SWAP1 PUSH2 0x100 EXP SWAP1 DIV PUSH1 0xFF AND ISZERO PUSH2 0x4902 JUMPI PUSH1 0x40 MLOAD PUSH32 0x8C379A000000000000000000000000000000000000000000000000000000000 DUP2 MSTORE PUSH1 0x4 ADD PUSH2 0x48F9 SWAP1 PUSH2 0x6735 JUMP JUMPDEST PUSH1 0x40 MLOAD DUP1 SWAP2 SUB SWAP1 REVERT JUMPDEST PUSH1 0x0 DUP2 GT PUSH2 0x4945 JUMPI PUSH1 0x40 MLOAD PUSH32 0x8C379A000000000000000000000000000000000000000000000000000000000 DUP2 MSTORE PUSH1 0x4 ADD PUSH2 0x493C SWAP1 PUSH2 0x65FD JUMP JUMPDEST PUSH1 0x40 MLOAD DUP1 SWAP2 SUB SWAP1 REVERT JUMPDEST PUSH1 0x4 SLOAD DUP2 PUSH1 0x13 SLOAD PUSH2 0x4956 SWAP2 SWAP1 PUSH2 0x5D69 JUMP JUMPDEST GT ISZERO PUSH2 0x4997 JUMPI PUSH1 0x40 MLOAD PUSH32 0x8C379A000000000000000000000000000000000000000000000000000000000 DUP2 MSTORE PUSH1 0x4 ADD PUSH2 0x498E SWAP1 PUSH2 0x67A1 JUMP JUMPDEST PUSH1 0x40 MLOAD DUP1 SWAP2 SUB SWAP1 REVERT JUMPDEST PUSH1 0x5 PUSH1 0x2 SWAP1 SLOAD SWAP1 PUSH2 0x100 EXP SWAP1 DIV PUSH1 0xFF AND ISZERO PUSH2 0x4A39 JUMPI PUSH1 0x9 PUSH1 0x0 CALLER PUSH20 0xFFFFFFFFFFFFFFFFFFFFFFFFFFFFFFFFFFFFFFFF AND PUSH20 0xFFFFFFFFFFFFFFFFFFFFFFFFFFFFFFFFFFFFFFFF AND DUP2 MSTORE PUSH1 0x20 ADD SWAP1 DUP2 MSTORE PUSH1 0x20 ADD PUSH1 0x0 KECCAK256 PUSH1 0x0 SWAP1 SLOAD SWAP1 PUSH2 0x100 EXP SWAP1 DIV PUSH1 0xFF AND PUSH2 0x4A38 JUMPI PUSH1 0x40 MLOAD PUSH32 0x8C379A000000000000000000000000000000000000000000000000000000000 DUP2 MSTORE PUSH1 0x4 ADD PUSH2 0x4A2F SWAP1 PUSH2 0x680D JUMP JUMPDEST PUSH1 0x40 MLOAD DUP1 SWAP2 SUB SWAP1 REVERT JUMPDEST JUMPDEST PUSH20 0x833589FCD6EDB6E08F4C7C32D4F71B54BDA02913 PUSH20 0xFFFFFFFFFFFFFFFFFFFFFFFFFFFFFFFFFFFFFFFF AND PUSH4 0x23B872DD CALLER ADDRESS DUP5 PUSH1 0x40 MLOAD DUP5 PUSH4 0xFFFFFFFF AND PUSH1 0xE0 SHL DUP2 MSTORE PUSH1 0x4 ADD PUSH2 0x4A8A SWAP4 SWAP3 SWAP2 SWAP1 PUSH2 0x661D JUMP JUMPDEST PUSH1 0x20 PUSH1 0x40 MLOAD DUP1 DUP4 SUB DUP2 PUSH1 0x0 DUP8 GAS CALL ISZERO DUP1 ISZERO PUSH2 0x4AA9 JUMPI RETURNDATASIZE PUSH1 0x0 DUP1 RETURNDATACOPY RETURNDATASIZE PUSH1 0x0 REVERT JUMPDEST POP POP POP POP PUSH1 0x40 MLOAD RETURNDATASIZE PUSH1 0x1F NOT PUSH1 0x1F DUP3 ADD AND DUP3 ADD DUP1 PUSH1 0x40 MSTORE POP DUP2 ADD SWAP1 PUSH2 0x4ACD SWAP2 SWAP1 PUSH2 0x6037 JUMP JUMPDEST POP PUSH2 0x4ADC CALLER PUSH1 0x1 DUP4 PUSH1 0x0 PUSH2 0x4BC4 JUMP JUMPDEST DUP1 PUSH1 0x13 PUSH1 0x0 DUP3 DUP3 SLOAD PUSH2 0x4AEE SWAP2 SWAP1 PUSH2 0x5D69 JUMP JUMPDEST SWAP3 POP POP DUP2 SWAP1 SSTORE POP PUSH2 0x4AFD PUSH2 0x4F21 JUMP JUMPDEST POP JUMP JUMPDEST PUSH1 0x0 PUSH32 0x1FFC9A700000000000000000000000000000000000000000000000000000000 PUSH28 0xFFFFFFFFFFFFFFFFFFFFFFFFFFFFFFFFFFFFFFFFFFFFFFFFFFFFFFFF NOT AND DUP3 PUSH28 0xFFFFFFFFFFFFFFFFFFFFFFFFFFFFFFFFFFFFFFFFFFFFFFFFFFFFFFFF NOT AND EQ SWAP1 POP SWAP2 SWAP1 POP JUMP JUMPDEST PUSH2 0x4B7B DUP2 PUSH2 0x4B76 PUSH2 0x501B JUMP JUMPDEST PUSH2 0x5115 JUMP JUMPDEST POP JUMP JUMPDEST PUSH1 0x2 PUSH1 0x1 SLOAD SUB PUSH2 0x4BBA JUMPI PUSH1 0x40 MLOAD PUSH32 0x3EE5AEB500000000000000000000000000000000000000000000000000000000 DUP2 MSTORE PUSH1 0x4 ADD PUSH1 0x40 MLOAD DUP1 SWAP2 SUB SWAP1 REVERT JUMPDEST PUSH1 0x2 PUSH1 0x1 DUP2 SWAP1 SSTORE POP JUMP JUMPDEST PUSH1 0x8 PUSH1 0x0 DUP6 PUSH20 0xFFFFFFFFFFFFFFFFFFFFFFFFFFFFFFFFFFFFFFFF AND PUSH20 0xFFFFFFFFFFFFFFFFFFFFFFFFFFFFFFFFFFFFFFFF AND DUP2 MSTORE PUSH1 0x20 ADD SWAP1 DUP2 MSTORE PUSH1 0x20 ADD PUSH1 0x0 KECCAK256 PUSH1 0x40 MLOAD DUP1 PUSH2 0x120 ADD PUSH1 0x40 MSTORE DUP1 DUP6 PUSH1 0x1 DUP2 GT ISZERO PUSH2 0x4C22 JUMPI PUSH2 0x4C21 PUSH2 0x53AF JUMP JUMPDEST JUMPDEST DUP2 MSTORE PUSH1 0x20 ADD DUP5 DUP2 MSTORE PUSH1 0x20 ADD TIMESTAMP DUP2 MSTORE PUSH1 0x20 ADD PUSH1 0x0 ISZERO ISZERO DUP2 MSTORE PUSH1 0x20 ADD PUSH1 0x0 ISZERO ISZERO DUP2 MSTORE PUSH1 0x20 ADD PUSH1 0x0 ISZERO ISZERO DUP2 MSTORE PUSH1 0x20 ADD DUP4 ISZERO ISZERO DUP2 MSTORE PUSH1 0x20 ADD PUSH1 0x0 DUP2 MSTORE PUSH1 0x20 ADD PUSH1 0x0 DUP2 MSTORE POP SWAP1 DUP1 PUSH1 0x1 DUP2 SLOAD ADD DUP1 DUP3 SSTORE DUP1 SWAP2 POP POP PUSH1 0x1 SWAP1 SUB SWAP1 PUSH1 0x0 MSTORE PUSH1 0x20 PUSH1 0x0 KECCAK256 SWAP1 PUSH1 0x6 MUL ADD PUSH1 0x0 SWAP1 SWAP2 SWAP1 SWAP2 SWAP1 SWAP2 POP PUSH1 0x0 DUP3 ADD MLOAD DUP2 PUSH1 0x0 ADD PUSH1 0x0 PUSH2 0x100 EXP DUP2 SLOAD DUP2 PUSH1 0xFF MUL NOT AND SWAP1 DUP4 PUSH1 0x1 DUP2 GT ISZERO PUSH2 0x4CB6 JUMPI PUSH2 0x4CB5 PUSH2 0x53AF JUMP JUMPDEST JUMPDEST MUL OR SWAP1 SSTORE POP PUSH1 0x20 DUP3 ADD MLOAD DUP2 PUSH1 0x1 ADD SSTORE PUSH1 0x40 DUP3 ADD MLOAD DUP2 PUSH1 0x2 ADD SSTORE PUSH1 0x60 DUP3 ADD MLOAD DUP2 PUSH1 0x3 ADD PUSH1 0x0 PUSH2 0x100 EXP DUP2 SLOAD DUP2 PUSH1 0xFF MUL NOT AND SWAP1 DUP4 ISZERO ISZERO MUL OR SWAP1 SSTORE POP PUSH1 0x80 DUP3 ADD MLOAD DUP2 PUSH1 0x3 ADD PUSH1 0x1 PUSH2 0x100 EXP DUP2 SLOAD DUP2 PUSH1 0xFF MUL NOT AND SWAP1 DUP4 ISZERO ISZERO MUL OR SWAP1 SSTORE POP PUSH1 0xA0 DUP3 ADD MLOAD DUP2 PUSH1 0x3 ADD PUSH1 0x2 PUSH2 0x100 EXP DUP2 SLOAD DUP2 PUSH1 0xFF MUL NOT AND SWAP1 DUP4 ISZERO ISZERO MUL OR SWAP1 SSTORE POP PUSH1 0xC0 DUP3 ADD MLOAD DUP2 PUSH1 0x3 ADD PUSH1 0x3 PUSH2 0x100 EXP DUP2 SLOAD DUP2 PUSH1 0xFF MUL NOT AND SWAP1 DUP4 ISZERO ISZERO MUL OR SWAP1 SSTORE POP PUSH1 0xE0 DUP3 ADD MLOAD DUP2 PUSH1 0x4 ADD SSTORE PUSH2 0x100 DUP3 ADD MLOAD DUP2 PUSH1 0x5 ADD SSTORE POP POP PUSH1 0x1 PUSH1 0x8 PUSH1 0x0 DUP7 PUSH20 0xFFFFFFFFFFFFFFFFFFFFFFFFFFFFFFFFFFFFFFFF AND PUSH20 0xFFFFFFFFFFFFFFFFFFFFFFFFFFFFFFFFFFFFFFFF AND DUP2 MSTORE PUSH1 0x20 ADD SWAP1 DUP2 MSTORE PUSH1 0x20 ADD PUSH1 0x0 KECCAK256 DUP1 SLOAD SWAP1 POP SUB PUSH2 0x4E77 JUMPI PUSH1 0xF DUP5 SWAP1 DUP1 PUSH1 0x1 DUP2 SLOAD ADD DUP1 DUP3 SSTORE DUP1 SWAP2 POP POP PUSH1 0x1 SWAP1 SUB SWAP1 PUSH1 0x0 MSTORE PUSH1 0x20 PUSH1 0x0 KECCAK256 ADD PUSH1 0x0 SWAP1 SWAP2 SWAP1 SWAP2 SWAP1 SWAP2 PUSH2 0x100 EXP DUP2 SLOAD DUP2 PUSH20 0xFFFFFFFFFFFFFFFFFFFFFFFFFFFFFFFFFFFFFFFF MUL NOT AND SWAP1 DUP4 PUSH20 0xFFFFFFFFFFFFFFFFFFFFFFFFFFFFFFFFFFFFFFFF AND MUL OR SWAP1 SSTORE POP PUSH1 0x11 DUP5 SWAP1 DUP1 PUSH1 0x1 DUP2 SLOAD ADD DUP1 DUP3 SSTORE DUP1 SWAP2 POP POP PUSH1 0x1 SWAP1 SUB SWAP1 PUSH1 0x0 MSTORE PUSH1 0x20 PUSH1 0x0 KECCAK256 ADD PUSH1 0x0 SWAP1 SWAP2 SWAP1 SWAP2 SWAP1 SWAP2 PUSH2 0x100 EXP DUP2 SLOAD DUP2 PUSH20 0xFFFFFFFFFFFFFFFFFFFFFFFFFFFFFFFFFFFFFFFF MUL NOT AND SWAP1 DUP4 PUSH20 0xFFFFFFFFFFFFFFFFFFFFFFFFFFFFFFFFFFFFFFFF AND MUL OR SWAP1 SSTORE POP JUMPDEST DUP4 PUSH20 0xFFFFFFFFFFFFFFFFFFFFFFFFFFFFFFFFFFFFFFFF AND PUSH32 0x48916AC7F9777648255AB8645729FF3B5D20AA412A40FE81DAC2433522EAA058 DUP5 DUP5 TIMESTAMP PUSH1 0x1 PUSH1 0x8 PUSH1 0x0 DUP12 PUSH20 0xFFFFFFFFFFFFFFFFFFFFFFFFFFFFFFFFFFFFFFFF AND PUSH20 0xFFFFFFFFFFFFFFFFFFFFFFFFFFFFFFFFFFFFFFFF AND DUP2 MSTORE PUSH1 0x20 ADD SWAP1 DUP2 MSTORE PUSH1 0x20 ADD PUSH1 0x0 KECCAK256 DUP1 SLOAD SWAP1 POP PUSH2 0x4F01 SWAP2 SWAP1 PUSH2 0x61FB JUMP JUMPDEST DUP7 PUSH1 0x40 MLOAD PUSH2 0x4F13 SWAP6 SWAP5 SWAP4 SWAP3 SWAP2 SWAP1 PUSH2 0x682D JUMP JUMPDEST PUSH1 0x40 MLOAD DUP1 SWAP2 SUB SWAP1 LOG2 POP POP POP POP JUMP JUMPDEST PUSH1 0x1 DUP1 DUP2 SWAP1 SSTORE POP JUMP JUMPDEST PUSH1 0x0 PUSH2 0x4F36 DUP4 DUP4 PUSH2 0x35C0 JUMP JUMPDEST PUSH2 0x5010 JUMPI PUSH1 0x1 PUSH1 0x0 DUP1 DUP6 DUP2 MSTORE PUSH1 0x20 ADD SWAP1 DUP2 MSTORE PUSH1 0x20 ADD PUSH1 0x0 KECCAK256 PUSH1 0x0 ADD PUSH1 0x0 DUP5 PUSH20 0xFFFFFFFFFFFFFFFFFFFFFFFFFFFFFFFFFFFFFFFF AND PUSH20 0xFFFFFFFFFFFFFFFFFFFFFFFFFFFFFFFFFFFFFFFF AND DUP2 MSTORE PUSH1 0x20 ADD SWAP1 DUP2 MSTORE PUSH1 0x20 ADD PUSH1 0x0 KECCAK256 PUSH1 0x0 PUSH2 0x100 EXP DUP2 SLOAD DUP2 PUSH1 0xFF MUL NOT AND SWAP1 DUP4 ISZERO ISZERO MUL OR SWAP1 SSTORE POP PUSH2 0x4FAD PUSH2 0x501B JUMP JUMPDEST PUSH20 0xFFFFFFFFFFFFFFFFFFFFFFFFFFFFFFFFFFFFFFFF AND DUP3 PUSH20 0xFFFFFFFFFFFFFFFFFFFFFFFFFFFFFFFFFFFFFFFF AND DUP5 PUSH32 0x2F8788117E7EFF1D82E926EC794901D17C78024A50270940304540A733656F0D PUSH1 0x40 MLOAD PUSH1 0x40 MLOAD DUP1 SWAP2 SUB SWAP1 LOG4 PUSH1 0x1 SWAP1 POP PUSH2 0x5015 JUMP JUMPDEST PUSH1 0x0 SWAP1 POP JUMPDEST SWAP3 SWAP2 POP POP JUMP JUMPDEST PUSH1 0x0 CALLER SWAP1 POP SWAP1 JUMP JUMPDEST PUSH1 0x0 PUSH2 0x502F DUP4 DUP4 PUSH2 0x35C0 JUMP JUMPDEST ISZERO PUSH2 0x510A JUMPI PUSH1 0x0 DUP1 PUSH1 0x0 DUP6 DUP2 MSTORE PUSH1 0x20 ADD SWAP1 DUP2 MSTORE PUSH1 0x20 ADD PUSH1 0x0 KECCAK256 PUSH1 0x0 ADD PUSH1 0x0 DUP5 PUSH20 0xFFFFFFFFFFFFFFFFFFFFFFFFFFFFFFFFFFFFFFFF AND PUSH20 0xFFFFFFFFFFFFFFFFFFFFFFFFFFFFFFFFFFFFFFFF AND DUP2 MSTORE PUSH1 0x20 ADD SWAP1 DUP2 MSTORE PUSH1 0x20 ADD PUSH1 0x0 KECCAK256 PUSH1 0x0 PUSH2 0x100 EXP DUP2 SLOAD DUP2 PUSH1 0xFF MUL NOT AND SWAP1 DUP4 ISZERO ISZERO MUL OR SWAP1 SSTORE POP PUSH2 0x50A7 PUSH2 0x501B JUMP JUMPDEST PUSH20 0xFFFFFFFFFFFFFFFFFFFFFFFFFFFFFFFFFFFFFFFF AND DUP3 PUSH20 0xFFFFFFFFFFFFFFFFFFFFFFFFFFFFFFFFFFFFFFFF AND DUP5 PUSH32 0xF6391F5C32D9C69D2A47EA670B442974B53935D1EDC7FD64EB21E047A839171B PUSH1 0x40 MLOAD PUSH1 0x40 MLOAD DUP1 SWAP2 SUB SWAP1 LOG4 PUSH1 0x1 SWAP1 POP PUSH2 0x510F JUMP JUMPDEST PUSH1 0x0 SWAP1 POP JUMPDEST SWAP3 SWAP2 POP POP JUMP JUMPDEST PUSH2 0x511F DUP3 DUP3 PUSH2 0x35C0 JUMP JUMPDEST PUSH2 0x5162 JUMPI DUP1 DUP3 PUSH1 0x40 MLOAD PUSH32 0xE2517D3F00000000000000000000000000000000000000000000000000000000 DUP2 MSTORE PUSH1 0x4 ADD PUSH2 0x5159 SWAP3 SWAP2 SWAP1 PUSH2 0x6880 JUMP JUMPDEST PUSH1 0x40 MLOAD DUP1 SWAP2 SUB SWAP1 REVERT JUMPDEST POP POP JUMP JUMPDEST PUSH1 0x0 DUP1 REVERT JUMPDEST PUSH1 0x0 DUP1 REVERT JUMPDEST PUSH1 0x0 PUSH32 0xFFFFFFFF00000000000000000000000000000000000000000000000000000000 DUP3 AND SWAP1 POP SWAP2 SWAP1 POP JUMP JUMPDEST PUSH2 0x51A5 DUP2 PUSH2 0x5170 JUMP JUMPDEST DUP2 EQ PUSH2 0x51B0 JUMPI PUSH1 0x0 DUP1 REVERT JUMPDEST POP JUMP JUMPDEST PUSH1 0x0 DUP2 CALLDATALOAD SWAP1 POP PUSH2 0x51C2 DUP2 PUSH2 0x519C JUMP JUMPDEST SWAP3 SWAP2 POP POP JUMP JUMPDEST PUSH1 0x0 PUSH1 0x20 DUP3 DUP5 SUB SLT ISZERO PUSH2 0x51DE JUMPI PUSH2 0x51DD PUSH2 0x5166 JUMP JUMPDEST JUMPDEST PUSH1 0x0 PUSH2 0x51EC DUP5 DUP3 DUP6 ADD PUSH2 0x51B3 JUMP JUMPDEST SWAP2 POP POP SWAP3 SWAP2 POP POP JUMP JUMPDEST PUSH1 0x0 DUP2 ISZERO ISZERO SWAP1 POP SWAP2 SWAP1 POP JUMP JUMPDEST PUSH2 0x520A DUP2 PUSH2 0x51F5 JUMP JUMPDEST DUP3 MSTORE POP POP JUMP JUMPDEST PUSH1 0x0 PUSH1 0x20 DUP3 ADD SWAP1 POP PUSH2 0x5225 PUSH1 0x0 DUP4 ADD DUP5 PUSH2 0x5201 JUMP JUMPDEST SWAP3 SWAP2 POP POP JUMP JUMPDEST PUSH1 0x0 PUSH20 0xFFFFFFFFFFFFFFFFFFFFFFFFFFFFFFFFFFFFFFFF DUP3 AND SWAP1 POP SWAP2 SWAP1 POP JUMP JUMPDEST PUSH1 0x0 PUSH2 0x5256 DUP3 PUSH2 0x522B JUMP JUMPDEST SWAP1 POP SWAP2 SWAP1 POP JUMP JUMPDEST PUSH2 0x5266 DUP2 PUSH2 0x524B JUMP JUMPDEST DUP2 EQ PUSH2 0x5271 JUMPI PUSH1 0x0 DUP1 REVERT JUMPDEST POP JUMP JUMPDEST PUSH1 0x0 DUP2 CALLDATALOAD SWAP1 POP PUSH2 0x5283 DUP2 PUSH2 0x525D JUMP JUMPDEST SWAP3 SWAP2 POP POP JUMP JUMPDEST PUSH1 0x0 PUSH1 0x20 DUP3 DUP5 SUB SLT ISZERO PUSH2 0x529F JUMPI PUSH2 0x529E PUSH2 0x5166 JUMP JUMPDEST JUMPDEST PUSH1 0x0 PUSH2 0x52AD DUP5 DUP3 DUP6 ADD PUSH2 0x5274 JUMP JUMPDEST SWAP2 POP POP SWAP3 SWAP2 POP POP JUMP JUMPDEST PUSH1 0x0 DUP2 SWAP1 POP SWAP2 SWAP1 POP JUMP JUMPDEST PUSH2 0x52C9 DUP2 PUSH2 0x52B6 JUMP JUMPDEST DUP3 MSTORE POP POP JUMP JUMPDEST PUSH1 0x0 PUSH1 0x20 DUP3 ADD SWAP1 POP PUSH2 0x52E4 PUSH1 0x0 DUP4 ADD DUP5 PUSH2 0x52C0 JUMP JUMPDEST SWAP3 SWAP2 POP POP JUMP JUMPDEST PUSH2 0x52F3 DUP2 PUSH2 0x51F5 JUMP JUMPDEST DUP2 EQ PUSH2 0x52FE JUMPI PUSH1 0x0 DUP1 REVERT JUMPDEST POP JUMP JUMPDEST PUSH1 0x0 DUP2 CALLDATALOAD SWAP1 POP PUSH2 0x5310 DUP2 PUSH2 0x52EA JUMP JUMPDEST SWAP3 SWAP2 POP POP JUMP JUMPDEST PUSH1 0x0 PUSH1 0x20 DUP3 DUP5 SUB SLT ISZERO PUSH2 0x532C JUMPI PUSH2 0x532B PUSH2 0x5166 JUMP JUMPDEST JUMPDEST PUSH1 0x0 PUSH2 0x533A DUP5 DUP3 DUP6 ADD PUSH2 0x5301 JUMP JUMPDEST SWAP2 POP POP SWAP3 SWAP2 POP POP JUMP JUMPDEST PUSH2 0x534C DUP2 PUSH2 0x52B6 JUMP JUMPDEST DUP2 EQ PUSH2 0x5357 JUMPI PUSH1 0x0 DUP1 REVERT JUMPDEST POP JUMP JUMPDEST PUSH1 0x0 DUP2 CALLDATALOAD SWAP1 POP PUSH2 0x5369 DUP2 PUSH2 0x5343 JUMP JUMPDEST SWAP3 SWAP2 POP POP JUMP JUMPDEST PUSH1 0x0 DUP1 PUSH1 0x40 DUP4 DUP6 SUB SLT ISZERO PUSH2 0x5386 JUMPI PUSH2 0x5385 PUSH2 0x5166 JUMP JUMPDEST JUMPDEST PUSH1 0x0 PUSH2 0x5394 DUP6 DUP3 DUP7 ADD PUSH2 0x5274 JUMP JUMPDEST SWAP3 POP POP PUSH1 0x20 PUSH2 0x53A5 DUP6 DUP3 DUP7 ADD PUSH2 0x535A JUMP JUMPDEST SWAP2 POP POP SWAP3 POP SWAP3 SWAP1 POP JUMP JUMPDEST PUSH32 0x4E487B7100000000000000000000000000000000000000000000000000000000 PUSH1 0x0 MSTORE PUSH1 0x21 PUSH1 0x4 MSTORE PUSH1 0x24 PUSH1 0x0 REVERT JUMPDEST PUSH1 0x2 DUP2 LT PUSH2 0x53EF JUMPI PUSH2 0x53EE PUSH2 0x53AF JUMP JUMPDEST JUMPDEST POP JUMP JUMPDEST PUSH1 0x0 DUP2 SWAP1 POP PUSH2 0x5400 DUP3 PUSH2 0x53DE JUMP JUMPDEST SWAP2 SWAP1 POP JUMP JUMPDEST PUSH1 0x0 PUSH2 0x5410 DUP3 PUSH2 0x53F2 JUMP JUMPDEST SWAP1 POP SWAP2 SWAP1 POP JUMP JUMPDEST PUSH2 0x5420 DUP2 PUSH2 0x5405 JUMP JUMPDEST DUP3 MSTORE POP POP JUMP JUMPDEST PUSH1 0x0 PUSH2 0x120 DUP3 ADD SWAP1 POP PUSH2 0x543C PUSH1 0x0 DUP4 ADD DUP13 PUSH2 0x5417 JUMP JUMPDEST PUSH2 0x5449 PUSH1 0x20 DUP4 ADD DUP12 PUSH2 0x52C0 JUMP JUMPDEST PUSH2 0x5456 PUSH1 0x40 DUP4 ADD DUP11 PUSH2 0x52C0 JUMP JUMPDEST PUSH2 0x5463 PUSH1 0x60 DUP4 ADD DUP10 PUSH2 0x5201 JUMP JUMPDEST PUSH2 0x5470 PUSH1 0x80 DUP4 ADD DUP9 PUSH2 0x5201 JUMP JUMPDEST PUSH2 0x547D PUSH1 0xA0 DUP4 ADD DUP8 PUSH2 0x5201 JUMP JUMPDEST PUSH2 0x548A PUSH1 0xC0 DUP4 ADD DUP7 PUSH2 0x5201 JUMP JUMPDEST PUSH2 0x5497 PUSH1 0xE0 DUP4 ADD DUP6 PUSH2 0x52C0 JUMP JUMPDEST PUSH2 0x54A5 PUSH2 0x100 DUP4 ADD DUP5 PUSH2 0x52C0 JUMP JUMPDEST SWAP11 SWAP10 POP POP POP POP POP POP POP POP POP POP JUMP JUMPDEST PUSH1 0x0 DUP2 SWAP1 POP SWAP2 SWAP1 POP JUMP JUMPDEST PUSH2 0x54C6 DUP2 PUSH2 0x54B3 JUMP JUMPDEST DUP3 MSTORE POP POP JUMP JUMPDEST PUSH1 0x0 PUSH1 0x20 DUP3 ADD SWAP1 POP PUSH2 0x54E1 PUSH1 0x0 DUP4 ADD DUP5 PUSH2 0x54BD JUMP JUMPDEST SWAP3 SWAP2 POP POP JUMP JUMPDEST PUSH2 0x54F0 DUP2 PUSH2 0x54B3 JUMP JUMPDEST DUP2 EQ PUSH2 0x54FB JUMPI PUSH1 0x0 DUP1 REVERT JUMPDEST POP JUMP JUMPDEST PUSH1 0x0 DUP2 CALLDATALOAD SWAP1 POP PUSH2 0x550D DUP2 PUSH2 0x54E7 JUMP JUMPDEST SWAP3 SWAP2 POP POP JUMP JUMPDEST PUSH1 0x0 PUSH1 0x20 DUP3 DUP5 SUB SLT ISZERO PUSH2 0x5529 JUMPI PUSH2 0x5528 PUSH2 0x5166 JUMP JUMPDEST JUMPDEST PUSH1 0x0 PUSH2 0x5537 DUP5 DUP3 DUP6 ADD PUSH2 0x54FE JUMP JUMPDEST SWAP2 POP POP SWAP3 SWAP2 POP POP JUMP JUMPDEST PUSH1 0x0 DUP2 MLOAD SWAP1 POP SWAP2 SWAP1 POP JUMP JUMPDEST PUSH1 0x0 DUP3 DUP3 MSTORE PUSH1 0x20 DUP3 ADD SWAP1 POP SWAP3 SWAP2 POP POP JUMP JUMPDEST PUSH1 0x0 DUP2 SWAP1 POP PUSH1 0x20 DUP3 ADD SWAP1 POP SWAP2 SWAP1 POP JUMP JUMPDEST PUSH2 0x5575 DUP2 PUSH2 0x5405 JUMP JUMPDEST DUP3 MSTORE POP POP JUMP JUMPDEST PUSH2 0x5584 DUP2 PUSH2 0x52B6 JUMP JUMPDEST DUP3 MSTORE POP POP JUMP JUMPDEST PUSH2 0x5593 DUP2 PUSH2 0x51F5 JUMP JUMPDEST DUP3 MSTORE POP POP JUMP JUMPDEST PUSH2 0x120 DUP3 ADD PUSH1 0x0 DUP3 ADD MLOAD PUSH2 0x55B0 PUSH1 0x0 DUP6 ADD DUP3 PUSH2 0x556C JUMP JUMPDEST POP PUSH1 0x20 DUP3 ADD MLOAD PUSH2 0x55C3 PUSH1 0x20 DUP6 ADD DUP3 PUSH2 0x557B JUMP JUMPDEST POP PUSH1 0x40 DUP3 ADD MLOAD PUSH2 0x55D6 PUSH1 0x40 DUP6 ADD DUP3 PUSH2 0x557B JUMP JUMPDEST POP PUSH1 0x60 DUP3 ADD MLOAD PUSH2 0x55E9 PUSH1 0x60 DUP6 ADD DUP3 PUSH2 0x558A JUMP JUMPDEST POP PUSH1 0x80 DUP3 ADD MLOAD PUSH2 0x55FC PUSH1 0x80 DUP6 ADD DUP3 PUSH2 0x558A JUMP JUMPDEST POP PUSH1 0xA0 DUP3 ADD MLOAD PUSH2 0x560F PUSH1 0xA0 DUP6 ADD DUP3 PUSH2 0x558A JUMP JUMPDEST POP PUSH1 0xC0 DUP3 ADD MLOAD PUSH2 0x5622 PUSH1 0xC0 DUP6 ADD DUP3 PUSH2 0x558A JUMP JUMPDEST POP PUSH1 0xE0 DUP3 ADD MLOAD PUSH2 0x5635 PUSH1 0xE0 DUP6 ADD DUP3 PUSH2 0x557B JUMP JUMPDEST POP PUSH2 0x100 DUP3 ADD MLOAD PUSH2 0x564A PUSH2 0x100 DUP6 ADD DUP3 PUSH2 0x557B JUMP JUMPDEST POP POP POP POP JUMP JUMPDEST PUSH1 0x0 PUSH2 0x565C DUP4 DUP4 PUSH2 0x5599 JUMP JUMPDEST PUSH2 0x120 DUP4 ADD SWAP1 POP SWAP3 SWAP2 POP POP JUMP JUMPDEST PUSH1 0x0 PUSH1 0x20 DUP3 ADD SWAP1 POP SWAP2 SWAP1 POP JUMP JUMPDEST PUSH1 0x0 PUSH2 0x5681 DUP3 PUSH2 0x5540 JUMP JUMPDEST PUSH2 0x568B DUP2 DUP6 PUSH2 0x554B JUMP JUMPDEST SWAP4 POP PUSH2 0x5696 DUP4 PUSH2 0x555C JUMP JUMPDEST DUP1 PUSH1 0x0 JUMPDEST DUP4 DUP2 LT ISZERO PUSH2 0x56C7 JUMPI DUP2 MLOAD PUSH2 0x56AE DUP9 DUP3 PUSH2 0x5650 JUMP JUMPDEST SWAP8 POP PUSH2 0x56B9 DUP4 PUSH2 0x5669 JUMP JUMPDEST SWAP3 POP POP PUSH1 0x1 DUP2 ADD SWAP1 POP PUSH2 0x569A JUMP JUMPDEST POP DUP6 SWAP4 POP POP POP POP SWAP3 SWAP2 POP POP JUMP JUMPDEST PUSH1 0x0 PUSH1 0x20 DUP3 ADD SWAP1 POP DUP2 DUP2 SUB PUSH1 0x0 DUP4 ADD MSTORE PUSH2 0x56EE DUP2 DUP5 PUSH2 0x5676 JUMP JUMPDEST SWAP1 POP SWAP3 SWAP2 POP POP JUMP JUMPDEST PUSH1 0x0 PUSH1 0x20 DUP3 DUP5 SUB SLT ISZERO PUSH2 0x570C JUMPI PUSH2 0x570B PUSH2 0x5166 JUMP JUMPDEST JUMPDEST PUSH1 0x0 PUSH2 0x571A DUP5 DUP3 DUP6 ADD PUSH2 0x535A JUMP JUMPDEST SWAP2 POP POP SWAP3 SWAP2 POP POP JUMP JUMPDEST PUSH1 0x0 DUP1 PUSH1 0x40 DUP4 DUP6 SUB SLT ISZERO PUSH2 0x573A JUMPI PUSH2 0x5739 PUSH2 0x5166 JUMP JUMPDEST JUMPDEST PUSH1 0x0 PUSH2 0x5748 DUP6 DUP3 DUP7 ADD PUSH2 0x54FE JUMP JUMPDEST SWAP3 POP POP PUSH1 0x20 PUSH2 0x5759 DUP6 DUP3 DUP7 ADD PUSH2 0x5274 JUMP JUMPDEST SWAP2 POP POP SWAP3 POP SWAP3 SWAP1 POP JUMP JUMPDEST PUSH1 0x0 DUP1 REVERT JUMPDEST PUSH1 0x0 DUP1 REVERT JUMPDEST PUSH1 0x0 DUP1 REVERT JUMPDEST PUSH1 0x0 DUP1 DUP4 PUSH1 0x1F DUP5 ADD SLT PUSH2 0x5788 JUMPI PUSH2 0x5787 PUSH2 0x5763 JUMP JUMPDEST JUMPDEST DUP3 CALLDATALOAD SWAP1 POP PUSH8 0xFFFFFFFFFFFFFFFF DUP2 GT ISZERO PUSH2 0x57A5 JUMPI PUSH2 0x57A4 PUSH2 0x5768 JUMP JUMPDEST JUMPDEST PUSH1 0x20 DUP4 ADD SWAP2 POP DUP4 PUSH1 0x20 DUP3 MUL DUP4 ADD GT ISZERO PUSH2 0x57C1 JUMPI PUSH2 0x57C0 PUSH2 0x576D JUMP JUMPDEST JUMPDEST SWAP3 POP SWAP3 SWAP1 POP JUMP JUMPDEST PUSH1 0x0 DUP1 DUP4 PUSH1 0x1F DUP5 ADD SLT PUSH2 0x57DE JUMPI PUSH2 0x57DD PUSH2 0x5763 JUMP JUMPDEST JUMPDEST DUP3 CALLDATALOAD SWAP1 POP PUSH8 0xFFFFFFFFFFFFFFFF DUP2 GT ISZERO PUSH2 0x57FB JUMPI PUSH2 0x57FA PUSH2 0x5768 JUMP JUMPDEST JUMPDEST PUSH1 0x20 DUP4 ADD SWAP2 POP DUP4 PUSH1 0x20 DUP3 MUL DUP4 ADD GT ISZERO PUSH2 0x5817 JUMPI PUSH2 0x5816 PUSH2 0x576D JUMP JUMPDEST JUMPDEST SWAP3 POP SWAP3 SWAP1 POP JUMP JUMPDEST PUSH1 0x0 DUP1 PUSH1 0x0 DUP1 PUSH1 0x40 DUP6 DUP8 SUB SLT ISZERO PUSH2 0x5838 JUMPI PUSH2 0x5837 PUSH2 0x5166 JUMP JUMPDEST JUMPDEST PUSH1 0x0 DUP6 ADD CALLDATALOAD PUSH8 0xFFFFFFFFFFFFFFFF DUP2 GT ISZERO PUSH2 0x5856 JUMPI PUSH2 0x5855 PUSH2 0x516B JUMP JUMPDEST JUMPDEST PUSH2 0x5862 DUP8 DUP3 DUP9 ADD PUSH2 0x5772 JUMP JUMPDEST SWAP5 POP SWAP5 POP POP PUSH1 0x20 DUP6 ADD CALLDATALOAD PUSH8 0xFFFFFFFFFFFFFFFF DUP2 GT ISZERO PUSH2 0x5885 JUMPI PUSH2 0x5884 PUSH2 0x516B JUMP JUMPDEST JUMPDEST PUSH2 0x5891 DUP8 DUP3 DUP9 ADD PUSH2 0x57C8 JUMP JUMPDEST SWAP3 POP SWAP3 POP POP SWAP3 SWAP6 SWAP2 SWAP5 POP SWAP3 POP JUMP JUMPDEST PUSH1 0x0 DUP1 DUP4 PUSH1 0x1F DUP5 ADD SLT PUSH2 0x58B5 JUMPI PUSH2 0x58B4 PUSH2 0x5763 JUMP JUMPDEST JUMPDEST DUP3 CALLDATALOAD SWAP1 POP PUSH8 0xFFFFFFFFFFFFFFFF DUP2 GT ISZERO PUSH2 0x58D2 JUMPI PUSH2 0x58D1 PUSH2 0x5768 JUMP JUMPDEST JUMPDEST PUSH1 0x20 DUP4 ADD SWAP2 POP DUP4 PUSH1 0x20 DUP3 MUL DUP4 ADD GT ISZERO PUSH2 0x58EE JUMPI PUSH2 0x58ED PUSH2 0x576D JUMP JUMPDEST JUMPDEST SWAP3 POP SWAP3 SWAP1 POP JUMP JUMPDEST PUSH1 0x0 DUP1 PUSH1 0x0 DUP1 PUSH1 0x40 DUP6 DUP8 SUB SLT ISZERO PUSH2 0x590F JUMPI PUSH2 0x590E PUSH2 0x5166 JUMP JUMPDEST JUMPDEST PUSH1 0x0 DUP6 ADD CALLDATALOAD PUSH8 0xFFFFFFFFFFFFFFFF DUP2 GT ISZERO PUSH2 0x592D JUMPI PUSH2 0x592C PUSH2 0x516B JUMP JUMPDEST JUMPDEST PUSH2 0x5939 DUP8 DUP3 DUP9 ADD PUSH2 0x5772 JUMP JUMPDEST SWAP5 POP SWAP5 POP POP PUSH1 0x20 DUP6 ADD CALLDATALOAD PUSH8 0xFFFFFFFFFFFFFFFF DUP2 GT ISZERO PUSH2 0x595C JUMPI PUSH2 0x595B PUSH2 0x516B JUMP JUMPDEST JUMPDEST PUSH2 0x5968 DUP8 DUP3 DUP9 ADD PUSH2 0x589F JUMP JUMPDEST SWAP3 POP SWAP3 POP POP SWAP3 SWAP6 SWAP2 SWAP5 POP SWAP3 POP JUMP JUMPDEST PUSH1 0x0 PUSH2 0x100 DUP3 ADD SWAP1 POP PUSH2 0x598C PUSH1 0x0 DUP4 ADD DUP12 PUSH2 0x52C0 JUMP JUMPDEST PUSH2 0x5999 PUSH1 0x20 DUP4 ADD DUP11 PUSH2 0x52C0 JUMP JUMPDEST PUSH2 0x59A6 PUSH1 0x40 DUP4 ADD DUP10 PUSH2 0x52C0 JUMP JUMPDEST PUSH2 0x59B3 PUSH1 0x60 DUP4 ADD DUP9 PUSH2 0x52C0 JUMP JUMPDEST PUSH2 0x59C0 PUSH1 0x80 DUP4 ADD DUP8 PUSH2 0x52C0 JUMP JUMPDEST PUSH2 0x59CD PUSH1 0xA0 DUP4 ADD DUP7 PUSH2 0x52C0 JUMP JUMPDEST PUSH2 0x59DA PUSH1 0xC0 DUP4 ADD DUP6 PUSH2 0x52C0 JUMP JUMPDEST PUSH2 0x59E7 PUSH1 0xE0 DUP4 ADD DUP5 PUSH2 0x52C0 JUMP JUMPDEST SWAP10 SWAP9 POP POP POP POP POP POP POP POP POP JUMP JUMPDEST PUSH1 0x0 DUP1 PUSH1 0x40 DUP4 DUP6 SUB SLT ISZERO PUSH2 0x5A0B JUMPI PUSH2 0x5A0A PUSH2 0x5166 JUMP JUMPDEST JUMPDEST PUSH1 0x0 PUSH2 0x5A19 DUP6 DUP3 DUP7 ADD PUSH2 0x5274 JUMP JUMPDEST SWAP3 POP POP PUSH1 0x20 PUSH2 0x5A2A DUP6 DUP3 DUP7 ADD PUSH2 0x5301 JUMP JUMPDEST SWAP2 POP POP SWAP3 POP SWAP3 SWAP1 POP JUMP JUMPDEST PUSH1 0x0 DUP1 PUSH1 0x40 DUP4 DUP6 SUB SLT ISZERO PUSH2 0x5A4B JUMPI PUSH2 0x5A4A PUSH2 0x5166 JUMP JUMPDEST JUMPDEST PUSH1 0x0 PUSH2 0x5A59 DUP6 DUP3 DUP7 ADD PUSH2 0x5301 JUMP JUMPDEST SWAP3 POP POP PUSH1 0x20 PUSH2 0x5A6A DUP6 DUP3 DUP7 ADD PUSH2 0x5301 JUMP JUMPDEST SWAP2 POP POP SWAP3 POP SWAP3 SWAP1 POP JUMP JUMPDEST PUSH1 0x0 DUP1 PUSH1 0x20 DUP4 DUP6 SUB SLT ISZERO PUSH2 0x5A8B JUMPI PUSH2 0x5A8A PUSH2 0x5166 JUMP JUMPDEST JUMPDEST PUSH1 0x0 DUP4 ADD CALLDATALOAD PUSH8 0xFFFFFFFFFFFFFFFF DUP2 GT ISZERO PUSH2 0x5AA9 JUMPI PUSH2 0x5AA8 PUSH2 0x516B JUMP JUMPDEST JUMPDEST PUSH2 0x5AB5 DUP6 DUP3 DUP7 ADD PUSH2 0x57C8 JUMP JUMPDEST SWAP3 POP SWAP3 POP POP SWAP3 POP SWAP3 SWAP1 POP JUMP JUMPDEST PUSH1 0x0 DUP1 PUSH1 0x0 PUSH1 0x40 DUP5 DUP7 SUB SLT ISZERO PUSH2 0x5ADA JUMPI PUSH2 0x5AD9 PUSH2 0x5166 JUMP JUMPDEST JUMPDEST PUSH1 0x0 PUSH2 0x5AE8 DUP7 DUP3 DUP8 ADD PUSH2 0x5274 JUMP JUMPDEST SWAP4 POP POP PUSH1 0x20 DUP5 ADD CALLDATALOAD PUSH8 0xFFFFFFFFFFFFFFFF DUP2 GT ISZERO PUSH2 0x5B09 JUMPI PUSH2 0x5B08 PUSH2 0x516B JUMP JUMPDEST JUMPDEST PUSH2 0x5B15 DUP7 DUP3 DUP8 ADD PUSH2 0x57C8 JUMP JUMPDEST SWAP3 POP SWAP3 POP POP SWAP3 POP SWAP3 POP SWAP3 JUMP JUMPDEST PUSH2 0x5B2A DUP2 PUSH2 0x524B JUMP JUMPDEST DUP3 MSTORE POP POP JUMP JUMPDEST PUSH1 0x0 PUSH1 0x20 DUP3 ADD SWAP1 POP PUSH2 0x5B45 PUSH1 0x0 DUP4 ADD DUP5 PUSH2 0x5B21 JUMP JUMPDEST SWAP3 SWAP2 POP POP JUMP JUMPDEST PUSH1 0x0 PUSH2 0x180 DUP3 ADD SWAP1 POP PUSH2 0x5B61 PUSH1 0x0 DUP4 ADD DUP16 PUSH2 0x52C0 JUMP JUMPDEST PUSH2 0x5B6E PUSH1 0x20 DUP4 ADD DUP15 PUSH2 0x52C0 JUMP JUMPDEST PUSH2 0x5B7B PUSH1 0x40 DUP4 ADD DUP14 PUSH2 0x52C0 JUMP JUMPDEST PUSH2 0x5B88 PUSH1 0x60 DUP4 ADD DUP13 PUSH2 0x52C0 JUMP JUMPDEST PUSH2 0x5B95 PUSH1 0x80 DUP4 ADD DUP12 PUSH2 0x52C0 JUMP JUMPDEST PUSH2 0x5BA2 PUSH1 0xA0 DUP4 ADD DUP11 PUSH2 0x52C0 JUMP JUMPDEST PUSH2 0x5BAF PUSH1 0xC0 DUP4 ADD DUP10 PUSH2 0x52C0 JUMP JUMPDEST PUSH2 0x5BBC PUSH1 0xE0 DUP4 ADD DUP9 PUSH2 0x52C0 JUMP JUMPDEST PUSH2 0x5BCA PUSH2 0x100 DUP4 ADD DUP8 PUSH2 0x52C0 JUMP JUMPDEST PUSH2 0x5BD8 PUSH2 0x120 DUP4 ADD DUP7 PUSH2 0x52C0 JUMP JUMPDEST PUSH2 0x5BE6 PUSH2 0x140 DUP4 ADD DUP6 PUSH2 0x52C0 JUMP JUMPDEST PUSH2 0x5BF4 PUSH2 0x160 DUP4 ADD DUP5 PUSH2 0x52C0 JUMP JUMPDEST SWAP14 SWAP13 POP POP POP POP POP POP POP POP POP POP POP POP POP JUMP JUMPDEST PUSH1 0x0 DUP1 PUSH1 0x0 PUSH1 0x60 DUP5 DUP7 SUB SLT ISZERO PUSH2 0x5C1E JUMPI PUSH2 0x5C1D PUSH2 0x5166 JUMP JUMPDEST JUMPDEST PUSH1 0x0 PUSH2 0x5C2C DUP7 DUP3 DUP8 ADD PUSH2 0x5274 JUMP JUMPDEST SWAP4 POP POP PUSH1 0x20 PUSH2 0x5C3D DUP7 DUP3 DUP8 ADD PUSH2 0x5274 JUMP JUMPDEST SWAP3 POP POP PUSH1 0x40 PUSH2 0x5C4E DUP7 DUP3 DUP8 ADD PUSH2 0x535A JUMP JUMPDEST SWAP2 POP POP SWAP3 POP SWAP3 POP SWAP3 JUMP JUMPDEST PUSH1 0x2 DUP2 LT PUSH2 0x5C65 JUMPI PUSH1 0x0 DUP1 REVERT JUMPDEST POP JUMP JUMPDEST PUSH1 0x0 DUP2 CALLDATALOAD SWAP1 POP PUSH2 0x5C77 DUP2 PUSH2 0x5C58 JUMP JUMPDEST SWAP3 SWAP2 POP POP JUMP JUMPDEST PUSH1 0x0 DUP1 PUSH1 0x40 DUP4 DUP6 SUB SLT ISZERO PUSH2 0x5C94 JUMPI PUSH2 0x5C93 PUSH2 0x5166 JUMP JUMPDEST JUMPDEST PUSH1 0x0 PUSH2 0x5CA2 DUP6 DUP3 DUP7 ADD PUSH2 0x5C68 JUMP JUMPDEST SWAP3 POP POP PUSH1 0x20 PUSH2 0x5CB3 DUP6 DUP3 DUP7 ADD PUSH2 0x535A JUMP JUMPDEST SWAP2 POP POP SWAP3 POP SWAP3 SWAP1 POP JUMP JUMPDEST PUSH1 0x0 DUP3 DUP3 MSTORE PUSH1 0x20 DUP3 ADD SWAP1 POP SWAP3 SWAP2 POP POP JUMP JUMPDEST PUSH32 0x4E6F207574696C69747900000000000000000000000000000000000000000000 PUSH1 0x0 DUP3 ADD MSTORE POP JUMP JUMPDEST PUSH1 0x0 PUSH2 0x5D04 PUSH1 0xA DUP4 PUSH2 0x5CBD JUMP JUMPDEST SWAP2 POP PUSH2 0x5D0F DUP3 PUSH2 0x5CCE JUMP JUMPDEST PUSH1 0x20 DUP3 ADD SWAP1 POP SWAP2 SWAP1 POP JUMP JUMPDEST PUSH1 0x0 PUSH1 0x20 DUP3 ADD SWAP1 POP DUP2 DUP2 SUB PUSH1 0x0 DUP4 ADD MSTORE PUSH2 0x5D33 DUP2 PUSH2 0x5CF7 JUMP JUMPDEST SWAP1 POP SWAP2 SWAP1 POP JUMP JUMPDEST PUSH32 0x4E487B7100000000000000000000000000000000000000000000000000000000 PUSH1 0x0 MSTORE PUSH1 0x11 PUSH1 0x4 MSTORE PUSH1 0x24 PUSH1 0x0 REVERT JUMPDEST PUSH1 0x0 PUSH2 0x5D74 DUP3 PUSH2 0x52B6 JUMP JUMPDEST SWAP2 POP PUSH2 0x5D7F DUP4 PUSH2 0x52B6 JUMP JUMPDEST SWAP3 POP DUP3 DUP3 ADD SWAP1 POP DUP1 DUP3 GT ISZERO PUSH2 0x5D97 JUMPI PUSH2 0x5D96 PUSH2 0x5D3A JUMP JUMPDEST JUMPDEST SWAP3 SWAP2 POP POP JUMP JUMPDEST PUSH1 0x0 PUSH1 0x60 DUP3 ADD SWAP1 POP PUSH2 0x5DB2 PUSH1 0x0 DUP4 ADD DUP7 PUSH2 0x5417 JUMP JUMPDEST PUSH2 0x5DBF PUSH1 0x20 DUP4 ADD DUP6 PUSH2 0x52C0 JUMP JUMPDEST PUSH2 0x5DCC PUSH1 0x40 DUP4 ADD DUP5 PUSH2 0x52C0 JUMP JUMPDEST SWAP5 SWAP4 POP POP POP POP JUMP JUMPDEST PUSH32 0x5769746864726177616C73207061757365640000000000000000000000000000 PUSH1 0x0 DUP3 ADD MSTORE POP JUMP JUMPDEST PUSH1 0x0 PUSH2 0x5E0A PUSH1 0x12 DUP4 PUSH2 0x5CBD JUMP JUMPDEST SWAP2 POP PUSH2 0x5E15 DUP3 PUSH2 0x5DD4 JUMP JUMPDEST PUSH1 0x20 DUP3 ADD SWAP1 POP SWAP2 SWAP1 POP JUMP JUMPDEST PUSH1 0x0 PUSH1 0x20 DUP3 ADD SWAP1 POP DUP2 DUP2 SUB PUSH1 0x0 DUP4 ADD MSTORE PUSH2 0x5E39 DUP2 PUSH2 0x5DFD JUMP JUMPDEST SWAP1 POP SWAP2 SWAP1 POP JUMP JUMPDEST PUSH32 0x4E487B7100000000000000000000000000000000000000000000000000000000 PUSH1 0x0 MSTORE PUSH1 0x32 PUSH1 0x4 MSTORE PUSH1 0x24 PUSH1 0x0 REVERT JUMPDEST PUSH32 0x416C72656164792077697468647261776E000000000000000000000000000000 PUSH1 0x0 DUP3 ADD MSTORE POP JUMP JUMPDEST PUSH1 0x0 PUSH2 0x5EA5 PUSH1 0x11 DUP4 PUSH2 0x5CBD JUMP JUMPDEST SWAP2 POP PUSH2 0x5EB0 DUP3 PUSH2 0x5E6F JUMP JUMPDEST PUSH1 0x20 DUP3 ADD SWAP1 POP SWAP2 SWAP1 POP JUMP JUMPDEST PUSH1 0x0 PUSH1 0x20 DUP3 ADD SWAP1 POP DUP2 DUP2 SUB PUSH1 0x0 DUP4 ADD MSTORE PUSH2 0x5ED4 DUP2 PUSH2 0x5E98 JUMP JUMPDEST SWAP1 POP SWAP2 SWAP1 POP JUMP JUMPDEST PUSH32 0x4465706F736974206C6F636B6564000000000000000000000000000000000000 PUSH1 0x0 DUP3 ADD MSTORE POP JUMP JUMPDEST PUSH1 0x0 PUSH2 0x5F11 PUSH1 0xE DUP4 PUSH2 0x5CBD JUMP JUMPDEST SWAP2 POP PUSH2 0x5F1C DUP3 PUSH2 0x5EDB JUMP JUMPDEST PUSH1 0x20 DUP3 ADD SWAP1 POP SWAP2 SWAP1 POP JUMP JUMPDEST PUSH1 0x0 PUSH1 0x20 DUP3 ADD SWAP1 POP DUP2 DUP2 SUB PUSH1 0x0 DUP4 ADD MSTORE PUSH2 0x5F40 DUP2 PUSH2 0x5F04 JUMP JUMPDEST SWAP1 POP SWAP2 SWAP1 POP JUMP JUMPDEST PUSH1 0x0 DUP2 SWAP1 POP SWAP3 SWAP2 POP POP JUMP JUMPDEST POP JUMP JUMPDEST PUSH1 0x0 PUSH2 0x5F62 PUSH1 0x0 DUP4 PUSH2 0x5F47 JUMP JUMPDEST SWAP2 POP PUSH2 0x5F6D DUP3 PUSH2 0x5F52 JUMP JUMPDEST PUSH1 0x0 DUP3 ADD SWAP1 POP SWAP2 SWAP1 POP JUMP JUMPDEST PUSH1 0x0 PUSH2 0x5F83 DUP3 PUSH2 0x5F55 JUMP JUMPDEST SWAP2 POP DUP2 SWAP1 POP SWAP2 SWAP1 POP JUMP JUMPDEST PUSH32 0x455448207472616E73666572206661696C656400000000000000000000000000 PUSH1 0x0 DUP3 ADD MSTORE POP JUMP JUMPDEST PUSH1 0x0 PUSH2 0x5FC3 PUSH1 0x13 DUP4 PUSH2 0x5CBD JUMP JUMPDEST SWAP2 POP PUSH2 0x5FCE DUP3 PUSH2 0x5F8D JUMP JUMPDEST PUSH1 0x20 DUP3 ADD SWAP1 POP SWAP2 SWAP1 POP JUMP JUMPDEST PUSH1 0x0 PUSH1 0x20 DUP3 ADD SWAP1 POP DUP2 DUP2 SUB PUSH1 0x0 DUP4 ADD MSTORE PUSH2 0x5FF2 DUP2 PUSH2 0x5FB6 JUMP JUMPDEST SWAP1 POP SWAP2 SWAP1 POP JUMP JUMPDEST PUSH1 0x0 PUSH1 0x40 DUP3 ADD SWAP1 POP PUSH2 0x600E PUSH1 0x0 DUP4 ADD DUP6 PUSH2 0x5B21 JUMP JUMPDEST PUSH2 0x601B PUSH1 0x20 DUP4 ADD DUP5 PUSH2 0x52C0 JUMP JUMPDEST SWAP4 SWAP3 POP POP POP JUMP JUMPDEST PUSH1 0x0 DUP2 MLOAD SWAP1 POP PUSH2 0x6031 DUP2 PUSH2 0x52EA JUMP JUMPDEST SWAP3 SWAP2 POP POP JUMP JUMPDEST PUSH1 0x0 PUSH1 0x20 DUP3 DUP5 SUB SLT ISZERO PUSH2 0x604D JUMPI PUSH2 0x604C PUSH2 0x5166 JUMP JUMPDEST JUMPDEST PUSH1 0x0 PUSH2 0x605B DUP5 DUP3 DUP6 ADD PUSH2 0x6022 JUMP JUMPDEST SWAP2 POP POP SWAP3 SWAP2 POP POP JUMP JUMPDEST PUSH1 0x0 PUSH1 0xA0 DUP3 ADD SWAP1 POP PUSH2 0x6079 PUSH1 0x0 DUP4 ADD DUP9 PUSH2 0x5417 JUMP JUMPDEST PUSH2 0x6086 PUSH1 0x20 DUP4 ADD DUP8 PUSH2 0x52C0 JUMP JUMPDEST PUSH2 0x6093 PUSH1 0x40 DUP4 ADD DUP7 PUSH2 0x52C0 JUMP JUMPDEST PUSH2 0x60A0 PUSH1 0x60 DUP4 ADD DUP6 PUSH2 0x52C0 JUMP JUMPDEST PUSH2 0x60AD PUSH1 0x80 DUP4 ADD DUP5 PUSH2 0x52C0 JUMP JUMPDEST SWAP7 SWAP6 POP POP POP POP POP POP JUMP JUMPDEST PUSH32 0x4D69736D61746368000000000000000000000000000000000000000000000000 PUSH1 0x0 DUP3 ADD MSTORE POP JUMP JUMPDEST PUSH1 0x0 PUSH2 0x60ED PUSH1 0x8 DUP4 PUSH2 0x5CBD JUMP JUMPDEST SWAP2 POP PUSH2 0x60F8 DUP3 PUSH2 0x60B7 JUMP JUMPDEST PUSH1 0x20 DUP3 ADD SWAP1 POP SWAP2 SWAP1 POP JUMP JUMPDEST PUSH1 0x0 PUSH1 0x20 DUP3 ADD SWAP1 POP DUP2 DUP2 SUB PUSH1 0x0 DUP4 ADD MSTORE PUSH2 0x611C DUP2 PUSH2 0x60E0 JUMP JUMPDEST SWAP1 POP SWAP2 SWAP1 POP JUMP JUMPDEST PUSH32 0x5A65726F00000000000000000000000000000000000000000000000000000000 PUSH1 0x0 DUP3 ADD MSTORE POP JUMP JUMPDEST PUSH1 0x0 PUSH2 0x6159 PUSH1 0x4 DUP4 PUSH2 0x5CBD JUMP JUMPDEST SWAP2 POP PUSH2 0x6164 DUP3 PUSH2 0x6123 JUMP JUMPDEST PUSH1 0x20 DUP3 ADD SWAP1 POP SWAP2 SWAP1 POP JUMP JUMPDEST PUSH1 0x0 PUSH1 0x20 DUP3 ADD SWAP1 POP DUP2 DUP2 SUB PUSH1 0x0 DUP4 ADD MSTORE PUSH2 0x6188 DUP2 PUSH2 0x614C JUMP JUMPDEST SWAP1 POP SWAP2 SWAP1 POP JUMP JUMPDEST PUSH32 0x4578636565647320706F6F6C0000000000000000000000000000000000000000 PUSH1 0x0 DUP3 ADD MSTORE POP JUMP JUMPDEST PUSH1 0x0 PUSH2 0x61C5 PUSH1 0xC DUP4 PUSH2 0x5CBD JUMP JUMPDEST SWAP2 POP PUSH2 0x61D0 DUP3 PUSH2 0x618F JUMP JUMPDEST PUSH1 0x20 DUP3 ADD SWAP1 POP SWAP2 SWAP1 POP JUMP JUMPDEST PUSH1 0x0 PUSH1 0x20 DUP3 ADD SWAP1 POP DUP2 DUP2 SUB PUSH1 0x0 DUP4 ADD MSTORE PUSH2 0x61F4 DUP2 PUSH2 0x61B8 JUMP JUMPDEST SWAP1 POP SWAP2 SWAP1 POP JUMP JUMPDEST PUSH1 0x0 PUSH2 0x6206 DUP3 PUSH2 0x52B6 JUMP JUMPDEST SWAP2 POP PUSH2 0x6211 DUP4 PUSH2 0x52B6 JUMP JUMPDEST SWAP3 POP DUP3 DUP3 SUB SWAP1 POP DUP2 DUP2 GT ISZERO PUSH2 0x6229 JUMPI PUSH2 0x6228 PUSH2 0x5D3A JUMP JUMPDEST JUMPDEST SWAP3 SWAP2 POP POP JUMP JUMPDEST PUSH32 0x4E6F204554482073656E74000000000000000000000000000000000000000000 PUSH1 0x0 DUP3 ADD MSTORE POP JUMP JUMPDEST PUSH1 0x0 PUSH2 0x6265 PUSH1 0xB DUP4 PUSH2 0x5CBD JUMP JUMPDEST SWAP2 POP PUSH2 0x6270 DUP3 PUSH2 0x622F JUMP JUMPDEST PUSH1 0x20 DUP3 ADD SWAP1 POP SWAP2 SWAP1 POP JUMP JUMPDEST PUSH1 0x0 PUSH1 0x20 DUP3 ADD SWAP1 POP DUP2 DUP2 SUB PUSH1 0x0 DUP4 ADD MSTORE PUSH2 0x6294 DUP2 PUSH2 0x6258 JUMP JUMPDEST SWAP1 POP SWAP2 SWAP1 POP JUMP JUMPDEST PUSH1 0x0 PUSH1 0x40 DUP3 ADD SWAP1 POP PUSH2 0x62B0 PUSH1 0x0 DUP4 ADD DUP6 PUSH2 0x5201 JUMP JUMPDEST PUSH2 0x62BD PUSH1 0x20 DUP4 ADD DUP5 PUSH2 0x5201 JUMP JUMPDEST SWAP4 SWAP3 POP POP POP JUMP JUMPDEST PUSH1 0x0 DUP3 DUP3 MSTORE PUSH1 0x20 DUP3 ADD SWAP1 POP SWAP3 SWAP2 POP POP JUMP JUMPDEST PUSH1 0x0 DUP1 REVERT JUMPDEST DUP3 DUP2 DUP4 CALLDATACOPY POP POP POP JUMP JUMPDEST PUSH1 0x0 PUSH2 0x62EF DUP4 DUP6 PUSH2 0x62C4 JUMP JUMPDEST SWAP4 POP PUSH32 0x7FFFFFFFFFFFFFFFFFFFFFFFFFFFFFFFFFFFFFFFFFFFFFFFFFFFFFFFFFFFFFF DUP4 GT ISZERO PUSH2 0x6322 JUMPI PUSH2 0x6321 PUSH2 0x62D5 JUMP JUMPDEST JUMPDEST PUSH1 0x20 DUP4 MUL SWAP3 POP PUSH2 0x6333 DUP4 DUP6 DUP5 PUSH2 0x62DA JUMP JUMPDEST DUP3 DUP5 ADD SWAP1 POP SWAP4 SWAP3 POP POP POP JUMP JUMPDEST PUSH1 0x0 PUSH1 0xA0 DUP3 ADD SWAP1 POP PUSH2 0x6354 PUSH1 0x0 DUP4 ADD DUP10 PUSH2 0x5417 JUMP JUMPDEST DUP2 DUP2 SUB PUSH1 0x20 DUP4 ADD MSTORE PUSH2 0x6367 DUP2 DUP8 DUP10 PUSH2 0x62E3 JUMP JUMPDEST SWAP1 POP PUSH2 0x6376 PUSH1 0x40 DUP4 ADD DUP7 PUSH2 0x52C0 JUMP JUMPDEST PUSH2 0x6383 PUSH1 0x60 DUP4 ADD DUP6 PUSH2 0x52C0 JUMP JUMPDEST PUSH2 0x6390 PUSH1 0x80 DUP4 ADD DUP5 PUSH2 0x52C0 JUMP JUMPDEST SWAP8 SWAP7 POP POP POP POP POP POP POP JUMP JUMPDEST PUSH32 0x5574696C6974792061646472657373206E6F7420736574000000000000000000 PUSH1 0x0 DUP3 ADD MSTORE POP JUMP JUMPDEST PUSH1 0x0 PUSH2 0x63D1 PUSH1 0x17 DUP4 PUSH2 0x5CBD JUMP JUMPDEST SWAP2 POP PUSH2 0x63DC DUP3 PUSH2 0x639B JUMP JUMPDEST PUSH1 0x20 DUP3 ADD SWAP1 POP SWAP2 SWAP1 POP JUMP JUMPDEST PUSH1 0x0 PUSH1 0x20 DUP3 ADD SWAP1 POP DUP2 DUP2 SUB PUSH1 0x0 DUP4 ADD MSTORE PUSH2 0x6400 DUP2 PUSH2 0x63C4 JUMP JUMPDEST SWAP1 POP SWAP2 SWAP1 POP JUMP JUMPDEST PUSH32 0x416C726561647920756E6C6F636B65642F77697468647261776E000000000000 PUSH1 0x0 DUP3 ADD MSTORE POP JUMP JUMPDEST PUSH1 0x0 PUSH2 0x643D PUSH1 0x1A DUP4 PUSH2 0x5CBD JUMP JUMPDEST SWAP2 POP PUSH2 0x6448 DUP3 PUSH2 0x6407 JUMP JUMPDEST PUSH1 0x20 DUP3 ADD SWAP1 POP SWAP2 SWAP1 POP JUMP JUMPDEST PUSH1 0x0 PUSH1 0x20 DUP3 ADD SWAP1 POP DUP2 DUP2 SUB PUSH1 0x0 DUP4 ADD MSTORE PUSH2 0x646C DUP2 PUSH2 0x6430 JUMP JUMPDEST SWAP1 POP SWAP2 SWAP1 POP JUMP JUMPDEST PUSH1 0x0 PUSH1 0x20 DUP3 ADD SWAP1 POP DUP2 DUP2 SUB PUSH1 0x0 DUP4 ADD MSTORE PUSH2 0x648E DUP2 DUP5 DUP7 PUSH2 0x62E3 JUMP JUMPDEST SWAP1 POP SWAP4 SWAP3 POP POP POP JUMP JUMPDEST PUSH32 0x5A65726F20616464726573730000000000000000000000000000000000000000 PUSH1 0x0 DUP3 ADD MSTORE POP JUMP JUMPDEST PUSH1 0x0 PUSH2 0x64CD PUSH1 0xC DUP4 PUSH2 0x5CBD JUMP JUMPDEST SWAP2 POP PUSH2 0x64D8 DUP3 PUSH2 0x6497 JUMP JUMPDEST PUSH1 0x20 DUP3 ADD SWAP1 POP SWAP2 SWAP1 POP JUMP JUMPDEST PUSH1 0x0 PUSH1 0x20 DUP3 ADD SWAP1 POP DUP2 DUP2 SUB PUSH1 0x0 DUP4 ADD MSTORE PUSH2 0x64FC DUP2 PUSH2 0x64C0 JUMP JUMPDEST SWAP1 POP SWAP2 SWAP1 POP JUMP JUMPDEST PUSH32 0x496E73756666696369656E742062616C616E6365000000000000000000000000 PUSH1 0x0 DUP3 ADD MSTORE POP JUMP JUMPDEST PUSH1 0x0 PUSH2 0x6539 PUSH1 0x14 DUP4 PUSH2 0x5CBD JUMP JUMPDEST SWAP2 POP PUSH2 0x6544 DUP3 PUSH2 0x6503 JUMP JUMPDEST PUSH1 0x20 DUP3 ADD SWAP1 POP SWAP2 SWAP1 POP JUMP JUMPDEST PUSH1 0x0 PUSH1 0x20 DUP3 ADD SWAP1 POP DUP2 DUP2 SUB PUSH1 0x0 DUP4 ADD MSTORE PUSH2 0x6568 DUP2 PUSH2 0x652C JUMP JUMPDEST SWAP1 POP SWAP2 SWAP1 POP JUMP JUMPDEST PUSH1 0x0 DUP2 MLOAD SWAP1 POP PUSH2 0x657E DUP2 PUSH2 0x5343 JUMP JUMPDEST SWAP3 SWAP2 POP POP JUMP JUMPDEST PUSH1 0x0 PUSH1 0x20 DUP3 DUP5 SUB SLT ISZERO PUSH2 0x659A JUMPI PUSH2 0x6599 PUSH2 0x5166 JUMP JUMPDEST JUMPDEST PUSH1 0x0 PUSH2 0x65A8 DUP5 DUP3 DUP6 ADD PUSH2 0x656F JUMP JUMPDEST SWAP2 POP POP SWAP3 SWAP2 POP POP JUMP JUMPDEST PUSH32 0x4E6F20555344432073656E740000000000000000000000000000000000000000 PUSH1 0x0 DUP3 ADD MSTORE POP JUMP JUMPDEST PUSH1 0x0 PUSH2 0x65E7 PUSH1 0xC DUP4 PUSH2 0x5CBD JUMP JUMPDEST SWAP2 POP PUSH2 0x65F2 DUP3 PUSH2 0x65B1 JUMP JUMPDEST PUSH1 0x20 DUP3 ADD SWAP1 POP SWAP2 SWAP1 POP JUMP JUMPDEST PUSH1 0x0 PUSH1 0x20 DUP3 ADD SWAP1 POP DUP2 DUP2 SUB PUSH1 0x0 DUP4 ADD MSTORE PUSH2 0x6616 DUP2 PUSH2 0x65DA JUMP JUMPDEST SWAP1 POP SWAP2 SWAP1 POP JUMP JUMPDEST PUSH1 0x0 PUSH1 0x60 DUP3 ADD SWAP1 POP PUSH2 0x6632 PUSH1 0x0 DUP4 ADD DUP7 PUSH2 0x5B21 JUMP JUMPDEST PUSH2 0x663F PUSH1 0x20 DUP4 ADD DUP6 PUSH2 0x5B21 JUMP JUMPDEST PUSH2 0x664C PUSH1 0x40 DUP4 ADD DUP5 PUSH2 0x52C0 JUMP JUMPDEST SWAP5 SWAP4 POP POP POP POP JUMP JUMPDEST PUSH32 0x416C726561647920656E61626C65640000000000000000000000000000000000 PUSH1 0x0 DUP3 ADD MSTORE POP JUMP JUMPDEST PUSH1 0x0 PUSH2 0x668A PUSH1 0xF DUP4 PUSH2 0x5CBD JUMP JUMPDEST SWAP2 POP PUSH2 0x6695 DUP3 PUSH2 0x6654 JUMP JUMPDEST PUSH1 0x20 DUP3 ADD SWAP1 POP SWAP2 SWAP1 POP JUMP JUMPDEST PUSH1 0x0 PUSH1 0x20 DUP3 ADD SWAP1 POP DUP2 DUP2 SUB PUSH1 0x0 DUP4 ADD MSTORE PUSH2 0x66B9 DUP2 PUSH2 0x667D JUMP JUMPDEST SWAP1 POP SWAP2 SWAP1 POP JUMP JUMPDEST PUSH1 0x0 PUSH1 0x40 DUP3 ADD SWAP1 POP PUSH2 0x66D5 PUSH1 0x0 DUP4 ADD DUP6 PUSH2 0x5417 JUMP JUMPDEST PUSH2 0x66E2 PUSH1 0x20 DUP4 ADD DUP5 PUSH2 0x52C0 JUMP JUMPDEST SWAP4 SWAP3 POP POP POP JUMP JUMPDEST PUSH32 0x4465706F73697473207061757365640000000000000000000000000000000000 PUSH1 0x0 DUP3 ADD MSTORE POP JUMP JUMPDEST PUSH1 0x0 PUSH2 0x671F PUSH1 0xF DUP4 PUSH2 0x5CBD JUMP JUMPDEST SWAP2 POP PUSH2 0x672A DUP3 PUSH2 0x66E9 JUMP JUMPDEST PUSH1 0x20 DUP3 ADD SWAP1 POP SWAP2 SWAP1 POP JUMP JUMPDEST PUSH1 0x0 PUSH1 0x20 DUP3 ADD SWAP1 POP DUP2 DUP2 SUB PUSH1 0x0 DUP4 ADD MSTORE PUSH2 0x674E DUP2 PUSH2 0x6712 JUMP JUMPDEST SWAP1 POP SWAP2 SWAP1 POP JUMP JUMPDEST PUSH32 0x4361702072656163686564000000000000000000000000000000000000000000 PUSH1 0x0 DUP3 ADD MSTORE POP JUMP JUMPDEST PUSH1 0x0 PUSH2 0x678B PUSH1 0xB DUP4 PUSH2 0x5CBD JUMP JUMPDEST SWAP2 POP PUSH2 0x6796 DUP3 PUSH2 0x6755 JUMP JUMPDEST PUSH1 0x20 DUP3 ADD SWAP1 POP SWAP2 SWAP1 POP JUMP JUMPDEST PUSH1 0x0 PUSH1 0x20 DUP3 ADD SWAP1 POP DUP2 DUP2 SUB PUSH1 0x0 DUP4 ADD MSTORE PUSH2 0x67BA DUP2 PUSH2 0x677E JUMP JUMPDEST SWAP1 POP SWAP2 SWAP1 POP JUMP JUMPDEST PUSH32 0x4E6F742077686974656C69737465640000000000000000000000000000000000 PUSH1 0x0 DUP3 ADD MSTORE POP JUMP JUMPDEST PUSH1 0x0 PUSH2 0x67F7 PUSH1 0xF DUP4 PUSH2 0x5CBD JUMP JUMPDEST SWAP2 POP PUSH2 0x6802 DUP3 PUSH2 0x67C1 JUMP JUMPDEST PUSH1 0x20 DUP3 ADD SWAP1 POP SWAP2 SWAP1 POP JUMP JUMPDEST PUSH1 0x0 PUSH1 0x20 DUP3 ADD SWAP1 POP DUP2 DUP2 SUB PUSH1 0x0 DUP4 ADD MSTORE PUSH2 0x6826 DUP2 PUSH2 0x67EA JUMP JUMPDEST SWAP1 POP SWAP2 SWAP1 POP JUMP JUMPDEST PUSH1 0x0 PUSH1 0xA0 DUP3 ADD SWAP1 POP PUSH2 0x6842 PUSH1 0x0 DUP4 ADD DUP9 PUSH2 0x5417 JUMP JUMPDEST PUSH2 0x684F PUSH1 0x20 DUP4 ADD DUP8 PUSH2 0x52C0 JUMP JUMPDEST PUSH2 0x685C PUSH1 0x40 DUP4 ADD DUP7 PUSH2 0x52C0 JUMP JUMPDEST PUSH2 0x6869 PUSH1 0x60 DUP4 ADD DUP6 PUSH2 0x52C0 JUMP JUMPDEST PUSH2 0x6876 PUSH1 0x80 DUP4 ADD DUP5 PUSH2 0x5201 JUMP JUMPDEST SWAP7 SWAP6 POP POP POP POP POP POP JUMP JUMPDEST PUSH1 0x0 PUSH1 0x40 DUP3 ADD SWAP1 POP PUSH2 0x6895 PUSH1 0x0 DUP4 ADD DUP6 PUSH2 0x5B21 JUMP JUMPDEST PUSH2 0x68A2 PUSH1 0x20 DUP4 ADD DUP5 PUSH2 0x54BD JUMP JUMPDEST SWAP4 SWAP3 POP POP POP JUMP INVALID LOG2 PUSH5 0x6970667358 0x22 SLT KECCAK256 BLOBHASH 0xE6 CREATE 0xF DUP13 PUSH0 PUSH3 0x4916B 0xC5 SELFBALANCE 0xC 0xCA EQ CREATE 0x28 DUP3 DUP15 JUMPDEST 0xE8 0xCB PUSH29 0x96F1DBCEA0BB37D76364736F6C63430008190033000000000000000000 "},"methodIdentifiers":{"ADMIN_ROLE()":"75b238fc","DEFAULT_ADMIN_ROLE()":"a217fddf","PAUSER_ROLE()":"e63ab1e9","UNLOCKER_ROLE()":"e043b2b2","USDC()":"89a30271","UTILITY_INJECTOR_ROLE()":"0c016ad5","UTILITY_WITHDRAWER_ROLE()":"885f5029","allDepositors(uint256)":"e02f6aca","allUsers(uint256)":"a2bdedf4","assignUtilityETH(address,uint256)":"6ec23995","assignUtilityETHBatch(address[],uint256[])":"b758aeaa","assignUtilityUSDC(address,uint256)":"762e1c73","assignUtilityUSDCBatch(address[],uint256[])":"41debf1f","batchWithdraw(uint256[])":"72e55399","claimUtilityETH()":"e399067f","claimUtilityUSDC()":"6c6ff56c","depositETH()":"f6326fb3","depositUSDC(uint256)":"f688bcfb","enableGlobalLiquidation()":"da8d5add","getRoleAdmin(bytes32)":"248a9ca3","getUserDeposits(address)":"2a5bf6d2","getUserStats(address)":"4e43603a","getVaultStats()":"a59aa5a6","globalLiquidationEnabled()":"246d47b7","globalLiquidationTimestamp()":"588583a0","grantRole(bytes32,address)":"2f2ff15d","hasRole(bytes32,address)":"91d14854","hasWithdrawn(address)":"5e2c19db","injectUtilityETH()":"64021b13","injectUtilityUSDC(uint256)":"d830d5cc","isWhitelisted(address)":"3af32abf","lockupPeriod()":"ee947a7c","maxCapETH()":"9ddc3912","maxCapUSDC()":"1c5aeef7","pausedDeposits()":"6068d6cb","pausedWithdrawals()":"b2b77ae2","reinvestUtilityETH()":"275991d2","reinvestUtilityUSDC()":"bda821e8","renounceRole(bytes32,address)":"36568abe","rescueERC20(address,address,uint256)":"b2118a8d","revokeRole(bytes32,address)":"d547741f","setLockupPeriod(uint256)":"c771c390","setMaxCap(uint8,uint256)":"f5f69af2","setPaused(bool,bool)":"6426be48","setUtilityAddress(address)":"89bad0a6","setWhitelist(address,bool)":"53d6fd59","setWhitelistBatch(address[],bool[])":"47af19aa","setWhitelistEnabled(bool)":"052d9e7e","supportsInterface(bytes4)":"01ffc9a7","totalDepositedETH()":"899aa991","totalDepositedUSDC()":"27175b23","totalReinvestedETH()":"97d9e5b4","totalReinvestedUSDC()":"e15e23c1","totalUtilityETH()":"b65ba94b","totalUtilityUSDC()":"3ac43970","totalWithdrawnETH()":"8b713b2e","totalWithdrawnUSDC()":"e340b783","unlockDepositsForUser(address,uint256[])":"867d099a","userClaimableUtilityETH(address)":"3408567c","userClaimableUtilityUSDC(address)":"e9fe0c78","userDeposits(address,uint256)":"08f43333","userTotalReinvestedETH(address)":"886d589d","userTotalReinvestedUSDC(address)":"04c68af0","utilityAddress()":"f29b2239","whitelistEnabled()":"51fb012d","withdraw(uint256)":"2e1a7d4d","withdrawUtilityETH(uint256)":"93055c43","withdrawUtilityUSDC(uint256)":"76c1d3db","withdrawnUsers(uint256)":"9e657e33"}}}}}