{
  "abi": [
    {
      "inputs": [
        {
          "internalType": "address[]",
          "name": "initialAdmins",
          "type": "address[]"
        },
        {
          "internalType": "address",
          "name": "_utilityAddress",
          "type": "address"
        },
        {
          "internalType": "address",
          "name": "trustedForwarder",
          "type": "address"
        },
        {
          "internalType": "address",
          "name": "_usdcAddress",
          "type": "address"
        }
      ],
      "stateMutability": "nonpayable",
      "type": "constructor"
    },
    {
      "inputs": [],
      "name": "AccessControlBadConfirmation",
      "type": "error"
    },
    {
      "inputs": [
        {
          "internalType": "address",
          "name": "account",
          "type": "address"
        },
        {
          "internalType": "bytes32",
          "name": "neededRole",
          "type": "bytes32"
        }
      ],
      "name": "AccessControlUnauthorizedAccount",
      "type": "error"
    },
    {
      "inputs": [],
      "name": "AlreadyUnlockedOrWithdrawn",
      "type": "error"
    },
    {
      "inputs": [],
      "name": "AlreadyWithdrawn",
      "type": "error"
    },
    {
      "inputs": [],
      "name": "ArrayLengthMismatch",
      "type": "error"
    },
    {
      "inputs": [],
      "name": "CapReached",
      "type": "error"
    },
    {
      "inputs": [],
      "name": "DepositLocked",
      "type": "error"
    },
    {
      "inputs": [],
      "name": "DepositsPaused",
      "type": "error"
    },
    {
      "inputs": [],
      "name": "ExceedsTotalUtility",
      "type": "error"
    },
    {
      "inputs": [],
      "name": "GlobalLiquidationAlreadyEnabled",
      "type": "error"
    },
    {
      "inputs": [],
      "name": "InsufficientBalance",
      "type": "error"
    },
    {
      "inputs": [],
      "name": "InvalidAmount",
      "type": "error"
    },
    {
      "inputs": [],
      "name": "NoUtilityToClaim",
      "type": "error"
    },
    {
      "inputs": [],
      "name": "NotWhitelisted",
      "type": "error"
    },
    {
      "inputs": [],
      "name": "ReentrancyGuardReentrantCall",
      "type": "error"
    },
    {
      "inputs": [],
      "name": "ReturnedAmountExceedsInvested",
      "type": "error"
    },
    {
      "inputs": [],
      "name": "TransferFailed",
      "type": "error"
    },
    {
      "inputs": [],
      "name": "WithdrawalsPaused",
      "type": "error"
    },
    {
      "inputs": [],
      "name": "ZeroAddress",
      "type": "error"
    },
    {
      "anonymous": false,
      "inputs": [
        {
          "indexed": true,
          "internalType": "address",
          "name": "user",
          "type": "address"
        },
        {
          "indexed": false,
          "internalType": "enum PoolPandorasSepolia.TokenType",
          "name": "token",
          "type": "uint8"
        },
        {
          "indexed": false,
          "internalType": "uint256[]",
          "name": "indices",
          "type": "uint256[]"
        },
        {
          "indexed": false,
          "internalType": "uint256",
          "name": "totalPrincipal",
          "type": "uint256"
        },
        {
          "indexed": false,
          "internalType": "uint256",
          "name": "totalYield",
          "type": "uint256"
        },
        {
          "indexed": false,
          "internalType": "uint256",
          "name": "when",
          "type": "uint256"
        }
      ],
      "name": "BatchWithdraw",
      "type": "event"
    },
    {
      "anonymous": false,
      "inputs": [
        {
          "indexed": true,
          "internalType": "address",
          "name": "user",
          "type": "address"
        },
        {
          "indexed": false,
          "internalType": "enum PoolPandorasSepolia.TokenType",
          "name": "token",
          "type": "uint8"
        },
        {
          "indexed": false,
          "internalType": "uint256",
          "name": "amount",
          "type": "uint256"
        },
        {
          "indexed": false,
          "internalType": "uint256",
          "name": "when",
          "type": "uint256"
        }
      ],
      "name": "ClaimUtility",
      "type": "event"
    },
    {
      "anonymous": false,
      "inputs": [
        {
          "indexed": true,
          "internalType": "address",
          "name": "user",
          "type": "address"
        },
        {
          "indexed": false,
          "internalType": "enum PoolPandorasSepolia.TokenType",
          "name": "token",
          "type": "uint8"
        },
        {
          "indexed": false,
          "internalType": "uint256",
          "name": "amount",
          "type": "uint256"
        },
        {
          "indexed": false,
          "internalType": "uint256",
          "name": "when",
          "type": "uint256"
        },
        {
          "indexed": false,
          "internalType": "uint256",
          "name": "depositIndex",
          "type": "uint256"
        },
        {
          "indexed": false,
          "internalType": "bool",
          "name": "reinvestment",
          "type": "bool"
        }
      ],
      "name": "Deposit",
      "type": "event"
    },
    {
      "anonymous": false,
      "inputs": [
        {
          "indexed": true,
          "internalType": "address",
          "name": "user",
          "type": "address"
        },
        {
          "indexed": false,
          "internalType": "uint256[]",
          "name": "indices",
          "type": "uint256[]"
        }
      ],
      "name": "DepositsUnlocked",
      "type": "event"
    },
    {
      "anonymous": false,
      "inputs": [
        {
          "indexed": true,
          "internalType": "address",
          "name": "token",
          "type": "address"
        },
        {
          "indexed": true,
          "internalType": "address",
          "name": "to",
          "type": "address"
        },
        {
          "indexed": false,
          "internalType": "uint256",
          "name": "amount",
          "type": "uint256"
        }
      ],
      "name": "ERC20Rescued",
      "type": "event"
    },
    {
      "anonymous": false,
      "inputs": [
        {
          "indexed": false,
          "internalType": "uint256",
          "name": "when",
          "type": "uint256"
        }
      ],
      "name": "GlobalLiquidationEnabled",
      "type": "event"
    },
    {
      "anonymous": false,
      "inputs": [
        {
          "indexed": true,
          "internalType": "address",
          "name": "manager",
          "type": "address"
        },
        {
          "indexed": false,
          "internalType": "enum PoolPandorasSepolia.TokenType",
          "name": "token",
          "type": "uint8"
        },
        {
          "indexed": false,
          "internalType": "uint256",
          "name": "amount",
          "type": "uint256"
        },
        {
          "indexed": false,
          "internalType": "uint256",
          "name": "when",
          "type": "uint256"
        }
      ],
      "name": "InvestmentReturned",
      "type": "event"
    },
    {
      "anonymous": false,
      "inputs": [
        {
          "indexed": false,
          "internalType": "uint256",
          "name": "newPeriod",
          "type": "uint256"
        }
      ],
      "name": "LockupPeriodChanged",
      "type": "event"
    },
    {
      "anonymous": false,
      "inputs": [
        {
          "indexed": false,
          "internalType": "enum PoolPandorasSepolia.TokenType",
          "name": "token",
          "type": "uint8"
        },
        {
          "indexed": false,
          "internalType": "uint256",
          "name": "newCap",
          "type": "uint256"
        }
      ],
      "name": "MaxCapChanged",
      "type": "event"
    },
    {
      "anonymous": false,
      "inputs": [
        {
          "indexed": false,
          "internalType": "bool",
          "name": "depositsPaused",
          "type": "bool"
        },
        {
          "indexed": false,
          "internalType": "bool",
          "name": "withdrawalsPaused",
          "type": "bool"
        }
      ],
      "name": "PauseChanged",
      "type": "event"
    },
    {
      "anonymous": false,
      "inputs": [
        {
          "indexed": true,
          "internalType": "address",
          "name": "user",
          "type": "address"
        },
        {
          "indexed": false,
          "internalType": "enum PoolPandorasSepolia.TokenType",
          "name": "token",
          "type": "uint8"
        },
        {
          "indexed": false,
          "internalType": "uint256",
          "name": "amount",
          "type": "uint256"
        },
        {
          "indexed": false,
          "internalType": "uint256",
          "name": "when",
          "type": "uint256"
        }
      ],
      "name": "Reinvest",
      "type": "event"
    },
    {
      "anonymous": false,
      "inputs": [
        {
          "indexed": true,
          "internalType": "bytes32",
          "name": "role",
          "type": "bytes32"
        },
        {
          "indexed": true,
          "internalType": "bytes32",
          "name": "previousAdminRole",
          "type": "bytes32"
        },
        {
          "indexed": true,
          "internalType": "bytes32",
          "name": "newAdminRole",
          "type": "bytes32"
        }
      ],
      "name": "RoleAdminChanged",
      "type": "event"
    },
    {
      "anonymous": false,
      "inputs": [
        {
          "indexed": true,
          "internalType": "bytes32",
          "name": "role",
          "type": "bytes32"
        },
        {
          "indexed": true,
          "internalType": "address",
          "name": "account",
          "type": "address"
        },
        {
          "indexed": true,
          "internalType": "address",
          "name": "sender",
          "type": "address"
        }
      ],
      "name": "RoleGranted",
      "type": "event"
    },
    {
      "anonymous": false,
      "inputs": [
        {
          "indexed": true,
          "internalType": "bytes32",
          "name": "role",
          "type": "bytes32"
        },
        {
          "indexed": true,
          "internalType": "address",
          "name": "account",
          "type": "address"
        },
        {
          "indexed": true,
          "internalType": "address",
          "name": "sender",
          "type": "address"
        }
      ],
      "name": "RoleRevoked",
      "type": "event"
    },
    {
      "anonymous": false,
      "inputs": [
        {
          "indexed": true,
          "internalType": "address",
          "name": "user",
          "type": "address"
        },
        {
          "indexed": false,
          "internalType": "bool",
          "name": "status",
          "type": "bool"
        }
      ],
      "name": "UserWhitelisted",
      "type": "event"
    },
    {
      "anonymous": false,
      "inputs": [
        {
          "indexed": false,
          "internalType": "address",
          "name": "newUtilityAddress",
          "type": "address"
        }
      ],
      "name": "UtilityAddressChanged",
      "type": "event"
    },
    {
      "anonymous": false,
      "inputs": [
        {
          "indexed": true,
          "internalType": "address",
          "name": "admin",
          "type": "address"
        },
        {
          "indexed": false,
          "internalType": "enum PoolPandorasSepolia.TokenType",
          "name": "token",
          "type": "uint8"
        },
        {
          "indexed": false,
          "internalType": "uint256",
          "name": "amount",
          "type": "uint256"
        },
        {
          "indexed": false,
          "internalType": "uint256",
          "name": "when",
          "type": "uint256"
        }
      ],
      "name": "UtilityInjected",
      "type": "event"
    },
    {
      "anonymous": false,
      "inputs": [
        {
          "indexed": true,
          "internalType": "address",
          "name": "to",
          "type": "address"
        },
        {
          "indexed": false,
          "internalType": "enum PoolPandorasSepolia.TokenType",
          "name": "token",
          "type": "uint8"
        },
        {
          "indexed": false,
          "internalType": "uint256",
          "name": "amount",
          "type": "uint256"
        },
        {
          "indexed": false,
          "internalType": "uint256",
          "name": "when",
          "type": "uint256"
        }
      ],
      "name": "UtilityWithdrawn",
      "type": "event"
    },
    {
      "anonymous": false,
      "inputs": [
        {
          "indexed": true,
          "internalType": "address",
          "name": "user",
          "type": "address"
        },
        {
          "indexed": false,
          "internalType": "enum PoolPandorasSepolia.TokenType",
          "name": "token",
          "type": "uint8"
        },
        {
          "indexed": false,
          "internalType": "uint256",
          "name": "principal",
          "type": "uint256"
        },
        {
          "indexed": false,
          "internalType": "uint256",
          "name": "yield",
          "type": "uint256"
        },
        {
          "indexed": false,
          "internalType": "uint256",
          "name": "when",
          "type": "uint256"
        },
        {
          "indexed": false,
          "internalType": "uint256",
          "name": "depositIndex",
          "type": "uint256"
        }
      ],
      "name": "Withdraw",
      "type": "event"
    },
    {
      "anonymous": false,
      "inputs": [
        {
          "indexed": true,
          "internalType": "address",
          "name": "manager",
          "type": "address"
        },
        {
          "indexed": false,
          "internalType": "enum PoolPandorasSepolia.TokenType",
          "name": "token",
          "type": "uint8"
        },
        {
          "indexed": true,
          "internalType": "address",
          "name": "to",
          "type": "address"
        },
        {
          "indexed": false,
          "internalType": "uint256",
          "name": "amount",
          "type": "uint256"
        },
        {
          "indexed": false,
          "internalType": "uint256",
          "name": "when",
          "type": "uint256"
        }
      ],
      "name": "WithdrawnForInvestment",
      "type": "event"
    },
    {
      "inputs": [],
      "name": "ADMIN_ROLE",
      "outputs": [
        {
          "internalType": "bytes32",
          "name": "",
          "type": "bytes32"
        }
      ],
      "stateMutability": "view",
      "type": "function"
    },
    {
      "inputs": [],
      "name": "DEFAULT_ADMIN_ROLE",
      "outputs": [
        {
          "internalType": "bytes32",
          "name": "",
          "type": "bytes32"
        }
      ],
      "stateMutability": "view",
      "type": "function"
    },
    {
      "inputs": [],
      "name": "MANAGER_ROLE",
      "outputs": [
        {
          "internalType": "bytes32",
          "name": "",
          "type": "bytes32"
        }
      ],
      "stateMutability": "view",
      "type": "function"
    },
    {
      "inputs": [],
      "name": "PAUSER_ROLE",
      "outputs": [
        {
          "internalType": "bytes32",
          "name": "",
          "type": "bytes32"
        }
      ],
      "stateMutability": "view",
      "type": "function"
    },
    {
      "inputs": [],
      "name": "UNLOCKER_ROLE",
      "outputs": [
        {
          "internalType": "bytes32",
          "name": "",
          "type": "bytes32"
        }
      ],
      "stateMutability": "view",
      "type": "function"
    },
    {
      "inputs": [],
      "name": "UTILITY_INJECTOR_ROLE",
      "outputs": [
        {
          "internalType": "bytes32",
          "name": "",
          "type": "bytes32"
        }
      ],
      "stateMutability": "view",
      "type": "function"
    },
    {
      "inputs": [],
      "name": "UTILITY_WITHDRAWER_ROLE",
      "outputs": [
        {
          "internalType": "bytes32",
          "name": "",
          "type": "bytes32"
        }
      ],
      "stateMutability": "view",
      "type": "function"
    },
    {
      "inputs": [
        {
          "internalType": "address",
          "name": "user",
          "type": "address"
        },
        {
          "internalType": "uint256",
          "name": "amount",
          "type": "uint256"
        }
      ],
      "name": "assignUtilityETH",
      "outputs": [],
      "stateMutability": "nonpayable",
      "type": "function"
    },
    {
      "inputs": [
        {
          "internalType": "address[]",
          "name": "users",
          "type": "address[]"
        },
        {
          "internalType": "uint256[]",
          "name": "amounts",
          "type": "uint256[]"
        }
      ],
      "name": "assignUtilityETHBatch",
      "outputs": [],
      "stateMutability": "nonpayable",
      "type": "function"
    },
    {
      "inputs": [
        {
          "internalType": "address",
          "name": "user",
          "type": "address"
        },
        {
          "internalType": "uint256",
          "name": "amount",
          "type": "uint256"
        }
      ],
      "name": "assignUtilityUSDC",
      "outputs": [],
      "stateMutability": "nonpayable",
      "type": "function"
    },
    {
      "inputs": [
        {
          "internalType": "address[]",
          "name": "users",
          "type": "address[]"
        },
        {
          "internalType": "uint256[]",
          "name": "amounts",
          "type": "uint256[]"
        }
      ],
      "name": "assignUtilityUSDCBatch",
      "outputs": [],
      "stateMutability": "nonpayable",
      "type": "function"
    },
    {
      "inputs": [
        {
          "internalType": "uint256[]",
          "name": "depositIndices",
          "type": "uint256[]"
        }
      ],
      "name": "batchWithdraw",
      "outputs": [],
      "stateMutability": "nonpayable",
      "type": "function"
    },
    {
      "inputs": [],
      "name": "claimUtilityETH",
      "outputs": [],
      "stateMutability": "nonpayable",
      "type": "function"
    },
    {
      "inputs": [],
      "name": "claimUtilityUSDC",
      "outputs": [],
      "stateMutability": "nonpayable",
      "type": "function"
    },
    {
      "inputs": [],
      "name": "depositETH",
      "outputs": [],
      "stateMutability": "payable",
      "type": "function"
    },
    {
      "inputs": [
        {
          "internalType": "uint256",
          "name": "amount",
          "type": "uint256"
        }
      ],
      "name": "depositUSDC",
      "outputs": [],
      "stateMutability": "nonpayable",
      "type": "function"
    },
    {
      "inputs": [],
      "name": "enableGlobalLiquidation",
      "outputs": [],
      "stateMutability": "nonpayable",
      "type": "function"
    },
    {
      "inputs": [
        {
          "internalType": "bytes32",
          "name": "role",
          "type": "bytes32"
        }
      ],
      "name": "getRoleAdmin",
      "outputs": [
        {
          "internalType": "bytes32",
          "name": "",
          "type": "bytes32"
        }
      ],
      "stateMutability": "view",
      "type": "function"
    },
    {
      "inputs": [
        {
          "internalType": "address",
          "name": "user",
          "type": "address"
        }
      ],
      "name": "getUserDeposits",
      "outputs": [
        {
          "components": [
            {
              "internalType": "uint96",
              "name": "amount",
              "type": "uint96"
            },
            {
              "internalType": "uint96",
              "name": "yieldReceived",
              "type": "uint96"
            },
            {
              "internalType": "uint48",
              "name": "timestamp",
              "type": "uint48"
            },
            {
              "internalType": "uint48",
              "name": "withdrawnAt",
              "type": "uint48"
            },
            {
              "internalType": "enum PoolPandorasSepolia.TokenType",
              "name": "token",
              "type": "uint8"
            },
            {
              "internalType": "uint8",
              "name": "flags",
              "type": "uint8"
            }
          ],
          "internalType": "struct PoolPandorasSepolia.DepositInfo[]",
          "name": "",
          "type": "tuple[]"
        }
      ],
      "stateMutability": "view",
      "type": "function"
    },
    {
      "inputs": [
        {
          "internalType": "address",
          "name": "user",
          "type": "address"
        }
      ],
      "name": "getUserStats",
      "outputs": [
        {
          "internalType": "uint256",
          "name": "depositedETH",
          "type": "uint256"
        },
        {
          "internalType": "uint256",
          "name": "depositedUSDC",
          "type": "uint256"
        },
        {
          "internalType": "uint256",
          "name": "withdrawnETH",
          "type": "uint256"
        },
        {
          "internalType": "uint256",
          "name": "withdrawnUSDC",
          "type": "uint256"
        },
        {
          "internalType": "uint256",
          "name": "claimableUtilityETH",
          "type": "uint256"
        },
        {
          "internalType": "uint256",
          "name": "claimableUtilityUSDC",
          "type": "uint256"
        },
        {
          "internalType": "uint256",
          "name": "reinvestedETH",
          "type": "uint256"
        },
        {
          "internalType": "uint256",
          "name": "reinvestedUSDC",
          "type": "uint256"
        }
      ],
      "stateMutability": "view",
      "type": "function"
    },
    {
      "inputs": [],
      "name": "getVaultStats",
      "outputs": [
        {
          "internalType": "uint256",
          "name": "ethInVault",
          "type": "uint256"
        },
        {
          "internalType": "uint256",
          "name": "usdcInVault",
          "type": "uint256"
        },
        {
          "internalType": "uint256",
          "name": "totalDepositedETH_",
          "type": "uint256"
        },
        {
          "internalType": "uint256",
          "name": "totalDepositedUSDC_",
          "type": "uint256"
        },
        {
          "internalType": "uint256",
          "name": "totalWithdrawnETH_",
          "type": "uint256"
        },
        {
          "internalType": "uint256",
          "name": "totalWithdrawnUSDC_",
          "type": "uint256"
        },
        {
          "internalType": "uint256",
          "name": "totalUtilityETH_",
          "type": "uint256"
        },
        {
          "internalType": "uint256",
          "name": "totalUtilityUSDC_",
          "type": "uint256"
        },
        {
          "internalType": "uint256",
          "name": "totalReinvestedETH_",
          "type": "uint256"
        },
        {
          "internalType": "uint256",
          "name": "totalReinvestedUSDC_",
          "type": "uint256"
        },
        {
          "internalType": "uint256",
          "name": "totalInvestedETH_",
          "type": "uint256"
        },
        {
          "internalType": "uint256",
          "name": "totalInvestedUSDC_",
          "type": "uint256"
        },
        {
          "internalType": "uint256",
          "name": "numDepositors",
          "type": "uint256"
        },
        {
          "internalType": "uint256",
          "name": "numWithdrawnUsers",
          "type": "uint256"
        }
      ],
      "stateMutability": "view",
      "type": "function"
    },
    {
      "inputs": [],
      "name": "globalLiquidationEnabled",
      "outputs": [
        {
          "internalType": "bool",
          "name": "",
          "type": "bool"
        }
      ],
      "stateMutability": "view",
      "type": "function"
    },
    {
      "inputs": [],
      "name": "globalLiquidationTimestamp",
      "outputs": [
        {
          "internalType": "uint48",
          "name": "",
          "type": "uint48"
        }
      ],
      "stateMutability": "view",
      "type": "function"
    },
    {
      "inputs": [
        {
          "internalType": "bytes32",
          "name": "role",
          "type": "bytes32"
        },
        {
          "internalType": "address",
          "name": "account",
          "type": "address"
        }
      ],
      "name": "grantRole",
      "outputs": [],
      "stateMutability": "nonpayable",
      "type": "function"
    },
    {
      "inputs": [
        {
          "internalType": "bytes32",
          "name": "role",
          "type": "bytes32"
        },
        {
          "internalType": "address",
          "name": "account",
          "type": "address"
        }
      ],
      "name": "hasRole",
      "outputs": [
        {
          "internalType": "bool",
          "name": "",
          "type": "bool"
        }
      ],
      "stateMutability": "view",
      "type": "function"
    },
    {
      "inputs": [
        {
          "internalType": "address",
          "name": "",
          "type": "address"
        }
      ],
      "name": "hasWithdrawn",
      "outputs": [
        {
          "internalType": "bool",
          "name": "",
          "type": "bool"
        }
      ],
      "stateMutability": "view",
      "type": "function"
    },
    {
      "inputs": [],
      "name": "injectUtilityETH",
      "outputs": [],
      "stateMutability": "payable",
      "type": "function"
    },
    {
      "inputs": [
        {
          "internalType": "uint256",
          "name": "amount",
          "type": "uint256"
        }
      ],
      "name": "injectUtilityUSDC",
      "outputs": [],
      "stateMutability": "nonpayable",
      "type": "function"
    },
    {
      "inputs": [
        {
          "internalType": "address",
          "name": "",
          "type": "address"
        }
      ],
      "name": "isKnownDepositor",
      "outputs": [
        {
          "internalType": "bool",
          "name": "",
          "type": "bool"
        }
      ],
      "stateMutability": "view",
      "type": "function"
    },
    {
      "inputs": [
        {
          "internalType": "address",
          "name": "forwarder",
          "type": "address"
        }
      ],
      "name": "isTrustedForwarder",
      "outputs": [
        {
          "internalType": "bool",
          "name": "",
          "type": "bool"
        }
      ],
      "stateMutability": "view",
      "type": "function"
    },
    {
      "inputs": [
        {
          "internalType": "address",
          "name": "",
          "type": "address"
        }
      ],
      "name": "isWhitelisted",
      "outputs": [
        {
          "internalType": "bool",
          "name": "",
          "type": "bool"
        }
      ],
      "stateMutability": "view",
      "type": "function"
    },
    {
      "inputs": [],
      "name": "lockupPeriod",
      "outputs": [
        {
          "internalType": "uint256",
          "name": "",
          "type": "uint256"
        }
      ],
      "stateMutability": "view",
      "type": "function"
    },
    {
      "inputs": [],
      "name": "maxCapETH",
      "outputs": [
        {
          "internalType": "uint256",
          "name": "",
          "type": "uint256"
        }
      ],
      "stateMutability": "view",
      "type": "function"
    },
    {
      "inputs": [],
      "name": "maxCapUSDC",
      "outputs": [
        {
          "internalType": "uint256",
          "name": "",
          "type": "uint256"
        }
      ],
      "stateMutability": "view",
      "type": "function"
    },
    {
      "inputs": [],
      "name": "pausedDeposits",
      "outputs": [
        {
          "internalType": "bool",
          "name": "",
          "type": "bool"
        }
      ],
      "stateMutability": "view",
      "type": "function"
    },
    {
      "inputs": [],
      "name": "pausedWithdrawals",
      "outputs": [
        {
          "internalType": "bool",
          "name": "",
          "type": "bool"
        }
      ],
      "stateMutability": "view",
      "type": "function"
    },
    {
      "inputs": [],
      "name": "reinvestUtilityETH",
      "outputs": [],
      "stateMutability": "nonpayable",
      "type": "function"
    },
    {
      "inputs": [],
      "name": "reinvestUtilityUSDC",
      "outputs": [],
      "stateMutability": "nonpayable",
      "type": "function"
    },
    {
      "inputs": [
        {
          "internalType": "bytes32",
          "name": "role",
          "type": "bytes32"
        },
        {
          "internalType": "address",
          "name": "callerConfirmation",
          "type": "address"
        }
      ],
      "name": "renounceRole",
      "outputs": [],
      "stateMutability": "nonpayable",
      "type": "function"
    },
    {
      "inputs": [
        {
          "internalType": "address",
          "name": "token",
          "type": "address"
        },
        {
          "internalType": "address",
          "name": "to",
          "type": "address"
        },
        {
          "internalType": "uint256",
          "name": "amount",
          "type": "uint256"
        }
      ],
      "name": "rescueERC20",
      "outputs": [],
      "stateMutability": "nonpayable",
      "type": "function"
    },
    {
      "inputs": [],
      "name": "returnInvestmentETH",
      "outputs": [],
      "stateMutability": "payable",
      "type": "function"
    },
    {
      "inputs": [
        {
          "internalType": "uint256",
          "name": "amount",
          "type": "uint256"
        }
      ],
      "name": "returnInvestmentUSDC",
      "outputs": [],
      "stateMutability": "nonpayable",
      "type": "function"
    },
    {
      "inputs": [
        {
          "internalType": "bytes32",
          "name": "role",
          "type": "bytes32"
        },
        {
          "internalType": "address",
          "name": "account",
          "type": "address"
        }
      ],
      "name": "revokeRole",
      "outputs": [],
      "stateMutability": "nonpayable",
      "type": "function"
    },
    {
      "inputs": [
        {
          "internalType": "address",
          "name": "user",
          "type": "address"
        },
        {
          "internalType": "uint256[]",
          "name": "depositIndices",
          "type": "uint256[]"
        }
      ],
      "name": "setDepositsAsRedeemable",
      "outputs": [],
      "stateMutability": "nonpayable",
      "type": "function"
    },
    {
      "inputs": [
        {
          "internalType": "uint256",
          "name": "newPeriod",
          "type": "uint256"
        }
      ],
      "name": "setLockupPeriod",
      "outputs": [],
      "stateMutability": "nonpayable",
      "type": "function"
    },
    {
      "inputs": [
        {
          "internalType": "enum PoolPandorasSepolia.TokenType",
          "name": "token",
          "type": "uint8"
        },
        {
          "internalType": "uint256",
          "name": "newCap",
          "type": "uint256"
        }
      ],
      "name": "setMaxCap",
      "outputs": [],
      "stateMutability": "nonpayable",
      "type": "function"
    },
    {
      "inputs": [
        {
          "internalType": "bool",
          "name": "_deposits",
          "type": "bool"
        },
        {
          "internalType": "bool",
          "name": "_withdrawals",
          "type": "bool"
        }
      ],
      "name": "setPaused",
      "outputs": [],
      "stateMutability": "nonpayable",
      "type": "function"
    },
    {
      "inputs": [
        {
          "internalType": "address",
          "name": "newUtilityAddress",
          "type": "address"
        }
      ],
      "name": "setUtilityAddress",
      "outputs": [],
      "stateMutability": "nonpayable",
      "type": "function"
    },
    {
      "inputs": [
        {
          "internalType": "address",
          "name": "user",
          "type": "address"
        },
        {
          "internalType": "bool",
          "name": "status",
          "type": "bool"
        }
      ],
      "name": "setWhitelist",
      "outputs": [],
      "stateMutability": "nonpayable",
      "type": "function"
    },
    {
      "inputs": [
        {
          "internalType": "address[]",
          "name": "users",
          "type": "address[]"
        },
        {
          "internalType": "bool[]",
          "name": "statuses",
          "type": "bool[]"
        }
      ],
      "name": "setWhitelistBatch",
      "outputs": [],
      "stateMutability": "nonpayable",
      "type": "function"
    },
    {
      "inputs": [
        {
          "internalType": "bool",
          "name": "enabled",
          "type": "bool"
        }
      ],
      "name": "setWhitelistEnabled",
      "outputs": [],
      "stateMutability": "nonpayable",
      "type": "function"
    },
    {
      "inputs": [
        {
          "internalType": "bytes4",
          "name": "interfaceId",
          "type": "bytes4"
        }
      ],
      "name": "supportsInterface",
      "outputs": [
        {
          "internalType": "bool",
          "name": "",
          "type": "bool"
        }
      ],
      "stateMutability": "view",
      "type": "function"
    },
    {
      "inputs": [],
      "name": "totalDepositedETH",
      "outputs": [
        {
          "internalType": "uint256",
          "name": "",
          "type": "uint256"
        }
      ],
      "stateMutability": "view",
      "type": "function"
    },
    {
      "inputs": [],
      "name": "totalDepositedUSDC",
      "outputs": [
        {
          "internalType": "uint256",
          "name": "",
          "type": "uint256"
        }
      ],
      "stateMutability": "view",
      "type": "function"
    },
    {
      "inputs": [],
      "name": "totalInvestedETH",
      "outputs": [
        {
          "internalType": "uint256",
          "name": "",
          "type": "uint256"
        }
      ],
      "stateMutability": "view",
      "type": "function"
    },
    {
      "inputs": [],
      "name": "totalInvestedUSDC",
      "outputs": [
        {
          "internalType": "uint256",
          "name": "",
          "type": "uint256"
        }
      ],
      "stateMutability": "view",
      "type": "function"
    },
    {
      "inputs": [],
      "name": "totalReinvestedETH",
      "outputs": [
        {
          "internalType": "uint256",
          "name": "",
          "type": "uint256"
        }
      ],
      "stateMutability": "view",
      "type": "function"
    },
    {
      "inputs": [],
      "name": "totalReinvestedUSDC",
      "outputs": [
        {
          "internalType": "uint256",
          "name": "",
          "type": "uint256"
        }
      ],
      "stateMutability": "view",
      "type": "function"
    },
    {
      "inputs": [],
      "name": "totalUtilityETH",
      "outputs": [
        {
          "internalType": "uint256",
          "name": "",
          "type": "uint256"
        }
      ],
      "stateMutability": "view",
      "type": "function"
    },
    {
      "inputs": [],
      "name": "totalUtilityUSDC",
      "outputs": [
        {
          "internalType": "uint256",
          "name": "",
          "type": "uint256"
        }
      ],
      "stateMutability": "view",
      "type": "function"
    },
    {
      "inputs": [],
      "name": "totalWithdrawnETH",
      "outputs": [
        {
          "internalType": "uint256",
          "name": "",
          "type": "uint256"
        }
      ],
      "stateMutability": "view",
      "type": "function"
    },
    {
      "inputs": [],
      "name": "totalWithdrawnUSDC",
      "outputs": [
        {
          "internalType": "uint256",
          "name": "",
          "type": "uint256"
        }
      ],
      "stateMutability": "view",
      "type": "function"
    },
    {
      "inputs": [],
      "name": "trustedForwarder",
      "outputs": [
        {
          "internalType": "address",
          "name": "",
          "type": "address"
        }
      ],
      "stateMutability": "view",
      "type": "function"
    },
    {
      "inputs": [
        {
          "internalType": "address",
          "name": "user",
          "type": "address"
        },
        {
          "internalType": "uint256[]",
          "name": "depositIndices",
          "type": "uint256[]"
        }
      ],
      "name": "unlockDepositsForUser",
      "outputs": [],
      "stateMutability": "nonpayable",
      "type": "function"
    },
    {
      "inputs": [],
      "name": "usdc",
      "outputs": [
        {
          "internalType": "contract IERC20",
          "name": "",
          "type": "address"
        }
      ],
      "stateMutability": "view",
      "type": "function"
    },
    {
      "inputs": [
        {
          "internalType": "address",
          "name": "",
          "type": "address"
        }
      ],
      "name": "userClaimableUtilityETH",
      "outputs": [
        {
          "internalType": "uint256",
          "name": "",
          "type": "uint256"
        }
      ],
      "stateMutability": "view",
      "type": "function"
    },
    {
      "inputs": [
        {
          "internalType": "address",
          "name": "",
          "type": "address"
        }
      ],
      "name": "userClaimableUtilityUSDC",
      "outputs": [
        {
          "internalType": "uint256",
          "name": "",
          "type": "uint256"
        }
      ],
      "stateMutability": "view",
      "type": "function"
    },
    {
      "inputs": [
        {
          "internalType": "address",
          "name": "",
          "type": "address"
        },
        {
          "internalType": "uint256",
          "name": "",
          "type": "uint256"
        }
      ],
      "name": "userDeposits",
      "outputs": [
        {
          "internalType": "uint96",
          "name": "amount",
          "type": "uint96"
        },
        {
          "internalType": "uint96",
          "name": "yieldReceived",
          "type": "uint96"
        },
        {
          "internalType": "uint48",
          "name": "timestamp",
          "type": "uint48"
        },
        {
          "internalType": "uint48",
          "name": "withdrawnAt",
          "type": "uint48"
        },
        {
          "internalType": "enum PoolPandorasSepolia.TokenType",
          "name": "token",
          "type": "uint8"
        },
        {
          "internalType": "uint8",
          "name": "flags",
          "type": "uint8"
        }
      ],
      "stateMutability": "view",
      "type": "function"
    },
    {
      "inputs": [
        {
          "internalType": "address",
          "name": "",
          "type": "address"
        }
      ],
      "name": "userTotalReinvestedETH",
      "outputs": [
        {
          "internalType": "uint256",
          "name": "",
          "type": "uint256"
        }
      ],
      "stateMutability": "view",
      "type": "function"
    },
    {
      "inputs": [
        {
          "internalType": "address",
          "name": "",
          "type": "address"
        }
      ],
      "name": "userTotalReinvestedUSDC",
      "outputs": [
        {
          "internalType": "uint256",
          "name": "",
          "type": "uint256"
        }
      ],
      "stateMutability": "view",
      "type": "function"
    },
    {
      "inputs": [],
      "name": "utilityAddress",
      "outputs": [
        {
          "internalType": "address",
          "name": "",
          "type": "address"
        }
      ],
      "stateMutability": "view",
      "type": "function"
    },
    {
      "inputs": [],
      "name": "whitelistEnabled",
      "outputs": [
        {
          "internalType": "bool",
          "name": "",
          "type": "bool"
        }
      ],
      "stateMutability": "view",
      "type": "function"
    },
    {
      "inputs": [
        {
          "internalType": "uint256",
          "name": "depositIndex",
          "type": "uint256"
        }
      ],
      "name": "withdraw",
      "outputs": [],
      "stateMutability": "nonpayable",
      "type": "function"
    },
    {
      "inputs": [
        {
          "internalType": "address",
          "name": "to",
          "type": "address"
        },
        {
          "internalType": "uint256",
          "name": "amount",
          "type": "uint256"
        }
      ],
      "name": "withdrawForInvestmentETH",
      "outputs": [],
      "stateMutability": "nonpayable",
      "type": "function"
    },
    {
      "inputs": [
        {
          "internalType": "address",
          "name": "to",
          "type": "address"
        },
        {
          "internalType": "uint256",
          "name": "amount",
          "type": "uint256"
        }
      ],
      "name": "withdrawForInvestmentUSDC",
      "outputs": [],
      "stateMutability": "nonpayable",
      "type": "function"
    },
    {
      "inputs": [
        {
          "internalType": "uint256",
          "name": "amount",
          "type": "uint256"
        }
      ],
      "name": "withdrawUtilityETH",
      "outputs": [],
      "stateMutability": "nonpayable",
      "type": "function"
    },
    {
      "inputs": [
        {
          "internalType": "uint256",
          "name": "amount",
          "type": "uint256"
        }
      ],
      "name": "withdrawUtilityUSDC",
      "outputs": [],
      "stateMutability": "nonpayable",
      "type": "function"
    },
    {
      "inputs": [
        {
          "internalType": "uint256",
          "name": "",
          "type": "uint256"
        }
      ],
      "name": "withdrawnUsers",
      "outputs": [
        {
          "internalType": "address",
          "name": "",
          "type": "address"
        }
      ],
      "stateMutability": "view",
      "type": "function"
    },
    {
      "stateMutability": "payable",
      "type": "receive"
    }
  ],
  "devdoc": {
    "errors": {
      "AccessControlBadConfirmation()": [
        {
          "details": "The caller of a function is not the expected one. NOTE: Don't confuse with {AccessControlUnauthorizedAccount}."
        }
      ],
      "AccessControlUnauthorizedAccount(address,bytes32)": [
        {
          "details": "The `account` is missing a role."
        }
      ],
      "ReentrancyGuardReentrantCall()": [
        {
          "details": "Unauthorized reentrant call."
        }
      ]
    },
    "events": {
      "RoleAdminChanged(bytes32,bytes32,bytes32)": {
        "details": "Emitted when `newAdminRole` is set as ``role``'s admin role, replacing `previousAdminRole` `DEFAULT_ADMIN_ROLE` is the starting admin for all roles, despite {RoleAdminChanged} not being emitted to signal this."
      },
      "RoleGranted(bytes32,address,address)": {
        "details": "Emitted when `account` is granted `role`. `sender` is the account that originated the contract call. This account bears the admin role (for the granted role). Expected in cases where the role was granted using the internal {AccessControl-_grantRole}."
      },
      "RoleRevoked(bytes32,address,address)": {
        "details": "Emitted when `account` is revoked `role`. `sender` is the account that originated the contract call:   - if using `revokeRole`, it is the admin role bearer   - if using `renounceRole`, it is the role bearer (i.e. `account`)"
      }
    },
    "kind": "dev",
    "methods": {
      "getRoleAdmin(bytes32)": {
        "details": "Returns the admin role that controls `role`. See {grantRole} and {revokeRole}. To change a role's admin, use {_setRoleAdmin}."
      },
      "grantRole(bytes32,address)": {
        "details": "Grants `role` to `account`. If `account` had not been already granted `role`, emits a {RoleGranted} event. Requirements: - the caller must have ``role``'s admin role. May emit a {RoleGranted} event."
      },
      "hasRole(bytes32,address)": {
        "details": "Returns `true` if `account` has been granted `role`."
      },
      "isTrustedForwarder(address)": {
        "details": "Indicates whether any particular address is the trusted forwarder."
      },
      "renounceRole(bytes32,address)": {
        "details": "Revokes `role` from the calling account. Roles are often managed via {grantRole} and {revokeRole}: this function's purpose is to provide a mechanism for accounts to lose their privileges if they are compromised (such as when a trusted device is misplaced). If the calling account had been revoked `role`, emits a {RoleRevoked} event. Requirements: - the caller must be `callerConfirmation`. May emit a {RoleRevoked} event."
      },
      "revokeRole(bytes32,address)": {
        "details": "Revokes `role` from `account`. If `account` had been granted `role`, emits a {RoleRevoked} event. Requirements: - the caller must have ``role``'s admin role. May emit a {RoleRevoked} event."
      },
      "supportsInterface(bytes4)": {
        "details": "Returns true if this contract implements the interface defined by `interfaceId`. See the corresponding https://eips.ethereum.org/EIPS/eip-165#how-interfaces-are-identified[ERC section] to learn more about how these ids are created. This function call must use less than 30 000 gas."
      },
      "trustedForwarder()": {
        "details": "Returns the address of the trusted forwarder."
      }
    },
    "title": "PoolPandorasSepolia",
    "version": 1
  },
  "evm": {
    "assembly": "    /* \"PoolPandorasSepolia.sol\":451:23985  contract PoolPandorasSepolia is AccessControl, ReentrancyGuard, ERC2771Context {... */\n  mstore(0x40, 0xc0)\n    /* \"PoolPandorasSepolia.sol\":1307:1315  180 days */\n  0xed4e00\n    /* \"PoolPandorasSepolia.sol\":1277:1315  uint256 public lockupPeriod = 180 days */\n  0x02\n  sstore\n    /* \"PoolPandorasSepolia.sol\":1350:1365  5_000_000 ether */\n  0x0422ca8b0a00a425000000\n    /* \"PoolPandorasSepolia.sol\":1321:1365  uint256 public maxCapETH   = 5_000_000 ether */\n  0x03\n  sstore\n    /* \"PoolPandorasSepolia.sol\":1400:1415  5_000_000 * 1e6 */\n  0x048c27395000\n    /* \"PoolPandorasSepolia.sol\":1371:1415  uint256 public maxCapUSDC  = 5_000_000 * 1e6 */\n  0x04\n  sstore\n    /* \"PoolPandorasSepolia.sol\":5226:6134  constructor(... */\n  callvalue\n  dup1\n  iszero\n  tag_1\n  jumpi\n  0x00\n  dup1\n  revert\ntag_1:\n  pop\n  mload(0x40)\n  sub(codesize, bytecodeSize)\n  dup1\n  bytecodeSize\n  dup4\n  codecopy\n  dup2\n  add\n  0x40\n  dup2\n  swap1\n  mstore\n  tag_2\n  swap2\n  tag_3\n  jump\t// in\ntag_2:\n    /* \"@openzeppelin/contracts/utils/ReentrancyGuard.sol\":1857:1858   */\n  0x01\n    /* \"@openzeppelin/contracts/utils/ReentrancyGuard.sol\":2061:2082   */\n  dup1\n  sstore\n  sub(shl(0xa0, 0x01), 0x01)\n    /* \"@openzeppelin/contracts/metatx/ERC2771Context.sol\":1500:1537   */\n  dup1\n  dup4\n  and\n  0x80\n  mstore\n    /* \"PoolPandorasSepolia.sol\":5467:5496  _utilityAddress == address(0) */\n  dup4\n  and\n    /* \"PoolPandorasSepolia.sol\":5463:5518  if (_utilityAddress == address(0)) revert ZeroAddress() */\n  tag_10\n  jumpi\n    /* \"PoolPandorasSepolia.sol\":5505:5518  ZeroAddress() */\n  mload(0x40)\n  shl(0xe0, 0xd92e233d)\n  dup2\n  mstore\n  0x04\n  add\n  mload(0x40)\n  dup1\n  swap2\n  sub\n  swap1\n  revert\n    /* \"PoolPandorasSepolia.sol\":5463:5518  if (_utilityAddress == address(0)) revert ZeroAddress() */\ntag_10:\n    /* \"PoolPandorasSepolia.sol\":5528:5542  utilityAddress */\n  0x05\n    /* \"PoolPandorasSepolia.sol\":5528:5560  utilityAddress = _utilityAddress */\n  dup1\n  sload\n  sub(shl(0xa0, 0x01), 0x01)\n  dup1\n  dup7\n  and\n  0x0100000000000000000000\n  mul\n  not(sub(shl(0xf0, 0x01), shl(0x50, 0x01)))\n  swap1\n  swap3\n  and\n  swap2\n  swap1\n  swap2\n  or\n  swap1\n  swap2\n  sstore\n    /* \"PoolPandorasSepolia.sol\":5570:5597  usdc = IERC20(_usdcAddress) */\n  dup2\n  and\n  0xa0\n  mstore\n  0x00\n    /* \"PoolPandorasSepolia.sol\":5628:6128  for (uint256 i = 0; i < initialAdmins.length; i++) {... */\ntag_11:\n    /* \"PoolPandorasSepolia.sol\":5652:5665  initialAdmins */\n  dup5\n    /* \"PoolPandorasSepolia.sol\":5652:5672  initialAdmins.length */\n  mload\n    /* \"PoolPandorasSepolia.sol\":5648:5649  i */\n  dup2\n    /* \"PoolPandorasSepolia.sol\":5648:5672  i < initialAdmins.length */\n  lt\n    /* \"PoolPandorasSepolia.sol\":5628:6128  for (uint256 i = 0; i < initialAdmins.length; i++) {... */\n  iszero\n  tag_12\n  jumpi\n    /* \"PoolPandorasSepolia.sol\":5693:5706  address admin */\n  0x00\n    /* \"PoolPandorasSepolia.sol\":5709:5722  initialAdmins */\n  dup6\n    /* \"PoolPandorasSepolia.sol\":5723:5724  i */\n  dup3\n    /* \"PoolPandorasSepolia.sol\":5709:5725  initialAdmins[i] */\n  dup2\n  mload\n  dup2\n  lt\n  tag_15\n  jumpi\n  tag_15\n  tag_16\n  jump\t// in\ntag_15:\n  0x20\n  mul\n  0x20\n  add\n  add\n  mload\n    /* \"PoolPandorasSepolia.sol\":5693:5725  address admin = initialAdmins[i] */\n  swap1\n  pop\n    /* \"PoolPandorasSepolia.sol\":5739:5781  _grantRole(DEFAULT_ADMIN_ROLE,      admin) */\n  tag_17\n    /* \"@openzeppelin/contracts/access/AccessControl.sol\":2241:2245   */\n  0x00\n    /* \"PoolPandorasSepolia.sol\":5750:5768  DEFAULT_ADMIN_ROLE */\n  dup1\n  shl\n    /* \"PoolPandorasSepolia.sol\":5775:5780  admin */\n  dup3\n    /* \"PoolPandorasSepolia.sol\":5739:5749  _grantRole */\n  shl(0x20, tag_18)\n    /* \"PoolPandorasSepolia.sol\":5739:5781  _grantRole(DEFAULT_ADMIN_ROLE,      admin) */\n  0x20\n  shr\n  jump\t// in\ntag_17:\n  pop\n    /* \"PoolPandorasSepolia.sol\":5795:5837  _grantRole(ADMIN_ROLE,              admin) */\n  tag_19\n    /* \"PoolPandorasSepolia.sol\":1767:1790  keccak256(\"ADMIN_ROLE\") */\n  0xa49807205ce4d355092ef5a8a18f56e8913cf4a201fbe287825b095693c21775\n    /* \"PoolPandorasSepolia.sol\":5831:5836  admin */\n  dup3\n    /* \"PoolPandorasSepolia.sol\":5795:5805  _grantRole */\n  tag_18\n    /* \"PoolPandorasSepolia.sol\":5795:5837  _grantRole(ADMIN_ROLE,              admin) */\n  jump\t// in\ntag_19:\n  pop\n    /* \"PoolPandorasSepolia.sol\":5851:5893  _grantRole(PAUSER_ROLE,             admin) */\n  tag_20\n    /* \"PoolPandorasSepolia.sol\":1845:1869  keccak256(\"PAUSER_ROLE\") */\n  0x65d7a28e3265b37a6474929f336521b332c1681b933f6cb9f3376673440d862a\n    /* \"PoolPandorasSepolia.sol\":5887:5892  admin */\n  dup3\n    /* \"PoolPandorasSepolia.sol\":5851:5861  _grantRole */\n  tag_18\n    /* \"PoolPandorasSepolia.sol\":5851:5893  _grantRole(PAUSER_ROLE,             admin) */\n  jump\t// in\ntag_20:\n  pop\n    /* \"PoolPandorasSepolia.sol\":5907:5949  _grantRole(UNLOCKER_ROLE,           admin) */\n  tag_21\n    /* \"PoolPandorasSepolia.sol\":1924:1950  keccak256(\"UNLOCKER_ROLE\") */\n  0xc806897caf4fd5068191157e44d3988e43139a37e0b97b6793e1ed1184140604\n    /* \"PoolPandorasSepolia.sol\":5943:5948  admin */\n  dup3\n    /* \"PoolPandorasSepolia.sol\":5907:5917  _grantRole */\n  tag_18\n    /* \"PoolPandorasSepolia.sol\":5907:5949  _grantRole(UNLOCKER_ROLE,           admin) */\n  jump\t// in\ntag_21:\n  pop\n    /* \"PoolPandorasSepolia.sol\":5963:6005  _grantRole(UTILITY_INJECTOR_ROLE,   admin) */\n  tag_22\n    /* \"PoolPandorasSepolia.sol\":2005:2039  keccak256(\"UTILITY_INJECTOR_ROLE\") */\n  0xf60566c40710959d8d30b6067ce3c53c757bec78eecb0e46b83c7f8194ffae37\n    /* \"PoolPandorasSepolia.sol\":5999:6004  admin */\n  dup3\n    /* \"PoolPandorasSepolia.sol\":5963:5973  _grantRole */\n  tag_18\n    /* \"PoolPandorasSepolia.sol\":5963:6005  _grantRole(UTILITY_INJECTOR_ROLE,   admin) */\n  jump\t// in\ntag_22:\n  pop\n    /* \"PoolPandorasSepolia.sol\":6019:6061  _grantRole(UTILITY_WITHDRAWER_ROLE, admin) */\n  tag_23\n    /* \"PoolPandorasSepolia.sol\":2094:2130  keccak256(\"UTILITY_WITHDRAWER_ROLE\") */\n  0x78c90eb9e475048b483a290aee04b5fe48355537c3623c7637b17d3bed71c6ed\n    /* \"PoolPandorasSepolia.sol\":6055:6060  admin */\n  dup3\n    /* \"PoolPandorasSepolia.sol\":6019:6029  _grantRole */\n  tag_18\n    /* \"PoolPandorasSepolia.sol\":6019:6061  _grantRole(UTILITY_WITHDRAWER_ROLE, admin) */\n  jump\t// in\ntag_23:\n  pop\n    /* \"PoolPandorasSepolia.sol\":6075:6117  _grantRole(MANAGER_ROLE,            admin) */\n  tag_24\n    /* \"PoolPandorasSepolia.sol\":2185:2210  keccak256(\"MANAGER_ROLE\") */\n  0x241ecf16d79d0f8dbfb92cbc07fe17840425976cf0667f022fe9877caa831b08\n    /* \"PoolPandorasSepolia.sol\":6111:6116  admin */\n  dup3\n    /* \"PoolPandorasSepolia.sol\":6075:6085  _grantRole */\n  tag_18\n    /* \"PoolPandorasSepolia.sol\":6075:6117  _grantRole(MANAGER_ROLE,            admin) */\n  jump\t// in\ntag_24:\n  pop\n  pop\n    /* \"PoolPandorasSepolia.sol\":5674:5677  i++ */\n  0x01\n  add\n    /* \"PoolPandorasSepolia.sol\":5628:6128  for (uint256 i = 0; i < initialAdmins.length; i++) {... */\n  jump(tag_11)\ntag_12:\n  pop\n    /* \"PoolPandorasSepolia.sol\":5226:6134  constructor(... */\n  pop\n  pop\n  pop\n  pop\n    /* \"PoolPandorasSepolia.sol\":451:23985  contract PoolPandorasSepolia is AccessControl, ReentrancyGuard, ERC2771Context {... */\n  jump(tag_62)\n    /* \"@openzeppelin/contracts/access/AccessControl.sol\":6155:6471   */\ntag_18:\n    /* \"@openzeppelin/contracts/access/AccessControl.sol\":6232:6236   */\n  0x00\n    /* \"@openzeppelin/contracts/access/AccessControl.sol\":2930:2942   */\n  dup3\n  dup2\n  mstore\n  0x20\n  dup2\n  dup2\n  mstore\n  0x40\n  dup1\n  dup4\n  keccak256\n  sub(shl(0xa0, 0x01), 0x01)\n    /* \"@openzeppelin/contracts/access/AccessControl.sol\":2930:2959   */\n  dup6\n  and\n  dup5\n  mstore\n  swap1\n  swap2\n  mstore\n  dup2\n  keccak256\n  sload\n  0xff\n  and\n    /* \"@openzeppelin/contracts/access/AccessControl.sol\":6248:6465   */\n  tag_29\n  jumpi\n    /* \"@openzeppelin/contracts/access/AccessControl.sol\":6291:6297   */\n  0x00\n    /* \"@openzeppelin/contracts/access/AccessControl.sol\":6291:6303   */\n  dup4\n  dup2\n  mstore\n  0x20\n  dup2\n  dup2\n  mstore\n  0x40\n  dup1\n  dup4\n  keccak256\n  sub(shl(0xa0, 0x01), 0x01)\n    /* \"@openzeppelin/contracts/access/AccessControl.sol\":6291:6320   */\n  dup7\n  and\n  dup5\n  mstore\n  swap1\n  swap2\n  mstore\n  swap1\n  keccak256\n    /* \"@openzeppelin/contracts/access/AccessControl.sol\":6291:6327   */\n  dup1\n  sload\n  not(0xff)\n  and\n    /* \"@openzeppelin/contracts/access/AccessControl.sol\":6323:6327   */\n  0x01\n    /* \"@openzeppelin/contracts/access/AccessControl.sol\":6291:6327   */\n  or\n  swap1\n  sstore\n    /* \"@openzeppelin/contracts/access/AccessControl.sol\":6373:6385   */\n  tag_30\n    /* \"@openzeppelin/contracts/access/AccessControl.sol\":6373:6383   */\n  tag_31\n    /* \"@openzeppelin/contracts/access/AccessControl.sol\":6373:6385   */\n  jump\t// in\ntag_30:\n  sub(shl(0xa0, 0x01), 0x01)\n    /* \"@openzeppelin/contracts/access/AccessControl.sol\":6346:6386   */\n  and\n    /* \"@openzeppelin/contracts/access/AccessControl.sol\":6364:6371   */\n  dup3\n  sub(shl(0xa0, 0x01), 0x01)\n    /* \"@openzeppelin/contracts/access/AccessControl.sol\":6346:6386   */\n  and\n    /* \"@openzeppelin/contracts/access/AccessControl.sol\":6358:6362   */\n  dup5\n    /* \"@openzeppelin/contracts/access/AccessControl.sol\":6346:6386   */\n  0x2f8788117e7eff1d82e926ec794901d17c78024a50270940304540a733656f0d\n  mload(0x40)\n  mload(0x40)\n  dup1\n  swap2\n  sub\n  swap1\n  log4\n  pop\n    /* \"@openzeppelin/contracts/access/AccessControl.sol\":6407:6411   */\n  0x01\n    /* \"@openzeppelin/contracts/access/AccessControl.sol\":6400:6411   */\n  jump(tag_32)\n    /* \"@openzeppelin/contracts/access/AccessControl.sol\":6248:6465   */\ntag_29:\n  pop\n    /* \"@openzeppelin/contracts/access/AccessControl.sol\":6449:6454   */\n  0x00\n    /* \"@openzeppelin/contracts/access/AccessControl.sol\":6248:6465   */\ntag_32:\n    /* \"@openzeppelin/contracts/access/AccessControl.sol\":6155:6471   */\n  swap3\n  swap2\n  pop\n  pop\n  jump\t// out\n    /* \"PoolPandorasSepolia.sol\":6185:6331  function _msgSender() internal view override(Context, ERC2771Context) returns (address sender) {... */\ntag_31:\n    /* \"PoolPandorasSepolia.sol\":6264:6278  address sender */\n  0x00\n    /* \"PoolPandorasSepolia.sol\":6297:6324  ERC2771Context._msgSender() */\n  tag_35\n    /* \"PoolPandorasSepolia.sol\":6297:6322  ERC2771Context._msgSender */\n  tag_36\n    /* \"PoolPandorasSepolia.sol\":6297:6324  ERC2771Context._msgSender() */\n  jump\t// in\ntag_35:\n    /* \"PoolPandorasSepolia.sol\":6290:6324  return ERC2771Context._msgSender() */\n  swap1\n  pop\n    /* \"PoolPandorasSepolia.sol\":6185:6331  function _msgSender() internal view override(Context, ERC2771Context) returns (address sender) {... */\n  swap1\n  jump\t// out\n    /* \"@openzeppelin/contracts/metatx/ERC2771Context.sol\":2206:2677   */\ntag_36:\n    /* \"@openzeppelin/contracts/metatx/ERC2771Context.sol\":2268:2275   */\n  0x00\n    /* \"@openzeppelin/contracts/metatx/ERC2771Context.sol\":2312:2320   */\n  calldatasize\n    /* \"@openzeppelin/contracts/metatx/ERC2771Context.sol\":3567:3569   */\n  0x14\n    /* \"@openzeppelin/contracts/metatx/ERC2771Context.sol\":2403:2440   */\n  dup1\n  dup3\n  lt\n  dup1\n  iszero\n  swap1\n    /* \"@openzeppelin/contracts/metatx/ERC2771Context.sol\":2403:2474   */\n  tag_41\n  jumpi\n  pop\n    /* \"@openzeppelin/contracts/metatx/ERC2771Context.sol\":2444:2474   */\n  tag_41\n    /* \"@openzeppelin/contracts/metatx/ERC2771Context.sol\":2463:2473   */\n  caller\n    /* \"@openzeppelin/contracts/metatx/ERC2771Context.sol\":2444:2462   */\n  tag_42\n    /* \"@openzeppelin/contracts/metatx/ERC2771Context.sol\":2444:2474   */\n  jump\t// in\ntag_41:\n    /* \"@openzeppelin/contracts/metatx/ERC2771Context.sol\":2399:2671   */\n  iszero\n  tag_43\n  jumpi\n    /* \"@openzeppelin/contracts/metatx/ERC2771Context.sol\":2541:2588   */\n  tag_44\n    /* \"@openzeppelin/contracts/metatx/ERC2771Context.sol\":2541:2549   */\n  calldatasize\n    /* \"@openzeppelin/contracts/metatx/ERC2771Context.sol\":2550:2586   */\n  dup3\n  dup5\n  sub\n    /* \"@openzeppelin/contracts/metatx/ERC2771Context.sol\":2541:2549   */\n  dup2\n  0x00\n    /* \"@openzeppelin/contracts/metatx/ERC2771Context.sol\":2541:2588   */\n  tag_45\n  jump\t// in\ntag_44:\n    /* \"@openzeppelin/contracts/metatx/ERC2771Context.sol\":2533:2589   */\n  tag_46\n  swap2\n  tag_47\n  jump\t// in\ntag_46:\n    /* \"@openzeppelin/contracts/metatx/ERC2771Context.sol\":2525:2590   */\n  0x60\n  shr\n    /* \"@openzeppelin/contracts/metatx/ERC2771Context.sol\":2518:2590   */\n  swap3\n  pop\n  pop\n  pop\n    /* \"@openzeppelin/contracts/metatx/ERC2771Context.sol\":2206:2677   */\n  swap1\n  jump\t// out\n    /* \"@openzeppelin/contracts/metatx/ERC2771Context.sol\":2399:2671   */\ntag_43:\n    /* \"@openzeppelin/contracts/utils/Context.sol\":735:745   */\n  caller\n    /* \"@openzeppelin/contracts/metatx/ERC2771Context.sol\":2635:2660   */\n  swap3\n  pop\n  pop\n  pop\n    /* \"@openzeppelin/contracts/metatx/ERC2771Context.sol\":2206:2677   */\n  swap1\n  jump\t// out\n    /* \"@openzeppelin/contracts/metatx/ERC2771Context.sol\":1832:1969   */\ntag_42:\n    /* \"@openzeppelin/contracts/metatx/ERC2771Context.sol\":1908:1912   */\n  0x00\n    /* \"@openzeppelin/contracts/metatx/ERC2771Context.sol\":1944:1962   */\n  tag_55\n    /* \"@openzeppelin/contracts/metatx/ERC2771Context.sol\":1707:1724   */\n  mload(0x80)\n  swap1\n    /* \"@openzeppelin/contracts/metatx/ERC2771Context.sol\":1624:1731   */\n  jump\n    /* \"@openzeppelin/contracts/metatx/ERC2771Context.sol\":1944:1962   */\ntag_55:\n  sub(shl(0xa0, 0x01), 0x01)\n    /* \"@openzeppelin/contracts/metatx/ERC2771Context.sol\":1931:1962   */\n  and\n    /* \"@openzeppelin/contracts/metatx/ERC2771Context.sol\":1931:1940   */\n  dup3\n  sub(shl(0xa0, 0x01), 0x01)\n    /* \"@openzeppelin/contracts/metatx/ERC2771Context.sol\":1931:1962   */\n  and\n  eq\n    /* \"@openzeppelin/contracts/metatx/ERC2771Context.sol\":1924:1962   */\n  swap1\n  pop\n    /* \"@openzeppelin/contracts/metatx/ERC2771Context.sol\":1832:1969   */\n  swap2\n  swap1\n  pop\n  jump\t// out\n    /* \"#utility.yul\":14:141   */\ntag_60:\n    /* \"#utility.yul\":75:85   */\n  0x4e487b71\n    /* \"#utility.yul\":70:73   */\n  0xe0\n    /* \"#utility.yul\":66:86   */\n  shl\n    /* \"#utility.yul\":63:64   */\n  0x00\n    /* \"#utility.yul\":56:87   */\n  mstore\n    /* \"#utility.yul\":106:110   */\n  0x41\n    /* \"#utility.yul\":103:104   */\n  0x04\n    /* \"#utility.yul\":96:111   */\n  mstore\n    /* \"#utility.yul\":130:134   */\n  0x24\n    /* \"#utility.yul\":127:128   */\n  0x00\n    /* \"#utility.yul\":120:135   */\n  revert\n    /* \"#utility.yul\":146:323   */\ntag_61:\n    /* \"#utility.yul\":225:238   */\n  dup1\n  mload\n  sub(shl(0xa0, 0x01), 0x01)\n    /* \"#utility.yul\":267:298   */\n  dup2\n  and\n    /* \"#utility.yul\":257:299   */\n  dup2\n  eq\n    /* \"#utility.yul\":247:317   */\n  tag_65\n  jumpi\n    /* \"#utility.yul\":313:314   */\n  0x00\n    /* \"#utility.yul\":310:311   */\n  dup1\n    /* \"#utility.yul\":303:315   */\n  revert\n    /* \"#utility.yul\":247:317   */\ntag_65:\n    /* \"#utility.yul\":146:323   */\n  swap2\n  swap1\n  pop\n  jump\t// out\n    /* \"#utility.yul\":328:1715   */\ntag_3:\n    /* \"#utility.yul\":450:456   */\n  0x00\n    /* \"#utility.yul\":458:464   */\n  dup1\n    /* \"#utility.yul\":466:472   */\n  0x00\n    /* \"#utility.yul\":474:480   */\n  dup1\n    /* \"#utility.yul\":527:530   */\n  0x80\n    /* \"#utility.yul\":515:524   */\n  dup6\n    /* \"#utility.yul\":506:513   */\n  dup8\n    /* \"#utility.yul\":502:525   */\n  sub\n    /* \"#utility.yul\":498:531   */\n  slt\n    /* \"#utility.yul\":495:548   */\n  iszero\n  tag_67\n  jumpi\n    /* \"#utility.yul\":544:545   */\n  0x00\n    /* \"#utility.yul\":541:542   */\n  dup1\n    /* \"#utility.yul\":534:546   */\n  revert\n    /* \"#utility.yul\":495:548   */\ntag_67:\n    /* \"#utility.yul\":571:587   */\n  dup5\n  mload\n  sub(shl(0x40, 0x01), 0x01)\n    /* \"#utility.yul\":636:650   */\n  dup1\n  dup3\n  gt\n    /* \"#utility.yul\":633:667   */\n  iszero\n  tag_68\n  jumpi\n    /* \"#utility.yul\":663:664   */\n  0x00\n    /* \"#utility.yul\":660:661   */\n  dup1\n    /* \"#utility.yul\":653:665   */\n  revert\n    /* \"#utility.yul\":633:667   */\ntag_68:\n    /* \"#utility.yul\":701:707   */\n  dup2\n    /* \"#utility.yul\":690:699   */\n  dup8\n    /* \"#utility.yul\":686:708   */\n  add\n    /* \"#utility.yul\":676:708   */\n  swap2\n  pop\n    /* \"#utility.yul\":746:753   */\n  dup8\n    /* \"#utility.yul\":739:743   */\n  0x1f\n    /* \"#utility.yul\":735:737   */\n  dup4\n    /* \"#utility.yul\":731:744   */\n  add\n    /* \"#utility.yul\":727:754   */\n  slt\n    /* \"#utility.yul\":717:772   */\n  tag_69\n  jumpi\n    /* \"#utility.yul\":768:769   */\n  0x00\n    /* \"#utility.yul\":765:766   */\n  dup1\n    /* \"#utility.yul\":758:770   */\n  revert\n    /* \"#utility.yul\":717:772   */\ntag_69:\n    /* \"#utility.yul\":797:799   */\n  dup2\n    /* \"#utility.yul\":791:800   */\n  mload\n    /* \"#utility.yul\":819:823   */\n  0x20\n    /* \"#utility.yul\":842:844   */\n  dup3\n    /* \"#utility.yul\":838:840   */\n  dup3\n    /* \"#utility.yul\":835:845   */\n  gt\n    /* \"#utility.yul\":832:868   */\n  iszero\n  tag_71\n  jumpi\n    /* \"#utility.yul\":848:866   */\n  tag_71\n  tag_60\n  jump\t// in\ntag_71:\n    /* \"#utility.yul\":894:896   */\n  dup2\n    /* \"#utility.yul\":891:892   */\n  0x05\n    /* \"#utility.yul\":887:897   */\n  shl\n    /* \"#utility.yul\":926:928   */\n  0x40\n    /* \"#utility.yul\":920:929   */\n  mload\n    /* \"#utility.yul\":989:991   */\n  0x1f\n    /* \"#utility.yul\":985:992   */\n  not\n    /* \"#utility.yul\":980:982   */\n  0x3f\n    /* \"#utility.yul\":976:978   */\n  dup4\n    /* \"#utility.yul\":972:983   */\n  add\n    /* \"#utility.yul\":968:993   */\n  and\n    /* \"#utility.yul\":960:966   */\n  dup2\n    /* \"#utility.yul\":956:994   */\n  add\n    /* \"#utility.yul\":1044:1050   */\n  dup2\n    /* \"#utility.yul\":1032:1042   */\n  dup2\n    /* \"#utility.yul\":1029:1051   */\n  lt\n    /* \"#utility.yul\":1024:1026   */\n  dup7\n    /* \"#utility.yul\":1012:1022   */\n  dup3\n    /* \"#utility.yul\":1009:1027   */\n  gt\n    /* \"#utility.yul\":1006:1052   */\n  or\n    /* \"#utility.yul\":1003:1075   */\n  iszero\n  tag_73\n  jumpi\n    /* \"#utility.yul\":1055:1073   */\n  tag_73\n  tag_60\n  jump\t// in\ntag_73:\n    /* \"#utility.yul\":1091:1093   */\n  0x40\n    /* \"#utility.yul\":1084:1106   */\n  mstore\n    /* \"#utility.yul\":1141:1159   */\n  swap3\n  dup4\n  mstore\n    /* \"#utility.yul\":1175:1190   */\n  dup2\n  dup4\n  add\n  swap4\n  pop\n    /* \"#utility.yul\":1217:1228   */\n  dup5\n  dup2\n  add\n    /* \"#utility.yul\":1213:1233   */\n  dup3\n  add\n  swap3\n    /* \"#utility.yul\":1245:1264   */\n  dup12\n  dup5\n  gt\n    /* \"#utility.yul\":1242:1281   */\n  iszero\n  tag_74\n  jumpi\n    /* \"#utility.yul\":1277:1278   */\n  0x00\n    /* \"#utility.yul\":1274:1275   */\n  dup1\n    /* \"#utility.yul\":1267:1279   */\n  revert\n    /* \"#utility.yul\":1242:1281   */\ntag_74:\n    /* \"#utility.yul\":1301:1312   */\n  swap5\n  dup3\n  add\n  swap5\n    /* \"#utility.yul\":1321:1480   */\ntag_75:\n    /* \"#utility.yul\":1337:1343   */\n  dup4\n    /* \"#utility.yul\":1332:1335   */\n  dup7\n    /* \"#utility.yul\":1329:1344   */\n  lt\n    /* \"#utility.yul\":1321:1480   */\n  iszero\n  tag_77\n  jumpi\n    /* \"#utility.yul\":1403:1437   */\n  tag_78\n    /* \"#utility.yul\":1433:1436   */\n  dup7\n    /* \"#utility.yul\":1403:1437   */\n  tag_61\n  jump\t// in\ntag_78:\n    /* \"#utility.yul\":1391:1438   */\n  dup6\n  mstore\n    /* \"#utility.yul\":1354:1366   */\n  swap5\n  dup3\n  add\n  swap5\n    /* \"#utility.yul\":1458:1470   */\n  swap4\n  dup3\n  add\n  swap4\n    /* \"#utility.yul\":1321:1480   */\n  jump(tag_75)\ntag_77:\n    /* \"#utility.yul\":1499:1505   */\n  swap9\n  pop\n    /* \"#utility.yul\":1524:1573   */\n  tag_79\n  swap1\n  pop\n    /* \"#utility.yul\":1554:1572   */\n  dup10\n  dup3\n  add\n    /* \"#utility.yul\":1524:1573   */\n  tag_61\n  jump\t// in\ntag_79:\n    /* \"#utility.yul\":1514:1573   */\n  swap7\n  pop\n  pop\n  pop\n  pop\n  pop\n    /* \"#utility.yul\":1592:1641   */\n  tag_80\n    /* \"#utility.yul\":1637:1639   */\n  0x40\n    /* \"#utility.yul\":1626:1635   */\n  dup7\n    /* \"#utility.yul\":1622:1640   */\n  add\n    /* \"#utility.yul\":1592:1641   */\n  tag_61\n  jump\t// in\ntag_80:\n    /* \"#utility.yul\":1582:1641   */\n  swap2\n  pop\n    /* \"#utility.yul\":1660:1709   */\n  tag_81\n    /* \"#utility.yul\":1705:1707   */\n  0x60\n    /* \"#utility.yul\":1694:1703   */\n  dup7\n    /* \"#utility.yul\":1690:1708   */\n  add\n    /* \"#utility.yul\":1660:1709   */\n  tag_61\n  jump\t// in\ntag_81:\n    /* \"#utility.yul\":1650:1709   */\n  swap1\n  pop\n    /* \"#utility.yul\":328:1715   */\n  swap3\n  swap6\n  swap2\n  swap5\n  pop\n  swap3\n  pop\n  jump\t// out\n    /* \"#utility.yul\":1720:1847   */\ntag_16:\n    /* \"#utility.yul\":1781:1791   */\n  0x4e487b71\n    /* \"#utility.yul\":1776:1779   */\n  0xe0\n    /* \"#utility.yul\":1772:1792   */\n  shl\n    /* \"#utility.yul\":1769:1770   */\n  0x00\n    /* \"#utility.yul\":1762:1793   */\n  mstore\n    /* \"#utility.yul\":1812:1816   */\n  0x32\n    /* \"#utility.yul\":1809:1810   */\n  0x04\n    /* \"#utility.yul\":1802:1817   */\n  mstore\n    /* \"#utility.yul\":1836:1840   */\n  0x24\n    /* \"#utility.yul\":1833:1834   */\n  0x00\n    /* \"#utility.yul\":1826:1841   */\n  revert\n    /* \"#utility.yul\":1852:2183   */\ntag_45:\n    /* \"#utility.yul\":1957:1966   */\n  0x00\n    /* \"#utility.yul\":1968:1977   */\n  dup1\n    /* \"#utility.yul\":2010:2018   */\n  dup6\n    /* \"#utility.yul\":1998:2008   */\n  dup6\n    /* \"#utility.yul\":1995:2019   */\n  gt\n    /* \"#utility.yul\":1992:2036   */\n  iszero\n  tag_84\n  jumpi\n    /* \"#utility.yul\":2032:2033   */\n  0x00\n    /* \"#utility.yul\":2029:2030   */\n  dup1\n    /* \"#utility.yul\":2022:2034   */\n  revert\n    /* \"#utility.yul\":1992:2036   */\ntag_84:\n    /* \"#utility.yul\":2061:2067   */\n  dup4\n    /* \"#utility.yul\":2051:2059   */\n  dup7\n    /* \"#utility.yul\":2048:2068   */\n  gt\n    /* \"#utility.yul\":2045:2085   */\n  iszero\n  tag_85\n  jumpi\n    /* \"#utility.yul\":2081:2082   */\n  0x00\n    /* \"#utility.yul\":2078:2079   */\n  dup1\n    /* \"#utility.yul\":2071:2083   */\n  revert\n    /* \"#utility.yul\":2045:2085   */\ntag_85:\n  pop\n  pop\n    /* \"#utility.yul\":2107:2130   */\n  dup3\n  add\n  swap4\n    /* \"#utility.yul\":2152:2177   */\n  swap2\n  swap1\n  swap3\n  sub\n  swap2\n  pop\n    /* \"#utility.yul\":1852:2183   */\n  jump\t// out\n    /* \"#utility.yul\":2188:2517   */\ntag_47:\n  not(sub(shl(0x60, 0x01), 0x01))\n    /* \"#utility.yul\":2309:2328   */\n  dup2\n  calldataload\n    /* \"#utility.yul\":2388:2399   */\n  dup2\n  dup2\n  and\n  swap2\n    /* \"#utility.yul\":2419:2421   */\n  0x14\n    /* \"#utility.yul\":2411:2422   */\n  dup6\n  lt\n    /* \"#utility.yul\":2408:2511   */\n  iszero\n  tag_87\n  jumpi\n    /* \"#utility.yul\":2498:2500   */\n  dup1\n    /* \"#utility.yul\":2492:2494   */\n  dup2\n    /* \"#utility.yul\":2485:2488   */\n  dup7\n    /* \"#utility.yul\":2481:2483   */\n  0x14\n    /* \"#utility.yul\":2477:2489   */\n  sub\n    /* \"#utility.yul\":2474:2475   */\n  0x03\n    /* \"#utility.yul\":2470:2490   */\n  shl\n    /* \"#utility.yul\":2466:2495   */\n  shl\n    /* \"#utility.yul\":2462:2464   */\n  dup4\n    /* \"#utility.yul\":2458:2496   */\n  and\n    /* \"#utility.yul\":2454:2501   */\n  and\n    /* \"#utility.yul\":2445:2501   */\n  swap3\n  pop\n    /* \"#utility.yul\":2408:2511   */\ntag_87:\n  pop\n  pop\n    /* \"#utility.yul\":2188:2517   */\n  swap3\n  swap2\n  pop\n  pop\n  jump\t// out\ntag_62:\n    /* \"PoolPandorasSepolia.sol\":451:23985  contract PoolPandorasSepolia is AccessControl, ReentrancyGuard, ERC2771Context {... */\n  mload(0x80)\n  mload(0xa0)\n  codecopy(0x00, dataOffset(sub_0), dataSize(sub_0))\n  0x00\n  assignImmutable(\"0xb4da3a56484909ee405b9f4762910b7212e7eaa07e3685955dc8557a668fa7ea\")\n  0x00\n  assignImmutable(\"0x3ba75501f6cd0223a98b96be8ad3451b3d01eaca7baa725f5f33253f4bfb368f\")\n  return(0x00, dataSize(sub_0))\nstop\n\nsub_0: assembly {\n        /* \"PoolPandorasSepolia.sol\":451:23985  contract PoolPandorasSepolia is AccessControl, ReentrancyGuard, ERC2771Context {... */\n      mstore(0x40, 0x80)\n      jumpi(tag_1, lt(calldatasize, 0x04))\n      shr(0xe0, calldataload(0x00))\n      dup1\n      0x7da0a877\n      gt\n      tag_81\n      jumpi\n      dup1\n      0xbda821e8\n      gt\n      tag_82\n      jumpi\n      dup1\n      0xe63ab1e9\n      gt\n      tag_83\n      jumpi\n      dup1\n      0xf5f11350\n      gt\n      tag_84\n      jumpi\n      dup1\n      0xf6326fb3\n      gt\n      tag_85\n      jumpi\n      dup1\n      0xf6326fb3\n      eq\n      tag_78\n      jumpi\n      dup1\n      0xf688bcfb\n      eq\n      tag_79\n      jumpi\n      dup1\n      0xfd46a171\n      eq\n      tag_80\n      jumpi\n      0x00\n      dup1\n      revert\n    tag_85:\n      dup1\n      0xf5f11350\n      eq\n      tag_76\n      jumpi\n      dup1\n      0xf5f69af2\n      eq\n      tag_77\n      jumpi\n      0x00\n      dup1\n      revert\n    tag_84:\n      dup1\n      0xec87621c\n      gt\n      tag_86\n      jumpi\n      dup1\n      0xec87621c\n      eq\n      tag_73\n      jumpi\n      dup1\n      0xee947a7c\n      eq\n      tag_74\n      jumpi\n      dup1\n      0xf29b2239\n      eq\n      tag_75\n      jumpi\n      0x00\n      dup1\n      revert\n    tag_86:\n      dup1\n      0xe63ab1e9\n      eq\n      tag_71\n      jumpi\n      dup1\n      0xe9fe0c78\n      eq\n      tag_72\n      jumpi\n      0x00\n      dup1\n      revert\n    tag_83:\n      dup1\n      0xda8d5add\n      gt\n      tag_87\n      jumpi\n      dup1\n      0xe15e23c1\n      gt\n      tag_88\n      jumpi\n      dup1\n      0xe15e23c1\n      eq\n      tag_68\n      jumpi\n      dup1\n      0xe340b783\n      eq\n      tag_69\n      jumpi\n      dup1\n      0xe399067f\n      eq\n      tag_70\n      jumpi\n      0x00\n      dup1\n      revert\n    tag_88:\n      dup1\n      0xda8d5add\n      eq\n      tag_66\n      jumpi\n      dup1\n      0xe043b2b2\n      eq\n      tag_67\n      jumpi\n      0x00\n      dup1\n      revert\n    tag_87:\n      dup1\n      0xc771c390\n      gt\n      tag_89\n      jumpi\n      dup1\n      0xc771c390\n      eq\n      tag_63\n      jumpi\n      dup1\n      0xd547741f\n      eq\n      tag_64\n      jumpi\n      dup1\n      0xd830d5cc\n      eq\n      tag_65\n      jumpi\n      0x00\n      dup1\n      revert\n    tag_89:\n      dup1\n      0xbda821e8\n      eq\n      tag_61\n      jumpi\n      dup1\n      0xc6d95b74\n      eq\n      tag_62\n      jumpi\n      0x00\n      dup1\n      revert\n    tag_82:\n      dup1\n      0x93055c43\n      gt\n      tag_90\n      jumpi\n      dup1\n      0xa59aa5a6\n      gt\n      tag_91\n      jumpi\n      dup1\n      0xb2b77ae2\n      gt\n      tag_92\n      jumpi\n      dup1\n      0xb2b77ae2\n      eq\n      tag_58\n      jumpi\n      dup1\n      0xb65ba94b\n      eq\n      tag_59\n      jumpi\n      dup1\n      0xb758aeaa\n      eq\n      tag_60\n      jumpi\n      0x00\n      dup1\n      revert\n    tag_92:\n      dup1\n      0xa59aa5a6\n      eq\n      tag_56\n      jumpi\n      dup1\n      0xb2118a8d\n      eq\n      tag_57\n      jumpi\n      0x00\n      dup1\n      revert\n    tag_91:\n      dup1\n      0x9ddc3912\n      gt\n      tag_93\n      jumpi\n      dup1\n      0x9ddc3912\n      eq\n      tag_53\n      jumpi\n      dup1\n      0x9e657e33\n      eq\n      tag_54\n      jumpi\n      dup1\n      0xa217fddf\n      eq\n      tag_55\n      jumpi\n      0x00\n      dup1\n      revert\n    tag_93:\n      dup1\n      0x93055c43\n      eq\n      tag_51\n      jumpi\n      dup1\n      0x97d9e5b4\n      eq\n      tag_52\n      jumpi\n      0x00\n      dup1\n      revert\n    tag_90:\n      dup1\n      0x899aa991\n      gt\n      tag_94\n      jumpi\n      dup1\n      0x8b713b2e\n      gt\n      tag_95\n      jumpi\n      dup1\n      0x8b713b2e\n      eq\n      tag_48\n      jumpi\n      dup1\n      0x8dd4928e\n      eq\n      tag_49\n      jumpi\n      dup1\n      0x91d14854\n      eq\n      tag_50\n      jumpi\n      0x00\n      dup1\n      revert\n    tag_95:\n      dup1\n      0x899aa991\n      eq\n      tag_46\n      jumpi\n      dup1\n      0x89bad0a6\n      eq\n      tag_47\n      jumpi\n      0x00\n      dup1\n      revert\n    tag_94:\n      dup1\n      0x7da0a877\n      eq\n      tag_42\n      jumpi\n      dup1\n      0x867d099a\n      eq\n      tag_43\n      jumpi\n      dup1\n      0x885f5029\n      eq\n      tag_44\n      jumpi\n      dup1\n      0x886d589d\n      eq\n      tag_45\n      jumpi\n      0x00\n      dup1\n      revert\n    tag_81:\n      dup1\n      0x3e413bee\n      gt\n      tag_96\n      jumpi\n      dup1\n      0x6068d6cb\n      gt\n      tag_97\n      jumpi\n      dup1\n      0x6ec23995\n      gt\n      tag_98\n      jumpi\n      dup1\n      0x75b238fc\n      gt\n      tag_99\n      jumpi\n      dup1\n      0x75b238fc\n      eq\n      tag_39\n      jumpi\n      dup1\n      0x762e1c73\n      eq\n      tag_40\n      jumpi\n      dup1\n      0x76c1d3db\n      eq\n      tag_41\n      jumpi\n      0x00\n      dup1\n      revert\n    tag_99:\n      dup1\n      0x6ec23995\n      eq\n      tag_37\n      jumpi\n      dup1\n      0x72e55399\n      eq\n      tag_38\n      jumpi\n      0x00\n      dup1\n      revert\n    tag_98:\n      dup1\n      0x6426be48\n      gt\n      tag_100\n      jumpi\n      dup1\n      0x6426be48\n      eq\n      tag_34\n      jumpi\n      dup1\n      0x65d5ec96\n      eq\n      tag_35\n      jumpi\n      dup1\n      0x6c6ff56c\n      eq\n      tag_36\n      jumpi\n      0x00\n      dup1\n      revert\n    tag_100:\n      dup1\n      0x6068d6cb\n      eq\n      tag_32\n      jumpi\n      dup1\n      0x64021b13\n      eq\n      tag_33\n      jumpi\n      0x00\n      dup1\n      revert\n    tag_97:\n      dup1\n      0x53d6fd59\n      gt\n      tag_101\n      jumpi\n      dup1\n      0x588583a0\n      gt\n      tag_102\n      jumpi\n      dup1\n      0x588583a0\n      eq\n      tag_29\n      jumpi\n      dup1\n      0x5983b0bd\n      eq\n      tag_30\n      jumpi\n      dup1\n      0x5e2c19db\n      eq\n      tag_31\n      jumpi\n      0x00\n      dup1\n      revert\n    tag_102:\n      dup1\n      0x53d6fd59\n      eq\n      tag_27\n      jumpi\n      dup1\n      0x572b6c05\n      eq\n      tag_28\n      jumpi\n      0x00\n      dup1\n      revert\n    tag_101:\n      dup1\n      0x47af19aa\n      gt\n      tag_103\n      jumpi\n      dup1\n      0x47af19aa\n      eq\n      tag_24\n      jumpi\n      dup1\n      0x4e43603a\n      eq\n      tag_25\n      jumpi\n      dup1\n      0x51fb012d\n      eq\n      tag_26\n      jumpi\n      0x00\n      dup1\n      revert\n    tag_103:\n      dup1\n      0x3e413bee\n      eq\n      tag_22\n      jumpi\n      dup1\n      0x41debf1f\n      eq\n      tag_23\n      jumpi\n      0x00\n      dup1\n      revert\n    tag_96:\n      dup1\n      0x27175b23\n      gt\n      tag_104\n      jumpi\n      dup1\n      0x2f2ff15d\n      gt\n      tag_105\n      jumpi\n      dup1\n      0x36568abe\n      gt\n      tag_106\n      jumpi\n      dup1\n      0x36568abe\n      eq\n      tag_19\n      jumpi\n      dup1\n      0x3ac43970\n      eq\n      tag_20\n      jumpi\n      dup1\n      0x3af32abf\n      eq\n      tag_21\n      jumpi\n      0x00\n      dup1\n      revert\n    tag_106:\n      dup1\n      0x2f2ff15d\n      eq\n      tag_17\n      jumpi\n      dup1\n      0x3408567c\n      eq\n      tag_18\n      jumpi\n      0x00\n      dup1\n      revert\n    tag_105:\n      dup1\n      0x2a5bf6d2\n      gt\n      tag_107\n      jumpi\n      dup1\n      0x2a5bf6d2\n      eq\n      tag_14\n      jumpi\n      dup1\n      0x2aad5edd\n      eq\n      tag_15\n      jumpi\n      dup1\n      0x2e1a7d4d\n      eq\n      tag_16\n      jumpi\n      0x00\n      dup1\n      revert\n    tag_107:\n      dup1\n      0x27175b23\n      eq\n      tag_12\n      jumpi\n      dup1\n      0x275991d2\n      eq\n      tag_13\n      jumpi\n      0x00\n      dup1\n      revert\n    tag_104:\n      dup1\n      0x0c016ad5\n      gt\n      tag_108\n      jumpi\n      dup1\n      0x1c5aeef7\n      gt\n      tag_109\n      jumpi\n      dup1\n      0x1c5aeef7\n      eq\n      tag_9\n      jumpi\n      dup1\n      0x246d47b7\n      eq\n      tag_10\n      jumpi\n      dup1\n      0x248a9ca3\n      eq\n      tag_11\n      jumpi\n      0x00\n      dup1\n      revert\n    tag_109:\n      dup1\n      0x0c016ad5\n      eq\n      tag_7\n      jumpi\n      dup1\n      0x17b51642\n      eq\n      tag_8\n      jumpi\n      0x00\n      dup1\n      revert\n    tag_108:\n      dup1\n      0x01ffc9a7\n      eq\n      tag_3\n      jumpi\n      dup1\n      0x04c68af0\n      eq\n      tag_4\n      jumpi\n      dup1\n      0x052d9e7e\n      eq\n      tag_5\n      jumpi\n      dup1\n      0x08f43333\n      eq\n      tag_6\n      jumpi\n      0x00\n      dup1\n      revert\n    tag_1:\n      jumpi(tag_2, calldatasize)\n      stop\n    tag_2:\n      0x00\n      dup1\n      revert\n        /* \"@openzeppelin/contracts/access/AccessControl.sol\":2541:2743   */\n    tag_3:\n      callvalue\n      dup1\n      iszero\n      tag_112\n      jumpi\n      0x00\n      dup1\n      revert\n    tag_112:\n      pop\n      tag_113\n      tag_114\n      calldatasize\n      0x04\n      tag_115\n      jump\t// in\n    tag_114:\n      tag_116\n      jump\t// in\n    tag_113:\n      mload(0x40)\n        /* \"#utility.yul\":470:484   */\n      swap1\n      iszero\n        /* \"#utility.yul\":463:485   */\n      iszero\n        /* \"#utility.yul\":445:486   */\n      dup2\n      mstore\n        /* \"#utility.yul\":433:435   */\n      0x20\n        /* \"#utility.yul\":418:436   */\n      add\n        /* \"@openzeppelin/contracts/access/AccessControl.sol\":2541:2743   */\n    tag_117:\n      mload(0x40)\n      dup1\n      swap2\n      sub\n      swap1\n      return\n        /* \"PoolPandorasSepolia.sol\":2870:2932  mapping(address => uint256)     public userTotalReinvestedUSDC */\n    tag_4:\n      callvalue\n      dup1\n      iszero\n      tag_119\n      jumpi\n      0x00\n      dup1\n      revert\n    tag_119:\n      pop\n      tag_120\n      tag_121\n      calldatasize\n      0x04\n      tag_122\n      jump\t// in\n    tag_121:\n      mstore(0x20, 0x0c)\n      0x00\n      swap1\n      dup2\n      mstore\n      0x40\n      swap1\n      keccak256\n      sload\n      dup2\n      jump\n    tag_120:\n      mload(0x40)\n        /* \"#utility.yul\":1035:1060   */\n      swap1\n      dup2\n      mstore\n        /* \"#utility.yul\":1023:1025   */\n      0x20\n        /* \"#utility.yul\":1008:1026   */\n      add\n        /* \"PoolPandorasSepolia.sol\":2870:2932  mapping(address => uint256)     public userTotalReinvestedUSDC */\n      tag_117\n        /* \"#utility.yul\":889:1066   */\n      jump\n        /* \"PoolPandorasSepolia.sol\":7342:7458  function setWhitelistEnabled(bool enabled) external onlyRole(ADMIN_ROLE) {... */\n    tag_5:\n      callvalue\n      dup1\n      iszero\n      tag_126\n      jumpi\n      0x00\n      dup1\n      revert\n    tag_126:\n      pop\n      tag_127\n      tag_128\n      calldatasize\n      0x04\n      tag_129\n      jump\t// in\n    tag_128:\n      tag_130\n      jump\t// in\n    tag_127:\n      stop\n        /* \"PoolPandorasSepolia.sol\":2492:2545  mapping(address => DepositInfo[]) public userDeposits */\n    tag_6:\n      callvalue\n      dup1\n      iszero\n      tag_131\n      jumpi\n      0x00\n      dup1\n      revert\n    tag_131:\n      pop\n      tag_132\n      tag_133\n      calldatasize\n      0x04\n      tag_134\n      jump\t// in\n    tag_133:\n      tag_135\n      jump\t// in\n    tag_132:\n      mload(0x40)\n      tag_117\n      swap7\n      swap6\n      swap5\n      swap4\n      swap3\n      swap2\n      swap1\n      tag_137\n      jump\t// in\n        /* \"PoolPandorasSepolia.sol\":1956:2039  bytes32 public constant UTILITY_INJECTOR_ROLE  = keccak256(\"UTILITY_INJECTOR_ROLE\") */\n    tag_7:\n      callvalue\n      dup1\n      iszero\n      tag_138\n      jumpi\n      0x00\n      dup1\n      revert\n    tag_138:\n      pop\n      tag_120\n        /* \"PoolPandorasSepolia.sol\":2005:2039  keccak256(\"UTILITY_INJECTOR_ROLE\") */\n      0xf60566c40710959d8d30b6067ce3c53c757bec78eecb0e46b83c7f8194ffae37\n        /* \"PoolPandorasSepolia.sol\":1956:2039  bytes32 public constant UTILITY_INJECTOR_ROLE  = keccak256(\"UTILITY_INJECTOR_ROLE\") */\n      dup2\n      jump\n        /* \"PoolPandorasSepolia.sol\":9202:9556  function returnInvestmentETH() external payable onlyRole(MANAGER_ROLE) nonReentrant {... */\n    tag_8:\n      tag_127\n      tag_144\n      jump\t// in\n        /* \"PoolPandorasSepolia.sol\":1371:1415  uint256 public maxCapUSDC  = 5_000_000 * 1e6 */\n    tag_9:\n      callvalue\n      dup1\n      iszero\n      tag_145\n      jumpi\n      0x00\n      dup1\n      revert\n    tag_145:\n      pop\n      tag_120\n      sload(0x04)\n      dup2\n      jump\n        /* \"PoolPandorasSepolia.sol\":1555:1591  bool public globalLiquidationEnabled */\n    tag_10:\n      callvalue\n      dup1\n      iszero\n      tag_149\n      jumpi\n      0x00\n      dup1\n      revert\n    tag_149:\n      pop\n      sload(0x05)\n      tag_113\n      swap1\n      0x01000000\n      swap1\n      div\n      0xff\n      and\n      dup2\n      jump\n        /* \"@openzeppelin/contracts/access/AccessControl.sol\":3786:3906   */\n    tag_11:\n      callvalue\n      dup1\n      iszero\n      tag_153\n      jumpi\n      0x00\n      dup1\n      revert\n    tag_153:\n      pop\n      tag_120\n      tag_155\n      calldatasize\n      0x04\n      tag_156\n      jump\t// in\n    tag_155:\n        /* \"@openzeppelin/contracts/access/AccessControl.sol\":3851:3858   */\n      0x00\n        /* \"@openzeppelin/contracts/access/AccessControl.sol\":3877:3889   */\n      swap1\n      dup2\n      mstore\n      0x20\n      dup2\n      swap1\n      mstore\n      0x40\n      swap1\n      keccak256\n        /* \"@openzeppelin/contracts/access/AccessControl.sol\":3877:3899   */\n      0x01\n      add\n      sload\n      swap1\n        /* \"@openzeppelin/contracts/access/AccessControl.sol\":3786:3906   */\n      jump\n        /* \"PoolPandorasSepolia.sol\":3110:3143  uint256 public totalDepositedUSDC */\n    tag_12:\n      callvalue\n      dup1\n      iszero\n      tag_159\n      jumpi\n      0x00\n      dup1\n      revert\n    tag_159:\n      pop\n      tag_120\n      sload(0x10)\n      dup2\n      jump\n        /* \"PoolPandorasSepolia.sol\":19867:20312  function reinvestUtilityETH() external nonReentrant {... */\n    tag_13:\n      callvalue\n      dup1\n      iszero\n      tag_163\n      jumpi\n      0x00\n      dup1\n      revert\n    tag_163:\n      pop\n      tag_127\n      tag_165\n      jump\t// in\n        /* \"PoolPandorasSepolia.sol\":23835:23949  function getUserDeposits(address user) external view returns (DepositInfo[] memory) { return userDeposits[user]; } */\n    tag_14:\n      callvalue\n      dup1\n      iszero\n      tag_166\n      jumpi\n      0x00\n      dup1\n      revert\n    tag_166:\n      pop\n      tag_167\n      tag_168\n      calldatasize\n      0x04\n      tag_122\n      jump\t// in\n    tag_168:\n      tag_169\n      jump\t// in\n    tag_167:\n      mload(0x40)\n      tag_117\n      swap2\n      swap1\n      tag_171\n      jump\t// in\n        /* \"PoolPandorasSepolia.sol\":3415:3447  uint256 public totalInvestedUSDC */\n    tag_15:\n      callvalue\n      dup1\n      iszero\n      tag_172\n      jumpi\n      0x00\n      dup1\n      revert\n    tag_172:\n      pop\n      tag_120\n      sload(0x18)\n      dup2\n      jump\n        /* \"PoolPandorasSepolia.sol\":12032:13225  function withdraw(uint256 depositIndex) external nonReentrant whenWithdrawalsNotPaused {... */\n    tag_16:\n      callvalue\n      dup1\n      iszero\n      tag_176\n      jumpi\n      0x00\n      dup1\n      revert\n    tag_176:\n      pop\n      tag_127\n      tag_178\n      calldatasize\n      0x04\n      tag_156\n      jump\t// in\n    tag_178:\n      tag_180\n      jump\t// in\n        /* \"@openzeppelin/contracts/access/AccessControl.sol\":4202:4338   */\n    tag_17:\n      callvalue\n      dup1\n      iszero\n      tag_181\n      jumpi\n      0x00\n      dup1\n      revert\n    tag_181:\n      pop\n      tag_127\n      tag_183\n      calldatasize\n      0x04\n      tag_184\n      jump\t// in\n    tag_183:\n      tag_185\n      jump\t// in\n        /* \"PoolPandorasSepolia.sol\":2666:2728  mapping(address => uint256)     public userClaimableUtilityETH */\n    tag_18:\n      callvalue\n      dup1\n      iszero\n      tag_186\n      jumpi\n      0x00\n      dup1\n      revert\n    tag_186:\n      pop\n      tag_120\n      tag_188\n      calldatasize\n      0x04\n      tag_122\n      jump\t// in\n    tag_188:\n      mstore(0x20, 0x09)\n      0x00\n      swap1\n      dup2\n      mstore\n      0x40\n      swap1\n      keccak256\n      sload\n      dup2\n      jump\n        /* \"@openzeppelin/contracts/access/AccessControl.sol\":5304:5549   */\n    tag_19:\n      callvalue\n      dup1\n      iszero\n      tag_191\n      jumpi\n      0x00\n      dup1\n      revert\n    tag_191:\n      pop\n      tag_127\n      tag_193\n      calldatasize\n      0x04\n      tag_184\n      jump\t// in\n    tag_193:\n      tag_194\n      jump\t// in\n        /* \"PoolPandorasSepolia.sol\":3262:3293  uint256 public totalUtilityUSDC */\n    tag_20:\n      callvalue\n      dup1\n      iszero\n      tag_195\n      jumpi\n      0x00\n      dup1\n      revert\n    tag_195:\n      pop\n      tag_120\n      sload(0x14)\n      dup2\n      jump\n        /* \"PoolPandorasSepolia.sol\":2551:2603  mapping(address => bool)        public isWhitelisted */\n    tag_21:\n      callvalue\n      dup1\n      iszero\n      tag_199\n      jumpi\n      0x00\n      dup1\n      revert\n    tag_199:\n      pop\n      tag_113\n      tag_201\n      calldatasize\n      0x04\n      tag_122\n      jump\t// in\n    tag_201:\n      mstore(0x20, 0x07)\n      0x00\n      swap1\n      dup2\n      mstore\n      0x40\n      swap1\n      keccak256\n      sload\n      0xff\n      and\n      dup2\n      jump\n        /* \"PoolPandorasSepolia.sol\":1114:1142  IERC20 public immutable usdc */\n    tag_22:\n      callvalue\n      dup1\n      iszero\n      tag_204\n      jumpi\n      0x00\n      dup1\n      revert\n    tag_204:\n      pop\n      tag_205\n      immutable(\"0xb4da3a56484909ee405b9f4762910b7212e7eaa07e3685955dc8557a668fa7ea\")\n      dup2\n      jump\n    tag_205:\n      mload(0x40)\n      sub(shl(0xa0, 0x01), 0x01)\n        /* \"#utility.yul\":5090:5145   */\n      swap1\n      swap2\n      and\n        /* \"#utility.yul\":5072:5146   */\n      dup2\n      mstore\n        /* \"#utility.yul\":5060:5062   */\n      0x20\n        /* \"#utility.yul\":5045:5063   */\n      add\n        /* \"PoolPandorasSepolia.sol\":1114:1142  IERC20 public immutable usdc */\n      tag_117\n        /* \"#utility.yul\":4910:5152   */\n      jump\n        /* \"PoolPandorasSepolia.sol\":18548:19107  function assignUtilityUSDCBatch(address[] calldata users, uint256[] calldata amounts) external onlyRole(ADMIN_ROLE) {... */\n    tag_23:\n      callvalue\n      dup1\n      iszero\n      tag_209\n      jumpi\n      0x00\n      dup1\n      revert\n    tag_209:\n      pop\n      tag_127\n      tag_211\n      calldatasize\n      0x04\n      tag_212\n      jump\t// in\n    tag_211:\n      tag_213\n      jump\t// in\n        /* \"PoolPandorasSepolia.sol\":7636:7998  function setWhitelistBatch(address[] calldata users, bool[] calldata statuses) external onlyRole(ADMIN_ROLE) {... */\n    tag_24:\n      callvalue\n      dup1\n      iszero\n      tag_214\n      jumpi\n      0x00\n      dup1\n      revert\n    tag_214:\n      pop\n      tag_127\n      tag_216\n      calldatasize\n      0x04\n      tag_212\n      jump\t// in\n    tag_216:\n      tag_218\n      jump\t// in\n        /* \"PoolPandorasSepolia.sol\":22776:23830  function getUserStats(address user) external view returns (uint256 depositedETH, uint256 depositedUSDC, uint256 withdrawnETH, uint256 withdrawnUSDC, uint256 claimableUtilityETH, uint256 claimableUtilityUSDC, uint256 reinvestedETH, uint256 reinvestedUSDC) {... */\n    tag_25:\n      callvalue\n      dup1\n      iszero\n      tag_219\n      jumpi\n      0x00\n      dup1\n      revert\n    tag_219:\n      pop\n      tag_220\n      tag_221\n      calldatasize\n      0x04\n      tag_122\n      jump\t// in\n    tag_221:\n      tag_222\n      jump\t// in\n    tag_220:\n      0x40\n      dup1\n      mload\n        /* \"#utility.yul\":7425:7450   */\n      swap9\n      dup10\n      mstore\n        /* \"#utility.yul\":7481:7483   */\n      0x20\n        /* \"#utility.yul\":7466:7484   */\n      dup10\n      add\n        /* \"#utility.yul\":7459:7493   */\n      swap8\n      swap1\n      swap8\n      mstore\n        /* \"#utility.yul\":7509:7527   */\n      swap6\n      dup8\n      add\n        /* \"#utility.yul\":7502:7536   */\n      swap5\n      swap1\n      swap5\n      mstore\n        /* \"#utility.yul\":7567:7569   */\n      0x60\n        /* \"#utility.yul\":7552:7570   */\n      dup7\n      add\n        /* \"#utility.yul\":7545:7579   */\n      swap3\n      swap1\n      swap3\n      mstore\n        /* \"#utility.yul\":7610:7613   */\n      0x80\n        /* \"#utility.yul\":7595:7614   */\n      dup6\n      add\n        /* \"#utility.yul\":7588:7623   */\n      mstore\n        /* \"#utility.yul\":7654:7657   */\n      0xa0\n        /* \"#utility.yul\":7639:7658   */\n      dup5\n      add\n        /* \"#utility.yul\":7632:7667   */\n      mstore\n        /* \"#utility.yul\":7698:7701   */\n      0xc0\n        /* \"#utility.yul\":7683:7702   */\n      dup4\n      add\n        /* \"#utility.yul\":7676:7711   */\n      mstore\n        /* \"#utility.yul\":7742:7745   */\n      0xe0\n        /* \"#utility.yul\":7727:7746   */\n      dup3\n      add\n        /* \"#utility.yul\":7720:7755   */\n      mstore\n        /* \"#utility.yul\":7412:7415   */\n      0x0100\n        /* \"#utility.yul\":7397:7416   */\n      add\n        /* \"PoolPandorasSepolia.sol\":22776:23830  function getUserStats(address user) external view returns (uint256 depositedETH, uint256 depositedUSDC, uint256 withdrawnETH, uint256 withdrawnUSDC, uint256 claimableUtilityETH, uint256 claimableUtilityUSDC, uint256 reinvestedETH, uint256 reinvestedUSDC) {... */\n      tag_117\n        /* \"#utility.yul\":7082:7761   */\n      jump\n        /* \"PoolPandorasSepolia.sol\":1521:1549  bool public whitelistEnabled */\n    tag_26:\n      callvalue\n      dup1\n      iszero\n      tag_225\n      jumpi\n      0x00\n      dup1\n      revert\n    tag_225:\n      pop\n      sload(0x05)\n      tag_113\n      swap1\n      0x010000\n      swap1\n      div\n      0xff\n      and\n      dup2\n      jump\n        /* \"PoolPandorasSepolia.sol\":7463:7631  function setWhitelist(address user, bool status) external onlyRole(ADMIN_ROLE) {... */\n    tag_27:\n      callvalue\n      dup1\n      iszero\n      tag_229\n      jumpi\n      0x00\n      dup1\n      revert\n    tag_229:\n      pop\n      tag_127\n      tag_231\n      calldatasize\n      0x04\n      tag_232\n      jump\t// in\n    tag_231:\n      tag_233\n      jump\t// in\n        /* \"@openzeppelin/contracts/metatx/ERC2771Context.sol\":1832:1969   */\n    tag_28:\n      callvalue\n      dup1\n      iszero\n      tag_234\n      jumpi\n      0x00\n      dup1\n      revert\n    tag_234:\n      pop\n      tag_113\n      tag_236\n      calldatasize\n      0x04\n      tag_122\n      jump\t// in\n    tag_236:\n        /* \"@openzeppelin/contracts/metatx/ERC2771Context.sol\":1707:1724   */\n      immutable(\"0x3ba75501f6cd0223a98b96be8ad3451b3d01eaca7baa725f5f33253f4bfb368f\")\n      sub(shl(0xa0, 0x01), 0x01)\n        /* \"@openzeppelin/contracts/metatx/ERC2771Context.sol\":1931:1962   */\n      swap1\n      dup2\n      and\n      swap2\n      and\n      eq\n      swap1\n        /* \"@openzeppelin/contracts/metatx/ERC2771Context.sol\":1832:1969   */\n      jump\n        /* \"PoolPandorasSepolia.sol\":1597:1637  uint48 public globalLiquidationTimestamp */\n    tag_29:\n      callvalue\n      dup1\n      iszero\n      tag_239\n      jumpi\n      0x00\n      dup1\n      revert\n    tag_239:\n      pop\n      sload(0x05)\n      tag_240\n      swap1\n      0x0100000000\n      swap1\n      div\n      0xffffffffffff\n      and\n      dup2\n      jump\n    tag_240:\n      mload(0x40)\n        /* \"#utility.yul\":8260:8274   */\n      0xffffffffffff\n        /* \"#utility.yul\":8248:8275   */\n      swap1\n      swap2\n      and\n        /* \"#utility.yul\":8230:8276   */\n      dup2\n      mstore\n        /* \"#utility.yul\":8218:8220   */\n      0x20\n        /* \"#utility.yul\":8203:8221   */\n      add\n        /* \"PoolPandorasSepolia.sol\":1597:1637  uint48 public globalLiquidationTimestamp */\n      tag_117\n        /* \"#utility.yul\":8086:8282   */\n      jump\n        /* \"PoolPandorasSepolia.sol\":9561:9977  function returnInvestmentUSDC(uint256 amount) external onlyRole(MANAGER_ROLE) nonReentrant {... */\n    tag_30:\n      callvalue\n      dup1\n      iszero\n      tag_244\n      jumpi\n      0x00\n      dup1\n      revert\n    tag_244:\n      pop\n      tag_127\n      tag_246\n      calldatasize\n      0x04\n      tag_156\n      jump\t// in\n    tag_246:\n      tag_247\n      jump\t// in\n        /* \"PoolPandorasSepolia.sol\":2609:2660  mapping(address => bool)        public hasWithdrawn */\n    tag_31:\n      callvalue\n      dup1\n      iszero\n      tag_248\n      jumpi\n      0x00\n      dup1\n      revert\n    tag_248:\n      pop\n      tag_113\n      tag_250\n      calldatasize\n      0x04\n      tag_122\n      jump\t// in\n    tag_250:\n      mstore(0x20, 0x08)\n      0x00\n      swap1\n      dup2\n      mstore\n      0x40\n      swap1\n      keccak256\n      sload\n      0xff\n      and\n      dup2\n      jump\n        /* \"PoolPandorasSepolia.sol\":1454:1480  bool public pausedDeposits */\n    tag_32:\n      callvalue\n      dup1\n      iszero\n      tag_253\n      jumpi\n      0x00\n      dup1\n      revert\n    tag_253:\n      pop\n      sload(0x05)\n      tag_113\n      swap1\n      0xff\n      and\n      dup2\n      jump\n        /* \"PoolPandorasSepolia.sol\":16736:16997  function injectUtilityETH() external payable onlyRole(UTILITY_INJECTOR_ROLE) {... */\n    tag_33:\n      tag_127\n      tag_258\n      jump\t// in\n        /* \"PoolPandorasSepolia.sol\":7112:7337  function setPaused(bool _deposits, bool _withdrawals) external onlyRole(PAUSER_ROLE) {... */\n    tag_34:\n      callvalue\n      dup1\n      iszero\n      tag_259\n      jumpi\n      0x00\n      dup1\n      revert\n    tag_259:\n      pop\n      tag_127\n      tag_261\n      calldatasize\n      0x04\n      tag_262\n      jump\t// in\n    tag_261:\n      tag_263\n      jump\t// in\n        /* \"PoolPandorasSepolia.sol\":2938:2993  mapping(address => bool)        public isKnownDepositor */\n    tag_35:\n      callvalue\n      dup1\n      iszero\n      tag_264\n      jumpi\n      0x00\n      dup1\n      revert\n    tag_264:\n      pop\n      tag_113\n      tag_266\n      calldatasize\n      0x04\n      tag_122\n      jump\t// in\n    tag_266:\n      mstore(0x20, 0x0d)\n      0x00\n      swap1\n      dup2\n      mstore\n      0x40\n      swap1\n      keccak256\n      sload\n      0xff\n      and\n      dup2\n      jump\n        /* \"PoolPandorasSepolia.sol\":19516:19862  function claimUtilityUSDC() external nonReentrant {... */\n    tag_36:\n      callvalue\n      dup1\n      iszero\n      tag_269\n      jumpi\n      0x00\n      dup1\n      revert\n    tag_269:\n      pop\n      tag_127\n      tag_271\n      jump\t// in\n        /* \"PoolPandorasSepolia.sol\":17386:17680  function assignUtilityETH(address user, uint256 amount) external onlyRole(ADMIN_ROLE) {... */\n    tag_37:\n      callvalue\n      dup1\n      iszero\n      tag_272\n      jumpi\n      0x00\n      dup1\n      revert\n    tag_272:\n      pop\n      tag_127\n      tag_274\n      calldatasize\n      0x04\n      tag_134\n      jump\t// in\n    tag_274:\n      tag_275\n      jump\t// in\n        /* \"PoolPandorasSepolia.sol\":13264:15577  function batchWithdraw(uint256[] calldata depositIndices) external nonReentrant whenWithdrawalsNotPaused {... */\n    tag_38:\n      callvalue\n      dup1\n      iszero\n      tag_276\n      jumpi\n      0x00\n      dup1\n      revert\n    tag_276:\n      pop\n      tag_127\n      tag_278\n      calldatasize\n      0x04\n      tag_279\n      jump\t// in\n    tag_278:\n      tag_280\n      jump\t// in\n        /* \"PoolPandorasSepolia.sol\":1718:1790  bytes32 public constant ADMIN_ROLE             = keccak256(\"ADMIN_ROLE\") */\n    tag_39:\n      callvalue\n      dup1\n      iszero\n      tag_281\n      jumpi\n      0x00\n      dup1\n      revert\n    tag_281:\n      pop\n      tag_120\n      0x00\n      dup1\n      mload\n      0x20\n      data_cb864c43dd5d441bb6271f424f11befa622c032dfd374d226e26fbbdb782b8f8\n      dup4\n      codecopy\n      dup2\n      mload\n      swap2\n      mstore\n      dup2\n      jump\n        /* \"PoolPandorasSepolia.sol\":17685:17983  function assignUtilityUSDC(address user, uint256 amount) external onlyRole(ADMIN_ROLE) {... */\n    tag_40:\n      callvalue\n      dup1\n      iszero\n      tag_285\n      jumpi\n      0x00\n      dup1\n      revert\n    tag_285:\n      pop\n      tag_127\n      tag_287\n      calldatasize\n      0x04\n      tag_134\n      jump\t// in\n    tag_287:\n      tag_288\n      jump\t// in\n        /* \"PoolPandorasSepolia.sol\":21215:21522  function withdrawUtilityUSDC(uint256 amount) external onlyRole(UTILITY_WITHDRAWER_ROLE) nonReentrant {... */\n    tag_41:\n      callvalue\n      dup1\n      iszero\n      tag_289\n      jumpi\n      0x00\n      dup1\n      revert\n    tag_289:\n      pop\n      tag_127\n      tag_291\n      calldatasize\n      0x04\n      tag_156\n      jump\t// in\n    tag_291:\n      tag_292\n      jump\t// in\n        /* \"@openzeppelin/contracts/metatx/ERC2771Context.sol\":1624:1731   */\n    tag_42:\n      callvalue\n      dup1\n      iszero\n      tag_293\n      jumpi\n      0x00\n      dup1\n      revert\n    tag_293:\n      pop\n        /* \"@openzeppelin/contracts/metatx/ERC2771Context.sol\":1707:1724   */\n      immutable(\"0x3ba75501f6cd0223a98b96be8ad3451b3d01eaca7baa725f5f33253f4bfb368f\")\n        /* \"@openzeppelin/contracts/metatx/ERC2771Context.sol\":1624:1731   */\n      jump(tag_205)\n        /* \"PoolPandorasSepolia.sol\":15636:16116  function unlockDepositsForUser(address user, uint256[] calldata depositIndices) external onlyRole(UNLOCKER_ROLE) {... */\n    tag_43:\n      callvalue\n      dup1\n      iszero\n      tag_298\n      jumpi\n      0x00\n      dup1\n      revert\n    tag_298:\n      pop\n      tag_127\n      tag_300\n      calldatasize\n      0x04\n      tag_301\n      jump\t// in\n    tag_300:\n      tag_302\n      jump\t// in\n        /* \"PoolPandorasSepolia.sol\":2045:2130  bytes32 public constant UTILITY_WITHDRAWER_ROLE= keccak256(\"UTILITY_WITHDRAWER_ROLE\") */\n    tag_44:\n      callvalue\n      dup1\n      iszero\n      tag_303\n      jumpi\n      0x00\n      dup1\n      revert\n    tag_303:\n      pop\n      tag_120\n        /* \"PoolPandorasSepolia.sol\":2094:2130  keccak256(\"UTILITY_WITHDRAWER_ROLE\") */\n      0x78c90eb9e475048b483a290aee04b5fe48355537c3623c7637b17d3bed71c6ed\n        /* \"PoolPandorasSepolia.sol\":2045:2130  bytes32 public constant UTILITY_WITHDRAWER_ROLE= keccak256(\"UTILITY_WITHDRAWER_ROLE\") */\n      dup2\n      jump\n        /* \"PoolPandorasSepolia.sol\":2803:2864  mapping(address => uint256)     public userTotalReinvestedETH */\n    tag_45:\n      callvalue\n      dup1\n      iszero\n      tag_307\n      jumpi\n      0x00\n      dup1\n      revert\n    tag_307:\n      pop\n      tag_120\n      tag_309\n      calldatasize\n      0x04\n      tag_122\n      jump\t// in\n    tag_309:\n      mstore(0x20, 0x0b)\n      0x00\n      swap1\n      dup2\n      mstore\n      0x40\n      swap1\n      keccak256\n      sload\n      dup2\n      jump\n        /* \"PoolPandorasSepolia.sol\":3072:3104  uint256 public totalDepositedETH */\n    tag_46:\n      callvalue\n      dup1\n      iszero\n      tag_312\n      jumpi\n      0x00\n      dup1\n      revert\n    tag_312:\n      pop\n      tag_120\n      sload(0x0f)\n      dup2\n      jump\n        /* \"PoolPandorasSepolia.sol\":8003:8260  function setUtilityAddress(address newUtilityAddress) external onlyRole(ADMIN_ROLE) {... */\n    tag_47:\n      callvalue\n      dup1\n      iszero\n      tag_316\n      jumpi\n      0x00\n      dup1\n      revert\n    tag_316:\n      pop\n      tag_127\n      tag_318\n      calldatasize\n      0x04\n      tag_122\n      jump\t// in\n    tag_318:\n      tag_319\n      jump\t// in\n        /* \"PoolPandorasSepolia.sol\":3149:3181  uint256 public totalWithdrawnETH */\n    tag_48:\n      callvalue\n      dup1\n      iszero\n      tag_320\n      jumpi\n      0x00\n      dup1\n      revert\n    tag_320:\n      pop\n      tag_120\n      sload(0x11)\n      dup2\n      jump\n        /* \"PoolPandorasSepolia.sol\":8780:9197  function withdrawForInvestmentUSDC(address to, uint256 amount) external onlyRole(MANAGER_ROLE) nonReentrant {... */\n    tag_49:\n      callvalue\n      dup1\n      iszero\n      tag_324\n      jumpi\n      0x00\n      dup1\n      revert\n    tag_324:\n      pop\n      tag_127\n      tag_326\n      calldatasize\n      0x04\n      tag_134\n      jump\t// in\n    tag_326:\n      tag_327\n      jump\t// in\n        /* \"@openzeppelin/contracts/access/AccessControl.sol\":2830:2966   */\n    tag_50:\n      callvalue\n      dup1\n      iszero\n      tag_328\n      jumpi\n      0x00\n      dup1\n      revert\n    tag_328:\n      pop\n      tag_113\n      tag_330\n      calldatasize\n      0x04\n      tag_184\n      jump\t// in\n    tag_330:\n        /* \"@openzeppelin/contracts/access/AccessControl.sol\":2907:2911   */\n      0x00\n        /* \"@openzeppelin/contracts/access/AccessControl.sol\":2930:2942   */\n      swap2\n      dup3\n      mstore\n      0x20\n      dup3\n      dup2\n      mstore\n      0x40\n      dup1\n      dup5\n      keccak256\n      sub(shl(0xa0, 0x01), 0x01)\n        /* \"@openzeppelin/contracts/access/AccessControl.sol\":2930:2959   */\n      swap4\n      swap1\n      swap4\n      and\n      dup5\n      mstore\n      swap2\n      swap1\n      mstore\n      swap1\n      keccak256\n      sload\n      0xff\n      and\n      swap1\n        /* \"@openzeppelin/contracts/access/AccessControl.sol\":2830:2966   */\n      jump\n        /* \"PoolPandorasSepolia.sol\":20774:21210  function withdrawUtilityETH(uint256 amount) external onlyRole(UTILITY_WITHDRAWER_ROLE) nonReentrant {... */\n    tag_51:\n      callvalue\n      dup1\n      iszero\n      tag_333\n      jumpi\n      0x00\n      dup1\n      revert\n    tag_333:\n      pop\n      tag_127\n      tag_335\n      calldatasize\n      0x04\n      tag_156\n      jump\t// in\n    tag_335:\n      tag_336\n      jump\t// in\n        /* \"PoolPandorasSepolia.sol\":3299:3332  uint256 public totalReinvestedETH */\n    tag_52:\n      callvalue\n      dup1\n      iszero\n      tag_337\n      jumpi\n      0x00\n      dup1\n      revert\n    tag_337:\n      pop\n      tag_120\n      sload(0x15)\n      dup2\n      jump\n        /* \"PoolPandorasSepolia.sol\":1321:1365  uint256 public maxCapETH   = 5_000_000 ether */\n    tag_53:\n      callvalue\n      dup1\n      iszero\n      tag_341\n      jumpi\n      0x00\n      dup1\n      revert\n    tag_341:\n      pop\n      tag_120\n      sload(0x03)\n      dup2\n      jump\n        /* \"PoolPandorasSepolia.sol\":3000:3031  address[] public withdrawnUsers */\n    tag_54:\n      callvalue\n      dup1\n      iszero\n      tag_345\n      jumpi\n      0x00\n      dup1\n      revert\n    tag_345:\n      pop\n      tag_205\n      tag_347\n      calldatasize\n      0x04\n      tag_156\n      jump\t// in\n    tag_347:\n      tag_348\n      jump\t// in\n        /* \"@openzeppelin/contracts/access/AccessControl.sol\":2196:2245   */\n    tag_55:\n      callvalue\n      dup1\n      iszero\n      tag_350\n      jumpi\n      0x00\n      dup1\n      revert\n    tag_350:\n      pop\n      tag_120\n        /* \"@openzeppelin/contracts/access/AccessControl.sol\":2241:2245   */\n      0x00\n        /* \"@openzeppelin/contracts/access/AccessControl.sol\":2196:2245   */\n      dup2\n      jump\n        /* \"PoolPandorasSepolia.sol\":21775:22771  function getVaultStats() external view returns (uint256 ethInVault, uint256 usdcInVault, uint256 totalDepositedETH_, uint256 totalDepositedUSDC_, uint256 totalWithdrawnETH_, uint256 totalWithdrawnUSDC_, uint256 totalUtilityETH_, uint256 totalUtilityUSDC_, uint256 totalReinvestedETH_, uint256 totalReinvestedUSDC_, uint256 totalInvestedETH_, uint256 totalInvestedUSDC_, uint256 numDepositors, uint256 numWithdrawnUsers) {... */\n    tag_56:\n      callvalue\n      dup1\n      iszero\n      tag_354\n      jumpi\n      0x00\n      dup1\n      revert\n    tag_354:\n      pop\n      tag_355\n      tag_356\n      jump\t// in\n    tag_355:\n      0x40\n      dup1\n      mload\n        /* \"#utility.yul\":10372:10397   */\n      swap15\n      dup16\n      mstore\n        /* \"#utility.yul\":10428:10430   */\n      0x20\n        /* \"#utility.yul\":10413:10431   */\n      dup16\n      add\n        /* \"#utility.yul\":10406:10440   */\n      swap14\n      swap1\n      swap14\n      mstore\n        /* \"#utility.yul\":10456:10474   */\n      swap12\n      dup14\n      add\n        /* \"#utility.yul\":10449:10483   */\n      swap11\n      swap1\n      swap11\n      mstore\n        /* \"#utility.yul\":10514:10516   */\n      0x60\n        /* \"#utility.yul\":10499:10517   */\n      dup13\n      add\n        /* \"#utility.yul\":10492:10526   */\n      swap9\n      swap1\n      swap9\n      mstore\n        /* \"#utility.yul\":10557:10560   */\n      0x80\n        /* \"#utility.yul\":10542:10561   */\n      dup12\n      add\n        /* \"#utility.yul\":10535:10570   */\n      swap7\n      swap1\n      swap7\n      mstore\n        /* \"#utility.yul\":10601:10604   */\n      0xa0\n        /* \"#utility.yul\":10586:10605   */\n      dup11\n      add\n        /* \"#utility.yul\":10579:10614   */\n      swap5\n      swap1\n      swap5\n      mstore\n        /* \"#utility.yul\":10645:10648   */\n      0xc0\n        /* \"#utility.yul\":10630:10649   */\n      dup10\n      add\n        /* \"#utility.yul\":10623:10658   */\n      swap3\n      swap1\n      swap3\n      mstore\n        /* \"#utility.yul\":10689:10692   */\n      0xe0\n        /* \"#utility.yul\":10674:10693   */\n      dup9\n      add\n        /* \"#utility.yul\":10667:10702   */\n      mstore\n        /* \"#utility.yul\":10733:10736   */\n      0x0100\n        /* \"#utility.yul\":10718:10737   */\n      dup8\n      add\n        /* \"#utility.yul\":10711:10746   */\n      mstore\n        /* \"#utility.yul\":10777:10780   */\n      0x0120\n        /* \"#utility.yul\":10762:10781   */\n      dup7\n      add\n        /* \"#utility.yul\":10755:10790   */\n      mstore\n        /* \"#utility.yul\":10821:10824   */\n      0x0140\n        /* \"#utility.yul\":10806:10825   */\n      dup6\n      add\n        /* \"#utility.yul\":10799:10835   */\n      mstore\n        /* \"#utility.yul\":10866:10869   */\n      0x0160\n        /* \"#utility.yul\":10851:10870   */\n      dup5\n      add\n        /* \"#utility.yul\":10844:10880   */\n      mstore\n        /* \"#utility.yul\":10911:10914   */\n      0x0180\n        /* \"#utility.yul\":10896:10915   */\n      dup4\n      add\n        /* \"#utility.yul\":10889:10925   */\n      mstore\n        /* \"#utility.yul\":10956:10959   */\n      0x01a0\n        /* \"#utility.yul\":10941:10960   */\n      dup3\n      add\n        /* \"#utility.yul\":10934:10970   */\n      mstore\n        /* \"#utility.yul\":10359:10362   */\n      0x01c0\n        /* \"#utility.yul\":10344:10363   */\n      add\n        /* \"PoolPandorasSepolia.sol\":21775:22771  function getVaultStats() external view returns (uint256 ethInVault, uint256 usdcInVault, uint256 totalDepositedETH_, uint256 totalDepositedUSDC_, uint256 totalWithdrawnETH_, uint256 totalWithdrawnUSDC_, uint256 totalUtilityETH_, uint256 totalUtilityUSDC_, uint256 totalReinvestedETH_, uint256 totalReinvestedUSDC_, uint256 totalInvestedETH_, uint256 totalInvestedUSDC_, uint256 numDepositors, uint256 numWithdrawnUsers) {... */\n      tag_117\n        /* \"#utility.yul\":9857:10976   */\n      jump\n        /* \"PoolPandorasSepolia.sol\":21527:21770  function rescueERC20(address token, address to, uint256 amount) external onlyRole(ADMIN_ROLE) {... */\n    tag_57:\n      callvalue\n      dup1\n      iszero\n      tag_359\n      jumpi\n      0x00\n      dup1\n      revert\n    tag_359:\n      pop\n      tag_127\n      tag_361\n      calldatasize\n      0x04\n      tag_362\n      jump\t// in\n    tag_361:\n      tag_363\n      jump\t// in\n        /* \"PoolPandorasSepolia.sol\":1486:1515  bool public pausedWithdrawals */\n    tag_58:\n      callvalue\n      dup1\n      iszero\n      tag_364\n      jumpi\n      0x00\n      dup1\n      revert\n    tag_364:\n      pop\n      sload(0x05)\n      tag_113\n      swap1\n      0x0100\n      swap1\n      div\n      0xff\n      and\n      dup2\n      jump\n        /* \"PoolPandorasSepolia.sol\":3226:3256  uint256 public totalUtilityETH */\n    tag_59:\n      callvalue\n      dup1\n      iszero\n      tag_368\n      jumpi\n      0x00\n      dup1\n      revert\n    tag_368:\n      pop\n      tag_120\n      sload(0x13)\n      dup2\n      jump\n        /* \"PoolPandorasSepolia.sol\":17988:18543  function assignUtilityETHBatch(address[] calldata users, uint256[] calldata amounts) external onlyRole(ADMIN_ROLE) {... */\n    tag_60:\n      callvalue\n      dup1\n      iszero\n      tag_372\n      jumpi\n      0x00\n      dup1\n      revert\n    tag_372:\n      pop\n      tag_127\n      tag_374\n      calldatasize\n      0x04\n      tag_212\n      jump\t// in\n    tag_374:\n      tag_375\n      jump\t// in\n        /* \"PoolPandorasSepolia.sol\":20317:20769  function reinvestUtilityUSDC() external nonReentrant {... */\n    tag_61:\n      callvalue\n      dup1\n      iszero\n      tag_376\n      jumpi\n      0x00\n      dup1\n      revert\n    tag_376:\n      pop\n      tag_127\n      tag_378\n      jump\t// in\n        /* \"PoolPandorasSepolia.sol\":8302:8775  function withdrawForInvestmentETH(address to, uint256 amount) external onlyRole(MANAGER_ROLE) nonReentrant {... */\n    tag_62:\n      callvalue\n      dup1\n      iszero\n      tag_379\n      jumpi\n      0x00\n      dup1\n      revert\n    tag_379:\n      pop\n      tag_127\n      tag_381\n      calldatasize\n      0x04\n      tag_134\n      jump\t// in\n    tag_381:\n      tag_382\n      jump\t// in\n        /* \"PoolPandorasSepolia.sol\":6692:6852  function setLockupPeriod(uint256 newPeriod) external onlyRole(ADMIN_ROLE) {... */\n    tag_63:\n      callvalue\n      dup1\n      iszero\n      tag_383\n      jumpi\n      0x00\n      dup1\n      revert\n    tag_383:\n      pop\n      tag_127\n      tag_385\n      calldatasize\n      0x04\n      tag_156\n      jump\t// in\n    tag_385:\n      tag_386\n      jump\t// in\n        /* \"@openzeppelin/contracts/access/AccessControl.sol\":4618:4756   */\n    tag_64:\n      callvalue\n      dup1\n      iszero\n      tag_387\n      jumpi\n      0x00\n      dup1\n      revert\n    tag_387:\n      pop\n      tag_127\n      tag_389\n      calldatasize\n      0x04\n      tag_184\n      jump\t// in\n    tag_389:\n      tag_390\n      jump\t// in\n        /* \"PoolPandorasSepolia.sol\":17002:17327  function injectUtilityUSDC(uint256 amount) external onlyRole(UTILITY_INJECTOR_ROLE) {... */\n    tag_65:\n      callvalue\n      dup1\n      iszero\n      tag_391\n      jumpi\n      0x00\n      dup1\n      revert\n    tag_391:\n      pop\n      tag_127\n      tag_393\n      calldatasize\n      0x04\n      tag_156\n      jump\t// in\n    tag_393:\n      tag_394\n      jump\t// in\n        /* \"PoolPandorasSepolia.sol\":16121:16432  function enableGlobalLiquidation() external onlyRole(ADMIN_ROLE) {... */\n    tag_66:\n      callvalue\n      dup1\n      iszero\n      tag_395\n      jumpi\n      0x00\n      dup1\n      revert\n    tag_395:\n      pop\n      tag_127\n      tag_397\n      jump\t// in\n        /* \"PoolPandorasSepolia.sol\":1875:1950  bytes32 public constant UNLOCKER_ROLE          = keccak256(\"UNLOCKER_ROLE\") */\n    tag_67:\n      callvalue\n      dup1\n      iszero\n      tag_398\n      jumpi\n      0x00\n      dup1\n      revert\n    tag_398:\n      pop\n      tag_120\n        /* \"PoolPandorasSepolia.sol\":1924:1950  keccak256(\"UNLOCKER_ROLE\") */\n      0xc806897caf4fd5068191157e44d3988e43139a37e0b97b6793e1ed1184140604\n        /* \"PoolPandorasSepolia.sol\":1875:1950  bytes32 public constant UNLOCKER_ROLE          = keccak256(\"UNLOCKER_ROLE\") */\n      dup2\n      jump\n        /* \"PoolPandorasSepolia.sol\":3338:3372  uint256 public totalReinvestedUSDC */\n    tag_68:\n      callvalue\n      dup1\n      iszero\n      tag_402\n      jumpi\n      0x00\n      dup1\n      revert\n    tag_402:\n      pop\n      tag_120\n      sload(0x16)\n      dup2\n      jump\n        /* \"PoolPandorasSepolia.sol\":3187:3220  uint256 public totalWithdrawnUSDC */\n    tag_69:\n      callvalue\n      dup1\n      iszero\n      tag_406\n      jumpi\n      0x00\n      dup1\n      revert\n    tag_406:\n      pop\n      tag_120\n      sload(0x12)\n      dup2\n      jump\n        /* \"PoolPandorasSepolia.sol\":19112:19511  function claimUtilityETH() external nonReentrant {... */\n    tag_70:\n      callvalue\n      dup1\n      iszero\n      tag_410\n      jumpi\n      0x00\n      dup1\n      revert\n    tag_410:\n      pop\n      tag_127\n      tag_412\n      jump\t// in\n        /* \"PoolPandorasSepolia.sol\":1796:1869  bytes32 public constant PAUSER_ROLE            = keccak256(\"PAUSER_ROLE\") */\n    tag_71:\n      callvalue\n      dup1\n      iszero\n      tag_413\n      jumpi\n      0x00\n      dup1\n      revert\n    tag_413:\n      pop\n      tag_120\n        /* \"PoolPandorasSepolia.sol\":1845:1869  keccak256(\"PAUSER_ROLE\") */\n      0x65d7a28e3265b37a6474929f336521b332c1681b933f6cb9f3376673440d862a\n        /* \"PoolPandorasSepolia.sol\":1796:1869  bytes32 public constant PAUSER_ROLE            = keccak256(\"PAUSER_ROLE\") */\n      dup2\n      jump\n        /* \"PoolPandorasSepolia.sol\":2734:2797  mapping(address => uint256)     public userClaimableUtilityUSDC */\n    tag_72:\n      callvalue\n      dup1\n      iszero\n      tag_417\n      jumpi\n      0x00\n      dup1\n      revert\n    tag_417:\n      pop\n      tag_120\n      tag_419\n      calldatasize\n      0x04\n      tag_122\n      jump\t// in\n    tag_419:\n      mstore(0x20, 0x0a)\n      0x00\n      swap1\n      dup2\n      mstore\n      0x40\n      swap1\n      keccak256\n      sload\n      dup2\n      jump\n        /* \"PoolPandorasSepolia.sol\":2136:2210  bytes32 public constant MANAGER_ROLE           = keccak256(\"MANAGER_ROLE\") */\n    tag_73:\n      callvalue\n      dup1\n      iszero\n      tag_422\n      jumpi\n      0x00\n      dup1\n      revert\n    tag_422:\n      pop\n      tag_120\n        /* \"PoolPandorasSepolia.sol\":2185:2210  keccak256(\"MANAGER_ROLE\") */\n      0x241ecf16d79d0f8dbfb92cbc07fe17840425976cf0667f022fe9877caa831b08\n        /* \"PoolPandorasSepolia.sol\":2136:2210  bytes32 public constant MANAGER_ROLE           = keccak256(\"MANAGER_ROLE\") */\n      dup2\n      jump\n        /* \"PoolPandorasSepolia.sol\":1277:1315  uint256 public lockupPeriod = 180 days */\n    tag_74:\n      callvalue\n      dup1\n      iszero\n      tag_426\n      jumpi\n      0x00\n      dup1\n      revert\n    tag_426:\n      pop\n      tag_120\n      sload(0x02)\n      dup2\n      jump\n        /* \"PoolPandorasSepolia.sol\":1644:1673  address public utilityAddress */\n    tag_75:\n      callvalue\n      dup1\n      iszero\n      tag_430\n      jumpi\n      0x00\n      dup1\n      revert\n    tag_430:\n      pop\n      sload(0x05)\n      tag_205\n      swap1\n      shl(0x50, 0x01)\n      swap1\n      div\n      sub(shl(0xa0, 0x01), 0x01)\n      and\n      dup2\n      jump\n        /* \"PoolPandorasSepolia.sol\":16437:16697  function setDepositsAsRedeemable(address user, uint256[] calldata depositIndices) external onlyRole(ADMIN_ROLE) {... */\n    tag_76:\n      callvalue\n      dup1\n      iszero\n      tag_434\n      jumpi\n      0x00\n      dup1\n      revert\n    tag_434:\n      pop\n      tag_127\n      tag_436\n      calldatasize\n      0x04\n      tag_301\n      jump\t// in\n    tag_436:\n      tag_437\n      jump\t// in\n        /* \"PoolPandorasSepolia.sol\":6857:7107  function setMaxCap(TokenType token, uint256 newCap) external onlyRole(ADMIN_ROLE) {... */\n    tag_77:\n      callvalue\n      dup1\n      iszero\n      tag_438\n      jumpi\n      0x00\n      dup1\n      revert\n    tag_438:\n      pop\n      tag_127\n      tag_440\n      calldatasize\n      0x04\n      tag_441\n      jump\t// in\n    tag_440:\n      tag_442\n      jump\t// in\n        /* \"PoolPandorasSepolia.sol\":10009:10427  function depositETH() external payable nonReentrant whenDepositsNotPaused {... */\n    tag_78:\n      tag_127\n      tag_444\n      jump\t// in\n        /* \"PoolPandorasSepolia.sol\":10432:10999  function depositUSDC(uint256 amount) external nonReentrant whenDepositsNotPaused {... */\n    tag_79:\n      callvalue\n      dup1\n      iszero\n      tag_445\n      jumpi\n      0x00\n      dup1\n      revert\n    tag_445:\n      pop\n      tag_127\n      tag_447\n      calldatasize\n      0x04\n      tag_156\n      jump\t// in\n    tag_447:\n      tag_448\n      jump\t// in\n        /* \"PoolPandorasSepolia.sol\":3378:3409  uint256 public totalInvestedETH */\n    tag_80:\n      callvalue\n      dup1\n      iszero\n      tag_449\n      jumpi\n      0x00\n      dup1\n      revert\n    tag_449:\n      pop\n      tag_120\n      sload(0x17)\n      dup2\n      jump\n        /* \"@openzeppelin/contracts/access/AccessControl.sol\":2541:2743   */\n    tag_116:\n        /* \"@openzeppelin/contracts/access/AccessControl.sol\":2626:2630   */\n      0x00\n      not(sub(shl(0xe0, 0x01), 0x01))\n        /* \"@openzeppelin/contracts/access/AccessControl.sol\":2649:2696   */\n      dup3\n      and\n      shl(0xe0, 0x7965db0b)\n      eq\n      dup1\n        /* \"@openzeppelin/contracts/access/AccessControl.sol\":2649:2736   */\n      tag_455\n      jumpi\n      pop\n      shl(0xe0, 0x01ffc9a7)\n      not(sub(shl(0xe0, 0x01), 0x01))\n        /* \"@openzeppelin/contracts/utils/introspection/ERC165.sol\":829:869   */\n      dup4\n      and\n      eq\n        /* \"@openzeppelin/contracts/access/AccessControl.sol\":2700:2736   */\n    tag_455:\n        /* \"@openzeppelin/contracts/access/AccessControl.sol\":2642:2736   */\n      swap3\n        /* \"@openzeppelin/contracts/access/AccessControl.sol\":2541:2743   */\n      swap2\n      pop\n      pop\n      jump\t// out\n        /* \"PoolPandorasSepolia.sol\":7342:7458  function setWhitelistEnabled(bool enabled) external onlyRole(ADMIN_ROLE) {... */\n    tag_130:\n      0x00\n      dup1\n      mload\n      0x20\n      data_cb864c43dd5d441bb6271f424f11befa622c032dfd374d226e26fbbdb782b8f8\n      dup4\n      codecopy\n      dup2\n      mload\n      swap2\n      mstore\n        /* \"@openzeppelin/contracts/access/AccessControl.sol\":2473:2489   */\n      tag_458\n        /* \"@openzeppelin/contracts/access/AccessControl.sol\":2484:2488   */\n      dup2\n        /* \"@openzeppelin/contracts/access/AccessControl.sol\":2473:2483   */\n      tag_459\n        /* \"@openzeppelin/contracts/access/AccessControl.sol\":2473:2489   */\n      jump\t// in\n    tag_458:\n      pop\n        /* \"PoolPandorasSepolia.sol\":7425:7441  whitelistEnabled */\n      0x05\n        /* \"PoolPandorasSepolia.sol\":7425:7451  whitelistEnabled = enabled */\n      dup1\n      sload\n      swap2\n      iszero\n      iszero\n      0x010000\n      mul\n      not(0xff0000)\n      swap1\n      swap3\n      and\n      swap2\n      swap1\n      swap2\n      or\n      swap1\n      sstore\n        /* \"PoolPandorasSepolia.sol\":7342:7458  function setWhitelistEnabled(bool enabled) external onlyRole(ADMIN_ROLE) {... */\n      jump\t// out\n        /* \"PoolPandorasSepolia.sol\":2492:2545  mapping(address => DepositInfo[]) public userDeposits */\n    tag_135:\n      mstore(0x20, 0x06)\n      dup2\n      0x00\n      mstore\n      keccak256(0x00, 0x40)\n      dup2\n      dup2\n      sload\n      dup2\n      lt\n      tag_461\n      jumpi\n      0x00\n      dup1\n      revert\n    tag_461:\n      0x00\n      swap2\n      dup3\n      mstore\n      0x20\n      swap1\n      swap2\n      keccak256\n      0x02\n      swap1\n      swap2\n      mul\n      add\n      dup1\n      sload\n      0x01\n      swap1\n      swap2\n      add\n      sload\n      sub(shl(0x60, 0x01), 0x01)\n      dup1\n      dup4\n      and\n      swap5\n      pop\n      shl(0x60, 0x01)\n      dup4\n      div\n      and\n      swap3\n      pop\n      0xffffffffffff\n      shl(0xc0, 0x01)\n      swap1\n      swap3\n      div\n      dup3\n      and\n      swap2\n      dup2\n      and\n      swap1\n      0xff\n      0x01000000000000\n      dup3\n      div\n      dup2\n      and\n      swap2\n      shl(0x38, 0x01)\n      swap1\n      div\n      and\n      dup7\n      jump\t// out\n        /* \"PoolPandorasSepolia.sol\":9202:9556  function returnInvestmentETH() external payable onlyRole(MANAGER_ROLE) nonReentrant {... */\n    tag_144:\n        /* \"PoolPandorasSepolia.sol\":2185:2210  keccak256(\"MANAGER_ROLE\") */\n      0x241ecf16d79d0f8dbfb92cbc07fe17840425976cf0667f022fe9877caa831b08\n        /* \"@openzeppelin/contracts/access/AccessControl.sol\":2473:2489   */\n      tag_464\n        /* \"@openzeppelin/contracts/access/AccessControl.sol\":2484:2488   */\n      dup2\n        /* \"@openzeppelin/contracts/access/AccessControl.sol\":2473:2483   */\n      tag_459\n        /* \"@openzeppelin/contracts/access/AccessControl.sol\":2473:2489   */\n      jump\t// in\n    tag_464:\n        /* \"@openzeppelin/contracts/utils/ReentrancyGuard.sol\":2500:2521   */\n      tag_466\n        /* \"@openzeppelin/contracts/utils/ReentrancyGuard.sol\":2500:2519   */\n      tag_467\n        /* \"@openzeppelin/contracts/utils/ReentrancyGuard.sol\":2500:2521   */\n      jump\t// in\n    tag_466:\n        /* \"PoolPandorasSepolia.sol\":9300:9309  msg.value */\n      callvalue\n        /* \"PoolPandorasSepolia.sol\":9313:9314  0 */\n      0x00\n        /* \"PoolPandorasSepolia.sol\":9300:9314  msg.value == 0 */\n      sub\n        /* \"PoolPandorasSepolia.sol\":9296:9338  if (msg.value == 0) revert InvalidAmount() */\n      tag_469\n      jumpi\n        /* \"PoolPandorasSepolia.sol\":9323:9338  InvalidAmount() */\n      mload(0x40)\n      shl(0xe1, 0x162908e3)\n      dup2\n      mstore\n      0x04\n      add\n      mload(0x40)\n      dup1\n      swap2\n      sub\n      swap1\n      revert\n        /* \"PoolPandorasSepolia.sol\":9296:9338  if (msg.value == 0) revert InvalidAmount() */\n    tag_469:\n        /* \"PoolPandorasSepolia.sol\":9364:9380  totalInvestedETH */\n      sload(0x17)\n        /* \"PoolPandorasSepolia.sol\":9352:9361  msg.value */\n      callvalue\n        /* \"PoolPandorasSepolia.sol\":9352:9380  msg.value > totalInvestedETH */\n      gt\n        /* \"PoolPandorasSepolia.sol\":9348:9420  if (msg.value > totalInvestedETH) revert ReturnedAmountExceedsInvested() */\n      iszero\n      tag_470\n      jumpi\n        /* \"PoolPandorasSepolia.sol\":9389:9420  ReturnedAmountExceedsInvested() */\n      mload(0x40)\n      shl(0xe2, 0x04711311)\n      dup2\n      mstore\n      0x04\n      add\n      mload(0x40)\n      dup1\n      swap2\n      sub\n      swap1\n      revert\n        /* \"PoolPandorasSepolia.sol\":9348:9420  if (msg.value > totalInvestedETH) revert ReturnedAmountExceedsInvested() */\n    tag_470:\n        /* \"PoolPandorasSepolia.sol\":9450:9459  msg.value */\n      callvalue\n        /* \"PoolPandorasSepolia.sol\":9430:9446  totalInvestedETH */\n      0x17\n      0x00\n        /* \"PoolPandorasSepolia.sol\":9430:9459  totalInvestedETH -= msg.value */\n      dup3\n      dup3\n      sload\n      tag_471\n      swap2\n      swap1\n      tag_472\n      jump\t// in\n    tag_471:\n      swap1\n      swap2\n      sstore\n      pop\n        /* \"PoolPandorasSepolia.sol\":9493:9505  _msgSender() */\n      tag_473\n      swap1\n      pop\n        /* \"PoolPandorasSepolia.sol\":9493:9503  _msgSender */\n      tag_474\n        /* \"PoolPandorasSepolia.sol\":9493:9505  _msgSender() */\n      jump\t// in\n    tag_473:\n      sub(shl(0xa0, 0x01), 0x01)\n        /* \"PoolPandorasSepolia.sol\":9474:9549  InvestmentReturned(_msgSender(), TokenType.ETH, msg.value, block.timestamp) */\n      and\n      0x1b0029d3a4003762f16d0dc71199ce167b1d4bf00c5b97a3e28f613e921d6540\n        /* \"PoolPandorasSepolia.sol\":9507:9520  TokenType.ETH */\n      0x00\n        /* \"PoolPandorasSepolia.sol\":9522:9531  msg.value */\n      callvalue\n        /* \"PoolPandorasSepolia.sol\":9533:9548  block.timestamp */\n      timestamp\n        /* \"PoolPandorasSepolia.sol\":9474:9549  InvestmentReturned(_msgSender(), TokenType.ETH, msg.value, block.timestamp) */\n      mload(0x40)\n      tag_475\n      swap4\n      swap3\n      swap2\n      swap1\n      tag_476\n      jump\t// in\n    tag_475:\n      mload(0x40)\n      dup1\n      swap2\n      sub\n      swap1\n      log2\n        /* \"@openzeppelin/contracts/utils/ReentrancyGuard.sol\":2542:2562   */\n      tag_477\n        /* \"@openzeppelin/contracts/utils/ReentrancyGuard.sol\":1857:1858   */\n      0x01\n        /* \"@openzeppelin/contracts/utils/ReentrancyGuard.sol\":3068:3089   */\n      dup1\n      sstore\n        /* \"@openzeppelin/contracts/utils/ReentrancyGuard.sol\":2888:3096   */\n      jump\n        /* \"@openzeppelin/contracts/utils/ReentrancyGuard.sol\":2542:2562   */\n    tag_477:\n        /* \"PoolPandorasSepolia.sol\":9202:9556  function returnInvestmentETH() external payable onlyRole(MANAGER_ROLE) nonReentrant {... */\n      pop\n      jump\t// out\n        /* \"PoolPandorasSepolia.sol\":19867:20312  function reinvestUtilityETH() external nonReentrant {... */\n    tag_165:\n        /* \"@openzeppelin/contracts/utils/ReentrancyGuard.sol\":2500:2521   */\n      tag_481\n        /* \"@openzeppelin/contracts/utils/ReentrancyGuard.sol\":2500:2519   */\n      tag_467\n        /* \"@openzeppelin/contracts/utils/ReentrancyGuard.sol\":2500:2521   */\n      jump\t// in\n    tag_481:\n        /* \"PoolPandorasSepolia.sol\":19929:19941  address user */\n      0x00\n        /* \"PoolPandorasSepolia.sol\":19944:19956  _msgSender() */\n      tag_483\n        /* \"PoolPandorasSepolia.sol\":19944:19954  _msgSender */\n      tag_474\n        /* \"PoolPandorasSepolia.sol\":19944:19956  _msgSender() */\n      jump\t// in\n    tag_483:\n      sub(shl(0xa0, 0x01), 0x01)\n        /* \"PoolPandorasSepolia.sol\":19980:20009  userClaimableUtilityETH[user] */\n      dup2\n      and\n        /* \"PoolPandorasSepolia.sol\":19966:19977  uint256 amt */\n      0x00\n        /* \"PoolPandorasSepolia.sol\":19980:20009  userClaimableUtilityETH[user] */\n      swap1\n      dup2\n      mstore\n        /* \"PoolPandorasSepolia.sol\":19980:20003  userClaimableUtilityETH */\n      0x09\n        /* \"PoolPandorasSepolia.sol\":19980:20009  userClaimableUtilityETH[user] */\n      0x20\n      mstore\n      0x40\n      dup2\n      keccak256\n      sload\n        /* \"PoolPandorasSepolia.sol\":19929:19956  address user = _msgSender() */\n      swap2\n      swap3\n      pop\n        /* \"PoolPandorasSepolia.sol\":20023:20031  amt == 0 */\n      dup2\n      swap1\n      sub\n        /* \"PoolPandorasSepolia.sol\":20019:20058  if (amt == 0) revert NoUtilityToClaim() */\n      tag_484\n      jumpi\n        /* \"PoolPandorasSepolia.sol\":20040:20058  NoUtilityToClaim() */\n      mload(0x40)\n      shl(0xe2, 0x3bd65a7b)\n      dup2\n      mstore\n      0x04\n      add\n      mload(0x40)\n      dup1\n      swap2\n      sub\n      swap1\n      revert\n        /* \"PoolPandorasSepolia.sol\":20019:20058  if (amt == 0) revert NoUtilityToClaim() */\n    tag_484:\n      sub(shl(0xa0, 0x01), 0x01)\n        /* \"PoolPandorasSepolia.sol\":20068:20097  userClaimableUtilityETH[user] */\n      dup3\n      and\n        /* \"PoolPandorasSepolia.sol\":20100:20101  0 */\n      0x00\n        /* \"PoolPandorasSepolia.sol\":20068:20097  userClaimableUtilityETH[user] */\n      swap1\n      dup2\n      mstore\n        /* \"PoolPandorasSepolia.sol\":20068:20091  userClaimableUtilityETH */\n      0x09\n        /* \"PoolPandorasSepolia.sol\":20068:20097  userClaimableUtilityETH[user] */\n      0x20\n      mstore\n      0x40\n      dup2\n      keccak256\n        /* \"PoolPandorasSepolia.sol\":20068:20101  userClaimableUtilityETH[user] = 0 */\n      dup2\n      swap1\n      sstore\n        /* \"PoolPandorasSepolia.sol\":20111:20159  _registerDeposit(user, TokenType.ETH, amt, true) */\n      tag_485\n      swap1\n        /* \"PoolPandorasSepolia.sol\":20092:20096  user */\n      dup4\n      swap1\n        /* \"PoolPandorasSepolia.sol\":20149:20152  amt */\n      dup4\n        /* \"PoolPandorasSepolia.sol\":20154:20158  true */\n      0x01\n        /* \"PoolPandorasSepolia.sol\":20111:20127  _registerDeposit */\n      tag_486\n        /* \"PoolPandorasSepolia.sol\":20111:20159  _registerDeposit(user, TokenType.ETH, amt, true) */\n      jump\t// in\n    tag_485:\n        /* \"PoolPandorasSepolia.sol\":20191:20194  amt */\n      dup1\n        /* \"PoolPandorasSepolia.sol\":20169:20187  totalReinvestedETH */\n      0x15\n      0x00\n        /* \"PoolPandorasSepolia.sol\":20169:20194  totalReinvestedETH += amt */\n      dup3\n      dup3\n      sload\n      tag_487\n      swap2\n      swap1\n      tag_488\n      jump\t// in\n    tag_487:\n      swap1\n      swap2\n      sstore\n      pop\n      pop\n      sub(shl(0xa0, 0x01), 0x01)\n        /* \"PoolPandorasSepolia.sol\":20204:20232  userTotalReinvestedETH[user] */\n      dup3\n      and\n      0x00\n      swap1\n      dup2\n      mstore\n        /* \"PoolPandorasSepolia.sol\":20204:20226  userTotalReinvestedETH */\n      0x0b\n        /* \"PoolPandorasSepolia.sol\":20204:20232  userTotalReinvestedETH[user] */\n      0x20\n      mstore\n      0x40\n      dup2\n      keccak256\n        /* \"PoolPandorasSepolia.sol\":20204:20239  userTotalReinvestedETH[user] += amt */\n      dup1\n      sload\n        /* \"PoolPandorasSepolia.sol\":20236:20239  amt */\n      dup4\n      swap3\n        /* \"PoolPandorasSepolia.sol\":20204:20232  userTotalReinvestedETH[user] */\n      swap1\n        /* \"PoolPandorasSepolia.sol\":20204:20239  userTotalReinvestedETH[user] += amt */\n      tag_489\n      swap1\n        /* \"PoolPandorasSepolia.sol\":20236:20239  amt */\n      dup5\n      swap1\n        /* \"PoolPandorasSepolia.sol\":20204:20239  userTotalReinvestedETH[user] += amt */\n      tag_488\n      jump\t// in\n    tag_489:\n      swap3\n      pop\n      pop\n      dup2\n      swap1\n      sstore\n      pop\n        /* \"PoolPandorasSepolia.sol\":20263:20267  user */\n      dup2\n      sub(shl(0xa0, 0x01), 0x01)\n        /* \"PoolPandorasSepolia.sol\":20254:20305  Reinvest(user, TokenType.ETH, amt, block.timestamp) */\n      and\n      0x997d2ec09b086de73d509bbc4ad2b52fd7e2338024464bede93a41abd6ccdc38\n        /* \"PoolPandorasSepolia.sol\":20269:20282  TokenType.ETH */\n      0x00\n        /* \"PoolPandorasSepolia.sol\":20284:20287  amt */\n      dup4\n        /* \"PoolPandorasSepolia.sol\":20289:20304  block.timestamp */\n      timestamp\n        /* \"PoolPandorasSepolia.sol\":20254:20305  Reinvest(user, TokenType.ETH, amt, block.timestamp) */\n      mload(0x40)\n      tag_490\n      swap4\n      swap3\n      swap2\n      swap1\n      tag_476\n      jump\t// in\n    tag_490:\n      mload(0x40)\n      dup1\n      swap2\n      sub\n      swap1\n      log2\n        /* \"PoolPandorasSepolia.sol\":19919:20312  {... */\n      pop\n      pop\n        /* \"@openzeppelin/contracts/utils/ReentrancyGuard.sol\":2542:2562   */\n      tag_491\n        /* \"@openzeppelin/contracts/utils/ReentrancyGuard.sol\":1857:1858   */\n      0x01\n        /* \"@openzeppelin/contracts/utils/ReentrancyGuard.sol\":3068:3089   */\n      dup1\n      sstore\n        /* \"@openzeppelin/contracts/utils/ReentrancyGuard.sol\":2888:3096   */\n      jump\n        /* \"@openzeppelin/contracts/utils/ReentrancyGuard.sol\":2542:2562   */\n    tag_491:\n        /* \"PoolPandorasSepolia.sol\":19867:20312  function reinvestUtilityETH() external nonReentrant {... */\n      jump\t// out\n        /* \"PoolPandorasSepolia.sol\":23835:23949  function getUserDeposits(address user) external view returns (DepositInfo[] memory) { return userDeposits[user]; } */\n    tag_169:\n      sub(shl(0xa0, 0x01), 0x01)\n        /* \"PoolPandorasSepolia.sol\":23928:23946  userDeposits[user] */\n      dup2\n      and\n      0x00\n      swap1\n      dup2\n      mstore\n        /* \"PoolPandorasSepolia.sol\":23928:23940  userDeposits */\n      0x06\n        /* \"PoolPandorasSepolia.sol\":23928:23946  userDeposits[user] */\n      0x20\n      swap1\n      dup2\n      mstore\n      0x40\n      dup1\n      dup4\n      keccak256\n        /* \"PoolPandorasSepolia.sol\":23921:23946  return userDeposits[user] */\n      dup1\n      sload\n      dup3\n      mload\n      dup2\n      dup6\n      mul\n      dup2\n      add\n      dup6\n      add\n      swap1\n      swap4\n      mstore\n      dup1\n      dup4\n      mstore\n        /* \"PoolPandorasSepolia.sol\":23897:23917  DepositInfo[] memory */\n      0x60\n      swap5\n        /* \"PoolPandorasSepolia.sol\":23921:23946  return userDeposits[user] */\n      swap3\n      swap4\n        /* \"PoolPandorasSepolia.sol\":23928:23946  userDeposits[user] */\n      swap2\n      swap3\n        /* \"PoolPandorasSepolia.sol\":23921:23946  return userDeposits[user] */\n      swap1\n      swap2\n      dup5\n      add\n    tag_493:\n      dup3\n      dup3\n      lt\n      iszero\n      tag_494\n      jumpi\n      0x00\n      dup5\n      dup2\n      mstore\n      0x20\n      swap1\n      dup2\n      swap1\n      keccak256\n      0x40\n      dup1\n      mload\n      0xc0\n      dup2\n      add\n      dup3\n      mstore\n      0x02\n      dup7\n      mul\n      swap1\n      swap3\n      add\n      dup1\n      sload\n      sub(shl(0x60, 0x01), 0x01)\n      dup1\n      dup3\n      and\n      dup6\n      mstore\n      shl(0x60, 0x01)\n      dup3\n      div\n      and\n      swap5\n      dup5\n      add\n      swap5\n      swap1\n      swap5\n      mstore\n      shl(0xc0, 0x01)\n      swap1\n      swap4\n      div\n      0xffffffffffff\n      swap1\n      dup2\n      and\n      swap2\n      dup4\n      add\n      swap2\n      swap1\n      swap2\n      mstore\n      0x01\n      dup1\n      dup5\n      add\n      sload\n      swap2\n      dup3\n      and\n      0x60\n      dup5\n      add\n      mstore\n      swap2\n      swap3\n      swap2\n      0x80\n      dup5\n      add\n      swap2\n      0x01000000000000\n      swap1\n      div\n      0xff\n      and\n      swap1\n      dup2\n      gt\n      iszero\n      tag_497\n      jumpi\n      tag_497\n      tag_498\n      jump\t// in\n    tag_497:\n      0x01\n      dup2\n      gt\n      iszero\n      tag_500\n      jumpi\n      tag_500\n      tag_498\n      jump\t// in\n    tag_500:\n      dup2\n      mstore\n      0x01\n      swap2\n      dup3\n      add\n      sload\n      shl(0x38, 0x01)\n      swap1\n      div\n      0xff\n      and\n      0x20\n      swap2\n      dup3\n      add\n      mstore\n      swap2\n      dup4\n      mstore\n      swap3\n      swap1\n      swap3\n      add\n      swap2\n      add\n      jump(tag_493)\n    tag_494:\n      pop\n      pop\n      pop\n      pop\n      swap1\n      pop\n        /* \"PoolPandorasSepolia.sol\":23835:23949  function getUserDeposits(address user) external view returns (DepositInfo[] memory) { return userDeposits[user]; } */\n      swap2\n      swap1\n      pop\n      jump\t// out\n        /* \"PoolPandorasSepolia.sol\":12032:13225  function withdraw(uint256 depositIndex) external nonReentrant whenWithdrawalsNotPaused {... */\n    tag_180:\n        /* \"@openzeppelin/contracts/utils/ReentrancyGuard.sol\":2500:2521   */\n      tag_502\n        /* \"@openzeppelin/contracts/utils/ReentrancyGuard.sol\":2500:2519   */\n      tag_467\n        /* \"@openzeppelin/contracts/utils/ReentrancyGuard.sol\":2500:2521   */\n      jump\t// in\n    tag_502:\n        /* \"PoolPandorasSepolia.sol\":5142:5159  pausedWithdrawals */\n      sload(0x05)\n      0x0100\n      swap1\n      div\n      0xff\n      and\n        /* \"PoolPandorasSepolia.sol\":5138:5187  if (pausedWithdrawals) revert WithdrawalsPaused() */\n      iszero\n      tag_504\n      jumpi\n        /* \"PoolPandorasSepolia.sol\":5168:5187  WithdrawalsPaused() */\n      mload(0x40)\n      shl(0xe0, 0x6022a9e7)\n      dup2\n      mstore\n      0x04\n      add\n      mload(0x40)\n      dup1\n      swap2\n      sub\n      swap1\n      revert\n        /* \"PoolPandorasSepolia.sol\":5138:5187  if (pausedWithdrawals) revert WithdrawalsPaused() */\n    tag_504:\n        /* \"PoolPandorasSepolia.sol\":12129:12141  address user */\n      0x00\n        /* \"PoolPandorasSepolia.sol\":12144:12156  _msgSender() */\n      tag_506\n        /* \"PoolPandorasSepolia.sol\":12144:12154  _msgSender */\n      tag_474\n        /* \"PoolPandorasSepolia.sol\":12144:12156  _msgSender() */\n      jump\t// in\n    tag_506:\n      sub(shl(0xa0, 0x01), 0x01)\n        /* \"PoolPandorasSepolia.sol\":12192:12210  userDeposits[user] */\n      dup2\n      and\n        /* \"PoolPandorasSepolia.sol\":12166:12189  DepositInfo storage dep */\n      0x00\n        /* \"PoolPandorasSepolia.sol\":12192:12210  userDeposits[user] */\n      swap1\n      dup2\n      mstore\n        /* \"PoolPandorasSepolia.sol\":12192:12204  userDeposits */\n      0x06\n        /* \"PoolPandorasSepolia.sol\":12192:12210  userDeposits[user] */\n      0x20\n      mstore\n      0x40\n      dup2\n      keccak256\n        /* \"PoolPandorasSepolia.sol\":12192:12224  userDeposits[user][depositIndex] */\n      dup1\n      sload\n        /* \"PoolPandorasSepolia.sol\":12129:12156  address user = _msgSender() */\n      swap3\n      swap4\n      pop\n        /* \"PoolPandorasSepolia.sol\":12166:12189  DepositInfo storage dep */\n      swap1\n      swap2\n        /* \"PoolPandorasSepolia.sol\":12211:12223  depositIndex */\n      dup5\n      swap1\n        /* \"PoolPandorasSepolia.sol\":12192:12224  userDeposits[user][depositIndex] */\n      dup2\n      lt\n      tag_508\n      jumpi\n      tag_508\n      tag_509\n      jump\t// in\n    tag_508:\n      0x00\n      swap2\n      dup3\n      mstore\n      0x20\n      swap1\n      swap2\n      keccak256\n        /* \"PoolPandorasSepolia.sol\":12251:12260  dep.flags */\n      0x01\n        /* \"PoolPandorasSepolia.sol\":12192:12224  userDeposits[user][depositIndex] */\n      0x02\n      swap1\n      swap3\n      mul\n      add\n        /* \"PoolPandorasSepolia.sol\":12251:12260  dep.flags */\n      dup2\n      dup2\n      add\n      sload\n        /* \"PoolPandorasSepolia.sol\":12192:12224  userDeposits[user][depositIndex] */\n      swap1\n      swap3\n      pop\n      shl(0x38, 0x01)\n        /* \"PoolPandorasSepolia.sol\":12251:12260  dep.flags */\n      swap1\n      div\n        /* \"PoolPandorasSepolia.sol\":11781:11797  flags & (1 << 0) */\n      and\n        /* \"PoolPandorasSepolia.sol\":11780:11803  (flags & (1 << 0)) != 0 */\n      iszero\n        /* \"PoolPandorasSepolia.sol\":12234:12288  if (_isWithdrawn(dep.flags)) revert AlreadyWithdrawn() */\n      tag_513\n      jumpi\n        /* \"PoolPandorasSepolia.sol\":12270:12288  AlreadyWithdrawn() */\n      mload(0x40)\n      shl(0xe0, 0x6507689f)\n      dup2\n      mstore\n      0x04\n      add\n      mload(0x40)\n      dup1\n      swap2\n      sub\n      swap1\n      revert\n        /* \"PoolPandorasSepolia.sol\":12234:12288  if (_isWithdrawn(dep.flags)) revert AlreadyWithdrawn() */\n    tag_513:\n        /* \"PoolPandorasSepolia.sol\":12336:12348  lockupPeriod */\n      sload(0x02)\n        /* \"PoolPandorasSepolia.sol\":12320:12333  dep.timestamp */\n      dup2\n      sload\n        /* \"PoolPandorasSepolia.sol\":12320:12348  dep.timestamp + lockupPeriod */\n      tag_514\n      swap2\n        /* \"PoolPandorasSepolia.sol\":12336:12348  lockupPeriod */\n      swap1\n      shl(0xc0, 0x01)\n        /* \"PoolPandorasSepolia.sol\":12320:12333  dep.timestamp */\n      swap1\n      div\n      0xffffffffffff\n      and\n        /* \"PoolPandorasSepolia.sol\":12320:12348  dep.timestamp + lockupPeriod */\n      tag_488\n      jump\t// in\n    tag_514:\n        /* \"PoolPandorasSepolia.sol\":12302:12317  block.timestamp */\n      timestamp\n        /* \"PoolPandorasSepolia.sol\":12302:12348  block.timestamp < dep.timestamp + lockupPeriod */\n      lt\n        /* \"PoolPandorasSepolia.sol\":12302:12382  block.timestamp < dep.timestamp + lockupPeriod && !_isUnlockedByAdmin(dep.flags) */\n      dup1\n      iszero\n      tag_515\n      jumpi\n      pop\n        /* \"PoolPandorasSepolia.sol\":12372:12381  dep.flags */\n      0x01\n      dup2\n      add\n      sload\n      shl(0x38, 0x01)\n      swap1\n      div\n        /* \"PoolPandorasSepolia.sol\":11900:11906  1 << 1 */\n      0x02\n        /* \"PoolPandorasSepolia.sol\":11891:11907  flags & (1 << 1) */\n      and\n        /* \"PoolPandorasSepolia.sol\":11890:11913  (flags & (1 << 1)) != 0 */\n      iszero\n        /* \"PoolPandorasSepolia.sol\":12302:12382  block.timestamp < dep.timestamp + lockupPeriod && !_isUnlockedByAdmin(dep.flags) */\n    tag_515:\n        /* \"PoolPandorasSepolia.sol\":12302:12446  block.timestamp < dep.timestamp + lockupPeriod && !_isUnlockedByAdmin(dep.flags) && !(globalLiquidationEnabled && _isFullyRedeemable(dep.flags)) */\n      dup1\n      iszero\n      tag_518\n      jumpi\n      pop\n        /* \"PoolPandorasSepolia.sol\":12388:12412  globalLiquidationEnabled */\n      sload(0x05)\n      0x01000000\n      swap1\n      div\n      0xff\n      and\n        /* \"PoolPandorasSepolia.sol\":12388:12445  globalLiquidationEnabled && _isFullyRedeemable(dep.flags) */\n      dup1\n      iszero\n      tag_520\n      jumpi\n      pop\n        /* \"PoolPandorasSepolia.sol\":12435:12444  dep.flags */\n      0x01\n      dup2\n      add\n      sload\n      shl(0x38, 0x01)\n      swap1\n      div\n        /* \"PoolPandorasSepolia.sol\":12010:12016  1 << 2 */\n      0x04\n        /* \"PoolPandorasSepolia.sol\":12001:12017  flags & (1 << 2) */\n      and\n        /* \"PoolPandorasSepolia.sol\":12000:12023  (flags & (1 << 2)) != 0 */\n      iszero\n      iszero\n        /* \"PoolPandorasSepolia.sol\":12416:12445  _isFullyRedeemable(dep.flags) */\n    tag_520:\n        /* \"PoolPandorasSepolia.sol\":12386:12446  !(globalLiquidationEnabled && _isFullyRedeemable(dep.flags)) */\n      iszero\n        /* \"PoolPandorasSepolia.sol\":12302:12446  block.timestamp < dep.timestamp + lockupPeriod && !_isUnlockedByAdmin(dep.flags) && !(globalLiquidationEnabled && _isFullyRedeemable(dep.flags)) */\n    tag_518:\n        /* \"PoolPandorasSepolia.sol\":12298:12495  if (block.timestamp < dep.timestamp + lockupPeriod && !_isUnlockedByAdmin(dep.flags) && !(globalLiquidationEnabled && _isFullyRedeemable(dep.flags))) {... */\n      iszero\n      tag_522\n      jumpi\n        /* \"PoolPandorasSepolia.sol\":12469:12484  DepositLocked() */\n      mload(0x40)\n      shl(0xe0, 0xf38b9b5b)\n      dup2\n      mstore\n      0x04\n      add\n      mload(0x40)\n      dup1\n      swap2\n      sub\n      swap1\n      revert\n        /* \"PoolPandorasSepolia.sol\":12298:12495  if (block.timestamp < dep.timestamp + lockupPeriod && !_isUnlockedByAdmin(dep.flags) && !(globalLiquidationEnabled && _isFullyRedeemable(dep.flags))) {... */\n    tag_522:\n        /* \"PoolPandorasSepolia.sol\":12516:12525  dep.flags */\n      0x01\n      dup2\n      dup2\n      add\n      dup1\n      sload\n      not(0xff00ffffffffffff)\n        /* \"PoolPandorasSepolia.sol\":12546:12587  dep.withdrawnAt = uint48(block.timestamp) */\n      dup2\n      and\n      shl(0x38, 0x01)\n        /* \"PoolPandorasSepolia.sol\":12516:12525  dep.flags */\n      swap2\n      dup3\n      swap1\n      div\n      0xff\n      and\n        /* \"PoolPandorasSepolia.sol\":12516:12536  dep.flags | (1 << 0) */\n      swap1\n      swap4\n      or\n        /* \"PoolPandorasSepolia.sol\":12504:12536  dep.flags = dep.flags | (1 << 0) */\n      mul\n      not(0xffffffffffff)\n        /* \"PoolPandorasSepolia.sol\":12546:12587  dep.withdrawnAt = uint48(block.timestamp) */\n      and\n      swap2\n      swap1\n      swap2\n      or\n        /* \"PoolPandorasSepolia.sol\":12571:12586  block.timestamp */\n      timestamp\n        /* \"PoolPandorasSepolia.sol\":12546:12587  dep.withdrawnAt = uint48(block.timestamp) */\n      0xffffffffffff\n      and\n      or\n      swap1\n      sstore\n        /* \"PoolPandorasSepolia.sol\":12617:12627  dep.amount */\n      dup1\n      sload\n      sub(shl(0x60, 0x01), 0x01)\n      dup1\n      dup3\n      and\n      swap2\n      shl(0x60, 0x01)\n        /* \"PoolPandorasSepolia.sol\":12657:12674  dep.yieldReceived */\n      swap1\n      div\n      and\n      0x00\n        /* \"PoolPandorasSepolia.sol\":12688:12697  dep.token */\n      0x01\n      dup5\n      dup2\n      add\n      sload\n      0x01000000000000\n      swap1\n      div\n      0xff\n      and\n      swap1\n        /* \"PoolPandorasSepolia.sol\":12688:12714  dep.token == TokenType.ETH */\n      dup2\n      gt\n      iszero\n      tag_526\n      jumpi\n      tag_526\n      tag_498\n      jump\t// in\n    tag_526:\n      sub\n        /* \"PoolPandorasSepolia.sol\":12684:13004  if (dep.token == TokenType.ETH) {... */\n      tag_527\n      jumpi\n        /* \"PoolPandorasSepolia.sol\":12751:12760  principal */\n      dup2\n        /* \"PoolPandorasSepolia.sol\":12730:12747  totalWithdrawnETH */\n      0x11\n      0x00\n        /* \"PoolPandorasSepolia.sol\":12730:12760  totalWithdrawnETH += principal */\n      dup3\n      dup3\n      sload\n      tag_528\n      swap2\n      swap1\n      tag_488\n      jump\t// in\n    tag_528:\n      swap1\n      swap2\n      sstore\n      pop\n        /* \"PoolPandorasSepolia.sol\":12775:12782  bool ok */\n      0x00\n      swap1\n      pop\n      sub(shl(0xa0, 0x01), 0x01)\n        /* \"PoolPandorasSepolia.sol\":12788:12797  user.call */\n      dup6\n      and\n        /* \"PoolPandorasSepolia.sol\":12805:12825  principal + yieldAmt */\n      tag_529\n        /* \"PoolPandorasSepolia.sol\":12817:12825  yieldAmt */\n      dup4\n        /* \"PoolPandorasSepolia.sol\":12805:12814  principal */\n      dup6\n        /* \"PoolPandorasSepolia.sol\":12805:12825  principal + yieldAmt */\n      tag_488\n      jump\t// in\n    tag_529:\n        /* \"PoolPandorasSepolia.sol\":12788:12830  user.call{value: principal + yieldAmt}(\"\") */\n      mload(0x40)\n      0x00\n      dup2\n      dup2\n      dup2\n      dup6\n      dup8\n      gas\n      call\n      swap3\n      pop\n      pop\n      pop\n      returndatasize\n      dup1\n      0x00\n      dup2\n      eq\n      tag_534\n      jumpi\n      mload(0x40)\n      swap2\n      pop\n      and(add(returndatasize, 0x3f), not(0x1f))\n      dup3\n      add\n      0x40\n      mstore\n      returndatasize\n      dup3\n      mstore\n      returndatasize\n      0x00\n      0x20\n      dup5\n      add\n      returndatacopy\n      jump(tag_533)\n    tag_534:\n      0x60\n      swap2\n      pop\n    tag_533:\n      pop\n        /* \"PoolPandorasSepolia.sol\":12774:12830  (bool ok, ) = user.call{value: principal + yieldAmt}(\"\") */\n      pop\n      swap1\n      pop\n        /* \"PoolPandorasSepolia.sol\":12849:12851  ok */\n      dup1\n        /* \"PoolPandorasSepolia.sol\":12844:12876  if (!ok) revert TransferFailed() */\n      tag_535\n      jumpi\n        /* \"PoolPandorasSepolia.sol\":12860:12876  TransferFailed() */\n      mload(0x40)\n      shl(0xe3, 0x12171d83)\n      dup2\n      mstore\n      0x04\n      add\n      mload(0x40)\n      dup1\n      swap2\n      sub\n      swap1\n      revert\n        /* \"PoolPandorasSepolia.sol\":12844:12876  if (!ok) revert TransferFailed() */\n    tag_535:\n        /* \"PoolPandorasSepolia.sol\":12716:12887  {... */\n      pop\n        /* \"PoolPandorasSepolia.sol\":12684:13004  if (dep.token == TokenType.ETH) {... */\n      jump(tag_536)\n    tag_527:\n        /* \"PoolPandorasSepolia.sol\":12929:12938  principal */\n      dup2\n        /* \"PoolPandorasSepolia.sol\":12907:12925  totalWithdrawnUSDC */\n      0x12\n      0x00\n        /* \"PoolPandorasSepolia.sol\":12907:12938  totalWithdrawnUSDC += principal */\n      dup3\n      dup3\n      sload\n      tag_537\n      swap2\n      swap1\n      tag_488\n      jump\t// in\n    tag_537:\n      swap1\n      swap2\n      sstore\n      pop\n      pop\n      sub(shl(0xa0, 0x01), 0x01)\n        /* \"PoolPandorasSepolia.sol\":12952:12956  usdc */\n      immutable(\"0xb4da3a56484909ee405b9f4762910b7212e7eaa07e3685955dc8557a668fa7ea\")\n        /* \"PoolPandorasSepolia.sol\":12952:12965  usdc.transfer */\n      and\n      0xa9059cbb\n        /* \"PoolPandorasSepolia.sol\":12966:12970  user */\n      dup6\n        /* \"PoolPandorasSepolia.sol\":12972:12992  principal + yieldAmt */\n      tag_538\n        /* \"PoolPandorasSepolia.sol\":12984:12992  yieldAmt */\n      dup5\n        /* \"PoolPandorasSepolia.sol\":12972:12981  principal */\n      dup7\n        /* \"PoolPandorasSepolia.sol\":12972:12992  principal + yieldAmt */\n      tag_488\n      jump\t// in\n    tag_538:\n        /* \"PoolPandorasSepolia.sol\":12952:12993  usdc.transfer(user, principal + yieldAmt) */\n      mload(0x40)\n      not(sub(shl(0xe0, 0x01), 0x01))\n      0xe0\n      dup6\n      swap1\n      shl\n      and\n      dup2\n      mstore\n      sub(shl(0xa0, 0x01), 0x01)\n        /* \"#utility.yul\":12941:12996   */\n      swap1\n      swap3\n      and\n        /* \"PoolPandorasSepolia.sol\":12952:12993  usdc.transfer(user, principal + yieldAmt) */\n      0x04\n      dup4\n      add\n        /* \"#utility.yul\":12923:12997   */\n      mstore\n        /* \"#utility.yul\":13013:13031   */\n      0x24\n      dup3\n      add\n        /* \"#utility.yul\":13006:13040   */\n      mstore\n        /* \"#utility.yul\":12896:12914   */\n      0x44\n      add\n        /* \"PoolPandorasSepolia.sol\":12952:12993  usdc.transfer(user, principal + yieldAmt) */\n      0x20\n      mload(0x40)\n      dup1\n      dup4\n      sub\n      dup2\n      0x00\n      dup8\n      gas\n      call\n      iszero\n      dup1\n      iszero\n      tag_542\n      jumpi\n      returndatasize\n      0x00\n      dup1\n      returndatacopy\n      revert(0x00, returndatasize)\n    tag_542:\n      pop\n      pop\n      pop\n      pop\n      mload(0x40)\n      returndatasize\n      not(0x1f)\n      0x1f\n      dup3\n      add\n      and\n      dup3\n      add\n      dup1\n      0x40\n      mstore\n      pop\n      dup2\n      add\n      swap1\n      tag_543\n      swap2\n      swap1\n      tag_544\n      jump\t// in\n    tag_543:\n      pop\n        /* \"PoolPandorasSepolia.sol\":12684:13004  if (dep.token == TokenType.ETH) {... */\n    tag_536:\n      sub(shl(0xa0, 0x01), 0x01)\n        /* \"PoolPandorasSepolia.sol\":13018:13036  hasWithdrawn[user] */\n      dup5\n      and\n      0x00\n      swap1\n      dup2\n      mstore\n        /* \"PoolPandorasSepolia.sol\":13018:13030  hasWithdrawn */\n      0x08\n        /* \"PoolPandorasSepolia.sol\":13018:13036  hasWithdrawn[user] */\n      0x20\n      mstore\n      0x40\n      swap1\n      keccak256\n      sload\n      0xff\n      and\n        /* \"PoolPandorasSepolia.sol\":13013:13127  if (!hasWithdrawn[user]) {... */\n      tag_545\n      jumpi\n        /* \"PoolPandorasSepolia.sol\":13052:13066  withdrawnUsers */\n      0x0e\n        /* \"PoolPandorasSepolia.sol\":13052:13077  withdrawnUsers.push(user) */\n      dup1\n      sload\n      0x01\n      dup1\n      dup3\n      add\n      swap1\n      swap3\n      sstore\n      0xbb7b4a454dc3493923482f07822329ed19e8244eff582cc204f8554c3620c3fd\n      add\n      dup1\n      sload\n      not(0xffffffffffffffffffffffffffffffffffffffff)\n      and\n      sub(shl(0xa0, 0x01), 0x01)\n      dup8\n      and\n      swap1\n      dup2\n      or\n      swap1\n      swap2\n      sstore\n      0x00\n        /* \"PoolPandorasSepolia.sol\":13091:13109  hasWithdrawn[user] */\n      swap1\n      dup2\n      mstore\n        /* \"PoolPandorasSepolia.sol\":13091:13103  hasWithdrawn */\n      0x08\n        /* \"PoolPandorasSepolia.sol\":13052:13077  withdrawnUsers.push(user) */\n      0x20\n        /* \"PoolPandorasSepolia.sol\":13091:13109  hasWithdrawn[user] */\n      mstore\n      0x40\n      swap1\n      keccak256\n        /* \"PoolPandorasSepolia.sol\":13091:13116  hasWithdrawn[user] = true */\n      dup1\n      sload\n      not(0xff)\n      and\n      swap1\n      swap2\n      or\n      swap1\n      sstore\n        /* \"PoolPandorasSepolia.sol\":13013:13127  if (!hasWithdrawn[user]) {... */\n    tag_545:\n        /* \"PoolPandorasSepolia.sol\":13156:13165  dep.token */\n      0x01\n      dup4\n      add\n      sload\n        /* \"PoolPandorasSepolia.sol\":13141:13218  Withdraw(user, dep.token, principal, yieldAmt, block.timestamp, depositIndex) */\n      mload(0x40)\n      sub(shl(0xa0, 0x01), 0x01)\n      dup7\n      and\n      swap2\n      0xcb034b37ef3764745c35bafecd525367bcf312e9010239e6aeebbe6bcf57727f\n      swap2\n      tag_547\n      swap2\n        /* \"PoolPandorasSepolia.sol\":13156:13165  dep.token */\n      0x01000000000000\n      swap1\n      div\n      0xff\n      and\n      swap1\n        /* \"PoolPandorasSepolia.sol\":13167:13176  principal */\n      dup7\n      swap1\n        /* \"PoolPandorasSepolia.sol\":13178:13186  yieldAmt */\n      dup7\n      swap1\n        /* \"PoolPandorasSepolia.sol\":13188:13203  block.timestamp */\n      timestamp\n      swap1\n        /* \"PoolPandorasSepolia.sol\":13205:13217  depositIndex */\n      dup13\n      swap1\n        /* \"PoolPandorasSepolia.sol\":13141:13218  Withdraw(user, dep.token, principal, yieldAmt, block.timestamp, depositIndex) */\n      tag_548\n      jump\t// in\n    tag_547:\n      mload(0x40)\n      dup1\n      swap2\n      sub\n      swap1\n      log2\n        /* \"PoolPandorasSepolia.sol\":12119:13225  {... */\n      pop\n      pop\n      pop\n      pop\n        /* \"@openzeppelin/contracts/utils/ReentrancyGuard.sol\":2542:2562   */\n      tag_477\n        /* \"@openzeppelin/contracts/utils/ReentrancyGuard.sol\":1857:1858   */\n      0x01\n        /* \"@openzeppelin/contracts/utils/ReentrancyGuard.sol\":3068:3089   */\n      dup1\n      sstore\n        /* \"@openzeppelin/contracts/utils/ReentrancyGuard.sol\":2888:3096   */\n      jump\n        /* \"@openzeppelin/contracts/access/AccessControl.sol\":4202:4338   */\n    tag_185:\n        /* \"@openzeppelin/contracts/access/AccessControl.sol\":3851:3858   */\n      0x00\n        /* \"@openzeppelin/contracts/access/AccessControl.sol\":3877:3889   */\n      dup3\n      dup2\n      mstore\n      0x20\n      dup2\n      swap1\n      mstore\n      0x40\n      swap1\n      keccak256\n        /* \"@openzeppelin/contracts/access/AccessControl.sol\":3877:3899   */\n      0x01\n      add\n      sload\n        /* \"@openzeppelin/contracts/access/AccessControl.sol\":2473:2489   */\n      tag_552\n        /* \"@openzeppelin/contracts/access/AccessControl.sol\":2484:2488   */\n      dup2\n        /* \"@openzeppelin/contracts/access/AccessControl.sol\":2473:2483   */\n      tag_459\n        /* \"@openzeppelin/contracts/access/AccessControl.sol\":2473:2489   */\n      jump\t// in\n    tag_552:\n        /* \"@openzeppelin/contracts/access/AccessControl.sol\":4306:4331   */\n      tag_554\n        /* \"@openzeppelin/contracts/access/AccessControl.sol\":4317:4321   */\n      dup4\n        /* \"@openzeppelin/contracts/access/AccessControl.sol\":4323:4330   */\n      dup4\n        /* \"@openzeppelin/contracts/access/AccessControl.sol\":4306:4316   */\n      tag_555\n        /* \"@openzeppelin/contracts/access/AccessControl.sol\":4306:4331   */\n      jump\t// in\n    tag_554:\n      pop\n        /* \"@openzeppelin/contracts/access/AccessControl.sol\":4202:4338   */\n      pop\n      pop\n      pop\n      jump\t// out\n        /* \"@openzeppelin/contracts/access/AccessControl.sol\":5304:5549   */\n    tag_194:\n        /* \"@openzeppelin/contracts/access/AccessControl.sol\":5419:5431   */\n      tag_557\n        /* \"@openzeppelin/contracts/access/AccessControl.sol\":5419:5429   */\n      tag_474\n        /* \"@openzeppelin/contracts/access/AccessControl.sol\":5419:5431   */\n      jump\t// in\n    tag_557:\n      sub(shl(0xa0, 0x01), 0x01)\n        /* \"@openzeppelin/contracts/access/AccessControl.sol\":5397:5431   */\n      and\n        /* \"@openzeppelin/contracts/access/AccessControl.sol\":5397:5415   */\n      dup2\n      sub(shl(0xa0, 0x01), 0x01)\n        /* \"@openzeppelin/contracts/access/AccessControl.sol\":5397:5431   */\n      and\n      eq\n        /* \"@openzeppelin/contracts/access/AccessControl.sol\":5393:5495   */\n      tag_558\n      jumpi\n        /* \"@openzeppelin/contracts/access/AccessControl.sol\":5454:5484   */\n      mload(0x40)\n      shl(0xe1, 0x334bd919)\n      dup2\n      mstore\n      0x04\n      add\n      mload(0x40)\n      dup1\n      swap2\n      sub\n      swap1\n      revert\n        /* \"@openzeppelin/contracts/access/AccessControl.sol\":5393:5495   */\n    tag_558:\n        /* \"@openzeppelin/contracts/access/AccessControl.sol\":5505:5542   */\n      tag_559\n        /* \"@openzeppelin/contracts/access/AccessControl.sol\":5517:5521   */\n      dup3\n        /* \"@openzeppelin/contracts/access/AccessControl.sol\":5523:5541   */\n      dup3\n        /* \"@openzeppelin/contracts/access/AccessControl.sol\":5505:5516   */\n      tag_560\n        /* \"@openzeppelin/contracts/access/AccessControl.sol\":5505:5542   */\n      jump\t// in\n    tag_559:\n      pop\n        /* \"@openzeppelin/contracts/access/AccessControl.sol\":5304:5549   */\n      pop\n      pop\n      jump\t// out\n        /* \"PoolPandorasSepolia.sol\":18548:19107  function assignUtilityUSDCBatch(address[] calldata users, uint256[] calldata amounts) external onlyRole(ADMIN_ROLE) {... */\n    tag_213:\n      0x00\n      dup1\n      mload\n      0x20\n      data_cb864c43dd5d441bb6271f424f11befa622c032dfd374d226e26fbbdb782b8f8\n      dup4\n      codecopy\n      dup2\n      mload\n      swap2\n      mstore\n        /* \"@openzeppelin/contracts/access/AccessControl.sol\":2473:2489   */\n      tag_562\n        /* \"@openzeppelin/contracts/access/AccessControl.sol\":2484:2488   */\n      dup2\n        /* \"@openzeppelin/contracts/access/AccessControl.sol\":2473:2483   */\n      tag_459\n        /* \"@openzeppelin/contracts/access/AccessControl.sol\":2473:2489   */\n      jump\t// in\n    tag_562:\n        /* \"PoolPandorasSepolia.sol\":18678:18708  users.length != amounts.length */\n      dup4\n      dup3\n      eq\n        /* \"PoolPandorasSepolia.sol\":18674:18738  if (users.length != amounts.length) revert ArrayLengthMismatch() */\n      tag_564\n      jumpi\n        /* \"PoolPandorasSepolia.sol\":18717:18738  ArrayLengthMismatch() */\n      mload(0x40)\n      shl(0xe1, 0x512509d3)\n      dup2\n      mstore\n      0x04\n      add\n      mload(0x40)\n      dup1\n      swap2\n      sub\n      swap1\n      revert\n        /* \"PoolPandorasSepolia.sol\":18674:18738  if (users.length != amounts.length) revert ArrayLengthMismatch() */\n    tag_564:\n        /* \"PoolPandorasSepolia.sol\":18748:18759  uint256 sum */\n      0x00\n      dup1\n        /* \"PoolPandorasSepolia.sol\":18769:19002  for (uint256 i = 0; i < users.length; i++) {... */\n    tag_565:\n        /* \"PoolPandorasSepolia.sol\":18789:18805  i < users.length */\n      dup6\n      dup2\n      lt\n        /* \"PoolPandorasSepolia.sol\":18769:19002  for (uint256 i = 0; i < users.length; i++) {... */\n      iszero\n      tag_566\n      jumpi\n        /* \"PoolPandorasSepolia.sol\":18826:18840  uint256 amount */\n      0x00\n        /* \"PoolPandorasSepolia.sol\":18843:18850  amounts */\n      dup6\n      dup6\n        /* \"PoolPandorasSepolia.sol\":18851:18852  i */\n      dup4\n        /* \"PoolPandorasSepolia.sol\":18843:18853  amounts[i] */\n      dup2\n      dup2\n      lt\n      tag_569\n      jumpi\n      tag_569\n      tag_509\n      jump\t// in\n    tag_569:\n      swap1\n      pop\n      0x20\n      mul\n      add\n      calldataload\n        /* \"PoolPandorasSepolia.sol\":18826:18853  uint256 amount = amounts[i] */\n      swap1\n      pop\n        /* \"PoolPandorasSepolia.sol\":18871:18877  amount */\n      dup1\n        /* \"PoolPandorasSepolia.sol\":18881:18882  0 */\n      0x00\n        /* \"PoolPandorasSepolia.sol\":18871:18882  amount == 0 */\n      sub\n        /* \"PoolPandorasSepolia.sol\":18867:18906  if (amount == 0) revert InvalidAmount() */\n      tag_570\n      jumpi\n        /* \"PoolPandorasSepolia.sol\":18891:18906  InvalidAmount() */\n      mload(0x40)\n      shl(0xe1, 0x162908e3)\n      dup2\n      mstore\n      0x04\n      add\n      mload(0x40)\n      dup1\n      swap2\n      sub\n      swap1\n      revert\n        /* \"PoolPandorasSepolia.sol\":18867:18906  if (amount == 0) revert InvalidAmount() */\n    tag_570:\n        /* \"PoolPandorasSepolia.sol\":18958:18964  amount */\n      dup1\n        /* \"PoolPandorasSepolia.sol\":18920:18944  userClaimableUtilityUSDC */\n      0x0a\n        /* \"PoolPandorasSepolia.sol\":18920:18954  userClaimableUtilityUSDC[users[i]] */\n      0x00\n        /* \"PoolPandorasSepolia.sol\":18945:18950  users */\n      dup11\n      dup11\n        /* \"PoolPandorasSepolia.sol\":18951:18952  i */\n      dup7\n        /* \"PoolPandorasSepolia.sol\":18945:18953  users[i] */\n      dup2\n      dup2\n      lt\n      tag_572\n      jumpi\n      tag_572\n      tag_509\n      jump\t// in\n    tag_572:\n      swap1\n      pop\n      0x20\n      mul\n      add\n      0x20\n      dup2\n      add\n      swap1\n      tag_573\n      swap2\n      swap1\n      tag_122\n      jump\t// in\n    tag_573:\n      sub(shl(0xa0, 0x01), 0x01)\n        /* \"PoolPandorasSepolia.sol\":18920:18954  userClaimableUtilityUSDC[users[i]] */\n      and\n      sub(shl(0xa0, 0x01), 0x01)\n      and\n      dup2\n      mstore\n      0x20\n      add\n      swap1\n      dup2\n      mstore\n      0x20\n      add\n      0x00\n      keccak256\n      0x00\n        /* \"PoolPandorasSepolia.sol\":18920:18964  userClaimableUtilityUSDC[users[i]] += amount */\n      dup3\n      dup3\n      sload\n      tag_574\n      swap2\n      swap1\n      tag_488\n      jump\t// in\n    tag_574:\n      swap1\n      swap2\n      sstore\n      pop\n        /* \"PoolPandorasSepolia.sol\":18978:18991  sum += amount */\n      tag_575\n      swap1\n      pop\n        /* \"PoolPandorasSepolia.sol\":18985:18991  amount */\n      dup2\n        /* \"PoolPandorasSepolia.sol\":18978:18991  sum += amount */\n      dup5\n      tag_488\n      jump\t// in\n    tag_575:\n      swap3\n      pop\n      pop\n        /* \"PoolPandorasSepolia.sol\":18807:18810  i++ */\n      0x01\n      add\n        /* \"PoolPandorasSepolia.sol\":18769:19002  for (uint256 i = 0; i < users.length; i++) {... */\n      jump(tag_565)\n    tag_566:\n      pop\n        /* \"PoolPandorasSepolia.sol\":19021:19037  totalUtilityUSDC */\n      sload(0x14)\n        /* \"PoolPandorasSepolia.sol\":19015:19018  sum */\n      dup2\n        /* \"PoolPandorasSepolia.sol\":19015:19037  sum > totalUtilityUSDC */\n      gt\n        /* \"PoolPandorasSepolia.sol\":19011:19067  if (sum > totalUtilityUSDC) revert ExceedsTotalUtility() */\n      iszero\n      tag_576\n      jumpi\n        /* \"PoolPandorasSepolia.sol\":19046:19067  ExceedsTotalUtility() */\n      mload(0x40)\n      shl(0xe0, 0x2f37549d)\n      dup2\n      mstore\n      0x04\n      add\n      mload(0x40)\n      dup1\n      swap2\n      sub\n      swap1\n      revert\n        /* \"PoolPandorasSepolia.sol\":19011:19067  if (sum > totalUtilityUSDC) revert ExceedsTotalUtility() */\n    tag_576:\n        /* \"PoolPandorasSepolia.sol\":19097:19100  sum */\n      dup1\n        /* \"PoolPandorasSepolia.sol\":19077:19093  totalUtilityUSDC */\n      0x14\n      0x00\n        /* \"PoolPandorasSepolia.sol\":19077:19100  totalUtilityUSDC -= sum */\n      dup3\n      dup3\n      sload\n      tag_577\n      swap2\n      swap1\n      tag_472\n      jump\t// in\n    tag_577:\n      swap1\n      swap2\n      sstore\n      pop\n      pop\n      pop\n      pop\n      pop\n      pop\n      pop\n      pop\n        /* \"PoolPandorasSepolia.sol\":18548:19107  function assignUtilityUSDCBatch(address[] calldata users, uint256[] calldata amounts) external onlyRole(ADMIN_ROLE) {... */\n      jump\t// out\n        /* \"PoolPandorasSepolia.sol\":7636:7998  function setWhitelistBatch(address[] calldata users, bool[] calldata statuses) external onlyRole(ADMIN_ROLE) {... */\n    tag_218:\n      0x00\n      dup1\n      mload\n      0x20\n      data_cb864c43dd5d441bb6271f424f11befa622c032dfd374d226e26fbbdb782b8f8\n      dup4\n      codecopy\n      dup2\n      mload\n      swap2\n      mstore\n        /* \"@openzeppelin/contracts/access/AccessControl.sol\":2473:2489   */\n      tag_579\n        /* \"@openzeppelin/contracts/access/AccessControl.sol\":2484:2488   */\n      dup2\n        /* \"@openzeppelin/contracts/access/AccessControl.sol\":2473:2483   */\n      tag_459\n        /* \"@openzeppelin/contracts/access/AccessControl.sol\":2473:2489   */\n      jump\t// in\n    tag_579:\n        /* \"PoolPandorasSepolia.sol\":7759:7790  users.length != statuses.length */\n      dup4\n      dup3\n      eq\n        /* \"PoolPandorasSepolia.sol\":7755:7820  if (users.length != statuses.length) revert ArrayLengthMismatch() */\n      tag_581\n      jumpi\n        /* \"PoolPandorasSepolia.sol\":7799:7820  ArrayLengthMismatch() */\n      mload(0x40)\n      shl(0xe1, 0x512509d3)\n      dup2\n      mstore\n      0x04\n      add\n      mload(0x40)\n      dup1\n      swap2\n      sub\n      swap1\n      revert\n        /* \"PoolPandorasSepolia.sol\":7755:7820  if (users.length != statuses.length) revert ArrayLengthMismatch() */\n    tag_581:\n        /* \"PoolPandorasSepolia.sol\":7835:7844  uint256 i */\n      0x00\n        /* \"PoolPandorasSepolia.sol\":7830:7992  for (uint256 i = 0; i < users.length; i++) {... */\n    tag_582:\n        /* \"PoolPandorasSepolia.sol\":7850:7866  i < users.length */\n      dup5\n      dup2\n      lt\n        /* \"PoolPandorasSepolia.sol\":7830:7992  for (uint256 i = 0; i < users.length; i++) {... */\n      iszero\n      tag_583\n      jumpi\n        /* \"PoolPandorasSepolia.sol\":7913:7921  statuses */\n      dup4\n      dup4\n        /* \"PoolPandorasSepolia.sol\":7922:7923  i */\n      dup3\n        /* \"PoolPandorasSepolia.sol\":7913:7924  statuses[i] */\n      dup2\n      dup2\n      lt\n      tag_586\n      jumpi\n      tag_586\n      tag_509\n      jump\t// in\n    tag_586:\n      swap1\n      pop\n      0x20\n      mul\n      add\n      0x20\n      dup2\n      add\n      swap1\n      tag_587\n      swap2\n      swap1\n      tag_129\n      jump\t// in\n    tag_587:\n        /* \"PoolPandorasSepolia.sol\":7887:7900  isWhitelisted */\n      0x07\n        /* \"PoolPandorasSepolia.sol\":7887:7910  isWhitelisted[users[i]] */\n      0x00\n        /* \"PoolPandorasSepolia.sol\":7901:7906  users */\n      dup9\n      dup9\n        /* \"PoolPandorasSepolia.sol\":7907:7908  i */\n      dup6\n        /* \"PoolPandorasSepolia.sol\":7901:7909  users[i] */\n      dup2\n      dup2\n      lt\n      tag_589\n      jumpi\n      tag_589\n      tag_509\n      jump\t// in\n    tag_589:\n      swap1\n      pop\n      0x20\n      mul\n      add\n      0x20\n      dup2\n      add\n      swap1\n      tag_590\n      swap2\n      swap1\n      tag_122\n      jump\t// in\n    tag_590:\n      sub(shl(0xa0, 0x01), 0x01)\n        /* \"PoolPandorasSepolia.sol\":7887:7910  isWhitelisted[users[i]] */\n      and\n      dup2\n      mstore\n      0x20\n      dup2\n      add\n      swap2\n      swap1\n      swap2\n      mstore\n      0x40\n      add\n      0x00\n      keccak256\n        /* \"PoolPandorasSepolia.sol\":7887:7924  isWhitelisted[users[i]] = statuses[i] */\n      dup1\n      sload\n      not(0xff)\n      and\n      swap2\n      iszero\n      iszero\n      swap2\n      swap1\n      swap2\n      or\n      swap1\n      sstore\n        /* \"PoolPandorasSepolia.sol\":7959:7964  users */\n      dup6\n      dup6\n        /* \"PoolPandorasSepolia.sol\":7965:7966  i */\n      dup3\n        /* \"PoolPandorasSepolia.sol\":7959:7967  users[i] */\n      dup2\n      dup2\n      lt\n      tag_592\n      jumpi\n      tag_592\n      tag_509\n      jump\t// in\n    tag_592:\n      swap1\n      pop\n      0x20\n      mul\n      add\n      0x20\n      dup2\n      add\n      swap1\n      tag_593\n      swap2\n      swap1\n      tag_122\n      jump\t// in\n    tag_593:\n      sub(shl(0xa0, 0x01), 0x01)\n        /* \"PoolPandorasSepolia.sol\":7943:7981  UserWhitelisted(users[i], statuses[i]) */\n      and\n      0x995d2434d36c9bceaab42c56efe51e8ffe41fd11cabefd9e2cb83700d8b2035e\n        /* \"PoolPandorasSepolia.sol\":7969:7977  statuses */\n      dup6\n      dup6\n        /* \"PoolPandorasSepolia.sol\":7978:7979  i */\n      dup5\n        /* \"PoolPandorasSepolia.sol\":7969:7980  statuses[i] */\n      dup2\n      dup2\n      lt\n      tag_595\n      jumpi\n      tag_595\n      tag_509\n      jump\t// in\n    tag_595:\n      swap1\n      pop\n      0x20\n      mul\n      add\n      0x20\n      dup2\n      add\n      swap1\n      tag_596\n      swap2\n      swap1\n      tag_129\n      jump\t// in\n    tag_596:\n        /* \"PoolPandorasSepolia.sol\":7943:7981  UserWhitelisted(users[i], statuses[i]) */\n      mload(0x40)\n        /* \"#utility.yul\":470:484   */\n      swap1\n      iszero\n        /* \"#utility.yul\":463:485   */\n      iszero\n        /* \"#utility.yul\":445:486   */\n      dup2\n      mstore\n        /* \"#utility.yul\":433:435   */\n      0x20\n        /* \"#utility.yul\":418:436   */\n      add\n        /* \"PoolPandorasSepolia.sol\":7943:7981  UserWhitelisted(users[i], statuses[i]) */\n      mload(0x40)\n      dup1\n      swap2\n      sub\n      swap1\n      log2\n        /* \"PoolPandorasSepolia.sol\":7868:7871  i++ */\n      0x01\n      add\n        /* \"PoolPandorasSepolia.sol\":7830:7992  for (uint256 i = 0; i < users.length; i++) {... */\n      jump(tag_582)\n    tag_583:\n      pop\n        /* \"PoolPandorasSepolia.sol\":7636:7998  function setWhitelistBatch(address[] calldata users, bool[] calldata statuses) external onlyRole(ADMIN_ROLE) {... */\n      pop\n      pop\n      pop\n      pop\n      pop\n      jump\t// out\n        /* \"PoolPandorasSepolia.sol\":22776:23830  function getUserStats(address user) external view returns (uint256 depositedETH, uint256 depositedUSDC, uint256 withdrawnETH, uint256 withdrawnUSDC, uint256 claimableUtilityETH, uint256 claimableUtilityUSDC, uint256 reinvestedETH, uint256 reinvestedUSDC) {... */\n    tag_222:\n      sub(shl(0xa0, 0x01), 0x01)\n        /* \"PoolPandorasSepolia.sol\":23070:23088  userDeposits[user] */\n      dup2\n      and\n        /* \"PoolPandorasSepolia.sol\":22835:22855  uint256 depositedETH */\n      0x00\n        /* \"PoolPandorasSepolia.sol\":23070:23088  userDeposits[user] */\n      swap1\n      dup2\n      mstore\n        /* \"PoolPandorasSepolia.sol\":23070:23082  userDeposits */\n      0x06\n        /* \"PoolPandorasSepolia.sol\":23070:23088  userDeposits[user] */\n      0x20\n      mstore\n      0x40\n      dup2\n      keccak256\n        /* \"PoolPandorasSepolia.sol\":22835:22855  uint256 depositedETH */\n      dup2\n      swap1\n      dup2\n      swap1\n      dup2\n      swap1\n      dup2\n      swap1\n      dup2\n      swap1\n      dup2\n      swap1\n      dup2\n      swap1\n      dup2\n        /* \"PoolPandorasSepolia.sol\":23098:23708  for (uint256 i = 0; i < deps.length; i++) {... */\n    tag_599:\n        /* \"PoolPandorasSepolia.sol\":23122:23133  deps.length */\n      dup2\n      sload\n        /* \"PoolPandorasSepolia.sol\":23118:23133  i < deps.length */\n      dup2\n      lt\n        /* \"PoolPandorasSepolia.sol\":23098:23708  for (uint256 i = 0; i < deps.length; i++) {... */\n      iszero\n      tag_600\n      jumpi\n        /* \"PoolPandorasSepolia.sol\":23154:23176  DepositInfo memory dep */\n      0x00\n        /* \"PoolPandorasSepolia.sol\":23179:23183  deps */\n      dup3\n        /* \"PoolPandorasSepolia.sol\":23184:23185  i */\n      dup3\n        /* \"PoolPandorasSepolia.sol\":23179:23186  deps[i] */\n      dup2\n      sload\n      dup2\n      lt\n      tag_603\n      jumpi\n      tag_603\n      tag_509\n      jump\t// in\n    tag_603:\n      0x00\n      swap2\n      dup3\n      mstore\n      0x20\n      swap2\n      dup3\n      swap1\n      keccak256\n        /* \"PoolPandorasSepolia.sol\":23154:23186  DepositInfo memory dep = deps[i] */\n      0x40\n      dup1\n      mload\n      0xc0\n      dup2\n      add\n      dup3\n      mstore\n        /* \"PoolPandorasSepolia.sol\":23179:23186  deps[i] */\n      0x02\n      swap1\n      swap4\n      mul\n      swap1\n      swap2\n      add\n        /* \"PoolPandorasSepolia.sol\":23154:23186  DepositInfo memory dep = deps[i] */\n      dup1\n      sload\n      sub(shl(0x60, 0x01), 0x01)\n      dup1\n      dup3\n      and\n      dup6\n      mstore\n      shl(0x60, 0x01)\n      dup3\n      div\n      and\n      swap5\n      dup5\n      add\n      swap5\n      swap1\n      swap5\n      mstore\n      0xffffffffffff\n      shl(0xc0, 0x01)\n      swap1\n      swap5\n      div\n      dup5\n      and\n      swap2\n      dup4\n      add\n      swap2\n      swap1\n      swap2\n      mstore\n      0x01\n      dup1\n      dup3\n      add\n      sload\n      swap4\n      dup5\n      and\n      0x60\n      dup5\n      add\n      mstore\n      swap2\n      swap3\n        /* \"PoolPandorasSepolia.sol\":23179:23186  deps[i] */\n      swap1\n      swap2\n        /* \"PoolPandorasSepolia.sol\":23154:23186  DepositInfo memory dep = deps[i] */\n      0x80\n      dup5\n      add\n      swap2\n      0xff\n      0x01000000000000\n      swap1\n      swap2\n      div\n      and\n      swap1\n      dup2\n      gt\n      iszero\n      tag_606\n      jumpi\n      tag_606\n      tag_498\n      jump\t// in\n    tag_606:\n      0x01\n      dup2\n      gt\n      iszero\n      tag_608\n      jumpi\n      tag_608\n      tag_498\n      jump\t// in\n    tag_608:\n      dup2\n      mstore\n      0x01\n      swap2\n      swap1\n      swap2\n      add\n      sload\n      shl(0x38, 0x01)\n      swap1\n      div\n      0xff\n      and\n      0x20\n      swap1\n      swap2\n      add\n      mstore\n        /* \"PoolPandorasSepolia.sol\":23223:23232  dep.flags */\n      0xa0\n      dup2\n      add\n      mload\n      swap1\n      swap2\n      pop\n        /* \"PoolPandorasSepolia.sol\":23236:23242  1 << 3 */\n      0x08\n        /* \"PoolPandorasSepolia.sol\":23223:23243  dep.flags & (1 << 3) */\n      and\n        /* \"PoolPandorasSepolia.sol\":23222:23249  (dep.flags & (1 << 3)) != 0 */\n      iszero\n      iszero\n      0x00\n        /* \"PoolPandorasSepolia.sol\":23267:23270  dep */\n      dup3\n        /* \"PoolPandorasSepolia.sol\":23267:23276  dep.token */\n      0x80\n      add\n      mload\n        /* \"PoolPandorasSepolia.sol\":23267:23293  dep.token == TokenType.ETH */\n      0x01\n      dup2\n      gt\n      iszero\n      tag_612\n      jumpi\n      tag_612\n      tag_498\n      jump\t// in\n    tag_612:\n      sub\n        /* \"PoolPandorasSepolia.sol\":23263:23698  if (dep.token == TokenType.ETH) {... */\n      tag_613\n      jumpi\n        /* \"PoolPandorasSepolia.sol\":23329:23339  dep.amount */\n      dup2\n      mload\n        /* \"PoolPandorasSepolia.sol\":23313:23339  depositedETH += dep.amount */\n      tag_614\n      swap1\n      sub(shl(0x60, 0x01), 0x01)\n      and\n      dup14\n      tag_488\n      jump\t// in\n    tag_614:\n      swap12\n      pop\n        /* \"PoolPandorasSepolia.sol\":23361:23384  _isWithdrawn(dep.flags) */\n      tag_615\n        /* \"PoolPandorasSepolia.sol\":23374:23377  dep */\n      dup3\n        /* \"PoolPandorasSepolia.sol\":23374:23383  dep.flags */\n      0xa0\n      add\n      mload\n        /* \"PoolPandorasSepolia.sol\":11790:11796  1 << 0 */\n      0x01\n        /* \"PoolPandorasSepolia.sol\":11781:11797  flags & (1 << 0) */\n      and\n        /* \"PoolPandorasSepolia.sol\":11780:11803  (flags & (1 << 0)) != 0 */\n      iszero\n      iszero\n      swap1\n        /* \"PoolPandorasSepolia.sol\":11707:11806  function _isWithdrawn(uint8 flags) internal pure returns (bool) { return (flags & (1 << 0)) != 0; } */\n      jump\n        /* \"PoolPandorasSepolia.sol\":23361:23384  _isWithdrawn(dep.flags) */\n    tag_615:\n        /* \"PoolPandorasSepolia.sol\":23357:23412  if (_isWithdrawn(dep.flags)) withdrawnETH += dep.amount */\n      iszero\n      tag_616\n      jumpi\n        /* \"PoolPandorasSepolia.sol\":23402:23412  dep.amount */\n      dup2\n      mload\n        /* \"PoolPandorasSepolia.sol\":23386:23412  withdrawnETH += dep.amount */\n      tag_617\n      swap1\n      sub(shl(0x60, 0x01), 0x01)\n      and\n      dup12\n      tag_488\n      jump\t// in\n    tag_617:\n      swap10\n      pop\n        /* \"PoolPandorasSepolia.sol\":23357:23412  if (_isWithdrawn(dep.flags)) withdrawnETH += dep.amount */\n    tag_616:\n        /* \"PoolPandorasSepolia.sol\":23434:23448  isReinvestment */\n      dup1\n        /* \"PoolPandorasSepolia.sol\":23430:23477  if (isReinvestment) reinvestedETH += dep.amount */\n      iszero\n      tag_618\n      jumpi\n        /* \"PoolPandorasSepolia.sol\":23467:23477  dep.amount */\n      dup2\n      mload\n        /* \"PoolPandorasSepolia.sol\":23450:23477  reinvestedETH += dep.amount */\n      tag_619\n      swap1\n      sub(shl(0x60, 0x01), 0x01)\n      and\n      dup8\n      tag_488\n      jump\t// in\n    tag_619:\n      swap6\n      pop\n        /* \"PoolPandorasSepolia.sol\":23430:23477  if (isReinvestment) reinvestedETH += dep.amount */\n    tag_618:\n        /* \"PoolPandorasSepolia.sol\":23263:23698  if (dep.token == TokenType.ETH) {... */\n      jump(tag_625)\n    tag_613:\n        /* \"PoolPandorasSepolia.sol\":23533:23543  dep.amount */\n      dup2\n      mload\n        /* \"PoolPandorasSepolia.sol\":23516:23543  depositedUSDC += dep.amount */\n      tag_621\n      swap1\n      sub(shl(0x60, 0x01), 0x01)\n      and\n      dup13\n      tag_488\n      jump\t// in\n    tag_621:\n      swap11\n      pop\n        /* \"PoolPandorasSepolia.sol\":23565:23588  _isWithdrawn(dep.flags) */\n      tag_622\n        /* \"PoolPandorasSepolia.sol\":23578:23581  dep */\n      dup3\n        /* \"PoolPandorasSepolia.sol\":23578:23587  dep.flags */\n      0xa0\n      add\n      mload\n        /* \"PoolPandorasSepolia.sol\":11790:11796  1 << 0 */\n      0x01\n        /* \"PoolPandorasSepolia.sol\":11781:11797  flags & (1 << 0) */\n      and\n        /* \"PoolPandorasSepolia.sol\":11780:11803  (flags & (1 << 0)) != 0 */\n      iszero\n      iszero\n      swap1\n        /* \"PoolPandorasSepolia.sol\":11707:11806  function _isWithdrawn(uint8 flags) internal pure returns (bool) { return (flags & (1 << 0)) != 0; } */\n      jump\n        /* \"PoolPandorasSepolia.sol\":23565:23588  _isWithdrawn(dep.flags) */\n    tag_622:\n        /* \"PoolPandorasSepolia.sol\":23561:23617  if (_isWithdrawn(dep.flags)) withdrawnUSDC += dep.amount */\n      iszero\n      tag_623\n      jumpi\n        /* \"PoolPandorasSepolia.sol\":23607:23617  dep.amount */\n      dup2\n      mload\n        /* \"PoolPandorasSepolia.sol\":23590:23617  withdrawnUSDC += dep.amount */\n      tag_624\n      swap1\n      sub(shl(0x60, 0x01), 0x01)\n      and\n      dup11\n      tag_488\n      jump\t// in\n    tag_624:\n      swap9\n      pop\n        /* \"PoolPandorasSepolia.sol\":23561:23617  if (_isWithdrawn(dep.flags)) withdrawnUSDC += dep.amount */\n    tag_623:\n        /* \"PoolPandorasSepolia.sol\":23639:23653  isReinvestment */\n      dup1\n        /* \"PoolPandorasSepolia.sol\":23635:23683  if (isReinvestment) reinvestedUSDC += dep.amount */\n      iszero\n      tag_625\n      jumpi\n        /* \"PoolPandorasSepolia.sol\":23673:23683  dep.amount */\n      dup2\n      mload\n        /* \"PoolPandorasSepolia.sol\":23655:23683  reinvestedUSDC += dep.amount */\n      tag_626\n      swap1\n      sub(shl(0x60, 0x01), 0x01)\n      and\n      dup7\n      tag_488\n      jump\t// in\n    tag_626:\n      swap5\n      pop\n        /* \"PoolPandorasSepolia.sol\":23635:23683  if (isReinvestment) reinvestedUSDC += dep.amount */\n    tag_625:\n      pop\n      pop\n        /* \"PoolPandorasSepolia.sol\":23135:23138  i++ */\n      0x01\n      add\n        /* \"PoolPandorasSepolia.sol\":23098:23708  for (uint256 i = 0; i < deps.length; i++) {... */\n      jump(tag_599)\n    tag_600:\n      pop\n      pop\n      sub(shl(0xa0, 0x01), 0x01)\n        /* \"PoolPandorasSepolia.sol\":23739:23768  userClaimableUtilityETH[user] */\n      swap1\n      swap9\n      and\n      0x00\n      swap1\n      dup2\n      mstore\n        /* \"PoolPandorasSepolia.sol\":23739:23762  userClaimableUtilityETH */\n      0x09\n        /* \"PoolPandorasSepolia.sol\":23739:23768  userClaimableUtilityETH[user] */\n      0x20\n      swap1\n      dup2\n      mstore\n      0x40\n      dup1\n      dup4\n      keccak256\n      sload\n        /* \"PoolPandorasSepolia.sol\":23793:23817  userClaimableUtilityUSDC */\n      0x0a\n        /* \"PoolPandorasSepolia.sol\":23793:23823  userClaimableUtilityUSDC[user] */\n      swap1\n      swap3\n      mstore\n      swap1\n      swap2\n      keccak256\n      sload\n        /* \"PoolPandorasSepolia.sol\":22776:23830  function getUserStats(address user) external view returns (uint256 depositedETH, uint256 depositedUSDC, uint256 withdrawnETH, uint256 withdrawnUSDC, uint256 claimableUtilityETH, uint256 claimableUtilityUSDC, uint256 reinvestedETH, uint256 reinvestedUSDC) {... */\n      swap8\n      swap10\n      swap7\n      swap9\n      swap6\n      swap8\n      swap5\n      swap7\n        /* \"PoolPandorasSepolia.sol\":23739:23768  userClaimableUtilityETH[user] */\n      swap1\n      swap6\n        /* \"PoolPandorasSepolia.sol\":22776:23830  function getUserStats(address user) external view returns (uint256 depositedETH, uint256 depositedUSDC, uint256 withdrawnETH, uint256 withdrawnUSDC, uint256 claimableUtilityETH, uint256 claimableUtilityUSDC, uint256 reinvestedETH, uint256 reinvestedUSDC) {... */\n      swap2\n      swap4\n      pop\n      swap1\n      swap2\n      pop\n      jump\t// out\n        /* \"PoolPandorasSepolia.sol\":7463:7631  function setWhitelist(address user, bool status) external onlyRole(ADMIN_ROLE) {... */\n    tag_233:\n      0x00\n      dup1\n      mload\n      0x20\n      data_cb864c43dd5d441bb6271f424f11befa622c032dfd374d226e26fbbdb782b8f8\n      dup4\n      codecopy\n      dup2\n      mload\n      swap2\n      mstore\n        /* \"@openzeppelin/contracts/access/AccessControl.sol\":2473:2489   */\n      tag_628\n        /* \"@openzeppelin/contracts/access/AccessControl.sol\":2484:2488   */\n      dup2\n        /* \"@openzeppelin/contracts/access/AccessControl.sol\":2473:2483   */\n      tag_459\n        /* \"@openzeppelin/contracts/access/AccessControl.sol\":2473:2489   */\n      jump\t// in\n    tag_628:\n      sub(shl(0xa0, 0x01), 0x01)\n        /* \"PoolPandorasSepolia.sol\":7552:7571  isWhitelisted[user] */\n      dup4\n      and\n      0x00\n      dup2\n      dup2\n      mstore\n        /* \"PoolPandorasSepolia.sol\":7552:7565  isWhitelisted */\n      0x07\n        /* \"PoolPandorasSepolia.sol\":7552:7571  isWhitelisted[user] */\n      0x20\n      swap1\n      dup2\n      mstore\n      0x40\n      swap2\n      dup3\n      swap1\n      keccak256\n        /* \"PoolPandorasSepolia.sol\":7552:7580  isWhitelisted[user] = status */\n      dup1\n      sload\n      not(0xff)\n      and\n      dup7\n      iszero\n      iszero\n      swap1\n      dup2\n      or\n      swap1\n      swap2\n      sstore\n        /* \"PoolPandorasSepolia.sol\":7595:7624  UserWhitelisted(user, status) */\n      swap2\n      mload\n        /* \"#utility.yul\":445:486   */\n      swap2\n      dup3\n      mstore\n        /* \"PoolPandorasSepolia.sol\":7595:7624  UserWhitelisted(user, status) */\n      0x995d2434d36c9bceaab42c56efe51e8ffe41fd11cabefd9e2cb83700d8b2035e\n      swap2\n        /* \"#utility.yul\":418:436   */\n      add\n        /* \"PoolPandorasSepolia.sol\":7595:7624  UserWhitelisted(user, status) */\n      mload(0x40)\n      dup1\n      swap2\n      sub\n      swap1\n      log2\n        /* \"PoolPandorasSepolia.sol\":7463:7631  function setWhitelist(address user, bool status) external onlyRole(ADMIN_ROLE) {... */\n      pop\n      pop\n      pop\n      jump\t// out\n        /* \"PoolPandorasSepolia.sol\":9561:9977  function returnInvestmentUSDC(uint256 amount) external onlyRole(MANAGER_ROLE) nonReentrant {... */\n    tag_247:\n        /* \"PoolPandorasSepolia.sol\":2185:2210  keccak256(\"MANAGER_ROLE\") */\n      0x241ecf16d79d0f8dbfb92cbc07fe17840425976cf0667f022fe9877caa831b08\n        /* \"@openzeppelin/contracts/access/AccessControl.sol\":2473:2489   */\n      tag_634\n        /* \"@openzeppelin/contracts/access/AccessControl.sol\":2484:2488   */\n      dup2\n        /* \"@openzeppelin/contracts/access/AccessControl.sol\":2473:2483   */\n      tag_459\n        /* \"@openzeppelin/contracts/access/AccessControl.sol\":2473:2489   */\n      jump\t// in\n    tag_634:\n        /* \"@openzeppelin/contracts/utils/ReentrancyGuard.sol\":2500:2521   */\n      tag_636\n        /* \"@openzeppelin/contracts/utils/ReentrancyGuard.sol\":2500:2519   */\n      tag_467\n        /* \"@openzeppelin/contracts/utils/ReentrancyGuard.sol\":2500:2521   */\n      jump\t// in\n    tag_636:\n        /* \"PoolPandorasSepolia.sol\":9666:9672  amount */\n      dup2\n        /* \"PoolPandorasSepolia.sol\":9676:9677  0 */\n      0x00\n        /* \"PoolPandorasSepolia.sol\":9666:9677  amount == 0 */\n      sub\n        /* \"PoolPandorasSepolia.sol\":9662:9701  if (amount == 0) revert InvalidAmount() */\n      tag_638\n      jumpi\n        /* \"PoolPandorasSepolia.sol\":9686:9701  InvalidAmount() */\n      mload(0x40)\n      shl(0xe1, 0x162908e3)\n      dup2\n      mstore\n      0x04\n      add\n      mload(0x40)\n      dup1\n      swap2\n      sub\n      swap1\n      revert\n        /* \"PoolPandorasSepolia.sol\":9662:9701  if (amount == 0) revert InvalidAmount() */\n    tag_638:\n        /* \"PoolPandorasSepolia.sol\":9724:9741  totalInvestedUSDC */\n      sload(0x18)\n        /* \"PoolPandorasSepolia.sol\":9715:9721  amount */\n      dup3\n        /* \"PoolPandorasSepolia.sol\":9715:9741  amount > totalInvestedUSDC */\n      gt\n        /* \"PoolPandorasSepolia.sol\":9711:9781  if (amount > totalInvestedUSDC) revert ReturnedAmountExceedsInvested() */\n      iszero\n      tag_639\n      jumpi\n        /* \"PoolPandorasSepolia.sol\":9750:9781  ReturnedAmountExceedsInvested() */\n      mload(0x40)\n      shl(0xe2, 0x04711311)\n      dup2\n      mstore\n      0x04\n      add\n      mload(0x40)\n      dup1\n      swap2\n      sub\n      swap1\n      revert\n        /* \"PoolPandorasSepolia.sol\":9711:9781  if (amount > totalInvestedUSDC) revert ReturnedAmountExceedsInvested() */\n    tag_639:\n        /* \"PoolPandorasSepolia.sol\":9812:9818  amount */\n      dup2\n        /* \"PoolPandorasSepolia.sol\":9791:9808  totalInvestedUSDC */\n      0x18\n      0x00\n        /* \"PoolPandorasSepolia.sol\":9791:9818  totalInvestedUSDC -= amount */\n      dup3\n      dup3\n      sload\n      tag_640\n      swap2\n      swap1\n      tag_472\n      jump\t// in\n    tag_640:\n      swap1\n      swap2\n      sstore\n      pop\n      pop\n      sub(shl(0xa0, 0x01), 0x01)\n        /* \"PoolPandorasSepolia.sol\":9828:9832  usdc */\n      immutable(\"0xb4da3a56484909ee405b9f4762910b7212e7eaa07e3685955dc8557a668fa7ea\")\n        /* \"PoolPandorasSepolia.sol\":9828:9845  usdc.transferFrom */\n      and\n      0x23b872dd\n        /* \"PoolPandorasSepolia.sol\":9846:9858  _msgSender() */\n      tag_641\n        /* \"PoolPandorasSepolia.sol\":9846:9856  _msgSender */\n      tag_474\n        /* \"PoolPandorasSepolia.sol\":9846:9858  _msgSender() */\n      jump\t// in\n    tag_641:\n        /* \"PoolPandorasSepolia.sol\":9828:9882  usdc.transferFrom(_msgSender(), address(this), amount) */\n      mload(0x40)\n      not(sub(shl(0xe0, 0x01), 0x01))\n      0xe0\n      dup5\n      swap1\n      shl\n      and\n      dup2\n      mstore\n      sub(shl(0xa0, 0x01), 0x01)\n        /* \"#utility.yul\":14081:14096   */\n      swap1\n      swap2\n      and\n        /* \"PoolPandorasSepolia.sol\":9828:9882  usdc.transferFrom(_msgSender(), address(this), amount) */\n      0x04\n      dup3\n      add\n        /* \"#utility.yul\":14063:14097   */\n      mstore\n        /* \"PoolPandorasSepolia.sol\":9868:9872  this */\n      address\n        /* \"#utility.yul\":14113:14131   */\n      0x24\n      dup3\n      add\n        /* \"#utility.yul\":14106:14149   */\n      mstore\n        /* \"#utility.yul\":14165:14183   */\n      0x44\n      dup2\n      add\n        /* \"#utility.yul\":14158:14192   */\n      dup6\n      swap1\n      mstore\n        /* \"#utility.yul\":13975:13993   */\n      0x64\n      add\n        /* \"PoolPandorasSepolia.sol\":9828:9882  usdc.transferFrom(_msgSender(), address(this), amount) */\n      0x20\n      mload(0x40)\n      dup1\n      dup4\n      sub\n      dup2\n      0x00\n      dup8\n      gas\n      call\n      iszero\n      dup1\n      iszero\n      tag_645\n      jumpi\n      returndatasize\n      0x00\n      dup1\n      returndatacopy\n      revert(0x00, returndatasize)\n    tag_645:\n      pop\n      pop\n      pop\n      pop\n      mload(0x40)\n      returndatasize\n      not(0x1f)\n      0x1f\n      dup3\n      add\n      and\n      dup3\n      add\n      dup1\n      0x40\n      mstore\n      pop\n      dup2\n      add\n      swap1\n      tag_646\n      swap2\n      swap1\n      tag_544\n      jump\t// in\n    tag_646:\n      pop\n        /* \"PoolPandorasSepolia.sol\":9916:9928  _msgSender() */\n      tag_647\n        /* \"PoolPandorasSepolia.sol\":9916:9926  _msgSender */\n      tag_474\n        /* \"PoolPandorasSepolia.sol\":9916:9928  _msgSender() */\n      jump\t// in\n    tag_647:\n      sub(shl(0xa0, 0x01), 0x01)\n        /* \"PoolPandorasSepolia.sol\":9897:9970  InvestmentReturned(_msgSender(), TokenType.USDC, amount, block.timestamp) */\n      and\n      0x1b0029d3a4003762f16d0dc71199ce167b1d4bf00c5b97a3e28f613e921d6540\n        /* \"PoolPandorasSepolia.sol\":9930:9944  TokenType.USDC */\n      0x01\n        /* \"PoolPandorasSepolia.sol\":9946:9952  amount */\n      dup5\n        /* \"PoolPandorasSepolia.sol\":9954:9969  block.timestamp */\n      timestamp\n        /* \"PoolPandorasSepolia.sol\":9897:9970  InvestmentReturned(_msgSender(), TokenType.USDC, amount, block.timestamp) */\n      mload(0x40)\n      tag_648\n      swap4\n      swap3\n      swap2\n      swap1\n      tag_476\n      jump\t// in\n    tag_648:\n      mload(0x40)\n      dup1\n      swap2\n      sub\n      swap1\n      log2\n        /* \"@openzeppelin/contracts/utils/ReentrancyGuard.sol\":2542:2562   */\n      tag_649\n        /* \"@openzeppelin/contracts/utils/ReentrancyGuard.sol\":1857:1858   */\n      0x01\n        /* \"@openzeppelin/contracts/utils/ReentrancyGuard.sol\":3068:3089   */\n      dup1\n      sstore\n        /* \"@openzeppelin/contracts/utils/ReentrancyGuard.sol\":2888:3096   */\n      jump\n        /* \"@openzeppelin/contracts/utils/ReentrancyGuard.sol\":2542:2562   */\n    tag_649:\n        /* \"PoolPandorasSepolia.sol\":9561:9977  function returnInvestmentUSDC(uint256 amount) external onlyRole(MANAGER_ROLE) nonReentrant {... */\n      pop\n      pop\n      jump\t// out\n        /* \"PoolPandorasSepolia.sol\":16736:16997  function injectUtilityETH() external payable onlyRole(UTILITY_INJECTOR_ROLE) {... */\n    tag_258:\n        /* \"PoolPandorasSepolia.sol\":2005:2039  keccak256(\"UTILITY_INJECTOR_ROLE\") */\n      0xf60566c40710959d8d30b6067ce3c53c757bec78eecb0e46b83c7f8194ffae37\n        /* \"@openzeppelin/contracts/access/AccessControl.sol\":2473:2489   */\n      tag_651\n        /* \"@openzeppelin/contracts/access/AccessControl.sol\":2484:2488   */\n      dup2\n        /* \"@openzeppelin/contracts/access/AccessControl.sol\":2473:2483   */\n      tag_459\n        /* \"@openzeppelin/contracts/access/AccessControl.sol\":2473:2489   */\n      jump\t// in\n    tag_651:\n        /* \"PoolPandorasSepolia.sol\":16827:16836  msg.value */\n      callvalue\n        /* \"PoolPandorasSepolia.sol\":16840:16841  0 */\n      0x00\n        /* \"PoolPandorasSepolia.sol\":16827:16841  msg.value == 0 */\n      sub\n        /* \"PoolPandorasSepolia.sol\":16823:16865  if (msg.value == 0) revert InvalidAmount() */\n      tag_653\n      jumpi\n        /* \"PoolPandorasSepolia.sol\":16850:16865  InvalidAmount() */\n      mload(0x40)\n      shl(0xe1, 0x162908e3)\n      dup2\n      mstore\n      0x04\n      add\n      mload(0x40)\n      dup1\n      swap2\n      sub\n      swap1\n      revert\n        /* \"PoolPandorasSepolia.sol\":16823:16865  if (msg.value == 0) revert InvalidAmount() */\n    tag_653:\n        /* \"PoolPandorasSepolia.sol\":16894:16903  msg.value */\n      callvalue\n        /* \"PoolPandorasSepolia.sol\":16875:16890  totalUtilityETH */\n      0x13\n      0x00\n        /* \"PoolPandorasSepolia.sol\":16875:16903  totalUtilityETH += msg.value */\n      dup3\n      dup3\n      sload\n      tag_654\n      swap2\n      swap1\n      tag_488\n      jump\t// in\n    tag_654:\n      swap1\n      swap2\n      sstore\n      pop\n        /* \"PoolPandorasSepolia.sol\":16934:16946  _msgSender() */\n      tag_655\n      swap1\n      pop\n        /* \"PoolPandorasSepolia.sol\":16934:16944  _msgSender */\n      tag_474\n        /* \"PoolPandorasSepolia.sol\":16934:16946  _msgSender() */\n      jump\t// in\n    tag_655:\n      sub(shl(0xa0, 0x01), 0x01)\n        /* \"PoolPandorasSepolia.sol\":16918:16990  UtilityInjected(_msgSender(), TokenType.ETH, msg.value, block.timestamp) */\n      and\n      0x8bafec96fcffb6f12596b4635c76397b7bc1f363b22c49c13136b63677323dcc\n        /* \"PoolPandorasSepolia.sol\":16948:16961  TokenType.ETH */\n      0x00\n        /* \"PoolPandorasSepolia.sol\":16963:16972  msg.value */\n      callvalue\n        /* \"PoolPandorasSepolia.sol\":16974:16989  block.timestamp */\n      timestamp\n        /* \"PoolPandorasSepolia.sol\":16918:16990  UtilityInjected(_msgSender(), TokenType.ETH, msg.value, block.timestamp) */\n      mload(0x40)\n      tag_656\n      swap4\n      swap3\n      swap2\n      swap1\n      tag_476\n      jump\t// in\n    tag_656:\n      mload(0x40)\n      dup1\n      swap2\n      sub\n      swap1\n      log2\n        /* \"PoolPandorasSepolia.sol\":16736:16997  function injectUtilityETH() external payable onlyRole(UTILITY_INJECTOR_ROLE) {... */\n      pop\n      jump\t// out\n        /* \"PoolPandorasSepolia.sol\":7112:7337  function setPaused(bool _deposits, bool _withdrawals) external onlyRole(PAUSER_ROLE) {... */\n    tag_263:\n        /* \"PoolPandorasSepolia.sol\":1845:1869  keccak256(\"PAUSER_ROLE\") */\n      0x65d7a28e3265b37a6474929f336521b332c1681b933f6cb9f3376673440d862a\n        /* \"@openzeppelin/contracts/access/AccessControl.sol\":2473:2489   */\n      tag_658\n        /* \"@openzeppelin/contracts/access/AccessControl.sol\":2484:2488   */\n      dup2\n        /* \"@openzeppelin/contracts/access/AccessControl.sol\":2473:2483   */\n      tag_459\n        /* \"@openzeppelin/contracts/access/AccessControl.sol\":2473:2489   */\n      jump\t// in\n    tag_658:\n        /* \"PoolPandorasSepolia.sol\":7207:7221  pausedDeposits */\n      0x05\n        /* \"PoolPandorasSepolia.sol\":7207:7236  pausedDeposits    = _deposits */\n      dup1\n      sload\n        /* \"PoolPandorasSepolia.sol\":7246:7278  pausedWithdrawals = _withdrawals */\n      dup4\n      iszero\n      iszero\n        /* \"PoolPandorasSepolia.sol\":7207:7236  pausedDeposits    = _deposits */\n      0x0100\n        /* \"PoolPandorasSepolia.sol\":7246:7278  pausedWithdrawals = _withdrawals */\n      dup2\n      mul\n      not(0xff00)\n        /* \"PoolPandorasSepolia.sol\":7207:7236  pausedDeposits    = _deposits */\n      dup8\n      iszero\n      iszero\n        /* \"PoolPandorasSepolia.sol\":7246:7278  pausedWithdrawals = _withdrawals */\n      swap1\n      dup2\n      and\n      not(0xffff)\n      swap1\n      swap5\n      and\n      swap4\n      swap1\n      swap4\n      or\n      or\n      swap1\n      swap3\n      sstore\n        /* \"PoolPandorasSepolia.sol\":7293:7330  PauseChanged(_deposits, _withdrawals) */\n      0x40\n      dup1\n      mload\n        /* \"#utility.yul\":14365:14406   */\n      swap2\n      dup3\n      mstore\n        /* \"#utility.yul\":14437:14439   */\n      0x20\n        /* \"#utility.yul\":14422:14440   */\n      dup3\n      add\n        /* \"#utility.yul\":14415:14465   */\n      swap3\n      swap1\n      swap3\n      mstore\n        /* \"PoolPandorasSepolia.sol\":7293:7330  PauseChanged(_deposits, _withdrawals) */\n      0xac1664632d6278432aa05a6afc0aa83e5ea08e8df9a1436736daa5d6283211c0\n      swap2\n        /* \"#utility.yul\":14338:14356   */\n      add\n        /* \"PoolPandorasSepolia.sol\":7293:7330  PauseChanged(_deposits, _withdrawals) */\n    tag_660:\n      mload(0x40)\n      dup1\n      swap2\n      sub\n      swap1\n      log1\n        /* \"PoolPandorasSepolia.sol\":7112:7337  function setPaused(bool _deposits, bool _withdrawals) external onlyRole(PAUSER_ROLE) {... */\n      pop\n      pop\n      pop\n      jump\t// out\n        /* \"PoolPandorasSepolia.sol\":19516:19862  function claimUtilityUSDC() external nonReentrant {... */\n    tag_271:\n        /* \"@openzeppelin/contracts/utils/ReentrancyGuard.sol\":2500:2521   */\n      tag_663\n        /* \"@openzeppelin/contracts/utils/ReentrancyGuard.sol\":2500:2519   */\n      tag_467\n        /* \"@openzeppelin/contracts/utils/ReentrancyGuard.sol\":2500:2521   */\n      jump\t// in\n    tag_663:\n        /* \"PoolPandorasSepolia.sol\":19576:19588  address user */\n      0x00\n        /* \"PoolPandorasSepolia.sol\":19591:19603  _msgSender() */\n      tag_665\n        /* \"PoolPandorasSepolia.sol\":19591:19601  _msgSender */\n      tag_474\n        /* \"PoolPandorasSepolia.sol\":19591:19603  _msgSender() */\n      jump\t// in\n    tag_665:\n      sub(shl(0xa0, 0x01), 0x01)\n        /* \"PoolPandorasSepolia.sol\":19627:19657  userClaimableUtilityUSDC[user] */\n      dup2\n      and\n        /* \"PoolPandorasSepolia.sol\":19613:19624  uint256 amt */\n      0x00\n        /* \"PoolPandorasSepolia.sol\":19627:19657  userClaimableUtilityUSDC[user] */\n      swap1\n      dup2\n      mstore\n        /* \"PoolPandorasSepolia.sol\":19627:19651  userClaimableUtilityUSDC */\n      0x0a\n        /* \"PoolPandorasSepolia.sol\":19627:19657  userClaimableUtilityUSDC[user] */\n      0x20\n      mstore\n      0x40\n      dup2\n      keccak256\n      sload\n        /* \"PoolPandorasSepolia.sol\":19576:19603  address user = _msgSender() */\n      swap2\n      swap3\n      pop\n        /* \"PoolPandorasSepolia.sol\":19671:19679  amt == 0 */\n      dup2\n      swap1\n      sub\n        /* \"PoolPandorasSepolia.sol\":19667:19706  if (amt == 0) revert NoUtilityToClaim() */\n      tag_666\n      jumpi\n        /* \"PoolPandorasSepolia.sol\":19688:19706  NoUtilityToClaim() */\n      mload(0x40)\n      shl(0xe2, 0x3bd65a7b)\n      dup2\n      mstore\n      0x04\n      add\n      mload(0x40)\n      dup1\n      swap2\n      sub\n      swap1\n      revert\n        /* \"PoolPandorasSepolia.sol\":19667:19706  if (amt == 0) revert NoUtilityToClaim() */\n    tag_666:\n      sub(shl(0xa0, 0x01), 0x01)\n        /* \"PoolPandorasSepolia.sol\":19716:19746  userClaimableUtilityUSDC[user] */\n      dup3\n      dup2\n      and\n        /* \"PoolPandorasSepolia.sol\":19749:19750  0 */\n      0x00\n        /* \"PoolPandorasSepolia.sol\":19716:19746  userClaimableUtilityUSDC[user] */\n      dup2\n      dup2\n      mstore\n        /* \"PoolPandorasSepolia.sol\":19716:19740  userClaimableUtilityUSDC */\n      0x0a\n        /* \"PoolPandorasSepolia.sol\":19716:19746  userClaimableUtilityUSDC[user] */\n      0x20\n      mstore\n      0x40\n      dup1\n      dup3\n      keccak256\n        /* \"PoolPandorasSepolia.sol\":19716:19750  userClaimableUtilityUSDC[user] = 0 */\n      swap2\n      swap1\n      swap2\n      sstore\n        /* \"PoolPandorasSepolia.sol\":19760:19784  usdc.transfer(user, amt) */\n      mload\n      shl(0xe0, 0xa9059cbb)\n      dup2\n      mstore\n      0x04\n      dup2\n      add\n        /* \"#utility.yul\":12923:12997   */\n      swap2\n      swap1\n      swap2\n      mstore\n        /* \"#utility.yul\":13013:13031   */\n      0x24\n      dup2\n      add\n        /* \"#utility.yul\":13006:13040   */\n      dup4\n      swap1\n      mstore\n        /* \"PoolPandorasSepolia.sol\":19760:19764  usdc */\n      immutable(\"0xb4da3a56484909ee405b9f4762910b7212e7eaa07e3685955dc8557a668fa7ea\")\n        /* \"PoolPandorasSepolia.sol\":19760:19773  usdc.transfer */\n      swap1\n      swap2\n      and\n      swap1\n      0xa9059cbb\n      swap1\n        /* \"#utility.yul\":12896:12914   */\n      0x44\n      add\n        /* \"PoolPandorasSepolia.sol\":19760:19784  usdc.transfer(user, amt) */\n      0x20\n      mload(0x40)\n      dup1\n      dup4\n      sub\n      dup2\n      0x00\n      dup8\n      gas\n      call\n      iszero\n      dup1\n      iszero\n      tag_669\n      jumpi\n      returndatasize\n      0x00\n      dup1\n      returndatacopy\n      revert(0x00, returndatasize)\n    tag_669:\n      pop\n      pop\n      pop\n      pop\n      mload(0x40)\n      returndatasize\n      not(0x1f)\n      0x1f\n      dup3\n      add\n      and\n      dup3\n      add\n      dup1\n      0x40\n      mstore\n      pop\n      dup2\n      add\n      swap1\n      tag_670\n      swap2\n      swap1\n      tag_544\n      jump\t// in\n    tag_670:\n      pop\n        /* \"PoolPandorasSepolia.sol\":19812:19816  user */\n      dup2\n      sub(shl(0xa0, 0x01), 0x01)\n        /* \"PoolPandorasSepolia.sol\":19799:19855  ClaimUtility(user, TokenType.USDC, amt, block.timestamp) */\n      and\n      0x6914793c7a82461acec66c7de7fdbbbf1f825c26bc2fe939b61f0e4f8964c2b5\n        /* \"PoolPandorasSepolia.sol\":19818:19832  TokenType.USDC */\n      0x01\n        /* \"PoolPandorasSepolia.sol\":19834:19837  amt */\n      dup4\n        /* \"PoolPandorasSepolia.sol\":19839:19854  block.timestamp */\n      timestamp\n        /* \"PoolPandorasSepolia.sol\":19799:19855  ClaimUtility(user, TokenType.USDC, amt, block.timestamp) */\n      mload(0x40)\n      tag_490\n      swap4\n      swap3\n      swap2\n      swap1\n      tag_476\n      jump\t// in\n        /* \"PoolPandorasSepolia.sol\":17386:17680  function assignUtilityETH(address user, uint256 amount) external onlyRole(ADMIN_ROLE) {... */\n    tag_275:\n      0x00\n      dup1\n      mload\n      0x20\n      data_cb864c43dd5d441bb6271f424f11befa622c032dfd374d226e26fbbdb782b8f8\n      dup4\n      codecopy\n      dup2\n      mload\n      swap2\n      mstore\n        /* \"@openzeppelin/contracts/access/AccessControl.sol\":2473:2489   */\n      tag_674\n        /* \"@openzeppelin/contracts/access/AccessControl.sol\":2484:2488   */\n      dup2\n        /* \"@openzeppelin/contracts/access/AccessControl.sol\":2473:2483   */\n      tag_459\n        /* \"@openzeppelin/contracts/access/AccessControl.sol\":2473:2489   */\n      jump\t// in\n    tag_674:\n        /* \"PoolPandorasSepolia.sol\":17486:17492  amount */\n      dup2\n        /* \"PoolPandorasSepolia.sol\":17496:17497  0 */\n      0x00\n        /* \"PoolPandorasSepolia.sol\":17486:17497  amount == 0 */\n      sub\n        /* \"PoolPandorasSepolia.sol\":17482:17521  if (amount == 0) revert InvalidAmount() */\n      tag_676\n      jumpi\n        /* \"PoolPandorasSepolia.sol\":17506:17521  InvalidAmount() */\n      mload(0x40)\n      shl(0xe1, 0x162908e3)\n      dup2\n      mstore\n      0x04\n      add\n      mload(0x40)\n      dup1\n      swap2\n      sub\n      swap1\n      revert\n        /* \"PoolPandorasSepolia.sol\":17482:17521  if (amount == 0) revert InvalidAmount() */\n    tag_676:\n        /* \"PoolPandorasSepolia.sol\":17544:17559  totalUtilityETH */\n      sload(0x13)\n        /* \"PoolPandorasSepolia.sol\":17535:17541  amount */\n      dup3\n        /* \"PoolPandorasSepolia.sol\":17535:17559  amount > totalUtilityETH */\n      gt\n        /* \"PoolPandorasSepolia.sol\":17531:17589  if (amount > totalUtilityETH) revert ExceedsTotalUtility() */\n      iszero\n      tag_677\n      jumpi\n        /* \"PoolPandorasSepolia.sol\":17568:17589  ExceedsTotalUtility() */\n      mload(0x40)\n      shl(0xe0, 0x2f37549d)\n      dup2\n      mstore\n      0x04\n      add\n      mload(0x40)\n      dup1\n      swap2\n      sub\n      swap1\n      revert\n        /* \"PoolPandorasSepolia.sol\":17531:17589  if (amount > totalUtilityETH) revert ExceedsTotalUtility() */\n    tag_677:\n      sub(shl(0xa0, 0x01), 0x01)\n        /* \"PoolPandorasSepolia.sol\":17599:17628  userClaimableUtilityETH[user] */\n      dup4\n      and\n      0x00\n      swap1\n      dup2\n      mstore\n        /* \"PoolPandorasSepolia.sol\":17599:17622  userClaimableUtilityETH */\n      0x09\n        /* \"PoolPandorasSepolia.sol\":17599:17628  userClaimableUtilityETH[user] */\n      0x20\n      mstore\n      0x40\n      dup2\n      keccak256\n        /* \"PoolPandorasSepolia.sol\":17599:17638  userClaimableUtilityETH[user] += amount */\n      dup1\n      sload\n        /* \"PoolPandorasSepolia.sol\":17632:17638  amount */\n      dup5\n      swap3\n        /* \"PoolPandorasSepolia.sol\":17599:17628  userClaimableUtilityETH[user] */\n      swap1\n        /* \"PoolPandorasSepolia.sol\":17599:17638  userClaimableUtilityETH[user] += amount */\n      tag_678\n      swap1\n        /* \"PoolPandorasSepolia.sol\":17632:17638  amount */\n      dup5\n      swap1\n        /* \"PoolPandorasSepolia.sol\":17599:17638  userClaimableUtilityETH[user] += amount */\n      tag_488\n      jump\t// in\n    tag_678:\n      swap3\n      pop\n      pop\n      dup2\n      swap1\n      sstore\n      pop\n        /* \"PoolPandorasSepolia.sol\":17667:17673  amount */\n      dup2\n        /* \"PoolPandorasSepolia.sol\":17648:17663  totalUtilityETH */\n      0x13\n      0x00\n        /* \"PoolPandorasSepolia.sol\":17648:17673  totalUtilityETH -= amount */\n      dup3\n      dup3\n      sload\n      tag_679\n      swap2\n      swap1\n      tag_472\n      jump\t// in\n    tag_679:\n      swap1\n      swap2\n      sstore\n      pop\n      pop\n      pop\n      pop\n      pop\n        /* \"PoolPandorasSepolia.sol\":17386:17680  function assignUtilityETH(address user, uint256 amount) external onlyRole(ADMIN_ROLE) {... */\n      jump\t// out\n        /* \"PoolPandorasSepolia.sol\":13264:15577  function batchWithdraw(uint256[] calldata depositIndices) external nonReentrant whenWithdrawalsNotPaused {... */\n    tag_280:\n        /* \"@openzeppelin/contracts/utils/ReentrancyGuard.sol\":2500:2521   */\n      tag_681\n        /* \"@openzeppelin/contracts/utils/ReentrancyGuard.sol\":2500:2519   */\n      tag_467\n        /* \"@openzeppelin/contracts/utils/ReentrancyGuard.sol\":2500:2521   */\n      jump\t// in\n    tag_681:\n        /* \"PoolPandorasSepolia.sol\":5142:5159  pausedWithdrawals */\n      sload(0x05)\n      0x0100\n      swap1\n      div\n      0xff\n      and\n        /* \"PoolPandorasSepolia.sol\":5138:5187  if (pausedWithdrawals) revert WithdrawalsPaused() */\n      iszero\n      tag_683\n      jumpi\n        /* \"PoolPandorasSepolia.sol\":5168:5187  WithdrawalsPaused() */\n      mload(0x40)\n      shl(0xe0, 0x6022a9e7)\n      dup2\n      mstore\n      0x04\n      add\n      mload(0x40)\n      dup1\n      swap2\n      sub\n      swap1\n      revert\n        /* \"PoolPandorasSepolia.sol\":5138:5187  if (pausedWithdrawals) revert WithdrawalsPaused() */\n    tag_683:\n        /* \"PoolPandorasSepolia.sol\":13379:13391  address user */\n      0x00\n        /* \"PoolPandorasSepolia.sol\":13394:13406  _msgSender() */\n      tag_685\n        /* \"PoolPandorasSepolia.sol\":13394:13404  _msgSender */\n      tag_474\n        /* \"PoolPandorasSepolia.sol\":13394:13406  _msgSender() */\n      jump\t// in\n    tag_685:\n        /* \"PoolPandorasSepolia.sol\":13379:13406  address user = _msgSender() */\n      swap1\n      pop\n        /* \"PoolPandorasSepolia.sol\":13416:13441  uint256 totalPrincipalETH */\n      0x00\n        /* \"PoolPandorasSepolia.sol\":13451:13472  uint256 totalYieldETH */\n      dup1\n        /* \"PoolPandorasSepolia.sol\":13482:13508  uint256 totalPrincipalUSDC */\n      0x00\n        /* \"PoolPandorasSepolia.sol\":13518:13540  uint256 totalYieldUSDC */\n      dup1\n        /* \"PoolPandorasSepolia.sol\":13550:13571  uint256 ethToWithdraw */\n      0x00\n        /* \"PoolPandorasSepolia.sol\":13581:13603  uint256 usdcToWithdraw */\n      dup1\n        /* \"PoolPandorasSepolia.sol\":13618:13627  uint256 i */\n      0x00\n        /* \"PoolPandorasSepolia.sol\":13613:14712  for (uint256 i = 0; i < depositIndices.length; i++) {... */\n    tag_686:\n        /* \"PoolPandorasSepolia.sol\":13633:13658  i < depositIndices.length */\n      dup9\n      dup2\n      lt\n        /* \"PoolPandorasSepolia.sol\":13613:14712  for (uint256 i = 0; i < depositIndices.length; i++) {... */\n      iszero\n      tag_687\n      jumpi\n        /* \"PoolPandorasSepolia.sol\":13679:13692  uint256 index */\n      0x00\n        /* \"PoolPandorasSepolia.sol\":13695:13709  depositIndices */\n      dup11\n      dup11\n        /* \"PoolPandorasSepolia.sol\":13710:13711  i */\n      dup4\n        /* \"PoolPandorasSepolia.sol\":13695:13712  depositIndices[i] */\n      dup2\n      dup2\n      lt\n      tag_690\n      jumpi\n      tag_690\n      tag_509\n      jump\t// in\n    tag_690:\n      swap1\n      pop\n      0x20\n      mul\n      add\n      calldataload\n        /* \"PoolPandorasSepolia.sol\":13679:13712  uint256 index = depositIndices[i] */\n      swap1\n      pop\n        /* \"PoolPandorasSepolia.sol\":13726:13749  DepositInfo storage dep */\n      0x00\n        /* \"PoolPandorasSepolia.sol\":13752:13764  userDeposits */\n      0x06\n        /* \"PoolPandorasSepolia.sol\":13752:13770  userDeposits[user] */\n      0x00\n        /* \"PoolPandorasSepolia.sol\":13765:13769  user */\n      dup12\n      sub(shl(0xa0, 0x01), 0x01)\n        /* \"PoolPandorasSepolia.sol\":13752:13770  userDeposits[user] */\n      and\n      sub(shl(0xa0, 0x01), 0x01)\n      and\n      dup2\n      mstore\n      0x20\n      add\n      swap1\n      dup2\n      mstore\n      0x20\n      add\n      0x00\n      keccak256\n        /* \"PoolPandorasSepolia.sol\":13771:13776  index */\n      dup3\n        /* \"PoolPandorasSepolia.sol\":13752:13777  userDeposits[user][index] */\n      dup2\n      sload\n      dup2\n      lt\n      tag_692\n      jumpi\n      tag_692\n      tag_509\n      jump\t// in\n    tag_692:\n      0x00\n      swap2\n      dup3\n      mstore\n      0x20\n      swap1\n      swap2\n      keccak256\n        /* \"PoolPandorasSepolia.sol\":13808:13817  dep.flags */\n      0x01\n        /* \"PoolPandorasSepolia.sol\":13752:13777  userDeposits[user][index] */\n      0x02\n      swap1\n      swap3\n      mul\n      add\n        /* \"PoolPandorasSepolia.sol\":13808:13817  dep.flags */\n      dup2\n      dup2\n      add\n      sload\n        /* \"PoolPandorasSepolia.sol\":13752:13777  userDeposits[user][index] */\n      swap1\n      swap3\n      pop\n      shl(0x38, 0x01)\n        /* \"PoolPandorasSepolia.sol\":13808:13817  dep.flags */\n      swap1\n      div\n        /* \"PoolPandorasSepolia.sol\":11781:11797  flags & (1 << 0) */\n      and\n        /* \"PoolPandorasSepolia.sol\":11780:11803  (flags & (1 << 0)) != 0 */\n      iszero\n        /* \"PoolPandorasSepolia.sol\":13791:13845  if (_isWithdrawn(dep.flags)) revert AlreadyWithdrawn() */\n      tag_695\n      jumpi\n        /* \"PoolPandorasSepolia.sol\":13827:13845  AlreadyWithdrawn() */\n      mload(0x40)\n      shl(0xe0, 0x6507689f)\n      dup2\n      mstore\n      0x04\n      add\n      mload(0x40)\n      dup1\n      swap2\n      sub\n      swap1\n      revert\n        /* \"PoolPandorasSepolia.sol\":13791:13845  if (_isWithdrawn(dep.flags)) revert AlreadyWithdrawn() */\n    tag_695:\n        /* \"PoolPandorasSepolia.sol\":13897:13909  lockupPeriod */\n      sload(0x02)\n        /* \"PoolPandorasSepolia.sol\":13881:13894  dep.timestamp */\n      dup2\n      sload\n        /* \"PoolPandorasSepolia.sol\":13881:13909  dep.timestamp + lockupPeriod */\n      tag_696\n      swap2\n        /* \"PoolPandorasSepolia.sol\":13897:13909  lockupPeriod */\n      swap1\n      shl(0xc0, 0x01)\n        /* \"PoolPandorasSepolia.sol\":13881:13894  dep.timestamp */\n      swap1\n      div\n      0xffffffffffff\n      and\n        /* \"PoolPandorasSepolia.sol\":13881:13909  dep.timestamp + lockupPeriod */\n      tag_488\n      jump\t// in\n    tag_696:\n        /* \"PoolPandorasSepolia.sol\":13863:13878  block.timestamp */\n      timestamp\n        /* \"PoolPandorasSepolia.sol\":13863:13909  block.timestamp < dep.timestamp + lockupPeriod */\n      lt\n        /* \"PoolPandorasSepolia.sol\":13863:13943  block.timestamp < dep.timestamp + lockupPeriod && !_isUnlockedByAdmin(dep.flags) */\n      dup1\n      iszero\n      tag_697\n      jumpi\n      pop\n        /* \"PoolPandorasSepolia.sol\":13933:13942  dep.flags */\n      0x01\n      dup2\n      add\n      sload\n      shl(0x38, 0x01)\n      swap1\n      div\n        /* \"PoolPandorasSepolia.sol\":11900:11906  1 << 1 */\n      0x02\n        /* \"PoolPandorasSepolia.sol\":11891:11907  flags & (1 << 1) */\n      and\n        /* \"PoolPandorasSepolia.sol\":11890:11913  (flags & (1 << 1)) != 0 */\n      iszero\n        /* \"PoolPandorasSepolia.sol\":13863:13943  block.timestamp < dep.timestamp + lockupPeriod && !_isUnlockedByAdmin(dep.flags) */\n    tag_697:\n        /* \"PoolPandorasSepolia.sol\":13863:14007  block.timestamp < dep.timestamp + lockupPeriod && !_isUnlockedByAdmin(dep.flags) && !(globalLiquidationEnabled && _isFullyRedeemable(dep.flags)) */\n      dup1\n      iszero\n      tag_699\n      jumpi\n      pop\n        /* \"PoolPandorasSepolia.sol\":13949:13973  globalLiquidationEnabled */\n      sload(0x05)\n      0x01000000\n      swap1\n      div\n      0xff\n      and\n        /* \"PoolPandorasSepolia.sol\":13949:14006  globalLiquidationEnabled && _isFullyRedeemable(dep.flags) */\n      dup1\n      iszero\n      tag_701\n      jumpi\n      pop\n        /* \"PoolPandorasSepolia.sol\":13996:14005  dep.flags */\n      0x01\n      dup2\n      add\n      sload\n      shl(0x38, 0x01)\n      swap1\n      div\n        /* \"PoolPandorasSepolia.sol\":12010:12016  1 << 2 */\n      0x04\n        /* \"PoolPandorasSepolia.sol\":12001:12017  flags & (1 << 2) */\n      and\n        /* \"PoolPandorasSepolia.sol\":12000:12023  (flags & (1 << 2)) != 0 */\n      iszero\n      iszero\n        /* \"PoolPandorasSepolia.sol\":13977:14006  _isFullyRedeemable(dep.flags) */\n    tag_701:\n        /* \"PoolPandorasSepolia.sol\":13947:14007  !(globalLiquidationEnabled && _isFullyRedeemable(dep.flags)) */\n      iszero\n        /* \"PoolPandorasSepolia.sol\":13863:14007  block.timestamp < dep.timestamp + lockupPeriod && !_isUnlockedByAdmin(dep.flags) && !(globalLiquidationEnabled && _isFullyRedeemable(dep.flags)) */\n    tag_699:\n        /* \"PoolPandorasSepolia.sol\":13859:14064  if (block.timestamp < dep.timestamp + lockupPeriod && !_isUnlockedByAdmin(dep.flags) && !(globalLiquidationEnabled && _isFullyRedeemable(dep.flags))) {... */\n      iszero\n      tag_702\n      jumpi\n        /* \"PoolPandorasSepolia.sol\":14034:14049  DepositLocked() */\n      mload(0x40)\n      shl(0xe0, 0xf38b9b5b)\n      dup2\n      mstore\n      0x04\n      add\n      mload(0x40)\n      dup1\n      swap2\n      sub\n      swap1\n      revert\n        /* \"PoolPandorasSepolia.sol\":13859:14064  if (block.timestamp < dep.timestamp + lockupPeriod && !_isUnlockedByAdmin(dep.flags) && !(globalLiquidationEnabled && _isFullyRedeemable(dep.flags))) {... */\n    tag_702:\n        /* \"PoolPandorasSepolia.sol\":14089:14098  dep.flags */\n      0x01\n      dup2\n      dup2\n      add\n      dup1\n      sload\n      not(0xff00ffffffffffff)\n        /* \"PoolPandorasSepolia.sol\":14123:14164  dep.withdrawnAt = uint48(block.timestamp) */\n      dup2\n      and\n      shl(0x38, 0x01)\n        /* \"PoolPandorasSepolia.sol\":14089:14098  dep.flags */\n      swap2\n      dup3\n      swap1\n      div\n      0xff\n      and\n        /* \"PoolPandorasSepolia.sol\":14089:14109  dep.flags | (1 << 0) */\n      swap1\n      swap4\n      or\n        /* \"PoolPandorasSepolia.sol\":14077:14109  dep.flags = dep.flags | (1 << 0) */\n      mul\n      not(0xffffffffffff)\n        /* \"PoolPandorasSepolia.sol\":14123:14164  dep.withdrawnAt = uint48(block.timestamp) */\n      and\n      swap2\n      swap1\n      swap2\n      or\n        /* \"PoolPandorasSepolia.sol\":14148:14163  block.timestamp */\n      timestamp\n        /* \"PoolPandorasSepolia.sol\":14123:14164  dep.withdrawnAt = uint48(block.timestamp) */\n      0xffffffffffff\n      and\n      or\n      swap1\n      sstore\n        /* \"PoolPandorasSepolia.sol\":14198:14208  dep.amount */\n      dup1\n      sload\n      sub(shl(0x60, 0x01), 0x01)\n      dup1\n      dup3\n      and\n      swap2\n      shl(0x60, 0x01)\n        /* \"PoolPandorasSepolia.sol\":14241:14258  dep.yieldReceived */\n      swap1\n      div\n      and\n      0x00\n        /* \"PoolPandorasSepolia.sol\":14276:14285  dep.token */\n      0x01\n      dup5\n      dup2\n      add\n      sload\n      0x01000000000000\n      swap1\n      div\n      0xff\n      and\n      swap1\n        /* \"PoolPandorasSepolia.sol\":14276:14302  dep.token == TokenType.ETH */\n      dup2\n      gt\n      iszero\n      tag_706\n      jumpi\n      tag_706\n      tag_498\n      jump\t// in\n    tag_706:\n      sub\n        /* \"PoolPandorasSepolia.sol\":14272:14613  if (dep.token == TokenType.ETH) {... */\n      tag_707\n      jumpi\n        /* \"PoolPandorasSepolia.sol\":14322:14348  ethToWithdraw += principal */\n      tag_708\n        /* \"PoolPandorasSepolia.sol\":14339:14348  principal */\n      dup3\n        /* \"PoolPandorasSepolia.sol\":14322:14348  ethToWithdraw += principal */\n      dup9\n      tag_488\n      jump\t// in\n    tag_708:\n      swap7\n      pop\n        /* \"PoolPandorasSepolia.sol\":14366:14396  totalPrincipalETH += principal */\n      tag_709\n        /* \"PoolPandorasSepolia.sol\":14387:14396  principal */\n      dup3\n        /* \"PoolPandorasSepolia.sol\":14366:14396  totalPrincipalETH += principal */\n      dup13\n      tag_488\n      jump\t// in\n    tag_709:\n      swap11\n      pop\n        /* \"PoolPandorasSepolia.sol\":14414:14439  totalYieldETH += yieldAmt */\n      tag_710\n        /* \"PoolPandorasSepolia.sol\":14431:14439  yieldAmt */\n      dup2\n        /* \"PoolPandorasSepolia.sol\":14414:14439  totalYieldETH += yieldAmt */\n      dup12\n      tag_488\n      jump\t// in\n    tag_710:\n      swap10\n      pop\n        /* \"PoolPandorasSepolia.sol\":14272:14613  if (dep.token == TokenType.ETH) {... */\n      jump(tag_711)\n    tag_707:\n        /* \"PoolPandorasSepolia.sol\":14478:14505  usdcToWithdraw += principal */\n      tag_712\n        /* \"PoolPandorasSepolia.sol\":14496:14505  principal */\n      dup3\n        /* \"PoolPandorasSepolia.sol\":14478:14505  usdcToWithdraw += principal */\n      dup8\n      tag_488\n      jump\t// in\n    tag_712:\n      swap6\n      pop\n        /* \"PoolPandorasSepolia.sol\":14523:14554  totalPrincipalUSDC += principal */\n      tag_713\n        /* \"PoolPandorasSepolia.sol\":14545:14554  principal */\n      dup3\n        /* \"PoolPandorasSepolia.sol\":14523:14554  totalPrincipalUSDC += principal */\n      dup11\n      tag_488\n      jump\t// in\n    tag_713:\n      swap9\n      pop\n        /* \"PoolPandorasSepolia.sol\":14572:14598  totalYieldUSDC += yieldAmt */\n      tag_714\n        /* \"PoolPandorasSepolia.sol\":14590:14598  yieldAmt */\n      dup2\n        /* \"PoolPandorasSepolia.sol\":14572:14598  totalYieldUSDC += yieldAmt */\n      dup10\n      tag_488\n      jump\t// in\n    tag_714:\n      swap8\n      pop\n        /* \"PoolPandorasSepolia.sol\":14272:14613  if (dep.token == TokenType.ETH) {... */\n    tag_711:\n        /* \"PoolPandorasSepolia.sol\":14646:14655  dep.token */\n      0x01\n      dup4\n      add\n      sload\n        /* \"PoolPandorasSepolia.sol\":14631:14701  Withdraw(user, dep.token, principal, yieldAmt, block.timestamp, index) */\n      mload(0x40)\n      sub(shl(0xa0, 0x01), 0x01)\n      dup15\n      and\n      swap2\n      0xcb034b37ef3764745c35bafecd525367bcf312e9010239e6aeebbe6bcf57727f\n      swap2\n      tag_715\n      swap2\n        /* \"PoolPandorasSepolia.sol\":14646:14655  dep.token */\n      0x01000000000000\n      swap1\n      div\n      0xff\n      and\n      swap1\n        /* \"PoolPandorasSepolia.sol\":14657:14666  principal */\n      dup7\n      swap1\n        /* \"PoolPandorasSepolia.sol\":14668:14676  yieldAmt */\n      dup7\n      swap1\n        /* \"PoolPandorasSepolia.sol\":14678:14693  block.timestamp */\n      timestamp\n      swap1\n        /* \"PoolPandorasSepolia.sol\":14695:14700  index */\n      dup12\n      swap1\n        /* \"PoolPandorasSepolia.sol\":14631:14701  Withdraw(user, dep.token, principal, yieldAmt, block.timestamp, index) */\n      tag_548\n      jump\t// in\n    tag_715:\n      mload(0x40)\n      dup1\n      swap2\n      sub\n      swap1\n      log2\n      pop\n      pop\n        /* \"PoolPandorasSepolia.sol\":13660:13663  i++ */\n      0x01\n      swap1\n      swap3\n      add\n      swap2\n      pop\n        /* \"PoolPandorasSepolia.sol\":13613:14712  for (uint256 i = 0; i < depositIndices.length; i++) {... */\n      tag_686\n      swap1\n      pop\n      jump\n    tag_687:\n      pop\n        /* \"PoolPandorasSepolia.sol\":14725:14742  ethToWithdraw > 0 */\n      dup2\n      iszero\n        /* \"PoolPandorasSepolia.sol\":14721:14778  if (ethToWithdraw > 0) totalWithdrawnETH += ethToWithdraw */\n      tag_716\n      jumpi\n        /* \"PoolPandorasSepolia.sol\":14765:14778  ethToWithdraw */\n      dup2\n        /* \"PoolPandorasSepolia.sol\":14744:14761  totalWithdrawnETH */\n      0x11\n      0x00\n        /* \"PoolPandorasSepolia.sol\":14744:14778  totalWithdrawnETH += ethToWithdraw */\n      dup3\n      dup3\n      sload\n      tag_717\n      swap2\n      swap1\n      tag_488\n      jump\t// in\n    tag_717:\n      swap1\n      swap2\n      sstore\n      pop\n      pop\n        /* \"PoolPandorasSepolia.sol\":14721:14778  if (ethToWithdraw > 0) totalWithdrawnETH += ethToWithdraw */\n    tag_716:\n        /* \"PoolPandorasSepolia.sol\":14792:14810  usdcToWithdraw > 0 */\n      dup1\n      iszero\n        /* \"PoolPandorasSepolia.sol\":14788:14848  if (usdcToWithdraw > 0) totalWithdrawnUSDC += usdcToWithdraw */\n      tag_718\n      jumpi\n        /* \"PoolPandorasSepolia.sol\":14834:14848  usdcToWithdraw */\n      dup1\n        /* \"PoolPandorasSepolia.sol\":14812:14830  totalWithdrawnUSDC */\n      0x12\n      0x00\n        /* \"PoolPandorasSepolia.sol\":14812:14848  totalWithdrawnUSDC += usdcToWithdraw */\n      dup3\n      dup3\n      sload\n      tag_719\n      swap2\n      swap1\n      tag_488\n      jump\t// in\n    tag_719:\n      swap1\n      swap2\n      sstore\n      pop\n      pop\n        /* \"PoolPandorasSepolia.sol\":14788:14848  if (usdcToWithdraw > 0) totalWithdrawnUSDC += usdcToWithdraw */\n    tag_718:\n      sub(shl(0xa0, 0x01), 0x01)\n        /* \"PoolPandorasSepolia.sol\":14863:14881  hasWithdrawn[user] */\n      dup8\n      and\n      0x00\n      swap1\n      dup2\n      mstore\n        /* \"PoolPandorasSepolia.sol\":14863:14875  hasWithdrawn */\n      0x08\n        /* \"PoolPandorasSepolia.sol\":14863:14881  hasWithdrawn[user] */\n      0x20\n      mstore\n      0x40\n      swap1\n      keccak256\n      sload\n      0xff\n      and\n        /* \"PoolPandorasSepolia.sol\":14862:14881  !hasWithdrawn[user] */\n      iszero\n        /* \"PoolPandorasSepolia.sol\":14862:14910  !hasWithdrawn[user] && depositIndices.length > 0 */\n      dup1\n      iszero\n      tag_720\n      jumpi\n      pop\n        /* \"PoolPandorasSepolia.sol\":14885:14910  depositIndices.length > 0 */\n      dup8\n      iszero\n      iszero\n        /* \"PoolPandorasSepolia.sol\":14862:14910  !hasWithdrawn[user] && depositIndices.length > 0 */\n    tag_720:\n        /* \"PoolPandorasSepolia.sol\":14858:15001  if (!hasWithdrawn[user] && depositIndices.length > 0) {... */\n      iszero\n      tag_721\n      jumpi\n        /* \"PoolPandorasSepolia.sol\":14926:14940  withdrawnUsers */\n      0x0e\n        /* \"PoolPandorasSepolia.sol\":14926:14951  withdrawnUsers.push(user) */\n      dup1\n      sload\n      0x01\n      dup1\n      dup3\n      add\n      swap1\n      swap3\n      sstore\n      0xbb7b4a454dc3493923482f07822329ed19e8244eff582cc204f8554c3620c3fd\n      add\n      dup1\n      sload\n      not(0xffffffffffffffffffffffffffffffffffffffff)\n      and\n      sub(shl(0xa0, 0x01), 0x01)\n      dup11\n      and\n      swap1\n      dup2\n      or\n      swap1\n      swap2\n      sstore\n      0x00\n        /* \"PoolPandorasSepolia.sol\":14965:14983  hasWithdrawn[user] */\n      swap1\n      dup2\n      mstore\n        /* \"PoolPandorasSepolia.sol\":14965:14977  hasWithdrawn */\n      0x08\n        /* \"PoolPandorasSepolia.sol\":14926:14951  withdrawnUsers.push(user) */\n      0x20\n        /* \"PoolPandorasSepolia.sol\":14965:14983  hasWithdrawn[user] */\n      mstore\n      0x40\n      swap1\n      keccak256\n        /* \"PoolPandorasSepolia.sol\":14965:14990  hasWithdrawn[user] = true */\n      dup1\n      sload\n      not(0xff)\n      and\n      swap1\n      swap2\n      or\n      swap1\n      sstore\n        /* \"PoolPandorasSepolia.sol\":14858:15001  if (!hasWithdrawn[user] && depositIndices.length > 0) {... */\n    tag_721:\n        /* \"PoolPandorasSepolia.sol\":15050:15051  0 */\n      0x00\n        /* \"PoolPandorasSepolia.sol\":15014:15047  totalPrincipalETH + totalYieldETH */\n      tag_723\n        /* \"PoolPandorasSepolia.sol\":15034:15047  totalYieldETH */\n      dup7\n        /* \"PoolPandorasSepolia.sol\":15014:15031  totalPrincipalETH */\n      dup9\n        /* \"PoolPandorasSepolia.sol\":15014:15047  totalPrincipalETH + totalYieldETH */\n      tag_488\n      jump\t// in\n    tag_723:\n        /* \"PoolPandorasSepolia.sol\":15014:15051  totalPrincipalETH + totalYieldETH > 0 */\n      gt\n        /* \"PoolPandorasSepolia.sol\":15010:15313  if (totalPrincipalETH + totalYieldETH > 0) {... */\n      iszero\n      tag_724\n      jumpi\n        /* \"PoolPandorasSepolia.sol\":15068:15075  bool ok */\n      0x00\n      sub(shl(0xa0, 0x01), 0x01)\n        /* \"PoolPandorasSepolia.sol\":15081:15090  user.call */\n      dup9\n      and\n        /* \"PoolPandorasSepolia.sol\":15098:15131  totalPrincipalETH + totalYieldETH */\n      tag_725\n        /* \"PoolPandorasSepolia.sol\":15118:15131  totalYieldETH */\n      dup8\n        /* \"PoolPandorasSepolia.sol\":15098:15115  totalPrincipalETH */\n      dup10\n        /* \"PoolPandorasSepolia.sol\":15098:15131  totalPrincipalETH + totalYieldETH */\n      tag_488\n      jump\t// in\n    tag_725:\n        /* \"PoolPandorasSepolia.sol\":15081:15136  user.call{value: totalPrincipalETH + totalYieldETH}(\"\") */\n      mload(0x40)\n      0x00\n      dup2\n      dup2\n      dup2\n      dup6\n      dup8\n      gas\n      call\n      swap3\n      pop\n      pop\n      pop\n      returndatasize\n      dup1\n      0x00\n      dup2\n      eq\n      tag_729\n      jumpi\n      mload(0x40)\n      swap2\n      pop\n      and(add(returndatasize, 0x3f), not(0x1f))\n      dup3\n      add\n      0x40\n      mstore\n      returndatasize\n      dup3\n      mstore\n      returndatasize\n      0x00\n      0x20\n      dup5\n      add\n      returndatacopy\n      jump(tag_728)\n    tag_729:\n      0x60\n      swap2\n      pop\n    tag_728:\n      pop\n        /* \"PoolPandorasSepolia.sol\":15067:15136  (bool ok, ) = user.call{value: totalPrincipalETH + totalYieldETH}(\"\") */\n      pop\n      swap1\n      pop\n        /* \"PoolPandorasSepolia.sol\":15155:15157  ok */\n      dup1\n        /* \"PoolPandorasSepolia.sol\":15150:15182  if (!ok) revert TransferFailed() */\n      tag_730\n      jumpi\n        /* \"PoolPandorasSepolia.sol\":15166:15182  TransferFailed() */\n      mload(0x40)\n      shl(0xe3, 0x12171d83)\n      dup2\n      mstore\n      0x04\n      add\n      mload(0x40)\n      dup1\n      swap2\n      sub\n      swap1\n      revert\n        /* \"PoolPandorasSepolia.sol\":15150:15182  if (!ok) revert TransferFailed() */\n    tag_730:\n        /* \"PoolPandorasSepolia.sol\":15215:15219  user */\n      dup8\n      sub(shl(0xa0, 0x01), 0x01)\n        /* \"PoolPandorasSepolia.sol\":15201:15302  BatchWithdraw(user, TokenType.ETH, depositIndices, totalPrincipalETH, totalYieldETH, block.timestamp) */\n      and\n      0xbf06e98fe211a4b82f625232ab1c7a75caea5e0d624bc267578d6f22fce788c3\n        /* \"PoolPandorasSepolia.sol\":15221:15234  TokenType.ETH */\n      0x00\n        /* \"PoolPandorasSepolia.sol\":15236:15250  depositIndices */\n      dup13\n      dup13\n        /* \"PoolPandorasSepolia.sol\":15252:15269  totalPrincipalETH */\n      dup12\n        /* \"PoolPandorasSepolia.sol\":15271:15284  totalYieldETH */\n      dup12\n        /* \"PoolPandorasSepolia.sol\":15286:15301  block.timestamp */\n      timestamp\n        /* \"PoolPandorasSepolia.sol\":15201:15302  BatchWithdraw(user, TokenType.ETH, depositIndices, totalPrincipalETH, totalYieldETH, block.timestamp) */\n      mload(0x40)\n      tag_731\n      swap7\n      swap6\n      swap5\n      swap4\n      swap3\n      swap2\n      swap1\n      tag_732\n      jump\t// in\n    tag_731:\n      mload(0x40)\n      dup1\n      swap2\n      sub\n      swap1\n      log2\n        /* \"PoolPandorasSepolia.sol\":15053:15313  {... */\n      pop\n        /* \"PoolPandorasSepolia.sol\":15010:15313  if (totalPrincipalETH + totalYieldETH > 0) {... */\n    tag_724:\n        /* \"PoolPandorasSepolia.sol\":15364:15365  0 */\n      0x00\n        /* \"PoolPandorasSepolia.sol\":15326:15361  totalPrincipalUSDC + totalYieldUSDC */\n      tag_733\n        /* \"PoolPandorasSepolia.sol\":15347:15361  totalYieldUSDC */\n      dup5\n        /* \"PoolPandorasSepolia.sol\":15326:15344  totalPrincipalUSDC */\n      dup7\n        /* \"PoolPandorasSepolia.sol\":15326:15361  totalPrincipalUSDC + totalYieldUSDC */\n      tag_488\n      jump\t// in\n    tag_733:\n        /* \"PoolPandorasSepolia.sol\":15326:15365  totalPrincipalUSDC + totalYieldUSDC > 0 */\n      gt\n        /* \"PoolPandorasSepolia.sol\":15322:15571  if (totalPrincipalUSDC + totalYieldUSDC > 0) {... */\n      iszero\n      tag_734\n      jumpi\n      sub(shl(0xa0, 0x01), 0x01)\n        /* \"PoolPandorasSepolia.sol\":15381:15385  usdc */\n      immutable(\"0xb4da3a56484909ee405b9f4762910b7212e7eaa07e3685955dc8557a668fa7ea\")\n        /* \"PoolPandorasSepolia.sol\":15381:15394  usdc.transfer */\n      and\n      0xa9059cbb\n        /* \"PoolPandorasSepolia.sol\":15395:15399  user */\n      dup9\n        /* \"PoolPandorasSepolia.sol\":15401:15436  totalPrincipalUSDC + totalYieldUSDC */\n      tag_735\n        /* \"PoolPandorasSepolia.sol\":15422:15436  totalYieldUSDC */\n      dup7\n        /* \"PoolPandorasSepolia.sol\":15401:15419  totalPrincipalUSDC */\n      dup9\n        /* \"PoolPandorasSepolia.sol\":15401:15436  totalPrincipalUSDC + totalYieldUSDC */\n      tag_488\n      jump\t// in\n    tag_735:\n        /* \"PoolPandorasSepolia.sol\":15381:15437  usdc.transfer(user, totalPrincipalUSDC + totalYieldUSDC) */\n      mload(0x40)\n      not(sub(shl(0xe0, 0x01), 0x01))\n      0xe0\n      dup6\n      swap1\n      shl\n      and\n      dup2\n      mstore\n      sub(shl(0xa0, 0x01), 0x01)\n        /* \"#utility.yul\":12941:12996   */\n      swap1\n      swap3\n      and\n        /* \"PoolPandorasSepolia.sol\":15381:15437  usdc.transfer(user, totalPrincipalUSDC + totalYieldUSDC) */\n      0x04\n      dup4\n      add\n        /* \"#utility.yul\":12923:12997   */\n      mstore\n        /* \"#utility.yul\":13013:13031   */\n      0x24\n      dup3\n      add\n        /* \"#utility.yul\":13006:13040   */\n      mstore\n        /* \"#utility.yul\":12896:12914   */\n      0x44\n      add\n        /* \"PoolPandorasSepolia.sol\":15381:15437  usdc.transfer(user, totalPrincipalUSDC + totalYieldUSDC) */\n      0x20\n      mload(0x40)\n      dup1\n      dup4\n      sub\n      dup2\n      0x00\n      dup8\n      gas\n      call\n      iszero\n      dup1\n      iszero\n      tag_738\n      jumpi\n      returndatasize\n      0x00\n      dup1\n      returndatacopy\n      revert(0x00, returndatasize)\n    tag_738:\n      pop\n      pop\n      pop\n      pop\n      mload(0x40)\n      returndatasize\n      not(0x1f)\n      0x1f\n      dup3\n      add\n      and\n      dup3\n      add\n      dup1\n      0x40\n      mstore\n      pop\n      dup2\n      add\n      swap1\n      tag_739\n      swap2\n      swap1\n      tag_544\n      jump\t// in\n    tag_739:\n      pop\n        /* \"PoolPandorasSepolia.sol\":15470:15474  user */\n      dup7\n      sub(shl(0xa0, 0x01), 0x01)\n        /* \"PoolPandorasSepolia.sol\":15456:15560  BatchWithdraw(user, TokenType.USDC, depositIndices, totalPrincipalUSDC, totalYieldUSDC, block.timestamp) */\n      and\n      0xbf06e98fe211a4b82f625232ab1c7a75caea5e0d624bc267578d6f22fce788c3\n        /* \"PoolPandorasSepolia.sol\":15476:15490  TokenType.USDC */\n      0x01\n        /* \"PoolPandorasSepolia.sol\":15492:15506  depositIndices */\n      dup12\n      dup12\n        /* \"PoolPandorasSepolia.sol\":15508:15526  totalPrincipalUSDC */\n      dup9\n        /* \"PoolPandorasSepolia.sol\":15528:15542  totalYieldUSDC */\n      dup9\n        /* \"PoolPandorasSepolia.sol\":15544:15559  block.timestamp */\n      timestamp\n        /* \"PoolPandorasSepolia.sol\":15456:15560  BatchWithdraw(user, TokenType.USDC, depositIndices, totalPrincipalUSDC, totalYieldUSDC, block.timestamp) */\n      mload(0x40)\n      tag_740\n      swap7\n      swap6\n      swap5\n      swap4\n      swap3\n      swap2\n      swap1\n      tag_732\n      jump\t// in\n    tag_740:\n      mload(0x40)\n      dup1\n      swap2\n      sub\n      swap1\n      log2\n        /* \"PoolPandorasSepolia.sol\":15322:15571  if (totalPrincipalUSDC + totalYieldUSDC > 0) {... */\n    tag_734:\n        /* \"PoolPandorasSepolia.sol\":13369:15577  {... */\n      pop\n      pop\n      pop\n      pop\n      pop\n      pop\n      pop\n        /* \"@openzeppelin/contracts/utils/ReentrancyGuard.sol\":2542:2562   */\n      tag_649\n        /* \"@openzeppelin/contracts/utils/ReentrancyGuard.sol\":1857:1858   */\n      0x01\n        /* \"@openzeppelin/contracts/utils/ReentrancyGuard.sol\":3068:3089   */\n      dup1\n      sstore\n        /* \"@openzeppelin/contracts/utils/ReentrancyGuard.sol\":2888:3096   */\n      jump\n        /* \"PoolPandorasSepolia.sol\":17685:17983  function assignUtilityUSDC(address user, uint256 amount) external onlyRole(ADMIN_ROLE) {... */\n    tag_288:\n      0x00\n      dup1\n      mload\n      0x20\n      data_cb864c43dd5d441bb6271f424f11befa622c032dfd374d226e26fbbdb782b8f8\n      dup4\n      codecopy\n      dup2\n      mload\n      swap2\n      mstore\n        /* \"@openzeppelin/contracts/access/AccessControl.sol\":2473:2489   */\n      tag_743\n        /* \"@openzeppelin/contracts/access/AccessControl.sol\":2484:2488   */\n      dup2\n        /* \"@openzeppelin/contracts/access/AccessControl.sol\":2473:2483   */\n      tag_459\n        /* \"@openzeppelin/contracts/access/AccessControl.sol\":2473:2489   */\n      jump\t// in\n    tag_743:\n        /* \"PoolPandorasSepolia.sol\":17786:17792  amount */\n      dup2\n        /* \"PoolPandorasSepolia.sol\":17796:17797  0 */\n      0x00\n        /* \"PoolPandorasSepolia.sol\":17786:17797  amount == 0 */\n      sub\n        /* \"PoolPandorasSepolia.sol\":17782:17821  if (amount == 0) revert InvalidAmount() */\n      tag_745\n      jumpi\n        /* \"PoolPandorasSepolia.sol\":17806:17821  InvalidAmount() */\n      mload(0x40)\n      shl(0xe1, 0x162908e3)\n      dup2\n      mstore\n      0x04\n      add\n      mload(0x40)\n      dup1\n      swap2\n      sub\n      swap1\n      revert\n        /* \"PoolPandorasSepolia.sol\":17782:17821  if (amount == 0) revert InvalidAmount() */\n    tag_745:\n        /* \"PoolPandorasSepolia.sol\":17844:17860  totalUtilityUSDC */\n      sload(0x14)\n        /* \"PoolPandorasSepolia.sol\":17835:17841  amount */\n      dup3\n        /* \"PoolPandorasSepolia.sol\":17835:17860  amount > totalUtilityUSDC */\n      gt\n        /* \"PoolPandorasSepolia.sol\":17831:17890  if (amount > totalUtilityUSDC) revert ExceedsTotalUtility() */\n      iszero\n      tag_746\n      jumpi\n        /* \"PoolPandorasSepolia.sol\":17869:17890  ExceedsTotalUtility() */\n      mload(0x40)\n      shl(0xe0, 0x2f37549d)\n      dup2\n      mstore\n      0x04\n      add\n      mload(0x40)\n      dup1\n      swap2\n      sub\n      swap1\n      revert\n        /* \"PoolPandorasSepolia.sol\":17831:17890  if (amount > totalUtilityUSDC) revert ExceedsTotalUtility() */\n    tag_746:\n      sub(shl(0xa0, 0x01), 0x01)\n        /* \"PoolPandorasSepolia.sol\":17900:17930  userClaimableUtilityUSDC[user] */\n      dup4\n      and\n      0x00\n      swap1\n      dup2\n      mstore\n        /* \"PoolPandorasSepolia.sol\":17900:17924  userClaimableUtilityUSDC */\n      0x0a\n        /* \"PoolPandorasSepolia.sol\":17900:17930  userClaimableUtilityUSDC[user] */\n      0x20\n      mstore\n      0x40\n      dup2\n      keccak256\n        /* \"PoolPandorasSepolia.sol\":17900:17940  userClaimableUtilityUSDC[user] += amount */\n      dup1\n      sload\n        /* \"PoolPandorasSepolia.sol\":17934:17940  amount */\n      dup5\n      swap3\n        /* \"PoolPandorasSepolia.sol\":17900:17930  userClaimableUtilityUSDC[user] */\n      swap1\n        /* \"PoolPandorasSepolia.sol\":17900:17940  userClaimableUtilityUSDC[user] += amount */\n      tag_747\n      swap1\n        /* \"PoolPandorasSepolia.sol\":17934:17940  amount */\n      dup5\n      swap1\n        /* \"PoolPandorasSepolia.sol\":17900:17940  userClaimableUtilityUSDC[user] += amount */\n      tag_488\n      jump\t// in\n    tag_747:\n      swap3\n      pop\n      pop\n      dup2\n      swap1\n      sstore\n      pop\n        /* \"PoolPandorasSepolia.sol\":17970:17976  amount */\n      dup2\n        /* \"PoolPandorasSepolia.sol\":17950:17966  totalUtilityUSDC */\n      0x14\n      0x00\n        /* \"PoolPandorasSepolia.sol\":17950:17976  totalUtilityUSDC -= amount */\n      dup3\n      dup3\n      sload\n      tag_679\n      swap2\n      swap1\n      tag_472\n      jump\t// in\n        /* \"PoolPandorasSepolia.sol\":21215:21522  function withdrawUtilityUSDC(uint256 amount) external onlyRole(UTILITY_WITHDRAWER_ROLE) nonReentrant {... */\n    tag_292:\n        /* \"PoolPandorasSepolia.sol\":2094:2130  keccak256(\"UTILITY_WITHDRAWER_ROLE\") */\n      0x78c90eb9e475048b483a290aee04b5fe48355537c3623c7637b17d3bed71c6ed\n        /* \"@openzeppelin/contracts/access/AccessControl.sol\":2473:2489   */\n      tag_750\n        /* \"@openzeppelin/contracts/access/AccessControl.sol\":2484:2488   */\n      dup2\n        /* \"@openzeppelin/contracts/access/AccessControl.sol\":2473:2483   */\n      tag_459\n        /* \"@openzeppelin/contracts/access/AccessControl.sol\":2473:2489   */\n      jump\t// in\n    tag_750:\n        /* \"@openzeppelin/contracts/utils/ReentrancyGuard.sol\":2500:2521   */\n      tag_752\n        /* \"@openzeppelin/contracts/utils/ReentrancyGuard.sol\":2500:2519   */\n      tag_467\n        /* \"@openzeppelin/contracts/utils/ReentrancyGuard.sol\":2500:2521   */\n      jump\t// in\n    tag_752:\n        /* \"PoolPandorasSepolia.sol\":21330:21344  utilityAddress */\n      sload(0x05)\n      shl(0x50, 0x01)\n      swap1\n      div\n      sub(shl(0xa0, 0x01), 0x01)\n      and\n        /* \"PoolPandorasSepolia.sol\":21326:21380  if (utilityAddress == address(0)) revert ZeroAddress() */\n      tag_754\n      jumpi\n        /* \"PoolPandorasSepolia.sol\":21367:21380  ZeroAddress() */\n      mload(0x40)\n      shl(0xe0, 0xd92e233d)\n      dup2\n      mstore\n      0x04\n      add\n      mload(0x40)\n      dup1\n      swap2\n      sub\n      swap1\n      revert\n        /* \"PoolPandorasSepolia.sol\":21326:21380  if (utilityAddress == address(0)) revert ZeroAddress() */\n    tag_754:\n        /* \"PoolPandorasSepolia.sol\":21404:21418  utilityAddress */\n      sload(0x05)\n        /* \"PoolPandorasSepolia.sol\":21390:21427  usdc.transfer(utilityAddress, amount) */\n      mload(0x40)\n      shl(0xe0, 0xa9059cbb)\n      dup2\n      mstore\n      shl(0x50, 0x01)\n        /* \"PoolPandorasSepolia.sol\":21404:21418  utilityAddress */\n      swap1\n      swap2\n      div\n      sub(shl(0xa0, 0x01), 0x01)\n      swap1\n      dup2\n      and\n        /* \"PoolPandorasSepolia.sol\":21390:21427  usdc.transfer(utilityAddress, amount) */\n      0x04\n      dup4\n      add\n        /* \"#utility.yul\":12923:12997   */\n      mstore\n        /* \"#utility.yul\":13013:13031   */\n      0x24\n      dup3\n      add\n        /* \"#utility.yul\":13006:13040   */\n      dup5\n      swap1\n      mstore\n        /* \"PoolPandorasSepolia.sol\":21390:21394  usdc */\n      immutable(\"0xb4da3a56484909ee405b9f4762910b7212e7eaa07e3685955dc8557a668fa7ea\")\n        /* \"PoolPandorasSepolia.sol\":21390:21403  usdc.transfer */\n      and\n      swap1\n      0xa9059cbb\n      swap1\n        /* \"#utility.yul\":12896:12914   */\n      0x44\n      add\n        /* \"PoolPandorasSepolia.sol\":21390:21427  usdc.transfer(utilityAddress, amount) */\n      0x20\n      mload(0x40)\n      dup1\n      dup4\n      sub\n      dup2\n      0x00\n      dup8\n      gas\n      call\n      iszero\n      dup1\n      iszero\n      tag_757\n      jumpi\n      returndatasize\n      0x00\n      dup1\n      returndatacopy\n      revert(0x00, returndatasize)\n    tag_757:\n      pop\n      pop\n      pop\n      pop\n      mload(0x40)\n      returndatasize\n      not(0x1f)\n      0x1f\n      dup3\n      add\n      and\n      dup3\n      add\n      dup1\n      0x40\n      mstore\n      pop\n      dup2\n      add\n      swap1\n      tag_758\n      swap2\n      swap1\n      tag_544\n      jump\t// in\n    tag_758:\n      pop\n        /* \"PoolPandorasSepolia.sol\":21459:21473  utilityAddress */\n      0x05\n      0x0a\n      swap1\n      sload\n      swap1\n      0x0100\n      exp\n      swap1\n      div\n      sub(shl(0xa0, 0x01), 0x01)\n      and\n      sub(shl(0xa0, 0x01), 0x01)\n        /* \"PoolPandorasSepolia.sol\":21442:21515  UtilityWithdrawn(utilityAddress, TokenType.USDC, amount, block.timestamp) */\n      and\n      0x9adbdc797aca3ce26a722598f00149b2328fd124444e6d0b10c4bdc7cfc38196\n        /* \"PoolPandorasSepolia.sol\":21475:21489  TokenType.USDC */\n      0x01\n        /* \"PoolPandorasSepolia.sol\":21491:21497  amount */\n      dup5\n        /* \"PoolPandorasSepolia.sol\":21499:21514  block.timestamp */\n      timestamp\n        /* \"PoolPandorasSepolia.sol\":21442:21515  UtilityWithdrawn(utilityAddress, TokenType.USDC, amount, block.timestamp) */\n      mload(0x40)\n      tag_648\n      swap4\n      swap3\n      swap2\n      swap1\n      tag_476\n      jump\t// in\n        /* \"PoolPandorasSepolia.sol\":15636:16116  function unlockDepositsForUser(address user, uint256[] calldata depositIndices) external onlyRole(UNLOCKER_ROLE) {... */\n    tag_302:\n        /* \"PoolPandorasSepolia.sol\":1924:1950  keccak256(\"UNLOCKER_ROLE\") */\n      0xc806897caf4fd5068191157e44d3988e43139a37e0b97b6793e1ed1184140604\n        /* \"@openzeppelin/contracts/access/AccessControl.sol\":2473:2489   */\n      tag_763\n        /* \"@openzeppelin/contracts/access/AccessControl.sol\":2484:2488   */\n      dup2\n        /* \"@openzeppelin/contracts/access/AccessControl.sol\":2473:2483   */\n      tag_459\n        /* \"@openzeppelin/contracts/access/AccessControl.sol\":2473:2489   */\n      jump\t// in\n    tag_763:\n        /* \"PoolPandorasSepolia.sol\":15764:15773  uint256 i */\n      0x00\n        /* \"PoolPandorasSepolia.sol\":15759:16057  for (uint256 i = 0; i < depositIndices.length; i++) {... */\n    tag_765:\n        /* \"PoolPandorasSepolia.sol\":15779:15804  i < depositIndices.length */\n      dup3\n      dup2\n      lt\n        /* \"PoolPandorasSepolia.sol\":15759:16057  for (uint256 i = 0; i < depositIndices.length; i++) {... */\n      iszero\n      tag_766\n      jumpi\n      sub(shl(0xa0, 0x01), 0x01)\n        /* \"PoolPandorasSepolia.sol\":15851:15869  userDeposits[user] */\n      dup6\n      and\n        /* \"PoolPandorasSepolia.sol\":15825:15848  DepositInfo storage dep */\n      0x00\n        /* \"PoolPandorasSepolia.sol\":15851:15869  userDeposits[user] */\n      swap1\n      dup2\n      mstore\n        /* \"PoolPandorasSepolia.sol\":15851:15863  userDeposits */\n      0x06\n        /* \"PoolPandorasSepolia.sol\":15851:15869  userDeposits[user] */\n      0x20\n      mstore\n      0x40\n      dup2\n      keccak256\n        /* \"PoolPandorasSepolia.sol\":15870:15884  depositIndices */\n      dup6\n      dup6\n        /* \"PoolPandorasSepolia.sol\":15885:15886  i */\n      dup5\n        /* \"PoolPandorasSepolia.sol\":15870:15887  depositIndices[i] */\n      dup2\n      dup2\n      lt\n      tag_769\n      jumpi\n      tag_769\n      tag_509\n      jump\t// in\n    tag_769:\n      swap1\n      pop\n      0x20\n      mul\n      add\n      calldataload\n        /* \"PoolPandorasSepolia.sol\":15851:15888  userDeposits[user][depositIndices[i]] */\n      dup2\n      sload\n      dup2\n      lt\n      tag_771\n      jumpi\n      tag_771\n      tag_509\n      jump\t// in\n    tag_771:\n      0x00\n      swap2\n      dup3\n      mstore\n      0x20\n      swap1\n      swap2\n      keccak256\n        /* \"PoolPandorasSepolia.sol\":15919:15928  dep.flags */\n      0x01\n        /* \"PoolPandorasSepolia.sol\":15851:15888  userDeposits[user][depositIndices[i]] */\n      0x02\n      swap1\n      swap3\n      mul\n      add\n        /* \"PoolPandorasSepolia.sol\":15919:15928  dep.flags */\n      dup2\n      dup2\n      add\n      sload\n        /* \"PoolPandorasSepolia.sol\":15851:15888  userDeposits[user][depositIndices[i]] */\n      swap1\n      swap3\n      pop\n      shl(0x38, 0x01)\n        /* \"PoolPandorasSepolia.sol\":15919:15928  dep.flags */\n      swap1\n      div\n        /* \"PoolPandorasSepolia.sol\":11781:11797  flags & (1 << 0) */\n      and\n        /* \"PoolPandorasSepolia.sol\":11780:11803  (flags & (1 << 0)) != 0 */\n      iszero\n      iszero\n        /* \"PoolPandorasSepolia.sol\":15906:15962  _isWithdrawn(dep.flags) || _isUnlockedByAdmin(dep.flags) */\n      dup1\n      tag_775\n      jumpi\n      pop\n        /* \"PoolPandorasSepolia.sol\":15952:15961  dep.flags */\n      0x01\n      dup2\n      add\n      sload\n      shl(0x38, 0x01)\n      swap1\n      div\n        /* \"PoolPandorasSepolia.sol\":11900:11906  1 << 1 */\n      0x02\n        /* \"PoolPandorasSepolia.sol\":11891:11907  flags & (1 << 1) */\n      and\n        /* \"PoolPandorasSepolia.sol\":11890:11913  (flags & (1 << 1)) != 0 */\n      iszero\n      iszero\n        /* \"PoolPandorasSepolia.sol\":15933:15962  _isUnlockedByAdmin(dep.flags) */\n    tag_775:\n        /* \"PoolPandorasSepolia.sol\":15902:15999  if (_isWithdrawn(dep.flags) || _isUnlockedByAdmin(dep.flags)) revert AlreadyUnlockedOrWithdrawn() */\n      iszero\n      tag_776\n      jumpi\n        /* \"PoolPandorasSepolia.sol\":15971:15999  AlreadyUnlockedOrWithdrawn() */\n      mload(0x40)\n      shl(0xe1, 0x181821bd)\n      dup2\n      mstore\n      0x04\n      add\n      mload(0x40)\n      dup1\n      swap2\n      sub\n      swap1\n      revert\n        /* \"PoolPandorasSepolia.sol\":15902:15999  if (_isWithdrawn(dep.flags) || _isUnlockedByAdmin(dep.flags)) revert AlreadyUnlockedOrWithdrawn() */\n    tag_776:\n        /* \"PoolPandorasSepolia.sol\":16025:16034  dep.flags */\n      0x01\n      swap1\n      dup2\n      add\n      dup1\n      sload\n      not(0xff00000000000000)\n        /* \"PoolPandorasSepolia.sol\":16013:16045  dep.flags = dep.flags | (1 << 1) */\n      dup2\n      and\n      shl(0x38, 0x01)\n        /* \"PoolPandorasSepolia.sol\":16025:16034  dep.flags */\n      swap2\n      dup3\n      swap1\n      div\n      0xff\n      and\n        /* \"PoolPandorasSepolia.sol\":16038:16044  1 << 1 */\n      0x02\n        /* \"PoolPandorasSepolia.sol\":16025:16045  dep.flags | (1 << 1) */\n      or\n        /* \"PoolPandorasSepolia.sol\":16013:16045  dep.flags = dep.flags | (1 << 1) */\n      swap1\n      swap2\n      mul\n      or\n      swap1\n      sstore\n        /* \"PoolPandorasSepolia.sol\":15806:15809  i++ */\n      add\n        /* \"PoolPandorasSepolia.sol\":15759:16057  for (uint256 i = 0; i < depositIndices.length; i++) {... */\n      jump(tag_765)\n    tag_766:\n      pop\n        /* \"PoolPandorasSepolia.sol\":16088:16092  user */\n      dup4\n      sub(shl(0xa0, 0x01), 0x01)\n        /* \"PoolPandorasSepolia.sol\":16071:16109  DepositsUnlocked(user, depositIndices) */\n      and\n      0x8b655a966f162e1d3686ea25cd61682331984ab5662b451deff96f12d716f45b\n        /* \"PoolPandorasSepolia.sol\":16094:16108  depositIndices */\n      dup5\n      dup5\n        /* \"PoolPandorasSepolia.sol\":16071:16109  DepositsUnlocked(user, depositIndices) */\n      mload(0x40)\n      tag_777\n      swap3\n      swap2\n      swap1\n      tag_778\n      jump\t// in\n    tag_777:\n      mload(0x40)\n      dup1\n      swap2\n      sub\n      swap1\n      log2\n        /* \"PoolPandorasSepolia.sol\":15636:16116  function unlockDepositsForUser(address user, uint256[] calldata depositIndices) external onlyRole(UNLOCKER_ROLE) {... */\n      pop\n      pop\n      pop\n      pop\n      jump\t// out\n        /* \"PoolPandorasSepolia.sol\":8003:8260  function setUtilityAddress(address newUtilityAddress) external onlyRole(ADMIN_ROLE) {... */\n    tag_319:\n      0x00\n      dup1\n      mload\n      0x20\n      data_cb864c43dd5d441bb6271f424f11befa622c032dfd374d226e26fbbdb782b8f8\n      dup4\n      codecopy\n      dup2\n      mload\n      swap2\n      mstore\n        /* \"@openzeppelin/contracts/access/AccessControl.sol\":2473:2489   */\n      tag_780\n        /* \"@openzeppelin/contracts/access/AccessControl.sol\":2484:2488   */\n      dup2\n        /* \"@openzeppelin/contracts/access/AccessControl.sol\":2473:2483   */\n      tag_459\n        /* \"@openzeppelin/contracts/access/AccessControl.sol\":2473:2489   */\n      jump\t// in\n    tag_780:\n      sub(shl(0xa0, 0x01), 0x01)\n        /* \"PoolPandorasSepolia.sol\":8101:8132  newUtilityAddress == address(0) */\n      dup3\n      and\n        /* \"PoolPandorasSepolia.sol\":8097:8154  if (newUtilityAddress == address(0)) revert ZeroAddress() */\n      tag_782\n      jumpi\n        /* \"PoolPandorasSepolia.sol\":8141:8154  ZeroAddress() */\n      mload(0x40)\n      shl(0xe0, 0xd92e233d)\n      dup2\n      mstore\n      0x04\n      add\n      mload(0x40)\n      dup1\n      swap2\n      sub\n      swap1\n      revert\n        /* \"PoolPandorasSepolia.sol\":8097:8154  if (newUtilityAddress == address(0)) revert ZeroAddress() */\n    tag_782:\n        /* \"PoolPandorasSepolia.sol\":8164:8178  utilityAddress */\n      0x05\n        /* \"PoolPandorasSepolia.sol\":8164:8198  utilityAddress = newUtilityAddress */\n      dup1\n      sload\n      0xffff0000000000000000000000000000000000000000ffffffffffffffffffff\n      and\n      shl(0x50, 0x01)\n      sub(shl(0xa0, 0x01), 0x01)\n      dup6\n      and\n      swap1\n      dup2\n      mul\n      swap2\n      swap1\n      swap2\n      or\n      swap1\n      swap2\n      sstore\n        /* \"PoolPandorasSepolia.sol\":8213:8253  UtilityAddressChanged(newUtilityAddress) */\n      mload(0x40)\n        /* \"#utility.yul\":5072:5146   */\n      swap1\n      dup2\n      mstore\n        /* \"PoolPandorasSepolia.sol\":8213:8253  UtilityAddressChanged(newUtilityAddress) */\n      0x1d6240e71a77c9e9d07d1d6ecbb9ea4274fcc8bc19adc5b05a3548ac7e40e189\n      swap1\n        /* \"#utility.yul\":5060:5062   */\n      0x20\n        /* \"#utility.yul\":5045:5063   */\n      add\n        /* \"PoolPandorasSepolia.sol\":8213:8253  UtilityAddressChanged(newUtilityAddress) */\n    tag_783:\n      mload(0x40)\n      dup1\n      swap2\n      sub\n      swap1\n      log1\n        /* \"PoolPandorasSepolia.sol\":8003:8260  function setUtilityAddress(address newUtilityAddress) external onlyRole(ADMIN_ROLE) {... */\n      pop\n      pop\n      jump\t// out\n        /* \"PoolPandorasSepolia.sol\":8780:9197  function withdrawForInvestmentUSDC(address to, uint256 amount) external onlyRole(MANAGER_ROLE) nonReentrant {... */\n    tag_327:\n        /* \"PoolPandorasSepolia.sol\":2185:2210  keccak256(\"MANAGER_ROLE\") */\n      0x241ecf16d79d0f8dbfb92cbc07fe17840425976cf0667f022fe9877caa831b08\n        /* \"@openzeppelin/contracts/access/AccessControl.sol\":2473:2489   */\n      tag_785\n        /* \"@openzeppelin/contracts/access/AccessControl.sol\":2484:2488   */\n      dup2\n        /* \"@openzeppelin/contracts/access/AccessControl.sol\":2473:2483   */\n      tag_459\n        /* \"@openzeppelin/contracts/access/AccessControl.sol\":2473:2489   */\n      jump\t// in\n    tag_785:\n        /* \"@openzeppelin/contracts/utils/ReentrancyGuard.sol\":2500:2521   */\n      tag_787\n        /* \"@openzeppelin/contracts/utils/ReentrancyGuard.sol\":2500:2519   */\n      tag_467\n        /* \"@openzeppelin/contracts/utils/ReentrancyGuard.sol\":2500:2521   */\n      jump\t// in\n    tag_787:\n      sub(shl(0xa0, 0x01), 0x01)\n        /* \"PoolPandorasSepolia.sol\":8902:8918  to == address(0) */\n      dup4\n      and\n        /* \"PoolPandorasSepolia.sol\":8898:8940  if (to == address(0)) revert ZeroAddress() */\n      tag_789\n      jumpi\n        /* \"PoolPandorasSepolia.sol\":8927:8940  ZeroAddress() */\n      mload(0x40)\n      shl(0xe0, 0xd92e233d)\n      dup2\n      mstore\n      0x04\n      add\n      mload(0x40)\n      dup1\n      swap2\n      sub\n      swap1\n      revert\n        /* \"PoolPandorasSepolia.sol\":8898:8940  if (to == address(0)) revert ZeroAddress() */\n    tag_789:\n        /* \"PoolPandorasSepolia.sol\":8963:8992  usdc.balanceOf(address(this)) */\n      mload(0x40)\n      shl(0xe0, 0x70a08231)\n      dup2\n      mstore\n        /* \"PoolPandorasSepolia.sol\":8986:8990  this */\n      address\n        /* \"PoolPandorasSepolia.sol\":8963:8992  usdc.balanceOf(address(this)) */\n      0x04\n      dup3\n      add\n        /* \"#utility.yul\":5072:5146   */\n      mstore\n        /* \"PoolPandorasSepolia.sol\":8963:8967  usdc */\n      immutable(\"0xb4da3a56484909ee405b9f4762910b7212e7eaa07e3685955dc8557a668fa7ea\")\n      sub(shl(0xa0, 0x01), 0x01)\n        /* \"PoolPandorasSepolia.sol\":8963:8977  usdc.balanceOf */\n      and\n      swap1\n      0x70a08231\n      swap1\n        /* \"#utility.yul\":5045:5063   */\n      0x24\n      add\n        /* \"PoolPandorasSepolia.sol\":8963:8992  usdc.balanceOf(address(this)) */\n      0x20\n      mload(0x40)\n      dup1\n      dup4\n      sub\n      dup2\n      dup7\n      gas\n      staticcall\n      iszero\n      dup1\n      iszero\n      tag_792\n      jumpi\n      returndatasize\n      0x00\n      dup1\n      returndatacopy\n      revert(0x00, returndatasize)\n    tag_792:\n      pop\n      pop\n      pop\n      pop\n      mload(0x40)\n      returndatasize\n      not(0x1f)\n      0x1f\n      dup3\n      add\n      and\n      dup3\n      add\n      dup1\n      0x40\n      mstore\n      pop\n      dup2\n      add\n      swap1\n      tag_793\n      swap2\n      swap1\n      tag_794\n      jump\t// in\n    tag_793:\n        /* \"PoolPandorasSepolia.sol\":8954:8960  amount */\n      dup3\n        /* \"PoolPandorasSepolia.sol\":8954:8992  amount > usdc.balanceOf(address(this)) */\n      gt\n        /* \"PoolPandorasSepolia.sol\":8950:9022  if (amount > usdc.balanceOf(address(this))) revert InsufficientBalance() */\n      iszero\n      tag_795\n      jumpi\n        /* \"PoolPandorasSepolia.sol\":9001:9022  InsufficientBalance() */\n      mload(0x40)\n      shl(0xe3, 0x1e9acf17)\n      dup2\n      mstore\n      0x04\n      add\n      mload(0x40)\n      dup1\n      swap2\n      sub\n      swap1\n      revert\n        /* \"PoolPandorasSepolia.sol\":8950:9022  if (amount > usdc.balanceOf(address(this))) revert InsufficientBalance() */\n    tag_795:\n        /* \"PoolPandorasSepolia.sol\":9053:9059  amount */\n      dup2\n        /* \"PoolPandorasSepolia.sol\":9032:9049  totalInvestedUSDC */\n      0x18\n      0x00\n        /* \"PoolPandorasSepolia.sol\":9032:9059  totalInvestedUSDC += amount */\n      dup3\n      dup3\n      sload\n      tag_796\n      swap2\n      swap1\n      tag_488\n      jump\t// in\n    tag_796:\n      swap1\n      swap2\n      sstore\n      pop\n      pop\n        /* \"PoolPandorasSepolia.sol\":9069:9094  usdc.transfer(to, amount) */\n      mload(0x40)\n      shl(0xe0, 0xa9059cbb)\n      dup2\n      mstore\n      sub(shl(0xa0, 0x01), 0x01)\n        /* \"#utility.yul\":12941:12996   */\n      dup5\n      dup2\n      and\n        /* \"PoolPandorasSepolia.sol\":9069:9094  usdc.transfer(to, amount) */\n      0x04\n      dup4\n      add\n        /* \"#utility.yul\":12923:12997   */\n      mstore\n        /* \"#utility.yul\":13013:13031   */\n      0x24\n      dup3\n      add\n        /* \"#utility.yul\":13006:13040   */\n      dup5\n      swap1\n      mstore\n        /* \"PoolPandorasSepolia.sol\":9069:9073  usdc */\n      immutable(\"0xb4da3a56484909ee405b9f4762910b7212e7eaa07e3685955dc8557a668fa7ea\")\n        /* \"PoolPandorasSepolia.sol\":9069:9082  usdc.transfer */\n      and\n      swap1\n      0xa9059cbb\n      swap1\n        /* \"#utility.yul\":12896:12914   */\n      0x44\n      add\n        /* \"PoolPandorasSepolia.sol\":9069:9094  usdc.transfer(to, amount) */\n      0x20\n      mload(0x40)\n      dup1\n      dup4\n      sub\n      dup2\n      0x00\n      dup8\n      gas\n      call\n      iszero\n      dup1\n      iszero\n      tag_799\n      jumpi\n      returndatasize\n      0x00\n      dup1\n      returndatacopy\n      revert(0x00, returndatasize)\n    tag_799:\n      pop\n      pop\n      pop\n      pop\n      mload(0x40)\n      returndatasize\n      not(0x1f)\n      0x1f\n      dup3\n      add\n      and\n      dup3\n      add\n      dup1\n      0x40\n      mstore\n      pop\n      dup2\n      add\n      swap1\n      tag_800\n      swap2\n      swap1\n      tag_544\n      jump\t// in\n    tag_800:\n      pop\n        /* \"PoolPandorasSepolia.sol\":9162:9164  to */\n      dup3\n      sub(shl(0xa0, 0x01), 0x01)\n        /* \"PoolPandorasSepolia.sol\":9109:9190  WithdrawnForInvestment(_msgSender(), TokenType.USDC, to, amount, block.timestamp) */\n      and\n        /* \"PoolPandorasSepolia.sol\":9132:9144  _msgSender() */\n      tag_801\n        /* \"PoolPandorasSepolia.sol\":9132:9142  _msgSender */\n      tag_474\n        /* \"PoolPandorasSepolia.sol\":9132:9144  _msgSender() */\n      jump\t// in\n    tag_801:\n      sub(shl(0xa0, 0x01), 0x01)\n        /* \"PoolPandorasSepolia.sol\":9109:9190  WithdrawnForInvestment(_msgSender(), TokenType.USDC, to, amount, block.timestamp) */\n      and\n      0x8d4f9c9a6da9172da9a02229d92e4af088c62953986a74048d010260b197def3\n        /* \"PoolPandorasSepolia.sol\":9146:9160  TokenType.USDC */\n      0x01\n        /* \"PoolPandorasSepolia.sol\":9166:9172  amount */\n      dup6\n        /* \"PoolPandorasSepolia.sol\":9174:9189  block.timestamp */\n      timestamp\n        /* \"PoolPandorasSepolia.sol\":9109:9190  WithdrawnForInvestment(_msgSender(), TokenType.USDC, to, amount, block.timestamp) */\n      mload(0x40)\n      tag_802\n      swap4\n      swap3\n      swap2\n      swap1\n      tag_476\n      jump\t// in\n    tag_802:\n      mload(0x40)\n      dup1\n      swap2\n      sub\n      swap1\n      log3\n        /* \"@openzeppelin/contracts/utils/ReentrancyGuard.sol\":2542:2562   */\n      tag_559\n        /* \"@openzeppelin/contracts/utils/ReentrancyGuard.sol\":1857:1858   */\n      0x01\n        /* \"@openzeppelin/contracts/utils/ReentrancyGuard.sol\":3068:3089   */\n      dup1\n      sstore\n        /* \"@openzeppelin/contracts/utils/ReentrancyGuard.sol\":2888:3096   */\n      jump\n        /* \"PoolPandorasSepolia.sol\":20774:21210  function withdrawUtilityETH(uint256 amount) external onlyRole(UTILITY_WITHDRAWER_ROLE) nonReentrant {... */\n    tag_336:\n        /* \"PoolPandorasSepolia.sol\":2094:2130  keccak256(\"UTILITY_WITHDRAWER_ROLE\") */\n      0x78c90eb9e475048b483a290aee04b5fe48355537c3623c7637b17d3bed71c6ed\n        /* \"@openzeppelin/contracts/access/AccessControl.sol\":2473:2489   */\n      tag_806\n        /* \"@openzeppelin/contracts/access/AccessControl.sol\":2484:2488   */\n      dup2\n        /* \"@openzeppelin/contracts/access/AccessControl.sol\":2473:2483   */\n      tag_459\n        /* \"@openzeppelin/contracts/access/AccessControl.sol\":2473:2489   */\n      jump\t// in\n    tag_806:\n        /* \"@openzeppelin/contracts/utils/ReentrancyGuard.sol\":2500:2521   */\n      tag_808\n        /* \"@openzeppelin/contracts/utils/ReentrancyGuard.sol\":2500:2519   */\n      tag_467\n        /* \"@openzeppelin/contracts/utils/ReentrancyGuard.sol\":2500:2521   */\n      jump\t// in\n    tag_808:\n        /* \"PoolPandorasSepolia.sol\":20888:20902  utilityAddress */\n      sload(0x05)\n      shl(0x50, 0x01)\n      swap1\n      div\n      sub(shl(0xa0, 0x01), 0x01)\n      and\n        /* \"PoolPandorasSepolia.sol\":20884:20938  if (utilityAddress == address(0)) revert ZeroAddress() */\n      tag_810\n      jumpi\n        /* \"PoolPandorasSepolia.sol\":20925:20938  ZeroAddress() */\n      mload(0x40)\n      shl(0xe0, 0xd92e233d)\n      dup2\n      mstore\n      0x04\n      add\n      mload(0x40)\n      dup1\n      swap2\n      sub\n      swap1\n      revert\n        /* \"PoolPandorasSepolia.sol\":20884:20938  if (utilityAddress == address(0)) revert ZeroAddress() */\n    tag_810:\n        /* \"PoolPandorasSepolia.sol\":20961:20982  address(this).balance */\n      selfbalance\n        /* \"PoolPandorasSepolia.sol\":20952:20958  amount */\n      dup3\n        /* \"PoolPandorasSepolia.sol\":20952:20982  amount > address(this).balance */\n      gt\n        /* \"PoolPandorasSepolia.sol\":20948:21012  if (amount > address(this).balance) revert InsufficientBalance() */\n      iszero\n      tag_811\n      jumpi\n        /* \"PoolPandorasSepolia.sol\":20991:21012  InsufficientBalance() */\n      mload(0x40)\n      shl(0xe3, 0x1e9acf17)\n      dup2\n      mstore\n      0x04\n      add\n      mload(0x40)\n      dup1\n      swap2\n      sub\n      swap1\n      revert\n        /* \"PoolPandorasSepolia.sol\":20948:21012  if (amount > address(this).balance) revert InsufficientBalance() */\n    tag_811:\n        /* \"PoolPandorasSepolia.sol\":21036:21050  utilityAddress */\n      sload(0x05)\n        /* \"PoolPandorasSepolia.sol\":21036:21074  utilityAddress.call{value: amount}(\"\") */\n      mload(0x40)\n        /* \"PoolPandorasSepolia.sol\":21023:21030  bool ok */\n      0x00\n      swap2\n      shl(0x50, 0x01)\n        /* \"PoolPandorasSepolia.sol\":21036:21050  utilityAddress */\n      swap1\n      div\n      sub(shl(0xa0, 0x01), 0x01)\n      and\n      swap1\n        /* \"PoolPandorasSepolia.sol\":21063:21069  amount */\n      dup5\n      swap1\n        /* \"PoolPandorasSepolia.sol\":21023:21030  bool ok */\n      dup4\n        /* \"PoolPandorasSepolia.sol\":21036:21074  utilityAddress.call{value: amount}(\"\") */\n      dup2\n        /* \"PoolPandorasSepolia.sol\":21023:21030  bool ok */\n      dup2\n        /* \"PoolPandorasSepolia.sol\":21036:21074  utilityAddress.call{value: amount}(\"\") */\n      dup2\n        /* \"PoolPandorasSepolia.sol\":21063:21069  amount */\n      dup6\n        /* \"PoolPandorasSepolia.sol\":21036:21050  utilityAddress */\n      dup8\n        /* \"PoolPandorasSepolia.sol\":21036:21074  utilityAddress.call{value: amount}(\"\") */\n      gas\n      call\n      swap3\n      pop\n      pop\n      pop\n      returndatasize\n      dup1\n      0x00\n      dup2\n      eq\n      tag_815\n      jumpi\n      mload(0x40)\n      swap2\n      pop\n      and(add(returndatasize, 0x3f), not(0x1f))\n      dup3\n      add\n      0x40\n      mstore\n      returndatasize\n      dup3\n      mstore\n      returndatasize\n      0x00\n      0x20\n      dup5\n      add\n      returndatacopy\n      jump(tag_814)\n    tag_815:\n      0x60\n      swap2\n      pop\n    tag_814:\n      pop\n        /* \"PoolPandorasSepolia.sol\":21022:21074  (bool ok, ) = utilityAddress.call{value: amount}(\"\") */\n      pop\n      swap1\n      pop\n        /* \"PoolPandorasSepolia.sol\":21089:21091  ok */\n      dup1\n        /* \"PoolPandorasSepolia.sol\":21084:21116  if (!ok) revert TransferFailed() */\n      tag_816\n      jumpi\n        /* \"PoolPandorasSepolia.sol\":21100:21116  TransferFailed() */\n      mload(0x40)\n      shl(0xe3, 0x12171d83)\n      dup2\n      mstore\n      0x04\n      add\n      mload(0x40)\n      dup1\n      swap2\n      sub\n      swap1\n      revert\n        /* \"PoolPandorasSepolia.sol\":21084:21116  if (!ok) revert TransferFailed() */\n    tag_816:\n        /* \"PoolPandorasSepolia.sol\":21148:21162  utilityAddress */\n      0x05\n      0x0a\n      swap1\n      sload\n      swap1\n      0x0100\n      exp\n      swap1\n      div\n      sub(shl(0xa0, 0x01), 0x01)\n      and\n      sub(shl(0xa0, 0x01), 0x01)\n        /* \"PoolPandorasSepolia.sol\":21131:21203  UtilityWithdrawn(utilityAddress, TokenType.ETH, amount, block.timestamp) */\n      and\n      0x9adbdc797aca3ce26a722598f00149b2328fd124444e6d0b10c4bdc7cfc38196\n        /* \"PoolPandorasSepolia.sol\":21164:21177  TokenType.ETH */\n      0x00\n        /* \"PoolPandorasSepolia.sol\":21179:21185  amount */\n      dup6\n        /* \"PoolPandorasSepolia.sol\":21187:21202  block.timestamp */\n      timestamp\n        /* \"PoolPandorasSepolia.sol\":21131:21203  UtilityWithdrawn(utilityAddress, TokenType.ETH, amount, block.timestamp) */\n      mload(0x40)\n      tag_817\n      swap4\n      swap3\n      swap2\n      swap1\n      tag_476\n      jump\t// in\n    tag_817:\n      mload(0x40)\n      dup1\n      swap2\n      sub\n      swap1\n      log2\n        /* \"PoolPandorasSepolia.sol\":20874:21210  {... */\n      pop\n        /* \"@openzeppelin/contracts/utils/ReentrancyGuard.sol\":2542:2562   */\n      tag_649\n        /* \"@openzeppelin/contracts/utils/ReentrancyGuard.sol\":1857:1858   */\n      0x01\n        /* \"@openzeppelin/contracts/utils/ReentrancyGuard.sol\":3068:3089   */\n      dup1\n      sstore\n        /* \"@openzeppelin/contracts/utils/ReentrancyGuard.sol\":2888:3096   */\n      jump\n        /* \"PoolPandorasSepolia.sol\":3000:3031  address[] public withdrawnUsers */\n    tag_348:\n      0x0e\n      dup2\n      dup2\n      sload\n      dup2\n      lt\n      tag_819\n      jumpi\n      0x00\n      dup1\n      revert\n    tag_819:\n      0x00\n      swap2\n      dup3\n      mstore\n      0x20\n      swap1\n      swap2\n      keccak256\n      add\n      sload\n      sub(shl(0xa0, 0x01), 0x01)\n      and\n      swap1\n      pop\n      dup2\n      jump\t// out\n        /* \"PoolPandorasSepolia.sol\":21775:22771  function getVaultStats() external view returns (uint256 ethInVault, uint256 usdcInVault, uint256 totalDepositedETH_, uint256 totalDepositedUSDC_, uint256 totalWithdrawnETH_, uint256 totalWithdrawnUSDC_, uint256 totalUtilityETH_, uint256 totalUtilityUSDC_, uint256 totalReinvestedETH_, uint256 totalReinvestedUSDC_, uint256 totalInvestedETH_, uint256 totalInvestedUSDC_, uint256 numDepositors, uint256 numWithdrawnUsers) {... */\n    tag_356:\n        /* \"PoolPandorasSepolia.sol\":21823:21841  uint256 ethInVault */\n      0x00\n        /* \"PoolPandorasSepolia.sol\":21843:21862  uint256 usdcInVault */\n      dup1\n        /* \"PoolPandorasSepolia.sol\":21864:21890  uint256 totalDepositedETH_ */\n      0x00\n        /* \"PoolPandorasSepolia.sol\":21892:21919  uint256 totalDepositedUSDC_ */\n      dup1\n        /* \"PoolPandorasSepolia.sol\":21921:21947  uint256 totalWithdrawnETH_ */\n      0x00\n        /* \"PoolPandorasSepolia.sol\":21949:21976  uint256 totalWithdrawnUSDC_ */\n      dup1\n        /* \"PoolPandorasSepolia.sol\":21978:22002  uint256 totalUtilityETH_ */\n      0x00\n        /* \"PoolPandorasSepolia.sol\":22004:22029  uint256 totalUtilityUSDC_ */\n      dup1\n        /* \"PoolPandorasSepolia.sol\":22031:22058  uint256 totalReinvestedETH_ */\n      0x00\n        /* \"PoolPandorasSepolia.sol\":22060:22088  uint256 totalReinvestedUSDC_ */\n      dup1\n        /* \"PoolPandorasSepolia.sol\":22090:22115  uint256 totalInvestedETH_ */\n      0x00\n        /* \"PoolPandorasSepolia.sol\":22117:22143  uint256 totalInvestedUSDC_ */\n      dup1\n        /* \"PoolPandorasSepolia.sol\":22145:22166  uint256 numDepositors */\n      0x00\n        /* \"PoolPandorasSepolia.sol\":22168:22193  uint256 numWithdrawnUsers */\n      dup1\n        /* \"PoolPandorasSepolia.sol\":22218:22239  address(this).balance */\n      selfbalance\n        /* \"PoolPandorasSepolia.sol\":22205:22239  ethInVault = address(this).balance */\n      swap14\n      pop\n        /* \"PoolPandorasSepolia.sol\":22263:22267  usdc */\n      immutable(\"0xb4da3a56484909ee405b9f4762910b7212e7eaa07e3685955dc8557a668fa7ea\")\n      sub(shl(0xa0, 0x01), 0x01)\n        /* \"PoolPandorasSepolia.sol\":22263:22277  usdc.balanceOf */\n      and\n      0x70a08231\n        /* \"PoolPandorasSepolia.sol\":22286:22290  this */\n      address\n        /* \"PoolPandorasSepolia.sol\":22263:22292  usdc.balanceOf(address(this)) */\n      mload(0x40)\n      dup3\n      0xffffffff\n      and\n      0xe0\n      shl\n      dup2\n      mstore\n      0x04\n      add\n      tag_822\n      swap2\n      swap1\n      sub(shl(0xa0, 0x01), 0x01)\n        /* \"#utility.yul\":5090:5145   */\n      swap2\n      swap1\n      swap2\n      and\n        /* \"#utility.yul\":5072:5146   */\n      dup2\n      mstore\n        /* \"#utility.yul\":5060:5062   */\n      0x20\n        /* \"#utility.yul\":5045:5063   */\n      add\n      swap1\n        /* \"#utility.yul\":4910:5152   */\n      jump\n        /* \"PoolPandorasSepolia.sol\":22263:22292  usdc.balanceOf(address(this)) */\n    tag_822:\n      0x20\n      mload(0x40)\n      dup1\n      dup4\n      sub\n      dup2\n      dup7\n      gas\n      staticcall\n      iszero\n      dup1\n      iszero\n      tag_824\n      jumpi\n      returndatasize\n      0x00\n      dup1\n      returndatacopy\n      revert(0x00, returndatasize)\n    tag_824:\n      pop\n      pop\n      pop\n      pop\n      mload(0x40)\n      returndatasize\n      not(0x1f)\n      0x1f\n      dup3\n      add\n      and\n      dup3\n      add\n      dup1\n      0x40\n      mstore\n      pop\n      dup2\n      add\n      swap1\n      tag_825\n      swap2\n      swap1\n      tag_794\n      jump\t// in\n    tag_825:\n        /* \"PoolPandorasSepolia.sol\":22249:22292  usdcInVault = usdc.balanceOf(address(this)) */\n      swap13\n      pop\n        /* \"PoolPandorasSepolia.sol\":22323:22340  totalDepositedETH */\n      sload(0x0f)\n        /* \"PoolPandorasSepolia.sol\":22302:22340  totalDepositedETH_ = totalDepositedETH */\n      swap12\n      pop\n        /* \"PoolPandorasSepolia.sol\":22364:22382  totalDepositedUSDC */\n      sload(0x10)\n        /* \"PoolPandorasSepolia.sol\":22342:22382  totalDepositedUSDC_ = totalDepositedUSDC */\n      swap11\n      pop\n        /* \"PoolPandorasSepolia.sol\":22405:22422  totalWithdrawnETH */\n      sload(0x11)\n        /* \"PoolPandorasSepolia.sol\":22384:22422  totalWithdrawnETH_ = totalWithdrawnETH */\n      swap10\n      pop\n        /* \"PoolPandorasSepolia.sol\":22446:22464  totalWithdrawnUSDC */\n      sload(0x12)\n        /* \"PoolPandorasSepolia.sol\":22424:22464  totalWithdrawnUSDC_ = totalWithdrawnUSDC */\n      swap9\n      pop\n        /* \"PoolPandorasSepolia.sol\":22485:22500  totalUtilityETH */\n      sload(0x13)\n        /* \"PoolPandorasSepolia.sol\":22466:22500  totalUtilityETH_ = totalUtilityETH */\n      swap8\n      pop\n        /* \"PoolPandorasSepolia.sol\":22522:22538  totalUtilityUSDC */\n      sload(0x14)\n        /* \"PoolPandorasSepolia.sol\":22502:22538  totalUtilityUSDC_ = totalUtilityUSDC */\n      swap7\n      pop\n        /* \"PoolPandorasSepolia.sol\":22562:22580  totalReinvestedETH */\n      sload(0x15)\n        /* \"PoolPandorasSepolia.sol\":22540:22580  totalReinvestedETH_ = totalReinvestedETH */\n      swap6\n      pop\n        /* \"PoolPandorasSepolia.sol\":22605:22624  totalReinvestedUSDC */\n      sload(0x16)\n        /* \"PoolPandorasSepolia.sol\":22582:22624  totalReinvestedUSDC_ = totalReinvestedUSDC */\n      swap5\n      pop\n        /* \"PoolPandorasSepolia.sol\":22646:22662  totalInvestedETH */\n      sload(0x17)\n        /* \"PoolPandorasSepolia.sol\":22626:22662  totalInvestedETH_ = totalInvestedETH */\n      swap4\n      pop\n        /* \"PoolPandorasSepolia.sol\":22685:22702  totalInvestedUSDC */\n      sload(0x18)\n        /* \"PoolPandorasSepolia.sol\":22664:22702  totalInvestedUSDC_ = totalInvestedUSDC */\n      swap3\n      pop\n        /* \"PoolPandorasSepolia.sol\":22720:22721  0 */\n      0x00\n        /* \"PoolPandorasSepolia.sol\":22704:22721  numDepositors = 0 */\n      swap2\n      pop\n        /* \"PoolPandorasSepolia.sol\":22743:22757  withdrawnUsers */\n      0x0e\n        /* \"PoolPandorasSepolia.sol\":22743:22764  withdrawnUsers.length */\n      dup1\n      sload\n      swap1\n      pop\n        /* \"PoolPandorasSepolia.sol\":22723:22764  numWithdrawnUsers = withdrawnUsers.length */\n      swap1\n      pop\n        /* \"PoolPandorasSepolia.sol\":21775:22771  function getVaultStats() external view returns (uint256 ethInVault, uint256 usdcInVault, uint256 totalDepositedETH_, uint256 totalDepositedUSDC_, uint256 totalWithdrawnETH_, uint256 totalWithdrawnUSDC_, uint256 totalUtilityETH_, uint256 totalUtilityUSDC_, uint256 totalReinvestedETH_, uint256 totalReinvestedUSDC_, uint256 totalInvestedETH_, uint256 totalInvestedUSDC_, uint256 numDepositors, uint256 numWithdrawnUsers) {... */\n      swap1\n      swap2\n      swap3\n      swap4\n      swap5\n      swap6\n      swap7\n      swap8\n      swap9\n      swap10\n      swap11\n      swap12\n      swap13\n      swap14\n      jump\t// out\n        /* \"PoolPandorasSepolia.sol\":21527:21770  function rescueERC20(address token, address to, uint256 amount) external onlyRole(ADMIN_ROLE) {... */\n    tag_363:\n      0x00\n      dup1\n      mload\n      0x20\n      data_cb864c43dd5d441bb6271f424f11befa622c032dfd374d226e26fbbdb782b8f8\n      dup4\n      codecopy\n      dup2\n      mload\n      swap2\n      mstore\n        /* \"@openzeppelin/contracts/access/AccessControl.sol\":2473:2489   */\n      tag_827\n        /* \"@openzeppelin/contracts/access/AccessControl.sol\":2484:2488   */\n      dup2\n        /* \"@openzeppelin/contracts/access/AccessControl.sol\":2473:2483   */\n      tag_459\n        /* \"@openzeppelin/contracts/access/AccessControl.sol\":2473:2489   */\n      jump\t// in\n    tag_827:\n      sub(shl(0xa0, 0x01), 0x01)\n        /* \"PoolPandorasSepolia.sol\":21635:21651  to == address(0) */\n      dup4\n      and\n        /* \"PoolPandorasSepolia.sol\":21631:21673  if (to == address(0)) revert ZeroAddress() */\n      tag_829\n      jumpi\n        /* \"PoolPandorasSepolia.sol\":21660:21673  ZeroAddress() */\n      mload(0x40)\n      shl(0xe0, 0xd92e233d)\n      dup2\n      mstore\n      0x04\n      add\n      mload(0x40)\n      dup1\n      swap2\n      sub\n      swap1\n      revert\n        /* \"PoolPandorasSepolia.sol\":21631:21673  if (to == address(0)) revert ZeroAddress() */\n    tag_829:\n        /* \"PoolPandorasSepolia.sol\":21683:21717  IERC20(token).transfer(to, amount) */\n      mload(0x40)\n      shl(0xe0, 0xa9059cbb)\n      dup2\n      mstore\n      sub(shl(0xa0, 0x01), 0x01)\n        /* \"#utility.yul\":12941:12996   */\n      dup5\n      dup2\n      and\n        /* \"PoolPandorasSepolia.sol\":21683:21717  IERC20(token).transfer(to, amount) */\n      0x04\n      dup4\n      add\n        /* \"#utility.yul\":12923:12997   */\n      mstore\n        /* \"#utility.yul\":13013:13031   */\n      0x24\n      dup3\n      add\n        /* \"#utility.yul\":13006:13040   */\n      dup5\n      swap1\n      mstore\n        /* \"PoolPandorasSepolia.sol\":21683:21705  IERC20(token).transfer */\n      dup6\n      and\n      swap1\n      0xa9059cbb\n      swap1\n        /* \"#utility.yul\":12896:12914   */\n      0x44\n      add\n        /* \"PoolPandorasSepolia.sol\":21683:21717  IERC20(token).transfer(to, amount) */\n      0x20\n      mload(0x40)\n      dup1\n      dup4\n      sub\n      dup2\n      0x00\n      dup8\n      gas\n      call\n      iszero\n      dup1\n      iszero\n      tag_832\n      jumpi\n      returndatasize\n      0x00\n      dup1\n      returndatacopy\n      revert(0x00, returndatasize)\n    tag_832:\n      pop\n      pop\n      pop\n      pop\n      mload(0x40)\n      returndatasize\n      not(0x1f)\n      0x1f\n      dup3\n      add\n      and\n      dup3\n      add\n      dup1\n      0x40\n      mstore\n      pop\n      dup2\n      add\n      swap1\n      tag_833\n      swap2\n      swap1\n      tag_544\n      jump\t// in\n    tag_833:\n      pop\n        /* \"PoolPandorasSepolia.sol\":21752:21754  to */\n      dup3\n      sub(shl(0xa0, 0x01), 0x01)\n        /* \"PoolPandorasSepolia.sol\":21732:21763  ERC20Rescued(token, to, amount) */\n      and\n        /* \"PoolPandorasSepolia.sol\":21745:21750  token */\n      dup5\n      sub(shl(0xa0, 0x01), 0x01)\n        /* \"PoolPandorasSepolia.sol\":21732:21763  ERC20Rescued(token, to, amount) */\n      and\n      0x8bbfbb5d7fcacf6fc74005cdede0635561638507f576c95f7f294c22141be2e5\n        /* \"PoolPandorasSepolia.sol\":21756:21762  amount */\n      dup5\n        /* \"PoolPandorasSepolia.sol\":21732:21763  ERC20Rescued(token, to, amount) */\n      mload(0x40)\n      tag_834\n      swap2\n        /* \"#utility.yul\":1035:1060   */\n      dup2\n      mstore\n        /* \"#utility.yul\":1023:1025   */\n      0x20\n        /* \"#utility.yul\":1008:1026   */\n      add\n      swap1\n        /* \"#utility.yul\":889:1066   */\n      jump\n        /* \"PoolPandorasSepolia.sol\":21732:21763  ERC20Rescued(token, to, amount) */\n    tag_834:\n      mload(0x40)\n      dup1\n      swap2\n      sub\n      swap1\n      log3\n        /* \"PoolPandorasSepolia.sol\":21527:21770  function rescueERC20(address token, address to, uint256 amount) external onlyRole(ADMIN_ROLE) {... */\n      pop\n      pop\n      pop\n      pop\n      jump\t// out\n        /* \"PoolPandorasSepolia.sol\":17988:18543  function assignUtilityETHBatch(address[] calldata users, uint256[] calldata amounts) external onlyRole(ADMIN_ROLE) {... */\n    tag_375:\n      0x00\n      dup1\n      mload\n      0x20\n      data_cb864c43dd5d441bb6271f424f11befa622c032dfd374d226e26fbbdb782b8f8\n      dup4\n      codecopy\n      dup2\n      mload\n      swap2\n      mstore\n        /* \"@openzeppelin/contracts/access/AccessControl.sol\":2473:2489   */\n      tag_836\n        /* \"@openzeppelin/contracts/access/AccessControl.sol\":2484:2488   */\n      dup2\n        /* \"@openzeppelin/contracts/access/AccessControl.sol\":2473:2483   */\n      tag_459\n        /* \"@openzeppelin/contracts/access/AccessControl.sol\":2473:2489   */\n      jump\t// in\n    tag_836:\n        /* \"PoolPandorasSepolia.sol\":18117:18147  users.length != amounts.length */\n      dup4\n      dup3\n      eq\n        /* \"PoolPandorasSepolia.sol\":18113:18177  if (users.length != amounts.length) revert ArrayLengthMismatch() */\n      tag_838\n      jumpi\n        /* \"PoolPandorasSepolia.sol\":18156:18177  ArrayLengthMismatch() */\n      mload(0x40)\n      shl(0xe1, 0x512509d3)\n      dup2\n      mstore\n      0x04\n      add\n      mload(0x40)\n      dup1\n      swap2\n      sub\n      swap1\n      revert\n        /* \"PoolPandorasSepolia.sol\":18113:18177  if (users.length != amounts.length) revert ArrayLengthMismatch() */\n    tag_838:\n        /* \"PoolPandorasSepolia.sol\":18187:18198  uint256 sum */\n      0x00\n      dup1\n        /* \"PoolPandorasSepolia.sol\":18208:18440  for (uint256 i = 0; i < users.length; i++) {... */\n    tag_839:\n        /* \"PoolPandorasSepolia.sol\":18228:18244  i < users.length */\n      dup6\n      dup2\n      lt\n        /* \"PoolPandorasSepolia.sol\":18208:18440  for (uint256 i = 0; i < users.length; i++) {... */\n      iszero\n      tag_840\n      jumpi\n        /* \"PoolPandorasSepolia.sol\":18265:18279  uint256 amount */\n      0x00\n        /* \"PoolPandorasSepolia.sol\":18282:18289  amounts */\n      dup6\n      dup6\n        /* \"PoolPandorasSepolia.sol\":18290:18291  i */\n      dup4\n        /* \"PoolPandorasSepolia.sol\":18282:18292  amounts[i] */\n      dup2\n      dup2\n      lt\n      tag_843\n      jumpi\n      tag_843\n      tag_509\n      jump\t// in\n    tag_843:\n      swap1\n      pop\n      0x20\n      mul\n      add\n      calldataload\n        /* \"PoolPandorasSepolia.sol\":18265:18292  uint256 amount = amounts[i] */\n      swap1\n      pop\n        /* \"PoolPandorasSepolia.sol\":18310:18316  amount */\n      dup1\n        /* \"PoolPandorasSepolia.sol\":18320:18321  0 */\n      0x00\n        /* \"PoolPandorasSepolia.sol\":18310:18321  amount == 0 */\n      sub\n        /* \"PoolPandorasSepolia.sol\":18306:18345  if (amount == 0) revert InvalidAmount() */\n      tag_844\n      jumpi\n        /* \"PoolPandorasSepolia.sol\":18330:18345  InvalidAmount() */\n      mload(0x40)\n      shl(0xe1, 0x162908e3)\n      dup2\n      mstore\n      0x04\n      add\n      mload(0x40)\n      dup1\n      swap2\n      sub\n      swap1\n      revert\n        /* \"PoolPandorasSepolia.sol\":18306:18345  if (amount == 0) revert InvalidAmount() */\n    tag_844:\n        /* \"PoolPandorasSepolia.sol\":18396:18402  amount */\n      dup1\n        /* \"PoolPandorasSepolia.sol\":18359:18382  userClaimableUtilityETH */\n      0x09\n        /* \"PoolPandorasSepolia.sol\":18359:18392  userClaimableUtilityETH[users[i]] */\n      0x00\n        /* \"PoolPandorasSepolia.sol\":18383:18388  users */\n      dup11\n      dup11\n        /* \"PoolPandorasSepolia.sol\":18389:18390  i */\n      dup7\n        /* \"PoolPandorasSepolia.sol\":18383:18391  users[i] */\n      dup2\n      dup2\n      lt\n      tag_846\n      jumpi\n      tag_846\n      tag_509\n      jump\t// in\n    tag_846:\n      swap1\n      pop\n      0x20\n      mul\n      add\n      0x20\n      dup2\n      add\n      swap1\n      tag_847\n      swap2\n      swap1\n      tag_122\n      jump\t// in\n    tag_847:\n      sub(shl(0xa0, 0x01), 0x01)\n        /* \"PoolPandorasSepolia.sol\":18359:18392  userClaimableUtilityETH[users[i]] */\n      and\n      sub(shl(0xa0, 0x01), 0x01)\n      and\n      dup2\n      mstore\n      0x20\n      add\n      swap1\n      dup2\n      mstore\n      0x20\n      add\n      0x00\n      keccak256\n      0x00\n        /* \"PoolPandorasSepolia.sol\":18359:18402  userClaimableUtilityETH[users[i]] += amount */\n      dup3\n      dup3\n      sload\n      tag_848\n      swap2\n      swap1\n      tag_488\n      jump\t// in\n    tag_848:\n      swap1\n      swap2\n      sstore\n      pop\n        /* \"PoolPandorasSepolia.sol\":18416:18429  sum += amount */\n      tag_849\n      swap1\n      pop\n        /* \"PoolPandorasSepolia.sol\":18423:18429  amount */\n      dup2\n        /* \"PoolPandorasSepolia.sol\":18416:18429  sum += amount */\n      dup5\n      tag_488\n      jump\t// in\n    tag_849:\n      swap3\n      pop\n      pop\n        /* \"PoolPandorasSepolia.sol\":18246:18249  i++ */\n      0x01\n      add\n        /* \"PoolPandorasSepolia.sol\":18208:18440  for (uint256 i = 0; i < users.length; i++) {... */\n      jump(tag_839)\n    tag_840:\n      pop\n        /* \"PoolPandorasSepolia.sol\":18459:18474  totalUtilityETH */\n      sload(0x13)\n        /* \"PoolPandorasSepolia.sol\":18453:18456  sum */\n      dup2\n        /* \"PoolPandorasSepolia.sol\":18453:18474  sum > totalUtilityETH */\n      gt\n        /* \"PoolPandorasSepolia.sol\":18449:18504  if (sum > totalUtilityETH) revert ExceedsTotalUtility() */\n      iszero\n      tag_850\n      jumpi\n        /* \"PoolPandorasSepolia.sol\":18483:18504  ExceedsTotalUtility() */\n      mload(0x40)\n      shl(0xe0, 0x2f37549d)\n      dup2\n      mstore\n      0x04\n      add\n      mload(0x40)\n      dup1\n      swap2\n      sub\n      swap1\n      revert\n        /* \"PoolPandorasSepolia.sol\":18449:18504  if (sum > totalUtilityETH) revert ExceedsTotalUtility() */\n    tag_850:\n        /* \"PoolPandorasSepolia.sol\":18533:18536  sum */\n      dup1\n        /* \"PoolPandorasSepolia.sol\":18514:18529  totalUtilityETH */\n      0x13\n      0x00\n        /* \"PoolPandorasSepolia.sol\":18514:18536  totalUtilityETH -= sum */\n      dup3\n      dup3\n      sload\n      tag_577\n      swap2\n      swap1\n      tag_472\n      jump\t// in\n        /* \"PoolPandorasSepolia.sol\":20317:20769  function reinvestUtilityUSDC() external nonReentrant {... */\n    tag_378:\n        /* \"@openzeppelin/contracts/utils/ReentrancyGuard.sol\":2500:2521   */\n      tag_853\n        /* \"@openzeppelin/contracts/utils/ReentrancyGuard.sol\":2500:2519   */\n      tag_467\n        /* \"@openzeppelin/contracts/utils/ReentrancyGuard.sol\":2500:2521   */\n      jump\t// in\n    tag_853:\n        /* \"PoolPandorasSepolia.sol\":20380:20392  address user */\n      0x00\n        /* \"PoolPandorasSepolia.sol\":20395:20407  _msgSender() */\n      tag_855\n        /* \"PoolPandorasSepolia.sol\":20395:20405  _msgSender */\n      tag_474\n        /* \"PoolPandorasSepolia.sol\":20395:20407  _msgSender() */\n      jump\t// in\n    tag_855:\n      sub(shl(0xa0, 0x01), 0x01)\n        /* \"PoolPandorasSepolia.sol\":20431:20461  userClaimableUtilityUSDC[user] */\n      dup2\n      and\n        /* \"PoolPandorasSepolia.sol\":20417:20428  uint256 amt */\n      0x00\n        /* \"PoolPandorasSepolia.sol\":20431:20461  userClaimableUtilityUSDC[user] */\n      swap1\n      dup2\n      mstore\n        /* \"PoolPandorasSepolia.sol\":20431:20455  userClaimableUtilityUSDC */\n      0x0a\n        /* \"PoolPandorasSepolia.sol\":20431:20461  userClaimableUtilityUSDC[user] */\n      0x20\n      mstore\n      0x40\n      dup2\n      keccak256\n      sload\n        /* \"PoolPandorasSepolia.sol\":20380:20407  address user = _msgSender() */\n      swap2\n      swap3\n      pop\n        /* \"PoolPandorasSepolia.sol\":20475:20483  amt == 0 */\n      dup2\n      swap1\n      sub\n        /* \"PoolPandorasSepolia.sol\":20471:20510  if (amt == 0) revert NoUtilityToClaim() */\n      tag_856\n      jumpi\n        /* \"PoolPandorasSepolia.sol\":20492:20510  NoUtilityToClaim() */\n      mload(0x40)\n      shl(0xe2, 0x3bd65a7b)\n      dup2\n      mstore\n      0x04\n      add\n      mload(0x40)\n      dup1\n      swap2\n      sub\n      swap1\n      revert\n        /* \"PoolPandorasSepolia.sol\":20471:20510  if (amt == 0) revert NoUtilityToClaim() */\n    tag_856:\n      sub(shl(0xa0, 0x01), 0x01)\n        /* \"PoolPandorasSepolia.sol\":20520:20550  userClaimableUtilityUSDC[user] */\n      dup3\n      and\n        /* \"PoolPandorasSepolia.sol\":20553:20554  0 */\n      0x00\n        /* \"PoolPandorasSepolia.sol\":20520:20550  userClaimableUtilityUSDC[user] */\n      swap1\n      dup2\n      mstore\n        /* \"PoolPandorasSepolia.sol\":20520:20544  userClaimableUtilityUSDC */\n      0x0a\n        /* \"PoolPandorasSepolia.sol\":20520:20550  userClaimableUtilityUSDC[user] */\n      0x20\n      mstore\n      0x40\n      dup2\n      keccak256\n        /* \"PoolPandorasSepolia.sol\":20520:20554  userClaimableUtilityUSDC[user] = 0 */\n      sstore\n        /* \"PoolPandorasSepolia.sol\":20564:20613  _registerDeposit(user, TokenType.USDC, amt, true) */\n      tag_857\n        /* \"PoolPandorasSepolia.sol\":20545:20549  user */\n      dup3\n        /* \"PoolPandorasSepolia.sol\":20587:20601  TokenType.USDC */\n      0x01\n        /* \"PoolPandorasSepolia.sol\":20603:20606  amt */\n      dup4\n        /* \"PoolPandorasSepolia.sol\":20587:20601  TokenType.USDC */\n      dup2\n        /* \"PoolPandorasSepolia.sol\":20564:20580  _registerDeposit */\n      tag_486\n        /* \"PoolPandorasSepolia.sol\":20564:20613  _registerDeposit(user, TokenType.USDC, amt, true) */\n      jump\t// in\n    tag_857:\n        /* \"PoolPandorasSepolia.sol\":20646:20649  amt */\n      dup1\n        /* \"PoolPandorasSepolia.sol\":20623:20642  totalReinvestedUSDC */\n      0x16\n      0x00\n        /* \"PoolPandorasSepolia.sol\":20623:20649  totalReinvestedUSDC += amt */\n      dup3\n      dup3\n      sload\n      tag_858\n      swap2\n      swap1\n      tag_488\n      jump\t// in\n    tag_858:\n      swap1\n      swap2\n      sstore\n      pop\n      pop\n      sub(shl(0xa0, 0x01), 0x01)\n        /* \"PoolPandorasSepolia.sol\":20659:20688  userTotalReinvestedUSDC[user] */\n      dup3\n      and\n      0x00\n      swap1\n      dup2\n      mstore\n        /* \"PoolPandorasSepolia.sol\":20659:20682  userTotalReinvestedUSDC */\n      0x0c\n        /* \"PoolPandorasSepolia.sol\":20659:20688  userTotalReinvestedUSDC[user] */\n      0x20\n      mstore\n      0x40\n      dup2\n      keccak256\n        /* \"PoolPandorasSepolia.sol\":20659:20695  userTotalReinvestedUSDC[user] += amt */\n      dup1\n      sload\n        /* \"PoolPandorasSepolia.sol\":20692:20695  amt */\n      dup4\n      swap3\n        /* \"PoolPandorasSepolia.sol\":20659:20688  userTotalReinvestedUSDC[user] */\n      swap1\n        /* \"PoolPandorasSepolia.sol\":20659:20695  userTotalReinvestedUSDC[user] += amt */\n      tag_859\n      swap1\n        /* \"PoolPandorasSepolia.sol\":20692:20695  amt */\n      dup5\n      swap1\n        /* \"PoolPandorasSepolia.sol\":20659:20695  userTotalReinvestedUSDC[user] += amt */\n      tag_488\n      jump\t// in\n    tag_859:\n      swap3\n      pop\n      pop\n      dup2\n      swap1\n      sstore\n      pop\n        /* \"PoolPandorasSepolia.sol\":20719:20723  user */\n      dup2\n      sub(shl(0xa0, 0x01), 0x01)\n        /* \"PoolPandorasSepolia.sol\":20710:20762  Reinvest(user, TokenType.USDC, amt, block.timestamp) */\n      and\n      0x997d2ec09b086de73d509bbc4ad2b52fd7e2338024464bede93a41abd6ccdc38\n        /* \"PoolPandorasSepolia.sol\":20725:20739  TokenType.USDC */\n      0x01\n        /* \"PoolPandorasSepolia.sol\":20741:20744  amt */\n      dup4\n        /* \"PoolPandorasSepolia.sol\":20746:20761  block.timestamp */\n      timestamp\n        /* \"PoolPandorasSepolia.sol\":20710:20762  Reinvest(user, TokenType.USDC, amt, block.timestamp) */\n      mload(0x40)\n      tag_490\n      swap4\n      swap3\n      swap2\n      swap1\n      tag_476\n      jump\t// in\n        /* \"PoolPandorasSepolia.sol\":8302:8775  function withdrawForInvestmentETH(address to, uint256 amount) external onlyRole(MANAGER_ROLE) nonReentrant {... */\n    tag_382:\n        /* \"PoolPandorasSepolia.sol\":2185:2210  keccak256(\"MANAGER_ROLE\") */\n      0x241ecf16d79d0f8dbfb92cbc07fe17840425976cf0667f022fe9877caa831b08\n        /* \"@openzeppelin/contracts/access/AccessControl.sol\":2473:2489   */\n      tag_863\n        /* \"@openzeppelin/contracts/access/AccessControl.sol\":2484:2488   */\n      dup2\n        /* \"@openzeppelin/contracts/access/AccessControl.sol\":2473:2483   */\n      tag_459\n        /* \"@openzeppelin/contracts/access/AccessControl.sol\":2473:2489   */\n      jump\t// in\n    tag_863:\n        /* \"@openzeppelin/contracts/utils/ReentrancyGuard.sol\":2500:2521   */\n      tag_865\n        /* \"@openzeppelin/contracts/utils/ReentrancyGuard.sol\":2500:2519   */\n      tag_467\n        /* \"@openzeppelin/contracts/utils/ReentrancyGuard.sol\":2500:2521   */\n      jump\t// in\n    tag_865:\n      sub(shl(0xa0, 0x01), 0x01)\n        /* \"PoolPandorasSepolia.sol\":8423:8439  to == address(0) */\n      dup4\n      and\n        /* \"PoolPandorasSepolia.sol\":8419:8461  if (to == address(0)) revert ZeroAddress() */\n      tag_867\n      jumpi\n        /* \"PoolPandorasSepolia.sol\":8448:8461  ZeroAddress() */\n      mload(0x40)\n      shl(0xe0, 0xd92e233d)\n      dup2\n      mstore\n      0x04\n      add\n      mload(0x40)\n      dup1\n      swap2\n      sub\n      swap1\n      revert\n        /* \"PoolPandorasSepolia.sol\":8419:8461  if (to == address(0)) revert ZeroAddress() */\n    tag_867:\n        /* \"PoolPandorasSepolia.sol\":8484:8505  address(this).balance */\n      selfbalance\n        /* \"PoolPandorasSepolia.sol\":8475:8481  amount */\n      dup3\n        /* \"PoolPandorasSepolia.sol\":8475:8505  amount > address(this).balance */\n      gt\n        /* \"PoolPandorasSepolia.sol\":8471:8535  if (amount > address(this).balance) revert InsufficientBalance() */\n      iszero\n      tag_868\n      jumpi\n        /* \"PoolPandorasSepolia.sol\":8514:8535  InsufficientBalance() */\n      mload(0x40)\n      shl(0xe3, 0x1e9acf17)\n      dup2\n      mstore\n      0x04\n      add\n      mload(0x40)\n      dup1\n      swap2\n      sub\n      swap1\n      revert\n        /* \"PoolPandorasSepolia.sol\":8471:8535  if (amount > address(this).balance) revert InsufficientBalance() */\n    tag_868:\n        /* \"PoolPandorasSepolia.sol\":8565:8571  amount */\n      dup2\n        /* \"PoolPandorasSepolia.sol\":8545:8561  totalInvestedETH */\n      0x17\n      0x00\n        /* \"PoolPandorasSepolia.sol\":8545:8571  totalInvestedETH += amount */\n      dup3\n      dup3\n      sload\n      tag_869\n      swap2\n      swap1\n      tag_488\n      jump\t// in\n    tag_869:\n      swap1\n      swap2\n      sstore\n      pop\n      pop\n        /* \"PoolPandorasSepolia.sol\":8600:8626  to.call{value: amount}(\"\") */\n      mload(0x40)\n        /* \"PoolPandorasSepolia.sol\":8582:8594  bool success */\n      0x00\n      swap1\n      sub(shl(0xa0, 0x01), 0x01)\n        /* \"PoolPandorasSepolia.sol\":8600:8607  to.call */\n      dup6\n      and\n      swap1\n        /* \"PoolPandorasSepolia.sol\":8615:8621  amount */\n      dup5\n      swap1\n        /* \"PoolPandorasSepolia.sol\":8582:8594  bool success */\n      dup4\n        /* \"PoolPandorasSepolia.sol\":8600:8626  to.call{value: amount}(\"\") */\n      dup2\n        /* \"PoolPandorasSepolia.sol\":8582:8594  bool success */\n      dup2\n        /* \"PoolPandorasSepolia.sol\":8600:8626  to.call{value: amount}(\"\") */\n      dup2\n        /* \"PoolPandorasSepolia.sol\":8615:8621  amount */\n      dup6\n        /* \"PoolPandorasSepolia.sol\":8600:8607  to.call */\n      dup8\n        /* \"PoolPandorasSepolia.sol\":8600:8626  to.call{value: amount}(\"\") */\n      gas\n      call\n      swap3\n      pop\n      pop\n      pop\n      returndatasize\n      dup1\n      0x00\n      dup2\n      eq\n      tag_873\n      jumpi\n      mload(0x40)\n      swap2\n      pop\n      and(add(returndatasize, 0x3f), not(0x1f))\n      dup3\n      add\n      0x40\n      mstore\n      returndatasize\n      dup3\n      mstore\n      returndatasize\n      0x00\n      0x20\n      dup5\n      add\n      returndatacopy\n      jump(tag_872)\n    tag_873:\n      0x60\n      swap2\n      pop\n    tag_872:\n      pop\n        /* \"PoolPandorasSepolia.sol\":8581:8626  (bool success, ) = to.call{value: amount}(\"\") */\n      pop\n      swap1\n      pop\n        /* \"PoolPandorasSepolia.sol\":8641:8648  success */\n      dup1\n        /* \"PoolPandorasSepolia.sol\":8636:8673  if (!success) revert TransferFailed() */\n      tag_874\n      jumpi\n        /* \"PoolPandorasSepolia.sol\":8657:8673  TransferFailed() */\n      mload(0x40)\n      shl(0xe3, 0x12171d83)\n      dup2\n      mstore\n      0x04\n      add\n      mload(0x40)\n      dup1\n      swap2\n      sub\n      swap1\n      revert\n        /* \"PoolPandorasSepolia.sol\":8636:8673  if (!success) revert TransferFailed() */\n    tag_874:\n        /* \"PoolPandorasSepolia.sol\":8740:8742  to */\n      dup4\n      sub(shl(0xa0, 0x01), 0x01)\n        /* \"PoolPandorasSepolia.sol\":8688:8768  WithdrawnForInvestment(_msgSender(), TokenType.ETH, to, amount, block.timestamp) */\n      and\n        /* \"PoolPandorasSepolia.sol\":8711:8723  _msgSender() */\n      tag_875\n        /* \"PoolPandorasSepolia.sol\":8711:8721  _msgSender */\n      tag_474\n        /* \"PoolPandorasSepolia.sol\":8711:8723  _msgSender() */\n      jump\t// in\n    tag_875:\n      sub(shl(0xa0, 0x01), 0x01)\n        /* \"PoolPandorasSepolia.sol\":8688:8768  WithdrawnForInvestment(_msgSender(), TokenType.ETH, to, amount, block.timestamp) */\n      and\n      0x8d4f9c9a6da9172da9a02229d92e4af088c62953986a74048d010260b197def3\n        /* \"PoolPandorasSepolia.sol\":8725:8738  TokenType.ETH */\n      0x00\n        /* \"PoolPandorasSepolia.sol\":8744:8750  amount */\n      dup7\n        /* \"PoolPandorasSepolia.sol\":8752:8767  block.timestamp */\n      timestamp\n        /* \"PoolPandorasSepolia.sol\":8688:8768  WithdrawnForInvestment(_msgSender(), TokenType.ETH, to, amount, block.timestamp) */\n      mload(0x40)\n      tag_876\n      swap4\n      swap3\n      swap2\n      swap1\n      tag_476\n      jump\t// in\n    tag_876:\n      mload(0x40)\n      dup1\n      swap2\n      sub\n      swap1\n      log3\n        /* \"PoolPandorasSepolia.sol\":8409:8775  {... */\n      pop\n        /* \"@openzeppelin/contracts/utils/ReentrancyGuard.sol\":2542:2562   */\n      tag_559\n        /* \"@openzeppelin/contracts/utils/ReentrancyGuard.sol\":1857:1858   */\n      0x01\n        /* \"@openzeppelin/contracts/utils/ReentrancyGuard.sol\":3068:3089   */\n      dup1\n      sstore\n        /* \"@openzeppelin/contracts/utils/ReentrancyGuard.sol\":2888:3096   */\n      jump\n        /* \"PoolPandorasSepolia.sol\":6692:6852  function setLockupPeriod(uint256 newPeriod) external onlyRole(ADMIN_ROLE) {... */\n    tag_386:\n      0x00\n      dup1\n      mload\n      0x20\n      data_cb864c43dd5d441bb6271f424f11befa622c032dfd374d226e26fbbdb782b8f8\n      dup4\n      codecopy\n      dup2\n      mload\n      swap2\n      mstore\n        /* \"@openzeppelin/contracts/access/AccessControl.sol\":2473:2489   */\n      tag_879\n        /* \"@openzeppelin/contracts/access/AccessControl.sol\":2484:2488   */\n      dup2\n        /* \"@openzeppelin/contracts/access/AccessControl.sol\":2473:2483   */\n      tag_459\n        /* \"@openzeppelin/contracts/access/AccessControl.sol\":2473:2489   */\n      jump\t// in\n    tag_879:\n        /* \"PoolPandorasSepolia.sol\":6776:6788  lockupPeriod */\n      0x02\n        /* \"PoolPandorasSepolia.sol\":6776:6800  lockupPeriod = newPeriod */\n      dup3\n      swap1\n      sstore\n        /* \"PoolPandorasSepolia.sol\":6815:6845  LockupPeriodChanged(newPeriod) */\n      mload(0x40)\n        /* \"#utility.yul\":1035:1060   */\n      dup3\n      dup2\n      mstore\n        /* \"PoolPandorasSepolia.sol\":6815:6845  LockupPeriodChanged(newPeriod) */\n      0xc5e00a325524bc148ddc05bb642b804e9ae1dfc670c217ed3c4c6595f7427ef4\n      swap1\n        /* \"#utility.yul\":1023:1025   */\n      0x20\n        /* \"#utility.yul\":1008:1026   */\n      add\n        /* \"PoolPandorasSepolia.sol\":6815:6845  LockupPeriodChanged(newPeriod) */\n      tag_783\n        /* \"#utility.yul\":889:1066   */\n      jump\n        /* \"@openzeppelin/contracts/access/AccessControl.sol\":4618:4756   */\n    tag_390:\n        /* \"@openzeppelin/contracts/access/AccessControl.sol\":3851:3858   */\n      0x00\n        /* \"@openzeppelin/contracts/access/AccessControl.sol\":3877:3889   */\n      dup3\n      dup2\n      mstore\n      0x20\n      dup2\n      swap1\n      mstore\n      0x40\n      swap1\n      keccak256\n        /* \"@openzeppelin/contracts/access/AccessControl.sol\":3877:3899   */\n      0x01\n      add\n      sload\n        /* \"@openzeppelin/contracts/access/AccessControl.sol\":2473:2489   */\n      tag_884\n        /* \"@openzeppelin/contracts/access/AccessControl.sol\":2484:2488   */\n      dup2\n        /* \"@openzeppelin/contracts/access/AccessControl.sol\":2473:2483   */\n      tag_459\n        /* \"@openzeppelin/contracts/access/AccessControl.sol\":2473:2489   */\n      jump\t// in\n    tag_884:\n        /* \"@openzeppelin/contracts/access/AccessControl.sol\":4723:4749   */\n      tag_554\n        /* \"@openzeppelin/contracts/access/AccessControl.sol\":4735:4739   */\n      dup4\n        /* \"@openzeppelin/contracts/access/AccessControl.sol\":4741:4748   */\n      dup4\n        /* \"@openzeppelin/contracts/access/AccessControl.sol\":4723:4734   */\n      tag_560\n        /* \"@openzeppelin/contracts/access/AccessControl.sol\":4723:4749   */\n      jump\t// in\n        /* \"PoolPandorasSepolia.sol\":17002:17327  function injectUtilityUSDC(uint256 amount) external onlyRole(UTILITY_INJECTOR_ROLE) {... */\n    tag_394:\n        /* \"PoolPandorasSepolia.sol\":2005:2039  keccak256(\"UTILITY_INJECTOR_ROLE\") */\n      0xf60566c40710959d8d30b6067ce3c53c757bec78eecb0e46b83c7f8194ffae37\n        /* \"@openzeppelin/contracts/access/AccessControl.sol\":2473:2489   */\n      tag_888\n        /* \"@openzeppelin/contracts/access/AccessControl.sol\":2484:2488   */\n      dup2\n        /* \"@openzeppelin/contracts/access/AccessControl.sol\":2473:2483   */\n      tag_459\n        /* \"@openzeppelin/contracts/access/AccessControl.sol\":2473:2489   */\n      jump\t// in\n    tag_888:\n        /* \"PoolPandorasSepolia.sol\":17100:17106  amount */\n      dup2\n        /* \"PoolPandorasSepolia.sol\":17110:17111  0 */\n      0x00\n        /* \"PoolPandorasSepolia.sol\":17100:17111  amount == 0 */\n      sub\n        /* \"PoolPandorasSepolia.sol\":17096:17135  if (amount == 0) revert InvalidAmount() */\n      tag_890\n      jumpi\n        /* \"PoolPandorasSepolia.sol\":17120:17135  InvalidAmount() */\n      mload(0x40)\n      shl(0xe1, 0x162908e3)\n      dup2\n      mstore\n      0x04\n      add\n      mload(0x40)\n      dup1\n      swap2\n      sub\n      swap1\n      revert\n        /* \"PoolPandorasSepolia.sol\":17096:17135  if (amount == 0) revert InvalidAmount() */\n    tag_890:\n        /* \"PoolPandorasSepolia.sol\":17145:17149  usdc */\n      immutable(\"0xb4da3a56484909ee405b9f4762910b7212e7eaa07e3685955dc8557a668fa7ea\")\n      sub(shl(0xa0, 0x01), 0x01)\n        /* \"PoolPandorasSepolia.sol\":17145:17162  usdc.transferFrom */\n      and\n      0x23b872dd\n        /* \"PoolPandorasSepolia.sol\":17163:17175  _msgSender() */\n      tag_891\n        /* \"PoolPandorasSepolia.sol\":17163:17173  _msgSender */\n      tag_474\n        /* \"PoolPandorasSepolia.sol\":17163:17175  _msgSender() */\n      jump\t// in\n    tag_891:\n        /* \"PoolPandorasSepolia.sol\":17145:17199  usdc.transferFrom(_msgSender(), address(this), amount) */\n      mload(0x40)\n      not(sub(shl(0xe0, 0x01), 0x01))\n      0xe0\n      dup5\n      swap1\n      shl\n      and\n      dup2\n      mstore\n      sub(shl(0xa0, 0x01), 0x01)\n        /* \"#utility.yul\":14081:14096   */\n      swap1\n      swap2\n      and\n        /* \"PoolPandorasSepolia.sol\":17145:17199  usdc.transferFrom(_msgSender(), address(this), amount) */\n      0x04\n      dup3\n      add\n        /* \"#utility.yul\":14063:14097   */\n      mstore\n        /* \"PoolPandorasSepolia.sol\":17185:17189  this */\n      address\n        /* \"#utility.yul\":14113:14131   */\n      0x24\n      dup3\n      add\n        /* \"#utility.yul\":14106:14149   */\n      mstore\n        /* \"#utility.yul\":14165:14183   */\n      0x44\n      dup2\n      add\n        /* \"#utility.yul\":14158:14192   */\n      dup6\n      swap1\n      mstore\n        /* \"#utility.yul\":13975:13993   */\n      0x64\n      add\n        /* \"PoolPandorasSepolia.sol\":17145:17199  usdc.transferFrom(_msgSender(), address(this), amount) */\n      0x20\n      mload(0x40)\n      dup1\n      dup4\n      sub\n      dup2\n      0x00\n      dup8\n      gas\n      call\n      iszero\n      dup1\n      iszero\n      tag_894\n      jumpi\n      returndatasize\n      0x00\n      dup1\n      returndatacopy\n      revert(0x00, returndatasize)\n    tag_894:\n      pop\n      pop\n      pop\n      pop\n      mload(0x40)\n      returndatasize\n      not(0x1f)\n      0x1f\n      dup3\n      add\n      and\n      dup3\n      add\n      dup1\n      0x40\n      mstore\n      pop\n      dup2\n      add\n      swap1\n      tag_895\n      swap2\n      swap1\n      tag_544\n      jump\t// in\n    tag_895:\n      pop\n        /* \"PoolPandorasSepolia.sol\":17229:17235  amount */\n      dup2\n        /* \"PoolPandorasSepolia.sol\":17209:17225  totalUtilityUSDC */\n      0x14\n      0x00\n        /* \"PoolPandorasSepolia.sol\":17209:17235  totalUtilityUSDC += amount */\n      dup3\n      dup3\n      sload\n      tag_896\n      swap2\n      swap1\n      tag_488\n      jump\t// in\n    tag_896:\n      swap1\n      swap2\n      sstore\n      pop\n        /* \"PoolPandorasSepolia.sol\":17266:17278  _msgSender() */\n      tag_897\n      swap1\n      pop\n        /* \"PoolPandorasSepolia.sol\":17266:17276  _msgSender */\n      tag_474\n        /* \"PoolPandorasSepolia.sol\":17266:17278  _msgSender() */\n      jump\t// in\n    tag_897:\n      sub(shl(0xa0, 0x01), 0x01)\n        /* \"PoolPandorasSepolia.sol\":17250:17320  UtilityInjected(_msgSender(), TokenType.USDC, amount, block.timestamp) */\n      and\n      0x8bafec96fcffb6f12596b4635c76397b7bc1f363b22c49c13136b63677323dcc\n        /* \"PoolPandorasSepolia.sol\":17280:17294  TokenType.USDC */\n      0x01\n        /* \"PoolPandorasSepolia.sol\":17296:17302  amount */\n      dup5\n        /* \"PoolPandorasSepolia.sol\":17304:17319  block.timestamp */\n      timestamp\n        /* \"PoolPandorasSepolia.sol\":17250:17320  UtilityInjected(_msgSender(), TokenType.USDC, amount, block.timestamp) */\n      mload(0x40)\n      tag_898\n      swap4\n      swap3\n      swap2\n      swap1\n      tag_476\n      jump\t// in\n    tag_898:\n      mload(0x40)\n      dup1\n      swap2\n      sub\n      swap1\n      log2\n        /* \"PoolPandorasSepolia.sol\":17002:17327  function injectUtilityUSDC(uint256 amount) external onlyRole(UTILITY_INJECTOR_ROLE) {... */\n      pop\n      pop\n      jump\t// out\n        /* \"PoolPandorasSepolia.sol\":16121:16432  function enableGlobalLiquidation() external onlyRole(ADMIN_ROLE) {... */\n    tag_397:\n      0x00\n      dup1\n      mload\n      0x20\n      data_cb864c43dd5d441bb6271f424f11befa622c032dfd374d226e26fbbdb782b8f8\n      dup4\n      codecopy\n      dup2\n      mload\n      swap2\n      mstore\n        /* \"@openzeppelin/contracts/access/AccessControl.sol\":2473:2489   */\n      tag_900\n        /* \"@openzeppelin/contracts/access/AccessControl.sol\":2484:2488   */\n      dup2\n        /* \"@openzeppelin/contracts/access/AccessControl.sol\":2473:2483   */\n      tag_459\n        /* \"@openzeppelin/contracts/access/AccessControl.sol\":2473:2489   */\n      jump\t// in\n    tag_900:\n        /* \"PoolPandorasSepolia.sol\":16200:16224  globalLiquidationEnabled */\n      sload(0x05)\n      0x01000000\n      swap1\n      div\n      0xff\n      and\n        /* \"PoolPandorasSepolia.sol\":16196:16266  if (globalLiquidationEnabled) revert GlobalLiquidationAlreadyEnabled() */\n      iszero\n      tag_902\n      jumpi\n        /* \"PoolPandorasSepolia.sol\":16233:16266  GlobalLiquidationAlreadyEnabled() */\n      mload(0x40)\n      shl(0xe0, 0xae7fe589)\n      dup2\n      mstore\n      0x04\n      add\n      mload(0x40)\n      dup1\n      swap2\n      sub\n      swap1\n      revert\n        /* \"PoolPandorasSepolia.sol\":16196:16266  if (globalLiquidationEnabled) revert GlobalLiquidationAlreadyEnabled() */\n    tag_902:\n        /* \"PoolPandorasSepolia.sol\":16276:16300  globalLiquidationEnabled */\n      0x05\n        /* \"PoolPandorasSepolia.sol\":16276:16307  globalLiquidationEnabled = true */\n      dup1\n      sload\n        /* \"PoolPandorasSepolia.sol\":16317:16369  globalLiquidationTimestamp = uint48(block.timestamp) */\n      0xffffffffffff\n        /* \"PoolPandorasSepolia.sol\":16353:16368  block.timestamp */\n      timestamp\n        /* \"PoolPandorasSepolia.sol\":16317:16369  globalLiquidationTimestamp = uint48(block.timestamp) */\n      swap1\n      dup2\n      and\n      0x0100000000\n      mul\n      not(0xffffffffffffff000000)\n      swap1\n      swap3\n      and\n      swap2\n      swap1\n      swap2\n      or\n        /* \"PoolPandorasSepolia.sol\":16276:16307  globalLiquidationEnabled = true */\n      0x01000000\n        /* \"PoolPandorasSepolia.sol\":16317:16369  globalLiquidationTimestamp = uint48(block.timestamp) */\n      or\n      swap1\n      swap2\n      sstore\n        /* \"PoolPandorasSepolia.sol\":16384:16425  GlobalLiquidationEnabled(block.timestamp) */\n      mload(0x40)\n      0x2388ceaed48d21bd0802856df41a22705f9046a67a817a047352aa3bbfe5c5d1\n      swap2\n      tag_903\n      swap2\n        /* \"#utility.yul\":1035:1060   */\n      swap1\n      dup2\n      mstore\n        /* \"#utility.yul\":1023:1025   */\n      0x20\n        /* \"#utility.yul\":1008:1026   */\n      add\n      swap1\n        /* \"#utility.yul\":889:1066   */\n      jump\n        /* \"PoolPandorasSepolia.sol\":16384:16425  GlobalLiquidationEnabled(block.timestamp) */\n    tag_903:\n      mload(0x40)\n      dup1\n      swap2\n      sub\n      swap1\n      log1\n        /* \"PoolPandorasSepolia.sol\":16121:16432  function enableGlobalLiquidation() external onlyRole(ADMIN_ROLE) {... */\n      pop\n      jump\t// out\n        /* \"PoolPandorasSepolia.sol\":19112:19511  function claimUtilityETH() external nonReentrant {... */\n    tag_412:\n        /* \"@openzeppelin/contracts/utils/ReentrancyGuard.sol\":2500:2521   */\n      tag_905\n        /* \"@openzeppelin/contracts/utils/ReentrancyGuard.sol\":2500:2519   */\n      tag_467\n        /* \"@openzeppelin/contracts/utils/ReentrancyGuard.sol\":2500:2521   */\n      jump\t// in\n    tag_905:\n        /* \"PoolPandorasSepolia.sol\":19171:19183  address user */\n      0x00\n        /* \"PoolPandorasSepolia.sol\":19186:19198  _msgSender() */\n      tag_907\n        /* \"PoolPandorasSepolia.sol\":19186:19196  _msgSender */\n      tag_474\n        /* \"PoolPandorasSepolia.sol\":19186:19198  _msgSender() */\n      jump\t// in\n    tag_907:\n      sub(shl(0xa0, 0x01), 0x01)\n        /* \"PoolPandorasSepolia.sol\":19222:19251  userClaimableUtilityETH[user] */\n      dup2\n      and\n        /* \"PoolPandorasSepolia.sol\":19208:19219  uint256 amt */\n      0x00\n        /* \"PoolPandorasSepolia.sol\":19222:19251  userClaimableUtilityETH[user] */\n      swap1\n      dup2\n      mstore\n        /* \"PoolPandorasSepolia.sol\":19222:19245  userClaimableUtilityETH */\n      0x09\n        /* \"PoolPandorasSepolia.sol\":19222:19251  userClaimableUtilityETH[user] */\n      0x20\n      mstore\n      0x40\n      dup2\n      keccak256\n      sload\n        /* \"PoolPandorasSepolia.sol\":19171:19198  address user = _msgSender() */\n      swap2\n      swap3\n      pop\n        /* \"PoolPandorasSepolia.sol\":19265:19273  amt == 0 */\n      dup2\n      swap1\n      sub\n        /* \"PoolPandorasSepolia.sol\":19261:19300  if (amt == 0) revert NoUtilityToClaim() */\n      tag_908\n      jumpi\n        /* \"PoolPandorasSepolia.sol\":19282:19300  NoUtilityToClaim() */\n      mload(0x40)\n      shl(0xe2, 0x3bd65a7b)\n      dup2\n      mstore\n      0x04\n      add\n      mload(0x40)\n      dup1\n      swap2\n      sub\n      swap1\n      revert\n        /* \"PoolPandorasSepolia.sol\":19261:19300  if (amt == 0) revert NoUtilityToClaim() */\n    tag_908:\n      sub(shl(0xa0, 0x01), 0x01)\n        /* \"PoolPandorasSepolia.sol\":19310:19339  userClaimableUtilityETH[user] */\n      dup3\n      and\n        /* \"PoolPandorasSepolia.sol\":19342:19343  0 */\n      0x00\n        /* \"PoolPandorasSepolia.sol\":19310:19339  userClaimableUtilityETH[user] */\n      dup2\n      dup2\n      mstore\n        /* \"PoolPandorasSepolia.sol\":19310:19333  userClaimableUtilityETH */\n      0x09\n        /* \"PoolPandorasSepolia.sol\":19310:19339  userClaimableUtilityETH[user] */\n      0x20\n      mstore\n      0x40\n      dup1\n      dup3\n      keccak256\n        /* \"PoolPandorasSepolia.sol\":19310:19343  userClaimableUtilityETH[user] = 0 */\n      dup3\n      swap1\n      sstore\n        /* \"PoolPandorasSepolia.sol\":19367:19392  user.call{value: amt}(\"\") */\n      mload\n        /* \"PoolPandorasSepolia.sol\":19342:19343  0 */\n      swap1\n      swap2\n        /* \"PoolPandorasSepolia.sol\":19310:19339  userClaimableUtilityETH[user] */\n      swap1\n        /* \"PoolPandorasSepolia.sol\":19384:19387  amt */\n      dup4\n      swap1\n        /* \"PoolPandorasSepolia.sol\":19342:19343  0 */\n      dup4\n        /* \"PoolPandorasSepolia.sol\":19367:19392  user.call{value: amt}(\"\") */\n      dup2\n        /* \"PoolPandorasSepolia.sol\":19342:19343  0 */\n      dup2\n        /* \"PoolPandorasSepolia.sol\":19367:19392  user.call{value: amt}(\"\") */\n      dup2\n        /* \"PoolPandorasSepolia.sol\":19384:19387  amt */\n      dup6\n        /* \"PoolPandorasSepolia.sol\":19310:19339  userClaimableUtilityETH[user] */\n      dup8\n        /* \"PoolPandorasSepolia.sol\":19367:19392  user.call{value: amt}(\"\") */\n      gas\n      call\n      swap3\n      pop\n      pop\n      pop\n      returndatasize\n      dup1\n      0x00\n      dup2\n      eq\n      tag_912\n      jumpi\n      mload(0x40)\n      swap2\n      pop\n      and(add(returndatasize, 0x3f), not(0x1f))\n      dup3\n      add\n      0x40\n      mstore\n      returndatasize\n      dup3\n      mstore\n      returndatasize\n      0x00\n      0x20\n      dup5\n      add\n      returndatacopy\n      jump(tag_911)\n    tag_912:\n      0x60\n      swap2\n      pop\n    tag_911:\n      pop\n        /* \"PoolPandorasSepolia.sol\":19353:19392  (bool ok, ) = user.call{value: amt}(\"\") */\n      pop\n      swap1\n      pop\n        /* \"PoolPandorasSepolia.sol\":19407:19409  ok */\n      dup1\n        /* \"PoolPandorasSepolia.sol\":19402:19434  if (!ok) revert TransferFailed() */\n      tag_913\n      jumpi\n        /* \"PoolPandorasSepolia.sol\":19418:19434  TransferFailed() */\n      mload(0x40)\n      shl(0xe3, 0x12171d83)\n      dup2\n      mstore\n      0x04\n      add\n      mload(0x40)\n      dup1\n      swap2\n      sub\n      swap1\n      revert\n        /* \"PoolPandorasSepolia.sol\":19402:19434  if (!ok) revert TransferFailed() */\n    tag_913:\n        /* \"PoolPandorasSepolia.sol\":19462:19466  user */\n      dup3\n      sub(shl(0xa0, 0x01), 0x01)\n        /* \"PoolPandorasSepolia.sol\":19449:19504  ClaimUtility(user, TokenType.ETH, amt, block.timestamp) */\n      and\n      0x6914793c7a82461acec66c7de7fdbbbf1f825c26bc2fe939b61f0e4f8964c2b5\n        /* \"PoolPandorasSepolia.sol\":19468:19481  TokenType.ETH */\n      0x00\n        /* \"PoolPandorasSepolia.sol\":19483:19486  amt */\n      dup5\n        /* \"PoolPandorasSepolia.sol\":19488:19503  block.timestamp */\n      timestamp\n        /* \"PoolPandorasSepolia.sol\":19449:19504  ClaimUtility(user, TokenType.ETH, amt, block.timestamp) */\n      mload(0x40)\n      tag_914\n      swap4\n      swap3\n      swap2\n      swap1\n      tag_476\n      jump\t// in\n    tag_914:\n      mload(0x40)\n      dup1\n      swap2\n      sub\n      swap1\n      log2\n        /* \"PoolPandorasSepolia.sol\":19161:19511  {... */\n      pop\n      pop\n      pop\n        /* \"@openzeppelin/contracts/utils/ReentrancyGuard.sol\":2542:2562   */\n      tag_491\n        /* \"@openzeppelin/contracts/utils/ReentrancyGuard.sol\":1857:1858   */\n      0x01\n        /* \"@openzeppelin/contracts/utils/ReentrancyGuard.sol\":3068:3089   */\n      dup1\n      sstore\n        /* \"@openzeppelin/contracts/utils/ReentrancyGuard.sol\":2888:3096   */\n      jump\n        /* \"PoolPandorasSepolia.sol\":16437:16697  function setDepositsAsRedeemable(address user, uint256[] calldata depositIndices) external onlyRole(ADMIN_ROLE) {... */\n    tag_437:\n      0x00\n      dup1\n      mload\n      0x20\n      data_cb864c43dd5d441bb6271f424f11befa622c032dfd374d226e26fbbdb782b8f8\n      dup4\n      codecopy\n      dup2\n      mload\n      swap2\n      mstore\n        /* \"@openzeppelin/contracts/access/AccessControl.sol\":2473:2489   */\n      tag_917\n        /* \"@openzeppelin/contracts/access/AccessControl.sol\":2484:2488   */\n      dup2\n        /* \"@openzeppelin/contracts/access/AccessControl.sol\":2473:2483   */\n      tag_459\n        /* \"@openzeppelin/contracts/access/AccessControl.sol\":2473:2489   */\n      jump\t// in\n    tag_917:\n        /* \"PoolPandorasSepolia.sol\":16564:16573  uint256 i */\n      0x00\n        /* \"PoolPandorasSepolia.sol\":16559:16691  for (uint256 i = 0; i < depositIndices.length; i++) {... */\n    tag_919:\n        /* \"PoolPandorasSepolia.sol\":16579:16604  i < depositIndices.length */\n      dup3\n      dup2\n      lt\n        /* \"PoolPandorasSepolia.sol\":16559:16691  for (uint256 i = 0; i < depositIndices.length; i++) {... */\n      iszero\n      tag_920\n      jumpi\n      sub(shl(0xa0, 0x01), 0x01)\n        /* \"PoolPandorasSepolia.sol\":16625:16643  userDeposits[user] */\n      dup6\n      and\n      0x00\n      swap1\n      dup2\n      mstore\n        /* \"PoolPandorasSepolia.sol\":16625:16637  userDeposits */\n      0x06\n        /* \"PoolPandorasSepolia.sol\":16625:16643  userDeposits[user] */\n      0x20\n      mstore\n      0x40\n      swap1\n      keccak256\n        /* \"PoolPandorasSepolia.sol\":16673:16679  1 << 2 */\n      0x04\n      swap1\n        /* \"PoolPandorasSepolia.sol\":16644:16658  depositIndices */\n      dup6\n      dup6\n        /* \"PoolPandorasSepolia.sol\":16659:16660  i */\n      dup5\n        /* \"PoolPandorasSepolia.sol\":16644:16661  depositIndices[i] */\n      dup2\n      dup2\n      lt\n      tag_923\n      jumpi\n      tag_923\n      tag_509\n      jump\t// in\n    tag_923:\n      swap1\n      pop\n      0x20\n      mul\n      add\n      calldataload\n        /* \"PoolPandorasSepolia.sol\":16625:16662  userDeposits[user][depositIndices[i]] */\n      dup2\n      sload\n      dup2\n      lt\n      tag_925\n      jumpi\n      tag_925\n      tag_509\n      jump\t// in\n    tag_925:\n      0x00\n      swap2\n      dup3\n      mstore\n      0x20\n      swap1\n      swap2\n      keccak256\n        /* \"PoolPandorasSepolia.sol\":16625:16668  userDeposits[user][depositIndices[i]].flags */\n      0x01\n        /* \"PoolPandorasSepolia.sol\":16625:16662  userDeposits[user][depositIndices[i]] */\n      0x02\n      swap1\n      swap3\n      mul\n      add\n        /* \"PoolPandorasSepolia.sol\":16625:16668  userDeposits[user][depositIndices[i]].flags */\n      dup2\n      add\n        /* \"PoolPandorasSepolia.sol\":16625:16680  userDeposits[user][depositIndices[i]].flags |= (1 << 2) */\n      dup1\n      sload\n      0xff\n      swap4\n      dup5\n      and\n      shl(0x38, 0x01)\n      dup1\n      dup4\n      div\n      swap6\n      swap1\n      swap6\n      and\n      or\n      swap1\n      swap4\n      mul\n      not(0xff00000000000000)\n      swap1\n      swap4\n      and\n      swap3\n      swap1\n      swap3\n      or\n      swap1\n      swap2\n      sstore\n        /* \"PoolPandorasSepolia.sol\":16606:16609  i++ */\n      add\n        /* \"PoolPandorasSepolia.sol\":16559:16691  for (uint256 i = 0; i < depositIndices.length; i++) {... */\n      jump(tag_919)\n    tag_920:\n      pop\n        /* \"PoolPandorasSepolia.sol\":16437:16697  function setDepositsAsRedeemable(address user, uint256[] calldata depositIndices) external onlyRole(ADMIN_ROLE) {... */\n      pop\n      pop\n      pop\n      pop\n      jump\t// out\n        /* \"PoolPandorasSepolia.sol\":6857:7107  function setMaxCap(TokenType token, uint256 newCap) external onlyRole(ADMIN_ROLE) {... */\n    tag_442:\n      0x00\n      dup1\n      mload\n      0x20\n      data_cb864c43dd5d441bb6271f424f11befa622c032dfd374d226e26fbbdb782b8f8\n      dup4\n      codecopy\n      dup2\n      mload\n      swap2\n      mstore\n        /* \"@openzeppelin/contracts/access/AccessControl.sol\":2473:2489   */\n      tag_928\n        /* \"@openzeppelin/contracts/access/AccessControl.sol\":2484:2488   */\n      dup2\n        /* \"@openzeppelin/contracts/access/AccessControl.sol\":2473:2483   */\n      tag_459\n        /* \"@openzeppelin/contracts/access/AccessControl.sol\":2473:2489   */\n      jump\t// in\n    tag_928:\n        /* \"PoolPandorasSepolia.sol\":6962:6975  TokenType.ETH */\n      0x00\n        /* \"PoolPandorasSepolia.sol\":6953:6958  token */\n      dup4\n        /* \"PoolPandorasSepolia.sol\":6953:6975  token == TokenType.ETH */\n      0x01\n      dup2\n      gt\n      iszero\n      tag_933\n      jumpi\n      tag_933\n      tag_498\n      jump\t// in\n    tag_933:\n      sub\n        /* \"PoolPandorasSepolia.sol\":6949:7057  if (token == TokenType.ETH)  maxCapETH  = newCap;... */\n      tag_934\n      jumpi\n        /* \"PoolPandorasSepolia.sol\":6978:6987  maxCapETH */\n      0x03\n        /* \"PoolPandorasSepolia.sol\":6978:6997  maxCapETH  = newCap */\n      dup3\n      swap1\n      sstore\n        /* \"PoolPandorasSepolia.sol\":6949:7057  if (token == TokenType.ETH)  maxCapETH  = newCap;... */\n      jump(tag_935)\n    tag_934:\n        /* \"PoolPandorasSepolia.sol\":7038:7048  maxCapUSDC */\n      0x04\n        /* \"PoolPandorasSepolia.sol\":7038:7057  maxCapUSDC = newCap */\n      dup3\n      swap1\n      sstore\n        /* \"PoolPandorasSepolia.sol\":6949:7057  if (token == TokenType.ETH)  maxCapETH  = newCap;... */\n    tag_935:\n        /* \"PoolPandorasSepolia.sol\":7072:7100  MaxCapChanged(token, newCap) */\n      0x5d7976bccd4b396c1a1a0020032e62bf8a381bcffc61e69a13ea61761b757218\n        /* \"PoolPandorasSepolia.sol\":7086:7091  token */\n      dup4\n        /* \"PoolPandorasSepolia.sol\":7093:7099  newCap */\n      dup4\n        /* \"PoolPandorasSepolia.sol\":7072:7100  MaxCapChanged(token, newCap) */\n      mload(0x40)\n      tag_660\n      swap3\n      swap2\n      swap1\n      tag_937\n      jump\t// in\n        /* \"PoolPandorasSepolia.sol\":10009:10427  function depositETH() external payable nonReentrant whenDepositsNotPaused {... */\n    tag_444:\n        /* \"@openzeppelin/contracts/utils/ReentrancyGuard.sol\":2500:2521   */\n      tag_939\n        /* \"@openzeppelin/contracts/utils/ReentrancyGuard.sol\":2500:2519   */\n      tag_467\n        /* \"@openzeppelin/contracts/utils/ReentrancyGuard.sol\":2500:2521   */\n      jump\t// in\n    tag_939:\n        /* \"PoolPandorasSepolia.sol\":5051:5065  pausedDeposits */\n      and(0xff, sload(0x05))\n        /* \"PoolPandorasSepolia.sol\":5047:5090  if (pausedDeposits) revert DepositsPaused() */\n      iszero\n      tag_941\n      jumpi\n        /* \"PoolPandorasSepolia.sol\":5074:5090  DepositsPaused() */\n      mload(0x40)\n      shl(0xe0, 0xdeeb6943)\n      dup2\n      mstore\n      0x04\n      add\n      mload(0x40)\n      dup1\n      swap2\n      sub\n      swap1\n      revert\n        /* \"PoolPandorasSepolia.sol\":5047:5090  if (pausedDeposits) revert DepositsPaused() */\n    tag_941:\n        /* \"PoolPandorasSepolia.sol\":10107:10116  msg.value */\n      callvalue\n        /* \"PoolPandorasSepolia.sol\":10093:10104  uint256 amt */\n      0x00\n        /* \"PoolPandorasSepolia.sol\":10130:10138  amt == 0 */\n      dup2\n      swap1\n      sub\n        /* \"PoolPandorasSepolia.sol\":10126:10162  if (amt == 0) revert InvalidAmount() */\n      tag_943\n      jumpi\n        /* \"PoolPandorasSepolia.sol\":10147:10162  InvalidAmount() */\n      mload(0x40)\n      shl(0xe1, 0x162908e3)\n      dup2\n      mstore\n      0x04\n      add\n      mload(0x40)\n      dup1\n      swap2\n      sub\n      swap1\n      revert\n        /* \"PoolPandorasSepolia.sol\":10126:10162  if (amt == 0) revert InvalidAmount() */\n    tag_943:\n        /* \"PoolPandorasSepolia.sol\":10202:10211  maxCapETH */\n      sload(0x03)\n        /* \"PoolPandorasSepolia.sol\":10196:10199  amt */\n      dup2\n        /* \"PoolPandorasSepolia.sol\":10176:10193  totalDepositedETH */\n      sload(0x0f)\n        /* \"PoolPandorasSepolia.sol\":10176:10199  totalDepositedETH + amt */\n      tag_944\n      swap2\n      swap1\n      tag_488\n      jump\t// in\n    tag_944:\n        /* \"PoolPandorasSepolia.sol\":10176:10211  totalDepositedETH + amt > maxCapETH */\n      gt\n        /* \"PoolPandorasSepolia.sol\":10172:10232  if (totalDepositedETH + amt > maxCapETH) revert CapReached() */\n      iszero\n      tag_945\n      jumpi\n        /* \"PoolPandorasSepolia.sol\":10220:10232  CapReached() */\n      mload(0x40)\n      shl(0xe1, 0x6bf4c8e9)\n      dup2\n      mstore\n      0x04\n      add\n      mload(0x40)\n      dup1\n      swap2\n      sub\n      swap1\n      revert\n        /* \"PoolPandorasSepolia.sol\":10172:10232  if (totalDepositedETH + amt > maxCapETH) revert CapReached() */\n    tag_945:\n        /* \"PoolPandorasSepolia.sol\":10246:10262  whitelistEnabled */\n      sload(0x05)\n      0x010000\n      swap1\n      div\n      0xff\n      and\n        /* \"PoolPandorasSepolia.sol\":10246:10294  whitelistEnabled && !isWhitelisted[_msgSender()] */\n      dup1\n      iszero\n      tag_946\n      jumpi\n      pop\n        /* \"PoolPandorasSepolia.sol\":10267:10280  isWhitelisted */\n      0x07\n        /* \"PoolPandorasSepolia.sol\":10267:10294  isWhitelisted[_msgSender()] */\n      0x00\n        /* \"PoolPandorasSepolia.sol\":10281:10293  _msgSender() */\n      tag_947\n        /* \"PoolPandorasSepolia.sol\":10281:10291  _msgSender */\n      tag_474\n        /* \"PoolPandorasSepolia.sol\":10281:10293  _msgSender() */\n      jump\t// in\n    tag_947:\n      sub(shl(0xa0, 0x01), 0x01)\n        /* \"PoolPandorasSepolia.sol\":10267:10294  isWhitelisted[_msgSender()] */\n      and\n      dup2\n      mstore\n      0x20\n      dup2\n      add\n      swap2\n      swap1\n      swap2\n      mstore\n      0x40\n      add\n      0x00\n      keccak256\n      sload\n      0xff\n      and\n        /* \"PoolPandorasSepolia.sol\":10266:10294  !isWhitelisted[_msgSender()] */\n      iszero\n        /* \"PoolPandorasSepolia.sol\":10246:10294  whitelistEnabled && !isWhitelisted[_msgSender()] */\n    tag_946:\n        /* \"PoolPandorasSepolia.sol\":10242:10319  if (whitelistEnabled && !isWhitelisted[_msgSender()]) revert NotWhitelisted() */\n      iszero\n      tag_948\n      jumpi\n        /* \"PoolPandorasSepolia.sol\":10303:10319  NotWhitelisted() */\n      mload(0x40)\n      shl(0xe3, 0x0b094f27)\n      dup2\n      mstore\n      0x04\n      add\n      mload(0x40)\n      dup1\n      swap2\n      sub\n      swap1\n      revert\n        /* \"PoolPandorasSepolia.sol\":10242:10319  if (whitelistEnabled && !isWhitelisted[_msgSender()]) revert NotWhitelisted() */\n    tag_948:\n        /* \"PoolPandorasSepolia.sol\":10329:10386  _registerDeposit(_msgSender(), TokenType.ETH, amt, false) */\n      tag_949\n        /* \"PoolPandorasSepolia.sol\":10346:10358  _msgSender() */\n      tag_950\n        /* \"PoolPandorasSepolia.sol\":10346:10356  _msgSender */\n      tag_474\n        /* \"PoolPandorasSepolia.sol\":10346:10358  _msgSender() */\n      jump\t// in\n    tag_950:\n        /* \"PoolPandorasSepolia.sol\":10360:10373  TokenType.ETH */\n      0x00\n        /* \"PoolPandorasSepolia.sol\":10375:10378  amt */\n      dup4\n        /* \"PoolPandorasSepolia.sol\":10380:10385  false */\n      0x00\n        /* \"PoolPandorasSepolia.sol\":10329:10345  _registerDeposit */\n      tag_486\n        /* \"PoolPandorasSepolia.sol\":10329:10386  _registerDeposit(_msgSender(), TokenType.ETH, amt, false) */\n      jump\t// in\n    tag_949:\n        /* \"PoolPandorasSepolia.sol\":10417:10420  amt */\n      dup1\n        /* \"PoolPandorasSepolia.sol\":10396:10413  totalDepositedETH */\n      0x0f\n      0x00\n        /* \"PoolPandorasSepolia.sol\":10396:10420  totalDepositedETH += amt */\n      dup3\n      dup3\n      sload\n      tag_951\n      swap2\n      swap1\n      tag_488\n      jump\t// in\n    tag_951:\n      swap1\n      swap2\n      sstore\n      pop\n      pop\n        /* \"@openzeppelin/contracts/utils/ReentrancyGuard.sol\":1857:1858   */\n      0x01\n        /* \"@openzeppelin/contracts/utils/ReentrancyGuard.sol\":3068:3089   */\n      dup1\n      sstore\n      pop\n        /* \"PoolPandorasSepolia.sol\":19867:20312  function reinvestUtilityETH() external nonReentrant {... */\n      jump\t// out\n        /* \"PoolPandorasSepolia.sol\":10432:10999  function depositUSDC(uint256 amount) external nonReentrant whenDepositsNotPaused {... */\n    tag_448:\n        /* \"@openzeppelin/contracts/utils/ReentrancyGuard.sol\":2500:2521   */\n      tag_954\n        /* \"@openzeppelin/contracts/utils/ReentrancyGuard.sol\":2500:2519   */\n      tag_467\n        /* \"@openzeppelin/contracts/utils/ReentrancyGuard.sol\":2500:2521   */\n      jump\t// in\n    tag_954:\n        /* \"PoolPandorasSepolia.sol\":5051:5065  pausedDeposits */\n      and(0xff, sload(0x05))\n        /* \"PoolPandorasSepolia.sol\":5047:5090  if (pausedDeposits) revert DepositsPaused() */\n      iszero\n      tag_956\n      jumpi\n        /* \"PoolPandorasSepolia.sol\":5074:5090  DepositsPaused() */\n      mload(0x40)\n      shl(0xe0, 0xdeeb6943)\n      dup2\n      mstore\n      0x04\n      add\n      mload(0x40)\n      dup1\n      swap2\n      sub\n      swap1\n      revert\n        /* \"PoolPandorasSepolia.sol\":5047:5090  if (pausedDeposits) revert DepositsPaused() */\n    tag_956:\n        /* \"PoolPandorasSepolia.sol\":10535:10539  usdc */\n      immutable(\"0xb4da3a56484909ee405b9f4762910b7212e7eaa07e3685955dc8557a668fa7ea\")\n      sub(shl(0xa0, 0x01), 0x01)\n        /* \"PoolPandorasSepolia.sol\":10527:10554  address(usdc) == address(0) */\n      and\n        /* \"PoolPandorasSepolia.sol\":10523:10576  if (address(usdc) == address(0)) revert ZeroAddress() */\n      tag_958\n      jumpi\n        /* \"PoolPandorasSepolia.sol\":10563:10576  ZeroAddress() */\n      mload(0x40)\n      shl(0xe0, 0xd92e233d)\n      dup2\n      mstore\n      0x04\n      add\n      mload(0x40)\n      dup1\n      swap2\n      sub\n      swap1\n      revert\n        /* \"PoolPandorasSepolia.sol\":10523:10576  if (address(usdc) == address(0)) revert ZeroAddress() */\n    tag_958:\n        /* \"PoolPandorasSepolia.sol\":10622:10628  amount */\n      dup1\n        /* \"PoolPandorasSepolia.sol\":10632:10633  0 */\n      0x00\n        /* \"PoolPandorasSepolia.sol\":10622:10633  amount == 0 */\n      sub\n        /* \"PoolPandorasSepolia.sol\":10618:10657  if (amount == 0) revert InvalidAmount() */\n      tag_959\n      jumpi\n        /* \"PoolPandorasSepolia.sol\":10642:10657  InvalidAmount() */\n      mload(0x40)\n      shl(0xe1, 0x162908e3)\n      dup2\n      mstore\n      0x04\n      add\n      mload(0x40)\n      dup1\n      swap2\n      sub\n      swap1\n      revert\n        /* \"PoolPandorasSepolia.sol\":10618:10657  if (amount == 0) revert InvalidAmount() */\n    tag_959:\n        /* \"PoolPandorasSepolia.sol\":10701:10711  maxCapUSDC */\n      sload(0x04)\n        /* \"PoolPandorasSepolia.sol\":10692:10698  amount */\n      dup2\n        /* \"PoolPandorasSepolia.sol\":10671:10689  totalDepositedUSDC */\n      sload(0x10)\n        /* \"PoolPandorasSepolia.sol\":10671:10698  totalDepositedUSDC + amount */\n      tag_960\n      swap2\n      swap1\n      tag_488\n      jump\t// in\n    tag_960:\n        /* \"PoolPandorasSepolia.sol\":10671:10711  totalDepositedUSDC + amount > maxCapUSDC */\n      gt\n        /* \"PoolPandorasSepolia.sol\":10667:10732  if (totalDepositedUSDC + amount > maxCapUSDC) revert CapReached() */\n      iszero\n      tag_961\n      jumpi\n        /* \"PoolPandorasSepolia.sol\":10720:10732  CapReached() */\n      mload(0x40)\n      shl(0xe1, 0x6bf4c8e9)\n      dup2\n      mstore\n      0x04\n      add\n      mload(0x40)\n      dup1\n      swap2\n      sub\n      swap1\n      revert\n        /* \"PoolPandorasSepolia.sol\":10667:10732  if (totalDepositedUSDC + amount > maxCapUSDC) revert CapReached() */\n    tag_961:\n        /* \"PoolPandorasSepolia.sol\":10746:10762  whitelistEnabled */\n      sload(0x05)\n      0x010000\n      swap1\n      div\n      0xff\n      and\n        /* \"PoolPandorasSepolia.sol\":10746:10794  whitelistEnabled && !isWhitelisted[_msgSender()] */\n      dup1\n      iszero\n      tag_962\n      jumpi\n      pop\n        /* \"PoolPandorasSepolia.sol\":10767:10780  isWhitelisted */\n      0x07\n        /* \"PoolPandorasSepolia.sol\":10767:10794  isWhitelisted[_msgSender()] */\n      0x00\n        /* \"PoolPandorasSepolia.sol\":10781:10793  _msgSender() */\n      tag_963\n        /* \"PoolPandorasSepolia.sol\":10781:10791  _msgSender */\n      tag_474\n        /* \"PoolPandorasSepolia.sol\":10781:10793  _msgSender() */\n      jump\t// in\n    tag_963:\n      sub(shl(0xa0, 0x01), 0x01)\n        /* \"PoolPandorasSepolia.sol\":10767:10794  isWhitelisted[_msgSender()] */\n      and\n      dup2\n      mstore\n      0x20\n      dup2\n      add\n      swap2\n      swap1\n      swap2\n      mstore\n      0x40\n      add\n      0x00\n      keccak256\n      sload\n      0xff\n      and\n        /* \"PoolPandorasSepolia.sol\":10766:10794  !isWhitelisted[_msgSender()] */\n      iszero\n        /* \"PoolPandorasSepolia.sol\":10746:10794  whitelistEnabled && !isWhitelisted[_msgSender()] */\n    tag_962:\n        /* \"PoolPandorasSepolia.sol\":10742:10819  if (whitelistEnabled && !isWhitelisted[_msgSender()]) revert NotWhitelisted() */\n      iszero\n      tag_964\n      jumpi\n        /* \"PoolPandorasSepolia.sol\":10803:10819  NotWhitelisted() */\n      mload(0x40)\n      shl(0xe3, 0x0b094f27)\n      dup2\n      mstore\n      0x04\n      add\n      mload(0x40)\n      dup1\n      swap2\n      sub\n      swap1\n      revert\n        /* \"PoolPandorasSepolia.sol\":10742:10819  if (whitelistEnabled && !isWhitelisted[_msgSender()]) revert NotWhitelisted() */\n    tag_964:\n        /* \"PoolPandorasSepolia.sol\":10829:10833  usdc */\n      immutable(\"0xb4da3a56484909ee405b9f4762910b7212e7eaa07e3685955dc8557a668fa7ea\")\n      sub(shl(0xa0, 0x01), 0x01)\n        /* \"PoolPandorasSepolia.sol\":10829:10846  usdc.transferFrom */\n      and\n      0x23b872dd\n        /* \"PoolPandorasSepolia.sol\":10847:10859  _msgSender() */\n      tag_965\n        /* \"PoolPandorasSepolia.sol\":10847:10857  _msgSender */\n      tag_474\n        /* \"PoolPandorasSepolia.sol\":10847:10859  _msgSender() */\n      jump\t// in\n    tag_965:\n        /* \"PoolPandorasSepolia.sol\":10829:10883  usdc.transferFrom(_msgSender(), address(this), amount) */\n      mload(0x40)\n      not(sub(shl(0xe0, 0x01), 0x01))\n      0xe0\n      dup5\n      swap1\n      shl\n      and\n      dup2\n      mstore\n      sub(shl(0xa0, 0x01), 0x01)\n        /* \"#utility.yul\":14081:14096   */\n      swap1\n      swap2\n      and\n        /* \"PoolPandorasSepolia.sol\":10829:10883  usdc.transferFrom(_msgSender(), address(this), amount) */\n      0x04\n      dup3\n      add\n        /* \"#utility.yul\":14063:14097   */\n      mstore\n        /* \"PoolPandorasSepolia.sol\":10869:10873  this */\n      address\n        /* \"#utility.yul\":14113:14131   */\n      0x24\n      dup3\n      add\n        /* \"#utility.yul\":14106:14149   */\n      mstore\n        /* \"#utility.yul\":14165:14183   */\n      0x44\n      dup2\n      add\n        /* \"#utility.yul\":14158:14192   */\n      dup5\n      swap1\n      mstore\n        /* \"#utility.yul\":13975:13993   */\n      0x64\n      add\n        /* \"PoolPandorasSepolia.sol\":10829:10883  usdc.transferFrom(_msgSender(), address(this), amount) */\n      0x20\n      mload(0x40)\n      dup1\n      dup4\n      sub\n      dup2\n      0x00\n      dup8\n      gas\n      call\n      iszero\n      dup1\n      iszero\n      tag_968\n      jumpi\n      returndatasize\n      0x00\n      dup1\n      returndatacopy\n      revert(0x00, returndatasize)\n    tag_968:\n      pop\n      pop\n      pop\n      pop\n      mload(0x40)\n      returndatasize\n      not(0x1f)\n      0x1f\n      dup3\n      add\n      and\n      dup3\n      add\n      dup1\n      0x40\n      mstore\n      pop\n      dup2\n      add\n      swap1\n      tag_969\n      swap2\n      swap1\n      tag_544\n      jump\t// in\n    tag_969:\n      pop\n        /* \"PoolPandorasSepolia.sol\":10893:10954  _registerDeposit(_msgSender(), TokenType.USDC, amount, false) */\n      tag_970\n        /* \"PoolPandorasSepolia.sol\":10910:10922  _msgSender() */\n      tag_971\n        /* \"PoolPandorasSepolia.sol\":10910:10920  _msgSender */\n      tag_474\n        /* \"PoolPandorasSepolia.sol\":10910:10922  _msgSender() */\n      jump\t// in\n    tag_971:\n        /* \"PoolPandorasSepolia.sol\":10924:10938  TokenType.USDC */\n      0x01\n        /* \"PoolPandorasSepolia.sol\":10940:10946  amount */\n      dup4\n        /* \"PoolPandorasSepolia.sol\":10948:10953  false */\n      0x00\n        /* \"PoolPandorasSepolia.sol\":10893:10909  _registerDeposit */\n      tag_486\n        /* \"PoolPandorasSepolia.sol\":10893:10954  _registerDeposit(_msgSender(), TokenType.USDC, amount, false) */\n      jump\t// in\n    tag_970:\n        /* \"PoolPandorasSepolia.sol\":10986:10992  amount */\n      dup1\n        /* \"PoolPandorasSepolia.sol\":10964:10982  totalDepositedUSDC */\n      0x10\n      0x00\n        /* \"PoolPandorasSepolia.sol\":10964:10992  totalDepositedUSDC += amount */\n      dup3\n      dup3\n      sload\n      tag_951\n      swap2\n      swap1\n      tag_488\n      jump\t// in\n        /* \"@openzeppelin/contracts/access/AccessControl.sol\":3175:3278   */\n    tag_459:\n        /* \"@openzeppelin/contracts/access/AccessControl.sol\":3241:3271   */\n      tag_477\n        /* \"@openzeppelin/contracts/access/AccessControl.sol\":3252:3256   */\n      dup2\n        /* \"@openzeppelin/contracts/access/AccessControl.sol\":3258:3270   */\n      tag_977\n        /* \"@openzeppelin/contracts/access/AccessControl.sol\":3258:3268   */\n      tag_474\n        /* \"@openzeppelin/contracts/access/AccessControl.sol\":3258:3270   */\n      jump\t// in\n    tag_977:\n        /* \"@openzeppelin/contracts/access/AccessControl.sol\":3241:3251   */\n      tag_978\n        /* \"@openzeppelin/contracts/access/AccessControl.sol\":3241:3271   */\n      jump\t// in\n        /* \"@openzeppelin/contracts/utils/ReentrancyGuard.sol\":2575:2882   */\n    tag_467:\n        /* \"@openzeppelin/contracts/utils/ReentrancyGuard.sol\":1899:1900   */\n      0x02\n        /* \"@openzeppelin/contracts/utils/ReentrancyGuard.sol\":2702:2709   */\n      sload(0x01)\n        /* \"@openzeppelin/contracts/utils/ReentrancyGuard.sol\":2702:2720   */\n      sub\n        /* \"@openzeppelin/contracts/utils/ReentrancyGuard.sol\":2698:2784   */\n      tag_980\n      jumpi\n        /* \"@openzeppelin/contracts/utils/ReentrancyGuard.sol\":2743:2773   */\n      mload(0x40)\n      shl(0xe0, 0x3ee5aeb5)\n      dup2\n      mstore\n      0x04\n      add\n      mload(0x40)\n      dup1\n      swap2\n      sub\n      swap1\n      revert\n        /* \"@openzeppelin/contracts/utils/ReentrancyGuard.sol\":2698:2784   */\n    tag_980:\n        /* \"@openzeppelin/contracts/utils/ReentrancyGuard.sol\":1899:1900   */\n      0x02\n        /* \"@openzeppelin/contracts/utils/ReentrancyGuard.sol\":2858:2865   */\n      0x01\n        /* \"@openzeppelin/contracts/utils/ReentrancyGuard.sol\":2858:2875   */\n      sstore\n        /* \"@openzeppelin/contracts/utils/ReentrancyGuard.sol\":2575:2882   */\n      jump\t// out\n        /* \"PoolPandorasSepolia.sol\":6185:6331  function _msgSender() internal view override(Context, ERC2771Context) returns (address sender) {... */\n    tag_474:\n        /* \"PoolPandorasSepolia.sol\":6264:6278  address sender */\n      0x00\n        /* \"PoolPandorasSepolia.sol\":6297:6324  ERC2771Context._msgSender() */\n      tag_982\n        /* \"PoolPandorasSepolia.sol\":6297:6322  ERC2771Context._msgSender */\n      tag_983\n        /* \"PoolPandorasSepolia.sol\":6297:6324  ERC2771Context._msgSender() */\n      jump\t// in\n    tag_982:\n        /* \"PoolPandorasSepolia.sol\":6290:6324  return ERC2771Context._msgSender() */\n      swap1\n      pop\n        /* \"PoolPandorasSepolia.sol\":6185:6331  function _msgSender() internal view override(Context, ERC2771Context) returns (address sender) {... */\n      swap1\n      jump\t// out\n        /* \"PoolPandorasSepolia.sol\":11005:11665  function _registerDeposit(address user, TokenType token, uint256 amount, bool isReinvestment) internal {... */\n    tag_486:\n        /* \"PoolPandorasSepolia.sol\":11118:11129  uint8 flags */\n      0x00\n        /* \"PoolPandorasSepolia.sol\":11143:11157  isReinvestment */\n      dup2\n        /* \"PoolPandorasSepolia.sol\":11139:11208  if (isReinvestment) {... */\n      iszero\n      tag_986\n      jumpi\n        /* \"PoolPandorasSepolia.sol\":11190:11196  1 << 3 */\n      0x08\n        /* \"PoolPandorasSepolia.sol\":11181:11197  flags | (1 << 3) */\n      or\n        /* \"PoolPandorasSepolia.sol\":11139:11208  if (isReinvestment) {... */\n    tag_986:\n        /* \"PoolPandorasSepolia.sol\":11217:11229  userDeposits */\n      0x06\n        /* \"PoolPandorasSepolia.sol\":11217:11235  userDeposits[user] */\n      0x00\n        /* \"PoolPandorasSepolia.sol\":11230:11234  user */\n      dup7\n      sub(shl(0xa0, 0x01), 0x01)\n        /* \"PoolPandorasSepolia.sol\":11217:11235  userDeposits[user] */\n      and\n      sub(shl(0xa0, 0x01), 0x01)\n      and\n      dup2\n      mstore\n      0x20\n      add\n      swap1\n      dup2\n      mstore\n      0x20\n      add\n      0x00\n      keccak256\n        /* \"PoolPandorasSepolia.sol\":11241:11458  DepositInfo({... */\n      mload(0x40)\n      dup1\n      0xc0\n      add\n      0x40\n      mstore\n      dup1\n        /* \"PoolPandorasSepolia.sol\":11282:11288  amount */\n      dup6\n      sub(shl(0x60, 0x01), 0x01)\n        /* \"PoolPandorasSepolia.sol\":11241:11458  DepositInfo({... */\n      and\n      dup2\n      mstore\n      0x20\n      add\n        /* \"PoolPandorasSepolia.sol\":11318:11319  0 */\n      0x00\n      sub(shl(0x60, 0x01), 0x01)\n        /* \"PoolPandorasSepolia.sol\":11241:11458  DepositInfo({... */\n      and\n      dup2\n      mstore\n      0x20\n      add\n        /* \"PoolPandorasSepolia.sol\":11351:11366  block.timestamp */\n      timestamp\n        /* \"PoolPandorasSepolia.sol\":11241:11458  DepositInfo({... */\n      0xffffffffffff\n      and\n      dup2\n      mstore\n      0x20\n      add\n        /* \"PoolPandorasSepolia.sol\":11394:11395  0 */\n      0x00\n        /* \"PoolPandorasSepolia.sol\":11241:11458  DepositInfo({... */\n      0xffffffffffff\n      and\n      dup2\n      mstore\n      0x20\n      add\n        /* \"PoolPandorasSepolia.sol\":11416:11421  token */\n      dup7\n        /* \"PoolPandorasSepolia.sol\":11241:11458  DepositInfo({... */\n      0x01\n      dup2\n      gt\n      iszero\n      tag_988\n      jumpi\n      tag_988\n      tag_498\n      jump\t// in\n    tag_988:\n      dup2\n      mstore\n      0xff\n      dup5\n      and\n      0x20\n      swap2\n      dup3\n      add\n      mstore\n        /* \"PoolPandorasSepolia.sol\":11217:11459  userDeposits[user].push(DepositInfo({... */\n      dup3\n      sload\n      0x01\n      dup2\n      dup2\n      add\n      dup6\n      sstore\n      0x00\n      swap5\n      dup6\n      mstore\n      swap4\n      dup3\n      swap1\n      keccak256\n      dup4\n      mload\n      0x02\n      swap1\n      swap3\n      mul\n      add\n      dup1\n      sload\n      swap3\n      dup5\n      add\n      mload\n      0x40\n      dup6\n      add\n      mload\n      0xffffffffffff\n      swap1\n      dup2\n      and\n      shl(0xc0, 0x01)\n      mul\n      0xffff000000000000ffffffffffffffffffffffffffffffffffffffffffffffff\n      sub(shl(0x60, 0x01), 0x01)\n      swap4\n      dup5\n      and\n      shl(0x60, 0x01)\n      mul\n      0xffffffffffffffff000000000000000000000000000000000000000000000000\n      swap1\n      swap8\n      and\n      swap4\n      swap1\n      swap6\n      and\n      swap3\n      swap1\n      swap3\n      or\n      swap5\n      swap1\n      swap5\n      or\n      swap3\n      swap1\n      swap3\n      and\n      swap2\n      swap1\n      swap2\n      or\n      dup2\n      sstore\n      0x60\n      dup4\n      add\n      mload\n      dup2\n      dup6\n      add\n      dup1\n      sload\n      swap2\n      swap1\n      swap4\n      and\n      not(0xffffffffffff)\n      dup3\n      and\n      dup2\n      or\n      dup5\n      sstore\n      0x80\n      dup6\n      add\n      mload\n      swap5\n      swap6\n      swap3\n      swap5\n      swap4\n      swap3\n      not(0xffffffffffffff)\n      swap1\n      swap3\n      and\n      or\n      swap1\n      0x01000000000000\n      swap1\n      dup5\n      swap1\n      dup2\n      gt\n      iszero\n      tag_991\n      jumpi\n      tag_991\n      tag_498\n      jump\t// in\n    tag_991:\n      mul\n      or\n      swap1\n      sstore\n      pop\n      0xa0\n      swap2\n      swap1\n      swap2\n      add\n      mload\n      0x01\n      swap1\n      swap2\n      add\n      dup1\n      sload\n      not(0xff00000000000000)\n      and\n      shl(0x38, 0x01)\n      0xff\n      swap4\n      dup5\n      and\n      mul\n      or\n      swap1\n      sstore\n      sub(shl(0xa0, 0x01), 0x01)\n        /* \"PoolPandorasSepolia.sol\":11474:11496  isKnownDepositor[user] */\n      dup7\n      and\n      0x00\n      swap1\n      dup2\n      mstore\n        /* \"PoolPandorasSepolia.sol\":11474:11490  isKnownDepositor */\n      0x0d\n        /* \"PoolPandorasSepolia.sol\":11474:11496  isKnownDepositor[user] */\n      0x20\n      mstore\n      0x40\n      swap1\n      keccak256\n      sload\n      and\n        /* \"PoolPandorasSepolia.sol\":11469:11552  if (!isKnownDepositor[user]) {... */\n      tag_992\n      jumpi\n      sub(shl(0xa0, 0x01), 0x01)\n        /* \"PoolPandorasSepolia.sol\":11512:11534  isKnownDepositor[user] */\n      dup6\n      and\n      0x00\n      swap1\n      dup2\n      mstore\n        /* \"PoolPandorasSepolia.sol\":11512:11528  isKnownDepositor */\n      0x0d\n        /* \"PoolPandorasSepolia.sol\":11512:11534  isKnownDepositor[user] */\n      0x20\n      mstore\n      0x40\n      swap1\n      keccak256\n        /* \"PoolPandorasSepolia.sol\":11512:11541  isKnownDepositor[user] = true */\n      dup1\n      sload\n      not(0xff)\n      and\n        /* \"PoolPandorasSepolia.sol\":11537:11541  true */\n      0x01\n        /* \"PoolPandorasSepolia.sol\":11512:11541  isKnownDepositor[user] = true */\n      or\n      swap1\n      sstore\n        /* \"PoolPandorasSepolia.sol\":11469:11552  if (!isKnownDepositor[user]) {... */\n    tag_992:\n      sub(shl(0xa0, 0x01), 0x01)\n        /* \"PoolPandorasSepolia.sol\":11566:11658  Deposit(user, token, amount, block.timestamp, userDeposits[user].length - 1, isReinvestment) */\n      dup6\n      and\n        /* \"PoolPandorasSepolia.sol\":11612:11630  userDeposits[user] */\n      0x00\n      dup2\n      dup2\n      mstore\n        /* \"PoolPandorasSepolia.sol\":11612:11624  userDeposits */\n      0x06\n        /* \"PoolPandorasSepolia.sol\":11612:11630  userDeposits[user] */\n      0x20\n      mstore\n      0x40\n      swap1\n      keccak256\n        /* \"PoolPandorasSepolia.sol\":11612:11637  userDeposits[user].length */\n      sload\n        /* \"PoolPandorasSepolia.sol\":11566:11658  Deposit(user, token, amount, block.timestamp, userDeposits[user].length - 1, isReinvestment) */\n      0x48916ac7f9777648255ab8645729ff3b5d20aa412a40fe81dac2433522eaa058\n      swap1\n        /* \"PoolPandorasSepolia.sol\":11580:11585  token */\n      dup7\n      swap1\n        /* \"PoolPandorasSepolia.sol\":11587:11593  amount */\n      dup7\n      swap1\n        /* \"PoolPandorasSepolia.sol\":11595:11610  block.timestamp */\n      timestamp\n      swap1\n        /* \"PoolPandorasSepolia.sol\":11612:11641  userDeposits[user].length - 1 */\n      tag_993\n      swap1\n        /* \"PoolPandorasSepolia.sol\":11640:11641  1 */\n      0x01\n      swap1\n        /* \"PoolPandorasSepolia.sol\":11612:11641  userDeposits[user].length - 1 */\n      tag_472\n      jump\t// in\n    tag_993:\n        /* \"PoolPandorasSepolia.sol\":11643:11657  isReinvestment */\n      dup8\n        /* \"PoolPandorasSepolia.sol\":11566:11658  Deposit(user, token, amount, block.timestamp, userDeposits[user].length - 1, isReinvestment) */\n      mload(0x40)\n      tag_994\n      swap6\n      swap5\n      swap4\n      swap3\n      swap2\n      swap1\n      tag_995\n      jump\t// in\n    tag_994:\n      mload(0x40)\n      dup1\n      swap2\n      sub\n      swap1\n      log2\n        /* \"PoolPandorasSepolia.sol\":11108:11665  {... */\n      pop\n        /* \"PoolPandorasSepolia.sol\":11005:11665  function _registerDeposit(address user, TokenType token, uint256 amount, bool isReinvestment) internal {... */\n      pop\n      pop\n      pop\n      pop\n      jump\t// out\n        /* \"@openzeppelin/contracts/access/AccessControl.sol\":6155:6471   */\n    tag_555:\n        /* \"@openzeppelin/contracts/access/AccessControl.sol\":6232:6236   */\n      0x00\n        /* \"@openzeppelin/contracts/access/AccessControl.sol\":2930:2942   */\n      dup3\n      dup2\n      mstore\n      0x20\n      dup2\n      dup2\n      mstore\n      0x40\n      dup1\n      dup4\n      keccak256\n      sub(shl(0xa0, 0x01), 0x01)\n        /* \"@openzeppelin/contracts/access/AccessControl.sol\":2930:2959   */\n      dup6\n      and\n      dup5\n      mstore\n      swap1\n      swap2\n      mstore\n      dup2\n      keccak256\n      sload\n      0xff\n      and\n        /* \"@openzeppelin/contracts/access/AccessControl.sol\":6248:6465   */\n      tag_1001\n      jumpi\n        /* \"@openzeppelin/contracts/access/AccessControl.sol\":6291:6297   */\n      0x00\n        /* \"@openzeppelin/contracts/access/AccessControl.sol\":6291:6303   */\n      dup4\n      dup2\n      mstore\n      0x20\n      dup2\n      dup2\n      mstore\n      0x40\n      dup1\n      dup4\n      keccak256\n      sub(shl(0xa0, 0x01), 0x01)\n        /* \"@openzeppelin/contracts/access/AccessControl.sol\":6291:6320   */\n      dup7\n      and\n      dup5\n      mstore\n      swap1\n      swap2\n      mstore\n      swap1\n      keccak256\n        /* \"@openzeppelin/contracts/access/AccessControl.sol\":6291:6327   */\n      dup1\n      sload\n      not(0xff)\n      and\n        /* \"@openzeppelin/contracts/access/AccessControl.sol\":6323:6327   */\n      0x01\n        /* \"@openzeppelin/contracts/access/AccessControl.sol\":6291:6327   */\n      or\n      swap1\n      sstore\n        /* \"@openzeppelin/contracts/access/AccessControl.sol\":6373:6385   */\n      tag_1002\n        /* \"@openzeppelin/contracts/access/AccessControl.sol\":6373:6383   */\n      tag_474\n        /* \"@openzeppelin/contracts/access/AccessControl.sol\":6373:6385   */\n      jump\t// in\n    tag_1002:\n      sub(shl(0xa0, 0x01), 0x01)\n        /* \"@openzeppelin/contracts/access/AccessControl.sol\":6346:6386   */\n      and\n        /* \"@openzeppelin/contracts/access/AccessControl.sol\":6364:6371   */\n      dup3\n      sub(shl(0xa0, 0x01), 0x01)\n        /* \"@openzeppelin/contracts/access/AccessControl.sol\":6346:6386   */\n      and\n        /* \"@openzeppelin/contracts/access/AccessControl.sol\":6358:6362   */\n      dup5\n        /* \"@openzeppelin/contracts/access/AccessControl.sol\":6346:6386   */\n      0x2f8788117e7eff1d82e926ec794901d17c78024a50270940304540a733656f0d\n      mload(0x40)\n      mload(0x40)\n      dup1\n      swap2\n      sub\n      swap1\n      log4\n      pop\n        /* \"@openzeppelin/contracts/access/AccessControl.sol\":6407:6411   */\n      0x01\n        /* \"@openzeppelin/contracts/access/AccessControl.sol\":6400:6411   */\n      jump(tag_455)\n        /* \"@openzeppelin/contracts/access/AccessControl.sol\":6248:6465   */\n    tag_1001:\n      pop\n        /* \"@openzeppelin/contracts/access/AccessControl.sol\":6449:6454   */\n      0x00\n        /* \"@openzeppelin/contracts/access/AccessControl.sol\":6442:6454   */\n      jump(tag_455)\n        /* \"@openzeppelin/contracts/access/AccessControl.sol\":6708:7025   */\n    tag_560:\n        /* \"@openzeppelin/contracts/access/AccessControl.sol\":6786:6790   */\n      0x00\n        /* \"@openzeppelin/contracts/access/AccessControl.sol\":2930:2942   */\n      dup3\n      dup2\n      mstore\n      0x20\n      dup2\n      dup2\n      mstore\n      0x40\n      dup1\n      dup4\n      keccak256\n      sub(shl(0xa0, 0x01), 0x01)\n        /* \"@openzeppelin/contracts/access/AccessControl.sol\":2930:2959   */\n      dup6\n      and\n      dup5\n      mstore\n      swap1\n      swap2\n      mstore\n      dup2\n      keccak256\n      sload\n      0xff\n      and\n        /* \"@openzeppelin/contracts/access/AccessControl.sol\":6802:7019   */\n      iszero\n      tag_1001\n      jumpi\n        /* \"@openzeppelin/contracts/access/AccessControl.sol\":6876:6881   */\n      0x00\n        /* \"@openzeppelin/contracts/access/AccessControl.sol\":6844:6856   */\n      dup4\n      dup2\n      mstore\n      0x20\n      dup2\n      dup2\n      mstore\n      0x40\n      dup1\n      dup4\n      keccak256\n      sub(shl(0xa0, 0x01), 0x01)\n        /* \"@openzeppelin/contracts/access/AccessControl.sol\":6844:6873   */\n      dup7\n      and\n      dup5\n      mstore\n      swap1\n      swap2\n      mstore\n      swap1\n      keccak256\n        /* \"@openzeppelin/contracts/access/AccessControl.sol\":6844:6881   */\n      dup1\n      sload\n      not(0xff)\n      and\n      swap1\n      sstore\n        /* \"@openzeppelin/contracts/access/AccessControl.sol\":6927:6939   */\n      tag_1007\n        /* \"@openzeppelin/contracts/access/AccessControl.sol\":6927:6937   */\n      tag_474\n        /* \"@openzeppelin/contracts/access/AccessControl.sol\":6927:6939   */\n      jump\t// in\n    tag_1007:\n      sub(shl(0xa0, 0x01), 0x01)\n        /* \"@openzeppelin/contracts/access/AccessControl.sol\":6900:6940   */\n      and\n        /* \"@openzeppelin/contracts/access/AccessControl.sol\":6918:6925   */\n      dup3\n      sub(shl(0xa0, 0x01), 0x01)\n        /* \"@openzeppelin/contracts/access/AccessControl.sol\":6900:6940   */\n      and\n        /* \"@openzeppelin/contracts/access/AccessControl.sol\":6912:6916   */\n      dup5\n        /* \"@openzeppelin/contracts/access/AccessControl.sol\":6900:6940   */\n      0xf6391f5c32d9c69d2a47ea670b442974b53935d1edc7fd64eb21e047a839171b\n      mload(0x40)\n      mload(0x40)\n      dup1\n      swap2\n      sub\n      swap1\n      log4\n      pop\n        /* \"@openzeppelin/contracts/access/AccessControl.sol\":6961:6965   */\n      0x01\n        /* \"@openzeppelin/contracts/access/AccessControl.sol\":6954:6965   */\n      jump(tag_455)\n        /* \"@openzeppelin/contracts/access/AccessControl.sol\":3408:3605   */\n    tag_978:\n        /* \"@openzeppelin/contracts/access/AccessControl.sol\":2907:2911   */\n      0x00\n        /* \"@openzeppelin/contracts/access/AccessControl.sol\":2930:2942   */\n      dup3\n      dup2\n      mstore\n      0x20\n      dup2\n      dup2\n      mstore\n      0x40\n      dup1\n      dup4\n      keccak256\n      sub(shl(0xa0, 0x01), 0x01)\n        /* \"@openzeppelin/contracts/access/AccessControl.sol\":2930:2959   */\n      dup6\n      and\n      dup5\n      mstore\n      swap1\n      swap2\n      mstore\n      swap1\n      keccak256\n      sload\n      0xff\n      and\n        /* \"@openzeppelin/contracts/access/AccessControl.sol\":3491:3599   */\n      tag_649\n      jumpi\n        /* \"@openzeppelin/contracts/access/AccessControl.sol\":3541:3588   */\n      mload(0x40)\n      shl(0xe0, 0xe2517d3f)\n      dup2\n      mstore\n      sub(shl(0xa0, 0x01), 0x01)\n        /* \"#utility.yul\":12941:12996   */\n      dup3\n      and\n        /* \"@openzeppelin/contracts/access/AccessControl.sol\":3541:3588   */\n      0x04\n      dup3\n      add\n        /* \"#utility.yul\":12923:12997   */\n      mstore\n        /* \"#utility.yul\":13013:13031   */\n      0x24\n      dup2\n      add\n        /* \"#utility.yul\":13006:13040   */\n      dup4\n      swap1\n      mstore\n        /* \"#utility.yul\":12896:12914   */\n      0x44\n      add\n        /* \"@openzeppelin/contracts/access/AccessControl.sol\":3541:3588   */\n      mload(0x40)\n      dup1\n      swap2\n      sub\n      swap1\n      revert\n        /* \"@openzeppelin/contracts/metatx/ERC2771Context.sol\":2206:2677   */\n    tag_983:\n        /* \"@openzeppelin/contracts/metatx/ERC2771Context.sol\":2268:2275   */\n      0x00\n        /* \"@openzeppelin/contracts/metatx/ERC2771Context.sol\":2312:2320   */\n      calldatasize\n        /* \"@openzeppelin/contracts/metatx/ERC2771Context.sol\":3567:3569   */\n      0x14\n        /* \"@openzeppelin/contracts/metatx/ERC2771Context.sol\":2403:2440   */\n      dup1\n      dup3\n      lt\n      dup1\n      iszero\n      swap1\n        /* \"@openzeppelin/contracts/metatx/ERC2771Context.sol\":2403:2474   */\n      tag_1018\n      jumpi\n      pop\n        /* \"@openzeppelin/contracts/metatx/ERC2771Context.sol\":1707:1724   */\n      immutable(\"0x3ba75501f6cd0223a98b96be8ad3451b3d01eaca7baa725f5f33253f4bfb368f\")\n      sub(shl(0xa0, 0x01), 0x01)\n        /* \"@openzeppelin/contracts/metatx/ERC2771Context.sol\":1931:1962   */\n      and\n        /* \"@openzeppelin/contracts/metatx/ERC2771Context.sol\":2463:2473   */\n      caller\n        /* \"@openzeppelin/contracts/metatx/ERC2771Context.sol\":1931:1962   */\n      eq\n        /* \"@openzeppelin/contracts/metatx/ERC2771Context.sol\":2444:2474   */\n    tag_1018:\n        /* \"@openzeppelin/contracts/metatx/ERC2771Context.sol\":2399:2671   */\n      iszero\n      tag_1019\n      jumpi\n        /* \"@openzeppelin/contracts/metatx/ERC2771Context.sol\":2541:2588   */\n      tag_1020\n        /* \"@openzeppelin/contracts/metatx/ERC2771Context.sol\":2541:2549   */\n      calldatasize\n        /* \"@openzeppelin/contracts/metatx/ERC2771Context.sol\":2550:2586   */\n      dup3\n      dup5\n      sub\n        /* \"@openzeppelin/contracts/metatx/ERC2771Context.sol\":2541:2549   */\n      dup2\n      0x00\n        /* \"@openzeppelin/contracts/metatx/ERC2771Context.sol\":2541:2588   */\n      tag_1021\n      jump\t// in\n    tag_1020:\n        /* \"@openzeppelin/contracts/metatx/ERC2771Context.sol\":2533:2589   */\n      tag_1022\n      swap2\n      tag_1023\n      jump\t// in\n    tag_1022:\n        /* \"@openzeppelin/contracts/metatx/ERC2771Context.sol\":2525:2590   */\n      0x60\n      shr\n        /* \"@openzeppelin/contracts/metatx/ERC2771Context.sol\":2518:2590   */\n      swap3\n      pop\n      pop\n      pop\n        /* \"@openzeppelin/contracts/metatx/ERC2771Context.sol\":2206:2677   */\n      swap1\n      jump\t// out\n        /* \"@openzeppelin/contracts/metatx/ERC2771Context.sol\":2399:2671   */\n    tag_1019:\n        /* \"@openzeppelin/contracts/utils/Context.sol\":735:745   */\n      caller\n        /* \"@openzeppelin/contracts/metatx/ERC2771Context.sol\":2635:2660   */\n      swap3\n      pop\n      pop\n      pop\n        /* \"@openzeppelin/contracts/metatx/ERC2771Context.sol\":2206:2677   */\n      swap1\n      jump\t// out\n        /* \"#utility.yul\":14:300   */\n    tag_115:\n        /* \"#utility.yul\":72:78   */\n      0x00\n        /* \"#utility.yul\":125:127   */\n      0x20\n        /* \"#utility.yul\":113:122   */\n      dup3\n        /* \"#utility.yul\":104:111   */\n      dup5\n        /* \"#utility.yul\":100:123   */\n      sub\n        /* \"#utility.yul\":96:128   */\n      slt\n        /* \"#utility.yul\":93:145   */\n      iszero\n      tag_1040\n      jumpi\n        /* \"#utility.yul\":141:142   */\n      0x00\n        /* \"#utility.yul\":138:139   */\n      dup1\n        /* \"#utility.yul\":131:143   */\n      revert\n        /* \"#utility.yul\":93:145   */\n    tag_1040:\n        /* \"#utility.yul\":167:190   */\n      dup2\n      calldataload\n      not(sub(shl(0xe0, 0x01), 0x01))\n        /* \"#utility.yul\":219:251   */\n      dup2\n      and\n        /* \"#utility.yul\":209:252   */\n      dup2\n      eq\n        /* \"#utility.yul\":199:270   */\n      tag_1041\n      jumpi\n        /* \"#utility.yul\":266:267   */\n      0x00\n        /* \"#utility.yul\":263:264   */\n      dup1\n        /* \"#utility.yul\":256:268   */\n      revert\n        /* \"#utility.yul\":199:270   */\n    tag_1041:\n        /* \"#utility.yul\":289:294   */\n      swap4\n        /* \"#utility.yul\":14:300   */\n      swap3\n      pop\n      pop\n      pop\n      jump\t// out\n        /* \"#utility.yul\":497:693   */\n    tag_1032:\n        /* \"#utility.yul\":565:585   */\n      dup1\n      calldataload\n      sub(shl(0xa0, 0x01), 0x01)\n        /* \"#utility.yul\":614:668   */\n      dup2\n      and\n        /* \"#utility.yul\":604:669   */\n      dup2\n      eq\n        /* \"#utility.yul\":594:687   */\n      tag_1044\n      jumpi\n        /* \"#utility.yul\":683:684   */\n      0x00\n        /* \"#utility.yul\":680:681   */\n      dup1\n        /* \"#utility.yul\":673:685   */\n      revert\n        /* \"#utility.yul\":594:687   */\n    tag_1044:\n        /* \"#utility.yul\":497:693   */\n      swap2\n      swap1\n      pop\n      jump\t// out\n        /* \"#utility.yul\":698:884   */\n    tag_122:\n        /* \"#utility.yul\":757:763   */\n      0x00\n        /* \"#utility.yul\":810:812   */\n      0x20\n        /* \"#utility.yul\":798:807   */\n      dup3\n        /* \"#utility.yul\":789:796   */\n      dup5\n        /* \"#utility.yul\":785:808   */\n      sub\n        /* \"#utility.yul\":781:813   */\n      slt\n        /* \"#utility.yul\":778:830   */\n      iszero\n      tag_1046\n      jumpi\n        /* \"#utility.yul\":826:827   */\n      0x00\n        /* \"#utility.yul\":823:824   */\n      dup1\n        /* \"#utility.yul\":816:828   */\n      revert\n        /* \"#utility.yul\":778:830   */\n    tag_1046:\n        /* \"#utility.yul\":849:878   */\n      tag_1041\n        /* \"#utility.yul\":868:877   */\n      dup3\n        /* \"#utility.yul\":849:878   */\n      tag_1032\n      jump\t// in\n        /* \"#utility.yul\":1071:1189   */\n    tag_1033:\n        /* \"#utility.yul\":1157:1162   */\n      dup1\n        /* \"#utility.yul\":1150:1163   */\n      iszero\n        /* \"#utility.yul\":1143:1164   */\n      iszero\n        /* \"#utility.yul\":1136:1141   */\n      dup2\n        /* \"#utility.yul\":1133:1165   */\n      eq\n        /* \"#utility.yul\":1123:1183   */\n      tag_477\n      jumpi\n        /* \"#utility.yul\":1179:1180   */\n      0x00\n        /* \"#utility.yul\":1176:1177   */\n      dup1\n        /* \"#utility.yul\":1169:1181   */\n      revert\n        /* \"#utility.yul\":1194:1435   */\n    tag_129:\n        /* \"#utility.yul\":1250:1256   */\n      0x00\n        /* \"#utility.yul\":1303:1305   */\n      0x20\n        /* \"#utility.yul\":1291:1300   */\n      dup3\n        /* \"#utility.yul\":1282:1289   */\n      dup5\n        /* \"#utility.yul\":1278:1301   */\n      sub\n        /* \"#utility.yul\":1274:1306   */\n      slt\n        /* \"#utility.yul\":1271:1323   */\n      iszero\n      tag_1052\n      jumpi\n        /* \"#utility.yul\":1319:1320   */\n      0x00\n        /* \"#utility.yul\":1316:1317   */\n      dup1\n        /* \"#utility.yul\":1309:1321   */\n      revert\n        /* \"#utility.yul\":1271:1323   */\n    tag_1052:\n        /* \"#utility.yul\":1358:1367   */\n      dup2\n        /* \"#utility.yul\":1345:1368   */\n      calldataload\n        /* \"#utility.yul\":1377:1405   */\n      tag_1041\n        /* \"#utility.yul\":1399:1404   */\n      dup2\n        /* \"#utility.yul\":1377:1405   */\n      tag_1033\n      jump\t// in\n        /* \"#utility.yul\":1440:1694   */\n    tag_134:\n        /* \"#utility.yul\":1508:1514   */\n      0x00\n        /* \"#utility.yul\":1516:1522   */\n      dup1\n        /* \"#utility.yul\":1569:1571   */\n      0x40\n        /* \"#utility.yul\":1557:1566   */\n      dup4\n        /* \"#utility.yul\":1548:1555   */\n      dup6\n        /* \"#utility.yul\":1544:1567   */\n      sub\n        /* \"#utility.yul\":1540:1572   */\n      slt\n        /* \"#utility.yul\":1537:1589   */\n      iszero\n      tag_1055\n      jumpi\n        /* \"#utility.yul\":1585:1586   */\n      0x00\n        /* \"#utility.yul\":1582:1583   */\n      dup1\n        /* \"#utility.yul\":1575:1587   */\n      revert\n        /* \"#utility.yul\":1537:1589   */\n    tag_1055:\n        /* \"#utility.yul\":1608:1637   */\n      tag_1056\n        /* \"#utility.yul\":1627:1636   */\n      dup4\n        /* \"#utility.yul\":1608:1637   */\n      tag_1032\n      jump\t// in\n    tag_1056:\n        /* \"#utility.yul\":1598:1637   */\n      swap5\n        /* \"#utility.yul\":1684:1686   */\n      0x20\n        /* \"#utility.yul\":1669:1687   */\n      swap4\n      swap1\n      swap4\n      add\n        /* \"#utility.yul\":1656:1688   */\n      calldataload\n      swap4\n      pop\n      pop\n      pop\n        /* \"#utility.yul\":1440:1694   */\n      jump\t// out\n        /* \"#utility.yul\":1699:1826   */\n    tag_498:\n        /* \"#utility.yul\":1760:1770   */\n      0x4e487b71\n        /* \"#utility.yul\":1755:1758   */\n      0xe0\n        /* \"#utility.yul\":1751:1771   */\n      shl\n        /* \"#utility.yul\":1748:1749   */\n      0x00\n        /* \"#utility.yul\":1741:1772   */\n      mstore\n        /* \"#utility.yul\":1791:1795   */\n      0x21\n        /* \"#utility.yul\":1788:1789   */\n      0x04\n        /* \"#utility.yul\":1781:1796   */\n      mstore\n        /* \"#utility.yul\":1815:1819   */\n      0x24\n        /* \"#utility.yul\":1812:1813   */\n      0x00\n        /* \"#utility.yul\":1805:1820   */\n      revert\n        /* \"#utility.yul\":1831:2068   */\n    tag_1034:\n        /* \"#utility.yul\":1912:1913   */\n      0x02\n        /* \"#utility.yul\":1905:1910   */\n      dup2\n        /* \"#utility.yul\":1902:1914   */\n      lt\n        /* \"#utility.yul\":1892:2035   */\n      tag_1059\n      jumpi\n        /* \"#utility.yul\":1957:1967   */\n      0x4e487b71\n        /* \"#utility.yul\":1952:1955   */\n      0xe0\n        /* \"#utility.yul\":1948:1968   */\n      shl\n        /* \"#utility.yul\":1945:1946   */\n      0x00\n        /* \"#utility.yul\":1938:1969   */\n      mstore\n        /* \"#utility.yul\":1992:1996   */\n      0x21\n        /* \"#utility.yul\":1989:1990   */\n      0x04\n        /* \"#utility.yul\":1982:1997   */\n      mstore\n        /* \"#utility.yul\":2020:2024   */\n      0x24\n        /* \"#utility.yul\":2017:2018   */\n      0x00\n        /* \"#utility.yul\":2010:2025   */\n      revert\n        /* \"#utility.yul\":1892:2035   */\n    tag_1059:\n        /* \"#utility.yul\":2044:2062   */\n      swap1\n      mstore\n        /* \"#utility.yul\":1831:2068   */\n      jump\t// out\n        /* \"#utility.yul\":2073:2752   */\n    tag_137:\n      sub(shl(0x60, 0x01), 0x01)\n        /* \"#utility.yul\":2423:2438   */\n      dup8\n      dup2\n      and\n        /* \"#utility.yul\":2405:2439   */\n      dup3\n      mstore\n        /* \"#utility.yul\":2475:2490   */\n      dup7\n      and\n        /* \"#utility.yul\":2470:2472   */\n      0x20\n        /* \"#utility.yul\":2455:2473   */\n      dup3\n      add\n        /* \"#utility.yul\":2448:2491   */\n      mstore\n        /* \"#utility.yul\":2510:2524   */\n      0xffffffffffff\n        /* \"#utility.yul\":2560:2575   */\n      dup6\n      dup2\n      and\n        /* \"#utility.yul\":2555:2557   */\n      0x40\n        /* \"#utility.yul\":2540:2558   */\n      dup4\n      add\n        /* \"#utility.yul\":2533:2576   */\n      mstore\n        /* \"#utility.yul\":2612:2627   */\n      dup5\n      and\n        /* \"#utility.yul\":2607:2609   */\n      0x60\n        /* \"#utility.yul\":2592:2610   */\n      dup3\n      add\n        /* \"#utility.yul\":2585:2628   */\n      mstore\n        /* \"#utility.yul\":2347:2350   */\n      0xc0\n        /* \"#utility.yul\":2332:2351   */\n      dup2\n      add\n        /* \"#utility.yul\":2637:2691   */\n      tag_1061\n        /* \"#utility.yul\":2686:2689   */\n      0x80\n        /* \"#utility.yul\":2671:2690   */\n      dup4\n      add\n        /* \"#utility.yul\":2663:2669   */\n      dup6\n        /* \"#utility.yul\":2637:2691   */\n      tag_1034\n      jump\t// in\n    tag_1061:\n        /* \"#utility.yul\":2740:2744   */\n      0xff\n        /* \"#utility.yul\":2732:2738   */\n      dup4\n        /* \"#utility.yul\":2728:2745   */\n      and\n        /* \"#utility.yul\":2722:2725   */\n      0xa0\n        /* \"#utility.yul\":2711:2720   */\n      dup4\n        /* \"#utility.yul\":2707:2726   */\n      add\n        /* \"#utility.yul\":2700:2746   */\n      mstore\n        /* \"#utility.yul\":2073:2752   */\n      swap8\n      swap7\n      pop\n      pop\n      pop\n      pop\n      pop\n      pop\n      pop\n      jump\t// out\n        /* \"#utility.yul\":2939:3119   */\n    tag_156:\n        /* \"#utility.yul\":2998:3004   */\n      0x00\n        /* \"#utility.yul\":3051:3053   */\n      0x20\n        /* \"#utility.yul\":3039:3048   */\n      dup3\n        /* \"#utility.yul\":3030:3037   */\n      dup5\n        /* \"#utility.yul\":3026:3049   */\n      sub\n        /* \"#utility.yul\":3022:3054   */\n      slt\n        /* \"#utility.yul\":3019:3071   */\n      iszero\n      tag_1064\n      jumpi\n        /* \"#utility.yul\":3067:3068   */\n      0x00\n        /* \"#utility.yul\":3064:3065   */\n      dup1\n        /* \"#utility.yul\":3057:3069   */\n      revert\n        /* \"#utility.yul\":3019:3071   */\n    tag_1064:\n      pop\n        /* \"#utility.yul\":3090:3113   */\n      calldataload\n      swap2\n        /* \"#utility.yul\":2939:3119   */\n      swap1\n      pop\n      jump\t// out\n        /* \"#utility.yul\":3124:4461   */\n    tag_171:\n        /* \"#utility.yul\":3353:3355   */\n      0x20\n        /* \"#utility.yul\":3405:3426   */\n      dup1\n      dup3\n      mstore\n        /* \"#utility.yul\":3475:3488   */\n      dup3\n      mload\n        /* \"#utility.yul\":3378:3396   */\n      dup3\n      dup3\n      add\n        /* \"#utility.yul\":3497:3519   */\n      dup2\n      swap1\n      mstore\n        /* \"#utility.yul\":3324:3328   */\n      0x00\n      swap2\n        /* \"#utility.yul\":3353:3355   */\n      swap1\n        /* \"#utility.yul\":3538:3540   */\n      0x40\n      swap1\n        /* \"#utility.yul\":3556:3574   */\n      dup2\n      dup6\n      add\n      swap1\n        /* \"#utility.yul\":3597:3612   */\n      dup7\n      dup5\n      add\n        /* \"#utility.yul\":3324:3328   */\n      dup6\n        /* \"#utility.yul\":3640:4435   */\n    tag_1066:\n        /* \"#utility.yul\":3654:3660   */\n      dup3\n        /* \"#utility.yul\":3651:3652   */\n      dup2\n        /* \"#utility.yul\":3648:3661   */\n      lt\n        /* \"#utility.yul\":3640:4435   */\n      iszero\n      tag_1068\n      jumpi\n        /* \"#utility.yul\":3713:3726   */\n      dup2\n      mload\n        /* \"#utility.yul\":3804:3813   */\n      dup1\n      mload\n      sub(shl(0x60, 0x01), 0x01)\n        /* \"#utility.yul\":3800:3818   */\n      swap1\n      dup2\n      and\n        /* \"#utility.yul\":3788:3819   */\n      dup7\n      mstore\n        /* \"#utility.yul\":3863:3874   */\n      dup8\n      dup3\n      add\n        /* \"#utility.yul\":3857:3875   */\n      mload\n        /* \"#utility.yul\":3853:3880   */\n      and\n        /* \"#utility.yul\":3839:3851   */\n      dup8\n      dup7\n      add\n        /* \"#utility.yul\":3832:3881   */\n      mstore\n        /* \"#utility.yul\":3920:3931   */\n      dup6\n      dup2\n      add\n        /* \"#utility.yul\":3914:3932   */\n      mload\n        /* \"#utility.yul\":3955:3969   */\n      0xffffffffffff\n        /* \"#utility.yul\":4003:4024   */\n      swap1\n      dup2\n      and\n        /* \"#utility.yul\":3989:4001   */\n      dup8\n      dup8\n      add\n        /* \"#utility.yul\":3982:4025   */\n      mstore\n        /* \"#utility.yul\":4048:4052   */\n      0x60\n        /* \"#utility.yul\":4096:4107   */\n      dup1\n      dup4\n      add\n        /* \"#utility.yul\":4090:4108   */\n      mload\n        /* \"#utility.yul\":4086:4113   */\n      swap1\n      swap2\n      and\n        /* \"#utility.yul\":4072:4084   */\n      swap1\n      dup7\n      add\n        /* \"#utility.yul\":4065:4114   */\n      mstore\n        /* \"#utility.yul\":4137:4141   */\n      0x80\n        /* \"#utility.yul\":4182:4193   */\n      dup1\n      dup3\n      add\n        /* \"#utility.yul\":4176:4194   */\n      mload\n        /* \"#utility.yul\":4207:4262   */\n      tag_1069\n        /* \"#utility.yul\":4249:4261   */\n      dup3\n      dup9\n      add\n        /* \"#utility.yul\":4176:4194   */\n      dup3\n        /* \"#utility.yul\":4207:4262   */\n      tag_1034\n      jump\t// in\n    tag_1069:\n      pop\n      pop\n        /* \"#utility.yul\":4285:4289   */\n      0xa0\n        /* \"#utility.yul\":4333:4344   */\n      swap1\n      dup2\n      add\n        /* \"#utility.yul\":4327:4345   */\n      mload\n        /* \"#utility.yul\":4347:4351   */\n      0xff\n        /* \"#utility.yul\":4323:4352   */\n      and\n        /* \"#utility.yul\":4309:4321   */\n      swap1\n      dup6\n      add\n        /* \"#utility.yul\":4302:4353   */\n      mstore\n        /* \"#utility.yul\":4382:4386   */\n      0xc0\n        /* \"#utility.yul\":4373:4387   */\n      swap1\n      swap4\n      add\n      swap3\n        /* \"#utility.yul\":4410:4425   */\n      swap1\n      dup6\n      add\n      swap1\n        /* \"#utility.yul\":3676:3677   */\n      0x01\n        /* \"#utility.yul\":3669:3678   */\n      add\n        /* \"#utility.yul\":3640:4435   */\n      jump(tag_1066)\n    tag_1068:\n      pop\n        /* \"#utility.yul\":4452:4455   */\n      swap2\n      swap8\n        /* \"#utility.yul\":3124:4461   */\n      swap7\n      pop\n      pop\n      pop\n      pop\n      pop\n      pop\n      pop\n      jump\t// out\n        /* \"#utility.yul\":4651:4905   */\n    tag_184:\n        /* \"#utility.yul\":4719:4725   */\n      0x00\n        /* \"#utility.yul\":4727:4733   */\n      dup1\n        /* \"#utility.yul\":4780:4782   */\n      0x40\n        /* \"#utility.yul\":4768:4777   */\n      dup4\n        /* \"#utility.yul\":4759:4766   */\n      dup6\n        /* \"#utility.yul\":4755:4778   */\n      sub\n        /* \"#utility.yul\":4751:4783   */\n      slt\n        /* \"#utility.yul\":4748:4800   */\n      iszero\n      tag_1073\n      jumpi\n        /* \"#utility.yul\":4796:4797   */\n      0x00\n        /* \"#utility.yul\":4793:4794   */\n      dup1\n        /* \"#utility.yul\":4786:4798   */\n      revert\n        /* \"#utility.yul\":4748:4800   */\n    tag_1073:\n        /* \"#utility.yul\":4832:4841   */\n      dup3\n        /* \"#utility.yul\":4819:4842   */\n      calldataload\n        /* \"#utility.yul\":4809:4842   */\n      swap2\n      pop\n        /* \"#utility.yul\":4861:4899   */\n      tag_1074\n        /* \"#utility.yul\":4895:4897   */\n      0x20\n        /* \"#utility.yul\":4884:4893   */\n      dup5\n        /* \"#utility.yul\":4880:4898   */\n      add\n        /* \"#utility.yul\":4861:4899   */\n      tag_1032\n      jump\t// in\n    tag_1074:\n        /* \"#utility.yul\":4851:4899   */\n      swap1\n      pop\n        /* \"#utility.yul\":4651:4905   */\n      swap3\n      pop\n      swap3\n      swap1\n      pop\n      jump\t// out\n        /* \"#utility.yul\":5157:5524   */\n    tag_1035:\n        /* \"#utility.yul\":5220:5228   */\n      0x00\n        /* \"#utility.yul\":5230:5236   */\n      dup1\n        /* \"#utility.yul\":5284:5287   */\n      dup4\n        /* \"#utility.yul\":5277:5281   */\n      0x1f\n        /* \"#utility.yul\":5269:5275   */\n      dup5\n        /* \"#utility.yul\":5265:5282   */\n      add\n        /* \"#utility.yul\":5261:5288   */\n      slt\n        /* \"#utility.yul\":5251:5306   */\n      tag_1077\n      jumpi\n        /* \"#utility.yul\":5302:5303   */\n      0x00\n        /* \"#utility.yul\":5299:5300   */\n      dup1\n        /* \"#utility.yul\":5292:5304   */\n      revert\n        /* \"#utility.yul\":5251:5306   */\n    tag_1077:\n      pop\n        /* \"#utility.yul\":5325:5345   */\n      dup2\n      calldataload\n        /* \"#utility.yul\":5368:5386   */\n      0xffffffffffffffff\n        /* \"#utility.yul\":5357:5387   */\n      dup2\n      gt\n        /* \"#utility.yul\":5354:5404   */\n      iszero\n      tag_1078\n      jumpi\n        /* \"#utility.yul\":5400:5401   */\n      0x00\n        /* \"#utility.yul\":5397:5398   */\n      dup1\n        /* \"#utility.yul\":5390:5402   */\n      revert\n        /* \"#utility.yul\":5354:5404   */\n    tag_1078:\n        /* \"#utility.yul\":5437:5441   */\n      0x20\n        /* \"#utility.yul\":5429:5435   */\n      dup4\n        /* \"#utility.yul\":5425:5442   */\n      add\n        /* \"#utility.yul\":5413:5442   */\n      swap2\n      pop\n        /* \"#utility.yul\":5497:5500   */\n      dup4\n        /* \"#utility.yul\":5490:5494   */\n      0x20\n        /* \"#utility.yul\":5480:5486   */\n      dup3\n        /* \"#utility.yul\":5477:5478   */\n      0x05\n        /* \"#utility.yul\":5473:5487   */\n      shl\n        /* \"#utility.yul\":5465:5471   */\n      dup6\n        /* \"#utility.yul\":5461:5488   */\n      add\n        /* \"#utility.yul\":5457:5495   */\n      add\n        /* \"#utility.yul\":5454:5501   */\n      gt\n        /* \"#utility.yul\":5451:5518   */\n      iszero\n      tag_1079\n      jumpi\n        /* \"#utility.yul\":5514:5515   */\n      0x00\n        /* \"#utility.yul\":5511:5512   */\n      dup1\n        /* \"#utility.yul\":5504:5516   */\n      revert\n        /* \"#utility.yul\":5451:5518   */\n    tag_1079:\n        /* \"#utility.yul\":5157:5524   */\n      swap3\n      pop\n      swap3\n      swap1\n      pop\n      jump\t// out\n        /* \"#utility.yul\":5529:6302   */\n    tag_212:\n        /* \"#utility.yul\":5651:5657   */\n      0x00\n        /* \"#utility.yul\":5659:5665   */\n      dup1\n        /* \"#utility.yul\":5667:5673   */\n      0x00\n        /* \"#utility.yul\":5675:5681   */\n      dup1\n        /* \"#utility.yul\":5728:5730   */\n      0x40\n        /* \"#utility.yul\":5716:5725   */\n      dup6\n        /* \"#utility.yul\":5707:5714   */\n      dup8\n        /* \"#utility.yul\":5703:5726   */\n      sub\n        /* \"#utility.yul\":5699:5731   */\n      slt\n        /* \"#utility.yul\":5696:5748   */\n      iszero\n      tag_1081\n      jumpi\n        /* \"#utility.yul\":5744:5745   */\n      0x00\n        /* \"#utility.yul\":5741:5742   */\n      dup1\n        /* \"#utility.yul\":5734:5746   */\n      revert\n        /* \"#utility.yul\":5696:5748   */\n    tag_1081:\n        /* \"#utility.yul\":5784:5793   */\n      dup5\n        /* \"#utility.yul\":5771:5794   */\n      calldataload\n        /* \"#utility.yul\":5813:5831   */\n      0xffffffffffffffff\n        /* \"#utility.yul\":5854:5856   */\n      dup1\n        /* \"#utility.yul\":5846:5852   */\n      dup3\n        /* \"#utility.yul\":5843:5857   */\n      gt\n        /* \"#utility.yul\":5840:5874   */\n      iszero\n      tag_1082\n      jumpi\n        /* \"#utility.yul\":5870:5871   */\n      0x00\n        /* \"#utility.yul\":5867:5868   */\n      dup1\n        /* \"#utility.yul\":5860:5872   */\n      revert\n        /* \"#utility.yul\":5840:5874   */\n    tag_1082:\n        /* \"#utility.yul\":5909:5979   */\n      tag_1083\n        /* \"#utility.yul\":5971:5978   */\n      dup9\n        /* \"#utility.yul\":5962:5968   */\n      dup4\n        /* \"#utility.yul\":5951:5960   */\n      dup10\n        /* \"#utility.yul\":5947:5969   */\n      add\n        /* \"#utility.yul\":5909:5979   */\n      tag_1035\n      jump\t// in\n    tag_1083:\n        /* \"#utility.yul\":5998:6006   */\n      swap1\n      swap7\n      pop\n        /* \"#utility.yul\":5883:5979   */\n      swap5\n      pop\n        /* \"#utility.yul\":6086:6088   */\n      0x20\n        /* \"#utility.yul\":6071:6089   */\n      dup8\n      add\n        /* \"#utility.yul\":6058:6090   */\n      calldataload\n      swap2\n      pop\n        /* \"#utility.yul\":6102:6118   */\n      dup1\n      dup3\n      gt\n        /* \"#utility.yul\":6099:6135   */\n      iszero\n      tag_1084\n      jumpi\n        /* \"#utility.yul\":6131:6132   */\n      0x00\n        /* \"#utility.yul\":6128:6129   */\n      dup1\n        /* \"#utility.yul\":6121:6133   */\n      revert\n        /* \"#utility.yul\":6099:6135   */\n    tag_1084:\n      pop\n        /* \"#utility.yul\":6170:6242   */\n      tag_1085\n        /* \"#utility.yul\":6234:6241   */\n      dup8\n        /* \"#utility.yul\":6223:6231   */\n      dup3\n        /* \"#utility.yul\":6212:6221   */\n      dup9\n        /* \"#utility.yul\":6208:6232   */\n      add\n        /* \"#utility.yul\":6170:6242   */\n      tag_1035\n      jump\t// in\n    tag_1085:\n        /* \"#utility.yul\":5529:6302   */\n      swap6\n      swap9\n      swap5\n      swap8\n      pop\n        /* \"#utility.yul\":6261:6269   */\n      swap6\n      pop\n      pop\n      pop\n      pop\n        /* \"#utility.yul\":5529:6302   */\n      jump\t// out\n        /* \"#utility.yul\":7766:8081   */\n    tag_232:\n        /* \"#utility.yul\":7831:7837   */\n      0x00\n        /* \"#utility.yul\":7839:7845   */\n      dup1\n        /* \"#utility.yul\":7892:7894   */\n      0x40\n        /* \"#utility.yul\":7880:7889   */\n      dup4\n        /* \"#utility.yul\":7871:7878   */\n      dup6\n        /* \"#utility.yul\":7867:7890   */\n      sub\n        /* \"#utility.yul\":7863:7895   */\n      slt\n        /* \"#utility.yul\":7860:7912   */\n      iszero\n      tag_1094\n      jumpi\n        /* \"#utility.yul\":7908:7909   */\n      0x00\n        /* \"#utility.yul\":7905:7906   */\n      dup1\n        /* \"#utility.yul\":7898:7910   */\n      revert\n        /* \"#utility.yul\":7860:7912   */\n    tag_1094:\n        /* \"#utility.yul\":7931:7960   */\n      tag_1095\n        /* \"#utility.yul\":7950:7959   */\n      dup4\n        /* \"#utility.yul\":7931:7960   */\n      tag_1032\n      jump\t// in\n    tag_1095:\n        /* \"#utility.yul\":7921:7960   */\n      swap2\n      pop\n        /* \"#utility.yul\":8010:8012   */\n      0x20\n        /* \"#utility.yul\":7999:8008   */\n      dup4\n        /* \"#utility.yul\":7995:8013   */\n      add\n        /* \"#utility.yul\":7982:8014   */\n      calldataload\n        /* \"#utility.yul\":8023:8051   */\n      tag_1096\n        /* \"#utility.yul\":8045:8050   */\n      dup2\n        /* \"#utility.yul\":8023:8051   */\n      tag_1033\n      jump\t// in\n    tag_1096:\n        /* \"#utility.yul\":8070:8075   */\n      dup1\n        /* \"#utility.yul\":8060:8075   */\n      swap2\n      pop\n      pop\n        /* \"#utility.yul\":7766:8081   */\n      swap3\n      pop\n      swap3\n      swap1\n      pop\n      jump\t// out\n        /* \"#utility.yul\":8287:8663   */\n    tag_262:\n        /* \"#utility.yul\":8349:8355   */\n      0x00\n        /* \"#utility.yul\":8357:8363   */\n      dup1\n        /* \"#utility.yul\":8410:8412   */\n      0x40\n        /* \"#utility.yul\":8398:8407   */\n      dup4\n        /* \"#utility.yul\":8389:8396   */\n      dup6\n        /* \"#utility.yul\":8385:8408   */\n      sub\n        /* \"#utility.yul\":8381:8413   */\n      slt\n        /* \"#utility.yul\":8378:8430   */\n      iszero\n      tag_1099\n      jumpi\n        /* \"#utility.yul\":8426:8427   */\n      0x00\n        /* \"#utility.yul\":8423:8424   */\n      dup1\n        /* \"#utility.yul\":8416:8428   */\n      revert\n        /* \"#utility.yul\":8378:8430   */\n    tag_1099:\n        /* \"#utility.yul\":8465:8474   */\n      dup3\n        /* \"#utility.yul\":8452:8475   */\n      calldataload\n        /* \"#utility.yul\":8484:8512   */\n      tag_1095\n        /* \"#utility.yul\":8506:8511   */\n      dup2\n        /* \"#utility.yul\":8484:8512   */\n      tag_1033\n      jump\t// in\n        /* \"#utility.yul\":8668:9105   */\n    tag_279:\n        /* \"#utility.yul\":8754:8760   */\n      0x00\n        /* \"#utility.yul\":8762:8768   */\n      dup1\n        /* \"#utility.yul\":8815:8817   */\n      0x20\n        /* \"#utility.yul\":8803:8812   */\n      dup4\n        /* \"#utility.yul\":8794:8801   */\n      dup6\n        /* \"#utility.yul\":8790:8813   */\n      sub\n        /* \"#utility.yul\":8786:8818   */\n      slt\n        /* \"#utility.yul\":8783:8835   */\n      iszero\n      tag_1103\n      jumpi\n        /* \"#utility.yul\":8831:8832   */\n      0x00\n        /* \"#utility.yul\":8828:8829   */\n      dup1\n        /* \"#utility.yul\":8821:8833   */\n      revert\n        /* \"#utility.yul\":8783:8835   */\n    tag_1103:\n        /* \"#utility.yul\":8871:8880   */\n      dup3\n        /* \"#utility.yul\":8858:8881   */\n      calldataload\n        /* \"#utility.yul\":8904:8922   */\n      0xffffffffffffffff\n        /* \"#utility.yul\":8896:8902   */\n      dup2\n        /* \"#utility.yul\":8893:8923   */\n      gt\n        /* \"#utility.yul\":8890:8940   */\n      iszero\n      tag_1104\n      jumpi\n        /* \"#utility.yul\":8936:8937   */\n      0x00\n        /* \"#utility.yul\":8933:8934   */\n      dup1\n        /* \"#utility.yul\":8926:8938   */\n      revert\n        /* \"#utility.yul\":8890:8940   */\n    tag_1104:\n        /* \"#utility.yul\":8975:9045   */\n      tag_1105\n        /* \"#utility.yul\":9037:9044   */\n      dup6\n        /* \"#utility.yul\":9028:9034   */\n      dup3\n        /* \"#utility.yul\":9017:9026   */\n      dup7\n        /* \"#utility.yul\":9013:9035   */\n      add\n        /* \"#utility.yul\":8975:9045   */\n      tag_1035\n      jump\t// in\n    tag_1105:\n        /* \"#utility.yul\":9064:9072   */\n      swap1\n      swap7\n        /* \"#utility.yul\":8949:9045   */\n      swap1\n      swap6\n      pop\n        /* \"#utility.yul\":8668:9105   */\n      swap4\n      pop\n      pop\n      pop\n      pop\n      jump\t// out\n        /* \"#utility.yul\":9341:9852   */\n    tag_301:\n        /* \"#utility.yul\":9436:9442   */\n      0x00\n        /* \"#utility.yul\":9444:9450   */\n      dup1\n        /* \"#utility.yul\":9452:9458   */\n      0x00\n        /* \"#utility.yul\":9505:9507   */\n      0x40\n        /* \"#utility.yul\":9493:9502   */\n      dup5\n        /* \"#utility.yul\":9484:9491   */\n      dup7\n        /* \"#utility.yul\":9480:9503   */\n      sub\n        /* \"#utility.yul\":9476:9508   */\n      slt\n        /* \"#utility.yul\":9473:9525   */\n      iszero\n      tag_1108\n      jumpi\n        /* \"#utility.yul\":9521:9522   */\n      0x00\n        /* \"#utility.yul\":9518:9519   */\n      dup1\n        /* \"#utility.yul\":9511:9523   */\n      revert\n        /* \"#utility.yul\":9473:9525   */\n    tag_1108:\n        /* \"#utility.yul\":9544:9573   */\n      tag_1109\n        /* \"#utility.yul\":9563:9572   */\n      dup5\n        /* \"#utility.yul\":9544:9573   */\n      tag_1032\n      jump\t// in\n    tag_1109:\n        /* \"#utility.yul\":9534:9573   */\n      swap3\n      pop\n        /* \"#utility.yul\":9624:9626   */\n      0x20\n        /* \"#utility.yul\":9613:9622   */\n      dup5\n        /* \"#utility.yul\":9609:9627   */\n      add\n        /* \"#utility.yul\":9596:9628   */\n      calldataload\n        /* \"#utility.yul\":9651:9669   */\n      0xffffffffffffffff\n        /* \"#utility.yul\":9643:9649   */\n      dup2\n        /* \"#utility.yul\":9640:9670   */\n      gt\n        /* \"#utility.yul\":9637:9687   */\n      iszero\n      tag_1110\n      jumpi\n        /* \"#utility.yul\":9683:9684   */\n      0x00\n        /* \"#utility.yul\":9680:9681   */\n      dup1\n        /* \"#utility.yul\":9673:9685   */\n      revert\n        /* \"#utility.yul\":9637:9687   */\n    tag_1110:\n        /* \"#utility.yul\":9722:9792   */\n      tag_1111\n        /* \"#utility.yul\":9784:9791   */\n      dup7\n        /* \"#utility.yul\":9775:9781   */\n      dup3\n        /* \"#utility.yul\":9764:9773   */\n      dup8\n        /* \"#utility.yul\":9760:9782   */\n      add\n        /* \"#utility.yul\":9722:9792   */\n      tag_1035\n      jump\t// in\n    tag_1111:\n        /* \"#utility.yul\":9341:9852   */\n      swap5\n      swap8\n        /* \"#utility.yul\":9811:9819   */\n      swap1\n      swap7\n      pop\n        /* \"#utility.yul\":9696:9792   */\n      swap4\n      swap5\n      pop\n      pop\n      pop\n      pop\n        /* \"#utility.yul\":9341:9852   */\n      jump\t// out\n        /* \"#utility.yul\":10981:11309   */\n    tag_362:\n        /* \"#utility.yul\":11058:11064   */\n      0x00\n        /* \"#utility.yul\":11066:11072   */\n      dup1\n        /* \"#utility.yul\":11074:11080   */\n      0x00\n        /* \"#utility.yul\":11127:11129   */\n      0x60\n        /* \"#utility.yul\":11115:11124   */\n      dup5\n        /* \"#utility.yul\":11106:11113   */\n      dup7\n        /* \"#utility.yul\":11102:11125   */\n      sub\n        /* \"#utility.yul\":11098:11130   */\n      slt\n        /* \"#utility.yul\":11095:11147   */\n      iszero\n      tag_1114\n      jumpi\n        /* \"#utility.yul\":11143:11144   */\n      0x00\n        /* \"#utility.yul\":11140:11141   */\n      dup1\n        /* \"#utility.yul\":11133:11145   */\n      revert\n        /* \"#utility.yul\":11095:11147   */\n    tag_1114:\n        /* \"#utility.yul\":11166:11195   */\n      tag_1115\n        /* \"#utility.yul\":11185:11194   */\n      dup5\n        /* \"#utility.yul\":11166:11195   */\n      tag_1032\n      jump\t// in\n    tag_1115:\n        /* \"#utility.yul\":11156:11195   */\n      swap3\n      pop\n        /* \"#utility.yul\":11214:11252   */\n      tag_1116\n        /* \"#utility.yul\":11248:11250   */\n      0x20\n        /* \"#utility.yul\":11237:11246   */\n      dup6\n        /* \"#utility.yul\":11233:11251   */\n      add\n        /* \"#utility.yul\":11214:11252   */\n      tag_1032\n      jump\t// in\n    tag_1116:\n        /* \"#utility.yul\":11204:11252   */\n      swap2\n      pop\n        /* \"#utility.yul\":11299:11301   */\n      0x40\n        /* \"#utility.yul\":11288:11297   */\n      dup5\n        /* \"#utility.yul\":11284:11302   */\n      add\n        /* \"#utility.yul\":11271:11303   */\n      calldataload\n        /* \"#utility.yul\":11261:11303   */\n      swap1\n      pop\n        /* \"#utility.yul\":10981:11309   */\n      swap3\n      pop\n      swap3\n      pop\n      swap3\n      jump\t// out\n        /* \"#utility.yul\":11314:11652   */\n    tag_441:\n        /* \"#utility.yul\":11396:11402   */\n      0x00\n        /* \"#utility.yul\":11404:11410   */\n      dup1\n        /* \"#utility.yul\":11457:11459   */\n      0x40\n        /* \"#utility.yul\":11445:11454   */\n      dup4\n        /* \"#utility.yul\":11436:11443   */\n      dup6\n        /* \"#utility.yul\":11432:11455   */\n      sub\n        /* \"#utility.yul\":11428:11460   */\n      slt\n        /* \"#utility.yul\":11425:11477   */\n      iszero\n      tag_1118\n      jumpi\n        /* \"#utility.yul\":11473:11474   */\n      0x00\n        /* \"#utility.yul\":11470:11471   */\n      dup1\n        /* \"#utility.yul\":11463:11475   */\n      revert\n        /* \"#utility.yul\":11425:11477   */\n    tag_1118:\n        /* \"#utility.yul\":11512:11521   */\n      dup3\n        /* \"#utility.yul\":11499:11522   */\n      calldataload\n        /* \"#utility.yul\":11551:11552   */\n      0x02\n        /* \"#utility.yul\":11544:11549   */\n      dup2\n        /* \"#utility.yul\":11541:11553   */\n      lt\n        /* \"#utility.yul\":11531:11571   */\n      tag_1056\n      jumpi\n        /* \"#utility.yul\":11567:11568   */\n      0x00\n        /* \"#utility.yul\":11564:11565   */\n      dup1\n        /* \"#utility.yul\":11557:11569   */\n      revert\n        /* \"#utility.yul\":11657:11784   */\n    tag_1036:\n        /* \"#utility.yul\":11718:11728   */\n      0x4e487b71\n        /* \"#utility.yul\":11713:11716   */\n      0xe0\n        /* \"#utility.yul\":11709:11729   */\n      shl\n        /* \"#utility.yul\":11706:11707   */\n      0x00\n        /* \"#utility.yul\":11699:11730   */\n      mstore\n        /* \"#utility.yul\":11749:11753   */\n      0x11\n        /* \"#utility.yul\":11746:11747   */\n      0x04\n        /* \"#utility.yul\":11739:11754   */\n      mstore\n        /* \"#utility.yul\":11773:11777   */\n      0x24\n        /* \"#utility.yul\":11770:11771   */\n      0x00\n        /* \"#utility.yul\":11763:11778   */\n      revert\n        /* \"#utility.yul\":11789:11917   */\n    tag_472:\n        /* \"#utility.yul\":11856:11865   */\n      dup2\n      dup2\n      sub\n        /* \"#utility.yul\":11877:11888   */\n      dup2\n      dup2\n      gt\n        /* \"#utility.yul\":11874:11911   */\n      iszero\n      tag_455\n      jumpi\n        /* \"#utility.yul\":11891:11909   */\n      tag_455\n      tag_1036\n      jump\t// in\n        /* \"#utility.yul\":11922:12272   */\n    tag_476:\n        /* \"#utility.yul\":12124:12126   */\n      0x60\n        /* \"#utility.yul\":12109:12127   */\n      dup2\n      add\n        /* \"#utility.yul\":12136:12180   */\n      tag_1125\n        /* \"#utility.yul\":12113:12122   */\n      dup3\n        /* \"#utility.yul\":12162:12168   */\n      dup7\n        /* \"#utility.yul\":12136:12180   */\n      tag_1034\n      jump\t// in\n    tag_1125:\n        /* \"#utility.yul\":12211:12213   */\n      0x20\n        /* \"#utility.yul\":12196:12214   */\n      dup3\n      add\n        /* \"#utility.yul\":12189:12223   */\n      swap4\n      swap1\n      swap4\n      mstore\n        /* \"#utility.yul\":12254:12256   */\n      0x40\n        /* \"#utility.yul\":12239:12257   */\n      add\n        /* \"#utility.yul\":12232:12266   */\n      mstore\n        /* \"#utility.yul\":11922:12272   */\n      swap2\n      swap1\n      pop\n      jump\t// out\n        /* \"#utility.yul\":12277:12402   */\n    tag_488:\n        /* \"#utility.yul\":12342:12351   */\n      dup1\n      dup3\n      add\n        /* \"#utility.yul\":12363:12373   */\n      dup1\n      dup3\n      gt\n        /* \"#utility.yul\":12360:12396   */\n      iszero\n      tag_455\n      jumpi\n        /* \"#utility.yul\":12376:12394   */\n      tag_455\n      tag_1036\n      jump\t// in\n        /* \"#utility.yul\":12407:12534   */\n    tag_509:\n        /* \"#utility.yul\":12468:12478   */\n      0x4e487b71\n        /* \"#utility.yul\":12463:12466   */\n      0xe0\n        /* \"#utility.yul\":12459:12479   */\n      shl\n        /* \"#utility.yul\":12456:12457   */\n      0x00\n        /* \"#utility.yul\":12449:12480   */\n      mstore\n        /* \"#utility.yul\":12499:12503   */\n      0x32\n        /* \"#utility.yul\":12496:12497   */\n      0x04\n        /* \"#utility.yul\":12489:12504   */\n      mstore\n        /* \"#utility.yul\":12523:12527   */\n      0x24\n        /* \"#utility.yul\":12520:12521   */\n      0x00\n        /* \"#utility.yul\":12513:12528   */\n      revert\n        /* \"#utility.yul\":13051:13296   */\n    tag_544:\n        /* \"#utility.yul\":13118:13124   */\n      0x00\n        /* \"#utility.yul\":13171:13173   */\n      0x20\n        /* \"#utility.yul\":13159:13168   */\n      dup3\n        /* \"#utility.yul\":13150:13157   */\n      dup5\n        /* \"#utility.yul\":13146:13169   */\n      sub\n        /* \"#utility.yul\":13142:13174   */\n      slt\n        /* \"#utility.yul\":13139:13191   */\n      iszero\n      tag_1133\n      jumpi\n        /* \"#utility.yul\":13187:13188   */\n      0x00\n        /* \"#utility.yul\":13184:13185   */\n      dup1\n        /* \"#utility.yul\":13177:13189   */\n      revert\n        /* \"#utility.yul\":13139:13191   */\n    tag_1133:\n        /* \"#utility.yul\":13219:13228   */\n      dup2\n        /* \"#utility.yul\":13213:13229   */\n      mload\n        /* \"#utility.yul\":13238:13266   */\n      tag_1041\n        /* \"#utility.yul\":13260:13265   */\n      dup2\n        /* \"#utility.yul\":13238:13266   */\n      tag_1033\n      jump\t// in\n        /* \"#utility.yul\":13301:13795   */\n    tag_548:\n        /* \"#utility.yul\":13559:13562   */\n      0xa0\n        /* \"#utility.yul\":13544:13563   */\n      dup2\n      add\n        /* \"#utility.yul\":13572:13616   */\n      tag_1136\n        /* \"#utility.yul\":13548:13557   */\n      dup3\n        /* \"#utility.yul\":13598:13604   */\n      dup9\n        /* \"#utility.yul\":13572:13616   */\n      tag_1034\n      jump\t// in\n    tag_1136:\n        /* \"#utility.yul\":13652:13658   */\n      dup6\n        /* \"#utility.yul\":13647:13649   */\n      0x20\n        /* \"#utility.yul\":13636:13645   */\n      dup4\n        /* \"#utility.yul\":13632:13650   */\n      add\n        /* \"#utility.yul\":13625:13659   */\n      mstore\n        /* \"#utility.yul\":13695:13701   */\n      dup5\n        /* \"#utility.yul\":13690:13692   */\n      0x40\n        /* \"#utility.yul\":13679:13688   */\n      dup4\n        /* \"#utility.yul\":13675:13693   */\n      add\n        /* \"#utility.yul\":13668:13702   */\n      mstore\n        /* \"#utility.yul\":13738:13744   */\n      dup4\n        /* \"#utility.yul\":13733:13735   */\n      0x60\n        /* \"#utility.yul\":13722:13731   */\n      dup4\n        /* \"#utility.yul\":13718:13736   */\n      add\n        /* \"#utility.yul\":13711:13745   */\n      mstore\n        /* \"#utility.yul\":13782:13788   */\n      dup3\n        /* \"#utility.yul\":13776:13779   */\n      0x80\n        /* \"#utility.yul\":13765:13774   */\n      dup4\n        /* \"#utility.yul\":13761:13780   */\n      add\n        /* \"#utility.yul\":13754:13789   */\n      mstore\n        /* \"#utility.yul\":13301:13795   */\n      swap7\n      swap6\n      pop\n      pop\n      pop\n      pop\n      pop\n      pop\n      jump\t// out\n        /* \"#utility.yul\":14476:14834   */\n    tag_1037:\n        /* \"#utility.yul\":14576:14582   */\n      dup2\n        /* \"#utility.yul\":14571:14574   */\n      dup4\n        /* \"#utility.yul\":14564:14583   */\n      mstore\n        /* \"#utility.yul\":14546:14549   */\n      0x00\n        /* \"#utility.yul\":14606:14672   */\n      0x07ffffffffffffffffffffffffffffffffffffffffffffffffffffffffffffff\n        /* \"#utility.yul\":14598:14604   */\n      dup4\n        /* \"#utility.yul\":14595:14673   */\n      gt\n        /* \"#utility.yul\":14592:14690   */\n      iszero\n      tag_1140\n      jumpi\n        /* \"#utility.yul\":14686:14687   */\n      0x00\n        /* \"#utility.yul\":14683:14684   */\n      dup1\n        /* \"#utility.yul\":14676:14688   */\n      revert\n        /* \"#utility.yul\":14592:14690   */\n    tag_1140:\n        /* \"#utility.yul\":14722:14728   */\n      dup3\n        /* \"#utility.yul\":14719:14720   */\n      0x05\n        /* \"#utility.yul\":14715:14729   */\n      shl\n        /* \"#utility.yul\":14774:14782   */\n      dup1\n        /* \"#utility.yul\":14767:14772   */\n      dup4\n        /* \"#utility.yul\":14760:14764   */\n      0x20\n        /* \"#utility.yul\":14755:14758   */\n      dup8\n        /* \"#utility.yul\":14751:14765   */\n      add\n        /* \"#utility.yul\":14738:14783   */\n      calldatacopy\n        /* \"#utility.yul\":14803:14821   */\n      swap4\n      swap1\n      swap4\n      add\n        /* \"#utility.yul\":14823:14827   */\n      0x20\n        /* \"#utility.yul\":14799:14828   */\n      add\n      swap4\n        /* \"#utility.yul\":14476:14834   */\n      swap3\n      pop\n      pop\n      pop\n      jump\t// out\n        /* \"#utility.yul\":14839:15445   */\n    tag_732:\n        /* \"#utility.yul\":15134:15178   */\n      tag_1142\n        /* \"#utility.yul\":15168:15177   */\n      dup2\n        /* \"#utility.yul\":15160:15166   */\n      dup9\n        /* \"#utility.yul\":15134:15178   */\n      tag_1034\n      jump\t// in\n    tag_1142:\n        /* \"#utility.yul\":15214:15217   */\n      0xa0\n        /* \"#utility.yul\":15209:15211   */\n      0x20\n        /* \"#utility.yul\":15198:15207   */\n      dup3\n        /* \"#utility.yul\":15194:15212   */\n      add\n        /* \"#utility.yul\":15187:15218   */\n      mstore\n        /* \"#utility.yul\":15115:15119   */\n      0x00\n        /* \"#utility.yul\":15235:15309   */\n      tag_1143\n        /* \"#utility.yul\":15304:15307   */\n      0xa0\n        /* \"#utility.yul\":15293:15302   */\n      dup4\n        /* \"#utility.yul\":15289:15308   */\n      add\n        /* \"#utility.yul\":15281:15287   */\n      dup8\n        /* \"#utility.yul\":15273:15279   */\n      dup10\n        /* \"#utility.yul\":15235:15309   */\n      tag_1037\n      jump\t// in\n    tag_1143:\n        /* \"#utility.yul\":15340:15342   */\n      0x40\n        /* \"#utility.yul\":15325:15343   */\n      dup4\n      add\n        /* \"#utility.yul\":15318:15352   */\n      swap6\n      swap1\n      swap6\n      mstore\n      pop\n        /* \"#utility.yul\":15383:15385   */\n      0x60\n        /* \"#utility.yul\":15368:15386   */\n      dup2\n      add\n        /* \"#utility.yul\":15361:15395   */\n      swap3\n      swap1\n      swap3\n      mstore\n        /* \"#utility.yul\":15426:15429   */\n      0x80\n        /* \"#utility.yul\":15411:15430   */\n      swap1\n      swap2\n      add\n        /* \"#utility.yul\":15404:15439   */\n      mstore\n        /* \"#utility.yul\":15227:15309   */\n      swap4\n        /* \"#utility.yul\":14839:15445   */\n      swap3\n      pop\n      pop\n      pop\n      jump\t// out\n        /* \"#utility.yul\":15450:15738   */\n    tag_778:\n        /* \"#utility.yul\":15639:15641   */\n      0x20\n        /* \"#utility.yul\":15628:15637   */\n      dup2\n        /* \"#utility.yul\":15621:15642   */\n      mstore\n        /* \"#utility.yul\":15602:15606   */\n      0x00\n        /* \"#utility.yul\":15659:15732   */\n      tag_1145\n        /* \"#utility.yul\":15728:15730   */\n      0x20\n        /* \"#utility.yul\":15717:15726   */\n      dup4\n        /* \"#utility.yul\":15713:15731   */\n      add\n        /* \"#utility.yul\":15705:15711   */\n      dup5\n        /* \"#utility.yul\":15697:15703   */\n      dup7\n        /* \"#utility.yul\":15659:15732   */\n      tag_1037\n      jump\t// in\n    tag_1145:\n        /* \"#utility.yul\":15651:15732   */\n      swap5\n        /* \"#utility.yul\":15450:15738   */\n      swap4\n      pop\n      pop\n      pop\n      pop\n      jump\t// out\n        /* \"#utility.yul\":15743:15927   */\n    tag_794:\n        /* \"#utility.yul\":15813:15819   */\n      0x00\n        /* \"#utility.yul\":15866:15868   */\n      0x20\n        /* \"#utility.yul\":15854:15863   */\n      dup3\n        /* \"#utility.yul\":15845:15852   */\n      dup5\n        /* \"#utility.yul\":15841:15864   */\n      sub\n        /* \"#utility.yul\":15837:15869   */\n      slt\n        /* \"#utility.yul\":15834:15886   */\n      iszero\n      tag_1147\n      jumpi\n        /* \"#utility.yul\":15882:15883   */\n      0x00\n        /* \"#utility.yul\":15879:15880   */\n      dup1\n        /* \"#utility.yul\":15872:15884   */\n      revert\n        /* \"#utility.yul\":15834:15886   */\n    tag_1147:\n      pop\n        /* \"#utility.yul\":15905:15921   */\n      mload\n      swap2\n        /* \"#utility.yul\":15743:15927   */\n      swap1\n      pop\n      jump\t// out\n        /* \"#utility.yul\":15932:16211   */\n    tag_937:\n        /* \"#utility.yul\":16106:16108   */\n      0x40\n        /* \"#utility.yul\":16091:16109   */\n      dup2\n      add\n        /* \"#utility.yul\":16118:16162   */\n      tag_1149\n        /* \"#utility.yul\":16095:16104   */\n      dup3\n        /* \"#utility.yul\":16144:16150   */\n      dup6\n        /* \"#utility.yul\":16118:16162   */\n      tag_1034\n      jump\t// in\n    tag_1149:\n        /* \"#utility.yul\":16198:16204   */\n      dup3\n        /* \"#utility.yul\":16193:16195   */\n      0x20\n        /* \"#utility.yul\":16182:16191   */\n      dup4\n        /* \"#utility.yul\":16178:16196   */\n      add\n        /* \"#utility.yul\":16171:16205   */\n      mstore\n        /* \"#utility.yul\":15932:16211   */\n      swap4\n      swap3\n      pop\n      pop\n      pop\n      jump\t// out\n        /* \"#utility.yul\":16216:16720   */\n    tag_995:\n        /* \"#utility.yul\":16468:16471   */\n      0xa0\n        /* \"#utility.yul\":16453:16472   */\n      dup2\n      add\n        /* \"#utility.yul\":16481:16525   */\n      tag_1151\n        /* \"#utility.yul\":16457:16466   */\n      dup3\n        /* \"#utility.yul\":16507:16513   */\n      dup9\n        /* \"#utility.yul\":16481:16525   */\n      tag_1034\n      jump\t// in\n    tag_1151:\n        /* \"#utility.yul\":16561:16567   */\n      dup6\n        /* \"#utility.yul\":16556:16558   */\n      0x20\n        /* \"#utility.yul\":16545:16554   */\n      dup4\n        /* \"#utility.yul\":16541:16559   */\n      add\n        /* \"#utility.yul\":16534:16568   */\n      mstore\n        /* \"#utility.yul\":16604:16610   */\n      dup5\n        /* \"#utility.yul\":16599:16601   */\n      0x40\n        /* \"#utility.yul\":16588:16597   */\n      dup4\n        /* \"#utility.yul\":16584:16602   */\n      add\n        /* \"#utility.yul\":16577:16611   */\n      mstore\n        /* \"#utility.yul\":16647:16653   */\n      dup4\n        /* \"#utility.yul\":16642:16644   */\n      0x60\n        /* \"#utility.yul\":16631:16640   */\n      dup4\n        /* \"#utility.yul\":16627:16645   */\n      add\n        /* \"#utility.yul\":16620:16654   */\n      mstore\n        /* \"#utility.yul\":16705:16711   */\n      dup3\n        /* \"#utility.yul\":16698:16712   */\n      iszero\n        /* \"#utility.yul\":16691:16713   */\n      iszero\n        /* \"#utility.yul\":16685:16688   */\n      0x80\n        /* \"#utility.yul\":16674:16683   */\n      dup4\n        /* \"#utility.yul\":16670:16689   */\n      add\n        /* \"#utility.yul\":16663:16714   */\n      mstore\n        /* \"#utility.yul\":16216:16720   */\n      swap7\n      swap6\n      pop\n      pop\n      pop\n      pop\n      pop\n      pop\n      jump\t// out\n        /* \"#utility.yul\":17027:17358   */\n    tag_1021:\n        /* \"#utility.yul\":17132:17141   */\n      0x00\n        /* \"#utility.yul\":17143:17152   */\n      dup1\n        /* \"#utility.yul\":17185:17193   */\n      dup6\n        /* \"#utility.yul\":17173:17183   */\n      dup6\n        /* \"#utility.yul\":17170:17194   */\n      gt\n        /* \"#utility.yul\":17167:17211   */\n      iszero\n      tag_1154\n      jumpi\n        /* \"#utility.yul\":17207:17208   */\n      0x00\n        /* \"#utility.yul\":17204:17205   */\n      dup1\n        /* \"#utility.yul\":17197:17209   */\n      revert\n        /* \"#utility.yul\":17167:17211   */\n    tag_1154:\n        /* \"#utility.yul\":17236:17242   */\n      dup4\n        /* \"#utility.yul\":17226:17234   */\n      dup7\n        /* \"#utility.yul\":17223:17243   */\n      gt\n        /* \"#utility.yul\":17220:17260   */\n      iszero\n      tag_1155\n      jumpi\n        /* \"#utility.yul\":17256:17257   */\n      0x00\n        /* \"#utility.yul\":17253:17254   */\n      dup1\n        /* \"#utility.yul\":17246:17258   */\n      revert\n        /* \"#utility.yul\":17220:17260   */\n    tag_1155:\n      pop\n      pop\n        /* \"#utility.yul\":17282:17305   */\n      dup3\n      add\n      swap4\n        /* \"#utility.yul\":17327:17352   */\n      swap2\n      swap1\n      swap3\n      sub\n      swap2\n      pop\n        /* \"#utility.yul\":17027:17358   */\n      jump\t// out\n        /* \"#utility.yul\":17363:17700   */\n    tag_1023:\n      not(0xffffffffffffffffffffffff)\n        /* \"#utility.yul\":17484:17503   */\n      dup2\n      calldataload\n        /* \"#utility.yul\":17571:17582   */\n      dup2\n      dup2\n      and\n      swap2\n        /* \"#utility.yul\":17602:17604   */\n      0x14\n        /* \"#utility.yul\":17594:17605   */\n      dup6\n      lt\n        /* \"#utility.yul\":17591:17694   */\n      iszero\n      tag_1157\n      jumpi\n        /* \"#utility.yul\":17681:17683   */\n      dup1\n        /* \"#utility.yul\":17675:17677   */\n      dup2\n        /* \"#utility.yul\":17668:17671   */\n      dup7\n        /* \"#utility.yul\":17664:17666   */\n      0x14\n        /* \"#utility.yul\":17660:17672   */\n      sub\n        /* \"#utility.yul\":17657:17658   */\n      0x03\n        /* \"#utility.yul\":17653:17673   */\n      shl\n        /* \"#utility.yul\":17649:17678   */\n      shl\n        /* \"#utility.yul\":17645:17647   */\n      dup4\n        /* \"#utility.yul\":17641:17679   */\n      and\n        /* \"#utility.yul\":17637:17684   */\n      and\n        /* \"#utility.yul\":17628:17684   */\n      swap3\n      pop\n        /* \"#utility.yul\":17591:17694   */\n    tag_1157:\n      pop\n      pop\n        /* \"#utility.yul\":17363:17700   */\n      swap3\n      swap2\n      pop\n      pop\n      jump\t// out\n    stop\n    data_cb864c43dd5d441bb6271f424f11befa622c032dfd374d226e26fbbdb782b8f8 a49807205ce4d355092ef5a8a18f56e8913cf4a201fbe287825b095693c21775\n\n    auxdata: 0xa2646970667358221220ee53b8d6f585b5c6984972e8720e1bc468cd56f09779945ab7aad8275ead360864736f6c63430008190033\n}\n",
    "bytecode": {
      "linkReferences": {},
      "object": "60c060405262ed4e006002556a0422ca8b0a00a42500000060035565048c2739500060045534801561002f575f80fd5b50604051614c16380380614c1683398101604081905261004e91610358565b600180556001600160a01b03808316608052831661007f5760405163d92e233d60e01b815260040160405180910390fd5b600580546001600160a01b038086166a010000000000000000000002600160501b600160f01b031990921691909117909155811660a0525f5b84518110156101fc575f8582815181106100d4576100d4610449565b602002602001015190506100f05f801b8261020660201b60201c565b5061011b7fa49807205ce4d355092ef5a8a18f56e8913cf4a201fbe287825b095693c2177582610206565b506101467f65d7a28e3265b37a6474929f336521b332c1681b933f6cb9f3376673440d862a82610206565b506101717fc806897caf4fd5068191157e44d3988e43139a37e0b97b6793e1ed118414060482610206565b5061019c7ff60566c40710959d8d30b6067ce3c53c757bec78eecb0e46b83c7f8194ffae3782610206565b506101c77f78c90eb9e475048b483a290aee04b5fe48355537c3623c7637b17d3bed71c6ed82610206565b506101f27f241ecf16d79d0f8dbfb92cbc07fe17840425976cf0667f022fe9877caa831b0882610206565b50506001016100b8565b50505050506104b4565b5f828152602081815260408083206001600160a01b038516845290915281205460ff166102a7575f838152602081815260408083206001600160a01b03861684529091529020805460ff1916600117905561025f6102b0565b6001600160a01b0316826001600160a01b0316847f2f8788117e7eff1d82e926ec794901d17c78024a50270940304540a733656f0d60405160405180910390a45060016102aa565b505f5b92915050565b5f6102b96102be565b905090565b5f3660148082108015906102d657506102d633610304565b156102fc576102e936828403815f61045d565b6102f291610484565b60601c9250505090565b339250505090565b5f61030e60805190565b6001600160a01b0316826001600160a01b0316149050919050565b634e487b7160e01b5f52604160045260245ffd5b80516001600160a01b0381168114610353575f80fd5b919050565b5f805f806080858703121561036b575f80fd5b84516001600160401b0380821115610381575f80fd5b818701915087601f830112610394575f80fd5b81516020828211156103a8576103a8610329565b8160051b604051601f19603f830116810181811086821117156103cd576103cd610329565b60405292835281830193508481018201928b8411156103ea575f80fd5b948201945b8386101561040f576104008661033d565b855294820194938201936103ef565b985061041e905089820161033d565b9650505050506104306040860161033d565b915061043e6060860161033d565b905092959194509250565b634e487b7160e01b5f52603260045260245ffd5b5f808585111561046b575f80fd5b83861115610477575f80fd5b5050820193919092039150565b6001600160601b031981358181169160148510156104ac5780818660140360031b1b83161692505b505092915050565b60805160a0516146e66105305f395f81816107d00152818161161c01528181611ddf0152818161209f015281816126470152818161286d01528181612b9201528181612c5f01528181612ec4015281816134e101528181613a140152613b0501525f81816108fc01528181610ae2015261402401526146e65ff3fe608060405260043610610522575f3560e01c80637da0a8771161029f578063bda821e811610170578063e63ab1e9116100d1578063f5f1135011610087578063f6326fb31161006d578063f6326fb314610fb4578063f688bcfb14610fbc578063fd46a17114610fdb575f80fd5b8063f5f1135014610f76578063f5f69af214610f95575f80fd5b8063ec87621c116100b7578063ec87621c14610f08578063ee947a7c14610f3b578063f29b223914610f50575f80fd5b8063e63ab1e914610eaa578063e9fe0c7814610edd575f80fd5b8063da8d5add11610126578063e15e23c11161010c578063e15e23c114610e6c578063e340b78314610e81578063e399067f14610e96575f80fd5b8063da8d5add14610e25578063e043b2b214610e39575f80fd5b8063c771c39011610156578063c771c39014610dc8578063d547741f14610de7578063d830d5cc14610e06575f80fd5b8063bda821e814610d95578063c6d95b7414610da9575f80fd5b806393055c431161021a578063a59aa5a6116101d0578063b2b77ae2116101b6578063b2b77ae214610d43578063b65ba94b14610d61578063b758aeaa14610d76575f80fd5b8063a59aa5a614610ca8578063b2118a8d14610d24575f80fd5b80639ddc3912116102005780639ddc391214610c615780639e657e3314610c76578063a217fddf14610c95575f80fd5b806393055c4314610c2d57806397d9e5b414610c4c575f80fd5b8063899aa9911161026f5780638b713b2e116102555780638b713b2e14610bb75780638dd4928e14610bcc57806391d1485414610beb575f80fd5b8063899aa99114610b8357806389bad0a614610b98575f80fd5b80637da0a87714610ad4578063867d099a14610b06578063885f502914610b25578063886d589d14610b58575f80fd5b80633e413bee116103f35780636068d6cb116103545780636ec239951161030a57806375b238fc116102f057806375b238fc14610a76578063762e1c7314610a9657806376c1d3db14610ab5575f80fd5b80636ec2399514610a3857806372e5539914610a57575f80fd5b80636426be481161033a5780636426be48146109d757806365d5ec96146109f65780636c6ff56c14610a24575f80fd5b80636068d6cb146109b657806364021b13146109cf575f80fd5b806353d6fd59116103a9578063588583a01161038f578063588583a01461092c5780635983b0bd146109695780635e2c19db14610988575f80fd5b806353d6fd59146108c1578063572b6c05146108e0575f80fd5b806347af19aa116103d957806347af19aa146108295780634e43603a1461084857806351fb012d146108a2575f80fd5b80633e413bee146107bf57806341debf1f1461080a575f80fd5b806327175b231161049d5780632f2ff15d1161045357806336568abe1161043957806336568abe1461075d5780633ac439701461077c5780633af32abf14610791575f80fd5b80632f2ff15d146107135780633408567c14610732575f80fd5b80632a5bf6d2116104835780632a5bf6d2146106b35780632aad5edd146106df5780632e1a7d4d146106f4575f80fd5b806327175b231461068a578063275991d21461069f575f80fd5b80630c016ad5116104f25780631c5aeef7116104d85780631c5aeef714610627578063246d47b71461063c578063248a9ca31461065c575f80fd5b80630c016ad5146105ec57806317b516421461061f575f80fd5b806301ffc9a71461052d57806304c68af014610561578063052d9e7e1461059a57806308f43333146105bb575f80fd5b3661052957005b5f80fd5b348015610538575f80fd5b5061054c61054736600461407d565b610ff0565b60405190151581526020015b60405180910390f35b34801561056c575f80fd5b5061058c61057b3660046140c6565b600c6020525f908152604090205481565b604051908152602001610558565b3480156105a5575f80fd5b506105b96105b43660046140ec565b611026565b005b3480156105c6575f80fd5b506105da6105d5366004614107565b61105a565b60405161055896959493929190614163565b3480156105f7575f80fd5b5061058c7ff60566c40710959d8d30b6067ce3c53c757bec78eecb0e46b83c7f8194ffae3781565b6105b96110d0565b348015610632575f80fd5b5061058c60045481565b348015610647575f80fd5b5060055461054c906301000000900460ff1681565b348015610667575f80fd5b5061058c6106763660046141b2565b5f9081526020819052604090206001015490565b348015610695575f80fd5b5061058c60105481565b3480156106aa575f80fd5b506105b96111b4565b3480156106be575f80fd5b506106d26106cd3660046140c6565b6112be565b60405161055891906141c9565b3480156106ea575f80fd5b5061058c60185481565b3480156106ff575f80fd5b506105b961070e3660046141b2565b6113c4565b34801561071e575f80fd5b506105b961072d366004614266565b6117b2565b34801561073d575f80fd5b5061058c61074c3660046140c6565b60096020525f908152604090205481565b348015610768575f80fd5b506105b9610777366004614266565b6117dc565b348015610787575f80fd5b5061058c60145481565b34801561079c575f80fd5b5061054c6107ab3660046140c6565b60076020525f908152604090205460ff1681565b3480156107ca575f80fd5b506107f27f000000000000000000000000000000000000000000000000000000000000000081565b6040516001600160a01b039091168152602001610558565b348015610815575f80fd5b506105b96108243660046142d8565b611824565b348015610834575f80fd5b506105b96108433660046142d8565b611957565b348015610853575f80fd5b506108676108623660046140c6565b611aab565b604080519889526020890197909752958701949094526060860192909252608085015260a084015260c083015260e082015261010001610558565b3480156108ad575f80fd5b5060055461054c9062010000900460ff1681565b3480156108cc575f80fd5b506105b96108db36600461433f565b611cd4565b3480156108eb575f80fd5b5061054c6108fa3660046140c6565b7f00000000000000000000000000000000000000000000000000000000000000006001600160a01b0390811691161490565b348015610937575f80fd5b5060055461095290640100000000900465ffffffffffff1681565b60405165ffffffffffff9091168152602001610558565b348015610974575f80fd5b506105b96109833660046141b2565b611d4a565b348015610993575f80fd5b5061054c6109a23660046140c6565b60086020525f908152604090205460ff1681565b3480156109c1575f80fd5b5060055461054c9060ff1681565b6105b9611edb565b3480156109e2575f80fd5b506105b96109f1366004614374565b611f8b565b348015610a01575f80fd5b5061054c610a103660046140c6565b600d6020525f908152604090205460ff1681565b348015610a2f575f80fd5b506105b961201a565b348015610a43575f80fd5b506105b9610a52366004614107565b61214a565b348015610a62575f80fd5b506105b9610a71366004614390565b6121ed565b348015610a81575f80fd5b5061058c5f8051602061469183398151915281565b348015610aa1575f80fd5b506105b9610ab0366004614107565b612741565b348015610ac0575f80fd5b506105b9610acf3660046141b2565b6127da565b348015610adf575f80fd5b507f00000000000000000000000000000000000000000000000000000000000000006107f2565b348015610b11575f80fd5b506105b9610b203660046143cf565b61292b565b348015610b30575f80fd5b5061058c7f78c90eb9e475048b483a290aee04b5fe48355537c3623c7637b17d3bed71c6ed81565b348015610b63575f80fd5b5061058c610b723660046140c6565b600b6020525f908152604090205481565b348015610b8e575f80fd5b5061058c600f5481565b348015610ba3575f80fd5b506105b9610bb23660046140c6565b612a6f565b348015610bc2575f80fd5b5061058c60115481565b348015610bd7575f80fd5b506105b9610be6366004614107565b612b24565b348015610bf6575f80fd5b5061054c610c05366004614266565b5f918252602082815260408084206001600160a01b0393909316845291905290205460ff1690565b348015610c38575f80fd5b506105b9610c473660046141b2565b612d2a565b348015610c57575f80fd5b5061058c60155481565b348015610c6c575f80fd5b5061058c60035481565b348015610c81575f80fd5b506107f2610c903660046141b2565b612e89565b348015610ca0575f80fd5b5061058c5f81565b348015610cb3575f80fd5b50610cbc612eb1565b604080519e8f5260208f019d909d529b8d019a909a5260608c019890985260808b019690965260a08a019490945260c089019290925260e08801526101008701526101208601526101408501526101608401526101808301526101a08201526101c001610558565b348015610d2f575f80fd5b506105b9610d3e36600461441e565b612fab565b348015610d4e575f80fd5b5060055461054c90610100900460ff1681565b348015610d6c575f80fd5b5061058c60135481565b348015610d81575f80fd5b506105b9610d903660046142d8565b6130ad565b348015610da0575f80fd5b506105b96131d3565b348015610db4575f80fd5b506105b9610dc3366004614107565b6132c6565b348015610dd3575f80fd5b506105b9610de23660046141b2565b613425565b348015610df2575f80fd5b506105b9610e01366004614266565b613471565b348015610e11575f80fd5b506105b9610e203660046141b2565b613495565b348015610e30575f80fd5b506105b96135f3565b348015610e44575f80fd5b5061058c7fc806897caf4fd5068191157e44d3988e43139a37e0b97b6793e1ed118414060481565b348015610e77575f80fd5b5061058c60165481565b348015610e8c575f80fd5b5061058c60125481565b348015610ea1575f80fd5b506105b96136a4565b348015610eb5575f80fd5b5061058c7f65d7a28e3265b37a6474929f336521b332c1681b933f6cb9f3376673440d862a81565b348015610ee8575f80fd5b5061058c610ef73660046140c6565b600a6020525f908152604090205481565b348015610f13575f80fd5b5061058c7f241ecf16d79d0f8dbfb92cbc07fe17840425976cf0667f022fe9877caa831b0881565b348015610f46575f80fd5b5061058c60025481565b348015610f5b575f80fd5b506005546107f290600160501b90046001600160a01b031681565b348015610f81575f80fd5b506105b9610f903660046143cf565b6137bf565b348015610fa0575f80fd5b506105b9610faf366004614457565b61386e565b6105b96138de565b348015610fc7575f80fd5b506105b9610fd63660046141b2565b6139e6565b348015610fe6575f80fd5b5061058c60175481565b5f6001600160e01b03198216637965db0b60e01b148061102057506301ffc9a760e01b6001600160e01b03198316145b92915050565b5f8051602061469183398151915261103d81613bd4565b5060058054911515620100000262ff000019909216919091179055565b6006602052815f5260405f208181548110611073575f80fd5b5f918252602090912060029091020180546001909101546001600160601b038083169450600160601b830416925065ffffffffffff600160c01b90920482169181169060ff66010000000000008204811691600160381b90041686565b7f241ecf16d79d0f8dbfb92cbc07fe17840425976cf0667f022fe9877caa831b086110fa81613bd4565b611102613be5565b345f036111225760405163162908e360e11b815260040160405180910390fd5b60175434111561114557604051630471131160e21b815260040160405180910390fd5b3460175f828254611156919061448a565b909155506111649050613c0f565b6001600160a01b03167f1b0029d3a4003762f16d0dc71199ce167b1d4bf00c5b97a3e28f613e921d65405f34426040516111a09392919061449d565b60405180910390a26111b160018055565b50565b6111bc613be5565b5f6111c5613c0f565b6001600160a01b0381165f9081526009602052604081205491925081900361120057604051633bd65a7b60e21b815260040160405180910390fd5b6001600160a01b0382165f908152600960205260408120819055611228908390836001613c1d565b8060155f82825461123991906144bc565b90915550506001600160a01b0382165f908152600b6020526040812080548392906112659084906144bc565b92505081905550816001600160a01b03167f997d2ec09b086de73d509bbc4ad2b52fd7e2338024464bede93a41abd6ccdc385f83426040516112a99392919061449d565b60405180910390a250506112bc60018055565b565b6001600160a01b0381165f908152600660209081526040808320805482518185028101850190935280835260609492939192909184015b828210156113b9575f8481526020908190206040805160c0810182526002860290920180546001600160601b038082168552600160601b82041694840194909452600160c01b90930465ffffffffffff90811691830191909152600180840154918216606084015291929160808401916601000000000000900460ff16908111156113825761138261412f565b60018111156113935761139361412f565b8152600191820154600160381b900460ff166020918201529183529290920191016112f5565b505050509050919050565b6113cc613be5565b600554610100900460ff16156113f557604051636022a9e760e01b815260040160405180910390fd5b5f6113fe613c0f565b6001600160a01b0381165f908152600660205260408120805492935090918490811061142c5761142c6144cf565b5f9182526020909120600160029092020181810154909250600160381b9004161561146a57604051636507689f60e01b815260040160405180910390fd5b60025481546114889190600160c01b900465ffffffffffff166144bc565b421080156114a257506001810154600160381b9004600216155b80156114d157506005546301000000900460ff1680156114cf57506001810154600160381b900460041615155b155b156114ef5760405163f38b9b5b60e01b815260040160405180910390fd5b6001818101805467ff00ffffffffffff198116600160381b9182900460ff169093170265ffffffffffff1916919091174265ffffffffffff1617905580546001600160601b0380821691600160601b9004165f6001848101546601000000000000900460ff16908111156115655761156561412f565b036115fc578160115f82825461157b91906144bc565b909155505f90506001600160a01b03851661159683856144bc565b6040515f81818185875af1925050503d805f81146115cf576040519150601f19603f3d011682016040523d82523d5f602084013e6115d4565b606091505b50509050806115f6576040516312171d8360e31b815260040160405180910390fd5b506116ba565b8160125f82825461160d91906144bc565b90915550506001600160a01b037f00000000000000000000000000000000000000000000000000000000000000001663a9059cbb8561164c84866144bc565b6040516001600160e01b031960e085901b1681526001600160a01b03909216600483015260248201526044016020604051808303815f875af1158015611694573d5f803e3d5ffd5b505050506040513d601f19601f820116820180604052508101906116b891906144e3565b505b6001600160a01b0384165f9081526008602052604090205460ff1661174957600e805460018082019092557fbb7b4a454dc3493923482f07822329ed19e8244eff582cc204f8554c3620c3fd01805473ffffffffffffffffffffffffffffffffffffffff19166001600160a01b0387169081179091555f908152600860205260409020805460ff191690911790555b60018301546040516001600160a01b038616917fcb034b37ef3764745c35bafecd525367bcf312e9010239e6aeebbe6bcf57727f9161179d916601000000000000900460ff16908690869042908c906144fe565b60405180910390a2505050506111b160018055565b5f828152602081905260409020600101546117cc81613bd4565b6117d68383613e76565b50505050565b6117e4613c0f565b6001600160a01b0316816001600160a01b0316146118155760405163334bd91960e11b815260040160405180910390fd5b61181f8282613f1e565b505050565b5f8051602061469183398151915261183b81613bd4565b83821461185b5760405163512509d360e11b815260040160405180910390fd5b5f805b85811015611915575f858583818110611879576118796144cf565b905060200201359050805f036118a25760405163162908e360e11b815260040160405180910390fd5b80600a5f8a8a868181106118b8576118b86144cf565b90506020020160208101906118cd91906140c6565b6001600160a01b03166001600160a01b031681526020019081526020015f205f8282546118fa91906144bc565b9091555061190a905081846144bc565b92505060010161185e565b5060145481111561193957604051632f37549d60e01b815260040160405180910390fd5b8060145f82825461194a919061448a565b9091555050505050505050565b5f8051602061469183398151915261196e81613bd4565b83821461198e5760405163512509d360e11b815260040160405180910390fd5b5f5b84811015611aa3578383828181106119aa576119aa6144cf565b90506020020160208101906119bf91906140ec565b60075f8888858181106119d4576119d46144cf565b90506020020160208101906119e991906140c6565b6001600160a01b0316815260208101919091526040015f20805460ff1916911515919091179055858582818110611a2257611a226144cf565b9050602002016020810190611a3791906140c6565b6001600160a01b03167f995d2434d36c9bceaab42c56efe51e8ffe41fd11cabefd9e2cb83700d8b2035e858584818110611a7357611a736144cf565b9050602002016020810190611a8891906140ec565b604051901515815260200160405180910390a2600101611990565b505050505050565b6001600160a01b0381165f9081526006602052604081208190819081908190819081908190815b8154811015611c9b575f828281548110611aee57611aee6144cf565b5f9182526020918290206040805160c081018252600290930290910180546001600160601b038082168552600160601b8204169484019490945265ffffffffffff600160c01b909404841691830191909152600180820154938416606084015291929091608084019160ff66010000000000009091041690811115611b7557611b7561412f565b6001811115611b8657611b8661412f565b815260019190910154600160381b900460ff1660209091015260a081015190915060081615155f82608001516001811115611bc357611bc361412f565b03611c2f578151611bdd906001600160601b03168d6144bc565b9b50611bef8260a00151600116151590565b15611c0c578151611c09906001600160601b03168b6144bc565b99505b8015611c2a578151611c27906001600160601b0316876144bc565b95505b611c91565b8151611c44906001600160601b03168c6144bc565b9a50611c568260a00151600116151590565b15611c73578151611c70906001600160601b03168a6144bc565b98505b8015611c91578151611c8e906001600160601b0316866144bc565b94505b5050600101611ad2565b50506001600160a01b039098165f90815260096020908152604080832054600a9092529091205497999698959794969095919350909150565b5f80516020614691833981519152611ceb81613bd4565b6001600160a01b0383165f81815260076020908152604091829020805460ff191686151590811790915591519182527f995d2434d36c9bceaab42c56efe51e8ffe41fd11cabefd9e2cb83700d8b2035e910160405180910390a2505050565b7f241ecf16d79d0f8dbfb92cbc07fe17840425976cf0667f022fe9877caa831b08611d7481613bd4565b611d7c613be5565b815f03611d9c5760405163162908e360e11b815260040160405180910390fd5b601854821115611dbf57604051630471131160e21b815260040160405180910390fd5b8160185f828254611dd0919061448a565b90915550506001600160a01b037f0000000000000000000000000000000000000000000000000000000000000000166323b872dd611e0c613c0f565b6040516001600160e01b031960e084901b1681526001600160a01b039091166004820152306024820152604481018590526064016020604051808303815f875af1158015611e5c573d5f803e3d5ffd5b505050506040513d601f19601f82011682018060405250810190611e8091906144e3565b50611e89613c0f565b6001600160a01b03167f1b0029d3a4003762f16d0dc71199ce167b1d4bf00c5b97a3e28f613e921d654060018442604051611ec69392919061449d565b60405180910390a2611ed760018055565b5050565b7ff60566c40710959d8d30b6067ce3c53c757bec78eecb0e46b83c7f8194ffae37611f0581613bd4565b345f03611f255760405163162908e360e11b815260040160405180910390fd5b3460135f828254611f3691906144bc565b90915550611f449050613c0f565b6001600160a01b03167f8bafec96fcffb6f12596b4635c76397b7bc1f363b22c49c13136b63677323dcc5f3442604051611f809392919061449d565b60405180910390a250565b7f65d7a28e3265b37a6474929f336521b332c1681b933f6cb9f3376673440d862a611fb581613bd4565b60058054831515610100810261ff001987151590811661ffff1990941693909317179092556040805191825260208201929092527fac1664632d6278432aa05a6afc0aa83e5ea08e8df9a1436736daa5d6283211c091015b60405180910390a1505050565b612022613be5565b5f61202b613c0f565b6001600160a01b0381165f908152600a602052604081205491925081900361206657604051633bd65a7b60e21b815260040160405180910390fd5b6001600160a01b038281165f818152600a6020526040808220919091555163a9059cbb60e01b81526004810191909152602481018390527f00000000000000000000000000000000000000000000000000000000000000009091169063a9059cbb906044016020604051808303815f875af11580156120e7573d5f803e3d5ffd5b505050506040513d601f19601f8201168201806040525081019061210b91906144e3565b50816001600160a01b03167f6914793c7a82461acec66c7de7fdbbbf1f825c26bc2fe939b61f0e4f8964c2b5600183426040516112a99392919061449d565b5f8051602061469183398151915261216181613bd4565b815f036121815760405163162908e360e11b815260040160405180910390fd5b6013548211156121a457604051632f37549d60e01b815260040160405180910390fd5b6001600160a01b0383165f90815260096020526040812080548492906121cb9084906144bc565b925050819055508160135f8282546121e3919061448a565b9091555050505050565b6121f5613be5565b600554610100900460ff161561221e57604051636022a9e760e01b815260040160405180910390fd5b5f612227613c0f565b90505f805f805f805f5b88811015612482575f8a8a8381811061224c5761224c6144cf565b9050602002013590505f60065f8b6001600160a01b03166001600160a01b031681526020019081526020015f20828154811061228a5761228a6144cf565b5f9182526020909120600160029092020181810154909250600160381b900416156122c857604051636507689f60e01b815260040160405180910390fd5b60025481546122e69190600160c01b900465ffffffffffff166144bc565b4210801561230057506001810154600160381b9004600216155b801561232f57506005546301000000900460ff16801561232d57506001810154600160381b900460041615155b155b1561234d5760405163f38b9b5b60e01b815260040160405180910390fd5b6001818101805467ff00ffffffffffff198116600160381b9182900460ff169093170265ffffffffffff1916919091174265ffffffffffff1617905580546001600160601b0380821691600160601b9004165f6001848101546601000000000000900460ff16908111156123c3576123c361412f565b036123f1576123d282886144bc565b96506123de828c6144bc565b9a506123ea818b6144bc565b9950612416565b6123fb82876144bc565b9550612407828a6144bc565b985061241381896144bc565b97505b60018301546040516001600160a01b038e16917fcb034b37ef3764745c35bafecd525367bcf312e9010239e6aeebbe6bcf57727f9161246a916601000000000000900460ff16908690869042908b906144fe565b60405180910390a25050600190920191506122319050565b5081156124a0578160115f82825461249a91906144bc565b90915550505b80156124bd578060125f8282546124b791906144bc565b90915550505b6001600160a01b0387165f9081526008602052604090205460ff161580156124e457508715155b1561255957600e805460018082019092557fbb7b4a454dc3493923482f07822329ed19e8244eff582cc204f8554c3620c3fd01805473ffffffffffffffffffffffffffffffffffffffff19166001600160a01b038a169081179091555f908152600860205260409020805460ff191690911790555b5f61256486886144bc565b111561262c575f6001600160a01b03881661257f87896144bc565b6040515f81818185875af1925050503d805f81146125b8576040519150601f19603f3d011682016040523d82523d5f602084013e6125bd565b606091505b50509050806125df576040516312171d8360e31b815260040160405180910390fd5b876001600160a01b03167fbf06e98fe211a4b82f625232ab1c7a75caea5e0d624bc267578d6f22fce788c35f8c8c8b8b4260405161262296959493929190614577565b60405180910390a2505b5f61263784866144bc565b1115612731576001600160a01b037f00000000000000000000000000000000000000000000000000000000000000001663a9059cbb8861267786886144bc565b6040516001600160e01b031960e085901b1681526001600160a01b03909216600483015260248201526044016020604051808303815f875af11580156126bf573d5f803e3d5ffd5b505050506040513d601f19601f820116820180604052508101906126e391906144e3565b50866001600160a01b03167fbf06e98fe211a4b82f625232ab1c7a75caea5e0d624bc267578d6f22fce788c360018b8b88884260405161272896959493929190614577565b60405180910390a25b50505050505050611ed760018055565b5f8051602061469183398151915261275881613bd4565b815f036127785760405163162908e360e11b815260040160405180910390fd5b60145482111561279b57604051632f37549d60e01b815260040160405180910390fd5b6001600160a01b0383165f908152600a6020526040812080548492906127c29084906144bc565b925050819055508160145f8282546121e3919061448a565b7f78c90eb9e475048b483a290aee04b5fe48355537c3623c7637b17d3bed71c6ed61280481613bd4565b61280c613be5565b600554600160501b90046001600160a01b031661283c5760405163d92e233d60e01b815260040160405180910390fd5b60055460405163a9059cbb60e01b8152600160501b9091046001600160a01b039081166004830152602482018490527f0000000000000000000000000000000000000000000000000000000000000000169063a9059cbb906044016020604051808303815f875af11580156128b3573d5f803e3d5ffd5b505050506040513d601f19601f820116820180604052508101906128d791906144e3565b506005600a9054906101000a90046001600160a01b03166001600160a01b03167f9adbdc797aca3ce26a722598f00149b2328fd124444e6d0b10c4bdc7cfc3819660018442604051611ec69392919061449d565b7fc806897caf4fd5068191157e44d3988e43139a37e0b97b6793e1ed118414060461295581613bd4565b5f5b82811015612a25576001600160a01b0385165f908152600660205260408120858584818110612988576129886144cf565b905060200201358154811061299f5761299f6144cf565b5f9182526020909120600160029092020181810154909250600160381b9004161515806129d957506001810154600160381b900460021615155b156129f75760405163181821bd60e11b815260040160405180910390fd5b6001908101805467ff00000000000000198116600160381b9182900460ff1660021790910217905501612957565b50836001600160a01b03167f8b655a966f162e1d3686ea25cd61682331984ab5662b451deff96f12d716f45b8484604051612a619291906145b5565b60405180910390a250505050565b5f80516020614691833981519152612a8681613bd4565b6001600160a01b038216612aad5760405163d92e233d60e01b815260040160405180910390fd5b600580547fffff0000000000000000000000000000000000000000ffffffffffffffffffff16600160501b6001600160a01b038516908102919091179091556040519081527f1d6240e71a77c9e9d07d1d6ecbb9ea4274fcc8bc19adc5b05a3548ac7e40e189906020015b60405180910390a15050565b7f241ecf16d79d0f8dbfb92cbc07fe17840425976cf0667f022fe9877caa831b08612b4e81613bd4565b612b56613be5565b6001600160a01b038316612b7d5760405163d92e233d60e01b815260040160405180910390fd5b6040516370a0823160e01b81523060048201527f00000000000000000000000000000000000000000000000000000000000000006001600160a01b0316906370a0823190602401602060405180830381865afa158015612bdf573d5f803e3d5ffd5b505050506040513d601f19601f82011682018060405250810190612c0391906145d0565b821115612c2357604051631e9acf1760e31b815260040160405180910390fd5b8160185f828254612c3491906144bc565b909155505060405163a9059cbb60e01b81526001600160a01b038481166004830152602482018490527f0000000000000000000000000000000000000000000000000000000000000000169063a9059cbb906044016020604051808303815f875af1158015612ca5573d5f803e3d5ffd5b505050506040513d601f19601f82011682018060405250810190612cc991906144e3565b50826001600160a01b0316612cdc613c0f565b6001600160a01b03167f8d4f9c9a6da9172da9a02229d92e4af088c62953986a74048d010260b197def360018542604051612d199392919061449d565b60405180910390a361181f60018055565b7f78c90eb9e475048b483a290aee04b5fe48355537c3623c7637b17d3bed71c6ed612d5481613bd4565b612d5c613be5565b600554600160501b90046001600160a01b0316612d8c5760405163d92e233d60e01b815260040160405180910390fd5b47821115612dad57604051631e9acf1760e31b815260040160405180910390fd5b6005546040515f91600160501b90046001600160a01b03169084908381818185875af1925050503d805f8114612dfe576040519150601f19603f3d011682016040523d82523d5f602084013e612e03565b606091505b5050905080612e25576040516312171d8360e31b815260040160405180910390fd5b6005600a9054906101000a90046001600160a01b03166001600160a01b03167f9adbdc797aca3ce26a722598f00149b2328fd124444e6d0b10c4bdc7cfc381965f8542604051612e779392919061449d565b60405180910390a250611ed760018055565b600e8181548110612e98575f80fd5b5f918252602090912001546001600160a01b0316905081565b5f805f805f805f805f805f805f80479d507f00000000000000000000000000000000000000000000000000000000000000006001600160a01b03166370a08231306040518263ffffffff1660e01b8152600401612f1d91906001600160a01b0391909116815260200190565b602060405180830381865afa158015612f38573d5f803e3d5ffd5b505050506040513d601f19601f82011682018060405250810190612f5c91906145d0565b9c50600f549b506010549a50601154995060125498506013549750601454965060155495506016549450601754935060185492505f9150600e805490509050909192939495969798999a9b9c9d565b5f80516020614691833981519152612fc281613bd4565b6001600160a01b038316612fe95760405163d92e233d60e01b815260040160405180910390fd5b60405163a9059cbb60e01b81526001600160a01b0384811660048301526024820184905285169063a9059cbb906044016020604051808303815f875af1158015613035573d5f803e3d5ffd5b505050506040513d601f19601f8201168201806040525081019061305991906144e3565b50826001600160a01b0316846001600160a01b03167f8bbfbb5d7fcacf6fc74005cdede0635561638507f576c95f7f294c22141be2e58460405161309f91815260200190565b60405180910390a350505050565b5f805160206146918339815191526130c481613bd4565b8382146130e45760405163512509d360e11b815260040160405180910390fd5b5f805b8581101561319e575f858583818110613102576131026144cf565b905060200201359050805f0361312b5760405163162908e360e11b815260040160405180910390fd5b8060095f8a8a86818110613141576131416144cf565b905060200201602081019061315691906140c6565b6001600160a01b03166001600160a01b031681526020019081526020015f205f82825461318391906144bc565b90915550613193905081846144bc565b9250506001016130e7565b506013548111156131c257604051632f37549d60e01b815260040160405180910390fd5b8060135f82825461194a919061448a565b6131db613be5565b5f6131e4613c0f565b6001600160a01b0381165f908152600a602052604081205491925081900361321f57604051633bd65a7b60e21b815260040160405180910390fd5b6001600160a01b0382165f908152600a60205260408120556132448260018381613c1d565b8060165f82825461325591906144bc565b90915550506001600160a01b0382165f908152600c6020526040812080548392906132819084906144bc565b92505081905550816001600160a01b03167f997d2ec09b086de73d509bbc4ad2b52fd7e2338024464bede93a41abd6ccdc38600183426040516112a99392919061449d565b7f241ecf16d79d0f8dbfb92cbc07fe17840425976cf0667f022fe9877caa831b086132f081613bd4565b6132f8613be5565b6001600160a01b03831661331f5760405163d92e233d60e01b815260040160405180910390fd5b4782111561334057604051631e9acf1760e31b815260040160405180910390fd5b8160175f82825461335191906144bc565b90915550506040515f906001600160a01b0385169084908381818185875af1925050503d805f811461339e576040519150601f19603f3d011682016040523d82523d5f602084013e6133a3565b606091505b50509050806133c5576040516312171d8360e31b815260040160405180910390fd5b836001600160a01b03166133d7613c0f565b6001600160a01b03167f8d4f9c9a6da9172da9a02229d92e4af088c62953986a74048d010260b197def35f86426040516134139392919061449d565b60405180910390a35061181f60018055565b5f8051602061469183398151915261343c81613bd4565b60028290556040518281527fc5e00a325524bc148ddc05bb642b804e9ae1dfc670c217ed3c4c6595f7427ef490602001612b18565b5f8281526020819052604090206001015461348b81613bd4565b6117d68383613f1e565b7ff60566c40710959d8d30b6067ce3c53c757bec78eecb0e46b83c7f8194ffae376134bf81613bd4565b815f036134df5760405163162908e360e11b815260040160405180910390fd5b7f00000000000000000000000000000000000000000000000000000000000000006001600160a01b03166323b872dd613516613c0f565b6040516001600160e01b031960e084901b1681526001600160a01b039091166004820152306024820152604481018590526064016020604051808303815f875af1158015613566573d5f803e3d5ffd5b505050506040513d601f19601f8201168201806040525081019061358a91906144e3565b508160145f82825461359c91906144bc565b909155506135aa9050613c0f565b6001600160a01b03167f8bafec96fcffb6f12596b4635c76397b7bc1f363b22c49c13136b63677323dcc600184426040516135e79392919061449d565b60405180910390a25050565b5f8051602061469183398151915261360a81613bd4565b6005546301000000900460ff16156136355760405163ae7fe58960e01b815260040160405180910390fd5b6005805465ffffffffffff429081166401000000000269ffffffffffffff00000019909216919091176301000000179091556040517f2388ceaed48d21bd0802856df41a22705f9046a67a817a047352aa3bbfe5c5d1916136999190815260200190565b60405180910390a150565b6136ac613be5565b5f6136b5613c0f565b6001600160a01b0381165f908152600960205260408120549192508190036136f057604051633bd65a7b60e21b815260040160405180910390fd5b6001600160a01b0382165f818152600960205260408082208290555190919083908381818185875af1925050503d805f8114613747576040519150601f19603f3d011682016040523d82523d5f602084013e61374c565b606091505b505090508061376e576040516312171d8360e31b815260040160405180910390fd5b826001600160a01b03167f6914793c7a82461acec66c7de7fdbbbf1f825c26bc2fe939b61f0e4f8964c2b55f84426040516137ab9392919061449d565b60405180910390a25050506112bc60018055565b5f805160206146918339815191526137d681613bd4565b5f5b82811015613867576001600160a01b0385165f90815260066020526040902060049085858481811061380c5761380c6144cf565b9050602002013581548110613823576138236144cf565b5f918252602090912060016002909202018101805460ff938416600160381b808304959095161790930267ff000000000000001990931692909217909155016137d8565b5050505050565b5f8051602061469183398151915261388581613bd4565b5f8360018111156138985761389861412f565b036138a75760038290556138ad565b60048290555b7f5d7976bccd4b396c1a1a0020032e62bf8a381bcffc61e69a13ea61761b757218838360405161200d9291906145e7565b6138e6613be5565b60055460ff161561390a5760405163deeb694360e01b815260040160405180910390fd5b345f81900361392c5760405163162908e360e11b815260040160405180910390fd5b60035481600f5461393d91906144bc565b111561395c57604051636bf4c8e960e11b815260040160405180910390fd5b60055462010000900460ff168015613998575060075f61397a613c0f565b6001600160a01b0316815260208101919091526040015f205460ff16155b156139b657604051630b094f2760e31b815260040160405180910390fd5b6139c96139c1613c0f565b5f835f613c1d565b80600f5f8282546139da91906144bc565b90915550506001805550565b6139ee613be5565b60055460ff1615613a125760405163deeb694360e01b815260040160405180910390fd5b7f00000000000000000000000000000000000000000000000000000000000000006001600160a01b0316613a595760405163d92e233d60e01b815260040160405180910390fd5b805f03613a795760405163162908e360e11b815260040160405180910390fd5b60045481601054613a8a91906144bc565b1115613aa957604051636bf4c8e960e11b815260040160405180910390fd5b60055462010000900460ff168015613ae5575060075f613ac7613c0f565b6001600160a01b0316815260208101919091526040015f205460ff16155b15613b0357604051630b094f2760e31b815260040160405180910390fd5b7f00000000000000000000000000000000000000000000000000000000000000006001600160a01b03166323b872dd613b3a613c0f565b6040516001600160e01b031960e084901b1681526001600160a01b039091166004820152306024820152604481018490526064016020604051808303815f875af1158015613b8a573d5f803e3d5ffd5b505050506040513d601f19601f82011682018060405250810190613bae91906144e3565b50613bc3613bba613c0f565b6001835f613c1d565b8060105f8282546139da91906144bc565b6111b181613be0613c0f565b613fbd565b600260015403613c0857604051633ee5aeb560e01b815260040160405180910390fd5b6002600155565b5f613c18614013565b905090565b5f8115613c28576008175b60065f866001600160a01b03166001600160a01b031681526020019081526020015f206040518060c00160405280856001600160601b031681526020015f6001600160601b031681526020014265ffffffffffff1681526020015f65ffffffffffff168152602001866001811115613ca257613ca261412f565b815260ff84166020918201528254600181810185555f948552938290208351600290920201805492840151604085015165ffffffffffff908116600160c01b027fffff000000000000ffffffffffffffffffffffffffffffffffffffffffffffff6001600160601b03938416600160601b027fffffffffffffffff00000000000000000000000000000000000000000000000090971693909516929092179490941792909216919091178155606083015181850180549190931665ffffffffffff19821681178455608085015194959294939266ffffffffffffff1990921617906601000000000000908490811115613d9d57613d9d61412f565b021790555060a091909101516001909101805467ff000000000000001916600160381b60ff938416021790556001600160a01b0386165f908152600d602052604090205416613e09576001600160a01b0385165f908152600d60205260409020805460ff191660011790555b6001600160a01b0385165f818152600660205260409020547f48916ac7f9777648255ab8645729ff3b5d20aa412a40fe81dac2433522eaa05890869086904290613e559060019061448a565b87604051613e67959493929190614602565b60405180910390a25050505050565b5f828152602081815260408083206001600160a01b038516845290915281205460ff16613f17575f838152602081815260408083206001600160a01b03861684529091529020805460ff19166001179055613ecf613c0f565b6001600160a01b0316826001600160a01b0316847f2f8788117e7eff1d82e926ec794901d17c78024a50270940304540a733656f0d60405160405180910390a4506001611020565b505f611020565b5f828152602081815260408083206001600160a01b038516845290915281205460ff1615613f17575f838152602081815260408083206001600160a01b03861684529091529020805460ff19169055613f75613c0f565b6001600160a01b0316826001600160a01b0316847ff6391f5c32d9c69d2a47ea670b442974b53935d1edc7fd64eb21e047a839171b60405160405180910390a4506001611020565b5f828152602081815260408083206001600160a01b038516845290915290205460ff16611ed75760405163e2517d3f60e01b81526001600160a01b03821660048201526024810183905260440160405180910390fd5b5f36601480821080159061404f57507f00000000000000000000000000000000000000000000000000000000000000006001600160a01b031633145b156140755761406236828403815f614634565b61406b9161465b565b60601c9250505090565b339250505090565b5f6020828403121561408d575f80fd5b81356001600160e01b0319811681146140a4575f80fd5b9392505050565b80356001600160a01b03811681146140c1575f80fd5b919050565b5f602082840312156140d6575f80fd5b6140a4826140ab565b80151581146111b1575f80fd5b5f602082840312156140fc575f80fd5b81356140a4816140df565b5f8060408385031215614118575f80fd5b614121836140ab565b946020939093013593505050565b634e487b7160e01b5f52602160045260245ffd5b6002811061415f57634e487b7160e01b5f52602160045260245ffd5b9052565b6001600160601b0387811682528616602082015265ffffffffffff85811660408301528416606082015260c0810161419e6080830185614143565b60ff831660a0830152979650505050505050565b5f602082840312156141c2575f80fd5b5035919050565b602080825282518282018190525f919060409081850190868401855b8281101561425957815180516001600160601b0390811686528782015116878601528581015165ffffffffffff908116878701526060808301519091169086015260808082015161423882880182614143565b505060a09081015160ff169085015260c090930192908501906001016141e5565b5091979650505050505050565b5f8060408385031215614277575f80fd5b82359150614287602084016140ab565b90509250929050565b5f8083601f8401126142a0575f80fd5b50813567ffffffffffffffff8111156142b7575f80fd5b6020830191508360208260051b85010111156142d1575f80fd5b9250929050565b5f805f80604085870312156142eb575f80fd5b843567ffffffffffffffff80821115614302575f80fd5b61430e88838901614290565b90965094506020870135915080821115614326575f80fd5b5061433387828801614290565b95989497509550505050565b5f8060408385031215614350575f80fd5b614359836140ab565b91506020830135614369816140df565b809150509250929050565b5f8060408385031215614385575f80fd5b8235614359816140df565b5f80602083850312156143a1575f80fd5b823567ffffffffffffffff8111156143b7575f80fd5b6143c385828601614290565b90969095509350505050565b5f805f604084860312156143e1575f80fd5b6143ea846140ab565b9250602084013567ffffffffffffffff811115614405575f80fd5b61441186828701614290565b9497909650939450505050565b5f805f60608486031215614430575f80fd5b614439846140ab565b9250614447602085016140ab565b9150604084013590509250925092565b5f8060408385031215614468575f80fd5b823560028110614121575f80fd5b634e487b7160e01b5f52601160045260245ffd5b8181038181111561102057611020614476565b606081016144ab8286614143565b602082019390935260400152919050565b8082018082111561102057611020614476565b634e487b7160e01b5f52603260045260245ffd5b5f602082840312156144f3575f80fd5b81516140a4816140df565b60a0810161450c8288614143565b8560208301528460408301528360608301528260808301529695505050505050565b8183525f7f07ffffffffffffffffffffffffffffffffffffffffffffffffffffffffffffff83111561455e575f80fd5b8260051b80836020870137939093016020019392505050565b6145818188614143565b60a060208201525f61459760a08301878961452e565b60408301959095525060608101929092526080909101529392505050565b602081525f6145c860208301848661452e565b949350505050565b5f602082840312156145e0575f80fd5b5051919050565b604081016145f58285614143565b8260208301529392505050565b60a081016146108288614143565b85602083015284604083015283606083015282151560808301529695505050505050565b5f8085851115614642575f80fd5b8386111561464e575f80fd5b5050820193919092039150565b6bffffffffffffffffffffffff1981358181169160148510156146885780818660140360031b1b83161692505b50509291505056fea49807205ce4d355092ef5a8a18f56e8913cf4a201fbe287825b095693c21775a2646970667358221220ee53b8d6f585b5c6984972e8720e1bc468cd56f09779945ab7aad8275ead360864736f6c63430008190033",
      "opcodes": "PUSH1 0xC0 PUSH1 0x40 MSTORE PUSH3 0xED4E00 PUSH1 0x2 SSTORE PUSH11 0x422CA8B0A00A425000000 PUSH1 0x3 SSTORE PUSH6 0x48C27395000 PUSH1 0x4 SSTORE CALLVALUE DUP1 ISZERO PUSH2 0x2F JUMPI PUSH0 DUP1 REVERT JUMPDEST POP PUSH1 0x40 MLOAD PUSH2 0x4C16 CODESIZE SUB DUP1 PUSH2 0x4C16 DUP4 CODECOPY DUP2 ADD PUSH1 0x40 DUP2 SWAP1 MSTORE PUSH2 0x4E SWAP2 PUSH2 0x358 JUMP JUMPDEST PUSH1 0x1 DUP1 SSTORE PUSH1 0x1 PUSH1 0x1 PUSH1 0xA0 SHL SUB DUP1 DUP4 AND PUSH1 0x80 MSTORE DUP4 AND PUSH2 0x7F JUMPI PUSH1 0x40 MLOAD PUSH4 0xD92E233D PUSH1 0xE0 SHL DUP2 MSTORE PUSH1 0x4 ADD PUSH1 0x40 MLOAD DUP1 SWAP2 SUB SWAP1 REVERT JUMPDEST PUSH1 0x5 DUP1 SLOAD PUSH1 0x1 PUSH1 0x1 PUSH1 0xA0 SHL SUB DUP1 DUP7 AND PUSH11 0x100000000000000000000 MUL PUSH1 0x1 PUSH1 0x50 SHL PUSH1 0x1 PUSH1 0xF0 SHL SUB NOT SWAP1 SWAP3 AND SWAP2 SWAP1 SWAP2 OR SWAP1 SWAP2 SSTORE DUP2 AND PUSH1 0xA0 MSTORE PUSH0 JUMPDEST DUP5 MLOAD DUP2 LT ISZERO PUSH2 0x1FC JUMPI PUSH0 DUP6 DUP3 DUP2 MLOAD DUP2 LT PUSH2 0xD4 JUMPI PUSH2 0xD4 PUSH2 0x449 JUMP JUMPDEST PUSH1 0x20 MUL PUSH1 0x20 ADD ADD MLOAD SWAP1 POP PUSH2 0xF0 PUSH0 DUP1 SHL DUP3 PUSH2 0x206 PUSH1 0x20 SHL PUSH1 0x20 SHR JUMP JUMPDEST POP PUSH2 0x11B PUSH32 0xA49807205CE4D355092EF5A8A18F56E8913CF4A201FBE287825B095693C21775 DUP3 PUSH2 0x206 JUMP JUMPDEST POP PUSH2 0x146 PUSH32 0x65D7A28E3265B37A6474929F336521B332C1681B933F6CB9F3376673440D862A DUP3 PUSH2 0x206 JUMP JUMPDEST POP PUSH2 0x171 PUSH32 0xC806897CAF4FD5068191157E44D3988E43139A37E0B97B6793E1ED1184140604 DUP3 PUSH2 0x206 JUMP JUMPDEST POP PUSH2 0x19C PUSH32 0xF60566C40710959D8D30B6067CE3C53C757BEC78EECB0E46B83C7F8194FFAE37 DUP3 PUSH2 0x206 JUMP JUMPDEST POP PUSH2 0x1C7 PUSH32 0x78C90EB9E475048B483A290AEE04B5FE48355537C3623C7637B17D3BED71C6ED DUP3 PUSH2 0x206 JUMP JUMPDEST POP PUSH2 0x1F2 PUSH32 0x241ECF16D79D0F8DBFB92CBC07FE17840425976CF0667F022FE9877CAA831B08 DUP3 PUSH2 0x206 JUMP JUMPDEST POP POP PUSH1 0x1 ADD PUSH2 0xB8 JUMP JUMPDEST POP POP POP POP POP PUSH2 0x4B4 JUMP JUMPDEST PUSH0 DUP3 DUP2 MSTORE PUSH1 0x20 DUP2 DUP2 MSTORE PUSH1 0x40 DUP1 DUP4 KECCAK256 PUSH1 0x1 PUSH1 0x1 PUSH1 0xA0 SHL SUB DUP6 AND DUP5 MSTORE SWAP1 SWAP2 MSTORE DUP2 KECCAK256 SLOAD PUSH1 0xFF AND PUSH2 0x2A7 JUMPI PUSH0 DUP4 DUP2 MSTORE PUSH1 0x20 DUP2 DUP2 MSTORE PUSH1 0x40 DUP1 DUP4 KECCAK256 PUSH1 0x1 PUSH1 0x1 PUSH1 0xA0 SHL SUB DUP7 AND DUP5 MSTORE SWAP1 SWAP2 MSTORE SWAP1 KECCAK256 DUP1 SLOAD PUSH1 0xFF NOT AND PUSH1 0x1 OR SWAP1 SSTORE PUSH2 0x25F PUSH2 0x2B0 JUMP JUMPDEST PUSH1 0x1 PUSH1 0x1 PUSH1 0xA0 SHL SUB AND DUP3 PUSH1 0x1 PUSH1 0x1 PUSH1 0xA0 SHL SUB AND DUP5 PUSH32 0x2F8788117E7EFF1D82E926EC794901D17C78024A50270940304540A733656F0D PUSH1 0x40 MLOAD PUSH1 0x40 MLOAD DUP1 SWAP2 SUB SWAP1 LOG4 POP PUSH1 0x1 PUSH2 0x2AA JUMP JUMPDEST POP PUSH0 JUMPDEST SWAP3 SWAP2 POP POP JUMP JUMPDEST PUSH0 PUSH2 0x2B9 PUSH2 0x2BE JUMP JUMPDEST SWAP1 POP SWAP1 JUMP JUMPDEST PUSH0 CALLDATASIZE PUSH1 0x14 DUP1 DUP3 LT DUP1 ISZERO SWAP1 PUSH2 0x2D6 JUMPI POP PUSH2 0x2D6 CALLER PUSH2 0x304 JUMP JUMPDEST ISZERO PUSH2 0x2FC JUMPI PUSH2 0x2E9 CALLDATASIZE DUP3 DUP5 SUB DUP2 PUSH0 PUSH2 0x45D JUMP JUMPDEST PUSH2 0x2F2 SWAP2 PUSH2 0x484 JUMP JUMPDEST PUSH1 0x60 SHR SWAP3 POP POP POP SWAP1 JUMP JUMPDEST CALLER SWAP3 POP POP POP SWAP1 JUMP JUMPDEST PUSH0 PUSH2 0x30E PUSH1 0x80 MLOAD SWAP1 JUMP JUMPDEST PUSH1 0x1 PUSH1 0x1 PUSH1 0xA0 SHL SUB AND DUP3 PUSH1 0x1 PUSH1 0x1 PUSH1 0xA0 SHL SUB AND EQ SWAP1 POP SWAP2 SWAP1 POP JUMP JUMPDEST PUSH4 0x4E487B71 PUSH1 0xE0 SHL PUSH0 MSTORE PUSH1 0x41 PUSH1 0x4 MSTORE PUSH1 0x24 PUSH0 REVERT JUMPDEST DUP1 MLOAD PUSH1 0x1 PUSH1 0x1 PUSH1 0xA0 SHL SUB DUP2 AND DUP2 EQ PUSH2 0x353 JUMPI PUSH0 DUP1 REVERT JUMPDEST SWAP2 SWAP1 POP JUMP JUMPDEST PUSH0 DUP1 PUSH0 DUP1 PUSH1 0x80 DUP6 DUP8 SUB SLT ISZERO PUSH2 0x36B JUMPI PUSH0 DUP1 REVERT JUMPDEST DUP5 MLOAD PUSH1 0x1 PUSH1 0x1 PUSH1 0x40 SHL SUB DUP1 DUP3 GT ISZERO PUSH2 0x381 JUMPI PUSH0 DUP1 REVERT JUMPDEST DUP2 DUP8 ADD SWAP2 POP DUP8 PUSH1 0x1F DUP4 ADD SLT PUSH2 0x394 JUMPI PUSH0 DUP1 REVERT JUMPDEST DUP2 MLOAD PUSH1 0x20 DUP3 DUP3 GT ISZERO PUSH2 0x3A8 JUMPI PUSH2 0x3A8 PUSH2 0x329 JUMP JUMPDEST DUP2 PUSH1 0x5 SHL PUSH1 0x40 MLOAD PUSH1 0x1F NOT PUSH1 0x3F DUP4 ADD AND DUP2 ADD DUP2 DUP2 LT DUP7 DUP3 GT OR ISZERO PUSH2 0x3CD JUMPI PUSH2 0x3CD PUSH2 0x329 JUMP JUMPDEST PUSH1 0x40 MSTORE SWAP3 DUP4 MSTORE DUP2 DUP4 ADD SWAP4 POP DUP5 DUP2 ADD DUP3 ADD SWAP3 DUP12 DUP5 GT ISZERO PUSH2 0x3EA JUMPI PUSH0 DUP1 REVERT JUMPDEST SWAP5 DUP3 ADD SWAP5 JUMPDEST DUP4 DUP7 LT ISZERO PUSH2 0x40F JUMPI PUSH2 0x400 DUP7 PUSH2 0x33D JUMP JUMPDEST DUP6 MSTORE SWAP5 DUP3 ADD SWAP5 SWAP4 DUP3 ADD SWAP4 PUSH2 0x3EF JUMP JUMPDEST SWAP9 POP PUSH2 0x41E SWAP1 POP DUP10 DUP3 ADD PUSH2 0x33D JUMP JUMPDEST SWAP7 POP POP POP POP POP PUSH2 0x430 PUSH1 0x40 DUP7 ADD PUSH2 0x33D JUMP JUMPDEST SWAP2 POP PUSH2 0x43E PUSH1 0x60 DUP7 ADD PUSH2 0x33D JUMP JUMPDEST SWAP1 POP SWAP3 SWAP6 SWAP2 SWAP5 POP SWAP3 POP JUMP JUMPDEST PUSH4 0x4E487B71 PUSH1 0xE0 SHL PUSH0 MSTORE PUSH1 0x32 PUSH1 0x4 MSTORE PUSH1 0x24 PUSH0 REVERT JUMPDEST PUSH0 DUP1 DUP6 DUP6 GT ISZERO PUSH2 0x46B JUMPI PUSH0 DUP1 REVERT JUMPDEST DUP4 DUP7 GT ISZERO PUSH2 0x477 JUMPI PUSH0 DUP1 REVERT JUMPDEST POP POP DUP3 ADD SWAP4 SWAP2 SWAP1 SWAP3 SUB SWAP2 POP JUMP JUMPDEST PUSH1 0x1 PUSH1 0x1 PUSH1 0x60 SHL SUB NOT DUP2 CALLDATALOAD DUP2 DUP2 AND SWAP2 PUSH1 0x14 DUP6 LT ISZERO PUSH2 0x4AC JUMPI DUP1 DUP2 DUP7 PUSH1 0x14 SUB PUSH1 0x3 SHL SHL DUP4 AND AND SWAP3 POP JUMPDEST POP POP SWAP3 SWAP2 POP POP JUMP JUMPDEST PUSH1 0x80 MLOAD PUSH1 0xA0 MLOAD PUSH2 0x46E6 PUSH2 0x530 PUSH0 CODECOPY PUSH0 DUP2 DUP2 PUSH2 0x7D0 ADD MSTORE DUP2 DUP2 PUSH2 0x161C ADD MSTORE DUP2 DUP2 PUSH2 0x1DDF ADD MSTORE DUP2 DUP2 PUSH2 0x209F ADD MSTORE DUP2 DUP2 PUSH2 0x2647 ADD MSTORE DUP2 DUP2 PUSH2 0x286D ADD MSTORE DUP2 DUP2 PUSH2 0x2B92 ADD MSTORE DUP2 DUP2 PUSH2 0x2C5F ADD MSTORE DUP2 DUP2 PUSH2 0x2EC4 ADD MSTORE DUP2 DUP2 PUSH2 0x34E1 ADD MSTORE DUP2 DUP2 PUSH2 0x3A14 ADD MSTORE PUSH2 0x3B05 ADD MSTORE PUSH0 DUP2 DUP2 PUSH2 0x8FC ADD MSTORE DUP2 DUP2 PUSH2 0xAE2 ADD MSTORE PUSH2 0x4024 ADD MSTORE PUSH2 0x46E6 PUSH0 RETURN INVALID PUSH1 0x80 PUSH1 0x40 MSTORE PUSH1 0x4 CALLDATASIZE LT PUSH2 0x522 JUMPI PUSH0 CALLDATALOAD PUSH1 0xE0 SHR DUP1 PUSH4 0x7DA0A877 GT PUSH2 0x29F JUMPI DUP1 PUSH4 0xBDA821E8 GT PUSH2 0x170 JUMPI DUP1 PUSH4 0xE63AB1E9 GT PUSH2 0xD1 JUMPI DUP1 PUSH4 0xF5F11350 GT PUSH2 0x87 JUMPI DUP1 PUSH4 0xF6326FB3 GT PUSH2 0x6D JUMPI DUP1 PUSH4 0xF6326FB3 EQ PUSH2 0xFB4 JUMPI DUP1 PUSH4 0xF688BCFB EQ PUSH2 0xFBC JUMPI DUP1 PUSH4 0xFD46A171 EQ PUSH2 0xFDB JUMPI PUSH0 DUP1 REVERT JUMPDEST DUP1 PUSH4 0xF5F11350 EQ PUSH2 0xF76 JUMPI DUP1 PUSH4 0xF5F69AF2 EQ PUSH2 0xF95 JUMPI PUSH0 DUP1 REVERT JUMPDEST DUP1 PUSH4 0xEC87621C GT PUSH2 0xB7 JUMPI DUP1 PUSH4 0xEC87621C EQ PUSH2 0xF08 JUMPI DUP1 PUSH4 0xEE947A7C EQ PUSH2 0xF3B JUMPI DUP1 PUSH4 0xF29B2239 EQ PUSH2 0xF50 JUMPI PUSH0 DUP1 REVERT JUMPDEST DUP1 PUSH4 0xE63AB1E9 EQ PUSH2 0xEAA JUMPI DUP1 PUSH4 0xE9FE0C78 EQ PUSH2 0xEDD JUMPI PUSH0 DUP1 REVERT JUMPDEST DUP1 PUSH4 0xDA8D5ADD GT PUSH2 0x126 JUMPI DUP1 PUSH4 0xE15E23C1 GT PUSH2 0x10C JUMPI DUP1 PUSH4 0xE15E23C1 EQ PUSH2 0xE6C JUMPI DUP1 PUSH4 0xE340B783 EQ PUSH2 0xE81 JUMPI DUP1 PUSH4 0xE399067F EQ PUSH2 0xE96 JUMPI PUSH0 DUP1 REVERT JUMPDEST DUP1 PUSH4 0xDA8D5ADD EQ PUSH2 0xE25 JUMPI DUP1 PUSH4 0xE043B2B2 EQ PUSH2 0xE39 JUMPI PUSH0 DUP1 REVERT JUMPDEST DUP1 PUSH4 0xC771C390 GT PUSH2 0x156 JUMPI DUP1 PUSH4 0xC771C390 EQ PUSH2 0xDC8 JUMPI DUP1 PUSH4 0xD547741F EQ PUSH2 0xDE7 JUMPI DUP1 PUSH4 0xD830D5CC EQ PUSH2 0xE06 JUMPI PUSH0 DUP1 REVERT JUMPDEST DUP1 PUSH4 0xBDA821E8 EQ PUSH2 0xD95 JUMPI DUP1 PUSH4 0xC6D95B74 EQ PUSH2 0xDA9 JUMPI PUSH0 DUP1 REVERT JUMPDEST DUP1 PUSH4 0x93055C43 GT PUSH2 0x21A JUMPI DUP1 PUSH4 0xA59AA5A6 GT PUSH2 0x1D0 JUMPI DUP1 PUSH4 0xB2B77AE2 GT PUSH2 0x1B6 JUMPI DUP1 PUSH4 0xB2B77AE2 EQ PUSH2 0xD43 JUMPI DUP1 PUSH4 0xB65BA94B EQ PUSH2 0xD61 JUMPI DUP1 PUSH4 0xB758AEAA EQ PUSH2 0xD76 JUMPI PUSH0 DUP1 REVERT JUMPDEST DUP1 PUSH4 0xA59AA5A6 EQ PUSH2 0xCA8 JUMPI DUP1 PUSH4 0xB2118A8D EQ PUSH2 0xD24 JUMPI PUSH0 DUP1 REVERT JUMPDEST DUP1 PUSH4 0x9DDC3912 GT PUSH2 0x200 JUMPI DUP1 PUSH4 0x9DDC3912 EQ PUSH2 0xC61 JUMPI DUP1 PUSH4 0x9E657E33 EQ PUSH2 0xC76 JUMPI DUP1 PUSH4 0xA217FDDF EQ PUSH2 0xC95 JUMPI PUSH0 DUP1 REVERT JUMPDEST DUP1 PUSH4 0x93055C43 EQ PUSH2 0xC2D JUMPI DUP1 PUSH4 0x97D9E5B4 EQ PUSH2 0xC4C JUMPI PUSH0 DUP1 REVERT JUMPDEST DUP1 PUSH4 0x899AA991 GT PUSH2 0x26F JUMPI DUP1 PUSH4 0x8B713B2E GT PUSH2 0x255 JUMPI DUP1 PUSH4 0x8B713B2E EQ PUSH2 0xBB7 JUMPI DUP1 PUSH4 0x8DD4928E EQ PUSH2 0xBCC JUMPI DUP1 PUSH4 0x91D14854 EQ PUSH2 0xBEB JUMPI PUSH0 DUP1 REVERT JUMPDEST DUP1 PUSH4 0x899AA991 EQ PUSH2 0xB83 JUMPI DUP1 PUSH4 0x89BAD0A6 EQ PUSH2 0xB98 JUMPI PUSH0 DUP1 REVERT JUMPDEST DUP1 PUSH4 0x7DA0A877 EQ PUSH2 0xAD4 JUMPI DUP1 PUSH4 0x867D099A EQ PUSH2 0xB06 JUMPI DUP1 PUSH4 0x885F5029 EQ PUSH2 0xB25 JUMPI DUP1 PUSH4 0x886D589D EQ PUSH2 0xB58 JUMPI PUSH0 DUP1 REVERT JUMPDEST DUP1 PUSH4 0x3E413BEE GT PUSH2 0x3F3 JUMPI DUP1 PUSH4 0x6068D6CB GT PUSH2 0x354 JUMPI DUP1 PUSH4 0x6EC23995 GT PUSH2 0x30A JUMPI DUP1 PUSH4 0x75B238FC GT PUSH2 0x2F0 JUMPI DUP1 PUSH4 0x75B238FC EQ PUSH2 0xA76 JUMPI DUP1 PUSH4 0x762E1C73 EQ PUSH2 0xA96 JUMPI DUP1 PUSH4 0x76C1D3DB EQ PUSH2 0xAB5 JUMPI PUSH0 DUP1 REVERT JUMPDEST DUP1 PUSH4 0x6EC23995 EQ PUSH2 0xA38 JUMPI DUP1 PUSH4 0x72E55399 EQ PUSH2 0xA57 JUMPI PUSH0 DUP1 REVERT JUMPDEST DUP1 PUSH4 0x6426BE48 GT PUSH2 0x33A JUMPI DUP1 PUSH4 0x6426BE48 EQ PUSH2 0x9D7 JUMPI DUP1 PUSH4 0x65D5EC96 EQ PUSH2 0x9F6 JUMPI DUP1 PUSH4 0x6C6FF56C EQ PUSH2 0xA24 JUMPI PUSH0 DUP1 REVERT JUMPDEST DUP1 PUSH4 0x6068D6CB EQ PUSH2 0x9B6 JUMPI DUP1 PUSH4 0x64021B13 EQ PUSH2 0x9CF JUMPI PUSH0 DUP1 REVERT JUMPDEST DUP1 PUSH4 0x53D6FD59 GT PUSH2 0x3A9 JUMPI DUP1 PUSH4 0x588583A0 GT PUSH2 0x38F JUMPI DUP1 PUSH4 0x588583A0 EQ PUSH2 0x92C JUMPI DUP1 PUSH4 0x5983B0BD EQ PUSH2 0x969 JUMPI DUP1 PUSH4 0x5E2C19DB EQ PUSH2 0x988 JUMPI PUSH0 DUP1 REVERT JUMPDEST DUP1 PUSH4 0x53D6FD59 EQ PUSH2 0x8C1 JUMPI DUP1 PUSH4 0x572B6C05 EQ PUSH2 0x8E0 JUMPI PUSH0 DUP1 REVERT JUMPDEST DUP1 PUSH4 0x47AF19AA GT PUSH2 0x3D9 JUMPI DUP1 PUSH4 0x47AF19AA EQ PUSH2 0x829 JUMPI DUP1 PUSH4 0x4E43603A EQ PUSH2 0x848 JUMPI DUP1 PUSH4 0x51FB012D EQ PUSH2 0x8A2 JUMPI PUSH0 DUP1 REVERT JUMPDEST DUP1 PUSH4 0x3E413BEE EQ PUSH2 0x7BF JUMPI DUP1 PUSH4 0x41DEBF1F EQ PUSH2 0x80A JUMPI PUSH0 DUP1 REVERT JUMPDEST DUP1 PUSH4 0x27175B23 GT PUSH2 0x49D JUMPI DUP1 PUSH4 0x2F2FF15D GT PUSH2 0x453 JUMPI DUP1 PUSH4 0x36568ABE GT PUSH2 0x439 JUMPI DUP1 PUSH4 0x36568ABE EQ PUSH2 0x75D JUMPI DUP1 PUSH4 0x3AC43970 EQ PUSH2 0x77C JUMPI DUP1 PUSH4 0x3AF32ABF EQ PUSH2 0x791 JUMPI PUSH0 DUP1 REVERT JUMPDEST DUP1 PUSH4 0x2F2FF15D EQ PUSH2 0x713 JUMPI DUP1 PUSH4 0x3408567C EQ PUSH2 0x732 JUMPI PUSH0 DUP1 REVERT JUMPDEST DUP1 PUSH4 0x2A5BF6D2 GT PUSH2 0x483 JUMPI DUP1 PUSH4 0x2A5BF6D2 EQ PUSH2 0x6B3 JUMPI DUP1 PUSH4 0x2AAD5EDD EQ PUSH2 0x6DF JUMPI DUP1 PUSH4 0x2E1A7D4D EQ PUSH2 0x6F4 JUMPI PUSH0 DUP1 REVERT JUMPDEST DUP1 PUSH4 0x27175B23 EQ PUSH2 0x68A JUMPI DUP1 PUSH4 0x275991D2 EQ PUSH2 0x69F JUMPI PUSH0 DUP1 REVERT JUMPDEST DUP1 PUSH4 0xC016AD5 GT PUSH2 0x4F2 JUMPI DUP1 PUSH4 0x1C5AEEF7 GT PUSH2 0x4D8 JUMPI DUP1 PUSH4 0x1C5AEEF7 EQ PUSH2 0x627 JUMPI DUP1 PUSH4 0x246D47B7 EQ PUSH2 0x63C JUMPI DUP1 PUSH4 0x248A9CA3 EQ PUSH2 0x65C JUMPI PUSH0 DUP1 REVERT JUMPDEST DUP1 PUSH4 0xC016AD5 EQ PUSH2 0x5EC JUMPI DUP1 PUSH4 0x17B51642 EQ PUSH2 0x61F JUMPI PUSH0 DUP1 REVERT JUMPDEST DUP1 PUSH4 0x1FFC9A7 EQ PUSH2 0x52D JUMPI DUP1 PUSH4 0x4C68AF0 EQ PUSH2 0x561 JUMPI DUP1 PUSH4 0x52D9E7E EQ PUSH2 0x59A JUMPI DUP1 PUSH4 0x8F43333 EQ PUSH2 0x5BB JUMPI PUSH0 DUP1 REVERT JUMPDEST CALLDATASIZE PUSH2 0x529 JUMPI STOP JUMPDEST PUSH0 DUP1 REVERT JUMPDEST CALLVALUE DUP1 ISZERO PUSH2 0x538 JUMPI PUSH0 DUP1 REVERT JUMPDEST POP PUSH2 0x54C PUSH2 0x547 CALLDATASIZE PUSH1 0x4 PUSH2 0x407D JUMP JUMPDEST PUSH2 0xFF0 JUMP JUMPDEST PUSH1 0x40 MLOAD SWAP1 ISZERO ISZERO DUP2 MSTORE PUSH1 0x20 ADD JUMPDEST PUSH1 0x40 MLOAD DUP1 SWAP2 SUB SWAP1 RETURN JUMPDEST CALLVALUE DUP1 ISZERO PUSH2 0x56C JUMPI PUSH0 DUP1 REVERT JUMPDEST POP PUSH2 0x58C PUSH2 0x57B CALLDATASIZE PUSH1 0x4 PUSH2 0x40C6 JUMP JUMPDEST PUSH1 0xC PUSH1 0x20 MSTORE PUSH0 SWAP1 DUP2 MSTORE PUSH1 0x40 SWAP1 KECCAK256 SLOAD DUP2 JUMP JUMPDEST PUSH1 0x40 MLOAD SWAP1 DUP2 MSTORE PUSH1 0x20 ADD PUSH2 0x558 JUMP JUMPDEST CALLVALUE DUP1 ISZERO PUSH2 0x5A5 JUMPI PUSH0 DUP1 REVERT JUMPDEST POP PUSH2 0x5B9 PUSH2 0x5B4 CALLDATASIZE PUSH1 0x4 PUSH2 0x40EC JUMP JUMPDEST PUSH2 0x1026 JUMP JUMPDEST STOP JUMPDEST CALLVALUE DUP1 ISZERO PUSH2 0x5C6 JUMPI PUSH0 DUP1 REVERT JUMPDEST POP PUSH2 0x5DA PUSH2 0x5D5 CALLDATASIZE PUSH1 0x4 PUSH2 0x4107 JUMP JUMPDEST PUSH2 0x105A JUMP JUMPDEST PUSH1 0x40 MLOAD PUSH2 0x558 SWAP7 SWAP6 SWAP5 SWAP4 SWAP3 SWAP2 SWAP1 PUSH2 0x4163 JUMP JUMPDEST CALLVALUE DUP1 ISZERO PUSH2 0x5F7 JUMPI PUSH0 DUP1 REVERT JUMPDEST POP PUSH2 0x58C PUSH32 0xF60566C40710959D8D30B6067CE3C53C757BEC78EECB0E46B83C7F8194FFAE37 DUP2 JUMP JUMPDEST PUSH2 0x5B9 PUSH2 0x10D0 JUMP JUMPDEST CALLVALUE DUP1 ISZERO PUSH2 0x632 JUMPI PUSH0 DUP1 REVERT JUMPDEST POP PUSH2 0x58C PUSH1 0x4 SLOAD DUP2 JUMP JUMPDEST CALLVALUE DUP1 ISZERO PUSH2 0x647 JUMPI PUSH0 DUP1 REVERT JUMPDEST POP PUSH1 0x5 SLOAD PUSH2 0x54C SWAP1 PUSH4 0x1000000 SWAP1 DIV PUSH1 0xFF AND DUP2 JUMP JUMPDEST CALLVALUE DUP1 ISZERO PUSH2 0x667 JUMPI PUSH0 DUP1 REVERT JUMPDEST POP PUSH2 0x58C PUSH2 0x676 CALLDATASIZE PUSH1 0x4 PUSH2 0x41B2 JUMP JUMPDEST PUSH0 SWAP1 DUP2 MSTORE PUSH1 0x20 DUP2 SWAP1 MSTORE PUSH1 0x40 SWAP1 KECCAK256 PUSH1 0x1 ADD SLOAD SWAP1 JUMP JUMPDEST CALLVALUE DUP1 ISZERO PUSH2 0x695 JUMPI PUSH0 DUP1 REVERT JUMPDEST POP PUSH2 0x58C PUSH1 0x10 SLOAD DUP2 JUMP JUMPDEST CALLVALUE DUP1 ISZERO PUSH2 0x6AA JUMPI PUSH0 DUP1 REVERT JUMPDEST POP PUSH2 0x5B9 PUSH2 0x11B4 JUMP JUMPDEST CALLVALUE DUP1 ISZERO PUSH2 0x6BE JUMPI PUSH0 DUP1 REVERT JUMPDEST POP PUSH2 0x6D2 PUSH2 0x6CD CALLDATASIZE PUSH1 0x4 PUSH2 0x40C6 JUMP JUMPDEST PUSH2 0x12BE JUMP JUMPDEST PUSH1 0x40 MLOAD PUSH2 0x558 SWAP2 SWAP1 PUSH2 0x41C9 JUMP JUMPDEST CALLVALUE DUP1 ISZERO PUSH2 0x6EA JUMPI PUSH0 DUP1 REVERT JUMPDEST POP PUSH2 0x58C PUSH1 0x18 SLOAD DUP2 JUMP JUMPDEST CALLVALUE DUP1 ISZERO PUSH2 0x6FF JUMPI PUSH0 DUP1 REVERT JUMPDEST POP PUSH2 0x5B9 PUSH2 0x70E CALLDATASIZE PUSH1 0x4 PUSH2 0x41B2 JUMP JUMPDEST PUSH2 0x13C4 JUMP JUMPDEST CALLVALUE DUP1 ISZERO PUSH2 0x71E JUMPI PUSH0 DUP1 REVERT JUMPDEST POP PUSH2 0x5B9 PUSH2 0x72D CALLDATASIZE PUSH1 0x4 PUSH2 0x4266 JUMP JUMPDEST PUSH2 0x17B2 JUMP JUMPDEST CALLVALUE DUP1 ISZERO PUSH2 0x73D JUMPI PUSH0 DUP1 REVERT JUMPDEST POP PUSH2 0x58C PUSH2 0x74C CALLDATASIZE PUSH1 0x4 PUSH2 0x40C6 JUMP JUMPDEST PUSH1 0x9 PUSH1 0x20 MSTORE PUSH0 SWAP1 DUP2 MSTORE PUSH1 0x40 SWAP1 KECCAK256 SLOAD DUP2 JUMP JUMPDEST CALLVALUE DUP1 ISZERO PUSH2 0x768 JUMPI PUSH0 DUP1 REVERT JUMPDEST POP PUSH2 0x5B9 PUSH2 0x777 CALLDATASIZE PUSH1 0x4 PUSH2 0x4266 JUMP JUMPDEST PUSH2 0x17DC JUMP JUMPDEST CALLVALUE DUP1 ISZERO PUSH2 0x787 JUMPI PUSH0 DUP1 REVERT JUMPDEST POP PUSH2 0x58C PUSH1 0x14 SLOAD DUP2 JUMP JUMPDEST CALLVALUE DUP1 ISZERO PUSH2 0x79C JUMPI PUSH0 DUP1 REVERT JUMPDEST POP PUSH2 0x54C PUSH2 0x7AB CALLDATASIZE PUSH1 0x4 PUSH2 0x40C6 JUMP JUMPDEST PUSH1 0x7 PUSH1 0x20 MSTORE PUSH0 SWAP1 DUP2 MSTORE PUSH1 0x40 SWAP1 KECCAK256 SLOAD PUSH1 0xFF AND DUP2 JUMP JUMPDEST CALLVALUE DUP1 ISZERO PUSH2 0x7CA JUMPI PUSH0 DUP1 REVERT JUMPDEST POP PUSH2 0x7F2 PUSH32 0x0 DUP2 JUMP JUMPDEST PUSH1 0x40 MLOAD PUSH1 0x1 PUSH1 0x1 PUSH1 0xA0 SHL SUB SWAP1 SWAP2 AND DUP2 MSTORE PUSH1 0x20 ADD PUSH2 0x558 JUMP JUMPDEST CALLVALUE DUP1 ISZERO PUSH2 0x815 JUMPI PUSH0 DUP1 REVERT JUMPDEST POP PUSH2 0x5B9 PUSH2 0x824 CALLDATASIZE PUSH1 0x4 PUSH2 0x42D8 JUMP JUMPDEST PUSH2 0x1824 JUMP JUMPDEST CALLVALUE DUP1 ISZERO PUSH2 0x834 JUMPI PUSH0 DUP1 REVERT JUMPDEST POP PUSH2 0x5B9 PUSH2 0x843 CALLDATASIZE PUSH1 0x4 PUSH2 0x42D8 JUMP JUMPDEST PUSH2 0x1957 JUMP JUMPDEST CALLVALUE DUP1 ISZERO PUSH2 0x853 JUMPI PUSH0 DUP1 REVERT JUMPDEST POP PUSH2 0x867 PUSH2 0x862 CALLDATASIZE PUSH1 0x4 PUSH2 0x40C6 JUMP JUMPDEST PUSH2 0x1AAB JUMP JUMPDEST PUSH1 0x40 DUP1 MLOAD SWAP9 DUP10 MSTORE PUSH1 0x20 DUP10 ADD SWAP8 SWAP1 SWAP8 MSTORE SWAP6 DUP8 ADD SWAP5 SWAP1 SWAP5 MSTORE PUSH1 0x60 DUP7 ADD SWAP3 SWAP1 SWAP3 MSTORE PUSH1 0x80 DUP6 ADD MSTORE PUSH1 0xA0 DUP5 ADD MSTORE PUSH1 0xC0 DUP4 ADD MSTORE PUSH1 0xE0 DUP3 ADD MSTORE PUSH2 0x100 ADD PUSH2 0x558 JUMP JUMPDEST CALLVALUE DUP1 ISZERO PUSH2 0x8AD JUMPI PUSH0 DUP1 REVERT JUMPDEST POP PUSH1 0x5 SLOAD PUSH2 0x54C SWAP1 PUSH3 0x10000 SWAP1 DIV PUSH1 0xFF AND DUP2 JUMP JUMPDEST CALLVALUE DUP1 ISZERO PUSH2 0x8CC JUMPI PUSH0 DUP1 REVERT JUMPDEST POP PUSH2 0x5B9 PUSH2 0x8DB CALLDATASIZE PUSH1 0x4 PUSH2 0x433F JUMP JUMPDEST PUSH2 0x1CD4 JUMP JUMPDEST CALLVALUE DUP1 ISZERO PUSH2 0x8EB JUMPI PUSH0 DUP1 REVERT JUMPDEST POP PUSH2 0x54C PUSH2 0x8FA CALLDATASIZE PUSH1 0x4 PUSH2 0x40C6 JUMP JUMPDEST PUSH32 0x0 PUSH1 0x1 PUSH1 0x1 PUSH1 0xA0 SHL SUB SWAP1 DUP2 AND SWAP2 AND EQ SWAP1 JUMP JUMPDEST CALLVALUE DUP1 ISZERO PUSH2 0x937 JUMPI PUSH0 DUP1 REVERT JUMPDEST POP PUSH1 0x5 SLOAD PUSH2 0x952 SWAP1 PUSH5 0x100000000 SWAP1 DIV PUSH6 0xFFFFFFFFFFFF AND DUP2 JUMP JUMPDEST PUSH1 0x40 MLOAD PUSH6 0xFFFFFFFFFFFF SWAP1 SWAP2 AND DUP2 MSTORE PUSH1 0x20 ADD PUSH2 0x558 JUMP JUMPDEST CALLVALUE DUP1 ISZERO PUSH2 0x974 JUMPI PUSH0 DUP1 REVERT JUMPDEST POP PUSH2 0x5B9 PUSH2 0x983 CALLDATASIZE PUSH1 0x4 PUSH2 0x41B2 JUMP JUMPDEST PUSH2 0x1D4A JUMP JUMPDEST CALLVALUE DUP1 ISZERO PUSH2 0x993 JUMPI PUSH0 DUP1 REVERT JUMPDEST POP PUSH2 0x54C PUSH2 0x9A2 CALLDATASIZE PUSH1 0x4 PUSH2 0x40C6 JUMP JUMPDEST PUSH1 0x8 PUSH1 0x20 MSTORE PUSH0 SWAP1 DUP2 MSTORE PUSH1 0x40 SWAP1 KECCAK256 SLOAD PUSH1 0xFF AND DUP2 JUMP JUMPDEST CALLVALUE DUP1 ISZERO PUSH2 0x9C1 JUMPI PUSH0 DUP1 REVERT JUMPDEST POP PUSH1 0x5 SLOAD PUSH2 0x54C SWAP1 PUSH1 0xFF AND DUP2 JUMP JUMPDEST PUSH2 0x5B9 PUSH2 0x1EDB JUMP JUMPDEST CALLVALUE DUP1 ISZERO PUSH2 0x9E2 JUMPI PUSH0 DUP1 REVERT JUMPDEST POP PUSH2 0x5B9 PUSH2 0x9F1 CALLDATASIZE PUSH1 0x4 PUSH2 0x4374 JUMP JUMPDEST PUSH2 0x1F8B JUMP JUMPDEST CALLVALUE DUP1 ISZERO PUSH2 0xA01 JUMPI PUSH0 DUP1 REVERT JUMPDEST POP PUSH2 0x54C PUSH2 0xA10 CALLDATASIZE PUSH1 0x4 PUSH2 0x40C6 JUMP JUMPDEST PUSH1 0xD PUSH1 0x20 MSTORE PUSH0 SWAP1 DUP2 MSTORE PUSH1 0x40 SWAP1 KECCAK256 SLOAD PUSH1 0xFF AND DUP2 JUMP JUMPDEST CALLVALUE DUP1 ISZERO PUSH2 0xA2F JUMPI PUSH0 DUP1 REVERT JUMPDEST POP PUSH2 0x5B9 PUSH2 0x201A JUMP JUMPDEST CALLVALUE DUP1 ISZERO PUSH2 0xA43 JUMPI PUSH0 DUP1 REVERT JUMPDEST POP PUSH2 0x5B9 PUSH2 0xA52 CALLDATASIZE PUSH1 0x4 PUSH2 0x4107 JUMP JUMPDEST PUSH2 0x214A JUMP JUMPDEST CALLVALUE DUP1 ISZERO PUSH2 0xA62 JUMPI PUSH0 DUP1 REVERT JUMPDEST POP PUSH2 0x5B9 PUSH2 0xA71 CALLDATASIZE PUSH1 0x4 PUSH2 0x4390 JUMP JUMPDEST PUSH2 0x21ED JUMP JUMPDEST CALLVALUE DUP1 ISZERO PUSH2 0xA81 JUMPI PUSH0 DUP1 REVERT JUMPDEST POP PUSH2 0x58C PUSH0 DUP1 MLOAD PUSH1 0x20 PUSH2 0x4691 DUP4 CODECOPY DUP2 MLOAD SWAP2 MSTORE DUP2 JUMP JUMPDEST CALLVALUE DUP1 ISZERO PUSH2 0xAA1 JUMPI PUSH0 DUP1 REVERT JUMPDEST POP PUSH2 0x5B9 PUSH2 0xAB0 CALLDATASIZE PUSH1 0x4 PUSH2 0x4107 JUMP JUMPDEST PUSH2 0x2741 JUMP JUMPDEST CALLVALUE DUP1 ISZERO PUSH2 0xAC0 JUMPI PUSH0 DUP1 REVERT JUMPDEST POP PUSH2 0x5B9 PUSH2 0xACF CALLDATASIZE PUSH1 0x4 PUSH2 0x41B2 JUMP JUMPDEST PUSH2 0x27DA JUMP JUMPDEST CALLVALUE DUP1 ISZERO PUSH2 0xADF JUMPI PUSH0 DUP1 REVERT JUMPDEST POP PUSH32 0x0 PUSH2 0x7F2 JUMP JUMPDEST CALLVALUE DUP1 ISZERO PUSH2 0xB11 JUMPI PUSH0 DUP1 REVERT JUMPDEST POP PUSH2 0x5B9 PUSH2 0xB20 CALLDATASIZE PUSH1 0x4 PUSH2 0x43CF JUMP JUMPDEST PUSH2 0x292B JUMP JUMPDEST CALLVALUE DUP1 ISZERO PUSH2 0xB30 JUMPI PUSH0 DUP1 REVERT JUMPDEST POP PUSH2 0x58C PUSH32 0x78C90EB9E475048B483A290AEE04B5FE48355537C3623C7637B17D3BED71C6ED DUP2 JUMP JUMPDEST CALLVALUE DUP1 ISZERO PUSH2 0xB63 JUMPI PUSH0 DUP1 REVERT JUMPDEST POP PUSH2 0x58C PUSH2 0xB72 CALLDATASIZE PUSH1 0x4 PUSH2 0x40C6 JUMP JUMPDEST PUSH1 0xB PUSH1 0x20 MSTORE PUSH0 SWAP1 DUP2 MSTORE PUSH1 0x40 SWAP1 KECCAK256 SLOAD DUP2 JUMP JUMPDEST CALLVALUE DUP1 ISZERO PUSH2 0xB8E JUMPI PUSH0 DUP1 REVERT JUMPDEST POP PUSH2 0x58C PUSH1 0xF SLOAD DUP2 JUMP JUMPDEST CALLVALUE DUP1 ISZERO PUSH2 0xBA3 JUMPI PUSH0 DUP1 REVERT JUMPDEST POP PUSH2 0x5B9 PUSH2 0xBB2 CALLDATASIZE PUSH1 0x4 PUSH2 0x40C6 JUMP JUMPDEST PUSH2 0x2A6F JUMP JUMPDEST CALLVALUE DUP1 ISZERO PUSH2 0xBC2 JUMPI PUSH0 DUP1 REVERT JUMPDEST POP PUSH2 0x58C PUSH1 0x11 SLOAD DUP2 JUMP JUMPDEST CALLVALUE DUP1 ISZERO PUSH2 0xBD7 JUMPI PUSH0 DUP1 REVERT JUMPDEST POP PUSH2 0x5B9 PUSH2 0xBE6 CALLDATASIZE PUSH1 0x4 PUSH2 0x4107 JUMP JUMPDEST PUSH2 0x2B24 JUMP JUMPDEST CALLVALUE DUP1 ISZERO PUSH2 0xBF6 JUMPI PUSH0 DUP1 REVERT JUMPDEST POP PUSH2 0x54C PUSH2 0xC05 CALLDATASIZE PUSH1 0x4 PUSH2 0x4266 JUMP JUMPDEST PUSH0 SWAP2 DUP3 MSTORE PUSH1 0x20 DUP3 DUP2 MSTORE PUSH1 0x40 DUP1 DUP5 KECCAK256 PUSH1 0x1 PUSH1 0x1 PUSH1 0xA0 SHL SUB SWAP4 SWAP1 SWAP4 AND DUP5 MSTORE SWAP2 SWAP1 MSTORE SWAP1 KECCAK256 SLOAD PUSH1 0xFF AND SWAP1 JUMP JUMPDEST CALLVALUE DUP1 ISZERO PUSH2 0xC38 JUMPI PUSH0 DUP1 REVERT JUMPDEST POP PUSH2 0x5B9 PUSH2 0xC47 CALLDATASIZE PUSH1 0x4 PUSH2 0x41B2 JUMP JUMPDEST PUSH2 0x2D2A JUMP JUMPDEST CALLVALUE DUP1 ISZERO PUSH2 0xC57 JUMPI PUSH0 DUP1 REVERT JUMPDEST POP PUSH2 0x58C PUSH1 0x15 SLOAD DUP2 JUMP JUMPDEST CALLVALUE DUP1 ISZERO PUSH2 0xC6C JUMPI PUSH0 DUP1 REVERT JUMPDEST POP PUSH2 0x58C PUSH1 0x3 SLOAD DUP2 JUMP JUMPDEST CALLVALUE DUP1 ISZERO PUSH2 0xC81 JUMPI PUSH0 DUP1 REVERT JUMPDEST POP PUSH2 0x7F2 PUSH2 0xC90 CALLDATASIZE PUSH1 0x4 PUSH2 0x41B2 JUMP JUMPDEST PUSH2 0x2E89 JUMP JUMPDEST CALLVALUE DUP1 ISZERO PUSH2 0xCA0 JUMPI PUSH0 DUP1 REVERT JUMPDEST POP PUSH2 0x58C PUSH0 DUP2 JUMP JUMPDEST CALLVALUE DUP1 ISZERO PUSH2 0xCB3 JUMPI PUSH0 DUP1 REVERT JUMPDEST POP PUSH2 0xCBC PUSH2 0x2EB1 JUMP JUMPDEST PUSH1 0x40 DUP1 MLOAD SWAP15 DUP16 MSTORE PUSH1 0x20 DUP16 ADD SWAP14 SWAP1 SWAP14 MSTORE SWAP12 DUP14 ADD SWAP11 SWAP1 SWAP11 MSTORE PUSH1 0x60 DUP13 ADD SWAP9 SWAP1 SWAP9 MSTORE PUSH1 0x80 DUP12 ADD SWAP7 SWAP1 SWAP7 MSTORE PUSH1 0xA0 DUP11 ADD SWAP5 SWAP1 SWAP5 MSTORE PUSH1 0xC0 DUP10 ADD SWAP3 SWAP1 SWAP3 MSTORE PUSH1 0xE0 DUP9 ADD MSTORE PUSH2 0x100 DUP8 ADD MSTORE PUSH2 0x120 DUP7 ADD MSTORE PUSH2 0x140 DUP6 ADD MSTORE PUSH2 0x160 DUP5 ADD MSTORE PUSH2 0x180 DUP4 ADD MSTORE PUSH2 0x1A0 DUP3 ADD MSTORE PUSH2 0x1C0 ADD PUSH2 0x558 JUMP JUMPDEST CALLVALUE DUP1 ISZERO PUSH2 0xD2F JUMPI PUSH0 DUP1 REVERT JUMPDEST POP PUSH2 0x5B9 PUSH2 0xD3E CALLDATASIZE PUSH1 0x4 PUSH2 0x441E JUMP JUMPDEST PUSH2 0x2FAB JUMP JUMPDEST CALLVALUE DUP1 ISZERO PUSH2 0xD4E JUMPI PUSH0 DUP1 REVERT JUMPDEST POP PUSH1 0x5 SLOAD PUSH2 0x54C SWAP1 PUSH2 0x100 SWAP1 DIV PUSH1 0xFF AND DUP2 JUMP JUMPDEST CALLVALUE DUP1 ISZERO PUSH2 0xD6C JUMPI PUSH0 DUP1 REVERT JUMPDEST POP PUSH2 0x58C PUSH1 0x13 SLOAD DUP2 JUMP JUMPDEST CALLVALUE DUP1 ISZERO PUSH2 0xD81 JUMPI PUSH0 DUP1 REVERT JUMPDEST POP PUSH2 0x5B9 PUSH2 0xD90 CALLDATASIZE PUSH1 0x4 PUSH2 0x42D8 JUMP JUMPDEST PUSH2 0x30AD JUMP JUMPDEST CALLVALUE DUP1 ISZERO PUSH2 0xDA0 JUMPI PUSH0 DUP1 REVERT JUMPDEST POP PUSH2 0x5B9 PUSH2 0x31D3 JUMP JUMPDEST CALLVALUE DUP1 ISZERO PUSH2 0xDB4 JUMPI PUSH0 DUP1 REVERT JUMPDEST POP PUSH2 0x5B9 PUSH2 0xDC3 CALLDATASIZE PUSH1 0x4 PUSH2 0x4107 JUMP JUMPDEST PUSH2 0x32C6 JUMP JUMPDEST CALLVALUE DUP1 ISZERO PUSH2 0xDD3 JUMPI PUSH0 DUP1 REVERT JUMPDEST POP PUSH2 0x5B9 PUSH2 0xDE2 CALLDATASIZE PUSH1 0x4 PUSH2 0x41B2 JUMP JUMPDEST PUSH2 0x3425 JUMP JUMPDEST CALLVALUE DUP1 ISZERO PUSH2 0xDF2 JUMPI PUSH0 DUP1 REVERT JUMPDEST POP PUSH2 0x5B9 PUSH2 0xE01 CALLDATASIZE PUSH1 0x4 PUSH2 0x4266 JUMP JUMPDEST PUSH2 0x3471 JUMP JUMPDEST CALLVALUE DUP1 ISZERO PUSH2 0xE11 JUMPI PUSH0 DUP1 REVERT JUMPDEST POP PUSH2 0x5B9 PUSH2 0xE20 CALLDATASIZE PUSH1 0x4 PUSH2 0x41B2 JUMP JUMPDEST PUSH2 0x3495 JUMP JUMPDEST CALLVALUE DUP1 ISZERO PUSH2 0xE30 JUMPI PUSH0 DUP1 REVERT JUMPDEST POP PUSH2 0x5B9 PUSH2 0x35F3 JUMP JUMPDEST CALLVALUE DUP1 ISZERO PUSH2 0xE44 JUMPI PUSH0 DUP1 REVERT JUMPDEST POP PUSH2 0x58C PUSH32 0xC806897CAF4FD5068191157E44D3988E43139A37E0B97B6793E1ED1184140604 DUP2 JUMP JUMPDEST CALLVALUE DUP1 ISZERO PUSH2 0xE77 JUMPI PUSH0 DUP1 REVERT JUMPDEST POP PUSH2 0x58C PUSH1 0x16 SLOAD DUP2 JUMP JUMPDEST CALLVALUE DUP1 ISZERO PUSH2 0xE8C JUMPI PUSH0 DUP1 REVERT JUMPDEST POP PUSH2 0x58C PUSH1 0x12 SLOAD DUP2 JUMP JUMPDEST CALLVALUE DUP1 ISZERO PUSH2 0xEA1 JUMPI PUSH0 DUP1 REVERT JUMPDEST POP PUSH2 0x5B9 PUSH2 0x36A4 JUMP JUMPDEST CALLVALUE DUP1 ISZERO PUSH2 0xEB5 JUMPI PUSH0 DUP1 REVERT JUMPDEST POP PUSH2 0x58C PUSH32 0x65D7A28E3265B37A6474929F336521B332C1681B933F6CB9F3376673440D862A DUP2 JUMP JUMPDEST CALLVALUE DUP1 ISZERO PUSH2 0xEE8 JUMPI PUSH0 DUP1 REVERT JUMPDEST POP PUSH2 0x58C PUSH2 0xEF7 CALLDATASIZE PUSH1 0x4 PUSH2 0x40C6 JUMP JUMPDEST PUSH1 0xA PUSH1 0x20 MSTORE PUSH0 SWAP1 DUP2 MSTORE PUSH1 0x40 SWAP1 KECCAK256 SLOAD DUP2 JUMP JUMPDEST CALLVALUE DUP1 ISZERO PUSH2 0xF13 JUMPI PUSH0 DUP1 REVERT JUMPDEST POP PUSH2 0x58C PUSH32 0x241ECF16D79D0F8DBFB92CBC07FE17840425976CF0667F022FE9877CAA831B08 DUP2 JUMP JUMPDEST CALLVALUE DUP1 ISZERO PUSH2 0xF46 JUMPI PUSH0 DUP1 REVERT JUMPDEST POP PUSH2 0x58C PUSH1 0x2 SLOAD DUP2 JUMP JUMPDEST CALLVALUE DUP1 ISZERO PUSH2 0xF5B JUMPI PUSH0 DUP1 REVERT JUMPDEST POP PUSH1 0x5 SLOAD PUSH2 0x7F2 SWAP1 PUSH1 0x1 PUSH1 0x50 SHL SWAP1 DIV PUSH1 0x1 PUSH1 0x1 PUSH1 0xA0 SHL SUB AND DUP2 JUMP JUMPDEST CALLVALUE DUP1 ISZERO PUSH2 0xF81 JUMPI PUSH0 DUP1 REVERT JUMPDEST POP PUSH2 0x5B9 PUSH2 0xF90 CALLDATASIZE PUSH1 0x4 PUSH2 0x43CF JUMP JUMPDEST PUSH2 0x37BF JUMP JUMPDEST CALLVALUE DUP1 ISZERO PUSH2 0xFA0 JUMPI PUSH0 DUP1 REVERT JUMPDEST POP PUSH2 0x5B9 PUSH2 0xFAF CALLDATASIZE PUSH1 0x4 PUSH2 0x4457 JUMP JUMPDEST PUSH2 0x386E JUMP JUMPDEST PUSH2 0x5B9 PUSH2 0x38DE JUMP JUMPDEST CALLVALUE DUP1 ISZERO PUSH2 0xFC7 JUMPI PUSH0 DUP1 REVERT JUMPDEST POP PUSH2 0x5B9 PUSH2 0xFD6 CALLDATASIZE PUSH1 0x4 PUSH2 0x41B2 JUMP JUMPDEST PUSH2 0x39E6 JUMP JUMPDEST CALLVALUE DUP1 ISZERO PUSH2 0xFE6 JUMPI PUSH0 DUP1 REVERT JUMPDEST POP PUSH2 0x58C PUSH1 0x17 SLOAD DUP2 JUMP JUMPDEST PUSH0 PUSH1 0x1 PUSH1 0x1 PUSH1 0xE0 SHL SUB NOT DUP3 AND PUSH4 0x7965DB0B PUSH1 0xE0 SHL EQ DUP1 PUSH2 0x1020 JUMPI POP PUSH4 0x1FFC9A7 PUSH1 0xE0 SHL PUSH1 0x1 PUSH1 0x1 PUSH1 0xE0 SHL SUB NOT DUP4 AND EQ JUMPDEST SWAP3 SWAP2 POP POP JUMP JUMPDEST PUSH0 DUP1 MLOAD PUSH1 0x20 PUSH2 0x4691 DUP4 CODECOPY DUP2 MLOAD SWAP2 MSTORE PUSH2 0x103D DUP2 PUSH2 0x3BD4 JUMP JUMPDEST POP PUSH1 0x5 DUP1 SLOAD SWAP2 ISZERO ISZERO PUSH3 0x10000 MUL PUSH3 0xFF0000 NOT SWAP1 SWAP3 AND SWAP2 SWAP1 SWAP2 OR SWAP1 SSTORE JUMP JUMPDEST PUSH1 0x6 PUSH1 0x20 MSTORE DUP2 PUSH0 MSTORE PUSH1 0x40 PUSH0 KECCAK256 DUP2 DUP2 SLOAD DUP2 LT PUSH2 0x1073 JUMPI PUSH0 DUP1 REVERT JUMPDEST PUSH0 SWAP2 DUP3 MSTORE PUSH1 0x20 SWAP1 SWAP2 KECCAK256 PUSH1 0x2 SWAP1 SWAP2 MUL ADD DUP1 SLOAD PUSH1 0x1 SWAP1 SWAP2 ADD SLOAD PUSH1 0x1 PUSH1 0x1 PUSH1 0x60 SHL SUB DUP1 DUP4 AND SWAP5 POP PUSH1 0x1 PUSH1 0x60 SHL DUP4 DIV AND SWAP3 POP PUSH6 0xFFFFFFFFFFFF PUSH1 0x1 PUSH1 0xC0 SHL SWAP1 SWAP3 DIV DUP3 AND SWAP2 DUP2 AND SWAP1 PUSH1 0xFF PUSH7 0x1000000000000 DUP3 DIV DUP2 AND SWAP2 PUSH1 0x1 PUSH1 0x38 SHL SWAP1 DIV AND DUP7 JUMP JUMPDEST PUSH32 0x241ECF16D79D0F8DBFB92CBC07FE17840425976CF0667F022FE9877CAA831B08 PUSH2 0x10FA DUP2 PUSH2 0x3BD4 JUMP JUMPDEST PUSH2 0x1102 PUSH2 0x3BE5 JUMP JUMPDEST CALLVALUE PUSH0 SUB PUSH2 0x1122 JUMPI PUSH1 0x40 MLOAD PUSH4 0x162908E3 PUSH1 0xE1 SHL DUP2 MSTORE PUSH1 0x4 ADD PUSH1 0x40 MLOAD DUP1 SWAP2 SUB SWAP1 REVERT JUMPDEST PUSH1 0x17 SLOAD CALLVALUE GT ISZERO PUSH2 0x1145 JUMPI PUSH1 0x40 MLOAD PUSH4 0x4711311 PUSH1 0xE2 SHL DUP2 MSTORE PUSH1 0x4 ADD PUSH1 0x40 MLOAD DUP1 SWAP2 SUB SWAP1 REVERT JUMPDEST CALLVALUE PUSH1 0x17 PUSH0 DUP3 DUP3 SLOAD PUSH2 0x1156 SWAP2 SWAP1 PUSH2 0x448A JUMP JUMPDEST SWAP1 SWAP2 SSTORE POP PUSH2 0x1164 SWAP1 POP PUSH2 0x3C0F JUMP JUMPDEST PUSH1 0x1 PUSH1 0x1 PUSH1 0xA0 SHL SUB AND PUSH32 0x1B0029D3A4003762F16D0DC71199CE167B1D4BF00C5B97A3E28F613E921D6540 PUSH0 CALLVALUE TIMESTAMP PUSH1 0x40 MLOAD PUSH2 0x11A0 SWAP4 SWAP3 SWAP2 SWAP1 PUSH2 0x449D JUMP JUMPDEST PUSH1 0x40 MLOAD DUP1 SWAP2 SUB SWAP1 LOG2 PUSH2 0x11B1 PUSH1 0x1 DUP1 SSTORE JUMP JUMPDEST POP JUMP JUMPDEST PUSH2 0x11BC PUSH2 0x3BE5 JUMP JUMPDEST PUSH0 PUSH2 0x11C5 PUSH2 0x3C0F JUMP JUMPDEST PUSH1 0x1 PUSH1 0x1 PUSH1 0xA0 SHL SUB DUP2 AND PUSH0 SWAP1 DUP2 MSTORE PUSH1 0x9 PUSH1 0x20 MSTORE PUSH1 0x40 DUP2 KECCAK256 SLOAD SWAP2 SWAP3 POP DUP2 SWAP1 SUB PUSH2 0x1200 JUMPI PUSH1 0x40 MLOAD PUSH4 0x3BD65A7B PUSH1 0xE2 SHL DUP2 MSTORE PUSH1 0x4 ADD PUSH1 0x40 MLOAD DUP1 SWAP2 SUB SWAP1 REVERT JUMPDEST PUSH1 0x1 PUSH1 0x1 PUSH1 0xA0 SHL SUB DUP3 AND PUSH0 SWAP1 DUP2 MSTORE PUSH1 0x9 PUSH1 0x20 MSTORE PUSH1 0x40 DUP2 KECCAK256 DUP2 SWAP1 SSTORE PUSH2 0x1228 SWAP1 DUP4 SWAP1 DUP4 PUSH1 0x1 PUSH2 0x3C1D JUMP JUMPDEST DUP1 PUSH1 0x15 PUSH0 DUP3 DUP3 SLOAD PUSH2 0x1239 SWAP2 SWAP1 PUSH2 0x44BC JUMP JUMPDEST SWAP1 SWAP2 SSTORE POP POP PUSH1 0x1 PUSH1 0x1 PUSH1 0xA0 SHL SUB DUP3 AND PUSH0 SWAP1 DUP2 MSTORE PUSH1 0xB PUSH1 0x20 MSTORE PUSH1 0x40 DUP2 KECCAK256 DUP1 SLOAD DUP4 SWAP3 SWAP1 PUSH2 0x1265 SWAP1 DUP5 SWAP1 PUSH2 0x44BC JUMP JUMPDEST SWAP3 POP POP DUP2 SWAP1 SSTORE POP DUP2 PUSH1 0x1 PUSH1 0x1 PUSH1 0xA0 SHL SUB AND PUSH32 0x997D2EC09B086DE73D509BBC4AD2B52FD7E2338024464BEDE93A41ABD6CCDC38 PUSH0 DUP4 TIMESTAMP PUSH1 0x40 MLOAD PUSH2 0x12A9 SWAP4 SWAP3 SWAP2 SWAP1 PUSH2 0x449D JUMP JUMPDEST PUSH1 0x40 MLOAD DUP1 SWAP2 SUB SWAP1 LOG2 POP POP PUSH2 0x12BC PUSH1 0x1 DUP1 SSTORE JUMP JUMPDEST JUMP JUMPDEST PUSH1 0x1 PUSH1 0x1 PUSH1 0xA0 SHL SUB DUP2 AND PUSH0 SWAP1 DUP2 MSTORE PUSH1 0x6 PUSH1 0x20 SWAP1 DUP2 MSTORE PUSH1 0x40 DUP1 DUP4 KECCAK256 DUP1 SLOAD DUP3 MLOAD DUP2 DUP6 MUL DUP2 ADD DUP6 ADD SWAP1 SWAP4 MSTORE DUP1 DUP4 MSTORE PUSH1 0x60 SWAP5 SWAP3 SWAP4 SWAP2 SWAP3 SWAP1 SWAP2 DUP5 ADD JUMPDEST DUP3 DUP3 LT ISZERO PUSH2 0x13B9 JUMPI PUSH0 DUP5 DUP2 MSTORE PUSH1 0x20 SWAP1 DUP2 SWAP1 KECCAK256 PUSH1 0x40 DUP1 MLOAD PUSH1 0xC0 DUP2 ADD DUP3 MSTORE PUSH1 0x2 DUP7 MUL SWAP1 SWAP3 ADD DUP1 SLOAD PUSH1 0x1 PUSH1 0x1 PUSH1 0x60 SHL SUB DUP1 DUP3 AND DUP6 MSTORE PUSH1 0x1 PUSH1 0x60 SHL DUP3 DIV AND SWAP5 DUP5 ADD SWAP5 SWAP1 SWAP5 MSTORE PUSH1 0x1 PUSH1 0xC0 SHL SWAP1 SWAP4 DIV PUSH6 0xFFFFFFFFFFFF SWAP1 DUP2 AND SWAP2 DUP4 ADD SWAP2 SWAP1 SWAP2 MSTORE PUSH1 0x1 DUP1 DUP5 ADD SLOAD SWAP2 DUP3 AND PUSH1 0x60 DUP5 ADD MSTORE SWAP2 SWAP3 SWAP2 PUSH1 0x80 DUP5 ADD SWAP2 PUSH7 0x1000000000000 SWAP1 DIV PUSH1 0xFF AND SWAP1 DUP2 GT ISZERO PUSH2 0x1382 JUMPI PUSH2 0x1382 PUSH2 0x412F JUMP JUMPDEST PUSH1 0x1 DUP2 GT ISZERO PUSH2 0x1393 JUMPI PUSH2 0x1393 PUSH2 0x412F JUMP JUMPDEST DUP2 MSTORE PUSH1 0x1 SWAP2 DUP3 ADD SLOAD PUSH1 0x1 PUSH1 0x38 SHL SWAP1 DIV PUSH1 0xFF AND PUSH1 0x20 SWAP2 DUP3 ADD MSTORE SWAP2 DUP4 MSTORE SWAP3 SWAP1 SWAP3 ADD SWAP2 ADD PUSH2 0x12F5 JUMP JUMPDEST POP POP POP POP SWAP1 POP SWAP2 SWAP1 POP JUMP JUMPDEST PUSH2 0x13CC PUSH2 0x3BE5 JUMP JUMPDEST PUSH1 0x5 SLOAD PUSH2 0x100 SWAP1 DIV PUSH1 0xFF AND ISZERO PUSH2 0x13F5 JUMPI PUSH1 0x40 MLOAD PUSH4 0x6022A9E7 PUSH1 0xE0 SHL DUP2 MSTORE PUSH1 0x4 ADD PUSH1 0x40 MLOAD DUP1 SWAP2 SUB SWAP1 REVERT JUMPDEST PUSH0 PUSH2 0x13FE PUSH2 0x3C0F JUMP JUMPDEST PUSH1 0x1 PUSH1 0x1 PUSH1 0xA0 SHL SUB DUP2 AND PUSH0 SWAP1 DUP2 MSTORE PUSH1 0x6 PUSH1 0x20 MSTORE PUSH1 0x40 DUP2 KECCAK256 DUP1 SLOAD SWAP3 SWAP4 POP SWAP1 SWAP2 DUP5 SWAP1 DUP2 LT PUSH2 0x142C JUMPI PUSH2 0x142C PUSH2 0x44CF JUMP JUMPDEST PUSH0 SWAP2 DUP3 MSTORE PUSH1 0x20 SWAP1 SWAP2 KECCAK256 PUSH1 0x1 PUSH1 0x2 SWAP1 SWAP3 MUL ADD DUP2 DUP2 ADD SLOAD SWAP1 SWAP3 POP PUSH1 0x1 PUSH1 0x38 SHL SWAP1 DIV AND ISZERO PUSH2 0x146A JUMPI PUSH1 0x40 MLOAD PUSH4 0x6507689F PUSH1 0xE0 SHL DUP2 MSTORE PUSH1 0x4 ADD PUSH1 0x40 MLOAD DUP1 SWAP2 SUB SWAP1 REVERT JUMPDEST PUSH1 0x2 SLOAD DUP2 SLOAD PUSH2 0x1488 SWAP2 SWAP1 PUSH1 0x1 PUSH1 0xC0 SHL SWAP1 DIV PUSH6 0xFFFFFFFFFFFF AND PUSH2 0x44BC JUMP JUMPDEST TIMESTAMP LT DUP1 ISZERO PUSH2 0x14A2 JUMPI POP PUSH1 0x1 DUP2 ADD SLOAD PUSH1 0x1 PUSH1 0x38 SHL SWAP1 DIV PUSH1 0x2 AND ISZERO JUMPDEST DUP1 ISZERO PUSH2 0x14D1 JUMPI POP PUSH1 0x5 SLOAD PUSH4 0x1000000 SWAP1 DIV PUSH1 0xFF AND DUP1 ISZERO PUSH2 0x14CF JUMPI POP PUSH1 0x1 DUP2 ADD SLOAD PUSH1 0x1 PUSH1 0x38 SHL SWAP1 DIV PUSH1 0x4 AND ISZERO ISZERO JUMPDEST ISZERO JUMPDEST ISZERO PUSH2 0x14EF JUMPI PUSH1 0x40 MLOAD PUSH4 0xF38B9B5B PUSH1 0xE0 SHL DUP2 MSTORE PUSH1 0x4 ADD PUSH1 0x40 MLOAD DUP1 SWAP2 SUB SWAP1 REVERT JUMPDEST PUSH1 0x1 DUP2 DUP2 ADD DUP1 SLOAD PUSH8 0xFF00FFFFFFFFFFFF NOT DUP2 AND PUSH1 0x1 PUSH1 0x38 SHL SWAP2 DUP3 SWAP1 DIV PUSH1 0xFF AND SWAP1 SWAP4 OR MUL PUSH6 0xFFFFFFFFFFFF NOT AND SWAP2 SWAP1 SWAP2 OR TIMESTAMP PUSH6 0xFFFFFFFFFFFF AND OR SWAP1 SSTORE DUP1 SLOAD PUSH1 0x1 PUSH1 0x1 PUSH1 0x60 SHL SUB DUP1 DUP3 AND SWAP2 PUSH1 0x1 PUSH1 0x60 SHL SWAP1 DIV AND PUSH0 PUSH1 0x1 DUP5 DUP2 ADD SLOAD PUSH7 0x1000000000000 SWAP1 DIV PUSH1 0xFF AND SWAP1 DUP2 GT ISZERO PUSH2 0x1565 JUMPI PUSH2 0x1565 PUSH2 0x412F JUMP JUMPDEST SUB PUSH2 0x15FC JUMPI DUP2 PUSH1 0x11 PUSH0 DUP3 DUP3 SLOAD PUSH2 0x157B SWAP2 SWAP1 PUSH2 0x44BC JUMP JUMPDEST SWAP1 SWAP2 SSTORE POP PUSH0 SWAP1 POP PUSH1 0x1 PUSH1 0x1 PUSH1 0xA0 SHL SUB DUP6 AND PUSH2 0x1596 DUP4 DUP6 PUSH2 0x44BC JUMP JUMPDEST PUSH1 0x40 MLOAD PUSH0 DUP2 DUP2 DUP2 DUP6 DUP8 GAS CALL SWAP3 POP POP POP RETURNDATASIZE DUP1 PUSH0 DUP2 EQ PUSH2 0x15CF JUMPI PUSH1 0x40 MLOAD SWAP2 POP PUSH1 0x1F NOT PUSH1 0x3F RETURNDATASIZE ADD AND DUP3 ADD PUSH1 0x40 MSTORE RETURNDATASIZE DUP3 MSTORE RETURNDATASIZE PUSH0 PUSH1 0x20 DUP5 ADD RETURNDATACOPY PUSH2 0x15D4 JUMP JUMPDEST PUSH1 0x60 SWAP2 POP JUMPDEST POP POP SWAP1 POP DUP1 PUSH2 0x15F6 JUMPI PUSH1 0x40 MLOAD PUSH4 0x12171D83 PUSH1 0xE3 SHL DUP2 MSTORE PUSH1 0x4 ADD PUSH1 0x40 MLOAD DUP1 SWAP2 SUB SWAP1 REVERT JUMPDEST POP PUSH2 0x16BA JUMP JUMPDEST DUP2 PUSH1 0x12 PUSH0 DUP3 DUP3 SLOAD PUSH2 0x160D SWAP2 SWAP1 PUSH2 0x44BC JUMP JUMPDEST SWAP1 SWAP2 SSTORE POP POP PUSH1 0x1 PUSH1 0x1 PUSH1 0xA0 SHL SUB PUSH32 0x0 AND PUSH4 0xA9059CBB DUP6 PUSH2 0x164C DUP5 DUP7 PUSH2 0x44BC JUMP JUMPDEST PUSH1 0x40 MLOAD PUSH1 0x1 PUSH1 0x1 PUSH1 0xE0 SHL SUB NOT PUSH1 0xE0 DUP6 SWAP1 SHL AND DUP2 MSTORE PUSH1 0x1 PUSH1 0x1 PUSH1 0xA0 SHL SUB SWAP1 SWAP3 AND PUSH1 0x4 DUP4 ADD MSTORE PUSH1 0x24 DUP3 ADD MSTORE PUSH1 0x44 ADD PUSH1 0x20 PUSH1 0x40 MLOAD DUP1 DUP4 SUB DUP2 PUSH0 DUP8 GAS CALL ISZERO DUP1 ISZERO PUSH2 0x1694 JUMPI RETURNDATASIZE PUSH0 DUP1 RETURNDATACOPY RETURNDATASIZE PUSH0 REVERT JUMPDEST POP POP POP POP PUSH1 0x40 MLOAD RETURNDATASIZE PUSH1 0x1F NOT PUSH1 0x1F DUP3 ADD AND DUP3 ADD DUP1 PUSH1 0x40 MSTORE POP DUP2 ADD SWAP1 PUSH2 0x16B8 SWAP2 SWAP1 PUSH2 0x44E3 JUMP JUMPDEST POP JUMPDEST PUSH1 0x1 PUSH1 0x1 PUSH1 0xA0 SHL SUB DUP5 AND PUSH0 SWAP1 DUP2 MSTORE PUSH1 0x8 PUSH1 0x20 MSTORE PUSH1 0x40 SWAP1 KECCAK256 SLOAD PUSH1 0xFF AND PUSH2 0x1749 JUMPI PUSH1 0xE DUP1 SLOAD PUSH1 0x1 DUP1 DUP3 ADD SWAP1 SWAP3 SSTORE PUSH32 0xBB7B4A454DC3493923482F07822329ED19E8244EFF582CC204F8554C3620C3FD ADD DUP1 SLOAD PUSH20 0xFFFFFFFFFFFFFFFFFFFFFFFFFFFFFFFFFFFFFFFF NOT AND PUSH1 0x1 PUSH1 0x1 PUSH1 0xA0 SHL SUB DUP8 AND SWAP1 DUP2 OR SWAP1 SWAP2 SSTORE PUSH0 SWAP1 DUP2 MSTORE PUSH1 0x8 PUSH1 0x20 MSTORE PUSH1 0x40 SWAP1 KECCAK256 DUP1 SLOAD PUSH1 0xFF NOT AND SWAP1 SWAP2 OR SWAP1 SSTORE JUMPDEST PUSH1 0x1 DUP4 ADD SLOAD PUSH1 0x40 MLOAD PUSH1 0x1 PUSH1 0x1 PUSH1 0xA0 SHL SUB DUP7 AND SWAP2 PUSH32 0xCB034B37EF3764745C35BAFECD525367BCF312E9010239E6AEEBBE6BCF57727F SWAP2 PUSH2 0x179D SWAP2 PUSH7 0x1000000000000 SWAP1 DIV PUSH1 0xFF AND SWAP1 DUP7 SWAP1 DUP7 SWAP1 TIMESTAMP SWAP1 DUP13 SWAP1 PUSH2 0x44FE JUMP JUMPDEST PUSH1 0x40 MLOAD DUP1 SWAP2 SUB SWAP1 LOG2 POP POP POP POP PUSH2 0x11B1 PUSH1 0x1 DUP1 SSTORE JUMP JUMPDEST PUSH0 DUP3 DUP2 MSTORE PUSH1 0x20 DUP2 SWAP1 MSTORE PUSH1 0x40 SWAP1 KECCAK256 PUSH1 0x1 ADD SLOAD PUSH2 0x17CC DUP2 PUSH2 0x3BD4 JUMP JUMPDEST PUSH2 0x17D6 DUP4 DUP4 PUSH2 0x3E76 JUMP JUMPDEST POP POP POP POP JUMP JUMPDEST PUSH2 0x17E4 PUSH2 0x3C0F JUMP JUMPDEST PUSH1 0x1 PUSH1 0x1 PUSH1 0xA0 SHL SUB AND DUP2 PUSH1 0x1 PUSH1 0x1 PUSH1 0xA0 SHL SUB AND EQ PUSH2 0x1815 JUMPI PUSH1 0x40 MLOAD PUSH4 0x334BD919 PUSH1 0xE1 SHL DUP2 MSTORE PUSH1 0x4 ADD PUSH1 0x40 MLOAD DUP1 SWAP2 SUB SWAP1 REVERT JUMPDEST PUSH2 0x181F DUP3 DUP3 PUSH2 0x3F1E JUMP JUMPDEST POP POP POP JUMP JUMPDEST PUSH0 DUP1 MLOAD PUSH1 0x20 PUSH2 0x4691 DUP4 CODECOPY DUP2 MLOAD SWAP2 MSTORE PUSH2 0x183B DUP2 PUSH2 0x3BD4 JUMP JUMPDEST DUP4 DUP3 EQ PUSH2 0x185B JUMPI PUSH1 0x40 MLOAD PUSH4 0x512509D3 PUSH1 0xE1 SHL DUP2 MSTORE PUSH1 0x4 ADD PUSH1 0x40 MLOAD DUP1 SWAP2 SUB SWAP1 REVERT JUMPDEST PUSH0 DUP1 JUMPDEST DUP6 DUP2 LT ISZERO PUSH2 0x1915 JUMPI PUSH0 DUP6 DUP6 DUP4 DUP2 DUP2 LT PUSH2 0x1879 JUMPI PUSH2 0x1879 PUSH2 0x44CF JUMP JUMPDEST SWAP1 POP PUSH1 0x20 MUL ADD CALLDATALOAD SWAP1 POP DUP1 PUSH0 SUB PUSH2 0x18A2 JUMPI PUSH1 0x40 MLOAD PUSH4 0x162908E3 PUSH1 0xE1 SHL DUP2 MSTORE PUSH1 0x4 ADD PUSH1 0x40 MLOAD DUP1 SWAP2 SUB SWAP1 REVERT JUMPDEST DUP1 PUSH1 0xA PUSH0 DUP11 DUP11 DUP7 DUP2 DUP2 LT PUSH2 0x18B8 JUMPI PUSH2 0x18B8 PUSH2 0x44CF JUMP JUMPDEST SWAP1 POP PUSH1 0x20 MUL ADD PUSH1 0x20 DUP2 ADD SWAP1 PUSH2 0x18CD SWAP2 SWAP1 PUSH2 0x40C6 JUMP JUMPDEST PUSH1 0x1 PUSH1 0x1 PUSH1 0xA0 SHL SUB AND PUSH1 0x1 PUSH1 0x1 PUSH1 0xA0 SHL SUB AND DUP2 MSTORE PUSH1 0x20 ADD SWAP1 DUP2 MSTORE PUSH1 0x20 ADD PUSH0 KECCAK256 PUSH0 DUP3 DUP3 SLOAD PUSH2 0x18FA SWAP2 SWAP1 PUSH2 0x44BC JUMP JUMPDEST SWAP1 SWAP2 SSTORE POP PUSH2 0x190A SWAP1 POP DUP2 DUP5 PUSH2 0x44BC JUMP JUMPDEST SWAP3 POP POP PUSH1 0x1 ADD PUSH2 0x185E JUMP JUMPDEST POP PUSH1 0x14 SLOAD DUP2 GT ISZERO PUSH2 0x1939 JUMPI PUSH1 0x40 MLOAD PUSH4 0x2F37549D PUSH1 0xE0 SHL DUP2 MSTORE PUSH1 0x4 ADD PUSH1 0x40 MLOAD DUP1 SWAP2 SUB SWAP1 REVERT JUMPDEST DUP1 PUSH1 0x14 PUSH0 DUP3 DUP3 SLOAD PUSH2 0x194A SWAP2 SWAP1 PUSH2 0x448A JUMP JUMPDEST SWAP1 SWAP2 SSTORE POP POP POP POP POP POP POP POP JUMP JUMPDEST PUSH0 DUP1 MLOAD PUSH1 0x20 PUSH2 0x4691 DUP4 CODECOPY DUP2 MLOAD SWAP2 MSTORE PUSH2 0x196E DUP2 PUSH2 0x3BD4 JUMP JUMPDEST DUP4 DUP3 EQ PUSH2 0x198E JUMPI PUSH1 0x40 MLOAD PUSH4 0x512509D3 PUSH1 0xE1 SHL DUP2 MSTORE PUSH1 0x4 ADD PUSH1 0x40 MLOAD DUP1 SWAP2 SUB SWAP1 REVERT JUMPDEST PUSH0 JUMPDEST DUP5 DUP2 LT ISZERO PUSH2 0x1AA3 JUMPI DUP4 DUP4 DUP3 DUP2 DUP2 LT PUSH2 0x19AA JUMPI PUSH2 0x19AA PUSH2 0x44CF JUMP JUMPDEST SWAP1 POP PUSH1 0x20 MUL ADD PUSH1 0x20 DUP2 ADD SWAP1 PUSH2 0x19BF SWAP2 SWAP1 PUSH2 0x40EC JUMP JUMPDEST PUSH1 0x7 PUSH0 DUP9 DUP9 DUP6 DUP2 DUP2 LT PUSH2 0x19D4 JUMPI PUSH2 0x19D4 PUSH2 0x44CF JUMP JUMPDEST SWAP1 POP PUSH1 0x20 MUL ADD PUSH1 0x20 DUP2 ADD SWAP1 PUSH2 0x19E9 SWAP2 SWAP1 PUSH2 0x40C6 JUMP JUMPDEST PUSH1 0x1 PUSH1 0x1 PUSH1 0xA0 SHL SUB AND DUP2 MSTORE PUSH1 0x20 DUP2 ADD SWAP2 SWAP1 SWAP2 MSTORE PUSH1 0x40 ADD PUSH0 KECCAK256 DUP1 SLOAD PUSH1 0xFF NOT AND SWAP2 ISZERO ISZERO SWAP2 SWAP1 SWAP2 OR SWAP1 SSTORE DUP6 DUP6 DUP3 DUP2 DUP2 LT PUSH2 0x1A22 JUMPI PUSH2 0x1A22 PUSH2 0x44CF JUMP JUMPDEST SWAP1 POP PUSH1 0x20 MUL ADD PUSH1 0x20 DUP2 ADD SWAP1 PUSH2 0x1A37 SWAP2 SWAP1 PUSH2 0x40C6 JUMP JUMPDEST PUSH1 0x1 PUSH1 0x1 PUSH1 0xA0 SHL SUB AND PUSH32 0x995D2434D36C9BCEAAB42C56EFE51E8FFE41FD11CABEFD9E2CB83700D8B2035E DUP6 DUP6 DUP5 DUP2 DUP2 LT PUSH2 0x1A73 JUMPI PUSH2 0x1A73 PUSH2 0x44CF JUMP JUMPDEST SWAP1 POP PUSH1 0x20 MUL ADD PUSH1 0x20 DUP2 ADD SWAP1 PUSH2 0x1A88 SWAP2 SWAP1 PUSH2 0x40EC JUMP JUMPDEST PUSH1 0x40 MLOAD SWAP1 ISZERO ISZERO DUP2 MSTORE PUSH1 0x20 ADD PUSH1 0x40 MLOAD DUP1 SWAP2 SUB SWAP1 LOG2 PUSH1 0x1 ADD PUSH2 0x1990 JUMP JUMPDEST POP POP POP POP POP POP JUMP JUMPDEST PUSH1 0x1 PUSH1 0x1 PUSH1 0xA0 SHL SUB DUP2 AND PUSH0 SWAP1 DUP2 MSTORE PUSH1 0x6 PUSH1 0x20 MSTORE PUSH1 0x40 DUP2 KECCAK256 DUP2 SWAP1 DUP2 SWAP1 DUP2 SWAP1 DUP2 SWAP1 DUP2 SWAP1 DUP2 SWAP1 DUP2 SWAP1 DUP2 JUMPDEST DUP2 SLOAD DUP2 LT ISZERO PUSH2 0x1C9B JUMPI PUSH0 DUP3 DUP3 DUP2 SLOAD DUP2 LT PUSH2 0x1AEE JUMPI PUSH2 0x1AEE PUSH2 0x44CF JUMP JUMPDEST PUSH0 SWAP2 DUP3 MSTORE PUSH1 0x20 SWAP2 DUP3 SWAP1 KECCAK256 PUSH1 0x40 DUP1 MLOAD PUSH1 0xC0 DUP2 ADD DUP3 MSTORE PUSH1 0x2 SWAP1 SWAP4 MUL SWAP1 SWAP2 ADD DUP1 SLOAD PUSH1 0x1 PUSH1 0x1 PUSH1 0x60 SHL SUB DUP1 DUP3 AND DUP6 MSTORE PUSH1 0x1 PUSH1 0x60 SHL DUP3 DIV AND SWAP5 DUP5 ADD SWAP5 SWAP1 SWAP5 MSTORE PUSH6 0xFFFFFFFFFFFF PUSH1 0x1 PUSH1 0xC0 SHL SWAP1 SWAP5 DIV DUP5 AND SWAP2 DUP4 ADD SWAP2 SWAP1 SWAP2 MSTORE PUSH1 0x1 DUP1 DUP3 ADD SLOAD SWAP4 DUP5 AND PUSH1 0x60 DUP5 ADD MSTORE SWAP2 SWAP3 SWAP1 SWAP2 PUSH1 0x80 DUP5 ADD SWAP2 PUSH1 0xFF PUSH7 0x1000000000000 SWAP1 SWAP2 DIV AND SWAP1 DUP2 GT ISZERO PUSH2 0x1B75 JUMPI PUSH2 0x1B75 PUSH2 0x412F JUMP JUMPDEST PUSH1 0x1 DUP2 GT ISZERO PUSH2 0x1B86 JUMPI PUSH2 0x1B86 PUSH2 0x412F JUMP JUMPDEST DUP2 MSTORE PUSH1 0x1 SWAP2 SWAP1 SWAP2 ADD SLOAD PUSH1 0x1 PUSH1 0x38 SHL SWAP1 DIV PUSH1 0xFF AND PUSH1 0x20 SWAP1 SWAP2 ADD MSTORE PUSH1 0xA0 DUP2 ADD MLOAD SWAP1 SWAP2 POP PUSH1 0x8 AND ISZERO ISZERO PUSH0 DUP3 PUSH1 0x80 ADD MLOAD PUSH1 0x1 DUP2 GT ISZERO PUSH2 0x1BC3 JUMPI PUSH2 0x1BC3 PUSH2 0x412F JUMP JUMPDEST SUB PUSH2 0x1C2F JUMPI DUP2 MLOAD PUSH2 0x1BDD SWAP1 PUSH1 0x1 PUSH1 0x1 PUSH1 0x60 SHL SUB AND DUP14 PUSH2 0x44BC JUMP JUMPDEST SWAP12 POP PUSH2 0x1BEF DUP3 PUSH1 0xA0 ADD MLOAD PUSH1 0x1 AND ISZERO ISZERO SWAP1 JUMP JUMPDEST ISZERO PUSH2 0x1C0C JUMPI DUP2 MLOAD PUSH2 0x1C09 SWAP1 PUSH1 0x1 PUSH1 0x1 PUSH1 0x60 SHL SUB AND DUP12 PUSH2 0x44BC JUMP JUMPDEST SWAP10 POP JUMPDEST DUP1 ISZERO PUSH2 0x1C2A JUMPI DUP2 MLOAD PUSH2 0x1C27 SWAP1 PUSH1 0x1 PUSH1 0x1 PUSH1 0x60 SHL SUB AND DUP8 PUSH2 0x44BC JUMP JUMPDEST SWAP6 POP JUMPDEST PUSH2 0x1C91 JUMP JUMPDEST DUP2 MLOAD PUSH2 0x1C44 SWAP1 PUSH1 0x1 PUSH1 0x1 PUSH1 0x60 SHL SUB AND DUP13 PUSH2 0x44BC JUMP JUMPDEST SWAP11 POP PUSH2 0x1C56 DUP3 PUSH1 0xA0 ADD MLOAD PUSH1 0x1 AND ISZERO ISZERO SWAP1 JUMP JUMPDEST ISZERO PUSH2 0x1C73 JUMPI DUP2 MLOAD PUSH2 0x1C70 SWAP1 PUSH1 0x1 PUSH1 0x1 PUSH1 0x60 SHL SUB AND DUP11 PUSH2 0x44BC JUMP JUMPDEST SWAP9 POP JUMPDEST DUP1 ISZERO PUSH2 0x1C91 JUMPI DUP2 MLOAD PUSH2 0x1C8E SWAP1 PUSH1 0x1 PUSH1 0x1 PUSH1 0x60 SHL SUB AND DUP7 PUSH2 0x44BC JUMP JUMPDEST SWAP5 POP JUMPDEST POP POP PUSH1 0x1 ADD PUSH2 0x1AD2 JUMP JUMPDEST POP POP PUSH1 0x1 PUSH1 0x1 PUSH1 0xA0 SHL SUB SWAP1 SWAP9 AND PUSH0 SWAP1 DUP2 MSTORE PUSH1 0x9 PUSH1 0x20 SWAP1 DUP2 MSTORE PUSH1 0x40 DUP1 DUP4 KECCAK256 SLOAD PUSH1 0xA SWAP1 SWAP3 MSTORE SWAP1 SWAP2 KECCAK256 SLOAD SWAP8 SWAP10 SWAP7 SWAP9 SWAP6 SWAP8 SWAP5 SWAP7 SWAP1 SWAP6 SWAP2 SWAP4 POP SWAP1 SWAP2 POP JUMP JUMPDEST PUSH0 DUP1 MLOAD PUSH1 0x20 PUSH2 0x4691 DUP4 CODECOPY DUP2 MLOAD SWAP2 MSTORE PUSH2 0x1CEB DUP2 PUSH2 0x3BD4 JUMP JUMPDEST PUSH1 0x1 PUSH1 0x1 PUSH1 0xA0 SHL SUB DUP4 AND PUSH0 DUP2 DUP2 MSTORE PUSH1 0x7 PUSH1 0x20 SWAP1 DUP2 MSTORE PUSH1 0x40 SWAP2 DUP3 SWAP1 KECCAK256 DUP1 SLOAD PUSH1 0xFF NOT AND DUP7 ISZERO ISZERO SWAP1 DUP2 OR SWAP1 SWAP2 SSTORE SWAP2 MLOAD SWAP2 DUP3 MSTORE PUSH32 0x995D2434D36C9BCEAAB42C56EFE51E8FFE41FD11CABEFD9E2CB83700D8B2035E SWAP2 ADD PUSH1 0x40 MLOAD DUP1 SWAP2 SUB SWAP1 LOG2 POP POP POP JUMP JUMPDEST PUSH32 0x241ECF16D79D0F8DBFB92CBC07FE17840425976CF0667F022FE9877CAA831B08 PUSH2 0x1D74 DUP2 PUSH2 0x3BD4 JUMP JUMPDEST PUSH2 0x1D7C PUSH2 0x3BE5 JUMP JUMPDEST DUP2 PUSH0 SUB PUSH2 0x1D9C JUMPI PUSH1 0x40 MLOAD PUSH4 0x162908E3 PUSH1 0xE1 SHL DUP2 MSTORE PUSH1 0x4 ADD PUSH1 0x40 MLOAD DUP1 SWAP2 SUB SWAP1 REVERT JUMPDEST PUSH1 0x18 SLOAD DUP3 GT ISZERO PUSH2 0x1DBF JUMPI PUSH1 0x40 MLOAD PUSH4 0x4711311 PUSH1 0xE2 SHL DUP2 MSTORE PUSH1 0x4 ADD PUSH1 0x40 MLOAD DUP1 SWAP2 SUB SWAP1 REVERT JUMPDEST DUP2 PUSH1 0x18 PUSH0 DUP3 DUP3 SLOAD PUSH2 0x1DD0 SWAP2 SWAP1 PUSH2 0x448A JUMP JUMPDEST SWAP1 SWAP2 SSTORE POP POP PUSH1 0x1 PUSH1 0x1 PUSH1 0xA0 SHL SUB PUSH32 0x0 AND PUSH4 0x23B872DD PUSH2 0x1E0C PUSH2 0x3C0F JUMP JUMPDEST PUSH1 0x40 MLOAD PUSH1 0x1 PUSH1 0x1 PUSH1 0xE0 SHL SUB NOT PUSH1 0xE0 DUP5 SWAP1 SHL AND DUP2 MSTORE PUSH1 0x1 PUSH1 0x1 PUSH1 0xA0 SHL SUB SWAP1 SWAP2 AND PUSH1 0x4 DUP3 ADD MSTORE ADDRESS PUSH1 0x24 DUP3 ADD MSTORE PUSH1 0x44 DUP2 ADD DUP6 SWAP1 MSTORE PUSH1 0x64 ADD PUSH1 0x20 PUSH1 0x40 MLOAD DUP1 DUP4 SUB DUP2 PUSH0 DUP8 GAS CALL ISZERO DUP1 ISZERO PUSH2 0x1E5C JUMPI RETURNDATASIZE PUSH0 DUP1 RETURNDATACOPY RETURNDATASIZE PUSH0 REVERT JUMPDEST POP POP POP POP PUSH1 0x40 MLOAD RETURNDATASIZE PUSH1 0x1F NOT PUSH1 0x1F DUP3 ADD AND DUP3 ADD DUP1 PUSH1 0x40 MSTORE POP DUP2 ADD SWAP1 PUSH2 0x1E80 SWAP2 SWAP1 PUSH2 0x44E3 JUMP JUMPDEST POP PUSH2 0x1E89 PUSH2 0x3C0F JUMP JUMPDEST PUSH1 0x1 PUSH1 0x1 PUSH1 0xA0 SHL SUB AND PUSH32 0x1B0029D3A4003762F16D0DC71199CE167B1D4BF00C5B97A3E28F613E921D6540 PUSH1 0x1 DUP5 TIMESTAMP PUSH1 0x40 MLOAD PUSH2 0x1EC6 SWAP4 SWAP3 SWAP2 SWAP1 PUSH2 0x449D JUMP JUMPDEST PUSH1 0x40 MLOAD DUP1 SWAP2 SUB SWAP1 LOG2 PUSH2 0x1ED7 PUSH1 0x1 DUP1 SSTORE JUMP JUMPDEST POP POP JUMP JUMPDEST PUSH32 0xF60566C40710959D8D30B6067CE3C53C757BEC78EECB0E46B83C7F8194FFAE37 PUSH2 0x1F05 DUP2 PUSH2 0x3BD4 JUMP JUMPDEST CALLVALUE PUSH0 SUB PUSH2 0x1F25 JUMPI PUSH1 0x40 MLOAD PUSH4 0x162908E3 PUSH1 0xE1 SHL DUP2 MSTORE PUSH1 0x4 ADD PUSH1 0x40 MLOAD DUP1 SWAP2 SUB SWAP1 REVERT JUMPDEST CALLVALUE PUSH1 0x13 PUSH0 DUP3 DUP3 SLOAD PUSH2 0x1F36 SWAP2 SWAP1 PUSH2 0x44BC JUMP JUMPDEST SWAP1 SWAP2 SSTORE POP PUSH2 0x1F44 SWAP1 POP PUSH2 0x3C0F JUMP JUMPDEST PUSH1 0x1 PUSH1 0x1 PUSH1 0xA0 SHL SUB AND PUSH32 0x8BAFEC96FCFFB6F12596B4635C76397B7BC1F363B22C49C13136B63677323DCC PUSH0 CALLVALUE TIMESTAMP PUSH1 0x40 MLOAD PUSH2 0x1F80 SWAP4 SWAP3 SWAP2 SWAP1 PUSH2 0x449D JUMP JUMPDEST PUSH1 0x40 MLOAD DUP1 SWAP2 SUB SWAP1 LOG2 POP JUMP JUMPDEST PUSH32 0x65D7A28E3265B37A6474929F336521B332C1681B933F6CB9F3376673440D862A PUSH2 0x1FB5 DUP2 PUSH2 0x3BD4 JUMP JUMPDEST PUSH1 0x5 DUP1 SLOAD DUP4 ISZERO ISZERO PUSH2 0x100 DUP2 MUL PUSH2 0xFF00 NOT DUP8 ISZERO ISZERO SWAP1 DUP2 AND PUSH2 0xFFFF NOT SWAP1 SWAP5 AND SWAP4 SWAP1 SWAP4 OR OR SWAP1 SWAP3 SSTORE PUSH1 0x40 DUP1 MLOAD SWAP2 DUP3 MSTORE PUSH1 0x20 DUP3 ADD SWAP3 SWAP1 SWAP3 MSTORE PUSH32 0xAC1664632D6278432AA05A6AFC0AA83E5EA08E8DF9A1436736DAA5D6283211C0 SWAP2 ADD JUMPDEST PUSH1 0x40 MLOAD DUP1 SWAP2 SUB SWAP1 LOG1 POP POP POP JUMP JUMPDEST PUSH2 0x2022 PUSH2 0x3BE5 JUMP JUMPDEST PUSH0 PUSH2 0x202B PUSH2 0x3C0F JUMP JUMPDEST PUSH1 0x1 PUSH1 0x1 PUSH1 0xA0 SHL SUB DUP2 AND PUSH0 SWAP1 DUP2 MSTORE PUSH1 0xA PUSH1 0x20 MSTORE PUSH1 0x40 DUP2 KECCAK256 SLOAD SWAP2 SWAP3 POP DUP2 SWAP1 SUB PUSH2 0x2066 JUMPI PUSH1 0x40 MLOAD PUSH4 0x3BD65A7B PUSH1 0xE2 SHL DUP2 MSTORE PUSH1 0x4 ADD PUSH1 0x40 MLOAD DUP1 SWAP2 SUB SWAP1 REVERT JUMPDEST PUSH1 0x1 PUSH1 0x1 PUSH1 0xA0 SHL SUB DUP3 DUP2 AND PUSH0 DUP2 DUP2 MSTORE PUSH1 0xA PUSH1 0x20 MSTORE PUSH1 0x40 DUP1 DUP3 KECCAK256 SWAP2 SWAP1 SWAP2 SSTORE MLOAD PUSH4 0xA9059CBB PUSH1 0xE0 SHL DUP2 MSTORE PUSH1 0x4 DUP2 ADD SWAP2 SWAP1 SWAP2 MSTORE PUSH1 0x24 DUP2 ADD DUP4 SWAP1 MSTORE PUSH32 0x0 SWAP1 SWAP2 AND SWAP1 PUSH4 0xA9059CBB SWAP1 PUSH1 0x44 ADD PUSH1 0x20 PUSH1 0x40 MLOAD DUP1 DUP4 SUB DUP2 PUSH0 DUP8 GAS CALL ISZERO DUP1 ISZERO PUSH2 0x20E7 JUMPI RETURNDATASIZE PUSH0 DUP1 RETURNDATACOPY RETURNDATASIZE PUSH0 REVERT JUMPDEST POP POP POP POP PUSH1 0x40 MLOAD RETURNDATASIZE PUSH1 0x1F NOT PUSH1 0x1F DUP3 ADD AND DUP3 ADD DUP1 PUSH1 0x40 MSTORE POP DUP2 ADD SWAP1 PUSH2 0x210B SWAP2 SWAP1 PUSH2 0x44E3 JUMP JUMPDEST POP DUP2 PUSH1 0x1 PUSH1 0x1 PUSH1 0xA0 SHL SUB AND PUSH32 0x6914793C7A82461ACEC66C7DE7FDBBBF1F825C26BC2FE939B61F0E4F8964C2B5 PUSH1 0x1 DUP4 TIMESTAMP PUSH1 0x40 MLOAD PUSH2 0x12A9 SWAP4 SWAP3 SWAP2 SWAP1 PUSH2 0x449D JUMP JUMPDEST PUSH0 DUP1 MLOAD PUSH1 0x20 PUSH2 0x4691 DUP4 CODECOPY DUP2 MLOAD SWAP2 MSTORE PUSH2 0x2161 DUP2 PUSH2 0x3BD4 JUMP JUMPDEST DUP2 PUSH0 SUB PUSH2 0x2181 JUMPI PUSH1 0x40 MLOAD PUSH4 0x162908E3 PUSH1 0xE1 SHL DUP2 MSTORE PUSH1 0x4 ADD PUSH1 0x40 MLOAD DUP1 SWAP2 SUB SWAP1 REVERT JUMPDEST PUSH1 0x13 SLOAD DUP3 GT ISZERO PUSH2 0x21A4 JUMPI PUSH1 0x40 MLOAD PUSH4 0x2F37549D PUSH1 0xE0 SHL DUP2 MSTORE PUSH1 0x4 ADD PUSH1 0x40 MLOAD DUP1 SWAP2 SUB SWAP1 REVERT JUMPDEST PUSH1 0x1 PUSH1 0x1 PUSH1 0xA0 SHL SUB DUP4 AND PUSH0 SWAP1 DUP2 MSTORE PUSH1 0x9 PUSH1 0x20 MSTORE PUSH1 0x40 DUP2 KECCAK256 DUP1 SLOAD DUP5 SWAP3 SWAP1 PUSH2 0x21CB SWAP1 DUP5 SWAP1 PUSH2 0x44BC JUMP JUMPDEST SWAP3 POP POP DUP2 SWAP1 SSTORE POP DUP2 PUSH1 0x13 PUSH0 DUP3 DUP3 SLOAD PUSH2 0x21E3 SWAP2 SWAP1 PUSH2 0x448A JUMP JUMPDEST SWAP1 SWAP2 SSTORE POP POP POP POP POP JUMP JUMPDEST PUSH2 0x21F5 PUSH2 0x3BE5 JUMP JUMPDEST PUSH1 0x5 SLOAD PUSH2 0x100 SWAP1 DIV PUSH1 0xFF AND ISZERO PUSH2 0x221E JUMPI PUSH1 0x40 MLOAD PUSH4 0x6022A9E7 PUSH1 0xE0 SHL DUP2 MSTORE PUSH1 0x4 ADD PUSH1 0x40 MLOAD DUP1 SWAP2 SUB SWAP1 REVERT JUMPDEST PUSH0 PUSH2 0x2227 PUSH2 0x3C0F JUMP JUMPDEST SWAP1 POP PUSH0 DUP1 PUSH0 DUP1 PUSH0 DUP1 PUSH0 JUMPDEST DUP9 DUP2 LT ISZERO PUSH2 0x2482 JUMPI PUSH0 DUP11 DUP11 DUP4 DUP2 DUP2 LT PUSH2 0x224C JUMPI PUSH2 0x224C PUSH2 0x44CF JUMP JUMPDEST SWAP1 POP PUSH1 0x20 MUL ADD CALLDATALOAD SWAP1 POP PUSH0 PUSH1 0x6 PUSH0 DUP12 PUSH1 0x1 PUSH1 0x1 PUSH1 0xA0 SHL SUB AND PUSH1 0x1 PUSH1 0x1 PUSH1 0xA0 SHL SUB AND DUP2 MSTORE PUSH1 0x20 ADD SWAP1 DUP2 MSTORE PUSH1 0x20 ADD PUSH0 KECCAK256 DUP3 DUP2 SLOAD DUP2 LT PUSH2 0x228A JUMPI PUSH2 0x228A PUSH2 0x44CF JUMP JUMPDEST PUSH0 SWAP2 DUP3 MSTORE PUSH1 0x20 SWAP1 SWAP2 KECCAK256 PUSH1 0x1 PUSH1 0x2 SWAP1 SWAP3 MUL ADD DUP2 DUP2 ADD SLOAD SWAP1 SWAP3 POP PUSH1 0x1 PUSH1 0x38 SHL SWAP1 DIV AND ISZERO PUSH2 0x22C8 JUMPI PUSH1 0x40 MLOAD PUSH4 0x6507689F PUSH1 0xE0 SHL DUP2 MSTORE PUSH1 0x4 ADD PUSH1 0x40 MLOAD DUP1 SWAP2 SUB SWAP1 REVERT JUMPDEST PUSH1 0x2 SLOAD DUP2 SLOAD PUSH2 0x22E6 SWAP2 SWAP1 PUSH1 0x1 PUSH1 0xC0 SHL SWAP1 DIV PUSH6 0xFFFFFFFFFFFF AND PUSH2 0x44BC JUMP JUMPDEST TIMESTAMP LT DUP1 ISZERO PUSH2 0x2300 JUMPI POP PUSH1 0x1 DUP2 ADD SLOAD PUSH1 0x1 PUSH1 0x38 SHL SWAP1 DIV PUSH1 0x2 AND ISZERO JUMPDEST DUP1 ISZERO PUSH2 0x232F JUMPI POP PUSH1 0x5 SLOAD PUSH4 0x1000000 SWAP1 DIV PUSH1 0xFF AND DUP1 ISZERO PUSH2 0x232D JUMPI POP PUSH1 0x1 DUP2 ADD SLOAD PUSH1 0x1 PUSH1 0x38 SHL SWAP1 DIV PUSH1 0x4 AND ISZERO ISZERO JUMPDEST ISZERO JUMPDEST ISZERO PUSH2 0x234D JUMPI PUSH1 0x40 MLOAD PUSH4 0xF38B9B5B PUSH1 0xE0 SHL DUP2 MSTORE PUSH1 0x4 ADD PUSH1 0x40 MLOAD DUP1 SWAP2 SUB SWAP1 REVERT JUMPDEST PUSH1 0x1 DUP2 DUP2 ADD DUP1 SLOAD PUSH8 0xFF00FFFFFFFFFFFF NOT DUP2 AND PUSH1 0x1 PUSH1 0x38 SHL SWAP2 DUP3 SWAP1 DIV PUSH1 0xFF AND SWAP1 SWAP4 OR MUL PUSH6 0xFFFFFFFFFFFF NOT AND SWAP2 SWAP1 SWAP2 OR TIMESTAMP PUSH6 0xFFFFFFFFFFFF AND OR SWAP1 SSTORE DUP1 SLOAD PUSH1 0x1 PUSH1 0x1 PUSH1 0x60 SHL SUB DUP1 DUP3 AND SWAP2 PUSH1 0x1 PUSH1 0x60 SHL SWAP1 DIV AND PUSH0 PUSH1 0x1 DUP5 DUP2 ADD SLOAD PUSH7 0x1000000000000 SWAP1 DIV PUSH1 0xFF AND SWAP1 DUP2 GT ISZERO PUSH2 0x23C3 JUMPI PUSH2 0x23C3 PUSH2 0x412F JUMP JUMPDEST SUB PUSH2 0x23F1 JUMPI PUSH2 0x23D2 DUP3 DUP9 PUSH2 0x44BC JUMP JUMPDEST SWAP7 POP PUSH2 0x23DE DUP3 DUP13 PUSH2 0x44BC JUMP JUMPDEST SWAP11 POP PUSH2 0x23EA DUP2 DUP12 PUSH2 0x44BC JUMP JUMPDEST SWAP10 POP PUSH2 0x2416 JUMP JUMPDEST PUSH2 0x23FB DUP3 DUP8 PUSH2 0x44BC JUMP JUMPDEST SWAP6 POP PUSH2 0x2407 DUP3 DUP11 PUSH2 0x44BC JUMP JUMPDEST SWAP9 POP PUSH2 0x2413 DUP2 DUP10 PUSH2 0x44BC JUMP JUMPDEST SWAP8 POP JUMPDEST PUSH1 0x1 DUP4 ADD SLOAD PUSH1 0x40 MLOAD PUSH1 0x1 PUSH1 0x1 PUSH1 0xA0 SHL SUB DUP15 AND SWAP2 PUSH32 0xCB034B37EF3764745C35BAFECD525367BCF312E9010239E6AEEBBE6BCF57727F SWAP2 PUSH2 0x246A SWAP2 PUSH7 0x1000000000000 SWAP1 DIV PUSH1 0xFF AND SWAP1 DUP7 SWAP1 DUP7 SWAP1 TIMESTAMP SWAP1 DUP12 SWAP1 PUSH2 0x44FE JUMP JUMPDEST PUSH1 0x40 MLOAD DUP1 SWAP2 SUB SWAP1 LOG2 POP POP PUSH1 0x1 SWAP1 SWAP3 ADD SWAP2 POP PUSH2 0x2231 SWAP1 POP JUMP JUMPDEST POP DUP2 ISZERO PUSH2 0x24A0 JUMPI DUP2 PUSH1 0x11 PUSH0 DUP3 DUP3 SLOAD PUSH2 0x249A SWAP2 SWAP1 PUSH2 0x44BC JUMP JUMPDEST SWAP1 SWAP2 SSTORE POP POP JUMPDEST DUP1 ISZERO PUSH2 0x24BD JUMPI DUP1 PUSH1 0x12 PUSH0 DUP3 DUP3 SLOAD PUSH2 0x24B7 SWAP2 SWAP1 PUSH2 0x44BC JUMP JUMPDEST SWAP1 SWAP2 SSTORE POP POP JUMPDEST PUSH1 0x1 PUSH1 0x1 PUSH1 0xA0 SHL SUB DUP8 AND PUSH0 SWAP1 DUP2 MSTORE PUSH1 0x8 PUSH1 0x20 MSTORE PUSH1 0x40 SWAP1 KECCAK256 SLOAD PUSH1 0xFF AND ISZERO DUP1 ISZERO PUSH2 0x24E4 JUMPI POP DUP8 ISZERO ISZERO JUMPDEST ISZERO PUSH2 0x2559 JUMPI PUSH1 0xE DUP1 SLOAD PUSH1 0x1 DUP1 DUP3 ADD SWAP1 SWAP3 SSTORE PUSH32 0xBB7B4A454DC3493923482F07822329ED19E8244EFF582CC204F8554C3620C3FD ADD DUP1 SLOAD PUSH20 0xFFFFFFFFFFFFFFFFFFFFFFFFFFFFFFFFFFFFFFFF NOT AND PUSH1 0x1 PUSH1 0x1 PUSH1 0xA0 SHL SUB DUP11 AND SWAP1 DUP2 OR SWAP1 SWAP2 SSTORE PUSH0 SWAP1 DUP2 MSTORE PUSH1 0x8 PUSH1 0x20 MSTORE PUSH1 0x40 SWAP1 KECCAK256 DUP1 SLOAD PUSH1 0xFF NOT AND SWAP1 SWAP2 OR SWAP1 SSTORE JUMPDEST PUSH0 PUSH2 0x2564 DUP7 DUP9 PUSH2 0x44BC JUMP JUMPDEST GT ISZERO PUSH2 0x262C JUMPI PUSH0 PUSH1 0x1 PUSH1 0x1 PUSH1 0xA0 SHL SUB DUP9 AND PUSH2 0x257F DUP8 DUP10 PUSH2 0x44BC JUMP JUMPDEST PUSH1 0x40 MLOAD PUSH0 DUP2 DUP2 DUP2 DUP6 DUP8 GAS CALL SWAP3 POP POP POP RETURNDATASIZE DUP1 PUSH0 DUP2 EQ PUSH2 0x25B8 JUMPI PUSH1 0x40 MLOAD SWAP2 POP PUSH1 0x1F NOT PUSH1 0x3F RETURNDATASIZE ADD AND DUP3 ADD PUSH1 0x40 MSTORE RETURNDATASIZE DUP3 MSTORE RETURNDATASIZE PUSH0 PUSH1 0x20 DUP5 ADD RETURNDATACOPY PUSH2 0x25BD JUMP JUMPDEST PUSH1 0x60 SWAP2 POP JUMPDEST POP POP SWAP1 POP DUP1 PUSH2 0x25DF JUMPI PUSH1 0x40 MLOAD PUSH4 0x12171D83 PUSH1 0xE3 SHL DUP2 MSTORE PUSH1 0x4 ADD PUSH1 0x40 MLOAD DUP1 SWAP2 SUB SWAP1 REVERT JUMPDEST DUP8 PUSH1 0x1 PUSH1 0x1 PUSH1 0xA0 SHL SUB AND PUSH32 0xBF06E98FE211A4B82F625232AB1C7A75CAEA5E0D624BC267578D6F22FCE788C3 PUSH0 DUP13 DUP13 DUP12 DUP12 TIMESTAMP PUSH1 0x40 MLOAD PUSH2 0x2622 SWAP7 SWAP6 SWAP5 SWAP4 SWAP3 SWAP2 SWAP1 PUSH2 0x4577 JUMP JUMPDEST PUSH1 0x40 MLOAD DUP1 SWAP2 SUB SWAP1 LOG2 POP JUMPDEST PUSH0 PUSH2 0x2637 DUP5 DUP7 PUSH2 0x44BC JUMP JUMPDEST GT ISZERO PUSH2 0x2731 JUMPI PUSH1 0x1 PUSH1 0x1 PUSH1 0xA0 SHL SUB PUSH32 0x0 AND PUSH4 0xA9059CBB DUP9 PUSH2 0x2677 DUP7 DUP9 PUSH2 0x44BC JUMP JUMPDEST PUSH1 0x40 MLOAD PUSH1 0x1 PUSH1 0x1 PUSH1 0xE0 SHL SUB NOT PUSH1 0xE0 DUP6 SWAP1 SHL AND DUP2 MSTORE PUSH1 0x1 PUSH1 0x1 PUSH1 0xA0 SHL SUB SWAP1 SWAP3 AND PUSH1 0x4 DUP4 ADD MSTORE PUSH1 0x24 DUP3 ADD MSTORE PUSH1 0x44 ADD PUSH1 0x20 PUSH1 0x40 MLOAD DUP1 DUP4 SUB DUP2 PUSH0 DUP8 GAS CALL ISZERO DUP1 ISZERO PUSH2 0x26BF JUMPI RETURNDATASIZE PUSH0 DUP1 RETURNDATACOPY RETURNDATASIZE PUSH0 REVERT JUMPDEST POP POP POP POP PUSH1 0x40 MLOAD RETURNDATASIZE PUSH1 0x1F NOT PUSH1 0x1F DUP3 ADD AND DUP3 ADD DUP1 PUSH1 0x40 MSTORE POP DUP2 ADD SWAP1 PUSH2 0x26E3 SWAP2 SWAP1 PUSH2 0x44E3 JUMP JUMPDEST POP DUP7 PUSH1 0x1 PUSH1 0x1 PUSH1 0xA0 SHL SUB AND PUSH32 0xBF06E98FE211A4B82F625232AB1C7A75CAEA5E0D624BC267578D6F22FCE788C3 PUSH1 0x1 DUP12 DUP12 DUP9 DUP9 TIMESTAMP PUSH1 0x40 MLOAD PUSH2 0x2728 SWAP7 SWAP6 SWAP5 SWAP4 SWAP3 SWAP2 SWAP1 PUSH2 0x4577 JUMP JUMPDEST PUSH1 0x40 MLOAD DUP1 SWAP2 SUB SWAP1 LOG2 JUMPDEST POP POP POP POP POP POP POP PUSH2 0x1ED7 PUSH1 0x1 DUP1 SSTORE JUMP JUMPDEST PUSH0 DUP1 MLOAD PUSH1 0x20 PUSH2 0x4691 DUP4 CODECOPY DUP2 MLOAD SWAP2 MSTORE PUSH2 0x2758 DUP2 PUSH2 0x3BD4 JUMP JUMPDEST DUP2 PUSH0 SUB PUSH2 0x2778 JUMPI PUSH1 0x40 MLOAD PUSH4 0x162908E3 PUSH1 0xE1 SHL DUP2 MSTORE PUSH1 0x4 ADD PUSH1 0x40 MLOAD DUP1 SWAP2 SUB SWAP1 REVERT JUMPDEST PUSH1 0x14 SLOAD DUP3 GT ISZERO PUSH2 0x279B JUMPI PUSH1 0x40 MLOAD PUSH4 0x2F37549D PUSH1 0xE0 SHL DUP2 MSTORE PUSH1 0x4 ADD PUSH1 0x40 MLOAD DUP1 SWAP2 SUB SWAP1 REVERT JUMPDEST PUSH1 0x1 PUSH1 0x1 PUSH1 0xA0 SHL SUB DUP4 AND PUSH0 SWAP1 DUP2 MSTORE PUSH1 0xA PUSH1 0x20 MSTORE PUSH1 0x40 DUP2 KECCAK256 DUP1 SLOAD DUP5 SWAP3 SWAP1 PUSH2 0x27C2 SWAP1 DUP5 SWAP1 PUSH2 0x44BC JUMP JUMPDEST SWAP3 POP POP DUP2 SWAP1 SSTORE POP DUP2 PUSH1 0x14 PUSH0 DUP3 DUP3 SLOAD PUSH2 0x21E3 SWAP2 SWAP1 PUSH2 0x448A JUMP JUMPDEST PUSH32 0x78C90EB9E475048B483A290AEE04B5FE48355537C3623C7637B17D3BED71C6ED PUSH2 0x2804 DUP2 PUSH2 0x3BD4 JUMP JUMPDEST PUSH2 0x280C PUSH2 0x3BE5 JUMP JUMPDEST PUSH1 0x5 SLOAD PUSH1 0x1 PUSH1 0x50 SHL SWAP1 DIV PUSH1 0x1 PUSH1 0x1 PUSH1 0xA0 SHL SUB AND PUSH2 0x283C JUMPI PUSH1 0x40 MLOAD PUSH4 0xD92E233D PUSH1 0xE0 SHL DUP2 MSTORE PUSH1 0x4 ADD PUSH1 0x40 MLOAD DUP1 SWAP2 SUB SWAP1 REVERT JUMPDEST PUSH1 0x5 SLOAD PUSH1 0x40 MLOAD PUSH4 0xA9059CBB PUSH1 0xE0 SHL DUP2 MSTORE PUSH1 0x1 PUSH1 0x50 SHL SWAP1 SWAP2 DIV PUSH1 0x1 PUSH1 0x1 PUSH1 0xA0 SHL SUB SWAP1 DUP2 AND PUSH1 0x4 DUP4 ADD MSTORE PUSH1 0x24 DUP3 ADD DUP5 SWAP1 MSTORE PUSH32 0x0 AND SWAP1 PUSH4 0xA9059CBB SWAP1 PUSH1 0x44 ADD PUSH1 0x20 PUSH1 0x40 MLOAD DUP1 DUP4 SUB DUP2 PUSH0 DUP8 GAS CALL ISZERO DUP1 ISZERO PUSH2 0x28B3 JUMPI RETURNDATASIZE PUSH0 DUP1 RETURNDATACOPY RETURNDATASIZE PUSH0 REVERT JUMPDEST POP POP POP POP PUSH1 0x40 MLOAD RETURNDATASIZE PUSH1 0x1F NOT PUSH1 0x1F DUP3 ADD AND DUP3 ADD DUP1 PUSH1 0x40 MSTORE POP DUP2 ADD SWAP1 PUSH2 0x28D7 SWAP2 SWAP1 PUSH2 0x44E3 JUMP JUMPDEST POP PUSH1 0x5 PUSH1 0xA SWAP1 SLOAD SWAP1 PUSH2 0x100 EXP SWAP1 DIV PUSH1 0x1 PUSH1 0x1 PUSH1 0xA0 SHL SUB AND PUSH1 0x1 PUSH1 0x1 PUSH1 0xA0 SHL SUB AND PUSH32 0x9ADBDC797ACA3CE26A722598F00149B2328FD124444E6D0B10C4BDC7CFC38196 PUSH1 0x1 DUP5 TIMESTAMP PUSH1 0x40 MLOAD PUSH2 0x1EC6 SWAP4 SWAP3 SWAP2 SWAP1 PUSH2 0x449D JUMP JUMPDEST PUSH32 0xC806897CAF4FD5068191157E44D3988E43139A37E0B97B6793E1ED1184140604 PUSH2 0x2955 DUP2 PUSH2 0x3BD4 JUMP JUMPDEST PUSH0 JUMPDEST DUP3 DUP2 LT ISZERO PUSH2 0x2A25 JUMPI PUSH1 0x1 PUSH1 0x1 PUSH1 0xA0 SHL SUB DUP6 AND PUSH0 SWAP1 DUP2 MSTORE PUSH1 0x6 PUSH1 0x20 MSTORE PUSH1 0x40 DUP2 KECCAK256 DUP6 DUP6 DUP5 DUP2 DUP2 LT PUSH2 0x2988 JUMPI PUSH2 0x2988 PUSH2 0x44CF JUMP JUMPDEST SWAP1 POP PUSH1 0x20 MUL ADD CALLDATALOAD DUP2 SLOAD DUP2 LT PUSH2 0x299F JUMPI PUSH2 0x299F PUSH2 0x44CF JUMP JUMPDEST PUSH0 SWAP2 DUP3 MSTORE PUSH1 0x20 SWAP1 SWAP2 KECCAK256 PUSH1 0x1 PUSH1 0x2 SWAP1 SWAP3 MUL ADD DUP2 DUP2 ADD SLOAD SWAP1 SWAP3 POP PUSH1 0x1 PUSH1 0x38 SHL SWAP1 DIV AND ISZERO ISZERO DUP1 PUSH2 0x29D9 JUMPI POP PUSH1 0x1 DUP2 ADD SLOAD PUSH1 0x1 PUSH1 0x38 SHL SWAP1 DIV PUSH1 0x2 AND ISZERO ISZERO JUMPDEST ISZERO PUSH2 0x29F7 JUMPI PUSH1 0x40 MLOAD PUSH4 0x181821BD PUSH1 0xE1 SHL DUP2 MSTORE PUSH1 0x4 ADD PUSH1 0x40 MLOAD DUP1 SWAP2 SUB SWAP1 REVERT JUMPDEST PUSH1 0x1 SWAP1 DUP2 ADD DUP1 SLOAD PUSH8 0xFF00000000000000 NOT DUP2 AND PUSH1 0x1 PUSH1 0x38 SHL SWAP2 DUP3 SWAP1 DIV PUSH1 0xFF AND PUSH1 0x2 OR SWAP1 SWAP2 MUL OR SWAP1 SSTORE ADD PUSH2 0x2957 JUMP JUMPDEST POP DUP4 PUSH1 0x1 PUSH1 0x1 PUSH1 0xA0 SHL SUB AND PUSH32 0x8B655A966F162E1D3686EA25CD61682331984AB5662B451DEFF96F12D716F45B DUP5 DUP5 PUSH1 0x40 MLOAD PUSH2 0x2A61 SWAP3 SWAP2 SWAP1 PUSH2 0x45B5 JUMP JUMPDEST PUSH1 0x40 MLOAD DUP1 SWAP2 SUB SWAP1 LOG2 POP POP POP POP JUMP JUMPDEST PUSH0 DUP1 MLOAD PUSH1 0x20 PUSH2 0x4691 DUP4 CODECOPY DUP2 MLOAD SWAP2 MSTORE PUSH2 0x2A86 DUP2 PUSH2 0x3BD4 JUMP JUMPDEST PUSH1 0x1 PUSH1 0x1 PUSH1 0xA0 SHL SUB DUP3 AND PUSH2 0x2AAD JUMPI PUSH1 0x40 MLOAD PUSH4 0xD92E233D PUSH1 0xE0 SHL DUP2 MSTORE PUSH1 0x4 ADD PUSH1 0x40 MLOAD DUP1 SWAP2 SUB SWAP1 REVERT JUMPDEST PUSH1 0x5 DUP1 SLOAD PUSH32 0xFFFF0000000000000000000000000000000000000000FFFFFFFFFFFFFFFFFFFF AND PUSH1 0x1 PUSH1 0x50 SHL PUSH1 0x1 PUSH1 0x1 PUSH1 0xA0 SHL SUB DUP6 AND SWAP1 DUP2 MUL SWAP2 SWAP1 SWAP2 OR SWAP1 SWAP2 SSTORE PUSH1 0x40 MLOAD SWAP1 DUP2 MSTORE PUSH32 0x1D6240E71A77C9E9D07D1D6ECBB9EA4274FCC8BC19ADC5B05A3548AC7E40E189 SWAP1 PUSH1 0x20 ADD JUMPDEST PUSH1 0x40 MLOAD DUP1 SWAP2 SUB SWAP1 LOG1 POP POP JUMP JUMPDEST PUSH32 0x241ECF16D79D0F8DBFB92CBC07FE17840425976CF0667F022FE9877CAA831B08 PUSH2 0x2B4E DUP2 PUSH2 0x3BD4 JUMP JUMPDEST PUSH2 0x2B56 PUSH2 0x3BE5 JUMP JUMPDEST PUSH1 0x1 PUSH1 0x1 PUSH1 0xA0 SHL SUB DUP4 AND PUSH2 0x2B7D JUMPI PUSH1 0x40 MLOAD PUSH4 0xD92E233D PUSH1 0xE0 SHL DUP2 MSTORE PUSH1 0x4 ADD PUSH1 0x40 MLOAD DUP1 SWAP2 SUB SWAP1 REVERT JUMPDEST PUSH1 0x40 MLOAD PUSH4 0x70A08231 PUSH1 0xE0 SHL DUP2 MSTORE ADDRESS PUSH1 0x4 DUP3 ADD MSTORE PUSH32 0x0 PUSH1 0x1 PUSH1 0x1 PUSH1 0xA0 SHL SUB AND SWAP1 PUSH4 0x70A08231 SWAP1 PUSH1 0x24 ADD PUSH1 0x20 PUSH1 0x40 MLOAD DUP1 DUP4 SUB DUP2 DUP7 GAS STATICCALL ISZERO DUP1 ISZERO PUSH2 0x2BDF JUMPI RETURNDATASIZE PUSH0 DUP1 RETURNDATACOPY RETURNDATASIZE PUSH0 REVERT JUMPDEST POP POP POP POP PUSH1 0x40 MLOAD RETURNDATASIZE PUSH1 0x1F NOT PUSH1 0x1F DUP3 ADD AND DUP3 ADD DUP1 PUSH1 0x40 MSTORE POP DUP2 ADD SWAP1 PUSH2 0x2C03 SWAP2 SWAP1 PUSH2 0x45D0 JUMP JUMPDEST DUP3 GT ISZERO PUSH2 0x2C23 JUMPI PUSH1 0x40 MLOAD PUSH4 0x1E9ACF17 PUSH1 0xE3 SHL DUP2 MSTORE PUSH1 0x4 ADD PUSH1 0x40 MLOAD DUP1 SWAP2 SUB SWAP1 REVERT JUMPDEST DUP2 PUSH1 0x18 PUSH0 DUP3 DUP3 SLOAD PUSH2 0x2C34 SWAP2 SWAP1 PUSH2 0x44BC JUMP JUMPDEST SWAP1 SWAP2 SSTORE POP POP PUSH1 0x40 MLOAD PUSH4 0xA9059CBB PUSH1 0xE0 SHL DUP2 MSTORE PUSH1 0x1 PUSH1 0x1 PUSH1 0xA0 SHL SUB DUP5 DUP2 AND PUSH1 0x4 DUP4 ADD MSTORE PUSH1 0x24 DUP3 ADD DUP5 SWAP1 MSTORE PUSH32 0x0 AND SWAP1 PUSH4 0xA9059CBB SWAP1 PUSH1 0x44 ADD PUSH1 0x20 PUSH1 0x40 MLOAD DUP1 DUP4 SUB DUP2 PUSH0 DUP8 GAS CALL ISZERO DUP1 ISZERO PUSH2 0x2CA5 JUMPI RETURNDATASIZE PUSH0 DUP1 RETURNDATACOPY RETURNDATASIZE PUSH0 REVERT JUMPDEST POP POP POP POP PUSH1 0x40 MLOAD RETURNDATASIZE PUSH1 0x1F NOT PUSH1 0x1F DUP3 ADD AND DUP3 ADD DUP1 PUSH1 0x40 MSTORE POP DUP2 ADD SWAP1 PUSH2 0x2CC9 SWAP2 SWAP1 PUSH2 0x44E3 JUMP JUMPDEST POP DUP3 PUSH1 0x1 PUSH1 0x1 PUSH1 0xA0 SHL SUB AND PUSH2 0x2CDC PUSH2 0x3C0F JUMP JUMPDEST PUSH1 0x1 PUSH1 0x1 PUSH1 0xA0 SHL SUB AND PUSH32 0x8D4F9C9A6DA9172DA9A02229D92E4AF088C62953986A74048D010260B197DEF3 PUSH1 0x1 DUP6 TIMESTAMP PUSH1 0x40 MLOAD PUSH2 0x2D19 SWAP4 SWAP3 SWAP2 SWAP1 PUSH2 0x449D JUMP JUMPDEST PUSH1 0x40 MLOAD DUP1 SWAP2 SUB SWAP1 LOG3 PUSH2 0x181F PUSH1 0x1 DUP1 SSTORE JUMP JUMPDEST PUSH32 0x78C90EB9E475048B483A290AEE04B5FE48355537C3623C7637B17D3BED71C6ED PUSH2 0x2D54 DUP2 PUSH2 0x3BD4 JUMP JUMPDEST PUSH2 0x2D5C PUSH2 0x3BE5 JUMP JUMPDEST PUSH1 0x5 SLOAD PUSH1 0x1 PUSH1 0x50 SHL SWAP1 DIV PUSH1 0x1 PUSH1 0x1 PUSH1 0xA0 SHL SUB AND PUSH2 0x2D8C JUMPI PUSH1 0x40 MLOAD PUSH4 0xD92E233D PUSH1 0xE0 SHL DUP2 MSTORE PUSH1 0x4 ADD PUSH1 0x40 MLOAD DUP1 SWAP2 SUB SWAP1 REVERT JUMPDEST SELFBALANCE DUP3 GT ISZERO PUSH2 0x2DAD JUMPI PUSH1 0x40 MLOAD PUSH4 0x1E9ACF17 PUSH1 0xE3 SHL DUP2 MSTORE PUSH1 0x4 ADD PUSH1 0x40 MLOAD DUP1 SWAP2 SUB SWAP1 REVERT JUMPDEST PUSH1 0x5 SLOAD PUSH1 0x40 MLOAD PUSH0 SWAP2 PUSH1 0x1 PUSH1 0x50 SHL SWAP1 DIV PUSH1 0x1 PUSH1 0x1 PUSH1 0xA0 SHL SUB AND SWAP1 DUP5 SWAP1 DUP4 DUP2 DUP2 DUP2 DUP6 DUP8 GAS CALL SWAP3 POP POP POP RETURNDATASIZE DUP1 PUSH0 DUP2 EQ PUSH2 0x2DFE JUMPI PUSH1 0x40 MLOAD SWAP2 POP PUSH1 0x1F NOT PUSH1 0x3F RETURNDATASIZE ADD AND DUP3 ADD PUSH1 0x40 MSTORE RETURNDATASIZE DUP3 MSTORE RETURNDATASIZE PUSH0 PUSH1 0x20 DUP5 ADD RETURNDATACOPY PUSH2 0x2E03 JUMP JUMPDEST PUSH1 0x60 SWAP2 POP JUMPDEST POP POP SWAP1 POP DUP1 PUSH2 0x2E25 JUMPI PUSH1 0x40 MLOAD PUSH4 0x12171D83 PUSH1 0xE3 SHL DUP2 MSTORE PUSH1 0x4 ADD PUSH1 0x40 MLOAD DUP1 SWAP2 SUB SWAP1 REVERT JUMPDEST PUSH1 0x5 PUSH1 0xA SWAP1 SLOAD SWAP1 PUSH2 0x100 EXP SWAP1 DIV PUSH1 0x1 PUSH1 0x1 PUSH1 0xA0 SHL SUB AND PUSH1 0x1 PUSH1 0x1 PUSH1 0xA0 SHL SUB AND PUSH32 0x9ADBDC797ACA3CE26A722598F00149B2328FD124444E6D0B10C4BDC7CFC38196 PUSH0 DUP6 TIMESTAMP PUSH1 0x40 MLOAD PUSH2 0x2E77 SWAP4 SWAP3 SWAP2 SWAP1 PUSH2 0x449D JUMP JUMPDEST PUSH1 0x40 MLOAD DUP1 SWAP2 SUB SWAP1 LOG2 POP PUSH2 0x1ED7 PUSH1 0x1 DUP1 SSTORE JUMP JUMPDEST PUSH1 0xE DUP2 DUP2 SLOAD DUP2 LT PUSH2 0x2E98 JUMPI PUSH0 DUP1 REVERT JUMPDEST PUSH0 SWAP2 DUP3 MSTORE PUSH1 0x20 SWAP1 SWAP2 KECCAK256 ADD SLOAD PUSH1 0x1 PUSH1 0x1 PUSH1 0xA0 SHL SUB AND SWAP1 POP DUP2 JUMP JUMPDEST PUSH0 DUP1 PUSH0 DUP1 PUSH0 DUP1 PUSH0 DUP1 PUSH0 DUP1 PUSH0 DUP1 PUSH0 DUP1 SELFBALANCE SWAP14 POP PUSH32 0x0 PUSH1 0x1 PUSH1 0x1 PUSH1 0xA0 SHL SUB AND PUSH4 0x70A08231 ADDRESS PUSH1 0x40 MLOAD DUP3 PUSH4 0xFFFFFFFF AND PUSH1 0xE0 SHL DUP2 MSTORE PUSH1 0x4 ADD PUSH2 0x2F1D SWAP2 SWAP1 PUSH1 0x1 PUSH1 0x1 PUSH1 0xA0 SHL SUB SWAP2 SWAP1 SWAP2 AND DUP2 MSTORE PUSH1 0x20 ADD SWAP1 JUMP JUMPDEST PUSH1 0x20 PUSH1 0x40 MLOAD DUP1 DUP4 SUB DUP2 DUP7 GAS STATICCALL ISZERO DUP1 ISZERO PUSH2 0x2F38 JUMPI RETURNDATASIZE PUSH0 DUP1 RETURNDATACOPY RETURNDATASIZE PUSH0 REVERT JUMPDEST POP POP POP POP PUSH1 0x40 MLOAD RETURNDATASIZE PUSH1 0x1F NOT PUSH1 0x1F DUP3 ADD AND DUP3 ADD DUP1 PUSH1 0x40 MSTORE POP DUP2 ADD SWAP1 PUSH2 0x2F5C SWAP2 SWAP1 PUSH2 0x45D0 JUMP JUMPDEST SWAP13 POP PUSH1 0xF SLOAD SWAP12 POP PUSH1 0x10 SLOAD SWAP11 POP PUSH1 0x11 SLOAD SWAP10 POP PUSH1 0x12 SLOAD SWAP9 POP PUSH1 0x13 SLOAD SWAP8 POP PUSH1 0x14 SLOAD SWAP7 POP PUSH1 0x15 SLOAD SWAP6 POP PUSH1 0x16 SLOAD SWAP5 POP PUSH1 0x17 SLOAD SWAP4 POP PUSH1 0x18 SLOAD SWAP3 POP PUSH0 SWAP2 POP PUSH1 0xE DUP1 SLOAD SWAP1 POP SWAP1 POP SWAP1 SWAP2 SWAP3 SWAP4 SWAP5 SWAP6 SWAP7 SWAP8 SWAP9 SWAP10 SWAP11 SWAP12 SWAP13 SWAP14 JUMP JUMPDEST PUSH0 DUP1 MLOAD PUSH1 0x20 PUSH2 0x4691 DUP4 CODECOPY DUP2 MLOAD SWAP2 MSTORE PUSH2 0x2FC2 DUP2 PUSH2 0x3BD4 JUMP JUMPDEST PUSH1 0x1 PUSH1 0x1 PUSH1 0xA0 SHL SUB DUP4 AND PUSH2 0x2FE9 JUMPI PUSH1 0x40 MLOAD PUSH4 0xD92E233D PUSH1 0xE0 SHL DUP2 MSTORE PUSH1 0x4 ADD PUSH1 0x40 MLOAD DUP1 SWAP2 SUB SWAP1 REVERT JUMPDEST PUSH1 0x40 MLOAD PUSH4 0xA9059CBB PUSH1 0xE0 SHL DUP2 MSTORE PUSH1 0x1 PUSH1 0x1 PUSH1 0xA0 SHL SUB DUP5 DUP2 AND PUSH1 0x4 DUP4 ADD MSTORE PUSH1 0x24 DUP3 ADD DUP5 SWAP1 MSTORE DUP6 AND SWAP1 PUSH4 0xA9059CBB SWAP1 PUSH1 0x44 ADD PUSH1 0x20 PUSH1 0x40 MLOAD DUP1 DUP4 SUB DUP2 PUSH0 DUP8 GAS CALL ISZERO DUP1 ISZERO PUSH2 0x3035 JUMPI RETURNDATASIZE PUSH0 DUP1 RETURNDATACOPY RETURNDATASIZE PUSH0 REVERT JUMPDEST POP POP POP POP PUSH1 0x40 MLOAD RETURNDATASIZE PUSH1 0x1F NOT PUSH1 0x1F DUP3 ADD AND DUP3 ADD DUP1 PUSH1 0x40 MSTORE POP DUP2 ADD SWAP1 PUSH2 0x3059 SWAP2 SWAP1 PUSH2 0x44E3 JUMP JUMPDEST POP DUP3 PUSH1 0x1 PUSH1 0x1 PUSH1 0xA0 SHL SUB AND DUP5 PUSH1 0x1 PUSH1 0x1 PUSH1 0xA0 SHL SUB AND PUSH32 0x8BBFBB5D7FCACF6FC74005CDEDE0635561638507F576C95F7F294C22141BE2E5 DUP5 PUSH1 0x40 MLOAD PUSH2 0x309F SWAP2 DUP2 MSTORE PUSH1 0x20 ADD SWAP1 JUMP JUMPDEST PUSH1 0x40 MLOAD DUP1 SWAP2 SUB SWAP1 LOG3 POP POP POP POP JUMP JUMPDEST PUSH0 DUP1 MLOAD PUSH1 0x20 PUSH2 0x4691 DUP4 CODECOPY DUP2 MLOAD SWAP2 MSTORE PUSH2 0x30C4 DUP2 PUSH2 0x3BD4 JUMP JUMPDEST DUP4 DUP3 EQ PUSH2 0x30E4 JUMPI PUSH1 0x40 MLOAD PUSH4 0x512509D3 PUSH1 0xE1 SHL DUP2 MSTORE PUSH1 0x4 ADD PUSH1 0x40 MLOAD DUP1 SWAP2 SUB SWAP1 REVERT JUMPDEST PUSH0 DUP1 JUMPDEST DUP6 DUP2 LT ISZERO PUSH2 0x319E JUMPI PUSH0 DUP6 DUP6 DUP4 DUP2 DUP2 LT PUSH2 0x3102 JUMPI PUSH2 0x3102 PUSH2 0x44CF JUMP JUMPDEST SWAP1 POP PUSH1 0x20 MUL ADD CALLDATALOAD SWAP1 POP DUP1 PUSH0 SUB PUSH2 0x312B JUMPI PUSH1 0x40 MLOAD PUSH4 0x162908E3 PUSH1 0xE1 SHL DUP2 MSTORE PUSH1 0x4 ADD PUSH1 0x40 MLOAD DUP1 SWAP2 SUB SWAP1 REVERT JUMPDEST DUP1 PUSH1 0x9 PUSH0 DUP11 DUP11 DUP7 DUP2 DUP2 LT PUSH2 0x3141 JUMPI PUSH2 0x3141 PUSH2 0x44CF JUMP JUMPDEST SWAP1 POP PUSH1 0x20 MUL ADD PUSH1 0x20 DUP2 ADD SWAP1 PUSH2 0x3156 SWAP2 SWAP1 PUSH2 0x40C6 JUMP JUMPDEST PUSH1 0x1 PUSH1 0x1 PUSH1 0xA0 SHL SUB AND PUSH1 0x1 PUSH1 0x1 PUSH1 0xA0 SHL SUB AND DUP2 MSTORE PUSH1 0x20 ADD SWAP1 DUP2 MSTORE PUSH1 0x20 ADD PUSH0 KECCAK256 PUSH0 DUP3 DUP3 SLOAD PUSH2 0x3183 SWAP2 SWAP1 PUSH2 0x44BC JUMP JUMPDEST SWAP1 SWAP2 SSTORE POP PUSH2 0x3193 SWAP1 POP DUP2 DUP5 PUSH2 0x44BC JUMP JUMPDEST SWAP3 POP POP PUSH1 0x1 ADD PUSH2 0x30E7 JUMP JUMPDEST POP PUSH1 0x13 SLOAD DUP2 GT ISZERO PUSH2 0x31C2 JUMPI PUSH1 0x40 MLOAD PUSH4 0x2F37549D PUSH1 0xE0 SHL DUP2 MSTORE PUSH1 0x4 ADD PUSH1 0x40 MLOAD DUP1 SWAP2 SUB SWAP1 REVERT JUMPDEST DUP1 PUSH1 0x13 PUSH0 DUP3 DUP3 SLOAD PUSH2 0x194A SWAP2 SWAP1 PUSH2 0x448A JUMP JUMPDEST PUSH2 0x31DB PUSH2 0x3BE5 JUMP JUMPDEST PUSH0 PUSH2 0x31E4 PUSH2 0x3C0F JUMP JUMPDEST PUSH1 0x1 PUSH1 0x1 PUSH1 0xA0 SHL SUB DUP2 AND PUSH0 SWAP1 DUP2 MSTORE PUSH1 0xA PUSH1 0x20 MSTORE PUSH1 0x40 DUP2 KECCAK256 SLOAD SWAP2 SWAP3 POP DUP2 SWAP1 SUB PUSH2 0x321F JUMPI PUSH1 0x40 MLOAD PUSH4 0x3BD65A7B PUSH1 0xE2 SHL DUP2 MSTORE PUSH1 0x4 ADD PUSH1 0x40 MLOAD DUP1 SWAP2 SUB SWAP1 REVERT JUMPDEST PUSH1 0x1 PUSH1 0x1 PUSH1 0xA0 SHL SUB DUP3 AND PUSH0 SWAP1 DUP2 MSTORE PUSH1 0xA PUSH1 0x20 MSTORE PUSH1 0x40 DUP2 KECCAK256 SSTORE PUSH2 0x3244 DUP3 PUSH1 0x1 DUP4 DUP2 PUSH2 0x3C1D JUMP JUMPDEST DUP1 PUSH1 0x16 PUSH0 DUP3 DUP3 SLOAD PUSH2 0x3255 SWAP2 SWAP1 PUSH2 0x44BC JUMP JUMPDEST SWAP1 SWAP2 SSTORE POP POP PUSH1 0x1 PUSH1 0x1 PUSH1 0xA0 SHL SUB DUP3 AND PUSH0 SWAP1 DUP2 MSTORE PUSH1 0xC PUSH1 0x20 MSTORE PUSH1 0x40 DUP2 KECCAK256 DUP1 SLOAD DUP4 SWAP3 SWAP1 PUSH2 0x3281 SWAP1 DUP5 SWAP1 PUSH2 0x44BC JUMP JUMPDEST SWAP3 POP POP DUP2 SWAP1 SSTORE POP DUP2 PUSH1 0x1 PUSH1 0x1 PUSH1 0xA0 SHL SUB AND PUSH32 0x997D2EC09B086DE73D509BBC4AD2B52FD7E2338024464BEDE93A41ABD6CCDC38 PUSH1 0x1 DUP4 TIMESTAMP PUSH1 0x40 MLOAD PUSH2 0x12A9 SWAP4 SWAP3 SWAP2 SWAP1 PUSH2 0x449D JUMP JUMPDEST PUSH32 0x241ECF16D79D0F8DBFB92CBC07FE17840425976CF0667F022FE9877CAA831B08 PUSH2 0x32F0 DUP2 PUSH2 0x3BD4 JUMP JUMPDEST PUSH2 0x32F8 PUSH2 0x3BE5 JUMP JUMPDEST PUSH1 0x1 PUSH1 0x1 PUSH1 0xA0 SHL SUB DUP4 AND PUSH2 0x331F JUMPI PUSH1 0x40 MLOAD PUSH4 0xD92E233D PUSH1 0xE0 SHL DUP2 MSTORE PUSH1 0x4 ADD PUSH1 0x40 MLOAD DUP1 SWAP2 SUB SWAP1 REVERT JUMPDEST SELFBALANCE DUP3 GT ISZERO PUSH2 0x3340 JUMPI PUSH1 0x40 MLOAD PUSH4 0x1E9ACF17 PUSH1 0xE3 SHL DUP2 MSTORE PUSH1 0x4 ADD PUSH1 0x40 MLOAD DUP1 SWAP2 SUB SWAP1 REVERT JUMPDEST DUP2 PUSH1 0x17 PUSH0 DUP3 DUP3 SLOAD PUSH2 0x3351 SWAP2 SWAP1 PUSH2 0x44BC JUMP JUMPDEST SWAP1 SWAP2 SSTORE POP POP PUSH1 0x40 MLOAD PUSH0 SWAP1 PUSH1 0x1 PUSH1 0x1 PUSH1 0xA0 SHL SUB DUP6 AND SWAP1 DUP5 SWAP1 DUP4 DUP2 DUP2 DUP2 DUP6 DUP8 GAS CALL SWAP3 POP POP POP RETURNDATASIZE DUP1 PUSH0 DUP2 EQ PUSH2 0x339E JUMPI PUSH1 0x40 MLOAD SWAP2 POP PUSH1 0x1F NOT PUSH1 0x3F RETURNDATASIZE ADD AND DUP3 ADD PUSH1 0x40 MSTORE RETURNDATASIZE DUP3 MSTORE RETURNDATASIZE PUSH0 PUSH1 0x20 DUP5 ADD RETURNDATACOPY PUSH2 0x33A3 JUMP JUMPDEST PUSH1 0x60 SWAP2 POP JUMPDEST POP POP SWAP1 POP DUP1 PUSH2 0x33C5 JUMPI PUSH1 0x40 MLOAD PUSH4 0x12171D83 PUSH1 0xE3 SHL DUP2 MSTORE PUSH1 0x4 ADD PUSH1 0x40 MLOAD DUP1 SWAP2 SUB SWAP1 REVERT JUMPDEST DUP4 PUSH1 0x1 PUSH1 0x1 PUSH1 0xA0 SHL SUB AND PUSH2 0x33D7 PUSH2 0x3C0F JUMP JUMPDEST PUSH1 0x1 PUSH1 0x1 PUSH1 0xA0 SHL SUB AND PUSH32 0x8D4F9C9A6DA9172DA9A02229D92E4AF088C62953986A74048D010260B197DEF3 PUSH0 DUP7 TIMESTAMP PUSH1 0x40 MLOAD PUSH2 0x3413 SWAP4 SWAP3 SWAP2 SWAP1 PUSH2 0x449D JUMP JUMPDEST PUSH1 0x40 MLOAD DUP1 SWAP2 SUB SWAP1 LOG3 POP PUSH2 0x181F PUSH1 0x1 DUP1 SSTORE JUMP JUMPDEST PUSH0 DUP1 MLOAD PUSH1 0x20 PUSH2 0x4691 DUP4 CODECOPY DUP2 MLOAD SWAP2 MSTORE PUSH2 0x343C DUP2 PUSH2 0x3BD4 JUMP JUMPDEST PUSH1 0x2 DUP3 SWAP1 SSTORE PUSH1 0x40 MLOAD DUP3 DUP2 MSTORE PUSH32 0xC5E00A325524BC148DDC05BB642B804E9AE1DFC670C217ED3C4C6595F7427EF4 SWAP1 PUSH1 0x20 ADD PUSH2 0x2B18 JUMP JUMPDEST PUSH0 DUP3 DUP2 MSTORE PUSH1 0x20 DUP2 SWAP1 MSTORE PUSH1 0x40 SWAP1 KECCAK256 PUSH1 0x1 ADD SLOAD PUSH2 0x348B DUP2 PUSH2 0x3BD4 JUMP JUMPDEST PUSH2 0x17D6 DUP4 DUP4 PUSH2 0x3F1E JUMP JUMPDEST PUSH32 0xF60566C40710959D8D30B6067CE3C53C757BEC78EECB0E46B83C7F8194FFAE37 PUSH2 0x34BF DUP2 PUSH2 0x3BD4 JUMP JUMPDEST DUP2 PUSH0 SUB PUSH2 0x34DF JUMPI PUSH1 0x40 MLOAD PUSH4 0x162908E3 PUSH1 0xE1 SHL DUP2 MSTORE PUSH1 0x4 ADD PUSH1 0x40 MLOAD DUP1 SWAP2 SUB SWAP1 REVERT JUMPDEST PUSH32 0x0 PUSH1 0x1 PUSH1 0x1 PUSH1 0xA0 SHL SUB AND PUSH4 0x23B872DD PUSH2 0x3516 PUSH2 0x3C0F JUMP JUMPDEST PUSH1 0x40 MLOAD PUSH1 0x1 PUSH1 0x1 PUSH1 0xE0 SHL SUB NOT PUSH1 0xE0 DUP5 SWAP1 SHL AND DUP2 MSTORE PUSH1 0x1 PUSH1 0x1 PUSH1 0xA0 SHL SUB SWAP1 SWAP2 AND PUSH1 0x4 DUP3 ADD MSTORE ADDRESS PUSH1 0x24 DUP3 ADD MSTORE PUSH1 0x44 DUP2 ADD DUP6 SWAP1 MSTORE PUSH1 0x64 ADD PUSH1 0x20 PUSH1 0x40 MLOAD DUP1 DUP4 SUB DUP2 PUSH0 DUP8 GAS CALL ISZERO DUP1 ISZERO PUSH2 0x3566 JUMPI RETURNDATASIZE PUSH0 DUP1 RETURNDATACOPY RETURNDATASIZE PUSH0 REVERT JUMPDEST POP POP POP POP PUSH1 0x40 MLOAD RETURNDATASIZE PUSH1 0x1F NOT PUSH1 0x1F DUP3 ADD AND DUP3 ADD DUP1 PUSH1 0x40 MSTORE POP DUP2 ADD SWAP1 PUSH2 0x358A SWAP2 SWAP1 PUSH2 0x44E3 JUMP JUMPDEST POP DUP2 PUSH1 0x14 PUSH0 DUP3 DUP3 SLOAD PUSH2 0x359C SWAP2 SWAP1 PUSH2 0x44BC JUMP JUMPDEST SWAP1 SWAP2 SSTORE POP PUSH2 0x35AA SWAP1 POP PUSH2 0x3C0F JUMP JUMPDEST PUSH1 0x1 PUSH1 0x1 PUSH1 0xA0 SHL SUB AND PUSH32 0x8BAFEC96FCFFB6F12596B4635C76397B7BC1F363B22C49C13136B63677323DCC PUSH1 0x1 DUP5 TIMESTAMP PUSH1 0x40 MLOAD PUSH2 0x35E7 SWAP4 SWAP3 SWAP2 SWAP1 PUSH2 0x449D JUMP JUMPDEST PUSH1 0x40 MLOAD DUP1 SWAP2 SUB SWAP1 LOG2 POP POP JUMP JUMPDEST PUSH0 DUP1 MLOAD PUSH1 0x20 PUSH2 0x4691 DUP4 CODECOPY DUP2 MLOAD SWAP2 MSTORE PUSH2 0x360A DUP2 PUSH2 0x3BD4 JUMP JUMPDEST PUSH1 0x5 SLOAD PUSH4 0x1000000 SWAP1 DIV PUSH1 0xFF AND ISZERO PUSH2 0x3635 JUMPI PUSH1 0x40 MLOAD PUSH4 0xAE7FE589 PUSH1 0xE0 SHL DUP2 MSTORE PUSH1 0x4 ADD PUSH1 0x40 MLOAD DUP1 SWAP2 SUB SWAP1 REVERT JUMPDEST PUSH1 0x5 DUP1 SLOAD PUSH6 0xFFFFFFFFFFFF TIMESTAMP SWAP1 DUP2 AND PUSH5 0x100000000 MUL PUSH10 0xFFFFFFFFFFFFFF000000 NOT SWAP1 SWAP3 AND SWAP2 SWAP1 SWAP2 OR PUSH4 0x1000000 OR SWAP1 SWAP2 SSTORE PUSH1 0x40 MLOAD PUSH32 0x2388CEAED48D21BD0802856DF41A22705F9046A67A817A047352AA3BBFE5C5D1 SWAP2 PUSH2 0x3699 SWAP2 SWAP1 DUP2 MSTORE PUSH1 0x20 ADD SWAP1 JUMP JUMPDEST PUSH1 0x40 MLOAD DUP1 SWAP2 SUB SWAP1 LOG1 POP JUMP JUMPDEST PUSH2 0x36AC PUSH2 0x3BE5 JUMP JUMPDEST PUSH0 PUSH2 0x36B5 PUSH2 0x3C0F JUMP JUMPDEST PUSH1 0x1 PUSH1 0x1 PUSH1 0xA0 SHL SUB DUP2 AND PUSH0 SWAP1 DUP2 MSTORE PUSH1 0x9 PUSH1 0x20 MSTORE PUSH1 0x40 DUP2 KECCAK256 SLOAD SWAP2 SWAP3 POP DUP2 SWAP1 SUB PUSH2 0x36F0 JUMPI PUSH1 0x40 MLOAD PUSH4 0x3BD65A7B PUSH1 0xE2 SHL DUP2 MSTORE PUSH1 0x4 ADD PUSH1 0x40 MLOAD DUP1 SWAP2 SUB SWAP1 REVERT JUMPDEST PUSH1 0x1 PUSH1 0x1 PUSH1 0xA0 SHL SUB DUP3 AND PUSH0 DUP2 DUP2 MSTORE PUSH1 0x9 PUSH1 0x20 MSTORE PUSH1 0x40 DUP1 DUP3 KECCAK256 DUP3 SWAP1 SSTORE MLOAD SWAP1 SWAP2 SWAP1 DUP4 SWAP1 DUP4 DUP2 DUP2 DUP2 DUP6 DUP8 GAS CALL SWAP3 POP POP POP RETURNDATASIZE DUP1 PUSH0 DUP2 EQ PUSH2 0x3747 JUMPI PUSH1 0x40 MLOAD SWAP2 POP PUSH1 0x1F NOT PUSH1 0x3F RETURNDATASIZE ADD AND DUP3 ADD PUSH1 0x40 MSTORE RETURNDATASIZE DUP3 MSTORE RETURNDATASIZE PUSH0 PUSH1 0x20 DUP5 ADD RETURNDATACOPY PUSH2 0x374C JUMP JUMPDEST PUSH1 0x60 SWAP2 POP JUMPDEST POP POP SWAP1 POP DUP1 PUSH2 0x376E JUMPI PUSH1 0x40 MLOAD PUSH4 0x12171D83 PUSH1 0xE3 SHL DUP2 MSTORE PUSH1 0x4 ADD PUSH1 0x40 MLOAD DUP1 SWAP2 SUB SWAP1 REVERT JUMPDEST DUP3 PUSH1 0x1 PUSH1 0x1 PUSH1 0xA0 SHL SUB AND PUSH32 0x6914793C7A82461ACEC66C7DE7FDBBBF1F825C26BC2FE939B61F0E4F8964C2B5 PUSH0 DUP5 TIMESTAMP PUSH1 0x40 MLOAD PUSH2 0x37AB SWAP4 SWAP3 SWAP2 SWAP1 PUSH2 0x449D JUMP JUMPDEST PUSH1 0x40 MLOAD DUP1 SWAP2 SUB SWAP1 LOG2 POP POP POP PUSH2 0x12BC PUSH1 0x1 DUP1 SSTORE JUMP JUMPDEST PUSH0 DUP1 MLOAD PUSH1 0x20 PUSH2 0x4691 DUP4 CODECOPY DUP2 MLOAD SWAP2 MSTORE PUSH2 0x37D6 DUP2 PUSH2 0x3BD4 JUMP JUMPDEST PUSH0 JUMPDEST DUP3 DUP2 LT ISZERO PUSH2 0x3867 JUMPI PUSH1 0x1 PUSH1 0x1 PUSH1 0xA0 SHL SUB DUP6 AND PUSH0 SWAP1 DUP2 MSTORE PUSH1 0x6 PUSH1 0x20 MSTORE PUSH1 0x40 SWAP1 KECCAK256 PUSH1 0x4 SWAP1 DUP6 DUP6 DUP5 DUP2 DUP2 LT PUSH2 0x380C JUMPI PUSH2 0x380C PUSH2 0x44CF JUMP JUMPDEST SWAP1 POP PUSH1 0x20 MUL ADD CALLDATALOAD DUP2 SLOAD DUP2 LT PUSH2 0x3823 JUMPI PUSH2 0x3823 PUSH2 0x44CF JUMP JUMPDEST PUSH0 SWAP2 DUP3 MSTORE PUSH1 0x20 SWAP1 SWAP2 KECCAK256 PUSH1 0x1 PUSH1 0x2 SWAP1 SWAP3 MUL ADD DUP2 ADD DUP1 SLOAD PUSH1 0xFF SWAP4 DUP5 AND PUSH1 0x1 PUSH1 0x38 SHL DUP1 DUP4 DIV SWAP6 SWAP1 SWAP6 AND OR SWAP1 SWAP4 MUL PUSH8 0xFF00000000000000 NOT SWAP1 SWAP4 AND SWAP3 SWAP1 SWAP3 OR SWAP1 SWAP2 SSTORE ADD PUSH2 0x37D8 JUMP JUMPDEST POP POP POP POP POP JUMP JUMPDEST PUSH0 DUP1 MLOAD PUSH1 0x20 PUSH2 0x4691 DUP4 CODECOPY DUP2 MLOAD SWAP2 MSTORE PUSH2 0x3885 DUP2 PUSH2 0x3BD4 JUMP JUMPDEST PUSH0 DUP4 PUSH1 0x1 DUP2 GT ISZERO PUSH2 0x3898 JUMPI PUSH2 0x3898 PUSH2 0x412F JUMP JUMPDEST SUB PUSH2 0x38A7 JUMPI PUSH1 0x3 DUP3 SWAP1 SSTORE PUSH2 0x38AD JUMP JUMPDEST PUSH1 0x4 DUP3 SWAP1 SSTORE JUMPDEST PUSH32 0x5D7976BCCD4B396C1A1A0020032E62BF8A381BCFFC61E69A13EA61761B757218 DUP4 DUP4 PUSH1 0x40 MLOAD PUSH2 0x200D SWAP3 SWAP2 SWAP1 PUSH2 0x45E7 JUMP JUMPDEST PUSH2 0x38E6 PUSH2 0x3BE5 JUMP JUMPDEST PUSH1 0x5 SLOAD PUSH1 0xFF AND ISZERO PUSH2 0x390A JUMPI PUSH1 0x40 MLOAD PUSH4 0xDEEB6943 PUSH1 0xE0 SHL DUP2 MSTORE PUSH1 0x4 ADD PUSH1 0x40 MLOAD DUP1 SWAP2 SUB SWAP1 REVERT JUMPDEST CALLVALUE PUSH0 DUP2 SWAP1 SUB PUSH2 0x392C JUMPI PUSH1 0x40 MLOAD PUSH4 0x162908E3 PUSH1 0xE1 SHL DUP2 MSTORE PUSH1 0x4 ADD PUSH1 0x40 MLOAD DUP1 SWAP2 SUB SWAP1 REVERT JUMPDEST PUSH1 0x3 SLOAD DUP2 PUSH1 0xF SLOAD PUSH2 0x393D SWAP2 SWAP1 PUSH2 0x44BC JUMP JUMPDEST GT ISZERO PUSH2 0x395C JUMPI PUSH1 0x40 MLOAD PUSH4 0x6BF4C8E9 PUSH1 0xE1 SHL DUP2 MSTORE PUSH1 0x4 ADD PUSH1 0x40 MLOAD DUP1 SWAP2 SUB SWAP1 REVERT JUMPDEST PUSH1 0x5 SLOAD PUSH3 0x10000 SWAP1 DIV PUSH1 0xFF AND DUP1 ISZERO PUSH2 0x3998 JUMPI POP PUSH1 0x7 PUSH0 PUSH2 0x397A PUSH2 0x3C0F JUMP JUMPDEST PUSH1 0x1 PUSH1 0x1 PUSH1 0xA0 SHL SUB AND DUP2 MSTORE PUSH1 0x20 DUP2 ADD SWAP2 SWAP1 SWAP2 MSTORE PUSH1 0x40 ADD PUSH0 KECCAK256 SLOAD PUSH1 0xFF AND ISZERO JUMPDEST ISZERO PUSH2 0x39B6 JUMPI PUSH1 0x40 MLOAD PUSH4 0xB094F27 PUSH1 0xE3 SHL DUP2 MSTORE PUSH1 0x4 ADD PUSH1 0x40 MLOAD DUP1 SWAP2 SUB SWAP1 REVERT JUMPDEST PUSH2 0x39C9 PUSH2 0x39C1 PUSH2 0x3C0F JUMP JUMPDEST PUSH0 DUP4 PUSH0 PUSH2 0x3C1D JUMP JUMPDEST DUP1 PUSH1 0xF PUSH0 DUP3 DUP3 SLOAD PUSH2 0x39DA SWAP2 SWAP1 PUSH2 0x44BC JUMP JUMPDEST SWAP1 SWAP2 SSTORE POP POP PUSH1 0x1 DUP1 SSTORE POP JUMP JUMPDEST PUSH2 0x39EE PUSH2 0x3BE5 JUMP JUMPDEST PUSH1 0x5 SLOAD PUSH1 0xFF AND ISZERO PUSH2 0x3A12 JUMPI PUSH1 0x40 MLOAD PUSH4 0xDEEB6943 PUSH1 0xE0 SHL DUP2 MSTORE PUSH1 0x4 ADD PUSH1 0x40 MLOAD DUP1 SWAP2 SUB SWAP1 REVERT JUMPDEST PUSH32 0x0 PUSH1 0x1 PUSH1 0x1 PUSH1 0xA0 SHL SUB AND PUSH2 0x3A59 JUMPI PUSH1 0x40 MLOAD PUSH4 0xD92E233D PUSH1 0xE0 SHL DUP2 MSTORE PUSH1 0x4 ADD PUSH1 0x40 MLOAD DUP1 SWAP2 SUB SWAP1 REVERT JUMPDEST DUP1 PUSH0 SUB PUSH2 0x3A79 JUMPI PUSH1 0x40 MLOAD PUSH4 0x162908E3 PUSH1 0xE1 SHL DUP2 MSTORE PUSH1 0x4 ADD PUSH1 0x40 MLOAD DUP1 SWAP2 SUB SWAP1 REVERT JUMPDEST PUSH1 0x4 SLOAD DUP2 PUSH1 0x10 SLOAD PUSH2 0x3A8A SWAP2 SWAP1 PUSH2 0x44BC JUMP JUMPDEST GT ISZERO PUSH2 0x3AA9 JUMPI PUSH1 0x40 MLOAD PUSH4 0x6BF4C8E9 PUSH1 0xE1 SHL DUP2 MSTORE PUSH1 0x4 ADD PUSH1 0x40 MLOAD DUP1 SWAP2 SUB SWAP1 REVERT JUMPDEST PUSH1 0x5 SLOAD PUSH3 0x10000 SWAP1 DIV PUSH1 0xFF AND DUP1 ISZERO PUSH2 0x3AE5 JUMPI POP PUSH1 0x7 PUSH0 PUSH2 0x3AC7 PUSH2 0x3C0F JUMP JUMPDEST PUSH1 0x1 PUSH1 0x1 PUSH1 0xA0 SHL SUB AND DUP2 MSTORE PUSH1 0x20 DUP2 ADD SWAP2 SWAP1 SWAP2 MSTORE PUSH1 0x40 ADD PUSH0 KECCAK256 SLOAD PUSH1 0xFF AND ISZERO JUMPDEST ISZERO PUSH2 0x3B03 JUMPI PUSH1 0x40 MLOAD PUSH4 0xB094F27 PUSH1 0xE3 SHL DUP2 MSTORE PUSH1 0x4 ADD PUSH1 0x40 MLOAD DUP1 SWAP2 SUB SWAP1 REVERT JUMPDEST PUSH32 0x0 PUSH1 0x1 PUSH1 0x1 PUSH1 0xA0 SHL SUB AND PUSH4 0x23B872DD PUSH2 0x3B3A PUSH2 0x3C0F JUMP JUMPDEST PUSH1 0x40 MLOAD PUSH1 0x1 PUSH1 0x1 PUSH1 0xE0 SHL SUB NOT PUSH1 0xE0 DUP5 SWAP1 SHL AND DUP2 MSTORE PUSH1 0x1 PUSH1 0x1 PUSH1 0xA0 SHL SUB SWAP1 SWAP2 AND PUSH1 0x4 DUP3 ADD MSTORE ADDRESS PUSH1 0x24 DUP3 ADD MSTORE PUSH1 0x44 DUP2 ADD DUP5 SWAP1 MSTORE PUSH1 0x64 ADD PUSH1 0x20 PUSH1 0x40 MLOAD DUP1 DUP4 SUB DUP2 PUSH0 DUP8 GAS CALL ISZERO DUP1 ISZERO PUSH2 0x3B8A JUMPI RETURNDATASIZE PUSH0 DUP1 RETURNDATACOPY RETURNDATASIZE PUSH0 REVERT JUMPDEST POP POP POP POP PUSH1 0x40 MLOAD RETURNDATASIZE PUSH1 0x1F NOT PUSH1 0x1F DUP3 ADD AND DUP3 ADD DUP1 PUSH1 0x40 MSTORE POP DUP2 ADD SWAP1 PUSH2 0x3BAE SWAP2 SWAP1 PUSH2 0x44E3 JUMP JUMPDEST POP PUSH2 0x3BC3 PUSH2 0x3BBA PUSH2 0x3C0F JUMP JUMPDEST PUSH1 0x1 DUP4 PUSH0 PUSH2 0x3C1D JUMP JUMPDEST DUP1 PUSH1 0x10 PUSH0 DUP3 DUP3 SLOAD PUSH2 0x39DA SWAP2 SWAP1 PUSH2 0x44BC JUMP JUMPDEST PUSH2 0x11B1 DUP2 PUSH2 0x3BE0 PUSH2 0x3C0F JUMP JUMPDEST PUSH2 0x3FBD JUMP JUMPDEST PUSH1 0x2 PUSH1 0x1 SLOAD SUB PUSH2 0x3C08 JUMPI PUSH1 0x40 MLOAD PUSH4 0x3EE5AEB5 PUSH1 0xE0 SHL DUP2 MSTORE PUSH1 0x4 ADD PUSH1 0x40 MLOAD DUP1 SWAP2 SUB SWAP1 REVERT JUMPDEST PUSH1 0x2 PUSH1 0x1 SSTORE JUMP JUMPDEST PUSH0 PUSH2 0x3C18 PUSH2 0x4013 JUMP JUMPDEST SWAP1 POP SWAP1 JUMP JUMPDEST PUSH0 DUP2 ISZERO PUSH2 0x3C28 JUMPI PUSH1 0x8 OR JUMPDEST PUSH1 0x6 PUSH0 DUP7 PUSH1 0x1 PUSH1 0x1 PUSH1 0xA0 SHL SUB AND PUSH1 0x1 PUSH1 0x1 PUSH1 0xA0 SHL SUB AND DUP2 MSTORE PUSH1 0x20 ADD SWAP1 DUP2 MSTORE PUSH1 0x20 ADD PUSH0 KECCAK256 PUSH1 0x40 MLOAD DUP1 PUSH1 0xC0 ADD PUSH1 0x40 MSTORE DUP1 DUP6 PUSH1 0x1 PUSH1 0x1 PUSH1 0x60 SHL SUB AND DUP2 MSTORE PUSH1 0x20 ADD PUSH0 PUSH1 0x1 PUSH1 0x1 PUSH1 0x60 SHL SUB AND DUP2 MSTORE PUSH1 0x20 ADD TIMESTAMP PUSH6 0xFFFFFFFFFFFF AND DUP2 MSTORE PUSH1 0x20 ADD PUSH0 PUSH6 0xFFFFFFFFFFFF AND DUP2 MSTORE PUSH1 0x20 ADD DUP7 PUSH1 0x1 DUP2 GT ISZERO PUSH2 0x3CA2 JUMPI PUSH2 0x3CA2 PUSH2 0x412F JUMP JUMPDEST DUP2 MSTORE PUSH1 0xFF DUP5 AND PUSH1 0x20 SWAP2 DUP3 ADD MSTORE DUP3 SLOAD PUSH1 0x1 DUP2 DUP2 ADD DUP6 SSTORE PUSH0 SWAP5 DUP6 MSTORE SWAP4 DUP3 SWAP1 KECCAK256 DUP4 MLOAD PUSH1 0x2 SWAP1 SWAP3 MUL ADD DUP1 SLOAD SWAP3 DUP5 ADD MLOAD PUSH1 0x40 DUP6 ADD MLOAD PUSH6 0xFFFFFFFFFFFF SWAP1 DUP2 AND PUSH1 0x1 PUSH1 0xC0 SHL MUL PUSH32 0xFFFF000000000000FFFFFFFFFFFFFFFFFFFFFFFFFFFFFFFFFFFFFFFFFFFFFFFF PUSH1 0x1 PUSH1 0x1 PUSH1 0x60 SHL SUB SWAP4 DUP5 AND PUSH1 0x1 PUSH1 0x60 SHL MUL PUSH32 0xFFFFFFFFFFFFFFFF000000000000000000000000000000000000000000000000 SWAP1 SWAP8 AND SWAP4 SWAP1 SWAP6 AND SWAP3 SWAP1 SWAP3 OR SWAP5 SWAP1 SWAP5 OR SWAP3 SWAP1 SWAP3 AND SWAP2 SWAP1 SWAP2 OR DUP2 SSTORE PUSH1 0x60 DUP4 ADD MLOAD DUP2 DUP6 ADD DUP1 SLOAD SWAP2 SWAP1 SWAP4 AND PUSH6 0xFFFFFFFFFFFF NOT DUP3 AND DUP2 OR DUP5 SSTORE PUSH1 0x80 DUP6 ADD MLOAD SWAP5 SWAP6 SWAP3 SWAP5 SWAP4 SWAP3 PUSH7 0xFFFFFFFFFFFFFF NOT SWAP1 SWAP3 AND OR SWAP1 PUSH7 0x1000000000000 SWAP1 DUP5 SWAP1 DUP2 GT ISZERO PUSH2 0x3D9D JUMPI PUSH2 0x3D9D PUSH2 0x412F JUMP JUMPDEST MUL OR SWAP1 SSTORE POP PUSH1 0xA0 SWAP2 SWAP1 SWAP2 ADD MLOAD PUSH1 0x1 SWAP1 SWAP2 ADD DUP1 SLOAD PUSH8 0xFF00000000000000 NOT AND PUSH1 0x1 PUSH1 0x38 SHL PUSH1 0xFF SWAP4 DUP5 AND MUL OR SWAP1 SSTORE PUSH1 0x1 PUSH1 0x1 PUSH1 0xA0 SHL SUB DUP7 AND PUSH0 SWAP1 DUP2 MSTORE PUSH1 0xD PUSH1 0x20 MSTORE PUSH1 0x40 SWAP1 KECCAK256 SLOAD AND PUSH2 0x3E09 JUMPI PUSH1 0x1 PUSH1 0x1 PUSH1 0xA0 SHL SUB DUP6 AND PUSH0 SWAP1 DUP2 MSTORE PUSH1 0xD PUSH1 0x20 MSTORE PUSH1 0x40 SWAP1 KECCAK256 DUP1 SLOAD PUSH1 0xFF NOT AND PUSH1 0x1 OR SWAP1 SSTORE JUMPDEST PUSH1 0x1 PUSH1 0x1 PUSH1 0xA0 SHL SUB DUP6 AND PUSH0 DUP2 DUP2 MSTORE PUSH1 0x6 PUSH1 0x20 MSTORE PUSH1 0x40 SWAP1 KECCAK256 SLOAD PUSH32 0x48916AC7F9777648255AB8645729FF3B5D20AA412A40FE81DAC2433522EAA058 SWAP1 DUP7 SWAP1 DUP7 SWAP1 TIMESTAMP SWAP1 PUSH2 0x3E55 SWAP1 PUSH1 0x1 SWAP1 PUSH2 0x448A JUMP JUMPDEST DUP8 PUSH1 0x40 MLOAD PUSH2 0x3E67 SWAP6 SWAP5 SWAP4 SWAP3 SWAP2 SWAP1 PUSH2 0x4602 JUMP JUMPDEST PUSH1 0x40 MLOAD DUP1 SWAP2 SUB SWAP1 LOG2 POP POP POP POP POP JUMP JUMPDEST PUSH0 DUP3 DUP2 MSTORE PUSH1 0x20 DUP2 DUP2 MSTORE PUSH1 0x40 DUP1 DUP4 KECCAK256 PUSH1 0x1 PUSH1 0x1 PUSH1 0xA0 SHL SUB DUP6 AND DUP5 MSTORE SWAP1 SWAP2 MSTORE DUP2 KECCAK256 SLOAD PUSH1 0xFF AND PUSH2 0x3F17 JUMPI PUSH0 DUP4 DUP2 MSTORE PUSH1 0x20 DUP2 DUP2 MSTORE PUSH1 0x40 DUP1 DUP4 KECCAK256 PUSH1 0x1 PUSH1 0x1 PUSH1 0xA0 SHL SUB DUP7 AND DUP5 MSTORE SWAP1 SWAP2 MSTORE SWAP1 KECCAK256 DUP1 SLOAD PUSH1 0xFF NOT AND PUSH1 0x1 OR SWAP1 SSTORE PUSH2 0x3ECF PUSH2 0x3C0F JUMP JUMPDEST PUSH1 0x1 PUSH1 0x1 PUSH1 0xA0 SHL SUB AND DUP3 PUSH1 0x1 PUSH1 0x1 PUSH1 0xA0 SHL SUB AND DUP5 PUSH32 0x2F8788117E7EFF1D82E926EC794901D17C78024A50270940304540A733656F0D PUSH1 0x40 MLOAD PUSH1 0x40 MLOAD DUP1 SWAP2 SUB SWAP1 LOG4 POP PUSH1 0x1 PUSH2 0x1020 JUMP JUMPDEST POP PUSH0 PUSH2 0x1020 JUMP JUMPDEST PUSH0 DUP3 DUP2 MSTORE PUSH1 0x20 DUP2 DUP2 MSTORE PUSH1 0x40 DUP1 DUP4 KECCAK256 PUSH1 0x1 PUSH1 0x1 PUSH1 0xA0 SHL SUB DUP6 AND DUP5 MSTORE SWAP1 SWAP2 MSTORE DUP2 KECCAK256 SLOAD PUSH1 0xFF AND ISZERO PUSH2 0x3F17 JUMPI PUSH0 DUP4 DUP2 MSTORE PUSH1 0x20 DUP2 DUP2 MSTORE PUSH1 0x40 DUP1 DUP4 KECCAK256 PUSH1 0x1 PUSH1 0x1 PUSH1 0xA0 SHL SUB DUP7 AND DUP5 MSTORE SWAP1 SWAP2 MSTORE SWAP1 KECCAK256 DUP1 SLOAD PUSH1 0xFF NOT AND SWAP1 SSTORE PUSH2 0x3F75 PUSH2 0x3C0F JUMP JUMPDEST PUSH1 0x1 PUSH1 0x1 PUSH1 0xA0 SHL SUB AND DUP3 PUSH1 0x1 PUSH1 0x1 PUSH1 0xA0 SHL SUB AND DUP5 PUSH32 0xF6391F5C32D9C69D2A47EA670B442974B53935D1EDC7FD64EB21E047A839171B PUSH1 0x40 MLOAD PUSH1 0x40 MLOAD DUP1 SWAP2 SUB SWAP1 LOG4 POP PUSH1 0x1 PUSH2 0x1020 JUMP JUMPDEST PUSH0 DUP3 DUP2 MSTORE PUSH1 0x20 DUP2 DUP2 MSTORE PUSH1 0x40 DUP1 DUP4 KECCAK256 PUSH1 0x1 PUSH1 0x1 PUSH1 0xA0 SHL SUB DUP6 AND DUP5 MSTORE SWAP1 SWAP2 MSTORE SWAP1 KECCAK256 SLOAD PUSH1 0xFF AND PUSH2 0x1ED7 JUMPI PUSH1 0x40 MLOAD PUSH4 0xE2517D3F PUSH1 0xE0 SHL DUP2 MSTORE PUSH1 0x1 PUSH1 0x1 PUSH1 0xA0 SHL SUB DUP3 AND PUSH1 0x4 DUP3 ADD MSTORE PUSH1 0x24 DUP2 ADD DUP4 SWAP1 MSTORE PUSH1 0x44 ADD PUSH1 0x40 MLOAD DUP1 SWAP2 SUB SWAP1 REVERT JUMPDEST PUSH0 CALLDATASIZE PUSH1 0x14 DUP1 DUP3 LT DUP1 ISZERO SWAP1 PUSH2 0x404F JUMPI POP PUSH32 0x0 PUSH1 0x1 PUSH1 0x1 PUSH1 0xA0 SHL SUB AND CALLER EQ JUMPDEST ISZERO PUSH2 0x4075 JUMPI PUSH2 0x4062 CALLDATASIZE DUP3 DUP5 SUB DUP2 PUSH0 PUSH2 0x4634 JUMP JUMPDEST PUSH2 0x406B SWAP2 PUSH2 0x465B JUMP JUMPDEST PUSH1 0x60 SHR SWAP3 POP POP POP SWAP1 JUMP JUMPDEST CALLER SWAP3 POP POP POP SWAP1 JUMP JUMPDEST PUSH0 PUSH1 0x20 DUP3 DUP5 SUB SLT ISZERO PUSH2 0x408D JUMPI PUSH0 DUP1 REVERT JUMPDEST DUP2 CALLDATALOAD PUSH1 0x1 PUSH1 0x1 PUSH1 0xE0 SHL SUB NOT DUP2 AND DUP2 EQ PUSH2 0x40A4 JUMPI PUSH0 DUP1 REVERT JUMPDEST SWAP4 SWAP3 POP POP POP JUMP JUMPDEST DUP1 CALLDATALOAD PUSH1 0x1 PUSH1 0x1 PUSH1 0xA0 SHL SUB DUP2 AND DUP2 EQ PUSH2 0x40C1 JUMPI PUSH0 DUP1 REVERT JUMPDEST SWAP2 SWAP1 POP JUMP JUMPDEST PUSH0 PUSH1 0x20 DUP3 DUP5 SUB SLT ISZERO PUSH2 0x40D6 JUMPI PUSH0 DUP1 REVERT JUMPDEST PUSH2 0x40A4 DUP3 PUSH2 0x40AB JUMP JUMPDEST DUP1 ISZERO ISZERO DUP2 EQ PUSH2 0x11B1 JUMPI PUSH0 DUP1 REVERT JUMPDEST PUSH0 PUSH1 0x20 DUP3 DUP5 SUB SLT ISZERO PUSH2 0x40FC JUMPI PUSH0 DUP1 REVERT JUMPDEST DUP2 CALLDATALOAD PUSH2 0x40A4 DUP2 PUSH2 0x40DF JUMP JUMPDEST PUSH0 DUP1 PUSH1 0x40 DUP4 DUP6 SUB SLT ISZERO PUSH2 0x4118 JUMPI PUSH0 DUP1 REVERT JUMPDEST PUSH2 0x4121 DUP4 PUSH2 0x40AB JUMP JUMPDEST SWAP5 PUSH1 0x20 SWAP4 SWAP1 SWAP4 ADD CALLDATALOAD SWAP4 POP POP POP JUMP JUMPDEST PUSH4 0x4E487B71 PUSH1 0xE0 SHL PUSH0 MSTORE PUSH1 0x21 PUSH1 0x4 MSTORE PUSH1 0x24 PUSH0 REVERT JUMPDEST PUSH1 0x2 DUP2 LT PUSH2 0x415F JUMPI PUSH4 0x4E487B71 PUSH1 0xE0 SHL PUSH0 MSTORE PUSH1 0x21 PUSH1 0x4 MSTORE PUSH1 0x24 PUSH0 REVERT JUMPDEST SWAP1 MSTORE JUMP JUMPDEST PUSH1 0x1 PUSH1 0x1 PUSH1 0x60 SHL SUB DUP8 DUP2 AND DUP3 MSTORE DUP7 AND PUSH1 0x20 DUP3 ADD MSTORE PUSH6 0xFFFFFFFFFFFF DUP6 DUP2 AND PUSH1 0x40 DUP4 ADD MSTORE DUP5 AND PUSH1 0x60 DUP3 ADD MSTORE PUSH1 0xC0 DUP2 ADD PUSH2 0x419E PUSH1 0x80 DUP4 ADD DUP6 PUSH2 0x4143 JUMP JUMPDEST PUSH1 0xFF DUP4 AND PUSH1 0xA0 DUP4 ADD MSTORE SWAP8 SWAP7 POP POP POP POP POP POP POP JUMP JUMPDEST PUSH0 PUSH1 0x20 DUP3 DUP5 SUB SLT ISZERO PUSH2 0x41C2 JUMPI PUSH0 DUP1 REVERT JUMPDEST POP CALLDATALOAD SWAP2 SWAP1 POP JUMP JUMPDEST PUSH1 0x20 DUP1 DUP3 MSTORE DUP3 MLOAD DUP3 DUP3 ADD DUP2 SWAP1 MSTORE PUSH0 SWAP2 SWAP1 PUSH1 0x40 SWAP1 DUP2 DUP6 ADD SWAP1 DUP7 DUP5 ADD DUP6 JUMPDEST DUP3 DUP2 LT ISZERO PUSH2 0x4259 JUMPI DUP2 MLOAD DUP1 MLOAD PUSH1 0x1 PUSH1 0x1 PUSH1 0x60 SHL SUB SWAP1 DUP2 AND DUP7 MSTORE DUP8 DUP3 ADD MLOAD AND DUP8 DUP7 ADD MSTORE DUP6 DUP2 ADD MLOAD PUSH6 0xFFFFFFFFFFFF SWAP1 DUP2 AND DUP8 DUP8 ADD MSTORE PUSH1 0x60 DUP1 DUP4 ADD MLOAD SWAP1 SWAP2 AND SWAP1 DUP7 ADD MSTORE PUSH1 0x80 DUP1 DUP3 ADD MLOAD PUSH2 0x4238 DUP3 DUP9 ADD DUP3 PUSH2 0x4143 JUMP JUMPDEST POP POP PUSH1 0xA0 SWAP1 DUP2 ADD MLOAD PUSH1 0xFF AND SWAP1 DUP6 ADD MSTORE PUSH1 0xC0 SWAP1 SWAP4 ADD SWAP3 SWAP1 DUP6 ADD SWAP1 PUSH1 0x1 ADD PUSH2 0x41E5 JUMP JUMPDEST POP SWAP2 SWAP8 SWAP7 POP POP POP POP POP POP POP JUMP JUMPDEST PUSH0 DUP1 PUSH1 0x40 DUP4 DUP6 SUB SLT ISZERO PUSH2 0x4277 JUMPI PUSH0 DUP1 REVERT JUMPDEST DUP3 CALLDATALOAD SWAP2 POP PUSH2 0x4287 PUSH1 0x20 DUP5 ADD PUSH2 0x40AB JUMP JUMPDEST SWAP1 POP SWAP3 POP SWAP3 SWAP1 POP JUMP JUMPDEST PUSH0 DUP1 DUP4 PUSH1 0x1F DUP5 ADD SLT PUSH2 0x42A0 JUMPI PUSH0 DUP1 REVERT JUMPDEST POP DUP2 CALLDATALOAD PUSH8 0xFFFFFFFFFFFFFFFF DUP2 GT ISZERO PUSH2 0x42B7 JUMPI PUSH0 DUP1 REVERT JUMPDEST PUSH1 0x20 DUP4 ADD SWAP2 POP DUP4 PUSH1 0x20 DUP3 PUSH1 0x5 SHL DUP6 ADD ADD GT ISZERO PUSH2 0x42D1 JUMPI PUSH0 DUP1 REVERT JUMPDEST SWAP3 POP SWAP3 SWAP1 POP JUMP JUMPDEST PUSH0 DUP1 PUSH0 DUP1 PUSH1 0x40 DUP6 DUP8 SUB SLT ISZERO PUSH2 0x42EB JUMPI PUSH0 DUP1 REVERT JUMPDEST DUP5 CALLDATALOAD PUSH8 0xFFFFFFFFFFFFFFFF DUP1 DUP3 GT ISZERO PUSH2 0x4302 JUMPI PUSH0 DUP1 REVERT JUMPDEST PUSH2 0x430E DUP9 DUP4 DUP10 ADD PUSH2 0x4290 JUMP JUMPDEST SWAP1 SWAP7 POP SWAP5 POP PUSH1 0x20 DUP8 ADD CALLDATALOAD SWAP2 POP DUP1 DUP3 GT ISZERO PUSH2 0x4326 JUMPI PUSH0 DUP1 REVERT JUMPDEST POP PUSH2 0x4333 DUP8 DUP3 DUP9 ADD PUSH2 0x4290 JUMP JUMPDEST SWAP6 SWAP9 SWAP5 SWAP8 POP SWAP6 POP POP POP POP JUMP JUMPDEST PUSH0 DUP1 PUSH1 0x40 DUP4 DUP6 SUB SLT ISZERO PUSH2 0x4350 JUMPI PUSH0 DUP1 REVERT JUMPDEST PUSH2 0x4359 DUP4 PUSH2 0x40AB JUMP JUMPDEST SWAP2 POP PUSH1 0x20 DUP4 ADD CALLDATALOAD PUSH2 0x4369 DUP2 PUSH2 0x40DF JUMP JUMPDEST DUP1 SWAP2 POP POP SWAP3 POP SWAP3 SWAP1 POP JUMP JUMPDEST PUSH0 DUP1 PUSH1 0x40 DUP4 DUP6 SUB SLT ISZERO PUSH2 0x4385 JUMPI PUSH0 DUP1 REVERT JUMPDEST DUP3 CALLDATALOAD PUSH2 0x4359 DUP2 PUSH2 0x40DF JUMP JUMPDEST PUSH0 DUP1 PUSH1 0x20 DUP4 DUP6 SUB SLT ISZERO PUSH2 0x43A1 JUMPI PUSH0 DUP1 REVERT JUMPDEST DUP3 CALLDATALOAD PUSH8 0xFFFFFFFFFFFFFFFF DUP2 GT ISZERO PUSH2 0x43B7 JUMPI PUSH0 DUP1 REVERT JUMPDEST PUSH2 0x43C3 DUP6 DUP3 DUP7 ADD PUSH2 0x4290 JUMP JUMPDEST SWAP1 SWAP7 SWAP1 SWAP6 POP SWAP4 POP POP POP POP JUMP JUMPDEST PUSH0 DUP1 PUSH0 PUSH1 0x40 DUP5 DUP7 SUB SLT ISZERO PUSH2 0x43E1 JUMPI PUSH0 DUP1 REVERT JUMPDEST PUSH2 0x43EA DUP5 PUSH2 0x40AB JUMP JUMPDEST SWAP3 POP PUSH1 0x20 DUP5 ADD CALLDATALOAD PUSH8 0xFFFFFFFFFFFFFFFF DUP2 GT ISZERO PUSH2 0x4405 JUMPI PUSH0 DUP1 REVERT JUMPDEST PUSH2 0x4411 DUP7 DUP3 DUP8 ADD PUSH2 0x4290 JUMP JUMPDEST SWAP5 SWAP8 SWAP1 SWAP7 POP SWAP4 SWAP5 POP POP POP POP JUMP JUMPDEST PUSH0 DUP1 PUSH0 PUSH1 0x60 DUP5 DUP7 SUB SLT ISZERO PUSH2 0x4430 JUMPI PUSH0 DUP1 REVERT JUMPDEST PUSH2 0x4439 DUP5 PUSH2 0x40AB JUMP JUMPDEST SWAP3 POP PUSH2 0x4447 PUSH1 0x20 DUP6 ADD PUSH2 0x40AB JUMP JUMPDEST SWAP2 POP PUSH1 0x40 DUP5 ADD CALLDATALOAD SWAP1 POP SWAP3 POP SWAP3 POP SWAP3 JUMP JUMPDEST PUSH0 DUP1 PUSH1 0x40 DUP4 DUP6 SUB SLT ISZERO PUSH2 0x4468 JUMPI PUSH0 DUP1 REVERT JUMPDEST DUP3 CALLDATALOAD PUSH1 0x2 DUP2 LT PUSH2 0x4121 JUMPI PUSH0 DUP1 REVERT JUMPDEST PUSH4 0x4E487B71 PUSH1 0xE0 SHL PUSH0 MSTORE PUSH1 0x11 PUSH1 0x4 MSTORE PUSH1 0x24 PUSH0 REVERT JUMPDEST DUP2 DUP2 SUB DUP2 DUP2 GT ISZERO PUSH2 0x1020 JUMPI PUSH2 0x1020 PUSH2 0x4476 JUMP JUMPDEST PUSH1 0x60 DUP2 ADD PUSH2 0x44AB DUP3 DUP7 PUSH2 0x4143 JUMP JUMPDEST PUSH1 0x20 DUP3 ADD SWAP4 SWAP1 SWAP4 MSTORE PUSH1 0x40 ADD MSTORE SWAP2 SWAP1 POP JUMP JUMPDEST DUP1 DUP3 ADD DUP1 DUP3 GT ISZERO PUSH2 0x1020 JUMPI PUSH2 0x1020 PUSH2 0x4476 JUMP JUMPDEST PUSH4 0x4E487B71 PUSH1 0xE0 SHL PUSH0 MSTORE PUSH1 0x32 PUSH1 0x4 MSTORE PUSH1 0x24 PUSH0 REVERT JUMPDEST PUSH0 PUSH1 0x20 DUP3 DUP5 SUB SLT ISZERO PUSH2 0x44F3 JUMPI PUSH0 DUP1 REVERT JUMPDEST DUP2 MLOAD PUSH2 0x40A4 DUP2 PUSH2 0x40DF JUMP JUMPDEST PUSH1 0xA0 DUP2 ADD PUSH2 0x450C DUP3 DUP9 PUSH2 0x4143 JUMP JUMPDEST DUP6 PUSH1 0x20 DUP4 ADD MSTORE DUP5 PUSH1 0x40 DUP4 ADD MSTORE DUP4 PUSH1 0x60 DUP4 ADD MSTORE DUP3 PUSH1 0x80 DUP4 ADD MSTORE SWAP7 SWAP6 POP POP POP POP POP POP JUMP JUMPDEST DUP2 DUP4 MSTORE PUSH0 PUSH32 0x7FFFFFFFFFFFFFFFFFFFFFFFFFFFFFFFFFFFFFFFFFFFFFFFFFFFFFFFFFFFFFF DUP4 GT ISZERO PUSH2 0x455E JUMPI PUSH0 DUP1 REVERT JUMPDEST DUP3 PUSH1 0x5 SHL DUP1 DUP4 PUSH1 0x20 DUP8 ADD CALLDATACOPY SWAP4 SWAP1 SWAP4 ADD PUSH1 0x20 ADD SWAP4 SWAP3 POP POP POP JUMP JUMPDEST PUSH2 0x4581 DUP2 DUP9 PUSH2 0x4143 JUMP JUMPDEST PUSH1 0xA0 PUSH1 0x20 DUP3 ADD MSTORE PUSH0 PUSH2 0x4597 PUSH1 0xA0 DUP4 ADD DUP8 DUP10 PUSH2 0x452E JUMP JUMPDEST PUSH1 0x40 DUP4 ADD SWAP6 SWAP1 SWAP6 MSTORE POP PUSH1 0x60 DUP2 ADD SWAP3 SWAP1 SWAP3 MSTORE PUSH1 0x80 SWAP1 SWAP2 ADD MSTORE SWAP4 SWAP3 POP POP POP JUMP JUMPDEST PUSH1 0x20 DUP2 MSTORE PUSH0 PUSH2 0x45C8 PUSH1 0x20 DUP4 ADD DUP5 DUP7 PUSH2 0x452E JUMP JUMPDEST SWAP5 SWAP4 POP POP POP POP JUMP JUMPDEST PUSH0 PUSH1 0x20 DUP3 DUP5 SUB SLT ISZERO PUSH2 0x45E0 JUMPI PUSH0 DUP1 REVERT JUMPDEST POP MLOAD SWAP2 SWAP1 POP JUMP JUMPDEST PUSH1 0x40 DUP2 ADD PUSH2 0x45F5 DUP3 DUP6 PUSH2 0x4143 JUMP JUMPDEST DUP3 PUSH1 0x20 DUP4 ADD MSTORE SWAP4 SWAP3 POP POP POP JUMP JUMPDEST PUSH1 0xA0 DUP2 ADD PUSH2 0x4610 DUP3 DUP9 PUSH2 0x4143 JUMP JUMPDEST DUP6 PUSH1 0x20 DUP4 ADD MSTORE DUP5 PUSH1 0x40 DUP4 ADD MSTORE DUP4 PUSH1 0x60 DUP4 ADD MSTORE DUP3 ISZERO ISZERO PUSH1 0x80 DUP4 ADD MSTORE SWAP7 SWAP6 POP POP POP POP POP POP JUMP JUMPDEST PUSH0 DUP1 DUP6 DUP6 GT ISZERO PUSH2 0x4642 JUMPI PUSH0 DUP1 REVERT JUMPDEST DUP4 DUP7 GT ISZERO PUSH2 0x464E JUMPI PUSH0 DUP1 REVERT JUMPDEST POP POP DUP3 ADD SWAP4 SWAP2 SWAP1 SWAP3 SUB SWAP2 POP JUMP JUMPDEST PUSH12 0xFFFFFFFFFFFFFFFFFFFFFFFF NOT DUP2 CALLDATALOAD DUP2 DUP2 AND SWAP2 PUSH1 0x14 DUP6 LT ISZERO PUSH2 0x4688 JUMPI DUP1 DUP2 DUP7 PUSH1 0x14 SUB PUSH1 0x3 SHL SHL DUP4 AND AND SWAP3 POP JUMPDEST POP POP SWAP3 SWAP2 POP POP JUMP INVALID LOG4 SWAP9 SMOD KECCAK256 TLOAD 0xE4 0xD3 SSTORE MULMOD 0x2E CREATE2 0xA8 LOG1 DUP16 JUMP 0xE8 SWAP2 EXTCODECOPY DELEGATECALL LOG2 ADD 0xFB 0xE2 DUP8 DUP3 JUMPDEST MULMOD JUMP SWAP4 0xC2 OR PUSH22 0xA2646970667358221220EE53B8D6F585B5C6984972E8 PUSH19 0xE1BC468CD56F09779945AB7AAD8275EAD3608 PUSH5 0x736F6C6343 STOP ADDMOD NOT STOP CALLER "
    },
    "gasEstimates": {
      "creation": {
        "codeDepositCost": "3630000",
        "executionCost": "infinite",
        "totalCost": "infinite"
      },
      "external": {
        "ADMIN_ROLE()": "infinite",
        "DEFAULT_ADMIN_ROLE()": "327",
        "MANAGER_ROLE()": "283",
        "PAUSER_ROLE()": "284",
        "UNLOCKER_ROLE()": "306",
        "UTILITY_INJECTOR_ROLE()": "286",
        "UTILITY_WITHDRAWER_ROLE()": "307",
        "assignUtilityETH(address,uint256)": "infinite",
        "assignUtilityETHBatch(address[],uint256[])": "infinite",
        "assignUtilityUSDC(address,uint256)": "infinite",
        "assignUtilityUSDCBatch(address[],uint256[])": "infinite",
        "batchWithdraw(uint256[])": "infinite",
        "claimUtilityETH()": "infinite",
        "claimUtilityUSDC()": "infinite",
        "depositETH()": "infinite",
        "depositUSDC(uint256)": "infinite",
        "enableGlobalLiquidation()": "infinite",
        "getRoleAdmin(bytes32)": "2579",
        "getUserDeposits(address)": "infinite",
        "getUserStats(address)": "infinite",
        "getVaultStats()": "infinite",
        "globalLiquidationEnabled()": "2422",
        "globalLiquidationTimestamp()": "2413",
        "grantRole(bytes32,address)": "infinite",
        "hasRole(bytes32,address)": "2770",
        "hasWithdrawn(address)": "2651",
        "injectUtilityETH()": "infinite",
        "injectUtilityUSDC(uint256)": "infinite",
        "isKnownDepositor(address)": "2629",
        "isTrustedForwarder(address)": "infinite",
        "isWhitelisted(address)": "2651",
        "lockupPeriod()": "2405",
        "maxCapETH()": "2384",
        "maxCapUSDC()": "2385",
        "pausedDeposits()": "2389",
        "pausedWithdrawals()": "2398",
        "reinvestUtilityETH()": "infinite",
        "reinvestUtilityUSDC()": "infinite",
        "renounceRole(bytes32,address)": "infinite",
        "rescueERC20(address,address,uint256)": "infinite",
        "returnInvestmentETH()": "infinite",
        "returnInvestmentUSDC(uint256)": "infinite",
        "revokeRole(bytes32,address)": "infinite",
        "setDepositsAsRedeemable(address,uint256[])": "infinite",
        "setLockupPeriod(uint256)": "infinite",
        "setMaxCap(uint8,uint256)": "infinite",
        "setPaused(bool,bool)": "infinite",
        "setUtilityAddress(address)": "infinite",
        "setWhitelist(address,bool)": "infinite",
        "setWhitelistBatch(address[],bool[])": "infinite",
        "setWhitelistEnabled(bool)": "infinite",
        "supportsInterface(bytes4)": "493",
        "totalDepositedETH()": "2385",
        "totalDepositedUSDC()": "2386",
        "totalInvestedETH()": "2426",
        "totalInvestedUSDC()": "2407",
        "totalReinvestedETH()": "2407",
        "totalReinvestedUSDC()": "2383",
        "totalUtilityETH()": "2405",
        "totalUtilityUSDC()": "2406",
        "totalWithdrawnETH()": "2384",
        "totalWithdrawnUSDC()": "2405",
        "trustedForwarder()": "infinite",
        "unlockDepositsForUser(address,uint256[])": "infinite",
        "usdc()": "infinite",
        "userClaimableUtilityETH(address)": "2629",
        "userClaimableUtilityUSDC(address)": "2628",
        "userDeposits(address,uint256)": "7371",
        "userTotalReinvestedETH(address)": "2651",
        "userTotalReinvestedUSDC(address)": "2608",
        "utilityAddress()": "2486",
        "whitelistEnabled()": "2444",
        "withdraw(uint256)": "infinite",
        "withdrawForInvestmentETH(address,uint256)": "infinite",
        "withdrawForInvestmentUSDC(address,uint256)": "infinite",
        "withdrawUtilityETH(uint256)": "infinite",
        "withdrawUtilityUSDC(uint256)": "infinite",
        "withdrawnUsers(uint256)": "4723"
      },
      "internal": {
        "_contextSuffixLength()": "infinite",
        "_isFullyRedeemable(uint8)": "infinite",
        "_isUnlockedByAdmin(uint8)": "infinite",
        "_isWithdrawn(uint8)": "infinite",
        "_msgData()": "infinite",
        "_msgSender()": "infinite",
        "_registerDeposit(address,enum PoolPandorasSepolia.TokenType,uint256,bool)": "infinite"
      }
    },
    "methodIdentifiers": {
      "ADMIN_ROLE()": "75b238fc",
      "DEFAULT_ADMIN_ROLE()": "a217fddf",
      "MANAGER_ROLE()": "ec87621c",
      "PAUSER_ROLE()": "e63ab1e9",
      "UNLOCKER_ROLE()": "e043b2b2",
      "UTILITY_INJECTOR_ROLE()": "0c016ad5",
      "UTILITY_WITHDRAWER_ROLE()": "885f5029",
      "assignUtilityETH(address,uint256)": "6ec23995",
      "assignUtilityETHBatch(address[],uint256[])": "b758aeaa",
      "assignUtilityUSDC(address,uint256)": "762e1c73",
      "assignUtilityUSDCBatch(address[],uint256[])": "41debf1f",
      "batchWithdraw(uint256[])": "72e55399",
      "claimUtilityETH()": "e399067f",
      "claimUtilityUSDC()": "6c6ff56c",
      "depositETH()": "f6326fb3",
      "depositUSDC(uint256)": "f688bcfb",
      "enableGlobalLiquidation()": "da8d5add",
      "getRoleAdmin(bytes32)": "248a9ca3",
      "getUserDeposits(address)": "2a5bf6d2",
      "getUserStats(address)": "4e43603a",
      "getVaultStats()": "a59aa5a6",
      "globalLiquidationEnabled()": "246d47b7",
      "globalLiquidationTimestamp()": "588583a0",
      "grantRole(bytes32,address)": "2f2ff15d",
      "hasRole(bytes32,address)": "91d14854",
      "hasWithdrawn(address)": "5e2c19db",
      "injectUtilityETH()": "64021b13",
      "injectUtilityUSDC(uint256)": "d830d5cc",
      "isKnownDepositor(address)": "65d5ec96",
      "isTrustedForwarder(address)": "572b6c05",
      "isWhitelisted(address)": "3af32abf",
      "lockupPeriod()": "ee947a7c",
      "maxCapETH()": "9ddc3912",
      "maxCapUSDC()": "1c5aeef7",
      "pausedDeposits()": "6068d6cb",
      "pausedWithdrawals()": "b2b77ae2",
      "reinvestUtilityETH()": "275991d2",
      "reinvestUtilityUSDC()": "bda821e8",
      "renounceRole(bytes32,address)": "36568abe",
      "rescueERC20(address,address,uint256)": "b2118a8d",
      "returnInvestmentETH()": "17b51642",
      "returnInvestmentUSDC(uint256)": "5983b0bd",
      "revokeRole(bytes32,address)": "d547741f",
      "setDepositsAsRedeemable(address,uint256[])": "f5f11350",
      "setLockupPeriod(uint256)": "c771c390",
      "setMaxCap(uint8,uint256)": "f5f69af2",
      "setPaused(bool,bool)": "6426be48",
      "setUtilityAddress(address)": "89bad0a6",
      "setWhitelist(address,bool)": "53d6fd59",
      "setWhitelistBatch(address[],bool[])": "47af19aa",
      "setWhitelistEnabled(bool)": "052d9e7e",
      "supportsInterface(bytes4)": "01ffc9a7",
      "totalDepositedETH()": "899aa991",
      "totalDepositedUSDC()": "27175b23",
      "totalInvestedETH()": "fd46a171",
      "totalInvestedUSDC()": "2aad5edd",
      "totalReinvestedETH()": "97d9e5b4",
      "totalReinvestedUSDC()": "e15e23c1",
      "totalUtilityETH()": "b65ba94b",
      "totalUtilityUSDC()": "3ac43970",
      "totalWithdrawnETH()": "8b713b2e",
      "totalWithdrawnUSDC()": "e340b783",
      "trustedForwarder()": "7da0a877",
      "unlockDepositsForUser(address,uint256[])": "867d099a",
      "usdc()": "3e413bee",
      "userClaimableUtilityETH(address)": "3408567c",
      "userClaimableUtilityUSDC(address)": "e9fe0c78",
      "userDeposits(address,uint256)": "08f43333",
      "userTotalReinvestedETH(address)": "886d589d",
      "userTotalReinvestedUSDC(address)": "04c68af0",
      "utilityAddress()": "f29b2239",
      "whitelistEnabled()": "51fb012d",
      "withdraw(uint256)": "2e1a7d4d",
      "withdrawForInvestmentETH(address,uint256)": "c6d95b74",
      "withdrawForInvestmentUSDC(address,uint256)": "8dd4928e",
      "withdrawUtilityETH(uint256)": "93055c43",
      "withdrawUtilityUSDC(uint256)": "76c1d3db",
      "withdrawnUsers(uint256)": "9e657e33"
    }
  },
  "storageLayout": {
    "storage": [
      {
        "astId": 11267,
        "contract": "PoolPandorasSepolia.sol:PoolPandorasSepolia",
        "label": "_roles",
        "offset": 0,
        "slot": "0",
        "type": "t_mapping(t_bytes32,t_struct(RoleData)11262_storage)"
      },
      {
        "astId": 13000,
        "contract": "PoolPandorasSepolia.sol:PoolPandorasSepolia",
        "label": "_status",
        "offset": 0,
        "slot": "1",
        "type": "t_uint256"
      },
      {
        "astId": 8702,
        "contract": "PoolPandorasSepolia.sol:PoolPandorasSepolia",
        "label": "lockupPeriod",
        "offset": 0,
        "slot": "2",
        "type": "t_uint256"
      },
      {
        "astId": 8705,
        "contract": "PoolPandorasSepolia.sol:PoolPandorasSepolia",
        "label": "maxCapETH",
        "offset": 0,
        "slot": "3",
        "type": "t_uint256"
      },
      {
        "astId": 8710,
        "contract": "PoolPandorasSepolia.sol:PoolPandorasSepolia",
        "label": "maxCapUSDC",
        "offset": 0,
        "slot": "4",
        "type": "t_uint256"
      },
      {
        "astId": 8712,
        "contract": "PoolPandorasSepolia.sol:PoolPandorasSepolia",
        "label": "pausedDeposits",
        "offset": 0,
        "slot": "5",
        "type": "t_bool"
      },
      {
        "astId": 8714,
        "contract": "PoolPandorasSepolia.sol:PoolPandorasSepolia",
        "label": "pausedWithdrawals",
        "offset": 1,
        "slot": "5",
        "type": "t_bool"
      },
      {
        "astId": 8716,
        "contract": "PoolPandorasSepolia.sol:PoolPandorasSepolia",
        "label": "whitelistEnabled",
        "offset": 2,
        "slot": "5",
        "type": "t_bool"
      },
      {
        "astId": 8718,
        "contract": "PoolPandorasSepolia.sol:PoolPandorasSepolia",
        "label": "globalLiquidationEnabled",
        "offset": 3,
        "slot": "5",
        "type": "t_bool"
      },
      {
        "astId": 8720,
        "contract": "PoolPandorasSepolia.sol:PoolPandorasSepolia",
        "label": "globalLiquidationTimestamp",
        "offset": 4,
        "slot": "5",
        "type": "t_uint48"
      },
      {
        "astId": 8722,
        "contract": "PoolPandorasSepolia.sol:PoolPandorasSepolia",
        "label": "utilityAddress",
        "offset": 10,
        "slot": "5",
        "type": "t_address"
      },
      {
        "astId": 8772,
        "contract": "PoolPandorasSepolia.sol:PoolPandorasSepolia",
        "label": "userDeposits",
        "offset": 0,
        "slot": "6",
        "type": "t_mapping(t_address,t_array(t_struct(DepositInfo)8766_storage)dyn_storage)"
      },
      {
        "astId": 8776,
        "contract": "PoolPandorasSepolia.sol:PoolPandorasSepolia",
        "label": "isWhitelisted",
        "offset": 0,
        "slot": "7",
        "type": "t_mapping(t_address,t_bool)"
      },
      {
        "astId": 8780,
        "contract": "PoolPandorasSepolia.sol:PoolPandorasSepolia",
        "label": "hasWithdrawn",
        "offset": 0,
        "slot": "8",
        "type": "t_mapping(t_address,t_bool)"
      },
      {
        "astId": 8784,
        "contract": "PoolPandorasSepolia.sol:PoolPandorasSepolia",
        "label": "userClaimableUtilityETH",
        "offset": 0,
        "slot": "9",
        "type": "t_mapping(t_address,t_uint256)"
      },
      {
        "astId": 8788,
        "contract": "PoolPandorasSepolia.sol:PoolPandorasSepolia",
        "label": "userClaimableUtilityUSDC",
        "offset": 0,
        "slot": "10",
        "type": "t_mapping(t_address,t_uint256)"
      },
      {
        "astId": 8792,
        "contract": "PoolPandorasSepolia.sol:PoolPandorasSepolia",
        "label": "userTotalReinvestedETH",
        "offset": 0,
        "slot": "11",
        "type": "t_mapping(t_address,t_uint256)"
      },
      {
        "astId": 8796,
        "contract": "PoolPandorasSepolia.sol:PoolPandorasSepolia",
        "label": "userTotalReinvestedUSDC",
        "offset": 0,
        "slot": "12",
        "type": "t_mapping(t_address,t_uint256)"
      },
      {
        "astId": 8800,
        "contract": "PoolPandorasSepolia.sol:PoolPandorasSepolia",
        "label": "isKnownDepositor",
        "offset": 0,
        "slot": "13",
        "type": "t_mapping(t_address,t_bool)"
      },
      {
        "astId": 8803,
        "contract": "PoolPandorasSepolia.sol:PoolPandorasSepolia",
        "label": "withdrawnUsers",
        "offset": 0,
        "slot": "14",
        "type": "t_array(t_address)dyn_storage"
      },
      {
        "astId": 8805,
        "contract": "PoolPandorasSepolia.sol:PoolPandorasSepolia",
        "label": "totalDepositedETH",
        "offset": 0,
        "slot": "15",
        "type": "t_uint256"
      },
      {
        "astId": 8807,
        "contract": "PoolPandorasSepolia.sol:PoolPandorasSepolia",
        "label": "totalDepositedUSDC",
        "offset": 0,
        "slot": "16",
        "type": "t_uint256"
      },
      {
        "astId": 8809,
        "contract": "PoolPandorasSepolia.sol:PoolPandorasSepolia",
        "label": "totalWithdrawnETH",
        "offset": 0,
        "slot": "17",
        "type": "t_uint256"
      },
      {
        "astId": 8811,
        "contract": "PoolPandorasSepolia.sol:PoolPandorasSepolia",
        "label": "totalWithdrawnUSDC",
        "offset": 0,
        "slot": "18",
        "type": "t_uint256"
      },
      {
        "astId": 8813,
        "contract": "PoolPandorasSepolia.sol:PoolPandorasSepolia",
        "label": "totalUtilityETH",
        "offset": 0,
        "slot": "19",
        "type": "t_uint256"
      },
      {
        "astId": 8815,
        "contract": "PoolPandorasSepolia.sol:PoolPandorasSepolia",
        "label": "totalUtilityUSDC",
        "offset": 0,
        "slot": "20",
        "type": "t_uint256"
      },
      {
        "astId": 8817,
        "contract": "PoolPandorasSepolia.sol:PoolPandorasSepolia",
        "label": "totalReinvestedETH",
        "offset": 0,
        "slot": "21",
        "type": "t_uint256"
      },
      {
        "astId": 8819,
        "contract": "PoolPandorasSepolia.sol:PoolPandorasSepolia",
        "label": "totalReinvestedUSDC",
        "offset": 0,
        "slot": "22",
        "type": "t_uint256"
      },
      {
        "astId": 8821,
        "contract": "PoolPandorasSepolia.sol:PoolPandorasSepolia",
        "label": "totalInvestedETH",
        "offset": 0,
        "slot": "23",
        "type": "t_uint256"
      },
      {
        "astId": 8823,
        "contract": "PoolPandorasSepolia.sol:PoolPandorasSepolia",
        "label": "totalInvestedUSDC",
        "offset": 0,
        "slot": "24",
        "type": "t_uint256"
      }
    ],
    "types": {
      "t_address": {
        "encoding": "inplace",
        "label": "address",
        "numberOfBytes": "20"
      },
      "t_array(t_address)dyn_storage": {
        "base": "t_address",
        "encoding": "dynamic_array",
        "label": "address[]",
        "numberOfBytes": "32"
      },
      "t_array(t_struct(DepositInfo)8766_storage)dyn_storage": {
        "base": "t_struct(DepositInfo)8766_storage",
        "encoding": "dynamic_array",
        "label": "struct PoolPandorasSepolia.DepositInfo[]",
        "numberOfBytes": "32"
      },
      "t_bool": {
        "encoding": "inplace",
        "label": "bool",
        "numberOfBytes": "1"
      },
      "t_bytes32": {
        "encoding": "inplace",
        "label": "bytes32",
        "numberOfBytes": "32"
      },
      "t_enum(TokenType)8699": {
        "encoding": "inplace",
        "label": "enum PoolPandorasSepolia.TokenType",
        "numberOfBytes": "1"
      },
      "t_mapping(t_address,t_array(t_struct(DepositInfo)8766_storage)dyn_storage)": {
        "encoding": "mapping",
        "key": "t_address",
        "label": "mapping(address => struct PoolPandorasSepolia.DepositInfo[])",
        "numberOfBytes": "32",
        "value": "t_array(t_struct(DepositInfo)8766_storage)dyn_storage"
      },
      "t_mapping(t_address,t_bool)": {
        "encoding": "mapping",
        "key": "t_address",
        "label": "mapping(address => bool)",
        "numberOfBytes": "32",
        "value": "t_bool"
      },
      "t_mapping(t_address,t_uint256)": {
        "encoding": "mapping",
        "key": "t_address",
        "label": "mapping(address => uint256)",
        "numberOfBytes": "32",
        "value": "t_uint256"
      },
      "t_mapping(t_bytes32,t_struct(RoleData)11262_storage)": {
        "encoding": "mapping",
        "key": "t_bytes32",
        "label": "mapping(bytes32 => struct AccessControl.RoleData)",
        "numberOfBytes": "32",
        "value": "t_struct(RoleData)11262_storage"
      },
      "t_struct(DepositInfo)8766_storage": {
        "encoding": "inplace",
        "label": "struct PoolPandorasSepolia.DepositInfo",
        "members": [
          {
            "astId": 8754,
            "contract": "PoolPandorasSepolia.sol:PoolPandorasSepolia",
            "label": "amount",
            "offset": 0,
            "slot": "0",
            "type": "t_uint96"
          },
          {
            "astId": 8756,
            "contract": "PoolPandorasSepolia.sol:PoolPandorasSepolia",
            "label": "yieldReceived",
            "offset": 12,
            "slot": "0",
            "type": "t_uint96"
          },
          {
            "astId": 8758,
            "contract": "PoolPandorasSepolia.sol:PoolPandorasSepolia",
            "label": "timestamp",
            "offset": 24,
            "slot": "0",
            "type": "t_uint48"
          },
          {
            "astId": 8760,
            "contract": "PoolPandorasSepolia.sol:PoolPandorasSepolia",
            "label": "withdrawnAt",
            "offset": 0,
            "slot": "1",
            "type": "t_uint48"
          },
          {
            "astId": 8763,
            "contract": "PoolPandorasSepolia.sol:PoolPandorasSepolia",
            "label": "token",
            "offset": 6,
            "slot": "1",
            "type": "t_enum(TokenType)8699"
          },
          {
            "astId": 8765,
            "contract": "PoolPandorasSepolia.sol:PoolPandorasSepolia",
            "label": "flags",
            "offset": 7,
            "slot": "1",
            "type": "t_uint8"
          }
        ],
        "numberOfBytes": "64"
      },
      "t_struct(RoleData)11262_storage": {
        "encoding": "inplace",
        "label": "struct AccessControl.RoleData",
        "members": [
          {
            "astId": 11259,
            "contract": "PoolPandorasSepolia.sol:PoolPandorasSepolia",
            "label": "hasRole",
            "offset": 0,
            "slot": "0",
            "type": "t_mapping(t_address,t_bool)"
          },
          {
            "astId": 11261,
            "contract": "PoolPandorasSepolia.sol:PoolPandorasSepolia",
            "label": "adminRole",
            "offset": 0,
            "slot": "1",
            "type": "t_bytes32"
          }
        ],
        "numberOfBytes": "64"
      },
      "t_uint256": {
        "encoding": "inplace",
        "label": "uint256",
        "numberOfBytes": "32"
      },
      "t_uint48": {
        "encoding": "inplace",
        "label": "uint48",
        "numberOfBytes": "6"
      },
      "t_uint8": {
        "encoding": "inplace",
        "label": "uint8",
        "numberOfBytes": "1"
      },
      "t_uint96": {
        "encoding": "inplace",
        "label": "uint96",
        "numberOfBytes": "12"
      }
    }
  },
  "userdoc": {
    "kind": "user",
    "methods": {},
    "notice": "Versin para Sepolia/Testnet del Vault.          Permite configurar direccin de USDC en constructor.",
    "version": 1
  }
}