{
  "_format": "hh-sol-artifact-1",
  "contractName": "TimeLockedInvestmentVault",
  "sourceName": "contracts/PandorasFamilyFriends.sol",
  "abi": [
    {
      "inputs": [
        {
          "internalType": "contract IERC20",
          "name": "_asset",
          "type": "address"
        },
        {
          "internalType": "string",
          "name": "_name",
          "type": "string"
        },
        {
          "internalType": "string",
          "name": "_symbol",
          "type": "string"
        }
      ],
      "stateMutability": "nonpayable",
      "type": "constructor"
    },
    {
      "inputs": [],
      "name": "AccessControlBadConfirmation",
      "type": "error"
    },
    {
      "inputs": [
        {
          "internalType": "address",
          "name": "account",
          "type": "address"
        },
        {
          "internalType": "bytes32",
          "name": "neededRole",
          "type": "bytes32"
        }
      ],
      "name": "AccessControlUnauthorizedAccount",
      "type": "error"
    },
    {
      "inputs": [
        {
          "internalType": "address",
          "name": "spender",
          "type": "address"
        },
        {
          "internalType": "uint256",
          "name": "allowance",
          "type": "uint256"
        },
        {
          "internalType": "uint256",
          "name": "needed",
          "type": "uint256"
        }
      ],
      "name": "ERC20InsufficientAllowance",
      "type": "error"
    },
    {
      "inputs": [
        {
          "internalType": "address",
          "name": "sender",
          "type": "address"
        },
        {
          "internalType": "uint256",
          "name": "balance",
          "type": "uint256"
        },
        {
          "internalType": "uint256",
          "name": "needed",
          "type": "uint256"
        }
      ],
      "name": "ERC20InsufficientBalance",
      "type": "error"
    },
    {
      "inputs": [
        {
          "internalType": "address",
          "name": "approver",
          "type": "address"
        }
      ],
      "name": "ERC20InvalidApprover",
      "type": "error"
    },
    {
      "inputs": [
        {
          "internalType": "address",
          "name": "receiver",
          "type": "address"
        }
      ],
      "name": "ERC20InvalidReceiver",
      "type": "error"
    },
    {
      "inputs": [
        {
          "internalType": "address",
          "name": "sender",
          "type": "address"
        }
      ],
      "name": "ERC20InvalidSender",
      "type": "error"
    },
    {
      "inputs": [
        {
          "internalType": "address",
          "name": "spender",
          "type": "address"
        }
      ],
      "name": "ERC20InvalidSpender",
      "type": "error"
    },
    {
      "inputs": [
        {
          "internalType": "address",
          "name": "receiver",
          "type": "address"
        },
        {
          "internalType": "uint256",
          "name": "assets",
          "type": "uint256"
        },
        {
          "internalType": "uint256",
          "name": "max",
          "type": "uint256"
        }
      ],
      "name": "ERC4626ExceededMaxDeposit",
      "type": "error"
    },
    {
      "inputs": [
        {
          "internalType": "address",
          "name": "receiver",
          "type": "address"
        },
        {
          "internalType": "uint256",
          "name": "shares",
          "type": "uint256"
        },
        {
          "internalType": "uint256",
          "name": "max",
          "type": "uint256"
        }
      ],
      "name": "ERC4626ExceededMaxMint",
      "type": "error"
    },
    {
      "inputs": [
        {
          "internalType": "address",
          "name": "owner",
          "type": "address"
        },
        {
          "internalType": "uint256",
          "name": "shares",
          "type": "uint256"
        },
        {
          "internalType": "uint256",
          "name": "max",
          "type": "uint256"
        }
      ],
      "name": "ERC4626ExceededMaxRedeem",
      "type": "error"
    },
    {
      "inputs": [
        {
          "internalType": "address",
          "name": "owner",
          "type": "address"
        },
        {
          "internalType": "uint256",
          "name": "assets",
          "type": "uint256"
        },
        {
          "internalType": "uint256",
          "name": "max",
          "type": "uint256"
        }
      ],
      "name": "ERC4626ExceededMaxWithdraw",
      "type": "error"
    },
    {
      "inputs": [],
      "name": "ReentrancyGuardReentrantCall",
      "type": "error"
    },
    {
      "inputs": [
        {
          "internalType": "address",
          "name": "token",
          "type": "address"
        }
      ],
      "name": "SafeERC20FailedOperation",
      "type": "error"
    },
    {
      "anonymous": false,
      "inputs": [
        {
          "indexed": true,
          "internalType": "address",
          "name": "admin",
          "type": "address"
        },
        {
          "indexed": true,
          "internalType": "address",
          "name": "to",
          "type": "address"
        },
        {
          "indexed": false,
          "internalType": "uint256",
          "name": "amount",
          "type": "uint256"
        },
        {
          "indexed": false,
          "internalType": "uint256",
          "name": "when",
          "type": "uint256"
        }
      ],
      "name": "AdminWithdraw",
      "type": "event"
    },
    {
      "anonymous": false,
      "inputs": [
        {
          "indexed": true,
          "internalType": "address",
          "name": "owner",
          "type": "address"
        },
        {
          "indexed": true,
          "internalType": "address",
          "name": "spender",
          "type": "address"
        },
        {
          "indexed": false,
          "internalType": "uint256",
          "name": "value",
          "type": "uint256"
        }
      ],
      "name": "Approval",
      "type": "event"
    },
    {
      "anonymous": false,
      "inputs": [
        {
          "indexed": true,
          "internalType": "address",
          "name": "sender",
          "type": "address"
        },
        {
          "indexed": true,
          "internalType": "address",
          "name": "owner",
          "type": "address"
        },
        {
          "indexed": false,
          "internalType": "uint256",
          "name": "assets",
          "type": "uint256"
        },
        {
          "indexed": false,
          "internalType": "uint256",
          "name": "shares",
          "type": "uint256"
        }
      ],
      "name": "Deposit",
      "type": "event"
    },
    {
      "anonymous": false,
      "inputs": [
        {
          "indexed": false,
          "internalType": "bool",
          "name": "paused",
          "type": "bool"
        }
      ],
      "name": "PauseChanged",
      "type": "event"
    },
    {
      "anonymous": false,
      "inputs": [
        {
          "indexed": true,
          "internalType": "bytes32",
          "name": "role",
          "type": "bytes32"
        },
        {
          "indexed": true,
          "internalType": "bytes32",
          "name": "previousAdminRole",
          "type": "bytes32"
        },
        {
          "indexed": true,
          "internalType": "bytes32",
          "name": "newAdminRole",
          "type": "bytes32"
        }
      ],
      "name": "RoleAdminChanged",
      "type": "event"
    },
    {
      "anonymous": false,
      "inputs": [
        {
          "indexed": true,
          "internalType": "bytes32",
          "name": "role",
          "type": "bytes32"
        },
        {
          "indexed": true,
          "internalType": "address",
          "name": "account",
          "type": "address"
        },
        {
          "indexed": true,
          "internalType": "address",
          "name": "sender",
          "type": "address"
        }
      ],
      "name": "RoleGranted",
      "type": "event"
    },
    {
      "anonymous": false,
      "inputs": [
        {
          "indexed": true,
          "internalType": "bytes32",
          "name": "role",
          "type": "bytes32"
        },
        {
          "indexed": true,
          "internalType": "address",
          "name": "account",
          "type": "address"
        },
        {
          "indexed": true,
          "internalType": "address",
          "name": "sender",
          "type": "address"
        }
      ],
      "name": "RoleRevoked",
      "type": "event"
    },
    {
      "anonymous": false,
      "inputs": [
        {
          "indexed": true,
          "internalType": "address",
          "name": "user",
          "type": "address"
        },
        {
          "indexed": false,
          "internalType": "uint256",
          "name": "amount",
          "type": "uint256"
        },
        {
          "indexed": false,
          "internalType": "uint256",
          "name": "shares",
          "type": "uint256"
        },
        {
          "indexed": false,
          "internalType": "uint256",
          "name": "when",
          "type": "uint256"
        }
      ],
      "name": "TimeLockedDeposit",
      "type": "event"
    },
    {
      "anonymous": false,
      "inputs": [
        {
          "indexed": true,
          "internalType": "address",
          "name": "from",
          "type": "address"
        },
        {
          "indexed": true,
          "internalType": "address",
          "name": "to",
          "type": "address"
        },
        {
          "indexed": false,
          "internalType": "uint256",
          "name": "value",
          "type": "uint256"
        }
      ],
      "name": "Transfer",
      "type": "event"
    },
    {
      "anonymous": false,
      "inputs": [
        {
          "indexed": true,
          "internalType": "address",
          "name": "sender",
          "type": "address"
        },
        {
          "indexed": true,
          "internalType": "address",
          "name": "receiver",
          "type": "address"
        },
        {
          "indexed": true,
          "internalType": "address",
          "name": "owner",
          "type": "address"
        },
        {
          "indexed": false,
          "internalType": "uint256",
          "name": "assets",
          "type": "uint256"
        },
        {
          "indexed": false,
          "internalType": "uint256",
          "name": "shares",
          "type": "uint256"
        }
      ],
      "name": "Withdraw",
      "type": "event"
    },
    {
      "anonymous": false,
      "inputs": [
        {
          "indexed": true,
          "internalType": "address",
          "name": "user",
          "type": "address"
        },
        {
          "indexed": false,
          "internalType": "uint256",
          "name": "amount",
          "type": "uint256"
        },
        {
          "indexed": false,
          "internalType": "uint256",
          "name": "shares",
          "type": "uint256"
        },
        {
          "indexed": false,
          "internalType": "uint256",
          "name": "when",
          "type": "uint256"
        }
      ],
      "name": "Withdraw",
      "type": "event"
    },
    {
      "inputs": [],
      "name": "ADMIN_ROLE",
      "outputs": [
        {
          "internalType": "bytes32",
          "name": "",
          "type": "bytes32"
        }
      ],
      "stateMutability": "view",
      "type": "function"
    },
    {
      "inputs": [],
      "name": "DEFAULT_ADMIN_ROLE",
      "outputs": [
        {
          "internalType": "bytes32",
          "name": "",
          "type": "bytes32"
        }
      ],
      "stateMutability": "view",
      "type": "function"
    },
    {
      "inputs": [],
      "name": "LOCKUP_PERIOD",
      "outputs": [
        {
          "internalType": "uint256",
          "name": "",
          "type": "uint256"
        }
      ],
      "stateMutability": "view",
      "type": "function"
    },
    {
      "inputs": [
        {
          "internalType": "address",
          "name": "to",
          "type": "address"
        },
        {
          "internalType": "uint256",
          "name": "amount",
          "type": "uint256"
        }
      ],
      "name": "adminWithdrawUnderlying",
      "outputs": [],
      "stateMutability": "nonpayable",
      "type": "function"
    },
    {
      "inputs": [
        {
          "internalType": "address",
          "name": "owner",
          "type": "address"
        },
        {
          "internalType": "address",
          "name": "spender",
          "type": "address"
        }
      ],
      "name": "allowance",
      "outputs": [
        {
          "internalType": "uint256",
          "name": "",
          "type": "uint256"
        }
      ],
      "stateMutability": "view",
      "type": "function"
    },
    {
      "inputs": [
        {
          "internalType": "address",
          "name": "spender",
          "type": "address"
        },
        {
          "internalType": "uint256",
          "name": "value",
          "type": "uint256"
        }
      ],
      "name": "approve",
      "outputs": [
        {
          "internalType": "bool",
          "name": "",
          "type": "bool"
        }
      ],
      "stateMutability": "nonpayable",
      "type": "function"
    },
    {
      "inputs": [],
      "name": "asset",
      "outputs": [
        {
          "internalType": "address",
          "name": "",
          "type": "address"
        }
      ],
      "stateMutability": "view",
      "type": "function"
    },
    {
      "inputs": [
        {
          "internalType": "address",
          "name": "account",
          "type": "address"
        }
      ],
      "name": "balanceOf",
      "outputs": [
        {
          "internalType": "uint256",
          "name": "",
          "type": "uint256"
        }
      ],
      "stateMutability": "view",
      "type": "function"
    },
    {
      "inputs": [
        {
          "internalType": "uint256",
          "name": "shares",
          "type": "uint256"
        }
      ],
      "name": "convertToAssets",
      "outputs": [
        {
          "internalType": "uint256",
          "name": "",
          "type": "uint256"
        }
      ],
      "stateMutability": "view",
      "type": "function"
    },
    {
      "inputs": [
        {
          "internalType": "uint256",
          "name": "assets",
          "type": "uint256"
        }
      ],
      "name": "convertToShares",
      "outputs": [
        {
          "internalType": "uint256",
          "name": "",
          "type": "uint256"
        }
      ],
      "stateMutability": "view",
      "type": "function"
    },
    {
      "inputs": [],
      "name": "decimals",
      "outputs": [
        {
          "internalType": "uint8",
          "name": "",
          "type": "uint8"
        }
      ],
      "stateMutability": "view",
      "type": "function"
    },
    {
      "inputs": [
        {
          "internalType": "uint256",
          "name": "assets",
          "type": "uint256"
        },
        {
          "internalType": "address",
          "name": "receiver",
          "type": "address"
        }
      ],
      "name": "deposit",
      "outputs": [
        {
          "internalType": "uint256",
          "name": "shares",
          "type": "uint256"
        }
      ],
      "stateMutability": "nonpayable",
      "type": "function"
    },
    {
      "inputs": [
        {
          "internalType": "bytes32",
          "name": "role",
          "type": "bytes32"
        }
      ],
      "name": "getRoleAdmin",
      "outputs": [
        {
          "internalType": "bytes32",
          "name": "",
          "type": "bytes32"
        }
      ],
      "stateMutability": "view",
      "type": "function"
    },
    {
      "inputs": [
        {
          "internalType": "address",
          "name": "user",
          "type": "address"
        }
      ],
      "name": "getUnlockedShares",
      "outputs": [
        {
          "internalType": "uint256",
          "name": "unlocked",
          "type": "uint256"
        }
      ],
      "stateMutability": "view",
      "type": "function"
    },
    {
      "inputs": [
        {
          "internalType": "bytes32",
          "name": "role",
          "type": "bytes32"
        },
        {
          "internalType": "address",
          "name": "account",
          "type": "address"
        }
      ],
      "name": "grantRole",
      "outputs": [],
      "stateMutability": "nonpayable",
      "type": "function"
    },
    {
      "inputs": [
        {
          "internalType": "bytes32",
          "name": "role",
          "type": "bytes32"
        },
        {
          "internalType": "address",
          "name": "account",
          "type": "address"
        }
      ],
      "name": "hasRole",
      "outputs": [
        {
          "internalType": "bool",
          "name": "",
          "type": "bool"
        }
      ],
      "stateMutability": "view",
      "type": "function"
    },
    {
      "inputs": [],
      "name": "isPoolFull",
      "outputs": [
        {
          "internalType": "bool",
          "name": "",
          "type": "bool"
        }
      ],
      "stateMutability": "view",
      "type": "function"
    },
    {
      "inputs": [],
      "name": "maxCap",
      "outputs": [
        {
          "internalType": "uint256",
          "name": "",
          "type": "uint256"
        }
      ],
      "stateMutability": "view",
      "type": "function"
    },
    {
      "inputs": [
        {
          "internalType": "address",
          "name": "",
          "type": "address"
        }
      ],
      "name": "maxDeposit",
      "outputs": [
        {
          "internalType": "uint256",
          "name": "",
          "type": "uint256"
        }
      ],
      "stateMutability": "view",
      "type": "function"
    },
    {
      "inputs": [
        {
          "internalType": "address",
          "name": "",
          "type": "address"
        }
      ],
      "name": "maxMint",
      "outputs": [
        {
          "internalType": "uint256",
          "name": "",
          "type": "uint256"
        }
      ],
      "stateMutability": "view",
      "type": "function"
    },
    {
      "inputs": [
        {
          "internalType": "address",
          "name": "owner",
          "type": "address"
        }
      ],
      "name": "maxRedeem",
      "outputs": [
        {
          "internalType": "uint256",
          "name": "",
          "type": "uint256"
        }
      ],
      "stateMutability": "view",
      "type": "function"
    },
    {
      "inputs": [
        {
          "internalType": "address",
          "name": "owner",
          "type": "address"
        }
      ],
      "name": "maxWithdraw",
      "outputs": [
        {
          "internalType": "uint256",
          "name": "",
          "type": "uint256"
        }
      ],
      "stateMutability": "view",
      "type": "function"
    },
    {
      "inputs": [
        {
          "internalType": "uint256",
          "name": "shares",
          "type": "uint256"
        },
        {
          "internalType": "address",
          "name": "receiver",
          "type": "address"
        }
      ],
      "name": "mint",
      "outputs": [
        {
          "internalType": "uint256",
          "name": "",
          "type": "uint256"
        }
      ],
      "stateMutability": "nonpayable",
      "type": "function"
    },
    {
      "inputs": [],
      "name": "name",
      "outputs": [
        {
          "internalType": "string",
          "name": "",
          "type": "string"
        }
      ],
      "stateMutability": "view",
      "type": "function"
    },
    {
      "inputs": [],
      "name": "paused",
      "outputs": [
        {
          "internalType": "bool",
          "name": "",
          "type": "bool"
        }
      ],
      "stateMutability": "view",
      "type": "function"
    },
    {
      "inputs": [],
      "name": "poolRoomLeft",
      "outputs": [
        {
          "internalType": "uint256",
          "name": "",
          "type": "uint256"
        }
      ],
      "stateMutability": "view",
      "type": "function"
    },
    {
      "inputs": [
        {
          "internalType": "uint256",
          "name": "assets",
          "type": "uint256"
        }
      ],
      "name": "previewDeposit",
      "outputs": [
        {
          "internalType": "uint256",
          "name": "",
          "type": "uint256"
        }
      ],
      "stateMutability": "view",
      "type": "function"
    },
    {
      "inputs": [
        {
          "internalType": "uint256",
          "name": "shares",
          "type": "uint256"
        }
      ],
      "name": "previewMint",
      "outputs": [
        {
          "internalType": "uint256",
          "name": "",
          "type": "uint256"
        }
      ],
      "stateMutability": "view",
      "type": "function"
    },
    {
      "inputs": [
        {
          "internalType": "uint256",
          "name": "shares",
          "type": "uint256"
        }
      ],
      "name": "previewRedeem",
      "outputs": [
        {
          "internalType": "uint256",
          "name": "",
          "type": "uint256"
        }
      ],
      "stateMutability": "view",
      "type": "function"
    },
    {
      "inputs": [
        {
          "internalType": "uint256",
          "name": "assets",
          "type": "uint256"
        }
      ],
      "name": "previewWithdraw",
      "outputs": [
        {
          "internalType": "uint256",
          "name": "",
          "type": "uint256"
        }
      ],
      "stateMutability": "view",
      "type": "function"
    },
    {
      "inputs": [
        {
          "internalType": "uint256",
          "name": "shares",
          "type": "uint256"
        },
        {
          "internalType": "address",
          "name": "receiver",
          "type": "address"
        },
        {
          "internalType": "address",
          "name": "owner",
          "type": "address"
        }
      ],
      "name": "redeem",
      "outputs": [
        {
          "internalType": "uint256",
          "name": "",
          "type": "uint256"
        }
      ],
      "stateMutability": "nonpayable",
      "type": "function"
    },
    {
      "inputs": [
        {
          "internalType": "bytes32",
          "name": "role",
          "type": "bytes32"
        },
        {
          "internalType": "address",
          "name": "callerConfirmation",
          "type": "address"
        }
      ],
      "name": "renounceRole",
      "outputs": [],
      "stateMutability": "nonpayable",
      "type": "function"
    },
    {
      "inputs": [
        {
          "internalType": "bytes32",
          "name": "role",
          "type": "bytes32"
        },
        {
          "internalType": "address",
          "name": "account",
          "type": "address"
        }
      ],
      "name": "revokeRole",
      "outputs": [],
      "stateMutability": "nonpayable",
      "type": "function"
    },
    {
      "inputs": [
        {
          "internalType": "bool",
          "name": "_paused",
          "type": "bool"
        }
      ],
      "name": "setPaused",
      "outputs": [],
      "stateMutability": "nonpayable",
      "type": "function"
    },
    {
      "inputs": [
        {
          "internalType": "bytes4",
          "name": "interfaceId",
          "type": "bytes4"
        }
      ],
      "name": "supportsInterface",
      "outputs": [
        {
          "internalType": "bool",
          "name": "",
          "type": "bool"
        }
      ],
      "stateMutability": "view",
      "type": "function"
    },
    {
      "inputs": [],
      "name": "symbol",
      "outputs": [
        {
          "internalType": "string",
          "name": "",
          "type": "string"
        }
      ],
      "stateMutability": "view",
      "type": "function"
    },
    {
      "inputs": [],
      "name": "totalAssets",
      "outputs": [
        {
          "internalType": "uint256",
          "name": "",
          "type": "uint256"
        }
      ],
      "stateMutability": "view",
      "type": "function"
    },
    {
      "inputs": [],
      "name": "totalDeposited",
      "outputs": [
        {
          "internalType": "uint256",
          "name": "",
          "type": "uint256"
        }
      ],
      "stateMutability": "view",
      "type": "function"
    },
    {
      "inputs": [],
      "name": "totalSupply",
      "outputs": [
        {
          "internalType": "uint256",
          "name": "",
          "type": "uint256"
        }
      ],
      "stateMutability": "view",
      "type": "function"
    },
    {
      "inputs": [
        {
          "internalType": "address",
          "name": "to",
          "type": "address"
        },
        {
          "internalType": "uint256",
          "name": "value",
          "type": "uint256"
        }
      ],
      "name": "transfer",
      "outputs": [
        {
          "internalType": "bool",
          "name": "",
          "type": "bool"
        }
      ],
      "stateMutability": "nonpayable",
      "type": "function"
    },
    {
      "inputs": [
        {
          "internalType": "address",
          "name": "from",
          "type": "address"
        },
        {
          "internalType": "address",
          "name": "to",
          "type": "address"
        },
        {
          "internalType": "uint256",
          "name": "value",
          "type": "uint256"
        }
      ],
      "name": "transferFrom",
      "outputs": [
        {
          "internalType": "bool",
          "name": "",
          "type": "bool"
        }
      ],
      "stateMutability": "nonpayable",
      "type": "function"
    },
    {
      "inputs": [
        {
          "internalType": "address",
          "name": "",
          "type": "address"
        },
        {
          "internalType": "uint256",
          "name": "",
          "type": "uint256"
        }
      ],
      "name": "userDeposits",
      "outputs": [
        {
          "internalType": "uint256",
          "name": "amount",
          "type": "uint256"
        },
        {
          "internalType": "uint256",
          "name": "timestamp",
          "type": "uint256"
        },
        {
          "internalType": "uint256",
          "name": "shares",
          "type": "uint256"
        },
        {
          "internalType": "bool",
          "name": "withdrawn",
          "type": "bool"
        }
      ],
      "stateMutability": "view",
      "type": "function"
    },
    {
      "inputs": [
        {
          "internalType": "uint256",
          "name": "assets",
          "type": "uint256"
        },
        {
          "internalType": "address",
          "name": "receiver",
          "type": "address"
        },
        {
          "internalType": "address",
          "name": "owner",
          "type": "address"
        }
      ],
      "name": "withdraw",
      "outputs": [
        {
          "internalType": "uint256",
          "name": "shares",
          "type": "uint256"
        }
      ],
      "stateMutability": "nonpayable",
      "type": "function"
    }
  ],
  "bytecode": "0x60c06040523480156200001157600080fd5b506040516200237e3803806200237e833981016040819052620000349162000341565b82828260036200004583826200045a565b5060046200005482826200045a565b5050506000806200006b83620000dc60201b60201c565b91509150816200007d5760126200007f565b805b60ff1660a05250506001600160a01b03166080526001600655620000a5600033620001c1565b50620000d27fa49807205ce4d355092ef5a8a18f56e8913cf4a201fbe287825b095693c2177533620001c1565b505050506200055e565b60408051600481526024810182526020810180516001600160e01b031663313ce56760e01b17905290516000918291829182916001600160a01b03871691620001259162000526565b600060405180830381855afa9150503d806000811462000162576040519150601f19603f3d011682016040523d82523d6000602084013e62000167565b606091505b50915091508180156200017c57506020815110155b15620001b4576000818060200190518101906200019a919062000544565b905060ff8111620001b2576001969095509350505050565b505b5060009485945092505050565b60008281526005602090815260408083206001600160a01b038516845290915281205460ff166200026a5760008381526005602090815260408083206001600160a01b03861684529091529020805460ff19166001179055620002213390565b6001600160a01b0316826001600160a01b0316847f2f8788117e7eff1d82e926ec794901d17c78024a50270940304540a733656f0d60405160405180910390a45060016200026e565b5060005b92915050565b634e487b7160e01b600052604160045260246000fd5b60005b83811015620002a75781810151838201526020016200028d565b50506000910152565b600082601f830112620002c257600080fd5b81516001600160401b0380821115620002df57620002df62000274565b604051601f8301601f19908116603f011681019082821181831017156200030a576200030a62000274565b816040528381528660208588010111156200032457600080fd5b620003378460208301602089016200028a565b9695505050505050565b6000806000606084860312156200035757600080fd5b83516001600160a01b03811681146200036f57600080fd5b60208501519093506001600160401b03808211156200038d57600080fd5b6200039b87838801620002b0565b93506040860151915080821115620003b257600080fd5b50620003c186828701620002b0565b9150509250925092565b600181811c90821680620003e057607f821691505b6020821081036200040157634e487b7160e01b600052602260045260246000fd5b50919050565b601f8211156200045557600081815260208120601f850160051c81016020861015620004305750805b601f850160051c820191505b8181101562000451578281556001016200043c565b5050505b505050565b81516001600160401b0381111562000476576200047662000274565b6200048e81620004878454620003cb565b8462000407565b602080601f831160018114620004c65760008415620004ad5750858301515b600019600386901b1c1916600185901b17855562000451565b600085815260208120601f198616915b82811015620004f757888601518255948401946001909101908401620004d6565b5085821015620005165787850151600019600388901b60f8161c191681555b5050505050600190811b01905550565b600082516200053a8184602087016200028a565b9190910192915050565b6000602082840312156200055757600080fd5b5051919050565b60805160a051611dde620005a0600039600061085f0152600081816103ed015281816105c201528181610a1c01528181611360015261146b0152611dde6000f3fe608060405234801561001057600080fd5b50600436106102695760003560e01c80636744753711610151578063ba087652116100c3578063d905777e11610087578063d905777e1461057d578063dd62ed3e14610590578063ebfa7c46146105a3578063ec16d076146105ab578063ef8b30f714610544578063ff50abdc146105b557600080fd5b8063ba08765214610531578063c63d75b614610417578063c6e6f59214610544578063ce96cb7714610557578063d547741f1461056a57600080fd5b806394bf804d1161011557806394bf804d146104d557806395d89b41146104e8578063a217fddf146104f0578063a9059cbb146104f8578063b3d7f6b91461050b578063b460af941461051e57600080fd5b8063674475371461044c5780636e553f651461045f57806370a082311461047257806375b238fc1461049b57806391d14854146104c257600080fd5b806323548b8b116101ea57806336568abe116101ae57806336568abe146103cd57806338d52e0f146103e0578063402d267d146104175780634cd5bd831461042c5780634cdad506146102c15780635c975abb1461043f57600080fd5b806323548b8b1461035d57806323b872dd1461036a578063248a9ca31461037d5780632f2ff15d146103a0578063313ce567146103b357600080fd5b8063093c87f311610231578063093c87f314610309578063095ea7b31461031a5780630a28a4771461032d57806316c38b3c1461034057806318160ddd1461035557600080fd5b806301e1d1141461026e57806301ffc9a71461028957806306fdde03146102ac57806307a2d13a146102c157806308f43333146102d4575b600080fd5b6102766105be565b6040519081526020015b60405180910390f35b61029c61029736600461197f565b610650565b6040519015158152602001610280565b6102b4610687565b60405161028091906119a9565b6102766102cf3660046119f7565b610719565b6102e76102e2366004611a2c565b610726565b6040805194855260208501939093529183015215156060820152608001610280565b60075465048c27395000111561029c565b61029c610328366004611a2c565b61076f565b61027661033b3660046119f7565b610787565b61035361034e366004611a56565b610794565b005b600254610276565b61027665048c2739500081565b61029c610378366004611a78565b610806565b61027661038b3660046119f7565b60009081526005602052604090206001015490565b6103536103ae366004611ab4565b61082c565b6103bb610857565b60405160ff9091168152602001610280565b6103536103db366004611ab4565b610883565b6040516001600160a01b037f0000000000000000000000000000000000000000000000000000000000000000168152602001610280565b610276610425366004611ae0565b5060001990565b61027661043a366004611ae0565b6108bb565b60085461029c9060ff1681565b61035361045a366004611a2c565b610995565b61027661046d366004611ab4565b610a92565b610276610480366004611ae0565b6001600160a01b031660009081526020819052604090205490565b6102767fa49807205ce4d355092ef5a8a18f56e8913cf4a201fbe287825b095693c2177581565b61029c6104d0366004611ab4565b610c2a565b6102766104e3366004611ab4565b610c55565b6102b4610c7b565b610276600081565b61029c610506366004611a2c565b610c8a565b6102766105193660046119f7565b610c98565b61027661052c366004611afb565b610ca5565b61027661053f366004611afb565b610f64565b6102766105523660046119f7565b610fbc565b610276610565366004611ae0565b610fc9565b610353610578366004611ab4565b610fed565b61027661058b366004611ae0565b611012565b61027661059e366004611b37565b611030565b61027661105b565b61027662ed4e0081565b61027660075481565b60007f00000000000000000000000000000000000000000000000000000000000000006040516370a0823160e01b81523060048201526001600160a01b0391909116906370a0823190602401602060405180830381865afa158015610627573d6000803e3d6000fd5b505050506040513d601f19601f8201168201806040525081019061064b9190611b61565b905090565b60006001600160e01b03198216637965db0b60e01b148061068157506301ffc9a760e01b6001600160e01b03198316145b92915050565b60606003805461069690611b7a565b80601f01602080910402602001604051908101604052809291908181526020018280546106c290611b7a565b801561070f5780601f106106e45761010080835404028352916020019161070f565b820191906000526020600020905b8154815290600101906020018083116106f257829003601f168201915b5050505050905090565b6000610681826000611086565b6009602052816000526040600020818154811061074257600080fd5b60009182526020909120600490910201805460018201546002830154600390930154919450925060ff1684565b60003361077d8185856110c0565b5060019392505050565b60006106818260016110cd565b7fa49807205ce4d355092ef5a8a18f56e8913cf4a201fbe287825b095693c217756107be816110fd565b6008805460ff19168315159081179091556040519081527f8fb6c181ee25a520cf3dd6565006ef91229fcfe5a989566c2a3b8c115570cec59060200160405180910390a15050565b60003361081485828561110a565b61081f858585611158565b60019150505b9392505050565b600082815260056020526040902060010154610847816110fd565b61085183836111b7565b50505050565b600061064b817f0000000000000000000000000000000000000000000000000000000000000000611bca565b6001600160a01b03811633146108ac5760405163334bd91960e11b815260040160405180910390fd5b6108b6828261124b565b505050565b6001600160a01b0381166000908152600960205260408120815b815481101561098e578181815481106108f0576108f0611be3565b600091825260209091206003600490920201015460ff16158015610945575062ed4e0082828154811061092557610925611be3565b9060005260206000209060040201600101546109419190611bf9565b4210155b1561097c5781818154811061095c5761095c611be3565b906000526020600020906004020160020154836109799190611bf9565b92505b8061098681611c0c565b9150506108d5565b5050919050565b7fa49807205ce4d355092ef5a8a18f56e8913cf4a201fbe287825b095693c217756109bf816110fd565b6109c76112b8565b6001600160a01b038316610a0f5760405162461bcd60e51b815260206004820152600a602482015269496e76616c696420746f60b01b60448201526064015b60405180910390fd5b610a436001600160a01b037f00000000000000000000000000000000000000000000000000000000000000001684846112e2565b604080518381524260208201526001600160a01b0385169133917fb39d7dbd236dcbba6b8dfc4428f15329fb261b996797b453737266986d3a1937910160405180910390a36108b66001600655565b6000610a9c6112b8565b60085460ff1615610ade5760405162461bcd60e51b815260206004820152600c60248201526b15985d5b1d081c185d5cd95960a21b6044820152606401610a06565b65048c2739500083600754610af39190611bf9565b1115610b345760405162461bcd60e51b815260206004820152601060248201526f141bdbdb0818d85c081c995858da195960821b6044820152606401610a06565b610b3e8383611341565b6001600160a01b0383166000908152600960209081526040808320815160808101835288815242818501908152928101868152606082018681528354600180820186559488529587209251600490960290920194855592519184019190915590516002830155516003909101805460ff1916911515919091179055600780549293508592909190610bd0908490611bf9565b90915550506040805184815260208101839052428183015290516001600160a01b038416917f217a9b9c42c2e6442fab0a129ab87fd1c89fe87738d00758495a2f05adc06098919081900360600190a26106816001600655565b60009182526005602090815260408084206001600160a01b0393909316845291905290205460ff1690565b60006000196000610c6585610c98565b9050610c733385838861135b565b949350505050565b60606004805461069690611b7a565b60003361077d818585611158565b6000610681826001611086565b6000610caf6112b8565b60085460ff1615610cf15760405162461bcd60e51b815260206004820152600c60248201526b15985d5b1d081c185d5cd95960a21b6044820152606401610a06565b6001600160a01b038216331480610d11575083610d0e8333611030565b10155b610d4b5760405162461bcd60e51b815260206004820152600b60248201526a139bdd08185b1b1bddd95960aa1b6044820152606401610a06565b6000610d56836108bb565b905060008111610d9b5760405162461bcd60e51b815260206004820152601060248201526f139bdd1a1a5b99c81d5b9b1bd8dad95960821b6044820152606401610a06565b610da485610787565b915080821115610df65760405162461bcd60e51b815260206004820152601d60248201527f5769746864726177206f6e6c7920756e6c6f636b6564207368617265730000006044820152606401610a06565b8160005b6001600160a01b03851660009081526009602052604090205481108015610e215750600082115b15610f00576001600160a01b0385166000908152600960205260408120805483908110610e5057610e50611be3565b60009182526020909120600490910201600381015490915060ff16158015610e8a575062ed4e008160010154610e869190611bf9565b4210155b15610eed57600083826002015411610ea6578160020154610ea8565b835b905080826002016000828254610ebe9190611c46565b90915550506002820154600003610edf5760038201805460ff191660011790555b610ee98185611c46565b9350505b5080610ef881611c0c565b915050610dfa565b50610f0c8686866113ed565b506040805187815260208101859052428183015290516001600160a01b038616917f02f25270a4d87bea75db541cdfe559334a275b4a233520ed6c0a2429667cca94919081900360600190a250506108256001600655565b600080610f7083611012565b905080851115610f9957828582604051632e52afbb60e21b8152600401610a0693929190611c25565b6000610fa486610719565b9050610fb3338686848a611438565b95945050505050565b60006106818260006110cd565b6001600160a01b038116600090815260208190526040812054610681906000611086565b600082815260056020526040902060010154611008816110fd565b610851838361124b565b6001600160a01b038116600090815260208190526040812054610681565b6001600160a01b03918216600090815260016020908152604080832093909416825291909152205490565b600065048c2739500060075410156110805760075461064b9065048c27395000611c46565b50600090565b60006108256110936105be565b61109e906001611bf9565b6110aa6000600a611d3d565b6002546110b79190611bf9565b859190856114f8565b6108b6838383600161153c565b60006108256110dd82600a611d3d565b6002546110ea9190611bf9565b6110f26105be565b6110b7906001611bf9565b6111078133611603565b50565b60006111168484611030565b9050600019811015610851578181101561114957828183604051637dc7a0d960e11b8152600401610a0693929190611c25565b6108518484848403600061153c565b6001600160a01b03831661118257604051634b637e8f60e11b815260006004820152602401610a06565b6001600160a01b0382166111ac5760405163ec442f0560e01b815260006004820152602401610a06565b6108b6838383611640565b60006111c38383610c2a565b6112435760008381526005602090815260408083206001600160a01b03861684529091529020805460ff191660011790556111fb3390565b6001600160a01b0316826001600160a01b0316847f2f8788117e7eff1d82e926ec794901d17c78024a50270940304540a733656f0d60405160405180910390a4506001610681565b506000610681565b60006112578383610c2a565b156112435760008381526005602090815260408083206001600160a01b0386168085529252808320805460ff1916905551339286917ff6391f5c32d9c69d2a47ea670b442974b53935d1edc7fd64eb21e047a839171b9190a4506001610681565b6002600654036112db57604051633ee5aeb560e01b815260040160405180910390fd5b6002600655565b6040516001600160a01b038381166024830152604482018390526108b691859182169063a9059cbb906064015b604051602081830303815290604052915060e01b6020820180516001600160e01b038381831617835250505050611757565b6000600019600061135185610fbc565b9050610c73338587845b6113877f00000000000000000000000000000000000000000000000000000000000000008530856117c8565b6113918382611801565b826001600160a01b0316846001600160a01b03167fdcbc1c05240f31ff3ad067ef1ee35ce4997762752e3a095284754544f4c709d784846040516113df929190918252602082015260400190565b60405180910390a350505050565b6000806113f983610fc9565b90508085111561142257828582604051633fa733bb60e21b8152600401610a0693929190611c25565b600061142d86610787565b9050610fb333868689855b826001600160a01b0316856001600160a01b03161461145c5761145c83868361110a565b6114668382611837565b6114917f000000000000000000000000000000000000000000000000000000000000000085846112e2565b826001600160a01b0316846001600160a01b0316866001600160a01b03167ffbde797d201c681b91056529119e0b02407c7bb96a4a2c75c01fc9667232c8db85856040516114e9929190918252602082015260400190565b60405180910390a45050505050565b60006115276115068361186d565b801561152257506000848061151d5761151d611d4c565b868809115b151590565b61153286868661189a565b610fb39190611bf9565b6001600160a01b0384166115665760405163e602df0560e01b815260006004820152602401610a06565b6001600160a01b03831661159057604051634a1406b160e11b815260006004820152602401610a06565b6001600160a01b038085166000908152600160209081526040808320938716835292905220829055801561085157826001600160a01b0316846001600160a01b03167f8c5be1e5ebec7d5bd14f71427d1e84f3dd0314c0f7b2291e5b200ac8c7c3b925846040516113df91815260200190565b61160d8282610c2a565b61163c5760405163e2517d3f60e01b81526001600160a01b038216600482015260248101839052604401610a06565b5050565b6001600160a01b03831661166b5780600260008282546116609190611bf9565b909155506116ca9050565b6001600160a01b038316600090815260208190526040902054818110156116ab5783818360405163391434e360e21b8152600401610a0693929190611c25565b6001600160a01b03841660009081526020819052604090209082900390555b6001600160a01b0382166116e657600280548290039055611705565b6001600160a01b03821660009081526020819052604090208054820190555b816001600160a01b0316836001600160a01b03167fddf252ad1be2c89b69c2b068fc378daa952ba7f163c4a11628f55a4df523b3ef8360405161174a91815260200190565b60405180910390a3505050565b600080602060008451602086016000885af18061177a576040513d6000823e3d81fd5b50506000513d9150811561179257806001141561179f565b6001600160a01b0384163b155b1561085157604051635274afe760e01b81526001600160a01b0385166004820152602401610a06565b6040516001600160a01b0384811660248301528381166044830152606482018390526108519186918216906323b872dd9060840161130f565b6001600160a01b03821661182b5760405163ec442f0560e01b815260006004820152602401610a06565b61163c60008383611640565b6001600160a01b03821661186157604051634b637e8f60e11b815260006004820152602401610a06565b61163c82600083611640565b6000600282600381111561188357611883611d62565b61188d9190611d78565b60ff166001149050919050565b60008060006118a9868661194f565b91509150816000036118ce578381816118c4576118c4611d4c565b0492505050610825565b8184116118e5576118e5600385150260111861196d565b6000848688096000868103871696879004966002600389028118808a02820302808a02820302808a02820302808a02820302808a02820302808a02909103029181900381900460010185841190960395909502919093039390930492909217029150509392505050565b60008060001983850993909202808410938190039390930393915050565b634e487b71600052806020526024601cfd5b60006020828403121561199157600080fd5b81356001600160e01b03198116811461082557600080fd5b600060208083528351808285015260005b818110156119d6578581018301518582016040015282016119ba565b506000604082860101526040601f19601f8301168501019250505092915050565b600060208284031215611a0957600080fd5b5035919050565b80356001600160a01b0381168114611a2757600080fd5b919050565b60008060408385031215611a3f57600080fd5b611a4883611a10565b946020939093013593505050565b600060208284031215611a6857600080fd5b8135801515811461082557600080fd5b600080600060608486031215611a8d57600080fd5b611a9684611a10565b9250611aa460208501611a10565b9150604084013590509250925092565b60008060408385031215611ac757600080fd5b82359150611ad760208401611a10565b90509250929050565b600060208284031215611af257600080fd5b61082582611a10565b600080600060608486031215611b1057600080fd5b83359250611b2060208501611a10565b9150611b2e60408501611a10565b90509250925092565b60008060408385031215611b4a57600080fd5b611b5383611a10565b9150611ad760208401611a10565b600060208284031215611b7357600080fd5b5051919050565b600181811c90821680611b8e57607f821691505b602082108103611bae57634e487b7160e01b600052602260045260246000fd5b50919050565b634e487b7160e01b600052601160045260246000fd5b60ff818116838216019081111561068157610681611bb4565b634e487b7160e01b600052603260045260246000fd5b8082018082111561068157610681611bb4565b600060018201611c1e57611c1e611bb4565b5060010190565b6001600160a01b039390931683526020830191909152604082015260600190565b8181038181111561068157610681611bb4565b600181815b80851115611c94578160001904821115611c7a57611c7a611bb4565b80851615611c8757918102915b93841c9390800290611c5e565b509250929050565b600082611cab57506001610681565b81611cb857506000610681565b8160018114611cce5760028114611cd857611cf4565b6001915050610681565b60ff841115611ce957611ce9611bb4565b50506001821b610681565b5060208310610133831016604e8410600b8410161715611d17575081810a610681565b611d218383611c59565b8060001904821115611d3557611d35611bb4565b029392505050565b600061082560ff841683611c9c565b634e487b7160e01b600052601260045260246000fd5b634e487b7160e01b600052602160045260246000fd5b600060ff831680611d9957634e487b7160e01b600052601260045260246000fd5b8060ff8416069150509291505056fea2646970667358221220206a55eb3cdbb69c7cccea052134b9e6b72e9641c34a7cdb6b3f7b507734efd864736f6c63430008140033",
  "linkReferences": {},
  "deployedLinkReferences": {}
}