{
  "_format": "hh-sol-artifact-1",
  "contractName": "TimeLockedEthInvestmentVault",
  "sourceName": "contracts/PandorasFamilyFriends.sol",
  "abi": [
    {
      "inputs": [
        {
          "internalType": "address[]",
          "name": "initialAdmins",
          "type": "address[]"
        }
      ],
      "stateMutability": "nonpayable",
      "type": "constructor"
    },
    {
      "inputs": [],
      "name": "AccessControlBadConfirmation",
      "type": "error"
    },
    {
      "inputs": [
        {
          "internalType": "address",
          "name": "account",
          "type": "address"
        },
        {
          "internalType": "bytes32",
          "name": "neededRole",
          "type": "bytes32"
        }
      ],
      "name": "AccessControlUnauthorizedAccount",
      "type": "error"
    },
    {
      "inputs": [],
      "name": "ReentrancyGuardReentrantCall",
      "type": "error"
    },
    {
      "anonymous": false,
      "inputs": [
        {
          "indexed": true,
          "internalType": "address",
          "name": "user",
          "type": "address"
        },
        {
          "indexed": false,
          "internalType": "uint256",
          "name": "depositIndex",
          "type": "uint256"
        }
      ],
      "name": "AdminUnlockDeposit",
      "type": "event"
    },
    {
      "anonymous": false,
      "inputs": [
        {
          "indexed": true,
          "internalType": "address",
          "name": "admin",
          "type": "address"
        },
        {
          "indexed": false,
          "internalType": "uint256",
          "name": "amount",
          "type": "uint256"
        },
        {
          "indexed": false,
          "internalType": "uint256",
          "name": "when",
          "type": "uint256"
        }
      ],
      "name": "AdminUtilityInjection",
      "type": "event"
    },
    {
      "anonymous": false,
      "inputs": [
        {
          "indexed": true,
          "internalType": "address",
          "name": "admin",
          "type": "address"
        },
        {
          "indexed": true,
          "internalType": "address",
          "name": "to",
          "type": "address"
        },
        {
          "indexed": false,
          "internalType": "uint256",
          "name": "amount",
          "type": "uint256"
        },
        {
          "indexed": false,
          "internalType": "uint256",
          "name": "when",
          "type": "uint256"
        },
        {
          "indexed": false,
          "internalType": "string",
          "name": "reason",
          "type": "string"
        }
      ],
      "name": "AdminWithdraw",
      "type": "event"
    },
    {
      "anonymous": false,
      "inputs": [
        {
          "indexed": true,
          "internalType": "address",
          "name": "admin",
          "type": "address"
        },
        {
          "indexed": false,
          "internalType": "address[]",
          "name": "users",
          "type": "address[]"
        },
        {
          "indexed": false,
          "internalType": "uint256[][]",
          "name": "indices",
          "type": "uint256[][]"
        }
      ],
      "name": "BatchUnlock",
      "type": "event"
    },
    {
      "anonymous": false,
      "inputs": [
        {
          "indexed": true,
          "internalType": "address",
          "name": "user",
          "type": "address"
        },
        {
          "indexed": false,
          "internalType": "uint256[]",
          "name": "indices",
          "type": "uint256[]"
        },
        {
          "indexed": false,
          "internalType": "uint256",
          "name": "totalPrincipal",
          "type": "uint256"
        },
        {
          "indexed": false,
          "internalType": "uint256",
          "name": "totalUtility",
          "type": "uint256"
        },
        {
          "indexed": false,
          "internalType": "uint256",
          "name": "when",
          "type": "uint256"
        }
      ],
      "name": "BatchWithdraw",
      "type": "event"
    },
    {
      "anonymous": false,
      "inputs": [
        {
          "indexed": false,
          "internalType": "uint256",
          "name": "when",
          "type": "uint256"
        }
      ],
      "name": "GlobalLiquidationEnabled",
      "type": "event"
    },
    {
      "anonymous": false,
      "inputs": [
        {
          "indexed": false,
          "internalType": "bool",
          "name": "paused",
          "type": "bool"
        }
      ],
      "name": "PauseChanged",
      "type": "event"
    },
    {
      "anonymous": false,
      "inputs": [
        {
          "indexed": true,
          "internalType": "bytes32",
          "name": "role",
          "type": "bytes32"
        },
        {
          "indexed": true,
          "internalType": "bytes32",
          "name": "previousAdminRole",
          "type": "bytes32"
        },
        {
          "indexed": true,
          "internalType": "bytes32",
          "name": "newAdminRole",
          "type": "bytes32"
        }
      ],
      "name": "RoleAdminChanged",
      "type": "event"
    },
    {
      "anonymous": false,
      "inputs": [
        {
          "indexed": true,
          "internalType": "bytes32",
          "name": "role",
          "type": "bytes32"
        },
        {
          "indexed": true,
          "internalType": "address",
          "name": "account",
          "type": "address"
        },
        {
          "indexed": true,
          "internalType": "address",
          "name": "sender",
          "type": "address"
        }
      ],
      "name": "RoleGranted",
      "type": "event"
    },
    {
      "anonymous": false,
      "inputs": [
        {
          "indexed": true,
          "internalType": "bytes32",
          "name": "role",
          "type": "bytes32"
        },
        {
          "indexed": true,
          "internalType": "address",
          "name": "account",
          "type": "address"
        },
        {
          "indexed": true,
          "internalType": "address",
          "name": "sender",
          "type": "address"
        }
      ],
      "name": "RoleRevoked",
      "type": "event"
    },
    {
      "anonymous": false,
      "inputs": [
        {
          "indexed": true,
          "internalType": "address",
          "name": "user",
          "type": "address"
        },
        {
          "indexed": false,
          "internalType": "uint256",
          "name": "amount",
          "type": "uint256"
        },
        {
          "indexed": false,
          "internalType": "uint256",
          "name": "shares",
          "type": "uint256"
        },
        {
          "indexed": false,
          "internalType": "uint256",
          "name": "when",
          "type": "uint256"
        },
        {
          "indexed": false,
          "internalType": "uint256",
          "name": "depositIndex",
          "type": "uint256"
        }
      ],
      "name": "TimeLockedDeposit",
      "type": "event"
    },
    {
      "anonymous": false,
      "inputs": [
        {
          "indexed": true,
          "internalType": "address",
          "name": "user",
          "type": "address"
        },
        {
          "indexed": false,
          "internalType": "bool",
          "name": "status",
          "type": "bool"
        }
      ],
      "name": "UserWhitelisted",
      "type": "event"
    },
    {
      "anonymous": false,
      "inputs": [
        {
          "indexed": true,
          "internalType": "address",
          "name": "user",
          "type": "address"
        },
        {
          "indexed": false,
          "internalType": "uint256",
          "name": "amount",
          "type": "uint256"
        },
        {
          "indexed": false,
          "internalType": "uint256",
          "name": "utility",
          "type": "uint256"
        },
        {
          "indexed": false,
          "internalType": "uint256",
          "name": "shares",
          "type": "uint256"
        },
        {
          "indexed": false,
          "internalType": "uint256",
          "name": "when",
          "type": "uint256"
        },
        {
          "indexed": false,
          "internalType": "uint256",
          "name": "depositIndex",
          "type": "uint256"
        }
      ],
      "name": "Withdraw",
      "type": "event"
    },
    {
      "inputs": [],
      "name": "ADMIN_ROLE",
      "outputs": [
        {
          "internalType": "bytes32",
          "name": "",
          "type": "bytes32"
        }
      ],
      "stateMutability": "view",
      "type": "function"
    },
    {
      "inputs": [],
      "name": "DEFAULT_ADMIN_ROLE",
      "outputs": [
        {
          "internalType": "bytes32",
          "name": "",
          "type": "bytes32"
        }
      ],
      "stateMutability": "view",
      "type": "function"
    },
    {
      "inputs": [],
      "name": "LIQUIDATION_DEFAULT_DELAY",
      "outputs": [
        {
          "internalType": "uint256",
          "name": "",
          "type": "uint256"
        }
      ],
      "stateMutability": "view",
      "type": "function"
    },
    {
      "inputs": [],
      "name": "LOCKUP_PERIOD",
      "outputs": [
        {
          "internalType": "uint256",
          "name": "",
          "type": "uint256"
        }
      ],
      "stateMutability": "view",
      "type": "function"
    },
    {
      "inputs": [],
      "name": "PAUSER_ROLE",
      "outputs": [
        {
          "internalType": "bytes32",
          "name": "",
          "type": "bytes32"
        }
      ],
      "stateMutability": "view",
      "type": "function"
    },
    {
      "inputs": [],
      "name": "UNLOCKER_ROLE",
      "outputs": [
        {
          "internalType": "bytes32",
          "name": "",
          "type": "bytes32"
        }
      ],
      "stateMutability": "view",
      "type": "function"
    },
    {
      "inputs": [],
      "name": "UTILITY_INJECTOR_ROLE",
      "outputs": [
        {
          "internalType": "bytes32",
          "name": "",
          "type": "bytes32"
        }
      ],
      "stateMutability": "view",
      "type": "function"
    },
    {
      "inputs": [],
      "name": "WITHDRAWER_ROLE",
      "outputs": [
        {
          "internalType": "bytes32",
          "name": "",
          "type": "bytes32"
        }
      ],
      "stateMutability": "view",
      "type": "function"
    },
    {
      "inputs": [
        {
          "internalType": "address",
          "name": "to",
          "type": "address"
        }
      ],
      "name": "adminEmergencyWithdrawAll",
      "outputs": [],
      "stateMutability": "nonpayable",
      "type": "function"
    },
    {
      "inputs": [
        {
          "internalType": "address",
          "name": "to",
          "type": "address"
        },
        {
          "internalType": "uint256",
          "name": "amount",
          "type": "uint256"
        }
      ],
      "name": "adminWithdrawUtility",
      "outputs": [],
      "stateMutability": "nonpayable",
      "type": "function"
    },
    {
      "inputs": [
        {
          "internalType": "uint256",
          "name": "",
          "type": "uint256"
        }
      ],
      "name": "allUsers",
      "outputs": [
        {
          "internalType": "address",
          "name": "",
          "type": "address"
        }
      ],
      "stateMutability": "view",
      "type": "function"
    },
    {
      "inputs": [
        {
          "internalType": "address[]",
          "name": "users",
          "type": "address[]"
        },
        {
          "internalType": "uint256[][]",
          "name": "indices",
          "type": "uint256[][]"
        }
      ],
      "name": "batchUnlock",
      "outputs": [],
      "stateMutability": "nonpayable",
      "type": "function"
    },
    {
      "inputs": [
        {
          "internalType": "uint256[]",
          "name": "depositIndices",
          "type": "uint256[]"
        }
      ],
      "name": "batchWithdraw",
      "outputs": [],
      "stateMutability": "nonpayable",
      "type": "function"
    },
    {
      "inputs": [
        {
          "internalType": "address",
          "name": "receiver",
          "type": "address"
        }
      ],
      "name": "deposit",
      "outputs": [
        {
          "internalType": "uint256",
          "name": "shares",
          "type": "uint256"
        }
      ],
      "stateMutability": "payable",
      "type": "function"
    },
    {
      "inputs": [],
      "name": "enableGlobalLiquidation",
      "outputs": [],
      "stateMutability": "nonpayable",
      "type": "function"
    },
    {
      "inputs": [
        {
          "internalType": "uint256",
          "name": "start",
          "type": "uint256"
        },
        {
          "internalType": "uint256",
          "name": "limit",
          "type": "uint256"
        }
      ],
      "name": "getAllUsers",
      "outputs": [
        {
          "internalType": "address[]",
          "name": "users",
          "type": "address[]"
        }
      ],
      "stateMutability": "view",
      "type": "function"
    },
    {
      "inputs": [],
      "name": "getEarliestDepositTimestamp",
      "outputs": [
        {
          "internalType": "uint256",
          "name": "earliest",
          "type": "uint256"
        }
      ],
      "stateMutability": "view",
      "type": "function"
    },
    {
      "inputs": [
        {
          "internalType": "bytes32",
          "name": "role",
          "type": "bytes32"
        }
      ],
      "name": "getRoleAdmin",
      "outputs": [
        {
          "internalType": "bytes32",
          "name": "",
          "type": "bytes32"
        }
      ],
      "stateMutability": "view",
      "type": "function"
    },
    {
      "inputs": [
        {
          "internalType": "address",
          "name": "user",
          "type": "address"
        }
      ],
      "name": "getUnlockedDeposits",
      "outputs": [
        {
          "internalType": "uint256",
          "name": "unlockedAmount",
          "type": "uint256"
        },
        {
          "internalType": "uint256[]",
          "name": "unlockedIndexes",
          "type": "uint256[]"
        }
      ],
      "stateMutability": "view",
      "type": "function"
    },
    {
      "inputs": [
        {
          "internalType": "address",
          "name": "user",
          "type": "address"
        }
      ],
      "name": "getUserDepositInfo",
      "outputs": [
        {
          "internalType": "uint256[]",
          "name": "amounts",
          "type": "uint256[]"
        },
        {
          "internalType": "uint256[]",
          "name": "timestamps",
          "type": "uint256[]"
        },
        {
          "internalType": "bool[]",
          "name": "withdrawn",
          "type": "bool[]"
        },
        {
          "internalType": "bool[]",
          "name": "unlockedByAdmin",
          "type": "bool[]"
        },
        {
          "internalType": "bool[]",
          "name": "fullyRedeemable",
          "type": "bool[]"
        }
      ],
      "stateMutability": "view",
      "type": "function"
    },
    {
      "inputs": [],
      "name": "getUtilityPool",
      "outputs": [
        {
          "internalType": "uint256",
          "name": "util",
          "type": "uint256"
        }
      ],
      "stateMutability": "view",
      "type": "function"
    },
    {
      "inputs": [],
      "name": "globalLiquidationEnabled",
      "outputs": [
        {
          "internalType": "bool",
          "name": "",
          "type": "bool"
        }
      ],
      "stateMutability": "view",
      "type": "function"
    },
    {
      "inputs": [],
      "name": "globalLiquidationTimestamp",
      "outputs": [
        {
          "internalType": "uint256",
          "name": "",
          "type": "uint256"
        }
      ],
      "stateMutability": "view",
      "type": "function"
    },
    {
      "inputs": [
        {
          "internalType": "bytes32",
          "name": "role",
          "type": "bytes32"
        },
        {
          "internalType": "address",
          "name": "account",
          "type": "address"
        }
      ],
      "name": "grantRole",
      "outputs": [],
      "stateMutability": "nonpayable",
      "type": "function"
    },
    {
      "inputs": [
        {
          "internalType": "bytes32",
          "name": "role",
          "type": "bytes32"
        },
        {
          "internalType": "address",
          "name": "account",
          "type": "address"
        }
      ],
      "name": "hasRole",
      "outputs": [
        {
          "internalType": "bool",
          "name": "",
          "type": "bool"
        }
      ],
      "stateMutability": "view",
      "type": "function"
    },
    {
      "inputs": [],
      "name": "injectUtility",
      "outputs": [],
      "stateMutability": "payable",
      "type": "function"
    },
    {
      "inputs": [],
      "name": "isPoolFull",
      "outputs": [
        {
          "internalType": "bool",
          "name": "",
          "type": "bool"
        }
      ],
      "stateMutability": "view",
      "type": "function"
    },
    {
      "inputs": [
        {
          "internalType": "address",
          "name": "",
          "type": "address"
        }
      ],
      "name": "isWhitelisted",
      "outputs": [
        {
          "internalType": "bool",
          "name": "",
          "type": "bool"
        }
      ],
      "stateMutability": "view",
      "type": "function"
    },
    {
      "inputs": [],
      "name": "maxCap",
      "outputs": [
        {
          "internalType": "uint256",
          "name": "",
          "type": "uint256"
        }
      ],
      "stateMutability": "view",
      "type": "function"
    },
    {
      "inputs": [],
      "name": "paused",
      "outputs": [
        {
          "internalType": "bool",
          "name": "",
          "type": "bool"
        }
      ],
      "stateMutability": "view",
      "type": "function"
    },
    {
      "inputs": [],
      "name": "poolRoomLeft",
      "outputs": [
        {
          "internalType": "uint256",
          "name": "",
          "type": "uint256"
        }
      ],
      "stateMutability": "view",
      "type": "function"
    },
    {
      "inputs": [
        {
          "internalType": "bytes32",
          "name": "role",
          "type": "bytes32"
        },
        {
          "internalType": "address",
          "name": "callerConfirmation",
          "type": "address"
        }
      ],
      "name": "renounceRole",
      "outputs": [],
      "stateMutability": "nonpayable",
      "type": "function"
    },
    {
      "inputs": [
        {
          "internalType": "bytes32",
          "name": "role",
          "type": "bytes32"
        },
        {
          "internalType": "address",
          "name": "account",
          "type": "address"
        }
      ],
      "name": "revokeRole",
      "outputs": [],
      "stateMutability": "nonpayable",
      "type": "function"
    },
    {
      "inputs": [
        {
          "internalType": "bool",
          "name": "_paused",
          "type": "bool"
        }
      ],
      "name": "setPaused",
      "outputs": [],
      "stateMutability": "nonpayable",
      "type": "function"
    },
    {
      "inputs": [
        {
          "internalType": "address",
          "name": "user",
          "type": "address"
        },
        {
          "internalType": "bool",
          "name": "status",
          "type": "bool"
        }
      ],
      "name": "setWhitelist",
      "outputs": [],
      "stateMutability": "nonpayable",
      "type": "function"
    },
    {
      "inputs": [
        {
          "internalType": "address[]",
          "name": "users",
          "type": "address[]"
        },
        {
          "internalType": "bool[]",
          "name": "statuses",
          "type": "bool[]"
        }
      ],
      "name": "setWhitelistBatch",
      "outputs": [],
      "stateMutability": "nonpayable",
      "type": "function"
    },
    {
      "inputs": [
        {
          "internalType": "bool",
          "name": "enabled",
          "type": "bool"
        }
      ],
      "name": "setWhitelistEnabled",
      "outputs": [],
      "stateMutability": "nonpayable",
      "type": "function"
    },
    {
      "inputs": [
        {
          "internalType": "bytes4",
          "name": "interfaceId",
          "type": "bytes4"
        }
      ],
      "name": "supportsInterface",
      "outputs": [
        {
          "internalType": "bool",
          "name": "",
          "type": "bool"
        }
      ],
      "stateMutability": "view",
      "type": "function"
    },
    {
      "inputs": [],
      "name": "totalDeposited",
      "outputs": [
        {
          "internalType": "uint256",
          "name": "",
          "type": "uint256"
        }
      ],
      "stateMutability": "view",
      "type": "function"
    },
    {
      "inputs": [],
      "name": "totalShares",
      "outputs": [
        {
          "internalType": "uint256",
          "name": "",
          "type": "uint256"
        }
      ],
      "stateMutability": "view",
      "type": "function"
    },
    {
      "inputs": [],
      "name": "totalUtility",
      "outputs": [
        {
          "internalType": "uint256",
          "name": "",
          "type": "uint256"
        }
      ],
      "stateMutability": "view",
      "type": "function"
    },
    {
      "inputs": [
        {
          "internalType": "address",
          "name": "user",
          "type": "address"
        },
        {
          "internalType": "uint256[]",
          "name": "depositIndices",
          "type": "uint256[]"
        }
      ],
      "name": "unlockDepositsForUser",
      "outputs": [],
      "stateMutability": "nonpayable",
      "type": "function"
    },
    {
      "inputs": [
        {
          "internalType": "address",
          "name": "",
          "type": "address"
        },
        {
          "internalType": "uint256",
          "name": "",
          "type": "uint256"
        }
      ],
      "name": "userDeposits",
      "outputs": [
        {
          "internalType": "uint256",
          "name": "amount",
          "type": "uint256"
        },
        {
          "internalType": "uint256",
          "name": "timestamp",
          "type": "uint256"
        },
        {
          "internalType": "uint256",
          "name": "shares",
          "type": "uint256"
        },
        {
          "internalType": "bool",
          "name": "withdrawn",
          "type": "bool"
        },
        {
          "internalType": "bool",
          "name": "unlockedByAdmin",
          "type": "bool"
        },
        {
          "internalType": "bool",
          "name": "fullyRedeemable",
          "type": "bool"
        }
      ],
      "stateMutability": "view",
      "type": "function"
    },
    {
      "inputs": [],
      "name": "whitelistEnabled",
      "outputs": [
        {
          "internalType": "bool",
          "name": "",
          "type": "bool"
        }
      ],
      "stateMutability": "view",
      "type": "function"
    },
    {
      "inputs": [
        {
          "internalType": "uint256",
          "name": "depositIndex",
          "type": "uint256"
        }
      ],
      "name": "withdraw",
      "outputs": [],
      "stateMutability": "nonpayable",
      "type": "function"
    },
    {
      "stateMutability": "payable",
      "type": "receive"
    }
  ],
  "bytecode": "0x608060405234801561001057600080fd5b5060405161535438038061535483398181016040528101906100329190610538565b6001808190555060005b81518110156101f7576100726000801b83838151811061005f5761005e610581565b5b60200260200101516101fe60201b60201c565b506100bd7fa49807205ce4d355092ef5a8a18f56e8913cf4a201fbe287825b095693c217758383815181106100aa576100a9610581565b5b60200260200101516101fe60201b60201c565b506101087f65d7a28e3265b37a6474929f336521b332c1681b933f6cb9f3376673440d862a8383815181106100f5576100f4610581565b5b60200260200101516101fe60201b60201c565b506101537fc806897caf4fd5068191157e44d3988e43139a37e0b97b6793e1ed11841406048383815181106101405761013f610581565b5b60200260200101516101fe60201b60201c565b5061019e7ff60566c40710959d8d30b6067ce3c53c757bec78eecb0e46b83c7f8194ffae3783838151811061018b5761018a610581565b5b60200260200101516101fe60201b60201c565b506101e97f10dac8c06a04bec0b551627dad28bc00d6516b0caacd1c7b345fcdb5211334e48383815181106101d6576101d5610581565b5b60200260200101516101fe60201b60201c565b50808060010191505061003c565b50506105b0565b600061021083836102fb60201b60201c565b6102f057600160008085815260200190815260200160002060000160008473ffffffffffffffffffffffffffffffffffffffff1673ffffffffffffffffffffffffffffffffffffffff16815260200190815260200160002060006101000a81548160ff02191690831515021790555061028d61036560201b60201c565b73ffffffffffffffffffffffffffffffffffffffff168273ffffffffffffffffffffffffffffffffffffffff16847f2f8788117e7eff1d82e926ec794901d17c78024a50270940304540a733656f0d60405160405180910390a4600190506102f5565b600090505b92915050565b600080600084815260200190815260200160002060000160008373ffffffffffffffffffffffffffffffffffffffff1673ffffffffffffffffffffffffffffffffffffffff16815260200190815260200160002060009054906101000a900460ff16905092915050565b600033905090565b6000604051905090565b600080fd5b600080fd5b600080fd5b6000601f19601f8301169050919050565b7f4e487b7100000000000000000000000000000000000000000000000000000000600052604160045260246000fd5b6103cf82610386565b810181811067ffffffffffffffff821117156103ee576103ed610397565b5b80604052505050565b600061040161036d565b905061040d82826103c6565b919050565b600067ffffffffffffffff82111561042d5761042c610397565b5b602082029050602081019050919050565b600080fd5b600073ffffffffffffffffffffffffffffffffffffffff82169050919050565b600061046e82610443565b9050919050565b61047e81610463565b811461048957600080fd5b50565b60008151905061049b81610475565b92915050565b60006104b46104af84610412565b6103f7565b905080838252602082019050602084028301858111156104d7576104d661043e565b5b835b8181101561050057806104ec888261048c565b8452602084019350506020810190506104d9565b5050509392505050565b600082601f83011261051f5761051e610381565b5b815161052f8482602086016104a1565b91505092915050565b60006020828403121561054e5761054d610377565b5b600082015167ffffffffffffffff81111561056c5761056b61037c565b5b6105788482850161050a565b91505092915050565b7f4e487b7100000000000000000000000000000000000000000000000000000000600052603260045260246000fd5b614d95806105bf6000396000f3fe6080604052600436106102765760003560e01c80635c975abb1161014f578063a217fddf116100c1578063e63ab1e91161007a578063e63ab1e9146109a5578063ebfa7c46146109d0578063ec16d076146109fb578063f340fa0114610a26578063fdfbe0c814610a56578063ff50abdc14610a81576102b6565b8063a217fddf14610891578063a2bdedf4146108bc578063b3a7834d146108f9578063d547741f1461093a578063da8d5add14610963578063e043b2b21461097a576102b6565b806385f438c11161011357806385f438c114610783578063867d099a146107ae5780638e957748146107d757806391d148541461080057806397f6ad871461083d5780639a038b4614610868576102b6565b80635c975abb1461069b5780635e0cde10146106c65780636eb80c1d146106f157806372e553991461072f57806375b238fc14610758576102b6565b80632f2ff15d116101e8578063462d6c3d116101ac578063462d6c3d146105ac57806347af19aa146105b65780634ff113e9146105df57806351fb012d1461061c57806353d6fd5914610647578063588583a014610670576102b6565b80632f2ff15d146104c95780633098924b146104f257806336568abe1461051b5780633a98ef39146105445780633af32abf1461056f576102b6565b806316c38b3c1161023a57806316c38b3c146103b957806320bc73f4146103e257806323548b8b1461040d578063246d47b714610438578063248a9ca3146104635780632e1a7d4d146104a0576102b6565b806301ffc9a7146102bb578063052d9e7e146102f857806308f4333314610321578063093c87f3146103635780630c016ad51461038e576102b6565b366102b6576040517f08c379a00000000000000000000000000000000000000000000000000000000081526004016102ad906133fd565b60405180910390fd5b600080fd5b3480156102c757600080fd5b506102e260048036038101906102dd919061347f565b610aac565b6040516102ef91906134c7565b60405180910390f35b34801561030457600080fd5b5061031f600480360381019061031a919061350e565b610b26565b005b34801561032d57600080fd5b50610348600480360381019061034391906135cf565b610b6e565b60405161035a9695949392919061361e565b60405180910390f35b34801561036f57600080fd5b50610378610bee565b60405161038591906134c7565b60405180910390f35b34801561039a57600080fd5b506103a3610c06565b6040516103b09190613698565b60405180910390f35b3480156103c557600080fd5b506103e060048036038101906103db919061350e565b610c2a565b005b3480156103ee57600080fd5b506103f7610ca9565b60405161040491906136b3565b60405180910390f35b34801561041957600080fd5b50610422610cb1565b60405161042f91906136b3565b60405180910390f35b34801561044457600080fd5b5061044d610cc0565b60405161045a91906134c7565b60405180910390f35b34801561046f57600080fd5b5061048a600480360381019061048591906136fa565b610cd1565b6040516104979190613698565b60405180910390f35b3480156104ac57600080fd5b506104c760048036038101906104c29190613727565b610cf0565b005b3480156104d557600080fd5b506104f060048036038101906104eb9190613754565b610dcc565b005b3480156104fe57600080fd5b5061051960048036038101906105149190613794565b610dee565b005b34801561052757600080fd5b50610542600480360381019061053d9190613754565b611008565b005b34801561055057600080fd5b50610559611083565b60405161056691906136b3565b60405180910390f35b34801561057b57600080fd5b5061059660048036038101906105919190613794565b611089565b6040516105a391906134c7565b60405180910390f35b6105b46110a9565b005b3480156105c257600080fd5b506105dd60048036038101906105d8919061387c565b6111d2565b005b3480156105eb57600080fd5b50610606600480360381019061060191906138fd565b6113a8565b60405161061391906139fb565b60405180910390f35b34801561062857600080fd5b50610631611524565b60405161063e91906134c7565b60405180910390f35b34801561065357600080fd5b5061066e60048036038101906106699190613a1d565b611537565b005b34801561067c57600080fd5b5061068561160b565b60405161069291906136b3565b60405180910390f35b3480156106a757600080fd5b506106b0611611565b6040516106bd91906134c7565b60405180910390f35b3480156106d257600080fd5b506106db611624565b6040516106e891906136b3565b60405180910390f35b3480156106fd57600080fd5b5061071860048036038101906107139190613794565b61162a565b604051610726929190613b1b565b60405180910390f35b34801561073b57600080fd5b5061075660048036038101906107519190613ba1565b6117d2565b005b34801561076457600080fd5b5061076d611880565b60405161077a9190613698565b60405180910390f35b34801561078f57600080fd5b506107986118a4565b6040516107a59190613698565b60405180910390f35b3480156107ba57600080fd5b506107d560048036038101906107d09190613bee565b6118c8565b005b3480156107e357600080fd5b506107fe60048036038101906107f991906135cf565b611b43565b005b34801561080c57600080fd5b5061082760048036038101906108229190613754565b611d63565b60405161083491906134c7565b60405180910390f35b34801561084957600080fd5b50610852611dcd565b60405161085f91906136b3565b60405180910390f35b34801561087457600080fd5b5061088f600480360381019061088a9190613ca4565b611dd7565b005b34801561089d57600080fd5b506108a6611f65565b6040516108b39190613698565b60405180910390f35b3480156108c857600080fd5b506108e360048036038101906108de9190613727565b611f6c565b6040516108f09190613d34565b60405180910390f35b34801561090557600080fd5b50610920600480360381019061091b9190613794565b611fab565b604051610931959493929190613e0d565b60405180910390f35b34801561094657600080fd5b50610961600480360381019061095c9190613754565b6122ad565b005b34801561096f57600080fd5b506109786122cf565b005b34801561098657600080fd5b5061098f612473565b60405161099c9190613698565b60405180910390f35b3480156109b157600080fd5b506109ba612497565b6040516109c79190613698565b60405180910390f35b3480156109dc57600080fd5b506109e56124bb565b6040516109f291906136b3565b60405180910390f35b348015610a0757600080fd5b50610a106124f8565b604051610a1d91906136b3565b60405180910390f35b610a406004803603810190610a3b9190613794565b6124ff565b604051610a4d91906136b3565b60405180910390f35b348015610a6257600080fd5b50610a6b612949565b604051610a7891906136b3565b60405180910390f35b348015610a8d57600080fd5b50610a96612aad565b604051610aa391906136b3565b60405180910390f35b60007f7965db0b000000000000000000000000000000000000000000000000000000007bffffffffffffffffffffffffffffffffffffffffffffffffffffffff1916827bffffffffffffffffffffffffffffffffffffffffffffffffffffffff19161480610b1f5750610b1e82612ab3565b5b9050919050565b7fa49807205ce4d355092ef5a8a18f56e8913cf4a201fbe287825b095693c21775610b5081612b1d565b81600260016101000a81548160ff0219169083151502179055505050565b60076020528160005260406000208181548110610b8a57600080fd5b9060005260206000209060040201600091509150508060000154908060010154908060020154908060030160009054906101000a900460ff16908060030160019054906101000a900460ff16908060030160029054906101000a900460ff16905086565b60006a0422ca8b0a00a4250000006004541015905090565b7ff60566c40710959d8d30b6067ce3c53c757bec78eecb0e46b83c7f8194ffae3781565b7f65d7a28e3265b37a6474929f336521b332c1681b933f6cb9f3376673440d862a610c5481612b1d565b81600260006101000a81548160ff0219169083151502179055507f8fb6c181ee25a520cf3dd6565006ef91229fcfe5a989566c2a3b8c115570cec582604051610c9d91906134c7565b60405180910390a15050565b6302c7ea0081565b6a0422ca8b0a00a42500000081565b60028054906101000a900460ff1681565b6000806000838152602001908152602001600020600101549050919050565b610cf8612b31565b600260009054906101000a900460ff1615610d48576040517f08c379a0000000000000000000000000000000000000000000000000000000008152600401610d3f90613ecf565b60405180910390fd5b6000600167ffffffffffffffff811115610d6557610d64613eef565b5b604051908082528060200260200182016040528015610d935781602001602082028036833780820191505090505b5090508181600081518110610dab57610daa613f1e565b5b602002602001018181525050610dc081612b77565b50610dc9613028565b50565b610dd582610cd1565b610dde81612b1d565b610de88383613031565b50505050565b7fa49807205ce4d355092ef5a8a18f56e8913cf4a201fbe287825b095693c21775610e1881612b1d565b610e20612b31565b600073ffffffffffffffffffffffffffffffffffffffff168273ffffffffffffffffffffffffffffffffffffffff1603610e8f576040517f08c379a0000000000000000000000000000000000000000000000000000000008152600401610e8690613f99565b60405180910390fd5b6000600454148015610ea357506000600554145b610ee2576040517f08c379a0000000000000000000000000000000000000000000000000000000008152600401610ed990614005565b60405180910390fd5b600047905060008373ffffffffffffffffffffffffffffffffffffffff1682604051610f0d90614056565b60006040518083038185875af1925050503d8060008114610f4a576040519150601f19603f3d011682016040523d82523d6000602084013e610f4f565b606091505b5050905080610f93576040517f08c379a0000000000000000000000000000000000000000000000000000000008152600401610f8a906140b7565b60405180910390fd5b8373ffffffffffffffffffffffffffffffffffffffff163373ffffffffffffffffffffffffffffffffffffffff167fa42a4a1652be46e2b44488aec0a260d6f641d4e01decddf6f2b2217922aec3a68442604051610ff2929190614123565b60405180910390a35050611004613028565b5050565b611010613122565b73ffffffffffffffffffffffffffffffffffffffff168173ffffffffffffffffffffffffffffffffffffffff1614611074576040517f6697b23200000000000000000000000000000000000000000000000000000000815260040160405180910390fd5b61107e828261312a565b505050565b60055481565b60086020528060005260406000206000915054906101000a900460ff1681565b7ff60566c40710959d8d30b6067ce3c53c757bec78eecb0e46b83c7f8194ffae376110d381612b1d565b600260009054906101000a900460ff1615611123576040517f08c379a000000000000000000000000000000000000000000000000000000000815260040161111a90613ecf565b60405180910390fd5b60003411611166576040517f08c379a000000000000000000000000000000000000000000000000000000000815260040161115d906141ab565b60405180910390fd5b346006600082825461117891906141fa565b925050819055503373ffffffffffffffffffffffffffffffffffffffff167fb717fe2b7c9b70bd4f64a85e911a9e4261c90db87aab224da0b8324f846c3d7134426040516111c792919061422e565b60405180910390a250565b7fa49807205ce4d355092ef5a8a18f56e8913cf4a201fbe287825b095693c217756111fc81612b1d565b828290508585905014611244576040517f08c379a000000000000000000000000000000000000000000000000000000000815260040161123b906142a3565b60405180910390fd5b60005b858590508110156113a05783838281811061126557611264613f1e565b5b905060200201602081019061127a919061350e565b6008600088888581811061129157611290613f1e565b5b90506020020160208101906112a69190613794565b73ffffffffffffffffffffffffffffffffffffffff1673ffffffffffffffffffffffffffffffffffffffff16815260200190815260200160002060006101000a81548160ff02191690831515021790555085858281811061130a57611309613f1e565b5b905060200201602081019061131f9190613794565b73ffffffffffffffffffffffffffffffffffffffff167f995d2434d36c9bceaab42c56efe51e8ffe41fd11cabefd9e2cb83700d8b2035e85858481811061136957611368613f1e565b5b905060200201602081019061137e919061350e565b60405161138b91906134c7565b60405180910390a28080600101915050611247565b505050505050565b606060098054905083106113f1576040517f08c379a00000000000000000000000000000000000000000000000000000000081526004016113e89061430f565b60405180910390fd5b6000829050600980549050818561140891906141fa565b1115611422578360098054905061141f919061432f565b90505b8067ffffffffffffffff81111561143c5761143b613eef565b5b60405190808252806020026020018201604052801561146a5781602001602082028036833780820191505090505b50915060005b8181101561151c576009818661148691906141fa565b8154811061149757611496613f1e565b5b9060005260206000200160009054906101000a900473ffffffffffffffffffffffffffffffffffffffff168382815181106114d5576114d4613f1e565b5b602002602001019073ffffffffffffffffffffffffffffffffffffffff16908173ffffffffffffffffffffffffffffffffffffffff16815250508080600101915050611470565b505092915050565b600260019054906101000a900460ff1681565b7fa49807205ce4d355092ef5a8a18f56e8913cf4a201fbe287825b095693c2177561156181612b1d565b81600860008573ffffffffffffffffffffffffffffffffffffffff1673ffffffffffffffffffffffffffffffffffffffff16815260200190815260200160002060006101000a81548160ff0219169083151502179055508273ffffffffffffffffffffffffffffffffffffffff167f995d2434d36c9bceaab42c56efe51e8ffe41fd11cabefd9e2cb83700d8b2035e836040516115fe91906134c7565b60405180910390a2505050565b60035481565b600260009054906101000a900460ff1681565b60065481565b600060606000600760008573ffffffffffffffffffffffffffffffffffffffff1673ffffffffffffffffffffffffffffffffffffffff16815260200190815260200160002090506000818054905067ffffffffffffffff81111561169157611690613eef565b5b6040519080825280602002602001820160405280156116bf5781602001602082028036833780820191505090505b50925060005b82805490508110156117c75760008382815481106116e6576116e5613f1e565b5b9060005260206000209060040201905060008160030160009054906101000a900460ff16158015611771575062ed4e00826001015461172591906141fa565b4210158061174157508160030160019054906101000a900460ff165b80611770575060028054906101000a900460ff16801561176f57508160030160029054906101000a900460ff165b5b5b905080156117b85781600001548761178991906141fa565b96508286858061179890614363565b9650815181106117ab576117aa613f1e565b5b6020026020010181815250505b505080806001019150506116c5565b508083525050915091565b6117da612b31565b600260009054906101000a900460ff161561182a576040517f08c379a000000000000000000000000000000000000000000000000000000000815260040161182190613ecf565b60405180910390fd5b611874828280806020026020016040519081016040528093929190818152602001838360200280828437600081840152601f19601f82011690508083019250505050505050612b77565b61187c613028565b5050565b7fa49807205ce4d355092ef5a8a18f56e8913cf4a201fbe287825b095693c2177581565b7f10dac8c06a04bec0b551627dad28bc00d6516b0caacd1c7b345fcdb5211334e481565b7fc806897caf4fd5068191157e44d3988e43139a37e0b97b6793e1ed11841406046118f281612b1d565b600260009054906101000a900460ff1615611942576040517f08c379a000000000000000000000000000000000000000000000000000000000815260040161193990613ecf565b60405180910390fd5b60005b83839050811015611b3c57600084848381811061196557611964613f1e565b5b905060200201359050600760008773ffffffffffffffffffffffffffffffffffffffff1673ffffffffffffffffffffffffffffffffffffffff1681526020019081526020016000208054905081106119f2576040517f08c379a00000000000000000000000000000000000000000000000000000000081526004016119e9906143f7565b60405180910390fd5b6000600760008873ffffffffffffffffffffffffffffffffffffffff1673ffffffffffffffffffffffffffffffffffffffff1681526020019081526020016000208281548110611a4557611a44613f1e565b5b906000526020600020906004020190508060030160009054906101000a900460ff16158015611a8357508060030160019054906101000a900460ff16155b611ac2576040517f08c379a0000000000000000000000000000000000000000000000000000000008152600401611ab990614463565b60405180910390fd5b60018160030160016101000a81548160ff0219169083151502179055508673ffffffffffffffffffffffffffffffffffffffff167fecb0219aa7bd617fe37e2c2bc56a11008c6133daf87510272c2b14b171f2d01a83604051611b2591906136b3565b60405180910390a250508080600101915050611945565b5050505050565b7fa49807205ce4d355092ef5a8a18f56e8913cf4a201fbe287825b095693c21775611b6d81612b1d565b611b75612b31565b600073ffffffffffffffffffffffffffffffffffffffff168373ffffffffffffffffffffffffffffffffffffffff1603611be4576040517f08c379a0000000000000000000000000000000000000000000000000000000008152600401611bdb90613f99565b60405180910390fd5b600654821115611c29576040517f08c379a0000000000000000000000000000000000000000000000000000000008152600401611c20906144cf565b60405180910390fd5b8160066000828254611c3b919061432f565b9250508190555060008373ffffffffffffffffffffffffffffffffffffffff1683604051611c6890614056565b60006040518083038185875af1925050503d8060008114611ca5576040519150601f19603f3d011682016040523d82523d6000602084013e611caa565b606091505b5050905080611cee576040517f08c379a0000000000000000000000000000000000000000000000000000000008152600401611ce5906140b7565b60405180910390fd5b8373ffffffffffffffffffffffffffffffffffffffff163373ffffffffffffffffffffffffffffffffffffffff167fa42a4a1652be46e2b44488aec0a260d6f641d4e01decddf6f2b2217922aec3a68542604051611d4d92919061453b565b60405180910390a350611d5e613028565b505050565b600080600084815260200190815260200160002060000160008373ffffffffffffffffffffffffffffffffffffffff1673ffffffffffffffffffffffffffffffffffffffff16815260200190815260200160002060009054906101000a900460ff16905092915050565b6000600654905090565b7fc806897caf4fd5068191157e44d3988e43139a37e0b97b6793e1ed1184140604611e0181612b1d565b600260009054906101000a900460ff1615611e51576040517f08c379a0000000000000000000000000000000000000000000000000000000008152600401611e4890613ecf565b60405180910390fd5b828290508585905014611e99576040517f08c379a0000000000000000000000000000000000000000000000000000000008152600401611e90906145c3565b60405180910390fd5b60005b85859050811015611f0957611efc868683818110611ebd57611ebc613f1e565b5b9050602002016020810190611ed29190613794565b858584818110611ee557611ee4613f1e565b5b9050602002810190611ef791906145f2565b6118c8565b8080600101915050611e9c565b503373ffffffffffffffffffffffffffffffffffffffff167fa1c93e37b8e644d8be9fc3e1b8b3a0cea82d2818f8214d4bfbfce5a49581705b86868686604051611f569493929190614881565b60405180910390a25050505050565b6000801b81565b60098181548110611f7c57600080fd5b906000526020600020016000915054906101000a900473ffffffffffffffffffffffffffffffffffffffff1681565b60608060608060606000600760008873ffffffffffffffffffffffffffffffffffffffff1673ffffffffffffffffffffffffffffffffffffffff16815260200190815260200160002090506000818054905090508067ffffffffffffffff81111561201957612018613eef565b5b6040519080825280602002602001820160405280156120475781602001602082028036833780820191505090505b5096508067ffffffffffffffff81111561206457612063613eef565b5b6040519080825280602002602001820160405280156120925781602001602082028036833780820191505090505b5095508067ffffffffffffffff8111156120af576120ae613eef565b5b6040519080825280602002602001820160405280156120dd5781602001602082028036833780820191505090505b5094508067ffffffffffffffff8111156120fa576120f9613eef565b5b6040519080825280602002602001820160405280156121285781602001602082028036833780820191505090505b5093508067ffffffffffffffff81111561214557612144613eef565b5b6040519080825280602002602001820160405280156121735781602001602082028036833780820191505090505b50925060005b818110156122a157600083828154811061219657612195613f1e565b5b9060005260206000209060040201905080600001548983815181106121be576121bd613f1e565b5b60200260200101818152505080600101548883815181106121e2576121e1613f1e565b5b6020026020010181815250508060030160009054906101000a900460ff1687838151811061221357612212613f1e565b5b6020026020010190151590811515815250508060030160019054906101000a900460ff1686838151811061224a57612249613f1e565b5b6020026020010190151590811515815250508060030160029054906101000a900460ff1685838151811061228157612280613f1e565b5b602002602001019015159081151581525050508080600101915050612179565b50505091939590929450565b6122b682610cd1565b6122bf81612b1d565b6122c9838361312a565b50505050565b7fa49807205ce4d355092ef5a8a18f56e8913cf4a201fbe287825b095693c217756122f981612b1d565b600260009054906101000a900460ff1615612349576040517f08c379a000000000000000000000000000000000000000000000000000000000815260040161234090613ecf565b60405180910390fd5b60028054906101000a900460ff1615612397576040517f08c379a000000000000000000000000000000000000000000000000000000000815260040161238e90614908565b60405180910390fd5b6302c7ea006123a4612949565b6123ae91906141fa565b421015806123d1575062ed4e006123c3612949565b6123cd91906141fa565b4210155b612410576040517f08c379a000000000000000000000000000000000000000000000000000000000815260040161240790614974565b60405180910390fd5b60016002806101000a81548160ff0219169083151502179055504260038190555061243961321c565b7f2388ceaed48d21bd0802856df41a22705f9046a67a817a047352aa3bbfe5c5d14260405161246891906136b3565b60405180910390a150565b7fc806897caf4fd5068191157e44d3988e43139a37e0b97b6793e1ed118414060481565b7f65d7a28e3265b37a6474929f336521b332c1681b933f6cb9f3376673440d862a81565b60006a0422ca8b0a00a42500000060045410156124f0576004546a0422ca8b0a00a4250000006124eb919061432f565b6124f3565b60005b905090565b62ed4e0081565b6000612509612b31565b600260009054906101000a900460ff1615612559576040517f08c379a000000000000000000000000000000000000000000000000000000000815260040161255090613ecf565b60405180910390fd5b600260019054906101000a900460ff16156125fb57600860008373ffffffffffffffffffffffffffffffffffffffff1673ffffffffffffffffffffffffffffffffffffffff16815260200190815260200160002060009054906101000a900460ff166125fa576040517f08c379a00000000000000000000000000000000000000000000000000000000081526004016125f1906149e0565b60405180910390fd5b5b6000341161263e576040517f08c379a0000000000000000000000000000000000000000000000000000000008152600401612635906141ab565b60405180910390fd5b6a0422ca8b0a00a4250000003460045461265891906141fa565b1115612699576040517f08c379a000000000000000000000000000000000000000000000000000000000815260040161269090614a4c565b60405180910390fd5b349050600760008373ffffffffffffffffffffffffffffffffffffffff1673ffffffffffffffffffffffffffffffffffffffff1681526020019081526020016000206040518060c0016040528034815260200142815260200183815260200160001515815260200160001515815260200160001515815250908060018154018082558091505060019003906000526020600020906004020160009091909190915060008201518160000155602082015181600101556040820151816002015560608201518160030160006101000a81548160ff02191690831515021790555060808201518160030160016101000a81548160ff02191690831515021790555060a08201518160030160026101000a81548160ff021916908315150217905550505034600460008282546127cc91906141fa565b9250508190555080600560008282546127e591906141fa565b925050819055506001600760008473ffffffffffffffffffffffffffffffffffffffff1673ffffffffffffffffffffffffffffffffffffffff168152602001908152602001600020805490500361289a576009829080600181540180825580915050600190039060005260206000200160009091909190916101000a81548173ffffffffffffffffffffffffffffffffffffffff021916908373ffffffffffffffffffffffffffffffffffffffff1602179055505b8173ffffffffffffffffffffffffffffffffffffffff167f063a06ec64608a50e5667df73dd241e8d3594fc77298deba02f4d78b858cc52e3483426001600760008973ffffffffffffffffffffffffffffffffffffffff1673ffffffffffffffffffffffffffffffffffffffff16815260200190815260200160002080549050612924919061432f565b6040516129349493929190614a6c565b60405180910390a2612944613028565b919050565b60007fffffffffffffffffffffffffffffffffffffffffffffffffffffffffffffffff905060005b600980549050811015612a7e576000600760006009848154811061299857612997613f1e565b5b9060005260206000200160009054906101000a900473ffffffffffffffffffffffffffffffffffffffff1673ffffffffffffffffffffffffffffffffffffffff1673ffffffffffffffffffffffffffffffffffffffff168152602001908152602001600020905060005b8180549050811015612a6f5783828281548110612a2257612a21613f1e565b5b9060005260206000209060040201600101541015612a6257818181548110612a4d57612a4c613f1e565b5b90600052602060002090600402016001015493505b8080600101915050612a02565b50508080600101915050612971565b507fffffffffffffffffffffffffffffffffffffffffffffffffffffffffffffffff8103612aaa574290505b90565b60045481565b60007f01ffc9a7000000000000000000000000000000000000000000000000000000007bffffffffffffffffffffffffffffffffffffffffffffffffffffffff1916827bffffffffffffffffffffffffffffffffffffffffffffffffffffffff1916149050919050565b612b2e81612b29613122565b61334f565b50565b600260015403612b6d576040517f3ee5aeb500000000000000000000000000000000000000000000000000000000815260040160405180910390fd5b6002600181905550565b60008060005b8351811015612ec9576000848281518110612b9b57612b9a613f1e565b5b60200260200101519050600760003373ffffffffffffffffffffffffffffffffffffffff1673ffffffffffffffffffffffffffffffffffffffff168152602001908152602001600020805490508110612c29576040517f08c379a0000000000000000000000000000000000000000000000000000000008152600401612c20906143f7565b60405180910390fd5b6000600760003373ffffffffffffffffffffffffffffffffffffffff1673ffffffffffffffffffffffffffffffffffffffff1681526020019081526020016000208281548110612c7c57612c7b613f1e565b5b906000526020600020906004020190508060030160009054906101000a900460ff1615612cde576040517f08c379a0000000000000000000000000000000000000000000000000000000008152600401612cd590614afd565b60405180910390fd5b600062ed4e008260010154612cf391906141fa565b42101580612d0f57508160030160019054906101000a900460ff165b80612d3e575060028054906101000a900460ff168015612d3d57508160030160029054906101000a900460ff165b5b905080612d80576040517f08c379a0000000000000000000000000000000000000000000000000000000008152600401612d7790614b69565b60405180910390fd5b600082600001549050600080600654118015612da0575060008460020154115b8015612dae57506000600554115b15612dee576005548460020154600654612dc89190614b89565b612dd29190614bfa565b90508060066000828254612de6919061432f565b925050819055505b60018460030160006101000a81548160ff0219169083151502179055508160046000828254612e1d919061432f565b92505081905550836002015460056000828254612e3a919061432f565b925050819055508188612e4d91906141fa565b97508087612e5b91906141fa565b96503373ffffffffffffffffffffffffffffffffffffffff167fb7ee00edafdb5db3a1b52a5789a6b562eb48268842d113dbfe860b6f86e5f59583838760020154428a604051612eaf959493929190614c2b565b60405180910390a250505050508080600101915050612b7d565b5060008183612ed891906141fa565b11612f18576040517f08c379a0000000000000000000000000000000000000000000000000000000008152600401612f0f90614cca565b60405180910390fd5b60003373ffffffffffffffffffffffffffffffffffffffff168284612f3d91906141fa565b604051612f4990614056565b60006040518083038185875af1925050503d8060008114612f86576040519150601f19603f3d011682016040523d82523d6000602084013e612f8b565b606091505b5050905080612fcf576040517f08c379a0000000000000000000000000000000000000000000000000000000008152600401612fc6906140b7565b60405180910390fd5b3373ffffffffffffffffffffffffffffffffffffffff167edeea64db396f60259ae2fd8bff7020ea68e8e86e8d36d50d37ab00402ad3a58585854260405161301a9493929190614cea565b60405180910390a250505050565b60018081905550565b600061303d8383611d63565b61311757600160008085815260200190815260200160002060000160008473ffffffffffffffffffffffffffffffffffffffff1673ffffffffffffffffffffffffffffffffffffffff16815260200190815260200160002060006101000a81548160ff0219169083151502179055506130b4613122565b73ffffffffffffffffffffffffffffffffffffffff168273ffffffffffffffffffffffffffffffffffffffff16847f2f8788117e7eff1d82e926ec794901d17c78024a50270940304540a733656f0d60405160405180910390a46001905061311c565b600090505b92915050565b600033905090565b60006131368383611d63565b1561321157600080600085815260200190815260200160002060000160008473ffffffffffffffffffffffffffffffffffffffff1673ffffffffffffffffffffffffffffffffffffffff16815260200190815260200160002060006101000a81548160ff0219169083151502179055506131ae613122565b73ffffffffffffffffffffffffffffffffffffffff168273ffffffffffffffffffffffffffffffffffffffff16847ff6391f5c32d9c69d2a47ea670b442974b53935d1edc7fd64eb21e047a839171b60405160405180910390a460019050613216565b600090505b92915050565b60005b60098054905081101561334c576000600760006009848154811061324657613245613f1e565b5b9060005260206000200160009054906101000a900473ffffffffffffffffffffffffffffffffffffffff1673ffffffffffffffffffffffffffffffffffffffff1673ffffffffffffffffffffffffffffffffffffffff168152602001908152602001600020905060005b818054905081101561333d578181815481106132cf576132ce613f1e565b5b906000526020600020906004020160030160009054906101000a900460ff1661333057600182828154811061330757613306613f1e565b5b906000526020600020906004020160030160026101000a81548160ff0219169083151502179055505b80806001019150506132b0565b5050808060010191505061321f565b50565b6133598282611d63565b61339c5780826040517fe2517d3f000000000000000000000000000000000000000000000000000000008152600401613393929190614d36565b60405180910390fd5b5050565b600082825260208201905092915050565b7f557365206465706f7369742f696e6a6563740000000000000000000000000000600082015250565b60006133e76012836133a0565b91506133f2826133b1565b602082019050919050565b60006020820190508181036000830152613416816133da565b9050919050565b600080fd5b600080fd5b60007fffffffff0000000000000000000000000000000000000000000000000000000082169050919050565b61345c81613427565b811461346757600080fd5b50565b60008135905061347981613453565b92915050565b6000602082840312156134955761349461341d565b5b60006134a38482850161346a565b91505092915050565b60008115159050919050565b6134c1816134ac565b82525050565b60006020820190506134dc60008301846134b8565b92915050565b6134eb816134ac565b81146134f657600080fd5b50565b600081359050613508816134e2565b92915050565b6000602082840312156135245761352361341d565b5b6000613532848285016134f9565b91505092915050565b600073ffffffffffffffffffffffffffffffffffffffff82169050919050565b60006135668261353b565b9050919050565b6135768161355b565b811461358157600080fd5b50565b6000813590506135938161356d565b92915050565b6000819050919050565b6135ac81613599565b81146135b757600080fd5b50565b6000813590506135c9816135a3565b92915050565b600080604083850312156135e6576135e561341d565b5b60006135f485828601613584565b9250506020613605858286016135ba565b9150509250929050565b61361881613599565b82525050565b600060c082019050613633600083018961360f565b613640602083018861360f565b61364d604083018761360f565b61365a60608301866134b8565b61366760808301856134b8565b61367460a08301846134b8565b979650505050505050565b6000819050919050565b6136928161367f565b82525050565b60006020820190506136ad6000830184613689565b92915050565b60006020820190506136c8600083018461360f565b92915050565b6136d78161367f565b81146136e257600080fd5b50565b6000813590506136f4816136ce565b92915050565b6000602082840312156137105761370f61341d565b5b600061371e848285016136e5565b91505092915050565b60006020828403121561373d5761373c61341d565b5b600061374b848285016135ba565b91505092915050565b6000806040838503121561376b5761376a61341d565b5b6000613779858286016136e5565b925050602061378a85828601613584565b9150509250929050565b6000602082840312156137aa576137a961341d565b5b60006137b884828501613584565b91505092915050565b600080fd5b600080fd5b600080fd5b60008083601f8401126137e6576137e56137c1565b5b8235905067ffffffffffffffff811115613803576138026137c6565b5b60208301915083602082028301111561381f5761381e6137cb565b5b9250929050565b60008083601f84011261383c5761383b6137c1565b5b8235905067ffffffffffffffff811115613859576138586137c6565b5b602083019150836020820283011115613875576138746137cb565b5b9250929050565b600080600080604085870312156138965761389561341d565b5b600085013567ffffffffffffffff8111156138b4576138b3613422565b5b6138c0878288016137d0565b9450945050602085013567ffffffffffffffff8111156138e3576138e2613422565b5b6138ef87828801613826565b925092505092959194509250565b600080604083850312156139145761391361341d565b5b6000613922858286016135ba565b9250506020613933858286016135ba565b9150509250929050565b600081519050919050565b600082825260208201905092915050565b6000819050602082019050919050565b6139728161355b565b82525050565b60006139848383613969565b60208301905092915050565b6000602082019050919050565b60006139a88261393d565b6139b28185613948565b93506139bd83613959565b8060005b838110156139ee5781516139d58882613978565b97506139e083613990565b9250506001810190506139c1565b5085935050505092915050565b60006020820190508181036000830152613a15818461399d565b905092915050565b60008060408385031215613a3457613a3361341d565b5b6000613a4285828601613584565b9250506020613a53858286016134f9565b9150509250929050565b600081519050919050565b600082825260208201905092915050565b6000819050602082019050919050565b613a9281613599565b82525050565b6000613aa48383613a89565b60208301905092915050565b6000602082019050919050565b6000613ac882613a5d565b613ad28185613a68565b9350613add83613a79565b8060005b83811015613b0e578151613af58882613a98565b9750613b0083613ab0565b925050600181019050613ae1565b5085935050505092915050565b6000604082019050613b30600083018561360f565b8181036020830152613b428184613abd565b90509392505050565b60008083601f840112613b6157613b606137c1565b5b8235905067ffffffffffffffff811115613b7e57613b7d6137c6565b5b602083019150836020820283011115613b9a57613b996137cb565b5b9250929050565b60008060208385031215613bb857613bb761341d565b5b600083013567ffffffffffffffff811115613bd657613bd5613422565b5b613be285828601613b4b565b92509250509250929050565b600080600060408486031215613c0757613c0661341d565b5b6000613c1586828701613584565b935050602084013567ffffffffffffffff811115613c3657613c35613422565b5b613c4286828701613b4b565b92509250509250925092565b60008083601f840112613c6457613c636137c1565b5b8235905067ffffffffffffffff811115613c8157613c806137c6565b5b602083019150836020820283011115613c9d57613c9c6137cb565b5b9250929050565b60008060008060408587031215613cbe57613cbd61341d565b5b600085013567ffffffffffffffff811115613cdc57613cdb613422565b5b613ce8878288016137d0565b9450945050602085013567ffffffffffffffff811115613d0b57613d0a613422565b5b613d1787828801613c4e565b925092505092959194509250565b613d2e8161355b565b82525050565b6000602082019050613d496000830184613d25565b92915050565b600081519050919050565b600082825260208201905092915050565b6000819050602082019050919050565b613d84816134ac565b82525050565b6000613d968383613d7b565b60208301905092915050565b6000602082019050919050565b6000613dba82613d4f565b613dc48185613d5a565b9350613dcf83613d6b565b8060005b83811015613e00578151613de78882613d8a565b9750613df283613da2565b925050600181019050613dd3565b5085935050505092915050565b600060a0820190508181036000830152613e278188613abd565b90508181036020830152613e3b8187613abd565b90508181036040830152613e4f8186613daf565b90508181036060830152613e638185613daf565b90508181036080830152613e778184613daf565b90509695505050505050565b7f5661756c74207061757365640000000000000000000000000000000000000000600082015250565b6000613eb9600c836133a0565b9150613ec482613e83565b602082019050919050565b60006020820190508181036000830152613ee881613eac565b9050919050565b7f4e487b7100000000000000000000000000000000000000000000000000000000600052604160045260246000fd5b7f4e487b7100000000000000000000000000000000000000000000000000000000600052603260045260246000fd5b7f496e76616c69642027746f270000000000000000000000000000000000000000600082015250565b6000613f83600c836133a0565b9150613f8e82613f4d565b602082019050919050565b60006020820190508181036000830152613fb281613f76565b9050919050565b7f4465706f736974732070656e64696e6700000000000000000000000000000000600082015250565b6000613fef6010836133a0565b9150613ffa82613fb9565b602082019050919050565b6000602082019050818103600083015261401e81613fe2565b9050919050565b600081905092915050565b50565b6000614040600083614025565b915061404b82614030565b600082019050919050565b600061406182614033565b9150819050919050565b7f455448207472616e73666572206661696c656400000000000000000000000000600082015250565b60006140a16013836133a0565b91506140ac8261406b565b602082019050919050565b600060208201905081810360008301526140d081614094565b9050919050565b7f656d657267656e63790000000000000000000000000000000000000000000000600082015250565b600061410d6009836133a0565b9150614118826140d7565b602082019050919050565b6000606082019050614138600083018561360f565b614145602083018461360f565b818103604083015261415681614100565b90509392505050565b7f4e6f204554482073656e74000000000000000000000000000000000000000000600082015250565b6000614195600b836133a0565b91506141a08261415f565b602082019050919050565b600060208201905081810360008301526141c481614188565b9050919050565b7f4e487b7100000000000000000000000000000000000000000000000000000000600052601160045260246000fd5b600061420582613599565b915061421083613599565b9250828201905080821115614228576142276141cb565b5b92915050565b6000604082019050614243600083018561360f565b614250602083018461360f565b9392505050565b7f4d69736d61746368000000000000000000000000000000000000000000000000600082015250565b600061428d6008836133a0565b915061429882614257565b602082019050919050565b600060208201905081810360008301526142bc81614280565b9050919050565b7f7374617274206f75740000000000000000000000000000000000000000000000600082015250565b60006142f96009836133a0565b9150614304826142c3565b602082019050919050565b60006020820190508181036000830152614328816142ec565b9050919050565b600061433a82613599565b915061434583613599565b925082820390508181111561435d5761435c6141cb565b5b92915050565b600061436e82613599565b91507fffffffffffffffffffffffffffffffffffffffffffffffffffffffffffffffff82036143a05761439f6141cb565b5b600182019050919050565b7f4465706f73697420646f6573206e6f7420657869737400000000000000000000600082015250565b60006143e16016836133a0565b91506143ec826143ab565b602082019050919050565b60006020820190508181036000830152614410816143d4565b9050919050565b7f416c726561647920756e6c6f636b65642f77697468647261776e000000000000600082015250565b600061444d601a836133a0565b915061445882614417565b602082019050919050565b6000602082019050818103600083015261447c81614440565b9050919050565b7f496e73756666696369656e74207574696c000000000000000000000000000000600082015250565b60006144b96011836133a0565b91506144c482614483565b602082019050919050565b600060208201905081810360008301526144e8816144ac565b9050919050565b7f7574696c69747900000000000000000000000000000000000000000000000000600082015250565b60006145256007836133a0565b9150614530826144ef565b602082019050919050565b6000606082019050614550600083018561360f565b61455d602083018461360f565b818103604083015261456e81614518565b90509392505050565b7f4172726179206d69736d61746368000000000000000000000000000000000000600082015250565b60006145ad600e836133a0565b91506145b882614577565b602082019050919050565b600060208201905081810360008301526145dc816145a0565b9050919050565b600080fd5b600080fd5b600080fd5b6000808335600160200384360303811261460f5761460e6145e3565b5b80840192508235915067ffffffffffffffff821115614631576146306145e8565b5b60208301925060208202360383131561464d5761464c6145ed565b5b509250929050565b6000819050919050565b600061466e6020840184613584565b905092915050565b6000602082019050919050565b600061468f8385613948565b935061469a82614655565b8060005b858110156146d3576146b0828461465f565b6146ba8882613978565b97506146c583614676565b92505060018101905061469e565b5085925050509392505050565b600082825260208201905092915050565b6000819050919050565b600082825260208201905092915050565b600080fd5b82818337505050565b600061472683856146fb565b93507f07ffffffffffffffffffffffffffffffffffffffffffffffffffffffffffffff8311156147595761475861470c565b5b60208302925061476a838584614711565b82840190509392505050565b600061478384848461471a565b90509392505050565b600080fd5b600080fd5b600080fd5b600080833560016020038436030381126147b8576147b7614796565b5b83810192508235915060208301925067ffffffffffffffff8211156147e0576147df61478c565b5b6020820236038313156147f6576147f5614791565b5b509250929050565b6000602082019050919050565b600061481783856146e0565b935083602084028501614829846146f1565b8060005b8781101561486f578484038952614844828461479b565b61484f868284614776565b955061485a846147fe565b935060208b019a50505060018101905061482d565b50829750879450505050509392505050565b6000604082019050818103600083015261489c818688614683565b905081810360208301526148b181848661480b565b905095945050505050565b7f416c726561647920656e61626c65640000000000000000000000000000000000600082015250565b60006148f2600f836133a0565b91506148fd826148bc565b602082019050919050565b60006020820190508181036000830152614921816148e5565b9050919050565b7f546f6f206561726c790000000000000000000000000000000000000000000000600082015250565b600061495e6009836133a0565b915061496982614928565b602082019050919050565b6000602082019050818103600083015261498d81614951565b9050919050565b7f4e6f742077686974656c69737465640000000000000000000000000000000000600082015250565b60006149ca600f836133a0565b91506149d582614994565b602082019050919050565b600060208201905081810360008301526149f9816149bd565b9050919050565b7f4361702072656163686564000000000000000000000000000000000000000000600082015250565b6000614a36600b836133a0565b9150614a4182614a00565b602082019050919050565b60006020820190508181036000830152614a6581614a29565b9050919050565b6000608082019050614a81600083018761360f565b614a8e602083018661360f565b614a9b604083018561360f565b614aa8606083018461360f565b95945050505050565b7f416c72656164792077697468647261776e000000000000000000000000000000600082015250565b6000614ae76011836133a0565b9150614af282614ab1565b602082019050919050565b60006020820190508181036000830152614b1681614ada565b9050919050565b7f4465706f736974206c6f636b6564000000000000000000000000000000000000600082015250565b6000614b53600e836133a0565b9150614b5e82614b1d565b602082019050919050565b60006020820190508181036000830152614b8281614b46565b9050919050565b6000614b9482613599565b9150614b9f83613599565b9250828202614bad81613599565b91508282048414831517614bc457614bc36141cb565b5b5092915050565b7f4e487b7100000000000000000000000000000000000000000000000000000000600052601260045260246000fd5b6000614c0582613599565b9150614c1083613599565b925082614c2057614c1f614bcb565b5b828204905092915050565b600060a082019050614c40600083018861360f565b614c4d602083018761360f565b614c5a604083018661360f565b614c67606083018561360f565b614c74608083018461360f565b9695505050505050565b7f4e6f7468696e6720746f20776974686472617700000000000000000000000000600082015250565b6000614cb46013836133a0565b9150614cbf82614c7e565b602082019050919050565b60006020820190508181036000830152614ce381614ca7565b9050919050565b60006080820190508181036000830152614d048187613abd565b9050614d13602083018661360f565b614d20604083018561360f565b614d2d606083018461360f565b95945050505050565b6000604082019050614d4b6000830185613d25565b614d586020830184613689565b939250505056fea26469706673582212203e1f6ceae7d08eaf198f7c85db6b17c87cbd250b02ae89de585a9e90d0937e7164736f6c63430008190033",
  "linkReferences": {},
  "deployedLinkReferences": {}
}