{
  "_format": "hh-sol-artifact-1",
  "contractName": "W2ELoom",
  "sourceName": "contracts/W2ELoom.sol",
  "abi": [
    {
      "inputs": [
        {
          "internalType": "address",
          "name": "_licenseNFT",
          "type": "address"
        },
        {
          "internalType": "address",
          "name": "_utilityToken",
          "type": "address"
        },
        {
          "internalType": "address",
          "name": "_treasuryAddress",
          "type": "address"
        },
        {
          "internalType": "address",
          "name": "_pandoraOracle",
          "type": "address"
        },
        {
          "internalType": "address",
          "name": "_platformFeeWallet",
          "type": "address"
        }
      ],
      "stateMutability": "nonpayable",
      "type": "constructor"
    },
    {
      "anonymous": false,
      "inputs": [
        {
          "indexed": true,
          "internalType": "address",
          "name": "triggeredBy",
          "type": "address"
        },
        {
          "indexed": false,
          "internalType": "bytes",
          "name": "data",
          "type": "bytes"
        }
      ],
      "name": "EmergencyTriggered",
      "type": "event"
    },
    {
      "anonymous": false,
      "inputs": [
        {
          "indexed": false,
          "internalType": "uint256",
          "name": "minQuorum",
          "type": "uint256"
        },
        {
          "indexed": false,
          "internalType": "uint256",
          "name": "votingPeriod",
          "type": "uint256"
        },
        {
          "indexed": false,
          "internalType": "uint256",
          "name": "emergencyPeriod",
          "type": "uint256"
        }
      ],
      "name": "GovernanceRulesUpdated",
      "type": "event"
    },
    {
      "anonymous": false,
      "inputs": [
        {
          "indexed": true,
          "internalType": "address",
          "name": "previousOwner",
          "type": "address"
        },
        {
          "indexed": true,
          "internalType": "address",
          "name": "newOwner",
          "type": "address"
        }
      ],
      "name": "OwnershipTransferred",
      "type": "event"
    },
    {
      "anonymous": false,
      "inputs": [
        {
          "indexed": true,
          "internalType": "address",
          "name": "worker",
          "type": "address"
        },
        {
          "indexed": false,
          "internalType": "uint256",
          "name": "commissionAmount",
          "type": "uint256"
        },
        {
          "indexed": false,
          "internalType": "uint256",
          "name": "platformFee",
          "type": "uint256"
        }
      ],
      "name": "SalesCommissionPaid",
      "type": "event"
    },
    {
      "anonymous": false,
      "inputs": [
        {
          "indexed": true,
          "internalType": "uint256",
          "name": "taskId",
          "type": "uint256"
        },
        {
          "indexed": false,
          "internalType": "enum W2ELoom.TaskType",
          "name": "taskType",
          "type": "uint8"
        },
        {
          "indexed": true,
          "internalType": "address",
          "name": "creator",
          "type": "address"
        },
        {
          "indexed": false,
          "internalType": "uint256",
          "name": "rewardAmount",
          "type": "uint256"
        },
        {
          "indexed": false,
          "internalType": "string",
          "name": "description",
          "type": "string"
        }
      ],
      "name": "TaskCreated",
      "type": "event"
    },
    {
      "anonymous": false,
      "inputs": [
        {
          "indexed": true,
          "internalType": "uint256",
          "name": "taskId",
          "type": "uint256"
        },
        {
          "indexed": false,
          "internalType": "enum W2ELoom.TaskStatus",
          "name": "status",
          "type": "uint8"
        },
        {
          "indexed": false,
          "internalType": "uint256",
          "name": "totalVotes",
          "type": "uint256"
        }
      ],
      "name": "TaskFinalized",
      "type": "event"
    },
    {
      "anonymous": false,
      "inputs": [
        {
          "indexed": true,
          "internalType": "uint256",
          "name": "taskId",
          "type": "uint256"
        },
        {
          "indexed": true,
          "internalType": "address",
          "name": "voter",
          "type": "address"
        },
        {
          "indexed": false,
          "internalType": "bool",
          "name": "vote",
          "type": "bool"
        },
        {
          "indexed": false,
          "internalType": "uint256",
          "name": "stakeAmount",
          "type": "uint256"
        }
      ],
      "name": "VoteCast",
      "type": "event"
    },
    {
      "inputs": [
        {
          "internalType": "uint256",
          "name": "taskId",
          "type": "uint256"
        }
      ],
      "name": "canFinalizeTask",
      "outputs": [
        {
          "internalType": "bool",
          "name": "",
          "type": "bool"
        }
      ],
      "stateMutability": "view",
      "type": "function"
    },
    {
      "inputs": [
        {
          "internalType": "uint256",
          "name": "amount",
          "type": "uint256"
        },
        {
          "internalType": "address payable",
          "name": "recipient",
          "type": "address"
        },
        {
          "internalType": "string",
          "name": "description",
          "type": "string"
        }
      ],
      "name": "createFundingTask",
      "outputs": [
        {
          "internalType": "uint256",
          "name": "",
          "type": "uint256"
        }
      ],
      "stateMutability": "nonpayable",
      "type": "function"
    },
    {
      "inputs": [
        {
          "internalType": "uint256",
          "name": "rewardAmount",
          "type": "uint256"
        },
        {
          "internalType": "uint256",
          "name": "requiredStake",
          "type": "uint256"
        },
        {
          "internalType": "string",
          "name": "description",
          "type": "string"
        }
      ],
      "name": "createValidationTask",
      "outputs": [
        {
          "internalType": "uint256",
          "name": "",
          "type": "uint256"
        }
      ],
      "stateMutability": "nonpayable",
      "type": "function"
    },
    {
      "inputs": [],
      "name": "emergencyInactivitySeconds",
      "outputs": [
        {
          "internalType": "uint256",
          "name": "",
          "type": "uint256"
        }
      ],
      "stateMutability": "view",
      "type": "function"
    },
    {
      "inputs": [
        {
          "internalType": "uint256",
          "name": "taskId",
          "type": "uint256"
        }
      ],
      "name": "finalizeTask",
      "outputs": [],
      "stateMutability": "nonpayable",
      "type": "function"
    },
    {
      "inputs": [],
      "name": "getParticipationMetrics",
      "outputs": [
        {
          "internalType": "uint256",
          "name": "totalTasks",
          "type": "uint256"
        },
        {
          "internalType": "uint256",
          "name": "activeTasks",
          "type": "uint256"
        },
        {
          "internalType": "uint256",
          "name": "totalVotes",
          "type": "uint256"
        }
      ],
      "stateMutability": "view",
      "type": "function"
    },
    {
      "inputs": [
        {
          "internalType": "uint256",
          "name": "taskId",
          "type": "uint256"
        }
      ],
      "name": "getTask",
      "outputs": [
        {
          "components": [
            {
              "internalType": "uint256",
              "name": "id",
              "type": "uint256"
            },
            {
              "internalType": "enum W2ELoom.TaskType",
              "name": "taskType",
              "type": "uint8"
            },
            {
              "internalType": "uint256",
              "name": "rewardAmount",
              "type": "uint256"
            },
            {
              "internalType": "uint256",
              "name": "requiredStake",
              "type": "uint256"
            },
            {
              "internalType": "uint256",
              "name": "startTime",
              "type": "uint256"
            },
            {
              "internalType": "uint256",
              "name": "approvalVotes",
              "type": "uint256"
            },
            {
              "internalType": "uint256",
              "name": "rejectionVotes",
              "type": "uint256"
            },
            {
              "internalType": "enum W2ELoom.TaskStatus",
              "name": "status",
              "type": "uint8"
            },
            {
              "internalType": "address payable",
              "name": "fundingRecipient",
              "type": "address"
            },
            {
              "internalType": "bytes32",
              "name": "offChainProof",
              "type": "bytes32"
            },
            {
              "internalType": "string",
              "name": "description",
              "type": "string"
            }
          ],
          "internalType": "struct W2ELoom.W2ETask",
          "name": "",
          "type": "tuple"
        }
      ],
      "stateMutability": "view",
      "type": "function"
    },
    {
      "inputs": [
        {
          "internalType": "uint256",
          "name": "taskId",
          "type": "uint256"
        },
        {
          "internalType": "address",
          "name": "voter",
          "type": "address"
        }
      ],
      "name": "getVote",
      "outputs": [
        {
          "components": [
            {
              "internalType": "bool",
              "name": "hasVoted",
              "type": "bool"
            },
            {
              "internalType": "bool",
              "name": "vote",
              "type": "bool"
            },
            {
              "internalType": "uint256",
              "name": "stakeAmount",
              "type": "uint256"
            },
            {
              "internalType": "uint256",
              "name": "voteTime",
              "type": "uint256"
            }
          ],
          "internalType": "struct W2ELoom.VoteInfo",
          "name": "",
          "type": "tuple"
        }
      ],
      "stateMutability": "view",
      "type": "function"
    },
    {
      "inputs": [
        {
          "internalType": "address",
          "name": "workerAddress",
          "type": "address"
        },
        {
          "internalType": "uint256",
          "name": "commissionAmount",
          "type": "uint256"
        }
      ],
      "name": "grantSalesCommission",
      "outputs": [],
      "stateMutability": "nonpayable",
      "type": "function"
    },
    {
      "inputs": [],
      "name": "lastTaskFinalizedTime",
      "outputs": [
        {
          "internalType": "uint256",
          "name": "",
          "type": "uint256"
        }
      ],
      "stateMutability": "view",
      "type": "function"
    },
    {
      "inputs": [],
      "name": "licenseNFT",
      "outputs": [
        {
          "internalType": "contract W2ELicense",
          "name": "",
          "type": "address"
        }
      ],
      "stateMutability": "view",
      "type": "function"
    },
    {
      "inputs": [],
      "name": "minQuorumPercentage",
      "outputs": [
        {
          "internalType": "uint256",
          "name": "",
          "type": "uint256"
        }
      ],
      "stateMutability": "view",
      "type": "function"
    },
    {
      "inputs": [],
      "name": "owner",
      "outputs": [
        {
          "internalType": "address",
          "name": "",
          "type": "address"
        }
      ],
      "stateMutability": "view",
      "type": "function"
    },
    {
      "inputs": [],
      "name": "pandoraOracle",
      "outputs": [
        {
          "internalType": "address",
          "name": "",
          "type": "address"
        }
      ],
      "stateMutability": "view",
      "type": "function"
    },
    {
      "inputs": [],
      "name": "platformFeeWallet",
      "outputs": [
        {
          "internalType": "address",
          "name": "",
          "type": "address"
        }
      ],
      "stateMutability": "view",
      "type": "function"
    },
    {
      "inputs": [],
      "name": "renounceOwnership",
      "outputs": [],
      "stateMutability": "nonpayable",
      "type": "function"
    },
    {
      "inputs": [
        {
          "internalType": "uint256",
          "name": "_minQuorum",
          "type": "uint256"
        },
        {
          "internalType": "uint256",
          "name": "_votingPeriod",
          "type": "uint256"
        },
        {
          "internalType": "uint256",
          "name": "_emergencyPeriod",
          "type": "uint256"
        }
      ],
      "name": "setGovernanceRules",
      "outputs": [],
      "stateMutability": "nonpayable",
      "type": "function"
    },
    {
      "inputs": [],
      "name": "taskCount",
      "outputs": [
        {
          "internalType": "uint256",
          "name": "",
          "type": "uint256"
        }
      ],
      "stateMutability": "view",
      "type": "function"
    },
    {
      "inputs": [
        {
          "internalType": "uint256",
          "name": "",
          "type": "uint256"
        },
        {
          "internalType": "address",
          "name": "",
          "type": "address"
        }
      ],
      "name": "taskVotes",
      "outputs": [
        {
          "internalType": "bool",
          "name": "hasVoted",
          "type": "bool"
        },
        {
          "internalType": "bool",
          "name": "vote",
          "type": "bool"
        },
        {
          "internalType": "uint256",
          "name": "stakeAmount",
          "type": "uint256"
        },
        {
          "internalType": "uint256",
          "name": "voteTime",
          "type": "uint256"
        }
      ],
      "stateMutability": "view",
      "type": "function"
    },
    {
      "inputs": [
        {
          "internalType": "uint256",
          "name": "",
          "type": "uint256"
        }
      ],
      "name": "tasks",
      "outputs": [
        {
          "internalType": "uint256",
          "name": "id",
          "type": "uint256"
        },
        {
          "internalType": "enum W2ELoom.TaskType",
          "name": "taskType",
          "type": "uint8"
        },
        {
          "internalType": "uint256",
          "name": "rewardAmount",
          "type": "uint256"
        },
        {
          "internalType": "uint256",
          "name": "requiredStake",
          "type": "uint256"
        },
        {
          "internalType": "uint256",
          "name": "startTime",
          "type": "uint256"
        },
        {
          "internalType": "uint256",
          "name": "approvalVotes",
          "type": "uint256"
        },
        {
          "internalType": "uint256",
          "name": "rejectionVotes",
          "type": "uint256"
        },
        {
          "internalType": "enum W2ELoom.TaskStatus",
          "name": "status",
          "type": "uint8"
        },
        {
          "internalType": "address payable",
          "name": "fundingRecipient",
          "type": "address"
        },
        {
          "internalType": "bytes32",
          "name": "offChainProof",
          "type": "bytes32"
        },
        {
          "internalType": "string",
          "name": "description",
          "type": "string"
        }
      ],
      "stateMutability": "view",
      "type": "function"
    },
    {
      "inputs": [
        {
          "internalType": "address",
          "name": "newOwner",
          "type": "address"
        }
      ],
      "name": "transferOwnership",
      "outputs": [],
      "stateMutability": "nonpayable",
      "type": "function"
    },
    {
      "inputs": [],
      "name": "treasuryAddress",
      "outputs": [
        {
          "internalType": "address",
          "name": "",
          "type": "address"
        }
      ],
      "stateMutability": "view",
      "type": "function"
    },
    {
      "inputs": [
        {
          "internalType": "bytes",
          "name": "data",
          "type": "bytes"
        }
      ],
      "name": "triggerEmergencyRelease",
      "outputs": [],
      "stateMutability": "nonpayable",
      "type": "function"
    },
    {
      "inputs": [],
      "name": "utilityToken",
      "outputs": [
        {
          "internalType": "contract IERC20",
          "name": "",
          "type": "address"
        }
      ],
      "stateMutability": "view",
      "type": "function"
    },
    {
      "inputs": [
        {
          "internalType": "uint256",
          "name": "taskId",
          "type": "uint256"
        },
        {
          "internalType": "bool",
          "name": "approve",
          "type": "bool"
        }
      ],
      "name": "voteOnTask",
      "outputs": [],
      "stateMutability": "nonpayable",
      "type": "function"
    },
    {
      "inputs": [],
      "name": "votingPeriodSeconds",
      "outputs": [
        {
          "internalType": "uint256",
          "name": "",
          "type": "uint256"
        }
      ],
      "stateMutability": "view",
      "type": "function"
    }
  ],
  "bytecode": "0x6080604052600a60075562093a806008556213c6806009553480156200002457600080fd5b5060405162002474380380620024748339810160408190526200004791620002f1565b620000523362000284565b600180556001600160a01b038516620000b25760405162461bcd60e51b815260206004820181905260248201527f5732453a20496e76616c6964206c6963656e7365204e4654206164647265737360448201526064015b60405180910390fd5b6001600160a01b038416620001155760405162461bcd60e51b815260206004820152602260248201527f5732453a20496e76616c6964207574696c69747920746f6b656e206164647265604482015261737360f01b6064820152608401620000a9565b6001600160a01b0383166200016d5760405162461bcd60e51b815260206004820152601d60248201527f5732453a20496e76616c696420747265617375727920616464726573730000006044820152606401620000a9565b6001600160a01b038216620001c55760405162461bcd60e51b815260206004820152601b60248201527f5732453a20496e76616c6964206f7261636c65206164647265737300000000006044820152606401620000a9565b6001600160a01b0381166200021d5760405162461bcd60e51b815260206004820152601c60248201527f5732453a20496e76616c696420706c6174666f726d2077616c6c6574000000006044820152606401620000a9565b600280546001600160a01b03199081166001600160a01b0397881617909155600380548216958716959095179094556004805485169386169390931790925560058054841691851691909117905560068054909216921691909117905542600d5562000361565b600080546001600160a01b038381166001600160a01b0319831681178455604051919092169283917f8be0079c531659141344cd1fd0a4f28419497f9722a3daafe3b4186f6b6457e09190a35050565b80516001600160a01b0381168114620002ec57600080fd5b919050565b600080600080600060a086880312156200030a57600080fd5b6200031586620002d4565b94506200032560208701620002d4565b93506200033560408701620002d4565b92506200034560608701620002d4565b91506200035560808701620002d4565b90509295509295909350565b61210380620003716000396000f3fe608060405234801561001057600080fd5b506004361061018e5760003560e01c80638a5cc496116100de578063bc3f931f11610097578063da68d47d11610071578063da68d47d1461039e578063de8f846c146103b1578063e20fc11814610419578063f2fde38b1461042c57600080fd5b8063bc3f931f14610338578063c5f956af14610382578063cb85fe351461039557600080fd5b80638a5cc496146102c55780638d977672146102ce5780638da5cb5b146102f8578063a07c3ef114610309578063ae86ed891461031c578063b6cb58a51461032f57600080fd5b806336ea0c921161014b578063601aca7b11610125578063601aca7b14610284578063715018a61461029757806378b38d2d1461029f57806388488c33146102b257600080fd5b806336ea0c921461023b5780634d784ac11461025e57806354e473c61461027157600080fd5b8063025f77cb146101935780630e92e674146101c357806314ec768f146101da5780631bc946de146101ef5780631d65e77e146101f8578063216743f114610218575b600080fd5b6005546101a6906001600160a01b031681565b6040516001600160a01b0390911681526020015b60405180910390f35b6101cc600d5481565b6040519081526020016101ba565b6101ed6101e8366004611a44565b61043f565b005b6101cc60075481565b61020b610206366004611a70565b61059a565b6040516101ba9190611b09565b610220610717565b604080519384526020840192909252908201526060016101ba565b61024e610249366004611a70565b6107a9565b60405190151581526020016101ba565b6101cc61026c366004611c18565b6108b9565b6101ed61027f366004611c74565b610b8f565b6101ed610292366004611ca9565b610e83565b6101ed610ff8565b6101ed6102ad366004611cd5565b61100c565b6101ed6102c0366004611a70565b6110b9565b6101cc60095481565b6102e16102dc366004611a70565b6112e4565b6040516101ba9b9a99989796959493929190611d17565b6000546001600160a01b03166101a6565b6101cc610317366004611d95565b6113d6565b6003546101a6906001600160a01b031681565b6101cc600c5481565b61034b610346366004611dd0565b611619565b6040516101ba9190815115158152602080830151151590820152604080830151908201526060918201519181019190915260800190565b6004546101a6906001600160a01b031681565b6101cc60085481565b6002546101a6906001600160a01b031681565b6103f76103bf366004611dd0565b600b60209081526000928352604080842090915290825290208054600182015460029092015460ff8083169361010090930416919084565b60408051941515855292151560208501529183015260608201526080016101ba565b6006546101a6906001600160a01b031681565b6101ed61043a366004611df5565b61169a565b610447611710565b600083118015610458575060648311155b61049f5760405162461bcd60e51b81526020600482015260136024820152725732453a20496e76616c69642071756f72756d60681b60448201526064015b60405180910390fd5b620151808210156104f25760405162461bcd60e51b815260206004820152601c60248201527f5732453a20566f74696e6720706572696f6420746f6f2073686f7274000000006044820152606401610496565b62093a808110156105455760405162461bcd60e51b815260206004820152601f60248201527f5732453a20456d657267656e637920706572696f6420746f6f2073686f7274006044820152606401610496565b60078390556008829055600981905560408051848152602081018490529081018290527f968d937680c1f7f833709125e5fe03f808947ae9cc8425608eca21a9b361ae479060600160405180910390a1505050565b6105a26119da565b6000828152600a602090815260409182902082516101608101909352805483526001810154909183019060ff1660038111156105e0576105e0611a89565b60038111156105f1576105f1611a89565b81526002820154602082015260038201546040820152600480830154606083015260058301546080830152600683015460a0830152600783015460c09092019160ff169081111561064457610644611a89565b600481111561065557610655611a89565b8152600782015461010090046001600160a01b031660208201526008820154604082015260098201805460609092019161068e90611e19565b80601f01602080910402602001604051908101604052809291908181526020018280546106ba90611e19565b80156107075780601f106106dc57610100808354040283529160200191610707565b820191906000526020600020905b8154815290600101906020018083116106ea57829003601f168201915b5050505050815250509050919050565b600c5460008060015b600c5481116107a3576000818152600a602052604081206007015460ff16600481111561074f5761074f611a89565b03610762578261075e81611e69565b9350505b6000818152600a6020526040902060068101546005909101546107859190611e82565b61078f9083611e82565b91508061079b81611e69565b915050610720565b50909192565b6000818152600a6020526040812081600782015460ff1660048111156107d1576107d1611a89565b146107df5750600092915050565b6000816006015482600501546107f59190611e82565b90506000600260009054906101000a90046001600160a01b03166001600160a01b031663a2309ff86040518163ffffffff1660e01b8152600401602060405180830381865afa15801561084c573d6000803e3d6000fd5b505050506040513d601f19601f820116820180604052508101906108709190611e95565b905060006064600754836108849190611eae565b61088e9190611ec5565b905080831015806108af575060085484600401546108ac9190611e82565b42115b9695505050505050565b60006108c3611710565b600085116109135760405162461bcd60e51b815260206004820152601c60248201527f5732453a20416d6f756e74206d75737420626520706f736974697665000000006044820152606401610496565b6001600160a01b0384166109625760405162461bcd60e51b815260206004820152601660248201527515cc914e88125b9d985b1a59081c9958da5c1a595b9d60521b6044820152606401610496565b600c805490600061097283611e69565b9091555050600c5460408051610160810190915281815260208101600281526020016000815260200168056bc75e2d6310000081526020014281526020016000815260200160008152602001600060048111156109d1576109d1611a89565b8152602001866001600160a01b03168152602001878787876040516020016109fc9493929190611ee7565b60405160208183030381529060405280519060200120815260200185858080601f0160208091040260200160405190810160405280939291908181526020018383808284376000920182905250939094525050838152600a60209081526040909120835181559083015160018083018054939450919260ff191690836003811115610a8957610a89611a89565b021790555060408201518160020155606082015181600301556080820151816004015560a0820151816005015560c0820151816006015560e08201518160070160006101000a81548160ff02191690836004811115610aea57610aea611a89565b021790555061010082810151600783018054610100600160a81b0319166001600160a01b0390921690920217905561012082015160088201556101408201516009820190610b389082611f7b565b50905050336001600160a01b0316817fc776fbd4d206dd3edc8ac9ca9129ed5cc454a4663161f6b97bfa8cae6918ad1f600260008888604051610b7e9493929190612064565b60405180910390a395945050505050565b6002546040516370a0823160e01b81523360048201526000916001600160a01b0316906370a0823190602401602060405180830381865afa158015610bd8573d6000803e3d6000fd5b505050506040513d601f19601f82011682018060405250810190610bfc9190611e95565b11610c415760405162461bcd60e51b815260206004820152601560248201527415cc914e88131a58d95b9cd9481c995c5d5a5c9959605a1b6044820152606401610496565b610c4961176a565b6000828152600a6020526040812090600782015460ff166004811115610c7157610c71611a89565b14610cb55760405162461bcd60e51b81526020600482015260146024820152735732453a205461736b206e6f742061637469766560601b6044820152606401610496565b6008548160040154610cc79190611e82565b421115610d165760405162461bcd60e51b815260206004820152601860248201527f5732453a20566f74696e6720706572696f6420656e64656400000000000000006044820152606401610496565b6000838152600b6020908152604080832033845290915290205460ff1615610d755760405162461bcd60e51b815260206004820152601260248201527115cc914e88105b1c9958591e481d9bdd195960721b6044820152606401610496565b6040805160808101825260018082528415801560208085019182526003870154858701908152426060870190815260008b8152600b84528881203382529093529690912094518554925161ffff1990931690151561ff001916176101009215159290920291909117845551918301919091559151600290910155610e0f57600581018054906000610e0583611e69565b9190505550610e27565b600681018054906000610e2183611e69565b91905055505b60038101546040805184151581526020810192909252339185917fcbdf6214089cba887ecbf35a0b6a734589959c9763342c756bb2a80ca2bc9f6e910160405180910390a3610e75836117c3565b50610e7f60018055565b5050565b6005546001600160a01b03163314610edd5760405162461bcd60e51b815260206004820152601760248201527f5732453a204e6f742050616e646f7261204f7261636c650000000000000000006044820152606401610496565b610ee561176a565b6001600160a01b038216610f3b5760405162461bcd60e51b815260206004820152601b60248201527f5732453a20496e76616c696420776f726b6572206164647265737300000000006044820152606401610496565b60008111610f8b5760405162461bcd60e51b815260206004820181905260248201527f5732453a20436f6d6d697373696f6e206d75737420626520706f7369746976656044820152606401610496565b6000610f98606483611ec5565b90506000610fa6828461208b565b60408051828152602081018590529192506001600160a01b038616917fd4aefb4b84804a4c139b1151ee766446b22cb5273adf0178e7575862bcc4a780910160405180910390a25050610e7f60018055565b611000611710565b61100a60006118cf565b565b611014611710565b600954600d546110249190611e82565b42116110725760405162461bcd60e51b815260206004820152601f60248201527f5732453a204e6f7420616e20656d657267656e637920736974756174696f6e006044820152606401610496565b336001600160a01b03167f19ad580ac4de783866d2548cc126e86b8bdabd95323ccebfa5e4018b6b160ac983836040516110ad92919061209e565b60405180910390a25050565b6110c161176a565b6000818152600a6020526040812090600782015460ff1660048111156110e9576110e9611a89565b1461112e5760405162461bcd60e51b81526020600482015260156024820152745732453a205461736b206e6f742070656e64696e6760581b6044820152606401610496565b6000816006015482600501546111449190611e82565b90506000600260009054906101000a90046001600160a01b03166001600160a01b031663a2309ff86040518163ffffffff1660e01b8152600401602060405180830381865afa15801561119b573d6000803e3d6000fd5b505050506040513d601f19601f820116820180604052508101906111bf9190611e95565b905060006064600754836111d39190611eae565b6111dd9190611ec5565b905060008184101580611200575060085485600401546111fd9190611e82565b42115b90508061124f5760405162461bcd60e51b815260206004820152601860248201527f5732453a2043616e6e6f742066696e616c697a652079657400000000000000006044820152606401610496565b84600601548560050154111561127c5760078501805460ff191660011790556112778561191f565b61128c565b60078501805460ff191660021790555b42600d55600785015460405187917fe706375806608dd57ef39176f88f78ca596a2ee8bdff66998ae082f0c1d11620916112cb9160ff169088906120b2565b60405180910390a250505050506112e160018055565b50565b600a60205260009081526040902080546001820154600283015460038401546004850154600586015460068701546007880154600889015460098a018054999a60ff998a169a989997989697959694958416946101009094046001600160a01b03169390919061135390611e19565b80601f016020809104026020016040519081016040528092919081815260200182805461137f90611e19565b80156113cc5780601f106113a1576101008083540402835291602001916113cc565b820191906000526020600020905b8154815290600101906020018083116113af57829003601f168201915b505050505090508b565b60006113e0611710565b600085116114305760405162461bcd60e51b815260206004820152601c60248201527f5732453a20526577617264206d75737420626520706f736974697665000000006044820152606401610496565b600c805490600061144083611e69565b9091555050600c54604080516101608101909152818152602081016000815260200187815260200186815260200142815260200160008152602001600081526020016000600481111561149557611495611a89565b815260200160006001600160a01b031681526020016000801b815260200185858080601f0160208091040260200160405190810160405280939291908181526020018383808284376000920182905250939094525050838152600a60209081526040909120835181559083015160018083018054939450919260ff19169083600381111561152557611525611a89565b021790555060408201518160020155606082015181600301556080820151816004015560a0820151816005015560c0820151816006015560e08201518160070160006101000a81548160ff0219169083600481111561158657611586611a89565b021790555061010082810151600783018054610100600160a81b0319166001600160a01b03909216909202179055610120820151600882015561014082015160098201906115d49082611f7b565b50905050336001600160a01b0316817fc776fbd4d206dd3edc8ac9ca9129ed5cc454a4663161f6b97bfa8cae6918ad1f6000898888604051610b7e9493929190612064565b6040805160808082018352600080835260208084018290528385018290526060938401829052868252600b81528482206001600160a01b038716835281529084902084519283018552805460ff8082161515855261010090910416151591830191909152600181015493820193909352600290920154908201525b92915050565b6116a2611710565b6001600160a01b0381166117075760405162461bcd60e51b815260206004820152602660248201527f4f776e61626c653a206e6577206f776e657220697320746865207a65726f206160448201526564647265737360d01b6064820152608401610496565b6112e1816118cf565b6000546001600160a01b0316331461100a5760405162461bcd60e51b815260206004820181905260248201527f4f776e61626c653a2063616c6c6572206973206e6f7420746865206f776e65726044820152606401610496565b6002600154036117bc5760405162461bcd60e51b815260206004820152601f60248201527f5265656e7472616e637947756172643a207265656e7472616e742063616c6c006044820152606401610496565b6002600155565b6000818152600a60205260408120600681015460058201549192916117e89190611e82565b90506000600260009054906101000a90046001600160a01b03166001600160a01b031663a2309ff86040518163ffffffff1660e01b8152600401602060405180830381865afa15801561183f573d6000803e3d6000fd5b505050506040513d601f19601f820116820180604052508101906118639190611e95565b905060006064600754836118779190611eae565b6118819190611ec5565b90506064611890836050611eae565b61189a9190611ec5565b83101580156118ba575060048401546118b6906202a300611e82565b4211155b156118c8576118c8856110b9565b5050505050565b600080546001600160a01b038381166001600160a01b0319831681178455604051919092169283917f8be0079c531659141344cd1fd0a4f28419497f9722a3daafe3b4186f6b6457e09190a35050565b6000600182015460ff16600381111561193a5761193a611a89565b14801561194b575060008160020154115b1561195b5780546112e19061199c565b6002600182015460ff16600381111561197657611976611a89565b1480156119945750600781015461010090046001600160a01b031615155b156112e15750565b6000818152600a602052604081206002810154600582015491929091908190036119c65750505050565b60006119d28284611ec5565b505050505050565b604080516101608101909152600080825260208201908152602001600081526020016000815260200160008152602001600081526020016000815260200160006004811115611a2b57611a2b611a89565b8152600060208201819052604082015260609081015290565b600080600060608486031215611a5957600080fd5b505081359360208301359350604090920135919050565b600060208284031215611a8257600080fd5b5035919050565b634e487b7160e01b600052602160045260246000fd5b60048110611aaf57611aaf611a89565b9052565b60058110611aaf57611aaf611a89565b6000815180845260005b81811015611ae957602081850181015186830182015201611acd565b506000602082860101526020601f19601f83011685010191505092915050565b602081528151602082015260006020830151611b286040840182611a9f565b506040830151606083015260608301516080830152608083015160a083015260a083015160c083015260c083015160e083015260e0830151610100611b6f81850183611ab3565b8401519050610120611b8b848201836001600160a01b03169052565b84015161014084810191909152840151610160808501529050611bb2610180840182611ac3565b949350505050565b6001600160a01b03811681146112e157600080fd5b60008083601f840112611be157600080fd5b50813567ffffffffffffffff811115611bf957600080fd5b602083019150836020828501011115611c1157600080fd5b9250929050565b60008060008060608587031215611c2e57600080fd5b843593506020850135611c4081611bba565b9250604085013567ffffffffffffffff811115611c5c57600080fd5b611c6887828801611bcf565b95989497509550505050565b60008060408385031215611c8757600080fd5b8235915060208301358015158114611c9e57600080fd5b809150509250929050565b60008060408385031215611cbc57600080fd5b8235611cc781611bba565b946020939093013593505050565b60008060208385031215611ce857600080fd5b823567ffffffffffffffff811115611cff57600080fd5b611d0b85828601611bcf565b90969095509350505050565b60006101608d8352611d2c602084018e611a9f565b8b60408401528a60608401528960808401528860a08401528760c0840152611d5760e0840188611ab3565b6001600160a01b03861661010084015261012083018590526101408301819052611d8381840185611ac3565b9e9d5050505050505050505050505050565b60008060008060608587031215611dab57600080fd5b8435935060208501359250604085013567ffffffffffffffff811115611c5c57600080fd5b60008060408385031215611de357600080fd5b823591506020830135611c9e81611bba565b600060208284031215611e0757600080fd5b8135611e1281611bba565b9392505050565b600181811c90821680611e2d57607f821691505b602082108103611e4d57634e487b7160e01b600052602260045260246000fd5b50919050565b634e487b7160e01b600052601160045260246000fd5b600060018201611e7b57611e7b611e53565b5060010190565b8082018082111561169457611694611e53565b600060208284031215611ea757600080fd5b5051919050565b808202811582820484141761169457611694611e53565b600082611ee257634e487b7160e01b600052601260045260246000fd5b500490565b8481526bffffffffffffffffffffffff198460601b16602082015281836034830137600091016034019081529392505050565b634e487b7160e01b600052604160045260246000fd5b601f821115611f7657600081815260208120601f850160051c81016020861015611f575750805b601f850160051c820191505b818110156119d257828155600101611f63565b505050565b815167ffffffffffffffff811115611f9557611f95611f1a565b611fa981611fa38454611e19565b84611f30565b602080601f831160018114611fde5760008415611fc65750858301515b600019600386901b1c1916600185901b1785556119d2565b600085815260208120601f198616915b8281101561200d57888601518255948401946001909101908401611fee565b508582101561202b5787850151600019600388901b60f8161c191681555b5050505050600190811b01905550565b81835281816020850137506000828201602090810191909152601f909101601f19169091010190565b61206e8186611a9f565b8360208201526060604082015260006108af60608301848661203b565b8181038181111561169457611694611e53565b602081526000611bb260208301848661203b565b604081016120c08285611ab3565b826020830152939250505056fea26469706673582212203cbf1e4216b6130e73af2062b4f2924c6169e1920bde7096e61284facfa96cd764736f6c63430008140033",
  "linkReferences": {},
  "deployedLinkReferences": {}
}