{
  "_format": "hh-sol-artifact-1",
  "contractName": "W2EGovernor",
  "sourceName": "contracts/W2EGovernor.sol",
  "abi": [
    {
      "inputs": [
        {
          "internalType": "address",
          "name": "_licenseToken",
          "type": "address"
        },
        {
          "internalType": "address",
          "name": "_w2eLoomAddress",
          "type": "address"
        },
        {
          "internalType": "address",
          "name": "initialOwner",
          "type": "address"
        }
      ],
      "stateMutability": "nonpayable",
      "type": "constructor"
    },
    {
      "anonymous": false,
      "inputs": [
        {
          "indexed": true,
          "internalType": "address",
          "name": "previousOwner",
          "type": "address"
        },
        {
          "indexed": true,
          "internalType": "address",
          "name": "newOwner",
          "type": "address"
        }
      ],
      "name": "OwnershipTransferred",
      "type": "event"
    },
    {
      "anonymous": false,
      "inputs": [
        {
          "indexed": true,
          "internalType": "uint256",
          "name": "proposalId",
          "type": "uint256"
        },
        {
          "indexed": true,
          "internalType": "address",
          "name": "proposer",
          "type": "address"
        },
        {
          "indexed": false,
          "internalType": "string",
          "name": "description",
          "type": "string"
        },
        {
          "indexed": false,
          "internalType": "enum W2EGovernor.ProposalType",
          "name": "proposalType",
          "type": "uint8"
        }
      ],
      "name": "ProposalCreated",
      "type": "event"
    },
    {
      "anonymous": false,
      "inputs": [
        {
          "indexed": true,
          "internalType": "uint256",
          "name": "proposalId",
          "type": "uint256"
        }
      ],
      "name": "ProposalExecuted",
      "type": "event"
    },
    {
      "anonymous": false,
      "inputs": [
        {
          "indexed": true,
          "internalType": "uint256",
          "name": "proposalId",
          "type": "uint256"
        },
        {
          "indexed": true,
          "internalType": "address",
          "name": "voter",
          "type": "address"
        },
        {
          "indexed": false,
          "internalType": "bool",
          "name": "support",
          "type": "bool"
        },
        {
          "indexed": false,
          "internalType": "uint256",
          "name": "weight",
          "type": "uint256"
        }
      ],
      "name": "VoteCast",
      "type": "event"
    },
    {
      "inputs": [
        {
          "internalType": "uint256",
          "name": "proposalId",
          "type": "uint256"
        }
      ],
      "name": "canExecute",
      "outputs": [
        {
          "internalType": "bool",
          "name": "",
          "type": "bool"
        }
      ],
      "stateMutability": "view",
      "type": "function"
    },
    {
      "inputs": [
        {
          "internalType": "uint256",
          "name": "proposalId",
          "type": "uint256"
        }
      ],
      "name": "execute",
      "outputs": [],
      "stateMutability": "nonpayable",
      "type": "function"
    },
    {
      "inputs": [],
      "name": "executionDelay",
      "outputs": [
        {
          "internalType": "uint256",
          "name": "",
          "type": "uint256"
        }
      ],
      "stateMutability": "view",
      "type": "function"
    },
    {
      "inputs": [],
      "name": "getGovernanceMetrics",
      "outputs": [
        {
          "internalType": "uint256",
          "name": "totalProposals",
          "type": "uint256"
        },
        {
          "internalType": "uint256",
          "name": "activeProposals",
          "type": "uint256"
        }
      ],
      "stateMutability": "view",
      "type": "function"
    },
    {
      "inputs": [
        {
          "internalType": "uint256",
          "name": "proposalId",
          "type": "uint256"
        }
      ],
      "name": "getProposalState",
      "outputs": [
        {
          "internalType": "enum W2EGovernor.ProposalState",
          "name": "",
          "type": "uint8"
        }
      ],
      "stateMutability": "view",
      "type": "function"
    },
    {
      "inputs": [],
      "name": "licenseToken",
      "outputs": [
        {
          "internalType": "contract W2ELicense",
          "name": "",
          "type": "address"
        }
      ],
      "stateMutability": "view",
      "type": "function"
    },
    {
      "inputs": [],
      "name": "owner",
      "outputs": [
        {
          "internalType": "address",
          "name": "",
          "type": "address"
        }
      ],
      "stateMutability": "view",
      "type": "function"
    },
    {
      "inputs": [],
      "name": "proposalCount",
      "outputs": [
        {
          "internalType": "uint256",
          "name": "",
          "type": "uint256"
        }
      ],
      "stateMutability": "view",
      "type": "function"
    },
    {
      "inputs": [
        {
          "internalType": "uint256",
          "name": "",
          "type": "uint256"
        }
      ],
      "name": "proposals",
      "outputs": [
        {
          "internalType": "uint256",
          "name": "id",
          "type": "uint256"
        },
        {
          "internalType": "address",
          "name": "proposer",
          "type": "address"
        },
        {
          "internalType": "string",
          "name": "description",
          "type": "string"
        },
        {
          "internalType": "uint256",
          "name": "startTime",
          "type": "uint256"
        },
        {
          "internalType": "uint256",
          "name": "endTime",
          "type": "uint256"
        },
        {
          "internalType": "uint256",
          "name": "forVotes",
          "type": "uint256"
        },
        {
          "internalType": "uint256",
          "name": "againstVotes",
          "type": "uint256"
        },
        {
          "internalType": "enum W2EGovernor.ProposalState",
          "name": "state",
          "type": "uint8"
        },
        {
          "internalType": "enum W2EGovernor.ProposalType",
          "name": "proposalType",
          "type": "uint8"
        },
        {
          "internalType": "bool",
          "name": "executed",
          "type": "bool"
        }
      ],
      "stateMutability": "view",
      "type": "function"
    },
    {
      "inputs": [
        {
          "internalType": "address[]",
          "name": "targets",
          "type": "address[]"
        },
        {
          "internalType": "uint256[]",
          "name": "values",
          "type": "uint256[]"
        },
        {
          "internalType": "bytes[]",
          "name": "calldatas",
          "type": "bytes[]"
        },
        {
          "internalType": "string",
          "name": "description",
          "type": "string"
        }
      ],
      "name": "propose",
      "outputs": [
        {
          "internalType": "uint256",
          "name": "",
          "type": "uint256"
        }
      ],
      "stateMutability": "nonpayable",
      "type": "function"
    },
    {
      "inputs": [
        {
          "internalType": "address payable",
          "name": "recipient",
          "type": "address"
        },
        {
          "internalType": "uint256",
          "name": "amount",
          "type": "uint256"
        },
        {
          "internalType": "string",
          "name": "description",
          "type": "string"
        }
      ],
      "name": "proposeFundingRelease",
      "outputs": [
        {
          "internalType": "uint256",
          "name": "",
          "type": "uint256"
        }
      ],
      "stateMutability": "nonpayable",
      "type": "function"
    },
    {
      "inputs": [],
      "name": "quorumPercentage",
      "outputs": [
        {
          "internalType": "uint256",
          "name": "",
          "type": "uint256"
        }
      ],
      "stateMutability": "view",
      "type": "function"
    },
    {
      "inputs": [],
      "name": "renounceOwnership",
      "outputs": [],
      "stateMutability": "nonpayable",
      "type": "function"
    },
    {
      "inputs": [
        {
          "internalType": "uint256",
          "name": "newQuorum",
          "type": "uint256"
        }
      ],
      "name": "setQuorumPercentage",
      "outputs": [],
      "stateMutability": "nonpayable",
      "type": "function"
    },
    {
      "inputs": [
        {
          "internalType": "uint256",
          "name": "newPeriod",
          "type": "uint256"
        }
      ],
      "name": "setVotingPeriod",
      "outputs": [],
      "stateMutability": "nonpayable",
      "type": "function"
    },
    {
      "inputs": [
        {
          "internalType": "address",
          "name": "newOwner",
          "type": "address"
        }
      ],
      "name": "transferOwnership",
      "outputs": [],
      "stateMutability": "nonpayable",
      "type": "function"
    },
    {
      "inputs": [
        {
          "internalType": "uint256",
          "name": "proposalId",
          "type": "uint256"
        },
        {
          "internalType": "bool",
          "name": "support",
          "type": "bool"
        }
      ],
      "name": "vote",
      "outputs": [],
      "stateMutability": "nonpayable",
      "type": "function"
    },
    {
      "inputs": [
        {
          "internalType": "uint256",
          "name": "",
          "type": "uint256"
        },
        {
          "internalType": "address",
          "name": "",
          "type": "address"
        }
      ],
      "name": "votes",
      "outputs": [
        {
          "internalType": "bool",
          "name": "hasVoted",
          "type": "bool"
        },
        {
          "internalType": "bool",
          "name": "support",
          "type": "bool"
        },
        {
          "internalType": "uint256",
          "name": "weight",
          "type": "uint256"
        }
      ],
      "stateMutability": "view",
      "type": "function"
    },
    {
      "inputs": [],
      "name": "votingPeriod",
      "outputs": [
        {
          "internalType": "uint256",
          "name": "",
          "type": "uint256"
        }
      ],
      "stateMutability": "view",
      "type": "function"
    },
    {
      "inputs": [],
      "name": "w2eLoomAddress",
      "outputs": [
        {
          "internalType": "address",
          "name": "",
          "type": "address"
        }
      ],
      "stateMutability": "view",
      "type": "function"
    }
  ],
  "bytecode": "0x6080604052600a60045562093a80600555610e106006553480156200002357600080fd5b5060405162001f4738038062001f478339810160408190526200004691620001a9565b62000051336200013c565b600180556001600160a01b038316620000b15760405162461bcd60e51b815260206004820152601a60248201527f5732453a20496e76616c6964206c6963656e736520746f6b656e00000000000060448201526064015b60405180910390fd5b6001600160a01b038216620001095760405162461bcd60e51b815260206004820152601960248201527f5732453a20496e76616c6964206c6f6f6d2061646472657373000000000000006044820152606401620000a8565b50600280546001600160a01b039384166001600160a01b03199182161790915560038054929093169116179055620001f3565b600080546001600160a01b038381166001600160a01b0319831681178455604051919092169283917f8be0079c531659141344cd1fd0a4f28419497f9722a3daafe3b4186f6b6457e09190a35050565b80516001600160a01b0381168114620001a457600080fd5b919050565b600080600060608486031215620001bf57600080fd5b620001ca846200018c565b9250620001da602085016200018c565b9150620001ea604085016200018c565b90509250925092565b611d4480620002036000396000f3fe608060405234801561001057600080fd5b506004361061012c5760003560e01c80638da5cb5b116100ad578063d23254b411610071578063d23254b4146102a4578063da35c66414610300578063ea0217cf14610309578063f2fde38b1461031c578063fe0d94c11461032f57600080fd5b80638da5cb5b146102175780639080936f146102285780639e05220d1461025b578063c9d27afe1461026e578063cc63604a1461028157600080fd5b806351ec5382116100f457806351ec5382146101b55780636238099a146101e0578063715018a6146101f35780637d5e81e2146101fb5780638b2579891461020e57600080fd5b8063013cf08b1461013157806302a251a314610163578063261f8a171461017a57806332f6a1dc146101975780634fa76ec9146101ac575b600080fd5b61014461013f366004611557565b610342565b60405161015a9a999897969594939291906115f0565b60405180910390f35b61016c60055481565b60405190815260200161015a565b61018261042c565b6040805192835260208301919091520161015a565b6101aa6101a5366004611557565b6104be565b005b61016c60045481565b6002546101c8906001600160a01b031681565b6040516001600160a01b03909116815260200161015a565b61016c6101ee36600461173d565b610523565b6101aa610736565b61016c6102093660046118ba565b61074a565b61016c60065481565b6000546001600160a01b03166101c8565b61024e610236366004611557565b6000908152600760205260409020600a015460ff1690565b60405161015a91906119c5565b6003546101c8906001600160a01b031681565b6101aa61027c3660046119d9565b610a29565b61029461028f366004611557565b610d93565b604051901515815260200161015a565b6102e36102b2366004611a0e565b60086020908152600092835260408084209091529082529020805460019091015460ff808316926101009004169083565b60408051931515845291151560208401529082015260600161015a565b61016c60095481565b6101aa610317366004611557565b610e9e565b6101aa61032a366004611a33565b610f03565b6101aa61033d366004611557565b610f7c565b60076020526000908152604090208054600182015460058301805492936001600160a01b039092169261037490611a50565b80601f01602080910402602001604051908101604052809291908181526020018280546103a090611a50565b80156103ed5780601f106103c2576101008083540402835291602001916103ed565b820191906000526020600020905b8154815290600101906020018083116103d057829003601f168201915b5050506006840154600785015460088601546009870154600a9097015495969295919450925060ff80821691610100810482169162010000909104168a565b600954600060015b60095481116104b9576000818152600760205260408120600a015460ff166004811115610463576104636115b6565b1480610494575060016000828152600760205260409020600a015460ff166004811115610492576104926115b6565b145b156104a757816104a381611aa0565b9250505b806104b181611aa0565b915050610434565b509091565b6104c66112f6565b6000811180156104d7575060648111155b61051e5760405162461bcd60e51b81526020600482015260136024820152725732453a20496e76616c69642071756f72756d60681b60448201526064015b60405180910390fd5b600455565b60006001600160a01b0384166105745760405162461bcd60e51b815260206004820152601660248201527515cc914e88125b9d985b1a59081c9958da5c1a595b9d60521b6044820152606401610515565b600083116105c45760405162461bcd60e51b815260206004820152601c60248201527f5732453a20416d6f756e74206d75737420626520706f736974697665000000006044820152606401610515565b60008385846040516024016105db93929190611ab9565b60408051601f19818403018152918152602080830180516001600160e01b0316634d784ac160e01b1790528151600180825281840190935292935060009291908281019080368337505060408051600180825281830190925292935060009291506020808301908036833750506040805160018082528183019092529293506000929150602082015b606081526020019060019003908161066457505060035484519192506001600160a01b031690849060009061069b5761069b611aec565b60200260200101906001600160a01b031690816001600160a01b0316815250506000826000815181106106d0576106d0611aec565b60200260200101818152505083816000815181106106f0576106f0611aec565b602002602001018190525060006107098484848a61074a565b6000818152600760205260409020600a01805461ff001916610100179055955050505050505b9392505050565b61073e6112f6565b6107486000611350565b565b60008351855114801561075e575082518451145b6107a25760405162461bcd60e51b815260206004820152601560248201527415cc914e88125b9d985b1a59081c1c9bdc1bdcd85b605a1b6044820152606401610515565b60008551116107e95760405162461bcd60e51b815260206004820152601360248201527215cc914e88115b5c1d1e481c1c9bdc1bdcd85b606a1b6044820152606401610515565b600980549060006107f983611aa0565b919050555060006009549050604051806101a00160405280828152602001336001600160a01b031681526020018781526020018681526020018581526020018481526020016006544261084c9190611b02565b8152602001600554600654426108629190611b02565b61086c9190611b02565b8152602001600081526020016000815260200160006004811115610892576108926115b6565b8152600060208083018290526040928301829052848252600781529082902083518155838201516001820180546001600160a01b0319166001600160a01b039092169190911790559183015180516108f092600285019201906113f9565b506060820151805161090c91600384019160209091019061145e565b5060808201518051610928916004840191602090910190611499565b5060a0820151600582019061093d9082611b64565b5060c0820151600682015560e0820151600782015561010082015160088201556101208201516009820155610140820151600a8201805460ff1916600183600481111561098c5761098c6115b6565b0217905550610160820151600a8201805461ff0019166101008360038111156109b7576109b76115b6565b02179055506101809190910151600a9091018054911515620100000262ff000019909216919091179055604051339082907fe0269f7953e70365e80e614e4efe7d4bede59b7f5ad80982ea4064c97ee6f4ef90610a18908790600090611c24565b60405180910390a395945050505050565b610a316113a0565b600082815260076020526040812090600a82015460ff166004811115610a5957610a596115b6565b1480610a7d57506001600a82015460ff166004811115610a7b57610a7b6115b6565b145b610ac95760405162461bcd60e51b815260206004820152601860248201527f5732453a2050726f706f73616c206e6f742061637469766500000000000000006044820152606401610515565b8060060154421015610b1d5760405162461bcd60e51b815260206004820152601760248201527f5732453a20566f74696e67206e6f7420737461727465640000000000000000006044820152606401610515565b8060070154421115610b655760405162461bcd60e51b815260206004820152601160248201527015cc914e88159bdd1a5b99c8195b991959607a1b6044820152606401610515565b600083815260086020908152604080832033845290915290205460ff1615610bc45760405162461bcd60e51b815260206004820152601260248201527115cc914e88105b1c9958591e481d9bdd195960721b6044820152606401610515565b6002546040516309ab24eb60e41b81523360048201526000916001600160a01b031690639ab24eb090602401602060405180830381865afa158015610c0d573d6000803e3d6000fd5b505050506040513d601f19601f82011682018060405250810190610c319190611c46565b905060008111610c7a5760405162461bcd60e51b81526020600482015260146024820152732b99229d102737903b37ba34b733903837bbb2b960611b6044820152606401610515565b60408051606081018252600180825285158015602080850191825284860187815260008b81526008835287812033825290925295902093518454915161ffff1990921690151561ff00191617610100911515919091021783559251910155610cfb5780826008016000828254610cf09190611b02565b90915550610d159050565b80826009016000828254610d0f9190611b02565b90915550505b6000600a83015460ff166004811115610d3057610d306115b6565b03610d4557600a8201805460ff191660011790555b60408051841515815260208101839052339186917fcbdf6214089cba887ecbf35a0b6a734589959c9763342c756bb2a80ca2bc9f6e910160405180910390a35050610d8f60018055565b5050565b6000818152600760205260408120600a81015462010000900460ff1680610dbe575080600701544211155b15610dcc5750600092915050565b600081600901548260080154610de29190611b02565b90506000600260009054906101000a90046001600160a01b03166001600160a01b031663a2309ff86040518163ffffffff1660e01b8152600401602060405180830381865afa158015610e39573d6000803e3d6000fd5b505050506040513d601f19601f82011682018060405250810190610e5d9190611c46565b90506000606460045483610e719190611c5f565b610e7b9190611c76565b9050808310158015610e94575083600901548460080154115b9695505050505050565b610ea66112f6565b620151808110158015610ebc575062278d008111155b610efe5760405162461bcd60e51b815260206004820152601360248201527215cc914e88125b9d985b1a59081c195c9a5bd9606a1b6044820152606401610515565b600555565b610f0b6112f6565b6001600160a01b038116610f705760405162461bcd60e51b815260206004820152602660248201527f4f776e61626c653a206e6577206f776e657220697320746865207a65726f206160448201526564647265737360d01b6064820152608401610515565b610f7981611350565b50565b610f846113a0565b6000818152600760205260409020600a81015462010000900460ff1615610fe55760405162461bcd60e51b815260206004820152601560248201527415cc914e88105b1c9958591e48195e1958dd5d1959605a1b6044820152606401610515565b806007015442116110305760405162461bcd60e51b815260206004820152601560248201527415cc914e88159bdd1a5b99c81b9bdd08195b991959605a1b6044820152606401610515565b6000816009015482600801546110469190611b02565b90506000600260009054906101000a90046001600160a01b03166001600160a01b031663a2309ff86040518163ffffffff1660e01b8152600401602060405180830381865afa15801561109d573d6000803e3d6000fd5b505050506040513d601f19601f820116820180604052508101906110c19190611c46565b905060006064600454836110d59190611c5f565b6110df9190611c76565b9050808310156111315760405162461bcd60e51b815260206004820152601760248201527f5732453a2051756f72756d206e6f7420726561636865640000000000000000006044820152606401610515565b83600901548460080154116111815760405162461bcd60e51b815260206004820152601660248201527515cc914e88141c9bdc1bdcd85b0819195999585d195960521b6044820152606401610515565b60005b60028501548110156112aa5760008560020182815481106111a7576111a7611aec565b6000918252602090912001546003870180546001600160a01b0390921691849081106111d5576111d5611aec565b90600052602060002001548760040184815481106111f5576111f5611aec565b9060005260206000200160405161120c9190611c98565b60006040518083038185875af1925050503d8060008114611249576040519150601f19603f3d011682016040523d82523d6000602084013e61124e565b606091505b50509050806112975760405162461bcd60e51b815260206004820152601560248201527415cc914e88115e1958dd5d1a5bdb8819985a5b1959605a1b6044820152606401610515565b50806112a281611aa0565b915050611184565b50600a8401805462ff00ff19166201000417905560405185907f712ae1383f79ac853f8d882153778e0260ef8f03b504e2866e0593e04d2b291f90600090a250505050610f7960018055565b6000546001600160a01b031633146107485760405162461bcd60e51b815260206004820181905260248201527f4f776e61626c653a2063616c6c6572206973206e6f7420746865206f776e65726044820152606401610515565b600080546001600160a01b038381166001600160a01b0319831681178455604051919092169283917f8be0079c531659141344cd1fd0a4f28419497f9722a3daafe3b4186f6b6457e09190a35050565b6002600154036113f25760405162461bcd60e51b815260206004820152601f60248201527f5265656e7472616e637947756172643a207265656e7472616e742063616c6c006044820152606401610515565b6002600155565b82805482825590600052602060002090810192821561144e579160200282015b8281111561144e57825182546001600160a01b0319166001600160a01b03909116178255602090920191600190910190611419565b5061145a9291506114eb565b5090565b82805482825590600052602060002090810192821561144e579160200282015b8281111561144e57825182559160200191906001019061147e565b8280548282559060005260206000209081019282156114df579160200282015b828111156114df57825182906114cf9082611b64565b50916020019190600101906114b9565b5061145a929150611500565b5b8082111561145a57600081556001016114ec565b8082111561145a576000611514828261151d565b50600101611500565b50805461152990611a50565b6000825580601f10611539575050565b601f016020900490600052602060002090810190610f7991906114eb565b60006020828403121561156957600080fd5b5035919050565b6000815180845260005b818110156115965760208185018101518683018201520161157a565b506000602082860101526020601f19601f83011685010191505092915050565b634e487b7160e01b600052602160045260246000fd5b600581106115dc576115dc6115b6565b9052565b600481106115dc576115dc6115b6565b8a81526001600160a01b038a1660208201526101406040820181905260009061161b8382018c611570565b9150508860608301528760808301528660a08301528560c083015261164360e08301866115cc565b6116516101008301856115e0565b8215156101208301529b9a5050505050505050505050565b6001600160a01b0381168114610f7957600080fd5b634e487b7160e01b600052604160045260246000fd5b604051601f8201601f1916810167ffffffffffffffff811182821017156116bd576116bd61167e565b604052919050565b600067ffffffffffffffff8311156116df576116df61167e565b6116f2601f8401601f1916602001611694565b905082815283838301111561170657600080fd5b828260208301376000602084830101529392505050565b600082601f83011261172e57600080fd5b61072f838335602085016116c5565b60008060006060848603121561175257600080fd5b833561175d81611669565b925060208401359150604084013567ffffffffffffffff81111561178057600080fd5b61178c8682870161171d565b9150509250925092565b600067ffffffffffffffff8211156117b0576117b061167e565b5060051b60200190565b600082601f8301126117cb57600080fd5b813560206117e06117db83611796565b611694565b82815260059290921b840181019181810190868411156117ff57600080fd5b8286015b8481101561181a5780358352918301918301611803565b509695505050505050565b600082601f83011261183657600080fd5b813560206118466117db83611796565b82815260059290921b8401810191818101908684111561186557600080fd5b8286015b8481101561181a57803567ffffffffffffffff8111156118895760008081fd5b8701603f8101891361189b5760008081fd5b6118ac8986830135604084016116c5565b845250918301918301611869565b600080600080608085870312156118d057600080fd5b843567ffffffffffffffff808211156118e857600080fd5b818701915087601f8301126118fc57600080fd5b8135602061190c6117db83611796565b82815260059290921b8401810191818101908b84111561192b57600080fd5b948201945b8386101561195257853561194381611669565b82529482019490820190611930565b9850508801359250508082111561196857600080fd5b611974888389016117ba565b9450604087013591508082111561198a57600080fd5b61199688838901611825565b935060608701359150808211156119ac57600080fd5b506119b98782880161171d565b91505092959194509250565b602081016119d382846115cc565b92915050565b600080604083850312156119ec57600080fd5b8235915060208301358015158114611a0357600080fd5b809150509250929050565b60008060408385031215611a2157600080fd5b823591506020830135611a0381611669565b600060208284031215611a4557600080fd5b813561072f81611669565b600181811c90821680611a6457607f821691505b602082108103611a8457634e487b7160e01b600052602260045260246000fd5b50919050565b634e487b7160e01b600052601160045260246000fd5b600060018201611ab257611ab2611a8a565b5060010190565b8381526001600160a01b0383166020820152606060408201819052600090611ae390830184611570565b95945050505050565b634e487b7160e01b600052603260045260246000fd5b808201808211156119d3576119d3611a8a565b601f821115611b5f57600081815260208120601f850160051c81016020861015611b3c5750805b601f850160051c820191505b81811015611b5b57828155600101611b48565b5050505b505050565b815167ffffffffffffffff811115611b7e57611b7e61167e565b611b9281611b8c8454611a50565b84611b15565b602080601f831160018114611bc75760008415611baf5750858301515b600019600386901b1c1916600185901b178555611b5b565b600085815260208120601f198616915b82811015611bf657888601518255948401946001909101908401611bd7565b5085821015611c145787850151600019600388901b60f8161c191681555b5050505050600190811b01905550565b604081526000611c376040830185611570565b905061072f60208301846115e0565b600060208284031215611c5857600080fd5b5051919050565b80820281158282048414176119d3576119d3611a8a565b600082611c9357634e487b7160e01b600052601260045260246000fd5b500490565b6000808354611ca681611a50565b60018281168015611cbe5760018114611cd357611d02565b60ff1984168752821515830287019450611d02565b8760005260208060002060005b85811015611cf95781548a820152908401908201611ce0565b50505082870194505b5092969550505050505056fea2646970667358221220ffe2c70fe6ef10ccf62f02114b7fd29987c3d8fadc7c1c447ca7e32eb62ee30264736f6c63430008140033",
  "linkReferences": {},
  "deployedLinkReferences": {}
}