{
  "_format": "hh-sol-artifact-1",
  "contractName": "W2EUtility",
  "sourceName": "contracts/core/W2EUtility.sol",
  "abi": [
    {
      "inputs": [
        {
          "internalType": "string",
          "name": "name",
          "type": "string"
        },
        {
          "internalType": "string",
          "name": "symbol",
          "type": "string"
        },
        {
          "internalType": "uint8",
          "name": "initialDecimals",
          "type": "uint8"
        },
        {
          "internalType": "uint256",
          "name": "_transactionFee",
          "type": "uint256"
        },
        {
          "internalType": "address",
          "name": "_feeRecipient",
          "type": "address"
        },
        {
          "internalType": "address",
          "name": "initialOwner",
          "type": "address"
        }
      ],
      "stateMutability": "nonpayable",
      "type": "constructor"
    },
    {
      "anonymous": false,
      "inputs": [
        {
          "indexed": true,
          "internalType": "address",
          "name": "owner",
          "type": "address"
        },
        {
          "indexed": true,
          "internalType": "address",
          "name": "spender",
          "type": "address"
        },
        {
          "indexed": false,
          "internalType": "uint256",
          "name": "value",
          "type": "uint256"
        }
      ],
      "name": "Approval",
      "type": "event"
    },
    {
      "anonymous": false,
      "inputs": [
        {
          "indexed": true,
          "internalType": "string",
          "name": "action",
          "type": "string"
        },
        {
          "indexed": true,
          "internalType": "string",
          "name": "reason",
          "type": "string"
        },
        {
          "indexed": false,
          "internalType": "bytes",
          "name": "data",
          "type": "bytes"
        }
      ],
      "name": "EmergencyAction",
      "type": "event"
    },
    {
      "anonymous": false,
      "inputs": [
        {
          "indexed": true,
          "internalType": "address",
          "name": "from",
          "type": "address"
        },
        {
          "indexed": false,
          "internalType": "uint256",
          "name": "amount",
          "type": "uint256"
        },
        {
          "indexed": false,
          "internalType": "uint256",
          "name": "fee",
          "type": "uint256"
        }
      ],
      "name": "FeeCollected",
      "type": "event"
    },
    {
      "anonymous": false,
      "inputs": [
        {
          "indexed": true,
          "internalType": "uint256",
          "name": "oldFee",
          "type": "uint256"
        },
        {
          "indexed": true,
          "internalType": "uint256",
          "name": "newFee",
          "type": "uint256"
        }
      ],
      "name": "FeeUpdated",
      "type": "event"
    },
    {
      "anonymous": false,
      "inputs": [
        {
          "indexed": true,
          "internalType": "address",
          "name": "oldLoom",
          "type": "address"
        },
        {
          "indexed": true,
          "internalType": "address",
          "name": "newLoom",
          "type": "address"
        }
      ],
      "name": "LoomAddressUpdated",
      "type": "event"
    },
    {
      "anonymous": false,
      "inputs": [
        {
          "indexed": true,
          "internalType": "address",
          "name": "previousOwner",
          "type": "address"
        },
        {
          "indexed": true,
          "internalType": "address",
          "name": "newOwner",
          "type": "address"
        }
      ],
      "name": "OwnershipTransferred",
      "type": "event"
    },
    {
      "anonymous": false,
      "inputs": [
        {
          "indexed": false,
          "internalType": "address",
          "name": "account",
          "type": "address"
        }
      ],
      "name": "Paused",
      "type": "event"
    },
    {
      "anonymous": false,
      "inputs": [
        {
          "indexed": true,
          "internalType": "address",
          "name": "user",
          "type": "address"
        },
        {
          "indexed": false,
          "internalType": "uint256",
          "name": "amount",
          "type": "uint256"
        },
        {
          "indexed": false,
          "internalType": "uint256",
          "name": "lockPeriod",
          "type": "uint256"
        }
      ],
      "name": "Staked",
      "type": "event"
    },
    {
      "anonymous": false,
      "inputs": [
        {
          "indexed": true,
          "internalType": "address",
          "name": "user",
          "type": "address"
        },
        {
          "indexed": false,
          "internalType": "uint256",
          "name": "penaltyAmount",
          "type": "uint256"
        }
      ],
      "name": "StakingViolationPenalized",
      "type": "event"
    },
    {
      "anonymous": false,
      "inputs": [
        {
          "indexed": true,
          "internalType": "address",
          "name": "from",
          "type": "address"
        },
        {
          "indexed": false,
          "internalType": "uint256",
          "name": "amount",
          "type": "uint256"
        }
      ],
      "name": "TokensBurned",
      "type": "event"
    },
    {
      "anonymous": false,
      "inputs": [
        {
          "indexed": true,
          "internalType": "address",
          "name": "to",
          "type": "address"
        },
        {
          "indexed": false,
          "internalType": "uint256",
          "name": "amount",
          "type": "uint256"
        }
      ],
      "name": "TokensMinted",
      "type": "event"
    },
    {
      "anonymous": false,
      "inputs": [
        {
          "indexed": true,
          "internalType": "address",
          "name": "from",
          "type": "address"
        },
        {
          "indexed": true,
          "internalType": "address",
          "name": "to",
          "type": "address"
        },
        {
          "indexed": false,
          "internalType": "uint256",
          "name": "value",
          "type": "uint256"
        }
      ],
      "name": "Transfer",
      "type": "event"
    },
    {
      "anonymous": false,
      "inputs": [
        {
          "indexed": false,
          "internalType": "address",
          "name": "account",
          "type": "address"
        }
      ],
      "name": "Unpaused",
      "type": "event"
    },
    {
      "anonymous": false,
      "inputs": [
        {
          "indexed": true,
          "internalType": "address",
          "name": "user",
          "type": "address"
        },
        {
          "indexed": false,
          "internalType": "uint256",
          "name": "amount",
          "type": "uint256"
        },
        {
          "indexed": false,
          "internalType": "uint256",
          "name": "reward",
          "type": "uint256"
        }
      ],
      "name": "Unstaked",
      "type": "event"
    },
    {
      "inputs": [],
      "name": "DEFAULT_APY_BPS",
      "outputs": [
        {
          "internalType": "uint256",
          "name": "",
          "type": "uint256"
        }
      ],
      "stateMutability": "view",
      "type": "function"
    },
    {
      "inputs": [],
      "name": "DEFAULT_FEE_BPS",
      "outputs": [
        {
          "internalType": "uint256",
          "name": "",
          "type": "uint256"
        }
      ],
      "stateMutability": "view",
      "type": "function"
    },
    {
      "inputs": [],
      "name": "MAX_FEE_BPS",
      "outputs": [
        {
          "internalType": "uint256",
          "name": "",
          "type": "uint256"
        }
      ],
      "stateMutability": "view",
      "type": "function"
    },
    {
      "inputs": [],
      "name": "MIN_LOCK_PERIOD",
      "outputs": [
        {
          "internalType": "uint256",
          "name": "",
          "type": "uint256"
        }
      ],
      "stateMutability": "view",
      "type": "function"
    },
    {
      "inputs": [
        {
          "internalType": "address",
          "name": "owner",
          "type": "address"
        },
        {
          "internalType": "address",
          "name": "spender",
          "type": "address"
        }
      ],
      "name": "allowance",
      "outputs": [
        {
          "internalType": "uint256",
          "name": "",
          "type": "uint256"
        }
      ],
      "stateMutability": "view",
      "type": "function"
    },
    {
      "inputs": [
        {
          "internalType": "address",
          "name": "spender",
          "type": "address"
        },
        {
          "internalType": "uint256",
          "name": "amount",
          "type": "uint256"
        }
      ],
      "name": "approve",
      "outputs": [
        {
          "internalType": "bool",
          "name": "",
          "type": "bool"
        }
      ],
      "stateMutability": "nonpayable",
      "type": "function"
    },
    {
      "inputs": [
        {
          "internalType": "address",
          "name": "account",
          "type": "address"
        }
      ],
      "name": "balanceOf",
      "outputs": [
        {
          "internalType": "uint256",
          "name": "",
          "type": "uint256"
        }
      ],
      "stateMutability": "view",
      "type": "function"
    },
    {
      "inputs": [
        {
          "internalType": "uint256",
          "name": "amount",
          "type": "uint256"
        }
      ],
      "name": "burn",
      "outputs": [],
      "stateMutability": "nonpayable",
      "type": "function"
    },
    {
      "inputs": [
        {
          "internalType": "address",
          "name": "from",
          "type": "address"
        },
        {
          "internalType": "uint256",
          "name": "amount",
          "type": "uint256"
        }
      ],
      "name": "burnFrom",
      "outputs": [],
      "stateMutability": "nonpayable",
      "type": "function"
    },
    {
      "inputs": [
        {
          "internalType": "address",
          "name": "from",
          "type": "address"
        },
        {
          "internalType": "uint256",
          "name": "amount",
          "type": "uint256"
        }
      ],
      "name": "burnFromWithValidation",
      "outputs": [],
      "stateMutability": "nonpayable",
      "type": "function"
    },
    {
      "inputs": [
        {
          "internalType": "address",
          "name": "user",
          "type": "address"
        }
      ],
      "name": "calculateStakingReward",
      "outputs": [
        {
          "internalType": "uint256",
          "name": "",
          "type": "uint256"
        }
      ],
      "stateMutability": "view",
      "type": "function"
    },
    {
      "inputs": [
        {
          "internalType": "address",
          "name": "user",
          "type": "address"
        }
      ],
      "name": "canUnstake",
      "outputs": [
        {
          "internalType": "bool",
          "name": "",
          "type": "bool"
        }
      ],
      "stateMutability": "view",
      "type": "function"
    },
    {
      "inputs": [],
      "name": "decimals",
      "outputs": [
        {
          "internalType": "uint8",
          "name": "",
          "type": "uint8"
        }
      ],
      "stateMutability": "view",
      "type": "function"
    },
    {
      "inputs": [
        {
          "internalType": "address",
          "name": "spender",
          "type": "address"
        },
        {
          "internalType": "uint256",
          "name": "subtractedValue",
          "type": "uint256"
        }
      ],
      "name": "decreaseAllowance",
      "outputs": [
        {
          "internalType": "bool",
          "name": "",
          "type": "bool"
        }
      ],
      "stateMutability": "nonpayable",
      "type": "function"
    },
    {
      "inputs": [],
      "name": "feeRecipient",
      "outputs": [
        {
          "internalType": "address",
          "name": "",
          "type": "address"
        }
      ],
      "stateMutability": "view",
      "type": "function"
    },
    {
      "inputs": [],
      "name": "getDeflationMetrics",
      "outputs": [
        {
          "internalType": "uint256",
          "name": "currentSupply",
          "type": "uint256"
        },
        {
          "internalType": "uint256",
          "name": "burned",
          "type": "uint256"
        },
        {
          "internalType": "uint256",
          "name": "staked",
          "type": "uint256"
        }
      ],
      "stateMutability": "view",
      "type": "function"
    },
    {
      "inputs": [
        {
          "internalType": "address",
          "name": "user",
          "type": "address"
        }
      ],
      "name": "getStakeInfo",
      "outputs": [
        {
          "internalType": "uint256",
          "name": "amount",
          "type": "uint256"
        },
        {
          "internalType": "uint256",
          "name": "startTime",
          "type": "uint256"
        },
        {
          "internalType": "uint256",
          "name": "lockPeriod",
          "type": "uint256"
        },
        {
          "internalType": "bool",
          "name": "active",
          "type": "bool"
        }
      ],
      "stateMutability": "view",
      "type": "function"
    },
    {
      "inputs": [
        {
          "internalType": "address",
          "name": "spender",
          "type": "address"
        },
        {
          "internalType": "uint256",
          "name": "addedValue",
          "type": "uint256"
        }
      ],
      "name": "increaseAllowance",
      "outputs": [
        {
          "internalType": "bool",
          "name": "",
          "type": "bool"
        }
      ],
      "stateMutability": "nonpayable",
      "type": "function"
    },
    {
      "inputs": [
        {
          "internalType": "address",
          "name": "to",
          "type": "address"
        },
        {
          "internalType": "uint256",
          "name": "amount",
          "type": "uint256"
        }
      ],
      "name": "mint",
      "outputs": [],
      "stateMutability": "nonpayable",
      "type": "function"
    },
    {
      "inputs": [],
      "name": "name",
      "outputs": [
        {
          "internalType": "string",
          "name": "",
          "type": "string"
        }
      ],
      "stateMutability": "view",
      "type": "function"
    },
    {
      "inputs": [],
      "name": "owner",
      "outputs": [
        {
          "internalType": "address",
          "name": "",
          "type": "address"
        }
      ],
      "stateMutability": "view",
      "type": "function"
    },
    {
      "inputs": [
        {
          "internalType": "string",
          "name": "reason",
          "type": "string"
        }
      ],
      "name": "pause",
      "outputs": [],
      "stateMutability": "nonpayable",
      "type": "function"
    },
    {
      "inputs": [],
      "name": "paused",
      "outputs": [
        {
          "internalType": "bool",
          "name": "",
          "type": "bool"
        }
      ],
      "stateMutability": "view",
      "type": "function"
    },
    {
      "inputs": [],
      "name": "renounceOwnership",
      "outputs": [],
      "stateMutability": "nonpayable",
      "type": "function"
    },
    {
      "inputs": [
        {
          "internalType": "uint256",
          "name": "newFee",
          "type": "uint256"
        }
      ],
      "name": "setTransactionFee",
      "outputs": [],
      "stateMutability": "nonpayable",
      "type": "function"
    },
    {
      "inputs": [
        {
          "internalType": "address",
          "name": "treasury",
          "type": "address"
        }
      ],
      "name": "setTreasuryAddress",
      "outputs": [],
      "stateMutability": "nonpayable",
      "type": "function"
    },
    {
      "inputs": [
        {
          "internalType": "address",
          "name": "loomAddress",
          "type": "address"
        }
      ],
      "name": "setW2ELoomAddress",
      "outputs": [],
      "stateMutability": "nonpayable",
      "type": "function"
    },
    {
      "inputs": [
        {
          "internalType": "uint256",
          "name": "amount",
          "type": "uint256"
        },
        {
          "internalType": "uint256",
          "name": "lockPeriod",
          "type": "uint256"
        }
      ],
      "name": "stake",
      "outputs": [],
      "stateMutability": "nonpayable",
      "type": "function"
    },
    {
      "inputs": [
        {
          "internalType": "address",
          "name": "",
          "type": "address"
        }
      ],
      "name": "stakes",
      "outputs": [
        {
          "internalType": "uint256",
          "name": "amount",
          "type": "uint256"
        },
        {
          "internalType": "uint256",
          "name": "startTime",
          "type": "uint256"
        },
        {
          "internalType": "uint256",
          "name": "lockPeriod",
          "type": "uint256"
        },
        {
          "internalType": "bool",
          "name": "active",
          "type": "bool"
        }
      ],
      "stateMutability": "view",
      "type": "function"
    },
    {
      "inputs": [],
      "name": "symbol",
      "outputs": [
        {
          "internalType": "string",
          "name": "",
          "type": "string"
        }
      ],
      "stateMutability": "view",
      "type": "function"
    },
    {
      "inputs": [],
      "name": "totalBurned",
      "outputs": [
        {
          "internalType": "uint256",
          "name": "",
          "type": "uint256"
        }
      ],
      "stateMutability": "view",
      "type": "function"
    },
    {
      "inputs": [],
      "name": "totalStaked",
      "outputs": [
        {
          "internalType": "uint256",
          "name": "",
          "type": "uint256"
        }
      ],
      "stateMutability": "view",
      "type": "function"
    },
    {
      "inputs": [],
      "name": "totalSupply",
      "outputs": [
        {
          "internalType": "uint256",
          "name": "",
          "type": "uint256"
        }
      ],
      "stateMutability": "view",
      "type": "function"
    },
    {
      "inputs": [],
      "name": "transactionFee",
      "outputs": [
        {
          "internalType": "uint256",
          "name": "",
          "type": "uint256"
        }
      ],
      "stateMutability": "view",
      "type": "function"
    },
    {
      "inputs": [
        {
          "internalType": "address",
          "name": "to",
          "type": "address"
        },
        {
          "internalType": "uint256",
          "name": "amount",
          "type": "uint256"
        }
      ],
      "name": "transfer",
      "outputs": [
        {
          "internalType": "bool",
          "name": "",
          "type": "bool"
        }
      ],
      "stateMutability": "nonpayable",
      "type": "function"
    },
    {
      "inputs": [
        {
          "internalType": "address",
          "name": "from",
          "type": "address"
        },
        {
          "internalType": "address",
          "name": "to",
          "type": "address"
        },
        {
          "internalType": "uint256",
          "name": "amount",
          "type": "uint256"
        }
      ],
      "name": "transferFrom",
      "outputs": [
        {
          "internalType": "bool",
          "name": "",
          "type": "bool"
        }
      ],
      "stateMutability": "nonpayable",
      "type": "function"
    },
    {
      "inputs": [
        {
          "internalType": "address",
          "name": "newOwner",
          "type": "address"
        }
      ],
      "name": "transferOwnership",
      "outputs": [],
      "stateMutability": "nonpayable",
      "type": "function"
    },
    {
      "inputs": [],
      "name": "treasuryAddress",
      "outputs": [
        {
          "internalType": "address",
          "name": "",
          "type": "address"
        }
      ],
      "stateMutability": "view",
      "type": "function"
    },
    {
      "inputs": [],
      "name": "unpause",
      "outputs": [],
      "stateMutability": "nonpayable",
      "type": "function"
    },
    {
      "inputs": [],
      "name": "unstake",
      "outputs": [],
      "stateMutability": "nonpayable",
      "type": "function"
    },
    {
      "inputs": [],
      "name": "w2eLoomAddress",
      "outputs": [
        {
          "internalType": "address",
          "name": "",
          "type": "address"
        }
      ],
      "stateMutability": "view",
      "type": "function"
    }
  ],
  "bytecode": "0x60406080815234620004cc5762002653803803806200001e81620004d1565b92833981019060c081830312620004cc5780516001600160401b039190828111620004cc578362000051918301620004f7565b6020938483015190848211620004cc576200006e918401620004f7565b90858301519260ff8416809403620004cc57606081015194620000a260a06200009a6080850162000569565b930162000569565b508251818111620003c9576003908154906001958683811c93168015620004c1575b8b841014620004ab5781908b601f9485811162000452575b50508b90848311600114620003eb57600092620003df575b505060001982851b1c191690861b1782555b8551928311620003c95760049586548681811c91168015620003be575b8b821014620003a95790818386959493116200034f575b508a918411600114620002e457600093620002d8575b505082851b92600019911b1c19161783555b60055487516001600160a01b03939091338582167f8be0079c531659141344cd1fd0a4f28419497f9722a3daafe3b4186f6b6457e0600080a36001600160a81b0319163360ff60a01b19161760055560065584151580620002cc575b156200028b57506103e885116200024857169384156200020657505060ff19600b541617600b55600a5560018060a01b03196009541617600955516120d490816200057f8239f35b855162461bcd60e51b815291820152601a60248201527f5732453a20496e76616c69642066656520726563697069656e74000000000000604482015260649150fd5b865162461bcd60e51b8152808401879052601a60248201527f5732453a204665652063616e6e6f7420657863656564203130250000000000006044820152606490fd5b62461bcd60e51b8152838101879052601560248201527f5732453a20496e76616c696420646563696d616c7300000000000000000000006044820152606490fd5b506012851115620001be565b01519150388062000150565b9190869450601f19841692886000528b6000209360005b8d8282106200033857505085116200031d575b50505050811b01835562000162565b01519060f884600019921b161c19169055388080806200030e565b8385015187558a98909601959384019301620002fb565b9091929350876000528a6000208380870160051c8201928d88106200039f575b9189918897969594930160051c01915b8281106200038f5750506200013a565b600081558796508991016200037f565b925081926200036f565b602288634e487b7160e01b6000525260246000fd5b90607f169062000123565b634e487b7160e01b600052604160045260246000fd5b015190503880620000f4565b60008681528d81208a9550929190601f198516908f5b8282106200043a575050841162000421575b505050811b01825562000106565b015160001983871b60f8161c1916905538808062000413565b8385015186558c979095019493840193018f62000401565b909192508560005284826000209181860160051c8301938610620004a1575b918a91869594930160051c01915b8281106200049157508d9150620000dc565b600081558594508a91016200047f565b9250819262000471565b634e487b7160e01b600052602260045260246000fd5b92607f1692620000c4565b600080fd5b6040519190601f01601f191682016001600160401b03811183821017620003c957604052565b919080601f84011215620004cc5782516001600160401b038111620003c9576020906200052d601f8201601f19168301620004d1565b92818452828287010111620004cc5760005b8181106200055557508260009394955001015290565b85810183015184820184015282016200053f565b51906001600160a01b0382168203620004cc5756fe6080604081815260048036101561001557600080fd5b600092833560e01c90816306fdde03146114b057508063095ea7b314611486578063096a8ab7146113ed5780630d505541146113c057806316934fc41461041857806318160ddd146113a157806323b872dd1461135f5780632662388f1461132f5780632def6620146111ea578063313ce567146111c857806333d8262c146111ac578063385dc3df1461118e578063395093511461113e5780633c84187c14610fe35780633f4ba83a14610e6257806340c10f1914610dd357806342966c6814610cec5780634690484014610cc35780635c975abb14610c9c5780636605bfda14610c0f5780636da6635514610aa157806370a0823114610a6a578063715018a614610a0d57806379cc67901461095a5780637b0472f0146107a5578063817b1cd21461078657806385f4498b1461071d5780638da5cb5b146106f457806395d89b41146105dd57806396e3bcfd146105c05780639e05220d146105975780639ed3edf014610578578063a457c2d7146104ca578063a9059cbb14610483578063c345315314610418578063c5f956af146103ef578063d55be8c6146103d2578063d89135cd146103b3578063dd62ed3e14610366578063f2fde38b146102a05763f8222650146101e657600080fd5b3461029c57602036600319011261029c576101ff6115e4565b90610208611615565b6001600160a01b03918216928315610259575050600754826001600160601b0360a01b821617600755167fa863b0ab9c9fd113534a73dc48e152501881699e0c41fa017f1036a31b30927b8380a380f35b906020606492519162461bcd60e51b8352820152601960248201527f5732453a20496e76616c6964206c6f6f6d2061646472657373000000000000006044820152fd5b8280fd5b503461029c57602036600319011261029c576102ba6115e4565b906102c3611615565b6001600160a01b03918216928315610314575050600554826001600160601b0360a01b821617600555167f8be0079c531659141344cd1fd0a4f28419497f9722a3daafe3b4186f6b6457e08380a380f35b906020608492519162461bcd60e51b8352820152602660248201527f4f776e61626c653a206e6577206f776e657220697320746865207a65726f206160448201526564647265737360d01b6064820152fd5b5050346103af57806003193601126103af57806020926103846115e4565b61038c6115ff565b6001600160a01b0391821683526001865283832091168252845220549051908152f35b5080fd5b5050346103af57816003193601126103af57602090600c549051908152f35b5050346103af57816003193601126103af57602090516103e88152f35b5050346103af57816003193601126103af5760085490516001600160a01b039091168152602090f35b5050346103af5760203660031901126103af579081906001600160a01b0361043e6115e4565b168152600d6020908152919020805460018201546002830154600390930154945191825292810192909252604082015260ff90911615156060820152608090f35b0390f35b5050346103af57806003193601126103af576020906104bc6104a36115e4565b6104ab6118c1565b6104b3611b8c565b60243590611e06565b906001600655519015158152f35b5082346105755782600319360112610575576104e46115e4565b918360243592338152600160205281812060018060a01b03861682526020522054908282106105245760208561051d85850387336116e4565b5160018152f35b608490602086519162461bcd60e51b8352820152602560248201527f45524332303a2064656372656173656420616c6c6f77616e63652062656c6f77604482015264207a65726f60d81b6064820152fd5b80fd5b5050346103af57816003193601126103af57602090600a549051908152f35b5050346103af57816003193601126103af5760075490516001600160a01b039091168152602090f35b5050346103af57816003193601126103af57602090516101f48152f35b50913461057557806003193601126105755781519181845492600184811c918186169586156106ea575b60209687851081146106d7579087899a92868b999a9b5291826000146106ad575050600114610652575b858861047f89610643848a038561169f565b519282849384528301906115a4565b815286935091907f8a35acfbc15ff81a39ae7d344fd709f28e8600b4aa8c65c6b64bfe7fe36bd19b5b828410610695575050508201018161064361047f38610631565b8054848a01860152889550879490930192810161067b565b60ff19168882015294151560051b87019094019450859350610643925061047f9150389050610631565b634e487b7160e01b835260228a52602483fd5b92607f1692610607565b5050346103af57816003193601126103af5760055490516001600160a01b039091168152602090f35b5050346103af5760203660031901126103af5760209181906001600160a01b036107456115e4565b168152600d8452209060ff6003830154169182610766575b50519015158152f35b61077c91925060026001820154910154906116c1565b421015903861075d565b5050346103af57816003193601126103af57602090600e549051908152f35b509190346103af57806003193601126103af578235906024356107c66118c1565b6107ce611b8c565b6107d9831515611875565b33845260208481526107f084848720541015611b33565b338552600d815260ff6003848720015416610921576201518082106108d55761081a843033611bd3565b82516080810181811067ffffffffffffffff8211176108c2577f1449c6dd7851abc30abf37f57715f492010519147cc2652fbc38202c18a6ee90959697508452858152600382820191428352858101858152606082019360018552338b52600d8652878b2092518355516001830155516002820155019051151560ff801983541691161790556108ac85600e546116c1565b600e5582519485528401523392a2600160065580f35b634e487b7160e01b875260418852602487fd5b8560849184519162461bcd60e51b8352820152602160248201527f5732453a204d696e696d756d206c6f636b20706572696f6420697320312064616044820152607960f81b6064820152fd5b8560649184519162461bcd60e51b835282015260146024820152735732453a20416c7265616479207374616b696e6760601b6044820152fd5b5050346103af57806003193601126103af577ffd38818f5291bf0bb3a2a48aadc06ba8757865d1dabd804585338aab3009dcb660206109976115e4565b92602435906109f18260018060a01b036109b6816007541633146117e6565b6109be6118c1565b8716966109cc881515611832565b6109d7821515611875565b8789528886526109ec82858b20541015611b33565b611a1f565b6109fd82600c546116c1565b600c5551908152a2600160065580f35b8334610575578060031936011261057557610a26611615565b600580546001600160a01b0319811690915581906001600160a01b03167f8be0079c531659141344cd1fd0a4f28419497f9722a3daafe3b4186f6b6457e08280a380f35b5050346103af5760203660031901126103af5760209181906001600160a01b03610a926115e4565b16815280845220549051908152f35b503461029c57602036600319011261029c57803567ffffffffffffffff91828211610c0b5736602383011215610c0b5781810135928311610c0b573660248484010111610c0b57610af0611615565b6005549060ff8260a01c16610bd257507ffcb9fcbfa83b897fb2d5cf4b58962164105c1e71489a37ef3ae0db3fdce576f69260247f8916209ed01e256744acae84228532ddef529f5b388ec0986c5abe6f041a442693610bcc93610b52611b8c565b60ff60a01b1916600160a01b1760055586513381527f62e78cea01bee320cd4e420270b5ea74000d11b0c9f74754ebdbfc544b05a25890602090a1865192610b998461166d565b88845264504155534560d81b885152808851938493018337810188815203902094519182916020835260208301906115a4565b0390a380f35b606490602086519162461bcd60e51b8352820152601360248201527215cc914e88105b1c9958591e481c185d5cd959606a1b6044820152fd5b8480fd5b503461029c57602036600319011261029c57610c296115e4565b610c31611615565b6001600160a01b0316918215610c595750506001600160601b0360a01b600854161760085580f35b906020606492519162461bcd60e51b8352820152601d60248201527f5732453a20496e76616c696420747265617375727920616464726573730000006044820152fd5b5050346103af57816003193601126103af5760209060ff60055460a01c1690519015158152f35b5050346103af57816003193601126103af5760095490516001600160a01b039091168152602090f35b50903461029c57602036600319011261029c57813591610d1760018060a01b036007541633146117e6565b610d1f6118c1565b610d2a831515611875565b30845283602052828285205410610d875750610d468230611a1f565b610d5282600c546116c1565b600c55519081527ffd38818f5291bf0bb3a2a48aadc06ba8757865d1dabd804585338aab3009dcb660203092a2600160065580f35b6020608492519162461bcd60e51b8352820152602160248201527f5732453a20496e73756666696369656e742062616c616e636520746f206275726044820152603760f91b6064820152fd5b5050346103af57806003193601126103af577f3f2c9d57c068687834f0de942a9babb9e5acab57d516d3480a3c16ee165a42736020610e106115e4565b9260243590610e558260018060a01b03610e2f816007541633146117e6565b610e376118c1565b871696610e45881515611832565b610e50821515611875565b611917565b51908152a2600160065580f35b503461029c578260031936011261029c57610e7b611615565b6005549060ff8260a01c16156001811503610fae57610f7457507f8916209ed01e256744acae84228532ddef529f5b388ec0986c5abe6f041a4426610bcc7ff05774ecb620af8f54b837901991e7074289cdcfae56b6abde9dbf45da9cfe35937fe7276a2a84d8de556657ec9cf93a55a7d66f096e529d0582ed08e9e2208b92b59360ff60a01b19166005557f5db9ee0a495bf2e6ff9c91a7834c1ba4fdd244a5e8aa4e537bd38aeae4b073aa60208251338152a1805190610f3c8261166d565b86825266554e504155534560c81b8151526d4d616e75616c20756e706175736560901b815152519182916020835260208301906115a4565b606490602084519162461bcd60e51b8352820152601460248201527314185d5cd8589b194e881b9bdd081c185d5cd95960621b6044820152fd5b835162461bcd60e51b8152602081840152600f60248201526e15cc914e88139bdd081c185d5cd959608a1b6044820152606490fd5b503461029c578160031936011261029c57610ffc6115e4565b916024359060018060a01b03611017816007541633146117e6565b61101f6118c1565b84169361102d851515611832565b611038831515611875565b848652602093600d855282872060ff60038201541615908115611123575b50156110e057509061109b837f8a0b581a6e3e2361869cc8713e31f12d7f20d644701f25a60abf5b461d3f5a9d9594938789528886526109ec82858b20541015611b33565b6110a782600c546116c1565b600c55847ffd38818f5291bf0bb3a2a48aadc06ba8757865d1dabd804585338aab3009dcb6848351858152a251908152a2600160065580f35b825162461bcd60e51b8152908101859052601e60248201527f5732453a2043616e6e6f74206275726e207374616b656420746f6b656e7300006044820152606490fd5b90505487865261113685858a2054611b7f565b101538611056565b5050346103af57806003193601126103af5761051d6020926111876111616115e4565b338352600186528483206001600160a01b038216845286529184902054602435906116c1565b90336116e4565b5050346103af57816003193601126103af5760209051620151808152f35b5050346103af57816003193601126103af576020905160328152f35b5050346103af57816003193601126103af5760209060ff600b54169051908152f35b50903461029c578260031936011261029c576112046118c1565b61120c611b8c565b338352600d60205280832091600383019283549160ff8316156112f55761123c60018301546002840154906116c1565b42106112b25750907f7fc4727e062e336010f2c282598ef5f14facb3de68cf8195c2f23e1454b2b74e9291549361127233611d61565b9160ff1916905561128584600e54611b7f565b600e556112928133611917565b61129d843330611bd3565b815193845260208401523392a2600160065580f35b606490602085519162461bcd60e51b8352820152601a60248201527f5732453a204c6f636b20706572696f64206e6f7420656e6465640000000000006044820152fd5b606490602085519162461bcd60e51b835282015260146024820152735732453a204e6f20616374697665207374616b6560601b6044820152fd5b5050346103af57816003193601126103af5760609060025490600c5490600e549181519384526020840152820152f35b5050346103af5760603660031901126103af576020906104bc6113806115e4565b6113886115ff565b6113906118c1565b611398611b8c565b60443591611ec8565b5050346103af57816003193601126103af576020906002549051908152f35b5050346103af5760203660031901126103af576020906113e66113e16115e4565b611d61565b9051908152f35b503461029c57602036600319011261029c5780359161140a611615565b6103e88311611443575050600a5481600a557f528d9479e9f9889a87a3c30c7f7ba537e5e59c4c85a37733b16e57c62df613028380a380f35b906020606492519162461bcd60e51b8352820152601a60248201527f5732453a204665652063616e6e6f7420657863656564203130250000000000006044820152fd5b5050346103af57806003193601126103af5760209061051d6114a66115e4565b60243590336116e4565b90508383346103af57816003193601126103af578160035492600184811c9181861695861561159a575b60209687851081146106d7578899509688969785829a529182600014611573575050600114611517575b50505061047f929161064391038561169f565b9190869350600383527fc2575a0e9e593c00f959f8c92f12db2869c3395a3b0502d05e2516446f71f85b5b82841061155b575050508201018161064361047f611504565b8054848a018601528895508794909301928101611542565b60ff19168782015293151560051b86019093019350849250610643915061047f9050611504565b92607f16926114da565b919082519283825260005b8481106115d0575050826000602080949584010152601f8019910116010190565b6020818301810151848301820152016115af565b600435906001600160a01b03821682036115fa57565b600080fd5b602435906001600160a01b03821682036115fa57565b6005546001600160a01b0316330361162957565b606460405162461bcd60e51b815260206004820152602060248201527f4f776e61626c653a2063616c6c6572206973206e6f7420746865206f776e65726044820152fd5b6020810190811067ffffffffffffffff82111761168957604052565b634e487b7160e01b600052604160045260246000fd5b90601f8019910116810190811067ffffffffffffffff82111761168957604052565b919082018092116116ce57565b634e487b7160e01b600052601160045260246000fd5b6001600160a01b0390811691821561179557169182156117455760207f8c5be1e5ebec7d5bd14f71427d1e84f3dd0314c0f7b2291e5b200ac8c7c3b925918360005260018252604060002085600052825280604060002055604051908152a3565b60405162461bcd60e51b815260206004820152602260248201527f45524332303a20617070726f766520746f20746865207a65726f206164647265604482015261737360f01b6064820152608490fd5b60405162461bcd60e51b8152602060048201526024808201527f45524332303a20617070726f76652066726f6d20746865207a65726f206164646044820152637265737360e01b6064820152608490fd5b156117ed57565b60405162461bcd60e51b815260206004820152601a60248201527f5732453a204e6f7420573245204c6f6f6d20436f6e74726163740000000000006044820152606490fd5b1561183957565b60405162461bcd60e51b81526020600482015260146024820152735732453a20496e76616c6964206164647265737360601b6044820152606490fd5b1561187c57565b60405162461bcd60e51b815260206004820152601c60248201527f5732453a20416d6f756e74206d75737420626520706f736974697665000000006044820152606490fd5b6002600654146118d2576002600655565b60405162461bcd60e51b815260206004820152601f60248201527f5265656e7472616e637947756172643a207265656e7472616e742063616c6c006044820152606490fd5b6001600160a01b03169081156119da5760ff60055460a01c16611982577fddf252ad1be2c89b69c2b068fc378daa952ba7f163c4a11628f55a4df523b3ef6020826119666000946002546116c1565b60025584845283825260408420818154019055604051908152a3565b60405162461bcd60e51b815260206004820152602a60248201527f45524332305061757361626c653a20746f6b656e207472616e736665722077686044820152691a5b19481c185d5cd95960b21b6064820152608490fd5b60405162461bcd60e51b815260206004820152601f60248201527f45524332303a206d696e7420746f20746865207a65726f2061646472657373006044820152606490fd5b6001600160a01b03168015611ae45760ff60055460a01c1661198257600091818352826020526040832054818110611a9457817fddf252ad1be2c89b69c2b068fc378daa952ba7f163c4a11628f55a4df523b3ef926020928587528684520360408620558060025403600255604051908152a3565b60405162461bcd60e51b815260206004820152602260248201527f45524332303a206275726e20616d6f756e7420657863656564732062616c616e604482015261636560f01b6064820152608490fd5b60405162461bcd60e51b815260206004820152602160248201527f45524332303a206275726e2066726f6d20746865207a65726f206164647265736044820152607360f81b6064820152608490fd5b15611b3a57565b60405162461bcd60e51b815260206004820152601960248201527f5732453a20496e73756666696369656e742062616c616e6365000000000000006044820152606490fd5b919082039182116116ce57565b60ff60055460a01c16611b9b57565b60405162461bcd60e51b815260206004820152601060248201526f14185d5cd8589b194e881c185d5cd95960821b6044820152606490fd5b6001600160a01b03908116918215611cfb5716918215611caa5760ff60055460a01c1661198257600082815280602052604081205491808310611c5657604082827fddf252ad1be2c89b69c2b068fc378daa952ba7f163c4a11628f55a4df523b3ef958760209652828652038282205586815220818154019055604051908152a3565b60405162461bcd60e51b815260206004820152602660248201527f45524332303a207472616e7366657220616d6f756e7420657863656564732062604482015265616c616e636560d01b6064820152608490fd5b60405162461bcd60e51b815260206004820152602360248201527f45524332303a207472616e7366657220746f20746865207a65726f206164647260448201526265737360e81b6064820152608490fd5b60405162461bcd60e51b815260206004820152602560248201527f45524332303a207472616e736665722066726f6d20746865207a65726f206164604482015264647265737360d81b6064820152608490fd5b818102929181159184041417156116ce57565b6001600160a01b03166000908152600d60205260409020600381015460ff1615611dbb5780611d976001611d9e93015442611b7f565b9054611d4e565b6005810290808204600514901517156116ce5763bbf81e00900490565b50600090565b15611dc857565b60405162461bcd60e51b815260206004820152601660248201527515cc914e88125b9d985b1a59081c9958da5c1a595b9d60521b6044820152606490fd5b6001600160a01b03611e1b8282161515611dc1565b600a54151580611eba575b80611eac575b15611e9b57611e6590612710611e44600a5486611d4e565b0492611e5f84611e548188611b7f565b936009541633611bd3565b33611bd3565b60405191825260208201527f108516ddcf5ba43cea6bb2cd5ff6d59ac196c1c86ccb9178332b9dd72d1ca56160403392a2600190565b5090611ea79133611bd3565b600190565b508060085416331415611e2c565b508060075416331415611e26565b6001600160a01b0392611ede8385161515611dc1565b600a5415158061208e575b8061207e575b15611fe957612710611f03600a5483611d4e565b04611f0e8183611b7f565b94611f1e82826009541686611bd3565b83169485600052600160205260406000203360005260205260406000205490838210611f95577f108516ddcf5ba43cea6bb2cd5ff6d59ac196c1c86ccb9178332b9dd72d1ca56195604095611f80611f7987611f8596611b7f565b33836116e4565b611bd3565b82519182526020820152a2600190565b60405162461bcd60e51b815260206004820152602660248201527f5732453a205472616e7366657220616d6f756e74206578636565647320616c6c6044820152656f77616e636560d01b6064820152608490fd5b9190928316600052600160205260406000203360005260205260406000205492600019840361201d575b611ea79350611bd3565b8284106120395761203483611ea7950333836116e4565b612013565b60405162461bcd60e51b815260206004820152601d60248201527f45524332303a20696e73756666696369656e7420616c6c6f77616e63650000006044820152606490fd5b5083600854168483161415611eef565b5083600754168483161415611ee956fea2646970667358221220c22f7d6d6f0d29f1715a0febc2eebbd2aa4192cb14cc6c9a28759083e84d6ffa64736f6c63430008140033",
  "linkReferences": {},
  "deployedLinkReferences": {}
}