{
  "_format": "hh-sol-artifact-1",
  "contractName": "ClaimVerifier",
  "sourceName": "contracts/core/ClaimVerifier.sol",
  "abi": [
    {
      "inputs": [
        {
          "internalType": "address",
          "name": "_pboxToken",
          "type": "address"
        },
        {
          "internalType": "address",
          "name": "_claimSigner",
          "type": "address"
        },
        {
          "internalType": "address",
          "name": "initialOwner",
          "type": "address"
        }
      ],
      "stateMutability": "nonpayable",
      "type": "constructor"
    },
    {
      "inputs": [],
      "name": "InvalidShortString",
      "type": "error"
    },
    {
      "inputs": [
        {
          "internalType": "string",
          "name": "str",
          "type": "string"
        }
      ],
      "name": "StringTooLong",
      "type": "error"
    },
    {
      "anonymous": false,
      "inputs": [],
      "name": "EIP712DomainChanged",
      "type": "event"
    },
    {
      "anonymous": false,
      "inputs": [
        {
          "indexed": true,
          "internalType": "address",
          "name": "previousOwner",
          "type": "address"
        },
        {
          "indexed": true,
          "internalType": "address",
          "name": "newOwner",
          "type": "address"
        }
      ],
      "name": "OwnershipTransferred",
      "type": "event"
    },
    {
      "anonymous": false,
      "inputs": [
        {
          "indexed": false,
          "internalType": "address",
          "name": "account",
          "type": "address"
        }
      ],
      "name": "Paused",
      "type": "event"
    },
    {
      "anonymous": false,
      "inputs": [
        {
          "indexed": true,
          "internalType": "address",
          "name": "oldSigner",
          "type": "address"
        },
        {
          "indexed": true,
          "internalType": "address",
          "name": "newSigner",
          "type": "address"
        }
      ],
      "name": "SignerUpdated",
      "type": "event"
    },
    {
      "anonymous": false,
      "inputs": [
        {
          "indexed": false,
          "internalType": "address",
          "name": "account",
          "type": "address"
        }
      ],
      "name": "Unpaused",
      "type": "event"
    },
    {
      "anonymous": false,
      "inputs": [
        {
          "indexed": true,
          "internalType": "address",
          "name": "user",
          "type": "address"
        },
        {
          "indexed": false,
          "internalType": "uint256",
          "name": "amount",
          "type": "uint256"
        },
        {
          "indexed": false,
          "internalType": "uint256",
          "name": "nonce",
          "type": "uint256"
        }
      ],
      "name": "VoucherClaimed",
      "type": "event"
    },
    {
      "inputs": [
        {
          "components": [
            {
              "internalType": "address",
              "name": "user",
              "type": "address"
            },
            {
              "internalType": "uint256",
              "name": "amount",
              "type": "uint256"
            },
            {
              "internalType": "uint256",
              "name": "nonce",
              "type": "uint256"
            },
            {
              "internalType": "uint256",
              "name": "deadline",
              "type": "uint256"
            }
          ],
          "internalType": "struct ClaimVerifier.Voucher",
          "name": "voucher",
          "type": "tuple"
        },
        {
          "internalType": "bytes",
          "name": "signature",
          "type": "bytes"
        }
      ],
      "name": "claim",
      "outputs": [],
      "stateMutability": "nonpayable",
      "type": "function"
    },
    {
      "inputs": [],
      "name": "claimSigner",
      "outputs": [
        {
          "internalType": "address",
          "name": "",
          "type": "address"
        }
      ],
      "stateMutability": "view",
      "type": "function"
    },
    {
      "inputs": [],
      "name": "eip712Domain",
      "outputs": [
        {
          "internalType": "bytes1",
          "name": "fields",
          "type": "bytes1"
        },
        {
          "internalType": "string",
          "name": "name",
          "type": "string"
        },
        {
          "internalType": "string",
          "name": "version",
          "type": "string"
        },
        {
          "internalType": "uint256",
          "name": "chainId",
          "type": "uint256"
        },
        {
          "internalType": "address",
          "name": "verifyingContract",
          "type": "address"
        },
        {
          "internalType": "bytes32",
          "name": "salt",
          "type": "bytes32"
        },
        {
          "internalType": "uint256[]",
          "name": "extensions",
          "type": "uint256[]"
        }
      ],
      "stateMutability": "view",
      "type": "function"
    },
    {
      "inputs": [],
      "name": "owner",
      "outputs": [
        {
          "internalType": "address",
          "name": "",
          "type": "address"
        }
      ],
      "stateMutability": "view",
      "type": "function"
    },
    {
      "inputs": [],
      "name": "pause",
      "outputs": [],
      "stateMutability": "nonpayable",
      "type": "function"
    },
    {
      "inputs": [],
      "name": "paused",
      "outputs": [
        {
          "internalType": "bool",
          "name": "",
          "type": "bool"
        }
      ],
      "stateMutability": "view",
      "type": "function"
    },
    {
      "inputs": [],
      "name": "pboxToken",
      "outputs": [
        {
          "internalType": "contract PBOXToken",
          "name": "",
          "type": "address"
        }
      ],
      "stateMutability": "view",
      "type": "function"
    },
    {
      "inputs": [],
      "name": "renounceOwnership",
      "outputs": [],
      "stateMutability": "nonpayable",
      "type": "function"
    },
    {
      "inputs": [
        {
          "internalType": "address",
          "name": "newOwner",
          "type": "address"
        }
      ],
      "name": "transferOwnership",
      "outputs": [],
      "stateMutability": "nonpayable",
      "type": "function"
    },
    {
      "inputs": [],
      "name": "unpause",
      "outputs": [],
      "stateMutability": "nonpayable",
      "type": "function"
    },
    {
      "inputs": [
        {
          "internalType": "address",
          "name": "newSigner",
          "type": "address"
        }
      ],
      "name": "updateSigner",
      "outputs": [],
      "stateMutability": "nonpayable",
      "type": "function"
    },
    {
      "inputs": [
        {
          "internalType": "address",
          "name": "",
          "type": "address"
        }
      ],
      "name": "userNonces",
      "outputs": [
        {
          "internalType": "uint256",
          "name": "",
          "type": "uint256"
        }
      ],
      "stateMutability": "view",
      "type": "function"
    }
  ],
  "bytecode": "0x610160346200037e576001600160401b03601f620016f738819003918201601f19168401919083831185841017620003685781606092869260409586528339810103126200037e5762000052836200039f565b9060206200006f82620000678388016200039f565b96016200039f565b908251936200007e8562000383565b60138552818501957f50616e646f726173436c61696d53797374656d000000000000000000000000008752845197620000b78962000383565b60018952838901603160f81b8152620000d088620003fd565b98610120998a52620000e28b620005d0565b98610140998a52519020998a60e0525190209061010099828b524660a052875192868401917f8b73c3c69bb8fe3d512ecc4cf759cc79239f7b179b0ffacaa9a75d522b39400f83528985015260608401524660808401523060a084015260a0835260c0830193838510908511176200036857838852825190206080523060c0526200016d33620003b4565b6002805460ff60a01b1981169091556001600160a01b03949093908516928315620003265750508316908115620002e25760018060a01b03199081600354161760035560045416176004558184169182159283159081620002d6575b506200021d575b50505050505191610f7993846200077e853960805184610e62015260a05184610f1d015260c05184610e2c015260e05184610eb101525183610ed7015251826102c4015251816102ee0152f35b3391160362000294576200024257506200023790620003b4565b3880808080620001d0565b60849083519062461bcd60e51b82526004820152602660248201527f4f776e61626c653a206e6577206f776e657220697320746865207a65726f206160448201526564647265737360d01b6064820152fd5b60648285519062461bcd60e51b825280600483015260248201527f4f776e61626c653a2063616c6c6572206973206e6f7420746865206f776e65726044820152fd5b905033141538620001c9565b865162461bcd60e51b815260048101869052601d60248201527f436c61696d56657269666965723a20496e76616c6964207369676e65720000006044820152606490fd5b907f436c61696d56657269666965723a20496e76616c696420746f6b656e000000006101046064938962461bcd60e51b855260c4820152601c60e48201520152fd5b634e487b7160e01b600052604160045260246000fd5b600080fd5b604081019081106001600160401b038211176200036857604052565b51906001600160a01b03821682036200037e57565b600280546001600160a01b039283166001600160a01b0319821681179092559091167f8be0079c531659141344cd1fd0a4f28419497f9722a3daafe3b4186f6b6457e0600080a3565b805160209190828110156200049c575090601f8251116200043b57808251920151908083106200042c57501790565b82600019910360031b1b161790565b90604051809263305a27a960e01b82528060048301528251908160248401526000935b82851062000482575050604492506000838284010152601f80199101168101030190fd5b84810182015186860160440152938101938593506200045e565b6001600160401b03811162000368576000928354926001938481811c91168015620005c5575b83821014620005b157601f81116200057b575b5081601f8411600114620005145750928293918392869462000508575b50501b916000199060031b1c191617905560ff90565b015192503880620004f2565b919083601f1981168780528488209488905b8883831062000560575050501062000546575b505050811b01905560ff90565b015160001960f88460031b161c1916905538808062000539565b85870151885590960195948501948793509081019062000526565b85805284601f848820920160051c820191601f860160051c015b828110620005a5575050620004d5565b87815501859062000595565b634e487b7160e01b86526022600452602486fd5b90607f1690620004c2565b8051602090818110156200065e5750601f825111620005fd57808251920151908083106200042c57501790565b90604051809263305a27a960e01b82528060048301528251908160248401526000935b82851062000644575050604492506000838284010152601f80199101168101030190fd5b848101820151868601604401529381019385935062000620565b9192916001600160401b038111620003685760019182548381811c9116801562000772575b828210146200075c57601f811162000723575b5080601f8311600114620006d6575081929394600092620006ca575b5050600019600383901b1c191690821b17905560ff90565b015190503880620006b2565b90601f198316958460005282600020926000905b8882106200070b57505083859697106200054657505050811b01905560ff90565b808785968294968601518155019501930190620006ea565b8360005283601f83600020920160051c820191601f850160051c015b8281106200074f57505062000696565b600081550184906200073f565b634e487b7160e01b600052602260045260246000fd5b90607f16906200068356fe60406080815260048036101561001457600080fd5b600091823560e01c80630ddb63b41461058b5780632f7801f4146105515780633f4ba83a146104b55780635c975abb1461048e578063715018a61461042d5780638456cb59146103cc57806384b0196e146102ae5780638da5cb5b14610285578063a17634aa14610258578063a7ecd37e146101a2578063d8ee36cb1461017a5763f2fde38b146100a457600080fd5b34610176576020366003190112610176576001600160a01b03823581811693919290849003610172576100d5610925565b8315610120575050600254826bffffffffffffffffffffffff60a01b821617600255167f8be0079c531659141344cd1fd0a4f28419497f9722a3daafe3b4186f6b6457e0600080a380f35b906020608492519162461bcd60e51b8352820152602660248201527f4f776e61626c653a206e6577206f776e657220697320746865207a65726f206160448201526564647265737360d01b6064820152fd5b8480fd5b8280fd5b5090346101765782600319360112610176575490516001600160a01b03909116815260209150f35b5034610176576020366003190112610176576001600160a01b03823581811693919290849003610172576101d4610925565b8315610215575080546001600160a01b031981168417909155167f2d025324f0a785e8c12d0a0d91a9caa49df4ef20ff87e0df7213a1d4f3157beb8380a380f35b906020606492519162461bcd60e51b8352820152601d60248201527f436c61696d56657269666965723a20496e76616c6964207369676e65720000006044820152fd5b83823461028157816003193601126102815760035490516001600160a01b039091168152602090f35b5080fd5b83823461028157816003193601126102815760025490516001600160a01b039091168152602090f35b50346101765782600319360112610176576102e87f00000000000000000000000000000000000000000000000000000000000000006109ed565b926103127f0000000000000000000000000000000000000000000000000000000000000000610b13565b908251926020928385019585871067ffffffffffffffff8811176103b75750928061036d838896610360998b9996528686528151998a99600f60f81b8b5260e0868c015260e08b01906108e5565b91898303908a01526108e5565b924660608801523060808801528460a088015286840360c088015251928381520193925b8281106103a057505050500390f35b835185528695509381019392810192600101610391565b604190634e487b7160e01b6000525260246000fd5b83823461028157816003193601126102815760207f62e78cea01bee320cd4e420270b5ea74000d11b0c9f74754ebdbfc544b05a2589161040a610925565b610412610c01565b6002805460ff60a01b1916600160a01b17905551338152a180f35b833461048b578060031936011261048b57610446610925565b600280546001600160a01b031981169091556000906001600160a01b03167f8be0079c531659141344cd1fd0a4f28419497f9722a3daafe3b4186f6b6457e08280a380f35b80fd5b83823461028157816003193601126102815760209060ff60025460a01c1690519015158152f35b5090346101765782600319360112610176576104cf610925565b6002549060ff8260a01c1615610517575060ff60a01b1916600255513381527f5db9ee0a495bf2e6ff9c91a7834c1ba4fdd244a5e8aa4e537bd38aeae4b073aa90602090a180f35b606490602084519162461bcd60e51b8352820152601460248201527314185d5cd8589b194e881b9bdd081c185d5cd95960621b6044820152fd5b50903461017657602036600319011261017657356001600160a01b0381169081900361017657828291602094526005845220549051908152f35b5082903461028157366003190160a0811261017657608013610281576084359067ffffffffffffffff8083116108e157366023840112156108e157828501359080821161017257602495368784870101116108dd576105e8610c01565b606435421161089b576105f9610be6565b6001600160a01b0390339082160361084a5733875260209560058752858820549460443595860361080857829189898c9381989796610636610be6565b8c519d8e017f923d15fc73b357f5cb2a849f069f6abbd924c63f6e875a016123b8c8e65390779052168b8d01528085359c8d60608201528b608082015260643560a082015260a081526106888161097d565b838151910120610696610e29565b908d519161190160f01b83526002830152602282015260429020958c519584601f19601f850116016106c890886109cb565b8287520183860137830101526106dd91610d62565b6106e690610c48565b81808454169116036107c85733885260058452858820805460001981146107b65760010190556003541691823b156107b257878760648b838a519788948593631844ba2b60e21b8552338a8601528401528760448401525af180156107a85761077e575b505083519485525083015233917f378eef8c0047510fb5922ab6b858f730bff87c11b94a3705c3656d0326b4bc9f9190a280f35b8297939711610796575083529394508486808061074a565b634e487b7160e01b8352604190528682fd5b86513d8a823e3d90fd5b8780fd5b634e487b7160e01b8a52601184528a8afd5b606482858b818a519362461bcd60e51b85528401528201527f436c61696d56657269666965723a20496e76616c6964207369676e61747572656044820152fd5b865162461bcd60e51b8152808501899052601c818c01527f436c61696d56657269666965723a20496e76616c6964206e6f6e6365000000006044820152606490fd5b845162461bcd60e51b81526020818401526026818a01527f436c61696d56657269666965723a204e6f7420696e74656e64656420666f722060448201526531b0b63632b960d11b6064820152608490fd5b606490601e88602087519362461bcd60e51b85528401528201527f436c61696d56657269666965723a20566f7563686572206578706972656400006044820152fd5b8580fd5b8380fd5b919082519283825260005b848110610911575050826000602080949584010152601f8019910116010190565b6020818301810151848301820152016108f0565b6002546001600160a01b0316330361093957565b606460405162461bcd60e51b815260206004820152602060248201527f4f776e61626c653a2063616c6c6572206973206e6f7420746865206f776e65726044820152fd5b60c0810190811067ffffffffffffffff82111761099957604052565b634e487b7160e01b600052604160045260246000fd5b6040810190811067ffffffffffffffff82111761099957604052565b90601f8019910116810190811067ffffffffffffffff82111761099957604052565b60ff8114610a2b5760ff811690601f8211610a195760405191610a0f836109af565b8252602082015290565b604051632cd44ac360e21b8152600490fd5b506040516000805490600182811c90808416938415610b09575b6020948584108114610af55783875286949392918115610ad55750600114610a79575b5050610a76925003826109cb565b90565b60008080527f290decd9548b62a8d60345a988386fc84ba6bc95484008f6362f93160ef3e56395935091905b818310610abd575050610a7693508201013880610a68565b85548784018501529485019486945091830191610aa5565b915050610a7694925060ff191682840152151560051b8201013880610a68565b634e487b7160e01b85526022600452602485fd5b91607f1691610a45565b60ff8114610b355760ff811690601f8211610a195760405191610a0f836109af565b50604051600060019081549182811c90808416938415610bdc575b6020948584108114610af55783875286949392918115610ad55750600114610b80575050610a76925003826109cb565b60008181527fb10e2d527612073b26eecdfd717e6a320cf44b4afac2b0732d9fcbe2b7fa0cf695935091905b818310610bc4575050610a7693508201013880610a68565b85548784018501529485019486945091830191610bac565b91607f1691610b50565b6004356001600160a01b0381168103610bfc5790565b600080fd5b60ff60025460a01c16610c1057565b60405162461bcd60e51b815260206004820152601060248201526f14185d5cd8589b194e881c185d5cd95960821b6044820152606490fd5b6005811015610d4c5780610c595750565b60018103610ca65760405162461bcd60e51b815260206004820152601860248201527f45434453413a20696e76616c6964207369676e617475726500000000000000006044820152606490fd5b60028103610cf35760405162461bcd60e51b815260206004820152601f60248201527f45434453413a20696e76616c6964207369676e6174757265206c656e677468006044820152606490fd5b600314610cfc57565b60405162461bcd60e51b815260206004820152602260248201527f45434453413a20696e76616c6964207369676e6174757265202773272076616c604482015261756560f01b6064820152608490fd5b634e487b7160e01b600052602160045260246000fd5b906041815114600014610d9057610d8c916020820151906060604084015193015160001a90610d9a565b9091565b5050600090600290565b9291907f7fffffffffffffffffffffffffffffff5d576e7357a4501ddfe92f46681b20a08311610e1d5791608094939160ff602094604051948552168484015260408301526060820152600093849182805260015afa15610e105781516001600160a01b03811615610e0a579190565b50600190565b50604051903d90823e3d90fd5b50505050600090600390565b307f00000000000000000000000000000000000000000000000000000000000000006001600160a01b03161480610f1a575b15610e84577f000000000000000000000000000000000000000000000000000000000000000090565b60405160208101907f8b73c3c69bb8fe3d512ecc4cf759cc79239f7b179b0ffacaa9a75d522b39400f82527f000000000000000000000000000000000000000000000000000000000000000060408201527f000000000000000000000000000000000000000000000000000000000000000060608201524660808201523060a082015260a08152610f148161097d565b51902090565b507f00000000000000000000000000000000000000000000000000000000000000004614610e5b56fea26469706673582212203fd4c645699c52c10a4d6a135a5e2d3e5a1a08c10de395426d7f20cb5e4f44fd64736f6c63430008140033",
  "linkReferences": {},
  "deployedLinkReferences": {}
}