{
  "_format": "hh-sol-artifact-1",
  "contractName": "PandorasProtocolFactory",
  "sourceName": "contracts/factory/PandorasProtocolFactory.sol",
  "abi": [
    {
      "anonymous": false,
      "inputs": [
        {
          "indexed": true,
          "internalType": "address",
          "name": "previousOwner",
          "type": "address"
        },
        {
          "indexed": true,
          "internalType": "address",
          "name": "newOwner",
          "type": "address"
        }
      ],
      "name": "OwnershipTransferred",
      "type": "event"
    },
    {
      "anonymous": false,
      "inputs": [
        {
          "indexed": true,
          "internalType": "address",
          "name": "owner",
          "type": "address"
        },
        {
          "indexed": true,
          "internalType": "bytes32",
          "name": "salt",
          "type": "bytes32"
        },
        {
          "indexed": false,
          "internalType": "address",
          "name": "registry",
          "type": "address"
        },
        {
          "indexed": false,
          "internalType": "address",
          "name": "utilityToken",
          "type": "address"
        },
        {
          "indexed": false,
          "internalType": "address",
          "name": "loom",
          "type": "address"
        },
        {
          "indexed": false,
          "internalType": "address",
          "name": "treasury",
          "type": "address"
        },
        {
          "indexed": false,
          "internalType": "address",
          "name": "governor",
          "type": "address"
        },
        {
          "indexed": false,
          "internalType": "address",
          "name": "licenseToken",
          "type": "address"
        }
      ],
      "name": "ProtocolDeployed",
      "type": "event"
    },
    {
      "inputs": [
        {
          "internalType": "bytes32",
          "name": "salt",
          "type": "bytes32"
        },
        {
          "components": [
            {
              "internalType": "address",
              "name": "pandoraRootTreasury",
              "type": "address"
            },
            {
              "internalType": "address",
              "name": "pandoraOracle",
              "type": "address"
            },
            {
              "internalType": "address",
              "name": "platformFeeWallet",
              "type": "address"
            },
            {
              "internalType": "address",
              "name": "creatorWallet",
              "type": "address"
            },
            {
              "internalType": "uint256",
              "name": "creatorPayoutPct",
              "type": "uint256"
            },
            {
              "internalType": "uint256",
              "name": "minQuorumPercentage",
              "type": "uint256"
            },
            {
              "internalType": "uint256",
              "name": "votingPeriodSeconds",
              "type": "uint256"
            },
            {
              "internalType": "uint256",
              "name": "emergencyPeriodSeconds",
              "type": "uint256"
            },
            {
              "internalType": "uint256",
              "name": "emergencyQuorumPct",
              "type": "uint256"
            },
            {
              "internalType": "uint256",
              "name": "stakingRewardRate",
              "type": "uint256"
            },
            {
              "internalType": "uint256",
              "name": "phiFundSplitPct",
              "type": "uint256"
            },
            {
              "internalType": "string",
              "name": "utilityTokenName",
              "type": "string"
            },
            {
              "internalType": "string",
              "name": "utilityTokenSymbol",
              "type": "string"
            },
            {
              "internalType": "uint256",
              "name": "utilityFeePercentage",
              "type": "uint256"
            },
            {
              "internalType": "string",
              "name": "licenseName",
              "type": "string"
            },
            {
              "internalType": "string",
              "name": "licenseSymbol",
              "type": "string"
            },
            {
              "internalType": "uint256",
              "name": "licenseMaxSupply",
              "type": "uint256"
            },
            {
              "internalType": "uint256",
              "name": "licensePrice",
              "type": "uint256"
            },
            {
              "internalType": "bool",
              "name": "licenseTransferable",
              "type": "bool"
            },
            {
              "internalType": "bool",
              "name": "licenseBurnable",
              "type": "bool"
            },
            {
              "internalType": "uint256",
              "name": "treasuryPandoraConfirmations",
              "type": "uint256"
            },
            {
              "internalType": "uint256",
              "name": "treasuryDaoConfirmations",
              "type": "uint256"
            },
            {
              "internalType": "uint256",
              "name": "treasuryEmergencyThreshold",
              "type": "uint256"
            },
            {
              "internalType": "uint256",
              "name": "treasuryEmergencyInactivityDays",
              "type": "uint256"
            },
            {
              "internalType": "uint256",
              "name": "treasuryDirectOperationLimit",
              "type": "uint256"
            },
            {
              "internalType": "uint256",
              "name": "treasuryDailySpendingLimit",
              "type": "uint256"
            },
            {
              "internalType": "address",
              "name": "initialOwner",
              "type": "address"
            }
          ],
          "internalType": "struct PandorasProtocolFactory.ProtocolConfig",
          "name": "config",
          "type": "tuple"
        },
        {
          "components": [
            {
              "internalType": "address[]",
              "name": "treasuryPandoraSigners",
              "type": "address[]"
            },
            {
              "internalType": "address[]",
              "name": "treasuryDaoSigners",
              "type": "address[]"
            }
          ],
          "internalType": "struct PandorasProtocolFactory.ProtocolActors",
          "name": "actors",
          "type": "tuple"
        },
        {
          "components": [
            {
              "internalType": "bytes",
              "name": "registry",
              "type": "bytes"
            },
            {
              "internalType": "bytes",
              "name": "utility",
              "type": "bytes"
            },
            {
              "internalType": "bytes",
              "name": "loom",
              "type": "bytes"
            },
            {
              "internalType": "bytes",
              "name": "treasury",
              "type": "bytes"
            },
            {
              "internalType": "bytes",
              "name": "governor",
              "type": "bytes"
            },
            {
              "internalType": "bytes",
              "name": "license",
              "type": "bytes"
            }
          ],
          "internalType": "struct PandorasProtocolFactory.ProtocolBytecodes",
          "name": "bytecodes",
          "type": "tuple"
        }
      ],
      "name": "deployProtocol",
      "outputs": [
        {
          "internalType": "address",
          "name": "registry",
          "type": "address"
        },
        {
          "internalType": "address",
          "name": "utilityToken",
          "type": "address"
        },
        {
          "internalType": "address",
          "name": "loom",
          "type": "address"
        },
        {
          "internalType": "address",
          "name": "treasury",
          "type": "address"
        },
        {
          "internalType": "address",
          "name": "governor",
          "type": "address"
        },
        {
          "internalType": "address",
          "name": "licenseToken",
          "type": "address"
        }
      ],
      "stateMutability": "nonpayable",
      "type": "function"
    },
    {
      "inputs": [],
      "name": "owner",
      "outputs": [
        {
          "internalType": "address",
          "name": "",
          "type": "address"
        }
      ],
      "stateMutability": "view",
      "type": "function"
    },
    {
      "inputs": [
        {
          "internalType": "bytes32",
          "name": "salt",
          "type": "bytes32"
        },
        {
          "internalType": "bytes",
          "name": "creationCode",
          "type": "bytes"
        }
      ],
      "name": "predictAddress",
      "outputs": [
        {
          "internalType": "address",
          "name": "",
          "type": "address"
        }
      ],
      "stateMutability": "view",
      "type": "function"
    },
    {
      "inputs": [],
      "name": "renounceOwnership",
      "outputs": [],
      "stateMutability": "nonpayable",
      "type": "function"
    },
    {
      "inputs": [
        {
          "internalType": "address",
          "name": "newOwner",
          "type": "address"
        }
      ],
      "name": "transferOwnership",
      "outputs": [],
      "stateMutability": "nonpayable",
      "type": "function"
    }
  ],
  "bytecode": "0x6080806040523461005b5760008054336001600160a01b0319821681178355916001600160a01b03909116907f8be0079c531659141344cd1fd0a4f28419497f9722a3daafe3b4186f6b6457e09080a36113e090816100618239f35b600080fdfe6080604052600436101561001257600080fd5b6000803560e01c8063715018a614610f9c5780638da5cb5b14610f75578063ccafb98814610207578063e2f03bba146101285763f2fde38b1461005457600080fd5b34610125576020366003190112610125576004356001600160a01b03818116918290036101205761008361107b565b81156100cc57600054826bffffffffffffffffffffffff60a01b821617600055167f8be0079c531659141344cd1fd0a4f28419497f9722a3daafe3b4186f6b6457e0600080a380f35b60405162461bcd60e51b815260206004820152602660248201527f4f776e61626c653a206e6577206f776e657220697320746865207a65726f206160448201526564647265737360d01b6064820152608490fd5b600080fd5b80fd5b5034610125576040366003190112610125576024356001600160401b039182821161012557366023830112156101255781600401359061016782611060565b91610175604051938461103f565b8083526020830193366024838301011161020357908060246020930186378301015251902090604051602081019260ff60f81b84523060601b602183015260043560358301526055820152605581526080810191818310908311176101ed576040829052519091206001600160a01b03168152602090f35b634e487b7160e01b600052604160045260246000fd5b8280fd5b503461012557600319608036820112610d86576001600160401b0360243511610d86576103608160243536030112610d86576001600160401b0360443511610d865760408160443536030112610d86576001600160401b0360643511610d865760c090606435360301126101255761027d61107b565b61030460206102d9610294600460643501806110d3565b92908160405130828201528181526102ab81611009565b6102cd86604051978895858701378401918383018a8152815194859201611105565b0103808452018261103f565b604051906102e682611009565b6008825267526567697374727960c01b602083015260043590611244565b61041660206103ec6103206024606435016064356004016110d3565b9290816103ca61033b610164602435016024356004016110d3565b610392610356610184602495949535016024356004016110d3565b9190610366604460243501611128565b9261038060405197889660c08b89015260e088019161113c565b858103601f190160408701529161113c565b601260608401526024356101a4013560808401526001600160a01b0390911660a08301523060c083015203601f19810183528261103f565b6102cd86604051978895858701378401918383018b8152815194859201611105565b604051906103f982611009565b60078252665574696c69747960c81b602083015260043590611244565b9061042b6044606435016064356004016110d3565b9061043a602435600401611128565b916104486024803501611128565b610456604460243501611128565b610464606460243501611128565b604080516001600160a01b0389811660208301528a8116928201929092529681166060880152306080880181905293811660a088015291821660c08701521660e0850152602435608481013561010086015260a481013561012086015260c481013561014086015260e48101356101608601526101048101356101808601526101248101356101a086015261014401356101c08501526101e08085019190915283526001600160401b03610200840190811190841117610f6157602083809361056793610200610592970160405280610220928385013782019081019089825261055383518093868601611105565b01038061020085015201610200830161103f565b6040519061057482611009565b60048252634c6f6f6d60e01b60208301526102006004359101611244565b6106d960206106ae6105ad60648035016064356004016110d3565b92908161068c6105c26004604435018061115d565b6106196105dc60246044959495350160443560040161115d565b91906105eb6024803501611128565b926106076040519788966101608b890152610180880191611192565b858103601f1901604087015291611192565b6001600160a01b039091166060830152306080830181905260243561028481013560a08501526102a481013560c08501526102c481013560e08501526102e4810135610100850152610304810135610120850152610324013561014084015261016083015203601f19810183528261103f565b6102cd86604051978895858701378401918383018d8152815194859201611105565b604051906106bb82611009565b6008825267547265617375727960c01b602083015260043590611244565b6106ed6084606435016064356004016110d3565b6040519130602084015260018060a01b038516604084015260a4602435013560608401526064608084015260c4602435013560a0840152610e1060c08401523060e084015260e08352826101008101106001600160401b0361010085011117610f4d57602083838194610799946101006107c8980160405261012084013781016101208101908b825261078583518093868601611105565b01038061010085015201610100830161103f565b604051906107a682611009565b600882526723b7bb32b93737b960c11b60208301526101006004359101611244565b9061091960206108ef6107e560a4606435016064356004016110d3565b9290818b6102cd6108d06108046101c4602435016024356004016110d3565b8b61081d6101e4602495949535016024356004016110d3565b9061082b6024803501611128565b9261087d61083e610244602435016111db565b9261084e610264602435016111db565b9461086b6040519a8b998f610120908c01526101408b019161113c565b888103601f190160408a01529161113c565b6024356102048101356060880152610224013560808701526001600160a01b0394851660a0870152931660c08501523060e08501521515610100840152151561012083015203601f19810183528261103f565b8760405198899686880137850192848401908152815194859201611105565b604051906108fc82611009565b60078252664c6963656e736560c81b602083015260043590611244565b926001600160a01b0381163b15610e5c57604051636b6a782760e01b81526001600160a01b038381166004830152889082906024908290849087165af18015610f4257610f2f575b506001600160a01b0382163b15610e5c576040516370d67e4960e01b81526001600160a01b038481166004830152889190829082906024908290849089165af18015610d7b57610f1b575b50506001600160a01b0383163b15610e5c57604051636d3c18d360e01b81526001600160a01b03858116600483015288919082908290602490829084908a165af18015610d7b57610f07575b50506001600160a01b0383163b15610e5c57604051630f82226560e41b81526001600160a01b03828116600483015288919082908290602490829084908a165af18015610d7b57610ef3575b50604051630f82226560e41b602082019081526001600160a01b03841660248084019190915282528291610a7781611024565b5190828a5af1610a856111e8565b5015610e9c576001600160a01b0385163b15610e5c576040516319d8ed7560e01b81526001600160a01b0385811660048301526002602483015288919082908290604490829084908c165af18015610d7b57610e88575b50506001600160a01b0382163b15610e5c5760405163f2fde38b60e01b81526001600160a01b038481166004830152889190829082906024908290849089165af18015610d7b57610e74575b50506001600160a01b0381163b15610e5c5760405163f2fde38b60e01b81526001600160a01b038481166004830152889190829082906024908290849088165af18015610d7b57610e60575b50506001600160a01b0385163b15610e5c5760405163f2fde38b60e01b81526001600160a01b03848116600483015288919082908290602490829084908c165af18015610d7b57610e48575b5060405163f2fde38b60e01b602082019081526001600160a01b03861660248084019190915282528291610bf381611024565b5190828a5af1610c016111e8565b5015610de9578680604051602081019063f2fde38b60e01b825260018060a01b038716602482015260248152610c3681611024565b519082885af1610c446111e8565b5015610d8a576103446024350196610c5b88611128565b6001600160a01b0385163b15610d865760405163f2fde38b60e01b81526001600160a01b0391821660048201529082908290602490829084908a165af18015610d7b57610d67575b505084610d63959697610cbc60018060a01b0391611128565b604080516001600160a01b0394851681528b85166020820152858516918101919091528584166060820152868416608082015292871660a0840152600435929116907f2bdb91374d2eceb98a0ac2f7787cfd0f0d6f69722cbb63df5a3aae8d7ddc3a6d9060c090a3604080516001600160a01b039788168152978716602089015290861690870152841660608601528316608085015290911660a0830152819060c0820190565b0390f35b610d718291610ff6565b6101255780610ca3565b6040513d84823e3d90fd5b5080fd5b60405162461bcd60e51b815260206004820152603160248201527f50616e646f726173466163746f72793a206c6963656e7365207472616e7366656044820152701c93dddb995c9cda1a5c0819985a5b1959607a1b6064820152608490fd5b60405162461bcd60e51b815260206004820152603160248201527f50616e646f726173466163746f72793a207574696c697479207472616e7366656044820152701c93dddb995c9cda1a5c0819985a5b1959607a1b6064820152608490fd5b610e5190610ff6565b610e5c578638610bc0565b8680fd5b610e6990610ff6565b610e5c578638610b74565b610e7d90610ff6565b610e5c578638610b28565b610e9190610ff6565b610e5c578638610adc565b60405162461bcd60e51b815260206004820152602960248201527f50616e646f726173466163746f72793a207365745732454c6f6f6d41646472656044820152681cdcc819985a5b195960ba1b6064820152608490fd5b610efc90610ff6565b610e5c578638610a44565b610f1090610ff6565b610e5c5786386109f8565b610f2490610ff6565b610e5c5786386109ac565b610f3b90979197610ff6565b9538610961565b6040513d8a823e3d90fd5b634e487b7160e01b88526041600452602488fd5b634e487b7160e01b86526041600452602486fd5b5034610125578060031936011261012557546040516001600160a01b039091168152602090f35b5034610125578060031936011261012557610fb561107b565b80546001600160a01b03198116825581906001600160a01b03167f8be0079c531659141344cd1fd0a4f28419497f9722a3daafe3b4186f6b6457e08280a380f35b6001600160401b0381116101ed57604052565b604081019081106001600160401b038211176101ed57604052565b606081019081106001600160401b038211176101ed57604052565b90601f801991011681019081106001600160401b038211176101ed57604052565b6001600160401b0381116101ed57601f01601f191660200190565b6000546001600160a01b0316330361108f57565b606460405162461bcd60e51b815260206004820152602060248201527f4f776e61626c653a2063616c6c6572206973206e6f7420746865206f776e65726044820152fd5b903590601e198136030182121561012057018035906001600160401b0382116101205760200191813603831361012057565b60005b8381106111185750506000910152565b8181015183820152602001611108565b356001600160a01b03811681036101205790565b908060209392818452848401376000828201840152601f01601f1916010190565b903590601e198136030182121561012057018035906001600160401b03821161012057602001918160051b3603831361012057565b9190808252602080920192916000805b8382106111b157505050505090565b9091929394853560018060a01b0381168091036102035781528301948301939291600101906111a2565b3580151581036101205790565b3d15611213573d906111f982611060565b91611207604051938461103f565b82523d6000602084013e565b606090565b604091602082526112388151809281602086015260208686019101611105565b601f01601f1916010190565b929192805115611359576020815191016000f5916001600160a01b038316156112f75763ffffffff833b16156112775750565b6112f3906112db604460405180937f50616e646f726173466163746f72793a20456d70747920636f646573697a652060208301526303337b9160e51b60408301526112cb8151809260208686019101611105565b810103602481018452018261103f565b60405162461bcd60e51b815291829160048301611218565b0390fd5b6112f3906112db604260405180937f50616e646f726173466163746f72793a204661696c656420746f206465706c6f60208301526103c960f51b60408301526113498151809260208686019101611105565b810103602281018452018261103f565b60405162461bcd60e51b8152602060048201526024808201527f50616e646f726173466163746f72793a20456d707479206372656174696f6e20604482015263636f646560e01b6064820152608490fdfea26469706673582212201085f4dd98fd6e8d04f0184b54732ffed532fe97be2c0441a08147e60f5c20c764736f6c63430008140033",
  "linkReferences": {},
  "deployedLinkReferences": {}
}