{
  "_format": "hh-sol-artifact-1",
  "contractName": "W2EGovernor",
  "sourceName": "contracts/core/W2EGovernor.sol",
  "abi": [
    {
      "inputs": [
        {
          "internalType": "address",
          "name": "_licenseToken",
          "type": "address"
        },
        {
          "internalType": "address",
          "name": "_w2eLoomAddress",
          "type": "address"
        },
        {
          "internalType": "uint256",
          "name": "_quorumPercentage",
          "type": "uint256"
        },
        {
          "internalType": "uint256",
          "name": "_votingDelaySeconds",
          "type": "uint256"
        },
        {
          "internalType": "uint256",
          "name": "_votingPeriodSeconds",
          "type": "uint256"
        },
        {
          "internalType": "uint256",
          "name": "_executionDelaySeconds",
          "type": "uint256"
        },
        {
          "internalType": "address",
          "name": "initialOwner",
          "type": "address"
        }
      ],
      "stateMutability": "nonpayable",
      "type": "constructor"
    },
    {
      "anonymous": false,
      "inputs": [
        {
          "indexed": true,
          "internalType": "address",
          "name": "previousOwner",
          "type": "address"
        },
        {
          "indexed": true,
          "internalType": "address",
          "name": "newOwner",
          "type": "address"
        }
      ],
      "name": "OwnershipTransferred",
      "type": "event"
    },
    {
      "anonymous": false,
      "inputs": [
        {
          "indexed": true,
          "internalType": "uint256",
          "name": "proposalId",
          "type": "uint256"
        },
        {
          "indexed": true,
          "internalType": "address",
          "name": "proposer",
          "type": "address"
        },
        {
          "indexed": false,
          "internalType": "string",
          "name": "description",
          "type": "string"
        },
        {
          "indexed": false,
          "internalType": "enum W2EGovernor.ProposalType",
          "name": "proposalType",
          "type": "uint8"
        }
      ],
      "name": "ProposalCreated",
      "type": "event"
    },
    {
      "anonymous": false,
      "inputs": [
        {
          "indexed": true,
          "internalType": "uint256",
          "name": "proposalId",
          "type": "uint256"
        }
      ],
      "name": "ProposalExecuted",
      "type": "event"
    },
    {
      "anonymous": false,
      "inputs": [
        {
          "indexed": true,
          "internalType": "uint256",
          "name": "proposalId",
          "type": "uint256"
        },
        {
          "indexed": true,
          "internalType": "address",
          "name": "voter",
          "type": "address"
        },
        {
          "indexed": false,
          "internalType": "bool",
          "name": "support",
          "type": "bool"
        },
        {
          "indexed": false,
          "internalType": "uint256",
          "name": "weight",
          "type": "uint256"
        }
      ],
      "name": "VoteCast",
      "type": "event"
    },
    {
      "inputs": [],
      "name": "DEFAULT_VOTING_PERIOD",
      "outputs": [
        {
          "internalType": "uint256",
          "name": "",
          "type": "uint256"
        }
      ],
      "stateMutability": "view",
      "type": "function"
    },
    {
      "inputs": [],
      "name": "MAX_VOTING_PERIOD",
      "outputs": [
        {
          "internalType": "uint256",
          "name": "",
          "type": "uint256"
        }
      ],
      "stateMutability": "view",
      "type": "function"
    },
    {
      "inputs": [],
      "name": "MIN_EXECUTION_DELAY",
      "outputs": [
        {
          "internalType": "uint256",
          "name": "",
          "type": "uint256"
        }
      ],
      "stateMutability": "view",
      "type": "function"
    },
    {
      "inputs": [],
      "name": "MIN_QUORUM_PERCENTAGE",
      "outputs": [
        {
          "internalType": "uint256",
          "name": "",
          "type": "uint256"
        }
      ],
      "stateMutability": "view",
      "type": "function"
    },
    {
      "inputs": [],
      "name": "MIN_VOTING_DELAY_SECONDS",
      "outputs": [
        {
          "internalType": "uint256",
          "name": "",
          "type": "uint256"
        }
      ],
      "stateMutability": "view",
      "type": "function"
    },
    {
      "inputs": [],
      "name": "activeProposalCount",
      "outputs": [
        {
          "internalType": "uint256",
          "name": "",
          "type": "uint256"
        }
      ],
      "stateMutability": "view",
      "type": "function"
    },
    {
      "inputs": [
        {
          "internalType": "uint256",
          "name": "proposalId",
          "type": "uint256"
        }
      ],
      "name": "canExecute",
      "outputs": [
        {
          "internalType": "bool",
          "name": "",
          "type": "bool"
        }
      ],
      "stateMutability": "view",
      "type": "function"
    },
    {
      "inputs": [
        {
          "internalType": "uint256",
          "name": "proposalId",
          "type": "uint256"
        }
      ],
      "name": "execute",
      "outputs": [],
      "stateMutability": "nonpayable",
      "type": "function"
    },
    {
      "inputs": [],
      "name": "executionDelay",
      "outputs": [
        {
          "internalType": "uint256",
          "name": "",
          "type": "uint256"
        }
      ],
      "stateMutability": "view",
      "type": "function"
    },
    {
      "inputs": [],
      "name": "getGovernanceMetrics",
      "outputs": [
        {
          "internalType": "uint256",
          "name": "totalProposals",
          "type": "uint256"
        },
        {
          "internalType": "uint256",
          "name": "activeProposals",
          "type": "uint256"
        }
      ],
      "stateMutability": "view",
      "type": "function"
    },
    {
      "inputs": [
        {
          "internalType": "uint256",
          "name": "proposalId",
          "type": "uint256"
        }
      ],
      "name": "getProposalState",
      "outputs": [
        {
          "internalType": "enum W2EGovernor.ProposalState",
          "name": "",
          "type": "uint8"
        }
      ],
      "stateMutability": "view",
      "type": "function"
    },
    {
      "inputs": [],
      "name": "licenseToken",
      "outputs": [
        {
          "internalType": "contract IW2ELicense",
          "name": "",
          "type": "address"
        }
      ],
      "stateMutability": "view",
      "type": "function"
    },
    {
      "inputs": [],
      "name": "owner",
      "outputs": [
        {
          "internalType": "address",
          "name": "",
          "type": "address"
        }
      ],
      "stateMutability": "view",
      "type": "function"
    },
    {
      "inputs": [],
      "name": "proposalCount",
      "outputs": [
        {
          "internalType": "uint256",
          "name": "",
          "type": "uint256"
        }
      ],
      "stateMutability": "view",
      "type": "function"
    },
    {
      "inputs": [
        {
          "internalType": "uint256",
          "name": "",
          "type": "uint256"
        }
      ],
      "name": "proposals",
      "outputs": [
        {
          "internalType": "uint256",
          "name": "id",
          "type": "uint256"
        },
        {
          "internalType": "address",
          "name": "proposer",
          "type": "address"
        },
        {
          "internalType": "string",
          "name": "description",
          "type": "string"
        },
        {
          "internalType": "uint256",
          "name": "startTime",
          "type": "uint256"
        },
        {
          "internalType": "uint256",
          "name": "endTime",
          "type": "uint256"
        },
        {
          "internalType": "uint256",
          "name": "forVotes",
          "type": "uint256"
        },
        {
          "internalType": "uint256",
          "name": "againstVotes",
          "type": "uint256"
        },
        {
          "internalType": "enum W2EGovernor.ProposalState",
          "name": "state",
          "type": "uint8"
        },
        {
          "internalType": "enum W2EGovernor.ProposalType",
          "name": "proposalType",
          "type": "uint8"
        },
        {
          "internalType": "bool",
          "name": "executed",
          "type": "bool"
        }
      ],
      "stateMutability": "view",
      "type": "function"
    },
    {
      "inputs": [
        {
          "internalType": "address[]",
          "name": "targets",
          "type": "address[]"
        },
        {
          "internalType": "uint256[]",
          "name": "values",
          "type": "uint256[]"
        },
        {
          "internalType": "bytes[]",
          "name": "calldatas",
          "type": "bytes[]"
        },
        {
          "internalType": "string",
          "name": "description",
          "type": "string"
        }
      ],
      "name": "propose",
      "outputs": [
        {
          "internalType": "uint256",
          "name": "",
          "type": "uint256"
        }
      ],
      "stateMutability": "nonpayable",
      "type": "function"
    },
    {
      "inputs": [
        {
          "internalType": "address payable",
          "name": "recipient",
          "type": "address"
        },
        {
          "internalType": "uint256",
          "name": "amount",
          "type": "uint256"
        },
        {
          "internalType": "string",
          "name": "description",
          "type": "string"
        }
      ],
      "name": "proposeFundingRelease",
      "outputs": [
        {
          "internalType": "uint256",
          "name": "",
          "type": "uint256"
        }
      ],
      "stateMutability": "nonpayable",
      "type": "function"
    },
    {
      "inputs": [],
      "name": "quorumPercentage",
      "outputs": [
        {
          "internalType": "uint256",
          "name": "",
          "type": "uint256"
        }
      ],
      "stateMutability": "view",
      "type": "function"
    },
    {
      "inputs": [],
      "name": "renounceOwnership",
      "outputs": [],
      "stateMutability": "nonpayable",
      "type": "function"
    },
    {
      "inputs": [
        {
          "internalType": "uint256",
          "name": "newQuorum",
          "type": "uint256"
        }
      ],
      "name": "setQuorumPercentage",
      "outputs": [],
      "stateMutability": "nonpayable",
      "type": "function"
    },
    {
      "inputs": [
        {
          "internalType": "uint256",
          "name": "newPeriod",
          "type": "uint256"
        }
      ],
      "name": "setVotingPeriod",
      "outputs": [],
      "stateMutability": "nonpayable",
      "type": "function"
    },
    {
      "inputs": [
        {
          "internalType": "address",
          "name": "newOwner",
          "type": "address"
        }
      ],
      "name": "transferOwnership",
      "outputs": [],
      "stateMutability": "nonpayable",
      "type": "function"
    },
    {
      "inputs": [
        {
          "internalType": "uint256",
          "name": "proposalId",
          "type": "uint256"
        },
        {
          "internalType": "bool",
          "name": "support",
          "type": "bool"
        }
      ],
      "name": "vote",
      "outputs": [],
      "stateMutability": "nonpayable",
      "type": "function"
    },
    {
      "inputs": [
        {
          "internalType": "uint256",
          "name": "",
          "type": "uint256"
        },
        {
          "internalType": "address",
          "name": "",
          "type": "address"
        }
      ],
      "name": "votes",
      "outputs": [
        {
          "internalType": "bool",
          "name": "hasVoted",
          "type": "bool"
        },
        {
          "internalType": "bool",
          "name": "support",
          "type": "bool"
        },
        {
          "internalType": "uint256",
          "name": "weight",
          "type": "uint256"
        }
      ],
      "stateMutability": "view",
      "type": "function"
    },
    {
      "inputs": [],
      "name": "votingDelaySeconds",
      "outputs": [
        {
          "internalType": "uint256",
          "name": "",
          "type": "uint256"
        }
      ],
      "stateMutability": "view",
      "type": "function"
    },
    {
      "inputs": [],
      "name": "votingPeriod",
      "outputs": [
        {
          "internalType": "uint256",
          "name": "",
          "type": "uint256"
        }
      ],
      "stateMutability": "view",
      "type": "function"
    },
    {
      "inputs": [],
      "name": "w2eLoomAddress",
      "outputs": [
        {
          "internalType": "address",
          "name": "",
          "type": "address"
        }
      ],
      "stateMutability": "view",
      "type": "function"
    }
  ],
  "bytecode": "0x608034620002f857601f62001f5638819003918201601f191683019291906001600160401b03841183851017620002fd578160e09284926040968752833981010312620002f857620000518162000313565b60206200006081840162000313565b9084840151906060850151926080860151946200008560c060a0890151980162000313565b506000549060018060a01b031992338484161760005589519260018060a01b03928391823391167f8be0079c531659141344cd1fd0a4f28419497f9722a3daafe3b4186f6b6457e0600080a36001805516928315620002b65750169283156200027357600a8510158062000267575b15620002245760648610620001e1576201518087101580620001d3575b156200019057610e1088106200014d5750816002541617600255600354161760035560045560075560055560065551611c2d9081620003298239f35b60649089519062461bcd60e51b82526004820152601e60248201527f5732453a20457865637574696f6e2064656c617920746f6f2073686f727400006044820152fd5b60649089519062461bcd60e51b82526004820152601c60248201527f5732453a20566f74696e6720706572696f6420746f6f2073686f7274000000006044820152fd5b5062278d0087111562000111565b60649089519062461bcd60e51b82526004820152601b60248201527f5732453a20566f74696e672064656c617920746f6f2073686f727400000000006044820152fd5b60649089519062461bcd60e51b82526004820152601360248201527f5732453a20496e76616c69642071756f72756d000000000000000000000000006044820152fd5b506064851115620000f4565b60649089519062461bcd60e51b82526004820152601960248201527f5732453a20496e76616c6964206c6f6f6d2061646472657373000000000000006044820152fd5b62461bcd60e51b815260048101869052601a60248201527f5732453a20496e76616c6964206c6963656e736520746f6b656e0000000000006044820152606490fd5b600080fd5b634e487b7160e01b600052604160045260246000fd5b51906001600160a01b0382168203620002f85756fe6080806040526004908136101561001557600080fd5b60003560e01c908163013cf08b146110c75750806302a251a3146110a95780631156575d1461108b578063261f8a17146110665780632627780d1461104a57806332f6a1dc14610fd55780634fa76ec914610fb757806351ec538214610f8e5780636238099a14610dba578063715018a614610d6157806376e4309914610d435780637d5e81e214610b915780638b25798914610b735780638da5cb5b14610b4a5780639080936f14610b125780639e05220d14610ae9578063a64e024a14610acb578063aedfe53f14610aad578063b39b144414610a91578063bcbde21214610a74578063c9d27afe146106fe578063cc63604a146106d6578063d23254b41461066c578063da35c6641461064e578063ea0217cf146105d2578063f2fde38b146105065763fe0d94c11461014a57600080fd5b3461047557602036600319011261047557610163611a9a565b803560005260086020526040600020600a81019060ff825460101c166104ca57600781015442111561048e57806008849201546009820154906101a68282611432565b60025460405163144613ff60e31b81529760209189919082906001600160a01b03165afa801561048257600090610449575b6101ea9750606497889187549061143f565b04116104065711156103ca5760005b600282015481101561038e576102128160028401611af0565b905460039190911b1c6001600160a01b0316803b1561034b576102388260038501611af0565b90549060031b1c61024b83868601611af0565b5090604051916000908054906102608261123b565b916001811690811561033457506001146102ff575b5050916000939181859403925af13d156102fa573d6102938161132c565b906102a160405192836112a7565b8152600060203d92013e5b156102bf576102ba9061140d565b6101f9565b60405162461bcd60e51b8152602081850152601560248201527415cc914e88115e1958dd5d1a5bdb8819985a5b1959605a1b60448201528590fd5b6102ac565b90915060005260206000206000905b82821061032057505082018183610275565b60018160209254848801520191019061030e565b60ff19168652505080151502830190508183610275565b60405162461bcd60e51b8152602081860152601d60248201527f5732453a20546172676574206973206e6f74206120636f6e747261637400000060448201528690fd5b835462ff00ff19166201000417845582357f712ae1383f79ac853f8d882153778e0260ef8f03b504e2866e0593e04d2b291f600080a260018055005b60405162461bcd60e51b8152602081840152601660248201527515cc914e88141c9bdc1bdcd85b0819195999585d195960521b60448201528490fd5b60405162461bcd60e51b8152602081860152601760248201527f5732453a2051756f72756d206e6f74207265616368656400000000000000000060448201528690fd5b506020873d60201161047a575b81610463602093836112a7565b81010312610475576101ea96516101d8565b600080fd5b3d9150610456565b6040513d6000823e3d90fd5b60405162461bcd60e51b8152602081850152601560248201527415cc914e88159bdd1a5b99c81b9bdd08195b991959605a1b6044820152606490fd5b60405162461bcd60e51b8152602081850152601560248201527415cc914e88105b1c9958591e48195e1958dd5d1959605a1b6044820152606490fd5b5034610475576020366003190112610475576001600160a01b0381358181169290839003610475576105366113b5565b821561057f5750600054826bffffffffffffffffffffffff60a01b821617600055167f8be0079c531659141344cd1fd0a4f28419497f9722a3daafe3b4186f6b6457e0600080a3005b60849060206040519162461bcd60e51b8352820152602660248201527f4f776e61626c653a206e6577206f776e657220697320746865207a65726f206160448201526564647265737360d01b6064820152fd5b5034610475576020366003190112610475578035906105ef6113b5565b6201518082101580610641575b156106075750600555005b60649060206040519162461bcd60e51b8352820152601360248201527215cc914e88125b9d985b1a59081c195c9a5bd9606a1b6044820152fd5b5062278d008211156105fc565b34610475576000366003190112610475576020600b54604051908152f35b5034610475576040366003190112610475576024356001600160a01b038116919082900361047557356000526009602052604060002090600052602052606060406000206001815491015460ff604051928181161515845260081c16151560208301526040820152f35b5034610475576020366003190112610475576106f460209135611b08565b6040519015158152f35b50346104755760403660031901126104755780356024803592831515938481036104755761072a611a9a565b83600052602091600883526040600020600a81019260ff8454166005811015610a60578015908115610a55575b5015610a1257600682015442106109cf5760078201544211610998578660005260098552604060002033600052855260ff60406000205416610960576002546040516309ab24eb60e41b81523381860152969392919086908890869082906001600160a01b03165afa96871561048257600097610931575b5086156108f7576040516060810181811067ffffffffffffffff8211176108e3576040526001815260018782018b815260408301908a82528b60005260098a526040600020336000528a526040600020935115159060ff61ff0086549251151560081b1692169061ffff191617178355519101556000146108ce57600801610858868254611432565b90555b82549160ff83169160058310156108bb575050156108ab575b50506040519384528301527fcbdf6214089cba887ecbf35a0b6a734589959c9763342c756bb2a80ca2bc9f6e60403393a360018055005b60ff191660011790553880610874565b602190634e487b7160e01b600052526000fd5b6009016108dc868254611432565b905561085b565b85604186634e487b7160e01b600052526000fd5b60405162461bcd60e51b8152808401879052601481860152732b99229d102737903b37ba34b733903837bbb2b960611b6044820152606490fd5b9096508581813d8311610959575b61094981836112a7565b81010312610475575195386107cf565b503d61093f565b60405162461bcd60e51b81528084018690526012818801527115cc914e88105b1c9958591e481d9bdd195960721b6044820152606490fd5b60405162461bcd60e51b81528084018690526011818801527015cc914e88159bdd1a5b99c8195b991959607a1b6044820152606490fd5b60405162461bcd60e51b81528084018690526017818801527f5732453a20566f74696e67206e6f7420737461727465640000000000000000006044820152606490fd5b60405162461bcd60e51b81528084018690526018818801527f5732453a2050726f706f73616c206e6f742061637469766500000000000000006044820152606490fd5b600191501438610757565b86602185634e487b7160e01b600052526000fd5b34610475576000366003190112610475576020604051610e108152f35b3461047557600036600319011261047557602060405160648152f35b3461047557600036600319011261047557602060405162093a808152f35b3461047557600036600319011261047557602060405162278d008152f35b34610475576000366003190112610475576003546040516001600160a01b039091168152602090f35b503461047557602036600319011261047557356000526008602052602060ff600a6040600020015416610b486040518092611309565bf35b34610475576000366003190112610475576000546040516001600160a01b039091168152602090f35b34610475576000366003190112610475576020600654604051908152f35b50346104755760803660031901126104755780359067ffffffffffffffff80831161047557366023840112156104755782820135610bce8161139d565b91610bdc60405193846112a7565b8183526020948584016024809460051b83010191368311610475578401905b828210610d245750505081359080821161047557366023830112156104755781850135610c278161139d565b92610c3560405194856112a7565b818452848885019260051b820101913683116104755785899201905b838210610d15575050505060449283359082821161047557366023830112156104755781870135610c818161139d565b95610c8f60405197886112a7565b818752828a88019260051b8501019336851161047557838101925b858410610cdf5750505050505060643590811161047557610cd794610cd19136910161137f565b926114d3565b604051908152f35b833587811161047557820136604382011215610475578c91610d0a83923690878a8201359101611348565b815201930192610caa565b81358152908201908201610c51565b81356001600160a01b0381168103610475578152908701908701610bfb565b34610475576000366003190112610475576020600a54604051908152f35b3461047557600036600319011261047557610d7a6113b5565b600080546001600160a01b0319811682556001600160a01b03167f8be0079c531659141344cd1fd0a4f28419497f9722a3daafe3b4186f6b6457e08280a3005b5034610475576060806003193601126104755781356001600160a01b038181169391849003610475576024359360443567ffffffffffffffff811161047557610e06903690850161137f565b928115610f51578515610f0d575060405190602095634d784ac160e01b8784015260248301526044820152836064820152610e5681610e4860848201866112c9565b03601f1981018352826112a7565b604051610e6281611275565b6001815285368183013760405191610e7983611275565b6001835286368185013760405193610e9085611275565b600185528760005b818110610efe575050610ed9965060035416610eb383611a77565b526000610ebf84611a77565b52610ec984611a77565b52610ed383611a77565b506114d3565b8060005260088252600a60406000200161010061ff0019825416179055604051908152f35b88828289010152018890610e98565b60649060206040519162461bcd60e51b8352820152601c60248201527f5732453a20416d6f756e74206d75737420626520706f736974697665000000006044820152fd5b60649060206040519162461bcd60e51b8352820152601660248201527515cc914e88125b9d985b1a59081c9958da5c1a595b9d60521b6044820152fd5b34610475576000366003190112610475576002546040516001600160a01b039091168152602090f35b50346104755760003660031901126104755760209054604051908152f35b503461047557602036600319011261047557803590610ff26113b5565b600a8210158061103f575b156110055755005b60649060206040519162461bcd60e51b835282015260136024820152725732453a20496e76616c69642071756f72756d60681b6044820152fd5b506064821115610ffd565b34610475576000366003190112610475576020604051600a8152f35b34610475576000366003190112610475576040600b54600a5482519182526020820152f35b34610475576000366003190112610475576020600754604051908152f35b34610475576000366003190112610475576020600554604051908152f35b823461047557602091826003193601126104755781356000526008835260406000209283549260019460018060a01b038682015416958460058301916000908354936111128561123b565b948585528883821691826000146112195750506001146111da575b505061113b925003856112a7565b600681015493600782015461117c600884015492600a60098601549501549960ff8b60081c16976040519a8b528a01526101408060408b01528901906112c9565b956060880152608087015260a086015260c08501526111a160e0850160ff8716611309565b808210156111c55750829360ff9161010085015260101c1615156101208301520390f35b602190634e487b7160e01b6000525260246000fd5b87925060005281600020906000915b85831061120157505061113b9350820101898061112d565b8054838b0185015289945088939092019181016111e9565b925093505061113b94915060ff191682840152151560051b820101898061112d565b90600182811c9216801561126b575b602083101461125557565b634e487b7160e01b600052602260045260246000fd5b91607f169161124a565b6040810190811067ffffffffffffffff82111761129157604052565b634e487b7160e01b600052604160045260246000fd5b90601f8019910116810190811067ffffffffffffffff82111761129157604052565b919082519283825260005b8481106112f5575050826000602080949584010152601f8019910116010190565b6020818301810151848301820152016112d4565b9060058210156113165752565b634e487b7160e01b600052602160045260246000fd5b67ffffffffffffffff811161129157601f01601f191660200190565b9291926113548261132c565b9161136260405193846112a7565b829481845281830111610475578281602093846000960137010152565b9080601f830112156104755781602061139a93359101611348565b90565b67ffffffffffffffff81116112915760051b60200190565b6000546001600160a01b031633036113c957565b606460405162461bcd60e51b815260206004820152602060248201527f4f776e61626c653a2063616c6c6572206973206e6f7420746865206f776e65726044820152fd5b600019811461141c5760010190565b634e487b7160e01b600052601160045260246000fd5b9190820180921161141c57565b8181029291811591840414171561141c57565b81811061145d575050565b60008155600101611452565b9181811061147657505050565b61148c9260005260206000209182019101611452565b565b9190601f811161149d57505050565b61148c926000526020600020906020601f840160051c830193106114c9575b601f0160051c0190611452565b90915081906114bc565b90929192815181518091149081611a6c575b5015611a2f578151156119f4576114fd600b5461140d565b9384600b556007549061152661151d6115168442611432565b9342611432565b60055490611432565b92604051946101a0860186811067ffffffffffffffff821117611291576040528786523360208701526040860152606085015260808401528360a084015260c083015260e0820152600061010082015260006101208201526000610140820152600061016082015260006101808201528260005260086020526040600020815181556001810160018060a01b036020840151166bffffffffffffffffffffffff60a01b825416179055604082015180519067ffffffffffffffff821161129157600160401b8211611291576020600284019161160784845481865585611469565b0190600052602060002060005b8381106119d75750505050606082015180519067ffffffffffffffff821161129157600160401b8211611291576020600384019161165784845481865585611469565b0190600052602060002060005b8381106119c357505050506080820151805190600160401b821161129157600483015482600485015580831061194a575b5060200190600483016000526020600020916000905b828210611866575050505060a082015180519067ffffffffffffffff8211611291576116e7826116de600586015461123b565b6005860161148e565b602090601f83116001146117f357600a939291600091836117e8575b50508160011b916000199060031b1c19161760058201555b60c0830151600682015560e08301516007820155610100830151600882015561012083015160098201550190610140810151906005821015611316578254906101608101519160048310156113165760ff62ff000061018061ff00940151151560101b1694169062ffffff1916179160081b161717905561179d600a5461140d565b600a55817fe0269f7953e70365e80e614e4efe7d4bede59b7f5ad80982ea4064c97ee6f4ef6117d7604051936040855260408501906112c9565b92600060208201528033940390a390565b015190503880611703565b906005840160005260206000209160005b601f198516811061184e5750918391600193600a9695601f19811610611835575b505050811b01600582015561171b565b015160001960f88460031b161c19169055388080611825565b91926020600181928685015181550194019201611804565b805180519067ffffffffffffffff82116112915761188e82611888885461123b565b8861148e565b602090601f83116001146118da5792826001949360209386956000926118cf575b5050600019600383901b1c191690841b1787555b019401910190926116ab565b0151905038806118af565b908660005260206000209160005b601f1985168110611932575083602093600196938796938794601f19811610611919575b505050811b0187556118c3565b015160001960f88460031b161c1916905538808061190c565b919260206001819286850151815501940192016118e8565b600484016000526020600020908382015b818301811061196b575050611695565b806119786001925461123b565b80611985575b500161195b565b601f90818111841461199e575050600081555b3861197e565b6119ba60009284845260208420920160051c8201858301611452565b81835555611998565b600190602084519401938184015501611664565b82516001600160a01b031681830155602090920191600101611614565b60405162461bcd60e51b815260206004820152601360248201527215cc914e88115b5c1d1e481c1c9bdc1bdcd85b606a1b6044820152606490fd5b60405162461bcd60e51b815260206004820152601560248201527415cc914e88125b9d985b1a59081c1c9bdc1bdcd85b605a1b6044820152606490fd5b9050845114386114e5565b805115611a845760200190565b634e487b7160e01b600052603260045260246000fd5b600260015414611aab576002600155565b60405162461bcd60e51b815260206004820152601f60248201527f5265656e7472616e637947756172643a207265656e7472616e742063616c6c006044820152606490fd5b8054821015611a845760005260206000200190600090565b60009081526008602052604081209060ff600a83015460101c168015611be9575b611be4576009600883015492015490611b428284611432565b60025460405163144613ff60e31b815291929190602090829060049082906001600160a01b03165afa918215611bd8578092611b9e575b5050611b8a6064916004549061143f565b0411159182611b9857505090565b11919050565b9091506020823d8211611bd0575b81611bb9602093836112a7565b81010312611bcd575051611b8a6064611b79565b80fd5b3d9150611bac565b604051903d90823e3d90fd5b905090565b506007820154421115611b2956fea26469706673582212208fd32ab1adbc80134cb59c487009ae97c3b53ea3e2985604bd01d67efbe69ddf64736f6c63430008140033",
  "linkReferences": {},
  "deployedLinkReferences": {}
}