{
  "_format": "hh-sol-artifact-1",
  "contractName": "W2EGovernor",
  "sourceName": "contracts/core/W2EGovernor.sol",
  "abi": [
    {
      "inputs": [
        {
          "internalType": "address",
          "name": "_licenseToken",
          "type": "address"
        },
        {
          "internalType": "address",
          "name": "_w2eLoomAddress",
          "type": "address"
        },
        {
          "internalType": "uint256",
          "name": "_quorumPercentage",
          "type": "uint256"
        },
        {
          "internalType": "uint256",
          "name": "_votingDelaySeconds",
          "type": "uint256"
        },
        {
          "internalType": "uint256",
          "name": "_votingPeriodSeconds",
          "type": "uint256"
        },
        {
          "internalType": "uint256",
          "name": "_executionDelaySeconds",
          "type": "uint256"
        },
        {
          "internalType": "address",
          "name": "initialOwner",
          "type": "address"
        }
      ],
      "stateMutability": "nonpayable",
      "type": "constructor"
    },
    {
      "anonymous": false,
      "inputs": [
        {
          "indexed": true,
          "internalType": "address",
          "name": "previousOwner",
          "type": "address"
        },
        {
          "indexed": true,
          "internalType": "address",
          "name": "newOwner",
          "type": "address"
        }
      ],
      "name": "OwnershipTransferred",
      "type": "event"
    },
    {
      "anonymous": false,
      "inputs": [
        {
          "indexed": true,
          "internalType": "uint256",
          "name": "proposalId",
          "type": "uint256"
        },
        {
          "indexed": true,
          "internalType": "address",
          "name": "proposer",
          "type": "address"
        },
        {
          "indexed": false,
          "internalType": "string",
          "name": "description",
          "type": "string"
        },
        {
          "indexed": false,
          "internalType": "enum W2EGovernor.ProposalType",
          "name": "proposalType",
          "type": "uint8"
        }
      ],
      "name": "ProposalCreated",
      "type": "event"
    },
    {
      "anonymous": false,
      "inputs": [
        {
          "indexed": true,
          "internalType": "uint256",
          "name": "proposalId",
          "type": "uint256"
        }
      ],
      "name": "ProposalExecuted",
      "type": "event"
    },
    {
      "anonymous": false,
      "inputs": [
        {
          "indexed": true,
          "internalType": "uint256",
          "name": "proposalId",
          "type": "uint256"
        },
        {
          "indexed": true,
          "internalType": "address",
          "name": "voter",
          "type": "address"
        },
        {
          "indexed": false,
          "internalType": "bool",
          "name": "support",
          "type": "bool"
        },
        {
          "indexed": false,
          "internalType": "uint256",
          "name": "weight",
          "type": "uint256"
        }
      ],
      "name": "VoteCast",
      "type": "event"
    },
    {
      "inputs": [],
      "name": "DEFAULT_VOTING_PERIOD",
      "outputs": [
        {
          "internalType": "uint256",
          "name": "",
          "type": "uint256"
        }
      ],
      "stateMutability": "view",
      "type": "function"
    },
    {
      "inputs": [],
      "name": "MAX_VOTING_PERIOD",
      "outputs": [
        {
          "internalType": "uint256",
          "name": "",
          "type": "uint256"
        }
      ],
      "stateMutability": "view",
      "type": "function"
    },
    {
      "inputs": [],
      "name": "MIN_EXECUTION_DELAY",
      "outputs": [
        {
          "internalType": "uint256",
          "name": "",
          "type": "uint256"
        }
      ],
      "stateMutability": "view",
      "type": "function"
    },
    {
      "inputs": [],
      "name": "MIN_QUORUM_PERCENTAGE",
      "outputs": [
        {
          "internalType": "uint256",
          "name": "",
          "type": "uint256"
        }
      ],
      "stateMutability": "view",
      "type": "function"
    },
    {
      "inputs": [],
      "name": "MIN_VOTING_DELAY_SECONDS",
      "outputs": [
        {
          "internalType": "uint256",
          "name": "",
          "type": "uint256"
        }
      ],
      "stateMutability": "view",
      "type": "function"
    },
    {
      "inputs": [],
      "name": "activeProposalCount",
      "outputs": [
        {
          "internalType": "uint256",
          "name": "",
          "type": "uint256"
        }
      ],
      "stateMutability": "view",
      "type": "function"
    },
    {
      "inputs": [
        {
          "internalType": "uint256",
          "name": "proposalId",
          "type": "uint256"
        }
      ],
      "name": "canExecute",
      "outputs": [
        {
          "internalType": "bool",
          "name": "",
          "type": "bool"
        }
      ],
      "stateMutability": "view",
      "type": "function"
    },
    {
      "inputs": [
        {
          "internalType": "uint256",
          "name": "proposalId",
          "type": "uint256"
        }
      ],
      "name": "execute",
      "outputs": [],
      "stateMutability": "nonpayable",
      "type": "function"
    },
    {
      "inputs": [],
      "name": "executionDelay",
      "outputs": [
        {
          "internalType": "uint256",
          "name": "",
          "type": "uint256"
        }
      ],
      "stateMutability": "view",
      "type": "function"
    },
    {
      "inputs": [],
      "name": "getGovernanceMetrics",
      "outputs": [
        {
          "internalType": "uint256",
          "name": "totalProposals",
          "type": "uint256"
        },
        {
          "internalType": "uint256",
          "name": "activeProposals",
          "type": "uint256"
        }
      ],
      "stateMutability": "view",
      "type": "function"
    },
    {
      "inputs": [
        {
          "internalType": "uint256",
          "name": "proposalId",
          "type": "uint256"
        }
      ],
      "name": "getProposalState",
      "outputs": [
        {
          "internalType": "enum W2EGovernor.ProposalState",
          "name": "",
          "type": "uint8"
        }
      ],
      "stateMutability": "view",
      "type": "function"
    },
    {
      "inputs": [],
      "name": "licenseToken",
      "outputs": [
        {
          "internalType": "contract IW2ELicense",
          "name": "",
          "type": "address"
        }
      ],
      "stateMutability": "view",
      "type": "function"
    },
    {
      "inputs": [],
      "name": "owner",
      "outputs": [
        {
          "internalType": "address",
          "name": "",
          "type": "address"
        }
      ],
      "stateMutability": "view",
      "type": "function"
    },
    {
      "inputs": [],
      "name": "proposalCount",
      "outputs": [
        {
          "internalType": "uint256",
          "name": "",
          "type": "uint256"
        }
      ],
      "stateMutability": "view",
      "type": "function"
    },
    {
      "inputs": [
        {
          "internalType": "uint256",
          "name": "",
          "type": "uint256"
        }
      ],
      "name": "proposals",
      "outputs": [
        {
          "internalType": "uint256",
          "name": "id",
          "type": "uint256"
        },
        {
          "internalType": "address",
          "name": "proposer",
          "type": "address"
        },
        {
          "internalType": "string",
          "name": "description",
          "type": "string"
        },
        {
          "internalType": "uint256",
          "name": "startTime",
          "type": "uint256"
        },
        {
          "internalType": "uint256",
          "name": "endTime",
          "type": "uint256"
        },
        {
          "internalType": "uint256",
          "name": "forVotes",
          "type": "uint256"
        },
        {
          "internalType": "uint256",
          "name": "againstVotes",
          "type": "uint256"
        },
        {
          "internalType": "enum W2EGovernor.ProposalState",
          "name": "state",
          "type": "uint8"
        },
        {
          "internalType": "enum W2EGovernor.ProposalType",
          "name": "proposalType",
          "type": "uint8"
        },
        {
          "internalType": "bool",
          "name": "executed",
          "type": "bool"
        }
      ],
      "stateMutability": "view",
      "type": "function"
    },
    {
      "inputs": [
        {
          "internalType": "address[]",
          "name": "targets",
          "type": "address[]"
        },
        {
          "internalType": "uint256[]",
          "name": "values",
          "type": "uint256[]"
        },
        {
          "internalType": "bytes[]",
          "name": "calldatas",
          "type": "bytes[]"
        },
        {
          "internalType": "string",
          "name": "description",
          "type": "string"
        }
      ],
      "name": "propose",
      "outputs": [
        {
          "internalType": "uint256",
          "name": "",
          "type": "uint256"
        }
      ],
      "stateMutability": "nonpayable",
      "type": "function"
    },
    {
      "inputs": [
        {
          "internalType": "address payable",
          "name": "recipient",
          "type": "address"
        },
        {
          "internalType": "uint256",
          "name": "amount",
          "type": "uint256"
        },
        {
          "internalType": "string",
          "name": "description",
          "type": "string"
        }
      ],
      "name": "proposeFundingRelease",
      "outputs": [
        {
          "internalType": "uint256",
          "name": "",
          "type": "uint256"
        }
      ],
      "stateMutability": "nonpayable",
      "type": "function"
    },
    {
      "inputs": [],
      "name": "quorumPercentage",
      "outputs": [
        {
          "internalType": "uint256",
          "name": "",
          "type": "uint256"
        }
      ],
      "stateMutability": "view",
      "type": "function"
    },
    {
      "inputs": [],
      "name": "renounceOwnership",
      "outputs": [],
      "stateMutability": "nonpayable",
      "type": "function"
    },
    {
      "inputs": [
        {
          "internalType": "address",
          "name": "_newLicense",
          "type": "address"
        }
      ],
      "name": "setLicenseToken",
      "outputs": [],
      "stateMutability": "nonpayable",
      "type": "function"
    },
    {
      "inputs": [
        {
          "internalType": "uint256",
          "name": "newQuorum",
          "type": "uint256"
        }
      ],
      "name": "setQuorumPercentage",
      "outputs": [],
      "stateMutability": "nonpayable",
      "type": "function"
    },
    {
      "inputs": [
        {
          "internalType": "uint256",
          "name": "newPeriod",
          "type": "uint256"
        }
      ],
      "name": "setVotingPeriod",
      "outputs": [],
      "stateMutability": "nonpayable",
      "type": "function"
    },
    {
      "inputs": [
        {
          "internalType": "address",
          "name": "_newLoom",
          "type": "address"
        }
      ],
      "name": "setW2ELoomAddress",
      "outputs": [],
      "stateMutability": "nonpayable",
      "type": "function"
    },
    {
      "inputs": [
        {
          "internalType": "address",
          "name": "newOwner",
          "type": "address"
        }
      ],
      "name": "transferOwnership",
      "outputs": [],
      "stateMutability": "nonpayable",
      "type": "function"
    },
    {
      "inputs": [
        {
          "internalType": "uint256",
          "name": "proposalId",
          "type": "uint256"
        },
        {
          "internalType": "bool",
          "name": "support",
          "type": "bool"
        }
      ],
      "name": "vote",
      "outputs": [],
      "stateMutability": "nonpayable",
      "type": "function"
    },
    {
      "inputs": [
        {
          "internalType": "uint256",
          "name": "",
          "type": "uint256"
        },
        {
          "internalType": "address",
          "name": "",
          "type": "address"
        }
      ],
      "name": "votes",
      "outputs": [
        {
          "internalType": "bool",
          "name": "hasVoted",
          "type": "bool"
        },
        {
          "internalType": "bool",
          "name": "support",
          "type": "bool"
        },
        {
          "internalType": "uint256",
          "name": "weight",
          "type": "uint256"
        }
      ],
      "stateMutability": "view",
      "type": "function"
    },
    {
      "inputs": [],
      "name": "votingDelaySeconds",
      "outputs": [
        {
          "internalType": "uint256",
          "name": "",
          "type": "uint256"
        }
      ],
      "stateMutability": "view",
      "type": "function"
    },
    {
      "inputs": [],
      "name": "votingPeriod",
      "outputs": [
        {
          "internalType": "uint256",
          "name": "",
          "type": "uint256"
        }
      ],
      "stateMutability": "view",
      "type": "function"
    },
    {
      "inputs": [],
      "name": "w2eLoomAddress",
      "outputs": [
        {
          "internalType": "address",
          "name": "",
          "type": "address"
        }
      ],
      "stateMutability": "view",
      "type": "function"
    }
  ],
  "bytecode": "0x608034620002f857601f6200209438819003918201601f191683019291906001600160401b03841183851017620002fd578160e09284926040968752833981010312620002f857620000518162000313565b60206200006081840162000313565b9084840151906060850151926080860151946200008560c060a0890151980162000313565b506000549060018060a01b031992338484161760005589519260018060a01b03928391823391167f8be0079c531659141344cd1fd0a4f28419497f9722a3daafe3b4186f6b6457e0600080a36001805516928315620002b65750169283156200027357600a8510158062000267575b15620002245760648610620001e1576201518087101580620001d3575b156200019057610e1088106200014d5750816002541617600255600354161760035560045560075560055560065551611d6b9081620003298239f35b60649089519062461bcd60e51b82526004820152601e60248201527f5732453a20457865637574696f6e2064656c617920746f6f2073686f727400006044820152fd5b60649089519062461bcd60e51b82526004820152601c60248201527f5732453a20566f74696e6720706572696f6420746f6f2073686f7274000000006044820152fd5b5062278d0087111562000111565b60649089519062461bcd60e51b82526004820152601b60248201527f5732453a20566f74696e672064656c617920746f6f2073686f727400000000006044820152fd5b60649089519062461bcd60e51b82526004820152601360248201527f5732453a20496e76616c69642071756f72756d000000000000000000000000006044820152fd5b506064851115620000f4565b60649089519062461bcd60e51b82526004820152601960248201527f5732453a20496e76616c6964206c6f6f6d2061646472657373000000000000006044820152fd5b62461bcd60e51b815260048101869052601a60248201527f5732453a20496e76616c6964206c6963656e736520746f6b656e0000000000006044820152606490fd5b600080fd5b634e487b7160e01b600052604160045260246000fd5b51906001600160a01b0382168203620002f85756fe6080806040526004908136101561001557600080fd5b60003560e01c908163013cf08b146111f45750806302a251a3146111d65780631156575d146111b8578063261f8a17146111935780632627780d1461117757806332f6a1dc146111025780634fa76ec9146110e457806351ec5382146110bb5780636238099a14610ee75780636d3c18d314610e58578063715018a614610dff57806376e4309914610de15780637d5e81e214610c2f5780638b25798914610c115780638da5cb5b14610be85780639080936f14610bb05780639e05220d14610b87578063a64e024a14610b69578063aedfe53f14610b4b578063b39b144414610b2f578063bcbde21214610b12578063c9d27afe1461079c578063cc63604a14610774578063d23254b41461070a578063da35c664146106ec578063ea0217cf14610670578063f2fde38b146105ab578063f82226501461051c5763fe0d94c11461016057600080fd5b3461048b57602036600319011261048b57610179611bd8565b803560005260086020526040600020600a81019060ff825460101c166104e05760078101544211156104a457806008849201546009820154906101bc8282611575565b60025460405163144613ff60e31b81529760209189919082906001600160a01b03165afa80156104985760009061045f575b61020097506064978891875490611582565b041161041c5711156103e05760005b60028201548110156103a4576102288160028401611c2e565b905460039190911b1c6001600160a01b0316803b156103615761024e8260038501611c2e565b90549060031b1c61026183868601611c2e565b50906040519160009080549061027682611368565b916001811690811561034a5750600114610315575b5050916000939181859403925af13d15610310573d6102a981611459565b906102b760405192836113d4565b8152600060203d92013e5b156102d5576102d090611550565b61020f565b60405162461bcd60e51b8152602081850152601560248201527415cc914e88115e1958dd5d1a5bdb8819985a5b1959605a1b60448201528590fd5b6102c2565b90915060005260206000206000905b8282106103365750508201818361028b565b600181602092548488015201910190610324565b60ff1916865250508015150283019050818361028b565b60405162461bcd60e51b8152602081860152601d60248201527f5732453a20546172676574206973206e6f74206120636f6e747261637400000060448201528690fd5b835462ff00ff19166201000417845582357f712ae1383f79ac853f8d882153778e0260ef8f03b504e2866e0593e04d2b291f600080a260018055005b60405162461bcd60e51b8152602081840152601660248201527515cc914e88141c9bdc1bdcd85b0819195999585d195960521b60448201528490fd5b60405162461bcd60e51b8152602081860152601760248201527f5732453a2051756f72756d206e6f74207265616368656400000000000000000060448201528690fd5b506020873d602011610490575b81610479602093836113d4565b8101031261048b5761020096516101ee565b600080fd5b3d915061046c565b6040513d6000823e3d90fd5b60405162461bcd60e51b8152602081850152601560248201527415cc914e88159bdd1a5b99c81b9bdd08195b991959605a1b6044820152606490fd5b60405162461bcd60e51b8152602081850152601560248201527415cc914e88105b1c9958591e48195e1958dd5d1959605a1b6044820152606490fd5b503461048b57602036600319011261048b576105366114ca565b61053e6114f8565b6001600160a01b031690811561056757506001600160601b0360a01b6003541617600355600080f35b60649060206040519162461bcd60e51b8352820152601960248201527f5732453a20496e76616c6964206c6f6f6d2061646472657373000000000000006044820152fd5b503461048b57602036600319011261048b576105c56114ca565b6105cd6114f8565b6001600160a01b0390811691821561061d5750600054826001600160601b0360a01b821617600055167f8be0079c531659141344cd1fd0a4f28419497f9722a3daafe3b4186f6b6457e0600080a3005b60849060206040519162461bcd60e51b8352820152602660248201527f4f776e61626c653a206e6577206f776e657220697320746865207a65726f206160448201526564647265737360d01b6064820152fd5b503461048b57602036600319011261048b5780359061068d6114f8565b62015180821015806106df575b156106a55750600555005b60649060206040519162461bcd60e51b8352820152601360248201527215cc914e88125b9d985b1a59081c195c9a5bd9606a1b6044820152fd5b5062278d0082111561069a565b3461048b57600036600319011261048b576020600b54604051908152f35b503461048b57604036600319011261048b576024356001600160a01b038116919082900361048b57356000526009602052604060002090600052602052606060406000206001815491015460ff604051928181161515845260081c16151560208301526040820152f35b503461048b57602036600319011261048b5761079260209135611c46565b6040519015158152f35b503461048b57604036600319011261048b57803560248035928315159384810361048b576107c8611bd8565b83600052602091600883526040600020600a81019260ff8454166005811015610afe578015908115610af3575b5015610ab05760068201544210610a6d5760078201544211610a36578660005260098552604060002033600052855260ff604060002054166109fe576002546040516309ab24eb60e41b81523381860152969392919086908890869082906001600160a01b03165afa968715610498576000976109cf575b508615610995576040516060810181811067ffffffffffffffff821117610981576040526001815260018782018b815260408301908a82528b60005260098a526040600020336000528a526040600020935115159060ff61ff0086549251151560081b1692169061ffff1916171783555191015560001461096c576008016108f6868254611575565b90555b82549160ff831691600583101561095957505015610949575b50506040519384528301527fcbdf6214089cba887ecbf35a0b6a734589959c9763342c756bb2a80ca2bc9f6e60403393a360018055005b60ff191660011790553880610912565b602190634e487b7160e01b600052526000fd5b60090161097a868254611575565b90556108f9565b85604186634e487b7160e01b600052526000fd5b60405162461bcd60e51b8152808401879052601481860152732b99229d102737903b37ba34b733903837bbb2b960611b6044820152606490fd5b9096508581813d83116109f7575b6109e781836113d4565b8101031261048b5751953861086d565b503d6109dd565b60405162461bcd60e51b81528084018690526012818801527115cc914e88105b1c9958591e481d9bdd195960721b6044820152606490fd5b60405162461bcd60e51b81528084018690526011818801527015cc914e88159bdd1a5b99c8195b991959607a1b6044820152606490fd5b60405162461bcd60e51b81528084018690526017818801527f5732453a20566f74696e67206e6f7420737461727465640000000000000000006044820152606490fd5b60405162461bcd60e51b81528084018690526018818801527f5732453a2050726f706f73616c206e6f742061637469766500000000000000006044820152606490fd5b6001915014386107f5565b86602185634e487b7160e01b600052526000fd5b3461048b57600036600319011261048b576020604051610e108152f35b3461048b57600036600319011261048b57602060405160648152f35b3461048b57600036600319011261048b57602060405162093a808152f35b3461048b57600036600319011261048b57602060405162278d008152f35b3461048b57600036600319011261048b576003546040516001600160a01b039091168152602090f35b503461048b57602036600319011261048b57356000526008602052602060ff600a6040600020015416610be66040518092611436565bf35b3461048b57600036600319011261048b576000546040516001600160a01b039091168152602090f35b3461048b57600036600319011261048b576020600654604051908152f35b503461048b57608036600319011261048b5780359067ffffffffffffffff80831161048b573660238401121561048b5782820135610c6c816114e0565b91610c7a60405193846113d4565b8183526020948584016024809460051b8301019136831161048b578401905b828210610dc25750505081359080821161048b573660238301121561048b5781850135610cc5816114e0565b92610cd360405194856113d4565b818452848885019260051b8201019136831161048b5785899201905b838210610db3575050505060449283359082821161048b573660238301121561048b5781870135610d1f816114e0565b95610d2d60405197886113d4565b818752828a88019260051b8501019336851161048b57838101925b858410610d7d5750505050505060643590811161048b57610d7594610d6f913691016114ac565b92611616565b604051908152f35b833587811161048b5782013660438201121561048b578c91610da883923690878a8201359101611475565b815201930192610d48565b81358152908201908201610cef565b81356001600160a01b038116810361048b578152908701908701610c99565b3461048b57600036600319011261048b576020600a54604051908152f35b3461048b57600036600319011261048b57610e186114f8565b600080546001600160a01b0319811682556001600160a01b03167f8be0079c531659141344cd1fd0a4f28419497f9722a3daafe3b4186f6b6457e08280a3005b503461048b57602036600319011261048b57610e726114ca565b610e7a6114f8565b6001600160a01b0316908115610ea357506001600160601b0360a01b6002541617600255600080f35b60649060206040519162461bcd60e51b8352820152601a60248201527f5732453a20496e76616c6964206c6963656e736520746f6b656e0000000000006044820152fd5b503461048b5760608060031936011261048b5781356001600160a01b03818116939184900361048b576024359360443567ffffffffffffffff811161048b57610f3390369085016114ac565b92811561107e57851561103a575060405190602095634d784ac160e01b8784015260248301526044820152836064820152610f8381610f7560848201866113f6565b03601f1981018352826113d4565b604051610f8f816113a2565b6001815285368183013760405191610fa6836113a2565b6001835286368185013760405193610fbd856113a2565b600185528760005b81811061102b575050611006965060035416610fe083611bb5565b526000610fec84611bb5565b52610ff684611bb5565b5261100083611bb5565b50611616565b8060005260088252600a60406000200161010061ff0019825416179055604051908152f35b88828289010152018890610fc5565b60649060206040519162461bcd60e51b8352820152601c60248201527f5732453a20416d6f756e74206d75737420626520706f736974697665000000006044820152fd5b60649060206040519162461bcd60e51b8352820152601660248201527515cc914e88125b9d985b1a59081c9958da5c1a595b9d60521b6044820152fd5b3461048b57600036600319011261048b576002546040516001600160a01b039091168152602090f35b503461048b57600036600319011261048b5760209054604051908152f35b503461048b57602036600319011261048b5780359061111f6114f8565b600a8210158061116c575b156111325755005b60649060206040519162461bcd60e51b835282015260136024820152725732453a20496e76616c69642071756f72756d60681b6044820152fd5b50606482111561112a565b3461048b57600036600319011261048b576020604051600a8152f35b3461048b57600036600319011261048b576040600b54600a5482519182526020820152f35b3461048b57600036600319011261048b576020600754604051908152f35b3461048b57600036600319011261048b576020600554604051908152f35b823461048b576020918260031936011261048b5781356000526008835260406000209283549260019460018060a01b0386820154169584600583019160009083549361123f85611368565b94858552888382169182600014611346575050600114611307575b5050611268925003856113d4565b60068101549360078201546112a9600884015492600a60098601549501549960ff8b60081c16976040519a8b528a01526101408060408b01528901906113f6565b956060880152608087015260a086015260c08501526112ce60e0850160ff8716611436565b808210156112f25750829360ff9161010085015260101c1615156101208301520390f35b602190634e487b7160e01b6000525260246000fd5b87925060005281600020906000915b85831061132e5750506112689350820101898061125a565b8054838b018501528994508893909201918101611316565b925093505061126894915060ff191682840152151560051b820101898061125a565b90600182811c92168015611398575b602083101461138257565b634e487b7160e01b600052602260045260246000fd5b91607f1691611377565b6040810190811067ffffffffffffffff8211176113be57604052565b634e487b7160e01b600052604160045260246000fd5b90601f8019910116810190811067ffffffffffffffff8211176113be57604052565b919082519283825260005b848110611422575050826000602080949584010152601f8019910116010190565b602081830181015184830182015201611401565b9060058210156114435752565b634e487b7160e01b600052602160045260246000fd5b67ffffffffffffffff81116113be57601f01601f191660200190565b92919261148182611459565b9161148f60405193846113d4565b82948184528183011161048b578281602093846000960137010152565b9080601f8301121561048b578160206114c793359101611475565b90565b600435906001600160a01b038216820361048b57565b67ffffffffffffffff81116113be5760051b60200190565b6000546001600160a01b0316330361150c57565b606460405162461bcd60e51b815260206004820152602060248201527f4f776e61626c653a2063616c6c6572206973206e6f7420746865206f776e65726044820152fd5b600019811461155f5760010190565b634e487b7160e01b600052601160045260246000fd5b9190820180921161155f57565b8181029291811591840414171561155f57565b8181106115a0575050565b60008155600101611595565b918181106115b957505050565b6115cf9260005260206000209182019101611595565b565b9190601f81116115e057505050565b6115cf926000526020600020906020601f840160051c8301931061160c575b601f0160051c0190611595565b90915081906115ff565b90929192815181518091149081611baa575b5015611b6d57815115611b3257611640600b54611550565b9384600b55600754906116696116606116598442611575565b9342611575565b60055490611575565b92604051946101a0860186811067ffffffffffffffff8211176113be576040528786523360208701526040860152606085015260808401528360a084015260c083015260e0820152600061010082015260006101208201526000610140820152600061016082015260006101808201528260005260086020526040600020815181556001810160018060a01b036020840151166001600160601b0360a01b825416179055604082015180519067ffffffffffffffff82116113be57600160401b82116113be5760206002840191611745848454818655856115ac565b0190600052602060002060005b838110611b155750505050606082015180519067ffffffffffffffff82116113be57600160401b82116113be5760206003840191611795848454818655856115ac565b0190600052602060002060005b838110611b0157505050506080820151805190600160401b82116113be576004830154826004850155808310611a88575b5060200190600483016000526020600020916000905b8282106119a4575050505060a082015180519067ffffffffffffffff82116113be576118258261181c6005860154611368565b600586016115d1565b602090601f831160011461193157600a93929160009183611926575b50508160011b916000199060031b1c19161760058201555b60c0830151600682015560e08301516007820155610100830151600882015561012083015160098201550190610140810151906005821015611443578254906101608101519160048310156114435760ff62ff000061018061ff00940151151560101b1694169062ffffff1916179160081b16171790556118db600a54611550565b600a55817fe0269f7953e70365e80e614e4efe7d4bede59b7f5ad80982ea4064c97ee6f4ef611915604051936040855260408501906113f6565b92600060208201528033940390a390565b015190503880611841565b906005840160005260206000209160005b601f198516811061198c5750918391600193600a9695601f19811610611973575b505050811b016005820155611859565b015160001960f88460031b161c19169055388080611963565b91926020600181928685015181550194019201611942565b805180519067ffffffffffffffff82116113be576119cc826119c68854611368565b886115d1565b602090601f8311600114611a18579282600194936020938695600092611a0d575b5050600019600383901b1c191690841b1787555b019401910190926117e9565b0151905038806119ed565b908660005260206000209160005b601f1985168110611a70575083602093600196938796938794601f19811610611a57575b505050811b018755611a01565b015160001960f88460031b161c19169055388080611a4a565b91926020600181928685015181550194019201611a26565b600484016000526020600020908382015b8183018110611aa95750506117d3565b80611ab660019254611368565b80611ac3575b5001611a99565b601f908181118414611adc575050600081555b38611abc565b611af860009284845260208420920160051c8201858301611595565b81835555611ad6565b6001906020845194019381840155016117a2565b82516001600160a01b031681830155602090920191600101611752565b60405162461bcd60e51b815260206004820152601360248201527215cc914e88115b5c1d1e481c1c9bdc1bdcd85b606a1b6044820152606490fd5b60405162461bcd60e51b815260206004820152601560248201527415cc914e88125b9d985b1a59081c1c9bdc1bdcd85b605a1b6044820152606490fd5b905084511438611628565b805115611bc25760200190565b634e487b7160e01b600052603260045260246000fd5b600260015414611be9576002600155565b60405162461bcd60e51b815260206004820152601f60248201527f5265656e7472616e637947756172643a207265656e7472616e742063616c6c006044820152606490fd5b8054821015611bc25760005260206000200190600090565b60009081526008602052604081209060ff600a83015460101c168015611d27575b611d22576009600883015492015490611c808284611575565b60025460405163144613ff60e31b815291929190602090829060049082906001600160a01b03165afa918215611d16578092611cdc575b5050611cc860649160045490611582565b0411159182611cd657505090565b11919050565b9091506020823d8211611d0e575b81611cf7602093836113d4565b81010312611d0b575051611cc86064611cb7565b80fd5b3d9150611cea565b604051903d90823e3d90fd5b905090565b506007820154421115611c6756fea2646970667358221220b35514418a9ee1c581039d270e123ab820f838a38a6176f685cf322bed44e87664736f6c63430008140033",
  "linkReferences": {},
  "deployedLinkReferences": {}
}