{
  "_format": "hh-sol-artifact-1",
  "contractName": "W2ELicense",
  "sourceName": "contracts/core/W2ELicense.sol",
  "abi": [
    {
      "inputs": [
        {
          "internalType": "string",
          "name": "name",
          "type": "string"
        },
        {
          "internalType": "string",
          "name": "symbol",
          "type": "string"
        },
        {
          "internalType": "uint256",
          "name": "_maxSupply",
          "type": "uint256"
        },
        {
          "internalType": "uint256",
          "name": "_licensePrice",
          "type": "uint256"
        },
        {
          "internalType": "address",
          "name": "_pandoraOracle",
          "type": "address"
        },
        {
          "internalType": "address",
          "name": "_treasuryAddress",
          "type": "address"
        },
        {
          "internalType": "address",
          "name": "initialOwner",
          "type": "address"
        },
        {
          "internalType": "bool",
          "name": "_isTransferable",
          "type": "bool"
        },
        {
          "internalType": "bool",
          "name": "_isBurnable",
          "type": "bool"
        }
      ],
      "stateMutability": "nonpayable",
      "type": "constructor"
    },
    {
      "inputs": [],
      "name": "ApprovalCallerNotOwnerNorApproved",
      "type": "error"
    },
    {
      "inputs": [],
      "name": "ApprovalQueryForNonexistentToken",
      "type": "error"
    },
    {
      "inputs": [],
      "name": "BalanceQueryForZeroAddress",
      "type": "error"
    },
    {
      "inputs": [],
      "name": "MintERC2309QuantityExceedsLimit",
      "type": "error"
    },
    {
      "inputs": [],
      "name": "MintToZeroAddress",
      "type": "error"
    },
    {
      "inputs": [],
      "name": "MintZeroQuantity",
      "type": "error"
    },
    {
      "inputs": [],
      "name": "NotCompatibleWithSpotMints",
      "type": "error"
    },
    {
      "inputs": [],
      "name": "OwnerQueryForNonexistentToken",
      "type": "error"
    },
    {
      "inputs": [],
      "name": "OwnershipNotInitializedForExtraData",
      "type": "error"
    },
    {
      "inputs": [],
      "name": "SequentialMintExceedsLimit",
      "type": "error"
    },
    {
      "inputs": [],
      "name": "SequentialUpToTooSmall",
      "type": "error"
    },
    {
      "inputs": [],
      "name": "SpotMintTokenIdTooSmall",
      "type": "error"
    },
    {
      "inputs": [],
      "name": "TokenAlreadyExists",
      "type": "error"
    },
    {
      "inputs": [],
      "name": "TransferCallerNotOwnerNorApproved",
      "type": "error"
    },
    {
      "inputs": [],
      "name": "TransferFromIncorrectOwner",
      "type": "error"
    },
    {
      "inputs": [],
      "name": "TransferToNonERC721ReceiverImplementer",
      "type": "error"
    },
    {
      "inputs": [],
      "name": "TransferToZeroAddress",
      "type": "error"
    },
    {
      "inputs": [],
      "name": "URIQueryForNonexistentToken",
      "type": "error"
    },
    {
      "anonymous": false,
      "inputs": [
        {
          "indexed": true,
          "internalType": "address",
          "name": "owner",
          "type": "address"
        },
        {
          "indexed": true,
          "internalType": "address",
          "name": "approved",
          "type": "address"
        },
        {
          "indexed": true,
          "internalType": "uint256",
          "name": "tokenId",
          "type": "uint256"
        }
      ],
      "name": "Approval",
      "type": "event"
    },
    {
      "anonymous": false,
      "inputs": [
        {
          "indexed": true,
          "internalType": "address",
          "name": "owner",
          "type": "address"
        },
        {
          "indexed": true,
          "internalType": "address",
          "name": "operator",
          "type": "address"
        },
        {
          "indexed": false,
          "internalType": "bool",
          "name": "approved",
          "type": "bool"
        }
      ],
      "name": "ApprovalForAll",
      "type": "event"
    },
    {
      "anonymous": false,
      "inputs": [
        {
          "indexed": true,
          "internalType": "uint256",
          "name": "fromTokenId",
          "type": "uint256"
        },
        {
          "indexed": false,
          "internalType": "uint256",
          "name": "toTokenId",
          "type": "uint256"
        },
        {
          "indexed": true,
          "internalType": "address",
          "name": "from",
          "type": "address"
        },
        {
          "indexed": true,
          "internalType": "address",
          "name": "to",
          "type": "address"
        }
      ],
      "name": "ConsecutiveTransfer",
      "type": "event"
    },
    {
      "anonymous": false,
      "inputs": [
        {
          "indexed": true,
          "internalType": "address",
          "name": "recipient",
          "type": "address"
        },
        {
          "indexed": false,
          "internalType": "uint256",
          "name": "quantity",
          "type": "uint256"
        },
        {
          "indexed": false,
          "internalType": "uint256",
          "name": "totalMinted",
          "type": "uint256"
        }
      ],
      "name": "LicenseMinted",
      "type": "event"
    },
    {
      "anonymous": false,
      "inputs": [
        {
          "indexed": true,
          "internalType": "uint256",
          "name": "oldPrice",
          "type": "uint256"
        },
        {
          "indexed": true,
          "internalType": "uint256",
          "name": "newPrice",
          "type": "uint256"
        }
      ],
      "name": "LicensePriceUpdated",
      "type": "event"
    },
    {
      "anonymous": false,
      "inputs": [
        {
          "indexed": true,
          "internalType": "uint256",
          "name": "tokenId",
          "type": "uint256"
        },
        {
          "indexed": false,
          "internalType": "uint256",
          "name": "oldPhase",
          "type": "uint256"
        },
        {
          "indexed": false,
          "internalType": "uint256",
          "name": "newPhase",
          "type": "uint256"
        }
      ],
      "name": "LicenseUpgraded",
      "type": "event"
    },
    {
      "anonymous": false,
      "inputs": [
        {
          "indexed": true,
          "internalType": "address",
          "name": "oldOracle",
          "type": "address"
        },
        {
          "indexed": true,
          "internalType": "address",
          "name": "newOracle",
          "type": "address"
        }
      ],
      "name": "OracleUpdated",
      "type": "event"
    },
    {
      "anonymous": false,
      "inputs": [
        {
          "indexed": true,
          "internalType": "address",
          "name": "previousOwner",
          "type": "address"
        },
        {
          "indexed": true,
          "internalType": "address",
          "name": "newOwner",
          "type": "address"
        }
      ],
      "name": "OwnershipTransferred",
      "type": "event"
    },
    {
      "anonymous": false,
      "inputs": [],
      "name": "PrimarySaleClosed",
      "type": "event"
    },
    {
      "anonymous": false,
      "inputs": [
        {
          "indexed": true,
          "internalType": "address",
          "name": "receiver",
          "type": "address"
        },
        {
          "indexed": false,
          "internalType": "uint96",
          "name": "feeNumerator",
          "type": "uint96"
        }
      ],
      "name": "RoyaltyUpdated",
      "type": "event"
    },
    {
      "anonymous": false,
      "inputs": [
        {
          "indexed": true,
          "internalType": "address",
          "name": "from",
          "type": "address"
        },
        {
          "indexed": true,
          "internalType": "address",
          "name": "to",
          "type": "address"
        },
        {
          "indexed": true,
          "internalType": "uint256",
          "name": "tokenId",
          "type": "uint256"
        }
      ],
      "name": "Transfer",
      "type": "event"
    },
    {
      "anonymous": false,
      "inputs": [
        {
          "indexed": true,
          "internalType": "bool",
          "name": "status",
          "type": "bool"
        }
      ],
      "name": "TransferabilityUpdated",
      "type": "event"
    },
    {
      "anonymous": false,
      "inputs": [
        {
          "indexed": true,
          "internalType": "address",
          "name": "oldTreasury",
          "type": "address"
        },
        {
          "indexed": true,
          "internalType": "address",
          "name": "newTreasury",
          "type": "address"
        }
      ],
      "name": "TreasuryUpdated",
      "type": "event"
    },
    {
      "inputs": [
        {
          "internalType": "uint256",
          "name": "newPhaseId",
          "type": "uint256"
        },
        {
          "internalType": "uint256",
          "name": "newPhaseMaxSupply",
          "type": "uint256"
        }
      ],
      "name": "advanceToPhase",
      "outputs": [],
      "stateMutability": "nonpayable",
      "type": "function"
    },
    {
      "inputs": [
        {
          "internalType": "address",
          "name": "to",
          "type": "address"
        },
        {
          "internalType": "uint256",
          "name": "tokenId",
          "type": "uint256"
        }
      ],
      "name": "approve",
      "outputs": [],
      "stateMutability": "payable",
      "type": "function"
    },
    {
      "inputs": [
        {
          "internalType": "address",
          "name": "owner",
          "type": "address"
        }
      ],
      "name": "balanceOf",
      "outputs": [
        {
          "internalType": "uint256",
          "name": "",
          "type": "uint256"
        }
      ],
      "stateMutability": "view",
      "type": "function"
    },
    {
      "inputs": [
        {
          "internalType": "uint256",
          "name": "tokenId",
          "type": "uint256"
        }
      ],
      "name": "burn",
      "outputs": [],
      "stateMutability": "nonpayable",
      "type": "function"
    },
    {
      "inputs": [],
      "name": "closePrimarySale",
      "outputs": [],
      "stateMutability": "nonpayable",
      "type": "function"
    },
    {
      "inputs": [
        {
          "internalType": "uint256",
          "name": "tokenId",
          "type": "uint256"
        }
      ],
      "name": "getApproved",
      "outputs": [
        {
          "internalType": "address",
          "name": "",
          "type": "address"
        }
      ],
      "stateMutability": "view",
      "type": "function"
    },
    {
      "inputs": [
        {
          "internalType": "uint256",
          "name": "tokenId",
          "type": "uint256"
        }
      ],
      "name": "getLicensePhase",
      "outputs": [
        {
          "internalType": "uint256",
          "name": "",
          "type": "uint256"
        }
      ],
      "stateMutability": "view",
      "type": "function"
    },
    {
      "inputs": [],
      "name": "getPhaseStats",
      "outputs": [
        {
          "internalType": "uint256",
          "name": "currentPhase",
          "type": "uint256"
        },
        {
          "internalType": "uint256",
          "name": "totalPhases",
          "type": "uint256"
        }
      ],
      "stateMutability": "view",
      "type": "function"
    },
    {
      "inputs": [
        {
          "internalType": "address",
          "name": "account",
          "type": "address"
        }
      ],
      "name": "getVotes",
      "outputs": [
        {
          "internalType": "uint256",
          "name": "",
          "type": "uint256"
        }
      ],
      "stateMutability": "view",
      "type": "function"
    },
    {
      "inputs": [
        {
          "internalType": "address",
          "name": "account",
          "type": "address"
        }
      ],
      "name": "hasActiveLicense",
      "outputs": [
        {
          "internalType": "bool",
          "name": "",
          "type": "bool"
        }
      ],
      "stateMutability": "view",
      "type": "function"
    },
    {
      "inputs": [
        {
          "internalType": "address",
          "name": "owner",
          "type": "address"
        },
        {
          "internalType": "address",
          "name": "operator",
          "type": "address"
        }
      ],
      "name": "isApprovedForAll",
      "outputs": [
        {
          "internalType": "bool",
          "name": "",
          "type": "bool"
        }
      ],
      "stateMutability": "view",
      "type": "function"
    },
    {
      "inputs": [],
      "name": "isBurnable",
      "outputs": [
        {
          "internalType": "bool",
          "name": "",
          "type": "bool"
        }
      ],
      "stateMutability": "view",
      "type": "function"
    },
    {
      "inputs": [],
      "name": "isTransferable",
      "outputs": [
        {
          "internalType": "bool",
          "name": "",
          "type": "bool"
        }
      ],
      "stateMutability": "view",
      "type": "function"
    },
    {
      "inputs": [],
      "name": "licensePrice",
      "outputs": [
        {
          "internalType": "uint256",
          "name": "",
          "type": "uint256"
        }
      ],
      "stateMutability": "view",
      "type": "function"
    },
    {
      "inputs": [
        {
          "internalType": "uint256",
          "name": "",
          "type": "uint256"
        }
      ],
      "name": "licenseUsageCount",
      "outputs": [
        {
          "internalType": "uint256",
          "name": "",
          "type": "uint256"
        }
      ],
      "stateMutability": "view",
      "type": "function"
    },
    {
      "inputs": [],
      "name": "maxSupply",
      "outputs": [
        {
          "internalType": "uint256",
          "name": "",
          "type": "uint256"
        }
      ],
      "stateMutability": "view",
      "type": "function"
    },
    {
      "inputs": [
        {
          "internalType": "address",
          "name": "recipient",
          "type": "address"
        },
        {
          "internalType": "uint256",
          "name": "quantity",
          "type": "uint256"
        }
      ],
      "name": "mintLicense",
      "outputs": [],
      "stateMutability": "nonpayable",
      "type": "function"
    },
    {
      "inputs": [
        {
          "internalType": "uint256",
          "name": "quantity",
          "type": "uint256"
        }
      ],
      "name": "mintWithPayment",
      "outputs": [],
      "stateMutability": "payable",
      "type": "function"
    },
    {
      "inputs": [],
      "name": "name",
      "outputs": [
        {
          "internalType": "string",
          "name": "",
          "type": "string"
        }
      ],
      "stateMutability": "view",
      "type": "function"
    },
    {
      "inputs": [],
      "name": "owner",
      "outputs": [
        {
          "internalType": "address",
          "name": "",
          "type": "address"
        }
      ],
      "stateMutability": "view",
      "type": "function"
    },
    {
      "inputs": [
        {
          "internalType": "uint256",
          "name": "tokenId",
          "type": "uint256"
        }
      ],
      "name": "ownerOf",
      "outputs": [
        {
          "internalType": "address",
          "name": "",
          "type": "address"
        }
      ],
      "stateMutability": "view",
      "type": "function"
    },
    {
      "inputs": [],
      "name": "pandoraOracle",
      "outputs": [
        {
          "internalType": "address",
          "name": "",
          "type": "address"
        }
      ],
      "stateMutability": "view",
      "type": "function"
    },
    {
      "inputs": [],
      "name": "phaseId",
      "outputs": [
        {
          "internalType": "uint256",
          "name": "",
          "type": "uint256"
        }
      ],
      "stateMutability": "view",
      "type": "function"
    },
    {
      "inputs": [
        {
          "internalType": "uint256",
          "name": "",
          "type": "uint256"
        }
      ],
      "name": "phaseMaxSupply",
      "outputs": [
        {
          "internalType": "uint256",
          "name": "",
          "type": "uint256"
        }
      ],
      "stateMutability": "view",
      "type": "function"
    },
    {
      "inputs": [],
      "name": "primaryOpen",
      "outputs": [
        {
          "internalType": "bool",
          "name": "",
          "type": "bool"
        }
      ],
      "stateMutability": "view",
      "type": "function"
    },
    {
      "inputs": [
        {
          "internalType": "uint256",
          "name": "tokenId",
          "type": "uint256"
        }
      ],
      "name": "recordLicenseUsage",
      "outputs": [],
      "stateMutability": "nonpayable",
      "type": "function"
    },
    {
      "inputs": [],
      "name": "remainingSupply",
      "outputs": [
        {
          "internalType": "uint256",
          "name": "",
          "type": "uint256"
        }
      ],
      "stateMutability": "view",
      "type": "function"
    },
    {
      "inputs": [],
      "name": "renounceOwnership",
      "outputs": [],
      "stateMutability": "nonpayable",
      "type": "function"
    },
    {
      "inputs": [
        {
          "internalType": "uint256",
          "name": "tokenId",
          "type": "uint256"
        },
        {
          "internalType": "uint256",
          "name": "salePrice",
          "type": "uint256"
        }
      ],
      "name": "royaltyInfo",
      "outputs": [
        {
          "internalType": "address",
          "name": "",
          "type": "address"
        },
        {
          "internalType": "uint256",
          "name": "",
          "type": "uint256"
        }
      ],
      "stateMutability": "view",
      "type": "function"
    },
    {
      "inputs": [
        {
          "internalType": "address",
          "name": "from",
          "type": "address"
        },
        {
          "internalType": "address",
          "name": "to",
          "type": "address"
        },
        {
          "internalType": "uint256",
          "name": "tokenId",
          "type": "uint256"
        }
      ],
      "name": "safeTransferFrom",
      "outputs": [],
      "stateMutability": "payable",
      "type": "function"
    },
    {
      "inputs": [
        {
          "internalType": "address",
          "name": "from",
          "type": "address"
        },
        {
          "internalType": "address",
          "name": "to",
          "type": "address"
        },
        {
          "internalType": "uint256",
          "name": "tokenId",
          "type": "uint256"
        },
        {
          "internalType": "bytes",
          "name": "_data",
          "type": "bytes"
        }
      ],
      "name": "safeTransferFrom",
      "outputs": [],
      "stateMutability": "payable",
      "type": "function"
    },
    {
      "inputs": [
        {
          "internalType": "address",
          "name": "operator",
          "type": "address"
        },
        {
          "internalType": "bool",
          "name": "approved",
          "type": "bool"
        }
      ],
      "name": "setApprovalForAll",
      "outputs": [],
      "stateMutability": "nonpayable",
      "type": "function"
    },
    {
      "inputs": [
        {
          "internalType": "bool",
          "name": "_status",
          "type": "bool"
        }
      ],
      "name": "setIsTransferable",
      "outputs": [],
      "stateMutability": "nonpayable",
      "type": "function"
    },
    {
      "inputs": [
        {
          "internalType": "uint256",
          "name": "newPrice",
          "type": "uint256"
        }
      ],
      "name": "setLicensePrice",
      "outputs": [],
      "stateMutability": "nonpayable",
      "type": "function"
    },
    {
      "inputs": [
        {
          "internalType": "address",
          "name": "newOracle",
          "type": "address"
        }
      ],
      "name": "setPandoraOracle",
      "outputs": [],
      "stateMutability": "nonpayable",
      "type": "function"
    },
    {
      "inputs": [
        {
          "internalType": "address",
          "name": "receiver",
          "type": "address"
        },
        {
          "internalType": "uint96",
          "name": "feeNumerator",
          "type": "uint96"
        }
      ],
      "name": "setRoyaltyInfo",
      "outputs": [],
      "stateMutability": "nonpayable",
      "type": "function"
    },
    {
      "inputs": [
        {
          "internalType": "address",
          "name": "newTreasury",
          "type": "address"
        }
      ],
      "name": "setTreasuryAddress",
      "outputs": [],
      "stateMutability": "nonpayable",
      "type": "function"
    },
    {
      "inputs": [
        {
          "internalType": "bytes4",
          "name": "interfaceId",
          "type": "bytes4"
        }
      ],
      "name": "supportsInterface",
      "outputs": [
        {
          "internalType": "bool",
          "name": "",
          "type": "bool"
        }
      ],
      "stateMutability": "view",
      "type": "function"
    },
    {
      "inputs": [],
      "name": "symbol",
      "outputs": [
        {
          "internalType": "string",
          "name": "",
          "type": "string"
        }
      ],
      "stateMutability": "view",
      "type": "function"
    },
    {
      "inputs": [
        {
          "internalType": "uint256",
          "name": "tokenId",
          "type": "uint256"
        }
      ],
      "name": "tokenURI",
      "outputs": [
        {
          "internalType": "string",
          "name": "",
          "type": "string"
        }
      ],
      "stateMutability": "view",
      "type": "function"
    },
    {
      "inputs": [],
      "name": "totalMinted",
      "outputs": [
        {
          "internalType": "uint256",
          "name": "",
          "type": "uint256"
        }
      ],
      "stateMutability": "view",
      "type": "function"
    },
    {
      "inputs": [],
      "name": "totalSupply",
      "outputs": [
        {
          "internalType": "uint256",
          "name": "result",
          "type": "uint256"
        }
      ],
      "stateMutability": "view",
      "type": "function"
    },
    {
      "inputs": [
        {
          "internalType": "address",
          "name": "from",
          "type": "address"
        },
        {
          "internalType": "address",
          "name": "to",
          "type": "address"
        },
        {
          "internalType": "uint256",
          "name": "tokenId",
          "type": "uint256"
        }
      ],
      "name": "transferFrom",
      "outputs": [],
      "stateMutability": "payable",
      "type": "function"
    },
    {
      "inputs": [
        {
          "internalType": "address",
          "name": "newOwner",
          "type": "address"
        }
      ],
      "name": "transferOwnership",
      "outputs": [],
      "stateMutability": "nonpayable",
      "type": "function"
    },
    {
      "inputs": [],
      "name": "treasuryAddress",
      "outputs": [
        {
          "internalType": "address",
          "name": "",
          "type": "address"
        }
      ],
      "stateMutability": "view",
      "type": "function"
    },
    {
      "inputs": [
        {
          "internalType": "uint256",
          "name": "tokenId",
          "type": "uint256"
        },
        {
          "internalType": "uint256",
          "name": "newPhaseId",
          "type": "uint256"
        }
      ],
      "name": "upgradeLicense",
      "outputs": [],
      "stateMutability": "nonpayable",
      "type": "function"
    }
  ],
  "bytecode": "0x608060405234620000dc5762002d6e803803806200001d81620000f7565b92833981019061012081830312620000dc5780516001600160401b039190828111620000dc57836200005191830162000123565b916020820151908111620000dc57620000cc936200007191830162000123565b60408201516060830151620000896080850162000195565b906200009860a0860162000195565b92620000a760c0870162000195565b94620000c5610100620000bd60e08a01620001aa565b9801620001aa565b976200029e565b6040516125939081620007db8239f35b600080fd5b634e487b7160e01b600052604160045260246000fd5b6040519190601f01601f191682016001600160401b038111838210176200011d57604052565b620000e1565b919080601f84011215620000dc5782516001600160401b0381116200011d5760209062000159601f8201601f19168301620000f7565b92818452828287010111620000dc5760005b8181106200018157508260009394955001015290565b85810183015184820184015282016200016b565b51906001600160a01b0382168203620000dc57565b51908115158203620000dc57565b15620001c057565b606460405162461bcd60e51b815260206004820152602060248201527f5732453a204d617820737570706c79206d75737420626520706f7369746976656044820152fd5b156200020c57565b60405162461bcd60e51b815260206004820152601b60248201527f5732453a20496e76616c6964206f7261636c65206164647265737300000000006044820152606490fd5b156200025957565b60405162461bcd60e51b815260206004820152601d60248201527f5732453a20496e76616c696420747265617375727920616464726573730000006044820152606490fd5b80519698939795969295939492906001600160401b0382116200011d57620002d382620002cd60025462000526565b62000563565b60209081601f84116001146200047f57509362000326620003e89484620004079895620003b995620004449d9c9b9960009262000473575b50508160011b916000199060031b1c19161760025562000615565b620003316001600055565b6200033c3362000708565b600f805460ff60b01b1916600160b01b1790556200035c871515620001b8565b6001600160a01b0399620003979062000379838d16151562000204565b620003888c8b16151562000251565b6200039289600d55565b600e55565b600c80546001600160a01b0319166001600160a01b0392909216919091179055565b600f80546001600160a01b0388166001600160a81b03199091161791151560a01b60ff60a01b16919091179055565b600f805460ff60a81b191691151560a81b60ff60a81b16919091179055565b620004126001601055565b600160005260116020527f17bc176d2408558f6e4111feebc3cab4e16b63e967be91cde721f4c8a488b5525562000751565b811633811415908162000468575b506200045b5750565b620004669062000708565b565b905015153862000452565b0151905038806200030b565b60026000529190601f1984167f405787fa12a823e0f2b7631cc41b3ba8828b3321ca811111fa75cd3aa3bb5ace936000905b8282106200050d57505094600185620003b995620004449d9c9b99956200032695620004079c99620003e89b10620004f3575b505050811b0160025562000615565b015160001960f88460031b161c19169055388080620004e4565b80600186978294978701518155019601940190620004b1565b90600182811c9216801562000558575b60208310146200054257565b634e487b7160e01b600052602260045260246000fd5b91607f169162000536565b601f811162000570575050565b6000906002825260208220906020601f850160051c83019410620005b1575b601f0160051c01915b828110620005a557505050565b81815560010162000598565b90925082906200058f565b601f8111620005c9575050565b6000906003825260208220906020601f850160051c830194106200060a575b601f0160051c01915b828110620005fe57505050565b818155600101620005f1565b9092508290620005e8565b80519091906001600160401b0381116200011d5762000641816200063b60035462000526565b620005bc565b602080601f831160011462000680575081929360009262000674575b50508160011b916000199060031b1c191617600355565b0151905038806200065d565b6003600052601f198316949091907fc2575a0e9e593c00f959f8c92f12db2869c3395a3b0502d05e2516446f71f85b926000905b878210620006ef575050836001959610620006d5575b505050811b01600355565b015160001960f88460031b161c19169055388080620006ca565b80600185968294968601518155019501930190620006b4565b600980546001600160a01b039283166001600160a01b0319821681179092559091167f8be0079c531659141344cd1fd0a4f28419497f9722a3daafe3b4186f6b6457e0600080a3565b6001600160a01b031680156200079557604080519081016001600160401b038111828210176200011d576040528181526101f4602090910152607d60a21b17600a55565b60405162461bcd60e51b815260206004820152601960248201527f455243323938313a20696e76616c6964207265636569766572000000000000006044820152606490fdfe6080604052600436101561001257600080fd5b60003560e01c806301ffc9a7146102f2578063025f77cb146102ed57806302fa7c47146102e8578063048edee6146102e357806306ba01eb146102de57806306fdde03146102d9578063081812fc146102d4578063095ea7b3146102cf57806318160ddd146102ca5780632121dc75146102c557806323b872dd146102c05780632a55205a146102bb57806340010a7e146102b657806342842e0e146102b157806342966c68146102ac57806345afae15146102a757806358303b10146102a25780635d090cde1461029d5780636352211e146102985780636605bfda1461029357806368e6d96c1461028e57806370a0823114610266578063715018a6146102895780637ca62aff1461028457806383ac412f1461027f57806385a96af81461027a578063883356d9146102755780638da5cb5b1461027057806395d89b411461026b5780639ab24eb014610266578063a22cb46514610261578063a2309ff81461025c578063aa98053f14610257578063b88d4fde14610252578063c5f956af1461024d578063c87b56dd14610248578063ccd3f50414610243578063d5abeb011461023e578063da0239a614610239578063e6496fd714610234578063e985e9c51461022f578063ed6bac1d1461022a578063ee14ca8114610225578063f2fde38b14610220578063f58351ce1461021b5763f9c5d19a1461021657600080fd5b61180d565b6117e5565b611721565b611609565b6115a2565b611545565b6114fb565b6114cd565b6114af565b61145a565b611256565b61122d565b6111a9565b611008565b610fe6565b610f58565b610d07565b610e95565b610e6c565b610e46565b610de0565b610db4565b610d88565b610d2a565b610cb9565b610c04565b610bd5565b610adf565b610ac1565b610a0c565b610904565b6108e1565b6108c3565b610821565b61080d565b6107b2565b61078b565b6106da565b6106aa565b61059e565b61051c565b6104f6565b6103b9565b610364565b61030e565b6001600160e01b031981160361030957565b600080fd5b3461030957602036600319011261030957602060043561032d816102f7565b63ffffffff60e01b1663152a902d60e11b8114908115610353575b506040519015158152f35b6301ffc9a760e01b14905038610348565b3461030957600036600319011261030957600c546040516001600160a01b039091168152602090f35b600435906001600160a01b038216820361030957565b602435906001600160a01b038216820361030957565b34610309576040366003190112610309576103d261038d565b6024356001600160601b03811680820361030957612710906103f2611909565b1161049e576001600160a01b038216917f8039bd6e4e7dba001c8840eb2e118d9d131246faa7d0d04335f7305127ec0b10916104999161047f906104378615156119b0565b61045161044261117e565b6001600160a01b039092168252565b6001600160601b0383166020820152516001600160a01b03166001600160a01b031960a084901b1617600a55565b6040516001600160601b0390911681529081906020820190565b0390a2005b60405162461bcd60e51b815260206004820152602a60248201527f455243323938313a20726f79616c7479206665652077696c6c206578636565646044820152692073616c65507269636560b01b6064820152608490fd5b3461030957600036600319011261030957602060ff600f5460b01c166040519015158152f35b3461030957602036600319011261030957602061053a600435611ca5565b604051908152f35b60005b8381106105555750506000910152565b8181015183820152602001610545565b9060209161057e81518092818552858086019101610542565b601f01601f1916010190565b90602061059b928181520190610565565b90565b34610309576000806003193601126106a75760405190806002549060019180831c9280821692831561069d575b6020928386108514610689578588526020880194908115610668575060011461060f575b61060b876105ff8189038261115c565b6040519182918261058a565b0390f35b600260005294509192917f405787fa12a823e0f2b7631cc41b3ba8828b3321ca811111fa75cd3aa3bb5ace5b83861061065757505050910190506105ff8261060b38806105ef565b80548587015294820194810161063b565b60ff191685525050505090151560051b0190506105ff8261060b38806105ef565b634e487b7160e01b82526022600452602482fd5b93607f16936105cb565b80fd5b346103095760203660031901126103095760206106c8600435611e0d565b6040516001600160a01b039091168152f35b6040366003190112610309576106ee61038d565b6001600160a01b0390602435908261070583611d75565b16803303610759575b600093838552600660205260408520921691826001600160601b0360a01b8254161790557f8c5be1e5ebec7d5bd14f71427d1e84f3dd0314c0f7b2291e5b200ac8c7c3b9258480a480f35b600081815260076020908152604080832033845290915290205460ff1661070e576367d9dca160e11b60005260046000fd5b34610309576000366003190112610309576000546001546040519103600019018152602090f35b3461030957600036600319011261030957602060ff600f5460a01c166040519015158152f35b6060906003190112610309576001600160a01b0390600435828116810361030957916024359081168103610309579060443590565b61081f610819366107d8565b91611eaf565b005b3461030957604036600319011261030957600435600052600b60205260406000206040519061084f8261111f565b546001600160a01b0380821680845260a09290921c602084015290156108b3575b61089461088c6001600160601b0360208501511660243561199d565b612710900490565b915160408051929091166001600160a01b031682526020820192909252f35b90506108bd611961565b90610870565b34610309576000366003190112610309576020600e54604051908152f35b61081f6108ed366107d8565b90604051926108fb84611140565b60008452612106565b346103095760203660031901126103095760043560ff600f5460a81c16156109c7578061094861093c61093c61093c61081f95611d75565b6001600160a01b031690565b3314801561097f575b8015610966575b61096190611ce0565b6123cd565b506109613361097761093c84611e0d565b149050610958565b506109c23361099361093c61093c85611d75565b6001600160a01b039081166000908152600760209081526040808320939094168252919091522060ff90541690565b610951565b60405162461bcd60e51b815260206004820152601860248201527f5732453a204275726e696e672069732064697361626c656400000000000000006044820152606490fd5b3461030957602036600319011261030957610a2561038d565b610a2d611909565b6001600160a01b03908116908115610a7c57600c54826001600160601b0360a01b821617600c55167f078c3b417dadf69374a59793b829c52001247130433427049317bde56607b1b7600080a3005b60405162461bcd60e51b815260206004820152601b60248201527f5732453a20496e76616c6964206f7261636c65206164647265737300000000006044820152606490fd5b34610309576000366003190112610309576020601054604051908152f35b3461030957604036600319011261030957610af861038d565b6024359060018060a01b03610b1281600c541633146119fc565b610b2360ff600f5460b01c16611a48565b60005460001984820181019291018210610bd057610b45600d54831115611aa1565b8216928315610b9257610b79817f1b34d8487a319bb4bc294237f5de72c2c7f3a373fb8ffea7ecdf5fba22ad950e9461227c565b6040805191825260208201929092529081908101610499565b60405162461bcd60e51b815260206004820152601660248201527515cc914e88125b9d985b1a59081c9958da5c1a595b9d60521b6044820152606490fd5b611987565b346103095760203660031901126103095760206001600160a01b03610bfb600435611d75565b16604051908152f35b3461030957602036600319011261030957610c1d61038d565b610c25611909565b6001600160a01b03908116908115610c7457600f54826001600160601b0360a01b821617600f55167f4ab5be82436d353e61ca18726e984e561f5c1cc7c6d38b29d2553c790434705a600080a3005b60405162461bcd60e51b815260206004820152601d60248201527f5732453a20496e76616c696420747265617375727920616464726573730000006044820152606490fd5b34610309576000806003193601126106a757610cd3611909565b600f805460ff60b01b191690557fbf17eae738e3dfec409f8dde6d51520392854ce201d56aa6e78cefad5d3990898180a180f35b3461030957602036600319011261030957602061053a610d2561038d565b611d3a565b34610309576000806003193601126106a757610d44611909565b600980546001600160a01b0319811690915581906001600160a01b03167f8be0079c531659141344cd1fd0a4f28419497f9722a3daafe3b4186f6b6457e08280a380f35b346103095760203660031901126103095760043560005260116020526020604060002054604051908152f35b346103095760203660031901126103095760043560005260126020526020604060002054604051908152f35b346103095760203660031901126103095760043580151580910361030957610e06611909565b600f805460ff60a01b191660a083901b60ff60a01b161790557fb5de785724e50fc5abaa3af0cd2ca528c87cdb3d5216e36590942d979777923c600080a2005b3461030957600036600319011261030957602060ff600f5460a81c166040519015158152f35b34610309576000366003190112610309576009546040516001600160a01b039091168152602090f35b34610309576000806003193601126106a75760405190806003549060019180831c92808216928315610f4e575b60209283861085146106895785885260208801949081156106685750600114610ef55761060b876105ff8189038261115c565b600360005294509192917fc2575a0e9e593c00f959f8c92f12db2869c3395a3b0502d05e2516446f71f85b5b838610610f3d57505050910190506105ff8261060b38806105ef565b805485870152948201948101610f21565b93607f1693610ec2565b3461030957604036600319011261030957610f7161038d565b60243590811515809203610309573360009081526007602090815260408083206001600160a01b0385168452909152902060ff1981541660ff841617905560405191825260018060a01b0316907f17307eab39ab6107e8899845ad3d59bd9653f200f220920489ca2b5937696c3160203392a3005b3461030957600036600319011261030957602060001960005401604051908152f35b3461030957604036600319011261030957602435600435611027611909565b6010548111156110b657811561106657611055816110458493601055565b6000526011602052604060002090565b55600d54811161106157005b600d55005b60405162461bcd60e51b815260206004820152602260248201527f5732453a20506861736520737570706c79206d75737420626520706f73697469604482015261766560f01b6064820152608490fd5b60405162461bcd60e51b815260206004820152602560248201527f5732453a2043616e206f6e6c7920616476616e636520746f2068696768657220604482015264706861736560d81b6064820152608490fd5b634e487b7160e01b600052604160045260246000fd5b6040810190811067ffffffffffffffff82111761113b57604052565b611109565b6020810190811067ffffffffffffffff82111761113b57604052565b90601f8019910116810190811067ffffffffffffffff82111761113b57604052565b6040519061118b8261111f565b565b67ffffffffffffffff811161113b57601f01601f191660200190565b6080366003190112610309576111bd61038d565b6111c56103a3565b6064359167ffffffffffffffff83116103095736602384011215610309578260040135916111f28361118d565b92611200604051948561115c565b808452366024828701011161030957602081600092602461081f9801838801378501015260443591612106565b3461030957600036600319011261030957600f546040516001600160a01b039091168152602090f35b346103095760203660031901126103095760043561127381611e47565b1561141557600090807a184f03e93ff9f4daa797ed6e38ed64bf6a1f0100000000000000008181811015611407575b50506d04ee2d6d415b85acef8100000000808310156113f8575b50662386f26fc10000808310156113e9575b506305f5e100808310156113da575b50612710808310156113cb575b5060648210156113bb575b600a809210156113b1575b600190816021611311828701611bcc565b95860101905b61137b575b61060b61136d6105ff87604051928391611367602084016021907f68747470733a2f2f6170692e70616e646f7261732e636f6d2f6c6963656e73658152602f60f81b60208201520190565b90611bb5565b03601f19810183528261115c565b600019019083906f181899199a1a9b1b9c1cb0b131b232b360811b8282061a8353049182156113ac57919082611317565b61131c565b9160010191611300565b91906064600291049101916112f5565b600491939204910191386112ea565b600891939204910191386112dd565b601091939204910191386112ce565b602091939204910191386112bc565b6040945004915038806112a2565b60405162461bcd60e51b815260206004820152601960248201527f5732453a20546f6b656e20646f6573206e6f74206578697374000000000000006044820152606490fd5b346103095760203660031901126103095760043561148360018060a01b03600c541633146119fc565b61149461148f82611e47565b611bfe565b600052601260205260406000206114ab8154611c4a565b9055005b34610309576000366003190112610309576020600d54604051908152f35b3461030957600036600319011261030957600d546001600054820301908111610bd057602090604051908152f35b3461030957602036600319011261030957600435611517611909565b600e5481600e557fde29518294b67b15c622c33e091aa7ee4b00122daf20eedf488072e33d96fe74600080a3005b3461030957604036600319011261030957602060ff61159661156561038d565b61156d6103a3565b6001600160a01b0391821660009081526007865260408082209290931681526020919091522090565b54166040519015158152f35b34610309576000806003193601126106a7576010546001825b600a8211156115d8575b5050604080519182526020820192909252f35b8181526011602052604081205491939092911561160057506115f983611c4a565b90916115bb565b928192506115c5565b60203660031901126103095760043561162960ff600f5460b01c16611a48565b80156116dc5761164661163e82600e5461199d565b341015611aed565b6000907f1b34d8487a319bb4bc294237f5de72c2c7f3a373fb8ffea7ecdf5fba22ad950e6116d661167c83600019865401611a94565b61168a600d54821115611aa1565b611694843361227c565b6116bd85808080346116ad600f5460018060a01b031690565b5af16116b7611b39565b50611b69565b6040805194855260208501919091523393918291820190565b0390a280f35b60405162461bcd60e51b815260206004820152601e60248201527f5732453a205175616e74697479206d75737420626520706f73697469766500006044820152606490fd5b346103095760203660031901126103095761173a61038d565b611742611909565b6001600160a01b0390811690811561179157600954826001600160601b0360a01b821617600955167f8be0079c531659141344cd1fd0a4f28419497f9722a3daafe3b4186f6b6457e0600080a3005b60405162461bcd60e51b815260206004820152602660248201527f4f776e61626c653a206e6577206f776e657220697320746865207a65726f206160448201526564647265737360d01b6064820152608490fd5b34610309576020366003190112610309576020611803610d2561038d565b1515604051908152f35b346103095760403660031901126103095760043560243561183960018060a01b03600c541633146119fc565b61184561148f83611e47565b61184e82611ca5565b8111156118b6577fb4c5114dafb9430311b9c0e893d2181f328319c82627d1dcf3493b20bca66b1f90611885601054821115611c59565b61188e83611ca5565b6000848152601260205260408120556040805191825260208201929092529081908101610499565b60405162461bcd60e51b815260206004820152602560248201527f5732453a2043616e206f6e6c79207570677261646520746f2068696768657220604482015264706861736560d81b6064820152608490fd5b6009546001600160a01b0316330361191d57565b606460405162461bcd60e51b815260206004820152602060248201527f4f776e61626c653a2063616c6c6572206973206e6f7420746865206f776e65726044820152fd5b6040519061196e8261111f565b600a546001600160a01b038116835260a01c6020830152565b634e487b7160e01b600052601160045260246000fd5b81810292918115918404141715610bd057565b156119b757565b60405162461bcd60e51b815260206004820152601960248201527f455243323938313a20696e76616c6964207265636569766572000000000000006044820152606490fd5b15611a0357565b60405162461bcd60e51b815260206004820152601760248201527f5732453a204e6f742050616e646f7261204f7261636c650000000000000000006044820152606490fd5b15611a4f57565b60405162461bcd60e51b815260206004820152601860248201527f5732453a205072696d6172792073616c6520636c6f73656400000000000000006044820152606490fd5b91908201809211610bd057565b15611aa857565b60405162461bcd60e51b815260206004820152601760248201527f5732453a204d617820737570706c7920726561636865640000000000000000006044820152606490fd5b15611af457565b60405162461bcd60e51b815260206004820152601960248201527f5732453a20496e73756666696369656e74207061796d656e74000000000000006044820152606490fd5b3d15611b64573d90611b4a8261118d565b91611b58604051938461115c565b82523d6000602084013e565b606090565b15611b7057565b60405162461bcd60e51b815260206004820152601d60248201527f5732453a205472656173757279207472616e73666572206661696c65640000006044820152606490fd5b90611bc860209282815194859201610542565b0190565b90611bd68261118d565b611be3604051918261115c565b8281528092611bf4601f199161118d565b0190602036910137565b15611c0557565b60405162461bcd60e51b815260206004820152601b60248201527f5732453a204c6963656e736520646f6573206e6f7420657869737400000000006044820152606490fd5b6000198114610bd05760010190565b15611c6057565b60405162461bcd60e51b815260206004820152601c60248201527f5732453a205068617365206e6f742079657420617661696c61626c65000000006044820152606490fd5b611cb161148f82611e47565b60005260126020526040600020546064811015611cda5760321115611cd557600190565b600290565b50600390565b15611ce757565b60405162461bcd60e51b815260206004820152602560248201527f5732453a2043616c6c6572206973206e6f74206f776e6572206e6f72206170706044820152641c9bdd995960da1b6064820152608490fd5b6001600160a01b03168015611d6457600052600560205267ffffffffffffffff6040600020541690565b6323d3ad8160e21b60005260046000fd5b600190808211611dfc57611d93816000526004602052604060002090565b54918215611db0575b5050600160e01b81161561059b5780611dfc565b600054821015611dfc5790815b15611d9c5790915060001901611ddd816000526004602052604060002090565b54918215611df5575050600160e01b8116611dfc5790565b9081611dbd565b636f96cda160e11b60005260046000fd5b611e1681611e47565b15611e36576000908152600660205260409020546001600160a01b031690565b6333d1c03960e21b60005260046000fd5b600091906001908381831115611e5c57505050565b80548210611e6957505050565b9293509082815b611e82575b505050600160e01b161590565b828152600460205260408120549350909183611eaa578015610bd05760001901919081611e70565b611e75565b919091611ebb82611d75565b6001600160a01b03918216939091908183168590036120445760008481526006602052604090208054611f016001600160a01b03881633908114908314171590565b1590565b611ff6575b611f1083886120d4565b611fec575b506001600160a01b0385811660009081526005602090815260408083208054600019019055928416825282822080546001019055868252600490522091169384929091600160e11b904260a01b851782179055811615611fa2575b507fddf252ad1be2c89b69c2b068fc378daa952ba7f163c4a11628f55a4df523b3ef600080a415611f9d57565b61252b565b60018401611fba816000526004602052604060002090565b5415611fc7575b50611f70565b6000548114611fc157611fe4906000526004602052604060002090565b553880611fc1565b6000905538611f15565b61203a611efd6120333361201c8b60018060a01b03166000526007602052604060002090565b9060018060a01b0316600052602052604060002090565b5460ff1690565b15611f065761251a565b61250a565b60ff600f5460a01c161590816120cb575b816120b8575b5061206757565b60405162461bcd60e51b8152602060048201526024808201527f5732453a20546f6b656e206973206e6f6e2d7472616e7366657261626c6520286044820152635342542960e01b6064820152608490fd5b6001600160a01b03161515905038612060565b6000915061205a565b9060ff600f5460a01c161591826120f3575b50816120b8575061206757565b6001600160a01b031615159150386120e6565b929190612114828286611eaf565b803b612121575b50505050565b61212a93612253565b15612138573880808061211b565b6368d2bf6b60e11b60005260046000fd5b90816020910312610309575161059b816102f7565b61059b939260809260018060a01b031682526000602083015260408201528160608201520190610565565b6001600160a01b03918216815291166020820152604081019190915260806060820181905261059b92910190610565565b6121e360209160009394604051948580948193630a85bd0160e11b998a8452336004850161215e565b03926001600160a01b03165af160009181612223575b5061221557612206611b39565b80511561213857805190602001fd5b6001600160e01b0319161490565b61224591925060203d811161224c575b61223d818361115c565b810190612149565b90386121f9565b503d612233565b926020916121e3936000604051809681958294630a85bd0160e11b9a8b85523360048601612189565b60405161228881611140565b60009283825283549281156123c8576122a081612049565b6000848152600460205260409020600192906001600160a01b038316904260a01b83861460e11b17821790556001600160a01b0383166000908152600560205260409020680100000000000000018302815401905580156123c35781860195908480805b612374575b50505050848655813b61231f575b505050505050565b84039180805b612340575b50505050508154036106a7578080808080612317565b15612367575b85612358611efd8684870196866121ba565b6123625781612325565b612138565b848310612346578061232a565b156123ab575b50878583838b7fddf252ad1be2c89b69c2b068fc378daa952ba7f163c4a11628f55a4df523b3ef8180a49081612304565b909101908682146123bc578461237a565b8481612309565b61254d565b61253c565b6123d681611d75565b600082815260066020526040902080546001600160a01b0383169190929060ff600f5460a01c161580612501575b806124f9575b612067576000936124f0575b506001600160a01b038216600090815260056020526040902080546fffffffffffffffffffffffffffffffff01905560008481526004602052604090204260a01b8317600360e01b179055600160e11b8116156124a7575b507fddf252ad1be2c89b69c2b068fc378daa952ba7f163c4a11628f55a4df523b3ef8280a461118b6124a260015460010190565b600155565b600184016124bf816000526004602052604060002090565b54156124cc575b5061246e565b835481146124c6576124e8906000526004602052604060002090565b5538806124c6565b83905538612416565b50600061240a565b50821515612404565b62a1148160e81b60005260046000fd5b632ce44b5f60e11b60005260046000fd5b633a954ecd60e21b60005260046000fd5b63b562e8dd60e01b60005260046000fd5b622e076360e81b60005260046000fdfea2646970667358221220ef0d1450017a23b904a6b49af7e38e3d366dad2474f8ac33a6f1fedb935894d164736f6c63430008140033",
  "linkReferences": {},
  "deployedLinkReferences": {}
}