{
  "_format": "hh-sol-artifact-1",
  "contractName": "W2ELicense",
  "sourceName": "contracts/core/W2ELicense.sol",
  "abi": [
    {
      "inputs": [
        {
          "internalType": "string",
          "name": "name",
          "type": "string"
        },
        {
          "internalType": "string",
          "name": "symbol",
          "type": "string"
        },
        {
          "internalType": "uint256",
          "name": "_maxSupply",
          "type": "uint256"
        },
        {
          "internalType": "uint256",
          "name": "_licensePrice",
          "type": "uint256"
        },
        {
          "internalType": "address",
          "name": "_pandoraOracle",
          "type": "address"
        },
        {
          "internalType": "address",
          "name": "_treasuryAddress",
          "type": "address"
        },
        {
          "internalType": "address",
          "name": "initialOwner",
          "type": "address"
        }
      ],
      "stateMutability": "nonpayable",
      "type": "constructor"
    },
    {
      "inputs": [],
      "name": "ApprovalCallerNotOwnerNorApproved",
      "type": "error"
    },
    {
      "inputs": [],
      "name": "ApprovalQueryForNonexistentToken",
      "type": "error"
    },
    {
      "inputs": [],
      "name": "BalanceQueryForZeroAddress",
      "type": "error"
    },
    {
      "inputs": [],
      "name": "MintERC2309QuantityExceedsLimit",
      "type": "error"
    },
    {
      "inputs": [],
      "name": "MintToZeroAddress",
      "type": "error"
    },
    {
      "inputs": [],
      "name": "MintZeroQuantity",
      "type": "error"
    },
    {
      "inputs": [],
      "name": "NotCompatibleWithSpotMints",
      "type": "error"
    },
    {
      "inputs": [],
      "name": "OwnerQueryForNonexistentToken",
      "type": "error"
    },
    {
      "inputs": [],
      "name": "OwnershipNotInitializedForExtraData",
      "type": "error"
    },
    {
      "inputs": [],
      "name": "SequentialMintExceedsLimit",
      "type": "error"
    },
    {
      "inputs": [],
      "name": "SequentialUpToTooSmall",
      "type": "error"
    },
    {
      "inputs": [],
      "name": "SpotMintTokenIdTooSmall",
      "type": "error"
    },
    {
      "inputs": [],
      "name": "TokenAlreadyExists",
      "type": "error"
    },
    {
      "inputs": [],
      "name": "TransferCallerNotOwnerNorApproved",
      "type": "error"
    },
    {
      "inputs": [],
      "name": "TransferFromIncorrectOwner",
      "type": "error"
    },
    {
      "inputs": [],
      "name": "TransferToNonERC721ReceiverImplementer",
      "type": "error"
    },
    {
      "inputs": [],
      "name": "TransferToZeroAddress",
      "type": "error"
    },
    {
      "inputs": [],
      "name": "URIQueryForNonexistentToken",
      "type": "error"
    },
    {
      "anonymous": false,
      "inputs": [
        {
          "indexed": true,
          "internalType": "address",
          "name": "owner",
          "type": "address"
        },
        {
          "indexed": true,
          "internalType": "address",
          "name": "approved",
          "type": "address"
        },
        {
          "indexed": true,
          "internalType": "uint256",
          "name": "tokenId",
          "type": "uint256"
        }
      ],
      "name": "Approval",
      "type": "event"
    },
    {
      "anonymous": false,
      "inputs": [
        {
          "indexed": true,
          "internalType": "address",
          "name": "owner",
          "type": "address"
        },
        {
          "indexed": true,
          "internalType": "address",
          "name": "operator",
          "type": "address"
        },
        {
          "indexed": false,
          "internalType": "bool",
          "name": "approved",
          "type": "bool"
        }
      ],
      "name": "ApprovalForAll",
      "type": "event"
    },
    {
      "anonymous": false,
      "inputs": [
        {
          "indexed": true,
          "internalType": "uint256",
          "name": "fromTokenId",
          "type": "uint256"
        },
        {
          "indexed": false,
          "internalType": "uint256",
          "name": "toTokenId",
          "type": "uint256"
        },
        {
          "indexed": true,
          "internalType": "address",
          "name": "from",
          "type": "address"
        },
        {
          "indexed": true,
          "internalType": "address",
          "name": "to",
          "type": "address"
        }
      ],
      "name": "ConsecutiveTransfer",
      "type": "event"
    },
    {
      "anonymous": false,
      "inputs": [
        {
          "indexed": true,
          "internalType": "address",
          "name": "recipient",
          "type": "address"
        },
        {
          "indexed": false,
          "internalType": "uint256",
          "name": "quantity",
          "type": "uint256"
        },
        {
          "indexed": false,
          "internalType": "uint256",
          "name": "totalMinted",
          "type": "uint256"
        }
      ],
      "name": "LicenseMinted",
      "type": "event"
    },
    {
      "anonymous": false,
      "inputs": [
        {
          "indexed": true,
          "internalType": "uint256",
          "name": "oldPrice",
          "type": "uint256"
        },
        {
          "indexed": true,
          "internalType": "uint256",
          "name": "newPrice",
          "type": "uint256"
        }
      ],
      "name": "LicensePriceUpdated",
      "type": "event"
    },
    {
      "anonymous": false,
      "inputs": [
        {
          "indexed": true,
          "internalType": "uint256",
          "name": "tokenId",
          "type": "uint256"
        },
        {
          "indexed": false,
          "internalType": "uint256",
          "name": "oldPhase",
          "type": "uint256"
        },
        {
          "indexed": false,
          "internalType": "uint256",
          "name": "newPhase",
          "type": "uint256"
        }
      ],
      "name": "LicenseUpgraded",
      "type": "event"
    },
    {
      "anonymous": false,
      "inputs": [
        {
          "indexed": true,
          "internalType": "address",
          "name": "oldOracle",
          "type": "address"
        },
        {
          "indexed": true,
          "internalType": "address",
          "name": "newOracle",
          "type": "address"
        }
      ],
      "name": "OracleUpdated",
      "type": "event"
    },
    {
      "anonymous": false,
      "inputs": [
        {
          "indexed": true,
          "internalType": "address",
          "name": "previousOwner",
          "type": "address"
        },
        {
          "indexed": true,
          "internalType": "address",
          "name": "newOwner",
          "type": "address"
        }
      ],
      "name": "OwnershipTransferred",
      "type": "event"
    },
    {
      "anonymous": false,
      "inputs": [
        {
          "indexed": true,
          "internalType": "address",
          "name": "from",
          "type": "address"
        },
        {
          "indexed": true,
          "internalType": "address",
          "name": "to",
          "type": "address"
        },
        {
          "indexed": true,
          "internalType": "uint256",
          "name": "tokenId",
          "type": "uint256"
        }
      ],
      "name": "Transfer",
      "type": "event"
    },
    {
      "anonymous": false,
      "inputs": [
        {
          "indexed": true,
          "internalType": "address",
          "name": "oldTreasury",
          "type": "address"
        },
        {
          "indexed": true,
          "internalType": "address",
          "name": "newTreasury",
          "type": "address"
        }
      ],
      "name": "TreasuryUpdated",
      "type": "event"
    },
    {
      "inputs": [
        {
          "internalType": "uint256",
          "name": "newPhaseId",
          "type": "uint256"
        },
        {
          "internalType": "uint256",
          "name": "newPhaseMaxSupply",
          "type": "uint256"
        }
      ],
      "name": "advanceToPhase",
      "outputs": [],
      "stateMutability": "nonpayable",
      "type": "function"
    },
    {
      "inputs": [
        {
          "internalType": "address",
          "name": "to",
          "type": "address"
        },
        {
          "internalType": "uint256",
          "name": "tokenId",
          "type": "uint256"
        }
      ],
      "name": "approve",
      "outputs": [],
      "stateMutability": "payable",
      "type": "function"
    },
    {
      "inputs": [
        {
          "internalType": "address",
          "name": "owner",
          "type": "address"
        }
      ],
      "name": "balanceOf",
      "outputs": [
        {
          "internalType": "uint256",
          "name": "",
          "type": "uint256"
        }
      ],
      "stateMutability": "view",
      "type": "function"
    },
    {
      "inputs": [
        {
          "internalType": "uint256",
          "name": "tokenId",
          "type": "uint256"
        }
      ],
      "name": "getApproved",
      "outputs": [
        {
          "internalType": "address",
          "name": "",
          "type": "address"
        }
      ],
      "stateMutability": "view",
      "type": "function"
    },
    {
      "inputs": [
        {
          "internalType": "uint256",
          "name": "tokenId",
          "type": "uint256"
        }
      ],
      "name": "getLicensePhase",
      "outputs": [
        {
          "internalType": "uint256",
          "name": "",
          "type": "uint256"
        }
      ],
      "stateMutability": "view",
      "type": "function"
    },
    {
      "inputs": [],
      "name": "getPhaseStats",
      "outputs": [
        {
          "internalType": "uint256",
          "name": "currentPhase",
          "type": "uint256"
        },
        {
          "internalType": "uint256",
          "name": "totalPhases",
          "type": "uint256"
        }
      ],
      "stateMutability": "view",
      "type": "function"
    },
    {
      "inputs": [
        {
          "internalType": "address",
          "name": "account",
          "type": "address"
        }
      ],
      "name": "getVotes",
      "outputs": [
        {
          "internalType": "uint256",
          "name": "",
          "type": "uint256"
        }
      ],
      "stateMutability": "view",
      "type": "function"
    },
    {
      "inputs": [
        {
          "internalType": "address",
          "name": "account",
          "type": "address"
        }
      ],
      "name": "hasActiveLicense",
      "outputs": [
        {
          "internalType": "bool",
          "name": "",
          "type": "bool"
        }
      ],
      "stateMutability": "view",
      "type": "function"
    },
    {
      "inputs": [
        {
          "internalType": "address",
          "name": "owner",
          "type": "address"
        },
        {
          "internalType": "address",
          "name": "operator",
          "type": "address"
        }
      ],
      "name": "isApprovedForAll",
      "outputs": [
        {
          "internalType": "bool",
          "name": "",
          "type": "bool"
        }
      ],
      "stateMutability": "view",
      "type": "function"
    },
    {
      "inputs": [],
      "name": "licensePrice",
      "outputs": [
        {
          "internalType": "uint256",
          "name": "",
          "type": "uint256"
        }
      ],
      "stateMutability": "view",
      "type": "function"
    },
    {
      "inputs": [
        {
          "internalType": "uint256",
          "name": "",
          "type": "uint256"
        }
      ],
      "name": "licenseUsageCount",
      "outputs": [
        {
          "internalType": "uint256",
          "name": "",
          "type": "uint256"
        }
      ],
      "stateMutability": "view",
      "type": "function"
    },
    {
      "inputs": [],
      "name": "maxSupply",
      "outputs": [
        {
          "internalType": "uint256",
          "name": "",
          "type": "uint256"
        }
      ],
      "stateMutability": "view",
      "type": "function"
    },
    {
      "inputs": [
        {
          "internalType": "address",
          "name": "recipient",
          "type": "address"
        },
        {
          "internalType": "uint256",
          "name": "quantity",
          "type": "uint256"
        }
      ],
      "name": "mintLicense",
      "outputs": [],
      "stateMutability": "nonpayable",
      "type": "function"
    },
    {
      "inputs": [
        {
          "internalType": "uint256",
          "name": "quantity",
          "type": "uint256"
        }
      ],
      "name": "mintWithPayment",
      "outputs": [],
      "stateMutability": "payable",
      "type": "function"
    },
    {
      "inputs": [],
      "name": "name",
      "outputs": [
        {
          "internalType": "string",
          "name": "",
          "type": "string"
        }
      ],
      "stateMutability": "view",
      "type": "function"
    },
    {
      "inputs": [],
      "name": "owner",
      "outputs": [
        {
          "internalType": "address",
          "name": "",
          "type": "address"
        }
      ],
      "stateMutability": "view",
      "type": "function"
    },
    {
      "inputs": [
        {
          "internalType": "uint256",
          "name": "tokenId",
          "type": "uint256"
        }
      ],
      "name": "ownerOf",
      "outputs": [
        {
          "internalType": "address",
          "name": "",
          "type": "address"
        }
      ],
      "stateMutability": "view",
      "type": "function"
    },
    {
      "inputs": [],
      "name": "pandoraOracle",
      "outputs": [
        {
          "internalType": "address",
          "name": "",
          "type": "address"
        }
      ],
      "stateMutability": "view",
      "type": "function"
    },
    {
      "inputs": [],
      "name": "phaseId",
      "outputs": [
        {
          "internalType": "uint256",
          "name": "",
          "type": "uint256"
        }
      ],
      "stateMutability": "view",
      "type": "function"
    },
    {
      "inputs": [
        {
          "internalType": "uint256",
          "name": "",
          "type": "uint256"
        }
      ],
      "name": "phaseMaxSupply",
      "outputs": [
        {
          "internalType": "uint256",
          "name": "",
          "type": "uint256"
        }
      ],
      "stateMutability": "view",
      "type": "function"
    },
    {
      "inputs": [
        {
          "internalType": "uint256",
          "name": "tokenId",
          "type": "uint256"
        }
      ],
      "name": "recordLicenseUsage",
      "outputs": [],
      "stateMutability": "nonpayable",
      "type": "function"
    },
    {
      "inputs": [],
      "name": "remainingSupply",
      "outputs": [
        {
          "internalType": "uint256",
          "name": "",
          "type": "uint256"
        }
      ],
      "stateMutability": "view",
      "type": "function"
    },
    {
      "inputs": [],
      "name": "renounceOwnership",
      "outputs": [],
      "stateMutability": "nonpayable",
      "type": "function"
    },
    {
      "inputs": [
        {
          "internalType": "address",
          "name": "from",
          "type": "address"
        },
        {
          "internalType": "address",
          "name": "to",
          "type": "address"
        },
        {
          "internalType": "uint256",
          "name": "tokenId",
          "type": "uint256"
        }
      ],
      "name": "safeTransferFrom",
      "outputs": [],
      "stateMutability": "payable",
      "type": "function"
    },
    {
      "inputs": [
        {
          "internalType": "address",
          "name": "from",
          "type": "address"
        },
        {
          "internalType": "address",
          "name": "to",
          "type": "address"
        },
        {
          "internalType": "uint256",
          "name": "tokenId",
          "type": "uint256"
        },
        {
          "internalType": "bytes",
          "name": "_data",
          "type": "bytes"
        }
      ],
      "name": "safeTransferFrom",
      "outputs": [],
      "stateMutability": "payable",
      "type": "function"
    },
    {
      "inputs": [
        {
          "internalType": "address",
          "name": "operator",
          "type": "address"
        },
        {
          "internalType": "bool",
          "name": "approved",
          "type": "bool"
        }
      ],
      "name": "setApprovalForAll",
      "outputs": [],
      "stateMutability": "nonpayable",
      "type": "function"
    },
    {
      "inputs": [
        {
          "internalType": "uint256",
          "name": "newPrice",
          "type": "uint256"
        }
      ],
      "name": "setLicensePrice",
      "outputs": [],
      "stateMutability": "nonpayable",
      "type": "function"
    },
    {
      "inputs": [
        {
          "internalType": "address",
          "name": "newOracle",
          "type": "address"
        }
      ],
      "name": "setPandoraOracle",
      "outputs": [],
      "stateMutability": "nonpayable",
      "type": "function"
    },
    {
      "inputs": [
        {
          "internalType": "address",
          "name": "newTreasury",
          "type": "address"
        }
      ],
      "name": "setTreasuryAddress",
      "outputs": [],
      "stateMutability": "nonpayable",
      "type": "function"
    },
    {
      "inputs": [
        {
          "internalType": "bytes4",
          "name": "interfaceId",
          "type": "bytes4"
        }
      ],
      "name": "supportsInterface",
      "outputs": [
        {
          "internalType": "bool",
          "name": "",
          "type": "bool"
        }
      ],
      "stateMutability": "view",
      "type": "function"
    },
    {
      "inputs": [],
      "name": "symbol",
      "outputs": [
        {
          "internalType": "string",
          "name": "",
          "type": "string"
        }
      ],
      "stateMutability": "view",
      "type": "function"
    },
    {
      "inputs": [
        {
          "internalType": "uint256",
          "name": "tokenId",
          "type": "uint256"
        }
      ],
      "name": "tokenURI",
      "outputs": [
        {
          "internalType": "string",
          "name": "",
          "type": "string"
        }
      ],
      "stateMutability": "view",
      "type": "function"
    },
    {
      "inputs": [],
      "name": "totalMinted",
      "outputs": [
        {
          "internalType": "uint256",
          "name": "",
          "type": "uint256"
        }
      ],
      "stateMutability": "view",
      "type": "function"
    },
    {
      "inputs": [],
      "name": "totalSupply",
      "outputs": [
        {
          "internalType": "uint256",
          "name": "result",
          "type": "uint256"
        }
      ],
      "stateMutability": "view",
      "type": "function"
    },
    {
      "inputs": [
        {
          "internalType": "address",
          "name": "from",
          "type": "address"
        },
        {
          "internalType": "address",
          "name": "to",
          "type": "address"
        },
        {
          "internalType": "uint256",
          "name": "tokenId",
          "type": "uint256"
        }
      ],
      "name": "transferFrom",
      "outputs": [],
      "stateMutability": "payable",
      "type": "function"
    },
    {
      "inputs": [
        {
          "internalType": "address",
          "name": "newOwner",
          "type": "address"
        }
      ],
      "name": "transferOwnership",
      "outputs": [],
      "stateMutability": "nonpayable",
      "type": "function"
    },
    {
      "inputs": [],
      "name": "treasuryAddress",
      "outputs": [
        {
          "internalType": "address",
          "name": "",
          "type": "address"
        }
      ],
      "stateMutability": "view",
      "type": "function"
    },
    {
      "inputs": [
        {
          "internalType": "uint256",
          "name": "tokenId",
          "type": "uint256"
        },
        {
          "internalType": "uint256",
          "name": "newPhaseId",
          "type": "uint256"
        }
      ],
      "name": "upgradeLicense",
      "outputs": [],
      "stateMutability": "nonpayable",
      "type": "function"
    }
  ],
  "bytecode": "0x608060405234620000bc5762002495803803806200001d81620000d7565b92833981019060e081830312620000bc5780516001600160401b0390818111620000bc57836200004f91840162000103565b906020830151908111620000bc57620000ac936200006f91840162000103565b6040830151606084015191620000886080860162000175565b93620000a560c06200009d60a0890162000175565b970162000175565b50620002c9565b604051611d969081620006ff8239f35b600080fd5b634e487b7160e01b600052604160045260246000fd5b6040519190601f01601f191682016001600160401b03811183821017620000fd57604052565b620000c1565b919080601f84011215620000bc5782516001600160401b038111620000fd5760209062000139601f8201601f19168301620000d7565b92818452828287010111620000bc5760005b8181106200016157508260009394955001015290565b85810183015184820184015282016200014b565b51906001600160a01b0382168203620000bc57565b156200019257565b606460405162461bcd60e51b815260206004820152602060248201527f5732453a204d617820737570706c79206d75737420626520706f7369746976656044820152fd5b15620001de57565b60405162461bcd60e51b815260206004820152602360248201527f5732453a204c6963656e7365207072696365206d75737420626520706f73697460448201526269766560e81b6064820152608490fd5b156200023757565b60405162461bcd60e51b815260206004820152601b60248201527f5732453a20496e76616c6964206f7261636c65206164647265737300000000006044820152606490fd5b156200028457565b60405162461bcd60e51b815260206004820152601d60248201527f5732453a20496e76616c696420747265617375727920616464726573730000006044820152606490fd5b80519295949392906001600160401b038211620000fd57620002f882620002f2600254620004d3565b62000510565b60209081601f8411600114620004325750620003ed96959383620003a994620003cb9794620003459460009262000426575b50508160011b916000199060031b1c191617600255620005c2565b620003506001600055565b6200035b33620006b5565b620003688715156200018a565b62000375811515620001d6565b6200039a6001600160a01b036200039085821615156200022f565b861615156200027c565b620003a487600b55565b600c55565b600a80546001600160a01b0319166001600160a01b0392909216919091179055565b600d80546001600160a01b0319166001600160a01b0392909216919091179055565b620003f86001600e55565b6001600052600f6020527f169f97de0d9a84d840042b17d3c6b9638b3d6fd9024c9eb0c7a306a17b49f88f55565b0151905038806200032a565b60026000529190601f1984167f405787fa12a823e0f2b7631cc41b3ba8828b3321ca811111fa75cd3aa3bb5ace936000905b828210620004ba57505084620003cb97946200034594620003ed9b9a9894620003a99860019510620004a0575b505050811b01600255620005c2565b015160001960f88460031b161c1916905538808062000491565b8060018697829497870151815501960194019062000464565b90600182811c9216801562000505575b6020831014620004ef57565b634e487b7160e01b600052602260045260246000fd5b91607f1691620004e3565b601f81116200051d575050565b6000906002825260208220906020601f850160051c830194106200055e575b601f0160051c01915b8281106200055257505050565b81815560010162000545565b90925082906200053c565b601f811162000576575050565b6000906003825260208220906020601f850160051c83019410620005b7575b601f0160051c01915b828110620005ab57505050565b8181556001016200059e565b909250829062000595565b80519091906001600160401b038111620000fd57620005ee81620005e8600354620004d3565b62000569565b602080601f83116001146200062d575081929360009262000621575b50508160011b916000199060031b1c191617600355565b0151905038806200060a565b6003600052601f198316949091907fc2575a0e9e593c00f959f8c92f12db2869c3395a3b0502d05e2516446f71f85b926000905b8782106200069c57505083600195961062000682575b505050811b01600355565b015160001960f88460031b161c1916905538808062000677565b8060018596829496860151815501950193019062000661565b600980546001600160a01b039283166001600160a01b0319821681179092559091167f8be0079c531659141344cd1fd0a4f28419497f9722a3daafe3b4186f6b6457e0600080a356fe6080604052600436101561001257600080fd5b60003560e01c806301ffc9a714610272578063025f77cb1461026d57806306ba01eb1461026857806306fdde0314610263578063081812fc1461025e578063095ea7b31461025957806318160ddd1461025457806323b872dd1461024f57806340010a7e1461024a57806342842e0e1461024557806345afae151461024057806358303b101461023b5780635d090cde146102365780636352211e146102315780636605bfda1461022c57806370a082311461020e578063715018a6146102275780637ca62aff1461022257806383ac412f1461021d5780638da5cb5b1461021857806395d89b41146102135780639ab24eb01461020e578063a22cb46514610209578063a2309ff814610204578063aa98053f146101ff578063b88d4fde146101fa578063c5f956af146101f5578063c87b56dd146101f0578063ccd3f504146101eb578063d5abeb01146101e6578063da0239a6146101e1578063e6496fd7146101dc578063e985e9c5146101d7578063ed6bac1d146101d2578063ee14ca81146101cd578063f2fde38b146101c8578063f58351ce146101c35763f9c5d19a146101be57600080fd5b61136f565b611347565b611283565b61117c565b611115565b6110b8565b61106e565b611040565b611022565b610fcd565b610dc9565b610da0565b610d1c565b610ba6565b610b84565b610af6565b610931565b610a33565b610a0a565b6109de565b6109b2565b610954565b61087c565b61084d565b610767565b610749565b610694565b610671565b610653565b61063f565b6105e3565b610532565b6104b3565b6103a7565b610325565b6102fc565b61028e565b6001600160e01b031981160361028957565b600080fd5b346102895760203660031901126102895760206004356102ad81610277565b63ffffffff60e01b166301ffc9a760e01b81149081156102eb575b81156102da575b506040519015158152f35b635b5e139f60e01b149050386102cf565b6380ac58cd60e01b811491506102c8565b3461028957600036600319011261028957600a546040516001600160a01b039091168152602090f35b34610289576020366003190112610289576020610343600435611749565b604051908152f35b60005b83811061035e5750506000910152565b818101518382015260200161034e565b906020916103878151809281855285808601910161034b565b601f01601f1916010190565b9060206103a492818152019061036e565b90565b34610289576000806003193601126104b05760405190806002549060019180831c928082169283156104a6575b60209283861085146104925785885260208801949081156104715750600114610418575b6104148761040881890382610cde565b60405191829182610393565b0390f35b600260005294509192917f405787fa12a823e0f2b7631cc41b3ba8828b3321ca811111fa75cd3aa3bb5ace5b83861061046057505050910190506104088261041438806103f8565b805485870152948201948101610444565b60ff191685525050505090151560051b0190506104088261041438806103f8565b634e487b7160e01b82526022600452602482fd5b93607f16936103d4565b80fd5b34610289576020366003190112610289576004356104d081611857565b156104f5576000526006602052602060018060a01b0360406000205416604051908152f35b6333d1c03960e21b60005260046000fd5b600435906001600160a01b038216820361028957565b602435906001600160a01b038216820361028957565b604036600319011261028957610546610506565b6001600160a01b0390602435908261055d836117bf565b168033036105b1575b600093838552600660205260408520921691826001600160601b0360a01b8254161790557f8c5be1e5ebec7d5bd14f71427d1e84f3dd0314c0f7b2291e5b200ac8c7c3b9258480a480f35b600081815260076020908152604080832033845290915290205460ff16610566576367d9dca160e11b60005260046000fd5b34610289576000366003190112610289576000546001546040519103600019018152602090f35b6060906003190112610289576001600160a01b0390600435828116810361028957916024359081168103610289579060443590565b61065161064b3661060a565b916118bf565b005b34610289576000366003190112610289576020600c54604051908152f35b61065161067d3661060a565b906040519261068b84610cbd565b60008452611a4f565b34610289576020366003190112610289576106ad610506565b6106b561146b565b6001600160a01b0390811690811561070457600a54826001600160601b0360a01b821617600a55167f078c3b417dadf69374a59793b829c52001247130433427049317bde56607b1b7600080a3005b60405162461bcd60e51b815260206004820152601b60248201527f5732453a20496e76616c6964206f7261636c65206164647265737300000000006044820152606490fd5b34610289576000366003190112610289576020600e54604051908152f35b3461028957604036600319011261028957610780610506565b6024359060018060a01b0361079a81600a541633146114c3565b60005460001984820181019291018210610848576107bc600b54831115611532565b821692831561080a576107f0817f1b34d8487a319bb4bc294237f5de72c2c7f3a373fb8ffea7ecdf5fba22ad950e94611bc5565b60408051918252602082019290925290819081015b0390a2005b60405162461bcd60e51b815260206004820152601660248201527515cc914e88125b9d985b1a59081c9958da5c1a595b9d60521b6044820152606490fd5b61150f565b346102895760203660031901126102895760206001600160a01b036108736004356117bf565b16604051908152f35b3461028957602036600319011261028957610895610506565b61089d61146b565b6001600160a01b039081169081156108ec57600d54826001600160601b0360a01b821617600d55167f4ab5be82436d353e61ca18726e984e561f5c1cc7c6d38b29d2553c790434705a600080a3005b60405162461bcd60e51b815260206004820152601d60248201527f5732453a20496e76616c696420747265617375727920616464726573730000006044820152606490fd5b3461028957602036600319011261028957602061034361094f610506565b611784565b34610289576000806003193601126104b05761096e61146b565b600980546001600160a01b0319811690915581906001600160a01b03167f8be0079c531659141344cd1fd0a4f28419497f9722a3daafe3b4186f6b6457e08280a380f35b3461028957602036600319011261028957600435600052600f6020526020604060002054604051908152f35b346102895760203660031901126102895760043560005260106020526020604060002054604051908152f35b34610289576000366003190112610289576009546040516001600160a01b039091168152602090f35b34610289576000806003193601126104b05760405190806003549060019180831c92808216928315610aec575b60209283861085146104925785885260208801949081156104715750600114610a93576104148761040881890382610cde565b600360005294509192917fc2575a0e9e593c00f959f8c92f12db2869c3395a3b0502d05e2516446f71f85b5b838610610adb57505050910190506104088261041438806103f8565b805485870152948201948101610abf565b93607f1693610a60565b3461028957604036600319011261028957610b0f610506565b60243590811515809203610289573360009081526007602090815260408083206001600160a01b0385168452909152902060ff1981541660ff841617905560405191825260018060a01b0316907f17307eab39ab6107e8899845ad3d59bd9653f200f220920489ca2b5937696c3160203392a3005b3461028957600036600319011261028957602060001960005401604051908152f35b3461028957604036600319011261028957602435600435610bc561146b565b600e54811115610c54578115610c0457610bf381610be38493600e55565b600052600f602052604060002090565b55600b548111610bff57005b600b55005b60405162461bcd60e51b815260206004820152602260248201527f5732453a20506861736520737570706c79206d75737420626520706f73697469604482015261766560f01b6064820152608490fd5b60405162461bcd60e51b815260206004820152602560248201527f5732453a2043616e206f6e6c7920616476616e636520746f2068696768657220604482015264706861736560d81b6064820152608490fd5b634e487b7160e01b600052604160045260246000fd5b6020810190811067ffffffffffffffff821117610cd957604052565b610ca7565b90601f8019910116810190811067ffffffffffffffff821117610cd957604052565b67ffffffffffffffff8111610cd957601f01601f191660200190565b608036600319011261028957610d30610506565b610d3861051c565b6064359167ffffffffffffffff8311610289573660238401121561028957826004013591610d6583610d00565b92610d736040519485610cde565b80845236602482870101116102895760208160009260246106519801838801378501015260443591611a4f565b3461028957600036600319011261028957600d546040516001600160a01b039091168152602090f35b3461028957602036600319011261028957600435610de681611857565b15610f8857600090807a184f03e93ff9f4daa797ed6e38ed64bf6a1f0100000000000000008181811015610f7a575b50506d04ee2d6d415b85acef810000000080831015610f6b575b50662386f26fc1000080831015610f5c575b506305f5e10080831015610f4d575b5061271080831015610f3e575b506064821015610f2e575b600a80921015610f24575b600190816021610e84828701611670565b95860101905b610eee575b610414610ee061040887604051928391610eda602084016021907f68747470733a2f2f6170692e70616e646f7261732e636f6d2f6c6963656e73658152602f60f81b60208201520190565b90611659565b03601f198101835282610cde565b600019019083906f181899199a1a9b1b9c1cb0b131b232b360811b8282061a835304918215610f1f57919082610e8a565b610e8f565b9160010191610e73565b9190606460029104910191610e68565b60049193920491019138610e5d565b60089193920491019138610e50565b60109193920491019138610e41565b60209193920491019138610e2f565b604094500491503880610e15565b60405162461bcd60e51b815260206004820152601960248201527f5732453a20546f6b656e20646f6573206e6f74206578697374000000000000006044820152606490fd5b3461028957602036600319011261028957600435610ff660018060a01b03600a541633146114c3565b61100761100282611857565b6116a2565b6000526010602052604060002061101e81546116ee565b9055005b34610289576000366003190112610289576020600b54604051908152f35b3461028957600036600319011261028957600b54600160005482030190811161084857602090604051908152f35b346102895760203660031901126102895760043561108a61146b565b600c5481600c557fde29518294b67b15c622c33e091aa7ee4b00122daf20eedf488072e33d96fe74600080a3005b3461028957604036600319011261028957602060ff6111096110d8610506565b6110e061051c565b6001600160a01b0391821660009081526007865260408082209290931681526020919091522090565b54166040519015158152f35b34610289576000806003193601126104b057600e546001825b600a82111561114b575b5050604080519182526020820192909252f35b818152600f6020526040812054919390929115611173575061116c836116ee565b909161112e565b92819250611138565b602036600319011261028957600435801561123e576111a86111a082600c5461157e565b341015611591565b6000907f1b34d8487a319bb4bc294237f5de72c2c7f3a373fb8ffea7ecdf5fba22ad950e6112386111de83600019865401611525565b6111ec600b54821115611532565b6111f68433611bc5565b61121f858080803461120f600d5460018060a01b031690565b5af16112196115dd565b5061160d565b6040805194855260208501919091523393918291820190565b0390a280f35b60405162461bcd60e51b815260206004820152601e60248201527f5732453a205175616e74697479206d75737420626520706f73697469766500006044820152606490fd5b346102895760203660031901126102895761129c610506565b6112a461146b565b6001600160a01b039081169081156112f357600954826001600160601b0360a01b821617600955167f8be0079c531659141344cd1fd0a4f28419497f9722a3daafe3b4186f6b6457e0600080a3005b60405162461bcd60e51b815260206004820152602660248201527f4f776e61626c653a206e6577206f776e657220697320746865207a65726f206160448201526564647265737360d01b6064820152608490fd5b3461028957602036600319011261028957602061136561094f610506565b1515604051908152f35b346102895760403660031901126102895760043560243561139b60018060a01b03600a541633146114c3565b6113a761100283611857565b6113b082611749565b811115611418577fb4c5114dafb9430311b9c0e893d2181f328319c82627d1dcf3493b20bca66b1f906113e7600e548211156116fd565b6113f083611749565b6000848152601060205260408120556040805191825260208201929092529081908101610805565b60405162461bcd60e51b815260206004820152602560248201527f5732453a2043616e206f6e6c79207570677261646520746f2068696768657220604482015264706861736560d81b6064820152608490fd5b6009546001600160a01b0316330361147f57565b606460405162461bcd60e51b815260206004820152602060248201527f4f776e61626c653a2063616c6c6572206973206e6f7420746865206f776e65726044820152fd5b156114ca57565b60405162461bcd60e51b815260206004820152601760248201527f5732453a204e6f742050616e646f7261204f7261636c650000000000000000006044820152606490fd5b634e487b7160e01b600052601160045260246000fd5b9190820180921161084857565b1561153957565b60405162461bcd60e51b815260206004820152601760248201527f5732453a204d617820737570706c7920726561636865640000000000000000006044820152606490fd5b8181029291811591840414171561084857565b1561159857565b60405162461bcd60e51b815260206004820152601960248201527f5732453a20496e73756666696369656e74207061796d656e74000000000000006044820152606490fd5b3d15611608573d906115ee82610d00565b916115fc6040519384610cde565b82523d6000602084013e565b606090565b1561161457565b60405162461bcd60e51b815260206004820152601d60248201527f5732453a205472656173757279207472616e73666572206661696c65640000006044820152606490fd5b9061166c6020928281519485920161034b565b0190565b9061167a82610d00565b6116876040519182610cde565b8281528092611698601f1991610d00565b0190602036910137565b156116a957565b60405162461bcd60e51b815260206004820152601b60248201527f5732453a204c6963656e736520646f6573206e6f7420657869737400000000006044820152606490fd5b60001981146108485760010190565b1561170457565b60405162461bcd60e51b815260206004820152601c60248201527f5732453a205068617365206e6f742079657420617661696c61626c65000000006044820152606490fd5b61175561100282611857565b6000526010602052604060002054606481101561177e576032111561177957600190565b600290565b50600390565b6001600160a01b031680156117ae57600052600560205267ffffffffffffffff6040600020541690565b6323d3ad8160e21b60005260046000fd5b600190808211611846576117dd816000526004602052604060002090565b549182156117fa575b5050600160e01b8116156103a45780611846565b6000548210156118465790815b156117e65790915060001901611827816000526004602052604060002090565b5491821561183f575050600160e01b81166118465790565b9081611807565b636f96cda160e11b60005260046000fd5b60009190600190838183111561186c57505050565b8054821061187957505050565b9293509082815b611892575b505050600160e01b161590565b8281526004602052604081205493509091836118ba5780156108485760001901919081611880565b611885565b9190916118cb826117bf565b6001600160a01b0391821693909190818316859003611a4a57600084815260066020526040902080546119116001600160a01b03881633908114908314171590565b1590565b6119fc575b6119f2575b506001600160a01b0385811660009081526005602090815260408083208054600019019055928416825282822080546001019055868252600490522091169384929091600160e11b904260a01b8517821790558116156119a8575b507fddf252ad1be2c89b69c2b068fc378daa952ba7f163c4a11628f55a4df523b3ef600080a4156119a357565b611d2e565b600184016119c0816000526004602052604060002090565b54156119cd575b50611976565b60005481146119c7576119ea906000526004602052604060002090565b5538806119c7565b600090553861191b565b611a4061190d611a3933611a228b60018060a01b03166000526007602052604060002090565b9060018060a01b0316600052602052604060002090565b5460ff1690565b1561191657611d1d565b611d0d565b929190611a5d8282866118bf565b803b611a6a575b50505050565b611a7393611b9c565b15611a815738808080611a64565b6368d2bf6b60e11b60005260046000fd5b9081602091031261028957516103a481610277565b6103a4939260809260018060a01b03168252600060208301526040820152816060820152019061036e565b6001600160a01b0391821681529116602082015260408101919091526080606082018190526103a49291019061036e565b611b2c60209160009394604051948580948193630a85bd0160e11b998a84523360048501611aa7565b03926001600160a01b03165af160009181611b6c575b50611b5e57611b4f6115dd565b805115611a8157805190602001fd5b6001600160e01b0319161490565b611b8e91925060203d8111611b95575b611b868183610cde565b810190611a92565b9038611b42565b503d611b7c565b92602091611b2c936000604051809681958294630a85bd0160e11b9a8b85523360048601611ad2565b604051611bd181610cbd565b6000928382528354928115611d08576000848152600460205260409020600192906001600160a01b038316904260a01b83861460e11b17821790556001600160a01b038316600090815260056020526040902068010000000000000001830281540190558015611d035781860195908480805b611cb4575b50505050848655813b611c5f575b505050505050565b84039180805b611c80575b50505050508154036104b0578080808080611c57565b15611ca7575b85611c9861190d868487019686611b03565b611ca25781611c65565b611a81565b848310611c865780611c6a565b15611ceb575b50878583838b7fddf252ad1be2c89b69c2b068fc378daa952ba7f163c4a11628f55a4df523b3ef8180a49081611c44565b90910190868214611cfc5784611cba565b8481611c49565b611d50565b611d3f565b62a1148160e81b60005260046000fd5b632ce44b5f60e11b60005260046000fd5b633a954ecd60e21b60005260046000fd5b63b562e8dd60e01b60005260046000fd5b622e076360e81b60005260046000fdfea2646970667358221220f8150d58f15a71cfd433a450fc8586bf157bdb219d387ebbcf34aa0df8e69bc064736f6c63430008140033",
  "linkReferences": {},
  "deployedLinkReferences": {}
}