{
  "_format": "hh-sol-artifact-1",
  "abi": [
    {
      "type": "constructor",
      "inputs": [
        {
          "name": "name",
          "type": "string",
          "internalType": "string"
        },
        {
          "name": "symbol",
          "type": "string",
          "internalType": "string"
        },
        {
          "name": "_maxSupply",
          "type": "uint256",
          "internalType": "uint256"
        },
        {
          "name": "_licensePrice",
          "type": "uint256",
          "internalType": "uint256"
        },
        {
          "name": "_pandoraOracle",
          "type": "address",
          "internalType": "address"
        },
        {
          "name": "_treasuryAddress",
          "type": "address",
          "internalType": "address"
        },
        {
          "name": "initialOwner",
          "type": "address",
          "internalType": "address"
        },
        {
          "name": "_isTransferable",
          "type": "bool",
          "internalType": "bool"
        },
        {
          "name": "_isBurnable",
          "type": "bool",
          "internalType": "bool"
        }
      ],
      "stateMutability": "nonpayable"
    },
    {
      "type": "function",
      "name": "advanceToPhase",
      "inputs": [
        {
          "name": "newPhaseId",
          "type": "uint256",
          "internalType": "uint256"
        },
        {
          "name": "newPhaseMaxSupply",
          "type": "uint256",
          "internalType": "uint256"
        }
      ],
      "outputs": [],
      "stateMutability": "nonpayable"
    },
    {
      "type": "function",
      "name": "approve",
      "inputs": [
        {
          "name": "to",
          "type": "address",
          "internalType": "address"
        },
        {
          "name": "tokenId",
          "type": "uint256",
          "internalType": "uint256"
        }
      ],
      "outputs": [],
      "stateMutability": "payable"
    },
    {
      "type": "function",
      "name": "balanceOf",
      "inputs": [
        {
          "name": "owner",
          "type": "address",
          "internalType": "address"
        }
      ],
      "outputs": [
        {
          "name": "",
          "type": "uint256",
          "internalType": "uint256"
        }
      ],
      "stateMutability": "view"
    },
    {
      "type": "function",
      "name": "burn",
      "inputs": [
        {
          "name": "tokenId",
          "type": "uint256",
          "internalType": "uint256"
        }
      ],
      "outputs": [],
      "stateMutability": "nonpayable"
    },
    {
      "type": "function",
      "name": "closePrimarySale",
      "inputs": [],
      "outputs": [],
      "stateMutability": "nonpayable"
    },
    {
      "type": "function",
      "name": "getApproved",
      "inputs": [
        {
          "name": "tokenId",
          "type": "uint256",
          "internalType": "uint256"
        }
      ],
      "outputs": [
        {
          "name": "",
          "type": "address",
          "internalType": "address"
        }
      ],
      "stateMutability": "view"
    },
    {
      "type": "function",
      "name": "getLicensePhase",
      "inputs": [
        {
          "name": "tokenId",
          "type": "uint256",
          "internalType": "uint256"
        }
      ],
      "outputs": [
        {
          "name": "",
          "type": "uint256",
          "internalType": "uint256"
        }
      ],
      "stateMutability": "view"
    },
    {
      "type": "function",
      "name": "getPhaseStats",
      "inputs": [],
      "outputs": [
        {
          "name": "currentPhase",
          "type": "uint256",
          "internalType": "uint256"
        },
        {
          "name": "totalPhases",
          "type": "uint256",
          "internalType": "uint256"
        }
      ],
      "stateMutability": "view"
    },
    {
      "type": "function",
      "name": "getVotes",
      "inputs": [
        {
          "name": "account",
          "type": "address",
          "internalType": "address"
        }
      ],
      "outputs": [
        {
          "name": "",
          "type": "uint256",
          "internalType": "uint256"
        }
      ],
      "stateMutability": "view"
    },
    {
      "type": "function",
      "name": "hasActiveLicense",
      "inputs": [
        {
          "name": "account",
          "type": "address",
          "internalType": "address"
        }
      ],
      "outputs": [
        {
          "name": "",
          "type": "bool",
          "internalType": "bool"
        }
      ],
      "stateMutability": "view"
    },
    {
      "type": "function",
      "name": "isApprovedForAll",
      "inputs": [
        {
          "name": "owner",
          "type": "address",
          "internalType": "address"
        },
        {
          "name": "operator",
          "type": "address",
          "internalType": "address"
        }
      ],
      "outputs": [
        {
          "name": "",
          "type": "bool",
          "internalType": "bool"
        }
      ],
      "stateMutability": "view"
    },
    {
      "type": "function",
      "name": "isBurnable",
      "inputs": [],
      "outputs": [
        {
          "name": "",
          "type": "bool",
          "internalType": "bool"
        }
      ],
      "stateMutability": "view"
    },
    {
      "type": "function",
      "name": "isTransferable",
      "inputs": [],
      "outputs": [
        {
          "name": "",
          "type": "bool",
          "internalType": "bool"
        }
      ],
      "stateMutability": "view"
    },
    {
      "type": "function",
      "name": "licensePrice",
      "inputs": [],
      "outputs": [
        {
          "name": "",
          "type": "uint256",
          "internalType": "uint256"
        }
      ],
      "stateMutability": "view"
    },
    {
      "type": "function",
      "name": "licenseUsageCount",
      "inputs": [
        {
          "name": "",
          "type": "uint256",
          "internalType": "uint256"
        }
      ],
      "outputs": [
        {
          "name": "",
          "type": "uint256",
          "internalType": "uint256"
        }
      ],
      "stateMutability": "view"
    },
    {
      "type": "function",
      "name": "maxSupply",
      "inputs": [],
      "outputs": [
        {
          "name": "",
          "type": "uint256",
          "internalType": "uint256"
        }
      ],
      "stateMutability": "view"
    },
    {
      "type": "function",
      "name": "mintLicense",
      "inputs": [
        {
          "name": "recipient",
          "type": "address",
          "internalType": "address"
        },
        {
          "name": "quantity",
          "type": "uint256",
          "internalType": "uint256"
        }
      ],
      "outputs": [],
      "stateMutability": "nonpayable"
    },
    {
      "type": "function",
      "name": "mintWithPayment",
      "inputs": [
        {
          "name": "quantity",
          "type": "uint256",
          "internalType": "uint256"
        }
      ],
      "outputs": [],
      "stateMutability": "payable"
    },
    {
      "type": "function",
      "name": "name",
      "inputs": [],
      "outputs": [
        {
          "name": "",
          "type": "string",
          "internalType": "string"
        }
      ],
      "stateMutability": "view"
    },
    {
      "type": "function",
      "name": "owner",
      "inputs": [],
      "outputs": [
        {
          "name": "",
          "type": "address",
          "internalType": "address"
        }
      ],
      "stateMutability": "view"
    },
    {
      "type": "function",
      "name": "ownerOf",
      "inputs": [
        {
          "name": "tokenId",
          "type": "uint256",
          "internalType": "uint256"
        }
      ],
      "outputs": [
        {
          "name": "",
          "type": "address",
          "internalType": "address"
        }
      ],
      "stateMutability": "view"
    },
    {
      "type": "function",
      "name": "pandoraOracle",
      "inputs": [],
      "outputs": [
        {
          "name": "",
          "type": "address",
          "internalType": "address"
        }
      ],
      "stateMutability": "view"
    },
    {
      "type": "function",
      "name": "phaseId",
      "inputs": [],
      "outputs": [
        {
          "name": "",
          "type": "uint256",
          "internalType": "uint256"
        }
      ],
      "stateMutability": "view"
    },
    {
      "type": "function",
      "name": "phaseMaxSupply",
      "inputs": [
        {
          "name": "",
          "type": "uint256",
          "internalType": "uint256"
        }
      ],
      "outputs": [
        {
          "name": "",
          "type": "uint256",
          "internalType": "uint256"
        }
      ],
      "stateMutability": "view"
    },
    {
      "type": "function",
      "name": "primaryOpen",
      "inputs": [],
      "outputs": [
        {
          "name": "",
          "type": "bool",
          "internalType": "bool"
        }
      ],
      "stateMutability": "view"
    },
    {
      "type": "function",
      "name": "recordLicenseUsage",
      "inputs": [
        {
          "name": "tokenId",
          "type": "uint256",
          "internalType": "uint256"
        }
      ],
      "outputs": [],
      "stateMutability": "nonpayable"
    },
    {
      "type": "function",
      "name": "remainingSupply",
      "inputs": [],
      "outputs": [
        {
          "name": "",
          "type": "uint256",
          "internalType": "uint256"
        }
      ],
      "stateMutability": "view"
    },
    {
      "type": "function",
      "name": "renounceOwnership",
      "inputs": [],
      "outputs": [],
      "stateMutability": "nonpayable"
    },
    {
      "type": "function",
      "name": "royaltyInfo",
      "inputs": [
        {
          "name": "tokenId",
          "type": "uint256",
          "internalType": "uint256"
        },
        {
          "name": "salePrice",
          "type": "uint256",
          "internalType": "uint256"
        }
      ],
      "outputs": [
        {
          "name": "",
          "type": "address",
          "internalType": "address"
        },
        {
          "name": "",
          "type": "uint256",
          "internalType": "uint256"
        }
      ],
      "stateMutability": "view"
    },
    {
      "type": "function",
      "name": "safeTransferFrom",
      "inputs": [
        {
          "name": "from",
          "type": "address",
          "internalType": "address"
        },
        {
          "name": "to",
          "type": "address",
          "internalType": "address"
        },
        {
          "name": "tokenId",
          "type": "uint256",
          "internalType": "uint256"
        }
      ],
      "outputs": [],
      "stateMutability": "payable"
    },
    {
      "type": "function",
      "name": "safeTransferFrom",
      "inputs": [
        {
          "name": "from",
          "type": "address",
          "internalType": "address"
        },
        {
          "name": "to",
          "type": "address",
          "internalType": "address"
        },
        {
          "name": "tokenId",
          "type": "uint256",
          "internalType": "uint256"
        },
        {
          "name": "_data",
          "type": "bytes",
          "internalType": "bytes"
        }
      ],
      "outputs": [],
      "stateMutability": "payable"
    },
    {
      "type": "function",
      "name": "setApprovalForAll",
      "inputs": [
        {
          "name": "operator",
          "type": "address",
          "internalType": "address"
        },
        {
          "name": "approved",
          "type": "bool",
          "internalType": "bool"
        }
      ],
      "outputs": [],
      "stateMutability": "nonpayable"
    },
    {
      "type": "function",
      "name": "setIsTransferable",
      "inputs": [
        {
          "name": "_status",
          "type": "bool",
          "internalType": "bool"
        }
      ],
      "outputs": [],
      "stateMutability": "nonpayable"
    },
    {
      "type": "function",
      "name": "setLicensePrice",
      "inputs": [
        {
          "name": "newPrice",
          "type": "uint256",
          "internalType": "uint256"
        }
      ],
      "outputs": [],
      "stateMutability": "nonpayable"
    },
    {
      "type": "function",
      "name": "setPandoraOracle",
      "inputs": [
        {
          "name": "newOracle",
          "type": "address",
          "internalType": "address"
        }
      ],
      "outputs": [],
      "stateMutability": "nonpayable"
    },
    {
      "type": "function",
      "name": "setRoyaltyInfo",
      "inputs": [
        {
          "name": "receiver",
          "type": "address",
          "internalType": "address"
        },
        {
          "name": "feeNumerator",
          "type": "uint96",
          "internalType": "uint96"
        }
      ],
      "outputs": [],
      "stateMutability": "nonpayable"
    },
    {
      "type": "function",
      "name": "setTreasuryAddress",
      "inputs": [
        {
          "name": "newTreasury",
          "type": "address",
          "internalType": "address"
        }
      ],
      "outputs": [],
      "stateMutability": "nonpayable"
    },
    {
      "type": "function",
      "name": "supportsInterface",
      "inputs": [
        {
          "name": "interfaceId",
          "type": "bytes4",
          "internalType": "bytes4"
        }
      ],
      "outputs": [
        {
          "name": "",
          "type": "bool",
          "internalType": "bool"
        }
      ],
      "stateMutability": "view"
    },
    {
      "type": "function",
      "name": "symbol",
      "inputs": [],
      "outputs": [
        {
          "name": "",
          "type": "string",
          "internalType": "string"
        }
      ],
      "stateMutability": "view"
    },
    {
      "type": "function",
      "name": "tokenURI",
      "inputs": [
        {
          "name": "tokenId",
          "type": "uint256",
          "internalType": "uint256"
        }
      ],
      "outputs": [
        {
          "name": "",
          "type": "string",
          "internalType": "string"
        }
      ],
      "stateMutability": "view"
    },
    {
      "type": "function",
      "name": "totalMinted",
      "inputs": [],
      "outputs": [
        {
          "name": "",
          "type": "uint256",
          "internalType": "uint256"
        }
      ],
      "stateMutability": "view"
    },
    {
      "type": "function",
      "name": "totalSupply",
      "inputs": [],
      "outputs": [
        {
          "name": "result",
          "type": "uint256",
          "internalType": "uint256"
        }
      ],
      "stateMutability": "view"
    },
    {
      "type": "function",
      "name": "transferFrom",
      "inputs": [
        {
          "name": "from",
          "type": "address",
          "internalType": "address"
        },
        {
          "name": "to",
          "type": "address",
          "internalType": "address"
        },
        {
          "name": "tokenId",
          "type": "uint256",
          "internalType": "uint256"
        }
      ],
      "outputs": [],
      "stateMutability": "payable"
    },
    {
      "type": "function",
      "name": "transferOwnership",
      "inputs": [
        {
          "name": "newOwner",
          "type": "address",
          "internalType": "address"
        }
      ],
      "outputs": [],
      "stateMutability": "nonpayable"
    },
    {
      "type": "function",
      "name": "treasuryAddress",
      "inputs": [],
      "outputs": [
        {
          "name": "",
          "type": "address",
          "internalType": "address"
        }
      ],
      "stateMutability": "view"
    },
    {
      "type": "function",
      "name": "upgradeLicense",
      "inputs": [
        {
          "name": "tokenId",
          "type": "uint256",
          "internalType": "uint256"
        },
        {
          "name": "newPhaseId",
          "type": "uint256",
          "internalType": "uint256"
        }
      ],
      "outputs": [],
      "stateMutability": "nonpayable"
    },
    {
      "type": "event",
      "name": "Approval",
      "inputs": [
        {
          "name": "owner",
          "type": "address",
          "indexed": true,
          "internalType": "address"
        },
        {
          "name": "approved",
          "type": "address",
          "indexed": true,
          "internalType": "address"
        },
        {
          "name": "tokenId",
          "type": "uint256",
          "indexed": true,
          "internalType": "uint256"
        }
      ],
      "anonymous": false
    },
    {
      "type": "event",
      "name": "ApprovalForAll",
      "inputs": [
        {
          "name": "owner",
          "type": "address",
          "indexed": true,
          "internalType": "address"
        },
        {
          "name": "operator",
          "type": "address",
          "indexed": true,
          "internalType": "address"
        },
        {
          "name": "approved",
          "type": "bool",
          "indexed": false,
          "internalType": "bool"
        }
      ],
      "anonymous": false
    },
    {
      "type": "event",
      "name": "ConsecutiveTransfer",
      "inputs": [
        {
          "name": "fromTokenId",
          "type": "uint256",
          "indexed": true,
          "internalType": "uint256"
        },
        {
          "name": "toTokenId",
          "type": "uint256",
          "indexed": false,
          "internalType": "uint256"
        },
        {
          "name": "from",
          "type": "address",
          "indexed": true,
          "internalType": "address"
        },
        {
          "name": "to",
          "type": "address",
          "indexed": true,
          "internalType": "address"
        }
      ],
      "anonymous": false
    },
    {
      "type": "event",
      "name": "LicenseMinted",
      "inputs": [
        {
          "name": "recipient",
          "type": "address",
          "indexed": true,
          "internalType": "address"
        },
        {
          "name": "quantity",
          "type": "uint256",
          "indexed": false,
          "internalType": "uint256"
        },
        {
          "name": "totalMinted",
          "type": "uint256",
          "indexed": false,
          "internalType": "uint256"
        }
      ],
      "anonymous": false
    },
    {
      "type": "event",
      "name": "LicensePriceUpdated",
      "inputs": [
        {
          "name": "oldPrice",
          "type": "uint256",
          "indexed": true,
          "internalType": "uint256"
        },
        {
          "name": "newPrice",
          "type": "uint256",
          "indexed": true,
          "internalType": "uint256"
        }
      ],
      "anonymous": false
    },
    {
      "type": "event",
      "name": "LicenseUpgraded",
      "inputs": [
        {
          "name": "tokenId",
          "type": "uint256",
          "indexed": true,
          "internalType": "uint256"
        },
        {
          "name": "oldPhase",
          "type": "uint256",
          "indexed": false,
          "internalType": "uint256"
        },
        {
          "name": "newPhase",
          "type": "uint256",
          "indexed": false,
          "internalType": "uint256"
        }
      ],
      "anonymous": false
    },
    {
      "type": "event",
      "name": "OracleUpdated",
      "inputs": [
        {
          "name": "oldOracle",
          "type": "address",
          "indexed": true,
          "internalType": "address"
        },
        {
          "name": "newOracle",
          "type": "address",
          "indexed": true,
          "internalType": "address"
        }
      ],
      "anonymous": false
    },
    {
      "type": "event",
      "name": "OwnershipTransferred",
      "inputs": [
        {
          "name": "previousOwner",
          "type": "address",
          "indexed": true,
          "internalType": "address"
        },
        {
          "name": "newOwner",
          "type": "address",
          "indexed": true,
          "internalType": "address"
        }
      ],
      "anonymous": false
    },
    {
      "type": "event",
      "name": "PrimarySaleClosed",
      "inputs": [],
      "anonymous": false
    },
    {
      "type": "event",
      "name": "RoyaltyUpdated",
      "inputs": [
        {
          "name": "receiver",
          "type": "address",
          "indexed": true,
          "internalType": "address"
        },
        {
          "name": "feeNumerator",
          "type": "uint96",
          "indexed": false,
          "internalType": "uint96"
        }
      ],
      "anonymous": false
    },
    {
      "type": "event",
      "name": "Transfer",
      "inputs": [
        {
          "name": "from",
          "type": "address",
          "indexed": true,
          "internalType": "address"
        },
        {
          "name": "to",
          "type": "address",
          "indexed": true,
          "internalType": "address"
        },
        {
          "name": "tokenId",
          "type": "uint256",
          "indexed": true,
          "internalType": "uint256"
        }
      ],
      "anonymous": false
    },
    {
      "type": "event",
      "name": "TransferabilityUpdated",
      "inputs": [
        {
          "name": "status",
          "type": "bool",
          "indexed": true,
          "internalType": "bool"
        }
      ],
      "anonymous": false
    },
    {
      "type": "event",
      "name": "TreasuryUpdated",
      "inputs": [
        {
          "name": "oldTreasury",
          "type": "address",
          "indexed": true,
          "internalType": "address"
        },
        {
          "name": "newTreasury",
          "type": "address",
          "indexed": true,
          "internalType": "address"
        }
      ],
      "anonymous": false
    },
    {
      "type": "error",
      "name": "ApprovalCallerNotOwnerNorApproved",
      "inputs": []
    },
    {
      "type": "error",
      "name": "ApprovalQueryForNonexistentToken",
      "inputs": []
    },
    {
      "type": "error",
      "name": "BalanceQueryForZeroAddress",
      "inputs": []
    },
    {
      "type": "error",
      "name": "MintERC2309QuantityExceedsLimit",
      "inputs": []
    },
    {
      "type": "error",
      "name": "MintToZeroAddress",
      "inputs": []
    },
    {
      "type": "error",
      "name": "MintZeroQuantity",
      "inputs": []
    },
    {
      "type": "error",
      "name": "NotCompatibleWithSpotMints",
      "inputs": []
    },
    {
      "type": "error",
      "name": "OwnerQueryForNonexistentToken",
      "inputs": []
    },
    {
      "type": "error",
      "name": "OwnershipNotInitializedForExtraData",
      "inputs": []
    },
    {
      "type": "error",
      "name": "SequentialMintExceedsLimit",
      "inputs": []
    },
    {
      "type": "error",
      "name": "SequentialUpToTooSmall",
      "inputs": []
    },
    {
      "type": "error",
      "name": "SpotMintTokenIdTooSmall",
      "inputs": []
    },
    {
      "type": "error",
      "name": "TokenAlreadyExists",
      "inputs": []
    },
    {
      "type": "error",
      "name": "TransferCallerNotOwnerNorApproved",
      "inputs": []
    },
    {
      "type": "error",
      "name": "TransferFromIncorrectOwner",
      "inputs": []
    },
    {
      "type": "error",
      "name": "TransferToNonERC721ReceiverImplementer",
      "inputs": []
    },
    {
      "type": "error",
      "name": "TransferToZeroAddress",
      "inputs": []
    },
    {
      "type": "error",
      "name": "URIQueryForNonexistentToken",
      "inputs": []
    }
  ],
  "bytecode": {
    "object": "0x608060405234620000dc5762002cd7803803806200001d81620000f4565b92833981019061012081830312620000dc5780516001600160401b039190828111620000dc57836200005191830162000120565b916020820151908111620000dc57620000cc936200007191830162000120565b60408201516060830151620000896080850162000190565b906200009860a0860162000190565b92620000a760c0870162000190565b94620000c5610100620000bd60e08a01620001a5565b9801620001a5565b9762000299565b6040516125129081620007c58239f35b5f80fd5b634e487b7160e01b5f52604160045260245ffd5b6040519190601f01601f191682016001600160401b038111838210176200011a57604052565b620000e0565b919080601f84011215620000dc5782516001600160401b0381116200011a5760209062000156601f8201601f19168301620000f4565b92818452828287010111620000dc575f5b8181106200017c5750825f9394955001015290565b858101830151848201840152820162000167565b51906001600160a01b0382168203620000dc57565b51908115158203620000dc57565b15620001bb57565b606460405162461bcd60e51b815260206004820152602060248201527f5732453a204d617820737570706c79206d75737420626520706f7369746976656044820152fd5b156200020757565b60405162461bcd60e51b815260206004820152601b60248201527f5732453a20496e76616c6964206f7261636c65206164647265737300000000006044820152606490fd5b156200025457565b60405162461bcd60e51b815260206004820152601d60248201527f5732453a20496e76616c696420747265617375727920616464726573730000006044820152606490fd5b80519698939795969295939492906001600160401b0382116200011a57620002ce82620002c86002546200051a565b62000555565b60209081601f8411600114620004765750936200031f620003e09484620003ff9895620003b1956200043b9d9c9b995f926200046a575b50508160011b915f199060031b1c19161760025562000605565b6200032960015f55565b6200033433620006f3565b600f805460ff60b01b1916600160b01b17905562000354871515620001b3565b6001600160a01b03996200038f9062000371838d161515620001ff565b620003808c8b1615156200024c565b6200038a89600d55565b600e55565b600c80546001600160a01b0319166001600160a01b0392909216919091179055565b600f80546001600160a01b0388166001600160a81b03199091161791151560a01b60ff60a01b16919091179055565b600f805460ff60a81b191691151560a81b60ff60a81b16919091179055565b6200040a6001601055565b60015f5260116020527f17bc176d2408558f6e4111feebc3cab4e16b63e967be91cde721f4c8a488b552556200073b565b81163381141590816200045f575b50620004525750565b6200045d90620006f3565b565b905015155f62000449565b015190505f8062000305565b60025f529190601f1984167f405787fa12a823e0f2b7631cc41b3ba8828b3321ca811111fa75cd3aa3bb5ace935f905b8282106200050157505094600185620003b1956200043b9d9c9b99956200031f95620003ff9c99620003e09b10620004e8575b505050811b0160025562000605565b01515f1960f88460031b161c191690555f8080620004d9565b80600186978294978701518155019601940190620004a6565b90600182811c921680156200054a575b60208310146200053657565b634e487b7160e01b5f52602260045260245ffd5b91607f16916200052a565b601f811162000562575050565b5f906002825260208220906020601f850160051c83019410620005a2575b601f0160051c01915b8281106200059657505050565b81815560010162000589565b909250829062000580565b601f8111620005ba575050565b5f906003825260208220906020601f850160051c83019410620005fa575b601f0160051c01915b828110620005ee57505050565b818155600101620005e1565b9092508290620005d8565b80519091906001600160401b0381116200011a5762000631816200062b6003546200051a565b620005ad565b602080601f83116001146200066e57508192935f9262000662575b50508160011b915f199060031b1c191617600355565b015190505f806200064c565b60035f52601f198316949091907fc2575a0e9e593c00f959f8c92f12db2869c3395a3b0502d05e2516446f71f85b925f905b878210620006da575050836001959610620006c1575b505050811b01600355565b01515f1960f88460031b161c191690555f8080620006b6565b80600185968294968601518155019501930190620006a0565b600980546001600160a01b039283166001600160a01b0319821681179092559091167f8be0079c531659141344cd1fd0a4f28419497f9722a3daafe3b4186f6b6457e05f80a3565b6001600160a01b031680156200077f57604080519081016001600160401b038111828210176200011a576040528181526101f4602090910152607d60a21b17600a55565b60405162461bcd60e51b815260206004820152601960248201527f455243323938313a20696e76616c6964207265636569766572000000000000006044820152606490fdfe60806040526004361015610011575f80fd5b5f3560e01c806301ffc9a7146102ef578063025f77cb146102ea57806302fa7c47146102e5578063048edee6146102e057806306ba01eb146102db57806306fdde03146102d6578063081812fc146102d1578063095ea7b3146102cc57806318160ddd146102c75780632121dc75146102c257806323b872dd146102bd5780632a55205a146102b857806340010a7e146102b357806342842e0e146102ae57806342966c68146102a957806345afae15146102a457806358303b101461029f5780635d090cde1461029a5780636352211e146102955780636605bfda1461029057806368e6d96c1461028b57806370a0823114610263578063715018a6146102865780637ca62aff1461028157806383ac412f1461027c57806385a96af814610277578063883356d9146102725780638da5cb5b1461026d57806395d89b41146102685780639ab24eb014610263578063a22cb4651461025e578063a2309ff814610259578063aa98053f14610254578063b88d4fde1461024f578063c5f956af1461024a578063c87b56dd14610245578063ccd3f50414610240578063d5abeb011461023b578063da0239a614610236578063e6496fd714610231578063e985e9c51461022c578063ed6bac1d14610227578063ee14ca8114610222578063f2fde38b1461021d578063f58351ce146102185763f9c5d19a14610213575f80fd5b6117cf565b6117a7565b6116e4565b6115ce565b611568565b61150c565b6114c3565b611497565b61147a565b611427565b611225565b6111fd565b61117a565b610fdd565b610fbe565b610f31565b610cea565b610e70565b610e48565b610e23565b610dbe565b610d94565b610d6a565b610d0d565b610c9d565b610be9565b610bba565b610ac6565b610aa9565b6109f5565b6108ee565b6108cc565b6108af565b61080f565b6107fb565b6107a1565b61077d565b6106d0565b6106a0565b610596565b610516565b6104f1565b6103b4565b610360565b61030a565b6001600160e01b031981160361030657565b5f80fd5b34610306576020366003190112610306576020600435610329816102f4565b63ffffffff60e01b1663152a902d60e11b811490811561034f575b506040519015158152f35b6301ffc9a760e01b1490505f610344565b34610306575f36600319011261030657600c546040516001600160a01b039091168152602090f35b600435906001600160a01b038216820361030657565b602435906001600160a01b038216820361030657565b34610306576040366003190112610306576103cd610388565b6024356001600160601b03811680820361030657612710906103ed6123e0565b11610499576001600160a01b038216917f8039bd6e4e7dba001c8840eb2e118d9d131246faa7d0d04335f7305127ec0b10916104949161047a9061043286151561245e565b61044c61043d61114f565b6001600160a01b039092168252565b6001600160601b0383166020820152516001600160a01b03166001600160a01b031960a084901b1617600a55565b6040516001600160601b0390911681529081906020820190565b0390a2005b60405162461bcd60e51b815260206004820152602a60248201527f455243323938313a20726f79616c7479206665652077696c6c206578636565646044820152692073616c65507269636560b01b6064820152608490fd5b34610306575f36600319011261030657602060ff600f5460b01c166040519015158152f35b34610306576020366003190112610306576020610534600435611b66565b604051908152f35b5f5b83811061054d5750505f910152565b818101518382015260200161053e565b906020916105768151809281855285808601910161053c565b601f01601f1916010190565b90602061059392818152019061055d565b90565b34610306575f8060031936011261069d5760405190806002549060019180831c92808216928315610693575b602092838610851461067f57858852602088019490811561065e5750600114610606575b610602876105f68189038261112d565b60405191829182610582565b0390f35b60025f5294509192917f405787fa12a823e0f2b7631cc41b3ba8828b3321ca811111fa75cd3aa3bb5ace5b83861061064d57505050910190506105f6826106025f806105e6565b805485870152948201948101610631565b60ff191685525050505090151560051b0190506105f6826106025f806105e6565b634e487b7160e01b82526022600452602482fd5b93607f16936105c2565b80fd5b346103065760203660031901126103065760206106be600435611cc0565b6040516001600160a01b039091168152f35b6040366003190112610306576106e4610388565b6001600160a01b039060243590826106fb83611c30565b1680330361074e575b5f93838552600660205260408520921691826001600160601b0360a01b8254161790557f8c5be1e5ebec7d5bd14f71427d1e84f3dd0314c0f7b2291e5b200ac8c7c3b9258480a480f35b5f81815260076020908152604080832033845290915290205460ff16610704576367d9dca160e11b5f5260045ffd5b34610306575f366003190112610306575f5460015460405191035f19018152602090f35b34610306575f36600319011261030657602060ff600f5460a01c166040519015158152f35b6060906003190112610306576001600160a01b0390600435828116810361030657916024359081168103610306579060443590565b61080d610807366107c6565b91611d5d565b005b34610306576040366003190112610306576004355f52600b60205260405f206040519061083b826110f0565b546001600160a01b0380821680845260a09290921c6020840152901561089f575b6108806108786001600160601b036020850151166024356119cf565b612710900490565b915160408051929091166001600160a01b031682526020820192909252f35b90506108a9612438565b9061085c565b34610306575f366003190112610306576020600e54604051908152f35b61080d6108d8366107c6565b90604051926108e684611111565b5f8452611fa5565b346103065760203660031901126103065760043560ff600f5460a81c16156109b0578061093261092661092661092661080d95611c30565b6001600160a01b031690565b33148015610969575b8015610950575b61094b90611b9f565b612263565b5061094b3361096161092684611cc0565b149050610942565b506109ab3361097d61092661092685611c30565b6001600160a01b039081165f908152600760209081526040808320939094168252919091522060ff90541690565b61093b565b60405162461bcd60e51b815260206004820152601860248201527f5732453a204275726e696e672069732064697361626c656400000000000000006044820152606490fd5b3461030657602036600319011261030657610a0e610388565b610a166123e0565b6001600160a01b03908116908115610a6457600c54826001600160601b0360a01b821617600c55167f078c3b417dadf69374a59793b829c52001247130433427049317bde56607b1b75f80a3005b60405162461bcd60e51b815260206004820152601b60248201527f5732453a20496e76616c6964206f7261636c65206164647265737300000000006044820152606490fd5b34610306575f366003190112610306576020601054604051908152f35b3461030657604036600319011261030657610adf610388565b6024359060018060a01b03610af981600c541633146118ca565b610b0a60ff600f5460b01c16611916565b5f545f1984820181019291018210610bb557610b2a600d54831115611983565b8216928315610b7757610b5e817f1b34d8487a319bb4bc294237f5de72c2c7f3a373fb8ffea7ecdf5fba22ad950e94612115565b6040805191825260208201929092529081908101610494565b60405162461bcd60e51b815260206004820152601660248201527515cc914e88125b9d985b1a59081c9958da5c1a595b9d60521b6044820152606490fd5b611962565b346103065760203660031901126103065760206001600160a01b03610be0600435611c30565b16604051908152f35b3461030657602036600319011261030657610c02610388565b610c0a6123e0565b6001600160a01b03908116908115610c5857600f54826001600160601b0360a01b821617600f55167f4ab5be82436d353e61ca18726e984e561f5c1cc7c6d38b29d2553c790434705a5f80a3005b60405162461bcd60e51b815260206004820152601d60248201527f5732453a20496e76616c696420747265617375727920616464726573730000006044820152606490fd5b34610306575f8060031936011261069d57610cb66123e0565b600f805460ff60b01b191690557fbf17eae738e3dfec409f8dde6d51520392854ce201d56aa6e78cefad5d3990898180a180f35b34610306576020366003190112610306576020610534610d08610388565b611bf9565b34610306575f8060031936011261069d57610d266123e0565b600980546001600160a01b0319811690915581906001600160a01b03167f8be0079c531659141344cd1fd0a4f28419497f9722a3daafe3b4186f6b6457e08280a380f35b34610306576020366003190112610306576004355f526011602052602060405f2054604051908152f35b34610306576020366003190112610306576004355f526012602052602060405f2054604051908152f35b346103065760203660031901126103065760043580151580910361030657610de46123e0565b600f805460ff60a01b191660a083901b60ff60a01b161790557fb5de785724e50fc5abaa3af0cd2ca528c87cdb3d5216e36590942d979777923c5f80a2005b34610306575f36600319011261030657602060ff600f5460a81c166040519015158152f35b34610306575f366003190112610306576009546040516001600160a01b039091168152602090f35b34610306575f8060031936011261069d5760405190806003549060019180831c92808216928315610f27575b602092838610851461067f57858852602088019490811561065e5750600114610ecf57610602876105f68189038261112d565b60035f5294509192917fc2575a0e9e593c00f959f8c92f12db2869c3395a3b0502d05e2516446f71f85b5b838610610f1657505050910190506105f6826106025f806105e6565b805485870152948201948101610efa565b93607f1693610e9c565b3461030657604036600319011261030657610f4a610388565b6024359081151580920361030657335f9081526007602090815260408083206001600160a01b0385168452909152902060ff1981541660ff841617905560405191825260018060a01b0316907f17307eab39ab6107e8899845ad3d59bd9653f200f220920489ca2b5937696c3160203392a3005b34610306575f3660031901126103065760205f195f5401604051908152f35b3461030657604036600319011261030657602435600435610ffc6123e0565b601054811115611089578115611039576110288161101a8493601055565b5f52601160205260405f2090565b55600d54811161103457005b600d55005b60405162461bcd60e51b815260206004820152602260248201527f5732453a20506861736520737570706c79206d75737420626520706f73697469604482015261766560f01b6064820152608490fd5b60405162461bcd60e51b815260206004820152602560248201527f5732453a2043616e206f6e6c7920616476616e636520746f2068696768657220604482015264706861736560d81b6064820152608490fd5b634e487b7160e01b5f52604160045260245ffd5b6040810190811067ffffffffffffffff82111761110c57604052565b6110dc565b6020810190811067ffffffffffffffff82111761110c57604052565b90601f8019910116810190811067ffffffffffffffff82111761110c57604052565b6040519061115c826110f0565b565b67ffffffffffffffff811161110c57601f01601f191660200190565b60803660031901126103065761118e610388565b61119661039e565b6064359167ffffffffffffffff83116103065736602384011215610306578260040135916111c38361115e565b926111d1604051948561112d565b8084523660248287010111610306576020815f92602461080d9801838801378501015260443591611fa5565b34610306575f36600319011261030657600f546040516001600160a01b039091168152602090f35b346103065760203660031901126103065760043561124281611cf7565b156113e2575f90807a184f03e93ff9f4daa797ed6e38ed64bf6a1f01000000000000000081818110156113d4575b50506d04ee2d6d415b85acef8100000000808310156113c5575b50662386f26fc10000808310156113b6575b506305f5e100808310156113a7575b5061271080831015611398575b506064821015611388575b600a8092101561137e575b6001908160216112df8287016124aa565b95860101905b611349575b61060261133b6105f687604051928391611335602084016021907f68747470733a2f2f6170692e70616e646f7261732e636f6d2f6c6963656e73658152602f60f81b60208201520190565b90611aa9565b03601f19810183528261112d565b5f19019083906f181899199a1a9b1b9c1cb0b131b232b360811b8282061a835304918215611379579190826112e5565b6112ea565b91600101916112ce565b91906064600291049101916112c3565b6004919392049101915f6112b8565b6008919392049101915f6112ab565b6010919392049101915f61129c565b6020919392049101915f61128a565b604094500491505f80611270565b60405162461bcd60e51b815260206004820152601960248201527f5732453a20546f6b656e20646f6573206e6f74206578697374000000000000006044820152606490fd5b346103065760203660031901126103065760043561145060018060a01b03600c541633146118ca565b61146161145c82611cf7565b611ac0565b5f52601260205260405f206114768154611b0c565b9055005b34610306575f366003190112610306576020600d54604051908152f35b34610306575f36600319011261030657600d5460015f54820301908111610bb557602090604051908152f35b34610306576020366003190112610306576004356114df6123e0565b600e5481600e557fde29518294b67b15c622c33e091aa7ee4b00122daf20eedf488072e33d96fe745f80a3005b3461030657604036600319011261030657602060ff61155c61152c610388565b61153461039e565b6001600160a01b039182165f9081526007865260408082209290931681526020919091522090565b54166040519015158152f35b34610306575f8060031936011261069d576010546001825b600a82111561159d575b5050604080519182526020820192909252f35b818152601160205260408120549193909291156115c557506115be83611b0c565b9091611580565b9281925061158a565b6020366003190112610306576004356115ee60ff600f5460b01c16611916565b801561169f5761160b61160382600e546119cf565b3410156119e2565b5f907f1b34d8487a319bb4bc294237f5de72c2c7f3a373fb8ffea7ecdf5fba22ad950e61169961163f835f19865401611976565b61164d600d54821115611983565b6116578433612115565b6116808580808034611670600f5460018060a01b031690565b5af161167a611a2e565b50611a5d565b6040805194855260208501919091523393918291820190565b0390a280f35b60405162461bcd60e51b815260206004820152601e60248201527f5732453a205175616e74697479206d75737420626520706f73697469766500006044820152606490fd5b34610306576020366003190112610306576116fd610388565b6117056123e0565b6001600160a01b0390811690811561175357600954826001600160601b0360a01b821617600955167f8be0079c531659141344cd1fd0a4f28419497f9722a3daafe3b4186f6b6457e05f80a3005b60405162461bcd60e51b815260206004820152602660248201527f4f776e61626c653a206e6577206f776e657220697320746865207a65726f206160448201526564647265737360d01b6064820152608490fd5b346103065760203660031901126103065760206117c5610d08610388565b1515604051908152f35b34610306576040366003190112610306576004356024356117fb60018060a01b03600c541633146118ca565b61180761145c83611cf7565b61181082611b66565b811115611877577fb4c5114dafb9430311b9c0e893d2181f328319c82627d1dcf3493b20bca66b1f90611847601054821115611b1a565b61185083611b66565b5f848152601260205260408120556040805191825260208201929092529081908101610494565b60405162461bcd60e51b815260206004820152602560248201527f5732453a2043616e206f6e6c79207570677261646520746f2068696768657220604482015264706861736560d81b6064820152608490fd5b156118d157565b60405162461bcd60e51b815260206004820152601760248201527f5732453a204e6f742050616e646f7261204f7261636c650000000000000000006044820152606490fd5b1561191d57565b60405162461bcd60e51b815260206004820152601860248201527f5732453a205072696d6172792073616c6520636c6f73656400000000000000006044820152606490fd5b634e487b7160e01b5f52601160045260245ffd5b91908201809211610bb557565b1561198a57565b60405162461bcd60e51b815260206004820152601760248201527f5732453a204d617820737570706c7920726561636865640000000000000000006044820152606490fd5b81810292918115918404141715610bb557565b156119e957565b60405162461bcd60e51b815260206004820152601960248201527f5732453a20496e73756666696369656e74207061796d656e74000000000000006044820152606490fd5b3d15611a58573d90611a3f8261115e565b91611a4d604051938461112d565b82523d5f602084013e565b606090565b15611a6457565b60405162461bcd60e51b815260206004820152601d60248201527f5732453a205472656173757279207472616e73666572206661696c65640000006044820152606490fd5b90611abc6020928281519485920161053c565b0190565b15611ac757565b60405162461bcd60e51b815260206004820152601b60248201527f5732453a204c6963656e736520646f6573206e6f7420657869737400000000006044820152606490fd5b5f198114610bb55760010190565b15611b2157565b60405162461bcd60e51b815260206004820152601c60248201527f5732453a205068617365206e6f742079657420617661696c61626c65000000006044820152606490fd5b611b7261145c82611cf7565b5f52601260205260405f20546064811015611b995760321115611b9457600190565b600290565b50600390565b15611ba657565b60405162461bcd60e51b815260206004820152602560248201527f5732453a2043616c6c6572206973206e6f74206f776e6572206e6f72206170706044820152641c9bdd995960da1b6064820152608490fd5b6001600160a01b03168015611c21575f52600560205267ffffffffffffffff60405f20541690565b6323d3ad8160e21b5f5260045ffd5b600190808211611cb157611c4c815f52600460205260405f2090565b54918215611c69575b5050600160e01b8116156105935780611cb1565b5f54821015611cb15790815b15611c55579091505f1901611c92815f52600460205260405f2090565b54918215611caa575050600160e01b8116611cb15790565b9081611c75565b636f96cda160e11b5f5260045ffd5b611cc981611cf7565b15611ce8575f908152600660205260409020546001600160a01b031690565b6333d1c03960e21b5f5260045ffd5b5f91906001908381831115611d0b57505050565b80548210611d1857505050565b9293509082815b611d31575b505050600160e01b161590565b828152600460205260408120549350909183611d58578015610bb5575f1901919081611d1f565b611d24565b919091611d6982611c30565b6001600160a01b0391821693909190818316859003611ee4575f8481526006602052604090208054611dae6001600160a01b03881633908114908314171590565b1590565b611e9a575b611dbd8388611f73565b611e91575b506001600160a01b038581165f90815260056020908152604080832080545f19019055928416825282822080546001019055868252600490522091169384929091600160e11b904260a01b851782179055811615611e4c575b507fddf252ad1be2c89b69c2b068fc378daa952ba7f163c4a11628f55a4df523b3ef5f80a415611e4757565b6123b4565b60018401611e62815f52600460205260405f2090565b5415611e6f575b50611e1b565b5f548114611e6957611e89905f52600460205260405f2090565b555f80611e69565b5f90555f611dc2565b611eda611daa611ed333611ebe8b60018060a01b03165f52600760205260405f2090565b9060018060a01b03165f5260205260405f2090565b5460ff1690565b15611db3576123a5565b612397565b60ff600f5460a01c16159081611f6b575b81611f58575b50611f0757565b60405162461bcd60e51b8152602060048201526024808201527f5732453a20546f6b656e206973206e6f6e2d7472616e7366657261626c6520286044820152635342542960e01b6064820152608490fd5b6001600160a01b0316151590505f611f00565b5f9150611efa565b9060ff600f5460a01c16159182611f92575b5081611f585750611f0757565b6001600160a01b0316151591505f611f85565b929190611fb3828286611d5d565b803b611fc0575b50505050565b611fc9936120ed565b15611fd7575f808080611fba565b6368d2bf6b60e11b5f5260045ffd5b908160209103126103065751610593816102f4565b610593939260809260018060a01b031682525f60208301526040820152816060820152019061055d565b6001600160a01b0391821681529116602082015260408101919091526080606082018190526105939291019061055d565b61207e6020915f9394604051948580948193630a85bd0160e11b998a84523360048501611ffb565b03926001600160a01b03165af15f91816120bd575b506120af576120a0611a2e565b805115611fd757805190602001fd5b6001600160e01b0319161490565b6120df91925060203d81116120e6575b6120d7818361112d565b810190611fe6565b905f612093565b503d6120cd565b9260209161207e935f604051809681958294630a85bd0160e11b9a8b85523360048601612025565b60405161212181611111565b5f92838252835492811561225e5761213881611ee9565b5f848152600460205260409020600192906001600160a01b038316904260a01b83861460e11b17821790556001600160a01b0383165f908152600560205260409020680100000000000000018302815401905580156122595781860195908480805b61220a575b50505050848655813b6121b5575b505050505050565b84039180805b6121d6575b505050505081540361069d5780808080806121ad565b156121fd575b856121ee611daa868487019686612056565b6121f857816121bb565b611fd7565b8483106121dc57806121c0565b15612241575b50878583838b7fddf252ad1be2c89b69c2b068fc378daa952ba7f163c4a11628f55a4df523b3ef8180a4908161219a565b909101908682146122525784612210565b848161219f565b6123d2565b6123c3565b61226c81611c30565b5f82815260066020526040902080546001600160a01b0383169190929060ff600f5460a01c16158061238e575b80612387575b611f07575f9361237e575b506001600160a01b0382165f90815260056020526040902080546fffffffffffffffffffffffffffffffff0190555f8481526004602052604090204260a01b8317600360e01b179055600160e11b811615612339575b507fddf252ad1be2c89b69c2b068fc378daa952ba7f163c4a11628f55a4df523b3ef8280a461115c61233460015460010190565b600155565b6001840161234f815f52600460205260405f2090565b541561235c575b50612300565b8354811461235657612376905f52600460205260405f2090565b555f80612356565b8390555f6122aa565b505f61229f565b50821515612299565b62a1148160e81b5f5260045ffd5b632ce44b5f60e11b5f5260045ffd5b633a954ecd60e21b5f5260045ffd5b63b562e8dd60e01b5f5260045ffd5b622e076360e81b5f5260045ffd5b6009546001600160a01b031633036123f457565b606460405162461bcd60e51b815260206004820152602060248201527f4f776e61626c653a2063616c6c6572206973206e6f7420746865206f776e65726044820152fd5b60405190612445826110f0565b600a546001600160a01b038116835260a01c6020830152565b1561246557565b60405162461bcd60e51b815260206004820152601960248201527f455243323938313a20696e76616c6964207265636569766572000000000000006044820152606490fd5b906124b48261115e565b6124c1604051918261112d565b82815280926124d2601f199161115e565b019060203691013756fea264697066735822122000afddb60946488ff211ec732c51912a6102bbaa16bc83ea8479167d945e60b264736f6c63430008140033",
    "linkReferences": {}
  }
}