{"abi":[{"type":"constructor","inputs":[{"name":"name","type":"string","internalType":"string"},{"name":"symbol","type":"string","internalType":"string"},{"name":"_maxSupply","type":"uint256","internalType":"uint256"},{"name":"_licensePrice","type":"uint256","internalType":"uint256"},{"name":"_pandoraOracle","type":"address","internalType":"address"},{"name":"_treasuryAddress","type":"address","internalType":"address"},{"name":"initialOwner","type":"address","internalType":"address"}],"stateMutability":"nonpayable"},{"type":"function","name":"advanceToPhase","inputs":[{"name":"newPhaseId","type":"uint256","internalType":"uint256"},{"name":"newPhaseMaxSupply","type":"uint256","internalType":"uint256"}],"outputs":[],"stateMutability":"nonpayable"},{"type":"function","name":"approve","inputs":[{"name":"to","type":"address","internalType":"address"},{"name":"tokenId","type":"uint256","internalType":"uint256"}],"outputs":[],"stateMutability":"payable"},{"type":"function","name":"balanceOf","inputs":[{"name":"owner","type":"address","internalType":"address"}],"outputs":[{"name":"","type":"uint256","internalType":"uint256"}],"stateMutability":"view"},{"type":"function","name":"getApproved","inputs":[{"name":"tokenId","type":"uint256","internalType":"uint256"}],"outputs":[{"name":"","type":"address","internalType":"address"}],"stateMutability":"view"},{"type":"function","name":"getLicensePhase","inputs":[{"name":"tokenId","type":"uint256","internalType":"uint256"}],"outputs":[{"name":"","type":"uint256","internalType":"uint256"}],"stateMutability":"view"},{"type":"function","name":"getPhaseStats","inputs":[],"outputs":[{"name":"currentPhase","type":"uint256","internalType":"uint256"},{"name":"totalPhases","type":"uint256","internalType":"uint256"}],"stateMutability":"view"},{"type":"function","name":"getVotes","inputs":[{"name":"account","type":"address","internalType":"address"}],"outputs":[{"name":"","type":"uint256","internalType":"uint256"}],"stateMutability":"view"},{"type":"function","name":"hasActiveLicense","inputs":[{"name":"account","type":"address","internalType":"address"}],"outputs":[{"name":"","type":"bool","internalType":"bool"}],"stateMutability":"view"},{"type":"function","name":"isApprovedForAll","inputs":[{"name":"owner","type":"address","internalType":"address"},{"name":"operator","type":"address","internalType":"address"}],"outputs":[{"name":"","type":"bool","internalType":"bool"}],"stateMutability":"view"},{"type":"function","name":"licensePrice","inputs":[],"outputs":[{"name":"","type":"uint256","internalType":"uint256"}],"stateMutability":"view"},{"type":"function","name":"licenseUsageCount","inputs":[{"name":"","type":"uint256","internalType":"uint256"}],"outputs":[{"name":"","type":"uint256","internalType":"uint256"}],"stateMutability":"view"},{"type":"function","name":"maxSupply","inputs":[],"outputs":[{"name":"","type":"uint256","internalType":"uint256"}],"stateMutability":"view"},{"type":"function","name":"mintLicense","inputs":[{"name":"recipient","type":"address","internalType":"address"},{"name":"quantity","type":"uint256","internalType":"uint256"}],"outputs":[],"stateMutability":"nonpayable"},{"type":"function","name":"mintWithPayment","inputs":[{"name":"quantity","type":"uint256","internalType":"uint256"}],"outputs":[],"stateMutability":"payable"},{"type":"function","name":"name","inputs":[],"outputs":[{"name":"","type":"string","internalType":"string"}],"stateMutability":"view"},{"type":"function","name":"owner","inputs":[],"outputs":[{"name":"","type":"address","internalType":"address"}],"stateMutability":"view"},{"type":"function","name":"ownerOf","inputs":[{"name":"tokenId","type":"uint256","internalType":"uint256"}],"outputs":[{"name":"","type":"address","internalType":"address"}],"stateMutability":"view"},{"type":"function","name":"pandoraOracle","inputs":[],"outputs":[{"name":"","type":"address","internalType":"address"}],"stateMutability":"view"},{"type":"function","name":"phaseId","inputs":[],"outputs":[{"name":"","type":"uint256","internalType":"uint256"}],"stateMutability":"view"},{"type":"function","name":"phaseMaxSupply","inputs":[{"name":"","type":"uint256","internalType":"uint256"}],"outputs":[{"name":"","type":"uint256","internalType":"uint256"}],"stateMutability":"view"},{"type":"function","name":"recordLicenseUsage","inputs":[{"name":"tokenId","type":"uint256","internalType":"uint256"}],"outputs":[],"stateMutability":"nonpayable"},{"type":"function","name":"remainingSupply","inputs":[],"outputs":[{"name":"","type":"uint256","internalType":"uint256"}],"stateMutability":"view"},{"type":"function","name":"renounceOwnership","inputs":[],"outputs":[],"stateMutability":"nonpayable"},{"type":"function","name":"royaltyInfo","inputs":[{"name":"tokenId","type":"uint256","internalType":"uint256"},{"name":"salePrice","type":"uint256","internalType":"uint256"}],"outputs":[{"name":"","type":"address","internalType":"address"},{"name":"","type":"uint256","internalType":"uint256"}],"stateMutability":"view"},{"type":"function","name":"safeTransferFrom","inputs":[{"name":"from","type":"address","internalType":"address"},{"name":"to","type":"address","internalType":"address"},{"name":"tokenId","type":"uint256","internalType":"uint256"}],"outputs":[],"stateMutability":"payable"},{"type":"function","name":"safeTransferFrom","inputs":[{"name":"from","type":"address","internalType":"address"},{"name":"to","type":"address","internalType":"address"},{"name":"tokenId","type":"uint256","internalType":"uint256"},{"name":"_data","type":"bytes","internalType":"bytes"}],"outputs":[],"stateMutability":"payable"},{"type":"function","name":"setApprovalForAll","inputs":[{"name":"operator","type":"address","internalType":"address"},{"name":"approved","type":"bool","internalType":"bool"}],"outputs":[],"stateMutability":"nonpayable"},{"type":"function","name":"setLicensePrice","inputs":[{"name":"newPrice","type":"uint256","internalType":"uint256"}],"outputs":[],"stateMutability":"nonpayable"},{"type":"function","name":"setPandoraOracle","inputs":[{"name":"newOracle","type":"address","internalType":"address"}],"outputs":[],"stateMutability":"nonpayable"},{"type":"function","name":"setRoyaltyInfo","inputs":[{"name":"receiver","type":"address","internalType":"address"},{"name":"feeNumerator","type":"uint96","internalType":"uint96"}],"outputs":[],"stateMutability":"nonpayable"},{"type":"function","name":"setTreasuryAddress","inputs":[{"name":"newTreasury","type":"address","internalType":"address"}],"outputs":[],"stateMutability":"nonpayable"},{"type":"function","name":"supportsInterface","inputs":[{"name":"interfaceId","type":"bytes4","internalType":"bytes4"}],"outputs":[{"name":"","type":"bool","internalType":"bool"}],"stateMutability":"view"},{"type":"function","name":"symbol","inputs":[],"outputs":[{"name":"","type":"string","internalType":"string"}],"stateMutability":"view"},{"type":"function","name":"tokenURI","inputs":[{"name":"tokenId","type":"uint256","internalType":"uint256"}],"outputs":[{"name":"","type":"string","internalType":"string"}],"stateMutability":"view"},{"type":"function","name":"totalMinted","inputs":[],"outputs":[{"name":"","type":"uint256","internalType":"uint256"}],"stateMutability":"view"},{"type":"function","name":"totalSupply","inputs":[],"outputs":[{"name":"result","type":"uint256","internalType":"uint256"}],"stateMutability":"view"},{"type":"function","name":"transferFrom","inputs":[{"name":"from","type":"address","internalType":"address"},{"name":"to","type":"address","internalType":"address"},{"name":"tokenId","type":"uint256","internalType":"uint256"}],"outputs":[],"stateMutability":"payable"},{"type":"function","name":"transferOwnership","inputs":[{"name":"newOwner","type":"address","internalType":"address"}],"outputs":[],"stateMutability":"nonpayable"},{"type":"function","name":"treasuryAddress","inputs":[],"outputs":[{"name":"","type":"address","internalType":"address"}],"stateMutability":"view"},{"type":"function","name":"upgradeLicense","inputs":[{"name":"tokenId","type":"uint256","internalType":"uint256"},{"name":"newPhaseId","type":"uint256","internalType":"uint256"}],"outputs":[],"stateMutability":"nonpayable"},{"type":"event","name":"Approval","inputs":[{"name":"owner","type":"address","indexed":true,"internalType":"address"},{"name":"approved","type":"address","indexed":true,"internalType":"address"},{"name":"tokenId","type":"uint256","indexed":true,"internalType":"uint256"}],"anonymous":false},{"type":"event","name":"ApprovalForAll","inputs":[{"name":"owner","type":"address","indexed":true,"internalType":"address"},{"name":"operator","type":"address","indexed":true,"internalType":"address"},{"name":"approved","type":"bool","indexed":false,"internalType":"bool"}],"anonymous":false},{"type":"event","name":"ConsecutiveTransfer","inputs":[{"name":"fromTokenId","type":"uint256","indexed":true,"internalType":"uint256"},{"name":"toTokenId","type":"uint256","indexed":false,"internalType":"uint256"},{"name":"from","type":"address","indexed":true,"internalType":"address"},{"name":"to","type":"address","indexed":true,"internalType":"address"}],"anonymous":false},{"type":"event","name":"LicenseMinted","inputs":[{"name":"recipient","type":"address","indexed":true,"internalType":"address"},{"name":"quantity","type":"uint256","indexed":false,"internalType":"uint256"},{"name":"totalMinted","type":"uint256","indexed":false,"internalType":"uint256"}],"anonymous":false},{"type":"event","name":"LicensePriceUpdated","inputs":[{"name":"oldPrice","type":"uint256","indexed":true,"internalType":"uint256"},{"name":"newPrice","type":"uint256","indexed":true,"internalType":"uint256"}],"anonymous":false},{"type":"event","name":"LicenseUpgraded","inputs":[{"name":"tokenId","type":"uint256","indexed":true,"internalType":"uint256"},{"name":"oldPhase","type":"uint256","indexed":false,"internalType":"uint256"},{"name":"newPhase","type":"uint256","indexed":false,"internalType":"uint256"}],"anonymous":false},{"type":"event","name":"OracleUpdated","inputs":[{"name":"oldOracle","type":"address","indexed":true,"internalType":"address"},{"name":"newOracle","type":"address","indexed":true,"internalType":"address"}],"anonymous":false},{"type":"event","name":"OwnershipTransferred","inputs":[{"name":"previousOwner","type":"address","indexed":true,"internalType":"address"},{"name":"newOwner","type":"address","indexed":true,"internalType":"address"}],"anonymous":false},{"type":"event","name":"RoyaltyUpdated","inputs":[{"name":"receiver","type":"address","indexed":true,"internalType":"address"},{"name":"feeNumerator","type":"uint96","indexed":false,"internalType":"uint96"}],"anonymous":false},{"type":"event","name":"Transfer","inputs":[{"name":"from","type":"address","indexed":true,"internalType":"address"},{"name":"to","type":"address","indexed":true,"internalType":"address"},{"name":"tokenId","type":"uint256","indexed":true,"internalType":"uint256"}],"anonymous":false},{"type":"event","name":"TreasuryUpdated","inputs":[{"name":"oldTreasury","type":"address","indexed":true,"internalType":"address"},{"name":"newTreasury","type":"address","indexed":true,"internalType":"address"}],"anonymous":false},{"type":"error","name":"ApprovalCallerNotOwnerNorApproved","inputs":[]},{"type":"error","name":"ApprovalQueryForNonexistentToken","inputs":[]},{"type":"error","name":"BalanceQueryForZeroAddress","inputs":[]},{"type":"error","name":"MintERC2309QuantityExceedsLimit","inputs":[]},{"type":"error","name":"MintToZeroAddress","inputs":[]},{"type":"error","name":"MintZeroQuantity","inputs":[]},{"type":"error","name":"NotCompatibleWithSpotMints","inputs":[]},{"type":"error","name":"OwnerQueryForNonexistentToken","inputs":[]},{"type":"error","name":"OwnershipNotInitializedForExtraData","inputs":[]},{"type":"error","name":"SequentialMintExceedsLimit","inputs":[]},{"type":"error","name":"SequentialUpToTooSmall","inputs":[]},{"type":"error","name":"SpotMintTokenIdTooSmall","inputs":[]},{"type":"error","name":"TokenAlreadyExists","inputs":[]},{"type":"error","name":"TransferCallerNotOwnerNorApproved","inputs":[]},{"type":"error","name":"TransferFromIncorrectOwner","inputs":[]},{"type":"error","name":"TransferToNonERC721ReceiverImplementer","inputs":[]},{"type":"error","name":"TransferToZeroAddress","inputs":[]},{"type":"error","name":"URIQueryForNonexistentToken","inputs":[]}],"bytecode":{"object":"0x608060405234620000bc57620026b4803803806200001d81620000d4565b92833981019060e081830312620000bc5780516001600160401b0390818111620000bc57836200004f91840162000100565b906020830151908111620000bc57620000ac936200006f91840162000100565b6040830151606084015191620000886080860162000170565b93620000a560c06200009d60a0890162000170565b970162000170565b506200026b565b604051611fa790816200070d8239f35b5f80fd5b634e487b7160e01b5f52604160045260245ffd5b6040519190601f01601f191682016001600160401b03811183821017620000fa57604052565b620000c0565b919080601f84011215620000bc5782516001600160401b038111620000fa5760209062000136601f8201601f19168301620000d4565b92818452828287010111620000bc575f5b8181106200015c5750825f9394955001015290565b858101830151848201840152820162000147565b51906001600160a01b0382168203620000bc57565b156200018d57565b606460405162461bcd60e51b815260206004820152602060248201527f5732453a204d617820737570706c79206d75737420626520706f7369746976656044820152fd5b15620001d957565b60405162461bcd60e51b815260206004820152601b60248201527f5732453a20496e76616c6964206f7261636c65206164647265737300000000006044820152606490fd5b156200022657565b60405162461bcd60e51b815260206004820152601d60248201527f5732453a20496e76616c696420747265617375727920616464726573730000006044820152606490fd5b805194969594929392906001600160401b038211620000fa576200029c826200029660025462000462565b6200049d565b60209081601f8411600114620003c45750620003b6979893836200033d946200035f9794620002e7945f92620003b8575b50508160011b915f199060031b1c1916176002556200054d565b620002f160015f55565b620002fc336200063b565b6200030985151562000185565b6200032e6001600160a01b03620003248582161515620001d1565b871615156200021e565b6200033885600d55565b600e55565b600c80546001600160a01b0319166001600160a01b0392909216919091179055565b600f80546001600160a01b0319166001600160a01b038416179055620003856001601055565b60015f5260116020527f17bc176d2408558f6e4111feebc3cab4e16b63e967be91cde721f4c8a488b5525562000683565b565b015190505f80620002cd565b60025f529190601f1984167f405787fa12a823e0f2b7631cc41b3ba8828b3321ca811111fa75cd3aa3bb5ace935f905b82821062000449575050846200035f9794620002e794620003b69c9d98946200033d986001951062000430575b505050811b016002556200054d565b01515f1960f88460031b161c191690555f808062000421565b80600186978294978701518155019601940190620003f4565b90600182811c9216801562000492575b60208310146200047e57565b634e487b7160e01b5f52602260045260245ffd5b91607f169162000472565b601f8111620004aa575050565b5f906002825260208220906020601f850160051c83019410620004ea575b601f0160051c01915b828110620004de57505050565b818155600101620004d1565b9092508290620004c8565b601f811162000502575050565b5f906003825260208220906020601f850160051c8301941062000542575b601f0160051c01915b8281106200053657505050565b81815560010162000529565b909250829062000520565b80519091906001600160401b038111620000fa5762000579816200057360035462000462565b620004f5565b602080601f8311600114620005b657508192935f92620005aa575b50508160011b915f199060031b1c191617600355565b015190505f8062000594565b60035f52601f198316949091907fc2575a0e9e593c00f959f8c92f12db2869c3395a3b0502d05e2516446f71f85b925f905b8782106200062257505083600195961062000609575b505050811b01600355565b01515f1960f88460031b161c191690555f8080620005fe565b80600185968294968601518155019501930190620005e8565b600980546001600160a01b039283166001600160a01b0319821681179092559091167f8be0079c531659141344cd1fd0a4f28419497f9722a3daafe3b4186f6b6457e05f80a3565b6001600160a01b03168015620006c757604080519081016001600160401b03811182821017620000fa576040528181526101f4602090910152607d60a21b17600a55565b60405162461bcd60e51b815260206004820152601960248201527f455243323938313a20696e76616c6964207265636569766572000000000000006044820152606490fdfe60806040526004361015610011575f80fd5b5f3560e01c806301ffc9a71461028f578063025f77cb1461028a57806302fa7c471461028557806306ba01eb1461028057806306fdde031461027b578063081812fc14610276578063095ea7b31461027157806318160ddd1461026c57806323b872dd146102675780632a55205a1461026257806340010a7e1461025d57806342842e0e1461025857806345afae151461025357806358303b101461024e5780635d090cde146102495780636352211e146102445780636605bfda1461023f57806370a0823114610221578063715018a61461023a5780637ca62aff1461023557806383ac412f146102305780638da5cb5b1461022b57806395d89b41146102265780639ab24eb014610221578063a22cb4651461021c578063a2309ff814610217578063aa98053f14610212578063b88d4fde1461020d578063c5f956af14610208578063c87b56dd14610203578063ccd3f504146101fe578063d5abeb01146101f9578063da0239a6146101f4578063e6496fd7146101ef578063e985e9c5146101ea578063ed6bac1d146101e5578063ee14ca81146101e0578063f2fde38b146101db578063f58351ce146101d65763f9c5d19a146101d1575f80fd5b611544565b61151c565b611459565b611354565b6112ee565b611292565b611249565b61121d565b611200565b6111ad565b610fab565b610f83565b610f00565b610d63565b610d44565b610cb7565b610afa565b610bf6565b610bce565b610ba4565b610b7a565b610b1d565b610a46565b610a17565b610934565b610917565b610863565b610841565b610824565b610784565b610770565b610717565b61066a565b61061b565b610511565b610491565b610354565b610300565b6102aa565b6001600160e01b03198116036102a657565b5f80fd5b346102a65760203660031901126102a65760206004356102c981610294565b63ffffffff60e01b1663152a902d60e11b81149081156102ef575b506040519015158152f35b6301ffc9a760e01b1490505f6102e4565b346102a6575f3660031901126102a657600c546040516001600160a01b039091168152602090f35b600435906001600160a01b03821682036102a657565b602435906001600160a01b03821682036102a657565b346102a65760403660031901126102a65761036d610328565b6024356001600160601b0381168082036102a6576127109061038d611e75565b11610439576001600160a01b038216917f8039bd6e4e7dba001c8840eb2e118d9d131246faa7d0d04335f7305127ec0b10916104349161041a906103d2861515611ef3565b6103ec6103dd610ed5565b6001600160a01b039092168252565b6001600160601b0383166020820152516001600160a01b03166001600160a01b031960a084901b1617600a55565b6040516001600160601b0390911681529081906020820190565b0390a2005b60405162461bcd60e51b815260206004820152602a60248201527f455243323938313a20726f79616c7479206665652077696c6c206578636565646044820152692073616c65507269636560b01b6064820152608490fd5b346102a65760203660031901126102a65760206104af60043561188f565b604051908152f35b5f5b8381106104c85750505f910152565b81810151838201526020016104b9565b906020916104f1815180928185528580860191016104b7565b601f01601f1916010190565b90602061050e9281815201906104d8565b90565b346102a6575f806003193601126106185760405190806002549060019180831c9280821692831561060e575b60209283861085146105fa5785885260208801949081156105d95750600114610581575b61057d8761057181890382610eb3565b604051918291826104fd565b0390f35b60025f5294509192917f405787fa12a823e0f2b7631cc41b3ba8828b3321ca811111fa75cd3aa3bb5ace5b8386106105c857505050910190506105718261057d5f80610561565b8054858701529482019481016105ac565b60ff191685525050505090151560051b0190506105718261057d5f80610561565b634e487b7160e01b82526022600452602482fd5b93607f169361053d565b80fd5b346102a65760203660031901126102a6576004356106388161198f565b1561065b575f526006602052602060018060a01b0360405f205416604051908152f35b6333d1c03960e21b5f5260045ffd5b60403660031901126102a65761067e610328565b6001600160a01b03906024359082610695836118ff565b168033036106e8575b5f93838552600660205260408520921691826001600160601b0360a01b8254161790557f8c5be1e5ebec7d5bd14f71427d1e84f3dd0314c0f7b2291e5b200ac8c7c3b9258480a480f35b5f81815260076020908152604080832033845290915290205460ff1661069e576367d9dca160e11b5f5260045ffd5b346102a6575f3660031901126102a6575f5460015460405191035f19018152602090f35b60609060031901126102a6576001600160a01b039060043582811681036102a6579160243590811681036102a6579060443590565b61078261077c3661073b565b916119f5565b005b346102a65760403660031901126102a6576004355f52600b60205260405f20604051906107b082610e76565b546001600160a01b0380821680845260a09290921c60208401529015610814575b6107f56107ed6001600160601b036020850151166024356116f8565b612710900490565b915160408051929091166001600160a01b031682526020820192909252f35b905061081e611ecd565b906107d1565b346102a6575f3660031901126102a6576020600e54604051908152f35b61078261084d3661073b565b906040519261085b84610e97565b5f8452611b77565b346102a65760203660031901126102a65761087c610328565b610884611e75565b6001600160a01b039081169081156108d257600c54826001600160601b0360a01b821617600c55167f078c3b417dadf69374a59793b829c52001247130433427049317bde56607b1b75f80a3005b60405162461bcd60e51b815260206004820152601b60248201527f5732453a20496e76616c6964206f7261636c65206164647265737300000000006044820152606490fd5b346102a6575f3660031901126102a6576020601054604051908152f35b346102a65760403660031901126102a65761094d610328565b6024359060018060a01b0361096781600c5416331461163f565b5f545f1984820181019291018210610a1257610987600d548311156116ac565b82169283156109d4576109bb817f1b34d8487a319bb4bc294237f5de72c2c7f3a373fb8ffea7ecdf5fba22ad950e94611ce7565b6040805191825260208201929092529081908101610434565b60405162461bcd60e51b815260206004820152601660248201527515cc914e88125b9d985b1a59081c9958da5c1a595b9d60521b6044820152606490fd5b61168b565b346102a65760203660031901126102a65760206001600160a01b03610a3d6004356118ff565b16604051908152f35b346102a65760203660031901126102a657610a5f610328565b610a67611e75565b6001600160a01b03908116908115610ab557600f54826001600160601b0360a01b821617600f55167f4ab5be82436d353e61ca18726e984e561f5c1cc7c6d38b29d2553c790434705a5f80a3005b60405162461bcd60e51b815260206004820152601d60248201527f5732453a20496e76616c696420747265617375727920616464726573730000006044820152606490fd5b346102a65760203660031901126102a65760206104af610b18610328565b6118c8565b346102a6575f8060031936011261061857610b36611e75565b600980546001600160a01b0319811690915581906001600160a01b03167f8be0079c531659141344cd1fd0a4f28419497f9722a3daafe3b4186f6b6457e08280a380f35b346102a65760203660031901126102a6576004355f526011602052602060405f2054604051908152f35b346102a65760203660031901126102a6576004355f526012602052602060405f2054604051908152f35b346102a6575f3660031901126102a6576009546040516001600160a01b039091168152602090f35b346102a6575f806003193601126106185760405190806003549060019180831c92808216928315610cad575b60209283861085146105fa5785885260208801949081156105d95750600114610c555761057d8761057181890382610eb3565b60035f5294509192917fc2575a0e9e593c00f959f8c92f12db2869c3395a3b0502d05e2516446f71f85b5b838610610c9c57505050910190506105718261057d5f80610561565b805485870152948201948101610c80565b93607f1693610c22565b346102a65760403660031901126102a657610cd0610328565b602435908115158092036102a657335f9081526007602090815260408083206001600160a01b0385168452909152902060ff1981541660ff841617905560405191825260018060a01b0316907f17307eab39ab6107e8899845ad3d59bd9653f200f220920489ca2b5937696c3160203392a3005b346102a6575f3660031901126102a65760205f195f5401604051908152f35b346102a65760403660031901126102a657602435600435610d82611e75565b601054811115610e0f578115610dbf57610dae81610da08493601055565b5f52601160205260405f2090565b55600d548111610dba57005b600d55005b60405162461bcd60e51b815260206004820152602260248201527f5732453a20506861736520737570706c79206d75737420626520706f73697469604482015261766560f01b6064820152608490fd5b60405162461bcd60e51b815260206004820152602560248201527f5732453a2043616e206f6e6c7920616476616e636520746f2068696768657220604482015264706861736560d81b6064820152608490fd5b634e487b7160e01b5f52604160045260245ffd5b6040810190811067ffffffffffffffff821117610e9257604052565b610e62565b6020810190811067ffffffffffffffff821117610e9257604052565b90601f8019910116810190811067ffffffffffffffff821117610e9257604052565b60405190610ee282610e76565b565b67ffffffffffffffff8111610e9257601f01601f191660200190565b60803660031901126102a657610f14610328565b610f1c61033e565b6064359167ffffffffffffffff83116102a657366023840112156102a657826004013591610f4983610ee4565b92610f576040519485610eb3565b80845236602482870101116102a6576020815f9260246107829801838801378501015260443591611b77565b346102a6575f3660031901126102a657600f546040516001600160a01b039091168152602090f35b346102a65760203660031901126102a657600435610fc88161198f565b15611168575f90807a184f03e93ff9f4daa797ed6e38ed64bf6a1f010000000000000000818181101561115a575b50506d04ee2d6d415b85acef81000000008083101561114b575b50662386f26fc100008083101561113c575b506305f5e1008083101561112d575b506127108083101561111e575b50606482101561110e575b600a80921015611104575b600190816021611065828701611f3f565b95860101905b6110cf575b61057d6110c1610571876040519283916110bb602084016021907f68747470733a2f2f6170692e70616e646f7261732e636f6d2f6c6963656e73658152602f60f81b60208201520190565b906117d2565b03601f198101835282610eb3565b5f19019083906f181899199a1a9b1b9c1cb0b131b232b360811b8282061a8353049182156110ff5791908261106b565b611070565b9160010191611054565b9190606460029104910191611049565b6004919392049101915f61103e565b6008919392049101915f611031565b6010919392049101915f611022565b6020919392049101915f611010565b604094500491505f80610ff6565b60405162461bcd60e51b815260206004820152601960248201527f5732453a20546f6b656e20646f6573206e6f74206578697374000000000000006044820152606490fd5b346102a65760203660031901126102a6576004356111d660018060a01b03600c5416331461163f565b6111e76111e28261198f565b6117e9565b5f52601260205260405f206111fc8154611835565b9055005b346102a6575f3660031901126102a6576020600d54604051908152f35b346102a6575f3660031901126102a657600d5460015f54820301908111610a1257602090604051908152f35b346102a65760203660031901126102a657600435611265611e75565b600e5481600e557fde29518294b67b15c622c33e091aa7ee4b00122daf20eedf488072e33d96fe745f80a3005b346102a65760403660031901126102a657602060ff6112e26112b2610328565b6112ba61033e565b6001600160a01b039182165f9081526007865260408082209290931681526020919091522090565b54166040519015158152f35b346102a6575f80600319360112610618576010546001825b600a821115611323575b5050604080519182526020820192909252f35b8181526011602052604081205491939092911561134b575061134483611835565b9091611306565b92819250611310565b60203660031901126102a65760043580156114145761138061137882600e546116f8565b34101561170b565b5f907f1b34d8487a319bb4bc294237f5de72c2c7f3a373fb8ffea7ecdf5fba22ad950e61140e6113b4835f1986540161169f565b6113c2600d548211156116ac565b6113cc8433611ce7565b6113f585808080346113e5600f5460018060a01b031690565b5af16113ef611757565b50611786565b6040805194855260208501919091523393918291820190565b0390a280f35b60405162461bcd60e51b815260206004820152601e60248201527f5732453a205175616e74697479206d75737420626520706f73697469766500006044820152606490fd5b346102a65760203660031901126102a657611472610328565b61147a611e75565b6001600160a01b039081169081156114c857600954826001600160601b0360a01b821617600955167f8be0079c531659141344cd1fd0a4f28419497f9722a3daafe3b4186f6b6457e05f80a3005b60405162461bcd60e51b815260206004820152602660248201527f4f776e61626c653a206e6577206f776e657220697320746865207a65726f206160448201526564647265737360d01b6064820152608490fd5b346102a65760203660031901126102a657602061153a610b18610328565b1515604051908152f35b346102a65760403660031901126102a65760043560243561157060018060a01b03600c5416331461163f565b61157c6111e28361198f565b6115858261188f565b8111156115ec577fb4c5114dafb9430311b9c0e893d2181f328319c82627d1dcf3493b20bca66b1f906115bc601054821115611843565b6115c58361188f565b5f848152601260205260408120556040805191825260208201929092529081908101610434565b60405162461bcd60e51b815260206004820152602560248201527f5732453a2043616e206f6e6c79207570677261646520746f2068696768657220604482015264706861736560d81b6064820152608490fd5b1561164657565b60405162461bcd60e51b815260206004820152601760248201527f5732453a204e6f742050616e646f7261204f7261636c650000000000000000006044820152606490fd5b634e487b7160e01b5f52601160045260245ffd5b91908201809211610a1257565b156116b357565b60405162461bcd60e51b815260206004820152601760248201527f5732453a204d617820737570706c7920726561636865640000000000000000006044820152606490fd5b81810292918115918404141715610a1257565b1561171257565b60405162461bcd60e51b815260206004820152601960248201527f5732453a20496e73756666696369656e74207061796d656e74000000000000006044820152606490fd5b3d15611781573d9061176882610ee4565b916117766040519384610eb3565b82523d5f602084013e565b606090565b1561178d57565b60405162461bcd60e51b815260206004820152601d60248201527f5732453a205472656173757279207472616e73666572206661696c65640000006044820152606490fd5b906117e5602092828151948592016104b7565b0190565b156117f057565b60405162461bcd60e51b815260206004820152601b60248201527f5732453a204c6963656e736520646f6573206e6f7420657869737400000000006044820152606490fd5b5f198114610a125760010190565b1561184a57565b60405162461bcd60e51b815260206004820152601c60248201527f5732453a205068617365206e6f742079657420617661696c61626c65000000006044820152606490fd5b61189b6111e28261198f565b5f52601260205260405f205460648110156118c257603211156118bd57600190565b600290565b50600390565b6001600160a01b031680156118f0575f52600560205267ffffffffffffffff60405f20541690565b6323d3ad8160e21b5f5260045ffd5b6001908082116119805761191b815f52600460205260405f2090565b54918215611938575b5050600160e01b81161561050e5780611980565b5f548210156119805790815b15611924579091505f1901611961815f52600460205260405f2090565b54918215611979575050600160e01b81166119805790565b9081611944565b636f96cda160e11b5f5260045ffd5b5f919060019083818311156119a357505050565b805482106119b057505050565b9293509082815b6119c9575b505050600160e01b161590565b8281526004602052604081205493509091836119f0578015610a12575f19019190816119b7565b6119bc565b919091611a01826118ff565b6001600160a01b0391821693909190818316859003611b72575f8481526006602052604090208054611a466001600160a01b03881633908114908314171590565b1590565b611b28575b611b1f575b506001600160a01b038581165f90815260056020908152604080832080545f19019055928416825282822080546001019055868252600490522091169384929091600160e11b904260a01b851782179055811615611ada575b507fddf252ad1be2c89b69c2b068fc378daa952ba7f163c4a11628f55a4df523b3ef5f80a415611ad557565b611e49565b60018401611af0815f52600460205260405f2090565b5415611afd575b50611aa9565b5f548114611af757611b17905f52600460205260405f2090565b555f80611af7565b5f90555f611a50565b611b68611a42611b6133611b4c8b60018060a01b03165f52600760205260405f2090565b9060018060a01b03165f5260205260405f2090565b5460ff1690565b15611a4b57611e3a565b611e2c565b929190611b858282866119f5565b803b611b92575b50505050565b611b9b93611cbf565b15611ba9575f808080611b8c565b6368d2bf6b60e11b5f5260045ffd5b908160209103126102a6575161050e81610294565b61050e939260809260018060a01b031682525f6020830152604082015281606082015201906104d8565b6001600160a01b03918216815291166020820152604081019190915260806060820181905261050e929101906104d8565b611c506020915f9394604051948580948193630a85bd0160e11b998a84523360048501611bcd565b03926001600160a01b03165af15f9181611c8f575b50611c8157611c72611757565b805115611ba957805190602001fd5b6001600160e01b0319161490565b611cb191925060203d8111611cb8575b611ca98183610eb3565b810190611bb8565b905f611c65565b503d611c9f565b92602091611c50935f604051809681958294630a85bd0160e11b9a8b85523360048601611bf7565b604051611cf381610e97565b5f928382528354928115611e27575f848152600460205260409020600192906001600160a01b038316904260a01b83861460e11b17821790556001600160a01b0383165f90815260056020526040902068010000000000000001830281540190558015611e225781860195908480805b611dd3575b50505050848655813b611d7e575b505050505050565b84039180805b611d9f575b5050505050815403610618578080808080611d76565b15611dc6575b85611db7611a42868487019686611c28565b611dc15781611d84565b611ba9565b848310611da55780611d89565b15611e0a575b50878583838b7fddf252ad1be2c89b69c2b068fc378daa952ba7f163c4a11628f55a4df523b3ef8180a49081611d63565b90910190868214611e1b5784611dd9565b8481611d68565b611e67565b611e58565b62a1148160e81b5f5260045ffd5b632ce44b5f60e11b5f5260045ffd5b633a954ecd60e21b5f5260045ffd5b63b562e8dd60e01b5f5260045ffd5b622e076360e81b5f5260045ffd5b6009546001600160a01b03163303611e8957565b606460405162461bcd60e51b815260206004820152602060248201527f4f776e61626c653a2063616c6c6572206973206e6f7420746865206f776e65726044820152fd5b60405190611eda82610e76565b600a546001600160a01b038116835260a01c6020830152565b15611efa57565b60405162461bcd60e51b815260206004820152601960248201527f455243323938313a20696e76616c6964207265636569766572000000000000006044820152606490fd5b90611f4982610ee4565b611f566040519182610eb3565b8281528092611f67601f1991610ee4565b019060203691013756fea2646970667358221220f84cc832d9782b2c47995d57755e6beb523133b8f54ba4ee5073e546bccb8c1164736f6c63430008140033","linkReferences":{}},"methodIdentifiers":{"advanceToPhase(uint256,uint256)":"aa98053f","approve(address,uint256)":"095ea7b3","balanceOf(address)":"70a08231","getApproved(uint256)":"081812fc","getLicensePhase(uint256)":"06ba01eb","getPhaseStats()":"ed6bac1d","getVotes(address)":"9ab24eb0","hasActiveLicense(address)":"f58351ce","isApprovedForAll(address,address)":"e985e9c5","licensePrice()":"40010a7e","licenseUsageCount(uint256)":"83ac412f","maxSupply()":"d5abeb01","mintLicense(address,uint256)":"5d090cde","mintWithPayment(uint256)":"ee14ca81","name()":"06fdde03","owner()":"8da5cb5b","ownerOf(uint256)":"6352211e","pandoraOracle()":"025f77cb","phaseId()":"58303b10","phaseMaxSupply(uint256)":"7ca62aff","recordLicenseUsage(uint256)":"ccd3f504","remainingSupply()":"da0239a6","renounceOwnership()":"715018a6","royaltyInfo(uint256,uint256)":"2a55205a","safeTransferFrom(address,address,uint256)":"42842e0e","safeTransferFrom(address,address,uint256,bytes)":"b88d4fde","setApprovalForAll(address,bool)":"a22cb465","setLicensePrice(uint256)":"e6496fd7","setPandoraOracle(address)":"45afae15","setRoyaltyInfo(address,uint96)":"02fa7c47","setTreasuryAddress(address)":"6605bfda","supportsInterface(bytes4)":"01ffc9a7","symbol()":"95d89b41","tokenURI(uint256)":"c87b56dd","totalMinted()":"a2309ff8","totalSupply()":"18160ddd","transferFrom(address,address,uint256)":"23b872dd","transferOwnership(address)":"f2fde38b","treasuryAddress()":"c5f956af","upgradeLicense(uint256,uint256)":"f9c5d19a"},"id":3}