{
  "_format": "hh-sol-artifact-1",
  "contractName": "W2EUtility",
  "sourceName": "contracts/core/W2EUtility.sol",
  "abi": [
    {
      "inputs": [
        {
          "internalType": "string",
          "name": "name",
          "type": "string"
        },
        {
          "internalType": "string",
          "name": "symbol",
          "type": "string"
        },
        {
          "internalType": "uint8",
          "name": "initialDecimals",
          "type": "uint8"
        },
        {
          "internalType": "uint256",
          "name": "_transactionFee",
          "type": "uint256"
        },
        {
          "internalType": "address",
          "name": "_feeRecipient",
          "type": "address"
        },
        {
          "internalType": "address",
          "name": "initialOwner",
          "type": "address"
        }
      ],
      "stateMutability": "nonpayable",
      "type": "constructor"
    },
    {
      "anonymous": false,
      "inputs": [
        {
          "indexed": true,
          "internalType": "address",
          "name": "owner",
          "type": "address"
        },
        {
          "indexed": true,
          "internalType": "address",
          "name": "spender",
          "type": "address"
        },
        {
          "indexed": false,
          "internalType": "uint256",
          "name": "value",
          "type": "uint256"
        }
      ],
      "name": "Approval",
      "type": "event"
    },
    {
      "anonymous": false,
      "inputs": [
        {
          "indexed": true,
          "internalType": "string",
          "name": "action",
          "type": "string"
        },
        {
          "indexed": true,
          "internalType": "string",
          "name": "reason",
          "type": "string"
        },
        {
          "indexed": false,
          "internalType": "bytes",
          "name": "data",
          "type": "bytes"
        }
      ],
      "name": "EmergencyAction",
      "type": "event"
    },
    {
      "anonymous": false,
      "inputs": [
        {
          "indexed": true,
          "internalType": "address",
          "name": "from",
          "type": "address"
        },
        {
          "indexed": false,
          "internalType": "uint256",
          "name": "amount",
          "type": "uint256"
        },
        {
          "indexed": false,
          "internalType": "uint256",
          "name": "fee",
          "type": "uint256"
        }
      ],
      "name": "FeeCollected",
      "type": "event"
    },
    {
      "anonymous": false,
      "inputs": [
        {
          "indexed": true,
          "internalType": "uint256",
          "name": "oldFee",
          "type": "uint256"
        },
        {
          "indexed": true,
          "internalType": "uint256",
          "name": "newFee",
          "type": "uint256"
        }
      ],
      "name": "FeeUpdated",
      "type": "event"
    },
    {
      "anonymous": false,
      "inputs": [
        {
          "indexed": true,
          "internalType": "address",
          "name": "oldLoom",
          "type": "address"
        },
        {
          "indexed": true,
          "internalType": "address",
          "name": "newLoom",
          "type": "address"
        }
      ],
      "name": "LoomAddressUpdated",
      "type": "event"
    },
    {
      "anonymous": false,
      "inputs": [
        {
          "indexed": true,
          "internalType": "address",
          "name": "previousOwner",
          "type": "address"
        },
        {
          "indexed": true,
          "internalType": "address",
          "name": "newOwner",
          "type": "address"
        }
      ],
      "name": "OwnershipTransferred",
      "type": "event"
    },
    {
      "anonymous": false,
      "inputs": [
        {
          "indexed": false,
          "internalType": "address",
          "name": "account",
          "type": "address"
        }
      ],
      "name": "Paused",
      "type": "event"
    },
    {
      "anonymous": false,
      "inputs": [
        {
          "indexed": true,
          "internalType": "uint256",
          "name": "phaseId",
          "type": "uint256"
        },
        {
          "indexed": false,
          "internalType": "uint256",
          "name": "apy",
          "type": "uint256"
        }
      ],
      "name": "PhaseScheduleUpdated",
      "type": "event"
    },
    {
      "anonymous": false,
      "inputs": [
        {
          "indexed": true,
          "internalType": "uint256",
          "name": "oldPhase",
          "type": "uint256"
        },
        {
          "indexed": true,
          "internalType": "uint256",
          "name": "newPhase",
          "type": "uint256"
        },
        {
          "indexed": false,
          "internalType": "uint256",
          "name": "newAPY",
          "type": "uint256"
        }
      ],
      "name": "PhaseUpdated",
      "type": "event"
    },
    {
      "anonymous": false,
      "inputs": [
        {
          "indexed": true,
          "internalType": "address",
          "name": "user",
          "type": "address"
        },
        {
          "indexed": false,
          "internalType": "uint256",
          "name": "amount",
          "type": "uint256"
        },
        {
          "indexed": false,
          "internalType": "uint256",
          "name": "lockPeriod",
          "type": "uint256"
        }
      ],
      "name": "Staked",
      "type": "event"
    },
    {
      "anonymous": false,
      "inputs": [
        {
          "indexed": true,
          "internalType": "address",
          "name": "user",
          "type": "address"
        },
        {
          "indexed": false,
          "internalType": "uint256",
          "name": "penaltyAmount",
          "type": "uint256"
        }
      ],
      "name": "StakingViolationPenalized",
      "type": "event"
    },
    {
      "anonymous": false,
      "inputs": [
        {
          "indexed": true,
          "internalType": "address",
          "name": "from",
          "type": "address"
        },
        {
          "indexed": false,
          "internalType": "uint256",
          "name": "amount",
          "type": "uint256"
        }
      ],
      "name": "TokensBurned",
      "type": "event"
    },
    {
      "anonymous": false,
      "inputs": [
        {
          "indexed": true,
          "internalType": "address",
          "name": "to",
          "type": "address"
        },
        {
          "indexed": false,
          "internalType": "uint256",
          "name": "amount",
          "type": "uint256"
        }
      ],
      "name": "TokensMinted",
      "type": "event"
    },
    {
      "anonymous": false,
      "inputs": [
        {
          "indexed": true,
          "internalType": "address",
          "name": "from",
          "type": "address"
        },
        {
          "indexed": true,
          "internalType": "address",
          "name": "to",
          "type": "address"
        },
        {
          "indexed": false,
          "internalType": "uint256",
          "name": "value",
          "type": "uint256"
        }
      ],
      "name": "Transfer",
      "type": "event"
    },
    {
      "anonymous": false,
      "inputs": [],
      "name": "TransfersEnabled",
      "type": "event"
    },
    {
      "anonymous": false,
      "inputs": [],
      "name": "TransfersPermanentlyEnabled",
      "type": "event"
    },
    {
      "anonymous": false,
      "inputs": [
        {
          "indexed": false,
          "internalType": "address",
          "name": "account",
          "type": "address"
        }
      ],
      "name": "Unpaused",
      "type": "event"
    },
    {
      "anonymous": false,
      "inputs": [
        {
          "indexed": true,
          "internalType": "address",
          "name": "user",
          "type": "address"
        },
        {
          "indexed": false,
          "internalType": "uint256",
          "name": "amount",
          "type": "uint256"
        },
        {
          "indexed": false,
          "internalType": "uint256",
          "name": "reward",
          "type": "uint256"
        }
      ],
      "name": "Unstaked",
      "type": "event"
    },
    {
      "inputs": [],
      "name": "DEFAULT_FEE_BPS",
      "outputs": [
        {
          "internalType": "uint256",
          "name": "",
          "type": "uint256"
        }
      ],
      "stateMutability": "view",
      "type": "function"
    },
    {
      "inputs": [],
      "name": "MAX_FEE_BPS",
      "outputs": [
        {
          "internalType": "uint256",
          "name": "",
          "type": "uint256"
        }
      ],
      "stateMutability": "view",
      "type": "function"
    },
    {
      "inputs": [],
      "name": "MIN_LOCK_PERIOD",
      "outputs": [
        {
          "internalType": "uint256",
          "name": "",
          "type": "uint256"
        }
      ],
      "stateMutability": "view",
      "type": "function"
    },
    {
      "inputs": [
        {
          "internalType": "address",
          "name": "owner",
          "type": "address"
        },
        {
          "internalType": "address",
          "name": "spender",
          "type": "address"
        }
      ],
      "name": "allowance",
      "outputs": [
        {
          "internalType": "uint256",
          "name": "",
          "type": "uint256"
        }
      ],
      "stateMutability": "view",
      "type": "function"
    },
    {
      "inputs": [
        {
          "internalType": "address",
          "name": "spender",
          "type": "address"
        },
        {
          "internalType": "uint256",
          "name": "amount",
          "type": "uint256"
        }
      ],
      "name": "approve",
      "outputs": [
        {
          "internalType": "bool",
          "name": "",
          "type": "bool"
        }
      ],
      "stateMutability": "nonpayable",
      "type": "function"
    },
    {
      "inputs": [],
      "name": "authority",
      "outputs": [
        {
          "internalType": "address",
          "name": "",
          "type": "address"
        }
      ],
      "stateMutability": "view",
      "type": "function"
    },
    {
      "inputs": [
        {
          "internalType": "address",
          "name": "account",
          "type": "address"
        }
      ],
      "name": "balanceOf",
      "outputs": [
        {
          "internalType": "uint256",
          "name": "",
          "type": "uint256"
        }
      ],
      "stateMutability": "view",
      "type": "function"
    },
    {
      "inputs": [
        {
          "internalType": "uint256",
          "name": "amount",
          "type": "uint256"
        }
      ],
      "name": "burn",
      "outputs": [],
      "stateMutability": "nonpayable",
      "type": "function"
    },
    {
      "inputs": [
        {
          "internalType": "address",
          "name": "from",
          "type": "address"
        },
        {
          "internalType": "uint256",
          "name": "amount",
          "type": "uint256"
        }
      ],
      "name": "burnFrom",
      "outputs": [],
      "stateMutability": "nonpayable",
      "type": "function"
    },
    {
      "inputs": [
        {
          "internalType": "address",
          "name": "from",
          "type": "address"
        },
        {
          "internalType": "uint256",
          "name": "amount",
          "type": "uint256"
        }
      ],
      "name": "burnFromWithValidation",
      "outputs": [],
      "stateMutability": "nonpayable",
      "type": "function"
    },
    {
      "inputs": [
        {
          "internalType": "address",
          "name": "user",
          "type": "address"
        }
      ],
      "name": "calculateStakingReward",
      "outputs": [
        {
          "internalType": "uint256",
          "name": "",
          "type": "uint256"
        }
      ],
      "stateMutability": "view",
      "type": "function"
    },
    {
      "inputs": [
        {
          "internalType": "address",
          "name": "user",
          "type": "address"
        }
      ],
      "name": "canUnstake",
      "outputs": [
        {
          "internalType": "bool",
          "name": "",
          "type": "bool"
        }
      ],
      "stateMutability": "view",
      "type": "function"
    },
    {
      "inputs": [],
      "name": "currentPhase",
      "outputs": [
        {
          "internalType": "uint256",
          "name": "",
          "type": "uint256"
        }
      ],
      "stateMutability": "view",
      "type": "function"
    },
    {
      "inputs": [],
      "name": "decimals",
      "outputs": [
        {
          "internalType": "uint8",
          "name": "",
          "type": "uint8"
        }
      ],
      "stateMutability": "view",
      "type": "function"
    },
    {
      "inputs": [
        {
          "internalType": "address",
          "name": "spender",
          "type": "address"
        },
        {
          "internalType": "uint256",
          "name": "subtractedValue",
          "type": "uint256"
        }
      ],
      "name": "decreaseAllowance",
      "outputs": [
        {
          "internalType": "bool",
          "name": "",
          "type": "bool"
        }
      ],
      "stateMutability": "nonpayable",
      "type": "function"
    },
    {
      "inputs": [],
      "name": "enableTransfers",
      "outputs": [],
      "stateMutability": "nonpayable",
      "type": "function"
    },
    {
      "inputs": [],
      "name": "feeRecipient",
      "outputs": [
        {
          "internalType": "address",
          "name": "",
          "type": "address"
        }
      ],
      "stateMutability": "view",
      "type": "function"
    },
    {
      "inputs": [],
      "name": "getDeflationMetrics",
      "outputs": [
        {
          "internalType": "uint256",
          "name": "currentSupply",
          "type": "uint256"
        },
        {
          "internalType": "uint256",
          "name": "burned",
          "type": "uint256"
        },
        {
          "internalType": "uint256",
          "name": "staked",
          "type": "uint256"
        }
      ],
      "stateMutability": "view",
      "type": "function"
    },
    {
      "inputs": [
        {
          "internalType": "address",
          "name": "user",
          "type": "address"
        }
      ],
      "name": "getStakeInfo",
      "outputs": [
        {
          "internalType": "uint256",
          "name": "amount",
          "type": "uint256"
        },
        {
          "internalType": "uint256",
          "name": "startTime",
          "type": "uint256"
        },
        {
          "internalType": "uint256",
          "name": "lockPeriod",
          "type": "uint256"
        },
        {
          "internalType": "bool",
          "name": "active",
          "type": "bool"
        }
      ],
      "stateMutability": "view",
      "type": "function"
    },
    {
      "inputs": [
        {
          "internalType": "address",
          "name": "spender",
          "type": "address"
        },
        {
          "internalType": "uint256",
          "name": "addedValue",
          "type": "uint256"
        }
      ],
      "name": "increaseAllowance",
      "outputs": [
        {
          "internalType": "bool",
          "name": "",
          "type": "bool"
        }
      ],
      "stateMutability": "nonpayable",
      "type": "function"
    },
    {
      "inputs": [
        {
          "internalType": "address",
          "name": "to",
          "type": "address"
        },
        {
          "internalType": "uint256",
          "name": "amount",
          "type": "uint256"
        }
      ],
      "name": "mint",
      "outputs": [],
      "stateMutability": "nonpayable",
      "type": "function"
    },
    {
      "inputs": [],
      "name": "name",
      "outputs": [
        {
          "internalType": "string",
          "name": "",
          "type": "string"
        }
      ],
      "stateMutability": "view",
      "type": "function"
    },
    {
      "inputs": [],
      "name": "owner",
      "outputs": [
        {
          "internalType": "address",
          "name": "",
          "type": "address"
        }
      ],
      "stateMutability": "view",
      "type": "function"
    },
    {
      "inputs": [
        {
          "internalType": "string",
          "name": "reason",
          "type": "string"
        }
      ],
      "name": "pause",
      "outputs": [],
      "stateMutability": "nonpayable",
      "type": "function"
    },
    {
      "inputs": [],
      "name": "paused",
      "outputs": [
        {
          "internalType": "bool",
          "name": "",
          "type": "bool"
        }
      ],
      "stateMutability": "view",
      "type": "function"
    },
    {
      "inputs": [
        {
          "internalType": "uint256",
          "name": "",
          "type": "uint256"
        }
      ],
      "name": "phaseAPY",
      "outputs": [
        {
          "internalType": "uint256",
          "name": "",
          "type": "uint256"
        }
      ],
      "stateMutability": "view",
      "type": "function"
    },
    {
      "inputs": [],
      "name": "renounceOwnership",
      "outputs": [],
      "stateMutability": "nonpayable",
      "type": "function"
    },
    {
      "inputs": [
        {
          "internalType": "uint256",
          "name": "phaseId",
          "type": "uint256"
        },
        {
          "internalType": "uint256",
          "name": "apy",
          "type": "uint256"
        }
      ],
      "name": "setPhaseSchedule",
      "outputs": [],
      "stateMutability": "nonpayable",
      "type": "function"
    },
    {
      "inputs": [
        {
          "internalType": "uint256",
          "name": "newFee",
          "type": "uint256"
        }
      ],
      "name": "setTransactionFee",
      "outputs": [],
      "stateMutability": "nonpayable",
      "type": "function"
    },
    {
      "inputs": [
        {
          "internalType": "address",
          "name": "treasury",
          "type": "address"
        }
      ],
      "name": "setTreasuryAddress",
      "outputs": [],
      "stateMutability": "nonpayable",
      "type": "function"
    },
    {
      "inputs": [
        {
          "internalType": "address",
          "name": "loomAddress",
          "type": "address"
        }
      ],
      "name": "setW2ELoomAddress",
      "outputs": [],
      "stateMutability": "nonpayable",
      "type": "function"
    },
    {
      "inputs": [
        {
          "internalType": "uint256",
          "name": "amount",
          "type": "uint256"
        },
        {
          "internalType": "uint256",
          "name": "lockPeriod",
          "type": "uint256"
        }
      ],
      "name": "stake",
      "outputs": [],
      "stateMutability": "nonpayable",
      "type": "function"
    },
    {
      "inputs": [
        {
          "internalType": "address",
          "name": "",
          "type": "address"
        }
      ],
      "name": "stakes",
      "outputs": [
        {
          "internalType": "uint256",
          "name": "amount",
          "type": "uint256"
        },
        {
          "internalType": "uint256",
          "name": "startTime",
          "type": "uint256"
        },
        {
          "internalType": "uint256",
          "name": "lockPeriod",
          "type": "uint256"
        },
        {
          "internalType": "bool",
          "name": "active",
          "type": "bool"
        }
      ],
      "stateMutability": "view",
      "type": "function"
    },
    {
      "inputs": [],
      "name": "symbol",
      "outputs": [
        {
          "internalType": "string",
          "name": "",
          "type": "string"
        }
      ],
      "stateMutability": "view",
      "type": "function"
    },
    {
      "inputs": [],
      "name": "totalBurned",
      "outputs": [
        {
          "internalType": "uint256",
          "name": "",
          "type": "uint256"
        }
      ],
      "stateMutability": "view",
      "type": "function"
    },
    {
      "inputs": [],
      "name": "totalStaked",
      "outputs": [
        {
          "internalType": "uint256",
          "name": "",
          "type": "uint256"
        }
      ],
      "stateMutability": "view",
      "type": "function"
    },
    {
      "inputs": [],
      "name": "totalSupply",
      "outputs": [
        {
          "internalType": "uint256",
          "name": "",
          "type": "uint256"
        }
      ],
      "stateMutability": "view",
      "type": "function"
    },
    {
      "inputs": [],
      "name": "transactionFee",
      "outputs": [
        {
          "internalType": "uint256",
          "name": "",
          "type": "uint256"
        }
      ],
      "stateMutability": "view",
      "type": "function"
    },
    {
      "inputs": [
        {
          "internalType": "address",
          "name": "to",
          "type": "address"
        },
        {
          "internalType": "uint256",
          "name": "amount",
          "type": "uint256"
        }
      ],
      "name": "transfer",
      "outputs": [
        {
          "internalType": "bool",
          "name": "",
          "type": "bool"
        }
      ],
      "stateMutability": "nonpayable",
      "type": "function"
    },
    {
      "inputs": [
        {
          "internalType": "address",
          "name": "newAuthority",
          "type": "address"
        }
      ],
      "name": "transferAuthority",
      "outputs": [],
      "stateMutability": "nonpayable",
      "type": "function"
    },
    {
      "inputs": [
        {
          "internalType": "address",
          "name": "from",
          "type": "address"
        },
        {
          "internalType": "address",
          "name": "to",
          "type": "address"
        },
        {
          "internalType": "uint256",
          "name": "amount",
          "type": "uint256"
        }
      ],
      "name": "transferFrom",
      "outputs": [
        {
          "internalType": "bool",
          "name": "",
          "type": "bool"
        }
      ],
      "stateMutability": "nonpayable",
      "type": "function"
    },
    {
      "inputs": [
        {
          "internalType": "address",
          "name": "newOwner",
          "type": "address"
        }
      ],
      "name": "transferOwnership",
      "outputs": [],
      "stateMutability": "nonpayable",
      "type": "function"
    },
    {
      "inputs": [],
      "name": "transfersEnabled",
      "outputs": [
        {
          "internalType": "bool",
          "name": "",
          "type": "bool"
        }
      ],
      "stateMutability": "view",
      "type": "function"
    },
    {
      "inputs": [],
      "name": "treasuryAddress",
      "outputs": [
        {
          "internalType": "address",
          "name": "",
          "type": "address"
        }
      ],
      "stateMutability": "view",
      "type": "function"
    },
    {
      "inputs": [],
      "name": "unpause",
      "outputs": [],
      "stateMutability": "nonpayable",
      "type": "function"
    },
    {
      "inputs": [],
      "name": "unstake",
      "outputs": [],
      "stateMutability": "nonpayable",
      "type": "function"
    },
    {
      "inputs": [
        {
          "internalType": "uint256",
          "name": "newPhase",
          "type": "uint256"
        }
      ],
      "name": "updatePhase",
      "outputs": [],
      "stateMutability": "nonpayable",
      "type": "function"
    },
    {
      "inputs": [],
      "name": "w2eLoomAddress",
      "outputs": [
        {
          "internalType": "address",
          "name": "",
          "type": "address"
        }
      ],
      "stateMutability": "view",
      "type": "function"
    }
  ],
  "bytecode": "0x60406080815234620005085762002b7790813803806200001f816200050d565b93843982019160c081840312620005085780516001600160401b0391908281116200050857846200005291830162000533565b93602090818301519084821162000508576200007091840162000533565b948483015160ff811680910362000508576060840151620000a260a06200009a60808801620005a5565b9601620005a5565b5082519580871162000408576003968754906001958683811c93168015620004fd575b88841014620004e7578190601f9384811162000491575b5088908483116001146200042a576000926200041e575b5050600019828b1b1c191690861b1788555b895191821162000408576004998a548681811c91168015620003fd575b88821014620003e8579081838594931162000390575b508791831160011462000329576000926200031d575b505060001982891b1c191690841b1788555b600554875192906001600160a01b0390338282167f8be0079c531659141344cd1fd0a4f28419497f9722a3daafe3b4186f6b6457e0600080a36001600160a81b0319163360ff60a01b1916176005556006859055600c859055600e805460ff19908116909155938215158062000311575b15620002d057506103e8968784116200028d57169283156200024a57600d96979899506010541617601055600a5560018060a01b0319908160095416176009553390600b541617600b55600052526101f48360002055600260005282600020556000526107d08160002055516125bc9081620005bb8239f35b885162461bcd60e51b8152808b01879052601a60248201527f5732453a20496e76616c69642066656520726563697069656e740000000000006044820152606490fd5b895162461bcd60e51b8152808c01889052601a60248201527f5732453a204665652063616e6e6f7420657863656564203130250000000000006044820152606490fd5b62461bcd60e51b81528a8101879052601560248201527f5732453a20496e76616c696420646563696d616c7300000000000000000000006044820152606490fd5b506012831115620001d1565b0151905038806200014e565b90869350601f198316918c600052886000209260005b8a82821062000379575050841162000360575b505050811b01885562000160565b0151600019838b1b60f8161c1916905538808062000352565b8385015186558a979095019493840193016200033f565b909192508b600052876000208380860160051c8201928a8710620003de575b9186958a929594930160051c01915b828110620003ce57505062000138565b60008155869550899101620003be565b92508192620003af565b60228c634e487b7160e01b6000525260246000fd5b90607f169062000122565b634e487b7160e01b600052604160045260246000fd5b015190503880620000f3565b90889350601f198316918c6000528a6000209260005b8c8282106200047a575050841162000461575b505050811b01885562000105565b0151600019838d1b60f8161c1916905538808062000453565b8385015186558c9790950194938401930162000440565b9091508a600052886000208480850160051c8201928b8610620004dd575b918a91869594930160051c01915b828110620004cd575050620000dc565b600081558594508a9101620004bd565b92508192620004af565b634e487b7160e01b600052602260045260246000fd5b92607f1692620000c5565b600080fd5b6040519190601f01601f191682016001600160401b038111838210176200040857604052565b919080601f84011215620005085782516001600160401b038111620004085760209062000569601f8201601f191683016200050d565b92818452828287010111620005085760005b8181106200059157508260009394955001015290565b85810183015184820184015282016200057b565b51906001600160a01b0382168203620005085756fe6080604081815260048036101561001557600080fd5b600092833560e01c908163055ad42e146119305750806306fdde031461183b578063095ea7b314611811578063096a8ab7146117785780630b85483b146117515780630d5055411461172457806316934fc4146104bc57806318160ddd1461170557806323b872dd146116c35780632662388f14611693578063299b81d31461158f5780632def66201461144a5780633078db6c146113f8578063313ce567146113d657806333d8262c146113ba578063385dc3df1461139c578063395093511461134c5780633c84187c146111f15780633f4ba83a1461107057806340c10f1914610fe157806342966c6814610efa5780634690484014610ed157806355f2137414610e2d5780635c975abb14610e065780636605bfda14610d795780636da6635514610c0b57806370a0823114610bd4578063715018a614610b7757806379cc679014610ac45780637b0472f014610914578063817b1cd2146108f557806385f4498b1461088c5780638da5cb5b1461086357806395d89b411461074c5780639e05220d146107235780639ed3edf014610704578063a457c2d714610656578063a9059cbb1461060f578063af35c6c714610574578063bef97c8714610550578063bf7e214f14610527578063c3453153146104bc578063c5f956af14610493578063d55be8c614610476578063d89135cd14610457578063dd62ed3e1461040a578063f2fde38b146103445763f82226501461023357600080fd5b346103405760203660031901126103405761024c61198c565b906102556119d3565b60ff600e54166102f3576001600160a01b039182169283156102b0575050600754826001600160601b0360a01b821617600755167fa863b0ab9c9fd113534a73dc48e152501881699e0c41fa017f1036a31b30927b8380a380f35b906020606492519162461bcd60e51b8352820152601960248201527f5732453a20496e76616c6964206c6f6f6d2061646472657373000000000000006044820152fd5b608490602084519162461bcd60e51b8352820152602160248201527f5732453a204c6f6f6d20696d6d757461626c6520616674657220646566656e736044820152606560f81b6064820152fd5b8280fd5b50346103405760203660031901126103405761035e61198c565b906103676119d3565b6001600160a01b039182169283156103b8575050600554826001600160601b0360a01b821617600555167f8be0079c531659141344cd1fd0a4f28419497f9722a3daafe3b4186f6b6457e08380a380f35b906020608492519162461bcd60e51b8352820152602660248201527f4f776e61626c653a206e6577206f776e657220697320746865207a65726f206160448201526564647265737360d01b6064820152fd5b5050346104535780600319360112610453578060209261042861198c565b6104306119a7565b6001600160a01b0391821683526001865283832091168252845220549051908152f35b5080fd5b505034610453578160031936011261045357602090600f549051908152f35b505034610453578160031936011261045357602090516103e88152f35b50503461045357816003193601126104535760085490516001600160a01b039091168152602090f35b505034610453576020366003190112610453579081906001600160a01b036104e261198c565b16815260116020908152919020805460018201546002830154600390930154945191825292810192909252604082015260ff90911615156060820152608090f35b0390f35b505034610453578160031936011261045357600b5490516001600160a01b039091168152602090f35b50503461045357816003193601126104535760209060ff600e541690519015158152f35b503461034057826003193601126103405761058d6119d3565b600e549160ff83166105cc5760ff198316600117600e55837f64b24e474c0604ff69eef97ad79f0e2289f629b871924a58454e35d11f1ca2858180a180f35b906020606492519162461bcd60e51b8352820152601e60248201527f5732453a205472616e736665727320616c726561647920656e61626c656400006044820152fd5b50503461045357806003193601126104535760209061064861062f61198c565b610637611c7f565b61063f611fdd565b602435906122ac565b906001600655519015158152f35b50823461070157826003193601126107015761067061198c565b918360243592338152600160205281812060018060a01b03861682526020522054908282106106b0576020856106a98585038733611aa2565b5160018152f35b608490602086519162461bcd60e51b8352820152602560248201527f45524332303a2064656372656173656420616c6c6f77616e63652062656c6f77604482015264207a65726f60d81b6064820152fd5b80fd5b505034610453578160031936011261045357602090600a549051908152f35b50503461045357816003193601126104535760075490516001600160a01b039091168152602090f35b50913461070157806003193601126107015781519181845492600184811c91818616958615610859575b6020968785108114610846579087899a92868b999a9b52918260001461081c5750506001146107c1575b8588610523896107b2848a0385611a5d565b5192828493845283019061194c565b815286935091907f8a35acfbc15ff81a39ae7d344fd709f28e8600b4aa8c65c6b64bfe7fe36bd19b5b82841061080457505050820101816107b2610523386107a0565b8054848a0186015288955087949093019281016107ea565b60ff19168882015294151560051b870190940194508593506107b2925061052391503890506107a0565b634e487b7160e01b835260228a52602483fd5b92607f1692610776565b50503461045357816003193601126104535760055490516001600160a01b039091168152602090f35b5050346104535760203660031901126104535760209181906001600160a01b036108b461198c565b16815260118452209060ff60038301541691826108d5575b50519015158152f35b6108eb9192506002600182015491015490611a7f565b42101590386108cc565b5050346104535781600319360112610453576020906012549051908152f35b5091903461045357610925366119bd565b610930929192611c7f565b610938611fdd565b610943831515611c33565b338452602084815261095a84848720541015611f84565b3385526011815260ff6003848720015416610a8b57620151808210610a3f57610984843033612024565b82516080810181811067ffffffffffffffff821117610a2c577f1449c6dd7851abc30abf37f57715f492010519147cc2652fbc38202c18a6ee90959697508452858152600382820191428352858101858152606082019360018552338b5260118652878b2092518355516001830155516002820155019051151560ff80198354169116179055610a1685601254611a7f565b60125582519485528401523392a2600160065580f35b634e487b7160e01b875260418852602487fd5b8560849184519162461bcd60e51b8352820152602160248201527f5732453a204d696e696d756d206c6f636b20706572696f6420697320312064616044820152607960f81b6064820152fd5b8560649184519162461bcd60e51b835282015260146024820152735732453a20416c7265616479207374616b696e6760601b6044820152fd5b5050346104535780600319360112610453577ffd38818f5291bf0bb3a2a48aadc06ba8757865d1dabd804585338aab3009dcb66020610b0161198c565b9260243590610b5b8260018060a01b03610b2081600754163314611ba4565b610b28611c7f565b871696610b36881515611bf0565b610b41821515611c33565b878952888652610b5682858b20541015611f84565b611e49565b610b6782600f54611a7f565b600f5551908152a2600160065580f35b8334610701578060031936011261070157610b906119d3565b600580546001600160a01b0319811690915581906001600160a01b03167f8be0079c531659141344cd1fd0a4f28419497f9722a3daafe3b4186f6b6457e08280a380f35b5050346104535760203660031901126104535760209181906001600160a01b03610bfc61198c565b16815280845220549051908152f35b503461034057602036600319011261034057803567ffffffffffffffff91828211610d755736602383011215610d755781810135928311610d75573660248484010111610d7557610c5a6119d3565b6005549060ff8260a01c16610d3c57507ffcb9fcbfa83b897fb2d5cf4b58962164105c1e71489a37ef3ae0db3fdce576f69260247f8916209ed01e256744acae84228532ddef529f5b388ec0986c5abe6f041a442693610d3693610cbc611fdd565b60ff60a01b1916600160a01b1760055586513381527f62e78cea01bee320cd4e420270b5ea74000d11b0c9f74754ebdbfc544b05a25890602090a1865192610d0384611a2b565b88845264504155534560d81b8851528088519384930183378101888152039020945191829160208352602083019061194c565b0390a380f35b606490602086519162461bcd60e51b8352820152601360248201527215cc914e88105b1c9958591e481c185d5cd959606a1b6044820152fd5b8480fd5b503461034057602036600319011261034057610d9361198c565b610d9b6119d3565b6001600160a01b0316918215610dc35750506001600160601b0360a01b600854161760085580f35b906020606492519162461bcd60e51b8352820152601d60248201527f5732453a20496e76616c696420747265617375727920616464726573730000006044820152fd5b50503461045357816003193601126104535760209060ff60055460a01c1690519015158152f35b50903461034057610e3d366119bd565b919092610e5560018060a01b03600b54163314612544565b6113888311610e9857507f7a1c1c5cc66d1c26b268eaa64460db1580dd2f6fef5788f410712c0229fdd55d91602091848652600d8352818187205551908152a280f35b6020606492519162461bcd60e51b835282015260146024820152735732453a2041505920657863656564732035302560601b6044820152fd5b50503461045357816003193601126104535760095490516001600160a01b039091168152602090f35b50903461034057602036600319011261034057813591610f2560018060a01b03600754163314611ba4565b610f2d611c7f565b610f38831515611c33565b30845283602052828285205410610f955750610f548230611e49565b610f6082600f54611a7f565b600f55519081527ffd38818f5291bf0bb3a2a48aadc06ba8757865d1dabd804585338aab3009dcb660203092a2600160065580f35b6020608492519162461bcd60e51b8352820152602160248201527f5732453a20496e73756666696369656e742062616c616e636520746f206275726044820152603760f91b6064820152fd5b5050346104535780600319360112610453577f3f2c9d57c068687834f0de942a9babb9e5acab57d516d3480a3c16ee165a4273602061101e61198c565b92602435906110638260018060a01b0361103d81600754163314611ba4565b611045611c7f565b871696611053881515611bf0565b61105e821515611c33565b611cd5565b51908152a2600160065580f35b50346103405782600319360112610340576110896119d3565b6005549060ff8260a01c161560018115036111bc5761118257507f8916209ed01e256744acae84228532ddef529f5b388ec0986c5abe6f041a4426610d367ff05774ecb620af8f54b837901991e7074289cdcfae56b6abde9dbf45da9cfe35937fe7276a2a84d8de556657ec9cf93a55a7d66f096e529d0582ed08e9e2208b92b59360ff60a01b19166005557f5db9ee0a495bf2e6ff9c91a7834c1ba4fdd244a5e8aa4e537bd38aeae4b073aa60208251338152a180519061114a82611a2b565b86825266554e504155534560c81b8151526d4d616e75616c20756e706175736560901b8151525191829160208352602083019061194c565b606490602084519162461bcd60e51b8352820152601460248201527314185d5cd8589b194e881b9bdd081c185d5cd95960621b6044820152fd5b835162461bcd60e51b8152602081840152600f60248201526e15cc914e88139bdd081c185d5cd959608a1b6044820152606490fd5b503461034057816003193601126103405761120a61198c565b916024359060018060a01b0361122581600754163314611ba4565b61122d611c7f565b84169361123b851515611bf0565b611246831515611c33565b8486526020936011855282872060ff60038201541615908115611331575b50156112ee5750906112a9837f8a0b581a6e3e2361869cc8713e31f12d7f20d644701f25a60abf5b461d3f5a9d959493878952888652610b5682858b20541015611f84565b6112b582600f54611a7f565b600f55847ffd38818f5291bf0bb3a2a48aadc06ba8757865d1dabd804585338aab3009dcb6848351858152a251908152a2600160065580f35b825162461bcd60e51b8152908101859052601e60248201527f5732453a2043616e6e6f74206275726e207374616b656420746f6b656e7300006044820152606490fd5b90505487865261134485858a2054611fd0565b101538611264565b5050346104535780600319360112610453576106a960209261139561136f61198c565b338352600186528483206001600160a01b03821684528652918490205460243590611a7f565b9033611aa2565b50503461045357816003193601126104535760209051620151808152f35b5050346104535781600319360112610453576020905160328152f35b50503461045357816003193601126104535760209060ff601054169051908152f35b83346107015760203660031901126107015761141261198c565b600b54906001600160a01b039061142c3383851614612544565b1690611439821515611bf0565b6001600160a01b03191617600b5580f35b509034610340578260031936011261034057611464611c7f565b61146c611fdd565b338352601160205280832091600383019283549160ff8316156115555761149c6001830154600284015490611a7f565b42106115125750907f7fc4727e062e336010f2c282598ef5f14facb3de68cf8195c2f23e1454b2b74e929154936114d2336121d9565b9160ff191690556114e584601254611fd0565b6012556114f28133611cd5565b6114fd843330612024565b815193845260208401523392a2600160065580f35b606490602085519162461bcd60e51b8352820152601a60248201527f5732453a204c6f636b20706572696f64206e6f7420656e6465640000000000006044820152fd5b606490602085519162461bcd60e51b835282015260146024820152735732453a204e6f20616374697665207374616b6560601b6044820152fd5b50346103405760203660031901126103405760055481359290336001600160a01b0391821614908115611685575b501561164e57600c54918284111561160c575060207f392234b24c1fccbdd050a0e0066e7d84878e005b13a4e7665c671c0fd89e9d479184600c55848652600d8252808620549051908152a380f35b6020606492519162461bcd60e51b8352820152601e60248201527f5732453a204e6577207068617365206d757374206265206772656174657200006044820152fd5b906020606492519162461bcd60e51b8352820152601160248201527015cc914e88155b985d5d1a1bdc9a5e9959607a1b6044820152fd5b9050600754163314386115bd565b50503461045357816003193601126104535760609060025490600f54906012549181519384526020840152820152f35b505034610453576060366003190112610453576020906106486116e461198c565b6116ec6119a7565b6116f4611c7f565b6116fc611fdd565b6044359161236e565b5050346104535781600319360112610453576020906002549051908152f35b5050346104535760203660031901126104535760209061174a61174561198c565b6121d9565b9051908152f35b5034610340576020366003190112610340576020928291358152600d845220549051908152f35b5034610340576020366003190112610340578035916117956119d3565b6103e883116117ce575050600a5481600a557f528d9479e9f9889a87a3c30c7f7ba537e5e59c4c85a37733b16e57c62df613028380a380f35b906020606492519162461bcd60e51b8352820152601a60248201527f5732453a204665652063616e6e6f7420657863656564203130250000000000006044820152fd5b5050346104535780600319360112610453576020906106a961183161198c565b6024359033611aa2565b5091346107015780600319360112610701578151918160035492600184811c91818616958615611926575b6020968785108114610846578899509688969785829a5291826000146118ff5750506001146118a3575b50505061052392916107b2910385611a5d565b9190869350600383527fc2575a0e9e593c00f959f8c92f12db2869c3395a3b0502d05e2516446f71f85b5b8284106118e757505050820101816107b2610523611890565b8054848a0186015288955087949093019281016118ce565b60ff19168782015293151560051b860190930193508492506107b291506105239050611890565b92607f1692611866565b849034610453578160031936011261045357602090600c548152f35b919082519283825260005b848110611978575050826000602080949584010152601f8019910116010190565b602081830181015184830182015201611957565b600435906001600160a01b03821682036119a257565b600080fd5b602435906001600160a01b03821682036119a257565b60409060031901126119a2576004359060243590565b6005546001600160a01b031633036119e757565b606460405162461bcd60e51b815260206004820152602060248201527f4f776e61626c653a2063616c6c6572206973206e6f7420746865206f776e65726044820152fd5b6020810190811067ffffffffffffffff821117611a4757604052565b634e487b7160e01b600052604160045260246000fd5b90601f8019910116810190811067ffffffffffffffff821117611a4757604052565b91908201809211611a8c57565b634e487b7160e01b600052601160045260246000fd5b6001600160a01b03908116918215611b535716918215611b035760207f8c5be1e5ebec7d5bd14f71427d1e84f3dd0314c0f7b2291e5b200ac8c7c3b925918360005260018252604060002085600052825280604060002055604051908152a3565b60405162461bcd60e51b815260206004820152602260248201527f45524332303a20617070726f766520746f20746865207a65726f206164647265604482015261737360f01b6064820152608490fd5b60405162461bcd60e51b8152602060048201526024808201527f45524332303a20617070726f76652066726f6d20746865207a65726f206164646044820152637265737360e01b6064820152608490fd5b15611bab57565b60405162461bcd60e51b815260206004820152601a60248201527f5732453a204e6f7420573245204c6f6f6d20436f6e74726163740000000000006044820152606490fd5b15611bf757565b60405162461bcd60e51b81526020600482015260146024820152735732453a20496e76616c6964206164647265737360601b6044820152606490fd5b15611c3a57565b60405162461bcd60e51b815260206004820152601c60248201527f5732453a20416d6f756e74206d75737420626520706f736974697665000000006044820152606490fd5b600260065414611c90576002600655565b60405162461bcd60e51b815260206004820152601f60248201527f5265656e7472616e637947756172643a207265656e7472616e742063616c6c006044820152606490fd5b6001600160a01b0316908115611e045760ff60055460a01c16611dac5760ff600e54161580611da4575b80611d9c575b611d57577fddf252ad1be2c89b69c2b068fc378daa952ba7f163c4a11628f55a4df523b3ef602082611d3b600094600254611a7f565b60025584845283825260408420818154019055604051908152a3565b60405162461bcd60e51b815260206004820152601e60248201527f5732453a205472616e7366657273206e6f7420656e61626c65642079657400006044820152606490fd5b506001611d05565b506000611cff565b60405162461bcd60e51b815260206004820152602a60248201527f45524332305061757361626c653a20746f6b656e207472616e736665722077686044820152691a5b19481c185d5cd95960b21b6064820152608490fd5b60405162461bcd60e51b815260206004820152601f60248201527f45524332303a206d696e7420746f20746865207a65726f2061646472657373006044820152606490fd5b6001600160a01b03168015611f355760ff60055460a01c16611dac5760ff600e54161580611f2d575b80611f25575b611d5757600091818352826020526040832054818110611ed557817fddf252ad1be2c89b69c2b068fc378daa952ba7f163c4a11628f55a4df523b3ef926020928587528684520360408620558060025403600255604051908152a3565b60405162461bcd60e51b815260206004820152602260248201527f45524332303a206275726e20616d6f756e7420657863656564732062616c616e604482015261636560f01b6064820152608490fd5b506000611e78565b506001611e72565b60405162461bcd60e51b815260206004820152602160248201527f45524332303a206275726e2066726f6d20746865207a65726f206164647265736044820152607360f81b6064820152608490fd5b15611f8b57565b60405162461bcd60e51b815260206004820152601960248201527f5732453a20496e73756666696369656e742062616c616e6365000000000000006044820152606490fd5b91908203918211611a8c57565b60ff60055460a01c16611fec57565b60405162461bcd60e51b815260206004820152601060248201526f14185d5cd8589b194e881c185d5cd95960821b6044820152606490fd5b6001600160a01b0390811691821561217357169182156121225760ff60055460a01c16611dac5760ff600e5416158061211a575b80612112575b611d57576000828152806020526040812054918083106120be57604082827fddf252ad1be2c89b69c2b068fc378daa952ba7f163c4a11628f55a4df523b3ef958760209652828652038282205586815220818154019055604051908152a3565b60405162461bcd60e51b815260206004820152602660248201527f45524332303a207472616e7366657220616d6f756e7420657863656564732062604482015265616c616e636560d01b6064820152608490fd5b50600161205e565b506001612058565b60405162461bcd60e51b815260206004820152602360248201527f45524332303a207472616e7366657220746f20746865207a65726f206164647260448201526265737360e81b6064820152608490fd5b60405162461bcd60e51b815260206004820152602560248201527f45524332303a207472616e736665722066726f6d20746865207a65726f206164604482015264647265737360d81b6064820152608490fd5b81810292918115918404141715611a8c57565b6001600160a01b03166000908152601160205260409020600381015460ff16156122615761224881612215600164496cebb80094015442611fd0565b600c549081600052600d6020526040600020549182159081612256575b5061224c575b6122439192546121c6565b6121c6565b0490565b6101f49150612238565b600191501438612232565b50600090565b1561226e57565b60405162461bcd60e51b815260206004820152601660248201527515cc914e88125b9d985b1a59081c9958da5c1a595b9d60521b6044820152606490fd5b6001600160a01b036122c18282161515612267565b600a54151580612360575b80612352575b156123415761230b906127106122ea600a54866121c6565b0492612305846122fa8188611fd0565b936009541633612024565b33612024565b60405191825260208201527f108516ddcf5ba43cea6bb2cd5ff6d59ac196c1c86ccb9178332b9dd72d1ca56160403392a2600190565b509061234d9133612024565b600190565b5080600854163314156122d2565b5080600754163314156122cc565b6001600160a01b03926123848385161515612267565b600a54151580612534575b80612524575b1561248f576127106123a9600a54836121c6565b046123b48183611fd0565b946123c482826009541686612024565b8316948560005260016020526040600020336000526020526040600020549083821061243b577f108516ddcf5ba43cea6bb2cd5ff6d59ac196c1c86ccb9178332b9dd72d1ca5619560409561242661241f8761242b96611fd0565b3383611aa2565b612024565b82519182526020820152a2600190565b60405162461bcd60e51b815260206004820152602660248201527f5732453a205472616e7366657220616d6f756e74206578636565647320616c6c6044820152656f77616e636560d01b6064820152608490fd5b919092831660005260016020526040600020336000526020526040600020549260001984036124c3575b61234d9350612024565b8284106124df576124da8361234d95033383611aa2565b6124b9565b60405162461bcd60e51b815260206004820152601d60248201527f45524332303a20696e73756666696369656e7420616c6c6f77616e63650000006044820152606490fd5b5083600854168483161415612395565b508360075416848316141561238f565b1561254b57565b60405162461bcd60e51b81526020600482015260136024820152725732453a204f6e6c7920417574686f7269747960681b6044820152606490fdfea2646970667358221220b7365b98e7c1af860750097525dcb9d2391a5be5635d7f1c2954077d4acf12bd64736f6c63430008140033",
  "linkReferences": {},
  "deployedLinkReferences": {}
}