{
  "_format": "hh-sol-artifact-1",
  "abi": [
    {
      "type": "constructor",
      "inputs": [
        {
          "name": "name",
          "type": "string",
          "internalType": "string"
        },
        {
          "name": "symbol",
          "type": "string",
          "internalType": "string"
        },
        {
          "name": "initialDecimals",
          "type": "uint8",
          "internalType": "uint8"
        },
        {
          "name": "_transactionFee",
          "type": "uint256",
          "internalType": "uint256"
        },
        {
          "name": "_feeRecipient",
          "type": "address",
          "internalType": "address"
        },
        {
          "name": "initialOwner",
          "type": "address",
          "internalType": "address"
        }
      ],
      "stateMutability": "nonpayable"
    },
    {
      "type": "function",
      "name": "DEFAULT_FEE_BPS",
      "inputs": [],
      "outputs": [
        {
          "name": "",
          "type": "uint256",
          "internalType": "uint256"
        }
      ],
      "stateMutability": "view"
    },
    {
      "type": "function",
      "name": "MAX_FEE_BPS",
      "inputs": [],
      "outputs": [
        {
          "name": "",
          "type": "uint256",
          "internalType": "uint256"
        }
      ],
      "stateMutability": "view"
    },
    {
      "type": "function",
      "name": "MIN_LOCK_PERIOD",
      "inputs": [],
      "outputs": [
        {
          "name": "",
          "type": "uint256",
          "internalType": "uint256"
        }
      ],
      "stateMutability": "view"
    },
    {
      "type": "function",
      "name": "allowance",
      "inputs": [
        {
          "name": "owner",
          "type": "address",
          "internalType": "address"
        },
        {
          "name": "spender",
          "type": "address",
          "internalType": "address"
        }
      ],
      "outputs": [
        {
          "name": "",
          "type": "uint256",
          "internalType": "uint256"
        }
      ],
      "stateMutability": "view"
    },
    {
      "type": "function",
      "name": "approve",
      "inputs": [
        {
          "name": "spender",
          "type": "address",
          "internalType": "address"
        },
        {
          "name": "amount",
          "type": "uint256",
          "internalType": "uint256"
        }
      ],
      "outputs": [
        {
          "name": "",
          "type": "bool",
          "internalType": "bool"
        }
      ],
      "stateMutability": "nonpayable"
    },
    {
      "type": "function",
      "name": "authority",
      "inputs": [],
      "outputs": [
        {
          "name": "",
          "type": "address",
          "internalType": "address"
        }
      ],
      "stateMutability": "view"
    },
    {
      "type": "function",
      "name": "balanceOf",
      "inputs": [
        {
          "name": "account",
          "type": "address",
          "internalType": "address"
        }
      ],
      "outputs": [
        {
          "name": "",
          "type": "uint256",
          "internalType": "uint256"
        }
      ],
      "stateMutability": "view"
    },
    {
      "type": "function",
      "name": "burn",
      "inputs": [
        {
          "name": "amount",
          "type": "uint256",
          "internalType": "uint256"
        }
      ],
      "outputs": [],
      "stateMutability": "nonpayable"
    },
    {
      "type": "function",
      "name": "burnFrom",
      "inputs": [
        {
          "name": "from",
          "type": "address",
          "internalType": "address"
        },
        {
          "name": "amount",
          "type": "uint256",
          "internalType": "uint256"
        }
      ],
      "outputs": [],
      "stateMutability": "nonpayable"
    },
    {
      "type": "function",
      "name": "burnFromWithValidation",
      "inputs": [
        {
          "name": "from",
          "type": "address",
          "internalType": "address"
        },
        {
          "name": "amount",
          "type": "uint256",
          "internalType": "uint256"
        }
      ],
      "outputs": [],
      "stateMutability": "nonpayable"
    },
    {
      "type": "function",
      "name": "calculateStakingReward",
      "inputs": [
        {
          "name": "user",
          "type": "address",
          "internalType": "address"
        }
      ],
      "outputs": [
        {
          "name": "",
          "type": "uint256",
          "internalType": "uint256"
        }
      ],
      "stateMutability": "view"
    },
    {
      "type": "function",
      "name": "canUnstake",
      "inputs": [
        {
          "name": "user",
          "type": "address",
          "internalType": "address"
        }
      ],
      "outputs": [
        {
          "name": "",
          "type": "bool",
          "internalType": "bool"
        }
      ],
      "stateMutability": "view"
    },
    {
      "type": "function",
      "name": "currentPhase",
      "inputs": [],
      "outputs": [
        {
          "name": "",
          "type": "uint256",
          "internalType": "uint256"
        }
      ],
      "stateMutability": "view"
    },
    {
      "type": "function",
      "name": "decimals",
      "inputs": [],
      "outputs": [
        {
          "name": "",
          "type": "uint8",
          "internalType": "uint8"
        }
      ],
      "stateMutability": "view"
    },
    {
      "type": "function",
      "name": "decreaseAllowance",
      "inputs": [
        {
          "name": "spender",
          "type": "address",
          "internalType": "address"
        },
        {
          "name": "subtractedValue",
          "type": "uint256",
          "internalType": "uint256"
        }
      ],
      "outputs": [
        {
          "name": "",
          "type": "bool",
          "internalType": "bool"
        }
      ],
      "stateMutability": "nonpayable"
    },
    {
      "type": "function",
      "name": "enableTransfers",
      "inputs": [],
      "outputs": [],
      "stateMutability": "nonpayable"
    },
    {
      "type": "function",
      "name": "feeRecipient",
      "inputs": [],
      "outputs": [
        {
          "name": "",
          "type": "address",
          "internalType": "address"
        }
      ],
      "stateMutability": "view"
    },
    {
      "type": "function",
      "name": "getDeflationMetrics",
      "inputs": [],
      "outputs": [
        {
          "name": "currentSupply",
          "type": "uint256",
          "internalType": "uint256"
        },
        {
          "name": "burned",
          "type": "uint256",
          "internalType": "uint256"
        },
        {
          "name": "staked",
          "type": "uint256",
          "internalType": "uint256"
        }
      ],
      "stateMutability": "view"
    },
    {
      "type": "function",
      "name": "getStakeInfo",
      "inputs": [
        {
          "name": "user",
          "type": "address",
          "internalType": "address"
        }
      ],
      "outputs": [
        {
          "name": "amount",
          "type": "uint256",
          "internalType": "uint256"
        },
        {
          "name": "startTime",
          "type": "uint256",
          "internalType": "uint256"
        },
        {
          "name": "lockPeriod",
          "type": "uint256",
          "internalType": "uint256"
        },
        {
          "name": "active",
          "type": "bool",
          "internalType": "bool"
        }
      ],
      "stateMutability": "view"
    },
    {
      "type": "function",
      "name": "increaseAllowance",
      "inputs": [
        {
          "name": "spender",
          "type": "address",
          "internalType": "address"
        },
        {
          "name": "addedValue",
          "type": "uint256",
          "internalType": "uint256"
        }
      ],
      "outputs": [
        {
          "name": "",
          "type": "bool",
          "internalType": "bool"
        }
      ],
      "stateMutability": "nonpayable"
    },
    {
      "type": "function",
      "name": "mint",
      "inputs": [
        {
          "name": "to",
          "type": "address",
          "internalType": "address"
        },
        {
          "name": "amount",
          "type": "uint256",
          "internalType": "uint256"
        }
      ],
      "outputs": [],
      "stateMutability": "nonpayable"
    },
    {
      "type": "function",
      "name": "name",
      "inputs": [],
      "outputs": [
        {
          "name": "",
          "type": "string",
          "internalType": "string"
        }
      ],
      "stateMutability": "view"
    },
    {
      "type": "function",
      "name": "owner",
      "inputs": [],
      "outputs": [
        {
          "name": "",
          "type": "address",
          "internalType": "address"
        }
      ],
      "stateMutability": "view"
    },
    {
      "type": "function",
      "name": "pause",
      "inputs": [
        {
          "name": "reason",
          "type": "string",
          "internalType": "string"
        }
      ],
      "outputs": [],
      "stateMutability": "nonpayable"
    },
    {
      "type": "function",
      "name": "paused",
      "inputs": [],
      "outputs": [
        {
          "name": "",
          "type": "bool",
          "internalType": "bool"
        }
      ],
      "stateMutability": "view"
    },
    {
      "type": "function",
      "name": "phaseAPY",
      "inputs": [
        {
          "name": "",
          "type": "uint256",
          "internalType": "uint256"
        }
      ],
      "outputs": [
        {
          "name": "",
          "type": "uint256",
          "internalType": "uint256"
        }
      ],
      "stateMutability": "view"
    },
    {
      "type": "function",
      "name": "renounceOwnership",
      "inputs": [],
      "outputs": [],
      "stateMutability": "nonpayable"
    },
    {
      "type": "function",
      "name": "setPhaseSchedule",
      "inputs": [
        {
          "name": "phaseId",
          "type": "uint256",
          "internalType": "uint256"
        },
        {
          "name": "apy",
          "type": "uint256",
          "internalType": "uint256"
        }
      ],
      "outputs": [],
      "stateMutability": "nonpayable"
    },
    {
      "type": "function",
      "name": "setTransactionFee",
      "inputs": [
        {
          "name": "newFee",
          "type": "uint256",
          "internalType": "uint256"
        }
      ],
      "outputs": [],
      "stateMutability": "nonpayable"
    },
    {
      "type": "function",
      "name": "setTreasuryAddress",
      "inputs": [
        {
          "name": "treasury",
          "type": "address",
          "internalType": "address"
        }
      ],
      "outputs": [],
      "stateMutability": "nonpayable"
    },
    {
      "type": "function",
      "name": "setW2ELoomAddress",
      "inputs": [
        {
          "name": "loomAddress",
          "type": "address",
          "internalType": "address"
        }
      ],
      "outputs": [],
      "stateMutability": "nonpayable"
    },
    {
      "type": "function",
      "name": "stake",
      "inputs": [
        {
          "name": "amount",
          "type": "uint256",
          "internalType": "uint256"
        },
        {
          "name": "lockPeriod",
          "type": "uint256",
          "internalType": "uint256"
        }
      ],
      "outputs": [],
      "stateMutability": "nonpayable"
    },
    {
      "type": "function",
      "name": "stakes",
      "inputs": [
        {
          "name": "",
          "type": "address",
          "internalType": "address"
        }
      ],
      "outputs": [
        {
          "name": "amount",
          "type": "uint256",
          "internalType": "uint256"
        },
        {
          "name": "startTime",
          "type": "uint256",
          "internalType": "uint256"
        },
        {
          "name": "lockPeriod",
          "type": "uint256",
          "internalType": "uint256"
        },
        {
          "name": "active",
          "type": "bool",
          "internalType": "bool"
        }
      ],
      "stateMutability": "view"
    },
    {
      "type": "function",
      "name": "symbol",
      "inputs": [],
      "outputs": [
        {
          "name": "",
          "type": "string",
          "internalType": "string"
        }
      ],
      "stateMutability": "view"
    },
    {
      "type": "function",
      "name": "totalBurned",
      "inputs": [],
      "outputs": [
        {
          "name": "",
          "type": "uint256",
          "internalType": "uint256"
        }
      ],
      "stateMutability": "view"
    },
    {
      "type": "function",
      "name": "totalStaked",
      "inputs": [],
      "outputs": [
        {
          "name": "",
          "type": "uint256",
          "internalType": "uint256"
        }
      ],
      "stateMutability": "view"
    },
    {
      "type": "function",
      "name": "totalSupply",
      "inputs": [],
      "outputs": [
        {
          "name": "",
          "type": "uint256",
          "internalType": "uint256"
        }
      ],
      "stateMutability": "view"
    },
    {
      "type": "function",
      "name": "transactionFee",
      "inputs": [],
      "outputs": [
        {
          "name": "",
          "type": "uint256",
          "internalType": "uint256"
        }
      ],
      "stateMutability": "view"
    },
    {
      "type": "function",
      "name": "transfer",
      "inputs": [
        {
          "name": "to",
          "type": "address",
          "internalType": "address"
        },
        {
          "name": "amount",
          "type": "uint256",
          "internalType": "uint256"
        }
      ],
      "outputs": [
        {
          "name": "",
          "type": "bool",
          "internalType": "bool"
        }
      ],
      "stateMutability": "nonpayable"
    },
    {
      "type": "function",
      "name": "transferAuthority",
      "inputs": [
        {
          "name": "newAuthority",
          "type": "address",
          "internalType": "address"
        }
      ],
      "outputs": [],
      "stateMutability": "nonpayable"
    },
    {
      "type": "function",
      "name": "transferFrom",
      "inputs": [
        {
          "name": "from",
          "type": "address",
          "internalType": "address"
        },
        {
          "name": "to",
          "type": "address",
          "internalType": "address"
        },
        {
          "name": "amount",
          "type": "uint256",
          "internalType": "uint256"
        }
      ],
      "outputs": [
        {
          "name": "",
          "type": "bool",
          "internalType": "bool"
        }
      ],
      "stateMutability": "nonpayable"
    },
    {
      "type": "function",
      "name": "transferOwnership",
      "inputs": [
        {
          "name": "newOwner",
          "type": "address",
          "internalType": "address"
        }
      ],
      "outputs": [],
      "stateMutability": "nonpayable"
    },
    {
      "type": "function",
      "name": "transfersEnabled",
      "inputs": [],
      "outputs": [
        {
          "name": "",
          "type": "bool",
          "internalType": "bool"
        }
      ],
      "stateMutability": "view"
    },
    {
      "type": "function",
      "name": "treasuryAddress",
      "inputs": [],
      "outputs": [
        {
          "name": "",
          "type": "address",
          "internalType": "address"
        }
      ],
      "stateMutability": "view"
    },
    {
      "type": "function",
      "name": "unpause",
      "inputs": [],
      "outputs": [],
      "stateMutability": "nonpayable"
    },
    {
      "type": "function",
      "name": "unstake",
      "inputs": [],
      "outputs": [],
      "stateMutability": "nonpayable"
    },
    {
      "type": "function",
      "name": "updatePhase",
      "inputs": [
        {
          "name": "newPhase",
          "type": "uint256",
          "internalType": "uint256"
        }
      ],
      "outputs": [],
      "stateMutability": "nonpayable"
    },
    {
      "type": "function",
      "name": "w2eLoomAddress",
      "inputs": [],
      "outputs": [
        {
          "name": "",
          "type": "address",
          "internalType": "address"
        }
      ],
      "stateMutability": "view"
    },
    {
      "type": "event",
      "name": "Approval",
      "inputs": [
        {
          "name": "owner",
          "type": "address",
          "indexed": true,
          "internalType": "address"
        },
        {
          "name": "spender",
          "type": "address",
          "indexed": true,
          "internalType": "address"
        },
        {
          "name": "value",
          "type": "uint256",
          "indexed": false,
          "internalType": "uint256"
        }
      ],
      "anonymous": false
    },
    {
      "type": "event",
      "name": "EmergencyAction",
      "inputs": [
        {
          "name": "action",
          "type": "string",
          "indexed": true,
          "internalType": "string"
        },
        {
          "name": "reason",
          "type": "string",
          "indexed": true,
          "internalType": "string"
        },
        {
          "name": "data",
          "type": "bytes",
          "indexed": false,
          "internalType": "bytes"
        }
      ],
      "anonymous": false
    },
    {
      "type": "event",
      "name": "FeeCollected",
      "inputs": [
        {
          "name": "from",
          "type": "address",
          "indexed": true,
          "internalType": "address"
        },
        {
          "name": "amount",
          "type": "uint256",
          "indexed": false,
          "internalType": "uint256"
        },
        {
          "name": "fee",
          "type": "uint256",
          "indexed": false,
          "internalType": "uint256"
        }
      ],
      "anonymous": false
    },
    {
      "type": "event",
      "name": "FeeUpdated",
      "inputs": [
        {
          "name": "oldFee",
          "type": "uint256",
          "indexed": true,
          "internalType": "uint256"
        },
        {
          "name": "newFee",
          "type": "uint256",
          "indexed": true,
          "internalType": "uint256"
        }
      ],
      "anonymous": false
    },
    {
      "type": "event",
      "name": "LoomAddressUpdated",
      "inputs": [
        {
          "name": "oldLoom",
          "type": "address",
          "indexed": true,
          "internalType": "address"
        },
        {
          "name": "newLoom",
          "type": "address",
          "indexed": true,
          "internalType": "address"
        }
      ],
      "anonymous": false
    },
    {
      "type": "event",
      "name": "OwnershipTransferred",
      "inputs": [
        {
          "name": "previousOwner",
          "type": "address",
          "indexed": true,
          "internalType": "address"
        },
        {
          "name": "newOwner",
          "type": "address",
          "indexed": true,
          "internalType": "address"
        }
      ],
      "anonymous": false
    },
    {
      "type": "event",
      "name": "Paused",
      "inputs": [
        {
          "name": "account",
          "type": "address",
          "indexed": false,
          "internalType": "address"
        }
      ],
      "anonymous": false
    },
    {
      "type": "event",
      "name": "PhaseScheduleUpdated",
      "inputs": [
        {
          "name": "phaseId",
          "type": "uint256",
          "indexed": true,
          "internalType": "uint256"
        },
        {
          "name": "apy",
          "type": "uint256",
          "indexed": false,
          "internalType": "uint256"
        }
      ],
      "anonymous": false
    },
    {
      "type": "event",
      "name": "PhaseUpdated",
      "inputs": [
        {
          "name": "oldPhase",
          "type": "uint256",
          "indexed": true,
          "internalType": "uint256"
        },
        {
          "name": "newPhase",
          "type": "uint256",
          "indexed": true,
          "internalType": "uint256"
        },
        {
          "name": "newAPY",
          "type": "uint256",
          "indexed": false,
          "internalType": "uint256"
        }
      ],
      "anonymous": false
    },
    {
      "type": "event",
      "name": "Staked",
      "inputs": [
        {
          "name": "user",
          "type": "address",
          "indexed": true,
          "internalType": "address"
        },
        {
          "name": "amount",
          "type": "uint256",
          "indexed": false,
          "internalType": "uint256"
        },
        {
          "name": "lockPeriod",
          "type": "uint256",
          "indexed": false,
          "internalType": "uint256"
        }
      ],
      "anonymous": false
    },
    {
      "type": "event",
      "name": "StakingViolationPenalized",
      "inputs": [
        {
          "name": "user",
          "type": "address",
          "indexed": true,
          "internalType": "address"
        },
        {
          "name": "penaltyAmount",
          "type": "uint256",
          "indexed": false,
          "internalType": "uint256"
        }
      ],
      "anonymous": false
    },
    {
      "type": "event",
      "name": "TokensBurned",
      "inputs": [
        {
          "name": "from",
          "type": "address",
          "indexed": true,
          "internalType": "address"
        },
        {
          "name": "amount",
          "type": "uint256",
          "indexed": false,
          "internalType": "uint256"
        }
      ],
      "anonymous": false
    },
    {
      "type": "event",
      "name": "TokensMinted",
      "inputs": [
        {
          "name": "to",
          "type": "address",
          "indexed": true,
          "internalType": "address"
        },
        {
          "name": "amount",
          "type": "uint256",
          "indexed": false,
          "internalType": "uint256"
        }
      ],
      "anonymous": false
    },
    {
      "type": "event",
      "name": "Transfer",
      "inputs": [
        {
          "name": "from",
          "type": "address",
          "indexed": true,
          "internalType": "address"
        },
        {
          "name": "to",
          "type": "address",
          "indexed": true,
          "internalType": "address"
        },
        {
          "name": "value",
          "type": "uint256",
          "indexed": false,
          "internalType": "uint256"
        }
      ],
      "anonymous": false
    },
    {
      "type": "event",
      "name": "TransfersEnabled",
      "inputs": [],
      "anonymous": false
    },
    {
      "type": "event",
      "name": "TransfersPermanentlyEnabled",
      "inputs": [],
      "anonymous": false
    },
    {
      "type": "event",
      "name": "Unpaused",
      "inputs": [
        {
          "name": "account",
          "type": "address",
          "indexed": false,
          "internalType": "address"
        }
      ],
      "anonymous": false
    },
    {
      "type": "event",
      "name": "Unstaked",
      "inputs": [
        {
          "name": "user",
          "type": "address",
          "indexed": true,
          "internalType": "address"
        },
        {
          "name": "amount",
          "type": "uint256",
          "indexed": false,
          "internalType": "uint256"
        },
        {
          "name": "reward",
          "type": "uint256",
          "indexed": false,
          "internalType": "uint256"
        }
      ],
      "anonymous": false
    }
  ],
  "bytecode": {
    "object": "0x60406080815234620004e95762002b3390813803806200001f81620004ed565b93843982019160c081840312620004e95780516001600160401b039190828111620004e957846200005291830162000513565b936020908183015190848211620004e9576200007091840162000513565b948483015160ff8116809103620004e9576060840151620000a260a06200009a6080880162000583565b960162000583565b50825195808711620003f4576003968754906001958683811c93168015620004de575b88841014620004ca578190601f9384811162000477575b50889084831160011462000414575f9262000408575b50505f19828b1b1c191690861b1788555b8951918211620003f4576004998a548681811c91168015620003e9575b88821014620003d6579081838594931162000381575b50879183116001146200031e575f9262000312575b50505f1982891b1c191690841b1788555b600554875192906001600160a01b0390338282167f8be0079c531659141344cd1fd0a4f28419497f9722a3daafe3b4186f6b6457e05f80a36001600160a81b0319163360ff60a01b1916176005556006859055600c859055600e805460ff19908116909155938215158062000306575b15620002c557506103e8968784116200028257169283156200023f57600d96979899506010541617601055600a5560018060a01b0319908160095416176009553390600b541617600b555f52526101f4835f205560025f52825f20555f526107d0815f20555161259a9081620005998239f35b885162461bcd60e51b8152808b01879052601a60248201527f5732453a20496e76616c69642066656520726563697069656e740000000000006044820152606490fd5b895162461bcd60e51b8152808c01889052601a60248201527f5732453a204665652063616e6e6f7420657863656564203130250000000000006044820152606490fd5b62461bcd60e51b81528a8101879052601560248201527f5732453a20496e76616c696420646563696d616c7300000000000000000000006044820152606490fd5b506012831115620001cc565b015190505f806200014b565b90869350601f198316918c5f52885f20925f5b8a8282106200036a575050841162000352575b505050811b0188556200015c565b01515f19838b1b60f8161c191690555f808062000344565b8385015186558a9790950194938401930162000331565b909192508b5f52875f208380860160051c8201928a8710620003cc575b9186958a929594930160051c01915b828110620003bd57505062000136565b5f8155869550899101620003ad565b925081926200039e565b60228c634e487b7160e01b5f525260245ffd5b90607f169062000120565b634e487b7160e01b5f52604160045260245ffd5b015190505f80620000f2565b90889350601f198316918c5f528a5f20925f5b8c82821062000460575050841162000448575b505050811b01885562000103565b01515f19838d1b60f8161c191690555f80806200043a565b8385015186558c9790950194938401930162000427565b9091508a5f52885f208480850160051c8201928b8610620004c0575b918a91869594930160051c01915b828110620004b1575050620000dc565b5f81558594508a9101620004a1565b9250819262000493565b634e487b7160e01b5f52602260045260245ffd5b92607f1692620000c5565b5f80fd5b6040519190601f01601f191682016001600160401b03811183821017620003f457604052565b919080601f84011215620004e95782516001600160401b038111620003f45760209062000549601f8201601f19168301620004ed565b92818452828287010111620004e9575f5b8181106200056f5750825f9394955001015290565b85810183015184820184015282016200055a565b51906001600160a01b0382168203620004e95756fe60806040818152600480361015610014575f80fd5b5f92833560e01c908163055ad42e1461192b5750806306fdde0314611837578063095ea7b31461180d578063096a8ab7146117745780630b85483b1461174d5780630d5055411461172057806316934fc4146104b957806318160ddd1461170157806323b872dd146116bf5780632662388f1461168f578063299b81d31461158b5780632def6620146114465780633078db6c146113f4578063313ce567146113d257806333d8262c146113b6578063385dc3df1461139857806339509351146113485780633c84187c146111ed5780633f4ba83a1461106c57806340c10f1914610fdd57806342966c6814610ef65780634690484014610ecd57806355f2137414610e295780635c975abb14610e025780636605bfda14610d755780636da6635514610c0757806370a0823114610bd0578063715018a614610b7357806379cc679014610ac05780637b0472f014610910578063817b1cd2146108f157806385f4498b146108885780638da5cb5b1461085f57806395d89b41146107495780639e05220d146107205780639ed3edf014610701578063a457c2d714610653578063a9059cbb1461060c578063af35c6c714610571578063bef97c871461054d578063bf7e214f14610524578063c3453153146104b9578063c5f956af14610490578063d55be8c614610473578063d89135cd14610454578063dd62ed3e14610407578063f2fde38b146103415763f822265014610230575f80fd5b3461033d57602036600319011261033d57610249611985565b90610252611f25565b60ff600e54166102f0576001600160a01b039182169283156102ad575050600754826001600160601b0360a01b821617600755167fa863b0ab9c9fd113534a73dc48e152501881699e0c41fa017f1036a31b30927b8380a380f35b906020606492519162461bcd60e51b8352820152601960248201527f5732453a20496e76616c6964206c6f6f6d2061646472657373000000000000006044820152fd5b608490602084519162461bcd60e51b8352820152602160248201527f5732453a204c6f6f6d20696d6d757461626c6520616674657220646566656e736044820152606560f81b6064820152fd5b8280fd5b503461033d57602036600319011261033d5761035b611985565b90610364611f25565b6001600160a01b039182169283156103b5575050600554826001600160601b0360a01b821617600555167f8be0079c531659141344cd1fd0a4f28419497f9722a3daafe3b4186f6b6457e08380a380f35b906020608492519162461bcd60e51b8352820152602660248201527f4f776e61626c653a206e6577206f776e657220697320746865207a65726f206160448201526564647265737360d01b6064820152fd5b50503461045057806003193601126104505780602092610425611985565b61042d61199f565b6001600160a01b0391821683526001865283832091168252845220549051908152f35b5080fd5b505034610450578160031936011261045057602090600f549051908152f35b505034610450578160031936011261045057602090516103e88152f35b50503461045057816003193601126104505760085490516001600160a01b039091168152602090f35b505034610450576020366003190112610450579081906001600160a01b036104df611985565b16815260116020908152919020805460018201546002830154600390930154945191825292810192909252604082015260ff90911615156060820152608090f35b0390f35b505034610450578160031936011261045057600b5490516001600160a01b039091168152602090f35b50503461045057816003193601126104505760209060ff600e541690519015158152f35b503461033d578260031936011261033d5761058a611f25565b600e549160ff83166105c95760ff198316600117600e55837f64b24e474c0604ff69eef97ad79f0e2289f629b871924a58454e35d11f1ca2858180a180f35b906020606492519162461bcd60e51b8352820152601e60248201527f5732453a205472616e736665727320616c726561647920656e61626c656400006044820152fd5b50503461045057806003193601126104505760209061064561062c611985565b610634611fc4565b61063c611f7d565b60243590611c54565b906001600655519015158152f35b5082346106fe57826003193601126106fe5761066d611985565b918360243592338152600160205281812060018060a01b03861682526020522054908282106106ad576020856106a68585038733612466565b5160018152f35b608490602086519162461bcd60e51b8352820152602560248201527f45524332303a2064656372656173656420616c6c6f77616e63652062656c6f77604482015264207a65726f60d81b6064820152fd5b80fd5b505034610450578160031936011261045057602090600a549051908152f35b50503461045057816003193601126104505760075490516001600160a01b039091168152602090f35b5091346106fe57806003193601126106fe5781519181845492600184811c91818616958615610855575b6020968785108114610842579087899a92868b999a9b5291825f146108185750506001146107bd575b8588610520896107ae848a0385611b50565b51928284938452830190611947565b815286935091907f8a35acfbc15ff81a39ae7d344fd709f28e8600b4aa8c65c6b64bfe7fe36bd19b5b82841061080057505050820101816107ae6105205f61079c565b8054848a0186015288955087949093019281016107e6565b60ff19168882015294151560051b870190940194508593506107ae925061052091505f905061079c565b634e487b7160e01b835260228a52602483fd5b92607f1692610773565b50503461045057816003193601126104505760055490516001600160a01b039091168152602090f35b5050346104505760203660031901126104505760209181906001600160a01b036108b0611985565b16815260118452209060ff60038301541691826108d1575b50519015158152f35b6108e79192506002600182015491015490611aa6565b421015905f6108c8565b5050346104505781600319360112610450576020906012549051908152f35b5091903461045057610921366119b5565b61092c929192611fc4565b610934611f7d565b61093f831515611a5a565b338452602084815261095684848720541015611ac7565b3385526011815260ff6003848720015416610a8757620151808210610a3b5761098084303361201a565b82516080810181811067ffffffffffffffff821117610a28577f1449c6dd7851abc30abf37f57715f492010519147cc2652fbc38202c18a6ee90959697508452858152600382820191428352858101858152606082019360018552338b5260118652878b2092518355516001830155516002820155019051151560ff80198354169116179055610a1285601254611aa6565b60125582519485528401523392a2600160065580f35b634e487b7160e01b875260418852602487fd5b8560849184519162461bcd60e51b8352820152602160248201527f5732453a204d696e696d756d206c6f636b20706572696f6420697320312064616044820152607960f81b6064820152fd5b8560649184519162461bcd60e51b835282015260146024820152735732453a20416c7265616479207374616b696e6760601b6044820152fd5b5050346104505780600319360112610450577ffd38818f5291bf0bb3a2a48aadc06ba8757865d1dabd804585338aab3009dcb66020610afd611985565b9260243590610b578260018060a01b03610b1c816007541633146119cb565b610b24611fc4565b871696610b32881515611a17565b610b3d821515611a5a565b878952888652610b5282858b20541015611ac7565b61232d565b610b6382600f54611aa6565b600f5551908152a2600160065580f35b83346106fe57806003193601126106fe57610b8c611f25565b600580546001600160a01b0319811690915581906001600160a01b03167f8be0079c531659141344cd1fd0a4f28419497f9722a3daafe3b4186f6b6457e08280a380f35b5050346104505760203660031901126104505760209181906001600160a01b03610bf8611985565b16815280845220549051908152f35b503461033d57602036600319011261033d57803567ffffffffffffffff91828211610d715736602383011215610d715781810135928311610d71573660248484010111610d7157610c56611f25565b6005549060ff8260a01c16610d3857507ffcb9fcbfa83b897fb2d5cf4b58962164105c1e71489a37ef3ae0db3fdce576f69260247f8916209ed01e256744acae84228532ddef529f5b388ec0986c5abe6f041a442693610d3293610cb8611f7d565b60ff60a01b1916600160a01b1760055586513381527f62e78cea01bee320cd4e420270b5ea74000d11b0c9f74754ebdbfc544b05a25890602090a1865192610cff84611b20565b88845264504155534560d81b88515280885193849301833781018881520390209451918291602083526020830190611947565b0390a380f35b606490602086519162461bcd60e51b8352820152601360248201527215cc914e88105b1c9958591e481c185d5cd959606a1b6044820152fd5b8480fd5b503461033d57602036600319011261033d57610d8f611985565b610d97611f25565b6001600160a01b0316918215610dbf5750506001600160601b0360a01b600854161760085580f35b906020606492519162461bcd60e51b8352820152601d60248201527f5732453a20496e76616c696420747265617375727920616464726573730000006044820152fd5b50503461045057816003193601126104505760209060ff60055460a01c1690519015158152f35b50903461033d57610e39366119b5565b919092610e5160018060a01b03600b54163314611ee3565b6113888311610e9457507f7a1c1c5cc66d1c26b268eaa64460db1580dd2f6fef5788f410712c0229fdd55d91602091848652600d8352818187205551908152a280f35b6020606492519162461bcd60e51b835282015260146024820152735732453a2041505920657863656564732035302560601b6044820152fd5b50503461045057816003193601126104505760095490516001600160a01b039091168152602090f35b50903461033d57602036600319011261033d57813591610f2160018060a01b036007541633146119cb565b610f29611fc4565b610f34831515611a5a565b30845283602052828285205410610f915750610f50823061232d565b610f5c82600f54611aa6565b600f55519081527ffd38818f5291bf0bb3a2a48aadc06ba8757865d1dabd804585338aab3009dcb660203092a2600160065580f35b6020608492519162461bcd60e51b8352820152602160248201527f5732453a20496e73756666696369656e742062616c616e636520746f206275726044820152603760f91b6064820152fd5b5050346104505780600319360112610450577f3f2c9d57c068687834f0de942a9babb9e5acab57d516d3480a3c16ee165a4273602061101a611985565b926024359061105f8260018060a01b03611039816007541633146119cb565b611041611fc4565b87169661104f881515611a17565b61105a821515611a5a565b612258565b51908152a2600160065580f35b503461033d578260031936011261033d57611085611f25565b6005549060ff8260a01c161560018115036111b85761117e57507f8916209ed01e256744acae84228532ddef529f5b388ec0986c5abe6f041a4426610d327ff05774ecb620af8f54b837901991e7074289cdcfae56b6abde9dbf45da9cfe35937fe7276a2a84d8de556657ec9cf93a55a7d66f096e529d0582ed08e9e2208b92b59360ff60a01b19166005557f5db9ee0a495bf2e6ff9c91a7834c1ba4fdd244a5e8aa4e537bd38aeae4b073aa60208251338152a180519061114682611b20565b86825266554e504155534560c81b8151526d4d616e75616c20756e706175736560901b81515251918291602083526020830190611947565b606490602084519162461bcd60e51b8352820152601460248201527314185d5cd8589b194e881b9bdd081c185d5cd95960621b6044820152fd5b835162461bcd60e51b8152602081840152600f60248201526e15cc914e88139bdd081c185d5cd959608a1b6044820152606490fd5b503461033d578160031936011261033d57611206611985565b916024359060018060a01b03611221816007541633146119cb565b611229611fc4565b841693611237851515611a17565b611242831515611a5a565b8486526020936011855282872060ff6003820154161590811561132d575b50156112ea5750906112a5837f8a0b581a6e3e2361869cc8713e31f12d7f20d644701f25a60abf5b461d3f5a9d959493878952888652610b5282858b20541015611ac7565b6112b182600f54611aa6565b600f55847ffd38818f5291bf0bb3a2a48aadc06ba8757865d1dabd804585338aab3009dcb6848351858152a251908152a2600160065580f35b825162461bcd60e51b8152908101859052601e60248201527f5732453a2043616e6e6f74206275726e207374616b656420746f6b656e7300006044820152606490fd5b90505487865261134085858a2054611b13565b10155f611260565b5050346104505780600319360112610450576106a660209261139161136b611985565b338352600186528483206001600160a01b03821684528652918490205460243590611aa6565b9033612466565b50503461045057816003193601126104505760209051620151808152f35b5050346104505781600319360112610450576020905160328152f35b50503461045057816003193601126104505760209060ff601054169051908152f35b83346106fe5760203660031901126106fe5761140e611985565b600b54906001600160a01b03906114283383851614611ee3565b1690611435821515611a17565b6001600160a01b03191617600b5580f35b50903461033d578260031936011261033d57611460611fc4565b611468611f7d565b338352601160205280832091600383019283549160ff831615611551576114986001830154600284015490611aa6565b421061150e5750907f7fc4727e062e336010f2c282598ef5f14facb3de68cf8195c2f23e1454b2b74e929154936114ce33611b85565b9160ff191690556114e184601254611b13565b6012556114ee8133612258565b6114f984333061201a565b815193845260208401523392a2600160065580f35b606490602085519162461bcd60e51b8352820152601a60248201527f5732453a204c6f636b20706572696f64206e6f7420656e6465640000000000006044820152fd5b606490602085519162461bcd60e51b835282015260146024820152735732453a204e6f20616374697665207374616b6560601b6044820152fd5b503461033d57602036600319011261033d5760055481359290336001600160a01b0391821614908115611681575b501561164a57600c549182841115611608575060207f392234b24c1fccbdd050a0e0066e7d84878e005b13a4e7665c671c0fd89e9d479184600c55848652600d8252808620549051908152a380f35b6020606492519162461bcd60e51b8352820152601e60248201527f5732453a204e6577207068617365206d757374206265206772656174657200006044820152fd5b906020606492519162461bcd60e51b8352820152601160248201527015cc914e88155b985d5d1a1bdc9a5e9959607a1b6044820152fd5b90506007541633145f6115b9565b50503461045057816003193601126104505760609060025490600f54906012549181519384526020840152820152f35b505034610450576060366003190112610450576020906106456116e0611985565b6116e861199f565b6116f0611fc4565b6116f8611f7d565b60443591611d16565b5050346104505781600319360112610450576020906002549051908152f35b50503461045057602036600319011261045057602090611746611741611985565b611b85565b9051908152f35b503461033d57602036600319011261033d576020928291358152600d845220549051908152f35b503461033d57602036600319011261033d57803591611791611f25565b6103e883116117ca575050600a5481600a557f528d9479e9f9889a87a3c30c7f7ba537e5e59c4c85a37733b16e57c62df613028380a380f35b906020606492519162461bcd60e51b8352820152601a60248201527f5732453a204665652063616e6e6f7420657863656564203130250000000000006044820152fd5b5050346104505780600319360112610450576020906106a661182d611985565b6024359033612466565b5091346106fe57806003193601126106fe578151918160035492600184811c91818616958615611921575b6020968785108114610842578899509688969785829a5291825f146118fa57505060011461189e575b50505061052092916107ae910385611b50565b9190869350600383527fc2575a0e9e593c00f959f8c92f12db2869c3395a3b0502d05e2516446f71f85b5b8284106118e257505050820101816107ae61052061188b565b8054848a0186015288955087949093019281016118c9565b60ff19168782015293151560051b860190930193508492506107ae9150610520905061188b565b92607f1692611862565b849034610450578160031936011261045057602090600c548152f35b91908251928382525f5b848110611971575050825f602080949584010152601f8019910116010190565b602081830181015184830182015201611951565b600435906001600160a01b038216820361199b57565b5f80fd5b602435906001600160a01b038216820361199b57565b604090600319011261199b576004359060243590565b156119d257565b60405162461bcd60e51b815260206004820152601a60248201527f5732453a204e6f7420573245204c6f6f6d20436f6e74726163740000000000006044820152606490fd5b15611a1e57565b60405162461bcd60e51b81526020600482015260146024820152735732453a20496e76616c6964206164647265737360601b6044820152606490fd5b15611a6157565b60405162461bcd60e51b815260206004820152601c60248201527f5732453a20416d6f756e74206d75737420626520706f736974697665000000006044820152606490fd5b91908201809211611ab357565b634e487b7160e01b5f52601160045260245ffd5b15611ace57565b60405162461bcd60e51b815260206004820152601960248201527f5732453a20496e73756666696369656e742062616c616e6365000000000000006044820152606490fd5b91908203918211611ab357565b6020810190811067ffffffffffffffff821117611b3c57604052565b634e487b7160e01b5f52604160045260245ffd5b90601f8019910116810190811067ffffffffffffffff821117611b3c57604052565b81810292918115918404141715611ab357565b6001600160a01b03165f908152601160205260409020600381015460ff1615611c0a57611bf181611bc0600164496cebb80094015442611b13565b600c5490815f52600d60205260405f20549182159081611bff575b50611bf5575b611bec919254611b72565b611b72565b0490565b6101f49150611be1565b60019150145f611bdb565b505f90565b15611c1657565b60405162461bcd60e51b815260206004820152601660248201527515cc914e88125b9d985b1a59081c9958da5c1a595b9d60521b6044820152606490fd5b6001600160a01b03611c698282161515611c0f565b600a54151580611d08575b80611cfa575b15611ce957611cb390612710611c92600a5486611b72565b0492611cad84611ca28188611b13565b93600954163361201a565b3361201a565b60405191825260208201527f108516ddcf5ba43cea6bb2cd5ff6d59ac196c1c86ccb9178332b9dd72d1ca56160403392a2600190565b5090611cf5913361201a565b600190565b508060085416331415611c7a565b508060075416331415611c74565b6001600160a01b0392611d2c8385161515611c0f565b600a54151580611ed3575b80611ec3575b15611e3357612710611d51600a5483611b72565b04611d5c8183611b13565b94611d6c8282600954168661201a565b831694855f52600160205260405f20335f5260205260405f205490838210611ddf577f108516ddcf5ba43cea6bb2cd5ff6d59ac196c1c86ccb9178332b9dd72d1ca56195604095611dca611dc387611dcf96611b13565b3383612466565b61201a565b82519182526020820152a2600190565b60405162461bcd60e51b815260206004820152602660248201527f5732453a205472616e7366657220616d6f756e74206578636565647320616c6c6044820152656f77616e636560d01b6064820152608490fd5b91909283165f52600160205260405f20335f5260205260405f2054925f198403611e62575b611cf5935061201a565b828410611e7e57611e7983611cf595033383612466565b611e58565b60405162461bcd60e51b815260206004820152601d60248201527f45524332303a20696e73756666696369656e7420616c6c6f77616e63650000006044820152606490fd5b5083600854168483161415611d3d565b5083600754168483161415611d37565b15611eea57565b60405162461bcd60e51b81526020600482015260136024820152725732453a204f6e6c7920417574686f7269747960681b6044820152606490fd5b6005546001600160a01b03163303611f3957565b606460405162461bcd60e51b815260206004820152602060248201527f4f776e61626c653a2063616c6c6572206973206e6f7420746865206f776e65726044820152fd5b60ff60055460a01c16611f8c57565b60405162461bcd60e51b815260206004820152601060248201526f14185d5cd8589b194e881c185d5cd95960821b6044820152606490fd5b600260065414611fd5576002600655565b60405162461bcd60e51b815260206004820152601f60248201527f5265656e7472616e637947756172643a207265656e7472616e742063616c6c006044820152606490fd5b6001600160a01b0390811691821561220557169182156121b45760ff60055460a01c1661215c5760ff600e54161580612154575b8061214c575b612107575f828152806020526040812054918083106120b357604082827fddf252ad1be2c89b69c2b068fc378daa952ba7f163c4a11628f55a4df523b3ef958760209652828652038282205586815220818154019055604051908152a3565b60405162461bcd60e51b815260206004820152602660248201527f45524332303a207472616e7366657220616d6f756e7420657863656564732062604482015265616c616e636560d01b6064820152608490fd5b60405162461bcd60e51b815260206004820152601e60248201527f5732453a205472616e7366657273206e6f7420656e61626c65642079657400006044820152606490fd5b506001612054565b50600161204e565b60405162461bcd60e51b815260206004820152602a60248201527f45524332305061757361626c653a20746f6b656e207472616e736665722077686044820152691a5b19481c185d5cd95960b21b6064820152608490fd5b60405162461bcd60e51b815260206004820152602360248201527f45524332303a207472616e7366657220746f20746865207a65726f206164647260448201526265737360e81b6064820152608490fd5b60405162461bcd60e51b815260206004820152602560248201527f45524332303a207472616e736665722066726f6d20746865207a65726f206164604482015264647265737360d81b6064820152608490fd5b6001600160a01b03169081156122e85760ff60055460a01c1661215c5760ff600e541615806122e1575b806122d9575b612107577fddf252ad1be2c89b69c2b068fc378daa952ba7f163c4a11628f55a4df523b3ef6020826122bd5f94600254611aa6565b60025584845283825260408420818154019055604051908152a3565b506001612288565b505f612282565b60405162461bcd60e51b815260206004820152601f60248201527f45524332303a206d696e7420746f20746865207a65726f2061646472657373006044820152606490fd5b6001600160a01b031680156124175760ff60055460a01c1661215c5760ff600e5416158061240f575b80612408575b612107575f918183528260205260408320548181106123b857817fddf252ad1be2c89b69c2b068fc378daa952ba7f163c4a11628f55a4df523b3ef926020928587528684520360408620558060025403600255604051908152a3565b60405162461bcd60e51b815260206004820152602260248201527f45524332303a206275726e20616d6f756e7420657863656564732062616c616e604482015261636560f01b6064820152608490fd5b505f61235c565b506001612356565b60405162461bcd60e51b815260206004820152602160248201527f45524332303a206275726e2066726f6d20746865207a65726f206164647265736044820152607360f81b6064820152608490fd5b6001600160a01b0390811691821561251357169182156124c35760207f8c5be1e5ebec7d5bd14f71427d1e84f3dd0314c0f7b2291e5b200ac8c7c3b92591835f526001825260405f20855f5282528060405f2055604051908152a3565b60405162461bcd60e51b815260206004820152602260248201527f45524332303a20617070726f766520746f20746865207a65726f206164647265604482015261737360f01b6064820152608490fd5b60405162461bcd60e51b8152602060048201526024808201527f45524332303a20617070726f76652066726f6d20746865207a65726f206164646044820152637265737360e01b6064820152608490fdfea2646970667358221220019f16df3781c9f1841efc9c66af0d1417d61e0230324d66b995b6dd80f3b51564736f6c63430008140033",
    "linkReferences": {}
  }
}