{
  "abi": [
    {
      "inputs": [
        {
          "internalType": "address[]",
          "name": "initialAdmins",
          "type": "address[]"
        },
        {
          "internalType": "address",
          "name": "_utilityAddress",
          "type": "address"
        },
        {
          "internalType": "address",
          "name": "trustedForwarder",
          "type": "address"
        }
      ],
      "stateMutability": "nonpayable",
      "type": "constructor"
    },
    {
      "inputs": [],
      "name": "AccessControlBadConfirmation",
      "type": "error"
    },
    {
      "inputs": [
        {
          "internalType": "address",
          "name": "account",
          "type": "address"
        },
        {
          "internalType": "bytes32",
          "name": "neededRole",
          "type": "bytes32"
        }
      ],
      "name": "AccessControlUnauthorizedAccount",
      "type": "error"
    },
    {
      "inputs": [],
      "name": "AlreadyUnlockedOrWithdrawn",
      "type": "error"
    },
    {
      "inputs": [],
      "name": "AlreadyWithdrawn",
      "type": "error"
    },
    {
      "inputs": [],
      "name": "ArrayLengthMismatch",
      "type": "error"
    },
    {
      "inputs": [],
      "name": "CapReached",
      "type": "error"
    },
    {
      "inputs": [],
      "name": "DepositLocked",
      "type": "error"
    },
    {
      "inputs": [],
      "name": "DepositsPaused",
      "type": "error"
    },
    {
      "inputs": [],
      "name": "ExceedsTotalUtility",
      "type": "error"
    },
    {
      "inputs": [],
      "name": "GlobalLiquidationAlreadyEnabled",
      "type": "error"
    },
    {
      "inputs": [],
      "name": "InsufficientBalance",
      "type": "error"
    },
    {
      "inputs": [],
      "name": "InvalidAmount",
      "type": "error"
    },
    {
      "inputs": [],
      "name": "NoUtilityToClaim",
      "type": "error"
    },
    {
      "inputs": [],
      "name": "NotWhitelisted",
      "type": "error"
    },
    {
      "inputs": [],
      "name": "ReentrancyGuardReentrantCall",
      "type": "error"
    },
    {
      "inputs": [],
      "name": "ReturnedAmountExceedsInvested",
      "type": "error"
    },
    {
      "inputs": [],
      "name": "TransferFailed",
      "type": "error"
    },
    {
      "inputs": [],
      "name": "WithdrawalsPaused",
      "type": "error"
    },
    {
      "inputs": [],
      "name": "ZeroAddress",
      "type": "error"
    },
    {
      "anonymous": false,
      "inputs": [
        {
          "indexed": true,
          "internalType": "address",
          "name": "user",
          "type": "address"
        },
        {
          "indexed": false,
          "internalType": "enum PoolPandoras.TokenType",
          "name": "token",
          "type": "uint8"
        },
        {
          "indexed": false,
          "internalType": "uint256[]",
          "name": "indices",
          "type": "uint256[]"
        },
        {
          "indexed": false,
          "internalType": "uint256",
          "name": "totalPrincipal",
          "type": "uint256"
        },
        {
          "indexed": false,
          "internalType": "uint256",
          "name": "totalYield",
          "type": "uint256"
        },
        {
          "indexed": false,
          "internalType": "uint256",
          "name": "when",
          "type": "uint256"
        }
      ],
      "name": "BatchWithdraw",
      "type": "event"
    },
    {
      "anonymous": false,
      "inputs": [
        {
          "indexed": true,
          "internalType": "address",
          "name": "user",
          "type": "address"
        },
        {
          "indexed": false,
          "internalType": "enum PoolPandoras.TokenType",
          "name": "token",
          "type": "uint8"
        },
        {
          "indexed": false,
          "internalType": "uint256",
          "name": "amount",
          "type": "uint256"
        },
        {
          "indexed": false,
          "internalType": "uint256",
          "name": "when",
          "type": "uint256"
        }
      ],
      "name": "ClaimUtility",
      "type": "event"
    },
    {
      "anonymous": false,
      "inputs": [
        {
          "indexed": true,
          "internalType": "address",
          "name": "user",
          "type": "address"
        },
        {
          "indexed": false,
          "internalType": "enum PoolPandoras.TokenType",
          "name": "token",
          "type": "uint8"
        },
        {
          "indexed": false,
          "internalType": "uint256",
          "name": "amount",
          "type": "uint256"
        },
        {
          "indexed": false,
          "internalType": "uint256",
          "name": "when",
          "type": "uint256"
        },
        {
          "indexed": false,
          "internalType": "uint256",
          "name": "depositIndex",
          "type": "uint256"
        },
        {
          "indexed": false,
          "internalType": "bool",
          "name": "reinvestment",
          "type": "bool"
        }
      ],
      "name": "Deposit",
      "type": "event"
    },
    {
      "anonymous": false,
      "inputs": [
        {
          "indexed": true,
          "internalType": "address",
          "name": "user",
          "type": "address"
        },
        {
          "indexed": false,
          "internalType": "uint256[]",
          "name": "indices",
          "type": "uint256[]"
        }
      ],
      "name": "DepositsUnlocked",
      "type": "event"
    },
    {
      "anonymous": false,
      "inputs": [
        {
          "indexed": true,
          "internalType": "address",
          "name": "token",
          "type": "address"
        },
        {
          "indexed": true,
          "internalType": "address",
          "name": "to",
          "type": "address"
        },
        {
          "indexed": false,
          "internalType": "uint256",
          "name": "amount",
          "type": "uint256"
        }
      ],
      "name": "ERC20Rescued",
      "type": "event"
    },
    {
      "anonymous": false,
      "inputs": [
        {
          "indexed": false,
          "internalType": "uint256",
          "name": "when",
          "type": "uint256"
        }
      ],
      "name": "GlobalLiquidationEnabled",
      "type": "event"
    },
    {
      "anonymous": false,
      "inputs": [
        {
          "indexed": true,
          "internalType": "address",
          "name": "manager",
          "type": "address"
        },
        {
          "indexed": false,
          "internalType": "enum PoolPandoras.TokenType",
          "name": "token",
          "type": "uint8"
        },
        {
          "indexed": false,
          "internalType": "uint256",
          "name": "amount",
          "type": "uint256"
        },
        {
          "indexed": false,
          "internalType": "uint256",
          "name": "when",
          "type": "uint256"
        }
      ],
      "name": "InvestmentReturned",
      "type": "event"
    },
    {
      "anonymous": false,
      "inputs": [
        {
          "indexed": false,
          "internalType": "uint256",
          "name": "newPeriod",
          "type": "uint256"
        }
      ],
      "name": "LockupPeriodChanged",
      "type": "event"
    },
    {
      "anonymous": false,
      "inputs": [
        {
          "indexed": false,
          "internalType": "enum PoolPandoras.TokenType",
          "name": "token",
          "type": "uint8"
        },
        {
          "indexed": false,
          "internalType": "uint256",
          "name": "newCap",
          "type": "uint256"
        }
      ],
      "name": "MaxCapChanged",
      "type": "event"
    },
    {
      "anonymous": false,
      "inputs": [
        {
          "indexed": false,
          "internalType": "bool",
          "name": "depositsPaused",
          "type": "bool"
        },
        {
          "indexed": false,
          "internalType": "bool",
          "name": "withdrawalsPaused",
          "type": "bool"
        }
      ],
      "name": "PauseChanged",
      "type": "event"
    },
    {
      "anonymous": false,
      "inputs": [
        {
          "indexed": true,
          "internalType": "address",
          "name": "user",
          "type": "address"
        },
        {
          "indexed": false,
          "internalType": "enum PoolPandoras.TokenType",
          "name": "token",
          "type": "uint8"
        },
        {
          "indexed": false,
          "internalType": "uint256",
          "name": "amount",
          "type": "uint256"
        },
        {
          "indexed": false,
          "internalType": "uint256",
          "name": "when",
          "type": "uint256"
        }
      ],
      "name": "Reinvest",
      "type": "event"
    },
    {
      "anonymous": false,
      "inputs": [
        {
          "indexed": true,
          "internalType": "bytes32",
          "name": "role",
          "type": "bytes32"
        },
        {
          "indexed": true,
          "internalType": "bytes32",
          "name": "previousAdminRole",
          "type": "bytes32"
        },
        {
          "indexed": true,
          "internalType": "bytes32",
          "name": "newAdminRole",
          "type": "bytes32"
        }
      ],
      "name": "RoleAdminChanged",
      "type": "event"
    },
    {
      "anonymous": false,
      "inputs": [
        {
          "indexed": true,
          "internalType": "bytes32",
          "name": "role",
          "type": "bytes32"
        },
        {
          "indexed": true,
          "internalType": "address",
          "name": "account",
          "type": "address"
        },
        {
          "indexed": true,
          "internalType": "address",
          "name": "sender",
          "type": "address"
        }
      ],
      "name": "RoleGranted",
      "type": "event"
    },
    {
      "anonymous": false,
      "inputs": [
        {
          "indexed": true,
          "internalType": "bytes32",
          "name": "role",
          "type": "bytes32"
        },
        {
          "indexed": true,
          "internalType": "address",
          "name": "account",
          "type": "address"
        },
        {
          "indexed": true,
          "internalType": "address",
          "name": "sender",
          "type": "address"
        }
      ],
      "name": "RoleRevoked",
      "type": "event"
    },
    {
      "anonymous": false,
      "inputs": [
        {
          "indexed": true,
          "internalType": "address",
          "name": "user",
          "type": "address"
        },
        {
          "indexed": false,
          "internalType": "bool",
          "name": "status",
          "type": "bool"
        }
      ],
      "name": "UserWhitelisted",
      "type": "event"
    },
    {
      "anonymous": false,
      "inputs": [
        {
          "indexed": false,
          "internalType": "address",
          "name": "newUtilityAddress",
          "type": "address"
        }
      ],
      "name": "UtilityAddressChanged",
      "type": "event"
    },
    {
      "anonymous": false,
      "inputs": [
        {
          "indexed": true,
          "internalType": "address",
          "name": "admin",
          "type": "address"
        },
        {
          "indexed": false,
          "internalType": "enum PoolPandoras.TokenType",
          "name": "token",
          "type": "uint8"
        },
        {
          "indexed": false,
          "internalType": "uint256",
          "name": "amount",
          "type": "uint256"
        },
        {
          "indexed": false,
          "internalType": "uint256",
          "name": "when",
          "type": "uint256"
        }
      ],
      "name": "UtilityInjected",
      "type": "event"
    },
    {
      "anonymous": false,
      "inputs": [
        {
          "indexed": true,
          "internalType": "address",
          "name": "to",
          "type": "address"
        },
        {
          "indexed": false,
          "internalType": "enum PoolPandoras.TokenType",
          "name": "token",
          "type": "uint8"
        },
        {
          "indexed": false,
          "internalType": "uint256",
          "name": "amount",
          "type": "uint256"
        },
        {
          "indexed": false,
          "internalType": "uint256",
          "name": "when",
          "type": "uint256"
        }
      ],
      "name": "UtilityWithdrawn",
      "type": "event"
    },
    {
      "anonymous": false,
      "inputs": [
        {
          "indexed": true,
          "internalType": "address",
          "name": "user",
          "type": "address"
        },
        {
          "indexed": false,
          "internalType": "enum PoolPandoras.TokenType",
          "name": "token",
          "type": "uint8"
        },
        {
          "indexed": false,
          "internalType": "uint256",
          "name": "principal",
          "type": "uint256"
        },
        {
          "indexed": false,
          "internalType": "uint256",
          "name": "yield",
          "type": "uint256"
        },
        {
          "indexed": false,
          "internalType": "uint256",
          "name": "when",
          "type": "uint256"
        },
        {
          "indexed": false,
          "internalType": "uint256",
          "name": "depositIndex",
          "type": "uint256"
        }
      ],
      "name": "Withdraw",
      "type": "event"
    },
    {
      "anonymous": false,
      "inputs": [
        {
          "indexed": true,
          "internalType": "address",
          "name": "manager",
          "type": "address"
        },
        {
          "indexed": false,
          "internalType": "enum PoolPandoras.TokenType",
          "name": "token",
          "type": "uint8"
        },
        {
          "indexed": true,
          "internalType": "address",
          "name": "to",
          "type": "address"
        },
        {
          "indexed": false,
          "internalType": "uint256",
          "name": "amount",
          "type": "uint256"
        },
        {
          "indexed": false,
          "internalType": "uint256",
          "name": "when",
          "type": "uint256"
        }
      ],
      "name": "WithdrawnForInvestment",
      "type": "event"
    },
    {
      "inputs": [],
      "name": "ADMIN_ROLE",
      "outputs": [
        {
          "internalType": "bytes32",
          "name": "",
          "type": "bytes32"
        }
      ],
      "stateMutability": "view",
      "type": "function"
    },
    {
      "inputs": [],
      "name": "DEFAULT_ADMIN_ROLE",
      "outputs": [
        {
          "internalType": "bytes32",
          "name": "",
          "type": "bytes32"
        }
      ],
      "stateMutability": "view",
      "type": "function"
    },
    {
      "inputs": [],
      "name": "MANAGER_ROLE",
      "outputs": [
        {
          "internalType": "bytes32",
          "name": "",
          "type": "bytes32"
        }
      ],
      "stateMutability": "view",
      "type": "function"
    },
    {
      "inputs": [],
      "name": "PAUSER_ROLE",
      "outputs": [
        {
          "internalType": "bytes32",
          "name": "",
          "type": "bytes32"
        }
      ],
      "stateMutability": "view",
      "type": "function"
    },
    {
      "inputs": [],
      "name": "UNLOCKER_ROLE",
      "outputs": [
        {
          "internalType": "bytes32",
          "name": "",
          "type": "bytes32"
        }
      ],
      "stateMutability": "view",
      "type": "function"
    },
    {
      "inputs": [],
      "name": "USDC",
      "outputs": [
        {
          "internalType": "address",
          "name": "",
          "type": "address"
        }
      ],
      "stateMutability": "view",
      "type": "function"
    },
    {
      "inputs": [],
      "name": "UTILITY_INJECTOR_ROLE",
      "outputs": [
        {
          "internalType": "bytes32",
          "name": "",
          "type": "bytes32"
        }
      ],
      "stateMutability": "view",
      "type": "function"
    },
    {
      "inputs": [],
      "name": "UTILITY_WITHDRAWER_ROLE",
      "outputs": [
        {
          "internalType": "bytes32",
          "name": "",
          "type": "bytes32"
        }
      ],
      "stateMutability": "view",
      "type": "function"
    },
    {
      "inputs": [
        {
          "internalType": "address",
          "name": "user",
          "type": "address"
        },
        {
          "internalType": "uint256",
          "name": "amount",
          "type": "uint256"
        }
      ],
      "name": "assignUtilityETH",
      "outputs": [],
      "stateMutability": "nonpayable",
      "type": "function"
    },
    {
      "inputs": [
        {
          "internalType": "address[]",
          "name": "users",
          "type": "address[]"
        },
        {
          "internalType": "uint256[]",
          "name": "amounts",
          "type": "uint256[]"
        }
      ],
      "name": "assignUtilityETHBatch",
      "outputs": [],
      "stateMutability": "nonpayable",
      "type": "function"
    },
    {
      "inputs": [
        {
          "internalType": "address",
          "name": "user",
          "type": "address"
        },
        {
          "internalType": "uint256",
          "name": "amount",
          "type": "uint256"
        }
      ],
      "name": "assignUtilityUSDC",
      "outputs": [],
      "stateMutability": "nonpayable",
      "type": "function"
    },
    {
      "inputs": [
        {
          "internalType": "address[]",
          "name": "users",
          "type": "address[]"
        },
        {
          "internalType": "uint256[]",
          "name": "amounts",
          "type": "uint256[]"
        }
      ],
      "name": "assignUtilityUSDCBatch",
      "outputs": [],
      "stateMutability": "nonpayable",
      "type": "function"
    },
    {
      "inputs": [
        {
          "internalType": "uint256[]",
          "name": "depositIndices",
          "type": "uint256[]"
        }
      ],
      "name": "batchWithdraw",
      "outputs": [],
      "stateMutability": "nonpayable",
      "type": "function"
    },
    {
      "inputs": [],
      "name": "claimUtilityETH",
      "outputs": [],
      "stateMutability": "nonpayable",
      "type": "function"
    },
    {
      "inputs": [],
      "name": "claimUtilityUSDC",
      "outputs": [],
      "stateMutability": "nonpayable",
      "type": "function"
    },
    {
      "inputs": [],
      "name": "depositETH",
      "outputs": [],
      "stateMutability": "payable",
      "type": "function"
    },
    {
      "inputs": [
        {
          "internalType": "uint256",
          "name": "amount",
          "type": "uint256"
        }
      ],
      "name": "depositUSDC",
      "outputs": [],
      "stateMutability": "nonpayable",
      "type": "function"
    },
    {
      "inputs": [],
      "name": "enableGlobalLiquidation",
      "outputs": [],
      "stateMutability": "nonpayable",
      "type": "function"
    },
    {
      "inputs": [
        {
          "internalType": "bytes32",
          "name": "role",
          "type": "bytes32"
        }
      ],
      "name": "getRoleAdmin",
      "outputs": [
        {
          "internalType": "bytes32",
          "name": "",
          "type": "bytes32"
        }
      ],
      "stateMutability": "view",
      "type": "function"
    },
    {
      "inputs": [
        {
          "internalType": "address",
          "name": "user",
          "type": "address"
        }
      ],
      "name": "getUserDeposits",
      "outputs": [
        {
          "components": [
            {
              "internalType": "uint96",
              "name": "amount",
              "type": "uint96"
            },
            {
              "internalType": "uint96",
              "name": "yieldReceived",
              "type": "uint96"
            },
            {
              "internalType": "uint48",
              "name": "timestamp",
              "type": "uint48"
            },
            {
              "internalType": "uint48",
              "name": "withdrawnAt",
              "type": "uint48"
            },
            {
              "internalType": "enum PoolPandoras.TokenType",
              "name": "token",
              "type": "uint8"
            },
            {
              "internalType": "uint8",
              "name": "flags",
              "type": "uint8"
            }
          ],
          "internalType": "struct PoolPandoras.DepositInfo[]",
          "name": "",
          "type": "tuple[]"
        }
      ],
      "stateMutability": "view",
      "type": "function"
    },
    {
      "inputs": [
        {
          "internalType": "address",
          "name": "user",
          "type": "address"
        }
      ],
      "name": "getUserStats",
      "outputs": [
        {
          "internalType": "uint256",
          "name": "depositedETH",
          "type": "uint256"
        },
        {
          "internalType": "uint256",
          "name": "depositedUSDC",
          "type": "uint256"
        },
        {
          "internalType": "uint256",
          "name": "withdrawnETH",
          "type": "uint256"
        },
        {
          "internalType": "uint256",
          "name": "withdrawnUSDC",
          "type": "uint256"
        },
        {
          "internalType": "uint256",
          "name": "claimableUtilityETH",
          "type": "uint256"
        },
        {
          "internalType": "uint256",
          "name": "claimableUtilityUSDC",
          "type": "uint256"
        },
        {
          "internalType": "uint256",
          "name": "reinvestedETH",
          "type": "uint256"
        },
        {
          "internalType": "uint256",
          "name": "reinvestedUSDC",
          "type": "uint256"
        }
      ],
      "stateMutability": "view",
      "type": "function"
    },
    {
      "inputs": [],
      "name": "getVaultStats",
      "outputs": [
        {
          "internalType": "uint256",
          "name": "ethInVault",
          "type": "uint256"
        },
        {
          "internalType": "uint256",
          "name": "usdcInVault",
          "type": "uint256"
        },
        {
          "internalType": "uint256",
          "name": "totalDepositedETH_",
          "type": "uint256"
        },
        {
          "internalType": "uint256",
          "name": "totalDepositedUSDC_",
          "type": "uint256"
        },
        {
          "internalType": "uint256",
          "name": "totalWithdrawnETH_",
          "type": "uint256"
        },
        {
          "internalType": "uint256",
          "name": "totalWithdrawnUSDC_",
          "type": "uint256"
        },
        {
          "internalType": "uint256",
          "name": "totalUtilityETH_",
          "type": "uint256"
        },
        {
          "internalType": "uint256",
          "name": "totalUtilityUSDC_",
          "type": "uint256"
        },
        {
          "internalType": "uint256",
          "name": "totalReinvestedETH_",
          "type": "uint256"
        },
        {
          "internalType": "uint256",
          "name": "totalReinvestedUSDC_",
          "type": "uint256"
        },
        {
          "internalType": "uint256",
          "name": "totalInvestedETH_",
          "type": "uint256"
        },
        {
          "internalType": "uint256",
          "name": "totalInvestedUSDC_",
          "type": "uint256"
        },
        {
          "internalType": "uint256",
          "name": "numDepositors",
          "type": "uint256"
        },
        {
          "internalType": "uint256",
          "name": "numWithdrawnUsers",
          "type": "uint256"
        }
      ],
      "stateMutability": "view",
      "type": "function"
    },
    {
      "inputs": [],
      "name": "globalLiquidationEnabled",
      "outputs": [
        {
          "internalType": "bool",
          "name": "",
          "type": "bool"
        }
      ],
      "stateMutability": "view",
      "type": "function"
    },
    {
      "inputs": [],
      "name": "globalLiquidationTimestamp",
      "outputs": [
        {
          "internalType": "uint48",
          "name": "",
          "type": "uint48"
        }
      ],
      "stateMutability": "view",
      "type": "function"
    },
    {
      "inputs": [
        {
          "internalType": "bytes32",
          "name": "role",
          "type": "bytes32"
        },
        {
          "internalType": "address",
          "name": "account",
          "type": "address"
        }
      ],
      "name": "grantRole",
      "outputs": [],
      "stateMutability": "nonpayable",
      "type": "function"
    },
    {
      "inputs": [
        {
          "internalType": "bytes32",
          "name": "role",
          "type": "bytes32"
        },
        {
          "internalType": "address",
          "name": "account",
          "type": "address"
        }
      ],
      "name": "hasRole",
      "outputs": [
        {
          "internalType": "bool",
          "name": "",
          "type": "bool"
        }
      ],
      "stateMutability": "view",
      "type": "function"
    },
    {
      "inputs": [
        {
          "internalType": "address",
          "name": "",
          "type": "address"
        }
      ],
      "name": "hasWithdrawn",
      "outputs": [
        {
          "internalType": "bool",
          "name": "",
          "type": "bool"
        }
      ],
      "stateMutability": "view",
      "type": "function"
    },
    {
      "inputs": [],
      "name": "injectUtilityETH",
      "outputs": [],
      "stateMutability": "payable",
      "type": "function"
    },
    {
      "inputs": [
        {
          "internalType": "uint256",
          "name": "amount",
          "type": "uint256"
        }
      ],
      "name": "injectUtilityUSDC",
      "outputs": [],
      "stateMutability": "nonpayable",
      "type": "function"
    },
    {
      "inputs": [
        {
          "internalType": "address",
          "name": "",
          "type": "address"
        }
      ],
      "name": "isKnownDepositor",
      "outputs": [
        {
          "internalType": "bool",
          "name": "",
          "type": "bool"
        }
      ],
      "stateMutability": "view",
      "type": "function"
    },
    {
      "inputs": [
        {
          "internalType": "address",
          "name": "forwarder",
          "type": "address"
        }
      ],
      "name": "isTrustedForwarder",
      "outputs": [
        {
          "internalType": "bool",
          "name": "",
          "type": "bool"
        }
      ],
      "stateMutability": "view",
      "type": "function"
    },
    {
      "inputs": [
        {
          "internalType": "address",
          "name": "",
          "type": "address"
        }
      ],
      "name": "isWhitelisted",
      "outputs": [
        {
          "internalType": "bool",
          "name": "",
          "type": "bool"
        }
      ],
      "stateMutability": "view",
      "type": "function"
    },
    {
      "inputs": [],
      "name": "lockupPeriod",
      "outputs": [
        {
          "internalType": "uint256",
          "name": "",
          "type": "uint256"
        }
      ],
      "stateMutability": "view",
      "type": "function"
    },
    {
      "inputs": [],
      "name": "maxCapETH",
      "outputs": [
        {
          "internalType": "uint256",
          "name": "",
          "type": "uint256"
        }
      ],
      "stateMutability": "view",
      "type": "function"
    },
    {
      "inputs": [],
      "name": "maxCapUSDC",
      "outputs": [
        {
          "internalType": "uint256",
          "name": "",
          "type": "uint256"
        }
      ],
      "stateMutability": "view",
      "type": "function"
    },
    {
      "inputs": [],
      "name": "pausedDeposits",
      "outputs": [
        {
          "internalType": "bool",
          "name": "",
          "type": "bool"
        }
      ],
      "stateMutability": "view",
      "type": "function"
    },
    {
      "inputs": [],
      "name": "pausedWithdrawals",
      "outputs": [
        {
          "internalType": "bool",
          "name": "",
          "type": "bool"
        }
      ],
      "stateMutability": "view",
      "type": "function"
    },
    {
      "inputs": [],
      "name": "reinvestUtilityETH",
      "outputs": [],
      "stateMutability": "nonpayable",
      "type": "function"
    },
    {
      "inputs": [],
      "name": "reinvestUtilityUSDC",
      "outputs": [],
      "stateMutability": "nonpayable",
      "type": "function"
    },
    {
      "inputs": [
        {
          "internalType": "bytes32",
          "name": "role",
          "type": "bytes32"
        },
        {
          "internalType": "address",
          "name": "callerConfirmation",
          "type": "address"
        }
      ],
      "name": "renounceRole",
      "outputs": [],
      "stateMutability": "nonpayable",
      "type": "function"
    },
    {
      "inputs": [
        {
          "internalType": "address",
          "name": "token",
          "type": "address"
        },
        {
          "internalType": "address",
          "name": "to",
          "type": "address"
        },
        {
          "internalType": "uint256",
          "name": "amount",
          "type": "uint256"
        }
      ],
      "name": "rescueERC20",
      "outputs": [],
      "stateMutability": "nonpayable",
      "type": "function"
    },
    {
      "inputs": [],
      "name": "returnInvestmentETH",
      "outputs": [],
      "stateMutability": "payable",
      "type": "function"
    },
    {
      "inputs": [
        {
          "internalType": "uint256",
          "name": "amount",
          "type": "uint256"
        }
      ],
      "name": "returnInvestmentUSDC",
      "outputs": [],
      "stateMutability": "nonpayable",
      "type": "function"
    },
    {
      "inputs": [
        {
          "internalType": "bytes32",
          "name": "role",
          "type": "bytes32"
        },
        {
          "internalType": "address",
          "name": "account",
          "type": "address"
        }
      ],
      "name": "revokeRole",
      "outputs": [],
      "stateMutability": "nonpayable",
      "type": "function"
    },
    {
      "inputs": [
        {
          "internalType": "address",
          "name": "user",
          "type": "address"
        },
        {
          "internalType": "uint256[]",
          "name": "depositIndices",
          "type": "uint256[]"
        }
      ],
      "name": "setDepositsAsRedeemable",
      "outputs": [],
      "stateMutability": "nonpayable",
      "type": "function"
    },
    {
      "inputs": [
        {
          "internalType": "uint256",
          "name": "newPeriod",
          "type": "uint256"
        }
      ],
      "name": "setLockupPeriod",
      "outputs": [],
      "stateMutability": "nonpayable",
      "type": "function"
    },
    {
      "inputs": [
        {
          "internalType": "enum PoolPandoras.TokenType",
          "name": "token",
          "type": "uint8"
        },
        {
          "internalType": "uint256",
          "name": "newCap",
          "type": "uint256"
        }
      ],
      "name": "setMaxCap",
      "outputs": [],
      "stateMutability": "nonpayable",
      "type": "function"
    },
    {
      "inputs": [
        {
          "internalType": "bool",
          "name": "_deposits",
          "type": "bool"
        },
        {
          "internalType": "bool",
          "name": "_withdrawals",
          "type": "bool"
        }
      ],
      "name": "setPaused",
      "outputs": [],
      "stateMutability": "nonpayable",
      "type": "function"
    },
    {
      "inputs": [
        {
          "internalType": "address",
          "name": "newUtilityAddress",
          "type": "address"
        }
      ],
      "name": "setUtilityAddress",
      "outputs": [],
      "stateMutability": "nonpayable",
      "type": "function"
    },
    {
      "inputs": [
        {
          "internalType": "address",
          "name": "user",
          "type": "address"
        },
        {
          "internalType": "bool",
          "name": "status",
          "type": "bool"
        }
      ],
      "name": "setWhitelist",
      "outputs": [],
      "stateMutability": "nonpayable",
      "type": "function"
    },
    {
      "inputs": [
        {
          "internalType": "address[]",
          "name": "users",
          "type": "address[]"
        },
        {
          "internalType": "bool[]",
          "name": "statuses",
          "type": "bool[]"
        }
      ],
      "name": "setWhitelistBatch",
      "outputs": [],
      "stateMutability": "nonpayable",
      "type": "function"
    },
    {
      "inputs": [
        {
          "internalType": "bool",
          "name": "enabled",
          "type": "bool"
        }
      ],
      "name": "setWhitelistEnabled",
      "outputs": [],
      "stateMutability": "nonpayable",
      "type": "function"
    },
    {
      "inputs": [
        {
          "internalType": "bytes4",
          "name": "interfaceId",
          "type": "bytes4"
        }
      ],
      "name": "supportsInterface",
      "outputs": [
        {
          "internalType": "bool",
          "name": "",
          "type": "bool"
        }
      ],
      "stateMutability": "view",
      "type": "function"
    },
    {
      "inputs": [],
      "name": "totalDepositedETH",
      "outputs": [
        {
          "internalType": "uint256",
          "name": "",
          "type": "uint256"
        }
      ],
      "stateMutability": "view",
      "type": "function"
    },
    {
      "inputs": [],
      "name": "totalDepositedUSDC",
      "outputs": [
        {
          "internalType": "uint256",
          "name": "",
          "type": "uint256"
        }
      ],
      "stateMutability": "view",
      "type": "function"
    },
    {
      "inputs": [],
      "name": "totalInvestedETH",
      "outputs": [
        {
          "internalType": "uint256",
          "name": "",
          "type": "uint256"
        }
      ],
      "stateMutability": "view",
      "type": "function"
    },
    {
      "inputs": [],
      "name": "totalInvestedUSDC",
      "outputs": [
        {
          "internalType": "uint256",
          "name": "",
          "type": "uint256"
        }
      ],
      "stateMutability": "view",
      "type": "function"
    },
    {
      "inputs": [],
      "name": "totalReinvestedETH",
      "outputs": [
        {
          "internalType": "uint256",
          "name": "",
          "type": "uint256"
        }
      ],
      "stateMutability": "view",
      "type": "function"
    },
    {
      "inputs": [],
      "name": "totalReinvestedUSDC",
      "outputs": [
        {
          "internalType": "uint256",
          "name": "",
          "type": "uint256"
        }
      ],
      "stateMutability": "view",
      "type": "function"
    },
    {
      "inputs": [],
      "name": "totalUtilityETH",
      "outputs": [
        {
          "internalType": "uint256",
          "name": "",
          "type": "uint256"
        }
      ],
      "stateMutability": "view",
      "type": "function"
    },
    {
      "inputs": [],
      "name": "totalUtilityUSDC",
      "outputs": [
        {
          "internalType": "uint256",
          "name": "",
          "type": "uint256"
        }
      ],
      "stateMutability": "view",
      "type": "function"
    },
    {
      "inputs": [],
      "name": "totalWithdrawnETH",
      "outputs": [
        {
          "internalType": "uint256",
          "name": "",
          "type": "uint256"
        }
      ],
      "stateMutability": "view",
      "type": "function"
    },
    {
      "inputs": [],
      "name": "totalWithdrawnUSDC",
      "outputs": [
        {
          "internalType": "uint256",
          "name": "",
          "type": "uint256"
        }
      ],
      "stateMutability": "view",
      "type": "function"
    },
    {
      "inputs": [],
      "name": "trustedForwarder",
      "outputs": [
        {
          "internalType": "address",
          "name": "",
          "type": "address"
        }
      ],
      "stateMutability": "view",
      "type": "function"
    },
    {
      "inputs": [
        {
          "internalType": "address",
          "name": "user",
          "type": "address"
        },
        {
          "internalType": "uint256[]",
          "name": "depositIndices",
          "type": "uint256[]"
        }
      ],
      "name": "unlockDepositsForUser",
      "outputs": [],
      "stateMutability": "nonpayable",
      "type": "function"
    },
    {
      "inputs": [
        {
          "internalType": "address",
          "name": "",
          "type": "address"
        }
      ],
      "name": "userClaimableUtilityETH",
      "outputs": [
        {
          "internalType": "uint256",
          "name": "",
          "type": "uint256"
        }
      ],
      "stateMutability": "view",
      "type": "function"
    },
    {
      "inputs": [
        {
          "internalType": "address",
          "name": "",
          "type": "address"
        }
      ],
      "name": "userClaimableUtilityUSDC",
      "outputs": [
        {
          "internalType": "uint256",
          "name": "",
          "type": "uint256"
        }
      ],
      "stateMutability": "view",
      "type": "function"
    },
    {
      "inputs": [
        {
          "internalType": "address",
          "name": "",
          "type": "address"
        },
        {
          "internalType": "uint256",
          "name": "",
          "type": "uint256"
        }
      ],
      "name": "userDeposits",
      "outputs": [
        {
          "internalType": "uint96",
          "name": "amount",
          "type": "uint96"
        },
        {
          "internalType": "uint96",
          "name": "yieldReceived",
          "type": "uint96"
        },
        {
          "internalType": "uint48",
          "name": "timestamp",
          "type": "uint48"
        },
        {
          "internalType": "uint48",
          "name": "withdrawnAt",
          "type": "uint48"
        },
        {
          "internalType": "enum PoolPandoras.TokenType",
          "name": "token",
          "type": "uint8"
        },
        {
          "internalType": "uint8",
          "name": "flags",
          "type": "uint8"
        }
      ],
      "stateMutability": "view",
      "type": "function"
    },
    {
      "inputs": [
        {
          "internalType": "address",
          "name": "",
          "type": "address"
        }
      ],
      "name": "userTotalReinvestedETH",
      "outputs": [
        {
          "internalType": "uint256",
          "name": "",
          "type": "uint256"
        }
      ],
      "stateMutability": "view",
      "type": "function"
    },
    {
      "inputs": [
        {
          "internalType": "address",
          "name": "",
          "type": "address"
        }
      ],
      "name": "userTotalReinvestedUSDC",
      "outputs": [
        {
          "internalType": "uint256",
          "name": "",
          "type": "uint256"
        }
      ],
      "stateMutability": "view",
      "type": "function"
    },
    {
      "inputs": [],
      "name": "utilityAddress",
      "outputs": [
        {
          "internalType": "address",
          "name": "",
          "type": "address"
        }
      ],
      "stateMutability": "view",
      "type": "function"
    },
    {
      "inputs": [],
      "name": "whitelistEnabled",
      "outputs": [
        {
          "internalType": "bool",
          "name": "",
          "type": "bool"
        }
      ],
      "stateMutability": "view",
      "type": "function"
    },
    {
      "inputs": [
        {
          "internalType": "uint256",
          "name": "depositIndex",
          "type": "uint256"
        }
      ],
      "name": "withdraw",
      "outputs": [],
      "stateMutability": "nonpayable",
      "type": "function"
    },
    {
      "inputs": [
        {
          "internalType": "address",
          "name": "to",
          "type": "address"
        },
        {
          "internalType": "uint256",
          "name": "amount",
          "type": "uint256"
        }
      ],
      "name": "withdrawForInvestmentETH",
      "outputs": [],
      "stateMutability": "nonpayable",
      "type": "function"
    },
    {
      "inputs": [
        {
          "internalType": "address",
          "name": "to",
          "type": "address"
        },
        {
          "internalType": "uint256",
          "name": "amount",
          "type": "uint256"
        }
      ],
      "name": "withdrawForInvestmentUSDC",
      "outputs": [],
      "stateMutability": "nonpayable",
      "type": "function"
    },
    {
      "inputs": [
        {
          "internalType": "uint256",
          "name": "amount",
          "type": "uint256"
        }
      ],
      "name": "withdrawUtilityETH",
      "outputs": [],
      "stateMutability": "nonpayable",
      "type": "function"
    },
    {
      "inputs": [
        {
          "internalType": "uint256",
          "name": "amount",
          "type": "uint256"
        }
      ],
      "name": "withdrawUtilityUSDC",
      "outputs": [],
      "stateMutability": "nonpayable",
      "type": "function"
    },
    {
      "inputs": [
        {
          "internalType": "uint256",
          "name": "",
          "type": "uint256"
        }
      ],
      "name": "withdrawnUsers",
      "outputs": [
        {
          "internalType": "address",
          "name": "",
          "type": "address"
        }
      ],
      "stateMutability": "view",
      "type": "function"
    },
    {
      "stateMutability": "payable",
      "type": "receive"
    }
  ],
  "devdoc": {
    "errors": {
      "AccessControlBadConfirmation()": [
        {
          "details": "The caller of a function is not the expected one. NOTE: Don't confuse with {AccessControlUnauthorizedAccount}."
        }
      ],
      "AccessControlUnauthorizedAccount(address,bytes32)": [
        {
          "details": "The `account` is missing a role."
        }
      ],
      "ReentrancyGuardReentrantCall()": [
        {
          "details": "Unauthorized reentrant call."
        }
      ]
    },
    "events": {
      "RoleAdminChanged(bytes32,bytes32,bytes32)": {
        "details": "Emitted when `newAdminRole` is set as ``role``'s admin role, replacing `previousAdminRole` `DEFAULT_ADMIN_ROLE` is the starting admin for all roles, despite {RoleAdminChanged} not being emitted to signal this."
      },
      "RoleGranted(bytes32,address,address)": {
        "details": "Emitted when `account` is granted `role`. `sender` is the account that originated the contract call. This account bears the admin role (for the granted role). Expected in cases where the role was granted using the internal {AccessControl-_grantRole}."
      },
      "RoleRevoked(bytes32,address,address)": {
        "details": "Emitted when `account` is revoked `role`. `sender` is the account that originated the contract call:   - if using `revokeRole`, it is the admin role bearer   - if using `renounceRole`, it is the role bearer (i.e. `account`)"
      }
    },
    "kind": "dev",
    "methods": {
      "getRoleAdmin(bytes32)": {
        "details": "Returns the admin role that controls `role`. See {grantRole} and {revokeRole}. To change a role's admin, use {_setRoleAdmin}."
      },
      "grantRole(bytes32,address)": {
        "details": "Grants `role` to `account`. If `account` had not been already granted `role`, emits a {RoleGranted} event. Requirements: - the caller must have ``role``'s admin role. May emit a {RoleGranted} event."
      },
      "hasRole(bytes32,address)": {
        "details": "Returns `true` if `account` has been granted `role`."
      },
      "isTrustedForwarder(address)": {
        "details": "Indicates whether any particular address is the trusted forwarder."
      },
      "renounceRole(bytes32,address)": {
        "details": "Revokes `role` from the calling account. Roles are often managed via {grantRole} and {revokeRole}: this function's purpose is to provide a mechanism for accounts to lose their privileges if they are compromised (such as when a trusted device is misplaced). If the calling account had been revoked `role`, emits a {RoleRevoked} event. Requirements: - the caller must be `callerConfirmation`. May emit a {RoleRevoked} event."
      },
      "revokeRole(bytes32,address)": {
        "details": "Revokes `role` from `account`. If `account` had been granted `role`, emits a {RoleRevoked} event. Requirements: - the caller must have ``role``'s admin role. May emit a {RoleRevoked} event."
      },
      "supportsInterface(bytes4)": {
        "details": "Returns true if this contract implements the interface defined by `interfaceId`. See the corresponding https://eips.ethereum.org/EIPS/eip-165#how-interfaces-are-identified[ERC section] to learn more about how these ids are created. This function call must use less than 30 000 gas."
      },
      "trustedForwarder()": {
        "details": "Returns the address of the trusted forwarder."
      }
    },
    "title": "PoolPandoras",
    "version": 1
  },
  "evm": {
    "assembly": "    /* \"PoolPandoras.sol\":542:25657  contract PoolPandoras is AccessControl, ReentrancyGuard, ERC2771Context {... */\n  mstore(0x40, 0xa0)\n    /* \"PoolPandoras.sol\":1394:1402  180 days */\n  0xed4e00\n    /* \"PoolPandoras.sol\":1364:1402  uint256 public lockupPeriod = 180 days */\n  0x02\n  sstore\n    /* \"PoolPandoras.sol\":1437:1452  5_000_000 ether */\n  0x0422ca8b0a00a425000000\n    /* \"PoolPandoras.sol\":1408:1452  uint256 public maxCapETH   = 5_000_000 ether */\n  0x03\n  sstore\n    /* \"PoolPandoras.sol\":1487:1502  5_000_000 * 1e6 */\n  0x048c27395000\n    /* \"PoolPandoras.sol\":1458:1502  uint256 public maxCapUSDC  = 5_000_000 * 1e6 */\n  0x04\n  sstore\n    /* \"PoolPandoras.sol\":5509:6321  constructor(... */\n  callvalue\n  dup1\n  iszero\n  tag_1\n  jumpi\n  0x00\n  dup1\n  revert\ntag_1:\n  pop\n  mload(0x40)\n  sub(codesize, bytecodeSize)\n  dup1\n  bytecodeSize\n  dup4\n  codecopy\n  dup2\n  add\n  0x40\n  dup2\n  swap1\n  mstore\n  tag_2\n  swap2\n  tag_3\n  jump\t// in\ntag_2:\n    /* \"@openzeppelin/contracts/utils/ReentrancyGuard.sol\":1857:1858   */\n  0x01\n    /* \"@openzeppelin/contracts/utils/ReentrancyGuard.sol\":2061:2082   */\n  dup1\n  sstore\n  sub(shl(0xa0, 0x01), 0x01)\n    /* \"@openzeppelin/contracts/metatx/ERC2771Context.sol\":1500:1537   */\n  dup1\n  dup3\n  and\n  0x80\n  mstore\n    /* \"PoolPandoras.sol\":5711:5740  _utilityAddress == address(0) */\n  dup3\n  and\n    /* \"PoolPandoras.sol\":5707:5762  if (_utilityAddress == address(0)) revert ZeroAddress() */\n  tag_10\n  jumpi\n    /* \"PoolPandoras.sol\":5749:5762  ZeroAddress() */\n  mload(0x40)\n  shl(0xe0, 0xd92e233d)\n  dup2\n  mstore\n  0x04\n  add\n  mload(0x40)\n  dup1\n  swap2\n  sub\n  swap1\n  revert\n    /* \"PoolPandoras.sol\":5707:5762  if (_utilityAddress == address(0)) revert ZeroAddress() */\ntag_10:\n    /* \"PoolPandoras.sol\":5772:5786  utilityAddress */\n  0x05\n    /* \"PoolPandoras.sol\":5772:5804  utilityAddress = _utilityAddress */\n  dup1\n  sload\n  not(sub(shl(0xf0, 0x01), shl(0x50, 0x01)))\n  and\n  0x0100000000000000000000\n  sub(shl(0xa0, 0x01), 0x01)\n  dup6\n  and\n  mul\n  or\n  swap1\n  sstore\n  0x00\n    /* \"PoolPandoras.sol\":5815:6315  for (uint256 i = 0; i < initialAdmins.length; i++) {... */\ntag_11:\n    /* \"PoolPandoras.sol\":5839:5852  initialAdmins */\n  dup4\n    /* \"PoolPandoras.sol\":5839:5859  initialAdmins.length */\n  mload\n    /* \"PoolPandoras.sol\":5835:5836  i */\n  dup2\n    /* \"PoolPandoras.sol\":5835:5859  i < initialAdmins.length */\n  lt\n    /* \"PoolPandoras.sol\":5815:6315  for (uint256 i = 0; i < initialAdmins.length; i++) {... */\n  iszero\n  tag_12\n  jumpi\n    /* \"PoolPandoras.sol\":5880:5893  address admin */\n  0x00\n    /* \"PoolPandoras.sol\":5896:5909  initialAdmins */\n  dup5\n    /* \"PoolPandoras.sol\":5910:5911  i */\n  dup3\n    /* \"PoolPandoras.sol\":5896:5912  initialAdmins[i] */\n  dup2\n  mload\n  dup2\n  lt\n  tag_15\n  jumpi\n  tag_15\n  tag_16\n  jump\t// in\ntag_15:\n  0x20\n  mul\n  0x20\n  add\n  add\n  mload\n    /* \"PoolPandoras.sol\":5880:5912  address admin = initialAdmins[i] */\n  swap1\n  pop\n    /* \"PoolPandoras.sol\":5926:5968  _grantRole(DEFAULT_ADMIN_ROLE,      admin) */\n  tag_17\n    /* \"@openzeppelin/contracts/access/AccessControl.sol\":2241:2245   */\n  0x00\n    /* \"PoolPandoras.sol\":5937:5955  DEFAULT_ADMIN_ROLE */\n  dup1\n  shl\n    /* \"PoolPandoras.sol\":5962:5967  admin */\n  dup3\n    /* \"PoolPandoras.sol\":5926:5936  _grantRole */\n  shl(0x20, tag_18)\n    /* \"PoolPandoras.sol\":5926:5968  _grantRole(DEFAULT_ADMIN_ROLE,      admin) */\n  0x20\n  shr\n  jump\t// in\ntag_17:\n  pop\n    /* \"PoolPandoras.sol\":5982:6024  _grantRole(ADMIN_ROLE,              admin) */\n  tag_19\n    /* \"PoolPandoras.sol\":1854:1877  keccak256(\"ADMIN_ROLE\") */\n  0xa49807205ce4d355092ef5a8a18f56e8913cf4a201fbe287825b095693c21775\n    /* \"PoolPandoras.sol\":6018:6023  admin */\n  dup3\n    /* \"PoolPandoras.sol\":5982:5992  _grantRole */\n  tag_18\n    /* \"PoolPandoras.sol\":5982:6024  _grantRole(ADMIN_ROLE,              admin) */\n  jump\t// in\ntag_19:\n  pop\n    /* \"PoolPandoras.sol\":6038:6080  _grantRole(PAUSER_ROLE,             admin) */\n  tag_20\n    /* \"PoolPandoras.sol\":1932:1956  keccak256(\"PAUSER_ROLE\") */\n  0x65d7a28e3265b37a6474929f336521b332c1681b933f6cb9f3376673440d862a\n    /* \"PoolPandoras.sol\":6074:6079  admin */\n  dup3\n    /* \"PoolPandoras.sol\":6038:6048  _grantRole */\n  tag_18\n    /* \"PoolPandoras.sol\":6038:6080  _grantRole(PAUSER_ROLE,             admin) */\n  jump\t// in\ntag_20:\n  pop\n    /* \"PoolPandoras.sol\":6094:6136  _grantRole(UNLOCKER_ROLE,           admin) */\n  tag_21\n    /* \"PoolPandoras.sol\":2011:2037  keccak256(\"UNLOCKER_ROLE\") */\n  0xc806897caf4fd5068191157e44d3988e43139a37e0b97b6793e1ed1184140604\n    /* \"PoolPandoras.sol\":6130:6135  admin */\n  dup3\n    /* \"PoolPandoras.sol\":6094:6104  _grantRole */\n  tag_18\n    /* \"PoolPandoras.sol\":6094:6136  _grantRole(UNLOCKER_ROLE,           admin) */\n  jump\t// in\ntag_21:\n  pop\n    /* \"PoolPandoras.sol\":6150:6192  _grantRole(UTILITY_INJECTOR_ROLE,   admin) */\n  tag_22\n    /* \"PoolPandoras.sol\":2092:2126  keccak256(\"UTILITY_INJECTOR_ROLE\") */\n  0xf60566c40710959d8d30b6067ce3c53c757bec78eecb0e46b83c7f8194ffae37\n    /* \"PoolPandoras.sol\":6186:6191  admin */\n  dup3\n    /* \"PoolPandoras.sol\":6150:6160  _grantRole */\n  tag_18\n    /* \"PoolPandoras.sol\":6150:6192  _grantRole(UTILITY_INJECTOR_ROLE,   admin) */\n  jump\t// in\ntag_22:\n  pop\n    /* \"PoolPandoras.sol\":6206:6248  _grantRole(UTILITY_WITHDRAWER_ROLE, admin) */\n  tag_23\n    /* \"PoolPandoras.sol\":2181:2217  keccak256(\"UTILITY_WITHDRAWER_ROLE\") */\n  0x78c90eb9e475048b483a290aee04b5fe48355537c3623c7637b17d3bed71c6ed\n    /* \"PoolPandoras.sol\":6242:6247  admin */\n  dup3\n    /* \"PoolPandoras.sol\":6206:6216  _grantRole */\n  tag_18\n    /* \"PoolPandoras.sol\":6206:6248  _grantRole(UTILITY_WITHDRAWER_ROLE, admin) */\n  jump\t// in\ntag_23:\n  pop\n    /* \"PoolPandoras.sol\":6262:6304  _grantRole(MANAGER_ROLE,            admin) */\n  tag_24\n    /* \"PoolPandoras.sol\":2272:2297  keccak256(\"MANAGER_ROLE\") */\n  0x241ecf16d79d0f8dbfb92cbc07fe17840425976cf0667f022fe9877caa831b08\n    /* \"PoolPandoras.sol\":6298:6303  admin */\n  dup3\n    /* \"PoolPandoras.sol\":6262:6272  _grantRole */\n  tag_18\n    /* \"PoolPandoras.sol\":6262:6304  _grantRole(MANAGER_ROLE,            admin) */\n  jump\t// in\ntag_24:\n  pop\n  pop\n    /* \"PoolPandoras.sol\":5861:5864  i++ */\n  0x01\n  add\n    /* \"PoolPandoras.sol\":5815:6315  for (uint256 i = 0; i < initialAdmins.length; i++) {... */\n  jump(tag_11)\ntag_12:\n  pop\n    /* \"PoolPandoras.sol\":5509:6321  constructor(... */\n  pop\n  pop\n  pop\n    /* \"PoolPandoras.sol\":542:25657  contract PoolPandoras is AccessControl, ReentrancyGuard, ERC2771Context {... */\n  jump(tag_62)\n    /* \"@openzeppelin/contracts/access/AccessControl.sol\":6155:6471   */\ntag_18:\n    /* \"@openzeppelin/contracts/access/AccessControl.sol\":6232:6236   */\n  0x00\n    /* \"@openzeppelin/contracts/access/AccessControl.sol\":2930:2942   */\n  dup3\n  dup2\n  mstore\n  0x20\n  dup2\n  dup2\n  mstore\n  0x40\n  dup1\n  dup4\n  keccak256\n  sub(shl(0xa0, 0x01), 0x01)\n    /* \"@openzeppelin/contracts/access/AccessControl.sol\":2930:2959   */\n  dup6\n  and\n  dup5\n  mstore\n  swap1\n  swap2\n  mstore\n  dup2\n  keccak256\n  sload\n  0xff\n  and\n    /* \"@openzeppelin/contracts/access/AccessControl.sol\":6248:6465   */\n  tag_29\n  jumpi\n    /* \"@openzeppelin/contracts/access/AccessControl.sol\":6291:6297   */\n  0x00\n    /* \"@openzeppelin/contracts/access/AccessControl.sol\":6291:6303   */\n  dup4\n  dup2\n  mstore\n  0x20\n  dup2\n  dup2\n  mstore\n  0x40\n  dup1\n  dup4\n  keccak256\n  sub(shl(0xa0, 0x01), 0x01)\n    /* \"@openzeppelin/contracts/access/AccessControl.sol\":6291:6320   */\n  dup7\n  and\n  dup5\n  mstore\n  swap1\n  swap2\n  mstore\n  swap1\n  keccak256\n    /* \"@openzeppelin/contracts/access/AccessControl.sol\":6291:6327   */\n  dup1\n  sload\n  not(0xff)\n  and\n    /* \"@openzeppelin/contracts/access/AccessControl.sol\":6323:6327   */\n  0x01\n    /* \"@openzeppelin/contracts/access/AccessControl.sol\":6291:6327   */\n  or\n  swap1\n  sstore\n    /* \"@openzeppelin/contracts/access/AccessControl.sol\":6373:6385   */\n  tag_30\n    /* \"@openzeppelin/contracts/access/AccessControl.sol\":6373:6383   */\n  tag_31\n    /* \"@openzeppelin/contracts/access/AccessControl.sol\":6373:6385   */\n  jump\t// in\ntag_30:\n  sub(shl(0xa0, 0x01), 0x01)\n    /* \"@openzeppelin/contracts/access/AccessControl.sol\":6346:6386   */\n  and\n    /* \"@openzeppelin/contracts/access/AccessControl.sol\":6364:6371   */\n  dup3\n  sub(shl(0xa0, 0x01), 0x01)\n    /* \"@openzeppelin/contracts/access/AccessControl.sol\":6346:6386   */\n  and\n    /* \"@openzeppelin/contracts/access/AccessControl.sol\":6358:6362   */\n  dup5\n    /* \"@openzeppelin/contracts/access/AccessControl.sol\":6346:6386   */\n  0x2f8788117e7eff1d82e926ec794901d17c78024a50270940304540a733656f0d\n  mload(0x40)\n  mload(0x40)\n  dup1\n  swap2\n  sub\n  swap1\n  log4\n  pop\n    /* \"@openzeppelin/contracts/access/AccessControl.sol\":6407:6411   */\n  0x01\n    /* \"@openzeppelin/contracts/access/AccessControl.sol\":6400:6411   */\n  jump(tag_32)\n    /* \"@openzeppelin/contracts/access/AccessControl.sol\":6248:6465   */\ntag_29:\n  pop\n    /* \"@openzeppelin/contracts/access/AccessControl.sol\":6449:6454   */\n  0x00\n    /* \"@openzeppelin/contracts/access/AccessControl.sol\":6248:6465   */\ntag_32:\n    /* \"@openzeppelin/contracts/access/AccessControl.sol\":6155:6471   */\n  swap3\n  swap2\n  pop\n  pop\n  jump\t// out\n    /* \"PoolPandoras.sol\":6372:6518  function _msgSender() internal view override(Context, ERC2771Context) returns (address sender) {... */\ntag_31:\n    /* \"PoolPandoras.sol\":6451:6465  address sender */\n  0x00\n    /* \"PoolPandoras.sol\":6484:6511  ERC2771Context._msgSender() */\n  tag_35\n    /* \"PoolPandoras.sol\":6484:6509  ERC2771Context._msgSender */\n  tag_36\n    /* \"PoolPandoras.sol\":6484:6511  ERC2771Context._msgSender() */\n  jump\t// in\ntag_35:\n    /* \"PoolPandoras.sol\":6477:6511  return ERC2771Context._msgSender() */\n  swap1\n  pop\n    /* \"PoolPandoras.sol\":6372:6518  function _msgSender() internal view override(Context, ERC2771Context) returns (address sender) {... */\n  swap1\n  jump\t// out\n    /* \"@openzeppelin/contracts/metatx/ERC2771Context.sol\":2206:2677   */\ntag_36:\n    /* \"@openzeppelin/contracts/metatx/ERC2771Context.sol\":2268:2275   */\n  0x00\n    /* \"@openzeppelin/contracts/metatx/ERC2771Context.sol\":2312:2320   */\n  calldatasize\n    /* \"@openzeppelin/contracts/metatx/ERC2771Context.sol\":3567:3569   */\n  0x14\n    /* \"@openzeppelin/contracts/metatx/ERC2771Context.sol\":2403:2440   */\n  dup1\n  dup3\n  lt\n  dup1\n  iszero\n  swap1\n    /* \"@openzeppelin/contracts/metatx/ERC2771Context.sol\":2403:2474   */\n  tag_41\n  jumpi\n  pop\n    /* \"@openzeppelin/contracts/metatx/ERC2771Context.sol\":2444:2474   */\n  tag_41\n    /* \"@openzeppelin/contracts/metatx/ERC2771Context.sol\":2463:2473   */\n  caller\n    /* \"@openzeppelin/contracts/metatx/ERC2771Context.sol\":2444:2462   */\n  tag_42\n    /* \"@openzeppelin/contracts/metatx/ERC2771Context.sol\":2444:2474   */\n  jump\t// in\ntag_41:\n    /* \"@openzeppelin/contracts/metatx/ERC2771Context.sol\":2399:2671   */\n  iszero\n  tag_43\n  jumpi\n    /* \"@openzeppelin/contracts/metatx/ERC2771Context.sol\":2541:2588   */\n  tag_44\n    /* \"@openzeppelin/contracts/metatx/ERC2771Context.sol\":2541:2549   */\n  calldatasize\n    /* \"@openzeppelin/contracts/metatx/ERC2771Context.sol\":2550:2586   */\n  dup3\n  dup5\n  sub\n    /* \"@openzeppelin/contracts/metatx/ERC2771Context.sol\":2541:2549   */\n  dup2\n  0x00\n    /* \"@openzeppelin/contracts/metatx/ERC2771Context.sol\":2541:2588   */\n  tag_45\n  jump\t// in\ntag_44:\n    /* \"@openzeppelin/contracts/metatx/ERC2771Context.sol\":2533:2589   */\n  tag_46\n  swap2\n  tag_47\n  jump\t// in\ntag_46:\n    /* \"@openzeppelin/contracts/metatx/ERC2771Context.sol\":2525:2590   */\n  0x60\n  shr\n    /* \"@openzeppelin/contracts/metatx/ERC2771Context.sol\":2518:2590   */\n  swap3\n  pop\n  pop\n  pop\n    /* \"@openzeppelin/contracts/metatx/ERC2771Context.sol\":2206:2677   */\n  swap1\n  jump\t// out\n    /* \"@openzeppelin/contracts/metatx/ERC2771Context.sol\":2399:2671   */\ntag_43:\n    /* \"@openzeppelin/contracts/utils/Context.sol\":735:745   */\n  caller\n    /* \"@openzeppelin/contracts/metatx/ERC2771Context.sol\":2635:2660   */\n  swap3\n  pop\n  pop\n  pop\n    /* \"@openzeppelin/contracts/metatx/ERC2771Context.sol\":2206:2677   */\n  swap1\n  jump\t// out\n    /* \"@openzeppelin/contracts/metatx/ERC2771Context.sol\":1832:1969   */\ntag_42:\n    /* \"@openzeppelin/contracts/metatx/ERC2771Context.sol\":1908:1912   */\n  0x00\n    /* \"@openzeppelin/contracts/metatx/ERC2771Context.sol\":1944:1962   */\n  tag_55\n    /* \"@openzeppelin/contracts/metatx/ERC2771Context.sol\":1707:1724   */\n  mload(0x80)\n  swap1\n    /* \"@openzeppelin/contracts/metatx/ERC2771Context.sol\":1624:1731   */\n  jump\n    /* \"@openzeppelin/contracts/metatx/ERC2771Context.sol\":1944:1962   */\ntag_55:\n  sub(shl(0xa0, 0x01), 0x01)\n    /* \"@openzeppelin/contracts/metatx/ERC2771Context.sol\":1931:1962   */\n  and\n    /* \"@openzeppelin/contracts/metatx/ERC2771Context.sol\":1931:1940   */\n  dup3\n  sub(shl(0xa0, 0x01), 0x01)\n    /* \"@openzeppelin/contracts/metatx/ERC2771Context.sol\":1931:1962   */\n  and\n  eq\n    /* \"@openzeppelin/contracts/metatx/ERC2771Context.sol\":1924:1962   */\n  swap1\n  pop\n    /* \"@openzeppelin/contracts/metatx/ERC2771Context.sol\":1832:1969   */\n  swap2\n  swap1\n  pop\n  jump\t// out\n    /* \"#utility.yul\":14:141   */\ntag_60:\n    /* \"#utility.yul\":75:85   */\n  0x4e487b71\n    /* \"#utility.yul\":70:73   */\n  0xe0\n    /* \"#utility.yul\":66:86   */\n  shl\n    /* \"#utility.yul\":63:64   */\n  0x00\n    /* \"#utility.yul\":56:87   */\n  mstore\n    /* \"#utility.yul\":106:110   */\n  0x41\n    /* \"#utility.yul\":103:104   */\n  0x04\n    /* \"#utility.yul\":96:111   */\n  mstore\n    /* \"#utility.yul\":130:134   */\n  0x24\n    /* \"#utility.yul\":127:128   */\n  0x00\n    /* \"#utility.yul\":120:135   */\n  revert\n    /* \"#utility.yul\":146:323   */\ntag_61:\n    /* \"#utility.yul\":225:238   */\n  dup1\n  mload\n  sub(shl(0xa0, 0x01), 0x01)\n    /* \"#utility.yul\":267:298   */\n  dup2\n  and\n    /* \"#utility.yul\":257:299   */\n  dup2\n  eq\n    /* \"#utility.yul\":247:317   */\n  tag_65\n  jumpi\n    /* \"#utility.yul\":313:314   */\n  0x00\n    /* \"#utility.yul\":310:311   */\n  dup1\n    /* \"#utility.yul\":303:315   */\n  revert\n    /* \"#utility.yul\":247:317   */\ntag_65:\n    /* \"#utility.yul\":146:323   */\n  swap2\n  swap1\n  pop\n  jump\t// out\n    /* \"#utility.yul\":328:1629   */\ntag_3:\n    /* \"#utility.yul\":441:447   */\n  0x00\n    /* \"#utility.yul\":449:455   */\n  dup1\n    /* \"#utility.yul\":457:463   */\n  0x00\n    /* \"#utility.yul\":510:512   */\n  0x60\n    /* \"#utility.yul\":498:507   */\n  dup5\n    /* \"#utility.yul\":489:496   */\n  dup7\n    /* \"#utility.yul\":485:508   */\n  sub\n    /* \"#utility.yul\":481:513   */\n  slt\n    /* \"#utility.yul\":478:530   */\n  iszero\n  tag_67\n  jumpi\n    /* \"#utility.yul\":526:527   */\n  0x00\n    /* \"#utility.yul\":523:524   */\n  dup1\n    /* \"#utility.yul\":516:528   */\n  revert\n    /* \"#utility.yul\":478:530   */\ntag_67:\n    /* \"#utility.yul\":553:569   */\n  dup4\n  mload\n  sub(shl(0x40, 0x01), 0x01)\n    /* \"#utility.yul\":618:632   */\n  dup1\n  dup3\n  gt\n    /* \"#utility.yul\":615:649   */\n  iszero\n  tag_68\n  jumpi\n    /* \"#utility.yul\":645:646   */\n  0x00\n    /* \"#utility.yul\":642:643   */\n  dup1\n    /* \"#utility.yul\":635:647   */\n  revert\n    /* \"#utility.yul\":615:649   */\ntag_68:\n    /* \"#utility.yul\":683:689   */\n  dup2\n    /* \"#utility.yul\":672:681   */\n  dup7\n    /* \"#utility.yul\":668:690   */\n  add\n    /* \"#utility.yul\":658:690   */\n  swap2\n  pop\n    /* \"#utility.yul\":728:735   */\n  dup7\n    /* \"#utility.yul\":721:725   */\n  0x1f\n    /* \"#utility.yul\":717:719   */\n  dup4\n    /* \"#utility.yul\":713:726   */\n  add\n    /* \"#utility.yul\":709:736   */\n  slt\n    /* \"#utility.yul\":699:754   */\n  tag_69\n  jumpi\n    /* \"#utility.yul\":750:751   */\n  0x00\n    /* \"#utility.yul\":747:748   */\n  dup1\n    /* \"#utility.yul\":740:752   */\n  revert\n    /* \"#utility.yul\":699:754   */\ntag_69:\n    /* \"#utility.yul\":779:781   */\n  dup2\n    /* \"#utility.yul\":773:782   */\n  mload\n    /* \"#utility.yul\":801:805   */\n  0x20\n    /* \"#utility.yul\":824:826   */\n  dup3\n    /* \"#utility.yul\":820:822   */\n  dup3\n    /* \"#utility.yul\":817:827   */\n  gt\n    /* \"#utility.yul\":814:850   */\n  iszero\n  tag_71\n  jumpi\n    /* \"#utility.yul\":830:848   */\n  tag_71\n  tag_60\n  jump\t// in\ntag_71:\n    /* \"#utility.yul\":876:878   */\n  dup2\n    /* \"#utility.yul\":873:874   */\n  0x05\n    /* \"#utility.yul\":869:879   */\n  shl\n    /* \"#utility.yul\":908:910   */\n  0x40\n    /* \"#utility.yul\":902:911   */\n  mload\n    /* \"#utility.yul\":971:973   */\n  0x1f\n    /* \"#utility.yul\":967:974   */\n  not\n    /* \"#utility.yul\":962:964   */\n  0x3f\n    /* \"#utility.yul\":958:960   */\n  dup4\n    /* \"#utility.yul\":954:965   */\n  add\n    /* \"#utility.yul\":950:975   */\n  and\n    /* \"#utility.yul\":942:948   */\n  dup2\n    /* \"#utility.yul\":938:976   */\n  add\n    /* \"#utility.yul\":1026:1032   */\n  dup2\n    /* \"#utility.yul\":1014:1024   */\n  dup2\n    /* \"#utility.yul\":1011:1033   */\n  lt\n    /* \"#utility.yul\":1006:1008   */\n  dup7\n    /* \"#utility.yul\":994:1004   */\n  dup3\n    /* \"#utility.yul\":991:1009   */\n  gt\n    /* \"#utility.yul\":988:1034   */\n  or\n    /* \"#utility.yul\":985:1057   */\n  iszero\n  tag_73\n  jumpi\n    /* \"#utility.yul\":1037:1055   */\n  tag_73\n  tag_60\n  jump\t// in\ntag_73:\n    /* \"#utility.yul\":1073:1075   */\n  0x40\n    /* \"#utility.yul\":1066:1088   */\n  mstore\n    /* \"#utility.yul\":1123:1141   */\n  swap3\n  dup4\n  mstore\n    /* \"#utility.yul\":1157:1172   */\n  dup2\n  dup4\n  add\n  swap4\n  pop\n    /* \"#utility.yul\":1199:1210   */\n  dup5\n  dup2\n  add\n    /* \"#utility.yul\":1195:1215   */\n  dup3\n  add\n  swap3\n    /* \"#utility.yul\":1227:1246   */\n  dup11\n  dup5\n  gt\n    /* \"#utility.yul\":1224:1263   */\n  iszero\n  tag_74\n  jumpi\n    /* \"#utility.yul\":1259:1260   */\n  0x00\n    /* \"#utility.yul\":1256:1257   */\n  dup1\n    /* \"#utility.yul\":1249:1261   */\n  revert\n    /* \"#utility.yul\":1224:1263   */\ntag_74:\n    /* \"#utility.yul\":1283:1294   */\n  swap5\n  dup3\n  add\n  swap5\n    /* \"#utility.yul\":1303:1462   */\ntag_75:\n    /* \"#utility.yul\":1319:1325   */\n  dup4\n    /* \"#utility.yul\":1314:1317   */\n  dup7\n    /* \"#utility.yul\":1311:1326   */\n  lt\n    /* \"#utility.yul\":1303:1462   */\n  iszero\n  tag_77\n  jumpi\n    /* \"#utility.yul\":1385:1419   */\n  tag_78\n    /* \"#utility.yul\":1415:1418   */\n  dup7\n    /* \"#utility.yul\":1385:1419   */\n  tag_61\n  jump\t// in\ntag_78:\n    /* \"#utility.yul\":1373:1420   */\n  dup6\n  mstore\n    /* \"#utility.yul\":1336:1348   */\n  swap5\n  dup3\n  add\n  swap5\n    /* \"#utility.yul\":1440:1452   */\n  swap4\n  dup3\n  add\n  swap4\n    /* \"#utility.yul\":1303:1462   */\n  jump(tag_75)\ntag_77:\n    /* \"#utility.yul\":1481:1487   */\n  swap8\n  pop\n    /* \"#utility.yul\":1506:1555   */\n  tag_79\n  swap1\n  pop\n    /* \"#utility.yul\":1536:1554   */\n  dup9\n  dup3\n  add\n    /* \"#utility.yul\":1506:1555   */\n  tag_61\n  jump\t// in\ntag_79:\n    /* \"#utility.yul\":1496:1555   */\n  swap6\n  pop\n  pop\n  pop\n  pop\n  pop\n    /* \"#utility.yul\":1574:1623   */\n  tag_80\n    /* \"#utility.yul\":1619:1621   */\n  0x40\n    /* \"#utility.yul\":1608:1617   */\n  dup6\n    /* \"#utility.yul\":1604:1622   */\n  add\n    /* \"#utility.yul\":1574:1623   */\n  tag_61\n  jump\t// in\ntag_80:\n    /* \"#utility.yul\":1564:1623   */\n  swap1\n  pop\n    /* \"#utility.yul\":328:1629   */\n  swap3\n  pop\n  swap3\n  pop\n  swap3\n  jump\t// out\n    /* \"#utility.yul\":1634:1761   */\ntag_16:\n    /* \"#utility.yul\":1695:1705   */\n  0x4e487b71\n    /* \"#utility.yul\":1690:1693   */\n  0xe0\n    /* \"#utility.yul\":1686:1706   */\n  shl\n    /* \"#utility.yul\":1683:1684   */\n  0x00\n    /* \"#utility.yul\":1676:1707   */\n  mstore\n    /* \"#utility.yul\":1726:1730   */\n  0x32\n    /* \"#utility.yul\":1723:1724   */\n  0x04\n    /* \"#utility.yul\":1716:1731   */\n  mstore\n    /* \"#utility.yul\":1750:1754   */\n  0x24\n    /* \"#utility.yul\":1747:1748   */\n  0x00\n    /* \"#utility.yul\":1740:1755   */\n  revert\n    /* \"#utility.yul\":1766:2097   */\ntag_45:\n    /* \"#utility.yul\":1871:1880   */\n  0x00\n    /* \"#utility.yul\":1882:1891   */\n  dup1\n    /* \"#utility.yul\":1924:1932   */\n  dup6\n    /* \"#utility.yul\":1912:1922   */\n  dup6\n    /* \"#utility.yul\":1909:1933   */\n  gt\n    /* \"#utility.yul\":1906:1950   */\n  iszero\n  tag_83\n  jumpi\n    /* \"#utility.yul\":1946:1947   */\n  0x00\n    /* \"#utility.yul\":1943:1944   */\n  dup1\n    /* \"#utility.yul\":1936:1948   */\n  revert\n    /* \"#utility.yul\":1906:1950   */\ntag_83:\n    /* \"#utility.yul\":1975:1981   */\n  dup4\n    /* \"#utility.yul\":1965:1973   */\n  dup7\n    /* \"#utility.yul\":1962:1982   */\n  gt\n    /* \"#utility.yul\":1959:1999   */\n  iszero\n  tag_84\n  jumpi\n    /* \"#utility.yul\":1995:1996   */\n  0x00\n    /* \"#utility.yul\":1992:1993   */\n  dup1\n    /* \"#utility.yul\":1985:1997   */\n  revert\n    /* \"#utility.yul\":1959:1999   */\ntag_84:\n  pop\n  pop\n    /* \"#utility.yul\":2021:2044   */\n  dup3\n  add\n  swap4\n    /* \"#utility.yul\":2066:2091   */\n  swap2\n  swap1\n  swap3\n  sub\n  swap2\n  pop\n    /* \"#utility.yul\":1766:2097   */\n  jump\t// out\n    /* \"#utility.yul\":2102:2431   */\ntag_47:\n  not(sub(shl(0x60, 0x01), 0x01))\n    /* \"#utility.yul\":2223:2242   */\n  dup2\n  calldataload\n    /* \"#utility.yul\":2302:2313   */\n  dup2\n  dup2\n  and\n  swap2\n    /* \"#utility.yul\":2333:2335   */\n  0x14\n    /* \"#utility.yul\":2325:2336   */\n  dup6\n  lt\n    /* \"#utility.yul\":2322:2425   */\n  iszero\n  tag_86\n  jumpi\n    /* \"#utility.yul\":2412:2414   */\n  dup1\n    /* \"#utility.yul\":2406:2408   */\n  dup2\n    /* \"#utility.yul\":2399:2402   */\n  dup7\n    /* \"#utility.yul\":2395:2397   */\n  0x14\n    /* \"#utility.yul\":2391:2403   */\n  sub\n    /* \"#utility.yul\":2388:2389   */\n  0x03\n    /* \"#utility.yul\":2384:2404   */\n  shl\n    /* \"#utility.yul\":2380:2409   */\n  shl\n    /* \"#utility.yul\":2376:2378   */\n  dup4\n    /* \"#utility.yul\":2372:2410   */\n  and\n    /* \"#utility.yul\":2368:2415   */\n  and\n    /* \"#utility.yul\":2359:2415   */\n  swap3\n  pop\n    /* \"#utility.yul\":2322:2425   */\ntag_86:\n  pop\n  pop\n    /* \"#utility.yul\":2102:2431   */\n  swap3\n  swap2\n  pop\n  pop\n  jump\t// out\ntag_62:\n    /* \"PoolPandoras.sol\":542:25657  contract PoolPandoras is AccessControl, ReentrancyGuard, ERC2771Context {... */\n  mload(0x80)\n  codecopy(0x00, dataOffset(sub_0), dataSize(sub_0))\n  0x00\n  assignImmutable(\"0x9c48eb4d6dc530eaebd0f3a44ad308cfb11d94508e17428616734d2b6609a4de\")\n  return(0x00, dataSize(sub_0))\nstop\n\nsub_0: assembly {\n        /* \"PoolPandoras.sol\":542:25657  contract PoolPandoras is AccessControl, ReentrancyGuard, ERC2771Context {... */\n      mstore(0x40, 0x80)\n      jumpi(tag_1, lt(calldatasize, 0x04))\n      shr(0xe0, calldataload(0x00))\n      dup1\n      0x867d099a\n      gt\n      tag_81\n      jumpi\n      dup1\n      0xbda821e8\n      gt\n      tag_82\n      jumpi\n      dup1\n      0xe63ab1e9\n      gt\n      tag_83\n      jumpi\n      dup1\n      0xf5f11350\n      gt\n      tag_84\n      jumpi\n      dup1\n      0xf6326fb3\n      gt\n      tag_85\n      jumpi\n      dup1\n      0xf6326fb3\n      eq\n      tag_78\n      jumpi\n      dup1\n      0xf688bcfb\n      eq\n      tag_79\n      jumpi\n      dup1\n      0xfd46a171\n      eq\n      tag_80\n      jumpi\n      0x00\n      dup1\n      revert\n    tag_85:\n      dup1\n      0xf5f11350\n      eq\n      tag_76\n      jumpi\n      dup1\n      0xf5f69af2\n      eq\n      tag_77\n      jumpi\n      0x00\n      dup1\n      revert\n    tag_84:\n      dup1\n      0xec87621c\n      gt\n      tag_86\n      jumpi\n      dup1\n      0xec87621c\n      eq\n      tag_73\n      jumpi\n      dup1\n      0xee947a7c\n      eq\n      tag_74\n      jumpi\n      dup1\n      0xf29b2239\n      eq\n      tag_75\n      jumpi\n      0x00\n      dup1\n      revert\n    tag_86:\n      dup1\n      0xe63ab1e9\n      eq\n      tag_71\n      jumpi\n      dup1\n      0xe9fe0c78\n      eq\n      tag_72\n      jumpi\n      0x00\n      dup1\n      revert\n    tag_83:\n      dup1\n      0xda8d5add\n      gt\n      tag_87\n      jumpi\n      dup1\n      0xe15e23c1\n      gt\n      tag_88\n      jumpi\n      dup1\n      0xe15e23c1\n      eq\n      tag_68\n      jumpi\n      dup1\n      0xe340b783\n      eq\n      tag_69\n      jumpi\n      dup1\n      0xe399067f\n      eq\n      tag_70\n      jumpi\n      0x00\n      dup1\n      revert\n    tag_88:\n      dup1\n      0xda8d5add\n      eq\n      tag_66\n      jumpi\n      dup1\n      0xe043b2b2\n      eq\n      tag_67\n      jumpi\n      0x00\n      dup1\n      revert\n    tag_87:\n      dup1\n      0xc771c390\n      gt\n      tag_89\n      jumpi\n      dup1\n      0xc771c390\n      eq\n      tag_63\n      jumpi\n      dup1\n      0xd547741f\n      eq\n      tag_64\n      jumpi\n      dup1\n      0xd830d5cc\n      eq\n      tag_65\n      jumpi\n      0x00\n      dup1\n      revert\n    tag_89:\n      dup1\n      0xbda821e8\n      eq\n      tag_61\n      jumpi\n      dup1\n      0xc6d95b74\n      eq\n      tag_62\n      jumpi\n      0x00\n      dup1\n      revert\n    tag_82:\n      dup1\n      0x93055c43\n      gt\n      tag_90\n      jumpi\n      dup1\n      0xa59aa5a6\n      gt\n      tag_91\n      jumpi\n      dup1\n      0xb2b77ae2\n      gt\n      tag_92\n      jumpi\n      dup1\n      0xb2b77ae2\n      eq\n      tag_58\n      jumpi\n      dup1\n      0xb65ba94b\n      eq\n      tag_59\n      jumpi\n      dup1\n      0xb758aeaa\n      eq\n      tag_60\n      jumpi\n      0x00\n      dup1\n      revert\n    tag_92:\n      dup1\n      0xa59aa5a6\n      eq\n      tag_56\n      jumpi\n      dup1\n      0xb2118a8d\n      eq\n      tag_57\n      jumpi\n      0x00\n      dup1\n      revert\n    tag_91:\n      dup1\n      0x9ddc3912\n      gt\n      tag_93\n      jumpi\n      dup1\n      0x9ddc3912\n      eq\n      tag_53\n      jumpi\n      dup1\n      0x9e657e33\n      eq\n      tag_54\n      jumpi\n      dup1\n      0xa217fddf\n      eq\n      tag_55\n      jumpi\n      0x00\n      dup1\n      revert\n    tag_93:\n      dup1\n      0x93055c43\n      eq\n      tag_51\n      jumpi\n      dup1\n      0x97d9e5b4\n      eq\n      tag_52\n      jumpi\n      0x00\n      dup1\n      revert\n    tag_90:\n      dup1\n      0x89a30271\n      gt\n      tag_94\n      jumpi\n      dup1\n      0x8b713b2e\n      gt\n      tag_95\n      jumpi\n      dup1\n      0x8b713b2e\n      eq\n      tag_48\n      jumpi\n      dup1\n      0x8dd4928e\n      eq\n      tag_49\n      jumpi\n      dup1\n      0x91d14854\n      eq\n      tag_50\n      jumpi\n      0x00\n      dup1\n      revert\n    tag_95:\n      dup1\n      0x89a30271\n      eq\n      tag_46\n      jumpi\n      dup1\n      0x89bad0a6\n      eq\n      tag_47\n      jumpi\n      0x00\n      dup1\n      revert\n    tag_94:\n      dup1\n      0x867d099a\n      eq\n      tag_42\n      jumpi\n      dup1\n      0x885f5029\n      eq\n      tag_43\n      jumpi\n      dup1\n      0x886d589d\n      eq\n      tag_44\n      jumpi\n      dup1\n      0x899aa991\n      eq\n      tag_45\n      jumpi\n      0x00\n      dup1\n      revert\n    tag_81:\n      dup1\n      0x41debf1f\n      gt\n      tag_96\n      jumpi\n      dup1\n      0x64021b13\n      gt\n      tag_97\n      jumpi\n      dup1\n      0x72e55399\n      gt\n      tag_98\n      jumpi\n      dup1\n      0x762e1c73\n      gt\n      tag_99\n      jumpi\n      dup1\n      0x762e1c73\n      eq\n      tag_39\n      jumpi\n      dup1\n      0x76c1d3db\n      eq\n      tag_40\n      jumpi\n      dup1\n      0x7da0a877\n      eq\n      tag_41\n      jumpi\n      0x00\n      dup1\n      revert\n    tag_99:\n      dup1\n      0x72e55399\n      eq\n      tag_37\n      jumpi\n      dup1\n      0x75b238fc\n      eq\n      tag_38\n      jumpi\n      0x00\n      dup1\n      revert\n    tag_98:\n      dup1\n      0x65d5ec96\n      gt\n      tag_100\n      jumpi\n      dup1\n      0x65d5ec96\n      eq\n      tag_34\n      jumpi\n      dup1\n      0x6c6ff56c\n      eq\n      tag_35\n      jumpi\n      dup1\n      0x6ec23995\n      eq\n      tag_36\n      jumpi\n      0x00\n      dup1\n      revert\n    tag_100:\n      dup1\n      0x64021b13\n      eq\n      tag_32\n      jumpi\n      dup1\n      0x6426be48\n      eq\n      tag_33\n      jumpi\n      0x00\n      dup1\n      revert\n    tag_97:\n      dup1\n      0x572b6c05\n      gt\n      tag_101\n      jumpi\n      dup1\n      0x5983b0bd\n      gt\n      tag_102\n      jumpi\n      dup1\n      0x5983b0bd\n      eq\n      tag_29\n      jumpi\n      dup1\n      0x5e2c19db\n      eq\n      tag_30\n      jumpi\n      dup1\n      0x6068d6cb\n      eq\n      tag_31\n      jumpi\n      0x00\n      dup1\n      revert\n    tag_102:\n      dup1\n      0x572b6c05\n      eq\n      tag_27\n      jumpi\n      dup1\n      0x588583a0\n      eq\n      tag_28\n      jumpi\n      0x00\n      dup1\n      revert\n    tag_101:\n      dup1\n      0x4e43603a\n      gt\n      tag_103\n      jumpi\n      dup1\n      0x4e43603a\n      eq\n      tag_24\n      jumpi\n      dup1\n      0x51fb012d\n      eq\n      tag_25\n      jumpi\n      dup1\n      0x53d6fd59\n      eq\n      tag_26\n      jumpi\n      0x00\n      dup1\n      revert\n    tag_103:\n      dup1\n      0x41debf1f\n      eq\n      tag_22\n      jumpi\n      dup1\n      0x47af19aa\n      eq\n      tag_23\n      jumpi\n      0x00\n      dup1\n      revert\n    tag_96:\n      dup1\n      0x27175b23\n      gt\n      tag_104\n      jumpi\n      dup1\n      0x2f2ff15d\n      gt\n      tag_105\n      jumpi\n      dup1\n      0x36568abe\n      gt\n      tag_106\n      jumpi\n      dup1\n      0x36568abe\n      eq\n      tag_19\n      jumpi\n      dup1\n      0x3ac43970\n      eq\n      tag_20\n      jumpi\n      dup1\n      0x3af32abf\n      eq\n      tag_21\n      jumpi\n      0x00\n      dup1\n      revert\n    tag_106:\n      dup1\n      0x2f2ff15d\n      eq\n      tag_17\n      jumpi\n      dup1\n      0x3408567c\n      eq\n      tag_18\n      jumpi\n      0x00\n      dup1\n      revert\n    tag_105:\n      dup1\n      0x2a5bf6d2\n      gt\n      tag_107\n      jumpi\n      dup1\n      0x2a5bf6d2\n      eq\n      tag_14\n      jumpi\n      dup1\n      0x2aad5edd\n      eq\n      tag_15\n      jumpi\n      dup1\n      0x2e1a7d4d\n      eq\n      tag_16\n      jumpi\n      0x00\n      dup1\n      revert\n    tag_107:\n      dup1\n      0x27175b23\n      eq\n      tag_12\n      jumpi\n      dup1\n      0x275991d2\n      eq\n      tag_13\n      jumpi\n      0x00\n      dup1\n      revert\n    tag_104:\n      dup1\n      0x0c016ad5\n      gt\n      tag_108\n      jumpi\n      dup1\n      0x1c5aeef7\n      gt\n      tag_109\n      jumpi\n      dup1\n      0x1c5aeef7\n      eq\n      tag_9\n      jumpi\n      dup1\n      0x246d47b7\n      eq\n      tag_10\n      jumpi\n      dup1\n      0x248a9ca3\n      eq\n      tag_11\n      jumpi\n      0x00\n      dup1\n      revert\n    tag_109:\n      dup1\n      0x0c016ad5\n      eq\n      tag_7\n      jumpi\n      dup1\n      0x17b51642\n      eq\n      tag_8\n      jumpi\n      0x00\n      dup1\n      revert\n    tag_108:\n      dup1\n      0x01ffc9a7\n      eq\n      tag_3\n      jumpi\n      dup1\n      0x04c68af0\n      eq\n      tag_4\n      jumpi\n      dup1\n      0x052d9e7e\n      eq\n      tag_5\n      jumpi\n      dup1\n      0x08f43333\n      eq\n      tag_6\n      jumpi\n      0x00\n      dup1\n      revert\n    tag_1:\n      jumpi(tag_2, calldatasize)\n      stop\n    tag_2:\n      0x00\n      dup1\n      revert\n        /* \"@openzeppelin/contracts/access/AccessControl.sol\":2541:2743   */\n    tag_3:\n      callvalue\n      dup1\n      iszero\n      tag_112\n      jumpi\n      0x00\n      dup1\n      revert\n    tag_112:\n      pop\n      tag_113\n      tag_114\n      calldatasize\n      0x04\n      tag_115\n      jump\t// in\n    tag_114:\n      tag_116\n      jump\t// in\n    tag_113:\n      mload(0x40)\n        /* \"#utility.yul\":470:484   */\n      swap1\n      iszero\n        /* \"#utility.yul\":463:485   */\n      iszero\n        /* \"#utility.yul\":445:486   */\n      dup2\n      mstore\n        /* \"#utility.yul\":433:435   */\n      0x20\n        /* \"#utility.yul\":418:436   */\n      add\n        /* \"@openzeppelin/contracts/access/AccessControl.sol\":2541:2743   */\n    tag_117:\n      mload(0x40)\n      dup1\n      swap2\n      sub\n      swap1\n      return\n        /* \"PoolPandoras.sol\":3153:3215  mapping(address => uint256)     public userTotalReinvestedUSDC */\n    tag_4:\n      callvalue\n      dup1\n      iszero\n      tag_119\n      jumpi\n      0x00\n      dup1\n      revert\n    tag_119:\n      pop\n      tag_120\n      tag_121\n      calldatasize\n      0x04\n      tag_122\n      jump\t// in\n    tag_121:\n      mstore(0x20, 0x0c)\n      0x00\n      swap1\n      dup2\n      mstore\n      0x40\n      swap1\n      keccak256\n      sload\n      dup2\n      jump\n    tag_120:\n      mload(0x40)\n        /* \"#utility.yul\":1035:1060   */\n      swap1\n      dup2\n      mstore\n        /* \"#utility.yul\":1023:1025   */\n      0x20\n        /* \"#utility.yul\":1008:1026   */\n      add\n        /* \"PoolPandoras.sol\":3153:3215  mapping(address => uint256)     public userTotalReinvestedUSDC */\n      tag_117\n        /* \"#utility.yul\":889:1066   */\n      jump\n        /* \"PoolPandoras.sol\":7533:7649  function setWhitelistEnabled(bool enabled) external onlyRole(ADMIN_ROLE) {... */\n    tag_5:\n      callvalue\n      dup1\n      iszero\n      tag_126\n      jumpi\n      0x00\n      dup1\n      revert\n    tag_126:\n      pop\n      tag_127\n      tag_128\n      calldatasize\n      0x04\n      tag_129\n      jump\t// in\n    tag_128:\n      tag_130\n      jump\t// in\n    tag_127:\n      stop\n        /* \"PoolPandoras.sol\":2775:2828  mapping(address => DepositInfo[]) public userDeposits */\n    tag_6:\n      callvalue\n      dup1\n      iszero\n      tag_131\n      jumpi\n      0x00\n      dup1\n      revert\n    tag_131:\n      pop\n      tag_132\n      tag_133\n      calldatasize\n      0x04\n      tag_134\n      jump\t// in\n    tag_133:\n      tag_135\n      jump\t// in\n    tag_132:\n      mload(0x40)\n      tag_117\n      swap7\n      swap6\n      swap5\n      swap4\n      swap3\n      swap2\n      swap1\n      tag_137\n      jump\t// in\n        /* \"PoolPandoras.sol\":2043:2126  bytes32 public constant UTILITY_INJECTOR_ROLE  = keccak256(\"UTILITY_INJECTOR_ROLE\") */\n    tag_7:\n      callvalue\n      dup1\n      iszero\n      tag_138\n      jumpi\n      0x00\n      dup1\n      revert\n    tag_138:\n      pop\n      tag_120\n        /* \"PoolPandoras.sol\":2092:2126  keccak256(\"UTILITY_INJECTOR_ROLE\") */\n      0xf60566c40710959d8d30b6067ce3c53c757bec78eecb0e46b83c7f8194ffae37\n        /* \"PoolPandoras.sol\":2043:2126  bytes32 public constant UTILITY_INJECTOR_ROLE  = keccak256(\"UTILITY_INJECTOR_ROLE\") */\n      dup2\n      jump\n        /* \"PoolPandoras.sol\":9419:9783  function returnInvestmentETH() external payable onlyRole(MANAGER_ROLE) nonReentrant {... */\n    tag_8:\n      tag_127\n      tag_144\n      jump\t// in\n        /* \"PoolPandoras.sol\":1458:1502  uint256 public maxCapUSDC  = 5_000_000 * 1e6 */\n    tag_9:\n      callvalue\n      dup1\n      iszero\n      tag_145\n      jumpi\n      0x00\n      dup1\n      revert\n    tag_145:\n      pop\n      tag_120\n      sload(0x04)\n      dup2\n      jump\n        /* \"PoolPandoras.sol\":1642:1678  bool public globalLiquidationEnabled */\n    tag_10:\n      callvalue\n      dup1\n      iszero\n      tag_149\n      jumpi\n      0x00\n      dup1\n      revert\n    tag_149:\n      pop\n      sload(0x05)\n      tag_113\n      swap1\n      0x01000000\n      swap1\n      div\n      0xff\n      and\n      dup2\n      jump\n        /* \"@openzeppelin/contracts/access/AccessControl.sol\":3786:3906   */\n    tag_11:\n      callvalue\n      dup1\n      iszero\n      tag_153\n      jumpi\n      0x00\n      dup1\n      revert\n    tag_153:\n      pop\n      tag_120\n      tag_155\n      calldatasize\n      0x04\n      tag_156\n      jump\t// in\n    tag_155:\n        /* \"@openzeppelin/contracts/access/AccessControl.sol\":3851:3858   */\n      0x00\n        /* \"@openzeppelin/contracts/access/AccessControl.sol\":3877:3889   */\n      swap1\n      dup2\n      mstore\n      0x20\n      dup2\n      swap1\n      mstore\n      0x40\n      swap1\n      keccak256\n        /* \"@openzeppelin/contracts/access/AccessControl.sol\":3877:3899   */\n      0x01\n      add\n      sload\n      swap1\n        /* \"@openzeppelin/contracts/access/AccessControl.sol\":3786:3906   */\n      jump\n        /* \"PoolPandoras.sol\":3393:3426  uint256 public totalDepositedUSDC */\n    tag_12:\n      callvalue\n      dup1\n      iszero\n      tag_159\n      jumpi\n      0x00\n      dup1\n      revert\n    tag_159:\n      pop\n      tag_120\n      sload(0x10)\n      dup2\n      jump\n        /* \"PoolPandoras.sol\":20897:21342  function reinvestUtilityETH() external nonReentrant {... */\n    tag_13:\n      callvalue\n      dup1\n      iszero\n      tag_163\n      jumpi\n      0x00\n      dup1\n      revert\n    tag_163:\n      pop\n      tag_127\n      tag_165\n      jump\t// in\n        /* \"PoolPandoras.sol\":25203:25329  function getUserDeposits(address user) external view returns (DepositInfo[] memory) {... */\n    tag_14:\n      callvalue\n      dup1\n      iszero\n      tag_166\n      jumpi\n      0x00\n      dup1\n      revert\n    tag_166:\n      pop\n      tag_167\n      tag_168\n      calldatasize\n      0x04\n      tag_122\n      jump\t// in\n    tag_168:\n      tag_169\n      jump\t// in\n    tag_167:\n      mload(0x40)\n      tag_117\n      swap2\n      swap1\n      tag_171\n      jump\t// in\n        /* \"PoolPandoras.sol\":3698:3730  uint256 public totalInvestedUSDC */\n    tag_15:\n      callvalue\n      dup1\n      iszero\n      tag_172\n      jumpi\n      0x00\n      dup1\n      revert\n    tag_172:\n      pop\n      tag_120\n      sload(0x18)\n      dup2\n      jump\n        /* \"PoolPandoras.sol\":12337:13610  function withdraw(uint256 depositIndex) external nonReentrant whenWithdrawalsNotPaused {... */\n    tag_16:\n      callvalue\n      dup1\n      iszero\n      tag_176\n      jumpi\n      0x00\n      dup1\n      revert\n    tag_176:\n      pop\n      tag_127\n      tag_178\n      calldatasize\n      0x04\n      tag_156\n      jump\t// in\n    tag_178:\n      tag_180\n      jump\t// in\n        /* \"@openzeppelin/contracts/access/AccessControl.sol\":4202:4338   */\n    tag_17:\n      callvalue\n      dup1\n      iszero\n      tag_181\n      jumpi\n      0x00\n      dup1\n      revert\n    tag_181:\n      pop\n      tag_127\n      tag_183\n      calldatasize\n      0x04\n      tag_184\n      jump\t// in\n    tag_183:\n      tag_185\n      jump\t// in\n        /* \"PoolPandoras.sol\":2949:3011  mapping(address => uint256)     public userClaimableUtilityETH */\n    tag_18:\n      callvalue\n      dup1\n      iszero\n      tag_186\n      jumpi\n      0x00\n      dup1\n      revert\n    tag_186:\n      pop\n      tag_120\n      tag_188\n      calldatasize\n      0x04\n      tag_122\n      jump\t// in\n    tag_188:\n      mstore(0x20, 0x09)\n      0x00\n      swap1\n      dup2\n      mstore\n      0x40\n      swap1\n      keccak256\n      sload\n      dup2\n      jump\n        /* \"@openzeppelin/contracts/access/AccessControl.sol\":5304:5549   */\n    tag_19:\n      callvalue\n      dup1\n      iszero\n      tag_191\n      jumpi\n      0x00\n      dup1\n      revert\n    tag_191:\n      pop\n      tag_127\n      tag_193\n      calldatasize\n      0x04\n      tag_184\n      jump\t// in\n    tag_193:\n      tag_194\n      jump\t// in\n        /* \"PoolPandoras.sol\":3545:3576  uint256 public totalUtilityUSDC */\n    tag_20:\n      callvalue\n      dup1\n      iszero\n      tag_195\n      jumpi\n      0x00\n      dup1\n      revert\n    tag_195:\n      pop\n      tag_120\n      sload(0x14)\n      dup2\n      jump\n        /* \"PoolPandoras.sol\":2834:2886  mapping(address => bool)        public isWhitelisted */\n    tag_21:\n      callvalue\n      dup1\n      iszero\n      tag_199\n      jumpi\n      0x00\n      dup1\n      revert\n    tag_199:\n      pop\n      tag_113\n      tag_201\n      calldatasize\n      0x04\n      tag_122\n      jump\t// in\n    tag_201:\n      mstore(0x20, 0x07)\n      0x00\n      swap1\n      dup2\n      mstore\n      0x40\n      swap1\n      keccak256\n      sload\n      0xff\n      and\n      dup2\n      jump\n        /* \"PoolPandoras.sol\":19492:20051  function assignUtilityUSDCBatch(address[] calldata users, uint256[] calldata amounts) external onlyRole(ADMIN_ROLE) {... */\n    tag_22:\n      callvalue\n      dup1\n      iszero\n      tag_204\n      jumpi\n      0x00\n      dup1\n      revert\n    tag_204:\n      pop\n      tag_127\n      tag_206\n      calldatasize\n      0x04\n      tag_207\n      jump\t// in\n    tag_206:\n      tag_208\n      jump\t// in\n        /* \"PoolPandoras.sol\":7828:8190  function setWhitelistBatch(address[] calldata users, bool[] calldata statuses) external onlyRole(ADMIN_ROLE) {... */\n    tag_23:\n      callvalue\n      dup1\n      iszero\n      tag_209\n      jumpi\n      0x00\n      dup1\n      revert\n    tag_209:\n      pop\n      tag_127\n      tag_211\n      calldatasize\n      0x04\n      tag_207\n      jump\t// in\n    tag_211:\n      tag_213\n      jump\t// in\n        /* \"PoolPandoras.sol\":24064:25197  function getUserStats(address user) external view returns (... */\n    tag_24:\n      callvalue\n      dup1\n      iszero\n      tag_214\n      jumpi\n      0x00\n      dup1\n      revert\n    tag_214:\n      pop\n      tag_215\n      tag_216\n      calldatasize\n      0x04\n      tag_122\n      jump\t// in\n    tag_216:\n      tag_217\n      jump\t// in\n    tag_215:\n      0x40\n      dup1\n      mload\n        /* \"#utility.yul\":7178:7203   */\n      swap9\n      dup10\n      mstore\n        /* \"#utility.yul\":7234:7236   */\n      0x20\n        /* \"#utility.yul\":7219:7237   */\n      dup10\n      add\n        /* \"#utility.yul\":7212:7246   */\n      swap8\n      swap1\n      swap8\n      mstore\n        /* \"#utility.yul\":7262:7280   */\n      swap6\n      dup8\n      add\n        /* \"#utility.yul\":7255:7289   */\n      swap5\n      swap1\n      swap5\n      mstore\n        /* \"#utility.yul\":7320:7322   */\n      0x60\n        /* \"#utility.yul\":7305:7323   */\n      dup7\n      add\n        /* \"#utility.yul\":7298:7332   */\n      swap3\n      swap1\n      swap3\n      mstore\n        /* \"#utility.yul\":7363:7366   */\n      0x80\n        /* \"#utility.yul\":7348:7367   */\n      dup6\n      add\n        /* \"#utility.yul\":7341:7376   */\n      mstore\n        /* \"#utility.yul\":7407:7410   */\n      0xa0\n        /* \"#utility.yul\":7392:7411   */\n      dup5\n      add\n        /* \"#utility.yul\":7385:7420   */\n      mstore\n        /* \"#utility.yul\":7451:7454   */\n      0xc0\n        /* \"#utility.yul\":7436:7455   */\n      dup4\n      add\n        /* \"#utility.yul\":7429:7464   */\n      mstore\n        /* \"#utility.yul\":7495:7498   */\n      0xe0\n        /* \"#utility.yul\":7480:7499   */\n      dup3\n      add\n        /* \"#utility.yul\":7473:7508   */\n      mstore\n        /* \"#utility.yul\":7165:7168   */\n      0x0100\n        /* \"#utility.yul\":7150:7169   */\n      add\n        /* \"PoolPandoras.sol\":24064:25197  function getUserStats(address user) external view returns (... */\n      tag_117\n        /* \"#utility.yul\":6835:7514   */\n      jump\n        /* \"PoolPandoras.sol\":1608:1636  bool public whitelistEnabled */\n    tag_25:\n      callvalue\n      dup1\n      iszero\n      tag_220\n      jumpi\n      0x00\n      dup1\n      revert\n    tag_220:\n      pop\n      sload(0x05)\n      tag_113\n      swap1\n      0x010000\n      swap1\n      div\n      0xff\n      and\n      dup2\n      jump\n        /* \"PoolPandoras.sol\":7655:7823  function setWhitelist(address user, bool status) external onlyRole(ADMIN_ROLE) {... */\n    tag_26:\n      callvalue\n      dup1\n      iszero\n      tag_224\n      jumpi\n      0x00\n      dup1\n      revert\n    tag_224:\n      pop\n      tag_127\n      tag_226\n      calldatasize\n      0x04\n      tag_227\n      jump\t// in\n    tag_226:\n      tag_228\n      jump\t// in\n        /* \"@openzeppelin/contracts/metatx/ERC2771Context.sol\":1832:1969   */\n    tag_27:\n      callvalue\n      dup1\n      iszero\n      tag_229\n      jumpi\n      0x00\n      dup1\n      revert\n    tag_229:\n      pop\n      tag_113\n      tag_231\n      calldatasize\n      0x04\n      tag_122\n      jump\t// in\n    tag_231:\n        /* \"@openzeppelin/contracts/metatx/ERC2771Context.sol\":1707:1724   */\n      immutable(\"0x9c48eb4d6dc530eaebd0f3a44ad308cfb11d94508e17428616734d2b6609a4de\")\n      sub(shl(0xa0, 0x01), 0x01)\n        /* \"@openzeppelin/contracts/metatx/ERC2771Context.sol\":1931:1962   */\n      swap1\n      dup2\n      and\n      swap2\n      and\n      eq\n      swap1\n        /* \"@openzeppelin/contracts/metatx/ERC2771Context.sol\":1832:1969   */\n      jump\n        /* \"PoolPandoras.sol\":1684:1724  uint48 public globalLiquidationTimestamp */\n    tag_28:\n      callvalue\n      dup1\n      iszero\n      tag_234\n      jumpi\n      0x00\n      dup1\n      revert\n    tag_234:\n      pop\n      sload(0x05)\n      tag_235\n      swap1\n      0x0100000000\n      swap1\n      div\n      0xffffffffffff\n      and\n      dup2\n      jump\n    tag_235:\n      mload(0x40)\n        /* \"#utility.yul\":8013:8027   */\n      0xffffffffffff\n        /* \"#utility.yul\":8001:8028   */\n      swap1\n      swap2\n      and\n        /* \"#utility.yul\":7983:8029   */\n      dup2\n      mstore\n        /* \"#utility.yul\":7971:7973   */\n      0x20\n        /* \"#utility.yul\":7956:7974   */\n      add\n        /* \"PoolPandoras.sol\":1684:1724  uint48 public globalLiquidationTimestamp */\n      tag_117\n        /* \"#utility.yul\":7839:8035   */\n      jump\n        /* \"PoolPandoras.sol\":9789:10216  function returnInvestmentUSDC(uint256 amount) external onlyRole(MANAGER_ROLE) nonReentrant {... */\n    tag_29:\n      callvalue\n      dup1\n      iszero\n      tag_239\n      jumpi\n      0x00\n      dup1\n      revert\n    tag_239:\n      pop\n      tag_127\n      tag_241\n      calldatasize\n      0x04\n      tag_156\n      jump\t// in\n    tag_241:\n      tag_242\n      jump\t// in\n        /* \"PoolPandoras.sol\":2892:2943  mapping(address => bool)        public hasWithdrawn */\n    tag_30:\n      callvalue\n      dup1\n      iszero\n      tag_243\n      jumpi\n      0x00\n      dup1\n      revert\n    tag_243:\n      pop\n      tag_113\n      tag_245\n      calldatasize\n      0x04\n      tag_122\n      jump\t// in\n    tag_245:\n      mstore(0x20, 0x08)\n      0x00\n      swap1\n      dup2\n      mstore\n      0x40\n      swap1\n      keccak256\n      sload\n      0xff\n      and\n      dup2\n      jump\n        /* \"PoolPandoras.sol\":1541:1567  bool public pausedDeposits */\n    tag_31:\n      callvalue\n      dup1\n      iszero\n      tag_248\n      jumpi\n      0x00\n      dup1\n      revert\n    tag_248:\n      pop\n      sload(0x05)\n      tag_113\n      swap1\n      0xff\n      and\n      dup2\n      jump\n        /* \"PoolPandoras.sol\":17681:17942  function injectUtilityETH() external payable onlyRole(UTILITY_INJECTOR_ROLE) {... */\n    tag_32:\n      tag_127\n      tag_253\n      jump\t// in\n        /* \"PoolPandoras.sol\":7302:7527  function setPaused(bool _deposits, bool _withdrawals) external onlyRole(PAUSER_ROLE) {... */\n    tag_33:\n      callvalue\n      dup1\n      iszero\n      tag_254\n      jumpi\n      0x00\n      dup1\n      revert\n    tag_254:\n      pop\n      tag_127\n      tag_256\n      calldatasize\n      0x04\n      tag_257\n      jump\t// in\n    tag_256:\n      tag_258\n      jump\t// in\n        /* \"PoolPandoras.sol\":3221:3276  mapping(address => bool)        public isKnownDepositor */\n    tag_34:\n      callvalue\n      dup1\n      iszero\n      tag_259\n      jumpi\n      0x00\n      dup1\n      revert\n    tag_259:\n      pop\n      tag_113\n      tag_261\n      calldatasize\n      0x04\n      tag_122\n      jump\t// in\n    tag_261:\n      mstore(0x20, 0x0d)\n      0x00\n      swap1\n      dup2\n      mstore\n      0x40\n      swap1\n      keccak256\n      sload\n      0xff\n      and\n      dup2\n      jump\n        /* \"PoolPandoras.sol\":20498:20852  function claimUtilityUSDC() external nonReentrant {... */\n    tag_35:\n      callvalue\n      dup1\n      iszero\n      tag_264\n      jumpi\n      0x00\n      dup1\n      revert\n    tag_264:\n      pop\n      tag_127\n      tag_266\n      jump\t// in\n        /* \"PoolPandoras.sol\":18329:18623  function assignUtilityETH(address user, uint256 amount) external onlyRole(ADMIN_ROLE) {... */\n    tag_36:\n      callvalue\n      dup1\n      iszero\n      tag_267\n      jumpi\n      0x00\n      dup1\n      revert\n    tag_267:\n      pop\n      tag_127\n      tag_269\n      calldatasize\n      0x04\n      tag_134\n      jump\t// in\n    tag_269:\n      tag_270\n      jump\t// in\n        /* \"PoolPandoras.sol\":13649:16109  function batchWithdraw(uint256[] calldata depositIndices) external nonReentrant whenWithdrawalsNotPaused {... */\n    tag_37:\n      callvalue\n      dup1\n      iszero\n      tag_271\n      jumpi\n      0x00\n      dup1\n      revert\n    tag_271:\n      pop\n      tag_127\n      tag_273\n      calldatasize\n      0x04\n      tag_274\n      jump\t// in\n    tag_273:\n      tag_275\n      jump\t// in\n        /* \"PoolPandoras.sol\":1805:1877  bytes32 public constant ADMIN_ROLE             = keccak256(\"ADMIN_ROLE\") */\n    tag_38:\n      callvalue\n      dup1\n      iszero\n      tag_276\n      jumpi\n      0x00\n      dup1\n      revert\n    tag_276:\n      pop\n      tag_120\n      0x00\n      dup1\n      mload\n      0x20\n      data_cb864c43dd5d441bb6271f424f11befa622c032dfd374d226e26fbbdb782b8f8\n      dup4\n      codecopy\n      dup2\n      mload\n      swap2\n      mstore\n      dup2\n      jump\n        /* \"PoolPandoras.sol\":18628:18926  function assignUtilityUSDC(address user, uint256 amount) external onlyRole(ADMIN_ROLE) {... */\n    tag_39:\n      callvalue\n      dup1\n      iszero\n      tag_280\n      jumpi\n      0x00\n      dup1\n      revert\n    tag_280:\n      pop\n      tag_127\n      tag_282\n      calldatasize\n      0x04\n      tag_134\n      jump\t// in\n    tag_282:\n      tag_283\n      jump\t// in\n        /* \"PoolPandoras.sol\":22291:22606  function withdrawUtilityUSDC(uint256 amount) external onlyRole(UTILITY_WITHDRAWER_ROLE) nonReentrant {... */\n    tag_40:\n      callvalue\n      dup1\n      iszero\n      tag_284\n      jumpi\n      0x00\n      dup1\n      revert\n    tag_284:\n      pop\n      tag_127\n      tag_286\n      calldatasize\n      0x04\n      tag_156\n      jump\t// in\n    tag_286:\n      tag_287\n      jump\t// in\n        /* \"@openzeppelin/contracts/metatx/ERC2771Context.sol\":1624:1731   */\n    tag_41:\n      callvalue\n      dup1\n      iszero\n      tag_288\n      jumpi\n      0x00\n      dup1\n      revert\n    tag_288:\n      pop\n        /* \"@openzeppelin/contracts/metatx/ERC2771Context.sol\":1707:1724   */\n      immutable(\"0x9c48eb4d6dc530eaebd0f3a44ad308cfb11d94508e17428616734d2b6609a4de\")\n        /* \"@openzeppelin/contracts/metatx/ERC2771Context.sol\":1624:1731   */\n    tag_289:\n      mload(0x40)\n      sub(shl(0xa0, 0x01), 0x01)\n        /* \"#utility.yul\":9027:9082   */\n      swap1\n      swap2\n      and\n        /* \"#utility.yul\":9009:9083   */\n      dup2\n      mstore\n        /* \"#utility.yul\":8997:8999   */\n      0x20\n        /* \"#utility.yul\":8982:9000   */\n      add\n        /* \"@openzeppelin/contracts/metatx/ERC2771Context.sol\":1624:1731   */\n      tag_117\n        /* \"#utility.yul\":8863:9089   */\n      jump\n        /* \"PoolPandoras.sol\":16168:16706  function unlockDepositsForUser(address user, uint256[] calldata depositIndices) external onlyRole(UNLOCKER_ROLE) {... */\n    tag_42:\n      callvalue\n      dup1\n      iszero\n      tag_293\n      jumpi\n      0x00\n      dup1\n      revert\n    tag_293:\n      pop\n      tag_127\n      tag_295\n      calldatasize\n      0x04\n      tag_296\n      jump\t// in\n    tag_295:\n      tag_297\n      jump\t// in\n        /* \"PoolPandoras.sol\":2132:2217  bytes32 public constant UTILITY_WITHDRAWER_ROLE= keccak256(\"UTILITY_WITHDRAWER_ROLE\") */\n    tag_43:\n      callvalue\n      dup1\n      iszero\n      tag_298\n      jumpi\n      0x00\n      dup1\n      revert\n    tag_298:\n      pop\n      tag_120\n        /* \"PoolPandoras.sol\":2181:2217  keccak256(\"UTILITY_WITHDRAWER_ROLE\") */\n      0x78c90eb9e475048b483a290aee04b5fe48355537c3623c7637b17d3bed71c6ed\n        /* \"PoolPandoras.sol\":2132:2217  bytes32 public constant UTILITY_WITHDRAWER_ROLE= keccak256(\"UTILITY_WITHDRAWER_ROLE\") */\n      dup2\n      jump\n        /* \"PoolPandoras.sol\":3086:3147  mapping(address => uint256)     public userTotalReinvestedETH */\n    tag_44:\n      callvalue\n      dup1\n      iszero\n      tag_302\n      jumpi\n      0x00\n      dup1\n      revert\n    tag_302:\n      pop\n      tag_120\n      tag_304\n      calldatasize\n      0x04\n      tag_122\n      jump\t// in\n    tag_304:\n      mstore(0x20, 0x0b)\n      0x00\n      swap1\n      dup2\n      mstore\n      0x40\n      swap1\n      keccak256\n      sload\n      dup2\n      jump\n        /* \"PoolPandoras.sol\":3355:3387  uint256 public totalDepositedETH */\n    tag_45:\n      callvalue\n      dup1\n      iszero\n      tag_307\n      jumpi\n      0x00\n      dup1\n      revert\n    tag_307:\n      pop\n      tag_120\n      sload(0x0f)\n      dup2\n      jump\n        /* \"PoolPandoras.sol\":1198:1271  address public constant USDC = 0x833589fCD6eDb6E08f4c7C32D4f71b54bdA02913 */\n    tag_46:\n      callvalue\n      dup1\n      iszero\n      tag_311\n      jumpi\n      0x00\n      dup1\n      revert\n    tag_311:\n      pop\n      tag_289\n        /* \"PoolPandoras.sol\":1229:1271  0x833589fCD6eDb6E08f4c7C32D4f71b54bdA02913 */\n      0x833589fcd6edb6e08f4c7c32d4f71b54bda02913\n        /* \"PoolPandoras.sol\":1198:1271  address public constant USDC = 0x833589fCD6eDb6E08f4c7C32D4f71b54bdA02913 */\n      dup2\n      jump\n        /* \"PoolPandoras.sol\":8196:8453  function setUtilityAddress(address newUtilityAddress) external onlyRole(ADMIN_ROLE) {... */\n    tag_47:\n      callvalue\n      dup1\n      iszero\n      tag_315\n      jumpi\n      0x00\n      dup1\n      revert\n    tag_315:\n      pop\n      tag_127\n      tag_317\n      calldatasize\n      0x04\n      tag_122\n      jump\t// in\n    tag_317:\n      tag_318\n      jump\t// in\n        /* \"PoolPandoras.sol\":3432:3464  uint256 public totalWithdrawnETH */\n    tag_48:\n      callvalue\n      dup1\n      iszero\n      tag_319\n      jumpi\n      0x00\n      dup1\n      revert\n    tag_319:\n      pop\n      tag_120\n      sload(0x11)\n      dup2\n      jump\n        /* \"PoolPandoras.sol\":8977:9413  function withdrawForInvestmentUSDC(address to, uint256 amount) external onlyRole(MANAGER_ROLE) nonReentrant {... */\n    tag_49:\n      callvalue\n      dup1\n      iszero\n      tag_323\n      jumpi\n      0x00\n      dup1\n      revert\n    tag_323:\n      pop\n      tag_127\n      tag_325\n      calldatasize\n      0x04\n      tag_134\n      jump\t// in\n    tag_325:\n      tag_326\n      jump\t// in\n        /* \"@openzeppelin/contracts/access/AccessControl.sol\":2830:2966   */\n    tag_50:\n      callvalue\n      dup1\n      iszero\n      tag_327\n      jumpi\n      0x00\n      dup1\n      revert\n    tag_327:\n      pop\n      tag_113\n      tag_329\n      calldatasize\n      0x04\n      tag_184\n      jump\t// in\n    tag_329:\n        /* \"@openzeppelin/contracts/access/AccessControl.sol\":2907:2911   */\n      0x00\n        /* \"@openzeppelin/contracts/access/AccessControl.sol\":2930:2942   */\n      swap2\n      dup3\n      mstore\n      0x20\n      dup3\n      dup2\n      mstore\n      0x40\n      dup1\n      dup5\n      keccak256\n      sub(shl(0xa0, 0x01), 0x01)\n        /* \"@openzeppelin/contracts/access/AccessControl.sol\":2930:2959   */\n      swap4\n      swap1\n      swap4\n      and\n      dup5\n      mstore\n      swap2\n      swap1\n      mstore\n      swap1\n      keccak256\n      sload\n      0xff\n      and\n      swap1\n        /* \"@openzeppelin/contracts/access/AccessControl.sol\":2830:2966   */\n      jump\n        /* \"PoolPandoras.sol\":21849:22285  function withdrawUtilityETH(uint256 amount) external onlyRole(UTILITY_WITHDRAWER_ROLE) nonReentrant {... */\n    tag_51:\n      callvalue\n      dup1\n      iszero\n      tag_332\n      jumpi\n      0x00\n      dup1\n      revert\n    tag_332:\n      pop\n      tag_127\n      tag_334\n      calldatasize\n      0x04\n      tag_156\n      jump\t// in\n    tag_334:\n      tag_335\n      jump\t// in\n        /* \"PoolPandoras.sol\":3582:3615  uint256 public totalReinvestedETH */\n    tag_52:\n      callvalue\n      dup1\n      iszero\n      tag_336\n      jumpi\n      0x00\n      dup1\n      revert\n    tag_336:\n      pop\n      tag_120\n      sload(0x15)\n      dup2\n      jump\n        /* \"PoolPandoras.sol\":1408:1452  uint256 public maxCapETH   = 5_000_000 ether */\n    tag_53:\n      callvalue\n      dup1\n      iszero\n      tag_340\n      jumpi\n      0x00\n      dup1\n      revert\n    tag_340:\n      pop\n      tag_120\n      sload(0x03)\n      dup2\n      jump\n        /* \"PoolPandoras.sol\":3283:3314  address[] public withdrawnUsers */\n    tag_54:\n      callvalue\n      dup1\n      iszero\n      tag_344\n      jumpi\n      0x00\n      dup1\n      revert\n    tag_344:\n      pop\n      tag_289\n      tag_346\n      calldatasize\n      0x04\n      tag_156\n      jump\t// in\n    tag_346:\n      tag_347\n      jump\t// in\n        /* \"@openzeppelin/contracts/access/AccessControl.sol\":2196:2245   */\n    tag_55:\n      callvalue\n      dup1\n      iszero\n      tag_349\n      jumpi\n      0x00\n      dup1\n      revert\n    tag_349:\n      pop\n      tag_120\n        /* \"@openzeppelin/contracts/access/AccessControl.sol\":2241:2245   */\n      0x00\n        /* \"@openzeppelin/contracts/access/AccessControl.sol\":2196:2245   */\n      dup2\n      jump\n        /* \"PoolPandoras.sol\":22659:24058  function getVaultStats() external view returns (... */\n    tag_56:\n      callvalue\n      dup1\n      iszero\n      tag_353\n      jumpi\n      0x00\n      dup1\n      revert\n    tag_353:\n      pop\n      tag_354\n      tag_355\n      jump\t// in\n    tag_354:\n      0x40\n      dup1\n      mload\n        /* \"#utility.yul\":10125:10150   */\n      swap15\n      dup16\n      mstore\n        /* \"#utility.yul\":10181:10183   */\n      0x20\n        /* \"#utility.yul\":10166:10184   */\n      dup16\n      add\n        /* \"#utility.yul\":10159:10193   */\n      swap14\n      swap1\n      swap14\n      mstore\n        /* \"#utility.yul\":10209:10227   */\n      swap12\n      dup14\n      add\n        /* \"#utility.yul\":10202:10236   */\n      swap11\n      swap1\n      swap11\n      mstore\n        /* \"#utility.yul\":10267:10269   */\n      0x60\n        /* \"#utility.yul\":10252:10270   */\n      dup13\n      add\n        /* \"#utility.yul\":10245:10279   */\n      swap9\n      swap1\n      swap9\n      mstore\n        /* \"#utility.yul\":10310:10313   */\n      0x80\n        /* \"#utility.yul\":10295:10314   */\n      dup12\n      add\n        /* \"#utility.yul\":10288:10323   */\n      swap7\n      swap1\n      swap7\n      mstore\n        /* \"#utility.yul\":10354:10357   */\n      0xa0\n        /* \"#utility.yul\":10339:10358   */\n      dup11\n      add\n        /* \"#utility.yul\":10332:10367   */\n      swap5\n      swap1\n      swap5\n      mstore\n        /* \"#utility.yul\":10398:10401   */\n      0xc0\n        /* \"#utility.yul\":10383:10402   */\n      dup10\n      add\n        /* \"#utility.yul\":10376:10411   */\n      swap3\n      swap1\n      swap3\n      mstore\n        /* \"#utility.yul\":10442:10445   */\n      0xe0\n        /* \"#utility.yul\":10427:10446   */\n      dup9\n      add\n        /* \"#utility.yul\":10420:10455   */\n      mstore\n        /* \"#utility.yul\":10486:10489   */\n      0x0100\n        /* \"#utility.yul\":10471:10490   */\n      dup8\n      add\n        /* \"#utility.yul\":10464:10499   */\n      mstore\n        /* \"#utility.yul\":10530:10533   */\n      0x0120\n        /* \"#utility.yul\":10515:10534   */\n      dup7\n      add\n        /* \"#utility.yul\":10508:10543   */\n      mstore\n        /* \"#utility.yul\":10574:10577   */\n      0x0140\n        /* \"#utility.yul\":10559:10578   */\n      dup6\n      add\n        /* \"#utility.yul\":10552:10588   */\n      mstore\n        /* \"#utility.yul\":10619:10622   */\n      0x0160\n        /* \"#utility.yul\":10604:10623   */\n      dup5\n      add\n        /* \"#utility.yul\":10597:10633   */\n      mstore\n        /* \"#utility.yul\":10664:10667   */\n      0x0180\n        /* \"#utility.yul\":10649:10668   */\n      dup4\n      add\n        /* \"#utility.yul\":10642:10678   */\n      mstore\n        /* \"#utility.yul\":10709:10712   */\n      0x01a0\n        /* \"#utility.yul\":10694:10713   */\n      dup3\n      add\n        /* \"#utility.yul\":10687:10723   */\n      mstore\n        /* \"#utility.yul\":10112:10115   */\n      0x01c0\n        /* \"#utility.yul\":10097:10116   */\n      add\n        /* \"PoolPandoras.sol\":22659:24058  function getVaultStats() external view returns (... */\n      tag_117\n        /* \"#utility.yul\":9610:10729   */\n      jump\n        /* \"PoolPandoras.sol\":25377:25620  function rescueERC20(address token, address to, uint256 amount) external onlyRole(ADMIN_ROLE) {... */\n    tag_57:\n      callvalue\n      dup1\n      iszero\n      tag_358\n      jumpi\n      0x00\n      dup1\n      revert\n    tag_358:\n      pop\n      tag_127\n      tag_360\n      calldatasize\n      0x04\n      tag_361\n      jump\t// in\n    tag_360:\n      tag_362\n      jump\t// in\n        /* \"PoolPandoras.sol\":1573:1602  bool public pausedWithdrawals */\n    tag_58:\n      callvalue\n      dup1\n      iszero\n      tag_363\n      jumpi\n      0x00\n      dup1\n      revert\n    tag_363:\n      pop\n      sload(0x05)\n      tag_113\n      swap1\n      0x0100\n      swap1\n      div\n      0xff\n      and\n      dup2\n      jump\n        /* \"PoolPandoras.sol\":3509:3539  uint256 public totalUtilityETH */\n    tag_59:\n      callvalue\n      dup1\n      iszero\n      tag_367\n      jumpi\n      0x00\n      dup1\n      revert\n    tag_367:\n      pop\n      tag_120\n      sload(0x13)\n      dup2\n      jump\n        /* \"PoolPandoras.sol\":18932:19487  function assignUtilityETHBatch(address[] calldata users, uint256[] calldata amounts) external onlyRole(ADMIN_ROLE) {... */\n    tag_60:\n      callvalue\n      dup1\n      iszero\n      tag_371\n      jumpi\n      0x00\n      dup1\n      revert\n    tag_371:\n      pop\n      tag_127\n      tag_373\n      calldatasize\n      0x04\n      tag_207\n      jump\t// in\n    tag_373:\n      tag_374\n      jump\t// in\n        /* \"PoolPandoras.sol\":21348:21800  function reinvestUtilityUSDC() external nonReentrant {... */\n    tag_61:\n      callvalue\n      dup1\n      iszero\n      tag_375\n      jumpi\n      0x00\n      dup1\n      revert\n    tag_375:\n      pop\n      tag_127\n      tag_377\n      jump\t// in\n        /* \"PoolPandoras.sol\":8495:8971  function withdrawForInvestmentETH(address to, uint256 amount) external onlyRole(MANAGER_ROLE) nonReentrant {... */\n    tag_62:\n      callvalue\n      dup1\n      iszero\n      tag_378\n      jumpi\n      0x00\n      dup1\n      revert\n    tag_378:\n      pop\n      tag_127\n      tag_380\n      calldatasize\n      0x04\n      tag_134\n      jump\t// in\n    tag_380:\n      tag_381\n      jump\t// in\n        /* \"PoolPandoras.sol\":6880:7040  function setLockupPeriod(uint256 newPeriod) external onlyRole(ADMIN_ROLE) {... */\n    tag_63:\n      callvalue\n      dup1\n      iszero\n      tag_382\n      jumpi\n      0x00\n      dup1\n      revert\n    tag_382:\n      pop\n      tag_127\n      tag_384\n      calldatasize\n      0x04\n      tag_156\n      jump\t// in\n    tag_384:\n      tag_385\n      jump\t// in\n        /* \"@openzeppelin/contracts/access/AccessControl.sol\":4618:4756   */\n    tag_64:\n      callvalue\n      dup1\n      iszero\n      tag_386\n      jumpi\n      0x00\n      dup1\n      revert\n    tag_386:\n      pop\n      tag_127\n      tag_388\n      calldatasize\n      0x04\n      tag_184\n      jump\t// in\n    tag_388:\n      tag_389\n      jump\t// in\n        /* \"PoolPandoras.sol\":17948:18281  function injectUtilityUSDC(uint256 amount) external onlyRole(UTILITY_INJECTOR_ROLE) {... */\n    tag_65:\n      callvalue\n      dup1\n      iszero\n      tag_390\n      jumpi\n      0x00\n      dup1\n      revert\n    tag_390:\n      pop\n      tag_127\n      tag_392\n      calldatasize\n      0x04\n      tag_156\n      jump\t// in\n    tag_392:\n      tag_393\n      jump\t// in\n        /* \"PoolPandoras.sol\":16712:17376  function enableGlobalLiquidation() external onlyRole(ADMIN_ROLE) {... */\n    tag_66:\n      callvalue\n      dup1\n      iszero\n      tag_394\n      jumpi\n      0x00\n      dup1\n      revert\n    tag_394:\n      pop\n      tag_127\n      tag_396\n      jump\t// in\n        /* \"PoolPandoras.sol\":1962:2037  bytes32 public constant UNLOCKER_ROLE          = keccak256(\"UNLOCKER_ROLE\") */\n    tag_67:\n      callvalue\n      dup1\n      iszero\n      tag_397\n      jumpi\n      0x00\n      dup1\n      revert\n    tag_397:\n      pop\n      tag_120\n        /* \"PoolPandoras.sol\":2011:2037  keccak256(\"UNLOCKER_ROLE\") */\n      0xc806897caf4fd5068191157e44d3988e43139a37e0b97b6793e1ed1184140604\n        /* \"PoolPandoras.sol\":1962:2037  bytes32 public constant UNLOCKER_ROLE          = keccak256(\"UNLOCKER_ROLE\") */\n      dup2\n      jump\n        /* \"PoolPandoras.sol\":3621:3655  uint256 public totalReinvestedUSDC */\n    tag_68:\n      callvalue\n      dup1\n      iszero\n      tag_401\n      jumpi\n      0x00\n      dup1\n      revert\n    tag_401:\n      pop\n      tag_120\n      sload(0x16)\n      dup2\n      jump\n        /* \"PoolPandoras.sol\":3470:3503  uint256 public totalWithdrawnUSDC */\n    tag_69:\n      callvalue\n      dup1\n      iszero\n      tag_405\n      jumpi\n      0x00\n      dup1\n      revert\n    tag_405:\n      pop\n      tag_120\n      sload(0x12)\n      dup2\n      jump\n        /* \"PoolPandoras.sol\":20093:20492  function claimUtilityETH() external nonReentrant {... */\n    tag_70:\n      callvalue\n      dup1\n      iszero\n      tag_409\n      jumpi\n      0x00\n      dup1\n      revert\n    tag_409:\n      pop\n      tag_127\n      tag_411\n      jump\t// in\n        /* \"PoolPandoras.sol\":1883:1956  bytes32 public constant PAUSER_ROLE            = keccak256(\"PAUSER_ROLE\") */\n    tag_71:\n      callvalue\n      dup1\n      iszero\n      tag_412\n      jumpi\n      0x00\n      dup1\n      revert\n    tag_412:\n      pop\n      tag_120\n        /* \"PoolPandoras.sol\":1932:1956  keccak256(\"PAUSER_ROLE\") */\n      0x65d7a28e3265b37a6474929f336521b332c1681b933f6cb9f3376673440d862a\n        /* \"PoolPandoras.sol\":1883:1956  bytes32 public constant PAUSER_ROLE            = keccak256(\"PAUSER_ROLE\") */\n      dup2\n      jump\n        /* \"PoolPandoras.sol\":3017:3080  mapping(address => uint256)     public userClaimableUtilityUSDC */\n    tag_72:\n      callvalue\n      dup1\n      iszero\n      tag_416\n      jumpi\n      0x00\n      dup1\n      revert\n    tag_416:\n      pop\n      tag_120\n      tag_418\n      calldatasize\n      0x04\n      tag_122\n      jump\t// in\n    tag_418:\n      mstore(0x20, 0x0a)\n      0x00\n      swap1\n      dup2\n      mstore\n      0x40\n      swap1\n      keccak256\n      sload\n      dup2\n      jump\n        /* \"PoolPandoras.sol\":2223:2297  bytes32 public constant MANAGER_ROLE           = keccak256(\"MANAGER_ROLE\") */\n    tag_73:\n      callvalue\n      dup1\n      iszero\n      tag_421\n      jumpi\n      0x00\n      dup1\n      revert\n    tag_421:\n      pop\n      tag_120\n        /* \"PoolPandoras.sol\":2272:2297  keccak256(\"MANAGER_ROLE\") */\n      0x241ecf16d79d0f8dbfb92cbc07fe17840425976cf0667f022fe9877caa831b08\n        /* \"PoolPandoras.sol\":2223:2297  bytes32 public constant MANAGER_ROLE           = keccak256(\"MANAGER_ROLE\") */\n      dup2\n      jump\n        /* \"PoolPandoras.sol\":1364:1402  uint256 public lockupPeriod = 180 days */\n    tag_74:\n      callvalue\n      dup1\n      iszero\n      tag_425\n      jumpi\n      0x00\n      dup1\n      revert\n    tag_425:\n      pop\n      tag_120\n      sload(0x02)\n      dup2\n      jump\n        /* \"PoolPandoras.sol\":1731:1760  address public utilityAddress */\n    tag_75:\n      callvalue\n      dup1\n      iszero\n      tag_429\n      jumpi\n      0x00\n      dup1\n      revert\n    tag_429:\n      pop\n      sload(0x05)\n      tag_289\n      swap1\n      shl(0x50, 0x01)\n      swap1\n      div\n      sub(shl(0xa0, 0x01), 0x01)\n      and\n      dup2\n      jump\n        /* \"PoolPandoras.sol\":17382:17642  function setDepositsAsRedeemable(address user, uint256[] calldata depositIndices) external onlyRole(ADMIN_ROLE) {... */\n    tag_76:\n      callvalue\n      dup1\n      iszero\n      tag_433\n      jumpi\n      0x00\n      dup1\n      revert\n    tag_433:\n      pop\n      tag_127\n      tag_435\n      calldatasize\n      0x04\n      tag_296\n      jump\t// in\n    tag_435:\n      tag_436\n      jump\t// in\n        /* \"PoolPandoras.sol\":7046:7296  function setMaxCap(TokenType token, uint256 newCap) external onlyRole(ADMIN_ROLE) {... */\n    tag_77:\n      callvalue\n      dup1\n      iszero\n      tag_437\n      jumpi\n      0x00\n      dup1\n      revert\n    tag_437:\n      pop\n      tag_127\n      tag_439\n      calldatasize\n      0x04\n      tag_440\n      jump\t// in\n    tag_439:\n      tag_441\n      jump\t// in\n        /* \"PoolPandoras.sol\":10248:10667  function depositETH() external payable nonReentrant whenDepositsNotPaused {... */\n    tag_78:\n      tag_127\n      tag_443\n      jump\t// in\n        /* \"PoolPandoras.sol\":10673:11154  function depositUSDC(uint256 amount) external nonReentrant whenDepositsNotPaused {... */\n    tag_79:\n      callvalue\n      dup1\n      iszero\n      tag_444\n      jumpi\n      0x00\n      dup1\n      revert\n    tag_444:\n      pop\n      tag_127\n      tag_446\n      calldatasize\n      0x04\n      tag_156\n      jump\t// in\n    tag_446:\n      tag_447\n      jump\t// in\n        /* \"PoolPandoras.sol\":3661:3692  uint256 public totalInvestedETH */\n    tag_80:\n      callvalue\n      dup1\n      iszero\n      tag_448\n      jumpi\n      0x00\n      dup1\n      revert\n    tag_448:\n      pop\n      tag_120\n      sload(0x17)\n      dup2\n      jump\n        /* \"@openzeppelin/contracts/access/AccessControl.sol\":2541:2743   */\n    tag_116:\n        /* \"@openzeppelin/contracts/access/AccessControl.sol\":2626:2630   */\n      0x00\n      not(sub(shl(0xe0, 0x01), 0x01))\n        /* \"@openzeppelin/contracts/access/AccessControl.sol\":2649:2696   */\n      dup3\n      and\n      shl(0xe0, 0x7965db0b)\n      eq\n      dup1\n        /* \"@openzeppelin/contracts/access/AccessControl.sol\":2649:2736   */\n      tag_454\n      jumpi\n      pop\n      shl(0xe0, 0x01ffc9a7)\n      not(sub(shl(0xe0, 0x01), 0x01))\n        /* \"@openzeppelin/contracts/utils/introspection/ERC165.sol\":829:869   */\n      dup4\n      and\n      eq\n        /* \"@openzeppelin/contracts/access/AccessControl.sol\":2700:2736   */\n    tag_454:\n        /* \"@openzeppelin/contracts/access/AccessControl.sol\":2642:2736   */\n      swap3\n        /* \"@openzeppelin/contracts/access/AccessControl.sol\":2541:2743   */\n      swap2\n      pop\n      pop\n      jump\t// out\n        /* \"PoolPandoras.sol\":7533:7649  function setWhitelistEnabled(bool enabled) external onlyRole(ADMIN_ROLE) {... */\n    tag_130:\n      0x00\n      dup1\n      mload\n      0x20\n      data_cb864c43dd5d441bb6271f424f11befa622c032dfd374d226e26fbbdb782b8f8\n      dup4\n      codecopy\n      dup2\n      mload\n      swap2\n      mstore\n        /* \"@openzeppelin/contracts/access/AccessControl.sol\":2473:2489   */\n      tag_457\n        /* \"@openzeppelin/contracts/access/AccessControl.sol\":2484:2488   */\n      dup2\n        /* \"@openzeppelin/contracts/access/AccessControl.sol\":2473:2483   */\n      tag_458\n        /* \"@openzeppelin/contracts/access/AccessControl.sol\":2473:2489   */\n      jump\t// in\n    tag_457:\n      pop\n        /* \"PoolPandoras.sol\":7616:7632  whitelistEnabled */\n      0x05\n        /* \"PoolPandoras.sol\":7616:7642  whitelistEnabled = enabled */\n      dup1\n      sload\n      swap2\n      iszero\n      iszero\n      0x010000\n      mul\n      not(0xff0000)\n      swap1\n      swap3\n      and\n      swap2\n      swap1\n      swap2\n      or\n      swap1\n      sstore\n        /* \"PoolPandoras.sol\":7533:7649  function setWhitelistEnabled(bool enabled) external onlyRole(ADMIN_ROLE) {... */\n      jump\t// out\n        /* \"PoolPandoras.sol\":2775:2828  mapping(address => DepositInfo[]) public userDeposits */\n    tag_135:\n      mstore(0x20, 0x06)\n      dup2\n      0x00\n      mstore\n      keccak256(0x00, 0x40)\n      dup2\n      dup2\n      sload\n      dup2\n      lt\n      tag_460\n      jumpi\n      0x00\n      dup1\n      revert\n    tag_460:\n      0x00\n      swap2\n      dup3\n      mstore\n      0x20\n      swap1\n      swap2\n      keccak256\n      0x02\n      swap1\n      swap2\n      mul\n      add\n      dup1\n      sload\n      0x01\n      swap1\n      swap2\n      add\n      sload\n      sub(shl(0x60, 0x01), 0x01)\n      dup1\n      dup4\n      and\n      swap5\n      pop\n      shl(0x60, 0x01)\n      dup4\n      div\n      and\n      swap3\n      pop\n      0xffffffffffff\n      shl(0xc0, 0x01)\n      swap1\n      swap3\n      div\n      dup3\n      and\n      swap2\n      dup2\n      and\n      swap1\n      0xff\n      0x01000000000000\n      dup3\n      div\n      dup2\n      and\n      swap2\n      shl(0x38, 0x01)\n      swap1\n      div\n      and\n      dup7\n      jump\t// out\n        /* \"PoolPandoras.sol\":9419:9783  function returnInvestmentETH() external payable onlyRole(MANAGER_ROLE) nonReentrant {... */\n    tag_144:\n        /* \"PoolPandoras.sol\":2272:2297  keccak256(\"MANAGER_ROLE\") */\n      0x241ecf16d79d0f8dbfb92cbc07fe17840425976cf0667f022fe9877caa831b08\n        /* \"@openzeppelin/contracts/access/AccessControl.sol\":2473:2489   */\n      tag_463\n        /* \"@openzeppelin/contracts/access/AccessControl.sol\":2484:2488   */\n      dup2\n        /* \"@openzeppelin/contracts/access/AccessControl.sol\":2473:2483   */\n      tag_458\n        /* \"@openzeppelin/contracts/access/AccessControl.sol\":2473:2489   */\n      jump\t// in\n    tag_463:\n        /* \"@openzeppelin/contracts/utils/ReentrancyGuard.sol\":2500:2521   */\n      tag_465\n        /* \"@openzeppelin/contracts/utils/ReentrancyGuard.sol\":2500:2519   */\n      tag_466\n        /* \"@openzeppelin/contracts/utils/ReentrancyGuard.sol\":2500:2521   */\n      jump\t// in\n    tag_465:\n        /* \"PoolPandoras.sol\":9517:9526  msg.value */\n      callvalue\n        /* \"PoolPandoras.sol\":9530:9531  0 */\n      0x00\n        /* \"PoolPandoras.sol\":9517:9531  msg.value == 0 */\n      sub\n        /* \"PoolPandoras.sol\":9513:9555  if (msg.value == 0) revert InvalidAmount() */\n      tag_468\n      jumpi\n        /* \"PoolPandoras.sol\":9540:9555  InvalidAmount() */\n      mload(0x40)\n      shl(0xe1, 0x162908e3)\n      dup2\n      mstore\n      0x04\n      add\n      mload(0x40)\n      dup1\n      swap2\n      sub\n      swap1\n      revert\n        /* \"PoolPandoras.sol\":9513:9555  if (msg.value == 0) revert InvalidAmount() */\n    tag_468:\n        /* \"PoolPandoras.sol\":9581:9597  totalInvestedETH */\n      sload(0x17)\n        /* \"PoolPandoras.sol\":9569:9578  msg.value */\n      callvalue\n        /* \"PoolPandoras.sol\":9569:9597  msg.value > totalInvestedETH */\n      gt\n        /* \"PoolPandoras.sol\":9565:9637  if (msg.value > totalInvestedETH) revert ReturnedAmountExceedsInvested() */\n      iszero\n      tag_469\n      jumpi\n        /* \"PoolPandoras.sol\":9606:9637  ReturnedAmountExceedsInvested() */\n      mload(0x40)\n      shl(0xe2, 0x04711311)\n      dup2\n      mstore\n      0x04\n      add\n      mload(0x40)\n      dup1\n      swap2\n      sub\n      swap1\n      revert\n        /* \"PoolPandoras.sol\":9565:9637  if (msg.value > totalInvestedETH) revert ReturnedAmountExceedsInvested() */\n    tag_469:\n        /* \"PoolPandoras.sol\":9676:9685  msg.value */\n      callvalue\n        /* \"PoolPandoras.sol\":9656:9672  totalInvestedETH */\n      0x17\n      0x00\n        /* \"PoolPandoras.sol\":9656:9685  totalInvestedETH -= msg.value */\n      dup3\n      dup3\n      sload\n      tag_470\n      swap2\n      swap1\n      tag_471\n      jump\t// in\n    tag_470:\n      swap1\n      swap2\n      sstore\n      pop\n        /* \"PoolPandoras.sol\":9720:9732  _msgSender() */\n      tag_472\n      swap1\n      pop\n        /* \"PoolPandoras.sol\":9720:9730  _msgSender */\n      tag_473\n        /* \"PoolPandoras.sol\":9720:9732  _msgSender() */\n      jump\t// in\n    tag_472:\n      sub(shl(0xa0, 0x01), 0x01)\n        /* \"PoolPandoras.sol\":9701:9776  InvestmentReturned(_msgSender(), TokenType.ETH, msg.value, block.timestamp) */\n      and\n      0x1b0029d3a4003762f16d0dc71199ce167b1d4bf00c5b97a3e28f613e921d6540\n        /* \"PoolPandoras.sol\":9734:9747  TokenType.ETH */\n      0x00\n        /* \"PoolPandoras.sol\":9749:9758  msg.value */\n      callvalue\n        /* \"PoolPandoras.sol\":9760:9775  block.timestamp */\n      timestamp\n        /* \"PoolPandoras.sol\":9701:9776  InvestmentReturned(_msgSender(), TokenType.ETH, msg.value, block.timestamp) */\n      mload(0x40)\n      tag_474\n      swap4\n      swap3\n      swap2\n      swap1\n      tag_475\n      jump\t// in\n    tag_474:\n      mload(0x40)\n      dup1\n      swap2\n      sub\n      swap1\n      log2\n        /* \"@openzeppelin/contracts/utils/ReentrancyGuard.sol\":2542:2562   */\n      tag_476\n        /* \"@openzeppelin/contracts/utils/ReentrancyGuard.sol\":1857:1858   */\n      0x01\n        /* \"@openzeppelin/contracts/utils/ReentrancyGuard.sol\":3068:3089   */\n      dup1\n      sstore\n        /* \"@openzeppelin/contracts/utils/ReentrancyGuard.sol\":2888:3096   */\n      jump\n        /* \"@openzeppelin/contracts/utils/ReentrancyGuard.sol\":2542:2562   */\n    tag_476:\n        /* \"PoolPandoras.sol\":9419:9783  function returnInvestmentETH() external payable onlyRole(MANAGER_ROLE) nonReentrant {... */\n      pop\n      jump\t// out\n        /* \"PoolPandoras.sol\":20897:21342  function reinvestUtilityETH() external nonReentrant {... */\n    tag_165:\n        /* \"@openzeppelin/contracts/utils/ReentrancyGuard.sol\":2500:2521   */\n      tag_480\n        /* \"@openzeppelin/contracts/utils/ReentrancyGuard.sol\":2500:2519   */\n      tag_466\n        /* \"@openzeppelin/contracts/utils/ReentrancyGuard.sol\":2500:2521   */\n      jump\t// in\n    tag_480:\n        /* \"PoolPandoras.sol\":20959:20971  address user */\n      0x00\n        /* \"PoolPandoras.sol\":20974:20986  _msgSender() */\n      tag_482\n        /* \"PoolPandoras.sol\":20974:20984  _msgSender */\n      tag_473\n        /* \"PoolPandoras.sol\":20974:20986  _msgSender() */\n      jump\t// in\n    tag_482:\n      sub(shl(0xa0, 0x01), 0x01)\n        /* \"PoolPandoras.sol\":21010:21039  userClaimableUtilityETH[user] */\n      dup2\n      and\n        /* \"PoolPandoras.sol\":20996:21007  uint256 amt */\n      0x00\n        /* \"PoolPandoras.sol\":21010:21039  userClaimableUtilityETH[user] */\n      swap1\n      dup2\n      mstore\n        /* \"PoolPandoras.sol\":21010:21033  userClaimableUtilityETH */\n      0x09\n        /* \"PoolPandoras.sol\":21010:21039  userClaimableUtilityETH[user] */\n      0x20\n      mstore\n      0x40\n      dup2\n      keccak256\n      sload\n        /* \"PoolPandoras.sol\":20959:20986  address user = _msgSender() */\n      swap2\n      swap3\n      pop\n        /* \"PoolPandoras.sol\":21053:21061  amt == 0 */\n      dup2\n      swap1\n      sub\n        /* \"PoolPandoras.sol\":21049:21088  if (amt == 0) revert NoUtilityToClaim() */\n      tag_483\n      jumpi\n        /* \"PoolPandoras.sol\":21070:21088  NoUtilityToClaim() */\n      mload(0x40)\n      shl(0xe2, 0x3bd65a7b)\n      dup2\n      mstore\n      0x04\n      add\n      mload(0x40)\n      dup1\n      swap2\n      sub\n      swap1\n      revert\n        /* \"PoolPandoras.sol\":21049:21088  if (amt == 0) revert NoUtilityToClaim() */\n    tag_483:\n      sub(shl(0xa0, 0x01), 0x01)\n        /* \"PoolPandoras.sol\":21098:21127  userClaimableUtilityETH[user] */\n      dup3\n      and\n        /* \"PoolPandoras.sol\":21130:21131  0 */\n      0x00\n        /* \"PoolPandoras.sol\":21098:21127  userClaimableUtilityETH[user] */\n      swap1\n      dup2\n      mstore\n        /* \"PoolPandoras.sol\":21098:21121  userClaimableUtilityETH */\n      0x09\n        /* \"PoolPandoras.sol\":21098:21127  userClaimableUtilityETH[user] */\n      0x20\n      mstore\n      0x40\n      dup2\n      keccak256\n        /* \"PoolPandoras.sol\":21098:21131  userClaimableUtilityETH[user] = 0 */\n      dup2\n      swap1\n      sstore\n        /* \"PoolPandoras.sol\":21141:21189  _registerDeposit(user, TokenType.ETH, amt, true) */\n      tag_484\n      swap1\n        /* \"PoolPandoras.sol\":21122:21126  user */\n      dup4\n      swap1\n        /* \"PoolPandoras.sol\":21179:21182  amt */\n      dup4\n        /* \"PoolPandoras.sol\":21184:21188  true */\n      0x01\n        /* \"PoolPandoras.sol\":21141:21157  _registerDeposit */\n      tag_485\n        /* \"PoolPandoras.sol\":21141:21189  _registerDeposit(user, TokenType.ETH, amt, true) */\n      jump\t// in\n    tag_484:\n        /* \"PoolPandoras.sol\":21221:21224  amt */\n      dup1\n        /* \"PoolPandoras.sol\":21199:21217  totalReinvestedETH */\n      0x15\n      0x00\n        /* \"PoolPandoras.sol\":21199:21224  totalReinvestedETH += amt */\n      dup3\n      dup3\n      sload\n      tag_486\n      swap2\n      swap1\n      tag_487\n      jump\t// in\n    tag_486:\n      swap1\n      swap2\n      sstore\n      pop\n      pop\n      sub(shl(0xa0, 0x01), 0x01)\n        /* \"PoolPandoras.sol\":21234:21262  userTotalReinvestedETH[user] */\n      dup3\n      and\n      0x00\n      swap1\n      dup2\n      mstore\n        /* \"PoolPandoras.sol\":21234:21256  userTotalReinvestedETH */\n      0x0b\n        /* \"PoolPandoras.sol\":21234:21262  userTotalReinvestedETH[user] */\n      0x20\n      mstore\n      0x40\n      dup2\n      keccak256\n        /* \"PoolPandoras.sol\":21234:21269  userTotalReinvestedETH[user] += amt */\n      dup1\n      sload\n        /* \"PoolPandoras.sol\":21266:21269  amt */\n      dup4\n      swap3\n        /* \"PoolPandoras.sol\":21234:21262  userTotalReinvestedETH[user] */\n      swap1\n        /* \"PoolPandoras.sol\":21234:21269  userTotalReinvestedETH[user] += amt */\n      tag_488\n      swap1\n        /* \"PoolPandoras.sol\":21266:21269  amt */\n      dup5\n      swap1\n        /* \"PoolPandoras.sol\":21234:21269  userTotalReinvestedETH[user] += amt */\n      tag_487\n      jump\t// in\n    tag_488:\n      swap3\n      pop\n      pop\n      dup2\n      swap1\n      sstore\n      pop\n        /* \"PoolPandoras.sol\":21293:21297  user */\n      dup2\n      sub(shl(0xa0, 0x01), 0x01)\n        /* \"PoolPandoras.sol\":21284:21335  Reinvest(user, TokenType.ETH, amt, block.timestamp) */\n      and\n      0x997d2ec09b086de73d509bbc4ad2b52fd7e2338024464bede93a41abd6ccdc38\n        /* \"PoolPandoras.sol\":21299:21312  TokenType.ETH */\n      0x00\n        /* \"PoolPandoras.sol\":21314:21317  amt */\n      dup4\n        /* \"PoolPandoras.sol\":21319:21334  block.timestamp */\n      timestamp\n        /* \"PoolPandoras.sol\":21284:21335  Reinvest(user, TokenType.ETH, amt, block.timestamp) */\n      mload(0x40)\n      tag_489\n      swap4\n      swap3\n      swap2\n      swap1\n      tag_475\n      jump\t// in\n    tag_489:\n      mload(0x40)\n      dup1\n      swap2\n      sub\n      swap1\n      log2\n        /* \"PoolPandoras.sol\":20949:21342  {... */\n      pop\n      pop\n        /* \"@openzeppelin/contracts/utils/ReentrancyGuard.sol\":2542:2562   */\n      tag_490\n        /* \"@openzeppelin/contracts/utils/ReentrancyGuard.sol\":1857:1858   */\n      0x01\n        /* \"@openzeppelin/contracts/utils/ReentrancyGuard.sol\":3068:3089   */\n      dup1\n      sstore\n        /* \"@openzeppelin/contracts/utils/ReentrancyGuard.sol\":2888:3096   */\n      jump\n        /* \"@openzeppelin/contracts/utils/ReentrancyGuard.sol\":2542:2562   */\n    tag_490:\n        /* \"PoolPandoras.sol\":20897:21342  function reinvestUtilityETH() external nonReentrant {... */\n      jump\t// out\n        /* \"PoolPandoras.sol\":25203:25329  function getUserDeposits(address user) external view returns (DepositInfo[] memory) {... */\n    tag_169:\n      sub(shl(0xa0, 0x01), 0x01)\n        /* \"PoolPandoras.sol\":25304:25322  userDeposits[user] */\n      dup2\n      and\n      0x00\n      swap1\n      dup2\n      mstore\n        /* \"PoolPandoras.sol\":25304:25316  userDeposits */\n      0x06\n        /* \"PoolPandoras.sol\":25304:25322  userDeposits[user] */\n      0x20\n      swap1\n      dup2\n      mstore\n      0x40\n      dup1\n      dup4\n      keccak256\n        /* \"PoolPandoras.sol\":25297:25322  return userDeposits[user] */\n      dup1\n      sload\n      dup3\n      mload\n      dup2\n      dup6\n      mul\n      dup2\n      add\n      dup6\n      add\n      swap1\n      swap4\n      mstore\n      dup1\n      dup4\n      mstore\n        /* \"PoolPandoras.sol\":25265:25285  DepositInfo[] memory */\n      0x60\n      swap5\n        /* \"PoolPandoras.sol\":25297:25322  return userDeposits[user] */\n      swap3\n      swap4\n        /* \"PoolPandoras.sol\":25304:25322  userDeposits[user] */\n      swap2\n      swap3\n        /* \"PoolPandoras.sol\":25297:25322  return userDeposits[user] */\n      swap1\n      swap2\n      dup5\n      add\n    tag_492:\n      dup3\n      dup3\n      lt\n      iszero\n      tag_493\n      jumpi\n      0x00\n      dup5\n      dup2\n      mstore\n      0x20\n      swap1\n      dup2\n      swap1\n      keccak256\n      0x40\n      dup1\n      mload\n      0xc0\n      dup2\n      add\n      dup3\n      mstore\n      0x02\n      dup7\n      mul\n      swap1\n      swap3\n      add\n      dup1\n      sload\n      sub(shl(0x60, 0x01), 0x01)\n      dup1\n      dup3\n      and\n      dup6\n      mstore\n      shl(0x60, 0x01)\n      dup3\n      div\n      and\n      swap5\n      dup5\n      add\n      swap5\n      swap1\n      swap5\n      mstore\n      shl(0xc0, 0x01)\n      swap1\n      swap4\n      div\n      0xffffffffffff\n      swap1\n      dup2\n      and\n      swap2\n      dup4\n      add\n      swap2\n      swap1\n      swap2\n      mstore\n      0x01\n      dup1\n      dup5\n      add\n      sload\n      swap2\n      dup3\n      and\n      0x60\n      dup5\n      add\n      mstore\n      swap2\n      swap3\n      swap2\n      0x80\n      dup5\n      add\n      swap2\n      0x01000000000000\n      swap1\n      div\n      0xff\n      and\n      swap1\n      dup2\n      gt\n      iszero\n      tag_496\n      jumpi\n      tag_496\n      tag_497\n      jump\t// in\n    tag_496:\n      0x01\n      dup2\n      gt\n      iszero\n      tag_499\n      jumpi\n      tag_499\n      tag_497\n      jump\t// in\n    tag_499:\n      dup2\n      mstore\n      0x01\n      swap2\n      dup3\n      add\n      sload\n      shl(0x38, 0x01)\n      swap1\n      div\n      0xff\n      and\n      0x20\n      swap2\n      dup3\n      add\n      mstore\n      swap2\n      dup4\n      mstore\n      swap3\n      swap1\n      swap3\n      add\n      swap2\n      add\n      jump(tag_492)\n    tag_493:\n      pop\n      pop\n      pop\n      pop\n      swap1\n      pop\n        /* \"PoolPandoras.sol\":25203:25329  function getUserDeposits(address user) external view returns (DepositInfo[] memory) {... */\n      swap2\n      swap1\n      pop\n      jump\t// out\n        /* \"PoolPandoras.sol\":12337:13610  function withdraw(uint256 depositIndex) external nonReentrant whenWithdrawalsNotPaused {... */\n    tag_180:\n        /* \"@openzeppelin/contracts/utils/ReentrancyGuard.sol\":2500:2521   */\n      tag_501\n        /* \"@openzeppelin/contracts/utils/ReentrancyGuard.sol\":2500:2519   */\n      tag_466\n        /* \"@openzeppelin/contracts/utils/ReentrancyGuard.sol\":2500:2521   */\n      jump\t// in\n    tag_501:\n        /* \"PoolPandoras.sol\":5425:5442  pausedWithdrawals */\n      sload(0x05)\n      0x0100\n      swap1\n      div\n      0xff\n      and\n        /* \"PoolPandoras.sol\":5421:5470  if (pausedWithdrawals) revert WithdrawalsPaused() */\n      iszero\n      tag_503\n      jumpi\n        /* \"PoolPandoras.sol\":5451:5470  WithdrawalsPaused() */\n      mload(0x40)\n      shl(0xe0, 0x6022a9e7)\n      dup2\n      mstore\n      0x04\n      add\n      mload(0x40)\n      dup1\n      swap2\n      sub\n      swap1\n      revert\n        /* \"PoolPandoras.sol\":5421:5470  if (pausedWithdrawals) revert WithdrawalsPaused() */\n    tag_503:\n        /* \"PoolPandoras.sol\":12434:12446  address user */\n      0x00\n        /* \"PoolPandoras.sol\":12449:12461  _msgSender() */\n      tag_505\n        /* \"PoolPandoras.sol\":12449:12459  _msgSender */\n      tag_473\n        /* \"PoolPandoras.sol\":12449:12461  _msgSender() */\n      jump\t// in\n    tag_505:\n      sub(shl(0xa0, 0x01), 0x01)\n        /* \"PoolPandoras.sol\":12497:12515  userDeposits[user] */\n      dup2\n      and\n        /* \"PoolPandoras.sol\":12471:12494  DepositInfo storage dep */\n      0x00\n        /* \"PoolPandoras.sol\":12497:12515  userDeposits[user] */\n      swap1\n      dup2\n      mstore\n        /* \"PoolPandoras.sol\":12497:12509  userDeposits */\n      0x06\n        /* \"PoolPandoras.sol\":12497:12515  userDeposits[user] */\n      0x20\n      mstore\n      0x40\n      dup2\n      keccak256\n        /* \"PoolPandoras.sol\":12497:12529  userDeposits[user][depositIndex] */\n      dup1\n      sload\n        /* \"PoolPandoras.sol\":12434:12461  address user = _msgSender() */\n      swap3\n      swap4\n      pop\n        /* \"PoolPandoras.sol\":12471:12494  DepositInfo storage dep */\n      swap1\n      swap2\n        /* \"PoolPandoras.sol\":12516:12528  depositIndex */\n      dup5\n      swap1\n        /* \"PoolPandoras.sol\":12497:12529  userDeposits[user][depositIndex] */\n      dup2\n      lt\n      tag_507\n      jumpi\n      tag_507\n      tag_508\n      jump\t// in\n    tag_507:\n      0x00\n      swap2\n      dup3\n      mstore\n      0x20\n      swap1\n      swap2\n      keccak256\n        /* \"PoolPandoras.sol\":12557:12566  dep.flags */\n      0x01\n        /* \"PoolPandoras.sol\":12497:12529  userDeposits[user][depositIndex] */\n      0x02\n      swap1\n      swap3\n      mul\n      add\n        /* \"PoolPandoras.sol\":12557:12566  dep.flags */\n      dup2\n      dup2\n      add\n      sload\n        /* \"PoolPandoras.sol\":12497:12529  userDeposits[user][depositIndex] */\n      swap1\n      swap3\n      pop\n      shl(0x38, 0x01)\n        /* \"PoolPandoras.sol\":12557:12566  dep.flags */\n      swap1\n      div\n        /* \"PoolPandoras.sol\":12056:12072  flags & (1 << 0) */\n      and\n        /* \"PoolPandoras.sol\":12055:12078  (flags & (1 << 0)) != 0 */\n      iszero\n        /* \"PoolPandoras.sol\":12540:12594  if (_isWithdrawn(dep.flags)) revert AlreadyWithdrawn() */\n      tag_512\n      jumpi\n        /* \"PoolPandoras.sol\":12576:12594  AlreadyWithdrawn() */\n      mload(0x40)\n      shl(0xe0, 0x6507689f)\n      dup2\n      mstore\n      0x04\n      add\n      mload(0x40)\n      dup1\n      swap2\n      sub\n      swap1\n      revert\n        /* \"PoolPandoras.sol\":12540:12594  if (_isWithdrawn(dep.flags)) revert AlreadyWithdrawn() */\n    tag_512:\n        /* \"PoolPandoras.sol\":12655:12667  lockupPeriod */\n      sload(0x02)\n        /* \"PoolPandoras.sol\":12639:12652  dep.timestamp */\n      dup2\n      sload\n        /* \"PoolPandoras.sol\":12639:12667  dep.timestamp + lockupPeriod */\n      tag_513\n      swap2\n        /* \"PoolPandoras.sol\":12655:12667  lockupPeriod */\n      swap1\n      shl(0xc0, 0x01)\n        /* \"PoolPandoras.sol\":12639:12652  dep.timestamp */\n      swap1\n      div\n      0xffffffffffff\n      and\n        /* \"PoolPandoras.sol\":12639:12667  dep.timestamp + lockupPeriod */\n      tag_487\n      jump\t// in\n    tag_513:\n        /* \"PoolPandoras.sol\":12621:12636  block.timestamp */\n      timestamp\n        /* \"PoolPandoras.sol\":12621:12667  block.timestamp < dep.timestamp + lockupPeriod */\n      lt\n        /* \"PoolPandoras.sol\":12621:12713  block.timestamp < dep.timestamp + lockupPeriod &&... */\n      dup1\n      iszero\n      tag_514\n      jumpi\n      pop\n        /* \"PoolPandoras.sol\":12703:12712  dep.flags */\n      0x01\n      dup2\n      add\n      sload\n      shl(0x38, 0x01)\n      swap1\n      div\n        /* \"PoolPandoras.sol\":12188:12194  1 << 1 */\n      0x02\n        /* \"PoolPandoras.sol\":12179:12195  flags & (1 << 1) */\n      and\n        /* \"PoolPandoras.sol\":12178:12201  (flags & (1 << 1)) != 0 */\n      iszero\n        /* \"PoolPandoras.sol\":12621:12713  block.timestamp < dep.timestamp + lockupPeriod &&... */\n    tag_514:\n        /* \"PoolPandoras.sol\":12621:12789  block.timestamp < dep.timestamp + lockupPeriod &&... */\n      dup1\n      iszero\n      tag_517\n      jumpi\n      pop\n        /* \"PoolPandoras.sol\":12731:12755  globalLiquidationEnabled */\n      sload(0x05)\n      0x01000000\n      swap1\n      div\n      0xff\n      and\n        /* \"PoolPandoras.sol\":12731:12788  globalLiquidationEnabled && _isFullyRedeemable(dep.flags) */\n      dup1\n      iszero\n      tag_519\n      jumpi\n      pop\n        /* \"PoolPandoras.sol\":12778:12787  dep.flags */\n      0x01\n      dup2\n      add\n      sload\n      shl(0x38, 0x01)\n      swap1\n      div\n        /* \"PoolPandoras.sol\":12311:12317  1 << 2 */\n      0x04\n        /* \"PoolPandoras.sol\":12302:12318  flags & (1 << 2) */\n      and\n        /* \"PoolPandoras.sol\":12301:12324  (flags & (1 << 2)) != 0 */\n      iszero\n      iszero\n        /* \"PoolPandoras.sol\":12759:12788  _isFullyRedeemable(dep.flags) */\n    tag_519:\n        /* \"PoolPandoras.sol\":12729:12789  !(globalLiquidationEnabled && _isFullyRedeemable(dep.flags)) */\n      iszero\n        /* \"PoolPandoras.sol\":12621:12789  block.timestamp < dep.timestamp + lockupPeriod &&... */\n    tag_517:\n        /* \"PoolPandoras.sol\":12604:12847  if (... */\n      iszero\n      tag_521\n      jumpi\n        /* \"PoolPandoras.sol\":12821:12836  DepositLocked() */\n      mload(0x40)\n      shl(0xe0, 0xf38b9b5b)\n      dup2\n      mstore\n      0x04\n      add\n      mload(0x40)\n      dup1\n      swap2\n      sub\n      swap1\n      revert\n        /* \"PoolPandoras.sol\":12604:12847  if (... */\n    tag_521:\n        /* \"PoolPandoras.sol\":12869:12878  dep.flags */\n      0x01\n      dup2\n      dup2\n      add\n      dup1\n      sload\n      not(0xff00ffffffffffff)\n        /* \"PoolPandoras.sol\":12920:12961  dep.withdrawnAt = uint48(block.timestamp) */\n      dup2\n      and\n      shl(0x38, 0x01)\n        /* \"PoolPandoras.sol\":12869:12878  dep.flags */\n      swap2\n      dup3\n      swap1\n      div\n      0xff\n      and\n        /* \"PoolPandoras.sol\":12869:12889  dep.flags | (1 << 0) */\n      swap1\n      swap4\n      or\n        /* \"PoolPandoras.sol\":12857:12889  dep.flags = dep.flags | (1 << 0) */\n      mul\n      not(0xffffffffffff)\n        /* \"PoolPandoras.sol\":12920:12961  dep.withdrawnAt = uint48(block.timestamp) */\n      and\n      swap2\n      swap1\n      swap2\n      or\n        /* \"PoolPandoras.sol\":12945:12960  block.timestamp */\n      timestamp\n        /* \"PoolPandoras.sol\":12920:12961  dep.withdrawnAt = uint48(block.timestamp) */\n      0xffffffffffff\n      and\n      or\n      swap1\n      sstore\n        /* \"PoolPandoras.sol\":12991:13001  dep.amount */\n      dup1\n      sload\n      sub(shl(0x60, 0x01), 0x01)\n      dup1\n      dup3\n      and\n      swap2\n      shl(0x60, 0x01)\n        /* \"PoolPandoras.sol\":13031:13048  dep.yieldReceived */\n      swap1\n      div\n      and\n      0x00\n        /* \"PoolPandoras.sol\":13063:13072  dep.token */\n      0x01\n      dup5\n      dup2\n      add\n      sload\n      0x01000000000000\n      swap1\n      div\n      0xff\n      and\n      swap1\n        /* \"PoolPandoras.sol\":13063:13089  dep.token == TokenType.ETH */\n      dup2\n      gt\n      iszero\n      tag_525\n      jumpi\n      tag_525\n      tag_497\n      jump\t// in\n    tag_525:\n      sub\n        /* \"PoolPandoras.sol\":13059:13387  if (dep.token == TokenType.ETH) {... */\n      tag_526\n      jumpi\n        /* \"PoolPandoras.sol\":13126:13135  principal */\n      dup2\n        /* \"PoolPandoras.sol\":13105:13122  totalWithdrawnETH */\n      0x11\n      0x00\n        /* \"PoolPandoras.sol\":13105:13135  totalWithdrawnETH += principal */\n      dup3\n      dup3\n      sload\n      tag_527\n      swap2\n      swap1\n      tag_487\n      jump\t// in\n    tag_527:\n      swap1\n      swap2\n      sstore\n      pop\n        /* \"PoolPandoras.sol\":13150:13157  bool ok */\n      0x00\n      swap1\n      pop\n      sub(shl(0xa0, 0x01), 0x01)\n        /* \"PoolPandoras.sol\":13163:13172  user.call */\n      dup6\n      and\n        /* \"PoolPandoras.sol\":13180:13200  principal + yieldAmt */\n      tag_528\n        /* \"PoolPandoras.sol\":13192:13200  yieldAmt */\n      dup4\n        /* \"PoolPandoras.sol\":13180:13189  principal */\n      dup6\n        /* \"PoolPandoras.sol\":13180:13200  principal + yieldAmt */\n      tag_487\n      jump\t// in\n    tag_528:\n        /* \"PoolPandoras.sol\":13163:13205  user.call{value: principal + yieldAmt}(\"\") */\n      mload(0x40)\n      0x00\n      dup2\n      dup2\n      dup2\n      dup6\n      dup8\n      gas\n      call\n      swap3\n      pop\n      pop\n      pop\n      returndatasize\n      dup1\n      0x00\n      dup2\n      eq\n      tag_533\n      jumpi\n      mload(0x40)\n      swap2\n      pop\n      and(add(returndatasize, 0x3f), not(0x1f))\n      dup3\n      add\n      0x40\n      mstore\n      returndatasize\n      dup3\n      mstore\n      returndatasize\n      0x00\n      0x20\n      dup5\n      add\n      returndatacopy\n      jump(tag_532)\n    tag_533:\n      0x60\n      swap2\n      pop\n    tag_532:\n      pop\n        /* \"PoolPandoras.sol\":13149:13205  (bool ok, ) = user.call{value: principal + yieldAmt}(\"\") */\n      pop\n      swap1\n      pop\n        /* \"PoolPandoras.sol\":13224:13226  ok */\n      dup1\n        /* \"PoolPandoras.sol\":13219:13251  if (!ok) revert TransferFailed() */\n      tag_534\n      jumpi\n        /* \"PoolPandoras.sol\":13235:13251  TransferFailed() */\n      mload(0x40)\n      shl(0xe3, 0x12171d83)\n      dup2\n      mstore\n      0x04\n      add\n      mload(0x40)\n      dup1\n      swap2\n      sub\n      swap1\n      revert\n        /* \"PoolPandoras.sol\":13219:13251  if (!ok) revert TransferFailed() */\n    tag_534:\n        /* \"PoolPandoras.sol\":13091:13262  {... */\n      pop\n        /* \"PoolPandoras.sol\":13059:13387  if (dep.token == TokenType.ETH) {... */\n      jump(tag_535)\n    tag_526:\n        /* \"PoolPandoras.sol\":13304:13313  principal */\n      dup2\n        /* \"PoolPandoras.sol\":13282:13300  totalWithdrawnUSDC */\n      0x12\n      0x00\n        /* \"PoolPandoras.sol\":13282:13313  totalWithdrawnUSDC += principal */\n      dup3\n      dup3\n      sload\n      tag_536\n      swap2\n      swap1\n      tag_487\n      jump\t// in\n    tag_536:\n      swap1\n      swap2\n      sstore\n      pop\n        /* \"PoolPandoras.sol\":1229:1271  0x833589fCD6eDb6E08f4c7C32D4f71b54bdA02913 */\n      0x833589fcd6edb6e08f4c7c32d4f71b54bda02913\n      swap1\n      pop\n        /* \"PoolPandoras.sol\":13327:13348  IERC20(USDC).transfer */\n      0xa9059cbb\n        /* \"PoolPandoras.sol\":13349:13353  user */\n      dup6\n        /* \"PoolPandoras.sol\":13355:13375  principal + yieldAmt */\n      tag_537\n        /* \"PoolPandoras.sol\":13367:13375  yieldAmt */\n      dup5\n        /* \"PoolPandoras.sol\":13355:13364  principal */\n      dup7\n        /* \"PoolPandoras.sol\":13355:13375  principal + yieldAmt */\n      tag_487\n      jump\t// in\n    tag_537:\n        /* \"PoolPandoras.sol\":13327:13376  IERC20(USDC).transfer(user, principal + yieldAmt) */\n      mload(0x40)\n      not(sub(shl(0xe0, 0x01), 0x01))\n      0xe0\n      dup6\n      swap1\n      shl\n      and\n      dup2\n      mstore\n      sub(shl(0xa0, 0x01), 0x01)\n        /* \"#utility.yul\":12694:12749   */\n      swap1\n      swap3\n      and\n        /* \"PoolPandoras.sol\":13327:13376  IERC20(USDC).transfer(user, principal + yieldAmt) */\n      0x04\n      dup4\n      add\n        /* \"#utility.yul\":12676:12750   */\n      mstore\n        /* \"#utility.yul\":12766:12784   */\n      0x24\n      dup3\n      add\n        /* \"#utility.yul\":12759:12793   */\n      mstore\n        /* \"#utility.yul\":12649:12667   */\n      0x44\n      add\n        /* \"PoolPandoras.sol\":13327:13376  IERC20(USDC).transfer(user, principal + yieldAmt) */\n      0x20\n      mload(0x40)\n      dup1\n      dup4\n      sub\n      dup2\n      0x00\n      dup8\n      gas\n      call\n      iszero\n      dup1\n      iszero\n      tag_541\n      jumpi\n      returndatasize\n      0x00\n      dup1\n      returndatacopy\n      revert(0x00, returndatasize)\n    tag_541:\n      pop\n      pop\n      pop\n      pop\n      mload(0x40)\n      returndatasize\n      not(0x1f)\n      0x1f\n      dup3\n      add\n      and\n      dup3\n      add\n      dup1\n      0x40\n      mstore\n      pop\n      dup2\n      add\n      swap1\n      tag_542\n      swap2\n      swap1\n      tag_543\n      jump\t// in\n    tag_542:\n      pop\n        /* \"PoolPandoras.sol\":13059:13387  if (dep.token == TokenType.ETH) {... */\n    tag_535:\n      sub(shl(0xa0, 0x01), 0x01)\n        /* \"PoolPandoras.sol\":13402:13420  hasWithdrawn[user] */\n      dup5\n      and\n      0x00\n      swap1\n      dup2\n      mstore\n        /* \"PoolPandoras.sol\":13402:13414  hasWithdrawn */\n      0x08\n        /* \"PoolPandoras.sol\":13402:13420  hasWithdrawn[user] */\n      0x20\n      mstore\n      0x40\n      swap1\n      keccak256\n      sload\n      0xff\n      and\n        /* \"PoolPandoras.sol\":13397:13511  if (!hasWithdrawn[user]) {... */\n      tag_544\n      jumpi\n        /* \"PoolPandoras.sol\":13436:13450  withdrawnUsers */\n      0x0e\n        /* \"PoolPandoras.sol\":13436:13461  withdrawnUsers.push(user) */\n      dup1\n      sload\n      0x01\n      dup1\n      dup3\n      add\n      swap1\n      swap3\n      sstore\n      0xbb7b4a454dc3493923482f07822329ed19e8244eff582cc204f8554c3620c3fd\n      add\n      dup1\n      sload\n      not(0xffffffffffffffffffffffffffffffffffffffff)\n      and\n      sub(shl(0xa0, 0x01), 0x01)\n      dup8\n      and\n      swap1\n      dup2\n      or\n      swap1\n      swap2\n      sstore\n      0x00\n        /* \"PoolPandoras.sol\":13475:13493  hasWithdrawn[user] */\n      swap1\n      dup2\n      mstore\n        /* \"PoolPandoras.sol\":13475:13487  hasWithdrawn */\n      0x08\n        /* \"PoolPandoras.sol\":13436:13461  withdrawnUsers.push(user) */\n      0x20\n        /* \"PoolPandoras.sol\":13475:13493  hasWithdrawn[user] */\n      mstore\n      0x40\n      swap1\n      keccak256\n        /* \"PoolPandoras.sol\":13475:13500  hasWithdrawn[user] = true */\n      dup1\n      sload\n      not(0xff)\n      and\n      swap1\n      swap2\n      or\n      swap1\n      sstore\n        /* \"PoolPandoras.sol\":13397:13511  if (!hasWithdrawn[user]) {... */\n    tag_544:\n        /* \"PoolPandoras.sol\":13541:13550  dep.token */\n      0x01\n      dup4\n      add\n      sload\n        /* \"PoolPandoras.sol\":13526:13603  Withdraw(user, dep.token, principal, yieldAmt, block.timestamp, depositIndex) */\n      mload(0x40)\n      sub(shl(0xa0, 0x01), 0x01)\n      dup7\n      and\n      swap2\n      0xcb034b37ef3764745c35bafecd525367bcf312e9010239e6aeebbe6bcf57727f\n      swap2\n      tag_546\n      swap2\n        /* \"PoolPandoras.sol\":13541:13550  dep.token */\n      0x01000000000000\n      swap1\n      div\n      0xff\n      and\n      swap1\n        /* \"PoolPandoras.sol\":13552:13561  principal */\n      dup7\n      swap1\n        /* \"PoolPandoras.sol\":13563:13571  yieldAmt */\n      dup7\n      swap1\n        /* \"PoolPandoras.sol\":13573:13588  block.timestamp */\n      timestamp\n      swap1\n        /* \"PoolPandoras.sol\":13590:13602  depositIndex */\n      dup13\n      swap1\n        /* \"PoolPandoras.sol\":13526:13603  Withdraw(user, dep.token, principal, yieldAmt, block.timestamp, depositIndex) */\n      tag_547\n      jump\t// in\n    tag_546:\n      mload(0x40)\n      dup1\n      swap2\n      sub\n      swap1\n      log2\n        /* \"PoolPandoras.sol\":12424:13610  {... */\n      pop\n      pop\n      pop\n      pop\n        /* \"@openzeppelin/contracts/utils/ReentrancyGuard.sol\":2542:2562   */\n      tag_476\n        /* \"@openzeppelin/contracts/utils/ReentrancyGuard.sol\":1857:1858   */\n      0x01\n        /* \"@openzeppelin/contracts/utils/ReentrancyGuard.sol\":3068:3089   */\n      dup1\n      sstore\n        /* \"@openzeppelin/contracts/utils/ReentrancyGuard.sol\":2888:3096   */\n      jump\n        /* \"@openzeppelin/contracts/access/AccessControl.sol\":4202:4338   */\n    tag_185:\n        /* \"@openzeppelin/contracts/access/AccessControl.sol\":3851:3858   */\n      0x00\n        /* \"@openzeppelin/contracts/access/AccessControl.sol\":3877:3889   */\n      dup3\n      dup2\n      mstore\n      0x20\n      dup2\n      swap1\n      mstore\n      0x40\n      swap1\n      keccak256\n        /* \"@openzeppelin/contracts/access/AccessControl.sol\":3877:3899   */\n      0x01\n      add\n      sload\n        /* \"@openzeppelin/contracts/access/AccessControl.sol\":2473:2489   */\n      tag_551\n        /* \"@openzeppelin/contracts/access/AccessControl.sol\":2484:2488   */\n      dup2\n        /* \"@openzeppelin/contracts/access/AccessControl.sol\":2473:2483   */\n      tag_458\n        /* \"@openzeppelin/contracts/access/AccessControl.sol\":2473:2489   */\n      jump\t// in\n    tag_551:\n        /* \"@openzeppelin/contracts/access/AccessControl.sol\":4306:4331   */\n      tag_553\n        /* \"@openzeppelin/contracts/access/AccessControl.sol\":4317:4321   */\n      dup4\n        /* \"@openzeppelin/contracts/access/AccessControl.sol\":4323:4330   */\n      dup4\n        /* \"@openzeppelin/contracts/access/AccessControl.sol\":4306:4316   */\n      tag_554\n        /* \"@openzeppelin/contracts/access/AccessControl.sol\":4306:4331   */\n      jump\t// in\n    tag_553:\n      pop\n        /* \"@openzeppelin/contracts/access/AccessControl.sol\":4202:4338   */\n      pop\n      pop\n      pop\n      jump\t// out\n        /* \"@openzeppelin/contracts/access/AccessControl.sol\":5304:5549   */\n    tag_194:\n        /* \"@openzeppelin/contracts/access/AccessControl.sol\":5419:5431   */\n      tag_556\n        /* \"@openzeppelin/contracts/access/AccessControl.sol\":5419:5429   */\n      tag_473\n        /* \"@openzeppelin/contracts/access/AccessControl.sol\":5419:5431   */\n      jump\t// in\n    tag_556:\n      sub(shl(0xa0, 0x01), 0x01)\n        /* \"@openzeppelin/contracts/access/AccessControl.sol\":5397:5431   */\n      and\n        /* \"@openzeppelin/contracts/access/AccessControl.sol\":5397:5415   */\n      dup2\n      sub(shl(0xa0, 0x01), 0x01)\n        /* \"@openzeppelin/contracts/access/AccessControl.sol\":5397:5431   */\n      and\n      eq\n        /* \"@openzeppelin/contracts/access/AccessControl.sol\":5393:5495   */\n      tag_557\n      jumpi\n        /* \"@openzeppelin/contracts/access/AccessControl.sol\":5454:5484   */\n      mload(0x40)\n      shl(0xe1, 0x334bd919)\n      dup2\n      mstore\n      0x04\n      add\n      mload(0x40)\n      dup1\n      swap2\n      sub\n      swap1\n      revert\n        /* \"@openzeppelin/contracts/access/AccessControl.sol\":5393:5495   */\n    tag_557:\n        /* \"@openzeppelin/contracts/access/AccessControl.sol\":5505:5542   */\n      tag_558\n        /* \"@openzeppelin/contracts/access/AccessControl.sol\":5517:5521   */\n      dup3\n        /* \"@openzeppelin/contracts/access/AccessControl.sol\":5523:5541   */\n      dup3\n        /* \"@openzeppelin/contracts/access/AccessControl.sol\":5505:5516   */\n      tag_559\n        /* \"@openzeppelin/contracts/access/AccessControl.sol\":5505:5542   */\n      jump\t// in\n    tag_558:\n      pop\n        /* \"@openzeppelin/contracts/access/AccessControl.sol\":5304:5549   */\n      pop\n      pop\n      jump\t// out\n        /* \"PoolPandoras.sol\":19492:20051  function assignUtilityUSDCBatch(address[] calldata users, uint256[] calldata amounts) external onlyRole(ADMIN_ROLE) {... */\n    tag_208:\n      0x00\n      dup1\n      mload\n      0x20\n      data_cb864c43dd5d441bb6271f424f11befa622c032dfd374d226e26fbbdb782b8f8\n      dup4\n      codecopy\n      dup2\n      mload\n      swap2\n      mstore\n        /* \"@openzeppelin/contracts/access/AccessControl.sol\":2473:2489   */\n      tag_561\n        /* \"@openzeppelin/contracts/access/AccessControl.sol\":2484:2488   */\n      dup2\n        /* \"@openzeppelin/contracts/access/AccessControl.sol\":2473:2483   */\n      tag_458\n        /* \"@openzeppelin/contracts/access/AccessControl.sol\":2473:2489   */\n      jump\t// in\n    tag_561:\n        /* \"PoolPandoras.sol\":19622:19652  users.length != amounts.length */\n      dup4\n      dup3\n      eq\n        /* \"PoolPandoras.sol\":19618:19682  if (users.length != amounts.length) revert ArrayLengthMismatch() */\n      tag_563\n      jumpi\n        /* \"PoolPandoras.sol\":19661:19682  ArrayLengthMismatch() */\n      mload(0x40)\n      shl(0xe1, 0x512509d3)\n      dup2\n      mstore\n      0x04\n      add\n      mload(0x40)\n      dup1\n      swap2\n      sub\n      swap1\n      revert\n        /* \"PoolPandoras.sol\":19618:19682  if (users.length != amounts.length) revert ArrayLengthMismatch() */\n    tag_563:\n        /* \"PoolPandoras.sol\":19692:19703  uint256 sum */\n      0x00\n      dup1\n        /* \"PoolPandoras.sol\":19713:19946  for (uint256 i = 0; i < users.length; i++) {... */\n    tag_564:\n        /* \"PoolPandoras.sol\":19733:19749  i < users.length */\n      dup6\n      dup2\n      lt\n        /* \"PoolPandoras.sol\":19713:19946  for (uint256 i = 0; i < users.length; i++) {... */\n      iszero\n      tag_565\n      jumpi\n        /* \"PoolPandoras.sol\":19770:19784  uint256 amount */\n      0x00\n        /* \"PoolPandoras.sol\":19787:19794  amounts */\n      dup6\n      dup6\n        /* \"PoolPandoras.sol\":19795:19796  i */\n      dup4\n        /* \"PoolPandoras.sol\":19787:19797  amounts[i] */\n      dup2\n      dup2\n      lt\n      tag_568\n      jumpi\n      tag_568\n      tag_508\n      jump\t// in\n    tag_568:\n      swap1\n      pop\n      0x20\n      mul\n      add\n      calldataload\n        /* \"PoolPandoras.sol\":19770:19797  uint256 amount = amounts[i] */\n      swap1\n      pop\n        /* \"PoolPandoras.sol\":19815:19821  amount */\n      dup1\n        /* \"PoolPandoras.sol\":19825:19826  0 */\n      0x00\n        /* \"PoolPandoras.sol\":19815:19826  amount == 0 */\n      sub\n        /* \"PoolPandoras.sol\":19811:19850  if (amount == 0) revert InvalidAmount() */\n      tag_569\n      jumpi\n        /* \"PoolPandoras.sol\":19835:19850  InvalidAmount() */\n      mload(0x40)\n      shl(0xe1, 0x162908e3)\n      dup2\n      mstore\n      0x04\n      add\n      mload(0x40)\n      dup1\n      swap2\n      sub\n      swap1\n      revert\n        /* \"PoolPandoras.sol\":19811:19850  if (amount == 0) revert InvalidAmount() */\n    tag_569:\n        /* \"PoolPandoras.sol\":19902:19908  amount */\n      dup1\n        /* \"PoolPandoras.sol\":19864:19888  userClaimableUtilityUSDC */\n      0x0a\n        /* \"PoolPandoras.sol\":19864:19898  userClaimableUtilityUSDC[users[i]] */\n      0x00\n        /* \"PoolPandoras.sol\":19889:19894  users */\n      dup11\n      dup11\n        /* \"PoolPandoras.sol\":19895:19896  i */\n      dup7\n        /* \"PoolPandoras.sol\":19889:19897  users[i] */\n      dup2\n      dup2\n      lt\n      tag_571\n      jumpi\n      tag_571\n      tag_508\n      jump\t// in\n    tag_571:\n      swap1\n      pop\n      0x20\n      mul\n      add\n      0x20\n      dup2\n      add\n      swap1\n      tag_572\n      swap2\n      swap1\n      tag_122\n      jump\t// in\n    tag_572:\n      sub(shl(0xa0, 0x01), 0x01)\n        /* \"PoolPandoras.sol\":19864:19898  userClaimableUtilityUSDC[users[i]] */\n      and\n      sub(shl(0xa0, 0x01), 0x01)\n      and\n      dup2\n      mstore\n      0x20\n      add\n      swap1\n      dup2\n      mstore\n      0x20\n      add\n      0x00\n      keccak256\n      0x00\n        /* \"PoolPandoras.sol\":19864:19908  userClaimableUtilityUSDC[users[i]] += amount */\n      dup3\n      dup3\n      sload\n      tag_573\n      swap2\n      swap1\n      tag_487\n      jump\t// in\n    tag_573:\n      swap1\n      swap2\n      sstore\n      pop\n        /* \"PoolPandoras.sol\":19922:19935  sum += amount */\n      tag_574\n      swap1\n      pop\n        /* \"PoolPandoras.sol\":19929:19935  amount */\n      dup2\n        /* \"PoolPandoras.sol\":19922:19935  sum += amount */\n      dup5\n      tag_487\n      jump\t// in\n    tag_574:\n      swap3\n      pop\n      pop\n        /* \"PoolPandoras.sol\":19751:19754  i++ */\n      0x01\n      add\n        /* \"PoolPandoras.sol\":19713:19946  for (uint256 i = 0; i < users.length; i++) {... */\n      jump(tag_564)\n    tag_565:\n      pop\n        /* \"PoolPandoras.sol\":19965:19981  totalUtilityUSDC */\n      sload(0x14)\n        /* \"PoolPandoras.sol\":19959:19962  sum */\n      dup2\n        /* \"PoolPandoras.sol\":19959:19981  sum > totalUtilityUSDC */\n      gt\n        /* \"PoolPandoras.sol\":19955:20011  if (sum > totalUtilityUSDC) revert ExceedsTotalUtility() */\n      iszero\n      tag_575\n      jumpi\n        /* \"PoolPandoras.sol\":19990:20011  ExceedsTotalUtility() */\n      mload(0x40)\n      shl(0xe0, 0x2f37549d)\n      dup2\n      mstore\n      0x04\n      add\n      mload(0x40)\n      dup1\n      swap2\n      sub\n      swap1\n      revert\n        /* \"PoolPandoras.sol\":19955:20011  if (sum > totalUtilityUSDC) revert ExceedsTotalUtility() */\n    tag_575:\n        /* \"PoolPandoras.sol\":20041:20044  sum */\n      dup1\n        /* \"PoolPandoras.sol\":20021:20037  totalUtilityUSDC */\n      0x14\n      0x00\n        /* \"PoolPandoras.sol\":20021:20044  totalUtilityUSDC -= sum */\n      dup3\n      dup3\n      sload\n      tag_576\n      swap2\n      swap1\n      tag_471\n      jump\t// in\n    tag_576:\n      swap1\n      swap2\n      sstore\n      pop\n      pop\n      pop\n      pop\n      pop\n      pop\n      pop\n      pop\n        /* \"PoolPandoras.sol\":19492:20051  function assignUtilityUSDCBatch(address[] calldata users, uint256[] calldata amounts) external onlyRole(ADMIN_ROLE) {... */\n      jump\t// out\n        /* \"PoolPandoras.sol\":7828:8190  function setWhitelistBatch(address[] calldata users, bool[] calldata statuses) external onlyRole(ADMIN_ROLE) {... */\n    tag_213:\n      0x00\n      dup1\n      mload\n      0x20\n      data_cb864c43dd5d441bb6271f424f11befa622c032dfd374d226e26fbbdb782b8f8\n      dup4\n      codecopy\n      dup2\n      mload\n      swap2\n      mstore\n        /* \"@openzeppelin/contracts/access/AccessControl.sol\":2473:2489   */\n      tag_578\n        /* \"@openzeppelin/contracts/access/AccessControl.sol\":2484:2488   */\n      dup2\n        /* \"@openzeppelin/contracts/access/AccessControl.sol\":2473:2483   */\n      tag_458\n        /* \"@openzeppelin/contracts/access/AccessControl.sol\":2473:2489   */\n      jump\t// in\n    tag_578:\n        /* \"PoolPandoras.sol\":7951:7982  users.length != statuses.length */\n      dup4\n      dup3\n      eq\n        /* \"PoolPandoras.sol\":7947:8012  if (users.length != statuses.length) revert ArrayLengthMismatch() */\n      tag_580\n      jumpi\n        /* \"PoolPandoras.sol\":7991:8012  ArrayLengthMismatch() */\n      mload(0x40)\n      shl(0xe1, 0x512509d3)\n      dup2\n      mstore\n      0x04\n      add\n      mload(0x40)\n      dup1\n      swap2\n      sub\n      swap1\n      revert\n        /* \"PoolPandoras.sol\":7947:8012  if (users.length != statuses.length) revert ArrayLengthMismatch() */\n    tag_580:\n        /* \"PoolPandoras.sol\":8027:8036  uint256 i */\n      0x00\n        /* \"PoolPandoras.sol\":8022:8184  for (uint256 i = 0; i < users.length; i++) {... */\n    tag_581:\n        /* \"PoolPandoras.sol\":8042:8058  i < users.length */\n      dup5\n      dup2\n      lt\n        /* \"PoolPandoras.sol\":8022:8184  for (uint256 i = 0; i < users.length; i++) {... */\n      iszero\n      tag_582\n      jumpi\n        /* \"PoolPandoras.sol\":8105:8113  statuses */\n      dup4\n      dup4\n        /* \"PoolPandoras.sol\":8114:8115  i */\n      dup3\n        /* \"PoolPandoras.sol\":8105:8116  statuses[i] */\n      dup2\n      dup2\n      lt\n      tag_585\n      jumpi\n      tag_585\n      tag_508\n      jump\t// in\n    tag_585:\n      swap1\n      pop\n      0x20\n      mul\n      add\n      0x20\n      dup2\n      add\n      swap1\n      tag_586\n      swap2\n      swap1\n      tag_129\n      jump\t// in\n    tag_586:\n        /* \"PoolPandoras.sol\":8079:8092  isWhitelisted */\n      0x07\n        /* \"PoolPandoras.sol\":8079:8102  isWhitelisted[users[i]] */\n      0x00\n        /* \"PoolPandoras.sol\":8093:8098  users */\n      dup9\n      dup9\n        /* \"PoolPandoras.sol\":8099:8100  i */\n      dup6\n        /* \"PoolPandoras.sol\":8093:8101  users[i] */\n      dup2\n      dup2\n      lt\n      tag_588\n      jumpi\n      tag_588\n      tag_508\n      jump\t// in\n    tag_588:\n      swap1\n      pop\n      0x20\n      mul\n      add\n      0x20\n      dup2\n      add\n      swap1\n      tag_589\n      swap2\n      swap1\n      tag_122\n      jump\t// in\n    tag_589:\n      sub(shl(0xa0, 0x01), 0x01)\n        /* \"PoolPandoras.sol\":8079:8102  isWhitelisted[users[i]] */\n      and\n      dup2\n      mstore\n      0x20\n      dup2\n      add\n      swap2\n      swap1\n      swap2\n      mstore\n      0x40\n      add\n      0x00\n      keccak256\n        /* \"PoolPandoras.sol\":8079:8116  isWhitelisted[users[i]] = statuses[i] */\n      dup1\n      sload\n      not(0xff)\n      and\n      swap2\n      iszero\n      iszero\n      swap2\n      swap1\n      swap2\n      or\n      swap1\n      sstore\n        /* \"PoolPandoras.sol\":8151:8156  users */\n      dup6\n      dup6\n        /* \"PoolPandoras.sol\":8157:8158  i */\n      dup3\n        /* \"PoolPandoras.sol\":8151:8159  users[i] */\n      dup2\n      dup2\n      lt\n      tag_591\n      jumpi\n      tag_591\n      tag_508\n      jump\t// in\n    tag_591:\n      swap1\n      pop\n      0x20\n      mul\n      add\n      0x20\n      dup2\n      add\n      swap1\n      tag_592\n      swap2\n      swap1\n      tag_122\n      jump\t// in\n    tag_592:\n      sub(shl(0xa0, 0x01), 0x01)\n        /* \"PoolPandoras.sol\":8135:8173  UserWhitelisted(users[i], statuses[i]) */\n      and\n      0x995d2434d36c9bceaab42c56efe51e8ffe41fd11cabefd9e2cb83700d8b2035e\n        /* \"PoolPandoras.sol\":8161:8169  statuses */\n      dup6\n      dup6\n        /* \"PoolPandoras.sol\":8170:8171  i */\n      dup5\n        /* \"PoolPandoras.sol\":8161:8172  statuses[i] */\n      dup2\n      dup2\n      lt\n      tag_594\n      jumpi\n      tag_594\n      tag_508\n      jump\t// in\n    tag_594:\n      swap1\n      pop\n      0x20\n      mul\n      add\n      0x20\n      dup2\n      add\n      swap1\n      tag_595\n      swap2\n      swap1\n      tag_129\n      jump\t// in\n    tag_595:\n        /* \"PoolPandoras.sol\":8135:8173  UserWhitelisted(users[i], statuses[i]) */\n      mload(0x40)\n        /* \"#utility.yul\":470:484   */\n      swap1\n      iszero\n        /* \"#utility.yul\":463:485   */\n      iszero\n        /* \"#utility.yul\":445:486   */\n      dup2\n      mstore\n        /* \"#utility.yul\":433:435   */\n      0x20\n        /* \"#utility.yul\":418:436   */\n      add\n        /* \"PoolPandoras.sol\":8135:8173  UserWhitelisted(users[i], statuses[i]) */\n      mload(0x40)\n      dup1\n      swap2\n      sub\n      swap1\n      log2\n        /* \"PoolPandoras.sol\":8060:8063  i++ */\n      0x01\n      add\n        /* \"PoolPandoras.sol\":8022:8184  for (uint256 i = 0; i < users.length; i++) {... */\n      jump(tag_581)\n    tag_582:\n      pop\n        /* \"PoolPandoras.sol\":7828:8190  function setWhitelistBatch(address[] calldata users, bool[] calldata statuses) external onlyRole(ADMIN_ROLE) {... */\n      pop\n      pop\n      pop\n      pop\n      pop\n      jump\t// out\n        /* \"PoolPandoras.sol\":24064:25197  function getUserStats(address user) external view returns (... */\n    tag_217:\n      sub(shl(0xa0, 0x01), 0x01)\n        /* \"PoolPandoras.sol\":24428:24446  userDeposits[user] */\n      dup2\n      and\n        /* \"PoolPandoras.sol\":24132:24152  uint256 depositedETH */\n      0x00\n        /* \"PoolPandoras.sol\":24428:24446  userDeposits[user] */\n      swap1\n      dup2\n      mstore\n        /* \"PoolPandoras.sol\":24428:24440  userDeposits */\n      0x06\n        /* \"PoolPandoras.sol\":24428:24446  userDeposits[user] */\n      0x20\n      mstore\n      0x40\n      dup2\n      keccak256\n        /* \"PoolPandoras.sol\":24132:24152  uint256 depositedETH */\n      dup2\n      swap1\n      dup2\n      swap1\n      dup2\n      swap1\n      dup2\n      swap1\n      dup2\n      swap1\n      dup2\n      swap1\n      dup2\n      swap1\n      dup2\n        /* \"PoolPandoras.sol\":24456:25066  for (uint256 i = 0; i < deps.length; i++) {... */\n    tag_598:\n        /* \"PoolPandoras.sol\":24480:24491  deps.length */\n      dup2\n      sload\n        /* \"PoolPandoras.sol\":24476:24491  i < deps.length */\n      dup2\n      lt\n        /* \"PoolPandoras.sol\":24456:25066  for (uint256 i = 0; i < deps.length; i++) {... */\n      iszero\n      tag_599\n      jumpi\n        /* \"PoolPandoras.sol\":24512:24534  DepositInfo memory dep */\n      0x00\n        /* \"PoolPandoras.sol\":24537:24541  deps */\n      dup3\n        /* \"PoolPandoras.sol\":24542:24543  i */\n      dup3\n        /* \"PoolPandoras.sol\":24537:24544  deps[i] */\n      dup2\n      sload\n      dup2\n      lt\n      tag_602\n      jumpi\n      tag_602\n      tag_508\n      jump\t// in\n    tag_602:\n      0x00\n      swap2\n      dup3\n      mstore\n      0x20\n      swap2\n      dup3\n      swap1\n      keccak256\n        /* \"PoolPandoras.sol\":24512:24544  DepositInfo memory dep = deps[i] */\n      0x40\n      dup1\n      mload\n      0xc0\n      dup2\n      add\n      dup3\n      mstore\n        /* \"PoolPandoras.sol\":24537:24544  deps[i] */\n      0x02\n      swap1\n      swap4\n      mul\n      swap1\n      swap2\n      add\n        /* \"PoolPandoras.sol\":24512:24544  DepositInfo memory dep = deps[i] */\n      dup1\n      sload\n      sub(shl(0x60, 0x01), 0x01)\n      dup1\n      dup3\n      and\n      dup6\n      mstore\n      shl(0x60, 0x01)\n      dup3\n      div\n      and\n      swap5\n      dup5\n      add\n      swap5\n      swap1\n      swap5\n      mstore\n      0xffffffffffff\n      shl(0xc0, 0x01)\n      swap1\n      swap5\n      div\n      dup5\n      and\n      swap2\n      dup4\n      add\n      swap2\n      swap1\n      swap2\n      mstore\n      0x01\n      dup1\n      dup3\n      add\n      sload\n      swap4\n      dup5\n      and\n      0x60\n      dup5\n      add\n      mstore\n      swap2\n      swap3\n        /* \"PoolPandoras.sol\":24537:24544  deps[i] */\n      swap1\n      swap2\n        /* \"PoolPandoras.sol\":24512:24544  DepositInfo memory dep = deps[i] */\n      0x80\n      dup5\n      add\n      swap2\n      0xff\n      0x01000000000000\n      swap1\n      swap2\n      div\n      and\n      swap1\n      dup2\n      gt\n      iszero\n      tag_605\n      jumpi\n      tag_605\n      tag_497\n      jump\t// in\n    tag_605:\n      0x01\n      dup2\n      gt\n      iszero\n      tag_607\n      jumpi\n      tag_607\n      tag_497\n      jump\t// in\n    tag_607:\n      dup2\n      mstore\n      0x01\n      swap2\n      swap1\n      swap2\n      add\n      sload\n      shl(0x38, 0x01)\n      swap1\n      div\n      0xff\n      and\n      0x20\n      swap1\n      swap2\n      add\n      mstore\n        /* \"PoolPandoras.sol\":24581:24590  dep.flags */\n      0xa0\n      dup2\n      add\n      mload\n      swap1\n      swap2\n      pop\n        /* \"PoolPandoras.sol\":24594:24600  1 << 3 */\n      0x08\n        /* \"PoolPandoras.sol\":24581:24601  dep.flags & (1 << 3) */\n      and\n        /* \"PoolPandoras.sol\":24580:24607  (dep.flags & (1 << 3)) != 0 */\n      iszero\n      iszero\n      0x00\n        /* \"PoolPandoras.sol\":24625:24628  dep */\n      dup3\n        /* \"PoolPandoras.sol\":24625:24634  dep.token */\n      0x80\n      add\n      mload\n        /* \"PoolPandoras.sol\":24625:24651  dep.token == TokenType.ETH */\n      0x01\n      dup2\n      gt\n      iszero\n      tag_611\n      jumpi\n      tag_611\n      tag_497\n      jump\t// in\n    tag_611:\n      sub\n        /* \"PoolPandoras.sol\":24621:25056  if (dep.token == TokenType.ETH) {... */\n      tag_612\n      jumpi\n        /* \"PoolPandoras.sol\":24687:24697  dep.amount */\n      dup2\n      mload\n        /* \"PoolPandoras.sol\":24671:24697  depositedETH += dep.amount */\n      tag_613\n      swap1\n      sub(shl(0x60, 0x01), 0x01)\n      and\n      dup14\n      tag_487\n      jump\t// in\n    tag_613:\n      swap12\n      pop\n        /* \"PoolPandoras.sol\":24719:24742  _isWithdrawn(dep.flags) */\n      tag_614\n        /* \"PoolPandoras.sol\":24732:24735  dep */\n      dup3\n        /* \"PoolPandoras.sol\":24732:24741  dep.flags */\n      0xa0\n      add\n      mload\n        /* \"PoolPandoras.sol\":12065:12071  1 << 0 */\n      0x01\n        /* \"PoolPandoras.sol\":12056:12072  flags & (1 << 0) */\n      and\n        /* \"PoolPandoras.sol\":12055:12078  (flags & (1 << 0)) != 0 */\n      iszero\n      iszero\n      swap1\n        /* \"PoolPandoras.sol\":11974:12085  function _isWithdrawn(uint8 flags) internal pure returns (bool) {... */\n      jump\n        /* \"PoolPandoras.sol\":24719:24742  _isWithdrawn(dep.flags) */\n    tag_614:\n        /* \"PoolPandoras.sol\":24715:24770  if (_isWithdrawn(dep.flags)) withdrawnETH += dep.amount */\n      iszero\n      tag_615\n      jumpi\n        /* \"PoolPandoras.sol\":24760:24770  dep.amount */\n      dup2\n      mload\n        /* \"PoolPandoras.sol\":24744:24770  withdrawnETH += dep.amount */\n      tag_616\n      swap1\n      sub(shl(0x60, 0x01), 0x01)\n      and\n      dup12\n      tag_487\n      jump\t// in\n    tag_616:\n      swap10\n      pop\n        /* \"PoolPandoras.sol\":24715:24770  if (_isWithdrawn(dep.flags)) withdrawnETH += dep.amount */\n    tag_615:\n        /* \"PoolPandoras.sol\":24792:24806  isReinvestment */\n      dup1\n        /* \"PoolPandoras.sol\":24788:24835  if (isReinvestment) reinvestedETH += dep.amount */\n      iszero\n      tag_617\n      jumpi\n        /* \"PoolPandoras.sol\":24825:24835  dep.amount */\n      dup2\n      mload\n        /* \"PoolPandoras.sol\":24808:24835  reinvestedETH += dep.amount */\n      tag_618\n      swap1\n      sub(shl(0x60, 0x01), 0x01)\n      and\n      dup8\n      tag_487\n      jump\t// in\n    tag_618:\n      swap6\n      pop\n        /* \"PoolPandoras.sol\":24788:24835  if (isReinvestment) reinvestedETH += dep.amount */\n    tag_617:\n        /* \"PoolPandoras.sol\":24621:25056  if (dep.token == TokenType.ETH) {... */\n      jump(tag_624)\n    tag_612:\n        /* \"PoolPandoras.sol\":24891:24901  dep.amount */\n      dup2\n      mload\n        /* \"PoolPandoras.sol\":24874:24901  depositedUSDC += dep.amount */\n      tag_620\n      swap1\n      sub(shl(0x60, 0x01), 0x01)\n      and\n      dup13\n      tag_487\n      jump\t// in\n    tag_620:\n      swap11\n      pop\n        /* \"PoolPandoras.sol\":24923:24946  _isWithdrawn(dep.flags) */\n      tag_621\n        /* \"PoolPandoras.sol\":24936:24939  dep */\n      dup3\n        /* \"PoolPandoras.sol\":24936:24945  dep.flags */\n      0xa0\n      add\n      mload\n        /* \"PoolPandoras.sol\":12065:12071  1 << 0 */\n      0x01\n        /* \"PoolPandoras.sol\":12056:12072  flags & (1 << 0) */\n      and\n        /* \"PoolPandoras.sol\":12055:12078  (flags & (1 << 0)) != 0 */\n      iszero\n      iszero\n      swap1\n        /* \"PoolPandoras.sol\":11974:12085  function _isWithdrawn(uint8 flags) internal pure returns (bool) {... */\n      jump\n        /* \"PoolPandoras.sol\":24923:24946  _isWithdrawn(dep.flags) */\n    tag_621:\n        /* \"PoolPandoras.sol\":24919:24975  if (_isWithdrawn(dep.flags)) withdrawnUSDC += dep.amount */\n      iszero\n      tag_622\n      jumpi\n        /* \"PoolPandoras.sol\":24965:24975  dep.amount */\n      dup2\n      mload\n        /* \"PoolPandoras.sol\":24948:24975  withdrawnUSDC += dep.amount */\n      tag_623\n      swap1\n      sub(shl(0x60, 0x01), 0x01)\n      and\n      dup11\n      tag_487\n      jump\t// in\n    tag_623:\n      swap9\n      pop\n        /* \"PoolPandoras.sol\":24919:24975  if (_isWithdrawn(dep.flags)) withdrawnUSDC += dep.amount */\n    tag_622:\n        /* \"PoolPandoras.sol\":24997:25011  isReinvestment */\n      dup1\n        /* \"PoolPandoras.sol\":24993:25041  if (isReinvestment) reinvestedUSDC += dep.amount */\n      iszero\n      tag_624\n      jumpi\n        /* \"PoolPandoras.sol\":25031:25041  dep.amount */\n      dup2\n      mload\n        /* \"PoolPandoras.sol\":25013:25041  reinvestedUSDC += dep.amount */\n      tag_625\n      swap1\n      sub(shl(0x60, 0x01), 0x01)\n      and\n      dup7\n      tag_487\n      jump\t// in\n    tag_625:\n      swap5\n      pop\n        /* \"PoolPandoras.sol\":24993:25041  if (isReinvestment) reinvestedUSDC += dep.amount */\n    tag_624:\n      pop\n      pop\n        /* \"PoolPandoras.sol\":24493:24496  i++ */\n      0x01\n      add\n        /* \"PoolPandoras.sol\":24456:25066  for (uint256 i = 0; i < deps.length; i++) {... */\n      jump(tag_598)\n    tag_599:\n      pop\n      pop\n      sub(shl(0xa0, 0x01), 0x01)\n        /* \"PoolPandoras.sol\":25098:25127  userClaimableUtilityETH[user] */\n      swap1\n      swap9\n      and\n      0x00\n      swap1\n      dup2\n      mstore\n        /* \"PoolPandoras.sol\":25098:25121  userClaimableUtilityETH */\n      0x09\n        /* \"PoolPandoras.sol\":25098:25127  userClaimableUtilityETH[user] */\n      0x20\n      swap1\n      dup2\n      mstore\n      0x40\n      dup1\n      dup4\n      keccak256\n      sload\n        /* \"PoolPandoras.sol\":25160:25184  userClaimableUtilityUSDC */\n      0x0a\n        /* \"PoolPandoras.sol\":25160:25190  userClaimableUtilityUSDC[user] */\n      swap1\n      swap3\n      mstore\n      swap1\n      swap2\n      keccak256\n      sload\n        /* \"PoolPandoras.sol\":24064:25197  function getUserStats(address user) external view returns (... */\n      swap8\n      swap10\n      swap7\n      swap9\n      swap6\n      swap8\n      swap5\n      swap7\n        /* \"PoolPandoras.sol\":25098:25127  userClaimableUtilityETH[user] */\n      swap1\n      swap6\n        /* \"PoolPandoras.sol\":24064:25197  function getUserStats(address user) external view returns (... */\n      swap2\n      swap4\n      pop\n      swap1\n      swap2\n      pop\n      jump\t// out\n        /* \"PoolPandoras.sol\":7655:7823  function setWhitelist(address user, bool status) external onlyRole(ADMIN_ROLE) {... */\n    tag_228:\n      0x00\n      dup1\n      mload\n      0x20\n      data_cb864c43dd5d441bb6271f424f11befa622c032dfd374d226e26fbbdb782b8f8\n      dup4\n      codecopy\n      dup2\n      mload\n      swap2\n      mstore\n        /* \"@openzeppelin/contracts/access/AccessControl.sol\":2473:2489   */\n      tag_627\n        /* \"@openzeppelin/contracts/access/AccessControl.sol\":2484:2488   */\n      dup2\n        /* \"@openzeppelin/contracts/access/AccessControl.sol\":2473:2483   */\n      tag_458\n        /* \"@openzeppelin/contracts/access/AccessControl.sol\":2473:2489   */\n      jump\t// in\n    tag_627:\n      sub(shl(0xa0, 0x01), 0x01)\n        /* \"PoolPandoras.sol\":7744:7763  isWhitelisted[user] */\n      dup4\n      and\n      0x00\n      dup2\n      dup2\n      mstore\n        /* \"PoolPandoras.sol\":7744:7757  isWhitelisted */\n      0x07\n        /* \"PoolPandoras.sol\":7744:7763  isWhitelisted[user] */\n      0x20\n      swap1\n      dup2\n      mstore\n      0x40\n      swap2\n      dup3\n      swap1\n      keccak256\n        /* \"PoolPandoras.sol\":7744:7772  isWhitelisted[user] = status */\n      dup1\n      sload\n      not(0xff)\n      and\n      dup7\n      iszero\n      iszero\n      swap1\n      dup2\n      or\n      swap1\n      swap2\n      sstore\n        /* \"PoolPandoras.sol\":7787:7816  UserWhitelisted(user, status) */\n      swap2\n      mload\n        /* \"#utility.yul\":445:486   */\n      swap2\n      dup3\n      mstore\n        /* \"PoolPandoras.sol\":7787:7816  UserWhitelisted(user, status) */\n      0x995d2434d36c9bceaab42c56efe51e8ffe41fd11cabefd9e2cb83700d8b2035e\n      swap2\n        /* \"#utility.yul\":418:436   */\n      add\n        /* \"PoolPandoras.sol\":7787:7816  UserWhitelisted(user, status) */\n      mload(0x40)\n      dup1\n      swap2\n      sub\n      swap1\n      log2\n        /* \"PoolPandoras.sol\":7655:7823  function setWhitelist(address user, bool status) external onlyRole(ADMIN_ROLE) {... */\n      pop\n      pop\n      pop\n      jump\t// out\n        /* \"PoolPandoras.sol\":9789:10216  function returnInvestmentUSDC(uint256 amount) external onlyRole(MANAGER_ROLE) nonReentrant {... */\n    tag_242:\n        /* \"PoolPandoras.sol\":2272:2297  keccak256(\"MANAGER_ROLE\") */\n      0x241ecf16d79d0f8dbfb92cbc07fe17840425976cf0667f022fe9877caa831b08\n        /* \"@openzeppelin/contracts/access/AccessControl.sol\":2473:2489   */\n      tag_633\n        /* \"@openzeppelin/contracts/access/AccessControl.sol\":2484:2488   */\n      dup2\n        /* \"@openzeppelin/contracts/access/AccessControl.sol\":2473:2483   */\n      tag_458\n        /* \"@openzeppelin/contracts/access/AccessControl.sol\":2473:2489   */\n      jump\t// in\n    tag_633:\n        /* \"@openzeppelin/contracts/utils/ReentrancyGuard.sol\":2500:2521   */\n      tag_635\n        /* \"@openzeppelin/contracts/utils/ReentrancyGuard.sol\":2500:2519   */\n      tag_466\n        /* \"@openzeppelin/contracts/utils/ReentrancyGuard.sol\":2500:2521   */\n      jump\t// in\n    tag_635:\n        /* \"PoolPandoras.sol\":9894:9900  amount */\n      dup2\n        /* \"PoolPandoras.sol\":9904:9905  0 */\n      0x00\n        /* \"PoolPandoras.sol\":9894:9905  amount == 0 */\n      sub\n        /* \"PoolPandoras.sol\":9890:9929  if (amount == 0) revert InvalidAmount() */\n      tag_637\n      jumpi\n        /* \"PoolPandoras.sol\":9914:9929  InvalidAmount() */\n      mload(0x40)\n      shl(0xe1, 0x162908e3)\n      dup2\n      mstore\n      0x04\n      add\n      mload(0x40)\n      dup1\n      swap2\n      sub\n      swap1\n      revert\n        /* \"PoolPandoras.sol\":9890:9929  if (amount == 0) revert InvalidAmount() */\n    tag_637:\n        /* \"PoolPandoras.sol\":9952:9969  totalInvestedUSDC */\n      sload(0x18)\n        /* \"PoolPandoras.sol\":9943:9949  amount */\n      dup3\n        /* \"PoolPandoras.sol\":9943:9969  amount > totalInvestedUSDC */\n      gt\n        /* \"PoolPandoras.sol\":9939:10009  if (amount > totalInvestedUSDC) revert ReturnedAmountExceedsInvested() */\n      iszero\n      tag_638\n      jumpi\n        /* \"PoolPandoras.sol\":9978:10009  ReturnedAmountExceedsInvested() */\n      mload(0x40)\n      shl(0xe2, 0x04711311)\n      dup2\n      mstore\n      0x04\n      add\n      mload(0x40)\n      dup1\n      swap2\n      sub\n      swap1\n      revert\n        /* \"PoolPandoras.sol\":9939:10009  if (amount > totalInvestedUSDC) revert ReturnedAmountExceedsInvested() */\n    tag_638:\n        /* \"PoolPandoras.sol\":10041:10047  amount */\n      dup2\n        /* \"PoolPandoras.sol\":10020:10037  totalInvestedUSDC */\n      0x18\n      0x00\n        /* \"PoolPandoras.sol\":10020:10047  totalInvestedUSDC -= amount */\n      dup3\n      dup3\n      sload\n      tag_639\n      swap2\n      swap1\n      tag_471\n      jump\t// in\n    tag_639:\n      swap1\n      swap2\n      sstore\n      pop\n        /* \"PoolPandoras.sol\":1229:1271  0x833589fCD6eDb6E08f4c7C32D4f71b54bdA02913 */\n      0x833589fcd6edb6e08f4c7c32d4f71b54bda02913\n      swap1\n      pop\n        /* \"PoolPandoras.sol\":10058:10083  IERC20(USDC).transferFrom */\n      0x23b872dd\n        /* \"PoolPandoras.sol\":10084:10096  _msgSender() */\n      tag_640\n        /* \"PoolPandoras.sol\":10084:10094  _msgSender */\n      tag_473\n        /* \"PoolPandoras.sol\":10084:10096  _msgSender() */\n      jump\t// in\n    tag_640:\n        /* \"PoolPandoras.sol\":10058:10120  IERC20(USDC).transferFrom(_msgSender(), address(this), amount) */\n      mload(0x40)\n      not(sub(shl(0xe0, 0x01), 0x01))\n      0xe0\n      dup5\n      swap1\n      shl\n      and\n      dup2\n      mstore\n      sub(shl(0xa0, 0x01), 0x01)\n        /* \"#utility.yul\":13834:13849   */\n      swap1\n      swap2\n      and\n        /* \"PoolPandoras.sol\":10058:10120  IERC20(USDC).transferFrom(_msgSender(), address(this), amount) */\n      0x04\n      dup3\n      add\n        /* \"#utility.yul\":13816:13850   */\n      mstore\n        /* \"PoolPandoras.sol\":10106:10110  this */\n      address\n        /* \"#utility.yul\":13866:13884   */\n      0x24\n      dup3\n      add\n        /* \"#utility.yul\":13859:13902   */\n      mstore\n        /* \"#utility.yul\":13918:13936   */\n      0x44\n      dup2\n      add\n        /* \"#utility.yul\":13911:13945   */\n      dup6\n      swap1\n      mstore\n        /* \"#utility.yul\":13728:13746   */\n      0x64\n      add\n        /* \"PoolPandoras.sol\":10058:10120  IERC20(USDC).transferFrom(_msgSender(), address(this), amount) */\n      0x20\n      mload(0x40)\n      dup1\n      dup4\n      sub\n      dup2\n      0x00\n      dup8\n      gas\n      call\n      iszero\n      dup1\n      iszero\n      tag_644\n      jumpi\n      returndatasize\n      0x00\n      dup1\n      returndatacopy\n      revert(0x00, returndatasize)\n    tag_644:\n      pop\n      pop\n      pop\n      pop\n      mload(0x40)\n      returndatasize\n      not(0x1f)\n      0x1f\n      dup3\n      add\n      and\n      dup3\n      add\n      dup1\n      0x40\n      mstore\n      pop\n      dup2\n      add\n      swap1\n      tag_645\n      swap2\n      swap1\n      tag_543\n      jump\t// in\n    tag_645:\n      pop\n        /* \"PoolPandoras.sol\":10155:10167  _msgSender() */\n      tag_646\n        /* \"PoolPandoras.sol\":10155:10165  _msgSender */\n      tag_473\n        /* \"PoolPandoras.sol\":10155:10167  _msgSender() */\n      jump\t// in\n    tag_646:\n      sub(shl(0xa0, 0x01), 0x01)\n        /* \"PoolPandoras.sol\":10136:10209  InvestmentReturned(_msgSender(), TokenType.USDC, amount, block.timestamp) */\n      and\n      0x1b0029d3a4003762f16d0dc71199ce167b1d4bf00c5b97a3e28f613e921d6540\n        /* \"PoolPandoras.sol\":10169:10183  TokenType.USDC */\n      0x01\n        /* \"PoolPandoras.sol\":10185:10191  amount */\n      dup5\n        /* \"PoolPandoras.sol\":10193:10208  block.timestamp */\n      timestamp\n        /* \"PoolPandoras.sol\":10136:10209  InvestmentReturned(_msgSender(), TokenType.USDC, amount, block.timestamp) */\n      mload(0x40)\n      tag_647\n      swap4\n      swap3\n      swap2\n      swap1\n      tag_475\n      jump\t// in\n    tag_647:\n      mload(0x40)\n      dup1\n      swap2\n      sub\n      swap1\n      log2\n        /* \"@openzeppelin/contracts/utils/ReentrancyGuard.sol\":2542:2562   */\n      tag_648\n        /* \"@openzeppelin/contracts/utils/ReentrancyGuard.sol\":1857:1858   */\n      0x01\n        /* \"@openzeppelin/contracts/utils/ReentrancyGuard.sol\":3068:3089   */\n      dup1\n      sstore\n        /* \"@openzeppelin/contracts/utils/ReentrancyGuard.sol\":2888:3096   */\n      jump\n        /* \"@openzeppelin/contracts/utils/ReentrancyGuard.sol\":2542:2562   */\n    tag_648:\n        /* \"PoolPandoras.sol\":9789:10216  function returnInvestmentUSDC(uint256 amount) external onlyRole(MANAGER_ROLE) nonReentrant {... */\n      pop\n      pop\n      jump\t// out\n        /* \"PoolPandoras.sol\":17681:17942  function injectUtilityETH() external payable onlyRole(UTILITY_INJECTOR_ROLE) {... */\n    tag_253:\n        /* \"PoolPandoras.sol\":2092:2126  keccak256(\"UTILITY_INJECTOR_ROLE\") */\n      0xf60566c40710959d8d30b6067ce3c53c757bec78eecb0e46b83c7f8194ffae37\n        /* \"@openzeppelin/contracts/access/AccessControl.sol\":2473:2489   */\n      tag_650\n        /* \"@openzeppelin/contracts/access/AccessControl.sol\":2484:2488   */\n      dup2\n        /* \"@openzeppelin/contracts/access/AccessControl.sol\":2473:2483   */\n      tag_458\n        /* \"@openzeppelin/contracts/access/AccessControl.sol\":2473:2489   */\n      jump\t// in\n    tag_650:\n        /* \"PoolPandoras.sol\":17772:17781  msg.value */\n      callvalue\n        /* \"PoolPandoras.sol\":17785:17786  0 */\n      0x00\n        /* \"PoolPandoras.sol\":17772:17786  msg.value == 0 */\n      sub\n        /* \"PoolPandoras.sol\":17768:17810  if (msg.value == 0) revert InvalidAmount() */\n      tag_652\n      jumpi\n        /* \"PoolPandoras.sol\":17795:17810  InvalidAmount() */\n      mload(0x40)\n      shl(0xe1, 0x162908e3)\n      dup2\n      mstore\n      0x04\n      add\n      mload(0x40)\n      dup1\n      swap2\n      sub\n      swap1\n      revert\n        /* \"PoolPandoras.sol\":17768:17810  if (msg.value == 0) revert InvalidAmount() */\n    tag_652:\n        /* \"PoolPandoras.sol\":17839:17848  msg.value */\n      callvalue\n        /* \"PoolPandoras.sol\":17820:17835  totalUtilityETH */\n      0x13\n      0x00\n        /* \"PoolPandoras.sol\":17820:17848  totalUtilityETH += msg.value */\n      dup3\n      dup3\n      sload\n      tag_653\n      swap2\n      swap1\n      tag_487\n      jump\t// in\n    tag_653:\n      swap1\n      swap2\n      sstore\n      pop\n        /* \"PoolPandoras.sol\":17879:17891  _msgSender() */\n      tag_654\n      swap1\n      pop\n        /* \"PoolPandoras.sol\":17879:17889  _msgSender */\n      tag_473\n        /* \"PoolPandoras.sol\":17879:17891  _msgSender() */\n      jump\t// in\n    tag_654:\n      sub(shl(0xa0, 0x01), 0x01)\n        /* \"PoolPandoras.sol\":17863:17935  UtilityInjected(_msgSender(), TokenType.ETH, msg.value, block.timestamp) */\n      and\n      0x8bafec96fcffb6f12596b4635c76397b7bc1f363b22c49c13136b63677323dcc\n        /* \"PoolPandoras.sol\":17893:17906  TokenType.ETH */\n      0x00\n        /* \"PoolPandoras.sol\":17908:17917  msg.value */\n      callvalue\n        /* \"PoolPandoras.sol\":17919:17934  block.timestamp */\n      timestamp\n        /* \"PoolPandoras.sol\":17863:17935  UtilityInjected(_msgSender(), TokenType.ETH, msg.value, block.timestamp) */\n      mload(0x40)\n      tag_655\n      swap4\n      swap3\n      swap2\n      swap1\n      tag_475\n      jump\t// in\n    tag_655:\n      mload(0x40)\n      dup1\n      swap2\n      sub\n      swap1\n      log2\n        /* \"PoolPandoras.sol\":17681:17942  function injectUtilityETH() external payable onlyRole(UTILITY_INJECTOR_ROLE) {... */\n      pop\n      jump\t// out\n        /* \"PoolPandoras.sol\":7302:7527  function setPaused(bool _deposits, bool _withdrawals) external onlyRole(PAUSER_ROLE) {... */\n    tag_258:\n        /* \"PoolPandoras.sol\":1932:1956  keccak256(\"PAUSER_ROLE\") */\n      0x65d7a28e3265b37a6474929f336521b332c1681b933f6cb9f3376673440d862a\n        /* \"@openzeppelin/contracts/access/AccessControl.sol\":2473:2489   */\n      tag_657\n        /* \"@openzeppelin/contracts/access/AccessControl.sol\":2484:2488   */\n      dup2\n        /* \"@openzeppelin/contracts/access/AccessControl.sol\":2473:2483   */\n      tag_458\n        /* \"@openzeppelin/contracts/access/AccessControl.sol\":2473:2489   */\n      jump\t// in\n    tag_657:\n        /* \"PoolPandoras.sol\":7397:7411  pausedDeposits */\n      0x05\n        /* \"PoolPandoras.sol\":7397:7426  pausedDeposits    = _deposits */\n      dup1\n      sload\n        /* \"PoolPandoras.sol\":7436:7468  pausedWithdrawals = _withdrawals */\n      dup4\n      iszero\n      iszero\n        /* \"PoolPandoras.sol\":7397:7426  pausedDeposits    = _deposits */\n      0x0100\n        /* \"PoolPandoras.sol\":7436:7468  pausedWithdrawals = _withdrawals */\n      dup2\n      mul\n      not(0xff00)\n        /* \"PoolPandoras.sol\":7397:7426  pausedDeposits    = _deposits */\n      dup8\n      iszero\n      iszero\n        /* \"PoolPandoras.sol\":7436:7468  pausedWithdrawals = _withdrawals */\n      swap1\n      dup2\n      and\n      not(0xffff)\n      swap1\n      swap5\n      and\n      swap4\n      swap1\n      swap4\n      or\n      or\n      swap1\n      swap3\n      sstore\n        /* \"PoolPandoras.sol\":7483:7520  PauseChanged(_deposits, _withdrawals) */\n      0x40\n      dup1\n      mload\n        /* \"#utility.yul\":14118:14159   */\n      swap2\n      dup3\n      mstore\n        /* \"#utility.yul\":14190:14192   */\n      0x20\n        /* \"#utility.yul\":14175:14193   */\n      dup3\n      add\n        /* \"#utility.yul\":14168:14218   */\n      swap3\n      swap1\n      swap3\n      mstore\n        /* \"PoolPandoras.sol\":7483:7520  PauseChanged(_deposits, _withdrawals) */\n      0xac1664632d6278432aa05a6afc0aa83e5ea08e8df9a1436736daa5d6283211c0\n      swap2\n        /* \"#utility.yul\":14091:14109   */\n      add\n        /* \"PoolPandoras.sol\":7483:7520  PauseChanged(_deposits, _withdrawals) */\n    tag_659:\n      mload(0x40)\n      dup1\n      swap2\n      sub\n      swap1\n      log1\n        /* \"PoolPandoras.sol\":7302:7527  function setPaused(bool _deposits, bool _withdrawals) external onlyRole(PAUSER_ROLE) {... */\n      pop\n      pop\n      pop\n      jump\t// out\n        /* \"PoolPandoras.sol\":20498:20852  function claimUtilityUSDC() external nonReentrant {... */\n    tag_266:\n        /* \"@openzeppelin/contracts/utils/ReentrancyGuard.sol\":2500:2521   */\n      tag_662\n        /* \"@openzeppelin/contracts/utils/ReentrancyGuard.sol\":2500:2519   */\n      tag_466\n        /* \"@openzeppelin/contracts/utils/ReentrancyGuard.sol\":2500:2521   */\n      jump\t// in\n    tag_662:\n        /* \"PoolPandoras.sol\":20558:20570  address user */\n      0x00\n        /* \"PoolPandoras.sol\":20573:20585  _msgSender() */\n      tag_664\n        /* \"PoolPandoras.sol\":20573:20583  _msgSender */\n      tag_473\n        /* \"PoolPandoras.sol\":20573:20585  _msgSender() */\n      jump\t// in\n    tag_664:\n      sub(shl(0xa0, 0x01), 0x01)\n        /* \"PoolPandoras.sol\":20609:20639  userClaimableUtilityUSDC[user] */\n      dup2\n      and\n        /* \"PoolPandoras.sol\":20595:20606  uint256 amt */\n      0x00\n        /* \"PoolPandoras.sol\":20609:20639  userClaimableUtilityUSDC[user] */\n      swap1\n      dup2\n      mstore\n        /* \"PoolPandoras.sol\":20609:20633  userClaimableUtilityUSDC */\n      0x0a\n        /* \"PoolPandoras.sol\":20609:20639  userClaimableUtilityUSDC[user] */\n      0x20\n      mstore\n      0x40\n      dup2\n      keccak256\n      sload\n        /* \"PoolPandoras.sol\":20558:20585  address user = _msgSender() */\n      swap2\n      swap3\n      pop\n        /* \"PoolPandoras.sol\":20653:20661  amt == 0 */\n      dup2\n      swap1\n      sub\n        /* \"PoolPandoras.sol\":20649:20688  if (amt == 0) revert NoUtilityToClaim() */\n      tag_665\n      jumpi\n        /* \"PoolPandoras.sol\":20670:20688  NoUtilityToClaim() */\n      mload(0x40)\n      shl(0xe2, 0x3bd65a7b)\n      dup2\n      mstore\n      0x04\n      add\n      mload(0x40)\n      dup1\n      swap2\n      sub\n      swap1\n      revert\n        /* \"PoolPandoras.sol\":20649:20688  if (amt == 0) revert NoUtilityToClaim() */\n    tag_665:\n      sub(shl(0xa0, 0x01), 0x01)\n        /* \"PoolPandoras.sol\":20698:20728  userClaimableUtilityUSDC[user] */\n      dup3\n      and\n        /* \"PoolPandoras.sol\":20731:20732  0 */\n      0x00\n        /* \"PoolPandoras.sol\":20698:20728  userClaimableUtilityUSDC[user] */\n      dup2\n      dup2\n      mstore\n        /* \"PoolPandoras.sol\":20698:20722  userClaimableUtilityUSDC */\n      0x0a\n        /* \"PoolPandoras.sol\":20698:20728  userClaimableUtilityUSDC[user] */\n      0x20\n      mstore\n      0x40\n      dup1\n      dup3\n      keccak256\n        /* \"PoolPandoras.sol\":20698:20732  userClaimableUtilityUSDC[user] = 0 */\n      swap2\n      swap1\n      swap2\n      sstore\n        /* \"PoolPandoras.sol\":20742:20774  IERC20(USDC).transfer(user, amt) */\n      mload\n      shl(0xe0, 0xa9059cbb)\n      dup2\n      mstore\n      0x04\n      dup2\n      add\n        /* \"#utility.yul\":12676:12750   */\n      swap2\n      swap1\n      swap2\n      mstore\n        /* \"#utility.yul\":12766:12784   */\n      0x24\n      dup2\n      add\n        /* \"#utility.yul\":12759:12793   */\n      dup3\n      swap1\n      mstore\n        /* \"PoolPandoras.sol\":1229:1271  0x833589fCD6eDb6E08f4c7C32D4f71b54bdA02913 */\n      0x833589fcd6edb6e08f4c7c32d4f71b54bda02913\n      swap1\n        /* \"PoolPandoras.sol\":20742:20763  IERC20(USDC).transfer */\n      0xa9059cbb\n      swap1\n        /* \"#utility.yul\":12649:12667   */\n      0x44\n      add\n        /* \"PoolPandoras.sol\":20742:20774  IERC20(USDC).transfer(user, amt) */\n      0x20\n      mload(0x40)\n      dup1\n      dup4\n      sub\n      dup2\n      0x00\n      dup8\n      gas\n      call\n      iszero\n      dup1\n      iszero\n      tag_668\n      jumpi\n      returndatasize\n      0x00\n      dup1\n      returndatacopy\n      revert(0x00, returndatasize)\n    tag_668:\n      pop\n      pop\n      pop\n      pop\n      mload(0x40)\n      returndatasize\n      not(0x1f)\n      0x1f\n      dup3\n      add\n      and\n      dup3\n      add\n      dup1\n      0x40\n      mstore\n      pop\n      dup2\n      add\n      swap1\n      tag_669\n      swap2\n      swap1\n      tag_543\n      jump\t// in\n    tag_669:\n      pop\n        /* \"PoolPandoras.sol\":20802:20806  user */\n      dup2\n      sub(shl(0xa0, 0x01), 0x01)\n        /* \"PoolPandoras.sol\":20789:20845  ClaimUtility(user, TokenType.USDC, amt, block.timestamp) */\n      and\n      0x6914793c7a82461acec66c7de7fdbbbf1f825c26bc2fe939b61f0e4f8964c2b5\n        /* \"PoolPandoras.sol\":20808:20822  TokenType.USDC */\n      0x01\n        /* \"PoolPandoras.sol\":20824:20827  amt */\n      dup4\n        /* \"PoolPandoras.sol\":20829:20844  block.timestamp */\n      timestamp\n        /* \"PoolPandoras.sol\":20789:20845  ClaimUtility(user, TokenType.USDC, amt, block.timestamp) */\n      mload(0x40)\n      tag_489\n      swap4\n      swap3\n      swap2\n      swap1\n      tag_475\n      jump\t// in\n        /* \"PoolPandoras.sol\":18329:18623  function assignUtilityETH(address user, uint256 amount) external onlyRole(ADMIN_ROLE) {... */\n    tag_270:\n      0x00\n      dup1\n      mload\n      0x20\n      data_cb864c43dd5d441bb6271f424f11befa622c032dfd374d226e26fbbdb782b8f8\n      dup4\n      codecopy\n      dup2\n      mload\n      swap2\n      mstore\n        /* \"@openzeppelin/contracts/access/AccessControl.sol\":2473:2489   */\n      tag_673\n        /* \"@openzeppelin/contracts/access/AccessControl.sol\":2484:2488   */\n      dup2\n        /* \"@openzeppelin/contracts/access/AccessControl.sol\":2473:2483   */\n      tag_458\n        /* \"@openzeppelin/contracts/access/AccessControl.sol\":2473:2489   */\n      jump\t// in\n    tag_673:\n        /* \"PoolPandoras.sol\":18429:18435  amount */\n      dup2\n        /* \"PoolPandoras.sol\":18439:18440  0 */\n      0x00\n        /* \"PoolPandoras.sol\":18429:18440  amount == 0 */\n      sub\n        /* \"PoolPandoras.sol\":18425:18464  if (amount == 0) revert InvalidAmount() */\n      tag_675\n      jumpi\n        /* \"PoolPandoras.sol\":18449:18464  InvalidAmount() */\n      mload(0x40)\n      shl(0xe1, 0x162908e3)\n      dup2\n      mstore\n      0x04\n      add\n      mload(0x40)\n      dup1\n      swap2\n      sub\n      swap1\n      revert\n        /* \"PoolPandoras.sol\":18425:18464  if (amount == 0) revert InvalidAmount() */\n    tag_675:\n        /* \"PoolPandoras.sol\":18487:18502  totalUtilityETH */\n      sload(0x13)\n        /* \"PoolPandoras.sol\":18478:18484  amount */\n      dup3\n        /* \"PoolPandoras.sol\":18478:18502  amount > totalUtilityETH */\n      gt\n        /* \"PoolPandoras.sol\":18474:18532  if (amount > totalUtilityETH) revert ExceedsTotalUtility() */\n      iszero\n      tag_676\n      jumpi\n        /* \"PoolPandoras.sol\":18511:18532  ExceedsTotalUtility() */\n      mload(0x40)\n      shl(0xe0, 0x2f37549d)\n      dup2\n      mstore\n      0x04\n      add\n      mload(0x40)\n      dup1\n      swap2\n      sub\n      swap1\n      revert\n        /* \"PoolPandoras.sol\":18474:18532  if (amount > totalUtilityETH) revert ExceedsTotalUtility() */\n    tag_676:\n      sub(shl(0xa0, 0x01), 0x01)\n        /* \"PoolPandoras.sol\":18542:18571  userClaimableUtilityETH[user] */\n      dup4\n      and\n      0x00\n      swap1\n      dup2\n      mstore\n        /* \"PoolPandoras.sol\":18542:18565  userClaimableUtilityETH */\n      0x09\n        /* \"PoolPandoras.sol\":18542:18571  userClaimableUtilityETH[user] */\n      0x20\n      mstore\n      0x40\n      dup2\n      keccak256\n        /* \"PoolPandoras.sol\":18542:18581  userClaimableUtilityETH[user] += amount */\n      dup1\n      sload\n        /* \"PoolPandoras.sol\":18575:18581  amount */\n      dup5\n      swap3\n        /* \"PoolPandoras.sol\":18542:18571  userClaimableUtilityETH[user] */\n      swap1\n        /* \"PoolPandoras.sol\":18542:18581  userClaimableUtilityETH[user] += amount */\n      tag_677\n      swap1\n        /* \"PoolPandoras.sol\":18575:18581  amount */\n      dup5\n      swap1\n        /* \"PoolPandoras.sol\":18542:18581  userClaimableUtilityETH[user] += amount */\n      tag_487\n      jump\t// in\n    tag_677:\n      swap3\n      pop\n      pop\n      dup2\n      swap1\n      sstore\n      pop\n        /* \"PoolPandoras.sol\":18610:18616  amount */\n      dup2\n        /* \"PoolPandoras.sol\":18591:18606  totalUtilityETH */\n      0x13\n      0x00\n        /* \"PoolPandoras.sol\":18591:18616  totalUtilityETH -= amount */\n      dup3\n      dup3\n      sload\n      tag_678\n      swap2\n      swap1\n      tag_471\n      jump\t// in\n    tag_678:\n      swap1\n      swap2\n      sstore\n      pop\n      pop\n      pop\n      pop\n      pop\n        /* \"PoolPandoras.sol\":18329:18623  function assignUtilityETH(address user, uint256 amount) external onlyRole(ADMIN_ROLE) {... */\n      jump\t// out\n        /* \"PoolPandoras.sol\":13649:16109  function batchWithdraw(uint256[] calldata depositIndices) external nonReentrant whenWithdrawalsNotPaused {... */\n    tag_275:\n        /* \"@openzeppelin/contracts/utils/ReentrancyGuard.sol\":2500:2521   */\n      tag_680\n        /* \"@openzeppelin/contracts/utils/ReentrancyGuard.sol\":2500:2519   */\n      tag_466\n        /* \"@openzeppelin/contracts/utils/ReentrancyGuard.sol\":2500:2521   */\n      jump\t// in\n    tag_680:\n        /* \"PoolPandoras.sol\":5425:5442  pausedWithdrawals */\n      sload(0x05)\n      0x0100\n      swap1\n      div\n      0xff\n      and\n        /* \"PoolPandoras.sol\":5421:5470  if (pausedWithdrawals) revert WithdrawalsPaused() */\n      iszero\n      tag_682\n      jumpi\n        /* \"PoolPandoras.sol\":5451:5470  WithdrawalsPaused() */\n      mload(0x40)\n      shl(0xe0, 0x6022a9e7)\n      dup2\n      mstore\n      0x04\n      add\n      mload(0x40)\n      dup1\n      swap2\n      sub\n      swap1\n      revert\n        /* \"PoolPandoras.sol\":5421:5470  if (pausedWithdrawals) revert WithdrawalsPaused() */\n    tag_682:\n        /* \"PoolPandoras.sol\":13764:13776  address user */\n      0x00\n        /* \"PoolPandoras.sol\":13779:13791  _msgSender() */\n      tag_684\n        /* \"PoolPandoras.sol\":13779:13789  _msgSender */\n      tag_473\n        /* \"PoolPandoras.sol\":13779:13791  _msgSender() */\n      jump\t// in\n    tag_684:\n        /* \"PoolPandoras.sol\":13764:13791  address user = _msgSender() */\n      swap1\n      pop\n        /* \"PoolPandoras.sol\":13801:13826  uint256 totalPrincipalETH */\n      0x00\n        /* \"PoolPandoras.sol\":13836:13857  uint256 totalYieldETH */\n      dup1\n        /* \"PoolPandoras.sol\":13867:13893  uint256 totalPrincipalUSDC */\n      0x00\n        /* \"PoolPandoras.sol\":13903:13925  uint256 totalYieldUSDC */\n      dup1\n        /* \"PoolPandoras.sol\":13936:13957  uint256 ethToWithdraw */\n      0x00\n        /* \"PoolPandoras.sol\":13967:13989  uint256 usdcToWithdraw */\n      dup1\n        /* \"PoolPandoras.sol\":14005:14014  uint256 i */\n      0x00\n        /* \"PoolPandoras.sol\":14000:15185  for (uint256 i = 0; i < depositIndices.length; i++) {... */\n    tag_685:\n        /* \"PoolPandoras.sol\":14020:14045  i < depositIndices.length */\n      dup9\n      dup2\n      lt\n        /* \"PoolPandoras.sol\":14000:15185  for (uint256 i = 0; i < depositIndices.length; i++) {... */\n      iszero\n      tag_686\n      jumpi\n        /* \"PoolPandoras.sol\":14066:14079  uint256 index */\n      0x00\n        /* \"PoolPandoras.sol\":14082:14096  depositIndices */\n      dup11\n      dup11\n        /* \"PoolPandoras.sol\":14097:14098  i */\n      dup4\n        /* \"PoolPandoras.sol\":14082:14099  depositIndices[i] */\n      dup2\n      dup2\n      lt\n      tag_689\n      jumpi\n      tag_689\n      tag_508\n      jump\t// in\n    tag_689:\n      swap1\n      pop\n      0x20\n      mul\n      add\n      calldataload\n        /* \"PoolPandoras.sol\":14066:14099  uint256 index = depositIndices[i] */\n      swap1\n      pop\n        /* \"PoolPandoras.sol\":14113:14136  DepositInfo storage dep */\n      0x00\n        /* \"PoolPandoras.sol\":14139:14151  userDeposits */\n      0x06\n        /* \"PoolPandoras.sol\":14139:14157  userDeposits[user] */\n      0x00\n        /* \"PoolPandoras.sol\":14152:14156  user */\n      dup12\n      sub(shl(0xa0, 0x01), 0x01)\n        /* \"PoolPandoras.sol\":14139:14157  userDeposits[user] */\n      and\n      sub(shl(0xa0, 0x01), 0x01)\n      and\n      dup2\n      mstore\n      0x20\n      add\n      swap1\n      dup2\n      mstore\n      0x20\n      add\n      0x00\n      keccak256\n        /* \"PoolPandoras.sol\":14158:14163  index */\n      dup3\n        /* \"PoolPandoras.sol\":14139:14164  userDeposits[user][index] */\n      dup2\n      sload\n      dup2\n      lt\n      tag_691\n      jumpi\n      tag_691\n      tag_508\n      jump\t// in\n    tag_691:\n      0x00\n      swap2\n      dup3\n      mstore\n      0x20\n      swap1\n      swap2\n      keccak256\n        /* \"PoolPandoras.sol\":14196:14205  dep.flags */\n      0x01\n        /* \"PoolPandoras.sol\":14139:14164  userDeposits[user][index] */\n      0x02\n      swap1\n      swap3\n      mul\n      add\n        /* \"PoolPandoras.sol\":14196:14205  dep.flags */\n      dup2\n      dup2\n      add\n      sload\n        /* \"PoolPandoras.sol\":14139:14164  userDeposits[user][index] */\n      swap1\n      swap3\n      pop\n      shl(0x38, 0x01)\n        /* \"PoolPandoras.sol\":14196:14205  dep.flags */\n      swap1\n      div\n        /* \"PoolPandoras.sol\":12056:12072  flags & (1 << 0) */\n      and\n        /* \"PoolPandoras.sol\":12055:12078  (flags & (1 << 0)) != 0 */\n      iszero\n        /* \"PoolPandoras.sol\":14179:14233  if (_isWithdrawn(dep.flags)) revert AlreadyWithdrawn() */\n      tag_694\n      jumpi\n        /* \"PoolPandoras.sol\":14215:14233  AlreadyWithdrawn() */\n      mload(0x40)\n      shl(0xe0, 0x6507689f)\n      dup2\n      mstore\n      0x04\n      add\n      mload(0x40)\n      dup1\n      swap2\n      sub\n      swap1\n      revert\n        /* \"PoolPandoras.sol\":14179:14233  if (_isWithdrawn(dep.flags)) revert AlreadyWithdrawn() */\n    tag_694:\n        /* \"PoolPandoras.sol\":14302:14314  lockupPeriod */\n      sload(0x02)\n        /* \"PoolPandoras.sol\":14286:14299  dep.timestamp */\n      dup2\n      sload\n        /* \"PoolPandoras.sol\":14286:14314  dep.timestamp + lockupPeriod */\n      tag_695\n      swap2\n        /* \"PoolPandoras.sol\":14302:14314  lockupPeriod */\n      swap1\n      shl(0xc0, 0x01)\n        /* \"PoolPandoras.sol\":14286:14299  dep.timestamp */\n      swap1\n      div\n      0xffffffffffff\n      and\n        /* \"PoolPandoras.sol\":14286:14314  dep.timestamp + lockupPeriod */\n      tag_487\n      jump\t// in\n    tag_695:\n        /* \"PoolPandoras.sol\":14268:14283  block.timestamp */\n      timestamp\n        /* \"PoolPandoras.sol\":14268:14314  block.timestamp < dep.timestamp + lockupPeriod */\n      lt\n        /* \"PoolPandoras.sol\":14268:14364  block.timestamp < dep.timestamp + lockupPeriod &&... */\n      dup1\n      iszero\n      tag_696\n      jumpi\n      pop\n        /* \"PoolPandoras.sol\":14354:14363  dep.flags */\n      0x01\n      dup2\n      add\n      sload\n      shl(0x38, 0x01)\n      swap1\n      div\n        /* \"PoolPandoras.sol\":12188:12194  1 << 1 */\n      0x02\n        /* \"PoolPandoras.sol\":12179:12195  flags & (1 << 1) */\n      and\n        /* \"PoolPandoras.sol\":12178:12201  (flags & (1 << 1)) != 0 */\n      iszero\n        /* \"PoolPandoras.sol\":14268:14364  block.timestamp < dep.timestamp + lockupPeriod &&... */\n    tag_696:\n        /* \"PoolPandoras.sol\":14268:14444  block.timestamp < dep.timestamp + lockupPeriod &&... */\n      dup1\n      iszero\n      tag_698\n      jumpi\n      pop\n        /* \"PoolPandoras.sol\":14386:14410  globalLiquidationEnabled */\n      sload(0x05)\n      0x01000000\n      swap1\n      div\n      0xff\n      and\n        /* \"PoolPandoras.sol\":14386:14443  globalLiquidationEnabled && _isFullyRedeemable(dep.flags) */\n      dup1\n      iszero\n      tag_700\n      jumpi\n      pop\n        /* \"PoolPandoras.sol\":14433:14442  dep.flags */\n      0x01\n      dup2\n      add\n      sload\n      shl(0x38, 0x01)\n      swap1\n      div\n        /* \"PoolPandoras.sol\":12311:12317  1 << 2 */\n      0x04\n        /* \"PoolPandoras.sol\":12302:12318  flags & (1 << 2) */\n      and\n        /* \"PoolPandoras.sol\":12301:12324  (flags & (1 << 2)) != 0 */\n      iszero\n      iszero\n        /* \"PoolPandoras.sol\":14414:14443  _isFullyRedeemable(dep.flags) */\n    tag_700:\n        /* \"PoolPandoras.sol\":14384:14444  !(globalLiquidationEnabled && _isFullyRedeemable(dep.flags)) */\n      iszero\n        /* \"PoolPandoras.sol\":14268:14444  block.timestamp < dep.timestamp + lockupPeriod &&... */\n    tag_698:\n        /* \"PoolPandoras.sol\":14247:14514  if (... */\n      iszero\n      tag_701\n      jumpi\n        /* \"PoolPandoras.sol\":14484:14499  DepositLocked() */\n      mload(0x40)\n      shl(0xe0, 0xf38b9b5b)\n      dup2\n      mstore\n      0x04\n      add\n      mload(0x40)\n      dup1\n      swap2\n      sub\n      swap1\n      revert\n        /* \"PoolPandoras.sol\":14247:14514  if (... */\n    tag_701:\n        /* \"PoolPandoras.sol\":14540:14549  dep.flags */\n      0x01\n      dup2\n      dup2\n      add\n      dup1\n      sload\n      not(0xff00ffffffffffff)\n        /* \"PoolPandoras.sol\":14595:14636  dep.withdrawnAt = uint48(block.timestamp) */\n      dup2\n      and\n      shl(0x38, 0x01)\n        /* \"PoolPandoras.sol\":14540:14549  dep.flags */\n      swap2\n      dup3\n      swap1\n      div\n      0xff\n      and\n        /* \"PoolPandoras.sol\":14540:14560  dep.flags | (1 << 0) */\n      swap1\n      swap4\n      or\n        /* \"PoolPandoras.sol\":14528:14560  dep.flags = dep.flags | (1 << 0) */\n      mul\n      not(0xffffffffffff)\n        /* \"PoolPandoras.sol\":14595:14636  dep.withdrawnAt = uint48(block.timestamp) */\n      and\n      swap2\n      swap1\n      swap2\n      or\n        /* \"PoolPandoras.sol\":14620:14635  block.timestamp */\n      timestamp\n        /* \"PoolPandoras.sol\":14595:14636  dep.withdrawnAt = uint48(block.timestamp) */\n      0xffffffffffff\n      and\n      or\n      swap1\n      sstore\n        /* \"PoolPandoras.sol\":14670:14680  dep.amount */\n      dup1\n      sload\n      sub(shl(0x60, 0x01), 0x01)\n      dup1\n      dup3\n      and\n      swap2\n      shl(0x60, 0x01)\n        /* \"PoolPandoras.sol\":14713:14730  dep.yieldReceived */\n      swap1\n      div\n      and\n      0x00\n        /* \"PoolPandoras.sol\":14749:14758  dep.token */\n      0x01\n      dup5\n      dup2\n      add\n      sload\n      0x01000000000000\n      swap1\n      div\n      0xff\n      and\n      swap1\n        /* \"PoolPandoras.sol\":14749:14775  dep.token == TokenType.ETH */\n      dup2\n      gt\n      iszero\n      tag_705\n      jumpi\n      tag_705\n      tag_497\n      jump\t// in\n    tag_705:\n      sub\n        /* \"PoolPandoras.sol\":14745:15086  if (dep.token == TokenType.ETH) {... */\n      tag_706\n      jumpi\n        /* \"PoolPandoras.sol\":14795:14821  ethToWithdraw += principal */\n      tag_707\n        /* \"PoolPandoras.sol\":14812:14821  principal */\n      dup3\n        /* \"PoolPandoras.sol\":14795:14821  ethToWithdraw += principal */\n      dup9\n      tag_487\n      jump\t// in\n    tag_707:\n      swap7\n      pop\n        /* \"PoolPandoras.sol\":14839:14869  totalPrincipalETH += principal */\n      tag_708\n        /* \"PoolPandoras.sol\":14860:14869  principal */\n      dup3\n        /* \"PoolPandoras.sol\":14839:14869  totalPrincipalETH += principal */\n      dup13\n      tag_487\n      jump\t// in\n    tag_708:\n      swap11\n      pop\n        /* \"PoolPandoras.sol\":14887:14912  totalYieldETH += yieldAmt */\n      tag_709\n        /* \"PoolPandoras.sol\":14904:14912  yieldAmt */\n      dup2\n        /* \"PoolPandoras.sol\":14887:14912  totalYieldETH += yieldAmt */\n      dup12\n      tag_487\n      jump\t// in\n    tag_709:\n      swap10\n      pop\n        /* \"PoolPandoras.sol\":14745:15086  if (dep.token == TokenType.ETH) {... */\n      jump(tag_710)\n    tag_706:\n        /* \"PoolPandoras.sol\":14951:14978  usdcToWithdraw += principal */\n      tag_711\n        /* \"PoolPandoras.sol\":14969:14978  principal */\n      dup3\n        /* \"PoolPandoras.sol\":14951:14978  usdcToWithdraw += principal */\n      dup8\n      tag_487\n      jump\t// in\n    tag_711:\n      swap6\n      pop\n        /* \"PoolPandoras.sol\":14996:15027  totalPrincipalUSDC += principal */\n      tag_712\n        /* \"PoolPandoras.sol\":15018:15027  principal */\n      dup3\n        /* \"PoolPandoras.sol\":14996:15027  totalPrincipalUSDC += principal */\n      dup11\n      tag_487\n      jump\t// in\n    tag_712:\n      swap9\n      pop\n        /* \"PoolPandoras.sol\":15045:15071  totalYieldUSDC += yieldAmt */\n      tag_713\n        /* \"PoolPandoras.sol\":15063:15071  yieldAmt */\n      dup2\n        /* \"PoolPandoras.sol\":15045:15071  totalYieldUSDC += yieldAmt */\n      dup10\n      tag_487\n      jump\t// in\n    tag_713:\n      swap8\n      pop\n        /* \"PoolPandoras.sol\":14745:15086  if (dep.token == TokenType.ETH) {... */\n    tag_710:\n        /* \"PoolPandoras.sol\":15119:15128  dep.token */\n      0x01\n      dup4\n      add\n      sload\n        /* \"PoolPandoras.sol\":15104:15174  Withdraw(user, dep.token, principal, yieldAmt, block.timestamp, index) */\n      mload(0x40)\n      sub(shl(0xa0, 0x01), 0x01)\n      dup15\n      and\n      swap2\n      0xcb034b37ef3764745c35bafecd525367bcf312e9010239e6aeebbe6bcf57727f\n      swap2\n      tag_714\n      swap2\n        /* \"PoolPandoras.sol\":15119:15128  dep.token */\n      0x01000000000000\n      swap1\n      div\n      0xff\n      and\n      swap1\n        /* \"PoolPandoras.sol\":15130:15139  principal */\n      dup7\n      swap1\n        /* \"PoolPandoras.sol\":15141:15149  yieldAmt */\n      dup7\n      swap1\n        /* \"PoolPandoras.sol\":15151:15166  block.timestamp */\n      timestamp\n      swap1\n        /* \"PoolPandoras.sol\":15168:15173  index */\n      dup12\n      swap1\n        /* \"PoolPandoras.sol\":15104:15174  Withdraw(user, dep.token, principal, yieldAmt, block.timestamp, index) */\n      tag_547\n      jump\t// in\n    tag_714:\n      mload(0x40)\n      dup1\n      swap2\n      sub\n      swap1\n      log2\n      pop\n      pop\n        /* \"PoolPandoras.sol\":14047:14050  i++ */\n      0x01\n      swap1\n      swap3\n      add\n      swap2\n      pop\n        /* \"PoolPandoras.sol\":14000:15185  for (uint256 i = 0; i < depositIndices.length; i++) {... */\n      tag_685\n      swap1\n      pop\n      jump\n    tag_686:\n      pop\n        /* \"PoolPandoras.sol\":15199:15216  ethToWithdraw > 0 */\n      dup2\n      iszero\n        /* \"PoolPandoras.sol\":15195:15277  if (ethToWithdraw > 0) {... */\n      tag_715\n      jumpi\n        /* \"PoolPandoras.sol\":15253:15266  ethToWithdraw */\n      dup2\n        /* \"PoolPandoras.sol\":15232:15249  totalWithdrawnETH */\n      0x11\n      0x00\n        /* \"PoolPandoras.sol\":15232:15266  totalWithdrawnETH += ethToWithdraw */\n      dup3\n      dup3\n      sload\n      tag_716\n      swap2\n      swap1\n      tag_487\n      jump\t// in\n    tag_716:\n      swap1\n      swap2\n      sstore\n      pop\n      pop\n        /* \"PoolPandoras.sol\":15195:15277  if (ethToWithdraw > 0) {... */\n    tag_715:\n        /* \"PoolPandoras.sol\":15290:15308  usdcToWithdraw > 0 */\n      dup1\n      iszero\n        /* \"PoolPandoras.sol\":15286:15371  if (usdcToWithdraw > 0) {... */\n      tag_717\n      jumpi\n        /* \"PoolPandoras.sol\":15346:15360  usdcToWithdraw */\n      dup1\n        /* \"PoolPandoras.sol\":15324:15342  totalWithdrawnUSDC */\n      0x12\n      0x00\n        /* \"PoolPandoras.sol\":15324:15360  totalWithdrawnUSDC += usdcToWithdraw */\n      dup3\n      dup3\n      sload\n      tag_718\n      swap2\n      swap1\n      tag_487\n      jump\t// in\n    tag_718:\n      swap1\n      swap2\n      sstore\n      pop\n      pop\n        /* \"PoolPandoras.sol\":15286:15371  if (usdcToWithdraw > 0) {... */\n    tag_717:\n      sub(shl(0xa0, 0x01), 0x01)\n        /* \"PoolPandoras.sol\":15386:15404  hasWithdrawn[user] */\n      dup8\n      and\n      0x00\n      swap1\n      dup2\n      mstore\n        /* \"PoolPandoras.sol\":15386:15398  hasWithdrawn */\n      0x08\n        /* \"PoolPandoras.sol\":15386:15404  hasWithdrawn[user] */\n      0x20\n      mstore\n      0x40\n      swap1\n      keccak256\n      sload\n      0xff\n      and\n        /* \"PoolPandoras.sol\":15385:15404  !hasWithdrawn[user] */\n      iszero\n        /* \"PoolPandoras.sol\":15385:15433  !hasWithdrawn[user] && depositIndices.length > 0 */\n      dup1\n      iszero\n      tag_719\n      jumpi\n      pop\n        /* \"PoolPandoras.sol\":15408:15433  depositIndices.length > 0 */\n      dup8\n      iszero\n      iszero\n        /* \"PoolPandoras.sol\":15385:15433  !hasWithdrawn[user] && depositIndices.length > 0 */\n    tag_719:\n        /* \"PoolPandoras.sol\":15381:15524  if (!hasWithdrawn[user] && depositIndices.length > 0) {... */\n      iszero\n      tag_720\n      jumpi\n        /* \"PoolPandoras.sol\":15449:15463  withdrawnUsers */\n      0x0e\n        /* \"PoolPandoras.sol\":15449:15474  withdrawnUsers.push(user) */\n      dup1\n      sload\n      0x01\n      dup1\n      dup3\n      add\n      swap1\n      swap3\n      sstore\n      0xbb7b4a454dc3493923482f07822329ed19e8244eff582cc204f8554c3620c3fd\n      add\n      dup1\n      sload\n      not(0xffffffffffffffffffffffffffffffffffffffff)\n      and\n      sub(shl(0xa0, 0x01), 0x01)\n      dup11\n      and\n      swap1\n      dup2\n      or\n      swap1\n      swap2\n      sstore\n      0x00\n        /* \"PoolPandoras.sol\":15488:15506  hasWithdrawn[user] */\n      swap1\n      dup2\n      mstore\n        /* \"PoolPandoras.sol\":15488:15500  hasWithdrawn */\n      0x08\n        /* \"PoolPandoras.sol\":15449:15474  withdrawnUsers.push(user) */\n      0x20\n        /* \"PoolPandoras.sol\":15488:15506  hasWithdrawn[user] */\n      mstore\n      0x40\n      swap1\n      keccak256\n        /* \"PoolPandoras.sol\":15488:15513  hasWithdrawn[user] = true */\n      dup1\n      sload\n      not(0xff)\n      and\n      swap1\n      swap2\n      or\n      swap1\n      sstore\n        /* \"PoolPandoras.sol\":15381:15524  if (!hasWithdrawn[user] && depositIndices.length > 0) {... */\n    tag_720:\n        /* \"PoolPandoras.sol\":15574:15575  0 */\n      0x00\n        /* \"PoolPandoras.sol\":15538:15571  totalPrincipalETH + totalYieldETH */\n      tag_722\n        /* \"PoolPandoras.sol\":15558:15571  totalYieldETH */\n      dup7\n        /* \"PoolPandoras.sol\":15538:15555  totalPrincipalETH */\n      dup9\n        /* \"PoolPandoras.sol\":15538:15571  totalPrincipalETH + totalYieldETH */\n      tag_487\n      jump\t// in\n    tag_722:\n        /* \"PoolPandoras.sol\":15538:15575  totalPrincipalETH + totalYieldETH > 0 */\n      gt\n        /* \"PoolPandoras.sol\":15534:15837  if (totalPrincipalETH + totalYieldETH > 0) {... */\n      iszero\n      tag_723\n      jumpi\n        /* \"PoolPandoras.sol\":15592:15599  bool ok */\n      0x00\n      sub(shl(0xa0, 0x01), 0x01)\n        /* \"PoolPandoras.sol\":15605:15614  user.call */\n      dup9\n      and\n        /* \"PoolPandoras.sol\":15622:15655  totalPrincipalETH + totalYieldETH */\n      tag_724\n        /* \"PoolPandoras.sol\":15642:15655  totalYieldETH */\n      dup8\n        /* \"PoolPandoras.sol\":15622:15639  totalPrincipalETH */\n      dup10\n        /* \"PoolPandoras.sol\":15622:15655  totalPrincipalETH + totalYieldETH */\n      tag_487\n      jump\t// in\n    tag_724:\n        /* \"PoolPandoras.sol\":15605:15660  user.call{value: totalPrincipalETH + totalYieldETH}(\"\") */\n      mload(0x40)\n      0x00\n      dup2\n      dup2\n      dup2\n      dup6\n      dup8\n      gas\n      call\n      swap3\n      pop\n      pop\n      pop\n      returndatasize\n      dup1\n      0x00\n      dup2\n      eq\n      tag_728\n      jumpi\n      mload(0x40)\n      swap2\n      pop\n      and(add(returndatasize, 0x3f), not(0x1f))\n      dup3\n      add\n      0x40\n      mstore\n      returndatasize\n      dup3\n      mstore\n      returndatasize\n      0x00\n      0x20\n      dup5\n      add\n      returndatacopy\n      jump(tag_727)\n    tag_728:\n      0x60\n      swap2\n      pop\n    tag_727:\n      pop\n        /* \"PoolPandoras.sol\":15591:15660  (bool ok, ) = user.call{value: totalPrincipalETH + totalYieldETH}(\"\") */\n      pop\n      swap1\n      pop\n        /* \"PoolPandoras.sol\":15679:15681  ok */\n      dup1\n        /* \"PoolPandoras.sol\":15674:15706  if (!ok) revert TransferFailed() */\n      tag_729\n      jumpi\n        /* \"PoolPandoras.sol\":15690:15706  TransferFailed() */\n      mload(0x40)\n      shl(0xe3, 0x12171d83)\n      dup2\n      mstore\n      0x04\n      add\n      mload(0x40)\n      dup1\n      swap2\n      sub\n      swap1\n      revert\n        /* \"PoolPandoras.sol\":15674:15706  if (!ok) revert TransferFailed() */\n    tag_729:\n        /* \"PoolPandoras.sol\":15739:15743  user */\n      dup8\n      sub(shl(0xa0, 0x01), 0x01)\n        /* \"PoolPandoras.sol\":15725:15826  BatchWithdraw(user, TokenType.ETH, depositIndices, totalPrincipalETH, totalYieldETH, block.timestamp) */\n      and\n      0xbf06e98fe211a4b82f625232ab1c7a75caea5e0d624bc267578d6f22fce788c3\n        /* \"PoolPandoras.sol\":15745:15758  TokenType.ETH */\n      0x00\n        /* \"PoolPandoras.sol\":15760:15774  depositIndices */\n      dup13\n      dup13\n        /* \"PoolPandoras.sol\":15776:15793  totalPrincipalETH */\n      dup12\n        /* \"PoolPandoras.sol\":15795:15808  totalYieldETH */\n      dup12\n        /* \"PoolPandoras.sol\":15810:15825  block.timestamp */\n      timestamp\n        /* \"PoolPandoras.sol\":15725:15826  BatchWithdraw(user, TokenType.ETH, depositIndices, totalPrincipalETH, totalYieldETH, block.timestamp) */\n      mload(0x40)\n      tag_730\n      swap7\n      swap6\n      swap5\n      swap4\n      swap3\n      swap2\n      swap1\n      tag_731\n      jump\t// in\n    tag_730:\n      mload(0x40)\n      dup1\n      swap2\n      sub\n      swap1\n      log2\n        /* \"PoolPandoras.sol\":15577:15837  {... */\n      pop\n        /* \"PoolPandoras.sol\":15534:15837  if (totalPrincipalETH + totalYieldETH > 0) {... */\n    tag_723:\n        /* \"PoolPandoras.sol\":15888:15889  0 */\n      0x00\n        /* \"PoolPandoras.sol\":15850:15885  totalPrincipalUSDC + totalYieldUSDC */\n      tag_732\n        /* \"PoolPandoras.sol\":15871:15885  totalYieldUSDC */\n      dup5\n        /* \"PoolPandoras.sol\":15850:15868  totalPrincipalUSDC */\n      dup7\n        /* \"PoolPandoras.sol\":15850:15885  totalPrincipalUSDC + totalYieldUSDC */\n      tag_487\n      jump\t// in\n    tag_732:\n        /* \"PoolPandoras.sol\":15850:15889  totalPrincipalUSDC + totalYieldUSDC > 0 */\n      gt\n        /* \"PoolPandoras.sol\":15846:16103  if (totalPrincipalUSDC + totalYieldUSDC > 0) {... */\n      iszero\n      tag_733\n      jumpi\n        /* \"PoolPandoras.sol\":1229:1271  0x833589fCD6eDb6E08f4c7C32D4f71b54bdA02913 */\n      0x833589fcd6edb6e08f4c7c32d4f71b54bda02913\n        /* \"PoolPandoras.sol\":15905:15926  IERC20(USDC).transfer */\n      0xa9059cbb\n        /* \"PoolPandoras.sol\":15927:15931  user */\n      dup9\n        /* \"PoolPandoras.sol\":15933:15968  totalPrincipalUSDC + totalYieldUSDC */\n      tag_734\n        /* \"PoolPandoras.sol\":15954:15968  totalYieldUSDC */\n      dup7\n        /* \"PoolPandoras.sol\":15933:15951  totalPrincipalUSDC */\n      dup9\n        /* \"PoolPandoras.sol\":15933:15968  totalPrincipalUSDC + totalYieldUSDC */\n      tag_487\n      jump\t// in\n    tag_734:\n        /* \"PoolPandoras.sol\":15905:15969  IERC20(USDC).transfer(user, totalPrincipalUSDC + totalYieldUSDC) */\n      mload(0x40)\n      not(sub(shl(0xe0, 0x01), 0x01))\n      0xe0\n      dup6\n      swap1\n      shl\n      and\n      dup2\n      mstore\n      sub(shl(0xa0, 0x01), 0x01)\n        /* \"#utility.yul\":12694:12749   */\n      swap1\n      swap3\n      and\n        /* \"PoolPandoras.sol\":15905:15969  IERC20(USDC).transfer(user, totalPrincipalUSDC + totalYieldUSDC) */\n      0x04\n      dup4\n      add\n        /* \"#utility.yul\":12676:12750   */\n      mstore\n        /* \"#utility.yul\":12766:12784   */\n      0x24\n      dup3\n      add\n        /* \"#utility.yul\":12759:12793   */\n      mstore\n        /* \"#utility.yul\":12649:12667   */\n      0x44\n      add\n        /* \"PoolPandoras.sol\":15905:15969  IERC20(USDC).transfer(user, totalPrincipalUSDC + totalYieldUSDC) */\n      0x20\n      mload(0x40)\n      dup1\n      dup4\n      sub\n      dup2\n      0x00\n      dup8\n      gas\n      call\n      iszero\n      dup1\n      iszero\n      tag_737\n      jumpi\n      returndatasize\n      0x00\n      dup1\n      returndatacopy\n      revert(0x00, returndatasize)\n    tag_737:\n      pop\n      pop\n      pop\n      pop\n      mload(0x40)\n      returndatasize\n      not(0x1f)\n      0x1f\n      dup3\n      add\n      and\n      dup3\n      add\n      dup1\n      0x40\n      mstore\n      pop\n      dup2\n      add\n      swap1\n      tag_738\n      swap2\n      swap1\n      tag_543\n      jump\t// in\n    tag_738:\n      pop\n        /* \"PoolPandoras.sol\":16002:16006  user */\n      dup7\n      sub(shl(0xa0, 0x01), 0x01)\n        /* \"PoolPandoras.sol\":15988:16092  BatchWithdraw(user, TokenType.USDC, depositIndices, totalPrincipalUSDC, totalYieldUSDC, block.timestamp) */\n      and\n      0xbf06e98fe211a4b82f625232ab1c7a75caea5e0d624bc267578d6f22fce788c3\n        /* \"PoolPandoras.sol\":16008:16022  TokenType.USDC */\n      0x01\n        /* \"PoolPandoras.sol\":16024:16038  depositIndices */\n      dup12\n      dup12\n        /* \"PoolPandoras.sol\":16040:16058  totalPrincipalUSDC */\n      dup9\n        /* \"PoolPandoras.sol\":16060:16074  totalYieldUSDC */\n      dup9\n        /* \"PoolPandoras.sol\":16076:16091  block.timestamp */\n      timestamp\n        /* \"PoolPandoras.sol\":15988:16092  BatchWithdraw(user, TokenType.USDC, depositIndices, totalPrincipalUSDC, totalYieldUSDC, block.timestamp) */\n      mload(0x40)\n      tag_739\n      swap7\n      swap6\n      swap5\n      swap4\n      swap3\n      swap2\n      swap1\n      tag_731\n      jump\t// in\n    tag_739:\n      mload(0x40)\n      dup1\n      swap2\n      sub\n      swap1\n      log2\n        /* \"PoolPandoras.sol\":15846:16103  if (totalPrincipalUSDC + totalYieldUSDC > 0) {... */\n    tag_733:\n        /* \"PoolPandoras.sol\":13754:16109  {... */\n      pop\n      pop\n      pop\n      pop\n      pop\n      pop\n      pop\n        /* \"@openzeppelin/contracts/utils/ReentrancyGuard.sol\":2542:2562   */\n      tag_648\n        /* \"@openzeppelin/contracts/utils/ReentrancyGuard.sol\":1857:1858   */\n      0x01\n        /* \"@openzeppelin/contracts/utils/ReentrancyGuard.sol\":3068:3089   */\n      dup1\n      sstore\n        /* \"@openzeppelin/contracts/utils/ReentrancyGuard.sol\":2888:3096   */\n      jump\n        /* \"PoolPandoras.sol\":18628:18926  function assignUtilityUSDC(address user, uint256 amount) external onlyRole(ADMIN_ROLE) {... */\n    tag_283:\n      0x00\n      dup1\n      mload\n      0x20\n      data_cb864c43dd5d441bb6271f424f11befa622c032dfd374d226e26fbbdb782b8f8\n      dup4\n      codecopy\n      dup2\n      mload\n      swap2\n      mstore\n        /* \"@openzeppelin/contracts/access/AccessControl.sol\":2473:2489   */\n      tag_742\n        /* \"@openzeppelin/contracts/access/AccessControl.sol\":2484:2488   */\n      dup2\n        /* \"@openzeppelin/contracts/access/AccessControl.sol\":2473:2483   */\n      tag_458\n        /* \"@openzeppelin/contracts/access/AccessControl.sol\":2473:2489   */\n      jump\t// in\n    tag_742:\n        /* \"PoolPandoras.sol\":18729:18735  amount */\n      dup2\n        /* \"PoolPandoras.sol\":18739:18740  0 */\n      0x00\n        /* \"PoolPandoras.sol\":18729:18740  amount == 0 */\n      sub\n        /* \"PoolPandoras.sol\":18725:18764  if (amount == 0) revert InvalidAmount() */\n      tag_744\n      jumpi\n        /* \"PoolPandoras.sol\":18749:18764  InvalidAmount() */\n      mload(0x40)\n      shl(0xe1, 0x162908e3)\n      dup2\n      mstore\n      0x04\n      add\n      mload(0x40)\n      dup1\n      swap2\n      sub\n      swap1\n      revert\n        /* \"PoolPandoras.sol\":18725:18764  if (amount == 0) revert InvalidAmount() */\n    tag_744:\n        /* \"PoolPandoras.sol\":18787:18803  totalUtilityUSDC */\n      sload(0x14)\n        /* \"PoolPandoras.sol\":18778:18784  amount */\n      dup3\n        /* \"PoolPandoras.sol\":18778:18803  amount > totalUtilityUSDC */\n      gt\n        /* \"PoolPandoras.sol\":18774:18833  if (amount > totalUtilityUSDC) revert ExceedsTotalUtility() */\n      iszero\n      tag_745\n      jumpi\n        /* \"PoolPandoras.sol\":18812:18833  ExceedsTotalUtility() */\n      mload(0x40)\n      shl(0xe0, 0x2f37549d)\n      dup2\n      mstore\n      0x04\n      add\n      mload(0x40)\n      dup1\n      swap2\n      sub\n      swap1\n      revert\n        /* \"PoolPandoras.sol\":18774:18833  if (amount > totalUtilityUSDC) revert ExceedsTotalUtility() */\n    tag_745:\n      sub(shl(0xa0, 0x01), 0x01)\n        /* \"PoolPandoras.sol\":18843:18873  userClaimableUtilityUSDC[user] */\n      dup4\n      and\n      0x00\n      swap1\n      dup2\n      mstore\n        /* \"PoolPandoras.sol\":18843:18867  userClaimableUtilityUSDC */\n      0x0a\n        /* \"PoolPandoras.sol\":18843:18873  userClaimableUtilityUSDC[user] */\n      0x20\n      mstore\n      0x40\n      dup2\n      keccak256\n        /* \"PoolPandoras.sol\":18843:18883  userClaimableUtilityUSDC[user] += amount */\n      dup1\n      sload\n        /* \"PoolPandoras.sol\":18877:18883  amount */\n      dup5\n      swap3\n        /* \"PoolPandoras.sol\":18843:18873  userClaimableUtilityUSDC[user] */\n      swap1\n        /* \"PoolPandoras.sol\":18843:18883  userClaimableUtilityUSDC[user] += amount */\n      tag_746\n      swap1\n        /* \"PoolPandoras.sol\":18877:18883  amount */\n      dup5\n      swap1\n        /* \"PoolPandoras.sol\":18843:18883  userClaimableUtilityUSDC[user] += amount */\n      tag_487\n      jump\t// in\n    tag_746:\n      swap3\n      pop\n      pop\n      dup2\n      swap1\n      sstore\n      pop\n        /* \"PoolPandoras.sol\":18913:18919  amount */\n      dup2\n        /* \"PoolPandoras.sol\":18893:18909  totalUtilityUSDC */\n      0x14\n      0x00\n        /* \"PoolPandoras.sol\":18893:18919  totalUtilityUSDC -= amount */\n      dup3\n      dup3\n      sload\n      tag_678\n      swap2\n      swap1\n      tag_471\n      jump\t// in\n        /* \"PoolPandoras.sol\":22291:22606  function withdrawUtilityUSDC(uint256 amount) external onlyRole(UTILITY_WITHDRAWER_ROLE) nonReentrant {... */\n    tag_287:\n        /* \"PoolPandoras.sol\":2181:2217  keccak256(\"UTILITY_WITHDRAWER_ROLE\") */\n      0x78c90eb9e475048b483a290aee04b5fe48355537c3623c7637b17d3bed71c6ed\n        /* \"@openzeppelin/contracts/access/AccessControl.sol\":2473:2489   */\n      tag_749\n        /* \"@openzeppelin/contracts/access/AccessControl.sol\":2484:2488   */\n      dup2\n        /* \"@openzeppelin/contracts/access/AccessControl.sol\":2473:2483   */\n      tag_458\n        /* \"@openzeppelin/contracts/access/AccessControl.sol\":2473:2489   */\n      jump\t// in\n    tag_749:\n        /* \"@openzeppelin/contracts/utils/ReentrancyGuard.sol\":2500:2521   */\n      tag_751\n        /* \"@openzeppelin/contracts/utils/ReentrancyGuard.sol\":2500:2519   */\n      tag_466\n        /* \"@openzeppelin/contracts/utils/ReentrancyGuard.sol\":2500:2521   */\n      jump\t// in\n    tag_751:\n        /* \"PoolPandoras.sol\":22406:22420  utilityAddress */\n      sload(0x05)\n      shl(0x50, 0x01)\n      swap1\n      div\n      sub(shl(0xa0, 0x01), 0x01)\n      and\n        /* \"PoolPandoras.sol\":22402:22456  if (utilityAddress == address(0)) revert ZeroAddress() */\n      tag_753\n      jumpi\n        /* \"PoolPandoras.sol\":22443:22456  ZeroAddress() */\n      mload(0x40)\n      shl(0xe0, 0xd92e233d)\n      dup2\n      mstore\n      0x04\n      add\n      mload(0x40)\n      dup1\n      swap2\n      sub\n      swap1\n      revert\n        /* \"PoolPandoras.sol\":22402:22456  if (utilityAddress == address(0)) revert ZeroAddress() */\n    tag_753:\n        /* \"PoolPandoras.sol\":22488:22502  utilityAddress */\n      sload(0x05)\n        /* \"PoolPandoras.sol\":22466:22511  IERC20(USDC).transfer(utilityAddress, amount) */\n      mload(0x40)\n      shl(0xe0, 0xa9059cbb)\n      dup2\n      mstore\n      shl(0x50, 0x01)\n        /* \"PoolPandoras.sol\":22488:22502  utilityAddress */\n      swap1\n      swap2\n      div\n      sub(shl(0xa0, 0x01), 0x01)\n      and\n        /* \"PoolPandoras.sol\":22466:22511  IERC20(USDC).transfer(utilityAddress, amount) */\n      0x04\n      dup3\n      add\n        /* \"#utility.yul\":12676:12750   */\n      mstore\n        /* \"#utility.yul\":12766:12784   */\n      0x24\n      dup2\n      add\n        /* \"#utility.yul\":12759:12793   */\n      dup4\n      swap1\n      mstore\n        /* \"PoolPandoras.sol\":1229:1271  0x833589fCD6eDb6E08f4c7C32D4f71b54bdA02913 */\n      0x833589fcd6edb6e08f4c7c32d4f71b54bda02913\n      swap1\n        /* \"PoolPandoras.sol\":22466:22487  IERC20(USDC).transfer */\n      0xa9059cbb\n      swap1\n        /* \"#utility.yul\":12649:12667   */\n      0x44\n      add\n        /* \"PoolPandoras.sol\":22466:22511  IERC20(USDC).transfer(utilityAddress, amount) */\n      0x20\n      mload(0x40)\n      dup1\n      dup4\n      sub\n      dup2\n      0x00\n      dup8\n      gas\n      call\n      iszero\n      dup1\n      iszero\n      tag_756\n      jumpi\n      returndatasize\n      0x00\n      dup1\n      returndatacopy\n      revert(0x00, returndatasize)\n    tag_756:\n      pop\n      pop\n      pop\n      pop\n      mload(0x40)\n      returndatasize\n      not(0x1f)\n      0x1f\n      dup3\n      add\n      and\n      dup3\n      add\n      dup1\n      0x40\n      mstore\n      pop\n      dup2\n      add\n      swap1\n      tag_757\n      swap2\n      swap1\n      tag_543\n      jump\t// in\n    tag_757:\n      pop\n        /* \"PoolPandoras.sol\":22543:22557  utilityAddress */\n      0x05\n      0x0a\n      swap1\n      sload\n      swap1\n      0x0100\n      exp\n      swap1\n      div\n      sub(shl(0xa0, 0x01), 0x01)\n      and\n      sub(shl(0xa0, 0x01), 0x01)\n        /* \"PoolPandoras.sol\":22526:22599  UtilityWithdrawn(utilityAddress, TokenType.USDC, amount, block.timestamp) */\n      and\n      0x9adbdc797aca3ce26a722598f00149b2328fd124444e6d0b10c4bdc7cfc38196\n        /* \"PoolPandoras.sol\":22559:22573  TokenType.USDC */\n      0x01\n        /* \"PoolPandoras.sol\":22575:22581  amount */\n      dup5\n        /* \"PoolPandoras.sol\":22583:22598  block.timestamp */\n      timestamp\n        /* \"PoolPandoras.sol\":22526:22599  UtilityWithdrawn(utilityAddress, TokenType.USDC, amount, block.timestamp) */\n      mload(0x40)\n      tag_647\n      swap4\n      swap3\n      swap2\n      swap1\n      tag_475\n      jump\t// in\n        /* \"PoolPandoras.sol\":16168:16706  function unlockDepositsForUser(address user, uint256[] calldata depositIndices) external onlyRole(UNLOCKER_ROLE) {... */\n    tag_297:\n        /* \"PoolPandoras.sol\":2011:2037  keccak256(\"UNLOCKER_ROLE\") */\n      0xc806897caf4fd5068191157e44d3988e43139a37e0b97b6793e1ed1184140604\n        /* \"@openzeppelin/contracts/access/AccessControl.sol\":2473:2489   */\n      tag_762\n        /* \"@openzeppelin/contracts/access/AccessControl.sol\":2484:2488   */\n      dup2\n        /* \"@openzeppelin/contracts/access/AccessControl.sol\":2473:2483   */\n      tag_458\n        /* \"@openzeppelin/contracts/access/AccessControl.sol\":2473:2489   */\n      jump\t// in\n    tag_762:\n        /* \"PoolPandoras.sol\":16296:16305  uint256 i */\n      0x00\n        /* \"PoolPandoras.sol\":16291:16647  for (uint256 i = 0; i < depositIndices.length; i++) {... */\n    tag_764:\n        /* \"PoolPandoras.sol\":16311:16336  i < depositIndices.length */\n      dup3\n      dup2\n      lt\n        /* \"PoolPandoras.sol\":16291:16647  for (uint256 i = 0; i < depositIndices.length; i++) {... */\n      iszero\n      tag_765\n      jumpi\n      sub(shl(0xa0, 0x01), 0x01)\n        /* \"PoolPandoras.sol\":16383:16401  userDeposits[user] */\n      dup6\n      and\n        /* \"PoolPandoras.sol\":16357:16380  DepositInfo storage dep */\n      0x00\n        /* \"PoolPandoras.sol\":16383:16401  userDeposits[user] */\n      swap1\n      dup2\n      mstore\n        /* \"PoolPandoras.sol\":16383:16395  userDeposits */\n      0x06\n        /* \"PoolPandoras.sol\":16383:16401  userDeposits[user] */\n      0x20\n      mstore\n      0x40\n      dup2\n      keccak256\n        /* \"PoolPandoras.sol\":16402:16416  depositIndices */\n      dup6\n      dup6\n        /* \"PoolPandoras.sol\":16417:16418  i */\n      dup5\n        /* \"PoolPandoras.sol\":16402:16419  depositIndices[i] */\n      dup2\n      dup2\n      lt\n      tag_768\n      jumpi\n      tag_768\n      tag_508\n      jump\t// in\n    tag_768:\n      swap1\n      pop\n      0x20\n      mul\n      add\n      calldataload\n        /* \"PoolPandoras.sol\":16383:16420  userDeposits[user][depositIndices[i]] */\n      dup2\n      sload\n      dup2\n      lt\n      tag_770\n      jumpi\n      tag_770\n      tag_508\n      jump\t// in\n    tag_770:\n      0x00\n      swap2\n      dup3\n      mstore\n      0x20\n      swap1\n      swap2\n      keccak256\n        /* \"PoolPandoras.sol\":16451:16460  dep.flags */\n      0x01\n        /* \"PoolPandoras.sol\":16383:16420  userDeposits[user][depositIndices[i]] */\n      0x02\n      swap1\n      swap3\n      mul\n      add\n        /* \"PoolPandoras.sol\":16451:16460  dep.flags */\n      dup2\n      dup2\n      add\n      sload\n        /* \"PoolPandoras.sol\":16383:16420  userDeposits[user][depositIndices[i]] */\n      swap1\n      swap3\n      pop\n      shl(0x38, 0x01)\n        /* \"PoolPandoras.sol\":16451:16460  dep.flags */\n      swap1\n      div\n        /* \"PoolPandoras.sol\":12056:12072  flags & (1 << 0) */\n      and\n        /* \"PoolPandoras.sol\":12055:12078  (flags & (1 << 0)) != 0 */\n      iszero\n      iszero\n        /* \"PoolPandoras.sol\":16438:16494  _isWithdrawn(dep.flags) || _isUnlockedByAdmin(dep.flags) */\n      dup1\n      tag_774\n      jumpi\n      pop\n        /* \"PoolPandoras.sol\":16484:16493  dep.flags */\n      0x01\n      dup2\n      add\n      sload\n      shl(0x38, 0x01)\n      swap1\n      div\n        /* \"PoolPandoras.sol\":12188:12194  1 << 1 */\n      0x02\n        /* \"PoolPandoras.sol\":12179:12195  flags & (1 << 1) */\n      and\n        /* \"PoolPandoras.sol\":12178:12201  (flags & (1 << 1)) != 0 */\n      iszero\n      iszero\n        /* \"PoolPandoras.sol\":16465:16494  _isUnlockedByAdmin(dep.flags) */\n    tag_774:\n        /* \"PoolPandoras.sol\":16434:16564  if (_isWithdrawn(dep.flags) || _isUnlockedByAdmin(dep.flags)) {... */\n      iszero\n      tag_775\n      jumpi\n        /* \"PoolPandoras.sol\":16521:16549  AlreadyUnlockedOrWithdrawn() */\n      mload(0x40)\n      shl(0xe1, 0x181821bd)\n      dup2\n      mstore\n      0x04\n      add\n      mload(0x40)\n      dup1\n      swap2\n      sub\n      swap1\n      revert\n        /* \"PoolPandoras.sol\":16434:16564  if (_isWithdrawn(dep.flags) || _isUnlockedByAdmin(dep.flags)) {... */\n    tag_775:\n        /* \"PoolPandoras.sol\":16589:16598  dep.flags */\n      0x01\n      swap1\n      dup2\n      add\n      dup1\n      sload\n      not(0xff00000000000000)\n        /* \"PoolPandoras.sol\":16577:16609  dep.flags = dep.flags | (1 << 1) */\n      dup2\n      and\n      shl(0x38, 0x01)\n        /* \"PoolPandoras.sol\":16589:16598  dep.flags */\n      swap2\n      dup3\n      swap1\n      div\n      0xff\n      and\n        /* \"PoolPandoras.sol\":16602:16608  1 << 1 */\n      0x02\n        /* \"PoolPandoras.sol\":16589:16609  dep.flags | (1 << 1) */\n      or\n        /* \"PoolPandoras.sol\":16577:16609  dep.flags = dep.flags | (1 << 1) */\n      swap1\n      swap2\n      mul\n      or\n      swap1\n      sstore\n        /* \"PoolPandoras.sol\":16338:16341  i++ */\n      add\n        /* \"PoolPandoras.sol\":16291:16647  for (uint256 i = 0; i < depositIndices.length; i++) {... */\n      jump(tag_764)\n    tag_765:\n      pop\n        /* \"PoolPandoras.sol\":16678:16682  user */\n      dup4\n      sub(shl(0xa0, 0x01), 0x01)\n        /* \"PoolPandoras.sol\":16661:16699  DepositsUnlocked(user, depositIndices) */\n      and\n      0x8b655a966f162e1d3686ea25cd61682331984ab5662b451deff96f12d716f45b\n        /* \"PoolPandoras.sol\":16684:16698  depositIndices */\n      dup5\n      dup5\n        /* \"PoolPandoras.sol\":16661:16699  DepositsUnlocked(user, depositIndices) */\n      mload(0x40)\n      tag_776\n      swap3\n      swap2\n      swap1\n      tag_777\n      jump\t// in\n    tag_776:\n      mload(0x40)\n      dup1\n      swap2\n      sub\n      swap1\n      log2\n        /* \"PoolPandoras.sol\":16168:16706  function unlockDepositsForUser(address user, uint256[] calldata depositIndices) external onlyRole(UNLOCKER_ROLE) {... */\n      pop\n      pop\n      pop\n      pop\n      jump\t// out\n        /* \"PoolPandoras.sol\":8196:8453  function setUtilityAddress(address newUtilityAddress) external onlyRole(ADMIN_ROLE) {... */\n    tag_318:\n      0x00\n      dup1\n      mload\n      0x20\n      data_cb864c43dd5d441bb6271f424f11befa622c032dfd374d226e26fbbdb782b8f8\n      dup4\n      codecopy\n      dup2\n      mload\n      swap2\n      mstore\n        /* \"@openzeppelin/contracts/access/AccessControl.sol\":2473:2489   */\n      tag_779\n        /* \"@openzeppelin/contracts/access/AccessControl.sol\":2484:2488   */\n      dup2\n        /* \"@openzeppelin/contracts/access/AccessControl.sol\":2473:2483   */\n      tag_458\n        /* \"@openzeppelin/contracts/access/AccessControl.sol\":2473:2489   */\n      jump\t// in\n    tag_779:\n      sub(shl(0xa0, 0x01), 0x01)\n        /* \"PoolPandoras.sol\":8294:8325  newUtilityAddress == address(0) */\n      dup3\n      and\n        /* \"PoolPandoras.sol\":8290:8347  if (newUtilityAddress == address(0)) revert ZeroAddress() */\n      tag_781\n      jumpi\n        /* \"PoolPandoras.sol\":8334:8347  ZeroAddress() */\n      mload(0x40)\n      shl(0xe0, 0xd92e233d)\n      dup2\n      mstore\n      0x04\n      add\n      mload(0x40)\n      dup1\n      swap2\n      sub\n      swap1\n      revert\n        /* \"PoolPandoras.sol\":8290:8347  if (newUtilityAddress == address(0)) revert ZeroAddress() */\n    tag_781:\n        /* \"PoolPandoras.sol\":8357:8371  utilityAddress */\n      0x05\n        /* \"PoolPandoras.sol\":8357:8391  utilityAddress = newUtilityAddress */\n      dup1\n      sload\n      0xffff0000000000000000000000000000000000000000ffffffffffffffffffff\n      and\n      shl(0x50, 0x01)\n      sub(shl(0xa0, 0x01), 0x01)\n      dup6\n      and\n      swap1\n      dup2\n      mul\n      swap2\n      swap1\n      swap2\n      or\n      swap1\n      swap2\n      sstore\n        /* \"PoolPandoras.sol\":8406:8446  UtilityAddressChanged(newUtilityAddress) */\n      mload(0x40)\n        /* \"#utility.yul\":9009:9083   */\n      swap1\n      dup2\n      mstore\n        /* \"PoolPandoras.sol\":8406:8446  UtilityAddressChanged(newUtilityAddress) */\n      0x1d6240e71a77c9e9d07d1d6ecbb9ea4274fcc8bc19adc5b05a3548ac7e40e189\n      swap1\n        /* \"#utility.yul\":8997:8999   */\n      0x20\n        /* \"#utility.yul\":8982:9000   */\n      add\n        /* \"PoolPandoras.sol\":8406:8446  UtilityAddressChanged(newUtilityAddress) */\n    tag_782:\n      mload(0x40)\n      dup1\n      swap2\n      sub\n      swap1\n      log1\n        /* \"PoolPandoras.sol\":8196:8453  function setUtilityAddress(address newUtilityAddress) external onlyRole(ADMIN_ROLE) {... */\n      pop\n      pop\n      jump\t// out\n        /* \"PoolPandoras.sol\":8977:9413  function withdrawForInvestmentUSDC(address to, uint256 amount) external onlyRole(MANAGER_ROLE) nonReentrant {... */\n    tag_326:\n        /* \"PoolPandoras.sol\":2272:2297  keccak256(\"MANAGER_ROLE\") */\n      0x241ecf16d79d0f8dbfb92cbc07fe17840425976cf0667f022fe9877caa831b08\n        /* \"@openzeppelin/contracts/access/AccessControl.sol\":2473:2489   */\n      tag_784\n        /* \"@openzeppelin/contracts/access/AccessControl.sol\":2484:2488   */\n      dup2\n        /* \"@openzeppelin/contracts/access/AccessControl.sol\":2473:2483   */\n      tag_458\n        /* \"@openzeppelin/contracts/access/AccessControl.sol\":2473:2489   */\n      jump\t// in\n    tag_784:\n        /* \"@openzeppelin/contracts/utils/ReentrancyGuard.sol\":2500:2521   */\n      tag_786\n        /* \"@openzeppelin/contracts/utils/ReentrancyGuard.sol\":2500:2519   */\n      tag_466\n        /* \"@openzeppelin/contracts/utils/ReentrancyGuard.sol\":2500:2521   */\n      jump\t// in\n    tag_786:\n      sub(shl(0xa0, 0x01), 0x01)\n        /* \"PoolPandoras.sol\":9099:9115  to == address(0) */\n      dup4\n      and\n        /* \"PoolPandoras.sol\":9095:9137  if (to == address(0)) revert ZeroAddress() */\n      tag_788\n      jumpi\n        /* \"PoolPandoras.sol\":9124:9137  ZeroAddress() */\n      mload(0x40)\n      shl(0xe0, 0xd92e233d)\n      dup2\n      mstore\n      0x04\n      add\n      mload(0x40)\n      dup1\n      swap2\n      sub\n      swap1\n      revert\n        /* \"PoolPandoras.sol\":9095:9137  if (to == address(0)) revert ZeroAddress() */\n    tag_788:\n        /* \"PoolPandoras.sol\":9160:9197  IERC20(USDC).balanceOf(address(this)) */\n      mload(0x40)\n      shl(0xe0, 0x70a08231)\n      dup2\n      mstore\n        /* \"PoolPandoras.sol\":9191:9195  this */\n      address\n        /* \"PoolPandoras.sol\":9160:9197  IERC20(USDC).balanceOf(address(this)) */\n      0x04\n      dup3\n      add\n        /* \"#utility.yul\":9009:9083   */\n      mstore\n        /* \"PoolPandoras.sol\":1229:1271  0x833589fCD6eDb6E08f4c7C32D4f71b54bdA02913 */\n      0x833589fcd6edb6e08f4c7c32d4f71b54bda02913\n      swap1\n        /* \"PoolPandoras.sol\":9160:9182  IERC20(USDC).balanceOf */\n      0x70a08231\n      swap1\n        /* \"#utility.yul\":8982:9000   */\n      0x24\n      add\n        /* \"PoolPandoras.sol\":9160:9197  IERC20(USDC).balanceOf(address(this)) */\n      0x20\n      mload(0x40)\n      dup1\n      dup4\n      sub\n      dup2\n      dup7\n      gas\n      staticcall\n      iszero\n      dup1\n      iszero\n      tag_791\n      jumpi\n      returndatasize\n      0x00\n      dup1\n      returndatacopy\n      revert(0x00, returndatasize)\n    tag_791:\n      pop\n      pop\n      pop\n      pop\n      mload(0x40)\n      returndatasize\n      not(0x1f)\n      0x1f\n      dup3\n      add\n      and\n      dup3\n      add\n      dup1\n      0x40\n      mstore\n      pop\n      dup2\n      add\n      swap1\n      tag_792\n      swap2\n      swap1\n      tag_793\n      jump\t// in\n    tag_792:\n        /* \"PoolPandoras.sol\":9151:9157  amount */\n      dup3\n        /* \"PoolPandoras.sol\":9151:9197  amount > IERC20(USDC).balanceOf(address(this)) */\n      gt\n        /* \"PoolPandoras.sol\":9147:9227  if (amount > IERC20(USDC).balanceOf(address(this))) revert InsufficientBalance() */\n      iszero\n      tag_794\n      jumpi\n        /* \"PoolPandoras.sol\":9206:9227  InsufficientBalance() */\n      mload(0x40)\n      shl(0xe3, 0x1e9acf17)\n      dup2\n      mstore\n      0x04\n      add\n      mload(0x40)\n      dup1\n      swap2\n      sub\n      swap1\n      revert\n        /* \"PoolPandoras.sol\":9147:9227  if (amount > IERC20(USDC).balanceOf(address(this))) revert InsufficientBalance() */\n    tag_794:\n        /* \"PoolPandoras.sol\":9259:9265  amount */\n      dup2\n        /* \"PoolPandoras.sol\":9238:9255  totalInvestedUSDC */\n      0x18\n      0x00\n        /* \"PoolPandoras.sol\":9238:9265  totalInvestedUSDC += amount */\n      dup3\n      dup3\n      sload\n      tag_795\n      swap2\n      swap1\n      tag_487\n      jump\t// in\n    tag_795:\n      swap1\n      swap2\n      sstore\n      pop\n      pop\n        /* \"PoolPandoras.sol\":9276:9309  IERC20(USDC).transfer(to, amount) */\n      mload(0x40)\n      shl(0xe0, 0xa9059cbb)\n      dup2\n      mstore\n      sub(shl(0xa0, 0x01), 0x01)\n        /* \"#utility.yul\":12694:12749   */\n      dup5\n      and\n        /* \"PoolPandoras.sol\":9276:9309  IERC20(USDC).transfer(to, amount) */\n      0x04\n      dup3\n      add\n        /* \"#utility.yul\":12676:12750   */\n      mstore\n        /* \"#utility.yul\":12766:12784   */\n      0x24\n      dup2\n      add\n        /* \"#utility.yul\":12759:12793   */\n      dup4\n      swap1\n      mstore\n        /* \"PoolPandoras.sol\":1229:1271  0x833589fCD6eDb6E08f4c7C32D4f71b54bdA02913 */\n      0x833589fcd6edb6e08f4c7c32d4f71b54bda02913\n      swap1\n        /* \"PoolPandoras.sol\":9276:9297  IERC20(USDC).transfer */\n      0xa9059cbb\n      swap1\n        /* \"#utility.yul\":12649:12667   */\n      0x44\n      add\n        /* \"PoolPandoras.sol\":9276:9309  IERC20(USDC).transfer(to, amount) */\n      0x20\n      mload(0x40)\n      dup1\n      dup4\n      sub\n      dup2\n      0x00\n      dup8\n      gas\n      call\n      iszero\n      dup1\n      iszero\n      tag_798\n      jumpi\n      returndatasize\n      0x00\n      dup1\n      returndatacopy\n      revert(0x00, returndatasize)\n    tag_798:\n      pop\n      pop\n      pop\n      pop\n      mload(0x40)\n      returndatasize\n      not(0x1f)\n      0x1f\n      dup3\n      add\n      and\n      dup3\n      add\n      dup1\n      0x40\n      mstore\n      pop\n      dup2\n      add\n      swap1\n      tag_799\n      swap2\n      swap1\n      tag_543\n      jump\t// in\n    tag_799:\n      pop\n        /* \"PoolPandoras.sol\":9378:9380  to */\n      dup3\n      sub(shl(0xa0, 0x01), 0x01)\n        /* \"PoolPandoras.sol\":9325:9406  WithdrawnForInvestment(_msgSender(), TokenType.USDC, to, amount, block.timestamp) */\n      and\n        /* \"PoolPandoras.sol\":9348:9360  _msgSender() */\n      tag_800\n        /* \"PoolPandoras.sol\":9348:9358  _msgSender */\n      tag_473\n        /* \"PoolPandoras.sol\":9348:9360  _msgSender() */\n      jump\t// in\n    tag_800:\n      sub(shl(0xa0, 0x01), 0x01)\n        /* \"PoolPandoras.sol\":9325:9406  WithdrawnForInvestment(_msgSender(), TokenType.USDC, to, amount, block.timestamp) */\n      and\n      0x8d4f9c9a6da9172da9a02229d92e4af088c62953986a74048d010260b197def3\n        /* \"PoolPandoras.sol\":9362:9376  TokenType.USDC */\n      0x01\n        /* \"PoolPandoras.sol\":9382:9388  amount */\n      dup6\n        /* \"PoolPandoras.sol\":9390:9405  block.timestamp */\n      timestamp\n        /* \"PoolPandoras.sol\":9325:9406  WithdrawnForInvestment(_msgSender(), TokenType.USDC, to, amount, block.timestamp) */\n      mload(0x40)\n      tag_801\n      swap4\n      swap3\n      swap2\n      swap1\n      tag_475\n      jump\t// in\n    tag_801:\n      mload(0x40)\n      dup1\n      swap2\n      sub\n      swap1\n      log3\n        /* \"@openzeppelin/contracts/utils/ReentrancyGuard.sol\":2542:2562   */\n      tag_558\n        /* \"@openzeppelin/contracts/utils/ReentrancyGuard.sol\":1857:1858   */\n      0x01\n        /* \"@openzeppelin/contracts/utils/ReentrancyGuard.sol\":3068:3089   */\n      dup1\n      sstore\n        /* \"@openzeppelin/contracts/utils/ReentrancyGuard.sol\":2888:3096   */\n      jump\n        /* \"PoolPandoras.sol\":21849:22285  function withdrawUtilityETH(uint256 amount) external onlyRole(UTILITY_WITHDRAWER_ROLE) nonReentrant {... */\n    tag_335:\n        /* \"PoolPandoras.sol\":2181:2217  keccak256(\"UTILITY_WITHDRAWER_ROLE\") */\n      0x78c90eb9e475048b483a290aee04b5fe48355537c3623c7637b17d3bed71c6ed\n        /* \"@openzeppelin/contracts/access/AccessControl.sol\":2473:2489   */\n      tag_805\n        /* \"@openzeppelin/contracts/access/AccessControl.sol\":2484:2488   */\n      dup2\n        /* \"@openzeppelin/contracts/access/AccessControl.sol\":2473:2483   */\n      tag_458\n        /* \"@openzeppelin/contracts/access/AccessControl.sol\":2473:2489   */\n      jump\t// in\n    tag_805:\n        /* \"@openzeppelin/contracts/utils/ReentrancyGuard.sol\":2500:2521   */\n      tag_807\n        /* \"@openzeppelin/contracts/utils/ReentrancyGuard.sol\":2500:2519   */\n      tag_466\n        /* \"@openzeppelin/contracts/utils/ReentrancyGuard.sol\":2500:2521   */\n      jump\t// in\n    tag_807:\n        /* \"PoolPandoras.sol\":21963:21977  utilityAddress */\n      sload(0x05)\n      shl(0x50, 0x01)\n      swap1\n      div\n      sub(shl(0xa0, 0x01), 0x01)\n      and\n        /* \"PoolPandoras.sol\":21959:22013  if (utilityAddress == address(0)) revert ZeroAddress() */\n      tag_809\n      jumpi\n        /* \"PoolPandoras.sol\":22000:22013  ZeroAddress() */\n      mload(0x40)\n      shl(0xe0, 0xd92e233d)\n      dup2\n      mstore\n      0x04\n      add\n      mload(0x40)\n      dup1\n      swap2\n      sub\n      swap1\n      revert\n        /* \"PoolPandoras.sol\":21959:22013  if (utilityAddress == address(0)) revert ZeroAddress() */\n    tag_809:\n        /* \"PoolPandoras.sol\":22036:22057  address(this).balance */\n      selfbalance\n        /* \"PoolPandoras.sol\":22027:22033  amount */\n      dup3\n        /* \"PoolPandoras.sol\":22027:22057  amount > address(this).balance */\n      gt\n        /* \"PoolPandoras.sol\":22023:22087  if (amount > address(this).balance) revert InsufficientBalance() */\n      iszero\n      tag_810\n      jumpi\n        /* \"PoolPandoras.sol\":22066:22087  InsufficientBalance() */\n      mload(0x40)\n      shl(0xe3, 0x1e9acf17)\n      dup2\n      mstore\n      0x04\n      add\n      mload(0x40)\n      dup1\n      swap2\n      sub\n      swap1\n      revert\n        /* \"PoolPandoras.sol\":22023:22087  if (amount > address(this).balance) revert InsufficientBalance() */\n    tag_810:\n        /* \"PoolPandoras.sol\":22111:22125  utilityAddress */\n      sload(0x05)\n        /* \"PoolPandoras.sol\":22111:22149  utilityAddress.call{value: amount}(\"\") */\n      mload(0x40)\n        /* \"PoolPandoras.sol\":22098:22105  bool ok */\n      0x00\n      swap2\n      shl(0x50, 0x01)\n        /* \"PoolPandoras.sol\":22111:22125  utilityAddress */\n      swap1\n      div\n      sub(shl(0xa0, 0x01), 0x01)\n      and\n      swap1\n        /* \"PoolPandoras.sol\":22138:22144  amount */\n      dup5\n      swap1\n        /* \"PoolPandoras.sol\":22098:22105  bool ok */\n      dup4\n        /* \"PoolPandoras.sol\":22111:22149  utilityAddress.call{value: amount}(\"\") */\n      dup2\n        /* \"PoolPandoras.sol\":22098:22105  bool ok */\n      dup2\n        /* \"PoolPandoras.sol\":22111:22149  utilityAddress.call{value: amount}(\"\") */\n      dup2\n        /* \"PoolPandoras.sol\":22138:22144  amount */\n      dup6\n        /* \"PoolPandoras.sol\":22111:22125  utilityAddress */\n      dup8\n        /* \"PoolPandoras.sol\":22111:22149  utilityAddress.call{value: amount}(\"\") */\n      gas\n      call\n      swap3\n      pop\n      pop\n      pop\n      returndatasize\n      dup1\n      0x00\n      dup2\n      eq\n      tag_814\n      jumpi\n      mload(0x40)\n      swap2\n      pop\n      and(add(returndatasize, 0x3f), not(0x1f))\n      dup3\n      add\n      0x40\n      mstore\n      returndatasize\n      dup3\n      mstore\n      returndatasize\n      0x00\n      0x20\n      dup5\n      add\n      returndatacopy\n      jump(tag_813)\n    tag_814:\n      0x60\n      swap2\n      pop\n    tag_813:\n      pop\n        /* \"PoolPandoras.sol\":22097:22149  (bool ok, ) = utilityAddress.call{value: amount}(\"\") */\n      pop\n      swap1\n      pop\n        /* \"PoolPandoras.sol\":22164:22166  ok */\n      dup1\n        /* \"PoolPandoras.sol\":22159:22191  if (!ok) revert TransferFailed() */\n      tag_815\n      jumpi\n        /* \"PoolPandoras.sol\":22175:22191  TransferFailed() */\n      mload(0x40)\n      shl(0xe3, 0x12171d83)\n      dup2\n      mstore\n      0x04\n      add\n      mload(0x40)\n      dup1\n      swap2\n      sub\n      swap1\n      revert\n        /* \"PoolPandoras.sol\":22159:22191  if (!ok) revert TransferFailed() */\n    tag_815:\n        /* \"PoolPandoras.sol\":22223:22237  utilityAddress */\n      0x05\n      0x0a\n      swap1\n      sload\n      swap1\n      0x0100\n      exp\n      swap1\n      div\n      sub(shl(0xa0, 0x01), 0x01)\n      and\n      sub(shl(0xa0, 0x01), 0x01)\n        /* \"PoolPandoras.sol\":22206:22278  UtilityWithdrawn(utilityAddress, TokenType.ETH, amount, block.timestamp) */\n      and\n      0x9adbdc797aca3ce26a722598f00149b2328fd124444e6d0b10c4bdc7cfc38196\n        /* \"PoolPandoras.sol\":22239:22252  TokenType.ETH */\n      0x00\n        /* \"PoolPandoras.sol\":22254:22260  amount */\n      dup6\n        /* \"PoolPandoras.sol\":22262:22277  block.timestamp */\n      timestamp\n        /* \"PoolPandoras.sol\":22206:22278  UtilityWithdrawn(utilityAddress, TokenType.ETH, amount, block.timestamp) */\n      mload(0x40)\n      tag_816\n      swap4\n      swap3\n      swap2\n      swap1\n      tag_475\n      jump\t// in\n    tag_816:\n      mload(0x40)\n      dup1\n      swap2\n      sub\n      swap1\n      log2\n        /* \"PoolPandoras.sol\":21949:22285  {... */\n      pop\n        /* \"@openzeppelin/contracts/utils/ReentrancyGuard.sol\":2542:2562   */\n      tag_648\n        /* \"@openzeppelin/contracts/utils/ReentrancyGuard.sol\":1857:1858   */\n      0x01\n        /* \"@openzeppelin/contracts/utils/ReentrancyGuard.sol\":3068:3089   */\n      dup1\n      sstore\n        /* \"@openzeppelin/contracts/utils/ReentrancyGuard.sol\":2888:3096   */\n      jump\n        /* \"PoolPandoras.sol\":3283:3314  address[] public withdrawnUsers */\n    tag_347:\n      0x0e\n      dup2\n      dup2\n      sload\n      dup2\n      lt\n      tag_818\n      jumpi\n      0x00\n      dup1\n      revert\n    tag_818:\n      0x00\n      swap2\n      dup3\n      mstore\n      0x20\n      swap1\n      swap2\n      keccak256\n      add\n      sload\n      sub(shl(0xa0, 0x01), 0x01)\n      and\n      swap1\n      pop\n      dup2\n      jump\t// out\n        /* \"PoolPandoras.sol\":22659:24058  function getVaultStats() external view returns (... */\n    tag_355:\n        /* \"PoolPandoras.sol\":23359:23396  IERC20(USDC).balanceOf(address(this)) */\n      mload(0x40)\n      shl(0xe0, 0x70a08231)\n      dup2\n      mstore\n        /* \"PoolPandoras.sol\":23390:23394  this */\n      address\n        /* \"PoolPandoras.sol\":23359:23396  IERC20(USDC).balanceOf(address(this)) */\n      0x04\n      dup3\n      add\n        /* \"#utility.yul\":9009:9083   */\n      mstore\n        /* \"PoolPandoras.sol\":23303:23324  address(this).balance */\n      selfbalance\n      swap1\n        /* \"PoolPandoras.sol\":22716:22734  uint256 ethInVault */\n      0x00\n      swap1\n      dup2\n      swap1\n      dup2\n      swap1\n      dup2\n      swap1\n      dup2\n      swap1\n      dup2\n      swap1\n      dup2\n      swap1\n      dup2\n      swap1\n      dup2\n      swap1\n      dup2\n      swap1\n      dup2\n      swap1\n      dup2\n      swap1\n      dup2\n      swap1\n        /* \"PoolPandoras.sol\":1229:1271  0x833589fCD6eDb6E08f4c7C32D4f71b54bdA02913 */\n      0x833589fcd6edb6e08f4c7c32d4f71b54bda02913\n      swap1\n        /* \"PoolPandoras.sol\":23359:23381  IERC20(USDC).balanceOf */\n      0x70a08231\n      swap1\n        /* \"#utility.yul\":8982:9000   */\n      0x24\n      add\n        /* \"PoolPandoras.sol\":23359:23396  IERC20(USDC).balanceOf(address(this)) */\n      0x20\n      mload(0x40)\n      dup1\n      dup4\n      sub\n      dup2\n      dup7\n      gas\n      staticcall\n      iszero\n      dup1\n      iszero\n      tag_823\n      jumpi\n      returndatasize\n      0x00\n      dup1\n      returndatacopy\n      revert(0x00, returndatasize)\n    tag_823:\n      pop\n      pop\n      pop\n      pop\n      mload(0x40)\n      returndatasize\n      not(0x1f)\n      0x1f\n      dup3\n      add\n      and\n      dup3\n      add\n      dup1\n      0x40\n      mstore\n      pop\n      dup2\n      add\n      swap1\n      tag_824\n      swap2\n      swap1\n      tag_793\n      jump\t// in\n    tag_824:\n        /* \"PoolPandoras.sol\":23334:23396  usdcInVault            = IERC20(USDC).balanceOf(address(this)) */\n      swap13\n      pop\n        /* \"PoolPandoras.sol\":23431:23448  totalDepositedETH */\n      sload(0x0f)\n        /* \"PoolPandoras.sol\":23406:23448  totalDepositedETH_     = totalDepositedETH */\n      swap12\n      pop\n        /* \"PoolPandoras.sol\":23483:23501  totalDepositedUSDC */\n      sload(0x10)\n        /* \"PoolPandoras.sol\":23458:23501  totalDepositedUSDC_    = totalDepositedUSDC */\n      swap11\n      pop\n        /* \"PoolPandoras.sol\":23536:23553  totalWithdrawnETH */\n      sload(0x11)\n        /* \"PoolPandoras.sol\":23511:23553  totalWithdrawnETH_     = totalWithdrawnETH */\n      swap10\n      pop\n        /* \"PoolPandoras.sol\":23588:23606  totalWithdrawnUSDC */\n      sload(0x12)\n        /* \"PoolPandoras.sol\":23563:23606  totalWithdrawnUSDC_    = totalWithdrawnUSDC */\n      swap9\n      pop\n        /* \"PoolPandoras.sol\":23641:23656  totalUtilityETH */\n      sload(0x13)\n        /* \"PoolPandoras.sol\":23616:23656  totalUtilityETH_       = totalUtilityETH */\n      swap8\n      pop\n        /* \"PoolPandoras.sol\":23691:23707  totalUtilityUSDC */\n      sload(0x14)\n        /* \"PoolPandoras.sol\":23666:23707  totalUtilityUSDC_      = totalUtilityUSDC */\n      swap7\n      pop\n        /* \"PoolPandoras.sol\":23742:23760  totalReinvestedETH */\n      sload(0x15)\n        /* \"PoolPandoras.sol\":23717:23760  totalReinvestedETH_    = totalReinvestedETH */\n      swap6\n      pop\n        /* \"PoolPandoras.sol\":23795:23814  totalReinvestedUSDC */\n      sload(0x16)\n        /* \"PoolPandoras.sol\":23770:23814  totalReinvestedUSDC_   = totalReinvestedUSDC */\n      swap5\n      pop\n        /* \"PoolPandoras.sol\":23849:23865  totalInvestedETH */\n      sload(0x17)\n        /* \"PoolPandoras.sol\":23824:23865  totalInvestedETH_      = totalInvestedETH */\n      swap4\n      pop\n        /* \"PoolPandoras.sol\":23900:23917  totalInvestedUSDC */\n      sload(0x18)\n        /* \"PoolPandoras.sol\":23875:23917  totalInvestedUSDC_     = totalInvestedUSDC */\n      swap3\n      pop\n        /* \"PoolPandoras.sol\":23952:23953  0 */\n      0x00\n        /* \"PoolPandoras.sol\":23927:23953  numDepositors          = 0 */\n      swap2\n      pop\n        /* \"PoolPandoras.sol\":24030:24044  withdrawnUsers */\n      0x0e\n        /* \"PoolPandoras.sol\":24030:24051  withdrawnUsers.length */\n      dup1\n      sload\n      swap1\n      pop\n        /* \"PoolPandoras.sol\":24005:24051  numWithdrawnUsers      = withdrawnUsers.length */\n      swap1\n      pop\n        /* \"PoolPandoras.sol\":22659:24058  function getVaultStats() external view returns (... */\n      swap1\n      swap2\n      swap3\n      swap4\n      swap5\n      swap6\n      swap7\n      swap8\n      swap9\n      swap10\n      swap11\n      swap12\n      swap13\n      swap14\n      jump\t// out\n        /* \"PoolPandoras.sol\":25377:25620  function rescueERC20(address token, address to, uint256 amount) external onlyRole(ADMIN_ROLE) {... */\n    tag_362:\n      0x00\n      dup1\n      mload\n      0x20\n      data_cb864c43dd5d441bb6271f424f11befa622c032dfd374d226e26fbbdb782b8f8\n      dup4\n      codecopy\n      dup2\n      mload\n      swap2\n      mstore\n        /* \"@openzeppelin/contracts/access/AccessControl.sol\":2473:2489   */\n      tag_826\n        /* \"@openzeppelin/contracts/access/AccessControl.sol\":2484:2488   */\n      dup2\n        /* \"@openzeppelin/contracts/access/AccessControl.sol\":2473:2483   */\n      tag_458\n        /* \"@openzeppelin/contracts/access/AccessControl.sol\":2473:2489   */\n      jump\t// in\n    tag_826:\n      sub(shl(0xa0, 0x01), 0x01)\n        /* \"PoolPandoras.sol\":25485:25501  to == address(0) */\n      dup4\n      and\n        /* \"PoolPandoras.sol\":25481:25523  if (to == address(0)) revert ZeroAddress() */\n      tag_828\n      jumpi\n        /* \"PoolPandoras.sol\":25510:25523  ZeroAddress() */\n      mload(0x40)\n      shl(0xe0, 0xd92e233d)\n      dup2\n      mstore\n      0x04\n      add\n      mload(0x40)\n      dup1\n      swap2\n      sub\n      swap1\n      revert\n        /* \"PoolPandoras.sol\":25481:25523  if (to == address(0)) revert ZeroAddress() */\n    tag_828:\n        /* \"PoolPandoras.sol\":25533:25567  IERC20(token).transfer(to, amount) */\n      mload(0x40)\n      shl(0xe0, 0xa9059cbb)\n      dup2\n      mstore\n      sub(shl(0xa0, 0x01), 0x01)\n        /* \"#utility.yul\":12694:12749   */\n      dup5\n      dup2\n      and\n        /* \"PoolPandoras.sol\":25533:25567  IERC20(token).transfer(to, amount) */\n      0x04\n      dup4\n      add\n        /* \"#utility.yul\":12676:12750   */\n      mstore\n        /* \"#utility.yul\":12766:12784   */\n      0x24\n      dup3\n      add\n        /* \"#utility.yul\":12759:12793   */\n      dup5\n      swap1\n      mstore\n        /* \"PoolPandoras.sol\":25533:25555  IERC20(token).transfer */\n      dup6\n      and\n      swap1\n      0xa9059cbb\n      swap1\n        /* \"#utility.yul\":12649:12667   */\n      0x44\n      add\n        /* \"PoolPandoras.sol\":25533:25567  IERC20(token).transfer(to, amount) */\n      0x20\n      mload(0x40)\n      dup1\n      dup4\n      sub\n      dup2\n      0x00\n      dup8\n      gas\n      call\n      iszero\n      dup1\n      iszero\n      tag_831\n      jumpi\n      returndatasize\n      0x00\n      dup1\n      returndatacopy\n      revert(0x00, returndatasize)\n    tag_831:\n      pop\n      pop\n      pop\n      pop\n      mload(0x40)\n      returndatasize\n      not(0x1f)\n      0x1f\n      dup3\n      add\n      and\n      dup3\n      add\n      dup1\n      0x40\n      mstore\n      pop\n      dup2\n      add\n      swap1\n      tag_832\n      swap2\n      swap1\n      tag_543\n      jump\t// in\n    tag_832:\n      pop\n        /* \"PoolPandoras.sol\":25602:25604  to */\n      dup3\n      sub(shl(0xa0, 0x01), 0x01)\n        /* \"PoolPandoras.sol\":25582:25613  ERC20Rescued(token, to, amount) */\n      and\n        /* \"PoolPandoras.sol\":25595:25600  token */\n      dup5\n      sub(shl(0xa0, 0x01), 0x01)\n        /* \"PoolPandoras.sol\":25582:25613  ERC20Rescued(token, to, amount) */\n      and\n      0x8bbfbb5d7fcacf6fc74005cdede0635561638507f576c95f7f294c22141be2e5\n        /* \"PoolPandoras.sol\":25606:25612  amount */\n      dup5\n        /* \"PoolPandoras.sol\":25582:25613  ERC20Rescued(token, to, amount) */\n      mload(0x40)\n      tag_833\n      swap2\n        /* \"#utility.yul\":1035:1060   */\n      dup2\n      mstore\n        /* \"#utility.yul\":1023:1025   */\n      0x20\n        /* \"#utility.yul\":1008:1026   */\n      add\n      swap1\n        /* \"#utility.yul\":889:1066   */\n      jump\n        /* \"PoolPandoras.sol\":25582:25613  ERC20Rescued(token, to, amount) */\n    tag_833:\n      mload(0x40)\n      dup1\n      swap2\n      sub\n      swap1\n      log3\n        /* \"PoolPandoras.sol\":25377:25620  function rescueERC20(address token, address to, uint256 amount) external onlyRole(ADMIN_ROLE) {... */\n      pop\n      pop\n      pop\n      pop\n      jump\t// out\n        /* \"PoolPandoras.sol\":18932:19487  function assignUtilityETHBatch(address[] calldata users, uint256[] calldata amounts) external onlyRole(ADMIN_ROLE) {... */\n    tag_374:\n      0x00\n      dup1\n      mload\n      0x20\n      data_cb864c43dd5d441bb6271f424f11befa622c032dfd374d226e26fbbdb782b8f8\n      dup4\n      codecopy\n      dup2\n      mload\n      swap2\n      mstore\n        /* \"@openzeppelin/contracts/access/AccessControl.sol\":2473:2489   */\n      tag_835\n        /* \"@openzeppelin/contracts/access/AccessControl.sol\":2484:2488   */\n      dup2\n        /* \"@openzeppelin/contracts/access/AccessControl.sol\":2473:2483   */\n      tag_458\n        /* \"@openzeppelin/contracts/access/AccessControl.sol\":2473:2489   */\n      jump\t// in\n    tag_835:\n        /* \"PoolPandoras.sol\":19061:19091  users.length != amounts.length */\n      dup4\n      dup3\n      eq\n        /* \"PoolPandoras.sol\":19057:19121  if (users.length != amounts.length) revert ArrayLengthMismatch() */\n      tag_837\n      jumpi\n        /* \"PoolPandoras.sol\":19100:19121  ArrayLengthMismatch() */\n      mload(0x40)\n      shl(0xe1, 0x512509d3)\n      dup2\n      mstore\n      0x04\n      add\n      mload(0x40)\n      dup1\n      swap2\n      sub\n      swap1\n      revert\n        /* \"PoolPandoras.sol\":19057:19121  if (users.length != amounts.length) revert ArrayLengthMismatch() */\n    tag_837:\n        /* \"PoolPandoras.sol\":19131:19142  uint256 sum */\n      0x00\n      dup1\n        /* \"PoolPandoras.sol\":19152:19384  for (uint256 i = 0; i < users.length; i++) {... */\n    tag_838:\n        /* \"PoolPandoras.sol\":19172:19188  i < users.length */\n      dup6\n      dup2\n      lt\n        /* \"PoolPandoras.sol\":19152:19384  for (uint256 i = 0; i < users.length; i++) {... */\n      iszero\n      tag_839\n      jumpi\n        /* \"PoolPandoras.sol\":19209:19223  uint256 amount */\n      0x00\n        /* \"PoolPandoras.sol\":19226:19233  amounts */\n      dup6\n      dup6\n        /* \"PoolPandoras.sol\":19234:19235  i */\n      dup4\n        /* \"PoolPandoras.sol\":19226:19236  amounts[i] */\n      dup2\n      dup2\n      lt\n      tag_842\n      jumpi\n      tag_842\n      tag_508\n      jump\t// in\n    tag_842:\n      swap1\n      pop\n      0x20\n      mul\n      add\n      calldataload\n        /* \"PoolPandoras.sol\":19209:19236  uint256 amount = amounts[i] */\n      swap1\n      pop\n        /* \"PoolPandoras.sol\":19254:19260  amount */\n      dup1\n        /* \"PoolPandoras.sol\":19264:19265  0 */\n      0x00\n        /* \"PoolPandoras.sol\":19254:19265  amount == 0 */\n      sub\n        /* \"PoolPandoras.sol\":19250:19289  if (amount == 0) revert InvalidAmount() */\n      tag_843\n      jumpi\n        /* \"PoolPandoras.sol\":19274:19289  InvalidAmount() */\n      mload(0x40)\n      shl(0xe1, 0x162908e3)\n      dup2\n      mstore\n      0x04\n      add\n      mload(0x40)\n      dup1\n      swap2\n      sub\n      swap1\n      revert\n        /* \"PoolPandoras.sol\":19250:19289  if (amount == 0) revert InvalidAmount() */\n    tag_843:\n        /* \"PoolPandoras.sol\":19340:19346  amount */\n      dup1\n        /* \"PoolPandoras.sol\":19303:19326  userClaimableUtilityETH */\n      0x09\n        /* \"PoolPandoras.sol\":19303:19336  userClaimableUtilityETH[users[i]] */\n      0x00\n        /* \"PoolPandoras.sol\":19327:19332  users */\n      dup11\n      dup11\n        /* \"PoolPandoras.sol\":19333:19334  i */\n      dup7\n        /* \"PoolPandoras.sol\":19327:19335  users[i] */\n      dup2\n      dup2\n      lt\n      tag_845\n      jumpi\n      tag_845\n      tag_508\n      jump\t// in\n    tag_845:\n      swap1\n      pop\n      0x20\n      mul\n      add\n      0x20\n      dup2\n      add\n      swap1\n      tag_846\n      swap2\n      swap1\n      tag_122\n      jump\t// in\n    tag_846:\n      sub(shl(0xa0, 0x01), 0x01)\n        /* \"PoolPandoras.sol\":19303:19336  userClaimableUtilityETH[users[i]] */\n      and\n      sub(shl(0xa0, 0x01), 0x01)\n      and\n      dup2\n      mstore\n      0x20\n      add\n      swap1\n      dup2\n      mstore\n      0x20\n      add\n      0x00\n      keccak256\n      0x00\n        /* \"PoolPandoras.sol\":19303:19346  userClaimableUtilityETH[users[i]] += amount */\n      dup3\n      dup3\n      sload\n      tag_847\n      swap2\n      swap1\n      tag_487\n      jump\t// in\n    tag_847:\n      swap1\n      swap2\n      sstore\n      pop\n        /* \"PoolPandoras.sol\":19360:19373  sum += amount */\n      tag_848\n      swap1\n      pop\n        /* \"PoolPandoras.sol\":19367:19373  amount */\n      dup2\n        /* \"PoolPandoras.sol\":19360:19373  sum += amount */\n      dup5\n      tag_487\n      jump\t// in\n    tag_848:\n      swap3\n      pop\n      pop\n        /* \"PoolPandoras.sol\":19190:19193  i++ */\n      0x01\n      add\n        /* \"PoolPandoras.sol\":19152:19384  for (uint256 i = 0; i < users.length; i++) {... */\n      jump(tag_838)\n    tag_839:\n      pop\n        /* \"PoolPandoras.sol\":19403:19418  totalUtilityETH */\n      sload(0x13)\n        /* \"PoolPandoras.sol\":19397:19400  sum */\n      dup2\n        /* \"PoolPandoras.sol\":19397:19418  sum > totalUtilityETH */\n      gt\n        /* \"PoolPandoras.sol\":19393:19448  if (sum > totalUtilityETH) revert ExceedsTotalUtility() */\n      iszero\n      tag_849\n      jumpi\n        /* \"PoolPandoras.sol\":19427:19448  ExceedsTotalUtility() */\n      mload(0x40)\n      shl(0xe0, 0x2f37549d)\n      dup2\n      mstore\n      0x04\n      add\n      mload(0x40)\n      dup1\n      swap2\n      sub\n      swap1\n      revert\n        /* \"PoolPandoras.sol\":19393:19448  if (sum > totalUtilityETH) revert ExceedsTotalUtility() */\n    tag_849:\n        /* \"PoolPandoras.sol\":19477:19480  sum */\n      dup1\n        /* \"PoolPandoras.sol\":19458:19473  totalUtilityETH */\n      0x13\n      0x00\n        /* \"PoolPandoras.sol\":19458:19480  totalUtilityETH -= sum */\n      dup3\n      dup3\n      sload\n      tag_576\n      swap2\n      swap1\n      tag_471\n      jump\t// in\n        /* \"PoolPandoras.sol\":21348:21800  function reinvestUtilityUSDC() external nonReentrant {... */\n    tag_377:\n        /* \"@openzeppelin/contracts/utils/ReentrancyGuard.sol\":2500:2521   */\n      tag_852\n        /* \"@openzeppelin/contracts/utils/ReentrancyGuard.sol\":2500:2519   */\n      tag_466\n        /* \"@openzeppelin/contracts/utils/ReentrancyGuard.sol\":2500:2521   */\n      jump\t// in\n    tag_852:\n        /* \"PoolPandoras.sol\":21411:21423  address user */\n      0x00\n        /* \"PoolPandoras.sol\":21426:21438  _msgSender() */\n      tag_854\n        /* \"PoolPandoras.sol\":21426:21436  _msgSender */\n      tag_473\n        /* \"PoolPandoras.sol\":21426:21438  _msgSender() */\n      jump\t// in\n    tag_854:\n      sub(shl(0xa0, 0x01), 0x01)\n        /* \"PoolPandoras.sol\":21462:21492  userClaimableUtilityUSDC[user] */\n      dup2\n      and\n        /* \"PoolPandoras.sol\":21448:21459  uint256 amt */\n      0x00\n        /* \"PoolPandoras.sol\":21462:21492  userClaimableUtilityUSDC[user] */\n      swap1\n      dup2\n      mstore\n        /* \"PoolPandoras.sol\":21462:21486  userClaimableUtilityUSDC */\n      0x0a\n        /* \"PoolPandoras.sol\":21462:21492  userClaimableUtilityUSDC[user] */\n      0x20\n      mstore\n      0x40\n      dup2\n      keccak256\n      sload\n        /* \"PoolPandoras.sol\":21411:21438  address user = _msgSender() */\n      swap2\n      swap3\n      pop\n        /* \"PoolPandoras.sol\":21506:21514  amt == 0 */\n      dup2\n      swap1\n      sub\n        /* \"PoolPandoras.sol\":21502:21541  if (amt == 0) revert NoUtilityToClaim() */\n      tag_855\n      jumpi\n        /* \"PoolPandoras.sol\":21523:21541  NoUtilityToClaim() */\n      mload(0x40)\n      shl(0xe2, 0x3bd65a7b)\n      dup2\n      mstore\n      0x04\n      add\n      mload(0x40)\n      dup1\n      swap2\n      sub\n      swap1\n      revert\n        /* \"PoolPandoras.sol\":21502:21541  if (amt == 0) revert NoUtilityToClaim() */\n    tag_855:\n      sub(shl(0xa0, 0x01), 0x01)\n        /* \"PoolPandoras.sol\":21551:21581  userClaimableUtilityUSDC[user] */\n      dup3\n      and\n        /* \"PoolPandoras.sol\":21584:21585  0 */\n      0x00\n        /* \"PoolPandoras.sol\":21551:21581  userClaimableUtilityUSDC[user] */\n      swap1\n      dup2\n      mstore\n        /* \"PoolPandoras.sol\":21551:21575  userClaimableUtilityUSDC */\n      0x0a\n        /* \"PoolPandoras.sol\":21551:21581  userClaimableUtilityUSDC[user] */\n      0x20\n      mstore\n      0x40\n      dup2\n      keccak256\n        /* \"PoolPandoras.sol\":21551:21585  userClaimableUtilityUSDC[user] = 0 */\n      sstore\n        /* \"PoolPandoras.sol\":21595:21644  _registerDeposit(user, TokenType.USDC, amt, true) */\n      tag_856\n        /* \"PoolPandoras.sol\":21576:21580  user */\n      dup3\n        /* \"PoolPandoras.sol\":21618:21632  TokenType.USDC */\n      0x01\n        /* \"PoolPandoras.sol\":21634:21637  amt */\n      dup4\n        /* \"PoolPandoras.sol\":21618:21632  TokenType.USDC */\n      dup2\n        /* \"PoolPandoras.sol\":21595:21611  _registerDeposit */\n      tag_485\n        /* \"PoolPandoras.sol\":21595:21644  _registerDeposit(user, TokenType.USDC, amt, true) */\n      jump\t// in\n    tag_856:\n        /* \"PoolPandoras.sol\":21677:21680  amt */\n      dup1\n        /* \"PoolPandoras.sol\":21654:21673  totalReinvestedUSDC */\n      0x16\n      0x00\n        /* \"PoolPandoras.sol\":21654:21680  totalReinvestedUSDC += amt */\n      dup3\n      dup3\n      sload\n      tag_857\n      swap2\n      swap1\n      tag_487\n      jump\t// in\n    tag_857:\n      swap1\n      swap2\n      sstore\n      pop\n      pop\n      sub(shl(0xa0, 0x01), 0x01)\n        /* \"PoolPandoras.sol\":21690:21719  userTotalReinvestedUSDC[user] */\n      dup3\n      and\n      0x00\n      swap1\n      dup2\n      mstore\n        /* \"PoolPandoras.sol\":21690:21713  userTotalReinvestedUSDC */\n      0x0c\n        /* \"PoolPandoras.sol\":21690:21719  userTotalReinvestedUSDC[user] */\n      0x20\n      mstore\n      0x40\n      dup2\n      keccak256\n        /* \"PoolPandoras.sol\":21690:21726  userTotalReinvestedUSDC[user] += amt */\n      dup1\n      sload\n        /* \"PoolPandoras.sol\":21723:21726  amt */\n      dup4\n      swap3\n        /* \"PoolPandoras.sol\":21690:21719  userTotalReinvestedUSDC[user] */\n      swap1\n        /* \"PoolPandoras.sol\":21690:21726  userTotalReinvestedUSDC[user] += amt */\n      tag_858\n      swap1\n        /* \"PoolPandoras.sol\":21723:21726  amt */\n      dup5\n      swap1\n        /* \"PoolPandoras.sol\":21690:21726  userTotalReinvestedUSDC[user] += amt */\n      tag_487\n      jump\t// in\n    tag_858:\n      swap3\n      pop\n      pop\n      dup2\n      swap1\n      sstore\n      pop\n        /* \"PoolPandoras.sol\":21750:21754  user */\n      dup2\n      sub(shl(0xa0, 0x01), 0x01)\n        /* \"PoolPandoras.sol\":21741:21793  Reinvest(user, TokenType.USDC, amt, block.timestamp) */\n      and\n      0x997d2ec09b086de73d509bbc4ad2b52fd7e2338024464bede93a41abd6ccdc38\n        /* \"PoolPandoras.sol\":21756:21770  TokenType.USDC */\n      0x01\n        /* \"PoolPandoras.sol\":21772:21775  amt */\n      dup4\n        /* \"PoolPandoras.sol\":21777:21792  block.timestamp */\n      timestamp\n        /* \"PoolPandoras.sol\":21741:21793  Reinvest(user, TokenType.USDC, amt, block.timestamp) */\n      mload(0x40)\n      tag_489\n      swap4\n      swap3\n      swap2\n      swap1\n      tag_475\n      jump\t// in\n        /* \"PoolPandoras.sol\":8495:8971  function withdrawForInvestmentETH(address to, uint256 amount) external onlyRole(MANAGER_ROLE) nonReentrant {... */\n    tag_381:\n        /* \"PoolPandoras.sol\":2272:2297  keccak256(\"MANAGER_ROLE\") */\n      0x241ecf16d79d0f8dbfb92cbc07fe17840425976cf0667f022fe9877caa831b08\n        /* \"@openzeppelin/contracts/access/AccessControl.sol\":2473:2489   */\n      tag_862\n        /* \"@openzeppelin/contracts/access/AccessControl.sol\":2484:2488   */\n      dup2\n        /* \"@openzeppelin/contracts/access/AccessControl.sol\":2473:2483   */\n      tag_458\n        /* \"@openzeppelin/contracts/access/AccessControl.sol\":2473:2489   */\n      jump\t// in\n    tag_862:\n        /* \"@openzeppelin/contracts/utils/ReentrancyGuard.sol\":2500:2521   */\n      tag_864\n        /* \"@openzeppelin/contracts/utils/ReentrancyGuard.sol\":2500:2519   */\n      tag_466\n        /* \"@openzeppelin/contracts/utils/ReentrancyGuard.sol\":2500:2521   */\n      jump\t// in\n    tag_864:\n      sub(shl(0xa0, 0x01), 0x01)\n        /* \"PoolPandoras.sol\":8616:8632  to == address(0) */\n      dup4\n      and\n        /* \"PoolPandoras.sol\":8612:8654  if (to == address(0)) revert ZeroAddress() */\n      tag_866\n      jumpi\n        /* \"PoolPandoras.sol\":8641:8654  ZeroAddress() */\n      mload(0x40)\n      shl(0xe0, 0xd92e233d)\n      dup2\n      mstore\n      0x04\n      add\n      mload(0x40)\n      dup1\n      swap2\n      sub\n      swap1\n      revert\n        /* \"PoolPandoras.sol\":8612:8654  if (to == address(0)) revert ZeroAddress() */\n    tag_866:\n        /* \"PoolPandoras.sol\":8677:8698  address(this).balance */\n      selfbalance\n        /* \"PoolPandoras.sol\":8668:8674  amount */\n      dup3\n        /* \"PoolPandoras.sol\":8668:8698  amount > address(this).balance */\n      gt\n        /* \"PoolPandoras.sol\":8664:8728  if (amount > address(this).balance) revert InsufficientBalance() */\n      iszero\n      tag_867\n      jumpi\n        /* \"PoolPandoras.sol\":8707:8728  InsufficientBalance() */\n      mload(0x40)\n      shl(0xe3, 0x1e9acf17)\n      dup2\n      mstore\n      0x04\n      add\n      mload(0x40)\n      dup1\n      swap2\n      sub\n      swap1\n      revert\n        /* \"PoolPandoras.sol\":8664:8728  if (amount > address(this).balance) revert InsufficientBalance() */\n    tag_867:\n        /* \"PoolPandoras.sol\":8759:8765  amount */\n      dup2\n        /* \"PoolPandoras.sol\":8739:8755  totalInvestedETH */\n      0x17\n      0x00\n        /* \"PoolPandoras.sol\":8739:8765  totalInvestedETH += amount */\n      dup3\n      dup3\n      sload\n      tag_868\n      swap2\n      swap1\n      tag_487\n      jump\t// in\n    tag_868:\n      swap1\n      swap2\n      sstore\n      pop\n      pop\n        /* \"PoolPandoras.sol\":8795:8821  to.call{value: amount}(\"\") */\n      mload(0x40)\n        /* \"PoolPandoras.sol\":8777:8789  bool success */\n      0x00\n      swap1\n      sub(shl(0xa0, 0x01), 0x01)\n        /* \"PoolPandoras.sol\":8795:8802  to.call */\n      dup6\n      and\n      swap1\n        /* \"PoolPandoras.sol\":8810:8816  amount */\n      dup5\n      swap1\n        /* \"PoolPandoras.sol\":8777:8789  bool success */\n      dup4\n        /* \"PoolPandoras.sol\":8795:8821  to.call{value: amount}(\"\") */\n      dup2\n        /* \"PoolPandoras.sol\":8777:8789  bool success */\n      dup2\n        /* \"PoolPandoras.sol\":8795:8821  to.call{value: amount}(\"\") */\n      dup2\n        /* \"PoolPandoras.sol\":8810:8816  amount */\n      dup6\n        /* \"PoolPandoras.sol\":8795:8802  to.call */\n      dup8\n        /* \"PoolPandoras.sol\":8795:8821  to.call{value: amount}(\"\") */\n      gas\n      call\n      swap3\n      pop\n      pop\n      pop\n      returndatasize\n      dup1\n      0x00\n      dup2\n      eq\n      tag_872\n      jumpi\n      mload(0x40)\n      swap2\n      pop\n      and(add(returndatasize, 0x3f), not(0x1f))\n      dup3\n      add\n      0x40\n      mstore\n      returndatasize\n      dup3\n      mstore\n      returndatasize\n      0x00\n      0x20\n      dup5\n      add\n      returndatacopy\n      jump(tag_871)\n    tag_872:\n      0x60\n      swap2\n      pop\n    tag_871:\n      pop\n        /* \"PoolPandoras.sol\":8776:8821  (bool success, ) = to.call{value: amount}(\"\") */\n      pop\n      swap1\n      pop\n        /* \"PoolPandoras.sol\":8836:8843  success */\n      dup1\n        /* \"PoolPandoras.sol\":8831:8868  if (!success) revert TransferFailed() */\n      tag_873\n      jumpi\n        /* \"PoolPandoras.sol\":8852:8868  TransferFailed() */\n      mload(0x40)\n      shl(0xe3, 0x12171d83)\n      dup2\n      mstore\n      0x04\n      add\n      mload(0x40)\n      dup1\n      swap2\n      sub\n      swap1\n      revert\n        /* \"PoolPandoras.sol\":8831:8868  if (!success) revert TransferFailed() */\n    tag_873:\n        /* \"PoolPandoras.sol\":8936:8938  to */\n      dup4\n      sub(shl(0xa0, 0x01), 0x01)\n        /* \"PoolPandoras.sol\":8884:8964  WithdrawnForInvestment(_msgSender(), TokenType.ETH, to, amount, block.timestamp) */\n      and\n        /* \"PoolPandoras.sol\":8907:8919  _msgSender() */\n      tag_874\n        /* \"PoolPandoras.sol\":8907:8917  _msgSender */\n      tag_473\n        /* \"PoolPandoras.sol\":8907:8919  _msgSender() */\n      jump\t// in\n    tag_874:\n      sub(shl(0xa0, 0x01), 0x01)\n        /* \"PoolPandoras.sol\":8884:8964  WithdrawnForInvestment(_msgSender(), TokenType.ETH, to, amount, block.timestamp) */\n      and\n      0x8d4f9c9a6da9172da9a02229d92e4af088c62953986a74048d010260b197def3\n        /* \"PoolPandoras.sol\":8921:8934  TokenType.ETH */\n      0x00\n        /* \"PoolPandoras.sol\":8940:8946  amount */\n      dup7\n        /* \"PoolPandoras.sol\":8948:8963  block.timestamp */\n      timestamp\n        /* \"PoolPandoras.sol\":8884:8964  WithdrawnForInvestment(_msgSender(), TokenType.ETH, to, amount, block.timestamp) */\n      mload(0x40)\n      tag_875\n      swap4\n      swap3\n      swap2\n      swap1\n      tag_475\n      jump\t// in\n    tag_875:\n      mload(0x40)\n      dup1\n      swap2\n      sub\n      swap1\n      log3\n        /* \"PoolPandoras.sol\":8602:8971  {... */\n      pop\n        /* \"@openzeppelin/contracts/utils/ReentrancyGuard.sol\":2542:2562   */\n      tag_558\n        /* \"@openzeppelin/contracts/utils/ReentrancyGuard.sol\":1857:1858   */\n      0x01\n        /* \"@openzeppelin/contracts/utils/ReentrancyGuard.sol\":3068:3089   */\n      dup1\n      sstore\n        /* \"@openzeppelin/contracts/utils/ReentrancyGuard.sol\":2888:3096   */\n      jump\n        /* \"PoolPandoras.sol\":6880:7040  function setLockupPeriod(uint256 newPeriod) external onlyRole(ADMIN_ROLE) {... */\n    tag_385:\n      0x00\n      dup1\n      mload\n      0x20\n      data_cb864c43dd5d441bb6271f424f11befa622c032dfd374d226e26fbbdb782b8f8\n      dup4\n      codecopy\n      dup2\n      mload\n      swap2\n      mstore\n        /* \"@openzeppelin/contracts/access/AccessControl.sol\":2473:2489   */\n      tag_878\n        /* \"@openzeppelin/contracts/access/AccessControl.sol\":2484:2488   */\n      dup2\n        /* \"@openzeppelin/contracts/access/AccessControl.sol\":2473:2483   */\n      tag_458\n        /* \"@openzeppelin/contracts/access/AccessControl.sol\":2473:2489   */\n      jump\t// in\n    tag_878:\n        /* \"PoolPandoras.sol\":6964:6976  lockupPeriod */\n      0x02\n        /* \"PoolPandoras.sol\":6964:6988  lockupPeriod = newPeriod */\n      dup3\n      swap1\n      sstore\n        /* \"PoolPandoras.sol\":7003:7033  LockupPeriodChanged(newPeriod) */\n      mload(0x40)\n        /* \"#utility.yul\":1035:1060   */\n      dup3\n      dup2\n      mstore\n        /* \"PoolPandoras.sol\":7003:7033  LockupPeriodChanged(newPeriod) */\n      0xc5e00a325524bc148ddc05bb642b804e9ae1dfc670c217ed3c4c6595f7427ef4\n      swap1\n        /* \"#utility.yul\":1023:1025   */\n      0x20\n        /* \"#utility.yul\":1008:1026   */\n      add\n        /* \"PoolPandoras.sol\":7003:7033  LockupPeriodChanged(newPeriod) */\n      tag_782\n        /* \"#utility.yul\":889:1066   */\n      jump\n        /* \"@openzeppelin/contracts/access/AccessControl.sol\":4618:4756   */\n    tag_389:\n        /* \"@openzeppelin/contracts/access/AccessControl.sol\":3851:3858   */\n      0x00\n        /* \"@openzeppelin/contracts/access/AccessControl.sol\":3877:3889   */\n      dup3\n      dup2\n      mstore\n      0x20\n      dup2\n      swap1\n      mstore\n      0x40\n      swap1\n      keccak256\n        /* \"@openzeppelin/contracts/access/AccessControl.sol\":3877:3899   */\n      0x01\n      add\n      sload\n        /* \"@openzeppelin/contracts/access/AccessControl.sol\":2473:2489   */\n      tag_883\n        /* \"@openzeppelin/contracts/access/AccessControl.sol\":2484:2488   */\n      dup2\n        /* \"@openzeppelin/contracts/access/AccessControl.sol\":2473:2483   */\n      tag_458\n        /* \"@openzeppelin/contracts/access/AccessControl.sol\":2473:2489   */\n      jump\t// in\n    tag_883:\n        /* \"@openzeppelin/contracts/access/AccessControl.sol\":4723:4749   */\n      tag_553\n        /* \"@openzeppelin/contracts/access/AccessControl.sol\":4735:4739   */\n      dup4\n        /* \"@openzeppelin/contracts/access/AccessControl.sol\":4741:4748   */\n      dup4\n        /* \"@openzeppelin/contracts/access/AccessControl.sol\":4723:4734   */\n      tag_559\n        /* \"@openzeppelin/contracts/access/AccessControl.sol\":4723:4749   */\n      jump\t// in\n        /* \"PoolPandoras.sol\":17948:18281  function injectUtilityUSDC(uint256 amount) external onlyRole(UTILITY_INJECTOR_ROLE) {... */\n    tag_393:\n        /* \"PoolPandoras.sol\":2092:2126  keccak256(\"UTILITY_INJECTOR_ROLE\") */\n      0xf60566c40710959d8d30b6067ce3c53c757bec78eecb0e46b83c7f8194ffae37\n        /* \"@openzeppelin/contracts/access/AccessControl.sol\":2473:2489   */\n      tag_887\n        /* \"@openzeppelin/contracts/access/AccessControl.sol\":2484:2488   */\n      dup2\n        /* \"@openzeppelin/contracts/access/AccessControl.sol\":2473:2483   */\n      tag_458\n        /* \"@openzeppelin/contracts/access/AccessControl.sol\":2473:2489   */\n      jump\t// in\n    tag_887:\n        /* \"PoolPandoras.sol\":18046:18052  amount */\n      dup2\n        /* \"PoolPandoras.sol\":18056:18057  0 */\n      0x00\n        /* \"PoolPandoras.sol\":18046:18057  amount == 0 */\n      sub\n        /* \"PoolPandoras.sol\":18042:18081  if (amount == 0) revert InvalidAmount() */\n      tag_889\n      jumpi\n        /* \"PoolPandoras.sol\":18066:18081  InvalidAmount() */\n      mload(0x40)\n      shl(0xe1, 0x162908e3)\n      dup2\n      mstore\n      0x04\n      add\n      mload(0x40)\n      dup1\n      swap2\n      sub\n      swap1\n      revert\n        /* \"PoolPandoras.sol\":18042:18081  if (amount == 0) revert InvalidAmount() */\n    tag_889:\n        /* \"PoolPandoras.sol\":1229:1271  0x833589fCD6eDb6E08f4c7C32D4f71b54bdA02913 */\n      0x833589fcd6edb6e08f4c7c32d4f71b54bda02913\n        /* \"PoolPandoras.sol\":18091:18116  IERC20(USDC).transferFrom */\n      0x23b872dd\n        /* \"PoolPandoras.sol\":18117:18129  _msgSender() */\n      tag_890\n        /* \"PoolPandoras.sol\":18117:18127  _msgSender */\n      tag_473\n        /* \"PoolPandoras.sol\":18117:18129  _msgSender() */\n      jump\t// in\n    tag_890:\n        /* \"PoolPandoras.sol\":18091:18153  IERC20(USDC).transferFrom(_msgSender(), address(this), amount) */\n      mload(0x40)\n      not(sub(shl(0xe0, 0x01), 0x01))\n      0xe0\n      dup5\n      swap1\n      shl\n      and\n      dup2\n      mstore\n      sub(shl(0xa0, 0x01), 0x01)\n        /* \"#utility.yul\":13834:13849   */\n      swap1\n      swap2\n      and\n        /* \"PoolPandoras.sol\":18091:18153  IERC20(USDC).transferFrom(_msgSender(), address(this), amount) */\n      0x04\n      dup3\n      add\n        /* \"#utility.yul\":13816:13850   */\n      mstore\n        /* \"PoolPandoras.sol\":18139:18143  this */\n      address\n        /* \"#utility.yul\":13866:13884   */\n      0x24\n      dup3\n      add\n        /* \"#utility.yul\":13859:13902   */\n      mstore\n        /* \"#utility.yul\":13918:13936   */\n      0x44\n      dup2\n      add\n        /* \"#utility.yul\":13911:13945   */\n      dup6\n      swap1\n      mstore\n        /* \"#utility.yul\":13728:13746   */\n      0x64\n      add\n        /* \"PoolPandoras.sol\":18091:18153  IERC20(USDC).transferFrom(_msgSender(), address(this), amount) */\n      0x20\n      mload(0x40)\n      dup1\n      dup4\n      sub\n      dup2\n      0x00\n      dup8\n      gas\n      call\n      iszero\n      dup1\n      iszero\n      tag_893\n      jumpi\n      returndatasize\n      0x00\n      dup1\n      returndatacopy\n      revert(0x00, returndatasize)\n    tag_893:\n      pop\n      pop\n      pop\n      pop\n      mload(0x40)\n      returndatasize\n      not(0x1f)\n      0x1f\n      dup3\n      add\n      and\n      dup3\n      add\n      dup1\n      0x40\n      mstore\n      pop\n      dup2\n      add\n      swap1\n      tag_894\n      swap2\n      swap1\n      tag_543\n      jump\t// in\n    tag_894:\n      pop\n        /* \"PoolPandoras.sol\":18183:18189  amount */\n      dup2\n        /* \"PoolPandoras.sol\":18163:18179  totalUtilityUSDC */\n      0x14\n      0x00\n        /* \"PoolPandoras.sol\":18163:18189  totalUtilityUSDC += amount */\n      dup3\n      dup3\n      sload\n      tag_895\n      swap2\n      swap1\n      tag_487\n      jump\t// in\n    tag_895:\n      swap1\n      swap2\n      sstore\n      pop\n        /* \"PoolPandoras.sol\":18220:18232  _msgSender() */\n      tag_896\n      swap1\n      pop\n        /* \"PoolPandoras.sol\":18220:18230  _msgSender */\n      tag_473\n        /* \"PoolPandoras.sol\":18220:18232  _msgSender() */\n      jump\t// in\n    tag_896:\n      sub(shl(0xa0, 0x01), 0x01)\n        /* \"PoolPandoras.sol\":18204:18274  UtilityInjected(_msgSender(), TokenType.USDC, amount, block.timestamp) */\n      and\n      0x8bafec96fcffb6f12596b4635c76397b7bc1f363b22c49c13136b63677323dcc\n        /* \"PoolPandoras.sol\":18234:18248  TokenType.USDC */\n      0x01\n        /* \"PoolPandoras.sol\":18250:18256  amount */\n      dup5\n        /* \"PoolPandoras.sol\":18258:18273  block.timestamp */\n      timestamp\n        /* \"PoolPandoras.sol\":18204:18274  UtilityInjected(_msgSender(), TokenType.USDC, amount, block.timestamp) */\n      mload(0x40)\n      tag_897\n      swap4\n      swap3\n      swap2\n      swap1\n      tag_475\n      jump\t// in\n    tag_897:\n      mload(0x40)\n      dup1\n      swap2\n      sub\n      swap1\n      log2\n        /* \"PoolPandoras.sol\":17948:18281  function injectUtilityUSDC(uint256 amount) external onlyRole(UTILITY_INJECTOR_ROLE) {... */\n      pop\n      pop\n      jump\t// out\n        /* \"PoolPandoras.sol\":16712:17376  function enableGlobalLiquidation() external onlyRole(ADMIN_ROLE) {... */\n    tag_396:\n      0x00\n      dup1\n      mload\n      0x20\n      data_cb864c43dd5d441bb6271f424f11befa622c032dfd374d226e26fbbdb782b8f8\n      dup4\n      codecopy\n      dup2\n      mload\n      swap2\n      mstore\n        /* \"@openzeppelin/contracts/access/AccessControl.sol\":2473:2489   */\n      tag_899\n        /* \"@openzeppelin/contracts/access/AccessControl.sol\":2484:2488   */\n      dup2\n        /* \"@openzeppelin/contracts/access/AccessControl.sol\":2473:2483   */\n      tag_458\n        /* \"@openzeppelin/contracts/access/AccessControl.sol\":2473:2489   */\n      jump\t// in\n    tag_899:\n        /* \"PoolPandoras.sol\":16791:16815  globalLiquidationEnabled */\n      sload(0x05)\n      0x01000000\n      swap1\n      div\n      0xff\n      and\n        /* \"PoolPandoras.sol\":16787:16857  if (globalLiquidationEnabled) revert GlobalLiquidationAlreadyEnabled() */\n      iszero\n      tag_901\n      jumpi\n        /* \"PoolPandoras.sol\":16824:16857  GlobalLiquidationAlreadyEnabled() */\n      mload(0x40)\n      shl(0xe0, 0xae7fe589)\n      dup2\n      mstore\n      0x04\n      add\n      mload(0x40)\n      dup1\n      swap2\n      sub\n      swap1\n      revert\n        /* \"PoolPandoras.sol\":16787:16857  if (globalLiquidationEnabled) revert GlobalLiquidationAlreadyEnabled() */\n    tag_901:\n        /* \"PoolPandoras.sol\":16867:16891  globalLiquidationEnabled */\n      0x05\n        /* \"PoolPandoras.sol\":16867:16898  globalLiquidationEnabled = true */\n      dup1\n      sload\n        /* \"PoolPandoras.sol\":16908:16960  globalLiquidationTimestamp = uint48(block.timestamp) */\n      0xffffffffffff\n        /* \"PoolPandoras.sol\":16944:16959  block.timestamp */\n      timestamp\n        /* \"PoolPandoras.sol\":16908:16960  globalLiquidationTimestamp = uint48(block.timestamp) */\n      swap1\n      dup2\n      and\n      0x0100000000\n      mul\n      not(0xffffffffffffff000000)\n      swap1\n      swap3\n      and\n      swap2\n      swap1\n      swap2\n      or\n        /* \"PoolPandoras.sol\":16867:16898  globalLiquidationEnabled = true */\n      0x01000000\n        /* \"PoolPandoras.sol\":16908:16960  globalLiquidationTimestamp = uint48(block.timestamp) */\n      or\n      swap1\n      swap2\n      sstore\n        /* \"PoolPandoras.sol\":17328:17369  GlobalLiquidationEnabled(block.timestamp) */\n      mload(0x40)\n      0x2388ceaed48d21bd0802856df41a22705f9046a67a817a047352aa3bbfe5c5d1\n      swap2\n      tag_902\n      swap2\n        /* \"#utility.yul\":1035:1060   */\n      swap1\n      dup2\n      mstore\n        /* \"#utility.yul\":1023:1025   */\n      0x20\n        /* \"#utility.yul\":1008:1026   */\n      add\n      swap1\n        /* \"#utility.yul\":889:1066   */\n      jump\n        /* \"PoolPandoras.sol\":17328:17369  GlobalLiquidationEnabled(block.timestamp) */\n    tag_902:\n      mload(0x40)\n      dup1\n      swap2\n      sub\n      swap1\n      log1\n        /* \"PoolPandoras.sol\":16712:17376  function enableGlobalLiquidation() external onlyRole(ADMIN_ROLE) {... */\n      pop\n      jump\t// out\n        /* \"PoolPandoras.sol\":20093:20492  function claimUtilityETH() external nonReentrant {... */\n    tag_411:\n        /* \"@openzeppelin/contracts/utils/ReentrancyGuard.sol\":2500:2521   */\n      tag_904\n        /* \"@openzeppelin/contracts/utils/ReentrancyGuard.sol\":2500:2519   */\n      tag_466\n        /* \"@openzeppelin/contracts/utils/ReentrancyGuard.sol\":2500:2521   */\n      jump\t// in\n    tag_904:\n        /* \"PoolPandoras.sol\":20152:20164  address user */\n      0x00\n        /* \"PoolPandoras.sol\":20167:20179  _msgSender() */\n      tag_906\n        /* \"PoolPandoras.sol\":20167:20177  _msgSender */\n      tag_473\n        /* \"PoolPandoras.sol\":20167:20179  _msgSender() */\n      jump\t// in\n    tag_906:\n      sub(shl(0xa0, 0x01), 0x01)\n        /* \"PoolPandoras.sol\":20203:20232  userClaimableUtilityETH[user] */\n      dup2\n      and\n        /* \"PoolPandoras.sol\":20189:20200  uint256 amt */\n      0x00\n        /* \"PoolPandoras.sol\":20203:20232  userClaimableUtilityETH[user] */\n      swap1\n      dup2\n      mstore\n        /* \"PoolPandoras.sol\":20203:20226  userClaimableUtilityETH */\n      0x09\n        /* \"PoolPandoras.sol\":20203:20232  userClaimableUtilityETH[user] */\n      0x20\n      mstore\n      0x40\n      dup2\n      keccak256\n      sload\n        /* \"PoolPandoras.sol\":20152:20179  address user = _msgSender() */\n      swap2\n      swap3\n      pop\n        /* \"PoolPandoras.sol\":20246:20254  amt == 0 */\n      dup2\n      swap1\n      sub\n        /* \"PoolPandoras.sol\":20242:20281  if (amt == 0) revert NoUtilityToClaim() */\n      tag_907\n      jumpi\n        /* \"PoolPandoras.sol\":20263:20281  NoUtilityToClaim() */\n      mload(0x40)\n      shl(0xe2, 0x3bd65a7b)\n      dup2\n      mstore\n      0x04\n      add\n      mload(0x40)\n      dup1\n      swap2\n      sub\n      swap1\n      revert\n        /* \"PoolPandoras.sol\":20242:20281  if (amt == 0) revert NoUtilityToClaim() */\n    tag_907:\n      sub(shl(0xa0, 0x01), 0x01)\n        /* \"PoolPandoras.sol\":20291:20320  userClaimableUtilityETH[user] */\n      dup3\n      and\n        /* \"PoolPandoras.sol\":20323:20324  0 */\n      0x00\n        /* \"PoolPandoras.sol\":20291:20320  userClaimableUtilityETH[user] */\n      dup2\n      dup2\n      mstore\n        /* \"PoolPandoras.sol\":20291:20314  userClaimableUtilityETH */\n      0x09\n        /* \"PoolPandoras.sol\":20291:20320  userClaimableUtilityETH[user] */\n      0x20\n      mstore\n      0x40\n      dup1\n      dup3\n      keccak256\n        /* \"PoolPandoras.sol\":20291:20324  userClaimableUtilityETH[user] = 0 */\n      dup3\n      swap1\n      sstore\n        /* \"PoolPandoras.sol\":20348:20373  user.call{value: amt}(\"\") */\n      mload\n        /* \"PoolPandoras.sol\":20323:20324  0 */\n      swap1\n      swap2\n        /* \"PoolPandoras.sol\":20291:20320  userClaimableUtilityETH[user] */\n      swap1\n        /* \"PoolPandoras.sol\":20365:20368  amt */\n      dup4\n      swap1\n        /* \"PoolPandoras.sol\":20323:20324  0 */\n      dup4\n        /* \"PoolPandoras.sol\":20348:20373  user.call{value: amt}(\"\") */\n      dup2\n        /* \"PoolPandoras.sol\":20323:20324  0 */\n      dup2\n        /* \"PoolPandoras.sol\":20348:20373  user.call{value: amt}(\"\") */\n      dup2\n        /* \"PoolPandoras.sol\":20365:20368  amt */\n      dup6\n        /* \"PoolPandoras.sol\":20291:20320  userClaimableUtilityETH[user] */\n      dup8\n        /* \"PoolPandoras.sol\":20348:20373  user.call{value: amt}(\"\") */\n      gas\n      call\n      swap3\n      pop\n      pop\n      pop\n      returndatasize\n      dup1\n      0x00\n      dup2\n      eq\n      tag_911\n      jumpi\n      mload(0x40)\n      swap2\n      pop\n      and(add(returndatasize, 0x3f), not(0x1f))\n      dup3\n      add\n      0x40\n      mstore\n      returndatasize\n      dup3\n      mstore\n      returndatasize\n      0x00\n      0x20\n      dup5\n      add\n      returndatacopy\n      jump(tag_910)\n    tag_911:\n      0x60\n      swap2\n      pop\n    tag_910:\n      pop\n        /* \"PoolPandoras.sol\":20334:20373  (bool ok, ) = user.call{value: amt}(\"\") */\n      pop\n      swap1\n      pop\n        /* \"PoolPandoras.sol\":20388:20390  ok */\n      dup1\n        /* \"PoolPandoras.sol\":20383:20415  if (!ok) revert TransferFailed() */\n      tag_912\n      jumpi\n        /* \"PoolPandoras.sol\":20399:20415  TransferFailed() */\n      mload(0x40)\n      shl(0xe3, 0x12171d83)\n      dup2\n      mstore\n      0x04\n      add\n      mload(0x40)\n      dup1\n      swap2\n      sub\n      swap1\n      revert\n        /* \"PoolPandoras.sol\":20383:20415  if (!ok) revert TransferFailed() */\n    tag_912:\n        /* \"PoolPandoras.sol\":20443:20447  user */\n      dup3\n      sub(shl(0xa0, 0x01), 0x01)\n        /* \"PoolPandoras.sol\":20430:20485  ClaimUtility(user, TokenType.ETH, amt, block.timestamp) */\n      and\n      0x6914793c7a82461acec66c7de7fdbbbf1f825c26bc2fe939b61f0e4f8964c2b5\n        /* \"PoolPandoras.sol\":20449:20462  TokenType.ETH */\n      0x00\n        /* \"PoolPandoras.sol\":20464:20467  amt */\n      dup5\n        /* \"PoolPandoras.sol\":20469:20484  block.timestamp */\n      timestamp\n        /* \"PoolPandoras.sol\":20430:20485  ClaimUtility(user, TokenType.ETH, amt, block.timestamp) */\n      mload(0x40)\n      tag_913\n      swap4\n      swap3\n      swap2\n      swap1\n      tag_475\n      jump\t// in\n    tag_913:\n      mload(0x40)\n      dup1\n      swap2\n      sub\n      swap1\n      log2\n        /* \"PoolPandoras.sol\":20142:20492  {... */\n      pop\n      pop\n      pop\n        /* \"@openzeppelin/contracts/utils/ReentrancyGuard.sol\":2542:2562   */\n      tag_490\n        /* \"@openzeppelin/contracts/utils/ReentrancyGuard.sol\":1857:1858   */\n      0x01\n        /* \"@openzeppelin/contracts/utils/ReentrancyGuard.sol\":3068:3089   */\n      dup1\n      sstore\n        /* \"@openzeppelin/contracts/utils/ReentrancyGuard.sol\":2888:3096   */\n      jump\n        /* \"PoolPandoras.sol\":17382:17642  function setDepositsAsRedeemable(address user, uint256[] calldata depositIndices) external onlyRole(ADMIN_ROLE) {... */\n    tag_436:\n      0x00\n      dup1\n      mload\n      0x20\n      data_cb864c43dd5d441bb6271f424f11befa622c032dfd374d226e26fbbdb782b8f8\n      dup4\n      codecopy\n      dup2\n      mload\n      swap2\n      mstore\n        /* \"@openzeppelin/contracts/access/AccessControl.sol\":2473:2489   */\n      tag_916\n        /* \"@openzeppelin/contracts/access/AccessControl.sol\":2484:2488   */\n      dup2\n        /* \"@openzeppelin/contracts/access/AccessControl.sol\":2473:2483   */\n      tag_458\n        /* \"@openzeppelin/contracts/access/AccessControl.sol\":2473:2489   */\n      jump\t// in\n    tag_916:\n        /* \"PoolPandoras.sol\":17509:17518  uint256 i */\n      0x00\n        /* \"PoolPandoras.sol\":17504:17636  for (uint256 i = 0; i < depositIndices.length; i++) {... */\n    tag_918:\n        /* \"PoolPandoras.sol\":17524:17549  i < depositIndices.length */\n      dup3\n      dup2\n      lt\n        /* \"PoolPandoras.sol\":17504:17636  for (uint256 i = 0; i < depositIndices.length; i++) {... */\n      iszero\n      tag_919\n      jumpi\n      sub(shl(0xa0, 0x01), 0x01)\n        /* \"PoolPandoras.sol\":17570:17588  userDeposits[user] */\n      dup6\n      and\n      0x00\n      swap1\n      dup2\n      mstore\n        /* \"PoolPandoras.sol\":17570:17582  userDeposits */\n      0x06\n        /* \"PoolPandoras.sol\":17570:17588  userDeposits[user] */\n      0x20\n      mstore\n      0x40\n      swap1\n      keccak256\n        /* \"PoolPandoras.sol\":17618:17624  1 << 2 */\n      0x04\n      swap1\n        /* \"PoolPandoras.sol\":17589:17603  depositIndices */\n      dup6\n      dup6\n        /* \"PoolPandoras.sol\":17604:17605  i */\n      dup5\n        /* \"PoolPandoras.sol\":17589:17606  depositIndices[i] */\n      dup2\n      dup2\n      lt\n      tag_922\n      jumpi\n      tag_922\n      tag_508\n      jump\t// in\n    tag_922:\n      swap1\n      pop\n      0x20\n      mul\n      add\n      calldataload\n        /* \"PoolPandoras.sol\":17570:17607  userDeposits[user][depositIndices[i]] */\n      dup2\n      sload\n      dup2\n      lt\n      tag_924\n      jumpi\n      tag_924\n      tag_508\n      jump\t// in\n    tag_924:\n      0x00\n      swap2\n      dup3\n      mstore\n      0x20\n      swap1\n      swap2\n      keccak256\n        /* \"PoolPandoras.sol\":17570:17613  userDeposits[user][depositIndices[i]].flags */\n      0x01\n        /* \"PoolPandoras.sol\":17570:17607  userDeposits[user][depositIndices[i]] */\n      0x02\n      swap1\n      swap3\n      mul\n      add\n        /* \"PoolPandoras.sol\":17570:17613  userDeposits[user][depositIndices[i]].flags */\n      dup2\n      add\n        /* \"PoolPandoras.sol\":17570:17625  userDeposits[user][depositIndices[i]].flags |= (1 << 2) */\n      dup1\n      sload\n      0xff\n      swap4\n      dup5\n      and\n      shl(0x38, 0x01)\n      dup1\n      dup4\n      div\n      swap6\n      swap1\n      swap6\n      and\n      or\n      swap1\n      swap4\n      mul\n      not(0xff00000000000000)\n      swap1\n      swap4\n      and\n      swap3\n      swap1\n      swap3\n      or\n      swap1\n      swap2\n      sstore\n        /* \"PoolPandoras.sol\":17551:17554  i++ */\n      add\n        /* \"PoolPandoras.sol\":17504:17636  for (uint256 i = 0; i < depositIndices.length; i++) {... */\n      jump(tag_918)\n    tag_919:\n      pop\n        /* \"PoolPandoras.sol\":17382:17642  function setDepositsAsRedeemable(address user, uint256[] calldata depositIndices) external onlyRole(ADMIN_ROLE) {... */\n      pop\n      pop\n      pop\n      pop\n      jump\t// out\n        /* \"PoolPandoras.sol\":7046:7296  function setMaxCap(TokenType token, uint256 newCap) external onlyRole(ADMIN_ROLE) {... */\n    tag_441:\n      0x00\n      dup1\n      mload\n      0x20\n      data_cb864c43dd5d441bb6271f424f11befa622c032dfd374d226e26fbbdb782b8f8\n      dup4\n      codecopy\n      dup2\n      mload\n      swap2\n      mstore\n        /* \"@openzeppelin/contracts/access/AccessControl.sol\":2473:2489   */\n      tag_927\n        /* \"@openzeppelin/contracts/access/AccessControl.sol\":2484:2488   */\n      dup2\n        /* \"@openzeppelin/contracts/access/AccessControl.sol\":2473:2483   */\n      tag_458\n        /* \"@openzeppelin/contracts/access/AccessControl.sol\":2473:2489   */\n      jump\t// in\n    tag_927:\n        /* \"PoolPandoras.sol\":7151:7164  TokenType.ETH */\n      0x00\n        /* \"PoolPandoras.sol\":7142:7147  token */\n      dup4\n        /* \"PoolPandoras.sol\":7142:7164  token == TokenType.ETH */\n      0x01\n      dup2\n      gt\n      iszero\n      tag_932\n      jumpi\n      tag_932\n      tag_497\n      jump\t// in\n    tag_932:\n      sub\n        /* \"PoolPandoras.sol\":7138:7246  if (token == TokenType.ETH)  maxCapETH  = newCap;... */\n      tag_933\n      jumpi\n        /* \"PoolPandoras.sol\":7167:7176  maxCapETH */\n      0x03\n        /* \"PoolPandoras.sol\":7167:7186  maxCapETH  = newCap */\n      dup3\n      swap1\n      sstore\n        /* \"PoolPandoras.sol\":7138:7246  if (token == TokenType.ETH)  maxCapETH  = newCap;... */\n      jump(tag_934)\n    tag_933:\n        /* \"PoolPandoras.sol\":7227:7237  maxCapUSDC */\n      0x04\n        /* \"PoolPandoras.sol\":7227:7246  maxCapUSDC = newCap */\n      dup3\n      swap1\n      sstore\n        /* \"PoolPandoras.sol\":7138:7246  if (token == TokenType.ETH)  maxCapETH  = newCap;... */\n    tag_934:\n        /* \"PoolPandoras.sol\":7261:7289  MaxCapChanged(token, newCap) */\n      0x5d7976bccd4b396c1a1a0020032e62bf8a381bcffc61e69a13ea61761b757218\n        /* \"PoolPandoras.sol\":7275:7280  token */\n      dup4\n        /* \"PoolPandoras.sol\":7282:7288  newCap */\n      dup4\n        /* \"PoolPandoras.sol\":7261:7289  MaxCapChanged(token, newCap) */\n      mload(0x40)\n      tag_659\n      swap3\n      swap2\n      swap1\n      tag_936\n      jump\t// in\n        /* \"PoolPandoras.sol\":10248:10667  function depositETH() external payable nonReentrant whenDepositsNotPaused {... */\n    tag_443:\n        /* \"@openzeppelin/contracts/utils/ReentrancyGuard.sol\":2500:2521   */\n      tag_938\n        /* \"@openzeppelin/contracts/utils/ReentrancyGuard.sol\":2500:2519   */\n      tag_466\n        /* \"@openzeppelin/contracts/utils/ReentrancyGuard.sol\":2500:2521   */\n      jump\t// in\n    tag_938:\n        /* \"PoolPandoras.sol\":5334:5348  pausedDeposits */\n      and(0xff, sload(0x05))\n        /* \"PoolPandoras.sol\":5330:5373  if (pausedDeposits) revert DepositsPaused() */\n      iszero\n      tag_940\n      jumpi\n        /* \"PoolPandoras.sol\":5357:5373  DepositsPaused() */\n      mload(0x40)\n      shl(0xe0, 0xdeeb6943)\n      dup2\n      mstore\n      0x04\n      add\n      mload(0x40)\n      dup1\n      swap2\n      sub\n      swap1\n      revert\n        /* \"PoolPandoras.sol\":5330:5373  if (pausedDeposits) revert DepositsPaused() */\n    tag_940:\n        /* \"PoolPandoras.sol\":10346:10355  msg.value */\n      callvalue\n        /* \"PoolPandoras.sol\":10332:10343  uint256 amt */\n      0x00\n        /* \"PoolPandoras.sol\":10369:10377  amt == 0 */\n      dup2\n      swap1\n      sub\n        /* \"PoolPandoras.sol\":10365:10401  if (amt == 0) revert InvalidAmount() */\n      tag_942\n      jumpi\n        /* \"PoolPandoras.sol\":10386:10401  InvalidAmount() */\n      mload(0x40)\n      shl(0xe1, 0x162908e3)\n      dup2\n      mstore\n      0x04\n      add\n      mload(0x40)\n      dup1\n      swap2\n      sub\n      swap1\n      revert\n        /* \"PoolPandoras.sol\":10365:10401  if (amt == 0) revert InvalidAmount() */\n    tag_942:\n        /* \"PoolPandoras.sol\":10441:10450  maxCapETH */\n      sload(0x03)\n        /* \"PoolPandoras.sol\":10435:10438  amt */\n      dup2\n        /* \"PoolPandoras.sol\":10415:10432  totalDepositedETH */\n      sload(0x0f)\n        /* \"PoolPandoras.sol\":10415:10438  totalDepositedETH + amt */\n      tag_943\n      swap2\n      swap1\n      tag_487\n      jump\t// in\n    tag_943:\n        /* \"PoolPandoras.sol\":10415:10450  totalDepositedETH + amt > maxCapETH */\n      gt\n        /* \"PoolPandoras.sol\":10411:10471  if (totalDepositedETH + amt > maxCapETH) revert CapReached() */\n      iszero\n      tag_944\n      jumpi\n        /* \"PoolPandoras.sol\":10459:10471  CapReached() */\n      mload(0x40)\n      shl(0xe1, 0x6bf4c8e9)\n      dup2\n      mstore\n      0x04\n      add\n      mload(0x40)\n      dup1\n      swap2\n      sub\n      swap1\n      revert\n        /* \"PoolPandoras.sol\":10411:10471  if (totalDepositedETH + amt > maxCapETH) revert CapReached() */\n    tag_944:\n        /* \"PoolPandoras.sol\":10485:10501  whitelistEnabled */\n      sload(0x05)\n      0x010000\n      swap1\n      div\n      0xff\n      and\n        /* \"PoolPandoras.sol\":10485:10533  whitelistEnabled && !isWhitelisted[_msgSender()] */\n      dup1\n      iszero\n      tag_945\n      jumpi\n      pop\n        /* \"PoolPandoras.sol\":10506:10519  isWhitelisted */\n      0x07\n        /* \"PoolPandoras.sol\":10506:10533  isWhitelisted[_msgSender()] */\n      0x00\n        /* \"PoolPandoras.sol\":10520:10532  _msgSender() */\n      tag_946\n        /* \"PoolPandoras.sol\":10520:10530  _msgSender */\n      tag_473\n        /* \"PoolPandoras.sol\":10520:10532  _msgSender() */\n      jump\t// in\n    tag_946:\n      sub(shl(0xa0, 0x01), 0x01)\n        /* \"PoolPandoras.sol\":10506:10533  isWhitelisted[_msgSender()] */\n      and\n      dup2\n      mstore\n      0x20\n      dup2\n      add\n      swap2\n      swap1\n      swap2\n      mstore\n      0x40\n      add\n      0x00\n      keccak256\n      sload\n      0xff\n      and\n        /* \"PoolPandoras.sol\":10505:10533  !isWhitelisted[_msgSender()] */\n      iszero\n        /* \"PoolPandoras.sol\":10485:10533  whitelistEnabled && !isWhitelisted[_msgSender()] */\n    tag_945:\n        /* \"PoolPandoras.sol\":10481:10558  if (whitelistEnabled && !isWhitelisted[_msgSender()]) revert NotWhitelisted() */\n      iszero\n      tag_947\n      jumpi\n        /* \"PoolPandoras.sol\":10542:10558  NotWhitelisted() */\n      mload(0x40)\n      shl(0xe3, 0x0b094f27)\n      dup2\n      mstore\n      0x04\n      add\n      mload(0x40)\n      dup1\n      swap2\n      sub\n      swap1\n      revert\n        /* \"PoolPandoras.sol\":10481:10558  if (whitelistEnabled && !isWhitelisted[_msgSender()]) revert NotWhitelisted() */\n    tag_947:\n        /* \"PoolPandoras.sol\":10569:10626  _registerDeposit(_msgSender(), TokenType.ETH, amt, false) */\n      tag_948\n        /* \"PoolPandoras.sol\":10586:10598  _msgSender() */\n      tag_949\n        /* \"PoolPandoras.sol\":10586:10596  _msgSender */\n      tag_473\n        /* \"PoolPandoras.sol\":10586:10598  _msgSender() */\n      jump\t// in\n    tag_949:\n        /* \"PoolPandoras.sol\":10600:10613  TokenType.ETH */\n      0x00\n        /* \"PoolPandoras.sol\":10615:10618  amt */\n      dup4\n        /* \"PoolPandoras.sol\":10620:10625  false */\n      0x00\n        /* \"PoolPandoras.sol\":10569:10585  _registerDeposit */\n      tag_485\n        /* \"PoolPandoras.sol\":10569:10626  _registerDeposit(_msgSender(), TokenType.ETH, amt, false) */\n      jump\t// in\n    tag_948:\n        /* \"PoolPandoras.sol\":10657:10660  amt */\n      dup1\n        /* \"PoolPandoras.sol\":10636:10653  totalDepositedETH */\n      0x0f\n      0x00\n        /* \"PoolPandoras.sol\":10636:10660  totalDepositedETH += amt */\n      dup3\n      dup3\n      sload\n      tag_950\n      swap2\n      swap1\n      tag_487\n      jump\t// in\n    tag_950:\n      swap1\n      swap2\n      sstore\n      pop\n      pop\n        /* \"@openzeppelin/contracts/utils/ReentrancyGuard.sol\":1857:1858   */\n      0x01\n        /* \"@openzeppelin/contracts/utils/ReentrancyGuard.sol\":3068:3089   */\n      dup1\n      sstore\n      pop\n        /* \"PoolPandoras.sol\":20897:21342  function reinvestUtilityETH() external nonReentrant {... */\n      jump\t// out\n        /* \"PoolPandoras.sol\":10673:11154  function depositUSDC(uint256 amount) external nonReentrant whenDepositsNotPaused {... */\n    tag_447:\n        /* \"@openzeppelin/contracts/utils/ReentrancyGuard.sol\":2500:2521   */\n      tag_953\n        /* \"@openzeppelin/contracts/utils/ReentrancyGuard.sol\":2500:2519   */\n      tag_466\n        /* \"@openzeppelin/contracts/utils/ReentrancyGuard.sol\":2500:2521   */\n      jump\t// in\n    tag_953:\n        /* \"PoolPandoras.sol\":5334:5348  pausedDeposits */\n      and(0xff, sload(0x05))\n        /* \"PoolPandoras.sol\":5330:5373  if (pausedDeposits) revert DepositsPaused() */\n      iszero\n      tag_955\n      jumpi\n        /* \"PoolPandoras.sol\":5357:5373  DepositsPaused() */\n      mload(0x40)\n      shl(0xe0, 0xdeeb6943)\n      dup2\n      mstore\n      0x04\n      add\n      mload(0x40)\n      dup1\n      swap2\n      sub\n      swap1\n      revert\n        /* \"PoolPandoras.sol\":5330:5373  if (pausedDeposits) revert DepositsPaused() */\n    tag_955:\n        /* \"PoolPandoras.sol\":10768:10774  amount */\n      dup1\n        /* \"PoolPandoras.sol\":10778:10779  0 */\n      0x00\n        /* \"PoolPandoras.sol\":10768:10779  amount == 0 */\n      sub\n        /* \"PoolPandoras.sol\":10764:10803  if (amount == 0) revert InvalidAmount() */\n      tag_957\n      jumpi\n        /* \"PoolPandoras.sol\":10788:10803  InvalidAmount() */\n      mload(0x40)\n      shl(0xe1, 0x162908e3)\n      dup2\n      mstore\n      0x04\n      add\n      mload(0x40)\n      dup1\n      swap2\n      sub\n      swap1\n      revert\n        /* \"PoolPandoras.sol\":10764:10803  if (amount == 0) revert InvalidAmount() */\n    tag_957:\n        /* \"PoolPandoras.sol\":10847:10857  maxCapUSDC */\n      sload(0x04)\n        /* \"PoolPandoras.sol\":10838:10844  amount */\n      dup2\n        /* \"PoolPandoras.sol\":10817:10835  totalDepositedUSDC */\n      sload(0x10)\n        /* \"PoolPandoras.sol\":10817:10844  totalDepositedUSDC + amount */\n      tag_958\n      swap2\n      swap1\n      tag_487\n      jump\t// in\n    tag_958:\n        /* \"PoolPandoras.sol\":10817:10857  totalDepositedUSDC + amount > maxCapUSDC */\n      gt\n        /* \"PoolPandoras.sol\":10813:10878  if (totalDepositedUSDC + amount > maxCapUSDC) revert CapReached() */\n      iszero\n      tag_959\n      jumpi\n        /* \"PoolPandoras.sol\":10866:10878  CapReached() */\n      mload(0x40)\n      shl(0xe1, 0x6bf4c8e9)\n      dup2\n      mstore\n      0x04\n      add\n      mload(0x40)\n      dup1\n      swap2\n      sub\n      swap1\n      revert\n        /* \"PoolPandoras.sol\":10813:10878  if (totalDepositedUSDC + amount > maxCapUSDC) revert CapReached() */\n    tag_959:\n        /* \"PoolPandoras.sol\":10892:10908  whitelistEnabled */\n      sload(0x05)\n      0x010000\n      swap1\n      div\n      0xff\n      and\n        /* \"PoolPandoras.sol\":10892:10940  whitelistEnabled && !isWhitelisted[_msgSender()] */\n      dup1\n      iszero\n      tag_960\n      jumpi\n      pop\n        /* \"PoolPandoras.sol\":10913:10926  isWhitelisted */\n      0x07\n        /* \"PoolPandoras.sol\":10913:10940  isWhitelisted[_msgSender()] */\n      0x00\n        /* \"PoolPandoras.sol\":10927:10939  _msgSender() */\n      tag_961\n        /* \"PoolPandoras.sol\":10927:10937  _msgSender */\n      tag_473\n        /* \"PoolPandoras.sol\":10927:10939  _msgSender() */\n      jump\t// in\n    tag_961:\n      sub(shl(0xa0, 0x01), 0x01)\n        /* \"PoolPandoras.sol\":10913:10940  isWhitelisted[_msgSender()] */\n      and\n      dup2\n      mstore\n      0x20\n      dup2\n      add\n      swap2\n      swap1\n      swap2\n      mstore\n      0x40\n      add\n      0x00\n      keccak256\n      sload\n      0xff\n      and\n        /* \"PoolPandoras.sol\":10912:10940  !isWhitelisted[_msgSender()] */\n      iszero\n        /* \"PoolPandoras.sol\":10892:10940  whitelistEnabled && !isWhitelisted[_msgSender()] */\n    tag_960:\n        /* \"PoolPandoras.sol\":10888:10965  if (whitelistEnabled && !isWhitelisted[_msgSender()]) revert NotWhitelisted() */\n      iszero\n      tag_962\n      jumpi\n        /* \"PoolPandoras.sol\":10949:10965  NotWhitelisted() */\n      mload(0x40)\n      shl(0xe3, 0x0b094f27)\n      dup2\n      mstore\n      0x04\n      add\n      mload(0x40)\n      dup1\n      swap2\n      sub\n      swap1\n      revert\n        /* \"PoolPandoras.sol\":10888:10965  if (whitelistEnabled && !isWhitelisted[_msgSender()]) revert NotWhitelisted() */\n    tag_962:\n        /* \"PoolPandoras.sol\":1229:1271  0x833589fCD6eDb6E08f4c7C32D4f71b54bdA02913 */\n      0x833589fcd6edb6e08f4c7c32d4f71b54bda02913\n        /* \"PoolPandoras.sol\":10976:11001  IERC20(USDC).transferFrom */\n      0x23b872dd\n        /* \"PoolPandoras.sol\":11002:11014  _msgSender() */\n      tag_963\n        /* \"PoolPandoras.sol\":11002:11012  _msgSender */\n      tag_473\n        /* \"PoolPandoras.sol\":11002:11014  _msgSender() */\n      jump\t// in\n    tag_963:\n        /* \"PoolPandoras.sol\":10976:11038  IERC20(USDC).transferFrom(_msgSender(), address(this), amount) */\n      mload(0x40)\n      not(sub(shl(0xe0, 0x01), 0x01))\n      0xe0\n      dup5\n      swap1\n      shl\n      and\n      dup2\n      mstore\n      sub(shl(0xa0, 0x01), 0x01)\n        /* \"#utility.yul\":13834:13849   */\n      swap1\n      swap2\n      and\n        /* \"PoolPandoras.sol\":10976:11038  IERC20(USDC).transferFrom(_msgSender(), address(this), amount) */\n      0x04\n      dup3\n      add\n        /* \"#utility.yul\":13816:13850   */\n      mstore\n        /* \"PoolPandoras.sol\":11024:11028  this */\n      address\n        /* \"#utility.yul\":13866:13884   */\n      0x24\n      dup3\n      add\n        /* \"#utility.yul\":13859:13902   */\n      mstore\n        /* \"#utility.yul\":13918:13936   */\n      0x44\n      dup2\n      add\n        /* \"#utility.yul\":13911:13945   */\n      dup5\n      swap1\n      mstore\n        /* \"#utility.yul\":13728:13746   */\n      0x64\n      add\n        /* \"PoolPandoras.sol\":10976:11038  IERC20(USDC).transferFrom(_msgSender(), address(this), amount) */\n      0x20\n      mload(0x40)\n      dup1\n      dup4\n      sub\n      dup2\n      0x00\n      dup8\n      gas\n      call\n      iszero\n      dup1\n      iszero\n      tag_966\n      jumpi\n      returndatasize\n      0x00\n      dup1\n      returndatacopy\n      revert(0x00, returndatasize)\n    tag_966:\n      pop\n      pop\n      pop\n      pop\n      mload(0x40)\n      returndatasize\n      not(0x1f)\n      0x1f\n      dup3\n      add\n      and\n      dup3\n      add\n      dup1\n      0x40\n      mstore\n      pop\n      dup2\n      add\n      swap1\n      tag_967\n      swap2\n      swap1\n      tag_543\n      jump\t// in\n    tag_967:\n      pop\n        /* \"PoolPandoras.sol\":11048:11109  _registerDeposit(_msgSender(), TokenType.USDC, amount, false) */\n      tag_968\n        /* \"PoolPandoras.sol\":11065:11077  _msgSender() */\n      tag_969\n        /* \"PoolPandoras.sol\":11065:11075  _msgSender */\n      tag_473\n        /* \"PoolPandoras.sol\":11065:11077  _msgSender() */\n      jump\t// in\n    tag_969:\n        /* \"PoolPandoras.sol\":11079:11093  TokenType.USDC */\n      0x01\n        /* \"PoolPandoras.sol\":11095:11101  amount */\n      dup4\n        /* \"PoolPandoras.sol\":11103:11108  false */\n      0x00\n        /* \"PoolPandoras.sol\":11048:11064  _registerDeposit */\n      tag_485\n        /* \"PoolPandoras.sol\":11048:11109  _registerDeposit(_msgSender(), TokenType.USDC, amount, false) */\n      jump\t// in\n    tag_968:\n        /* \"PoolPandoras.sol\":11141:11147  amount */\n      dup1\n        /* \"PoolPandoras.sol\":11119:11137  totalDepositedUSDC */\n      0x10\n      0x00\n        /* \"PoolPandoras.sol\":11119:11147  totalDepositedUSDC += amount */\n      dup3\n      dup3\n      sload\n      tag_950\n      swap2\n      swap1\n      tag_487\n      jump\t// in\n        /* \"@openzeppelin/contracts/access/AccessControl.sol\":3175:3278   */\n    tag_458:\n        /* \"@openzeppelin/contracts/access/AccessControl.sol\":3241:3271   */\n      tag_476\n        /* \"@openzeppelin/contracts/access/AccessControl.sol\":3252:3256   */\n      dup2\n        /* \"@openzeppelin/contracts/access/AccessControl.sol\":3258:3270   */\n      tag_975\n        /* \"@openzeppelin/contracts/access/AccessControl.sol\":3258:3268   */\n      tag_473\n        /* \"@openzeppelin/contracts/access/AccessControl.sol\":3258:3270   */\n      jump\t// in\n    tag_975:\n        /* \"@openzeppelin/contracts/access/AccessControl.sol\":3241:3251   */\n      tag_976\n        /* \"@openzeppelin/contracts/access/AccessControl.sol\":3241:3271   */\n      jump\t// in\n        /* \"@openzeppelin/contracts/utils/ReentrancyGuard.sol\":2575:2882   */\n    tag_466:\n        /* \"@openzeppelin/contracts/utils/ReentrancyGuard.sol\":1899:1900   */\n      0x02\n        /* \"@openzeppelin/contracts/utils/ReentrancyGuard.sol\":2702:2709   */\n      sload(0x01)\n        /* \"@openzeppelin/contracts/utils/ReentrancyGuard.sol\":2702:2720   */\n      sub\n        /* \"@openzeppelin/contracts/utils/ReentrancyGuard.sol\":2698:2784   */\n      tag_978\n      jumpi\n        /* \"@openzeppelin/contracts/utils/ReentrancyGuard.sol\":2743:2773   */\n      mload(0x40)\n      shl(0xe0, 0x3ee5aeb5)\n      dup2\n      mstore\n      0x04\n      add\n      mload(0x40)\n      dup1\n      swap2\n      sub\n      swap1\n      revert\n        /* \"@openzeppelin/contracts/utils/ReentrancyGuard.sol\":2698:2784   */\n    tag_978:\n        /* \"@openzeppelin/contracts/utils/ReentrancyGuard.sol\":1899:1900   */\n      0x02\n        /* \"@openzeppelin/contracts/utils/ReentrancyGuard.sol\":2858:2865   */\n      0x01\n        /* \"@openzeppelin/contracts/utils/ReentrancyGuard.sol\":2858:2875   */\n      sstore\n        /* \"@openzeppelin/contracts/utils/ReentrancyGuard.sol\":2575:2882   */\n      jump\t// out\n        /* \"PoolPandoras.sol\":6372:6518  function _msgSender() internal view override(Context, ERC2771Context) returns (address sender) {... */\n    tag_473:\n        /* \"PoolPandoras.sol\":6451:6465  address sender */\n      0x00\n        /* \"PoolPandoras.sol\":6484:6511  ERC2771Context._msgSender() */\n      tag_980\n        /* \"PoolPandoras.sol\":6484:6509  ERC2771Context._msgSender */\n      tag_981\n        /* \"PoolPandoras.sol\":6484:6511  ERC2771Context._msgSender() */\n      jump\t// in\n    tag_980:\n        /* \"PoolPandoras.sol\":6477:6511  return ERC2771Context._msgSender() */\n      swap1\n      pop\n        /* \"PoolPandoras.sol\":6372:6518  function _msgSender() internal view override(Context, ERC2771Context) returns (address sender) {... */\n      swap1\n      jump\t// out\n        /* \"PoolPandoras.sol\":11160:11932  function _registerDeposit(address user, TokenType token, uint256 amount, bool isReinvestment) internal {... */\n    tag_485:\n        /* \"PoolPandoras.sol\":11273:11284  uint8 flags */\n      0x00\n        /* \"PoolPandoras.sol\":11298:11312  isReinvestment */\n      dup2\n        /* \"PoolPandoras.sol\":11294:11363  if (isReinvestment) {... */\n      iszero\n      tag_984\n      jumpi\n        /* \"PoolPandoras.sol\":11345:11351  1 << 3 */\n      0x08\n        /* \"PoolPandoras.sol\":11336:11352  flags | (1 << 3) */\n      or\n        /* \"PoolPandoras.sol\":11294:11363  if (isReinvestment) {... */\n    tag_984:\n        /* \"PoolPandoras.sol\":11373:11385  userDeposits */\n      0x06\n        /* \"PoolPandoras.sol\":11373:11391  userDeposits[user] */\n      0x00\n        /* \"PoolPandoras.sol\":11386:11390  user */\n      dup7\n      sub(shl(0xa0, 0x01), 0x01)\n        /* \"PoolPandoras.sol\":11373:11391  userDeposits[user] */\n      and\n      sub(shl(0xa0, 0x01), 0x01)\n      and\n      dup2\n      mstore\n      0x20\n      add\n      swap1\n      dup2\n      mstore\n      0x20\n      add\n      0x00\n      keccak256\n        /* \"PoolPandoras.sol\":11397:11614  DepositInfo({... */\n      mload(0x40)\n      dup1\n      0xc0\n      add\n      0x40\n      mstore\n      dup1\n        /* \"PoolPandoras.sol\":11438:11444  amount */\n      dup6\n      sub(shl(0x60, 0x01), 0x01)\n        /* \"PoolPandoras.sol\":11397:11614  DepositInfo({... */\n      and\n      dup2\n      mstore\n      0x20\n      add\n        /* \"PoolPandoras.sol\":11474:11475  0 */\n      0x00\n      sub(shl(0x60, 0x01), 0x01)\n        /* \"PoolPandoras.sol\":11397:11614  DepositInfo({... */\n      and\n      dup2\n      mstore\n      0x20\n      add\n        /* \"PoolPandoras.sol\":11507:11522  block.timestamp */\n      timestamp\n        /* \"PoolPandoras.sol\":11397:11614  DepositInfo({... */\n      0xffffffffffff\n      and\n      dup2\n      mstore\n      0x20\n      add\n        /* \"PoolPandoras.sol\":11550:11551  0 */\n      0x00\n        /* \"PoolPandoras.sol\":11397:11614  DepositInfo({... */\n      0xffffffffffff\n      and\n      dup2\n      mstore\n      0x20\n      add\n        /* \"PoolPandoras.sol\":11572:11577  token */\n      dup7\n        /* \"PoolPandoras.sol\":11397:11614  DepositInfo({... */\n      0x01\n      dup2\n      gt\n      iszero\n      tag_986\n      jumpi\n      tag_986\n      tag_497\n      jump\t// in\n    tag_986:\n      dup2\n      mstore\n      0xff\n      dup5\n      and\n      0x20\n      swap2\n      dup3\n      add\n      mstore\n        /* \"PoolPandoras.sol\":11373:11615  userDeposits[user].push(DepositInfo({... */\n      dup3\n      sload\n      0x01\n      dup2\n      dup2\n      add\n      dup6\n      sstore\n      0x00\n      swap5\n      dup6\n      mstore\n      swap4\n      dup3\n      swap1\n      keccak256\n      dup4\n      mload\n      0x02\n      swap1\n      swap3\n      mul\n      add\n      dup1\n      sload\n      swap3\n      dup5\n      add\n      mload\n      0x40\n      dup6\n      add\n      mload\n      0xffffffffffff\n      swap1\n      dup2\n      and\n      shl(0xc0, 0x01)\n      mul\n      0xffff000000000000ffffffffffffffffffffffffffffffffffffffffffffffff\n      sub(shl(0x60, 0x01), 0x01)\n      swap4\n      dup5\n      and\n      shl(0x60, 0x01)\n      mul\n      0xffffffffffffffff000000000000000000000000000000000000000000000000\n      swap1\n      swap8\n      and\n      swap4\n      swap1\n      swap6\n      and\n      swap3\n      swap1\n      swap3\n      or\n      swap5\n      swap1\n      swap5\n      or\n      swap3\n      swap1\n      swap3\n      and\n      swap2\n      swap1\n      swap2\n      or\n      dup2\n      sstore\n      0x60\n      dup4\n      add\n      mload\n      dup2\n      dup6\n      add\n      dup1\n      sload\n      swap2\n      swap1\n      swap4\n      and\n      not(0xffffffffffff)\n      dup3\n      and\n      dup2\n      or\n      dup5\n      sstore\n      0x80\n      dup6\n      add\n      mload\n      swap5\n      swap6\n      swap3\n      swap5\n      swap4\n      swap3\n      not(0xffffffffffffff)\n      swap1\n      swap3\n      and\n      or\n      swap1\n      0x01000000000000\n      swap1\n      dup5\n      swap1\n      dup2\n      gt\n      iszero\n      tag_989\n      jumpi\n      tag_989\n      tag_497\n      jump\t// in\n    tag_989:\n      mul\n      or\n      swap1\n      sstore\n      pop\n      0xa0\n      swap2\n      swap1\n      swap2\n      add\n      mload\n      0x01\n      swap1\n      swap2\n      add\n      dup1\n      sload\n      not(0xff00000000000000)\n      and\n      shl(0x38, 0x01)\n      0xff\n      swap4\n      dup5\n      and\n      mul\n      or\n      swap1\n      sstore\n      sub(shl(0xa0, 0x01), 0x01)\n        /* \"PoolPandoras.sol\":11631:11653  isKnownDepositor[user] */\n      dup7\n      and\n      0x00\n      swap1\n      dup2\n      mstore\n        /* \"PoolPandoras.sol\":11631:11647  isKnownDepositor */\n      0x0d\n        /* \"PoolPandoras.sol\":11631:11653  isKnownDepositor[user] */\n      0x20\n      mstore\n      0x40\n      swap1\n      keccak256\n      sload\n      and\n        /* \"PoolPandoras.sol\":11626:11819  if (!isKnownDepositor[user]) {... */\n      tag_990\n      jumpi\n      sub(shl(0xa0, 0x01), 0x01)\n        /* \"PoolPandoras.sol\":11669:11691  isKnownDepositor[user] */\n      dup6\n      and\n      0x00\n      swap1\n      dup2\n      mstore\n        /* \"PoolPandoras.sol\":11669:11685  isKnownDepositor */\n      0x0d\n        /* \"PoolPandoras.sol\":11669:11691  isKnownDepositor[user] */\n      0x20\n      mstore\n      0x40\n      swap1\n      keccak256\n        /* \"PoolPandoras.sol\":11669:11698  isKnownDepositor[user] = true */\n      dup1\n      sload\n      not(0xff)\n      and\n        /* \"PoolPandoras.sol\":11694:11698  true */\n      0x01\n        /* \"PoolPandoras.sol\":11669:11698  isKnownDepositor[user] = true */\n      or\n      swap1\n      sstore\n        /* \"PoolPandoras.sol\":11626:11819  if (!isKnownDepositor[user]) {... */\n    tag_990:\n      sub(shl(0xa0, 0x01), 0x01)\n        /* \"PoolPandoras.sol\":11833:11925  Deposit(user, token, amount, block.timestamp, userDeposits[user].length - 1, isReinvestment) */\n      dup6\n      and\n        /* \"PoolPandoras.sol\":11879:11897  userDeposits[user] */\n      0x00\n      dup2\n      dup2\n      mstore\n        /* \"PoolPandoras.sol\":11879:11891  userDeposits */\n      0x06\n        /* \"PoolPandoras.sol\":11879:11897  userDeposits[user] */\n      0x20\n      mstore\n      0x40\n      swap1\n      keccak256\n        /* \"PoolPandoras.sol\":11879:11904  userDeposits[user].length */\n      sload\n        /* \"PoolPandoras.sol\":11833:11925  Deposit(user, token, amount, block.timestamp, userDeposits[user].length - 1, isReinvestment) */\n      0x48916ac7f9777648255ab8645729ff3b5d20aa412a40fe81dac2433522eaa058\n      swap1\n        /* \"PoolPandoras.sol\":11847:11852  token */\n      dup7\n      swap1\n        /* \"PoolPandoras.sol\":11854:11860  amount */\n      dup7\n      swap1\n        /* \"PoolPandoras.sol\":11862:11877  block.timestamp */\n      timestamp\n      swap1\n        /* \"PoolPandoras.sol\":11879:11908  userDeposits[user].length - 1 */\n      tag_991\n      swap1\n        /* \"PoolPandoras.sol\":11907:11908  1 */\n      0x01\n      swap1\n        /* \"PoolPandoras.sol\":11879:11908  userDeposits[user].length - 1 */\n      tag_471\n      jump\t// in\n    tag_991:\n        /* \"PoolPandoras.sol\":11910:11924  isReinvestment */\n      dup8\n        /* \"PoolPandoras.sol\":11833:11925  Deposit(user, token, amount, block.timestamp, userDeposits[user].length - 1, isReinvestment) */\n      mload(0x40)\n      tag_992\n      swap6\n      swap5\n      swap4\n      swap3\n      swap2\n      swap1\n      tag_993\n      jump\t// in\n    tag_992:\n      mload(0x40)\n      dup1\n      swap2\n      sub\n      swap1\n      log2\n        /* \"PoolPandoras.sol\":11263:11932  {... */\n      pop\n        /* \"PoolPandoras.sol\":11160:11932  function _registerDeposit(address user, TokenType token, uint256 amount, bool isReinvestment) internal {... */\n      pop\n      pop\n      pop\n      pop\n      jump\t// out\n        /* \"@openzeppelin/contracts/access/AccessControl.sol\":6155:6471   */\n    tag_554:\n        /* \"@openzeppelin/contracts/access/AccessControl.sol\":6232:6236   */\n      0x00\n        /* \"@openzeppelin/contracts/access/AccessControl.sol\":2930:2942   */\n      dup3\n      dup2\n      mstore\n      0x20\n      dup2\n      dup2\n      mstore\n      0x40\n      dup1\n      dup4\n      keccak256\n      sub(shl(0xa0, 0x01), 0x01)\n        /* \"@openzeppelin/contracts/access/AccessControl.sol\":2930:2959   */\n      dup6\n      and\n      dup5\n      mstore\n      swap1\n      swap2\n      mstore\n      dup2\n      keccak256\n      sload\n      0xff\n      and\n        /* \"@openzeppelin/contracts/access/AccessControl.sol\":6248:6465   */\n      tag_999\n      jumpi\n        /* \"@openzeppelin/contracts/access/AccessControl.sol\":6291:6297   */\n      0x00\n        /* \"@openzeppelin/contracts/access/AccessControl.sol\":6291:6303   */\n      dup4\n      dup2\n      mstore\n      0x20\n      dup2\n      dup2\n      mstore\n      0x40\n      dup1\n      dup4\n      keccak256\n      sub(shl(0xa0, 0x01), 0x01)\n        /* \"@openzeppelin/contracts/access/AccessControl.sol\":6291:6320   */\n      dup7\n      and\n      dup5\n      mstore\n      swap1\n      swap2\n      mstore\n      swap1\n      keccak256\n        /* \"@openzeppelin/contracts/access/AccessControl.sol\":6291:6327   */\n      dup1\n      sload\n      not(0xff)\n      and\n        /* \"@openzeppelin/contracts/access/AccessControl.sol\":6323:6327   */\n      0x01\n        /* \"@openzeppelin/contracts/access/AccessControl.sol\":6291:6327   */\n      or\n      swap1\n      sstore\n        /* \"@openzeppelin/contracts/access/AccessControl.sol\":6373:6385   */\n      tag_1000\n        /* \"@openzeppelin/contracts/access/AccessControl.sol\":6373:6383   */\n      tag_473\n        /* \"@openzeppelin/contracts/access/AccessControl.sol\":6373:6385   */\n      jump\t// in\n    tag_1000:\n      sub(shl(0xa0, 0x01), 0x01)\n        /* \"@openzeppelin/contracts/access/AccessControl.sol\":6346:6386   */\n      and\n        /* \"@openzeppelin/contracts/access/AccessControl.sol\":6364:6371   */\n      dup3\n      sub(shl(0xa0, 0x01), 0x01)\n        /* \"@openzeppelin/contracts/access/AccessControl.sol\":6346:6386   */\n      and\n        /* \"@openzeppelin/contracts/access/AccessControl.sol\":6358:6362   */\n      dup5\n        /* \"@openzeppelin/contracts/access/AccessControl.sol\":6346:6386   */\n      0x2f8788117e7eff1d82e926ec794901d17c78024a50270940304540a733656f0d\n      mload(0x40)\n      mload(0x40)\n      dup1\n      swap2\n      sub\n      swap1\n      log4\n      pop\n        /* \"@openzeppelin/contracts/access/AccessControl.sol\":6407:6411   */\n      0x01\n        /* \"@openzeppelin/contracts/access/AccessControl.sol\":6400:6411   */\n      jump(tag_454)\n        /* \"@openzeppelin/contracts/access/AccessControl.sol\":6248:6465   */\n    tag_999:\n      pop\n        /* \"@openzeppelin/contracts/access/AccessControl.sol\":6449:6454   */\n      0x00\n        /* \"@openzeppelin/contracts/access/AccessControl.sol\":6442:6454   */\n      jump(tag_454)\n        /* \"@openzeppelin/contracts/access/AccessControl.sol\":6708:7025   */\n    tag_559:\n        /* \"@openzeppelin/contracts/access/AccessControl.sol\":6786:6790   */\n      0x00\n        /* \"@openzeppelin/contracts/access/AccessControl.sol\":2930:2942   */\n      dup3\n      dup2\n      mstore\n      0x20\n      dup2\n      dup2\n      mstore\n      0x40\n      dup1\n      dup4\n      keccak256\n      sub(shl(0xa0, 0x01), 0x01)\n        /* \"@openzeppelin/contracts/access/AccessControl.sol\":2930:2959   */\n      dup6\n      and\n      dup5\n      mstore\n      swap1\n      swap2\n      mstore\n      dup2\n      keccak256\n      sload\n      0xff\n      and\n        /* \"@openzeppelin/contracts/access/AccessControl.sol\":6802:7019   */\n      iszero\n      tag_999\n      jumpi\n        /* \"@openzeppelin/contracts/access/AccessControl.sol\":6876:6881   */\n      0x00\n        /* \"@openzeppelin/contracts/access/AccessControl.sol\":6844:6856   */\n      dup4\n      dup2\n      mstore\n      0x20\n      dup2\n      dup2\n      mstore\n      0x40\n      dup1\n      dup4\n      keccak256\n      sub(shl(0xa0, 0x01), 0x01)\n        /* \"@openzeppelin/contracts/access/AccessControl.sol\":6844:6873   */\n      dup7\n      and\n      dup5\n      mstore\n      swap1\n      swap2\n      mstore\n      swap1\n      keccak256\n        /* \"@openzeppelin/contracts/access/AccessControl.sol\":6844:6881   */\n      dup1\n      sload\n      not(0xff)\n      and\n      swap1\n      sstore\n        /* \"@openzeppelin/contracts/access/AccessControl.sol\":6927:6939   */\n      tag_1005\n        /* \"@openzeppelin/contracts/access/AccessControl.sol\":6927:6937   */\n      tag_473\n        /* \"@openzeppelin/contracts/access/AccessControl.sol\":6927:6939   */\n      jump\t// in\n    tag_1005:\n      sub(shl(0xa0, 0x01), 0x01)\n        /* \"@openzeppelin/contracts/access/AccessControl.sol\":6900:6940   */\n      and\n        /* \"@openzeppelin/contracts/access/AccessControl.sol\":6918:6925   */\n      dup3\n      sub(shl(0xa0, 0x01), 0x01)\n        /* \"@openzeppelin/contracts/access/AccessControl.sol\":6900:6940   */\n      and\n        /* \"@openzeppelin/contracts/access/AccessControl.sol\":6912:6916   */\n      dup5\n        /* \"@openzeppelin/contracts/access/AccessControl.sol\":6900:6940   */\n      0xf6391f5c32d9c69d2a47ea670b442974b53935d1edc7fd64eb21e047a839171b\n      mload(0x40)\n      mload(0x40)\n      dup1\n      swap2\n      sub\n      swap1\n      log4\n      pop\n        /* \"@openzeppelin/contracts/access/AccessControl.sol\":6961:6965   */\n      0x01\n        /* \"@openzeppelin/contracts/access/AccessControl.sol\":6954:6965   */\n      jump(tag_454)\n        /* \"@openzeppelin/contracts/access/AccessControl.sol\":3408:3605   */\n    tag_976:\n        /* \"@openzeppelin/contracts/access/AccessControl.sol\":2907:2911   */\n      0x00\n        /* \"@openzeppelin/contracts/access/AccessControl.sol\":2930:2942   */\n      dup3\n      dup2\n      mstore\n      0x20\n      dup2\n      dup2\n      mstore\n      0x40\n      dup1\n      dup4\n      keccak256\n      sub(shl(0xa0, 0x01), 0x01)\n        /* \"@openzeppelin/contracts/access/AccessControl.sol\":2930:2959   */\n      dup6\n      and\n      dup5\n      mstore\n      swap1\n      swap2\n      mstore\n      swap1\n      keccak256\n      sload\n      0xff\n      and\n        /* \"@openzeppelin/contracts/access/AccessControl.sol\":3491:3599   */\n      tag_648\n      jumpi\n        /* \"@openzeppelin/contracts/access/AccessControl.sol\":3541:3588   */\n      mload(0x40)\n      shl(0xe0, 0xe2517d3f)\n      dup2\n      mstore\n      sub(shl(0xa0, 0x01), 0x01)\n        /* \"#utility.yul\":12694:12749   */\n      dup3\n      and\n        /* \"@openzeppelin/contracts/access/AccessControl.sol\":3541:3588   */\n      0x04\n      dup3\n      add\n        /* \"#utility.yul\":12676:12750   */\n      mstore\n        /* \"#utility.yul\":12766:12784   */\n      0x24\n      dup2\n      add\n        /* \"#utility.yul\":12759:12793   */\n      dup4\n      swap1\n      mstore\n        /* \"#utility.yul\":12649:12667   */\n      0x44\n      add\n        /* \"@openzeppelin/contracts/access/AccessControl.sol\":3541:3588   */\n      mload(0x40)\n      dup1\n      swap2\n      sub\n      swap1\n      revert\n        /* \"@openzeppelin/contracts/metatx/ERC2771Context.sol\":2206:2677   */\n    tag_981:\n        /* \"@openzeppelin/contracts/metatx/ERC2771Context.sol\":2268:2275   */\n      0x00\n        /* \"@openzeppelin/contracts/metatx/ERC2771Context.sol\":2312:2320   */\n      calldatasize\n        /* \"@openzeppelin/contracts/metatx/ERC2771Context.sol\":3567:3569   */\n      0x14\n        /* \"@openzeppelin/contracts/metatx/ERC2771Context.sol\":2403:2440   */\n      dup1\n      dup3\n      lt\n      dup1\n      iszero\n      swap1\n        /* \"@openzeppelin/contracts/metatx/ERC2771Context.sol\":2403:2474   */\n      tag_1016\n      jumpi\n      pop\n        /* \"@openzeppelin/contracts/metatx/ERC2771Context.sol\":1707:1724   */\n      immutable(\"0x9c48eb4d6dc530eaebd0f3a44ad308cfb11d94508e17428616734d2b6609a4de\")\n      sub(shl(0xa0, 0x01), 0x01)\n        /* \"@openzeppelin/contracts/metatx/ERC2771Context.sol\":1931:1962   */\n      and\n        /* \"@openzeppelin/contracts/metatx/ERC2771Context.sol\":2463:2473   */\n      caller\n        /* \"@openzeppelin/contracts/metatx/ERC2771Context.sol\":1931:1962   */\n      eq\n        /* \"@openzeppelin/contracts/metatx/ERC2771Context.sol\":2444:2474   */\n    tag_1016:\n        /* \"@openzeppelin/contracts/metatx/ERC2771Context.sol\":2399:2671   */\n      iszero\n      tag_1017\n      jumpi\n        /* \"@openzeppelin/contracts/metatx/ERC2771Context.sol\":2541:2588   */\n      tag_1018\n        /* \"@openzeppelin/contracts/metatx/ERC2771Context.sol\":2541:2549   */\n      calldatasize\n        /* \"@openzeppelin/contracts/metatx/ERC2771Context.sol\":2550:2586   */\n      dup3\n      dup5\n      sub\n        /* \"@openzeppelin/contracts/metatx/ERC2771Context.sol\":2541:2549   */\n      dup2\n      0x00\n        /* \"@openzeppelin/contracts/metatx/ERC2771Context.sol\":2541:2588   */\n      tag_1019\n      jump\t// in\n    tag_1018:\n        /* \"@openzeppelin/contracts/metatx/ERC2771Context.sol\":2533:2589   */\n      tag_1020\n      swap2\n      tag_1021\n      jump\t// in\n    tag_1020:\n        /* \"@openzeppelin/contracts/metatx/ERC2771Context.sol\":2525:2590   */\n      0x60\n      shr\n        /* \"@openzeppelin/contracts/metatx/ERC2771Context.sol\":2518:2590   */\n      swap3\n      pop\n      pop\n      pop\n        /* \"@openzeppelin/contracts/metatx/ERC2771Context.sol\":2206:2677   */\n      swap1\n      jump\t// out\n        /* \"@openzeppelin/contracts/metatx/ERC2771Context.sol\":2399:2671   */\n    tag_1017:\n        /* \"@openzeppelin/contracts/utils/Context.sol\":735:745   */\n      caller\n        /* \"@openzeppelin/contracts/metatx/ERC2771Context.sol\":2635:2660   */\n      swap3\n      pop\n      pop\n      pop\n        /* \"@openzeppelin/contracts/metatx/ERC2771Context.sol\":2206:2677   */\n      swap1\n      jump\t// out\n        /* \"#utility.yul\":14:300   */\n    tag_115:\n        /* \"#utility.yul\":72:78   */\n      0x00\n        /* \"#utility.yul\":125:127   */\n      0x20\n        /* \"#utility.yul\":113:122   */\n      dup3\n        /* \"#utility.yul\":104:111   */\n      dup5\n        /* \"#utility.yul\":100:123   */\n      sub\n        /* \"#utility.yul\":96:128   */\n      slt\n        /* \"#utility.yul\":93:145   */\n      iszero\n      tag_1038\n      jumpi\n        /* \"#utility.yul\":141:142   */\n      0x00\n        /* \"#utility.yul\":138:139   */\n      dup1\n        /* \"#utility.yul\":131:143   */\n      revert\n        /* \"#utility.yul\":93:145   */\n    tag_1038:\n        /* \"#utility.yul\":167:190   */\n      dup2\n      calldataload\n      not(sub(shl(0xe0, 0x01), 0x01))\n        /* \"#utility.yul\":219:251   */\n      dup2\n      and\n        /* \"#utility.yul\":209:252   */\n      dup2\n      eq\n        /* \"#utility.yul\":199:270   */\n      tag_1039\n      jumpi\n        /* \"#utility.yul\":266:267   */\n      0x00\n        /* \"#utility.yul\":263:264   */\n      dup1\n        /* \"#utility.yul\":256:268   */\n      revert\n        /* \"#utility.yul\":199:270   */\n    tag_1039:\n        /* \"#utility.yul\":289:294   */\n      swap4\n        /* \"#utility.yul\":14:300   */\n      swap3\n      pop\n      pop\n      pop\n      jump\t// out\n        /* \"#utility.yul\":497:693   */\n    tag_1030:\n        /* \"#utility.yul\":565:585   */\n      dup1\n      calldataload\n      sub(shl(0xa0, 0x01), 0x01)\n        /* \"#utility.yul\":614:668   */\n      dup2\n      and\n        /* \"#utility.yul\":604:669   */\n      dup2\n      eq\n        /* \"#utility.yul\":594:687   */\n      tag_1042\n      jumpi\n        /* \"#utility.yul\":683:684   */\n      0x00\n        /* \"#utility.yul\":680:681   */\n      dup1\n        /* \"#utility.yul\":673:685   */\n      revert\n        /* \"#utility.yul\":594:687   */\n    tag_1042:\n        /* \"#utility.yul\":497:693   */\n      swap2\n      swap1\n      pop\n      jump\t// out\n        /* \"#utility.yul\":698:884   */\n    tag_122:\n        /* \"#utility.yul\":757:763   */\n      0x00\n        /* \"#utility.yul\":810:812   */\n      0x20\n        /* \"#utility.yul\":798:807   */\n      dup3\n        /* \"#utility.yul\":789:796   */\n      dup5\n        /* \"#utility.yul\":785:808   */\n      sub\n        /* \"#utility.yul\":781:813   */\n      slt\n        /* \"#utility.yul\":778:830   */\n      iszero\n      tag_1044\n      jumpi\n        /* \"#utility.yul\":826:827   */\n      0x00\n        /* \"#utility.yul\":823:824   */\n      dup1\n        /* \"#utility.yul\":816:828   */\n      revert\n        /* \"#utility.yul\":778:830   */\n    tag_1044:\n        /* \"#utility.yul\":849:878   */\n      tag_1039\n        /* \"#utility.yul\":868:877   */\n      dup3\n        /* \"#utility.yul\":849:878   */\n      tag_1030\n      jump\t// in\n        /* \"#utility.yul\":1071:1189   */\n    tag_1031:\n        /* \"#utility.yul\":1157:1162   */\n      dup1\n        /* \"#utility.yul\":1150:1163   */\n      iszero\n        /* \"#utility.yul\":1143:1164   */\n      iszero\n        /* \"#utility.yul\":1136:1141   */\n      dup2\n        /* \"#utility.yul\":1133:1165   */\n      eq\n        /* \"#utility.yul\":1123:1183   */\n      tag_476\n      jumpi\n        /* \"#utility.yul\":1179:1180   */\n      0x00\n        /* \"#utility.yul\":1176:1177   */\n      dup1\n        /* \"#utility.yul\":1169:1181   */\n      revert\n        /* \"#utility.yul\":1194:1435   */\n    tag_129:\n        /* \"#utility.yul\":1250:1256   */\n      0x00\n        /* \"#utility.yul\":1303:1305   */\n      0x20\n        /* \"#utility.yul\":1291:1300   */\n      dup3\n        /* \"#utility.yul\":1282:1289   */\n      dup5\n        /* \"#utility.yul\":1278:1301   */\n      sub\n        /* \"#utility.yul\":1274:1306   */\n      slt\n        /* \"#utility.yul\":1271:1323   */\n      iszero\n      tag_1050\n      jumpi\n        /* \"#utility.yul\":1319:1320   */\n      0x00\n        /* \"#utility.yul\":1316:1317   */\n      dup1\n        /* \"#utility.yul\":1309:1321   */\n      revert\n        /* \"#utility.yul\":1271:1323   */\n    tag_1050:\n        /* \"#utility.yul\":1358:1367   */\n      dup2\n        /* \"#utility.yul\":1345:1368   */\n      calldataload\n        /* \"#utility.yul\":1377:1405   */\n      tag_1039\n        /* \"#utility.yul\":1399:1404   */\n      dup2\n        /* \"#utility.yul\":1377:1405   */\n      tag_1031\n      jump\t// in\n        /* \"#utility.yul\":1440:1694   */\n    tag_134:\n        /* \"#utility.yul\":1508:1514   */\n      0x00\n        /* \"#utility.yul\":1516:1522   */\n      dup1\n        /* \"#utility.yul\":1569:1571   */\n      0x40\n        /* \"#utility.yul\":1557:1566   */\n      dup4\n        /* \"#utility.yul\":1548:1555   */\n      dup6\n        /* \"#utility.yul\":1544:1567   */\n      sub\n        /* \"#utility.yul\":1540:1572   */\n      slt\n        /* \"#utility.yul\":1537:1589   */\n      iszero\n      tag_1053\n      jumpi\n        /* \"#utility.yul\":1585:1586   */\n      0x00\n        /* \"#utility.yul\":1582:1583   */\n      dup1\n        /* \"#utility.yul\":1575:1587   */\n      revert\n        /* \"#utility.yul\":1537:1589   */\n    tag_1053:\n        /* \"#utility.yul\":1608:1637   */\n      tag_1054\n        /* \"#utility.yul\":1627:1636   */\n      dup4\n        /* \"#utility.yul\":1608:1637   */\n      tag_1030\n      jump\t// in\n    tag_1054:\n        /* \"#utility.yul\":1598:1637   */\n      swap5\n        /* \"#utility.yul\":1684:1686   */\n      0x20\n        /* \"#utility.yul\":1669:1687   */\n      swap4\n      swap1\n      swap4\n      add\n        /* \"#utility.yul\":1656:1688   */\n      calldataload\n      swap4\n      pop\n      pop\n      pop\n        /* \"#utility.yul\":1440:1694   */\n      jump\t// out\n        /* \"#utility.yul\":1699:1826   */\n    tag_497:\n        /* \"#utility.yul\":1760:1770   */\n      0x4e487b71\n        /* \"#utility.yul\":1755:1758   */\n      0xe0\n        /* \"#utility.yul\":1751:1771   */\n      shl\n        /* \"#utility.yul\":1748:1749   */\n      0x00\n        /* \"#utility.yul\":1741:1772   */\n      mstore\n        /* \"#utility.yul\":1791:1795   */\n      0x21\n        /* \"#utility.yul\":1788:1789   */\n      0x04\n        /* \"#utility.yul\":1781:1796   */\n      mstore\n        /* \"#utility.yul\":1815:1819   */\n      0x24\n        /* \"#utility.yul\":1812:1813   */\n      0x00\n        /* \"#utility.yul\":1805:1820   */\n      revert\n        /* \"#utility.yul\":1831:2068   */\n    tag_1032:\n        /* \"#utility.yul\":1912:1913   */\n      0x02\n        /* \"#utility.yul\":1905:1910   */\n      dup2\n        /* \"#utility.yul\":1902:1914   */\n      lt\n        /* \"#utility.yul\":1892:2035   */\n      tag_1057\n      jumpi\n        /* \"#utility.yul\":1957:1967   */\n      0x4e487b71\n        /* \"#utility.yul\":1952:1955   */\n      0xe0\n        /* \"#utility.yul\":1948:1968   */\n      shl\n        /* \"#utility.yul\":1945:1946   */\n      0x00\n        /* \"#utility.yul\":1938:1969   */\n      mstore\n        /* \"#utility.yul\":1992:1996   */\n      0x21\n        /* \"#utility.yul\":1989:1990   */\n      0x04\n        /* \"#utility.yul\":1982:1997   */\n      mstore\n        /* \"#utility.yul\":2020:2024   */\n      0x24\n        /* \"#utility.yul\":2017:2018   */\n      0x00\n        /* \"#utility.yul\":2010:2025   */\n      revert\n        /* \"#utility.yul\":1892:2035   */\n    tag_1057:\n        /* \"#utility.yul\":2044:2062   */\n      swap1\n      mstore\n        /* \"#utility.yul\":1831:2068   */\n      jump\t// out\n        /* \"#utility.yul\":2073:2752   */\n    tag_137:\n      sub(shl(0x60, 0x01), 0x01)\n        /* \"#utility.yul\":2423:2438   */\n      dup8\n      dup2\n      and\n        /* \"#utility.yul\":2405:2439   */\n      dup3\n      mstore\n        /* \"#utility.yul\":2475:2490   */\n      dup7\n      and\n        /* \"#utility.yul\":2470:2472   */\n      0x20\n        /* \"#utility.yul\":2455:2473   */\n      dup3\n      add\n        /* \"#utility.yul\":2448:2491   */\n      mstore\n        /* \"#utility.yul\":2510:2524   */\n      0xffffffffffff\n        /* \"#utility.yul\":2560:2575   */\n      dup6\n      dup2\n      and\n        /* \"#utility.yul\":2555:2557   */\n      0x40\n        /* \"#utility.yul\":2540:2558   */\n      dup4\n      add\n        /* \"#utility.yul\":2533:2576   */\n      mstore\n        /* \"#utility.yul\":2612:2627   */\n      dup5\n      and\n        /* \"#utility.yul\":2607:2609   */\n      0x60\n        /* \"#utility.yul\":2592:2610   */\n      dup3\n      add\n        /* \"#utility.yul\":2585:2628   */\n      mstore\n        /* \"#utility.yul\":2347:2350   */\n      0xc0\n        /* \"#utility.yul\":2332:2351   */\n      dup2\n      add\n        /* \"#utility.yul\":2637:2691   */\n      tag_1059\n        /* \"#utility.yul\":2686:2689   */\n      0x80\n        /* \"#utility.yul\":2671:2690   */\n      dup4\n      add\n        /* \"#utility.yul\":2663:2669   */\n      dup6\n        /* \"#utility.yul\":2637:2691   */\n      tag_1032\n      jump\t// in\n    tag_1059:\n        /* \"#utility.yul\":2740:2744   */\n      0xff\n        /* \"#utility.yul\":2732:2738   */\n      dup4\n        /* \"#utility.yul\":2728:2745   */\n      and\n        /* \"#utility.yul\":2722:2725   */\n      0xa0\n        /* \"#utility.yul\":2711:2720   */\n      dup4\n        /* \"#utility.yul\":2707:2726   */\n      add\n        /* \"#utility.yul\":2700:2746   */\n      mstore\n        /* \"#utility.yul\":2073:2752   */\n      swap8\n      swap7\n      pop\n      pop\n      pop\n      pop\n      pop\n      pop\n      pop\n      jump\t// out\n        /* \"#utility.yul\":2939:3119   */\n    tag_156:\n        /* \"#utility.yul\":2998:3004   */\n      0x00\n        /* \"#utility.yul\":3051:3053   */\n      0x20\n        /* \"#utility.yul\":3039:3048   */\n      dup3\n        /* \"#utility.yul\":3030:3037   */\n      dup5\n        /* \"#utility.yul\":3026:3049   */\n      sub\n        /* \"#utility.yul\":3022:3054   */\n      slt\n        /* \"#utility.yul\":3019:3071   */\n      iszero\n      tag_1062\n      jumpi\n        /* \"#utility.yul\":3067:3068   */\n      0x00\n        /* \"#utility.yul\":3064:3065   */\n      dup1\n        /* \"#utility.yul\":3057:3069   */\n      revert\n        /* \"#utility.yul\":3019:3071   */\n    tag_1062:\n      pop\n        /* \"#utility.yul\":3090:3113   */\n      calldataload\n      swap2\n        /* \"#utility.yul\":2939:3119   */\n      swap1\n      pop\n      jump\t// out\n        /* \"#utility.yul\":3124:4461   */\n    tag_171:\n        /* \"#utility.yul\":3353:3355   */\n      0x20\n        /* \"#utility.yul\":3405:3426   */\n      dup1\n      dup3\n      mstore\n        /* \"#utility.yul\":3475:3488   */\n      dup3\n      mload\n        /* \"#utility.yul\":3378:3396   */\n      dup3\n      dup3\n      add\n        /* \"#utility.yul\":3497:3519   */\n      dup2\n      swap1\n      mstore\n        /* \"#utility.yul\":3324:3328   */\n      0x00\n      swap2\n        /* \"#utility.yul\":3353:3355   */\n      swap1\n        /* \"#utility.yul\":3538:3540   */\n      0x40\n      swap1\n        /* \"#utility.yul\":3556:3574   */\n      dup2\n      dup6\n      add\n      swap1\n        /* \"#utility.yul\":3597:3612   */\n      dup7\n      dup5\n      add\n        /* \"#utility.yul\":3324:3328   */\n      dup6\n        /* \"#utility.yul\":3640:4435   */\n    tag_1064:\n        /* \"#utility.yul\":3654:3660   */\n      dup3\n        /* \"#utility.yul\":3651:3652   */\n      dup2\n        /* \"#utility.yul\":3648:3661   */\n      lt\n        /* \"#utility.yul\":3640:4435   */\n      iszero\n      tag_1066\n      jumpi\n        /* \"#utility.yul\":3713:3726   */\n      dup2\n      mload\n        /* \"#utility.yul\":3804:3813   */\n      dup1\n      mload\n      sub(shl(0x60, 0x01), 0x01)\n        /* \"#utility.yul\":3800:3818   */\n      swap1\n      dup2\n      and\n        /* \"#utility.yul\":3788:3819   */\n      dup7\n      mstore\n        /* \"#utility.yul\":3863:3874   */\n      dup8\n      dup3\n      add\n        /* \"#utility.yul\":3857:3875   */\n      mload\n        /* \"#utility.yul\":3853:3880   */\n      and\n        /* \"#utility.yul\":3839:3851   */\n      dup8\n      dup7\n      add\n        /* \"#utility.yul\":3832:3881   */\n      mstore\n        /* \"#utility.yul\":3920:3931   */\n      dup6\n      dup2\n      add\n        /* \"#utility.yul\":3914:3932   */\n      mload\n        /* \"#utility.yul\":3955:3969   */\n      0xffffffffffff\n        /* \"#utility.yul\":4003:4024   */\n      swap1\n      dup2\n      and\n        /* \"#utility.yul\":3989:4001   */\n      dup8\n      dup8\n      add\n        /* \"#utility.yul\":3982:4025   */\n      mstore\n        /* \"#utility.yul\":4048:4052   */\n      0x60\n        /* \"#utility.yul\":4096:4107   */\n      dup1\n      dup4\n      add\n        /* \"#utility.yul\":4090:4108   */\n      mload\n        /* \"#utility.yul\":4086:4113   */\n      swap1\n      swap2\n      and\n        /* \"#utility.yul\":4072:4084   */\n      swap1\n      dup7\n      add\n        /* \"#utility.yul\":4065:4114   */\n      mstore\n        /* \"#utility.yul\":4137:4141   */\n      0x80\n        /* \"#utility.yul\":4182:4193   */\n      dup1\n      dup3\n      add\n        /* \"#utility.yul\":4176:4194   */\n      mload\n        /* \"#utility.yul\":4207:4262   */\n      tag_1067\n        /* \"#utility.yul\":4249:4261   */\n      dup3\n      dup9\n      add\n        /* \"#utility.yul\":4176:4194   */\n      dup3\n        /* \"#utility.yul\":4207:4262   */\n      tag_1032\n      jump\t// in\n    tag_1067:\n      pop\n      pop\n        /* \"#utility.yul\":4285:4289   */\n      0xa0\n        /* \"#utility.yul\":4333:4344   */\n      swap1\n      dup2\n      add\n        /* \"#utility.yul\":4327:4345   */\n      mload\n        /* \"#utility.yul\":4347:4351   */\n      0xff\n        /* \"#utility.yul\":4323:4352   */\n      and\n        /* \"#utility.yul\":4309:4321   */\n      swap1\n      dup6\n      add\n        /* \"#utility.yul\":4302:4353   */\n      mstore\n        /* \"#utility.yul\":4382:4386   */\n      0xc0\n        /* \"#utility.yul\":4373:4387   */\n      swap1\n      swap4\n      add\n      swap3\n        /* \"#utility.yul\":4410:4425   */\n      swap1\n      dup6\n      add\n      swap1\n        /* \"#utility.yul\":3676:3677   */\n      0x01\n        /* \"#utility.yul\":3669:3678   */\n      add\n        /* \"#utility.yul\":3640:4435   */\n      jump(tag_1064)\n    tag_1066:\n      pop\n        /* \"#utility.yul\":4452:4455   */\n      swap2\n      swap8\n        /* \"#utility.yul\":3124:4461   */\n      swap7\n      pop\n      pop\n      pop\n      pop\n      pop\n      pop\n      pop\n      jump\t// out\n        /* \"#utility.yul\":4651:4905   */\n    tag_184:\n        /* \"#utility.yul\":4719:4725   */\n      0x00\n        /* \"#utility.yul\":4727:4733   */\n      dup1\n        /* \"#utility.yul\":4780:4782   */\n      0x40\n        /* \"#utility.yul\":4768:4777   */\n      dup4\n        /* \"#utility.yul\":4759:4766   */\n      dup6\n        /* \"#utility.yul\":4755:4778   */\n      sub\n        /* \"#utility.yul\":4751:4783   */\n      slt\n        /* \"#utility.yul\":4748:4800   */\n      iszero\n      tag_1071\n      jumpi\n        /* \"#utility.yul\":4796:4797   */\n      0x00\n        /* \"#utility.yul\":4793:4794   */\n      dup1\n        /* \"#utility.yul\":4786:4798   */\n      revert\n        /* \"#utility.yul\":4748:4800   */\n    tag_1071:\n        /* \"#utility.yul\":4832:4841   */\n      dup3\n        /* \"#utility.yul\":4819:4842   */\n      calldataload\n        /* \"#utility.yul\":4809:4842   */\n      swap2\n      pop\n        /* \"#utility.yul\":4861:4899   */\n      tag_1072\n        /* \"#utility.yul\":4895:4897   */\n      0x20\n        /* \"#utility.yul\":4884:4893   */\n      dup5\n        /* \"#utility.yul\":4880:4898   */\n      add\n        /* \"#utility.yul\":4861:4899   */\n      tag_1030\n      jump\t// in\n    tag_1072:\n        /* \"#utility.yul\":4851:4899   */\n      swap1\n      pop\n        /* \"#utility.yul\":4651:4905   */\n      swap3\n      pop\n      swap3\n      swap1\n      pop\n      jump\t// out\n        /* \"#utility.yul\":4910:5277   */\n    tag_1033:\n        /* \"#utility.yul\":4973:4981   */\n      0x00\n        /* \"#utility.yul\":4983:4989   */\n      dup1\n        /* \"#utility.yul\":5037:5040   */\n      dup4\n        /* \"#utility.yul\":5030:5034   */\n      0x1f\n        /* \"#utility.yul\":5022:5028   */\n      dup5\n        /* \"#utility.yul\":5018:5035   */\n      add\n        /* \"#utility.yul\":5014:5041   */\n      slt\n        /* \"#utility.yul\":5004:5059   */\n      tag_1074\n      jumpi\n        /* \"#utility.yul\":5055:5056   */\n      0x00\n        /* \"#utility.yul\":5052:5053   */\n      dup1\n        /* \"#utility.yul\":5045:5057   */\n      revert\n        /* \"#utility.yul\":5004:5059   */\n    tag_1074:\n      pop\n        /* \"#utility.yul\":5078:5098   */\n      dup2\n      calldataload\n        /* \"#utility.yul\":5121:5139   */\n      0xffffffffffffffff\n        /* \"#utility.yul\":5110:5140   */\n      dup2\n      gt\n        /* \"#utility.yul\":5107:5157   */\n      iszero\n      tag_1075\n      jumpi\n        /* \"#utility.yul\":5153:5154   */\n      0x00\n        /* \"#utility.yul\":5150:5151   */\n      dup1\n        /* \"#utility.yul\":5143:5155   */\n      revert\n        /* \"#utility.yul\":5107:5157   */\n    tag_1075:\n        /* \"#utility.yul\":5190:5194   */\n      0x20\n        /* \"#utility.yul\":5182:5188   */\n      dup4\n        /* \"#utility.yul\":5178:5195   */\n      add\n        /* \"#utility.yul\":5166:5195   */\n      swap2\n      pop\n        /* \"#utility.yul\":5250:5253   */\n      dup4\n        /* \"#utility.yul\":5243:5247   */\n      0x20\n        /* \"#utility.yul\":5233:5239   */\n      dup3\n        /* \"#utility.yul\":5230:5231   */\n      0x05\n        /* \"#utility.yul\":5226:5240   */\n      shl\n        /* \"#utility.yul\":5218:5224   */\n      dup6\n        /* \"#utility.yul\":5214:5241   */\n      add\n        /* \"#utility.yul\":5210:5248   */\n      add\n        /* \"#utility.yul\":5207:5254   */\n      gt\n        /* \"#utility.yul\":5204:5271   */\n      iszero\n      tag_1076\n      jumpi\n        /* \"#utility.yul\":5267:5268   */\n      0x00\n        /* \"#utility.yul\":5264:5265   */\n      dup1\n        /* \"#utility.yul\":5257:5269   */\n      revert\n        /* \"#utility.yul\":5204:5271   */\n    tag_1076:\n        /* \"#utility.yul\":4910:5277   */\n      swap3\n      pop\n      swap3\n      swap1\n      pop\n      jump\t// out\n        /* \"#utility.yul\":5282:6055   */\n    tag_207:\n        /* \"#utility.yul\":5404:5410   */\n      0x00\n        /* \"#utility.yul\":5412:5418   */\n      dup1\n        /* \"#utility.yul\":5420:5426   */\n      0x00\n        /* \"#utility.yul\":5428:5434   */\n      dup1\n        /* \"#utility.yul\":5481:5483   */\n      0x40\n        /* \"#utility.yul\":5469:5478   */\n      dup6\n        /* \"#utility.yul\":5460:5467   */\n      dup8\n        /* \"#utility.yul\":5456:5479   */\n      sub\n        /* \"#utility.yul\":5452:5484   */\n      slt\n        /* \"#utility.yul\":5449:5501   */\n      iszero\n      tag_1078\n      jumpi\n        /* \"#utility.yul\":5497:5498   */\n      0x00\n        /* \"#utility.yul\":5494:5495   */\n      dup1\n        /* \"#utility.yul\":5487:5499   */\n      revert\n        /* \"#utility.yul\":5449:5501   */\n    tag_1078:\n        /* \"#utility.yul\":5537:5546   */\n      dup5\n        /* \"#utility.yul\":5524:5547   */\n      calldataload\n        /* \"#utility.yul\":5566:5584   */\n      0xffffffffffffffff\n        /* \"#utility.yul\":5607:5609   */\n      dup1\n        /* \"#utility.yul\":5599:5605   */\n      dup3\n        /* \"#utility.yul\":5596:5610   */\n      gt\n        /* \"#utility.yul\":5593:5627   */\n      iszero\n      tag_1079\n      jumpi\n        /* \"#utility.yul\":5623:5624   */\n      0x00\n        /* \"#utility.yul\":5620:5621   */\n      dup1\n        /* \"#utility.yul\":5613:5625   */\n      revert\n        /* \"#utility.yul\":5593:5627   */\n    tag_1079:\n        /* \"#utility.yul\":5662:5732   */\n      tag_1080\n        /* \"#utility.yul\":5724:5731   */\n      dup9\n        /* \"#utility.yul\":5715:5721   */\n      dup4\n        /* \"#utility.yul\":5704:5713   */\n      dup10\n        /* \"#utility.yul\":5700:5722   */\n      add\n        /* \"#utility.yul\":5662:5732   */\n      tag_1033\n      jump\t// in\n    tag_1080:\n        /* \"#utility.yul\":5751:5759   */\n      swap1\n      swap7\n      pop\n        /* \"#utility.yul\":5636:5732   */\n      swap5\n      pop\n        /* \"#utility.yul\":5839:5841   */\n      0x20\n        /* \"#utility.yul\":5824:5842   */\n      dup8\n      add\n        /* \"#utility.yul\":5811:5843   */\n      calldataload\n      swap2\n      pop\n        /* \"#utility.yul\":5855:5871   */\n      dup1\n      dup3\n      gt\n        /* \"#utility.yul\":5852:5888   */\n      iszero\n      tag_1081\n      jumpi\n        /* \"#utility.yul\":5884:5885   */\n      0x00\n        /* \"#utility.yul\":5881:5882   */\n      dup1\n        /* \"#utility.yul\":5874:5886   */\n      revert\n        /* \"#utility.yul\":5852:5888   */\n    tag_1081:\n      pop\n        /* \"#utility.yul\":5923:5995   */\n      tag_1082\n        /* \"#utility.yul\":5987:5994   */\n      dup8\n        /* \"#utility.yul\":5976:5984   */\n      dup3\n        /* \"#utility.yul\":5965:5974   */\n      dup9\n        /* \"#utility.yul\":5961:5985   */\n      add\n        /* \"#utility.yul\":5923:5995   */\n      tag_1033\n      jump\t// in\n    tag_1082:\n        /* \"#utility.yul\":5282:6055   */\n      swap6\n      swap9\n      swap5\n      swap8\n      pop\n        /* \"#utility.yul\":6014:6022   */\n      swap6\n      pop\n      pop\n      pop\n      pop\n        /* \"#utility.yul\":5282:6055   */\n      jump\t// out\n        /* \"#utility.yul\":7519:7834   */\n    tag_227:\n        /* \"#utility.yul\":7584:7590   */\n      0x00\n        /* \"#utility.yul\":7592:7598   */\n      dup1\n        /* \"#utility.yul\":7645:7647   */\n      0x40\n        /* \"#utility.yul\":7633:7642   */\n      dup4\n        /* \"#utility.yul\":7624:7631   */\n      dup6\n        /* \"#utility.yul\":7620:7643   */\n      sub\n        /* \"#utility.yul\":7616:7648   */\n      slt\n        /* \"#utility.yul\":7613:7665   */\n      iszero\n      tag_1091\n      jumpi\n        /* \"#utility.yul\":7661:7662   */\n      0x00\n        /* \"#utility.yul\":7658:7659   */\n      dup1\n        /* \"#utility.yul\":7651:7663   */\n      revert\n        /* \"#utility.yul\":7613:7665   */\n    tag_1091:\n        /* \"#utility.yul\":7684:7713   */\n      tag_1092\n        /* \"#utility.yul\":7703:7712   */\n      dup4\n        /* \"#utility.yul\":7684:7713   */\n      tag_1030\n      jump\t// in\n    tag_1092:\n        /* \"#utility.yul\":7674:7713   */\n      swap2\n      pop\n        /* \"#utility.yul\":7763:7765   */\n      0x20\n        /* \"#utility.yul\":7752:7761   */\n      dup4\n        /* \"#utility.yul\":7748:7766   */\n      add\n        /* \"#utility.yul\":7735:7767   */\n      calldataload\n        /* \"#utility.yul\":7776:7804   */\n      tag_1093\n        /* \"#utility.yul\":7798:7803   */\n      dup2\n        /* \"#utility.yul\":7776:7804   */\n      tag_1031\n      jump\t// in\n    tag_1093:\n        /* \"#utility.yul\":7823:7828   */\n      dup1\n        /* \"#utility.yul\":7813:7828   */\n      swap2\n      pop\n      pop\n        /* \"#utility.yul\":7519:7834   */\n      swap3\n      pop\n      swap3\n      swap1\n      pop\n      jump\t// out\n        /* \"#utility.yul\":8040:8416   */\n    tag_257:\n        /* \"#utility.yul\":8102:8108   */\n      0x00\n        /* \"#utility.yul\":8110:8116   */\n      dup1\n        /* \"#utility.yul\":8163:8165   */\n      0x40\n        /* \"#utility.yul\":8151:8160   */\n      dup4\n        /* \"#utility.yul\":8142:8149   */\n      dup6\n        /* \"#utility.yul\":8138:8161   */\n      sub\n        /* \"#utility.yul\":8134:8166   */\n      slt\n        /* \"#utility.yul\":8131:8183   */\n      iszero\n      tag_1096\n      jumpi\n        /* \"#utility.yul\":8179:8180   */\n      0x00\n        /* \"#utility.yul\":8176:8177   */\n      dup1\n        /* \"#utility.yul\":8169:8181   */\n      revert\n        /* \"#utility.yul\":8131:8183   */\n    tag_1096:\n        /* \"#utility.yul\":8218:8227   */\n      dup3\n        /* \"#utility.yul\":8205:8228   */\n      calldataload\n        /* \"#utility.yul\":8237:8265   */\n      tag_1092\n        /* \"#utility.yul\":8259:8264   */\n      dup2\n        /* \"#utility.yul\":8237:8265   */\n      tag_1031\n      jump\t// in\n        /* \"#utility.yul\":8421:8858   */\n    tag_274:\n        /* \"#utility.yul\":8507:8513   */\n      0x00\n        /* \"#utility.yul\":8515:8521   */\n      dup1\n        /* \"#utility.yul\":8568:8570   */\n      0x20\n        /* \"#utility.yul\":8556:8565   */\n      dup4\n        /* \"#utility.yul\":8547:8554   */\n      dup6\n        /* \"#utility.yul\":8543:8566   */\n      sub\n        /* \"#utility.yul\":8539:8571   */\n      slt\n        /* \"#utility.yul\":8536:8588   */\n      iszero\n      tag_1100\n      jumpi\n        /* \"#utility.yul\":8584:8585   */\n      0x00\n        /* \"#utility.yul\":8581:8582   */\n      dup1\n        /* \"#utility.yul\":8574:8586   */\n      revert\n        /* \"#utility.yul\":8536:8588   */\n    tag_1100:\n        /* \"#utility.yul\":8624:8633   */\n      dup3\n        /* \"#utility.yul\":8611:8634   */\n      calldataload\n        /* \"#utility.yul\":8657:8675   */\n      0xffffffffffffffff\n        /* \"#utility.yul\":8649:8655   */\n      dup2\n        /* \"#utility.yul\":8646:8676   */\n      gt\n        /* \"#utility.yul\":8643:8693   */\n      iszero\n      tag_1101\n      jumpi\n        /* \"#utility.yul\":8689:8690   */\n      0x00\n        /* \"#utility.yul\":8686:8687   */\n      dup1\n        /* \"#utility.yul\":8679:8691   */\n      revert\n        /* \"#utility.yul\":8643:8693   */\n    tag_1101:\n        /* \"#utility.yul\":8728:8798   */\n      tag_1102\n        /* \"#utility.yul\":8790:8797   */\n      dup6\n        /* \"#utility.yul\":8781:8787   */\n      dup3\n        /* \"#utility.yul\":8770:8779   */\n      dup7\n        /* \"#utility.yul\":8766:8788   */\n      add\n        /* \"#utility.yul\":8728:8798   */\n      tag_1033\n      jump\t// in\n    tag_1102:\n        /* \"#utility.yul\":8817:8825   */\n      swap1\n      swap7\n        /* \"#utility.yul\":8702:8798   */\n      swap1\n      swap6\n      pop\n        /* \"#utility.yul\":8421:8858   */\n      swap4\n      pop\n      pop\n      pop\n      pop\n      jump\t// out\n        /* \"#utility.yul\":9094:9605   */\n    tag_296:\n        /* \"#utility.yul\":9189:9195   */\n      0x00\n        /* \"#utility.yul\":9197:9203   */\n      dup1\n        /* \"#utility.yul\":9205:9211   */\n      0x00\n        /* \"#utility.yul\":9258:9260   */\n      0x40\n        /* \"#utility.yul\":9246:9255   */\n      dup5\n        /* \"#utility.yul\":9237:9244   */\n      dup7\n        /* \"#utility.yul\":9233:9256   */\n      sub\n        /* \"#utility.yul\":9229:9261   */\n      slt\n        /* \"#utility.yul\":9226:9278   */\n      iszero\n      tag_1105\n      jumpi\n        /* \"#utility.yul\":9274:9275   */\n      0x00\n        /* \"#utility.yul\":9271:9272   */\n      dup1\n        /* \"#utility.yul\":9264:9276   */\n      revert\n        /* \"#utility.yul\":9226:9278   */\n    tag_1105:\n        /* \"#utility.yul\":9297:9326   */\n      tag_1106\n        /* \"#utility.yul\":9316:9325   */\n      dup5\n        /* \"#utility.yul\":9297:9326   */\n      tag_1030\n      jump\t// in\n    tag_1106:\n        /* \"#utility.yul\":9287:9326   */\n      swap3\n      pop\n        /* \"#utility.yul\":9377:9379   */\n      0x20\n        /* \"#utility.yul\":9366:9375   */\n      dup5\n        /* \"#utility.yul\":9362:9380   */\n      add\n        /* \"#utility.yul\":9349:9381   */\n      calldataload\n        /* \"#utility.yul\":9404:9422   */\n      0xffffffffffffffff\n        /* \"#utility.yul\":9396:9402   */\n      dup2\n        /* \"#utility.yul\":9393:9423   */\n      gt\n        /* \"#utility.yul\":9390:9440   */\n      iszero\n      tag_1107\n      jumpi\n        /* \"#utility.yul\":9436:9437   */\n      0x00\n        /* \"#utility.yul\":9433:9434   */\n      dup1\n        /* \"#utility.yul\":9426:9438   */\n      revert\n        /* \"#utility.yul\":9390:9440   */\n    tag_1107:\n        /* \"#utility.yul\":9475:9545   */\n      tag_1108\n        /* \"#utility.yul\":9537:9544   */\n      dup7\n        /* \"#utility.yul\":9528:9534   */\n      dup3\n        /* \"#utility.yul\":9517:9526   */\n      dup8\n        /* \"#utility.yul\":9513:9535   */\n      add\n        /* \"#utility.yul\":9475:9545   */\n      tag_1033\n      jump\t// in\n    tag_1108:\n        /* \"#utility.yul\":9094:9605   */\n      swap5\n      swap8\n        /* \"#utility.yul\":9564:9572   */\n      swap1\n      swap7\n      pop\n        /* \"#utility.yul\":9449:9545   */\n      swap4\n      swap5\n      pop\n      pop\n      pop\n      pop\n        /* \"#utility.yul\":9094:9605   */\n      jump\t// out\n        /* \"#utility.yul\":10734:11062   */\n    tag_361:\n        /* \"#utility.yul\":10811:10817   */\n      0x00\n        /* \"#utility.yul\":10819:10825   */\n      dup1\n        /* \"#utility.yul\":10827:10833   */\n      0x00\n        /* \"#utility.yul\":10880:10882   */\n      0x60\n        /* \"#utility.yul\":10868:10877   */\n      dup5\n        /* \"#utility.yul\":10859:10866   */\n      dup7\n        /* \"#utility.yul\":10855:10878   */\n      sub\n        /* \"#utility.yul\":10851:10883   */\n      slt\n        /* \"#utility.yul\":10848:10900   */\n      iszero\n      tag_1111\n      jumpi\n        /* \"#utility.yul\":10896:10897   */\n      0x00\n        /* \"#utility.yul\":10893:10894   */\n      dup1\n        /* \"#utility.yul\":10886:10898   */\n      revert\n        /* \"#utility.yul\":10848:10900   */\n    tag_1111:\n        /* \"#utility.yul\":10919:10948   */\n      tag_1112\n        /* \"#utility.yul\":10938:10947   */\n      dup5\n        /* \"#utility.yul\":10919:10948   */\n      tag_1030\n      jump\t// in\n    tag_1112:\n        /* \"#utility.yul\":10909:10948   */\n      swap3\n      pop\n        /* \"#utility.yul\":10967:11005   */\n      tag_1113\n        /* \"#utility.yul\":11001:11003   */\n      0x20\n        /* \"#utility.yul\":10990:10999   */\n      dup6\n        /* \"#utility.yul\":10986:11004   */\n      add\n        /* \"#utility.yul\":10967:11005   */\n      tag_1030\n      jump\t// in\n    tag_1113:\n        /* \"#utility.yul\":10957:11005   */\n      swap2\n      pop\n        /* \"#utility.yul\":11052:11054   */\n      0x40\n        /* \"#utility.yul\":11041:11050   */\n      dup5\n        /* \"#utility.yul\":11037:11055   */\n      add\n        /* \"#utility.yul\":11024:11056   */\n      calldataload\n        /* \"#utility.yul\":11014:11056   */\n      swap1\n      pop\n        /* \"#utility.yul\":10734:11062   */\n      swap3\n      pop\n      swap3\n      pop\n      swap3\n      jump\t// out\n        /* \"#utility.yul\":11067:11405   */\n    tag_440:\n        /* \"#utility.yul\":11149:11155   */\n      0x00\n        /* \"#utility.yul\":11157:11163   */\n      dup1\n        /* \"#utility.yul\":11210:11212   */\n      0x40\n        /* \"#utility.yul\":11198:11207   */\n      dup4\n        /* \"#utility.yul\":11189:11196   */\n      dup6\n        /* \"#utility.yul\":11185:11208   */\n      sub\n        /* \"#utility.yul\":11181:11213   */\n      slt\n        /* \"#utility.yul\":11178:11230   */\n      iszero\n      tag_1115\n      jumpi\n        /* \"#utility.yul\":11226:11227   */\n      0x00\n        /* \"#utility.yul\":11223:11224   */\n      dup1\n        /* \"#utility.yul\":11216:11228   */\n      revert\n        /* \"#utility.yul\":11178:11230   */\n    tag_1115:\n        /* \"#utility.yul\":11265:11274   */\n      dup3\n        /* \"#utility.yul\":11252:11275   */\n      calldataload\n        /* \"#utility.yul\":11304:11305   */\n      0x02\n        /* \"#utility.yul\":11297:11302   */\n      dup2\n        /* \"#utility.yul\":11294:11306   */\n      lt\n        /* \"#utility.yul\":11284:11324   */\n      tag_1054\n      jumpi\n        /* \"#utility.yul\":11320:11321   */\n      0x00\n        /* \"#utility.yul\":11317:11318   */\n      dup1\n        /* \"#utility.yul\":11310:11322   */\n      revert\n        /* \"#utility.yul\":11410:11537   */\n    tag_1034:\n        /* \"#utility.yul\":11471:11481   */\n      0x4e487b71\n        /* \"#utility.yul\":11466:11469   */\n      0xe0\n        /* \"#utility.yul\":11462:11482   */\n      shl\n        /* \"#utility.yul\":11459:11460   */\n      0x00\n        /* \"#utility.yul\":11452:11483   */\n      mstore\n        /* \"#utility.yul\":11502:11506   */\n      0x11\n        /* \"#utility.yul\":11499:11500   */\n      0x04\n        /* \"#utility.yul\":11492:11507   */\n      mstore\n        /* \"#utility.yul\":11526:11530   */\n      0x24\n        /* \"#utility.yul\":11523:11524   */\n      0x00\n        /* \"#utility.yul\":11516:11531   */\n      revert\n        /* \"#utility.yul\":11542:11670   */\n    tag_471:\n        /* \"#utility.yul\":11609:11618   */\n      dup2\n      dup2\n      sub\n        /* \"#utility.yul\":11630:11641   */\n      dup2\n      dup2\n      gt\n        /* \"#utility.yul\":11627:11664   */\n      iszero\n      tag_454\n      jumpi\n        /* \"#utility.yul\":11644:11662   */\n      tag_454\n      tag_1034\n      jump\t// in\n        /* \"#utility.yul\":11675:12025   */\n    tag_475:\n        /* \"#utility.yul\":11877:11879   */\n      0x60\n        /* \"#utility.yul\":11862:11880   */\n      dup2\n      add\n        /* \"#utility.yul\":11889:11933   */\n      tag_1122\n        /* \"#utility.yul\":11866:11875   */\n      dup3\n        /* \"#utility.yul\":11915:11921   */\n      dup7\n        /* \"#utility.yul\":11889:11933   */\n      tag_1032\n      jump\t// in\n    tag_1122:\n        /* \"#utility.yul\":11964:11966   */\n      0x20\n        /* \"#utility.yul\":11949:11967   */\n      dup3\n      add\n        /* \"#utility.yul\":11942:11976   */\n      swap4\n      swap1\n      swap4\n      mstore\n        /* \"#utility.yul\":12007:12009   */\n      0x40\n        /* \"#utility.yul\":11992:12010   */\n      add\n        /* \"#utility.yul\":11985:12019   */\n      mstore\n        /* \"#utility.yul\":11675:12025   */\n      swap2\n      swap1\n      pop\n      jump\t// out\n        /* \"#utility.yul\":12030:12155   */\n    tag_487:\n        /* \"#utility.yul\":12095:12104   */\n      dup1\n      dup3\n      add\n        /* \"#utility.yul\":12116:12126   */\n      dup1\n      dup3\n      gt\n        /* \"#utility.yul\":12113:12149   */\n      iszero\n      tag_454\n      jumpi\n        /* \"#utility.yul\":12129:12147   */\n      tag_454\n      tag_1034\n      jump\t// in\n        /* \"#utility.yul\":12160:12287   */\n    tag_508:\n        /* \"#utility.yul\":12221:12231   */\n      0x4e487b71\n        /* \"#utility.yul\":12216:12219   */\n      0xe0\n        /* \"#utility.yul\":12212:12232   */\n      shl\n        /* \"#utility.yul\":12209:12210   */\n      0x00\n        /* \"#utility.yul\":12202:12233   */\n      mstore\n        /* \"#utility.yul\":12252:12256   */\n      0x32\n        /* \"#utility.yul\":12249:12250   */\n      0x04\n        /* \"#utility.yul\":12242:12257   */\n      mstore\n        /* \"#utility.yul\":12276:12280   */\n      0x24\n        /* \"#utility.yul\":12273:12274   */\n      0x00\n        /* \"#utility.yul\":12266:12281   */\n      revert\n        /* \"#utility.yul\":12804:13049   */\n    tag_543:\n        /* \"#utility.yul\":12871:12877   */\n      0x00\n        /* \"#utility.yul\":12924:12926   */\n      0x20\n        /* \"#utility.yul\":12912:12921   */\n      dup3\n        /* \"#utility.yul\":12903:12910   */\n      dup5\n        /* \"#utility.yul\":12899:12922   */\n      sub\n        /* \"#utility.yul\":12895:12927   */\n      slt\n        /* \"#utility.yul\":12892:12944   */\n      iszero\n      tag_1130\n      jumpi\n        /* \"#utility.yul\":12940:12941   */\n      0x00\n        /* \"#utility.yul\":12937:12938   */\n      dup1\n        /* \"#utility.yul\":12930:12942   */\n      revert\n        /* \"#utility.yul\":12892:12944   */\n    tag_1130:\n        /* \"#utility.yul\":12972:12981   */\n      dup2\n        /* \"#utility.yul\":12966:12982   */\n      mload\n        /* \"#utility.yul\":12991:13019   */\n      tag_1039\n        /* \"#utility.yul\":13013:13018   */\n      dup2\n        /* \"#utility.yul\":12991:13019   */\n      tag_1031\n      jump\t// in\n        /* \"#utility.yul\":13054:13548   */\n    tag_547:\n        /* \"#utility.yul\":13312:13315   */\n      0xa0\n        /* \"#utility.yul\":13297:13316   */\n      dup2\n      add\n        /* \"#utility.yul\":13325:13369   */\n      tag_1133\n        /* \"#utility.yul\":13301:13310   */\n      dup3\n        /* \"#utility.yul\":13351:13357   */\n      dup9\n        /* \"#utility.yul\":13325:13369   */\n      tag_1032\n      jump\t// in\n    tag_1133:\n        /* \"#utility.yul\":13405:13411   */\n      dup6\n        /* \"#utility.yul\":13400:13402   */\n      0x20\n        /* \"#utility.yul\":13389:13398   */\n      dup4\n        /* \"#utility.yul\":13385:13403   */\n      add\n        /* \"#utility.yul\":13378:13412   */\n      mstore\n        /* \"#utility.yul\":13448:13454   */\n      dup5\n        /* \"#utility.yul\":13443:13445   */\n      0x40\n        /* \"#utility.yul\":13432:13441   */\n      dup4\n        /* \"#utility.yul\":13428:13446   */\n      add\n        /* \"#utility.yul\":13421:13455   */\n      mstore\n        /* \"#utility.yul\":13491:13497   */\n      dup4\n        /* \"#utility.yul\":13486:13488   */\n      0x60\n        /* \"#utility.yul\":13475:13484   */\n      dup4\n        /* \"#utility.yul\":13471:13489   */\n      add\n        /* \"#utility.yul\":13464:13498   */\n      mstore\n        /* \"#utility.yul\":13535:13541   */\n      dup3\n        /* \"#utility.yul\":13529:13532   */\n      0x80\n        /* \"#utility.yul\":13518:13527   */\n      dup4\n        /* \"#utility.yul\":13514:13533   */\n      add\n        /* \"#utility.yul\":13507:13542   */\n      mstore\n        /* \"#utility.yul\":13054:13548   */\n      swap7\n      swap6\n      pop\n      pop\n      pop\n      pop\n      pop\n      pop\n      jump\t// out\n        /* \"#utility.yul\":14229:14587   */\n    tag_1035:\n        /* \"#utility.yul\":14329:14335   */\n      dup2\n        /* \"#utility.yul\":14324:14327   */\n      dup4\n        /* \"#utility.yul\":14317:14336   */\n      mstore\n        /* \"#utility.yul\":14299:14302   */\n      0x00\n        /* \"#utility.yul\":14359:14425   */\n      0x07ffffffffffffffffffffffffffffffffffffffffffffffffffffffffffffff\n        /* \"#utility.yul\":14351:14357   */\n      dup4\n        /* \"#utility.yul\":14348:14426   */\n      gt\n        /* \"#utility.yul\":14345:14443   */\n      iszero\n      tag_1137\n      jumpi\n        /* \"#utility.yul\":14439:14440   */\n      0x00\n        /* \"#utility.yul\":14436:14437   */\n      dup1\n        /* \"#utility.yul\":14429:14441   */\n      revert\n        /* \"#utility.yul\":14345:14443   */\n    tag_1137:\n        /* \"#utility.yul\":14475:14481   */\n      dup3\n        /* \"#utility.yul\":14472:14473   */\n      0x05\n        /* \"#utility.yul\":14468:14482   */\n      shl\n        /* \"#utility.yul\":14527:14535   */\n      dup1\n        /* \"#utility.yul\":14520:14525   */\n      dup4\n        /* \"#utility.yul\":14513:14517   */\n      0x20\n        /* \"#utility.yul\":14508:14511   */\n      dup8\n        /* \"#utility.yul\":14504:14518   */\n      add\n        /* \"#utility.yul\":14491:14536   */\n      calldatacopy\n        /* \"#utility.yul\":14556:14574   */\n      swap4\n      swap1\n      swap4\n      add\n        /* \"#utility.yul\":14576:14580   */\n      0x20\n        /* \"#utility.yul\":14552:14581   */\n      add\n      swap4\n        /* \"#utility.yul\":14229:14587   */\n      swap3\n      pop\n      pop\n      pop\n      jump\t// out\n        /* \"#utility.yul\":14592:15198   */\n    tag_731:\n        /* \"#utility.yul\":14887:14931   */\n      tag_1139\n        /* \"#utility.yul\":14921:14930   */\n      dup2\n        /* \"#utility.yul\":14913:14919   */\n      dup9\n        /* \"#utility.yul\":14887:14931   */\n      tag_1032\n      jump\t// in\n    tag_1139:\n        /* \"#utility.yul\":14967:14970   */\n      0xa0\n        /* \"#utility.yul\":14962:14964   */\n      0x20\n        /* \"#utility.yul\":14951:14960   */\n      dup3\n        /* \"#utility.yul\":14947:14965   */\n      add\n        /* \"#utility.yul\":14940:14971   */\n      mstore\n        /* \"#utility.yul\":14868:14872   */\n      0x00\n        /* \"#utility.yul\":14988:15062   */\n      tag_1140\n        /* \"#utility.yul\":15057:15060   */\n      0xa0\n        /* \"#utility.yul\":15046:15055   */\n      dup4\n        /* \"#utility.yul\":15042:15061   */\n      add\n        /* \"#utility.yul\":15034:15040   */\n      dup8\n        /* \"#utility.yul\":15026:15032   */\n      dup10\n        /* \"#utility.yul\":14988:15062   */\n      tag_1035\n      jump\t// in\n    tag_1140:\n        /* \"#utility.yul\":15093:15095   */\n      0x40\n        /* \"#utility.yul\":15078:15096   */\n      dup4\n      add\n        /* \"#utility.yul\":15071:15105   */\n      swap6\n      swap1\n      swap6\n      mstore\n      pop\n        /* \"#utility.yul\":15136:15138   */\n      0x60\n        /* \"#utility.yul\":15121:15139   */\n      dup2\n      add\n        /* \"#utility.yul\":15114:15148   */\n      swap3\n      swap1\n      swap3\n      mstore\n        /* \"#utility.yul\":15179:15182   */\n      0x80\n        /* \"#utility.yul\":15164:15183   */\n      swap1\n      swap2\n      add\n        /* \"#utility.yul\":15157:15192   */\n      mstore\n        /* \"#utility.yul\":14980:15062   */\n      swap4\n        /* \"#utility.yul\":14592:15198   */\n      swap3\n      pop\n      pop\n      pop\n      jump\t// out\n        /* \"#utility.yul\":15203:15491   */\n    tag_777:\n        /* \"#utility.yul\":15392:15394   */\n      0x20\n        /* \"#utility.yul\":15381:15390   */\n      dup2\n        /* \"#utility.yul\":15374:15395   */\n      mstore\n        /* \"#utility.yul\":15355:15359   */\n      0x00\n        /* \"#utility.yul\":15412:15485   */\n      tag_1142\n        /* \"#utility.yul\":15481:15483   */\n      0x20\n        /* \"#utility.yul\":15470:15479   */\n      dup4\n        /* \"#utility.yul\":15466:15484   */\n      add\n        /* \"#utility.yul\":15458:15464   */\n      dup5\n        /* \"#utility.yul\":15450:15456   */\n      dup7\n        /* \"#utility.yul\":15412:15485   */\n      tag_1035\n      jump\t// in\n    tag_1142:\n        /* \"#utility.yul\":15404:15485   */\n      swap5\n        /* \"#utility.yul\":15203:15491   */\n      swap4\n      pop\n      pop\n      pop\n      pop\n      jump\t// out\n        /* \"#utility.yul\":15496:15680   */\n    tag_793:\n        /* \"#utility.yul\":15566:15572   */\n      0x00\n        /* \"#utility.yul\":15619:15621   */\n      0x20\n        /* \"#utility.yul\":15607:15616   */\n      dup3\n        /* \"#utility.yul\":15598:15605   */\n      dup5\n        /* \"#utility.yul\":15594:15617   */\n      sub\n        /* \"#utility.yul\":15590:15622   */\n      slt\n        /* \"#utility.yul\":15587:15639   */\n      iszero\n      tag_1144\n      jumpi\n        /* \"#utility.yul\":15635:15636   */\n      0x00\n        /* \"#utility.yul\":15632:15633   */\n      dup1\n        /* \"#utility.yul\":15625:15637   */\n      revert\n        /* \"#utility.yul\":15587:15639   */\n    tag_1144:\n      pop\n        /* \"#utility.yul\":15658:15674   */\n      mload\n      swap2\n        /* \"#utility.yul\":15496:15680   */\n      swap1\n      pop\n      jump\t// out\n        /* \"#utility.yul\":15685:15964   */\n    tag_936:\n        /* \"#utility.yul\":15859:15861   */\n      0x40\n        /* \"#utility.yul\":15844:15862   */\n      dup2\n      add\n        /* \"#utility.yul\":15871:15915   */\n      tag_1146\n        /* \"#utility.yul\":15848:15857   */\n      dup3\n        /* \"#utility.yul\":15897:15903   */\n      dup6\n        /* \"#utility.yul\":15871:15915   */\n      tag_1032\n      jump\t// in\n    tag_1146:\n        /* \"#utility.yul\":15951:15957   */\n      dup3\n        /* \"#utility.yul\":15946:15948   */\n      0x20\n        /* \"#utility.yul\":15935:15944   */\n      dup4\n        /* \"#utility.yul\":15931:15949   */\n      add\n        /* \"#utility.yul\":15924:15958   */\n      mstore\n        /* \"#utility.yul\":15685:15964   */\n      swap4\n      swap3\n      pop\n      pop\n      pop\n      jump\t// out\n        /* \"#utility.yul\":15969:16473   */\n    tag_993:\n        /* \"#utility.yul\":16221:16224   */\n      0xa0\n        /* \"#utility.yul\":16206:16225   */\n      dup2\n      add\n        /* \"#utility.yul\":16234:16278   */\n      tag_1148\n        /* \"#utility.yul\":16210:16219   */\n      dup3\n        /* \"#utility.yul\":16260:16266   */\n      dup9\n        /* \"#utility.yul\":16234:16278   */\n      tag_1032\n      jump\t// in\n    tag_1148:\n        /* \"#utility.yul\":16314:16320   */\n      dup6\n        /* \"#utility.yul\":16309:16311   */\n      0x20\n        /* \"#utility.yul\":16298:16307   */\n      dup4\n        /* \"#utility.yul\":16294:16312   */\n      add\n        /* \"#utility.yul\":16287:16321   */\n      mstore\n        /* \"#utility.yul\":16357:16363   */\n      dup5\n        /* \"#utility.yul\":16352:16354   */\n      0x40\n        /* \"#utility.yul\":16341:16350   */\n      dup4\n        /* \"#utility.yul\":16337:16355   */\n      add\n        /* \"#utility.yul\":16330:16364   */\n      mstore\n        /* \"#utility.yul\":16400:16406   */\n      dup4\n        /* \"#utility.yul\":16395:16397   */\n      0x60\n        /* \"#utility.yul\":16384:16393   */\n      dup4\n        /* \"#utility.yul\":16380:16398   */\n      add\n        /* \"#utility.yul\":16373:16407   */\n      mstore\n        /* \"#utility.yul\":16458:16464   */\n      dup3\n        /* \"#utility.yul\":16451:16465   */\n      iszero\n        /* \"#utility.yul\":16444:16466   */\n      iszero\n        /* \"#utility.yul\":16438:16441   */\n      0x80\n        /* \"#utility.yul\":16427:16436   */\n      dup4\n        /* \"#utility.yul\":16423:16442   */\n      add\n        /* \"#utility.yul\":16416:16467   */\n      mstore\n        /* \"#utility.yul\":15969:16473   */\n      swap7\n      swap6\n      pop\n      pop\n      pop\n      pop\n      pop\n      pop\n      jump\t// out\n        /* \"#utility.yul\":16780:17111   */\n    tag_1019:\n        /* \"#utility.yul\":16885:16894   */\n      0x00\n        /* \"#utility.yul\":16896:16905   */\n      dup1\n        /* \"#utility.yul\":16938:16946   */\n      dup6\n        /* \"#utility.yul\":16926:16936   */\n      dup6\n        /* \"#utility.yul\":16923:16947   */\n      gt\n        /* \"#utility.yul\":16920:16964   */\n      iszero\n      tag_1151\n      jumpi\n        /* \"#utility.yul\":16960:16961   */\n      0x00\n        /* \"#utility.yul\":16957:16958   */\n      dup1\n        /* \"#utility.yul\":16950:16962   */\n      revert\n        /* \"#utility.yul\":16920:16964   */\n    tag_1151:\n        /* \"#utility.yul\":16989:16995   */\n      dup4\n        /* \"#utility.yul\":16979:16987   */\n      dup7\n        /* \"#utility.yul\":16976:16996   */\n      gt\n        /* \"#utility.yul\":16973:17013   */\n      iszero\n      tag_1152\n      jumpi\n        /* \"#utility.yul\":17009:17010   */\n      0x00\n        /* \"#utility.yul\":17006:17007   */\n      dup1\n        /* \"#utility.yul\":16999:17011   */\n      revert\n        /* \"#utility.yul\":16973:17013   */\n    tag_1152:\n      pop\n      pop\n        /* \"#utility.yul\":17035:17058   */\n      dup3\n      add\n      swap4\n        /* \"#utility.yul\":17080:17105   */\n      swap2\n      swap1\n      swap3\n      sub\n      swap2\n      pop\n        /* \"#utility.yul\":16780:17111   */\n      jump\t// out\n        /* \"#utility.yul\":17116:17453   */\n    tag_1021:\n      not(0xffffffffffffffffffffffff)\n        /* \"#utility.yul\":17237:17256   */\n      dup2\n      calldataload\n        /* \"#utility.yul\":17324:17335   */\n      dup2\n      dup2\n      and\n      swap2\n        /* \"#utility.yul\":17355:17357   */\n      0x14\n        /* \"#utility.yul\":17347:17358   */\n      dup6\n      lt\n        /* \"#utility.yul\":17344:17447   */\n      iszero\n      tag_1154\n      jumpi\n        /* \"#utility.yul\":17434:17436   */\n      dup1\n        /* \"#utility.yul\":17428:17430   */\n      dup2\n        /* \"#utility.yul\":17421:17424   */\n      dup7\n        /* \"#utility.yul\":17417:17419   */\n      0x14\n        /* \"#utility.yul\":17413:17425   */\n      sub\n        /* \"#utility.yul\":17410:17411   */\n      0x03\n        /* \"#utility.yul\":17406:17426   */\n      shl\n        /* \"#utility.yul\":17402:17431   */\n      shl\n        /* \"#utility.yul\":17398:17400   */\n      dup4\n        /* \"#utility.yul\":17394:17432   */\n      and\n        /* \"#utility.yul\":17390:17437   */\n      and\n        /* \"#utility.yul\":17381:17437   */\n      swap3\n      pop\n        /* \"#utility.yul\":17344:17447   */\n    tag_1154:\n      pop\n      pop\n        /* \"#utility.yul\":17116:17453   */\n      swap3\n      swap2\n      pop\n      pop\n      jump\t// out\n    stop\n    data_cb864c43dd5d441bb6271f424f11befa622c032dfd374d226e26fbbdb782b8f8 a49807205ce4d355092ef5a8a18f56e8913cf4a201fbe287825b095693c21775\n\n    auxdata: 0xa264697066735822122042e9ebc1ca4fbeff9599f2c978d028bcb284993a180046a58484cb16ff252efc64736f6c63430008190033\n}\n",
    "bytecode": {
      "linkReferences": {},
      "object": "60a060405262ed4e006002556a0422ca8b0a00a42500000060035565048c2739500060045534801561002f575f80fd5b50604051614a84380380614a8483398101604081905261004e9161034b565b600180556001600160a01b03808216608052821661007f5760405163d92e233d60e01b815260040160405180910390fd5b60058054600160501b600160f01b0319166a01000000000000000000006001600160a01b038516021790555f5b83518110156101f0575f8482815181106100c8576100c861042b565b602002602001015190506100e45f801b826101f960201b60201c565b5061010f7fa49807205ce4d355092ef5a8a18f56e8913cf4a201fbe287825b095693c21775826101f9565b5061013a7f65d7a28e3265b37a6474929f336521b332c1681b933f6cb9f3376673440d862a826101f9565b506101657fc806897caf4fd5068191157e44d3988e43139a37e0b97b6793e1ed1184140604826101f9565b506101907ff60566c40710959d8d30b6067ce3c53c757bec78eecb0e46b83c7f8194ffae37826101f9565b506101bb7f78c90eb9e475048b483a290aee04b5fe48355537c3623c7637b17d3bed71c6ed826101f9565b506101e67f241ecf16d79d0f8dbfb92cbc07fe17840425976cf0667f022fe9877caa831b08826101f9565b50506001016100ac565b50505050610496565b5f828152602081815260408083206001600160a01b038516845290915281205460ff1661029a575f838152602081815260408083206001600160a01b03861684529091529020805460ff191660011790556102526102a3565b6001600160a01b0316826001600160a01b0316847f2f8788117e7eff1d82e926ec794901d17c78024a50270940304540a733656f0d60405160405180910390a450600161029d565b505f5b92915050565b5f6102ac6102b1565b905090565b5f3660148082108015906102c957506102c9336102f7565b156102ef576102dc36828403815f61043f565b6102e591610466565b60601c9250505090565b339250505090565b5f61030160805190565b6001600160a01b0316826001600160a01b0316149050919050565b634e487b7160e01b5f52604160045260245ffd5b80516001600160a01b0381168114610346575f80fd5b919050565b5f805f6060848603121561035d575f80fd5b83516001600160401b0380821115610373575f80fd5b818601915086601f830112610386575f80fd5b815160208282111561039a5761039a61031c565b8160051b604051601f19603f830116810181811086821117156103bf576103bf61031c565b60405292835281830193508481018201928a8411156103dc575f80fd5b948201945b83861015610401576103f286610330565b855294820194938201936103e1565b97506104109050888201610330565b95505050505061042260408501610330565b90509250925092565b634e487b7160e01b5f52603260045260245ffd5b5f808585111561044d575f80fd5b83861115610459575f80fd5b5050820193919092039150565b6001600160601b0319813581811691601485101561048e5780818660140360031b1b83161692505b505092915050565b6080516145c86104bc5f395f81816108b101528181610a970152613f0601526145c85ff3fe608060405260043610610522575f3560e01c8063867d099a1161029f578063bda821e811610170578063e63ab1e9116100d1578063f5f1135011610087578063f6326fb31161006d578063f6326fb314610fa4578063f688bcfb14610fac578063fd46a17114610fcb575f80fd5b8063f5f1135014610f66578063f5f69af214610f85575f80fd5b8063ec87621c116100b7578063ec87621c14610ef8578063ee947a7c14610f2b578063f29b223914610f40575f80fd5b8063e63ab1e914610e9a578063e9fe0c7814610ecd575f80fd5b8063da8d5add11610126578063e15e23c11161010c578063e15e23c114610e5c578063e340b78314610e71578063e399067f14610e86575f80fd5b8063da8d5add14610e15578063e043b2b214610e29575f80fd5b8063c771c39011610156578063c771c39014610db8578063d547741f14610dd7578063d830d5cc14610df6575f80fd5b8063bda821e814610d85578063c6d95b7414610d99575f80fd5b806393055c431161021a578063a59aa5a6116101d0578063b2b77ae2116101b6578063b2b77ae214610d33578063b65ba94b14610d51578063b758aeaa14610d66575f80fd5b8063a59aa5a614610c98578063b2118a8d14610d14575f80fd5b80639ddc3912116102005780639ddc391214610c515780639e657e3314610c66578063a217fddf14610c85575f80fd5b806393055c4314610c1d57806397d9e5b414610c3c575f80fd5b806389a302711161026f5780638b713b2e116102555780638b713b2e14610ba75780638dd4928e14610bbc57806391d1485414610bdb575f80fd5b806389a3027114610b6157806389bad0a614610b88575f80fd5b8063867d099a14610acf578063885f502914610aee578063886d589d14610b21578063899aa99114610b4c575f80fd5b806341debf1f116103f357806364021b131161035457806372e553991161030a578063762e1c73116102f0578063762e1c7314610a4b57806376c1d3db14610a6a5780637da0a87714610a89575f80fd5b806372e5539914610a0c57806375b238fc14610a2b575f80fd5b806365d5ec961161033a57806365d5ec96146109ab5780636c6ff56c146109d95780636ec23995146109ed575f80fd5b806364021b13146109845780636426be481461098c575f80fd5b8063572b6c05116103a95780635983b0bd1161038f5780635983b0bd1461091e5780635e2c19db1461093d5780636068d6cb1461096b575f80fd5b8063572b6c0514610895578063588583a0146108e1575f80fd5b80634e43603a116103d95780634e43603a146107fd57806351fb012d1461085757806353d6fd5914610876575f80fd5b806341debf1f146107bf57806347af19aa146107de575f80fd5b806327175b231161049d5780632f2ff15d1161045357806336568abe1161043957806336568abe1461075d5780633ac439701461077c5780633af32abf14610791575f80fd5b80632f2ff15d146107135780633408567c14610732575f80fd5b80632a5bf6d2116104835780632a5bf6d2146106b35780632aad5edd146106df5780632e1a7d4d146106f4575f80fd5b806327175b231461068a578063275991d21461069f575f80fd5b80630c016ad5116104f25780631c5aeef7116104d85780631c5aeef714610627578063246d47b71461063c578063248a9ca31461065c575f80fd5b80630c016ad5146105ec57806317b516421461061f575f80fd5b806301ffc9a71461052d57806304c68af014610561578063052d9e7e1461059a57806308f43333146105bb575f80fd5b3661052957005b5f80fd5b348015610538575f80fd5b5061054c610547366004613f5f565b610fe0565b60405190151581526020015b60405180910390f35b34801561056c575f80fd5b5061058c61057b366004613fa8565b600c6020525f908152604090205481565b604051908152602001610558565b3480156105a5575f80fd5b506105b96105b4366004613fce565b611016565b005b3480156105c6575f80fd5b506105da6105d5366004613fe9565b61104a565b60405161055896959493929190614045565b3480156105f7575f80fd5b5061058c7ff60566c40710959d8d30b6067ce3c53c757bec78eecb0e46b83c7f8194ffae3781565b6105b96110c0565b348015610632575f80fd5b5061058c60045481565b348015610647575f80fd5b5060055461054c906301000000900460ff1681565b348015610667575f80fd5b5061058c610676366004614094565b5f9081526020819052604090206001015490565b348015610695575f80fd5b5061058c60105481565b3480156106aa575f80fd5b506105b96111a4565b3480156106be575f80fd5b506106d26106cd366004613fa8565b6112ae565b60405161055891906140ab565b3480156106ea575f80fd5b5061058c60185481565b3480156106ff575f80fd5b506105b961070e366004614094565b6113b4565b34801561071e575f80fd5b506105b961072d366004614148565b61178e565b34801561073d575f80fd5b5061058c61074c366004613fa8565b60096020525f908152604090205481565b348015610768575f80fd5b506105b9610777366004614148565b6117b8565b348015610787575f80fd5b5061058c60145481565b34801561079c575f80fd5b5061054c6107ab366004613fa8565b60076020525f908152604090205460ff1681565b3480156107ca575f80fd5b506105b96107d93660046141ba565b611800565b3480156107e9575f80fd5b506105b96107f83660046141ba565b611933565b348015610808575f80fd5b5061081c610817366004613fa8565b611a87565b604080519889526020890197909752958701949094526060860192909252608085015260a084015260c083015260e082015261010001610558565b348015610862575f80fd5b5060055461054c9062010000900460ff1681565b348015610881575f80fd5b506105b9610890366004614221565b611cb0565b3480156108a0575f80fd5b5061054c6108af366004613fa8565b7f00000000000000000000000000000000000000000000000000000000000000006001600160a01b0390811691161490565b3480156108ec575f80fd5b5060055461090790640100000000900465ffffffffffff1681565b60405165ffffffffffff9091168152602001610558565b348015610929575f80fd5b506105b9610938366004614094565b611d26565b348015610948575f80fd5b5061054c610957366004613fa8565b60086020525f908152604090205460ff1681565b348015610976575f80fd5b5060055461054c9060ff1681565b6105b9611ea3565b348015610997575f80fd5b506105b96109a6366004614256565b611f53565b3480156109b6575f80fd5b5061054c6109c5366004613fa8565b600d6020525f908152604090205460ff1681565b3480156109e4575f80fd5b506105b9611fe2565b3480156109f8575f80fd5b506105b9610a07366004613fe9565b612102565b348015610a17575f80fd5b506105b9610a26366004614272565b6121a5565b348015610a36575f80fd5b5061058c5f8051602061457383398151915281565b348015610a56575f80fd5b506105b9610a65366004613fe9565b6126e4565b348015610a75575f80fd5b506105b9610a84366004614094565b61277d565b348015610a94575f80fd5b507f00000000000000000000000000000000000000000000000000000000000000005b6040516001600160a01b039091168152602001610558565b348015610ada575f80fd5b506105b9610ae93660046142b1565b6128bf565b348015610af9575f80fd5b5061058c7f78c90eb9e475048b483a290aee04b5fe48355537c3623c7637b17d3bed71c6ed81565b348015610b2c575f80fd5b5061058c610b3b366004613fa8565b600b6020525f908152604090205481565b348015610b57575f80fd5b5061058c600f5481565b348015610b6c575f80fd5b50610ab773833589fcd6edb6e08f4c7c32d4f71b54bda0291381565b348015610b93575f80fd5b506105b9610ba2366004613fa8565b612a03565b348015610bb2575f80fd5b5061058c60115481565b348015610bc7575f80fd5b506105b9610bd6366004613fe9565b612ab8565b348015610be6575f80fd5b5061054c610bf5366004614148565b5f918252602082815260408084206001600160a01b0393909316845291905290205460ff1690565b348015610c28575f80fd5b506105b9610c37366004614094565b612c9b565b348015610c47575f80fd5b5061058c60155481565b348015610c5c575f80fd5b5061058c60035481565b348015610c71575f80fd5b50610ab7610c80366004614094565b612dfa565b348015610c90575f80fd5b5061058c5f81565b348015610ca3575f80fd5b50610cac612e22565b604080519e8f5260208f019d909d529b8d019a909a5260608c019890985260808b019690965260a08a019490945260c089019290925260e08801526101008701526101208601526101408501526101608401526101808301526101a08201526101c001610558565b348015610d1f575f80fd5b506105b9610d2e366004614300565b612efe565b348015610d3e575f80fd5b5060055461054c90610100900460ff1681565b348015610d5c575f80fd5b5061058c60135481565b348015610d71575f80fd5b506105b9610d803660046141ba565b613000565b348015610d90575f80fd5b506105b9613126565b348015610da4575f80fd5b506105b9610db3366004613fe9565b613219565b348015610dc3575f80fd5b506105b9610dd2366004614094565b613378565b348015610de2575f80fd5b506105b9610df1366004614148565b6133c4565b348015610e01575f80fd5b506105b9610e10366004614094565b6133e8565b348015610e20575f80fd5b506105b9613531565b348015610e34575f80fd5b5061058c7fc806897caf4fd5068191157e44d3988e43139a37e0b97b6793e1ed118414060481565b348015610e67575f80fd5b5061058c60165481565b348015610e7c575f80fd5b5061058c60125481565b348015610e91575f80fd5b506105b96135e2565b348015610ea5575f80fd5b5061058c7f65d7a28e3265b37a6474929f336521b332c1681b933f6cb9f3376673440d862a81565b348015610ed8575f80fd5b5061058c610ee7366004613fa8565b600a6020525f908152604090205481565b348015610f03575f80fd5b5061058c7f241ecf16d79d0f8dbfb92cbc07fe17840425976cf0667f022fe9877caa831b0881565b348015610f36575f80fd5b5061058c60025481565b348015610f4b575f80fd5b50600554610ab790600160501b90046001600160a01b031681565b348015610f71575f80fd5b506105b9610f803660046142b1565b6136fd565b348015610f90575f80fd5b506105b9610f9f366004614339565b6137ac565b6105b961381c565b348015610fb7575f80fd5b506105b9610fc6366004614094565b613924565b348015610fd6575f80fd5b5061058c60175481565b5f6001600160e01b03198216637965db0b60e01b148061101057506301ffc9a760e01b6001600160e01b03198316145b92915050565b5f8051602061457383398151915261102d81613ab6565b5060058054911515620100000262ff000019909216919091179055565b6006602052815f5260405f208181548110611063575f80fd5b5f918252602090912060029091020180546001909101546001600160601b038083169450600160601b830416925065ffffffffffff600160c01b90920482169181169060ff66010000000000008204811691600160381b90041686565b7f241ecf16d79d0f8dbfb92cbc07fe17840425976cf0667f022fe9877caa831b086110ea81613ab6565b6110f2613ac7565b345f036111125760405163162908e360e11b815260040160405180910390fd5b60175434111561113557604051630471131160e21b815260040160405180910390fd5b3460175f828254611146919061436c565b909155506111549050613af1565b6001600160a01b03167f1b0029d3a4003762f16d0dc71199ce167b1d4bf00c5b97a3e28f613e921d65405f34426040516111909392919061437f565b60405180910390a26111a160018055565b50565b6111ac613ac7565b5f6111b5613af1565b6001600160a01b0381165f908152600960205260408120549192508190036111f057604051633bd65a7b60e21b815260040160405180910390fd5b6001600160a01b0382165f908152600960205260408120819055611218908390836001613aff565b8060155f828254611229919061439e565b90915550506001600160a01b0382165f908152600b60205260408120805483929061125590849061439e565b92505081905550816001600160a01b03167f997d2ec09b086de73d509bbc4ad2b52fd7e2338024464bede93a41abd6ccdc385f83426040516112999392919061437f565b60405180910390a250506112ac60018055565b565b6001600160a01b0381165f908152600660209081526040808320805482518185028101850190935280835260609492939192909184015b828210156113a9575f8481526020908190206040805160c0810182526002860290920180546001600160601b038082168552600160601b82041694840194909452600160c01b90930465ffffffffffff90811691830191909152600180840154918216606084015291929160808401916601000000000000900460ff169081111561137257611372614011565b600181111561138357611383614011565b8152600191820154600160381b900460ff166020918201529183529290920191016112e5565b505050509050919050565b6113bc613ac7565b600554610100900460ff16156113e557604051636022a9e760e01b815260040160405180910390fd5b5f6113ee613af1565b6001600160a01b0381165f908152600660205260408120805492935090918490811061141c5761141c6143b1565b5f9182526020909120600160029092020181810154909250600160381b9004161561145a57604051636507689f60e01b815260040160405180910390fd5b60025481546114789190600160c01b900465ffffffffffff1661439e565b4210801561149257506001810154600160381b9004600216155b80156114c157506005546301000000900460ff1680156114bf57506001810154600160381b900460041615155b155b156114df5760405163f38b9b5b60e01b815260040160405180910390fd5b6001818101805467ff00ffffffffffff198116600160381b9182900460ff169093170265ffffffffffff1916919091174265ffffffffffff1617905580546001600160601b0380821691600160601b9004165f6001848101546601000000000000900460ff169081111561155557611555614011565b036115ec578160115f82825461156b919061439e565b909155505f90506001600160a01b038516611586838561439e565b6040515f81818185875af1925050503d805f81146115bf576040519150601f19603f3d011682016040523d82523d5f602084013e6115c4565b606091505b50509050806115e6576040516312171d8360e31b815260040160405180910390fd5b50611696565b8160125f8282546115fd919061439e565b9091555073833589fcd6edb6e08f4c7c32d4f71b54bda02913905063a9059cbb85611628848661439e565b6040516001600160e01b031960e085901b1681526001600160a01b03909216600483015260248201526044016020604051808303815f875af1158015611670573d5f803e3d5ffd5b505050506040513d601f19601f8201168201806040525081019061169491906143c5565b505b6001600160a01b0384165f9081526008602052604090205460ff1661172557600e805460018082019092557fbb7b4a454dc3493923482f07822329ed19e8244eff582cc204f8554c3620c3fd01805473ffffffffffffffffffffffffffffffffffffffff19166001600160a01b0387169081179091555f908152600860205260409020805460ff191690911790555b60018301546040516001600160a01b038616917fcb034b37ef3764745c35bafecd525367bcf312e9010239e6aeebbe6bcf57727f91611779916601000000000000900460ff16908690869042908c906143e0565b60405180910390a2505050506111a160018055565b5f828152602081905260409020600101546117a881613ab6565b6117b28383613d58565b50505050565b6117c0613af1565b6001600160a01b0316816001600160a01b0316146117f15760405163334bd91960e11b815260040160405180910390fd5b6117fb8282613e00565b505050565b5f8051602061457383398151915261181781613ab6565b8382146118375760405163512509d360e11b815260040160405180910390fd5b5f805b858110156118f1575f858583818110611855576118556143b1565b905060200201359050805f0361187e5760405163162908e360e11b815260040160405180910390fd5b80600a5f8a8a86818110611894576118946143b1565b90506020020160208101906118a99190613fa8565b6001600160a01b03166001600160a01b031681526020019081526020015f205f8282546118d6919061439e565b909155506118e69050818461439e565b92505060010161183a565b5060145481111561191557604051632f37549d60e01b815260040160405180910390fd5b8060145f828254611926919061436c565b9091555050505050505050565b5f8051602061457383398151915261194a81613ab6565b83821461196a5760405163512509d360e11b815260040160405180910390fd5b5f5b84811015611a7f57838382818110611986576119866143b1565b905060200201602081019061199b9190613fce565b60075f8888858181106119b0576119b06143b1565b90506020020160208101906119c59190613fa8565b6001600160a01b0316815260208101919091526040015f20805460ff19169115159190911790558585828181106119fe576119fe6143b1565b9050602002016020810190611a139190613fa8565b6001600160a01b03167f995d2434d36c9bceaab42c56efe51e8ffe41fd11cabefd9e2cb83700d8b2035e858584818110611a4f57611a4f6143b1565b9050602002016020810190611a649190613fce565b604051901515815260200160405180910390a260010161196c565b505050505050565b6001600160a01b0381165f9081526006602052604081208190819081908190819081908190815b8154811015611c77575f828281548110611aca57611aca6143b1565b5f9182526020918290206040805160c081018252600290930290910180546001600160601b038082168552600160601b8204169484019490945265ffffffffffff600160c01b909404841691830191909152600180820154938416606084015291929091608084019160ff66010000000000009091041690811115611b5157611b51614011565b6001811115611b6257611b62614011565b815260019190910154600160381b900460ff1660209091015260a081015190915060081615155f82608001516001811115611b9f57611b9f614011565b03611c0b578151611bb9906001600160601b03168d61439e565b9b50611bcb8260a00151600116151590565b15611be8578151611be5906001600160601b03168b61439e565b99505b8015611c06578151611c03906001600160601b03168761439e565b95505b611c6d565b8151611c20906001600160601b03168c61439e565b9a50611c328260a00151600116151590565b15611c4f578151611c4c906001600160601b03168a61439e565b98505b8015611c6d578151611c6a906001600160601b03168661439e565b94505b5050600101611aae565b50506001600160a01b039098165f90815260096020908152604080832054600a9092529091205497999698959794969095919350909150565b5f80516020614573833981519152611cc781613ab6565b6001600160a01b0383165f81815260076020908152604091829020805460ff191686151590811790915591519182527f995d2434d36c9bceaab42c56efe51e8ffe41fd11cabefd9e2cb83700d8b2035e910160405180910390a2505050565b7f241ecf16d79d0f8dbfb92cbc07fe17840425976cf0667f022fe9877caa831b08611d5081613ab6565b611d58613ac7565b815f03611d785760405163162908e360e11b815260040160405180910390fd5b601854821115611d9b57604051630471131160e21b815260040160405180910390fd5b8160185f828254611dac919061436c565b9091555073833589fcd6edb6e08f4c7c32d4f71b54bda0291390506323b872dd611dd4613af1565b6040516001600160e01b031960e084901b1681526001600160a01b039091166004820152306024820152604481018590526064016020604051808303815f875af1158015611e24573d5f803e3d5ffd5b505050506040513d601f19601f82011682018060405250810190611e4891906143c5565b50611e51613af1565b6001600160a01b03167f1b0029d3a4003762f16d0dc71199ce167b1d4bf00c5b97a3e28f613e921d654060018442604051611e8e9392919061437f565b60405180910390a2611e9f60018055565b5050565b7ff60566c40710959d8d30b6067ce3c53c757bec78eecb0e46b83c7f8194ffae37611ecd81613ab6565b345f03611eed5760405163162908e360e11b815260040160405180910390fd5b3460135f828254611efe919061439e565b90915550611f0c9050613af1565b6001600160a01b03167f8bafec96fcffb6f12596b4635c76397b7bc1f363b22c49c13136b63677323dcc5f3442604051611f489392919061437f565b60405180910390a250565b7f65d7a28e3265b37a6474929f336521b332c1681b933f6cb9f3376673440d862a611f7d81613ab6565b60058054831515610100810261ff001987151590811661ffff1990941693909317179092556040805191825260208201929092527fac1664632d6278432aa05a6afc0aa83e5ea08e8df9a1436736daa5d6283211c091015b60405180910390a1505050565b611fea613ac7565b5f611ff3613af1565b6001600160a01b0381165f908152600a602052604081205491925081900361202e57604051633bd65a7b60e21b815260040160405180910390fd5b6001600160a01b0382165f818152600a6020526040808220919091555163a9059cbb60e01b815260048101919091526024810182905273833589fcd6edb6e08f4c7c32d4f71b54bda029139063a9059cbb906044016020604051808303815f875af115801561209f573d5f803e3d5ffd5b505050506040513d601f19601f820116820180604052508101906120c391906143c5565b50816001600160a01b03167f6914793c7a82461acec66c7de7fdbbbf1f825c26bc2fe939b61f0e4f8964c2b5600183426040516112999392919061437f565b5f8051602061457383398151915261211981613ab6565b815f036121395760405163162908e360e11b815260040160405180910390fd5b60135482111561215c57604051632f37549d60e01b815260040160405180910390fd5b6001600160a01b0383165f908152600960205260408120805484929061218390849061439e565b925050819055508160135f82825461219b919061436c565b9091555050505050565b6121ad613ac7565b600554610100900460ff16156121d657604051636022a9e760e01b815260040160405180910390fd5b5f6121df613af1565b90505f805f805f805f5b8881101561243a575f8a8a83818110612204576122046143b1565b9050602002013590505f60065f8b6001600160a01b03166001600160a01b031681526020019081526020015f208281548110612242576122426143b1565b5f9182526020909120600160029092020181810154909250600160381b9004161561228057604051636507689f60e01b815260040160405180910390fd5b600254815461229e9190600160c01b900465ffffffffffff1661439e565b421080156122b857506001810154600160381b9004600216155b80156122e757506005546301000000900460ff1680156122e557506001810154600160381b900460041615155b155b156123055760405163f38b9b5b60e01b815260040160405180910390fd5b6001818101805467ff00ffffffffffff198116600160381b9182900460ff169093170265ffffffffffff1916919091174265ffffffffffff1617905580546001600160601b0380821691600160601b9004165f6001848101546601000000000000900460ff169081111561237b5761237b614011565b036123a95761238a828861439e565b9650612396828c61439e565b9a506123a2818b61439e565b99506123ce565b6123b3828761439e565b95506123bf828a61439e565b98506123cb818961439e565b97505b60018301546040516001600160a01b038e16917fcb034b37ef3764745c35bafecd525367bcf312e9010239e6aeebbe6bcf57727f91612422916601000000000000900460ff16908690869042908b906143e0565b60405180910390a25050600190920191506121e99050565b508115612458578160115f828254612452919061439e565b90915550505b8015612475578060125f82825461246f919061439e565b90915550505b6001600160a01b0387165f9081526008602052604090205460ff1615801561249c57508715155b1561251157600e805460018082019092557fbb7b4a454dc3493923482f07822329ed19e8244eff582cc204f8554c3620c3fd01805473ffffffffffffffffffffffffffffffffffffffff19166001600160a01b038a169081179091555f908152600860205260409020805460ff191690911790555b5f61251c868861439e565b11156125e4575f6001600160a01b038816612537878961439e565b6040515f81818185875af1925050503d805f8114612570576040519150601f19603f3d011682016040523d82523d5f602084013e612575565b606091505b5050905080612597576040516312171d8360e31b815260040160405180910390fd5b876001600160a01b03167fbf06e98fe211a4b82f625232ab1c7a75caea5e0d624bc267578d6f22fce788c35f8c8c8b8b426040516125da96959493929190614459565b60405180910390a2505b5f6125ef848661439e565b11156126d45773833589fcd6edb6e08f4c7c32d4f71b54bda0291363a9059cbb8861261a868861439e565b6040516001600160e01b031960e085901b1681526001600160a01b03909216600483015260248201526044016020604051808303815f875af1158015612662573d5f803e3d5ffd5b505050506040513d601f19601f8201168201806040525081019061268691906143c5565b50866001600160a01b03167fbf06e98fe211a4b82f625232ab1c7a75caea5e0d624bc267578d6f22fce788c360018b8b8888426040516126cb96959493929190614459565b60405180910390a25b50505050505050611e9f60018055565b5f805160206145738339815191526126fb81613ab6565b815f0361271b5760405163162908e360e11b815260040160405180910390fd5b60145482111561273e57604051632f37549d60e01b815260040160405180910390fd5b6001600160a01b0383165f908152600a60205260408120805484929061276590849061439e565b925050819055508160145f82825461219b919061436c565b7f78c90eb9e475048b483a290aee04b5fe48355537c3623c7637b17d3bed71c6ed6127a781613ab6565b6127af613ac7565b600554600160501b90046001600160a01b03166127df5760405163d92e233d60e01b815260040160405180910390fd5b60055460405163a9059cbb60e01b8152600160501b9091046001600160a01b031660048201526024810183905273833589fcd6edb6e08f4c7c32d4f71b54bda029139063a9059cbb906044016020604051808303815f875af1158015612847573d5f803e3d5ffd5b505050506040513d601f19601f8201168201806040525081019061286b91906143c5565b506005600a9054906101000a90046001600160a01b03166001600160a01b03167f9adbdc797aca3ce26a722598f00149b2328fd124444e6d0b10c4bdc7cfc3819660018442604051611e8e9392919061437f565b7fc806897caf4fd5068191157e44d3988e43139a37e0b97b6793e1ed11841406046128e981613ab6565b5f5b828110156129b9576001600160a01b0385165f90815260066020526040812085858481811061291c5761291c6143b1565b9050602002013581548110612933576129336143b1565b5f9182526020909120600160029092020181810154909250600160381b90041615158061296d57506001810154600160381b900460021615155b1561298b5760405163181821bd60e11b815260040160405180910390fd5b6001908101805467ff00000000000000198116600160381b9182900460ff16600217909102179055016128eb565b50836001600160a01b03167f8b655a966f162e1d3686ea25cd61682331984ab5662b451deff96f12d716f45b84846040516129f5929190614497565b60405180910390a250505050565b5f80516020614573833981519152612a1a81613ab6565b6001600160a01b038216612a415760405163d92e233d60e01b815260040160405180910390fd5b600580547fffff0000000000000000000000000000000000000000ffffffffffffffffffff16600160501b6001600160a01b038516908102919091179091556040519081527f1d6240e71a77c9e9d07d1d6ecbb9ea4274fcc8bc19adc5b05a3548ac7e40e189906020015b60405180910390a15050565b7f241ecf16d79d0f8dbfb92cbc07fe17840425976cf0667f022fe9877caa831b08612ae281613ab6565b612aea613ac7565b6001600160a01b038316612b115760405163d92e233d60e01b815260040160405180910390fd5b6040516370a0823160e01b815230600482015273833589fcd6edb6e08f4c7c32d4f71b54bda02913906370a0823190602401602060405180830381865afa158015612b5e573d5f803e3d5ffd5b505050506040513d601f19601f82011682018060405250810190612b8291906144b2565b821115612ba257604051631e9acf1760e31b815260040160405180910390fd5b8160185f828254612bb3919061439e565b909155505060405163a9059cbb60e01b81526001600160a01b03841660048201526024810183905273833589fcd6edb6e08f4c7c32d4f71b54bda029139063a9059cbb906044016020604051808303815f875af1158015612c16573d5f803e3d5ffd5b505050506040513d601f19601f82011682018060405250810190612c3a91906143c5565b50826001600160a01b0316612c4d613af1565b6001600160a01b03167f8d4f9c9a6da9172da9a02229d92e4af088c62953986a74048d010260b197def360018542604051612c8a9392919061437f565b60405180910390a36117fb60018055565b7f78c90eb9e475048b483a290aee04b5fe48355537c3623c7637b17d3bed71c6ed612cc581613ab6565b612ccd613ac7565b600554600160501b90046001600160a01b0316612cfd5760405163d92e233d60e01b815260040160405180910390fd5b47821115612d1e57604051631e9acf1760e31b815260040160405180910390fd5b6005546040515f91600160501b90046001600160a01b03169084908381818185875af1925050503d805f8114612d6f576040519150601f19603f3d011682016040523d82523d5f602084013e612d74565b606091505b5050905080612d96576040516312171d8360e31b815260040160405180910390fd5b6005600a9054906101000a90046001600160a01b03166001600160a01b03167f9adbdc797aca3ce26a722598f00149b2328fd124444e6d0b10c4bdc7cfc381965f8542604051612de89392919061437f565b60405180910390a250611e9f60018055565b600e8181548110612e09575f80fd5b5f918252602090912001546001600160a01b0316905081565b6040516370a0823160e01b815230600482015247905f9081908190819081908190819081908190819081908190819073833589fcd6edb6e08f4c7c32d4f71b54bda02913906370a0823190602401602060405180830381865afa158015612e8b573d5f803e3d5ffd5b505050506040513d601f19601f82011682018060405250810190612eaf91906144b2565b9c50600f549b506010549a50601154995060125498506013549750601454965060155495506016549450601754935060185492505f9150600e805490509050909192939495969798999a9b9c9d565b5f80516020614573833981519152612f1581613ab6565b6001600160a01b038316612f3c5760405163d92e233d60e01b815260040160405180910390fd5b60405163a9059cbb60e01b81526001600160a01b0384811660048301526024820184905285169063a9059cbb906044016020604051808303815f875af1158015612f88573d5f803e3d5ffd5b505050506040513d601f19601f82011682018060405250810190612fac91906143c5565b50826001600160a01b0316846001600160a01b03167f8bbfbb5d7fcacf6fc74005cdede0635561638507f576c95f7f294c22141be2e584604051612ff291815260200190565b60405180910390a350505050565b5f8051602061457383398151915261301781613ab6565b8382146130375760405163512509d360e11b815260040160405180910390fd5b5f805b858110156130f1575f858583818110613055576130556143b1565b905060200201359050805f0361307e5760405163162908e360e11b815260040160405180910390fd5b8060095f8a8a86818110613094576130946143b1565b90506020020160208101906130a99190613fa8565b6001600160a01b03166001600160a01b031681526020019081526020015f205f8282546130d6919061439e565b909155506130e69050818461439e565b92505060010161303a565b5060135481111561311557604051632f37549d60e01b815260040160405180910390fd5b8060135f828254611926919061436c565b61312e613ac7565b5f613137613af1565b6001600160a01b0381165f908152600a602052604081205491925081900361317257604051633bd65a7b60e21b815260040160405180910390fd5b6001600160a01b0382165f908152600a60205260408120556131978260018381613aff565b8060165f8282546131a8919061439e565b90915550506001600160a01b0382165f908152600c6020526040812080548392906131d490849061439e565b92505081905550816001600160a01b03167f997d2ec09b086de73d509bbc4ad2b52fd7e2338024464bede93a41abd6ccdc38600183426040516112999392919061437f565b7f241ecf16d79d0f8dbfb92cbc07fe17840425976cf0667f022fe9877caa831b0861324381613ab6565b61324b613ac7565b6001600160a01b0383166132725760405163d92e233d60e01b815260040160405180910390fd5b4782111561329357604051631e9acf1760e31b815260040160405180910390fd5b8160175f8282546132a4919061439e565b90915550506040515f906001600160a01b0385169084908381818185875af1925050503d805f81146132f1576040519150601f19603f3d011682016040523d82523d5f602084013e6132f6565b606091505b5050905080613318576040516312171d8360e31b815260040160405180910390fd5b836001600160a01b031661332a613af1565b6001600160a01b03167f8d4f9c9a6da9172da9a02229d92e4af088c62953986a74048d010260b197def35f86426040516133669392919061437f565b60405180910390a3506117fb60018055565b5f8051602061457383398151915261338f81613ab6565b60028290556040518281527fc5e00a325524bc148ddc05bb642b804e9ae1dfc670c217ed3c4c6595f7427ef490602001612aac565b5f828152602081905260409020600101546133de81613ab6565b6117b28383613e00565b7ff60566c40710959d8d30b6067ce3c53c757bec78eecb0e46b83c7f8194ffae3761341281613ab6565b815f036134325760405163162908e360e11b815260040160405180910390fd5b73833589fcd6edb6e08f4c7c32d4f71b54bda029136323b872dd613454613af1565b6040516001600160e01b031960e084901b1681526001600160a01b039091166004820152306024820152604481018590526064016020604051808303815f875af11580156134a4573d5f803e3d5ffd5b505050506040513d601f19601f820116820180604052508101906134c891906143c5565b508160145f8282546134da919061439e565b909155506134e89050613af1565b6001600160a01b03167f8bafec96fcffb6f12596b4635c76397b7bc1f363b22c49c13136b63677323dcc600184426040516135259392919061437f565b60405180910390a25050565b5f8051602061457383398151915261354881613ab6565b6005546301000000900460ff16156135735760405163ae7fe58960e01b815260040160405180910390fd5b6005805465ffffffffffff429081166401000000000269ffffffffffffff00000019909216919091176301000000179091556040517f2388ceaed48d21bd0802856df41a22705f9046a67a817a047352aa3bbfe5c5d1916135d79190815260200190565b60405180910390a150565b6135ea613ac7565b5f6135f3613af1565b6001600160a01b0381165f9081526009602052604081205491925081900361362e57604051633bd65a7b60e21b815260040160405180910390fd5b6001600160a01b0382165f818152600960205260408082208290555190919083908381818185875af1925050503d805f8114613685576040519150601f19603f3d011682016040523d82523d5f602084013e61368a565b606091505b50509050806136ac576040516312171d8360e31b815260040160405180910390fd5b826001600160a01b03167f6914793c7a82461acec66c7de7fdbbbf1f825c26bc2fe939b61f0e4f8964c2b55f84426040516136e99392919061437f565b60405180910390a25050506112ac60018055565b5f8051602061457383398151915261371481613ab6565b5f5b828110156137a5576001600160a01b0385165f90815260066020526040902060049085858481811061374a5761374a6143b1565b9050602002013581548110613761576137616143b1565b5f918252602090912060016002909202018101805460ff938416600160381b808304959095161790930267ff00000000000000199093169290921790915501613716565b5050505050565b5f805160206145738339815191526137c381613ab6565b5f8360018111156137d6576137d6614011565b036137e55760038290556137eb565b60048290555b7f5d7976bccd4b396c1a1a0020032e62bf8a381bcffc61e69a13ea61761b7572188383604051611fd59291906144c9565b613824613ac7565b60055460ff16156138485760405163deeb694360e01b815260040160405180910390fd5b345f81900361386a5760405163162908e360e11b815260040160405180910390fd5b60035481600f5461387b919061439e565b111561389a57604051636bf4c8e960e11b815260040160405180910390fd5b60055462010000900460ff1680156138d6575060075f6138b8613af1565b6001600160a01b0316815260208101919091526040015f205460ff16155b156138f457604051630b094f2760e31b815260040160405180910390fd5b6139076138ff613af1565b5f835f613aff565b80600f5f828254613918919061439e565b90915550506001805550565b61392c613ac7565b60055460ff16156139505760405163deeb694360e01b815260040160405180910390fd5b805f036139705760405163162908e360e11b815260040160405180910390fd5b60045481601054613981919061439e565b11156139a057604051636bf4c8e960e11b815260040160405180910390fd5b60055462010000900460ff1680156139dc575060075f6139be613af1565b6001600160a01b0316815260208101919091526040015f205460ff16155b156139fa57604051630b094f2760e31b815260040160405180910390fd5b73833589fcd6edb6e08f4c7c32d4f71b54bda029136323b872dd613a1c613af1565b6040516001600160e01b031960e084901b1681526001600160a01b039091166004820152306024820152604481018490526064016020604051808303815f875af1158015613a6c573d5f803e3d5ffd5b505050506040513d601f19601f82011682018060405250810190613a9091906143c5565b50613aa5613a9c613af1565b6001835f613aff565b8060105f828254613918919061439e565b6111a181613ac2613af1565b613e9f565b600260015403613aea57604051633ee5aeb560e01b815260040160405180910390fd5b6002600155565b5f613afa613ef5565b905090565b5f8115613b0a576008175b60065f866001600160a01b03166001600160a01b031681526020019081526020015f206040518060c00160405280856001600160601b031681526020015f6001600160601b031681526020014265ffffffffffff1681526020015f65ffffffffffff168152602001866001811115613b8457613b84614011565b815260ff84166020918201528254600181810185555f948552938290208351600290920201805492840151604085015165ffffffffffff908116600160c01b027fffff000000000000ffffffffffffffffffffffffffffffffffffffffffffffff6001600160601b03938416600160601b027fffffffffffffffff00000000000000000000000000000000000000000000000090971693909516929092179490941792909216919091178155606083015181850180549190931665ffffffffffff19821681178455608085015194959294939266ffffffffffffff1990921617906601000000000000908490811115613c7f57613c7f614011565b021790555060a091909101516001909101805467ff000000000000001916600160381b60ff938416021790556001600160a01b0386165f908152600d602052604090205416613ceb576001600160a01b0385165f908152600d60205260409020805460ff191660011790555b6001600160a01b0385165f818152600660205260409020547f48916ac7f9777648255ab8645729ff3b5d20aa412a40fe81dac2433522eaa05890869086904290613d379060019061436c565b87604051613d499594939291906144e4565b60405180910390a25050505050565b5f828152602081815260408083206001600160a01b038516845290915281205460ff16613df9575f838152602081815260408083206001600160a01b03861684529091529020805460ff19166001179055613db1613af1565b6001600160a01b0316826001600160a01b0316847f2f8788117e7eff1d82e926ec794901d17c78024a50270940304540a733656f0d60405160405180910390a4506001611010565b505f611010565b5f828152602081815260408083206001600160a01b038516845290915281205460ff1615613df9575f838152602081815260408083206001600160a01b03861684529091529020805460ff19169055613e57613af1565b6001600160a01b0316826001600160a01b0316847ff6391f5c32d9c69d2a47ea670b442974b53935d1edc7fd64eb21e047a839171b60405160405180910390a4506001611010565b5f828152602081815260408083206001600160a01b038516845290915290205460ff16611e9f5760405163e2517d3f60e01b81526001600160a01b03821660048201526024810183905260440160405180910390fd5b5f366014808210801590613f3157507f00000000000000000000000000000000000000000000000000000000000000006001600160a01b031633145b15613f5757613f4436828403815f614516565b613f4d9161453d565b60601c9250505090565b339250505090565b5f60208284031215613f6f575f80fd5b81356001600160e01b031981168114613f86575f80fd5b9392505050565b80356001600160a01b0381168114613fa3575f80fd5b919050565b5f60208284031215613fb8575f80fd5b613f8682613f8d565b80151581146111a1575f80fd5b5f60208284031215613fde575f80fd5b8135613f8681613fc1565b5f8060408385031215613ffa575f80fd5b61400383613f8d565b946020939093013593505050565b634e487b7160e01b5f52602160045260245ffd5b6002811061404157634e487b7160e01b5f52602160045260245ffd5b9052565b6001600160601b0387811682528616602082015265ffffffffffff85811660408301528416606082015260c081016140806080830185614025565b60ff831660a0830152979650505050505050565b5f602082840312156140a4575f80fd5b5035919050565b602080825282518282018190525f919060409081850190868401855b8281101561413b57815180516001600160601b0390811686528782015116878601528581015165ffffffffffff908116878701526060808301519091169086015260808082015161411a82880182614025565b505060a09081015160ff169085015260c090930192908501906001016140c7565b5091979650505050505050565b5f8060408385031215614159575f80fd5b8235915061416960208401613f8d565b90509250929050565b5f8083601f840112614182575f80fd5b50813567ffffffffffffffff811115614199575f80fd5b6020830191508360208260051b85010111156141b3575f80fd5b9250929050565b5f805f80604085870312156141cd575f80fd5b843567ffffffffffffffff808211156141e4575f80fd5b6141f088838901614172565b90965094506020870135915080821115614208575f80fd5b5061421587828801614172565b95989497509550505050565b5f8060408385031215614232575f80fd5b61423b83613f8d565b9150602083013561424b81613fc1565b809150509250929050565b5f8060408385031215614267575f80fd5b823561423b81613fc1565b5f8060208385031215614283575f80fd5b823567ffffffffffffffff811115614299575f80fd5b6142a585828601614172565b90969095509350505050565b5f805f604084860312156142c3575f80fd5b6142cc84613f8d565b9250602084013567ffffffffffffffff8111156142e7575f80fd5b6142f386828701614172565b9497909650939450505050565b5f805f60608486031215614312575f80fd5b61431b84613f8d565b925061432960208501613f8d565b9150604084013590509250925092565b5f806040838503121561434a575f80fd5b823560028110614003575f80fd5b634e487b7160e01b5f52601160045260245ffd5b8181038181111561101057611010614358565b6060810161438d8286614025565b602082019390935260400152919050565b8082018082111561101057611010614358565b634e487b7160e01b5f52603260045260245ffd5b5f602082840312156143d5575f80fd5b8151613f8681613fc1565b60a081016143ee8288614025565b8560208301528460408301528360608301528260808301529695505050505050565b8183525f7f07ffffffffffffffffffffffffffffffffffffffffffffffffffffffffffffff831115614440575f80fd5b8260051b80836020870137939093016020019392505050565b6144638188614025565b60a060208201525f61447960a083018789614410565b60408301959095525060608101929092526080909101529392505050565b602081525f6144aa602083018486614410565b949350505050565b5f602082840312156144c2575f80fd5b5051919050565b604081016144d78285614025565b8260208301529392505050565b60a081016144f28288614025565b85602083015284604083015283606083015282151560808301529695505050505050565b5f8085851115614524575f80fd5b83861115614530575f80fd5b5050820193919092039150565b6bffffffffffffffffffffffff19813581811691601485101561456a5780818660140360031b1b83161692505b50509291505056fea49807205ce4d355092ef5a8a18f56e8913cf4a201fbe287825b095693c21775a264697066735822122042e9ebc1ca4fbeff9599f2c978d028bcb284993a180046a58484cb16ff252efc64736f6c63430008190033",
      "opcodes": "PUSH1 0xA0 PUSH1 0x40 MSTORE PUSH3 0xED4E00 PUSH1 0x2 SSTORE PUSH11 0x422CA8B0A00A425000000 PUSH1 0x3 SSTORE PUSH6 0x48C27395000 PUSH1 0x4 SSTORE CALLVALUE DUP1 ISZERO PUSH2 0x2F JUMPI PUSH0 DUP1 REVERT JUMPDEST POP PUSH1 0x40 MLOAD PUSH2 0x4A84 CODESIZE SUB DUP1 PUSH2 0x4A84 DUP4 CODECOPY DUP2 ADD PUSH1 0x40 DUP2 SWAP1 MSTORE PUSH2 0x4E SWAP2 PUSH2 0x34B JUMP JUMPDEST PUSH1 0x1 DUP1 SSTORE PUSH1 0x1 PUSH1 0x1 PUSH1 0xA0 SHL SUB DUP1 DUP3 AND PUSH1 0x80 MSTORE DUP3 AND PUSH2 0x7F JUMPI PUSH1 0x40 MLOAD PUSH4 0xD92E233D PUSH1 0xE0 SHL DUP2 MSTORE PUSH1 0x4 ADD PUSH1 0x40 MLOAD DUP1 SWAP2 SUB SWAP1 REVERT JUMPDEST PUSH1 0x5 DUP1 SLOAD PUSH1 0x1 PUSH1 0x50 SHL PUSH1 0x1 PUSH1 0xF0 SHL SUB NOT AND PUSH11 0x100000000000000000000 PUSH1 0x1 PUSH1 0x1 PUSH1 0xA0 SHL SUB DUP6 AND MUL OR SWAP1 SSTORE PUSH0 JUMPDEST DUP4 MLOAD DUP2 LT ISZERO PUSH2 0x1F0 JUMPI PUSH0 DUP5 DUP3 DUP2 MLOAD DUP2 LT PUSH2 0xC8 JUMPI PUSH2 0xC8 PUSH2 0x42B JUMP JUMPDEST PUSH1 0x20 MUL PUSH1 0x20 ADD ADD MLOAD SWAP1 POP PUSH2 0xE4 PUSH0 DUP1 SHL DUP3 PUSH2 0x1F9 PUSH1 0x20 SHL PUSH1 0x20 SHR JUMP JUMPDEST POP PUSH2 0x10F PUSH32 0xA49807205CE4D355092EF5A8A18F56E8913CF4A201FBE287825B095693C21775 DUP3 PUSH2 0x1F9 JUMP JUMPDEST POP PUSH2 0x13A PUSH32 0x65D7A28E3265B37A6474929F336521B332C1681B933F6CB9F3376673440D862A DUP3 PUSH2 0x1F9 JUMP JUMPDEST POP PUSH2 0x165 PUSH32 0xC806897CAF4FD5068191157E44D3988E43139A37E0B97B6793E1ED1184140604 DUP3 PUSH2 0x1F9 JUMP JUMPDEST POP PUSH2 0x190 PUSH32 0xF60566C40710959D8D30B6067CE3C53C757BEC78EECB0E46B83C7F8194FFAE37 DUP3 PUSH2 0x1F9 JUMP JUMPDEST POP PUSH2 0x1BB PUSH32 0x78C90EB9E475048B483A290AEE04B5FE48355537C3623C7637B17D3BED71C6ED DUP3 PUSH2 0x1F9 JUMP JUMPDEST POP PUSH2 0x1E6 PUSH32 0x241ECF16D79D0F8DBFB92CBC07FE17840425976CF0667F022FE9877CAA831B08 DUP3 PUSH2 0x1F9 JUMP JUMPDEST POP POP PUSH1 0x1 ADD PUSH2 0xAC JUMP JUMPDEST POP POP POP POP PUSH2 0x496 JUMP JUMPDEST PUSH0 DUP3 DUP2 MSTORE PUSH1 0x20 DUP2 DUP2 MSTORE PUSH1 0x40 DUP1 DUP4 KECCAK256 PUSH1 0x1 PUSH1 0x1 PUSH1 0xA0 SHL SUB DUP6 AND DUP5 MSTORE SWAP1 SWAP2 MSTORE DUP2 KECCAK256 SLOAD PUSH1 0xFF AND PUSH2 0x29A JUMPI PUSH0 DUP4 DUP2 MSTORE PUSH1 0x20 DUP2 DUP2 MSTORE PUSH1 0x40 DUP1 DUP4 KECCAK256 PUSH1 0x1 PUSH1 0x1 PUSH1 0xA0 SHL SUB DUP7 AND DUP5 MSTORE SWAP1 SWAP2 MSTORE SWAP1 KECCAK256 DUP1 SLOAD PUSH1 0xFF NOT AND PUSH1 0x1 OR SWAP1 SSTORE PUSH2 0x252 PUSH2 0x2A3 JUMP JUMPDEST PUSH1 0x1 PUSH1 0x1 PUSH1 0xA0 SHL SUB AND DUP3 PUSH1 0x1 PUSH1 0x1 PUSH1 0xA0 SHL SUB AND DUP5 PUSH32 0x2F8788117E7EFF1D82E926EC794901D17C78024A50270940304540A733656F0D PUSH1 0x40 MLOAD PUSH1 0x40 MLOAD DUP1 SWAP2 SUB SWAP1 LOG4 POP PUSH1 0x1 PUSH2 0x29D JUMP JUMPDEST POP PUSH0 JUMPDEST SWAP3 SWAP2 POP POP JUMP JUMPDEST PUSH0 PUSH2 0x2AC PUSH2 0x2B1 JUMP JUMPDEST SWAP1 POP SWAP1 JUMP JUMPDEST PUSH0 CALLDATASIZE PUSH1 0x14 DUP1 DUP3 LT DUP1 ISZERO SWAP1 PUSH2 0x2C9 JUMPI POP PUSH2 0x2C9 CALLER PUSH2 0x2F7 JUMP JUMPDEST ISZERO PUSH2 0x2EF JUMPI PUSH2 0x2DC CALLDATASIZE DUP3 DUP5 SUB DUP2 PUSH0 PUSH2 0x43F JUMP JUMPDEST PUSH2 0x2E5 SWAP2 PUSH2 0x466 JUMP JUMPDEST PUSH1 0x60 SHR SWAP3 POP POP POP SWAP1 JUMP JUMPDEST CALLER SWAP3 POP POP POP SWAP1 JUMP JUMPDEST PUSH0 PUSH2 0x301 PUSH1 0x80 MLOAD SWAP1 JUMP JUMPDEST PUSH1 0x1 PUSH1 0x1 PUSH1 0xA0 SHL SUB AND DUP3 PUSH1 0x1 PUSH1 0x1 PUSH1 0xA0 SHL SUB AND EQ SWAP1 POP SWAP2 SWAP1 POP JUMP JUMPDEST PUSH4 0x4E487B71 PUSH1 0xE0 SHL PUSH0 MSTORE PUSH1 0x41 PUSH1 0x4 MSTORE PUSH1 0x24 PUSH0 REVERT JUMPDEST DUP1 MLOAD PUSH1 0x1 PUSH1 0x1 PUSH1 0xA0 SHL SUB DUP2 AND DUP2 EQ PUSH2 0x346 JUMPI PUSH0 DUP1 REVERT JUMPDEST SWAP2 SWAP1 POP JUMP JUMPDEST PUSH0 DUP1 PUSH0 PUSH1 0x60 DUP5 DUP7 SUB SLT ISZERO PUSH2 0x35D JUMPI PUSH0 DUP1 REVERT JUMPDEST DUP4 MLOAD PUSH1 0x1 PUSH1 0x1 PUSH1 0x40 SHL SUB DUP1 DUP3 GT ISZERO PUSH2 0x373 JUMPI PUSH0 DUP1 REVERT JUMPDEST DUP2 DUP7 ADD SWAP2 POP DUP7 PUSH1 0x1F DUP4 ADD SLT PUSH2 0x386 JUMPI PUSH0 DUP1 REVERT JUMPDEST DUP2 MLOAD PUSH1 0x20 DUP3 DUP3 GT ISZERO PUSH2 0x39A JUMPI PUSH2 0x39A PUSH2 0x31C JUMP JUMPDEST DUP2 PUSH1 0x5 SHL PUSH1 0x40 MLOAD PUSH1 0x1F NOT PUSH1 0x3F DUP4 ADD AND DUP2 ADD DUP2 DUP2 LT DUP7 DUP3 GT OR ISZERO PUSH2 0x3BF JUMPI PUSH2 0x3BF PUSH2 0x31C JUMP JUMPDEST PUSH1 0x40 MSTORE SWAP3 DUP4 MSTORE DUP2 DUP4 ADD SWAP4 POP DUP5 DUP2 ADD DUP3 ADD SWAP3 DUP11 DUP5 GT ISZERO PUSH2 0x3DC JUMPI PUSH0 DUP1 REVERT JUMPDEST SWAP5 DUP3 ADD SWAP5 JUMPDEST DUP4 DUP7 LT ISZERO PUSH2 0x401 JUMPI PUSH2 0x3F2 DUP7 PUSH2 0x330 JUMP JUMPDEST DUP6 MSTORE SWAP5 DUP3 ADD SWAP5 SWAP4 DUP3 ADD SWAP4 PUSH2 0x3E1 JUMP JUMPDEST SWAP8 POP PUSH2 0x410 SWAP1 POP DUP9 DUP3 ADD PUSH2 0x330 JUMP JUMPDEST SWAP6 POP POP POP POP POP PUSH2 0x422 PUSH1 0x40 DUP6 ADD PUSH2 0x330 JUMP JUMPDEST SWAP1 POP SWAP3 POP SWAP3 POP SWAP3 JUMP JUMPDEST PUSH4 0x4E487B71 PUSH1 0xE0 SHL PUSH0 MSTORE PUSH1 0x32 PUSH1 0x4 MSTORE PUSH1 0x24 PUSH0 REVERT JUMPDEST PUSH0 DUP1 DUP6 DUP6 GT ISZERO PUSH2 0x44D JUMPI PUSH0 DUP1 REVERT JUMPDEST DUP4 DUP7 GT ISZERO PUSH2 0x459 JUMPI PUSH0 DUP1 REVERT JUMPDEST POP POP DUP3 ADD SWAP4 SWAP2 SWAP1 SWAP3 SUB SWAP2 POP JUMP JUMPDEST PUSH1 0x1 PUSH1 0x1 PUSH1 0x60 SHL SUB NOT DUP2 CALLDATALOAD DUP2 DUP2 AND SWAP2 PUSH1 0x14 DUP6 LT ISZERO PUSH2 0x48E JUMPI DUP1 DUP2 DUP7 PUSH1 0x14 SUB PUSH1 0x3 SHL SHL DUP4 AND AND SWAP3 POP JUMPDEST POP POP SWAP3 SWAP2 POP POP JUMP JUMPDEST PUSH1 0x80 MLOAD PUSH2 0x45C8 PUSH2 0x4BC PUSH0 CODECOPY PUSH0 DUP2 DUP2 PUSH2 0x8B1 ADD MSTORE DUP2 DUP2 PUSH2 0xA97 ADD MSTORE PUSH2 0x3F06 ADD MSTORE PUSH2 0x45C8 PUSH0 RETURN INVALID PUSH1 0x80 PUSH1 0x40 MSTORE PUSH1 0x4 CALLDATASIZE LT PUSH2 0x522 JUMPI PUSH0 CALLDATALOAD PUSH1 0xE0 SHR DUP1 PUSH4 0x867D099A GT PUSH2 0x29F JUMPI DUP1 PUSH4 0xBDA821E8 GT PUSH2 0x170 JUMPI DUP1 PUSH4 0xE63AB1E9 GT PUSH2 0xD1 JUMPI DUP1 PUSH4 0xF5F11350 GT PUSH2 0x87 JUMPI DUP1 PUSH4 0xF6326FB3 GT PUSH2 0x6D JUMPI DUP1 PUSH4 0xF6326FB3 EQ PUSH2 0xFA4 JUMPI DUP1 PUSH4 0xF688BCFB EQ PUSH2 0xFAC JUMPI DUP1 PUSH4 0xFD46A171 EQ PUSH2 0xFCB JUMPI PUSH0 DUP1 REVERT JUMPDEST DUP1 PUSH4 0xF5F11350 EQ PUSH2 0xF66 JUMPI DUP1 PUSH4 0xF5F69AF2 EQ PUSH2 0xF85 JUMPI PUSH0 DUP1 REVERT JUMPDEST DUP1 PUSH4 0xEC87621C GT PUSH2 0xB7 JUMPI DUP1 PUSH4 0xEC87621C EQ PUSH2 0xEF8 JUMPI DUP1 PUSH4 0xEE947A7C EQ PUSH2 0xF2B JUMPI DUP1 PUSH4 0xF29B2239 EQ PUSH2 0xF40 JUMPI PUSH0 DUP1 REVERT JUMPDEST DUP1 PUSH4 0xE63AB1E9 EQ PUSH2 0xE9A JUMPI DUP1 PUSH4 0xE9FE0C78 EQ PUSH2 0xECD JUMPI PUSH0 DUP1 REVERT JUMPDEST DUP1 PUSH4 0xDA8D5ADD GT PUSH2 0x126 JUMPI DUP1 PUSH4 0xE15E23C1 GT PUSH2 0x10C JUMPI DUP1 PUSH4 0xE15E23C1 EQ PUSH2 0xE5C JUMPI DUP1 PUSH4 0xE340B783 EQ PUSH2 0xE71 JUMPI DUP1 PUSH4 0xE399067F EQ PUSH2 0xE86 JUMPI PUSH0 DUP1 REVERT JUMPDEST DUP1 PUSH4 0xDA8D5ADD EQ PUSH2 0xE15 JUMPI DUP1 PUSH4 0xE043B2B2 EQ PUSH2 0xE29 JUMPI PUSH0 DUP1 REVERT JUMPDEST DUP1 PUSH4 0xC771C390 GT PUSH2 0x156 JUMPI DUP1 PUSH4 0xC771C390 EQ PUSH2 0xDB8 JUMPI DUP1 PUSH4 0xD547741F EQ PUSH2 0xDD7 JUMPI DUP1 PUSH4 0xD830D5CC EQ PUSH2 0xDF6 JUMPI PUSH0 DUP1 REVERT JUMPDEST DUP1 PUSH4 0xBDA821E8 EQ PUSH2 0xD85 JUMPI DUP1 PUSH4 0xC6D95B74 EQ PUSH2 0xD99 JUMPI PUSH0 DUP1 REVERT JUMPDEST DUP1 PUSH4 0x93055C43 GT PUSH2 0x21A JUMPI DUP1 PUSH4 0xA59AA5A6 GT PUSH2 0x1D0 JUMPI DUP1 PUSH4 0xB2B77AE2 GT PUSH2 0x1B6 JUMPI DUP1 PUSH4 0xB2B77AE2 EQ PUSH2 0xD33 JUMPI DUP1 PUSH4 0xB65BA94B EQ PUSH2 0xD51 JUMPI DUP1 PUSH4 0xB758AEAA EQ PUSH2 0xD66 JUMPI PUSH0 DUP1 REVERT JUMPDEST DUP1 PUSH4 0xA59AA5A6 EQ PUSH2 0xC98 JUMPI DUP1 PUSH4 0xB2118A8D EQ PUSH2 0xD14 JUMPI PUSH0 DUP1 REVERT JUMPDEST DUP1 PUSH4 0x9DDC3912 GT PUSH2 0x200 JUMPI DUP1 PUSH4 0x9DDC3912 EQ PUSH2 0xC51 JUMPI DUP1 PUSH4 0x9E657E33 EQ PUSH2 0xC66 JUMPI DUP1 PUSH4 0xA217FDDF EQ PUSH2 0xC85 JUMPI PUSH0 DUP1 REVERT JUMPDEST DUP1 PUSH4 0x93055C43 EQ PUSH2 0xC1D JUMPI DUP1 PUSH4 0x97D9E5B4 EQ PUSH2 0xC3C JUMPI PUSH0 DUP1 REVERT JUMPDEST DUP1 PUSH4 0x89A30271 GT PUSH2 0x26F JUMPI DUP1 PUSH4 0x8B713B2E GT PUSH2 0x255 JUMPI DUP1 PUSH4 0x8B713B2E EQ PUSH2 0xBA7 JUMPI DUP1 PUSH4 0x8DD4928E EQ PUSH2 0xBBC JUMPI DUP1 PUSH4 0x91D14854 EQ PUSH2 0xBDB JUMPI PUSH0 DUP1 REVERT JUMPDEST DUP1 PUSH4 0x89A30271 EQ PUSH2 0xB61 JUMPI DUP1 PUSH4 0x89BAD0A6 EQ PUSH2 0xB88 JUMPI PUSH0 DUP1 REVERT JUMPDEST DUP1 PUSH4 0x867D099A EQ PUSH2 0xACF JUMPI DUP1 PUSH4 0x885F5029 EQ PUSH2 0xAEE JUMPI DUP1 PUSH4 0x886D589D EQ PUSH2 0xB21 JUMPI DUP1 PUSH4 0x899AA991 EQ PUSH2 0xB4C JUMPI PUSH0 DUP1 REVERT JUMPDEST DUP1 PUSH4 0x41DEBF1F GT PUSH2 0x3F3 JUMPI DUP1 PUSH4 0x64021B13 GT PUSH2 0x354 JUMPI DUP1 PUSH4 0x72E55399 GT PUSH2 0x30A JUMPI DUP1 PUSH4 0x762E1C73 GT PUSH2 0x2F0 JUMPI DUP1 PUSH4 0x762E1C73 EQ PUSH2 0xA4B JUMPI DUP1 PUSH4 0x76C1D3DB EQ PUSH2 0xA6A JUMPI DUP1 PUSH4 0x7DA0A877 EQ PUSH2 0xA89 JUMPI PUSH0 DUP1 REVERT JUMPDEST DUP1 PUSH4 0x72E55399 EQ PUSH2 0xA0C JUMPI DUP1 PUSH4 0x75B238FC EQ PUSH2 0xA2B JUMPI PUSH0 DUP1 REVERT JUMPDEST DUP1 PUSH4 0x65D5EC96 GT PUSH2 0x33A JUMPI DUP1 PUSH4 0x65D5EC96 EQ PUSH2 0x9AB JUMPI DUP1 PUSH4 0x6C6FF56C EQ PUSH2 0x9D9 JUMPI DUP1 PUSH4 0x6EC23995 EQ PUSH2 0x9ED JUMPI PUSH0 DUP1 REVERT JUMPDEST DUP1 PUSH4 0x64021B13 EQ PUSH2 0x984 JUMPI DUP1 PUSH4 0x6426BE48 EQ PUSH2 0x98C JUMPI PUSH0 DUP1 REVERT JUMPDEST DUP1 PUSH4 0x572B6C05 GT PUSH2 0x3A9 JUMPI DUP1 PUSH4 0x5983B0BD GT PUSH2 0x38F JUMPI DUP1 PUSH4 0x5983B0BD EQ PUSH2 0x91E JUMPI DUP1 PUSH4 0x5E2C19DB EQ PUSH2 0x93D JUMPI DUP1 PUSH4 0x6068D6CB EQ PUSH2 0x96B JUMPI PUSH0 DUP1 REVERT JUMPDEST DUP1 PUSH4 0x572B6C05 EQ PUSH2 0x895 JUMPI DUP1 PUSH4 0x588583A0 EQ PUSH2 0x8E1 JUMPI PUSH0 DUP1 REVERT JUMPDEST DUP1 PUSH4 0x4E43603A GT PUSH2 0x3D9 JUMPI DUP1 PUSH4 0x4E43603A EQ PUSH2 0x7FD JUMPI DUP1 PUSH4 0x51FB012D EQ PUSH2 0x857 JUMPI DUP1 PUSH4 0x53D6FD59 EQ PUSH2 0x876 JUMPI PUSH0 DUP1 REVERT JUMPDEST DUP1 PUSH4 0x41DEBF1F EQ PUSH2 0x7BF JUMPI DUP1 PUSH4 0x47AF19AA EQ PUSH2 0x7DE JUMPI PUSH0 DUP1 REVERT JUMPDEST DUP1 PUSH4 0x27175B23 GT PUSH2 0x49D JUMPI DUP1 PUSH4 0x2F2FF15D GT PUSH2 0x453 JUMPI DUP1 PUSH4 0x36568ABE GT PUSH2 0x439 JUMPI DUP1 PUSH4 0x36568ABE EQ PUSH2 0x75D JUMPI DUP1 PUSH4 0x3AC43970 EQ PUSH2 0x77C JUMPI DUP1 PUSH4 0x3AF32ABF EQ PUSH2 0x791 JUMPI PUSH0 DUP1 REVERT JUMPDEST DUP1 PUSH4 0x2F2FF15D EQ PUSH2 0x713 JUMPI DUP1 PUSH4 0x3408567C EQ PUSH2 0x732 JUMPI PUSH0 DUP1 REVERT JUMPDEST DUP1 PUSH4 0x2A5BF6D2 GT PUSH2 0x483 JUMPI DUP1 PUSH4 0x2A5BF6D2 EQ PUSH2 0x6B3 JUMPI DUP1 PUSH4 0x2AAD5EDD EQ PUSH2 0x6DF JUMPI DUP1 PUSH4 0x2E1A7D4D EQ PUSH2 0x6F4 JUMPI PUSH0 DUP1 REVERT JUMPDEST DUP1 PUSH4 0x27175B23 EQ PUSH2 0x68A JUMPI DUP1 PUSH4 0x275991D2 EQ PUSH2 0x69F JUMPI PUSH0 DUP1 REVERT JUMPDEST DUP1 PUSH4 0xC016AD5 GT PUSH2 0x4F2 JUMPI DUP1 PUSH4 0x1C5AEEF7 GT PUSH2 0x4D8 JUMPI DUP1 PUSH4 0x1C5AEEF7 EQ PUSH2 0x627 JUMPI DUP1 PUSH4 0x246D47B7 EQ PUSH2 0x63C JUMPI DUP1 PUSH4 0x248A9CA3 EQ PUSH2 0x65C JUMPI PUSH0 DUP1 REVERT JUMPDEST DUP1 PUSH4 0xC016AD5 EQ PUSH2 0x5EC JUMPI DUP1 PUSH4 0x17B51642 EQ PUSH2 0x61F JUMPI PUSH0 DUP1 REVERT JUMPDEST DUP1 PUSH4 0x1FFC9A7 EQ PUSH2 0x52D JUMPI DUP1 PUSH4 0x4C68AF0 EQ PUSH2 0x561 JUMPI DUP1 PUSH4 0x52D9E7E EQ PUSH2 0x59A JUMPI DUP1 PUSH4 0x8F43333 EQ PUSH2 0x5BB JUMPI PUSH0 DUP1 REVERT JUMPDEST CALLDATASIZE PUSH2 0x529 JUMPI STOP JUMPDEST PUSH0 DUP1 REVERT JUMPDEST CALLVALUE DUP1 ISZERO PUSH2 0x538 JUMPI PUSH0 DUP1 REVERT JUMPDEST POP PUSH2 0x54C PUSH2 0x547 CALLDATASIZE PUSH1 0x4 PUSH2 0x3F5F JUMP JUMPDEST PUSH2 0xFE0 JUMP JUMPDEST PUSH1 0x40 MLOAD SWAP1 ISZERO ISZERO DUP2 MSTORE PUSH1 0x20 ADD JUMPDEST PUSH1 0x40 MLOAD DUP1 SWAP2 SUB SWAP1 RETURN JUMPDEST CALLVALUE DUP1 ISZERO PUSH2 0x56C JUMPI PUSH0 DUP1 REVERT JUMPDEST POP PUSH2 0x58C PUSH2 0x57B CALLDATASIZE PUSH1 0x4 PUSH2 0x3FA8 JUMP JUMPDEST PUSH1 0xC PUSH1 0x20 MSTORE PUSH0 SWAP1 DUP2 MSTORE PUSH1 0x40 SWAP1 KECCAK256 SLOAD DUP2 JUMP JUMPDEST PUSH1 0x40 MLOAD SWAP1 DUP2 MSTORE PUSH1 0x20 ADD PUSH2 0x558 JUMP JUMPDEST CALLVALUE DUP1 ISZERO PUSH2 0x5A5 JUMPI PUSH0 DUP1 REVERT JUMPDEST POP PUSH2 0x5B9 PUSH2 0x5B4 CALLDATASIZE PUSH1 0x4 PUSH2 0x3FCE JUMP JUMPDEST PUSH2 0x1016 JUMP JUMPDEST STOP JUMPDEST CALLVALUE DUP1 ISZERO PUSH2 0x5C6 JUMPI PUSH0 DUP1 REVERT JUMPDEST POP PUSH2 0x5DA PUSH2 0x5D5 CALLDATASIZE PUSH1 0x4 PUSH2 0x3FE9 JUMP JUMPDEST PUSH2 0x104A JUMP JUMPDEST PUSH1 0x40 MLOAD PUSH2 0x558 SWAP7 SWAP6 SWAP5 SWAP4 SWAP3 SWAP2 SWAP1 PUSH2 0x4045 JUMP JUMPDEST CALLVALUE DUP1 ISZERO PUSH2 0x5F7 JUMPI PUSH0 DUP1 REVERT JUMPDEST POP PUSH2 0x58C PUSH32 0xF60566C40710959D8D30B6067CE3C53C757BEC78EECB0E46B83C7F8194FFAE37 DUP2 JUMP JUMPDEST PUSH2 0x5B9 PUSH2 0x10C0 JUMP JUMPDEST CALLVALUE DUP1 ISZERO PUSH2 0x632 JUMPI PUSH0 DUP1 REVERT JUMPDEST POP PUSH2 0x58C PUSH1 0x4 SLOAD DUP2 JUMP JUMPDEST CALLVALUE DUP1 ISZERO PUSH2 0x647 JUMPI PUSH0 DUP1 REVERT JUMPDEST POP PUSH1 0x5 SLOAD PUSH2 0x54C SWAP1 PUSH4 0x1000000 SWAP1 DIV PUSH1 0xFF AND DUP2 JUMP JUMPDEST CALLVALUE DUP1 ISZERO PUSH2 0x667 JUMPI PUSH0 DUP1 REVERT JUMPDEST POP PUSH2 0x58C PUSH2 0x676 CALLDATASIZE PUSH1 0x4 PUSH2 0x4094 JUMP JUMPDEST PUSH0 SWAP1 DUP2 MSTORE PUSH1 0x20 DUP2 SWAP1 MSTORE PUSH1 0x40 SWAP1 KECCAK256 PUSH1 0x1 ADD SLOAD SWAP1 JUMP JUMPDEST CALLVALUE DUP1 ISZERO PUSH2 0x695 JUMPI PUSH0 DUP1 REVERT JUMPDEST POP PUSH2 0x58C PUSH1 0x10 SLOAD DUP2 JUMP JUMPDEST CALLVALUE DUP1 ISZERO PUSH2 0x6AA JUMPI PUSH0 DUP1 REVERT JUMPDEST POP PUSH2 0x5B9 PUSH2 0x11A4 JUMP JUMPDEST CALLVALUE DUP1 ISZERO PUSH2 0x6BE JUMPI PUSH0 DUP1 REVERT JUMPDEST POP PUSH2 0x6D2 PUSH2 0x6CD CALLDATASIZE PUSH1 0x4 PUSH2 0x3FA8 JUMP JUMPDEST PUSH2 0x12AE JUMP JUMPDEST PUSH1 0x40 MLOAD PUSH2 0x558 SWAP2 SWAP1 PUSH2 0x40AB JUMP JUMPDEST CALLVALUE DUP1 ISZERO PUSH2 0x6EA JUMPI PUSH0 DUP1 REVERT JUMPDEST POP PUSH2 0x58C PUSH1 0x18 SLOAD DUP2 JUMP JUMPDEST CALLVALUE DUP1 ISZERO PUSH2 0x6FF JUMPI PUSH0 DUP1 REVERT JUMPDEST POP PUSH2 0x5B9 PUSH2 0x70E CALLDATASIZE PUSH1 0x4 PUSH2 0x4094 JUMP JUMPDEST PUSH2 0x13B4 JUMP JUMPDEST CALLVALUE DUP1 ISZERO PUSH2 0x71E JUMPI PUSH0 DUP1 REVERT JUMPDEST POP PUSH2 0x5B9 PUSH2 0x72D CALLDATASIZE PUSH1 0x4 PUSH2 0x4148 JUMP JUMPDEST PUSH2 0x178E JUMP JUMPDEST CALLVALUE DUP1 ISZERO PUSH2 0x73D JUMPI PUSH0 DUP1 REVERT JUMPDEST POP PUSH2 0x58C PUSH2 0x74C CALLDATASIZE PUSH1 0x4 PUSH2 0x3FA8 JUMP JUMPDEST PUSH1 0x9 PUSH1 0x20 MSTORE PUSH0 SWAP1 DUP2 MSTORE PUSH1 0x40 SWAP1 KECCAK256 SLOAD DUP2 JUMP JUMPDEST CALLVALUE DUP1 ISZERO PUSH2 0x768 JUMPI PUSH0 DUP1 REVERT JUMPDEST POP PUSH2 0x5B9 PUSH2 0x777 CALLDATASIZE PUSH1 0x4 PUSH2 0x4148 JUMP JUMPDEST PUSH2 0x17B8 JUMP JUMPDEST CALLVALUE DUP1 ISZERO PUSH2 0x787 JUMPI PUSH0 DUP1 REVERT JUMPDEST POP PUSH2 0x58C PUSH1 0x14 SLOAD DUP2 JUMP JUMPDEST CALLVALUE DUP1 ISZERO PUSH2 0x79C JUMPI PUSH0 DUP1 REVERT JUMPDEST POP PUSH2 0x54C PUSH2 0x7AB CALLDATASIZE PUSH1 0x4 PUSH2 0x3FA8 JUMP JUMPDEST PUSH1 0x7 PUSH1 0x20 MSTORE PUSH0 SWAP1 DUP2 MSTORE PUSH1 0x40 SWAP1 KECCAK256 SLOAD PUSH1 0xFF AND DUP2 JUMP JUMPDEST CALLVALUE DUP1 ISZERO PUSH2 0x7CA JUMPI PUSH0 DUP1 REVERT JUMPDEST POP PUSH2 0x5B9 PUSH2 0x7D9 CALLDATASIZE PUSH1 0x4 PUSH2 0x41BA JUMP JUMPDEST PUSH2 0x1800 JUMP JUMPDEST CALLVALUE DUP1 ISZERO PUSH2 0x7E9 JUMPI PUSH0 DUP1 REVERT JUMPDEST POP PUSH2 0x5B9 PUSH2 0x7F8 CALLDATASIZE PUSH1 0x4 PUSH2 0x41BA JUMP JUMPDEST PUSH2 0x1933 JUMP JUMPDEST CALLVALUE DUP1 ISZERO PUSH2 0x808 JUMPI PUSH0 DUP1 REVERT JUMPDEST POP PUSH2 0x81C PUSH2 0x817 CALLDATASIZE PUSH1 0x4 PUSH2 0x3FA8 JUMP JUMPDEST PUSH2 0x1A87 JUMP JUMPDEST PUSH1 0x40 DUP1 MLOAD SWAP9 DUP10 MSTORE PUSH1 0x20 DUP10 ADD SWAP8 SWAP1 SWAP8 MSTORE SWAP6 DUP8 ADD SWAP5 SWAP1 SWAP5 MSTORE PUSH1 0x60 DUP7 ADD SWAP3 SWAP1 SWAP3 MSTORE PUSH1 0x80 DUP6 ADD MSTORE PUSH1 0xA0 DUP5 ADD MSTORE PUSH1 0xC0 DUP4 ADD MSTORE PUSH1 0xE0 DUP3 ADD MSTORE PUSH2 0x100 ADD PUSH2 0x558 JUMP JUMPDEST CALLVALUE DUP1 ISZERO PUSH2 0x862 JUMPI PUSH0 DUP1 REVERT JUMPDEST POP PUSH1 0x5 SLOAD PUSH2 0x54C SWAP1 PUSH3 0x10000 SWAP1 DIV PUSH1 0xFF AND DUP2 JUMP JUMPDEST CALLVALUE DUP1 ISZERO PUSH2 0x881 JUMPI PUSH0 DUP1 REVERT JUMPDEST POP PUSH2 0x5B9 PUSH2 0x890 CALLDATASIZE PUSH1 0x4 PUSH2 0x4221 JUMP JUMPDEST PUSH2 0x1CB0 JUMP JUMPDEST CALLVALUE DUP1 ISZERO PUSH2 0x8A0 JUMPI PUSH0 DUP1 REVERT JUMPDEST POP PUSH2 0x54C PUSH2 0x8AF CALLDATASIZE PUSH1 0x4 PUSH2 0x3FA8 JUMP JUMPDEST PUSH32 0x0 PUSH1 0x1 PUSH1 0x1 PUSH1 0xA0 SHL SUB SWAP1 DUP2 AND SWAP2 AND EQ SWAP1 JUMP JUMPDEST CALLVALUE DUP1 ISZERO PUSH2 0x8EC JUMPI PUSH0 DUP1 REVERT JUMPDEST POP PUSH1 0x5 SLOAD PUSH2 0x907 SWAP1 PUSH5 0x100000000 SWAP1 DIV PUSH6 0xFFFFFFFFFFFF AND DUP2 JUMP JUMPDEST PUSH1 0x40 MLOAD PUSH6 0xFFFFFFFFFFFF SWAP1 SWAP2 AND DUP2 MSTORE PUSH1 0x20 ADD PUSH2 0x558 JUMP JUMPDEST CALLVALUE DUP1 ISZERO PUSH2 0x929 JUMPI PUSH0 DUP1 REVERT JUMPDEST POP PUSH2 0x5B9 PUSH2 0x938 CALLDATASIZE PUSH1 0x4 PUSH2 0x4094 JUMP JUMPDEST PUSH2 0x1D26 JUMP JUMPDEST CALLVALUE DUP1 ISZERO PUSH2 0x948 JUMPI PUSH0 DUP1 REVERT JUMPDEST POP PUSH2 0x54C PUSH2 0x957 CALLDATASIZE PUSH1 0x4 PUSH2 0x3FA8 JUMP JUMPDEST PUSH1 0x8 PUSH1 0x20 MSTORE PUSH0 SWAP1 DUP2 MSTORE PUSH1 0x40 SWAP1 KECCAK256 SLOAD PUSH1 0xFF AND DUP2 JUMP JUMPDEST CALLVALUE DUP1 ISZERO PUSH2 0x976 JUMPI PUSH0 DUP1 REVERT JUMPDEST POP PUSH1 0x5 SLOAD PUSH2 0x54C SWAP1 PUSH1 0xFF AND DUP2 JUMP JUMPDEST PUSH2 0x5B9 PUSH2 0x1EA3 JUMP JUMPDEST CALLVALUE DUP1 ISZERO PUSH2 0x997 JUMPI PUSH0 DUP1 REVERT JUMPDEST POP PUSH2 0x5B9 PUSH2 0x9A6 CALLDATASIZE PUSH1 0x4 PUSH2 0x4256 JUMP JUMPDEST PUSH2 0x1F53 JUMP JUMPDEST CALLVALUE DUP1 ISZERO PUSH2 0x9B6 JUMPI PUSH0 DUP1 REVERT JUMPDEST POP PUSH2 0x54C PUSH2 0x9C5 CALLDATASIZE PUSH1 0x4 PUSH2 0x3FA8 JUMP JUMPDEST PUSH1 0xD PUSH1 0x20 MSTORE PUSH0 SWAP1 DUP2 MSTORE PUSH1 0x40 SWAP1 KECCAK256 SLOAD PUSH1 0xFF AND DUP2 JUMP JUMPDEST CALLVALUE DUP1 ISZERO PUSH2 0x9E4 JUMPI PUSH0 DUP1 REVERT JUMPDEST POP PUSH2 0x5B9 PUSH2 0x1FE2 JUMP JUMPDEST CALLVALUE DUP1 ISZERO PUSH2 0x9F8 JUMPI PUSH0 DUP1 REVERT JUMPDEST POP PUSH2 0x5B9 PUSH2 0xA07 CALLDATASIZE PUSH1 0x4 PUSH2 0x3FE9 JUMP JUMPDEST PUSH2 0x2102 JUMP JUMPDEST CALLVALUE DUP1 ISZERO PUSH2 0xA17 JUMPI PUSH0 DUP1 REVERT JUMPDEST POP PUSH2 0x5B9 PUSH2 0xA26 CALLDATASIZE PUSH1 0x4 PUSH2 0x4272 JUMP JUMPDEST PUSH2 0x21A5 JUMP JUMPDEST CALLVALUE DUP1 ISZERO PUSH2 0xA36 JUMPI PUSH0 DUP1 REVERT JUMPDEST POP PUSH2 0x58C PUSH0 DUP1 MLOAD PUSH1 0x20 PUSH2 0x4573 DUP4 CODECOPY DUP2 MLOAD SWAP2 MSTORE DUP2 JUMP JUMPDEST CALLVALUE DUP1 ISZERO PUSH2 0xA56 JUMPI PUSH0 DUP1 REVERT JUMPDEST POP PUSH2 0x5B9 PUSH2 0xA65 CALLDATASIZE PUSH1 0x4 PUSH2 0x3FE9 JUMP JUMPDEST PUSH2 0x26E4 JUMP JUMPDEST CALLVALUE DUP1 ISZERO PUSH2 0xA75 JUMPI PUSH0 DUP1 REVERT JUMPDEST POP PUSH2 0x5B9 PUSH2 0xA84 CALLDATASIZE PUSH1 0x4 PUSH2 0x4094 JUMP JUMPDEST PUSH2 0x277D JUMP JUMPDEST CALLVALUE DUP1 ISZERO PUSH2 0xA94 JUMPI PUSH0 DUP1 REVERT JUMPDEST POP PUSH32 0x0 JUMPDEST PUSH1 0x40 MLOAD PUSH1 0x1 PUSH1 0x1 PUSH1 0xA0 SHL SUB SWAP1 SWAP2 AND DUP2 MSTORE PUSH1 0x20 ADD PUSH2 0x558 JUMP JUMPDEST CALLVALUE DUP1 ISZERO PUSH2 0xADA JUMPI PUSH0 DUP1 REVERT JUMPDEST POP PUSH2 0x5B9 PUSH2 0xAE9 CALLDATASIZE PUSH1 0x4 PUSH2 0x42B1 JUMP JUMPDEST PUSH2 0x28BF JUMP JUMPDEST CALLVALUE DUP1 ISZERO PUSH2 0xAF9 JUMPI PUSH0 DUP1 REVERT JUMPDEST POP PUSH2 0x58C PUSH32 0x78C90EB9E475048B483A290AEE04B5FE48355537C3623C7637B17D3BED71C6ED DUP2 JUMP JUMPDEST CALLVALUE DUP1 ISZERO PUSH2 0xB2C JUMPI PUSH0 DUP1 REVERT JUMPDEST POP PUSH2 0x58C PUSH2 0xB3B CALLDATASIZE PUSH1 0x4 PUSH2 0x3FA8 JUMP JUMPDEST PUSH1 0xB PUSH1 0x20 MSTORE PUSH0 SWAP1 DUP2 MSTORE PUSH1 0x40 SWAP1 KECCAK256 SLOAD DUP2 JUMP JUMPDEST CALLVALUE DUP1 ISZERO PUSH2 0xB57 JUMPI PUSH0 DUP1 REVERT JUMPDEST POP PUSH2 0x58C PUSH1 0xF SLOAD DUP2 JUMP JUMPDEST CALLVALUE DUP1 ISZERO PUSH2 0xB6C JUMPI PUSH0 DUP1 REVERT JUMPDEST POP PUSH2 0xAB7 PUSH20 0x833589FCD6EDB6E08F4C7C32D4F71B54BDA02913 DUP2 JUMP JUMPDEST CALLVALUE DUP1 ISZERO PUSH2 0xB93 JUMPI PUSH0 DUP1 REVERT JUMPDEST POP PUSH2 0x5B9 PUSH2 0xBA2 CALLDATASIZE PUSH1 0x4 PUSH2 0x3FA8 JUMP JUMPDEST PUSH2 0x2A03 JUMP JUMPDEST CALLVALUE DUP1 ISZERO PUSH2 0xBB2 JUMPI PUSH0 DUP1 REVERT JUMPDEST POP PUSH2 0x58C PUSH1 0x11 SLOAD DUP2 JUMP JUMPDEST CALLVALUE DUP1 ISZERO PUSH2 0xBC7 JUMPI PUSH0 DUP1 REVERT JUMPDEST POP PUSH2 0x5B9 PUSH2 0xBD6 CALLDATASIZE PUSH1 0x4 PUSH2 0x3FE9 JUMP JUMPDEST PUSH2 0x2AB8 JUMP JUMPDEST CALLVALUE DUP1 ISZERO PUSH2 0xBE6 JUMPI PUSH0 DUP1 REVERT JUMPDEST POP PUSH2 0x54C PUSH2 0xBF5 CALLDATASIZE PUSH1 0x4 PUSH2 0x4148 JUMP JUMPDEST PUSH0 SWAP2 DUP3 MSTORE PUSH1 0x20 DUP3 DUP2 MSTORE PUSH1 0x40 DUP1 DUP5 KECCAK256 PUSH1 0x1 PUSH1 0x1 PUSH1 0xA0 SHL SUB SWAP4 SWAP1 SWAP4 AND DUP5 MSTORE SWAP2 SWAP1 MSTORE SWAP1 KECCAK256 SLOAD PUSH1 0xFF AND SWAP1 JUMP JUMPDEST CALLVALUE DUP1 ISZERO PUSH2 0xC28 JUMPI PUSH0 DUP1 REVERT JUMPDEST POP PUSH2 0x5B9 PUSH2 0xC37 CALLDATASIZE PUSH1 0x4 PUSH2 0x4094 JUMP JUMPDEST PUSH2 0x2C9B JUMP JUMPDEST CALLVALUE DUP1 ISZERO PUSH2 0xC47 JUMPI PUSH0 DUP1 REVERT JUMPDEST POP PUSH2 0x58C PUSH1 0x15 SLOAD DUP2 JUMP JUMPDEST CALLVALUE DUP1 ISZERO PUSH2 0xC5C JUMPI PUSH0 DUP1 REVERT JUMPDEST POP PUSH2 0x58C PUSH1 0x3 SLOAD DUP2 JUMP JUMPDEST CALLVALUE DUP1 ISZERO PUSH2 0xC71 JUMPI PUSH0 DUP1 REVERT JUMPDEST POP PUSH2 0xAB7 PUSH2 0xC80 CALLDATASIZE PUSH1 0x4 PUSH2 0x4094 JUMP JUMPDEST PUSH2 0x2DFA JUMP JUMPDEST CALLVALUE DUP1 ISZERO PUSH2 0xC90 JUMPI PUSH0 DUP1 REVERT JUMPDEST POP PUSH2 0x58C PUSH0 DUP2 JUMP JUMPDEST CALLVALUE DUP1 ISZERO PUSH2 0xCA3 JUMPI PUSH0 DUP1 REVERT JUMPDEST POP PUSH2 0xCAC PUSH2 0x2E22 JUMP JUMPDEST PUSH1 0x40 DUP1 MLOAD SWAP15 DUP16 MSTORE PUSH1 0x20 DUP16 ADD SWAP14 SWAP1 SWAP14 MSTORE SWAP12 DUP14 ADD SWAP11 SWAP1 SWAP11 MSTORE PUSH1 0x60 DUP13 ADD SWAP9 SWAP1 SWAP9 MSTORE PUSH1 0x80 DUP12 ADD SWAP7 SWAP1 SWAP7 MSTORE PUSH1 0xA0 DUP11 ADD SWAP5 SWAP1 SWAP5 MSTORE PUSH1 0xC0 DUP10 ADD SWAP3 SWAP1 SWAP3 MSTORE PUSH1 0xE0 DUP9 ADD MSTORE PUSH2 0x100 DUP8 ADD MSTORE PUSH2 0x120 DUP7 ADD MSTORE PUSH2 0x140 DUP6 ADD MSTORE PUSH2 0x160 DUP5 ADD MSTORE PUSH2 0x180 DUP4 ADD MSTORE PUSH2 0x1A0 DUP3 ADD MSTORE PUSH2 0x1C0 ADD PUSH2 0x558 JUMP JUMPDEST CALLVALUE DUP1 ISZERO PUSH2 0xD1F JUMPI PUSH0 DUP1 REVERT JUMPDEST POP PUSH2 0x5B9 PUSH2 0xD2E CALLDATASIZE PUSH1 0x4 PUSH2 0x4300 JUMP JUMPDEST PUSH2 0x2EFE JUMP JUMPDEST CALLVALUE DUP1 ISZERO PUSH2 0xD3E JUMPI PUSH0 DUP1 REVERT JUMPDEST POP PUSH1 0x5 SLOAD PUSH2 0x54C SWAP1 PUSH2 0x100 SWAP1 DIV PUSH1 0xFF AND DUP2 JUMP JUMPDEST CALLVALUE DUP1 ISZERO PUSH2 0xD5C JUMPI PUSH0 DUP1 REVERT JUMPDEST POP PUSH2 0x58C PUSH1 0x13 SLOAD DUP2 JUMP JUMPDEST CALLVALUE DUP1 ISZERO PUSH2 0xD71 JUMPI PUSH0 DUP1 REVERT JUMPDEST POP PUSH2 0x5B9 PUSH2 0xD80 CALLDATASIZE PUSH1 0x4 PUSH2 0x41BA JUMP JUMPDEST PUSH2 0x3000 JUMP JUMPDEST CALLVALUE DUP1 ISZERO PUSH2 0xD90 JUMPI PUSH0 DUP1 REVERT JUMPDEST POP PUSH2 0x5B9 PUSH2 0x3126 JUMP JUMPDEST CALLVALUE DUP1 ISZERO PUSH2 0xDA4 JUMPI PUSH0 DUP1 REVERT JUMPDEST POP PUSH2 0x5B9 PUSH2 0xDB3 CALLDATASIZE PUSH1 0x4 PUSH2 0x3FE9 JUMP JUMPDEST PUSH2 0x3219 JUMP JUMPDEST CALLVALUE DUP1 ISZERO PUSH2 0xDC3 JUMPI PUSH0 DUP1 REVERT JUMPDEST POP PUSH2 0x5B9 PUSH2 0xDD2 CALLDATASIZE PUSH1 0x4 PUSH2 0x4094 JUMP JUMPDEST PUSH2 0x3378 JUMP JUMPDEST CALLVALUE DUP1 ISZERO PUSH2 0xDE2 JUMPI PUSH0 DUP1 REVERT JUMPDEST POP PUSH2 0x5B9 PUSH2 0xDF1 CALLDATASIZE PUSH1 0x4 PUSH2 0x4148 JUMP JUMPDEST PUSH2 0x33C4 JUMP JUMPDEST CALLVALUE DUP1 ISZERO PUSH2 0xE01 JUMPI PUSH0 DUP1 REVERT JUMPDEST POP PUSH2 0x5B9 PUSH2 0xE10 CALLDATASIZE PUSH1 0x4 PUSH2 0x4094 JUMP JUMPDEST PUSH2 0x33E8 JUMP JUMPDEST CALLVALUE DUP1 ISZERO PUSH2 0xE20 JUMPI PUSH0 DUP1 REVERT JUMPDEST POP PUSH2 0x5B9 PUSH2 0x3531 JUMP JUMPDEST CALLVALUE DUP1 ISZERO PUSH2 0xE34 JUMPI PUSH0 DUP1 REVERT JUMPDEST POP PUSH2 0x58C PUSH32 0xC806897CAF4FD5068191157E44D3988E43139A37E0B97B6793E1ED1184140604 DUP2 JUMP JUMPDEST CALLVALUE DUP1 ISZERO PUSH2 0xE67 JUMPI PUSH0 DUP1 REVERT JUMPDEST POP PUSH2 0x58C PUSH1 0x16 SLOAD DUP2 JUMP JUMPDEST CALLVALUE DUP1 ISZERO PUSH2 0xE7C JUMPI PUSH0 DUP1 REVERT JUMPDEST POP PUSH2 0x58C PUSH1 0x12 SLOAD DUP2 JUMP JUMPDEST CALLVALUE DUP1 ISZERO PUSH2 0xE91 JUMPI PUSH0 DUP1 REVERT JUMPDEST POP PUSH2 0x5B9 PUSH2 0x35E2 JUMP JUMPDEST CALLVALUE DUP1 ISZERO PUSH2 0xEA5 JUMPI PUSH0 DUP1 REVERT JUMPDEST POP PUSH2 0x58C PUSH32 0x65D7A28E3265B37A6474929F336521B332C1681B933F6CB9F3376673440D862A DUP2 JUMP JUMPDEST CALLVALUE DUP1 ISZERO PUSH2 0xED8 JUMPI PUSH0 DUP1 REVERT JUMPDEST POP PUSH2 0x58C PUSH2 0xEE7 CALLDATASIZE PUSH1 0x4 PUSH2 0x3FA8 JUMP JUMPDEST PUSH1 0xA PUSH1 0x20 MSTORE PUSH0 SWAP1 DUP2 MSTORE PUSH1 0x40 SWAP1 KECCAK256 SLOAD DUP2 JUMP JUMPDEST CALLVALUE DUP1 ISZERO PUSH2 0xF03 JUMPI PUSH0 DUP1 REVERT JUMPDEST POP PUSH2 0x58C PUSH32 0x241ECF16D79D0F8DBFB92CBC07FE17840425976CF0667F022FE9877CAA831B08 DUP2 JUMP JUMPDEST CALLVALUE DUP1 ISZERO PUSH2 0xF36 JUMPI PUSH0 DUP1 REVERT JUMPDEST POP PUSH2 0x58C PUSH1 0x2 SLOAD DUP2 JUMP JUMPDEST CALLVALUE DUP1 ISZERO PUSH2 0xF4B JUMPI PUSH0 DUP1 REVERT JUMPDEST POP PUSH1 0x5 SLOAD PUSH2 0xAB7 SWAP1 PUSH1 0x1 PUSH1 0x50 SHL SWAP1 DIV PUSH1 0x1 PUSH1 0x1 PUSH1 0xA0 SHL SUB AND DUP2 JUMP JUMPDEST CALLVALUE DUP1 ISZERO PUSH2 0xF71 JUMPI PUSH0 DUP1 REVERT JUMPDEST POP PUSH2 0x5B9 PUSH2 0xF80 CALLDATASIZE PUSH1 0x4 PUSH2 0x42B1 JUMP JUMPDEST PUSH2 0x36FD JUMP JUMPDEST CALLVALUE DUP1 ISZERO PUSH2 0xF90 JUMPI PUSH0 DUP1 REVERT JUMPDEST POP PUSH2 0x5B9 PUSH2 0xF9F CALLDATASIZE PUSH1 0x4 PUSH2 0x4339 JUMP JUMPDEST PUSH2 0x37AC JUMP JUMPDEST PUSH2 0x5B9 PUSH2 0x381C JUMP JUMPDEST CALLVALUE DUP1 ISZERO PUSH2 0xFB7 JUMPI PUSH0 DUP1 REVERT JUMPDEST POP PUSH2 0x5B9 PUSH2 0xFC6 CALLDATASIZE PUSH1 0x4 PUSH2 0x4094 JUMP JUMPDEST PUSH2 0x3924 JUMP JUMPDEST CALLVALUE DUP1 ISZERO PUSH2 0xFD6 JUMPI PUSH0 DUP1 REVERT JUMPDEST POP PUSH2 0x58C PUSH1 0x17 SLOAD DUP2 JUMP JUMPDEST PUSH0 PUSH1 0x1 PUSH1 0x1 PUSH1 0xE0 SHL SUB NOT DUP3 AND PUSH4 0x7965DB0B PUSH1 0xE0 SHL EQ DUP1 PUSH2 0x1010 JUMPI POP PUSH4 0x1FFC9A7 PUSH1 0xE0 SHL PUSH1 0x1 PUSH1 0x1 PUSH1 0xE0 SHL SUB NOT DUP4 AND EQ JUMPDEST SWAP3 SWAP2 POP POP JUMP JUMPDEST PUSH0 DUP1 MLOAD PUSH1 0x20 PUSH2 0x4573 DUP4 CODECOPY DUP2 MLOAD SWAP2 MSTORE PUSH2 0x102D DUP2 PUSH2 0x3AB6 JUMP JUMPDEST POP PUSH1 0x5 DUP1 SLOAD SWAP2 ISZERO ISZERO PUSH3 0x10000 MUL PUSH3 0xFF0000 NOT SWAP1 SWAP3 AND SWAP2 SWAP1 SWAP2 OR SWAP1 SSTORE JUMP JUMPDEST PUSH1 0x6 PUSH1 0x20 MSTORE DUP2 PUSH0 MSTORE PUSH1 0x40 PUSH0 KECCAK256 DUP2 DUP2 SLOAD DUP2 LT PUSH2 0x1063 JUMPI PUSH0 DUP1 REVERT JUMPDEST PUSH0 SWAP2 DUP3 MSTORE PUSH1 0x20 SWAP1 SWAP2 KECCAK256 PUSH1 0x2 SWAP1 SWAP2 MUL ADD DUP1 SLOAD PUSH1 0x1 SWAP1 SWAP2 ADD SLOAD PUSH1 0x1 PUSH1 0x1 PUSH1 0x60 SHL SUB DUP1 DUP4 AND SWAP5 POP PUSH1 0x1 PUSH1 0x60 SHL DUP4 DIV AND SWAP3 POP PUSH6 0xFFFFFFFFFFFF PUSH1 0x1 PUSH1 0xC0 SHL SWAP1 SWAP3 DIV DUP3 AND SWAP2 DUP2 AND SWAP1 PUSH1 0xFF PUSH7 0x1000000000000 DUP3 DIV DUP2 AND SWAP2 PUSH1 0x1 PUSH1 0x38 SHL SWAP1 DIV AND DUP7 JUMP JUMPDEST PUSH32 0x241ECF16D79D0F8DBFB92CBC07FE17840425976CF0667F022FE9877CAA831B08 PUSH2 0x10EA DUP2 PUSH2 0x3AB6 JUMP JUMPDEST PUSH2 0x10F2 PUSH2 0x3AC7 JUMP JUMPDEST CALLVALUE PUSH0 SUB PUSH2 0x1112 JUMPI PUSH1 0x40 MLOAD PUSH4 0x162908E3 PUSH1 0xE1 SHL DUP2 MSTORE PUSH1 0x4 ADD PUSH1 0x40 MLOAD DUP1 SWAP2 SUB SWAP1 REVERT JUMPDEST PUSH1 0x17 SLOAD CALLVALUE GT ISZERO PUSH2 0x1135 JUMPI PUSH1 0x40 MLOAD PUSH4 0x4711311 PUSH1 0xE2 SHL DUP2 MSTORE PUSH1 0x4 ADD PUSH1 0x40 MLOAD DUP1 SWAP2 SUB SWAP1 REVERT JUMPDEST CALLVALUE PUSH1 0x17 PUSH0 DUP3 DUP3 SLOAD PUSH2 0x1146 SWAP2 SWAP1 PUSH2 0x436C JUMP JUMPDEST SWAP1 SWAP2 SSTORE POP PUSH2 0x1154 SWAP1 POP PUSH2 0x3AF1 JUMP JUMPDEST PUSH1 0x1 PUSH1 0x1 PUSH1 0xA0 SHL SUB AND PUSH32 0x1B0029D3A4003762F16D0DC71199CE167B1D4BF00C5B97A3E28F613E921D6540 PUSH0 CALLVALUE TIMESTAMP PUSH1 0x40 MLOAD PUSH2 0x1190 SWAP4 SWAP3 SWAP2 SWAP1 PUSH2 0x437F JUMP JUMPDEST PUSH1 0x40 MLOAD DUP1 SWAP2 SUB SWAP1 LOG2 PUSH2 0x11A1 PUSH1 0x1 DUP1 SSTORE JUMP JUMPDEST POP JUMP JUMPDEST PUSH2 0x11AC PUSH2 0x3AC7 JUMP JUMPDEST PUSH0 PUSH2 0x11B5 PUSH2 0x3AF1 JUMP JUMPDEST PUSH1 0x1 PUSH1 0x1 PUSH1 0xA0 SHL SUB DUP2 AND PUSH0 SWAP1 DUP2 MSTORE PUSH1 0x9 PUSH1 0x20 MSTORE PUSH1 0x40 DUP2 KECCAK256 SLOAD SWAP2 SWAP3 POP DUP2 SWAP1 SUB PUSH2 0x11F0 JUMPI PUSH1 0x40 MLOAD PUSH4 0x3BD65A7B PUSH1 0xE2 SHL DUP2 MSTORE PUSH1 0x4 ADD PUSH1 0x40 MLOAD DUP1 SWAP2 SUB SWAP1 REVERT JUMPDEST PUSH1 0x1 PUSH1 0x1 PUSH1 0xA0 SHL SUB DUP3 AND PUSH0 SWAP1 DUP2 MSTORE PUSH1 0x9 PUSH1 0x20 MSTORE PUSH1 0x40 DUP2 KECCAK256 DUP2 SWAP1 SSTORE PUSH2 0x1218 SWAP1 DUP4 SWAP1 DUP4 PUSH1 0x1 PUSH2 0x3AFF JUMP JUMPDEST DUP1 PUSH1 0x15 PUSH0 DUP3 DUP3 SLOAD PUSH2 0x1229 SWAP2 SWAP1 PUSH2 0x439E JUMP JUMPDEST SWAP1 SWAP2 SSTORE POP POP PUSH1 0x1 PUSH1 0x1 PUSH1 0xA0 SHL SUB DUP3 AND PUSH0 SWAP1 DUP2 MSTORE PUSH1 0xB PUSH1 0x20 MSTORE PUSH1 0x40 DUP2 KECCAK256 DUP1 SLOAD DUP4 SWAP3 SWAP1 PUSH2 0x1255 SWAP1 DUP5 SWAP1 PUSH2 0x439E JUMP JUMPDEST SWAP3 POP POP DUP2 SWAP1 SSTORE POP DUP2 PUSH1 0x1 PUSH1 0x1 PUSH1 0xA0 SHL SUB AND PUSH32 0x997D2EC09B086DE73D509BBC4AD2B52FD7E2338024464BEDE93A41ABD6CCDC38 PUSH0 DUP4 TIMESTAMP PUSH1 0x40 MLOAD PUSH2 0x1299 SWAP4 SWAP3 SWAP2 SWAP1 PUSH2 0x437F JUMP JUMPDEST PUSH1 0x40 MLOAD DUP1 SWAP2 SUB SWAP1 LOG2 POP POP PUSH2 0x12AC PUSH1 0x1 DUP1 SSTORE JUMP JUMPDEST JUMP JUMPDEST PUSH1 0x1 PUSH1 0x1 PUSH1 0xA0 SHL SUB DUP2 AND PUSH0 SWAP1 DUP2 MSTORE PUSH1 0x6 PUSH1 0x20 SWAP1 DUP2 MSTORE PUSH1 0x40 DUP1 DUP4 KECCAK256 DUP1 SLOAD DUP3 MLOAD DUP2 DUP6 MUL DUP2 ADD DUP6 ADD SWAP1 SWAP4 MSTORE DUP1 DUP4 MSTORE PUSH1 0x60 SWAP5 SWAP3 SWAP4 SWAP2 SWAP3 SWAP1 SWAP2 DUP5 ADD JUMPDEST DUP3 DUP3 LT ISZERO PUSH2 0x13A9 JUMPI PUSH0 DUP5 DUP2 MSTORE PUSH1 0x20 SWAP1 DUP2 SWAP1 KECCAK256 PUSH1 0x40 DUP1 MLOAD PUSH1 0xC0 DUP2 ADD DUP3 MSTORE PUSH1 0x2 DUP7 MUL SWAP1 SWAP3 ADD DUP1 SLOAD PUSH1 0x1 PUSH1 0x1 PUSH1 0x60 SHL SUB DUP1 DUP3 AND DUP6 MSTORE PUSH1 0x1 PUSH1 0x60 SHL DUP3 DIV AND SWAP5 DUP5 ADD SWAP5 SWAP1 SWAP5 MSTORE PUSH1 0x1 PUSH1 0xC0 SHL SWAP1 SWAP4 DIV PUSH6 0xFFFFFFFFFFFF SWAP1 DUP2 AND SWAP2 DUP4 ADD SWAP2 SWAP1 SWAP2 MSTORE PUSH1 0x1 DUP1 DUP5 ADD SLOAD SWAP2 DUP3 AND PUSH1 0x60 DUP5 ADD MSTORE SWAP2 SWAP3 SWAP2 PUSH1 0x80 DUP5 ADD SWAP2 PUSH7 0x1000000000000 SWAP1 DIV PUSH1 0xFF AND SWAP1 DUP2 GT ISZERO PUSH2 0x1372 JUMPI PUSH2 0x1372 PUSH2 0x4011 JUMP JUMPDEST PUSH1 0x1 DUP2 GT ISZERO PUSH2 0x1383 JUMPI PUSH2 0x1383 PUSH2 0x4011 JUMP JUMPDEST DUP2 MSTORE PUSH1 0x1 SWAP2 DUP3 ADD SLOAD PUSH1 0x1 PUSH1 0x38 SHL SWAP1 DIV PUSH1 0xFF AND PUSH1 0x20 SWAP2 DUP3 ADD MSTORE SWAP2 DUP4 MSTORE SWAP3 SWAP1 SWAP3 ADD SWAP2 ADD PUSH2 0x12E5 JUMP JUMPDEST POP POP POP POP SWAP1 POP SWAP2 SWAP1 POP JUMP JUMPDEST PUSH2 0x13BC PUSH2 0x3AC7 JUMP JUMPDEST PUSH1 0x5 SLOAD PUSH2 0x100 SWAP1 DIV PUSH1 0xFF AND ISZERO PUSH2 0x13E5 JUMPI PUSH1 0x40 MLOAD PUSH4 0x6022A9E7 PUSH1 0xE0 SHL DUP2 MSTORE PUSH1 0x4 ADD PUSH1 0x40 MLOAD DUP1 SWAP2 SUB SWAP1 REVERT JUMPDEST PUSH0 PUSH2 0x13EE PUSH2 0x3AF1 JUMP JUMPDEST PUSH1 0x1 PUSH1 0x1 PUSH1 0xA0 SHL SUB DUP2 AND PUSH0 SWAP1 DUP2 MSTORE PUSH1 0x6 PUSH1 0x20 MSTORE PUSH1 0x40 DUP2 KECCAK256 DUP1 SLOAD SWAP3 SWAP4 POP SWAP1 SWAP2 DUP5 SWAP1 DUP2 LT PUSH2 0x141C JUMPI PUSH2 0x141C PUSH2 0x43B1 JUMP JUMPDEST PUSH0 SWAP2 DUP3 MSTORE PUSH1 0x20 SWAP1 SWAP2 KECCAK256 PUSH1 0x1 PUSH1 0x2 SWAP1 SWAP3 MUL ADD DUP2 DUP2 ADD SLOAD SWAP1 SWAP3 POP PUSH1 0x1 PUSH1 0x38 SHL SWAP1 DIV AND ISZERO PUSH2 0x145A JUMPI PUSH1 0x40 MLOAD PUSH4 0x6507689F PUSH1 0xE0 SHL DUP2 MSTORE PUSH1 0x4 ADD PUSH1 0x40 MLOAD DUP1 SWAP2 SUB SWAP1 REVERT JUMPDEST PUSH1 0x2 SLOAD DUP2 SLOAD PUSH2 0x1478 SWAP2 SWAP1 PUSH1 0x1 PUSH1 0xC0 SHL SWAP1 DIV PUSH6 0xFFFFFFFFFFFF AND PUSH2 0x439E JUMP JUMPDEST TIMESTAMP LT DUP1 ISZERO PUSH2 0x1492 JUMPI POP PUSH1 0x1 DUP2 ADD SLOAD PUSH1 0x1 PUSH1 0x38 SHL SWAP1 DIV PUSH1 0x2 AND ISZERO JUMPDEST DUP1 ISZERO PUSH2 0x14C1 JUMPI POP PUSH1 0x5 SLOAD PUSH4 0x1000000 SWAP1 DIV PUSH1 0xFF AND DUP1 ISZERO PUSH2 0x14BF JUMPI POP PUSH1 0x1 DUP2 ADD SLOAD PUSH1 0x1 PUSH1 0x38 SHL SWAP1 DIV PUSH1 0x4 AND ISZERO ISZERO JUMPDEST ISZERO JUMPDEST ISZERO PUSH2 0x14DF JUMPI PUSH1 0x40 MLOAD PUSH4 0xF38B9B5B PUSH1 0xE0 SHL DUP2 MSTORE PUSH1 0x4 ADD PUSH1 0x40 MLOAD DUP1 SWAP2 SUB SWAP1 REVERT JUMPDEST PUSH1 0x1 DUP2 DUP2 ADD DUP1 SLOAD PUSH8 0xFF00FFFFFFFFFFFF NOT DUP2 AND PUSH1 0x1 PUSH1 0x38 SHL SWAP2 DUP3 SWAP1 DIV PUSH1 0xFF AND SWAP1 SWAP4 OR MUL PUSH6 0xFFFFFFFFFFFF NOT AND SWAP2 SWAP1 SWAP2 OR TIMESTAMP PUSH6 0xFFFFFFFFFFFF AND OR SWAP1 SSTORE DUP1 SLOAD PUSH1 0x1 PUSH1 0x1 PUSH1 0x60 SHL SUB DUP1 DUP3 AND SWAP2 PUSH1 0x1 PUSH1 0x60 SHL SWAP1 DIV AND PUSH0 PUSH1 0x1 DUP5 DUP2 ADD SLOAD PUSH7 0x1000000000000 SWAP1 DIV PUSH1 0xFF AND SWAP1 DUP2 GT ISZERO PUSH2 0x1555 JUMPI PUSH2 0x1555 PUSH2 0x4011 JUMP JUMPDEST SUB PUSH2 0x15EC JUMPI DUP2 PUSH1 0x11 PUSH0 DUP3 DUP3 SLOAD PUSH2 0x156B SWAP2 SWAP1 PUSH2 0x439E JUMP JUMPDEST SWAP1 SWAP2 SSTORE POP PUSH0 SWAP1 POP PUSH1 0x1 PUSH1 0x1 PUSH1 0xA0 SHL SUB DUP6 AND PUSH2 0x1586 DUP4 DUP6 PUSH2 0x439E JUMP JUMPDEST PUSH1 0x40 MLOAD PUSH0 DUP2 DUP2 DUP2 DUP6 DUP8 GAS CALL SWAP3 POP POP POP RETURNDATASIZE DUP1 PUSH0 DUP2 EQ PUSH2 0x15BF JUMPI PUSH1 0x40 MLOAD SWAP2 POP PUSH1 0x1F NOT PUSH1 0x3F RETURNDATASIZE ADD AND DUP3 ADD PUSH1 0x40 MSTORE RETURNDATASIZE DUP3 MSTORE RETURNDATASIZE PUSH0 PUSH1 0x20 DUP5 ADD RETURNDATACOPY PUSH2 0x15C4 JUMP JUMPDEST PUSH1 0x60 SWAP2 POP JUMPDEST POP POP SWAP1 POP DUP1 PUSH2 0x15E6 JUMPI PUSH1 0x40 MLOAD PUSH4 0x12171D83 PUSH1 0xE3 SHL DUP2 MSTORE PUSH1 0x4 ADD PUSH1 0x40 MLOAD DUP1 SWAP2 SUB SWAP1 REVERT JUMPDEST POP PUSH2 0x1696 JUMP JUMPDEST DUP2 PUSH1 0x12 PUSH0 DUP3 DUP3 SLOAD PUSH2 0x15FD SWAP2 SWAP1 PUSH2 0x439E JUMP JUMPDEST SWAP1 SWAP2 SSTORE POP PUSH20 0x833589FCD6EDB6E08F4C7C32D4F71B54BDA02913 SWAP1 POP PUSH4 0xA9059CBB DUP6 PUSH2 0x1628 DUP5 DUP7 PUSH2 0x439E JUMP JUMPDEST PUSH1 0x40 MLOAD PUSH1 0x1 PUSH1 0x1 PUSH1 0xE0 SHL SUB NOT PUSH1 0xE0 DUP6 SWAP1 SHL AND DUP2 MSTORE PUSH1 0x1 PUSH1 0x1 PUSH1 0xA0 SHL SUB SWAP1 SWAP3 AND PUSH1 0x4 DUP4 ADD MSTORE PUSH1 0x24 DUP3 ADD MSTORE PUSH1 0x44 ADD PUSH1 0x20 PUSH1 0x40 MLOAD DUP1 DUP4 SUB DUP2 PUSH0 DUP8 GAS CALL ISZERO DUP1 ISZERO PUSH2 0x1670 JUMPI RETURNDATASIZE PUSH0 DUP1 RETURNDATACOPY RETURNDATASIZE PUSH0 REVERT JUMPDEST POP POP POP POP PUSH1 0x40 MLOAD RETURNDATASIZE PUSH1 0x1F NOT PUSH1 0x1F DUP3 ADD AND DUP3 ADD DUP1 PUSH1 0x40 MSTORE POP DUP2 ADD SWAP1 PUSH2 0x1694 SWAP2 SWAP1 PUSH2 0x43C5 JUMP JUMPDEST POP JUMPDEST PUSH1 0x1 PUSH1 0x1 PUSH1 0xA0 SHL SUB DUP5 AND PUSH0 SWAP1 DUP2 MSTORE PUSH1 0x8 PUSH1 0x20 MSTORE PUSH1 0x40 SWAP1 KECCAK256 SLOAD PUSH1 0xFF AND PUSH2 0x1725 JUMPI PUSH1 0xE DUP1 SLOAD PUSH1 0x1 DUP1 DUP3 ADD SWAP1 SWAP3 SSTORE PUSH32 0xBB7B4A454DC3493923482F07822329ED19E8244EFF582CC204F8554C3620C3FD ADD DUP1 SLOAD PUSH20 0xFFFFFFFFFFFFFFFFFFFFFFFFFFFFFFFFFFFFFFFF NOT AND PUSH1 0x1 PUSH1 0x1 PUSH1 0xA0 SHL SUB DUP8 AND SWAP1 DUP2 OR SWAP1 SWAP2 SSTORE PUSH0 SWAP1 DUP2 MSTORE PUSH1 0x8 PUSH1 0x20 MSTORE PUSH1 0x40 SWAP1 KECCAK256 DUP1 SLOAD PUSH1 0xFF NOT AND SWAP1 SWAP2 OR SWAP1 SSTORE JUMPDEST PUSH1 0x1 DUP4 ADD SLOAD PUSH1 0x40 MLOAD PUSH1 0x1 PUSH1 0x1 PUSH1 0xA0 SHL SUB DUP7 AND SWAP2 PUSH32 0xCB034B37EF3764745C35BAFECD525367BCF312E9010239E6AEEBBE6BCF57727F SWAP2 PUSH2 0x1779 SWAP2 PUSH7 0x1000000000000 SWAP1 DIV PUSH1 0xFF AND SWAP1 DUP7 SWAP1 DUP7 SWAP1 TIMESTAMP SWAP1 DUP13 SWAP1 PUSH2 0x43E0 JUMP JUMPDEST PUSH1 0x40 MLOAD DUP1 SWAP2 SUB SWAP1 LOG2 POP POP POP POP PUSH2 0x11A1 PUSH1 0x1 DUP1 SSTORE JUMP JUMPDEST PUSH0 DUP3 DUP2 MSTORE PUSH1 0x20 DUP2 SWAP1 MSTORE PUSH1 0x40 SWAP1 KECCAK256 PUSH1 0x1 ADD SLOAD PUSH2 0x17A8 DUP2 PUSH2 0x3AB6 JUMP JUMPDEST PUSH2 0x17B2 DUP4 DUP4 PUSH2 0x3D58 JUMP JUMPDEST POP POP POP POP JUMP JUMPDEST PUSH2 0x17C0 PUSH2 0x3AF1 JUMP JUMPDEST PUSH1 0x1 PUSH1 0x1 PUSH1 0xA0 SHL SUB AND DUP2 PUSH1 0x1 PUSH1 0x1 PUSH1 0xA0 SHL SUB AND EQ PUSH2 0x17F1 JUMPI PUSH1 0x40 MLOAD PUSH4 0x334BD919 PUSH1 0xE1 SHL DUP2 MSTORE PUSH1 0x4 ADD PUSH1 0x40 MLOAD DUP1 SWAP2 SUB SWAP1 REVERT JUMPDEST PUSH2 0x17FB DUP3 DUP3 PUSH2 0x3E00 JUMP JUMPDEST POP POP POP JUMP JUMPDEST PUSH0 DUP1 MLOAD PUSH1 0x20 PUSH2 0x4573 DUP4 CODECOPY DUP2 MLOAD SWAP2 MSTORE PUSH2 0x1817 DUP2 PUSH2 0x3AB6 JUMP JUMPDEST DUP4 DUP3 EQ PUSH2 0x1837 JUMPI PUSH1 0x40 MLOAD PUSH4 0x512509D3 PUSH1 0xE1 SHL DUP2 MSTORE PUSH1 0x4 ADD PUSH1 0x40 MLOAD DUP1 SWAP2 SUB SWAP1 REVERT JUMPDEST PUSH0 DUP1 JUMPDEST DUP6 DUP2 LT ISZERO PUSH2 0x18F1 JUMPI PUSH0 DUP6 DUP6 DUP4 DUP2 DUP2 LT PUSH2 0x1855 JUMPI PUSH2 0x1855 PUSH2 0x43B1 JUMP JUMPDEST SWAP1 POP PUSH1 0x20 MUL ADD CALLDATALOAD SWAP1 POP DUP1 PUSH0 SUB PUSH2 0x187E JUMPI PUSH1 0x40 MLOAD PUSH4 0x162908E3 PUSH1 0xE1 SHL DUP2 MSTORE PUSH1 0x4 ADD PUSH1 0x40 MLOAD DUP1 SWAP2 SUB SWAP1 REVERT JUMPDEST DUP1 PUSH1 0xA PUSH0 DUP11 DUP11 DUP7 DUP2 DUP2 LT PUSH2 0x1894 JUMPI PUSH2 0x1894 PUSH2 0x43B1 JUMP JUMPDEST SWAP1 POP PUSH1 0x20 MUL ADD PUSH1 0x20 DUP2 ADD SWAP1 PUSH2 0x18A9 SWAP2 SWAP1 PUSH2 0x3FA8 JUMP JUMPDEST PUSH1 0x1 PUSH1 0x1 PUSH1 0xA0 SHL SUB AND PUSH1 0x1 PUSH1 0x1 PUSH1 0xA0 SHL SUB AND DUP2 MSTORE PUSH1 0x20 ADD SWAP1 DUP2 MSTORE PUSH1 0x20 ADD PUSH0 KECCAK256 PUSH0 DUP3 DUP3 SLOAD PUSH2 0x18D6 SWAP2 SWAP1 PUSH2 0x439E JUMP JUMPDEST SWAP1 SWAP2 SSTORE POP PUSH2 0x18E6 SWAP1 POP DUP2 DUP5 PUSH2 0x439E JUMP JUMPDEST SWAP3 POP POP PUSH1 0x1 ADD PUSH2 0x183A JUMP JUMPDEST POP PUSH1 0x14 SLOAD DUP2 GT ISZERO PUSH2 0x1915 JUMPI PUSH1 0x40 MLOAD PUSH4 0x2F37549D PUSH1 0xE0 SHL DUP2 MSTORE PUSH1 0x4 ADD PUSH1 0x40 MLOAD DUP1 SWAP2 SUB SWAP1 REVERT JUMPDEST DUP1 PUSH1 0x14 PUSH0 DUP3 DUP3 SLOAD PUSH2 0x1926 SWAP2 SWAP1 PUSH2 0x436C JUMP JUMPDEST SWAP1 SWAP2 SSTORE POP POP POP POP POP POP POP POP JUMP JUMPDEST PUSH0 DUP1 MLOAD PUSH1 0x20 PUSH2 0x4573 DUP4 CODECOPY DUP2 MLOAD SWAP2 MSTORE PUSH2 0x194A DUP2 PUSH2 0x3AB6 JUMP JUMPDEST DUP4 DUP3 EQ PUSH2 0x196A JUMPI PUSH1 0x40 MLOAD PUSH4 0x512509D3 PUSH1 0xE1 SHL DUP2 MSTORE PUSH1 0x4 ADD PUSH1 0x40 MLOAD DUP1 SWAP2 SUB SWAP1 REVERT JUMPDEST PUSH0 JUMPDEST DUP5 DUP2 LT ISZERO PUSH2 0x1A7F JUMPI DUP4 DUP4 DUP3 DUP2 DUP2 LT PUSH2 0x1986 JUMPI PUSH2 0x1986 PUSH2 0x43B1 JUMP JUMPDEST SWAP1 POP PUSH1 0x20 MUL ADD PUSH1 0x20 DUP2 ADD SWAP1 PUSH2 0x199B SWAP2 SWAP1 PUSH2 0x3FCE JUMP JUMPDEST PUSH1 0x7 PUSH0 DUP9 DUP9 DUP6 DUP2 DUP2 LT PUSH2 0x19B0 JUMPI PUSH2 0x19B0 PUSH2 0x43B1 JUMP JUMPDEST SWAP1 POP PUSH1 0x20 MUL ADD PUSH1 0x20 DUP2 ADD SWAP1 PUSH2 0x19C5 SWAP2 SWAP1 PUSH2 0x3FA8 JUMP JUMPDEST PUSH1 0x1 PUSH1 0x1 PUSH1 0xA0 SHL SUB AND DUP2 MSTORE PUSH1 0x20 DUP2 ADD SWAP2 SWAP1 SWAP2 MSTORE PUSH1 0x40 ADD PUSH0 KECCAK256 DUP1 SLOAD PUSH1 0xFF NOT AND SWAP2 ISZERO ISZERO SWAP2 SWAP1 SWAP2 OR SWAP1 SSTORE DUP6 DUP6 DUP3 DUP2 DUP2 LT PUSH2 0x19FE JUMPI PUSH2 0x19FE PUSH2 0x43B1 JUMP JUMPDEST SWAP1 POP PUSH1 0x20 MUL ADD PUSH1 0x20 DUP2 ADD SWAP1 PUSH2 0x1A13 SWAP2 SWAP1 PUSH2 0x3FA8 JUMP JUMPDEST PUSH1 0x1 PUSH1 0x1 PUSH1 0xA0 SHL SUB AND PUSH32 0x995D2434D36C9BCEAAB42C56EFE51E8FFE41FD11CABEFD9E2CB83700D8B2035E DUP6 DUP6 DUP5 DUP2 DUP2 LT PUSH2 0x1A4F JUMPI PUSH2 0x1A4F PUSH2 0x43B1 JUMP JUMPDEST SWAP1 POP PUSH1 0x20 MUL ADD PUSH1 0x20 DUP2 ADD SWAP1 PUSH2 0x1A64 SWAP2 SWAP1 PUSH2 0x3FCE JUMP JUMPDEST PUSH1 0x40 MLOAD SWAP1 ISZERO ISZERO DUP2 MSTORE PUSH1 0x20 ADD PUSH1 0x40 MLOAD DUP1 SWAP2 SUB SWAP1 LOG2 PUSH1 0x1 ADD PUSH2 0x196C JUMP JUMPDEST POP POP POP POP POP POP JUMP JUMPDEST PUSH1 0x1 PUSH1 0x1 PUSH1 0xA0 SHL SUB DUP2 AND PUSH0 SWAP1 DUP2 MSTORE PUSH1 0x6 PUSH1 0x20 MSTORE PUSH1 0x40 DUP2 KECCAK256 DUP2 SWAP1 DUP2 SWAP1 DUP2 SWAP1 DUP2 SWAP1 DUP2 SWAP1 DUP2 SWAP1 DUP2 SWAP1 DUP2 JUMPDEST DUP2 SLOAD DUP2 LT ISZERO PUSH2 0x1C77 JUMPI PUSH0 DUP3 DUP3 DUP2 SLOAD DUP2 LT PUSH2 0x1ACA JUMPI PUSH2 0x1ACA PUSH2 0x43B1 JUMP JUMPDEST PUSH0 SWAP2 DUP3 MSTORE PUSH1 0x20 SWAP2 DUP3 SWAP1 KECCAK256 PUSH1 0x40 DUP1 MLOAD PUSH1 0xC0 DUP2 ADD DUP3 MSTORE PUSH1 0x2 SWAP1 SWAP4 MUL SWAP1 SWAP2 ADD DUP1 SLOAD PUSH1 0x1 PUSH1 0x1 PUSH1 0x60 SHL SUB DUP1 DUP3 AND DUP6 MSTORE PUSH1 0x1 PUSH1 0x60 SHL DUP3 DIV AND SWAP5 DUP5 ADD SWAP5 SWAP1 SWAP5 MSTORE PUSH6 0xFFFFFFFFFFFF PUSH1 0x1 PUSH1 0xC0 SHL SWAP1 SWAP5 DIV DUP5 AND SWAP2 DUP4 ADD SWAP2 SWAP1 SWAP2 MSTORE PUSH1 0x1 DUP1 DUP3 ADD SLOAD SWAP4 DUP5 AND PUSH1 0x60 DUP5 ADD MSTORE SWAP2 SWAP3 SWAP1 SWAP2 PUSH1 0x80 DUP5 ADD SWAP2 PUSH1 0xFF PUSH7 0x1000000000000 SWAP1 SWAP2 DIV AND SWAP1 DUP2 GT ISZERO PUSH2 0x1B51 JUMPI PUSH2 0x1B51 PUSH2 0x4011 JUMP JUMPDEST PUSH1 0x1 DUP2 GT ISZERO PUSH2 0x1B62 JUMPI PUSH2 0x1B62 PUSH2 0x4011 JUMP JUMPDEST DUP2 MSTORE PUSH1 0x1 SWAP2 SWAP1 SWAP2 ADD SLOAD PUSH1 0x1 PUSH1 0x38 SHL SWAP1 DIV PUSH1 0xFF AND PUSH1 0x20 SWAP1 SWAP2 ADD MSTORE PUSH1 0xA0 DUP2 ADD MLOAD SWAP1 SWAP2 POP PUSH1 0x8 AND ISZERO ISZERO PUSH0 DUP3 PUSH1 0x80 ADD MLOAD PUSH1 0x1 DUP2 GT ISZERO PUSH2 0x1B9F JUMPI PUSH2 0x1B9F PUSH2 0x4011 JUMP JUMPDEST SUB PUSH2 0x1C0B JUMPI DUP2 MLOAD PUSH2 0x1BB9 SWAP1 PUSH1 0x1 PUSH1 0x1 PUSH1 0x60 SHL SUB AND DUP14 PUSH2 0x439E JUMP JUMPDEST SWAP12 POP PUSH2 0x1BCB DUP3 PUSH1 0xA0 ADD MLOAD PUSH1 0x1 AND ISZERO ISZERO SWAP1 JUMP JUMPDEST ISZERO PUSH2 0x1BE8 JUMPI DUP2 MLOAD PUSH2 0x1BE5 SWAP1 PUSH1 0x1 PUSH1 0x1 PUSH1 0x60 SHL SUB AND DUP12 PUSH2 0x439E JUMP JUMPDEST SWAP10 POP JUMPDEST DUP1 ISZERO PUSH2 0x1C06 JUMPI DUP2 MLOAD PUSH2 0x1C03 SWAP1 PUSH1 0x1 PUSH1 0x1 PUSH1 0x60 SHL SUB AND DUP8 PUSH2 0x439E JUMP JUMPDEST SWAP6 POP JUMPDEST PUSH2 0x1C6D JUMP JUMPDEST DUP2 MLOAD PUSH2 0x1C20 SWAP1 PUSH1 0x1 PUSH1 0x1 PUSH1 0x60 SHL SUB AND DUP13 PUSH2 0x439E JUMP JUMPDEST SWAP11 POP PUSH2 0x1C32 DUP3 PUSH1 0xA0 ADD MLOAD PUSH1 0x1 AND ISZERO ISZERO SWAP1 JUMP JUMPDEST ISZERO PUSH2 0x1C4F JUMPI DUP2 MLOAD PUSH2 0x1C4C SWAP1 PUSH1 0x1 PUSH1 0x1 PUSH1 0x60 SHL SUB AND DUP11 PUSH2 0x439E JUMP JUMPDEST SWAP9 POP JUMPDEST DUP1 ISZERO PUSH2 0x1C6D JUMPI DUP2 MLOAD PUSH2 0x1C6A SWAP1 PUSH1 0x1 PUSH1 0x1 PUSH1 0x60 SHL SUB AND DUP7 PUSH2 0x439E JUMP JUMPDEST SWAP5 POP JUMPDEST POP POP PUSH1 0x1 ADD PUSH2 0x1AAE JUMP JUMPDEST POP POP PUSH1 0x1 PUSH1 0x1 PUSH1 0xA0 SHL SUB SWAP1 SWAP9 AND PUSH0 SWAP1 DUP2 MSTORE PUSH1 0x9 PUSH1 0x20 SWAP1 DUP2 MSTORE PUSH1 0x40 DUP1 DUP4 KECCAK256 SLOAD PUSH1 0xA SWAP1 SWAP3 MSTORE SWAP1 SWAP2 KECCAK256 SLOAD SWAP8 SWAP10 SWAP7 SWAP9 SWAP6 SWAP8 SWAP5 SWAP7 SWAP1 SWAP6 SWAP2 SWAP4 POP SWAP1 SWAP2 POP JUMP JUMPDEST PUSH0 DUP1 MLOAD PUSH1 0x20 PUSH2 0x4573 DUP4 CODECOPY DUP2 MLOAD SWAP2 MSTORE PUSH2 0x1CC7 DUP2 PUSH2 0x3AB6 JUMP JUMPDEST PUSH1 0x1 PUSH1 0x1 PUSH1 0xA0 SHL SUB DUP4 AND PUSH0 DUP2 DUP2 MSTORE PUSH1 0x7 PUSH1 0x20 SWAP1 DUP2 MSTORE PUSH1 0x40 SWAP2 DUP3 SWAP1 KECCAK256 DUP1 SLOAD PUSH1 0xFF NOT AND DUP7 ISZERO ISZERO SWAP1 DUP2 OR SWAP1 SWAP2 SSTORE SWAP2 MLOAD SWAP2 DUP3 MSTORE PUSH32 0x995D2434D36C9BCEAAB42C56EFE51E8FFE41FD11CABEFD9E2CB83700D8B2035E SWAP2 ADD PUSH1 0x40 MLOAD DUP1 SWAP2 SUB SWAP1 LOG2 POP POP POP JUMP JUMPDEST PUSH32 0x241ECF16D79D0F8DBFB92CBC07FE17840425976CF0667F022FE9877CAA831B08 PUSH2 0x1D50 DUP2 PUSH2 0x3AB6 JUMP JUMPDEST PUSH2 0x1D58 PUSH2 0x3AC7 JUMP JUMPDEST DUP2 PUSH0 SUB PUSH2 0x1D78 JUMPI PUSH1 0x40 MLOAD PUSH4 0x162908E3 PUSH1 0xE1 SHL DUP2 MSTORE PUSH1 0x4 ADD PUSH1 0x40 MLOAD DUP1 SWAP2 SUB SWAP1 REVERT JUMPDEST PUSH1 0x18 SLOAD DUP3 GT ISZERO PUSH2 0x1D9B JUMPI PUSH1 0x40 MLOAD PUSH4 0x4711311 PUSH1 0xE2 SHL DUP2 MSTORE PUSH1 0x4 ADD PUSH1 0x40 MLOAD DUP1 SWAP2 SUB SWAP1 REVERT JUMPDEST DUP2 PUSH1 0x18 PUSH0 DUP3 DUP3 SLOAD PUSH2 0x1DAC SWAP2 SWAP1 PUSH2 0x436C JUMP JUMPDEST SWAP1 SWAP2 SSTORE POP PUSH20 0x833589FCD6EDB6E08F4C7C32D4F71B54BDA02913 SWAP1 POP PUSH4 0x23B872DD PUSH2 0x1DD4 PUSH2 0x3AF1 JUMP JUMPDEST PUSH1 0x40 MLOAD PUSH1 0x1 PUSH1 0x1 PUSH1 0xE0 SHL SUB NOT PUSH1 0xE0 DUP5 SWAP1 SHL AND DUP2 MSTORE PUSH1 0x1 PUSH1 0x1 PUSH1 0xA0 SHL SUB SWAP1 SWAP2 AND PUSH1 0x4 DUP3 ADD MSTORE ADDRESS PUSH1 0x24 DUP3 ADD MSTORE PUSH1 0x44 DUP2 ADD DUP6 SWAP1 MSTORE PUSH1 0x64 ADD PUSH1 0x20 PUSH1 0x40 MLOAD DUP1 DUP4 SUB DUP2 PUSH0 DUP8 GAS CALL ISZERO DUP1 ISZERO PUSH2 0x1E24 JUMPI RETURNDATASIZE PUSH0 DUP1 RETURNDATACOPY RETURNDATASIZE PUSH0 REVERT JUMPDEST POP POP POP POP PUSH1 0x40 MLOAD RETURNDATASIZE PUSH1 0x1F NOT PUSH1 0x1F DUP3 ADD AND DUP3 ADD DUP1 PUSH1 0x40 MSTORE POP DUP2 ADD SWAP1 PUSH2 0x1E48 SWAP2 SWAP1 PUSH2 0x43C5 JUMP JUMPDEST POP PUSH2 0x1E51 PUSH2 0x3AF1 JUMP JUMPDEST PUSH1 0x1 PUSH1 0x1 PUSH1 0xA0 SHL SUB AND PUSH32 0x1B0029D3A4003762F16D0DC71199CE167B1D4BF00C5B97A3E28F613E921D6540 PUSH1 0x1 DUP5 TIMESTAMP PUSH1 0x40 MLOAD PUSH2 0x1E8E SWAP4 SWAP3 SWAP2 SWAP1 PUSH2 0x437F JUMP JUMPDEST PUSH1 0x40 MLOAD DUP1 SWAP2 SUB SWAP1 LOG2 PUSH2 0x1E9F PUSH1 0x1 DUP1 SSTORE JUMP JUMPDEST POP POP JUMP JUMPDEST PUSH32 0xF60566C40710959D8D30B6067CE3C53C757BEC78EECB0E46B83C7F8194FFAE37 PUSH2 0x1ECD DUP2 PUSH2 0x3AB6 JUMP JUMPDEST CALLVALUE PUSH0 SUB PUSH2 0x1EED JUMPI PUSH1 0x40 MLOAD PUSH4 0x162908E3 PUSH1 0xE1 SHL DUP2 MSTORE PUSH1 0x4 ADD PUSH1 0x40 MLOAD DUP1 SWAP2 SUB SWAP1 REVERT JUMPDEST CALLVALUE PUSH1 0x13 PUSH0 DUP3 DUP3 SLOAD PUSH2 0x1EFE SWAP2 SWAP1 PUSH2 0x439E JUMP JUMPDEST SWAP1 SWAP2 SSTORE POP PUSH2 0x1F0C SWAP1 POP PUSH2 0x3AF1 JUMP JUMPDEST PUSH1 0x1 PUSH1 0x1 PUSH1 0xA0 SHL SUB AND PUSH32 0x8BAFEC96FCFFB6F12596B4635C76397B7BC1F363B22C49C13136B63677323DCC PUSH0 CALLVALUE TIMESTAMP PUSH1 0x40 MLOAD PUSH2 0x1F48 SWAP4 SWAP3 SWAP2 SWAP1 PUSH2 0x437F JUMP JUMPDEST PUSH1 0x40 MLOAD DUP1 SWAP2 SUB SWAP1 LOG2 POP JUMP JUMPDEST PUSH32 0x65D7A28E3265B37A6474929F336521B332C1681B933F6CB9F3376673440D862A PUSH2 0x1F7D DUP2 PUSH2 0x3AB6 JUMP JUMPDEST PUSH1 0x5 DUP1 SLOAD DUP4 ISZERO ISZERO PUSH2 0x100 DUP2 MUL PUSH2 0xFF00 NOT DUP8 ISZERO ISZERO SWAP1 DUP2 AND PUSH2 0xFFFF NOT SWAP1 SWAP5 AND SWAP4 SWAP1 SWAP4 OR OR SWAP1 SWAP3 SSTORE PUSH1 0x40 DUP1 MLOAD SWAP2 DUP3 MSTORE PUSH1 0x20 DUP3 ADD SWAP3 SWAP1 SWAP3 MSTORE PUSH32 0xAC1664632D6278432AA05A6AFC0AA83E5EA08E8DF9A1436736DAA5D6283211C0 SWAP2 ADD JUMPDEST PUSH1 0x40 MLOAD DUP1 SWAP2 SUB SWAP1 LOG1 POP POP POP JUMP JUMPDEST PUSH2 0x1FEA PUSH2 0x3AC7 JUMP JUMPDEST PUSH0 PUSH2 0x1FF3 PUSH2 0x3AF1 JUMP JUMPDEST PUSH1 0x1 PUSH1 0x1 PUSH1 0xA0 SHL SUB DUP2 AND PUSH0 SWAP1 DUP2 MSTORE PUSH1 0xA PUSH1 0x20 MSTORE PUSH1 0x40 DUP2 KECCAK256 SLOAD SWAP2 SWAP3 POP DUP2 SWAP1 SUB PUSH2 0x202E JUMPI PUSH1 0x40 MLOAD PUSH4 0x3BD65A7B PUSH1 0xE2 SHL DUP2 MSTORE PUSH1 0x4 ADD PUSH1 0x40 MLOAD DUP1 SWAP2 SUB SWAP1 REVERT JUMPDEST PUSH1 0x1 PUSH1 0x1 PUSH1 0xA0 SHL SUB DUP3 AND PUSH0 DUP2 DUP2 MSTORE PUSH1 0xA PUSH1 0x20 MSTORE PUSH1 0x40 DUP1 DUP3 KECCAK256 SWAP2 SWAP1 SWAP2 SSTORE MLOAD PUSH4 0xA9059CBB PUSH1 0xE0 SHL DUP2 MSTORE PUSH1 0x4 DUP2 ADD SWAP2 SWAP1 SWAP2 MSTORE PUSH1 0x24 DUP2 ADD DUP3 SWAP1 MSTORE PUSH20 0x833589FCD6EDB6E08F4C7C32D4F71B54BDA02913 SWAP1 PUSH4 0xA9059CBB SWAP1 PUSH1 0x44 ADD PUSH1 0x20 PUSH1 0x40 MLOAD DUP1 DUP4 SUB DUP2 PUSH0 DUP8 GAS CALL ISZERO DUP1 ISZERO PUSH2 0x209F JUMPI RETURNDATASIZE PUSH0 DUP1 RETURNDATACOPY RETURNDATASIZE PUSH0 REVERT JUMPDEST POP POP POP POP PUSH1 0x40 MLOAD RETURNDATASIZE PUSH1 0x1F NOT PUSH1 0x1F DUP3 ADD AND DUP3 ADD DUP1 PUSH1 0x40 MSTORE POP DUP2 ADD SWAP1 PUSH2 0x20C3 SWAP2 SWAP1 PUSH2 0x43C5 JUMP JUMPDEST POP DUP2 PUSH1 0x1 PUSH1 0x1 PUSH1 0xA0 SHL SUB AND PUSH32 0x6914793C7A82461ACEC66C7DE7FDBBBF1F825C26BC2FE939B61F0E4F8964C2B5 PUSH1 0x1 DUP4 TIMESTAMP PUSH1 0x40 MLOAD PUSH2 0x1299 SWAP4 SWAP3 SWAP2 SWAP1 PUSH2 0x437F JUMP JUMPDEST PUSH0 DUP1 MLOAD PUSH1 0x20 PUSH2 0x4573 DUP4 CODECOPY DUP2 MLOAD SWAP2 MSTORE PUSH2 0x2119 DUP2 PUSH2 0x3AB6 JUMP JUMPDEST DUP2 PUSH0 SUB PUSH2 0x2139 JUMPI PUSH1 0x40 MLOAD PUSH4 0x162908E3 PUSH1 0xE1 SHL DUP2 MSTORE PUSH1 0x4 ADD PUSH1 0x40 MLOAD DUP1 SWAP2 SUB SWAP1 REVERT JUMPDEST PUSH1 0x13 SLOAD DUP3 GT ISZERO PUSH2 0x215C JUMPI PUSH1 0x40 MLOAD PUSH4 0x2F37549D PUSH1 0xE0 SHL DUP2 MSTORE PUSH1 0x4 ADD PUSH1 0x40 MLOAD DUP1 SWAP2 SUB SWAP1 REVERT JUMPDEST PUSH1 0x1 PUSH1 0x1 PUSH1 0xA0 SHL SUB DUP4 AND PUSH0 SWAP1 DUP2 MSTORE PUSH1 0x9 PUSH1 0x20 MSTORE PUSH1 0x40 DUP2 KECCAK256 DUP1 SLOAD DUP5 SWAP3 SWAP1 PUSH2 0x2183 SWAP1 DUP5 SWAP1 PUSH2 0x439E JUMP JUMPDEST SWAP3 POP POP DUP2 SWAP1 SSTORE POP DUP2 PUSH1 0x13 PUSH0 DUP3 DUP3 SLOAD PUSH2 0x219B SWAP2 SWAP1 PUSH2 0x436C JUMP JUMPDEST SWAP1 SWAP2 SSTORE POP POP POP POP POP JUMP JUMPDEST PUSH2 0x21AD PUSH2 0x3AC7 JUMP JUMPDEST PUSH1 0x5 SLOAD PUSH2 0x100 SWAP1 DIV PUSH1 0xFF AND ISZERO PUSH2 0x21D6 JUMPI PUSH1 0x40 MLOAD PUSH4 0x6022A9E7 PUSH1 0xE0 SHL DUP2 MSTORE PUSH1 0x4 ADD PUSH1 0x40 MLOAD DUP1 SWAP2 SUB SWAP1 REVERT JUMPDEST PUSH0 PUSH2 0x21DF PUSH2 0x3AF1 JUMP JUMPDEST SWAP1 POP PUSH0 DUP1 PUSH0 DUP1 PUSH0 DUP1 PUSH0 JUMPDEST DUP9 DUP2 LT ISZERO PUSH2 0x243A JUMPI PUSH0 DUP11 DUP11 DUP4 DUP2 DUP2 LT PUSH2 0x2204 JUMPI PUSH2 0x2204 PUSH2 0x43B1 JUMP JUMPDEST SWAP1 POP PUSH1 0x20 MUL ADD CALLDATALOAD SWAP1 POP PUSH0 PUSH1 0x6 PUSH0 DUP12 PUSH1 0x1 PUSH1 0x1 PUSH1 0xA0 SHL SUB AND PUSH1 0x1 PUSH1 0x1 PUSH1 0xA0 SHL SUB AND DUP2 MSTORE PUSH1 0x20 ADD SWAP1 DUP2 MSTORE PUSH1 0x20 ADD PUSH0 KECCAK256 DUP3 DUP2 SLOAD DUP2 LT PUSH2 0x2242 JUMPI PUSH2 0x2242 PUSH2 0x43B1 JUMP JUMPDEST PUSH0 SWAP2 DUP3 MSTORE PUSH1 0x20 SWAP1 SWAP2 KECCAK256 PUSH1 0x1 PUSH1 0x2 SWAP1 SWAP3 MUL ADD DUP2 DUP2 ADD SLOAD SWAP1 SWAP3 POP PUSH1 0x1 PUSH1 0x38 SHL SWAP1 DIV AND ISZERO PUSH2 0x2280 JUMPI PUSH1 0x40 MLOAD PUSH4 0x6507689F PUSH1 0xE0 SHL DUP2 MSTORE PUSH1 0x4 ADD PUSH1 0x40 MLOAD DUP1 SWAP2 SUB SWAP1 REVERT JUMPDEST PUSH1 0x2 SLOAD DUP2 SLOAD PUSH2 0x229E SWAP2 SWAP1 PUSH1 0x1 PUSH1 0xC0 SHL SWAP1 DIV PUSH6 0xFFFFFFFFFFFF AND PUSH2 0x439E JUMP JUMPDEST TIMESTAMP LT DUP1 ISZERO PUSH2 0x22B8 JUMPI POP PUSH1 0x1 DUP2 ADD SLOAD PUSH1 0x1 PUSH1 0x38 SHL SWAP1 DIV PUSH1 0x2 AND ISZERO JUMPDEST DUP1 ISZERO PUSH2 0x22E7 JUMPI POP PUSH1 0x5 SLOAD PUSH4 0x1000000 SWAP1 DIV PUSH1 0xFF AND DUP1 ISZERO PUSH2 0x22E5 JUMPI POP PUSH1 0x1 DUP2 ADD SLOAD PUSH1 0x1 PUSH1 0x38 SHL SWAP1 DIV PUSH1 0x4 AND ISZERO ISZERO JUMPDEST ISZERO JUMPDEST ISZERO PUSH2 0x2305 JUMPI PUSH1 0x40 MLOAD PUSH4 0xF38B9B5B PUSH1 0xE0 SHL DUP2 MSTORE PUSH1 0x4 ADD PUSH1 0x40 MLOAD DUP1 SWAP2 SUB SWAP1 REVERT JUMPDEST PUSH1 0x1 DUP2 DUP2 ADD DUP1 SLOAD PUSH8 0xFF00FFFFFFFFFFFF NOT DUP2 AND PUSH1 0x1 PUSH1 0x38 SHL SWAP2 DUP3 SWAP1 DIV PUSH1 0xFF AND SWAP1 SWAP4 OR MUL PUSH6 0xFFFFFFFFFFFF NOT AND SWAP2 SWAP1 SWAP2 OR TIMESTAMP PUSH6 0xFFFFFFFFFFFF AND OR SWAP1 SSTORE DUP1 SLOAD PUSH1 0x1 PUSH1 0x1 PUSH1 0x60 SHL SUB DUP1 DUP3 AND SWAP2 PUSH1 0x1 PUSH1 0x60 SHL SWAP1 DIV AND PUSH0 PUSH1 0x1 DUP5 DUP2 ADD SLOAD PUSH7 0x1000000000000 SWAP1 DIV PUSH1 0xFF AND SWAP1 DUP2 GT ISZERO PUSH2 0x237B JUMPI PUSH2 0x237B PUSH2 0x4011 JUMP JUMPDEST SUB PUSH2 0x23A9 JUMPI PUSH2 0x238A DUP3 DUP9 PUSH2 0x439E JUMP JUMPDEST SWAP7 POP PUSH2 0x2396 DUP3 DUP13 PUSH2 0x439E JUMP JUMPDEST SWAP11 POP PUSH2 0x23A2 DUP2 DUP12 PUSH2 0x439E JUMP JUMPDEST SWAP10 POP PUSH2 0x23CE JUMP JUMPDEST PUSH2 0x23B3 DUP3 DUP8 PUSH2 0x439E JUMP JUMPDEST SWAP6 POP PUSH2 0x23BF DUP3 DUP11 PUSH2 0x439E JUMP JUMPDEST SWAP9 POP PUSH2 0x23CB DUP2 DUP10 PUSH2 0x439E JUMP JUMPDEST SWAP8 POP JUMPDEST PUSH1 0x1 DUP4 ADD SLOAD PUSH1 0x40 MLOAD PUSH1 0x1 PUSH1 0x1 PUSH1 0xA0 SHL SUB DUP15 AND SWAP2 PUSH32 0xCB034B37EF3764745C35BAFECD525367BCF312E9010239E6AEEBBE6BCF57727F SWAP2 PUSH2 0x2422 SWAP2 PUSH7 0x1000000000000 SWAP1 DIV PUSH1 0xFF AND SWAP1 DUP7 SWAP1 DUP7 SWAP1 TIMESTAMP SWAP1 DUP12 SWAP1 PUSH2 0x43E0 JUMP JUMPDEST PUSH1 0x40 MLOAD DUP1 SWAP2 SUB SWAP1 LOG2 POP POP PUSH1 0x1 SWAP1 SWAP3 ADD SWAP2 POP PUSH2 0x21E9 SWAP1 POP JUMP JUMPDEST POP DUP2 ISZERO PUSH2 0x2458 JUMPI DUP2 PUSH1 0x11 PUSH0 DUP3 DUP3 SLOAD PUSH2 0x2452 SWAP2 SWAP1 PUSH2 0x439E JUMP JUMPDEST SWAP1 SWAP2 SSTORE POP POP JUMPDEST DUP1 ISZERO PUSH2 0x2475 JUMPI DUP1 PUSH1 0x12 PUSH0 DUP3 DUP3 SLOAD PUSH2 0x246F SWAP2 SWAP1 PUSH2 0x439E JUMP JUMPDEST SWAP1 SWAP2 SSTORE POP POP JUMPDEST PUSH1 0x1 PUSH1 0x1 PUSH1 0xA0 SHL SUB DUP8 AND PUSH0 SWAP1 DUP2 MSTORE PUSH1 0x8 PUSH1 0x20 MSTORE PUSH1 0x40 SWAP1 KECCAK256 SLOAD PUSH1 0xFF AND ISZERO DUP1 ISZERO PUSH2 0x249C JUMPI POP DUP8 ISZERO ISZERO JUMPDEST ISZERO PUSH2 0x2511 JUMPI PUSH1 0xE DUP1 SLOAD PUSH1 0x1 DUP1 DUP3 ADD SWAP1 SWAP3 SSTORE PUSH32 0xBB7B4A454DC3493923482F07822329ED19E8244EFF582CC204F8554C3620C3FD ADD DUP1 SLOAD PUSH20 0xFFFFFFFFFFFFFFFFFFFFFFFFFFFFFFFFFFFFFFFF NOT AND PUSH1 0x1 PUSH1 0x1 PUSH1 0xA0 SHL SUB DUP11 AND SWAP1 DUP2 OR SWAP1 SWAP2 SSTORE PUSH0 SWAP1 DUP2 MSTORE PUSH1 0x8 PUSH1 0x20 MSTORE PUSH1 0x40 SWAP1 KECCAK256 DUP1 SLOAD PUSH1 0xFF NOT AND SWAP1 SWAP2 OR SWAP1 SSTORE JUMPDEST PUSH0 PUSH2 0x251C DUP7 DUP9 PUSH2 0x439E JUMP JUMPDEST GT ISZERO PUSH2 0x25E4 JUMPI PUSH0 PUSH1 0x1 PUSH1 0x1 PUSH1 0xA0 SHL SUB DUP9 AND PUSH2 0x2537 DUP8 DUP10 PUSH2 0x439E JUMP JUMPDEST PUSH1 0x40 MLOAD PUSH0 DUP2 DUP2 DUP2 DUP6 DUP8 GAS CALL SWAP3 POP POP POP RETURNDATASIZE DUP1 PUSH0 DUP2 EQ PUSH2 0x2570 JUMPI PUSH1 0x40 MLOAD SWAP2 POP PUSH1 0x1F NOT PUSH1 0x3F RETURNDATASIZE ADD AND DUP3 ADD PUSH1 0x40 MSTORE RETURNDATASIZE DUP3 MSTORE RETURNDATASIZE PUSH0 PUSH1 0x20 DUP5 ADD RETURNDATACOPY PUSH2 0x2575 JUMP JUMPDEST PUSH1 0x60 SWAP2 POP JUMPDEST POP POP SWAP1 POP DUP1 PUSH2 0x2597 JUMPI PUSH1 0x40 MLOAD PUSH4 0x12171D83 PUSH1 0xE3 SHL DUP2 MSTORE PUSH1 0x4 ADD PUSH1 0x40 MLOAD DUP1 SWAP2 SUB SWAP1 REVERT JUMPDEST DUP8 PUSH1 0x1 PUSH1 0x1 PUSH1 0xA0 SHL SUB AND PUSH32 0xBF06E98FE211A4B82F625232AB1C7A75CAEA5E0D624BC267578D6F22FCE788C3 PUSH0 DUP13 DUP13 DUP12 DUP12 TIMESTAMP PUSH1 0x40 MLOAD PUSH2 0x25DA SWAP7 SWAP6 SWAP5 SWAP4 SWAP3 SWAP2 SWAP1 PUSH2 0x4459 JUMP JUMPDEST PUSH1 0x40 MLOAD DUP1 SWAP2 SUB SWAP1 LOG2 POP JUMPDEST PUSH0 PUSH2 0x25EF DUP5 DUP7 PUSH2 0x439E JUMP JUMPDEST GT ISZERO PUSH2 0x26D4 JUMPI PUSH20 0x833589FCD6EDB6E08F4C7C32D4F71B54BDA02913 PUSH4 0xA9059CBB DUP9 PUSH2 0x261A DUP7 DUP9 PUSH2 0x439E JUMP JUMPDEST PUSH1 0x40 MLOAD PUSH1 0x1 PUSH1 0x1 PUSH1 0xE0 SHL SUB NOT PUSH1 0xE0 DUP6 SWAP1 SHL AND DUP2 MSTORE PUSH1 0x1 PUSH1 0x1 PUSH1 0xA0 SHL SUB SWAP1 SWAP3 AND PUSH1 0x4 DUP4 ADD MSTORE PUSH1 0x24 DUP3 ADD MSTORE PUSH1 0x44 ADD PUSH1 0x20 PUSH1 0x40 MLOAD DUP1 DUP4 SUB DUP2 PUSH0 DUP8 GAS CALL ISZERO DUP1 ISZERO PUSH2 0x2662 JUMPI RETURNDATASIZE PUSH0 DUP1 RETURNDATACOPY RETURNDATASIZE PUSH0 REVERT JUMPDEST POP POP POP POP PUSH1 0x40 MLOAD RETURNDATASIZE PUSH1 0x1F NOT PUSH1 0x1F DUP3 ADD AND DUP3 ADD DUP1 PUSH1 0x40 MSTORE POP DUP2 ADD SWAP1 PUSH2 0x2686 SWAP2 SWAP1 PUSH2 0x43C5 JUMP JUMPDEST POP DUP7 PUSH1 0x1 PUSH1 0x1 PUSH1 0xA0 SHL SUB AND PUSH32 0xBF06E98FE211A4B82F625232AB1C7A75CAEA5E0D624BC267578D6F22FCE788C3 PUSH1 0x1 DUP12 DUP12 DUP9 DUP9 TIMESTAMP PUSH1 0x40 MLOAD PUSH2 0x26CB SWAP7 SWAP6 SWAP5 SWAP4 SWAP3 SWAP2 SWAP1 PUSH2 0x4459 JUMP JUMPDEST PUSH1 0x40 MLOAD DUP1 SWAP2 SUB SWAP1 LOG2 JUMPDEST POP POP POP POP POP POP POP PUSH2 0x1E9F PUSH1 0x1 DUP1 SSTORE JUMP JUMPDEST PUSH0 DUP1 MLOAD PUSH1 0x20 PUSH2 0x4573 DUP4 CODECOPY DUP2 MLOAD SWAP2 MSTORE PUSH2 0x26FB DUP2 PUSH2 0x3AB6 JUMP JUMPDEST DUP2 PUSH0 SUB PUSH2 0x271B JUMPI PUSH1 0x40 MLOAD PUSH4 0x162908E3 PUSH1 0xE1 SHL DUP2 MSTORE PUSH1 0x4 ADD PUSH1 0x40 MLOAD DUP1 SWAP2 SUB SWAP1 REVERT JUMPDEST PUSH1 0x14 SLOAD DUP3 GT ISZERO PUSH2 0x273E JUMPI PUSH1 0x40 MLOAD PUSH4 0x2F37549D PUSH1 0xE0 SHL DUP2 MSTORE PUSH1 0x4 ADD PUSH1 0x40 MLOAD DUP1 SWAP2 SUB SWAP1 REVERT JUMPDEST PUSH1 0x1 PUSH1 0x1 PUSH1 0xA0 SHL SUB DUP4 AND PUSH0 SWAP1 DUP2 MSTORE PUSH1 0xA PUSH1 0x20 MSTORE PUSH1 0x40 DUP2 KECCAK256 DUP1 SLOAD DUP5 SWAP3 SWAP1 PUSH2 0x2765 SWAP1 DUP5 SWAP1 PUSH2 0x439E JUMP JUMPDEST SWAP3 POP POP DUP2 SWAP1 SSTORE POP DUP2 PUSH1 0x14 PUSH0 DUP3 DUP3 SLOAD PUSH2 0x219B SWAP2 SWAP1 PUSH2 0x436C JUMP JUMPDEST PUSH32 0x78C90EB9E475048B483A290AEE04B5FE48355537C3623C7637B17D3BED71C6ED PUSH2 0x27A7 DUP2 PUSH2 0x3AB6 JUMP JUMPDEST PUSH2 0x27AF PUSH2 0x3AC7 JUMP JUMPDEST PUSH1 0x5 SLOAD PUSH1 0x1 PUSH1 0x50 SHL SWAP1 DIV PUSH1 0x1 PUSH1 0x1 PUSH1 0xA0 SHL SUB AND PUSH2 0x27DF JUMPI PUSH1 0x40 MLOAD PUSH4 0xD92E233D PUSH1 0xE0 SHL DUP2 MSTORE PUSH1 0x4 ADD PUSH1 0x40 MLOAD DUP1 SWAP2 SUB SWAP1 REVERT JUMPDEST PUSH1 0x5 SLOAD PUSH1 0x40 MLOAD PUSH4 0xA9059CBB PUSH1 0xE0 SHL DUP2 MSTORE PUSH1 0x1 PUSH1 0x50 SHL SWAP1 SWAP2 DIV PUSH1 0x1 PUSH1 0x1 PUSH1 0xA0 SHL SUB AND PUSH1 0x4 DUP3 ADD MSTORE PUSH1 0x24 DUP2 ADD DUP4 SWAP1 MSTORE PUSH20 0x833589FCD6EDB6E08F4C7C32D4F71B54BDA02913 SWAP1 PUSH4 0xA9059CBB SWAP1 PUSH1 0x44 ADD PUSH1 0x20 PUSH1 0x40 MLOAD DUP1 DUP4 SUB DUP2 PUSH0 DUP8 GAS CALL ISZERO DUP1 ISZERO PUSH2 0x2847 JUMPI RETURNDATASIZE PUSH0 DUP1 RETURNDATACOPY RETURNDATASIZE PUSH0 REVERT JUMPDEST POP POP POP POP PUSH1 0x40 MLOAD RETURNDATASIZE PUSH1 0x1F NOT PUSH1 0x1F DUP3 ADD AND DUP3 ADD DUP1 PUSH1 0x40 MSTORE POP DUP2 ADD SWAP1 PUSH2 0x286B SWAP2 SWAP1 PUSH2 0x43C5 JUMP JUMPDEST POP PUSH1 0x5 PUSH1 0xA SWAP1 SLOAD SWAP1 PUSH2 0x100 EXP SWAP1 DIV PUSH1 0x1 PUSH1 0x1 PUSH1 0xA0 SHL SUB AND PUSH1 0x1 PUSH1 0x1 PUSH1 0xA0 SHL SUB AND PUSH32 0x9ADBDC797ACA3CE26A722598F00149B2328FD124444E6D0B10C4BDC7CFC38196 PUSH1 0x1 DUP5 TIMESTAMP PUSH1 0x40 MLOAD PUSH2 0x1E8E SWAP4 SWAP3 SWAP2 SWAP1 PUSH2 0x437F JUMP JUMPDEST PUSH32 0xC806897CAF4FD5068191157E44D3988E43139A37E0B97B6793E1ED1184140604 PUSH2 0x28E9 DUP2 PUSH2 0x3AB6 JUMP JUMPDEST PUSH0 JUMPDEST DUP3 DUP2 LT ISZERO PUSH2 0x29B9 JUMPI PUSH1 0x1 PUSH1 0x1 PUSH1 0xA0 SHL SUB DUP6 AND PUSH0 SWAP1 DUP2 MSTORE PUSH1 0x6 PUSH1 0x20 MSTORE PUSH1 0x40 DUP2 KECCAK256 DUP6 DUP6 DUP5 DUP2 DUP2 LT PUSH2 0x291C JUMPI PUSH2 0x291C PUSH2 0x43B1 JUMP JUMPDEST SWAP1 POP PUSH1 0x20 MUL ADD CALLDATALOAD DUP2 SLOAD DUP2 LT PUSH2 0x2933 JUMPI PUSH2 0x2933 PUSH2 0x43B1 JUMP JUMPDEST PUSH0 SWAP2 DUP3 MSTORE PUSH1 0x20 SWAP1 SWAP2 KECCAK256 PUSH1 0x1 PUSH1 0x2 SWAP1 SWAP3 MUL ADD DUP2 DUP2 ADD SLOAD SWAP1 SWAP3 POP PUSH1 0x1 PUSH1 0x38 SHL SWAP1 DIV AND ISZERO ISZERO DUP1 PUSH2 0x296D JUMPI POP PUSH1 0x1 DUP2 ADD SLOAD PUSH1 0x1 PUSH1 0x38 SHL SWAP1 DIV PUSH1 0x2 AND ISZERO ISZERO JUMPDEST ISZERO PUSH2 0x298B JUMPI PUSH1 0x40 MLOAD PUSH4 0x181821BD PUSH1 0xE1 SHL DUP2 MSTORE PUSH1 0x4 ADD PUSH1 0x40 MLOAD DUP1 SWAP2 SUB SWAP1 REVERT JUMPDEST PUSH1 0x1 SWAP1 DUP2 ADD DUP1 SLOAD PUSH8 0xFF00000000000000 NOT DUP2 AND PUSH1 0x1 PUSH1 0x38 SHL SWAP2 DUP3 SWAP1 DIV PUSH1 0xFF AND PUSH1 0x2 OR SWAP1 SWAP2 MUL OR SWAP1 SSTORE ADD PUSH2 0x28EB JUMP JUMPDEST POP DUP4 PUSH1 0x1 PUSH1 0x1 PUSH1 0xA0 SHL SUB AND PUSH32 0x8B655A966F162E1D3686EA25CD61682331984AB5662B451DEFF96F12D716F45B DUP5 DUP5 PUSH1 0x40 MLOAD PUSH2 0x29F5 SWAP3 SWAP2 SWAP1 PUSH2 0x4497 JUMP JUMPDEST PUSH1 0x40 MLOAD DUP1 SWAP2 SUB SWAP1 LOG2 POP POP POP POP JUMP JUMPDEST PUSH0 DUP1 MLOAD PUSH1 0x20 PUSH2 0x4573 DUP4 CODECOPY DUP2 MLOAD SWAP2 MSTORE PUSH2 0x2A1A DUP2 PUSH2 0x3AB6 JUMP JUMPDEST PUSH1 0x1 PUSH1 0x1 PUSH1 0xA0 SHL SUB DUP3 AND PUSH2 0x2A41 JUMPI PUSH1 0x40 MLOAD PUSH4 0xD92E233D PUSH1 0xE0 SHL DUP2 MSTORE PUSH1 0x4 ADD PUSH1 0x40 MLOAD DUP1 SWAP2 SUB SWAP1 REVERT JUMPDEST PUSH1 0x5 DUP1 SLOAD PUSH32 0xFFFF0000000000000000000000000000000000000000FFFFFFFFFFFFFFFFFFFF AND PUSH1 0x1 PUSH1 0x50 SHL PUSH1 0x1 PUSH1 0x1 PUSH1 0xA0 SHL SUB DUP6 AND SWAP1 DUP2 MUL SWAP2 SWAP1 SWAP2 OR SWAP1 SWAP2 SSTORE PUSH1 0x40 MLOAD SWAP1 DUP2 MSTORE PUSH32 0x1D6240E71A77C9E9D07D1D6ECBB9EA4274FCC8BC19ADC5B05A3548AC7E40E189 SWAP1 PUSH1 0x20 ADD JUMPDEST PUSH1 0x40 MLOAD DUP1 SWAP2 SUB SWAP1 LOG1 POP POP JUMP JUMPDEST PUSH32 0x241ECF16D79D0F8DBFB92CBC07FE17840425976CF0667F022FE9877CAA831B08 PUSH2 0x2AE2 DUP2 PUSH2 0x3AB6 JUMP JUMPDEST PUSH2 0x2AEA PUSH2 0x3AC7 JUMP JUMPDEST PUSH1 0x1 PUSH1 0x1 PUSH1 0xA0 SHL SUB DUP4 AND PUSH2 0x2B11 JUMPI PUSH1 0x40 MLOAD PUSH4 0xD92E233D PUSH1 0xE0 SHL DUP2 MSTORE PUSH1 0x4 ADD PUSH1 0x40 MLOAD DUP1 SWAP2 SUB SWAP1 REVERT JUMPDEST PUSH1 0x40 MLOAD PUSH4 0x70A08231 PUSH1 0xE0 SHL DUP2 MSTORE ADDRESS PUSH1 0x4 DUP3 ADD MSTORE PUSH20 0x833589FCD6EDB6E08F4C7C32D4F71B54BDA02913 SWAP1 PUSH4 0x70A08231 SWAP1 PUSH1 0x24 ADD PUSH1 0x20 PUSH1 0x40 MLOAD DUP1 DUP4 SUB DUP2 DUP7 GAS STATICCALL ISZERO DUP1 ISZERO PUSH2 0x2B5E JUMPI RETURNDATASIZE PUSH0 DUP1 RETURNDATACOPY RETURNDATASIZE PUSH0 REVERT JUMPDEST POP POP POP POP PUSH1 0x40 MLOAD RETURNDATASIZE PUSH1 0x1F NOT PUSH1 0x1F DUP3 ADD AND DUP3 ADD DUP1 PUSH1 0x40 MSTORE POP DUP2 ADD SWAP1 PUSH2 0x2B82 SWAP2 SWAP1 PUSH2 0x44B2 JUMP JUMPDEST DUP3 GT ISZERO PUSH2 0x2BA2 JUMPI PUSH1 0x40 MLOAD PUSH4 0x1E9ACF17 PUSH1 0xE3 SHL DUP2 MSTORE PUSH1 0x4 ADD PUSH1 0x40 MLOAD DUP1 SWAP2 SUB SWAP1 REVERT JUMPDEST DUP2 PUSH1 0x18 PUSH0 DUP3 DUP3 SLOAD PUSH2 0x2BB3 SWAP2 SWAP1 PUSH2 0x439E JUMP JUMPDEST SWAP1 SWAP2 SSTORE POP POP PUSH1 0x40 MLOAD PUSH4 0xA9059CBB PUSH1 0xE0 SHL DUP2 MSTORE PUSH1 0x1 PUSH1 0x1 PUSH1 0xA0 SHL SUB DUP5 AND PUSH1 0x4 DUP3 ADD MSTORE PUSH1 0x24 DUP2 ADD DUP4 SWAP1 MSTORE PUSH20 0x833589FCD6EDB6E08F4C7C32D4F71B54BDA02913 SWAP1 PUSH4 0xA9059CBB SWAP1 PUSH1 0x44 ADD PUSH1 0x20 PUSH1 0x40 MLOAD DUP1 DUP4 SUB DUP2 PUSH0 DUP8 GAS CALL ISZERO DUP1 ISZERO PUSH2 0x2C16 JUMPI RETURNDATASIZE PUSH0 DUP1 RETURNDATACOPY RETURNDATASIZE PUSH0 REVERT JUMPDEST POP POP POP POP PUSH1 0x40 MLOAD RETURNDATASIZE PUSH1 0x1F NOT PUSH1 0x1F DUP3 ADD AND DUP3 ADD DUP1 PUSH1 0x40 MSTORE POP DUP2 ADD SWAP1 PUSH2 0x2C3A SWAP2 SWAP1 PUSH2 0x43C5 JUMP JUMPDEST POP DUP3 PUSH1 0x1 PUSH1 0x1 PUSH1 0xA0 SHL SUB AND PUSH2 0x2C4D PUSH2 0x3AF1 JUMP JUMPDEST PUSH1 0x1 PUSH1 0x1 PUSH1 0xA0 SHL SUB AND PUSH32 0x8D4F9C9A6DA9172DA9A02229D92E4AF088C62953986A74048D010260B197DEF3 PUSH1 0x1 DUP6 TIMESTAMP PUSH1 0x40 MLOAD PUSH2 0x2C8A SWAP4 SWAP3 SWAP2 SWAP1 PUSH2 0x437F JUMP JUMPDEST PUSH1 0x40 MLOAD DUP1 SWAP2 SUB SWAP1 LOG3 PUSH2 0x17FB PUSH1 0x1 DUP1 SSTORE JUMP JUMPDEST PUSH32 0x78C90EB9E475048B483A290AEE04B5FE48355537C3623C7637B17D3BED71C6ED PUSH2 0x2CC5 DUP2 PUSH2 0x3AB6 JUMP JUMPDEST PUSH2 0x2CCD PUSH2 0x3AC7 JUMP JUMPDEST PUSH1 0x5 SLOAD PUSH1 0x1 PUSH1 0x50 SHL SWAP1 DIV PUSH1 0x1 PUSH1 0x1 PUSH1 0xA0 SHL SUB AND PUSH2 0x2CFD JUMPI PUSH1 0x40 MLOAD PUSH4 0xD92E233D PUSH1 0xE0 SHL DUP2 MSTORE PUSH1 0x4 ADD PUSH1 0x40 MLOAD DUP1 SWAP2 SUB SWAP1 REVERT JUMPDEST SELFBALANCE DUP3 GT ISZERO PUSH2 0x2D1E JUMPI PUSH1 0x40 MLOAD PUSH4 0x1E9ACF17 PUSH1 0xE3 SHL DUP2 MSTORE PUSH1 0x4 ADD PUSH1 0x40 MLOAD DUP1 SWAP2 SUB SWAP1 REVERT JUMPDEST PUSH1 0x5 SLOAD PUSH1 0x40 MLOAD PUSH0 SWAP2 PUSH1 0x1 PUSH1 0x50 SHL SWAP1 DIV PUSH1 0x1 PUSH1 0x1 PUSH1 0xA0 SHL SUB AND SWAP1 DUP5 SWAP1 DUP4 DUP2 DUP2 DUP2 DUP6 DUP8 GAS CALL SWAP3 POP POP POP RETURNDATASIZE DUP1 PUSH0 DUP2 EQ PUSH2 0x2D6F JUMPI PUSH1 0x40 MLOAD SWAP2 POP PUSH1 0x1F NOT PUSH1 0x3F RETURNDATASIZE ADD AND DUP3 ADD PUSH1 0x40 MSTORE RETURNDATASIZE DUP3 MSTORE RETURNDATASIZE PUSH0 PUSH1 0x20 DUP5 ADD RETURNDATACOPY PUSH2 0x2D74 JUMP JUMPDEST PUSH1 0x60 SWAP2 POP JUMPDEST POP POP SWAP1 POP DUP1 PUSH2 0x2D96 JUMPI PUSH1 0x40 MLOAD PUSH4 0x12171D83 PUSH1 0xE3 SHL DUP2 MSTORE PUSH1 0x4 ADD PUSH1 0x40 MLOAD DUP1 SWAP2 SUB SWAP1 REVERT JUMPDEST PUSH1 0x5 PUSH1 0xA SWAP1 SLOAD SWAP1 PUSH2 0x100 EXP SWAP1 DIV PUSH1 0x1 PUSH1 0x1 PUSH1 0xA0 SHL SUB AND PUSH1 0x1 PUSH1 0x1 PUSH1 0xA0 SHL SUB AND PUSH32 0x9ADBDC797ACA3CE26A722598F00149B2328FD124444E6D0B10C4BDC7CFC38196 PUSH0 DUP6 TIMESTAMP PUSH1 0x40 MLOAD PUSH2 0x2DE8 SWAP4 SWAP3 SWAP2 SWAP1 PUSH2 0x437F JUMP JUMPDEST PUSH1 0x40 MLOAD DUP1 SWAP2 SUB SWAP1 LOG2 POP PUSH2 0x1E9F PUSH1 0x1 DUP1 SSTORE JUMP JUMPDEST PUSH1 0xE DUP2 DUP2 SLOAD DUP2 LT PUSH2 0x2E09 JUMPI PUSH0 DUP1 REVERT JUMPDEST PUSH0 SWAP2 DUP3 MSTORE PUSH1 0x20 SWAP1 SWAP2 KECCAK256 ADD SLOAD PUSH1 0x1 PUSH1 0x1 PUSH1 0xA0 SHL SUB AND SWAP1 POP DUP2 JUMP JUMPDEST PUSH1 0x40 MLOAD PUSH4 0x70A08231 PUSH1 0xE0 SHL DUP2 MSTORE ADDRESS PUSH1 0x4 DUP3 ADD MSTORE SELFBALANCE SWAP1 PUSH0 SWAP1 DUP2 SWAP1 DUP2 SWAP1 DUP2 SWAP1 DUP2 SWAP1 DUP2 SWAP1 DUP2 SWAP1 DUP2 SWAP1 DUP2 SWAP1 DUP2 SWAP1 DUP2 SWAP1 DUP2 SWAP1 DUP2 SWAP1 PUSH20 0x833589FCD6EDB6E08F4C7C32D4F71B54BDA02913 SWAP1 PUSH4 0x70A08231 SWAP1 PUSH1 0x24 ADD PUSH1 0x20 PUSH1 0x40 MLOAD DUP1 DUP4 SUB DUP2 DUP7 GAS STATICCALL ISZERO DUP1 ISZERO PUSH2 0x2E8B JUMPI RETURNDATASIZE PUSH0 DUP1 RETURNDATACOPY RETURNDATASIZE PUSH0 REVERT JUMPDEST POP POP POP POP PUSH1 0x40 MLOAD RETURNDATASIZE PUSH1 0x1F NOT PUSH1 0x1F DUP3 ADD AND DUP3 ADD DUP1 PUSH1 0x40 MSTORE POP DUP2 ADD SWAP1 PUSH2 0x2EAF SWAP2 SWAP1 PUSH2 0x44B2 JUMP JUMPDEST SWAP13 POP PUSH1 0xF SLOAD SWAP12 POP PUSH1 0x10 SLOAD SWAP11 POP PUSH1 0x11 SLOAD SWAP10 POP PUSH1 0x12 SLOAD SWAP9 POP PUSH1 0x13 SLOAD SWAP8 POP PUSH1 0x14 SLOAD SWAP7 POP PUSH1 0x15 SLOAD SWAP6 POP PUSH1 0x16 SLOAD SWAP5 POP PUSH1 0x17 SLOAD SWAP4 POP PUSH1 0x18 SLOAD SWAP3 POP PUSH0 SWAP2 POP PUSH1 0xE DUP1 SLOAD SWAP1 POP SWAP1 POP SWAP1 SWAP2 SWAP3 SWAP4 SWAP5 SWAP6 SWAP7 SWAP8 SWAP9 SWAP10 SWAP11 SWAP12 SWAP13 SWAP14 JUMP JUMPDEST PUSH0 DUP1 MLOAD PUSH1 0x20 PUSH2 0x4573 DUP4 CODECOPY DUP2 MLOAD SWAP2 MSTORE PUSH2 0x2F15 DUP2 PUSH2 0x3AB6 JUMP JUMPDEST PUSH1 0x1 PUSH1 0x1 PUSH1 0xA0 SHL SUB DUP4 AND PUSH2 0x2F3C JUMPI PUSH1 0x40 MLOAD PUSH4 0xD92E233D PUSH1 0xE0 SHL DUP2 MSTORE PUSH1 0x4 ADD PUSH1 0x40 MLOAD DUP1 SWAP2 SUB SWAP1 REVERT JUMPDEST PUSH1 0x40 MLOAD PUSH4 0xA9059CBB PUSH1 0xE0 SHL DUP2 MSTORE PUSH1 0x1 PUSH1 0x1 PUSH1 0xA0 SHL SUB DUP5 DUP2 AND PUSH1 0x4 DUP4 ADD MSTORE PUSH1 0x24 DUP3 ADD DUP5 SWAP1 MSTORE DUP6 AND SWAP1 PUSH4 0xA9059CBB SWAP1 PUSH1 0x44 ADD PUSH1 0x20 PUSH1 0x40 MLOAD DUP1 DUP4 SUB DUP2 PUSH0 DUP8 GAS CALL ISZERO DUP1 ISZERO PUSH2 0x2F88 JUMPI RETURNDATASIZE PUSH0 DUP1 RETURNDATACOPY RETURNDATASIZE PUSH0 REVERT JUMPDEST POP POP POP POP PUSH1 0x40 MLOAD RETURNDATASIZE PUSH1 0x1F NOT PUSH1 0x1F DUP3 ADD AND DUP3 ADD DUP1 PUSH1 0x40 MSTORE POP DUP2 ADD SWAP1 PUSH2 0x2FAC SWAP2 SWAP1 PUSH2 0x43C5 JUMP JUMPDEST POP DUP3 PUSH1 0x1 PUSH1 0x1 PUSH1 0xA0 SHL SUB AND DUP5 PUSH1 0x1 PUSH1 0x1 PUSH1 0xA0 SHL SUB AND PUSH32 0x8BBFBB5D7FCACF6FC74005CDEDE0635561638507F576C95F7F294C22141BE2E5 DUP5 PUSH1 0x40 MLOAD PUSH2 0x2FF2 SWAP2 DUP2 MSTORE PUSH1 0x20 ADD SWAP1 JUMP JUMPDEST PUSH1 0x40 MLOAD DUP1 SWAP2 SUB SWAP1 LOG3 POP POP POP POP JUMP JUMPDEST PUSH0 DUP1 MLOAD PUSH1 0x20 PUSH2 0x4573 DUP4 CODECOPY DUP2 MLOAD SWAP2 MSTORE PUSH2 0x3017 DUP2 PUSH2 0x3AB6 JUMP JUMPDEST DUP4 DUP3 EQ PUSH2 0x3037 JUMPI PUSH1 0x40 MLOAD PUSH4 0x512509D3 PUSH1 0xE1 SHL DUP2 MSTORE PUSH1 0x4 ADD PUSH1 0x40 MLOAD DUP1 SWAP2 SUB SWAP1 REVERT JUMPDEST PUSH0 DUP1 JUMPDEST DUP6 DUP2 LT ISZERO PUSH2 0x30F1 JUMPI PUSH0 DUP6 DUP6 DUP4 DUP2 DUP2 LT PUSH2 0x3055 JUMPI PUSH2 0x3055 PUSH2 0x43B1 JUMP JUMPDEST SWAP1 POP PUSH1 0x20 MUL ADD CALLDATALOAD SWAP1 POP DUP1 PUSH0 SUB PUSH2 0x307E JUMPI PUSH1 0x40 MLOAD PUSH4 0x162908E3 PUSH1 0xE1 SHL DUP2 MSTORE PUSH1 0x4 ADD PUSH1 0x40 MLOAD DUP1 SWAP2 SUB SWAP1 REVERT JUMPDEST DUP1 PUSH1 0x9 PUSH0 DUP11 DUP11 DUP7 DUP2 DUP2 LT PUSH2 0x3094 JUMPI PUSH2 0x3094 PUSH2 0x43B1 JUMP JUMPDEST SWAP1 POP PUSH1 0x20 MUL ADD PUSH1 0x20 DUP2 ADD SWAP1 PUSH2 0x30A9 SWAP2 SWAP1 PUSH2 0x3FA8 JUMP JUMPDEST PUSH1 0x1 PUSH1 0x1 PUSH1 0xA0 SHL SUB AND PUSH1 0x1 PUSH1 0x1 PUSH1 0xA0 SHL SUB AND DUP2 MSTORE PUSH1 0x20 ADD SWAP1 DUP2 MSTORE PUSH1 0x20 ADD PUSH0 KECCAK256 PUSH0 DUP3 DUP3 SLOAD PUSH2 0x30D6 SWAP2 SWAP1 PUSH2 0x439E JUMP JUMPDEST SWAP1 SWAP2 SSTORE POP PUSH2 0x30E6 SWAP1 POP DUP2 DUP5 PUSH2 0x439E JUMP JUMPDEST SWAP3 POP POP PUSH1 0x1 ADD PUSH2 0x303A JUMP JUMPDEST POP PUSH1 0x13 SLOAD DUP2 GT ISZERO PUSH2 0x3115 JUMPI PUSH1 0x40 MLOAD PUSH4 0x2F37549D PUSH1 0xE0 SHL DUP2 MSTORE PUSH1 0x4 ADD PUSH1 0x40 MLOAD DUP1 SWAP2 SUB SWAP1 REVERT JUMPDEST DUP1 PUSH1 0x13 PUSH0 DUP3 DUP3 SLOAD PUSH2 0x1926 SWAP2 SWAP1 PUSH2 0x436C JUMP JUMPDEST PUSH2 0x312E PUSH2 0x3AC7 JUMP JUMPDEST PUSH0 PUSH2 0x3137 PUSH2 0x3AF1 JUMP JUMPDEST PUSH1 0x1 PUSH1 0x1 PUSH1 0xA0 SHL SUB DUP2 AND PUSH0 SWAP1 DUP2 MSTORE PUSH1 0xA PUSH1 0x20 MSTORE PUSH1 0x40 DUP2 KECCAK256 SLOAD SWAP2 SWAP3 POP DUP2 SWAP1 SUB PUSH2 0x3172 JUMPI PUSH1 0x40 MLOAD PUSH4 0x3BD65A7B PUSH1 0xE2 SHL DUP2 MSTORE PUSH1 0x4 ADD PUSH1 0x40 MLOAD DUP1 SWAP2 SUB SWAP1 REVERT JUMPDEST PUSH1 0x1 PUSH1 0x1 PUSH1 0xA0 SHL SUB DUP3 AND PUSH0 SWAP1 DUP2 MSTORE PUSH1 0xA PUSH1 0x20 MSTORE PUSH1 0x40 DUP2 KECCAK256 SSTORE PUSH2 0x3197 DUP3 PUSH1 0x1 DUP4 DUP2 PUSH2 0x3AFF JUMP JUMPDEST DUP1 PUSH1 0x16 PUSH0 DUP3 DUP3 SLOAD PUSH2 0x31A8 SWAP2 SWAP1 PUSH2 0x439E JUMP JUMPDEST SWAP1 SWAP2 SSTORE POP POP PUSH1 0x1 PUSH1 0x1 PUSH1 0xA0 SHL SUB DUP3 AND PUSH0 SWAP1 DUP2 MSTORE PUSH1 0xC PUSH1 0x20 MSTORE PUSH1 0x40 DUP2 KECCAK256 DUP1 SLOAD DUP4 SWAP3 SWAP1 PUSH2 0x31D4 SWAP1 DUP5 SWAP1 PUSH2 0x439E JUMP JUMPDEST SWAP3 POP POP DUP2 SWAP1 SSTORE POP DUP2 PUSH1 0x1 PUSH1 0x1 PUSH1 0xA0 SHL SUB AND PUSH32 0x997D2EC09B086DE73D509BBC4AD2B52FD7E2338024464BEDE93A41ABD6CCDC38 PUSH1 0x1 DUP4 TIMESTAMP PUSH1 0x40 MLOAD PUSH2 0x1299 SWAP4 SWAP3 SWAP2 SWAP1 PUSH2 0x437F JUMP JUMPDEST PUSH32 0x241ECF16D79D0F8DBFB92CBC07FE17840425976CF0667F022FE9877CAA831B08 PUSH2 0x3243 DUP2 PUSH2 0x3AB6 JUMP JUMPDEST PUSH2 0x324B PUSH2 0x3AC7 JUMP JUMPDEST PUSH1 0x1 PUSH1 0x1 PUSH1 0xA0 SHL SUB DUP4 AND PUSH2 0x3272 JUMPI PUSH1 0x40 MLOAD PUSH4 0xD92E233D PUSH1 0xE0 SHL DUP2 MSTORE PUSH1 0x4 ADD PUSH1 0x40 MLOAD DUP1 SWAP2 SUB SWAP1 REVERT JUMPDEST SELFBALANCE DUP3 GT ISZERO PUSH2 0x3293 JUMPI PUSH1 0x40 MLOAD PUSH4 0x1E9ACF17 PUSH1 0xE3 SHL DUP2 MSTORE PUSH1 0x4 ADD PUSH1 0x40 MLOAD DUP1 SWAP2 SUB SWAP1 REVERT JUMPDEST DUP2 PUSH1 0x17 PUSH0 DUP3 DUP3 SLOAD PUSH2 0x32A4 SWAP2 SWAP1 PUSH2 0x439E JUMP JUMPDEST SWAP1 SWAP2 SSTORE POP POP PUSH1 0x40 MLOAD PUSH0 SWAP1 PUSH1 0x1 PUSH1 0x1 PUSH1 0xA0 SHL SUB DUP6 AND SWAP1 DUP5 SWAP1 DUP4 DUP2 DUP2 DUP2 DUP6 DUP8 GAS CALL SWAP3 POP POP POP RETURNDATASIZE DUP1 PUSH0 DUP2 EQ PUSH2 0x32F1 JUMPI PUSH1 0x40 MLOAD SWAP2 POP PUSH1 0x1F NOT PUSH1 0x3F RETURNDATASIZE ADD AND DUP3 ADD PUSH1 0x40 MSTORE RETURNDATASIZE DUP3 MSTORE RETURNDATASIZE PUSH0 PUSH1 0x20 DUP5 ADD RETURNDATACOPY PUSH2 0x32F6 JUMP JUMPDEST PUSH1 0x60 SWAP2 POP JUMPDEST POP POP SWAP1 POP DUP1 PUSH2 0x3318 JUMPI PUSH1 0x40 MLOAD PUSH4 0x12171D83 PUSH1 0xE3 SHL DUP2 MSTORE PUSH1 0x4 ADD PUSH1 0x40 MLOAD DUP1 SWAP2 SUB SWAP1 REVERT JUMPDEST DUP4 PUSH1 0x1 PUSH1 0x1 PUSH1 0xA0 SHL SUB AND PUSH2 0x332A PUSH2 0x3AF1 JUMP JUMPDEST PUSH1 0x1 PUSH1 0x1 PUSH1 0xA0 SHL SUB AND PUSH32 0x8D4F9C9A6DA9172DA9A02229D92E4AF088C62953986A74048D010260B197DEF3 PUSH0 DUP7 TIMESTAMP PUSH1 0x40 MLOAD PUSH2 0x3366 SWAP4 SWAP3 SWAP2 SWAP1 PUSH2 0x437F JUMP JUMPDEST PUSH1 0x40 MLOAD DUP1 SWAP2 SUB SWAP1 LOG3 POP PUSH2 0x17FB PUSH1 0x1 DUP1 SSTORE JUMP JUMPDEST PUSH0 DUP1 MLOAD PUSH1 0x20 PUSH2 0x4573 DUP4 CODECOPY DUP2 MLOAD SWAP2 MSTORE PUSH2 0x338F DUP2 PUSH2 0x3AB6 JUMP JUMPDEST PUSH1 0x2 DUP3 SWAP1 SSTORE PUSH1 0x40 MLOAD DUP3 DUP2 MSTORE PUSH32 0xC5E00A325524BC148DDC05BB642B804E9AE1DFC670C217ED3C4C6595F7427EF4 SWAP1 PUSH1 0x20 ADD PUSH2 0x2AAC JUMP JUMPDEST PUSH0 DUP3 DUP2 MSTORE PUSH1 0x20 DUP2 SWAP1 MSTORE PUSH1 0x40 SWAP1 KECCAK256 PUSH1 0x1 ADD SLOAD PUSH2 0x33DE DUP2 PUSH2 0x3AB6 JUMP JUMPDEST PUSH2 0x17B2 DUP4 DUP4 PUSH2 0x3E00 JUMP JUMPDEST PUSH32 0xF60566C40710959D8D30B6067CE3C53C757BEC78EECB0E46B83C7F8194FFAE37 PUSH2 0x3412 DUP2 PUSH2 0x3AB6 JUMP JUMPDEST DUP2 PUSH0 SUB PUSH2 0x3432 JUMPI PUSH1 0x40 MLOAD PUSH4 0x162908E3 PUSH1 0xE1 SHL DUP2 MSTORE PUSH1 0x4 ADD PUSH1 0x40 MLOAD DUP1 SWAP2 SUB SWAP1 REVERT JUMPDEST PUSH20 0x833589FCD6EDB6E08F4C7C32D4F71B54BDA02913 PUSH4 0x23B872DD PUSH2 0x3454 PUSH2 0x3AF1 JUMP JUMPDEST PUSH1 0x40 MLOAD PUSH1 0x1 PUSH1 0x1 PUSH1 0xE0 SHL SUB NOT PUSH1 0xE0 DUP5 SWAP1 SHL AND DUP2 MSTORE PUSH1 0x1 PUSH1 0x1 PUSH1 0xA0 SHL SUB SWAP1 SWAP2 AND PUSH1 0x4 DUP3 ADD MSTORE ADDRESS PUSH1 0x24 DUP3 ADD MSTORE PUSH1 0x44 DUP2 ADD DUP6 SWAP1 MSTORE PUSH1 0x64 ADD PUSH1 0x20 PUSH1 0x40 MLOAD DUP1 DUP4 SUB DUP2 PUSH0 DUP8 GAS CALL ISZERO DUP1 ISZERO PUSH2 0x34A4 JUMPI RETURNDATASIZE PUSH0 DUP1 RETURNDATACOPY RETURNDATASIZE PUSH0 REVERT JUMPDEST POP POP POP POP PUSH1 0x40 MLOAD RETURNDATASIZE PUSH1 0x1F NOT PUSH1 0x1F DUP3 ADD AND DUP3 ADD DUP1 PUSH1 0x40 MSTORE POP DUP2 ADD SWAP1 PUSH2 0x34C8 SWAP2 SWAP1 PUSH2 0x43C5 JUMP JUMPDEST POP DUP2 PUSH1 0x14 PUSH0 DUP3 DUP3 SLOAD PUSH2 0x34DA SWAP2 SWAP1 PUSH2 0x439E JUMP JUMPDEST SWAP1 SWAP2 SSTORE POP PUSH2 0x34E8 SWAP1 POP PUSH2 0x3AF1 JUMP JUMPDEST PUSH1 0x1 PUSH1 0x1 PUSH1 0xA0 SHL SUB AND PUSH32 0x8BAFEC96FCFFB6F12596B4635C76397B7BC1F363B22C49C13136B63677323DCC PUSH1 0x1 DUP5 TIMESTAMP PUSH1 0x40 MLOAD PUSH2 0x3525 SWAP4 SWAP3 SWAP2 SWAP1 PUSH2 0x437F JUMP JUMPDEST PUSH1 0x40 MLOAD DUP1 SWAP2 SUB SWAP1 LOG2 POP POP JUMP JUMPDEST PUSH0 DUP1 MLOAD PUSH1 0x20 PUSH2 0x4573 DUP4 CODECOPY DUP2 MLOAD SWAP2 MSTORE PUSH2 0x3548 DUP2 PUSH2 0x3AB6 JUMP JUMPDEST PUSH1 0x5 SLOAD PUSH4 0x1000000 SWAP1 DIV PUSH1 0xFF AND ISZERO PUSH2 0x3573 JUMPI PUSH1 0x40 MLOAD PUSH4 0xAE7FE589 PUSH1 0xE0 SHL DUP2 MSTORE PUSH1 0x4 ADD PUSH1 0x40 MLOAD DUP1 SWAP2 SUB SWAP1 REVERT JUMPDEST PUSH1 0x5 DUP1 SLOAD PUSH6 0xFFFFFFFFFFFF TIMESTAMP SWAP1 DUP2 AND PUSH5 0x100000000 MUL PUSH10 0xFFFFFFFFFFFFFF000000 NOT SWAP1 SWAP3 AND SWAP2 SWAP1 SWAP2 OR PUSH4 0x1000000 OR SWAP1 SWAP2 SSTORE PUSH1 0x40 MLOAD PUSH32 0x2388CEAED48D21BD0802856DF41A22705F9046A67A817A047352AA3BBFE5C5D1 SWAP2 PUSH2 0x35D7 SWAP2 SWAP1 DUP2 MSTORE PUSH1 0x20 ADD SWAP1 JUMP JUMPDEST PUSH1 0x40 MLOAD DUP1 SWAP2 SUB SWAP1 LOG1 POP JUMP JUMPDEST PUSH2 0x35EA PUSH2 0x3AC7 JUMP JUMPDEST PUSH0 PUSH2 0x35F3 PUSH2 0x3AF1 JUMP JUMPDEST PUSH1 0x1 PUSH1 0x1 PUSH1 0xA0 SHL SUB DUP2 AND PUSH0 SWAP1 DUP2 MSTORE PUSH1 0x9 PUSH1 0x20 MSTORE PUSH1 0x40 DUP2 KECCAK256 SLOAD SWAP2 SWAP3 POP DUP2 SWAP1 SUB PUSH2 0x362E JUMPI PUSH1 0x40 MLOAD PUSH4 0x3BD65A7B PUSH1 0xE2 SHL DUP2 MSTORE PUSH1 0x4 ADD PUSH1 0x40 MLOAD DUP1 SWAP2 SUB SWAP1 REVERT JUMPDEST PUSH1 0x1 PUSH1 0x1 PUSH1 0xA0 SHL SUB DUP3 AND PUSH0 DUP2 DUP2 MSTORE PUSH1 0x9 PUSH1 0x20 MSTORE PUSH1 0x40 DUP1 DUP3 KECCAK256 DUP3 SWAP1 SSTORE MLOAD SWAP1 SWAP2 SWAP1 DUP4 SWAP1 DUP4 DUP2 DUP2 DUP2 DUP6 DUP8 GAS CALL SWAP3 POP POP POP RETURNDATASIZE DUP1 PUSH0 DUP2 EQ PUSH2 0x3685 JUMPI PUSH1 0x40 MLOAD SWAP2 POP PUSH1 0x1F NOT PUSH1 0x3F RETURNDATASIZE ADD AND DUP3 ADD PUSH1 0x40 MSTORE RETURNDATASIZE DUP3 MSTORE RETURNDATASIZE PUSH0 PUSH1 0x20 DUP5 ADD RETURNDATACOPY PUSH2 0x368A JUMP JUMPDEST PUSH1 0x60 SWAP2 POP JUMPDEST POP POP SWAP1 POP DUP1 PUSH2 0x36AC JUMPI PUSH1 0x40 MLOAD PUSH4 0x12171D83 PUSH1 0xE3 SHL DUP2 MSTORE PUSH1 0x4 ADD PUSH1 0x40 MLOAD DUP1 SWAP2 SUB SWAP1 REVERT JUMPDEST DUP3 PUSH1 0x1 PUSH1 0x1 PUSH1 0xA0 SHL SUB AND PUSH32 0x6914793C7A82461ACEC66C7DE7FDBBBF1F825C26BC2FE939B61F0E4F8964C2B5 PUSH0 DUP5 TIMESTAMP PUSH1 0x40 MLOAD PUSH2 0x36E9 SWAP4 SWAP3 SWAP2 SWAP1 PUSH2 0x437F JUMP JUMPDEST PUSH1 0x40 MLOAD DUP1 SWAP2 SUB SWAP1 LOG2 POP POP POP PUSH2 0x12AC PUSH1 0x1 DUP1 SSTORE JUMP JUMPDEST PUSH0 DUP1 MLOAD PUSH1 0x20 PUSH2 0x4573 DUP4 CODECOPY DUP2 MLOAD SWAP2 MSTORE PUSH2 0x3714 DUP2 PUSH2 0x3AB6 JUMP JUMPDEST PUSH0 JUMPDEST DUP3 DUP2 LT ISZERO PUSH2 0x37A5 JUMPI PUSH1 0x1 PUSH1 0x1 PUSH1 0xA0 SHL SUB DUP6 AND PUSH0 SWAP1 DUP2 MSTORE PUSH1 0x6 PUSH1 0x20 MSTORE PUSH1 0x40 SWAP1 KECCAK256 PUSH1 0x4 SWAP1 DUP6 DUP6 DUP5 DUP2 DUP2 LT PUSH2 0x374A JUMPI PUSH2 0x374A PUSH2 0x43B1 JUMP JUMPDEST SWAP1 POP PUSH1 0x20 MUL ADD CALLDATALOAD DUP2 SLOAD DUP2 LT PUSH2 0x3761 JUMPI PUSH2 0x3761 PUSH2 0x43B1 JUMP JUMPDEST PUSH0 SWAP2 DUP3 MSTORE PUSH1 0x20 SWAP1 SWAP2 KECCAK256 PUSH1 0x1 PUSH1 0x2 SWAP1 SWAP3 MUL ADD DUP2 ADD DUP1 SLOAD PUSH1 0xFF SWAP4 DUP5 AND PUSH1 0x1 PUSH1 0x38 SHL DUP1 DUP4 DIV SWAP6 SWAP1 SWAP6 AND OR SWAP1 SWAP4 MUL PUSH8 0xFF00000000000000 NOT SWAP1 SWAP4 AND SWAP3 SWAP1 SWAP3 OR SWAP1 SWAP2 SSTORE ADD PUSH2 0x3716 JUMP JUMPDEST POP POP POP POP POP JUMP JUMPDEST PUSH0 DUP1 MLOAD PUSH1 0x20 PUSH2 0x4573 DUP4 CODECOPY DUP2 MLOAD SWAP2 MSTORE PUSH2 0x37C3 DUP2 PUSH2 0x3AB6 JUMP JUMPDEST PUSH0 DUP4 PUSH1 0x1 DUP2 GT ISZERO PUSH2 0x37D6 JUMPI PUSH2 0x37D6 PUSH2 0x4011 JUMP JUMPDEST SUB PUSH2 0x37E5 JUMPI PUSH1 0x3 DUP3 SWAP1 SSTORE PUSH2 0x37EB JUMP JUMPDEST PUSH1 0x4 DUP3 SWAP1 SSTORE JUMPDEST PUSH32 0x5D7976BCCD4B396C1A1A0020032E62BF8A381BCFFC61E69A13EA61761B757218 DUP4 DUP4 PUSH1 0x40 MLOAD PUSH2 0x1FD5 SWAP3 SWAP2 SWAP1 PUSH2 0x44C9 JUMP JUMPDEST PUSH2 0x3824 PUSH2 0x3AC7 JUMP JUMPDEST PUSH1 0x5 SLOAD PUSH1 0xFF AND ISZERO PUSH2 0x3848 JUMPI PUSH1 0x40 MLOAD PUSH4 0xDEEB6943 PUSH1 0xE0 SHL DUP2 MSTORE PUSH1 0x4 ADD PUSH1 0x40 MLOAD DUP1 SWAP2 SUB SWAP1 REVERT JUMPDEST CALLVALUE PUSH0 DUP2 SWAP1 SUB PUSH2 0x386A JUMPI PUSH1 0x40 MLOAD PUSH4 0x162908E3 PUSH1 0xE1 SHL DUP2 MSTORE PUSH1 0x4 ADD PUSH1 0x40 MLOAD DUP1 SWAP2 SUB SWAP1 REVERT JUMPDEST PUSH1 0x3 SLOAD DUP2 PUSH1 0xF SLOAD PUSH2 0x387B SWAP2 SWAP1 PUSH2 0x439E JUMP JUMPDEST GT ISZERO PUSH2 0x389A JUMPI PUSH1 0x40 MLOAD PUSH4 0x6BF4C8E9 PUSH1 0xE1 SHL DUP2 MSTORE PUSH1 0x4 ADD PUSH1 0x40 MLOAD DUP1 SWAP2 SUB SWAP1 REVERT JUMPDEST PUSH1 0x5 SLOAD PUSH3 0x10000 SWAP1 DIV PUSH1 0xFF AND DUP1 ISZERO PUSH2 0x38D6 JUMPI POP PUSH1 0x7 PUSH0 PUSH2 0x38B8 PUSH2 0x3AF1 JUMP JUMPDEST PUSH1 0x1 PUSH1 0x1 PUSH1 0xA0 SHL SUB AND DUP2 MSTORE PUSH1 0x20 DUP2 ADD SWAP2 SWAP1 SWAP2 MSTORE PUSH1 0x40 ADD PUSH0 KECCAK256 SLOAD PUSH1 0xFF AND ISZERO JUMPDEST ISZERO PUSH2 0x38F4 JUMPI PUSH1 0x40 MLOAD PUSH4 0xB094F27 PUSH1 0xE3 SHL DUP2 MSTORE PUSH1 0x4 ADD PUSH1 0x40 MLOAD DUP1 SWAP2 SUB SWAP1 REVERT JUMPDEST PUSH2 0x3907 PUSH2 0x38FF PUSH2 0x3AF1 JUMP JUMPDEST PUSH0 DUP4 PUSH0 PUSH2 0x3AFF JUMP JUMPDEST DUP1 PUSH1 0xF PUSH0 DUP3 DUP3 SLOAD PUSH2 0x3918 SWAP2 SWAP1 PUSH2 0x439E JUMP JUMPDEST SWAP1 SWAP2 SSTORE POP POP PUSH1 0x1 DUP1 SSTORE POP JUMP JUMPDEST PUSH2 0x392C PUSH2 0x3AC7 JUMP JUMPDEST PUSH1 0x5 SLOAD PUSH1 0xFF AND ISZERO PUSH2 0x3950 JUMPI PUSH1 0x40 MLOAD PUSH4 0xDEEB6943 PUSH1 0xE0 SHL DUP2 MSTORE PUSH1 0x4 ADD PUSH1 0x40 MLOAD DUP1 SWAP2 SUB SWAP1 REVERT JUMPDEST DUP1 PUSH0 SUB PUSH2 0x3970 JUMPI PUSH1 0x40 MLOAD PUSH4 0x162908E3 PUSH1 0xE1 SHL DUP2 MSTORE PUSH1 0x4 ADD PUSH1 0x40 MLOAD DUP1 SWAP2 SUB SWAP1 REVERT JUMPDEST PUSH1 0x4 SLOAD DUP2 PUSH1 0x10 SLOAD PUSH2 0x3981 SWAP2 SWAP1 PUSH2 0x439E JUMP JUMPDEST GT ISZERO PUSH2 0x39A0 JUMPI PUSH1 0x40 MLOAD PUSH4 0x6BF4C8E9 PUSH1 0xE1 SHL DUP2 MSTORE PUSH1 0x4 ADD PUSH1 0x40 MLOAD DUP1 SWAP2 SUB SWAP1 REVERT JUMPDEST PUSH1 0x5 SLOAD PUSH3 0x10000 SWAP1 DIV PUSH1 0xFF AND DUP1 ISZERO PUSH2 0x39DC JUMPI POP PUSH1 0x7 PUSH0 PUSH2 0x39BE PUSH2 0x3AF1 JUMP JUMPDEST PUSH1 0x1 PUSH1 0x1 PUSH1 0xA0 SHL SUB AND DUP2 MSTORE PUSH1 0x20 DUP2 ADD SWAP2 SWAP1 SWAP2 MSTORE PUSH1 0x40 ADD PUSH0 KECCAK256 SLOAD PUSH1 0xFF AND ISZERO JUMPDEST ISZERO PUSH2 0x39FA JUMPI PUSH1 0x40 MLOAD PUSH4 0xB094F27 PUSH1 0xE3 SHL DUP2 MSTORE PUSH1 0x4 ADD PUSH1 0x40 MLOAD DUP1 SWAP2 SUB SWAP1 REVERT JUMPDEST PUSH20 0x833589FCD6EDB6E08F4C7C32D4F71B54BDA02913 PUSH4 0x23B872DD PUSH2 0x3A1C PUSH2 0x3AF1 JUMP JUMPDEST PUSH1 0x40 MLOAD PUSH1 0x1 PUSH1 0x1 PUSH1 0xE0 SHL SUB NOT PUSH1 0xE0 DUP5 SWAP1 SHL AND DUP2 MSTORE PUSH1 0x1 PUSH1 0x1 PUSH1 0xA0 SHL SUB SWAP1 SWAP2 AND PUSH1 0x4 DUP3 ADD MSTORE ADDRESS PUSH1 0x24 DUP3 ADD MSTORE PUSH1 0x44 DUP2 ADD DUP5 SWAP1 MSTORE PUSH1 0x64 ADD PUSH1 0x20 PUSH1 0x40 MLOAD DUP1 DUP4 SUB DUP2 PUSH0 DUP8 GAS CALL ISZERO DUP1 ISZERO PUSH2 0x3A6C JUMPI RETURNDATASIZE PUSH0 DUP1 RETURNDATACOPY RETURNDATASIZE PUSH0 REVERT JUMPDEST POP POP POP POP PUSH1 0x40 MLOAD RETURNDATASIZE PUSH1 0x1F NOT PUSH1 0x1F DUP3 ADD AND DUP3 ADD DUP1 PUSH1 0x40 MSTORE POP DUP2 ADD SWAP1 PUSH2 0x3A90 SWAP2 SWAP1 PUSH2 0x43C5 JUMP JUMPDEST POP PUSH2 0x3AA5 PUSH2 0x3A9C PUSH2 0x3AF1 JUMP JUMPDEST PUSH1 0x1 DUP4 PUSH0 PUSH2 0x3AFF JUMP JUMPDEST DUP1 PUSH1 0x10 PUSH0 DUP3 DUP3 SLOAD PUSH2 0x3918 SWAP2 SWAP1 PUSH2 0x439E JUMP JUMPDEST PUSH2 0x11A1 DUP2 PUSH2 0x3AC2 PUSH2 0x3AF1 JUMP JUMPDEST PUSH2 0x3E9F JUMP JUMPDEST PUSH1 0x2 PUSH1 0x1 SLOAD SUB PUSH2 0x3AEA JUMPI PUSH1 0x40 MLOAD PUSH4 0x3EE5AEB5 PUSH1 0xE0 SHL DUP2 MSTORE PUSH1 0x4 ADD PUSH1 0x40 MLOAD DUP1 SWAP2 SUB SWAP1 REVERT JUMPDEST PUSH1 0x2 PUSH1 0x1 SSTORE JUMP JUMPDEST PUSH0 PUSH2 0x3AFA PUSH2 0x3EF5 JUMP JUMPDEST SWAP1 POP SWAP1 JUMP JUMPDEST PUSH0 DUP2 ISZERO PUSH2 0x3B0A JUMPI PUSH1 0x8 OR JUMPDEST PUSH1 0x6 PUSH0 DUP7 PUSH1 0x1 PUSH1 0x1 PUSH1 0xA0 SHL SUB AND PUSH1 0x1 PUSH1 0x1 PUSH1 0xA0 SHL SUB AND DUP2 MSTORE PUSH1 0x20 ADD SWAP1 DUP2 MSTORE PUSH1 0x20 ADD PUSH0 KECCAK256 PUSH1 0x40 MLOAD DUP1 PUSH1 0xC0 ADD PUSH1 0x40 MSTORE DUP1 DUP6 PUSH1 0x1 PUSH1 0x1 PUSH1 0x60 SHL SUB AND DUP2 MSTORE PUSH1 0x20 ADD PUSH0 PUSH1 0x1 PUSH1 0x1 PUSH1 0x60 SHL SUB AND DUP2 MSTORE PUSH1 0x20 ADD TIMESTAMP PUSH6 0xFFFFFFFFFFFF AND DUP2 MSTORE PUSH1 0x20 ADD PUSH0 PUSH6 0xFFFFFFFFFFFF AND DUP2 MSTORE PUSH1 0x20 ADD DUP7 PUSH1 0x1 DUP2 GT ISZERO PUSH2 0x3B84 JUMPI PUSH2 0x3B84 PUSH2 0x4011 JUMP JUMPDEST DUP2 MSTORE PUSH1 0xFF DUP5 AND PUSH1 0x20 SWAP2 DUP3 ADD MSTORE DUP3 SLOAD PUSH1 0x1 DUP2 DUP2 ADD DUP6 SSTORE PUSH0 SWAP5 DUP6 MSTORE SWAP4 DUP3 SWAP1 KECCAK256 DUP4 MLOAD PUSH1 0x2 SWAP1 SWAP3 MUL ADD DUP1 SLOAD SWAP3 DUP5 ADD MLOAD PUSH1 0x40 DUP6 ADD MLOAD PUSH6 0xFFFFFFFFFFFF SWAP1 DUP2 AND PUSH1 0x1 PUSH1 0xC0 SHL MUL PUSH32 0xFFFF000000000000FFFFFFFFFFFFFFFFFFFFFFFFFFFFFFFFFFFFFFFFFFFFFFFF PUSH1 0x1 PUSH1 0x1 PUSH1 0x60 SHL SUB SWAP4 DUP5 AND PUSH1 0x1 PUSH1 0x60 SHL MUL PUSH32 0xFFFFFFFFFFFFFFFF000000000000000000000000000000000000000000000000 SWAP1 SWAP8 AND SWAP4 SWAP1 SWAP6 AND SWAP3 SWAP1 SWAP3 OR SWAP5 SWAP1 SWAP5 OR SWAP3 SWAP1 SWAP3 AND SWAP2 SWAP1 SWAP2 OR DUP2 SSTORE PUSH1 0x60 DUP4 ADD MLOAD DUP2 DUP6 ADD DUP1 SLOAD SWAP2 SWAP1 SWAP4 AND PUSH6 0xFFFFFFFFFFFF NOT DUP3 AND DUP2 OR DUP5 SSTORE PUSH1 0x80 DUP6 ADD MLOAD SWAP5 SWAP6 SWAP3 SWAP5 SWAP4 SWAP3 PUSH7 0xFFFFFFFFFFFFFF NOT SWAP1 SWAP3 AND OR SWAP1 PUSH7 0x1000000000000 SWAP1 DUP5 SWAP1 DUP2 GT ISZERO PUSH2 0x3C7F JUMPI PUSH2 0x3C7F PUSH2 0x4011 JUMP JUMPDEST MUL OR SWAP1 SSTORE POP PUSH1 0xA0 SWAP2 SWAP1 SWAP2 ADD MLOAD PUSH1 0x1 SWAP1 SWAP2 ADD DUP1 SLOAD PUSH8 0xFF00000000000000 NOT AND PUSH1 0x1 PUSH1 0x38 SHL PUSH1 0xFF SWAP4 DUP5 AND MUL OR SWAP1 SSTORE PUSH1 0x1 PUSH1 0x1 PUSH1 0xA0 SHL SUB DUP7 AND PUSH0 SWAP1 DUP2 MSTORE PUSH1 0xD PUSH1 0x20 MSTORE PUSH1 0x40 SWAP1 KECCAK256 SLOAD AND PUSH2 0x3CEB JUMPI PUSH1 0x1 PUSH1 0x1 PUSH1 0xA0 SHL SUB DUP6 AND PUSH0 SWAP1 DUP2 MSTORE PUSH1 0xD PUSH1 0x20 MSTORE PUSH1 0x40 SWAP1 KECCAK256 DUP1 SLOAD PUSH1 0xFF NOT AND PUSH1 0x1 OR SWAP1 SSTORE JUMPDEST PUSH1 0x1 PUSH1 0x1 PUSH1 0xA0 SHL SUB DUP6 AND PUSH0 DUP2 DUP2 MSTORE PUSH1 0x6 PUSH1 0x20 MSTORE PUSH1 0x40 SWAP1 KECCAK256 SLOAD PUSH32 0x48916AC7F9777648255AB8645729FF3B5D20AA412A40FE81DAC2433522EAA058 SWAP1 DUP7 SWAP1 DUP7 SWAP1 TIMESTAMP SWAP1 PUSH2 0x3D37 SWAP1 PUSH1 0x1 SWAP1 PUSH2 0x436C JUMP JUMPDEST DUP8 PUSH1 0x40 MLOAD PUSH2 0x3D49 SWAP6 SWAP5 SWAP4 SWAP3 SWAP2 SWAP1 PUSH2 0x44E4 JUMP JUMPDEST PUSH1 0x40 MLOAD DUP1 SWAP2 SUB SWAP1 LOG2 POP POP POP POP POP JUMP JUMPDEST PUSH0 DUP3 DUP2 MSTORE PUSH1 0x20 DUP2 DUP2 MSTORE PUSH1 0x40 DUP1 DUP4 KECCAK256 PUSH1 0x1 PUSH1 0x1 PUSH1 0xA0 SHL SUB DUP6 AND DUP5 MSTORE SWAP1 SWAP2 MSTORE DUP2 KECCAK256 SLOAD PUSH1 0xFF AND PUSH2 0x3DF9 JUMPI PUSH0 DUP4 DUP2 MSTORE PUSH1 0x20 DUP2 DUP2 MSTORE PUSH1 0x40 DUP1 DUP4 KECCAK256 PUSH1 0x1 PUSH1 0x1 PUSH1 0xA0 SHL SUB DUP7 AND DUP5 MSTORE SWAP1 SWAP2 MSTORE SWAP1 KECCAK256 DUP1 SLOAD PUSH1 0xFF NOT AND PUSH1 0x1 OR SWAP1 SSTORE PUSH2 0x3DB1 PUSH2 0x3AF1 JUMP JUMPDEST PUSH1 0x1 PUSH1 0x1 PUSH1 0xA0 SHL SUB AND DUP3 PUSH1 0x1 PUSH1 0x1 PUSH1 0xA0 SHL SUB AND DUP5 PUSH32 0x2F8788117E7EFF1D82E926EC794901D17C78024A50270940304540A733656F0D PUSH1 0x40 MLOAD PUSH1 0x40 MLOAD DUP1 SWAP2 SUB SWAP1 LOG4 POP PUSH1 0x1 PUSH2 0x1010 JUMP JUMPDEST POP PUSH0 PUSH2 0x1010 JUMP JUMPDEST PUSH0 DUP3 DUP2 MSTORE PUSH1 0x20 DUP2 DUP2 MSTORE PUSH1 0x40 DUP1 DUP4 KECCAK256 PUSH1 0x1 PUSH1 0x1 PUSH1 0xA0 SHL SUB DUP6 AND DUP5 MSTORE SWAP1 SWAP2 MSTORE DUP2 KECCAK256 SLOAD PUSH1 0xFF AND ISZERO PUSH2 0x3DF9 JUMPI PUSH0 DUP4 DUP2 MSTORE PUSH1 0x20 DUP2 DUP2 MSTORE PUSH1 0x40 DUP1 DUP4 KECCAK256 PUSH1 0x1 PUSH1 0x1 PUSH1 0xA0 SHL SUB DUP7 AND DUP5 MSTORE SWAP1 SWAP2 MSTORE SWAP1 KECCAK256 DUP1 SLOAD PUSH1 0xFF NOT AND SWAP1 SSTORE PUSH2 0x3E57 PUSH2 0x3AF1 JUMP JUMPDEST PUSH1 0x1 PUSH1 0x1 PUSH1 0xA0 SHL SUB AND DUP3 PUSH1 0x1 PUSH1 0x1 PUSH1 0xA0 SHL SUB AND DUP5 PUSH32 0xF6391F5C32D9C69D2A47EA670B442974B53935D1EDC7FD64EB21E047A839171B PUSH1 0x40 MLOAD PUSH1 0x40 MLOAD DUP1 SWAP2 SUB SWAP1 LOG4 POP PUSH1 0x1 PUSH2 0x1010 JUMP JUMPDEST PUSH0 DUP3 DUP2 MSTORE PUSH1 0x20 DUP2 DUP2 MSTORE PUSH1 0x40 DUP1 DUP4 KECCAK256 PUSH1 0x1 PUSH1 0x1 PUSH1 0xA0 SHL SUB DUP6 AND DUP5 MSTORE SWAP1 SWAP2 MSTORE SWAP1 KECCAK256 SLOAD PUSH1 0xFF AND PUSH2 0x1E9F JUMPI PUSH1 0x40 MLOAD PUSH4 0xE2517D3F PUSH1 0xE0 SHL DUP2 MSTORE PUSH1 0x1 PUSH1 0x1 PUSH1 0xA0 SHL SUB DUP3 AND PUSH1 0x4 DUP3 ADD MSTORE PUSH1 0x24 DUP2 ADD DUP4 SWAP1 MSTORE PUSH1 0x44 ADD PUSH1 0x40 MLOAD DUP1 SWAP2 SUB SWAP1 REVERT JUMPDEST PUSH0 CALLDATASIZE PUSH1 0x14 DUP1 DUP3 LT DUP1 ISZERO SWAP1 PUSH2 0x3F31 JUMPI POP PUSH32 0x0 PUSH1 0x1 PUSH1 0x1 PUSH1 0xA0 SHL SUB AND CALLER EQ JUMPDEST ISZERO PUSH2 0x3F57 JUMPI PUSH2 0x3F44 CALLDATASIZE DUP3 DUP5 SUB DUP2 PUSH0 PUSH2 0x4516 JUMP JUMPDEST PUSH2 0x3F4D SWAP2 PUSH2 0x453D JUMP JUMPDEST PUSH1 0x60 SHR SWAP3 POP POP POP SWAP1 JUMP JUMPDEST CALLER SWAP3 POP POP POP SWAP1 JUMP JUMPDEST PUSH0 PUSH1 0x20 DUP3 DUP5 SUB SLT ISZERO PUSH2 0x3F6F JUMPI PUSH0 DUP1 REVERT JUMPDEST DUP2 CALLDATALOAD PUSH1 0x1 PUSH1 0x1 PUSH1 0xE0 SHL SUB NOT DUP2 AND DUP2 EQ PUSH2 0x3F86 JUMPI PUSH0 DUP1 REVERT JUMPDEST SWAP4 SWAP3 POP POP POP JUMP JUMPDEST DUP1 CALLDATALOAD PUSH1 0x1 PUSH1 0x1 PUSH1 0xA0 SHL SUB DUP2 AND DUP2 EQ PUSH2 0x3FA3 JUMPI PUSH0 DUP1 REVERT JUMPDEST SWAP2 SWAP1 POP JUMP JUMPDEST PUSH0 PUSH1 0x20 DUP3 DUP5 SUB SLT ISZERO PUSH2 0x3FB8 JUMPI PUSH0 DUP1 REVERT JUMPDEST PUSH2 0x3F86 DUP3 PUSH2 0x3F8D JUMP JUMPDEST DUP1 ISZERO ISZERO DUP2 EQ PUSH2 0x11A1 JUMPI PUSH0 DUP1 REVERT JUMPDEST PUSH0 PUSH1 0x20 DUP3 DUP5 SUB SLT ISZERO PUSH2 0x3FDE JUMPI PUSH0 DUP1 REVERT JUMPDEST DUP2 CALLDATALOAD PUSH2 0x3F86 DUP2 PUSH2 0x3FC1 JUMP JUMPDEST PUSH0 DUP1 PUSH1 0x40 DUP4 DUP6 SUB SLT ISZERO PUSH2 0x3FFA JUMPI PUSH0 DUP1 REVERT JUMPDEST PUSH2 0x4003 DUP4 PUSH2 0x3F8D JUMP JUMPDEST SWAP5 PUSH1 0x20 SWAP4 SWAP1 SWAP4 ADD CALLDATALOAD SWAP4 POP POP POP JUMP JUMPDEST PUSH4 0x4E487B71 PUSH1 0xE0 SHL PUSH0 MSTORE PUSH1 0x21 PUSH1 0x4 MSTORE PUSH1 0x24 PUSH0 REVERT JUMPDEST PUSH1 0x2 DUP2 LT PUSH2 0x4041 JUMPI PUSH4 0x4E487B71 PUSH1 0xE0 SHL PUSH0 MSTORE PUSH1 0x21 PUSH1 0x4 MSTORE PUSH1 0x24 PUSH0 REVERT JUMPDEST SWAP1 MSTORE JUMP JUMPDEST PUSH1 0x1 PUSH1 0x1 PUSH1 0x60 SHL SUB DUP8 DUP2 AND DUP3 MSTORE DUP7 AND PUSH1 0x20 DUP3 ADD MSTORE PUSH6 0xFFFFFFFFFFFF DUP6 DUP2 AND PUSH1 0x40 DUP4 ADD MSTORE DUP5 AND PUSH1 0x60 DUP3 ADD MSTORE PUSH1 0xC0 DUP2 ADD PUSH2 0x4080 PUSH1 0x80 DUP4 ADD DUP6 PUSH2 0x4025 JUMP JUMPDEST PUSH1 0xFF DUP4 AND PUSH1 0xA0 DUP4 ADD MSTORE SWAP8 SWAP7 POP POP POP POP POP POP POP JUMP JUMPDEST PUSH0 PUSH1 0x20 DUP3 DUP5 SUB SLT ISZERO PUSH2 0x40A4 JUMPI PUSH0 DUP1 REVERT JUMPDEST POP CALLDATALOAD SWAP2 SWAP1 POP JUMP JUMPDEST PUSH1 0x20 DUP1 DUP3 MSTORE DUP3 MLOAD DUP3 DUP3 ADD DUP2 SWAP1 MSTORE PUSH0 SWAP2 SWAP1 PUSH1 0x40 SWAP1 DUP2 DUP6 ADD SWAP1 DUP7 DUP5 ADD DUP6 JUMPDEST DUP3 DUP2 LT ISZERO PUSH2 0x413B JUMPI DUP2 MLOAD DUP1 MLOAD PUSH1 0x1 PUSH1 0x1 PUSH1 0x60 SHL SUB SWAP1 DUP2 AND DUP7 MSTORE DUP8 DUP3 ADD MLOAD AND DUP8 DUP7 ADD MSTORE DUP6 DUP2 ADD MLOAD PUSH6 0xFFFFFFFFFFFF SWAP1 DUP2 AND DUP8 DUP8 ADD MSTORE PUSH1 0x60 DUP1 DUP4 ADD MLOAD SWAP1 SWAP2 AND SWAP1 DUP7 ADD MSTORE PUSH1 0x80 DUP1 DUP3 ADD MLOAD PUSH2 0x411A DUP3 DUP9 ADD DUP3 PUSH2 0x4025 JUMP JUMPDEST POP POP PUSH1 0xA0 SWAP1 DUP2 ADD MLOAD PUSH1 0xFF AND SWAP1 DUP6 ADD MSTORE PUSH1 0xC0 SWAP1 SWAP4 ADD SWAP3 SWAP1 DUP6 ADD SWAP1 PUSH1 0x1 ADD PUSH2 0x40C7 JUMP JUMPDEST POP SWAP2 SWAP8 SWAP7 POP POP POP POP POP POP POP JUMP JUMPDEST PUSH0 DUP1 PUSH1 0x40 DUP4 DUP6 SUB SLT ISZERO PUSH2 0x4159 JUMPI PUSH0 DUP1 REVERT JUMPDEST DUP3 CALLDATALOAD SWAP2 POP PUSH2 0x4169 PUSH1 0x20 DUP5 ADD PUSH2 0x3F8D JUMP JUMPDEST SWAP1 POP SWAP3 POP SWAP3 SWAP1 POP JUMP JUMPDEST PUSH0 DUP1 DUP4 PUSH1 0x1F DUP5 ADD SLT PUSH2 0x4182 JUMPI PUSH0 DUP1 REVERT JUMPDEST POP DUP2 CALLDATALOAD PUSH8 0xFFFFFFFFFFFFFFFF DUP2 GT ISZERO PUSH2 0x4199 JUMPI PUSH0 DUP1 REVERT JUMPDEST PUSH1 0x20 DUP4 ADD SWAP2 POP DUP4 PUSH1 0x20 DUP3 PUSH1 0x5 SHL DUP6 ADD ADD GT ISZERO PUSH2 0x41B3 JUMPI PUSH0 DUP1 REVERT JUMPDEST SWAP3 POP SWAP3 SWAP1 POP JUMP JUMPDEST PUSH0 DUP1 PUSH0 DUP1 PUSH1 0x40 DUP6 DUP8 SUB SLT ISZERO PUSH2 0x41CD JUMPI PUSH0 DUP1 REVERT JUMPDEST DUP5 CALLDATALOAD PUSH8 0xFFFFFFFFFFFFFFFF DUP1 DUP3 GT ISZERO PUSH2 0x41E4 JUMPI PUSH0 DUP1 REVERT JUMPDEST PUSH2 0x41F0 DUP9 DUP4 DUP10 ADD PUSH2 0x4172 JUMP JUMPDEST SWAP1 SWAP7 POP SWAP5 POP PUSH1 0x20 DUP8 ADD CALLDATALOAD SWAP2 POP DUP1 DUP3 GT ISZERO PUSH2 0x4208 JUMPI PUSH0 DUP1 REVERT JUMPDEST POP PUSH2 0x4215 DUP8 DUP3 DUP9 ADD PUSH2 0x4172 JUMP JUMPDEST SWAP6 SWAP9 SWAP5 SWAP8 POP SWAP6 POP POP POP POP JUMP JUMPDEST PUSH0 DUP1 PUSH1 0x40 DUP4 DUP6 SUB SLT ISZERO PUSH2 0x4232 JUMPI PUSH0 DUP1 REVERT JUMPDEST PUSH2 0x423B DUP4 PUSH2 0x3F8D JUMP JUMPDEST SWAP2 POP PUSH1 0x20 DUP4 ADD CALLDATALOAD PUSH2 0x424B DUP2 PUSH2 0x3FC1 JUMP JUMPDEST DUP1 SWAP2 POP POP SWAP3 POP SWAP3 SWAP1 POP JUMP JUMPDEST PUSH0 DUP1 PUSH1 0x40 DUP4 DUP6 SUB SLT ISZERO PUSH2 0x4267 JUMPI PUSH0 DUP1 REVERT JUMPDEST DUP3 CALLDATALOAD PUSH2 0x423B DUP2 PUSH2 0x3FC1 JUMP JUMPDEST PUSH0 DUP1 PUSH1 0x20 DUP4 DUP6 SUB SLT ISZERO PUSH2 0x4283 JUMPI PUSH0 DUP1 REVERT JUMPDEST DUP3 CALLDATALOAD PUSH8 0xFFFFFFFFFFFFFFFF DUP2 GT ISZERO PUSH2 0x4299 JUMPI PUSH0 DUP1 REVERT JUMPDEST PUSH2 0x42A5 DUP6 DUP3 DUP7 ADD PUSH2 0x4172 JUMP JUMPDEST SWAP1 SWAP7 SWAP1 SWAP6 POP SWAP4 POP POP POP POP JUMP JUMPDEST PUSH0 DUP1 PUSH0 PUSH1 0x40 DUP5 DUP7 SUB SLT ISZERO PUSH2 0x42C3 JUMPI PUSH0 DUP1 REVERT JUMPDEST PUSH2 0x42CC DUP5 PUSH2 0x3F8D JUMP JUMPDEST SWAP3 POP PUSH1 0x20 DUP5 ADD CALLDATALOAD PUSH8 0xFFFFFFFFFFFFFFFF DUP2 GT ISZERO PUSH2 0x42E7 JUMPI PUSH0 DUP1 REVERT JUMPDEST PUSH2 0x42F3 DUP7 DUP3 DUP8 ADD PUSH2 0x4172 JUMP JUMPDEST SWAP5 SWAP8 SWAP1 SWAP7 POP SWAP4 SWAP5 POP POP POP POP JUMP JUMPDEST PUSH0 DUP1 PUSH0 PUSH1 0x60 DUP5 DUP7 SUB SLT ISZERO PUSH2 0x4312 JUMPI PUSH0 DUP1 REVERT JUMPDEST PUSH2 0x431B DUP5 PUSH2 0x3F8D JUMP JUMPDEST SWAP3 POP PUSH2 0x4329 PUSH1 0x20 DUP6 ADD PUSH2 0x3F8D JUMP JUMPDEST SWAP2 POP PUSH1 0x40 DUP5 ADD CALLDATALOAD SWAP1 POP SWAP3 POP SWAP3 POP SWAP3 JUMP JUMPDEST PUSH0 DUP1 PUSH1 0x40 DUP4 DUP6 SUB SLT ISZERO PUSH2 0x434A JUMPI PUSH0 DUP1 REVERT JUMPDEST DUP3 CALLDATALOAD PUSH1 0x2 DUP2 LT PUSH2 0x4003 JUMPI PUSH0 DUP1 REVERT JUMPDEST PUSH4 0x4E487B71 PUSH1 0xE0 SHL PUSH0 MSTORE PUSH1 0x11 PUSH1 0x4 MSTORE PUSH1 0x24 PUSH0 REVERT JUMPDEST DUP2 DUP2 SUB DUP2 DUP2 GT ISZERO PUSH2 0x1010 JUMPI PUSH2 0x1010 PUSH2 0x4358 JUMP JUMPDEST PUSH1 0x60 DUP2 ADD PUSH2 0x438D DUP3 DUP7 PUSH2 0x4025 JUMP JUMPDEST PUSH1 0x20 DUP3 ADD SWAP4 SWAP1 SWAP4 MSTORE PUSH1 0x40 ADD MSTORE SWAP2 SWAP1 POP JUMP JUMPDEST DUP1 DUP3 ADD DUP1 DUP3 GT ISZERO PUSH2 0x1010 JUMPI PUSH2 0x1010 PUSH2 0x4358 JUMP JUMPDEST PUSH4 0x4E487B71 PUSH1 0xE0 SHL PUSH0 MSTORE PUSH1 0x32 PUSH1 0x4 MSTORE PUSH1 0x24 PUSH0 REVERT JUMPDEST PUSH0 PUSH1 0x20 DUP3 DUP5 SUB SLT ISZERO PUSH2 0x43D5 JUMPI PUSH0 DUP1 REVERT JUMPDEST DUP2 MLOAD PUSH2 0x3F86 DUP2 PUSH2 0x3FC1 JUMP JUMPDEST PUSH1 0xA0 DUP2 ADD PUSH2 0x43EE DUP3 DUP9 PUSH2 0x4025 JUMP JUMPDEST DUP6 PUSH1 0x20 DUP4 ADD MSTORE DUP5 PUSH1 0x40 DUP4 ADD MSTORE DUP4 PUSH1 0x60 DUP4 ADD MSTORE DUP3 PUSH1 0x80 DUP4 ADD MSTORE SWAP7 SWAP6 POP POP POP POP POP POP JUMP JUMPDEST DUP2 DUP4 MSTORE PUSH0 PUSH32 0x7FFFFFFFFFFFFFFFFFFFFFFFFFFFFFFFFFFFFFFFFFFFFFFFFFFFFFFFFFFFFFF DUP4 GT ISZERO PUSH2 0x4440 JUMPI PUSH0 DUP1 REVERT JUMPDEST DUP3 PUSH1 0x5 SHL DUP1 DUP4 PUSH1 0x20 DUP8 ADD CALLDATACOPY SWAP4 SWAP1 SWAP4 ADD PUSH1 0x20 ADD SWAP4 SWAP3 POP POP POP JUMP JUMPDEST PUSH2 0x4463 DUP2 DUP9 PUSH2 0x4025 JUMP JUMPDEST PUSH1 0xA0 PUSH1 0x20 DUP3 ADD MSTORE PUSH0 PUSH2 0x4479 PUSH1 0xA0 DUP4 ADD DUP8 DUP10 PUSH2 0x4410 JUMP JUMPDEST PUSH1 0x40 DUP4 ADD SWAP6 SWAP1 SWAP6 MSTORE POP PUSH1 0x60 DUP2 ADD SWAP3 SWAP1 SWAP3 MSTORE PUSH1 0x80 SWAP1 SWAP2 ADD MSTORE SWAP4 SWAP3 POP POP POP JUMP JUMPDEST PUSH1 0x20 DUP2 MSTORE PUSH0 PUSH2 0x44AA PUSH1 0x20 DUP4 ADD DUP5 DUP7 PUSH2 0x4410 JUMP JUMPDEST SWAP5 SWAP4 POP POP POP POP JUMP JUMPDEST PUSH0 PUSH1 0x20 DUP3 DUP5 SUB SLT ISZERO PUSH2 0x44C2 JUMPI PUSH0 DUP1 REVERT JUMPDEST POP MLOAD SWAP2 SWAP1 POP JUMP JUMPDEST PUSH1 0x40 DUP2 ADD PUSH2 0x44D7 DUP3 DUP6 PUSH2 0x4025 JUMP JUMPDEST DUP3 PUSH1 0x20 DUP4 ADD MSTORE SWAP4 SWAP3 POP POP POP JUMP JUMPDEST PUSH1 0xA0 DUP2 ADD PUSH2 0x44F2 DUP3 DUP9 PUSH2 0x4025 JUMP JUMPDEST DUP6 PUSH1 0x20 DUP4 ADD MSTORE DUP5 PUSH1 0x40 DUP4 ADD MSTORE DUP4 PUSH1 0x60 DUP4 ADD MSTORE DUP3 ISZERO ISZERO PUSH1 0x80 DUP4 ADD MSTORE SWAP7 SWAP6 POP POP POP POP POP POP JUMP JUMPDEST PUSH0 DUP1 DUP6 DUP6 GT ISZERO PUSH2 0x4524 JUMPI PUSH0 DUP1 REVERT JUMPDEST DUP4 DUP7 GT ISZERO PUSH2 0x4530 JUMPI PUSH0 DUP1 REVERT JUMPDEST POP POP DUP3 ADD SWAP4 SWAP2 SWAP1 SWAP3 SUB SWAP2 POP JUMP JUMPDEST PUSH12 0xFFFFFFFFFFFFFFFFFFFFFFFF NOT DUP2 CALLDATALOAD DUP2 DUP2 AND SWAP2 PUSH1 0x14 DUP6 LT ISZERO PUSH2 0x456A JUMPI DUP1 DUP2 DUP7 PUSH1 0x14 SUB PUSH1 0x3 SHL SHL DUP4 AND AND SWAP3 POP JUMPDEST POP POP SWAP3 SWAP2 POP POP JUMP INVALID LOG4 SWAP9 SMOD KECCAK256 TLOAD 0xE4 0xD3 SSTORE MULMOD 0x2E CREATE2 0xA8 LOG1 DUP16 JUMP 0xE8 SWAP2 EXTCODECOPY DELEGATECALL LOG2 ADD 0xFB 0xE2 DUP8 DUP3 JUMPDEST MULMOD JUMP SWAP4 0xC2 OR PUSH22 0xA264697066735822122042E9EBC1CA4FBEFF9599F2C9 PUSH25 0xD028BCB284993A180046A58484CB16FF252EFC64736F6C6343 STOP ADDMOD NOT STOP CALLER "
    },
    "gasEstimates": {
      "creation": {
        "codeDepositCost": "3572800",
        "executionCost": "infinite",
        "totalCost": "infinite"
      },
      "external": {
        "ADMIN_ROLE()": "infinite",
        "DEFAULT_ADMIN_ROLE()": "327",
        "MANAGER_ROLE()": "283",
        "PAUSER_ROLE()": "284",
        "UNLOCKER_ROLE()": "306",
        "USDC()": "306",
        "UTILITY_INJECTOR_ROLE()": "286",
        "UTILITY_WITHDRAWER_ROLE()": "285",
        "assignUtilityETH(address,uint256)": "infinite",
        "assignUtilityETHBatch(address[],uint256[])": "infinite",
        "assignUtilityUSDC(address,uint256)": "infinite",
        "assignUtilityUSDCBatch(address[],uint256[])": "infinite",
        "batchWithdraw(uint256[])": "infinite",
        "claimUtilityETH()": "infinite",
        "claimUtilityUSDC()": "infinite",
        "depositETH()": "infinite",
        "depositUSDC(uint256)": "infinite",
        "enableGlobalLiquidation()": "infinite",
        "getRoleAdmin(bytes32)": "2579",
        "getUserDeposits(address)": "infinite",
        "getUserStats(address)": "infinite",
        "getVaultStats()": "infinite",
        "globalLiquidationEnabled()": "2422",
        "globalLiquidationTimestamp()": "2436",
        "grantRole(bytes32,address)": "infinite",
        "hasRole(bytes32,address)": "2770",
        "hasWithdrawn(address)": "2629",
        "injectUtilityETH()": "infinite",
        "injectUtilityUSDC(uint256)": "infinite",
        "isKnownDepositor(address)": "2607",
        "isTrustedForwarder(address)": "infinite",
        "isWhitelisted(address)": "2651",
        "lockupPeriod()": "2405",
        "maxCapETH()": "2384",
        "maxCapUSDC()": "2385",
        "pausedDeposits()": "2432",
        "pausedWithdrawals()": "2398",
        "reinvestUtilityETH()": "infinite",
        "reinvestUtilityUSDC()": "infinite",
        "renounceRole(bytes32,address)": "infinite",
        "rescueERC20(address,address,uint256)": "infinite",
        "returnInvestmentETH()": "infinite",
        "returnInvestmentUSDC(uint256)": "infinite",
        "revokeRole(bytes32,address)": "infinite",
        "setDepositsAsRedeemable(address,uint256[])": "infinite",
        "setLockupPeriod(uint256)": "infinite",
        "setMaxCap(uint8,uint256)": "infinite",
        "setPaused(bool,bool)": "infinite",
        "setUtilityAddress(address)": "infinite",
        "setWhitelist(address,bool)": "infinite",
        "setWhitelistBatch(address[],bool[])": "infinite",
        "setWhitelistEnabled(bool)": "infinite",
        "supportsInterface(bytes4)": "493",
        "totalDepositedETH()": "2429",
        "totalDepositedUSDC()": "2386",
        "totalInvestedETH()": "2426",
        "totalInvestedUSDC()": "2407",
        "totalReinvestedETH()": "2407",
        "totalReinvestedUSDC()": "2383",
        "totalUtilityETH()": "2405",
        "totalUtilityUSDC()": "2406",
        "totalWithdrawnETH()": "2384",
        "totalWithdrawnUSDC()": "2405",
        "trustedForwarder()": "infinite",
        "unlockDepositsForUser(address,uint256[])": "infinite",
        "userClaimableUtilityETH(address)": "2629",
        "userClaimableUtilityUSDC(address)": "2628",
        "userDeposits(address,uint256)": "7371",
        "userTotalReinvestedETH(address)": "2629",
        "userTotalReinvestedUSDC(address)": "2608",
        "utilityAddress()": "2486",
        "whitelistEnabled()": "2422",
        "withdraw(uint256)": "infinite",
        "withdrawForInvestmentETH(address,uint256)": "infinite",
        "withdrawForInvestmentUSDC(address,uint256)": "infinite",
        "withdrawUtilityETH(uint256)": "infinite",
        "withdrawUtilityUSDC(uint256)": "infinite",
        "withdrawnUsers(uint256)": "4723"
      },
      "internal": {
        "_contextSuffixLength()": "infinite",
        "_isFullyRedeemable(uint8)": "infinite",
        "_isUnlockedByAdmin(uint8)": "infinite",
        "_isWithdrawn(uint8)": "infinite",
        "_msgData()": "infinite",
        "_msgSender()": "infinite",
        "_registerDeposit(address,enum PoolPandoras.TokenType,uint256,bool)": "infinite"
      }
    },
    "methodIdentifiers": {
      "ADMIN_ROLE()": "75b238fc",
      "DEFAULT_ADMIN_ROLE()": "a217fddf",
      "MANAGER_ROLE()": "ec87621c",
      "PAUSER_ROLE()": "e63ab1e9",
      "UNLOCKER_ROLE()": "e043b2b2",
      "USDC()": "89a30271",
      "UTILITY_INJECTOR_ROLE()": "0c016ad5",
      "UTILITY_WITHDRAWER_ROLE()": "885f5029",
      "assignUtilityETH(address,uint256)": "6ec23995",
      "assignUtilityETHBatch(address[],uint256[])": "b758aeaa",
      "assignUtilityUSDC(address,uint256)": "762e1c73",
      "assignUtilityUSDCBatch(address[],uint256[])": "41debf1f",
      "batchWithdraw(uint256[])": "72e55399",
      "claimUtilityETH()": "e399067f",
      "claimUtilityUSDC()": "6c6ff56c",
      "depositETH()": "f6326fb3",
      "depositUSDC(uint256)": "f688bcfb",
      "enableGlobalLiquidation()": "da8d5add",
      "getRoleAdmin(bytes32)": "248a9ca3",
      "getUserDeposits(address)": "2a5bf6d2",
      "getUserStats(address)": "4e43603a",
      "getVaultStats()": "a59aa5a6",
      "globalLiquidationEnabled()": "246d47b7",
      "globalLiquidationTimestamp()": "588583a0",
      "grantRole(bytes32,address)": "2f2ff15d",
      "hasRole(bytes32,address)": "91d14854",
      "hasWithdrawn(address)": "5e2c19db",
      "injectUtilityETH()": "64021b13",
      "injectUtilityUSDC(uint256)": "d830d5cc",
      "isKnownDepositor(address)": "65d5ec96",
      "isTrustedForwarder(address)": "572b6c05",
      "isWhitelisted(address)": "3af32abf",
      "lockupPeriod()": "ee947a7c",
      "maxCapETH()": "9ddc3912",
      "maxCapUSDC()": "1c5aeef7",
      "pausedDeposits()": "6068d6cb",
      "pausedWithdrawals()": "b2b77ae2",
      "reinvestUtilityETH()": "275991d2",
      "reinvestUtilityUSDC()": "bda821e8",
      "renounceRole(bytes32,address)": "36568abe",
      "rescueERC20(address,address,uint256)": "b2118a8d",
      "returnInvestmentETH()": "17b51642",
      "returnInvestmentUSDC(uint256)": "5983b0bd",
      "revokeRole(bytes32,address)": "d547741f",
      "setDepositsAsRedeemable(address,uint256[])": "f5f11350",
      "setLockupPeriod(uint256)": "c771c390",
      "setMaxCap(uint8,uint256)": "f5f69af2",
      "setPaused(bool,bool)": "6426be48",
      "setUtilityAddress(address)": "89bad0a6",
      "setWhitelist(address,bool)": "53d6fd59",
      "setWhitelistBatch(address[],bool[])": "47af19aa",
      "setWhitelistEnabled(bool)": "052d9e7e",
      "supportsInterface(bytes4)": "01ffc9a7",
      "totalDepositedETH()": "899aa991",
      "totalDepositedUSDC()": "27175b23",
      "totalInvestedETH()": "fd46a171",
      "totalInvestedUSDC()": "2aad5edd",
      "totalReinvestedETH()": "97d9e5b4",
      "totalReinvestedUSDC()": "e15e23c1",
      "totalUtilityETH()": "b65ba94b",
      "totalUtilityUSDC()": "3ac43970",
      "totalWithdrawnETH()": "8b713b2e",
      "totalWithdrawnUSDC()": "e340b783",
      "trustedForwarder()": "7da0a877",
      "unlockDepositsForUser(address,uint256[])": "867d099a",
      "userClaimableUtilityETH(address)": "3408567c",
      "userClaimableUtilityUSDC(address)": "e9fe0c78",
      "userDeposits(address,uint256)": "08f43333",
      "userTotalReinvestedETH(address)": "886d589d",
      "userTotalReinvestedUSDC(address)": "04c68af0",
      "utilityAddress()": "f29b2239",
      "whitelistEnabled()": "51fb012d",
      "withdraw(uint256)": "2e1a7d4d",
      "withdrawForInvestmentETH(address,uint256)": "c6d95b74",
      "withdrawForInvestmentUSDC(address,uint256)": "8dd4928e",
      "withdrawUtilityETH(uint256)": "93055c43",
      "withdrawUtilityUSDC(uint256)": "76c1d3db",
      "withdrawnUsers(uint256)": "9e657e33"
    }
  },
  "storageLayout": {
    "storage": [
      {
        "astId": 14285,
        "contract": "PoolPandoras.sol:PoolPandoras",
        "label": "_roles",
        "offset": 0,
        "slot": "0",
        "type": "t_mapping(t_bytes32,t_struct(RoleData)14280_storage)"
      },
      {
        "astId": 14565,
        "contract": "PoolPandoras.sol:PoolPandoras",
        "label": "_status",
        "offset": 0,
        "slot": "1",
        "type": "t_uint256"
      },
      {
        "astId": 9141,
        "contract": "PoolPandoras.sol:PoolPandoras",
        "label": "lockupPeriod",
        "offset": 0,
        "slot": "2",
        "type": "t_uint256"
      },
      {
        "astId": 9144,
        "contract": "PoolPandoras.sol:PoolPandoras",
        "label": "maxCapETH",
        "offset": 0,
        "slot": "3",
        "type": "t_uint256"
      },
      {
        "astId": 9149,
        "contract": "PoolPandoras.sol:PoolPandoras",
        "label": "maxCapUSDC",
        "offset": 0,
        "slot": "4",
        "type": "t_uint256"
      },
      {
        "astId": 9151,
        "contract": "PoolPandoras.sol:PoolPandoras",
        "label": "pausedDeposits",
        "offset": 0,
        "slot": "5",
        "type": "t_bool"
      },
      {
        "astId": 9153,
        "contract": "PoolPandoras.sol:PoolPandoras",
        "label": "pausedWithdrawals",
        "offset": 1,
        "slot": "5",
        "type": "t_bool"
      },
      {
        "astId": 9155,
        "contract": "PoolPandoras.sol:PoolPandoras",
        "label": "whitelistEnabled",
        "offset": 2,
        "slot": "5",
        "type": "t_bool"
      },
      {
        "astId": 9157,
        "contract": "PoolPandoras.sol:PoolPandoras",
        "label": "globalLiquidationEnabled",
        "offset": 3,
        "slot": "5",
        "type": "t_bool"
      },
      {
        "astId": 9159,
        "contract": "PoolPandoras.sol:PoolPandoras",
        "label": "globalLiquidationTimestamp",
        "offset": 4,
        "slot": "5",
        "type": "t_uint48"
      },
      {
        "astId": 9161,
        "contract": "PoolPandoras.sol:PoolPandoras",
        "label": "utilityAddress",
        "offset": 10,
        "slot": "5",
        "type": "t_address"
      },
      {
        "astId": 9211,
        "contract": "PoolPandoras.sol:PoolPandoras",
        "label": "userDeposits",
        "offset": 0,
        "slot": "6",
        "type": "t_mapping(t_address,t_array(t_struct(DepositInfo)9205_storage)dyn_storage)"
      },
      {
        "astId": 9215,
        "contract": "PoolPandoras.sol:PoolPandoras",
        "label": "isWhitelisted",
        "offset": 0,
        "slot": "7",
        "type": "t_mapping(t_address,t_bool)"
      },
      {
        "astId": 9219,
        "contract": "PoolPandoras.sol:PoolPandoras",
        "label": "hasWithdrawn",
        "offset": 0,
        "slot": "8",
        "type": "t_mapping(t_address,t_bool)"
      },
      {
        "astId": 9223,
        "contract": "PoolPandoras.sol:PoolPandoras",
        "label": "userClaimableUtilityETH",
        "offset": 0,
        "slot": "9",
        "type": "t_mapping(t_address,t_uint256)"
      },
      {
        "astId": 9227,
        "contract": "PoolPandoras.sol:PoolPandoras",
        "label": "userClaimableUtilityUSDC",
        "offset": 0,
        "slot": "10",
        "type": "t_mapping(t_address,t_uint256)"
      },
      {
        "astId": 9231,
        "contract": "PoolPandoras.sol:PoolPandoras",
        "label": "userTotalReinvestedETH",
        "offset": 0,
        "slot": "11",
        "type": "t_mapping(t_address,t_uint256)"
      },
      {
        "astId": 9235,
        "contract": "PoolPandoras.sol:PoolPandoras",
        "label": "userTotalReinvestedUSDC",
        "offset": 0,
        "slot": "12",
        "type": "t_mapping(t_address,t_uint256)"
      },
      {
        "astId": 9239,
        "contract": "PoolPandoras.sol:PoolPandoras",
        "label": "isKnownDepositor",
        "offset": 0,
        "slot": "13",
        "type": "t_mapping(t_address,t_bool)"
      },
      {
        "astId": 9242,
        "contract": "PoolPandoras.sol:PoolPandoras",
        "label": "withdrawnUsers",
        "offset": 0,
        "slot": "14",
        "type": "t_array(t_address)dyn_storage"
      },
      {
        "astId": 9244,
        "contract": "PoolPandoras.sol:PoolPandoras",
        "label": "totalDepositedETH",
        "offset": 0,
        "slot": "15",
        "type": "t_uint256"
      },
      {
        "astId": 9246,
        "contract": "PoolPandoras.sol:PoolPandoras",
        "label": "totalDepositedUSDC",
        "offset": 0,
        "slot": "16",
        "type": "t_uint256"
      },
      {
        "astId": 9248,
        "contract": "PoolPandoras.sol:PoolPandoras",
        "label": "totalWithdrawnETH",
        "offset": 0,
        "slot": "17",
        "type": "t_uint256"
      },
      {
        "astId": 9250,
        "contract": "PoolPandoras.sol:PoolPandoras",
        "label": "totalWithdrawnUSDC",
        "offset": 0,
        "slot": "18",
        "type": "t_uint256"
      },
      {
        "astId": 9252,
        "contract": "PoolPandoras.sol:PoolPandoras",
        "label": "totalUtilityETH",
        "offset": 0,
        "slot": "19",
        "type": "t_uint256"
      },
      {
        "astId": 9254,
        "contract": "PoolPandoras.sol:PoolPandoras",
        "label": "totalUtilityUSDC",
        "offset": 0,
        "slot": "20",
        "type": "t_uint256"
      },
      {
        "astId": 9256,
        "contract": "PoolPandoras.sol:PoolPandoras",
        "label": "totalReinvestedETH",
        "offset": 0,
        "slot": "21",
        "type": "t_uint256"
      },
      {
        "astId": 9258,
        "contract": "PoolPandoras.sol:PoolPandoras",
        "label": "totalReinvestedUSDC",
        "offset": 0,
        "slot": "22",
        "type": "t_uint256"
      },
      {
        "astId": 9260,
        "contract": "PoolPandoras.sol:PoolPandoras",
        "label": "totalInvestedETH",
        "offset": 0,
        "slot": "23",
        "type": "t_uint256"
      },
      {
        "astId": 9262,
        "contract": "PoolPandoras.sol:PoolPandoras",
        "label": "totalInvestedUSDC",
        "offset": 0,
        "slot": "24",
        "type": "t_uint256"
      }
    ],
    "types": {
      "t_address": {
        "encoding": "inplace",
        "label": "address",
        "numberOfBytes": "20"
      },
      "t_array(t_address)dyn_storage": {
        "base": "t_address",
        "encoding": "dynamic_array",
        "label": "address[]",
        "numberOfBytes": "32"
      },
      "t_array(t_struct(DepositInfo)9205_storage)dyn_storage": {
        "base": "t_struct(DepositInfo)9205_storage",
        "encoding": "dynamic_array",
        "label": "struct PoolPandoras.DepositInfo[]",
        "numberOfBytes": "32"
      },
      "t_bool": {
        "encoding": "inplace",
        "label": "bool",
        "numberOfBytes": "1"
      },
      "t_bytes32": {
        "encoding": "inplace",
        "label": "bytes32",
        "numberOfBytes": "32"
      },
      "t_enum(TokenType)9138": {
        "encoding": "inplace",
        "label": "enum PoolPandoras.TokenType",
        "numberOfBytes": "1"
      },
      "t_mapping(t_address,t_array(t_struct(DepositInfo)9205_storage)dyn_storage)": {
        "encoding": "mapping",
        "key": "t_address",
        "label": "mapping(address => struct PoolPandoras.DepositInfo[])",
        "numberOfBytes": "32",
        "value": "t_array(t_struct(DepositInfo)9205_storage)dyn_storage"
      },
      "t_mapping(t_address,t_bool)": {
        "encoding": "mapping",
        "key": "t_address",
        "label": "mapping(address => bool)",
        "numberOfBytes": "32",
        "value": "t_bool"
      },
      "t_mapping(t_address,t_uint256)": {
        "encoding": "mapping",
        "key": "t_address",
        "label": "mapping(address => uint256)",
        "numberOfBytes": "32",
        "value": "t_uint256"
      },
      "t_mapping(t_bytes32,t_struct(RoleData)14280_storage)": {
        "encoding": "mapping",
        "key": "t_bytes32",
        "label": "mapping(bytes32 => struct AccessControl.RoleData)",
        "numberOfBytes": "32",
        "value": "t_struct(RoleData)14280_storage"
      },
      "t_struct(DepositInfo)9205_storage": {
        "encoding": "inplace",
        "label": "struct PoolPandoras.DepositInfo",
        "members": [
          {
            "astId": 9193,
            "contract": "PoolPandoras.sol:PoolPandoras",
            "label": "amount",
            "offset": 0,
            "slot": "0",
            "type": "t_uint96"
          },
          {
            "astId": 9195,
            "contract": "PoolPandoras.sol:PoolPandoras",
            "label": "yieldReceived",
            "offset": 12,
            "slot": "0",
            "type": "t_uint96"
          },
          {
            "astId": 9197,
            "contract": "PoolPandoras.sol:PoolPandoras",
            "label": "timestamp",
            "offset": 24,
            "slot": "0",
            "type": "t_uint48"
          },
          {
            "astId": 9199,
            "contract": "PoolPandoras.sol:PoolPandoras",
            "label": "withdrawnAt",
            "offset": 0,
            "slot": "1",
            "type": "t_uint48"
          },
          {
            "astId": 9202,
            "contract": "PoolPandoras.sol:PoolPandoras",
            "label": "token",
            "offset": 6,
            "slot": "1",
            "type": "t_enum(TokenType)9138"
          },
          {
            "astId": 9204,
            "contract": "PoolPandoras.sol:PoolPandoras",
            "label": "flags",
            "offset": 7,
            "slot": "1",
            "type": "t_uint8"
          }
        ],
        "numberOfBytes": "64"
      },
      "t_struct(RoleData)14280_storage": {
        "encoding": "inplace",
        "label": "struct AccessControl.RoleData",
        "members": [
          {
            "astId": 14277,
            "contract": "PoolPandoras.sol:PoolPandoras",
            "label": "hasRole",
            "offset": 0,
            "slot": "0",
            "type": "t_mapping(t_address,t_bool)"
          },
          {
            "astId": 14279,
            "contract": "PoolPandoras.sol:PoolPandoras",
            "label": "adminRole",
            "offset": 0,
            "slot": "1",
            "type": "t_bytes32"
          }
        ],
        "numberOfBytes": "64"
      },
      "t_uint256": {
        "encoding": "inplace",
        "label": "uint256",
        "numberOfBytes": "32"
      },
      "t_uint48": {
        "encoding": "inplace",
        "label": "uint48",
        "numberOfBytes": "6"
      },
      "t_uint8": {
        "encoding": "inplace",
        "label": "uint8",
        "numberOfBytes": "1"
      },
      "t_uint96": {
        "encoding": "inplace",
        "label": "uint96",
        "numberOfBytes": "12"
      }
    }
  },
  "userdoc": {
    "kind": "user",
    "methods": {},
    "notice": "Vault multi-token (ETH, USDC) con mtricas avanzadas, utilidad claimable, reinversin, batch y control granular,         y soporte para transacciones gasless mediante un trusted forwarder (ERC-2771).",
    "version": 1
  }
}