{
  "abi": [
    {
      "inputs": [
        {
          "internalType": "address[]",
          "name": "initialAdmins",
          "type": "address[]"
        },
        {
          "internalType": "address",
          "name": "_utilityAddress",
          "type": "address"
        }
      ],
      "stateMutability": "nonpayable",
      "type": "constructor"
    },
    {
      "inputs": [],
      "name": "AccessControlBadConfirmation",
      "type": "error"
    },
    {
      "inputs": [
        {
          "internalType": "address",
          "name": "account",
          "type": "address"
        },
        {
          "internalType": "bytes32",
          "name": "neededRole",
          "type": "bytes32"
        }
      ],
      "name": "AccessControlUnauthorizedAccount",
      "type": "error"
    },
    {
      "inputs": [],
      "name": "ReentrancyGuardReentrantCall",
      "type": "error"
    },
    {
      "anonymous": false,
      "inputs": [
        {
          "indexed": true,
          "internalType": "address",
          "name": "user",
          "type": "address"
        },
        {
          "indexed": false,
          "internalType": "enum PoolFamilyAndFriends.TokenType",
          "name": "token",
          "type": "uint8"
        },
        {
          "indexed": false,
          "internalType": "uint256[]",
          "name": "indices",
          "type": "uint256[]"
        },
        {
          "indexed": false,
          "internalType": "uint256",
          "name": "totalPrincipal",
          "type": "uint256"
        },
        {
          "indexed": false,
          "internalType": "uint256",
          "name": "totalYield",
          "type": "uint256"
        },
        {
          "indexed": false,
          "internalType": "uint256",
          "name": "when",
          "type": "uint256"
        }
      ],
      "name": "BatchWithdraw",
      "type": "event"
    },
    {
      "anonymous": false,
      "inputs": [
        {
          "indexed": true,
          "internalType": "address",
          "name": "user",
          "type": "address"
        },
        {
          "indexed": false,
          "internalType": "enum PoolFamilyAndFriends.TokenType",
          "name": "token",
          "type": "uint8"
        },
        {
          "indexed": false,
          "internalType": "uint256",
          "name": "amount",
          "type": "uint256"
        },
        {
          "indexed": false,
          "internalType": "uint256",
          "name": "when",
          "type": "uint256"
        }
      ],
      "name": "ClaimUtility",
      "type": "event"
    },
    {
      "anonymous": false,
      "inputs": [
        {
          "indexed": true,
          "internalType": "address",
          "name": "user",
          "type": "address"
        },
        {
          "indexed": false,
          "internalType": "enum PoolFamilyAndFriends.TokenType",
          "name": "token",
          "type": "uint8"
        },
        {
          "indexed": false,
          "internalType": "uint256",
          "name": "amount",
          "type": "uint256"
        },
        {
          "indexed": false,
          "internalType": "uint256",
          "name": "when",
          "type": "uint256"
        },
        {
          "indexed": false,
          "internalType": "uint256",
          "name": "depositIndex",
          "type": "uint256"
        },
        {
          "indexed": false,
          "internalType": "bool",
          "name": "reinvestment",
          "type": "bool"
        }
      ],
      "name": "Deposit",
      "type": "event"
    },
    {
      "anonymous": false,
      "inputs": [
        {
          "indexed": true,
          "internalType": "address",
          "name": "user",
          "type": "address"
        },
        {
          "indexed": false,
          "internalType": "uint256[]",
          "name": "indices",
          "type": "uint256[]"
        }
      ],
      "name": "DepositsUnlocked",
      "type": "event"
    },
    {
      "anonymous": false,
      "inputs": [
        {
          "indexed": true,
          "internalType": "address",
          "name": "token",
          "type": "address"
        },
        {
          "indexed": true,
          "internalType": "address",
          "name": "to",
          "type": "address"
        },
        {
          "indexed": false,
          "internalType": "uint256",
          "name": "amount",
          "type": "uint256"
        }
      ],
      "name": "ERC20Rescued",
      "type": "event"
    },
    {
      "anonymous": false,
      "inputs": [
        {
          "indexed": false,
          "internalType": "uint256",
          "name": "when",
          "type": "uint256"
        }
      ],
      "name": "GlobalLiquidationEnabled",
      "type": "event"
    },
    {
      "anonymous": false,
      "inputs": [
        {
          "indexed": false,
          "internalType": "uint256",
          "name": "newPeriod",
          "type": "uint256"
        }
      ],
      "name": "LockupPeriodChanged",
      "type": "event"
    },
    {
      "anonymous": false,
      "inputs": [
        {
          "indexed": false,
          "internalType": "enum PoolFamilyAndFriends.TokenType",
          "name": "token",
          "type": "uint8"
        },
        {
          "indexed": false,
          "internalType": "uint256",
          "name": "newCap",
          "type": "uint256"
        }
      ],
      "name": "MaxCapChanged",
      "type": "event"
    },
    {
      "anonymous": false,
      "inputs": [
        {
          "indexed": false,
          "internalType": "bool",
          "name": "depositsPaused",
          "type": "bool"
        },
        {
          "indexed": false,
          "internalType": "bool",
          "name": "withdrawalsPaused",
          "type": "bool"
        }
      ],
      "name": "PauseChanged",
      "type": "event"
    },
    {
      "anonymous": false,
      "inputs": [
        {
          "indexed": true,
          "internalType": "address",
          "name": "user",
          "type": "address"
        },
        {
          "indexed": false,
          "internalType": "enum PoolFamilyAndFriends.TokenType",
          "name": "token",
          "type": "uint8"
        },
        {
          "indexed": false,
          "internalType": "uint256",
          "name": "amount",
          "type": "uint256"
        },
        {
          "indexed": false,
          "internalType": "uint256",
          "name": "when",
          "type": "uint256"
        }
      ],
      "name": "Reinvest",
      "type": "event"
    },
    {
      "anonymous": false,
      "inputs": [
        {
          "indexed": true,
          "internalType": "bytes32",
          "name": "role",
          "type": "bytes32"
        },
        {
          "indexed": true,
          "internalType": "bytes32",
          "name": "previousAdminRole",
          "type": "bytes32"
        },
        {
          "indexed": true,
          "internalType": "bytes32",
          "name": "newAdminRole",
          "type": "bytes32"
        }
      ],
      "name": "RoleAdminChanged",
      "type": "event"
    },
    {
      "anonymous": false,
      "inputs": [
        {
          "indexed": true,
          "internalType": "bytes32",
          "name": "role",
          "type": "bytes32"
        },
        {
          "indexed": true,
          "internalType": "address",
          "name": "account",
          "type": "address"
        },
        {
          "indexed": true,
          "internalType": "address",
          "name": "sender",
          "type": "address"
        }
      ],
      "name": "RoleGranted",
      "type": "event"
    },
    {
      "anonymous": false,
      "inputs": [
        {
          "indexed": true,
          "internalType": "bytes32",
          "name": "role",
          "type": "bytes32"
        },
        {
          "indexed": true,
          "internalType": "address",
          "name": "account",
          "type": "address"
        },
        {
          "indexed": true,
          "internalType": "address",
          "name": "sender",
          "type": "address"
        }
      ],
      "name": "RoleRevoked",
      "type": "event"
    },
    {
      "anonymous": false,
      "inputs": [
        {
          "indexed": true,
          "internalType": "address",
          "name": "user",
          "type": "address"
        },
        {
          "indexed": false,
          "internalType": "bool",
          "name": "status",
          "type": "bool"
        }
      ],
      "name": "UserWhitelisted",
      "type": "event"
    },
    {
      "anonymous": false,
      "inputs": [
        {
          "indexed": false,
          "internalType": "address",
          "name": "newUtilityAddress",
          "type": "address"
        }
      ],
      "name": "UtilityAddressChanged",
      "type": "event"
    },
    {
      "anonymous": false,
      "inputs": [
        {
          "indexed": true,
          "internalType": "address",
          "name": "admin",
          "type": "address"
        },
        {
          "indexed": false,
          "internalType": "enum PoolFamilyAndFriends.TokenType",
          "name": "token",
          "type": "uint8"
        },
        {
          "indexed": false,
          "internalType": "uint256",
          "name": "amount",
          "type": "uint256"
        },
        {
          "indexed": false,
          "internalType": "uint256",
          "name": "when",
          "type": "uint256"
        }
      ],
      "name": "UtilityInjected",
      "type": "event"
    },
    {
      "anonymous": false,
      "inputs": [
        {
          "indexed": true,
          "internalType": "address",
          "name": "to",
          "type": "address"
        },
        {
          "indexed": false,
          "internalType": "enum PoolFamilyAndFriends.TokenType",
          "name": "token",
          "type": "uint8"
        },
        {
          "indexed": false,
          "internalType": "uint256",
          "name": "amount",
          "type": "uint256"
        },
        {
          "indexed": false,
          "internalType": "uint256",
          "name": "when",
          "type": "uint256"
        }
      ],
      "name": "UtilityWithdrawn",
      "type": "event"
    },
    {
      "anonymous": false,
      "inputs": [
        {
          "indexed": true,
          "internalType": "address",
          "name": "user",
          "type": "address"
        },
        {
          "indexed": false,
          "internalType": "enum PoolFamilyAndFriends.TokenType",
          "name": "token",
          "type": "uint8"
        },
        {
          "indexed": false,
          "internalType": "uint256",
          "name": "principal",
          "type": "uint256"
        },
        {
          "indexed": false,
          "internalType": "uint256",
          "name": "yield",
          "type": "uint256"
        },
        {
          "indexed": false,
          "internalType": "uint256",
          "name": "when",
          "type": "uint256"
        },
        {
          "indexed": false,
          "internalType": "uint256",
          "name": "depositIndex",
          "type": "uint256"
        }
      ],
      "name": "Withdraw",
      "type": "event"
    },
    {
      "inputs": [],
      "name": "ADMIN_ROLE",
      "outputs": [
        {
          "internalType": "bytes32",
          "name": "",
          "type": "bytes32"
        }
      ],
      "stateMutability": "view",
      "type": "function"
    },
    {
      "inputs": [],
      "name": "DEFAULT_ADMIN_ROLE",
      "outputs": [
        {
          "internalType": "bytes32",
          "name": "",
          "type": "bytes32"
        }
      ],
      "stateMutability": "view",
      "type": "function"
    },
    {
      "inputs": [],
      "name": "PAUSER_ROLE",
      "outputs": [
        {
          "internalType": "bytes32",
          "name": "",
          "type": "bytes32"
        }
      ],
      "stateMutability": "view",
      "type": "function"
    },
    {
      "inputs": [],
      "name": "UNLOCKER_ROLE",
      "outputs": [
        {
          "internalType": "bytes32",
          "name": "",
          "type": "bytes32"
        }
      ],
      "stateMutability": "view",
      "type": "function"
    },
    {
      "inputs": [],
      "name": "USDC",
      "outputs": [
        {
          "internalType": "address",
          "name": "",
          "type": "address"
        }
      ],
      "stateMutability": "view",
      "type": "function"
    },
    {
      "inputs": [],
      "name": "UTILITY_INJECTOR_ROLE",
      "outputs": [
        {
          "internalType": "bytes32",
          "name": "",
          "type": "bytes32"
        }
      ],
      "stateMutability": "view",
      "type": "function"
    },
    {
      "inputs": [],
      "name": "UTILITY_WITHDRAWER_ROLE",
      "outputs": [
        {
          "internalType": "bytes32",
          "name": "",
          "type": "bytes32"
        }
      ],
      "stateMutability": "view",
      "type": "function"
    },
    {
      "inputs": [
        {
          "internalType": "uint256",
          "name": "",
          "type": "uint256"
        }
      ],
      "name": "allDepositors",
      "outputs": [
        {
          "internalType": "address",
          "name": "",
          "type": "address"
        }
      ],
      "stateMutability": "view",
      "type": "function"
    },
    {
      "inputs": [
        {
          "internalType": "uint256",
          "name": "",
          "type": "uint256"
        }
      ],
      "name": "allUsers",
      "outputs": [
        {
          "internalType": "address",
          "name": "",
          "type": "address"
        }
      ],
      "stateMutability": "view",
      "type": "function"
    },
    {
      "inputs": [
        {
          "internalType": "address",
          "name": "user",
          "type": "address"
        },
        {
          "internalType": "uint256",
          "name": "amount",
          "type": "uint256"
        }
      ],
      "name": "assignUtilityETH",
      "outputs": [],
      "stateMutability": "nonpayable",
      "type": "function"
    },
    {
      "inputs": [
        {
          "internalType": "address[]",
          "name": "users",
          "type": "address[]"
        },
        {
          "internalType": "uint256[]",
          "name": "amounts",
          "type": "uint256[]"
        }
      ],
      "name": "assignUtilityETHBatch",
      "outputs": [],
      "stateMutability": "nonpayable",
      "type": "function"
    },
    {
      "inputs": [
        {
          "internalType": "address",
          "name": "user",
          "type": "address"
        },
        {
          "internalType": "uint256",
          "name": "amount",
          "type": "uint256"
        }
      ],
      "name": "assignUtilityUSDC",
      "outputs": [],
      "stateMutability": "nonpayable",
      "type": "function"
    },
    {
      "inputs": [
        {
          "internalType": "address[]",
          "name": "users",
          "type": "address[]"
        },
        {
          "internalType": "uint256[]",
          "name": "amounts",
          "type": "uint256[]"
        }
      ],
      "name": "assignUtilityUSDCBatch",
      "outputs": [],
      "stateMutability": "nonpayable",
      "type": "function"
    },
    {
      "inputs": [
        {
          "internalType": "uint256[]",
          "name": "depositIndices",
          "type": "uint256[]"
        }
      ],
      "name": "batchWithdraw",
      "outputs": [],
      "stateMutability": "nonpayable",
      "type": "function"
    },
    {
      "inputs": [],
      "name": "claimUtilityETH",
      "outputs": [],
      "stateMutability": "nonpayable",
      "type": "function"
    },
    {
      "inputs": [],
      "name": "claimUtilityUSDC",
      "outputs": [],
      "stateMutability": "nonpayable",
      "type": "function"
    },
    {
      "inputs": [],
      "name": "depositETH",
      "outputs": [],
      "stateMutability": "payable",
      "type": "function"
    },
    {
      "inputs": [
        {
          "internalType": "uint256",
          "name": "amount",
          "type": "uint256"
        }
      ],
      "name": "depositUSDC",
      "outputs": [],
      "stateMutability": "nonpayable",
      "type": "function"
    },
    {
      "inputs": [],
      "name": "enableGlobalLiquidation",
      "outputs": [],
      "stateMutability": "nonpayable",
      "type": "function"
    },
    {
      "inputs": [
        {
          "internalType": "bytes32",
          "name": "role",
          "type": "bytes32"
        }
      ],
      "name": "getRoleAdmin",
      "outputs": [
        {
          "internalType": "bytes32",
          "name": "",
          "type": "bytes32"
        }
      ],
      "stateMutability": "view",
      "type": "function"
    },
    {
      "inputs": [
        {
          "internalType": "address",
          "name": "user",
          "type": "address"
        }
      ],
      "name": "getUserDeposits",
      "outputs": [
        {
          "components": [
            {
              "internalType": "enum PoolFamilyAndFriends.TokenType",
              "name": "token",
              "type": "uint8"
            },
            {
              "internalType": "uint256",
              "name": "amount",
              "type": "uint256"
            },
            {
              "internalType": "uint256",
              "name": "timestamp",
              "type": "uint256"
            },
            {
              "internalType": "bool",
              "name": "withdrawn",
              "type": "bool"
            },
            {
              "internalType": "bool",
              "name": "unlockedByAdmin",
              "type": "bool"
            },
            {
              "internalType": "bool",
              "name": "fullyRedeemable",
              "type": "bool"
            },
            {
              "internalType": "bool",
              "name": "isReinvestment",
              "type": "bool"
            },
            {
              "internalType": "uint256",
              "name": "withdrawnAt",
              "type": "uint256"
            },
            {
              "internalType": "uint256",
              "name": "yieldReceived",
              "type": "uint256"
            }
          ],
          "internalType": "struct PoolFamilyAndFriends.DepositInfo[]",
          "name": "",
          "type": "tuple[]"
        }
      ],
      "stateMutability": "view",
      "type": "function"
    },
    {
      "inputs": [
        {
          "internalType": "address",
          "name": "user",
          "type": "address"
        }
      ],
      "name": "getUserStats",
      "outputs": [
        {
          "internalType": "uint256",
          "name": "depositedETH",
          "type": "uint256"
        },
        {
          "internalType": "uint256",
          "name": "depositedUSDC",
          "type": "uint256"
        },
        {
          "internalType": "uint256",
          "name": "withdrawnETH",
          "type": "uint256"
        },
        {
          "internalType": "uint256",
          "name": "withdrawnUSDC",
          "type": "uint256"
        },
        {
          "internalType": "uint256",
          "name": "claimableUtilityETH",
          "type": "uint256"
        },
        {
          "internalType": "uint256",
          "name": "claimableUtilityUSDC",
          "type": "uint256"
        },
        {
          "internalType": "uint256",
          "name": "reinvestedETH",
          "type": "uint256"
        },
        {
          "internalType": "uint256",
          "name": "reinvestedUSDC",
          "type": "uint256"
        }
      ],
      "stateMutability": "view",
      "type": "function"
    },
    {
      "inputs": [],
      "name": "getVaultStats",
      "outputs": [
        {
          "internalType": "uint256",
          "name": "ethInVault",
          "type": "uint256"
        },
        {
          "internalType": "uint256",
          "name": "usdcInVault",
          "type": "uint256"
        },
        {
          "internalType": "uint256",
          "name": "totalDepositedETH_",
          "type": "uint256"
        },
        {
          "internalType": "uint256",
          "name": "totalDepositedUSDC_",
          "type": "uint256"
        },
        {
          "internalType": "uint256",
          "name": "totalWithdrawnETH_",
          "type": "uint256"
        },
        {
          "internalType": "uint256",
          "name": "totalWithdrawnUSDC_",
          "type": "uint256"
        },
        {
          "internalType": "uint256",
          "name": "totalUtilityETH_",
          "type": "uint256"
        },
        {
          "internalType": "uint256",
          "name": "totalUtilityUSDC_",
          "type": "uint256"
        },
        {
          "internalType": "uint256",
          "name": "totalReinvestedETH_",
          "type": "uint256"
        },
        {
          "internalType": "uint256",
          "name": "totalReinvestedUSDC_",
          "type": "uint256"
        },
        {
          "internalType": "uint256",
          "name": "numUsers",
          "type": "uint256"
        },
        {
          "internalType": "uint256",
          "name": "numWithdrawnUsers",
          "type": "uint256"
        }
      ],
      "stateMutability": "view",
      "type": "function"
    },
    {
      "inputs": [],
      "name": "globalLiquidationEnabled",
      "outputs": [
        {
          "internalType": "bool",
          "name": "",
          "type": "bool"
        }
      ],
      "stateMutability": "view",
      "type": "function"
    },
    {
      "inputs": [],
      "name": "globalLiquidationTimestamp",
      "outputs": [
        {
          "internalType": "uint256",
          "name": "",
          "type": "uint256"
        }
      ],
      "stateMutability": "view",
      "type": "function"
    },
    {
      "inputs": [
        {
          "internalType": "bytes32",
          "name": "role",
          "type": "bytes32"
        },
        {
          "internalType": "address",
          "name": "account",
          "type": "address"
        }
      ],
      "name": "grantRole",
      "outputs": [],
      "stateMutability": "nonpayable",
      "type": "function"
    },
    {
      "inputs": [
        {
          "internalType": "bytes32",
          "name": "role",
          "type": "bytes32"
        },
        {
          "internalType": "address",
          "name": "account",
          "type": "address"
        }
      ],
      "name": "hasRole",
      "outputs": [
        {
          "internalType": "bool",
          "name": "",
          "type": "bool"
        }
      ],
      "stateMutability": "view",
      "type": "function"
    },
    {
      "inputs": [
        {
          "internalType": "address",
          "name": "",
          "type": "address"
        }
      ],
      "name": "hasWithdrawn",
      "outputs": [
        {
          "internalType": "bool",
          "name": "",
          "type": "bool"
        }
      ],
      "stateMutability": "view",
      "type": "function"
    },
    {
      "inputs": [],
      "name": "injectUtilityETH",
      "outputs": [],
      "stateMutability": "payable",
      "type": "function"
    },
    {
      "inputs": [
        {
          "internalType": "uint256",
          "name": "amount",
          "type": "uint256"
        }
      ],
      "name": "injectUtilityUSDC",
      "outputs": [],
      "stateMutability": "nonpayable",
      "type": "function"
    },
    {
      "inputs": [
        {
          "internalType": "address",
          "name": "",
          "type": "address"
        }
      ],
      "name": "isWhitelisted",
      "outputs": [
        {
          "internalType": "bool",
          "name": "",
          "type": "bool"
        }
      ],
      "stateMutability": "view",
      "type": "function"
    },
    {
      "inputs": [],
      "name": "lockupPeriod",
      "outputs": [
        {
          "internalType": "uint256",
          "name": "",
          "type": "uint256"
        }
      ],
      "stateMutability": "view",
      "type": "function"
    },
    {
      "inputs": [],
      "name": "maxCapETH",
      "outputs": [
        {
          "internalType": "uint256",
          "name": "",
          "type": "uint256"
        }
      ],
      "stateMutability": "view",
      "type": "function"
    },
    {
      "inputs": [],
      "name": "maxCapUSDC",
      "outputs": [
        {
          "internalType": "uint256",
          "name": "",
          "type": "uint256"
        }
      ],
      "stateMutability": "view",
      "type": "function"
    },
    {
      "inputs": [],
      "name": "pausedDeposits",
      "outputs": [
        {
          "internalType": "bool",
          "name": "",
          "type": "bool"
        }
      ],
      "stateMutability": "view",
      "type": "function"
    },
    {
      "inputs": [],
      "name": "pausedWithdrawals",
      "outputs": [
        {
          "internalType": "bool",
          "name": "",
          "type": "bool"
        }
      ],
      "stateMutability": "view",
      "type": "function"
    },
    {
      "inputs": [],
      "name": "reinvestUtilityETH",
      "outputs": [],
      "stateMutability": "nonpayable",
      "type": "function"
    },
    {
      "inputs": [],
      "name": "reinvestUtilityUSDC",
      "outputs": [],
      "stateMutability": "nonpayable",
      "type": "function"
    },
    {
      "inputs": [
        {
          "internalType": "bytes32",
          "name": "role",
          "type": "bytes32"
        },
        {
          "internalType": "address",
          "name": "callerConfirmation",
          "type": "address"
        }
      ],
      "name": "renounceRole",
      "outputs": [],
      "stateMutability": "nonpayable",
      "type": "function"
    },
    {
      "inputs": [
        {
          "internalType": "address",
          "name": "token",
          "type": "address"
        },
        {
          "internalType": "address",
          "name": "to",
          "type": "address"
        },
        {
          "internalType": "uint256",
          "name": "amount",
          "type": "uint256"
        }
      ],
      "name": "rescueERC20",
      "outputs": [],
      "stateMutability": "nonpayable",
      "type": "function"
    },
    {
      "inputs": [
        {
          "internalType": "bytes32",
          "name": "role",
          "type": "bytes32"
        },
        {
          "internalType": "address",
          "name": "account",
          "type": "address"
        }
      ],
      "name": "revokeRole",
      "outputs": [],
      "stateMutability": "nonpayable",
      "type": "function"
    },
    {
      "inputs": [
        {
          "internalType": "uint256",
          "name": "newPeriod",
          "type": "uint256"
        }
      ],
      "name": "setLockupPeriod",
      "outputs": [],
      "stateMutability": "nonpayable",
      "type": "function"
    },
    {
      "inputs": [
        {
          "internalType": "enum PoolFamilyAndFriends.TokenType",
          "name": "token",
          "type": "uint8"
        },
        {
          "internalType": "uint256",
          "name": "newCap",
          "type": "uint256"
        }
      ],
      "name": "setMaxCap",
      "outputs": [],
      "stateMutability": "nonpayable",
      "type": "function"
    },
    {
      "inputs": [
        {
          "internalType": "bool",
          "name": "_deposits",
          "type": "bool"
        },
        {
          "internalType": "bool",
          "name": "_withdrawals",
          "type": "bool"
        }
      ],
      "name": "setPaused",
      "outputs": [],
      "stateMutability": "nonpayable",
      "type": "function"
    },
    {
      "inputs": [
        {
          "internalType": "address",
          "name": "newUtilityAddress",
          "type": "address"
        }
      ],
      "name": "setUtilityAddress",
      "outputs": [],
      "stateMutability": "nonpayable",
      "type": "function"
    },
    {
      "inputs": [
        {
          "internalType": "address",
          "name": "user",
          "type": "address"
        },
        {
          "internalType": "bool",
          "name": "status",
          "type": "bool"
        }
      ],
      "name": "setWhitelist",
      "outputs": [],
      "stateMutability": "nonpayable",
      "type": "function"
    },
    {
      "inputs": [
        {
          "internalType": "address[]",
          "name": "users",
          "type": "address[]"
        },
        {
          "internalType": "bool[]",
          "name": "statuses",
          "type": "bool[]"
        }
      ],
      "name": "setWhitelistBatch",
      "outputs": [],
      "stateMutability": "nonpayable",
      "type": "function"
    },
    {
      "inputs": [
        {
          "internalType": "bool",
          "name": "enabled",
          "type": "bool"
        }
      ],
      "name": "setWhitelistEnabled",
      "outputs": [],
      "stateMutability": "nonpayable",
      "type": "function"
    },
    {
      "inputs": [
        {
          "internalType": "bytes4",
          "name": "interfaceId",
          "type": "bytes4"
        }
      ],
      "name": "supportsInterface",
      "outputs": [
        {
          "internalType": "bool",
          "name": "",
          "type": "bool"
        }
      ],
      "stateMutability": "view",
      "type": "function"
    },
    {
      "inputs": [],
      "name": "totalDepositedETH",
      "outputs": [
        {
          "internalType": "uint256",
          "name": "",
          "type": "uint256"
        }
      ],
      "stateMutability": "view",
      "type": "function"
    },
    {
      "inputs": [],
      "name": "totalDepositedUSDC",
      "outputs": [
        {
          "internalType": "uint256",
          "name": "",
          "type": "uint256"
        }
      ],
      "stateMutability": "view",
      "type": "function"
    },
    {
      "inputs": [],
      "name": "totalReinvestedETH",
      "outputs": [
        {
          "internalType": "uint256",
          "name": "",
          "type": "uint256"
        }
      ],
      "stateMutability": "view",
      "type": "function"
    },
    {
      "inputs": [],
      "name": "totalReinvestedUSDC",
      "outputs": [
        {
          "internalType": "uint256",
          "name": "",
          "type": "uint256"
        }
      ],
      "stateMutability": "view",
      "type": "function"
    },
    {
      "inputs": [],
      "name": "totalUtilityETH",
      "outputs": [
        {
          "internalType": "uint256",
          "name": "",
          "type": "uint256"
        }
      ],
      "stateMutability": "view",
      "type": "function"
    },
    {
      "inputs": [],
      "name": "totalUtilityUSDC",
      "outputs": [
        {
          "internalType": "uint256",
          "name": "",
          "type": "uint256"
        }
      ],
      "stateMutability": "view",
      "type": "function"
    },
    {
      "inputs": [],
      "name": "totalWithdrawnETH",
      "outputs": [
        {
          "internalType": "uint256",
          "name": "",
          "type": "uint256"
        }
      ],
      "stateMutability": "view",
      "type": "function"
    },
    {
      "inputs": [],
      "name": "totalWithdrawnUSDC",
      "outputs": [
        {
          "internalType": "uint256",
          "name": "",
          "type": "uint256"
        }
      ],
      "stateMutability": "view",
      "type": "function"
    },
    {
      "inputs": [
        {
          "internalType": "address",
          "name": "user",
          "type": "address"
        },
        {
          "internalType": "uint256[]",
          "name": "depositIndices",
          "type": "uint256[]"
        }
      ],
      "name": "unlockDepositsForUser",
      "outputs": [],
      "stateMutability": "nonpayable",
      "type": "function"
    },
    {
      "inputs": [
        {
          "internalType": "address",
          "name": "",
          "type": "address"
        }
      ],
      "name": "userClaimableUtilityETH",
      "outputs": [
        {
          "internalType": "uint256",
          "name": "",
          "type": "uint256"
        }
      ],
      "stateMutability": "view",
      "type": "function"
    },
    {
      "inputs": [
        {
          "internalType": "address",
          "name": "",
          "type": "address"
        }
      ],
      "name": "userClaimableUtilityUSDC",
      "outputs": [
        {
          "internalType": "uint256",
          "name": "",
          "type": "uint256"
        }
      ],
      "stateMutability": "view",
      "type": "function"
    },
    {
      "inputs": [
        {
          "internalType": "address",
          "name": "",
          "type": "address"
        },
        {
          "internalType": "uint256",
          "name": "",
          "type": "uint256"
        }
      ],
      "name": "userDeposits",
      "outputs": [
        {
          "internalType": "enum PoolFamilyAndFriends.TokenType",
          "name": "token",
          "type": "uint8"
        },
        {
          "internalType": "uint256",
          "name": "amount",
          "type": "uint256"
        },
        {
          "internalType": "uint256",
          "name": "timestamp",
          "type": "uint256"
        },
        {
          "internalType": "bool",
          "name": "withdrawn",
          "type": "bool"
        },
        {
          "internalType": "bool",
          "name": "unlockedByAdmin",
          "type": "bool"
        },
        {
          "internalType": "bool",
          "name": "fullyRedeemable",
          "type": "bool"
        },
        {
          "internalType": "bool",
          "name": "isReinvestment",
          "type": "bool"
        },
        {
          "internalType": "uint256",
          "name": "withdrawnAt",
          "type": "uint256"
        },
        {
          "internalType": "uint256",
          "name": "yieldReceived",
          "type": "uint256"
        }
      ],
      "stateMutability": "view",
      "type": "function"
    },
    {
      "inputs": [
        {
          "internalType": "address",
          "name": "",
          "type": "address"
        }
      ],
      "name": "userTotalReinvestedETH",
      "outputs": [
        {
          "internalType": "uint256",
          "name": "",
          "type": "uint256"
        }
      ],
      "stateMutability": "view",
      "type": "function"
    },
    {
      "inputs": [
        {
          "internalType": "address",
          "name": "",
          "type": "address"
        }
      ],
      "name": "userTotalReinvestedUSDC",
      "outputs": [
        {
          "internalType": "uint256",
          "name": "",
          "type": "uint256"
        }
      ],
      "stateMutability": "view",
      "type": "function"
    },
    {
      "inputs": [],
      "name": "utilityAddress",
      "outputs": [
        {
          "internalType": "address",
          "name": "",
          "type": "address"
        }
      ],
      "stateMutability": "view",
      "type": "function"
    },
    {
      "inputs": [],
      "name": "whitelistEnabled",
      "outputs": [
        {
          "internalType": "bool",
          "name": "",
          "type": "bool"
        }
      ],
      "stateMutability": "view",
      "type": "function"
    },
    {
      "inputs": [
        {
          "internalType": "uint256",
          "name": "depositIndex",
          "type": "uint256"
        }
      ],
      "name": "withdraw",
      "outputs": [],
      "stateMutability": "nonpayable",
      "type": "function"
    },
    {
      "inputs": [
        {
          "internalType": "uint256",
          "name": "amount",
          "type": "uint256"
        }
      ],
      "name": "withdrawUtilityETH",
      "outputs": [],
      "stateMutability": "nonpayable",
      "type": "function"
    },
    {
      "inputs": [
        {
          "internalType": "uint256",
          "name": "amount",
          "type": "uint256"
        }
      ],
      "name": "withdrawUtilityUSDC",
      "outputs": [],
      "stateMutability": "nonpayable",
      "type": "function"
    },
    {
      "inputs": [
        {
          "internalType": "uint256",
          "name": "",
          "type": "uint256"
        }
      ],
      "name": "withdrawnUsers",
      "outputs": [
        {
          "internalType": "address",
          "name": "",
          "type": "address"
        }
      ],
      "stateMutability": "view",
      "type": "function"
    },
    {
      "stateMutability": "payable",
      "type": "receive"
    }
  ],
  "devdoc": {
    "errors": {
      "AccessControlBadConfirmation()": [
        {
          "details": "The caller of a function is not the expected one. NOTE: Don't confuse with {AccessControlUnauthorizedAccount}."
        }
      ],
      "AccessControlUnauthorizedAccount(address,bytes32)": [
        {
          "details": "The `account` is missing a role."
        }
      ],
      "ReentrancyGuardReentrantCall()": [
        {
          "details": "Unauthorized reentrant call."
        }
      ]
    },
    "events": {
      "RoleAdminChanged(bytes32,bytes32,bytes32)": {
        "details": "Emitted when `newAdminRole` is set as ``role``'s admin role, replacing `previousAdminRole` `DEFAULT_ADMIN_ROLE` is the starting admin for all roles, despite {RoleAdminChanged} not being emitted to signal this."
      },
      "RoleGranted(bytes32,address,address)": {
        "details": "Emitted when `account` is granted `role`. `sender` is the account that originated the contract call. This account bears the admin role (for the granted role). Expected in cases where the role was granted using the internal {AccessControl-_grantRole}."
      },
      "RoleRevoked(bytes32,address,address)": {
        "details": "Emitted when `account` is revoked `role`. `sender` is the account that originated the contract call:   - if using `revokeRole`, it is the admin role bearer   - if using `renounceRole`, it is the role bearer (i.e. `account`)"
      }
    },
    "kind": "dev",
    "methods": {
      "getRoleAdmin(bytes32)": {
        "details": "Returns the admin role that controls `role`. See {grantRole} and {revokeRole}. To change a role's admin, use {_setRoleAdmin}."
      },
      "grantRole(bytes32,address)": {
        "details": "Grants `role` to `account`. If `account` had not been already granted `role`, emits a {RoleGranted} event. Requirements: - the caller must have ``role``'s admin role. May emit a {RoleGranted} event."
      },
      "hasRole(bytes32,address)": {
        "details": "Returns `true` if `account` has been granted `role`."
      },
      "renounceRole(bytes32,address)": {
        "details": "Revokes `role` from the calling account. Roles are often managed via {grantRole} and {revokeRole}: this function's purpose is to provide a mechanism for accounts to lose their privileges if they are compromised (such as when a trusted device is misplaced). If the calling account had been revoked `role`, emits a {RoleRevoked} event. Requirements: - the caller must be `callerConfirmation`. May emit a {RoleRevoked} event."
      },
      "revokeRole(bytes32,address)": {
        "details": "Revokes `role` from `account`. If `account` had been granted `role`, emits a {RoleRevoked} event. Requirements: - the caller must have ``role``'s admin role. May emit a {RoleRevoked} event."
      },
      "supportsInterface(bytes4)": {
        "details": "Returns true if this contract implements the interface defined by `interfaceId`. See the corresponding https://eips.ethereum.org/EIPS/eip-165#how-interfaces-are-identified[ERC section] to learn more about how these ids are created. This function call must use less than 30 000 gas."
      }
    },
    "title": "PoolFamilyAndFriends",
    "version": 1
  },
  "evm": {
    "assembly": "    /* \"PoolFamilyAndFriends.sol\":400:19809  contract PoolFamilyAndFriends is AccessControl, ReentrancyGuard {... */\n  mstore(0x40, 0x80)\n    /* \"PoolFamilyAndFriends.sol\":638:646  180 days */\n  0xed4e00\n    /* \"PoolFamilyAndFriends.sol\":608:646  uint256 public lockupPeriod = 180 days */\n  0x02\n  sstore\n    /* \"PoolFamilyAndFriends.sol\":679:694  5_000_000 ether */\n  0x0422ca8b0a00a425000000\n    /* \"PoolFamilyAndFriends.sol\":652:694  uint256 public maxCapETH = 5_000_000 ether */\n  0x03\n  sstore\n    /* \"PoolFamilyAndFriends.sol\":728:743  5_000_000 * 1e6 */\n  0x048c27395000\n    /* \"PoolFamilyAndFriends.sol\":700:743  uint256 public maxCapUSDC = 5_000_000 * 1e6 */\n  0x04\n  sstore\n    /* \"PoolFamilyAndFriends.sol\":3962:4533  constructor(... */\n  callvalue\n  dup1\n  iszero\n  tag_1\n  jumpi\n  0x00\n  dup1\n  revert\ntag_1:\n  pop\n  mload(0x40)\n  sub(codesize, bytecodeSize)\n  dup1\n  bytecodeSize\n  dup4\n  codecopy\n  dup2\n  add\n  0x40\n  dup2\n  swap1\n  mstore\n  tag_2\n  swap2\n  tag_3\n  jump\t// in\ntag_2:\n    /* \"@openzeppelin/contracts/utils/ReentrancyGuard.sol\":1857:1858   */\n  0x01\n    /* \"@openzeppelin/contracts/utils/ReentrancyGuard.sol\":2061:2082   */\n  dup1\n  sstore\n    /* \"PoolFamilyAndFriends.sol\":4068:4077  uint256 i */\n  0x00\n    /* \"PoolFamilyAndFriends.sol\":4063:4485  for (uint256 i = 0; i < initialAdmins.length; i++) {... */\ntag_8:\n    /* \"PoolFamilyAndFriends.sol\":4087:4100  initialAdmins */\n  dup3\n    /* \"PoolFamilyAndFriends.sol\":4087:4107  initialAdmins.length */\n  mload\n    /* \"PoolFamilyAndFriends.sol\":4083:4084  i */\n  dup2\n    /* \"PoolFamilyAndFriends.sol\":4083:4107  i < initialAdmins.length */\n  lt\n    /* \"PoolFamilyAndFriends.sol\":4063:4485  for (uint256 i = 0; i < initialAdmins.length; i++) {... */\n  iszero\n  tag_9\n  jumpi\n    /* \"PoolFamilyAndFriends.sol\":4128:4176  _grantRole(DEFAULT_ADMIN_ROLE, initialAdmins[i]) */\n  tag_11\n    /* \"@openzeppelin/contracts/access/AccessControl.sol\":2241:2245   */\n  0x00\n    /* \"PoolFamilyAndFriends.sol\":4139:4157  DEFAULT_ADMIN_ROLE */\n  dup1\n  shl\n    /* \"PoolFamilyAndFriends.sol\":4159:4172  initialAdmins */\n  dup5\n    /* \"PoolFamilyAndFriends.sol\":4173:4174  i */\n  dup4\n    /* \"PoolFamilyAndFriends.sol\":4159:4175  initialAdmins[i] */\n  dup2\n  mload\n  dup2\n  lt\n  tag_13\n  jumpi\n  tag_13\n  tag_14\n  jump\t// in\ntag_13:\n  0x20\n  mul\n  0x20\n  add\n  add\n  mload\n    /* \"PoolFamilyAndFriends.sol\":4128:4138  _grantRole */\n  shl(0x20, tag_15)\n    /* \"PoolFamilyAndFriends.sol\":4128:4176  _grantRole(DEFAULT_ADMIN_ROLE, initialAdmins[i]) */\n  0x20\n  shr\n  jump\t// in\ntag_11:\n  pop\n    /* \"PoolFamilyAndFriends.sol\":4190:4230  _grantRole(ADMIN_ROLE, initialAdmins[i]) */\n  tag_16\n    /* \"PoolFamilyAndFriends.sol\":1014:1037  keccak256(\"ADMIN_ROLE\") */\n  0xa49807205ce4d355092ef5a8a18f56e8913cf4a201fbe287825b095693c21775\n    /* \"PoolFamilyAndFriends.sol\":4213:4226  initialAdmins */\n  dup5\n    /* \"PoolFamilyAndFriends.sol\":4227:4228  i */\n  dup4\n    /* \"PoolFamilyAndFriends.sol\":4213:4229  initialAdmins[i] */\n  dup2\n  mload\n  dup2\n  lt\n  tag_13\n  jumpi\n  tag_13\n  tag_14\n  jump\t// in\n    /* \"PoolFamilyAndFriends.sol\":4190:4230  _grantRole(ADMIN_ROLE, initialAdmins[i]) */\ntag_16:\n  pop\n    /* \"PoolFamilyAndFriends.sol\":4244:4285  _grantRole(PAUSER_ROLE, initialAdmins[i]) */\n  tag_19\n    /* \"PoolFamilyAndFriends.sol\":1081:1105  keccak256(\"PAUSER_ROLE\") */\n  0x65d7a28e3265b37a6474929f336521b332c1681b933f6cb9f3376673440d862a\n    /* \"PoolFamilyAndFriends.sol\":4268:4281  initialAdmins */\n  dup5\n    /* \"PoolFamilyAndFriends.sol\":4282:4283  i */\n  dup4\n    /* \"PoolFamilyAndFriends.sol\":4268:4284  initialAdmins[i] */\n  dup2\n  mload\n  dup2\n  lt\n  tag_13\n  jumpi\n  tag_13\n  tag_14\n  jump\t// in\n    /* \"PoolFamilyAndFriends.sol\":4244:4285  _grantRole(PAUSER_ROLE, initialAdmins[i]) */\ntag_19:\n  pop\n    /* \"PoolFamilyAndFriends.sol\":4299:4342  _grantRole(UNLOCKER_ROLE, initialAdmins[i]) */\n  tag_22\n    /* \"PoolFamilyAndFriends.sol\":1151:1177  keccak256(\"UNLOCKER_ROLE\") */\n  0xc806897caf4fd5068191157e44d3988e43139a37e0b97b6793e1ed1184140604\n    /* \"PoolFamilyAndFriends.sol\":4325:4338  initialAdmins */\n  dup5\n    /* \"PoolFamilyAndFriends.sol\":4339:4340  i */\n  dup4\n    /* \"PoolFamilyAndFriends.sol\":4325:4341  initialAdmins[i] */\n  dup2\n  mload\n  dup2\n  lt\n  tag_13\n  jumpi\n  tag_13\n  tag_14\n  jump\t// in\n    /* \"PoolFamilyAndFriends.sol\":4299:4342  _grantRole(UNLOCKER_ROLE, initialAdmins[i]) */\ntag_22:\n  pop\n    /* \"PoolFamilyAndFriends.sol\":4356:4407  _grantRole(UTILITY_INJECTOR_ROLE, initialAdmins[i]) */\n  tag_25\n    /* \"PoolFamilyAndFriends.sol\":1231:1265  keccak256(\"UTILITY_INJECTOR_ROLE\") */\n  0xf60566c40710959d8d30b6067ce3c53c757bec78eecb0e46b83c7f8194ffae37\n    /* \"PoolFamilyAndFriends.sol\":4390:4403  initialAdmins */\n  dup5\n    /* \"PoolFamilyAndFriends.sol\":4404:4405  i */\n  dup4\n    /* \"PoolFamilyAndFriends.sol\":4390:4406  initialAdmins[i] */\n  dup2\n  mload\n  dup2\n  lt\n  tag_13\n  jumpi\n  tag_13\n  tag_14\n  jump\t// in\n    /* \"PoolFamilyAndFriends.sol\":4356:4407  _grantRole(UTILITY_INJECTOR_ROLE, initialAdmins[i]) */\ntag_25:\n  pop\n    /* \"PoolFamilyAndFriends.sol\":4421:4474  _grantRole(UTILITY_WITHDRAWER_ROLE, initialAdmins[i]) */\n  tag_28\n    /* \"PoolFamilyAndFriends.sol\":1321:1357  keccak256(\"UTILITY_WITHDRAWER_ROLE\") */\n  0x78c90eb9e475048b483a290aee04b5fe48355537c3623c7637b17d3bed71c6ed\n    /* \"PoolFamilyAndFriends.sol\":4457:4470  initialAdmins */\n  dup5\n    /* \"PoolFamilyAndFriends.sol\":4471:4472  i */\n  dup4\n    /* \"PoolFamilyAndFriends.sol\":4457:4473  initialAdmins[i] */\n  dup2\n  mload\n  dup2\n  lt\n  tag_13\n  jumpi\n  tag_13\n  tag_14\n  jump\t// in\n    /* \"PoolFamilyAndFriends.sol\":4421:4474  _grantRole(UTILITY_WITHDRAWER_ROLE, initialAdmins[i]) */\ntag_28:\n  pop\n    /* \"PoolFamilyAndFriends.sol\":4109:4112  i++ */\n  0x01\n  add\n    /* \"PoolFamilyAndFriends.sol\":4063:4485  for (uint256 i = 0; i < initialAdmins.length; i++) {... */\n  jump(tag_8)\ntag_9:\n  pop\n    /* \"PoolFamilyAndFriends.sol\":4494:4508  utilityAddress */\n  0x07\n    /* \"PoolFamilyAndFriends.sol\":4494:4526  utilityAddress = _utilityAddress */\n  dup1\n  sload\n  not(sub(shl(0xa0, 0x01), 0x01))\n  and\n  sub(shl(0xa0, 0x01), 0x01)\n  swap3\n  swap1\n  swap3\n  and\n  swap2\n  swap1\n  swap2\n  or\n  swap1\n  sstore\n  pop\n    /* \"PoolFamilyAndFriends.sol\":400:19809  contract PoolFamilyAndFriends is AccessControl, ReentrancyGuard {... */\n  jump(tag_43)\n    /* \"@openzeppelin/contracts/access/AccessControl.sol\":6155:6471   */\ntag_15:\n    /* \"@openzeppelin/contracts/access/AccessControl.sol\":6232:6236   */\n  0x00\n    /* \"@openzeppelin/contracts/access/AccessControl.sol\":2930:2942   */\n  dup3\n  dup2\n  mstore\n  0x20\n  dup2\n  dup2\n  mstore\n  0x40\n  dup1\n  dup4\n  keccak256\n  sub(shl(0xa0, 0x01), 0x01)\n    /* \"@openzeppelin/contracts/access/AccessControl.sol\":2930:2959   */\n  dup6\n  and\n  dup5\n  mstore\n  swap1\n  swap2\n  mstore\n  dup2\n  keccak256\n  sload\n  0xff\n  and\n    /* \"@openzeppelin/contracts/access/AccessControl.sol\":6248:6465   */\n  tag_35\n  jumpi\n    /* \"@openzeppelin/contracts/access/AccessControl.sol\":6291:6297   */\n  0x00\n    /* \"@openzeppelin/contracts/access/AccessControl.sol\":6291:6303   */\n  dup4\n  dup2\n  mstore\n  0x20\n  dup2\n  dup2\n  mstore\n  0x40\n  dup1\n  dup4\n  keccak256\n  sub(shl(0xa0, 0x01), 0x01)\n    /* \"@openzeppelin/contracts/access/AccessControl.sol\":6291:6320   */\n  dup7\n  and\n  dup5\n  mstore\n  swap1\n  swap2\n  mstore\n  swap1\n  keccak256\n    /* \"@openzeppelin/contracts/access/AccessControl.sol\":6291:6327   */\n  dup1\n  sload\n  not(0xff)\n  and\n    /* \"@openzeppelin/contracts/access/AccessControl.sol\":6323:6327   */\n  0x01\n    /* \"@openzeppelin/contracts/access/AccessControl.sol\":6291:6327   */\n  or\n  swap1\n  sstore\n    /* \"@openzeppelin/contracts/access/AccessControl.sol\":6373:6385   */\n  tag_36\n    /* \"@openzeppelin/contracts/utils/Context.sol\":735:745   */\n  caller\n  swap1\n    /* \"@openzeppelin/contracts/utils/Context.sol\":656:752   */\n  jump\n    /* \"@openzeppelin/contracts/access/AccessControl.sol\":6373:6385   */\ntag_36:\n  sub(shl(0xa0, 0x01), 0x01)\n    /* \"@openzeppelin/contracts/access/AccessControl.sol\":6346:6386   */\n  and\n    /* \"@openzeppelin/contracts/access/AccessControl.sol\":6364:6371   */\n  dup3\n  sub(shl(0xa0, 0x01), 0x01)\n    /* \"@openzeppelin/contracts/access/AccessControl.sol\":6346:6386   */\n  and\n    /* \"@openzeppelin/contracts/access/AccessControl.sol\":6358:6362   */\n  dup5\n    /* \"@openzeppelin/contracts/access/AccessControl.sol\":6346:6386   */\n  0x2f8788117e7eff1d82e926ec794901d17c78024a50270940304540a733656f0d\n  mload(0x40)\n  mload(0x40)\n  dup1\n  swap2\n  sub\n  swap1\n  log4\n  pop\n    /* \"@openzeppelin/contracts/access/AccessControl.sol\":6407:6411   */\n  0x01\n    /* \"@openzeppelin/contracts/access/AccessControl.sol\":6400:6411   */\n  jump(tag_38)\n    /* \"@openzeppelin/contracts/access/AccessControl.sol\":6248:6465   */\ntag_35:\n  pop\n    /* \"@openzeppelin/contracts/access/AccessControl.sol\":6449:6454   */\n  0x00\n    /* \"@openzeppelin/contracts/access/AccessControl.sol\":6248:6465   */\ntag_38:\n    /* \"@openzeppelin/contracts/access/AccessControl.sol\":6155:6471   */\n  swap3\n  swap2\n  pop\n  pop\n  jump\t// out\n    /* \"#utility.yul\":14:141   */\ntag_41:\n    /* \"#utility.yul\":75:85   */\n  0x4e487b71\n    /* \"#utility.yul\":70:73   */\n  0xe0\n    /* \"#utility.yul\":66:86   */\n  shl\n    /* \"#utility.yul\":63:64   */\n  0x00\n    /* \"#utility.yul\":56:87   */\n  mstore\n    /* \"#utility.yul\":106:110   */\n  0x41\n    /* \"#utility.yul\":103:104   */\n  0x04\n    /* \"#utility.yul\":96:111   */\n  mstore\n    /* \"#utility.yul\":130:134   */\n  0x24\n    /* \"#utility.yul\":127:128   */\n  0x00\n    /* \"#utility.yul\":120:135   */\n  revert\n    /* \"#utility.yul\":146:323   */\ntag_42:\n    /* \"#utility.yul\":225:238   */\n  dup1\n  mload\n  sub(shl(0xa0, 0x01), 0x01)\n    /* \"#utility.yul\":267:298   */\n  dup2\n  and\n    /* \"#utility.yul\":257:299   */\n  dup2\n  eq\n    /* \"#utility.yul\":247:317   */\n  tag_46\n  jumpi\n    /* \"#utility.yul\":313:314   */\n  0x00\n    /* \"#utility.yul\":310:311   */\n  dup1\n    /* \"#utility.yul\":303:315   */\n  revert\n    /* \"#utility.yul\":247:317   */\ntag_46:\n    /* \"#utility.yul\":146:323   */\n  swap2\n  swap1\n  pop\n  jump\t// out\n    /* \"#utility.yul\":328:1544   */\ntag_3:\n    /* \"#utility.yul\":432:438   */\n  0x00\n    /* \"#utility.yul\":440:446   */\n  dup1\n    /* \"#utility.yul\":493:495   */\n  0x40\n    /* \"#utility.yul\":481:490   */\n  dup4\n    /* \"#utility.yul\":472:479   */\n  dup6\n    /* \"#utility.yul\":468:491   */\n  sub\n    /* \"#utility.yul\":464:496   */\n  slt\n    /* \"#utility.yul\":461:513   */\n  iszero\n  tag_48\n  jumpi\n    /* \"#utility.yul\":509:510   */\n  0x00\n    /* \"#utility.yul\":506:507   */\n  dup1\n    /* \"#utility.yul\":499:511   */\n  revert\n    /* \"#utility.yul\":461:513   */\ntag_48:\n    /* \"#utility.yul\":536:552   */\n  dup3\n  mload\n  sub(shl(0x40, 0x01), 0x01)\n    /* \"#utility.yul\":601:615   */\n  dup1\n  dup3\n  gt\n    /* \"#utility.yul\":598:632   */\n  iszero\n  tag_49\n  jumpi\n    /* \"#utility.yul\":628:629   */\n  0x00\n    /* \"#utility.yul\":625:626   */\n  dup1\n    /* \"#utility.yul\":618:630   */\n  revert\n    /* \"#utility.yul\":598:632   */\ntag_49:\n    /* \"#utility.yul\":666:672   */\n  dup2\n    /* \"#utility.yul\":655:664   */\n  dup6\n    /* \"#utility.yul\":651:673   */\n  add\n    /* \"#utility.yul\":641:673   */\n  swap2\n  pop\n    /* \"#utility.yul\":711:718   */\n  dup6\n    /* \"#utility.yul\":704:708   */\n  0x1f\n    /* \"#utility.yul\":700:702   */\n  dup4\n    /* \"#utility.yul\":696:709   */\n  add\n    /* \"#utility.yul\":692:719   */\n  slt\n    /* \"#utility.yul\":682:737   */\n  tag_50\n  jumpi\n    /* \"#utility.yul\":733:734   */\n  0x00\n    /* \"#utility.yul\":730:731   */\n  dup1\n    /* \"#utility.yul\":723:735   */\n  revert\n    /* \"#utility.yul\":682:737   */\ntag_50:\n    /* \"#utility.yul\":762:764   */\n  dup2\n    /* \"#utility.yul\":756:765   */\n  mload\n    /* \"#utility.yul\":784:788   */\n  0x20\n    /* \"#utility.yul\":807:809   */\n  dup3\n    /* \"#utility.yul\":803:805   */\n  dup3\n    /* \"#utility.yul\":800:810   */\n  gt\n    /* \"#utility.yul\":797:833   */\n  iszero\n  tag_52\n  jumpi\n    /* \"#utility.yul\":813:831   */\n  tag_52\n  tag_41\n  jump\t// in\ntag_52:\n    /* \"#utility.yul\":859:861   */\n  dup2\n    /* \"#utility.yul\":856:857   */\n  0x05\n    /* \"#utility.yul\":852:862   */\n  shl\n    /* \"#utility.yul\":891:893   */\n  0x40\n    /* \"#utility.yul\":885:894   */\n  mload\n    /* \"#utility.yul\":954:956   */\n  0x1f\n    /* \"#utility.yul\":950:957   */\n  not\n    /* \"#utility.yul\":945:947   */\n  0x3f\n    /* \"#utility.yul\":941:943   */\n  dup4\n    /* \"#utility.yul\":937:948   */\n  add\n    /* \"#utility.yul\":933:958   */\n  and\n    /* \"#utility.yul\":925:931   */\n  dup2\n    /* \"#utility.yul\":921:959   */\n  add\n    /* \"#utility.yul\":1009:1015   */\n  dup2\n    /* \"#utility.yul\":997:1007   */\n  dup2\n    /* \"#utility.yul\":994:1016   */\n  lt\n    /* \"#utility.yul\":989:991   */\n  dup7\n    /* \"#utility.yul\":977:987   */\n  dup3\n    /* \"#utility.yul\":974:992   */\n  gt\n    /* \"#utility.yul\":971:1017   */\n  or\n    /* \"#utility.yul\":968:1040   */\n  iszero\n  tag_54\n  jumpi\n    /* \"#utility.yul\":1020:1038   */\n  tag_54\n  tag_41\n  jump\t// in\ntag_54:\n    /* \"#utility.yul\":1056:1058   */\n  0x40\n    /* \"#utility.yul\":1049:1071   */\n  mstore\n    /* \"#utility.yul\":1106:1124   */\n  swap3\n  dup4\n  mstore\n    /* \"#utility.yul\":1140:1155   */\n  dup2\n  dup4\n  add\n  swap4\n  pop\n    /* \"#utility.yul\":1182:1193   */\n  dup5\n  dup2\n  add\n    /* \"#utility.yul\":1178:1198   */\n  dup3\n  add\n  swap3\n    /* \"#utility.yul\":1210:1229   */\n  dup10\n  dup5\n  gt\n    /* \"#utility.yul\":1207:1246   */\n  iszero\n  tag_55\n  jumpi\n    /* \"#utility.yul\":1242:1243   */\n  0x00\n    /* \"#utility.yul\":1239:1240   */\n  dup1\n    /* \"#utility.yul\":1232:1244   */\n  revert\n    /* \"#utility.yul\":1207:1246   */\ntag_55:\n    /* \"#utility.yul\":1266:1277   */\n  swap5\n  dup3\n  add\n  swap5\n    /* \"#utility.yul\":1286:1445   */\ntag_56:\n    /* \"#utility.yul\":1302:1308   */\n  dup4\n    /* \"#utility.yul\":1297:1300   */\n  dup7\n    /* \"#utility.yul\":1294:1309   */\n  lt\n    /* \"#utility.yul\":1286:1445   */\n  iszero\n  tag_58\n  jumpi\n    /* \"#utility.yul\":1368:1402   */\n  tag_59\n    /* \"#utility.yul\":1398:1401   */\n  dup7\n    /* \"#utility.yul\":1368:1402   */\n  tag_42\n  jump\t// in\ntag_59:\n    /* \"#utility.yul\":1356:1403   */\n  dup6\n  mstore\n    /* \"#utility.yul\":1319:1331   */\n  swap5\n  dup3\n  add\n  swap5\n    /* \"#utility.yul\":1423:1435   */\n  swap4\n  dup3\n  add\n  swap4\n    /* \"#utility.yul\":1286:1445   */\n  jump(tag_56)\ntag_58:\n    /* \"#utility.yul\":1464:1470   */\n  swap7\n  pop\n    /* \"#utility.yul\":1489:1538   */\n  tag_60\n  swap1\n  pop\n    /* \"#utility.yul\":1519:1537   */\n  dup8\n  dup3\n  add\n    /* \"#utility.yul\":1489:1538   */\n  tag_42\n  jump\t// in\ntag_60:\n    /* \"#utility.yul\":1479:1538   */\n  swap5\n  pop\n  pop\n  pop\n  pop\n  pop\n    /* \"#utility.yul\":328:1544   */\n  swap3\n  pop\n  swap3\n  swap1\n  pop\n  jump\t// out\n    /* \"#utility.yul\":1549:1676   */\ntag_14:\n    /* \"#utility.yul\":1610:1620   */\n  0x4e487b71\n    /* \"#utility.yul\":1605:1608   */\n  0xe0\n    /* \"#utility.yul\":1601:1621   */\n  shl\n    /* \"#utility.yul\":1598:1599   */\n  0x00\n    /* \"#utility.yul\":1591:1622   */\n  mstore\n    /* \"#utility.yul\":1641:1645   */\n  0x32\n    /* \"#utility.yul\":1638:1639   */\n  0x04\n    /* \"#utility.yul\":1631:1646   */\n  mstore\n    /* \"#utility.yul\":1665:1669   */\n  0x24\n    /* \"#utility.yul\":1662:1663   */\n  0x00\n    /* \"#utility.yul\":1655:1670   */\n  revert\n    /* \"#utility.yul\":1549:1676   */\ntag_43:\n    /* \"PoolFamilyAndFriends.sol\":400:19809  contract PoolFamilyAndFriends is AccessControl, ReentrancyGuard {... */\n  dataSize(sub_0)\n  dup1\n  dataOffset(sub_0)\n  0x00\n  codecopy\n  0x00\n  return\nstop\n\nsub_0: assembly {\n        /* \"PoolFamilyAndFriends.sol\":400:19809  contract PoolFamilyAndFriends is AccessControl, ReentrancyGuard {... */\n      mstore(0x40, 0x80)\n      jumpi(tag_1, lt(calldatasize, 0x04))\n      shr(0xe0, calldataload(0x00))\n      dup1\n      0x885f5029\n      gt\n      tag_72\n      jumpi\n      dup1\n      0xb758aeaa\n      gt\n      tag_73\n      jumpi\n      dup1\n      0xe340b783\n      gt\n      tag_74\n      jumpi\n      dup1\n      0xee947a7c\n      gt\n      tag_75\n      jumpi\n      dup1\n      0xf5f69af2\n      gt\n      tag_76\n      jumpi\n      dup1\n      0xf5f69af2\n      eq\n      tag_69\n      jumpi\n      dup1\n      0xf6326fb3\n      eq\n      tag_70\n      jumpi\n      dup1\n      0xf688bcfb\n      eq\n      tag_71\n      jumpi\n      0x00\n      dup1\n      revert\n    tag_76:\n      dup1\n      0xee947a7c\n      eq\n      tag_67\n      jumpi\n      dup1\n      0xf29b2239\n      eq\n      tag_68\n      jumpi\n      0x00\n      dup1\n      revert\n    tag_75:\n      dup1\n      0xe340b783\n      eq\n      tag_63\n      jumpi\n      dup1\n      0xe399067f\n      eq\n      tag_64\n      jumpi\n      dup1\n      0xe63ab1e9\n      eq\n      tag_65\n      jumpi\n      dup1\n      0xe9fe0c78\n      eq\n      tag_66\n      jumpi\n      0x00\n      dup1\n      revert\n    tag_74:\n      dup1\n      0xd830d5cc\n      gt\n      tag_77\n      jumpi\n      dup1\n      0xe02f6aca\n      gt\n      tag_78\n      jumpi\n      dup1\n      0xe02f6aca\n      eq\n      tag_60\n      jumpi\n      dup1\n      0xe043b2b2\n      eq\n      tag_61\n      jumpi\n      dup1\n      0xe15e23c1\n      eq\n      tag_62\n      jumpi\n      0x00\n      dup1\n      revert\n    tag_78:\n      dup1\n      0xd830d5cc\n      eq\n      tag_58\n      jumpi\n      dup1\n      0xda8d5add\n      eq\n      tag_59\n      jumpi\n      0x00\n      dup1\n      revert\n    tag_77:\n      dup1\n      0xb758aeaa\n      eq\n      tag_54\n      jumpi\n      dup1\n      0xbda821e8\n      eq\n      tag_55\n      jumpi\n      dup1\n      0xc771c390\n      eq\n      tag_56\n      jumpi\n      dup1\n      0xd547741f\n      eq\n      tag_57\n      jumpi\n      0x00\n      dup1\n      revert\n    tag_73:\n      dup1\n      0x97d9e5b4\n      gt\n      tag_79\n      jumpi\n      dup1\n      0xa2bdedf4\n      gt\n      tag_80\n      jumpi\n      dup1\n      0xb2118a8d\n      gt\n      tag_81\n      jumpi\n      dup1\n      0xb2118a8d\n      eq\n      tag_51\n      jumpi\n      dup1\n      0xb2b77ae2\n      eq\n      tag_52\n      jumpi\n      dup1\n      0xb65ba94b\n      eq\n      tag_53\n      jumpi\n      0x00\n      dup1\n      revert\n    tag_81:\n      dup1\n      0xa2bdedf4\n      eq\n      tag_49\n      jumpi\n      dup1\n      0xa59aa5a6\n      eq\n      tag_50\n      jumpi\n      0x00\n      dup1\n      revert\n    tag_80:\n      dup1\n      0x97d9e5b4\n      eq\n      tag_45\n      jumpi\n      dup1\n      0x9ddc3912\n      eq\n      tag_46\n      jumpi\n      dup1\n      0x9e657e33\n      eq\n      tag_47\n      jumpi\n      dup1\n      0xa217fddf\n      eq\n      tag_48\n      jumpi\n      0x00\n      dup1\n      revert\n    tag_79:\n      dup1\n      0x89bad0a6\n      gt\n      tag_82\n      jumpi\n      dup1\n      0x89bad0a6\n      eq\n      tag_41\n      jumpi\n      dup1\n      0x8b713b2e\n      eq\n      tag_42\n      jumpi\n      dup1\n      0x91d14854\n      eq\n      tag_43\n      jumpi\n      dup1\n      0x93055c43\n      eq\n      tag_44\n      jumpi\n      0x00\n      dup1\n      revert\n    tag_82:\n      dup1\n      0x885f5029\n      eq\n      tag_37\n      jumpi\n      dup1\n      0x886d589d\n      eq\n      tag_38\n      jumpi\n      dup1\n      0x899aa991\n      eq\n      tag_39\n      jumpi\n      dup1\n      0x89a30271\n      eq\n      tag_40\n      jumpi\n      0x00\n      dup1\n      revert\n    tag_72:\n      dup1\n      0x41debf1f\n      gt\n      tag_83\n      jumpi\n      dup1\n      0x64021b13\n      gt\n      tag_84\n      jumpi\n      dup1\n      0x72e55399\n      gt\n      tag_85\n      jumpi\n      dup1\n      0x762e1c73\n      gt\n      tag_86\n      jumpi\n      dup1\n      0x762e1c73\n      eq\n      tag_34\n      jumpi\n      dup1\n      0x76c1d3db\n      eq\n      tag_35\n      jumpi\n      dup1\n      0x867d099a\n      eq\n      tag_36\n      jumpi\n      0x00\n      dup1\n      revert\n    tag_86:\n      dup1\n      0x72e55399\n      eq\n      tag_32\n      jumpi\n      dup1\n      0x75b238fc\n      eq\n      tag_33\n      jumpi\n      0x00\n      dup1\n      revert\n    tag_85:\n      dup1\n      0x64021b13\n      eq\n      tag_28\n      jumpi\n      dup1\n      0x6426be48\n      eq\n      tag_29\n      jumpi\n      dup1\n      0x6c6ff56c\n      eq\n      tag_30\n      jumpi\n      dup1\n      0x6ec23995\n      eq\n      tag_31\n      jumpi\n      0x00\n      dup1\n      revert\n    tag_84:\n      dup1\n      0x53d6fd59\n      gt\n      tag_87\n      jumpi\n      dup1\n      0x53d6fd59\n      eq\n      tag_24\n      jumpi\n      dup1\n      0x588583a0\n      eq\n      tag_25\n      jumpi\n      dup1\n      0x5e2c19db\n      eq\n      tag_26\n      jumpi\n      dup1\n      0x6068d6cb\n      eq\n      tag_27\n      jumpi\n      0x00\n      dup1\n      revert\n    tag_87:\n      dup1\n      0x41debf1f\n      eq\n      tag_20\n      jumpi\n      dup1\n      0x47af19aa\n      eq\n      tag_21\n      jumpi\n      dup1\n      0x4e43603a\n      eq\n      tag_22\n      jumpi\n      dup1\n      0x51fb012d\n      eq\n      tag_23\n      jumpi\n      0x00\n      dup1\n      revert\n    tag_83:\n      dup1\n      0x27175b23\n      gt\n      tag_88\n      jumpi\n      dup1\n      0x2f2ff15d\n      gt\n      tag_89\n      jumpi\n      dup1\n      0x36568abe\n      gt\n      tag_90\n      jumpi\n      dup1\n      0x36568abe\n      eq\n      tag_17\n      jumpi\n      dup1\n      0x3ac43970\n      eq\n      tag_18\n      jumpi\n      dup1\n      0x3af32abf\n      eq\n      tag_19\n      jumpi\n      0x00\n      dup1\n      revert\n    tag_90:\n      dup1\n      0x2f2ff15d\n      eq\n      tag_15\n      jumpi\n      dup1\n      0x3408567c\n      eq\n      tag_16\n      jumpi\n      0x00\n      dup1\n      revert\n    tag_89:\n      dup1\n      0x27175b23\n      eq\n      tag_11\n      jumpi\n      dup1\n      0x275991d2\n      eq\n      tag_12\n      jumpi\n      dup1\n      0x2a5bf6d2\n      eq\n      tag_13\n      jumpi\n      dup1\n      0x2e1a7d4d\n      eq\n      tag_14\n      jumpi\n      0x00\n      dup1\n      revert\n    tag_88:\n      dup1\n      0x0c016ad5\n      gt\n      tag_91\n      jumpi\n      dup1\n      0x0c016ad5\n      eq\n      tag_7\n      jumpi\n      dup1\n      0x1c5aeef7\n      eq\n      tag_8\n      jumpi\n      dup1\n      0x246d47b7\n      eq\n      tag_9\n      jumpi\n      dup1\n      0x248a9ca3\n      eq\n      tag_10\n      jumpi\n      0x00\n      dup1\n      revert\n    tag_91:\n      dup1\n      0x01ffc9a7\n      eq\n      tag_3\n      jumpi\n      dup1\n      0x04c68af0\n      eq\n      tag_4\n      jumpi\n      dup1\n      0x052d9e7e\n      eq\n      tag_5\n      jumpi\n      dup1\n      0x08f43333\n      eq\n      tag_6\n      jumpi\n      0x00\n      dup1\n      revert\n    tag_1:\n      jumpi(tag_2, calldatasize)\n      stop\n    tag_2:\n      0x00\n      dup1\n      revert\n        /* \"@openzeppelin/contracts/access/AccessControl.sol\":2541:2743   */\n    tag_3:\n      callvalue\n      dup1\n      iszero\n      tag_94\n      jumpi\n      0x00\n      dup1\n      revert\n    tag_94:\n      pop\n      tag_95\n      tag_96\n      calldatasize\n      0x04\n      tag_97\n      jump\t// in\n    tag_96:\n      tag_98\n      jump\t// in\n    tag_95:\n      mload(0x40)\n        /* \"#utility.yul\":566:580   */\n      swap1\n      iszero\n        /* \"#utility.yul\":559:581   */\n      iszero\n        /* \"#utility.yul\":541:582   */\n      dup2\n      mstore\n        /* \"#utility.yul\":529:531   */\n      0x20\n        /* \"#utility.yul\":514:532   */\n      add\n        /* \"@openzeppelin/contracts/access/AccessControl.sol\":2541:2743   */\n    tag_99:\n      mload(0x40)\n      dup1\n      swap2\n      sub\n      swap1\n      return\n        /* \"PoolFamilyAndFriends.sol\":1996:2054  mapping(address => uint256) public userTotalReinvestedUSDC */\n    tag_4:\n      callvalue\n      dup1\n      iszero\n      tag_101\n      jumpi\n      0x00\n      dup1\n      revert\n    tag_101:\n      pop\n      tag_102\n      tag_103\n      calldatasize\n      0x04\n      tag_104\n      jump\t// in\n    tag_103:\n      mstore(0x20, 0x0e)\n      0x00\n      swap1\n      dup2\n      mstore\n      0x40\n      swap1\n      keccak256\n      sload\n      dup2\n      jump\n    tag_102:\n      mload(0x40)\n        /* \"#utility.yul\":1131:1156   */\n      swap1\n      dup2\n      mstore\n        /* \"#utility.yul\":1119:1121   */\n      0x20\n        /* \"#utility.yul\":1104:1122   */\n      add\n        /* \"PoolFamilyAndFriends.sol\":1996:2054  mapping(address => uint256) public userTotalReinvestedUSDC */\n      tag_99\n        /* \"#utility.yul\":985:1162   */\n      jump\n        /* \"PoolFamilyAndFriends.sol\":5225:5341  function setWhitelistEnabled(bool enabled) external onlyRole(ADMIN_ROLE) {... */\n    tag_5:\n      callvalue\n      dup1\n      iszero\n      tag_108\n      jumpi\n      0x00\n      dup1\n      revert\n    tag_108:\n      pop\n      tag_109\n      tag_110\n      calldatasize\n      0x04\n      tag_111\n      jump\t// in\n    tag_110:\n      tag_112\n      jump\t// in\n    tag_109:\n      stop\n        /* \"PoolFamilyAndFriends.sol\":1644:1697  mapping(address => DepositInfo[]) public userDeposits */\n    tag_6:\n      callvalue\n      dup1\n      iszero\n      tag_113\n      jumpi\n      0x00\n      dup1\n      revert\n    tag_113:\n      pop\n      tag_114\n      tag_115\n      calldatasize\n      0x04\n      tag_116\n      jump\t// in\n    tag_115:\n      tag_117\n      jump\t// in\n    tag_114:\n      mload(0x40)\n      tag_99\n      swap10\n      swap9\n      swap8\n      swap7\n      swap6\n      swap5\n      swap4\n      swap3\n      swap2\n      swap1\n      tag_119\n      jump\t// in\n        /* \"PoolFamilyAndFriends.sol\":1183:1265  bytes32 public constant UTILITY_INJECTOR_ROLE = keccak256(\"UTILITY_INJECTOR_ROLE\") */\n    tag_7:\n      callvalue\n      dup1\n      iszero\n      tag_120\n      jumpi\n      0x00\n      dup1\n      revert\n    tag_120:\n      pop\n      tag_102\n        /* \"PoolFamilyAndFriends.sol\":1231:1265  keccak256(\"UTILITY_INJECTOR_ROLE\") */\n      0xf60566c40710959d8d30b6067ce3c53c757bec78eecb0e46b83c7f8194ffae37\n        /* \"PoolFamilyAndFriends.sol\":1183:1265  bytes32 public constant UTILITY_INJECTOR_ROLE = keccak256(\"UTILITY_INJECTOR_ROLE\") */\n      dup2\n      jump\n        /* \"PoolFamilyAndFriends.sol\":700:743  uint256 public maxCapUSDC = 5_000_000 * 1e6 */\n    tag_8:\n      callvalue\n      dup1\n      iszero\n      tag_125\n      jumpi\n      0x00\n      dup1\n      revert\n    tag_125:\n      pop\n      tag_102\n      sload(0x04)\n      dup2\n      jump\n        /* \"PoolFamilyAndFriends.sol\":851:887  bool public globalLiquidationEnabled */\n    tag_9:\n      callvalue\n      dup1\n      iszero\n      tag_129\n      jumpi\n      0x00\n      dup1\n      revert\n    tag_129:\n      pop\n      sload(0x05)\n      tag_95\n      swap1\n      0x01000000\n      swap1\n      div\n      0xff\n      and\n      dup2\n      jump\n        /* \"@openzeppelin/contracts/access/AccessControl.sol\":3786:3906   */\n    tag_10:\n      callvalue\n      dup1\n      iszero\n      tag_133\n      jumpi\n      0x00\n      dup1\n      revert\n    tag_133:\n      pop\n      tag_102\n      tag_135\n      calldatasize\n      0x04\n      tag_136\n      jump\t// in\n    tag_135:\n        /* \"@openzeppelin/contracts/access/AccessControl.sol\":3851:3858   */\n      0x00\n        /* \"@openzeppelin/contracts/access/AccessControl.sol\":3877:3889   */\n      swap1\n      dup2\n      mstore\n      0x20\n      dup2\n      swap1\n      mstore\n      0x40\n      swap1\n      keccak256\n        /* \"@openzeppelin/contracts/access/AccessControl.sol\":3877:3899   */\n      0x01\n      add\n      sload\n      swap1\n        /* \"@openzeppelin/contracts/access/AccessControl.sol\":3786:3906   */\n      jump\n        /* \"PoolFamilyAndFriends.sol\":2230:2263  uint256 public totalDepositedUSDC */\n    tag_11:\n      callvalue\n      dup1\n      iszero\n      tag_139\n      jumpi\n      0x00\n      dup1\n      revert\n    tag_139:\n      pop\n      tag_102\n      sload(0x13)\n      dup2\n      jump\n        /* \"PoolFamilyAndFriends.sol\":15339:15786  function reinvestUtilityETH() external nonReentrant {... */\n    tag_12:\n      callvalue\n      dup1\n      iszero\n      tag_143\n      jumpi\n      0x00\n      dup1\n      revert\n    tag_143:\n      pop\n      tag_109\n      tag_145\n      jump\t// in\n        /* \"PoolFamilyAndFriends.sol\":19355:19481  function getUserDeposits(address user) external view returns (DepositInfo[] memory) {... */\n    tag_13:\n      callvalue\n      dup1\n      iszero\n      tag_146\n      jumpi\n      0x00\n      dup1\n      revert\n    tag_146:\n      pop\n      tag_147\n      tag_148\n      calldatasize\n      0x04\n      tag_104\n      jump\t// in\n    tag_148:\n      tag_149\n      jump\t// in\n    tag_147:\n      mload(0x40)\n      tag_99\n      swap2\n      swap1\n      tag_151\n      jump\t// in\n        /* \"PoolFamilyAndFriends.sol\":7769:8954  function withdraw(uint256 depositIndex) external nonReentrant whenWithdrawalsNotPaused {... */\n    tag_14:\n      callvalue\n      dup1\n      iszero\n      tag_152\n      jumpi\n      0x00\n      dup1\n      revert\n    tag_152:\n      pop\n      tag_109\n      tag_154\n      calldatasize\n      0x04\n      tag_136\n      jump\t// in\n    tag_154:\n      tag_156\n      jump\t// in\n        /* \"@openzeppelin/contracts/access/AccessControl.sol\":4202:4338   */\n    tag_15:\n      callvalue\n      dup1\n      iszero\n      tag_157\n      jumpi\n      0x00\n      dup1\n      revert\n    tag_157:\n      pop\n      tag_109\n      tag_159\n      calldatasize\n      0x04\n      tag_160\n      jump\t// in\n    tag_159:\n      tag_161\n      jump\t// in\n        /* \"PoolFamilyAndFriends.sol\":1804:1862  mapping(address => uint256) public userClaimableUtilityETH */\n    tag_16:\n      callvalue\n      dup1\n      iszero\n      tag_162\n      jumpi\n      0x00\n      dup1\n      revert\n    tag_162:\n      pop\n      tag_102\n      tag_164\n      calldatasize\n      0x04\n      tag_104\n      jump\t// in\n    tag_164:\n      mstore(0x20, 0x0b)\n      0x00\n      swap1\n      dup2\n      mstore\n      0x40\n      swap1\n      keccak256\n      sload\n      dup2\n      jump\n        /* \"@openzeppelin/contracts/access/AccessControl.sol\":5304:5549   */\n    tag_17:\n      callvalue\n      dup1\n      iszero\n      tag_167\n      jumpi\n      0x00\n      dup1\n      revert\n    tag_167:\n      pop\n      tag_109\n      tag_169\n      calldatasize\n      0x04\n      tag_160\n      jump\t// in\n    tag_169:\n      tag_170\n      jump\t// in\n        /* \"PoolFamilyAndFriends.sol\":2382:2413  uint256 public totalUtilityUSDC */\n    tag_18:\n      callvalue\n      dup1\n      iszero\n      tag_171\n      jumpi\n      0x00\n      dup1\n      revert\n    tag_171:\n      pop\n      tag_102\n      sload(0x17)\n      dup2\n      jump\n        /* \"PoolFamilyAndFriends.sol\":1703:1748  mapping(address => bool) public isWhitelisted */\n    tag_19:\n      callvalue\n      dup1\n      iszero\n      tag_175\n      jumpi\n      0x00\n      dup1\n      revert\n    tag_175:\n      pop\n      tag_95\n      tag_177\n      calldatasize\n      0x04\n      tag_104\n      jump\t// in\n    tag_177:\n      mstore(0x20, 0x09)\n      0x00\n      swap1\n      dup2\n      mstore\n      0x40\n      swap1\n      keccak256\n      sload\n      0xff\n      and\n      dup2\n      jump\n        /* \"PoolFamilyAndFriends.sol\":13991:14496  function assignUtilityUSDCBatch(address[] calldata users, uint256[] calldata amounts) external onlyRole(ADMIN_ROLE) {... */\n    tag_20:\n      callvalue\n      dup1\n      iszero\n      tag_180\n      jumpi\n      0x00\n      dup1\n      revert\n    tag_180:\n      pop\n      tag_109\n      tag_182\n      calldatasize\n      0x04\n      tag_183\n      jump\t// in\n    tag_182:\n      tag_184\n      jump\t// in\n        /* \"PoolFamilyAndFriends.sol\":5520:5867  function setWhitelistBatch(address[] calldata users, bool[] calldata statuses) external onlyRole(ADMIN_ROLE) {... */\n    tag_21:\n      callvalue\n      dup1\n      iszero\n      tag_185\n      jumpi\n      0x00\n      dup1\n      revert\n    tag_185:\n      pop\n      tag_109\n      tag_187\n      calldatasize\n      0x04\n      tag_183\n      jump\t// in\n    tag_187:\n      tag_189\n      jump\t// in\n        /* \"PoolFamilyAndFriends.sol\":18201:19349  function getUserStats(address user) external view returns (... */\n    tag_22:\n      callvalue\n      dup1\n      iszero\n      tag_190\n      jumpi\n      0x00\n      dup1\n      revert\n    tag_190:\n      pop\n      tag_191\n      tag_192\n      calldatasize\n      0x04\n      tag_104\n      jump\t// in\n    tag_192:\n      tag_193\n      jump\t// in\n    tag_191:\n      0x40\n      dup1\n      mload\n        /* \"#utility.yul\":7578:7603   */\n      swap9\n      dup10\n      mstore\n        /* \"#utility.yul\":7634:7636   */\n      0x20\n        /* \"#utility.yul\":7619:7637   */\n      dup10\n      add\n        /* \"#utility.yul\":7612:7646   */\n      swap8\n      swap1\n      swap8\n      mstore\n        /* \"#utility.yul\":7662:7680   */\n      swap6\n      dup8\n      add\n        /* \"#utility.yul\":7655:7689   */\n      swap5\n      swap1\n      swap5\n      mstore\n        /* \"#utility.yul\":7720:7722   */\n      0x60\n        /* \"#utility.yul\":7705:7723   */\n      dup7\n      add\n        /* \"#utility.yul\":7698:7732   */\n      swap3\n      swap1\n      swap3\n      mstore\n        /* \"#utility.yul\":7763:7766   */\n      0x80\n        /* \"#utility.yul\":7748:7767   */\n      dup6\n      add\n        /* \"#utility.yul\":7741:7776   */\n      mstore\n        /* \"#utility.yul\":7807:7810   */\n      0xa0\n        /* \"#utility.yul\":7792:7811   */\n      dup5\n      add\n        /* \"#utility.yul\":7785:7820   */\n      mstore\n        /* \"#utility.yul\":7851:7854   */\n      0xc0\n        /* \"#utility.yul\":7836:7855   */\n      dup4\n      add\n        /* \"#utility.yul\":7829:7864   */\n      mstore\n        /* \"#utility.yul\":7895:7898   */\n      0xe0\n        /* \"#utility.yul\":7880:7899   */\n      dup3\n      add\n        /* \"#utility.yul\":7873:7908   */\n      mstore\n        /* \"#utility.yul\":7565:7568   */\n      0x0100\n        /* \"#utility.yul\":7550:7569   */\n      add\n        /* \"PoolFamilyAndFriends.sol\":18201:19349  function getUserStats(address user) external view returns (... */\n      tag_99\n        /* \"#utility.yul\":7235:7914   */\n      jump\n        /* \"PoolFamilyAndFriends.sol\":817:845  bool public whitelistEnabled */\n    tag_23:\n      callvalue\n      dup1\n      iszero\n      tag_196\n      jumpi\n      0x00\n      dup1\n      revert\n    tag_196:\n      pop\n      sload(0x05)\n      tag_95\n      swap1\n      0x010000\n      swap1\n      div\n      0xff\n      and\n      dup2\n      jump\n        /* \"PoolFamilyAndFriends.sol\":5347:5515  function setWhitelist(address user, bool status) external onlyRole(ADMIN_ROLE) {... */\n    tag_24:\n      callvalue\n      dup1\n      iszero\n      tag_200\n      jumpi\n      0x00\n      dup1\n      revert\n    tag_200:\n      pop\n      tag_109\n      tag_202\n      calldatasize\n      0x04\n      tag_203\n      jump\t// in\n    tag_202:\n      tag_204\n      jump\t// in\n        /* \"PoolFamilyAndFriends.sol\":893:934  uint256 public globalLiquidationTimestamp */\n    tag_25:\n      callvalue\n      dup1\n      iszero\n      tag_205\n      jumpi\n      0x00\n      dup1\n      revert\n    tag_205:\n      pop\n      tag_102\n      sload(0x06)\n      dup2\n      jump\n        /* \"PoolFamilyAndFriends.sol\":1754:1798  mapping(address => bool) public hasWithdrawn */\n    tag_26:\n      callvalue\n      dup1\n      iszero\n      tag_209\n      jumpi\n      0x00\n      dup1\n      revert\n    tag_209:\n      pop\n      tag_95\n      tag_211\n      calldatasize\n      0x04\n      tag_104\n      jump\t// in\n    tag_211:\n      mstore(0x20, 0x0a)\n      0x00\n      swap1\n      dup2\n      mstore\n      0x40\n      swap1\n      keccak256\n      sload\n      0xff\n      and\n      dup2\n      jump\n        /* \"PoolFamilyAndFriends.sol\":750:776  bool public pausedDeposits */\n    tag_27:\n      callvalue\n      dup1\n      iszero\n      tag_214\n      jumpi\n      0x00\n      dup1\n      revert\n    tag_214:\n      pop\n      sload(0x05)\n      tag_95\n      swap1\n      0xff\n      and\n      dup2\n      jump\n        /* \"PoolFamilyAndFriends.sol\":12232:12486  function injectUtilityETH() external payable onlyRole(UTILITY_INJECTOR_ROLE) {... */\n    tag_28:\n      tag_109\n      tag_219\n      jump\t// in\n        /* \"PoolFamilyAndFriends.sol\":4997:5219  function setPaused(bool _deposits, bool _withdrawals) external onlyRole(PAUSER_ROLE) {... */\n    tag_29:\n      callvalue\n      dup1\n      iszero\n      tag_220\n      jumpi\n      0x00\n      dup1\n      revert\n    tag_220:\n      pop\n      tag_109\n      tag_222\n      calldatasize\n      0x04\n      tag_223\n      jump\t// in\n    tag_222:\n      tag_224\n      jump\t// in\n        /* \"PoolFamilyAndFriends.sol\":14949:15293  function claimUtilityUSDC() external nonReentrant {... */\n    tag_30:\n      callvalue\n      dup1\n      iszero\n      tag_225\n      jumpi\n      0x00\n      dup1\n      revert\n    tag_225:\n      pop\n      tag_109\n      tag_227\n      jump\t// in\n        /* \"PoolFamilyAndFriends.sol\":12876:13150  function assignUtilityETH(address user, uint256 amount) external onlyRole(ADMIN_ROLE) {... */\n    tag_31:\n      callvalue\n      dup1\n      iszero\n      tag_228\n      jumpi\n      0x00\n      dup1\n      revert\n    tag_228:\n      pop\n      tag_109\n      tag_230\n      calldatasize\n      0x04\n      tag_116\n      jump\t// in\n    tag_230:\n      tag_231\n      jump\t// in\n        /* \"PoolFamilyAndFriends.sol\":8991:11089  function batchWithdraw(uint256[] calldata depositIndices) external nonReentrant whenWithdrawalsNotPaused {... */\n    tag_32:\n      callvalue\n      dup1\n      iszero\n      tag_232\n      jumpi\n      0x00\n      dup1\n      revert\n    tag_232:\n      pop\n      tag_109\n      tag_234\n      calldatasize\n      0x04\n      tag_235\n      jump\t// in\n    tag_234:\n      tag_236\n      jump\t// in\n        /* \"PoolFamilyAndFriends.sol\":977:1037  bytes32 public constant ADMIN_ROLE = keccak256(\"ADMIN_ROLE\") */\n    tag_33:\n      callvalue\n      dup1\n      iszero\n      tag_237\n      jumpi\n      0x00\n      dup1\n      revert\n    tag_237:\n      pop\n      tag_102\n      0x00\n      dup1\n      mload\n      0x20\n      data_cb864c43dd5d441bb6271f424f11befa622c032dfd374d226e26fbbdb782b8f8\n      dup4\n      codecopy\n      dup2\n      mload\n      swap2\n      mstore\n      dup2\n      jump\n        /* \"PoolFamilyAndFriends.sol\":13155:13433  function assignUtilityUSDC(address user, uint256 amount) external onlyRole(ADMIN_ROLE) {... */\n    tag_34:\n      callvalue\n      dup1\n      iszero\n      tag_241\n      jumpi\n      0x00\n      dup1\n      revert\n    tag_241:\n      pop\n      tag_109\n      tag_243\n      calldatasize\n      0x04\n      tag_116\n      jump\t// in\n    tag_243:\n      tag_244\n      jump\t// in\n        /* \"PoolFamilyAndFriends.sol\":16766:17091  function withdrawUtilityUSDC(uint256 amount) external onlyRole(UTILITY_WITHDRAWER_ROLE) nonReentrant {... */\n    tag_35:\n      callvalue\n      dup1\n      iszero\n      tag_245\n      jumpi\n      0x00\n      dup1\n      revert\n    tag_245:\n      pop\n      tag_109\n      tag_247\n      calldatasize\n      0x04\n      tag_136\n      jump\t// in\n    tag_247:\n      tag_248\n      jump\t// in\n        /* \"PoolFamilyAndFriends.sol\":11149:11602  function unlockDepositsForUser(address user, uint256[] calldata depositIndices) external onlyRole(UNLOCKER_ROLE) {... */\n    tag_36:\n      callvalue\n      dup1\n      iszero\n      tag_249\n      jumpi\n      0x00\n      dup1\n      revert\n    tag_249:\n      pop\n      tag_109\n      tag_251\n      calldatasize\n      0x04\n      tag_252\n      jump\t// in\n    tag_251:\n      tag_253\n      jump\t// in\n        /* \"PoolFamilyAndFriends.sol\":1271:1357  bytes32 public constant UTILITY_WITHDRAWER_ROLE = keccak256(\"UTILITY_WITHDRAWER_ROLE\") */\n    tag_37:\n      callvalue\n      dup1\n      iszero\n      tag_254\n      jumpi\n      0x00\n      dup1\n      revert\n    tag_254:\n      pop\n      tag_102\n        /* \"PoolFamilyAndFriends.sol\":1321:1357  keccak256(\"UTILITY_WITHDRAWER_ROLE\") */\n      0x78c90eb9e475048b483a290aee04b5fe48355537c3623c7637b17d3bed71c6ed\n        /* \"PoolFamilyAndFriends.sol\":1271:1357  bytes32 public constant UTILITY_WITHDRAWER_ROLE = keccak256(\"UTILITY_WITHDRAWER_ROLE\") */\n      dup2\n      jump\n        /* \"PoolFamilyAndFriends.sol\":1933:1990  mapping(address => uint256) public userTotalReinvestedETH */\n    tag_38:\n      callvalue\n      dup1\n      iszero\n      tag_258\n      jumpi\n      0x00\n      dup1\n      revert\n    tag_258:\n      pop\n      tag_102\n      tag_260\n      calldatasize\n      0x04\n      tag_104\n      jump\t// in\n    tag_260:\n      mstore(0x20, 0x0d)\n      0x00\n      swap1\n      dup2\n      mstore\n      0x40\n      swap1\n      keccak256\n      sload\n      dup2\n      jump\n        /* \"PoolFamilyAndFriends.sol\":2192:2224  uint256 public totalDepositedETH */\n    tag_39:\n      callvalue\n      dup1\n      iszero\n      tag_263\n      jumpi\n      0x00\n      dup1\n      revert\n    tag_263:\n      pop\n      tag_102\n      sload(0x12)\n      dup2\n      jump\n        /* \"PoolFamilyAndFriends.sol\":495:568  address public constant USDC = 0x833589fCD6eDb6E08f4c7C32D4f71b54bdA02913 */\n    tag_40:\n      callvalue\n      dup1\n      iszero\n      tag_267\n      jumpi\n      0x00\n      dup1\n      revert\n    tag_267:\n      pop\n      tag_268\n        /* \"PoolFamilyAndFriends.sol\":526:568  0x833589fCD6eDb6E08f4c7C32D4f71b54bdA02913 */\n      0x833589fcd6edb6e08f4c7c32d4f71b54bda02913\n        /* \"PoolFamilyAndFriends.sol\":495:568  address public constant USDC = 0x833589fCD6eDb6E08f4c7C32D4f71b54bdA02913 */\n      dup2\n      jump\n    tag_268:\n      mload(0x40)\n      sub(shl(0xa0, 0x01), 0x01)\n        /* \"#utility.yul\":9742:9797   */\n      swap1\n      swap2\n      and\n        /* \"#utility.yul\":9724:9798   */\n      dup2\n      mstore\n        /* \"#utility.yul\":9712:9714   */\n      0x20\n        /* \"#utility.yul\":9697:9715   */\n      add\n        /* \"PoolFamilyAndFriends.sol\":495:568  address public constant USDC = 0x833589fCD6eDb6E08f4c7C32D4f71b54bdA02913 */\n      tag_99\n        /* \"#utility.yul\":9578:9804   */\n      jump\n        /* \"PoolFamilyAndFriends.sol\":5873:6129  function setUtilityAddress(address newUtilityAddress) external onlyRole(ADMIN_ROLE) {... */\n    tag_41:\n      callvalue\n      dup1\n      iszero\n      tag_272\n      jumpi\n      0x00\n      dup1\n      revert\n    tag_272:\n      pop\n      tag_109\n      tag_274\n      calldatasize\n      0x04\n      tag_104\n      jump\t// in\n    tag_274:\n      tag_275\n      jump\t// in\n        /* \"PoolFamilyAndFriends.sol\":2269:2301  uint256 public totalWithdrawnETH */\n    tag_42:\n      callvalue\n      dup1\n      iszero\n      tag_276\n      jumpi\n      0x00\n      dup1\n      revert\n    tag_276:\n      pop\n      tag_102\n      sload(0x14)\n      dup2\n      jump\n        /* \"@openzeppelin/contracts/access/AccessControl.sol\":2830:2966   */\n    tag_43:\n      callvalue\n      dup1\n      iszero\n      tag_280\n      jumpi\n      0x00\n      dup1\n      revert\n    tag_280:\n      pop\n      tag_95\n      tag_282\n      calldatasize\n      0x04\n      tag_160\n      jump\t// in\n    tag_282:\n        /* \"@openzeppelin/contracts/access/AccessControl.sol\":2907:2911   */\n      0x00\n        /* \"@openzeppelin/contracts/access/AccessControl.sol\":2930:2942   */\n      swap2\n      dup3\n      mstore\n      0x20\n      dup3\n      dup2\n      mstore\n      0x40\n      dup1\n      dup5\n      keccak256\n      sub(shl(0xa0, 0x01), 0x01)\n        /* \"@openzeppelin/contracts/access/AccessControl.sol\":2930:2959   */\n      swap4\n      swap1\n      swap4\n      and\n      dup5\n      mstore\n      swap2\n      swap1\n      mstore\n      swap1\n      keccak256\n      sload\n      0xff\n      and\n      swap1\n        /* \"@openzeppelin/contracts/access/AccessControl.sol\":2830:2966   */\n      jump\n        /* \"PoolFamilyAndFriends.sol\":16302:16760  function withdrawUtilityETH(uint256 amount) external onlyRole(UTILITY_WITHDRAWER_ROLE) nonReentrant {... */\n    tag_44:\n      callvalue\n      dup1\n      iszero\n      tag_285\n      jumpi\n      0x00\n      dup1\n      revert\n    tag_285:\n      pop\n      tag_109\n      tag_287\n      calldatasize\n      0x04\n      tag_136\n      jump\t// in\n    tag_287:\n      tag_288\n      jump\t// in\n        /* \"PoolFamilyAndFriends.sol\":2419:2452  uint256 public totalReinvestedETH */\n    tag_45:\n      callvalue\n      dup1\n      iszero\n      tag_289\n      jumpi\n      0x00\n      dup1\n      revert\n    tag_289:\n      pop\n      tag_102\n      sload(0x18)\n      dup2\n      jump\n        /* \"PoolFamilyAndFriends.sol\":652:694  uint256 public maxCapETH = 5_000_000 ether */\n    tag_46:\n      callvalue\n      dup1\n      iszero\n      tag_293\n      jumpi\n      0x00\n      dup1\n      revert\n    tag_293:\n      pop\n      tag_102\n      sload(0x03)\n      dup2\n      jump\n        /* \"PoolFamilyAndFriends.sol\":2092:2123  address[] public withdrawnUsers */\n    tag_47:\n      callvalue\n      dup1\n      iszero\n      tag_297\n      jumpi\n      0x00\n      dup1\n      revert\n    tag_297:\n      pop\n      tag_268\n      tag_299\n      calldatasize\n      0x04\n      tag_136\n      jump\t// in\n    tag_299:\n      tag_300\n      jump\t// in\n        /* \"@openzeppelin/contracts/access/AccessControl.sol\":2196:2245   */\n    tag_48:\n      callvalue\n      dup1\n      iszero\n      tag_302\n      jumpi\n      0x00\n      dup1\n      revert\n    tag_302:\n      pop\n      tag_102\n        /* \"@openzeppelin/contracts/access/AccessControl.sol\":2241:2245   */\n      0x00\n        /* \"@openzeppelin/contracts/access/AccessControl.sol\":2196:2245   */\n      dup2\n      jump\n        /* \"PoolFamilyAndFriends.sol\":2061:2086  address[] public allUsers */\n    tag_49:\n      callvalue\n      dup1\n      iszero\n      tag_306\n      jumpi\n      0x00\n      dup1\n      revert\n    tag_306:\n      pop\n      tag_268\n      tag_308\n      calldatasize\n      0x04\n      tag_136\n      jump\t// in\n    tag_308:\n      tag_309\n      jump\t// in\n        /* \"PoolFamilyAndFriends.sol\":17146:18195  function getVaultStats() external view returns (... */\n    tag_50:\n      callvalue\n      dup1\n      iszero\n      tag_311\n      jumpi\n      0x00\n      dup1\n      revert\n    tag_311:\n      pop\n      tag_312\n      tag_313\n      jump\t// in\n    tag_312:\n      0x40\n      dup1\n      mload\n        /* \"#utility.yul\":10266:10291   */\n      swap13\n      dup14\n      mstore\n        /* \"#utility.yul\":10322:10324   */\n      0x20\n        /* \"#utility.yul\":10307:10325   */\n      dup14\n      add\n        /* \"#utility.yul\":10300:10334   */\n      swap12\n      swap1\n      swap12\n      mstore\n        /* \"#utility.yul\":10350:10368   */\n      swap10\n      dup12\n      add\n        /* \"#utility.yul\":10343:10377   */\n      swap9\n      swap1\n      swap9\n      mstore\n        /* \"#utility.yul\":10408:10410   */\n      0x60\n        /* \"#utility.yul\":10393:10411   */\n      dup11\n      add\n        /* \"#utility.yul\":10386:10420   */\n      swap7\n      swap1\n      swap7\n      mstore\n        /* \"#utility.yul\":10451:10454   */\n      0x80\n        /* \"#utility.yul\":10436:10455   */\n      dup10\n      add\n        /* \"#utility.yul\":10429:10464   */\n      swap5\n      swap1\n      swap5\n      mstore\n        /* \"#utility.yul\":10495:10498   */\n      0xa0\n        /* \"#utility.yul\":10480:10499   */\n      dup9\n      add\n        /* \"#utility.yul\":10473:10508   */\n      swap3\n      swap1\n      swap3\n      mstore\n        /* \"#utility.yul\":10539:10542   */\n      0xc0\n        /* \"#utility.yul\":10524:10543   */\n      dup8\n      add\n        /* \"#utility.yul\":10517:10552   */\n      mstore\n        /* \"#utility.yul\":10583:10586   */\n      0xe0\n        /* \"#utility.yul\":10568:10587   */\n      dup7\n      add\n        /* \"#utility.yul\":10561:10596   */\n      mstore\n        /* \"#utility.yul\":10627:10630   */\n      0x0100\n        /* \"#utility.yul\":10612:10631   */\n      dup6\n      add\n        /* \"#utility.yul\":10605:10640   */\n      mstore\n        /* \"#utility.yul\":10671:10674   */\n      0x0120\n        /* \"#utility.yul\":10656:10675   */\n      dup5\n      add\n        /* \"#utility.yul\":10649:10684   */\n      mstore\n        /* \"#utility.yul\":10715:10718   */\n      0x0140\n        /* \"#utility.yul\":10700:10719   */\n      dup4\n      add\n        /* \"#utility.yul\":10693:10729   */\n      mstore\n        /* \"#utility.yul\":10760:10763   */\n      0x0160\n        /* \"#utility.yul\":10745:10764   */\n      dup3\n      add\n        /* \"#utility.yul\":10738:10774   */\n      mstore\n        /* \"#utility.yul\":10253:10256   */\n      0x0180\n        /* \"#utility.yul\":10238:10257   */\n      add\n        /* \"PoolFamilyAndFriends.sol\":17146:18195  function getVaultStats() external view returns (... */\n      tag_99\n        /* \"#utility.yul\":9809:10780   */\n      jump\n        /* \"PoolFamilyAndFriends.sol\":19530:19772  function rescueERC20(address token, address to, uint256 amount) external onlyRole(ADMIN_ROLE) {... */\n    tag_51:\n      callvalue\n      dup1\n      iszero\n      tag_316\n      jumpi\n      0x00\n      dup1\n      revert\n    tag_316:\n      pop\n      tag_109\n      tag_318\n      calldatasize\n      0x04\n      tag_319\n      jump\t// in\n    tag_318:\n      tag_320\n      jump\t// in\n        /* \"PoolFamilyAndFriends.sol\":782:811  bool public pausedWithdrawals */\n    tag_52:\n      callvalue\n      dup1\n      iszero\n      tag_321\n      jumpi\n      0x00\n      dup1\n      revert\n    tag_321:\n      pop\n      sload(0x05)\n      tag_95\n      swap1\n      0x0100\n      swap1\n      div\n      0xff\n      and\n      dup2\n      jump\n        /* \"PoolFamilyAndFriends.sol\":2346:2376  uint256 public totalUtilityETH */\n    tag_53:\n      callvalue\n      dup1\n      iszero\n      tag_325\n      jumpi\n      0x00\n      dup1\n      revert\n    tag_325:\n      pop\n      tag_102\n      sload(0x16)\n      dup2\n      jump\n        /* \"PoolFamilyAndFriends.sol\":13485:13986  function assignUtilityETHBatch(address[] calldata users, uint256[] calldata amounts) external onlyRole(ADMIN_ROLE) {... */\n    tag_54:\n      callvalue\n      dup1\n      iszero\n      tag_329\n      jumpi\n      0x00\n      dup1\n      revert\n    tag_329:\n      pop\n      tag_109\n      tag_331\n      calldatasize\n      0x04\n      tag_183\n      jump\t// in\n    tag_331:\n      tag_332\n      jump\t// in\n        /* \"PoolFamilyAndFriends.sol\":15792:16246  function reinvestUtilityUSDC() external nonReentrant {... */\n    tag_55:\n      callvalue\n      dup1\n      iszero\n      tag_333\n      jumpi\n      0x00\n      dup1\n      revert\n    tag_333:\n      pop\n      tag_109\n      tag_335\n      jump\t// in\n        /* \"PoolFamilyAndFriends.sol\":4574:4734  function setLockupPeriod(uint256 newPeriod) external onlyRole(ADMIN_ROLE) {... */\n    tag_56:\n      callvalue\n      dup1\n      iszero\n      tag_336\n      jumpi\n      0x00\n      dup1\n      revert\n    tag_336:\n      pop\n      tag_109\n      tag_338\n      calldatasize\n      0x04\n      tag_136\n      jump\t// in\n    tag_338:\n      tag_339\n      jump\t// in\n        /* \"@openzeppelin/contracts/access/AccessControl.sol\":4618:4756   */\n    tag_57:\n      callvalue\n      dup1\n      iszero\n      tag_340\n      jumpi\n      0x00\n      dup1\n      revert\n    tag_340:\n      pop\n      tag_109\n      tag_342\n      calldatasize\n      0x04\n      tag_160\n      jump\t// in\n    tag_342:\n      tag_343\n      jump\t// in\n        /* \"PoolFamilyAndFriends.sol\":12492:12817  function injectUtilityUSDC(uint256 amount) external onlyRole(UTILITY_INJECTOR_ROLE) {... */\n    tag_58:\n      callvalue\n      dup1\n      iszero\n      tag_344\n      jumpi\n      0x00\n      dup1\n      revert\n    tag_344:\n      pop\n      tag_109\n      tag_346\n      calldatasize\n      0x04\n      tag_136\n      jump\t// in\n    tag_346:\n      tag_347\n      jump\t// in\n        /* \"PoolFamilyAndFriends.sol\":11608:12180  function enableGlobalLiquidation() external onlyRole(ADMIN_ROLE) {... */\n    tag_59:\n      callvalue\n      dup1\n      iszero\n      tag_348\n      jumpi\n      0x00\n      dup1\n      revert\n    tag_348:\n      pop\n      tag_109\n      tag_350\n      jump\t// in\n        /* \"PoolFamilyAndFriends.sol\":2129:2159  address[] public allDepositors */\n    tag_60:\n      callvalue\n      dup1\n      iszero\n      tag_351\n      jumpi\n      0x00\n      dup1\n      revert\n    tag_351:\n      pop\n      tag_268\n      tag_353\n      calldatasize\n      0x04\n      tag_136\n      jump\t// in\n    tag_353:\n      tag_354\n      jump\t// in\n        /* \"PoolFamilyAndFriends.sol\":1111:1177  bytes32 public constant UNLOCKER_ROLE = keccak256(\"UNLOCKER_ROLE\") */\n    tag_61:\n      callvalue\n      dup1\n      iszero\n      tag_356\n      jumpi\n      0x00\n      dup1\n      revert\n    tag_356:\n      pop\n      tag_102\n        /* \"PoolFamilyAndFriends.sol\":1151:1177  keccak256(\"UNLOCKER_ROLE\") */\n      0xc806897caf4fd5068191157e44d3988e43139a37e0b97b6793e1ed1184140604\n        /* \"PoolFamilyAndFriends.sol\":1111:1177  bytes32 public constant UNLOCKER_ROLE = keccak256(\"UNLOCKER_ROLE\") */\n      dup2\n      jump\n        /* \"PoolFamilyAndFriends.sol\":2458:2492  uint256 public totalReinvestedUSDC */\n    tag_62:\n      callvalue\n      dup1\n      iszero\n      tag_360\n      jumpi\n      0x00\n      dup1\n      revert\n    tag_360:\n      pop\n      tag_102\n      sload(0x19)\n      dup2\n      jump\n        /* \"PoolFamilyAndFriends.sol\":2307:2340  uint256 public totalWithdrawnUSDC */\n    tag_63:\n      callvalue\n      dup1\n      iszero\n      tag_364\n      jumpi\n      0x00\n      dup1\n      revert\n    tag_364:\n      pop\n      tag_102\n      sload(0x15)\n      dup2\n      jump\n        /* \"PoolFamilyAndFriends.sol\":14542:14943  function claimUtilityETH() external nonReentrant {... */\n    tag_64:\n      callvalue\n      dup1\n      iszero\n      tag_368\n      jumpi\n      0x00\n      dup1\n      revert\n    tag_368:\n      pop\n      tag_109\n      tag_370\n      jump\t// in\n        /* \"PoolFamilyAndFriends.sol\":1043:1105  bytes32 public constant PAUSER_ROLE = keccak256(\"PAUSER_ROLE\") */\n    tag_65:\n      callvalue\n      dup1\n      iszero\n      tag_371\n      jumpi\n      0x00\n      dup1\n      revert\n    tag_371:\n      pop\n      tag_102\n        /* \"PoolFamilyAndFriends.sol\":1081:1105  keccak256(\"PAUSER_ROLE\") */\n      0x65d7a28e3265b37a6474929f336521b332c1681b933f6cb9f3376673440d862a\n        /* \"PoolFamilyAndFriends.sol\":1043:1105  bytes32 public constant PAUSER_ROLE = keccak256(\"PAUSER_ROLE\") */\n      dup2\n      jump\n        /* \"PoolFamilyAndFriends.sol\":1868:1927  mapping(address => uint256) public userClaimableUtilityUSDC */\n    tag_66:\n      callvalue\n      dup1\n      iszero\n      tag_375\n      jumpi\n      0x00\n      dup1\n      revert\n    tag_375:\n      pop\n      tag_102\n      tag_377\n      calldatasize\n      0x04\n      tag_104\n      jump\t// in\n    tag_377:\n      mstore(0x20, 0x0c)\n      0x00\n      swap1\n      dup2\n      mstore\n      0x40\n      swap1\n      keccak256\n      sload\n      dup2\n      jump\n        /* \"PoolFamilyAndFriends.sol\":608:646  uint256 public lockupPeriod = 180 days */\n    tag_67:\n      callvalue\n      dup1\n      iszero\n      tag_380\n      jumpi\n      0x00\n      dup1\n      revert\n    tag_380:\n      pop\n      tag_102\n      sload(0x02)\n      dup2\n      jump\n        /* \"PoolFamilyAndFriends.sol\":941:970  address public utilityAddress */\n    tag_68:\n      callvalue\n      dup1\n      iszero\n      tag_384\n      jumpi\n      0x00\n      dup1\n      revert\n    tag_384:\n      pop\n      sload(0x07)\n      tag_268\n      swap1\n      sub(shl(0xa0, 0x01), 0x01)\n      and\n      dup2\n      jump\n        /* \"PoolFamilyAndFriends.sol\":4740:4991  function setMaxCap(TokenType token, uint256 newCap) external onlyRole(ADMIN_ROLE) {... */\n    tag_69:\n      callvalue\n      dup1\n      iszero\n      tag_388\n      jumpi\n      0x00\n      dup1\n      revert\n    tag_388:\n      pop\n      tag_109\n      tag_390\n      calldatasize\n      0x04\n      tag_391\n      jump\t// in\n    tag_390:\n      tag_392\n      jump\t// in\n        /* \"PoolFamilyAndFriends.sol\":6162:6562  function depositETH() external payable nonReentrant whenDepositsNotPaused {... */\n    tag_70:\n      tag_109\n      tag_394\n      jump\t// in\n        /* \"PoolFamilyAndFriends.sol\":6568:7038  function depositUSDC(uint256 amount) external nonReentrant whenDepositsNotPaused {... */\n    tag_71:\n      callvalue\n      dup1\n      iszero\n      tag_395\n      jumpi\n      0x00\n      dup1\n      revert\n    tag_395:\n      pop\n      tag_109\n      tag_397\n      calldatasize\n      0x04\n      tag_136\n      jump\t// in\n    tag_397:\n      tag_398\n      jump\t// in\n        /* \"@openzeppelin/contracts/access/AccessControl.sol\":2541:2743   */\n    tag_98:\n        /* \"@openzeppelin/contracts/access/AccessControl.sol\":2626:2630   */\n      0x00\n      not(sub(shl(0xe0, 0x01), 0x01))\n        /* \"@openzeppelin/contracts/access/AccessControl.sol\":2649:2696   */\n      dup3\n      and\n      shl(0xe0, 0x7965db0b)\n      eq\n      dup1\n        /* \"@openzeppelin/contracts/access/AccessControl.sol\":2649:2736   */\n      tag_401\n      jumpi\n      pop\n      shl(0xe0, 0x01ffc9a7)\n      not(sub(shl(0xe0, 0x01), 0x01))\n        /* \"@openzeppelin/contracts/utils/introspection/ERC165.sol\":829:869   */\n      dup4\n      and\n      eq\n        /* \"@openzeppelin/contracts/access/AccessControl.sol\":2700:2736   */\n    tag_401:\n        /* \"@openzeppelin/contracts/access/AccessControl.sol\":2642:2736   */\n      swap3\n        /* \"@openzeppelin/contracts/access/AccessControl.sol\":2541:2743   */\n      swap2\n      pop\n      pop\n      jump\t// out\n        /* \"PoolFamilyAndFriends.sol\":5225:5341  function setWhitelistEnabled(bool enabled) external onlyRole(ADMIN_ROLE) {... */\n    tag_112:\n      0x00\n      dup1\n      mload\n      0x20\n      data_cb864c43dd5d441bb6271f424f11befa622c032dfd374d226e26fbbdb782b8f8\n      dup4\n      codecopy\n      dup2\n      mload\n      swap2\n      mstore\n        /* \"@openzeppelin/contracts/access/AccessControl.sol\":2473:2489   */\n      tag_404\n        /* \"@openzeppelin/contracts/access/AccessControl.sol\":2484:2488   */\n      dup2\n        /* \"@openzeppelin/contracts/access/AccessControl.sol\":2473:2483   */\n      tag_405\n        /* \"@openzeppelin/contracts/access/AccessControl.sol\":2473:2489   */\n      jump\t// in\n    tag_404:\n      pop\n        /* \"PoolFamilyAndFriends.sol\":5308:5324  whitelistEnabled */\n      0x05\n        /* \"PoolFamilyAndFriends.sol\":5308:5334  whitelistEnabled = enabled */\n      dup1\n      sload\n      swap2\n      iszero\n      iszero\n      0x010000\n      mul\n      not(0xff0000)\n      swap1\n      swap3\n      and\n      swap2\n      swap1\n      swap2\n      or\n      swap1\n      sstore\n        /* \"PoolFamilyAndFriends.sol\":5225:5341  function setWhitelistEnabled(bool enabled) external onlyRole(ADMIN_ROLE) {... */\n      jump\t// out\n        /* \"PoolFamilyAndFriends.sol\":1644:1697  mapping(address => DepositInfo[]) public userDeposits */\n    tag_117:\n      mstore(0x20, 0x08)\n      dup2\n      0x00\n      mstore\n      keccak256(0x00, 0x40)\n      dup2\n      dup2\n      sload\n      dup2\n      lt\n      tag_407\n      jumpi\n      0x00\n      dup1\n      revert\n    tag_407:\n      0x00\n      swap2\n      dup3\n      mstore\n      0x20\n      swap1\n      swap2\n      keccak256\n      0x06\n      swap1\n      swap2\n      mul\n      add\n      dup1\n      sload\n      0x01\n      dup3\n      add\n      sload\n      0x02\n      dup4\n      add\n      sload\n      0x03\n      dup5\n      add\n      sload\n      0x04\n      dup6\n      add\n      sload\n      0x05\n      swap1\n      swap6\n      add\n      sload\n      0xff\n      swap5\n      dup6\n      and\n      swap8\n      pop\n      swap3\n      swap6\n      pop\n      swap1\n      swap4\n      dup2\n      dup5\n      and\n      swap4\n      0x0100\n      dup4\n      div\n      dup2\n      and\n      swap4\n      0x010000\n      dup5\n      div\n      dup3\n      and\n      swap4\n      0x01000000\n      swap1\n      div\n      swap1\n      swap2\n      and\n      swap2\n      swap1\n      dup10\n      jump\t// out\n        /* \"PoolFamilyAndFriends.sol\":15339:15786  function reinvestUtilityETH() external nonReentrant {... */\n    tag_145:\n        /* \"@openzeppelin/contracts/utils/ReentrancyGuard.sol\":2500:2521   */\n      tag_411\n        /* \"@openzeppelin/contracts/utils/ReentrancyGuard.sol\":2500:2519   */\n      tag_412\n        /* \"@openzeppelin/contracts/utils/ReentrancyGuard.sol\":2500:2521   */\n      jump\t// in\n    tag_411:\n        /* \"PoolFamilyAndFriends.sol\":15442:15452  msg.sender */\n      caller\n        /* \"PoolFamilyAndFriends.sol\":15401:15415  uint256 amount */\n      0x00\n        /* \"PoolFamilyAndFriends.sol\":15418:15453  userClaimableUtilityETH[msg.sender] */\n      swap1\n      dup2\n      mstore\n        /* \"PoolFamilyAndFriends.sol\":15418:15441  userClaimableUtilityETH */\n      0x0b\n        /* \"PoolFamilyAndFriends.sol\":15418:15453  userClaimableUtilityETH[msg.sender] */\n      0x20\n      mstore\n      0x40\n      swap1\n      keccak256\n      sload\n        /* \"PoolFamilyAndFriends.sol\":15471:15481  amount > 0 */\n      dup1\n        /* \"PoolFamilyAndFriends.sol\":15463:15496  require(amount > 0, \"No utility\") */\n      tag_414\n      jumpi\n      mload(0x40)\n      shl(0xe5, 0x461bcd)\n      dup2\n      mstore\n        /* \"#utility.yul\":11663:11665   */\n      0x20\n        /* \"PoolFamilyAndFriends.sol\":15463:15496  require(amount > 0, \"No utility\") */\n      0x04\n      dup3\n      add\n        /* \"#utility.yul\":11645:11666   */\n      mstore\n        /* \"#utility.yul\":11702:11704   */\n      0x0a\n        /* \"#utility.yul\":11682:11700   */\n      0x24\n      dup3\n      add\n        /* \"#utility.yul\":11675:11705   */\n      mstore\n      shl(0xb0, 0x4e6f207574696c697479)\n        /* \"#utility.yul\":11721:11739   */\n      0x44\n      dup3\n      add\n        /* \"#utility.yul\":11714:11754   */\n      mstore\n        /* \"#utility.yul\":11771:11789   */\n      0x64\n      add\n        /* \"PoolFamilyAndFriends.sol\":15463:15496  require(amount > 0, \"No utility\") */\n    tag_415:\n      mload(0x40)\n      dup1\n      swap2\n      sub\n      swap1\n      revert\n    tag_414:\n        /* \"PoolFamilyAndFriends.sol\":15530:15540  msg.sender */\n      caller\n        /* \"PoolFamilyAndFriends.sol\":15544:15545  0 */\n      0x00\n        /* \"PoolFamilyAndFriends.sol\":15506:15541  userClaimableUtilityETH[msg.sender] */\n      dup2\n      dup2\n      mstore\n        /* \"PoolFamilyAndFriends.sol\":15506:15529  userClaimableUtilityETH */\n      0x0b\n        /* \"PoolFamilyAndFriends.sol\":15506:15541  userClaimableUtilityETH[msg.sender] */\n      0x20\n      mstore\n      0x40\n      dup2\n      keccak256\n        /* \"PoolFamilyAndFriends.sol\":15506:15545  userClaimableUtilityETH[msg.sender] = 0 */\n      dup2\n      swap1\n      sstore\n        /* \"PoolFamilyAndFriends.sol\":15555:15612  _registerDeposit(msg.sender, TokenType.ETH, amount, true) */\n      tag_417\n      swap2\n        /* \"PoolFamilyAndFriends.sol\":15530:15540  msg.sender */\n      swap1\n        /* \"PoolFamilyAndFriends.sol\":15599:15605  amount */\n      dup4\n        /* \"PoolFamilyAndFriends.sol\":15607:15611  true */\n      0x01\n        /* \"PoolFamilyAndFriends.sol\":15555:15571  _registerDeposit */\n      tag_418\n        /* \"PoolFamilyAndFriends.sol\":15555:15612  _registerDeposit(msg.sender, TokenType.ETH, amount, true) */\n      jump\t// in\n    tag_417:\n        /* \"PoolFamilyAndFriends.sol\":15644:15650  amount */\n      dup1\n        /* \"PoolFamilyAndFriends.sol\":15622:15640  totalReinvestedETH */\n      0x18\n      0x00\n        /* \"PoolFamilyAndFriends.sol\":15622:15650  totalReinvestedETH += amount */\n      dup3\n      dup3\n      sload\n      tag_419\n      swap2\n      swap1\n      tag_420\n      jump\t// in\n    tag_419:\n      swap1\n      swap2\n      sstore\n      pop\n      pop\n        /* \"PoolFamilyAndFriends.sol\":15683:15693  msg.sender */\n      caller\n        /* \"PoolFamilyAndFriends.sol\":15660:15694  userTotalReinvestedETH[msg.sender] */\n      0x00\n      swap1\n      dup2\n      mstore\n        /* \"PoolFamilyAndFriends.sol\":15660:15682  userTotalReinvestedETH */\n      0x0d\n        /* \"PoolFamilyAndFriends.sol\":15660:15694  userTotalReinvestedETH[msg.sender] */\n      0x20\n      mstore\n      0x40\n      dup2\n      keccak256\n        /* \"PoolFamilyAndFriends.sol\":15660:15704  userTotalReinvestedETH[msg.sender] += amount */\n      dup1\n      sload\n        /* \"PoolFamilyAndFriends.sol\":15698:15704  amount */\n      dup4\n      swap3\n        /* \"PoolFamilyAndFriends.sol\":15660:15694  userTotalReinvestedETH[msg.sender] */\n      swap1\n        /* \"PoolFamilyAndFriends.sol\":15660:15704  userTotalReinvestedETH[msg.sender] += amount */\n      tag_421\n      swap1\n        /* \"PoolFamilyAndFriends.sol\":15698:15704  amount */\n      dup5\n      swap1\n        /* \"PoolFamilyAndFriends.sol\":15660:15704  userTotalReinvestedETH[msg.sender] += amount */\n      tag_420\n      jump\t// in\n    tag_421:\n      swap1\n      swap2\n      sstore\n      pop\n      pop\n        /* \"PoolFamilyAndFriends.sol\":15719:15779  Reinvest(msg.sender, TokenType.ETH, amount, block.timestamp) */\n      mload(0x40)\n        /* \"PoolFamilyAndFriends.sol\":15728:15738  msg.sender */\n      caller\n      swap1\n        /* \"PoolFamilyAndFriends.sol\":15719:15779  Reinvest(msg.sender, TokenType.ETH, amount, block.timestamp) */\n      0x997d2ec09b086de73d509bbc4ad2b52fd7e2338024464bede93a41abd6ccdc38\n      swap1\n      tag_422\n      swap1\n        /* \"PoolFamilyAndFriends.sol\":15740:15753  TokenType.ETH */\n      0x00\n      swap1\n        /* \"PoolFamilyAndFriends.sol\":15755:15761  amount */\n      dup6\n      swap1\n        /* \"PoolFamilyAndFriends.sol\":15763:15778  block.timestamp */\n      timestamp\n      swap1\n        /* \"PoolFamilyAndFriends.sol\":15719:15779  Reinvest(msg.sender, TokenType.ETH, amount, block.timestamp) */\n      tag_423\n      jump\t// in\n    tag_422:\n      mload(0x40)\n      dup1\n      swap2\n      sub\n      swap1\n      log2\n        /* \"PoolFamilyAndFriends.sol\":15391:15786  {... */\n      pop\n        /* \"@openzeppelin/contracts/utils/ReentrancyGuard.sol\":2542:2562   */\n      tag_424\n        /* \"@openzeppelin/contracts/utils/ReentrancyGuard.sol\":1857:1858   */\n      0x01\n        /* \"@openzeppelin/contracts/utils/ReentrancyGuard.sol\":3068:3089   */\n      dup1\n      sstore\n        /* \"@openzeppelin/contracts/utils/ReentrancyGuard.sol\":2888:3096   */\n      jump\n        /* \"@openzeppelin/contracts/utils/ReentrancyGuard.sol\":2542:2562   */\n    tag_424:\n        /* \"PoolFamilyAndFriends.sol\":15339:15786  function reinvestUtilityETH() external nonReentrant {... */\n      jump\t// out\n        /* \"PoolFamilyAndFriends.sol\":19355:19481  function getUserDeposits(address user) external view returns (DepositInfo[] memory) {... */\n    tag_149:\n      sub(shl(0xa0, 0x01), 0x01)\n        /* \"PoolFamilyAndFriends.sol\":19456:19474  userDeposits[user] */\n      dup2\n      and\n      0x00\n      swap1\n      dup2\n      mstore\n        /* \"PoolFamilyAndFriends.sol\":19456:19468  userDeposits */\n      0x08\n        /* \"PoolFamilyAndFriends.sol\":19456:19474  userDeposits[user] */\n      0x20\n      swap1\n      dup2\n      mstore\n      0x40\n      dup1\n      dup4\n      keccak256\n        /* \"PoolFamilyAndFriends.sol\":19449:19474  return userDeposits[user] */\n      dup1\n      sload\n      dup3\n      mload\n      dup2\n      dup6\n      mul\n      dup2\n      add\n      dup6\n      add\n      swap1\n      swap4\n      mstore\n      dup1\n      dup4\n      mstore\n        /* \"PoolFamilyAndFriends.sol\":19417:19437  DepositInfo[] memory */\n      0x60\n      swap5\n        /* \"PoolFamilyAndFriends.sol\":19449:19474  return userDeposits[user] */\n      swap3\n      swap4\n        /* \"PoolFamilyAndFriends.sol\":19456:19474  userDeposits[user] */\n      swap2\n      swap3\n        /* \"PoolFamilyAndFriends.sol\":19449:19474  return userDeposits[user] */\n      swap1\n      swap2\n      dup5\n      add\n    tag_427:\n      dup3\n      dup3\n      lt\n      iszero\n      tag_428\n      jumpi\n      0x00\n      dup5\n      dup2\n      mstore\n      0x20\n      swap1\n      keccak256\n      0x40\n      dup1\n      mload\n      0x0120\n      dup2\n      add\n      swap1\n      swap2\n      mstore\n      0x06\n      dup5\n      mul\n      swap1\n      swap2\n      add\n      dup1\n      sload\n      dup3\n      swap1\n      0xff\n      and\n      0x01\n      dup2\n      gt\n      iszero\n      tag_431\n      jumpi\n      tag_431\n      tag_432\n      jump\t// in\n    tag_431:\n      0x01\n      dup2\n      gt\n      iszero\n      tag_434\n      jumpi\n      tag_434\n      tag_432\n      jump\t// in\n    tag_434:\n      dup2\n      mstore\n      0x01\n      dup3\n      dup2\n      add\n      sload\n      0x20\n      dup1\n      dup5\n      add\n      swap2\n      swap1\n      swap2\n      mstore\n      0x02\n      dup5\n      add\n      sload\n      0x40\n      dup5\n      add\n      mstore\n      0x03\n      dup5\n      add\n      sload\n      0xff\n      dup1\n      dup3\n      and\n      iszero\n      iszero\n      0x60\n      dup7\n      add\n      mstore\n      0x0100\n      dup1\n      dup4\n      div\n      dup3\n      and\n      iszero\n      iszero\n      0x80\n      dup8\n      add\n      mstore\n      0x010000\n      dup4\n      div\n      dup3\n      and\n      iszero\n      iszero\n      0xa0\n      dup8\n      add\n      mstore\n      0x01000000\n      swap1\n      swap3\n      div\n      and\n      iszero\n      iszero\n      0xc0\n      dup6\n      add\n      mstore\n      0x04\n      dup6\n      add\n      sload\n      0xe0\n      dup6\n      add\n      mstore\n      0x05\n      swap1\n      swap5\n      add\n      sload\n      swap4\n      swap1\n      swap3\n      add\n      swap3\n      swap1\n      swap3\n      mstore\n      swap2\n      dup4\n      mstore\n      swap3\n      swap1\n      swap3\n      add\n      swap2\n      add\n      jump(tag_427)\n    tag_428:\n      pop\n      pop\n      pop\n      pop\n      swap1\n      pop\n        /* \"PoolFamilyAndFriends.sol\":19355:19481  function getUserDeposits(address user) external view returns (DepositInfo[] memory) {... */\n      swap2\n      swap1\n      pop\n      jump\t// out\n        /* \"PoolFamilyAndFriends.sol\":7769:8954  function withdraw(uint256 depositIndex) external nonReentrant whenWithdrawalsNotPaused {... */\n    tag_156:\n        /* \"@openzeppelin/contracts/utils/ReentrancyGuard.sol\":2500:2521   */\n      tag_436\n        /* \"@openzeppelin/contracts/utils/ReentrancyGuard.sol\":2500:2519   */\n      tag_412\n        /* \"@openzeppelin/contracts/utils/ReentrancyGuard.sol\":2500:2521   */\n      jump\t// in\n    tag_436:\n        /* \"PoolFamilyAndFriends.sol\":3910:3927  pausedWithdrawals */\n      sload(0x05)\n      0x0100\n      swap1\n      div\n      0xff\n      and\n        /* \"PoolFamilyAndFriends.sol\":3909:3927  !pausedWithdrawals */\n      iszero\n        /* \"PoolFamilyAndFriends.sol\":3901:3950  require(!pausedWithdrawals, \"Withdrawals paused\") */\n      tag_438\n      jumpi\n      mload(0x40)\n      shl(0xe5, 0x461bcd)\n      dup2\n      mstore\n        /* \"#utility.yul\":12619:12621   */\n      0x20\n        /* \"PoolFamilyAndFriends.sol\":3901:3950  require(!pausedWithdrawals, \"Withdrawals paused\") */\n      0x04\n      dup3\n      add\n        /* \"#utility.yul\":12601:12622   */\n      mstore\n        /* \"#utility.yul\":12658:12660   */\n      0x12\n        /* \"#utility.yul\":12638:12656   */\n      0x24\n      dup3\n      add\n        /* \"#utility.yul\":12631:12661   */\n      mstore\n        /* \"#utility.yul\":12697:12717   */\n      0x5769746864726177616c73207061757365640000000000000000000000000000\n        /* \"#utility.yul\":12677:12695   */\n      0x44\n      dup3\n      add\n        /* \"#utility.yul\":12670:12718   */\n      mstore\n        /* \"#utility.yul\":12735:12753   */\n      0x64\n      add\n        /* \"PoolFamilyAndFriends.sol\":3901:3950  require(!pausedWithdrawals, \"Withdrawals paused\") */\n      tag_415\n        /* \"#utility.yul\":12417:12759   */\n      jump\n        /* \"PoolFamilyAndFriends.sol\":3901:3950  require(!pausedWithdrawals, \"Withdrawals paused\") */\n    tag_438:\n        /* \"PoolFamilyAndFriends.sol\":7905:7915  msg.sender */\n      caller\n        /* \"PoolFamilyAndFriends.sol\":7866:7889  DepositInfo storage dep */\n      0x00\n        /* \"PoolFamilyAndFriends.sol\":7892:7916  userDeposits[msg.sender] */\n      swap1\n      dup2\n      mstore\n        /* \"PoolFamilyAndFriends.sol\":7892:7904  userDeposits */\n      0x08\n        /* \"PoolFamilyAndFriends.sol\":7892:7916  userDeposits[msg.sender] */\n      0x20\n      mstore\n      0x40\n      dup2\n      keccak256\n        /* \"PoolFamilyAndFriends.sol\":7892:7930  userDeposits[msg.sender][depositIndex] */\n      dup1\n      sload\n        /* \"PoolFamilyAndFriends.sol\":7917:7929  depositIndex */\n      dup4\n      swap1\n        /* \"PoolFamilyAndFriends.sol\":7892:7930  userDeposits[msg.sender][depositIndex] */\n      dup2\n      lt\n      tag_443\n      jumpi\n      tag_443\n      tag_444\n      jump\t// in\n    tag_443:\n      0x00\n      swap2\n      dup3\n      mstore\n      0x20\n      swap1\n      swap2\n      keccak256\n      0x06\n      swap1\n      swap2\n      mul\n      add\n        /* \"PoolFamilyAndFriends.sol\":7949:7962  dep.withdrawn */\n      0x03\n      dup2\n      add\n      sload\n        /* \"PoolFamilyAndFriends.sol\":7892:7930  userDeposits[msg.sender][depositIndex] */\n      swap1\n      swap2\n      pop\n        /* \"PoolFamilyAndFriends.sol\":7949:7962  dep.withdrawn */\n      0xff\n      and\n        /* \"PoolFamilyAndFriends.sol\":7948:7962  !dep.withdrawn */\n      iszero\n        /* \"PoolFamilyAndFriends.sol\":7940:7984  require(!dep.withdrawn, \"Already withdrawn\") */\n      tag_446\n      jumpi\n      mload(0x40)\n      shl(0xe5, 0x461bcd)\n      dup2\n      mstore\n        /* \"#utility.yul\":13098:13100   */\n      0x20\n        /* \"PoolFamilyAndFriends.sol\":7940:7984  require(!dep.withdrawn, \"Already withdrawn\") */\n      0x04\n      dup3\n      add\n        /* \"#utility.yul\":13080:13101   */\n      mstore\n        /* \"#utility.yul\":13137:13139   */\n      0x11\n        /* \"#utility.yul\":13117:13135   */\n      0x24\n      dup3\n      add\n        /* \"#utility.yul\":13110:13140   */\n      mstore\n        /* \"#utility.yul\":13176:13195   */\n      0x416c72656164792077697468647261776e000000000000000000000000000000\n        /* \"#utility.yul\":13156:13174   */\n      0x44\n      dup3\n      add\n        /* \"#utility.yul\":13149:13196   */\n      mstore\n        /* \"#utility.yul\":13213:13231   */\n      0x64\n      add\n        /* \"PoolFamilyAndFriends.sol\":7940:7984  require(!dep.withdrawn, \"Already withdrawn\") */\n      tag_415\n        /* \"#utility.yul\":12896:13237   */\n      jump\n        /* \"PoolFamilyAndFriends.sol\":7940:7984  require(!dep.withdrawn, \"Already withdrawn\") */\n    tag_446:\n        /* \"PoolFamilyAndFriends.sol\":8050:8062  lockupPeriod */\n      sload(0x02)\n        /* \"PoolFamilyAndFriends.sol\":8034:8037  dep */\n      dup2\n        /* \"PoolFamilyAndFriends.sol\":8034:8047  dep.timestamp */\n      0x02\n      add\n      sload\n        /* \"PoolFamilyAndFriends.sol\":8034:8062  dep.timestamp + lockupPeriod */\n      tag_449\n      swap2\n      swap1\n      tag_420\n      jump\t// in\n    tag_449:\n        /* \"PoolFamilyAndFriends.sol\":8015:8030  block.timestamp */\n      timestamp\n        /* \"PoolFamilyAndFriends.sol\":8015:8062  block.timestamp >= dep.timestamp + lockupPeriod */\n      lt\n      iszero\n        /* \"PoolFamilyAndFriends.sol\":8015:8097  block.timestamp >= dep.timestamp + lockupPeriod ||... */\n      dup1\n      tag_450\n      jumpi\n      pop\n        /* \"PoolFamilyAndFriends.sol\":8078:8097  dep.unlockedByAdmin */\n      0x03\n      dup2\n      add\n      sload\n      0x0100\n      swap1\n      div\n      0xff\n      and\n        /* \"PoolFamilyAndFriends.sol\":8015:8097  block.timestamp >= dep.timestamp + lockupPeriod ||... */\n    tag_450:\n        /* \"PoolFamilyAndFriends.sol\":8015:8162  block.timestamp >= dep.timestamp + lockupPeriod ||... */\n      dup1\n      tag_452\n      jumpi\n      pop\n        /* \"PoolFamilyAndFriends.sol\":8114:8138  globalLiquidationEnabled */\n      sload(0x05)\n      0x01000000\n      swap1\n      div\n      0xff\n      and\n        /* \"PoolFamilyAndFriends.sol\":8114:8161  globalLiquidationEnabled && dep.fullyRedeemable */\n      dup1\n      iszero\n      tag_452\n      jumpi\n      pop\n        /* \"PoolFamilyAndFriends.sol\":8142:8161  dep.fullyRedeemable */\n      0x03\n      dup2\n      add\n      sload\n      0x010000\n      swap1\n      div\n      0xff\n      and\n        /* \"PoolFamilyAndFriends.sol\":8114:8161  globalLiquidationEnabled && dep.fullyRedeemable */\n    tag_452:\n        /* \"PoolFamilyAndFriends.sol\":7994:8202  require(... */\n      tag_453\n      jumpi\n      mload(0x40)\n      shl(0xe5, 0x461bcd)\n      dup2\n      mstore\n        /* \"#utility.yul\":13444:13446   */\n      0x20\n        /* \"PoolFamilyAndFriends.sol\":7994:8202  require(... */\n      0x04\n      dup3\n      add\n        /* \"#utility.yul\":13426:13447   */\n      mstore\n        /* \"#utility.yul\":13483:13485   */\n      0x0e\n        /* \"#utility.yul\":13463:13481   */\n      0x24\n      dup3\n      add\n        /* \"#utility.yul\":13456:13486   */\n      mstore\n      shl(0x92, 0x11195c1bdcda5d081b1bd8dad959)\n        /* \"#utility.yul\":13502:13520   */\n      0x44\n      dup3\n      add\n        /* \"#utility.yul\":13495:13539   */\n      mstore\n        /* \"#utility.yul\":13556:13574   */\n      0x64\n      add\n        /* \"PoolFamilyAndFriends.sol\":7994:8202  require(... */\n      tag_415\n        /* \"#utility.yul\":13242:13580   */\n      jump\n        /* \"PoolFamilyAndFriends.sol\":7994:8202  require(... */\n    tag_453:\n        /* \"PoolFamilyAndFriends.sol\":8212:8225  dep.withdrawn */\n      0x03\n      dup2\n      add\n        /* \"PoolFamilyAndFriends.sol\":8212:8232  dep.withdrawn = true */\n      dup1\n      sload\n      not(0xff)\n      and\n        /* \"PoolFamilyAndFriends.sol\":8228:8232  true */\n      0x01\n        /* \"PoolFamilyAndFriends.sol\":8212:8232  dep.withdrawn = true */\n      or\n      swap1\n      sstore\n        /* \"PoolFamilyAndFriends.sol\":8260:8275  block.timestamp */\n      timestamp\n        /* \"PoolFamilyAndFriends.sol\":8242:8257  dep.withdrawnAt */\n      0x04\n      dup3\n      add\n        /* \"PoolFamilyAndFriends.sol\":8242:8275  dep.withdrawnAt = block.timestamp */\n      sstore\n        /* \"PoolFamilyAndFriends.sol\":8301:8318  dep.yieldReceived */\n      0x05\n      dup2\n      add\n      sload\n        /* \"PoolFamilyAndFriends.sol\":8212:8225  dep.withdrawn */\n      0x00\n        /* \"PoolFamilyAndFriends.sol\":8332:8341  dep.token */\n      dup3\n      sload\n      0xff\n      and\n      0x01\n        /* \"PoolFamilyAndFriends.sol\":8332:8358  dep.token == TokenType.ETH */\n      dup2\n      gt\n      iszero\n      tag_459\n      jumpi\n      tag_459\n      tag_432\n      jump\t// in\n    tag_459:\n      sub\n        /* \"PoolFamilyAndFriends.sol\":8328:8711  if (dep.token == TokenType.ETH) {... */\n      tag_460\n      jumpi\n        /* \"PoolFamilyAndFriends.sol\":8395:8398  dep */\n      dup2\n        /* \"PoolFamilyAndFriends.sol\":8395:8405  dep.amount */\n      0x01\n      add\n      sload\n        /* \"PoolFamilyAndFriends.sol\":8374:8391  totalWithdrawnETH */\n      0x14\n      0x00\n        /* \"PoolFamilyAndFriends.sol\":8374:8405  totalWithdrawnETH += dep.amount */\n      dup3\n      dup3\n      sload\n      tag_461\n      swap2\n      swap1\n      tag_420\n      jump\t// in\n    tag_461:\n      swap1\n      swap2\n      sstore\n      pop\n      pop\n        /* \"PoolFamilyAndFriends.sol\":8461:8471  dep.amount */\n      0x01\n      dup3\n      add\n      sload\n        /* \"PoolFamilyAndFriends.sol\":8420:8432  bool success */\n      0x00\n      swap1\n        /* \"PoolFamilyAndFriends.sol\":8438:8448  msg.sender */\n      caller\n      swap1\n        /* \"PoolFamilyAndFriends.sol\":8461:8479  dep.amount + yield */\n      tag_462\n      swap1\n        /* \"PoolFamilyAndFriends.sol\":8474:8479  yield */\n      dup5\n      swap1\n        /* \"PoolFamilyAndFriends.sol\":8461:8479  dep.amount + yield */\n      tag_420\n      jump\t// in\n    tag_462:\n        /* \"PoolFamilyAndFriends.sol\":8438:8484  msg.sender.call{value: dep.amount + yield}(\"\") */\n      mload(0x40)\n      0x00\n      dup2\n      dup2\n      dup2\n      dup6\n      dup8\n      gas\n      call\n      swap3\n      pop\n      pop\n      pop\n      returndatasize\n      dup1\n      0x00\n      dup2\n      eq\n      tag_467\n      jumpi\n      mload(0x40)\n      swap2\n      pop\n      and(add(returndatasize, 0x3f), not(0x1f))\n      dup3\n      add\n      0x40\n      mstore\n      returndatasize\n      dup3\n      mstore\n      returndatasize\n      0x00\n      0x20\n      dup5\n      add\n      returndatacopy\n      jump(tag_466)\n    tag_467:\n      0x60\n      swap2\n      pop\n    tag_466:\n      pop\n        /* \"PoolFamilyAndFriends.sol\":8419:8484  (bool success, ) = msg.sender.call{value: dep.amount + yield}(\"\") */\n      pop\n      swap1\n      pop\n        /* \"PoolFamilyAndFriends.sol\":8506:8513  success */\n      dup1\n        /* \"PoolFamilyAndFriends.sol\":8498:8537  require(success, \"ETH transfer failed\") */\n      tag_468\n      jumpi\n      mload(0x40)\n      shl(0xe5, 0x461bcd)\n      dup2\n      mstore\n        /* \"#utility.yul\":13997:13999   */\n      0x20\n        /* \"PoolFamilyAndFriends.sol\":8498:8537  require(success, \"ETH transfer failed\") */\n      0x04\n      dup3\n      add\n        /* \"#utility.yul\":13979:14000   */\n      mstore\n        /* \"#utility.yul\":14036:14038   */\n      0x13\n        /* \"#utility.yul\":14016:14034   */\n      0x24\n      dup3\n      add\n        /* \"#utility.yul\":14009:14039   */\n      mstore\n      shl(0x6a, 0x115512081d1c985b9cd9995c8819985a5b1959)\n        /* \"#utility.yul\":14055:14073   */\n      0x44\n      dup3\n      add\n        /* \"#utility.yul\":14048:14097   */\n      mstore\n        /* \"#utility.yul\":14114:14132   */\n      0x64\n      add\n        /* \"PoolFamilyAndFriends.sol\":8498:8537  require(success, \"ETH transfer failed\") */\n      tag_415\n        /* \"#utility.yul\":13795:14138   */\n      jump\n        /* \"PoolFamilyAndFriends.sol\":8498:8537  require(success, \"ETH transfer failed\") */\n    tag_468:\n        /* \"PoolFamilyAndFriends.sol\":8360:8548  {... */\n      pop\n        /* \"PoolFamilyAndFriends.sol\":8328:8711  if (dep.token == TokenType.ETH) {... */\n      jump(tag_476)\n    tag_460:\n        /* \"PoolFamilyAndFriends.sol\":8571:8585  TokenType.USDC */\n      0x01\n        /* \"PoolFamilyAndFriends.sol\":8558:8567  dep.token */\n      dup3\n      sload\n      0xff\n      and\n      0x01\n        /* \"PoolFamilyAndFriends.sol\":8558:8585  dep.token == TokenType.USDC */\n      dup2\n      gt\n      iszero\n      tag_475\n      jumpi\n      tag_475\n      tag_432\n      jump\t// in\n    tag_475:\n      sub\n        /* \"PoolFamilyAndFriends.sol\":8554:8711  if (dep.token == TokenType.USDC) {... */\n      tag_476\n      jumpi\n        /* \"PoolFamilyAndFriends.sol\":8623:8626  dep */\n      dup2\n        /* \"PoolFamilyAndFriends.sol\":8623:8633  dep.amount */\n      0x01\n      add\n      sload\n        /* \"PoolFamilyAndFriends.sol\":8601:8619  totalWithdrawnUSDC */\n      0x15\n      0x00\n        /* \"PoolFamilyAndFriends.sol\":8601:8633  totalWithdrawnUSDC += dep.amount */\n      dup3\n      dup3\n      sload\n      tag_477\n      swap2\n      swap1\n      tag_420\n      jump\t// in\n    tag_477:\n      swap1\n      swap2\n      sstore\n      pop\n      pop\n        /* \"PoolFamilyAndFriends.sol\":8681:8691  dep.amount */\n      0x01\n      dup3\n      add\n      sload\n        /* \"PoolFamilyAndFriends.sol\":526:568  0x833589fCD6eDb6E08f4c7C32D4f71b54bdA02913 */\n      0x833589fcd6edb6e08f4c7c32d4f71b54bda02913\n      swap1\n        /* \"PoolFamilyAndFriends.sol\":8647:8668  IERC20(USDC).transfer */\n      0xa9059cbb\n      swap1\n        /* \"PoolFamilyAndFriends.sol\":8669:8679  msg.sender */\n      caller\n      swap1\n        /* \"PoolFamilyAndFriends.sol\":8681:8699  dep.amount + yield */\n      tag_478\n      swap1\n        /* \"PoolFamilyAndFriends.sol\":8694:8699  yield */\n      dup6\n      swap1\n        /* \"PoolFamilyAndFriends.sol\":8681:8699  dep.amount + yield */\n      tag_420\n      jump\t// in\n    tag_478:\n        /* \"PoolFamilyAndFriends.sol\":8647:8700  IERC20(USDC).transfer(msg.sender, dep.amount + yield) */\n      mload(0x40)\n      not(sub(shl(0xe0, 0x01), 0x01))\n      0xe0\n      dup6\n      swap1\n      shl\n      and\n      dup2\n      mstore\n      sub(shl(0xa0, 0x01), 0x01)\n        /* \"#utility.yul\":14335:14390   */\n      swap1\n      swap3\n      and\n        /* \"PoolFamilyAndFriends.sol\":8647:8700  IERC20(USDC).transfer(msg.sender, dep.amount + yield) */\n      0x04\n      dup4\n      add\n        /* \"#utility.yul\":14317:14391   */\n      mstore\n        /* \"#utility.yul\":14407:14425   */\n      0x24\n      dup3\n      add\n        /* \"#utility.yul\":14400:14434   */\n      mstore\n        /* \"#utility.yul\":14290:14308   */\n      0x44\n      add\n        /* \"PoolFamilyAndFriends.sol\":8647:8700  IERC20(USDC).transfer(msg.sender, dep.amount + yield) */\n      0x20\n      mload(0x40)\n      dup1\n      dup4\n      sub\n      dup2\n      0x00\n      dup8\n      gas\n      call\n      iszero\n      dup1\n      iszero\n      tag_482\n      jumpi\n      returndatasize\n      0x00\n      dup1\n      returndatacopy\n      revert(0x00, returndatasize)\n    tag_482:\n      pop\n      pop\n      pop\n      pop\n      mload(0x40)\n      returndatasize\n      not(0x1f)\n      0x1f\n      dup3\n      add\n      and\n      dup3\n      add\n      dup1\n      0x40\n      mstore\n      pop\n      dup2\n      add\n      swap1\n      tag_483\n      swap2\n      swap1\n      tag_484\n      jump\t// in\n    tag_483:\n      pop\n        /* \"PoolFamilyAndFriends.sol\":8554:8711  if (dep.token == TokenType.USDC) {... */\n    tag_476:\n        /* \"PoolFamilyAndFriends.sol\":8738:8748  msg.sender */\n      caller\n        /* \"PoolFamilyAndFriends.sol\":8725:8749  hasWithdrawn[msg.sender] */\n      0x00\n      swap1\n      dup2\n      mstore\n        /* \"PoolFamilyAndFriends.sol\":8725:8737  hasWithdrawn */\n      0x0a\n        /* \"PoolFamilyAndFriends.sol\":8725:8749  hasWithdrawn[msg.sender] */\n      0x20\n      mstore\n      0x40\n      swap1\n      keccak256\n      sload\n      0xff\n      and\n        /* \"PoolFamilyAndFriends.sol\":8720:8852  if (!hasWithdrawn[msg.sender]) {... */\n      tag_485\n      jumpi\n        /* \"PoolFamilyAndFriends.sol\":8765:8779  withdrawnUsers */\n      0x10\n        /* \"PoolFamilyAndFriends.sol\":8765:8796  withdrawnUsers.push(msg.sender) */\n      dup1\n      sload\n      0x01\n      dup2\n      dup2\n      add\n      swap1\n      swap3\n      sstore\n      0x1b6847dc741a1b0cd08d278845f9d819d87b734759afb55fe2de5cb82a9ae672\n      add\n      dup1\n      sload\n      not(sub(shl(0xa0, 0x01), 0x01))\n      and\n        /* \"PoolFamilyAndFriends.sol\":8785:8795  msg.sender */\n      caller\n        /* \"PoolFamilyAndFriends.sol\":8765:8796  withdrawnUsers.push(msg.sender) */\n      swap1\n      dup2\n      or\n      swap1\n      swap2\n      sstore\n      0x00\n        /* \"PoolFamilyAndFriends.sol\":8810:8834  hasWithdrawn[msg.sender] */\n      swap1\n      dup2\n      mstore\n        /* \"PoolFamilyAndFriends.sol\":8810:8822  hasWithdrawn */\n      0x0a\n        /* \"PoolFamilyAndFriends.sol\":8765:8796  withdrawnUsers.push(msg.sender) */\n      0x20\n        /* \"PoolFamilyAndFriends.sol\":8810:8834  hasWithdrawn[msg.sender] */\n      mstore\n      0x40\n      swap1\n      keccak256\n        /* \"PoolFamilyAndFriends.sol\":8810:8841  hasWithdrawn[msg.sender] = true */\n      dup1\n      sload\n      not(0xff)\n      and\n      swap1\n      swap2\n      or\n      swap1\n      sstore\n        /* \"PoolFamilyAndFriends.sol\":8720:8852  if (!hasWithdrawn[msg.sender]) {... */\n    tag_485:\n        /* \"PoolFamilyAndFriends.sol\":8887:8896  dep.token */\n      dup2\n      sload\n      0x01\n        /* \"PoolFamilyAndFriends.sol\":8898:8908  dep.amount */\n      dup4\n      add\n      sload\n        /* \"PoolFamilyAndFriends.sol\":8866:8947  Withdraw(msg.sender, dep.token, dep.amount, yield, block.timestamp, depositIndex) */\n      mload(0x40)\n        /* \"PoolFamilyAndFriends.sol\":8875:8885  msg.sender */\n      caller\n      swap3\n        /* \"PoolFamilyAndFriends.sol\":8866:8947  Withdraw(msg.sender, dep.token, dep.amount, yield, block.timestamp, depositIndex) */\n      0xcb034b37ef3764745c35bafecd525367bcf312e9010239e6aeebbe6bcf57727f\n      swap3\n      tag_487\n      swap3\n        /* \"PoolFamilyAndFriends.sol\":8887:8896  dep.token */\n      0xff\n      swap1\n      swap3\n      and\n      swap2\n        /* \"PoolFamilyAndFriends.sol\":8910:8915  yield */\n      dup7\n      swap1\n        /* \"PoolFamilyAndFriends.sol\":8917:8932  block.timestamp */\n      timestamp\n      swap1\n        /* \"PoolFamilyAndFriends.sol\":8934:8946  depositIndex */\n      dup11\n      swap1\n        /* \"PoolFamilyAndFriends.sol\":8866:8947  Withdraw(msg.sender, dep.token, dep.amount, yield, block.timestamp, depositIndex) */\n      tag_488\n      jump\t// in\n    tag_487:\n      mload(0x40)\n      dup1\n      swap2\n      sub\n      swap1\n      log2\n        /* \"PoolFamilyAndFriends.sol\":7856:8954  {... */\n      pop\n      pop\n        /* \"@openzeppelin/contracts/utils/ReentrancyGuard.sol\":2542:2562   */\n      tag_489\n        /* \"@openzeppelin/contracts/utils/ReentrancyGuard.sol\":1857:1858   */\n      0x01\n        /* \"@openzeppelin/contracts/utils/ReentrancyGuard.sol\":3068:3089   */\n      dup1\n      sstore\n        /* \"@openzeppelin/contracts/utils/ReentrancyGuard.sol\":2888:3096   */\n      jump\n        /* \"@openzeppelin/contracts/utils/ReentrancyGuard.sol\":2542:2562   */\n    tag_489:\n        /* \"PoolFamilyAndFriends.sol\":7769:8954  function withdraw(uint256 depositIndex) external nonReentrant whenWithdrawalsNotPaused {... */\n      pop\n      jump\t// out\n        /* \"@openzeppelin/contracts/access/AccessControl.sol\":4202:4338   */\n    tag_161:\n        /* \"@openzeppelin/contracts/access/AccessControl.sol\":3851:3858   */\n      0x00\n        /* \"@openzeppelin/contracts/access/AccessControl.sol\":3877:3889   */\n      dup3\n      dup2\n      mstore\n      0x20\n      dup2\n      swap1\n      mstore\n      0x40\n      swap1\n      keccak256\n        /* \"@openzeppelin/contracts/access/AccessControl.sol\":3877:3899   */\n      0x01\n      add\n      sload\n        /* \"@openzeppelin/contracts/access/AccessControl.sol\":2473:2489   */\n      tag_492\n        /* \"@openzeppelin/contracts/access/AccessControl.sol\":2484:2488   */\n      dup2\n        /* \"@openzeppelin/contracts/access/AccessControl.sol\":2473:2483   */\n      tag_405\n        /* \"@openzeppelin/contracts/access/AccessControl.sol\":2473:2489   */\n      jump\t// in\n    tag_492:\n        /* \"@openzeppelin/contracts/access/AccessControl.sol\":4306:4331   */\n      tag_494\n        /* \"@openzeppelin/contracts/access/AccessControl.sol\":4317:4321   */\n      dup4\n        /* \"@openzeppelin/contracts/access/AccessControl.sol\":4323:4330   */\n      dup4\n        /* \"@openzeppelin/contracts/access/AccessControl.sol\":4306:4316   */\n      tag_495\n        /* \"@openzeppelin/contracts/access/AccessControl.sol\":4306:4331   */\n      jump\t// in\n    tag_494:\n      pop\n        /* \"@openzeppelin/contracts/access/AccessControl.sol\":4202:4338   */\n      pop\n      pop\n      pop\n      jump\t// out\n        /* \"@openzeppelin/contracts/access/AccessControl.sol\":5304:5549   */\n    tag_170:\n      sub(shl(0xa0, 0x01), 0x01)\n        /* \"@openzeppelin/contracts/access/AccessControl.sol\":5397:5431   */\n      dup2\n      and\n        /* \"@openzeppelin/contracts/utils/Context.sol\":735:745   */\n      caller\n        /* \"@openzeppelin/contracts/access/AccessControl.sol\":5397:5431   */\n      eq\n        /* \"@openzeppelin/contracts/access/AccessControl.sol\":5393:5495   */\n      tag_499\n      jumpi\n        /* \"@openzeppelin/contracts/access/AccessControl.sol\":5454:5484   */\n      mload(0x40)\n      shl(0xe1, 0x334bd919)\n      dup2\n      mstore\n      0x04\n      add\n      mload(0x40)\n      dup1\n      swap2\n      sub\n      swap1\n      revert\n        /* \"@openzeppelin/contracts/access/AccessControl.sol\":5393:5495   */\n    tag_499:\n        /* \"@openzeppelin/contracts/access/AccessControl.sol\":5505:5542   */\n      tag_500\n        /* \"@openzeppelin/contracts/access/AccessControl.sol\":5517:5521   */\n      dup3\n        /* \"@openzeppelin/contracts/access/AccessControl.sol\":5523:5541   */\n      dup3\n        /* \"@openzeppelin/contracts/access/AccessControl.sol\":5505:5516   */\n      tag_501\n        /* \"@openzeppelin/contracts/access/AccessControl.sol\":5505:5542   */\n      jump\t// in\n    tag_500:\n      pop\n        /* \"@openzeppelin/contracts/access/AccessControl.sol\":5304:5549   */\n      pop\n      pop\n      jump\t// out\n        /* \"PoolFamilyAndFriends.sol\":13991:14496  function assignUtilityUSDCBatch(address[] calldata users, uint256[] calldata amounts) external onlyRole(ADMIN_ROLE) {... */\n    tag_184:\n      0x00\n      dup1\n      mload\n      0x20\n      data_cb864c43dd5d441bb6271f424f11befa622c032dfd374d226e26fbbdb782b8f8\n      dup4\n      codecopy\n      dup2\n      mload\n      swap2\n      mstore\n        /* \"@openzeppelin/contracts/access/AccessControl.sol\":2473:2489   */\n      tag_503\n        /* \"@openzeppelin/contracts/access/AccessControl.sol\":2484:2488   */\n      dup2\n        /* \"@openzeppelin/contracts/access/AccessControl.sol\":2473:2483   */\n      tag_405\n        /* \"@openzeppelin/contracts/access/AccessControl.sol\":2473:2489   */\n      jump\t// in\n    tag_503:\n        /* \"PoolFamilyAndFriends.sol\":14125:14155  users.length == amounts.length */\n      dup4\n      dup3\n      eq\n        /* \"PoolFamilyAndFriends.sol\":14117:14168  require(users.length == amounts.length, \"Mismatch\") */\n      tag_505\n      jumpi\n      mload(0x40)\n      shl(0xe5, 0x461bcd)\n      dup2\n      mstore\n        /* \"#utility.yul\":15396:15398   */\n      0x20\n        /* \"PoolFamilyAndFriends.sol\":14117:14168  require(users.length == amounts.length, \"Mismatch\") */\n      0x04\n      dup3\n      add\n        /* \"#utility.yul\":15378:15399   */\n      mstore\n        /* \"#utility.yul\":15435:15436   */\n      0x08\n        /* \"#utility.yul\":15415:15433   */\n      0x24\n      dup3\n      add\n        /* \"#utility.yul\":15408:15437   */\n      mstore\n      shl(0xc3, 0x09ad2e6dac2e8c6d)\n        /* \"#utility.yul\":15453:15471   */\n      0x44\n      dup3\n      add\n        /* \"#utility.yul\":15446:15484   */\n      mstore\n        /* \"#utility.yul\":15501:15519   */\n      0x64\n      add\n        /* \"PoolFamilyAndFriends.sol\":14117:14168  require(users.length == amounts.length, \"Mismatch\") */\n      tag_415\n        /* \"#utility.yul\":15194:15525   */\n      jump\n        /* \"PoolFamilyAndFriends.sol\":14117:14168  require(users.length == amounts.length, \"Mismatch\") */\n    tag_505:\n        /* \"PoolFamilyAndFriends.sol\":14178:14191  uint256 total */\n      0x00\n      dup1\n        /* \"PoolFamilyAndFriends.sol\":14201:14395  for (uint256 i = 0; i < users.length; i++) {... */\n    tag_508:\n        /* \"PoolFamilyAndFriends.sol\":14221:14237  i < users.length */\n      dup6\n      dup2\n      lt\n        /* \"PoolFamilyAndFriends.sol\":14201:14395  for (uint256 i = 0; i < users.length; i++) {... */\n      iszero\n      tag_509\n      jumpi\n        /* \"PoolFamilyAndFriends.sol\":14279:14280  0 */\n      0x00\n        /* \"PoolFamilyAndFriends.sol\":14266:14273  amounts */\n      dup6\n      dup6\n        /* \"PoolFamilyAndFriends.sol\":14274:14275  i */\n      dup4\n        /* \"PoolFamilyAndFriends.sol\":14266:14276  amounts[i] */\n      dup2\n      dup2\n      lt\n      tag_512\n      jumpi\n      tag_512\n      tag_444\n      jump\t// in\n    tag_512:\n      swap1\n      pop\n      0x20\n      mul\n      add\n      calldataload\n        /* \"PoolFamilyAndFriends.sol\":14266:14280  amounts[i] > 0 */\n      gt\n        /* \"PoolFamilyAndFriends.sol\":14258:14289  require(amounts[i] > 0, \"Zero\") */\n      tag_513\n      jumpi\n      mload(0x40)\n      shl(0xe5, 0x461bcd)\n      dup2\n      mstore\n      0x04\n      add\n      tag_415\n      swap1\n        /* \"#utility.yul\":15732:15734   */\n      0x20\n        /* \"#utility.yul\":15714:15735   */\n      dup1\n      dup3\n      mstore\n        /* \"#utility.yul\":15771:15772   */\n      0x04\n        /* \"#utility.yul\":15751:15769   */\n      swap1\n      dup3\n      add\n        /* \"#utility.yul\":15744:15773   */\n      mstore\n      shl(0xe0, 0x5a65726f)\n        /* \"#utility.yul\":15804:15806   */\n      0x40\n        /* \"#utility.yul\":15789:15807   */\n      dup3\n      add\n        /* \"#utility.yul\":15782:15816   */\n      mstore\n        /* \"#utility.yul\":15848:15850   */\n      0x60\n        /* \"#utility.yul\":15833:15851   */\n      add\n      swap1\n        /* \"#utility.yul\":15530:15857   */\n      jump\n        /* \"PoolFamilyAndFriends.sol\":14258:14289  require(amounts[i] > 0, \"Zero\") */\n    tag_513:\n        /* \"PoolFamilyAndFriends.sol\":14341:14348  amounts */\n      dup5\n      dup5\n        /* \"PoolFamilyAndFriends.sol\":14349:14350  i */\n      dup3\n        /* \"PoolFamilyAndFriends.sol\":14341:14351  amounts[i] */\n      dup2\n      dup2\n      lt\n      tag_517\n      jumpi\n      tag_517\n      tag_444\n      jump\t// in\n    tag_517:\n      swap1\n      pop\n      0x20\n      mul\n      add\n      calldataload\n        /* \"PoolFamilyAndFriends.sol\":14303:14327  userClaimableUtilityUSDC */\n      0x0c\n        /* \"PoolFamilyAndFriends.sol\":14303:14337  userClaimableUtilityUSDC[users[i]] */\n      0x00\n        /* \"PoolFamilyAndFriends.sol\":14328:14333  users */\n      dup10\n      dup10\n        /* \"PoolFamilyAndFriends.sol\":14334:14335  i */\n      dup6\n        /* \"PoolFamilyAndFriends.sol\":14328:14336  users[i] */\n      dup2\n      dup2\n      lt\n      tag_519\n      jumpi\n      tag_519\n      tag_444\n      jump\t// in\n    tag_519:\n      swap1\n      pop\n      0x20\n      mul\n      add\n      0x20\n      dup2\n      add\n      swap1\n      tag_520\n      swap2\n      swap1\n      tag_104\n      jump\t// in\n    tag_520:\n      sub(shl(0xa0, 0x01), 0x01)\n        /* \"PoolFamilyAndFriends.sol\":14303:14337  userClaimableUtilityUSDC[users[i]] */\n      and\n      sub(shl(0xa0, 0x01), 0x01)\n      and\n      dup2\n      mstore\n      0x20\n      add\n      swap1\n      dup2\n      mstore\n      0x20\n      add\n      0x00\n      keccak256\n      0x00\n        /* \"PoolFamilyAndFriends.sol\":14303:14351  userClaimableUtilityUSDC[users[i]] += amounts[i] */\n      dup3\n      dup3\n      sload\n      tag_521\n      swap2\n      swap1\n      tag_420\n      jump\t// in\n    tag_521:\n      swap1\n      swap2\n      sstore\n      pop\n        /* \"PoolFamilyAndFriends.sol\":14374:14381  amounts */\n      dup6\n      swap1\n      pop\n      dup5\n        /* \"PoolFamilyAndFriends.sol\":14382:14383  i */\n      dup3\n        /* \"PoolFamilyAndFriends.sol\":14374:14384  amounts[i] */\n      dup2\n      dup2\n      lt\n      tag_523\n      jumpi\n      tag_523\n      tag_444\n      jump\t// in\n    tag_523:\n      swap1\n      pop\n      0x20\n      mul\n      add\n      calldataload\n        /* \"PoolFamilyAndFriends.sol\":14365:14384  total += amounts[i] */\n      dup3\n      tag_524\n      swap2\n      swap1\n      tag_420\n      jump\t// in\n    tag_524:\n      swap2\n      pop\n        /* \"PoolFamilyAndFriends.sol\":14239:14242  i++ */\n      0x01\n      add\n        /* \"PoolFamilyAndFriends.sol\":14201:14395  for (uint256 i = 0; i < users.length; i++) {... */\n      jump(tag_508)\n    tag_509:\n      pop\n        /* \"PoolFamilyAndFriends.sol\":14421:14437  totalUtilityUSDC */\n      sload(0x17)\n        /* \"PoolFamilyAndFriends.sol\":14412:14417  total */\n      dup2\n        /* \"PoolFamilyAndFriends.sol\":14412:14437  total <= totalUtilityUSDC */\n      gt\n      iszero\n        /* \"PoolFamilyAndFriends.sol\":14404:14454  require(total <= totalUtilityUSDC, \"Exceeds pool\") */\n      tag_525\n      jumpi\n      mload(0x40)\n      shl(0xe5, 0x461bcd)\n      dup2\n      mstore\n        /* \"#utility.yul\":16064:16066   */\n      0x20\n        /* \"PoolFamilyAndFriends.sol\":14404:14454  require(total <= totalUtilityUSDC, \"Exceeds pool\") */\n      0x04\n      dup3\n      add\n        /* \"#utility.yul\":16046:16067   */\n      mstore\n        /* \"#utility.yul\":16103:16105   */\n      0x0c\n        /* \"#utility.yul\":16083:16101   */\n      0x24\n      dup3\n      add\n        /* \"#utility.yul\":16076:16106   */\n      mstore\n      shl(0xa2, 0x115e18d959591cc81c1bdbdb)\n        /* \"#utility.yul\":16122:16140   */\n      0x44\n      dup3\n      add\n        /* \"#utility.yul\":16115:16157   */\n      mstore\n        /* \"#utility.yul\":16174:16192   */\n      0x64\n      add\n        /* \"PoolFamilyAndFriends.sol\":14404:14454  require(total <= totalUtilityUSDC, \"Exceeds pool\") */\n      tag_415\n        /* \"#utility.yul\":15862:16198   */\n      jump\n        /* \"PoolFamilyAndFriends.sol\":14404:14454  require(total <= totalUtilityUSDC, \"Exceeds pool\") */\n    tag_525:\n        /* \"PoolFamilyAndFriends.sol\":14484:14489  total */\n      dup1\n        /* \"PoolFamilyAndFriends.sol\":14464:14480  totalUtilityUSDC */\n      0x17\n      0x00\n        /* \"PoolFamilyAndFriends.sol\":14464:14489  totalUtilityUSDC -= total */\n      dup3\n      dup3\n      sload\n      tag_528\n      swap2\n      swap1\n      tag_529\n      jump\t// in\n    tag_528:\n      swap1\n      swap2\n      sstore\n      pop\n      pop\n      pop\n      pop\n      pop\n      pop\n      pop\n      pop\n        /* \"PoolFamilyAndFriends.sol\":13991:14496  function assignUtilityUSDCBatch(address[] calldata users, uint256[] calldata amounts) external onlyRole(ADMIN_ROLE) {... */\n      jump\t// out\n        /* \"PoolFamilyAndFriends.sol\":5520:5867  function setWhitelistBatch(address[] calldata users, bool[] calldata statuses) external onlyRole(ADMIN_ROLE) {... */\n    tag_189:\n      0x00\n      dup1\n      mload\n      0x20\n      data_cb864c43dd5d441bb6271f424f11befa622c032dfd374d226e26fbbdb782b8f8\n      dup4\n      codecopy\n      dup2\n      mload\n      swap2\n      mstore\n        /* \"@openzeppelin/contracts/access/AccessControl.sol\":2473:2489   */\n      tag_531\n        /* \"@openzeppelin/contracts/access/AccessControl.sol\":2484:2488   */\n      dup2\n        /* \"@openzeppelin/contracts/access/AccessControl.sol\":2473:2483   */\n      tag_405\n        /* \"@openzeppelin/contracts/access/AccessControl.sol\":2473:2489   */\n      jump\t// in\n    tag_531:\n        /* \"PoolFamilyAndFriends.sol\":5647:5678  users.length == statuses.length */\n      dup4\n      dup3\n      eq\n        /* \"PoolFamilyAndFriends.sol\":5639:5691  require(users.length == statuses.length, \"Mismatch\") */\n      tag_533\n      jumpi\n      mload(0x40)\n      shl(0xe5, 0x461bcd)\n      dup2\n      mstore\n        /* \"#utility.yul\":15396:15398   */\n      0x20\n        /* \"PoolFamilyAndFriends.sol\":5639:5691  require(users.length == statuses.length, \"Mismatch\") */\n      0x04\n      dup3\n      add\n        /* \"#utility.yul\":15378:15399   */\n      mstore\n        /* \"#utility.yul\":15435:15436   */\n      0x08\n        /* \"#utility.yul\":15415:15433   */\n      0x24\n      dup3\n      add\n        /* \"#utility.yul\":15408:15437   */\n      mstore\n      shl(0xc3, 0x09ad2e6dac2e8c6d)\n        /* \"#utility.yul\":15453:15471   */\n      0x44\n      dup3\n      add\n        /* \"#utility.yul\":15446:15484   */\n      mstore\n        /* \"#utility.yul\":15501:15519   */\n      0x64\n      add\n        /* \"PoolFamilyAndFriends.sol\":5639:5691  require(users.length == statuses.length, \"Mismatch\") */\n      tag_415\n        /* \"#utility.yul\":15194:15525   */\n      jump\n        /* \"PoolFamilyAndFriends.sol\":5639:5691  require(users.length == statuses.length, \"Mismatch\") */\n    tag_533:\n        /* \"PoolFamilyAndFriends.sol\":5706:5715  uint256 i */\n      0x00\n        /* \"PoolFamilyAndFriends.sol\":5701:5861  for (uint256 i=0; i < users.length; i++) {... */\n    tag_535:\n        /* \"PoolFamilyAndFriends.sol\":5719:5735  i < users.length */\n      dup5\n      dup2\n      lt\n        /* \"PoolFamilyAndFriends.sol\":5701:5861  for (uint256 i=0; i < users.length; i++) {... */\n      iszero\n      tag_536\n      jumpi\n        /* \"PoolFamilyAndFriends.sol\":5782:5790  statuses */\n      dup4\n      dup4\n        /* \"PoolFamilyAndFriends.sol\":5791:5792  i */\n      dup3\n        /* \"PoolFamilyAndFriends.sol\":5782:5793  statuses[i] */\n      dup2\n      dup2\n      lt\n      tag_539\n      jumpi\n      tag_539\n      tag_444\n      jump\t// in\n    tag_539:\n      swap1\n      pop\n      0x20\n      mul\n      add\n      0x20\n      dup2\n      add\n      swap1\n      tag_540\n      swap2\n      swap1\n      tag_111\n      jump\t// in\n    tag_540:\n        /* \"PoolFamilyAndFriends.sol\":5756:5769  isWhitelisted */\n      0x09\n        /* \"PoolFamilyAndFriends.sol\":5756:5779  isWhitelisted[users[i]] */\n      0x00\n        /* \"PoolFamilyAndFriends.sol\":5770:5775  users */\n      dup9\n      dup9\n        /* \"PoolFamilyAndFriends.sol\":5776:5777  i */\n      dup6\n        /* \"PoolFamilyAndFriends.sol\":5770:5778  users[i] */\n      dup2\n      dup2\n      lt\n      tag_542\n      jumpi\n      tag_542\n      tag_444\n      jump\t// in\n    tag_542:\n      swap1\n      pop\n      0x20\n      mul\n      add\n      0x20\n      dup2\n      add\n      swap1\n      tag_543\n      swap2\n      swap1\n      tag_104\n      jump\t// in\n    tag_543:\n      sub(shl(0xa0, 0x01), 0x01)\n        /* \"PoolFamilyAndFriends.sol\":5756:5779  isWhitelisted[users[i]] */\n      and\n      dup2\n      mstore\n      0x20\n      dup2\n      add\n      swap2\n      swap1\n      swap2\n      mstore\n      0x40\n      add\n      0x00\n      keccak256\n        /* \"PoolFamilyAndFriends.sol\":5756:5793  isWhitelisted[users[i]] = statuses[i] */\n      dup1\n      sload\n      not(0xff)\n      and\n      swap2\n      iszero\n      iszero\n      swap2\n      swap1\n      swap2\n      or\n      swap1\n      sstore\n        /* \"PoolFamilyAndFriends.sol\":5828:5833  users */\n      dup6\n      dup6\n        /* \"PoolFamilyAndFriends.sol\":5834:5835  i */\n      dup3\n        /* \"PoolFamilyAndFriends.sol\":5828:5836  users[i] */\n      dup2\n      dup2\n      lt\n      tag_545\n      jumpi\n      tag_545\n      tag_444\n      jump\t// in\n    tag_545:\n      swap1\n      pop\n      0x20\n      mul\n      add\n      0x20\n      dup2\n      add\n      swap1\n      tag_546\n      swap2\n      swap1\n      tag_104\n      jump\t// in\n    tag_546:\n      sub(shl(0xa0, 0x01), 0x01)\n        /* \"PoolFamilyAndFriends.sol\":5812:5850  UserWhitelisted(users[i], statuses[i]) */\n      and\n      0x995d2434d36c9bceaab42c56efe51e8ffe41fd11cabefd9e2cb83700d8b2035e\n        /* \"PoolFamilyAndFriends.sol\":5838:5846  statuses */\n      dup6\n      dup6\n        /* \"PoolFamilyAndFriends.sol\":5847:5848  i */\n      dup5\n        /* \"PoolFamilyAndFriends.sol\":5838:5849  statuses[i] */\n      dup2\n      dup2\n      lt\n      tag_548\n      jumpi\n      tag_548\n      tag_444\n      jump\t// in\n    tag_548:\n      swap1\n      pop\n      0x20\n      mul\n      add\n      0x20\n      dup2\n      add\n      swap1\n      tag_549\n      swap2\n      swap1\n      tag_111\n      jump\t// in\n    tag_549:\n        /* \"PoolFamilyAndFriends.sol\":5812:5850  UserWhitelisted(users[i], statuses[i]) */\n      mload(0x40)\n        /* \"#utility.yul\":566:580   */\n      swap1\n      iszero\n        /* \"#utility.yul\":559:581   */\n      iszero\n        /* \"#utility.yul\":541:582   */\n      dup2\n      mstore\n        /* \"#utility.yul\":529:531   */\n      0x20\n        /* \"#utility.yul\":514:532   */\n      add\n        /* \"PoolFamilyAndFriends.sol\":5812:5850  UserWhitelisted(users[i], statuses[i]) */\n      mload(0x40)\n      dup1\n      swap2\n      sub\n      swap1\n      log2\n        /* \"PoolFamilyAndFriends.sol\":5737:5740  i++ */\n      0x01\n      add\n        /* \"PoolFamilyAndFriends.sol\":5701:5861  for (uint256 i=0; i < users.length; i++) {... */\n      jump(tag_535)\n    tag_536:\n      pop\n        /* \"PoolFamilyAndFriends.sol\":5520:5867  function setWhitelistBatch(address[] calldata users, bool[] calldata statuses) external onlyRole(ADMIN_ROLE) {... */\n      pop\n      pop\n      pop\n      pop\n      pop\n      jump\t// out\n        /* \"PoolFamilyAndFriends.sol\":18201:19349  function getUserStats(address user) external view returns (... */\n    tag_193:\n      sub(shl(0xa0, 0x01), 0x01)\n        /* \"PoolFamilyAndFriends.sol\":18569:18587  userDeposits[user] */\n      dup2\n      and\n        /* \"PoolFamilyAndFriends.sol\":18269:18289  uint256 depositedETH */\n      0x00\n        /* \"PoolFamilyAndFriends.sol\":18569:18587  userDeposits[user] */\n      swap1\n      dup2\n      mstore\n        /* \"PoolFamilyAndFriends.sol\":18569:18581  userDeposits */\n      0x08\n        /* \"PoolFamilyAndFriends.sol\":18569:18587  userDeposits[user] */\n      0x20\n      mstore\n      0x40\n      dup2\n      keccak256\n        /* \"PoolFamilyAndFriends.sol\":18269:18289  uint256 depositedETH */\n      dup2\n      swap1\n      dup2\n      swap1\n      dup2\n      swap1\n      dup2\n      swap1\n      dup2\n      swap1\n      dup2\n      swap1\n      dup2\n      swap1\n      dup2\n        /* \"PoolFamilyAndFriends.sol\":18597:19219  for (uint256 i = 0; i < deposits.length; i++) {... */\n    tag_552:\n        /* \"PoolFamilyAndFriends.sol\":18621:18636  deposits.length */\n      dup2\n      sload\n        /* \"PoolFamilyAndFriends.sol\":18617:18636  i < deposits.length */\n      dup2\n      lt\n        /* \"PoolFamilyAndFriends.sol\":18597:19219  for (uint256 i = 0; i < deposits.length; i++) {... */\n      iszero\n      tag_553\n      jumpi\n        /* \"PoolFamilyAndFriends.sol\":18682:18695  TokenType.ETH */\n      0x00\n        /* \"PoolFamilyAndFriends.sol\":18661:18669  deposits */\n      dup3\n        /* \"PoolFamilyAndFriends.sol\":18670:18671  i */\n      dup3\n        /* \"PoolFamilyAndFriends.sol\":18661:18672  deposits[i] */\n      dup2\n      sload\n      dup2\n      lt\n      tag_558\n      jumpi\n      tag_558\n      tag_444\n      jump\t// in\n    tag_558:\n      0x00\n      swap2\n      dup3\n      mstore\n      0x20\n      swap1\n      swap2\n      keccak256\n      0x06\n      swap1\n      swap2\n      mul\n      add\n        /* \"PoolFamilyAndFriends.sol\":18661:18678  deposits[i].token */\n      sload\n      0xff\n      and\n      0x01\n        /* \"PoolFamilyAndFriends.sol\":18661:18695  deposits[i].token == TokenType.ETH */\n      dup2\n      gt\n      iszero\n      tag_561\n      jumpi\n      tag_561\n      tag_432\n      jump\t// in\n    tag_561:\n      sub\n        /* \"PoolFamilyAndFriends.sol\":18657:19209  if (deposits[i].token == TokenType.ETH) {... */\n      tag_562\n      jumpi\n        /* \"PoolFamilyAndFriends.sol\":18731:18739  deposits */\n      dup2\n        /* \"PoolFamilyAndFriends.sol\":18740:18741  i */\n      dup2\n        /* \"PoolFamilyAndFriends.sol\":18731:18742  deposits[i] */\n      dup2\n      sload\n      dup2\n      lt\n      tag_564\n      jumpi\n      tag_564\n      tag_444\n      jump\t// in\n    tag_564:\n      swap1\n      0x00\n      mstore\n      keccak256(0x00, 0x20)\n      swap1\n      0x06\n      mul\n      add\n        /* \"PoolFamilyAndFriends.sol\":18731:18749  deposits[i].amount */\n      0x01\n      add\n      sload\n        /* \"PoolFamilyAndFriends.sol\":18715:18749  depositedETH += deposits[i].amount */\n      dup11\n      tag_566\n      swap2\n      swap1\n      tag_420\n      jump\t// in\n    tag_566:\n      swap10\n      pop\n        /* \"PoolFamilyAndFriends.sol\":18771:18779  deposits */\n      dup2\n        /* \"PoolFamilyAndFriends.sol\":18780:18781  i */\n      dup2\n        /* \"PoolFamilyAndFriends.sol\":18771:18782  deposits[i] */\n      dup2\n      sload\n      dup2\n      lt\n      tag_568\n      jumpi\n      tag_568\n      tag_444\n      jump\t// in\n    tag_568:\n      0x00\n      swap2\n      dup3\n      mstore\n      0x20\n      swap1\n      swap2\n      keccak256\n        /* \"PoolFamilyAndFriends.sol\":18771:18792  deposits[i].withdrawn */\n      0x03\n        /* \"PoolFamilyAndFriends.sol\":18771:18782  deposits[i] */\n      0x06\n      swap1\n      swap3\n      mul\n      add\n        /* \"PoolFamilyAndFriends.sol\":18771:18792  deposits[i].withdrawn */\n      add\n      sload\n      0xff\n      and\n        /* \"PoolFamilyAndFriends.sol\":18767:18828  if (deposits[i].withdrawn) withdrawnETH += deposits[i].amount */\n      iszero\n      tag_570\n      jumpi\n        /* \"PoolFamilyAndFriends.sol\":18810:18818  deposits */\n      dup2\n        /* \"PoolFamilyAndFriends.sol\":18819:18820  i */\n      dup2\n        /* \"PoolFamilyAndFriends.sol\":18810:18821  deposits[i] */\n      dup2\n      sload\n      dup2\n      lt\n      tag_572\n      jumpi\n      tag_572\n      tag_444\n      jump\t// in\n    tag_572:\n      swap1\n      0x00\n      mstore\n      keccak256(0x00, 0x20)\n      swap1\n      0x06\n      mul\n      add\n        /* \"PoolFamilyAndFriends.sol\":18810:18828  deposits[i].amount */\n      0x01\n      add\n      sload\n        /* \"PoolFamilyAndFriends.sol\":18794:18828  withdrawnETH += deposits[i].amount */\n      dup9\n      tag_574\n      swap2\n      swap1\n      tag_420\n      jump\t// in\n    tag_574:\n      swap8\n      pop\n        /* \"PoolFamilyAndFriends.sol\":18767:18828  if (deposits[i].withdrawn) withdrawnETH += deposits[i].amount */\n    tag_570:\n        /* \"PoolFamilyAndFriends.sol\":18850:18858  deposits */\n      dup2\n        /* \"PoolFamilyAndFriends.sol\":18859:18860  i */\n      dup2\n        /* \"PoolFamilyAndFriends.sol\":18850:18861  deposits[i] */\n      dup2\n      sload\n      dup2\n      lt\n      tag_576\n      jumpi\n      tag_576\n      tag_444\n      jump\t// in\n    tag_576:\n      swap1\n      0x00\n      mstore\n      keccak256(0x00, 0x20)\n      swap1\n      0x06\n      mul\n      add\n        /* \"PoolFamilyAndFriends.sol\":18850:18876  deposits[i].isReinvestment */\n      0x03\n      add\n      0x03\n      swap1\n      sload\n      swap1\n      0x0100\n      exp\n      swap1\n      div\n      0xff\n      and\n        /* \"PoolFamilyAndFriends.sol\":18846:18913  if (deposits[i].isReinvestment) reinvestedETH += deposits[i].amount */\n      iszero\n      tag_578\n      jumpi\n        /* \"PoolFamilyAndFriends.sol\":18895:18903  deposits */\n      dup2\n        /* \"PoolFamilyAndFriends.sol\":18904:18905  i */\n      dup2\n        /* \"PoolFamilyAndFriends.sol\":18895:18906  deposits[i] */\n      dup2\n      sload\n      dup2\n      lt\n      tag_580\n      jumpi\n      tag_580\n      tag_444\n      jump\t// in\n    tag_580:\n      swap1\n      0x00\n      mstore\n      keccak256(0x00, 0x20)\n      swap1\n      0x06\n      mul\n      add\n        /* \"PoolFamilyAndFriends.sol\":18895:18913  deposits[i].amount */\n      0x01\n      add\n      sload\n        /* \"PoolFamilyAndFriends.sol\":18878:18913  reinvestedETH += deposits[i].amount */\n      dup5\n      tag_582\n      swap2\n      swap1\n      tag_420\n      jump\t// in\n    tag_582:\n      swap4\n      pop\n        /* \"PoolFamilyAndFriends.sol\":18846:18913  if (deposits[i].isReinvestment) reinvestedETH += deposits[i].amount */\n    tag_578:\n        /* \"PoolFamilyAndFriends.sol\":18657:19209  if (deposits[i].token == TokenType.ETH) {... */\n      jump(tag_607)\n    tag_562:\n        /* \"PoolFamilyAndFriends.sol\":18959:18973  TokenType.USDC */\n      0x01\n        /* \"PoolFamilyAndFriends.sol\":18938:18946  deposits */\n      dup3\n        /* \"PoolFamilyAndFriends.sol\":18947:18948  i */\n      dup3\n        /* \"PoolFamilyAndFriends.sol\":18938:18949  deposits[i] */\n      dup2\n      sload\n      dup2\n      lt\n      tag_587\n      jumpi\n      tag_587\n      tag_444\n      jump\t// in\n    tag_587:\n      0x00\n      swap2\n      dup3\n      mstore\n      0x20\n      swap1\n      swap2\n      keccak256\n      0x06\n      swap1\n      swap2\n      mul\n      add\n        /* \"PoolFamilyAndFriends.sol\":18938:18955  deposits[i].token */\n      sload\n      0xff\n      and\n      0x01\n        /* \"PoolFamilyAndFriends.sol\":18938:18973  deposits[i].token == TokenType.USDC */\n      dup2\n      gt\n      iszero\n      tag_590\n      jumpi\n      tag_590\n      tag_432\n      jump\t// in\n    tag_590:\n      sub\n        /* \"PoolFamilyAndFriends.sol\":18934:19209  if (deposits[i].token == TokenType.USDC) {... */\n      tag_607\n      jumpi\n        /* \"PoolFamilyAndFriends.sol\":19010:19018  deposits */\n      dup2\n        /* \"PoolFamilyAndFriends.sol\":19019:19020  i */\n      dup2\n        /* \"PoolFamilyAndFriends.sol\":19010:19021  deposits[i] */\n      dup2\n      sload\n      dup2\n      lt\n      tag_593\n      jumpi\n      tag_593\n      tag_444\n      jump\t// in\n    tag_593:\n      swap1\n      0x00\n      mstore\n      keccak256(0x00, 0x20)\n      swap1\n      0x06\n      mul\n      add\n        /* \"PoolFamilyAndFriends.sol\":19010:19028  deposits[i].amount */\n      0x01\n      add\n      sload\n        /* \"PoolFamilyAndFriends.sol\":18993:19028  depositedUSDC += deposits[i].amount */\n      dup10\n      tag_595\n      swap2\n      swap1\n      tag_420\n      jump\t// in\n    tag_595:\n      swap9\n      pop\n        /* \"PoolFamilyAndFriends.sol\":19050:19058  deposits */\n      dup2\n        /* \"PoolFamilyAndFriends.sol\":19059:19060  i */\n      dup2\n        /* \"PoolFamilyAndFriends.sol\":19050:19061  deposits[i] */\n      dup2\n      sload\n      dup2\n      lt\n      tag_597\n      jumpi\n      tag_597\n      tag_444\n      jump\t// in\n    tag_597:\n      0x00\n      swap2\n      dup3\n      mstore\n      0x20\n      swap1\n      swap2\n      keccak256\n        /* \"PoolFamilyAndFriends.sol\":19050:19071  deposits[i].withdrawn */\n      0x03\n        /* \"PoolFamilyAndFriends.sol\":19050:19061  deposits[i] */\n      0x06\n      swap1\n      swap3\n      mul\n      add\n        /* \"PoolFamilyAndFriends.sol\":19050:19071  deposits[i].withdrawn */\n      add\n      sload\n      0xff\n      and\n        /* \"PoolFamilyAndFriends.sol\":19046:19108  if (deposits[i].withdrawn) withdrawnUSDC += deposits[i].amount */\n      iszero\n      tag_599\n      jumpi\n        /* \"PoolFamilyAndFriends.sol\":19090:19098  deposits */\n      dup2\n        /* \"PoolFamilyAndFriends.sol\":19099:19100  i */\n      dup2\n        /* \"PoolFamilyAndFriends.sol\":19090:19101  deposits[i] */\n      dup2\n      sload\n      dup2\n      lt\n      tag_601\n      jumpi\n      tag_601\n      tag_444\n      jump\t// in\n    tag_601:\n      swap1\n      0x00\n      mstore\n      keccak256(0x00, 0x20)\n      swap1\n      0x06\n      mul\n      add\n        /* \"PoolFamilyAndFriends.sol\":19090:19108  deposits[i].amount */\n      0x01\n      add\n      sload\n        /* \"PoolFamilyAndFriends.sol\":19073:19108  withdrawnUSDC += deposits[i].amount */\n      dup8\n      tag_603\n      swap2\n      swap1\n      tag_420\n      jump\t// in\n    tag_603:\n      swap7\n      pop\n        /* \"PoolFamilyAndFriends.sol\":19046:19108  if (deposits[i].withdrawn) withdrawnUSDC += deposits[i].amount */\n    tag_599:\n        /* \"PoolFamilyAndFriends.sol\":19130:19138  deposits */\n      dup2\n        /* \"PoolFamilyAndFriends.sol\":19139:19140  i */\n      dup2\n        /* \"PoolFamilyAndFriends.sol\":19130:19141  deposits[i] */\n      dup2\n      sload\n      dup2\n      lt\n      tag_605\n      jumpi\n      tag_605\n      tag_444\n      jump\t// in\n    tag_605:\n      swap1\n      0x00\n      mstore\n      keccak256(0x00, 0x20)\n      swap1\n      0x06\n      mul\n      add\n        /* \"PoolFamilyAndFriends.sol\":19130:19156  deposits[i].isReinvestment */\n      0x03\n      add\n      0x03\n      swap1\n      sload\n      swap1\n      0x0100\n      exp\n      swap1\n      div\n      0xff\n      and\n        /* \"PoolFamilyAndFriends.sol\":19126:19194  if (deposits[i].isReinvestment) reinvestedUSDC += deposits[i].amount */\n      iszero\n      tag_607\n      jumpi\n        /* \"PoolFamilyAndFriends.sol\":19176:19184  deposits */\n      dup2\n        /* \"PoolFamilyAndFriends.sol\":19185:19186  i */\n      dup2\n        /* \"PoolFamilyAndFriends.sol\":19176:19187  deposits[i] */\n      dup2\n      sload\n      dup2\n      lt\n      tag_609\n      jumpi\n      tag_609\n      tag_444\n      jump\t// in\n    tag_609:\n      swap1\n      0x00\n      mstore\n      keccak256(0x00, 0x20)\n      swap1\n      0x06\n      mul\n      add\n        /* \"PoolFamilyAndFriends.sol\":19176:19194  deposits[i].amount */\n      0x01\n      add\n      sload\n        /* \"PoolFamilyAndFriends.sol\":19158:19194  reinvestedUSDC += deposits[i].amount */\n      dup4\n      tag_611\n      swap2\n      swap1\n      tag_420\n      jump\t// in\n    tag_611:\n      swap3\n      pop\n        /* \"PoolFamilyAndFriends.sol\":19126:19194  if (deposits[i].isReinvestment) reinvestedUSDC += deposits[i].amount */\n    tag_607:\n        /* \"PoolFamilyAndFriends.sol\":18638:18641  i++ */\n      0x01\n      add\n        /* \"PoolFamilyAndFriends.sol\":18597:19219  for (uint256 i = 0; i < deposits.length; i++) {... */\n      jump(tag_552)\n    tag_553:\n      pop\n      pop\n      sub(shl(0xa0, 0x01), 0x01)\n        /* \"PoolFamilyAndFriends.sol\":19250:19279  userClaimableUtilityETH[user] */\n      swap1\n      swap9\n      and\n      0x00\n      swap1\n      dup2\n      mstore\n        /* \"PoolFamilyAndFriends.sol\":19250:19273  userClaimableUtilityETH */\n      0x0b\n        /* \"PoolFamilyAndFriends.sol\":19250:19279  userClaimableUtilityETH[user] */\n      0x20\n      swap1\n      dup2\n      mstore\n      0x40\n      dup1\n      dup4\n      keccak256\n      sload\n        /* \"PoolFamilyAndFriends.sol\":19312:19336  userClaimableUtilityUSDC */\n      0x0c\n        /* \"PoolFamilyAndFriends.sol\":19312:19342  userClaimableUtilityUSDC[user] */\n      swap1\n      swap3\n      mstore\n      swap1\n      swap2\n      keccak256\n      sload\n        /* \"PoolFamilyAndFriends.sol\":18201:19349  function getUserStats(address user) external view returns (... */\n      swap8\n      swap10\n      swap7\n      swap9\n      swap6\n      swap8\n      swap5\n      swap7\n        /* \"PoolFamilyAndFriends.sol\":19250:19279  userClaimableUtilityETH[user] */\n      swap1\n      swap6\n        /* \"PoolFamilyAndFriends.sol\":18201:19349  function getUserStats(address user) external view returns (... */\n      swap2\n      swap4\n      pop\n      swap1\n      swap2\n      pop\n      jump\t// out\n        /* \"PoolFamilyAndFriends.sol\":5347:5515  function setWhitelist(address user, bool status) external onlyRole(ADMIN_ROLE) {... */\n    tag_204:\n      0x00\n      dup1\n      mload\n      0x20\n      data_cb864c43dd5d441bb6271f424f11befa622c032dfd374d226e26fbbdb782b8f8\n      dup4\n      codecopy\n      dup2\n      mload\n      swap2\n      mstore\n        /* \"@openzeppelin/contracts/access/AccessControl.sol\":2473:2489   */\n      tag_613\n        /* \"@openzeppelin/contracts/access/AccessControl.sol\":2484:2488   */\n      dup2\n        /* \"@openzeppelin/contracts/access/AccessControl.sol\":2473:2483   */\n      tag_405\n        /* \"@openzeppelin/contracts/access/AccessControl.sol\":2473:2489   */\n      jump\t// in\n    tag_613:\n      sub(shl(0xa0, 0x01), 0x01)\n        /* \"PoolFamilyAndFriends.sol\":5436:5455  isWhitelisted[user] */\n      dup4\n      and\n      0x00\n      dup2\n      dup2\n      mstore\n        /* \"PoolFamilyAndFriends.sol\":5436:5449  isWhitelisted */\n      0x09\n        /* \"PoolFamilyAndFriends.sol\":5436:5455  isWhitelisted[user] */\n      0x20\n      swap1\n      dup2\n      mstore\n      0x40\n      swap2\n      dup3\n      swap1\n      keccak256\n        /* \"PoolFamilyAndFriends.sol\":5436:5464  isWhitelisted[user] = status */\n      dup1\n      sload\n      not(0xff)\n      and\n      dup7\n      iszero\n      iszero\n      swap1\n      dup2\n      or\n      swap1\n      swap2\n      sstore\n        /* \"PoolFamilyAndFriends.sol\":5479:5508  UserWhitelisted(user, status) */\n      swap2\n      mload\n        /* \"#utility.yul\":541:582   */\n      swap2\n      dup3\n      mstore\n        /* \"PoolFamilyAndFriends.sol\":5479:5508  UserWhitelisted(user, status) */\n      0x995d2434d36c9bceaab42c56efe51e8ffe41fd11cabefd9e2cb83700d8b2035e\n      swap2\n        /* \"#utility.yul\":514:532   */\n      add\n        /* \"PoolFamilyAndFriends.sol\":5479:5508  UserWhitelisted(user, status) */\n      mload(0x40)\n      dup1\n      swap2\n      sub\n      swap1\n      log2\n        /* \"PoolFamilyAndFriends.sol\":5347:5515  function setWhitelist(address user, bool status) external onlyRole(ADMIN_ROLE) {... */\n      pop\n      pop\n      pop\n      jump\t// out\n        /* \"PoolFamilyAndFriends.sol\":12232:12486  function injectUtilityETH() external payable onlyRole(UTILITY_INJECTOR_ROLE) {... */\n    tag_219:\n        /* \"PoolFamilyAndFriends.sol\":1231:1265  keccak256(\"UTILITY_INJECTOR_ROLE\") */\n      0xf60566c40710959d8d30b6067ce3c53c757bec78eecb0e46b83c7f8194ffae37\n        /* \"@openzeppelin/contracts/access/AccessControl.sol\":2473:2489   */\n      tag_617\n        /* \"@openzeppelin/contracts/access/AccessControl.sol\":2484:2488   */\n      dup2\n        /* \"@openzeppelin/contracts/access/AccessControl.sol\":2473:2483   */\n      tag_405\n        /* \"@openzeppelin/contracts/access/AccessControl.sol\":2473:2489   */\n      jump\t// in\n    tag_617:\n        /* \"PoolFamilyAndFriends.sol\":12339:12340  0 */\n      0x00\n        /* \"PoolFamilyAndFriends.sol\":12327:12336  msg.value */\n      callvalue\n        /* \"PoolFamilyAndFriends.sol\":12327:12340  msg.value > 0 */\n      gt\n        /* \"PoolFamilyAndFriends.sol\":12319:12356  require(msg.value > 0, \"No ETH sent\") */\n      tag_619\n      jumpi\n      mload(0x40)\n      shl(0xe5, 0x461bcd)\n      dup2\n      mstore\n        /* \"#utility.yul\":16538:16540   */\n      0x20\n        /* \"PoolFamilyAndFriends.sol\":12319:12356  require(msg.value > 0, \"No ETH sent\") */\n      0x04\n      dup3\n      add\n        /* \"#utility.yul\":16520:16541   */\n      mstore\n        /* \"#utility.yul\":16577:16579   */\n      0x0b\n        /* \"#utility.yul\":16557:16575   */\n      0x24\n      dup3\n      add\n        /* \"#utility.yul\":16550:16580   */\n      mstore\n      shl(0xaa, 0x139bc8115512081cd95b9d)\n        /* \"#utility.yul\":16596:16614   */\n      0x44\n      dup3\n      add\n        /* \"#utility.yul\":16589:16630   */\n      mstore\n        /* \"#utility.yul\":16647:16665   */\n      0x64\n      add\n        /* \"PoolFamilyAndFriends.sol\":12319:12356  require(msg.value > 0, \"No ETH sent\") */\n      tag_415\n        /* \"#utility.yul\":16336:16671   */\n      jump\n        /* \"PoolFamilyAndFriends.sol\":12319:12356  require(msg.value > 0, \"No ETH sent\") */\n    tag_619:\n        /* \"PoolFamilyAndFriends.sol\":12385:12394  msg.value */\n      callvalue\n        /* \"PoolFamilyAndFriends.sol\":12366:12381  totalUtilityETH */\n      0x16\n      0x00\n        /* \"PoolFamilyAndFriends.sol\":12366:12394  totalUtilityETH += msg.value */\n      dup3\n      dup3\n      sload\n      tag_622\n      swap2\n      swap1\n      tag_420\n      jump\t// in\n    tag_622:\n      swap1\n      swap2\n      sstore\n      pop\n      pop\n        /* \"PoolFamilyAndFriends.sol\":12409:12479  UtilityInjected(msg.sender, TokenType.ETH, msg.value, block.timestamp) */\n      mload(0x40)\n        /* \"PoolFamilyAndFriends.sol\":12425:12435  msg.sender */\n      caller\n      swap1\n        /* \"PoolFamilyAndFriends.sol\":12409:12479  UtilityInjected(msg.sender, TokenType.ETH, msg.value, block.timestamp) */\n      0x8bafec96fcffb6f12596b4635c76397b7bc1f363b22c49c13136b63677323dcc\n      swap1\n      tag_623\n      swap1\n        /* \"PoolFamilyAndFriends.sol\":12437:12450  TokenType.ETH */\n      0x00\n      swap1\n        /* \"PoolFamilyAndFriends.sol\":12452:12461  msg.value */\n      callvalue\n      swap1\n        /* \"PoolFamilyAndFriends.sol\":12463:12478  block.timestamp */\n      timestamp\n      swap1\n        /* \"PoolFamilyAndFriends.sol\":12409:12479  UtilityInjected(msg.sender, TokenType.ETH, msg.value, block.timestamp) */\n      tag_423\n      jump\t// in\n    tag_623:\n      mload(0x40)\n      dup1\n      swap2\n      sub\n      swap1\n      log2\n        /* \"PoolFamilyAndFriends.sol\":12232:12486  function injectUtilityETH() external payable onlyRole(UTILITY_INJECTOR_ROLE) {... */\n      pop\n      jump\t// out\n        /* \"PoolFamilyAndFriends.sol\":4997:5219  function setPaused(bool _deposits, bool _withdrawals) external onlyRole(PAUSER_ROLE) {... */\n    tag_224:\n        /* \"PoolFamilyAndFriends.sol\":1081:1105  keccak256(\"PAUSER_ROLE\") */\n      0x65d7a28e3265b37a6474929f336521b332c1681b933f6cb9f3376673440d862a\n        /* \"@openzeppelin/contracts/access/AccessControl.sol\":2473:2489   */\n      tag_625\n        /* \"@openzeppelin/contracts/access/AccessControl.sol\":2484:2488   */\n      dup2\n        /* \"@openzeppelin/contracts/access/AccessControl.sol\":2473:2483   */\n      tag_405\n        /* \"@openzeppelin/contracts/access/AccessControl.sol\":2473:2489   */\n      jump\t// in\n    tag_625:\n        /* \"PoolFamilyAndFriends.sol\":5092:5106  pausedDeposits */\n      0x05\n        /* \"PoolFamilyAndFriends.sol\":5092:5118  pausedDeposits = _deposits */\n      dup1\n      sload\n        /* \"PoolFamilyAndFriends.sol\":5128:5160  pausedWithdrawals = _withdrawals */\n      dup4\n      iszero\n      iszero\n        /* \"PoolFamilyAndFriends.sol\":5092:5118  pausedDeposits = _deposits */\n      0x0100\n        /* \"PoolFamilyAndFriends.sol\":5128:5160  pausedWithdrawals = _withdrawals */\n      dup2\n      mul\n      not(0xff00)\n        /* \"PoolFamilyAndFriends.sol\":5092:5118  pausedDeposits = _deposits */\n      dup8\n      iszero\n      iszero\n        /* \"PoolFamilyAndFriends.sol\":5128:5160  pausedWithdrawals = _withdrawals */\n      swap1\n      dup2\n      and\n      not(0xffff)\n      swap1\n      swap5\n      and\n      swap4\n      swap1\n      swap4\n      or\n      or\n      swap1\n      swap3\n      sstore\n        /* \"PoolFamilyAndFriends.sol\":5175:5212  PauseChanged(_deposits, _withdrawals) */\n      0x40\n      dup1\n      mload\n        /* \"#utility.yul\":16838:16879   */\n      swap2\n      dup3\n      mstore\n        /* \"#utility.yul\":16910:16912   */\n      0x20\n        /* \"#utility.yul\":16895:16913   */\n      dup3\n      add\n        /* \"#utility.yul\":16888:16938   */\n      swap3\n      swap1\n      swap3\n      mstore\n        /* \"PoolFamilyAndFriends.sol\":5175:5212  PauseChanged(_deposits, _withdrawals) */\n      0xac1664632d6278432aa05a6afc0aa83e5ea08e8df9a1436736daa5d6283211c0\n      swap2\n        /* \"#utility.yul\":16811:16829   */\n      add\n        /* \"PoolFamilyAndFriends.sol\":5175:5212  PauseChanged(_deposits, _withdrawals) */\n    tag_627:\n      mload(0x40)\n      dup1\n      swap2\n      sub\n      swap1\n      log1\n        /* \"PoolFamilyAndFriends.sol\":4997:5219  function setPaused(bool _deposits, bool _withdrawals) external onlyRole(PAUSER_ROLE) {... */\n      pop\n      pop\n      pop\n      jump\t// out\n        /* \"PoolFamilyAndFriends.sol\":14949:15293  function claimUtilityUSDC() external nonReentrant {... */\n    tag_227:\n        /* \"@openzeppelin/contracts/utils/ReentrancyGuard.sol\":2500:2521   */\n      tag_630\n        /* \"@openzeppelin/contracts/utils/ReentrancyGuard.sol\":2500:2519   */\n      tag_412\n        /* \"@openzeppelin/contracts/utils/ReentrancyGuard.sol\":2500:2521   */\n      jump\t// in\n    tag_630:\n        /* \"PoolFamilyAndFriends.sol\":15051:15061  msg.sender */\n      caller\n        /* \"PoolFamilyAndFriends.sol\":15009:15023  uint256 amount */\n      0x00\n        /* \"PoolFamilyAndFriends.sol\":15026:15062  userClaimableUtilityUSDC[msg.sender] */\n      swap1\n      dup2\n      mstore\n        /* \"PoolFamilyAndFriends.sol\":15026:15050  userClaimableUtilityUSDC */\n      0x0c\n        /* \"PoolFamilyAndFriends.sol\":15026:15062  userClaimableUtilityUSDC[msg.sender] */\n      0x20\n      mstore\n      0x40\n      swap1\n      keccak256\n      sload\n        /* \"PoolFamilyAndFriends.sol\":15080:15090  amount > 0 */\n      dup1\n        /* \"PoolFamilyAndFriends.sol\":15072:15105  require(amount > 0, \"No utility\") */\n      tag_632\n      jumpi\n      mload(0x40)\n      shl(0xe5, 0x461bcd)\n      dup2\n      mstore\n        /* \"#utility.yul\":11663:11665   */\n      0x20\n        /* \"PoolFamilyAndFriends.sol\":15072:15105  require(amount > 0, \"No utility\") */\n      0x04\n      dup3\n      add\n        /* \"#utility.yul\":11645:11666   */\n      mstore\n        /* \"#utility.yul\":11702:11704   */\n      0x0a\n        /* \"#utility.yul\":11682:11700   */\n      0x24\n      dup3\n      add\n        /* \"#utility.yul\":11675:11705   */\n      mstore\n      shl(0xb0, 0x4e6f207574696c697479)\n        /* \"#utility.yul\":11721:11739   */\n      0x44\n      dup3\n      add\n        /* \"#utility.yul\":11714:11754   */\n      mstore\n        /* \"#utility.yul\":11771:11789   */\n      0x64\n      add\n        /* \"PoolFamilyAndFriends.sol\":15072:15105  require(amount > 0, \"No utility\") */\n      tag_415\n        /* \"#utility.yul\":11461:11795   */\n      jump\n        /* \"PoolFamilyAndFriends.sol\":15072:15105  require(amount > 0, \"No utility\") */\n    tag_632:\n        /* \"PoolFamilyAndFriends.sol\":15140:15150  msg.sender */\n      caller\n        /* \"PoolFamilyAndFriends.sol\":15154:15155  0 */\n      0x00\n        /* \"PoolFamilyAndFriends.sol\":15115:15151  userClaimableUtilityUSDC[msg.sender] */\n      dup2\n      dup2\n      mstore\n        /* \"PoolFamilyAndFriends.sol\":15115:15139  userClaimableUtilityUSDC */\n      0x0c\n        /* \"PoolFamilyAndFriends.sol\":15115:15151  userClaimableUtilityUSDC[msg.sender] */\n      0x20\n      mstore\n      0x40\n      dup1\n      dup3\n      keccak256\n        /* \"PoolFamilyAndFriends.sol\":15115:15155  userClaimableUtilityUSDC[msg.sender] = 0 */\n      swap2\n      swap1\n      swap2\n      sstore\n        /* \"PoolFamilyAndFriends.sol\":15165:15206  IERC20(USDC).transfer(msg.sender, amount) */\n      mload\n      shl(0xe0, 0xa9059cbb)\n      dup2\n      mstore\n      0x04\n      dup2\n      add\n        /* \"#utility.yul\":14317:14391   */\n      swap2\n      swap1\n      swap2\n      mstore\n        /* \"#utility.yul\":14407:14425   */\n      0x24\n      dup2\n      add\n        /* \"#utility.yul\":14400:14434   */\n      dup3\n      swap1\n      mstore\n        /* \"PoolFamilyAndFriends.sol\":526:568  0x833589fCD6eDb6E08f4c7C32D4f71b54bdA02913 */\n      0x833589fcd6edb6e08f4c7c32d4f71b54bda02913\n      swap1\n        /* \"PoolFamilyAndFriends.sol\":15165:15186  IERC20(USDC).transfer */\n      0xa9059cbb\n      swap1\n        /* \"#utility.yul\":14290:14308   */\n      0x44\n      add\n        /* \"PoolFamilyAndFriends.sol\":15165:15206  IERC20(USDC).transfer(msg.sender, amount) */\n      0x20\n      mload(0x40)\n      dup1\n      dup4\n      sub\n      dup2\n      0x00\n      dup8\n      gas\n      call\n      iszero\n      dup1\n      iszero\n      tag_636\n      jumpi\n      returndatasize\n      0x00\n      dup1\n      returndatacopy\n      revert(0x00, returndatasize)\n    tag_636:\n      pop\n      pop\n      pop\n      pop\n      mload(0x40)\n      returndatasize\n      not(0x1f)\n      0x1f\n      dup3\n      add\n      and\n      dup3\n      add\n      dup1\n      0x40\n      mstore\n      pop\n      dup2\n      add\n      swap1\n      tag_637\n      swap2\n      swap1\n      tag_484\n      jump\t// in\n    tag_637:\n      pop\n        /* \"PoolFamilyAndFriends.sol\":15234:15244  msg.sender */\n      caller\n      sub(shl(0xa0, 0x01), 0x01)\n        /* \"PoolFamilyAndFriends.sol\":15221:15286  ClaimUtility(msg.sender, TokenType.USDC, amount, block.timestamp) */\n      and\n      0x6914793c7a82461acec66c7de7fdbbbf1f825c26bc2fe939b61f0e4f8964c2b5\n        /* \"PoolFamilyAndFriends.sol\":15246:15260  TokenType.USDC */\n      0x01\n        /* \"PoolFamilyAndFriends.sol\":15262:15268  amount */\n      dup4\n        /* \"PoolFamilyAndFriends.sol\":15270:15285  block.timestamp */\n      timestamp\n        /* \"PoolFamilyAndFriends.sol\":15221:15286  ClaimUtility(msg.sender, TokenType.USDC, amount, block.timestamp) */\n      mload(0x40)\n      tag_422\n      swap4\n      swap3\n      swap2\n      swap1\n      tag_423\n      jump\t// in\n        /* \"PoolFamilyAndFriends.sol\":12876:13150  function assignUtilityETH(address user, uint256 amount) external onlyRole(ADMIN_ROLE) {... */\n    tag_231:\n      0x00\n      dup1\n      mload\n      0x20\n      data_cb864c43dd5d441bb6271f424f11befa622c032dfd374d226e26fbbdb782b8f8\n      dup4\n      codecopy\n      dup2\n      mload\n      swap2\n      mstore\n        /* \"@openzeppelin/contracts/access/AccessControl.sol\":2473:2489   */\n      tag_641\n        /* \"@openzeppelin/contracts/access/AccessControl.sol\":2484:2488   */\n      dup2\n        /* \"@openzeppelin/contracts/access/AccessControl.sol\":2473:2483   */\n      tag_405\n        /* \"@openzeppelin/contracts/access/AccessControl.sol\":2473:2489   */\n      jump\t// in\n    tag_641:\n        /* \"PoolFamilyAndFriends.sol\":12989:12990  0 */\n      0x00\n        /* \"PoolFamilyAndFriends.sol\":12980:12986  amount */\n      dup3\n        /* \"PoolFamilyAndFriends.sol\":12980:12990  amount > 0 */\n      gt\n        /* \"PoolFamilyAndFriends.sol\":12972:12999  require(amount > 0, \"Zero\") */\n      tag_643\n      jumpi\n      mload(0x40)\n      shl(0xe5, 0x461bcd)\n      dup2\n      mstore\n      0x04\n      add\n      tag_415\n      swap1\n        /* \"#utility.yul\":15732:15734   */\n      0x20\n        /* \"#utility.yul\":15714:15735   */\n      dup1\n      dup3\n      mstore\n        /* \"#utility.yul\":15771:15772   */\n      0x04\n        /* \"#utility.yul\":15751:15769   */\n      swap1\n      dup3\n      add\n        /* \"#utility.yul\":15744:15773   */\n      mstore\n      shl(0xe0, 0x5a65726f)\n        /* \"#utility.yul\":15804:15806   */\n      0x40\n        /* \"#utility.yul\":15789:15807   */\n      dup3\n      add\n        /* \"#utility.yul\":15782:15816   */\n      mstore\n        /* \"#utility.yul\":15848:15850   */\n      0x60\n        /* \"#utility.yul\":15833:15851   */\n      add\n      swap1\n        /* \"#utility.yul\":15530:15857   */\n      jump\n        /* \"PoolFamilyAndFriends.sol\":12972:12999  require(amount > 0, \"Zero\") */\n    tag_643:\n        /* \"PoolFamilyAndFriends.sol\":13027:13042  totalUtilityETH */\n      sload(0x16)\n        /* \"PoolFamilyAndFriends.sol\":13017:13023  amount */\n      dup3\n        /* \"PoolFamilyAndFriends.sol\":13017:13042  amount <= totalUtilityETH */\n      gt\n      iszero\n        /* \"PoolFamilyAndFriends.sol\":13009:13059  require(amount <= totalUtilityETH, \"Exceeds pool\") */\n      tag_645\n      jumpi\n      mload(0x40)\n      shl(0xe5, 0x461bcd)\n      dup2\n      mstore\n        /* \"#utility.yul\":16064:16066   */\n      0x20\n        /* \"PoolFamilyAndFriends.sol\":13009:13059  require(amount <= totalUtilityETH, \"Exceeds pool\") */\n      0x04\n      dup3\n      add\n        /* \"#utility.yul\":16046:16067   */\n      mstore\n        /* \"#utility.yul\":16103:16105   */\n      0x0c\n        /* \"#utility.yul\":16083:16101   */\n      0x24\n      dup3\n      add\n        /* \"#utility.yul\":16076:16106   */\n      mstore\n      shl(0xa2, 0x115e18d959591cc81c1bdbdb)\n        /* \"#utility.yul\":16122:16140   */\n      0x44\n      dup3\n      add\n        /* \"#utility.yul\":16115:16157   */\n      mstore\n        /* \"#utility.yul\":16174:16192   */\n      0x64\n      add\n        /* \"PoolFamilyAndFriends.sol\":13009:13059  require(amount <= totalUtilityETH, \"Exceeds pool\") */\n      tag_415\n        /* \"#utility.yul\":15862:16198   */\n      jump\n        /* \"PoolFamilyAndFriends.sol\":13009:13059  require(amount <= totalUtilityETH, \"Exceeds pool\") */\n    tag_645:\n      sub(shl(0xa0, 0x01), 0x01)\n        /* \"PoolFamilyAndFriends.sol\":13069:13098  userClaimableUtilityETH[user] */\n      dup4\n      and\n      0x00\n      swap1\n      dup2\n      mstore\n        /* \"PoolFamilyAndFriends.sol\":13069:13092  userClaimableUtilityETH */\n      0x0b\n        /* \"PoolFamilyAndFriends.sol\":13069:13098  userClaimableUtilityETH[user] */\n      0x20\n      mstore\n      0x40\n      dup2\n      keccak256\n        /* \"PoolFamilyAndFriends.sol\":13069:13108  userClaimableUtilityETH[user] += amount */\n      dup1\n      sload\n        /* \"PoolFamilyAndFriends.sol\":13102:13108  amount */\n      dup5\n      swap3\n        /* \"PoolFamilyAndFriends.sol\":13069:13098  userClaimableUtilityETH[user] */\n      swap1\n        /* \"PoolFamilyAndFriends.sol\":13069:13108  userClaimableUtilityETH[user] += amount */\n      tag_647\n      swap1\n        /* \"PoolFamilyAndFriends.sol\":13102:13108  amount */\n      dup5\n      swap1\n        /* \"PoolFamilyAndFriends.sol\":13069:13108  userClaimableUtilityETH[user] += amount */\n      tag_420\n      jump\t// in\n    tag_647:\n      swap3\n      pop\n      pop\n      dup2\n      swap1\n      sstore\n      pop\n        /* \"PoolFamilyAndFriends.sol\":13137:13143  amount */\n      dup2\n        /* \"PoolFamilyAndFriends.sol\":13118:13133  totalUtilityETH */\n      0x16\n      0x00\n        /* \"PoolFamilyAndFriends.sol\":13118:13143  totalUtilityETH -= amount */\n      dup3\n      dup3\n      sload\n      tag_648\n      swap2\n      swap1\n      tag_529\n      jump\t// in\n    tag_648:\n      swap1\n      swap2\n      sstore\n      pop\n      pop\n      pop\n      pop\n      pop\n        /* \"PoolFamilyAndFriends.sol\":12876:13150  function assignUtilityETH(address user, uint256 amount) external onlyRole(ADMIN_ROLE) {... */\n      jump\t// out\n        /* \"PoolFamilyAndFriends.sol\":8991:11089  function batchWithdraw(uint256[] calldata depositIndices) external nonReentrant whenWithdrawalsNotPaused {... */\n    tag_236:\n        /* \"@openzeppelin/contracts/utils/ReentrancyGuard.sol\":2500:2521   */\n      tag_650\n        /* \"@openzeppelin/contracts/utils/ReentrancyGuard.sol\":2500:2519   */\n      tag_412\n        /* \"@openzeppelin/contracts/utils/ReentrancyGuard.sol\":2500:2521   */\n      jump\t// in\n    tag_650:\n        /* \"PoolFamilyAndFriends.sol\":3910:3927  pausedWithdrawals */\n      sload(0x05)\n      0x0100\n      swap1\n      div\n      0xff\n      and\n        /* \"PoolFamilyAndFriends.sol\":3909:3927  !pausedWithdrawals */\n      iszero\n        /* \"PoolFamilyAndFriends.sol\":3901:3950  require(!pausedWithdrawals, \"Withdrawals paused\") */\n      tag_652\n      jumpi\n      mload(0x40)\n      shl(0xe5, 0x461bcd)\n      dup2\n      mstore\n        /* \"#utility.yul\":12619:12621   */\n      0x20\n        /* \"PoolFamilyAndFriends.sol\":3901:3950  require(!pausedWithdrawals, \"Withdrawals paused\") */\n      0x04\n      dup3\n      add\n        /* \"#utility.yul\":12601:12622   */\n      mstore\n        /* \"#utility.yul\":12658:12660   */\n      0x12\n        /* \"#utility.yul\":12638:12656   */\n      0x24\n      dup3\n      add\n        /* \"#utility.yul\":12631:12661   */\n      mstore\n        /* \"#utility.yul\":12697:12717   */\n      0x5769746864726177616c73207061757365640000000000000000000000000000\n        /* \"#utility.yul\":12677:12695   */\n      0x44\n      dup3\n      add\n        /* \"#utility.yul\":12670:12718   */\n      mstore\n        /* \"#utility.yul\":12735:12753   */\n      0x64\n      add\n        /* \"PoolFamilyAndFriends.sol\":3901:3950  require(!pausedWithdrawals, \"Withdrawals paused\") */\n      tag_415\n        /* \"#utility.yul\":12417:12759   */\n      jump\n        /* \"PoolFamilyAndFriends.sol\":3901:3950  require(!pausedWithdrawals, \"Withdrawals paused\") */\n    tag_652:\n        /* \"PoolFamilyAndFriends.sol\":9106:9131  uint256 totalPrincipalETH */\n      0x00\n        /* \"PoolFamilyAndFriends.sol\":9141:9162  uint256 totalYieldETH */\n      dup1\n        /* \"PoolFamilyAndFriends.sol\":9172:9198  uint256 totalPrincipalUSDC */\n      0x00\n        /* \"PoolFamilyAndFriends.sol\":9208:9230  uint256 totalYieldUSDC */\n      dup1\n        /* \"PoolFamilyAndFriends.sol\":9245:9254  uint256 i */\n      0x00\n        /* \"PoolFamilyAndFriends.sol\":9240:10469  for (uint256 i = 0; i < depositIndices.length; i++) {... */\n    tag_655:\n        /* \"PoolFamilyAndFriends.sol\":9260:9285  i < depositIndices.length */\n      dup6\n      dup2\n      lt\n        /* \"PoolFamilyAndFriends.sol\":9240:10469  for (uint256 i = 0; i < depositIndices.length; i++) {... */\n      iszero\n      tag_656\n      jumpi\n        /* \"PoolFamilyAndFriends.sol\":9345:9355  msg.sender */\n      caller\n        /* \"PoolFamilyAndFriends.sol\":9306:9329  DepositInfo storage dep */\n      0x00\n        /* \"PoolFamilyAndFriends.sol\":9332:9356  userDeposits[msg.sender] */\n      swap1\n      dup2\n      mstore\n        /* \"PoolFamilyAndFriends.sol\":9332:9344  userDeposits */\n      0x08\n        /* \"PoolFamilyAndFriends.sol\":9332:9356  userDeposits[msg.sender] */\n      0x20\n      mstore\n      0x40\n      dup2\n      keccak256\n        /* \"PoolFamilyAndFriends.sol\":9357:9371  depositIndices */\n      dup9\n      dup9\n        /* \"PoolFamilyAndFriends.sol\":9372:9373  i */\n      dup5\n        /* \"PoolFamilyAndFriends.sol\":9357:9374  depositIndices[i] */\n      dup2\n      dup2\n      lt\n      tag_659\n      jumpi\n      tag_659\n      tag_444\n      jump\t// in\n    tag_659:\n      swap1\n      pop\n      0x20\n      mul\n      add\n      calldataload\n        /* \"PoolFamilyAndFriends.sol\":9332:9375  userDeposits[msg.sender][depositIndices[i]] */\n      dup2\n      sload\n      dup2\n      lt\n      tag_661\n      jumpi\n      tag_661\n      tag_444\n      jump\t// in\n    tag_661:\n      0x00\n      swap2\n      dup3\n      mstore\n      0x20\n      swap1\n      swap2\n      keccak256\n      0x06\n      swap1\n      swap2\n      mul\n      add\n        /* \"PoolFamilyAndFriends.sol\":9398:9411  dep.withdrawn */\n      0x03\n      dup2\n      add\n      sload\n        /* \"PoolFamilyAndFriends.sol\":9332:9375  userDeposits[msg.sender][depositIndices[i]] */\n      swap1\n      swap2\n      pop\n        /* \"PoolFamilyAndFriends.sol\":9398:9411  dep.withdrawn */\n      0xff\n      and\n        /* \"PoolFamilyAndFriends.sol\":9397:9411  !dep.withdrawn */\n      iszero\n        /* \"PoolFamilyAndFriends.sol\":9389:9433  require(!dep.withdrawn, \"Already withdrawn\") */\n      tag_663\n      jumpi\n      mload(0x40)\n      shl(0xe5, 0x461bcd)\n      dup2\n      mstore\n        /* \"#utility.yul\":13098:13100   */\n      0x20\n        /* \"PoolFamilyAndFriends.sol\":9389:9433  require(!dep.withdrawn, \"Already withdrawn\") */\n      0x04\n      dup3\n      add\n        /* \"#utility.yul\":13080:13101   */\n      mstore\n        /* \"#utility.yul\":13137:13139   */\n      0x11\n        /* \"#utility.yul\":13117:13135   */\n      0x24\n      dup3\n      add\n        /* \"#utility.yul\":13110:13140   */\n      mstore\n        /* \"#utility.yul\":13176:13195   */\n      0x416c72656164792077697468647261776e000000000000000000000000000000\n        /* \"#utility.yul\":13156:13174   */\n      0x44\n      dup3\n      add\n        /* \"#utility.yul\":13149:13196   */\n      mstore\n        /* \"#utility.yul\":13213:13231   */\n      0x64\n      add\n        /* \"PoolFamilyAndFriends.sol\":9389:9433  require(!dep.withdrawn, \"Already withdrawn\") */\n      tag_415\n        /* \"#utility.yul\":12896:13237   */\n      jump\n        /* \"PoolFamilyAndFriends.sol\":9389:9433  require(!dep.withdrawn, \"Already withdrawn\") */\n    tag_663:\n        /* \"PoolFamilyAndFriends.sol\":9507:9519  lockupPeriod */\n      sload(0x02)\n        /* \"PoolFamilyAndFriends.sol\":9491:9494  dep */\n      dup2\n        /* \"PoolFamilyAndFriends.sol\":9491:9504  dep.timestamp */\n      0x02\n      add\n      sload\n        /* \"PoolFamilyAndFriends.sol\":9491:9519  dep.timestamp + lockupPeriod */\n      tag_665\n      swap2\n      swap1\n      tag_420\n      jump\t// in\n    tag_665:\n        /* \"PoolFamilyAndFriends.sol\":9472:9487  block.timestamp */\n      timestamp\n        /* \"PoolFamilyAndFriends.sol\":9472:9519  block.timestamp >= dep.timestamp + lockupPeriod */\n      lt\n      iszero\n        /* \"PoolFamilyAndFriends.sol\":9472:9558  block.timestamp >= dep.timestamp + lockupPeriod ||... */\n      dup1\n      tag_666\n      jumpi\n      pop\n        /* \"PoolFamilyAndFriends.sol\":9539:9558  dep.unlockedByAdmin */\n      0x03\n      dup2\n      add\n      sload\n      0x0100\n      swap1\n      div\n      0xff\n      and\n        /* \"PoolFamilyAndFriends.sol\":9472:9558  block.timestamp >= dep.timestamp + lockupPeriod ||... */\n    tag_666:\n        /* \"PoolFamilyAndFriends.sol\":9472:9627  block.timestamp >= dep.timestamp + lockupPeriod ||... */\n      dup1\n      tag_668\n      jumpi\n      pop\n        /* \"PoolFamilyAndFriends.sol\":9579:9603  globalLiquidationEnabled */\n      sload(0x05)\n      0x01000000\n      swap1\n      div\n      0xff\n      and\n        /* \"PoolFamilyAndFriends.sol\":9579:9626  globalLiquidationEnabled && dep.fullyRedeemable */\n      dup1\n      iszero\n      tag_668\n      jumpi\n      pop\n        /* \"PoolFamilyAndFriends.sol\":9607:9626  dep.fullyRedeemable */\n      0x03\n      dup2\n      add\n      sload\n      0x010000\n      swap1\n      div\n      0xff\n      and\n        /* \"PoolFamilyAndFriends.sol\":9579:9626  globalLiquidationEnabled && dep.fullyRedeemable */\n    tag_668:\n        /* \"PoolFamilyAndFriends.sol\":9447:9675  require(... */\n      tag_669\n      jumpi\n      mload(0x40)\n      shl(0xe5, 0x461bcd)\n      dup2\n      mstore\n        /* \"#utility.yul\":13444:13446   */\n      0x20\n        /* \"PoolFamilyAndFriends.sol\":9447:9675  require(... */\n      0x04\n      dup3\n      add\n        /* \"#utility.yul\":13426:13447   */\n      mstore\n        /* \"#utility.yul\":13483:13485   */\n      0x0e\n        /* \"#utility.yul\":13463:13481   */\n      0x24\n      dup3\n      add\n        /* \"#utility.yul\":13456:13486   */\n      mstore\n      shl(0x92, 0x11195c1bdcda5d081b1bd8dad959)\n        /* \"#utility.yul\":13502:13520   */\n      0x44\n      dup3\n      add\n        /* \"#utility.yul\":13495:13539   */\n      mstore\n        /* \"#utility.yul\":13556:13574   */\n      0x64\n      add\n        /* \"PoolFamilyAndFriends.sol\":9447:9675  require(... */\n      tag_415\n        /* \"#utility.yul\":13242:13580   */\n      jump\n        /* \"PoolFamilyAndFriends.sol\":9447:9675  require(... */\n    tag_669:\n        /* \"PoolFamilyAndFriends.sol\":9689:9702  dep.withdrawn */\n      0x03\n      dup2\n      add\n        /* \"PoolFamilyAndFriends.sol\":9689:9709  dep.withdrawn = true */\n      dup1\n      sload\n      not(0xff)\n      and\n        /* \"PoolFamilyAndFriends.sol\":9705:9709  true */\n      0x01\n        /* \"PoolFamilyAndFriends.sol\":9689:9709  dep.withdrawn = true */\n      or\n      swap1\n      sstore\n        /* \"PoolFamilyAndFriends.sol\":9741:9756  block.timestamp */\n      timestamp\n        /* \"PoolFamilyAndFriends.sol\":9723:9738  dep.withdrawnAt */\n      0x04\n      dup3\n      add\n        /* \"PoolFamilyAndFriends.sol\":9723:9756  dep.withdrawnAt = block.timestamp */\n      sstore\n        /* \"PoolFamilyAndFriends.sol\":9786:9803  dep.yieldReceived */\n      0x05\n      dup2\n      add\n      sload\n        /* \"PoolFamilyAndFriends.sol\":9689:9702  dep.withdrawn */\n      0x00\n        /* \"PoolFamilyAndFriends.sol\":9821:9830  dep.token */\n      dup3\n      sload\n      0xff\n      and\n      0x01\n        /* \"PoolFamilyAndFriends.sol\":9821:9847  dep.token == TokenType.ETH */\n      dup2\n      gt\n      iszero\n      tag_674\n      jumpi\n      tag_674\n      tag_432\n      jump\t// in\n    tag_674:\n      sub\n        /* \"PoolFamilyAndFriends.sol\":9817:10197  if (dep.token == TokenType.ETH) {... */\n      tag_675\n      jumpi\n        /* \"PoolFamilyAndFriends.sol\":9888:9891  dep */\n      dup2\n        /* \"PoolFamilyAndFriends.sol\":9888:9898  dep.amount */\n      0x01\n      add\n      sload\n        /* \"PoolFamilyAndFriends.sol\":9867:9884  totalWithdrawnETH */\n      0x14\n      0x00\n        /* \"PoolFamilyAndFriends.sol\":9867:9898  totalWithdrawnETH += dep.amount */\n      dup3\n      dup3\n      sload\n      tag_676\n      swap2\n      swap1\n      tag_420\n      jump\t// in\n    tag_676:\n      swap1\n      swap2\n      sstore\n      pop\n      pop\n        /* \"PoolFamilyAndFriends.sol\":9937:9947  dep.amount */\n      0x01\n      dup3\n      add\n      sload\n        /* \"PoolFamilyAndFriends.sol\":9916:9947  totalPrincipalETH += dep.amount */\n      tag_677\n      swap1\n      dup9\n      tag_420\n      jump\t// in\n    tag_677:\n      swap7\n      pop\n        /* \"PoolFamilyAndFriends.sol\":9965:9987  totalYieldETH += yield */\n      tag_678\n        /* \"PoolFamilyAndFriends.sol\":9982:9987  yield */\n      dup2\n        /* \"PoolFamilyAndFriends.sol\":9965:9987  totalYieldETH += yield */\n      dup8\n      tag_420\n      jump\t// in\n    tag_678:\n      swap6\n      pop\n        /* \"PoolFamilyAndFriends.sol\":9817:10197  if (dep.token == TokenType.ETH) {... */\n      jump(tag_684)\n    tag_675:\n        /* \"PoolFamilyAndFriends.sol\":10025:10039  TokenType.USDC */\n      0x01\n        /* \"PoolFamilyAndFriends.sol\":10012:10021  dep.token */\n      dup3\n      sload\n      0xff\n      and\n      0x01\n        /* \"PoolFamilyAndFriends.sol\":10012:10039  dep.token == TokenType.USDC */\n      dup2\n      gt\n      iszero\n      tag_683\n      jumpi\n      tag_683\n      tag_432\n      jump\t// in\n    tag_683:\n      sub\n        /* \"PoolFamilyAndFriends.sol\":10008:10197  if (dep.token == TokenType.USDC) {... */\n      tag_684\n      jumpi\n        /* \"PoolFamilyAndFriends.sol\":10081:10084  dep */\n      dup2\n        /* \"PoolFamilyAndFriends.sol\":10081:10091  dep.amount */\n      0x01\n      add\n      sload\n        /* \"PoolFamilyAndFriends.sol\":10059:10077  totalWithdrawnUSDC */\n      0x15\n      0x00\n        /* \"PoolFamilyAndFriends.sol\":10059:10091  totalWithdrawnUSDC += dep.amount */\n      dup3\n      dup3\n      sload\n      tag_685\n      swap2\n      swap1\n      tag_420\n      jump\t// in\n    tag_685:\n      swap1\n      swap2\n      sstore\n      pop\n      pop\n        /* \"PoolFamilyAndFriends.sol\":10131:10141  dep.amount */\n      0x01\n      dup3\n      add\n      sload\n        /* \"PoolFamilyAndFriends.sol\":10109:10141  totalPrincipalUSDC += dep.amount */\n      tag_686\n      swap1\n      dup7\n      tag_420\n      jump\t// in\n    tag_686:\n      swap5\n      pop\n        /* \"PoolFamilyAndFriends.sol\":10159:10182  totalYieldUSDC += yield */\n      tag_687\n        /* \"PoolFamilyAndFriends.sol\":10177:10182  yield */\n      dup2\n        /* \"PoolFamilyAndFriends.sol\":10159:10182  totalYieldUSDC += yield */\n      dup6\n      tag_420\n      jump\t// in\n    tag_687:\n      swap4\n      pop\n        /* \"PoolFamilyAndFriends.sol\":10008:10197  if (dep.token == TokenType.USDC) {... */\n    tag_684:\n        /* \"PoolFamilyAndFriends.sol\":10228:10238  msg.sender */\n      caller\n        /* \"PoolFamilyAndFriends.sol\":10215:10239  hasWithdrawn[msg.sender] */\n      0x00\n      swap1\n      dup2\n      mstore\n        /* \"PoolFamilyAndFriends.sol\":10215:10227  hasWithdrawn */\n      0x0a\n        /* \"PoolFamilyAndFriends.sol\":10215:10239  hasWithdrawn[msg.sender] */\n      0x20\n      mstore\n      0x40\n      swap1\n      keccak256\n      sload\n      0xff\n      and\n        /* \"PoolFamilyAndFriends.sol\":10210:10354  if (!hasWithdrawn[msg.sender]) {... */\n      tag_688\n      jumpi\n        /* \"PoolFamilyAndFriends.sol\":10259:10273  withdrawnUsers */\n      0x10\n        /* \"PoolFamilyAndFriends.sol\":10259:10290  withdrawnUsers.push(msg.sender) */\n      dup1\n      sload\n      0x01\n      dup2\n      dup2\n      add\n      swap1\n      swap3\n      sstore\n      0x1b6847dc741a1b0cd08d278845f9d819d87b734759afb55fe2de5cb82a9ae672\n      add\n      dup1\n      sload\n      not(sub(shl(0xa0, 0x01), 0x01))\n      and\n        /* \"PoolFamilyAndFriends.sol\":10279:10289  msg.sender */\n      caller\n        /* \"PoolFamilyAndFriends.sol\":10259:10290  withdrawnUsers.push(msg.sender) */\n      swap1\n      dup2\n      or\n      swap1\n      swap2\n      sstore\n      0x00\n        /* \"PoolFamilyAndFriends.sol\":10308:10332  hasWithdrawn[msg.sender] */\n      swap1\n      dup2\n      mstore\n        /* \"PoolFamilyAndFriends.sol\":10308:10320  hasWithdrawn */\n      0x0a\n        /* \"PoolFamilyAndFriends.sol\":10259:10290  withdrawnUsers.push(msg.sender) */\n      0x20\n        /* \"PoolFamilyAndFriends.sol\":10308:10332  hasWithdrawn[msg.sender] */\n      mstore\n      0x40\n      swap1\n      keccak256\n        /* \"PoolFamilyAndFriends.sol\":10308:10339  hasWithdrawn[msg.sender] = true */\n      dup1\n      sload\n      not(0xff)\n      and\n      swap1\n      swap2\n      or\n      swap1\n      sstore\n        /* \"PoolFamilyAndFriends.sol\":10210:10354  if (!hasWithdrawn[msg.sender]) {... */\n    tag_688:\n        /* \"PoolFamilyAndFriends.sol\":10393:10402  dep.token */\n      dup2\n      sload\n      0x01\n        /* \"PoolFamilyAndFriends.sol\":10404:10414  dep.amount */\n      dup4\n      add\n      sload\n        /* \"PoolFamilyAndFriends.sol\":10381:10391  msg.sender */\n      caller\n      swap2\n        /* \"PoolFamilyAndFriends.sol\":10372:10458  Withdraw(msg.sender, dep.token, dep.amount, yield, block.timestamp, depositIndices[i]) */\n      0xcb034b37ef3764745c35bafecd525367bcf312e9010239e6aeebbe6bcf57727f\n      swap2\n        /* \"PoolFamilyAndFriends.sol\":10393:10402  dep.token */\n      0xff\n      swap1\n      swap2\n      and\n      swap1\n        /* \"PoolFamilyAndFriends.sol\":10416:10421  yield */\n      dup5\n        /* \"PoolFamilyAndFriends.sol\":10423:10438  block.timestamp */\n      timestamp\n        /* \"PoolFamilyAndFriends.sol\":10440:10454  depositIndices */\n      dup15\n      dup15\n        /* \"PoolFamilyAndFriends.sol\":10455:10456  i */\n      dup11\n        /* \"PoolFamilyAndFriends.sol\":10440:10457  depositIndices[i] */\n      dup2\n      dup2\n      lt\n      tag_691\n      jumpi\n      tag_691\n      tag_444\n      jump\t// in\n    tag_691:\n      swap1\n      pop\n      0x20\n      mul\n      add\n      calldataload\n        /* \"PoolFamilyAndFriends.sol\":10372:10458  Withdraw(msg.sender, dep.token, dep.amount, yield, block.timestamp, depositIndices[i]) */\n      mload(0x40)\n      tag_692\n      swap6\n      swap5\n      swap4\n      swap3\n      swap2\n      swap1\n      tag_488\n      jump\t// in\n    tag_692:\n      mload(0x40)\n      dup1\n      swap2\n      sub\n      swap1\n      log2\n      pop\n      pop\n        /* \"PoolFamilyAndFriends.sol\":9287:9290  i++ */\n      0x01\n      add\n        /* \"PoolFamilyAndFriends.sol\":9240:10469  for (uint256 i = 0; i < depositIndices.length; i++) {... */\n      jump(tag_655)\n    tag_656:\n      pop\n        /* \"PoolFamilyAndFriends.sol\":10518:10519  0 */\n      0x00\n        /* \"PoolFamilyAndFriends.sol\":10482:10515  totalPrincipalETH + totalYieldETH */\n      tag_693\n        /* \"PoolFamilyAndFriends.sol\":10502:10515  totalYieldETH */\n      dup5\n        /* \"PoolFamilyAndFriends.sol\":10482:10499  totalPrincipalETH */\n      dup7\n        /* \"PoolFamilyAndFriends.sol\":10482:10515  totalPrincipalETH + totalYieldETH */\n      tag_420\n      jump\t// in\n    tag_693:\n        /* \"PoolFamilyAndFriends.sol\":10482:10519  totalPrincipalETH + totalYieldETH > 0 */\n      gt\n        /* \"PoolFamilyAndFriends.sol\":10478:10805  if (totalPrincipalETH + totalYieldETH > 0) {... */\n      iszero\n      tag_694\n      jumpi\n        /* \"PoolFamilyAndFriends.sol\":10536:10548  bool success */\n      0x00\n        /* \"PoolFamilyAndFriends.sol\":10554:10564  msg.sender */\n      caller\n        /* \"PoolFamilyAndFriends.sol\":10577:10610  totalPrincipalETH + totalYieldETH */\n      tag_695\n        /* \"PoolFamilyAndFriends.sol\":10597:10610  totalYieldETH */\n      dup6\n        /* \"PoolFamilyAndFriends.sol\":10577:10594  totalPrincipalETH */\n      dup8\n        /* \"PoolFamilyAndFriends.sol\":10577:10610  totalPrincipalETH + totalYieldETH */\n      tag_420\n      jump\t// in\n    tag_695:\n        /* \"PoolFamilyAndFriends.sol\":10554:10615  msg.sender.call{value: totalPrincipalETH + totalYieldETH}(\"\") */\n      mload(0x40)\n      0x00\n      dup2\n      dup2\n      dup2\n      dup6\n      dup8\n      gas\n      call\n      swap3\n      pop\n      pop\n      pop\n      returndatasize\n      dup1\n      0x00\n      dup2\n      eq\n      tag_699\n      jumpi\n      mload(0x40)\n      swap2\n      pop\n      and(add(returndatasize, 0x3f), not(0x1f))\n      dup3\n      add\n      0x40\n      mstore\n      returndatasize\n      dup3\n      mstore\n      returndatasize\n      0x00\n      0x20\n      dup5\n      add\n      returndatacopy\n      jump(tag_698)\n    tag_699:\n      0x60\n      swap2\n      pop\n    tag_698:\n      pop\n        /* \"PoolFamilyAndFriends.sol\":10535:10615  (bool success, ) = msg.sender.call{value: totalPrincipalETH + totalYieldETH}(\"\") */\n      pop\n      swap1\n      pop\n        /* \"PoolFamilyAndFriends.sol\":10637:10644  success */\n      dup1\n        /* \"PoolFamilyAndFriends.sol\":10629:10668  require(success, \"ETH transfer failed\") */\n      tag_700\n      jumpi\n      mload(0x40)\n      shl(0xe5, 0x461bcd)\n      dup2\n      mstore\n        /* \"#utility.yul\":13997:13999   */\n      0x20\n        /* \"PoolFamilyAndFriends.sol\":10629:10668  require(success, \"ETH transfer failed\") */\n      0x04\n      dup3\n      add\n        /* \"#utility.yul\":13979:14000   */\n      mstore\n        /* \"#utility.yul\":14036:14038   */\n      0x13\n        /* \"#utility.yul\":14016:14034   */\n      0x24\n      dup3\n      add\n        /* \"#utility.yul\":14009:14039   */\n      mstore\n      shl(0x6a, 0x115512081d1c985b9cd9995c8819985a5b1959)\n        /* \"#utility.yul\":14055:14073   */\n      0x44\n      dup3\n      add\n        /* \"#utility.yul\":14048:14097   */\n      mstore\n        /* \"#utility.yul\":14114:14132   */\n      0x64\n      add\n        /* \"PoolFamilyAndFriends.sol\":10629:10668  require(success, \"ETH transfer failed\") */\n      tag_415\n        /* \"#utility.yul\":13795:14138   */\n      jump\n        /* \"PoolFamilyAndFriends.sol\":10629:10668  require(success, \"ETH transfer failed\") */\n    tag_700:\n        /* \"PoolFamilyAndFriends.sol\":10701:10711  msg.sender */\n      caller\n      sub(shl(0xa0, 0x01), 0x01)\n        /* \"PoolFamilyAndFriends.sol\":10687:10794  BatchWithdraw(msg.sender, TokenType.ETH, depositIndices, totalPrincipalETH, totalYieldETH, block.timestamp) */\n      and\n      0xbf06e98fe211a4b82f625232ab1c7a75caea5e0d624bc267578d6f22fce788c3\n        /* \"PoolFamilyAndFriends.sol\":10713:10726  TokenType.ETH */\n      0x00\n        /* \"PoolFamilyAndFriends.sol\":10728:10742  depositIndices */\n      dup10\n      dup10\n        /* \"PoolFamilyAndFriends.sol\":10744:10761  totalPrincipalETH */\n      dup10\n        /* \"PoolFamilyAndFriends.sol\":10763:10776  totalYieldETH */\n      dup10\n        /* \"PoolFamilyAndFriends.sol\":10778:10793  block.timestamp */\n      timestamp\n        /* \"PoolFamilyAndFriends.sol\":10687:10794  BatchWithdraw(msg.sender, TokenType.ETH, depositIndices, totalPrincipalETH, totalYieldETH, block.timestamp) */\n      mload(0x40)\n      tag_702\n      swap7\n      swap6\n      swap5\n      swap4\n      swap3\n      swap2\n      swap1\n      tag_703\n      jump\t// in\n    tag_702:\n      mload(0x40)\n      dup1\n      swap2\n      sub\n      swap1\n      log2\n        /* \"PoolFamilyAndFriends.sol\":10521:10805  {... */\n      pop\n        /* \"PoolFamilyAndFriends.sol\":10478:10805  if (totalPrincipalETH + totalYieldETH > 0) {... */\n    tag_694:\n        /* \"PoolFamilyAndFriends.sol\":10856:10857  0 */\n      0x00\n        /* \"PoolFamilyAndFriends.sol\":10818:10853  totalPrincipalUSDC + totalYieldUSDC */\n      tag_704\n        /* \"PoolFamilyAndFriends.sol\":10839:10853  totalYieldUSDC */\n      dup3\n        /* \"PoolFamilyAndFriends.sol\":10818:10836  totalPrincipalUSDC */\n      dup5\n        /* \"PoolFamilyAndFriends.sol\":10818:10853  totalPrincipalUSDC + totalYieldUSDC */\n      tag_420\n      jump\t// in\n    tag_704:\n        /* \"PoolFamilyAndFriends.sol\":10818:10857  totalPrincipalUSDC + totalYieldUSDC > 0 */\n      gt\n        /* \"PoolFamilyAndFriends.sol\":10814:11083  if (totalPrincipalUSDC + totalYieldUSDC > 0) {... */\n      iszero\n      tag_705\n      jumpi\n        /* \"PoolFamilyAndFriends.sol\":526:568  0x833589fCD6eDb6E08f4c7C32D4f71b54bdA02913 */\n      0x833589fcd6edb6e08f4c7c32d4f71b54bda02913\n        /* \"PoolFamilyAndFriends.sol\":10873:10894  IERC20(USDC).transfer */\n      0xa9059cbb\n        /* \"PoolFamilyAndFriends.sol\":10895:10905  msg.sender */\n      caller\n        /* \"PoolFamilyAndFriends.sol\":10907:10942  totalPrincipalUSDC + totalYieldUSDC */\n      tag_706\n        /* \"PoolFamilyAndFriends.sol\":10928:10942  totalYieldUSDC */\n      dup5\n        /* \"PoolFamilyAndFriends.sol\":10907:10925  totalPrincipalUSDC */\n      dup7\n        /* \"PoolFamilyAndFriends.sol\":10907:10942  totalPrincipalUSDC + totalYieldUSDC */\n      tag_420\n      jump\t// in\n    tag_706:\n        /* \"PoolFamilyAndFriends.sol\":10873:10943  IERC20(USDC).transfer(msg.sender, totalPrincipalUSDC + totalYieldUSDC) */\n      mload(0x40)\n      not(sub(shl(0xe0, 0x01), 0x01))\n      0xe0\n      dup6\n      swap1\n      shl\n      and\n      dup2\n      mstore\n      sub(shl(0xa0, 0x01), 0x01)\n        /* \"#utility.yul\":14335:14390   */\n      swap1\n      swap3\n      and\n        /* \"PoolFamilyAndFriends.sol\":10873:10943  IERC20(USDC).transfer(msg.sender, totalPrincipalUSDC + totalYieldUSDC) */\n      0x04\n      dup4\n      add\n        /* \"#utility.yul\":14317:14391   */\n      mstore\n        /* \"#utility.yul\":14407:14425   */\n      0x24\n      dup3\n      add\n        /* \"#utility.yul\":14400:14434   */\n      mstore\n        /* \"#utility.yul\":14290:14308   */\n      0x44\n      add\n        /* \"PoolFamilyAndFriends.sol\":10873:10943  IERC20(USDC).transfer(msg.sender, totalPrincipalUSDC + totalYieldUSDC) */\n      0x20\n      mload(0x40)\n      dup1\n      dup4\n      sub\n      dup2\n      0x00\n      dup8\n      gas\n      call\n      iszero\n      dup1\n      iszero\n      tag_709\n      jumpi\n      returndatasize\n      0x00\n      dup1\n      returndatacopy\n      revert(0x00, returndatasize)\n    tag_709:\n      pop\n      pop\n      pop\n      pop\n      mload(0x40)\n      returndatasize\n      not(0x1f)\n      0x1f\n      dup3\n      add\n      and\n      dup3\n      add\n      dup1\n      0x40\n      mstore\n      pop\n      dup2\n      add\n      swap1\n      tag_710\n      swap2\n      swap1\n      tag_484\n      jump\t// in\n    tag_710:\n      pop\n        /* \"PoolFamilyAndFriends.sol\":10976:10986  msg.sender */\n      caller\n      sub(shl(0xa0, 0x01), 0x01)\n        /* \"PoolFamilyAndFriends.sol\":10962:11072  BatchWithdraw(msg.sender, TokenType.USDC, depositIndices, totalPrincipalUSDC, totalYieldUSDC, block.timestamp) */\n      and\n      0xbf06e98fe211a4b82f625232ab1c7a75caea5e0d624bc267578d6f22fce788c3\n        /* \"PoolFamilyAndFriends.sol\":10988:11002  TokenType.USDC */\n      0x01\n        /* \"PoolFamilyAndFriends.sol\":11004:11018  depositIndices */\n      dup9\n      dup9\n        /* \"PoolFamilyAndFriends.sol\":11020:11038  totalPrincipalUSDC */\n      dup7\n        /* \"PoolFamilyAndFriends.sol\":11040:11054  totalYieldUSDC */\n      dup7\n        /* \"PoolFamilyAndFriends.sol\":11056:11071  block.timestamp */\n      timestamp\n        /* \"PoolFamilyAndFriends.sol\":10962:11072  BatchWithdraw(msg.sender, TokenType.USDC, depositIndices, totalPrincipalUSDC, totalYieldUSDC, block.timestamp) */\n      mload(0x40)\n      tag_711\n      swap7\n      swap6\n      swap5\n      swap4\n      swap3\n      swap2\n      swap1\n      tag_703\n      jump\t// in\n    tag_711:\n      mload(0x40)\n      dup1\n      swap2\n      sub\n      swap1\n      log2\n        /* \"PoolFamilyAndFriends.sol\":10814:11083  if (totalPrincipalUSDC + totalYieldUSDC > 0) {... */\n    tag_705:\n        /* \"PoolFamilyAndFriends.sol\":9096:11089  {... */\n      pop\n      pop\n      pop\n      pop\n        /* \"@openzeppelin/contracts/utils/ReentrancyGuard.sol\":2542:2562   */\n      tag_712\n        /* \"@openzeppelin/contracts/utils/ReentrancyGuard.sol\":1857:1858   */\n      0x01\n        /* \"@openzeppelin/contracts/utils/ReentrancyGuard.sol\":3068:3089   */\n      dup1\n      sstore\n        /* \"@openzeppelin/contracts/utils/ReentrancyGuard.sol\":2888:3096   */\n      jump\n        /* \"@openzeppelin/contracts/utils/ReentrancyGuard.sol\":2542:2562   */\n    tag_712:\n        /* \"PoolFamilyAndFriends.sol\":8991:11089  function batchWithdraw(uint256[] calldata depositIndices) external nonReentrant whenWithdrawalsNotPaused {... */\n      pop\n      pop\n      jump\t// out\n        /* \"PoolFamilyAndFriends.sol\":13155:13433  function assignUtilityUSDC(address user, uint256 amount) external onlyRole(ADMIN_ROLE) {... */\n    tag_244:\n      0x00\n      dup1\n      mload\n      0x20\n      data_cb864c43dd5d441bb6271f424f11befa622c032dfd374d226e26fbbdb782b8f8\n      dup4\n      codecopy\n      dup2\n      mload\n      swap2\n      mstore\n        /* \"@openzeppelin/contracts/access/AccessControl.sol\":2473:2489   */\n      tag_714\n        /* \"@openzeppelin/contracts/access/AccessControl.sol\":2484:2488   */\n      dup2\n        /* \"@openzeppelin/contracts/access/AccessControl.sol\":2473:2483   */\n      tag_405\n        /* \"@openzeppelin/contracts/access/AccessControl.sol\":2473:2489   */\n      jump\t// in\n    tag_714:\n        /* \"PoolFamilyAndFriends.sol\":13269:13270  0 */\n      0x00\n        /* \"PoolFamilyAndFriends.sol\":13260:13266  amount */\n      dup3\n        /* \"PoolFamilyAndFriends.sol\":13260:13270  amount > 0 */\n      gt\n        /* \"PoolFamilyAndFriends.sol\":13252:13279  require(amount > 0, \"Zero\") */\n      tag_716\n      jumpi\n      mload(0x40)\n      shl(0xe5, 0x461bcd)\n      dup2\n      mstore\n      0x04\n      add\n      tag_415\n      swap1\n        /* \"#utility.yul\":15732:15734   */\n      0x20\n        /* \"#utility.yul\":15714:15735   */\n      dup1\n      dup3\n      mstore\n        /* \"#utility.yul\":15771:15772   */\n      0x04\n        /* \"#utility.yul\":15751:15769   */\n      swap1\n      dup3\n      add\n        /* \"#utility.yul\":15744:15773   */\n      mstore\n      shl(0xe0, 0x5a65726f)\n        /* \"#utility.yul\":15804:15806   */\n      0x40\n        /* \"#utility.yul\":15789:15807   */\n      dup3\n      add\n        /* \"#utility.yul\":15782:15816   */\n      mstore\n        /* \"#utility.yul\":15848:15850   */\n      0x60\n        /* \"#utility.yul\":15833:15851   */\n      add\n      swap1\n        /* \"#utility.yul\":15530:15857   */\n      jump\n        /* \"PoolFamilyAndFriends.sol\":13252:13279  require(amount > 0, \"Zero\") */\n    tag_716:\n        /* \"PoolFamilyAndFriends.sol\":13307:13323  totalUtilityUSDC */\n      sload(0x17)\n        /* \"PoolFamilyAndFriends.sol\":13297:13303  amount */\n      dup3\n        /* \"PoolFamilyAndFriends.sol\":13297:13323  amount <= totalUtilityUSDC */\n      gt\n      iszero\n        /* \"PoolFamilyAndFriends.sol\":13289:13340  require(amount <= totalUtilityUSDC, \"Exceeds pool\") */\n      tag_718\n      jumpi\n      mload(0x40)\n      shl(0xe5, 0x461bcd)\n      dup2\n      mstore\n        /* \"#utility.yul\":16064:16066   */\n      0x20\n        /* \"PoolFamilyAndFriends.sol\":13289:13340  require(amount <= totalUtilityUSDC, \"Exceeds pool\") */\n      0x04\n      dup3\n      add\n        /* \"#utility.yul\":16046:16067   */\n      mstore\n        /* \"#utility.yul\":16103:16105   */\n      0x0c\n        /* \"#utility.yul\":16083:16101   */\n      0x24\n      dup3\n      add\n        /* \"#utility.yul\":16076:16106   */\n      mstore\n      shl(0xa2, 0x115e18d959591cc81c1bdbdb)\n        /* \"#utility.yul\":16122:16140   */\n      0x44\n      dup3\n      add\n        /* \"#utility.yul\":16115:16157   */\n      mstore\n        /* \"#utility.yul\":16174:16192   */\n      0x64\n      add\n        /* \"PoolFamilyAndFriends.sol\":13289:13340  require(amount <= totalUtilityUSDC, \"Exceeds pool\") */\n      tag_415\n        /* \"#utility.yul\":15862:16198   */\n      jump\n        /* \"PoolFamilyAndFriends.sol\":13289:13340  require(amount <= totalUtilityUSDC, \"Exceeds pool\") */\n    tag_718:\n      sub(shl(0xa0, 0x01), 0x01)\n        /* \"PoolFamilyAndFriends.sol\":13350:13380  userClaimableUtilityUSDC[user] */\n      dup4\n      and\n      0x00\n      swap1\n      dup2\n      mstore\n        /* \"PoolFamilyAndFriends.sol\":13350:13374  userClaimableUtilityUSDC */\n      0x0c\n        /* \"PoolFamilyAndFriends.sol\":13350:13380  userClaimableUtilityUSDC[user] */\n      0x20\n      mstore\n      0x40\n      dup2\n      keccak256\n        /* \"PoolFamilyAndFriends.sol\":13350:13390  userClaimableUtilityUSDC[user] += amount */\n      dup1\n      sload\n        /* \"PoolFamilyAndFriends.sol\":13384:13390  amount */\n      dup5\n      swap3\n        /* \"PoolFamilyAndFriends.sol\":13350:13380  userClaimableUtilityUSDC[user] */\n      swap1\n        /* \"PoolFamilyAndFriends.sol\":13350:13390  userClaimableUtilityUSDC[user] += amount */\n      tag_720\n      swap1\n        /* \"PoolFamilyAndFriends.sol\":13384:13390  amount */\n      dup5\n      swap1\n        /* \"PoolFamilyAndFriends.sol\":13350:13390  userClaimableUtilityUSDC[user] += amount */\n      tag_420\n      jump\t// in\n    tag_720:\n      swap3\n      pop\n      pop\n      dup2\n      swap1\n      sstore\n      pop\n        /* \"PoolFamilyAndFriends.sol\":13420:13426  amount */\n      dup2\n        /* \"PoolFamilyAndFriends.sol\":13400:13416  totalUtilityUSDC */\n      0x17\n      0x00\n        /* \"PoolFamilyAndFriends.sol\":13400:13426  totalUtilityUSDC -= amount */\n      dup3\n      dup3\n      sload\n      tag_648\n      swap2\n      swap1\n      tag_529\n      jump\t// in\n        /* \"PoolFamilyAndFriends.sol\":16766:17091  function withdrawUtilityUSDC(uint256 amount) external onlyRole(UTILITY_WITHDRAWER_ROLE) nonReentrant {... */\n    tag_248:\n        /* \"PoolFamilyAndFriends.sol\":1321:1357  keccak256(\"UTILITY_WITHDRAWER_ROLE\") */\n      0x78c90eb9e475048b483a290aee04b5fe48355537c3623c7637b17d3bed71c6ed\n        /* \"@openzeppelin/contracts/access/AccessControl.sol\":2473:2489   */\n      tag_723\n        /* \"@openzeppelin/contracts/access/AccessControl.sol\":2484:2488   */\n      dup2\n        /* \"@openzeppelin/contracts/access/AccessControl.sol\":2473:2483   */\n      tag_405\n        /* \"@openzeppelin/contracts/access/AccessControl.sol\":2473:2489   */\n      jump\t// in\n    tag_723:\n        /* \"@openzeppelin/contracts/utils/ReentrancyGuard.sol\":2500:2521   */\n      tag_725\n        /* \"@openzeppelin/contracts/utils/ReentrancyGuard.sol\":2500:2519   */\n      tag_412\n        /* \"@openzeppelin/contracts/utils/ReentrancyGuard.sol\":2500:2521   */\n      jump\t// in\n    tag_725:\n        /* \"PoolFamilyAndFriends.sol\":16885:16899  utilityAddress */\n      and(sub(shl(0xa0, 0x01), 0x01), sload(0x07))\n        /* \"PoolFamilyAndFriends.sol\":16877:16941  require(utilityAddress != address(0), \"Utility address not set\") */\n      tag_727\n      jumpi\n      mload(0x40)\n      shl(0xe5, 0x461bcd)\n      dup2\n      mstore\n        /* \"#utility.yul\":18125:18127   */\n      0x20\n        /* \"PoolFamilyAndFriends.sol\":16877:16941  require(utilityAddress != address(0), \"Utility address not set\") */\n      0x04\n      dup3\n      add\n        /* \"#utility.yul\":18107:18128   */\n      mstore\n        /* \"#utility.yul\":18164:18166   */\n      0x17\n        /* \"#utility.yul\":18144:18162   */\n      0x24\n      dup3\n      add\n        /* \"#utility.yul\":18137:18167   */\n      mstore\n        /* \"#utility.yul\":18203:18228   */\n      0x5574696c6974792061646472657373206e6f7420736574000000000000000000\n        /* \"#utility.yul\":18183:18201   */\n      0x44\n      dup3\n      add\n        /* \"#utility.yul\":18176:18229   */\n      mstore\n        /* \"#utility.yul\":18246:18264   */\n      0x64\n      add\n        /* \"PoolFamilyAndFriends.sol\":16877:16941  require(utilityAddress != address(0), \"Utility address not set\") */\n      tag_415\n        /* \"#utility.yul\":17923:18270   */\n      jump\n        /* \"PoolFamilyAndFriends.sol\":16877:16941  require(utilityAddress != address(0), \"Utility address not set\") */\n    tag_727:\n        /* \"PoolFamilyAndFriends.sol\":16973:16987  utilityAddress */\n      sload(0x07)\n        /* \"PoolFamilyAndFriends.sol\":16951:16996  IERC20(USDC).transfer(utilityAddress, amount) */\n      mload(0x40)\n      shl(0xe0, 0xa9059cbb)\n      dup2\n      mstore\n      sub(shl(0xa0, 0x01), 0x01)\n        /* \"PoolFamilyAndFriends.sol\":16973:16987  utilityAddress */\n      swap1\n      swap2\n      and\n        /* \"PoolFamilyAndFriends.sol\":16951:16996  IERC20(USDC).transfer(utilityAddress, amount) */\n      0x04\n      dup3\n      add\n        /* \"#utility.yul\":14317:14391   */\n      mstore\n        /* \"#utility.yul\":14407:14425   */\n      0x24\n      dup2\n      add\n        /* \"#utility.yul\":14400:14434   */\n      dup4\n      swap1\n      mstore\n        /* \"PoolFamilyAndFriends.sol\":526:568  0x833589fCD6eDb6E08f4c7C32D4f71b54bdA02913 */\n      0x833589fcd6edb6e08f4c7c32d4f71b54bda02913\n      swap1\n        /* \"PoolFamilyAndFriends.sol\":16951:16972  IERC20(USDC).transfer */\n      0xa9059cbb\n      swap1\n        /* \"#utility.yul\":14290:14308   */\n      0x44\n      add\n        /* \"PoolFamilyAndFriends.sol\":16951:16996  IERC20(USDC).transfer(utilityAddress, amount) */\n      0x20\n      mload(0x40)\n      dup1\n      dup4\n      sub\n      dup2\n      0x00\n      dup8\n      gas\n      call\n      iszero\n      dup1\n      iszero\n      tag_732\n      jumpi\n      returndatasize\n      0x00\n      dup1\n      returndatacopy\n      revert(0x00, returndatasize)\n    tag_732:\n      pop\n      pop\n      pop\n      pop\n      mload(0x40)\n      returndatasize\n      not(0x1f)\n      0x1f\n      dup3\n      add\n      and\n      dup3\n      add\n      dup1\n      0x40\n      mstore\n      pop\n      dup2\n      add\n      swap1\n      tag_733\n      swap2\n      swap1\n      tag_484\n      jump\t// in\n    tag_733:\n      pop\n        /* \"PoolFamilyAndFriends.sol\":17028:17042  utilityAddress */\n      sload(0x07)\n        /* \"PoolFamilyAndFriends.sol\":17011:17084  UtilityWithdrawn(utilityAddress, TokenType.USDC, amount, block.timestamp) */\n      mload(0x40)\n      sub(shl(0xa0, 0x01), 0x01)\n        /* \"PoolFamilyAndFriends.sol\":17028:17042  utilityAddress */\n      swap1\n      swap2\n      and\n      swap1\n        /* \"PoolFamilyAndFriends.sol\":17011:17084  UtilityWithdrawn(utilityAddress, TokenType.USDC, amount, block.timestamp) */\n      0x9adbdc797aca3ce26a722598f00149b2328fd124444e6d0b10c4bdc7cfc38196\n      swap1\n      tag_734\n      swap1\n        /* \"PoolFamilyAndFriends.sol\":17028:17042  utilityAddress */\n      0x01\n      swap1\n        /* \"PoolFamilyAndFriends.sol\":17060:17066  amount */\n      dup7\n      swap1\n        /* \"PoolFamilyAndFriends.sol\":17068:17083  block.timestamp */\n      timestamp\n      swap1\n        /* \"PoolFamilyAndFriends.sol\":17011:17084  UtilityWithdrawn(utilityAddress, TokenType.USDC, amount, block.timestamp) */\n      tag_423\n      jump\t// in\n    tag_734:\n      mload(0x40)\n      dup1\n      swap2\n      sub\n      swap1\n      log2\n        /* \"@openzeppelin/contracts/utils/ReentrancyGuard.sol\":2542:2562   */\n      tag_712\n        /* \"@openzeppelin/contracts/utils/ReentrancyGuard.sol\":1857:1858   */\n      0x01\n        /* \"@openzeppelin/contracts/utils/ReentrancyGuard.sol\":3068:3089   */\n      dup1\n      sstore\n        /* \"@openzeppelin/contracts/utils/ReentrancyGuard.sol\":2888:3096   */\n      jump\n        /* \"PoolFamilyAndFriends.sol\":11149:11602  function unlockDepositsForUser(address user, uint256[] calldata depositIndices) external onlyRole(UNLOCKER_ROLE) {... */\n    tag_253:\n        /* \"PoolFamilyAndFriends.sol\":1151:1177  keccak256(\"UNLOCKER_ROLE\") */\n      0xc806897caf4fd5068191157e44d3988e43139a37e0b97b6793e1ed1184140604\n        /* \"@openzeppelin/contracts/access/AccessControl.sol\":2473:2489   */\n      tag_737\n        /* \"@openzeppelin/contracts/access/AccessControl.sol\":2484:2488   */\n      dup2\n        /* \"@openzeppelin/contracts/access/AccessControl.sol\":2473:2483   */\n      tag_405\n        /* \"@openzeppelin/contracts/access/AccessControl.sol\":2473:2489   */\n      jump\t// in\n    tag_737:\n        /* \"PoolFamilyAndFriends.sol\":11277:11286  uint256 i */\n      0x00\n        /* \"PoolFamilyAndFriends.sol\":11272:11543  for (uint256 i = 0; i < depositIndices.length; i++) {... */\n    tag_739:\n        /* \"PoolFamilyAndFriends.sol\":11292:11317  i < depositIndices.length */\n      dup3\n      dup2\n      lt\n        /* \"PoolFamilyAndFriends.sol\":11272:11543  for (uint256 i = 0; i < depositIndices.length; i++) {... */\n      iszero\n      tag_740\n      jumpi\n      sub(shl(0xa0, 0x01), 0x01)\n        /* \"PoolFamilyAndFriends.sol\":11364:11382  userDeposits[user] */\n      dup6\n      and\n        /* \"PoolFamilyAndFriends.sol\":11338:11361  DepositInfo storage dep */\n      0x00\n        /* \"PoolFamilyAndFriends.sol\":11364:11382  userDeposits[user] */\n      swap1\n      dup2\n      mstore\n        /* \"PoolFamilyAndFriends.sol\":11364:11376  userDeposits */\n      0x08\n        /* \"PoolFamilyAndFriends.sol\":11364:11382  userDeposits[user] */\n      0x20\n      mstore\n      0x40\n      dup2\n      keccak256\n        /* \"PoolFamilyAndFriends.sol\":11383:11397  depositIndices */\n      dup6\n      dup6\n        /* \"PoolFamilyAndFriends.sol\":11398:11399  i */\n      dup5\n        /* \"PoolFamilyAndFriends.sol\":11383:11400  depositIndices[i] */\n      dup2\n      dup2\n      lt\n      tag_743\n      jumpi\n      tag_743\n      tag_444\n      jump\t// in\n    tag_743:\n      swap1\n      pop\n      0x20\n      mul\n      add\n      calldataload\n        /* \"PoolFamilyAndFriends.sol\":11364:11401  userDeposits[user][depositIndices[i]] */\n      dup2\n      sload\n      dup2\n      lt\n      tag_745\n      jumpi\n      tag_745\n      tag_444\n      jump\t// in\n    tag_745:\n      0x00\n      swap2\n      dup3\n      mstore\n      0x20\n      swap1\n      swap2\n      keccak256\n      0x06\n      swap1\n      swap2\n      mul\n      add\n        /* \"PoolFamilyAndFriends.sol\":11424:11437  dep.withdrawn */\n      0x03\n      dup2\n      add\n      sload\n        /* \"PoolFamilyAndFriends.sol\":11364:11401  userDeposits[user][depositIndices[i]] */\n      swap1\n      swap2\n      pop\n        /* \"PoolFamilyAndFriends.sol\":11424:11437  dep.withdrawn */\n      0xff\n      and\n        /* \"PoolFamilyAndFriends.sol\":11423:11437  !dep.withdrawn */\n      iszero\n        /* \"PoolFamilyAndFriends.sol\":11423:11461  !dep.withdrawn && !dep.unlockedByAdmin */\n      dup1\n      iszero\n      tag_747\n      jumpi\n      pop\n        /* \"PoolFamilyAndFriends.sol\":11442:11461  dep.unlockedByAdmin */\n      0x03\n      dup2\n      add\n      sload\n      0x0100\n      swap1\n      div\n      0xff\n      and\n        /* \"PoolFamilyAndFriends.sol\":11441:11461  !dep.unlockedByAdmin */\n      iszero\n        /* \"PoolFamilyAndFriends.sol\":11423:11461  !dep.withdrawn && !dep.unlockedByAdmin */\n    tag_747:\n        /* \"PoolFamilyAndFriends.sol\":11415:11492  require(!dep.withdrawn && !dep.unlockedByAdmin, \"Already unlocked/withdrawn\") */\n      tag_748\n      jumpi\n      mload(0x40)\n      shl(0xe5, 0x461bcd)\n      dup2\n      mstore\n        /* \"#utility.yul\":18477:18479   */\n      0x20\n        /* \"PoolFamilyAndFriends.sol\":11415:11492  require(!dep.withdrawn && !dep.unlockedByAdmin, \"Already unlocked/withdrawn\") */\n      0x04\n      dup3\n      add\n        /* \"#utility.yul\":18459:18480   */\n      mstore\n        /* \"#utility.yul\":18516:18518   */\n      0x1a\n        /* \"#utility.yul\":18496:18514   */\n      0x24\n      dup3\n      add\n        /* \"#utility.yul\":18489:18519   */\n      mstore\n        /* \"#utility.yul\":18555:18583   */\n      0x416c726561647920756e6c6f636b65642f77697468647261776e000000000000\n        /* \"#utility.yul\":18535:18553   */\n      0x44\n      dup3\n      add\n        /* \"#utility.yul\":18528:18584   */\n      mstore\n        /* \"#utility.yul\":18601:18619   */\n      0x64\n      add\n        /* \"PoolFamilyAndFriends.sol\":11415:11492  require(!dep.withdrawn && !dep.unlockedByAdmin, \"Already unlocked/withdrawn\") */\n      tag_415\n        /* \"#utility.yul\":18275:18625   */\n      jump\n        /* \"PoolFamilyAndFriends.sol\":11415:11492  require(!dep.withdrawn && !dep.unlockedByAdmin, \"Already unlocked/withdrawn\") */\n    tag_748:\n        /* \"PoolFamilyAndFriends.sol\":11506:11525  dep.unlockedByAdmin */\n      0x03\n      add\n        /* \"PoolFamilyAndFriends.sol\":11506:11532  dep.unlockedByAdmin = true */\n      dup1\n      sload\n      not(0xff00)\n      and\n      0x0100\n      or\n      swap1\n      sstore\n        /* \"PoolFamilyAndFriends.sol\":11528:11532  true */\n      0x01\n        /* \"PoolFamilyAndFriends.sol\":11319:11322  i++ */\n      add\n        /* \"PoolFamilyAndFriends.sol\":11272:11543  for (uint256 i = 0; i < depositIndices.length; i++) {... */\n      jump(tag_739)\n    tag_740:\n      pop\n        /* \"PoolFamilyAndFriends.sol\":11574:11578  user */\n      dup4\n      sub(shl(0xa0, 0x01), 0x01)\n        /* \"PoolFamilyAndFriends.sol\":11557:11595  DepositsUnlocked(user, depositIndices) */\n      and\n      0x8b655a966f162e1d3686ea25cd61682331984ab5662b451deff96f12d716f45b\n        /* \"PoolFamilyAndFriends.sol\":11580:11594  depositIndices */\n      dup5\n      dup5\n        /* \"PoolFamilyAndFriends.sol\":11557:11595  DepositsUnlocked(user, depositIndices) */\n      mload(0x40)\n      tag_751\n      swap3\n      swap2\n      swap1\n      tag_752\n      jump\t// in\n    tag_751:\n      mload(0x40)\n      dup1\n      swap2\n      sub\n      swap1\n      log2\n        /* \"PoolFamilyAndFriends.sol\":11149:11602  function unlockDepositsForUser(address user, uint256[] calldata depositIndices) external onlyRole(UNLOCKER_ROLE) {... */\n      pop\n      pop\n      pop\n      pop\n      jump\t// out\n        /* \"PoolFamilyAndFriends.sol\":5873:6129  function setUtilityAddress(address newUtilityAddress) external onlyRole(ADMIN_ROLE) {... */\n    tag_275:\n      0x00\n      dup1\n      mload\n      0x20\n      data_cb864c43dd5d441bb6271f424f11befa622c032dfd374d226e26fbbdb782b8f8\n      dup4\n      codecopy\n      dup2\n      mload\n      swap2\n      mstore\n        /* \"@openzeppelin/contracts/access/AccessControl.sol\":2473:2489   */\n      tag_754\n        /* \"@openzeppelin/contracts/access/AccessControl.sol\":2484:2488   */\n      dup2\n        /* \"@openzeppelin/contracts/access/AccessControl.sol\":2473:2483   */\n      tag_405\n        /* \"@openzeppelin/contracts/access/AccessControl.sol\":2473:2489   */\n      jump\t// in\n    tag_754:\n      sub(shl(0xa0, 0x01), 0x01)\n        /* \"PoolFamilyAndFriends.sol\":5975:6006  newUtilityAddress != address(0) */\n      dup3\n      and\n        /* \"PoolFamilyAndFriends.sol\":5967:6023  require(newUtilityAddress != address(0), \"Zero address\") */\n      tag_756\n      jumpi\n      mload(0x40)\n      shl(0xe5, 0x461bcd)\n      dup2\n      mstore\n        /* \"#utility.yul\":19125:19127   */\n      0x20\n        /* \"PoolFamilyAndFriends.sol\":5967:6023  require(newUtilityAddress != address(0), \"Zero address\") */\n      0x04\n      dup3\n      add\n        /* \"#utility.yul\":19107:19128   */\n      mstore\n        /* \"#utility.yul\":19164:19166   */\n      0x0c\n        /* \"#utility.yul\":19144:19162   */\n      0x24\n      dup3\n      add\n        /* \"#utility.yul\":19137:19167   */\n      mstore\n      shl(0xa0, 0x5a65726f2061646472657373)\n        /* \"#utility.yul\":19183:19201   */\n      0x44\n      dup3\n      add\n        /* \"#utility.yul\":19176:19218   */\n      mstore\n        /* \"#utility.yul\":19235:19253   */\n      0x64\n      add\n        /* \"PoolFamilyAndFriends.sol\":5967:6023  require(newUtilityAddress != address(0), \"Zero address\") */\n      tag_415\n        /* \"#utility.yul\":18923:19259   */\n      jump\n        /* \"PoolFamilyAndFriends.sol\":5967:6023  require(newUtilityAddress != address(0), \"Zero address\") */\n    tag_756:\n        /* \"PoolFamilyAndFriends.sol\":6033:6047  utilityAddress */\n      0x07\n        /* \"PoolFamilyAndFriends.sol\":6033:6067  utilityAddress = newUtilityAddress */\n      dup1\n      sload\n      not(sub(shl(0xa0, 0x01), 0x01))\n      and\n      sub(shl(0xa0, 0x01), 0x01)\n      dup5\n      and\n      swap1\n      dup2\n      or\n      swap1\n      swap2\n      sstore\n        /* \"PoolFamilyAndFriends.sol\":6082:6122  UtilityAddressChanged(newUtilityAddress) */\n      mload(0x40)\n        /* \"#utility.yul\":9724:9798   */\n      swap1\n      dup2\n      mstore\n        /* \"PoolFamilyAndFriends.sol\":6082:6122  UtilityAddressChanged(newUtilityAddress) */\n      0x1d6240e71a77c9e9d07d1d6ecbb9ea4274fcc8bc19adc5b05a3548ac7e40e189\n      swap1\n        /* \"#utility.yul\":9712:9714   */\n      0x20\n        /* \"#utility.yul\":9697:9715   */\n      add\n        /* \"PoolFamilyAndFriends.sol\":6082:6122  UtilityAddressChanged(newUtilityAddress) */\n    tag_759:\n      mload(0x40)\n      dup1\n      swap2\n      sub\n      swap1\n      log1\n        /* \"PoolFamilyAndFriends.sol\":5873:6129  function setUtilityAddress(address newUtilityAddress) external onlyRole(ADMIN_ROLE) {... */\n      pop\n      pop\n      jump\t// out\n        /* \"PoolFamilyAndFriends.sol\":16302:16760  function withdrawUtilityETH(uint256 amount) external onlyRole(UTILITY_WITHDRAWER_ROLE) nonReentrant {... */\n    tag_288:\n        /* \"PoolFamilyAndFriends.sol\":1321:1357  keccak256(\"UTILITY_WITHDRAWER_ROLE\") */\n      0x78c90eb9e475048b483a290aee04b5fe48355537c3623c7637b17d3bed71c6ed\n        /* \"@openzeppelin/contracts/access/AccessControl.sol\":2473:2489   */\n      tag_762\n        /* \"@openzeppelin/contracts/access/AccessControl.sol\":2484:2488   */\n      dup2\n        /* \"@openzeppelin/contracts/access/AccessControl.sol\":2473:2483   */\n      tag_405\n        /* \"@openzeppelin/contracts/access/AccessControl.sol\":2473:2489   */\n      jump\t// in\n    tag_762:\n        /* \"@openzeppelin/contracts/utils/ReentrancyGuard.sol\":2500:2521   */\n      tag_764\n        /* \"@openzeppelin/contracts/utils/ReentrancyGuard.sol\":2500:2519   */\n      tag_412\n        /* \"@openzeppelin/contracts/utils/ReentrancyGuard.sol\":2500:2521   */\n      jump\t// in\n    tag_764:\n        /* \"PoolFamilyAndFriends.sol\":16420:16434  utilityAddress */\n      and(sub(shl(0xa0, 0x01), 0x01), sload(0x07))\n        /* \"PoolFamilyAndFriends.sol\":16412:16476  require(utilityAddress != address(0), \"Utility address not set\") */\n      tag_766\n      jumpi\n      mload(0x40)\n      shl(0xe5, 0x461bcd)\n      dup2\n      mstore\n        /* \"#utility.yul\":18125:18127   */\n      0x20\n        /* \"PoolFamilyAndFriends.sol\":16412:16476  require(utilityAddress != address(0), \"Utility address not set\") */\n      0x04\n      dup3\n      add\n        /* \"#utility.yul\":18107:18128   */\n      mstore\n        /* \"#utility.yul\":18164:18166   */\n      0x17\n        /* \"#utility.yul\":18144:18162   */\n      0x24\n      dup3\n      add\n        /* \"#utility.yul\":18137:18167   */\n      mstore\n        /* \"#utility.yul\":18203:18228   */\n      0x5574696c6974792061646472657373206e6f7420736574000000000000000000\n        /* \"#utility.yul\":18183:18201   */\n      0x44\n      dup3\n      add\n        /* \"#utility.yul\":18176:18229   */\n      mstore\n        /* \"#utility.yul\":18246:18264   */\n      0x64\n      add\n        /* \"PoolFamilyAndFriends.sol\":16412:16476  require(utilityAddress != address(0), \"Utility address not set\") */\n      tag_415\n        /* \"#utility.yul\":17923:18270   */\n      jump\n        /* \"PoolFamilyAndFriends.sol\":16412:16476  require(utilityAddress != address(0), \"Utility address not set\") */\n    tag_766:\n        /* \"PoolFamilyAndFriends.sol\":16504:16525  address(this).balance */\n      selfbalance\n        /* \"PoolFamilyAndFriends.sol\":16494:16500  amount */\n      dup3\n        /* \"PoolFamilyAndFriends.sol\":16494:16525  amount <= address(this).balance */\n      gt\n      iszero\n        /* \"PoolFamilyAndFriends.sol\":16486:16550  require(amount <= address(this).balance, \"Insufficient balance\") */\n      tag_768\n      jumpi\n      mload(0x40)\n      shl(0xe5, 0x461bcd)\n      dup2\n      mstore\n        /* \"#utility.yul\":19466:19468   */\n      0x20\n        /* \"PoolFamilyAndFriends.sol\":16486:16550  require(amount <= address(this).balance, \"Insufficient balance\") */\n      0x04\n      dup3\n      add\n        /* \"#utility.yul\":19448:19469   */\n      mstore\n        /* \"#utility.yul\":19505:19507   */\n      0x14\n        /* \"#utility.yul\":19485:19503   */\n      0x24\n      dup3\n      add\n        /* \"#utility.yul\":19478:19508   */\n      mstore\n        /* \"#utility.yul\":19544:19566   */\n      0x496e73756666696369656e742062616c616e6365000000000000000000000000\n        /* \"#utility.yul\":19524:19542   */\n      0x44\n      dup3\n      add\n        /* \"#utility.yul\":19517:19567   */\n      mstore\n        /* \"#utility.yul\":19584:19602   */\n      0x64\n      add\n        /* \"PoolFamilyAndFriends.sol\":16486:16550  require(amount <= address(this).balance, \"Insufficient balance\") */\n      tag_415\n        /* \"#utility.yul\":19264:19608   */\n      jump\n        /* \"PoolFamilyAndFriends.sol\":16486:16550  require(amount <= address(this).balance, \"Insufficient balance\") */\n    tag_768:\n        /* \"PoolFamilyAndFriends.sol\":16579:16593  utilityAddress */\n      sload(0x07)\n        /* \"PoolFamilyAndFriends.sol\":16579:16617  utilityAddress.call{value: amount}(\"\") */\n      mload(0x40)\n        /* \"PoolFamilyAndFriends.sol\":16561:16573  bool success */\n      0x00\n      swap2\n      sub(shl(0xa0, 0x01), 0x01)\n        /* \"PoolFamilyAndFriends.sol\":16579:16593  utilityAddress */\n      and\n      swap1\n        /* \"PoolFamilyAndFriends.sol\":16606:16612  amount */\n      dup5\n      swap1\n        /* \"PoolFamilyAndFriends.sol\":16561:16573  bool success */\n      dup4\n        /* \"PoolFamilyAndFriends.sol\":16579:16617  utilityAddress.call{value: amount}(\"\") */\n      dup2\n        /* \"PoolFamilyAndFriends.sol\":16561:16573  bool success */\n      dup2\n        /* \"PoolFamilyAndFriends.sol\":16579:16617  utilityAddress.call{value: amount}(\"\") */\n      dup2\n        /* \"PoolFamilyAndFriends.sol\":16606:16612  amount */\n      dup6\n        /* \"PoolFamilyAndFriends.sol\":16579:16593  utilityAddress */\n      dup8\n        /* \"PoolFamilyAndFriends.sol\":16579:16617  utilityAddress.call{value: amount}(\"\") */\n      gas\n      call\n      swap3\n      pop\n      pop\n      pop\n      returndatasize\n      dup1\n      0x00\n      dup2\n      eq\n      tag_774\n      jumpi\n      mload(0x40)\n      swap2\n      pop\n      and(add(returndatasize, 0x3f), not(0x1f))\n      dup3\n      add\n      0x40\n      mstore\n      returndatasize\n      dup3\n      mstore\n      returndatasize\n      0x00\n      0x20\n      dup5\n      add\n      returndatacopy\n      jump(tag_773)\n    tag_774:\n      0x60\n      swap2\n      pop\n    tag_773:\n      pop\n        /* \"PoolFamilyAndFriends.sol\":16560:16617  (bool success, ) = utilityAddress.call{value: amount}(\"\") */\n      pop\n      swap1\n      pop\n        /* \"PoolFamilyAndFriends.sol\":16635:16642  success */\n      dup1\n        /* \"PoolFamilyAndFriends.sol\":16627:16666  require(success, \"ETH transfer failed\") */\n      tag_775\n      jumpi\n      mload(0x40)\n      shl(0xe5, 0x461bcd)\n      dup2\n      mstore\n        /* \"#utility.yul\":13997:13999   */\n      0x20\n        /* \"PoolFamilyAndFriends.sol\":16627:16666  require(success, \"ETH transfer failed\") */\n      0x04\n      dup3\n      add\n        /* \"#utility.yul\":13979:14000   */\n      mstore\n        /* \"#utility.yul\":14036:14038   */\n      0x13\n        /* \"#utility.yul\":14016:14034   */\n      0x24\n      dup3\n      add\n        /* \"#utility.yul\":14009:14039   */\n      mstore\n      shl(0x6a, 0x115512081d1c985b9cd9995c8819985a5b1959)\n        /* \"#utility.yul\":14055:14073   */\n      0x44\n      dup3\n      add\n        /* \"#utility.yul\":14048:14097   */\n      mstore\n        /* \"#utility.yul\":14114:14132   */\n      0x64\n      add\n        /* \"PoolFamilyAndFriends.sol\":16627:16666  require(success, \"ETH transfer failed\") */\n      tag_415\n        /* \"#utility.yul\":13795:14138   */\n      jump\n        /* \"PoolFamilyAndFriends.sol\":16627:16666  require(success, \"ETH transfer failed\") */\n    tag_775:\n        /* \"PoolFamilyAndFriends.sol\":16698:16712  utilityAddress */\n      sload(0x07)\n        /* \"PoolFamilyAndFriends.sol\":16681:16753  UtilityWithdrawn(utilityAddress, TokenType.ETH, amount, block.timestamp) */\n      mload(0x40)\n      sub(shl(0xa0, 0x01), 0x01)\n        /* \"PoolFamilyAndFriends.sol\":16698:16712  utilityAddress */\n      swap1\n      swap2\n      and\n      swap1\n        /* \"PoolFamilyAndFriends.sol\":16681:16753  UtilityWithdrawn(utilityAddress, TokenType.ETH, amount, block.timestamp) */\n      0x9adbdc797aca3ce26a722598f00149b2328fd124444e6d0b10c4bdc7cfc38196\n      swap1\n      tag_777\n      swap1\n        /* \"PoolFamilyAndFriends.sol\":16698:16712  utilityAddress */\n      0x00\n      swap1\n        /* \"PoolFamilyAndFriends.sol\":16729:16735  amount */\n      dup8\n      swap1\n        /* \"PoolFamilyAndFriends.sol\":16737:16752  block.timestamp */\n      timestamp\n      swap1\n        /* \"PoolFamilyAndFriends.sol\":16681:16753  UtilityWithdrawn(utilityAddress, TokenType.ETH, amount, block.timestamp) */\n      tag_423\n      jump\t// in\n    tag_777:\n      mload(0x40)\n      dup1\n      swap2\n      sub\n      swap1\n      log2\n        /* \"PoolFamilyAndFriends.sol\":16402:16760  {... */\n      pop\n        /* \"@openzeppelin/contracts/utils/ReentrancyGuard.sol\":2542:2562   */\n      tag_712\n        /* \"@openzeppelin/contracts/utils/ReentrancyGuard.sol\":1857:1858   */\n      0x01\n        /* \"@openzeppelin/contracts/utils/ReentrancyGuard.sol\":3068:3089   */\n      dup1\n      sstore\n        /* \"@openzeppelin/contracts/utils/ReentrancyGuard.sol\":2888:3096   */\n      jump\n        /* \"PoolFamilyAndFriends.sol\":2092:2123  address[] public withdrawnUsers */\n    tag_300:\n      0x10\n      dup2\n      dup2\n      sload\n      dup2\n      lt\n      tag_779\n      jumpi\n      0x00\n      dup1\n      revert\n    tag_779:\n      0x00\n      swap2\n      dup3\n      mstore\n      0x20\n      swap1\n      swap2\n      keccak256\n      add\n      sload\n      sub(shl(0xa0, 0x01), 0x01)\n      and\n      swap1\n      pop\n      dup2\n      jump\t// out\n        /* \"PoolFamilyAndFriends.sol\":2061:2086  address[] public allUsers */\n    tag_309:\n      0x0f\n      dup2\n      dup2\n      sload\n      dup2\n      lt\n      tag_779\n      jumpi\n      0x00\n      dup1\n      revert\n        /* \"PoolFamilyAndFriends.sol\":17146:18195  function getVaultStats() external view returns (... */\n    tag_313:\n        /* \"PoolFamilyAndFriends.sol\":17676:17713  IERC20(USDC).balanceOf(address(this)) */\n      mload(0x40)\n      shl(0xe0, 0x70a08231)\n      dup2\n      mstore\n        /* \"PoolFamilyAndFriends.sol\":17707:17711  this */\n      address\n        /* \"PoolFamilyAndFriends.sol\":17676:17713  IERC20(USDC).balanceOf(address(this)) */\n      0x04\n      dup3\n      add\n        /* \"#utility.yul\":9724:9798   */\n      mstore\n        /* \"PoolFamilyAndFriends.sol\":17631:17652  address(this).balance */\n      selfbalance\n      swap1\n        /* \"PoolFamilyAndFriends.sol\":17203:17221  uint256 ethInVault */\n      0x00\n      swap1\n      dup2\n      swap1\n      dup2\n      swap1\n      dup2\n      swap1\n      dup2\n      swap1\n      dup2\n      swap1\n      dup2\n      swap1\n      dup2\n      swap1\n      dup2\n      swap1\n      dup2\n      swap1\n      dup2\n      swap1\n        /* \"PoolFamilyAndFriends.sol\":526:568  0x833589fCD6eDb6E08f4c7C32D4f71b54bdA02913 */\n      0x833589fcd6edb6e08f4c7c32d4f71b54bda02913\n      swap1\n        /* \"PoolFamilyAndFriends.sol\":17676:17698  IERC20(USDC).balanceOf */\n      0x70a08231\n      swap1\n        /* \"#utility.yul\":9697:9715   */\n      0x24\n      add\n        /* \"PoolFamilyAndFriends.sol\":17676:17713  IERC20(USDC).balanceOf(address(this)) */\n      0x20\n      mload(0x40)\n      dup1\n      dup4\n      sub\n      dup2\n      dup7\n      gas\n      staticcall\n      iszero\n      dup1\n      iszero\n      tag_786\n      jumpi\n      returndatasize\n      0x00\n      dup1\n      returndatacopy\n      revert(0x00, returndatasize)\n    tag_786:\n      pop\n      pop\n      pop\n      pop\n      mload(0x40)\n      returndatasize\n      not(0x1f)\n      0x1f\n      dup3\n      add\n      and\n      dup3\n      add\n      dup1\n      0x40\n      mstore\n      pop\n      dup2\n      add\n      swap1\n      tag_787\n      swap2\n      swap1\n      tag_788\n      jump\t// in\n    tag_787:\n        /* \"PoolFamilyAndFriends.sol\":17662:17713  usdcInVault = IERC20(USDC).balanceOf(address(this)) */\n      swap11\n      pop\n        /* \"PoolFamilyAndFriends.sol\":17744:17761  totalDepositedETH */\n      sload(0x12)\n        /* \"PoolFamilyAndFriends.sol\":17723:17761  totalDepositedETH_ = totalDepositedETH */\n      swap10\n      pop\n        /* \"PoolFamilyAndFriends.sol\":17793:17811  totalDepositedUSDC */\n      sload(0x13)\n        /* \"PoolFamilyAndFriends.sol\":17771:17811  totalDepositedUSDC_ = totalDepositedUSDC */\n      swap9\n      pop\n        /* \"PoolFamilyAndFriends.sol\":17842:17859  totalWithdrawnETH */\n      sload(0x14)\n        /* \"PoolFamilyAndFriends.sol\":17821:17859  totalWithdrawnETH_ = totalWithdrawnETH */\n      swap8\n      pop\n        /* \"PoolFamilyAndFriends.sol\":17891:17909  totalWithdrawnUSDC */\n      sload(0x15)\n        /* \"PoolFamilyAndFriends.sol\":17869:17909  totalWithdrawnUSDC_ = totalWithdrawnUSDC */\n      swap7\n      pop\n        /* \"PoolFamilyAndFriends.sol\":17938:17953  totalUtilityETH */\n      sload(0x16)\n        /* \"PoolFamilyAndFriends.sol\":17919:17953  totalUtilityETH_ = totalUtilityETH */\n      swap6\n      pop\n        /* \"PoolFamilyAndFriends.sol\":17983:17999  totalUtilityUSDC */\n      sload(0x17)\n        /* \"PoolFamilyAndFriends.sol\":17963:17999  totalUtilityUSDC_ = totalUtilityUSDC */\n      swap5\n      pop\n        /* \"PoolFamilyAndFriends.sol\":18031:18049  totalReinvestedETH */\n      sload(0x18)\n        /* \"PoolFamilyAndFriends.sol\":18009:18049  totalReinvestedETH_ = totalReinvestedETH */\n      swap4\n      pop\n        /* \"PoolFamilyAndFriends.sol\":18082:18101  totalReinvestedUSDC */\n      sload(0x19)\n        /* \"PoolFamilyAndFriends.sol\":18059:18101  totalReinvestedUSDC_ = totalReinvestedUSDC */\n      swap3\n      pop\n        /* \"PoolFamilyAndFriends.sol\":18122:18130  allUsers */\n      0x0f\n        /* \"PoolFamilyAndFriends.sol\":18122:18137  allUsers.length */\n      dup1\n      sload\n      swap1\n      pop\n        /* \"PoolFamilyAndFriends.sol\":18111:18137  numUsers = allUsers.length */\n      swap2\n      pop\n        /* \"PoolFamilyAndFriends.sol\":18167:18181  withdrawnUsers */\n      0x10\n        /* \"PoolFamilyAndFriends.sol\":18167:18188  withdrawnUsers.length */\n      dup1\n      sload\n      swap1\n      pop\n        /* \"PoolFamilyAndFriends.sol\":18147:18188  numWithdrawnUsers = withdrawnUsers.length */\n      swap1\n      pop\n        /* \"PoolFamilyAndFriends.sol\":17146:18195  function getVaultStats() external view returns (... */\n      swap1\n      swap2\n      swap3\n      swap4\n      swap5\n      swap6\n      swap7\n      swap8\n      swap9\n      swap10\n      swap11\n      swap12\n      jump\t// out\n        /* \"PoolFamilyAndFriends.sol\":19530:19772  function rescueERC20(address token, address to, uint256 amount) external onlyRole(ADMIN_ROLE) {... */\n    tag_320:\n      0x00\n      dup1\n      mload\n      0x20\n      data_cb864c43dd5d441bb6271f424f11befa622c032dfd374d226e26fbbdb782b8f8\n      dup4\n      codecopy\n      dup2\n      mload\n      swap2\n      mstore\n        /* \"@openzeppelin/contracts/access/AccessControl.sol\":2473:2489   */\n      tag_790\n        /* \"@openzeppelin/contracts/access/AccessControl.sol\":2484:2488   */\n      dup2\n        /* \"@openzeppelin/contracts/access/AccessControl.sol\":2473:2483   */\n      tag_405\n        /* \"@openzeppelin/contracts/access/AccessControl.sol\":2473:2489   */\n      jump\t// in\n    tag_790:\n      sub(shl(0xa0, 0x01), 0x01)\n        /* \"PoolFamilyAndFriends.sol\":19642:19658  to != address(0) */\n      dup4\n      and\n        /* \"PoolFamilyAndFriends.sol\":19634:19675  require(to != address(0), \"Zero address\") */\n      tag_792\n      jumpi\n      mload(0x40)\n      shl(0xe5, 0x461bcd)\n      dup2\n      mstore\n        /* \"#utility.yul\":19125:19127   */\n      0x20\n        /* \"PoolFamilyAndFriends.sol\":19634:19675  require(to != address(0), \"Zero address\") */\n      0x04\n      dup3\n      add\n        /* \"#utility.yul\":19107:19128   */\n      mstore\n        /* \"#utility.yul\":19164:19166   */\n      0x0c\n        /* \"#utility.yul\":19144:19162   */\n      0x24\n      dup3\n      add\n        /* \"#utility.yul\":19137:19167   */\n      mstore\n      shl(0xa0, 0x5a65726f2061646472657373)\n        /* \"#utility.yul\":19183:19201   */\n      0x44\n      dup3\n      add\n        /* \"#utility.yul\":19176:19218   */\n      mstore\n        /* \"#utility.yul\":19235:19253   */\n      0x64\n      add\n        /* \"PoolFamilyAndFriends.sol\":19634:19675  require(to != address(0), \"Zero address\") */\n      tag_415\n        /* \"#utility.yul\":18923:19259   */\n      jump\n        /* \"PoolFamilyAndFriends.sol\":19634:19675  require(to != address(0), \"Zero address\") */\n    tag_792:\n        /* \"PoolFamilyAndFriends.sol\":19685:19719  IERC20(token).transfer(to, amount) */\n      mload(0x40)\n      shl(0xe0, 0xa9059cbb)\n      dup2\n      mstore\n      sub(shl(0xa0, 0x01), 0x01)\n        /* \"#utility.yul\":14335:14390   */\n      dup5\n      dup2\n      and\n        /* \"PoolFamilyAndFriends.sol\":19685:19719  IERC20(token).transfer(to, amount) */\n      0x04\n      dup4\n      add\n        /* \"#utility.yul\":14317:14391   */\n      mstore\n        /* \"#utility.yul\":14407:14425   */\n      0x24\n      dup3\n      add\n        /* \"#utility.yul\":14400:14434   */\n      dup5\n      swap1\n      mstore\n        /* \"PoolFamilyAndFriends.sol\":19685:19707  IERC20(token).transfer */\n      dup6\n      and\n      swap1\n      0xa9059cbb\n      swap1\n        /* \"#utility.yul\":14290:14308   */\n      0x44\n      add\n        /* \"PoolFamilyAndFriends.sol\":19685:19719  IERC20(token).transfer(to, amount) */\n      0x20\n      mload(0x40)\n      dup1\n      dup4\n      sub\n      dup2\n      0x00\n      dup8\n      gas\n      call\n      iszero\n      dup1\n      iszero\n      tag_796\n      jumpi\n      returndatasize\n      0x00\n      dup1\n      returndatacopy\n      revert(0x00, returndatasize)\n    tag_796:\n      pop\n      pop\n      pop\n      pop\n      mload(0x40)\n      returndatasize\n      not(0x1f)\n      0x1f\n      dup3\n      add\n      and\n      dup3\n      add\n      dup1\n      0x40\n      mstore\n      pop\n      dup2\n      add\n      swap1\n      tag_797\n      swap2\n      swap1\n      tag_484\n      jump\t// in\n    tag_797:\n      pop\n        /* \"PoolFamilyAndFriends.sol\":19754:19756  to */\n      dup3\n      sub(shl(0xa0, 0x01), 0x01)\n        /* \"PoolFamilyAndFriends.sol\":19734:19765  ERC20Rescued(token, to, amount) */\n      and\n        /* \"PoolFamilyAndFriends.sol\":19747:19752  token */\n      dup5\n      sub(shl(0xa0, 0x01), 0x01)\n        /* \"PoolFamilyAndFriends.sol\":19734:19765  ERC20Rescued(token, to, amount) */\n      and\n      0x8bbfbb5d7fcacf6fc74005cdede0635561638507f576c95f7f294c22141be2e5\n        /* \"PoolFamilyAndFriends.sol\":19758:19764  amount */\n      dup5\n        /* \"PoolFamilyAndFriends.sol\":19734:19765  ERC20Rescued(token, to, amount) */\n      mload(0x40)\n      tag_798\n      swap2\n        /* \"#utility.yul\":1131:1156   */\n      dup2\n      mstore\n        /* \"#utility.yul\":1119:1121   */\n      0x20\n        /* \"#utility.yul\":1104:1122   */\n      add\n      swap1\n        /* \"#utility.yul\":985:1162   */\n      jump\n        /* \"PoolFamilyAndFriends.sol\":19734:19765  ERC20Rescued(token, to, amount) */\n    tag_798:\n      mload(0x40)\n      dup1\n      swap2\n      sub\n      swap1\n      log3\n        /* \"PoolFamilyAndFriends.sol\":19530:19772  function rescueERC20(address token, address to, uint256 amount) external onlyRole(ADMIN_ROLE) {... */\n      pop\n      pop\n      pop\n      pop\n      jump\t// out\n        /* \"PoolFamilyAndFriends.sol\":13485:13986  function assignUtilityETHBatch(address[] calldata users, uint256[] calldata amounts) external onlyRole(ADMIN_ROLE) {... */\n    tag_332:\n      0x00\n      dup1\n      mload\n      0x20\n      data_cb864c43dd5d441bb6271f424f11befa622c032dfd374d226e26fbbdb782b8f8\n      dup4\n      codecopy\n      dup2\n      mload\n      swap2\n      mstore\n        /* \"@openzeppelin/contracts/access/AccessControl.sol\":2473:2489   */\n      tag_800\n        /* \"@openzeppelin/contracts/access/AccessControl.sol\":2484:2488   */\n      dup2\n        /* \"@openzeppelin/contracts/access/AccessControl.sol\":2473:2483   */\n      tag_405\n        /* \"@openzeppelin/contracts/access/AccessControl.sol\":2473:2489   */\n      jump\t// in\n    tag_800:\n        /* \"PoolFamilyAndFriends.sol\":13618:13648  users.length == amounts.length */\n      dup4\n      dup3\n      eq\n        /* \"PoolFamilyAndFriends.sol\":13610:13661  require(users.length == amounts.length, \"Mismatch\") */\n      tag_802\n      jumpi\n      mload(0x40)\n      shl(0xe5, 0x461bcd)\n      dup2\n      mstore\n        /* \"#utility.yul\":15396:15398   */\n      0x20\n        /* \"PoolFamilyAndFriends.sol\":13610:13661  require(users.length == amounts.length, \"Mismatch\") */\n      0x04\n      dup3\n      add\n        /* \"#utility.yul\":15378:15399   */\n      mstore\n        /* \"#utility.yul\":15435:15436   */\n      0x08\n        /* \"#utility.yul\":15415:15433   */\n      0x24\n      dup3\n      add\n        /* \"#utility.yul\":15408:15437   */\n      mstore\n      shl(0xc3, 0x09ad2e6dac2e8c6d)\n        /* \"#utility.yul\":15453:15471   */\n      0x44\n      dup3\n      add\n        /* \"#utility.yul\":15446:15484   */\n      mstore\n        /* \"#utility.yul\":15501:15519   */\n      0x64\n      add\n        /* \"PoolFamilyAndFriends.sol\":13610:13661  require(users.length == amounts.length, \"Mismatch\") */\n      tag_415\n        /* \"#utility.yul\":15194:15525   */\n      jump\n        /* \"PoolFamilyAndFriends.sol\":13610:13661  require(users.length == amounts.length, \"Mismatch\") */\n    tag_802:\n        /* \"PoolFamilyAndFriends.sol\":13671:13684  uint256 total */\n      0x00\n      dup1\n        /* \"PoolFamilyAndFriends.sol\":13694:13887  for (uint256 i = 0; i < users.length; i++) {... */\n    tag_804:\n        /* \"PoolFamilyAndFriends.sol\":13714:13730  i < users.length */\n      dup6\n      dup2\n      lt\n        /* \"PoolFamilyAndFriends.sol\":13694:13887  for (uint256 i = 0; i < users.length; i++) {... */\n      iszero\n      tag_805\n      jumpi\n        /* \"PoolFamilyAndFriends.sol\":13772:13773  0 */\n      0x00\n        /* \"PoolFamilyAndFriends.sol\":13759:13766  amounts */\n      dup6\n      dup6\n        /* \"PoolFamilyAndFriends.sol\":13767:13768  i */\n      dup4\n        /* \"PoolFamilyAndFriends.sol\":13759:13769  amounts[i] */\n      dup2\n      dup2\n      lt\n      tag_808\n      jumpi\n      tag_808\n      tag_444\n      jump\t// in\n    tag_808:\n      swap1\n      pop\n      0x20\n      mul\n      add\n      calldataload\n        /* \"PoolFamilyAndFriends.sol\":13759:13773  amounts[i] > 0 */\n      gt\n        /* \"PoolFamilyAndFriends.sol\":13751:13782  require(amounts[i] > 0, \"Zero\") */\n      tag_809\n      jumpi\n      mload(0x40)\n      shl(0xe5, 0x461bcd)\n      dup2\n      mstore\n      0x04\n      add\n      tag_415\n      swap1\n        /* \"#utility.yul\":15732:15734   */\n      0x20\n        /* \"#utility.yul\":15714:15735   */\n      dup1\n      dup3\n      mstore\n        /* \"#utility.yul\":15771:15772   */\n      0x04\n        /* \"#utility.yul\":15751:15769   */\n      swap1\n      dup3\n      add\n        /* \"#utility.yul\":15744:15773   */\n      mstore\n      shl(0xe0, 0x5a65726f)\n        /* \"#utility.yul\":15804:15806   */\n      0x40\n        /* \"#utility.yul\":15789:15807   */\n      dup3\n      add\n        /* \"#utility.yul\":15782:15816   */\n      mstore\n        /* \"#utility.yul\":15848:15850   */\n      0x60\n        /* \"#utility.yul\":15833:15851   */\n      add\n      swap1\n        /* \"#utility.yul\":15530:15857   */\n      jump\n        /* \"PoolFamilyAndFriends.sol\":13751:13782  require(amounts[i] > 0, \"Zero\") */\n    tag_809:\n        /* \"PoolFamilyAndFriends.sol\":13833:13840  amounts */\n      dup5\n      dup5\n        /* \"PoolFamilyAndFriends.sol\":13841:13842  i */\n      dup3\n        /* \"PoolFamilyAndFriends.sol\":13833:13843  amounts[i] */\n      dup2\n      dup2\n      lt\n      tag_812\n      jumpi\n      tag_812\n      tag_444\n      jump\t// in\n    tag_812:\n      swap1\n      pop\n      0x20\n      mul\n      add\n      calldataload\n        /* \"PoolFamilyAndFriends.sol\":13796:13819  userClaimableUtilityETH */\n      0x0b\n        /* \"PoolFamilyAndFriends.sol\":13796:13829  userClaimableUtilityETH[users[i]] */\n      0x00\n        /* \"PoolFamilyAndFriends.sol\":13820:13825  users */\n      dup10\n      dup10\n        /* \"PoolFamilyAndFriends.sol\":13826:13827  i */\n      dup6\n        /* \"PoolFamilyAndFriends.sol\":13820:13828  users[i] */\n      dup2\n      dup2\n      lt\n      tag_814\n      jumpi\n      tag_814\n      tag_444\n      jump\t// in\n    tag_814:\n      swap1\n      pop\n      0x20\n      mul\n      add\n      0x20\n      dup2\n      add\n      swap1\n      tag_815\n      swap2\n      swap1\n      tag_104\n      jump\t// in\n    tag_815:\n      sub(shl(0xa0, 0x01), 0x01)\n        /* \"PoolFamilyAndFriends.sol\":13796:13829  userClaimableUtilityETH[users[i]] */\n      and\n      sub(shl(0xa0, 0x01), 0x01)\n      and\n      dup2\n      mstore\n      0x20\n      add\n      swap1\n      dup2\n      mstore\n      0x20\n      add\n      0x00\n      keccak256\n      0x00\n        /* \"PoolFamilyAndFriends.sol\":13796:13843  userClaimableUtilityETH[users[i]] += amounts[i] */\n      dup3\n      dup3\n      sload\n      tag_816\n      swap2\n      swap1\n      tag_420\n      jump\t// in\n    tag_816:\n      swap1\n      swap2\n      sstore\n      pop\n        /* \"PoolFamilyAndFriends.sol\":13866:13873  amounts */\n      dup6\n      swap1\n      pop\n      dup5\n        /* \"PoolFamilyAndFriends.sol\":13874:13875  i */\n      dup3\n        /* \"PoolFamilyAndFriends.sol\":13866:13876  amounts[i] */\n      dup2\n      dup2\n      lt\n      tag_818\n      jumpi\n      tag_818\n      tag_444\n      jump\t// in\n    tag_818:\n      swap1\n      pop\n      0x20\n      mul\n      add\n      calldataload\n        /* \"PoolFamilyAndFriends.sol\":13857:13876  total += amounts[i] */\n      dup3\n      tag_819\n      swap2\n      swap1\n      tag_420\n      jump\t// in\n    tag_819:\n      swap2\n      pop\n        /* \"PoolFamilyAndFriends.sol\":13732:13735  i++ */\n      0x01\n      add\n        /* \"PoolFamilyAndFriends.sol\":13694:13887  for (uint256 i = 0; i < users.length; i++) {... */\n      jump(tag_804)\n    tag_805:\n      pop\n        /* \"PoolFamilyAndFriends.sol\":13913:13928  totalUtilityETH */\n      sload(0x16)\n        /* \"PoolFamilyAndFriends.sol\":13904:13909  total */\n      dup2\n        /* \"PoolFamilyAndFriends.sol\":13904:13928  total <= totalUtilityETH */\n      gt\n      iszero\n        /* \"PoolFamilyAndFriends.sol\":13896:13945  require(total <= totalUtilityETH, \"Exceeds pool\") */\n      tag_820\n      jumpi\n      mload(0x40)\n      shl(0xe5, 0x461bcd)\n      dup2\n      mstore\n        /* \"#utility.yul\":16064:16066   */\n      0x20\n        /* \"PoolFamilyAndFriends.sol\":13896:13945  require(total <= totalUtilityETH, \"Exceeds pool\") */\n      0x04\n      dup3\n      add\n        /* \"#utility.yul\":16046:16067   */\n      mstore\n        /* \"#utility.yul\":16103:16105   */\n      0x0c\n        /* \"#utility.yul\":16083:16101   */\n      0x24\n      dup3\n      add\n        /* \"#utility.yul\":16076:16106   */\n      mstore\n      shl(0xa2, 0x115e18d959591cc81c1bdbdb)\n        /* \"#utility.yul\":16122:16140   */\n      0x44\n      dup3\n      add\n        /* \"#utility.yul\":16115:16157   */\n      mstore\n        /* \"#utility.yul\":16174:16192   */\n      0x64\n      add\n        /* \"PoolFamilyAndFriends.sol\":13896:13945  require(total <= totalUtilityETH, \"Exceeds pool\") */\n      tag_415\n        /* \"#utility.yul\":15862:16198   */\n      jump\n        /* \"PoolFamilyAndFriends.sol\":13896:13945  require(total <= totalUtilityETH, \"Exceeds pool\") */\n    tag_820:\n        /* \"PoolFamilyAndFriends.sol\":13974:13979  total */\n      dup1\n        /* \"PoolFamilyAndFriends.sol\":13955:13970  totalUtilityETH */\n      0x16\n      0x00\n        /* \"PoolFamilyAndFriends.sol\":13955:13979  totalUtilityETH -= total */\n      dup3\n      dup3\n      sload\n      tag_528\n      swap2\n      swap1\n      tag_529\n      jump\t// in\n        /* \"PoolFamilyAndFriends.sol\":15792:16246  function reinvestUtilityUSDC() external nonReentrant {... */\n    tag_335:\n        /* \"@openzeppelin/contracts/utils/ReentrancyGuard.sol\":2500:2521   */\n      tag_824\n        /* \"@openzeppelin/contracts/utils/ReentrancyGuard.sol\":2500:2519   */\n      tag_412\n        /* \"@openzeppelin/contracts/utils/ReentrancyGuard.sol\":2500:2521   */\n      jump\t// in\n    tag_824:\n        /* \"PoolFamilyAndFriends.sol\":15897:15907  msg.sender */\n      caller\n        /* \"PoolFamilyAndFriends.sol\":15855:15869  uint256 amount */\n      0x00\n        /* \"PoolFamilyAndFriends.sol\":15872:15908  userClaimableUtilityUSDC[msg.sender] */\n      swap1\n      dup2\n      mstore\n        /* \"PoolFamilyAndFriends.sol\":15872:15896  userClaimableUtilityUSDC */\n      0x0c\n        /* \"PoolFamilyAndFriends.sol\":15872:15908  userClaimableUtilityUSDC[msg.sender] */\n      0x20\n      mstore\n      0x40\n      swap1\n      keccak256\n      sload\n        /* \"PoolFamilyAndFriends.sol\":15926:15936  amount > 0 */\n      dup1\n        /* \"PoolFamilyAndFriends.sol\":15918:15951  require(amount > 0, \"No utility\") */\n      tag_826\n      jumpi\n      mload(0x40)\n      shl(0xe5, 0x461bcd)\n      dup2\n      mstore\n        /* \"#utility.yul\":11663:11665   */\n      0x20\n        /* \"PoolFamilyAndFriends.sol\":15918:15951  require(amount > 0, \"No utility\") */\n      0x04\n      dup3\n      add\n        /* \"#utility.yul\":11645:11666   */\n      mstore\n        /* \"#utility.yul\":11702:11704   */\n      0x0a\n        /* \"#utility.yul\":11682:11700   */\n      0x24\n      dup3\n      add\n        /* \"#utility.yul\":11675:11705   */\n      mstore\n      shl(0xb0, 0x4e6f207574696c697479)\n        /* \"#utility.yul\":11721:11739   */\n      0x44\n      dup3\n      add\n        /* \"#utility.yul\":11714:11754   */\n      mstore\n        /* \"#utility.yul\":11771:11789   */\n      0x64\n      add\n        /* \"PoolFamilyAndFriends.sol\":15918:15951  require(amount > 0, \"No utility\") */\n      tag_415\n        /* \"#utility.yul\":11461:11795   */\n      jump\n        /* \"PoolFamilyAndFriends.sol\":15918:15951  require(amount > 0, \"No utility\") */\n    tag_826:\n        /* \"PoolFamilyAndFriends.sol\":15986:15996  msg.sender */\n      caller\n        /* \"PoolFamilyAndFriends.sol\":16000:16001  0 */\n      0x00\n        /* \"PoolFamilyAndFriends.sol\":15961:15997  userClaimableUtilityUSDC[msg.sender] */\n      dup2\n      dup2\n      mstore\n        /* \"PoolFamilyAndFriends.sol\":15961:15985  userClaimableUtilityUSDC */\n      0x0c\n        /* \"PoolFamilyAndFriends.sol\":15961:15997  userClaimableUtilityUSDC[msg.sender] */\n      0x20\n      mstore\n      0x40\n      dup2\n      keccak256\n        /* \"PoolFamilyAndFriends.sol\":15961:16001  userClaimableUtilityUSDC[msg.sender] = 0 */\n      sstore\n        /* \"PoolFamilyAndFriends.sol\":16011:16069  _registerDeposit(msg.sender, TokenType.USDC, amount, true) */\n      tag_828\n      swap1\n        /* \"PoolFamilyAndFriends.sol\":16040:16054  TokenType.USDC */\n      0x01\n        /* \"PoolFamilyAndFriends.sol\":16056:16062  amount */\n      dup4\n        /* \"PoolFamilyAndFriends.sol\":16040:16054  TokenType.USDC */\n      dup2\n        /* \"PoolFamilyAndFriends.sol\":16011:16027  _registerDeposit */\n      tag_418\n        /* \"PoolFamilyAndFriends.sol\":16011:16069  _registerDeposit(msg.sender, TokenType.USDC, amount, true) */\n      jump\t// in\n    tag_828:\n        /* \"PoolFamilyAndFriends.sol\":16102:16108  amount */\n      dup1\n        /* \"PoolFamilyAndFriends.sol\":16079:16098  totalReinvestedUSDC */\n      0x19\n      0x00\n        /* \"PoolFamilyAndFriends.sol\":16079:16108  totalReinvestedUSDC += amount */\n      dup3\n      dup3\n      sload\n      tag_829\n      swap2\n      swap1\n      tag_420\n      jump\t// in\n    tag_829:\n      swap1\n      swap2\n      sstore\n      pop\n      pop\n        /* \"PoolFamilyAndFriends.sol\":16142:16152  msg.sender */\n      caller\n        /* \"PoolFamilyAndFriends.sol\":16118:16153  userTotalReinvestedUSDC[msg.sender] */\n      0x00\n      swap1\n      dup2\n      mstore\n        /* \"PoolFamilyAndFriends.sol\":16118:16141  userTotalReinvestedUSDC */\n      0x0e\n        /* \"PoolFamilyAndFriends.sol\":16118:16153  userTotalReinvestedUSDC[msg.sender] */\n      0x20\n      mstore\n      0x40\n      dup2\n      keccak256\n        /* \"PoolFamilyAndFriends.sol\":16118:16163  userTotalReinvestedUSDC[msg.sender] += amount */\n      dup1\n      sload\n        /* \"PoolFamilyAndFriends.sol\":16157:16163  amount */\n      dup4\n      swap3\n        /* \"PoolFamilyAndFriends.sol\":16118:16153  userTotalReinvestedUSDC[msg.sender] */\n      swap1\n        /* \"PoolFamilyAndFriends.sol\":16118:16163  userTotalReinvestedUSDC[msg.sender] += amount */\n      tag_830\n      swap1\n        /* \"PoolFamilyAndFriends.sol\":16157:16163  amount */\n      dup5\n      swap1\n        /* \"PoolFamilyAndFriends.sol\":16118:16163  userTotalReinvestedUSDC[msg.sender] += amount */\n      tag_420\n      jump\t// in\n    tag_830:\n      swap1\n      swap2\n      sstore\n      pop\n      pop\n        /* \"PoolFamilyAndFriends.sol\":16178:16239  Reinvest(msg.sender, TokenType.USDC, amount, block.timestamp) */\n      mload(0x40)\n        /* \"PoolFamilyAndFriends.sol\":16187:16197  msg.sender */\n      caller\n      swap1\n        /* \"PoolFamilyAndFriends.sol\":16178:16239  Reinvest(msg.sender, TokenType.USDC, amount, block.timestamp) */\n      0x997d2ec09b086de73d509bbc4ad2b52fd7e2338024464bede93a41abd6ccdc38\n      swap1\n      tag_422\n      swap1\n        /* \"PoolFamilyAndFriends.sol\":16199:16213  TokenType.USDC */\n      0x01\n      swap1\n        /* \"PoolFamilyAndFriends.sol\":16215:16221  amount */\n      dup6\n      swap1\n        /* \"PoolFamilyAndFriends.sol\":16223:16238  block.timestamp */\n      timestamp\n      swap1\n        /* \"PoolFamilyAndFriends.sol\":16178:16239  Reinvest(msg.sender, TokenType.USDC, amount, block.timestamp) */\n      tag_423\n      jump\t// in\n        /* \"PoolFamilyAndFriends.sol\":4574:4734  function setLockupPeriod(uint256 newPeriod) external onlyRole(ADMIN_ROLE) {... */\n    tag_339:\n      0x00\n      dup1\n      mload\n      0x20\n      data_cb864c43dd5d441bb6271f424f11befa622c032dfd374d226e26fbbdb782b8f8\n      dup4\n      codecopy\n      dup2\n      mload\n      swap2\n      mstore\n        /* \"@openzeppelin/contracts/access/AccessControl.sol\":2473:2489   */\n      tag_834\n        /* \"@openzeppelin/contracts/access/AccessControl.sol\":2484:2488   */\n      dup2\n        /* \"@openzeppelin/contracts/access/AccessControl.sol\":2473:2483   */\n      tag_405\n        /* \"@openzeppelin/contracts/access/AccessControl.sol\":2473:2489   */\n      jump\t// in\n    tag_834:\n        /* \"PoolFamilyAndFriends.sol\":4658:4670  lockupPeriod */\n      0x02\n        /* \"PoolFamilyAndFriends.sol\":4658:4682  lockupPeriod = newPeriod */\n      dup3\n      swap1\n      sstore\n        /* \"PoolFamilyAndFriends.sol\":4697:4727  LockupPeriodChanged(newPeriod) */\n      mload(0x40)\n        /* \"#utility.yul\":1131:1156   */\n      dup3\n      dup2\n      mstore\n        /* \"PoolFamilyAndFriends.sol\":4697:4727  LockupPeriodChanged(newPeriod) */\n      0xc5e00a325524bc148ddc05bb642b804e9ae1dfc670c217ed3c4c6595f7427ef4\n      swap1\n        /* \"#utility.yul\":1119:1121   */\n      0x20\n        /* \"#utility.yul\":1104:1122   */\n      add\n        /* \"PoolFamilyAndFriends.sol\":4697:4727  LockupPeriodChanged(newPeriod) */\n      tag_759\n        /* \"#utility.yul\":985:1162   */\n      jump\n        /* \"@openzeppelin/contracts/access/AccessControl.sol\":4618:4756   */\n    tag_343:\n        /* \"@openzeppelin/contracts/access/AccessControl.sol\":3851:3858   */\n      0x00\n        /* \"@openzeppelin/contracts/access/AccessControl.sol\":3877:3889   */\n      dup3\n      dup2\n      mstore\n      0x20\n      dup2\n      swap1\n      mstore\n      0x40\n      swap1\n      keccak256\n        /* \"@openzeppelin/contracts/access/AccessControl.sol\":3877:3899   */\n      0x01\n      add\n      sload\n        /* \"@openzeppelin/contracts/access/AccessControl.sol\":2473:2489   */\n      tag_839\n        /* \"@openzeppelin/contracts/access/AccessControl.sol\":2484:2488   */\n      dup2\n        /* \"@openzeppelin/contracts/access/AccessControl.sol\":2473:2483   */\n      tag_405\n        /* \"@openzeppelin/contracts/access/AccessControl.sol\":2473:2489   */\n      jump\t// in\n    tag_839:\n        /* \"@openzeppelin/contracts/access/AccessControl.sol\":4723:4749   */\n      tag_494\n        /* \"@openzeppelin/contracts/access/AccessControl.sol\":4735:4739   */\n      dup4\n        /* \"@openzeppelin/contracts/access/AccessControl.sol\":4741:4748   */\n      dup4\n        /* \"@openzeppelin/contracts/access/AccessControl.sol\":4723:4734   */\n      tag_501\n        /* \"@openzeppelin/contracts/access/AccessControl.sol\":4723:4749   */\n      jump\t// in\n        /* \"PoolFamilyAndFriends.sol\":12492:12817  function injectUtilityUSDC(uint256 amount) external onlyRole(UTILITY_INJECTOR_ROLE) {... */\n    tag_347:\n        /* \"PoolFamilyAndFriends.sol\":1231:1265  keccak256(\"UTILITY_INJECTOR_ROLE\") */\n      0xf60566c40710959d8d30b6067ce3c53c757bec78eecb0e46b83c7f8194ffae37\n        /* \"@openzeppelin/contracts/access/AccessControl.sol\":2473:2489   */\n      tag_843\n        /* \"@openzeppelin/contracts/access/AccessControl.sol\":2484:2488   */\n      dup2\n        /* \"@openzeppelin/contracts/access/AccessControl.sol\":2473:2483   */\n      tag_405\n        /* \"@openzeppelin/contracts/access/AccessControl.sol\":2473:2489   */\n      jump\t// in\n    tag_843:\n        /* \"PoolFamilyAndFriends.sol\":12603:12604  0 */\n      0x00\n        /* \"PoolFamilyAndFriends.sol\":12594:12600  amount */\n      dup3\n        /* \"PoolFamilyAndFriends.sol\":12594:12604  amount > 0 */\n      gt\n        /* \"PoolFamilyAndFriends.sol\":12586:12621  require(amount > 0, \"No USDC sent\") */\n      tag_845\n      jumpi\n      mload(0x40)\n      shl(0xe5, 0x461bcd)\n      dup2\n      mstore\n        /* \"#utility.yul\":20004:20006   */\n      0x20\n        /* \"PoolFamilyAndFriends.sol\":12586:12621  require(amount > 0, \"No USDC sent\") */\n      0x04\n      dup3\n      add\n        /* \"#utility.yul\":19986:20007   */\n      mstore\n        /* \"#utility.yul\":20043:20045   */\n      0x0c\n        /* \"#utility.yul\":20023:20041   */\n      0x24\n      dup3\n      add\n        /* \"#utility.yul\":20016:20046   */\n      mstore\n      shl(0xa2, 0x139bc81554d110c81cd95b9d)\n        /* \"#utility.yul\":20062:20080   */\n      0x44\n      dup3\n      add\n        /* \"#utility.yul\":20055:20097   */\n      mstore\n        /* \"#utility.yul\":20114:20132   */\n      0x64\n      add\n        /* \"PoolFamilyAndFriends.sol\":12586:12621  require(amount > 0, \"No USDC sent\") */\n      tag_415\n        /* \"#utility.yul\":19802:20138   */\n      jump\n        /* \"PoolFamilyAndFriends.sol\":12586:12621  require(amount > 0, \"No USDC sent\") */\n    tag_845:\n        /* \"PoolFamilyAndFriends.sol\":12631:12691  IERC20(USDC).transferFrom(msg.sender, address(this), amount) */\n      mload(0x40)\n      shl(0xe0, 0x23b872dd)\n      dup2\n      mstore\n        /* \"PoolFamilyAndFriends.sol\":12657:12667  msg.sender */\n      caller\n        /* \"PoolFamilyAndFriends.sol\":12631:12691  IERC20(USDC).transferFrom(msg.sender, address(this), amount) */\n      0x04\n      dup3\n      add\n        /* \"#utility.yul\":20406:20440   */\n      mstore\n        /* \"PoolFamilyAndFriends.sol\":12677:12681  this */\n      address\n        /* \"#utility.yul\":20456:20474   */\n      0x24\n      dup3\n      add\n        /* \"#utility.yul\":20449:20492   */\n      mstore\n        /* \"#utility.yul\":20508:20526   */\n      0x44\n      dup2\n      add\n        /* \"#utility.yul\":20501:20535   */\n      dup4\n      swap1\n      mstore\n        /* \"PoolFamilyAndFriends.sol\":526:568  0x833589fCD6eDb6E08f4c7C32D4f71b54bdA02913 */\n      0x833589fcd6edb6e08f4c7c32d4f71b54bda02913\n      swap1\n        /* \"PoolFamilyAndFriends.sol\":12631:12656  IERC20(USDC).transferFrom */\n      0x23b872dd\n      swap1\n        /* \"#utility.yul\":20318:20336   */\n      0x64\n      add\n        /* \"PoolFamilyAndFriends.sol\":12631:12691  IERC20(USDC).transferFrom(msg.sender, address(this), amount) */\n      0x20\n      mload(0x40)\n      dup1\n      dup4\n      sub\n      dup2\n      0x00\n      dup8\n      gas\n      call\n      iszero\n      dup1\n      iszero\n      tag_851\n      jumpi\n      returndatasize\n      0x00\n      dup1\n      returndatacopy\n      revert(0x00, returndatasize)\n    tag_851:\n      pop\n      pop\n      pop\n      pop\n      mload(0x40)\n      returndatasize\n      not(0x1f)\n      0x1f\n      dup3\n      add\n      and\n      dup3\n      add\n      dup1\n      0x40\n      mstore\n      pop\n      dup2\n      add\n      swap1\n      tag_852\n      swap2\n      swap1\n      tag_484\n      jump\t// in\n    tag_852:\n      pop\n        /* \"PoolFamilyAndFriends.sol\":12721:12727  amount */\n      dup2\n        /* \"PoolFamilyAndFriends.sol\":12701:12717  totalUtilityUSDC */\n      0x17\n      0x00\n        /* \"PoolFamilyAndFriends.sol\":12701:12727  totalUtilityUSDC += amount */\n      dup3\n      dup3\n      sload\n      tag_853\n      swap2\n      swap1\n      tag_420\n      jump\t// in\n    tag_853:\n      swap1\n      swap2\n      sstore\n      pop\n      pop\n        /* \"PoolFamilyAndFriends.sol\":12742:12810  UtilityInjected(msg.sender, TokenType.USDC, amount, block.timestamp) */\n      mload(0x40)\n        /* \"PoolFamilyAndFriends.sol\":12758:12768  msg.sender */\n      caller\n      swap1\n        /* \"PoolFamilyAndFriends.sol\":12742:12810  UtilityInjected(msg.sender, TokenType.USDC, amount, block.timestamp) */\n      0x8bafec96fcffb6f12596b4635c76397b7bc1f363b22c49c13136b63677323dcc\n      swap1\n      tag_854\n      swap1\n        /* \"PoolFamilyAndFriends.sol\":12770:12784  TokenType.USDC */\n      0x01\n      swap1\n        /* \"PoolFamilyAndFriends.sol\":12786:12792  amount */\n      dup7\n      swap1\n        /* \"PoolFamilyAndFriends.sol\":12794:12809  block.timestamp */\n      timestamp\n      swap1\n        /* \"PoolFamilyAndFriends.sol\":12742:12810  UtilityInjected(msg.sender, TokenType.USDC, amount, block.timestamp) */\n      tag_423\n      jump\t// in\n    tag_854:\n      mload(0x40)\n      dup1\n      swap2\n      sub\n      swap1\n      log2\n        /* \"PoolFamilyAndFriends.sol\":12492:12817  function injectUtilityUSDC(uint256 amount) external onlyRole(UTILITY_INJECTOR_ROLE) {... */\n      pop\n      pop\n      jump\t// out\n        /* \"PoolFamilyAndFriends.sol\":11608:12180  function enableGlobalLiquidation() external onlyRole(ADMIN_ROLE) {... */\n    tag_350:\n      0x00\n      dup1\n      mload\n      0x20\n      data_cb864c43dd5d441bb6271f424f11befa622c032dfd374d226e26fbbdb782b8f8\n      dup4\n      codecopy\n      dup2\n      mload\n      swap2\n      mstore\n        /* \"@openzeppelin/contracts/access/AccessControl.sol\":2473:2489   */\n      tag_856\n        /* \"@openzeppelin/contracts/access/AccessControl.sol\":2484:2488   */\n      dup2\n        /* \"@openzeppelin/contracts/access/AccessControl.sol\":2473:2483   */\n      tag_405\n        /* \"@openzeppelin/contracts/access/AccessControl.sol\":2473:2489   */\n      jump\t// in\n    tag_856:\n        /* \"PoolFamilyAndFriends.sol\":11692:11716  globalLiquidationEnabled */\n      sload(0x05)\n      0x01000000\n      swap1\n      div\n      0xff\n      and\n        /* \"PoolFamilyAndFriends.sol\":11691:11716  !globalLiquidationEnabled */\n      iszero\n        /* \"PoolFamilyAndFriends.sol\":11683:11736  require(!globalLiquidationEnabled, \"Already enabled\") */\n      tag_858\n      jumpi\n      mload(0x40)\n      shl(0xe5, 0x461bcd)\n      dup2\n      mstore\n        /* \"#utility.yul\":20748:20750   */\n      0x20\n        /* \"PoolFamilyAndFriends.sol\":11683:11736  require(!globalLiquidationEnabled, \"Already enabled\") */\n      0x04\n      dup3\n      add\n        /* \"#utility.yul\":20730:20751   */\n      mstore\n        /* \"#utility.yul\":20787:20789   */\n      0x0f\n        /* \"#utility.yul\":20767:20785   */\n      0x24\n      dup3\n      add\n        /* \"#utility.yul\":20760:20790   */\n      mstore\n        /* \"#utility.yul\":20826:20843   */\n      0x416c726561647920656e61626c65640000000000000000000000000000000000\n        /* \"#utility.yul\":20806:20824   */\n      0x44\n      dup3\n      add\n        /* \"#utility.yul\":20799:20844   */\n      mstore\n        /* \"#utility.yul\":20861:20879   */\n      0x64\n      add\n        /* \"PoolFamilyAndFriends.sol\":11683:11736  require(!globalLiquidationEnabled, \"Already enabled\") */\n      tag_415\n        /* \"#utility.yul\":20546:20885   */\n      jump\n        /* \"PoolFamilyAndFriends.sol\":11683:11736  require(!globalLiquidationEnabled, \"Already enabled\") */\n    tag_858:\n        /* \"PoolFamilyAndFriends.sol\":11746:11770  globalLiquidationEnabled */\n      0x05\n        /* \"PoolFamilyAndFriends.sol\":11746:11777  globalLiquidationEnabled = true */\n      dup1\n      sload\n      not(0xff000000)\n      and\n      0x01000000\n      or\n      swap1\n      sstore\n        /* \"PoolFamilyAndFriends.sol\":11816:11831  block.timestamp */\n      timestamp\n        /* \"PoolFamilyAndFriends.sol\":11787:11813  globalLiquidationTimestamp */\n      0x06\n        /* \"PoolFamilyAndFriends.sol\":11787:11831  globalLiquidationTimestamp = block.timestamp */\n      sstore\n        /* \"PoolFamilyAndFriends.sol\":11746:11777  globalLiquidationEnabled = true */\n      0x00\n        /* \"PoolFamilyAndFriends.sol\":11841:12118  for(uint256 i=0; i<allUsers.length; i++){... */\n    tag_861:\n        /* \"PoolFamilyAndFriends.sol\":11860:11868  allUsers */\n      0x0f\n        /* \"PoolFamilyAndFriends.sol\":11860:11875  allUsers.length */\n      sload\n        /* \"PoolFamilyAndFriends.sol\":11858:11875  i<allUsers.length */\n      dup2\n      lt\n        /* \"PoolFamilyAndFriends.sol\":11841:12118  for(uint256 i=0; i<allUsers.length; i++){... */\n      iszero\n      tag_862\n      jumpi\n        /* \"PoolFamilyAndFriends.sol\":11895:11925  DepositInfo[] storage deposits */\n      0x00\n        /* \"PoolFamilyAndFriends.sol\":11928:11940  userDeposits */\n      0x08\n        /* \"PoolFamilyAndFriends.sol\":11928:11953  userDeposits[allUsers[i]] */\n      0x00\n        /* \"PoolFamilyAndFriends.sol\":11941:11949  allUsers */\n      0x0f\n        /* \"PoolFamilyAndFriends.sol\":11950:11951  i */\n      dup5\n        /* \"PoolFamilyAndFriends.sol\":11941:11952  allUsers[i] */\n      dup2\n      sload\n      dup2\n      lt\n      tag_865\n      jumpi\n      tag_865\n      tag_444\n      jump\t// in\n    tag_865:\n      0x00\n      swap2\n      dup3\n      mstore\n      0x20\n      dup1\n      dup4\n      keccak256\n      swap1\n      swap2\n      add\n      sload\n      sub(shl(0xa0, 0x01), 0x01)\n      and\n        /* \"PoolFamilyAndFriends.sol\":11928:11953  userDeposits[allUsers[i]] */\n      dup4\n      mstore\n      dup3\n      add\n      swap3\n      swap1\n      swap3\n      mstore\n      0x40\n      add\n      dup2\n      keccak256\n      swap2\n      pop\n        /* \"PoolFamilyAndFriends.sol\":11967:12108  for (uint256 j = 0; j < deposits.length; j++) {... */\n    tag_867:\n        /* \"PoolFamilyAndFriends.sol\":11991:12006  deposits.length */\n      dup2\n      sload\n        /* \"PoolFamilyAndFriends.sol\":11987:12006  j < deposits.length */\n      dup2\n      lt\n        /* \"PoolFamilyAndFriends.sol\":11967:12108  for (uint256 j = 0; j < deposits.length; j++) {... */\n      iszero\n      tag_868\n      jumpi\n        /* \"PoolFamilyAndFriends.sol\":12036:12044  deposits */\n      dup2\n        /* \"PoolFamilyAndFriends.sol\":12045:12046  j */\n      dup2\n        /* \"PoolFamilyAndFriends.sol\":12036:12047  deposits[j] */\n      dup2\n      sload\n      dup2\n      lt\n      tag_871\n      jumpi\n      tag_871\n      tag_444\n      jump\t// in\n    tag_871:\n      0x00\n      swap2\n      dup3\n      mstore\n      0x20\n      swap1\n      swap2\n      keccak256\n        /* \"PoolFamilyAndFriends.sol\":12036:12057  deposits[j].withdrawn */\n      0x03\n        /* \"PoolFamilyAndFriends.sol\":12036:12047  deposits[j] */\n      0x06\n      swap1\n      swap3\n      mul\n      add\n        /* \"PoolFamilyAndFriends.sol\":12036:12057  deposits[j].withdrawn */\n      add\n      sload\n      0xff\n      and\n        /* \"PoolFamilyAndFriends.sol\":12031:12093  if (!deposits[j].withdrawn) deposits[j].fullyRedeemable = true */\n      tag_873\n      jumpi\n        /* \"PoolFamilyAndFriends.sol\":12089:12093  true */\n      0x01\n        /* \"PoolFamilyAndFriends.sol\":12059:12067  deposits */\n      dup3\n        /* \"PoolFamilyAndFriends.sol\":12068:12069  j */\n      dup3\n        /* \"PoolFamilyAndFriends.sol\":12059:12070  deposits[j] */\n      dup2\n      sload\n      dup2\n      lt\n      tag_875\n      jumpi\n      tag_875\n      tag_444\n      jump\t// in\n    tag_875:\n      swap1\n      0x00\n      mstore\n      keccak256(0x00, 0x20)\n      swap1\n      0x06\n      mul\n      add\n        /* \"PoolFamilyAndFriends.sol\":12059:12086  deposits[j].fullyRedeemable */\n      0x03\n      add\n      0x02\n        /* \"PoolFamilyAndFriends.sol\":12059:12093  deposits[j].fullyRedeemable = true */\n      0x0100\n      exp\n      dup2\n      sload\n      dup2\n      0xff\n      mul\n      not\n      and\n      swap1\n      dup4\n      iszero\n      iszero\n      mul\n      or\n      swap1\n      sstore\n      pop\n        /* \"PoolFamilyAndFriends.sol\":12031:12093  if (!deposits[j].withdrawn) deposits[j].fullyRedeemable = true */\n    tag_873:\n        /* \"PoolFamilyAndFriends.sol\":12008:12011  j++ */\n      0x01\n      add\n        /* \"PoolFamilyAndFriends.sol\":11967:12108  for (uint256 j = 0; j < deposits.length; j++) {... */\n      jump(tag_867)\n    tag_868:\n      pop\n      pop\n        /* \"PoolFamilyAndFriends.sol\":11877:11880  i++ */\n      0x01\n      add\n        /* \"PoolFamilyAndFriends.sol\":11841:12118  for(uint256 i=0; i<allUsers.length; i++){... */\n      jump(tag_861)\n    tag_862:\n      pop\n        /* \"PoolFamilyAndFriends.sol\":12132:12173  GlobalLiquidationEnabled(block.timestamp) */\n      mload(0x40)\n        /* \"PoolFamilyAndFriends.sol\":12157:12172  block.timestamp */\n      timestamp\n        /* \"#utility.yul\":1131:1156   */\n      dup2\n      mstore\n        /* \"PoolFamilyAndFriends.sol\":12132:12173  GlobalLiquidationEnabled(block.timestamp) */\n      0x2388ceaed48d21bd0802856df41a22705f9046a67a817a047352aa3bbfe5c5d1\n      swap1\n        /* \"#utility.yul\":1119:1121   */\n      0x20\n        /* \"#utility.yul\":1104:1122   */\n      add\n        /* \"PoolFamilyAndFriends.sol\":12132:12173  GlobalLiquidationEnabled(block.timestamp) */\n      mload(0x40)\n      dup1\n      swap2\n      sub\n      swap1\n      log1\n        /* \"PoolFamilyAndFriends.sol\":11608:12180  function enableGlobalLiquidation() external onlyRole(ADMIN_ROLE) {... */\n      pop\n      jump\t// out\n        /* \"PoolFamilyAndFriends.sol\":2129:2159  address[] public allDepositors */\n    tag_354:\n      0x11\n      dup2\n      dup2\n      sload\n      dup2\n      lt\n      tag_779\n      jumpi\n      0x00\n      dup1\n      revert\n        /* \"PoolFamilyAndFriends.sol\":14542:14943  function claimUtilityETH() external nonReentrant {... */\n    tag_370:\n        /* \"@openzeppelin/contracts/utils/ReentrancyGuard.sol\":2500:2521   */\n      tag_881\n        /* \"@openzeppelin/contracts/utils/ReentrancyGuard.sol\":2500:2519   */\n      tag_412\n        /* \"@openzeppelin/contracts/utils/ReentrancyGuard.sol\":2500:2521   */\n      jump\t// in\n    tag_881:\n        /* \"PoolFamilyAndFriends.sol\":14642:14652  msg.sender */\n      caller\n        /* \"PoolFamilyAndFriends.sol\":14601:14615  uint256 amount */\n      0x00\n        /* \"PoolFamilyAndFriends.sol\":14618:14653  userClaimableUtilityETH[msg.sender] */\n      swap1\n      dup2\n      mstore\n        /* \"PoolFamilyAndFriends.sol\":14618:14641  userClaimableUtilityETH */\n      0x0b\n        /* \"PoolFamilyAndFriends.sol\":14618:14653  userClaimableUtilityETH[msg.sender] */\n      0x20\n      mstore\n      0x40\n      swap1\n      keccak256\n      sload\n        /* \"PoolFamilyAndFriends.sol\":14671:14681  amount > 0 */\n      dup1\n        /* \"PoolFamilyAndFriends.sol\":14663:14696  require(amount > 0, \"No utility\") */\n      tag_883\n      jumpi\n      mload(0x40)\n      shl(0xe5, 0x461bcd)\n      dup2\n      mstore\n        /* \"#utility.yul\":11663:11665   */\n      0x20\n        /* \"PoolFamilyAndFriends.sol\":14663:14696  require(amount > 0, \"No utility\") */\n      0x04\n      dup3\n      add\n        /* \"#utility.yul\":11645:11666   */\n      mstore\n        /* \"#utility.yul\":11702:11704   */\n      0x0a\n        /* \"#utility.yul\":11682:11700   */\n      0x24\n      dup3\n      add\n        /* \"#utility.yul\":11675:11705   */\n      mstore\n      shl(0xb0, 0x4e6f207574696c697479)\n        /* \"#utility.yul\":11721:11739   */\n      0x44\n      dup3\n      add\n        /* \"#utility.yul\":11714:11754   */\n      mstore\n        /* \"#utility.yul\":11771:11789   */\n      0x64\n      add\n        /* \"PoolFamilyAndFriends.sol\":14663:14696  require(amount > 0, \"No utility\") */\n      tag_415\n        /* \"#utility.yul\":11461:11795   */\n      jump\n        /* \"PoolFamilyAndFriends.sol\":14663:14696  require(amount > 0, \"No utility\") */\n    tag_883:\n        /* \"PoolFamilyAndFriends.sol\":14730:14740  msg.sender */\n      caller\n        /* \"PoolFamilyAndFriends.sol\":14744:14745  0 */\n      0x00\n        /* \"PoolFamilyAndFriends.sol\":14706:14741  userClaimableUtilityETH[msg.sender] */\n      dup2\n      dup2\n      mstore\n        /* \"PoolFamilyAndFriends.sol\":14706:14729  userClaimableUtilityETH */\n      0x0b\n        /* \"PoolFamilyAndFriends.sol\":14706:14741  userClaimableUtilityETH[msg.sender] */\n      0x20\n      mstore\n      0x40\n      dup1\n      dup3\n      keccak256\n        /* \"PoolFamilyAndFriends.sol\":14706:14745  userClaimableUtilityETH[msg.sender] = 0 */\n      dup3\n      swap1\n      sstore\n        /* \"PoolFamilyAndFriends.sol\":14774:14808  msg.sender.call{value: amount}(\"\") */\n      mload\n        /* \"PoolFamilyAndFriends.sol\":14744:14745  0 */\n      swap1\n      swap2\n        /* \"PoolFamilyAndFriends.sol\":14730:14740  msg.sender */\n      swap1\n        /* \"PoolFamilyAndFriends.sol\":14797:14803  amount */\n      dup4\n      swap1\n        /* \"PoolFamilyAndFriends.sol\":14744:14745  0 */\n      dup4\n        /* \"PoolFamilyAndFriends.sol\":14774:14808  msg.sender.call{value: amount}(\"\") */\n      dup2\n        /* \"PoolFamilyAndFriends.sol\":14744:14745  0 */\n      dup2\n        /* \"PoolFamilyAndFriends.sol\":14774:14808  msg.sender.call{value: amount}(\"\") */\n      dup2\n        /* \"PoolFamilyAndFriends.sol\":14797:14803  amount */\n      dup6\n        /* \"PoolFamilyAndFriends.sol\":14730:14740  msg.sender */\n      dup8\n        /* \"PoolFamilyAndFriends.sol\":14774:14808  msg.sender.call{value: amount}(\"\") */\n      gas\n      call\n      swap3\n      pop\n      pop\n      pop\n      returndatasize\n      dup1\n      0x00\n      dup2\n      eq\n      tag_888\n      jumpi\n      mload(0x40)\n      swap2\n      pop\n      and(add(returndatasize, 0x3f), not(0x1f))\n      dup3\n      add\n      0x40\n      mstore\n      returndatasize\n      dup3\n      mstore\n      returndatasize\n      0x00\n      0x20\n      dup5\n      add\n      returndatacopy\n      jump(tag_887)\n    tag_888:\n      0x60\n      swap2\n      pop\n    tag_887:\n      pop\n        /* \"PoolFamilyAndFriends.sol\":14755:14808  (bool success, ) = msg.sender.call{value: amount}(\"\") */\n      pop\n      swap1\n      pop\n        /* \"PoolFamilyAndFriends.sol\":14826:14833  success */\n      dup1\n        /* \"PoolFamilyAndFriends.sol\":14818:14857  require(success, \"ETH transfer failed\") */\n      tag_889\n      jumpi\n      mload(0x40)\n      shl(0xe5, 0x461bcd)\n      dup2\n      mstore\n        /* \"#utility.yul\":13997:13999   */\n      0x20\n        /* \"PoolFamilyAndFriends.sol\":14818:14857  require(success, \"ETH transfer failed\") */\n      0x04\n      dup3\n      add\n        /* \"#utility.yul\":13979:14000   */\n      mstore\n        /* \"#utility.yul\":14036:14038   */\n      0x13\n        /* \"#utility.yul\":14016:14034   */\n      0x24\n      dup3\n      add\n        /* \"#utility.yul\":14009:14039   */\n      mstore\n      shl(0x6a, 0x115512081d1c985b9cd9995c8819985a5b1959)\n        /* \"#utility.yul\":14055:14073   */\n      0x44\n      dup3\n      add\n        /* \"#utility.yul\":14048:14097   */\n      mstore\n        /* \"#utility.yul\":14114:14132   */\n      0x64\n      add\n        /* \"PoolFamilyAndFriends.sol\":14818:14857  require(success, \"ETH transfer failed\") */\n      tag_415\n        /* \"#utility.yul\":13795:14138   */\n      jump\n        /* \"PoolFamilyAndFriends.sol\":14818:14857  require(success, \"ETH transfer failed\") */\n    tag_889:\n        /* \"PoolFamilyAndFriends.sol\":14885:14895  msg.sender */\n      caller\n      sub(shl(0xa0, 0x01), 0x01)\n        /* \"PoolFamilyAndFriends.sol\":14872:14936  ClaimUtility(msg.sender, TokenType.ETH, amount, block.timestamp) */\n      and\n      0x6914793c7a82461acec66c7de7fdbbbf1f825c26bc2fe939b61f0e4f8964c2b5\n        /* \"PoolFamilyAndFriends.sol\":14897:14910  TokenType.ETH */\n      0x00\n        /* \"PoolFamilyAndFriends.sol\":14912:14918  amount */\n      dup5\n        /* \"PoolFamilyAndFriends.sol\":14920:14935  block.timestamp */\n      timestamp\n        /* \"PoolFamilyAndFriends.sol\":14872:14936  ClaimUtility(msg.sender, TokenType.ETH, amount, block.timestamp) */\n      mload(0x40)\n      tag_891\n      swap4\n      swap3\n      swap2\n      swap1\n      tag_423\n      jump\t// in\n    tag_891:\n      mload(0x40)\n      dup1\n      swap2\n      sub\n      swap1\n      log2\n        /* \"PoolFamilyAndFriends.sol\":14591:14943  {... */\n      pop\n      pop\n        /* \"@openzeppelin/contracts/utils/ReentrancyGuard.sol\":2542:2562   */\n      tag_424\n        /* \"@openzeppelin/contracts/utils/ReentrancyGuard.sol\":1857:1858   */\n      0x01\n        /* \"@openzeppelin/contracts/utils/ReentrancyGuard.sol\":3068:3089   */\n      dup1\n      sstore\n        /* \"@openzeppelin/contracts/utils/ReentrancyGuard.sol\":2888:3096   */\n      jump\n        /* \"PoolFamilyAndFriends.sol\":4740:4991  function setMaxCap(TokenType token, uint256 newCap) external onlyRole(ADMIN_ROLE) {... */\n    tag_392:\n      0x00\n      dup1\n      mload\n      0x20\n      data_cb864c43dd5d441bb6271f424f11befa622c032dfd374d226e26fbbdb782b8f8\n      dup4\n      codecopy\n      dup2\n      mload\n      swap2\n      mstore\n        /* \"@openzeppelin/contracts/access/AccessControl.sol\":2473:2489   */\n      tag_894\n        /* \"@openzeppelin/contracts/access/AccessControl.sol\":2484:2488   */\n      dup2\n        /* \"@openzeppelin/contracts/access/AccessControl.sol\":2473:2483   */\n      tag_405\n        /* \"@openzeppelin/contracts/access/AccessControl.sol\":2473:2489   */\n      jump\t// in\n    tag_894:\n        /* \"PoolFamilyAndFriends.sol\":4845:4858  TokenType.ETH */\n      0x00\n        /* \"PoolFamilyAndFriends.sol\":4836:4841  token */\n      dup4\n        /* \"PoolFamilyAndFriends.sol\":4836:4858  token == TokenType.ETH */\n      0x01\n      dup2\n      gt\n      iszero\n      tag_899\n      jumpi\n      tag_899\n      tag_432\n      jump\t// in\n    tag_899:\n      sub\n        /* \"PoolFamilyAndFriends.sol\":4832:4941  if (token == TokenType.ETH) maxCapETH = newCap;... */\n      tag_900\n      jumpi\n        /* \"PoolFamilyAndFriends.sol\":4860:4869  maxCapETH */\n      0x03\n        /* \"PoolFamilyAndFriends.sol\":4860:4878  maxCapETH = newCap */\n      dup3\n      swap1\n      sstore\n        /* \"PoolFamilyAndFriends.sol\":4832:4941  if (token == TokenType.ETH) maxCapETH = newCap;... */\n      jump(tag_906)\n    tag_900:\n        /* \"PoolFamilyAndFriends.sol\":4906:4920  TokenType.USDC */\n      0x01\n        /* \"PoolFamilyAndFriends.sol\":4897:4902  token */\n      dup4\n        /* \"PoolFamilyAndFriends.sol\":4897:4920  token == TokenType.USDC */\n      0x01\n      dup2\n      gt\n      iszero\n      tag_905\n      jumpi\n      tag_905\n      tag_432\n      jump\t// in\n    tag_905:\n      sub\n        /* \"PoolFamilyAndFriends.sol\":4893:4941  if (token == TokenType.USDC) maxCapUSDC = newCap */\n      tag_906\n      jumpi\n        /* \"PoolFamilyAndFriends.sol\":4922:4932  maxCapUSDC */\n      0x04\n        /* \"PoolFamilyAndFriends.sol\":4922:4941  maxCapUSDC = newCap */\n      dup3\n      swap1\n      sstore\n        /* \"PoolFamilyAndFriends.sol\":4893:4941  if (token == TokenType.USDC) maxCapUSDC = newCap */\n    tag_906:\n        /* \"PoolFamilyAndFriends.sol\":4956:4984  MaxCapChanged(token, newCap) */\n      0x5d7976bccd4b396c1a1a0020032e62bf8a381bcffc61e69a13ea61761b757218\n        /* \"PoolFamilyAndFriends.sol\":4970:4975  token */\n      dup4\n        /* \"PoolFamilyAndFriends.sol\":4977:4983  newCap */\n      dup4\n        /* \"PoolFamilyAndFriends.sol\":4956:4984  MaxCapChanged(token, newCap) */\n      mload(0x40)\n      tag_627\n      swap3\n      swap2\n      swap1\n      tag_908\n      jump\t// in\n        /* \"PoolFamilyAndFriends.sol\":6162:6562  function depositETH() external payable nonReentrant whenDepositsNotPaused {... */\n    tag_394:\n        /* \"@openzeppelin/contracts/utils/ReentrancyGuard.sol\":2500:2521   */\n      tag_910\n        /* \"@openzeppelin/contracts/utils/ReentrancyGuard.sol\":2500:2519   */\n      tag_412\n        /* \"@openzeppelin/contracts/utils/ReentrancyGuard.sol\":2500:2521   */\n      jump\t// in\n    tag_910:\n        /* \"PoolFamilyAndFriends.sol\":3818:3832  pausedDeposits */\n      and(0xff, sload(0x05))\n        /* \"PoolFamilyAndFriends.sol\":3817:3832  !pausedDeposits */\n      iszero\n        /* \"PoolFamilyAndFriends.sol\":3809:3852  require(!pausedDeposits, \"Deposits paused\") */\n      tag_912\n      jumpi\n      mload(0x40)\n      shl(0xe5, 0x461bcd)\n      dup2\n      mstore\n        /* \"#utility.yul\":21376:21378   */\n      0x20\n        /* \"PoolFamilyAndFriends.sol\":3809:3852  require(!pausedDeposits, \"Deposits paused\") */\n      0x04\n      dup3\n      add\n        /* \"#utility.yul\":21358:21379   */\n      mstore\n        /* \"#utility.yul\":21415:21417   */\n      0x0f\n        /* \"#utility.yul\":21395:21413   */\n      0x24\n      dup3\n      add\n        /* \"#utility.yul\":21388:21418   */\n      mstore\n      shl(0x8a, 0x11195c1bdcda5d1cc81c185d5cd959)\n        /* \"#utility.yul\":21434:21452   */\n      0x44\n      dup3\n      add\n        /* \"#utility.yul\":21427:21472   */\n      mstore\n        /* \"#utility.yul\":21489:21507   */\n      0x64\n      add\n        /* \"PoolFamilyAndFriends.sol\":3809:3852  require(!pausedDeposits, \"Deposits paused\") */\n      tag_415\n        /* \"#utility.yul\":21174:21513   */\n      jump\n        /* \"PoolFamilyAndFriends.sol\":3809:3852  require(!pausedDeposits, \"Deposits paused\") */\n    tag_912:\n        /* \"PoolFamilyAndFriends.sol\":6266:6267  0 */\n      0x00\n        /* \"PoolFamilyAndFriends.sol\":6254:6263  msg.value */\n      callvalue\n        /* \"PoolFamilyAndFriends.sol\":6254:6267  msg.value > 0 */\n      gt\n        /* \"PoolFamilyAndFriends.sol\":6246:6283  require(msg.value > 0, \"No ETH sent\") */\n      tag_916\n      jumpi\n      mload(0x40)\n      shl(0xe5, 0x461bcd)\n      dup2\n      mstore\n        /* \"#utility.yul\":16538:16540   */\n      0x20\n        /* \"PoolFamilyAndFriends.sol\":6246:6283  require(msg.value > 0, \"No ETH sent\") */\n      0x04\n      dup3\n      add\n        /* \"#utility.yul\":16520:16541   */\n      mstore\n        /* \"#utility.yul\":16577:16579   */\n      0x0b\n        /* \"#utility.yul\":16557:16575   */\n      0x24\n      dup3\n      add\n        /* \"#utility.yul\":16550:16580   */\n      mstore\n      shl(0xaa, 0x139bc8115512081cd95b9d)\n        /* \"#utility.yul\":16596:16614   */\n      0x44\n      dup3\n      add\n        /* \"#utility.yul\":16589:16630   */\n      mstore\n        /* \"#utility.yul\":16647:16665   */\n      0x64\n      add\n        /* \"PoolFamilyAndFriends.sol\":6246:6283  require(msg.value > 0, \"No ETH sent\") */\n      tag_415\n        /* \"#utility.yul\":16336:16671   */\n      jump\n        /* \"PoolFamilyAndFriends.sol\":6246:6283  require(msg.value > 0, \"No ETH sent\") */\n    tag_916:\n        /* \"PoolFamilyAndFriends.sol\":6334:6343  maxCapETH */\n      sload(0x03)\n        /* \"PoolFamilyAndFriends.sol\":6321:6330  msg.value */\n      callvalue\n        /* \"PoolFamilyAndFriends.sol\":6301:6318  totalDepositedETH */\n      sload(0x12)\n        /* \"PoolFamilyAndFriends.sol\":6301:6330  totalDepositedETH + msg.value */\n      tag_918\n      swap2\n      swap1\n      tag_420\n      jump\t// in\n    tag_918:\n        /* \"PoolFamilyAndFriends.sol\":6301:6343  totalDepositedETH + msg.value <= maxCapETH */\n      gt\n      iszero\n        /* \"PoolFamilyAndFriends.sol\":6293:6359  require(totalDepositedETH + msg.value <= maxCapETH, \"Cap reached\") */\n      tag_919\n      jumpi\n      mload(0x40)\n      shl(0xe5, 0x461bcd)\n      dup2\n      mstore\n        /* \"#utility.yul\":21720:21722   */\n      0x20\n        /* \"PoolFamilyAndFriends.sol\":6293:6359  require(totalDepositedETH + msg.value <= maxCapETH, \"Cap reached\") */\n      0x04\n      dup3\n      add\n        /* \"#utility.yul\":21702:21723   */\n      mstore\n        /* \"#utility.yul\":21759:21761   */\n      0x0b\n        /* \"#utility.yul\":21739:21757   */\n      0x24\n      dup3\n      add\n        /* \"#utility.yul\":21732:21762   */\n      mstore\n      shl(0xaa, 0x10d85c081c995858da1959)\n        /* \"#utility.yul\":21778:21796   */\n      0x44\n      dup3\n      add\n        /* \"#utility.yul\":21771:21812   */\n      mstore\n        /* \"#utility.yul\":21829:21847   */\n      0x64\n      add\n        /* \"PoolFamilyAndFriends.sol\":6293:6359  require(totalDepositedETH + msg.value <= maxCapETH, \"Cap reached\") */\n      tag_415\n        /* \"#utility.yul\":21518:21853   */\n      jump\n        /* \"PoolFamilyAndFriends.sol\":6293:6359  require(totalDepositedETH + msg.value <= maxCapETH, \"Cap reached\") */\n    tag_919:\n        /* \"PoolFamilyAndFriends.sol\":6373:6389  whitelistEnabled */\n      sload(0x05)\n      0x010000\n      swap1\n      div\n      0xff\n      and\n        /* \"PoolFamilyAndFriends.sol\":6369:6444  if (whitelistEnabled) require(isWhitelisted[msg.sender], \"Not whitelisted\") */\n      iszero\n      tag_923\n      jumpi\n        /* \"PoolFamilyAndFriends.sol\":6413:6423  msg.sender */\n      caller\n        /* \"PoolFamilyAndFriends.sol\":6399:6424  isWhitelisted[msg.sender] */\n      0x00\n      swap1\n      dup2\n      mstore\n        /* \"PoolFamilyAndFriends.sol\":6399:6412  isWhitelisted */\n      0x09\n        /* \"PoolFamilyAndFriends.sol\":6399:6424  isWhitelisted[msg.sender] */\n      0x20\n      mstore\n      0x40\n      swap1\n      keccak256\n      sload\n      0xff\n      and\n        /* \"PoolFamilyAndFriends.sol\":6391:6444  require(isWhitelisted[msg.sender], \"Not whitelisted\") */\n      tag_923\n      jumpi\n      mload(0x40)\n      shl(0xe5, 0x461bcd)\n      dup2\n      mstore\n        /* \"#utility.yul\":22060:22062   */\n      0x20\n        /* \"PoolFamilyAndFriends.sol\":6391:6444  require(isWhitelisted[msg.sender], \"Not whitelisted\") */\n      0x04\n      dup3\n      add\n        /* \"#utility.yul\":22042:22063   */\n      mstore\n        /* \"#utility.yul\":22099:22101   */\n      0x0f\n        /* \"#utility.yul\":22079:22097   */\n      0x24\n      dup3\n      add\n        /* \"#utility.yul\":22072:22102   */\n      mstore\n      shl(0x8a, 0x139bdd081dda1a5d195b1a5cdd1959)\n        /* \"#utility.yul\":22118:22136   */\n      0x44\n      dup3\n      add\n        /* \"#utility.yul\":22111:22156   */\n      mstore\n        /* \"#utility.yul\":22173:22191   */\n      0x64\n      add\n        /* \"PoolFamilyAndFriends.sol\":6391:6444  require(isWhitelisted[msg.sender], \"Not whitelisted\") */\n      tag_415\n        /* \"#utility.yul\":21858:22197   */\n      jump\n        /* \"PoolFamilyAndFriends.sol\":6391:6444  require(isWhitelisted[msg.sender], \"Not whitelisted\") */\n    tag_923:\n        /* \"PoolFamilyAndFriends.sol\":6454:6515  _registerDeposit(msg.sender, TokenType.ETH, msg.value, false) */\n      tag_926\n        /* \"PoolFamilyAndFriends.sol\":6471:6481  msg.sender */\n      caller\n        /* \"PoolFamilyAndFriends.sol\":6483:6496  TokenType.ETH */\n      0x00\n        /* \"PoolFamilyAndFriends.sol\":6498:6507  msg.value */\n      callvalue\n        /* \"PoolFamilyAndFriends.sol\":6509:6514  false */\n      0x00\n        /* \"PoolFamilyAndFriends.sol\":6454:6470  _registerDeposit */\n      tag_418\n        /* \"PoolFamilyAndFriends.sol\":6454:6515  _registerDeposit(msg.sender, TokenType.ETH, msg.value, false) */\n      jump\t// in\n    tag_926:\n        /* \"PoolFamilyAndFriends.sol\":6546:6555  msg.value */\n      callvalue\n        /* \"PoolFamilyAndFriends.sol\":6525:6542  totalDepositedETH */\n      0x12\n      0x00\n        /* \"PoolFamilyAndFriends.sol\":6525:6555  totalDepositedETH += msg.value */\n      dup3\n      dup3\n      sload\n      tag_927\n      swap2\n      swap1\n      tag_420\n      jump\t// in\n    tag_927:\n      swap1\n      swap2\n      sstore\n      pop\n      pop\n        /* \"@openzeppelin/contracts/utils/ReentrancyGuard.sol\":1857:1858   */\n      0x01\n        /* \"@openzeppelin/contracts/utils/ReentrancyGuard.sol\":3068:3089   */\n      dup1\n      sstore\n        /* \"PoolFamilyAndFriends.sol\":15339:15786  function reinvestUtilityETH() external nonReentrant {... */\n      jump\t// out\n        /* \"PoolFamilyAndFriends.sol\":6568:7038  function depositUSDC(uint256 amount) external nonReentrant whenDepositsNotPaused {... */\n    tag_398:\n        /* \"@openzeppelin/contracts/utils/ReentrancyGuard.sol\":2500:2521   */\n      tag_930\n        /* \"@openzeppelin/contracts/utils/ReentrancyGuard.sol\":2500:2519   */\n      tag_412\n        /* \"@openzeppelin/contracts/utils/ReentrancyGuard.sol\":2500:2521   */\n      jump\t// in\n    tag_930:\n        /* \"PoolFamilyAndFriends.sol\":3818:3832  pausedDeposits */\n      and(0xff, sload(0x05))\n        /* \"PoolFamilyAndFriends.sol\":3817:3832  !pausedDeposits */\n      iszero\n        /* \"PoolFamilyAndFriends.sol\":3809:3852  require(!pausedDeposits, \"Deposits paused\") */\n      tag_932\n      jumpi\n      mload(0x40)\n      shl(0xe5, 0x461bcd)\n      dup2\n      mstore\n        /* \"#utility.yul\":21376:21378   */\n      0x20\n        /* \"PoolFamilyAndFriends.sol\":3809:3852  require(!pausedDeposits, \"Deposits paused\") */\n      0x04\n      dup3\n      add\n        /* \"#utility.yul\":21358:21379   */\n      mstore\n        /* \"#utility.yul\":21415:21417   */\n      0x0f\n        /* \"#utility.yul\":21395:21413   */\n      0x24\n      dup3\n      add\n        /* \"#utility.yul\":21388:21418   */\n      mstore\n      shl(0x8a, 0x11195c1bdcda5d1cc81c185d5cd959)\n        /* \"#utility.yul\":21434:21452   */\n      0x44\n      dup3\n      add\n        /* \"#utility.yul\":21427:21472   */\n      mstore\n        /* \"#utility.yul\":21489:21507   */\n      0x64\n      add\n        /* \"PoolFamilyAndFriends.sol\":3809:3852  require(!pausedDeposits, \"Deposits paused\") */\n      tag_415\n        /* \"#utility.yul\":21174:21513   */\n      jump\n        /* \"PoolFamilyAndFriends.sol\":3809:3852  require(!pausedDeposits, \"Deposits paused\") */\n    tag_932:\n        /* \"PoolFamilyAndFriends.sol\":6676:6677  0 */\n      0x00\n        /* \"PoolFamilyAndFriends.sol\":6667:6673  amount */\n      dup2\n        /* \"PoolFamilyAndFriends.sol\":6667:6677  amount > 0 */\n      gt\n        /* \"PoolFamilyAndFriends.sol\":6659:6694  require(amount > 0, \"No USDC sent\") */\n      tag_935\n      jumpi\n      mload(0x40)\n      shl(0xe5, 0x461bcd)\n      dup2\n      mstore\n        /* \"#utility.yul\":20004:20006   */\n      0x20\n        /* \"PoolFamilyAndFriends.sol\":6659:6694  require(amount > 0, \"No USDC sent\") */\n      0x04\n      dup3\n      add\n        /* \"#utility.yul\":19986:20007   */\n      mstore\n        /* \"#utility.yul\":20043:20045   */\n      0x0c\n        /* \"#utility.yul\":20023:20041   */\n      0x24\n      dup3\n      add\n        /* \"#utility.yul\":20016:20046   */\n      mstore\n      shl(0xa2, 0x139bc81554d110c81cd95b9d)\n        /* \"#utility.yul\":20062:20080   */\n      0x44\n      dup3\n      add\n        /* \"#utility.yul\":20055:20097   */\n      mstore\n        /* \"#utility.yul\":20114:20132   */\n      0x64\n      add\n        /* \"PoolFamilyAndFriends.sol\":6659:6694  require(amount > 0, \"No USDC sent\") */\n      tag_415\n        /* \"#utility.yul\":19802:20138   */\n      jump\n        /* \"PoolFamilyAndFriends.sol\":6659:6694  require(amount > 0, \"No USDC sent\") */\n    tag_935:\n        /* \"PoolFamilyAndFriends.sol\":6743:6753  maxCapUSDC */\n      sload(0x04)\n        /* \"PoolFamilyAndFriends.sol\":6733:6739  amount */\n      dup2\n        /* \"PoolFamilyAndFriends.sol\":6712:6730  totalDepositedUSDC */\n      sload(0x13)\n        /* \"PoolFamilyAndFriends.sol\":6712:6739  totalDepositedUSDC + amount */\n      tag_937\n      swap2\n      swap1\n      tag_420\n      jump\t// in\n    tag_937:\n        /* \"PoolFamilyAndFriends.sol\":6712:6753  totalDepositedUSDC + amount <= maxCapUSDC */\n      gt\n      iszero\n        /* \"PoolFamilyAndFriends.sol\":6704:6769  require(totalDepositedUSDC + amount <= maxCapUSDC, \"Cap reached\") */\n      tag_938\n      jumpi\n      mload(0x40)\n      shl(0xe5, 0x461bcd)\n      dup2\n      mstore\n        /* \"#utility.yul\":21720:21722   */\n      0x20\n        /* \"PoolFamilyAndFriends.sol\":6704:6769  require(totalDepositedUSDC + amount <= maxCapUSDC, \"Cap reached\") */\n      0x04\n      dup3\n      add\n        /* \"#utility.yul\":21702:21723   */\n      mstore\n        /* \"#utility.yul\":21759:21761   */\n      0x0b\n        /* \"#utility.yul\":21739:21757   */\n      0x24\n      dup3\n      add\n        /* \"#utility.yul\":21732:21762   */\n      mstore\n      shl(0xaa, 0x10d85c081c995858da1959)\n        /* \"#utility.yul\":21778:21796   */\n      0x44\n      dup3\n      add\n        /* \"#utility.yul\":21771:21812   */\n      mstore\n        /* \"#utility.yul\":21829:21847   */\n      0x64\n      add\n        /* \"PoolFamilyAndFriends.sol\":6704:6769  require(totalDepositedUSDC + amount <= maxCapUSDC, \"Cap reached\") */\n      tag_415\n        /* \"#utility.yul\":21518:21853   */\n      jump\n        /* \"PoolFamilyAndFriends.sol\":6704:6769  require(totalDepositedUSDC + amount <= maxCapUSDC, \"Cap reached\") */\n    tag_938:\n        /* \"PoolFamilyAndFriends.sol\":6783:6799  whitelistEnabled */\n      sload(0x05)\n      0x010000\n      swap1\n      div\n      0xff\n      and\n        /* \"PoolFamilyAndFriends.sol\":6779:6854  if (whitelistEnabled) require(isWhitelisted[msg.sender], \"Not whitelisted\") */\n      iszero\n      tag_941\n      jumpi\n        /* \"PoolFamilyAndFriends.sol\":6823:6833  msg.sender */\n      caller\n        /* \"PoolFamilyAndFriends.sol\":6809:6834  isWhitelisted[msg.sender] */\n      0x00\n      swap1\n      dup2\n      mstore\n        /* \"PoolFamilyAndFriends.sol\":6809:6822  isWhitelisted */\n      0x09\n        /* \"PoolFamilyAndFriends.sol\":6809:6834  isWhitelisted[msg.sender] */\n      0x20\n      mstore\n      0x40\n      swap1\n      keccak256\n      sload\n      0xff\n      and\n        /* \"PoolFamilyAndFriends.sol\":6801:6854  require(isWhitelisted[msg.sender], \"Not whitelisted\") */\n      tag_941\n      jumpi\n      mload(0x40)\n      shl(0xe5, 0x461bcd)\n      dup2\n      mstore\n        /* \"#utility.yul\":22060:22062   */\n      0x20\n        /* \"PoolFamilyAndFriends.sol\":6801:6854  require(isWhitelisted[msg.sender], \"Not whitelisted\") */\n      0x04\n      dup3\n      add\n        /* \"#utility.yul\":22042:22063   */\n      mstore\n        /* \"#utility.yul\":22099:22101   */\n      0x0f\n        /* \"#utility.yul\":22079:22097   */\n      0x24\n      dup3\n      add\n        /* \"#utility.yul\":22072:22102   */\n      mstore\n      shl(0x8a, 0x139bdd081dda1a5d195b1a5cdd1959)\n        /* \"#utility.yul\":22118:22136   */\n      0x44\n      dup3\n      add\n        /* \"#utility.yul\":22111:22156   */\n      mstore\n        /* \"#utility.yul\":22173:22191   */\n      0x64\n      add\n        /* \"PoolFamilyAndFriends.sol\":6801:6854  require(isWhitelisted[msg.sender], \"Not whitelisted\") */\n      tag_415\n        /* \"#utility.yul\":21858:22197   */\n      jump\n        /* \"PoolFamilyAndFriends.sol\":6801:6854  require(isWhitelisted[msg.sender], \"Not whitelisted\") */\n    tag_941:\n        /* \"PoolFamilyAndFriends.sol\":6864:6924  IERC20(USDC).transferFrom(msg.sender, address(this), amount) */\n      mload(0x40)\n      shl(0xe0, 0x23b872dd)\n      dup2\n      mstore\n        /* \"PoolFamilyAndFriends.sol\":6890:6900  msg.sender */\n      caller\n        /* \"PoolFamilyAndFriends.sol\":6864:6924  IERC20(USDC).transferFrom(msg.sender, address(this), amount) */\n      0x04\n      dup3\n      add\n        /* \"#utility.yul\":20406:20440   */\n      mstore\n        /* \"PoolFamilyAndFriends.sol\":6910:6914  this */\n      address\n        /* \"#utility.yul\":20456:20474   */\n      0x24\n      dup3\n      add\n        /* \"#utility.yul\":20449:20492   */\n      mstore\n        /* \"#utility.yul\":20508:20526   */\n      0x44\n      dup2\n      add\n        /* \"#utility.yul\":20501:20535   */\n      dup3\n      swap1\n      mstore\n        /* \"PoolFamilyAndFriends.sol\":526:568  0x833589fCD6eDb6E08f4c7C32D4f71b54bdA02913 */\n      0x833589fcd6edb6e08f4c7c32d4f71b54bda02913\n      swap1\n        /* \"PoolFamilyAndFriends.sol\":6864:6889  IERC20(USDC).transferFrom */\n      0x23b872dd\n      swap1\n        /* \"#utility.yul\":20318:20336   */\n      0x64\n      add\n        /* \"PoolFamilyAndFriends.sol\":6864:6924  IERC20(USDC).transferFrom(msg.sender, address(this), amount) */\n      0x20\n      mload(0x40)\n      dup1\n      dup4\n      sub\n      dup2\n      0x00\n      dup8\n      gas\n      call\n      iszero\n      dup1\n      iszero\n      tag_945\n      jumpi\n      returndatasize\n      0x00\n      dup1\n      returndatacopy\n      revert(0x00, returndatasize)\n    tag_945:\n      pop\n      pop\n      pop\n      pop\n      mload(0x40)\n      returndatasize\n      not(0x1f)\n      0x1f\n      dup3\n      add\n      and\n      dup3\n      add\n      dup1\n      0x40\n      mstore\n      pop\n      dup2\n      add\n      swap1\n      tag_946\n      swap2\n      swap1\n      tag_484\n      jump\t// in\n    tag_946:\n      pop\n        /* \"PoolFamilyAndFriends.sol\":6934:6993  _registerDeposit(msg.sender, TokenType.USDC, amount, false) */\n      tag_947\n        /* \"PoolFamilyAndFriends.sol\":6951:6961  msg.sender */\n      caller\n        /* \"PoolFamilyAndFriends.sol\":6963:6977  TokenType.USDC */\n      0x01\n        /* \"PoolFamilyAndFriends.sol\":6979:6985  amount */\n      dup4\n        /* \"PoolFamilyAndFriends.sol\":6987:6992  false */\n      0x00\n        /* \"PoolFamilyAndFriends.sol\":6934:6950  _registerDeposit */\n      tag_418\n        /* \"PoolFamilyAndFriends.sol\":6934:6993  _registerDeposit(msg.sender, TokenType.USDC, amount, false) */\n      jump\t// in\n    tag_947:\n        /* \"PoolFamilyAndFriends.sol\":7025:7031  amount */\n      dup1\n        /* \"PoolFamilyAndFriends.sol\":7003:7021  totalDepositedUSDC */\n      0x13\n      0x00\n        /* \"PoolFamilyAndFriends.sol\":7003:7031  totalDepositedUSDC += amount */\n      dup3\n      dup3\n      sload\n      tag_948\n      swap2\n      swap1\n      tag_420\n      jump\t// in\n    tag_948:\n      swap1\n      swap2\n      sstore\n      pop\n      pop\n        /* \"@openzeppelin/contracts/utils/ReentrancyGuard.sol\":1857:1858   */\n      0x01\n        /* \"@openzeppelin/contracts/utils/ReentrancyGuard.sol\":3068:3089   */\n      dup1\n      sstore\n        /* \"PoolFamilyAndFriends.sol\":7769:8954  function withdraw(uint256 depositIndex) external nonReentrant whenWithdrawalsNotPaused {... */\n      pop\n      jump\t// out\n        /* \"@openzeppelin/contracts/access/AccessControl.sol\":3175:3278   */\n    tag_405:\n        /* \"@openzeppelin/contracts/access/AccessControl.sol\":3241:3271   */\n      tag_489\n        /* \"@openzeppelin/contracts/access/AccessControl.sol\":3252:3256   */\n      dup2\n        /* \"@openzeppelin/contracts/utils/Context.sol\":735:745   */\n      caller\n        /* \"@openzeppelin/contracts/access/AccessControl.sol\":3241:3251   */\n      tag_954\n        /* \"@openzeppelin/contracts/access/AccessControl.sol\":3241:3271   */\n      jump\t// in\n        /* \"@openzeppelin/contracts/utils/ReentrancyGuard.sol\":2575:2882   */\n    tag_412:\n        /* \"@openzeppelin/contracts/utils/ReentrancyGuard.sol\":1899:1900   */\n      0x02\n        /* \"@openzeppelin/contracts/utils/ReentrancyGuard.sol\":2702:2709   */\n      sload(0x01)\n        /* \"@openzeppelin/contracts/utils/ReentrancyGuard.sol\":2702:2720   */\n      sub\n        /* \"@openzeppelin/contracts/utils/ReentrancyGuard.sol\":2698:2784   */\n      tag_956\n      jumpi\n        /* \"@openzeppelin/contracts/utils/ReentrancyGuard.sol\":2743:2773   */\n      mload(0x40)\n      shl(0xe0, 0x3ee5aeb5)\n      dup2\n      mstore\n      0x04\n      add\n      mload(0x40)\n      dup1\n      swap2\n      sub\n      swap1\n      revert\n        /* \"@openzeppelin/contracts/utils/ReentrancyGuard.sol\":2698:2784   */\n    tag_956:\n        /* \"@openzeppelin/contracts/utils/ReentrancyGuard.sol\":1899:1900   */\n      0x02\n        /* \"@openzeppelin/contracts/utils/ReentrancyGuard.sol\":2858:2865   */\n      0x01\n        /* \"@openzeppelin/contracts/utils/ReentrancyGuard.sol\":2858:2875   */\n      sstore\n        /* \"@openzeppelin/contracts/utils/ReentrancyGuard.sol\":2575:2882   */\n      jump\t// out\n        /* \"PoolFamilyAndFriends.sol\":7045:7739  function _registerDeposit(address user, TokenType token, uint256 amount, bool reinvestment) internal {... */\n    tag_418:\n      sub(shl(0xa0, 0x01), 0x01)\n        /* \"PoolFamilyAndFriends.sol\":7156:7174  userDeposits[user] */\n      dup5\n      and\n      0x00\n      swap1\n      dup2\n      mstore\n        /* \"PoolFamilyAndFriends.sol\":7156:7168  userDeposits */\n      0x08\n        /* \"PoolFamilyAndFriends.sol\":7156:7174  userDeposits[user] */\n      0x20\n      mstore\n      0x40\n      swap1\n      dup2\n      swap1\n      keccak256\n        /* \"PoolFamilyAndFriends.sol\":7180:7499  DepositInfo({... */\n      dup2\n      mload\n      0x0120\n      dup2\n      add\n      swap1\n      swap3\n      mstore\n        /* \"PoolFamilyAndFriends.sol\":7156:7174  userDeposits[user] */\n      swap1\n        /* \"PoolFamilyAndFriends.sol\":7180:7499  DepositInfo({... */\n      dup1\n        /* \"PoolFamilyAndFriends.sol\":7213:7218  token */\n      dup6\n        /* \"PoolFamilyAndFriends.sol\":7180:7499  DepositInfo({... */\n      0x01\n      dup2\n      gt\n      iszero\n      tag_959\n      jumpi\n      tag_959\n      tag_432\n      jump\t// in\n    tag_959:\n      dup2\n      mstore\n      0x20\n      dup1\n      dup3\n      add\n      dup7\n      swap1\n      mstore\n        /* \"PoolFamilyAndFriends.sol\":7271:7286  block.timestamp */\n      timestamp\n        /* \"PoolFamilyAndFriends.sol\":7180:7499  DepositInfo({... */\n      0x40\n      dup4\n      add\n      mstore\n      0x00\n      0x60\n      dup4\n      add\n      dup2\n      swap1\n      mstore\n      0x80\n      dup4\n      add\n      dup2\n      swap1\n      mstore\n      0xa0\n      dup4\n      add\n      dup2\n      swap1\n      mstore\n      dup6\n      iszero\n      iszero\n      0xc0\n      dup5\n      add\n      mstore\n      0xe0\n      dup4\n      add\n      dup2\n      swap1\n      mstore\n      0x0100\n      swap1\n      swap3\n      add\n      dup3\n      swap1\n      mstore\n        /* \"PoolFamilyAndFriends.sol\":7156:7500  userDeposits[user].push(DepositInfo({... */\n      dup4\n      sload\n        /* \"PoolFamilyAndFriends.sol\":7180:7499  DepositInfo({... */\n      0x01\n        /* \"PoolFamilyAndFriends.sol\":7156:7500  userDeposits[user].push(DepositInfo({... */\n      dup2\n      dup2\n      add\n      dup7\n      sstore\n      swap5\n      dup4\n      mstore\n      swap2\n      keccak256\n      dup3\n      mload\n      0x06\n      swap1\n      swap3\n      mul\n      add\n      dup1\n      sload\n      swap3\n      swap4\n      swap1\n      swap3\n      dup4\n      swap2\n      not(0xff)\n      swap2\n      swap1\n      swap2\n      and\n      swap1\n      dup4\n      dup2\n      dup2\n      gt\n      iszero\n      tag_962\n      jumpi\n      tag_962\n      tag_432\n      jump\t// in\n    tag_962:\n      mul\n      or\n      swap1\n      sstore\n      pop\n      0x20\n      dup3\n      dup2\n      add\n      mload\n      0x01\n      dup4\n      dup2\n      add\n      swap2\n      swap1\n      swap2\n      sstore\n      0x40\n      dup1\n      dup6\n      add\n      mload\n      0x02\n      dup6\n      add\n      sstore\n      0x60\n      dup6\n      add\n      mload\n      0x03\n      dup6\n      add\n      dup1\n      sload\n      0x80\n      dup9\n      add\n      mload\n      0xa0\n      dup10\n      add\n      mload\n      0xc0\n      dup11\n      add\n      mload\n      not(0xffff)\n      swap1\n      swap4\n      and\n      swap5\n      iszero\n      iszero\n      not(0xff00)\n      and\n      swap5\n      swap1\n      swap5\n      or\n      0x0100\n      swap2\n      iszero\n      iszero\n      dup3\n      mul\n      or\n      not(0xffff0000)\n      and\n      0x010000\n      swap5\n      iszero\n      iszero\n      swap5\n      swap1\n      swap5\n      mul\n      not(0xff000000)\n      and\n      swap4\n      swap1\n      swap4\n      or\n      0x01000000\n      swap2\n      iszero\n      iszero\n      swap2\n      swap1\n      swap2\n      mul\n      or\n      swap1\n      sstore\n      0xe0\n      dup7\n      add\n      mload\n      0x04\n      dup7\n      add\n      sstore\n      swap1\n      swap5\n      add\n      mload\n      0x05\n      swap1\n      swap4\n      add\n      swap3\n      swap1\n      swap3\n      sstore\n      sub(shl(0xa0, 0x01), 0x01)\n        /* \"PoolFamilyAndFriends.sol\":7514:7532  userDeposits[user] */\n      dup8\n      and\n      0x00\n      swap1\n      dup2\n      mstore\n        /* \"PoolFamilyAndFriends.sol\":7514:7526  userDeposits */\n      0x08\n        /* \"PoolFamilyAndFriends.sol\":7514:7532  userDeposits[user] */\n      swap1\n      swap2\n      mstore\n      swap2\n      swap1\n      swap2\n      keccak256\n        /* \"PoolFamilyAndFriends.sol\":7514:7539  userDeposits[user].length */\n      sload\n        /* \"PoolFamilyAndFriends.sol\":7514:7544  userDeposits[user].length == 1 */\n      swap1\n      sub\n        /* \"PoolFamilyAndFriends.sol\":7510:7628  if (userDeposits[user].length == 1) {... */\n      tag_963\n      jumpi\n        /* \"PoolFamilyAndFriends.sol\":7560:7568  allUsers */\n      0x0f\n        /* \"PoolFamilyAndFriends.sol\":7560:7579  allUsers.push(user) */\n      dup1\n      sload\n      0x01\n      dup2\n      dup2\n      add\n      swap1\n      swap3\n      sstore\n      0x8d1108e10bcb7c27dddfc02ed9d693a074039d026cf4ea4240b40f7d581ac802\n      add\n      dup1\n      sload\n      sub(shl(0xa0, 0x01), 0x01)\n      dup8\n      and\n      not(sub(shl(0xa0, 0x01), 0x01))\n      swap2\n      dup3\n      and\n      dup2\n      or\n      swap1\n      swap3\n      sstore\n        /* \"PoolFamilyAndFriends.sol\":7593:7606  allDepositors */\n      0x11\n        /* \"PoolFamilyAndFriends.sol\":7593:7617  allDepositors.push(user) */\n      dup1\n      sload\n      swap4\n      dup5\n      add\n      dup2\n      sstore\n      0x00\n      mstore\n      0x31ecc21a745e3968a04e9570e4425bc18fa8019c68028196b546d1669c200c68\n      swap1\n      swap3\n      add\n      dup1\n      sload\n      swap1\n      swap3\n      and\n      or\n      swap1\n      sstore\n        /* \"PoolFamilyAndFriends.sol\":7510:7628  if (userDeposits[user].length == 1) {... */\n    tag_963:\n      sub(shl(0xa0, 0x01), 0x01)\n        /* \"PoolFamilyAndFriends.sol\":7642:7732  Deposit(user, token, amount, block.timestamp, userDeposits[user].length - 1, reinvestment) */\n      dup5\n      and\n        /* \"PoolFamilyAndFriends.sol\":7688:7706  userDeposits[user] */\n      0x00\n      dup2\n      dup2\n      mstore\n        /* \"PoolFamilyAndFriends.sol\":7688:7700  userDeposits */\n      0x08\n        /* \"PoolFamilyAndFriends.sol\":7688:7706  userDeposits[user] */\n      0x20\n      mstore\n      0x40\n      swap1\n      keccak256\n        /* \"PoolFamilyAndFriends.sol\":7688:7713  userDeposits[user].length */\n      sload\n        /* \"PoolFamilyAndFriends.sol\":7642:7732  Deposit(user, token, amount, block.timestamp, userDeposits[user].length - 1, reinvestment) */\n      0x48916ac7f9777648255ab8645729ff3b5d20aa412a40fe81dac2433522eaa058\n      swap1\n        /* \"PoolFamilyAndFriends.sol\":7656:7661  token */\n      dup6\n      swap1\n        /* \"PoolFamilyAndFriends.sol\":7663:7669  amount */\n      dup6\n      swap1\n        /* \"PoolFamilyAndFriends.sol\":7671:7686  block.timestamp */\n      timestamp\n      swap1\n        /* \"PoolFamilyAndFriends.sol\":7688:7717  userDeposits[user].length - 1 */\n      tag_966\n      swap1\n        /* \"PoolFamilyAndFriends.sol\":7716:7717  1 */\n      0x01\n      swap1\n        /* \"PoolFamilyAndFriends.sol\":7688:7717  userDeposits[user].length - 1 */\n      tag_529\n      jump\t// in\n    tag_966:\n        /* \"PoolFamilyAndFriends.sol\":7719:7731  reinvestment */\n      dup7\n        /* \"PoolFamilyAndFriends.sol\":7642:7732  Deposit(user, token, amount, block.timestamp, userDeposits[user].length - 1, reinvestment) */\n      mload(0x40)\n      tag_751\n      swap6\n      swap5\n      swap4\n      swap3\n      swap2\n      swap1\n      tag_968\n      jump\t// in\n        /* \"@openzeppelin/contracts/access/AccessControl.sol\":6155:6471   */\n    tag_495:\n        /* \"@openzeppelin/contracts/access/AccessControl.sol\":6232:6236   */\n      0x00\n        /* \"@openzeppelin/contracts/access/AccessControl.sol\":2930:2942   */\n      dup3\n      dup2\n      mstore\n      0x20\n      dup2\n      dup2\n      mstore\n      0x40\n      dup1\n      dup4\n      keccak256\n      sub(shl(0xa0, 0x01), 0x01)\n        /* \"@openzeppelin/contracts/access/AccessControl.sol\":2930:2959   */\n      dup6\n      and\n      dup5\n      mstore\n      swap1\n      swap2\n      mstore\n      dup2\n      keccak256\n      sload\n      0xff\n      and\n        /* \"@openzeppelin/contracts/access/AccessControl.sol\":6248:6465   */\n      tag_972\n      jumpi\n        /* \"@openzeppelin/contracts/access/AccessControl.sol\":6291:6297   */\n      0x00\n        /* \"@openzeppelin/contracts/access/AccessControl.sol\":6291:6303   */\n      dup4\n      dup2\n      mstore\n      0x20\n      dup2\n      dup2\n      mstore\n      0x40\n      dup1\n      dup4\n      keccak256\n      sub(shl(0xa0, 0x01), 0x01)\n        /* \"@openzeppelin/contracts/access/AccessControl.sol\":6291:6320   */\n      dup7\n      and\n      dup5\n      mstore\n      swap1\n      swap2\n      mstore\n      swap1\n      keccak256\n        /* \"@openzeppelin/contracts/access/AccessControl.sol\":6291:6327   */\n      dup1\n      sload\n      not(0xff)\n      and\n        /* \"@openzeppelin/contracts/access/AccessControl.sol\":6323:6327   */\n      0x01\n        /* \"@openzeppelin/contracts/access/AccessControl.sol\":6291:6327   */\n      or\n      swap1\n      sstore\n        /* \"@openzeppelin/contracts/access/AccessControl.sol\":6373:6385   */\n      tag_973\n        /* \"@openzeppelin/contracts/utils/Context.sol\":735:745   */\n      caller\n      swap1\n        /* \"@openzeppelin/contracts/utils/Context.sol\":656:752   */\n      jump\n        /* \"@openzeppelin/contracts/access/AccessControl.sol\":6373:6385   */\n    tag_973:\n      sub(shl(0xa0, 0x01), 0x01)\n        /* \"@openzeppelin/contracts/access/AccessControl.sol\":6346:6386   */\n      and\n        /* \"@openzeppelin/contracts/access/AccessControl.sol\":6364:6371   */\n      dup3\n      sub(shl(0xa0, 0x01), 0x01)\n        /* \"@openzeppelin/contracts/access/AccessControl.sol\":6346:6386   */\n      and\n        /* \"@openzeppelin/contracts/access/AccessControl.sol\":6358:6362   */\n      dup5\n        /* \"@openzeppelin/contracts/access/AccessControl.sol\":6346:6386   */\n      0x2f8788117e7eff1d82e926ec794901d17c78024a50270940304540a733656f0d\n      mload(0x40)\n      mload(0x40)\n      dup1\n      swap2\n      sub\n      swap1\n      log4\n      pop\n        /* \"@openzeppelin/contracts/access/AccessControl.sol\":6407:6411   */\n      0x01\n        /* \"@openzeppelin/contracts/access/AccessControl.sol\":6400:6411   */\n      jump(tag_401)\n        /* \"@openzeppelin/contracts/access/AccessControl.sol\":6248:6465   */\n    tag_972:\n      pop\n        /* \"@openzeppelin/contracts/access/AccessControl.sol\":6449:6454   */\n      0x00\n        /* \"@openzeppelin/contracts/access/AccessControl.sol\":6442:6454   */\n      jump(tag_401)\n        /* \"@openzeppelin/contracts/access/AccessControl.sol\":6708:7025   */\n    tag_501:\n        /* \"@openzeppelin/contracts/access/AccessControl.sol\":6786:6790   */\n      0x00\n        /* \"@openzeppelin/contracts/access/AccessControl.sol\":2930:2942   */\n      dup3\n      dup2\n      mstore\n      0x20\n      dup2\n      dup2\n      mstore\n      0x40\n      dup1\n      dup4\n      keccak256\n      sub(shl(0xa0, 0x01), 0x01)\n        /* \"@openzeppelin/contracts/access/AccessControl.sol\":2930:2959   */\n      dup6\n      and\n      dup5\n      mstore\n      swap1\n      swap2\n      mstore\n      dup2\n      keccak256\n      sload\n      0xff\n      and\n        /* \"@openzeppelin/contracts/access/AccessControl.sol\":6802:7019   */\n      iszero\n      tag_972\n      jumpi\n        /* \"@openzeppelin/contracts/access/AccessControl.sol\":6876:6881   */\n      0x00\n        /* \"@openzeppelin/contracts/access/AccessControl.sol\":6844:6856   */\n      dup4\n      dup2\n      mstore\n      0x20\n      dup2\n      dup2\n      mstore\n      0x40\n      dup1\n      dup4\n      keccak256\n      sub(shl(0xa0, 0x01), 0x01)\n        /* \"@openzeppelin/contracts/access/AccessControl.sol\":6844:6873   */\n      dup7\n      and\n      dup1\n      dup6\n      mstore\n      swap3\n      mstore\n      dup1\n      dup4\n      keccak256\n        /* \"@openzeppelin/contracts/access/AccessControl.sol\":6844:6881   */\n      dup1\n      sload\n      not(0xff)\n      and\n      swap1\n      sstore\n        /* \"@openzeppelin/contracts/access/AccessControl.sol\":6900:6940   */\n      mload\n        /* \"@openzeppelin/contracts/utils/Context.sol\":735:745   */\n      caller\n      swap3\n        /* \"@openzeppelin/contracts/access/AccessControl.sol\":6844:6856   */\n      dup7\n      swap2\n        /* \"@openzeppelin/contracts/access/AccessControl.sol\":6900:6940   */\n      0xf6391f5c32d9c69d2a47ea670b442974b53935d1edc7fd64eb21e047a839171b\n      swap2\n        /* \"@openzeppelin/contracts/access/AccessControl.sol\":6876:6881   */\n      swap1\n        /* \"@openzeppelin/contracts/access/AccessControl.sol\":6900:6940   */\n      log4\n      pop\n        /* \"@openzeppelin/contracts/access/AccessControl.sol\":6961:6965   */\n      0x01\n        /* \"@openzeppelin/contracts/access/AccessControl.sol\":6954:6965   */\n      jump(tag_401)\n        /* \"@openzeppelin/contracts/access/AccessControl.sol\":3408:3605   */\n    tag_954:\n        /* \"@openzeppelin/contracts/access/AccessControl.sol\":2907:2911   */\n      0x00\n        /* \"@openzeppelin/contracts/access/AccessControl.sol\":2930:2942   */\n      dup3\n      dup2\n      mstore\n      0x20\n      dup2\n      dup2\n      mstore\n      0x40\n      dup1\n      dup4\n      keccak256\n      sub(shl(0xa0, 0x01), 0x01)\n        /* \"@openzeppelin/contracts/access/AccessControl.sol\":2930:2959   */\n      dup6\n      and\n      dup5\n      mstore\n      swap1\n      swap2\n      mstore\n      swap1\n      keccak256\n      sload\n      0xff\n      and\n        /* \"@openzeppelin/contracts/access/AccessControl.sol\":3491:3599   */\n      tag_712\n      jumpi\n        /* \"@openzeppelin/contracts/access/AccessControl.sol\":3541:3588   */\n      mload(0x40)\n      shl(0xe0, 0xe2517d3f)\n      dup2\n      mstore\n      sub(shl(0xa0, 0x01), 0x01)\n        /* \"#utility.yul\":14335:14390   */\n      dup3\n      and\n        /* \"@openzeppelin/contracts/access/AccessControl.sol\":3541:3588   */\n      0x04\n      dup3\n      add\n        /* \"#utility.yul\":14317:14391   */\n      mstore\n        /* \"#utility.yul\":14407:14425   */\n      0x24\n      dup2\n      add\n        /* \"#utility.yul\":14400:14434   */\n      dup4\n      swap1\n      mstore\n        /* \"#utility.yul\":14290:14308   */\n      0x44\n      add\n        /* \"@openzeppelin/contracts/access/AccessControl.sol\":3541:3588   */\n      tag_415\n        /* \"#utility.yul\":14143:14440   */\n      jump\n        /* \"#utility.yul\":14:300   */\n    tag_97:\n        /* \"#utility.yul\":72:78   */\n      0x00\n        /* \"#utility.yul\":125:127   */\n      0x20\n        /* \"#utility.yul\":113:122   */\n      dup3\n        /* \"#utility.yul\":104:111   */\n      dup5\n        /* \"#utility.yul\":100:123   */\n      sub\n        /* \"#utility.yul\":96:128   */\n      slt\n        /* \"#utility.yul\":93:145   */\n      iszero\n      tag_995\n      jumpi\n        /* \"#utility.yul\":141:142   */\n      0x00\n        /* \"#utility.yul\":138:139   */\n      dup1\n        /* \"#utility.yul\":131:143   */\n      revert\n        /* \"#utility.yul\":93:145   */\n    tag_995:\n        /* \"#utility.yul\":167:190   */\n      dup2\n      calldataload\n      not(sub(shl(0xe0, 0x01), 0x01))\n        /* \"#utility.yul\":219:251   */\n      dup2\n      and\n        /* \"#utility.yul\":209:252   */\n      dup2\n      eq\n        /* \"#utility.yul\":199:270   */\n      tag_996\n      jumpi\n        /* \"#utility.yul\":266:267   */\n      0x00\n        /* \"#utility.yul\":263:264   */\n      dup1\n        /* \"#utility.yul\":256:268   */\n      revert\n        /* \"#utility.yul\":199:270   */\n    tag_996:\n        /* \"#utility.yul\":289:294   */\n      swap4\n        /* \"#utility.yul\":14:300   */\n      swap3\n      pop\n      pop\n      pop\n      jump\t// out\n        /* \"#utility.yul\":593:789   */\n    tag_987:\n        /* \"#utility.yul\":661:681   */\n      dup1\n      calldataload\n      sub(shl(0xa0, 0x01), 0x01)\n        /* \"#utility.yul\":710:764   */\n      dup2\n      and\n        /* \"#utility.yul\":700:765   */\n      dup2\n      eq\n        /* \"#utility.yul\":690:783   */\n      tag_1000\n      jumpi\n        /* \"#utility.yul\":779:780   */\n      0x00\n        /* \"#utility.yul\":776:777   */\n      dup1\n        /* \"#utility.yul\":769:781   */\n      revert\n        /* \"#utility.yul\":690:783   */\n    tag_1000:\n        /* \"#utility.yul\":593:789   */\n      swap2\n      swap1\n      pop\n      jump\t// out\n        /* \"#utility.yul\":794:980   */\n    tag_104:\n        /* \"#utility.yul\":853:859   */\n      0x00\n        /* \"#utility.yul\":906:908   */\n      0x20\n        /* \"#utility.yul\":894:903   */\n      dup3\n        /* \"#utility.yul\":885:892   */\n      dup5\n        /* \"#utility.yul\":881:904   */\n      sub\n        /* \"#utility.yul\":877:909   */\n      slt\n        /* \"#utility.yul\":874:926   */\n      iszero\n      tag_1002\n      jumpi\n        /* \"#utility.yul\":922:923   */\n      0x00\n        /* \"#utility.yul\":919:920   */\n      dup1\n        /* \"#utility.yul\":912:924   */\n      revert\n        /* \"#utility.yul\":874:926   */\n    tag_1002:\n        /* \"#utility.yul\":945:974   */\n      tag_996\n        /* \"#utility.yul\":964:973   */\n      dup3\n        /* \"#utility.yul\":945:974   */\n      tag_987\n      jump\t// in\n        /* \"#utility.yul\":1167:1285   */\n    tag_988:\n        /* \"#utility.yul\":1253:1258   */\n      dup1\n        /* \"#utility.yul\":1246:1259   */\n      iszero\n        /* \"#utility.yul\":1239:1260   */\n      iszero\n        /* \"#utility.yul\":1232:1237   */\n      dup2\n        /* \"#utility.yul\":1229:1261   */\n      eq\n        /* \"#utility.yul\":1219:1279   */\n      tag_489\n      jumpi\n        /* \"#utility.yul\":1275:1276   */\n      0x00\n        /* \"#utility.yul\":1272:1273   */\n      dup1\n        /* \"#utility.yul\":1265:1277   */\n      revert\n        /* \"#utility.yul\":1290:1531   */\n    tag_111:\n        /* \"#utility.yul\":1346:1352   */\n      0x00\n        /* \"#utility.yul\":1399:1401   */\n      0x20\n        /* \"#utility.yul\":1387:1396   */\n      dup3\n        /* \"#utility.yul\":1378:1385   */\n      dup5\n        /* \"#utility.yul\":1374:1397   */\n      sub\n        /* \"#utility.yul\":1370:1402   */\n      slt\n        /* \"#utility.yul\":1367:1419   */\n      iszero\n      tag_1008\n      jumpi\n        /* \"#utility.yul\":1415:1416   */\n      0x00\n        /* \"#utility.yul\":1412:1413   */\n      dup1\n        /* \"#utility.yul\":1405:1417   */\n      revert\n        /* \"#utility.yul\":1367:1419   */\n    tag_1008:\n        /* \"#utility.yul\":1454:1463   */\n      dup2\n        /* \"#utility.yul\":1441:1464   */\n      calldataload\n        /* \"#utility.yul\":1473:1501   */\n      tag_996\n        /* \"#utility.yul\":1495:1500   */\n      dup2\n        /* \"#utility.yul\":1473:1501   */\n      tag_988\n      jump\t// in\n        /* \"#utility.yul\":1536:1790   */\n    tag_116:\n        /* \"#utility.yul\":1604:1610   */\n      0x00\n        /* \"#utility.yul\":1612:1618   */\n      dup1\n        /* \"#utility.yul\":1665:1667   */\n      0x40\n        /* \"#utility.yul\":1653:1662   */\n      dup4\n        /* \"#utility.yul\":1644:1651   */\n      dup6\n        /* \"#utility.yul\":1640:1663   */\n      sub\n        /* \"#utility.yul\":1636:1668   */\n      slt\n        /* \"#utility.yul\":1633:1685   */\n      iszero\n      tag_1011\n      jumpi\n        /* \"#utility.yul\":1681:1682   */\n      0x00\n        /* \"#utility.yul\":1678:1679   */\n      dup1\n        /* \"#utility.yul\":1671:1683   */\n      revert\n        /* \"#utility.yul\":1633:1685   */\n    tag_1011:\n        /* \"#utility.yul\":1704:1733   */\n      tag_1012\n        /* \"#utility.yul\":1723:1732   */\n      dup4\n        /* \"#utility.yul\":1704:1733   */\n      tag_987\n      jump\t// in\n    tag_1012:\n        /* \"#utility.yul\":1694:1733   */\n      swap5\n        /* \"#utility.yul\":1780:1782   */\n      0x20\n        /* \"#utility.yul\":1765:1783   */\n      swap4\n      swap1\n      swap4\n      add\n        /* \"#utility.yul\":1752:1784   */\n      calldataload\n      swap4\n      pop\n      pop\n      pop\n        /* \"#utility.yul\":1536:1790   */\n      jump\t// out\n        /* \"#utility.yul\":1795:1922   */\n    tag_432:\n        /* \"#utility.yul\":1856:1866   */\n      0x4e487b71\n        /* \"#utility.yul\":1851:1854   */\n      0xe0\n        /* \"#utility.yul\":1847:1867   */\n      shl\n        /* \"#utility.yul\":1844:1845   */\n      0x00\n        /* \"#utility.yul\":1837:1868   */\n      mstore\n        /* \"#utility.yul\":1887:1891   */\n      0x21\n        /* \"#utility.yul\":1884:1885   */\n      0x04\n        /* \"#utility.yul\":1877:1892   */\n      mstore\n        /* \"#utility.yul\":1911:1915   */\n      0x24\n        /* \"#utility.yul\":1908:1909   */\n      0x00\n        /* \"#utility.yul\":1901:1916   */\n      revert\n        /* \"#utility.yul\":1927:2164   */\n    tag_989:\n        /* \"#utility.yul\":2008:2009   */\n      0x02\n        /* \"#utility.yul\":2001:2006   */\n      dup2\n        /* \"#utility.yul\":1998:2010   */\n      lt\n        /* \"#utility.yul\":1988:2131   */\n      tag_1015\n      jumpi\n        /* \"#utility.yul\":2053:2063   */\n      0x4e487b71\n        /* \"#utility.yul\":2048:2051   */\n      0xe0\n        /* \"#utility.yul\":2044:2064   */\n      shl\n        /* \"#utility.yul\":2041:2042   */\n      0x00\n        /* \"#utility.yul\":2034:2065   */\n      mstore\n        /* \"#utility.yul\":2088:2092   */\n      0x21\n        /* \"#utility.yul\":2085:2086   */\n      0x04\n        /* \"#utility.yul\":2078:2093   */\n      mstore\n        /* \"#utility.yul\":2116:2120   */\n      0x24\n        /* \"#utility.yul\":2113:2114   */\n      0x00\n        /* \"#utility.yul\":2106:2121   */\n      revert\n        /* \"#utility.yul\":1988:2131   */\n    tag_1015:\n        /* \"#utility.yul\":2140:2158   */\n      swap1\n      mstore\n        /* \"#utility.yul\":1927:2164   */\n      jump\t// out\n        /* \"#utility.yul\":2169:2991   */\n    tag_119:\n        /* \"#utility.yul\":2515:2518   */\n      0x0120\n        /* \"#utility.yul\":2500:2519   */\n      dup2\n      add\n        /* \"#utility.yul\":2528:2572   */\n      tag_1017\n        /* \"#utility.yul\":2504:2513   */\n      dup3\n        /* \"#utility.yul\":2554:2560   */\n      dup13\n        /* \"#utility.yul\":2528:2572   */\n      tag_989\n      jump\t// in\n    tag_1017:\n        /* \"#utility.yul\":2603:2605   */\n      0x20\n        /* \"#utility.yul\":2588:2606   */\n      dup3\n      add\n        /* \"#utility.yul\":2581:2615   */\n      swap10\n      swap1\n      swap10\n      mstore\n        /* \"#utility.yul\":2646:2648   */\n      0x40\n        /* \"#utility.yul\":2631:2649   */\n      dup2\n      add\n        /* \"#utility.yul\":2624:2658   */\n      swap8\n      swap1\n      swap8\n      mstore\n        /* \"#utility.yul\":2701:2715   */\n      swap5\n      iszero\n        /* \"#utility.yul\":2694:2716   */\n      iszero\n        /* \"#utility.yul\":2689:2691   */\n      0x60\n        /* \"#utility.yul\":2674:2692   */\n      dup8\n      add\n        /* \"#utility.yul\":2667:2717   */\n      mstore\n        /* \"#utility.yul\":2761:2775   */\n      swap3\n      iszero\n        /* \"#utility.yul\":2754:2776   */\n      iszero\n        /* \"#utility.yul\":2748:2751   */\n      0x80\n        /* \"#utility.yul\":2733:2752   */\n      dup7\n      add\n        /* \"#utility.yul\":2726:2777   */\n      mstore\n        /* \"#utility.yul\":2821:2835   */\n      swap1\n      iszero\n        /* \"#utility.yul\":2814:2836   */\n      iszero\n        /* \"#utility.yul\":2808:2811   */\n      0xa0\n        /* \"#utility.yul\":2793:2812   */\n      dup6\n      add\n        /* \"#utility.yul\":2786:2837   */\n      mstore\n        /* \"#utility.yul\":2881:2895   */\n      iszero\n        /* \"#utility.yul\":2874:2896   */\n      iszero\n        /* \"#utility.yul\":2868:2871   */\n      0xc0\n        /* \"#utility.yul\":2853:2872   */\n      dup5\n      add\n        /* \"#utility.yul\":2846:2897   */\n      mstore\n        /* \"#utility.yul\":2928:2931   */\n      0xe0\n        /* \"#utility.yul\":2913:2932   */\n      dup4\n      add\n        /* \"#utility.yul\":2906:2941   */\n      mstore\n        /* \"#utility.yul\":2972:2975   */\n      0x0100\n        /* \"#utility.yul\":2957:2976   */\n      swap1\n      swap2\n      add\n        /* \"#utility.yul\":2950:2985   */\n      mstore\n        /* \"#utility.yul\":2169:2991   */\n      swap2\n      swap1\n      pop\n      jump\t// out\n        /* \"#utility.yul\":3178:3358   */\n    tag_136:\n        /* \"#utility.yul\":3237:3243   */\n      0x00\n        /* \"#utility.yul\":3290:3292   */\n      0x20\n        /* \"#utility.yul\":3278:3287   */\n      dup3\n        /* \"#utility.yul\":3269:3276   */\n      dup5\n        /* \"#utility.yul\":3265:3288   */\n      sub\n        /* \"#utility.yul\":3261:3293   */\n      slt\n        /* \"#utility.yul\":3258:3310   */\n      iszero\n      tag_1020\n      jumpi\n        /* \"#utility.yul\":3306:3307   */\n      0x00\n        /* \"#utility.yul\":3303:3304   */\n      dup1\n        /* \"#utility.yul\":3296:3308   */\n      revert\n        /* \"#utility.yul\":3258:3310   */\n    tag_1020:\n      pop\n        /* \"#utility.yul\":3329:3352   */\n      calldataload\n      swap2\n        /* \"#utility.yul\":3178:3358   */\n      swap1\n      pop\n      jump\t// out\n        /* \"#utility.yul\":3363:4861   */\n    tag_151:\n        /* \"#utility.yul\":3592:3594   */\n      0x20\n        /* \"#utility.yul\":3644:3665   */\n      dup1\n      dup3\n      mstore\n        /* \"#utility.yul\":3714:3727   */\n      dup3\n      mload\n        /* \"#utility.yul\":3617:3635   */\n      dup3\n      dup3\n      add\n        /* \"#utility.yul\":3736:3758   */\n      dup2\n      swap1\n      mstore\n        /* \"#utility.yul\":3563:3567   */\n      0x00\n      swap2\n        /* \"#utility.yul\":3592:3594   */\n      swap1\n        /* \"#utility.yul\":3777:3779   */\n      0x40\n      swap1\n        /* \"#utility.yul\":3795:3813   */\n      dup2\n      dup6\n      add\n      swap1\n        /* \"#utility.yul\":3836:3851   */\n      dup7\n      dup5\n      add\n        /* \"#utility.yul\":3563:3567   */\n      dup6\n        /* \"#utility.yul\":3879:4835   */\n    tag_1022:\n        /* \"#utility.yul\":3893:3899   */\n      dup3\n        /* \"#utility.yul\":3890:3891   */\n      dup2\n        /* \"#utility.yul\":3887:3900   */\n      lt\n        /* \"#utility.yul\":3879:4835   */\n      iszero\n      tag_1024\n      jumpi\n        /* \"#utility.yul\":3958:3964   */\n      dup2\n        /* \"#utility.yul\":3952:3965   */\n      mload\n        /* \"#utility.yul\":3978:4019   */\n      tag_1025\n        /* \"#utility.yul\":4015:4018   */\n      dup6\n        /* \"#utility.yul\":4010:4012   */\n      dup3\n        /* \"#utility.yul\":4004:4013   */\n      mload\n        /* \"#utility.yul\":3978:4019   */\n      tag_989\n      jump\t// in\n    tag_1025:\n        /* \"#utility.yul\":4059:4070   */\n      dup1\n      dup8\n      add\n        /* \"#utility.yul\":4053:4071   */\n      mload\n        /* \"#utility.yul\":4039:4051   */\n      dup6\n      dup9\n      add\n        /* \"#utility.yul\":4032:4072   */\n      mstore\n        /* \"#utility.yul\":4112:4123   */\n      dup6\n      dup2\n      add\n        /* \"#utility.yul\":4106:4124   */\n      mload\n        /* \"#utility.yul\":4092:4104   */\n      dup7\n      dup7\n      add\n        /* \"#utility.yul\":4085:4125   */\n      mstore\n        /* \"#utility.yul\":4148:4152   */\n      0x60\n        /* \"#utility.yul\":4206:4217   */\n      dup1\n      dup3\n      add\n        /* \"#utility.yul\":4200:4218   */\n      mload\n        /* \"#utility.yul\":4193:4219   */\n      iszero\n        /* \"#utility.yul\":4186:4220   */\n      iszero\n        /* \"#utility.yul\":4172:4184   */\n      swap1\n      dup7\n      add\n        /* \"#utility.yul\":4165:4221   */\n      mstore\n        /* \"#utility.yul\":4244:4248   */\n      0x80\n        /* \"#utility.yul\":4302:4313   */\n      dup1\n      dup3\n      add\n        /* \"#utility.yul\":4296:4314   */\n      mload\n        /* \"#utility.yul\":4289:4315   */\n      iszero\n        /* \"#utility.yul\":4282:4316   */\n      iszero\n        /* \"#utility.yul\":4268:4280   */\n      swap1\n      dup7\n      add\n        /* \"#utility.yul\":4261:4317   */\n      mstore\n        /* \"#utility.yul\":4340:4344   */\n      0xa0\n        /* \"#utility.yul\":4383:4394   */\n      dup1\n      dup3\n      add\n        /* \"#utility.yul\":4377:4395   */\n      mload\n        /* \"#utility.yul\":375:388   */\n      iszero\n        /* \"#utility.yul\":368:389   */\n      iszero\n        /* \"#utility.yul\":4438:4450   */\n      swap1\n      dup7\n      add\n        /* \"#utility.yul\":356:390   */\n      mstore\n        /* \"#utility.yul\":4474:4478   */\n      0xc0\n        /* \"#utility.yul\":4519:4530   */\n      dup1\n      dup3\n      add\n        /* \"#utility.yul\":4513:4531   */\n      mload\n        /* \"#utility.yul\":375:388   */\n      iszero\n        /* \"#utility.yul\":368:389   */\n      iszero\n        /* \"#utility.yul\":4576:4588   */\n      swap1\n      dup7\n      add\n        /* \"#utility.yul\":356:390   */\n      mstore\n        /* \"#utility.yul\":4612:4616   */\n      0xe0\n        /* \"#utility.yul\":4656:4667   */\n      dup1\n      dup3\n      add\n        /* \"#utility.yul\":4650:4668   */\n      mload\n        /* \"#utility.yul\":4636:4648   */\n      swap1\n      dup7\n      add\n        /* \"#utility.yul\":4629:4669   */\n      mstore\n        /* \"#utility.yul\":4692:4698   */\n      0x0100\n        /* \"#utility.yul\":4738:4749   */\n      swap1\n      dup2\n      add\n        /* \"#utility.yul\":4732:4750   */\n      mload\n        /* \"#utility.yul\":4718:4730   */\n      swap1\n      dup6\n      add\n        /* \"#utility.yul\":4711:4751   */\n      mstore\n        /* \"#utility.yul\":4780:4786   */\n      0x0120\n        /* \"#utility.yul\":4771:4787   */\n      swap1\n      swap4\n      add\n      swap3\n        /* \"#utility.yul\":4810:4825   */\n      swap1\n      dup6\n      add\n      swap1\n        /* \"#utility.yul\":3915:3916   */\n      0x01\n        /* \"#utility.yul\":3908:3917   */\n      add\n        /* \"#utility.yul\":3879:4835   */\n      jump(tag_1022)\n    tag_1024:\n      pop\n        /* \"#utility.yul\":4852:4855   */\n      swap2\n      swap8\n        /* \"#utility.yul\":3363:4861   */\n      swap7\n      pop\n      pop\n      pop\n      pop\n      pop\n      pop\n      pop\n      jump\t// out\n        /* \"#utility.yul\":5051:5305   */\n    tag_160:\n        /* \"#utility.yul\":5119:5125   */\n      0x00\n        /* \"#utility.yul\":5127:5133   */\n      dup1\n        /* \"#utility.yul\":5180:5182   */\n      0x40\n        /* \"#utility.yul\":5168:5177   */\n      dup4\n        /* \"#utility.yul\":5159:5166   */\n      dup6\n        /* \"#utility.yul\":5155:5178   */\n      sub\n        /* \"#utility.yul\":5151:5183   */\n      slt\n        /* \"#utility.yul\":5148:5200   */\n      iszero\n      tag_1031\n      jumpi\n        /* \"#utility.yul\":5196:5197   */\n      0x00\n        /* \"#utility.yul\":5193:5194   */\n      dup1\n        /* \"#utility.yul\":5186:5198   */\n      revert\n        /* \"#utility.yul\":5148:5200   */\n    tag_1031:\n        /* \"#utility.yul\":5232:5241   */\n      dup3\n        /* \"#utility.yul\":5219:5242   */\n      calldataload\n        /* \"#utility.yul\":5209:5242   */\n      swap2\n      pop\n        /* \"#utility.yul\":5261:5299   */\n      tag_1032\n        /* \"#utility.yul\":5295:5297   */\n      0x20\n        /* \"#utility.yul\":5284:5293   */\n      dup5\n        /* \"#utility.yul\":5280:5298   */\n      add\n        /* \"#utility.yul\":5261:5299   */\n      tag_987\n      jump\t// in\n    tag_1032:\n        /* \"#utility.yul\":5251:5299   */\n      swap1\n      pop\n        /* \"#utility.yul\":5051:5305   */\n      swap3\n      pop\n      swap3\n      swap1\n      pop\n      jump\t// out\n        /* \"#utility.yul\":5310:5677   */\n    tag_990:\n        /* \"#utility.yul\":5373:5381   */\n      0x00\n        /* \"#utility.yul\":5383:5389   */\n      dup1\n        /* \"#utility.yul\":5437:5440   */\n      dup4\n        /* \"#utility.yul\":5430:5434   */\n      0x1f\n        /* \"#utility.yul\":5422:5428   */\n      dup5\n        /* \"#utility.yul\":5418:5435   */\n      add\n        /* \"#utility.yul\":5414:5441   */\n      slt\n        /* \"#utility.yul\":5404:5459   */\n      tag_1034\n      jumpi\n        /* \"#utility.yul\":5455:5456   */\n      0x00\n        /* \"#utility.yul\":5452:5453   */\n      dup1\n        /* \"#utility.yul\":5445:5457   */\n      revert\n        /* \"#utility.yul\":5404:5459   */\n    tag_1034:\n      pop\n        /* \"#utility.yul\":5478:5498   */\n      dup2\n      calldataload\n        /* \"#utility.yul\":5521:5539   */\n      0xffffffffffffffff\n        /* \"#utility.yul\":5510:5540   */\n      dup2\n      gt\n        /* \"#utility.yul\":5507:5557   */\n      iszero\n      tag_1035\n      jumpi\n        /* \"#utility.yul\":5553:5554   */\n      0x00\n        /* \"#utility.yul\":5550:5551   */\n      dup1\n        /* \"#utility.yul\":5543:5555   */\n      revert\n        /* \"#utility.yul\":5507:5557   */\n    tag_1035:\n        /* \"#utility.yul\":5590:5594   */\n      0x20\n        /* \"#utility.yul\":5582:5588   */\n      dup4\n        /* \"#utility.yul\":5578:5595   */\n      add\n        /* \"#utility.yul\":5566:5595   */\n      swap2\n      pop\n        /* \"#utility.yul\":5650:5653   */\n      dup4\n        /* \"#utility.yul\":5643:5647   */\n      0x20\n        /* \"#utility.yul\":5633:5639   */\n      dup3\n        /* \"#utility.yul\":5630:5631   */\n      0x05\n        /* \"#utility.yul\":5626:5640   */\n      shl\n        /* \"#utility.yul\":5618:5624   */\n      dup6\n        /* \"#utility.yul\":5614:5641   */\n      add\n        /* \"#utility.yul\":5610:5648   */\n      add\n        /* \"#utility.yul\":5607:5654   */\n      gt\n        /* \"#utility.yul\":5604:5671   */\n      iszero\n      tag_1036\n      jumpi\n        /* \"#utility.yul\":5667:5668   */\n      0x00\n        /* \"#utility.yul\":5664:5665   */\n      dup1\n        /* \"#utility.yul\":5657:5669   */\n      revert\n        /* \"#utility.yul\":5604:5671   */\n    tag_1036:\n        /* \"#utility.yul\":5310:5677   */\n      swap3\n      pop\n      swap3\n      swap1\n      pop\n      jump\t// out\n        /* \"#utility.yul\":5682:6455   */\n    tag_183:\n        /* \"#utility.yul\":5804:5810   */\n      0x00\n        /* \"#utility.yul\":5812:5818   */\n      dup1\n        /* \"#utility.yul\":5820:5826   */\n      0x00\n        /* \"#utility.yul\":5828:5834   */\n      dup1\n        /* \"#utility.yul\":5881:5883   */\n      0x40\n        /* \"#utility.yul\":5869:5878   */\n      dup6\n        /* \"#utility.yul\":5860:5867   */\n      dup8\n        /* \"#utility.yul\":5856:5879   */\n      sub\n        /* \"#utility.yul\":5852:5884   */\n      slt\n        /* \"#utility.yul\":5849:5901   */\n      iszero\n      tag_1038\n      jumpi\n        /* \"#utility.yul\":5897:5898   */\n      0x00\n        /* \"#utility.yul\":5894:5895   */\n      dup1\n        /* \"#utility.yul\":5887:5899   */\n      revert\n        /* \"#utility.yul\":5849:5901   */\n    tag_1038:\n        /* \"#utility.yul\":5937:5946   */\n      dup5\n        /* \"#utility.yul\":5924:5947   */\n      calldataload\n        /* \"#utility.yul\":5966:5984   */\n      0xffffffffffffffff\n        /* \"#utility.yul\":6007:6009   */\n      dup1\n        /* \"#utility.yul\":5999:6005   */\n      dup3\n        /* \"#utility.yul\":5996:6010   */\n      gt\n        /* \"#utility.yul\":5993:6027   */\n      iszero\n      tag_1039\n      jumpi\n        /* \"#utility.yul\":6023:6024   */\n      0x00\n        /* \"#utility.yul\":6020:6021   */\n      dup1\n        /* \"#utility.yul\":6013:6025   */\n      revert\n        /* \"#utility.yul\":5993:6027   */\n    tag_1039:\n        /* \"#utility.yul\":6062:6132   */\n      tag_1040\n        /* \"#utility.yul\":6124:6131   */\n      dup9\n        /* \"#utility.yul\":6115:6121   */\n      dup4\n        /* \"#utility.yul\":6104:6113   */\n      dup10\n        /* \"#utility.yul\":6100:6122   */\n      add\n        /* \"#utility.yul\":6062:6132   */\n      tag_990\n      jump\t// in\n    tag_1040:\n        /* \"#utility.yul\":6151:6159   */\n      swap1\n      swap7\n      pop\n        /* \"#utility.yul\":6036:6132   */\n      swap5\n      pop\n        /* \"#utility.yul\":6239:6241   */\n      0x20\n        /* \"#utility.yul\":6224:6242   */\n      dup8\n      add\n        /* \"#utility.yul\":6211:6243   */\n      calldataload\n      swap2\n      pop\n        /* \"#utility.yul\":6255:6271   */\n      dup1\n      dup3\n      gt\n        /* \"#utility.yul\":6252:6288   */\n      iszero\n      tag_1041\n      jumpi\n        /* \"#utility.yul\":6284:6285   */\n      0x00\n        /* \"#utility.yul\":6281:6282   */\n      dup1\n        /* \"#utility.yul\":6274:6286   */\n      revert\n        /* \"#utility.yul\":6252:6288   */\n    tag_1041:\n      pop\n        /* \"#utility.yul\":6323:6395   */\n      tag_1042\n        /* \"#utility.yul\":6387:6394   */\n      dup8\n        /* \"#utility.yul\":6376:6384   */\n      dup3\n        /* \"#utility.yul\":6365:6374   */\n      dup9\n        /* \"#utility.yul\":6361:6385   */\n      add\n        /* \"#utility.yul\":6323:6395   */\n      tag_990\n      jump\t// in\n    tag_1042:\n        /* \"#utility.yul\":5682:6455   */\n      swap6\n      swap9\n      swap5\n      swap8\n      pop\n        /* \"#utility.yul\":6414:6422   */\n      swap6\n      pop\n      pop\n      pop\n      pop\n        /* \"#utility.yul\":5682:6455   */\n      jump\t// out\n        /* \"#utility.yul\":7919:8234   */\n    tag_203:\n        /* \"#utility.yul\":7984:7990   */\n      0x00\n        /* \"#utility.yul\":7992:7998   */\n      dup1\n        /* \"#utility.yul\":8045:8047   */\n      0x40\n        /* \"#utility.yul\":8033:8042   */\n      dup4\n        /* \"#utility.yul\":8024:8031   */\n      dup6\n        /* \"#utility.yul\":8020:8043   */\n      sub\n        /* \"#utility.yul\":8016:8048   */\n      slt\n        /* \"#utility.yul\":8013:8065   */\n      iszero\n      tag_1051\n      jumpi\n        /* \"#utility.yul\":8061:8062   */\n      0x00\n        /* \"#utility.yul\":8058:8059   */\n      dup1\n        /* \"#utility.yul\":8051:8063   */\n      revert\n        /* \"#utility.yul\":8013:8065   */\n    tag_1051:\n        /* \"#utility.yul\":8084:8113   */\n      tag_1052\n        /* \"#utility.yul\":8103:8112   */\n      dup4\n        /* \"#utility.yul\":8084:8113   */\n      tag_987\n      jump\t// in\n    tag_1052:\n        /* \"#utility.yul\":8074:8113   */\n      swap2\n      pop\n        /* \"#utility.yul\":8163:8165   */\n      0x20\n        /* \"#utility.yul\":8152:8161   */\n      dup4\n        /* \"#utility.yul\":8148:8166   */\n      add\n        /* \"#utility.yul\":8135:8167   */\n      calldataload\n        /* \"#utility.yul\":8176:8204   */\n      tag_1053\n        /* \"#utility.yul\":8198:8203   */\n      dup2\n        /* \"#utility.yul\":8176:8204   */\n      tag_988\n      jump\t// in\n    tag_1053:\n        /* \"#utility.yul\":8223:8228   */\n      dup1\n        /* \"#utility.yul\":8213:8228   */\n      swap2\n      pop\n      pop\n        /* \"#utility.yul\":7919:8234   */\n      swap3\n      pop\n      swap3\n      swap1\n      pop\n      jump\t// out\n        /* \"#utility.yul\":8239:8615   */\n    tag_223:\n        /* \"#utility.yul\":8301:8307   */\n      0x00\n        /* \"#utility.yul\":8309:8315   */\n      dup1\n        /* \"#utility.yul\":8362:8364   */\n      0x40\n        /* \"#utility.yul\":8350:8359   */\n      dup4\n        /* \"#utility.yul\":8341:8348   */\n      dup6\n        /* \"#utility.yul\":8337:8360   */\n      sub\n        /* \"#utility.yul\":8333:8365   */\n      slt\n        /* \"#utility.yul\":8330:8382   */\n      iszero\n      tag_1055\n      jumpi\n        /* \"#utility.yul\":8378:8379   */\n      0x00\n        /* \"#utility.yul\":8375:8376   */\n      dup1\n        /* \"#utility.yul\":8368:8380   */\n      revert\n        /* \"#utility.yul\":8330:8382   */\n    tag_1055:\n        /* \"#utility.yul\":8417:8426   */\n      dup3\n        /* \"#utility.yul\":8404:8427   */\n      calldataload\n        /* \"#utility.yul\":8436:8464   */\n      tag_1052\n        /* \"#utility.yul\":8458:8463   */\n      dup2\n        /* \"#utility.yul\":8436:8464   */\n      tag_988\n      jump\t// in\n        /* \"#utility.yul\":8620:9057   */\n    tag_235:\n        /* \"#utility.yul\":8706:8712   */\n      0x00\n        /* \"#utility.yul\":8714:8720   */\n      dup1\n        /* \"#utility.yul\":8767:8769   */\n      0x20\n        /* \"#utility.yul\":8755:8764   */\n      dup4\n        /* \"#utility.yul\":8746:8753   */\n      dup6\n        /* \"#utility.yul\":8742:8765   */\n      sub\n        /* \"#utility.yul\":8738:8770   */\n      slt\n        /* \"#utility.yul\":8735:8787   */\n      iszero\n      tag_1059\n      jumpi\n        /* \"#utility.yul\":8783:8784   */\n      0x00\n        /* \"#utility.yul\":8780:8781   */\n      dup1\n        /* \"#utility.yul\":8773:8785   */\n      revert\n        /* \"#utility.yul\":8735:8787   */\n    tag_1059:\n        /* \"#utility.yul\":8823:8832   */\n      dup3\n        /* \"#utility.yul\":8810:8833   */\n      calldataload\n        /* \"#utility.yul\":8856:8874   */\n      0xffffffffffffffff\n        /* \"#utility.yul\":8848:8854   */\n      dup2\n        /* \"#utility.yul\":8845:8875   */\n      gt\n        /* \"#utility.yul\":8842:8892   */\n      iszero\n      tag_1060\n      jumpi\n        /* \"#utility.yul\":8888:8889   */\n      0x00\n        /* \"#utility.yul\":8885:8886   */\n      dup1\n        /* \"#utility.yul\":8878:8890   */\n      revert\n        /* \"#utility.yul\":8842:8892   */\n    tag_1060:\n        /* \"#utility.yul\":8927:8997   */\n      tag_1061\n        /* \"#utility.yul\":8989:8996   */\n      dup6\n        /* \"#utility.yul\":8980:8986   */\n      dup3\n        /* \"#utility.yul\":8969:8978   */\n      dup7\n        /* \"#utility.yul\":8965:8987   */\n      add\n        /* \"#utility.yul\":8927:8997   */\n      tag_990\n      jump\t// in\n    tag_1061:\n        /* \"#utility.yul\":9016:9024   */\n      swap1\n      swap7\n        /* \"#utility.yul\":8901:8997   */\n      swap1\n      swap6\n      pop\n        /* \"#utility.yul\":8620:9057   */\n      swap4\n      pop\n      pop\n      pop\n      pop\n      jump\t// out\n        /* \"#utility.yul\":9062:9573   */\n    tag_252:\n        /* \"#utility.yul\":9157:9163   */\n      0x00\n        /* \"#utility.yul\":9165:9171   */\n      dup1\n        /* \"#utility.yul\":9173:9179   */\n      0x00\n        /* \"#utility.yul\":9226:9228   */\n      0x40\n        /* \"#utility.yul\":9214:9223   */\n      dup5\n        /* \"#utility.yul\":9205:9212   */\n      dup7\n        /* \"#utility.yul\":9201:9224   */\n      sub\n        /* \"#utility.yul\":9197:9229   */\n      slt\n        /* \"#utility.yul\":9194:9246   */\n      iszero\n      tag_1063\n      jumpi\n        /* \"#utility.yul\":9242:9243   */\n      0x00\n        /* \"#utility.yul\":9239:9240   */\n      dup1\n        /* \"#utility.yul\":9232:9244   */\n      revert\n        /* \"#utility.yul\":9194:9246   */\n    tag_1063:\n        /* \"#utility.yul\":9265:9294   */\n      tag_1064\n        /* \"#utility.yul\":9284:9293   */\n      dup5\n        /* \"#utility.yul\":9265:9294   */\n      tag_987\n      jump\t// in\n    tag_1064:\n        /* \"#utility.yul\":9255:9294   */\n      swap3\n      pop\n        /* \"#utility.yul\":9345:9347   */\n      0x20\n        /* \"#utility.yul\":9334:9343   */\n      dup5\n        /* \"#utility.yul\":9330:9348   */\n      add\n        /* \"#utility.yul\":9317:9349   */\n      calldataload\n        /* \"#utility.yul\":9372:9390   */\n      0xffffffffffffffff\n        /* \"#utility.yul\":9364:9370   */\n      dup2\n        /* \"#utility.yul\":9361:9391   */\n      gt\n        /* \"#utility.yul\":9358:9408   */\n      iszero\n      tag_1065\n      jumpi\n        /* \"#utility.yul\":9404:9405   */\n      0x00\n        /* \"#utility.yul\":9401:9402   */\n      dup1\n        /* \"#utility.yul\":9394:9406   */\n      revert\n        /* \"#utility.yul\":9358:9408   */\n    tag_1065:\n        /* \"#utility.yul\":9443:9513   */\n      tag_1066\n        /* \"#utility.yul\":9505:9512   */\n      dup7\n        /* \"#utility.yul\":9496:9502   */\n      dup3\n        /* \"#utility.yul\":9485:9494   */\n      dup8\n        /* \"#utility.yul\":9481:9503   */\n      add\n        /* \"#utility.yul\":9443:9513   */\n      tag_990\n      jump\t// in\n    tag_1066:\n        /* \"#utility.yul\":9062:9573   */\n      swap5\n      swap8\n        /* \"#utility.yul\":9532:9540   */\n      swap1\n      swap7\n      pop\n        /* \"#utility.yul\":9417:9513   */\n      swap4\n      swap5\n      pop\n      pop\n      pop\n      pop\n        /* \"#utility.yul\":9062:9573   */\n      jump\t// out\n        /* \"#utility.yul\":10785:11113   */\n    tag_319:\n        /* \"#utility.yul\":10862:10868   */\n      0x00\n        /* \"#utility.yul\":10870:10876   */\n      dup1\n        /* \"#utility.yul\":10878:10884   */\n      0x00\n        /* \"#utility.yul\":10931:10933   */\n      0x60\n        /* \"#utility.yul\":10919:10928   */\n      dup5\n        /* \"#utility.yul\":10910:10917   */\n      dup7\n        /* \"#utility.yul\":10906:10929   */\n      sub\n        /* \"#utility.yul\":10902:10934   */\n      slt\n        /* \"#utility.yul\":10899:10951   */\n      iszero\n      tag_1070\n      jumpi\n        /* \"#utility.yul\":10947:10948   */\n      0x00\n        /* \"#utility.yul\":10944:10945   */\n      dup1\n        /* \"#utility.yul\":10937:10949   */\n      revert\n        /* \"#utility.yul\":10899:10951   */\n    tag_1070:\n        /* \"#utility.yul\":10970:10999   */\n      tag_1071\n        /* \"#utility.yul\":10989:10998   */\n      dup5\n        /* \"#utility.yul\":10970:10999   */\n      tag_987\n      jump\t// in\n    tag_1071:\n        /* \"#utility.yul\":10960:10999   */\n      swap3\n      pop\n        /* \"#utility.yul\":11018:11056   */\n      tag_1072\n        /* \"#utility.yul\":11052:11054   */\n      0x20\n        /* \"#utility.yul\":11041:11050   */\n      dup6\n        /* \"#utility.yul\":11037:11055   */\n      add\n        /* \"#utility.yul\":11018:11056   */\n      tag_987\n      jump\t// in\n    tag_1072:\n        /* \"#utility.yul\":11008:11056   */\n      swap2\n      pop\n        /* \"#utility.yul\":11103:11105   */\n      0x40\n        /* \"#utility.yul\":11092:11101   */\n      dup5\n        /* \"#utility.yul\":11088:11106   */\n      add\n        /* \"#utility.yul\":11075:11107   */\n      calldataload\n        /* \"#utility.yul\":11065:11107   */\n      swap1\n      pop\n        /* \"#utility.yul\":10785:11113   */\n      swap3\n      pop\n      swap3\n      pop\n      swap3\n      jump\t// out\n        /* \"#utility.yul\":11118:11456   */\n    tag_391:\n        /* \"#utility.yul\":11200:11206   */\n      0x00\n        /* \"#utility.yul\":11208:11214   */\n      dup1\n        /* \"#utility.yul\":11261:11263   */\n      0x40\n        /* \"#utility.yul\":11249:11258   */\n      dup4\n        /* \"#utility.yul\":11240:11247   */\n      dup6\n        /* \"#utility.yul\":11236:11259   */\n      sub\n        /* \"#utility.yul\":11232:11264   */\n      slt\n        /* \"#utility.yul\":11229:11281   */\n      iszero\n      tag_1074\n      jumpi\n        /* \"#utility.yul\":11277:11278   */\n      0x00\n        /* \"#utility.yul\":11274:11275   */\n      dup1\n        /* \"#utility.yul\":11267:11279   */\n      revert\n        /* \"#utility.yul\":11229:11281   */\n    tag_1074:\n        /* \"#utility.yul\":11316:11325   */\n      dup3\n        /* \"#utility.yul\":11303:11326   */\n      calldataload\n        /* \"#utility.yul\":11355:11356   */\n      0x02\n        /* \"#utility.yul\":11348:11353   */\n      dup2\n        /* \"#utility.yul\":11345:11357   */\n      lt\n        /* \"#utility.yul\":11335:11375   */\n      tag_1012\n      jumpi\n        /* \"#utility.yul\":11371:11372   */\n      0x00\n        /* \"#utility.yul\":11368:11369   */\n      dup1\n        /* \"#utility.yul\":11361:11373   */\n      revert\n        /* \"#utility.yul\":11800:11927   */\n    tag_991:\n        /* \"#utility.yul\":11861:11871   */\n      0x4e487b71\n        /* \"#utility.yul\":11856:11859   */\n      0xe0\n        /* \"#utility.yul\":11852:11872   */\n      shl\n        /* \"#utility.yul\":11849:11850   */\n      0x00\n        /* \"#utility.yul\":11842:11873   */\n      mstore\n        /* \"#utility.yul\":11892:11896   */\n      0x11\n        /* \"#utility.yul\":11889:11890   */\n      0x04\n        /* \"#utility.yul\":11882:11897   */\n      mstore\n        /* \"#utility.yul\":11916:11920   */\n      0x24\n        /* \"#utility.yul\":11913:11914   */\n      0x00\n        /* \"#utility.yul\":11906:11921   */\n      revert\n        /* \"#utility.yul\":11932:12057   */\n    tag_420:\n        /* \"#utility.yul\":11997:12006   */\n      dup1\n      dup3\n      add\n        /* \"#utility.yul\":12018:12028   */\n      dup1\n      dup3\n      gt\n        /* \"#utility.yul\":12015:12051   */\n      iszero\n      tag_401\n      jumpi\n        /* \"#utility.yul\":12031:12049   */\n      tag_401\n      tag_991\n      jump\t// in\n        /* \"#utility.yul\":12062:12412   */\n    tag_423:\n        /* \"#utility.yul\":12264:12266   */\n      0x60\n        /* \"#utility.yul\":12249:12267   */\n      dup2\n      add\n        /* \"#utility.yul\":12276:12320   */\n      tag_1082\n        /* \"#utility.yul\":12253:12262   */\n      dup3\n        /* \"#utility.yul\":12302:12308   */\n      dup7\n        /* \"#utility.yul\":12276:12320   */\n      tag_989\n      jump\t// in\n    tag_1082:\n        /* \"#utility.yul\":12351:12353   */\n      0x20\n        /* \"#utility.yul\":12336:12354   */\n      dup3\n      add\n        /* \"#utility.yul\":12329:12363   */\n      swap4\n      swap1\n      swap4\n      mstore\n        /* \"#utility.yul\":12394:12396   */\n      0x40\n        /* \"#utility.yul\":12379:12397   */\n      add\n        /* \"#utility.yul\":12372:12406   */\n      mstore\n        /* \"#utility.yul\":12062:12412   */\n      swap2\n      swap1\n      pop\n      jump\t// out\n        /* \"#utility.yul\":12764:12891   */\n    tag_444:\n        /* \"#utility.yul\":12825:12835   */\n      0x4e487b71\n        /* \"#utility.yul\":12820:12823   */\n      0xe0\n        /* \"#utility.yul\":12816:12836   */\n      shl\n        /* \"#utility.yul\":12813:12814   */\n      0x00\n        /* \"#utility.yul\":12806:12837   */\n      mstore\n        /* \"#utility.yul\":12856:12860   */\n      0x32\n        /* \"#utility.yul\":12853:12854   */\n      0x04\n        /* \"#utility.yul\":12846:12861   */\n      mstore\n        /* \"#utility.yul\":12880:12884   */\n      0x24\n        /* \"#utility.yul\":12877:12878   */\n      0x00\n        /* \"#utility.yul\":12870:12885   */\n      revert\n        /* \"#utility.yul\":14445:14690   */\n    tag_484:\n        /* \"#utility.yul\":14512:14518   */\n      0x00\n        /* \"#utility.yul\":14565:14567   */\n      0x20\n        /* \"#utility.yul\":14553:14562   */\n      dup3\n        /* \"#utility.yul\":14544:14551   */\n      dup5\n        /* \"#utility.yul\":14540:14563   */\n      sub\n        /* \"#utility.yul\":14536:14568   */\n      slt\n        /* \"#utility.yul\":14533:14585   */\n      iszero\n      tag_1091\n      jumpi\n        /* \"#utility.yul\":14581:14582   */\n      0x00\n        /* \"#utility.yul\":14578:14579   */\n      dup1\n        /* \"#utility.yul\":14571:14583   */\n      revert\n        /* \"#utility.yul\":14533:14585   */\n    tag_1091:\n        /* \"#utility.yul\":14613:14622   */\n      dup2\n        /* \"#utility.yul\":14607:14623   */\n      mload\n        /* \"#utility.yul\":14632:14660   */\n      tag_996\n        /* \"#utility.yul\":14654:14659   */\n      dup2\n        /* \"#utility.yul\":14632:14660   */\n      tag_988\n      jump\t// in\n        /* \"#utility.yul\":14695:15189   */\n    tag_488:\n        /* \"#utility.yul\":14953:14956   */\n      0xa0\n        /* \"#utility.yul\":14938:14957   */\n      dup2\n      add\n        /* \"#utility.yul\":14966:15010   */\n      tag_1094\n        /* \"#utility.yul\":14942:14951   */\n      dup3\n        /* \"#utility.yul\":14992:14998   */\n      dup9\n        /* \"#utility.yul\":14966:15010   */\n      tag_989\n      jump\t// in\n    tag_1094:\n        /* \"#utility.yul\":15046:15052   */\n      dup6\n        /* \"#utility.yul\":15041:15043   */\n      0x20\n        /* \"#utility.yul\":15030:15039   */\n      dup4\n        /* \"#utility.yul\":15026:15044   */\n      add\n        /* \"#utility.yul\":15019:15053   */\n      mstore\n        /* \"#utility.yul\":15089:15095   */\n      dup5\n        /* \"#utility.yul\":15084:15086   */\n      0x40\n        /* \"#utility.yul\":15073:15082   */\n      dup4\n        /* \"#utility.yul\":15069:15087   */\n      add\n        /* \"#utility.yul\":15062:15096   */\n      mstore\n        /* \"#utility.yul\":15132:15138   */\n      dup4\n        /* \"#utility.yul\":15127:15129   */\n      0x60\n        /* \"#utility.yul\":15116:15125   */\n      dup4\n        /* \"#utility.yul\":15112:15130   */\n      add\n        /* \"#utility.yul\":15105:15139   */\n      mstore\n        /* \"#utility.yul\":15176:15182   */\n      dup3\n        /* \"#utility.yul\":15170:15173   */\n      0x80\n        /* \"#utility.yul\":15159:15168   */\n      dup4\n        /* \"#utility.yul\":15155:15174   */\n      add\n        /* \"#utility.yul\":15148:15183   */\n      mstore\n        /* \"#utility.yul\":14695:15189   */\n      swap7\n      swap6\n      pop\n      pop\n      pop\n      pop\n      pop\n      pop\n      jump\t// out\n        /* \"#utility.yul\":16203:16331   */\n    tag_529:\n        /* \"#utility.yul\":16270:16279   */\n      dup2\n      dup2\n      sub\n        /* \"#utility.yul\":16291:16302   */\n      dup2\n      dup2\n      gt\n        /* \"#utility.yul\":16288:16325   */\n      iszero\n      tag_401\n      jumpi\n        /* \"#utility.yul\":16305:16323   */\n      tag_401\n      tag_991\n      jump\t// in\n        /* \"#utility.yul\":16949:17307   */\n    tag_992:\n        /* \"#utility.yul\":17049:17055   */\n      dup2\n        /* \"#utility.yul\":17044:17047   */\n      dup4\n        /* \"#utility.yul\":17037:17056   */\n      mstore\n        /* \"#utility.yul\":17019:17022   */\n      0x00\n        /* \"#utility.yul\":17079:17145   */\n      0x07ffffffffffffffffffffffffffffffffffffffffffffffffffffffffffffff\n        /* \"#utility.yul\":17071:17077   */\n      dup4\n        /* \"#utility.yul\":17068:17146   */\n      gt\n        /* \"#utility.yul\":17065:17163   */\n      iszero\n      tag_1104\n      jumpi\n        /* \"#utility.yul\":17159:17160   */\n      0x00\n        /* \"#utility.yul\":17156:17157   */\n      dup1\n        /* \"#utility.yul\":17149:17161   */\n      revert\n        /* \"#utility.yul\":17065:17163   */\n    tag_1104:\n        /* \"#utility.yul\":17195:17201   */\n      dup3\n        /* \"#utility.yul\":17192:17193   */\n      0x05\n        /* \"#utility.yul\":17188:17202   */\n      shl\n        /* \"#utility.yul\":17247:17255   */\n      dup1\n        /* \"#utility.yul\":17240:17245   */\n      dup4\n        /* \"#utility.yul\":17233:17237   */\n      0x20\n        /* \"#utility.yul\":17228:17231   */\n      dup8\n        /* \"#utility.yul\":17224:17238   */\n      add\n        /* \"#utility.yul\":17211:17256   */\n      calldatacopy\n        /* \"#utility.yul\":17276:17294   */\n      swap4\n      swap1\n      swap4\n      add\n        /* \"#utility.yul\":17296:17300   */\n      0x20\n        /* \"#utility.yul\":17272:17301   */\n      add\n      swap4\n        /* \"#utility.yul\":16949:17307   */\n      swap3\n      pop\n      pop\n      pop\n      jump\t// out\n        /* \"#utility.yul\":17312:17918   */\n    tag_703:\n        /* \"#utility.yul\":17607:17651   */\n      tag_1106\n        /* \"#utility.yul\":17641:17650   */\n      dup2\n        /* \"#utility.yul\":17633:17639   */\n      dup9\n        /* \"#utility.yul\":17607:17651   */\n      tag_989\n      jump\t// in\n    tag_1106:\n        /* \"#utility.yul\":17687:17690   */\n      0xa0\n        /* \"#utility.yul\":17682:17684   */\n      0x20\n        /* \"#utility.yul\":17671:17680   */\n      dup3\n        /* \"#utility.yul\":17667:17685   */\n      add\n        /* \"#utility.yul\":17660:17691   */\n      mstore\n        /* \"#utility.yul\":17588:17592   */\n      0x00\n        /* \"#utility.yul\":17708:17782   */\n      tag_1107\n        /* \"#utility.yul\":17777:17780   */\n      0xa0\n        /* \"#utility.yul\":17766:17775   */\n      dup4\n        /* \"#utility.yul\":17762:17781   */\n      add\n        /* \"#utility.yul\":17754:17760   */\n      dup8\n        /* \"#utility.yul\":17746:17752   */\n      dup10\n        /* \"#utility.yul\":17708:17782   */\n      tag_992\n      jump\t// in\n    tag_1107:\n        /* \"#utility.yul\":17813:17815   */\n      0x40\n        /* \"#utility.yul\":17798:17816   */\n      dup4\n      add\n        /* \"#utility.yul\":17791:17825   */\n      swap6\n      swap1\n      swap6\n      mstore\n      pop\n        /* \"#utility.yul\":17856:17858   */\n      0x60\n        /* \"#utility.yul\":17841:17859   */\n      dup2\n      add\n        /* \"#utility.yul\":17834:17868   */\n      swap3\n      swap1\n      swap3\n      mstore\n        /* \"#utility.yul\":17899:17902   */\n      0x80\n        /* \"#utility.yul\":17884:17903   */\n      swap1\n      swap2\n      add\n        /* \"#utility.yul\":17877:17912   */\n      mstore\n        /* \"#utility.yul\":17700:17782   */\n      swap4\n        /* \"#utility.yul\":17312:17918   */\n      swap3\n      pop\n      pop\n      pop\n      jump\t// out\n        /* \"#utility.yul\":18630:18918   */\n    tag_752:\n        /* \"#utility.yul\":18819:18821   */\n      0x20\n        /* \"#utility.yul\":18808:18817   */\n      dup2\n        /* \"#utility.yul\":18801:18822   */\n      mstore\n        /* \"#utility.yul\":18782:18786   */\n      0x00\n        /* \"#utility.yul\":18839:18912   */\n      tag_1111\n        /* \"#utility.yul\":18908:18910   */\n      0x20\n        /* \"#utility.yul\":18897:18906   */\n      dup4\n        /* \"#utility.yul\":18893:18911   */\n      add\n        /* \"#utility.yul\":18885:18891   */\n      dup5\n        /* \"#utility.yul\":18877:18883   */\n      dup7\n        /* \"#utility.yul\":18839:18912   */\n      tag_992\n      jump\t// in\n    tag_1111:\n        /* \"#utility.yul\":18831:18912   */\n      swap5\n        /* \"#utility.yul\":18630:18918   */\n      swap4\n      pop\n      pop\n      pop\n      pop\n      jump\t// out\n        /* \"#utility.yul\":19613:19797   */\n    tag_788:\n        /* \"#utility.yul\":19683:19689   */\n      0x00\n        /* \"#utility.yul\":19736:19738   */\n      0x20\n        /* \"#utility.yul\":19724:19733   */\n      dup3\n        /* \"#utility.yul\":19715:19722   */\n      dup5\n        /* \"#utility.yul\":19711:19734   */\n      sub\n        /* \"#utility.yul\":19707:19739   */\n      slt\n        /* \"#utility.yul\":19704:19756   */\n      iszero\n      tag_1115\n      jumpi\n        /* \"#utility.yul\":19752:19753   */\n      0x00\n        /* \"#utility.yul\":19749:19750   */\n      dup1\n        /* \"#utility.yul\":19742:19754   */\n      revert\n        /* \"#utility.yul\":19704:19756   */\n    tag_1115:\n      pop\n        /* \"#utility.yul\":19775:19791   */\n      mload\n      swap2\n        /* \"#utility.yul\":19613:19797   */\n      swap1\n      pop\n      jump\t// out\n        /* \"#utility.yul\":20890:21169   */\n    tag_908:\n        /* \"#utility.yul\":21064:21066   */\n      0x40\n        /* \"#utility.yul\":21049:21067   */\n      dup2\n      add\n        /* \"#utility.yul\":21076:21120   */\n      tag_1120\n        /* \"#utility.yul\":21053:21062   */\n      dup3\n        /* \"#utility.yul\":21102:21108   */\n      dup6\n        /* \"#utility.yul\":21076:21120   */\n      tag_989\n      jump\t// in\n    tag_1120:\n        /* \"#utility.yul\":21156:21162   */\n      dup3\n        /* \"#utility.yul\":21151:21153   */\n      0x20\n        /* \"#utility.yul\":21140:21149   */\n      dup4\n        /* \"#utility.yul\":21136:21154   */\n      add\n        /* \"#utility.yul\":21129:21163   */\n      mstore\n        /* \"#utility.yul\":20890:21169   */\n      swap4\n      swap3\n      pop\n      pop\n      pop\n      jump\t// out\n        /* \"#utility.yul\":22202:22706   */\n    tag_968:\n        /* \"#utility.yul\":22454:22457   */\n      0xa0\n        /* \"#utility.yul\":22439:22458   */\n      dup2\n      add\n        /* \"#utility.yul\":22467:22511   */\n      tag_1125\n        /* \"#utility.yul\":22443:22452   */\n      dup3\n        /* \"#utility.yul\":22493:22499   */\n      dup9\n        /* \"#utility.yul\":22467:22511   */\n      tag_989\n      jump\t// in\n    tag_1125:\n        /* \"#utility.yul\":22547:22553   */\n      dup6\n        /* \"#utility.yul\":22542:22544   */\n      0x20\n        /* \"#utility.yul\":22531:22540   */\n      dup4\n        /* \"#utility.yul\":22527:22545   */\n      add\n        /* \"#utility.yul\":22520:22554   */\n      mstore\n        /* \"#utility.yul\":22590:22596   */\n      dup5\n        /* \"#utility.yul\":22585:22587   */\n      0x40\n        /* \"#utility.yul\":22574:22583   */\n      dup4\n        /* \"#utility.yul\":22570:22588   */\n      add\n        /* \"#utility.yul\":22563:22597   */\n      mstore\n        /* \"#utility.yul\":22633:22639   */\n      dup4\n        /* \"#utility.yul\":22628:22630   */\n      0x60\n        /* \"#utility.yul\":22617:22626   */\n      dup4\n        /* \"#utility.yul\":22613:22631   */\n      add\n        /* \"#utility.yul\":22606:22640   */\n      mstore\n        /* \"#utility.yul\":22691:22697   */\n      dup3\n        /* \"#utility.yul\":22684:22698   */\n      iszero\n        /* \"#utility.yul\":22677:22699   */\n      iszero\n        /* \"#utility.yul\":22671:22674   */\n      0x80\n        /* \"#utility.yul\":22660:22669   */\n      dup4\n        /* \"#utility.yul\":22656:22675   */\n      add\n        /* \"#utility.yul\":22649:22700   */\n      mstore\n        /* \"#utility.yul\":22202:22706   */\n      swap7\n      swap6\n      pop\n      pop\n      pop\n      pop\n      pop\n      pop\n      jump\t// out\n    stop\n    data_cb864c43dd5d441bb6271f424f11befa622c032dfd374d226e26fbbdb782b8f8 a49807205ce4d355092ef5a8a18f56e8913cf4a201fbe287825b095693c21775\n\n    auxdata: 0xa26469706673582212202c4d311a334564dde9b11e214ddc7c4021de138fa42e6a3860c90e4c0ce2e88f64736f6c63430008190033\n}\n",
    "bytecode": {
      "linkReferences": {},
      "object": "608060405262ed4e006002556a0422ca8b0a00a42500000060035565048c2739500060045534801561002f575f80fd5b5060405161442138038061442183398101604081905261004e916102a3565b600180555f5b82518110156101a4576100885f801b84838151811061007557610075610374565b60200260200101516101cb60201b60201c565b506100bf7fa49807205ce4d355092ef5a8a18f56e8913cf4a201fbe287825b095693c2177584838151811061007557610075610374565b506100f67f65d7a28e3265b37a6474929f336521b332c1681b933f6cb9f3376673440d862a84838151811061007557610075610374565b5061012d7fc806897caf4fd5068191157e44d3988e43139a37e0b97b6793e1ed118414060484838151811061007557610075610374565b506101647ff60566c40710959d8d30b6067ce3c53c757bec78eecb0e46b83c7f8194ffae3784838151811061007557610075610374565b5061019b7f78c90eb9e475048b483a290aee04b5fe48355537c3623c7637b17d3bed71c6ed84838151811061007557610075610374565b50600101610054565b50600780546001600160a01b0319166001600160a01b039290921691909117905550610388565b5f828152602081815260408083206001600160a01b038516845290915281205460ff1661026b575f838152602081815260408083206001600160a01b03861684529091529020805460ff191660011790556102233390565b6001600160a01b0316826001600160a01b0316847f2f8788117e7eff1d82e926ec794901d17c78024a50270940304540a733656f0d60405160405180910390a450600161026e565b505f5b92915050565b634e487b7160e01b5f52604160045260245ffd5b80516001600160a01b038116811461029e575f80fd5b919050565b5f80604083850312156102b4575f80fd5b82516001600160401b03808211156102ca575f80fd5b818501915085601f8301126102dd575f80fd5b81516020828211156102f1576102f1610274565b8160051b604051601f19603f8301168101818110868211171561031657610316610274565b604052928352818301935084810182019289841115610333575f80fd5b948201945b838610156103585761034986610288565b85529482019493820193610338565b96506103679050878201610288565b9450505050509250929050565b634e487b7160e01b5f52603260045260245ffd5b61408c806103955f395ff3fe608060405260043610610438575f3560e01c8063885f502911610237578063b758aeaa1161013c578063e340b783116100b7578063ee947a7c11610087578063f5f69af21161006d578063f5f69af214610d2a578063f6326fb314610d49578063f688bcfb14610d51575f80fd5b8063ee947a7c14610cf6578063f29b223914610d0b575f80fd5b8063e340b78314610c6f578063e399067f14610c84578063e63ab1e914610c98578063e9fe0c7814610ccb575f80fd5b8063d830d5cc1161010c578063e02f6aca116100f2578063e02f6aca14610c08578063e043b2b214610c27578063e15e23c114610c5a575f80fd5b8063d830d5cc14610bd5578063da8d5add14610bf4575f80fd5b8063b758aeaa14610b64578063bda821e814610b83578063c771c39014610b97578063d547741f14610bb6575f80fd5b806397d9e5b4116101cc578063a2bdedf41161019c578063b2118a8d11610182578063b2118a8d14610b12578063b2b77ae214610b31578063b65ba94b14610b4f575f80fd5b8063a2bdedf414610a86578063a59aa5a614610aa5575f80fd5b806397d9e5b414610a2a5780639ddc391214610a3f5780639e657e3314610a54578063a217fddf14610a73575f80fd5b806389bad0a61161020757806389bad0a6146109955780638b713b2e146109b457806391d14854146109c957806393055c4314610a0b575f80fd5b8063885f5029146108e3578063886d589d14610916578063899aa9911461094157806389a3027114610956575f80fd5b806341debf1f1161033d57806364021b13116102d257806372e55399116102a2578063762e1c7311610288578063762e1c731461088657806376c1d3db146108a5578063867d099a146108c4575f80fd5b806372e553991461084757806375b238fc14610866575f80fd5b806364021b13146107ed5780636426be48146107f55780636c6ff56c146108145780636ec2399514610828575f80fd5b806353d6fd591161030d57806353d6fd5914610772578063588583a0146107915780635e2c19db146107a65780636068d6cb146107d4575f80fd5b806341debf1f146106bb57806347af19aa146106da5780634e43603a146106f957806351fb012d14610753575f80fd5b806327175b23116103cd5780632f2ff15d1161039d57806336568abe1161038357806336568abe146106595780633ac43970146106785780633af32abf1461068d575f80fd5b80632f2ff15d1461060f5780633408567c1461062e575f80fd5b806327175b231461059b578063275991d2146105b05780632a5bf6d2146105c45780632e1a7d4d146105f0575f80fd5b80630c016ad5116104085780630c016ad5146105055780631c5aeef714610538578063246d47b71461054d578063248a9ca31461056d575f80fd5b806301ffc9a71461044357806304c68af014610477578063052d9e7e146104b057806308f43333146104d1575f80fd5b3661043f57005b5f80fd5b34801561044e575f80fd5b5061046261045d366004613a76565b610d70565b60405190151581526020015b60405180910390f35b348015610482575f80fd5b506104a2610491366004613abf565b600e6020525f908152604090205481565b60405190815260200161046e565b3480156104bb575f80fd5b506104cf6104ca366004613ae5565b610da6565b005b3480156104dc575f80fd5b506104f06104eb366004613b00565b610dda565b60405161046e99989796959493929190613b5c565b348015610510575f80fd5b506104a27ff60566c40710959d8d30b6067ce3c53c757bec78eecb0e46b83c7f8194ffae3781565b348015610543575f80fd5b506104a260045481565b348015610558575f80fd5b50600554610462906301000000900460ff1681565b348015610578575f80fd5b506104a2610587366004613bab565b5f9081526020819052604090206001015490565b3480156105a6575f80fd5b506104a260135481565b3480156105bb575f80fd5b506104cf610e4e565b3480156105cf575f80fd5b506105e36105de366004613abf565b610f45565b60405161046e9190613bc2565b3480156105fb575f80fd5b506104cf61060a366004613bab565b611053565b34801561061a575f80fd5b506104cf610629366004613c68565b611454565b348015610639575f80fd5b506104a2610648366004613abf565b600b6020525f908152604090205481565b348015610664575f80fd5b506104cf610673366004613c68565b61147e565b348015610683575f80fd5b506104a260175481565b348015610698575f80fd5b506104626106a7366004613abf565b60096020525f908152604090205460ff1681565b3480156106c6575f80fd5b506104cf6106d5366004613cda565b6114b6565b3480156106e5575f80fd5b506104cf6106f4366004613cda565b611666565b348015610704575f80fd5b50610718610713366004613abf565b6117d4565b604080519889526020890197909752958701949094526060860192909252608085015260a084015260c083015260e08201526101000161046e565b34801561075e575f80fd5b506005546104629062010000900460ff1681565b34801561077d575f80fd5b506104cf61078c366004613d41565b611aa3565b34801561079c575f80fd5b506104a260065481565b3480156107b1575f80fd5b506104626107c0366004613abf565b600a6020525f908152604090205460ff1681565b3480156107df575f80fd5b506005546104629060ff1681565b6104cf611b19565b348015610800575f80fd5b506104cf61080f366004613d76565b611bd7565b34801561081f575f80fd5b506104cf611c66565b348015610833575f80fd5b506104cf610842366004613b00565b611d82565b348015610852575f80fd5b506104cf610861366004613d92565b611e5b565b348015610871575f80fd5b506104a25f8051602061403783398151915281565b348015610891575f80fd5b506104cf6108a0366004613b00565b61238d565b3480156108b0575f80fd5b506104cf6108bf366004613bab565b61245c565b3480156108cf575f80fd5b506104cf6108de366004613dd1565b6125c2565b3480156108ee575f80fd5b506104a27f78c90eb9e475048b483a290aee04b5fe48355537c3623c7637b17d3bed71c6ed81565b348015610921575f80fd5b506104a2610930366004613abf565b600d6020525f908152604090205481565b34801561094c575f80fd5b506104a260125481565b348015610961575f80fd5b5061097d73833589fcd6edb6e08f4c7c32d4f71b54bda0291381565b6040516001600160a01b03909116815260200161046e565b3480156109a0575f80fd5b506104cf6109af366004613abf565b612715565b3480156109bf575f80fd5b506104a260145481565b3480156109d4575f80fd5b506104626109e3366004613c68565b5f918252602082815260408084206001600160a01b0393909316845291905290205460ff1690565b348015610a16575f80fd5b506104cf610a25366004613bab565b6127c7565b348015610a35575f80fd5b506104a260185481565b348015610a4a575f80fd5b506104a260035481565b348015610a5f575f80fd5b5061097d610a6e366004613bab565b61298c565b348015610a7e575f80fd5b506104a25f81565b348015610a91575f80fd5b5061097d610aa0366004613bab565b6129b4565b348015610ab0575f80fd5b50610ab96129c3565b604080519c8d5260208d019b909b52998b019890985260608a0196909652608089019490945260a088019290925260c087015260e08601526101008501526101208401526101408301526101608201526101800161046e565b348015610b1d575f80fd5b506104cf610b2c366004613e20565b612a94565b348015610b3c575f80fd5b5060055461046290610100900460ff1681565b348015610b5a575f80fd5b506104a260165481565b348015610b6f575f80fd5b506104cf610b7e366004613cda565b612bb4565b348015610b8e575f80fd5b506104cf612d57565b348015610ba2575f80fd5b506104cf610bb1366004613bab565b612e34565b348015610bc1575f80fd5b506104cf610bd0366004613c68565b612e80565b348015610be0575f80fd5b506104cf610bef366004613bab565b612ea4565b348015610bff575f80fd5b506104cf612fe5565b348015610c13575f80fd5b5061097d610c22366004613bab565b61316f565b348015610c32575f80fd5b506104a27fc806897caf4fd5068191157e44d3988e43139a37e0b97b6793e1ed118414060481565b348015610c65575f80fd5b506104a260195481565b348015610c7a575f80fd5b506104a260155481565b348015610c8f575f80fd5b506104cf61317e565b348015610ca3575f80fd5b506104a27f65d7a28e3265b37a6474929f336521b332c1681b933f6cb9f3376673440d862a81565b348015610cd6575f80fd5b506104a2610ce5366004613abf565b600c6020525f908152604090205481565b348015610d01575f80fd5b506104a260025481565b348015610d16575f80fd5b5060075461097d906001600160a01b031681565b348015610d35575f80fd5b506104cf610d44366004613e59565b6132b9565b6104cf613342565b348015610d5c575f80fd5b506104cf610d6b366004613bab565b6134a2565b5f6001600160e01b03198216637965db0b60e01b1480610da057506301ffc9a760e01b6001600160e01b03198316145b92915050565b5f80516020614037833981519152610dbd81613685565b5060058054911515620100000262ff000019909216919091179055565b6008602052815f5260405f208181548110610df3575f80fd5b5f91825260209091206006909102018054600182015460028301546003840154600485015460059095015460ff9485169750929550909381841693610100830481169362010000840482169363010000009004909116919089565b610e5661368f565b335f908152600b602052604090205480610ea45760405162461bcd60e51b815260206004820152600a6024820152694e6f207574696c69747960b01b60448201526064015b60405180910390fd5b335f818152600b60205260408120819055610ec291908360016136b9565b8060185f828254610ed39190613e8c565b9091555050335f908152600d602052604081208054839290610ef6908490613e8c565b909155505060405133907f997d2ec09b086de73d509bbc4ad2b52fd7e2338024464bede93a41abd6ccdc3890610f31905f9085904290613e9f565b60405180910390a250610f4360018055565b565b6001600160a01b0381165f908152600860209081526040808320805482518185028101850190935280835260609492939192909184015b82821015611048575f84815260209020604080516101208101909152600684029091018054829060ff166001811115610fb757610fb7613b28565b6001811115610fc857610fc8613b28565b815260018281015460208084019190915260028401546040840152600384015460ff808216151560608601526101008083048216151560808701526201000083048216151560a0870152630100000090920416151560c0850152600485015460e08501526005909401549390920192909252918352929092019101610f7c565b505050509050919050565b61105b61368f565b600554610100900460ff16156110b35760405162461bcd60e51b815260206004820152601260248201527f5769746864726177616c732070617573656400000000000000000000000000006044820152606401610e9b565b335f9081526008602052604081208054839081106110d3576110d3613ebe565b5f9182526020909120600690910201600381015490915060ff161561113a5760405162461bcd60e51b815260206004820152601160248201527f416c72656164792077697468647261776e0000000000000000000000000000006044820152606401610e9b565b600254816002015461114c9190613e8c565b4210158061116357506003810154610100900460ff165b8061118c57506005546301000000900460ff16801561118c5750600381015462010000900460ff165b6111c95760405162461bcd60e51b815260206004820152600e60248201526d11195c1bdcda5d081b1bd8dad95960921b6044820152606401610e9b565b60038101805460ff1916600117905542600482015560058101545f825460ff1660018111156111fa576111fa613b28565b036112b857816001015460145f8282546112149190613e8c565b909155505060018201545f90339061122d908490613e8c565b6040515f81818185875af1925050503d805f8114611266576040519150601f19603f3d011682016040523d82523d5f602084013e61126b565b606091505b50509050806112b25760405162461bcd60e51b8152602060048201526013602482015272115512081d1c985b9cd9995c8819985a5b1959606a1b6044820152606401610e9b565b5061138b565b6001825460ff1660018111156112d0576112d0613b28565b0361138b57816001015460155f8282546112ea9190613e8c565b9091555050600182015473833589fcd6edb6e08f4c7c32d4f71b54bda029139063a9059cbb90339061131d908590613e8c565b6040516001600160e01b031960e085901b1681526001600160a01b03909216600483015260248201526044016020604051808303815f875af1158015611365573d5f803e3d5ffd5b505050506040513d601f19601f820116820180604052508101906113899190613ed2565b505b335f908152600a602052604090205460ff166113fb576010805460018181019092557f1b6847dc741a1b0cd08d278845f9d819d87b734759afb55fe2de5cb82a9ae6720180546001600160a01b031916339081179091555f908152600a60205260409020805460ff191690911790555b8154600183015460405133927fcb034b37ef3764745c35bafecd525367bcf312e9010239e6aeebbe6bcf57727f9261143e9260ff90921691869042908a90613eed565b60405180910390a2505061145160018055565b50565b5f8281526020819052604090206001015461146e81613685565b61147883836138fc565b50505050565b6001600160a01b03811633146114a75760405163334bd91960e11b815260040160405180910390fd5b6114b182826139a3565b505050565b5f805160206140378339815191526114cd81613685565b8382146115075760405162461bcd60e51b815260206004820152600860248201526709ad2e6dac2e8c6d60c31b6044820152606401610e9b565b5f805b85811015611606575f85858381811061152557611525613ebe565b90506020020135116115625760405162461bcd60e51b8152600401610e9b906020808252600490820152635a65726f60e01b604082015260600190565b84848281811061157457611574613ebe565b90506020020135600c5f89898581811061159057611590613ebe565b90506020020160208101906115a59190613abf565b6001600160a01b03166001600160a01b031681526020019081526020015f205f8282546115d29190613e8c565b9091555085905084828181106115ea576115ea613ebe565b90506020020135826115fc9190613e8c565b915060010161150a565b506017548111156116485760405162461bcd60e51b815260206004820152600c60248201526b115e18d959591cc81c1bdbdb60a21b6044820152606401610e9b565b8060175f8282546116599190613f1d565b9091555050505050505050565b5f8051602061403783398151915261167d81613685565b8382146116b75760405162461bcd60e51b815260206004820152600860248201526709ad2e6dac2e8c6d60c31b6044820152606401610e9b565b5f5b848110156117cc578383828181106116d3576116d3613ebe565b90506020020160208101906116e89190613ae5565b60095f8888858181106116fd576116fd613ebe565b90506020020160208101906117129190613abf565b6001600160a01b0316815260208101919091526040015f20805460ff191691151591909117905585858281811061174b5761174b613ebe565b90506020020160208101906117609190613abf565b6001600160a01b03167f995d2434d36c9bceaab42c56efe51e8ffe41fd11cabefd9e2cb83700d8b2035e85858481811061179c5761179c613ebe565b90506020020160208101906117b19190613ae5565b604051901515815260200160405180910390a26001016116b9565b505050505050565b6001600160a01b0381165f9081526008602052604081208190819081908190819081908190815b8154811015611a6a575f82828154811061181757611817613ebe565b5f91825260209091206006909102015460ff16600181111561183b5761183b613b28565b036119355781818154811061185257611852613ebe565b905f5260205f209060060201600101548a61186d9190613e8c565b995081818154811061188157611881613ebe565b5f91825260209091206003600690920201015460ff16156118cc578181815481106118ae576118ae613ebe565b905f5260205f20906006020160010154886118c99190613e8c565b97505b8181815481106118de576118de613ebe565b905f5260205f20906006020160030160039054906101000a900460ff16156119305781818154811061191257611912613ebe565b905f5260205f209060060201600101548461192d9190613e8c565b93505b611a62565b600182828154811061194957611949613ebe565b5f91825260209091206006909102015460ff16600181111561196d5761196d613b28565b03611a625781818154811061198457611984613ebe565b905f5260205f209060060201600101548961199f9190613e8c565b98508181815481106119b3576119b3613ebe565b5f91825260209091206003600690920201015460ff16156119fe578181815481106119e0576119e0613ebe565b905f5260205f20906006020160010154876119fb9190613e8c565b96505b818181548110611a1057611a10613ebe565b905f5260205f20906006020160030160039054906101000a900460ff1615611a6257818181548110611a4457611a44613ebe565b905f5260205f2090600602016001015483611a5f9190613e8c565b92505b6001016117fb565b50506001600160a01b039098165f908152600b6020908152604080832054600c9092529091205497999698959794969095919350909150565b5f80516020614037833981519152611aba81613685565b6001600160a01b0383165f81815260096020908152604091829020805460ff191686151590811790915591519182527f995d2434d36c9bceaab42c56efe51e8ffe41fd11cabefd9e2cb83700d8b2035e910160405180910390a2505050565b7ff60566c40710959d8d30b6067ce3c53c757bec78eecb0e46b83c7f8194ffae37611b4381613685565b5f3411611b805760405162461bcd60e51b815260206004820152600b60248201526a139bc8115512081cd95b9d60aa1b6044820152606401610e9b565b3460165f828254611b919190613e8c565b909155505060405133907f8bafec96fcffb6f12596b4635c76397b7bc1f363b22c49c13136b63677323dcc90611bcc905f9034904290613e9f565b60405180910390a250565b7f65d7a28e3265b37a6474929f336521b332c1681b933f6cb9f3376673440d862a611c0181613685565b60058054831515610100810261ff001987151590811661ffff1990941693909317179092556040805191825260208201929092527fac1664632d6278432aa05a6afc0aa83e5ea08e8df9a1436736daa5d6283211c091015b60405180910390a1505050565b611c6e61368f565b335f908152600c602052604090205480611cb75760405162461bcd60e51b815260206004820152600a6024820152694e6f207574696c69747960b01b6044820152606401610e9b565b335f818152600c6020526040808220919091555163a9059cbb60e01b815260048101919091526024810182905273833589fcd6edb6e08f4c7c32d4f71b54bda029139063a9059cbb906044016020604051808303815f875af1158015611d1f573d5f803e3d5ffd5b505050506040513d601f19601f82011682018060405250810190611d439190613ed2565b50336001600160a01b03167f6914793c7a82461acec66c7de7fdbbbf1f825c26bc2fe939b61f0e4f8964c2b560018342604051610f3193929190613e9f565b5f80516020614037833981519152611d9981613685565b5f8211611dd15760405162461bcd60e51b8152600401610e9b906020808252600490820152635a65726f60e01b604082015260600190565b601654821115611e125760405162461bcd60e51b815260206004820152600c60248201526b115e18d959591cc81c1bdbdb60a21b6044820152606401610e9b565b6001600160a01b0383165f908152600b602052604081208054849290611e39908490613e8c565b925050819055508160165f828254611e519190613f1d565b9091555050505050565b611e6361368f565b600554610100900460ff1615611ebb5760405162461bcd60e51b815260206004820152601260248201527f5769746864726177616c732070617573656400000000000000000000000000006044820152606401610e9b565b5f805f805f5b8581101561219c57335f908152600860205260408120888884818110611ee957611ee9613ebe565b9050602002013581548110611f0057611f00613ebe565b5f9182526020909120600690910201600381015490915060ff1615611f675760405162461bcd60e51b815260206004820152601160248201527f416c72656164792077697468647261776e0000000000000000000000000000006044820152606401610e9b565b6002548160020154611f799190613e8c565b42101580611f9057506003810154610100900460ff165b80611fb957506005546301000000900460ff168015611fb95750600381015462010000900460ff165b611ff65760405162461bcd60e51b815260206004820152600e60248201526d11195c1bdcda5d081b1bd8dad95960921b6044820152606401610e9b565b60038101805460ff1916600117905542600482015560058101545f825460ff16600181111561202757612027613b28565b0361206857816001015460145f8282546120419190613e8c565b909155505060018201546120559088613e8c565b96506120618187613e8c565b95506120bd565b6001825460ff16600181111561208057612080613b28565b036120bd57816001015460155f82825461209a9190613e8c565b909155505060018201546120ae9086613e8c565b94506120ba8185613e8c565b93505b335f908152600a602052604090205460ff1661212d576010805460018181019092557f1b6847dc741a1b0cd08d278845f9d819d87b734759afb55fe2de5cb82a9ae6720180546001600160a01b031916339081179091555f908152600a60205260409020805460ff191690911790555b8154600183015433917fcb034b37ef3764745c35bafecd525367bcf312e9010239e6aeebbe6bcf57727f9160ff9091169084428e8e8a81811061217257612172613ebe565b9050602002013560405161218a959493929190613eed565b60405180910390a25050600101611ec1565b505f6121a88486613e8c565b111561228c575f336121ba8587613e8c565b6040515f81818185875af1925050503d805f81146121f3576040519150601f19603f3d011682016040523d82523d5f602084013e6121f8565b606091505b505090508061223f5760405162461bcd60e51b8152602060048201526013602482015272115512081d1c985b9cd9995c8819985a5b1959606a1b6044820152606401610e9b565b336001600160a01b03167fbf06e98fe211a4b82f625232ab1c7a75caea5e0d624bc267578d6f22fce788c35f898989894260405161228296959493929190613f79565b60405180910390a2505b5f6122978284613e8c565b111561237c5773833589fcd6edb6e08f4c7c32d4f71b54bda0291363a9059cbb336122c28486613e8c565b6040516001600160e01b031960e085901b1681526001600160a01b03909216600483015260248201526044016020604051808303815f875af115801561230a573d5f803e3d5ffd5b505050506040513d601f19601f8201168201806040525081019061232e9190613ed2565b50336001600160a01b03167fbf06e98fe211a4b82f625232ab1c7a75caea5e0d624bc267578d6f22fce788c36001888886864260405161237396959493929190613f79565b60405180910390a25b5050505061238960018055565b5050565b5f805160206140378339815191526123a481613685565b5f82116123dc5760405162461bcd60e51b8152600401610e9b906020808252600490820152635a65726f60e01b604082015260600190565b60175482111561241d5760405162461bcd60e51b815260206004820152600c60248201526b115e18d959591cc81c1bdbdb60a21b6044820152606401610e9b565b6001600160a01b0383165f908152600c602052604081208054849290612444908490613e8c565b925050819055508160175f828254611e519190613f1d565b7f78c90eb9e475048b483a290aee04b5fe48355537c3623c7637b17d3bed71c6ed61248681613685565b61248e61368f565b6007546001600160a01b03166124e65760405162461bcd60e51b815260206004820152601760248201527f5574696c6974792061646472657373206e6f74207365740000000000000000006044820152606401610e9b565b60075460405163a9059cbb60e01b81526001600160a01b0390911660048201526024810183905273833589fcd6edb6e08f4c7c32d4f71b54bda029139063a9059cbb906044016020604051808303815f875af1158015612548573d5f803e3d5ffd5b505050506040513d601f19601f8201168201806040525081019061256c9190613ed2565b506007546040516001600160a01b03909116907f9adbdc797aca3ce26a722598f00149b2328fd124444e6d0b10c4bdc7cfc38196906125b19060019086904290613e9f565b60405180910390a261238960018055565b7fc806897caf4fd5068191157e44d3988e43139a37e0b97b6793e1ed11841406046125ec81613685565b5f5b828110156126cb576001600160a01b0385165f90815260086020526040812085858481811061261f5761261f613ebe565b905060200201358154811061263657612636613ebe565b5f9182526020909120600690910201600381015490915060ff1615801561266757506003810154610100900460ff16155b6126b35760405162461bcd60e51b815260206004820152601a60248201527f416c726561647920756e6c6f636b65642f77697468647261776e0000000000006044820152606401610e9b565b600301805461ff0019166101001790556001016125ee565b50836001600160a01b03167f8b655a966f162e1d3686ea25cd61682331984ab5662b451deff96f12d716f45b8484604051612707929190613fb7565b60405180910390a250505050565b5f8051602061403783398151915261272c81613685565b6001600160a01b0382166127715760405162461bcd60e51b815260206004820152600c60248201526b5a65726f206164647265737360a01b6044820152606401610e9b565b600780546001600160a01b0319166001600160a01b0384169081179091556040519081527f1d6240e71a77c9e9d07d1d6ecbb9ea4274fcc8bc19adc5b05a3548ac7e40e189906020015b60405180910390a15050565b7f78c90eb9e475048b483a290aee04b5fe48355537c3623c7637b17d3bed71c6ed6127f181613685565b6127f961368f565b6007546001600160a01b03166128515760405162461bcd60e51b815260206004820152601760248201527f5574696c6974792061646472657373206e6f74207365740000000000000000006044820152606401610e9b565b478211156128a15760405162461bcd60e51b815260206004820152601460248201527f496e73756666696369656e742062616c616e63650000000000000000000000006044820152606401610e9b565b6007546040515f916001600160a01b03169084908381818185875af1925050503d805f81146128eb576040519150601f19603f3d011682016040523d82523d5f602084013e6128f0565b606091505b50509050806129375760405162461bcd60e51b8152602060048201526013602482015272115512081d1c985b9cd9995c8819985a5b1959606a1b6044820152606401610e9b565b6007546040516001600160a01b03909116907f9adbdc797aca3ce26a722598f00149b2328fd124444e6d0b10c4bdc7cfc381969061297a905f9087904290613e9f565b60405180910390a25061238960018055565b6010818154811061299b575f80fd5b5f918252602090912001546001600160a01b0316905081565b600f818154811061299b575f80fd5b6040516370a0823160e01b815230600482015247905f90819081908190819081908190819081908190819073833589fcd6edb6e08f4c7c32d4f71b54bda02913906370a0823190602401602060405180830381865afa158015612a28573d5f803e3d5ffd5b505050506040513d601f19601f82011682018060405250810190612a4c9190613fd2565b9a5060125499506013549850601454975060155496506016549550601754945060185493506019549250600f8054905091506010805490509050909192939495969798999a9b565b5f80516020614037833981519152612aab81613685565b6001600160a01b038316612af05760405162461bcd60e51b815260206004820152600c60248201526b5a65726f206164647265737360a01b6044820152606401610e9b565b60405163a9059cbb60e01b81526001600160a01b0384811660048301526024820184905285169063a9059cbb906044016020604051808303815f875af1158015612b3c573d5f803e3d5ffd5b505050506040513d601f19601f82011682018060405250810190612b609190613ed2565b50826001600160a01b0316846001600160a01b03167f8bbfbb5d7fcacf6fc74005cdede0635561638507f576c95f7f294c22141be2e584604051612ba691815260200190565b60405180910390a350505050565b5f80516020614037833981519152612bcb81613685565b838214612c055760405162461bcd60e51b815260206004820152600860248201526709ad2e6dac2e8c6d60c31b6044820152606401610e9b565b5f805b85811015612d04575f858583818110612c2357612c23613ebe565b9050602002013511612c605760405162461bcd60e51b8152600401610e9b906020808252600490820152635a65726f60e01b604082015260600190565b848482818110612c7257612c72613ebe565b90506020020135600b5f898985818110612c8e57612c8e613ebe565b9050602002016020810190612ca39190613abf565b6001600160a01b03166001600160a01b031681526020019081526020015f205f828254612cd09190613e8c565b909155508590508482818110612ce857612ce8613ebe565b9050602002013582612cfa9190613e8c565b9150600101612c08565b50601654811115612d465760405162461bcd60e51b815260206004820152600c60248201526b115e18d959591cc81c1bdbdb60a21b6044820152606401610e9b565b8060165f8282546116599190613f1d565b612d5f61368f565b335f908152600c602052604090205480612da85760405162461bcd60e51b815260206004820152600a6024820152694e6f207574696c69747960b01b6044820152606401610e9b565b335f818152600c6020526040812055612dc490600183816136b9565b8060195f828254612dd59190613e8c565b9091555050335f908152600e602052604081208054839290612df8908490613e8c565b909155505060405133907f997d2ec09b086de73d509bbc4ad2b52fd7e2338024464bede93a41abd6ccdc3890610f319060019085904290613e9f565b5f80516020614037833981519152612e4b81613685565b60028290556040518281527fc5e00a325524bc148ddc05bb642b804e9ae1dfc670c217ed3c4c6595f7427ef4906020016127bb565b5f82815260208190526040902060010154612e9a81613685565b61147883836139a3565b7ff60566c40710959d8d30b6067ce3c53c757bec78eecb0e46b83c7f8194ffae37612ece81613685565b5f8211612f0c5760405162461bcd60e51b815260206004820152600c60248201526b139bc81554d110c81cd95b9d60a21b6044820152606401610e9b565b6040516323b872dd60e01b81523360048201523060248201526044810183905273833589fcd6edb6e08f4c7c32d4f71b54bda02913906323b872dd906064016020604051808303815f875af1158015612f67573d5f803e3d5ffd5b505050506040513d601f19601f82011682018060405250810190612f8b9190613ed2565b508160175f828254612f9d9190613e8c565b909155505060405133907f8bafec96fcffb6f12596b4635c76397b7bc1f363b22c49c13136b63677323dcc90612fd99060019086904290613e9f565b60405180910390a25050565b5f80516020614037833981519152612ffc81613685565b6005546301000000900460ff16156130565760405162461bcd60e51b815260206004820152600f60248201527f416c726561647920656e61626c656400000000000000000000000000000000006044820152606401610e9b565b6005805463ff00000019166301000000179055426006555f5b600f54811015613138575f60085f600f848154811061309057613090613ebe565b5f9182526020808320909101546001600160a01b03168352820192909252604001812091505b815481101561312e578181815481106130d1576130d1613ebe565b5f91825260209091206003600690920201015460ff166131265760018282815481106130ff576130ff613ebe565b905f5260205f20906006020160030160026101000a81548160ff0219169083151502179055505b6001016130b6565b505060010161306f565b506040514281527f2388ceaed48d21bd0802856df41a22705f9046a67a817a047352aa3bbfe5c5d19060200160405180910390a150565b6011818154811061299b575f80fd5b61318661368f565b335f908152600b6020526040902054806131cf5760405162461bcd60e51b815260206004820152600a6024820152694e6f207574696c69747960b01b6044820152606401610e9b565b335f818152600b60205260408082208290555190919083908381818185875af1925050503d805f811461321d576040519150601f19603f3d011682016040523d82523d5f602084013e613222565b606091505b50509050806132695760405162461bcd60e51b8152602060048201526013602482015272115512081d1c985b9cd9995c8819985a5b1959606a1b6044820152606401610e9b565b336001600160a01b03167f6914793c7a82461acec66c7de7fdbbbf1f825c26bc2fe939b61f0e4f8964c2b55f84426040516132a693929190613e9f565b60405180910390a25050610f4360018055565b5f805160206140378339815191526132d081613685565b5f8360018111156132e3576132e3613b28565b036132f2576003829055613311565b600183600181111561330657613306613b28565b036133115760048290555b7f5d7976bccd4b396c1a1a0020032e62bf8a381bcffc61e69a13ea61761b7572188383604051611c59929190613fe9565b61334a61368f565b60055460ff161561338f5760405162461bcd60e51b815260206004820152600f60248201526e11195c1bdcda5d1cc81c185d5cd959608a1b6044820152606401610e9b565b5f34116133cc5760405162461bcd60e51b815260206004820152600b60248201526a139bc8115512081cd95b9d60aa1b6044820152606401610e9b565b600354346012546133dd9190613e8c565b11156134195760405162461bcd60e51b815260206004820152600b60248201526a10d85c081c995858da195960aa1b6044820152606401610e9b565b60055462010000900460ff161561347a57335f9081526009602052604090205460ff1661347a5760405162461bcd60e51b815260206004820152600f60248201526e139bdd081dda1a5d195b1a5cdd1959608a1b6044820152606401610e9b565b613486335f345f6136b9565b3460125f8282546134979190613e8c565b909155505060018055565b6134aa61368f565b60055460ff16156134ef5760405162461bcd60e51b815260206004820152600f60248201526e11195c1bdcda5d1cc81c185d5cd959608a1b6044820152606401610e9b565b5f811161352d5760405162461bcd60e51b815260206004820152600c60248201526b139bc81554d110c81cd95b9d60a21b6044820152606401610e9b565b6004548160135461353e9190613e8c565b111561357a5760405162461bcd60e51b815260206004820152600b60248201526a10d85c081c995858da195960aa1b6044820152606401610e9b565b60055462010000900460ff16156135db57335f9081526009602052604090205460ff166135db5760405162461bcd60e51b815260206004820152600f60248201526e139bdd081dda1a5d195b1a5cdd1959608a1b6044820152606401610e9b565b6040516323b872dd60e01b81523360048201523060248201526044810182905273833589fcd6edb6e08f4c7c32d4f71b54bda02913906323b872dd906064016020604051808303815f875af1158015613636573d5f803e3d5ffd5b505050506040513d601f19601f8201168201806040525081019061365a9190613ed2565b50613668336001835f6136b9565b8060135f8282546136799190613e8c565b90915550506001805550565b6114518133613a24565b6002600154036136b257604051633ee5aeb560e01b815260040160405180910390fd5b6002600155565b6001600160a01b0384165f90815260086020526040908190208151610120810190925290808560018111156136f0576136f0613b28565b815260208082018690524260408301525f606083018190526080830181905260a0830181905285151560c084015260e0830181905261010090920182905283546001818101865594835291208251600690920201805492939092839160ff199190911690838181111561376557613765613b28565b021790555060208281015160018381019190915560408085015160028501556060850151600385018054608088015160a089015160c08a015161ffff1990931694151561ff0019169490941761010091151582021763ffff00001916620100009415159490940263ff00000019169390931763010000009115159190910217905560e08601516004860155909401516005909301929092556001600160a01b0387165f90815260089091529190912054900361389e57600f805460018181019092557f8d1108e10bcb7c27dddfc02ed9d693a074039d026cf4ea4240b40f7d581ac8020180546001600160a01b0387166001600160a01b031991821681179092556011805493840181555f527f31ecc21a745e3968a04e9570e4425bc18fa8019c68028196b546d1669c200c6890920180549092161790555b6001600160a01b0384165f818152600860205260409020547f48916ac7f9777648255ab8645729ff3b5d20aa412a40fe81dac2433522eaa058908590859042906138ea90600190613f1d565b86604051612707959493929190614004565b5f828152602081815260408083206001600160a01b038516845290915281205460ff1661399c575f838152602081815260408083206001600160a01b03861684529091529020805460ff191660011790556139543390565b6001600160a01b0316826001600160a01b0316847f2f8788117e7eff1d82e926ec794901d17c78024a50270940304540a733656f0d60405160405180910390a4506001610da0565b505f610da0565b5f828152602081815260408083206001600160a01b038516845290915281205460ff161561399c575f838152602081815260408083206001600160a01b0386168085529252808320805460ff1916905551339286917ff6391f5c32d9c69d2a47ea670b442974b53935d1edc7fd64eb21e047a839171b9190a4506001610da0565b5f828152602081815260408083206001600160a01b038516845290915290205460ff166123895760405163e2517d3f60e01b81526001600160a01b038216600482015260248101839052604401610e9b565b5f60208284031215613a86575f80fd5b81356001600160e01b031981168114613a9d575f80fd5b9392505050565b80356001600160a01b0381168114613aba575f80fd5b919050565b5f60208284031215613acf575f80fd5b613a9d82613aa4565b8015158114611451575f80fd5b5f60208284031215613af5575f80fd5b8135613a9d81613ad8565b5f8060408385031215613b11575f80fd5b613b1a83613aa4565b946020939093013593505050565b634e487b7160e01b5f52602160045260245ffd5b60028110613b5857634e487b7160e01b5f52602160045260245ffd5b9052565b6101208101613b6b828c613b3c565b602082019990995260408101979097529415156060870152921515608086015290151560a0850152151560c084015260e083015261010090910152919050565b5f60208284031215613bbb575f80fd5b5035919050565b602080825282518282018190525f919060409081850190868401855b82811015613c5b578151613bf3858251613b3c565b8087015185880152858101518686015260608082015115159086015260808082015115159086015260a08082015115159086015260c08082015115159086015260e0808201519086015261010090810151908501526101209093019290850190600101613bde565b5091979650505050505050565b5f8060408385031215613c79575f80fd5b82359150613c8960208401613aa4565b90509250929050565b5f8083601f840112613ca2575f80fd5b50813567ffffffffffffffff811115613cb9575f80fd5b6020830191508360208260051b8501011115613cd3575f80fd5b9250929050565b5f805f8060408587031215613ced575f80fd5b843567ffffffffffffffff80821115613d04575f80fd5b613d1088838901613c92565b90965094506020870135915080821115613d28575f80fd5b50613d3587828801613c92565b95989497509550505050565b5f8060408385031215613d52575f80fd5b613d5b83613aa4565b91506020830135613d6b81613ad8565b809150509250929050565b5f8060408385031215613d87575f80fd5b8235613d5b81613ad8565b5f8060208385031215613da3575f80fd5b823567ffffffffffffffff811115613db9575f80fd5b613dc585828601613c92565b90969095509350505050565b5f805f60408486031215613de3575f80fd5b613dec84613aa4565b9250602084013567ffffffffffffffff811115613e07575f80fd5b613e1386828701613c92565b9497909650939450505050565b5f805f60608486031215613e32575f80fd5b613e3b84613aa4565b9250613e4960208501613aa4565b9150604084013590509250925092565b5f8060408385031215613e6a575f80fd5b823560028110613b1a575f80fd5b634e487b7160e01b5f52601160045260245ffd5b80820180821115610da057610da0613e78565b60608101613ead8286613b3c565b602082019390935260400152919050565b634e487b7160e01b5f52603260045260245ffd5b5f60208284031215613ee2575f80fd5b8151613a9d81613ad8565b60a08101613efb8288613b3c565b8560208301528460408301528360608301528260808301529695505050505050565b81810381811115610da057610da0613e78565b8183525f7f07ffffffffffffffffffffffffffffffffffffffffffffffffffffffffffffff831115613f60575f80fd5b8260051b80836020870137939093016020019392505050565b613f838188613b3c565b60a060208201525f613f9960a083018789613f30565b60408301959095525060608101929092526080909101529392505050565b602081525f613fca602083018486613f30565b949350505050565b5f60208284031215613fe2575f80fd5b5051919050565b60408101613ff78285613b3c565b8260208301529392505050565b60a081016140128288613b3c565b8560208301528460408301528360608301528215156080830152969550505050505056fea49807205ce4d355092ef5a8a18f56e8913cf4a201fbe287825b095693c21775a26469706673582212202c4d311a334564dde9b11e214ddc7c4021de138fa42e6a3860c90e4c0ce2e88f64736f6c63430008190033",
      "opcodes": "PUSH1 0x80 PUSH1 0x40 MSTORE PUSH3 0xED4E00 PUSH1 0x2 SSTORE PUSH11 0x422CA8B0A00A425000000 PUSH1 0x3 SSTORE PUSH6 0x48C27395000 PUSH1 0x4 SSTORE CALLVALUE DUP1 ISZERO PUSH2 0x2F JUMPI PUSH0 DUP1 REVERT JUMPDEST POP PUSH1 0x40 MLOAD PUSH2 0x4421 CODESIZE SUB DUP1 PUSH2 0x4421 DUP4 CODECOPY DUP2 ADD PUSH1 0x40 DUP2 SWAP1 MSTORE PUSH2 0x4E SWAP2 PUSH2 0x2A3 JUMP JUMPDEST PUSH1 0x1 DUP1 SSTORE PUSH0 JUMPDEST DUP3 MLOAD DUP2 LT ISZERO PUSH2 0x1A4 JUMPI PUSH2 0x88 PUSH0 DUP1 SHL DUP5 DUP4 DUP2 MLOAD DUP2 LT PUSH2 0x75 JUMPI PUSH2 0x75 PUSH2 0x374 JUMP JUMPDEST PUSH1 0x20 MUL PUSH1 0x20 ADD ADD MLOAD PUSH2 0x1CB PUSH1 0x20 SHL PUSH1 0x20 SHR JUMP JUMPDEST POP PUSH2 0xBF PUSH32 0xA49807205CE4D355092EF5A8A18F56E8913CF4A201FBE287825B095693C21775 DUP5 DUP4 DUP2 MLOAD DUP2 LT PUSH2 0x75 JUMPI PUSH2 0x75 PUSH2 0x374 JUMP JUMPDEST POP PUSH2 0xF6 PUSH32 0x65D7A28E3265B37A6474929F336521B332C1681B933F6CB9F3376673440D862A DUP5 DUP4 DUP2 MLOAD DUP2 LT PUSH2 0x75 JUMPI PUSH2 0x75 PUSH2 0x374 JUMP JUMPDEST POP PUSH2 0x12D PUSH32 0xC806897CAF4FD5068191157E44D3988E43139A37E0B97B6793E1ED1184140604 DUP5 DUP4 DUP2 MLOAD DUP2 LT PUSH2 0x75 JUMPI PUSH2 0x75 PUSH2 0x374 JUMP JUMPDEST POP PUSH2 0x164 PUSH32 0xF60566C40710959D8D30B6067CE3C53C757BEC78EECB0E46B83C7F8194FFAE37 DUP5 DUP4 DUP2 MLOAD DUP2 LT PUSH2 0x75 JUMPI PUSH2 0x75 PUSH2 0x374 JUMP JUMPDEST POP PUSH2 0x19B PUSH32 0x78C90EB9E475048B483A290AEE04B5FE48355537C3623C7637B17D3BED71C6ED DUP5 DUP4 DUP2 MLOAD DUP2 LT PUSH2 0x75 JUMPI PUSH2 0x75 PUSH2 0x374 JUMP JUMPDEST POP PUSH1 0x1 ADD PUSH2 0x54 JUMP JUMPDEST POP PUSH1 0x7 DUP1 SLOAD PUSH1 0x1 PUSH1 0x1 PUSH1 0xA0 SHL SUB NOT AND PUSH1 0x1 PUSH1 0x1 PUSH1 0xA0 SHL SUB SWAP3 SWAP1 SWAP3 AND SWAP2 SWAP1 SWAP2 OR SWAP1 SSTORE POP PUSH2 0x388 JUMP JUMPDEST PUSH0 DUP3 DUP2 MSTORE PUSH1 0x20 DUP2 DUP2 MSTORE PUSH1 0x40 DUP1 DUP4 KECCAK256 PUSH1 0x1 PUSH1 0x1 PUSH1 0xA0 SHL SUB DUP6 AND DUP5 MSTORE SWAP1 SWAP2 MSTORE DUP2 KECCAK256 SLOAD PUSH1 0xFF AND PUSH2 0x26B JUMPI PUSH0 DUP4 DUP2 MSTORE PUSH1 0x20 DUP2 DUP2 MSTORE PUSH1 0x40 DUP1 DUP4 KECCAK256 PUSH1 0x1 PUSH1 0x1 PUSH1 0xA0 SHL SUB DUP7 AND DUP5 MSTORE SWAP1 SWAP2 MSTORE SWAP1 KECCAK256 DUP1 SLOAD PUSH1 0xFF NOT AND PUSH1 0x1 OR SWAP1 SSTORE PUSH2 0x223 CALLER SWAP1 JUMP JUMPDEST PUSH1 0x1 PUSH1 0x1 PUSH1 0xA0 SHL SUB AND DUP3 PUSH1 0x1 PUSH1 0x1 PUSH1 0xA0 SHL SUB AND DUP5 PUSH32 0x2F8788117E7EFF1D82E926EC794901D17C78024A50270940304540A733656F0D PUSH1 0x40 MLOAD PUSH1 0x40 MLOAD DUP1 SWAP2 SUB SWAP1 LOG4 POP PUSH1 0x1 PUSH2 0x26E JUMP JUMPDEST POP PUSH0 JUMPDEST SWAP3 SWAP2 POP POP JUMP JUMPDEST PUSH4 0x4E487B71 PUSH1 0xE0 SHL PUSH0 MSTORE PUSH1 0x41 PUSH1 0x4 MSTORE PUSH1 0x24 PUSH0 REVERT JUMPDEST DUP1 MLOAD PUSH1 0x1 PUSH1 0x1 PUSH1 0xA0 SHL SUB DUP2 AND DUP2 EQ PUSH2 0x29E JUMPI PUSH0 DUP1 REVERT JUMPDEST SWAP2 SWAP1 POP JUMP JUMPDEST PUSH0 DUP1 PUSH1 0x40 DUP4 DUP6 SUB SLT ISZERO PUSH2 0x2B4 JUMPI PUSH0 DUP1 REVERT JUMPDEST DUP3 MLOAD PUSH1 0x1 PUSH1 0x1 PUSH1 0x40 SHL SUB DUP1 DUP3 GT ISZERO PUSH2 0x2CA JUMPI PUSH0 DUP1 REVERT JUMPDEST DUP2 DUP6 ADD SWAP2 POP DUP6 PUSH1 0x1F DUP4 ADD SLT PUSH2 0x2DD JUMPI PUSH0 DUP1 REVERT JUMPDEST DUP2 MLOAD PUSH1 0x20 DUP3 DUP3 GT ISZERO PUSH2 0x2F1 JUMPI PUSH2 0x2F1 PUSH2 0x274 JUMP JUMPDEST DUP2 PUSH1 0x5 SHL PUSH1 0x40 MLOAD PUSH1 0x1F NOT PUSH1 0x3F DUP4 ADD AND DUP2 ADD DUP2 DUP2 LT DUP7 DUP3 GT OR ISZERO PUSH2 0x316 JUMPI PUSH2 0x316 PUSH2 0x274 JUMP JUMPDEST PUSH1 0x40 MSTORE SWAP3 DUP4 MSTORE DUP2 DUP4 ADD SWAP4 POP DUP5 DUP2 ADD DUP3 ADD SWAP3 DUP10 DUP5 GT ISZERO PUSH2 0x333 JUMPI PUSH0 DUP1 REVERT JUMPDEST SWAP5 DUP3 ADD SWAP5 JUMPDEST DUP4 DUP7 LT ISZERO PUSH2 0x358 JUMPI PUSH2 0x349 DUP7 PUSH2 0x288 JUMP JUMPDEST DUP6 MSTORE SWAP5 DUP3 ADD SWAP5 SWAP4 DUP3 ADD SWAP4 PUSH2 0x338 JUMP JUMPDEST SWAP7 POP PUSH2 0x367 SWAP1 POP DUP8 DUP3 ADD PUSH2 0x288 JUMP JUMPDEST SWAP5 POP POP POP POP POP SWAP3 POP SWAP3 SWAP1 POP JUMP JUMPDEST PUSH4 0x4E487B71 PUSH1 0xE0 SHL PUSH0 MSTORE PUSH1 0x32 PUSH1 0x4 MSTORE PUSH1 0x24 PUSH0 REVERT JUMPDEST PUSH2 0x408C DUP1 PUSH2 0x395 PUSH0 CODECOPY PUSH0 RETURN INVALID PUSH1 0x80 PUSH1 0x40 MSTORE PUSH1 0x4 CALLDATASIZE LT PUSH2 0x438 JUMPI PUSH0 CALLDATALOAD PUSH1 0xE0 SHR DUP1 PUSH4 0x885F5029 GT PUSH2 0x237 JUMPI DUP1 PUSH4 0xB758AEAA GT PUSH2 0x13C JUMPI DUP1 PUSH4 0xE340B783 GT PUSH2 0xB7 JUMPI DUP1 PUSH4 0xEE947A7C GT PUSH2 0x87 JUMPI DUP1 PUSH4 0xF5F69AF2 GT PUSH2 0x6D JUMPI DUP1 PUSH4 0xF5F69AF2 EQ PUSH2 0xD2A JUMPI DUP1 PUSH4 0xF6326FB3 EQ PUSH2 0xD49 JUMPI DUP1 PUSH4 0xF688BCFB EQ PUSH2 0xD51 JUMPI PUSH0 DUP1 REVERT JUMPDEST DUP1 PUSH4 0xEE947A7C EQ PUSH2 0xCF6 JUMPI DUP1 PUSH4 0xF29B2239 EQ PUSH2 0xD0B JUMPI PUSH0 DUP1 REVERT JUMPDEST DUP1 PUSH4 0xE340B783 EQ PUSH2 0xC6F JUMPI DUP1 PUSH4 0xE399067F EQ PUSH2 0xC84 JUMPI DUP1 PUSH4 0xE63AB1E9 EQ PUSH2 0xC98 JUMPI DUP1 PUSH4 0xE9FE0C78 EQ PUSH2 0xCCB JUMPI PUSH0 DUP1 REVERT JUMPDEST DUP1 PUSH4 0xD830D5CC GT PUSH2 0x10C JUMPI DUP1 PUSH4 0xE02F6ACA GT PUSH2 0xF2 JUMPI DUP1 PUSH4 0xE02F6ACA EQ PUSH2 0xC08 JUMPI DUP1 PUSH4 0xE043B2B2 EQ PUSH2 0xC27 JUMPI DUP1 PUSH4 0xE15E23C1 EQ PUSH2 0xC5A JUMPI PUSH0 DUP1 REVERT JUMPDEST DUP1 PUSH4 0xD830D5CC EQ PUSH2 0xBD5 JUMPI DUP1 PUSH4 0xDA8D5ADD EQ PUSH2 0xBF4 JUMPI PUSH0 DUP1 REVERT JUMPDEST DUP1 PUSH4 0xB758AEAA EQ PUSH2 0xB64 JUMPI DUP1 PUSH4 0xBDA821E8 EQ PUSH2 0xB83 JUMPI DUP1 PUSH4 0xC771C390 EQ PUSH2 0xB97 JUMPI DUP1 PUSH4 0xD547741F EQ PUSH2 0xBB6 JUMPI PUSH0 DUP1 REVERT JUMPDEST DUP1 PUSH4 0x97D9E5B4 GT PUSH2 0x1CC JUMPI DUP1 PUSH4 0xA2BDEDF4 GT PUSH2 0x19C JUMPI DUP1 PUSH4 0xB2118A8D GT PUSH2 0x182 JUMPI DUP1 PUSH4 0xB2118A8D EQ PUSH2 0xB12 JUMPI DUP1 PUSH4 0xB2B77AE2 EQ PUSH2 0xB31 JUMPI DUP1 PUSH4 0xB65BA94B EQ PUSH2 0xB4F JUMPI PUSH0 DUP1 REVERT JUMPDEST DUP1 PUSH4 0xA2BDEDF4 EQ PUSH2 0xA86 JUMPI DUP1 PUSH4 0xA59AA5A6 EQ PUSH2 0xAA5 JUMPI PUSH0 DUP1 REVERT JUMPDEST DUP1 PUSH4 0x97D9E5B4 EQ PUSH2 0xA2A JUMPI DUP1 PUSH4 0x9DDC3912 EQ PUSH2 0xA3F JUMPI DUP1 PUSH4 0x9E657E33 EQ PUSH2 0xA54 JUMPI DUP1 PUSH4 0xA217FDDF EQ PUSH2 0xA73 JUMPI PUSH0 DUP1 REVERT JUMPDEST DUP1 PUSH4 0x89BAD0A6 GT PUSH2 0x207 JUMPI DUP1 PUSH4 0x89BAD0A6 EQ PUSH2 0x995 JUMPI DUP1 PUSH4 0x8B713B2E EQ PUSH2 0x9B4 JUMPI DUP1 PUSH4 0x91D14854 EQ PUSH2 0x9C9 JUMPI DUP1 PUSH4 0x93055C43 EQ PUSH2 0xA0B JUMPI PUSH0 DUP1 REVERT JUMPDEST DUP1 PUSH4 0x885F5029 EQ PUSH2 0x8E3 JUMPI DUP1 PUSH4 0x886D589D EQ PUSH2 0x916 JUMPI DUP1 PUSH4 0x899AA991 EQ PUSH2 0x941 JUMPI DUP1 PUSH4 0x89A30271 EQ PUSH2 0x956 JUMPI PUSH0 DUP1 REVERT JUMPDEST DUP1 PUSH4 0x41DEBF1F GT PUSH2 0x33D JUMPI DUP1 PUSH4 0x64021B13 GT PUSH2 0x2D2 JUMPI DUP1 PUSH4 0x72E55399 GT PUSH2 0x2A2 JUMPI DUP1 PUSH4 0x762E1C73 GT PUSH2 0x288 JUMPI DUP1 PUSH4 0x762E1C73 EQ PUSH2 0x886 JUMPI DUP1 PUSH4 0x76C1D3DB EQ PUSH2 0x8A5 JUMPI DUP1 PUSH4 0x867D099A EQ PUSH2 0x8C4 JUMPI PUSH0 DUP1 REVERT JUMPDEST DUP1 PUSH4 0x72E55399 EQ PUSH2 0x847 JUMPI DUP1 PUSH4 0x75B238FC EQ PUSH2 0x866 JUMPI PUSH0 DUP1 REVERT JUMPDEST DUP1 PUSH4 0x64021B13 EQ PUSH2 0x7ED JUMPI DUP1 PUSH4 0x6426BE48 EQ PUSH2 0x7F5 JUMPI DUP1 PUSH4 0x6C6FF56C EQ PUSH2 0x814 JUMPI DUP1 PUSH4 0x6EC23995 EQ PUSH2 0x828 JUMPI PUSH0 DUP1 REVERT JUMPDEST DUP1 PUSH4 0x53D6FD59 GT PUSH2 0x30D JUMPI DUP1 PUSH4 0x53D6FD59 EQ PUSH2 0x772 JUMPI DUP1 PUSH4 0x588583A0 EQ PUSH2 0x791 JUMPI DUP1 PUSH4 0x5E2C19DB EQ PUSH2 0x7A6 JUMPI DUP1 PUSH4 0x6068D6CB EQ PUSH2 0x7D4 JUMPI PUSH0 DUP1 REVERT JUMPDEST DUP1 PUSH4 0x41DEBF1F EQ PUSH2 0x6BB JUMPI DUP1 PUSH4 0x47AF19AA EQ PUSH2 0x6DA JUMPI DUP1 PUSH4 0x4E43603A EQ PUSH2 0x6F9 JUMPI DUP1 PUSH4 0x51FB012D EQ PUSH2 0x753 JUMPI PUSH0 DUP1 REVERT JUMPDEST DUP1 PUSH4 0x27175B23 GT PUSH2 0x3CD JUMPI DUP1 PUSH4 0x2F2FF15D GT PUSH2 0x39D JUMPI DUP1 PUSH4 0x36568ABE GT PUSH2 0x383 JUMPI DUP1 PUSH4 0x36568ABE EQ PUSH2 0x659 JUMPI DUP1 PUSH4 0x3AC43970 EQ PUSH2 0x678 JUMPI DUP1 PUSH4 0x3AF32ABF EQ PUSH2 0x68D JUMPI PUSH0 DUP1 REVERT JUMPDEST DUP1 PUSH4 0x2F2FF15D EQ PUSH2 0x60F JUMPI DUP1 PUSH4 0x3408567C EQ PUSH2 0x62E JUMPI PUSH0 DUP1 REVERT JUMPDEST DUP1 PUSH4 0x27175B23 EQ PUSH2 0x59B JUMPI DUP1 PUSH4 0x275991D2 EQ PUSH2 0x5B0 JUMPI DUP1 PUSH4 0x2A5BF6D2 EQ PUSH2 0x5C4 JUMPI DUP1 PUSH4 0x2E1A7D4D EQ PUSH2 0x5F0 JUMPI PUSH0 DUP1 REVERT JUMPDEST DUP1 PUSH4 0xC016AD5 GT PUSH2 0x408 JUMPI DUP1 PUSH4 0xC016AD5 EQ PUSH2 0x505 JUMPI DUP1 PUSH4 0x1C5AEEF7 EQ PUSH2 0x538 JUMPI DUP1 PUSH4 0x246D47B7 EQ PUSH2 0x54D JUMPI DUP1 PUSH4 0x248A9CA3 EQ PUSH2 0x56D JUMPI PUSH0 DUP1 REVERT JUMPDEST DUP1 PUSH4 0x1FFC9A7 EQ PUSH2 0x443 JUMPI DUP1 PUSH4 0x4C68AF0 EQ PUSH2 0x477 JUMPI DUP1 PUSH4 0x52D9E7E EQ PUSH2 0x4B0 JUMPI DUP1 PUSH4 0x8F43333 EQ PUSH2 0x4D1 JUMPI PUSH0 DUP1 REVERT JUMPDEST CALLDATASIZE PUSH2 0x43F JUMPI STOP JUMPDEST PUSH0 DUP1 REVERT JUMPDEST CALLVALUE DUP1 ISZERO PUSH2 0x44E JUMPI PUSH0 DUP1 REVERT JUMPDEST POP PUSH2 0x462 PUSH2 0x45D CALLDATASIZE PUSH1 0x4 PUSH2 0x3A76 JUMP JUMPDEST PUSH2 0xD70 JUMP JUMPDEST PUSH1 0x40 MLOAD SWAP1 ISZERO ISZERO DUP2 MSTORE PUSH1 0x20 ADD JUMPDEST PUSH1 0x40 MLOAD DUP1 SWAP2 SUB SWAP1 RETURN JUMPDEST CALLVALUE DUP1 ISZERO PUSH2 0x482 JUMPI PUSH0 DUP1 REVERT JUMPDEST POP PUSH2 0x4A2 PUSH2 0x491 CALLDATASIZE PUSH1 0x4 PUSH2 0x3ABF JUMP JUMPDEST PUSH1 0xE PUSH1 0x20 MSTORE PUSH0 SWAP1 DUP2 MSTORE PUSH1 0x40 SWAP1 KECCAK256 SLOAD DUP2 JUMP JUMPDEST PUSH1 0x40 MLOAD SWAP1 DUP2 MSTORE PUSH1 0x20 ADD PUSH2 0x46E JUMP JUMPDEST CALLVALUE DUP1 ISZERO PUSH2 0x4BB JUMPI PUSH0 DUP1 REVERT JUMPDEST POP PUSH2 0x4CF PUSH2 0x4CA CALLDATASIZE PUSH1 0x4 PUSH2 0x3AE5 JUMP JUMPDEST PUSH2 0xDA6 JUMP JUMPDEST STOP JUMPDEST CALLVALUE DUP1 ISZERO PUSH2 0x4DC JUMPI PUSH0 DUP1 REVERT JUMPDEST POP PUSH2 0x4F0 PUSH2 0x4EB CALLDATASIZE PUSH1 0x4 PUSH2 0x3B00 JUMP JUMPDEST PUSH2 0xDDA JUMP JUMPDEST PUSH1 0x40 MLOAD PUSH2 0x46E SWAP10 SWAP9 SWAP8 SWAP7 SWAP6 SWAP5 SWAP4 SWAP3 SWAP2 SWAP1 PUSH2 0x3B5C JUMP JUMPDEST CALLVALUE DUP1 ISZERO PUSH2 0x510 JUMPI PUSH0 DUP1 REVERT JUMPDEST POP PUSH2 0x4A2 PUSH32 0xF60566C40710959D8D30B6067CE3C53C757BEC78EECB0E46B83C7F8194FFAE37 DUP2 JUMP JUMPDEST CALLVALUE DUP1 ISZERO PUSH2 0x543 JUMPI PUSH0 DUP1 REVERT JUMPDEST POP PUSH2 0x4A2 PUSH1 0x4 SLOAD DUP2 JUMP JUMPDEST CALLVALUE DUP1 ISZERO PUSH2 0x558 JUMPI PUSH0 DUP1 REVERT JUMPDEST POP PUSH1 0x5 SLOAD PUSH2 0x462 SWAP1 PUSH4 0x1000000 SWAP1 DIV PUSH1 0xFF AND DUP2 JUMP JUMPDEST CALLVALUE DUP1 ISZERO PUSH2 0x578 JUMPI PUSH0 DUP1 REVERT JUMPDEST POP PUSH2 0x4A2 PUSH2 0x587 CALLDATASIZE PUSH1 0x4 PUSH2 0x3BAB JUMP JUMPDEST PUSH0 SWAP1 DUP2 MSTORE PUSH1 0x20 DUP2 SWAP1 MSTORE PUSH1 0x40 SWAP1 KECCAK256 PUSH1 0x1 ADD SLOAD SWAP1 JUMP JUMPDEST CALLVALUE DUP1 ISZERO PUSH2 0x5A6 JUMPI PUSH0 DUP1 REVERT JUMPDEST POP PUSH2 0x4A2 PUSH1 0x13 SLOAD DUP2 JUMP JUMPDEST CALLVALUE DUP1 ISZERO PUSH2 0x5BB JUMPI PUSH0 DUP1 REVERT JUMPDEST POP PUSH2 0x4CF PUSH2 0xE4E JUMP JUMPDEST CALLVALUE DUP1 ISZERO PUSH2 0x5CF JUMPI PUSH0 DUP1 REVERT JUMPDEST POP PUSH2 0x5E3 PUSH2 0x5DE CALLDATASIZE PUSH1 0x4 PUSH2 0x3ABF JUMP JUMPDEST PUSH2 0xF45 JUMP JUMPDEST PUSH1 0x40 MLOAD PUSH2 0x46E SWAP2 SWAP1 PUSH2 0x3BC2 JUMP JUMPDEST CALLVALUE DUP1 ISZERO PUSH2 0x5FB JUMPI PUSH0 DUP1 REVERT JUMPDEST POP PUSH2 0x4CF PUSH2 0x60A CALLDATASIZE PUSH1 0x4 PUSH2 0x3BAB JUMP JUMPDEST PUSH2 0x1053 JUMP JUMPDEST CALLVALUE DUP1 ISZERO PUSH2 0x61A JUMPI PUSH0 DUP1 REVERT JUMPDEST POP PUSH2 0x4CF PUSH2 0x629 CALLDATASIZE PUSH1 0x4 PUSH2 0x3C68 JUMP JUMPDEST PUSH2 0x1454 JUMP JUMPDEST CALLVALUE DUP1 ISZERO PUSH2 0x639 JUMPI PUSH0 DUP1 REVERT JUMPDEST POP PUSH2 0x4A2 PUSH2 0x648 CALLDATASIZE PUSH1 0x4 PUSH2 0x3ABF JUMP JUMPDEST PUSH1 0xB PUSH1 0x20 MSTORE PUSH0 SWAP1 DUP2 MSTORE PUSH1 0x40 SWAP1 KECCAK256 SLOAD DUP2 JUMP JUMPDEST CALLVALUE DUP1 ISZERO PUSH2 0x664 JUMPI PUSH0 DUP1 REVERT JUMPDEST POP PUSH2 0x4CF PUSH2 0x673 CALLDATASIZE PUSH1 0x4 PUSH2 0x3C68 JUMP JUMPDEST PUSH2 0x147E JUMP JUMPDEST CALLVALUE DUP1 ISZERO PUSH2 0x683 JUMPI PUSH0 DUP1 REVERT JUMPDEST POP PUSH2 0x4A2 PUSH1 0x17 SLOAD DUP2 JUMP JUMPDEST CALLVALUE DUP1 ISZERO PUSH2 0x698 JUMPI PUSH0 DUP1 REVERT JUMPDEST POP PUSH2 0x462 PUSH2 0x6A7 CALLDATASIZE PUSH1 0x4 PUSH2 0x3ABF JUMP JUMPDEST PUSH1 0x9 PUSH1 0x20 MSTORE PUSH0 SWAP1 DUP2 MSTORE PUSH1 0x40 SWAP1 KECCAK256 SLOAD PUSH1 0xFF AND DUP2 JUMP JUMPDEST CALLVALUE DUP1 ISZERO PUSH2 0x6C6 JUMPI PUSH0 DUP1 REVERT JUMPDEST POP PUSH2 0x4CF PUSH2 0x6D5 CALLDATASIZE PUSH1 0x4 PUSH2 0x3CDA JUMP JUMPDEST PUSH2 0x14B6 JUMP JUMPDEST CALLVALUE DUP1 ISZERO PUSH2 0x6E5 JUMPI PUSH0 DUP1 REVERT JUMPDEST POP PUSH2 0x4CF PUSH2 0x6F4 CALLDATASIZE PUSH1 0x4 PUSH2 0x3CDA JUMP JUMPDEST PUSH2 0x1666 JUMP JUMPDEST CALLVALUE DUP1 ISZERO PUSH2 0x704 JUMPI PUSH0 DUP1 REVERT JUMPDEST POP PUSH2 0x718 PUSH2 0x713 CALLDATASIZE PUSH1 0x4 PUSH2 0x3ABF JUMP JUMPDEST PUSH2 0x17D4 JUMP JUMPDEST PUSH1 0x40 DUP1 MLOAD SWAP9 DUP10 MSTORE PUSH1 0x20 DUP10 ADD SWAP8 SWAP1 SWAP8 MSTORE SWAP6 DUP8 ADD SWAP5 SWAP1 SWAP5 MSTORE PUSH1 0x60 DUP7 ADD SWAP3 SWAP1 SWAP3 MSTORE PUSH1 0x80 DUP6 ADD MSTORE PUSH1 0xA0 DUP5 ADD MSTORE PUSH1 0xC0 DUP4 ADD MSTORE PUSH1 0xE0 DUP3 ADD MSTORE PUSH2 0x100 ADD PUSH2 0x46E JUMP JUMPDEST CALLVALUE DUP1 ISZERO PUSH2 0x75E JUMPI PUSH0 DUP1 REVERT JUMPDEST POP PUSH1 0x5 SLOAD PUSH2 0x462 SWAP1 PUSH3 0x10000 SWAP1 DIV PUSH1 0xFF AND DUP2 JUMP JUMPDEST CALLVALUE DUP1 ISZERO PUSH2 0x77D JUMPI PUSH0 DUP1 REVERT JUMPDEST POP PUSH2 0x4CF PUSH2 0x78C CALLDATASIZE PUSH1 0x4 PUSH2 0x3D41 JUMP JUMPDEST PUSH2 0x1AA3 JUMP JUMPDEST CALLVALUE DUP1 ISZERO PUSH2 0x79C JUMPI PUSH0 DUP1 REVERT JUMPDEST POP PUSH2 0x4A2 PUSH1 0x6 SLOAD DUP2 JUMP JUMPDEST CALLVALUE DUP1 ISZERO PUSH2 0x7B1 JUMPI PUSH0 DUP1 REVERT JUMPDEST POP PUSH2 0x462 PUSH2 0x7C0 CALLDATASIZE PUSH1 0x4 PUSH2 0x3ABF JUMP JUMPDEST PUSH1 0xA PUSH1 0x20 MSTORE PUSH0 SWAP1 DUP2 MSTORE PUSH1 0x40 SWAP1 KECCAK256 SLOAD PUSH1 0xFF AND DUP2 JUMP JUMPDEST CALLVALUE DUP1 ISZERO PUSH2 0x7DF JUMPI PUSH0 DUP1 REVERT JUMPDEST POP PUSH1 0x5 SLOAD PUSH2 0x462 SWAP1 PUSH1 0xFF AND DUP2 JUMP JUMPDEST PUSH2 0x4CF PUSH2 0x1B19 JUMP JUMPDEST CALLVALUE DUP1 ISZERO PUSH2 0x800 JUMPI PUSH0 DUP1 REVERT JUMPDEST POP PUSH2 0x4CF PUSH2 0x80F CALLDATASIZE PUSH1 0x4 PUSH2 0x3D76 JUMP JUMPDEST PUSH2 0x1BD7 JUMP JUMPDEST CALLVALUE DUP1 ISZERO PUSH2 0x81F JUMPI PUSH0 DUP1 REVERT JUMPDEST POP PUSH2 0x4CF PUSH2 0x1C66 JUMP JUMPDEST CALLVALUE DUP1 ISZERO PUSH2 0x833 JUMPI PUSH0 DUP1 REVERT JUMPDEST POP PUSH2 0x4CF PUSH2 0x842 CALLDATASIZE PUSH1 0x4 PUSH2 0x3B00 JUMP JUMPDEST PUSH2 0x1D82 JUMP JUMPDEST CALLVALUE DUP1 ISZERO PUSH2 0x852 JUMPI PUSH0 DUP1 REVERT JUMPDEST POP PUSH2 0x4CF PUSH2 0x861 CALLDATASIZE PUSH1 0x4 PUSH2 0x3D92 JUMP JUMPDEST PUSH2 0x1E5B JUMP JUMPDEST CALLVALUE DUP1 ISZERO PUSH2 0x871 JUMPI PUSH0 DUP1 REVERT JUMPDEST POP PUSH2 0x4A2 PUSH0 DUP1 MLOAD PUSH1 0x20 PUSH2 0x4037 DUP4 CODECOPY DUP2 MLOAD SWAP2 MSTORE DUP2 JUMP JUMPDEST CALLVALUE DUP1 ISZERO PUSH2 0x891 JUMPI PUSH0 DUP1 REVERT JUMPDEST POP PUSH2 0x4CF PUSH2 0x8A0 CALLDATASIZE PUSH1 0x4 PUSH2 0x3B00 JUMP JUMPDEST PUSH2 0x238D JUMP JUMPDEST CALLVALUE DUP1 ISZERO PUSH2 0x8B0 JUMPI PUSH0 DUP1 REVERT JUMPDEST POP PUSH2 0x4CF PUSH2 0x8BF CALLDATASIZE PUSH1 0x4 PUSH2 0x3BAB JUMP JUMPDEST PUSH2 0x245C JUMP JUMPDEST CALLVALUE DUP1 ISZERO PUSH2 0x8CF JUMPI PUSH0 DUP1 REVERT JUMPDEST POP PUSH2 0x4CF PUSH2 0x8DE CALLDATASIZE PUSH1 0x4 PUSH2 0x3DD1 JUMP JUMPDEST PUSH2 0x25C2 JUMP JUMPDEST CALLVALUE DUP1 ISZERO PUSH2 0x8EE JUMPI PUSH0 DUP1 REVERT JUMPDEST POP PUSH2 0x4A2 PUSH32 0x78C90EB9E475048B483A290AEE04B5FE48355537C3623C7637B17D3BED71C6ED DUP2 JUMP JUMPDEST CALLVALUE DUP1 ISZERO PUSH2 0x921 JUMPI PUSH0 DUP1 REVERT JUMPDEST POP PUSH2 0x4A2 PUSH2 0x930 CALLDATASIZE PUSH1 0x4 PUSH2 0x3ABF JUMP JUMPDEST PUSH1 0xD PUSH1 0x20 MSTORE PUSH0 SWAP1 DUP2 MSTORE PUSH1 0x40 SWAP1 KECCAK256 SLOAD DUP2 JUMP JUMPDEST CALLVALUE DUP1 ISZERO PUSH2 0x94C JUMPI PUSH0 DUP1 REVERT JUMPDEST POP PUSH2 0x4A2 PUSH1 0x12 SLOAD DUP2 JUMP JUMPDEST CALLVALUE DUP1 ISZERO PUSH2 0x961 JUMPI PUSH0 DUP1 REVERT JUMPDEST POP PUSH2 0x97D PUSH20 0x833589FCD6EDB6E08F4C7C32D4F71B54BDA02913 DUP2 JUMP JUMPDEST PUSH1 0x40 MLOAD PUSH1 0x1 PUSH1 0x1 PUSH1 0xA0 SHL SUB SWAP1 SWAP2 AND DUP2 MSTORE PUSH1 0x20 ADD PUSH2 0x46E JUMP JUMPDEST CALLVALUE DUP1 ISZERO PUSH2 0x9A0 JUMPI PUSH0 DUP1 REVERT JUMPDEST POP PUSH2 0x4CF PUSH2 0x9AF CALLDATASIZE PUSH1 0x4 PUSH2 0x3ABF JUMP JUMPDEST PUSH2 0x2715 JUMP JUMPDEST CALLVALUE DUP1 ISZERO PUSH2 0x9BF JUMPI PUSH0 DUP1 REVERT JUMPDEST POP PUSH2 0x4A2 PUSH1 0x14 SLOAD DUP2 JUMP JUMPDEST CALLVALUE DUP1 ISZERO PUSH2 0x9D4 JUMPI PUSH0 DUP1 REVERT JUMPDEST POP PUSH2 0x462 PUSH2 0x9E3 CALLDATASIZE PUSH1 0x4 PUSH2 0x3C68 JUMP JUMPDEST PUSH0 SWAP2 DUP3 MSTORE PUSH1 0x20 DUP3 DUP2 MSTORE PUSH1 0x40 DUP1 DUP5 KECCAK256 PUSH1 0x1 PUSH1 0x1 PUSH1 0xA0 SHL SUB SWAP4 SWAP1 SWAP4 AND DUP5 MSTORE SWAP2 SWAP1 MSTORE SWAP1 KECCAK256 SLOAD PUSH1 0xFF AND SWAP1 JUMP JUMPDEST CALLVALUE DUP1 ISZERO PUSH2 0xA16 JUMPI PUSH0 DUP1 REVERT JUMPDEST POP PUSH2 0x4CF PUSH2 0xA25 CALLDATASIZE PUSH1 0x4 PUSH2 0x3BAB JUMP JUMPDEST PUSH2 0x27C7 JUMP JUMPDEST CALLVALUE DUP1 ISZERO PUSH2 0xA35 JUMPI PUSH0 DUP1 REVERT JUMPDEST POP PUSH2 0x4A2 PUSH1 0x18 SLOAD DUP2 JUMP JUMPDEST CALLVALUE DUP1 ISZERO PUSH2 0xA4A JUMPI PUSH0 DUP1 REVERT JUMPDEST POP PUSH2 0x4A2 PUSH1 0x3 SLOAD DUP2 JUMP JUMPDEST CALLVALUE DUP1 ISZERO PUSH2 0xA5F JUMPI PUSH0 DUP1 REVERT JUMPDEST POP PUSH2 0x97D PUSH2 0xA6E CALLDATASIZE PUSH1 0x4 PUSH2 0x3BAB JUMP JUMPDEST PUSH2 0x298C JUMP JUMPDEST CALLVALUE DUP1 ISZERO PUSH2 0xA7E JUMPI PUSH0 DUP1 REVERT JUMPDEST POP PUSH2 0x4A2 PUSH0 DUP2 JUMP JUMPDEST CALLVALUE DUP1 ISZERO PUSH2 0xA91 JUMPI PUSH0 DUP1 REVERT JUMPDEST POP PUSH2 0x97D PUSH2 0xAA0 CALLDATASIZE PUSH1 0x4 PUSH2 0x3BAB JUMP JUMPDEST PUSH2 0x29B4 JUMP JUMPDEST CALLVALUE DUP1 ISZERO PUSH2 0xAB0 JUMPI PUSH0 DUP1 REVERT JUMPDEST POP PUSH2 0xAB9 PUSH2 0x29C3 JUMP JUMPDEST PUSH1 0x40 DUP1 MLOAD SWAP13 DUP14 MSTORE PUSH1 0x20 DUP14 ADD SWAP12 SWAP1 SWAP12 MSTORE SWAP10 DUP12 ADD SWAP9 SWAP1 SWAP9 MSTORE PUSH1 0x60 DUP11 ADD SWAP7 SWAP1 SWAP7 MSTORE PUSH1 0x80 DUP10 ADD SWAP5 SWAP1 SWAP5 MSTORE PUSH1 0xA0 DUP9 ADD SWAP3 SWAP1 SWAP3 MSTORE PUSH1 0xC0 DUP8 ADD MSTORE PUSH1 0xE0 DUP7 ADD MSTORE PUSH2 0x100 DUP6 ADD MSTORE PUSH2 0x120 DUP5 ADD MSTORE PUSH2 0x140 DUP4 ADD MSTORE PUSH2 0x160 DUP3 ADD MSTORE PUSH2 0x180 ADD PUSH2 0x46E JUMP JUMPDEST CALLVALUE DUP1 ISZERO PUSH2 0xB1D JUMPI PUSH0 DUP1 REVERT JUMPDEST POP PUSH2 0x4CF PUSH2 0xB2C CALLDATASIZE PUSH1 0x4 PUSH2 0x3E20 JUMP JUMPDEST PUSH2 0x2A94 JUMP JUMPDEST CALLVALUE DUP1 ISZERO PUSH2 0xB3C JUMPI PUSH0 DUP1 REVERT JUMPDEST POP PUSH1 0x5 SLOAD PUSH2 0x462 SWAP1 PUSH2 0x100 SWAP1 DIV PUSH1 0xFF AND DUP2 JUMP JUMPDEST CALLVALUE DUP1 ISZERO PUSH2 0xB5A JUMPI PUSH0 DUP1 REVERT JUMPDEST POP PUSH2 0x4A2 PUSH1 0x16 SLOAD DUP2 JUMP JUMPDEST CALLVALUE DUP1 ISZERO PUSH2 0xB6F JUMPI PUSH0 DUP1 REVERT JUMPDEST POP PUSH2 0x4CF PUSH2 0xB7E CALLDATASIZE PUSH1 0x4 PUSH2 0x3CDA JUMP JUMPDEST PUSH2 0x2BB4 JUMP JUMPDEST CALLVALUE DUP1 ISZERO PUSH2 0xB8E JUMPI PUSH0 DUP1 REVERT JUMPDEST POP PUSH2 0x4CF PUSH2 0x2D57 JUMP JUMPDEST CALLVALUE DUP1 ISZERO PUSH2 0xBA2 JUMPI PUSH0 DUP1 REVERT JUMPDEST POP PUSH2 0x4CF PUSH2 0xBB1 CALLDATASIZE PUSH1 0x4 PUSH2 0x3BAB JUMP JUMPDEST PUSH2 0x2E34 JUMP JUMPDEST CALLVALUE DUP1 ISZERO PUSH2 0xBC1 JUMPI PUSH0 DUP1 REVERT JUMPDEST POP PUSH2 0x4CF PUSH2 0xBD0 CALLDATASIZE PUSH1 0x4 PUSH2 0x3C68 JUMP JUMPDEST PUSH2 0x2E80 JUMP JUMPDEST CALLVALUE DUP1 ISZERO PUSH2 0xBE0 JUMPI PUSH0 DUP1 REVERT JUMPDEST POP PUSH2 0x4CF PUSH2 0xBEF CALLDATASIZE PUSH1 0x4 PUSH2 0x3BAB JUMP JUMPDEST PUSH2 0x2EA4 JUMP JUMPDEST CALLVALUE DUP1 ISZERO PUSH2 0xBFF JUMPI PUSH0 DUP1 REVERT JUMPDEST POP PUSH2 0x4CF PUSH2 0x2FE5 JUMP JUMPDEST CALLVALUE DUP1 ISZERO PUSH2 0xC13 JUMPI PUSH0 DUP1 REVERT JUMPDEST POP PUSH2 0x97D PUSH2 0xC22 CALLDATASIZE PUSH1 0x4 PUSH2 0x3BAB JUMP JUMPDEST PUSH2 0x316F JUMP JUMPDEST CALLVALUE DUP1 ISZERO PUSH2 0xC32 JUMPI PUSH0 DUP1 REVERT JUMPDEST POP PUSH2 0x4A2 PUSH32 0xC806897CAF4FD5068191157E44D3988E43139A37E0B97B6793E1ED1184140604 DUP2 JUMP JUMPDEST CALLVALUE DUP1 ISZERO PUSH2 0xC65 JUMPI PUSH0 DUP1 REVERT JUMPDEST POP PUSH2 0x4A2 PUSH1 0x19 SLOAD DUP2 JUMP JUMPDEST CALLVALUE DUP1 ISZERO PUSH2 0xC7A JUMPI PUSH0 DUP1 REVERT JUMPDEST POP PUSH2 0x4A2 PUSH1 0x15 SLOAD DUP2 JUMP JUMPDEST CALLVALUE DUP1 ISZERO PUSH2 0xC8F JUMPI PUSH0 DUP1 REVERT JUMPDEST POP PUSH2 0x4CF PUSH2 0x317E JUMP JUMPDEST CALLVALUE DUP1 ISZERO PUSH2 0xCA3 JUMPI PUSH0 DUP1 REVERT JUMPDEST POP PUSH2 0x4A2 PUSH32 0x65D7A28E3265B37A6474929F336521B332C1681B933F6CB9F3376673440D862A DUP2 JUMP JUMPDEST CALLVALUE DUP1 ISZERO PUSH2 0xCD6 JUMPI PUSH0 DUP1 REVERT JUMPDEST POP PUSH2 0x4A2 PUSH2 0xCE5 CALLDATASIZE PUSH1 0x4 PUSH2 0x3ABF JUMP JUMPDEST PUSH1 0xC PUSH1 0x20 MSTORE PUSH0 SWAP1 DUP2 MSTORE PUSH1 0x40 SWAP1 KECCAK256 SLOAD DUP2 JUMP JUMPDEST CALLVALUE DUP1 ISZERO PUSH2 0xD01 JUMPI PUSH0 DUP1 REVERT JUMPDEST POP PUSH2 0x4A2 PUSH1 0x2 SLOAD DUP2 JUMP JUMPDEST CALLVALUE DUP1 ISZERO PUSH2 0xD16 JUMPI PUSH0 DUP1 REVERT JUMPDEST POP PUSH1 0x7 SLOAD PUSH2 0x97D SWAP1 PUSH1 0x1 PUSH1 0x1 PUSH1 0xA0 SHL SUB AND DUP2 JUMP JUMPDEST CALLVALUE DUP1 ISZERO PUSH2 0xD35 JUMPI PUSH0 DUP1 REVERT JUMPDEST POP PUSH2 0x4CF PUSH2 0xD44 CALLDATASIZE PUSH1 0x4 PUSH2 0x3E59 JUMP JUMPDEST PUSH2 0x32B9 JUMP JUMPDEST PUSH2 0x4CF PUSH2 0x3342 JUMP JUMPDEST CALLVALUE DUP1 ISZERO PUSH2 0xD5C JUMPI PUSH0 DUP1 REVERT JUMPDEST POP PUSH2 0x4CF PUSH2 0xD6B CALLDATASIZE PUSH1 0x4 PUSH2 0x3BAB JUMP JUMPDEST PUSH2 0x34A2 JUMP JUMPDEST PUSH0 PUSH1 0x1 PUSH1 0x1 PUSH1 0xE0 SHL SUB NOT DUP3 AND PUSH4 0x7965DB0B PUSH1 0xE0 SHL EQ DUP1 PUSH2 0xDA0 JUMPI POP PUSH4 0x1FFC9A7 PUSH1 0xE0 SHL PUSH1 0x1 PUSH1 0x1 PUSH1 0xE0 SHL SUB NOT DUP4 AND EQ JUMPDEST SWAP3 SWAP2 POP POP JUMP JUMPDEST PUSH0 DUP1 MLOAD PUSH1 0x20 PUSH2 0x4037 DUP4 CODECOPY DUP2 MLOAD SWAP2 MSTORE PUSH2 0xDBD DUP2 PUSH2 0x3685 JUMP JUMPDEST POP PUSH1 0x5 DUP1 SLOAD SWAP2 ISZERO ISZERO PUSH3 0x10000 MUL PUSH3 0xFF0000 NOT SWAP1 SWAP3 AND SWAP2 SWAP1 SWAP2 OR SWAP1 SSTORE JUMP JUMPDEST PUSH1 0x8 PUSH1 0x20 MSTORE DUP2 PUSH0 MSTORE PUSH1 0x40 PUSH0 KECCAK256 DUP2 DUP2 SLOAD DUP2 LT PUSH2 0xDF3 JUMPI PUSH0 DUP1 REVERT JUMPDEST PUSH0 SWAP2 DUP3 MSTORE PUSH1 0x20 SWAP1 SWAP2 KECCAK256 PUSH1 0x6 SWAP1 SWAP2 MUL ADD DUP1 SLOAD PUSH1 0x1 DUP3 ADD SLOAD PUSH1 0x2 DUP4 ADD SLOAD PUSH1 0x3 DUP5 ADD SLOAD PUSH1 0x4 DUP6 ADD SLOAD PUSH1 0x5 SWAP1 SWAP6 ADD SLOAD PUSH1 0xFF SWAP5 DUP6 AND SWAP8 POP SWAP3 SWAP6 POP SWAP1 SWAP4 DUP2 DUP5 AND SWAP4 PUSH2 0x100 DUP4 DIV DUP2 AND SWAP4 PUSH3 0x10000 DUP5 DIV DUP3 AND SWAP4 PUSH4 0x1000000 SWAP1 DIV SWAP1 SWAP2 AND SWAP2 SWAP1 DUP10 JUMP JUMPDEST PUSH2 0xE56 PUSH2 0x368F JUMP JUMPDEST CALLER PUSH0 SWAP1 DUP2 MSTORE PUSH1 0xB PUSH1 0x20 MSTORE PUSH1 0x40 SWAP1 KECCAK256 SLOAD DUP1 PUSH2 0xEA4 JUMPI PUSH1 0x40 MLOAD PUSH3 0x461BCD PUSH1 0xE5 SHL DUP2 MSTORE PUSH1 0x20 PUSH1 0x4 DUP3 ADD MSTORE PUSH1 0xA PUSH1 0x24 DUP3 ADD MSTORE PUSH10 0x4E6F207574696C697479 PUSH1 0xB0 SHL PUSH1 0x44 DUP3 ADD MSTORE PUSH1 0x64 ADD JUMPDEST PUSH1 0x40 MLOAD DUP1 SWAP2 SUB SWAP1 REVERT JUMPDEST CALLER PUSH0 DUP2 DUP2 MSTORE PUSH1 0xB PUSH1 0x20 MSTORE PUSH1 0x40 DUP2 KECCAK256 DUP2 SWAP1 SSTORE PUSH2 0xEC2 SWAP2 SWAP1 DUP4 PUSH1 0x1 PUSH2 0x36B9 JUMP JUMPDEST DUP1 PUSH1 0x18 PUSH0 DUP3 DUP3 SLOAD PUSH2 0xED3 SWAP2 SWAP1 PUSH2 0x3E8C JUMP JUMPDEST SWAP1 SWAP2 SSTORE POP POP CALLER PUSH0 SWAP1 DUP2 MSTORE PUSH1 0xD PUSH1 0x20 MSTORE PUSH1 0x40 DUP2 KECCAK256 DUP1 SLOAD DUP4 SWAP3 SWAP1 PUSH2 0xEF6 SWAP1 DUP5 SWAP1 PUSH2 0x3E8C JUMP JUMPDEST SWAP1 SWAP2 SSTORE POP POP PUSH1 0x40 MLOAD CALLER SWAP1 PUSH32 0x997D2EC09B086DE73D509BBC4AD2B52FD7E2338024464BEDE93A41ABD6CCDC38 SWAP1 PUSH2 0xF31 SWAP1 PUSH0 SWAP1 DUP6 SWAP1 TIMESTAMP SWAP1 PUSH2 0x3E9F JUMP JUMPDEST PUSH1 0x40 MLOAD DUP1 SWAP2 SUB SWAP1 LOG2 POP PUSH2 0xF43 PUSH1 0x1 DUP1 SSTORE JUMP JUMPDEST JUMP JUMPDEST PUSH1 0x1 PUSH1 0x1 PUSH1 0xA0 SHL SUB DUP2 AND PUSH0 SWAP1 DUP2 MSTORE PUSH1 0x8 PUSH1 0x20 SWAP1 DUP2 MSTORE PUSH1 0x40 DUP1 DUP4 KECCAK256 DUP1 SLOAD DUP3 MLOAD DUP2 DUP6 MUL DUP2 ADD DUP6 ADD SWAP1 SWAP4 MSTORE DUP1 DUP4 MSTORE PUSH1 0x60 SWAP5 SWAP3 SWAP4 SWAP2 SWAP3 SWAP1 SWAP2 DUP5 ADD JUMPDEST DUP3 DUP3 LT ISZERO PUSH2 0x1048 JUMPI PUSH0 DUP5 DUP2 MSTORE PUSH1 0x20 SWAP1 KECCAK256 PUSH1 0x40 DUP1 MLOAD PUSH2 0x120 DUP2 ADD SWAP1 SWAP2 MSTORE PUSH1 0x6 DUP5 MUL SWAP1 SWAP2 ADD DUP1 SLOAD DUP3 SWAP1 PUSH1 0xFF AND PUSH1 0x1 DUP2 GT ISZERO PUSH2 0xFB7 JUMPI PUSH2 0xFB7 PUSH2 0x3B28 JUMP JUMPDEST PUSH1 0x1 DUP2 GT ISZERO PUSH2 0xFC8 JUMPI PUSH2 0xFC8 PUSH2 0x3B28 JUMP JUMPDEST DUP2 MSTORE PUSH1 0x1 DUP3 DUP2 ADD SLOAD PUSH1 0x20 DUP1 DUP5 ADD SWAP2 SWAP1 SWAP2 MSTORE PUSH1 0x2 DUP5 ADD SLOAD PUSH1 0x40 DUP5 ADD MSTORE PUSH1 0x3 DUP5 ADD SLOAD PUSH1 0xFF DUP1 DUP3 AND ISZERO ISZERO PUSH1 0x60 DUP7 ADD MSTORE PUSH2 0x100 DUP1 DUP4 DIV DUP3 AND ISZERO ISZERO PUSH1 0x80 DUP8 ADD MSTORE PUSH3 0x10000 DUP4 DIV DUP3 AND ISZERO ISZERO PUSH1 0xA0 DUP8 ADD MSTORE PUSH4 0x1000000 SWAP1 SWAP3 DIV AND ISZERO ISZERO PUSH1 0xC0 DUP6 ADD MSTORE PUSH1 0x4 DUP6 ADD SLOAD PUSH1 0xE0 DUP6 ADD MSTORE PUSH1 0x5 SWAP1 SWAP5 ADD SLOAD SWAP4 SWAP1 SWAP3 ADD SWAP3 SWAP1 SWAP3 MSTORE SWAP2 DUP4 MSTORE SWAP3 SWAP1 SWAP3 ADD SWAP2 ADD PUSH2 0xF7C JUMP JUMPDEST POP POP POP POP SWAP1 POP SWAP2 SWAP1 POP JUMP JUMPDEST PUSH2 0x105B PUSH2 0x368F JUMP JUMPDEST PUSH1 0x5 SLOAD PUSH2 0x100 SWAP1 DIV PUSH1 0xFF AND ISZERO PUSH2 0x10B3 JUMPI PUSH1 0x40 MLOAD PUSH3 0x461BCD PUSH1 0xE5 SHL DUP2 MSTORE PUSH1 0x20 PUSH1 0x4 DUP3 ADD MSTORE PUSH1 0x12 PUSH1 0x24 DUP3 ADD MSTORE PUSH32 0x5769746864726177616C73207061757365640000000000000000000000000000 PUSH1 0x44 DUP3 ADD MSTORE PUSH1 0x64 ADD PUSH2 0xE9B JUMP JUMPDEST CALLER PUSH0 SWAP1 DUP2 MSTORE PUSH1 0x8 PUSH1 0x20 MSTORE PUSH1 0x40 DUP2 KECCAK256 DUP1 SLOAD DUP4 SWAP1 DUP2 LT PUSH2 0x10D3 JUMPI PUSH2 0x10D3 PUSH2 0x3EBE JUMP JUMPDEST PUSH0 SWAP2 DUP3 MSTORE PUSH1 0x20 SWAP1 SWAP2 KECCAK256 PUSH1 0x6 SWAP1 SWAP2 MUL ADD PUSH1 0x3 DUP2 ADD SLOAD SWAP1 SWAP2 POP PUSH1 0xFF AND ISZERO PUSH2 0x113A JUMPI PUSH1 0x40 MLOAD PUSH3 0x461BCD PUSH1 0xE5 SHL DUP2 MSTORE PUSH1 0x20 PUSH1 0x4 DUP3 ADD MSTORE PUSH1 0x11 PUSH1 0x24 DUP3 ADD MSTORE PUSH32 0x416C72656164792077697468647261776E000000000000000000000000000000 PUSH1 0x44 DUP3 ADD MSTORE PUSH1 0x64 ADD PUSH2 0xE9B JUMP JUMPDEST PUSH1 0x2 SLOAD DUP2 PUSH1 0x2 ADD SLOAD PUSH2 0x114C SWAP2 SWAP1 PUSH2 0x3E8C JUMP JUMPDEST TIMESTAMP LT ISZERO DUP1 PUSH2 0x1163 JUMPI POP PUSH1 0x3 DUP2 ADD SLOAD PUSH2 0x100 SWAP1 DIV PUSH1 0xFF AND JUMPDEST DUP1 PUSH2 0x118C JUMPI POP PUSH1 0x5 SLOAD PUSH4 0x1000000 SWAP1 DIV PUSH1 0xFF AND DUP1 ISZERO PUSH2 0x118C JUMPI POP PUSH1 0x3 DUP2 ADD SLOAD PUSH3 0x10000 SWAP1 DIV PUSH1 0xFF AND JUMPDEST PUSH2 0x11C9 JUMPI PUSH1 0x40 MLOAD PUSH3 0x461BCD PUSH1 0xE5 SHL DUP2 MSTORE PUSH1 0x20 PUSH1 0x4 DUP3 ADD MSTORE PUSH1 0xE PUSH1 0x24 DUP3 ADD MSTORE PUSH14 0x11195C1BDCDA5D081B1BD8DAD959 PUSH1 0x92 SHL PUSH1 0x44 DUP3 ADD MSTORE PUSH1 0x64 ADD PUSH2 0xE9B JUMP JUMPDEST PUSH1 0x3 DUP2 ADD DUP1 SLOAD PUSH1 0xFF NOT AND PUSH1 0x1 OR SWAP1 SSTORE TIMESTAMP PUSH1 0x4 DUP3 ADD SSTORE PUSH1 0x5 DUP2 ADD SLOAD PUSH0 DUP3 SLOAD PUSH1 0xFF AND PUSH1 0x1 DUP2 GT ISZERO PUSH2 0x11FA JUMPI PUSH2 0x11FA PUSH2 0x3B28 JUMP JUMPDEST SUB PUSH2 0x12B8 JUMPI DUP2 PUSH1 0x1 ADD SLOAD PUSH1 0x14 PUSH0 DUP3 DUP3 SLOAD PUSH2 0x1214 SWAP2 SWAP1 PUSH2 0x3E8C JUMP JUMPDEST SWAP1 SWAP2 SSTORE POP POP PUSH1 0x1 DUP3 ADD SLOAD PUSH0 SWAP1 CALLER SWAP1 PUSH2 0x122D SWAP1 DUP5 SWAP1 PUSH2 0x3E8C JUMP JUMPDEST PUSH1 0x40 MLOAD PUSH0 DUP2 DUP2 DUP2 DUP6 DUP8 GAS CALL SWAP3 POP POP POP RETURNDATASIZE DUP1 PUSH0 DUP2 EQ PUSH2 0x1266 JUMPI PUSH1 0x40 MLOAD SWAP2 POP PUSH1 0x1F NOT PUSH1 0x3F RETURNDATASIZE ADD AND DUP3 ADD PUSH1 0x40 MSTORE RETURNDATASIZE DUP3 MSTORE RETURNDATASIZE PUSH0 PUSH1 0x20 DUP5 ADD RETURNDATACOPY PUSH2 0x126B JUMP JUMPDEST PUSH1 0x60 SWAP2 POP JUMPDEST POP POP SWAP1 POP DUP1 PUSH2 0x12B2 JUMPI PUSH1 0x40 MLOAD PUSH3 0x461BCD PUSH1 0xE5 SHL DUP2 MSTORE PUSH1 0x20 PUSH1 0x4 DUP3 ADD MSTORE PUSH1 0x13 PUSH1 0x24 DUP3 ADD MSTORE PUSH19 0x115512081D1C985B9CD9995C8819985A5B1959 PUSH1 0x6A SHL PUSH1 0x44 DUP3 ADD MSTORE PUSH1 0x64 ADD PUSH2 0xE9B JUMP JUMPDEST POP PUSH2 0x138B JUMP JUMPDEST PUSH1 0x1 DUP3 SLOAD PUSH1 0xFF AND PUSH1 0x1 DUP2 GT ISZERO PUSH2 0x12D0 JUMPI PUSH2 0x12D0 PUSH2 0x3B28 JUMP JUMPDEST SUB PUSH2 0x138B JUMPI DUP2 PUSH1 0x1 ADD SLOAD PUSH1 0x15 PUSH0 DUP3 DUP3 SLOAD PUSH2 0x12EA SWAP2 SWAP1 PUSH2 0x3E8C JUMP JUMPDEST SWAP1 SWAP2 SSTORE POP POP PUSH1 0x1 DUP3 ADD SLOAD PUSH20 0x833589FCD6EDB6E08F4C7C32D4F71B54BDA02913 SWAP1 PUSH4 0xA9059CBB SWAP1 CALLER SWAP1 PUSH2 0x131D SWAP1 DUP6 SWAP1 PUSH2 0x3E8C JUMP JUMPDEST PUSH1 0x40 MLOAD PUSH1 0x1 PUSH1 0x1 PUSH1 0xE0 SHL SUB NOT PUSH1 0xE0 DUP6 SWAP1 SHL AND DUP2 MSTORE PUSH1 0x1 PUSH1 0x1 PUSH1 0xA0 SHL SUB SWAP1 SWAP3 AND PUSH1 0x4 DUP4 ADD MSTORE PUSH1 0x24 DUP3 ADD MSTORE PUSH1 0x44 ADD PUSH1 0x20 PUSH1 0x40 MLOAD DUP1 DUP4 SUB DUP2 PUSH0 DUP8 GAS CALL ISZERO DUP1 ISZERO PUSH2 0x1365 JUMPI RETURNDATASIZE PUSH0 DUP1 RETURNDATACOPY RETURNDATASIZE PUSH0 REVERT JUMPDEST POP POP POP POP PUSH1 0x40 MLOAD RETURNDATASIZE PUSH1 0x1F NOT PUSH1 0x1F DUP3 ADD AND DUP3 ADD DUP1 PUSH1 0x40 MSTORE POP DUP2 ADD SWAP1 PUSH2 0x1389 SWAP2 SWAP1 PUSH2 0x3ED2 JUMP JUMPDEST POP JUMPDEST CALLER PUSH0 SWAP1 DUP2 MSTORE PUSH1 0xA PUSH1 0x20 MSTORE PUSH1 0x40 SWAP1 KECCAK256 SLOAD PUSH1 0xFF AND PUSH2 0x13FB JUMPI PUSH1 0x10 DUP1 SLOAD PUSH1 0x1 DUP2 DUP2 ADD SWAP1 SWAP3 SSTORE PUSH32 0x1B6847DC741A1B0CD08D278845F9D819D87B734759AFB55FE2DE5CB82A9AE672 ADD DUP1 SLOAD PUSH1 0x1 PUSH1 0x1 PUSH1 0xA0 SHL SUB NOT AND CALLER SWAP1 DUP2 OR SWAP1 SWAP2 SSTORE PUSH0 SWAP1 DUP2 MSTORE PUSH1 0xA PUSH1 0x20 MSTORE PUSH1 0x40 SWAP1 KECCAK256 DUP1 SLOAD PUSH1 0xFF NOT AND SWAP1 SWAP2 OR SWAP1 SSTORE JUMPDEST DUP2 SLOAD PUSH1 0x1 DUP4 ADD SLOAD PUSH1 0x40 MLOAD CALLER SWAP3 PUSH32 0xCB034B37EF3764745C35BAFECD525367BCF312E9010239E6AEEBBE6BCF57727F SWAP3 PUSH2 0x143E SWAP3 PUSH1 0xFF SWAP1 SWAP3 AND SWAP2 DUP7 SWAP1 TIMESTAMP SWAP1 DUP11 SWAP1 PUSH2 0x3EED JUMP JUMPDEST PUSH1 0x40 MLOAD DUP1 SWAP2 SUB SWAP1 LOG2 POP POP PUSH2 0x1451 PUSH1 0x1 DUP1 SSTORE JUMP JUMPDEST POP JUMP JUMPDEST PUSH0 DUP3 DUP2 MSTORE PUSH1 0x20 DUP2 SWAP1 MSTORE PUSH1 0x40 SWAP1 KECCAK256 PUSH1 0x1 ADD SLOAD PUSH2 0x146E DUP2 PUSH2 0x3685 JUMP JUMPDEST PUSH2 0x1478 DUP4 DUP4 PUSH2 0x38FC JUMP JUMPDEST POP POP POP POP JUMP JUMPDEST PUSH1 0x1 PUSH1 0x1 PUSH1 0xA0 SHL SUB DUP2 AND CALLER EQ PUSH2 0x14A7 JUMPI PUSH1 0x40 MLOAD PUSH4 0x334BD919 PUSH1 0xE1 SHL DUP2 MSTORE PUSH1 0x4 ADD PUSH1 0x40 MLOAD DUP1 SWAP2 SUB SWAP1 REVERT JUMPDEST PUSH2 0x14B1 DUP3 DUP3 PUSH2 0x39A3 JUMP JUMPDEST POP POP POP JUMP JUMPDEST PUSH0 DUP1 MLOAD PUSH1 0x20 PUSH2 0x4037 DUP4 CODECOPY DUP2 MLOAD SWAP2 MSTORE PUSH2 0x14CD DUP2 PUSH2 0x3685 JUMP JUMPDEST DUP4 DUP3 EQ PUSH2 0x1507 JUMPI PUSH1 0x40 MLOAD PUSH3 0x461BCD PUSH1 0xE5 SHL DUP2 MSTORE PUSH1 0x20 PUSH1 0x4 DUP3 ADD MSTORE PUSH1 0x8 PUSH1 0x24 DUP3 ADD MSTORE PUSH8 0x9AD2E6DAC2E8C6D PUSH1 0xC3 SHL PUSH1 0x44 DUP3 ADD MSTORE PUSH1 0x64 ADD PUSH2 0xE9B JUMP JUMPDEST PUSH0 DUP1 JUMPDEST DUP6 DUP2 LT ISZERO PUSH2 0x1606 JUMPI PUSH0 DUP6 DUP6 DUP4 DUP2 DUP2 LT PUSH2 0x1525 JUMPI PUSH2 0x1525 PUSH2 0x3EBE JUMP JUMPDEST SWAP1 POP PUSH1 0x20 MUL ADD CALLDATALOAD GT PUSH2 0x1562 JUMPI PUSH1 0x40 MLOAD PUSH3 0x461BCD PUSH1 0xE5 SHL DUP2 MSTORE PUSH1 0x4 ADD PUSH2 0xE9B SWAP1 PUSH1 0x20 DUP1 DUP3 MSTORE PUSH1 0x4 SWAP1 DUP3 ADD MSTORE PUSH4 0x5A65726F PUSH1 0xE0 SHL PUSH1 0x40 DUP3 ADD MSTORE PUSH1 0x60 ADD SWAP1 JUMP JUMPDEST DUP5 DUP5 DUP3 DUP2 DUP2 LT PUSH2 0x1574 JUMPI PUSH2 0x1574 PUSH2 0x3EBE JUMP JUMPDEST SWAP1 POP PUSH1 0x20 MUL ADD CALLDATALOAD PUSH1 0xC PUSH0 DUP10 DUP10 DUP6 DUP2 DUP2 LT PUSH2 0x1590 JUMPI PUSH2 0x1590 PUSH2 0x3EBE JUMP JUMPDEST SWAP1 POP PUSH1 0x20 MUL ADD PUSH1 0x20 DUP2 ADD SWAP1 PUSH2 0x15A5 SWAP2 SWAP1 PUSH2 0x3ABF JUMP JUMPDEST PUSH1 0x1 PUSH1 0x1 PUSH1 0xA0 SHL SUB AND PUSH1 0x1 PUSH1 0x1 PUSH1 0xA0 SHL SUB AND DUP2 MSTORE PUSH1 0x20 ADD SWAP1 DUP2 MSTORE PUSH1 0x20 ADD PUSH0 KECCAK256 PUSH0 DUP3 DUP3 SLOAD PUSH2 0x15D2 SWAP2 SWAP1 PUSH2 0x3E8C JUMP JUMPDEST SWAP1 SWAP2 SSTORE POP DUP6 SWAP1 POP DUP5 DUP3 DUP2 DUP2 LT PUSH2 0x15EA JUMPI PUSH2 0x15EA PUSH2 0x3EBE JUMP JUMPDEST SWAP1 POP PUSH1 0x20 MUL ADD CALLDATALOAD DUP3 PUSH2 0x15FC SWAP2 SWAP1 PUSH2 0x3E8C JUMP JUMPDEST SWAP2 POP PUSH1 0x1 ADD PUSH2 0x150A JUMP JUMPDEST POP PUSH1 0x17 SLOAD DUP2 GT ISZERO PUSH2 0x1648 JUMPI PUSH1 0x40 MLOAD PUSH3 0x461BCD PUSH1 0xE5 SHL DUP2 MSTORE PUSH1 0x20 PUSH1 0x4 DUP3 ADD MSTORE PUSH1 0xC PUSH1 0x24 DUP3 ADD MSTORE PUSH12 0x115E18D959591CC81C1BDBDB PUSH1 0xA2 SHL PUSH1 0x44 DUP3 ADD MSTORE PUSH1 0x64 ADD PUSH2 0xE9B JUMP JUMPDEST DUP1 PUSH1 0x17 PUSH0 DUP3 DUP3 SLOAD PUSH2 0x1659 SWAP2 SWAP1 PUSH2 0x3F1D JUMP JUMPDEST SWAP1 SWAP2 SSTORE POP POP POP POP POP POP POP POP JUMP JUMPDEST PUSH0 DUP1 MLOAD PUSH1 0x20 PUSH2 0x4037 DUP4 CODECOPY DUP2 MLOAD SWAP2 MSTORE PUSH2 0x167D DUP2 PUSH2 0x3685 JUMP JUMPDEST DUP4 DUP3 EQ PUSH2 0x16B7 JUMPI PUSH1 0x40 MLOAD PUSH3 0x461BCD PUSH1 0xE5 SHL DUP2 MSTORE PUSH1 0x20 PUSH1 0x4 DUP3 ADD MSTORE PUSH1 0x8 PUSH1 0x24 DUP3 ADD MSTORE PUSH8 0x9AD2E6DAC2E8C6D PUSH1 0xC3 SHL PUSH1 0x44 DUP3 ADD MSTORE PUSH1 0x64 ADD PUSH2 0xE9B JUMP JUMPDEST PUSH0 JUMPDEST DUP5 DUP2 LT ISZERO PUSH2 0x17CC JUMPI DUP4 DUP4 DUP3 DUP2 DUP2 LT PUSH2 0x16D3 JUMPI PUSH2 0x16D3 PUSH2 0x3EBE JUMP JUMPDEST SWAP1 POP PUSH1 0x20 MUL ADD PUSH1 0x20 DUP2 ADD SWAP1 PUSH2 0x16E8 SWAP2 SWAP1 PUSH2 0x3AE5 JUMP JUMPDEST PUSH1 0x9 PUSH0 DUP9 DUP9 DUP6 DUP2 DUP2 LT PUSH2 0x16FD JUMPI PUSH2 0x16FD PUSH2 0x3EBE JUMP JUMPDEST SWAP1 POP PUSH1 0x20 MUL ADD PUSH1 0x20 DUP2 ADD SWAP1 PUSH2 0x1712 SWAP2 SWAP1 PUSH2 0x3ABF JUMP JUMPDEST PUSH1 0x1 PUSH1 0x1 PUSH1 0xA0 SHL SUB AND DUP2 MSTORE PUSH1 0x20 DUP2 ADD SWAP2 SWAP1 SWAP2 MSTORE PUSH1 0x40 ADD PUSH0 KECCAK256 DUP1 SLOAD PUSH1 0xFF NOT AND SWAP2 ISZERO ISZERO SWAP2 SWAP1 SWAP2 OR SWAP1 SSTORE DUP6 DUP6 DUP3 DUP2 DUP2 LT PUSH2 0x174B JUMPI PUSH2 0x174B PUSH2 0x3EBE JUMP JUMPDEST SWAP1 POP PUSH1 0x20 MUL ADD PUSH1 0x20 DUP2 ADD SWAP1 PUSH2 0x1760 SWAP2 SWAP1 PUSH2 0x3ABF JUMP JUMPDEST PUSH1 0x1 PUSH1 0x1 PUSH1 0xA0 SHL SUB AND PUSH32 0x995D2434D36C9BCEAAB42C56EFE51E8FFE41FD11CABEFD9E2CB83700D8B2035E DUP6 DUP6 DUP5 DUP2 DUP2 LT PUSH2 0x179C JUMPI PUSH2 0x179C PUSH2 0x3EBE JUMP JUMPDEST SWAP1 POP PUSH1 0x20 MUL ADD PUSH1 0x20 DUP2 ADD SWAP1 PUSH2 0x17B1 SWAP2 SWAP1 PUSH2 0x3AE5 JUMP JUMPDEST PUSH1 0x40 MLOAD SWAP1 ISZERO ISZERO DUP2 MSTORE PUSH1 0x20 ADD PUSH1 0x40 MLOAD DUP1 SWAP2 SUB SWAP1 LOG2 PUSH1 0x1 ADD PUSH2 0x16B9 JUMP JUMPDEST POP POP POP POP POP POP JUMP JUMPDEST PUSH1 0x1 PUSH1 0x1 PUSH1 0xA0 SHL SUB DUP2 AND PUSH0 SWAP1 DUP2 MSTORE PUSH1 0x8 PUSH1 0x20 MSTORE PUSH1 0x40 DUP2 KECCAK256 DUP2 SWAP1 DUP2 SWAP1 DUP2 SWAP1 DUP2 SWAP1 DUP2 SWAP1 DUP2 SWAP1 DUP2 SWAP1 DUP2 JUMPDEST DUP2 SLOAD DUP2 LT ISZERO PUSH2 0x1A6A JUMPI PUSH0 DUP3 DUP3 DUP2 SLOAD DUP2 LT PUSH2 0x1817 JUMPI PUSH2 0x1817 PUSH2 0x3EBE JUMP JUMPDEST PUSH0 SWAP2 DUP3 MSTORE PUSH1 0x20 SWAP1 SWAP2 KECCAK256 PUSH1 0x6 SWAP1 SWAP2 MUL ADD SLOAD PUSH1 0xFF AND PUSH1 0x1 DUP2 GT ISZERO PUSH2 0x183B JUMPI PUSH2 0x183B PUSH2 0x3B28 JUMP JUMPDEST SUB PUSH2 0x1935 JUMPI DUP2 DUP2 DUP2 SLOAD DUP2 LT PUSH2 0x1852 JUMPI PUSH2 0x1852 PUSH2 0x3EBE JUMP JUMPDEST SWAP1 PUSH0 MSTORE PUSH1 0x20 PUSH0 KECCAK256 SWAP1 PUSH1 0x6 MUL ADD PUSH1 0x1 ADD SLOAD DUP11 PUSH2 0x186D SWAP2 SWAP1 PUSH2 0x3E8C JUMP JUMPDEST SWAP10 POP DUP2 DUP2 DUP2 SLOAD DUP2 LT PUSH2 0x1881 JUMPI PUSH2 0x1881 PUSH2 0x3EBE JUMP JUMPDEST PUSH0 SWAP2 DUP3 MSTORE PUSH1 0x20 SWAP1 SWAP2 KECCAK256 PUSH1 0x3 PUSH1 0x6 SWAP1 SWAP3 MUL ADD ADD SLOAD PUSH1 0xFF AND ISZERO PUSH2 0x18CC JUMPI DUP2 DUP2 DUP2 SLOAD DUP2 LT PUSH2 0x18AE JUMPI PUSH2 0x18AE PUSH2 0x3EBE JUMP JUMPDEST SWAP1 PUSH0 MSTORE PUSH1 0x20 PUSH0 KECCAK256 SWAP1 PUSH1 0x6 MUL ADD PUSH1 0x1 ADD SLOAD DUP9 PUSH2 0x18C9 SWAP2 SWAP1 PUSH2 0x3E8C JUMP JUMPDEST SWAP8 POP JUMPDEST DUP2 DUP2 DUP2 SLOAD DUP2 LT PUSH2 0x18DE JUMPI PUSH2 0x18DE PUSH2 0x3EBE JUMP JUMPDEST SWAP1 PUSH0 MSTORE PUSH1 0x20 PUSH0 KECCAK256 SWAP1 PUSH1 0x6 MUL ADD PUSH1 0x3 ADD PUSH1 0x3 SWAP1 SLOAD SWAP1 PUSH2 0x100 EXP SWAP1 DIV PUSH1 0xFF AND ISZERO PUSH2 0x1930 JUMPI DUP2 DUP2 DUP2 SLOAD DUP2 LT PUSH2 0x1912 JUMPI PUSH2 0x1912 PUSH2 0x3EBE JUMP JUMPDEST SWAP1 PUSH0 MSTORE PUSH1 0x20 PUSH0 KECCAK256 SWAP1 PUSH1 0x6 MUL ADD PUSH1 0x1 ADD SLOAD DUP5 PUSH2 0x192D SWAP2 SWAP1 PUSH2 0x3E8C JUMP JUMPDEST SWAP4 POP JUMPDEST PUSH2 0x1A62 JUMP JUMPDEST PUSH1 0x1 DUP3 DUP3 DUP2 SLOAD DUP2 LT PUSH2 0x1949 JUMPI PUSH2 0x1949 PUSH2 0x3EBE JUMP JUMPDEST PUSH0 SWAP2 DUP3 MSTORE PUSH1 0x20 SWAP1 SWAP2 KECCAK256 PUSH1 0x6 SWAP1 SWAP2 MUL ADD SLOAD PUSH1 0xFF AND PUSH1 0x1 DUP2 GT ISZERO PUSH2 0x196D JUMPI PUSH2 0x196D PUSH2 0x3B28 JUMP JUMPDEST SUB PUSH2 0x1A62 JUMPI DUP2 DUP2 DUP2 SLOAD DUP2 LT PUSH2 0x1984 JUMPI PUSH2 0x1984 PUSH2 0x3EBE JUMP JUMPDEST SWAP1 PUSH0 MSTORE PUSH1 0x20 PUSH0 KECCAK256 SWAP1 PUSH1 0x6 MUL ADD PUSH1 0x1 ADD SLOAD DUP10 PUSH2 0x199F SWAP2 SWAP1 PUSH2 0x3E8C JUMP JUMPDEST SWAP9 POP DUP2 DUP2 DUP2 SLOAD DUP2 LT PUSH2 0x19B3 JUMPI PUSH2 0x19B3 PUSH2 0x3EBE JUMP JUMPDEST PUSH0 SWAP2 DUP3 MSTORE PUSH1 0x20 SWAP1 SWAP2 KECCAK256 PUSH1 0x3 PUSH1 0x6 SWAP1 SWAP3 MUL ADD ADD SLOAD PUSH1 0xFF AND ISZERO PUSH2 0x19FE JUMPI DUP2 DUP2 DUP2 SLOAD DUP2 LT PUSH2 0x19E0 JUMPI PUSH2 0x19E0 PUSH2 0x3EBE JUMP JUMPDEST SWAP1 PUSH0 MSTORE PUSH1 0x20 PUSH0 KECCAK256 SWAP1 PUSH1 0x6 MUL ADD PUSH1 0x1 ADD SLOAD DUP8 PUSH2 0x19FB SWAP2 SWAP1 PUSH2 0x3E8C JUMP JUMPDEST SWAP7 POP JUMPDEST DUP2 DUP2 DUP2 SLOAD DUP2 LT PUSH2 0x1A10 JUMPI PUSH2 0x1A10 PUSH2 0x3EBE JUMP JUMPDEST SWAP1 PUSH0 MSTORE PUSH1 0x20 PUSH0 KECCAK256 SWAP1 PUSH1 0x6 MUL ADD PUSH1 0x3 ADD PUSH1 0x3 SWAP1 SLOAD SWAP1 PUSH2 0x100 EXP SWAP1 DIV PUSH1 0xFF AND ISZERO PUSH2 0x1A62 JUMPI DUP2 DUP2 DUP2 SLOAD DUP2 LT PUSH2 0x1A44 JUMPI PUSH2 0x1A44 PUSH2 0x3EBE JUMP JUMPDEST SWAP1 PUSH0 MSTORE PUSH1 0x20 PUSH0 KECCAK256 SWAP1 PUSH1 0x6 MUL ADD PUSH1 0x1 ADD SLOAD DUP4 PUSH2 0x1A5F SWAP2 SWAP1 PUSH2 0x3E8C JUMP JUMPDEST SWAP3 POP JUMPDEST PUSH1 0x1 ADD PUSH2 0x17FB JUMP JUMPDEST POP POP PUSH1 0x1 PUSH1 0x1 PUSH1 0xA0 SHL SUB SWAP1 SWAP9 AND PUSH0 SWAP1 DUP2 MSTORE PUSH1 0xB PUSH1 0x20 SWAP1 DUP2 MSTORE PUSH1 0x40 DUP1 DUP4 KECCAK256 SLOAD PUSH1 0xC SWAP1 SWAP3 MSTORE SWAP1 SWAP2 KECCAK256 SLOAD SWAP8 SWAP10 SWAP7 SWAP9 SWAP6 SWAP8 SWAP5 SWAP7 SWAP1 SWAP6 SWAP2 SWAP4 POP SWAP1 SWAP2 POP JUMP JUMPDEST PUSH0 DUP1 MLOAD PUSH1 0x20 PUSH2 0x4037 DUP4 CODECOPY DUP2 MLOAD SWAP2 MSTORE PUSH2 0x1ABA DUP2 PUSH2 0x3685 JUMP JUMPDEST PUSH1 0x1 PUSH1 0x1 PUSH1 0xA0 SHL SUB DUP4 AND PUSH0 DUP2 DUP2 MSTORE PUSH1 0x9 PUSH1 0x20 SWAP1 DUP2 MSTORE PUSH1 0x40 SWAP2 DUP3 SWAP1 KECCAK256 DUP1 SLOAD PUSH1 0xFF NOT AND DUP7 ISZERO ISZERO SWAP1 DUP2 OR SWAP1 SWAP2 SSTORE SWAP2 MLOAD SWAP2 DUP3 MSTORE PUSH32 0x995D2434D36C9BCEAAB42C56EFE51E8FFE41FD11CABEFD9E2CB83700D8B2035E SWAP2 ADD PUSH1 0x40 MLOAD DUP1 SWAP2 SUB SWAP1 LOG2 POP POP POP JUMP JUMPDEST PUSH32 0xF60566C40710959D8D30B6067CE3C53C757BEC78EECB0E46B83C7F8194FFAE37 PUSH2 0x1B43 DUP2 PUSH2 0x3685 JUMP JUMPDEST PUSH0 CALLVALUE GT PUSH2 0x1B80 JUMPI PUSH1 0x40 MLOAD PUSH3 0x461BCD PUSH1 0xE5 SHL DUP2 MSTORE PUSH1 0x20 PUSH1 0x4 DUP3 ADD MSTORE PUSH1 0xB PUSH1 0x24 DUP3 ADD MSTORE PUSH11 0x139BC8115512081CD95B9D PUSH1 0xAA SHL PUSH1 0x44 DUP3 ADD MSTORE PUSH1 0x64 ADD PUSH2 0xE9B JUMP JUMPDEST CALLVALUE PUSH1 0x16 PUSH0 DUP3 DUP3 SLOAD PUSH2 0x1B91 SWAP2 SWAP1 PUSH2 0x3E8C JUMP JUMPDEST SWAP1 SWAP2 SSTORE POP POP PUSH1 0x40 MLOAD CALLER SWAP1 PUSH32 0x8BAFEC96FCFFB6F12596B4635C76397B7BC1F363B22C49C13136B63677323DCC SWAP1 PUSH2 0x1BCC SWAP1 PUSH0 SWAP1 CALLVALUE SWAP1 TIMESTAMP SWAP1 PUSH2 0x3E9F JUMP JUMPDEST PUSH1 0x40 MLOAD DUP1 SWAP2 SUB SWAP1 LOG2 POP JUMP JUMPDEST PUSH32 0x65D7A28E3265B37A6474929F336521B332C1681B933F6CB9F3376673440D862A PUSH2 0x1C01 DUP2 PUSH2 0x3685 JUMP JUMPDEST PUSH1 0x5 DUP1 SLOAD DUP4 ISZERO ISZERO PUSH2 0x100 DUP2 MUL PUSH2 0xFF00 NOT DUP8 ISZERO ISZERO SWAP1 DUP2 AND PUSH2 0xFFFF NOT SWAP1 SWAP5 AND SWAP4 SWAP1 SWAP4 OR OR SWAP1 SWAP3 SSTORE PUSH1 0x40 DUP1 MLOAD SWAP2 DUP3 MSTORE PUSH1 0x20 DUP3 ADD SWAP3 SWAP1 SWAP3 MSTORE PUSH32 0xAC1664632D6278432AA05A6AFC0AA83E5EA08E8DF9A1436736DAA5D6283211C0 SWAP2 ADD JUMPDEST PUSH1 0x40 MLOAD DUP1 SWAP2 SUB SWAP1 LOG1 POP POP POP JUMP JUMPDEST PUSH2 0x1C6E PUSH2 0x368F JUMP JUMPDEST CALLER PUSH0 SWAP1 DUP2 MSTORE PUSH1 0xC PUSH1 0x20 MSTORE PUSH1 0x40 SWAP1 KECCAK256 SLOAD DUP1 PUSH2 0x1CB7 JUMPI PUSH1 0x40 MLOAD PUSH3 0x461BCD PUSH1 0xE5 SHL DUP2 MSTORE PUSH1 0x20 PUSH1 0x4 DUP3 ADD MSTORE PUSH1 0xA PUSH1 0x24 DUP3 ADD MSTORE PUSH10 0x4E6F207574696C697479 PUSH1 0xB0 SHL PUSH1 0x44 DUP3 ADD MSTORE PUSH1 0x64 ADD PUSH2 0xE9B JUMP JUMPDEST CALLER PUSH0 DUP2 DUP2 MSTORE PUSH1 0xC PUSH1 0x20 MSTORE PUSH1 0x40 DUP1 DUP3 KECCAK256 SWAP2 SWAP1 SWAP2 SSTORE MLOAD PUSH4 0xA9059CBB PUSH1 0xE0 SHL DUP2 MSTORE PUSH1 0x4 DUP2 ADD SWAP2 SWAP1 SWAP2 MSTORE PUSH1 0x24 DUP2 ADD DUP3 SWAP1 MSTORE PUSH20 0x833589FCD6EDB6E08F4C7C32D4F71B54BDA02913 SWAP1 PUSH4 0xA9059CBB SWAP1 PUSH1 0x44 ADD PUSH1 0x20 PUSH1 0x40 MLOAD DUP1 DUP4 SUB DUP2 PUSH0 DUP8 GAS CALL ISZERO DUP1 ISZERO PUSH2 0x1D1F JUMPI RETURNDATASIZE PUSH0 DUP1 RETURNDATACOPY RETURNDATASIZE PUSH0 REVERT JUMPDEST POP POP POP POP PUSH1 0x40 MLOAD RETURNDATASIZE PUSH1 0x1F NOT PUSH1 0x1F DUP3 ADD AND DUP3 ADD DUP1 PUSH1 0x40 MSTORE POP DUP2 ADD SWAP1 PUSH2 0x1D43 SWAP2 SWAP1 PUSH2 0x3ED2 JUMP JUMPDEST POP CALLER PUSH1 0x1 PUSH1 0x1 PUSH1 0xA0 SHL SUB AND PUSH32 0x6914793C7A82461ACEC66C7DE7FDBBBF1F825C26BC2FE939B61F0E4F8964C2B5 PUSH1 0x1 DUP4 TIMESTAMP PUSH1 0x40 MLOAD PUSH2 0xF31 SWAP4 SWAP3 SWAP2 SWAP1 PUSH2 0x3E9F JUMP JUMPDEST PUSH0 DUP1 MLOAD PUSH1 0x20 PUSH2 0x4037 DUP4 CODECOPY DUP2 MLOAD SWAP2 MSTORE PUSH2 0x1D99 DUP2 PUSH2 0x3685 JUMP JUMPDEST PUSH0 DUP3 GT PUSH2 0x1DD1 JUMPI PUSH1 0x40 MLOAD PUSH3 0x461BCD PUSH1 0xE5 SHL DUP2 MSTORE PUSH1 0x4 ADD PUSH2 0xE9B SWAP1 PUSH1 0x20 DUP1 DUP3 MSTORE PUSH1 0x4 SWAP1 DUP3 ADD MSTORE PUSH4 0x5A65726F PUSH1 0xE0 SHL PUSH1 0x40 DUP3 ADD MSTORE PUSH1 0x60 ADD SWAP1 JUMP JUMPDEST PUSH1 0x16 SLOAD DUP3 GT ISZERO PUSH2 0x1E12 JUMPI PUSH1 0x40 MLOAD PUSH3 0x461BCD PUSH1 0xE5 SHL DUP2 MSTORE PUSH1 0x20 PUSH1 0x4 DUP3 ADD MSTORE PUSH1 0xC PUSH1 0x24 DUP3 ADD MSTORE PUSH12 0x115E18D959591CC81C1BDBDB PUSH1 0xA2 SHL PUSH1 0x44 DUP3 ADD MSTORE PUSH1 0x64 ADD PUSH2 0xE9B JUMP JUMPDEST PUSH1 0x1 PUSH1 0x1 PUSH1 0xA0 SHL SUB DUP4 AND PUSH0 SWAP1 DUP2 MSTORE PUSH1 0xB PUSH1 0x20 MSTORE PUSH1 0x40 DUP2 KECCAK256 DUP1 SLOAD DUP5 SWAP3 SWAP1 PUSH2 0x1E39 SWAP1 DUP5 SWAP1 PUSH2 0x3E8C JUMP JUMPDEST SWAP3 POP POP DUP2 SWAP1 SSTORE POP DUP2 PUSH1 0x16 PUSH0 DUP3 DUP3 SLOAD PUSH2 0x1E51 SWAP2 SWAP1 PUSH2 0x3F1D JUMP JUMPDEST SWAP1 SWAP2 SSTORE POP POP POP POP POP JUMP JUMPDEST PUSH2 0x1E63 PUSH2 0x368F JUMP JUMPDEST PUSH1 0x5 SLOAD PUSH2 0x100 SWAP1 DIV PUSH1 0xFF AND ISZERO PUSH2 0x1EBB JUMPI PUSH1 0x40 MLOAD PUSH3 0x461BCD PUSH1 0xE5 SHL DUP2 MSTORE PUSH1 0x20 PUSH1 0x4 DUP3 ADD MSTORE PUSH1 0x12 PUSH1 0x24 DUP3 ADD MSTORE PUSH32 0x5769746864726177616C73207061757365640000000000000000000000000000 PUSH1 0x44 DUP3 ADD MSTORE PUSH1 0x64 ADD PUSH2 0xE9B JUMP JUMPDEST PUSH0 DUP1 PUSH0 DUP1 PUSH0 JUMPDEST DUP6 DUP2 LT ISZERO PUSH2 0x219C JUMPI CALLER PUSH0 SWAP1 DUP2 MSTORE PUSH1 0x8 PUSH1 0x20 MSTORE PUSH1 0x40 DUP2 KECCAK256 DUP9 DUP9 DUP5 DUP2 DUP2 LT PUSH2 0x1EE9 JUMPI PUSH2 0x1EE9 PUSH2 0x3EBE JUMP JUMPDEST SWAP1 POP PUSH1 0x20 MUL ADD CALLDATALOAD DUP2 SLOAD DUP2 LT PUSH2 0x1F00 JUMPI PUSH2 0x1F00 PUSH2 0x3EBE JUMP JUMPDEST PUSH0 SWAP2 DUP3 MSTORE PUSH1 0x20 SWAP1 SWAP2 KECCAK256 PUSH1 0x6 SWAP1 SWAP2 MUL ADD PUSH1 0x3 DUP2 ADD SLOAD SWAP1 SWAP2 POP PUSH1 0xFF AND ISZERO PUSH2 0x1F67 JUMPI PUSH1 0x40 MLOAD PUSH3 0x461BCD PUSH1 0xE5 SHL DUP2 MSTORE PUSH1 0x20 PUSH1 0x4 DUP3 ADD MSTORE PUSH1 0x11 PUSH1 0x24 DUP3 ADD MSTORE PUSH32 0x416C72656164792077697468647261776E000000000000000000000000000000 PUSH1 0x44 DUP3 ADD MSTORE PUSH1 0x64 ADD PUSH2 0xE9B JUMP JUMPDEST PUSH1 0x2 SLOAD DUP2 PUSH1 0x2 ADD SLOAD PUSH2 0x1F79 SWAP2 SWAP1 PUSH2 0x3E8C JUMP JUMPDEST TIMESTAMP LT ISZERO DUP1 PUSH2 0x1F90 JUMPI POP PUSH1 0x3 DUP2 ADD SLOAD PUSH2 0x100 SWAP1 DIV PUSH1 0xFF AND JUMPDEST DUP1 PUSH2 0x1FB9 JUMPI POP PUSH1 0x5 SLOAD PUSH4 0x1000000 SWAP1 DIV PUSH1 0xFF AND DUP1 ISZERO PUSH2 0x1FB9 JUMPI POP PUSH1 0x3 DUP2 ADD SLOAD PUSH3 0x10000 SWAP1 DIV PUSH1 0xFF AND JUMPDEST PUSH2 0x1FF6 JUMPI PUSH1 0x40 MLOAD PUSH3 0x461BCD PUSH1 0xE5 SHL DUP2 MSTORE PUSH1 0x20 PUSH1 0x4 DUP3 ADD MSTORE PUSH1 0xE PUSH1 0x24 DUP3 ADD MSTORE PUSH14 0x11195C1BDCDA5D081B1BD8DAD959 PUSH1 0x92 SHL PUSH1 0x44 DUP3 ADD MSTORE PUSH1 0x64 ADD PUSH2 0xE9B JUMP JUMPDEST PUSH1 0x3 DUP2 ADD DUP1 SLOAD PUSH1 0xFF NOT AND PUSH1 0x1 OR SWAP1 SSTORE TIMESTAMP PUSH1 0x4 DUP3 ADD SSTORE PUSH1 0x5 DUP2 ADD SLOAD PUSH0 DUP3 SLOAD PUSH1 0xFF AND PUSH1 0x1 DUP2 GT ISZERO PUSH2 0x2027 JUMPI PUSH2 0x2027 PUSH2 0x3B28 JUMP JUMPDEST SUB PUSH2 0x2068 JUMPI DUP2 PUSH1 0x1 ADD SLOAD PUSH1 0x14 PUSH0 DUP3 DUP3 SLOAD PUSH2 0x2041 SWAP2 SWAP1 PUSH2 0x3E8C JUMP JUMPDEST SWAP1 SWAP2 SSTORE POP POP PUSH1 0x1 DUP3 ADD SLOAD PUSH2 0x2055 SWAP1 DUP9 PUSH2 0x3E8C JUMP JUMPDEST SWAP7 POP PUSH2 0x2061 DUP2 DUP8 PUSH2 0x3E8C JUMP JUMPDEST SWAP6 POP PUSH2 0x20BD JUMP JUMPDEST PUSH1 0x1 DUP3 SLOAD PUSH1 0xFF AND PUSH1 0x1 DUP2 GT ISZERO PUSH2 0x2080 JUMPI PUSH2 0x2080 PUSH2 0x3B28 JUMP JUMPDEST SUB PUSH2 0x20BD JUMPI DUP2 PUSH1 0x1 ADD SLOAD PUSH1 0x15 PUSH0 DUP3 DUP3 SLOAD PUSH2 0x209A SWAP2 SWAP1 PUSH2 0x3E8C JUMP JUMPDEST SWAP1 SWAP2 SSTORE POP POP PUSH1 0x1 DUP3 ADD SLOAD PUSH2 0x20AE SWAP1 DUP7 PUSH2 0x3E8C JUMP JUMPDEST SWAP5 POP PUSH2 0x20BA DUP2 DUP6 PUSH2 0x3E8C JUMP JUMPDEST SWAP4 POP JUMPDEST CALLER PUSH0 SWAP1 DUP2 MSTORE PUSH1 0xA PUSH1 0x20 MSTORE PUSH1 0x40 SWAP1 KECCAK256 SLOAD PUSH1 0xFF AND PUSH2 0x212D JUMPI PUSH1 0x10 DUP1 SLOAD PUSH1 0x1 DUP2 DUP2 ADD SWAP1 SWAP3 SSTORE PUSH32 0x1B6847DC741A1B0CD08D278845F9D819D87B734759AFB55FE2DE5CB82A9AE672 ADD DUP1 SLOAD PUSH1 0x1 PUSH1 0x1 PUSH1 0xA0 SHL SUB NOT AND CALLER SWAP1 DUP2 OR SWAP1 SWAP2 SSTORE PUSH0 SWAP1 DUP2 MSTORE PUSH1 0xA PUSH1 0x20 MSTORE PUSH1 0x40 SWAP1 KECCAK256 DUP1 SLOAD PUSH1 0xFF NOT AND SWAP1 SWAP2 OR SWAP1 SSTORE JUMPDEST DUP2 SLOAD PUSH1 0x1 DUP4 ADD SLOAD CALLER SWAP2 PUSH32 0xCB034B37EF3764745C35BAFECD525367BCF312E9010239E6AEEBBE6BCF57727F SWAP2 PUSH1 0xFF SWAP1 SWAP2 AND SWAP1 DUP5 TIMESTAMP DUP15 DUP15 DUP11 DUP2 DUP2 LT PUSH2 0x2172 JUMPI PUSH2 0x2172 PUSH2 0x3EBE JUMP JUMPDEST SWAP1 POP PUSH1 0x20 MUL ADD CALLDATALOAD PUSH1 0x40 MLOAD PUSH2 0x218A SWAP6 SWAP5 SWAP4 SWAP3 SWAP2 SWAP1 PUSH2 0x3EED JUMP JUMPDEST PUSH1 0x40 MLOAD DUP1 SWAP2 SUB SWAP1 LOG2 POP POP PUSH1 0x1 ADD PUSH2 0x1EC1 JUMP JUMPDEST POP PUSH0 PUSH2 0x21A8 DUP5 DUP7 PUSH2 0x3E8C JUMP JUMPDEST GT ISZERO PUSH2 0x228C JUMPI PUSH0 CALLER PUSH2 0x21BA DUP6 DUP8 PUSH2 0x3E8C JUMP JUMPDEST PUSH1 0x40 MLOAD PUSH0 DUP2 DUP2 DUP2 DUP6 DUP8 GAS CALL SWAP3 POP POP POP RETURNDATASIZE DUP1 PUSH0 DUP2 EQ PUSH2 0x21F3 JUMPI PUSH1 0x40 MLOAD SWAP2 POP PUSH1 0x1F NOT PUSH1 0x3F RETURNDATASIZE ADD AND DUP3 ADD PUSH1 0x40 MSTORE RETURNDATASIZE DUP3 MSTORE RETURNDATASIZE PUSH0 PUSH1 0x20 DUP5 ADD RETURNDATACOPY PUSH2 0x21F8 JUMP JUMPDEST PUSH1 0x60 SWAP2 POP JUMPDEST POP POP SWAP1 POP DUP1 PUSH2 0x223F JUMPI PUSH1 0x40 MLOAD PUSH3 0x461BCD PUSH1 0xE5 SHL DUP2 MSTORE PUSH1 0x20 PUSH1 0x4 DUP3 ADD MSTORE PUSH1 0x13 PUSH1 0x24 DUP3 ADD MSTORE PUSH19 0x115512081D1C985B9CD9995C8819985A5B1959 PUSH1 0x6A SHL PUSH1 0x44 DUP3 ADD MSTORE PUSH1 0x64 ADD PUSH2 0xE9B JUMP JUMPDEST CALLER PUSH1 0x1 PUSH1 0x1 PUSH1 0xA0 SHL SUB AND PUSH32 0xBF06E98FE211A4B82F625232AB1C7A75CAEA5E0D624BC267578D6F22FCE788C3 PUSH0 DUP10 DUP10 DUP10 DUP10 TIMESTAMP PUSH1 0x40 MLOAD PUSH2 0x2282 SWAP7 SWAP6 SWAP5 SWAP4 SWAP3 SWAP2 SWAP1 PUSH2 0x3F79 JUMP JUMPDEST PUSH1 0x40 MLOAD DUP1 SWAP2 SUB SWAP1 LOG2 POP JUMPDEST PUSH0 PUSH2 0x2297 DUP3 DUP5 PUSH2 0x3E8C JUMP JUMPDEST GT ISZERO PUSH2 0x237C JUMPI PUSH20 0x833589FCD6EDB6E08F4C7C32D4F71B54BDA02913 PUSH4 0xA9059CBB CALLER PUSH2 0x22C2 DUP5 DUP7 PUSH2 0x3E8C JUMP JUMPDEST PUSH1 0x40 MLOAD PUSH1 0x1 PUSH1 0x1 PUSH1 0xE0 SHL SUB NOT PUSH1 0xE0 DUP6 SWAP1 SHL AND DUP2 MSTORE PUSH1 0x1 PUSH1 0x1 PUSH1 0xA0 SHL SUB SWAP1 SWAP3 AND PUSH1 0x4 DUP4 ADD MSTORE PUSH1 0x24 DUP3 ADD MSTORE PUSH1 0x44 ADD PUSH1 0x20 PUSH1 0x40 MLOAD DUP1 DUP4 SUB DUP2 PUSH0 DUP8 GAS CALL ISZERO DUP1 ISZERO PUSH2 0x230A JUMPI RETURNDATASIZE PUSH0 DUP1 RETURNDATACOPY RETURNDATASIZE PUSH0 REVERT JUMPDEST POP POP POP POP PUSH1 0x40 MLOAD RETURNDATASIZE PUSH1 0x1F NOT PUSH1 0x1F DUP3 ADD AND DUP3 ADD DUP1 PUSH1 0x40 MSTORE POP DUP2 ADD SWAP1 PUSH2 0x232E SWAP2 SWAP1 PUSH2 0x3ED2 JUMP JUMPDEST POP CALLER PUSH1 0x1 PUSH1 0x1 PUSH1 0xA0 SHL SUB AND PUSH32 0xBF06E98FE211A4B82F625232AB1C7A75CAEA5E0D624BC267578D6F22FCE788C3 PUSH1 0x1 DUP9 DUP9 DUP7 DUP7 TIMESTAMP PUSH1 0x40 MLOAD PUSH2 0x2373 SWAP7 SWAP6 SWAP5 SWAP4 SWAP3 SWAP2 SWAP1 PUSH2 0x3F79 JUMP JUMPDEST PUSH1 0x40 MLOAD DUP1 SWAP2 SUB SWAP1 LOG2 JUMPDEST POP POP POP POP PUSH2 0x2389 PUSH1 0x1 DUP1 SSTORE JUMP JUMPDEST POP POP JUMP JUMPDEST PUSH0 DUP1 MLOAD PUSH1 0x20 PUSH2 0x4037 DUP4 CODECOPY DUP2 MLOAD SWAP2 MSTORE PUSH2 0x23A4 DUP2 PUSH2 0x3685 JUMP JUMPDEST PUSH0 DUP3 GT PUSH2 0x23DC JUMPI PUSH1 0x40 MLOAD PUSH3 0x461BCD PUSH1 0xE5 SHL DUP2 MSTORE PUSH1 0x4 ADD PUSH2 0xE9B SWAP1 PUSH1 0x20 DUP1 DUP3 MSTORE PUSH1 0x4 SWAP1 DUP3 ADD MSTORE PUSH4 0x5A65726F PUSH1 0xE0 SHL PUSH1 0x40 DUP3 ADD MSTORE PUSH1 0x60 ADD SWAP1 JUMP JUMPDEST PUSH1 0x17 SLOAD DUP3 GT ISZERO PUSH2 0x241D JUMPI PUSH1 0x40 MLOAD PUSH3 0x461BCD PUSH1 0xE5 SHL DUP2 MSTORE PUSH1 0x20 PUSH1 0x4 DUP3 ADD MSTORE PUSH1 0xC PUSH1 0x24 DUP3 ADD MSTORE PUSH12 0x115E18D959591CC81C1BDBDB PUSH1 0xA2 SHL PUSH1 0x44 DUP3 ADD MSTORE PUSH1 0x64 ADD PUSH2 0xE9B JUMP JUMPDEST PUSH1 0x1 PUSH1 0x1 PUSH1 0xA0 SHL SUB DUP4 AND PUSH0 SWAP1 DUP2 MSTORE PUSH1 0xC PUSH1 0x20 MSTORE PUSH1 0x40 DUP2 KECCAK256 DUP1 SLOAD DUP5 SWAP3 SWAP1 PUSH2 0x2444 SWAP1 DUP5 SWAP1 PUSH2 0x3E8C JUMP JUMPDEST SWAP3 POP POP DUP2 SWAP1 SSTORE POP DUP2 PUSH1 0x17 PUSH0 DUP3 DUP3 SLOAD PUSH2 0x1E51 SWAP2 SWAP1 PUSH2 0x3F1D JUMP JUMPDEST PUSH32 0x78C90EB9E475048B483A290AEE04B5FE48355537C3623C7637B17D3BED71C6ED PUSH2 0x2486 DUP2 PUSH2 0x3685 JUMP JUMPDEST PUSH2 0x248E PUSH2 0x368F JUMP JUMPDEST PUSH1 0x7 SLOAD PUSH1 0x1 PUSH1 0x1 PUSH1 0xA0 SHL SUB AND PUSH2 0x24E6 JUMPI PUSH1 0x40 MLOAD PUSH3 0x461BCD PUSH1 0xE5 SHL DUP2 MSTORE PUSH1 0x20 PUSH1 0x4 DUP3 ADD MSTORE PUSH1 0x17 PUSH1 0x24 DUP3 ADD MSTORE PUSH32 0x5574696C6974792061646472657373206E6F7420736574000000000000000000 PUSH1 0x44 DUP3 ADD MSTORE PUSH1 0x64 ADD PUSH2 0xE9B JUMP JUMPDEST PUSH1 0x7 SLOAD PUSH1 0x40 MLOAD PUSH4 0xA9059CBB PUSH1 0xE0 SHL DUP2 MSTORE PUSH1 0x1 PUSH1 0x1 PUSH1 0xA0 SHL SUB SWAP1 SWAP2 AND PUSH1 0x4 DUP3 ADD MSTORE PUSH1 0x24 DUP2 ADD DUP4 SWAP1 MSTORE PUSH20 0x833589FCD6EDB6E08F4C7C32D4F71B54BDA02913 SWAP1 PUSH4 0xA9059CBB SWAP1 PUSH1 0x44 ADD PUSH1 0x20 PUSH1 0x40 MLOAD DUP1 DUP4 SUB DUP2 PUSH0 DUP8 GAS CALL ISZERO DUP1 ISZERO PUSH2 0x2548 JUMPI RETURNDATASIZE PUSH0 DUP1 RETURNDATACOPY RETURNDATASIZE PUSH0 REVERT JUMPDEST POP POP POP POP PUSH1 0x40 MLOAD RETURNDATASIZE PUSH1 0x1F NOT PUSH1 0x1F DUP3 ADD AND DUP3 ADD DUP1 PUSH1 0x40 MSTORE POP DUP2 ADD SWAP1 PUSH2 0x256C SWAP2 SWAP1 PUSH2 0x3ED2 JUMP JUMPDEST POP PUSH1 0x7 SLOAD PUSH1 0x40 MLOAD PUSH1 0x1 PUSH1 0x1 PUSH1 0xA0 SHL SUB SWAP1 SWAP2 AND SWAP1 PUSH32 0x9ADBDC797ACA3CE26A722598F00149B2328FD124444E6D0B10C4BDC7CFC38196 SWAP1 PUSH2 0x25B1 SWAP1 PUSH1 0x1 SWAP1 DUP7 SWAP1 TIMESTAMP SWAP1 PUSH2 0x3E9F JUMP JUMPDEST PUSH1 0x40 MLOAD DUP1 SWAP2 SUB SWAP1 LOG2 PUSH2 0x2389 PUSH1 0x1 DUP1 SSTORE JUMP JUMPDEST PUSH32 0xC806897CAF4FD5068191157E44D3988E43139A37E0B97B6793E1ED1184140604 PUSH2 0x25EC DUP2 PUSH2 0x3685 JUMP JUMPDEST PUSH0 JUMPDEST DUP3 DUP2 LT ISZERO PUSH2 0x26CB JUMPI PUSH1 0x1 PUSH1 0x1 PUSH1 0xA0 SHL SUB DUP6 AND PUSH0 SWAP1 DUP2 MSTORE PUSH1 0x8 PUSH1 0x20 MSTORE PUSH1 0x40 DUP2 KECCAK256 DUP6 DUP6 DUP5 DUP2 DUP2 LT PUSH2 0x261F JUMPI PUSH2 0x261F PUSH2 0x3EBE JUMP JUMPDEST SWAP1 POP PUSH1 0x20 MUL ADD CALLDATALOAD DUP2 SLOAD DUP2 LT PUSH2 0x2636 JUMPI PUSH2 0x2636 PUSH2 0x3EBE JUMP JUMPDEST PUSH0 SWAP2 DUP3 MSTORE PUSH1 0x20 SWAP1 SWAP2 KECCAK256 PUSH1 0x6 SWAP1 SWAP2 MUL ADD PUSH1 0x3 DUP2 ADD SLOAD SWAP1 SWAP2 POP PUSH1 0xFF AND ISZERO DUP1 ISZERO PUSH2 0x2667 JUMPI POP PUSH1 0x3 DUP2 ADD SLOAD PUSH2 0x100 SWAP1 DIV PUSH1 0xFF AND ISZERO JUMPDEST PUSH2 0x26B3 JUMPI PUSH1 0x40 MLOAD PUSH3 0x461BCD PUSH1 0xE5 SHL DUP2 MSTORE PUSH1 0x20 PUSH1 0x4 DUP3 ADD MSTORE PUSH1 0x1A PUSH1 0x24 DUP3 ADD MSTORE PUSH32 0x416C726561647920756E6C6F636B65642F77697468647261776E000000000000 PUSH1 0x44 DUP3 ADD MSTORE PUSH1 0x64 ADD PUSH2 0xE9B JUMP JUMPDEST PUSH1 0x3 ADD DUP1 SLOAD PUSH2 0xFF00 NOT AND PUSH2 0x100 OR SWAP1 SSTORE PUSH1 0x1 ADD PUSH2 0x25EE JUMP JUMPDEST POP DUP4 PUSH1 0x1 PUSH1 0x1 PUSH1 0xA0 SHL SUB AND PUSH32 0x8B655A966F162E1D3686EA25CD61682331984AB5662B451DEFF96F12D716F45B DUP5 DUP5 PUSH1 0x40 MLOAD PUSH2 0x2707 SWAP3 SWAP2 SWAP1 PUSH2 0x3FB7 JUMP JUMPDEST PUSH1 0x40 MLOAD DUP1 SWAP2 SUB SWAP1 LOG2 POP POP POP POP JUMP JUMPDEST PUSH0 DUP1 MLOAD PUSH1 0x20 PUSH2 0x4037 DUP4 CODECOPY DUP2 MLOAD SWAP2 MSTORE PUSH2 0x272C DUP2 PUSH2 0x3685 JUMP JUMPDEST PUSH1 0x1 PUSH1 0x1 PUSH1 0xA0 SHL SUB DUP3 AND PUSH2 0x2771 JUMPI PUSH1 0x40 MLOAD PUSH3 0x461BCD PUSH1 0xE5 SHL DUP2 MSTORE PUSH1 0x20 PUSH1 0x4 DUP3 ADD MSTORE PUSH1 0xC PUSH1 0x24 DUP3 ADD MSTORE PUSH12 0x5A65726F2061646472657373 PUSH1 0xA0 SHL PUSH1 0x44 DUP3 ADD MSTORE PUSH1 0x64 ADD PUSH2 0xE9B JUMP JUMPDEST PUSH1 0x7 DUP1 SLOAD PUSH1 0x1 PUSH1 0x1 PUSH1 0xA0 SHL SUB NOT AND PUSH1 0x1 PUSH1 0x1 PUSH1 0xA0 SHL SUB DUP5 AND SWAP1 DUP2 OR SWAP1 SWAP2 SSTORE PUSH1 0x40 MLOAD SWAP1 DUP2 MSTORE PUSH32 0x1D6240E71A77C9E9D07D1D6ECBB9EA4274FCC8BC19ADC5B05A3548AC7E40E189 SWAP1 PUSH1 0x20 ADD JUMPDEST PUSH1 0x40 MLOAD DUP1 SWAP2 SUB SWAP1 LOG1 POP POP JUMP JUMPDEST PUSH32 0x78C90EB9E475048B483A290AEE04B5FE48355537C3623C7637B17D3BED71C6ED PUSH2 0x27F1 DUP2 PUSH2 0x3685 JUMP JUMPDEST PUSH2 0x27F9 PUSH2 0x368F JUMP JUMPDEST PUSH1 0x7 SLOAD PUSH1 0x1 PUSH1 0x1 PUSH1 0xA0 SHL SUB AND PUSH2 0x2851 JUMPI PUSH1 0x40 MLOAD PUSH3 0x461BCD PUSH1 0xE5 SHL DUP2 MSTORE PUSH1 0x20 PUSH1 0x4 DUP3 ADD MSTORE PUSH1 0x17 PUSH1 0x24 DUP3 ADD MSTORE PUSH32 0x5574696C6974792061646472657373206E6F7420736574000000000000000000 PUSH1 0x44 DUP3 ADD MSTORE PUSH1 0x64 ADD PUSH2 0xE9B JUMP JUMPDEST SELFBALANCE DUP3 GT ISZERO PUSH2 0x28A1 JUMPI PUSH1 0x40 MLOAD PUSH3 0x461BCD PUSH1 0xE5 SHL DUP2 MSTORE PUSH1 0x20 PUSH1 0x4 DUP3 ADD MSTORE PUSH1 0x14 PUSH1 0x24 DUP3 ADD MSTORE PUSH32 0x496E73756666696369656E742062616C616E6365000000000000000000000000 PUSH1 0x44 DUP3 ADD MSTORE PUSH1 0x64 ADD PUSH2 0xE9B JUMP JUMPDEST PUSH1 0x7 SLOAD PUSH1 0x40 MLOAD PUSH0 SWAP2 PUSH1 0x1 PUSH1 0x1 PUSH1 0xA0 SHL SUB AND SWAP1 DUP5 SWAP1 DUP4 DUP2 DUP2 DUP2 DUP6 DUP8 GAS CALL SWAP3 POP POP POP RETURNDATASIZE DUP1 PUSH0 DUP2 EQ PUSH2 0x28EB JUMPI PUSH1 0x40 MLOAD SWAP2 POP PUSH1 0x1F NOT PUSH1 0x3F RETURNDATASIZE ADD AND DUP3 ADD PUSH1 0x40 MSTORE RETURNDATASIZE DUP3 MSTORE RETURNDATASIZE PUSH0 PUSH1 0x20 DUP5 ADD RETURNDATACOPY PUSH2 0x28F0 JUMP JUMPDEST PUSH1 0x60 SWAP2 POP JUMPDEST POP POP SWAP1 POP DUP1 PUSH2 0x2937 JUMPI PUSH1 0x40 MLOAD PUSH3 0x461BCD PUSH1 0xE5 SHL DUP2 MSTORE PUSH1 0x20 PUSH1 0x4 DUP3 ADD MSTORE PUSH1 0x13 PUSH1 0x24 DUP3 ADD MSTORE PUSH19 0x115512081D1C985B9CD9995C8819985A5B1959 PUSH1 0x6A SHL PUSH1 0x44 DUP3 ADD MSTORE PUSH1 0x64 ADD PUSH2 0xE9B JUMP JUMPDEST PUSH1 0x7 SLOAD PUSH1 0x40 MLOAD PUSH1 0x1 PUSH1 0x1 PUSH1 0xA0 SHL SUB SWAP1 SWAP2 AND SWAP1 PUSH32 0x9ADBDC797ACA3CE26A722598F00149B2328FD124444E6D0B10C4BDC7CFC38196 SWAP1 PUSH2 0x297A SWAP1 PUSH0 SWAP1 DUP8 SWAP1 TIMESTAMP SWAP1 PUSH2 0x3E9F JUMP JUMPDEST PUSH1 0x40 MLOAD DUP1 SWAP2 SUB SWAP1 LOG2 POP PUSH2 0x2389 PUSH1 0x1 DUP1 SSTORE JUMP JUMPDEST PUSH1 0x10 DUP2 DUP2 SLOAD DUP2 LT PUSH2 0x299B JUMPI PUSH0 DUP1 REVERT JUMPDEST PUSH0 SWAP2 DUP3 MSTORE PUSH1 0x20 SWAP1 SWAP2 KECCAK256 ADD SLOAD PUSH1 0x1 PUSH1 0x1 PUSH1 0xA0 SHL SUB AND SWAP1 POP DUP2 JUMP JUMPDEST PUSH1 0xF DUP2 DUP2 SLOAD DUP2 LT PUSH2 0x299B JUMPI PUSH0 DUP1 REVERT JUMPDEST PUSH1 0x40 MLOAD PUSH4 0x70A08231 PUSH1 0xE0 SHL DUP2 MSTORE ADDRESS PUSH1 0x4 DUP3 ADD MSTORE SELFBALANCE SWAP1 PUSH0 SWAP1 DUP2 SWAP1 DUP2 SWAP1 DUP2 SWAP1 DUP2 SWAP1 DUP2 SWAP1 DUP2 SWAP1 DUP2 SWAP1 DUP2 SWAP1 DUP2 SWAP1 DUP2 SWAP1 PUSH20 0x833589FCD6EDB6E08F4C7C32D4F71B54BDA02913 SWAP1 PUSH4 0x70A08231 SWAP1 PUSH1 0x24 ADD PUSH1 0x20 PUSH1 0x40 MLOAD DUP1 DUP4 SUB DUP2 DUP7 GAS STATICCALL ISZERO DUP1 ISZERO PUSH2 0x2A28 JUMPI RETURNDATASIZE PUSH0 DUP1 RETURNDATACOPY RETURNDATASIZE PUSH0 REVERT JUMPDEST POP POP POP POP PUSH1 0x40 MLOAD RETURNDATASIZE PUSH1 0x1F NOT PUSH1 0x1F DUP3 ADD AND DUP3 ADD DUP1 PUSH1 0x40 MSTORE POP DUP2 ADD SWAP1 PUSH2 0x2A4C SWAP2 SWAP1 PUSH2 0x3FD2 JUMP JUMPDEST SWAP11 POP PUSH1 0x12 SLOAD SWAP10 POP PUSH1 0x13 SLOAD SWAP9 POP PUSH1 0x14 SLOAD SWAP8 POP PUSH1 0x15 SLOAD SWAP7 POP PUSH1 0x16 SLOAD SWAP6 POP PUSH1 0x17 SLOAD SWAP5 POP PUSH1 0x18 SLOAD SWAP4 POP PUSH1 0x19 SLOAD SWAP3 POP PUSH1 0xF DUP1 SLOAD SWAP1 POP SWAP2 POP PUSH1 0x10 DUP1 SLOAD SWAP1 POP SWAP1 POP SWAP1 SWAP2 SWAP3 SWAP4 SWAP5 SWAP6 SWAP7 SWAP8 SWAP9 SWAP10 SWAP11 SWAP12 JUMP JUMPDEST PUSH0 DUP1 MLOAD PUSH1 0x20 PUSH2 0x4037 DUP4 CODECOPY DUP2 MLOAD SWAP2 MSTORE PUSH2 0x2AAB DUP2 PUSH2 0x3685 JUMP JUMPDEST PUSH1 0x1 PUSH1 0x1 PUSH1 0xA0 SHL SUB DUP4 AND PUSH2 0x2AF0 JUMPI PUSH1 0x40 MLOAD PUSH3 0x461BCD PUSH1 0xE5 SHL DUP2 MSTORE PUSH1 0x20 PUSH1 0x4 DUP3 ADD MSTORE PUSH1 0xC PUSH1 0x24 DUP3 ADD MSTORE PUSH12 0x5A65726F2061646472657373 PUSH1 0xA0 SHL PUSH1 0x44 DUP3 ADD MSTORE PUSH1 0x64 ADD PUSH2 0xE9B JUMP JUMPDEST PUSH1 0x40 MLOAD PUSH4 0xA9059CBB PUSH1 0xE0 SHL DUP2 MSTORE PUSH1 0x1 PUSH1 0x1 PUSH1 0xA0 SHL SUB DUP5 DUP2 AND PUSH1 0x4 DUP4 ADD MSTORE PUSH1 0x24 DUP3 ADD DUP5 SWAP1 MSTORE DUP6 AND SWAP1 PUSH4 0xA9059CBB SWAP1 PUSH1 0x44 ADD PUSH1 0x20 PUSH1 0x40 MLOAD DUP1 DUP4 SUB DUP2 PUSH0 DUP8 GAS CALL ISZERO DUP1 ISZERO PUSH2 0x2B3C JUMPI RETURNDATASIZE PUSH0 DUP1 RETURNDATACOPY RETURNDATASIZE PUSH0 REVERT JUMPDEST POP POP POP POP PUSH1 0x40 MLOAD RETURNDATASIZE PUSH1 0x1F NOT PUSH1 0x1F DUP3 ADD AND DUP3 ADD DUP1 PUSH1 0x40 MSTORE POP DUP2 ADD SWAP1 PUSH2 0x2B60 SWAP2 SWAP1 PUSH2 0x3ED2 JUMP JUMPDEST POP DUP3 PUSH1 0x1 PUSH1 0x1 PUSH1 0xA0 SHL SUB AND DUP5 PUSH1 0x1 PUSH1 0x1 PUSH1 0xA0 SHL SUB AND PUSH32 0x8BBFBB5D7FCACF6FC74005CDEDE0635561638507F576C95F7F294C22141BE2E5 DUP5 PUSH1 0x40 MLOAD PUSH2 0x2BA6 SWAP2 DUP2 MSTORE PUSH1 0x20 ADD SWAP1 JUMP JUMPDEST PUSH1 0x40 MLOAD DUP1 SWAP2 SUB SWAP1 LOG3 POP POP POP POP JUMP JUMPDEST PUSH0 DUP1 MLOAD PUSH1 0x20 PUSH2 0x4037 DUP4 CODECOPY DUP2 MLOAD SWAP2 MSTORE PUSH2 0x2BCB DUP2 PUSH2 0x3685 JUMP JUMPDEST DUP4 DUP3 EQ PUSH2 0x2C05 JUMPI PUSH1 0x40 MLOAD PUSH3 0x461BCD PUSH1 0xE5 SHL DUP2 MSTORE PUSH1 0x20 PUSH1 0x4 DUP3 ADD MSTORE PUSH1 0x8 PUSH1 0x24 DUP3 ADD MSTORE PUSH8 0x9AD2E6DAC2E8C6D PUSH1 0xC3 SHL PUSH1 0x44 DUP3 ADD MSTORE PUSH1 0x64 ADD PUSH2 0xE9B JUMP JUMPDEST PUSH0 DUP1 JUMPDEST DUP6 DUP2 LT ISZERO PUSH2 0x2D04 JUMPI PUSH0 DUP6 DUP6 DUP4 DUP2 DUP2 LT PUSH2 0x2C23 JUMPI PUSH2 0x2C23 PUSH2 0x3EBE JUMP JUMPDEST SWAP1 POP PUSH1 0x20 MUL ADD CALLDATALOAD GT PUSH2 0x2C60 JUMPI PUSH1 0x40 MLOAD PUSH3 0x461BCD PUSH1 0xE5 SHL DUP2 MSTORE PUSH1 0x4 ADD PUSH2 0xE9B SWAP1 PUSH1 0x20 DUP1 DUP3 MSTORE PUSH1 0x4 SWAP1 DUP3 ADD MSTORE PUSH4 0x5A65726F PUSH1 0xE0 SHL PUSH1 0x40 DUP3 ADD MSTORE PUSH1 0x60 ADD SWAP1 JUMP JUMPDEST DUP5 DUP5 DUP3 DUP2 DUP2 LT PUSH2 0x2C72 JUMPI PUSH2 0x2C72 PUSH2 0x3EBE JUMP JUMPDEST SWAP1 POP PUSH1 0x20 MUL ADD CALLDATALOAD PUSH1 0xB PUSH0 DUP10 DUP10 DUP6 DUP2 DUP2 LT PUSH2 0x2C8E JUMPI PUSH2 0x2C8E PUSH2 0x3EBE JUMP JUMPDEST SWAP1 POP PUSH1 0x20 MUL ADD PUSH1 0x20 DUP2 ADD SWAP1 PUSH2 0x2CA3 SWAP2 SWAP1 PUSH2 0x3ABF JUMP JUMPDEST PUSH1 0x1 PUSH1 0x1 PUSH1 0xA0 SHL SUB AND PUSH1 0x1 PUSH1 0x1 PUSH1 0xA0 SHL SUB AND DUP2 MSTORE PUSH1 0x20 ADD SWAP1 DUP2 MSTORE PUSH1 0x20 ADD PUSH0 KECCAK256 PUSH0 DUP3 DUP3 SLOAD PUSH2 0x2CD0 SWAP2 SWAP1 PUSH2 0x3E8C JUMP JUMPDEST SWAP1 SWAP2 SSTORE POP DUP6 SWAP1 POP DUP5 DUP3 DUP2 DUP2 LT PUSH2 0x2CE8 JUMPI PUSH2 0x2CE8 PUSH2 0x3EBE JUMP JUMPDEST SWAP1 POP PUSH1 0x20 MUL ADD CALLDATALOAD DUP3 PUSH2 0x2CFA SWAP2 SWAP1 PUSH2 0x3E8C JUMP JUMPDEST SWAP2 POP PUSH1 0x1 ADD PUSH2 0x2C08 JUMP JUMPDEST POP PUSH1 0x16 SLOAD DUP2 GT ISZERO PUSH2 0x2D46 JUMPI PUSH1 0x40 MLOAD PUSH3 0x461BCD PUSH1 0xE5 SHL DUP2 MSTORE PUSH1 0x20 PUSH1 0x4 DUP3 ADD MSTORE PUSH1 0xC PUSH1 0x24 DUP3 ADD MSTORE PUSH12 0x115E18D959591CC81C1BDBDB PUSH1 0xA2 SHL PUSH1 0x44 DUP3 ADD MSTORE PUSH1 0x64 ADD PUSH2 0xE9B JUMP JUMPDEST DUP1 PUSH1 0x16 PUSH0 DUP3 DUP3 SLOAD PUSH2 0x1659 SWAP2 SWAP1 PUSH2 0x3F1D JUMP JUMPDEST PUSH2 0x2D5F PUSH2 0x368F JUMP JUMPDEST CALLER PUSH0 SWAP1 DUP2 MSTORE PUSH1 0xC PUSH1 0x20 MSTORE PUSH1 0x40 SWAP1 KECCAK256 SLOAD DUP1 PUSH2 0x2DA8 JUMPI PUSH1 0x40 MLOAD PUSH3 0x461BCD PUSH1 0xE5 SHL DUP2 MSTORE PUSH1 0x20 PUSH1 0x4 DUP3 ADD MSTORE PUSH1 0xA PUSH1 0x24 DUP3 ADD MSTORE PUSH10 0x4E6F207574696C697479 PUSH1 0xB0 SHL PUSH1 0x44 DUP3 ADD MSTORE PUSH1 0x64 ADD PUSH2 0xE9B JUMP JUMPDEST CALLER PUSH0 DUP2 DUP2 MSTORE PUSH1 0xC PUSH1 0x20 MSTORE PUSH1 0x40 DUP2 KECCAK256 SSTORE PUSH2 0x2DC4 SWAP1 PUSH1 0x1 DUP4 DUP2 PUSH2 0x36B9 JUMP JUMPDEST DUP1 PUSH1 0x19 PUSH0 DUP3 DUP3 SLOAD PUSH2 0x2DD5 SWAP2 SWAP1 PUSH2 0x3E8C JUMP JUMPDEST SWAP1 SWAP2 SSTORE POP POP CALLER PUSH0 SWAP1 DUP2 MSTORE PUSH1 0xE PUSH1 0x20 MSTORE PUSH1 0x40 DUP2 KECCAK256 DUP1 SLOAD DUP4 SWAP3 SWAP1 PUSH2 0x2DF8 SWAP1 DUP5 SWAP1 PUSH2 0x3E8C JUMP JUMPDEST SWAP1 SWAP2 SSTORE POP POP PUSH1 0x40 MLOAD CALLER SWAP1 PUSH32 0x997D2EC09B086DE73D509BBC4AD2B52FD7E2338024464BEDE93A41ABD6CCDC38 SWAP1 PUSH2 0xF31 SWAP1 PUSH1 0x1 SWAP1 DUP6 SWAP1 TIMESTAMP SWAP1 PUSH2 0x3E9F JUMP JUMPDEST PUSH0 DUP1 MLOAD PUSH1 0x20 PUSH2 0x4037 DUP4 CODECOPY DUP2 MLOAD SWAP2 MSTORE PUSH2 0x2E4B DUP2 PUSH2 0x3685 JUMP JUMPDEST PUSH1 0x2 DUP3 SWAP1 SSTORE PUSH1 0x40 MLOAD DUP3 DUP2 MSTORE PUSH32 0xC5E00A325524BC148DDC05BB642B804E9AE1DFC670C217ED3C4C6595F7427EF4 SWAP1 PUSH1 0x20 ADD PUSH2 0x27BB JUMP JUMPDEST PUSH0 DUP3 DUP2 MSTORE PUSH1 0x20 DUP2 SWAP1 MSTORE PUSH1 0x40 SWAP1 KECCAK256 PUSH1 0x1 ADD SLOAD PUSH2 0x2E9A DUP2 PUSH2 0x3685 JUMP JUMPDEST PUSH2 0x1478 DUP4 DUP4 PUSH2 0x39A3 JUMP JUMPDEST PUSH32 0xF60566C40710959D8D30B6067CE3C53C757BEC78EECB0E46B83C7F8194FFAE37 PUSH2 0x2ECE DUP2 PUSH2 0x3685 JUMP JUMPDEST PUSH0 DUP3 GT PUSH2 0x2F0C JUMPI PUSH1 0x40 MLOAD PUSH3 0x461BCD PUSH1 0xE5 SHL DUP2 MSTORE PUSH1 0x20 PUSH1 0x4 DUP3 ADD MSTORE PUSH1 0xC PUSH1 0x24 DUP3 ADD MSTORE PUSH12 0x139BC81554D110C81CD95B9D PUSH1 0xA2 SHL PUSH1 0x44 DUP3 ADD MSTORE PUSH1 0x64 ADD PUSH2 0xE9B JUMP JUMPDEST PUSH1 0x40 MLOAD PUSH4 0x23B872DD PUSH1 0xE0 SHL DUP2 MSTORE CALLER PUSH1 0x4 DUP3 ADD MSTORE ADDRESS PUSH1 0x24 DUP3 ADD MSTORE PUSH1 0x44 DUP2 ADD DUP4 SWAP1 MSTORE PUSH20 0x833589FCD6EDB6E08F4C7C32D4F71B54BDA02913 SWAP1 PUSH4 0x23B872DD SWAP1 PUSH1 0x64 ADD PUSH1 0x20 PUSH1 0x40 MLOAD DUP1 DUP4 SUB DUP2 PUSH0 DUP8 GAS CALL ISZERO DUP1 ISZERO PUSH2 0x2F67 JUMPI RETURNDATASIZE PUSH0 DUP1 RETURNDATACOPY RETURNDATASIZE PUSH0 REVERT JUMPDEST POP POP POP POP PUSH1 0x40 MLOAD RETURNDATASIZE PUSH1 0x1F NOT PUSH1 0x1F DUP3 ADD AND DUP3 ADD DUP1 PUSH1 0x40 MSTORE POP DUP2 ADD SWAP1 PUSH2 0x2F8B SWAP2 SWAP1 PUSH2 0x3ED2 JUMP JUMPDEST POP DUP2 PUSH1 0x17 PUSH0 DUP3 DUP3 SLOAD PUSH2 0x2F9D SWAP2 SWAP1 PUSH2 0x3E8C JUMP JUMPDEST SWAP1 SWAP2 SSTORE POP POP PUSH1 0x40 MLOAD CALLER SWAP1 PUSH32 0x8BAFEC96FCFFB6F12596B4635C76397B7BC1F363B22C49C13136B63677323DCC SWAP1 PUSH2 0x2FD9 SWAP1 PUSH1 0x1 SWAP1 DUP7 SWAP1 TIMESTAMP SWAP1 PUSH2 0x3E9F JUMP JUMPDEST PUSH1 0x40 MLOAD DUP1 SWAP2 SUB SWAP1 LOG2 POP POP JUMP JUMPDEST PUSH0 DUP1 MLOAD PUSH1 0x20 PUSH2 0x4037 DUP4 CODECOPY DUP2 MLOAD SWAP2 MSTORE PUSH2 0x2FFC DUP2 PUSH2 0x3685 JUMP JUMPDEST PUSH1 0x5 SLOAD PUSH4 0x1000000 SWAP1 DIV PUSH1 0xFF AND ISZERO PUSH2 0x3056 JUMPI PUSH1 0x40 MLOAD PUSH3 0x461BCD PUSH1 0xE5 SHL DUP2 MSTORE PUSH1 0x20 PUSH1 0x4 DUP3 ADD MSTORE PUSH1 0xF PUSH1 0x24 DUP3 ADD MSTORE PUSH32 0x416C726561647920656E61626C65640000000000000000000000000000000000 PUSH1 0x44 DUP3 ADD MSTORE PUSH1 0x64 ADD PUSH2 0xE9B JUMP JUMPDEST PUSH1 0x5 DUP1 SLOAD PUSH4 0xFF000000 NOT AND PUSH4 0x1000000 OR SWAP1 SSTORE TIMESTAMP PUSH1 0x6 SSTORE PUSH0 JUMPDEST PUSH1 0xF SLOAD DUP2 LT ISZERO PUSH2 0x3138 JUMPI PUSH0 PUSH1 0x8 PUSH0 PUSH1 0xF DUP5 DUP2 SLOAD DUP2 LT PUSH2 0x3090 JUMPI PUSH2 0x3090 PUSH2 0x3EBE JUMP JUMPDEST PUSH0 SWAP2 DUP3 MSTORE PUSH1 0x20 DUP1 DUP4 KECCAK256 SWAP1 SWAP2 ADD SLOAD PUSH1 0x1 PUSH1 0x1 PUSH1 0xA0 SHL SUB AND DUP4 MSTORE DUP3 ADD SWAP3 SWAP1 SWAP3 MSTORE PUSH1 0x40 ADD DUP2 KECCAK256 SWAP2 POP JUMPDEST DUP2 SLOAD DUP2 LT ISZERO PUSH2 0x312E JUMPI DUP2 DUP2 DUP2 SLOAD DUP2 LT PUSH2 0x30D1 JUMPI PUSH2 0x30D1 PUSH2 0x3EBE JUMP JUMPDEST PUSH0 SWAP2 DUP3 MSTORE PUSH1 0x20 SWAP1 SWAP2 KECCAK256 PUSH1 0x3 PUSH1 0x6 SWAP1 SWAP3 MUL ADD ADD SLOAD PUSH1 0xFF AND PUSH2 0x3126 JUMPI PUSH1 0x1 DUP3 DUP3 DUP2 SLOAD DUP2 LT PUSH2 0x30FF JUMPI PUSH2 0x30FF PUSH2 0x3EBE JUMP JUMPDEST SWAP1 PUSH0 MSTORE PUSH1 0x20 PUSH0 KECCAK256 SWAP1 PUSH1 0x6 MUL ADD PUSH1 0x3 ADD PUSH1 0x2 PUSH2 0x100 EXP DUP2 SLOAD DUP2 PUSH1 0xFF MUL NOT AND SWAP1 DUP4 ISZERO ISZERO MUL OR SWAP1 SSTORE POP JUMPDEST PUSH1 0x1 ADD PUSH2 0x30B6 JUMP JUMPDEST POP POP PUSH1 0x1 ADD PUSH2 0x306F JUMP JUMPDEST POP PUSH1 0x40 MLOAD TIMESTAMP DUP2 MSTORE PUSH32 0x2388CEAED48D21BD0802856DF41A22705F9046A67A817A047352AA3BBFE5C5D1 SWAP1 PUSH1 0x20 ADD PUSH1 0x40 MLOAD DUP1 SWAP2 SUB SWAP1 LOG1 POP JUMP JUMPDEST PUSH1 0x11 DUP2 DUP2 SLOAD DUP2 LT PUSH2 0x299B JUMPI PUSH0 DUP1 REVERT JUMPDEST PUSH2 0x3186 PUSH2 0x368F JUMP JUMPDEST CALLER PUSH0 SWAP1 DUP2 MSTORE PUSH1 0xB PUSH1 0x20 MSTORE PUSH1 0x40 SWAP1 KECCAK256 SLOAD DUP1 PUSH2 0x31CF JUMPI PUSH1 0x40 MLOAD PUSH3 0x461BCD PUSH1 0xE5 SHL DUP2 MSTORE PUSH1 0x20 PUSH1 0x4 DUP3 ADD MSTORE PUSH1 0xA PUSH1 0x24 DUP3 ADD MSTORE PUSH10 0x4E6F207574696C697479 PUSH1 0xB0 SHL PUSH1 0x44 DUP3 ADD MSTORE PUSH1 0x64 ADD PUSH2 0xE9B JUMP JUMPDEST CALLER PUSH0 DUP2 DUP2 MSTORE PUSH1 0xB PUSH1 0x20 MSTORE PUSH1 0x40 DUP1 DUP3 KECCAK256 DUP3 SWAP1 SSTORE MLOAD SWAP1 SWAP2 SWAP1 DUP4 SWAP1 DUP4 DUP2 DUP2 DUP2 DUP6 DUP8 GAS CALL SWAP3 POP POP POP RETURNDATASIZE DUP1 PUSH0 DUP2 EQ PUSH2 0x321D JUMPI PUSH1 0x40 MLOAD SWAP2 POP PUSH1 0x1F NOT PUSH1 0x3F RETURNDATASIZE ADD AND DUP3 ADD PUSH1 0x40 MSTORE RETURNDATASIZE DUP3 MSTORE RETURNDATASIZE PUSH0 PUSH1 0x20 DUP5 ADD RETURNDATACOPY PUSH2 0x3222 JUMP JUMPDEST PUSH1 0x60 SWAP2 POP JUMPDEST POP POP SWAP1 POP DUP1 PUSH2 0x3269 JUMPI PUSH1 0x40 MLOAD PUSH3 0x461BCD PUSH1 0xE5 SHL DUP2 MSTORE PUSH1 0x20 PUSH1 0x4 DUP3 ADD MSTORE PUSH1 0x13 PUSH1 0x24 DUP3 ADD MSTORE PUSH19 0x115512081D1C985B9CD9995C8819985A5B1959 PUSH1 0x6A SHL PUSH1 0x44 DUP3 ADD MSTORE PUSH1 0x64 ADD PUSH2 0xE9B JUMP JUMPDEST CALLER PUSH1 0x1 PUSH1 0x1 PUSH1 0xA0 SHL SUB AND PUSH32 0x6914793C7A82461ACEC66C7DE7FDBBBF1F825C26BC2FE939B61F0E4F8964C2B5 PUSH0 DUP5 TIMESTAMP PUSH1 0x40 MLOAD PUSH2 0x32A6 SWAP4 SWAP3 SWAP2 SWAP1 PUSH2 0x3E9F JUMP JUMPDEST PUSH1 0x40 MLOAD DUP1 SWAP2 SUB SWAP1 LOG2 POP POP PUSH2 0xF43 PUSH1 0x1 DUP1 SSTORE JUMP JUMPDEST PUSH0 DUP1 MLOAD PUSH1 0x20 PUSH2 0x4037 DUP4 CODECOPY DUP2 MLOAD SWAP2 MSTORE PUSH2 0x32D0 DUP2 PUSH2 0x3685 JUMP JUMPDEST PUSH0 DUP4 PUSH1 0x1 DUP2 GT ISZERO PUSH2 0x32E3 JUMPI PUSH2 0x32E3 PUSH2 0x3B28 JUMP JUMPDEST SUB PUSH2 0x32F2 JUMPI PUSH1 0x3 DUP3 SWAP1 SSTORE PUSH2 0x3311 JUMP JUMPDEST PUSH1 0x1 DUP4 PUSH1 0x1 DUP2 GT ISZERO PUSH2 0x3306 JUMPI PUSH2 0x3306 PUSH2 0x3B28 JUMP JUMPDEST SUB PUSH2 0x3311 JUMPI PUSH1 0x4 DUP3 SWAP1 SSTORE JUMPDEST PUSH32 0x5D7976BCCD4B396C1A1A0020032E62BF8A381BCFFC61E69A13EA61761B757218 DUP4 DUP4 PUSH1 0x40 MLOAD PUSH2 0x1C59 SWAP3 SWAP2 SWAP1 PUSH2 0x3FE9 JUMP JUMPDEST PUSH2 0x334A PUSH2 0x368F JUMP JUMPDEST PUSH1 0x5 SLOAD PUSH1 0xFF AND ISZERO PUSH2 0x338F JUMPI PUSH1 0x40 MLOAD PUSH3 0x461BCD PUSH1 0xE5 SHL DUP2 MSTORE PUSH1 0x20 PUSH1 0x4 DUP3 ADD MSTORE PUSH1 0xF PUSH1 0x24 DUP3 ADD MSTORE PUSH15 0x11195C1BDCDA5D1CC81C185D5CD959 PUSH1 0x8A SHL PUSH1 0x44 DUP3 ADD MSTORE PUSH1 0x64 ADD PUSH2 0xE9B JUMP JUMPDEST PUSH0 CALLVALUE GT PUSH2 0x33CC JUMPI PUSH1 0x40 MLOAD PUSH3 0x461BCD PUSH1 0xE5 SHL DUP2 MSTORE PUSH1 0x20 PUSH1 0x4 DUP3 ADD MSTORE PUSH1 0xB PUSH1 0x24 DUP3 ADD MSTORE PUSH11 0x139BC8115512081CD95B9D PUSH1 0xAA SHL PUSH1 0x44 DUP3 ADD MSTORE PUSH1 0x64 ADD PUSH2 0xE9B JUMP JUMPDEST PUSH1 0x3 SLOAD CALLVALUE PUSH1 0x12 SLOAD PUSH2 0x33DD SWAP2 SWAP1 PUSH2 0x3E8C JUMP JUMPDEST GT ISZERO PUSH2 0x3419 JUMPI PUSH1 0x40 MLOAD PUSH3 0x461BCD PUSH1 0xE5 SHL DUP2 MSTORE PUSH1 0x20 PUSH1 0x4 DUP3 ADD MSTORE PUSH1 0xB PUSH1 0x24 DUP3 ADD MSTORE PUSH11 0x10D85C081C995858DA1959 PUSH1 0xAA SHL PUSH1 0x44 DUP3 ADD MSTORE PUSH1 0x64 ADD PUSH2 0xE9B JUMP JUMPDEST PUSH1 0x5 SLOAD PUSH3 0x10000 SWAP1 DIV PUSH1 0xFF AND ISZERO PUSH2 0x347A JUMPI CALLER PUSH0 SWAP1 DUP2 MSTORE PUSH1 0x9 PUSH1 0x20 MSTORE PUSH1 0x40 SWAP1 KECCAK256 SLOAD PUSH1 0xFF AND PUSH2 0x347A JUMPI PUSH1 0x40 MLOAD PUSH3 0x461BCD PUSH1 0xE5 SHL DUP2 MSTORE PUSH1 0x20 PUSH1 0x4 DUP3 ADD MSTORE PUSH1 0xF PUSH1 0x24 DUP3 ADD MSTORE PUSH15 0x139BDD081DDA1A5D195B1A5CDD1959 PUSH1 0x8A SHL PUSH1 0x44 DUP3 ADD MSTORE PUSH1 0x64 ADD PUSH2 0xE9B JUMP JUMPDEST PUSH2 0x3486 CALLER PUSH0 CALLVALUE PUSH0 PUSH2 0x36B9 JUMP JUMPDEST CALLVALUE PUSH1 0x12 PUSH0 DUP3 DUP3 SLOAD PUSH2 0x3497 SWAP2 SWAP1 PUSH2 0x3E8C JUMP JUMPDEST SWAP1 SWAP2 SSTORE POP POP PUSH1 0x1 DUP1 SSTORE JUMP JUMPDEST PUSH2 0x34AA PUSH2 0x368F JUMP JUMPDEST PUSH1 0x5 SLOAD PUSH1 0xFF AND ISZERO PUSH2 0x34EF JUMPI PUSH1 0x40 MLOAD PUSH3 0x461BCD PUSH1 0xE5 SHL DUP2 MSTORE PUSH1 0x20 PUSH1 0x4 DUP3 ADD MSTORE PUSH1 0xF PUSH1 0x24 DUP3 ADD MSTORE PUSH15 0x11195C1BDCDA5D1CC81C185D5CD959 PUSH1 0x8A SHL PUSH1 0x44 DUP3 ADD MSTORE PUSH1 0x64 ADD PUSH2 0xE9B JUMP JUMPDEST PUSH0 DUP2 GT PUSH2 0x352D JUMPI PUSH1 0x40 MLOAD PUSH3 0x461BCD PUSH1 0xE5 SHL DUP2 MSTORE PUSH1 0x20 PUSH1 0x4 DUP3 ADD MSTORE PUSH1 0xC PUSH1 0x24 DUP3 ADD MSTORE PUSH12 0x139BC81554D110C81CD95B9D PUSH1 0xA2 SHL PUSH1 0x44 DUP3 ADD MSTORE PUSH1 0x64 ADD PUSH2 0xE9B JUMP JUMPDEST PUSH1 0x4 SLOAD DUP2 PUSH1 0x13 SLOAD PUSH2 0x353E SWAP2 SWAP1 PUSH2 0x3E8C JUMP JUMPDEST GT ISZERO PUSH2 0x357A JUMPI PUSH1 0x40 MLOAD PUSH3 0x461BCD PUSH1 0xE5 SHL DUP2 MSTORE PUSH1 0x20 PUSH1 0x4 DUP3 ADD MSTORE PUSH1 0xB PUSH1 0x24 DUP3 ADD MSTORE PUSH11 0x10D85C081C995858DA1959 PUSH1 0xAA SHL PUSH1 0x44 DUP3 ADD MSTORE PUSH1 0x64 ADD PUSH2 0xE9B JUMP JUMPDEST PUSH1 0x5 SLOAD PUSH3 0x10000 SWAP1 DIV PUSH1 0xFF AND ISZERO PUSH2 0x35DB JUMPI CALLER PUSH0 SWAP1 DUP2 MSTORE PUSH1 0x9 PUSH1 0x20 MSTORE PUSH1 0x40 SWAP1 KECCAK256 SLOAD PUSH1 0xFF AND PUSH2 0x35DB JUMPI PUSH1 0x40 MLOAD PUSH3 0x461BCD PUSH1 0xE5 SHL DUP2 MSTORE PUSH1 0x20 PUSH1 0x4 DUP3 ADD MSTORE PUSH1 0xF PUSH1 0x24 DUP3 ADD MSTORE PUSH15 0x139BDD081DDA1A5D195B1A5CDD1959 PUSH1 0x8A SHL PUSH1 0x44 DUP3 ADD MSTORE PUSH1 0x64 ADD PUSH2 0xE9B JUMP JUMPDEST PUSH1 0x40 MLOAD PUSH4 0x23B872DD PUSH1 0xE0 SHL DUP2 MSTORE CALLER PUSH1 0x4 DUP3 ADD MSTORE ADDRESS PUSH1 0x24 DUP3 ADD MSTORE PUSH1 0x44 DUP2 ADD DUP3 SWAP1 MSTORE PUSH20 0x833589FCD6EDB6E08F4C7C32D4F71B54BDA02913 SWAP1 PUSH4 0x23B872DD SWAP1 PUSH1 0x64 ADD PUSH1 0x20 PUSH1 0x40 MLOAD DUP1 DUP4 SUB DUP2 PUSH0 DUP8 GAS CALL ISZERO DUP1 ISZERO PUSH2 0x3636 JUMPI RETURNDATASIZE PUSH0 DUP1 RETURNDATACOPY RETURNDATASIZE PUSH0 REVERT JUMPDEST POP POP POP POP PUSH1 0x40 MLOAD RETURNDATASIZE PUSH1 0x1F NOT PUSH1 0x1F DUP3 ADD AND DUP3 ADD DUP1 PUSH1 0x40 MSTORE POP DUP2 ADD SWAP1 PUSH2 0x365A SWAP2 SWAP1 PUSH2 0x3ED2 JUMP JUMPDEST POP PUSH2 0x3668 CALLER PUSH1 0x1 DUP4 PUSH0 PUSH2 0x36B9 JUMP JUMPDEST DUP1 PUSH1 0x13 PUSH0 DUP3 DUP3 SLOAD PUSH2 0x3679 SWAP2 SWAP1 PUSH2 0x3E8C JUMP JUMPDEST SWAP1 SWAP2 SSTORE POP POP PUSH1 0x1 DUP1 SSTORE POP JUMP JUMPDEST PUSH2 0x1451 DUP2 CALLER PUSH2 0x3A24 JUMP JUMPDEST PUSH1 0x2 PUSH1 0x1 SLOAD SUB PUSH2 0x36B2 JUMPI PUSH1 0x40 MLOAD PUSH4 0x3EE5AEB5 PUSH1 0xE0 SHL DUP2 MSTORE PUSH1 0x4 ADD PUSH1 0x40 MLOAD DUP1 SWAP2 SUB SWAP1 REVERT JUMPDEST PUSH1 0x2 PUSH1 0x1 SSTORE JUMP JUMPDEST PUSH1 0x1 PUSH1 0x1 PUSH1 0xA0 SHL SUB DUP5 AND PUSH0 SWAP1 DUP2 MSTORE PUSH1 0x8 PUSH1 0x20 MSTORE PUSH1 0x40 SWAP1 DUP2 SWAP1 KECCAK256 DUP2 MLOAD PUSH2 0x120 DUP2 ADD SWAP1 SWAP3 MSTORE SWAP1 DUP1 DUP6 PUSH1 0x1 DUP2 GT ISZERO PUSH2 0x36F0 JUMPI PUSH2 0x36F0 PUSH2 0x3B28 JUMP JUMPDEST DUP2 MSTORE PUSH1 0x20 DUP1 DUP3 ADD DUP7 SWAP1 MSTORE TIMESTAMP PUSH1 0x40 DUP4 ADD MSTORE PUSH0 PUSH1 0x60 DUP4 ADD DUP2 SWAP1 MSTORE PUSH1 0x80 DUP4 ADD DUP2 SWAP1 MSTORE PUSH1 0xA0 DUP4 ADD DUP2 SWAP1 MSTORE DUP6 ISZERO ISZERO PUSH1 0xC0 DUP5 ADD MSTORE PUSH1 0xE0 DUP4 ADD DUP2 SWAP1 MSTORE PUSH2 0x100 SWAP1 SWAP3 ADD DUP3 SWAP1 MSTORE DUP4 SLOAD PUSH1 0x1 DUP2 DUP2 ADD DUP7 SSTORE SWAP5 DUP4 MSTORE SWAP2 KECCAK256 DUP3 MLOAD PUSH1 0x6 SWAP1 SWAP3 MUL ADD DUP1 SLOAD SWAP3 SWAP4 SWAP1 SWAP3 DUP4 SWAP2 PUSH1 0xFF NOT SWAP2 SWAP1 SWAP2 AND SWAP1 DUP4 DUP2 DUP2 GT ISZERO PUSH2 0x3765 JUMPI PUSH2 0x3765 PUSH2 0x3B28 JUMP JUMPDEST MUL OR SWAP1 SSTORE POP PUSH1 0x20 DUP3 DUP2 ADD MLOAD PUSH1 0x1 DUP4 DUP2 ADD SWAP2 SWAP1 SWAP2 SSTORE PUSH1 0x40 DUP1 DUP6 ADD MLOAD PUSH1 0x2 DUP6 ADD SSTORE PUSH1 0x60 DUP6 ADD MLOAD PUSH1 0x3 DUP6 ADD DUP1 SLOAD PUSH1 0x80 DUP9 ADD MLOAD PUSH1 0xA0 DUP10 ADD MLOAD PUSH1 0xC0 DUP11 ADD MLOAD PUSH2 0xFFFF NOT SWAP1 SWAP4 AND SWAP5 ISZERO ISZERO PUSH2 0xFF00 NOT AND SWAP5 SWAP1 SWAP5 OR PUSH2 0x100 SWAP2 ISZERO ISZERO DUP3 MUL OR PUSH4 0xFFFF0000 NOT AND PUSH3 0x10000 SWAP5 ISZERO ISZERO SWAP5 SWAP1 SWAP5 MUL PUSH4 0xFF000000 NOT AND SWAP4 SWAP1 SWAP4 OR PUSH4 0x1000000 SWAP2 ISZERO ISZERO SWAP2 SWAP1 SWAP2 MUL OR SWAP1 SSTORE PUSH1 0xE0 DUP7 ADD MLOAD PUSH1 0x4 DUP7 ADD SSTORE SWAP1 SWAP5 ADD MLOAD PUSH1 0x5 SWAP1 SWAP4 ADD SWAP3 SWAP1 SWAP3 SSTORE PUSH1 0x1 PUSH1 0x1 PUSH1 0xA0 SHL SUB DUP8 AND PUSH0 SWAP1 DUP2 MSTORE PUSH1 0x8 SWAP1 SWAP2 MSTORE SWAP2 SWAP1 SWAP2 KECCAK256 SLOAD SWAP1 SUB PUSH2 0x389E JUMPI PUSH1 0xF DUP1 SLOAD PUSH1 0x1 DUP2 DUP2 ADD SWAP1 SWAP3 SSTORE PUSH32 0x8D1108E10BCB7C27DDDFC02ED9D693A074039D026CF4EA4240B40F7D581AC802 ADD DUP1 SLOAD PUSH1 0x1 PUSH1 0x1 PUSH1 0xA0 SHL SUB DUP8 AND PUSH1 0x1 PUSH1 0x1 PUSH1 0xA0 SHL SUB NOT SWAP2 DUP3 AND DUP2 OR SWAP1 SWAP3 SSTORE PUSH1 0x11 DUP1 SLOAD SWAP4 DUP5 ADD DUP2 SSTORE PUSH0 MSTORE PUSH32 0x31ECC21A745E3968A04E9570E4425BC18FA8019C68028196B546D1669C200C68 SWAP1 SWAP3 ADD DUP1 SLOAD SWAP1 SWAP3 AND OR SWAP1 SSTORE JUMPDEST PUSH1 0x1 PUSH1 0x1 PUSH1 0xA0 SHL SUB DUP5 AND PUSH0 DUP2 DUP2 MSTORE PUSH1 0x8 PUSH1 0x20 MSTORE PUSH1 0x40 SWAP1 KECCAK256 SLOAD PUSH32 0x48916AC7F9777648255AB8645729FF3B5D20AA412A40FE81DAC2433522EAA058 SWAP1 DUP6 SWAP1 DUP6 SWAP1 TIMESTAMP SWAP1 PUSH2 0x38EA SWAP1 PUSH1 0x1 SWAP1 PUSH2 0x3F1D JUMP JUMPDEST DUP7 PUSH1 0x40 MLOAD PUSH2 0x2707 SWAP6 SWAP5 SWAP4 SWAP3 SWAP2 SWAP1 PUSH2 0x4004 JUMP JUMPDEST PUSH0 DUP3 DUP2 MSTORE PUSH1 0x20 DUP2 DUP2 MSTORE PUSH1 0x40 DUP1 DUP4 KECCAK256 PUSH1 0x1 PUSH1 0x1 PUSH1 0xA0 SHL SUB DUP6 AND DUP5 MSTORE SWAP1 SWAP2 MSTORE DUP2 KECCAK256 SLOAD PUSH1 0xFF AND PUSH2 0x399C JUMPI PUSH0 DUP4 DUP2 MSTORE PUSH1 0x20 DUP2 DUP2 MSTORE PUSH1 0x40 DUP1 DUP4 KECCAK256 PUSH1 0x1 PUSH1 0x1 PUSH1 0xA0 SHL SUB DUP7 AND DUP5 MSTORE SWAP1 SWAP2 MSTORE SWAP1 KECCAK256 DUP1 SLOAD PUSH1 0xFF NOT AND PUSH1 0x1 OR SWAP1 SSTORE PUSH2 0x3954 CALLER SWAP1 JUMP JUMPDEST PUSH1 0x1 PUSH1 0x1 PUSH1 0xA0 SHL SUB AND DUP3 PUSH1 0x1 PUSH1 0x1 PUSH1 0xA0 SHL SUB AND DUP5 PUSH32 0x2F8788117E7EFF1D82E926EC794901D17C78024A50270940304540A733656F0D PUSH1 0x40 MLOAD PUSH1 0x40 MLOAD DUP1 SWAP2 SUB SWAP1 LOG4 POP PUSH1 0x1 PUSH2 0xDA0 JUMP JUMPDEST POP PUSH0 PUSH2 0xDA0 JUMP JUMPDEST PUSH0 DUP3 DUP2 MSTORE PUSH1 0x20 DUP2 DUP2 MSTORE PUSH1 0x40 DUP1 DUP4 KECCAK256 PUSH1 0x1 PUSH1 0x1 PUSH1 0xA0 SHL SUB DUP6 AND DUP5 MSTORE SWAP1 SWAP2 MSTORE DUP2 KECCAK256 SLOAD PUSH1 0xFF AND ISZERO PUSH2 0x399C JUMPI PUSH0 DUP4 DUP2 MSTORE PUSH1 0x20 DUP2 DUP2 MSTORE PUSH1 0x40 DUP1 DUP4 KECCAK256 PUSH1 0x1 PUSH1 0x1 PUSH1 0xA0 SHL SUB DUP7 AND DUP1 DUP6 MSTORE SWAP3 MSTORE DUP1 DUP4 KECCAK256 DUP1 SLOAD PUSH1 0xFF NOT AND SWAP1 SSTORE MLOAD CALLER SWAP3 DUP7 SWAP2 PUSH32 0xF6391F5C32D9C69D2A47EA670B442974B53935D1EDC7FD64EB21E047A839171B SWAP2 SWAP1 LOG4 POP PUSH1 0x1 PUSH2 0xDA0 JUMP JUMPDEST PUSH0 DUP3 DUP2 MSTORE PUSH1 0x20 DUP2 DUP2 MSTORE PUSH1 0x40 DUP1 DUP4 KECCAK256 PUSH1 0x1 PUSH1 0x1 PUSH1 0xA0 SHL SUB DUP6 AND DUP5 MSTORE SWAP1 SWAP2 MSTORE SWAP1 KECCAK256 SLOAD PUSH1 0xFF AND PUSH2 0x2389 JUMPI PUSH1 0x40 MLOAD PUSH4 0xE2517D3F PUSH1 0xE0 SHL DUP2 MSTORE PUSH1 0x1 PUSH1 0x1 PUSH1 0xA0 SHL SUB DUP3 AND PUSH1 0x4 DUP3 ADD MSTORE PUSH1 0x24 DUP2 ADD DUP4 SWAP1 MSTORE PUSH1 0x44 ADD PUSH2 0xE9B JUMP JUMPDEST PUSH0 PUSH1 0x20 DUP3 DUP5 SUB SLT ISZERO PUSH2 0x3A86 JUMPI PUSH0 DUP1 REVERT JUMPDEST DUP2 CALLDATALOAD PUSH1 0x1 PUSH1 0x1 PUSH1 0xE0 SHL SUB NOT DUP2 AND DUP2 EQ PUSH2 0x3A9D JUMPI PUSH0 DUP1 REVERT JUMPDEST SWAP4 SWAP3 POP POP POP JUMP JUMPDEST DUP1 CALLDATALOAD PUSH1 0x1 PUSH1 0x1 PUSH1 0xA0 SHL SUB DUP2 AND DUP2 EQ PUSH2 0x3ABA JUMPI PUSH0 DUP1 REVERT JUMPDEST SWAP2 SWAP1 POP JUMP JUMPDEST PUSH0 PUSH1 0x20 DUP3 DUP5 SUB SLT ISZERO PUSH2 0x3ACF JUMPI PUSH0 DUP1 REVERT JUMPDEST PUSH2 0x3A9D DUP3 PUSH2 0x3AA4 JUMP JUMPDEST DUP1 ISZERO ISZERO DUP2 EQ PUSH2 0x1451 JUMPI PUSH0 DUP1 REVERT JUMPDEST PUSH0 PUSH1 0x20 DUP3 DUP5 SUB SLT ISZERO PUSH2 0x3AF5 JUMPI PUSH0 DUP1 REVERT JUMPDEST DUP2 CALLDATALOAD PUSH2 0x3A9D DUP2 PUSH2 0x3AD8 JUMP JUMPDEST PUSH0 DUP1 PUSH1 0x40 DUP4 DUP6 SUB SLT ISZERO PUSH2 0x3B11 JUMPI PUSH0 DUP1 REVERT JUMPDEST PUSH2 0x3B1A DUP4 PUSH2 0x3AA4 JUMP JUMPDEST SWAP5 PUSH1 0x20 SWAP4 SWAP1 SWAP4 ADD CALLDATALOAD SWAP4 POP POP POP JUMP JUMPDEST PUSH4 0x4E487B71 PUSH1 0xE0 SHL PUSH0 MSTORE PUSH1 0x21 PUSH1 0x4 MSTORE PUSH1 0x24 PUSH0 REVERT JUMPDEST PUSH1 0x2 DUP2 LT PUSH2 0x3B58 JUMPI PUSH4 0x4E487B71 PUSH1 0xE0 SHL PUSH0 MSTORE PUSH1 0x21 PUSH1 0x4 MSTORE PUSH1 0x24 PUSH0 REVERT JUMPDEST SWAP1 MSTORE JUMP JUMPDEST PUSH2 0x120 DUP2 ADD PUSH2 0x3B6B DUP3 DUP13 PUSH2 0x3B3C JUMP JUMPDEST PUSH1 0x20 DUP3 ADD SWAP10 SWAP1 SWAP10 MSTORE PUSH1 0x40 DUP2 ADD SWAP8 SWAP1 SWAP8 MSTORE SWAP5 ISZERO ISZERO PUSH1 0x60 DUP8 ADD MSTORE SWAP3 ISZERO ISZERO PUSH1 0x80 DUP7 ADD MSTORE SWAP1 ISZERO ISZERO PUSH1 0xA0 DUP6 ADD MSTORE ISZERO ISZERO PUSH1 0xC0 DUP5 ADD MSTORE PUSH1 0xE0 DUP4 ADD MSTORE PUSH2 0x100 SWAP1 SWAP2 ADD MSTORE SWAP2 SWAP1 POP JUMP JUMPDEST PUSH0 PUSH1 0x20 DUP3 DUP5 SUB SLT ISZERO PUSH2 0x3BBB JUMPI PUSH0 DUP1 REVERT JUMPDEST POP CALLDATALOAD SWAP2 SWAP1 POP JUMP JUMPDEST PUSH1 0x20 DUP1 DUP3 MSTORE DUP3 MLOAD DUP3 DUP3 ADD DUP2 SWAP1 MSTORE PUSH0 SWAP2 SWAP1 PUSH1 0x40 SWAP1 DUP2 DUP6 ADD SWAP1 DUP7 DUP5 ADD DUP6 JUMPDEST DUP3 DUP2 LT ISZERO PUSH2 0x3C5B JUMPI DUP2 MLOAD PUSH2 0x3BF3 DUP6 DUP3 MLOAD PUSH2 0x3B3C JUMP JUMPDEST DUP1 DUP8 ADD MLOAD DUP6 DUP9 ADD MSTORE DUP6 DUP2 ADD MLOAD DUP7 DUP7 ADD MSTORE PUSH1 0x60 DUP1 DUP3 ADD MLOAD ISZERO ISZERO SWAP1 DUP7 ADD MSTORE PUSH1 0x80 DUP1 DUP3 ADD MLOAD ISZERO ISZERO SWAP1 DUP7 ADD MSTORE PUSH1 0xA0 DUP1 DUP3 ADD MLOAD ISZERO ISZERO SWAP1 DUP7 ADD MSTORE PUSH1 0xC0 DUP1 DUP3 ADD MLOAD ISZERO ISZERO SWAP1 DUP7 ADD MSTORE PUSH1 0xE0 DUP1 DUP3 ADD MLOAD SWAP1 DUP7 ADD MSTORE PUSH2 0x100 SWAP1 DUP2 ADD MLOAD SWAP1 DUP6 ADD MSTORE PUSH2 0x120 SWAP1 SWAP4 ADD SWAP3 SWAP1 DUP6 ADD SWAP1 PUSH1 0x1 ADD PUSH2 0x3BDE JUMP JUMPDEST POP SWAP2 SWAP8 SWAP7 POP POP POP POP POP POP POP JUMP JUMPDEST PUSH0 DUP1 PUSH1 0x40 DUP4 DUP6 SUB SLT ISZERO PUSH2 0x3C79 JUMPI PUSH0 DUP1 REVERT JUMPDEST DUP3 CALLDATALOAD SWAP2 POP PUSH2 0x3C89 PUSH1 0x20 DUP5 ADD PUSH2 0x3AA4 JUMP JUMPDEST SWAP1 POP SWAP3 POP SWAP3 SWAP1 POP JUMP JUMPDEST PUSH0 DUP1 DUP4 PUSH1 0x1F DUP5 ADD SLT PUSH2 0x3CA2 JUMPI PUSH0 DUP1 REVERT JUMPDEST POP DUP2 CALLDATALOAD PUSH8 0xFFFFFFFFFFFFFFFF DUP2 GT ISZERO PUSH2 0x3CB9 JUMPI PUSH0 DUP1 REVERT JUMPDEST PUSH1 0x20 DUP4 ADD SWAP2 POP DUP4 PUSH1 0x20 DUP3 PUSH1 0x5 SHL DUP6 ADD ADD GT ISZERO PUSH2 0x3CD3 JUMPI PUSH0 DUP1 REVERT JUMPDEST SWAP3 POP SWAP3 SWAP1 POP JUMP JUMPDEST PUSH0 DUP1 PUSH0 DUP1 PUSH1 0x40 DUP6 DUP8 SUB SLT ISZERO PUSH2 0x3CED JUMPI PUSH0 DUP1 REVERT JUMPDEST DUP5 CALLDATALOAD PUSH8 0xFFFFFFFFFFFFFFFF DUP1 DUP3 GT ISZERO PUSH2 0x3D04 JUMPI PUSH0 DUP1 REVERT JUMPDEST PUSH2 0x3D10 DUP9 DUP4 DUP10 ADD PUSH2 0x3C92 JUMP JUMPDEST SWAP1 SWAP7 POP SWAP5 POP PUSH1 0x20 DUP8 ADD CALLDATALOAD SWAP2 POP DUP1 DUP3 GT ISZERO PUSH2 0x3D28 JUMPI PUSH0 DUP1 REVERT JUMPDEST POP PUSH2 0x3D35 DUP8 DUP3 DUP9 ADD PUSH2 0x3C92 JUMP JUMPDEST SWAP6 SWAP9 SWAP5 SWAP8 POP SWAP6 POP POP POP POP JUMP JUMPDEST PUSH0 DUP1 PUSH1 0x40 DUP4 DUP6 SUB SLT ISZERO PUSH2 0x3D52 JUMPI PUSH0 DUP1 REVERT JUMPDEST PUSH2 0x3D5B DUP4 PUSH2 0x3AA4 JUMP JUMPDEST SWAP2 POP PUSH1 0x20 DUP4 ADD CALLDATALOAD PUSH2 0x3D6B DUP2 PUSH2 0x3AD8 JUMP JUMPDEST DUP1 SWAP2 POP POP SWAP3 POP SWAP3 SWAP1 POP JUMP JUMPDEST PUSH0 DUP1 PUSH1 0x40 DUP4 DUP6 SUB SLT ISZERO PUSH2 0x3D87 JUMPI PUSH0 DUP1 REVERT JUMPDEST DUP3 CALLDATALOAD PUSH2 0x3D5B DUP2 PUSH2 0x3AD8 JUMP JUMPDEST PUSH0 DUP1 PUSH1 0x20 DUP4 DUP6 SUB SLT ISZERO PUSH2 0x3DA3 JUMPI PUSH0 DUP1 REVERT JUMPDEST DUP3 CALLDATALOAD PUSH8 0xFFFFFFFFFFFFFFFF DUP2 GT ISZERO PUSH2 0x3DB9 JUMPI PUSH0 DUP1 REVERT JUMPDEST PUSH2 0x3DC5 DUP6 DUP3 DUP7 ADD PUSH2 0x3C92 JUMP JUMPDEST SWAP1 SWAP7 SWAP1 SWAP6 POP SWAP4 POP POP POP POP JUMP JUMPDEST PUSH0 DUP1 PUSH0 PUSH1 0x40 DUP5 DUP7 SUB SLT ISZERO PUSH2 0x3DE3 JUMPI PUSH0 DUP1 REVERT JUMPDEST PUSH2 0x3DEC DUP5 PUSH2 0x3AA4 JUMP JUMPDEST SWAP3 POP PUSH1 0x20 DUP5 ADD CALLDATALOAD PUSH8 0xFFFFFFFFFFFFFFFF DUP2 GT ISZERO PUSH2 0x3E07 JUMPI PUSH0 DUP1 REVERT JUMPDEST PUSH2 0x3E13 DUP7 DUP3 DUP8 ADD PUSH2 0x3C92 JUMP JUMPDEST SWAP5 SWAP8 SWAP1 SWAP7 POP SWAP4 SWAP5 POP POP POP POP JUMP JUMPDEST PUSH0 DUP1 PUSH0 PUSH1 0x60 DUP5 DUP7 SUB SLT ISZERO PUSH2 0x3E32 JUMPI PUSH0 DUP1 REVERT JUMPDEST PUSH2 0x3E3B DUP5 PUSH2 0x3AA4 JUMP JUMPDEST SWAP3 POP PUSH2 0x3E49 PUSH1 0x20 DUP6 ADD PUSH2 0x3AA4 JUMP JUMPDEST SWAP2 POP PUSH1 0x40 DUP5 ADD CALLDATALOAD SWAP1 POP SWAP3 POP SWAP3 POP SWAP3 JUMP JUMPDEST PUSH0 DUP1 PUSH1 0x40 DUP4 DUP6 SUB SLT ISZERO PUSH2 0x3E6A JUMPI PUSH0 DUP1 REVERT JUMPDEST DUP3 CALLDATALOAD PUSH1 0x2 DUP2 LT PUSH2 0x3B1A JUMPI PUSH0 DUP1 REVERT JUMPDEST PUSH4 0x4E487B71 PUSH1 0xE0 SHL PUSH0 MSTORE PUSH1 0x11 PUSH1 0x4 MSTORE PUSH1 0x24 PUSH0 REVERT JUMPDEST DUP1 DUP3 ADD DUP1 DUP3 GT ISZERO PUSH2 0xDA0 JUMPI PUSH2 0xDA0 PUSH2 0x3E78 JUMP JUMPDEST PUSH1 0x60 DUP2 ADD PUSH2 0x3EAD DUP3 DUP7 PUSH2 0x3B3C JUMP JUMPDEST PUSH1 0x20 DUP3 ADD SWAP4 SWAP1 SWAP4 MSTORE PUSH1 0x40 ADD MSTORE SWAP2 SWAP1 POP JUMP JUMPDEST PUSH4 0x4E487B71 PUSH1 0xE0 SHL PUSH0 MSTORE PUSH1 0x32 PUSH1 0x4 MSTORE PUSH1 0x24 PUSH0 REVERT JUMPDEST PUSH0 PUSH1 0x20 DUP3 DUP5 SUB SLT ISZERO PUSH2 0x3EE2 JUMPI PUSH0 DUP1 REVERT JUMPDEST DUP2 MLOAD PUSH2 0x3A9D DUP2 PUSH2 0x3AD8 JUMP JUMPDEST PUSH1 0xA0 DUP2 ADD PUSH2 0x3EFB DUP3 DUP9 PUSH2 0x3B3C JUMP JUMPDEST DUP6 PUSH1 0x20 DUP4 ADD MSTORE DUP5 PUSH1 0x40 DUP4 ADD MSTORE DUP4 PUSH1 0x60 DUP4 ADD MSTORE DUP3 PUSH1 0x80 DUP4 ADD MSTORE SWAP7 SWAP6 POP POP POP POP POP POP JUMP JUMPDEST DUP2 DUP2 SUB DUP2 DUP2 GT ISZERO PUSH2 0xDA0 JUMPI PUSH2 0xDA0 PUSH2 0x3E78 JUMP JUMPDEST DUP2 DUP4 MSTORE PUSH0 PUSH32 0x7FFFFFFFFFFFFFFFFFFFFFFFFFFFFFFFFFFFFFFFFFFFFFFFFFFFFFFFFFFFFFF DUP4 GT ISZERO PUSH2 0x3F60 JUMPI PUSH0 DUP1 REVERT JUMPDEST DUP3 PUSH1 0x5 SHL DUP1 DUP4 PUSH1 0x20 DUP8 ADD CALLDATACOPY SWAP4 SWAP1 SWAP4 ADD PUSH1 0x20 ADD SWAP4 SWAP3 POP POP POP JUMP JUMPDEST PUSH2 0x3F83 DUP2 DUP9 PUSH2 0x3B3C JUMP JUMPDEST PUSH1 0xA0 PUSH1 0x20 DUP3 ADD MSTORE PUSH0 PUSH2 0x3F99 PUSH1 0xA0 DUP4 ADD DUP8 DUP10 PUSH2 0x3F30 JUMP JUMPDEST PUSH1 0x40 DUP4 ADD SWAP6 SWAP1 SWAP6 MSTORE POP PUSH1 0x60 DUP2 ADD SWAP3 SWAP1 SWAP3 MSTORE PUSH1 0x80 SWAP1 SWAP2 ADD MSTORE SWAP4 SWAP3 POP POP POP JUMP JUMPDEST PUSH1 0x20 DUP2 MSTORE PUSH0 PUSH2 0x3FCA PUSH1 0x20 DUP4 ADD DUP5 DUP7 PUSH2 0x3F30 JUMP JUMPDEST SWAP5 SWAP4 POP POP POP POP JUMP JUMPDEST PUSH0 PUSH1 0x20 DUP3 DUP5 SUB SLT ISZERO PUSH2 0x3FE2 JUMPI PUSH0 DUP1 REVERT JUMPDEST POP MLOAD SWAP2 SWAP1 POP JUMP JUMPDEST PUSH1 0x40 DUP2 ADD PUSH2 0x3FF7 DUP3 DUP6 PUSH2 0x3B3C JUMP JUMPDEST DUP3 PUSH1 0x20 DUP4 ADD MSTORE SWAP4 SWAP3 POP POP POP JUMP JUMPDEST PUSH1 0xA0 DUP2 ADD PUSH2 0x4012 DUP3 DUP9 PUSH2 0x3B3C JUMP JUMPDEST DUP6 PUSH1 0x20 DUP4 ADD MSTORE DUP5 PUSH1 0x40 DUP4 ADD MSTORE DUP4 PUSH1 0x60 DUP4 ADD MSTORE DUP3 ISZERO ISZERO PUSH1 0x80 DUP4 ADD MSTORE SWAP7 SWAP6 POP POP POP POP POP POP JUMP INVALID LOG4 SWAP9 SMOD KECCAK256 TLOAD 0xE4 0xD3 SSTORE MULMOD 0x2E CREATE2 0xA8 LOG1 DUP16 JUMP 0xE8 SWAP2 EXTCODECOPY DELEGATECALL LOG2 ADD 0xFB 0xE2 DUP8 DUP3 JUMPDEST MULMOD JUMP SWAP4 0xC2 OR PUSH22 0xA26469706673582212202C4D311A334564DDE9B11E21 0x4D 0xDC PUSH29 0x4021DE138FA42E6A3860C90E4C0CE2E88F64736F6C6343000819003300 "
    },
    "gasEstimates": {
      "creation": {
        "codeDepositCost": "3304800",
        "executionCost": "infinite",
        "totalCost": "infinite"
      },
      "external": {
        "ADMIN_ROLE()": "infinite",
        "DEFAULT_ADMIN_ROLE()": "327",
        "PAUSER_ROLE()": "305",
        "UNLOCKER_ROLE()": "305",
        "USDC()": "350",
        "UTILITY_INJECTOR_ROLE()": "263",
        "UTILITY_WITHDRAWER_ROLE()": "263",
        "allDepositors(uint256)": "4700",
        "allUsers(uint256)": "4701",
        "assignUtilityETH(address,uint256)": "infinite",
        "assignUtilityETHBatch(address[],uint256[])": "infinite",
        "assignUtilityUSDC(address,uint256)": "infinite",
        "assignUtilityUSDCBatch(address[],uint256[])": "infinite",
        "batchWithdraw(uint256[])": "infinite",
        "claimUtilityETH()": "infinite",
        "claimUtilityUSDC()": "infinite",
        "depositETH()": "infinite",
        "depositUSDC(uint256)": "infinite",
        "enableGlobalLiquidation()": "infinite",
        "getRoleAdmin(bytes32)": "2579",
        "getUserDeposits(address)": "infinite",
        "getUserStats(address)": "infinite",
        "getVaultStats()": "infinite",
        "globalLiquidationEnabled()": "2422",
        "globalLiquidationTimestamp()": "2384",
        "grantRole(bytes32,address)": "33607",
        "hasRole(bytes32,address)": "2748",
        "hasWithdrawn(address)": "2629",
        "injectUtilityETH()": "28936",
        "injectUtilityUSDC(uint256)": "infinite",
        "isWhitelisted(address)": "2651",
        "lockupPeriod()": "2383",
        "maxCapETH()": "2384",
        "maxCapUSDC()": "2385",
        "pausedDeposits()": "2432",
        "pausedWithdrawals()": "2420",
        "reinvestUtilityETH()": "infinite",
        "reinvestUtilityUSDC()": "infinite",
        "renounceRole(bytes32,address)": "29067",
        "rescueERC20(address,address,uint256)": "infinite",
        "revokeRole(bytes32,address)": "33587",
        "setLockupPeriod(uint256)": "infinite",
        "setMaxCap(uint8,uint256)": "infinite",
        "setPaused(bool,bool)": "infinite",
        "setUtilityAddress(address)": "infinite",
        "setWhitelist(address,bool)": "infinite",
        "setWhitelistBatch(address[],bool[])": "infinite",
        "setWhitelistEnabled(bool)": "infinite",
        "supportsInterface(bytes4)": "493",
        "totalDepositedETH()": "2407",
        "totalDepositedUSDC()": "2363",
        "totalReinvestedETH()": "2362",
        "totalReinvestedUSDC()": "2427",
        "totalUtilityETH()": "2427",
        "totalUtilityUSDC()": "2406",
        "totalWithdrawnETH()": "2384",
        "totalWithdrawnUSDC()": "2361",
        "unlockDepositsForUser(address,uint256[])": "infinite",
        "userClaimableUtilityETH(address)": "2629",
        "userClaimableUtilityUSDC(address)": "2649",
        "userDeposits(address,uint256)": "15817",
        "userTotalReinvestedETH(address)": "2607",
        "userTotalReinvestedUSDC(address)": "2608",
        "utilityAddress()": "2447",
        "whitelistEnabled()": "2444",
        "withdraw(uint256)": "infinite",
        "withdrawUtilityETH(uint256)": "infinite",
        "withdrawUtilityUSDC(uint256)": "infinite",
        "withdrawnUsers(uint256)": "4723"
      },
      "internal": {
        "_registerDeposit(address,enum PoolFamilyAndFriends.TokenType,uint256,bool)": "infinite"
      }
    },
    "methodIdentifiers": {
      "ADMIN_ROLE()": "75b238fc",
      "DEFAULT_ADMIN_ROLE()": "a217fddf",
      "PAUSER_ROLE()": "e63ab1e9",
      "UNLOCKER_ROLE()": "e043b2b2",
      "USDC()": "89a30271",
      "UTILITY_INJECTOR_ROLE()": "0c016ad5",
      "UTILITY_WITHDRAWER_ROLE()": "885f5029",
      "allDepositors(uint256)": "e02f6aca",
      "allUsers(uint256)": "a2bdedf4",
      "assignUtilityETH(address,uint256)": "6ec23995",
      "assignUtilityETHBatch(address[],uint256[])": "b758aeaa",
      "assignUtilityUSDC(address,uint256)": "762e1c73",
      "assignUtilityUSDCBatch(address[],uint256[])": "41debf1f",
      "batchWithdraw(uint256[])": "72e55399",
      "claimUtilityETH()": "e399067f",
      "claimUtilityUSDC()": "6c6ff56c",
      "depositETH()": "f6326fb3",
      "depositUSDC(uint256)": "f688bcfb",
      "enableGlobalLiquidation()": "da8d5add",
      "getRoleAdmin(bytes32)": "248a9ca3",
      "getUserDeposits(address)": "2a5bf6d2",
      "getUserStats(address)": "4e43603a",
      "getVaultStats()": "a59aa5a6",
      "globalLiquidationEnabled()": "246d47b7",
      "globalLiquidationTimestamp()": "588583a0",
      "grantRole(bytes32,address)": "2f2ff15d",
      "hasRole(bytes32,address)": "91d14854",
      "hasWithdrawn(address)": "5e2c19db",
      "injectUtilityETH()": "64021b13",
      "injectUtilityUSDC(uint256)": "d830d5cc",
      "isWhitelisted(address)": "3af32abf",
      "lockupPeriod()": "ee947a7c",
      "maxCapETH()": "9ddc3912",
      "maxCapUSDC()": "1c5aeef7",
      "pausedDeposits()": "6068d6cb",
      "pausedWithdrawals()": "b2b77ae2",
      "reinvestUtilityETH()": "275991d2",
      "reinvestUtilityUSDC()": "bda821e8",
      "renounceRole(bytes32,address)": "36568abe",
      "rescueERC20(address,address,uint256)": "b2118a8d",
      "revokeRole(bytes32,address)": "d547741f",
      "setLockupPeriod(uint256)": "c771c390",
      "setMaxCap(uint8,uint256)": "f5f69af2",
      "setPaused(bool,bool)": "6426be48",
      "setUtilityAddress(address)": "89bad0a6",
      "setWhitelist(address,bool)": "53d6fd59",
      "setWhitelistBatch(address[],bool[])": "47af19aa",
      "setWhitelistEnabled(bool)": "052d9e7e",
      "supportsInterface(bytes4)": "01ffc9a7",
      "totalDepositedETH()": "899aa991",
      "totalDepositedUSDC()": "27175b23",
      "totalReinvestedETH()": "97d9e5b4",
      "totalReinvestedUSDC()": "e15e23c1",
      "totalUtilityETH()": "b65ba94b",
      "totalUtilityUSDC()": "3ac43970",
      "totalWithdrawnETH()": "8b713b2e",
      "totalWithdrawnUSDC()": "e340b783",
      "unlockDepositsForUser(address,uint256[])": "867d099a",
      "userClaimableUtilityETH(address)": "3408567c",
      "userClaimableUtilityUSDC(address)": "e9fe0c78",
      "userDeposits(address,uint256)": "08f43333",
      "userTotalReinvestedETH(address)": "886d589d",
      "userTotalReinvestedUSDC(address)": "04c68af0",
      "utilityAddress()": "f29b2239",
      "whitelistEnabled()": "51fb012d",
      "withdraw(uint256)": "2e1a7d4d",
      "withdrawUtilityETH(uint256)": "93055c43",
      "withdrawUtilityUSDC(uint256)": "76c1d3db",
      "withdrawnUsers(uint256)": "9e657e33"
    }
  },
  "storageLayout": {
    "storage": [
      {
        "astId": 14345,
        "contract": "PoolFamilyAndFriends.sol:PoolFamilyAndFriends",
        "label": "_roles",
        "offset": 0,
        "slot": "0",
        "type": "t_mapping(t_bytes32,t_struct(RoleData)14340_storage)"
      },
      {
        "astId": 14625,
        "contract": "PoolFamilyAndFriends.sol:PoolFamilyAndFriends",
        "label": "_status",
        "offset": 0,
        "slot": "1",
        "type": "t_uint256"
      },
      {
        "astId": 7028,
        "contract": "PoolFamilyAndFriends.sol:PoolFamilyAndFriends",
        "label": "lockupPeriod",
        "offset": 0,
        "slot": "2",
        "type": "t_uint256"
      },
      {
        "astId": 7031,
        "contract": "PoolFamilyAndFriends.sol:PoolFamilyAndFriends",
        "label": "maxCapETH",
        "offset": 0,
        "slot": "3",
        "type": "t_uint256"
      },
      {
        "astId": 7036,
        "contract": "PoolFamilyAndFriends.sol:PoolFamilyAndFriends",
        "label": "maxCapUSDC",
        "offset": 0,
        "slot": "4",
        "type": "t_uint256"
      },
      {
        "astId": 7038,
        "contract": "PoolFamilyAndFriends.sol:PoolFamilyAndFriends",
        "label": "pausedDeposits",
        "offset": 0,
        "slot": "5",
        "type": "t_bool"
      },
      {
        "astId": 7040,
        "contract": "PoolFamilyAndFriends.sol:PoolFamilyAndFriends",
        "label": "pausedWithdrawals",
        "offset": 1,
        "slot": "5",
        "type": "t_bool"
      },
      {
        "astId": 7042,
        "contract": "PoolFamilyAndFriends.sol:PoolFamilyAndFriends",
        "label": "whitelistEnabled",
        "offset": 2,
        "slot": "5",
        "type": "t_bool"
      },
      {
        "astId": 7044,
        "contract": "PoolFamilyAndFriends.sol:PoolFamilyAndFriends",
        "label": "globalLiquidationEnabled",
        "offset": 3,
        "slot": "5",
        "type": "t_bool"
      },
      {
        "astId": 7046,
        "contract": "PoolFamilyAndFriends.sol:PoolFamilyAndFriends",
        "label": "globalLiquidationTimestamp",
        "offset": 0,
        "slot": "6",
        "type": "t_uint256"
      },
      {
        "astId": 7048,
        "contract": "PoolFamilyAndFriends.sol:PoolFamilyAndFriends",
        "label": "utilityAddress",
        "offset": 0,
        "slot": "7",
        "type": "t_address"
      },
      {
        "astId": 7099,
        "contract": "PoolFamilyAndFriends.sol:PoolFamilyAndFriends",
        "label": "userDeposits",
        "offset": 0,
        "slot": "8",
        "type": "t_mapping(t_address,t_array(t_struct(DepositInfo)7093_storage)dyn_storage)"
      },
      {
        "astId": 7103,
        "contract": "PoolFamilyAndFriends.sol:PoolFamilyAndFriends",
        "label": "isWhitelisted",
        "offset": 0,
        "slot": "9",
        "type": "t_mapping(t_address,t_bool)"
      },
      {
        "astId": 7107,
        "contract": "PoolFamilyAndFriends.sol:PoolFamilyAndFriends",
        "label": "hasWithdrawn",
        "offset": 0,
        "slot": "10",
        "type": "t_mapping(t_address,t_bool)"
      },
      {
        "astId": 7111,
        "contract": "PoolFamilyAndFriends.sol:PoolFamilyAndFriends",
        "label": "userClaimableUtilityETH",
        "offset": 0,
        "slot": "11",
        "type": "t_mapping(t_address,t_uint256)"
      },
      {
        "astId": 7115,
        "contract": "PoolFamilyAndFriends.sol:PoolFamilyAndFriends",
        "label": "userClaimableUtilityUSDC",
        "offset": 0,
        "slot": "12",
        "type": "t_mapping(t_address,t_uint256)"
      },
      {
        "astId": 7119,
        "contract": "PoolFamilyAndFriends.sol:PoolFamilyAndFriends",
        "label": "userTotalReinvestedETH",
        "offset": 0,
        "slot": "13",
        "type": "t_mapping(t_address,t_uint256)"
      },
      {
        "astId": 7123,
        "contract": "PoolFamilyAndFriends.sol:PoolFamilyAndFriends",
        "label": "userTotalReinvestedUSDC",
        "offset": 0,
        "slot": "14",
        "type": "t_mapping(t_address,t_uint256)"
      },
      {
        "astId": 7126,
        "contract": "PoolFamilyAndFriends.sol:PoolFamilyAndFriends",
        "label": "allUsers",
        "offset": 0,
        "slot": "15",
        "type": "t_array(t_address)dyn_storage"
      },
      {
        "astId": 7129,
        "contract": "PoolFamilyAndFriends.sol:PoolFamilyAndFriends",
        "label": "withdrawnUsers",
        "offset": 0,
        "slot": "16",
        "type": "t_array(t_address)dyn_storage"
      },
      {
        "astId": 7132,
        "contract": "PoolFamilyAndFriends.sol:PoolFamilyAndFriends",
        "label": "allDepositors",
        "offset": 0,
        "slot": "17",
        "type": "t_array(t_address)dyn_storage"
      },
      {
        "astId": 7134,
        "contract": "PoolFamilyAndFriends.sol:PoolFamilyAndFriends",
        "label": "totalDepositedETH",
        "offset": 0,
        "slot": "18",
        "type": "t_uint256"
      },
      {
        "astId": 7136,
        "contract": "PoolFamilyAndFriends.sol:PoolFamilyAndFriends",
        "label": "totalDepositedUSDC",
        "offset": 0,
        "slot": "19",
        "type": "t_uint256"
      },
      {
        "astId": 7138,
        "contract": "PoolFamilyAndFriends.sol:PoolFamilyAndFriends",
        "label": "totalWithdrawnETH",
        "offset": 0,
        "slot": "20",
        "type": "t_uint256"
      },
      {
        "astId": 7140,
        "contract": "PoolFamilyAndFriends.sol:PoolFamilyAndFriends",
        "label": "totalWithdrawnUSDC",
        "offset": 0,
        "slot": "21",
        "type": "t_uint256"
      },
      {
        "astId": 7142,
        "contract": "PoolFamilyAndFriends.sol:PoolFamilyAndFriends",
        "label": "totalUtilityETH",
        "offset": 0,
        "slot": "22",
        "type": "t_uint256"
      },
      {
        "astId": 7144,
        "contract": "PoolFamilyAndFriends.sol:PoolFamilyAndFriends",
        "label": "totalUtilityUSDC",
        "offset": 0,
        "slot": "23",
        "type": "t_uint256"
      },
      {
        "astId": 7146,
        "contract": "PoolFamilyAndFriends.sol:PoolFamilyAndFriends",
        "label": "totalReinvestedETH",
        "offset": 0,
        "slot": "24",
        "type": "t_uint256"
      },
      {
        "astId": 7148,
        "contract": "PoolFamilyAndFriends.sol:PoolFamilyAndFriends",
        "label": "totalReinvestedUSDC",
        "offset": 0,
        "slot": "25",
        "type": "t_uint256"
      }
    ],
    "types": {
      "t_address": {
        "encoding": "inplace",
        "label": "address",
        "numberOfBytes": "20"
      },
      "t_array(t_address)dyn_storage": {
        "base": "t_address",
        "encoding": "dynamic_array",
        "label": "address[]",
        "numberOfBytes": "32"
      },
      "t_array(t_struct(DepositInfo)7093_storage)dyn_storage": {
        "base": "t_struct(DepositInfo)7093_storage",
        "encoding": "dynamic_array",
        "label": "struct PoolFamilyAndFriends.DepositInfo[]",
        "numberOfBytes": "32"
      },
      "t_bool": {
        "encoding": "inplace",
        "label": "bool",
        "numberOfBytes": "1"
      },
      "t_bytes32": {
        "encoding": "inplace",
        "label": "bytes32",
        "numberOfBytes": "32"
      },
      "t_enum(TokenType)7025": {
        "encoding": "inplace",
        "label": "enum PoolFamilyAndFriends.TokenType",
        "numberOfBytes": "1"
      },
      "t_mapping(t_address,t_array(t_struct(DepositInfo)7093_storage)dyn_storage)": {
        "encoding": "mapping",
        "key": "t_address",
        "label": "mapping(address => struct PoolFamilyAndFriends.DepositInfo[])",
        "numberOfBytes": "32",
        "value": "t_array(t_struct(DepositInfo)7093_storage)dyn_storage"
      },
      "t_mapping(t_address,t_bool)": {
        "encoding": "mapping",
        "key": "t_address",
        "label": "mapping(address => bool)",
        "numberOfBytes": "32",
        "value": "t_bool"
      },
      "t_mapping(t_address,t_uint256)": {
        "encoding": "mapping",
        "key": "t_address",
        "label": "mapping(address => uint256)",
        "numberOfBytes": "32",
        "value": "t_uint256"
      },
      "t_mapping(t_bytes32,t_struct(RoleData)14340_storage)": {
        "encoding": "mapping",
        "key": "t_bytes32",
        "label": "mapping(bytes32 => struct AccessControl.RoleData)",
        "numberOfBytes": "32",
        "value": "t_struct(RoleData)14340_storage"
      },
      "t_struct(DepositInfo)7093_storage": {
        "encoding": "inplace",
        "label": "struct PoolFamilyAndFriends.DepositInfo",
        "members": [
          {
            "astId": 7076,
            "contract": "PoolFamilyAndFriends.sol:PoolFamilyAndFriends",
            "label": "token",
            "offset": 0,
            "slot": "0",
            "type": "t_enum(TokenType)7025"
          },
          {
            "astId": 7078,
            "contract": "PoolFamilyAndFriends.sol:PoolFamilyAndFriends",
            "label": "amount",
            "offset": 0,
            "slot": "1",
            "type": "t_uint256"
          },
          {
            "astId": 7080,
            "contract": "PoolFamilyAndFriends.sol:PoolFamilyAndFriends",
            "label": "timestamp",
            "offset": 0,
            "slot": "2",
            "type": "t_uint256"
          },
          {
            "astId": 7082,
            "contract": "PoolFamilyAndFriends.sol:PoolFamilyAndFriends",
            "label": "withdrawn",
            "offset": 0,
            "slot": "3",
            "type": "t_bool"
          },
          {
            "astId": 7084,
            "contract": "PoolFamilyAndFriends.sol:PoolFamilyAndFriends",
            "label": "unlockedByAdmin",
            "offset": 1,
            "slot": "3",
            "type": "t_bool"
          },
          {
            "astId": 7086,
            "contract": "PoolFamilyAndFriends.sol:PoolFamilyAndFriends",
            "label": "fullyRedeemable",
            "offset": 2,
            "slot": "3",
            "type": "t_bool"
          },
          {
            "astId": 7088,
            "contract": "PoolFamilyAndFriends.sol:PoolFamilyAndFriends",
            "label": "isReinvestment",
            "offset": 3,
            "slot": "3",
            "type": "t_bool"
          },
          {
            "astId": 7090,
            "contract": "PoolFamilyAndFriends.sol:PoolFamilyAndFriends",
            "label": "withdrawnAt",
            "offset": 0,
            "slot": "4",
            "type": "t_uint256"
          },
          {
            "astId": 7092,
            "contract": "PoolFamilyAndFriends.sol:PoolFamilyAndFriends",
            "label": "yieldReceived",
            "offset": 0,
            "slot": "5",
            "type": "t_uint256"
          }
        ],
        "numberOfBytes": "192"
      },
      "t_struct(RoleData)14340_storage": {
        "encoding": "inplace",
        "label": "struct AccessControl.RoleData",
        "members": [
          {
            "astId": 14337,
            "contract": "PoolFamilyAndFriends.sol:PoolFamilyAndFriends",
            "label": "hasRole",
            "offset": 0,
            "slot": "0",
            "type": "t_mapping(t_address,t_bool)"
          },
          {
            "astId": 14339,
            "contract": "PoolFamilyAndFriends.sol:PoolFamilyAndFriends",
            "label": "adminRole",
            "offset": 0,
            "slot": "1",
            "type": "t_bytes32"
          }
        ],
        "numberOfBytes": "64"
      },
      "t_uint256": {
        "encoding": "inplace",
        "label": "uint256",
        "numberOfBytes": "32"
      }
    }
  },
  "userdoc": {
    "kind": "user",
    "methods": {},
    "notice": "Vault multi-token (ETH, USDC) con mtricas avanzadas, utilidad claimable, reinversin, batch y control granular.",
    "version": 1
  }
}