{
  "_format": "hh-sol-artifact-1",
  "contractName": "PBOXProtocolTreasury",
  "sourceName": "contracts/treasury/PBOXProtocolTreasury.sol",
  "abi": [
    {
      "inputs": [
        {
          "internalType": "address[]",
          "name": "_pandoraSigners",
          "type": "address[]"
        },
        {
          "internalType": "address[]",
          "name": "_daoSigners",
          "type": "address[]"
        },
        {
          "internalType": "address",
          "name": "_pandoraOracle",
          "type": "address"
        },
        {
          "internalType": "address",
          "name": "_protocolGovernor",
          "type": "address"
        },
        {
          "internalType": "uint256",
          "name": "_requiredPandoraConfirmations",
          "type": "uint256"
        },
        {
          "internalType": "uint256",
          "name": "_requiredDaoConfirmations",
          "type": "uint256"
        },
        {
          "internalType": "uint256",
          "name": "_emergencyThreshold",
          "type": "uint256"
        },
        {
          "internalType": "uint256",
          "name": "_emergencyInactivityDays",
          "type": "uint256"
        },
        {
          "internalType": "uint256",
          "name": "_directOperationLimit",
          "type": "uint256"
        },
        {
          "internalType": "uint256",
          "name": "_dailySpendingLimit",
          "type": "uint256"
        },
        {
          "internalType": "address",
          "name": "initialOwner",
          "type": "address"
        }
      ],
      "stateMutability": "nonpayable",
      "type": "constructor"
    },
    {
      "anonymous": false,
      "inputs": [
        {
          "indexed": true,
          "internalType": "uint256",
          "name": "proposalId",
          "type": "uint256"
        },
        {
          "indexed": true,
          "internalType": "address",
          "name": "signer",
          "type": "address"
        }
      ],
      "name": "DAOConfirmed",
      "type": "event"
    },
    {
      "anonymous": false,
      "inputs": [
        {
          "indexed": false,
          "internalType": "uint256",
          "name": "newSpentAmount",
          "type": "uint256"
        },
        {
          "indexed": false,
          "internalType": "uint256",
          "name": "resetTimestamp",
          "type": "uint256"
        }
      ],
      "name": "DailyLimitReset",
      "type": "event"
    },
    {
      "anonymous": false,
      "inputs": [
        {
          "indexed": true,
          "internalType": "uint256",
          "name": "proposalId",
          "type": "uint256"
        },
        {
          "indexed": true,
          "internalType": "address",
          "name": "recipient",
          "type": "address"
        },
        {
          "indexed": false,
          "internalType": "uint256",
          "name": "amount",
          "type": "uint256"
        }
      ],
      "name": "EmergencyExecution",
      "type": "event"
    },
    {
      "anonymous": false,
      "inputs": [
        {
          "indexed": true,
          "internalType": "address",
          "name": "recipient",
          "type": "address"
        },
        {
          "indexed": false,
          "internalType": "uint256",
          "name": "amount",
          "type": "uint256"
        },
        {
          "indexed": false,
          "internalType": "string",
          "name": "purpose",
          "type": "string"
        }
      ],
      "name": "OperationalWithdrawal",
      "type": "event"
    },
    {
      "anonymous": false,
      "inputs": [
        {
          "indexed": true,
          "internalType": "address",
          "name": "previousOwner",
          "type": "address"
        },
        {
          "indexed": true,
          "internalType": "address",
          "name": "newOwner",
          "type": "address"
        }
      ],
      "name": "OwnershipTransferred",
      "type": "event"
    },
    {
      "anonymous": false,
      "inputs": [
        {
          "indexed": true,
          "internalType": "uint256",
          "name": "proposalId",
          "type": "uint256"
        },
        {
          "indexed": true,
          "internalType": "address",
          "name": "signer",
          "type": "address"
        }
      ],
      "name": "PandoraConfirmed",
      "type": "event"
    },
    {
      "anonymous": false,
      "inputs": [
        {
          "indexed": false,
          "internalType": "address",
          "name": "account",
          "type": "address"
        }
      ],
      "name": "Paused",
      "type": "event"
    },
    {
      "anonymous": false,
      "inputs": [
        {
          "indexed": true,
          "internalType": "uint256",
          "name": "proposalId",
          "type": "uint256"
        }
      ],
      "name": "ProposalCancelled",
      "type": "event"
    },
    {
      "anonymous": false,
      "inputs": [
        {
          "indexed": true,
          "internalType": "uint256",
          "name": "proposalId",
          "type": "uint256"
        },
        {
          "indexed": true,
          "internalType": "address",
          "name": "recipient",
          "type": "address"
        },
        {
          "indexed": false,
          "internalType": "uint256",
          "name": "amount",
          "type": "uint256"
        },
        {
          "indexed": false,
          "internalType": "string",
          "name": "purpose",
          "type": "string"
        }
      ],
      "name": "ProposalCreated",
      "type": "event"
    },
    {
      "anonymous": false,
      "inputs": [
        {
          "indexed": true,
          "internalType": "uint256",
          "name": "proposalId",
          "type": "uint256"
        },
        {
          "indexed": true,
          "internalType": "address",
          "name": "recipient",
          "type": "address"
        },
        {
          "indexed": false,
          "internalType": "uint256",
          "name": "amount",
          "type": "uint256"
        }
      ],
      "name": "ProposalExecuted",
      "type": "event"
    },
    {
      "anonymous": false,
      "inputs": [
        {
          "indexed": true,
          "internalType": "uint256",
          "name": "proposalId",
          "type": "uint256"
        }
      ],
      "name": "ProposalRejected",
      "type": "event"
    },
    {
      "anonymous": false,
      "inputs": [
        {
          "indexed": false,
          "internalType": "address",
          "name": "account",
          "type": "address"
        }
      ],
      "name": "Unpaused",
      "type": "event"
    },
    {
      "inputs": [],
      "name": "activateProtocol",
      "outputs": [],
      "stateMutability": "nonpayable",
      "type": "function"
    },
    {
      "inputs": [
        {
          "internalType": "uint256",
          "name": "proposalId",
          "type": "uint256"
        }
      ],
      "name": "canExecute",
      "outputs": [
        {
          "internalType": "bool",
          "name": "",
          "type": "bool"
        }
      ],
      "stateMutability": "view",
      "type": "function"
    },
    {
      "inputs": [
        {
          "internalType": "uint256",
          "name": "proposalId",
          "type": "uint256"
        }
      ],
      "name": "confirmByDAO",
      "outputs": [],
      "stateMutability": "nonpayable",
      "type": "function"
    },
    {
      "inputs": [
        {
          "internalType": "uint256",
          "name": "proposalId",
          "type": "uint256"
        }
      ],
      "name": "confirmByPandora",
      "outputs": [],
      "stateMutability": "nonpayable",
      "type": "function"
    },
    {
      "inputs": [
        {
          "internalType": "address",
          "name": "recipient",
          "type": "address"
        },
        {
          "internalType": "uint256",
          "name": "amount",
          "type": "uint256"
        },
        {
          "internalType": "bytes32",
          "name": "purposeHash",
          "type": "bytes32"
        }
      ],
      "name": "createWithdrawalProposal",
      "outputs": [
        {
          "internalType": "uint256",
          "name": "",
          "type": "uint256"
        }
      ],
      "stateMutability": "nonpayable",
      "type": "function"
    },
    {
      "inputs": [],
      "name": "dailySpendingLimit",
      "outputs": [
        {
          "internalType": "uint256",
          "name": "",
          "type": "uint256"
        }
      ],
      "stateMutability": "view",
      "type": "function"
    },
    {
      "inputs": [
        {
          "internalType": "address",
          "name": "",
          "type": "address"
        }
      ],
      "name": "daoSigners",
      "outputs": [
        {
          "internalType": "bool",
          "name": "",
          "type": "bool"
        }
      ],
      "stateMutability": "view",
      "type": "function"
    },
    {
      "inputs": [
        {
          "internalType": "address",
          "name": "recipient",
          "type": "address"
        },
        {
          "internalType": "uint256",
          "name": "amount",
          "type": "uint256"
        },
        {
          "internalType": "string",
          "name": "purpose",
          "type": "string"
        }
      ],
      "name": "directOperation",
      "outputs": [],
      "stateMutability": "nonpayable",
      "type": "function"
    },
    {
      "inputs": [],
      "name": "directOperationLimit",
      "outputs": [
        {
          "internalType": "uint256",
          "name": "",
          "type": "uint256"
        }
      ],
      "stateMutability": "view",
      "type": "function"
    },
    {
      "inputs": [
        {
          "internalType": "uint256",
          "name": "proposalId",
          "type": "uint256"
        }
      ],
      "name": "emergencyExecutionByInactivity",
      "outputs": [],
      "stateMutability": "nonpayable",
      "type": "function"
    },
    {
      "inputs": [],
      "name": "emergencyInactivityDays",
      "outputs": [
        {
          "internalType": "uint256",
          "name": "",
          "type": "uint256"
        }
      ],
      "stateMutability": "view",
      "type": "function"
    },
    {
      "inputs": [],
      "name": "emergencyThreshold",
      "outputs": [
        {
          "internalType": "uint256",
          "name": "",
          "type": "uint256"
        }
      ],
      "stateMutability": "view",
      "type": "function"
    },
    {
      "inputs": [
        {
          "internalType": "uint256",
          "name": "proposalId",
          "type": "uint256"
        }
      ],
      "name": "executeProposal",
      "outputs": [],
      "stateMutability": "nonpayable",
      "type": "function"
    },
    {
      "inputs": [
        {
          "internalType": "uint256",
          "name": "proposalId",
          "type": "uint256"
        }
      ],
      "name": "executeProposalBySigner",
      "outputs": [],
      "stateMutability": "nonpayable",
      "type": "function"
    },
    {
      "inputs": [],
      "name": "getBalance",
      "outputs": [
        {
          "internalType": "uint256",
          "name": "",
          "type": "uint256"
        }
      ],
      "stateMutability": "view",
      "type": "function"
    },
    {
      "inputs": [
        {
          "internalType": "uint256",
          "name": "proposalId",
          "type": "uint256"
        }
      ],
      "name": "getProposalInfo",
      "outputs": [
        {
          "internalType": "address",
          "name": "recipient",
          "type": "address"
        },
        {
          "internalType": "uint256",
          "name": "amount",
          "type": "uint256"
        },
        {
          "internalType": "bytes32",
          "name": "purposeHash",
          "type": "bytes32"
        },
        {
          "internalType": "uint256",
          "name": "pandoraConfirmations",
          "type": "uint256"
        },
        {
          "internalType": "uint256",
          "name": "daoConfirmations",
          "type": "uint256"
        },
        {
          "internalType": "enum PBOXProtocolTreasury.ProposalStatus",
          "name": "status",
          "type": "uint8"
        },
        {
          "internalType": "bool",
          "name": "expired",
          "type": "bool"
        }
      ],
      "stateMutability": "view",
      "type": "function"
    },
    {
      "inputs": [],
      "name": "lastDailyReset",
      "outputs": [
        {
          "internalType": "uint256",
          "name": "",
          "type": "uint256"
        }
      ],
      "stateMutability": "view",
      "type": "function"
    },
    {
      "inputs": [],
      "name": "owner",
      "outputs": [
        {
          "internalType": "address",
          "name": "",
          "type": "address"
        }
      ],
      "stateMutability": "view",
      "type": "function"
    },
    {
      "inputs": [],
      "name": "pandoraOracle",
      "outputs": [
        {
          "internalType": "address",
          "name": "",
          "type": "address"
        }
      ],
      "stateMutability": "view",
      "type": "function"
    },
    {
      "inputs": [
        {
          "internalType": "address",
          "name": "",
          "type": "address"
        }
      ],
      "name": "pandoraSigners",
      "outputs": [
        {
          "internalType": "bool",
          "name": "",
          "type": "bool"
        }
      ],
      "stateMutability": "view",
      "type": "function"
    },
    {
      "inputs": [],
      "name": "pause",
      "outputs": [],
      "stateMutability": "nonpayable",
      "type": "function"
    },
    {
      "inputs": [],
      "name": "paused",
      "outputs": [
        {
          "internalType": "bool",
          "name": "",
          "type": "bool"
        }
      ],
      "stateMutability": "view",
      "type": "function"
    },
    {
      "inputs": [],
      "name": "proposalCount",
      "outputs": [
        {
          "internalType": "uint256",
          "name": "",
          "type": "uint256"
        }
      ],
      "stateMutability": "view",
      "type": "function"
    },
    {
      "inputs": [
        {
          "internalType": "uint256",
          "name": "",
          "type": "uint256"
        }
      ],
      "name": "proposals",
      "outputs": [
        {
          "internalType": "address",
          "name": "recipient",
          "type": "address"
        },
        {
          "internalType": "uint256",
          "name": "amount",
          "type": "uint256"
        },
        {
          "internalType": "bytes32",
          "name": "purposeHash",
          "type": "bytes32"
        },
        {
          "internalType": "uint256",
          "name": "pandoraConfirmations",
          "type": "uint256"
        },
        {
          "internalType": "uint256",
          "name": "daoConfirmations",
          "type": "uint256"
        },
        {
          "internalType": "uint256",
          "name": "timestamp",
          "type": "uint256"
        },
        {
          "internalType": "enum PBOXProtocolTreasury.ProposalStatus",
          "name": "status",
          "type": "uint8"
        },
        {
          "internalType": "bool",
          "name": "expired",
          "type": "bool"
        }
      ],
      "stateMutability": "view",
      "type": "function"
    },
    {
      "inputs": [],
      "name": "protocolGovernor",
      "outputs": [
        {
          "internalType": "address",
          "name": "",
          "type": "address"
        }
      ],
      "stateMutability": "view",
      "type": "function"
    },
    {
      "inputs": [
        {
          "internalType": "uint256",
          "name": "proposalId",
          "type": "uint256"
        }
      ],
      "name": "rejectProposal",
      "outputs": [],
      "stateMutability": "nonpayable",
      "type": "function"
    },
    {
      "inputs": [],
      "name": "renounceOwnership",
      "outputs": [],
      "stateMutability": "nonpayable",
      "type": "function"
    },
    {
      "inputs": [],
      "name": "requiredDaoConfirmations",
      "outputs": [
        {
          "internalType": "uint256",
          "name": "",
          "type": "uint256"
        }
      ],
      "stateMutability": "view",
      "type": "function"
    },
    {
      "inputs": [],
      "name": "requiredPandoraConfirmations",
      "outputs": [
        {
          "internalType": "uint256",
          "name": "",
          "type": "uint256"
        }
      ],
      "stateMutability": "view",
      "type": "function"
    },
    {
      "inputs": [],
      "name": "spentToday",
      "outputs": [
        {
          "internalType": "uint256",
          "name": "",
          "type": "uint256"
        }
      ],
      "stateMutability": "view",
      "type": "function"
    },
    {
      "inputs": [
        {
          "internalType": "address",
          "name": "newOwner",
          "type": "address"
        }
      ],
      "name": "transferOwnership",
      "outputs": [],
      "stateMutability": "nonpayable",
      "type": "function"
    },
    {
      "inputs": [],
      "name": "unpause",
      "outputs": [],
      "stateMutability": "nonpayable",
      "type": "function"
    },
    {
      "inputs": [
        {
          "internalType": "uint256",
          "name": "newThreshold",
          "type": "uint256"
        },
        {
          "internalType": "uint256",
          "name": "newInactivityDays",
          "type": "uint256"
        }
      ],
      "name": "updateEmergencyParams",
      "outputs": [],
      "stateMutability": "nonpayable",
      "type": "function"
    },
    {
      "inputs": [
        {
          "internalType": "uint256",
          "name": "newDailyLimit",
          "type": "uint256"
        },
        {
          "internalType": "uint256",
          "name": "newDirectLimit",
          "type": "uint256"
        }
      ],
      "name": "updateLimits",
      "outputs": [],
      "stateMutability": "nonpayable",
      "type": "function"
    },
    {
      "stateMutability": "payable",
      "type": "receive"
    }
  ],
  "bytecode": "0x608060405234620005ea5762001fe6803803806200001d81620005ef565b92833981019061016081830312620005ea5780516001600160401b0390818111620005ea57836200005091840162000640565b926020830151918211620005ea576200006b91830162000640565b62000079604083016200062b565b9162000088606082016200062b565b60808201519160a08101519460c082015160e08301519061010084015192620000bb61014061012087015196016200062b565b50620000c73362000703565b600180556002805460ff191681558a51106200059957600388511062000555576001600160a01b0381161562000510576001600160a01b03861615620004cb57600187101580620004bf575b156200046f5760028910158062000463575b156200041e5760005b8a5181101562000249576001600160a01b036200014c828d620006d8565b51161562000204576001600160a01b0362000168828d620006d8565b5116600052600360205260ff60406000205416620001bf57620001b9906001600160a01b0362000199828e620006d8565b511660005260036020526040600020600160ff19825416179055620006b2565b6200012e565b60405162461bcd60e51b815260206004820152601d60248201527f5732453a204475706c69636174652050616e646f7261207369676e65720000006044820152606490fd5b60405162461bcd60e51b815260206004820152601b60248201527f5732453a20496e76616c69642050616e646f7261207369676e657200000000006044820152606490fd5b508860005b895181101562000369576001600160a01b036200026c828c620006d8565b51161562000324576001600160a01b0362000288828c620006d8565b5116600052600460205260ff60406000205416620002df57620002d9906001600160a01b03620002b9828d620006d8565b511660005260046020526040600020600160ff19825416179055620006b2565b6200024e565b60405162461bcd60e51b815260206004820152601960248201527f5732453a204475706c69636174652044414f207369676e6572000000000000006044820152606490fd5b60405162461bcd60e51b815260206004820152601760248201527f5732453a20496e76616c69642044414f207369676e65720000000000000000006044820152606490fd5b508760055560065560018060a01b03199060018060a01b031681600754161760075560018060a01b038616906008541617600855600955600a55600b55600e55426010553360018060a01b036000541603620003da57620003ca9062000703565b60405161189b90816200074b8239f35b606460405162461bcd60e51b815260206004820152602060248201527f4f776e61626c653a2063616c6c6572206973206e6f7420746865206f776e65726044820152fd5b60405162461bcd60e51b815260206004820152601e60248201527f5732453a20496e76616c69642044414f20636f6e6669726d6174696f6e7300006044820152606490fd5b50875189111562000125565b60405162461bcd60e51b815260206004820152602260248201527f5732453a20496e76616c69642050616e646f726120636f6e6669726d6174696f6044820152616e7360f01b6064820152608490fd5b50895187111562000113565b60405162461bcd60e51b815260206004820152601560248201527f5732453a20496e76616c696420676f7665726e6f7200000000000000000000006044820152606490fd5b60405162461bcd60e51b815260206004820152601360248201527f5732453a20496e76616c6964206f7261636c65000000000000000000000000006044820152606490fd5b606460405162461bcd60e51b815260206004820152602060248201527f5732453a204e656564206174206c6561737420332044414f207369676e6572736044820152fd5b60405162461bcd60e51b8152602060048201526024808201527f5732453a204e656564206174206c6561737420322050616e646f7261207369676044820152636e65727360e01b6064820152608490fd5b600080fd5b6040519190601f01601f191682016001600160401b038111838210176200061557604052565b634e487b7160e01b600052604160045260246000fd5b51906001600160a01b0382168203620005ea57565b81601f82011215620005ea578051916001600160401b03831162000615578260051b602092838062000674818501620005ef565b809781520192820101928311620005ea578301905b82821062000698575050505090565b838091620006a6846200062b565b81520191019062000689565b6000198114620006c25760010190565b634e487b7160e01b600052601160045260246000fd5b8051821015620006ed5760209160051b010190565b634e487b7160e01b600052603260045260246000fd5b600080546001600160a01b039283166001600160a01b03198216811783559216907f8be0079c531659141344cd1fd0a4f28419497f9722a3daafe3b4186f6b6457e09080a356fe6080604081815260049182361015610022575b505050361561002057600080fd5b005b600092833560e01c9182628ac91d1461135457508163013cf08b146112cc578163025f77cb146112a357816308330a14146110fe5781630d61b5191461102057816312065fe0146110055781631b8f4a3914610f305781633027a00514610ef35781633e882b6c14610ed45781633f4ba83a14610e3e5781635c975abb14610e1a578163715018a614610dc05781637d19ac7b14610cbc5781637f819c6114610c9d5781638456cb5914610c095781638a78e3bd14610bcb5781638da5cb5b14610ba3578163a2240e1914610ad1578163b026a79b14610ab2578163b4a7a18714610a93578163b679e0bc14610938578163bb4ee28114610884578163bc28d87814610790578163bc903cb814610712578163bcd037c8146106f3578163bf49ec301461054a578163c19c1dfb1461052b578163cc63604a146104c0578163da35c664146104a1578163dc3c491e146102d7578163e3625787146102b8578163f059cf2b14610299578163f2fde38b146101d2575063fd1e77f6146101a75780610012565b346101ce57816003193601126101ce5760085490516001600160a01b039091168152602090f35b5080fd5b905034610295576020366003190112610295576101ed611393565b906101f66113c4565b6001600160a01b0391821692831561024357505082546001600160a01b0319811683178455167f8be0079c531659141344cd1fd0a4f28419497f9722a3daafe3b4186f6b6457e08380a380f35b906020608492519162461bcd60e51b8352820152602660248201527f4f776e61626c653a206e6577206f776e657220697320746865207a65726f206160448201526564647265737360d01b6064820152fd5b8280fd5b5050346101ce57816003193601126101ce57602090600f549051908152f35b83346102d457806003193601126102d4576102d16113c4565b80f35b80fd5b919050346102955760208060031936011261049d5782359160018060a01b03610305816007541633146115c3565b838652600c835281862060018101958654600954811061044c576005830154600a54906201518091828102928184041490151715610439579061034791611799565b42106103f65760068301805460ff19166003179055610365906117a6565b87808080868654168b54905af161037a61169f565b50156103b35750907f64fc870a506f8609c6ec600ea66ff687bb7d87a7054b69a82096289efd1b9457939291541694549051908152a380f35b835162461bcd60e51b8152908101859052601e60248201527f5732453a20456d657267656e6379207472616e73666572206661696c656400006044820152606490fd5b845162461bcd60e51b8152808301879052601d60248201527f5732453a20456d657267656e637920706572696f64206e6f74206d65740000006044820152606490fd5b634e487b7160e01b8b526011845260248bfd5b845162461bcd60e51b8152808301879052602560248201527f5732453a20416d6f756e742062656c6f7720656d657267656e637920746872656044820152641cda1bdb1960da1b6064820152608490fd5b8380fd5b5050346101ce57816003193601126101ce57602090600d549051908152f35b8383346101ce5760203660031901126101ce5782358252600c602052600681832001549160ff831690600582101561051857602060018314848682610509575b50519015158152f35b60081c60ff1615915083610500565b634e487b7160e01b815260218552602490fd5b5050346101ce57816003193601126101ce576020906005549051908152f35b9190503461029557606036600319011261029557610566611393565b67ffffffffffffffff92602435916044358581116106ef57366023820112156106ef57808301359586116106ef5736602487830101116106ef576007546001600160a01b0393906105ba90851633146115c3565b6105c2611743565b600b548511610699576105d74786111561141c565b6105e0856117a6565b8780808088875af16105f061169f565b5015610656575091849391866024606095827f0fb5fc6cac683d927f79899abfc1ebb501806f459b7a1928ea31e5ef6ec7d0e899519889978852806020890152870152018585013782870184018890521694601f01601f19168101030190a26001805580f35b606490602087519162461bcd60e51b8352820152601c60248201527f5732453a20446972656374206f7065726174696f6e206661696c6564000000006044820152fd5b608490602087519162461bcd60e51b8352820152602a60248201527f5732453a20416d6f756e74206578636565647320646972656374206f706572616044820152691d1a5bdb881b1a5b5a5d60b21b6064820152fd5b8680fd5b5050346101ce57816003193601126101ce576020906009549051908152f35b91905034610295576020366003190112610295578060ff9160e09484358152600c6020522060018060a01b0381541693600182015492600283015490600660038501549385015494015494815197885260208801528601526060850152608084015261078360a08401838316611370565b60081c16151560c0820152f35b9050346102955760203660031901126102955780359160018060a01b036007541633148015610870575b1561082d57828452600c60205283206006018054909160ff821690600582101561081a5750906107ec600292156114d9565b60ff19161790557fd92fba445edb3153b571e6df782d7a66fd0ce668519273670820ee3a86da0ef48280a280f35b634e487b7160e01b865260219052602485fd5b906020606492519162461bcd60e51b8352820152601d60248201527f5732453a204e6f7420617574686f72697a656420746f2072656a6563740000006044820152fd5b503384528160205260ff81852054166107ba565b9190503461029557610895366113ae565b9290916108a06113c4565b82156108fc57600784106108b9575050600955600a5580f35b906020606492519162461bcd60e51b8352820152601e60248201527f5732453a20496e76616c696420696e616374697669747920706572696f6400006044820152fd5b906020606492519162461bcd60e51b8352820152601660248201527515cc914e88125b9d985b1a59081d1a1c995cda1bdb1960521b6044820152fd5b9190503461029557602036600319011261029557813590338452600360205261096660ff828620541661148d565b61096e611743565b818452600c60205280842092600684019081549060ff82166005811015610a8057600161099b911461160f565b6109ab60ff8360081c161561165b565b6002600387015410610a2d57509160209160037f3b7c90df35b419337cff0919fe91849006607bb66c4373623f06f9d48c1ebb989460ff191617905560018501946109f686546117a6565b60018060a01b0390610a1c88808080868654168c54905af1610a1661169f565b50611700565b541694549051908152a36001805580f35b608490602085519162461bcd60e51b8352820152602760248201527f5732453a20496e73756666696369656e742050616e646f726120636f6e6669726044820152666d6174696f6e7360c81b6064820152fd5b634e487b7160e01b885260218252602488fd5b5050346101ce57816003193601126101ce576020906010549051908152f35b5050346101ce57816003193601126101ce57602090600b549051908152f35b9190503461029557610ae2366113ae565b929091610aed6113c4565b82151580610b9a575b15610b6157828411610b0d575050600e55600b5580f35b906020608492519162461bcd60e51b8352820152602860248201527f5732453a20446972656374206c696d6974206d757374206265203c3d206461696044820152671b1e481b1a5b5a5d60c21b6064820152fd5b906020606492519162461bcd60e51b835282015260136024820152725732453a20496e76616c6964206c696d69747360681b6044820152fd5b50831515610af6565b5050346101ce57816003193601126101ce57905490516001600160a01b039091168152602090f35b5050346101ce5760203660031901126101ce5760209160ff9082906001600160a01b03610bf6611393565b1681526003855220541690519015158152f35b905034610295578260031936011261029557610c236113c4565b6002549060ff8216610c67575060ff1916600117600255513381527f62e78cea01bee320cd4e420270b5ea74000d11b0c9f74754ebdbfc544b05a25890602090a180f35b606490602084519162461bcd60e51b8352820152601060248201526f14185d5cd8589b194e881c185d5cd95960821b6044820152fd5b5050346101ce57816003193601126101ce576020906006549051908152f35b8383346101ce57602092836003193601126102955780359133845281855260ff818520541615610d8857828452600c85528084209060ff600683015416956005871015610d7557610d116102d19697156114d9565b6008830190338852818152610d2c60ff848a20541615611525565b338852528520600160ff1982541617905501610d488154611468565b905533817f497af2a04e2020d6b5425410f75c514b7a1467c3f321a902a8ee29e5f58b83838580a361157f565b634e487b7160e01b865260218452602486fd5b5162461bcd60e51b815290810184905260136024820152722b99229d102737ba102220a79039b4b3b732b960691b6044820152606490fd5b83346102d457806003193601126102d457610dd96113c4565b80546001600160a01b03198116825581906001600160a01b03167f8be0079c531659141344cd1fd0a4f28419497f9722a3daafe3b4186f6b6457e08280a380f35b5050346101ce57816003193601126101ce5760209060ff6002541690519015158152f35b905034610295578260031936011261029557610e586113c4565b6002549060ff821615610e9a575060ff1916600255513381527f5db9ee0a495bf2e6ff9c91a7834c1ba4fdd244a5e8aa4e537bd38aeae4b073aa90602090a180f35b606490602084519162461bcd60e51b8352820152601460248201527314185d5cd8589b194e881b9bdd081c185d5cd95960621b6044820152fd5b5050346101ce57816003193601126101ce57602090600a549051908152f35b9050346102955760203660031901126102955760209260ff918391906001600160a01b03610f1f611393565b168252855220541690519015158152f35b8383346101ce5760203660031901126101ce578235903383526003602052610f5d60ff828520541661148d565b818352600c6020528083209060ff6006830154166005811015610ff25791600391610f8c6102d19594156114d9565b6007820133875280602052610fa760ff838920541615611525565b3387526020528520600160ff1982541617905501610fc58154611468565b905533817f5555650fe50b1775aba29f9b22419cebc9472e2cf125159d41a92ab8e756cc7e8580a361157f565b634e487b7160e01b855260218652602485fd5b5050346101ce57816003193601126101ce5751478152602090f35b919050346102955760203660031901126102955781359060018060a01b0361104d816007541633146115c3565b611055611743565b828552600c60205281852093600685019081549060ff82169060058210156110eb5750916003602094926110ad60017f3b7c90df35b419337cff0919fe91849006607bb66c4373623f06f9d48c1ebb9898961461160f565b6110bd60ff8260081c161561165b565b60ff191617905560018601956110d387546117a6565b610a1c88808080868654168c54905af1610a1661169f565b634e487b7160e01b895260219052602488fd5b905082346102d45760603660031901126102d45761111a611393565b604435916024359161112a6113c4565b6001600160a01b03169384156112675782156112245761114c4784111561141c565b83156111e157602060068787877f85b1e5bd1e58840265c40582ff09f8cbfab823e041a824467b654a99b5156d3960608989611189600d54611468565b97889586600d55868352600c8b5288832090886bffffffffffffffffffffffff60a01b83541617825584600183015560028201554260058201550160ff1981541690558651918252868983015286820152a351908152f35b606490602087519162461bcd60e51b8352820152601960248201527f5732453a20496e76616c696420707572706f73652068617368000000000000006044820152fd5b606490602087519162461bcd60e51b8352820152601c60248201527f5732453a20416d6f756e74206d75737420626520706f736974697665000000006044820152fd5b606490602087519162461bcd60e51b8352820152601660248201527515cc914e88125b9d985b1a59081c9958da5c1a595b9d60521b6044820152fd5b5050346101ce57816003193601126101ce5760075490516001600160a01b039091168152602090f35b9050346102955760203660031901126102955780826101009460ff93358152600c6020522060018060a01b03815416936001820154926002830154600384015491840154926006600586015495015495815198895260208901528701526060860152608085015260a084015261134760c08401838316611370565b60081c16151560e0820152f35b8490346101ce57816003193601126101ce57602090600e548152f35b90600582101561137d5752565b634e487b7160e01b600052602160045260246000fd5b600435906001600160a01b03821682036113a957565b600080fd5b60409060031901126113a9576004359060243590565b6000546001600160a01b031633036113d857565b606460405162461bcd60e51b815260206004820152602060248201527f4f776e61626c653a2063616c6c6572206973206e6f7420746865206f776e65726044820152fd5b1561142357565b60405162461bcd60e51b815260206004820152601960248201527f5732453a20496e73756666696369656e742062616c616e6365000000000000006044820152606490fd5b60001981146114775760010190565b634e487b7160e01b600052601160045260246000fd5b1561149457565b60405162461bcd60e51b815260206004820152601760248201527f5732453a204e6f742050616e646f7261207369676e65720000000000000000006044820152606490fd5b156114e057565b60405162461bcd60e51b815260206004820152601960248201527f5732453a2050726f706f73616c206e6f742070656e64696e67000000000000006044820152606490fd5b1561152c57565b60405162461bcd60e51b815260206004820152602560248201527f5732453a20416c726561647920636f6e6669726d65642062792074686973207360448201526434b3b732b960d91b6064820152608490fd5b600052600c602052604060002060038101546005541115806115b3575b6115a35750565b600601805460ff19166001179055565b506004810154600654111561159c565b156115ca57565b60405162461bcd60e51b815260206004820152601760248201527f5732453a204e6f742050616e646f7261206f7261636c650000000000000000006044820152606490fd5b1561161657565b60405162461bcd60e51b815260206004820152601a60248201527f5732453a2050726f706f73616c206e6f7420617070726f7665640000000000006044820152606490fd5b1561166257565b60405162461bcd60e51b815260206004820152601560248201527415cc914e88141c9bdc1bdcd85b08195e1c1a5c9959605a1b6044820152606490fd5b3d156116fb5767ffffffffffffffff903d8281116116e55760405192601f8201601f19908116603f01168401908111848210176116e55760405282523d6000602084013e565b634e487b7160e01b600052604160045260246000fd5b606090565b1561170757565b60405162461bcd60e51b815260206004820152601460248201527315cc914e88151c985b9cd9995c8819985a5b195960621b6044820152606490fd5b600260015414611754576002600155565b60405162461bcd60e51b815260206004820152601f60248201527f5265656e7472616e637947756172643a207265656e7472616e742063616c6c006044820152606490fd5b9190820180921161147757565b60105462015180810180911161147757421015611827575b600f54906117cc8183611799565b600e54106117e2576117dd91611799565b600f55565b60405162461bcd60e51b815260206004820152601960248201527f5732453a204461696c79206c696d6974206578636565646564000000000000006044820152606490fd5b6000600f55426010557fda4e39dd56d72c2ee3d132e0146bc39e905e78e3bc64c40190421c7b2bcef2ab6040805160008152426020820152a16117be56fea264697066735822122003767ffc880fdf967c46188cee76b64ab4741f1660bbeb2e4cc6ee79d18e670864736f6c63430008140033",
  "linkReferences": {},
  "deployedLinkReferences": {}
}