{
  "_format": "hh-sol-artifact-1",
  "contractName": "PBOXProtocolTreasury",
  "sourceName": "contracts/treasury/PBOXProtocolTreasury.sol",
  "abi": [
    {
      "inputs": [
        {
          "internalType": "address[]",
          "name": "_pandoraSigners",
          "type": "address[]"
        },
        {
          "internalType": "address[]",
          "name": "_daoSigners",
          "type": "address[]"
        },
        {
          "internalType": "address",
          "name": "_pandoraOracle",
          "type": "address"
        },
        {
          "internalType": "address",
          "name": "_protocolGovernor",
          "type": "address"
        },
        {
          "internalType": "uint256",
          "name": "_requiredPandoraConfirmations",
          "type": "uint256"
        },
        {
          "internalType": "uint256",
          "name": "_requiredDaoConfirmations",
          "type": "uint256"
        },
        {
          "internalType": "uint256",
          "name": "_emergencyThreshold",
          "type": "uint256"
        },
        {
          "internalType": "uint256",
          "name": "_emergencyInactivityDays",
          "type": "uint256"
        },
        {
          "internalType": "uint256",
          "name": "_directOperationLimit",
          "type": "uint256"
        },
        {
          "internalType": "uint256",
          "name": "_dailySpendingLimit",
          "type": "uint256"
        },
        {
          "internalType": "address",
          "name": "initialOwner",
          "type": "address"
        }
      ],
      "stateMutability": "nonpayable",
      "type": "constructor"
    },
    {
      "anonymous": false,
      "inputs": [
        {
          "indexed": true,
          "internalType": "uint256",
          "name": "proposalId",
          "type": "uint256"
        },
        {
          "indexed": true,
          "internalType": "address",
          "name": "signer",
          "type": "address"
        }
      ],
      "name": "DAOConfirmed",
      "type": "event"
    },
    {
      "anonymous": false,
      "inputs": [
        {
          "indexed": false,
          "internalType": "uint256",
          "name": "newSpentAmount",
          "type": "uint256"
        },
        {
          "indexed": false,
          "internalType": "uint256",
          "name": "resetTimestamp",
          "type": "uint256"
        }
      ],
      "name": "DailyLimitReset",
      "type": "event"
    },
    {
      "anonymous": false,
      "inputs": [
        {
          "indexed": true,
          "internalType": "uint256",
          "name": "proposalId",
          "type": "uint256"
        },
        {
          "indexed": true,
          "internalType": "address",
          "name": "recipient",
          "type": "address"
        },
        {
          "indexed": false,
          "internalType": "uint256",
          "name": "amount",
          "type": "uint256"
        }
      ],
      "name": "EmergencyExecution",
      "type": "event"
    },
    {
      "anonymous": false,
      "inputs": [
        {
          "indexed": true,
          "internalType": "address",
          "name": "recipient",
          "type": "address"
        },
        {
          "indexed": false,
          "internalType": "uint256",
          "name": "amount",
          "type": "uint256"
        },
        {
          "indexed": false,
          "internalType": "string",
          "name": "purpose",
          "type": "string"
        }
      ],
      "name": "OperationalWithdrawal",
      "type": "event"
    },
    {
      "anonymous": false,
      "inputs": [
        {
          "indexed": true,
          "internalType": "address",
          "name": "previousOwner",
          "type": "address"
        },
        {
          "indexed": true,
          "internalType": "address",
          "name": "newOwner",
          "type": "address"
        }
      ],
      "name": "OwnershipTransferred",
      "type": "event"
    },
    {
      "anonymous": false,
      "inputs": [
        {
          "indexed": true,
          "internalType": "uint256",
          "name": "proposalId",
          "type": "uint256"
        },
        {
          "indexed": true,
          "internalType": "address",
          "name": "signer",
          "type": "address"
        }
      ],
      "name": "PandoraConfirmed",
      "type": "event"
    },
    {
      "anonymous": false,
      "inputs": [
        {
          "indexed": false,
          "internalType": "address",
          "name": "account",
          "type": "address"
        }
      ],
      "name": "Paused",
      "type": "event"
    },
    {
      "anonymous": false,
      "inputs": [
        {
          "indexed": true,
          "internalType": "uint256",
          "name": "proposalId",
          "type": "uint256"
        }
      ],
      "name": "ProposalCancelled",
      "type": "event"
    },
    {
      "anonymous": false,
      "inputs": [
        {
          "indexed": true,
          "internalType": "uint256",
          "name": "proposalId",
          "type": "uint256"
        },
        {
          "indexed": true,
          "internalType": "address",
          "name": "recipient",
          "type": "address"
        },
        {
          "indexed": false,
          "internalType": "uint256",
          "name": "amount",
          "type": "uint256"
        },
        {
          "indexed": false,
          "internalType": "string",
          "name": "purpose",
          "type": "string"
        }
      ],
      "name": "ProposalCreated",
      "type": "event"
    },
    {
      "anonymous": false,
      "inputs": [
        {
          "indexed": true,
          "internalType": "uint256",
          "name": "proposalId",
          "type": "uint256"
        },
        {
          "indexed": true,
          "internalType": "address",
          "name": "recipient",
          "type": "address"
        },
        {
          "indexed": false,
          "internalType": "uint256",
          "name": "amount",
          "type": "uint256"
        }
      ],
      "name": "ProposalExecuted",
      "type": "event"
    },
    {
      "anonymous": false,
      "inputs": [
        {
          "indexed": true,
          "internalType": "uint256",
          "name": "proposalId",
          "type": "uint256"
        }
      ],
      "name": "ProposalRejected",
      "type": "event"
    },
    {
      "anonymous": false,
      "inputs": [
        {
          "indexed": false,
          "internalType": "address",
          "name": "account",
          "type": "address"
        }
      ],
      "name": "Unpaused",
      "type": "event"
    },
    {
      "inputs": [],
      "name": "activateProtocol",
      "outputs": [],
      "stateMutability": "nonpayable",
      "type": "function"
    },
    {
      "inputs": [
        {
          "internalType": "uint256",
          "name": "proposalId",
          "type": "uint256"
        }
      ],
      "name": "canExecute",
      "outputs": [
        {
          "internalType": "bool",
          "name": "",
          "type": "bool"
        }
      ],
      "stateMutability": "view",
      "type": "function"
    },
    {
      "inputs": [
        {
          "internalType": "uint256",
          "name": "proposalId",
          "type": "uint256"
        }
      ],
      "name": "confirmByDAO",
      "outputs": [],
      "stateMutability": "nonpayable",
      "type": "function"
    },
    {
      "inputs": [
        {
          "internalType": "uint256",
          "name": "proposalId",
          "type": "uint256"
        }
      ],
      "name": "confirmByPandora",
      "outputs": [],
      "stateMutability": "nonpayable",
      "type": "function"
    },
    {
      "inputs": [
        {
          "internalType": "address",
          "name": "recipient",
          "type": "address"
        },
        {
          "internalType": "uint256",
          "name": "amount",
          "type": "uint256"
        },
        {
          "internalType": "bytes32",
          "name": "purposeHash",
          "type": "bytes32"
        }
      ],
      "name": "createWithdrawalProposal",
      "outputs": [
        {
          "internalType": "uint256",
          "name": "",
          "type": "uint256"
        }
      ],
      "stateMutability": "nonpayable",
      "type": "function"
    },
    {
      "inputs": [],
      "name": "dailySpendingLimit",
      "outputs": [
        {
          "internalType": "uint256",
          "name": "",
          "type": "uint256"
        }
      ],
      "stateMutability": "view",
      "type": "function"
    },
    {
      "inputs": [
        {
          "internalType": "address",
          "name": "",
          "type": "address"
        }
      ],
      "name": "daoSigners",
      "outputs": [
        {
          "internalType": "bool",
          "name": "",
          "type": "bool"
        }
      ],
      "stateMutability": "view",
      "type": "function"
    },
    {
      "inputs": [
        {
          "internalType": "address",
          "name": "recipient",
          "type": "address"
        },
        {
          "internalType": "uint256",
          "name": "amount",
          "type": "uint256"
        },
        {
          "internalType": "string",
          "name": "purpose",
          "type": "string"
        }
      ],
      "name": "directOperation",
      "outputs": [],
      "stateMutability": "nonpayable",
      "type": "function"
    },
    {
      "inputs": [],
      "name": "directOperationLimit",
      "outputs": [
        {
          "internalType": "uint256",
          "name": "",
          "type": "uint256"
        }
      ],
      "stateMutability": "view",
      "type": "function"
    },
    {
      "inputs": [
        {
          "internalType": "uint256",
          "name": "proposalId",
          "type": "uint256"
        }
      ],
      "name": "emergencyExecutionByInactivity",
      "outputs": [],
      "stateMutability": "nonpayable",
      "type": "function"
    },
    {
      "inputs": [],
      "name": "emergencyInactivityDays",
      "outputs": [
        {
          "internalType": "uint256",
          "name": "",
          "type": "uint256"
        }
      ],
      "stateMutability": "view",
      "type": "function"
    },
    {
      "inputs": [],
      "name": "emergencyThreshold",
      "outputs": [
        {
          "internalType": "uint256",
          "name": "",
          "type": "uint256"
        }
      ],
      "stateMutability": "view",
      "type": "function"
    },
    {
      "inputs": [
        {
          "internalType": "uint256",
          "name": "proposalId",
          "type": "uint256"
        }
      ],
      "name": "executeProposal",
      "outputs": [],
      "stateMutability": "nonpayable",
      "type": "function"
    },
    {
      "inputs": [
        {
          "internalType": "uint256",
          "name": "proposalId",
          "type": "uint256"
        }
      ],
      "name": "executeProposalBySigner",
      "outputs": [],
      "stateMutability": "nonpayable",
      "type": "function"
    },
    {
      "inputs": [],
      "name": "getBalance",
      "outputs": [
        {
          "internalType": "uint256",
          "name": "",
          "type": "uint256"
        }
      ],
      "stateMutability": "view",
      "type": "function"
    },
    {
      "inputs": [
        {
          "internalType": "uint256",
          "name": "proposalId",
          "type": "uint256"
        }
      ],
      "name": "getProposalInfo",
      "outputs": [
        {
          "internalType": "address",
          "name": "recipient",
          "type": "address"
        },
        {
          "internalType": "uint256",
          "name": "amount",
          "type": "uint256"
        },
        {
          "internalType": "bytes32",
          "name": "purposeHash",
          "type": "bytes32"
        },
        {
          "internalType": "uint256",
          "name": "pandoraConfirmations",
          "type": "uint256"
        },
        {
          "internalType": "uint256",
          "name": "daoConfirmations",
          "type": "uint256"
        },
        {
          "internalType": "enum PBOXProtocolTreasury.ProposalStatus",
          "name": "status",
          "type": "uint8"
        },
        {
          "internalType": "bool",
          "name": "expired",
          "type": "bool"
        }
      ],
      "stateMutability": "view",
      "type": "function"
    },
    {
      "inputs": [],
      "name": "lastDailyReset",
      "outputs": [
        {
          "internalType": "uint256",
          "name": "",
          "type": "uint256"
        }
      ],
      "stateMutability": "view",
      "type": "function"
    },
    {
      "inputs": [],
      "name": "owner",
      "outputs": [
        {
          "internalType": "address",
          "name": "",
          "type": "address"
        }
      ],
      "stateMutability": "view",
      "type": "function"
    },
    {
      "inputs": [],
      "name": "pandoraOracle",
      "outputs": [
        {
          "internalType": "address",
          "name": "",
          "type": "address"
        }
      ],
      "stateMutability": "view",
      "type": "function"
    },
    {
      "inputs": [
        {
          "internalType": "address",
          "name": "",
          "type": "address"
        }
      ],
      "name": "pandoraSigners",
      "outputs": [
        {
          "internalType": "bool",
          "name": "",
          "type": "bool"
        }
      ],
      "stateMutability": "view",
      "type": "function"
    },
    {
      "inputs": [],
      "name": "pause",
      "outputs": [],
      "stateMutability": "nonpayable",
      "type": "function"
    },
    {
      "inputs": [],
      "name": "paused",
      "outputs": [
        {
          "internalType": "bool",
          "name": "",
          "type": "bool"
        }
      ],
      "stateMutability": "view",
      "type": "function"
    },
    {
      "inputs": [],
      "name": "proposalCount",
      "outputs": [
        {
          "internalType": "uint256",
          "name": "",
          "type": "uint256"
        }
      ],
      "stateMutability": "view",
      "type": "function"
    },
    {
      "inputs": [
        {
          "internalType": "uint256",
          "name": "",
          "type": "uint256"
        }
      ],
      "name": "proposals",
      "outputs": [
        {
          "internalType": "address",
          "name": "recipient",
          "type": "address"
        },
        {
          "internalType": "uint256",
          "name": "amount",
          "type": "uint256"
        },
        {
          "internalType": "bytes32",
          "name": "purposeHash",
          "type": "bytes32"
        },
        {
          "internalType": "uint256",
          "name": "pandoraConfirmations",
          "type": "uint256"
        },
        {
          "internalType": "uint256",
          "name": "daoConfirmations",
          "type": "uint256"
        },
        {
          "internalType": "uint256",
          "name": "timestamp",
          "type": "uint256"
        },
        {
          "internalType": "enum PBOXProtocolTreasury.ProposalStatus",
          "name": "status",
          "type": "uint8"
        },
        {
          "internalType": "bool",
          "name": "expired",
          "type": "bool"
        }
      ],
      "stateMutability": "view",
      "type": "function"
    },
    {
      "inputs": [],
      "name": "protocolGovernor",
      "outputs": [
        {
          "internalType": "address",
          "name": "",
          "type": "address"
        }
      ],
      "stateMutability": "view",
      "type": "function"
    },
    {
      "inputs": [
        {
          "internalType": "uint256",
          "name": "proposalId",
          "type": "uint256"
        }
      ],
      "name": "rejectProposal",
      "outputs": [],
      "stateMutability": "nonpayable",
      "type": "function"
    },
    {
      "inputs": [],
      "name": "renounceOwnership",
      "outputs": [],
      "stateMutability": "nonpayable",
      "type": "function"
    },
    {
      "inputs": [],
      "name": "requiredDaoConfirmations",
      "outputs": [
        {
          "internalType": "uint256",
          "name": "",
          "type": "uint256"
        }
      ],
      "stateMutability": "view",
      "type": "function"
    },
    {
      "inputs": [],
      "name": "requiredPandoraConfirmations",
      "outputs": [
        {
          "internalType": "uint256",
          "name": "",
          "type": "uint256"
        }
      ],
      "stateMutability": "view",
      "type": "function"
    },
    {
      "inputs": [
        {
          "internalType": "address",
          "name": "_newGovernor",
          "type": "address"
        }
      ],
      "name": "setProtocolGovernor",
      "outputs": [],
      "stateMutability": "nonpayable",
      "type": "function"
    },
    {
      "inputs": [],
      "name": "spentToday",
      "outputs": [
        {
          "internalType": "uint256",
          "name": "",
          "type": "uint256"
        }
      ],
      "stateMutability": "view",
      "type": "function"
    },
    {
      "inputs": [
        {
          "internalType": "address",
          "name": "newOwner",
          "type": "address"
        }
      ],
      "name": "transferOwnership",
      "outputs": [],
      "stateMutability": "nonpayable",
      "type": "function"
    },
    {
      "inputs": [],
      "name": "unpause",
      "outputs": [],
      "stateMutability": "nonpayable",
      "type": "function"
    },
    {
      "inputs": [
        {
          "internalType": "uint256",
          "name": "newThreshold",
          "type": "uint256"
        },
        {
          "internalType": "uint256",
          "name": "newInactivityDays",
          "type": "uint256"
        }
      ],
      "name": "updateEmergencyParams",
      "outputs": [],
      "stateMutability": "nonpayable",
      "type": "function"
    },
    {
      "inputs": [
        {
          "internalType": "uint256",
          "name": "newDailyLimit",
          "type": "uint256"
        },
        {
          "internalType": "uint256",
          "name": "newDirectLimit",
          "type": "uint256"
        }
      ],
      "name": "updateLimits",
      "outputs": [],
      "stateMutability": "nonpayable",
      "type": "function"
    },
    {
      "stateMutability": "payable",
      "type": "receive"
    }
  ],
  "bytecode": "0x608060405234620005ea576200207c803803806200001d81620005ef565b92833981019061016081830312620005ea5780516001600160401b0390818111620005ea57836200005091840162000640565b926020830151918211620005ea576200006b91830162000640565b62000079604083016200062b565b9162000088606082016200062b565b60808201519160a08101519460c082015160e08301519061010084015192620000bb61014061012087015196016200062b565b50620000c73362000703565b600180556002805460ff191681558a51106200059957600388511062000555576001600160a01b0381161562000510576001600160a01b03861615620004cb57600187101580620004bf575b156200046f5760028910158062000463575b156200041e5760005b8a5181101562000249576001600160a01b036200014c828d620006d8565b51161562000204576001600160a01b0362000168828d620006d8565b5116600052600360205260ff60406000205416620001bf57620001b9906001600160a01b0362000199828e620006d8565b511660005260036020526040600020600160ff19825416179055620006b2565b6200012e565b60405162461bcd60e51b815260206004820152601d60248201527f5732453a204475706c69636174652050616e646f7261207369676e65720000006044820152606490fd5b60405162461bcd60e51b815260206004820152601b60248201527f5732453a20496e76616c69642050616e646f7261207369676e657200000000006044820152606490fd5b508860005b895181101562000369576001600160a01b036200026c828c620006d8565b51161562000324576001600160a01b0362000288828c620006d8565b5116600052600460205260ff60406000205416620002df57620002d9906001600160a01b03620002b9828d620006d8565b511660005260046020526040600020600160ff19825416179055620006b2565b6200024e565b60405162461bcd60e51b815260206004820152601960248201527f5732453a204475706c69636174652044414f207369676e6572000000000000006044820152606490fd5b60405162461bcd60e51b815260206004820152601760248201527f5732453a20496e76616c69642044414f207369676e65720000000000000000006044820152606490fd5b508760055560065560018060a01b03199060018060a01b031681600754161760075560018060a01b038616906008541617600855600955600a55600b55600e55426010553360018060a01b036000541603620003da57620003ca9062000703565b60405161193190816200074b8239f35b606460405162461bcd60e51b815260206004820152602060248201527f4f776e61626c653a2063616c6c6572206973206e6f7420746865206f776e65726044820152fd5b60405162461bcd60e51b815260206004820152601e60248201527f5732453a20496e76616c69642044414f20636f6e6669726d6174696f6e7300006044820152606490fd5b50875189111562000125565b60405162461bcd60e51b815260206004820152602260248201527f5732453a20496e76616c69642050616e646f726120636f6e6669726d6174696f6044820152616e7360f01b6064820152608490fd5b50895187111562000113565b60405162461bcd60e51b815260206004820152601560248201527f5732453a20496e76616c696420676f7665726e6f7200000000000000000000006044820152606490fd5b60405162461bcd60e51b815260206004820152601360248201527f5732453a20496e76616c6964206f7261636c65000000000000000000000000006044820152606490fd5b606460405162461bcd60e51b815260206004820152602060248201527f5732453a204e656564206174206c6561737420332044414f207369676e6572736044820152fd5b60405162461bcd60e51b8152602060048201526024808201527f5732453a204e656564206174206c6561737420322050616e646f7261207369676044820152636e65727360e01b6064820152608490fd5b600080fd5b6040519190601f01601f191682016001600160401b038111838210176200061557604052565b634e487b7160e01b600052604160045260246000fd5b51906001600160a01b0382168203620005ea57565b81601f82011215620005ea578051916001600160401b03831162000615578260051b602092838062000674818501620005ef565b809781520192820101928311620005ea578301905b82821062000698575050505090565b838091620006a6846200062b565b81520191019062000689565b6000198114620006c25760010190565b634e487b7160e01b600052601160045260246000fd5b8051821015620006ed5760209160051b010190565b634e487b7160e01b600052603260045260246000fd5b600080546001600160a01b039283166001600160a01b03198216811783559216907f8be0079c531659141344cd1fd0a4f28419497f9722a3daafe3b4186f6b6457e09080a356fe6080604081815260049182361015610022575b505050361561002057600080fd5b005b600092833560e01c9182628ac91d146113ea57508163013cf08b14611362578163025f77cb1461133957816308330a14146111945781630d61b519146110b657816312065fe01461109b5781631b8f4a3914610fc65781633027a00514610f895781633e882b6c14610f6a5781633f4ba83a14610ed45781635c975abb14610eb057816370d67e4914610e25578163715018a614610dcb5781637d19ac7b14610cc75781637f819c6114610ca85781638456cb5914610c145781638a78e3bd14610bd65781638da5cb5b14610bae578163a2240e1914610adc578163b026a79b14610abd578163b4a7a18714610a9e578163b679e0bc14610943578163bb4ee2811461088f578163bc28d8781461079b578163bc903cb81461071d578163bcd037c8146106fe578163bf49ec3014610555578163c19c1dfb14610536578163cc63604a146104cb578163da35c664146104ac578163dc3c491e146102e2578163e3625787146102c3578163f059cf2b146102a4578163f2fde38b146101dd575063fd1e77f6146101b25780610012565b346101d957816003193601126101d95760085490516001600160a01b039091168152602090f35b5080fd5b9050346102a05760203660031901126102a0576101f8611429565b9061020161145a565b6001600160a01b0391821692831561024e57505082546001600160a01b0319811683178455167f8be0079c531659141344cd1fd0a4f28419497f9722a3daafe3b4186f6b6457e08380a380f35b906020608492519162461bcd60e51b8352820152602660248201527f4f776e61626c653a206e6577206f776e657220697320746865207a65726f206160448201526564647265737360d01b6064820152fd5b8280fd5b5050346101d957816003193601126101d957602090600f549051908152f35b83346102df57806003193601126102df576102dc61145a565b80f35b80fd5b919050346102a0576020806003193601126104a85782359160018060a01b0361031081600754163314611659565b838652600c8352818620600181019586546009548110610457576005830154600a5490620151809182810292818404149015171561044457906103529161182f565b42106104015760068301805460ff191660031790556103709061183c565b87808080868654168b54905af1610385611735565b50156103be5750907f64fc870a506f8609c6ec600ea66ff687bb7d87a7054b69a82096289efd1b9457939291541694549051908152a380f35b835162461bcd60e51b8152908101859052601e60248201527f5732453a20456d657267656e6379207472616e73666572206661696c656400006044820152606490fd5b845162461bcd60e51b8152808301879052601d60248201527f5732453a20456d657267656e637920706572696f64206e6f74206d65740000006044820152606490fd5b634e487b7160e01b8b526011845260248bfd5b845162461bcd60e51b8152808301879052602560248201527f5732453a20416d6f756e742062656c6f7720656d657267656e637920746872656044820152641cda1bdb1960da1b6064820152608490fd5b8380fd5b5050346101d957816003193601126101d957602090600d549051908152f35b8383346101d95760203660031901126101d95782358252600c602052600681832001549160ff831690600582101561052357602060018314848682610514575b50519015158152f35b60081c60ff161591508361050b565b634e487b7160e01b815260218552602490fd5b5050346101d957816003193601126101d9576020906005549051908152f35b919050346102a05760603660031901126102a057610571611429565b67ffffffffffffffff92602435916044358581116106fa57366023820112156106fa57808301359586116106fa5736602487830101116106fa576007546001600160a01b0393906105c59085163314611659565b6105cd6117d9565b600b5485116106a4576105e2478611156114b2565b6105eb8561183c565b8780808088875af16105fb611735565b5015610661575091849391866024606095827f0fb5fc6cac683d927f79899abfc1ebb501806f459b7a1928ea31e5ef6ec7d0e899519889978852806020890152870152018585013782870184018890521694601f01601f19168101030190a26001805580f35b606490602087519162461bcd60e51b8352820152601c60248201527f5732453a20446972656374206f7065726174696f6e206661696c6564000000006044820152fd5b608490602087519162461bcd60e51b8352820152602a60248201527f5732453a20416d6f756e74206578636565647320646972656374206f706572616044820152691d1a5bdb881b1a5b5a5d60b21b6064820152fd5b8680fd5b5050346101d957816003193601126101d9576020906009549051908152f35b919050346102a05760203660031901126102a0578060ff9160e09484358152600c6020522060018060a01b0381541693600182015492600283015490600660038501549385015494015494815197885260208801528601526060850152608084015261078e60a08401838316611406565b60081c16151560c0820152f35b9050346102a05760203660031901126102a05780359160018060a01b03600754163314801561087b575b1561083857828452600c60205283206006018054909160ff82169060058210156108255750906107f76002921561156f565b60ff19161790557fd92fba445edb3153b571e6df782d7a66fd0ce668519273670820ee3a86da0ef48280a280f35b634e487b7160e01b865260219052602485fd5b906020606492519162461bcd60e51b8352820152601d60248201527f5732453a204e6f7420617574686f72697a656420746f2072656a6563740000006044820152fd5b503384528160205260ff81852054166107c5565b919050346102a0576108a036611444565b9290916108ab61145a565b821561090757600784106108c4575050600955600a5580f35b906020606492519162461bcd60e51b8352820152601e60248201527f5732453a20496e76616c696420696e616374697669747920706572696f6400006044820152fd5b906020606492519162461bcd60e51b8352820152601660248201527515cc914e88125b9d985b1a59081d1a1c995cda1bdb1960521b6044820152fd5b919050346102a05760203660031901126102a057813590338452600360205261097160ff8286205416611523565b6109796117d9565b818452600c60205280842092600684019081549060ff82166005811015610a8b5760016109a691146116a5565b6109b660ff8360081c16156116f1565b6002600387015410610a3857509160209160037f3b7c90df35b419337cff0919fe91849006607bb66c4373623f06f9d48c1ebb989460ff19161790556001850194610a01865461183c565b60018060a01b0390610a2788808080868654168c54905af1610a21611735565b50611796565b541694549051908152a36001805580f35b608490602085519162461bcd60e51b8352820152602760248201527f5732453a20496e73756666696369656e742050616e646f726120636f6e6669726044820152666d6174696f6e7360c81b6064820152fd5b634e487b7160e01b885260218252602488fd5b5050346101d957816003193601126101d9576020906010549051908152f35b5050346101d957816003193601126101d957602090600b549051908152f35b919050346102a057610aed36611444565b929091610af861145a565b82151580610ba5575b15610b6c57828411610b18575050600e55600b5580f35b906020608492519162461bcd60e51b8352820152602860248201527f5732453a20446972656374206c696d6974206d757374206265203c3d206461696044820152671b1e481b1a5b5a5d60c21b6064820152fd5b906020606492519162461bcd60e51b835282015260136024820152725732453a20496e76616c6964206c696d69747360681b6044820152fd5b50831515610b01565b5050346101d957816003193601126101d957905490516001600160a01b039091168152602090f35b5050346101d95760203660031901126101d95760209160ff9082906001600160a01b03610c01611429565b1681526003855220541690519015158152f35b9050346102a057826003193601126102a057610c2e61145a565b6002549060ff8216610c72575060ff1916600117600255513381527f62e78cea01bee320cd4e420270b5ea74000d11b0c9f74754ebdbfc544b05a25890602090a180f35b606490602084519162461bcd60e51b8352820152601060248201526f14185d5cd8589b194e881c185d5cd95960821b6044820152fd5b5050346101d957816003193601126101d9576020906006549051908152f35b8383346101d957602092836003193601126102a05780359133845281855260ff818520541615610d9357828452600c85528084209060ff600683015416956005871015610d8057610d1c6102dc96971561156f565b6008830190338852818152610d3760ff848a205416156115bb565b338852528520600160ff1982541617905501610d5381546114fe565b905533817f497af2a04e2020d6b5425410f75c514b7a1467c3f321a902a8ee29e5f58b83838580a3611615565b634e487b7160e01b865260218452602486fd5b5162461bcd60e51b815290810184905260136024820152722b99229d102737ba102220a79039b4b3b732b960691b6044820152606490fd5b83346102df57806003193601126102df57610de461145a565b80546001600160a01b03198116825581906001600160a01b03167f8be0079c531659141344cd1fd0a4f28419497f9722a3daafe3b4186f6b6457e08280a380f35b9050346102a05760203660031901126102a057610e40611429565b610e4861145a565b6001600160a01b0316918215610e755750506bffffffffffffffffffffffff60a01b600854161760085580f35b906020606492519162461bcd60e51b835282015260156024820152742b99229d1024b73b30b634b21033b7bb32b93737b960591b6044820152fd5b5050346101d957816003193601126101d95760209060ff6002541690519015158152f35b9050346102a057826003193601126102a057610eee61145a565b6002549060ff821615610f30575060ff1916600255513381527f5db9ee0a495bf2e6ff9c91a7834c1ba4fdd244a5e8aa4e537bd38aeae4b073aa90602090a180f35b606490602084519162461bcd60e51b8352820152601460248201527314185d5cd8589b194e881b9bdd081c185d5cd95960621b6044820152fd5b5050346101d957816003193601126101d957602090600a549051908152f35b9050346102a05760203660031901126102a05760209260ff918391906001600160a01b03610fb5611429565b168252855220541690519015158152f35b8383346101d95760203660031901126101d9578235903383526003602052610ff360ff8285205416611523565b818352600c6020528083209060ff600683015416600581101561108857916003916110226102dc95941561156f565b600782013387528060205261103d60ff8389205416156115bb565b3387526020528520600160ff198254161790550161105b81546114fe565b905533817f5555650fe50b1775aba29f9b22419cebc9472e2cf125159d41a92ab8e756cc7e8580a3611615565b634e487b7160e01b855260218652602485fd5b5050346101d957816003193601126101d95751478152602090f35b919050346102a05760203660031901126102a05781359060018060a01b036110e381600754163314611659565b6110eb6117d9565b828552600c60205281852093600685019081549060ff821690600582101561118157509160036020949261114360017f3b7c90df35b419337cff0919fe91849006607bb66c4373623f06f9d48c1ebb989896146116a5565b61115360ff8260081c16156116f1565b60ff19161790556001860195611169875461183c565b610a2788808080868654168c54905af1610a21611735565b634e487b7160e01b895260219052602488fd5b905082346102df5760603660031901126102df576111b0611429565b60443591602435916111c061145a565b6001600160a01b03169384156112fd5782156112ba576111e2478411156114b2565b831561127757602060068787877f85b1e5bd1e58840265c40582ff09f8cbfab823e041a824467b654a99b5156d396060898961121f600d546114fe565b97889586600d55868352600c8b5288832090886bffffffffffffffffffffffff60a01b83541617825584600183015560028201554260058201550160ff1981541690558651918252868983015286820152a351908152f35b606490602087519162461bcd60e51b8352820152601960248201527f5732453a20496e76616c696420707572706f73652068617368000000000000006044820152fd5b606490602087519162461bcd60e51b8352820152601c60248201527f5732453a20416d6f756e74206d75737420626520706f736974697665000000006044820152fd5b606490602087519162461bcd60e51b8352820152601660248201527515cc914e88125b9d985b1a59081c9958da5c1a595b9d60521b6044820152fd5b5050346101d957816003193601126101d95760075490516001600160a01b039091168152602090f35b9050346102a05760203660031901126102a05780826101009460ff93358152600c6020522060018060a01b03815416936001820154926002830154600384015491840154926006600586015495015495815198895260208901528701526060860152608085015260a08401526113dd60c08401838316611406565b60081c16151560e0820152f35b8490346101d957816003193601126101d957602090600e548152f35b9060058210156114135752565b634e487b7160e01b600052602160045260246000fd5b600435906001600160a01b038216820361143f57565b600080fd5b604090600319011261143f576004359060243590565b6000546001600160a01b0316330361146e57565b606460405162461bcd60e51b815260206004820152602060248201527f4f776e61626c653a2063616c6c6572206973206e6f7420746865206f776e65726044820152fd5b156114b957565b60405162461bcd60e51b815260206004820152601960248201527f5732453a20496e73756666696369656e742062616c616e6365000000000000006044820152606490fd5b600019811461150d5760010190565b634e487b7160e01b600052601160045260246000fd5b1561152a57565b60405162461bcd60e51b815260206004820152601760248201527f5732453a204e6f742050616e646f7261207369676e65720000000000000000006044820152606490fd5b1561157657565b60405162461bcd60e51b815260206004820152601960248201527f5732453a2050726f706f73616c206e6f742070656e64696e67000000000000006044820152606490fd5b156115c257565b60405162461bcd60e51b815260206004820152602560248201527f5732453a20416c726561647920636f6e6669726d65642062792074686973207360448201526434b3b732b960d91b6064820152608490fd5b600052600c60205260406000206003810154600554111580611649575b6116395750565b600601805460ff19166001179055565b5060048101546006541115611632565b1561166057565b60405162461bcd60e51b815260206004820152601760248201527f5732453a204e6f742050616e646f7261206f7261636c650000000000000000006044820152606490fd5b156116ac57565b60405162461bcd60e51b815260206004820152601a60248201527f5732453a2050726f706f73616c206e6f7420617070726f7665640000000000006044820152606490fd5b156116f857565b60405162461bcd60e51b815260206004820152601560248201527415cc914e88141c9bdc1bdcd85b08195e1c1a5c9959605a1b6044820152606490fd5b3d156117915767ffffffffffffffff903d82811161177b5760405192601f8201601f19908116603f011684019081118482101761177b5760405282523d6000602084013e565b634e487b7160e01b600052604160045260246000fd5b606090565b1561179d57565b60405162461bcd60e51b815260206004820152601460248201527315cc914e88151c985b9cd9995c8819985a5b195960621b6044820152606490fd5b6002600154146117ea576002600155565b60405162461bcd60e51b815260206004820152601f60248201527f5265656e7472616e637947756172643a207265656e7472616e742063616c6c006044820152606490fd5b9190820180921161150d57565b60105462015180810180911161150d574210156118bd575b600f5490611862818361182f565b600e5410611878576118739161182f565b600f55565b60405162461bcd60e51b815260206004820152601960248201527f5732453a204461696c79206c696d6974206578636565646564000000000000006044820152606490fd5b6000600f55426010557fda4e39dd56d72c2ee3d132e0146bc39e905e78e3bc64c40190421c7b2bcef2ab6040805160008152426020820152a161185456fea2646970667358221220fd0f6b0ae7a65ffb54bf9c01619edbb8f557c8b481449e75fb4527bd6f2aecb064736f6c63430008140033",
  "linkReferences": {},
  "deployedLinkReferences": {}
}