{
  "_format": "hh-sol-artifact-1",
  "contractName": "PandoraRootTreasury",
  "sourceName": "contracts/treasury/PandoraRootTreasury.sol",
  "abi": [
    {
      "inputs": [
        {
          "internalType": "address[]",
          "name": "_signers",
          "type": "address[]"
        },
        {
          "internalType": "uint256",
          "name": "_requiredConfirmations",
          "type": "uint256"
        },
        {
          "internalType": "address",
          "name": "_operationalWallet",
          "type": "address"
        },
        {
          "internalType": "address",
          "name": "_reserveWallet",
          "type": "address"
        },
        {
          "internalType": "uint256",
          "name": "_highValueThreshold",
          "type": "uint256"
        },
        {
          "internalType": "uint256",
          "name": "_operationalLimit",
          "type": "uint256"
        }
      ],
      "stateMutability": "nonpayable",
      "type": "constructor"
    },
    {
      "anonymous": false,
      "inputs": [
        {
          "indexed": true,
          "internalType": "string",
          "name": "action",
          "type": "string"
        },
        {
          "indexed": true,
          "internalType": "string",
          "name": "reason",
          "type": "string"
        },
        {
          "indexed": false,
          "internalType": "bytes",
          "name": "data",
          "type": "bytes"
        }
      ],
      "name": "EmergencyAction",
      "type": "event"
    },
    {
      "anonymous": false,
      "inputs": [
        {
          "indexed": true,
          "internalType": "address",
          "name": "recipient",
          "type": "address"
        },
        {
          "indexed": false,
          "internalType": "uint256",
          "name": "amount",
          "type": "uint256"
        },
        {
          "indexed": false,
          "internalType": "string",
          "name": "reason",
          "type": "string"
        }
      ],
      "name": "OperationalWithdrawal",
      "type": "event"
    },
    {
      "anonymous": false,
      "inputs": [
        {
          "indexed": true,
          "internalType": "uint256",
          "name": "proposalId",
          "type": "uint256"
        }
      ],
      "name": "ProposalCancelled",
      "type": "event"
    },
    {
      "anonymous": false,
      "inputs": [
        {
          "indexed": true,
          "internalType": "uint256",
          "name": "proposalId",
          "type": "uint256"
        },
        {
          "indexed": true,
          "internalType": "address",
          "name": "signer",
          "type": "address"
        }
      ],
      "name": "ProposalConfirmed",
      "type": "event"
    },
    {
      "anonymous": false,
      "inputs": [
        {
          "indexed": true,
          "internalType": "uint256",
          "name": "proposalId",
          "type": "uint256"
        },
        {
          "indexed": true,
          "internalType": "address",
          "name": "recipient",
          "type": "address"
        },
        {
          "indexed": false,
          "internalType": "uint256",
          "name": "amount",
          "type": "uint256"
        }
      ],
      "name": "ProposalCreated",
      "type": "event"
    },
    {
      "anonymous": false,
      "inputs": [
        {
          "indexed": true,
          "internalType": "uint256",
          "name": "proposalId",
          "type": "uint256"
        },
        {
          "indexed": true,
          "internalType": "address",
          "name": "recipient",
          "type": "address"
        },
        {
          "indexed": false,
          "internalType": "uint256",
          "name": "amount",
          "type": "uint256"
        }
      ],
      "name": "ProposalExecuted",
      "type": "event"
    },
    {
      "inputs": [],
      "name": "CONFIG_TIMELOCK",
      "outputs": [
        {
          "internalType": "uint256",
          "name": "",
          "type": "uint256"
        }
      ],
      "stateMutability": "view",
      "type": "function"
    },
    {
      "inputs": [],
      "name": "HIGH_VALUE_TIMELOCK",
      "outputs": [
        {
          "internalType": "uint256",
          "name": "",
          "type": "uint256"
        }
      ],
      "stateMutability": "view",
      "type": "function"
    },
    {
      "inputs": [
        {
          "internalType": "uint256",
          "name": "proposalId",
          "type": "uint256"
        }
      ],
      "name": "canExecute",
      "outputs": [
        {
          "internalType": "bool",
          "name": "",
          "type": "bool"
        }
      ],
      "stateMutability": "view",
      "type": "function"
    },
    {
      "inputs": [
        {
          "internalType": "uint256",
          "name": "proposalId",
          "type": "uint256"
        }
      ],
      "name": "cancelProposal",
      "outputs": [],
      "stateMutability": "nonpayable",
      "type": "function"
    },
    {
      "inputs": [],
      "name": "configProposalCount",
      "outputs": [
        {
          "internalType": "uint256",
          "name": "",
          "type": "uint256"
        }
      ],
      "stateMutability": "view",
      "type": "function"
    },
    {
      "inputs": [
        {
          "internalType": "uint256",
          "name": "",
          "type": "uint256"
        }
      ],
      "name": "configProposals",
      "outputs": [
        {
          "internalType": "bytes32",
          "name": "functionHash",
          "type": "bytes32"
        },
        {
          "internalType": "uint256",
          "name": "timestamp",
          "type": "uint256"
        },
        {
          "internalType": "uint256",
          "name": "confirmations",
          "type": "uint256"
        },
        {
          "internalType": "bool",
          "name": "executed",
          "type": "bool"
        },
        {
          "internalType": "bool",
          "name": "cancelled",
          "type": "bool"
        }
      ],
      "stateMutability": "view",
      "type": "function"
    },
    {
      "inputs": [
        {
          "internalType": "uint256",
          "name": "proposalId",
          "type": "uint256"
        }
      ],
      "name": "confirmProposal",
      "outputs": [],
      "stateMutability": "nonpayable",
      "type": "function"
    },
    {
      "inputs": [
        {
          "internalType": "address",
          "name": "recipient",
          "type": "address"
        },
        {
          "internalType": "uint256",
          "name": "amount",
          "type": "uint256"
        }
      ],
      "name": "createWithdrawalProposal",
      "outputs": [
        {
          "internalType": "uint256",
          "name": "",
          "type": "uint256"
        }
      ],
      "stateMutability": "nonpayable",
      "type": "function"
    },
    {
      "inputs": [],
      "name": "emergencyPause",
      "outputs": [],
      "stateMutability": "nonpayable",
      "type": "function"
    },
    {
      "inputs": [
        {
          "internalType": "uint256",
          "name": "proposalId",
          "type": "uint256"
        }
      ],
      "name": "executeProposal",
      "outputs": [],
      "stateMutability": "nonpayable",
      "type": "function"
    },
    {
      "inputs": [],
      "name": "getBalance",
      "outputs": [
        {
          "internalType": "uint256",
          "name": "",
          "type": "uint256"
        }
      ],
      "stateMutability": "view",
      "type": "function"
    },
    {
      "inputs": [],
      "name": "highValueThreshold",
      "outputs": [
        {
          "internalType": "uint256",
          "name": "",
          "type": "uint256"
        }
      ],
      "stateMutability": "view",
      "type": "function"
    },
    {
      "inputs": [],
      "name": "operationalLimit",
      "outputs": [
        {
          "internalType": "uint256",
          "name": "",
          "type": "uint256"
        }
      ],
      "stateMutability": "view",
      "type": "function"
    },
    {
      "inputs": [],
      "name": "operationalWallet",
      "outputs": [
        {
          "internalType": "address",
          "name": "",
          "type": "address"
        }
      ],
      "stateMutability": "view",
      "type": "function"
    },
    {
      "inputs": [
        {
          "internalType": "uint256",
          "name": "amount",
          "type": "uint256"
        },
        {
          "internalType": "string",
          "name": "reason",
          "type": "string"
        }
      ],
      "name": "operationalWithdrawal",
      "outputs": [],
      "stateMutability": "nonpayable",
      "type": "function"
    },
    {
      "inputs": [],
      "name": "proposalCount",
      "outputs": [
        {
          "internalType": "uint256",
          "name": "",
          "type": "uint256"
        }
      ],
      "stateMutability": "view",
      "type": "function"
    },
    {
      "inputs": [
        {
          "internalType": "uint256",
          "name": "",
          "type": "uint256"
        }
      ],
      "name": "proposals",
      "outputs": [
        {
          "internalType": "address",
          "name": "recipient",
          "type": "address"
        },
        {
          "internalType": "uint256",
          "name": "amount",
          "type": "uint256"
        },
        {
          "internalType": "uint256",
          "name": "confirmations",
          "type": "uint256"
        },
        {
          "internalType": "uint256",
          "name": "timestamp",
          "type": "uint256"
        },
        {
          "internalType": "bool",
          "name": "executed",
          "type": "bool"
        },
        {
          "internalType": "bool",
          "name": "cancelled",
          "type": "bool"
        }
      ],
      "stateMutability": "view",
      "type": "function"
    },
    {
      "inputs": [],
      "name": "requiredConfirmations",
      "outputs": [
        {
          "internalType": "uint256",
          "name": "",
          "type": "uint256"
        }
      ],
      "stateMutability": "view",
      "type": "function"
    },
    {
      "inputs": [],
      "name": "reserveWallet",
      "outputs": [
        {
          "internalType": "address",
          "name": "",
          "type": "address"
        }
      ],
      "stateMutability": "view",
      "type": "function"
    },
    {
      "inputs": [
        {
          "internalType": "address",
          "name": "",
          "type": "address"
        }
      ],
      "name": "signers",
      "outputs": [
        {
          "internalType": "bool",
          "name": "",
          "type": "bool"
        }
      ],
      "stateMutability": "view",
      "type": "function"
    },
    {
      "inputs": [
        {
          "internalType": "address",
          "name": "destination",
          "type": "address"
        },
        {
          "internalType": "uint256",
          "name": "amount",
          "type": "uint256"
        }
      ],
      "name": "transferToOperationalOrReserve",
      "outputs": [],
      "stateMutability": "nonpayable",
      "type": "function"
    },
    {
      "inputs": [
        {
          "internalType": "uint256",
          "name": "newThreshold",
          "type": "uint256"
        }
      ],
      "name": "updateHighValueThreshold",
      "outputs": [],
      "stateMutability": "nonpayable",
      "type": "function"
    },
    {
      "inputs": [
        {
          "internalType": "uint256",
          "name": "newLimit",
          "type": "uint256"
        }
      ],
      "name": "updateOperationalLimit",
      "outputs": [],
      "stateMutability": "nonpayable",
      "type": "function"
    },
    {
      "inputs": [
        {
          "internalType": "address",
          "name": "newWallet",
          "type": "address"
        }
      ],
      "name": "updateOperationalWallet",
      "outputs": [],
      "stateMutability": "nonpayable",
      "type": "function"
    },
    {
      "stateMutability": "payable",
      "type": "receive"
    }
  ],
  "bytecode": "0x604060808152346200042457620015a3803803806200001e816200043f565b92833981019060c081830312620004245780516001600160401b0390818111620004245782019280601f850112156200042457835191821162000429578160051b6020948580620000718185016200043f565b809681520192820101928311620004245785809101915b83831062000409575091505082015192620000a585840162000465565b93620000b46060850162000465565b9160a06080860151950151956001916000918383556003875110620003c557600285101580620003b9575b1562000375576001600160a01b0390811695861562000331578116968715620002ed578815620002a9578915620002655783855b62000150575b50505050505060025560018060a01b0319908160085416176008556009541617600955600355600a55516110fd9081620004a68239f35b81518110156200025f57826200016782846200047a565b5116156200021b57826200017c82846200047a565b5116855285845260ff8c86205416620001d757826200019c82846200047a565b511685528584528b8520805460ff1916871790556000198114620001c35785018562000113565b634e487b7160e01b85526011600452602485fd5b8b5162461bcd60e51b815260048101859052601560248201527f5732453a204475706c6963617465207369676e657200000000000000000000006044820152606490fd5b8b5162461bcd60e51b815260048101859052601360248201527f5732453a20496e76616c6964207369676e6572000000000000000000000000006044820152606490fd5b62000119565b8a5162461bcd60e51b815260048101849052601e60248201527f5732453a20496e76616c6964206f7065726174696f6e616c206c696d697400006044820152606490fd5b8a5162461bcd60e51b815260048101849052601660248201527f5732453a20496e76616c6964207468726573686f6c64000000000000000000006044820152606490fd5b8a5162461bcd60e51b815260048101849052601b60248201527f5732453a20496e76616c696420726573657276652077616c6c657400000000006044820152606490fd5b8a5162461bcd60e51b815260048101849052601f60248201527f5732453a20496e76616c6964206f7065726174696f6e616c2077616c6c6574006044820152606490fd5b895162461bcd60e51b815260048101839052601a60248201527f5732453a20496e76616c696420636f6e6669726d6174696f6e730000000000006044820152606490fd5b508651851115620000df565b895162461bcd60e51b815260048101839052601c60248201527f5732453a204e656564206174206c656173742033207369676e657273000000006044820152606490fd5b8190620004168462000465565b815201910190859062000088565b600080fd5b634e487b7160e01b600052604160045260246000fd5b6040519190601f01601f191682016001600160401b038111838210176200042957604052565b51906001600160a01b03821682036200042457565b80518210156200048f5760209160051b010190565b634e487b7160e01b600052603260045260246000fdfe6080604081815260049081361015610022575b505050361561002057600080fd5b005b600092833560e01c908163013cf08b14610e0357508063026a3ff914610de45780630d61b51914610be057806312065fe014610bc5578063361163f814610ba6578063400f8aed14610b0e57806351858e2714610a4157806351a3b39f146108a757806362ac75051461088957806366eb986c1461086b578063736c0d5b1461082d5780637c2497ad1461080457806382e717f7146107e557806390eb9f161461075f57806395d028fe14610642578063a5c132c014610624578063ad92b74214610585578063cc63604a14610559578063d72b11bd14610530578063da35c6641461050d578063e0a8f6f514610447578063eaa6f393146103eb578063f4a4f4d21461027d5763fc5e0cea03610012573461027957806003193601126102795761014b610e6f565b91602435933381526020936001855261016960ff8584205416610e8a565b6001600160a01b031691821561023d5785156101fa57507f3417b456fad6209c73445d5efd446d686e75e4560f0f50c13b5a5cde976447b4848495966101b147821115610ed6565b6101bc600754610f22565b968794856007558581526006845220856bffffffffffffffffffffffff60a01b8254161781558160018201556003429101558551908152a351908152f35b835162461bcd60e51b8152908101859052601c60248201527f5732453a20416d6f756e74206d75737420626520706f736974697665000000006044820152606490fd5b835162461bcd60e51b8152908101859052601660248201527515cc914e88125b9d985b1a59081c9958da5c1a595b9d60521b6044820152606490fd5b8280fd5b503461027957602090816003193601126103e757823592338552600183526102aa60ff8387205416610e8a565b83855260068352818520928184015460ff81166103a65760081c60ff1661036657600584019133875282825260ff848820541661032c5750338652528320805460ff19166001179055600201805461030190610f22565b905533907ffde7b8a92c767d46da889d2526f0fa0dd074cc73fb01212122ad9368d18390a48380a380f35b60649184519162461bcd60e51b8352820152601660248201527515cc914e88105b1c9958591e4818dbdb999a5c9b595960521b6044820152fd5b606492519162461bcd60e51b8352820152601760248201527f5732453a2050726f706f73616c2063616e63656c6c65640000000000000000006044820152fd5b50606492519162461bcd60e51b8352820152601e60248201527f5732453a2050726f706f73616c20616c726561647920657865637574656400006044820152fd5b8380fd5b509034610279576020366003190112610279578160a09360ff92358152600560205220918254926001810154916003600283015492015492815195865260208601528401528181161515606084015260081c1615156080820152f35b50903461027957602036600319011261027957803591338452600160205261047460ff8286205416610e8a565b828452600660205281818520019182549161049260ff841615610f47565b60ff8360081c166104d157505061ff0019166101001790557f416e669c63d9a3a5e36ee7cc7e2104b8db28ccd286aa18966e98fa230c73b08c8280a280f35b906020606492519162461bcd60e51b8352820152601660248201527515cc914e88105b1c9958591e4818d85b98d95b1b195960521b6044820152fd5b83823461052c578160031936011261052c576020906007549051908152f35b5080fd5b83823461052c578160031936011261052c5760095490516001600160a01b039091168152602090f35b508234610582576020366003190112610582575061057960209235611042565b90519015158152f35b80fd5b5090346102795760203660031901126102795780359133845260016020526105b260ff8286205416610e8a565b600a548311156105c457505060035580f35b906020608492519162461bcd60e51b8352820152603460248201527f5732453a205468726573686f6c64206d75737420626520686967686572207468604482015273185b881bdc195c985d1a5bdb985b081b1a5b5a5d60621b6064820152fd5b50903461027957826003193601126102795760209250549051908152f35b503461027957806003193601126102795761065b610e6f565b60243590338552600160205261067660ff8487205416610e8a565b61067e610fec565b6008546001600160a01b03828116918116821491908215610751575b50501561070e578480809381936106b347831115610ed6565b5af16106bd610f8b565b50156106cb57826001815580f35b906020606492519162461bcd60e51b8352820152601d60248201527f5732453a20496e7465726e616c207472616e73666572206661696c65640000006044820152fd5b825162461bcd60e51b8152602081860152601860248201527f5732453a20496e76616c69642064657374696e6174696f6e00000000000000006044820152606490fd5b60095416149050388061069a565b50903461027957602036600319011261027957803591338452600160205261078c60ff8286205416610e8a565b821515806107da575b156107a2575050600a5580f35b906020606492519162461bcd60e51b8352820152601260248201527115cc914e88125b9d985b1a59081b1a5b5a5d60721b6044820152fd5b506003548310610795565b83823461052c578160031936011261052c576020906002549051908152f35b83823461052c578160031936011261052c5760085490516001600160a01b039091168152602090f35b83823461052c57602036600319011261052c5760209160ff9082906001600160a01b03610858610e6f565b1681526001855220541690519015158152f35b83823461052c578160031936011261052c57602090516202a3008152f35b83823461052c578160031936011261052c5760209051620151808152f35b503461027957806003193601126102795781356024359267ffffffffffffffff90818511610a3d5736602386011215610a3d5784810135918211610a3d573660248387010111610a3d57338652600160205261090860ff8588205416610e8a565b610910610fec565b600a5483116109ec5761092547841115610ed6565b60018060a01b0390868080808786600854165af1610941610f8b565b50156109a95750918160609260247f0fb5fc6cac683d927f79899abfc1ebb501806f459b7a1928ea31e5ef6ec7d0e896956008541697828751978896875280602088015286015201848401378181018301879052601f01601f19168101030190a26001815580f35b606490602086519162461bcd60e51b8352820152602060248201527f5732453a204f7065726174696f6e616c207472616e73666572206661696c65646044820152fd5b608490602085519162461bcd60e51b8352820152602560248201527f5732453a20416d6f756e742065786365656473206f7065726174696f6e616c206044820152641b1a5b5a5d60da1b6064820152fd5b8580fd5b83823461052c578160031936011261052c577ffcb9fcbfa83b897fb2d5cf4b58962164105c1e71489a37ef3ae0db3fdce576f67f8916209ed01e256744acae84228532ddef529f5b388ec0986c5abe6f041a44267f6d81234f7e54fdf56bf3edd7c591ac863a075e7789b2cbdcb54ebdfa78166c7e923385526001602052610ace60ff8287205416610e8a565b64504155534560d81b8151527f456d657267656e63792070617573652061637469766174656400000000000000815152805160208152856020820152a380f35b50903461027957602036600319011261027957610b29610e6f565b3384526001602052610b4060ff8486205416610e8a565b6001600160a01b0316918215610b6d5750506bffffffffffffffffffffffff60a01b600854161760085580f35b906020606492519162461bcd60e51b8352820152601360248201527215cc914e88125b9d985b1a59081dd85b1b195d606a1b6044820152fd5b83823461052c578160031936011261052c57602090600a549051908152f35b83823461052c578160031936011261052c5751478152602090f35b5034610279576020806003193601126103e75782359133855260018252610c0c60ff8287205416610e8a565b610c14610fec565b828552600682528085209380850194855491610c3360ff841615610f47565b60ff8360081c16610db057600282015460025411610d6d576001820196875493600354851015610cfe575b60ff1916600117905581546001600160a01b039389918291829182919088165af1610c87610f8b565b5015610cc45750907f3b7c90df35b419337cff0919fe91849006607bb66c4373623f06f9d48c1ebb98939291541694549051908152a36001815580f35b835162461bcd60e51b8152908101859052601460248201527315cc914e88151c985b9cd9995c8819985a5b195960621b6044820152606490fd5b60038401546202a3008101809111610d5a57421015610c5e57855162461bcd60e51b8152808401889052601c60248201527f5732453a2054696d656c6f636b20706572696f64206e6f74206d6574000000006044820152606490fd5b634e487b7160e01b8b526011845260248bfd5b835162461bcd60e51b8152908101859052601f60248201527f5732453a20496e73756666696369656e7420636f6e6669726d6174696f6e73006044820152606490fd5b835162461bcd60e51b8152908101859052600e60248201526d15cc914e8810d85b98d95b1b195960921b6044820152606490fd5b83823461052c578160031936011261052c576020906003549051908152f35b929050346103e75760203660031901126103e75790818160c09560ff943581526006602052209060018060a01b038254169260018301546002840154926003850154940154948752602087015285015260608401528181161515608084015260081c16151560a0820152f35b600435906001600160a01b0382168203610e8557565b600080fd5b15610e9157565b60405162461bcd60e51b815260206004820152601a60248201527f5732453a204e6f7420617574686f72697a6564207369676e65720000000000006044820152606490fd5b15610edd57565b60405162461bcd60e51b815260206004820152601960248201527f5732453a20496e73756666696369656e742062616c616e6365000000000000006044820152606490fd5b6000198114610f315760010190565b634e487b7160e01b600052601160045260246000fd5b15610f4e57565b60405162461bcd60e51b815260206004820152601560248201527415cc914e88105b1c9958591e48195e1958dd5d1959605a1b6044820152606490fd5b3d15610fe75767ffffffffffffffff903d828111610fd15760405192601f8201601f19908116603f0116840190811184821017610fd15760405282523d6000602084013e565b634e487b7160e01b600052604160045260246000fd5b606090565b600260005414610ffd576002600055565b60405162461bcd60e51b815260206004820152601f60248201527f5265656e7472616e637947756172643a207265656e7472616e742063616c6c006044820152606490fd5b6000908152600660205260408120600481015460ff81169081156110b9575b506110b5576002810154600254116110b55760018101546003541115611088575050600190565b60030154906202a30082018092116110a1575042101590565b634e487b7160e01b81526011600452602490fd5b5090565b60ff915060081c163861106156fea2646970667358221220655005a48bdddec46da620713fc46ffd6366b4de9f70732a856e78c070f174c464736f6c63430008140033",
  "linkReferences": {},
  "deployedLinkReferences": {}
}