{
  "abi": [
    {
      "inputs": [
        {
          "internalType": "string",
          "name": "name",
          "type": "string"
        },
        {
          "internalType": "string",
          "name": "symbol",
          "type": "string"
        },
        {
          "internalType": "address",
          "name": "initialOwner",
          "type": "address"
        },
        {
          "internalType": "address",
          "name": "trustedForwarder",
          "type": "address"
        }
      ],
      "stateMutability": "nonpayable",
      "type": "constructor"
    },
    {
      "inputs": [],
      "name": "AccessControlBadConfirmation",
      "type": "error"
    },
    {
      "inputs": [
        {
          "internalType": "address",
          "name": "account",
          "type": "address"
        },
        {
          "internalType": "bytes32",
          "name": "neededRole",
          "type": "bytes32"
        }
      ],
      "name": "AccessControlUnauthorizedAccount",
      "type": "error"
    },
    {
      "inputs": [
        {
          "internalType": "address",
          "name": "sender",
          "type": "address"
        },
        {
          "internalType": "uint256",
          "name": "tokenId",
          "type": "uint256"
        },
        {
          "internalType": "address",
          "name": "owner",
          "type": "address"
        }
      ],
      "name": "ERC721IncorrectOwner",
      "type": "error"
    },
    {
      "inputs": [
        {
          "internalType": "address",
          "name": "operator",
          "type": "address"
        },
        {
          "internalType": "uint256",
          "name": "tokenId",
          "type": "uint256"
        }
      ],
      "name": "ERC721InsufficientApproval",
      "type": "error"
    },
    {
      "inputs": [
        {
          "internalType": "address",
          "name": "approver",
          "type": "address"
        }
      ],
      "name": "ERC721InvalidApprover",
      "type": "error"
    },
    {
      "inputs": [
        {
          "internalType": "address",
          "name": "operator",
          "type": "address"
        }
      ],
      "name": "ERC721InvalidOperator",
      "type": "error"
    },
    {
      "inputs": [
        {
          "internalType": "address",
          "name": "owner",
          "type": "address"
        }
      ],
      "name": "ERC721InvalidOwner",
      "type": "error"
    },
    {
      "inputs": [
        {
          "internalType": "address",
          "name": "receiver",
          "type": "address"
        }
      ],
      "name": "ERC721InvalidReceiver",
      "type": "error"
    },
    {
      "inputs": [
        {
          "internalType": "address",
          "name": "sender",
          "type": "address"
        }
      ],
      "name": "ERC721InvalidSender",
      "type": "error"
    },
    {
      "inputs": [
        {
          "internalType": "uint256",
          "name": "tokenId",
          "type": "uint256"
        }
      ],
      "name": "ERC721NonexistentToken",
      "type": "error"
    },
    {
      "inputs": [
        {
          "internalType": "address",
          "name": "owner",
          "type": "address"
        }
      ],
      "name": "OwnableInvalidOwner",
      "type": "error"
    },
    {
      "inputs": [
        {
          "internalType": "address",
          "name": "account",
          "type": "address"
        }
      ],
      "name": "OwnableUnauthorizedAccount",
      "type": "error"
    },
    {
      "inputs": [],
      "name": "ReentrancyGuardReentrantCall",
      "type": "error"
    },
    {
      "anonymous": false,
      "inputs": [
        {
          "indexed": true,
          "internalType": "address",
          "name": "owner",
          "type": "address"
        },
        {
          "indexed": true,
          "internalType": "address",
          "name": "approved",
          "type": "address"
        },
        {
          "indexed": true,
          "internalType": "uint256",
          "name": "tokenId",
          "type": "uint256"
        }
      ],
      "name": "Approval",
      "type": "event"
    },
    {
      "anonymous": false,
      "inputs": [
        {
          "indexed": true,
          "internalType": "address",
          "name": "owner",
          "type": "address"
        },
        {
          "indexed": true,
          "internalType": "address",
          "name": "operator",
          "type": "address"
        },
        {
          "indexed": false,
          "internalType": "bool",
          "name": "approved",
          "type": "bool"
        }
      ],
      "name": "ApprovalForAll",
      "type": "event"
    },
    {
      "anonymous": false,
      "inputs": [
        {
          "indexed": true,
          "internalType": "address",
          "name": "holder",
          "type": "address"
        },
        {
          "indexed": true,
          "internalType": "address",
          "name": "from",
          "type": "address"
        },
        {
          "indexed": true,
          "internalType": "address",
          "name": "token",
          "type": "address"
        },
        {
          "indexed": false,
          "internalType": "uint256",
          "name": "amount",
          "type": "uint256"
        }
      ],
      "name": "DepositERC20ToHolder",
      "type": "event"
    },
    {
      "anonymous": false,
      "inputs": [
        {
          "indexed": true,
          "internalType": "address",
          "name": "holder",
          "type": "address"
        },
        {
          "indexed": true,
          "internalType": "address",
          "name": "from",
          "type": "address"
        },
        {
          "indexed": false,
          "internalType": "uint256",
          "name": "amount",
          "type": "uint256"
        }
      ],
      "name": "DepositToHolder",
      "type": "event"
    },
    {
      "anonymous": false,
      "inputs": [
        {
          "indexed": true,
          "internalType": "address",
          "name": "previousOwner",
          "type": "address"
        },
        {
          "indexed": true,
          "internalType": "address",
          "name": "newOwner",
          "type": "address"
        }
      ],
      "name": "OwnershipTransferred",
      "type": "event"
    },
    {
      "anonymous": false,
      "inputs": [
        {
          "indexed": true,
          "internalType": "address",
          "name": "holder",
          "type": "address"
        },
        {
          "indexed": true,
          "internalType": "address",
          "name": "payoutAddress",
          "type": "address"
        }
      ],
      "name": "PayoutAddressSet",
      "type": "event"
    },
    {
      "anonymous": false,
      "inputs": [
        {
          "indexed": true,
          "internalType": "bytes32",
          "name": "role",
          "type": "bytes32"
        },
        {
          "indexed": true,
          "internalType": "bytes32",
          "name": "previousAdminRole",
          "type": "bytes32"
        },
        {
          "indexed": true,
          "internalType": "bytes32",
          "name": "newAdminRole",
          "type": "bytes32"
        }
      ],
      "name": "RoleAdminChanged",
      "type": "event"
    },
    {
      "anonymous": false,
      "inputs": [
        {
          "indexed": true,
          "internalType": "bytes32",
          "name": "role",
          "type": "bytes32"
        },
        {
          "indexed": true,
          "internalType": "address",
          "name": "account",
          "type": "address"
        },
        {
          "indexed": true,
          "internalType": "address",
          "name": "sender",
          "type": "address"
        }
      ],
      "name": "RoleGranted",
      "type": "event"
    },
    {
      "anonymous": false,
      "inputs": [
        {
          "indexed": true,
          "internalType": "bytes32",
          "name": "role",
          "type": "bytes32"
        },
        {
          "indexed": true,
          "internalType": "address",
          "name": "account",
          "type": "address"
        },
        {
          "indexed": true,
          "internalType": "address",
          "name": "sender",
          "type": "address"
        }
      ],
      "name": "RoleRevoked",
      "type": "event"
    },
    {
      "anonymous": false,
      "inputs": [
        {
          "indexed": true,
          "internalType": "address",
          "name": "from",
          "type": "address"
        },
        {
          "indexed": true,
          "internalType": "address",
          "name": "to",
          "type": "address"
        },
        {
          "indexed": true,
          "internalType": "uint256",
          "name": "tokenId",
          "type": "uint256"
        }
      ],
      "name": "Transfer",
      "type": "event"
    },
    {
      "anonymous": false,
      "inputs": [
        {
          "indexed": true,
          "internalType": "address",
          "name": "holder",
          "type": "address"
        },
        {
          "indexed": true,
          "internalType": "address",
          "name": "to",
          "type": "address"
        },
        {
          "indexed": true,
          "internalType": "address",
          "name": "token",
          "type": "address"
        },
        {
          "indexed": false,
          "internalType": "uint256",
          "name": "amount",
          "type": "uint256"
        }
      ],
      "name": "WithdrawERC20",
      "type": "event"
    },
    {
      "anonymous": false,
      "inputs": [
        {
          "indexed": true,
          "internalType": "address",
          "name": "holder",
          "type": "address"
        },
        {
          "indexed": true,
          "internalType": "address",
          "name": "to",
          "type": "address"
        },
        {
          "indexed": false,
          "internalType": "uint256",
          "name": "amount",
          "type": "uint256"
        }
      ],
      "name": "WithdrawETH",
      "type": "event"
    },
    {
      "inputs": [],
      "name": "ADMIN_ROLE",
      "outputs": [
        {
          "internalType": "bytes32",
          "name": "",
          "type": "bytes32"
        }
      ],
      "stateMutability": "view",
      "type": "function"
    },
    {
      "inputs": [],
      "name": "DEFAULT_ADMIN_ROLE",
      "outputs": [
        {
          "internalType": "bytes32",
          "name": "",
          "type": "bytes32"
        }
      ],
      "stateMutability": "view",
      "type": "function"
    },
    {
      "inputs": [],
      "name": "MINTER_ROLE",
      "outputs": [
        {
          "internalType": "bytes32",
          "name": "",
          "type": "bytes32"
        }
      ],
      "stateMutability": "view",
      "type": "function"
    },
    {
      "inputs": [
        {
          "internalType": "address",
          "name": "to",
          "type": "address"
        }
      ],
      "name": "adminMint",
      "outputs": [],
      "stateMutability": "nonpayable",
      "type": "function"
    },
    {
      "inputs": [
        {
          "internalType": "address",
          "name": "to",
          "type": "address"
        },
        {
          "internalType": "uint256",
          "name": "tokenId",
          "type": "uint256"
        }
      ],
      "name": "approve",
      "outputs": [],
      "stateMutability": "nonpayable",
      "type": "function"
    },
    {
      "inputs": [
        {
          "internalType": "address",
          "name": "owner",
          "type": "address"
        }
      ],
      "name": "balanceOf",
      "outputs": [
        {
          "internalType": "uint256",
          "name": "",
          "type": "uint256"
        }
      ],
      "stateMutability": "view",
      "type": "function"
    },
    {
      "inputs": [
        {
          "internalType": "address",
          "name": "owner",
          "type": "address"
        },
        {
          "internalType": "uint256",
          "name": "tokenId",
          "type": "uint256"
        }
      ],
      "name": "burn",
      "outputs": [],
      "stateMutability": "nonpayable",
      "type": "function"
    },
    {
      "inputs": [
        {
          "internalType": "address",
          "name": "holder",
          "type": "address"
        },
        {
          "internalType": "address",
          "name": "token",
          "type": "address"
        },
        {
          "internalType": "uint256",
          "name": "amount",
          "type": "uint256"
        }
      ],
      "name": "depositERC20ToHolder",
      "outputs": [],
      "stateMutability": "nonpayable",
      "type": "function"
    },
    {
      "inputs": [
        {
          "internalType": "address",
          "name": "holder",
          "type": "address"
        }
      ],
      "name": "depositToHolder",
      "outputs": [],
      "stateMutability": "payable",
      "type": "function"
    },
    {
      "inputs": [
        {
          "internalType": "address",
          "name": "",
          "type": "address"
        },
        {
          "internalType": "address",
          "name": "",
          "type": "address"
        }
      ],
      "name": "erc20DepositsOfHolder",
      "outputs": [
        {
          "internalType": "uint256",
          "name": "",
          "type": "uint256"
        }
      ],
      "stateMutability": "view",
      "type": "function"
    },
    {
      "inputs": [
        {
          "internalType": "address",
          "name": "",
          "type": "address"
        }
      ],
      "name": "ethDepositsOfHolder",
      "outputs": [
        {
          "internalType": "uint256",
          "name": "",
          "type": "uint256"
        }
      ],
      "stateMutability": "view",
      "type": "function"
    },
    {
      "inputs": [],
      "name": "freeMint",
      "outputs": [],
      "stateMutability": "nonpayable",
      "type": "function"
    },
    {
      "inputs": [
        {
          "internalType": "uint256",
          "name": "tokenId",
          "type": "uint256"
        }
      ],
      "name": "getApproved",
      "outputs": [
        {
          "internalType": "address",
          "name": "",
          "type": "address"
        }
      ],
      "stateMutability": "view",
      "type": "function"
    },
    {
      "inputs": [
        {
          "internalType": "bytes32",
          "name": "role",
          "type": "bytes32"
        }
      ],
      "name": "getRoleAdmin",
      "outputs": [
        {
          "internalType": "bytes32",
          "name": "",
          "type": "bytes32"
        }
      ],
      "stateMutability": "view",
      "type": "function"
    },
    {
      "inputs": [
        {
          "internalType": "bytes32",
          "name": "role",
          "type": "bytes32"
        },
        {
          "internalType": "address",
          "name": "account",
          "type": "address"
        }
      ],
      "name": "grantRole",
      "outputs": [],
      "stateMutability": "nonpayable",
      "type": "function"
    },
    {
      "inputs": [
        {
          "internalType": "bytes32",
          "name": "role",
          "type": "bytes32"
        },
        {
          "internalType": "address",
          "name": "account",
          "type": "address"
        }
      ],
      "name": "hasRole",
      "outputs": [
        {
          "internalType": "bool",
          "name": "",
          "type": "bool"
        }
      ],
      "stateMutability": "view",
      "type": "function"
    },
    {
      "inputs": [
        {
          "internalType": "address",
          "name": "owner",
          "type": "address"
        },
        {
          "internalType": "address",
          "name": "operator",
          "type": "address"
        }
      ],
      "name": "isApprovedForAll",
      "outputs": [
        {
          "internalType": "bool",
          "name": "",
          "type": "bool"
        }
      ],
      "stateMutability": "view",
      "type": "function"
    },
    {
      "inputs": [
        {
          "internalType": "address",
          "name": "_user",
          "type": "address"
        }
      ],
      "name": "isGateHolder",
      "outputs": [
        {
          "internalType": "bool",
          "name": "",
          "type": "bool"
        }
      ],
      "stateMutability": "view",
      "type": "function"
    },
    {
      "inputs": [
        {
          "internalType": "address",
          "name": "forwarder",
          "type": "address"
        }
      ],
      "name": "isTrustedForwarder",
      "outputs": [
        {
          "internalType": "bool",
          "name": "",
          "type": "bool"
        }
      ],
      "stateMutability": "view",
      "type": "function"
    },
    {
      "inputs": [],
      "name": "maxPerWallet",
      "outputs": [
        {
          "internalType": "uint256",
          "name": "",
          "type": "uint256"
        }
      ],
      "stateMutability": "view",
      "type": "function"
    },
    {
      "inputs": [],
      "name": "name",
      "outputs": [
        {
          "internalType": "string",
          "name": "",
          "type": "string"
        }
      ],
      "stateMutability": "view",
      "type": "function"
    },
    {
      "inputs": [],
      "name": "owner",
      "outputs": [
        {
          "internalType": "address",
          "name": "",
          "type": "address"
        }
      ],
      "stateMutability": "view",
      "type": "function"
    },
    {
      "inputs": [
        {
          "internalType": "uint256",
          "name": "tokenId",
          "type": "uint256"
        }
      ],
      "name": "ownerOf",
      "outputs": [
        {
          "internalType": "address",
          "name": "",
          "type": "address"
        }
      ],
      "stateMutability": "view",
      "type": "function"
    },
    {
      "inputs": [
        {
          "internalType": "address",
          "name": "",
          "type": "address"
        }
      ],
      "name": "payoutAddressOfHolder",
      "outputs": [
        {
          "internalType": "address",
          "name": "",
          "type": "address"
        }
      ],
      "stateMutability": "view",
      "type": "function"
    },
    {
      "inputs": [],
      "name": "renounceOwnership",
      "outputs": [],
      "stateMutability": "nonpayable",
      "type": "function"
    },
    {
      "inputs": [
        {
          "internalType": "bytes32",
          "name": "role",
          "type": "bytes32"
        },
        {
          "internalType": "address",
          "name": "callerConfirmation",
          "type": "address"
        }
      ],
      "name": "renounceRole",
      "outputs": [],
      "stateMutability": "nonpayable",
      "type": "function"
    },
    {
      "inputs": [
        {
          "internalType": "address",
          "name": "token",
          "type": "address"
        },
        {
          "internalType": "address",
          "name": "to",
          "type": "address"
        },
        {
          "internalType": "uint256",
          "name": "amount",
          "type": "uint256"
        }
      ],
      "name": "rescueERC20",
      "outputs": [],
      "stateMutability": "nonpayable",
      "type": "function"
    },
    {
      "inputs": [
        {
          "internalType": "address",
          "name": "to",
          "type": "address"
        },
        {
          "internalType": "uint256",
          "name": "amount",
          "type": "uint256"
        }
      ],
      "name": "rescueETH",
      "outputs": [],
      "stateMutability": "nonpayable",
      "type": "function"
    },
    {
      "inputs": [
        {
          "internalType": "bytes32",
          "name": "role",
          "type": "bytes32"
        },
        {
          "internalType": "address",
          "name": "account",
          "type": "address"
        }
      ],
      "name": "revokeRole",
      "outputs": [],
      "stateMutability": "nonpayable",
      "type": "function"
    },
    {
      "inputs": [
        {
          "internalType": "address",
          "name": "from",
          "type": "address"
        },
        {
          "internalType": "address",
          "name": "to",
          "type": "address"
        },
        {
          "internalType": "uint256",
          "name": "tokenId",
          "type": "uint256"
        }
      ],
      "name": "safeTransferFrom",
      "outputs": [],
      "stateMutability": "nonpayable",
      "type": "function"
    },
    {
      "inputs": [
        {
          "internalType": "address",
          "name": "from",
          "type": "address"
        },
        {
          "internalType": "address",
          "name": "to",
          "type": "address"
        },
        {
          "internalType": "uint256",
          "name": "tokenId",
          "type": "uint256"
        },
        {
          "internalType": "bytes",
          "name": "data",
          "type": "bytes"
        }
      ],
      "name": "safeTransferFrom",
      "outputs": [],
      "stateMutability": "nonpayable",
      "type": "function"
    },
    {
      "inputs": [
        {
          "internalType": "address",
          "name": "operator",
          "type": "address"
        },
        {
          "internalType": "bool",
          "name": "approved",
          "type": "bool"
        }
      ],
      "name": "setApprovalForAll",
      "outputs": [],
      "stateMutability": "nonpayable",
      "type": "function"
    },
    {
      "inputs": [
        {
          "internalType": "uint256",
          "name": "_maxPerWallet",
          "type": "uint256"
        }
      ],
      "name": "setMaxPerWallet",
      "outputs": [],
      "stateMutability": "nonpayable",
      "type": "function"
    },
    {
      "inputs": [
        {
          "internalType": "address",
          "name": "_payoutAddress",
          "type": "address"
        }
      ],
      "name": "setPayoutAddress",
      "outputs": [],
      "stateMutability": "nonpayable",
      "type": "function"
    },
    {
      "inputs": [
        {
          "internalType": "bytes4",
          "name": "interfaceId",
          "type": "bytes4"
        }
      ],
      "name": "supportsInterface",
      "outputs": [
        {
          "internalType": "bool",
          "name": "",
          "type": "bool"
        }
      ],
      "stateMutability": "view",
      "type": "function"
    },
    {
      "inputs": [],
      "name": "symbol",
      "outputs": [
        {
          "internalType": "string",
          "name": "",
          "type": "string"
        }
      ],
      "stateMutability": "view",
      "type": "function"
    },
    {
      "inputs": [
        {
          "internalType": "uint256",
          "name": "tokenId",
          "type": "uint256"
        }
      ],
      "name": "tokenURI",
      "outputs": [
        {
          "internalType": "string",
          "name": "",
          "type": "string"
        }
      ],
      "stateMutability": "view",
      "type": "function"
    },
    {
      "inputs": [
        {
          "internalType": "address",
          "name": "from",
          "type": "address"
        },
        {
          "internalType": "address",
          "name": "to",
          "type": "address"
        },
        {
          "internalType": "uint256",
          "name": "tokenId",
          "type": "uint256"
        }
      ],
      "name": "transferFrom",
      "outputs": [],
      "stateMutability": "nonpayable",
      "type": "function"
    },
    {
      "inputs": [
        {
          "internalType": "address",
          "name": "newOwner",
          "type": "address"
        }
      ],
      "name": "transferOwnership",
      "outputs": [],
      "stateMutability": "nonpayable",
      "type": "function"
    },
    {
      "inputs": [],
      "name": "trustedForwarder",
      "outputs": [
        {
          "internalType": "address",
          "name": "",
          "type": "address"
        }
      ],
      "stateMutability": "view",
      "type": "function"
    },
    {
      "inputs": [
        {
          "internalType": "address",
          "name": "token",
          "type": "address"
        }
      ],
      "name": "withdrawHolderERC20",
      "outputs": [],
      "stateMutability": "nonpayable",
      "type": "function"
    },
    {
      "inputs": [],
      "name": "withdrawHolderETH",
      "outputs": [],
      "stateMutability": "nonpayable",
      "type": "function"
    }
  ],
  "devdoc": {
    "details": "An access gate NFT (SBT-like) with gasless minting and NFT-as-wallet features.",
    "errors": {
      "AccessControlBadConfirmation()": [
        {
          "details": "The caller of a function is not the expected one. NOTE: Don't confuse with {AccessControlUnauthorizedAccount}."
        }
      ],
      "AccessControlUnauthorizedAccount(address,bytes32)": [
        {
          "details": "The `account` is missing a role."
        }
      ],
      "ERC721IncorrectOwner(address,uint256,address)": [
        {
          "details": "Indicates an error related to the ownership over a particular token. Used in transfers.",
          "params": {
            "owner": "Address of the current owner of a token.",
            "sender": "Address whose tokens are being transferred.",
            "tokenId": "Identifier number of a token."
          }
        }
      ],
      "ERC721InsufficientApproval(address,uint256)": [
        {
          "details": "Indicates a failure with the `operator`’s approval. Used in transfers.",
          "params": {
            "operator": "Address that may be allowed to operate on tokens without being their owner.",
            "tokenId": "Identifier number of a token."
          }
        }
      ],
      "ERC721InvalidApprover(address)": [
        {
          "details": "Indicates a failure with the `approver` of a token to be approved. Used in approvals.",
          "params": {
            "approver": "Address initiating an approval operation."
          }
        }
      ],
      "ERC721InvalidOperator(address)": [
        {
          "details": "Indicates a failure with the `operator` to be approved. Used in approvals.",
          "params": {
            "operator": "Address that may be allowed to operate on tokens without being their owner."
          }
        }
      ],
      "ERC721InvalidOwner(address)": [
        {
          "details": "Indicates that an address can't be an owner. For example, `address(0)` is a forbidden owner in ERC-20. Used in balance queries.",
          "params": {
            "owner": "Address of the current owner of a token."
          }
        }
      ],
      "ERC721InvalidReceiver(address)": [
        {
          "details": "Indicates a failure with the token `receiver`. Used in transfers.",
          "params": {
            "receiver": "Address to which tokens are being transferred."
          }
        }
      ],
      "ERC721InvalidSender(address)": [
        {
          "details": "Indicates a failure with the token `sender`. Used in transfers.",
          "params": {
            "sender": "Address whose tokens are being transferred."
          }
        }
      ],
      "ERC721NonexistentToken(uint256)": [
        {
          "details": "Indicates a `tokenId` whose `owner` is the zero address.",
          "params": {
            "tokenId": "Identifier number of a token."
          }
        }
      ],
      "OwnableInvalidOwner(address)": [
        {
          "details": "The owner is not a valid owner account. (eg. `address(0)`)"
        }
      ],
      "OwnableUnauthorizedAccount(address)": [
        {
          "details": "The caller account is not authorized to perform an operation."
        }
      ],
      "ReentrancyGuardReentrantCall()": [
        {
          "details": "Unauthorized reentrant call."
        }
      ]
    },
    "events": {
      "Approval(address,address,uint256)": {
        "details": "Emitted when `owner` enables `approved` to manage the `tokenId` token."
      },
      "ApprovalForAll(address,address,bool)": {
        "details": "Emitted when `owner` enables or disables (`approved`) `operator` to manage all of its assets."
      },
      "RoleAdminChanged(bytes32,bytes32,bytes32)": {
        "details": "Emitted when `newAdminRole` is set as ``role``'s admin role, replacing `previousAdminRole` `DEFAULT_ADMIN_ROLE` is the starting admin for all roles, despite {RoleAdminChanged} not being emitted to signal this."
      },
      "RoleGranted(bytes32,address,address)": {
        "details": "Emitted when `account` is granted `role`. `sender` is the account that originated the contract call. This account bears the admin role (for the granted role). Expected in cases where the role was granted using the internal {AccessControl-_grantRole}."
      },
      "RoleRevoked(bytes32,address,address)": {
        "details": "Emitted when `account` is revoked `role`. `sender` is the account that originated the contract call:   - if using `revokeRole`, it is the admin role bearer   - if using `renounceRole`, it is the role bearer (i.e. `account`)"
      },
      "Transfer(address,address,uint256)": {
        "details": "Emitted when `tokenId` token is transferred from `from` to `to`."
      }
    },
    "kind": "dev",
    "methods": {
      "approve(address,uint256)": {
        "details": "Gives permission to `to` to transfer `tokenId` token to another account. The approval is cleared when the token is transferred. Only a single account can be approved at a time, so approving the zero address clears previous approvals. Requirements: - The caller must own the token or be an approved operator. - `tokenId` must exist. Emits an {Approval} event."
      },
      "balanceOf(address)": {
        "details": "Returns the number of tokens in ``owner``'s account."
      },
      "getApproved(uint256)": {
        "details": "Returns the account approved for `tokenId` token. Requirements: - `tokenId` must exist."
      },
      "getRoleAdmin(bytes32)": {
        "details": "Returns the admin role that controls `role`. See {grantRole} and {revokeRole}. To change a role's admin, use {_setRoleAdmin}."
      },
      "grantRole(bytes32,address)": {
        "details": "Grants `role` to `account`. If `account` had not been already granted `role`, emits a {RoleGranted} event. Requirements: - the caller must have ``role``'s admin role. May emit a {RoleGranted} event."
      },
      "hasRole(bytes32,address)": {
        "details": "Returns `true` if `account` has been granted `role`."
      },
      "isApprovedForAll(address,address)": {
        "details": "Returns if the `operator` is allowed to manage all of the assets of `owner`. See {setApprovalForAll}"
      },
      "isTrustedForwarder(address)": {
        "details": "Indicates whether any particular address is the trusted forwarder."
      },
      "name()": {
        "details": "Returns the token collection name."
      },
      "owner()": {
        "details": "Returns the address of the current owner."
      },
      "ownerOf(uint256)": {
        "details": "Returns the owner of the `tokenId` token. Requirements: - `tokenId` must exist."
      },
      "renounceOwnership()": {
        "details": "Leaves the contract without owner. It will not be possible to call `onlyOwner` functions. Can only be called by the current owner. NOTE: Renouncing ownership will leave the contract without an owner, thereby disabling any functionality that is only available to the owner."
      },
      "renounceRole(bytes32,address)": {
        "details": "Revokes `role` from the calling account. Roles are often managed via {grantRole} and {revokeRole}: this function's purpose is to provide a mechanism for accounts to lose their privileges if they are compromised (such as when a trusted device is misplaced). If the calling account had been revoked `role`, emits a {RoleRevoked} event. Requirements: - the caller must be `callerConfirmation`. May emit a {RoleRevoked} event."
      },
      "revokeRole(bytes32,address)": {
        "details": "Revokes `role` from `account`. If `account` had been granted `role`, emits a {RoleRevoked} event. Requirements: - the caller must have ``role``'s admin role. May emit a {RoleRevoked} event."
      },
      "safeTransferFrom(address,address,uint256)": {
        "details": "Safely transfers `tokenId` token from `from` to `to`, checking first that contract recipients are aware of the ERC-721 protocol to prevent tokens from being forever locked. Requirements: - `from` cannot be the zero address. - `to` cannot be the zero address. - `tokenId` token must exist and be owned by `from`. - If the caller is not `from`, it must have been allowed to move this token by either {approve} or   {setApprovalForAll}. - If `to` refers to a smart contract, it must implement {IERC721Receiver-onERC721Received}, which is called upon   a safe transfer. Emits a {Transfer} event."
      },
      "safeTransferFrom(address,address,uint256,bytes)": {
        "details": "Safely transfers `tokenId` token from `from` to `to`. Requirements: - `from` cannot be the zero address. - `to` cannot be the zero address. - `tokenId` token must exist and be owned by `from`. - If the caller is not `from`, it must be approved to move this token by either {approve} or {setApprovalForAll}. - If `to` refers to a smart contract, it must implement {IERC721Receiver-onERC721Received}, which is called upon   a safe transfer. Emits a {Transfer} event."
      },
      "setApprovalForAll(address,bool)": {
        "details": "Approve or remove `operator` as an operator for the caller. Operators can call {transferFrom} or {safeTransferFrom} for any token owned by the caller. Requirements: - The `operator` cannot be the address zero. Emits an {ApprovalForAll} event."
      },
      "symbol()": {
        "details": "Returns the token collection symbol."
      },
      "tokenURI(uint256)": {
        "details": "Returns the Uniform Resource Identifier (URI) for `tokenId` token."
      },
      "transferFrom(address,address,uint256)": {
        "details": "Transfers `tokenId` token from `from` to `to`. WARNING: Note that the caller is responsible to confirm that the recipient is capable of receiving ERC-721 or else they may be permanently lost. Usage of {safeTransferFrom} prevents loss, though the caller must understand this adds an external call which potentially creates a reentrancy vulnerability. Requirements: - `from` cannot be the zero address. - `to` cannot be the zero address. - `tokenId` token must be owned by `from`. - If the caller is not `from`, it must be approved to move this token by either {approve} or {setApprovalForAll}. Emits a {Transfer} event."
      },
      "transferOwnership(address)": {
        "details": "Transfers ownership of the contract to a new account (`newOwner`). Can only be called by the current owner."
      },
      "trustedForwarder()": {
        "details": "Returns the address of the trusted forwarder."
      }
    },
    "title": "PandorasKey",
    "version": 1
  },
  "evm": {
    "assembly": "    /* \"PandorasKey.sol\":575:7170  contract PandorasKey is ERC721, Ownable, AccessControl, ERC2771Context, ReentrancyGuard {... */\n  mstore(0x40, 0xa0)\n    /* \"PandorasKey.sol\":1558:1954  constructor(... */\n  callvalue\n  dup1\n  iszero\n  tag_1\n  jumpi\n  0x00\n  dup1\n  revert\ntag_1:\n  pop\n  mload(0x40)\n  sub(codesize, bytecodeSize)\n  dup1\n  bytecodeSize\n  dup4\n  codecopy\n  dup2\n  add\n  0x40\n  dup2\n  swap1\n  mstore\n  tag_2\n  swap2\n  tag_3\n  jump\t// in\ntag_2:\n    /* \"PandorasKey.sol\":1734:1750  trustedForwarder */\n  dup1\n    /* \"PandorasKey.sol\":1760:1772  initialOwner */\n  dup3\n    /* \"PandorasKey.sol\":1705:1709  name */\n  dup6\n    /* \"PandorasKey.sol\":1711:1717  symbol */\n  dup6\n    /* \"@openzeppelin/contracts/token/ERC721/ERC721.sol\":1446:1451   */\n  0x00\n    /* \"@openzeppelin/contracts/token/ERC721/ERC721.sol\":1446:1459   */\n  tag_10\n    /* \"PandorasKey.sol\":1705:1709  name */\n  dup4\n    /* \"@openzeppelin/contracts/token/ERC721/ERC721.sol\":1446:1451   */\n  dup3\n    /* \"@openzeppelin/contracts/token/ERC721/ERC721.sol\":1446:1459   */\n  tag_11\n  jump\t// in\ntag_10:\n  pop\n    /* \"@openzeppelin/contracts/token/ERC721/ERC721.sol\":1469:1476   */\n  0x01\n    /* \"@openzeppelin/contracts/token/ERC721/ERC721.sol\":1469:1486   */\n  tag_12\n    /* \"@openzeppelin/contracts/token/ERC721/ERC721.sol\":1479:1486   */\n  dup3\n    /* \"@openzeppelin/contracts/token/ERC721/ERC721.sol\":1469:1476   */\n  dup3\n    /* \"@openzeppelin/contracts/token/ERC721/ERC721.sol\":1469:1486   */\n  tag_11\n  jump\t// in\ntag_12:\n  pop\n  pop\n  pop\n  sub(shl(0xa0, 0x01), 0x01)\n    /* \"@openzeppelin/contracts/access/Ownable.sol\":1273:1299   */\n  dup2\n  and\n    /* \"@openzeppelin/contracts/access/Ownable.sol\":1269:1364   */\n  tag_14\n  jumpi\n    /* \"@openzeppelin/contracts/access/Ownable.sol\":1322:1353   */\n  mload(0x40)\n  shl(0xe0, 0x1e4fbdf7)\n  dup2\n  mstore\n    /* \"@openzeppelin/contracts/access/Ownable.sol\":1350:1351   */\n  0x00\n    /* \"@openzeppelin/contracts/access/Ownable.sol\":1322:1353   */\n  0x04\n  dup3\n  add\n    /* \"#utility.yul\":4488:4539   */\n  mstore\n    /* \"#utility.yul\":4461:4479   */\n  0x24\n  add\n    /* \"@openzeppelin/contracts/access/Ownable.sol\":1322:1353   */\n  mload(0x40)\n  dup1\n  swap2\n  sub\n  swap1\n  revert\n    /* \"@openzeppelin/contracts/access/Ownable.sol\":1269:1364   */\ntag_14:\n    /* \"@openzeppelin/contracts/access/Ownable.sol\":1373:1405   */\n  tag_17\n    /* \"@openzeppelin/contracts/access/Ownable.sol\":1392:1404   */\n  dup2\n    /* \"@openzeppelin/contracts/access/Ownable.sol\":1373:1391   */\n  tag_18\n    /* \"@openzeppelin/contracts/access/Ownable.sol\":1373:1405   */\n  jump\t// in\ntag_17:\n  pop\n  sub(shl(0xa0, 0x01), 0x01)\n    /* \"@openzeppelin/contracts/metatx/ERC2771Context.sol\":1500:1537   */\n  and\n  0x80\n  mstore\n    /* \"@openzeppelin/contracts/utils/ReentrancyGuard.sol\":1857:1858   */\n  0x01\n    /* \"@openzeppelin/contracts/utils/ReentrancyGuard.sol\":2061:2068   */\n  0x08\n    /* \"@openzeppelin/contracts/utils/ReentrancyGuard.sol\":2061:2082   */\n  sstore\n    /* \"PandorasKey.sol\":1784:1828  _grantRole(DEFAULT_ADMIN_ROLE, initialOwner) */\n  tag_22\n    /* \"@openzeppelin/contracts/access/AccessControl.sol\":2241:2245   */\n  0x00\n    /* \"PandorasKey.sol\":1815:1827  initialOwner */\n  dup4\n    /* \"PandorasKey.sol\":1784:1794  _grantRole */\n  tag_23\n    /* \"PandorasKey.sol\":1784:1828  _grantRole(DEFAULT_ADMIN_ROLE, initialOwner) */\n  jump\t// in\ntag_22:\n  pop\n    /* \"PandorasKey.sol\":1838:1874  _grantRole(ADMIN_ROLE, initialOwner) */\n  tag_24\n    /* \"PandorasKey.sol\":774:797  keccak256(\"ADMIN_ROLE\") */\n  0xa49807205ce4d355092ef5a8a18f56e8913cf4a201fbe287825b095693c21775\n    /* \"PandorasKey.sol\":1861:1873  initialOwner */\n  dup4\n    /* \"PandorasKey.sol\":1838:1848  _grantRole */\n  tag_23\n    /* \"PandorasKey.sol\":1838:1874  _grantRole(ADMIN_ROLE, initialOwner) */\n  jump\t// in\ntag_24:\n  pop\n    /* \"PandorasKey.sol\":1884:1921  _grantRole(MINTER_ROLE, initialOwner) */\n  tag_25\n    /* \"PandorasKey.sol\":707:731  keccak256(\"MINTER_ROLE\") */\n  0x9f2df0fed2c77648de5860a4cc508cd0818c85b8b8a1ab4ceeef8d981c8956a6\n    /* \"PandorasKey.sol\":1908:1920  initialOwner */\n  dup4\n    /* \"PandorasKey.sol\":1884:1894  _grantRole */\n  tag_23\n    /* \"PandorasKey.sol\":1884:1921  _grantRole(MINTER_ROLE, initialOwner) */\n  jump\t// in\ntag_25:\n  pop\n  pop\n    /* \"PandorasKey.sol\":1946:1947  1 */\n  0x01\n    /* \"PandorasKey.sol\":1931:1943  maxPerWallet */\n  0x09\n    /* \"PandorasKey.sol\":1931:1947  maxPerWallet = 1 */\n  sstore\n  pop\n    /* \"PandorasKey.sol\":575:7170  contract PandorasKey is ERC721, Ownable, AccessControl, ERC2771Context, ReentrancyGuard {... */\n  tag_69\n  swap2\n  pop\n  pop\n  jump\n    /* \"@openzeppelin/contracts/access/Ownable.sol\":2912:3099   */\ntag_18:\n    /* \"@openzeppelin/contracts/access/Ownable.sol\":3004:3010   */\n  0x06\n  dup1\n  sload\n  sub(shl(0xa0, 0x01), 0x01)\n    /* \"@openzeppelin/contracts/access/Ownable.sol\":3020:3037   */\n  dup4\n  dup2\n  and\n  not(sub(shl(0xa0, 0x01), 0x01))\n  dup4\n  and\n  dup2\n  or\n  swap1\n  swap4\n  sstore\n    /* \"@openzeppelin/contracts/access/Ownable.sol\":3052:3092   */\n  mload(0x40)\n    /* \"@openzeppelin/contracts/access/Ownable.sol\":3004:3010   */\n  swap2\n  and\n  swap2\n    /* \"@openzeppelin/contracts/access/Ownable.sol\":3020:3037   */\n  swap1\n    /* \"@openzeppelin/contracts/access/Ownable.sol\":3004:3010   */\n  dup3\n  swap1\n    /* \"@openzeppelin/contracts/access/Ownable.sol\":3052:3092   */\n  0x8be0079c531659141344cd1fd0a4f28419497f9722a3daafe3b4186f6b6457e0\n  swap1\n    /* \"@openzeppelin/contracts/access/Ownable.sol\":2985:3001   */\n  0x00\n  swap1\n    /* \"@openzeppelin/contracts/access/Ownable.sol\":3052:3092   */\n  log3\n    /* \"@openzeppelin/contracts/access/Ownable.sol\":2975:3099   */\n  pop\n    /* \"@openzeppelin/contracts/access/Ownable.sol\":2912:3099   */\n  pop\n  jump\t// out\n    /* \"@openzeppelin/contracts/access/AccessControl.sol\":6155:6471   */\ntag_23:\n    /* \"@openzeppelin/contracts/access/AccessControl.sol\":6232:6236   */\n  0x00\n    /* \"@openzeppelin/contracts/access/AccessControl.sol\":2930:2942   */\n  dup3\n  dup2\n  mstore\n    /* \"@openzeppelin/contracts/access/AccessControl.sol\":2930:2936   */\n  0x07\n    /* \"@openzeppelin/contracts/access/AccessControl.sol\":2930:2942   */\n  0x20\n  swap1\n  dup2\n  mstore\n  0x40\n  dup1\n  dup4\n  keccak256\n  sub(shl(0xa0, 0x01), 0x01)\n    /* \"@openzeppelin/contracts/access/AccessControl.sol\":2930:2959   */\n  dup6\n  and\n  dup5\n  mstore\n  swap1\n  swap2\n  mstore\n  dup2\n  keccak256\n  sload\n  0xff\n  and\n    /* \"@openzeppelin/contracts/access/AccessControl.sol\":6248:6465   */\n  tag_31\n  jumpi\n    /* \"@openzeppelin/contracts/access/AccessControl.sol\":6291:6303   */\n  0x00\n  dup4\n  dup2\n  mstore\n    /* \"@openzeppelin/contracts/access/AccessControl.sol\":6291:6297   */\n  0x07\n    /* \"@openzeppelin/contracts/access/AccessControl.sol\":6291:6303   */\n  0x20\n  swap1\n  dup2\n  mstore\n  0x40\n  dup1\n  dup4\n  keccak256\n  sub(shl(0xa0, 0x01), 0x01)\n    /* \"@openzeppelin/contracts/access/AccessControl.sol\":6291:6320   */\n  dup7\n  and\n  dup5\n  mstore\n  swap1\n  swap2\n  mstore\n  swap1\n  keccak256\n    /* \"@openzeppelin/contracts/access/AccessControl.sol\":6291:6327   */\n  dup1\n  sload\n  not(0xff)\n  and\n    /* \"@openzeppelin/contracts/access/AccessControl.sol\":6323:6327   */\n  0x01\n    /* \"@openzeppelin/contracts/access/AccessControl.sol\":6291:6327   */\n  or\n  swap1\n  sstore\n    /* \"@openzeppelin/contracts/access/AccessControl.sol\":6373:6385   */\n  tag_32\n    /* \"@openzeppelin/contracts/access/AccessControl.sol\":6373:6383   */\n  tag_33\n    /* \"@openzeppelin/contracts/access/AccessControl.sol\":6373:6385   */\n  jump\t// in\ntag_32:\n  sub(shl(0xa0, 0x01), 0x01)\n    /* \"@openzeppelin/contracts/access/AccessControl.sol\":6346:6386   */\n  and\n    /* \"@openzeppelin/contracts/access/AccessControl.sol\":6364:6371   */\n  dup3\n  sub(shl(0xa0, 0x01), 0x01)\n    /* \"@openzeppelin/contracts/access/AccessControl.sol\":6346:6386   */\n  and\n    /* \"@openzeppelin/contracts/access/AccessControl.sol\":6358:6362   */\n  dup5\n    /* \"@openzeppelin/contracts/access/AccessControl.sol\":6346:6386   */\n  0x2f8788117e7eff1d82e926ec794901d17c78024a50270940304540a733656f0d\n  mload(0x40)\n  mload(0x40)\n  dup1\n  swap2\n  sub\n  swap1\n  log4\n  pop\n    /* \"@openzeppelin/contracts/access/AccessControl.sol\":6407:6411   */\n  0x01\n    /* \"@openzeppelin/contracts/access/AccessControl.sol\":6400:6411   */\n  jump(tag_34)\n    /* \"@openzeppelin/contracts/access/AccessControl.sol\":6248:6465   */\ntag_31:\n  pop\n    /* \"@openzeppelin/contracts/access/AccessControl.sol\":6449:6454   */\n  0x00\n    /* \"@openzeppelin/contracts/access/AccessControl.sol\":6248:6465   */\ntag_34:\n    /* \"@openzeppelin/contracts/access/AccessControl.sol\":6155:6471   */\n  swap3\n  swap2\n  pop\n  pop\n  jump\t// out\n    /* \"PandorasKey.sol\":2140:2287  function _msgSender() internal view virtual override(Context, ERC2771Context) returns (address) {... */\ntag_33:\n    /* \"PandorasKey.sol\":2227:2234  address */\n  0x00\n    /* \"PandorasKey.sol\":2253:2280  ERC2771Context._msgSender() */\n  tag_37\n    /* \"PandorasKey.sol\":2253:2278  ERC2771Context._msgSender */\n  tag_38\n    /* \"PandorasKey.sol\":2253:2280  ERC2771Context._msgSender() */\n  jump\t// in\ntag_37:\n    /* \"PandorasKey.sol\":2246:2280  return ERC2771Context._msgSender() */\n  swap1\n  pop\n    /* \"PandorasKey.sol\":2140:2287  function _msgSender() internal view virtual override(Context, ERC2771Context) returns (address) {... */\n  swap1\n  jump\t// out\n    /* \"@openzeppelin/contracts/metatx/ERC2771Context.sol\":2206:2677   */\ntag_38:\n    /* \"@openzeppelin/contracts/metatx/ERC2771Context.sol\":2268:2275   */\n  0x00\n    /* \"@openzeppelin/contracts/metatx/ERC2771Context.sol\":2312:2320   */\n  calldatasize\n    /* \"@openzeppelin/contracts/metatx/ERC2771Context.sol\":3567:3569   */\n  0x14\n    /* \"@openzeppelin/contracts/metatx/ERC2771Context.sol\":2403:2440   */\n  dup1\n  dup3\n  lt\n  dup1\n  iszero\n  swap1\n    /* \"@openzeppelin/contracts/metatx/ERC2771Context.sol\":2403:2474   */\n  tag_43\n  jumpi\n  pop\n    /* \"@openzeppelin/contracts/metatx/ERC2771Context.sol\":2444:2474   */\n  tag_43\n    /* \"@openzeppelin/contracts/metatx/ERC2771Context.sol\":2463:2473   */\n  caller\n    /* \"@openzeppelin/contracts/metatx/ERC2771Context.sol\":2444:2462   */\n  tag_44\n    /* \"@openzeppelin/contracts/metatx/ERC2771Context.sol\":2444:2474   */\n  jump\t// in\ntag_43:\n    /* \"@openzeppelin/contracts/metatx/ERC2771Context.sol\":2399:2671   */\n  iszero\n  tag_45\n  jumpi\n    /* \"@openzeppelin/contracts/metatx/ERC2771Context.sol\":2541:2588   */\n  tag_46\n    /* \"@openzeppelin/contracts/metatx/ERC2771Context.sol\":2541:2549   */\n  calldatasize\n    /* \"@openzeppelin/contracts/metatx/ERC2771Context.sol\":2550:2586   */\n  dup3\n  dup5\n  sub\n    /* \"@openzeppelin/contracts/metatx/ERC2771Context.sol\":2541:2549   */\n  dup2\n  0x00\n    /* \"@openzeppelin/contracts/metatx/ERC2771Context.sol\":2541:2588   */\n  tag_47\n  jump\t// in\ntag_46:\n    /* \"@openzeppelin/contracts/metatx/ERC2771Context.sol\":2533:2589   */\n  tag_48\n  swap2\n  tag_49\n  jump\t// in\ntag_48:\n    /* \"@openzeppelin/contracts/metatx/ERC2771Context.sol\":2525:2590   */\n  0x60\n  shr\n    /* \"@openzeppelin/contracts/metatx/ERC2771Context.sol\":2518:2590   */\n  swap3\n  pop\n  pop\n  pop\n    /* \"@openzeppelin/contracts/metatx/ERC2771Context.sol\":2206:2677   */\n  swap1\n  jump\t// out\n    /* \"@openzeppelin/contracts/metatx/ERC2771Context.sol\":2399:2671   */\ntag_45:\n    /* \"@openzeppelin/contracts/utils/Context.sol\":735:745   */\n  caller\n    /* \"@openzeppelin/contracts/metatx/ERC2771Context.sol\":2635:2660   */\n  swap3\n  pop\n  pop\n  pop\n    /* \"@openzeppelin/contracts/metatx/ERC2771Context.sol\":2206:2677   */\n  swap1\n  jump\t// out\n    /* \"@openzeppelin/contracts/metatx/ERC2771Context.sol\":1832:1969   */\ntag_44:\n    /* \"@openzeppelin/contracts/metatx/ERC2771Context.sol\":1908:1912   */\n  0x00\n    /* \"@openzeppelin/contracts/metatx/ERC2771Context.sol\":1944:1962   */\n  tag_57\n    /* \"@openzeppelin/contracts/metatx/ERC2771Context.sol\":1707:1724   */\n  mload(0x80)\n  swap1\n    /* \"@openzeppelin/contracts/metatx/ERC2771Context.sol\":1624:1731   */\n  jump\n    /* \"@openzeppelin/contracts/metatx/ERC2771Context.sol\":1944:1962   */\ntag_57:\n  sub(shl(0xa0, 0x01), 0x01)\n    /* \"@openzeppelin/contracts/metatx/ERC2771Context.sol\":1931:1962   */\n  and\n    /* \"@openzeppelin/contracts/metatx/ERC2771Context.sol\":1931:1940   */\n  dup3\n  sub(shl(0xa0, 0x01), 0x01)\n    /* \"@openzeppelin/contracts/metatx/ERC2771Context.sol\":1931:1962   */\n  and\n  eq\n    /* \"@openzeppelin/contracts/metatx/ERC2771Context.sol\":1924:1962   */\n  swap1\n  pop\n    /* \"@openzeppelin/contracts/metatx/ERC2771Context.sol\":1832:1969   */\n  swap2\n  swap1\n  pop\n  jump\t// out\n    /* \"#utility.yul\":14:141   */\ntag_62:\n    /* \"#utility.yul\":75:85   */\n  0x4e487b71\n    /* \"#utility.yul\":70:73   */\n  0xe0\n    /* \"#utility.yul\":66:86   */\n  shl\n    /* \"#utility.yul\":63:64   */\n  0x00\n    /* \"#utility.yul\":56:87   */\n  mstore\n    /* \"#utility.yul\":106:110   */\n  0x41\n    /* \"#utility.yul\":103:104   */\n  0x04\n    /* \"#utility.yul\":96:111   */\n  mstore\n    /* \"#utility.yul\":130:134   */\n  0x24\n    /* \"#utility.yul\":127:128   */\n  0x00\n    /* \"#utility.yul\":120:135   */\n  revert\n    /* \"#utility.yul\":146:862   */\ntag_63:\n    /* \"#utility.yul\":200:205   */\n  0x00\n    /* \"#utility.yul\":253:256   */\n  dup3\n    /* \"#utility.yul\":246:250   */\n  0x1f\n    /* \"#utility.yul\":238:244   */\n  dup4\n    /* \"#utility.yul\":234:251   */\n  add\n    /* \"#utility.yul\":230:257   */\n  slt\n    /* \"#utility.yul\":220:275   */\n  tag_72\n  jumpi\n    /* \"#utility.yul\":271:272   */\n  0x00\n    /* \"#utility.yul\":268:269   */\n  dup1\n    /* \"#utility.yul\":261:273   */\n  revert\n    /* \"#utility.yul\":220:275   */\ntag_72:\n    /* \"#utility.yul\":294:307   */\n  dup2\n  mload\n  sub(shl(0x40, 0x01), 0x01)\n    /* \"#utility.yul\":356:366   */\n  dup1\n  dup3\n  gt\n    /* \"#utility.yul\":353:389   */\n  iszero\n  tag_74\n  jumpi\n    /* \"#utility.yul\":369:387   */\n  tag_74\n  tag_62\n  jump\t// in\ntag_74:\n    /* \"#utility.yul\":444:446   */\n  0x40\n    /* \"#utility.yul\":438:447   */\n  mload\n    /* \"#utility.yul\":412:414   */\n  0x1f\n    /* \"#utility.yul\":498:511   */\n  dup4\n  add\n  not(0x1f)\n    /* \"#utility.yul\":494:516   */\n  swap1\n  dup2\n  and\n    /* \"#utility.yul\":518:520   */\n  0x3f\n    /* \"#utility.yul\":490:521   */\n  add\n    /* \"#utility.yul\":486:526   */\n  and\n    /* \"#utility.yul\":474:527   */\n  dup2\n  add\n  swap1\n    /* \"#utility.yul\":542:560   */\n  dup3\n  dup3\n  gt\n    /* \"#utility.yul\":562:584   */\n  dup2\n  dup4\n  lt\n    /* \"#utility.yul\":539:585   */\n  or\n    /* \"#utility.yul\":536:608   */\n  iszero\n  tag_76\n  jumpi\n    /* \"#utility.yul\":588:606   */\n  tag_76\n  tag_62\n  jump\t// in\ntag_76:\n    /* \"#utility.yul\":628:638   */\n  dup2\n    /* \"#utility.yul\":624:626   */\n  0x40\n    /* \"#utility.yul\":617:639   */\n  mstore\n    /* \"#utility.yul\":663:665   */\n  dup4\n    /* \"#utility.yul\":655:661   */\n  dup2\n    /* \"#utility.yul\":648:666   */\n  mstore\n    /* \"#utility.yul\":709:712   */\n  dup7\n    /* \"#utility.yul\":702:706   */\n  0x20\n    /* \"#utility.yul\":697:699   */\n  dup6\n    /* \"#utility.yul\":689:695   */\n  dup9\n    /* \"#utility.yul\":685:700   */\n  add\n    /* \"#utility.yul\":681:707   */\n  add\n    /* \"#utility.yul\":678:713   */\n  gt\n    /* \"#utility.yul\":675:730   */\n  iszero\n  tag_77\n  jumpi\n    /* \"#utility.yul\":726:727   */\n  0x00\n    /* \"#utility.yul\":723:724   */\n  dup1\n    /* \"#utility.yul\":716:728   */\n  revert\n    /* \"#utility.yul\":675:730   */\ntag_77:\n    /* \"#utility.yul\":783:785   */\n  dup4\n    /* \"#utility.yul\":776:780   */\n  0x20\n    /* \"#utility.yul\":768:774   */\n  dup8\n    /* \"#utility.yul\":764:781   */\n  add\n    /* \"#utility.yul\":757:761   */\n  0x20\n    /* \"#utility.yul\":749:755   */\n  dup4\n    /* \"#utility.yul\":745:762   */\n  add\n    /* \"#utility.yul\":739:786   */\n  mcopy\n    /* \"#utility.yul\":830:831   */\n  0x00\n    /* \"#utility.yul\":823:827   */\n  0x20\n    /* \"#utility.yul\":818:820   */\n  dup6\n    /* \"#utility.yul\":810:816   */\n  dup4\n    /* \"#utility.yul\":806:821   */\n  add\n    /* \"#utility.yul\":802:828   */\n  add\n    /* \"#utility.yul\":795:832   */\n  mstore\n    /* \"#utility.yul\":850:856   */\n  dup1\n    /* \"#utility.yul\":841:856   */\n  swap5\n  pop\n  pop\n  pop\n  pop\n  pop\n    /* \"#utility.yul\":146:862   */\n  swap3\n  swap2\n  pop\n  pop\n  jump\t// out\n    /* \"#utility.yul\":867:1044   */\ntag_64:\n    /* \"#utility.yul\":946:959   */\n  dup1\n  mload\n  sub(shl(0xa0, 0x01), 0x01)\n    /* \"#utility.yul\":988:1019   */\n  dup2\n  and\n    /* \"#utility.yul\":978:1020   */\n  dup2\n  eq\n    /* \"#utility.yul\":968:1038   */\n  tag_79\n  jumpi\n    /* \"#utility.yul\":1034:1035   */\n  0x00\n    /* \"#utility.yul\":1031:1032   */\n  dup1\n    /* \"#utility.yul\":1024:1036   */\n  revert\n    /* \"#utility.yul\":968:1038   */\ntag_79:\n    /* \"#utility.yul\":867:1044   */\n  swap2\n  swap1\n  pop\n  jump\t// out\n    /* \"#utility.yul\":1049:1782   */\ntag_3:\n    /* \"#utility.yul\":1166:1172   */\n  0x00\n    /* \"#utility.yul\":1174:1180   */\n  dup1\n    /* \"#utility.yul\":1182:1188   */\n  0x00\n    /* \"#utility.yul\":1190:1196   */\n  dup1\n    /* \"#utility.yul\":1243:1246   */\n  0x80\n    /* \"#utility.yul\":1231:1240   */\n  dup6\n    /* \"#utility.yul\":1222:1229   */\n  dup8\n    /* \"#utility.yul\":1218:1241   */\n  sub\n    /* \"#utility.yul\":1214:1247   */\n  slt\n    /* \"#utility.yul\":1211:1264   */\n  iszero\n  tag_81\n  jumpi\n    /* \"#utility.yul\":1260:1261   */\n  0x00\n    /* \"#utility.yul\":1257:1258   */\n  dup1\n    /* \"#utility.yul\":1250:1262   */\n  revert\n    /* \"#utility.yul\":1211:1264   */\ntag_81:\n    /* \"#utility.yul\":1287:1303   */\n  dup5\n  mload\n  sub(shl(0x40, 0x01), 0x01)\n    /* \"#utility.yul\":1352:1366   */\n  dup1\n  dup3\n  gt\n    /* \"#utility.yul\":1349:1383   */\n  iszero\n  tag_82\n  jumpi\n    /* \"#utility.yul\":1379:1380   */\n  0x00\n    /* \"#utility.yul\":1376:1377   */\n  dup1\n    /* \"#utility.yul\":1369:1381   */\n  revert\n    /* \"#utility.yul\":1349:1383   */\ntag_82:\n    /* \"#utility.yul\":1402:1463   */\n  tag_83\n    /* \"#utility.yul\":1455:1462   */\n  dup9\n    /* \"#utility.yul\":1446:1452   */\n  dup4\n    /* \"#utility.yul\":1435:1444   */\n  dup10\n    /* \"#utility.yul\":1431:1453   */\n  add\n    /* \"#utility.yul\":1402:1463   */\n  tag_63\n  jump\t// in\ntag_83:\n    /* \"#utility.yul\":1392:1463   */\n  swap6\n  pop\n    /* \"#utility.yul\":1509:1511   */\n  0x20\n    /* \"#utility.yul\":1498:1507   */\n  dup8\n    /* \"#utility.yul\":1494:1512   */\n  add\n    /* \"#utility.yul\":1488:1513   */\n  mload\n    /* \"#utility.yul\":1472:1513   */\n  swap2\n  pop\n    /* \"#utility.yul\":1538:1540   */\n  dup1\n    /* \"#utility.yul\":1528:1536   */\n  dup3\n    /* \"#utility.yul\":1525:1541   */\n  gt\n    /* \"#utility.yul\":1522:1558   */\n  iszero\n  tag_84\n  jumpi\n    /* \"#utility.yul\":1554:1555   */\n  0x00\n    /* \"#utility.yul\":1551:1552   */\n  dup1\n    /* \"#utility.yul\":1544:1556   */\n  revert\n    /* \"#utility.yul\":1522:1558   */\ntag_84:\n  pop\n    /* \"#utility.yul\":1577:1640   */\n  tag_85\n    /* \"#utility.yul\":1632:1639   */\n  dup8\n    /* \"#utility.yul\":1621:1629   */\n  dup3\n    /* \"#utility.yul\":1610:1619   */\n  dup9\n    /* \"#utility.yul\":1606:1630   */\n  add\n    /* \"#utility.yul\":1577:1640   */\n  tag_63\n  jump\t// in\ntag_85:\n    /* \"#utility.yul\":1567:1640   */\n  swap4\n  pop\n  pop\n    /* \"#utility.yul\":1659:1708   */\n  tag_86\n    /* \"#utility.yul\":1704:1706   */\n  0x40\n    /* \"#utility.yul\":1693:1702   */\n  dup7\n    /* \"#utility.yul\":1689:1707   */\n  add\n    /* \"#utility.yul\":1659:1708   */\n  tag_64\n  jump\t// in\ntag_86:\n    /* \"#utility.yul\":1649:1708   */\n  swap2\n  pop\n    /* \"#utility.yul\":1727:1776   */\n  tag_87\n    /* \"#utility.yul\":1772:1774   */\n  0x60\n    /* \"#utility.yul\":1761:1770   */\n  dup7\n    /* \"#utility.yul\":1757:1775   */\n  add\n    /* \"#utility.yul\":1727:1776   */\n  tag_64\n  jump\t// in\ntag_87:\n    /* \"#utility.yul\":1717:1776   */\n  swap1\n  pop\n    /* \"#utility.yul\":1049:1782   */\n  swap3\n  swap6\n  swap2\n  swap5\n  pop\n  swap3\n  pop\n  jump\t// out\n    /* \"#utility.yul\":1787:2167   */\ntag_65:\n    /* \"#utility.yul\":1866:1867   */\n  0x01\n    /* \"#utility.yul\":1862:1874   */\n  dup2\n  dup2\n  shr\n  swap1\n    /* \"#utility.yul\":1909:1921   */\n  dup3\n  and\n  dup1\n    /* \"#utility.yul\":1930:1991   */\n  tag_89\n  jumpi\n    /* \"#utility.yul\":1984:1988   */\n  0x7f\n    /* \"#utility.yul\":1976:1982   */\n  dup3\n    /* \"#utility.yul\":1972:1989   */\n  and\n    /* \"#utility.yul\":1962:1989   */\n  swap2\n  pop\n    /* \"#utility.yul\":1930:1991   */\ntag_89:\n    /* \"#utility.yul\":2037:2039   */\n  0x20\n    /* \"#utility.yul\":2029:2035   */\n  dup3\n    /* \"#utility.yul\":2026:2040   */\n  lt\n    /* \"#utility.yul\":2006:2024   */\n  dup2\n    /* \"#utility.yul\":2003:2041   */\n  sub\n    /* \"#utility.yul\":2000:2161   */\n  tag_90\n  jumpi\n    /* \"#utility.yul\":2083:2093   */\n  0x4e487b71\n    /* \"#utility.yul\":2078:2081   */\n  0xe0\n    /* \"#utility.yul\":2074:2094   */\n  shl\n    /* \"#utility.yul\":2071:2072   */\n  0x00\n    /* \"#utility.yul\":2064:2095   */\n  mstore\n    /* \"#utility.yul\":2118:2122   */\n  0x22\n    /* \"#utility.yul\":2115:2116   */\n  0x04\n    /* \"#utility.yul\":2108:2123   */\n  mstore\n    /* \"#utility.yul\":2146:2150   */\n  0x24\n    /* \"#utility.yul\":2143:2144   */\n  0x00\n    /* \"#utility.yul\":2136:2151   */\n  revert\n    /* \"#utility.yul\":2000:2161   */\ntag_90:\n  pop\n    /* \"#utility.yul\":1787:2167   */\n  swap2\n  swap1\n  pop\n  jump\t// out\n    /* \"#utility.yul\":2298:2816   */\ntag_67:\n    /* \"#utility.yul\":2400:2402   */\n  0x1f\n    /* \"#utility.yul\":2395:2398   */\n  dup3\n    /* \"#utility.yul\":2392:2403   */\n  gt\n    /* \"#utility.yul\":2389:2810   */\n  iszero\n  tag_93\n  jumpi\n    /* \"#utility.yul\":2436:2441   */\n  dup1\n    /* \"#utility.yul\":2433:2434   */\n  0x00\n    /* \"#utility.yul\":2426:2442   */\n  mstore\n    /* \"#utility.yul\":2480:2484   */\n  0x20\n    /* \"#utility.yul\":2477:2478   */\n  0x00\n    /* \"#utility.yul\":2467:2485   */\n  keccak256\n    /* \"#utility.yul\":2550:2552   */\n  0x1f\n    /* \"#utility.yul\":2538:2548   */\n  dup5\n    /* \"#utility.yul\":2534:2553   */\n  add\n    /* \"#utility.yul\":2531:2532   */\n  0x05\n    /* \"#utility.yul\":2527:2554   */\n  shr\n    /* \"#utility.yul\":2521:2525   */\n  dup2\n    /* \"#utility.yul\":2517:2555   */\n  add\n    /* \"#utility.yul\":2586:2590   */\n  0x20\n    /* \"#utility.yul\":2574:2584   */\n  dup6\n    /* \"#utility.yul\":2571:2591   */\n  lt\n    /* \"#utility.yul\":2568:2615   */\n  iszero\n  tag_94\n  jumpi\n  pop\n    /* \"#utility.yul\":2609:2613   */\n  dup1\n    /* \"#utility.yul\":2568:2615   */\ntag_94:\n    /* \"#utility.yul\":2664:2666   */\n  0x1f\n    /* \"#utility.yul\":2659:2662   */\n  dup5\n    /* \"#utility.yul\":2655:2667   */\n  add\n    /* \"#utility.yul\":2652:2653   */\n  0x05\n    /* \"#utility.yul\":2648:2668   */\n  shr\n    /* \"#utility.yul\":2642:2646   */\n  dup3\n    /* \"#utility.yul\":2638:2669   */\n  add\n    /* \"#utility.yul\":2628:2669   */\n  swap2\n  pop\n    /* \"#utility.yul\":2719:2800   */\ntag_95:\n    /* \"#utility.yul\":2737:2739   */\n  dup2\n    /* \"#utility.yul\":2730:2735   */\n  dup2\n    /* \"#utility.yul\":2727:2740   */\n  lt\n    /* \"#utility.yul\":2719:2800   */\n  iszero\n  tag_97\n  jumpi\n    /* \"#utility.yul\":2796:2797   */\n  0x00\n    /* \"#utility.yul\":2782:2798   */\n  dup2\n  sstore\n    /* \"#utility.yul\":2763:2764   */\n  0x01\n    /* \"#utility.yul\":2752:2765   */\n  add\n    /* \"#utility.yul\":2719:2800   */\n  jump(tag_95)\ntag_97:\n    /* \"#utility.yul\":2723:2726   */\n  pop\n  pop\n    /* \"#utility.yul\":2389:2810   */\ntag_93:\n    /* \"#utility.yul\":2298:2816   */\n  pop\n  pop\n  pop\n  jump\t// out\n    /* \"#utility.yul\":2992:4337   */\ntag_11:\n    /* \"#utility.yul\":3112:3122   */\n  dup2\n  mload\n  sub(shl(0x40, 0x01), 0x01)\n    /* \"#utility.yul\":3134:3164   */\n  dup2\n  gt\n    /* \"#utility.yul\":3131:3187   */\n  iszero\n  tag_101\n  jumpi\n    /* \"#utility.yul\":3167:3185   */\n  tag_101\n  tag_62\n  jump\t// in\ntag_101:\n    /* \"#utility.yul\":3196:3293   */\n  tag_102\n    /* \"#utility.yul\":3286:3292   */\n  dup2\n    /* \"#utility.yul\":3246:3284   */\n  tag_103\n    /* \"#utility.yul\":3278:3282   */\n  dup5\n    /* \"#utility.yul\":3272:3283   */\n  sload\n    /* \"#utility.yul\":3246:3284   */\n  tag_65\n  jump\t// in\ntag_103:\n    /* \"#utility.yul\":3240:3244   */\n  dup5\n    /* \"#utility.yul\":3196:3293   */\n  tag_67\n  jump\t// in\ntag_102:\n    /* \"#utility.yul\":3348:3352   */\n  0x20\n  dup1\n    /* \"#utility.yul\":3405:3407   */\n  0x1f\n    /* \"#utility.yul\":3394:3408   */\n  dup4\n  gt\n    /* \"#utility.yul\":3422:3423   */\n  0x01\n    /* \"#utility.yul\":3417:4080   */\n  dup2\n  eq\n  tag_105\n  jumpi\n    /* \"#utility.yul\":4124:4125   */\n  0x00\n    /* \"#utility.yul\":4141:4147   */\n  dup5\n    /* \"#utility.yul\":4138:4227   */\n  iszero\n  tag_106\n  jumpi\n  pop\n    /* \"#utility.yul\":4193:4212   */\n  dup6\n  dup4\n  add\n    /* \"#utility.yul\":4187:4213   */\n  mload\n    /* \"#utility.yul\":4138:4227   */\ntag_106:\n  not(0x00)\n    /* \"#utility.yul\":2949:2950   */\n  0x03\n    /* \"#utility.yul\":2945:2956   */\n  dup7\n  swap1\n  shl\n    /* \"#utility.yul\":2941:2965   */\n  shr\n    /* \"#utility.yul\":2937:2966   */\n  not\n    /* \"#utility.yul\":2927:2967   */\n  and\n    /* \"#utility.yul\":2973:2974   */\n  0x01\n    /* \"#utility.yul\":2969:2980   */\n  dup6\n  swap1\n  shl\n    /* \"#utility.yul\":2924:2981   */\n  or\n    /* \"#utility.yul\":4240:4321   */\n  dup6\n  sstore\n    /* \"#utility.yul\":3387:4331   */\n  jump(tag_104)\n    /* \"#utility.yul\":3417:4080   */\ntag_105:\n    /* \"#utility.yul\":2245:2246   */\n  0x00\n    /* \"#utility.yul\":2238:2252   */\n  dup6\n  dup2\n  mstore\n    /* \"#utility.yul\":2282:2286   */\n  0x20\n    /* \"#utility.yul\":2269:2287   */\n  dup2\n  keccak256\n  not(0x1f)\n    /* \"#utility.yul\":3453:3473   */\n  dup7\n  and\n  swap2\n    /* \"#utility.yul\":3571:3807   */\ntag_109:\n    /* \"#utility.yul\":3585:3592   */\n  dup3\n    /* \"#utility.yul\":3582:3583   */\n  dup2\n    /* \"#utility.yul\":3579:3593   */\n  lt\n    /* \"#utility.yul\":3571:3807   */\n  iszero\n  tag_111\n  jumpi\n    /* \"#utility.yul\":3674:3693   */\n  dup9\n  dup7\n  add\n    /* \"#utility.yul\":3668:3694   */\n  mload\n    /* \"#utility.yul\":3653:3695   */\n  dup3\n  sstore\n    /* \"#utility.yul\":3766:3793   */\n  swap5\n  dup5\n  add\n  swap5\n    /* \"#utility.yul\":3734:3735   */\n  0x01\n    /* \"#utility.yul\":3722:3736   */\n  swap1\n  swap2\n  add\n  swap1\n    /* \"#utility.yul\":3601:3620   */\n  dup5\n  add\n    /* \"#utility.yul\":3571:3807   */\n  jump(tag_109)\ntag_111:\n    /* \"#utility.yul\":3575:3578   */\n  pop\n    /* \"#utility.yul\":3835:3841   */\n  dup6\n    /* \"#utility.yul\":3826:3833   */\n  dup3\n    /* \"#utility.yul\":3823:3842   */\n  lt\n    /* \"#utility.yul\":3820:4021   */\n  iszero\n  tag_112\n  jumpi\n    /* \"#utility.yul\":3896:3915   */\n  dup8\n  dup6\n  add\n    /* \"#utility.yul\":3890:3916   */\n  mload\n  not(0x00)\n    /* \"#utility.yul\":3979:3980   */\n  0x03\n    /* \"#utility.yul\":3975:3989   */\n  dup9\n  swap1\n  shl\n    /* \"#utility.yul\":3991:3994   */\n  0xf8\n    /* \"#utility.yul\":3971:3995   */\n  and\n    /* \"#utility.yul\":3967:4004   */\n  shr\n    /* \"#utility.yul\":3963:4005   */\n  not\n    /* \"#utility.yul\":3948:4006   */\n  and\n    /* \"#utility.yul\":3933:4007   */\n  dup2\n  sstore\n    /* \"#utility.yul\":3820:4021   */\ntag_112:\n  pop\n  pop\n    /* \"#utility.yul\":4067:4068   */\n  0x01\n    /* \"#utility.yul\":4058:4064   */\n  dup5\n    /* \"#utility.yul\":4055:4056   */\n  0x01\n    /* \"#utility.yul\":4051:4065   */\n  shl\n    /* \"#utility.yul\":4047:4069   */\n  add\n    /* \"#utility.yul\":4041:4045   */\n  dup6\n    /* \"#utility.yul\":4034:4070   */\n  sstore\n    /* \"#utility.yul\":3387:4331   */\ntag_104:\n  pop\n  pop\n  pop\n  pop\n    /* \"#utility.yul\":2992:4337   */\n  pop\n  pop\n  jump\t// out\n    /* \"#utility.yul\":4550:4881   */\ntag_47:\n    /* \"#utility.yul\":4655:4664   */\n  0x00\n    /* \"#utility.yul\":4666:4675   */\n  dup1\n    /* \"#utility.yul\":4708:4716   */\n  dup6\n    /* \"#utility.yul\":4696:4706   */\n  dup6\n    /* \"#utility.yul\":4693:4717   */\n  gt\n    /* \"#utility.yul\":4690:4734   */\n  iszero\n  tag_115\n  jumpi\n    /* \"#utility.yul\":4730:4731   */\n  0x00\n    /* \"#utility.yul\":4727:4728   */\n  dup1\n    /* \"#utility.yul\":4720:4732   */\n  revert\n    /* \"#utility.yul\":4690:4734   */\ntag_115:\n    /* \"#utility.yul\":4759:4765   */\n  dup4\n    /* \"#utility.yul\":4749:4757   */\n  dup7\n    /* \"#utility.yul\":4746:4766   */\n  gt\n    /* \"#utility.yul\":4743:4783   */\n  iszero\n  tag_116\n  jumpi\n    /* \"#utility.yul\":4779:4780   */\n  0x00\n    /* \"#utility.yul\":4776:4777   */\n  dup1\n    /* \"#utility.yul\":4769:4781   */\n  revert\n    /* \"#utility.yul\":4743:4783   */\ntag_116:\n  pop\n  pop\n    /* \"#utility.yul\":4805:4828   */\n  dup3\n  add\n  swap4\n    /* \"#utility.yul\":4850:4875   */\n  swap2\n  swap1\n  swap3\n  sub\n  swap2\n  pop\n    /* \"#utility.yul\":4550:4881   */\n  jump\t// out\n    /* \"#utility.yul\":4886:5215   */\ntag_49:\n  not(sub(shl(0x60, 0x01), 0x01))\n    /* \"#utility.yul\":5007:5026   */\n  dup2\n  calldataload\n    /* \"#utility.yul\":5086:5097   */\n  dup2\n  dup2\n  and\n  swap2\n    /* \"#utility.yul\":5117:5119   */\n  0x14\n    /* \"#utility.yul\":5109:5120   */\n  dup6\n  lt\n    /* \"#utility.yul\":5106:5209   */\n  iszero\n  tag_118\n  jumpi\n    /* \"#utility.yul\":5196:5198   */\n  dup1\n    /* \"#utility.yul\":5190:5192   */\n  dup2\n    /* \"#utility.yul\":5183:5186   */\n  dup7\n    /* \"#utility.yul\":5179:5181   */\n  0x14\n    /* \"#utility.yul\":5175:5187   */\n  sub\n    /* \"#utility.yul\":5172:5173   */\n  0x03\n    /* \"#utility.yul\":5168:5188   */\n  shl\n    /* \"#utility.yul\":5164:5193   */\n  shl\n    /* \"#utility.yul\":5160:5162   */\n  dup4\n    /* \"#utility.yul\":5156:5194   */\n  and\n    /* \"#utility.yul\":5152:5199   */\n  and\n    /* \"#utility.yul\":5143:5199   */\n  swap3\n  pop\n    /* \"#utility.yul\":5106:5209   */\ntag_118:\n  pop\n  pop\n    /* \"#utility.yul\":4886:5215   */\n  swap3\n  swap2\n  pop\n  pop\n  jump\t// out\ntag_69:\n    /* \"PandorasKey.sol\":575:7170  contract PandorasKey is ERC721, Ownable, AccessControl, ERC2771Context, ReentrancyGuard {... */\n  mload(0x80)\n  codecopy(0x00, dataOffset(sub_0), dataSize(sub_0))\n  0x00\n  assignImmutable(\"0x9c48eb4d6dc530eaebd0f3a44ad308cfb11d94508e17428616734d2b6609a4de\")\n  return(0x00, dataSize(sub_0))\nstop\n\nsub_0: assembly {\n        /* \"PandorasKey.sol\":575:7170  contract PandorasKey is ERC721, Ownable, AccessControl, ERC2771Context, ReentrancyGuard {... */\n      mstore(0x40, 0x80)\n      jumpi(tag_1, lt(calldatasize, 0x04))\n      shr(0xe0, calldataload(0x00))\n      dup1\n      0x715018a6\n      gt\n      tag_44\n      jumpi\n      dup1\n      0xa217fddf\n      gt\n      tag_45\n      jumpi\n      dup1\n      0xd5391393\n      gt\n      tag_46\n      jumpi\n      dup1\n      0xe985e9c5\n      gt\n      tag_47\n      jumpi\n      dup1\n      0xe985e9c5\n      eq\n      tag_41\n      jumpi\n      dup1\n      0xf2fde38b\n      eq\n      tag_42\n      jumpi\n      dup1\n      0xfa9f3f27\n      eq\n      tag_43\n      jumpi\n      0x00\n      dup1\n      revert\n    tag_47:\n      dup1\n      0xd5391393\n      eq\n      tag_38\n      jumpi\n      dup1\n      0xd547741f\n      eq\n      tag_39\n      jumpi\n      dup1\n      0xe268e4d3\n      eq\n      tag_40\n      jumpi\n      0x00\n      dup1\n      revert\n    tag_46:\n      dup1\n      0xb2118a8d\n      gt\n      tag_48\n      jumpi\n      dup1\n      0xb2118a8d\n      eq\n      tag_35\n      jumpi\n      dup1\n      0xb88d4fde\n      eq\n      tag_36\n      jumpi\n      dup1\n      0xc87b56dd\n      eq\n      tag_37\n      jumpi\n      0x00\n      dup1\n      revert\n    tag_48:\n      dup1\n      0xa217fddf\n      eq\n      tag_33\n      jumpi\n      dup1\n      0xa22cb465\n      eq\n      tag_34\n      jumpi\n      0x00\n      dup1\n      revert\n    tag_45:\n      dup1\n      0x91d14854\n      gt\n      tag_49\n      jumpi\n      dup1\n      0x9769dc0e\n      gt\n      tag_50\n      jumpi\n      dup1\n      0x9769dc0e\n      eq\n      tag_30\n      jumpi\n      dup1\n      0x9dc29fac\n      eq\n      tag_31\n      jumpi\n      dup1\n      0x9f03f664\n      eq\n      tag_32\n      jumpi\n      0x00\n      dup1\n      revert\n    tag_50:\n      dup1\n      0x91d14854\n      eq\n      tag_28\n      jumpi\n      dup1\n      0x95d89b41\n      eq\n      tag_29\n      jumpi\n      0x00\n      dup1\n      revert\n    tag_49:\n      dup1\n      0x7da0a877\n      gt\n      tag_51\n      jumpi\n      dup1\n      0x7da0a877\n      eq\n      tag_25\n      jumpi\n      dup1\n      0x8796a531\n      eq\n      tag_26\n      jumpi\n      dup1\n      0x8da5cb5b\n      eq\n      tag_27\n      jumpi\n      0x00\n      dup1\n      revert\n    tag_51:\n      dup1\n      0x715018a6\n      eq\n      tag_23\n      jumpi\n      dup1\n      0x75b238fc\n      eq\n      tag_24\n      jumpi\n      0x00\n      dup1\n      revert\n    tag_44:\n      dup1\n      0x33ea51a8\n      gt\n      tag_52\n      jumpi\n      dup1\n      0x572b6c05\n      gt\n      tag_53\n      jumpi\n      dup1\n      0x6352211e\n      gt\n      tag_54\n      jumpi\n      dup1\n      0x6352211e\n      eq\n      tag_20\n      jumpi\n      dup1\n      0x65a6aaeb\n      eq\n      tag_21\n      jumpi\n      dup1\n      0x70a08231\n      eq\n      tag_22\n      jumpi\n      0x00\n      dup1\n      revert\n    tag_54:\n      dup1\n      0x572b6c05\n      eq\n      tag_17\n      jumpi\n      dup1\n      0x578ffd36\n      eq\n      tag_18\n      jumpi\n      dup1\n      0x5b70ea9f\n      eq\n      tag_19\n      jumpi\n      0x00\n      dup1\n      revert\n    tag_53:\n      dup1\n      0x392604f8\n      gt\n      tag_55\n      jumpi\n      dup1\n      0x392604f8\n      eq\n      tag_14\n      jumpi\n      dup1\n      0x42842e0e\n      eq\n      tag_15\n      jumpi\n      dup1\n      0x453c2310\n      eq\n      tag_16\n      jumpi\n      0x00\n      dup1\n      revert\n    tag_55:\n      dup1\n      0x33ea51a8\n      eq\n      tag_12\n      jumpi\n      dup1\n      0x36568abe\n      eq\n      tag_13\n      jumpi\n      0x00\n      dup1\n      revert\n    tag_52:\n      dup1\n      0x099a04e5\n      gt\n      tag_56\n      jumpi\n      dup1\n      0x23b872dd\n      gt\n      tag_57\n      jumpi\n      dup1\n      0x23b872dd\n      eq\n      tag_9\n      jumpi\n      dup1\n      0x248a9ca3\n      eq\n      tag_10\n      jumpi\n      dup1\n      0x2f2ff15d\n      eq\n      tag_11\n      jumpi\n      0x00\n      dup1\n      revert\n    tag_57:\n      dup1\n      0x099a04e5\n      eq\n      tag_7\n      jumpi\n      dup1\n      0x12954dc2\n      eq\n      tag_8\n      jumpi\n      0x00\n      dup1\n      revert\n    tag_56:\n      dup1\n      0x06fdde03\n      gt\n      tag_58\n      jumpi\n      dup1\n      0x06fdde03\n      eq\n      tag_4\n      jumpi\n      dup1\n      0x081812fc\n      eq\n      tag_5\n      jumpi\n      dup1\n      0x095ea7b3\n      eq\n      tag_6\n      jumpi\n      0x00\n      dup1\n      revert\n    tag_58:\n      dup1\n      0x01ffc9a7\n      eq\n      tag_2\n      jumpi\n      dup1\n      0x06553e6c\n      eq\n      tag_3\n      jumpi\n    tag_1:\n      0x00\n      dup1\n      revert\n        /* \"PandorasKey.sol\":1960:2134  function supportsInterface(bytes4 interfaceId) public view virtual override(ERC721, AccessControl) returns (bool) {... */\n    tag_2:\n      callvalue\n      dup1\n      iszero\n      tag_59\n      jumpi\n      0x00\n      dup1\n      revert\n    tag_59:\n      pop\n      tag_60\n      tag_61\n      calldatasize\n      0x04\n      tag_62\n      jump\t// in\n    tag_61:\n      tag_63\n      jump\t// in\n    tag_60:\n      mload(0x40)\n        /* \"#utility.yul\":565:579   */\n      swap1\n      iszero\n        /* \"#utility.yul\":558:580   */\n      iszero\n        /* \"#utility.yul\":540:581   */\n      dup2\n      mstore\n        /* \"#utility.yul\":528:530   */\n      0x20\n        /* \"#utility.yul\":513:531   */\n      add\n        /* \"PandorasKey.sol\":1960:2134  function supportsInterface(bytes4 interfaceId) public view virtual override(ERC721, AccessControl) returns (bool) {... */\n    tag_64:\n      mload(0x40)\n      dup1\n      swap2\n      sub\n      swap1\n      return\n        /* \"PandorasKey.sol\":4000:4678  function depositERC20ToHolder(address holder, address token, uint256 amount) external nonReentrant {... */\n    tag_3:\n      callvalue\n      dup1\n      iszero\n      tag_66\n      jumpi\n      0x00\n      dup1\n      revert\n    tag_66:\n      pop\n      tag_67\n      tag_68\n      calldatasize\n      0x04\n      tag_69\n      jump\t// in\n    tag_68:\n      tag_70\n      jump\t// in\n    tag_67:\n      stop\n        /* \"@openzeppelin/contracts/token/ERC721/ERC721.sol\":2263:2352   */\n    tag_4:\n      callvalue\n      dup1\n      iszero\n      tag_71\n      jumpi\n      0x00\n      dup1\n      revert\n    tag_71:\n      pop\n      tag_72\n      tag_73\n      jump\t// in\n    tag_72:\n      mload(0x40)\n      tag_64\n      swap2\n      swap1\n      tag_75\n      jump\t// in\n        /* \"@openzeppelin/contracts/token/ERC721/ERC721.sol\":3299:3453   */\n    tag_5:\n      callvalue\n      dup1\n      iszero\n      tag_76\n      jumpi\n      0x00\n      dup1\n      revert\n    tag_76:\n      pop\n      tag_77\n      tag_78\n      calldatasize\n      0x04\n      tag_79\n      jump\t// in\n    tag_78:\n      tag_80\n      jump\t// in\n    tag_77:\n      mload(0x40)\n      sub(shl(0xa0, 0x01), 0x01)\n        /* \"#utility.yul\":2016:2071   */\n      swap1\n      swap2\n      and\n        /* \"#utility.yul\":1998:2072   */\n      dup2\n      mstore\n        /* \"#utility.yul\":1986:1988   */\n      0x20\n        /* \"#utility.yul\":1971:1989   */\n      add\n        /* \"@openzeppelin/contracts/token/ERC721/ERC721.sol\":3299:3453   */\n      tag_64\n        /* \"#utility.yul\":1852:2078   */\n      jump\n        /* \"@openzeppelin/contracts/token/ERC721/ERC721.sol\":3152:3265   */\n    tag_6:\n      callvalue\n      dup1\n      iszero\n      tag_83\n      jumpi\n      0x00\n      dup1\n      revert\n    tag_83:\n      pop\n      tag_67\n      tag_85\n      calldatasize\n      0x04\n      tag_86\n      jump\t// in\n    tag_85:\n      tag_87\n      jump\t// in\n        /* \"PandorasKey.sol\":6103:6471  function rescueETH(address to, uint256 amount) external onlyOwner {... */\n    tag_7:\n      callvalue\n      dup1\n      iszero\n      tag_88\n      jumpi\n      0x00\n      dup1\n      revert\n    tag_88:\n      pop\n      tag_67\n      tag_90\n      calldatasize\n      0x04\n      tag_86\n      jump\t// in\n    tag_90:\n      tag_91\n      jump\t// in\n        /* \"PandorasKey.sol\":4684:5244  function withdrawHolderETH() external nonReentrant {... */\n    tag_8:\n      callvalue\n      dup1\n      iszero\n      tag_92\n      jumpi\n      0x00\n      dup1\n      revert\n    tag_92:\n      pop\n      tag_67\n      tag_94\n      jump\t// in\n        /* \"@openzeppelin/contracts/token/ERC721/ERC721.sol\":3852:4430   */\n    tag_9:\n      callvalue\n      dup1\n      iszero\n      tag_95\n      jumpi\n      0x00\n      dup1\n      revert\n    tag_95:\n      pop\n      tag_67\n      tag_97\n      calldatasize\n      0x04\n      tag_69\n      jump\t// in\n    tag_97:\n      tag_98\n      jump\t// in\n        /* \"@openzeppelin/contracts/access/AccessControl.sol\":3786:3906   */\n    tag_10:\n      callvalue\n      dup1\n      iszero\n      tag_99\n      jumpi\n      0x00\n      dup1\n      revert\n    tag_99:\n      pop\n      tag_100\n      tag_101\n      calldatasize\n      0x04\n      tag_79\n      jump\t// in\n    tag_101:\n        /* \"@openzeppelin/contracts/access/AccessControl.sol\":3851:3858   */\n      0x00\n        /* \"@openzeppelin/contracts/access/AccessControl.sol\":3877:3889   */\n      swap1\n      dup2\n      mstore\n        /* \"@openzeppelin/contracts/access/AccessControl.sol\":3877:3883   */\n      0x07\n        /* \"@openzeppelin/contracts/access/AccessControl.sol\":3877:3889   */\n      0x20\n      mstore\n      0x40\n      swap1\n      keccak256\n        /* \"@openzeppelin/contracts/access/AccessControl.sol\":3877:3899   */\n      0x01\n      add\n      sload\n      swap1\n        /* \"@openzeppelin/contracts/access/AccessControl.sol\":3786:3906   */\n      jump\n    tag_100:\n      mload(0x40)\n        /* \"#utility.yul\":2673:2698   */\n      swap1\n      dup2\n      mstore\n        /* \"#utility.yul\":2661:2663   */\n      0x20\n        /* \"#utility.yul\":2646:2664   */\n      add\n        /* \"@openzeppelin/contracts/access/AccessControl.sol\":3786:3906   */\n      tag_64\n        /* \"#utility.yul\":2527:2704   */\n      jump\n        /* \"@openzeppelin/contracts/access/AccessControl.sol\":4202:4338   */\n    tag_11:\n      callvalue\n      dup1\n      iszero\n      tag_106\n      jumpi\n      0x00\n      dup1\n      revert\n    tag_106:\n      pop\n      tag_67\n      tag_108\n      calldatasize\n      0x04\n      tag_109\n      jump\t// in\n    tag_108:\n      tag_110\n      jump\t// in\n        /* \"PandorasKey.sol\":5786:6097  function setPayoutAddress(address _payoutAddress) external {... */\n    tag_12:\n      callvalue\n      dup1\n      iszero\n      tag_111\n      jumpi\n      0x00\n      dup1\n      revert\n    tag_111:\n      pop\n      tag_67\n      tag_113\n      calldatasize\n      0x04\n      tag_114\n      jump\t// in\n    tag_113:\n      tag_115\n      jump\t// in\n        /* \"@openzeppelin/contracts/access/AccessControl.sol\":5304:5549   */\n    tag_13:\n      callvalue\n      dup1\n      iszero\n      tag_116\n      jumpi\n      0x00\n      dup1\n      revert\n    tag_116:\n      pop\n      tag_67\n      tag_118\n      calldatasize\n      0x04\n      tag_109\n      jump\t// in\n    tag_118:\n      tag_119\n      jump\t// in\n        /* \"PandorasKey.sol\":5250:5780  function withdrawHolderERC20(address token) external nonReentrant {... */\n    tag_14:\n      callvalue\n      dup1\n      iszero\n      tag_120\n      jumpi\n      0x00\n      dup1\n      revert\n    tag_120:\n      pop\n      tag_67\n      tag_122\n      calldatasize\n      0x04\n      tag_114\n      jump\t// in\n    tag_122:\n      tag_123\n      jump\t// in\n        /* \"@openzeppelin/contracts/token/ERC721/ERC721.sol\":4464:4596   */\n    tag_15:\n      callvalue\n      dup1\n      iszero\n      tag_124\n      jumpi\n      0x00\n      dup1\n      revert\n    tag_124:\n      pop\n      tag_67\n      tag_126\n      calldatasize\n      0x04\n      tag_69\n      jump\t// in\n    tag_126:\n      tag_127\n      jump\t// in\n        /* \"PandorasKey.sol\":804:831  uint256 public maxPerWallet */\n    tag_16:\n      callvalue\n      dup1\n      iszero\n      tag_128\n      jumpi\n      0x00\n      dup1\n      revert\n    tag_128:\n      pop\n      tag_100\n      sload(0x09)\n      dup2\n      jump\n        /* \"@openzeppelin/contracts/metatx/ERC2771Context.sol\":1832:1969   */\n    tag_17:\n      callvalue\n      dup1\n      iszero\n      tag_133\n      jumpi\n      0x00\n      dup1\n      revert\n    tag_133:\n      pop\n      tag_60\n      tag_135\n      calldatasize\n      0x04\n      tag_114\n      jump\t// in\n    tag_135:\n        /* \"@openzeppelin/contracts/metatx/ERC2771Context.sol\":1707:1724   */\n      immutable(\"0x9c48eb4d6dc530eaebd0f3a44ad308cfb11d94508e17428616734d2b6609a4de\")\n      sub(shl(0xa0, 0x01), 0x01)\n        /* \"@openzeppelin/contracts/metatx/ERC2771Context.sol\":1931:1962   */\n      swap1\n      dup2\n      and\n      swap2\n      and\n      eq\n      swap1\n        /* \"@openzeppelin/contracts/metatx/ERC2771Context.sol\":1832:1969   */\n      jump\n        /* \"PandorasKey.sol\":934:988  mapping(address => uint256) public ethDepositsOfHolder */\n    tag_18:\n      callvalue\n      dup1\n      iszero\n      tag_138\n      jumpi\n      0x00\n      dup1\n      revert\n    tag_138:\n      pop\n      tag_100\n      tag_140\n      calldatasize\n      0x04\n      tag_114\n      jump\t// in\n    tag_140:\n      mstore(0x20, 0x0c)\n      0x00\n      swap1\n      dup2\n      mstore\n      0x40\n      swap1\n      keccak256\n      sload\n      dup2\n      jump\n        /* \"PandorasKey.sol\":3092:3345  function freeMint() external nonReentrant {... */\n    tag_19:\n      callvalue\n      dup1\n      iszero\n      tag_143\n      jumpi\n      0x00\n      dup1\n      revert\n    tag_143:\n      pop\n      tag_67\n      tag_145\n      jump\t// in\n        /* \"@openzeppelin/contracts/token/ERC721/ERC721.sol\":2103:2221   */\n    tag_20:\n      callvalue\n      dup1\n      iszero\n      tag_146\n      jumpi\n      0x00\n      dup1\n      revert\n    tag_146:\n      pop\n      tag_77\n      tag_148\n      calldatasize\n      0x04\n      tag_79\n      jump\t// in\n    tag_148:\n      tag_149\n      jump\t// in\n        /* \"PandorasKey.sol\":994:1070  mapping(address => mapping(address => uint256)) public erc20DepositsOfHolder */\n    tag_21:\n      callvalue\n      dup1\n      iszero\n      tag_151\n      jumpi\n      0x00\n      dup1\n      revert\n    tag_151:\n      pop\n      tag_100\n      tag_153\n      calldatasize\n      0x04\n      tag_154\n      jump\t// in\n    tag_153:\n      0x0d\n      0x20\n      swap1\n      dup2\n      mstore\n      0x00\n      swap3\n      dup4\n      mstore\n      0x40\n      dup1\n      dup5\n      keccak256\n      swap1\n      swap2\n      mstore\n      swap1\n      dup3\n      mstore\n      swap1\n      keccak256\n      sload\n      dup2\n      jump\n        /* \"@openzeppelin/contracts/token/ERC721/ERC721.sol\":1861:2069   */\n    tag_22:\n      callvalue\n      dup1\n      iszero\n      tag_157\n      jumpi\n      0x00\n      dup1\n      revert\n    tag_157:\n      pop\n      tag_100\n      tag_159\n      calldatasize\n      0x04\n      tag_114\n      jump\t// in\n    tag_159:\n      tag_160\n      jump\t// in\n        /* \"@openzeppelin/contracts/access/Ownable.sol\":2293:2394   */\n    tag_23:\n      callvalue\n      dup1\n      iszero\n      tag_162\n      jumpi\n      0x00\n      dup1\n      revert\n    tag_162:\n      pop\n      tag_67\n      tag_164\n      jump\t// in\n        /* \"PandorasKey.sol\":737:797  bytes32 public constant ADMIN_ROLE = keccak256(\"ADMIN_ROLE\") */\n    tag_24:\n      callvalue\n      dup1\n      iszero\n      tag_165\n      jumpi\n      0x00\n      dup1\n      revert\n    tag_165:\n      pop\n      tag_100\n        /* \"PandorasKey.sol\":774:797  keccak256(\"ADMIN_ROLE\") */\n      0xa49807205ce4d355092ef5a8a18f56e8913cf4a201fbe287825b095693c21775\n        /* \"PandorasKey.sol\":737:797  bytes32 public constant ADMIN_ROLE = keccak256(\"ADMIN_ROLE\") */\n      dup2\n      jump\n        /* \"@openzeppelin/contracts/metatx/ERC2771Context.sol\":1624:1731   */\n    tag_25:\n      callvalue\n      dup1\n      iszero\n      tag_169\n      jumpi\n      0x00\n      dup1\n      revert\n    tag_169:\n      pop\n        /* \"@openzeppelin/contracts/metatx/ERC2771Context.sol\":1707:1724   */\n      immutable(\"0x9c48eb4d6dc530eaebd0f3a44ad308cfb11d94508e17428616734d2b6609a4de\")\n        /* \"@openzeppelin/contracts/metatx/ERC2771Context.sol\":1624:1731   */\n      jump(tag_77)\n        /* \"PandorasKey.sol\":872:928  mapping(address => address) public payoutAddressOfHolder */\n    tag_26:\n      callvalue\n      dup1\n      iszero\n      tag_173\n      jumpi\n      0x00\n      dup1\n      revert\n    tag_173:\n      pop\n      tag_77\n      tag_175\n      calldatasize\n      0x04\n      tag_114\n      jump\t// in\n    tag_175:\n      mstore(0x20, 0x0b)\n      0x00\n      swap1\n      dup2\n      mstore\n      0x40\n      swap1\n      keccak256\n      sload\n      sub(shl(0xa0, 0x01), 0x01)\n      and\n      dup2\n      jump\n        /* \"@openzeppelin/contracts/access/Ownable.sol\":1638:1723   */\n    tag_27:\n      callvalue\n      dup1\n      iszero\n      tag_178\n      jumpi\n      0x00\n      dup1\n      revert\n    tag_178:\n      pop\n        /* \"@openzeppelin/contracts/access/Ownable.sol\":1710:1716   */\n      and(sub(shl(0xa0, 0x01), 0x01), sload(0x06))\n        /* \"@openzeppelin/contracts/access/Ownable.sol\":1638:1723   */\n      jump(tag_77)\n        /* \"@openzeppelin/contracts/access/AccessControl.sol\":2830:2966   */\n    tag_28:\n      callvalue\n      dup1\n      iszero\n      tag_182\n      jumpi\n      0x00\n      dup1\n      revert\n    tag_182:\n      pop\n      tag_60\n      tag_184\n      calldatasize\n      0x04\n      tag_109\n      jump\t// in\n    tag_184:\n        /* \"@openzeppelin/contracts/access/AccessControl.sol\":2907:2911   */\n      0x00\n        /* \"@openzeppelin/contracts/access/AccessControl.sol\":2930:2942   */\n      swap2\n      dup3\n      mstore\n        /* \"@openzeppelin/contracts/access/AccessControl.sol\":2930:2936   */\n      0x07\n        /* \"@openzeppelin/contracts/access/AccessControl.sol\":2930:2942   */\n      0x20\n      swap1\n      dup2\n      mstore\n      0x40\n      dup1\n      dup5\n      keccak256\n      sub(shl(0xa0, 0x01), 0x01)\n        /* \"@openzeppelin/contracts/access/AccessControl.sol\":2930:2959   */\n      swap4\n      swap1\n      swap4\n      and\n      dup5\n      mstore\n      swap2\n      swap1\n      mstore\n      swap1\n      keccak256\n      sload\n      0xff\n      and\n      swap1\n        /* \"@openzeppelin/contracts/access/AccessControl.sol\":2830:2966   */\n      jump\n        /* \"@openzeppelin/contracts/token/ERC721/ERC721.sol\":2394:2487   */\n    tag_29:\n      callvalue\n      dup1\n      iszero\n      tag_187\n      jumpi\n      0x00\n      dup1\n      revert\n    tag_187:\n      pop\n      tag_72\n      tag_189\n      jump\t// in\n        /* \"PandorasKey.sol\":3351:3594  function adminMint(address to) external nonReentrant onlyRole(ADMIN_ROLE) {... */\n    tag_30:\n      callvalue\n      dup1\n      iszero\n      tag_191\n      jumpi\n      0x00\n      dup1\n      revert\n    tag_191:\n      pop\n      tag_67\n      tag_193\n      calldatasize\n      0x04\n      tag_114\n      jump\t// in\n    tag_193:\n      tag_194\n      jump\t// in\n        /* \"PandorasKey.sol\":6972:7168  function burn(address owner, uint256 tokenId) external onlyRole(ADMIN_ROLE) {... */\n    tag_31:\n      callvalue\n      dup1\n      iszero\n      tag_195\n      jumpi\n      0x00\n      dup1\n      revert\n    tag_195:\n      pop\n      tag_67\n      tag_197\n      calldatasize\n      0x04\n      tag_86\n      jump\t// in\n    tag_197:\n      tag_198\n      jump\t// in\n        /* \"PandorasKey.sol\":3716:3994  function depositToHolder(address holder) external payable nonReentrant {... */\n    tag_32:\n      tag_67\n      tag_200\n      calldatasize\n      0x04\n      tag_114\n      jump\t// in\n    tag_200:\n      tag_201\n      jump\t// in\n        /* \"@openzeppelin/contracts/access/AccessControl.sol\":2196:2245   */\n    tag_33:\n      callvalue\n      dup1\n      iszero\n      tag_202\n      jumpi\n      0x00\n      dup1\n      revert\n    tag_202:\n      pop\n      tag_100\n        /* \"@openzeppelin/contracts/access/AccessControl.sol\":2241:2245   */\n      0x00\n        /* \"@openzeppelin/contracts/access/AccessControl.sol\":2196:2245   */\n      dup2\n      jump\n        /* \"@openzeppelin/contracts/token/ERC721/ERC721.sol\":3487:3631   */\n    tag_34:\n      callvalue\n      dup1\n      iszero\n      tag_206\n      jumpi\n      0x00\n      dup1\n      revert\n    tag_206:\n      pop\n      tag_67\n      tag_208\n      calldatasize\n      0x04\n      tag_209\n      jump\t// in\n    tag_208:\n      tag_210\n      jump\t// in\n        /* \"PandorasKey.sol\":6477:6833  function rescueERC20(address token, address to, uint256 amount) external onlyOwner {... */\n    tag_35:\n      callvalue\n      dup1\n      iszero\n      tag_211\n      jumpi\n      0x00\n      dup1\n      revert\n    tag_211:\n      pop\n      tag_67\n      tag_213\n      calldatasize\n      0x04\n      tag_69\n      jump\t// in\n    tag_213:\n      tag_214\n      jump\t// in\n        /* \"@openzeppelin/contracts/token/ERC721/ERC721.sol\":4630:4863   */\n    tag_36:\n      callvalue\n      dup1\n      iszero\n      tag_215\n      jumpi\n      0x00\n      dup1\n      revert\n    tag_215:\n      pop\n      tag_67\n      tag_217\n      calldatasize\n      0x04\n      tag_218\n      jump\t// in\n    tag_217:\n      tag_219\n      jump\t// in\n        /* \"@openzeppelin/contracts/token/ERC721/ERC721.sol\":2529:2784   */\n    tag_37:\n      callvalue\n      dup1\n      iszero\n      tag_220\n      jumpi\n      0x00\n      dup1\n      revert\n    tag_220:\n      pop\n      tag_72\n      tag_222\n      calldatasize\n      0x04\n      tag_79\n      jump\t// in\n    tag_222:\n      tag_223\n      jump\t// in\n        /* \"PandorasKey.sol\":669:731  bytes32 public constant MINTER_ROLE = keccak256(\"MINTER_ROLE\") */\n    tag_38:\n      callvalue\n      dup1\n      iszero\n      tag_225\n      jumpi\n      0x00\n      dup1\n      revert\n    tag_225:\n      pop\n      tag_100\n        /* \"PandorasKey.sol\":707:731  keccak256(\"MINTER_ROLE\") */\n      0x9f2df0fed2c77648de5860a4cc508cd0818c85b8b8a1ab4ceeef8d981c8956a6\n        /* \"PandorasKey.sol\":669:731  bytes32 public constant MINTER_ROLE = keccak256(\"MINTER_ROLE\") */\n      dup2\n      jump\n        /* \"@openzeppelin/contracts/access/AccessControl.sol\":4618:4756   */\n    tag_39:\n      callvalue\n      dup1\n      iszero\n      tag_229\n      jumpi\n      0x00\n      dup1\n      revert\n    tag_229:\n      pop\n      tag_67\n      tag_231\n      calldatasize\n      0x04\n      tag_109\n      jump\t// in\n    tag_231:\n      tag_232\n      jump\t// in\n        /* \"PandorasKey.sol\":6843:6966  function setMaxPerWallet(uint256 _maxPerWallet) external onlyRole(ADMIN_ROLE) {... */\n    tag_40:\n      callvalue\n      dup1\n      iszero\n      tag_233\n      jumpi\n      0x00\n      dup1\n      revert\n    tag_233:\n      pop\n      tag_67\n      tag_235\n      calldatasize\n      0x04\n      tag_79\n      jump\t// in\n    tag_235:\n      tag_236\n      jump\t// in\n        /* \"@openzeppelin/contracts/token/ERC721/ERC721.sol\":3665:3818   */\n    tag_41:\n      callvalue\n      dup1\n      iszero\n      tag_237\n      jumpi\n      0x00\n      dup1\n      revert\n    tag_237:\n      pop\n      tag_60\n      tag_239\n      calldatasize\n      0x04\n      tag_154\n      jump\t// in\n    tag_239:\n      sub(shl(0xa0, 0x01), 0x01)\n        /* \"@openzeppelin/contracts/token/ERC721/ERC721.sol\":3776:3801   */\n      swap2\n      dup3\n      and\n        /* \"@openzeppelin/contracts/token/ERC721/ERC721.sol\":3753:3757   */\n      0x00\n        /* \"@openzeppelin/contracts/token/ERC721/ERC721.sol\":3776:3801   */\n      swap1\n      dup2\n      mstore\n        /* \"@openzeppelin/contracts/token/ERC721/ERC721.sol\":3776:3794   */\n      0x05\n        /* \"@openzeppelin/contracts/token/ERC721/ERC721.sol\":3776:3801   */\n      0x20\n      swap1\n      dup2\n      mstore\n      0x40\n      dup1\n      dup4\n      keccak256\n        /* \"@openzeppelin/contracts/token/ERC721/ERC721.sol\":3776:3811   */\n      swap4\n      swap1\n      swap5\n      and\n      dup3\n      mstore\n      swap2\n      swap1\n      swap2\n      mstore\n      keccak256\n      sload\n      0xff\n      and\n      swap1\n        /* \"@openzeppelin/contracts/token/ERC721/ERC721.sol\":3665:3818   */\n      jump\n        /* \"@openzeppelin/contracts/access/Ownable.sol\":2543:2758   */\n    tag_42:\n      callvalue\n      dup1\n      iszero\n      tag_242\n      jumpi\n      0x00\n      dup1\n      revert\n    tag_242:\n      pop\n      tag_67\n      tag_244\n      calldatasize\n      0x04\n      tag_114\n      jump\t// in\n    tag_244:\n      tag_245\n      jump\t// in\n        /* \"PandorasKey.sol\":3600:3710  function isGateHolder(address _user) external view returns (bool) {... */\n    tag_43:\n      callvalue\n      dup1\n      iszero\n      tag_246\n      jumpi\n      0x00\n      dup1\n      revert\n    tag_246:\n      pop\n      tag_60\n      tag_248\n      calldatasize\n      0x04\n      tag_114\n      jump\t// in\n    tag_248:\n      tag_249\n      jump\t// in\n        /* \"PandorasKey.sol\":1960:2134  function supportsInterface(bytes4 interfaceId) public view virtual override(ERC721, AccessControl) returns (bool) {... */\n    tag_63:\n        /* \"PandorasKey.sol\":2068:2072  bool */\n      0x00\n        /* \"PandorasKey.sol\":2091:2127  super.supportsInterface(interfaceId) */\n      tag_252\n        /* \"PandorasKey.sol\":2115:2126  interfaceId */\n      dup3\n        /* \"PandorasKey.sol\":2091:2114  super.supportsInterface */\n      tag_253\n        /* \"PandorasKey.sol\":2091:2127  super.supportsInterface(interfaceId) */\n      jump\t// in\n    tag_252:\n        /* \"PandorasKey.sol\":2084:2127  return super.supportsInterface(interfaceId) */\n      swap3\n        /* \"PandorasKey.sol\":1960:2134  function supportsInterface(bytes4 interfaceId) public view virtual override(ERC721, AccessControl) returns (bool) {... */\n      swap2\n      pop\n      pop\n      jump\t// out\n        /* \"PandorasKey.sol\":4000:4678  function depositERC20ToHolder(address holder, address token, uint256 amount) external nonReentrant {... */\n    tag_70:\n        /* \"@openzeppelin/contracts/utils/ReentrancyGuard.sol\":2500:2521   */\n      tag_255\n        /* \"@openzeppelin/contracts/utils/ReentrancyGuard.sol\":2500:2519   */\n      tag_256\n        /* \"@openzeppelin/contracts/utils/ReentrancyGuard.sol\":2500:2521   */\n      jump\t// in\n    tag_255:\n        /* \"PandorasKey.sol\":4137:4138  0 */\n      0x00\n        /* \"PandorasKey.sol\":4117:4134  balanceOf(holder) */\n      tag_258\n        /* \"PandorasKey.sol\":4127:4133  holder */\n      dup5\n        /* \"PandorasKey.sol\":4117:4126  balanceOf */\n      tag_160\n        /* \"PandorasKey.sol\":4117:4134  balanceOf(holder) */\n      jump\t// in\n    tag_258:\n        /* \"PandorasKey.sol\":4117:4138  balanceOf(holder) > 0 */\n      gt\n        /* \"PandorasKey.sol\":4109:4186  require(balanceOf(holder) > 0, \"PandorasKey: Recipient is not a key holder.\") */\n      tag_259\n      jumpi\n      mload(0x40)\n      shl(0xe5, 0x461bcd)\n      dup2\n      mstore\n        /* \"#utility.yul\":5526:5528   */\n      0x20\n        /* \"PandorasKey.sol\":4109:4186  require(balanceOf(holder) > 0, \"PandorasKey: Recipient is not a key holder.\") */\n      0x04\n      dup3\n      add\n        /* \"#utility.yul\":5508:5529   */\n      mstore\n        /* \"#utility.yul\":5565:5567   */\n      0x2b\n        /* \"#utility.yul\":5545:5563   */\n      0x24\n      dup3\n      add\n        /* \"#utility.yul\":5538:5568   */\n      mstore\n        /* \"#utility.yul\":5604:5638   */\n      0x50616e646f7261734b65793a20526563697069656e74206973206e6f74206120\n        /* \"#utility.yul\":5584:5602   */\n      0x44\n      dup3\n      add\n        /* \"#utility.yul\":5577:5639   */\n      mstore\n      shl(0xa9, 0x35b2bc903437b63232b917)\n        /* \"#utility.yul\":5655:5673   */\n      0x64\n      dup3\n      add\n        /* \"#utility.yul\":5648:5689   */\n      mstore\n        /* \"#utility.yul\":5706:5725   */\n      0x84\n      add\n        /* \"PandorasKey.sol\":4109:4186  require(balanceOf(holder) > 0, \"PandorasKey: Recipient is not a key holder.\") */\n    tag_260:\n      mload(0x40)\n      dup1\n      swap2\n      sub\n      swap1\n      revert\n    tag_259:\n        /* \"PandorasKey.sol\":4213:4214  0 */\n      0x00\n        /* \"PandorasKey.sol\":4204:4210  amount */\n      dup2\n        /* \"PandorasKey.sol\":4204:4214  amount > 0 */\n      gt\n        /* \"PandorasKey.sol\":4196:4262  require(amount > 0, \"PandorasKey: Amount must be greater than 0.\") */\n      tag_262\n      jumpi\n      mload(0x40)\n      shl(0xe5, 0x461bcd)\n      dup2\n      mstore\n        /* \"#utility.yul\":5938:5940   */\n      0x20\n        /* \"PandorasKey.sol\":4196:4262  require(amount > 0, \"PandorasKey: Amount must be greater than 0.\") */\n      0x04\n      dup3\n      add\n        /* \"#utility.yul\":5920:5941   */\n      mstore\n        /* \"#utility.yul\":5977:5979   */\n      0x2b\n        /* \"#utility.yul\":5957:5975   */\n      0x24\n      dup3\n      add\n        /* \"#utility.yul\":5950:5980   */\n      mstore\n        /* \"#utility.yul\":6016:6050   */\n      0x50616e646f7261734b65793a20416d6f756e74206d7573742062652067726561\n        /* \"#utility.yul\":5996:6014   */\n      0x44\n      dup3\n      add\n        /* \"#utility.yul\":5989:6051   */\n      mstore\n        /* \"#utility.yul\":6087:6100   */\n      0x746572207468616e20302e000000000000000000000000000000000000000000\n        /* \"#utility.yul\":6067:6085   */\n      0x64\n      dup3\n      add\n        /* \"#utility.yul\":6060:6101   */\n      mstore\n        /* \"#utility.yul\":6118:6137   */\n      0x84\n      add\n        /* \"PandorasKey.sol\":4196:4262  require(amount > 0, \"PandorasKey: Amount must be greater than 0.\") */\n      tag_260\n        /* \"#utility.yul\":5736:6143   */\n      jump\n        /* \"PandorasKey.sol\":4196:4262  require(amount > 0, \"PandorasKey: Amount must be greater than 0.\") */\n    tag_262:\n        /* \"PandorasKey.sol\":4303:4308  token */\n      dup2\n        /* \"PandorasKey.sol\":4281:4293  IERC20 erc20 */\n      0x00\n      sub(shl(0xa0, 0x01), 0x01)\n        /* \"PandorasKey.sol\":4339:4354  erc20.allowance */\n      dup3\n      and\n      0xdd62ed3e\n        /* \"PandorasKey.sol\":4355:4367  _msgSender() */\n      tag_265\n        /* \"PandorasKey.sol\":4355:4365  _msgSender */\n      tag_266\n        /* \"PandorasKey.sol\":4355:4367  _msgSender() */\n      jump\t// in\n    tag_265:\n        /* \"PandorasKey.sol\":4339:4383  erc20.allowance(_msgSender(), address(this)) */\n      mload(0x40)\n      not(sub(shl(0xe0, 0x01), 0x01))\n      0xe0\n      dup5\n      swap1\n      shl\n      and\n      dup2\n      mstore\n      sub(shl(0xa0, 0x01), 0x01)\n        /* \"#utility.yul\":6401:6416   */\n      swap1\n      swap2\n      and\n        /* \"PandorasKey.sol\":4339:4383  erc20.allowance(_msgSender(), address(this)) */\n      0x04\n      dup3\n      add\n        /* \"#utility.yul\":6383:6417   */\n      mstore\n        /* \"PandorasKey.sol\":4377:4381  this */\n      address\n        /* \"#utility.yul\":6433:6451   */\n      0x24\n      dup3\n      add\n        /* \"#utility.yul\":6426:6469   */\n      mstore\n        /* \"#utility.yul\":6295:6313   */\n      0x44\n      add\n        /* \"PandorasKey.sol\":4339:4383  erc20.allowance(_msgSender(), address(this)) */\n      0x20\n      mload(0x40)\n      dup1\n      dup4\n      sub\n      dup2\n      dup7\n      gas\n      staticcall\n      iszero\n      dup1\n      iszero\n      tag_270\n      jumpi\n      returndatasize\n      0x00\n      dup1\n      returndatacopy\n      revert(0x00, returndatasize)\n    tag_270:\n      pop\n      pop\n      pop\n      pop\n      mload(0x40)\n      returndatasize\n      not(0x1f)\n      0x1f\n      dup3\n      add\n      and\n      dup3\n      add\n      dup1\n      0x40\n      mstore\n      pop\n      dup2\n      add\n      swap1\n      tag_271\n      swap2\n      swap1\n      tag_272\n      jump\t// in\n    tag_271:\n        /* \"PandorasKey.sol\":4319:4383  uint256 allowance = erc20.allowance(_msgSender(), address(this)) */\n      swap1\n      pop\n        /* \"PandorasKey.sol\":4414:4420  amount */\n      dup3\n        /* \"PandorasKey.sol\":4401:4410  allowance */\n      dup2\n        /* \"PandorasKey.sol\":4401:4420  allowance >= amount */\n      lt\n      iszero\n        /* \"PandorasKey.sol\":4393:4460  require(allowance >= amount, \"PandorasKey: Check token allowance.\") */\n      tag_273\n      jumpi\n      mload(0x40)\n      shl(0xe5, 0x461bcd)\n      dup2\n      mstore\n        /* \"#utility.yul\":6871:6873   */\n      0x20\n        /* \"PandorasKey.sol\":4393:4460  require(allowance >= amount, \"PandorasKey: Check token allowance.\") */\n      0x04\n      dup3\n      add\n        /* \"#utility.yul\":6853:6874   */\n      mstore\n        /* \"#utility.yul\":6910:6912   */\n      0x23\n        /* \"#utility.yul\":6890:6908   */\n      0x24\n      dup3\n      add\n        /* \"#utility.yul\":6883:6913   */\n      mstore\n        /* \"#utility.yul\":6949:6983   */\n      0x50616e646f7261734b65793a20436865636b20746f6b656e20616c6c6f77616e\n        /* \"#utility.yul\":6929:6947   */\n      0x44\n      dup3\n      add\n        /* \"#utility.yul\":6922:6984   */\n      mstore\n      shl(0xe9, 0x31b297)\n        /* \"#utility.yul\":7000:7018   */\n      0x64\n      dup3\n      add\n        /* \"#utility.yul\":6993:7026   */\n      mstore\n        /* \"#utility.yul\":7043:7062   */\n      0x84\n      add\n        /* \"PandorasKey.sol\":4393:4460  require(allowance >= amount, \"PandorasKey: Check token allowance.\") */\n      tag_260\n        /* \"#utility.yul\":6669:7068   */\n      jump\n        /* \"PandorasKey.sol\":4393:4460  require(allowance >= amount, \"PandorasKey: Check token allowance.\") */\n    tag_273:\n        /* \"PandorasKey.sol\":4479:4484  erc20 */\n      dup2\n      sub(shl(0xa0, 0x01), 0x01)\n        /* \"PandorasKey.sol\":4479:4497  erc20.transferFrom */\n      and\n      0x23b872dd\n        /* \"PandorasKey.sol\":4498:4510  _msgSender() */\n      tag_276\n        /* \"PandorasKey.sol\":4498:4508  _msgSender */\n      tag_266\n        /* \"PandorasKey.sol\":4498:4510  _msgSender() */\n      jump\t// in\n    tag_276:\n        /* \"PandorasKey.sol\":4479:4534  erc20.transferFrom(_msgSender(), address(this), amount) */\n      mload(0x40)\n      not(sub(shl(0xe0, 0x01), 0x01))\n      0xe0\n      dup5\n      swap1\n      shl\n      and\n      dup2\n      mstore\n      sub(shl(0xa0, 0x01), 0x01)\n        /* \"#utility.yul\":7354:7369   */\n      swap1\n      swap2\n      and\n        /* \"PandorasKey.sol\":4479:4534  erc20.transferFrom(_msgSender(), address(this), amount) */\n      0x04\n      dup3\n      add\n        /* \"#utility.yul\":7336:7370   */\n      mstore\n        /* \"PandorasKey.sol\":4520:4524  this */\n      address\n        /* \"#utility.yul\":7386:7404   */\n      0x24\n      dup3\n      add\n        /* \"#utility.yul\":7379:7422   */\n      mstore\n        /* \"#utility.yul\":7438:7456   */\n      0x44\n      dup2\n      add\n        /* \"#utility.yul\":7431:7465   */\n      dup7\n      swap1\n      mstore\n        /* \"#utility.yul\":7248:7266   */\n      0x64\n      add\n        /* \"PandorasKey.sol\":4479:4534  erc20.transferFrom(_msgSender(), address(this), amount) */\n      0x20\n      mload(0x40)\n      dup1\n      dup4\n      sub\n      dup2\n      0x00\n      dup8\n      gas\n      call\n      iszero\n      dup1\n      iszero\n      tag_280\n      jumpi\n      returndatasize\n      0x00\n      dup1\n      returndatacopy\n      revert(0x00, returndatasize)\n    tag_280:\n      pop\n      pop\n      pop\n      pop\n      mload(0x40)\n      returndatasize\n      not(0x1f)\n      0x1f\n      dup3\n      add\n      and\n      dup3\n      add\n      dup1\n      0x40\n      mstore\n      pop\n      dup2\n      add\n      swap1\n      tag_281\n      swap2\n      swap1\n      tag_282\n      jump\t// in\n    tag_281:\n      pop\n      sub(shl(0xa0, 0x01), 0x01)\n        /* \"PandorasKey.sol\":4544:4573  erc20DepositsOfHolder[holder] */\n      dup1\n      dup7\n      and\n      0x00\n      swap1\n      dup2\n      mstore\n        /* \"PandorasKey.sol\":4544:4565  erc20DepositsOfHolder */\n      0x0d\n        /* \"PandorasKey.sol\":4544:4573  erc20DepositsOfHolder[holder] */\n      0x20\n      swap1\n      dup2\n      mstore\n      0x40\n      dup1\n      dup4\n      keccak256\n        /* \"PandorasKey.sol\":4544:4580  erc20DepositsOfHolder[holder][token] */\n      swap4\n      dup9\n      and\n      dup4\n      mstore\n      swap3\n      swap1\n      mstore\n      swap1\n      dup2\n      keccak256\n        /* \"PandorasKey.sol\":4544:4590  erc20DepositsOfHolder[holder][token] += amount */\n      dup1\n      sload\n        /* \"PandorasKey.sol\":4584:4590  amount */\n      dup6\n      swap3\n        /* \"PandorasKey.sol\":4544:4573  erc20DepositsOfHolder[holder] */\n      swap1\n        /* \"PandorasKey.sol\":4544:4590  erc20DepositsOfHolder[holder][token] += amount */\n      tag_283\n      swap1\n        /* \"PandorasKey.sol\":4584:4590  amount */\n      dup5\n      swap1\n        /* \"PandorasKey.sol\":4544:4590  erc20DepositsOfHolder[holder][token] += amount */\n      tag_284\n      jump\t// in\n    tag_283:\n      swap1\n      swap2\n      sstore\n      pop\n      pop\n      sub(shl(0xa0, 0x01), 0x01)\n        /* \"PandorasKey.sol\":4614:4671  DepositERC20ToHolder(holder, _msgSender(), token, amount) */\n      dup5\n      and\n        /* \"PandorasKey.sol\":4643:4655  _msgSender() */\n      tag_285\n        /* \"PandorasKey.sol\":4643:4653  _msgSender */\n      tag_266\n        /* \"PandorasKey.sol\":4643:4655  _msgSender() */\n      jump\t// in\n    tag_285:\n      sub(shl(0xa0, 0x01), 0x01)\n        /* \"PandorasKey.sol\":4614:4671  DepositERC20ToHolder(holder, _msgSender(), token, amount) */\n      and\n        /* \"PandorasKey.sol\":4635:4641  holder */\n      dup7\n      sub(shl(0xa0, 0x01), 0x01)\n        /* \"PandorasKey.sol\":4614:4671  DepositERC20ToHolder(holder, _msgSender(), token, amount) */\n      and\n      0xa9684ad4c6c3f1c6b38cc344e4da2ac0834ce6b5775478b5c2bc37cc4265f20b\n        /* \"PandorasKey.sol\":4664:4670  amount */\n      dup7\n        /* \"PandorasKey.sol\":4614:4671  DepositERC20ToHolder(holder, _msgSender(), token, amount) */\n      mload(0x40)\n      tag_286\n      swap2\n        /* \"#utility.yul\":2673:2698   */\n      dup2\n      mstore\n        /* \"#utility.yul\":2661:2663   */\n      0x20\n        /* \"#utility.yul\":2646:2664   */\n      add\n      swap1\n        /* \"#utility.yul\":2527:2704   */\n      jump\n        /* \"PandorasKey.sol\":4614:4671  DepositERC20ToHolder(holder, _msgSender(), token, amount) */\n    tag_286:\n      mload(0x40)\n      dup1\n      swap2\n      sub\n      swap1\n      log4\n        /* \"PandorasKey.sol\":4099:4678  {... */\n      pop\n      pop\n        /* \"@openzeppelin/contracts/utils/ReentrancyGuard.sol\":2542:2562   */\n      tag_287\n        /* \"@openzeppelin/contracts/utils/ReentrancyGuard.sol\":1857:1858   */\n      0x01\n        /* \"@openzeppelin/contracts/utils/ReentrancyGuard.sol\":3068:3075   */\n      0x08\n        /* \"@openzeppelin/contracts/utils/ReentrancyGuard.sol\":3068:3089   */\n      sstore\n        /* \"@openzeppelin/contracts/utils/ReentrancyGuard.sol\":2888:3096   */\n      jump\n        /* \"@openzeppelin/contracts/utils/ReentrancyGuard.sol\":2542:2562   */\n    tag_287:\n        /* \"PandorasKey.sol\":4000:4678  function depositERC20ToHolder(address holder, address token, uint256 amount) external nonReentrant {... */\n      pop\n      pop\n      pop\n      jump\t// out\n        /* \"@openzeppelin/contracts/token/ERC721/ERC721.sol\":2263:2352   */\n    tag_73:\n        /* \"@openzeppelin/contracts/token/ERC721/ERC721.sol\":2308:2321   */\n      0x60\n        /* \"@openzeppelin/contracts/token/ERC721/ERC721.sol\":2340:2345   */\n      0x00\n        /* \"@openzeppelin/contracts/token/ERC721/ERC721.sol\":2333:2345   */\n      dup1\n      sload\n      tag_290\n      swap1\n      tag_291\n      jump\t// in\n    tag_290:\n      dup1\n      0x1f\n      add\n      0x20\n      dup1\n      swap2\n      div\n      mul\n      0x20\n      add\n      mload(0x40)\n      swap1\n      dup2\n      add\n      0x40\n      mstore\n      dup1\n      swap3\n      swap2\n      swap1\n      dup2\n      dup2\n      mstore\n      0x20\n      add\n      dup3\n      dup1\n      sload\n      tag_292\n      swap1\n      tag_291\n      jump\t// in\n    tag_292:\n      dup1\n      iszero\n      tag_293\n      jumpi\n      dup1\n      0x1f\n      lt\n      tag_294\n      jumpi\n      0x0100\n      dup1\n      dup4\n      sload\n      div\n      mul\n      dup4\n      mstore\n      swap2\n      0x20\n      add\n      swap2\n      jump(tag_293)\n    tag_294:\n      dup3\n      add\n      swap2\n      swap1\n      0x00\n      mstore\n      keccak256(0x00, 0x20)\n      swap1\n    tag_295:\n      dup2\n      sload\n      dup2\n      mstore\n      swap1\n      0x01\n      add\n      swap1\n      0x20\n      add\n      dup1\n      dup4\n      gt\n      tag_295\n      jumpi\n      dup3\n      swap1\n      sub\n      0x1f\n      and\n      dup3\n      add\n      swap2\n    tag_293:\n      pop\n      pop\n      pop\n      pop\n      pop\n      swap1\n      pop\n        /* \"@openzeppelin/contracts/token/ERC721/ERC721.sol\":2263:2352   */\n      swap1\n      jump\t// out\n        /* \"@openzeppelin/contracts/token/ERC721/ERC721.sol\":3299:3453   */\n    tag_80:\n        /* \"@openzeppelin/contracts/token/ERC721/ERC721.sol\":3366:3373   */\n      0x00\n        /* \"@openzeppelin/contracts/token/ERC721/ERC721.sol\":3385:3407   */\n      tag_297\n        /* \"@openzeppelin/contracts/token/ERC721/ERC721.sol\":3399:3406   */\n      dup3\n        /* \"@openzeppelin/contracts/token/ERC721/ERC721.sol\":3385:3398   */\n      tag_298\n        /* \"@openzeppelin/contracts/token/ERC721/ERC721.sol\":3385:3407   */\n      jump\t// in\n    tag_297:\n      pop\n        /* \"@openzeppelin/contracts/token/ERC721/ERC721.sol\":5679:5686   */\n      0x00\n        /* \"@openzeppelin/contracts/token/ERC721/ERC721.sol\":5705:5729   */\n      dup3\n      dup2\n      mstore\n        /* \"@openzeppelin/contracts/token/ERC721/ERC721.sol\":5705:5720   */\n      0x04\n        /* \"@openzeppelin/contracts/token/ERC721/ERC721.sol\":5705:5729   */\n      0x20\n      mstore\n      0x40\n      swap1\n      keccak256\n      sload\n      sub(shl(0xa0, 0x01), 0x01)\n      and\n        /* \"@openzeppelin/contracts/token/ERC721/ERC721.sol\":3425:3446   */\n      tag_252\n        /* \"@openzeppelin/contracts/token/ERC721/ERC721.sol\":5609:5736   */\n      jump\n        /* \"@openzeppelin/contracts/token/ERC721/ERC721.sol\":3152:3265   */\n    tag_87:\n        /* \"@openzeppelin/contracts/token/ERC721/ERC721.sol\":3223:3258   */\n      tag_302\n        /* \"@openzeppelin/contracts/token/ERC721/ERC721.sol\":3232:3234   */\n      dup3\n        /* \"@openzeppelin/contracts/token/ERC721/ERC721.sol\":3236:3243   */\n      dup3\n        /* \"@openzeppelin/contracts/token/ERC721/ERC721.sol\":3245:3257   */\n      tag_303\n        /* \"@openzeppelin/contracts/token/ERC721/ERC721.sol\":3245:3255   */\n      tag_266\n        /* \"@openzeppelin/contracts/token/ERC721/ERC721.sol\":3245:3257   */\n      jump\t// in\n    tag_303:\n        /* \"@openzeppelin/contracts/token/ERC721/ERC721.sol\":3223:3231   */\n      tag_304\n        /* \"@openzeppelin/contracts/token/ERC721/ERC721.sol\":3223:3258   */\n      jump\t// in\n    tag_302:\n        /* \"@openzeppelin/contracts/token/ERC721/ERC721.sol\":3152:3265   */\n      pop\n      pop\n      jump\t// out\n        /* \"PandorasKey.sol\":6103:6471  function rescueETH(address to, uint256 amount) external onlyOwner {... */\n    tag_91:\n        /* \"@openzeppelin/contracts/access/Ownable.sol\":1531:1544   */\n      tag_306\n        /* \"@openzeppelin/contracts/access/Ownable.sol\":1531:1542   */\n      tag_307\n        /* \"@openzeppelin/contracts/access/Ownable.sol\":1531:1544   */\n      jump\t// in\n    tag_306:\n      sub(shl(0xa0, 0x01), 0x01)\n        /* \"PandorasKey.sol\":6187:6203  to != address(0) */\n      dup3\n      and\n        /* \"PandorasKey.sol\":6179:6249  require(to != address(0), \"PandorasKey: Cannot send to zero address.\") */\n      tag_309\n      jumpi\n      mload(0x40)\n      shl(0xe5, 0x461bcd)\n      dup2\n      mstore\n        /* \"#utility.yul\":8575:8577   */\n      0x20\n        /* \"PandorasKey.sol\":6179:6249  require(to != address(0), \"PandorasKey: Cannot send to zero address.\") */\n      0x04\n      dup3\n      add\n        /* \"#utility.yul\":8557:8578   */\n      mstore\n        /* \"#utility.yul\":8614:8616   */\n      0x29\n        /* \"#utility.yul\":8594:8612   */\n      0x24\n      dup3\n      add\n        /* \"#utility.yul\":8587:8617   */\n      mstore\n        /* \"#utility.yul\":8653:8687   */\n      0x50616e646f7261734b65793a2043616e6e6f742073656e6420746f207a65726f\n        /* \"#utility.yul\":8633:8651   */\n      0x44\n      dup3\n      add\n        /* \"#utility.yul\":8626:8688   */\n      mstore\n      shl(0xb9, 0x1030b2323932b9b997)\n        /* \"#utility.yul\":8704:8722   */\n      0x64\n      dup3\n      add\n        /* \"#utility.yul\":8697:8736   */\n      mstore\n        /* \"#utility.yul\":8753:8772   */\n      0x84\n      add\n        /* \"PandorasKey.sol\":6179:6249  require(to != address(0), \"PandorasKey: Cannot send to zero address.\") */\n      tag_260\n        /* \"#utility.yul\":8373:8778   */\n      jump\n        /* \"PandorasKey.sol\":6179:6249  require(to != address(0), \"PandorasKey: Cannot send to zero address.\") */\n    tag_309:\n        /* \"PandorasKey.sol\":6292:6298  amount */\n      dup1\n        /* \"PandorasKey.sol\":6267:6288  address(this).balance */\n      selfbalance\n        /* \"PandorasKey.sol\":6267:6298  address(this).balance >= amount */\n      lt\n      iszero\n        /* \"PandorasKey.sol\":6259:6346  require(address(this).balance >= amount, \"PandorasKey: Insufficient contract balance.\") */\n      tag_312\n      jumpi\n      mload(0x40)\n      shl(0xe5, 0x461bcd)\n      dup2\n      mstore\n        /* \"#utility.yul\":8985:8987   */\n      0x20\n        /* \"PandorasKey.sol\":6259:6346  require(address(this).balance >= amount, \"PandorasKey: Insufficient contract balance.\") */\n      0x04\n      dup3\n      add\n        /* \"#utility.yul\":8967:8988   */\n      mstore\n        /* \"#utility.yul\":9024:9026   */\n      0x2b\n        /* \"#utility.yul\":9004:9022   */\n      0x24\n      dup3\n      add\n        /* \"#utility.yul\":8997:9027   */\n      mstore\n        /* \"#utility.yul\":9063:9097   */\n      0x50616e646f7261734b65793a20496e73756666696369656e7420636f6e747261\n        /* \"#utility.yul\":9043:9061   */\n      0x44\n      dup3\n      add\n        /* \"#utility.yul\":9036:9098   */\n      mstore\n        /* \"#utility.yul\":9134:9147   */\n      0x63742062616c616e63652e000000000000000000000000000000000000000000\n        /* \"#utility.yul\":9114:9132   */\n      0x64\n      dup3\n      add\n        /* \"#utility.yul\":9107:9148   */\n      mstore\n        /* \"#utility.yul\":9165:9184   */\n      0x84\n      add\n        /* \"PandorasKey.sol\":6259:6346  require(address(this).balance >= amount, \"PandorasKey: Insufficient contract balance.\") */\n      tag_260\n        /* \"#utility.yul\":8783:9190   */\n      jump\n        /* \"PandorasKey.sol\":6259:6346  require(address(this).balance >= amount, \"PandorasKey: Insufficient contract balance.\") */\n    tag_312:\n        /* \"PandorasKey.sol\":6357:6369  bool success */\n      0x00\n        /* \"PandorasKey.sol\":6375:6377  to */\n      dup3\n      sub(shl(0xa0, 0x01), 0x01)\n        /* \"PandorasKey.sol\":6375:6382  to.call */\n      and\n        /* \"PandorasKey.sol\":6390:6396  amount */\n      dup3\n        /* \"PandorasKey.sol\":6375:6401  to.call{value: amount}(\"\") */\n      mload(0x40)\n      0x00\n      mload(0x40)\n      dup1\n      dup4\n      sub\n      dup2\n      dup6\n      dup8\n      gas\n      call\n      swap3\n      pop\n      pop\n      pop\n      returndatasize\n      dup1\n      0x00\n      dup2\n      eq\n      tag_319\n      jumpi\n      mload(0x40)\n      swap2\n      pop\n      and(add(returndatasize, 0x3f), not(0x1f))\n      dup3\n      add\n      0x40\n      mstore\n      returndatasize\n      dup3\n      mstore\n      returndatasize\n      0x00\n      0x20\n      dup5\n      add\n      returndatacopy\n      jump(tag_318)\n    tag_319:\n      0x60\n      swap2\n      pop\n    tag_318:\n      pop\n        /* \"PandorasKey.sol\":6356:6401  (bool success, ) = to.call{value: amount}(\"\") */\n      pop\n      swap1\n      pop\n        /* \"PandorasKey.sol\":6419:6426  success */\n      dup1\n        /* \"PandorasKey.sol\":6411:6464  require(success, \"PandorasKey: ETH transfer failed.\") */\n      tag_287\n      jumpi\n      mload(0x40)\n      shl(0xe5, 0x461bcd)\n      dup2\n      mstore\n        /* \"#utility.yul\":9607:9609   */\n      0x20\n        /* \"PandorasKey.sol\":6411:6464  require(success, \"PandorasKey: ETH transfer failed.\") */\n      0x04\n      dup3\n      add\n        /* \"#utility.yul\":9589:9610   */\n      mstore\n        /* \"#utility.yul\":9646:9648   */\n      0x21\n        /* \"#utility.yul\":9626:9644   */\n      0x24\n      dup3\n      add\n        /* \"#utility.yul\":9619:9649   */\n      mstore\n        /* \"#utility.yul\":9685:9719   */\n      0x50616e646f7261734b65793a20455448207472616e73666572206661696c6564\n        /* \"#utility.yul\":9665:9683   */\n      0x44\n      dup3\n      add\n        /* \"#utility.yul\":9658:9720   */\n      mstore\n      shl(0xf9, 0x17)\n        /* \"#utility.yul\":9736:9754   */\n      0x64\n      dup3\n      add\n        /* \"#utility.yul\":9729:9760   */\n      mstore\n        /* \"#utility.yul\":9777:9796   */\n      0x84\n      add\n        /* \"PandorasKey.sol\":6411:6464  require(success, \"PandorasKey: ETH transfer failed.\") */\n      tag_260\n        /* \"#utility.yul\":9405:9802   */\n      jump\n        /* \"PandorasKey.sol\":4684:5244  function withdrawHolderETH() external nonReentrant {... */\n    tag_94:\n        /* \"@openzeppelin/contracts/utils/ReentrancyGuard.sol\":2500:2521   */\n      tag_324\n        /* \"@openzeppelin/contracts/utils/ReentrancyGuard.sol\":2500:2519   */\n      tag_256\n        /* \"@openzeppelin/contracts/utils/ReentrancyGuard.sol\":2500:2521   */\n      jump\t// in\n    tag_324:\n        /* \"PandorasKey.sol\":4745:4759  address holder */\n      0x00\n        /* \"PandorasKey.sol\":4762:4774  _msgSender() */\n      tag_326\n        /* \"PandorasKey.sol\":4762:4772  _msgSender */\n      tag_266\n        /* \"PandorasKey.sol\":4762:4774  _msgSender() */\n      jump\t// in\n    tag_326:\n      sub(shl(0xa0, 0x01), 0x01)\n        /* \"PandorasKey.sol\":4801:4828  ethDepositsOfHolder[holder] */\n      dup2\n      and\n        /* \"PandorasKey.sol\":4784:4798  uint256 amount */\n      0x00\n        /* \"PandorasKey.sol\":4801:4828  ethDepositsOfHolder[holder] */\n      swap1\n      dup2\n      mstore\n        /* \"PandorasKey.sol\":4801:4820  ethDepositsOfHolder */\n      0x0c\n        /* \"PandorasKey.sol\":4801:4828  ethDepositsOfHolder[holder] */\n      0x20\n      mstore\n      0x40\n      swap1\n      keccak256\n      sload\n        /* \"PandorasKey.sol\":4745:4774  address holder = _msgSender() */\n      swap1\n      swap2\n      pop\n        /* \"PandorasKey.sol\":4846:4856  amount > 0 */\n      dup1\n        /* \"PandorasKey.sol\":4838:4901  require(amount > 0, \"PandorasKey: No ETH balance to withdraw.\") */\n      tag_327\n      jumpi\n      mload(0x40)\n      shl(0xe5, 0x461bcd)\n      dup2\n      mstore\n        /* \"#utility.yul\":10009:10011   */\n      0x20\n        /* \"PandorasKey.sol\":4838:4901  require(amount > 0, \"PandorasKey: No ETH balance to withdraw.\") */\n      0x04\n      dup3\n      add\n        /* \"#utility.yul\":9991:10012   */\n      mstore\n        /* \"#utility.yul\":10048:10050   */\n      0x28\n        /* \"#utility.yul\":10028:10046   */\n      0x24\n      dup3\n      add\n        /* \"#utility.yul\":10021:10051   */\n      mstore\n        /* \"#utility.yul\":10087:10121   */\n      0x50616e646f7261734b65793a204e6f204554482062616c616e636520746f2077\n        /* \"#utility.yul\":10067:10085   */\n      0x44\n      dup3\n      add\n        /* \"#utility.yul\":10060:10122   */\n      mstore\n        /* \"#utility.yul\":10158:10168   */\n      0x697468647261772e000000000000000000000000000000000000000000000000\n        /* \"#utility.yul\":10138:10156   */\n      0x64\n      dup3\n      add\n        /* \"#utility.yul\":10131:10169   */\n      mstore\n        /* \"#utility.yul\":10186:10205   */\n      0x84\n      add\n        /* \"PandorasKey.sol\":4838:4901  require(amount > 0, \"PandorasKey: No ETH balance to withdraw.\") */\n      tag_260\n        /* \"#utility.yul\":9807:10211   */\n      jump\n        /* \"PandorasKey.sol\":4838:4901  require(amount > 0, \"PandorasKey: No ETH balance to withdraw.\") */\n    tag_327:\n      sub(shl(0xa0, 0x01), 0x01)\n        /* \"PandorasKey.sol\":4912:4939  ethDepositsOfHolder[holder] */\n      dup1\n      dup4\n      and\n        /* \"PandorasKey.sol\":4942:4943  0 */\n      0x00\n        /* \"PandorasKey.sol\":4912:4939  ethDepositsOfHolder[holder] */\n      swap1\n      dup2\n      mstore\n        /* \"PandorasKey.sol\":4912:4931  ethDepositsOfHolder */\n      0x0c\n        /* \"PandorasKey.sol\":4912:4939  ethDepositsOfHolder[holder] */\n      0x20\n      swap1\n      dup2\n      mstore\n      0x40\n      dup1\n      dup4\n      keccak256\n        /* \"PandorasKey.sol\":4912:4943  ethDepositsOfHolder[holder] = 0 */\n      dup4\n      swap1\n      sstore\n        /* \"PandorasKey.sol\":4974:4995  payoutAddressOfHolder */\n      0x0b\n        /* \"PandorasKey.sol\":4974:5003  payoutAddressOfHolder[holder] */\n      swap1\n      swap2\n      mstore\n      dup2\n      keccak256\n      sload\n        /* \"PandorasKey.sol\":4942:4943  0 */\n      swap1\n      swap2\n        /* \"PandorasKey.sol\":4974:5003  payoutAddressOfHolder[holder] */\n      and\n        /* \"PandorasKey.sol\":4974:5058  payoutAddressOfHolder[holder] != address(0) ? payoutAddressOfHolder[holder] : holder */\n      tag_330\n      jumpi\n        /* \"PandorasKey.sol\":5052:5058  holder */\n      dup3\n        /* \"PandorasKey.sol\":4974:5058  payoutAddressOfHolder[holder] != address(0) ? payoutAddressOfHolder[holder] : holder */\n      jump(tag_331)\n    tag_330:\n      sub(shl(0xa0, 0x01), 0x01)\n        /* \"PandorasKey.sol\":5020:5049  payoutAddressOfHolder[holder] */\n      dup1\n      dup5\n      and\n      0x00\n      swap1\n      dup2\n      mstore\n        /* \"PandorasKey.sol\":5020:5041  payoutAddressOfHolder */\n      0x0b\n        /* \"PandorasKey.sol\":5020:5049  payoutAddressOfHolder[holder] */\n      0x20\n      mstore\n      0x40\n      swap1\n      keccak256\n      sload\n      and\n        /* \"PandorasKey.sol\":4974:5058  payoutAddressOfHolder[holder] != address(0) ? payoutAddressOfHolder[holder] : holder */\n    tag_331:\n        /* \"PandorasKey.sol\":4954:5058  address recipient = payoutAddressOfHolder[holder] != address(0) ? payoutAddressOfHolder[holder] : holder */\n      swap1\n      pop\n        /* \"PandorasKey.sol\":5069:5081  bool success */\n      0x00\n        /* \"PandorasKey.sol\":5087:5096  recipient */\n      dup2\n      sub(shl(0xa0, 0x01), 0x01)\n        /* \"PandorasKey.sol\":5087:5101  recipient.call */\n      and\n        /* \"PandorasKey.sol\":5109:5115  amount */\n      dup4\n        /* \"PandorasKey.sol\":5087:5120  recipient.call{value: amount}(\"\") */\n      mload(0x40)\n      0x00\n      mload(0x40)\n      dup1\n      dup4\n      sub\n      dup2\n      dup6\n      dup8\n      gas\n      call\n      swap3\n      pop\n      pop\n      pop\n      returndatasize\n      dup1\n      0x00\n      dup2\n      eq\n      tag_335\n      jumpi\n      mload(0x40)\n      swap2\n      pop\n      and(add(returndatasize, 0x3f), not(0x1f))\n      dup3\n      add\n      0x40\n      mstore\n      returndatasize\n      dup3\n      mstore\n      returndatasize\n      0x00\n      0x20\n      dup5\n      add\n      returndatacopy\n      jump(tag_334)\n    tag_335:\n      0x60\n      swap2\n      pop\n    tag_334:\n      pop\n        /* \"PandorasKey.sol\":5068:5120  (bool success, ) = recipient.call{value: amount}(\"\") */\n      pop\n      swap1\n      pop\n        /* \"PandorasKey.sol\":5138:5145  success */\n      dup1\n        /* \"PandorasKey.sol\":5130:5183  require(success, \"PandorasKey: ETH transfer failed.\") */\n      tag_336\n      jumpi\n      mload(0x40)\n      shl(0xe5, 0x461bcd)\n      dup2\n      mstore\n        /* \"#utility.yul\":9607:9609   */\n      0x20\n        /* \"PandorasKey.sol\":5130:5183  require(success, \"PandorasKey: ETH transfer failed.\") */\n      0x04\n      dup3\n      add\n        /* \"#utility.yul\":9589:9610   */\n      mstore\n        /* \"#utility.yul\":9646:9648   */\n      0x21\n        /* \"#utility.yul\":9626:9644   */\n      0x24\n      dup3\n      add\n        /* \"#utility.yul\":9619:9649   */\n      mstore\n        /* \"#utility.yul\":9685:9719   */\n      0x50616e646f7261734b65793a20455448207472616e73666572206661696c6564\n        /* \"#utility.yul\":9665:9683   */\n      0x44\n      dup3\n      add\n        /* \"#utility.yul\":9658:9720   */\n      mstore\n      shl(0xf9, 0x17)\n        /* \"#utility.yul\":9736:9754   */\n      0x64\n      dup3\n      add\n        /* \"#utility.yul\":9729:9760   */\n      mstore\n        /* \"#utility.yul\":9777:9796   */\n      0x84\n      add\n        /* \"PandorasKey.sol\":5130:5183  require(success, \"PandorasKey: ETH transfer failed.\") */\n      tag_260\n        /* \"#utility.yul\":9405:9802   */\n      jump\n        /* \"PandorasKey.sol\":5130:5183  require(success, \"PandorasKey: ETH transfer failed.\") */\n    tag_336:\n        /* \"PandorasKey.sol\":5219:5228  recipient */\n      dup2\n      sub(shl(0xa0, 0x01), 0x01)\n        /* \"PandorasKey.sol\":5199:5237  WithdrawETH(holder, recipient, amount) */\n      and\n        /* \"PandorasKey.sol\":5211:5217  holder */\n      dup5\n      sub(shl(0xa0, 0x01), 0x01)\n        /* \"PandorasKey.sol\":5199:5237  WithdrawETH(holder, recipient, amount) */\n      and\n      0x6b1f4ce962fec27598edceab6195c77516c3df32025eaf0c38d0d4009ac3bd48\n        /* \"PandorasKey.sol\":5230:5236  amount */\n      dup6\n        /* \"PandorasKey.sol\":5199:5237  WithdrawETH(holder, recipient, amount) */\n      mload(0x40)\n      tag_338\n      swap2\n        /* \"#utility.yul\":2673:2698   */\n      dup2\n      mstore\n        /* \"#utility.yul\":2661:2663   */\n      0x20\n        /* \"#utility.yul\":2646:2664   */\n      add\n      swap1\n        /* \"#utility.yul\":2527:2704   */\n      jump\n        /* \"PandorasKey.sol\":5199:5237  WithdrawETH(holder, recipient, amount) */\n    tag_338:\n      mload(0x40)\n      dup1\n      swap2\n      sub\n      swap1\n      log3\n        /* \"PandorasKey.sol\":4735:5244  {... */\n      pop\n      pop\n      pop\n      pop\n        /* \"@openzeppelin/contracts/utils/ReentrancyGuard.sol\":2542:2562   */\n      tag_339\n        /* \"@openzeppelin/contracts/utils/ReentrancyGuard.sol\":1857:1858   */\n      0x01\n        /* \"@openzeppelin/contracts/utils/ReentrancyGuard.sol\":3068:3075   */\n      0x08\n        /* \"@openzeppelin/contracts/utils/ReentrancyGuard.sol\":3068:3089   */\n      sstore\n        /* \"@openzeppelin/contracts/utils/ReentrancyGuard.sol\":2888:3096   */\n      jump\n        /* \"@openzeppelin/contracts/utils/ReentrancyGuard.sol\":2542:2562   */\n    tag_339:\n        /* \"PandorasKey.sol\":4684:5244  function withdrawHolderETH() external nonReentrant {... */\n      jump\t// out\n        /* \"@openzeppelin/contracts/token/ERC721/ERC721.sol\":3852:4430   */\n    tag_98:\n      sub(shl(0xa0, 0x01), 0x01)\n        /* \"@openzeppelin/contracts/token/ERC721/ERC721.sol\":3946:3962   */\n      dup3\n      and\n        /* \"@openzeppelin/contracts/token/ERC721/ERC721.sol\":3942:4029   */\n      tag_341\n      jumpi\n        /* \"@openzeppelin/contracts/token/ERC721/ERC721.sol\":3985:4018   */\n      mload(0x40)\n      shl(0xe1, 0x32505749)\n      dup2\n      mstore\n        /* \"@openzeppelin/contracts/token/ERC721/ERC721.sol\":4015:4016   */\n      0x00\n        /* \"@openzeppelin/contracts/token/ERC721/ERC721.sol\":3985:4018   */\n      0x04\n      dup3\n      add\n        /* \"#utility.yul\":1998:2072   */\n      mstore\n        /* \"#utility.yul\":1971:1989   */\n      0x24\n      add\n        /* \"@openzeppelin/contracts/token/ERC721/ERC721.sol\":3985:4018   */\n      tag_260\n        /* \"#utility.yul\":1852:2078   */\n      jump\n        /* \"@openzeppelin/contracts/token/ERC721/ERC721.sol\":3942:4029   */\n    tag_341:\n        /* \"@openzeppelin/contracts/token/ERC721/ERC721.sol\":4247:4268   */\n      0x00\n        /* \"@openzeppelin/contracts/token/ERC721/ERC721.sol\":4271:4305   */\n      tag_343\n        /* \"@openzeppelin/contracts/token/ERC721/ERC721.sol\":4279:4281   */\n      dup4\n        /* \"@openzeppelin/contracts/token/ERC721/ERC721.sol\":4283:4290   */\n      dup4\n        /* \"@openzeppelin/contracts/token/ERC721/ERC721.sol\":4292:4304   */\n      tag_344\n        /* \"@openzeppelin/contracts/token/ERC721/ERC721.sol\":4292:4302   */\n      tag_266\n        /* \"@openzeppelin/contracts/token/ERC721/ERC721.sol\":4292:4304   */\n      jump\t// in\n    tag_344:\n        /* \"@openzeppelin/contracts/token/ERC721/ERC721.sol\":4271:4278   */\n      tag_345\n        /* \"@openzeppelin/contracts/token/ERC721/ERC721.sol\":4271:4305   */\n      jump\t// in\n    tag_343:\n        /* \"@openzeppelin/contracts/token/ERC721/ERC721.sol\":4247:4305   */\n      swap1\n      pop\n        /* \"@openzeppelin/contracts/token/ERC721/ERC721.sol\":4336:4340   */\n      dup4\n      sub(shl(0xa0, 0x01), 0x01)\n        /* \"@openzeppelin/contracts/token/ERC721/ERC721.sol\":4319:4340   */\n      and\n        /* \"@openzeppelin/contracts/token/ERC721/ERC721.sol\":4319:4332   */\n      dup2\n      sub(shl(0xa0, 0x01), 0x01)\n        /* \"@openzeppelin/contracts/token/ERC721/ERC721.sol\":4319:4340   */\n      and\n      eq\n        /* \"@openzeppelin/contracts/token/ERC721/ERC721.sol\":4315:4424   */\n      tag_346\n      jumpi\n        /* \"@openzeppelin/contracts/token/ERC721/ERC721.sol\":4363:4413   */\n      mload(0x40)\n      shl(0xe0, 0x64283d7b)\n      dup2\n      mstore\n      sub(shl(0xa0, 0x01), 0x01)\n        /* \"#utility.yul\":10497:10512   */\n      dup1\n      dup7\n      and\n        /* \"@openzeppelin/contracts/token/ERC721/ERC721.sol\":4363:4413   */\n      0x04\n      dup4\n      add\n        /* \"#utility.yul\":10479:10513   */\n      mstore\n        /* \"#utility.yul\":10529:10547   */\n      0x24\n      dup3\n      add\n        /* \"#utility.yul\":10522:10556   */\n      dup5\n      swap1\n      mstore\n        /* \"#utility.yul\":10592:10607   */\n      dup3\n      and\n        /* \"#utility.yul\":10572:10590   */\n      0x44\n      dup3\n      add\n        /* \"#utility.yul\":10565:10608   */\n      mstore\n        /* \"#utility.yul\":10391:10409   */\n      0x64\n      add\n        /* \"@openzeppelin/contracts/token/ERC721/ERC721.sol\":4363:4413   */\n      tag_260\n        /* \"#utility.yul\":10216:10614   */\n      jump\n        /* \"@openzeppelin/contracts/token/ERC721/ERC721.sol\":4315:4424   */\n    tag_346:\n        /* \"@openzeppelin/contracts/token/ERC721/ERC721.sol\":3932:4430   */\n      pop\n        /* \"@openzeppelin/contracts/token/ERC721/ERC721.sol\":3852:4430   */\n      pop\n      pop\n      pop\n      jump\t// out\n        /* \"@openzeppelin/contracts/access/AccessControl.sol\":4202:4338   */\n    tag_110:\n        /* \"@openzeppelin/contracts/access/AccessControl.sol\":3851:3858   */\n      0x00\n        /* \"@openzeppelin/contracts/access/AccessControl.sol\":3877:3889   */\n      dup3\n      dup2\n      mstore\n        /* \"@openzeppelin/contracts/access/AccessControl.sol\":3877:3883   */\n      0x07\n        /* \"@openzeppelin/contracts/access/AccessControl.sol\":3877:3889   */\n      0x20\n      mstore\n      0x40\n      swap1\n      keccak256\n        /* \"@openzeppelin/contracts/access/AccessControl.sol\":3877:3899   */\n      0x01\n      add\n      sload\n        /* \"@openzeppelin/contracts/access/AccessControl.sol\":2473:2489   */\n      tag_352\n        /* \"@openzeppelin/contracts/access/AccessControl.sol\":2484:2488   */\n      dup2\n        /* \"@openzeppelin/contracts/access/AccessControl.sol\":2473:2483   */\n      tag_353\n        /* \"@openzeppelin/contracts/access/AccessControl.sol\":2473:2489   */\n      jump\t// in\n    tag_352:\n        /* \"@openzeppelin/contracts/access/AccessControl.sol\":4306:4331   */\n      tag_346\n        /* \"@openzeppelin/contracts/access/AccessControl.sol\":4317:4321   */\n      dup4\n        /* \"@openzeppelin/contracts/access/AccessControl.sol\":4323:4330   */\n      dup4\n        /* \"@openzeppelin/contracts/access/AccessControl.sol\":4306:4316   */\n      tag_356\n        /* \"@openzeppelin/contracts/access/AccessControl.sol\":4306:4331   */\n      jump\t// in\n        /* \"PandorasKey.sol\":5786:6097  function setPayoutAddress(address _payoutAddress) external {... */\n    tag_115:\n        /* \"PandorasKey.sol\":5855:5869  address holder */\n      0x00\n        /* \"PandorasKey.sol\":5872:5884  _msgSender() */\n      tag_358\n        /* \"PandorasKey.sol\":5872:5882  _msgSender */\n      tag_266\n        /* \"PandorasKey.sol\":5872:5884  _msgSender() */\n      jump\t// in\n    tag_358:\n        /* \"PandorasKey.sol\":5855:5884  address holder = _msgSender() */\n      swap1\n      pop\n        /* \"PandorasKey.sol\":5922:5923  0 */\n      0x00\n        /* \"PandorasKey.sol\":5902:5919  balanceOf(holder) */\n      tag_359\n        /* \"PandorasKey.sol\":5912:5918  holder */\n      dup3\n        /* \"PandorasKey.sol\":5902:5911  balanceOf */\n      tag_160\n        /* \"PandorasKey.sol\":5902:5919  balanceOf(holder) */\n      jump\t// in\n    tag_359:\n        /* \"PandorasKey.sol\":5902:5923  balanceOf(holder) > 0 */\n      gt\n        /* \"PandorasKey.sol\":5894:5979  require(balanceOf(holder) > 0, \"PandorasKey: Only holders can set a payout address.\") */\n      tag_360\n      jumpi\n      mload(0x40)\n      shl(0xe5, 0x461bcd)\n      dup2\n      mstore\n        /* \"#utility.yul\":10821:10823   */\n      0x20\n        /* \"PandorasKey.sol\":5894:5979  require(balanceOf(holder) > 0, \"PandorasKey: Only holders can set a payout address.\") */\n      0x04\n      dup3\n      add\n        /* \"#utility.yul\":10803:10824   */\n      mstore\n        /* \"#utility.yul\":10860:10862   */\n      0x33\n        /* \"#utility.yul\":10840:10858   */\n      0x24\n      dup3\n      add\n        /* \"#utility.yul\":10833:10863   */\n      mstore\n        /* \"#utility.yul\":10899:10933   */\n      0x50616e646f7261734b65793a204f6e6c7920686f6c646572732063616e207365\n        /* \"#utility.yul\":10879:10897   */\n      0x44\n      dup3\n      add\n        /* \"#utility.yul\":10872:10934   */\n      mstore\n        /* \"#utility.yul\":10970:10991   */\n      0x742061207061796f757420616464726573732e00000000000000000000000000\n        /* \"#utility.yul\":10950:10968   */\n      0x64\n      dup3\n      add\n        /* \"#utility.yul\":10943:10992   */\n      mstore\n        /* \"#utility.yul\":11009:11028   */\n      0x84\n      add\n        /* \"PandorasKey.sol\":5894:5979  require(balanceOf(holder) > 0, \"PandorasKey: Only holders can set a payout address.\") */\n      tag_260\n        /* \"#utility.yul\":10619:11034   */\n      jump\n        /* \"PandorasKey.sol\":5894:5979  require(balanceOf(holder) > 0, \"PandorasKey: Only holders can set a payout address.\") */\n    tag_360:\n      sub(shl(0xa0, 0x01), 0x01)\n        /* \"PandorasKey.sol\":5989:6018  payoutAddressOfHolder[holder] */\n      dup2\n      dup2\n      and\n      0x00\n      dup2\n      dup2\n      mstore\n        /* \"PandorasKey.sol\":5989:6010  payoutAddressOfHolder */\n      0x0b\n        /* \"PandorasKey.sol\":5989:6018  payoutAddressOfHolder[holder] */\n      0x20\n      mstore\n      0x40\n      dup1\n      dup3\n      keccak256\n        /* \"PandorasKey.sol\":5989:6035  payoutAddressOfHolder[holder] = _payoutAddress */\n      dup1\n      sload\n      not(sub(shl(0xa0, 0x01), 0x01))\n      and\n      swap5\n      dup8\n      and\n      swap5\n      dup6\n      or\n      swap1\n      sstore\n        /* \"PandorasKey.sol\":6050:6090  PayoutAddressSet(holder, _payoutAddress) */\n      mload\n      0x86595dc4ed4838fd84eeed07a9f42ea9af43a730d94d90334e779b82264c0d7c\n      swap2\n        /* \"PandorasKey.sol\":5989:6018  payoutAddressOfHolder[holder] */\n      swap1\n        /* \"PandorasKey.sol\":6050:6090  PayoutAddressSet(holder, _payoutAddress) */\n      log3\n        /* \"PandorasKey.sol\":5845:6097  {... */\n      pop\n        /* \"PandorasKey.sol\":5786:6097  function setPayoutAddress(address _payoutAddress) external {... */\n      pop\n      jump\t// out\n        /* \"@openzeppelin/contracts/access/AccessControl.sol\":5304:5549   */\n    tag_119:\n        /* \"@openzeppelin/contracts/access/AccessControl.sol\":5419:5431   */\n      tag_364\n        /* \"@openzeppelin/contracts/access/AccessControl.sol\":5419:5429   */\n      tag_266\n        /* \"@openzeppelin/contracts/access/AccessControl.sol\":5419:5431   */\n      jump\t// in\n    tag_364:\n      sub(shl(0xa0, 0x01), 0x01)\n        /* \"@openzeppelin/contracts/access/AccessControl.sol\":5397:5431   */\n      and\n        /* \"@openzeppelin/contracts/access/AccessControl.sol\":5397:5415   */\n      dup2\n      sub(shl(0xa0, 0x01), 0x01)\n        /* \"@openzeppelin/contracts/access/AccessControl.sol\":5397:5431   */\n      and\n      eq\n        /* \"@openzeppelin/contracts/access/AccessControl.sol\":5393:5495   */\n      tag_365\n      jumpi\n        /* \"@openzeppelin/contracts/access/AccessControl.sol\":5454:5484   */\n      mload(0x40)\n      shl(0xe1, 0x334bd919)\n      dup2\n      mstore\n      0x04\n      add\n      mload(0x40)\n      dup1\n      swap2\n      sub\n      swap1\n      revert\n        /* \"@openzeppelin/contracts/access/AccessControl.sol\":5393:5495   */\n    tag_365:\n        /* \"@openzeppelin/contracts/access/AccessControl.sol\":5505:5542   */\n      tag_287\n        /* \"@openzeppelin/contracts/access/AccessControl.sol\":5517:5521   */\n      dup3\n        /* \"@openzeppelin/contracts/access/AccessControl.sol\":5523:5541   */\n      dup3\n        /* \"@openzeppelin/contracts/access/AccessControl.sol\":5505:5516   */\n      tag_367\n        /* \"@openzeppelin/contracts/access/AccessControl.sol\":5505:5542   */\n      jump\t// in\n        /* \"PandorasKey.sol\":5250:5780  function withdrawHolderERC20(address token) external nonReentrant {... */\n    tag_123:\n        /* \"@openzeppelin/contracts/utils/ReentrancyGuard.sol\":2500:2521   */\n      tag_369\n        /* \"@openzeppelin/contracts/utils/ReentrancyGuard.sol\":2500:2519   */\n      tag_256\n        /* \"@openzeppelin/contracts/utils/ReentrancyGuard.sol\":2500:2521   */\n      jump\t// in\n    tag_369:\n        /* \"PandorasKey.sol\":5326:5340  address holder */\n      0x00\n        /* \"PandorasKey.sol\":5343:5355  _msgSender() */\n      tag_371\n        /* \"PandorasKey.sol\":5343:5353  _msgSender */\n      tag_266\n        /* \"PandorasKey.sol\":5343:5355  _msgSender() */\n      jump\t// in\n    tag_371:\n      sub(shl(0xa0, 0x01), 0x01)\n        /* \"PandorasKey.sol\":5382:5411  erc20DepositsOfHolder[holder] */\n      dup1\n      dup3\n      and\n        /* \"PandorasKey.sol\":5365:5379  uint256 amount */\n      0x00\n        /* \"PandorasKey.sol\":5382:5411  erc20DepositsOfHolder[holder] */\n      swap1\n      dup2\n      mstore\n        /* \"PandorasKey.sol\":5382:5403  erc20DepositsOfHolder */\n      0x0d\n        /* \"PandorasKey.sol\":5382:5411  erc20DepositsOfHolder[holder] */\n      0x20\n      swap1\n      dup2\n      mstore\n      0x40\n      dup1\n      dup4\n      keccak256\n        /* \"PandorasKey.sol\":5382:5418  erc20DepositsOfHolder[holder][token] */\n      swap4\n      dup8\n      and\n      dup4\n      mstore\n      swap3\n      swap1\n      mstore\n      keccak256\n      sload\n        /* \"PandorasKey.sol\":5326:5355  address holder = _msgSender() */\n      swap1\n      swap2\n      pop\n        /* \"PandorasKey.sol\":5436:5446  amount > 0 */\n      dup1\n        /* \"PandorasKey.sol\":5428:5493  require(amount > 0, \"PandorasKey: No token balance to withdraw.\") */\n      tag_372\n      jumpi\n      mload(0x40)\n      shl(0xe5, 0x461bcd)\n      dup2\n      mstore\n        /* \"#utility.yul\":11241:11243   */\n      0x20\n        /* \"PandorasKey.sol\":5428:5493  require(amount > 0, \"PandorasKey: No token balance to withdraw.\") */\n      0x04\n      dup3\n      add\n        /* \"#utility.yul\":11223:11244   */\n      mstore\n        /* \"#utility.yul\":11280:11282   */\n      0x2a\n        /* \"#utility.yul\":11260:11278   */\n      0x24\n      dup3\n      add\n        /* \"#utility.yul\":11253:11283   */\n      mstore\n        /* \"#utility.yul\":11319:11353   */\n      0x50616e646f7261734b65793a204e6f20746f6b656e2062616c616e636520746f\n        /* \"#utility.yul\":11299:11317   */\n      0x44\n      dup3\n      add\n        /* \"#utility.yul\":11292:11354   */\n      mstore\n        /* \"#utility.yul\":11390:11402   */\n      0x2077697468647261772e00000000000000000000000000000000000000000000\n        /* \"#utility.yul\":11370:11388   */\n      0x64\n      dup3\n      add\n        /* \"#utility.yul\":11363:11403   */\n      mstore\n        /* \"#utility.yul\":11420:11439   */\n      0x84\n      add\n        /* \"PandorasKey.sol\":5428:5493  require(amount > 0, \"PandorasKey: No token balance to withdraw.\") */\n      tag_260\n        /* \"#utility.yul\":11039:11445   */\n      jump\n        /* \"PandorasKey.sol\":5428:5493  require(amount > 0, \"PandorasKey: No token balance to withdraw.\") */\n    tag_372:\n      sub(shl(0xa0, 0x01), 0x01)\n        /* \"PandorasKey.sol\":5504:5533  erc20DepositsOfHolder[holder] */\n      dup1\n      dup4\n      and\n        /* \"PandorasKey.sol\":5543:5544  0 */\n      0x00\n        /* \"PandorasKey.sol\":5504:5533  erc20DepositsOfHolder[holder] */\n      dup2\n      dup2\n      mstore\n        /* \"PandorasKey.sol\":5504:5525  erc20DepositsOfHolder */\n      0x0d\n        /* \"PandorasKey.sol\":5504:5533  erc20DepositsOfHolder[holder] */\n      0x20\n      swap1\n      dup2\n      mstore\n      0x40\n      dup1\n      dup4\n      keccak256\n        /* \"PandorasKey.sol\":5504:5540  erc20DepositsOfHolder[holder][token] */\n      dup9\n      dup7\n      and\n      dup5\n      mstore\n      dup3\n      mstore\n      dup1\n      dup4\n      keccak256\n        /* \"PandorasKey.sol\":5504:5544  erc20DepositsOfHolder[holder][token] = 0 */\n      dup4\n      swap1\n      sstore\n        /* \"PandorasKey.sol\":5575:5604  payoutAddressOfHolder[holder] */\n      swap3\n      dup3\n      mstore\n        /* \"PandorasKey.sol\":5575:5596  payoutAddressOfHolder */\n      0x0b\n        /* \"PandorasKey.sol\":5575:5604  payoutAddressOfHolder[holder] */\n      swap1\n      mstore\n      swap1\n      dup2\n      keccak256\n      sload\n        /* \"PandorasKey.sol\":5543:5544  0 */\n      swap1\n      swap2\n        /* \"PandorasKey.sol\":5575:5604  payoutAddressOfHolder[holder] */\n      and\n        /* \"PandorasKey.sol\":5575:5659  payoutAddressOfHolder[holder] != address(0) ? payoutAddressOfHolder[holder] : holder */\n      tag_375\n      jumpi\n        /* \"PandorasKey.sol\":5653:5659  holder */\n      dup3\n        /* \"PandorasKey.sol\":5575:5659  payoutAddressOfHolder[holder] != address(0) ? payoutAddressOfHolder[holder] : holder */\n      jump(tag_376)\n    tag_375:\n      sub(shl(0xa0, 0x01), 0x01)\n        /* \"PandorasKey.sol\":5621:5650  payoutAddressOfHolder[holder] */\n      dup1\n      dup5\n      and\n      0x00\n      swap1\n      dup2\n      mstore\n        /* \"PandorasKey.sol\":5621:5642  payoutAddressOfHolder */\n      0x0b\n        /* \"PandorasKey.sol\":5621:5650  payoutAddressOfHolder[holder] */\n      0x20\n      mstore\n      0x40\n      swap1\n      keccak256\n      sload\n      and\n        /* \"PandorasKey.sol\":5575:5659  payoutAddressOfHolder[holder] != address(0) ? payoutAddressOfHolder[holder] : holder */\n    tag_376:\n        /* \"PandorasKey.sol\":5669:5710  IERC20(token).transfer(recipient, amount) */\n      mload(0x40)\n      shl(0xe0, 0xa9059cbb)\n      dup2\n      mstore\n      sub(shl(0xa0, 0x01), 0x01)\n        /* \"#utility.yul\":11642:11697   */\n      dup1\n      dup4\n      and\n        /* \"PandorasKey.sol\":5669:5710  IERC20(token).transfer(recipient, amount) */\n      0x04\n      dup4\n      add\n        /* \"#utility.yul\":11624:11698   */\n      mstore\n        /* \"#utility.yul\":11714:11732   */\n      0x24\n      dup3\n      add\n        /* \"#utility.yul\":11707:11741   */\n      dup6\n      swap1\n      mstore\n        /* \"PandorasKey.sol\":5555:5659  address recipient = payoutAddressOfHolder[holder] != address(0) ? payoutAddressOfHolder[holder] : holder */\n      swap2\n      swap3\n      pop\n        /* \"PandorasKey.sol\":5669:5691  IERC20(token).transfer */\n      swap1\n      dup6\n      and\n      swap1\n      0xa9059cbb\n      swap1\n        /* \"#utility.yul\":11597:11615   */\n      0x44\n      add\n        /* \"PandorasKey.sol\":5669:5710  IERC20(token).transfer(recipient, amount) */\n      0x20\n      mload(0x40)\n      dup1\n      dup4\n      sub\n      dup2\n      0x00\n      dup8\n      gas\n      call\n      iszero\n      dup1\n      iszero\n      tag_380\n      jumpi\n      returndatasize\n      0x00\n      dup1\n      returndatacopy\n      revert(0x00, returndatasize)\n    tag_380:\n      pop\n      pop\n      pop\n      pop\n      mload(0x40)\n      returndatasize\n      not(0x1f)\n      0x1f\n      dup3\n      add\n      and\n      dup3\n      add\n      dup1\n      0x40\n      mstore\n      pop\n      dup2\n      add\n      swap1\n      tag_381\n      swap2\n      swap1\n      tag_282\n      jump\t// in\n    tag_381:\n      pop\n        /* \"PandorasKey.sol\":5759:5764  token */\n      dup4\n      sub(shl(0xa0, 0x01), 0x01)\n        /* \"PandorasKey.sol\":5726:5773  WithdrawERC20(holder, recipient, token, amount) */\n      and\n        /* \"PandorasKey.sol\":5748:5757  recipient */\n      dup2\n      sub(shl(0xa0, 0x01), 0x01)\n        /* \"PandorasKey.sol\":5726:5773  WithdrawERC20(holder, recipient, token, amount) */\n      and\n        /* \"PandorasKey.sol\":5740:5746  holder */\n      dup5\n      sub(shl(0xa0, 0x01), 0x01)\n        /* \"PandorasKey.sol\":5726:5773  WithdrawERC20(holder, recipient, token, amount) */\n      and\n      0x08c1fcaf583c2b413bb27833685230422583405ae651b6d53e2053bf75bd0740\n        /* \"PandorasKey.sol\":5766:5772  amount */\n      dup6\n        /* \"PandorasKey.sol\":5726:5773  WithdrawERC20(holder, recipient, token, amount) */\n      mload(0x40)\n      tag_382\n      swap2\n        /* \"#utility.yul\":2673:2698   */\n      dup2\n      mstore\n        /* \"#utility.yul\":2661:2663   */\n      0x20\n        /* \"#utility.yul\":2646:2664   */\n      add\n      swap1\n        /* \"#utility.yul\":2527:2704   */\n      jump\n        /* \"PandorasKey.sol\":5726:5773  WithdrawERC20(holder, recipient, token, amount) */\n    tag_382:\n      mload(0x40)\n      dup1\n      swap2\n      sub\n      swap1\n      log4\n        /* \"PandorasKey.sol\":5316:5780  {... */\n      pop\n      pop\n      pop\n        /* \"@openzeppelin/contracts/utils/ReentrancyGuard.sol\":2542:2562   */\n      tag_383\n        /* \"@openzeppelin/contracts/utils/ReentrancyGuard.sol\":1857:1858   */\n      0x01\n        /* \"@openzeppelin/contracts/utils/ReentrancyGuard.sol\":3068:3075   */\n      0x08\n        /* \"@openzeppelin/contracts/utils/ReentrancyGuard.sol\":3068:3089   */\n      sstore\n        /* \"@openzeppelin/contracts/utils/ReentrancyGuard.sol\":2888:3096   */\n      jump\n        /* \"@openzeppelin/contracts/utils/ReentrancyGuard.sol\":2542:2562   */\n    tag_383:\n        /* \"PandorasKey.sol\":5250:5780  function withdrawHolderERC20(address token) external nonReentrant {... */\n      pop\n      jump\t// out\n        /* \"@openzeppelin/contracts/token/ERC721/ERC721.sol\":4464:4596   */\n    tag_127:\n        /* \"@openzeppelin/contracts/token/ERC721/ERC721.sol\":4550:4589   */\n      tag_287\n        /* \"@openzeppelin/contracts/token/ERC721/ERC721.sol\":4567:4571   */\n      dup4\n        /* \"@openzeppelin/contracts/token/ERC721/ERC721.sol\":4573:4575   */\n      dup4\n        /* \"@openzeppelin/contracts/token/ERC721/ERC721.sol\":4577:4584   */\n      dup4\n        /* \"@openzeppelin/contracts/token/ERC721/ERC721.sol\":4550:4589   */\n      mload(0x40)\n      dup1\n      0x20\n      add\n      0x40\n      mstore\n      dup1\n      0x00\n      dup2\n      mstore\n      pop\n        /* \"@openzeppelin/contracts/token/ERC721/ERC721.sol\":4550:4566   */\n      tag_219\n        /* \"@openzeppelin/contracts/token/ERC721/ERC721.sol\":4550:4589   */\n      jump\t// in\n        /* \"PandorasKey.sol\":3092:3345  function freeMint() external nonReentrant {... */\n    tag_145:\n        /* \"@openzeppelin/contracts/utils/ReentrancyGuard.sol\":2500:2521   */\n      tag_389\n        /* \"@openzeppelin/contracts/utils/ReentrancyGuard.sol\":2500:2519   */\n      tag_256\n        /* \"@openzeppelin/contracts/utils/ReentrancyGuard.sol\":2500:2521   */\n      jump\t// in\n    tag_389:\n        /* \"PandorasKey.sol\":3144:3161  address recipient */\n      0x00\n        /* \"PandorasKey.sol\":3164:3176  _msgSender() */\n      tag_391\n        /* \"PandorasKey.sol\":3164:3174  _msgSender */\n      tag_266\n        /* \"PandorasKey.sol\":3164:3176  _msgSender() */\n      jump\t// in\n    tag_391:\n        /* \"PandorasKey.sol\":3144:3176  address recipient = _msgSender() */\n      swap1\n      pop\n        /* \"PandorasKey.sol\":3217:3229  maxPerWallet */\n      sload(0x09)\n        /* \"PandorasKey.sol\":3194:3214  balanceOf(recipient) */\n      tag_392\n        /* \"PandorasKey.sol\":3204:3213  recipient */\n      dup3\n        /* \"PandorasKey.sol\":3194:3203  balanceOf */\n      tag_160\n        /* \"PandorasKey.sol\":3194:3214  balanceOf(recipient) */\n      jump\t// in\n    tag_392:\n        /* \"PandorasKey.sol\":3194:3229  balanceOf(recipient) < maxPerWallet */\n      lt\n        /* \"PandorasKey.sol\":3186:3270  require(balanceOf(recipient) < maxPerWallet, \"PandorasKey: Max per wallet reached.\") */\n      tag_393\n      jumpi\n      mload(0x40)\n      shl(0xe5, 0x461bcd)\n      dup2\n      mstore\n        /* \"#utility.yul\":11954:11956   */\n      0x20\n        /* \"PandorasKey.sol\":3186:3270  require(balanceOf(recipient) < maxPerWallet, \"PandorasKey: Max per wallet reached.\") */\n      0x04\n      dup3\n      add\n        /* \"#utility.yul\":11936:11957   */\n      mstore\n        /* \"#utility.yul\":11993:11995   */\n      0x24\n        /* \"#utility.yul\":11973:11991   */\n      dup1\n      dup3\n      add\n        /* \"#utility.yul\":11966:11996   */\n      mstore\n        /* \"#utility.yul\":12032:12066   */\n      0x50616e646f7261734b65793a204d6178207065722077616c6c65742072656163\n        /* \"#utility.yul\":12012:12030   */\n      0x44\n      dup3\n      add\n        /* \"#utility.yul\":12005:12067   */\n      mstore\n      shl(0xe1, 0x3432b217)\n        /* \"#utility.yul\":12083:12101   */\n      0x64\n      dup3\n      add\n        /* \"#utility.yul\":12076:12110   */\n      mstore\n        /* \"#utility.yul\":12127:12146   */\n      0x84\n      add\n        /* \"PandorasKey.sol\":3186:3270  require(balanceOf(recipient) < maxPerWallet, \"PandorasKey: Max per wallet reached.\") */\n      tag_260\n        /* \"#utility.yul\":11752:12152   */\n      jump\n        /* \"PandorasKey.sol\":3186:3270  require(balanceOf(recipient) < maxPerWallet, \"PandorasKey: Max per wallet reached.\") */\n    tag_393:\n        /* \"PandorasKey.sol\":3280:3314  _safeMint(recipient, _nextTokenId) */\n      tag_396\n        /* \"PandorasKey.sol\":3290:3299  recipient */\n      dup2\n        /* \"PandorasKey.sol\":3301:3313  _nextTokenId */\n      sload(0x0a)\n        /* \"PandorasKey.sol\":3280:3289  _safeMint */\n      tag_397\n        /* \"PandorasKey.sol\":3280:3314  _safeMint(recipient, _nextTokenId) */\n      jump\t// in\n    tag_396:\n        /* \"PandorasKey.sol\":3324:3336  _nextTokenId */\n      0x0a\n        /* \"PandorasKey.sol\":3324:3338  _nextTokenId++ */\n      dup1\n      sload\n      swap1\n        /* \"PandorasKey.sol\":3324:3336  _nextTokenId */\n      0x00\n        /* \"PandorasKey.sol\":3324:3338  _nextTokenId++ */\n      tag_398\n      dup4\n      tag_399\n      jump\t// in\n    tag_398:\n      swap2\n      swap1\n      pop\n      sstore\n      pop\n        /* \"PandorasKey.sol\":3134:3345  {... */\n      pop\n        /* \"@openzeppelin/contracts/utils/ReentrancyGuard.sol\":2542:2562   */\n      tag_339\n        /* \"@openzeppelin/contracts/utils/ReentrancyGuard.sol\":1857:1858   */\n      0x01\n        /* \"@openzeppelin/contracts/utils/ReentrancyGuard.sol\":3068:3075   */\n      0x08\n        /* \"@openzeppelin/contracts/utils/ReentrancyGuard.sol\":3068:3089   */\n      sstore\n        /* \"@openzeppelin/contracts/utils/ReentrancyGuard.sol\":2888:3096   */\n      jump\n        /* \"@openzeppelin/contracts/token/ERC721/ERC721.sol\":2103:2221   */\n    tag_149:\n        /* \"@openzeppelin/contracts/token/ERC721/ERC721.sol\":2166:2173   */\n      0x00\n        /* \"@openzeppelin/contracts/token/ERC721/ERC721.sol\":2192:2214   */\n      tag_252\n        /* \"@openzeppelin/contracts/token/ERC721/ERC721.sol\":2206:2213   */\n      dup3\n        /* \"@openzeppelin/contracts/token/ERC721/ERC721.sol\":2192:2205   */\n      tag_298\n        /* \"@openzeppelin/contracts/token/ERC721/ERC721.sol\":2192:2214   */\n      jump\t// in\n        /* \"@openzeppelin/contracts/token/ERC721/ERC721.sol\":1861:2069   */\n    tag_160:\n        /* \"@openzeppelin/contracts/token/ERC721/ERC721.sol\":1924:1931   */\n      0x00\n      sub(shl(0xa0, 0x01), 0x01)\n        /* \"@openzeppelin/contracts/token/ERC721/ERC721.sol\":1947:1966   */\n      dup3\n      and\n        /* \"@openzeppelin/contracts/token/ERC721/ERC721.sol\":1943:2030   */\n      tag_404\n      jumpi\n        /* \"@openzeppelin/contracts/token/ERC721/ERC721.sol\":1989:2019   */\n      mload(0x40)\n      shl(0xe2, 0x22718ad9)\n      dup2\n      mstore\n        /* \"@openzeppelin/contracts/token/ERC721/ERC721.sol\":2016:2017   */\n      0x00\n        /* \"@openzeppelin/contracts/token/ERC721/ERC721.sol\":1989:2019   */\n      0x04\n      dup3\n      add\n        /* \"#utility.yul\":1998:2072   */\n      mstore\n        /* \"#utility.yul\":1971:1989   */\n      0x24\n      add\n        /* \"@openzeppelin/contracts/token/ERC721/ERC721.sol\":1989:2019   */\n      tag_260\n        /* \"#utility.yul\":1852:2078   */\n      jump\n        /* \"@openzeppelin/contracts/token/ERC721/ERC721.sol\":1943:2030   */\n    tag_404:\n      pop\n      sub(shl(0xa0, 0x01), 0x01)\n        /* \"@openzeppelin/contracts/token/ERC721/ERC721.sol\":2046:2062   */\n      and\n      0x00\n      swap1\n      dup2\n      mstore\n        /* \"@openzeppelin/contracts/token/ERC721/ERC721.sol\":2046:2055   */\n      0x03\n        /* \"@openzeppelin/contracts/token/ERC721/ERC721.sol\":2046:2062   */\n      0x20\n      mstore\n      0x40\n      swap1\n      keccak256\n      sload\n      swap1\n        /* \"@openzeppelin/contracts/token/ERC721/ERC721.sol\":1861:2069   */\n      jump\t// out\n        /* \"@openzeppelin/contracts/access/Ownable.sol\":2293:2394   */\n    tag_164:\n        /* \"@openzeppelin/contracts/access/Ownable.sol\":1531:1544   */\n      tag_407\n        /* \"@openzeppelin/contracts/access/Ownable.sol\":1531:1542   */\n      tag_307\n        /* \"@openzeppelin/contracts/access/Ownable.sol\":1531:1544   */\n      jump\t// in\n    tag_407:\n        /* \"@openzeppelin/contracts/access/Ownable.sol\":2357:2387   */\n      tag_339\n        /* \"@openzeppelin/contracts/access/Ownable.sol\":2384:2385   */\n      0x00\n        /* \"@openzeppelin/contracts/access/Ownable.sol\":2357:2375   */\n      tag_410\n        /* \"@openzeppelin/contracts/access/Ownable.sol\":2357:2387   */\n      jump\t// in\n        /* \"@openzeppelin/contracts/token/ERC721/ERC721.sol\":2394:2487   */\n    tag_189:\n        /* \"@openzeppelin/contracts/token/ERC721/ERC721.sol\":2441:2454   */\n      0x60\n        /* \"@openzeppelin/contracts/token/ERC721/ERC721.sol\":2473:2480   */\n      0x01\n        /* \"@openzeppelin/contracts/token/ERC721/ERC721.sol\":2466:2480   */\n      dup1\n      sload\n      tag_290\n      swap1\n      tag_291\n      jump\t// in\n        /* \"PandorasKey.sol\":3351:3594  function adminMint(address to) external nonReentrant onlyRole(ADMIN_ROLE) {... */\n    tag_194:\n        /* \"@openzeppelin/contracts/utils/ReentrancyGuard.sol\":2500:2521   */\n      tag_421\n        /* \"@openzeppelin/contracts/utils/ReentrancyGuard.sol\":2500:2519   */\n      tag_256\n        /* \"@openzeppelin/contracts/utils/ReentrancyGuard.sol\":2500:2521   */\n      jump\t// in\n    tag_421:\n        /* \"PandorasKey.sol\":774:797  keccak256(\"ADMIN_ROLE\") */\n      0xa49807205ce4d355092ef5a8a18f56e8913cf4a201fbe287825b095693c21775\n        /* \"@openzeppelin/contracts/access/AccessControl.sol\":2473:2489   */\n      tag_423\n        /* \"@openzeppelin/contracts/access/AccessControl.sol\":2484:2488   */\n      dup2\n        /* \"@openzeppelin/contracts/access/AccessControl.sol\":2473:2483   */\n      tag_353\n        /* \"@openzeppelin/contracts/access/AccessControl.sol\":2473:2489   */\n      jump\t// in\n    tag_423:\n        /* \"PandorasKey.sol\":3459:3471  maxPerWallet */\n      sload(0x09)\n        /* \"PandorasKey.sol\":3443:3456  balanceOf(to) */\n      tag_425\n        /* \"PandorasKey.sol\":3453:3455  to */\n      dup4\n        /* \"PandorasKey.sol\":3443:3452  balanceOf */\n      tag_160\n        /* \"PandorasKey.sol\":3443:3456  balanceOf(to) */\n      jump\t// in\n    tag_425:\n        /* \"PandorasKey.sol\":3443:3471  balanceOf(to) < maxPerWallet */\n      lt\n        /* \"PandorasKey.sol\":3435:3526  require(balanceOf(to) < maxPerWallet, \"PandorasKey: Max per wallet reached for recipient.\") */\n      tag_426\n      jumpi\n      mload(0x40)\n      shl(0xe5, 0x461bcd)\n      dup2\n      mstore\n        /* \"#utility.yul\":12499:12501   */\n      0x20\n        /* \"PandorasKey.sol\":3435:3526  require(balanceOf(to) < maxPerWallet, \"PandorasKey: Max per wallet reached for recipient.\") */\n      0x04\n      dup3\n      add\n        /* \"#utility.yul\":12481:12502   */\n      mstore\n        /* \"#utility.yul\":12538:12540   */\n      0x32\n        /* \"#utility.yul\":12518:12536   */\n      0x24\n      dup3\n      add\n        /* \"#utility.yul\":12511:12541   */\n      mstore\n        /* \"#utility.yul\":12577:12611   */\n      0x50616e646f7261734b65793a204d6178207065722077616c6c65742072656163\n        /* \"#utility.yul\":12557:12575   */\n      0x44\n      dup3\n      add\n        /* \"#utility.yul\":12550:12612   */\n      mstore\n        /* \"#utility.yul\":12648:12668   */\n      0x68656420666f7220726563697069656e742e0000000000000000000000000000\n        /* \"#utility.yul\":12628:12646   */\n      0x64\n      dup3\n      add\n        /* \"#utility.yul\":12621:12669   */\n      mstore\n        /* \"#utility.yul\":12686:12705   */\n      0x84\n      add\n        /* \"PandorasKey.sol\":3435:3526  require(balanceOf(to) < maxPerWallet, \"PandorasKey: Max per wallet reached for recipient.\") */\n      tag_260\n        /* \"#utility.yul\":12297:12711   */\n      jump\n        /* \"PandorasKey.sol\":3435:3526  require(balanceOf(to) < maxPerWallet, \"PandorasKey: Max per wallet reached for recipient.\") */\n    tag_426:\n        /* \"PandorasKey.sol\":3536:3563  _safeMint(to, _nextTokenId) */\n      tag_429\n        /* \"PandorasKey.sol\":3546:3548  to */\n      dup3\n        /* \"PandorasKey.sol\":3550:3562  _nextTokenId */\n      sload(0x0a)\n        /* \"PandorasKey.sol\":3536:3545  _safeMint */\n      tag_397\n        /* \"PandorasKey.sol\":3536:3563  _safeMint(to, _nextTokenId) */\n      jump\t// in\n    tag_429:\n        /* \"PandorasKey.sol\":3573:3585  _nextTokenId */\n      0x0a\n        /* \"PandorasKey.sol\":3573:3587  _nextTokenId++ */\n      dup1\n      sload\n      swap1\n        /* \"PandorasKey.sol\":3573:3585  _nextTokenId */\n      0x00\n        /* \"PandorasKey.sol\":3573:3587  _nextTokenId++ */\n      tag_430\n      dup4\n      tag_399\n      jump\t// in\n    tag_430:\n      swap2\n      swap1\n      pop\n      sstore\n      pop\n        /* \"@openzeppelin/contracts/utils/ReentrancyGuard.sol\":2531:2532   */\n      pop\n        /* \"@openzeppelin/contracts/utils/ReentrancyGuard.sol\":2542:2562   */\n      tag_383\n        /* \"@openzeppelin/contracts/utils/ReentrancyGuard.sol\":1857:1858   */\n      0x01\n        /* \"@openzeppelin/contracts/utils/ReentrancyGuard.sol\":3068:3075   */\n      0x08\n        /* \"@openzeppelin/contracts/utils/ReentrancyGuard.sol\":3068:3089   */\n      sstore\n        /* \"@openzeppelin/contracts/utils/ReentrancyGuard.sol\":2888:3096   */\n      jump\n        /* \"PandorasKey.sol\":6972:7168  function burn(address owner, uint256 tokenId) external onlyRole(ADMIN_ROLE) {... */\n    tag_198:\n        /* \"PandorasKey.sol\":774:797  keccak256(\"ADMIN_ROLE\") */\n      0xa49807205ce4d355092ef5a8a18f56e8913cf4a201fbe287825b095693c21775\n        /* \"@openzeppelin/contracts/access/AccessControl.sol\":2473:2489   */\n      tag_433\n        /* \"@openzeppelin/contracts/access/AccessControl.sol\":2484:2488   */\n      dup2\n        /* \"@openzeppelin/contracts/access/AccessControl.sol\":2473:2483   */\n      tag_353\n        /* \"@openzeppelin/contracts/access/AccessControl.sol\":2473:2489   */\n      jump\t// in\n    tag_433:\n        /* \"@openzeppelin/contracts/token/ERC721/ERC721.sol\":5444:5451   */\n      0x00\n        /* \"@openzeppelin/contracts/token/ERC721/ERC721.sol\":5470:5486   */\n      dup3\n      dup2\n      mstore\n        /* \"@openzeppelin/contracts/token/ERC721/ERC721.sol\":5470:5477   */\n      0x02\n        /* \"@openzeppelin/contracts/token/ERC721/ERC721.sol\":5470:5486   */\n      0x20\n      mstore\n      0x40\n      swap1\n      keccak256\n      sload\n      sub(shl(0xa0, 0x01), 0x01)\n        /* \"PandorasKey.sol\":7066:7092  _ownerOf(tokenId) == owner */\n      dup5\n      dup2\n      and\n        /* \"@openzeppelin/contracts/token/ERC721/ERC721.sol\":5470:5486   */\n      swap2\n      and\n        /* \"PandorasKey.sol\":7066:7092  _ownerOf(tokenId) == owner */\n      eq\n        /* \"PandorasKey.sol\":7058:7137  require(_ownerOf(tokenId) == owner, \"PandorasKey: Not the owner of the token.\") */\n      tag_437\n      jumpi\n      mload(0x40)\n      shl(0xe5, 0x461bcd)\n      dup2\n      mstore\n        /* \"#utility.yul\":12918:12920   */\n      0x20\n        /* \"PandorasKey.sol\":7058:7137  require(_ownerOf(tokenId) == owner, \"PandorasKey: Not the owner of the token.\") */\n      0x04\n      dup3\n      add\n        /* \"#utility.yul\":12900:12921   */\n      mstore\n        /* \"#utility.yul\":12957:12959   */\n      0x28\n        /* \"#utility.yul\":12937:12955   */\n      0x24\n      dup3\n      add\n        /* \"#utility.yul\":12930:12960   */\n      mstore\n        /* \"#utility.yul\":12996:13030   */\n      0x50616e646f7261734b65793a204e6f7420746865206f776e6572206f66207468\n        /* \"#utility.yul\":12976:12994   */\n      0x44\n      dup3\n      add\n        /* \"#utility.yul\":12969:13031   */\n      mstore\n        /* \"#utility.yul\":13067:13077   */\n      0x6520746f6b656e2e000000000000000000000000000000000000000000000000\n        /* \"#utility.yul\":13047:13065   */\n      0x64\n      dup3\n      add\n        /* \"#utility.yul\":13040:13078   */\n      mstore\n        /* \"#utility.yul\":13095:13114   */\n      0x84\n      add\n        /* \"PandorasKey.sol\":7058:7137  require(_ownerOf(tokenId) == owner, \"PandorasKey: Not the owner of the token.\") */\n      tag_260\n        /* \"#utility.yul\":12716:13120   */\n      jump\n        /* \"PandorasKey.sol\":7058:7137  require(_ownerOf(tokenId) == owner, \"PandorasKey: Not the owner of the token.\") */\n    tag_437:\n        /* \"PandorasKey.sol\":7147:7161  _burn(tokenId) */\n      tag_287\n        /* \"PandorasKey.sol\":7153:7160  tokenId */\n      dup3\n        /* \"PandorasKey.sol\":7147:7152  _burn */\n      tag_441\n        /* \"PandorasKey.sol\":7147:7161  _burn(tokenId) */\n      jump\t// in\n        /* \"PandorasKey.sol\":3716:3994  function depositToHolder(address holder) external payable nonReentrant {... */\n    tag_201:\n        /* \"@openzeppelin/contracts/utils/ReentrancyGuard.sol\":2500:2521   */\n      tag_443\n        /* \"@openzeppelin/contracts/utils/ReentrancyGuard.sol\":2500:2519   */\n      tag_256\n        /* \"@openzeppelin/contracts/utils/ReentrancyGuard.sol\":2500:2521   */\n      jump\t// in\n    tag_443:\n        /* \"PandorasKey.sol\":3825:3826  0 */\n      0x00\n        /* \"PandorasKey.sol\":3805:3822  balanceOf(holder) */\n      tag_445\n        /* \"PandorasKey.sol\":3815:3821  holder */\n      dup3\n        /* \"PandorasKey.sol\":3805:3814  balanceOf */\n      tag_160\n        /* \"PandorasKey.sol\":3805:3822  balanceOf(holder) */\n      jump\t// in\n    tag_445:\n        /* \"PandorasKey.sol\":3805:3826  balanceOf(holder) > 0 */\n      gt\n        /* \"PandorasKey.sol\":3797:3874  require(balanceOf(holder) > 0, \"PandorasKey: Recipient is not a key holder.\") */\n      tag_446\n      jumpi\n      mload(0x40)\n      shl(0xe5, 0x461bcd)\n      dup2\n      mstore\n        /* \"#utility.yul\":5526:5528   */\n      0x20\n        /* \"PandorasKey.sol\":3797:3874  require(balanceOf(holder) > 0, \"PandorasKey: Recipient is not a key holder.\") */\n      0x04\n      dup3\n      add\n        /* \"#utility.yul\":5508:5529   */\n      mstore\n        /* \"#utility.yul\":5565:5567   */\n      0x2b\n        /* \"#utility.yul\":5545:5563   */\n      0x24\n      dup3\n      add\n        /* \"#utility.yul\":5538:5568   */\n      mstore\n        /* \"#utility.yul\":5604:5638   */\n      0x50616e646f7261734b65793a20526563697069656e74206973206e6f74206120\n        /* \"#utility.yul\":5584:5602   */\n      0x44\n      dup3\n      add\n        /* \"#utility.yul\":5577:5639   */\n      mstore\n      shl(0xa9, 0x35b2bc903437b63232b917)\n        /* \"#utility.yul\":5655:5673   */\n      0x64\n      dup3\n      add\n        /* \"#utility.yul\":5648:5689   */\n      mstore\n        /* \"#utility.yul\":5706:5725   */\n      0x84\n      add\n        /* \"PandorasKey.sol\":3797:3874  require(balanceOf(holder) > 0, \"PandorasKey: Recipient is not a key holder.\") */\n      tag_260\n        /* \"#utility.yul\":5324:5731   */\n      jump\n        /* \"PandorasKey.sol\":3797:3874  require(balanceOf(holder) > 0, \"PandorasKey: Recipient is not a key holder.\") */\n    tag_446:\n      sub(shl(0xa0, 0x01), 0x01)\n        /* \"PandorasKey.sol\":3884:3911  ethDepositsOfHolder[holder] */\n      dup2\n      and\n      0x00\n      swap1\n      dup2\n      mstore\n        /* \"PandorasKey.sol\":3884:3903  ethDepositsOfHolder */\n      0x0c\n        /* \"PandorasKey.sol\":3884:3911  ethDepositsOfHolder[holder] */\n      0x20\n      mstore\n      0x40\n      dup2\n      keccak256\n        /* \"PandorasKey.sol\":3884:3924  ethDepositsOfHolder[holder] += msg.value */\n      dup1\n      sload\n        /* \"PandorasKey.sol\":3915:3924  msg.value */\n      callvalue\n      swap3\n        /* \"PandorasKey.sol\":3884:3911  ethDepositsOfHolder[holder] */\n      swap1\n        /* \"PandorasKey.sol\":3884:3924  ethDepositsOfHolder[holder] += msg.value */\n      tag_448\n      swap1\n        /* \"PandorasKey.sol\":3915:3924  msg.value */\n      dup5\n      swap1\n        /* \"PandorasKey.sol\":3884:3924  ethDepositsOfHolder[holder] += msg.value */\n      tag_284\n      jump\t// in\n    tag_448:\n      swap1\n      swap2\n      sstore\n      pop\n        /* \"PandorasKey.sol\":3963:3975  _msgSender() */\n      tag_449\n      swap1\n      pop\n        /* \"PandorasKey.sol\":3963:3973  _msgSender */\n      tag_266\n        /* \"PandorasKey.sol\":3963:3975  _msgSender() */\n      jump\t// in\n    tag_449:\n      sub(shl(0xa0, 0x01), 0x01)\n        /* \"PandorasKey.sol\":3939:3987  DepositToHolder(holder, _msgSender(), msg.value) */\n      and\n        /* \"PandorasKey.sol\":3955:3961  holder */\n      dup2\n      sub(shl(0xa0, 0x01), 0x01)\n        /* \"PandorasKey.sol\":3939:3987  DepositToHolder(holder, _msgSender(), msg.value) */\n      and\n      0x5c8132825cb668206ec2586554c3bcd3d8e2d7f95ce7a99c939b4ad357d7ebbe\n        /* \"PandorasKey.sol\":3977:3986  msg.value */\n      callvalue\n        /* \"PandorasKey.sol\":3939:3987  DepositToHolder(holder, _msgSender(), msg.value) */\n      mload(0x40)\n      tag_450\n      swap2\n        /* \"#utility.yul\":2673:2698   */\n      dup2\n      mstore\n        /* \"#utility.yul\":2661:2663   */\n      0x20\n        /* \"#utility.yul\":2646:2664   */\n      add\n      swap1\n        /* \"#utility.yul\":2527:2704   */\n      jump\n        /* \"PandorasKey.sol\":3939:3987  DepositToHolder(holder, _msgSender(), msg.value) */\n    tag_450:\n      mload(0x40)\n      dup1\n      swap2\n      sub\n      swap1\n      log3\n        /* \"@openzeppelin/contracts/utils/ReentrancyGuard.sol\":2542:2562   */\n      tag_383\n        /* \"@openzeppelin/contracts/utils/ReentrancyGuard.sol\":1857:1858   */\n      0x01\n        /* \"@openzeppelin/contracts/utils/ReentrancyGuard.sol\":3068:3075   */\n      0x08\n        /* \"@openzeppelin/contracts/utils/ReentrancyGuard.sol\":3068:3089   */\n      sstore\n        /* \"@openzeppelin/contracts/utils/ReentrancyGuard.sol\":2888:3096   */\n      jump\n        /* \"@openzeppelin/contracts/token/ERC721/ERC721.sol\":3487:3631   */\n    tag_210:\n        /* \"@openzeppelin/contracts/token/ERC721/ERC721.sol\":3572:3624   */\n      tag_302\n        /* \"@openzeppelin/contracts/token/ERC721/ERC721.sol\":3591:3603   */\n      tag_454\n        /* \"@openzeppelin/contracts/token/ERC721/ERC721.sol\":3591:3601   */\n      tag_266\n        /* \"@openzeppelin/contracts/token/ERC721/ERC721.sol\":3591:3603   */\n      jump\t// in\n    tag_454:\n        /* \"@openzeppelin/contracts/token/ERC721/ERC721.sol\":3605:3613   */\n      dup4\n        /* \"@openzeppelin/contracts/token/ERC721/ERC721.sol\":3615:3623   */\n      dup4\n        /* \"@openzeppelin/contracts/token/ERC721/ERC721.sol\":3572:3590   */\n      tag_455\n        /* \"@openzeppelin/contracts/token/ERC721/ERC721.sol\":3572:3624   */\n      jump\t// in\n        /* \"PandorasKey.sol\":6477:6833  function rescueERC20(address token, address to, uint256 amount) external onlyOwner {... */\n    tag_214:\n        /* \"@openzeppelin/contracts/access/Ownable.sol\":1531:1544   */\n      tag_457\n        /* \"@openzeppelin/contracts/access/Ownable.sol\":1531:1542   */\n      tag_307\n        /* \"@openzeppelin/contracts/access/Ownable.sol\":1531:1544   */\n      jump\t// in\n    tag_457:\n      sub(shl(0xa0, 0x01), 0x01)\n        /* \"PandorasKey.sol\":6578:6594  to != address(0) */\n      dup3\n      and\n        /* \"PandorasKey.sol\":6570:6640  require(to != address(0), \"PandorasKey: Cannot send to zero address.\") */\n      tag_459\n      jumpi\n      mload(0x40)\n      shl(0xe5, 0x461bcd)\n      dup2\n      mstore\n        /* \"#utility.yul\":8575:8577   */\n      0x20\n        /* \"PandorasKey.sol\":6570:6640  require(to != address(0), \"PandorasKey: Cannot send to zero address.\") */\n      0x04\n      dup3\n      add\n        /* \"#utility.yul\":8557:8578   */\n      mstore\n        /* \"#utility.yul\":8614:8616   */\n      0x29\n        /* \"#utility.yul\":8594:8612   */\n      0x24\n      dup3\n      add\n        /* \"#utility.yul\":8587:8617   */\n      mstore\n        /* \"#utility.yul\":8653:8687   */\n      0x50616e646f7261734b65793a2043616e6e6f742073656e6420746f207a65726f\n        /* \"#utility.yul\":8633:8651   */\n      0x44\n      dup3\n      add\n        /* \"#utility.yul\":8626:8688   */\n      mstore\n      shl(0xb9, 0x1030b2323932b9b997)\n        /* \"#utility.yul\":8704:8722   */\n      0x64\n      dup3\n      add\n        /* \"#utility.yul\":8697:8736   */\n      mstore\n        /* \"#utility.yul\":8753:8772   */\n      0x84\n      add\n        /* \"PandorasKey.sol\":6570:6640  require(to != address(0), \"PandorasKey: Cannot send to zero address.\") */\n      tag_260\n        /* \"#utility.yul\":8373:8778   */\n      jump\n        /* \"PandorasKey.sol\":6570:6640  require(to != address(0), \"PandorasKey: Cannot send to zero address.\") */\n    tag_459:\n        /* \"PandorasKey.sol\":6696:6726  erc20.balanceOf(address(this)) */\n      mload(0x40)\n      shl(0xe0, 0x70a08231)\n      dup2\n      mstore\n        /* \"PandorasKey.sol\":6720:6724  this */\n      address\n        /* \"PandorasKey.sol\":6696:6726  erc20.balanceOf(address(this)) */\n      0x04\n      dup3\n      add\n        /* \"#utility.yul\":1998:2072   */\n      mstore\n        /* \"PandorasKey.sol\":6672:6677  token */\n      dup4\n      swap1\n        /* \"PandorasKey.sol\":6730:6736  amount */\n      dup3\n      swap1\n      sub(shl(0xa0, 0x01), 0x01)\n        /* \"PandorasKey.sol\":6696:6711  erc20.balanceOf */\n      dup4\n      and\n      swap1\n      0x70a08231\n      swap1\n        /* \"#utility.yul\":1971:1989   */\n      0x24\n      add\n        /* \"PandorasKey.sol\":6696:6726  erc20.balanceOf(address(this)) */\n      0x20\n      mload(0x40)\n      dup1\n      dup4\n      sub\n      dup2\n      dup7\n      gas\n      staticcall\n      iszero\n      dup1\n      iszero\n      tag_463\n      jumpi\n      returndatasize\n      0x00\n      dup1\n      returndatacopy\n      revert(0x00, returndatasize)\n    tag_463:\n      pop\n      pop\n      pop\n      pop\n      mload(0x40)\n      returndatasize\n      not(0x1f)\n      0x1f\n      dup3\n      add\n      and\n      dup3\n      add\n      dup1\n      0x40\n      mstore\n      pop\n      dup2\n      add\n      swap1\n      tag_464\n      swap2\n      swap1\n      tag_272\n      jump\t// in\n    tag_464:\n        /* \"PandorasKey.sol\":6696:6736  erc20.balanceOf(address(this)) >= amount */\n      lt\n      iszero\n        /* \"PandorasKey.sol\":6688:6790  require(erc20.balanceOf(address(this)) >= amount, \"PandorasKey: Insufficient contract token balance.\") */\n      tag_465\n      jumpi\n      mload(0x40)\n      shl(0xe5, 0x461bcd)\n      dup2\n      mstore\n        /* \"#utility.yul\":13327:13329   */\n      0x20\n        /* \"PandorasKey.sol\":6688:6790  require(erc20.balanceOf(address(this)) >= amount, \"PandorasKey: Insufficient contract token balance.\") */\n      0x04\n      dup3\n      add\n        /* \"#utility.yul\":13309:13330   */\n      mstore\n        /* \"#utility.yul\":13366:13368   */\n      0x31\n        /* \"#utility.yul\":13346:13364   */\n      0x24\n      dup3\n      add\n        /* \"#utility.yul\":13339:13369   */\n      mstore\n        /* \"#utility.yul\":13405:13439   */\n      0x50616e646f7261734b65793a20496e73756666696369656e7420636f6e747261\n        /* \"#utility.yul\":13385:13403   */\n      0x44\n      dup3\n      add\n        /* \"#utility.yul\":13378:13440   */\n      mstore\n        /* \"#utility.yul\":13476:13495   */\n      0x637420746f6b656e2062616c616e63652e000000000000000000000000000000\n        /* \"#utility.yul\":13456:13474   */\n      0x64\n      dup3\n      add\n        /* \"#utility.yul\":13449:13496   */\n      mstore\n        /* \"#utility.yul\":13513:13532   */\n      0x84\n      add\n        /* \"PandorasKey.sol\":6688:6790  require(erc20.balanceOf(address(this)) >= amount, \"PandorasKey: Insufficient contract token balance.\") */\n      tag_260\n        /* \"#utility.yul\":13125:13538   */\n      jump\n        /* \"PandorasKey.sol\":6688:6790  require(erc20.balanceOf(address(this)) >= amount, \"PandorasKey: Insufficient contract token balance.\") */\n    tag_465:\n        /* \"PandorasKey.sol\":6800:6826  erc20.transfer(to, amount) */\n      mload(0x40)\n      shl(0xe0, 0xa9059cbb)\n      dup2\n      mstore\n      sub(shl(0xa0, 0x01), 0x01)\n        /* \"#utility.yul\":11642:11697   */\n      dup5\n      dup2\n      and\n        /* \"PandorasKey.sol\":6800:6826  erc20.transfer(to, amount) */\n      0x04\n      dup4\n      add\n        /* \"#utility.yul\":11624:11698   */\n      mstore\n        /* \"#utility.yul\":11714:11732   */\n      0x24\n      dup3\n      add\n        /* \"#utility.yul\":11707:11741   */\n      dup5\n      swap1\n      mstore\n        /* \"PandorasKey.sol\":6800:6814  erc20.transfer */\n      dup3\n      and\n      swap1\n      0xa9059cbb\n      swap1\n        /* \"#utility.yul\":11597:11615   */\n      0x44\n      add\n        /* \"PandorasKey.sol\":6800:6826  erc20.transfer(to, amount) */\n      0x20\n      mload(0x40)\n      dup1\n      dup4\n      sub\n      dup2\n      0x00\n      dup8\n      gas\n      call\n      iszero\n      dup1\n      iszero\n      tag_470\n      jumpi\n      returndatasize\n      0x00\n      dup1\n      returndatacopy\n      revert(0x00, returndatasize)\n    tag_470:\n      pop\n      pop\n      pop\n      pop\n      mload(0x40)\n      returndatasize\n      not(0x1f)\n      0x1f\n      dup3\n      add\n      and\n      dup3\n      add\n      dup1\n      0x40\n      mstore\n      pop\n      dup2\n      add\n      swap1\n      tag_471\n      swap2\n      swap1\n      tag_282\n      jump\t// in\n    tag_471:\n      pop\n        /* \"PandorasKey.sol\":6560:6833  {... */\n      pop\n        /* \"PandorasKey.sol\":6477:6833  function rescueERC20(address token, address to, uint256 amount) external onlyOwner {... */\n      pop\n      pop\n      pop\n      jump\t// out\n        /* \"@openzeppelin/contracts/token/ERC721/ERC721.sol\":4630:4863   */\n    tag_219:\n        /* \"@openzeppelin/contracts/token/ERC721/ERC721.sol\":4743:4774   */\n      tag_473\n        /* \"@openzeppelin/contracts/token/ERC721/ERC721.sol\":4756:4760   */\n      dup5\n        /* \"@openzeppelin/contracts/token/ERC721/ERC721.sol\":4762:4764   */\n      dup5\n        /* \"@openzeppelin/contracts/token/ERC721/ERC721.sol\":4766:4773   */\n      dup5\n        /* \"@openzeppelin/contracts/token/ERC721/ERC721.sol\":4743:4755   */\n      tag_98\n        /* \"@openzeppelin/contracts/token/ERC721/ERC721.sol\":4743:4774   */\n      jump\t// in\n    tag_473:\n        /* \"@openzeppelin/contracts/token/ERC721/ERC721.sol\":4784:4856   */\n      tag_346\n        /* \"@openzeppelin/contracts/token/ERC721/ERC721.sol\":4818:4830   */\n      tag_475\n        /* \"@openzeppelin/contracts/token/ERC721/ERC721.sol\":4818:4828   */\n      tag_266\n        /* \"@openzeppelin/contracts/token/ERC721/ERC721.sol\":4818:4830   */\n      jump\t// in\n    tag_475:\n        /* \"@openzeppelin/contracts/token/ERC721/ERC721.sol\":4832:4836   */\n      dup6\n        /* \"@openzeppelin/contracts/token/ERC721/ERC721.sol\":4838:4840   */\n      dup6\n        /* \"@openzeppelin/contracts/token/ERC721/ERC721.sol\":4842:4849   */\n      dup6\n        /* \"@openzeppelin/contracts/token/ERC721/ERC721.sol\":4851:4855   */\n      dup6\n        /* \"@openzeppelin/contracts/token/ERC721/ERC721.sol\":4784:4817   */\n      tag_476\n        /* \"@openzeppelin/contracts/token/ERC721/ERC721.sol\":4784:4856   */\n      jump\t// in\n        /* \"@openzeppelin/contracts/token/ERC721/ERC721.sol\":2529:2784   */\n    tag_223:\n        /* \"@openzeppelin/contracts/token/ERC721/ERC721.sol\":2593:2606   */\n      0x60\n        /* \"@openzeppelin/contracts/token/ERC721/ERC721.sol\":2618:2640   */\n      tag_478\n        /* \"@openzeppelin/contracts/token/ERC721/ERC721.sol\":2632:2639   */\n      dup3\n        /* \"@openzeppelin/contracts/token/ERC721/ERC721.sol\":2618:2631   */\n      tag_298\n        /* \"@openzeppelin/contracts/token/ERC721/ERC721.sol\":2618:2640   */\n      jump\t// in\n    tag_478:\n      pop\n        /* \"@openzeppelin/contracts/token/ERC721/ERC721.sol\":2651:2672   */\n      0x00\n        /* \"@openzeppelin/contracts/token/ERC721/ERC721.sol\":2675:2685   */\n      tag_479\n        /* \"@openzeppelin/contracts/token/ERC721/ERC721.sol\":3102:3111   */\n      0x40\n      dup1\n      mload\n      0x20\n      dup2\n      add\n      swap1\n      swap2\n      mstore\n      0x00\n      dup2\n      mstore\n      swap1\n        /* \"@openzeppelin/contracts/token/ERC721/ERC721.sol\":3026:3118   */\n      jump\n        /* \"@openzeppelin/contracts/token/ERC721/ERC721.sol\":2675:2685   */\n    tag_479:\n        /* \"@openzeppelin/contracts/token/ERC721/ERC721.sol\":2651:2685   */\n      swap1\n      pop\n        /* \"@openzeppelin/contracts/token/ERC721/ERC721.sol\":2726:2727   */\n      0x00\n        /* \"@openzeppelin/contracts/token/ERC721/ERC721.sol\":2708:2715   */\n      dup2\n        /* \"@openzeppelin/contracts/token/ERC721/ERC721.sol\":2702:2723   */\n      mload\n        /* \"@openzeppelin/contracts/token/ERC721/ERC721.sol\":2702:2727   */\n      gt\n        /* \"@openzeppelin/contracts/token/ERC721/ERC721.sol\":2702:2777   */\n      tag_481\n      jumpi\n      mload(0x40)\n      dup1\n      0x20\n      add\n      0x40\n      mstore\n      dup1\n      0x00\n      dup2\n      mstore\n      pop\n      jump(tag_482)\n    tag_481:\n        /* \"@openzeppelin/contracts/token/ERC721/ERC721.sol\":2744:2751   */\n      dup1\n        /* \"@openzeppelin/contracts/token/ERC721/ERC721.sol\":2753:2771   */\n      tag_483\n        /* \"@openzeppelin/contracts/token/ERC721/ERC721.sol\":2753:2760   */\n      dup5\n        /* \"@openzeppelin/contracts/token/ERC721/ERC721.sol\":2753:2769   */\n      tag_484\n        /* \"@openzeppelin/contracts/token/ERC721/ERC721.sol\":2753:2771   */\n      jump\t// in\n    tag_483:\n        /* \"@openzeppelin/contracts/token/ERC721/ERC721.sol\":2730:2772   */\n      add(0x20, mload(0x40))\n      tag_485\n      swap3\n      swap2\n      swap1\n      tag_486\n      jump\t// in\n    tag_485:\n      mload(0x40)\n      0x20\n      dup2\n      dup4\n      sub\n      sub\n      dup2\n      mstore\n      swap1\n      0x40\n      mstore\n        /* \"@openzeppelin/contracts/token/ERC721/ERC721.sol\":2702:2777   */\n    tag_482:\n        /* \"@openzeppelin/contracts/token/ERC721/ERC721.sol\":2695:2777   */\n      swap4\n        /* \"@openzeppelin/contracts/token/ERC721/ERC721.sol\":2529:2784   */\n      swap3\n      pop\n      pop\n      pop\n      jump\t// out\n        /* \"@openzeppelin/contracts/access/AccessControl.sol\":4618:4756   */\n    tag_232:\n        /* \"@openzeppelin/contracts/access/AccessControl.sol\":3851:3858   */\n      0x00\n        /* \"@openzeppelin/contracts/access/AccessControl.sol\":3877:3889   */\n      dup3\n      dup2\n      mstore\n        /* \"@openzeppelin/contracts/access/AccessControl.sol\":3877:3883   */\n      0x07\n        /* \"@openzeppelin/contracts/access/AccessControl.sol\":3877:3889   */\n      0x20\n      mstore\n      0x40\n      swap1\n      keccak256\n        /* \"@openzeppelin/contracts/access/AccessControl.sol\":3877:3899   */\n      0x01\n      add\n      sload\n        /* \"@openzeppelin/contracts/access/AccessControl.sol\":2473:2489   */\n      tag_489\n        /* \"@openzeppelin/contracts/access/AccessControl.sol\":2484:2488   */\n      dup2\n        /* \"@openzeppelin/contracts/access/AccessControl.sol\":2473:2483   */\n      tag_353\n        /* \"@openzeppelin/contracts/access/AccessControl.sol\":2473:2489   */\n      jump\t// in\n    tag_489:\n        /* \"@openzeppelin/contracts/access/AccessControl.sol\":4723:4749   */\n      tag_346\n        /* \"@openzeppelin/contracts/access/AccessControl.sol\":4735:4739   */\n      dup4\n        /* \"@openzeppelin/contracts/access/AccessControl.sol\":4741:4748   */\n      dup4\n        /* \"@openzeppelin/contracts/access/AccessControl.sol\":4723:4734   */\n      tag_367\n        /* \"@openzeppelin/contracts/access/AccessControl.sol\":4723:4749   */\n      jump\t// in\n        /* \"PandorasKey.sol\":6843:6966  function setMaxPerWallet(uint256 _maxPerWallet) external onlyRole(ADMIN_ROLE) {... */\n    tag_236:\n        /* \"PandorasKey.sol\":774:797  keccak256(\"ADMIN_ROLE\") */\n      0xa49807205ce4d355092ef5a8a18f56e8913cf4a201fbe287825b095693c21775\n        /* \"@openzeppelin/contracts/access/AccessControl.sol\":2473:2489   */\n      tag_493\n        /* \"@openzeppelin/contracts/access/AccessControl.sol\":2484:2488   */\n      dup2\n        /* \"@openzeppelin/contracts/access/AccessControl.sol\":2473:2483   */\n      tag_353\n        /* \"@openzeppelin/contracts/access/AccessControl.sol\":2473:2489   */\n      jump\t// in\n    tag_493:\n      pop\n        /* \"PandorasKey.sol\":6931:6943  maxPerWallet */\n      0x09\n        /* \"PandorasKey.sol\":6931:6959  maxPerWallet = _maxPerWallet */\n      sstore\n        /* \"PandorasKey.sol\":6843:6966  function setMaxPerWallet(uint256 _maxPerWallet) external onlyRole(ADMIN_ROLE) {... */\n      jump\t// out\n        /* \"@openzeppelin/contracts/access/Ownable.sol\":2543:2758   */\n    tag_245:\n        /* \"@openzeppelin/contracts/access/Ownable.sol\":1531:1544   */\n      tag_497\n        /* \"@openzeppelin/contracts/access/Ownable.sol\":1531:1542   */\n      tag_307\n        /* \"@openzeppelin/contracts/access/Ownable.sol\":1531:1544   */\n      jump\t// in\n    tag_497:\n      sub(shl(0xa0, 0x01), 0x01)\n        /* \"@openzeppelin/contracts/access/Ownable.sol\":2627:2649   */\n      dup2\n      and\n        /* \"@openzeppelin/contracts/access/Ownable.sol\":2623:2714   */\n      tag_499\n      jumpi\n        /* \"@openzeppelin/contracts/access/Ownable.sol\":2672:2703   */\n      mload(0x40)\n      shl(0xe0, 0x1e4fbdf7)\n      dup2\n      mstore\n        /* \"@openzeppelin/contracts/access/Ownable.sol\":2700:2701   */\n      0x00\n        /* \"@openzeppelin/contracts/access/Ownable.sol\":2672:2703   */\n      0x04\n      dup3\n      add\n        /* \"#utility.yul\":1998:2072   */\n      mstore\n        /* \"#utility.yul\":1971:1989   */\n      0x24\n      add\n        /* \"@openzeppelin/contracts/access/Ownable.sol\":2672:2703   */\n      tag_260\n        /* \"#utility.yul\":1852:2078   */\n      jump\n        /* \"@openzeppelin/contracts/access/Ownable.sol\":2623:2714   */\n    tag_499:\n        /* \"@openzeppelin/contracts/access/Ownable.sol\":2723:2751   */\n      tag_383\n        /* \"@openzeppelin/contracts/access/Ownable.sol\":2742:2750   */\n      dup2\n        /* \"@openzeppelin/contracts/access/Ownable.sol\":2723:2741   */\n      tag_410\n        /* \"@openzeppelin/contracts/access/Ownable.sol\":2723:2751   */\n      jump\t// in\n        /* \"PandorasKey.sol\":3600:3710  function isGateHolder(address _user) external view returns (bool) {... */\n    tag_249:\n        /* \"PandorasKey.sol\":3660:3664  bool */\n      0x00\n        /* \"PandorasKey.sol\":3702:3703  0 */\n      dup1\n        /* \"PandorasKey.sol\":3683:3699  balanceOf(_user) */\n      tag_503\n        /* \"PandorasKey.sol\":3693:3698  _user */\n      dup4\n        /* \"PandorasKey.sol\":3683:3692  balanceOf */\n      tag_160\n        /* \"PandorasKey.sol\":3683:3699  balanceOf(_user) */\n      jump\t// in\n    tag_503:\n        /* \"PandorasKey.sol\":3683:3703  balanceOf(_user) > 0 */\n      gt\n      swap3\n        /* \"PandorasKey.sol\":3600:3710  function isGateHolder(address _user) external view returns (bool) {... */\n      swap2\n      pop\n      pop\n      jump\t// out\n        /* \"@openzeppelin/contracts/access/AccessControl.sol\":2541:2743   */\n    tag_253:\n        /* \"@openzeppelin/contracts/access/AccessControl.sol\":2626:2630   */\n      0x00\n      not(sub(shl(0xe0, 0x01), 0x01))\n        /* \"@openzeppelin/contracts/access/AccessControl.sol\":2649:2696   */\n      dup3\n      and\n      shl(0xe0, 0x7965db0b)\n      eq\n      dup1\n        /* \"@openzeppelin/contracts/access/AccessControl.sol\":2649:2736   */\n      tag_252\n      jumpi\n      pop\n        /* \"@openzeppelin/contracts/access/AccessControl.sol\":2700:2736   */\n      tag_252\n        /* \"@openzeppelin/contracts/access/AccessControl.sol\":2724:2735   */\n      dup3\n        /* \"@openzeppelin/contracts/access/AccessControl.sol\":2700:2723   */\n      tag_507\n        /* \"@openzeppelin/contracts/access/AccessControl.sol\":2700:2736   */\n      jump\t// in\n        /* \"@openzeppelin/contracts/utils/ReentrancyGuard.sol\":2575:2882   */\n    tag_256:\n        /* \"@openzeppelin/contracts/utils/ReentrancyGuard.sol\":1899:1900   */\n      0x02\n        /* \"@openzeppelin/contracts/utils/ReentrancyGuard.sol\":2702:2709   */\n      sload(0x08)\n        /* \"@openzeppelin/contracts/utils/ReentrancyGuard.sol\":2702:2720   */\n      sub\n        /* \"@openzeppelin/contracts/utils/ReentrancyGuard.sol\":2698:2784   */\n      tag_509\n      jumpi\n        /* \"@openzeppelin/contracts/utils/ReentrancyGuard.sol\":2743:2773   */\n      mload(0x40)\n      shl(0xe0, 0x3ee5aeb5)\n      dup2\n      mstore\n      0x04\n      add\n      mload(0x40)\n      dup1\n      swap2\n      sub\n      swap1\n      revert\n        /* \"@openzeppelin/contracts/utils/ReentrancyGuard.sol\":2698:2784   */\n    tag_509:\n        /* \"@openzeppelin/contracts/utils/ReentrancyGuard.sol\":1899:1900   */\n      0x02\n        /* \"@openzeppelin/contracts/utils/ReentrancyGuard.sol\":2858:2865   */\n      0x08\n        /* \"@openzeppelin/contracts/utils/ReentrancyGuard.sol\":2858:2875   */\n      sstore\n        /* \"@openzeppelin/contracts/utils/ReentrancyGuard.sol\":2575:2882   */\n      jump\t// out\n        /* \"PandorasKey.sol\":2140:2287  function _msgSender() internal view virtual override(Context, ERC2771Context) returns (address) {... */\n    tag_266:\n        /* \"PandorasKey.sol\":2227:2234  address */\n      0x00\n        /* \"PandorasKey.sol\":2253:2280  ERC2771Context._msgSender() */\n      tag_511\n        /* \"PandorasKey.sol\":2253:2278  ERC2771Context._msgSender */\n      tag_512\n        /* \"PandorasKey.sol\":2253:2280  ERC2771Context._msgSender() */\n      jump\t// in\n    tag_511:\n        /* \"PandorasKey.sol\":2246:2280  return ERC2771Context._msgSender() */\n      swap1\n      pop\n        /* \"PandorasKey.sol\":2140:2287  function _msgSender() internal view virtual override(Context, ERC2771Context) returns (address) {... */\n      swap1\n      jump\t// out\n        /* \"@openzeppelin/contracts/token/ERC721/ERC721.sol\":15858:16099   */\n    tag_298:\n        /* \"@openzeppelin/contracts/token/ERC721/ERC721.sol\":15921:15928   */\n      0x00\n        /* \"@openzeppelin/contracts/token/ERC721/ERC721.sol\":5470:5486   */\n      dup2\n      dup2\n      mstore\n        /* \"@openzeppelin/contracts/token/ERC721/ERC721.sol\":5470:5477   */\n      0x02\n        /* \"@openzeppelin/contracts/token/ERC721/ERC721.sol\":5470:5486   */\n      0x20\n      mstore\n      0x40\n      dup2\n      keccak256\n      sload\n      sub(shl(0xa0, 0x01), 0x01)\n      and\n      dup1\n        /* \"@openzeppelin/contracts/token/ERC721/ERC721.sol\":15983:16071   */\n      tag_252\n      jumpi\n        /* \"@openzeppelin/contracts/token/ERC721/ERC721.sol\":16029:16060   */\n      mload(0x40)\n      shl(0xe0, 0x7e273289)\n      dup2\n      mstore\n      0x04\n      dup2\n      add\n        /* \"#utility.yul\":2673:2698   */\n      dup5\n      swap1\n      mstore\n        /* \"#utility.yul\":2646:2664   */\n      0x24\n      add\n        /* \"@openzeppelin/contracts/token/ERC721/ERC721.sol\":16029:16060   */\n      tag_260\n        /* \"#utility.yul\":2527:2704   */\n      jump\n        /* \"@openzeppelin/contracts/token/ERC721/ERC721.sol\":14138:14258   */\n    tag_304:\n        /* \"@openzeppelin/contracts/token/ERC721/ERC721.sol\":14218:14251   */\n      tag_287\n        /* \"@openzeppelin/contracts/token/ERC721/ERC721.sol\":14227:14229   */\n      dup4\n        /* \"@openzeppelin/contracts/token/ERC721/ERC721.sol\":14231:14238   */\n      dup4\n        /* \"@openzeppelin/contracts/token/ERC721/ERC721.sol\":14240:14244   */\n      dup4\n        /* \"@openzeppelin/contracts/token/ERC721/ERC721.sol\":14246:14250   */\n      0x01\n        /* \"@openzeppelin/contracts/token/ERC721/ERC721.sol\":14218:14226   */\n      tag_521\n        /* \"@openzeppelin/contracts/token/ERC721/ERC721.sol\":14218:14251   */\n      jump\t// in\n        /* \"@openzeppelin/contracts/access/Ownable.sol\":1796:1958   */\n    tag_307:\n        /* \"@openzeppelin/contracts/access/Ownable.sol\":1866:1878   */\n      tag_523\n        /* \"@openzeppelin/contracts/access/Ownable.sol\":1866:1876   */\n      tag_266\n        /* \"@openzeppelin/contracts/access/Ownable.sol\":1866:1878   */\n      jump\t// in\n    tag_523:\n      sub(shl(0xa0, 0x01), 0x01)\n        /* \"@openzeppelin/contracts/access/Ownable.sol\":1855:1878   */\n      and\n        /* \"@openzeppelin/contracts/access/Ownable.sol\":1855:1862   */\n      tag_524\n        /* \"@openzeppelin/contracts/access/Ownable.sol\":1710:1716   */\n      and(sub(shl(0xa0, 0x01), 0x01), sload(0x06))\n      swap1\n        /* \"@openzeppelin/contracts/access/Ownable.sol\":1638:1723   */\n      jump\n        /* \"@openzeppelin/contracts/access/Ownable.sol\":1855:1862   */\n    tag_524:\n      sub(shl(0xa0, 0x01), 0x01)\n        /* \"@openzeppelin/contracts/access/Ownable.sol\":1855:1878   */\n      and\n      eq\n        /* \"@openzeppelin/contracts/access/Ownable.sol\":1851:1952   */\n      tag_339\n      jumpi\n        /* \"@openzeppelin/contracts/access/Ownable.sol\":1928:1940   */\n      tag_526\n        /* \"@openzeppelin/contracts/access/Ownable.sol\":1928:1938   */\n      tag_266\n        /* \"@openzeppelin/contracts/access/Ownable.sol\":1928:1940   */\n      jump\t// in\n    tag_526:\n        /* \"@openzeppelin/contracts/access/Ownable.sol\":1901:1941   */\n      mload(0x40)\n      shl(0xe0, 0x118cdaa7)\n      dup2\n      mstore\n      sub(shl(0xa0, 0x01), 0x01)\n        /* \"#utility.yul\":2016:2071   */\n      swap1\n      swap2\n      and\n        /* \"@openzeppelin/contracts/access/Ownable.sol\":1901:1941   */\n      0x04\n      dup3\n      add\n        /* \"#utility.yul\":1998:2072   */\n      mstore\n        /* \"#utility.yul\":1971:1989   */\n      0x24\n      add\n        /* \"@openzeppelin/contracts/access/Ownable.sol\":1901:1941   */\n      tag_260\n        /* \"#utility.yul\":1852:2078   */\n      jump\n        /* \"PandorasKey.sol\":2783:3086  function _update(address to, uint256 tokenId, address auth) internal virtual override returns (address) {... */\n    tag_345:\n        /* \"PandorasKey.sol\":2878:2885  address */\n      0x00\n        /* \"@openzeppelin/contracts/token/ERC721/ERC721.sol\":5470:5486   */\n      dup3\n      dup2\n      mstore\n        /* \"@openzeppelin/contracts/token/ERC721/ERC721.sol\":5470:5477   */\n      0x02\n        /* \"@openzeppelin/contracts/token/ERC721/ERC721.sol\":5470:5486   */\n      0x20\n      mstore\n      0x40\n      dup2\n      keccak256\n      sload\n      sub(shl(0xa0, 0x01), 0x01)\n      and\n        /* \"PandorasKey.sol\":2901:2932  _ownerOf(tokenId) != address(0) */\n      iszero\n      dup1\n      iszero\n      swap1\n        /* \"PandorasKey.sol\":2901:2952  _ownerOf(tokenId) != address(0) && to != address(0) */\n      tag_530\n      jumpi\n      pop\n      sub(shl(0xa0, 0x01), 0x01)\n        /* \"PandorasKey.sol\":2936:2952  to != address(0) */\n      dup5\n      and\n      iszero\n      iszero\n        /* \"PandorasKey.sol\":2901:2952  _ownerOf(tokenId) != address(0) && to != address(0) */\n    tag_530:\n        /* \"PandorasKey.sol\":2897:3031  if (_ownerOf(tokenId) != address(0) && to != address(0)) {... */\n      iszero\n      tag_531\n      jumpi\n        /* \"PandorasKey.sol\":2968:3020  revert(\"PandorasKey: This NFT is non-transferable.\") */\n      mload(0x40)\n      shl(0xe5, 0x461bcd)\n      dup2\n      mstore\n        /* \"#utility.yul\":14234:14236   */\n      0x20\n        /* \"PandorasKey.sol\":2968:3020  revert(\"PandorasKey: This NFT is non-transferable.\") */\n      0x04\n      dup3\n      add\n        /* \"#utility.yul\":14216:14237   */\n      mstore\n        /* \"#utility.yul\":14273:14275   */\n      0x2a\n        /* \"#utility.yul\":14253:14271   */\n      0x24\n      dup3\n      add\n        /* \"#utility.yul\":14246:14276   */\n      mstore\n        /* \"#utility.yul\":14312:14346   */\n      0x50616e646f7261734b65793a2054686973204e4654206973206e6f6e2d747261\n        /* \"#utility.yul\":14292:14310   */\n      0x44\n      dup3\n      add\n        /* \"#utility.yul\":14285:14347   */\n      mstore\n        /* \"#utility.yul\":14383:14395   */\n      0x6e7366657261626c652e00000000000000000000000000000000000000000000\n        /* \"#utility.yul\":14363:14381   */\n      0x64\n      dup3\n      add\n        /* \"#utility.yul\":14356:14396   */\n      mstore\n        /* \"#utility.yul\":14413:14432   */\n      0x84\n      add\n        /* \"PandorasKey.sol\":2968:3020  revert(\"PandorasKey: This NFT is non-transferable.\") */\n      tag_260\n        /* \"#utility.yul\":14032:14438   */\n      jump\n        /* \"PandorasKey.sol\":2897:3031  if (_ownerOf(tokenId) != address(0) && to != address(0)) {... */\n    tag_531:\n        /* \"PandorasKey.sol\":3047:3079  super._update(to, tokenId, auth) */\n      tag_534\n        /* \"PandorasKey.sol\":3061:3063  to */\n      dup5\n        /* \"PandorasKey.sol\":3065:3072  tokenId */\n      dup5\n        /* \"PandorasKey.sol\":3074:3078  auth */\n      dup5\n        /* \"PandorasKey.sol\":3047:3060  super._update */\n      tag_535\n        /* \"PandorasKey.sol\":3047:3079  super._update(to, tokenId, auth) */\n      jump\t// in\n    tag_534:\n        /* \"PandorasKey.sol\":3040:3079  return super._update(to, tokenId, auth) */\n      swap5\n        /* \"PandorasKey.sol\":2783:3086  function _update(address to, uint256 tokenId, address auth) internal virtual override returns (address) {... */\n      swap4\n      pop\n      pop\n      pop\n      pop\n      jump\t// out\n        /* \"@openzeppelin/contracts/access/AccessControl.sol\":3175:3278   */\n    tag_353:\n        /* \"@openzeppelin/contracts/access/AccessControl.sol\":3241:3271   */\n      tag_383\n        /* \"@openzeppelin/contracts/access/AccessControl.sol\":3252:3256   */\n      dup2\n        /* \"@openzeppelin/contracts/access/AccessControl.sol\":3258:3270   */\n      tag_538\n        /* \"@openzeppelin/contracts/access/AccessControl.sol\":3258:3268   */\n      tag_266\n        /* \"@openzeppelin/contracts/access/AccessControl.sol\":3258:3270   */\n      jump\t// in\n    tag_538:\n        /* \"@openzeppelin/contracts/access/AccessControl.sol\":3241:3251   */\n      tag_539\n        /* \"@openzeppelin/contracts/access/AccessControl.sol\":3241:3271   */\n      jump\t// in\n        /* \"@openzeppelin/contracts/access/AccessControl.sol\":6155:6471   */\n    tag_356:\n        /* \"@openzeppelin/contracts/access/AccessControl.sol\":6232:6236   */\n      0x00\n        /* \"@openzeppelin/contracts/access/AccessControl.sol\":2930:2942   */\n      dup3\n      dup2\n      mstore\n        /* \"@openzeppelin/contracts/access/AccessControl.sol\":2930:2936   */\n      0x07\n        /* \"@openzeppelin/contracts/access/AccessControl.sol\":2930:2942   */\n      0x20\n      swap1\n      dup2\n      mstore\n      0x40\n      dup1\n      dup4\n      keccak256\n      sub(shl(0xa0, 0x01), 0x01)\n        /* \"@openzeppelin/contracts/access/AccessControl.sol\":2930:2959   */\n      dup6\n      and\n      dup5\n      mstore\n      swap1\n      swap2\n      mstore\n      dup2\n      keccak256\n      sload\n      0xff\n      and\n        /* \"@openzeppelin/contracts/access/AccessControl.sol\":6248:6465   */\n      tag_542\n      jumpi\n        /* \"@openzeppelin/contracts/access/AccessControl.sol\":6291:6303   */\n      0x00\n      dup4\n      dup2\n      mstore\n        /* \"@openzeppelin/contracts/access/AccessControl.sol\":6291:6297   */\n      0x07\n        /* \"@openzeppelin/contracts/access/AccessControl.sol\":6291:6303   */\n      0x20\n      swap1\n      dup2\n      mstore\n      0x40\n      dup1\n      dup4\n      keccak256\n      sub(shl(0xa0, 0x01), 0x01)\n        /* \"@openzeppelin/contracts/access/AccessControl.sol\":6291:6320   */\n      dup7\n      and\n      dup5\n      mstore\n      swap1\n      swap2\n      mstore\n      swap1\n      keccak256\n        /* \"@openzeppelin/contracts/access/AccessControl.sol\":6291:6327   */\n      dup1\n      sload\n      not(0xff)\n      and\n        /* \"@openzeppelin/contracts/access/AccessControl.sol\":6323:6327   */\n      0x01\n        /* \"@openzeppelin/contracts/access/AccessControl.sol\":6291:6327   */\n      or\n      swap1\n      sstore\n        /* \"@openzeppelin/contracts/access/AccessControl.sol\":6373:6385   */\n      tag_543\n        /* \"@openzeppelin/contracts/access/AccessControl.sol\":6373:6383   */\n      tag_266\n        /* \"@openzeppelin/contracts/access/AccessControl.sol\":6373:6385   */\n      jump\t// in\n    tag_543:\n      sub(shl(0xa0, 0x01), 0x01)\n        /* \"@openzeppelin/contracts/access/AccessControl.sol\":6346:6386   */\n      and\n        /* \"@openzeppelin/contracts/access/AccessControl.sol\":6364:6371   */\n      dup3\n      sub(shl(0xa0, 0x01), 0x01)\n        /* \"@openzeppelin/contracts/access/AccessControl.sol\":6346:6386   */\n      and\n        /* \"@openzeppelin/contracts/access/AccessControl.sol\":6358:6362   */\n      dup5\n        /* \"@openzeppelin/contracts/access/AccessControl.sol\":6346:6386   */\n      0x2f8788117e7eff1d82e926ec794901d17c78024a50270940304540a733656f0d\n      mload(0x40)\n      mload(0x40)\n      dup1\n      swap2\n      sub\n      swap1\n      log4\n      pop\n        /* \"@openzeppelin/contracts/access/AccessControl.sol\":6407:6411   */\n      0x01\n        /* \"@openzeppelin/contracts/access/AccessControl.sol\":6400:6411   */\n      jump(tag_252)\n        /* \"@openzeppelin/contracts/access/AccessControl.sol\":6248:6465   */\n    tag_542:\n      pop\n        /* \"@openzeppelin/contracts/access/AccessControl.sol\":6449:6454   */\n      0x00\n        /* \"@openzeppelin/contracts/access/AccessControl.sol\":6442:6454   */\n      jump(tag_252)\n        /* \"@openzeppelin/contracts/access/AccessControl.sol\":6708:7025   */\n    tag_367:\n        /* \"@openzeppelin/contracts/access/AccessControl.sol\":6786:6790   */\n      0x00\n        /* \"@openzeppelin/contracts/access/AccessControl.sol\":2930:2942   */\n      dup3\n      dup2\n      mstore\n        /* \"@openzeppelin/contracts/access/AccessControl.sol\":2930:2936   */\n      0x07\n        /* \"@openzeppelin/contracts/access/AccessControl.sol\":2930:2942   */\n      0x20\n      swap1\n      dup2\n      mstore\n      0x40\n      dup1\n      dup4\n      keccak256\n      sub(shl(0xa0, 0x01), 0x01)\n        /* \"@openzeppelin/contracts/access/AccessControl.sol\":2930:2959   */\n      dup6\n      and\n      dup5\n      mstore\n      swap1\n      swap2\n      mstore\n      dup2\n      keccak256\n      sload\n      0xff\n      and\n        /* \"@openzeppelin/contracts/access/AccessControl.sol\":6802:7019   */\n      iszero\n      tag_542\n      jumpi\n        /* \"@openzeppelin/contracts/access/AccessControl.sol\":6876:6881   */\n      0x00\n        /* \"@openzeppelin/contracts/access/AccessControl.sol\":6844:6856   */\n      dup4\n      dup2\n      mstore\n        /* \"@openzeppelin/contracts/access/AccessControl.sol\":6844:6850   */\n      0x07\n        /* \"@openzeppelin/contracts/access/AccessControl.sol\":6844:6856   */\n      0x20\n      swap1\n      dup2\n      mstore\n      0x40\n      dup1\n      dup4\n      keccak256\n      sub(shl(0xa0, 0x01), 0x01)\n        /* \"@openzeppelin/contracts/access/AccessControl.sol\":6844:6873   */\n      dup7\n      and\n      dup5\n      mstore\n      swap1\n      swap2\n      mstore\n      swap1\n      keccak256\n        /* \"@openzeppelin/contracts/access/AccessControl.sol\":6844:6881   */\n      dup1\n      sload\n      not(0xff)\n      and\n      swap1\n      sstore\n        /* \"@openzeppelin/contracts/access/AccessControl.sol\":6927:6939   */\n      tag_548\n        /* \"@openzeppelin/contracts/access/AccessControl.sol\":6927:6937   */\n      tag_266\n        /* \"@openzeppelin/contracts/access/AccessControl.sol\":6927:6939   */\n      jump\t// in\n    tag_548:\n      sub(shl(0xa0, 0x01), 0x01)\n        /* \"@openzeppelin/contracts/access/AccessControl.sol\":6900:6940   */\n      and\n        /* \"@openzeppelin/contracts/access/AccessControl.sol\":6918:6925   */\n      dup3\n      sub(shl(0xa0, 0x01), 0x01)\n        /* \"@openzeppelin/contracts/access/AccessControl.sol\":6900:6940   */\n      and\n        /* \"@openzeppelin/contracts/access/AccessControl.sol\":6912:6916   */\n      dup5\n        /* \"@openzeppelin/contracts/access/AccessControl.sol\":6900:6940   */\n      0xf6391f5c32d9c69d2a47ea670b442974b53935d1edc7fd64eb21e047a839171b\n      mload(0x40)\n      mload(0x40)\n      dup1\n      swap2\n      sub\n      swap1\n      log4\n      pop\n        /* \"@openzeppelin/contracts/access/AccessControl.sol\":6961:6965   */\n      0x01\n        /* \"@openzeppelin/contracts/access/AccessControl.sol\":6954:6965   */\n      jump(tag_252)\n        /* \"@openzeppelin/contracts/token/ERC721/ERC721.sol\":10302:10402   */\n    tag_397:\n        /* \"@openzeppelin/contracts/token/ERC721/ERC721.sol\":10369:10395   */\n      tag_302\n        /* \"@openzeppelin/contracts/token/ERC721/ERC721.sol\":10379:10381   */\n      dup3\n        /* \"@openzeppelin/contracts/token/ERC721/ERC721.sol\":10383:10390   */\n      dup3\n        /* \"@openzeppelin/contracts/token/ERC721/ERC721.sol\":10369:10395   */\n      mload(0x40)\n      dup1\n      0x20\n      add\n      0x40\n      mstore\n      dup1\n      0x00\n      dup2\n      mstore\n      pop\n        /* \"@openzeppelin/contracts/token/ERC721/ERC721.sol\":10369:10378   */\n      tag_552\n        /* \"@openzeppelin/contracts/token/ERC721/ERC721.sol\":10369:10395   */\n      jump\t// in\n        /* \"@openzeppelin/contracts/access/Ownable.sol\":2912:3099   */\n    tag_410:\n        /* \"@openzeppelin/contracts/access/Ownable.sol\":3004:3010   */\n      0x06\n      dup1\n      sload\n      sub(shl(0xa0, 0x01), 0x01)\n        /* \"@openzeppelin/contracts/access/Ownable.sol\":3020:3037   */\n      dup4\n      dup2\n      and\n      not(sub(shl(0xa0, 0x01), 0x01))\n      dup4\n      and\n      dup2\n      or\n      swap1\n      swap4\n      sstore\n        /* \"@openzeppelin/contracts/access/Ownable.sol\":3052:3092   */\n      mload(0x40)\n        /* \"@openzeppelin/contracts/access/Ownable.sol\":3004:3010   */\n      swap2\n      and\n      swap2\n        /* \"@openzeppelin/contracts/access/Ownable.sol\":3020:3037   */\n      swap1\n        /* \"@openzeppelin/contracts/access/Ownable.sol\":3004:3010   */\n      dup3\n      swap1\n        /* \"@openzeppelin/contracts/access/Ownable.sol\":3052:3092   */\n      0x8be0079c531659141344cd1fd0a4f28419497f9722a3daafe3b4186f6b6457e0\n      swap1\n        /* \"@openzeppelin/contracts/access/Ownable.sol\":2985:3001   */\n      0x00\n      swap1\n        /* \"@openzeppelin/contracts/access/Ownable.sol\":3052:3092   */\n      log3\n        /* \"@openzeppelin/contracts/access/Ownable.sol\":2975:3099   */\n      pop\n        /* \"@openzeppelin/contracts/access/Ownable.sol\":2912:3099   */\n      pop\n      jump\t// out\n        /* \"@openzeppelin/contracts/token/ERC721/ERC721.sol\":11156:11383   */\n    tag_441:\n        /* \"@openzeppelin/contracts/token/ERC721/ERC721.sol\":11207:11228   */\n      0x00\n        /* \"@openzeppelin/contracts/token/ERC721/ERC721.sol\":11231:11271   */\n      tag_556\n        /* \"@openzeppelin/contracts/token/ERC721/ERC721.sol\":11247:11248   */\n      0x00\n        /* \"@openzeppelin/contracts/token/ERC721/ERC721.sol\":11251:11258   */\n      dup4\n        /* \"@openzeppelin/contracts/token/ERC721/ERC721.sol\":11268:11269   */\n      0x00\n        /* \"@openzeppelin/contracts/token/ERC721/ERC721.sol\":11231:11238   */\n      tag_345\n        /* \"@openzeppelin/contracts/token/ERC721/ERC721.sol\":11231:11271   */\n      jump\t// in\n    tag_556:\n        /* \"@openzeppelin/contracts/token/ERC721/ERC721.sol\":11207:11271   */\n      swap1\n      pop\n      sub(shl(0xa0, 0x01), 0x01)\n        /* \"@openzeppelin/contracts/token/ERC721/ERC721.sol\":11285:11312   */\n      dup2\n      and\n        /* \"@openzeppelin/contracts/token/ERC721/ERC721.sol\":11281:11377   */\n      tag_302\n      jumpi\n        /* \"@openzeppelin/contracts/token/ERC721/ERC721.sol\":11335:11366   */\n      mload(0x40)\n      shl(0xe0, 0x7e273289)\n      dup2\n      mstore\n      0x04\n      dup2\n      add\n        /* \"#utility.yul\":2673:2698   */\n      dup4\n      swap1\n      mstore\n        /* \"#utility.yul\":2646:2664   */\n      0x24\n      add\n        /* \"@openzeppelin/contracts/token/ERC721/ERC721.sol\":11335:11366   */\n      tag_260\n        /* \"#utility.yul\":2527:2704   */\n      jump\n        /* \"@openzeppelin/contracts/token/ERC721/ERC721.sol\":15311:15623   */\n    tag_455:\n      sub(shl(0xa0, 0x01), 0x01)\n        /* \"@openzeppelin/contracts/token/ERC721/ERC721.sol\":15418:15440   */\n      dup3\n      and\n        /* \"@openzeppelin/contracts/token/ERC721/ERC721.sol\":15414:15505   */\n      tag_560\n      jumpi\n        /* \"@openzeppelin/contracts/token/ERC721/ERC721.sol\":15463:15494   */\n      mload(0x40)\n      shl(0xe3, 0x0b611743)\n      dup2\n      mstore\n      sub(shl(0xa0, 0x01), 0x01)\n        /* \"#utility.yul\":2016:2071   */\n      dup4\n      and\n        /* \"@openzeppelin/contracts/token/ERC721/ERC721.sol\":15463:15494   */\n      0x04\n      dup3\n      add\n        /* \"#utility.yul\":1998:2072   */\n      mstore\n        /* \"#utility.yul\":1971:1989   */\n      0x24\n      add\n        /* \"@openzeppelin/contracts/token/ERC721/ERC721.sol\":15463:15494   */\n      tag_260\n        /* \"#utility.yul\":1852:2078   */\n      jump\n        /* \"@openzeppelin/contracts/token/ERC721/ERC721.sol\":15414:15505   */\n    tag_560:\n      sub(shl(0xa0, 0x01), 0x01)\n        /* \"@openzeppelin/contracts/token/ERC721/ERC721.sol\":15514:15539   */\n      dup4\n      dup2\n      and\n      0x00\n      dup2\n      dup2\n      mstore\n        /* \"@openzeppelin/contracts/token/ERC721/ERC721.sol\":15514:15532   */\n      0x05\n        /* \"@openzeppelin/contracts/token/ERC721/ERC721.sol\":15514:15539   */\n      0x20\n      swap1\n      dup2\n      mstore\n      0x40\n      dup1\n      dup4\n      keccak256\n        /* \"@openzeppelin/contracts/token/ERC721/ERC721.sol\":15514:15549   */\n      swap5\n      dup8\n      and\n      dup1\n      dup5\n      mstore\n      swap5\n      dup3\n      mstore\n      swap2\n      dup3\n      swap1\n      keccak256\n        /* \"@openzeppelin/contracts/token/ERC721/ERC721.sol\":15514:15560   */\n      dup1\n      sload\n      not(0xff)\n      and\n      dup7\n      iszero\n      iszero\n      swap1\n      dup2\n      or\n      swap1\n      swap2\n      sstore\n        /* \"@openzeppelin/contracts/token/ERC721/ERC721.sol\":15575:15616   */\n      swap2\n      mload\n        /* \"#utility.yul\":540:581   */\n      swap2\n      dup3\n      mstore\n        /* \"@openzeppelin/contracts/token/ERC721/ERC721.sol\":15575:15616   */\n      0x17307eab39ab6107e8899845ad3d59bd9653f200f220920489ca2b5937696c31\n      swap2\n        /* \"#utility.yul\":513:531   */\n      add\n        /* \"@openzeppelin/contracts/token/ERC721/ERC721.sol\":15575:15616   */\n      mload(0x40)\n      dup1\n      swap2\n      sub\n      swap1\n      log3\n        /* \"@openzeppelin/contracts/token/ERC721/ERC721.sol\":15311:15623   */\n      pop\n      pop\n      pop\n      jump\t// out\n        /* \"@openzeppelin/contracts/token/ERC721/utils/ERC721Utils.sol\":993:1919   */\n    tag_476:\n      sub(shl(0xa0, 0x01), 0x01)\n        /* \"@openzeppelin/contracts/token/ERC721/utils/ERC721Utils.sol\":1173:1187   */\n      dup4\n      and\n      extcodesize\n        /* \"@openzeppelin/contracts/token/ERC721/utils/ERC721Utils.sol\":1173:1191   */\n      iszero\n        /* \"@openzeppelin/contracts/token/ERC721/utils/ERC721Utils.sol\":1169:1913   */\n      tag_471\n      jumpi\n        /* \"@openzeppelin/contracts/token/ERC721/utils/ERC721Utils.sol\":1211:1278   */\n      mload(0x40)\n      shl(0xe1, 0x0a85bd01)\n      dup2\n      mstore\n      sub(shl(0xa0, 0x01), 0x01)\n        /* \"@openzeppelin/contracts/token/ERC721/utils/ERC721Utils.sol\":1211:1247   */\n      dup5\n      and\n      swap1\n      0x150b7a02\n      swap1\n        /* \"@openzeppelin/contracts/token/ERC721/utils/ERC721Utils.sol\":1211:1278   */\n      tag_565\n      swap1\n        /* \"@openzeppelin/contracts/token/ERC721/utils/ERC721Utils.sol\":1248:1256   */\n      dup9\n      swap1\n        /* \"@openzeppelin/contracts/token/ERC721/utils/ERC721Utils.sol\":1258:1262   */\n      dup9\n      swap1\n        /* \"@openzeppelin/contracts/token/ERC721/utils/ERC721Utils.sol\":1264:1271   */\n      dup8\n      swap1\n        /* \"@openzeppelin/contracts/token/ERC721/utils/ERC721Utils.sol\":1273:1277   */\n      dup8\n      swap1\n        /* \"@openzeppelin/contracts/token/ERC721/utils/ERC721Utils.sol\":1211:1278   */\n      0x04\n      add\n      tag_566\n      jump\t// in\n    tag_565:\n      0x20\n      mload(0x40)\n      dup1\n      dup4\n      sub\n      dup2\n      0x00\n      dup8\n      gas\n      call\n      swap3\n      pop\n      pop\n      pop\n      dup1\n      iszero\n      tag_567\n      jumpi\n      pop\n      0x40\n      dup1\n      mload\n      0x1f\n      returndatasize\n      swap1\n      dup2\n      add\n      not(0x1f)\n      and\n      dup3\n      add\n      swap1\n      swap3\n      mstore\n      tag_568\n      swap2\n      dup2\n      add\n      swap1\n      tag_569\n      jump\t// in\n    tag_568:\n      0x01\n    tag_567:\n        /* \"@openzeppelin/contracts/token/ERC721/utils/ERC721Utils.sol\":1207:1903   */\n      tag_570\n      jumpi\n      returndatasize\n      dup1\n      dup1\n      iszero\n      tag_575\n      jumpi\n      mload(0x40)\n      swap2\n      pop\n      and(add(returndatasize, 0x3f), not(0x1f))\n      dup3\n      add\n      0x40\n      mstore\n      returndatasize\n      dup3\n      mstore\n      returndatasize\n      0x00\n      0x20\n      dup5\n      add\n      returndatacopy\n      jump(tag_574)\n    tag_575:\n      0x60\n      swap2\n      pop\n    tag_574:\n      pop\n        /* \"@openzeppelin/contracts/token/ERC721/utils/ERC721Utils.sol\":1568:1574   */\n      dup1\n        /* \"@openzeppelin/contracts/token/ERC721/utils/ERC721Utils.sol\":1568:1581   */\n      mload\n        /* \"@openzeppelin/contracts/token/ERC721/utils/ERC721Utils.sol\":1585:1586   */\n      0x00\n        /* \"@openzeppelin/contracts/token/ERC721/utils/ERC721Utils.sol\":1568:1586   */\n      sub\n        /* \"@openzeppelin/contracts/token/ERC721/utils/ERC721Utils.sol\":1564:1889   */\n      tag_576\n      jumpi\n        /* \"@openzeppelin/contracts/token/ERC721/utils/ERC721Utils.sol\":1672:1711   */\n      mload(0x40)\n      shl(0xe1, 0x32505749)\n      dup2\n      mstore\n      sub(shl(0xa0, 0x01), 0x01)\n        /* \"#utility.yul\":2016:2071   */\n      dup6\n      and\n        /* \"@openzeppelin/contracts/token/ERC721/utils/ERC721Utils.sol\":1672:1711   */\n      0x04\n      dup3\n      add\n        /* \"#utility.yul\":1998:2072   */\n      mstore\n        /* \"#utility.yul\":1971:1989   */\n      0x24\n      add\n        /* \"@openzeppelin/contracts/token/ERC721/utils/ERC721Utils.sol\":1672:1711   */\n      tag_260\n        /* \"#utility.yul\":1852:2078   */\n      jump\n        /* \"@openzeppelin/contracts/token/ERC721/utils/ERC721Utils.sol\":1564:1889   */\n    tag_576:\n        /* \"@openzeppelin/contracts/token/ERC721/utils/ERC721Utils.sol\":1841:1847   */\n      dup1\n        /* \"@openzeppelin/contracts/token/ERC721/utils/ERC721Utils.sol\":1835:1848   */\n      mload\n        /* \"@openzeppelin/contracts/token/ERC721/utils/ERC721Utils.sol\":1828:1832   */\n      0x20\n        /* \"@openzeppelin/contracts/token/ERC721/utils/ERC721Utils.sol\":1820:1826   */\n      dup3\n        /* \"@openzeppelin/contracts/token/ERC721/utils/ERC721Utils.sol\":1816:1833   */\n      add\n        /* \"@openzeppelin/contracts/token/ERC721/utils/ERC721Utils.sol\":1809:1849   */\n      revert\n        /* \"@openzeppelin/contracts/token/ERC721/utils/ERC721Utils.sol\":1207:1903   */\n    tag_570:\n      not(sub(shl(0xe0, 0x01), 0x01))\n        /* \"@openzeppelin/contracts/token/ERC721/utils/ERC721Utils.sol\":1325:1376   */\n      dup2\n      and\n      shl(0xe1, 0x0a85bd01)\n      eq\n        /* \"@openzeppelin/contracts/token/ERC721/utils/ERC721Utils.sol\":1321:1503   */\n      tag_580\n      jumpi\n        /* \"@openzeppelin/contracts/token/ERC721/utils/ERC721Utils.sol\":1445:1484   */\n      mload(0x40)\n      shl(0xe1, 0x32505749)\n      dup2\n      mstore\n      sub(shl(0xa0, 0x01), 0x01)\n        /* \"#utility.yul\":2016:2071   */\n      dup6\n      and\n        /* \"@openzeppelin/contracts/token/ERC721/utils/ERC721Utils.sol\":1445:1484   */\n      0x04\n      dup3\n      add\n        /* \"#utility.yul\":1998:2072   */\n      mstore\n        /* \"#utility.yul\":1971:1989   */\n      0x24\n      add\n        /* \"@openzeppelin/contracts/token/ERC721/utils/ERC721Utils.sol\":1445:1484   */\n      tag_260\n        /* \"#utility.yul\":1852:2078   */\n      jump\n        /* \"@openzeppelin/contracts/token/ERC721/utils/ERC721Utils.sol\":1321:1503   */\n    tag_580:\n        /* \"@openzeppelin/contracts/token/ERC721/utils/ERC721Utils.sol\":1279:1517   */\n      pop\n        /* \"@openzeppelin/contracts/token/ERC721/utils/ERC721Utils.sol\":993:1919   */\n      pop\n      pop\n      pop\n      pop\n      pop\n      jump\t// out\n        /* \"@openzeppelin/contracts/utils/Strings.sol\":1308:1942   */\n    tag_484:\n        /* \"@openzeppelin/contracts/utils/Strings.sol\":1364:1377   */\n      0x60\n        /* \"@openzeppelin/contracts/utils/Strings.sol\":1413:1427   */\n      0x00\n        /* \"@openzeppelin/contracts/utils/Strings.sol\":1430:1447   */\n      tag_584\n        /* \"@openzeppelin/contracts/utils/Strings.sol\":1441:1446   */\n      dup4\n        /* \"@openzeppelin/contracts/utils/Strings.sol\":1430:1440   */\n      tag_585\n        /* \"@openzeppelin/contracts/utils/Strings.sol\":1430:1447   */\n      jump\t// in\n    tag_584:\n        /* \"@openzeppelin/contracts/utils/Strings.sol\":1450:1451   */\n      0x01\n        /* \"@openzeppelin/contracts/utils/Strings.sol\":1430:1451   */\n      add\n        /* \"@openzeppelin/contracts/utils/Strings.sol\":1413:1451   */\n      swap1\n      pop\n        /* \"@openzeppelin/contracts/utils/Strings.sol\":1465:1485   */\n      0x00\n        /* \"@openzeppelin/contracts/utils/Strings.sol\":1499:1505   */\n      dup2\n        /* \"@openzeppelin/contracts/utils/Strings.sol\":1488:1506   */\n      0xffffffffffffffff\n      dup2\n      gt\n      iszero\n      tag_587\n      jumpi\n      tag_587\n      tag_588\n      jump\t// in\n    tag_587:\n      mload(0x40)\n      swap1\n      dup1\n      dup3\n      mstore\n      dup1\n      0x1f\n      add\n      not(0x1f)\n      and\n      0x20\n      add\n      dup3\n      add\n      0x40\n      mstore\n      dup1\n      iszero\n      tag_589\n      jumpi\n      0x20\n      dup3\n      add\n      dup2\n      dup1\n      calldatasize\n      dup4\n      calldatacopy\n      add\n      swap1\n      pop\n    tag_589:\n      pop\n        /* \"@openzeppelin/contracts/utils/Strings.sol\":1465:1506   */\n      swap1\n      pop\n        /* \"@openzeppelin/contracts/utils/Strings.sol\":1595:1625   */\n      dup2\n      dup2\n      add\n        /* \"@openzeppelin/contracts/utils/Strings.sol\":1611:1615   */\n      0x20\n        /* \"@openzeppelin/contracts/utils/Strings.sol\":1595:1625   */\n      add\n        /* \"@openzeppelin/contracts/utils/Strings.sol\":1652:1899   */\n    tag_590:\n      not(0x00)\n        /* \"@openzeppelin/contracts/utils/Strings.sol\":1683:1688   */\n      add\n        /* \"@openzeppelin/contracts/utils/Strings.sol\":1787:1797   */\n      0x3031323334353637383961626364656600000000000000000000000000000000\n        /* \"@openzeppelin/contracts/utils/Strings.sol\":1782:1784   */\n      0x0a\n        /* \"@openzeppelin/contracts/utils/Strings.sol\":1771:1785   */\n      dup7\n      mod\n        /* \"@openzeppelin/contracts/utils/Strings.sol\":1766:1798   */\n      byte\n        /* \"@openzeppelin/contracts/utils/Strings.sol\":1683:1688   */\n      dup2\n        /* \"@openzeppelin/contracts/utils/Strings.sol\":1753:1799   */\n      mstore8\n        /* \"@openzeppelin/contracts/utils/Strings.sol\":1843:1845   */\n      0x0a\n        /* \"@openzeppelin/contracts/utils/Strings.sol\":1834:1845   */\n      dup6\n      div\n      swap5\n      pop\n        /* \"@openzeppelin/contracts/utils/Strings.sol\":1863:1884   */\n      dup5\n        /* \"@openzeppelin/contracts/utils/Strings.sol\":1652:1899   */\n      tag_590\n        /* \"@openzeppelin/contracts/utils/Strings.sol\":1863:1884   */\n      jumpi\n      pop\n        /* \"@openzeppelin/contracts/utils/Strings.sol\":1919:1925   */\n      swap4\n        /* \"@openzeppelin/contracts/utils/Strings.sol\":1308:1942   */\n      swap3\n      pop\n      pop\n      pop\n      jump\t// out\n        /* \"@openzeppelin/contracts/token/ERC721/ERC721.sol\":1527:1827   */\n    tag_507:\n        /* \"@openzeppelin/contracts/token/ERC721/ERC721.sol\":1629:1633   */\n      0x00\n      not(sub(shl(0xe0, 0x01), 0x01))\n        /* \"@openzeppelin/contracts/token/ERC721/ERC721.sol\":1664:1704   */\n      dup3\n      and\n      shl(0xe0, 0x80ac58cd)\n      eq\n      dup1\n        /* \"@openzeppelin/contracts/token/ERC721/ERC721.sol\":1664:1768   */\n      tag_597\n      jumpi\n      pop\n      not(sub(shl(0xe0, 0x01), 0x01))\n        /* \"@openzeppelin/contracts/token/ERC721/ERC721.sol\":1720:1768   */\n      dup3\n      and\n      shl(0xe0, 0x5b5e139f)\n      eq\n        /* \"@openzeppelin/contracts/token/ERC721/ERC721.sol\":1664:1768   */\n    tag_597:\n        /* \"@openzeppelin/contracts/token/ERC721/ERC721.sol\":1664:1820   */\n      dup1\n      tag_252\n      jumpi\n      pop\n      shl(0xe0, 0x01ffc9a7)\n      not(sub(shl(0xe0, 0x01), 0x01))\n        /* \"@openzeppelin/contracts/utils/introspection/ERC165.sol\":829:869   */\n      dup4\n      and\n      eq\n        /* \"@openzeppelin/contracts/token/ERC721/ERC721.sol\":1784:1820   */\n      tag_252\n        /* \"@openzeppelin/contracts/utils/introspection/ERC165.sol\":730:876   */\n      jump\n        /* \"@openzeppelin/contracts/metatx/ERC2771Context.sol\":2206:2677   */\n    tag_512:\n        /* \"@openzeppelin/contracts/metatx/ERC2771Context.sol\":2268:2275   */\n      0x00\n        /* \"@openzeppelin/contracts/metatx/ERC2771Context.sol\":2312:2320   */\n      calldatasize\n        /* \"@openzeppelin/contracts/metatx/ERC2771Context.sol\":3567:3569   */\n      0x14\n        /* \"@openzeppelin/contracts/metatx/ERC2771Context.sol\":2403:2440   */\n      dup1\n      dup3\n      lt\n      dup1\n      iszero\n      swap1\n        /* \"@openzeppelin/contracts/metatx/ERC2771Context.sol\":2403:2474   */\n      tag_605\n      jumpi\n      pop\n        /* \"@openzeppelin/contracts/metatx/ERC2771Context.sol\":1707:1724   */\n      immutable(\"0x9c48eb4d6dc530eaebd0f3a44ad308cfb11d94508e17428616734d2b6609a4de\")\n      sub(shl(0xa0, 0x01), 0x01)\n        /* \"@openzeppelin/contracts/metatx/ERC2771Context.sol\":1931:1962   */\n      and\n        /* \"@openzeppelin/contracts/metatx/ERC2771Context.sol\":2463:2473   */\n      caller\n        /* \"@openzeppelin/contracts/metatx/ERC2771Context.sol\":1931:1962   */\n      eq\n        /* \"@openzeppelin/contracts/metatx/ERC2771Context.sol\":2444:2474   */\n    tag_605:\n        /* \"@openzeppelin/contracts/metatx/ERC2771Context.sol\":2399:2671   */\n      iszero\n      tag_606\n      jumpi\n        /* \"@openzeppelin/contracts/metatx/ERC2771Context.sol\":2541:2588   */\n      tag_607\n        /* \"@openzeppelin/contracts/metatx/ERC2771Context.sol\":2541:2549   */\n      calldatasize\n        /* \"@openzeppelin/contracts/metatx/ERC2771Context.sol\":2550:2586   */\n      dup3\n      dup5\n      sub\n        /* \"@openzeppelin/contracts/metatx/ERC2771Context.sol\":2541:2549   */\n      dup2\n      0x00\n        /* \"@openzeppelin/contracts/metatx/ERC2771Context.sol\":2541:2588   */\n      tag_608\n      jump\t// in\n    tag_607:\n        /* \"@openzeppelin/contracts/metatx/ERC2771Context.sol\":2533:2589   */\n      tag_609\n      swap2\n      tag_610\n      jump\t// in\n    tag_609:\n        /* \"@openzeppelin/contracts/metatx/ERC2771Context.sol\":2525:2590   */\n      0x60\n      shr\n        /* \"@openzeppelin/contracts/metatx/ERC2771Context.sol\":2518:2590   */\n      swap3\n      pop\n      pop\n      pop\n        /* \"@openzeppelin/contracts/metatx/ERC2771Context.sol\":2206:2677   */\n      swap1\n      jump\t// out\n        /* \"@openzeppelin/contracts/metatx/ERC2771Context.sol\":2399:2671   */\n    tag_606:\n        /* \"@openzeppelin/contracts/utils/Context.sol\":735:745   */\n      caller\n        /* \"@openzeppelin/contracts/metatx/ERC2771Context.sol\":2635:2660   */\n      swap3\n      pop\n      pop\n      pop\n        /* \"@openzeppelin/contracts/metatx/ERC2771Context.sol\":2206:2677   */\n      swap1\n      jump\t// out\n        /* \"@openzeppelin/contracts/token/ERC721/ERC721.sol\":14440:15102   */\n    tag_521:\n        /* \"@openzeppelin/contracts/token/ERC721/ERC721.sol\":14600:14609   */\n      dup1\n        /* \"@openzeppelin/contracts/token/ERC721/ERC721.sol\":14600:14631   */\n      dup1\n      tag_615\n      jumpi\n      pop\n      sub(shl(0xa0, 0x01), 0x01)\n        /* \"@openzeppelin/contracts/token/ERC721/ERC721.sol\":14613:14631   */\n      dup3\n      and\n      iszero\n      iszero\n        /* \"@openzeppelin/contracts/token/ERC721/ERC721.sol\":14600:14631   */\n    tag_615:\n        /* \"@openzeppelin/contracts/token/ERC721/ERC721.sol\":14596:15056   */\n      iszero\n      tag_616\n      jumpi\n        /* \"@openzeppelin/contracts/token/ERC721/ERC721.sol\":14647:14660   */\n      0x00\n        /* \"@openzeppelin/contracts/token/ERC721/ERC721.sol\":14663:14685   */\n      tag_617\n        /* \"@openzeppelin/contracts/token/ERC721/ERC721.sol\":14677:14684   */\n      dup5\n        /* \"@openzeppelin/contracts/token/ERC721/ERC721.sol\":14663:14676   */\n      tag_298\n        /* \"@openzeppelin/contracts/token/ERC721/ERC721.sol\":14663:14685   */\n      jump\t// in\n    tag_617:\n        /* \"@openzeppelin/contracts/token/ERC721/ERC721.sol\":14647:14685   */\n      swap1\n      pop\n      sub(shl(0xa0, 0x01), 0x01)\n        /* \"@openzeppelin/contracts/token/ERC721/ERC721.sol\":14813:14831   */\n      dup4\n      and\n      iszero\n      dup1\n      iszero\n      swap1\n        /* \"@openzeppelin/contracts/token/ERC721/ERC721.sol\":14813:14848   */\n      tag_618\n      jumpi\n      pop\n        /* \"@openzeppelin/contracts/token/ERC721/ERC721.sol\":14844:14848   */\n      dup3\n      sub(shl(0xa0, 0x01), 0x01)\n        /* \"@openzeppelin/contracts/token/ERC721/ERC721.sol\":14835:14848   */\n      and\n        /* \"@openzeppelin/contracts/token/ERC721/ERC721.sol\":14835:14840   */\n      dup2\n      sub(shl(0xa0, 0x01), 0x01)\n        /* \"@openzeppelin/contracts/token/ERC721/ERC721.sol\":14835:14848   */\n      and\n      eq\n      iszero\n        /* \"@openzeppelin/contracts/token/ERC721/ERC721.sol\":14813:14848   */\n    tag_618:\n        /* \"@openzeppelin/contracts/token/ERC721/ERC721.sol\":14813:14882   */\n      dup1\n      iszero\n      tag_619\n      jumpi\n      pop\n      sub(shl(0xa0, 0x01), 0x01)\n        /* \"@openzeppelin/contracts/token/ERC721/ERC721.sol\":3776:3801   */\n      dup1\n      dup3\n      and\n        /* \"@openzeppelin/contracts/token/ERC721/ERC721.sol\":3753:3757   */\n      0x00\n        /* \"@openzeppelin/contracts/token/ERC721/ERC721.sol\":3776:3801   */\n      swap1\n      dup2\n      mstore\n        /* \"@openzeppelin/contracts/token/ERC721/ERC721.sol\":3776:3794   */\n      0x05\n        /* \"@openzeppelin/contracts/token/ERC721/ERC721.sol\":3776:3801   */\n      0x20\n      swap1\n      dup2\n      mstore\n      0x40\n      dup1\n      dup4\n      keccak256\n        /* \"@openzeppelin/contracts/token/ERC721/ERC721.sol\":3776:3811   */\n      swap4\n      dup8\n      and\n      dup4\n      mstore\n      swap3\n      swap1\n      mstore\n      keccak256\n      sload\n      0xff\n      and\n        /* \"@openzeppelin/contracts/token/ERC721/ERC721.sol\":14852:14882   */\n      iszero\n        /* \"@openzeppelin/contracts/token/ERC721/ERC721.sol\":14813:14882   */\n    tag_619:\n        /* \"@openzeppelin/contracts/token/ERC721/ERC721.sol\":14809:14951   */\n      iszero\n      tag_621\n      jumpi\n        /* \"@openzeppelin/contracts/token/ERC721/ERC721.sol\":14909:14936   */\n      mload(0x40)\n      shl(0xe0, 0xa9fbf51f)\n      dup2\n      mstore\n      sub(shl(0xa0, 0x01), 0x01)\n        /* \"#utility.yul\":2016:2071   */\n      dup5\n      and\n        /* \"@openzeppelin/contracts/token/ERC721/ERC721.sol\":14909:14936   */\n      0x04\n      dup3\n      add\n        /* \"#utility.yul\":1998:2072   */\n      mstore\n        /* \"#utility.yul\":1971:1989   */\n      0x24\n      add\n        /* \"@openzeppelin/contracts/token/ERC721/ERC721.sol\":14909:14936   */\n      tag_260\n        /* \"#utility.yul\":1852:2078   */\n      jump\n        /* \"@openzeppelin/contracts/token/ERC721/ERC721.sol\":14809:14951   */\n    tag_621:\n        /* \"@openzeppelin/contracts/token/ERC721/ERC721.sol\":14969:14978   */\n      dup2\n        /* \"@openzeppelin/contracts/token/ERC721/ERC721.sol\":14965:15046   */\n      iszero\n      tag_623\n      jumpi\n        /* \"@openzeppelin/contracts/token/ERC721/ERC721.sol\":15023:15030   */\n      dup4\n        /* \"@openzeppelin/contracts/token/ERC721/ERC721.sol\":15019:15021   */\n      dup6\n      sub(shl(0xa0, 0x01), 0x01)\n        /* \"@openzeppelin/contracts/token/ERC721/ERC721.sol\":15003:15031   */\n      and\n        /* \"@openzeppelin/contracts/token/ERC721/ERC721.sol\":15012:15017   */\n      dup3\n      sub(shl(0xa0, 0x01), 0x01)\n        /* \"@openzeppelin/contracts/token/ERC721/ERC721.sol\":15003:15031   */\n      and\n      0x8c5be1e5ebec7d5bd14f71427d1e84f3dd0314c0f7b2291e5b200ac8c7c3b925\n      mload(0x40)\n      mload(0x40)\n      dup1\n      swap2\n      sub\n      swap1\n      log4\n        /* \"@openzeppelin/contracts/token/ERC721/ERC721.sol\":14965:15046   */\n    tag_623:\n        /* \"@openzeppelin/contracts/token/ERC721/ERC721.sol\":14633:15056   */\n      pop\n        /* \"@openzeppelin/contracts/token/ERC721/ERC721.sol\":14596:15056   */\n    tag_616:\n      pop\n      pop\n        /* \"@openzeppelin/contracts/token/ERC721/ERC721.sol\":15066:15090   */\n      0x00\n      swap1\n      dup2\n      mstore\n        /* \"@openzeppelin/contracts/token/ERC721/ERC721.sol\":15066:15081   */\n      0x04\n        /* \"@openzeppelin/contracts/token/ERC721/ERC721.sol\":15066:15090   */\n      0x20\n      mstore\n      0x40\n      swap1\n      keccak256\n        /* \"@openzeppelin/contracts/token/ERC721/ERC721.sol\":15066:15095   */\n      dup1\n      sload\n      not(sub(shl(0xa0, 0x01), 0x01))\n      and\n      sub(shl(0xa0, 0x01), 0x01)\n      swap3\n      swap1\n      swap3\n      and\n      swap2\n      swap1\n      swap2\n      or\n      swap1\n      sstore\n        /* \"@openzeppelin/contracts/token/ERC721/ERC721.sol\":14440:15102   */\n      jump\t// out\n        /* \"@openzeppelin/contracts/token/ERC721/ERC721.sol\":8507:9302   */\n    tag_535:\n        /* \"@openzeppelin/contracts/token/ERC721/ERC721.sol\":8593:8600   */\n      0x00\n        /* \"@openzeppelin/contracts/token/ERC721/ERC721.sol\":5470:5486   */\n      dup3\n      dup2\n      mstore\n        /* \"@openzeppelin/contracts/token/ERC721/ERC721.sol\":5470:5477   */\n      0x02\n        /* \"@openzeppelin/contracts/token/ERC721/ERC721.sol\":5470:5486   */\n      0x20\n      mstore\n      0x40\n      dup2\n      keccak256\n      sload\n      sub(shl(0xa0, 0x01), 0x01)\n      swap1\n      dup2\n      and\n      swap1\n        /* \"@openzeppelin/contracts/token/ERC721/ERC721.sol\":8704:8722   */\n      dup4\n      and\n      iszero\n        /* \"@openzeppelin/contracts/token/ERC721/ERC721.sol\":8700:8786   */\n      tag_627\n      jumpi\n        /* \"@openzeppelin/contracts/token/ERC721/ERC721.sol\":8738:8775   */\n      tag_627\n        /* \"@openzeppelin/contracts/token/ERC721/ERC721.sol\":8755:8759   */\n      dup2\n        /* \"@openzeppelin/contracts/token/ERC721/ERC721.sol\":8761:8765   */\n      dup5\n        /* \"@openzeppelin/contracts/token/ERC721/ERC721.sol\":8767:8774   */\n      dup7\n        /* \"@openzeppelin/contracts/token/ERC721/ERC721.sol\":8738:8754   */\n      tag_628\n        /* \"@openzeppelin/contracts/token/ERC721/ERC721.sol\":8738:8775   */\n      jump\t// in\n    tag_627:\n      sub(shl(0xa0, 0x01), 0x01)\n        /* \"@openzeppelin/contracts/token/ERC721/ERC721.sol\":8830:8848   */\n      dup2\n      and\n      iszero\n        /* \"@openzeppelin/contracts/token/ERC721/ERC721.sol\":8826:9082   */\n      tag_629\n      jumpi\n        /* \"@openzeppelin/contracts/token/ERC721/ERC721.sol\":8946:8994   */\n      tag_630\n        /* \"@openzeppelin/contracts/token/ERC721/ERC721.sol\":8963:8964   */\n      0x00\n        /* \"@openzeppelin/contracts/token/ERC721/ERC721.sol\":8967:8974   */\n      dup6\n        /* \"@openzeppelin/contracts/token/ERC721/ERC721.sol\":8984:8985   */\n      0x00\n        /* \"@openzeppelin/contracts/token/ERC721/ERC721.sol\":8988:8993   */\n      dup1\n        /* \"@openzeppelin/contracts/token/ERC721/ERC721.sol\":8946:8954   */\n      tag_521\n        /* \"@openzeppelin/contracts/token/ERC721/ERC721.sol\":8946:8994   */\n      jump\t// in\n    tag_630:\n      sub(shl(0xa0, 0x01), 0x01)\n        /* \"@openzeppelin/contracts/token/ERC721/ERC721.sol\":9037:9052   */\n      dup2\n      and\n      0x00\n      swap1\n      dup2\n      mstore\n        /* \"@openzeppelin/contracts/token/ERC721/ERC721.sol\":9037:9046   */\n      0x03\n        /* \"@openzeppelin/contracts/token/ERC721/ERC721.sol\":9037:9052   */\n      0x20\n      mstore\n      0x40\n      swap1\n      keccak256\n        /* \"@openzeppelin/contracts/token/ERC721/ERC721.sol\":9037:9057   */\n      dup1\n      sload\n      not(0x00)\n      add\n      swap1\n      sstore\n        /* \"@openzeppelin/contracts/token/ERC721/ERC721.sol\":8826:9082   */\n    tag_629:\n      sub(shl(0xa0, 0x01), 0x01)\n        /* \"@openzeppelin/contracts/token/ERC721/ERC721.sol\":9096:9112   */\n      dup6\n      and\n      iszero\n        /* \"@openzeppelin/contracts/token/ERC721/ERC721.sol\":9092:9199   */\n      tag_631\n      jumpi\n      sub(shl(0xa0, 0x01), 0x01)\n        /* \"@openzeppelin/contracts/token/ERC721/ERC721.sol\":9156:9169   */\n      dup6\n      and\n      0x00\n      swap1\n      dup2\n      mstore\n        /* \"@openzeppelin/contracts/token/ERC721/ERC721.sol\":9156:9165   */\n      0x03\n        /* \"@openzeppelin/contracts/token/ERC721/ERC721.sol\":9156:9169   */\n      0x20\n      mstore\n      0x40\n      swap1\n      keccak256\n        /* \"@openzeppelin/contracts/token/ERC721/ERC721.sol\":9156:9174   */\n      dup1\n      sload\n        /* \"@openzeppelin/contracts/token/ERC721/ERC721.sol\":9173:9174   */\n      0x01\n        /* \"@openzeppelin/contracts/token/ERC721/ERC721.sol\":9156:9174   */\n      add\n      swap1\n      sstore\n        /* \"@openzeppelin/contracts/token/ERC721/ERC721.sol\":9092:9199   */\n    tag_631:\n        /* \"@openzeppelin/contracts/token/ERC721/ERC721.sol\":9209:9225   */\n      0x00\n      dup5\n      dup2\n      mstore\n        /* \"@openzeppelin/contracts/token/ERC721/ERC721.sol\":9209:9216   */\n      0x02\n        /* \"@openzeppelin/contracts/token/ERC721/ERC721.sol\":9209:9225   */\n      0x20\n      mstore\n      0x40\n      dup1\n      dup3\n      keccak256\n        /* \"@openzeppelin/contracts/token/ERC721/ERC721.sol\":9209:9230   */\n      dup1\n      sload\n      not(sub(shl(0xa0, 0x01), 0x01))\n      and\n      sub(shl(0xa0, 0x01), 0x01)\n      dup10\n      dup2\n      and\n      swap2\n      dup3\n      or\n      swap1\n      swap3\n      sstore\n        /* \"@openzeppelin/contracts/token/ERC721/ERC721.sol\":9246:9273   */\n      swap2\n      mload\n        /* \"@openzeppelin/contracts/token/ERC721/ERC721.sol\":9209:9225   */\n      dup8\n      swap4\n        /* \"@openzeppelin/contracts/token/ERC721/ERC721.sol\":9246:9273   */\n      swap2\n      dup6\n      and\n      swap2\n      0xddf252ad1be2c89b69c2b068fc378daa952ba7f163c4a11628f55a4df523b3ef\n      swap2\n      log4\n        /* \"@openzeppelin/contracts/token/ERC721/ERC721.sol\":9291:9295   */\n      swap5\n        /* \"@openzeppelin/contracts/token/ERC721/ERC721.sol\":8507:9302   */\n      swap4\n      pop\n      pop\n      pop\n      pop\n      jump\t// out\n        /* \"@openzeppelin/contracts/access/AccessControl.sol\":3408:3605   */\n    tag_539:\n        /* \"@openzeppelin/contracts/access/AccessControl.sol\":2907:2911   */\n      0x00\n        /* \"@openzeppelin/contracts/access/AccessControl.sol\":2930:2942   */\n      dup3\n      dup2\n      mstore\n        /* \"@openzeppelin/contracts/access/AccessControl.sol\":2930:2936   */\n      0x07\n        /* \"@openzeppelin/contracts/access/AccessControl.sol\":2930:2942   */\n      0x20\n      swap1\n      dup2\n      mstore\n      0x40\n      dup1\n      dup4\n      keccak256\n      sub(shl(0xa0, 0x01), 0x01)\n        /* \"@openzeppelin/contracts/access/AccessControl.sol\":2930:2959   */\n      dup6\n      and\n      dup5\n      mstore\n      swap1\n      swap2\n      mstore\n      swap1\n      keccak256\n      sload\n      0xff\n      and\n        /* \"@openzeppelin/contracts/access/AccessControl.sol\":3491:3599   */\n      tag_302\n      jumpi\n        /* \"@openzeppelin/contracts/access/AccessControl.sol\":3541:3588   */\n      mload(0x40)\n      shl(0xe0, 0xe2517d3f)\n      dup2\n      mstore\n      sub(shl(0xa0, 0x01), 0x01)\n        /* \"#utility.yul\":11642:11697   */\n      dup3\n      and\n        /* \"@openzeppelin/contracts/access/AccessControl.sol\":3541:3588   */\n      0x04\n      dup3\n      add\n        /* \"#utility.yul\":11624:11698   */\n      mstore\n        /* \"#utility.yul\":11714:11732   */\n      0x24\n      dup2\n      add\n        /* \"#utility.yul\":11707:11741   */\n      dup4\n      swap1\n      mstore\n        /* \"#utility.yul\":11597:11615   */\n      0x44\n      add\n        /* \"@openzeppelin/contracts/access/AccessControl.sol\":3541:3588   */\n      tag_260\n        /* \"#utility.yul\":11450:11747   */\n      jump\n        /* \"@openzeppelin/contracts/token/ERC721/ERC721.sol\":10623:10830   */\n    tag_552:\n        /* \"@openzeppelin/contracts/token/ERC721/ERC721.sol\":10717:10735   */\n      tag_638\n        /* \"@openzeppelin/contracts/token/ERC721/ERC721.sol\":10723:10725   */\n      dup4\n        /* \"@openzeppelin/contracts/token/ERC721/ERC721.sol\":10727:10734   */\n      dup4\n        /* \"@openzeppelin/contracts/token/ERC721/ERC721.sol\":10717:10722   */\n      tag_639\n        /* \"@openzeppelin/contracts/token/ERC721/ERC721.sol\":10717:10735   */\n      jump\t// in\n    tag_638:\n        /* \"@openzeppelin/contracts/token/ERC721/ERC721.sol\":10745:10823   */\n      tag_287\n        /* \"@openzeppelin/contracts/token/ERC721/ERC721.sol\":10779:10791   */\n      tag_641\n        /* \"@openzeppelin/contracts/token/ERC721/ERC721.sol\":10779:10789   */\n      tag_266\n        /* \"@openzeppelin/contracts/token/ERC721/ERC721.sol\":10779:10791   */\n      jump\t// in\n    tag_641:\n        /* \"@openzeppelin/contracts/token/ERC721/ERC721.sol\":10801:10802   */\n      0x00\n        /* \"@openzeppelin/contracts/token/ERC721/ERC721.sol\":10805:10807   */\n      dup6\n        /* \"@openzeppelin/contracts/token/ERC721/ERC721.sol\":10809:10816   */\n      dup6\n        /* \"@openzeppelin/contracts/token/ERC721/ERC721.sol\":10818:10822   */\n      dup6\n        /* \"@openzeppelin/contracts/token/ERC721/ERC721.sol\":10745:10778   */\n      tag_476\n        /* \"@openzeppelin/contracts/token/ERC721/ERC721.sol\":10745:10823   */\n      jump\t// in\n        /* \"@openzeppelin/contracts/utils/math/Math.sol\":29154:30070   */\n    tag_585:\n        /* \"@openzeppelin/contracts/utils/math/Math.sol\":29207:29214   */\n      0x00\n      dup1\n        /* \"@openzeppelin/contracts/utils/math/Math.sol\":29291:29299   */\n      0x184f03e93ff9f4daa797ed6e38ed64bf6a1f010000000000000000\n        /* \"@openzeppelin/contracts/utils/math/Math.sol\":29282:29299   */\n      dup4\n      lt\n        /* \"@openzeppelin/contracts/utils/math/Math.sol\":29278:29381   */\n      tag_643\n      jumpi\n        /* \"@openzeppelin/contracts/utils/math/Math.sol\":29328:29336   */\n      0x184f03e93ff9f4daa797ed6e38ed64bf6a1f010000000000000000\n        /* \"@openzeppelin/contracts/utils/math/Math.sol\":29319:29336   */\n      dup4\n      div\n      swap3\n      pop\n        /* \"@openzeppelin/contracts/utils/math/Math.sol\":29364:29366   */\n      0x40\n        /* \"@openzeppelin/contracts/utils/math/Math.sol\":29354:29366   */\n      add\n        /* \"@openzeppelin/contracts/utils/math/Math.sol\":29278:29381   */\n    tag_643:\n        /* \"@openzeppelin/contracts/utils/math/Math.sol\":29407:29415   */\n      0x04ee2d6d415b85acef8100000000\n        /* \"@openzeppelin/contracts/utils/math/Math.sol\":29398:29403   */\n      dup4\n        /* \"@openzeppelin/contracts/utils/math/Math.sol\":29398:29415   */\n      lt\n        /* \"@openzeppelin/contracts/utils/math/Math.sol\":29394:29497   */\n      tag_646\n      jumpi\n        /* \"@openzeppelin/contracts/utils/math/Math.sol\":29444:29452   */\n      0x04ee2d6d415b85acef8100000000\n        /* \"@openzeppelin/contracts/utils/math/Math.sol\":29435:29452   */\n      dup4\n      div\n      swap3\n      pop\n        /* \"@openzeppelin/contracts/utils/math/Math.sol\":29480:29482   */\n      0x20\n        /* \"@openzeppelin/contracts/utils/math/Math.sol\":29470:29482   */\n      add\n        /* \"@openzeppelin/contracts/utils/math/Math.sol\":29394:29497   */\n    tag_646:\n        /* \"@openzeppelin/contracts/utils/math/Math.sol\":29523:29531   */\n      0x2386f26fc10000\n        /* \"@openzeppelin/contracts/utils/math/Math.sol\":29514:29519   */\n      dup4\n        /* \"@openzeppelin/contracts/utils/math/Math.sol\":29514:29531   */\n      lt\n        /* \"@openzeppelin/contracts/utils/math/Math.sol\":29510:29613   */\n      tag_649\n      jumpi\n        /* \"@openzeppelin/contracts/utils/math/Math.sol\":29560:29568   */\n      0x2386f26fc10000\n        /* \"@openzeppelin/contracts/utils/math/Math.sol\":29551:29568   */\n      dup4\n      div\n      swap3\n      pop\n        /* \"@openzeppelin/contracts/utils/math/Math.sol\":29596:29598   */\n      0x10\n        /* \"@openzeppelin/contracts/utils/math/Math.sol\":29586:29598   */\n      add\n        /* \"@openzeppelin/contracts/utils/math/Math.sol\":29510:29613   */\n    tag_649:\n        /* \"@openzeppelin/contracts/utils/math/Math.sol\":29639:29646   */\n      0x05f5e100\n        /* \"@openzeppelin/contracts/utils/math/Math.sol\":29630:29635   */\n      dup4\n        /* \"@openzeppelin/contracts/utils/math/Math.sol\":29630:29646   */\n      lt\n        /* \"@openzeppelin/contracts/utils/math/Math.sol\":29626:29726   */\n      tag_652\n      jumpi\n        /* \"@openzeppelin/contracts/utils/math/Math.sol\":29675:29682   */\n      0x05f5e100\n        /* \"@openzeppelin/contracts/utils/math/Math.sol\":29666:29682   */\n      dup4\n      div\n      swap3\n      pop\n        /* \"@openzeppelin/contracts/utils/math/Math.sol\":29710:29711   */\n      0x08\n        /* \"@openzeppelin/contracts/utils/math/Math.sol\":29700:29711   */\n      add\n        /* \"@openzeppelin/contracts/utils/math/Math.sol\":29626:29726   */\n    tag_652:\n        /* \"@openzeppelin/contracts/utils/math/Math.sol\":29752:29759   */\n      0x2710\n        /* \"@openzeppelin/contracts/utils/math/Math.sol\":29743:29748   */\n      dup4\n        /* \"@openzeppelin/contracts/utils/math/Math.sol\":29743:29759   */\n      lt\n        /* \"@openzeppelin/contracts/utils/math/Math.sol\":29739:29839   */\n      tag_655\n      jumpi\n        /* \"@openzeppelin/contracts/utils/math/Math.sol\":29788:29795   */\n      0x2710\n        /* \"@openzeppelin/contracts/utils/math/Math.sol\":29779:29795   */\n      dup4\n      div\n      swap3\n      pop\n        /* \"@openzeppelin/contracts/utils/math/Math.sol\":29823:29824   */\n      0x04\n        /* \"@openzeppelin/contracts/utils/math/Math.sol\":29813:29824   */\n      add\n        /* \"@openzeppelin/contracts/utils/math/Math.sol\":29739:29839   */\n    tag_655:\n        /* \"@openzeppelin/contracts/utils/math/Math.sol\":29865:29872   */\n      0x64\n        /* \"@openzeppelin/contracts/utils/math/Math.sol\":29856:29861   */\n      dup4\n        /* \"@openzeppelin/contracts/utils/math/Math.sol\":29856:29872   */\n      lt\n        /* \"@openzeppelin/contracts/utils/math/Math.sol\":29852:29952   */\n      tag_658\n      jumpi\n        /* \"@openzeppelin/contracts/utils/math/Math.sol\":29901:29908   */\n      0x64\n        /* \"@openzeppelin/contracts/utils/math/Math.sol\":29892:29908   */\n      dup4\n      div\n      swap3\n      pop\n        /* \"@openzeppelin/contracts/utils/math/Math.sol\":29936:29937   */\n      0x02\n        /* \"@openzeppelin/contracts/utils/math/Math.sol\":29926:29937   */\n      add\n        /* \"@openzeppelin/contracts/utils/math/Math.sol\":29852:29952   */\n    tag_658:\n        /* \"@openzeppelin/contracts/utils/math/Math.sol\":29978:29985   */\n      0x0a\n        /* \"@openzeppelin/contracts/utils/math/Math.sol\":29969:29974   */\n      dup4\n        /* \"@openzeppelin/contracts/utils/math/Math.sol\":29969:29985   */\n      lt\n        /* \"@openzeppelin/contracts/utils/math/Math.sol\":29965:30031   */\n      tag_252\n      jumpi\n        /* \"@openzeppelin/contracts/utils/math/Math.sol\":30015:30016   */\n      0x01\n        /* \"@openzeppelin/contracts/utils/math/Math.sol\":30005:30016   */\n      add\n        /* \"@openzeppelin/contracts/utils/math/Math.sol\":30057:30063   */\n      swap3\n        /* \"@openzeppelin/contracts/utils/math/Math.sol\":29154:30070   */\n      swap2\n      pop\n      pop\n      jump\t// out\n        /* \"@openzeppelin/contracts/token/ERC721/ERC721.sol\":6751:7119   */\n    tag_628:\n        /* \"@openzeppelin/contracts/token/ERC721/ERC721.sol\":6863:6901   */\n      tag_668\n        /* \"@openzeppelin/contracts/token/ERC721/ERC721.sol\":6877:6882   */\n      dup4\n        /* \"@openzeppelin/contracts/token/ERC721/ERC721.sol\":6884:6891   */\n      dup4\n        /* \"@openzeppelin/contracts/token/ERC721/ERC721.sol\":6893:6900   */\n      dup4\n        /* \"@openzeppelin/contracts/token/ERC721/ERC721.sol\":6863:6876   */\n      tag_669\n        /* \"@openzeppelin/contracts/token/ERC721/ERC721.sol\":6863:6901   */\n      jump\t// in\n    tag_668:\n        /* \"@openzeppelin/contracts/token/ERC721/ERC721.sol\":6858:7113   */\n      tag_287\n      jumpi\n      sub(shl(0xa0, 0x01), 0x01)\n        /* \"@openzeppelin/contracts/token/ERC721/ERC721.sol\":6921:6940   */\n      dup4\n      and\n        /* \"@openzeppelin/contracts/token/ERC721/ERC721.sol\":6917:7103   */\n      tag_671\n      jumpi\n        /* \"@openzeppelin/contracts/token/ERC721/ERC721.sol\":6967:6998   */\n      mload(0x40)\n      shl(0xe0, 0x7e273289)\n      dup2\n      mstore\n      0x04\n      dup2\n      add\n        /* \"#utility.yul\":2673:2698   */\n      dup3\n      swap1\n      mstore\n        /* \"#utility.yul\":2646:2664   */\n      0x24\n      add\n        /* \"@openzeppelin/contracts/token/ERC721/ERC721.sol\":6967:6998   */\n      tag_260\n        /* \"#utility.yul\":2527:2704   */\n      jump\n        /* \"@openzeppelin/contracts/token/ERC721/ERC721.sol\":6917:7103   */\n    tag_671:\n        /* \"@openzeppelin/contracts/token/ERC721/ERC721.sol\":7044:7088   */\n      mload(0x40)\n      shl(0xe0, 0x177e802f)\n      dup2\n      mstore\n      sub(shl(0xa0, 0x01), 0x01)\n        /* \"#utility.yul\":11642:11697   */\n      dup4\n      and\n        /* \"@openzeppelin/contracts/token/ERC721/ERC721.sol\":7044:7088   */\n      0x04\n      dup3\n      add\n        /* \"#utility.yul\":11624:11698   */\n      mstore\n        /* \"#utility.yul\":11714:11732   */\n      0x24\n      dup2\n      add\n        /* \"#utility.yul\":11707:11741   */\n      dup3\n      swap1\n      mstore\n        /* \"#utility.yul\":11597:11615   */\n      0x44\n      add\n        /* \"@openzeppelin/contracts/token/ERC721/ERC721.sol\":7044:7088   */\n      tag_260\n        /* \"#utility.yul\":11450:11747   */\n      jump\n        /* \"@openzeppelin/contracts/token/ERC721/ERC721.sol\":9624:9951   */\n    tag_639:\n      sub(shl(0xa0, 0x01), 0x01)\n        /* \"@openzeppelin/contracts/token/ERC721/ERC721.sol\":9691:9707   */\n      dup3\n      and\n        /* \"@openzeppelin/contracts/token/ERC721/ERC721.sol\":9687:9774   */\n      tag_676\n      jumpi\n        /* \"@openzeppelin/contracts/token/ERC721/ERC721.sol\":9730:9763   */\n      mload(0x40)\n      shl(0xe1, 0x32505749)\n      dup2\n      mstore\n        /* \"@openzeppelin/contracts/token/ERC721/ERC721.sol\":9760:9761   */\n      0x00\n        /* \"@openzeppelin/contracts/token/ERC721/ERC721.sol\":9730:9763   */\n      0x04\n      dup3\n      add\n        /* \"#utility.yul\":1998:2072   */\n      mstore\n        /* \"#utility.yul\":1971:1989   */\n      0x24\n      add\n        /* \"@openzeppelin/contracts/token/ERC721/ERC721.sol\":9730:9763   */\n      tag_260\n        /* \"#utility.yul\":1852:2078   */\n      jump\n        /* \"@openzeppelin/contracts/token/ERC721/ERC721.sol\":9687:9774   */\n    tag_676:\n        /* \"@openzeppelin/contracts/token/ERC721/ERC721.sol\":9783:9804   */\n      0x00\n        /* \"@openzeppelin/contracts/token/ERC721/ERC721.sol\":9807:9839   */\n      tag_678\n        /* \"@openzeppelin/contracts/token/ERC721/ERC721.sol\":9815:9817   */\n      dup4\n        /* \"@openzeppelin/contracts/token/ERC721/ERC721.sol\":9819:9826   */\n      dup4\n        /* \"@openzeppelin/contracts/token/ERC721/ERC721.sol\":9836:9837   */\n      0x00\n        /* \"@openzeppelin/contracts/token/ERC721/ERC721.sol\":9807:9814   */\n      tag_345\n        /* \"@openzeppelin/contracts/token/ERC721/ERC721.sol\":9807:9839   */\n      jump\t// in\n    tag_678:\n        /* \"@openzeppelin/contracts/token/ERC721/ERC721.sol\":9783:9839   */\n      swap1\n      pop\n      sub(shl(0xa0, 0x01), 0x01)\n        /* \"@openzeppelin/contracts/token/ERC721/ERC721.sol\":9853:9880   */\n      dup2\n      and\n      iszero\n        /* \"@openzeppelin/contracts/token/ERC721/ERC721.sol\":9849:9945   */\n      tag_287\n      jumpi\n        /* \"@openzeppelin/contracts/token/ERC721/ERC721.sol\":9903:9934   */\n      mload(0x40)\n      shl(0xe1, 0x39e35637)\n      dup2\n      mstore\n        /* \"@openzeppelin/contracts/token/ERC721/ERC721.sol\":9931:9932   */\n      0x00\n        /* \"@openzeppelin/contracts/token/ERC721/ERC721.sol\":9903:9934   */\n      0x04\n      dup3\n      add\n        /* \"#utility.yul\":1998:2072   */\n      mstore\n        /* \"#utility.yul\":1971:1989   */\n      0x24\n      add\n        /* \"@openzeppelin/contracts/token/ERC721/ERC721.sol\":9903:9934   */\n      tag_260\n        /* \"#utility.yul\":1852:2078   */\n      jump\n        /* \"@openzeppelin/contracts/token/ERC721/ERC721.sol\":6047:6319   */\n    tag_669:\n        /* \"@openzeppelin/contracts/token/ERC721/ERC721.sol\":6150:6154   */\n      0x00\n      sub(shl(0xa0, 0x01), 0x01)\n        /* \"@openzeppelin/contracts/token/ERC721/ERC721.sol\":6185:6206   */\n      dup4\n      and\n      iszero\n      dup1\n      iszero\n      swap1\n        /* \"@openzeppelin/contracts/token/ERC721/ERC721.sol\":6185:6312   */\n      tag_534\n      jumpi\n      pop\n        /* \"@openzeppelin/contracts/token/ERC721/ERC721.sol\":6232:6239   */\n      dup3\n      sub(shl(0xa0, 0x01), 0x01)\n        /* \"@openzeppelin/contracts/token/ERC721/ERC721.sol\":6223:6239   */\n      and\n        /* \"@openzeppelin/contracts/token/ERC721/ERC721.sol\":6223:6228   */\n      dup5\n      sub(shl(0xa0, 0x01), 0x01)\n        /* \"@openzeppelin/contracts/token/ERC721/ERC721.sol\":6223:6239   */\n      and\n      eq\n        /* \"@openzeppelin/contracts/token/ERC721/ERC721.sol\":6223:6275   */\n      dup1\n      tag_685\n      jumpi\n      pop\n      sub(shl(0xa0, 0x01), 0x01)\n        /* \"@openzeppelin/contracts/token/ERC721/ERC721.sol\":3776:3801   */\n      dup1\n      dup6\n      and\n        /* \"@openzeppelin/contracts/token/ERC721/ERC721.sol\":3753:3757   */\n      0x00\n        /* \"@openzeppelin/contracts/token/ERC721/ERC721.sol\":3776:3801   */\n      swap1\n      dup2\n      mstore\n        /* \"@openzeppelin/contracts/token/ERC721/ERC721.sol\":3776:3794   */\n      0x05\n        /* \"@openzeppelin/contracts/token/ERC721/ERC721.sol\":3776:3801   */\n      0x20\n      swap1\n      dup2\n      mstore\n      0x40\n      dup1\n      dup4\n      keccak256\n        /* \"@openzeppelin/contracts/token/ERC721/ERC721.sol\":3776:3811   */\n      swap4\n      dup8\n      and\n      dup4\n      mstore\n      swap3\n      swap1\n      mstore\n      keccak256\n      sload\n      0xff\n      and\n        /* \"@openzeppelin/contracts/token/ERC721/ERC721.sol\":6243:6275   */\n    tag_685:\n        /* \"@openzeppelin/contracts/token/ERC721/ERC721.sol\":6223:6311   */\n      dup1\n      tag_534\n      jumpi\n      pop\n      pop\n        /* \"@openzeppelin/contracts/token/ERC721/ERC721.sol\":5679:5686   */\n      0x00\n        /* \"@openzeppelin/contracts/token/ERC721/ERC721.sol\":5705:5729   */\n      swap1\n      dup2\n      mstore\n        /* \"@openzeppelin/contracts/token/ERC721/ERC721.sol\":5705:5720   */\n      0x04\n        /* \"@openzeppelin/contracts/token/ERC721/ERC721.sol\":5705:5729   */\n      0x20\n      mstore\n      0x40\n      swap1\n      keccak256\n      sload\n      sub(shl(0xa0, 0x01), 0x01)\n      swap1\n      dup2\n      and\n        /* \"@openzeppelin/contracts/token/ERC721/ERC721.sol\":6279:6311   */\n      swap2\n      and\n      eq\n      swap2\n      swap1\n      pop\n        /* \"@openzeppelin/contracts/token/ERC721/ERC721.sol\":6047:6319   */\n      jump\t// out\n        /* \"#utility.yul\":14:145   */\n    tag_688:\n      not(sub(shl(0xe0, 0x01), 0x01))\n        /* \"#utility.yul\":88:120   */\n      dup2\n      and\n        /* \"#utility.yul\":78:121   */\n      dup2\n      eq\n        /* \"#utility.yul\":68:139   */\n      tag_383\n      jumpi\n        /* \"#utility.yul\":135:136   */\n      0x00\n        /* \"#utility.yul\":132:133   */\n      dup1\n        /* \"#utility.yul\":125:137   */\n      revert\n        /* \"#utility.yul\":150:395   */\n    tag_62:\n        /* \"#utility.yul\":208:214   */\n      0x00\n        /* \"#utility.yul\":261:263   */\n      0x20\n        /* \"#utility.yul\":249:258   */\n      dup3\n        /* \"#utility.yul\":240:247   */\n      dup5\n        /* \"#utility.yul\":236:259   */\n      sub\n        /* \"#utility.yul\":232:264   */\n      slt\n        /* \"#utility.yul\":229:281   */\n      iszero\n      tag_698\n      jumpi\n        /* \"#utility.yul\":277:278   */\n      0x00\n        /* \"#utility.yul\":274:275   */\n      dup1\n        /* \"#utility.yul\":267:279   */\n      revert\n        /* \"#utility.yul\":229:281   */\n    tag_698:\n        /* \"#utility.yul\":316:325   */\n      dup2\n        /* \"#utility.yul\":303:326   */\n      calldataload\n        /* \"#utility.yul\":335:365   */\n      tag_482\n        /* \"#utility.yul\":359:364   */\n      dup2\n        /* \"#utility.yul\":335:365   */\n      tag_688\n      jump\t// in\n        /* \"#utility.yul\":592:788   */\n    tag_689:\n        /* \"#utility.yul\":660:680   */\n      dup1\n      calldataload\n      sub(shl(0xa0, 0x01), 0x01)\n        /* \"#utility.yul\":709:763   */\n      dup2\n      and\n        /* \"#utility.yul\":699:764   */\n      dup2\n      eq\n        /* \"#utility.yul\":689:782   */\n      tag_702\n      jumpi\n        /* \"#utility.yul\":778:779   */\n      0x00\n        /* \"#utility.yul\":775:776   */\n      dup1\n        /* \"#utility.yul\":768:780   */\n      revert\n        /* \"#utility.yul\":689:782   */\n    tag_702:\n        /* \"#utility.yul\":592:788   */\n      swap2\n      swap1\n      pop\n      jump\t// out\n        /* \"#utility.yul\":793:1121   */\n    tag_69:\n        /* \"#utility.yul\":870:876   */\n      0x00\n        /* \"#utility.yul\":878:884   */\n      dup1\n        /* \"#utility.yul\":886:892   */\n      0x00\n        /* \"#utility.yul\":939:941   */\n      0x60\n        /* \"#utility.yul\":927:936   */\n      dup5\n        /* \"#utility.yul\":918:925   */\n      dup7\n        /* \"#utility.yul\":914:937   */\n      sub\n        /* \"#utility.yul\":910:942   */\n      slt\n        /* \"#utility.yul\":907:959   */\n      iszero\n      tag_704\n      jumpi\n        /* \"#utility.yul\":955:956   */\n      0x00\n        /* \"#utility.yul\":952:953   */\n      dup1\n        /* \"#utility.yul\":945:957   */\n      revert\n        /* \"#utility.yul\":907:959   */\n    tag_704:\n        /* \"#utility.yul\":978:1007   */\n      tag_705\n        /* \"#utility.yul\":997:1006   */\n      dup5\n        /* \"#utility.yul\":978:1007   */\n      tag_689\n      jump\t// in\n    tag_705:\n        /* \"#utility.yul\":968:1007   */\n      swap3\n      pop\n        /* \"#utility.yul\":1026:1064   */\n      tag_706\n        /* \"#utility.yul\":1060:1062   */\n      0x20\n        /* \"#utility.yul\":1049:1058   */\n      dup6\n        /* \"#utility.yul\":1045:1063   */\n      add\n        /* \"#utility.yul\":1026:1064   */\n      tag_689\n      jump\t// in\n    tag_706:\n        /* \"#utility.yul\":1016:1064   */\n      swap2\n      pop\n        /* \"#utility.yul\":1111:1113   */\n      0x40\n        /* \"#utility.yul\":1100:1109   */\n      dup5\n        /* \"#utility.yul\":1096:1114   */\n      add\n        /* \"#utility.yul\":1083:1115   */\n      calldataload\n        /* \"#utility.yul\":1073:1115   */\n      swap1\n      pop\n        /* \"#utility.yul\":793:1121   */\n      swap3\n      pop\n      swap3\n      pop\n      swap3\n      jump\t// out\n        /* \"#utility.yul\":1126:1426   */\n    tag_690:\n        /* \"#utility.yul\":1179:1182   */\n      0x00\n        /* \"#utility.yul\":1217:1222   */\n      dup2\n        /* \"#utility.yul\":1211:1223   */\n      mload\n        /* \"#utility.yul\":1244:1250   */\n      dup1\n        /* \"#utility.yul\":1239:1242   */\n      dup5\n        /* \"#utility.yul\":1232:1251   */\n      mstore\n        /* \"#utility.yul\":1300:1306   */\n      dup1\n        /* \"#utility.yul\":1293:1297   */\n      0x20\n        /* \"#utility.yul\":1286:1291   */\n      dup5\n        /* \"#utility.yul\":1282:1298   */\n      add\n        /* \"#utility.yul\":1275:1279   */\n      0x20\n        /* \"#utility.yul\":1270:1273   */\n      dup7\n        /* \"#utility.yul\":1266:1280   */\n      add\n        /* \"#utility.yul\":1260:1307   */\n      mcopy\n        /* \"#utility.yul\":1352:1353   */\n      0x00\n        /* \"#utility.yul\":1345:1349   */\n      0x20\n        /* \"#utility.yul\":1336:1342   */\n      dup3\n        /* \"#utility.yul\":1331:1334   */\n      dup7\n        /* \"#utility.yul\":1327:1343   */\n      add\n        /* \"#utility.yul\":1323:1350   */\n      add\n        /* \"#utility.yul\":1316:1354   */\n      mstore\n        /* \"#utility.yul\":1415:1419   */\n      0x20\n        /* \"#utility.yul\":1408:1410   */\n      0x1f\n        /* \"#utility.yul\":1404:1411   */\n      not\n        /* \"#utility.yul\":1399:1401   */\n      0x1f\n        /* \"#utility.yul\":1391:1397   */\n      dup4\n        /* \"#utility.yul\":1387:1402   */\n      add\n        /* \"#utility.yul\":1383:1412   */\n      and\n        /* \"#utility.yul\":1378:1381   */\n      dup6\n        /* \"#utility.yul\":1374:1413   */\n      add\n        /* \"#utility.yul\":1370:1420   */\n      add\n        /* \"#utility.yul\":1363:1420   */\n      swap2\n      pop\n      pop\n        /* \"#utility.yul\":1126:1426   */\n      swap3\n      swap2\n      pop\n      pop\n      jump\t// out\n        /* \"#utility.yul\":1431:1662   */\n    tag_75:\n        /* \"#utility.yul\":1580:1582   */\n      0x20\n        /* \"#utility.yul\":1569:1578   */\n      dup2\n        /* \"#utility.yul\":1562:1583   */\n      mstore\n        /* \"#utility.yul\":1543:1547   */\n      0x00\n        /* \"#utility.yul\":1600:1656   */\n      tag_482\n        /* \"#utility.yul\":1652:1654   */\n      0x20\n        /* \"#utility.yul\":1641:1650   */\n      dup4\n        /* \"#utility.yul\":1637:1655   */\n      add\n        /* \"#utility.yul\":1629:1635   */\n      dup5\n        /* \"#utility.yul\":1600:1656   */\n      tag_690\n      jump\t// in\n        /* \"#utility.yul\":1667:1847   */\n    tag_79:\n        /* \"#utility.yul\":1726:1732   */\n      0x00\n        /* \"#utility.yul\":1779:1781   */\n      0x20\n        /* \"#utility.yul\":1767:1776   */\n      dup3\n        /* \"#utility.yul\":1758:1765   */\n      dup5\n        /* \"#utility.yul\":1754:1777   */\n      sub\n        /* \"#utility.yul\":1750:1782   */\n      slt\n        /* \"#utility.yul\":1747:1799   */\n      iszero\n      tag_711\n      jumpi\n        /* \"#utility.yul\":1795:1796   */\n      0x00\n        /* \"#utility.yul\":1792:1793   */\n      dup1\n        /* \"#utility.yul\":1785:1797   */\n      revert\n        /* \"#utility.yul\":1747:1799   */\n    tag_711:\n      pop\n        /* \"#utility.yul\":1818:1841   */\n      calldataload\n      swap2\n        /* \"#utility.yul\":1667:1847   */\n      swap1\n      pop\n      jump\t// out\n        /* \"#utility.yul\":2083:2337   */\n    tag_86:\n        /* \"#utility.yul\":2151:2157   */\n      0x00\n        /* \"#utility.yul\":2159:2165   */\n      dup1\n        /* \"#utility.yul\":2212:2214   */\n      0x40\n        /* \"#utility.yul\":2200:2209   */\n      dup4\n        /* \"#utility.yul\":2191:2198   */\n      dup6\n        /* \"#utility.yul\":2187:2210   */\n      sub\n        /* \"#utility.yul\":2183:2215   */\n      slt\n        /* \"#utility.yul\":2180:2232   */\n      iszero\n      tag_714\n      jumpi\n        /* \"#utility.yul\":2228:2229   */\n      0x00\n        /* \"#utility.yul\":2225:2226   */\n      dup1\n        /* \"#utility.yul\":2218:2230   */\n      revert\n        /* \"#utility.yul\":2180:2232   */\n    tag_714:\n        /* \"#utility.yul\":2251:2280   */\n      tag_715\n        /* \"#utility.yul\":2270:2279   */\n      dup4\n        /* \"#utility.yul\":2251:2280   */\n      tag_689\n      jump\t// in\n    tag_715:\n        /* \"#utility.yul\":2241:2280   */\n      swap5\n        /* \"#utility.yul\":2327:2329   */\n      0x20\n        /* \"#utility.yul\":2312:2330   */\n      swap4\n      swap1\n      swap4\n      add\n        /* \"#utility.yul\":2299:2331   */\n      calldataload\n      swap4\n      pop\n      pop\n      pop\n        /* \"#utility.yul\":2083:2337   */\n      jump\t// out\n        /* \"#utility.yul\":2709:2963   */\n    tag_109:\n        /* \"#utility.yul\":2777:2783   */\n      0x00\n        /* \"#utility.yul\":2785:2791   */\n      dup1\n        /* \"#utility.yul\":2838:2840   */\n      0x40\n        /* \"#utility.yul\":2826:2835   */\n      dup4\n        /* \"#utility.yul\":2817:2824   */\n      dup6\n        /* \"#utility.yul\":2813:2836   */\n      sub\n        /* \"#utility.yul\":2809:2841   */\n      slt\n        /* \"#utility.yul\":2806:2858   */\n      iszero\n      tag_720\n      jumpi\n        /* \"#utility.yul\":2854:2855   */\n      0x00\n        /* \"#utility.yul\":2851:2852   */\n      dup1\n        /* \"#utility.yul\":2844:2856   */\n      revert\n        /* \"#utility.yul\":2806:2858   */\n    tag_720:\n        /* \"#utility.yul\":2890:2899   */\n      dup3\n        /* \"#utility.yul\":2877:2900   */\n      calldataload\n        /* \"#utility.yul\":2867:2900   */\n      swap2\n      pop\n        /* \"#utility.yul\":2919:2957   */\n      tag_721\n        /* \"#utility.yul\":2953:2955   */\n      0x20\n        /* \"#utility.yul\":2942:2951   */\n      dup5\n        /* \"#utility.yul\":2938:2956   */\n      add\n        /* \"#utility.yul\":2919:2957   */\n      tag_689\n      jump\t// in\n    tag_721:\n        /* \"#utility.yul\":2909:2957   */\n      swap1\n      pop\n        /* \"#utility.yul\":2709:2963   */\n      swap3\n      pop\n      swap3\n      swap1\n      pop\n      jump\t// out\n        /* \"#utility.yul\":2968:3154   */\n    tag_114:\n        /* \"#utility.yul\":3027:3033   */\n      0x00\n        /* \"#utility.yul\":3080:3082   */\n      0x20\n        /* \"#utility.yul\":3068:3077   */\n      dup3\n        /* \"#utility.yul\":3059:3066   */\n      dup5\n        /* \"#utility.yul\":3055:3078   */\n      sub\n        /* \"#utility.yul\":3051:3083   */\n      slt\n        /* \"#utility.yul\":3048:3100   */\n      iszero\n      tag_723\n      jumpi\n        /* \"#utility.yul\":3096:3097   */\n      0x00\n        /* \"#utility.yul\":3093:3094   */\n      dup1\n        /* \"#utility.yul\":3086:3098   */\n      revert\n        /* \"#utility.yul\":3048:3100   */\n    tag_723:\n        /* \"#utility.yul\":3119:3148   */\n      tag_482\n        /* \"#utility.yul\":3138:3147   */\n      dup3\n        /* \"#utility.yul\":3119:3148   */\n      tag_689\n      jump\t// in\n        /* \"#utility.yul\":3341:3601   */\n    tag_154:\n        /* \"#utility.yul\":3409:3415   */\n      0x00\n        /* \"#utility.yul\":3417:3423   */\n      dup1\n        /* \"#utility.yul\":3470:3472   */\n      0x40\n        /* \"#utility.yul\":3458:3467   */\n      dup4\n        /* \"#utility.yul\":3449:3456   */\n      dup6\n        /* \"#utility.yul\":3445:3468   */\n      sub\n        /* \"#utility.yul\":3441:3473   */\n      slt\n        /* \"#utility.yul\":3438:3490   */\n      iszero\n      tag_727\n      jumpi\n        /* \"#utility.yul\":3486:3487   */\n      0x00\n        /* \"#utility.yul\":3483:3484   */\n      dup1\n        /* \"#utility.yul\":3476:3488   */\n      revert\n        /* \"#utility.yul\":3438:3490   */\n    tag_727:\n        /* \"#utility.yul\":3509:3538   */\n      tag_728\n        /* \"#utility.yul\":3528:3537   */\n      dup4\n        /* \"#utility.yul\":3509:3538   */\n      tag_689\n      jump\t// in\n    tag_728:\n        /* \"#utility.yul\":3499:3538   */\n      swap2\n      pop\n        /* \"#utility.yul\":3557:3595   */\n      tag_721\n        /* \"#utility.yul\":3591:3593   */\n      0x20\n        /* \"#utility.yul\":3580:3589   */\n      dup5\n        /* \"#utility.yul\":3576:3594   */\n      add\n        /* \"#utility.yul\":3557:3595   */\n      tag_689\n      jump\t// in\n        /* \"#utility.yul\":3606:3724   */\n    tag_691:\n        /* \"#utility.yul\":3692:3697   */\n      dup1\n        /* \"#utility.yul\":3685:3698   */\n      iszero\n        /* \"#utility.yul\":3678:3699   */\n      iszero\n        /* \"#utility.yul\":3671:3676   */\n      dup2\n        /* \"#utility.yul\":3668:3700   */\n      eq\n        /* \"#utility.yul\":3658:3718   */\n      tag_383\n      jumpi\n        /* \"#utility.yul\":3714:3715   */\n      0x00\n        /* \"#utility.yul\":3711:3712   */\n      dup1\n        /* \"#utility.yul\":3704:3716   */\n      revert\n        /* \"#utility.yul\":3729:4044   */\n    tag_209:\n        /* \"#utility.yul\":3794:3800   */\n      0x00\n        /* \"#utility.yul\":3802:3808   */\n      dup1\n        /* \"#utility.yul\":3855:3857   */\n      0x40\n        /* \"#utility.yul\":3843:3852   */\n      dup4\n        /* \"#utility.yul\":3834:3841   */\n      dup6\n        /* \"#utility.yul\":3830:3853   */\n      sub\n        /* \"#utility.yul\":3826:3858   */\n      slt\n        /* \"#utility.yul\":3823:3875   */\n      iszero\n      tag_733\n      jumpi\n        /* \"#utility.yul\":3871:3872   */\n      0x00\n        /* \"#utility.yul\":3868:3869   */\n      dup1\n        /* \"#utility.yul\":3861:3873   */\n      revert\n        /* \"#utility.yul\":3823:3875   */\n    tag_733:\n        /* \"#utility.yul\":3894:3923   */\n      tag_734\n        /* \"#utility.yul\":3913:3922   */\n      dup4\n        /* \"#utility.yul\":3894:3923   */\n      tag_689\n      jump\t// in\n    tag_734:\n        /* \"#utility.yul\":3884:3923   */\n      swap2\n      pop\n        /* \"#utility.yul\":3973:3975   */\n      0x20\n        /* \"#utility.yul\":3962:3971   */\n      dup4\n        /* \"#utility.yul\":3958:3976   */\n      add\n        /* \"#utility.yul\":3945:3977   */\n      calldataload\n        /* \"#utility.yul\":3986:4014   */\n      tag_735\n        /* \"#utility.yul\":4008:4013   */\n      dup2\n        /* \"#utility.yul\":3986:4014   */\n      tag_691\n      jump\t// in\n    tag_735:\n        /* \"#utility.yul\":4033:4038   */\n      dup1\n        /* \"#utility.yul\":4023:4038   */\n      swap2\n      pop\n      pop\n        /* \"#utility.yul\":3729:4044   */\n      swap3\n      pop\n      swap3\n      swap1\n      pop\n      jump\t// out\n        /* \"#utility.yul\":4049:4176   */\n    tag_588:\n        /* \"#utility.yul\":4110:4120   */\n      0x4e487b71\n        /* \"#utility.yul\":4105:4108   */\n      0xe0\n        /* \"#utility.yul\":4101:4121   */\n      shl\n        /* \"#utility.yul\":4098:4099   */\n      0x00\n        /* \"#utility.yul\":4091:4122   */\n      mstore\n        /* \"#utility.yul\":4141:4145   */\n      0x41\n        /* \"#utility.yul\":4138:4139   */\n      0x04\n        /* \"#utility.yul\":4131:4146   */\n      mstore\n        /* \"#utility.yul\":4165:4169   */\n      0x24\n        /* \"#utility.yul\":4162:4163   */\n      0x00\n        /* \"#utility.yul\":4155:4170   */\n      revert\n        /* \"#utility.yul\":4181:5319   */\n    tag_218:\n        /* \"#utility.yul\":4276:4282   */\n      0x00\n        /* \"#utility.yul\":4284:4290   */\n      dup1\n        /* \"#utility.yul\":4292:4298   */\n      0x00\n        /* \"#utility.yul\":4300:4306   */\n      dup1\n        /* \"#utility.yul\":4353:4356   */\n      0x80\n        /* \"#utility.yul\":4341:4350   */\n      dup6\n        /* \"#utility.yul\":4332:4339   */\n      dup8\n        /* \"#utility.yul\":4328:4351   */\n      sub\n        /* \"#utility.yul\":4324:4357   */\n      slt\n        /* \"#utility.yul\":4321:4374   */\n      iszero\n      tag_738\n      jumpi\n        /* \"#utility.yul\":4370:4371   */\n      0x00\n        /* \"#utility.yul\":4367:4368   */\n      dup1\n        /* \"#utility.yul\":4360:4372   */\n      revert\n        /* \"#utility.yul\":4321:4374   */\n    tag_738:\n        /* \"#utility.yul\":4393:4422   */\n      tag_739\n        /* \"#utility.yul\":4412:4421   */\n      dup6\n        /* \"#utility.yul\":4393:4422   */\n      tag_689\n      jump\t// in\n    tag_739:\n        /* \"#utility.yul\":4383:4422   */\n      swap4\n      pop\n        /* \"#utility.yul\":4441:4479   */\n      tag_740\n        /* \"#utility.yul\":4475:4477   */\n      0x20\n        /* \"#utility.yul\":4464:4473   */\n      dup7\n        /* \"#utility.yul\":4460:4478   */\n      add\n        /* \"#utility.yul\":4441:4479   */\n      tag_689\n      jump\t// in\n    tag_740:\n        /* \"#utility.yul\":4431:4479   */\n      swap3\n      pop\n        /* \"#utility.yul\":4526:4528   */\n      0x40\n        /* \"#utility.yul\":4515:4524   */\n      dup6\n        /* \"#utility.yul\":4511:4529   */\n      add\n        /* \"#utility.yul\":4498:4530   */\n      calldataload\n        /* \"#utility.yul\":4488:4530   */\n      swap2\n      pop\n        /* \"#utility.yul\":4581:4583   */\n      0x60\n        /* \"#utility.yul\":4570:4579   */\n      dup6\n        /* \"#utility.yul\":4566:4584   */\n      add\n        /* \"#utility.yul\":4553:4585   */\n      calldataload\n        /* \"#utility.yul\":4604:4622   */\n      0xffffffffffffffff\n        /* \"#utility.yul\":4645:4647   */\n      dup1\n        /* \"#utility.yul\":4637:4643   */\n      dup3\n        /* \"#utility.yul\":4634:4648   */\n      gt\n        /* \"#utility.yul\":4631:4665   */\n      iszero\n      tag_741\n      jumpi\n        /* \"#utility.yul\":4661:4662   */\n      0x00\n        /* \"#utility.yul\":4658:4659   */\n      dup1\n        /* \"#utility.yul\":4651:4663   */\n      revert\n        /* \"#utility.yul\":4631:4665   */\n    tag_741:\n        /* \"#utility.yul\":4699:4705   */\n      dup2\n        /* \"#utility.yul\":4688:4697   */\n      dup8\n        /* \"#utility.yul\":4684:4706   */\n      add\n        /* \"#utility.yul\":4674:4706   */\n      swap2\n      pop\n        /* \"#utility.yul\":4744:4751   */\n      dup8\n        /* \"#utility.yul\":4737:4741   */\n      0x1f\n        /* \"#utility.yul\":4733:4735   */\n      dup4\n        /* \"#utility.yul\":4729:4742   */\n      add\n        /* \"#utility.yul\":4725:4752   */\n      slt\n        /* \"#utility.yul\":4715:4770   */\n      tag_742\n      jumpi\n        /* \"#utility.yul\":4766:4767   */\n      0x00\n        /* \"#utility.yul\":4763:4764   */\n      dup1\n        /* \"#utility.yul\":4756:4768   */\n      revert\n        /* \"#utility.yul\":4715:4770   */\n    tag_742:\n        /* \"#utility.yul\":4802:4804   */\n      dup2\n        /* \"#utility.yul\":4789:4805   */\n      calldataload\n        /* \"#utility.yul\":4824:4826   */\n      dup2\n        /* \"#utility.yul\":4820:4822   */\n      dup2\n        /* \"#utility.yul\":4817:4827   */\n      gt\n        /* \"#utility.yul\":4814:4850   */\n      iszero\n      tag_744\n      jumpi\n        /* \"#utility.yul\":4830:4848   */\n      tag_744\n      tag_588\n      jump\t// in\n    tag_744:\n        /* \"#utility.yul\":4905:4907   */\n      0x40\n        /* \"#utility.yul\":4899:4908   */\n      mload\n        /* \"#utility.yul\":4873:4875   */\n      0x1f\n        /* \"#utility.yul\":4959:4972   */\n      dup3\n      add\n      not(0x1f)\n        /* \"#utility.yul\":4955:4977   */\n      swap1\n      dup2\n      and\n        /* \"#utility.yul\":4979:4981   */\n      0x3f\n        /* \"#utility.yul\":4951:4982   */\n      add\n        /* \"#utility.yul\":4947:4987   */\n      and\n        /* \"#utility.yul\":4935:4988   */\n      dup2\n      add\n      swap1\n        /* \"#utility.yul\":5003:5021   */\n      dup4\n      dup3\n      gt\n        /* \"#utility.yul\":5023:5045   */\n      dup2\n      dup4\n      lt\n        /* \"#utility.yul\":5000:5046   */\n      or\n        /* \"#utility.yul\":4997:5069   */\n      iszero\n      tag_746\n      jumpi\n        /* \"#utility.yul\":5049:5067   */\n      tag_746\n      tag_588\n      jump\t// in\n    tag_746:\n        /* \"#utility.yul\":5089:5099   */\n      dup2\n        /* \"#utility.yul\":5085:5087   */\n      0x40\n        /* \"#utility.yul\":5078:5100   */\n      mstore\n        /* \"#utility.yul\":5124:5126   */\n      dup3\n        /* \"#utility.yul\":5116:5122   */\n      dup2\n        /* \"#utility.yul\":5109:5127   */\n      mstore\n        /* \"#utility.yul\":5164:5171   */\n      dup11\n        /* \"#utility.yul\":5159:5161   */\n      0x20\n        /* \"#utility.yul\":5154:5156   */\n      dup5\n        /* \"#utility.yul\":5150:5152   */\n      dup8\n        /* \"#utility.yul\":5146:5157   */\n      add\n        /* \"#utility.yul\":5142:5162   */\n      add\n        /* \"#utility.yul\":5139:5172   */\n      gt\n        /* \"#utility.yul\":5136:5189   */\n      iszero\n      tag_747\n      jumpi\n        /* \"#utility.yul\":5185:5186   */\n      0x00\n        /* \"#utility.yul\":5182:5183   */\n      dup1\n        /* \"#utility.yul\":5175:5187   */\n      revert\n        /* \"#utility.yul\":5136:5189   */\n    tag_747:\n        /* \"#utility.yul\":5241:5243   */\n      dup3\n        /* \"#utility.yul\":5236:5238   */\n      0x20\n        /* \"#utility.yul\":5232:5234   */\n      dup7\n        /* \"#utility.yul\":5228:5239   */\n      add\n        /* \"#utility.yul\":5223:5225   */\n      0x20\n        /* \"#utility.yul\":5215:5221   */\n      dup4\n        /* \"#utility.yul\":5211:5226   */\n      add\n        /* \"#utility.yul\":5198:5244   */\n      calldatacopy\n        /* \"#utility.yul\":5286:5287   */\n      0x00\n        /* \"#utility.yul\":5281:5283   */\n      0x20\n        /* \"#utility.yul\":5276:5278   */\n      dup5\n        /* \"#utility.yul\":5268:5274   */\n      dup4\n        /* \"#utility.yul\":5264:5279   */\n      add\n        /* \"#utility.yul\":5260:5284   */\n      add\n        /* \"#utility.yul\":5253:5288   */\n      mstore\n        /* \"#utility.yul\":5307:5313   */\n      dup1\n        /* \"#utility.yul\":5297:5313   */\n      swap6\n      pop\n      pop\n      pop\n      pop\n      pop\n      pop\n        /* \"#utility.yul\":4181:5319   */\n      swap3\n      swap6\n      swap2\n      swap5\n      pop\n      swap3\n      pop\n      jump\t// out\n        /* \"#utility.yul\":6480:6664   */\n    tag_272:\n        /* \"#utility.yul\":6550:6556   */\n      0x00\n        /* \"#utility.yul\":6603:6605   */\n      0x20\n        /* \"#utility.yul\":6591:6600   */\n      dup3\n        /* \"#utility.yul\":6582:6589   */\n      dup5\n        /* \"#utility.yul\":6578:6601   */\n      sub\n        /* \"#utility.yul\":6574:6606   */\n      slt\n        /* \"#utility.yul\":6571:6623   */\n      iszero\n      tag_752\n      jumpi\n        /* \"#utility.yul\":6619:6620   */\n      0x00\n        /* \"#utility.yul\":6616:6617   */\n      dup1\n        /* \"#utility.yul\":6609:6621   */\n      revert\n        /* \"#utility.yul\":6571:6623   */\n    tag_752:\n      pop\n        /* \"#utility.yul\":6642:6658   */\n      mload\n      swap2\n        /* \"#utility.yul\":6480:6664   */\n      swap1\n      pop\n      jump\t// out\n        /* \"#utility.yul\":7476:7721   */\n    tag_282:\n        /* \"#utility.yul\":7543:7549   */\n      0x00\n        /* \"#utility.yul\":7596:7598   */\n      0x20\n        /* \"#utility.yul\":7584:7593   */\n      dup3\n        /* \"#utility.yul\":7575:7582   */\n      dup5\n        /* \"#utility.yul\":7571:7594   */\n      sub\n        /* \"#utility.yul\":7567:7599   */\n      slt\n        /* \"#utility.yul\":7564:7616   */\n      iszero\n      tag_756\n      jumpi\n        /* \"#utility.yul\":7612:7613   */\n      0x00\n        /* \"#utility.yul\":7609:7610   */\n      dup1\n        /* \"#utility.yul\":7602:7614   */\n      revert\n        /* \"#utility.yul\":7564:7616   */\n    tag_756:\n        /* \"#utility.yul\":7644:7653   */\n      dup2\n        /* \"#utility.yul\":7638:7654   */\n      mload\n        /* \"#utility.yul\":7663:7691   */\n      tag_482\n        /* \"#utility.yul\":7685:7690   */\n      dup2\n        /* \"#utility.yul\":7663:7691   */\n      tag_691\n      jump\t// in\n        /* \"#utility.yul\":7726:7853   */\n    tag_692:\n        /* \"#utility.yul\":7787:7797   */\n      0x4e487b71\n        /* \"#utility.yul\":7782:7785   */\n      0xe0\n        /* \"#utility.yul\":7778:7798   */\n      shl\n        /* \"#utility.yul\":7775:7776   */\n      0x00\n        /* \"#utility.yul\":7768:7799   */\n      mstore\n        /* \"#utility.yul\":7818:7822   */\n      0x11\n        /* \"#utility.yul\":7815:7816   */\n      0x04\n        /* \"#utility.yul\":7808:7823   */\n      mstore\n        /* \"#utility.yul\":7842:7846   */\n      0x24\n        /* \"#utility.yul\":7839:7840   */\n      0x00\n        /* \"#utility.yul\":7832:7847   */\n      revert\n        /* \"#utility.yul\":7858:7983   */\n    tag_284:\n        /* \"#utility.yul\":7923:7932   */\n      dup1\n      dup3\n      add\n        /* \"#utility.yul\":7944:7954   */\n      dup1\n      dup3\n      gt\n        /* \"#utility.yul\":7941:7977   */\n      iszero\n      tag_252\n      jumpi\n        /* \"#utility.yul\":7957:7975   */\n      tag_252\n      tag_692\n      jump\t// in\n        /* \"#utility.yul\":7988:8368   */\n    tag_291:\n        /* \"#utility.yul\":8067:8068   */\n      0x01\n        /* \"#utility.yul\":8063:8075   */\n      dup2\n      dup2\n      shr\n      swap1\n        /* \"#utility.yul\":8110:8122   */\n      dup3\n      and\n      dup1\n        /* \"#utility.yul\":8131:8192   */\n      tag_763\n      jumpi\n        /* \"#utility.yul\":8185:8189   */\n      0x7f\n        /* \"#utility.yul\":8177:8183   */\n      dup3\n        /* \"#utility.yul\":8173:8190   */\n      and\n        /* \"#utility.yul\":8163:8190   */\n      swap2\n      pop\n        /* \"#utility.yul\":8131:8192   */\n    tag_763:\n        /* \"#utility.yul\":8238:8240   */\n      0x20\n        /* \"#utility.yul\":8230:8236   */\n      dup3\n        /* \"#utility.yul\":8227:8241   */\n      lt\n        /* \"#utility.yul\":8207:8225   */\n      dup2\n        /* \"#utility.yul\":8204:8242   */\n      sub\n        /* \"#utility.yul\":8201:8362   */\n      tag_764\n      jumpi\n        /* \"#utility.yul\":8284:8294   */\n      0x4e487b71\n        /* \"#utility.yul\":8279:8282   */\n      0xe0\n        /* \"#utility.yul\":8275:8295   */\n      shl\n        /* \"#utility.yul\":8272:8273   */\n      0x00\n        /* \"#utility.yul\":8265:8296   */\n      mstore\n        /* \"#utility.yul\":8319:8323   */\n      0x22\n        /* \"#utility.yul\":8316:8317   */\n      0x04\n        /* \"#utility.yul\":8309:8324   */\n      mstore\n        /* \"#utility.yul\":8347:8351   */\n      0x24\n        /* \"#utility.yul\":8344:8345   */\n      0x00\n        /* \"#utility.yul\":8337:8352   */\n      revert\n        /* \"#utility.yul\":8201:8362   */\n    tag_764:\n      pop\n        /* \"#utility.yul\":7988:8368   */\n      swap2\n      swap1\n      pop\n      jump\t// out\n        /* \"#utility.yul\":12157:12292   */\n    tag_399:\n        /* \"#utility.yul\":12196:12199   */\n      0x00\n        /* \"#utility.yul\":12217:12234   */\n      0x01\n      dup3\n      add\n        /* \"#utility.yul\":12214:12257   */\n      tag_777\n      jumpi\n        /* \"#utility.yul\":12237:12255   */\n      tag_777\n      tag_692\n      jump\t// in\n    tag_777:\n      pop\n        /* \"#utility.yul\":12284:12285   */\n      0x01\n        /* \"#utility.yul\":12273:12286   */\n      add\n      swap1\n        /* \"#utility.yul\":12157:12292   */\n      jump\t// out\n        /* \"#utility.yul\":13543:13755   */\n    tag_693:\n        /* \"#utility.yul\":13585:13588   */\n      0x00\n        /* \"#utility.yul\":13623:13628   */\n      dup2\n        /* \"#utility.yul\":13617:13629   */\n      mload\n        /* \"#utility.yul\":13667:13673   */\n      dup1\n        /* \"#utility.yul\":13660:13664   */\n      0x20\n        /* \"#utility.yul\":13653:13658   */\n      dup5\n        /* \"#utility.yul\":13649:13665   */\n      add\n        /* \"#utility.yul\":13644:13647   */\n      dup6\n        /* \"#utility.yul\":13638:13674   */\n      mcopy\n        /* \"#utility.yul\":13729:13730   */\n      0x00\n        /* \"#utility.yul\":13693:13709   */\n      swap4\n      add\n        /* \"#utility.yul\":13718:13731   */\n      swap3\n      dup4\n      mstore\n      pop\n        /* \"#utility.yul\":13693:13709   */\n      swap1\n      swap2\n        /* \"#utility.yul\":13543:13755   */\n      swap1\n      pop\n      jump\t// out\n        /* \"#utility.yul\":13760:14027   */\n    tag_486:\n        /* \"#utility.yul\":13939:13942   */\n      0x00\n        /* \"#utility.yul\":13964:14021   */\n      tag_534\n        /* \"#utility.yul\":13990:14020   */\n      tag_784\n        /* \"#utility.yul\":14016:14019   */\n      dup4\n        /* \"#utility.yul\":14008:14014   */\n      dup7\n        /* \"#utility.yul\":13990:14020   */\n      tag_693\n      jump\t// in\n    tag_784:\n        /* \"#utility.yul\":13982:13988   */\n      dup5\n        /* \"#utility.yul\":13964:14021   */\n      tag_693\n      jump\t// in\n        /* \"#utility.yul\":14443:14966   */\n    tag_566:\n        /* \"#utility.yul\":14637:14641   */\n      0x00\n      sub(shl(0xa0, 0x01), 0x01)\n        /* \"#utility.yul\":14747:14749   */\n      dup1\n        /* \"#utility.yul\":14739:14745   */\n      dup8\n        /* \"#utility.yul\":14735:14750   */\n      and\n        /* \"#utility.yul\":14724:14733   */\n      dup4\n        /* \"#utility.yul\":14717:14751   */\n      mstore\n        /* \"#utility.yul\":14799:14801   */\n      dup1\n        /* \"#utility.yul\":14791:14797   */\n      dup7\n        /* \"#utility.yul\":14787:14802   */\n      and\n        /* \"#utility.yul\":14782:14784   */\n      0x20\n        /* \"#utility.yul\":14771:14780   */\n      dup5\n        /* \"#utility.yul\":14767:14785   */\n      add\n        /* \"#utility.yul\":14760:14803   */\n      mstore\n      pop\n        /* \"#utility.yul\":14839:14845   */\n      dup4\n        /* \"#utility.yul\":14834:14836   */\n      0x40\n        /* \"#utility.yul\":14823:14832   */\n      dup4\n        /* \"#utility.yul\":14819:14837   */\n      add\n        /* \"#utility.yul\":14812:14846   */\n      mstore\n        /* \"#utility.yul\":14882:14885   */\n      0x80\n        /* \"#utility.yul\":14877:14879   */\n      0x60\n        /* \"#utility.yul\":14866:14875   */\n      dup4\n        /* \"#utility.yul\":14862:14880   */\n      add\n        /* \"#utility.yul\":14855:14886   */\n      mstore\n        /* \"#utility.yul\":14903:14960   */\n      tag_787\n        /* \"#utility.yul\":14955:14958   */\n      0x80\n        /* \"#utility.yul\":14944:14953   */\n      dup4\n        /* \"#utility.yul\":14940:14959   */\n      add\n        /* \"#utility.yul\":14932:14938   */\n      dup5\n        /* \"#utility.yul\":14903:14960   */\n      tag_690\n      jump\t// in\n    tag_787:\n        /* \"#utility.yul\":14895:14960   */\n      swap7\n        /* \"#utility.yul\":14443:14966   */\n      swap6\n      pop\n      pop\n      pop\n      pop\n      pop\n      pop\n      jump\t// out\n        /* \"#utility.yul\":14971:15220   */\n    tag_569:\n        /* \"#utility.yul\":15040:15046   */\n      0x00\n        /* \"#utility.yul\":15093:15095   */\n      0x20\n        /* \"#utility.yul\":15081:15090   */\n      dup3\n        /* \"#utility.yul\":15072:15079   */\n      dup5\n        /* \"#utility.yul\":15068:15091   */\n      sub\n        /* \"#utility.yul\":15064:15096   */\n      slt\n        /* \"#utility.yul\":15061:15113   */\n      iszero\n      tag_789\n      jumpi\n        /* \"#utility.yul\":15109:15110   */\n      0x00\n        /* \"#utility.yul\":15106:15107   */\n      dup1\n        /* \"#utility.yul\":15099:15111   */\n      revert\n        /* \"#utility.yul\":15061:15113   */\n    tag_789:\n        /* \"#utility.yul\":15141:15150   */\n      dup2\n        /* \"#utility.yul\":15135:15151   */\n      mload\n        /* \"#utility.yul\":15160:15190   */\n      tag_482\n        /* \"#utility.yul\":15184:15189   */\n      dup2\n        /* \"#utility.yul\":15160:15190   */\n      tag_688\n      jump\t// in\n        /* \"#utility.yul\":15357:15688   */\n    tag_608:\n        /* \"#utility.yul\":15462:15471   */\n      0x00\n        /* \"#utility.yul\":15473:15482   */\n      dup1\n        /* \"#utility.yul\":15515:15523   */\n      dup6\n        /* \"#utility.yul\":15503:15513   */\n      dup6\n        /* \"#utility.yul\":15500:15524   */\n      gt\n        /* \"#utility.yul\":15497:15541   */\n      iszero\n      tag_793\n      jumpi\n        /* \"#utility.yul\":15537:15538   */\n      0x00\n        /* \"#utility.yul\":15534:15535   */\n      dup1\n        /* \"#utility.yul\":15527:15539   */\n      revert\n        /* \"#utility.yul\":15497:15541   */\n    tag_793:\n        /* \"#utility.yul\":15566:15572   */\n      dup4\n        /* \"#utility.yul\":15556:15564   */\n      dup7\n        /* \"#utility.yul\":15553:15573   */\n      gt\n        /* \"#utility.yul\":15550:15590   */\n      iszero\n      tag_794\n      jumpi\n        /* \"#utility.yul\":15586:15587   */\n      0x00\n        /* \"#utility.yul\":15583:15584   */\n      dup1\n        /* \"#utility.yul\":15576:15588   */\n      revert\n        /* \"#utility.yul\":15550:15590   */\n    tag_794:\n      pop\n      pop\n        /* \"#utility.yul\":15612:15635   */\n      dup3\n      add\n      swap4\n        /* \"#utility.yul\":15657:15682   */\n      swap2\n      swap1\n      swap3\n      sub\n      swap2\n      pop\n        /* \"#utility.yul\":15357:15688   */\n      jump\t// out\n        /* \"#utility.yul\":15693:16030   */\n    tag_610:\n      not(0xffffffffffffffffffffffff)\n        /* \"#utility.yul\":15814:15833   */\n      dup2\n      calldataload\n        /* \"#utility.yul\":15901:15912   */\n      dup2\n      dup2\n      and\n      swap2\n        /* \"#utility.yul\":15932:15934   */\n      0x14\n        /* \"#utility.yul\":15924:15935   */\n      dup6\n      lt\n        /* \"#utility.yul\":15921:16024   */\n      iszero\n      tag_796\n      jumpi\n        /* \"#utility.yul\":16011:16013   */\n      dup1\n        /* \"#utility.yul\":16005:16007   */\n      dup2\n        /* \"#utility.yul\":15998:16001   */\n      dup7\n        /* \"#utility.yul\":15994:15996   */\n      0x14\n        /* \"#utility.yul\":15990:16002   */\n      sub\n        /* \"#utility.yul\":15987:15988   */\n      0x03\n        /* \"#utility.yul\":15983:16003   */\n      shl\n        /* \"#utility.yul\":15979:16008   */\n      shl\n        /* \"#utility.yul\":15975:15977   */\n      dup4\n        /* \"#utility.yul\":15971:16009   */\n      and\n        /* \"#utility.yul\":15967:16014   */\n      and\n        /* \"#utility.yul\":15958:16014   */\n      swap3\n      pop\n        /* \"#utility.yul\":15921:16024   */\n    tag_796:\n      pop\n      pop\n        /* \"#utility.yul\":15693:16030   */\n      swap3\n      swap2\n      pop\n      pop\n      jump\t// out\n\n    auxdata: 0xa264697066735822122092c10801a674ce6264688c4c499192eed081561dc3886bd50ca09035264792ad64736f6c63430008190033\n}\n",
    "bytecode": {
      "linkReferences": {},
      "object": "60a060405234801561000f575f80fd5b50604051612ff5380380612ff583398101604081905261002e91610334565b808285855f61003d8382610437565b50600161004a8282610437565b5050506001600160a01b03811661007a57604051631e4fbdf760e01b81525f600482015260240160405180910390fd5b61008381610105565b506001600160a01b0316608052600160085561009f5f83610156565b506100ca7fa49807205ce4d355092ef5a8a18f56e8913cf4a201fbe287825b095693c2177583610156565b506100f57f9f2df0fed2c77648de5860a4cc508cd0818c85b8b8a1ab4ceeef8d981c8956a683610156565b505060016009555061054d915050565b600680546001600160a01b038381166001600160a01b0319831681179093556040519116919082907f8be0079c531659141344cd1fd0a4f28419497f9722a3daafe3b4186f6b6457e0905f90a35050565b5f8281526007602090815260408083206001600160a01b038516845290915281205460ff166101fb575f8381526007602090815260408083206001600160a01b03861684529091529020805460ff191660011790556101b3610204565b6001600160a01b0316826001600160a01b0316847f2f8788117e7eff1d82e926ec794901d17c78024a50270940304540a733656f0d60405160405180910390a45060016101fe565b505f5b92915050565b5f61020d610212565b905090565b5f36601480821080159061022a575061022a33610258565b156102505761023d36828403815f6104f6565b6102469161051d565b60601c9250505090565b339250505090565b5f61026260805190565b6001600160a01b0316826001600160a01b0316149050919050565b634e487b7160e01b5f52604160045260245ffd5b5f82601f8301126102a0575f80fd5b81516001600160401b03808211156102ba576102ba61027d565b604051601f8301601f19908116603f011681019082821181831017156102e2576102e261027d565b816040528381528660208588010111156102fa575f80fd5b8360208701602083015e5f602085830101528094505050505092915050565b80516001600160a01b038116811461032f575f80fd5b919050565b5f805f8060808587031215610347575f80fd5b84516001600160401b038082111561035d575f80fd5b61036988838901610291565b9550602087015191508082111561037e575f80fd5b5061038b87828801610291565b93505061039a60408601610319565b91506103a860608601610319565b905092959194509250565b600181811c908216806103c757607f821691505b6020821081036103e557634e487b7160e01b5f52602260045260245ffd5b50919050565b601f82111561043257805f5260205f20601f840160051c810160208510156104105750805b601f840160051c820191505b8181101561042f575f815560010161041c565b50505b505050565b81516001600160401b038111156104505761045061027d565b6104648161045e84546103b3565b846103eb565b602080601f831160018114610497575f84156104805750858301515b5f19600386901b1c1916600185901b1785556104ee565b5f85815260208120601f198616915b828110156104c5578886015182559484019460019091019084016104a6565b50858210156104e257878501515f19600388901b60f8161c191681555b505060018460011b0185555b505050505050565b5f8085851115610504575f80fd5b83861115610510575f80fd5b5050820193919092039150565b6001600160601b031981358181169160148510156105455780818660140360031b1b83161692505b505092915050565b608051612a826105735f395f81816104eb0152818161062301526121280152612a825ff3fe6080604052600436106102c1575f3560e01c8063715018a611610170578063a217fddf116100d1578063d539139311610087578063e985e9c511610062578063e985e9c514610841578063f2fde38b14610888578063fa9f3f27146108a7575f80fd5b8063d5391393146107d0578063d547741f14610803578063e268e4d314610822575f80fd5b8063b2118a8d116100b7578063b2118a8d14610773578063b88d4fde14610792578063c87b56dd146107b1575f80fd5b8063a217fddf14610741578063a22cb46514610754575f80fd5b806391d14854116101265780639769dc0e1161010c5780639769dc0e146106f05780639dc29fac1461070f5780639f03f6641461072e575f80fd5b806391d148541461069857806395d89b41146106dc575f80fd5b80637da0a877116101565780637da0a877146106155780638796a531146106475780638da5cb5b1461067b575f80fd5b8063715018a6146105ce57806375b238fc146105e2575f80fd5b806333ea51a811610225578063572b6c05116101db5780636352211e116101b65780636352211e1461055a57806365a6aaeb1461057957806370a08231146105af575f80fd5b8063572b6c05146104cf578063578ffd361461051b5780635b70ea9f14610546575f80fd5b8063392604f81161020b578063392604f81461047c57806342842e0e1461049b578063453c2310146104ba575f80fd5b806333ea51a81461043e57806336568abe1461045d575f80fd5b8063099a04e51161027a57806323b872dd1161026057806323b872dd146103c4578063248a9ca3146103e35780632f2ff15d1461041f575f80fd5b8063099a04e51461039157806312954dc2146103b0575f80fd5b806306fdde03116102aa57806306fdde031461031a578063081812fc1461033b578063095ea7b314610372575f80fd5b806301ffc9a7146102c557806306553e6c146102f9575b5f80fd5b3480156102d0575f80fd5b506102e46102df366004612642565b6108c6565b60405190151581526020015b60405180910390f35b348015610304575f80fd5b50610318610313366004612678565b6108d6565b005b348015610325575f80fd5b5061032e610bdc565b6040516102f091906126df565b348015610346575f80fd5b5061035a6103553660046126f1565b610c6b565b6040516001600160a01b0390911681526020016102f0565b34801561037d575f80fd5b5061031861038c366004612708565b610c92565b34801561039c575f80fd5b506103186103ab366004612708565b610ca8565b3480156103bb575f80fd5b50610318610e37565b3480156103cf575f80fd5b506103186103de366004612678565b61102c565b3480156103ee575f80fd5b506104116103fd3660046126f1565b5f9081526007602052604090206001015490565b6040519081526020016102f0565b34801561042a575f80fd5b50610318610439366004612730565b6110bc565b348015610449575f80fd5b5061031861045836600461275a565b6110e0565b348015610468575f80fd5b50610318610477366004612730565b6111be565b348015610487575f80fd5b5061031861049636600461275a565b611201565b3480156104a6575f80fd5b506103186104b5366004612678565b6113e4565b3480156104c5575f80fd5b5061041160095481565b3480156104da575f80fd5b506102e46104e936600461275a565b7f00000000000000000000000000000000000000000000000000000000000000006001600160a01b0390811691161490565b348015610526575f80fd5b5061041161053536600461275a565b600c6020525f908152604090205481565b348015610551575f80fd5b506103186113fe565b348015610565575f80fd5b5061035a6105743660046126f1565b6114a1565b348015610584575f80fd5b50610411610593366004612773565b600d60209081525f928352604080842090915290825290205481565b3480156105ba575f80fd5b506104116105c936600461275a565b6114ab565b3480156105d9575f80fd5b506103186114f0565b3480156105ed575f80fd5b506104117fa49807205ce4d355092ef5a8a18f56e8913cf4a201fbe287825b095693c2177581565b348015610620575f80fd5b507f000000000000000000000000000000000000000000000000000000000000000061035a565b348015610652575f80fd5b5061035a61066136600461275a565b600b6020525f90815260409020546001600160a01b031681565b348015610686575f80fd5b506006546001600160a01b031661035a565b3480156106a3575f80fd5b506102e46106b2366004612730565b5f9182526007602090815260408084206001600160a01b0393909316845291905290205460ff1690565b3480156106e7575f80fd5b5061032e611501565b3480156106fb575f80fd5b5061031861070a36600461275a565b611510565b34801561071a575f80fd5b50610318610729366004612708565b6115ec565b61031861073c36600461275a565b6116ad565b34801561074c575f80fd5b506104115f81565b34801561075f575f80fd5b5061031861076e3660046127a8565b6117ab565b34801561077e575f80fd5b5061031861078d366004612678565b6117bd565b34801561079d575f80fd5b506103186107ac3660046127f1565b611982565b3480156107bc575f80fd5b5061032e6107cb3660046126f1565b6119a1565b3480156107db575f80fd5b506104117f9f2df0fed2c77648de5860a4cc508cd0818c85b8b8a1ab4ceeef8d981c8956a681565b34801561080e575f80fd5b5061031861081d366004612730565b611a12565b34801561082d575f80fd5b5061031861083c3660046126f1565b611a36565b34801561084c575f80fd5b506102e461085b366004612773565b6001600160a01b039182165f90815260056020908152604080832093909416825291909152205460ff1690565b348015610893575f80fd5b506103186108a236600461275a565b611a66565b3480156108b2575f80fd5b506102e46108c136600461275a565b611aa0565b5f6108d082611ab2565b92915050565b6108de611ad6565b5f6108e8846114ab565b1161094e5760405162461bcd60e51b815260206004820152602b60248201527f50616e646f7261734b65793a20526563697069656e74206973206e6f7420612060448201526a35b2bc903437b63232b91760a91b60648201526084015b60405180910390fd5b5f81116109c35760405162461bcd60e51b815260206004820152602b60248201527f50616e646f7261734b65793a20416d6f756e74206d757374206265206772656160448201527f746572207468616e20302e0000000000000000000000000000000000000000006064820152608401610945565b815f6001600160a01b03821663dd62ed3e6109dc611b00565b6040516001600160e01b031960e084901b1681526001600160a01b039091166004820152306024820152604401602060405180830381865afa158015610a24573d5f803e3d5ffd5b505050506040513d601f19601f82011682018060405250810190610a4891906128c6565b905082811015610aa65760405162461bcd60e51b815260206004820152602360248201527f50616e646f7261734b65793a20436865636b20746f6b656e20616c6c6f77616e60448201526231b29760e91b6064820152608401610945565b816001600160a01b03166323b872dd610abd611b00565b6040516001600160e01b031960e084901b1681526001600160a01b039091166004820152306024820152604481018690526064016020604051808303815f875af1158015610b0d573d5f803e3d5ffd5b505050506040513d601f19601f82011682018060405250810190610b3191906128dd565b506001600160a01b038086165f908152600d6020908152604080832093881683529290529081208054859290610b6890849061290c565b90915550506001600160a01b038416610b7f611b00565b6001600160a01b0316866001600160a01b03167fa9684ad4c6c3f1c6b38cc344e4da2ac0834ce6b5775478b5c2bc37cc4265f20b86604051610bc391815260200190565b60405180910390a45050610bd76001600855565b505050565b60605f8054610bea9061291f565b80601f0160208091040260200160405190810160405280929190818152602001828054610c169061291f565b8015610c615780601f10610c3857610100808354040283529160200191610c61565b820191905f5260205f20905b815481529060010190602001808311610c4457829003601f168201915b5050505050905090565b5f610c7582611b0e565b505f828152600460205260409020546001600160a01b03166108d0565b610ca48282610c9f611b00565b611b46565b5050565b610cb0611b53565b6001600160a01b038216610d185760405162461bcd60e51b815260206004820152602960248201527f50616e646f7261734b65793a2043616e6e6f742073656e6420746f207a65726f6044820152681030b2323932b9b99760b91b6064820152608401610945565b80471015610d8e5760405162461bcd60e51b815260206004820152602b60248201527f50616e646f7261734b65793a20496e73756666696369656e7420636f6e74726160448201527f63742062616c616e63652e0000000000000000000000000000000000000000006064820152608401610945565b5f826001600160a01b0316826040515f6040518083038185875af1925050503d805f8114610dd7576040519150601f19603f3d011682016040523d82523d5f602084013e610ddc565b606091505b5050905080610bd75760405162461bcd60e51b815260206004820152602160248201527f50616e646f7261734b65793a20455448207472616e73666572206661696c65646044820152601760f91b6064820152608401610945565b610e3f611ad6565b5f610e48611b00565b6001600160a01b0381165f908152600c602052604090205490915080610ed65760405162461bcd60e51b815260206004820152602860248201527f50616e646f7261734b65793a204e6f204554482062616c616e636520746f207760448201527f697468647261772e0000000000000000000000000000000000000000000000006064820152608401610945565b6001600160a01b038083165f908152600c60209081526040808320839055600b909152812054909116610f095782610f24565b6001600160a01b038084165f908152600b6020526040902054165b90505f816001600160a01b0316836040515f6040518083038185875af1925050503d805f8114610f6f576040519150601f19603f3d011682016040523d82523d5f602084013e610f74565b606091505b5050905080610fcf5760405162461bcd60e51b815260206004820152602160248201527f50616e646f7261734b65793a20455448207472616e73666572206661696c65646044820152601760f91b6064820152608401610945565b816001600160a01b0316846001600160a01b03167f6b1f4ce962fec27598edceab6195c77516c3df32025eaf0c38d0d4009ac3bd488560405161101491815260200190565b60405180910390a35050505061102a6001600855565b565b6001600160a01b03821661105557604051633250574960e11b81525f6004820152602401610945565b5f6110688383611063611b00565b611bb1565b9050836001600160a01b0316816001600160a01b0316146110b6576040516364283d7b60e01b81526001600160a01b0380861660048301526024820184905282166044820152606401610945565b50505050565b5f828152600760205260409020600101546110d681611c64565b6110b68383611c75565b5f6110e9611b00565b90505f6110f5826114ab565b116111685760405162461bcd60e51b815260206004820152603360248201527f50616e646f7261734b65793a204f6e6c7920686f6c646572732063616e20736560448201527f742061207061796f757420616464726573732e000000000000000000000000006064820152608401610945565b6001600160a01b038181165f818152600b602052604080822080546001600160a01b0319169487169485179055517f86595dc4ed4838fd84eeed07a9f42ea9af43a730d94d90334e779b82264c0d7c9190a35050565b6111c6611b00565b6001600160a01b0316816001600160a01b0316146111f75760405163334bd91960e11b815260040160405180910390fd5b610bd78282611d21565b611209611ad6565b5f611212611b00565b6001600160a01b038082165f908152600d6020908152604080832093871683529290522054909150806112ad5760405162461bcd60e51b815260206004820152602a60248201527f50616e646f7261734b65793a204e6f20746f6b656e2062616c616e636520746f60448201527f2077697468647261772e000000000000000000000000000000000000000000006064820152608401610945565b6001600160a01b038083165f818152600d6020908152604080832088861684528252808320839055928252600b9052908120549091166112ed5782611308565b6001600160a01b038084165f908152600b6020526040902054165b60405163a9059cbb60e01b81526001600160a01b038083166004830152602482018590529192509085169063a9059cbb906044016020604051808303815f875af1158015611358573d5f803e3d5ffd5b505050506040513d601f19601f8201168201806040525081019061137c91906128dd565b50836001600160a01b0316816001600160a01b0316846001600160a01b03167f08c1fcaf583c2b413bb27833685230422583405ae651b6d53e2053bf75bd0740856040516113cc91815260200190565b60405180910390a45050506113e16001600855565b50565b610bd783838360405180602001604052805f815250611982565b611406611ad6565b5f61140f611b00565b905060095461141d826114ab565b106114765760405162461bcd60e51b8152602060048201526024808201527f50616e646f7261734b65793a204d6178207065722077616c6c657420726561636044820152633432b21760e11b6064820152608401610945565b61148281600a54611dc4565b600a8054905f61149183612957565b91905055505061102a6001600855565b5f6108d082611b0e565b5f6001600160a01b0382166114d5576040516322718ad960e21b81525f6004820152602401610945565b506001600160a01b03165f9081526003602052604090205490565b6114f8611b53565b61102a5f611ddd565b606060018054610bea9061291f565b611518611ad6565b7fa49807205ce4d355092ef5a8a18f56e8913cf4a201fbe287825b095693c2177561154281611c64565b60095461154e836114ab565b106115c15760405162461bcd60e51b815260206004820152603260248201527f50616e646f7261734b65793a204d6178207065722077616c6c6574207265616360448201527f68656420666f7220726563697069656e742e00000000000000000000000000006064820152608401610945565b6115cd82600a54611dc4565b600a8054905f6115dc83612957565b9190505550506113e16001600855565b7fa49807205ce4d355092ef5a8a18f56e8913cf4a201fbe287825b095693c2177561161681611c64565b5f828152600260205260409020546001600160a01b038481169116146116a45760405162461bcd60e51b815260206004820152602860248201527f50616e646f7261734b65793a204e6f7420746865206f776e6572206f6620746860448201527f6520746f6b656e2e0000000000000000000000000000000000000000000000006064820152608401610945565b610bd782611e2e565b6116b5611ad6565b5f6116bf826114ab565b116117205760405162461bcd60e51b815260206004820152602b60248201527f50616e646f7261734b65793a20526563697069656e74206973206e6f7420612060448201526a35b2bc903437b63232b91760a91b6064820152608401610945565b6001600160a01b0381165f908152600c60205260408120805434929061174790849061290c565b909155506117559050611b00565b6001600160a01b0316816001600160a01b03167f5c8132825cb668206ec2586554c3bcd3d8e2d7f95ce7a99c939b4ad357d7ebbe3460405161179991815260200190565b60405180910390a36113e16001600855565b610ca46117b6611b00565b8383611e66565b6117c5611b53565b6001600160a01b03821661182d5760405162461bcd60e51b815260206004820152602960248201527f50616e646f7261734b65793a2043616e6e6f742073656e6420746f207a65726f6044820152681030b2323932b9b99760b91b6064820152608401610945565b6040516370a0823160e01b8152306004820152839082906001600160a01b038316906370a0823190602401602060405180830381865afa158015611873573d5f803e3d5ffd5b505050506040513d601f19601f8201168201806040525081019061189791906128c6565b101561190b5760405162461bcd60e51b815260206004820152603160248201527f50616e646f7261734b65793a20496e73756666696369656e7420636f6e74726160448201527f637420746f6b656e2062616c616e63652e0000000000000000000000000000006064820152608401610945565b60405163a9059cbb60e01b81526001600160a01b0384811660048301526024820184905282169063a9059cbb906044016020604051808303815f875af1158015611957573d5f803e3d5ffd5b505050506040513d601f19601f8201168201806040525081019061197b91906128dd565b5050505050565b61198d84848461102c565b6110b6611998611b00565b85858585611f04565b60606119ac82611b0e565b505f6119c260408051602081019091525f815290565b90505f8151116119e05760405180602001604052805f815250611a0b565b806119ea8461202b565b6040516020016119fb929190612986565b6040516020818303038152906040525b9392505050565b5f82815260076020526040902060010154611a2c81611c64565b6110b68383611d21565b7fa49807205ce4d355092ef5a8a18f56e8913cf4a201fbe287825b095693c21775611a6081611c64565b50600955565b611a6e611b53565b6001600160a01b038116611a9757604051631e4fbdf760e01b81525f6004820152602401610945565b6113e181611ddd565b5f80611aab836114ab565b1192915050565b5f6001600160e01b03198216637965db0b60e01b14806108d057506108d0826120c8565b600260085403611af957604051633ee5aeb560e01b815260040160405180910390fd5b6002600855565b5f611b09612117565b905090565b5f818152600260205260408120546001600160a01b0316806108d057604051637e27328960e01b815260048101849052602401610945565b610bd78383836001612181565b611b5b611b00565b6001600160a01b0316611b766006546001600160a01b031690565b6001600160a01b03161461102a57611b8c611b00565b60405163118cdaa760e01b81526001600160a01b039091166004820152602401610945565b5f828152600260205260408120546001600160a01b031615801590611bde57506001600160a01b03841615155b15611c515760405162461bcd60e51b815260206004820152602a60248201527f50616e646f7261734b65793a2054686973204e4654206973206e6f6e2d74726160448201527f6e7366657261626c652e000000000000000000000000000000000000000000006064820152608401610945565b611c5c8484846122a3565b949350505050565b6113e181611c70611b00565b612395565b5f8281526007602090815260408083206001600160a01b038516845290915281205460ff16611d1a575f8381526007602090815260408083206001600160a01b03861684529091529020805460ff19166001179055611cd2611b00565b6001600160a01b0316826001600160a01b0316847f2f8788117e7eff1d82e926ec794901d17c78024a50270940304540a733656f0d60405160405180910390a45060016108d0565b505f6108d0565b5f8281526007602090815260408083206001600160a01b038516845290915281205460ff1615611d1a575f8381526007602090815260408083206001600160a01b03861684529091529020805460ff19169055611d7c611b00565b6001600160a01b0316826001600160a01b0316847ff6391f5c32d9c69d2a47ea670b442974b53935d1edc7fd64eb21e047a839171b60405160405180910390a45060016108d0565b610ca4828260405180602001604052805f8152506123e9565b600680546001600160a01b038381166001600160a01b0319831681179093556040519116919082907f8be0079c531659141344cd1fd0a4f28419497f9722a3daafe3b4186f6b6457e0905f90a35050565b5f611e3a5f835f611bb1565b90506001600160a01b038116610ca457604051637e27328960e01b815260048101839052602401610945565b6001600160a01b038216611e9857604051630b61174360e31b81526001600160a01b0383166004820152602401610945565b6001600160a01b038381165f81815260056020908152604080832094871680845294825291829020805460ff191686151590811790915591519182527f17307eab39ab6107e8899845ad3d59bd9653f200f220920489ca2b5937696c31910160405180910390a3505050565b6001600160a01b0383163b1561197b57604051630a85bd0160e11b81526001600160a01b0384169063150b7a0290611f4690889088908790879060040161299a565b6020604051808303815f875af1925050508015611f80575060408051601f3d908101601f19168201909252611f7d918101906129d5565b60015b611fe7573d808015611fad576040519150601f19603f3d011682016040523d82523d5f602084013e611fb2565b606091505b5080515f03611fdf57604051633250574960e11b81526001600160a01b0385166004820152602401610945565b805160208201fd5b6001600160e01b03198116630a85bd0160e11b1461202357604051633250574960e11b81526001600160a01b0385166004820152602401610945565b505050505050565b60605f61203783612407565b60010190505f8167ffffffffffffffff811115612056576120566127dd565b6040519080825280601f01601f191660200182016040528015612080576020820181803683370190505b5090508181016020015b5f19017f3031323334353637383961626364656600000000000000000000000000000000600a86061a8153600a850494508461208a57509392505050565b5f6001600160e01b031982166380ac58cd60e01b14806120f857506001600160e01b03198216635b5e139f60e01b145b806108d057506301ffc9a760e01b6001600160e01b03198316146108d0565b5f36601480821080159061215357507f00000000000000000000000000000000000000000000000000000000000000006001600160a01b031633145b156121795761216636828403815f6129f0565b61216f91612a17565b60601c9250505090565b339250505090565b808061219557506001600160a01b03821615155b15612274575f6121a484611b0e565b90506001600160a01b038316158015906121d05750826001600160a01b0316816001600160a01b031614155b801561220157506001600160a01b038082165f9081526005602090815260408083209387168352929052205460ff16155b1561222a5760405163a9fbf51f60e01b81526001600160a01b0384166004820152602401610945565b81156122725783856001600160a01b0316826001600160a01b03167f8c5be1e5ebec7d5bd14f71427d1e84f3dd0314c0f7b2291e5b200ac8c7c3b92560405160405180910390a45b505b50505f90815260046020526040902080546001600160a01b0319166001600160a01b0392909216919091179055565b5f828152600260205260408120546001600160a01b03908116908316156122cf576122cf8184866124e8565b6001600160a01b03811615612309576122ea5f855f80612181565b6001600160a01b0381165f90815260036020526040902080545f190190555b6001600160a01b03851615612337576001600160a01b0385165f908152600360205260409020805460010190555b5f8481526002602052604080822080546001600160a01b0319166001600160a01b0389811691821790925591518793918516917fddf252ad1be2c89b69c2b068fc378daa952ba7f163c4a11628f55a4df523b3ef91a4949350505050565b5f8281526007602090815260408083206001600160a01b038516845290915290205460ff16610ca45760405163e2517d3f60e01b81526001600160a01b038216600482015260248101839052604401610945565b6123f3838361254c565b610bd76123fe611b00565b5f858585611f04565b5f807a184f03e93ff9f4daa797ed6e38ed64bf6a1f010000000000000000831061244f577a184f03e93ff9f4daa797ed6e38ed64bf6a1f010000000000000000830492506040015b6d04ee2d6d415b85acef8100000000831061247b576d04ee2d6d415b85acef8100000000830492506020015b662386f26fc10000831061249957662386f26fc10000830492506010015b6305f5e10083106124b1576305f5e100830492506008015b61271083106124c557612710830492506004015b606483106124d7576064830492506002015b600a83106108d05760010192915050565b6124f38383836125ad565b610bd7576001600160a01b03831661252157604051637e27328960e01b815260048101829052602401610945565b60405163177e802f60e01b81526001600160a01b038316600482015260248101829052604401610945565b6001600160a01b03821661257557604051633250574960e11b81525f6004820152602401610945565b5f61258183835f611bb1565b90506001600160a01b03811615610bd7576040516339e3563760e11b81525f6004820152602401610945565b5f6001600160a01b03831615801590611c5c5750826001600160a01b0316846001600160a01b0316148061260557506001600160a01b038085165f9081526005602090815260408083209387168352929052205460ff165b80611c5c5750505f908152600460205260409020546001600160a01b03908116911614919050565b6001600160e01b0319811681146113e1575f80fd5b5f60208284031215612652575f80fd5b8135611a0b8161262d565b80356001600160a01b0381168114612673575f80fd5b919050565b5f805f6060848603121561268a575f80fd5b6126938461265d565b92506126a16020850161265d565b9150604084013590509250925092565b5f81518084528060208401602086015e5f602082860101526020601f19601f83011685010191505092915050565b602081525f611a0b60208301846126b1565b5f60208284031215612701575f80fd5b5035919050565b5f8060408385031215612719575f80fd5b6127228361265d565b946020939093013593505050565b5f8060408385031215612741575f80fd5b823591506127516020840161265d565b90509250929050565b5f6020828403121561276a575f80fd5b611a0b8261265d565b5f8060408385031215612784575f80fd5b61278d8361265d565b91506127516020840161265d565b80151581146113e1575f80fd5b5f80604083850312156127b9575f80fd5b6127c28361265d565b915060208301356127d28161279b565b809150509250929050565b634e487b7160e01b5f52604160045260245ffd5b5f805f8060808587031215612804575f80fd5b61280d8561265d565b935061281b6020860161265d565b925060408501359150606085013567ffffffffffffffff8082111561283e575f80fd5b818701915087601f830112612851575f80fd5b813581811115612863576128636127dd565b604051601f8201601f19908116603f0116810190838211818310171561288b5761288b6127dd565b816040528281528a60208487010111156128a3575f80fd5b826020860160208301375f60208483010152809550505050505092959194509250565b5f602082840312156128d6575f80fd5b5051919050565b5f602082840312156128ed575f80fd5b8151611a0b8161279b565b634e487b7160e01b5f52601160045260245ffd5b808201808211156108d0576108d06128f8565b600181811c9082168061293357607f821691505b60208210810361295157634e487b7160e01b5f52602260045260245ffd5b50919050565b5f60018201612968576129686128f8565b5060010190565b5f81518060208401855e5f93019283525090919050565b5f611c5c612994838661296f565b8461296f565b5f6001600160a01b038087168352808616602084015250836040830152608060608301526129cb60808301846126b1565b9695505050505050565b5f602082840312156129e5575f80fd5b8151611a0b8161262d565b5f80858511156129fe575f80fd5b83861115612a0a575f80fd5b5050820193919092039150565b6bffffffffffffffffffffffff198135818116916014851015612a445780818660140360031b1b83161692505b50509291505056fea264697066735822122092c10801a674ce6264688c4c499192eed081561dc3886bd50ca09035264792ad64736f6c63430008190033",
      "opcodes": "PUSH1 0xA0 PUSH1 0x40 MSTORE CALLVALUE DUP1 ISZERO PUSH2 0xF JUMPI PUSH0 DUP1 REVERT JUMPDEST POP PUSH1 0x40 MLOAD PUSH2 0x2FF5 CODESIZE SUB DUP1 PUSH2 0x2FF5 DUP4 CODECOPY DUP2 ADD PUSH1 0x40 DUP2 SWAP1 MSTORE PUSH2 0x2E SWAP2 PUSH2 0x334 JUMP JUMPDEST DUP1 DUP3 DUP6 DUP6 PUSH0 PUSH2 0x3D DUP4 DUP3 PUSH2 0x437 JUMP JUMPDEST POP PUSH1 0x1 PUSH2 0x4A DUP3 DUP3 PUSH2 0x437 JUMP JUMPDEST POP POP POP PUSH1 0x1 PUSH1 0x1 PUSH1 0xA0 SHL SUB DUP2 AND PUSH2 0x7A JUMPI PUSH1 0x40 MLOAD PUSH4 0x1E4FBDF7 PUSH1 0xE0 SHL DUP2 MSTORE PUSH0 PUSH1 0x4 DUP3 ADD MSTORE PUSH1 0x24 ADD PUSH1 0x40 MLOAD DUP1 SWAP2 SUB SWAP1 REVERT JUMPDEST PUSH2 0x83 DUP2 PUSH2 0x105 JUMP JUMPDEST POP PUSH1 0x1 PUSH1 0x1 PUSH1 0xA0 SHL SUB AND PUSH1 0x80 MSTORE PUSH1 0x1 PUSH1 0x8 SSTORE PUSH2 0x9F PUSH0 DUP4 PUSH2 0x156 JUMP JUMPDEST POP PUSH2 0xCA PUSH32 0xA49807205CE4D355092EF5A8A18F56E8913CF4A201FBE287825B095693C21775 DUP4 PUSH2 0x156 JUMP JUMPDEST POP PUSH2 0xF5 PUSH32 0x9F2DF0FED2C77648DE5860A4CC508CD0818C85B8B8A1AB4CEEEF8D981C8956A6 DUP4 PUSH2 0x156 JUMP JUMPDEST POP POP PUSH1 0x1 PUSH1 0x9 SSTORE POP PUSH2 0x54D SWAP2 POP POP JUMP JUMPDEST PUSH1 0x6 DUP1 SLOAD PUSH1 0x1 PUSH1 0x1 PUSH1 0xA0 SHL SUB DUP4 DUP2 AND PUSH1 0x1 PUSH1 0x1 PUSH1 0xA0 SHL SUB NOT DUP4 AND DUP2 OR SWAP1 SWAP4 SSTORE PUSH1 0x40 MLOAD SWAP2 AND SWAP2 SWAP1 DUP3 SWAP1 PUSH32 0x8BE0079C531659141344CD1FD0A4F28419497F9722A3DAAFE3B4186F6B6457E0 SWAP1 PUSH0 SWAP1 LOG3 POP POP JUMP JUMPDEST PUSH0 DUP3 DUP2 MSTORE PUSH1 0x7 PUSH1 0x20 SWAP1 DUP2 MSTORE PUSH1 0x40 DUP1 DUP4 KECCAK256 PUSH1 0x1 PUSH1 0x1 PUSH1 0xA0 SHL SUB DUP6 AND DUP5 MSTORE SWAP1 SWAP2 MSTORE DUP2 KECCAK256 SLOAD PUSH1 0xFF AND PUSH2 0x1FB JUMPI PUSH0 DUP4 DUP2 MSTORE PUSH1 0x7 PUSH1 0x20 SWAP1 DUP2 MSTORE PUSH1 0x40 DUP1 DUP4 KECCAK256 PUSH1 0x1 PUSH1 0x1 PUSH1 0xA0 SHL SUB DUP7 AND DUP5 MSTORE SWAP1 SWAP2 MSTORE SWAP1 KECCAK256 DUP1 SLOAD PUSH1 0xFF NOT AND PUSH1 0x1 OR SWAP1 SSTORE PUSH2 0x1B3 PUSH2 0x204 JUMP JUMPDEST PUSH1 0x1 PUSH1 0x1 PUSH1 0xA0 SHL SUB AND DUP3 PUSH1 0x1 PUSH1 0x1 PUSH1 0xA0 SHL SUB AND DUP5 PUSH32 0x2F8788117E7EFF1D82E926EC794901D17C78024A50270940304540A733656F0D PUSH1 0x40 MLOAD PUSH1 0x40 MLOAD DUP1 SWAP2 SUB SWAP1 LOG4 POP PUSH1 0x1 PUSH2 0x1FE JUMP JUMPDEST POP PUSH0 JUMPDEST SWAP3 SWAP2 POP POP JUMP JUMPDEST PUSH0 PUSH2 0x20D PUSH2 0x212 JUMP JUMPDEST SWAP1 POP SWAP1 JUMP JUMPDEST PUSH0 CALLDATASIZE PUSH1 0x14 DUP1 DUP3 LT DUP1 ISZERO SWAP1 PUSH2 0x22A JUMPI POP PUSH2 0x22A CALLER PUSH2 0x258 JUMP JUMPDEST ISZERO PUSH2 0x250 JUMPI PUSH2 0x23D CALLDATASIZE DUP3 DUP5 SUB DUP2 PUSH0 PUSH2 0x4F6 JUMP JUMPDEST PUSH2 0x246 SWAP2 PUSH2 0x51D JUMP JUMPDEST PUSH1 0x60 SHR SWAP3 POP POP POP SWAP1 JUMP JUMPDEST CALLER SWAP3 POP POP POP SWAP1 JUMP JUMPDEST PUSH0 PUSH2 0x262 PUSH1 0x80 MLOAD SWAP1 JUMP JUMPDEST PUSH1 0x1 PUSH1 0x1 PUSH1 0xA0 SHL SUB AND DUP3 PUSH1 0x1 PUSH1 0x1 PUSH1 0xA0 SHL SUB AND EQ SWAP1 POP SWAP2 SWAP1 POP JUMP JUMPDEST PUSH4 0x4E487B71 PUSH1 0xE0 SHL PUSH0 MSTORE PUSH1 0x41 PUSH1 0x4 MSTORE PUSH1 0x24 PUSH0 REVERT JUMPDEST PUSH0 DUP3 PUSH1 0x1F DUP4 ADD SLT PUSH2 0x2A0 JUMPI PUSH0 DUP1 REVERT JUMPDEST DUP2 MLOAD PUSH1 0x1 PUSH1 0x1 PUSH1 0x40 SHL SUB DUP1 DUP3 GT ISZERO PUSH2 0x2BA JUMPI PUSH2 0x2BA PUSH2 0x27D JUMP JUMPDEST PUSH1 0x40 MLOAD PUSH1 0x1F DUP4 ADD PUSH1 0x1F NOT SWAP1 DUP2 AND PUSH1 0x3F ADD AND DUP2 ADD SWAP1 DUP3 DUP3 GT DUP2 DUP4 LT OR ISZERO PUSH2 0x2E2 JUMPI PUSH2 0x2E2 PUSH2 0x27D JUMP JUMPDEST DUP2 PUSH1 0x40 MSTORE DUP4 DUP2 MSTORE DUP7 PUSH1 0x20 DUP6 DUP9 ADD ADD GT ISZERO PUSH2 0x2FA JUMPI PUSH0 DUP1 REVERT JUMPDEST DUP4 PUSH1 0x20 DUP8 ADD PUSH1 0x20 DUP4 ADD MCOPY PUSH0 PUSH1 0x20 DUP6 DUP4 ADD ADD MSTORE DUP1 SWAP5 POP POP POP POP POP SWAP3 SWAP2 POP POP JUMP JUMPDEST DUP1 MLOAD PUSH1 0x1 PUSH1 0x1 PUSH1 0xA0 SHL SUB DUP2 AND DUP2 EQ PUSH2 0x32F JUMPI PUSH0 DUP1 REVERT JUMPDEST SWAP2 SWAP1 POP JUMP JUMPDEST PUSH0 DUP1 PUSH0 DUP1 PUSH1 0x80 DUP6 DUP8 SUB SLT ISZERO PUSH2 0x347 JUMPI PUSH0 DUP1 REVERT JUMPDEST DUP5 MLOAD PUSH1 0x1 PUSH1 0x1 PUSH1 0x40 SHL SUB DUP1 DUP3 GT ISZERO PUSH2 0x35D JUMPI PUSH0 DUP1 REVERT JUMPDEST PUSH2 0x369 DUP9 DUP4 DUP10 ADD PUSH2 0x291 JUMP JUMPDEST SWAP6 POP PUSH1 0x20 DUP8 ADD MLOAD SWAP2 POP DUP1 DUP3 GT ISZERO PUSH2 0x37E JUMPI PUSH0 DUP1 REVERT JUMPDEST POP PUSH2 0x38B DUP8 DUP3 DUP9 ADD PUSH2 0x291 JUMP JUMPDEST SWAP4 POP POP PUSH2 0x39A PUSH1 0x40 DUP7 ADD PUSH2 0x319 JUMP JUMPDEST SWAP2 POP PUSH2 0x3A8 PUSH1 0x60 DUP7 ADD PUSH2 0x319 JUMP JUMPDEST SWAP1 POP SWAP3 SWAP6 SWAP2 SWAP5 POP SWAP3 POP JUMP JUMPDEST PUSH1 0x1 DUP2 DUP2 SHR SWAP1 DUP3 AND DUP1 PUSH2 0x3C7 JUMPI PUSH1 0x7F DUP3 AND SWAP2 POP JUMPDEST PUSH1 0x20 DUP3 LT DUP2 SUB PUSH2 0x3E5 JUMPI PUSH4 0x4E487B71 PUSH1 0xE0 SHL PUSH0 MSTORE PUSH1 0x22 PUSH1 0x4 MSTORE PUSH1 0x24 PUSH0 REVERT JUMPDEST POP SWAP2 SWAP1 POP JUMP JUMPDEST PUSH1 0x1F DUP3 GT ISZERO PUSH2 0x432 JUMPI DUP1 PUSH0 MSTORE PUSH1 0x20 PUSH0 KECCAK256 PUSH1 0x1F DUP5 ADD PUSH1 0x5 SHR DUP2 ADD PUSH1 0x20 DUP6 LT ISZERO PUSH2 0x410 JUMPI POP DUP1 JUMPDEST PUSH1 0x1F DUP5 ADD PUSH1 0x5 SHR DUP3 ADD SWAP2 POP JUMPDEST DUP2 DUP2 LT ISZERO PUSH2 0x42F JUMPI PUSH0 DUP2 SSTORE PUSH1 0x1 ADD PUSH2 0x41C JUMP JUMPDEST POP POP JUMPDEST POP POP POP JUMP JUMPDEST DUP2 MLOAD PUSH1 0x1 PUSH1 0x1 PUSH1 0x40 SHL SUB DUP2 GT ISZERO PUSH2 0x450 JUMPI PUSH2 0x450 PUSH2 0x27D JUMP JUMPDEST PUSH2 0x464 DUP2 PUSH2 0x45E DUP5 SLOAD PUSH2 0x3B3 JUMP JUMPDEST DUP5 PUSH2 0x3EB JUMP JUMPDEST PUSH1 0x20 DUP1 PUSH1 0x1F DUP4 GT PUSH1 0x1 DUP2 EQ PUSH2 0x497 JUMPI PUSH0 DUP5 ISZERO PUSH2 0x480 JUMPI POP DUP6 DUP4 ADD MLOAD JUMPDEST PUSH0 NOT PUSH1 0x3 DUP7 SWAP1 SHL SHR NOT AND PUSH1 0x1 DUP6 SWAP1 SHL OR DUP6 SSTORE PUSH2 0x4EE JUMP JUMPDEST PUSH0 DUP6 DUP2 MSTORE PUSH1 0x20 DUP2 KECCAK256 PUSH1 0x1F NOT DUP7 AND SWAP2 JUMPDEST DUP3 DUP2 LT ISZERO PUSH2 0x4C5 JUMPI DUP9 DUP7 ADD MLOAD DUP3 SSTORE SWAP5 DUP5 ADD SWAP5 PUSH1 0x1 SWAP1 SWAP2 ADD SWAP1 DUP5 ADD PUSH2 0x4A6 JUMP JUMPDEST POP DUP6 DUP3 LT ISZERO PUSH2 0x4E2 JUMPI DUP8 DUP6 ADD MLOAD PUSH0 NOT PUSH1 0x3 DUP9 SWAP1 SHL PUSH1 0xF8 AND SHR NOT AND DUP2 SSTORE JUMPDEST POP POP PUSH1 0x1 DUP5 PUSH1 0x1 SHL ADD DUP6 SSTORE JUMPDEST POP POP POP POP POP POP JUMP JUMPDEST PUSH0 DUP1 DUP6 DUP6 GT ISZERO PUSH2 0x504 JUMPI PUSH0 DUP1 REVERT JUMPDEST DUP4 DUP7 GT ISZERO PUSH2 0x510 JUMPI PUSH0 DUP1 REVERT JUMPDEST POP POP DUP3 ADD SWAP4 SWAP2 SWAP1 SWAP3 SUB SWAP2 POP JUMP JUMPDEST PUSH1 0x1 PUSH1 0x1 PUSH1 0x60 SHL SUB NOT DUP2 CALLDATALOAD DUP2 DUP2 AND SWAP2 PUSH1 0x14 DUP6 LT ISZERO PUSH2 0x545 JUMPI DUP1 DUP2 DUP7 PUSH1 0x14 SUB PUSH1 0x3 SHL SHL DUP4 AND AND SWAP3 POP JUMPDEST POP POP SWAP3 SWAP2 POP POP JUMP JUMPDEST PUSH1 0x80 MLOAD PUSH2 0x2A82 PUSH2 0x573 PUSH0 CODECOPY PUSH0 DUP2 DUP2 PUSH2 0x4EB ADD MSTORE DUP2 DUP2 PUSH2 0x623 ADD MSTORE PUSH2 0x2128 ADD MSTORE PUSH2 0x2A82 PUSH0 RETURN INVALID PUSH1 0x80 PUSH1 0x40 MSTORE PUSH1 0x4 CALLDATASIZE LT PUSH2 0x2C1 JUMPI PUSH0 CALLDATALOAD PUSH1 0xE0 SHR DUP1 PUSH4 0x715018A6 GT PUSH2 0x170 JUMPI DUP1 PUSH4 0xA217FDDF GT PUSH2 0xD1 JUMPI DUP1 PUSH4 0xD5391393 GT PUSH2 0x87 JUMPI DUP1 PUSH4 0xE985E9C5 GT PUSH2 0x62 JUMPI DUP1 PUSH4 0xE985E9C5 EQ PUSH2 0x841 JUMPI DUP1 PUSH4 0xF2FDE38B EQ PUSH2 0x888 JUMPI DUP1 PUSH4 0xFA9F3F27 EQ PUSH2 0x8A7 JUMPI PUSH0 DUP1 REVERT JUMPDEST DUP1 PUSH4 0xD5391393 EQ PUSH2 0x7D0 JUMPI DUP1 PUSH4 0xD547741F EQ PUSH2 0x803 JUMPI DUP1 PUSH4 0xE268E4D3 EQ PUSH2 0x822 JUMPI PUSH0 DUP1 REVERT JUMPDEST DUP1 PUSH4 0xB2118A8D GT PUSH2 0xB7 JUMPI DUP1 PUSH4 0xB2118A8D EQ PUSH2 0x773 JUMPI DUP1 PUSH4 0xB88D4FDE EQ PUSH2 0x792 JUMPI DUP1 PUSH4 0xC87B56DD EQ PUSH2 0x7B1 JUMPI PUSH0 DUP1 REVERT JUMPDEST DUP1 PUSH4 0xA217FDDF EQ PUSH2 0x741 JUMPI DUP1 PUSH4 0xA22CB465 EQ PUSH2 0x754 JUMPI PUSH0 DUP1 REVERT JUMPDEST DUP1 PUSH4 0x91D14854 GT PUSH2 0x126 JUMPI DUP1 PUSH4 0x9769DC0E GT PUSH2 0x10C JUMPI DUP1 PUSH4 0x9769DC0E EQ PUSH2 0x6F0 JUMPI DUP1 PUSH4 0x9DC29FAC EQ PUSH2 0x70F JUMPI DUP1 PUSH4 0x9F03F664 EQ PUSH2 0x72E JUMPI PUSH0 DUP1 REVERT JUMPDEST DUP1 PUSH4 0x91D14854 EQ PUSH2 0x698 JUMPI DUP1 PUSH4 0x95D89B41 EQ PUSH2 0x6DC JUMPI PUSH0 DUP1 REVERT JUMPDEST DUP1 PUSH4 0x7DA0A877 GT PUSH2 0x156 JUMPI DUP1 PUSH4 0x7DA0A877 EQ PUSH2 0x615 JUMPI DUP1 PUSH4 0x8796A531 EQ PUSH2 0x647 JUMPI DUP1 PUSH4 0x8DA5CB5B EQ PUSH2 0x67B JUMPI PUSH0 DUP1 REVERT JUMPDEST DUP1 PUSH4 0x715018A6 EQ PUSH2 0x5CE JUMPI DUP1 PUSH4 0x75B238FC EQ PUSH2 0x5E2 JUMPI PUSH0 DUP1 REVERT JUMPDEST DUP1 PUSH4 0x33EA51A8 GT PUSH2 0x225 JUMPI DUP1 PUSH4 0x572B6C05 GT PUSH2 0x1DB JUMPI DUP1 PUSH4 0x6352211E GT PUSH2 0x1B6 JUMPI DUP1 PUSH4 0x6352211E EQ PUSH2 0x55A JUMPI DUP1 PUSH4 0x65A6AAEB EQ PUSH2 0x579 JUMPI DUP1 PUSH4 0x70A08231 EQ PUSH2 0x5AF JUMPI PUSH0 DUP1 REVERT JUMPDEST DUP1 PUSH4 0x572B6C05 EQ PUSH2 0x4CF JUMPI DUP1 PUSH4 0x578FFD36 EQ PUSH2 0x51B JUMPI DUP1 PUSH4 0x5B70EA9F EQ PUSH2 0x546 JUMPI PUSH0 DUP1 REVERT JUMPDEST DUP1 PUSH4 0x392604F8 GT PUSH2 0x20B JUMPI DUP1 PUSH4 0x392604F8 EQ PUSH2 0x47C JUMPI DUP1 PUSH4 0x42842E0E EQ PUSH2 0x49B JUMPI DUP1 PUSH4 0x453C2310 EQ PUSH2 0x4BA JUMPI PUSH0 DUP1 REVERT JUMPDEST DUP1 PUSH4 0x33EA51A8 EQ PUSH2 0x43E JUMPI DUP1 PUSH4 0x36568ABE EQ PUSH2 0x45D JUMPI PUSH0 DUP1 REVERT JUMPDEST DUP1 PUSH4 0x99A04E5 GT PUSH2 0x27A JUMPI DUP1 PUSH4 0x23B872DD GT PUSH2 0x260 JUMPI DUP1 PUSH4 0x23B872DD EQ PUSH2 0x3C4 JUMPI DUP1 PUSH4 0x248A9CA3 EQ PUSH2 0x3E3 JUMPI DUP1 PUSH4 0x2F2FF15D EQ PUSH2 0x41F JUMPI PUSH0 DUP1 REVERT JUMPDEST DUP1 PUSH4 0x99A04E5 EQ PUSH2 0x391 JUMPI DUP1 PUSH4 0x12954DC2 EQ PUSH2 0x3B0 JUMPI PUSH0 DUP1 REVERT JUMPDEST DUP1 PUSH4 0x6FDDE03 GT PUSH2 0x2AA JUMPI DUP1 PUSH4 0x6FDDE03 EQ PUSH2 0x31A JUMPI DUP1 PUSH4 0x81812FC EQ PUSH2 0x33B JUMPI DUP1 PUSH4 0x95EA7B3 EQ PUSH2 0x372 JUMPI PUSH0 DUP1 REVERT JUMPDEST DUP1 PUSH4 0x1FFC9A7 EQ PUSH2 0x2C5 JUMPI DUP1 PUSH4 0x6553E6C EQ PUSH2 0x2F9 JUMPI JUMPDEST PUSH0 DUP1 REVERT JUMPDEST CALLVALUE DUP1 ISZERO PUSH2 0x2D0 JUMPI PUSH0 DUP1 REVERT JUMPDEST POP PUSH2 0x2E4 PUSH2 0x2DF CALLDATASIZE PUSH1 0x4 PUSH2 0x2642 JUMP JUMPDEST PUSH2 0x8C6 JUMP JUMPDEST PUSH1 0x40 MLOAD SWAP1 ISZERO ISZERO DUP2 MSTORE PUSH1 0x20 ADD JUMPDEST PUSH1 0x40 MLOAD DUP1 SWAP2 SUB SWAP1 RETURN JUMPDEST CALLVALUE DUP1 ISZERO PUSH2 0x304 JUMPI PUSH0 DUP1 REVERT JUMPDEST POP PUSH2 0x318 PUSH2 0x313 CALLDATASIZE PUSH1 0x4 PUSH2 0x2678 JUMP JUMPDEST PUSH2 0x8D6 JUMP JUMPDEST STOP JUMPDEST CALLVALUE DUP1 ISZERO PUSH2 0x325 JUMPI PUSH0 DUP1 REVERT JUMPDEST POP PUSH2 0x32E PUSH2 0xBDC JUMP JUMPDEST PUSH1 0x40 MLOAD PUSH2 0x2F0 SWAP2 SWAP1 PUSH2 0x26DF JUMP JUMPDEST CALLVALUE DUP1 ISZERO PUSH2 0x346 JUMPI PUSH0 DUP1 REVERT JUMPDEST POP PUSH2 0x35A PUSH2 0x355 CALLDATASIZE PUSH1 0x4 PUSH2 0x26F1 JUMP JUMPDEST PUSH2 0xC6B JUMP JUMPDEST PUSH1 0x40 MLOAD PUSH1 0x1 PUSH1 0x1 PUSH1 0xA0 SHL SUB SWAP1 SWAP2 AND DUP2 MSTORE PUSH1 0x20 ADD PUSH2 0x2F0 JUMP JUMPDEST CALLVALUE DUP1 ISZERO PUSH2 0x37D JUMPI PUSH0 DUP1 REVERT JUMPDEST POP PUSH2 0x318 PUSH2 0x38C CALLDATASIZE PUSH1 0x4 PUSH2 0x2708 JUMP JUMPDEST PUSH2 0xC92 JUMP JUMPDEST CALLVALUE DUP1 ISZERO PUSH2 0x39C JUMPI PUSH0 DUP1 REVERT JUMPDEST POP PUSH2 0x318 PUSH2 0x3AB CALLDATASIZE PUSH1 0x4 PUSH2 0x2708 JUMP JUMPDEST PUSH2 0xCA8 JUMP JUMPDEST CALLVALUE DUP1 ISZERO PUSH2 0x3BB JUMPI PUSH0 DUP1 REVERT JUMPDEST POP PUSH2 0x318 PUSH2 0xE37 JUMP JUMPDEST CALLVALUE DUP1 ISZERO PUSH2 0x3CF JUMPI PUSH0 DUP1 REVERT JUMPDEST POP PUSH2 0x318 PUSH2 0x3DE CALLDATASIZE PUSH1 0x4 PUSH2 0x2678 JUMP JUMPDEST PUSH2 0x102C JUMP JUMPDEST CALLVALUE DUP1 ISZERO PUSH2 0x3EE JUMPI PUSH0 DUP1 REVERT JUMPDEST POP PUSH2 0x411 PUSH2 0x3FD CALLDATASIZE PUSH1 0x4 PUSH2 0x26F1 JUMP JUMPDEST PUSH0 SWAP1 DUP2 MSTORE PUSH1 0x7 PUSH1 0x20 MSTORE PUSH1 0x40 SWAP1 KECCAK256 PUSH1 0x1 ADD SLOAD SWAP1 JUMP JUMPDEST PUSH1 0x40 MLOAD SWAP1 DUP2 MSTORE PUSH1 0x20 ADD PUSH2 0x2F0 JUMP JUMPDEST CALLVALUE DUP1 ISZERO PUSH2 0x42A JUMPI PUSH0 DUP1 REVERT JUMPDEST POP PUSH2 0x318 PUSH2 0x439 CALLDATASIZE PUSH1 0x4 PUSH2 0x2730 JUMP JUMPDEST PUSH2 0x10BC JUMP JUMPDEST CALLVALUE DUP1 ISZERO PUSH2 0x449 JUMPI PUSH0 DUP1 REVERT JUMPDEST POP PUSH2 0x318 PUSH2 0x458 CALLDATASIZE PUSH1 0x4 PUSH2 0x275A JUMP JUMPDEST PUSH2 0x10E0 JUMP JUMPDEST CALLVALUE DUP1 ISZERO PUSH2 0x468 JUMPI PUSH0 DUP1 REVERT JUMPDEST POP PUSH2 0x318 PUSH2 0x477 CALLDATASIZE PUSH1 0x4 PUSH2 0x2730 JUMP JUMPDEST PUSH2 0x11BE JUMP JUMPDEST CALLVALUE DUP1 ISZERO PUSH2 0x487 JUMPI PUSH0 DUP1 REVERT JUMPDEST POP PUSH2 0x318 PUSH2 0x496 CALLDATASIZE PUSH1 0x4 PUSH2 0x275A JUMP JUMPDEST PUSH2 0x1201 JUMP JUMPDEST CALLVALUE DUP1 ISZERO PUSH2 0x4A6 JUMPI PUSH0 DUP1 REVERT JUMPDEST POP PUSH2 0x318 PUSH2 0x4B5 CALLDATASIZE PUSH1 0x4 PUSH2 0x2678 JUMP JUMPDEST PUSH2 0x13E4 JUMP JUMPDEST CALLVALUE DUP1 ISZERO PUSH2 0x4C5 JUMPI PUSH0 DUP1 REVERT JUMPDEST POP PUSH2 0x411 PUSH1 0x9 SLOAD DUP2 JUMP JUMPDEST CALLVALUE DUP1 ISZERO PUSH2 0x4DA JUMPI PUSH0 DUP1 REVERT JUMPDEST POP PUSH2 0x2E4 PUSH2 0x4E9 CALLDATASIZE PUSH1 0x4 PUSH2 0x275A JUMP JUMPDEST PUSH32 0x0 PUSH1 0x1 PUSH1 0x1 PUSH1 0xA0 SHL SUB SWAP1 DUP2 AND SWAP2 AND EQ SWAP1 JUMP JUMPDEST CALLVALUE DUP1 ISZERO PUSH2 0x526 JUMPI PUSH0 DUP1 REVERT JUMPDEST POP PUSH2 0x411 PUSH2 0x535 CALLDATASIZE PUSH1 0x4 PUSH2 0x275A JUMP JUMPDEST PUSH1 0xC PUSH1 0x20 MSTORE PUSH0 SWAP1 DUP2 MSTORE PUSH1 0x40 SWAP1 KECCAK256 SLOAD DUP2 JUMP JUMPDEST CALLVALUE DUP1 ISZERO PUSH2 0x551 JUMPI PUSH0 DUP1 REVERT JUMPDEST POP PUSH2 0x318 PUSH2 0x13FE JUMP JUMPDEST CALLVALUE DUP1 ISZERO PUSH2 0x565 JUMPI PUSH0 DUP1 REVERT JUMPDEST POP PUSH2 0x35A PUSH2 0x574 CALLDATASIZE PUSH1 0x4 PUSH2 0x26F1 JUMP JUMPDEST PUSH2 0x14A1 JUMP JUMPDEST CALLVALUE DUP1 ISZERO PUSH2 0x584 JUMPI PUSH0 DUP1 REVERT JUMPDEST POP PUSH2 0x411 PUSH2 0x593 CALLDATASIZE PUSH1 0x4 PUSH2 0x2773 JUMP JUMPDEST PUSH1 0xD PUSH1 0x20 SWAP1 DUP2 MSTORE PUSH0 SWAP3 DUP4 MSTORE PUSH1 0x40 DUP1 DUP5 KECCAK256 SWAP1 SWAP2 MSTORE SWAP1 DUP3 MSTORE SWAP1 KECCAK256 SLOAD DUP2 JUMP JUMPDEST CALLVALUE DUP1 ISZERO PUSH2 0x5BA JUMPI PUSH0 DUP1 REVERT JUMPDEST POP PUSH2 0x411 PUSH2 0x5C9 CALLDATASIZE PUSH1 0x4 PUSH2 0x275A JUMP JUMPDEST PUSH2 0x14AB JUMP JUMPDEST CALLVALUE DUP1 ISZERO PUSH2 0x5D9 JUMPI PUSH0 DUP1 REVERT JUMPDEST POP PUSH2 0x318 PUSH2 0x14F0 JUMP JUMPDEST CALLVALUE DUP1 ISZERO PUSH2 0x5ED JUMPI PUSH0 DUP1 REVERT JUMPDEST POP PUSH2 0x411 PUSH32 0xA49807205CE4D355092EF5A8A18F56E8913CF4A201FBE287825B095693C21775 DUP2 JUMP JUMPDEST CALLVALUE DUP1 ISZERO PUSH2 0x620 JUMPI PUSH0 DUP1 REVERT JUMPDEST POP PUSH32 0x0 PUSH2 0x35A JUMP JUMPDEST CALLVALUE DUP1 ISZERO PUSH2 0x652 JUMPI PUSH0 DUP1 REVERT JUMPDEST POP PUSH2 0x35A PUSH2 0x661 CALLDATASIZE PUSH1 0x4 PUSH2 0x275A JUMP JUMPDEST PUSH1 0xB PUSH1 0x20 MSTORE PUSH0 SWAP1 DUP2 MSTORE PUSH1 0x40 SWAP1 KECCAK256 SLOAD PUSH1 0x1 PUSH1 0x1 PUSH1 0xA0 SHL SUB AND DUP2 JUMP JUMPDEST CALLVALUE DUP1 ISZERO PUSH2 0x686 JUMPI PUSH0 DUP1 REVERT JUMPDEST POP PUSH1 0x6 SLOAD PUSH1 0x1 PUSH1 0x1 PUSH1 0xA0 SHL SUB AND PUSH2 0x35A JUMP JUMPDEST CALLVALUE DUP1 ISZERO PUSH2 0x6A3 JUMPI PUSH0 DUP1 REVERT JUMPDEST POP PUSH2 0x2E4 PUSH2 0x6B2 CALLDATASIZE PUSH1 0x4 PUSH2 0x2730 JUMP JUMPDEST PUSH0 SWAP2 DUP3 MSTORE PUSH1 0x7 PUSH1 0x20 SWAP1 DUP2 MSTORE PUSH1 0x40 DUP1 DUP5 KECCAK256 PUSH1 0x1 PUSH1 0x1 PUSH1 0xA0 SHL SUB SWAP4 SWAP1 SWAP4 AND DUP5 MSTORE SWAP2 SWAP1 MSTORE SWAP1 KECCAK256 SLOAD PUSH1 0xFF AND SWAP1 JUMP JUMPDEST CALLVALUE DUP1 ISZERO PUSH2 0x6E7 JUMPI PUSH0 DUP1 REVERT JUMPDEST POP PUSH2 0x32E PUSH2 0x1501 JUMP JUMPDEST CALLVALUE DUP1 ISZERO PUSH2 0x6FB JUMPI PUSH0 DUP1 REVERT JUMPDEST POP PUSH2 0x318 PUSH2 0x70A CALLDATASIZE PUSH1 0x4 PUSH2 0x275A JUMP JUMPDEST PUSH2 0x1510 JUMP JUMPDEST CALLVALUE DUP1 ISZERO PUSH2 0x71A JUMPI PUSH0 DUP1 REVERT JUMPDEST POP PUSH2 0x318 PUSH2 0x729 CALLDATASIZE PUSH1 0x4 PUSH2 0x2708 JUMP JUMPDEST PUSH2 0x15EC JUMP JUMPDEST PUSH2 0x318 PUSH2 0x73C CALLDATASIZE PUSH1 0x4 PUSH2 0x275A JUMP JUMPDEST PUSH2 0x16AD JUMP JUMPDEST CALLVALUE DUP1 ISZERO PUSH2 0x74C JUMPI PUSH0 DUP1 REVERT JUMPDEST POP PUSH2 0x411 PUSH0 DUP2 JUMP JUMPDEST CALLVALUE DUP1 ISZERO PUSH2 0x75F JUMPI PUSH0 DUP1 REVERT JUMPDEST POP PUSH2 0x318 PUSH2 0x76E CALLDATASIZE PUSH1 0x4 PUSH2 0x27A8 JUMP JUMPDEST PUSH2 0x17AB JUMP JUMPDEST CALLVALUE DUP1 ISZERO PUSH2 0x77E JUMPI PUSH0 DUP1 REVERT JUMPDEST POP PUSH2 0x318 PUSH2 0x78D CALLDATASIZE PUSH1 0x4 PUSH2 0x2678 JUMP JUMPDEST PUSH2 0x17BD JUMP JUMPDEST CALLVALUE DUP1 ISZERO PUSH2 0x79D JUMPI PUSH0 DUP1 REVERT JUMPDEST POP PUSH2 0x318 PUSH2 0x7AC CALLDATASIZE PUSH1 0x4 PUSH2 0x27F1 JUMP JUMPDEST PUSH2 0x1982 JUMP JUMPDEST CALLVALUE DUP1 ISZERO PUSH2 0x7BC JUMPI PUSH0 DUP1 REVERT JUMPDEST POP PUSH2 0x32E PUSH2 0x7CB CALLDATASIZE PUSH1 0x4 PUSH2 0x26F1 JUMP JUMPDEST PUSH2 0x19A1 JUMP JUMPDEST CALLVALUE DUP1 ISZERO PUSH2 0x7DB JUMPI PUSH0 DUP1 REVERT JUMPDEST POP PUSH2 0x411 PUSH32 0x9F2DF0FED2C77648DE5860A4CC508CD0818C85B8B8A1AB4CEEEF8D981C8956A6 DUP2 JUMP JUMPDEST CALLVALUE DUP1 ISZERO PUSH2 0x80E JUMPI PUSH0 DUP1 REVERT JUMPDEST POP PUSH2 0x318 PUSH2 0x81D CALLDATASIZE PUSH1 0x4 PUSH2 0x2730 JUMP JUMPDEST PUSH2 0x1A12 JUMP JUMPDEST CALLVALUE DUP1 ISZERO PUSH2 0x82D JUMPI PUSH0 DUP1 REVERT JUMPDEST POP PUSH2 0x318 PUSH2 0x83C CALLDATASIZE PUSH1 0x4 PUSH2 0x26F1 JUMP JUMPDEST PUSH2 0x1A36 JUMP JUMPDEST CALLVALUE DUP1 ISZERO PUSH2 0x84C JUMPI PUSH0 DUP1 REVERT JUMPDEST POP PUSH2 0x2E4 PUSH2 0x85B CALLDATASIZE PUSH1 0x4 PUSH2 0x2773 JUMP JUMPDEST PUSH1 0x1 PUSH1 0x1 PUSH1 0xA0 SHL SUB SWAP2 DUP3 AND PUSH0 SWAP1 DUP2 MSTORE PUSH1 0x5 PUSH1 0x20 SWAP1 DUP2 MSTORE PUSH1 0x40 DUP1 DUP4 KECCAK256 SWAP4 SWAP1 SWAP5 AND DUP3 MSTORE SWAP2 SWAP1 SWAP2 MSTORE KECCAK256 SLOAD PUSH1 0xFF AND SWAP1 JUMP JUMPDEST CALLVALUE DUP1 ISZERO PUSH2 0x893 JUMPI PUSH0 DUP1 REVERT JUMPDEST POP PUSH2 0x318 PUSH2 0x8A2 CALLDATASIZE PUSH1 0x4 PUSH2 0x275A JUMP JUMPDEST PUSH2 0x1A66 JUMP JUMPDEST CALLVALUE DUP1 ISZERO PUSH2 0x8B2 JUMPI PUSH0 DUP1 REVERT JUMPDEST POP PUSH2 0x2E4 PUSH2 0x8C1 CALLDATASIZE PUSH1 0x4 PUSH2 0x275A JUMP JUMPDEST PUSH2 0x1AA0 JUMP JUMPDEST PUSH0 PUSH2 0x8D0 DUP3 PUSH2 0x1AB2 JUMP JUMPDEST SWAP3 SWAP2 POP POP JUMP JUMPDEST PUSH2 0x8DE PUSH2 0x1AD6 JUMP JUMPDEST PUSH0 PUSH2 0x8E8 DUP5 PUSH2 0x14AB JUMP JUMPDEST GT PUSH2 0x94E JUMPI PUSH1 0x40 MLOAD PUSH3 0x461BCD PUSH1 0xE5 SHL DUP2 MSTORE PUSH1 0x20 PUSH1 0x4 DUP3 ADD MSTORE PUSH1 0x2B PUSH1 0x24 DUP3 ADD MSTORE PUSH32 0x50616E646F7261734B65793A20526563697069656E74206973206E6F74206120 PUSH1 0x44 DUP3 ADD MSTORE PUSH11 0x35B2BC903437B63232B917 PUSH1 0xA9 SHL PUSH1 0x64 DUP3 ADD MSTORE PUSH1 0x84 ADD JUMPDEST PUSH1 0x40 MLOAD DUP1 SWAP2 SUB SWAP1 REVERT JUMPDEST PUSH0 DUP2 GT PUSH2 0x9C3 JUMPI PUSH1 0x40 MLOAD PUSH3 0x461BCD PUSH1 0xE5 SHL DUP2 MSTORE PUSH1 0x20 PUSH1 0x4 DUP3 ADD MSTORE PUSH1 0x2B PUSH1 0x24 DUP3 ADD MSTORE PUSH32 0x50616E646F7261734B65793A20416D6F756E74206D7573742062652067726561 PUSH1 0x44 DUP3 ADD MSTORE PUSH32 0x746572207468616E20302E000000000000000000000000000000000000000000 PUSH1 0x64 DUP3 ADD MSTORE PUSH1 0x84 ADD PUSH2 0x945 JUMP JUMPDEST DUP2 PUSH0 PUSH1 0x1 PUSH1 0x1 PUSH1 0xA0 SHL SUB DUP3 AND PUSH4 0xDD62ED3E PUSH2 0x9DC PUSH2 0x1B00 JUMP JUMPDEST PUSH1 0x40 MLOAD PUSH1 0x1 PUSH1 0x1 PUSH1 0xE0 SHL SUB NOT PUSH1 0xE0 DUP5 SWAP1 SHL AND DUP2 MSTORE PUSH1 0x1 PUSH1 0x1 PUSH1 0xA0 SHL SUB SWAP1 SWAP2 AND PUSH1 0x4 DUP3 ADD MSTORE ADDRESS PUSH1 0x24 DUP3 ADD MSTORE PUSH1 0x44 ADD PUSH1 0x20 PUSH1 0x40 MLOAD DUP1 DUP4 SUB DUP2 DUP7 GAS STATICCALL ISZERO DUP1 ISZERO PUSH2 0xA24 JUMPI RETURNDATASIZE PUSH0 DUP1 RETURNDATACOPY RETURNDATASIZE PUSH0 REVERT JUMPDEST POP POP POP POP PUSH1 0x40 MLOAD RETURNDATASIZE PUSH1 0x1F NOT PUSH1 0x1F DUP3 ADD AND DUP3 ADD DUP1 PUSH1 0x40 MSTORE POP DUP2 ADD SWAP1 PUSH2 0xA48 SWAP2 SWAP1 PUSH2 0x28C6 JUMP JUMPDEST SWAP1 POP DUP3 DUP2 LT ISZERO PUSH2 0xAA6 JUMPI PUSH1 0x40 MLOAD PUSH3 0x461BCD PUSH1 0xE5 SHL DUP2 MSTORE PUSH1 0x20 PUSH1 0x4 DUP3 ADD MSTORE PUSH1 0x23 PUSH1 0x24 DUP3 ADD MSTORE PUSH32 0x50616E646F7261734B65793A20436865636B20746F6B656E20616C6C6F77616E PUSH1 0x44 DUP3 ADD MSTORE PUSH3 0x31B297 PUSH1 0xE9 SHL PUSH1 0x64 DUP3 ADD MSTORE PUSH1 0x84 ADD PUSH2 0x945 JUMP JUMPDEST DUP2 PUSH1 0x1 PUSH1 0x1 PUSH1 0xA0 SHL SUB AND PUSH4 0x23B872DD PUSH2 0xABD PUSH2 0x1B00 JUMP JUMPDEST PUSH1 0x40 MLOAD PUSH1 0x1 PUSH1 0x1 PUSH1 0xE0 SHL SUB NOT PUSH1 0xE0 DUP5 SWAP1 SHL AND DUP2 MSTORE PUSH1 0x1 PUSH1 0x1 PUSH1 0xA0 SHL SUB SWAP1 SWAP2 AND PUSH1 0x4 DUP3 ADD MSTORE ADDRESS PUSH1 0x24 DUP3 ADD MSTORE PUSH1 0x44 DUP2 ADD DUP7 SWAP1 MSTORE PUSH1 0x64 ADD PUSH1 0x20 PUSH1 0x40 MLOAD DUP1 DUP4 SUB DUP2 PUSH0 DUP8 GAS CALL ISZERO DUP1 ISZERO PUSH2 0xB0D JUMPI RETURNDATASIZE PUSH0 DUP1 RETURNDATACOPY RETURNDATASIZE PUSH0 REVERT JUMPDEST POP POP POP POP PUSH1 0x40 MLOAD RETURNDATASIZE PUSH1 0x1F NOT PUSH1 0x1F DUP3 ADD AND DUP3 ADD DUP1 PUSH1 0x40 MSTORE POP DUP2 ADD SWAP1 PUSH2 0xB31 SWAP2 SWAP1 PUSH2 0x28DD JUMP JUMPDEST POP PUSH1 0x1 PUSH1 0x1 PUSH1 0xA0 SHL SUB DUP1 DUP7 AND PUSH0 SWAP1 DUP2 MSTORE PUSH1 0xD PUSH1 0x20 SWAP1 DUP2 MSTORE PUSH1 0x40 DUP1 DUP4 KECCAK256 SWAP4 DUP9 AND DUP4 MSTORE SWAP3 SWAP1 MSTORE SWAP1 DUP2 KECCAK256 DUP1 SLOAD DUP6 SWAP3 SWAP1 PUSH2 0xB68 SWAP1 DUP5 SWAP1 PUSH2 0x290C JUMP JUMPDEST SWAP1 SWAP2 SSTORE POP POP PUSH1 0x1 PUSH1 0x1 PUSH1 0xA0 SHL SUB DUP5 AND PUSH2 0xB7F PUSH2 0x1B00 JUMP JUMPDEST PUSH1 0x1 PUSH1 0x1 PUSH1 0xA0 SHL SUB AND DUP7 PUSH1 0x1 PUSH1 0x1 PUSH1 0xA0 SHL SUB AND PUSH32 0xA9684AD4C6C3F1C6B38CC344E4DA2AC0834CE6B5775478B5C2BC37CC4265F20B DUP7 PUSH1 0x40 MLOAD PUSH2 0xBC3 SWAP2 DUP2 MSTORE PUSH1 0x20 ADD SWAP1 JUMP JUMPDEST PUSH1 0x40 MLOAD DUP1 SWAP2 SUB SWAP1 LOG4 POP POP PUSH2 0xBD7 PUSH1 0x1 PUSH1 0x8 SSTORE JUMP JUMPDEST POP POP POP JUMP JUMPDEST PUSH1 0x60 PUSH0 DUP1 SLOAD PUSH2 0xBEA SWAP1 PUSH2 0x291F JUMP JUMPDEST DUP1 PUSH1 0x1F ADD PUSH1 0x20 DUP1 SWAP2 DIV MUL PUSH1 0x20 ADD PUSH1 0x40 MLOAD SWAP1 DUP2 ADD PUSH1 0x40 MSTORE DUP1 SWAP3 SWAP2 SWAP1 DUP2 DUP2 MSTORE PUSH1 0x20 ADD DUP3 DUP1 SLOAD PUSH2 0xC16 SWAP1 PUSH2 0x291F JUMP JUMPDEST DUP1 ISZERO PUSH2 0xC61 JUMPI DUP1 PUSH1 0x1F LT PUSH2 0xC38 JUMPI PUSH2 0x100 DUP1 DUP4 SLOAD DIV MUL DUP4 MSTORE SWAP2 PUSH1 0x20 ADD SWAP2 PUSH2 0xC61 JUMP JUMPDEST DUP3 ADD SWAP2 SWAP1 PUSH0 MSTORE PUSH1 0x20 PUSH0 KECCAK256 SWAP1 JUMPDEST DUP2 SLOAD DUP2 MSTORE SWAP1 PUSH1 0x1 ADD SWAP1 PUSH1 0x20 ADD DUP1 DUP4 GT PUSH2 0xC44 JUMPI DUP3 SWAP1 SUB PUSH1 0x1F AND DUP3 ADD SWAP2 JUMPDEST POP POP POP POP POP SWAP1 POP SWAP1 JUMP JUMPDEST PUSH0 PUSH2 0xC75 DUP3 PUSH2 0x1B0E JUMP JUMPDEST POP PUSH0 DUP3 DUP2 MSTORE PUSH1 0x4 PUSH1 0x20 MSTORE PUSH1 0x40 SWAP1 KECCAK256 SLOAD PUSH1 0x1 PUSH1 0x1 PUSH1 0xA0 SHL SUB AND PUSH2 0x8D0 JUMP JUMPDEST PUSH2 0xCA4 DUP3 DUP3 PUSH2 0xC9F PUSH2 0x1B00 JUMP JUMPDEST PUSH2 0x1B46 JUMP JUMPDEST POP POP JUMP JUMPDEST PUSH2 0xCB0 PUSH2 0x1B53 JUMP JUMPDEST PUSH1 0x1 PUSH1 0x1 PUSH1 0xA0 SHL SUB DUP3 AND PUSH2 0xD18 JUMPI PUSH1 0x40 MLOAD PUSH3 0x461BCD PUSH1 0xE5 SHL DUP2 MSTORE PUSH1 0x20 PUSH1 0x4 DUP3 ADD MSTORE PUSH1 0x29 PUSH1 0x24 DUP3 ADD MSTORE PUSH32 0x50616E646F7261734B65793A2043616E6E6F742073656E6420746F207A65726F PUSH1 0x44 DUP3 ADD MSTORE PUSH9 0x1030B2323932B9B997 PUSH1 0xB9 SHL PUSH1 0x64 DUP3 ADD MSTORE PUSH1 0x84 ADD PUSH2 0x945 JUMP JUMPDEST DUP1 SELFBALANCE LT ISZERO PUSH2 0xD8E JUMPI PUSH1 0x40 MLOAD PUSH3 0x461BCD PUSH1 0xE5 SHL DUP2 MSTORE PUSH1 0x20 PUSH1 0x4 DUP3 ADD MSTORE PUSH1 0x2B PUSH1 0x24 DUP3 ADD MSTORE PUSH32 0x50616E646F7261734B65793A20496E73756666696369656E7420636F6E747261 PUSH1 0x44 DUP3 ADD MSTORE PUSH32 0x63742062616C616E63652E000000000000000000000000000000000000000000 PUSH1 0x64 DUP3 ADD MSTORE PUSH1 0x84 ADD PUSH2 0x945 JUMP JUMPDEST PUSH0 DUP3 PUSH1 0x1 PUSH1 0x1 PUSH1 0xA0 SHL SUB AND DUP3 PUSH1 0x40 MLOAD PUSH0 PUSH1 0x40 MLOAD DUP1 DUP4 SUB DUP2 DUP6 DUP8 GAS CALL SWAP3 POP POP POP RETURNDATASIZE DUP1 PUSH0 DUP2 EQ PUSH2 0xDD7 JUMPI PUSH1 0x40 MLOAD SWAP2 POP PUSH1 0x1F NOT PUSH1 0x3F RETURNDATASIZE ADD AND DUP3 ADD PUSH1 0x40 MSTORE RETURNDATASIZE DUP3 MSTORE RETURNDATASIZE PUSH0 PUSH1 0x20 DUP5 ADD RETURNDATACOPY PUSH2 0xDDC JUMP JUMPDEST PUSH1 0x60 SWAP2 POP JUMPDEST POP POP SWAP1 POP DUP1 PUSH2 0xBD7 JUMPI PUSH1 0x40 MLOAD PUSH3 0x461BCD PUSH1 0xE5 SHL DUP2 MSTORE PUSH1 0x20 PUSH1 0x4 DUP3 ADD MSTORE PUSH1 0x21 PUSH1 0x24 DUP3 ADD MSTORE PUSH32 0x50616E646F7261734B65793A20455448207472616E73666572206661696C6564 PUSH1 0x44 DUP3 ADD MSTORE PUSH1 0x17 PUSH1 0xF9 SHL PUSH1 0x64 DUP3 ADD MSTORE PUSH1 0x84 ADD PUSH2 0x945 JUMP JUMPDEST PUSH2 0xE3F PUSH2 0x1AD6 JUMP JUMPDEST PUSH0 PUSH2 0xE48 PUSH2 0x1B00 JUMP JUMPDEST PUSH1 0x1 PUSH1 0x1 PUSH1 0xA0 SHL SUB DUP2 AND PUSH0 SWAP1 DUP2 MSTORE PUSH1 0xC PUSH1 0x20 MSTORE PUSH1 0x40 SWAP1 KECCAK256 SLOAD SWAP1 SWAP2 POP DUP1 PUSH2 0xED6 JUMPI PUSH1 0x40 MLOAD PUSH3 0x461BCD PUSH1 0xE5 SHL DUP2 MSTORE PUSH1 0x20 PUSH1 0x4 DUP3 ADD MSTORE PUSH1 0x28 PUSH1 0x24 DUP3 ADD MSTORE PUSH32 0x50616E646F7261734B65793A204E6F204554482062616C616E636520746F2077 PUSH1 0x44 DUP3 ADD MSTORE PUSH32 0x697468647261772E000000000000000000000000000000000000000000000000 PUSH1 0x64 DUP3 ADD MSTORE PUSH1 0x84 ADD PUSH2 0x945 JUMP JUMPDEST PUSH1 0x1 PUSH1 0x1 PUSH1 0xA0 SHL SUB DUP1 DUP4 AND PUSH0 SWAP1 DUP2 MSTORE PUSH1 0xC PUSH1 0x20 SWAP1 DUP2 MSTORE PUSH1 0x40 DUP1 DUP4 KECCAK256 DUP4 SWAP1 SSTORE PUSH1 0xB SWAP1 SWAP2 MSTORE DUP2 KECCAK256 SLOAD SWAP1 SWAP2 AND PUSH2 0xF09 JUMPI DUP3 PUSH2 0xF24 JUMP JUMPDEST PUSH1 0x1 PUSH1 0x1 PUSH1 0xA0 SHL SUB DUP1 DUP5 AND PUSH0 SWAP1 DUP2 MSTORE PUSH1 0xB PUSH1 0x20 MSTORE PUSH1 0x40 SWAP1 KECCAK256 SLOAD AND JUMPDEST SWAP1 POP PUSH0 DUP2 PUSH1 0x1 PUSH1 0x1 PUSH1 0xA0 SHL SUB AND DUP4 PUSH1 0x40 MLOAD PUSH0 PUSH1 0x40 MLOAD DUP1 DUP4 SUB DUP2 DUP6 DUP8 GAS CALL SWAP3 POP POP POP RETURNDATASIZE DUP1 PUSH0 DUP2 EQ PUSH2 0xF6F JUMPI PUSH1 0x40 MLOAD SWAP2 POP PUSH1 0x1F NOT PUSH1 0x3F RETURNDATASIZE ADD AND DUP3 ADD PUSH1 0x40 MSTORE RETURNDATASIZE DUP3 MSTORE RETURNDATASIZE PUSH0 PUSH1 0x20 DUP5 ADD RETURNDATACOPY PUSH2 0xF74 JUMP JUMPDEST PUSH1 0x60 SWAP2 POP JUMPDEST POP POP SWAP1 POP DUP1 PUSH2 0xFCF JUMPI PUSH1 0x40 MLOAD PUSH3 0x461BCD PUSH1 0xE5 SHL DUP2 MSTORE PUSH1 0x20 PUSH1 0x4 DUP3 ADD MSTORE PUSH1 0x21 PUSH1 0x24 DUP3 ADD MSTORE PUSH32 0x50616E646F7261734B65793A20455448207472616E73666572206661696C6564 PUSH1 0x44 DUP3 ADD MSTORE PUSH1 0x17 PUSH1 0xF9 SHL PUSH1 0x64 DUP3 ADD MSTORE PUSH1 0x84 ADD PUSH2 0x945 JUMP JUMPDEST DUP2 PUSH1 0x1 PUSH1 0x1 PUSH1 0xA0 SHL SUB AND DUP5 PUSH1 0x1 PUSH1 0x1 PUSH1 0xA0 SHL SUB AND PUSH32 0x6B1F4CE962FEC27598EDCEAB6195C77516C3DF32025EAF0C38D0D4009AC3BD48 DUP6 PUSH1 0x40 MLOAD PUSH2 0x1014 SWAP2 DUP2 MSTORE PUSH1 0x20 ADD SWAP1 JUMP JUMPDEST PUSH1 0x40 MLOAD DUP1 SWAP2 SUB SWAP1 LOG3 POP POP POP POP PUSH2 0x102A PUSH1 0x1 PUSH1 0x8 SSTORE JUMP JUMPDEST JUMP JUMPDEST PUSH1 0x1 PUSH1 0x1 PUSH1 0xA0 SHL SUB DUP3 AND PUSH2 0x1055 JUMPI PUSH1 0x40 MLOAD PUSH4 0x32505749 PUSH1 0xE1 SHL DUP2 MSTORE PUSH0 PUSH1 0x4 DUP3 ADD MSTORE PUSH1 0x24 ADD PUSH2 0x945 JUMP JUMPDEST PUSH0 PUSH2 0x1068 DUP4 DUP4 PUSH2 0x1063 PUSH2 0x1B00 JUMP JUMPDEST PUSH2 0x1BB1 JUMP JUMPDEST SWAP1 POP DUP4 PUSH1 0x1 PUSH1 0x1 PUSH1 0xA0 SHL SUB AND DUP2 PUSH1 0x1 PUSH1 0x1 PUSH1 0xA0 SHL SUB AND EQ PUSH2 0x10B6 JUMPI PUSH1 0x40 MLOAD PUSH4 0x64283D7B PUSH1 0xE0 SHL DUP2 MSTORE PUSH1 0x1 PUSH1 0x1 PUSH1 0xA0 SHL SUB DUP1 DUP7 AND PUSH1 0x4 DUP4 ADD MSTORE PUSH1 0x24 DUP3 ADD DUP5 SWAP1 MSTORE DUP3 AND PUSH1 0x44 DUP3 ADD MSTORE PUSH1 0x64 ADD PUSH2 0x945 JUMP JUMPDEST POP POP POP POP JUMP JUMPDEST PUSH0 DUP3 DUP2 MSTORE PUSH1 0x7 PUSH1 0x20 MSTORE PUSH1 0x40 SWAP1 KECCAK256 PUSH1 0x1 ADD SLOAD PUSH2 0x10D6 DUP2 PUSH2 0x1C64 JUMP JUMPDEST PUSH2 0x10B6 DUP4 DUP4 PUSH2 0x1C75 JUMP JUMPDEST PUSH0 PUSH2 0x10E9 PUSH2 0x1B00 JUMP JUMPDEST SWAP1 POP PUSH0 PUSH2 0x10F5 DUP3 PUSH2 0x14AB JUMP JUMPDEST GT PUSH2 0x1168 JUMPI PUSH1 0x40 MLOAD PUSH3 0x461BCD PUSH1 0xE5 SHL DUP2 MSTORE PUSH1 0x20 PUSH1 0x4 DUP3 ADD MSTORE PUSH1 0x33 PUSH1 0x24 DUP3 ADD MSTORE PUSH32 0x50616E646F7261734B65793A204F6E6C7920686F6C646572732063616E207365 PUSH1 0x44 DUP3 ADD MSTORE PUSH32 0x742061207061796F757420616464726573732E00000000000000000000000000 PUSH1 0x64 DUP3 ADD MSTORE PUSH1 0x84 ADD PUSH2 0x945 JUMP JUMPDEST PUSH1 0x1 PUSH1 0x1 PUSH1 0xA0 SHL SUB DUP2 DUP2 AND PUSH0 DUP2 DUP2 MSTORE PUSH1 0xB PUSH1 0x20 MSTORE PUSH1 0x40 DUP1 DUP3 KECCAK256 DUP1 SLOAD PUSH1 0x1 PUSH1 0x1 PUSH1 0xA0 SHL SUB NOT AND SWAP5 DUP8 AND SWAP5 DUP6 OR SWAP1 SSTORE MLOAD PUSH32 0x86595DC4ED4838FD84EEED07A9F42EA9AF43A730D94D90334E779B82264C0D7C SWAP2 SWAP1 LOG3 POP POP JUMP JUMPDEST PUSH2 0x11C6 PUSH2 0x1B00 JUMP JUMPDEST PUSH1 0x1 PUSH1 0x1 PUSH1 0xA0 SHL SUB AND DUP2 PUSH1 0x1 PUSH1 0x1 PUSH1 0xA0 SHL SUB AND EQ PUSH2 0x11F7 JUMPI PUSH1 0x40 MLOAD PUSH4 0x334BD919 PUSH1 0xE1 SHL DUP2 MSTORE PUSH1 0x4 ADD PUSH1 0x40 MLOAD DUP1 SWAP2 SUB SWAP1 REVERT JUMPDEST PUSH2 0xBD7 DUP3 DUP3 PUSH2 0x1D21 JUMP JUMPDEST PUSH2 0x1209 PUSH2 0x1AD6 JUMP JUMPDEST PUSH0 PUSH2 0x1212 PUSH2 0x1B00 JUMP JUMPDEST PUSH1 0x1 PUSH1 0x1 PUSH1 0xA0 SHL SUB DUP1 DUP3 AND PUSH0 SWAP1 DUP2 MSTORE PUSH1 0xD PUSH1 0x20 SWAP1 DUP2 MSTORE PUSH1 0x40 DUP1 DUP4 KECCAK256 SWAP4 DUP8 AND DUP4 MSTORE SWAP3 SWAP1 MSTORE KECCAK256 SLOAD SWAP1 SWAP2 POP DUP1 PUSH2 0x12AD JUMPI PUSH1 0x40 MLOAD PUSH3 0x461BCD PUSH1 0xE5 SHL DUP2 MSTORE PUSH1 0x20 PUSH1 0x4 DUP3 ADD MSTORE PUSH1 0x2A PUSH1 0x24 DUP3 ADD MSTORE PUSH32 0x50616E646F7261734B65793A204E6F20746F6B656E2062616C616E636520746F PUSH1 0x44 DUP3 ADD MSTORE PUSH32 0x2077697468647261772E00000000000000000000000000000000000000000000 PUSH1 0x64 DUP3 ADD MSTORE PUSH1 0x84 ADD PUSH2 0x945 JUMP JUMPDEST PUSH1 0x1 PUSH1 0x1 PUSH1 0xA0 SHL SUB DUP1 DUP4 AND PUSH0 DUP2 DUP2 MSTORE PUSH1 0xD PUSH1 0x20 SWAP1 DUP2 MSTORE PUSH1 0x40 DUP1 DUP4 KECCAK256 DUP9 DUP7 AND DUP5 MSTORE DUP3 MSTORE DUP1 DUP4 KECCAK256 DUP4 SWAP1 SSTORE SWAP3 DUP3 MSTORE PUSH1 0xB SWAP1 MSTORE SWAP1 DUP2 KECCAK256 SLOAD SWAP1 SWAP2 AND PUSH2 0x12ED JUMPI DUP3 PUSH2 0x1308 JUMP JUMPDEST PUSH1 0x1 PUSH1 0x1 PUSH1 0xA0 SHL SUB DUP1 DUP5 AND PUSH0 SWAP1 DUP2 MSTORE PUSH1 0xB PUSH1 0x20 MSTORE PUSH1 0x40 SWAP1 KECCAK256 SLOAD AND JUMPDEST PUSH1 0x40 MLOAD PUSH4 0xA9059CBB PUSH1 0xE0 SHL DUP2 MSTORE PUSH1 0x1 PUSH1 0x1 PUSH1 0xA0 SHL SUB DUP1 DUP4 AND PUSH1 0x4 DUP4 ADD MSTORE PUSH1 0x24 DUP3 ADD DUP6 SWAP1 MSTORE SWAP2 SWAP3 POP SWAP1 DUP6 AND SWAP1 PUSH4 0xA9059CBB SWAP1 PUSH1 0x44 ADD PUSH1 0x20 PUSH1 0x40 MLOAD DUP1 DUP4 SUB DUP2 PUSH0 DUP8 GAS CALL ISZERO DUP1 ISZERO PUSH2 0x1358 JUMPI RETURNDATASIZE PUSH0 DUP1 RETURNDATACOPY RETURNDATASIZE PUSH0 REVERT JUMPDEST POP POP POP POP PUSH1 0x40 MLOAD RETURNDATASIZE PUSH1 0x1F NOT PUSH1 0x1F DUP3 ADD AND DUP3 ADD DUP1 PUSH1 0x40 MSTORE POP DUP2 ADD SWAP1 PUSH2 0x137C SWAP2 SWAP1 PUSH2 0x28DD JUMP JUMPDEST POP DUP4 PUSH1 0x1 PUSH1 0x1 PUSH1 0xA0 SHL SUB AND DUP2 PUSH1 0x1 PUSH1 0x1 PUSH1 0xA0 SHL SUB AND DUP5 PUSH1 0x1 PUSH1 0x1 PUSH1 0xA0 SHL SUB AND PUSH32 0x8C1FCAF583C2B413BB27833685230422583405AE651B6D53E2053BF75BD0740 DUP6 PUSH1 0x40 MLOAD PUSH2 0x13CC SWAP2 DUP2 MSTORE PUSH1 0x20 ADD SWAP1 JUMP JUMPDEST PUSH1 0x40 MLOAD DUP1 SWAP2 SUB SWAP1 LOG4 POP POP POP PUSH2 0x13E1 PUSH1 0x1 PUSH1 0x8 SSTORE JUMP JUMPDEST POP JUMP JUMPDEST PUSH2 0xBD7 DUP4 DUP4 DUP4 PUSH1 0x40 MLOAD DUP1 PUSH1 0x20 ADD PUSH1 0x40 MSTORE DUP1 PUSH0 DUP2 MSTORE POP PUSH2 0x1982 JUMP JUMPDEST PUSH2 0x1406 PUSH2 0x1AD6 JUMP JUMPDEST PUSH0 PUSH2 0x140F PUSH2 0x1B00 JUMP JUMPDEST SWAP1 POP PUSH1 0x9 SLOAD PUSH2 0x141D DUP3 PUSH2 0x14AB JUMP JUMPDEST LT PUSH2 0x1476 JUMPI PUSH1 0x40 MLOAD PUSH3 0x461BCD PUSH1 0xE5 SHL DUP2 MSTORE PUSH1 0x20 PUSH1 0x4 DUP3 ADD MSTORE PUSH1 0x24 DUP1 DUP3 ADD MSTORE PUSH32 0x50616E646F7261734B65793A204D6178207065722077616C6C65742072656163 PUSH1 0x44 DUP3 ADD MSTORE PUSH4 0x3432B217 PUSH1 0xE1 SHL PUSH1 0x64 DUP3 ADD MSTORE PUSH1 0x84 ADD PUSH2 0x945 JUMP JUMPDEST PUSH2 0x1482 DUP2 PUSH1 0xA SLOAD PUSH2 0x1DC4 JUMP JUMPDEST PUSH1 0xA DUP1 SLOAD SWAP1 PUSH0 PUSH2 0x1491 DUP4 PUSH2 0x2957 JUMP JUMPDEST SWAP2 SWAP1 POP SSTORE POP POP PUSH2 0x102A PUSH1 0x1 PUSH1 0x8 SSTORE JUMP JUMPDEST PUSH0 PUSH2 0x8D0 DUP3 PUSH2 0x1B0E JUMP JUMPDEST PUSH0 PUSH1 0x1 PUSH1 0x1 PUSH1 0xA0 SHL SUB DUP3 AND PUSH2 0x14D5 JUMPI PUSH1 0x40 MLOAD PUSH4 0x22718AD9 PUSH1 0xE2 SHL DUP2 MSTORE PUSH0 PUSH1 0x4 DUP3 ADD MSTORE PUSH1 0x24 ADD PUSH2 0x945 JUMP JUMPDEST POP PUSH1 0x1 PUSH1 0x1 PUSH1 0xA0 SHL SUB AND PUSH0 SWAP1 DUP2 MSTORE PUSH1 0x3 PUSH1 0x20 MSTORE PUSH1 0x40 SWAP1 KECCAK256 SLOAD SWAP1 JUMP JUMPDEST PUSH2 0x14F8 PUSH2 0x1B53 JUMP JUMPDEST PUSH2 0x102A PUSH0 PUSH2 0x1DDD JUMP JUMPDEST PUSH1 0x60 PUSH1 0x1 DUP1 SLOAD PUSH2 0xBEA SWAP1 PUSH2 0x291F JUMP JUMPDEST PUSH2 0x1518 PUSH2 0x1AD6 JUMP JUMPDEST PUSH32 0xA49807205CE4D355092EF5A8A18F56E8913CF4A201FBE287825B095693C21775 PUSH2 0x1542 DUP2 PUSH2 0x1C64 JUMP JUMPDEST PUSH1 0x9 SLOAD PUSH2 0x154E DUP4 PUSH2 0x14AB JUMP JUMPDEST LT PUSH2 0x15C1 JUMPI PUSH1 0x40 MLOAD PUSH3 0x461BCD PUSH1 0xE5 SHL DUP2 MSTORE PUSH1 0x20 PUSH1 0x4 DUP3 ADD MSTORE PUSH1 0x32 PUSH1 0x24 DUP3 ADD MSTORE PUSH32 0x50616E646F7261734B65793A204D6178207065722077616C6C65742072656163 PUSH1 0x44 DUP3 ADD MSTORE PUSH32 0x68656420666F7220726563697069656E742E0000000000000000000000000000 PUSH1 0x64 DUP3 ADD MSTORE PUSH1 0x84 ADD PUSH2 0x945 JUMP JUMPDEST PUSH2 0x15CD DUP3 PUSH1 0xA SLOAD PUSH2 0x1DC4 JUMP JUMPDEST PUSH1 0xA DUP1 SLOAD SWAP1 PUSH0 PUSH2 0x15DC DUP4 PUSH2 0x2957 JUMP JUMPDEST SWAP2 SWAP1 POP SSTORE POP POP PUSH2 0x13E1 PUSH1 0x1 PUSH1 0x8 SSTORE JUMP JUMPDEST PUSH32 0xA49807205CE4D355092EF5A8A18F56E8913CF4A201FBE287825B095693C21775 PUSH2 0x1616 DUP2 PUSH2 0x1C64 JUMP JUMPDEST PUSH0 DUP3 DUP2 MSTORE PUSH1 0x2 PUSH1 0x20 MSTORE PUSH1 0x40 SWAP1 KECCAK256 SLOAD PUSH1 0x1 PUSH1 0x1 PUSH1 0xA0 SHL SUB DUP5 DUP2 AND SWAP2 AND EQ PUSH2 0x16A4 JUMPI PUSH1 0x40 MLOAD PUSH3 0x461BCD PUSH1 0xE5 SHL DUP2 MSTORE PUSH1 0x20 PUSH1 0x4 DUP3 ADD MSTORE PUSH1 0x28 PUSH1 0x24 DUP3 ADD MSTORE PUSH32 0x50616E646F7261734B65793A204E6F7420746865206F776E6572206F66207468 PUSH1 0x44 DUP3 ADD MSTORE PUSH32 0x6520746F6B656E2E000000000000000000000000000000000000000000000000 PUSH1 0x64 DUP3 ADD MSTORE PUSH1 0x84 ADD PUSH2 0x945 JUMP JUMPDEST PUSH2 0xBD7 DUP3 PUSH2 0x1E2E JUMP JUMPDEST PUSH2 0x16B5 PUSH2 0x1AD6 JUMP JUMPDEST PUSH0 PUSH2 0x16BF DUP3 PUSH2 0x14AB JUMP JUMPDEST GT PUSH2 0x1720 JUMPI PUSH1 0x40 MLOAD PUSH3 0x461BCD PUSH1 0xE5 SHL DUP2 MSTORE PUSH1 0x20 PUSH1 0x4 DUP3 ADD MSTORE PUSH1 0x2B PUSH1 0x24 DUP3 ADD MSTORE PUSH32 0x50616E646F7261734B65793A20526563697069656E74206973206E6F74206120 PUSH1 0x44 DUP3 ADD MSTORE PUSH11 0x35B2BC903437B63232B917 PUSH1 0xA9 SHL PUSH1 0x64 DUP3 ADD MSTORE PUSH1 0x84 ADD PUSH2 0x945 JUMP JUMPDEST PUSH1 0x1 PUSH1 0x1 PUSH1 0xA0 SHL SUB DUP2 AND PUSH0 SWAP1 DUP2 MSTORE PUSH1 0xC PUSH1 0x20 MSTORE PUSH1 0x40 DUP2 KECCAK256 DUP1 SLOAD CALLVALUE SWAP3 SWAP1 PUSH2 0x1747 SWAP1 DUP5 SWAP1 PUSH2 0x290C JUMP JUMPDEST SWAP1 SWAP2 SSTORE POP PUSH2 0x1755 SWAP1 POP PUSH2 0x1B00 JUMP JUMPDEST PUSH1 0x1 PUSH1 0x1 PUSH1 0xA0 SHL SUB AND DUP2 PUSH1 0x1 PUSH1 0x1 PUSH1 0xA0 SHL SUB AND PUSH32 0x5C8132825CB668206EC2586554C3BCD3D8E2D7F95CE7A99C939B4AD357D7EBBE CALLVALUE PUSH1 0x40 MLOAD PUSH2 0x1799 SWAP2 DUP2 MSTORE PUSH1 0x20 ADD SWAP1 JUMP JUMPDEST PUSH1 0x40 MLOAD DUP1 SWAP2 SUB SWAP1 LOG3 PUSH2 0x13E1 PUSH1 0x1 PUSH1 0x8 SSTORE JUMP JUMPDEST PUSH2 0xCA4 PUSH2 0x17B6 PUSH2 0x1B00 JUMP JUMPDEST DUP4 DUP4 PUSH2 0x1E66 JUMP JUMPDEST PUSH2 0x17C5 PUSH2 0x1B53 JUMP JUMPDEST PUSH1 0x1 PUSH1 0x1 PUSH1 0xA0 SHL SUB DUP3 AND PUSH2 0x182D JUMPI PUSH1 0x40 MLOAD PUSH3 0x461BCD PUSH1 0xE5 SHL DUP2 MSTORE PUSH1 0x20 PUSH1 0x4 DUP3 ADD MSTORE PUSH1 0x29 PUSH1 0x24 DUP3 ADD MSTORE PUSH32 0x50616E646F7261734B65793A2043616E6E6F742073656E6420746F207A65726F PUSH1 0x44 DUP3 ADD MSTORE PUSH9 0x1030B2323932B9B997 PUSH1 0xB9 SHL PUSH1 0x64 DUP3 ADD MSTORE PUSH1 0x84 ADD PUSH2 0x945 JUMP JUMPDEST PUSH1 0x40 MLOAD PUSH4 0x70A08231 PUSH1 0xE0 SHL DUP2 MSTORE ADDRESS PUSH1 0x4 DUP3 ADD MSTORE DUP4 SWAP1 DUP3 SWAP1 PUSH1 0x1 PUSH1 0x1 PUSH1 0xA0 SHL SUB DUP4 AND SWAP1 PUSH4 0x70A08231 SWAP1 PUSH1 0x24 ADD PUSH1 0x20 PUSH1 0x40 MLOAD DUP1 DUP4 SUB DUP2 DUP7 GAS STATICCALL ISZERO DUP1 ISZERO PUSH2 0x1873 JUMPI RETURNDATASIZE PUSH0 DUP1 RETURNDATACOPY RETURNDATASIZE PUSH0 REVERT JUMPDEST POP POP POP POP PUSH1 0x40 MLOAD RETURNDATASIZE PUSH1 0x1F NOT PUSH1 0x1F DUP3 ADD AND DUP3 ADD DUP1 PUSH1 0x40 MSTORE POP DUP2 ADD SWAP1 PUSH2 0x1897 SWAP2 SWAP1 PUSH2 0x28C6 JUMP JUMPDEST LT ISZERO PUSH2 0x190B JUMPI PUSH1 0x40 MLOAD PUSH3 0x461BCD PUSH1 0xE5 SHL DUP2 MSTORE PUSH1 0x20 PUSH1 0x4 DUP3 ADD MSTORE PUSH1 0x31 PUSH1 0x24 DUP3 ADD MSTORE PUSH32 0x50616E646F7261734B65793A20496E73756666696369656E7420636F6E747261 PUSH1 0x44 DUP3 ADD MSTORE PUSH32 0x637420746F6B656E2062616C616E63652E000000000000000000000000000000 PUSH1 0x64 DUP3 ADD MSTORE PUSH1 0x84 ADD PUSH2 0x945 JUMP JUMPDEST PUSH1 0x40 MLOAD PUSH4 0xA9059CBB PUSH1 0xE0 SHL DUP2 MSTORE PUSH1 0x1 PUSH1 0x1 PUSH1 0xA0 SHL SUB DUP5 DUP2 AND PUSH1 0x4 DUP4 ADD MSTORE PUSH1 0x24 DUP3 ADD DUP5 SWAP1 MSTORE DUP3 AND SWAP1 PUSH4 0xA9059CBB SWAP1 PUSH1 0x44 ADD PUSH1 0x20 PUSH1 0x40 MLOAD DUP1 DUP4 SUB DUP2 PUSH0 DUP8 GAS CALL ISZERO DUP1 ISZERO PUSH2 0x1957 JUMPI RETURNDATASIZE PUSH0 DUP1 RETURNDATACOPY RETURNDATASIZE PUSH0 REVERT JUMPDEST POP POP POP POP PUSH1 0x40 MLOAD RETURNDATASIZE PUSH1 0x1F NOT PUSH1 0x1F DUP3 ADD AND DUP3 ADD DUP1 PUSH1 0x40 MSTORE POP DUP2 ADD SWAP1 PUSH2 0x197B SWAP2 SWAP1 PUSH2 0x28DD JUMP JUMPDEST POP POP POP POP POP JUMP JUMPDEST PUSH2 0x198D DUP5 DUP5 DUP5 PUSH2 0x102C JUMP JUMPDEST PUSH2 0x10B6 PUSH2 0x1998 PUSH2 0x1B00 JUMP JUMPDEST DUP6 DUP6 DUP6 DUP6 PUSH2 0x1F04 JUMP JUMPDEST PUSH1 0x60 PUSH2 0x19AC DUP3 PUSH2 0x1B0E JUMP JUMPDEST POP PUSH0 PUSH2 0x19C2 PUSH1 0x40 DUP1 MLOAD PUSH1 0x20 DUP2 ADD SWAP1 SWAP2 MSTORE PUSH0 DUP2 MSTORE SWAP1 JUMP JUMPDEST SWAP1 POP PUSH0 DUP2 MLOAD GT PUSH2 0x19E0 JUMPI PUSH1 0x40 MLOAD DUP1 PUSH1 0x20 ADD PUSH1 0x40 MSTORE DUP1 PUSH0 DUP2 MSTORE POP PUSH2 0x1A0B JUMP JUMPDEST DUP1 PUSH2 0x19EA DUP5 PUSH2 0x202B JUMP JUMPDEST PUSH1 0x40 MLOAD PUSH1 0x20 ADD PUSH2 0x19FB SWAP3 SWAP2 SWAP1 PUSH2 0x2986 JUMP JUMPDEST PUSH1 0x40 MLOAD PUSH1 0x20 DUP2 DUP4 SUB SUB DUP2 MSTORE SWAP1 PUSH1 0x40 MSTORE JUMPDEST SWAP4 SWAP3 POP POP POP JUMP JUMPDEST PUSH0 DUP3 DUP2 MSTORE PUSH1 0x7 PUSH1 0x20 MSTORE PUSH1 0x40 SWAP1 KECCAK256 PUSH1 0x1 ADD SLOAD PUSH2 0x1A2C DUP2 PUSH2 0x1C64 JUMP JUMPDEST PUSH2 0x10B6 DUP4 DUP4 PUSH2 0x1D21 JUMP JUMPDEST PUSH32 0xA49807205CE4D355092EF5A8A18F56E8913CF4A201FBE287825B095693C21775 PUSH2 0x1A60 DUP2 PUSH2 0x1C64 JUMP JUMPDEST POP PUSH1 0x9 SSTORE JUMP JUMPDEST PUSH2 0x1A6E PUSH2 0x1B53 JUMP JUMPDEST PUSH1 0x1 PUSH1 0x1 PUSH1 0xA0 SHL SUB DUP2 AND PUSH2 0x1A97 JUMPI PUSH1 0x40 MLOAD PUSH4 0x1E4FBDF7 PUSH1 0xE0 SHL DUP2 MSTORE PUSH0 PUSH1 0x4 DUP3 ADD MSTORE PUSH1 0x24 ADD PUSH2 0x945 JUMP JUMPDEST PUSH2 0x13E1 DUP2 PUSH2 0x1DDD JUMP JUMPDEST PUSH0 DUP1 PUSH2 0x1AAB DUP4 PUSH2 0x14AB JUMP JUMPDEST GT SWAP3 SWAP2 POP POP JUMP JUMPDEST PUSH0 PUSH1 0x1 PUSH1 0x1 PUSH1 0xE0 SHL SUB NOT DUP3 AND PUSH4 0x7965DB0B PUSH1 0xE0 SHL EQ DUP1 PUSH2 0x8D0 JUMPI POP PUSH2 0x8D0 DUP3 PUSH2 0x20C8 JUMP JUMPDEST PUSH1 0x2 PUSH1 0x8 SLOAD SUB PUSH2 0x1AF9 JUMPI PUSH1 0x40 MLOAD PUSH4 0x3EE5AEB5 PUSH1 0xE0 SHL DUP2 MSTORE PUSH1 0x4 ADD PUSH1 0x40 MLOAD DUP1 SWAP2 SUB SWAP1 REVERT JUMPDEST PUSH1 0x2 PUSH1 0x8 SSTORE JUMP JUMPDEST PUSH0 PUSH2 0x1B09 PUSH2 0x2117 JUMP JUMPDEST SWAP1 POP SWAP1 JUMP JUMPDEST PUSH0 DUP2 DUP2 MSTORE PUSH1 0x2 PUSH1 0x20 MSTORE PUSH1 0x40 DUP2 KECCAK256 SLOAD PUSH1 0x1 PUSH1 0x1 PUSH1 0xA0 SHL SUB AND DUP1 PUSH2 0x8D0 JUMPI PUSH1 0x40 MLOAD PUSH4 0x7E273289 PUSH1 0xE0 SHL DUP2 MSTORE PUSH1 0x4 DUP2 ADD DUP5 SWAP1 MSTORE PUSH1 0x24 ADD PUSH2 0x945 JUMP JUMPDEST PUSH2 0xBD7 DUP4 DUP4 DUP4 PUSH1 0x1 PUSH2 0x2181 JUMP JUMPDEST PUSH2 0x1B5B PUSH2 0x1B00 JUMP JUMPDEST PUSH1 0x1 PUSH1 0x1 PUSH1 0xA0 SHL SUB AND PUSH2 0x1B76 PUSH1 0x6 SLOAD PUSH1 0x1 PUSH1 0x1 PUSH1 0xA0 SHL SUB AND SWAP1 JUMP JUMPDEST PUSH1 0x1 PUSH1 0x1 PUSH1 0xA0 SHL SUB AND EQ PUSH2 0x102A JUMPI PUSH2 0x1B8C PUSH2 0x1B00 JUMP JUMPDEST PUSH1 0x40 MLOAD PUSH4 0x118CDAA7 PUSH1 0xE0 SHL DUP2 MSTORE PUSH1 0x1 PUSH1 0x1 PUSH1 0xA0 SHL SUB SWAP1 SWAP2 AND PUSH1 0x4 DUP3 ADD MSTORE PUSH1 0x24 ADD PUSH2 0x945 JUMP JUMPDEST PUSH0 DUP3 DUP2 MSTORE PUSH1 0x2 PUSH1 0x20 MSTORE PUSH1 0x40 DUP2 KECCAK256 SLOAD PUSH1 0x1 PUSH1 0x1 PUSH1 0xA0 SHL SUB AND ISZERO DUP1 ISZERO SWAP1 PUSH2 0x1BDE JUMPI POP PUSH1 0x1 PUSH1 0x1 PUSH1 0xA0 SHL SUB DUP5 AND ISZERO ISZERO JUMPDEST ISZERO PUSH2 0x1C51 JUMPI PUSH1 0x40 MLOAD PUSH3 0x461BCD PUSH1 0xE5 SHL DUP2 MSTORE PUSH1 0x20 PUSH1 0x4 DUP3 ADD MSTORE PUSH1 0x2A PUSH1 0x24 DUP3 ADD MSTORE PUSH32 0x50616E646F7261734B65793A2054686973204E4654206973206E6F6E2D747261 PUSH1 0x44 DUP3 ADD MSTORE PUSH32 0x6E7366657261626C652E00000000000000000000000000000000000000000000 PUSH1 0x64 DUP3 ADD MSTORE PUSH1 0x84 ADD PUSH2 0x945 JUMP JUMPDEST PUSH2 0x1C5C DUP5 DUP5 DUP5 PUSH2 0x22A3 JUMP JUMPDEST SWAP5 SWAP4 POP POP POP POP JUMP JUMPDEST PUSH2 0x13E1 DUP2 PUSH2 0x1C70 PUSH2 0x1B00 JUMP JUMPDEST PUSH2 0x2395 JUMP JUMPDEST PUSH0 DUP3 DUP2 MSTORE PUSH1 0x7 PUSH1 0x20 SWAP1 DUP2 MSTORE PUSH1 0x40 DUP1 DUP4 KECCAK256 PUSH1 0x1 PUSH1 0x1 PUSH1 0xA0 SHL SUB DUP6 AND DUP5 MSTORE SWAP1 SWAP2 MSTORE DUP2 KECCAK256 SLOAD PUSH1 0xFF AND PUSH2 0x1D1A JUMPI PUSH0 DUP4 DUP2 MSTORE PUSH1 0x7 PUSH1 0x20 SWAP1 DUP2 MSTORE PUSH1 0x40 DUP1 DUP4 KECCAK256 PUSH1 0x1 PUSH1 0x1 PUSH1 0xA0 SHL SUB DUP7 AND DUP5 MSTORE SWAP1 SWAP2 MSTORE SWAP1 KECCAK256 DUP1 SLOAD PUSH1 0xFF NOT AND PUSH1 0x1 OR SWAP1 SSTORE PUSH2 0x1CD2 PUSH2 0x1B00 JUMP JUMPDEST PUSH1 0x1 PUSH1 0x1 PUSH1 0xA0 SHL SUB AND DUP3 PUSH1 0x1 PUSH1 0x1 PUSH1 0xA0 SHL SUB AND DUP5 PUSH32 0x2F8788117E7EFF1D82E926EC794901D17C78024A50270940304540A733656F0D PUSH1 0x40 MLOAD PUSH1 0x40 MLOAD DUP1 SWAP2 SUB SWAP1 LOG4 POP PUSH1 0x1 PUSH2 0x8D0 JUMP JUMPDEST POP PUSH0 PUSH2 0x8D0 JUMP JUMPDEST PUSH0 DUP3 DUP2 MSTORE PUSH1 0x7 PUSH1 0x20 SWAP1 DUP2 MSTORE PUSH1 0x40 DUP1 DUP4 KECCAK256 PUSH1 0x1 PUSH1 0x1 PUSH1 0xA0 SHL SUB DUP6 AND DUP5 MSTORE SWAP1 SWAP2 MSTORE DUP2 KECCAK256 SLOAD PUSH1 0xFF AND ISZERO PUSH2 0x1D1A JUMPI PUSH0 DUP4 DUP2 MSTORE PUSH1 0x7 PUSH1 0x20 SWAP1 DUP2 MSTORE PUSH1 0x40 DUP1 DUP4 KECCAK256 PUSH1 0x1 PUSH1 0x1 PUSH1 0xA0 SHL SUB DUP7 AND DUP5 MSTORE SWAP1 SWAP2 MSTORE SWAP1 KECCAK256 DUP1 SLOAD PUSH1 0xFF NOT AND SWAP1 SSTORE PUSH2 0x1D7C PUSH2 0x1B00 JUMP JUMPDEST PUSH1 0x1 PUSH1 0x1 PUSH1 0xA0 SHL SUB AND DUP3 PUSH1 0x1 PUSH1 0x1 PUSH1 0xA0 SHL SUB AND DUP5 PUSH32 0xF6391F5C32D9C69D2A47EA670B442974B53935D1EDC7FD64EB21E047A839171B PUSH1 0x40 MLOAD PUSH1 0x40 MLOAD DUP1 SWAP2 SUB SWAP1 LOG4 POP PUSH1 0x1 PUSH2 0x8D0 JUMP JUMPDEST PUSH2 0xCA4 DUP3 DUP3 PUSH1 0x40 MLOAD DUP1 PUSH1 0x20 ADD PUSH1 0x40 MSTORE DUP1 PUSH0 DUP2 MSTORE POP PUSH2 0x23E9 JUMP JUMPDEST PUSH1 0x6 DUP1 SLOAD PUSH1 0x1 PUSH1 0x1 PUSH1 0xA0 SHL SUB DUP4 DUP2 AND PUSH1 0x1 PUSH1 0x1 PUSH1 0xA0 SHL SUB NOT DUP4 AND DUP2 OR SWAP1 SWAP4 SSTORE PUSH1 0x40 MLOAD SWAP2 AND SWAP2 SWAP1 DUP3 SWAP1 PUSH32 0x8BE0079C531659141344CD1FD0A4F28419497F9722A3DAAFE3B4186F6B6457E0 SWAP1 PUSH0 SWAP1 LOG3 POP POP JUMP JUMPDEST PUSH0 PUSH2 0x1E3A PUSH0 DUP4 PUSH0 PUSH2 0x1BB1 JUMP JUMPDEST SWAP1 POP PUSH1 0x1 PUSH1 0x1 PUSH1 0xA0 SHL SUB DUP2 AND PUSH2 0xCA4 JUMPI PUSH1 0x40 MLOAD PUSH4 0x7E273289 PUSH1 0xE0 SHL DUP2 MSTORE PUSH1 0x4 DUP2 ADD DUP4 SWAP1 MSTORE PUSH1 0x24 ADD PUSH2 0x945 JUMP JUMPDEST PUSH1 0x1 PUSH1 0x1 PUSH1 0xA0 SHL SUB DUP3 AND PUSH2 0x1E98 JUMPI PUSH1 0x40 MLOAD PUSH4 0xB611743 PUSH1 0xE3 SHL DUP2 MSTORE PUSH1 0x1 PUSH1 0x1 PUSH1 0xA0 SHL SUB DUP4 AND PUSH1 0x4 DUP3 ADD MSTORE PUSH1 0x24 ADD PUSH2 0x945 JUMP JUMPDEST PUSH1 0x1 PUSH1 0x1 PUSH1 0xA0 SHL SUB DUP4 DUP2 AND PUSH0 DUP2 DUP2 MSTORE PUSH1 0x5 PUSH1 0x20 SWAP1 DUP2 MSTORE PUSH1 0x40 DUP1 DUP4 KECCAK256 SWAP5 DUP8 AND DUP1 DUP5 MSTORE SWAP5 DUP3 MSTORE SWAP2 DUP3 SWAP1 KECCAK256 DUP1 SLOAD PUSH1 0xFF NOT AND DUP7 ISZERO ISZERO SWAP1 DUP2 OR SWAP1 SWAP2 SSTORE SWAP2 MLOAD SWAP2 DUP3 MSTORE PUSH32 0x17307EAB39AB6107E8899845AD3D59BD9653F200F220920489CA2B5937696C31 SWAP2 ADD PUSH1 0x40 MLOAD DUP1 SWAP2 SUB SWAP1 LOG3 POP POP POP JUMP JUMPDEST PUSH1 0x1 PUSH1 0x1 PUSH1 0xA0 SHL SUB DUP4 AND EXTCODESIZE ISZERO PUSH2 0x197B JUMPI PUSH1 0x40 MLOAD PUSH4 0xA85BD01 PUSH1 0xE1 SHL DUP2 MSTORE PUSH1 0x1 PUSH1 0x1 PUSH1 0xA0 SHL SUB DUP5 AND SWAP1 PUSH4 0x150B7A02 SWAP1 PUSH2 0x1F46 SWAP1 DUP9 SWAP1 DUP9 SWAP1 DUP8 SWAP1 DUP8 SWAP1 PUSH1 0x4 ADD PUSH2 0x299A JUMP JUMPDEST PUSH1 0x20 PUSH1 0x40 MLOAD DUP1 DUP4 SUB DUP2 PUSH0 DUP8 GAS CALL SWAP3 POP POP POP DUP1 ISZERO PUSH2 0x1F80 JUMPI POP PUSH1 0x40 DUP1 MLOAD PUSH1 0x1F RETURNDATASIZE SWAP1 DUP2 ADD PUSH1 0x1F NOT AND DUP3 ADD SWAP1 SWAP3 MSTORE PUSH2 0x1F7D SWAP2 DUP2 ADD SWAP1 PUSH2 0x29D5 JUMP JUMPDEST PUSH1 0x1 JUMPDEST PUSH2 0x1FE7 JUMPI RETURNDATASIZE DUP1 DUP1 ISZERO PUSH2 0x1FAD JUMPI PUSH1 0x40 MLOAD SWAP2 POP PUSH1 0x1F NOT PUSH1 0x3F RETURNDATASIZE ADD AND DUP3 ADD PUSH1 0x40 MSTORE RETURNDATASIZE DUP3 MSTORE RETURNDATASIZE PUSH0 PUSH1 0x20 DUP5 ADD RETURNDATACOPY PUSH2 0x1FB2 JUMP JUMPDEST PUSH1 0x60 SWAP2 POP JUMPDEST POP DUP1 MLOAD PUSH0 SUB PUSH2 0x1FDF JUMPI PUSH1 0x40 MLOAD PUSH4 0x32505749 PUSH1 0xE1 SHL DUP2 MSTORE PUSH1 0x1 PUSH1 0x1 PUSH1 0xA0 SHL SUB DUP6 AND PUSH1 0x4 DUP3 ADD MSTORE PUSH1 0x24 ADD PUSH2 0x945 JUMP JUMPDEST DUP1 MLOAD PUSH1 0x20 DUP3 ADD REVERT JUMPDEST PUSH1 0x1 PUSH1 0x1 PUSH1 0xE0 SHL SUB NOT DUP2 AND PUSH4 0xA85BD01 PUSH1 0xE1 SHL EQ PUSH2 0x2023 JUMPI PUSH1 0x40 MLOAD PUSH4 0x32505749 PUSH1 0xE1 SHL DUP2 MSTORE PUSH1 0x1 PUSH1 0x1 PUSH1 0xA0 SHL SUB DUP6 AND PUSH1 0x4 DUP3 ADD MSTORE PUSH1 0x24 ADD PUSH2 0x945 JUMP JUMPDEST POP POP POP POP POP POP JUMP JUMPDEST PUSH1 0x60 PUSH0 PUSH2 0x2037 DUP4 PUSH2 0x2407 JUMP JUMPDEST PUSH1 0x1 ADD SWAP1 POP PUSH0 DUP2 PUSH8 0xFFFFFFFFFFFFFFFF DUP2 GT ISZERO PUSH2 0x2056 JUMPI PUSH2 0x2056 PUSH2 0x27DD JUMP JUMPDEST PUSH1 0x40 MLOAD SWAP1 DUP1 DUP3 MSTORE DUP1 PUSH1 0x1F ADD PUSH1 0x1F NOT AND PUSH1 0x20 ADD DUP3 ADD PUSH1 0x40 MSTORE DUP1 ISZERO PUSH2 0x2080 JUMPI PUSH1 0x20 DUP3 ADD DUP2 DUP1 CALLDATASIZE DUP4 CALLDATACOPY ADD SWAP1 POP JUMPDEST POP SWAP1 POP DUP2 DUP2 ADD PUSH1 0x20 ADD JUMPDEST PUSH0 NOT ADD PUSH32 0x3031323334353637383961626364656600000000000000000000000000000000 PUSH1 0xA DUP7 MOD BYTE DUP2 MSTORE8 PUSH1 0xA DUP6 DIV SWAP5 POP DUP5 PUSH2 0x208A JUMPI POP SWAP4 SWAP3 POP POP POP JUMP JUMPDEST PUSH0 PUSH1 0x1 PUSH1 0x1 PUSH1 0xE0 SHL SUB NOT DUP3 AND PUSH4 0x80AC58CD PUSH1 0xE0 SHL EQ DUP1 PUSH2 0x20F8 JUMPI POP PUSH1 0x1 PUSH1 0x1 PUSH1 0xE0 SHL SUB NOT DUP3 AND PUSH4 0x5B5E139F PUSH1 0xE0 SHL EQ JUMPDEST DUP1 PUSH2 0x8D0 JUMPI POP PUSH4 0x1FFC9A7 PUSH1 0xE0 SHL PUSH1 0x1 PUSH1 0x1 PUSH1 0xE0 SHL SUB NOT DUP4 AND EQ PUSH2 0x8D0 JUMP JUMPDEST PUSH0 CALLDATASIZE PUSH1 0x14 DUP1 DUP3 LT DUP1 ISZERO SWAP1 PUSH2 0x2153 JUMPI POP PUSH32 0x0 PUSH1 0x1 PUSH1 0x1 PUSH1 0xA0 SHL SUB AND CALLER EQ JUMPDEST ISZERO PUSH2 0x2179 JUMPI PUSH2 0x2166 CALLDATASIZE DUP3 DUP5 SUB DUP2 PUSH0 PUSH2 0x29F0 JUMP JUMPDEST PUSH2 0x216F SWAP2 PUSH2 0x2A17 JUMP JUMPDEST PUSH1 0x60 SHR SWAP3 POP POP POP SWAP1 JUMP JUMPDEST CALLER SWAP3 POP POP POP SWAP1 JUMP JUMPDEST DUP1 DUP1 PUSH2 0x2195 JUMPI POP PUSH1 0x1 PUSH1 0x1 PUSH1 0xA0 SHL SUB DUP3 AND ISZERO ISZERO JUMPDEST ISZERO PUSH2 0x2274 JUMPI PUSH0 PUSH2 0x21A4 DUP5 PUSH2 0x1B0E JUMP JUMPDEST SWAP1 POP PUSH1 0x1 PUSH1 0x1 PUSH1 0xA0 SHL SUB DUP4 AND ISZERO DUP1 ISZERO SWAP1 PUSH2 0x21D0 JUMPI POP DUP3 PUSH1 0x1 PUSH1 0x1 PUSH1 0xA0 SHL SUB AND DUP2 PUSH1 0x1 PUSH1 0x1 PUSH1 0xA0 SHL SUB AND EQ ISZERO JUMPDEST DUP1 ISZERO PUSH2 0x2201 JUMPI POP PUSH1 0x1 PUSH1 0x1 PUSH1 0xA0 SHL SUB DUP1 DUP3 AND PUSH0 SWAP1 DUP2 MSTORE PUSH1 0x5 PUSH1 0x20 SWAP1 DUP2 MSTORE PUSH1 0x40 DUP1 DUP4 KECCAK256 SWAP4 DUP8 AND DUP4 MSTORE SWAP3 SWAP1 MSTORE KECCAK256 SLOAD PUSH1 0xFF AND ISZERO JUMPDEST ISZERO PUSH2 0x222A JUMPI PUSH1 0x40 MLOAD PUSH4 0xA9FBF51F PUSH1 0xE0 SHL DUP2 MSTORE PUSH1 0x1 PUSH1 0x1 PUSH1 0xA0 SHL SUB DUP5 AND PUSH1 0x4 DUP3 ADD MSTORE PUSH1 0x24 ADD PUSH2 0x945 JUMP JUMPDEST DUP2 ISZERO PUSH2 0x2272 JUMPI DUP4 DUP6 PUSH1 0x1 PUSH1 0x1 PUSH1 0xA0 SHL SUB AND DUP3 PUSH1 0x1 PUSH1 0x1 PUSH1 0xA0 SHL SUB AND PUSH32 0x8C5BE1E5EBEC7D5BD14F71427D1E84F3DD0314C0F7B2291E5B200AC8C7C3B925 PUSH1 0x40 MLOAD PUSH1 0x40 MLOAD DUP1 SWAP2 SUB SWAP1 LOG4 JUMPDEST POP JUMPDEST POP POP PUSH0 SWAP1 DUP2 MSTORE PUSH1 0x4 PUSH1 0x20 MSTORE PUSH1 0x40 SWAP1 KECCAK256 DUP1 SLOAD PUSH1 0x1 PUSH1 0x1 PUSH1 0xA0 SHL SUB NOT AND PUSH1 0x1 PUSH1 0x1 PUSH1 0xA0 SHL SUB SWAP3 SWAP1 SWAP3 AND SWAP2 SWAP1 SWAP2 OR SWAP1 SSTORE JUMP JUMPDEST PUSH0 DUP3 DUP2 MSTORE PUSH1 0x2 PUSH1 0x20 MSTORE PUSH1 0x40 DUP2 KECCAK256 SLOAD PUSH1 0x1 PUSH1 0x1 PUSH1 0xA0 SHL SUB SWAP1 DUP2 AND SWAP1 DUP4 AND ISZERO PUSH2 0x22CF JUMPI PUSH2 0x22CF DUP2 DUP5 DUP7 PUSH2 0x24E8 JUMP JUMPDEST PUSH1 0x1 PUSH1 0x1 PUSH1 0xA0 SHL SUB DUP2 AND ISZERO PUSH2 0x2309 JUMPI PUSH2 0x22EA PUSH0 DUP6 PUSH0 DUP1 PUSH2 0x2181 JUMP JUMPDEST PUSH1 0x1 PUSH1 0x1 PUSH1 0xA0 SHL SUB DUP2 AND PUSH0 SWAP1 DUP2 MSTORE PUSH1 0x3 PUSH1 0x20 MSTORE PUSH1 0x40 SWAP1 KECCAK256 DUP1 SLOAD PUSH0 NOT ADD SWAP1 SSTORE JUMPDEST PUSH1 0x1 PUSH1 0x1 PUSH1 0xA0 SHL SUB DUP6 AND ISZERO PUSH2 0x2337 JUMPI PUSH1 0x1 PUSH1 0x1 PUSH1 0xA0 SHL SUB DUP6 AND PUSH0 SWAP1 DUP2 MSTORE PUSH1 0x3 PUSH1 0x20 MSTORE PUSH1 0x40 SWAP1 KECCAK256 DUP1 SLOAD PUSH1 0x1 ADD SWAP1 SSTORE JUMPDEST PUSH0 DUP5 DUP2 MSTORE PUSH1 0x2 PUSH1 0x20 MSTORE PUSH1 0x40 DUP1 DUP3 KECCAK256 DUP1 SLOAD PUSH1 0x1 PUSH1 0x1 PUSH1 0xA0 SHL SUB NOT AND PUSH1 0x1 PUSH1 0x1 PUSH1 0xA0 SHL SUB DUP10 DUP2 AND SWAP2 DUP3 OR SWAP1 SWAP3 SSTORE SWAP2 MLOAD DUP8 SWAP4 SWAP2 DUP6 AND SWAP2 PUSH32 0xDDF252AD1BE2C89B69C2B068FC378DAA952BA7F163C4A11628F55A4DF523B3EF SWAP2 LOG4 SWAP5 SWAP4 POP POP POP POP JUMP JUMPDEST PUSH0 DUP3 DUP2 MSTORE PUSH1 0x7 PUSH1 0x20 SWAP1 DUP2 MSTORE PUSH1 0x40 DUP1 DUP4 KECCAK256 PUSH1 0x1 PUSH1 0x1 PUSH1 0xA0 SHL SUB DUP6 AND DUP5 MSTORE SWAP1 SWAP2 MSTORE SWAP1 KECCAK256 SLOAD PUSH1 0xFF AND PUSH2 0xCA4 JUMPI PUSH1 0x40 MLOAD PUSH4 0xE2517D3F PUSH1 0xE0 SHL DUP2 MSTORE PUSH1 0x1 PUSH1 0x1 PUSH1 0xA0 SHL SUB DUP3 AND PUSH1 0x4 DUP3 ADD MSTORE PUSH1 0x24 DUP2 ADD DUP4 SWAP1 MSTORE PUSH1 0x44 ADD PUSH2 0x945 JUMP JUMPDEST PUSH2 0x23F3 DUP4 DUP4 PUSH2 0x254C JUMP JUMPDEST PUSH2 0xBD7 PUSH2 0x23FE PUSH2 0x1B00 JUMP JUMPDEST PUSH0 DUP6 DUP6 DUP6 PUSH2 0x1F04 JUMP JUMPDEST PUSH0 DUP1 PUSH27 0x184F03E93FF9F4DAA797ED6E38ED64BF6A1F010000000000000000 DUP4 LT PUSH2 0x244F JUMPI PUSH27 0x184F03E93FF9F4DAA797ED6E38ED64BF6A1F010000000000000000 DUP4 DIV SWAP3 POP PUSH1 0x40 ADD JUMPDEST PUSH14 0x4EE2D6D415B85ACEF8100000000 DUP4 LT PUSH2 0x247B JUMPI PUSH14 0x4EE2D6D415B85ACEF8100000000 DUP4 DIV SWAP3 POP PUSH1 0x20 ADD JUMPDEST PUSH7 0x2386F26FC10000 DUP4 LT PUSH2 0x2499 JUMPI PUSH7 0x2386F26FC10000 DUP4 DIV SWAP3 POP PUSH1 0x10 ADD JUMPDEST PUSH4 0x5F5E100 DUP4 LT PUSH2 0x24B1 JUMPI PUSH4 0x5F5E100 DUP4 DIV SWAP3 POP PUSH1 0x8 ADD JUMPDEST PUSH2 0x2710 DUP4 LT PUSH2 0x24C5 JUMPI PUSH2 0x2710 DUP4 DIV SWAP3 POP PUSH1 0x4 ADD JUMPDEST PUSH1 0x64 DUP4 LT PUSH2 0x24D7 JUMPI PUSH1 0x64 DUP4 DIV SWAP3 POP PUSH1 0x2 ADD JUMPDEST PUSH1 0xA DUP4 LT PUSH2 0x8D0 JUMPI PUSH1 0x1 ADD SWAP3 SWAP2 POP POP JUMP JUMPDEST PUSH2 0x24F3 DUP4 DUP4 DUP4 PUSH2 0x25AD JUMP JUMPDEST PUSH2 0xBD7 JUMPI PUSH1 0x1 PUSH1 0x1 PUSH1 0xA0 SHL SUB DUP4 AND PUSH2 0x2521 JUMPI PUSH1 0x40 MLOAD PUSH4 0x7E273289 PUSH1 0xE0 SHL DUP2 MSTORE PUSH1 0x4 DUP2 ADD DUP3 SWAP1 MSTORE PUSH1 0x24 ADD PUSH2 0x945 JUMP JUMPDEST PUSH1 0x40 MLOAD PUSH4 0x177E802F PUSH1 0xE0 SHL DUP2 MSTORE PUSH1 0x1 PUSH1 0x1 PUSH1 0xA0 SHL SUB DUP4 AND PUSH1 0x4 DUP3 ADD MSTORE PUSH1 0x24 DUP2 ADD DUP3 SWAP1 MSTORE PUSH1 0x44 ADD PUSH2 0x945 JUMP JUMPDEST PUSH1 0x1 PUSH1 0x1 PUSH1 0xA0 SHL SUB DUP3 AND PUSH2 0x2575 JUMPI PUSH1 0x40 MLOAD PUSH4 0x32505749 PUSH1 0xE1 SHL DUP2 MSTORE PUSH0 PUSH1 0x4 DUP3 ADD MSTORE PUSH1 0x24 ADD PUSH2 0x945 JUMP JUMPDEST PUSH0 PUSH2 0x2581 DUP4 DUP4 PUSH0 PUSH2 0x1BB1 JUMP JUMPDEST SWAP1 POP PUSH1 0x1 PUSH1 0x1 PUSH1 0xA0 SHL SUB DUP2 AND ISZERO PUSH2 0xBD7 JUMPI PUSH1 0x40 MLOAD PUSH4 0x39E35637 PUSH1 0xE1 SHL DUP2 MSTORE PUSH0 PUSH1 0x4 DUP3 ADD MSTORE PUSH1 0x24 ADD PUSH2 0x945 JUMP JUMPDEST PUSH0 PUSH1 0x1 PUSH1 0x1 PUSH1 0xA0 SHL SUB DUP4 AND ISZERO DUP1 ISZERO SWAP1 PUSH2 0x1C5C JUMPI POP DUP3 PUSH1 0x1 PUSH1 0x1 PUSH1 0xA0 SHL SUB AND DUP5 PUSH1 0x1 PUSH1 0x1 PUSH1 0xA0 SHL SUB AND EQ DUP1 PUSH2 0x2605 JUMPI POP PUSH1 0x1 PUSH1 0x1 PUSH1 0xA0 SHL SUB DUP1 DUP6 AND PUSH0 SWAP1 DUP2 MSTORE PUSH1 0x5 PUSH1 0x20 SWAP1 DUP2 MSTORE PUSH1 0x40 DUP1 DUP4 KECCAK256 SWAP4 DUP8 AND DUP4 MSTORE SWAP3 SWAP1 MSTORE KECCAK256 SLOAD PUSH1 0xFF AND JUMPDEST DUP1 PUSH2 0x1C5C JUMPI POP POP PUSH0 SWAP1 DUP2 MSTORE PUSH1 0x4 PUSH1 0x20 MSTORE PUSH1 0x40 SWAP1 KECCAK256 SLOAD PUSH1 0x1 PUSH1 0x1 PUSH1 0xA0 SHL SUB SWAP1 DUP2 AND SWAP2 AND EQ SWAP2 SWAP1 POP JUMP JUMPDEST PUSH1 0x1 PUSH1 0x1 PUSH1 0xE0 SHL SUB NOT DUP2 AND DUP2 EQ PUSH2 0x13E1 JUMPI PUSH0 DUP1 REVERT JUMPDEST PUSH0 PUSH1 0x20 DUP3 DUP5 SUB SLT ISZERO PUSH2 0x2652 JUMPI PUSH0 DUP1 REVERT JUMPDEST DUP2 CALLDATALOAD PUSH2 0x1A0B DUP2 PUSH2 0x262D JUMP JUMPDEST DUP1 CALLDATALOAD PUSH1 0x1 PUSH1 0x1 PUSH1 0xA0 SHL SUB DUP2 AND DUP2 EQ PUSH2 0x2673 JUMPI PUSH0 DUP1 REVERT JUMPDEST SWAP2 SWAP1 POP JUMP JUMPDEST PUSH0 DUP1 PUSH0 PUSH1 0x60 DUP5 DUP7 SUB SLT ISZERO PUSH2 0x268A JUMPI PUSH0 DUP1 REVERT JUMPDEST PUSH2 0x2693 DUP5 PUSH2 0x265D JUMP JUMPDEST SWAP3 POP PUSH2 0x26A1 PUSH1 0x20 DUP6 ADD PUSH2 0x265D JUMP JUMPDEST SWAP2 POP PUSH1 0x40 DUP5 ADD CALLDATALOAD SWAP1 POP SWAP3 POP SWAP3 POP SWAP3 JUMP JUMPDEST PUSH0 DUP2 MLOAD DUP1 DUP5 MSTORE DUP1 PUSH1 0x20 DUP5 ADD PUSH1 0x20 DUP7 ADD MCOPY PUSH0 PUSH1 0x20 DUP3 DUP7 ADD ADD MSTORE PUSH1 0x20 PUSH1 0x1F NOT PUSH1 0x1F DUP4 ADD AND DUP6 ADD ADD SWAP2 POP POP SWAP3 SWAP2 POP POP JUMP JUMPDEST PUSH1 0x20 DUP2 MSTORE PUSH0 PUSH2 0x1A0B PUSH1 0x20 DUP4 ADD DUP5 PUSH2 0x26B1 JUMP JUMPDEST PUSH0 PUSH1 0x20 DUP3 DUP5 SUB SLT ISZERO PUSH2 0x2701 JUMPI PUSH0 DUP1 REVERT JUMPDEST POP CALLDATALOAD SWAP2 SWAP1 POP JUMP JUMPDEST PUSH0 DUP1 PUSH1 0x40 DUP4 DUP6 SUB SLT ISZERO PUSH2 0x2719 JUMPI PUSH0 DUP1 REVERT JUMPDEST PUSH2 0x2722 DUP4 PUSH2 0x265D JUMP JUMPDEST SWAP5 PUSH1 0x20 SWAP4 SWAP1 SWAP4 ADD CALLDATALOAD SWAP4 POP POP POP JUMP JUMPDEST PUSH0 DUP1 PUSH1 0x40 DUP4 DUP6 SUB SLT ISZERO PUSH2 0x2741 JUMPI PUSH0 DUP1 REVERT JUMPDEST DUP3 CALLDATALOAD SWAP2 POP PUSH2 0x2751 PUSH1 0x20 DUP5 ADD PUSH2 0x265D JUMP JUMPDEST SWAP1 POP SWAP3 POP SWAP3 SWAP1 POP JUMP JUMPDEST PUSH0 PUSH1 0x20 DUP3 DUP5 SUB SLT ISZERO PUSH2 0x276A JUMPI PUSH0 DUP1 REVERT JUMPDEST PUSH2 0x1A0B DUP3 PUSH2 0x265D JUMP JUMPDEST PUSH0 DUP1 PUSH1 0x40 DUP4 DUP6 SUB SLT ISZERO PUSH2 0x2784 JUMPI PUSH0 DUP1 REVERT JUMPDEST PUSH2 0x278D DUP4 PUSH2 0x265D JUMP JUMPDEST SWAP2 POP PUSH2 0x2751 PUSH1 0x20 DUP5 ADD PUSH2 0x265D JUMP JUMPDEST DUP1 ISZERO ISZERO DUP2 EQ PUSH2 0x13E1 JUMPI PUSH0 DUP1 REVERT JUMPDEST PUSH0 DUP1 PUSH1 0x40 DUP4 DUP6 SUB SLT ISZERO PUSH2 0x27B9 JUMPI PUSH0 DUP1 REVERT JUMPDEST PUSH2 0x27C2 DUP4 PUSH2 0x265D JUMP JUMPDEST SWAP2 POP PUSH1 0x20 DUP4 ADD CALLDATALOAD PUSH2 0x27D2 DUP2 PUSH2 0x279B JUMP JUMPDEST DUP1 SWAP2 POP POP SWAP3 POP SWAP3 SWAP1 POP JUMP JUMPDEST PUSH4 0x4E487B71 PUSH1 0xE0 SHL PUSH0 MSTORE PUSH1 0x41 PUSH1 0x4 MSTORE PUSH1 0x24 PUSH0 REVERT JUMPDEST PUSH0 DUP1 PUSH0 DUP1 PUSH1 0x80 DUP6 DUP8 SUB SLT ISZERO PUSH2 0x2804 JUMPI PUSH0 DUP1 REVERT JUMPDEST PUSH2 0x280D DUP6 PUSH2 0x265D JUMP JUMPDEST SWAP4 POP PUSH2 0x281B PUSH1 0x20 DUP7 ADD PUSH2 0x265D JUMP JUMPDEST SWAP3 POP PUSH1 0x40 DUP6 ADD CALLDATALOAD SWAP2 POP PUSH1 0x60 DUP6 ADD CALLDATALOAD PUSH8 0xFFFFFFFFFFFFFFFF DUP1 DUP3 GT ISZERO PUSH2 0x283E JUMPI PUSH0 DUP1 REVERT JUMPDEST DUP2 DUP8 ADD SWAP2 POP DUP8 PUSH1 0x1F DUP4 ADD SLT PUSH2 0x2851 JUMPI PUSH0 DUP1 REVERT JUMPDEST DUP2 CALLDATALOAD DUP2 DUP2 GT ISZERO PUSH2 0x2863 JUMPI PUSH2 0x2863 PUSH2 0x27DD JUMP JUMPDEST PUSH1 0x40 MLOAD PUSH1 0x1F DUP3 ADD PUSH1 0x1F NOT SWAP1 DUP2 AND PUSH1 0x3F ADD AND DUP2 ADD SWAP1 DUP4 DUP3 GT DUP2 DUP4 LT OR ISZERO PUSH2 0x288B JUMPI PUSH2 0x288B PUSH2 0x27DD JUMP JUMPDEST DUP2 PUSH1 0x40 MSTORE DUP3 DUP2 MSTORE DUP11 PUSH1 0x20 DUP5 DUP8 ADD ADD GT ISZERO PUSH2 0x28A3 JUMPI PUSH0 DUP1 REVERT JUMPDEST DUP3 PUSH1 0x20 DUP7 ADD PUSH1 0x20 DUP4 ADD CALLDATACOPY PUSH0 PUSH1 0x20 DUP5 DUP4 ADD ADD MSTORE DUP1 SWAP6 POP POP POP POP POP POP SWAP3 SWAP6 SWAP2 SWAP5 POP SWAP3 POP JUMP JUMPDEST PUSH0 PUSH1 0x20 DUP3 DUP5 SUB SLT ISZERO PUSH2 0x28D6 JUMPI PUSH0 DUP1 REVERT JUMPDEST POP MLOAD SWAP2 SWAP1 POP JUMP JUMPDEST PUSH0 PUSH1 0x20 DUP3 DUP5 SUB SLT ISZERO PUSH2 0x28ED JUMPI PUSH0 DUP1 REVERT JUMPDEST DUP2 MLOAD PUSH2 0x1A0B DUP2 PUSH2 0x279B JUMP JUMPDEST PUSH4 0x4E487B71 PUSH1 0xE0 SHL PUSH0 MSTORE PUSH1 0x11 PUSH1 0x4 MSTORE PUSH1 0x24 PUSH0 REVERT JUMPDEST DUP1 DUP3 ADD DUP1 DUP3 GT ISZERO PUSH2 0x8D0 JUMPI PUSH2 0x8D0 PUSH2 0x28F8 JUMP JUMPDEST PUSH1 0x1 DUP2 DUP2 SHR SWAP1 DUP3 AND DUP1 PUSH2 0x2933 JUMPI PUSH1 0x7F DUP3 AND SWAP2 POP JUMPDEST PUSH1 0x20 DUP3 LT DUP2 SUB PUSH2 0x2951 JUMPI PUSH4 0x4E487B71 PUSH1 0xE0 SHL PUSH0 MSTORE PUSH1 0x22 PUSH1 0x4 MSTORE PUSH1 0x24 PUSH0 REVERT JUMPDEST POP SWAP2 SWAP1 POP JUMP JUMPDEST PUSH0 PUSH1 0x1 DUP3 ADD PUSH2 0x2968 JUMPI PUSH2 0x2968 PUSH2 0x28F8 JUMP JUMPDEST POP PUSH1 0x1 ADD SWAP1 JUMP JUMPDEST PUSH0 DUP2 MLOAD DUP1 PUSH1 0x20 DUP5 ADD DUP6 MCOPY PUSH0 SWAP4 ADD SWAP3 DUP4 MSTORE POP SWAP1 SWAP2 SWAP1 POP JUMP JUMPDEST PUSH0 PUSH2 0x1C5C PUSH2 0x2994 DUP4 DUP7 PUSH2 0x296F JUMP JUMPDEST DUP5 PUSH2 0x296F JUMP JUMPDEST PUSH0 PUSH1 0x1 PUSH1 0x1 PUSH1 0xA0 SHL SUB DUP1 DUP8 AND DUP4 MSTORE DUP1 DUP7 AND PUSH1 0x20 DUP5 ADD MSTORE POP DUP4 PUSH1 0x40 DUP4 ADD MSTORE PUSH1 0x80 PUSH1 0x60 DUP4 ADD MSTORE PUSH2 0x29CB PUSH1 0x80 DUP4 ADD DUP5 PUSH2 0x26B1 JUMP JUMPDEST SWAP7 SWAP6 POP POP POP POP POP POP JUMP JUMPDEST PUSH0 PUSH1 0x20 DUP3 DUP5 SUB SLT ISZERO PUSH2 0x29E5 JUMPI PUSH0 DUP1 REVERT JUMPDEST DUP2 MLOAD PUSH2 0x1A0B DUP2 PUSH2 0x262D JUMP JUMPDEST PUSH0 DUP1 DUP6 DUP6 GT ISZERO PUSH2 0x29FE JUMPI PUSH0 DUP1 REVERT JUMPDEST DUP4 DUP7 GT ISZERO PUSH2 0x2A0A JUMPI PUSH0 DUP1 REVERT JUMPDEST POP POP DUP3 ADD SWAP4 SWAP2 SWAP1 SWAP3 SUB SWAP2 POP JUMP JUMPDEST PUSH12 0xFFFFFFFFFFFFFFFFFFFFFFFF NOT DUP2 CALLDATALOAD DUP2 DUP2 AND SWAP2 PUSH1 0x14 DUP6 LT ISZERO PUSH2 0x2A44 JUMPI DUP1 DUP2 DUP7 PUSH1 0x14 SUB PUSH1 0x3 SHL SHL DUP4 AND AND SWAP3 POP JUMPDEST POP POP SWAP3 SWAP2 POP POP JUMP INVALID LOG2 PUSH5 0x6970667358 0x22 SLT KECCAK256 SWAP3 0xC1 ADDMOD ADD 0xA6 PUSH21 0xCE6264688C4C499192EED081561DC3886BD50CA090 CALLDATALOAD 0x26 SELFBALANCE SWAP3 0xAD PUSH5 0x736F6C6343 STOP ADDMOD NOT STOP CALLER "
    },
    "gasEstimates": {
      "creation": {
        "codeDepositCost": "2176400",
        "executionCost": "infinite",
        "totalCost": "infinite"
      },
      "external": {
        "ADMIN_ROLE()": "285",
        "DEFAULT_ADMIN_ROLE()": "261",
        "MINTER_ROLE()": "261",
        "adminMint(address)": "infinite",
        "approve(address,uint256)": "infinite",
        "balanceOf(address)": "2696",
        "burn(address,uint256)": "infinite",
        "depositERC20ToHolder(address,address,uint256)": "infinite",
        "depositToHolder(address)": "infinite",
        "erc20DepositsOfHolder(address,address)": "infinite",
        "ethDepositsOfHolder(address)": "2606",
        "freeMint()": "infinite",
        "getApproved(uint256)": "infinite",
        "getRoleAdmin(bytes32)": "2531",
        "grantRole(bytes32,address)": "infinite",
        "hasRole(bytes32,address)": "2707",
        "isApprovedForAll(address,address)": "infinite",
        "isGateHolder(address)": "2735",
        "isTrustedForwarder(address)": "infinite",
        "maxPerWallet()": "2406",
        "name()": "infinite",
        "owner()": "2442",
        "ownerOf(uint256)": "infinite",
        "payoutAddressOfHolder(address)": "2645",
        "renounceOwnership()": "infinite",
        "renounceRole(bytes32,address)": "infinite",
        "rescueERC20(address,address,uint256)": "infinite",
        "rescueETH(address,uint256)": "infinite",
        "revokeRole(bytes32,address)": "infinite",
        "safeTransferFrom(address,address,uint256)": "infinite",
        "safeTransferFrom(address,address,uint256,bytes)": "infinite",
        "setApprovalForAll(address,bool)": "infinite",
        "setMaxPerWallet(uint256)": "infinite",
        "setPayoutAddress(address)": "infinite",
        "supportsInterface(bytes4)": "infinite",
        "symbol()": "infinite",
        "tokenURI(uint256)": "infinite",
        "transferFrom(address,address,uint256)": "infinite",
        "transferOwnership(address)": "infinite",
        "trustedForwarder()": "infinite",
        "withdrawHolderERC20(address)": "infinite",
        "withdrawHolderETH()": "infinite"
      },
      "internal": {
        "_contextSuffixLength()": "infinite",
        "_msgData()": "infinite",
        "_msgSender()": "infinite",
        "_update(address,uint256,address)": "infinite"
      }
    },
    "methodIdentifiers": {
      "ADMIN_ROLE()": "75b238fc",
      "DEFAULT_ADMIN_ROLE()": "a217fddf",
      "MINTER_ROLE()": "d5391393",
      "adminMint(address)": "9769dc0e",
      "approve(address,uint256)": "095ea7b3",
      "balanceOf(address)": "70a08231",
      "burn(address,uint256)": "9dc29fac",
      "depositERC20ToHolder(address,address,uint256)": "06553e6c",
      "depositToHolder(address)": "9f03f664",
      "erc20DepositsOfHolder(address,address)": "65a6aaeb",
      "ethDepositsOfHolder(address)": "578ffd36",
      "freeMint()": "5b70ea9f",
      "getApproved(uint256)": "081812fc",
      "getRoleAdmin(bytes32)": "248a9ca3",
      "grantRole(bytes32,address)": "2f2ff15d",
      "hasRole(bytes32,address)": "91d14854",
      "isApprovedForAll(address,address)": "e985e9c5",
      "isGateHolder(address)": "fa9f3f27",
      "isTrustedForwarder(address)": "572b6c05",
      "maxPerWallet()": "453c2310",
      "name()": "06fdde03",
      "owner()": "8da5cb5b",
      "ownerOf(uint256)": "6352211e",
      "payoutAddressOfHolder(address)": "8796a531",
      "renounceOwnership()": "715018a6",
      "renounceRole(bytes32,address)": "36568abe",
      "rescueERC20(address,address,uint256)": "b2118a8d",
      "rescueETH(address,uint256)": "099a04e5",
      "revokeRole(bytes32,address)": "d547741f",
      "safeTransferFrom(address,address,uint256)": "42842e0e",
      "safeTransferFrom(address,address,uint256,bytes)": "b88d4fde",
      "setApprovalForAll(address,bool)": "a22cb465",
      "setMaxPerWallet(uint256)": "e268e4d3",
      "setPayoutAddress(address)": "33ea51a8",
      "supportsInterface(bytes4)": "01ffc9a7",
      "symbol()": "95d89b41",
      "tokenURI(uint256)": "c87b56dd",
      "transferFrom(address,address,uint256)": "23b872dd",
      "transferOwnership(address)": "f2fde38b",
      "trustedForwarder()": "7da0a877",
      "withdrawHolderERC20(address)": "392604f8",
      "withdrawHolderETH()": "12954dc2"
    }
  },
  "storageLayout": {
    "storage": [
      {
        "astId": 15027,
        "contract": "PandorasKey.sol:PandorasKey",
        "label": "_name",
        "offset": 0,
        "slot": "0",
        "type": "t_string_storage"
      },
      {
        "astId": 15029,
        "contract": "PandorasKey.sol:PandorasKey",
        "label": "_symbol",
        "offset": 0,
        "slot": "1",
        "type": "t_string_storage"
      },
      {
        "astId": 15033,
        "contract": "PandorasKey.sol:PandorasKey",
        "label": "_owners",
        "offset": 0,
        "slot": "2",
        "type": "t_mapping(t_uint256,t_address)"
      },
      {
        "astId": 15037,
        "contract": "PandorasKey.sol:PandorasKey",
        "label": "_balances",
        "offset": 0,
        "slot": "3",
        "type": "t_mapping(t_address,t_uint256)"
      },
      {
        "astId": 15041,
        "contract": "PandorasKey.sol:PandorasKey",
        "label": "_tokenApprovals",
        "offset": 0,
        "slot": "4",
        "type": "t_mapping(t_uint256,t_address)"
      },
      {
        "astId": 15047,
        "contract": "PandorasKey.sol:PandorasKey",
        "label": "_operatorApprovals",
        "offset": 0,
        "slot": "5",
        "type": "t_mapping(t_address,t_mapping(t_address,t_bool))"
      },
      {
        "astId": 14632,
        "contract": "PandorasKey.sol:PandorasKey",
        "label": "_owner",
        "offset": 0,
        "slot": "6",
        "type": "t_address"
      },
      {
        "astId": 14285,
        "contract": "PandorasKey.sol:PandorasKey",
        "label": "_roles",
        "offset": 0,
        "slot": "7",
        "type": "t_mapping(t_bytes32,t_struct(RoleData)14280_storage)"
      },
      {
        "astId": 14565,
        "contract": "PandorasKey.sol:PandorasKey",
        "label": "_status",
        "offset": 0,
        "slot": "8",
        "type": "t_uint256"
      },
      {
        "astId": 6274,
        "contract": "PandorasKey.sol:PandorasKey",
        "label": "maxPerWallet",
        "offset": 0,
        "slot": "9",
        "type": "t_uint256"
      },
      {
        "astId": 6276,
        "contract": "PandorasKey.sol:PandorasKey",
        "label": "_nextTokenId",
        "offset": 0,
        "slot": "10",
        "type": "t_uint256"
      },
      {
        "astId": 6280,
        "contract": "PandorasKey.sol:PandorasKey",
        "label": "payoutAddressOfHolder",
        "offset": 0,
        "slot": "11",
        "type": "t_mapping(t_address,t_address)"
      },
      {
        "astId": 6284,
        "contract": "PandorasKey.sol:PandorasKey",
        "label": "ethDepositsOfHolder",
        "offset": 0,
        "slot": "12",
        "type": "t_mapping(t_address,t_uint256)"
      },
      {
        "astId": 6290,
        "contract": "PandorasKey.sol:PandorasKey",
        "label": "erc20DepositsOfHolder",
        "offset": 0,
        "slot": "13",
        "type": "t_mapping(t_address,t_mapping(t_address,t_uint256))"
      }
    ],
    "types": {
      "t_address": {
        "encoding": "inplace",
        "label": "address",
        "numberOfBytes": "20"
      },
      "t_bool": {
        "encoding": "inplace",
        "label": "bool",
        "numberOfBytes": "1"
      },
      "t_bytes32": {
        "encoding": "inplace",
        "label": "bytes32",
        "numberOfBytes": "32"
      },
      "t_mapping(t_address,t_address)": {
        "encoding": "mapping",
        "key": "t_address",
        "label": "mapping(address => address)",
        "numberOfBytes": "32",
        "value": "t_address"
      },
      "t_mapping(t_address,t_bool)": {
        "encoding": "mapping",
        "key": "t_address",
        "label": "mapping(address => bool)",
        "numberOfBytes": "32",
        "value": "t_bool"
      },
      "t_mapping(t_address,t_mapping(t_address,t_bool))": {
        "encoding": "mapping",
        "key": "t_address",
        "label": "mapping(address => mapping(address => bool))",
        "numberOfBytes": "32",
        "value": "t_mapping(t_address,t_bool)"
      },
      "t_mapping(t_address,t_mapping(t_address,t_uint256))": {
        "encoding": "mapping",
        "key": "t_address",
        "label": "mapping(address => mapping(address => uint256))",
        "numberOfBytes": "32",
        "value": "t_mapping(t_address,t_uint256)"
      },
      "t_mapping(t_address,t_uint256)": {
        "encoding": "mapping",
        "key": "t_address",
        "label": "mapping(address => uint256)",
        "numberOfBytes": "32",
        "value": "t_uint256"
      },
      "t_mapping(t_bytes32,t_struct(RoleData)14280_storage)": {
        "encoding": "mapping",
        "key": "t_bytes32",
        "label": "mapping(bytes32 => struct AccessControl.RoleData)",
        "numberOfBytes": "32",
        "value": "t_struct(RoleData)14280_storage"
      },
      "t_mapping(t_uint256,t_address)": {
        "encoding": "mapping",
        "key": "t_uint256",
        "label": "mapping(uint256 => address)",
        "numberOfBytes": "32",
        "value": "t_address"
      },
      "t_string_storage": {
        "encoding": "bytes",
        "label": "string",
        "numberOfBytes": "32"
      },
      "t_struct(RoleData)14280_storage": {
        "encoding": "inplace",
        "label": "struct AccessControl.RoleData",
        "members": [
          {
            "astId": 14277,
            "contract": "PandorasKey.sol:PandorasKey",
            "label": "hasRole",
            "offset": 0,
            "slot": "0",
            "type": "t_mapping(t_address,t_bool)"
          },
          {
            "astId": 14279,
            "contract": "PandorasKey.sol:PandorasKey",
            "label": "adminRole",
            "offset": 0,
            "slot": "1",
            "type": "t_bytes32"
          }
        ],
        "numberOfBytes": "64"
      },
      "t_uint256": {
        "encoding": "inplace",
        "label": "uint256",
        "numberOfBytes": "32"
      }
    }
  },
  "userdoc": {
    "kind": "user",
    "methods": {},
    "version": 1
  }
}