{
  "abi": [
    {
      "inputs": [
        {
          "internalType": "address[]",
          "name": "initialAdmins",
          "type": "address[]"
        }
      ],
      "stateMutability": "nonpayable",
      "type": "constructor"
    },
    {
      "inputs": [],
      "name": "AccessControlBadConfirmation",
      "type": "error"
    },
    {
      "inputs": [
        {
          "internalType": "address",
          "name": "account",
          "type": "address"
        },
        {
          "internalType": "bytes32",
          "name": "neededRole",
          "type": "bytes32"
        }
      ],
      "name": "AccessControlUnauthorizedAccount",
      "type": "error"
    },
    {
      "inputs": [],
      "name": "ReentrancyGuardReentrantCall",
      "type": "error"
    },
    {
      "anonymous": false,
      "inputs": [
        {
          "indexed": true,
          "internalType": "address",
          "name": "user",
          "type": "address"
        },
        {
          "indexed": false,
          "internalType": "uint256",
          "name": "depositIndex",
          "type": "uint256"
        }
      ],
      "name": "AdminUnlockDeposit",
      "type": "event"
    },
    {
      "anonymous": false,
      "inputs": [
        {
          "indexed": true,
          "internalType": "address",
          "name": "admin",
          "type": "address"
        },
        {
          "indexed": false,
          "internalType": "uint256",
          "name": "amount",
          "type": "uint256"
        },
        {
          "indexed": false,
          "internalType": "uint256",
          "name": "when",
          "type": "uint256"
        }
      ],
      "name": "AdminUtilityInjection",
      "type": "event"
    },
    {
      "anonymous": false,
      "inputs": [
        {
          "indexed": true,
          "internalType": "address",
          "name": "admin",
          "type": "address"
        },
        {
          "indexed": true,
          "internalType": "address",
          "name": "to",
          "type": "address"
        },
        {
          "indexed": false,
          "internalType": "uint256",
          "name": "amount",
          "type": "uint256"
        },
        {
          "indexed": false,
          "internalType": "uint256",
          "name": "when",
          "type": "uint256"
        },
        {
          "indexed": false,
          "internalType": "string",
          "name": "reason",
          "type": "string"
        }
      ],
      "name": "AdminWithdraw",
      "type": "event"
    },
    {
      "anonymous": false,
      "inputs": [
        {
          "indexed": true,
          "internalType": "address",
          "name": "admin",
          "type": "address"
        },
        {
          "indexed": false,
          "internalType": "address[]",
          "name": "users",
          "type": "address[]"
        },
        {
          "indexed": false,
          "internalType": "uint256[][]",
          "name": "indices",
          "type": "uint256[][]"
        }
      ],
      "name": "BatchUnlock",
      "type": "event"
    },
    {
      "anonymous": false,
      "inputs": [
        {
          "indexed": true,
          "internalType": "address",
          "name": "user",
          "type": "address"
        },
        {
          "indexed": false,
          "internalType": "uint256[]",
          "name": "indices",
          "type": "uint256[]"
        },
        {
          "indexed": false,
          "internalType": "uint256",
          "name": "totalPrincipal",
          "type": "uint256"
        },
        {
          "indexed": false,
          "internalType": "uint256",
          "name": "totalUtility",
          "type": "uint256"
        },
        {
          "indexed": false,
          "internalType": "uint256",
          "name": "when",
          "type": "uint256"
        }
      ],
      "name": "BatchWithdraw",
      "type": "event"
    },
    {
      "anonymous": false,
      "inputs": [
        {
          "indexed": false,
          "internalType": "uint256",
          "name": "when",
          "type": "uint256"
        }
      ],
      "name": "GlobalLiquidationEnabled",
      "type": "event"
    },
    {
      "anonymous": false,
      "inputs": [
        {
          "indexed": false,
          "internalType": "bool",
          "name": "paused",
          "type": "bool"
        }
      ],
      "name": "PauseChanged",
      "type": "event"
    },
    {
      "anonymous": false,
      "inputs": [
        {
          "indexed": true,
          "internalType": "bytes32",
          "name": "role",
          "type": "bytes32"
        },
        {
          "indexed": true,
          "internalType": "bytes32",
          "name": "previousAdminRole",
          "type": "bytes32"
        },
        {
          "indexed": true,
          "internalType": "bytes32",
          "name": "newAdminRole",
          "type": "bytes32"
        }
      ],
      "name": "RoleAdminChanged",
      "type": "event"
    },
    {
      "anonymous": false,
      "inputs": [
        {
          "indexed": true,
          "internalType": "bytes32",
          "name": "role",
          "type": "bytes32"
        },
        {
          "indexed": true,
          "internalType": "address",
          "name": "account",
          "type": "address"
        },
        {
          "indexed": true,
          "internalType": "address",
          "name": "sender",
          "type": "address"
        }
      ],
      "name": "RoleGranted",
      "type": "event"
    },
    {
      "anonymous": false,
      "inputs": [
        {
          "indexed": true,
          "internalType": "bytes32",
          "name": "role",
          "type": "bytes32"
        },
        {
          "indexed": true,
          "internalType": "address",
          "name": "account",
          "type": "address"
        },
        {
          "indexed": true,
          "internalType": "address",
          "name": "sender",
          "type": "address"
        }
      ],
      "name": "RoleRevoked",
      "type": "event"
    },
    {
      "anonymous": false,
      "inputs": [
        {
          "indexed": true,
          "internalType": "address",
          "name": "user",
          "type": "address"
        },
        {
          "indexed": false,
          "internalType": "uint256",
          "name": "amount",
          "type": "uint256"
        },
        {
          "indexed": false,
          "internalType": "uint256",
          "name": "shares",
          "type": "uint256"
        },
        {
          "indexed": false,
          "internalType": "uint256",
          "name": "when",
          "type": "uint256"
        },
        {
          "indexed": false,
          "internalType": "uint256",
          "name": "depositIndex",
          "type": "uint256"
        }
      ],
      "name": "TimeLockedDeposit",
      "type": "event"
    },
    {
      "anonymous": false,
      "inputs": [
        {
          "indexed": true,
          "internalType": "address",
          "name": "user",
          "type": "address"
        },
        {
          "indexed": false,
          "internalType": "bool",
          "name": "status",
          "type": "bool"
        }
      ],
      "name": "UserWhitelisted",
      "type": "event"
    },
    {
      "anonymous": false,
      "inputs": [
        {
          "indexed": true,
          "internalType": "address",
          "name": "user",
          "type": "address"
        },
        {
          "indexed": false,
          "internalType": "uint256",
          "name": "amount",
          "type": "uint256"
        },
        {
          "indexed": false,
          "internalType": "uint256",
          "name": "utility",
          "type": "uint256"
        },
        {
          "indexed": false,
          "internalType": "uint256",
          "name": "shares",
          "type": "uint256"
        },
        {
          "indexed": false,
          "internalType": "uint256",
          "name": "when",
          "type": "uint256"
        },
        {
          "indexed": false,
          "internalType": "uint256",
          "name": "depositIndex",
          "type": "uint256"
        }
      ],
      "name": "Withdraw",
      "type": "event"
    },
    {
      "inputs": [],
      "name": "ADMIN_ROLE",
      "outputs": [
        {
          "internalType": "bytes32",
          "name": "",
          "type": "bytes32"
        }
      ],
      "stateMutability": "view",
      "type": "function"
    },
    {
      "inputs": [],
      "name": "DEFAULT_ADMIN_ROLE",
      "outputs": [
        {
          "internalType": "bytes32",
          "name": "",
          "type": "bytes32"
        }
      ],
      "stateMutability": "view",
      "type": "function"
    },
    {
      "inputs": [],
      "name": "LIQUIDATION_DEFAULT_DELAY",
      "outputs": [
        {
          "internalType": "uint256",
          "name": "",
          "type": "uint256"
        }
      ],
      "stateMutability": "view",
      "type": "function"
    },
    {
      "inputs": [],
      "name": "LOCKUP_PERIOD",
      "outputs": [
        {
          "internalType": "uint256",
          "name": "",
          "type": "uint256"
        }
      ],
      "stateMutability": "view",
      "type": "function"
    },
    {
      "inputs": [],
      "name": "PAUSER_ROLE",
      "outputs": [
        {
          "internalType": "bytes32",
          "name": "",
          "type": "bytes32"
        }
      ],
      "stateMutability": "view",
      "type": "function"
    },
    {
      "inputs": [],
      "name": "UNLOCKER_ROLE",
      "outputs": [
        {
          "internalType": "bytes32",
          "name": "",
          "type": "bytes32"
        }
      ],
      "stateMutability": "view",
      "type": "function"
    },
    {
      "inputs": [],
      "name": "UTILITY_INJECTOR_ROLE",
      "outputs": [
        {
          "internalType": "bytes32",
          "name": "",
          "type": "bytes32"
        }
      ],
      "stateMutability": "view",
      "type": "function"
    },
    {
      "inputs": [],
      "name": "WITHDRAWER_ROLE",
      "outputs": [
        {
          "internalType": "bytes32",
          "name": "",
          "type": "bytes32"
        }
      ],
      "stateMutability": "view",
      "type": "function"
    },
    {
      "inputs": [
        {
          "internalType": "address",
          "name": "to",
          "type": "address"
        }
      ],
      "name": "adminEmergencyWithdrawAll",
      "outputs": [],
      "stateMutability": "nonpayable",
      "type": "function"
    },
    {
      "inputs": [
        {
          "internalType": "address",
          "name": "to",
          "type": "address"
        },
        {
          "internalType": "uint256",
          "name": "amount",
          "type": "uint256"
        }
      ],
      "name": "adminWithdrawUtility",
      "outputs": [],
      "stateMutability": "nonpayable",
      "type": "function"
    },
    {
      "inputs": [
        {
          "internalType": "uint256",
          "name": "",
          "type": "uint256"
        }
      ],
      "name": "allUsers",
      "outputs": [
        {
          "internalType": "address",
          "name": "",
          "type": "address"
        }
      ],
      "stateMutability": "view",
      "type": "function"
    },
    {
      "inputs": [
        {
          "internalType": "address[]",
          "name": "users",
          "type": "address[]"
        },
        {
          "internalType": "uint256[][]",
          "name": "indices",
          "type": "uint256[][]"
        }
      ],
      "name": "batchUnlock",
      "outputs": [],
      "stateMutability": "nonpayable",
      "type": "function"
    },
    {
      "inputs": [
        {
          "internalType": "uint256[]",
          "name": "depositIndices",
          "type": "uint256[]"
        }
      ],
      "name": "batchWithdraw",
      "outputs": [],
      "stateMutability": "nonpayable",
      "type": "function"
    },
    {
      "inputs": [
        {
          "internalType": "address",
          "name": "receiver",
          "type": "address"
        }
      ],
      "name": "deposit",
      "outputs": [
        {
          "internalType": "uint256",
          "name": "shares",
          "type": "uint256"
        }
      ],
      "stateMutability": "payable",
      "type": "function"
    },
    {
      "inputs": [],
      "name": "enableGlobalLiquidation",
      "outputs": [],
      "stateMutability": "nonpayable",
      "type": "function"
    },
    {
      "inputs": [
        {
          "internalType": "uint256",
          "name": "start",
          "type": "uint256"
        },
        {
          "internalType": "uint256",
          "name": "limit",
          "type": "uint256"
        }
      ],
      "name": "getAllUsers",
      "outputs": [
        {
          "internalType": "address[]",
          "name": "users",
          "type": "address[]"
        }
      ],
      "stateMutability": "view",
      "type": "function"
    },
    {
      "inputs": [],
      "name": "getEarliestDepositTimestamp",
      "outputs": [
        {
          "internalType": "uint256",
          "name": "earliest",
          "type": "uint256"
        }
      ],
      "stateMutability": "view",
      "type": "function"
    },
    {
      "inputs": [
        {
          "internalType": "bytes32",
          "name": "role",
          "type": "bytes32"
        }
      ],
      "name": "getRoleAdmin",
      "outputs": [
        {
          "internalType": "bytes32",
          "name": "",
          "type": "bytes32"
        }
      ],
      "stateMutability": "view",
      "type": "function"
    },
    {
      "inputs": [
        {
          "internalType": "address",
          "name": "user",
          "type": "address"
        }
      ],
      "name": "getUnlockedDeposits",
      "outputs": [
        {
          "internalType": "uint256",
          "name": "unlockedAmount",
          "type": "uint256"
        },
        {
          "internalType": "uint256[]",
          "name": "unlockedIndexes",
          "type": "uint256[]"
        }
      ],
      "stateMutability": "view",
      "type": "function"
    },
    {
      "inputs": [
        {
          "internalType": "address",
          "name": "user",
          "type": "address"
        }
      ],
      "name": "getUserDepositInfo",
      "outputs": [
        {
          "internalType": "uint256[]",
          "name": "amounts",
          "type": "uint256[]"
        },
        {
          "internalType": "uint256[]",
          "name": "timestamps",
          "type": "uint256[]"
        },
        {
          "internalType": "bool[]",
          "name": "withdrawn",
          "type": "bool[]"
        },
        {
          "internalType": "bool[]",
          "name": "unlockedByAdmin",
          "type": "bool[]"
        },
        {
          "internalType": "bool[]",
          "name": "fullyRedeemable",
          "type": "bool[]"
        }
      ],
      "stateMutability": "view",
      "type": "function"
    },
    {
      "inputs": [],
      "name": "getUtilityPool",
      "outputs": [
        {
          "internalType": "uint256",
          "name": "util",
          "type": "uint256"
        }
      ],
      "stateMutability": "view",
      "type": "function"
    },
    {
      "inputs": [],
      "name": "globalLiquidationEnabled",
      "outputs": [
        {
          "internalType": "bool",
          "name": "",
          "type": "bool"
        }
      ],
      "stateMutability": "view",
      "type": "function"
    },
    {
      "inputs": [],
      "name": "globalLiquidationTimestamp",
      "outputs": [
        {
          "internalType": "uint256",
          "name": "",
          "type": "uint256"
        }
      ],
      "stateMutability": "view",
      "type": "function"
    },
    {
      "inputs": [
        {
          "internalType": "bytes32",
          "name": "role",
          "type": "bytes32"
        },
        {
          "internalType": "address",
          "name": "account",
          "type": "address"
        }
      ],
      "name": "grantRole",
      "outputs": [],
      "stateMutability": "nonpayable",
      "type": "function"
    },
    {
      "inputs": [
        {
          "internalType": "bytes32",
          "name": "role",
          "type": "bytes32"
        },
        {
          "internalType": "address",
          "name": "account",
          "type": "address"
        }
      ],
      "name": "hasRole",
      "outputs": [
        {
          "internalType": "bool",
          "name": "",
          "type": "bool"
        }
      ],
      "stateMutability": "view",
      "type": "function"
    },
    {
      "inputs": [],
      "name": "injectUtility",
      "outputs": [],
      "stateMutability": "payable",
      "type": "function"
    },
    {
      "inputs": [],
      "name": "isPoolFull",
      "outputs": [
        {
          "internalType": "bool",
          "name": "",
          "type": "bool"
        }
      ],
      "stateMutability": "view",
      "type": "function"
    },
    {
      "inputs": [
        {
          "internalType": "address",
          "name": "",
          "type": "address"
        }
      ],
      "name": "isWhitelisted",
      "outputs": [
        {
          "internalType": "bool",
          "name": "",
          "type": "bool"
        }
      ],
      "stateMutability": "view",
      "type": "function"
    },
    {
      "inputs": [],
      "name": "maxCap",
      "outputs": [
        {
          "internalType": "uint256",
          "name": "",
          "type": "uint256"
        }
      ],
      "stateMutability": "view",
      "type": "function"
    },
    {
      "inputs": [],
      "name": "paused",
      "outputs": [
        {
          "internalType": "bool",
          "name": "",
          "type": "bool"
        }
      ],
      "stateMutability": "view",
      "type": "function"
    },
    {
      "inputs": [],
      "name": "poolRoomLeft",
      "outputs": [
        {
          "internalType": "uint256",
          "name": "",
          "type": "uint256"
        }
      ],
      "stateMutability": "view",
      "type": "function"
    },
    {
      "inputs": [
        {
          "internalType": "bytes32",
          "name": "role",
          "type": "bytes32"
        },
        {
          "internalType": "address",
          "name": "callerConfirmation",
          "type": "address"
        }
      ],
      "name": "renounceRole",
      "outputs": [],
      "stateMutability": "nonpayable",
      "type": "function"
    },
    {
      "inputs": [
        {
          "internalType": "bytes32",
          "name": "role",
          "type": "bytes32"
        },
        {
          "internalType": "address",
          "name": "account",
          "type": "address"
        }
      ],
      "name": "revokeRole",
      "outputs": [],
      "stateMutability": "nonpayable",
      "type": "function"
    },
    {
      "inputs": [
        {
          "internalType": "bool",
          "name": "_paused",
          "type": "bool"
        }
      ],
      "name": "setPaused",
      "outputs": [],
      "stateMutability": "nonpayable",
      "type": "function"
    },
    {
      "inputs": [
        {
          "internalType": "address",
          "name": "user",
          "type": "address"
        },
        {
          "internalType": "bool",
          "name": "status",
          "type": "bool"
        }
      ],
      "name": "setWhitelist",
      "outputs": [],
      "stateMutability": "nonpayable",
      "type": "function"
    },
    {
      "inputs": [
        {
          "internalType": "address[]",
          "name": "users",
          "type": "address[]"
        },
        {
          "internalType": "bool[]",
          "name": "statuses",
          "type": "bool[]"
        }
      ],
      "name": "setWhitelistBatch",
      "outputs": [],
      "stateMutability": "nonpayable",
      "type": "function"
    },
    {
      "inputs": [
        {
          "internalType": "bool",
          "name": "enabled",
          "type": "bool"
        }
      ],
      "name": "setWhitelistEnabled",
      "outputs": [],
      "stateMutability": "nonpayable",
      "type": "function"
    },
    {
      "inputs": [
        {
          "internalType": "bytes4",
          "name": "interfaceId",
          "type": "bytes4"
        }
      ],
      "name": "supportsInterface",
      "outputs": [
        {
          "internalType": "bool",
          "name": "",
          "type": "bool"
        }
      ],
      "stateMutability": "view",
      "type": "function"
    },
    {
      "inputs": [],
      "name": "totalDeposited",
      "outputs": [
        {
          "internalType": "uint256",
          "name": "",
          "type": "uint256"
        }
      ],
      "stateMutability": "view",
      "type": "function"
    },
    {
      "inputs": [],
      "name": "totalShares",
      "outputs": [
        {
          "internalType": "uint256",
          "name": "",
          "type": "uint256"
        }
      ],
      "stateMutability": "view",
      "type": "function"
    },
    {
      "inputs": [],
      "name": "totalUtility",
      "outputs": [
        {
          "internalType": "uint256",
          "name": "",
          "type": "uint256"
        }
      ],
      "stateMutability": "view",
      "type": "function"
    },
    {
      "inputs": [
        {
          "internalType": "address",
          "name": "user",
          "type": "address"
        },
        {
          "internalType": "uint256[]",
          "name": "depositIndices",
          "type": "uint256[]"
        }
      ],
      "name": "unlockDepositsForUser",
      "outputs": [],
      "stateMutability": "nonpayable",
      "type": "function"
    },
    {
      "inputs": [
        {
          "internalType": "address",
          "name": "",
          "type": "address"
        },
        {
          "internalType": "uint256",
          "name": "",
          "type": "uint256"
        }
      ],
      "name": "userDeposits",
      "outputs": [
        {
          "internalType": "uint256",
          "name": "amount",
          "type": "uint256"
        },
        {
          "internalType": "uint256",
          "name": "timestamp",
          "type": "uint256"
        },
        {
          "internalType": "uint256",
          "name": "shares",
          "type": "uint256"
        },
        {
          "internalType": "bool",
          "name": "withdrawn",
          "type": "bool"
        },
        {
          "internalType": "bool",
          "name": "unlockedByAdmin",
          "type": "bool"
        },
        {
          "internalType": "bool",
          "name": "fullyRedeemable",
          "type": "bool"
        }
      ],
      "stateMutability": "view",
      "type": "function"
    },
    {
      "inputs": [],
      "name": "whitelistEnabled",
      "outputs": [
        {
          "internalType": "bool",
          "name": "",
          "type": "bool"
        }
      ],
      "stateMutability": "view",
      "type": "function"
    },
    {
      "inputs": [
        {
          "internalType": "uint256",
          "name": "depositIndex",
          "type": "uint256"
        }
      ],
      "name": "withdraw",
      "outputs": [],
      "stateMutability": "nonpayable",
      "type": "function"
    },
    {
      "stateMutability": "payable",
      "type": "receive"
    }
  ],
  "devdoc": {
    "details": "Safe batch withdraw, circuit breaker, whitelists, utility pool y acceso granulado vía OpenZeppelin AccessControl.",
    "errors": {
      "AccessControlBadConfirmation()": [
        {
          "details": "The caller of a function is not the expected one. NOTE: Don't confuse with {AccessControlUnauthorizedAccount}."
        }
      ],
      "AccessControlUnauthorizedAccount(address,bytes32)": [
        {
          "details": "The `account` is missing a role."
        }
      ],
      "ReentrancyGuardReentrantCall()": [
        {
          "details": "Unauthorized reentrant call."
        }
      ]
    },
    "events": {
      "RoleAdminChanged(bytes32,bytes32,bytes32)": {
        "details": "Emitted when `newAdminRole` is set as ``role``'s admin role, replacing `previousAdminRole` `DEFAULT_ADMIN_ROLE` is the starting admin for all roles, despite {RoleAdminChanged} not being emitted to signal this."
      },
      "RoleGranted(bytes32,address,address)": {
        "details": "Emitted when `account` is granted `role`. `sender` is the account that originated the contract call. This account bears the admin role (for the granted role). Expected in cases where the role was granted using the internal {AccessControl-_grantRole}."
      },
      "RoleRevoked(bytes32,address,address)": {
        "details": "Emitted when `account` is revoked `role`. `sender` is the account that originated the contract call:   - if using `revokeRole`, it is the admin role bearer   - if using `renounceRole`, it is the role bearer (i.e. `account`)"
      }
    },
    "kind": "dev",
    "methods": {
      "getRoleAdmin(bytes32)": {
        "details": "Returns the admin role that controls `role`. See {grantRole} and {revokeRole}. To change a role's admin, use {_setRoleAdmin}."
      },
      "grantRole(bytes32,address)": {
        "details": "Grants `role` to `account`. If `account` had not been already granted `role`, emits a {RoleGranted} event. Requirements: - the caller must have ``role``'s admin role. May emit a {RoleGranted} event."
      },
      "hasRole(bytes32,address)": {
        "details": "Returns `true` if `account` has been granted `role`."
      },
      "renounceRole(bytes32,address)": {
        "details": "Revokes `role` from the calling account. Roles are often managed via {grantRole} and {revokeRole}: this function's purpose is to provide a mechanism for accounts to lose their privileges if they are compromised (such as when a trusted device is misplaced). If the calling account had been revoked `role`, emits a {RoleRevoked} event. Requirements: - the caller must be `callerConfirmation`. May emit a {RoleRevoked} event."
      },
      "revokeRole(bytes32,address)": {
        "details": "Revokes `role` from `account`. If `account` had been granted `role`, emits a {RoleRevoked} event. Requirements: - the caller must have ``role``'s admin role. May emit a {RoleRevoked} event."
      },
      "supportsInterface(bytes4)": {
        "details": "See {IERC165-supportsInterface}."
      }
    },
    "title": "TimeLockedEthInvestmentVault",
    "version": 1
  },
  "evm": {
    "assembly": "    /* \"FlattenedVault.sol\":15844:28546  contract TimeLockedEthInvestmentVault is AccessControl, ReentrancyGuard {... */\n  mstore(0x40, 0x80)\n    /* \"FlattenedVault.sol\":18068:18542  constructor(address[] memory initialAdmins) {... */\n  callvalue\n  dup1\n  iszero\n  tag_1\n  jumpi\n  0x00\n  dup1\n  revert\ntag_1:\n  pop\n  mload(0x40)\n  sub(codesize, bytecodeSize)\n  dup1\n  bytecodeSize\n  dup4\n  codecopy\n  dup2\n  add\n  0x40\n  dup2\n  swap1\n  mstore\n  tag_2\n  swap2\n  tag_3\n  jump\t// in\ntag_2:\n    /* \"FlattenedVault.sol\":14051:14052  1 */\n  0x01\n    /* \"FlattenedVault.sol\":14255:14276  _status = NOT_ENTERED */\n  dup1\n  sstore\n    /* \"FlattenedVault.sol\":18127:18136  uint256 i */\n  0x00\n    /* \"FlattenedVault.sol\":18122:18536  for (uint256 i = 0; i < initialAdmins.length; i++) {... */\ntag_8:\n    /* \"FlattenedVault.sol\":18146:18159  initialAdmins */\n  dup2\n    /* \"FlattenedVault.sol\":18146:18166  initialAdmins.length */\n  mload\n    /* \"FlattenedVault.sol\":18142:18143  i */\n  dup2\n    /* \"FlattenedVault.sol\":18142:18166  i < initialAdmins.length */\n  lt\n    /* \"FlattenedVault.sol\":18122:18536  for (uint256 i = 0; i < initialAdmins.length; i++) {... */\n  iszero\n  tag_9\n  jumpi\n    /* \"FlattenedVault.sol\":18187:18235  _grantRole(DEFAULT_ADMIN_ROLE, initialAdmins[i]) */\n  tag_11\n    /* \"FlattenedVault.sol\":7508:7512  0x00 */\n  0x00\n    /* \"FlattenedVault.sol\":18198:18216  DEFAULT_ADMIN_ROLE */\n  dup1\n  shl\n    /* \"FlattenedVault.sol\":18218:18231  initialAdmins */\n  dup4\n    /* \"FlattenedVault.sol\":18232:18233  i */\n  dup4\n    /* \"FlattenedVault.sol\":18218:18234  initialAdmins[i] */\n  dup2\n  mload\n  dup2\n  lt\n  tag_13\n  jumpi\n  tag_13\n  tag_14\n  jump\t// in\ntag_13:\n  0x20\n  mul\n  0x20\n  add\n  add\n  mload\n    /* \"FlattenedVault.sol\":18187:18197  _grantRole */\n  shl(0x20, tag_15)\n    /* \"FlattenedVault.sol\":18187:18235  _grantRole(DEFAULT_ADMIN_ROLE, initialAdmins[i]) */\n  0x20\n  shr\n  jump\t// in\ntag_11:\n  pop\n    /* \"FlattenedVault.sol\":18249:18289  _grantRole(ADMIN_ROLE, initialAdmins[i]) */\n  tag_16\n    /* \"FlattenedVault.sol\":16382:16405  keccak256(\"ADMIN_ROLE\") */\n  0xa49807205ce4d355092ef5a8a18f56e8913cf4a201fbe287825b095693c21775\n    /* \"FlattenedVault.sol\":18272:18285  initialAdmins */\n  dup4\n    /* \"FlattenedVault.sol\":18286:18287  i */\n  dup4\n    /* \"FlattenedVault.sol\":18272:18288  initialAdmins[i] */\n  dup2\n  mload\n  dup2\n  lt\n  tag_13\n  jumpi\n  tag_13\n  tag_14\n  jump\t// in\n    /* \"FlattenedVault.sol\":18249:18289  _grantRole(ADMIN_ROLE, initialAdmins[i]) */\ntag_16:\n  pop\n    /* \"FlattenedVault.sol\":18303:18344  _grantRole(PAUSER_ROLE, initialAdmins[i]) */\n  tag_19\n    /* \"FlattenedVault.sol\":16449:16473  keccak256(\"PAUSER_ROLE\") */\n  0x65d7a28e3265b37a6474929f336521b332c1681b933f6cb9f3376673440d862a\n    /* \"FlattenedVault.sol\":18327:18340  initialAdmins */\n  dup4\n    /* \"FlattenedVault.sol\":18341:18342  i */\n  dup4\n    /* \"FlattenedVault.sol\":18327:18343  initialAdmins[i] */\n  dup2\n  mload\n  dup2\n  lt\n  tag_13\n  jumpi\n  tag_13\n  tag_14\n  jump\t// in\n    /* \"FlattenedVault.sol\":18303:18344  _grantRole(PAUSER_ROLE, initialAdmins[i]) */\ntag_19:\n  pop\n    /* \"FlattenedVault.sol\":18358:18401  _grantRole(UNLOCKER_ROLE, initialAdmins[i]) */\n  tag_22\n    /* \"FlattenedVault.sol\":16519:16545  keccak256(\"UNLOCKER_ROLE\") */\n  0xc806897caf4fd5068191157e44d3988e43139a37e0b97b6793e1ed1184140604\n    /* \"FlattenedVault.sol\":18384:18397  initialAdmins */\n  dup4\n    /* \"FlattenedVault.sol\":18398:18399  i */\n  dup4\n    /* \"FlattenedVault.sol\":18384:18400  initialAdmins[i] */\n  dup2\n  mload\n  dup2\n  lt\n  tag_13\n  jumpi\n  tag_13\n  tag_14\n  jump\t// in\n    /* \"FlattenedVault.sol\":18358:18401  _grantRole(UNLOCKER_ROLE, initialAdmins[i]) */\ntag_22:\n  pop\n    /* \"FlattenedVault.sol\":18415:18466  _grantRole(UTILITY_INJECTOR_ROLE, initialAdmins[i]) */\n  tag_25\n    /* \"FlattenedVault.sol\":16599:16633  keccak256(\"UTILITY_INJECTOR_ROLE\") */\n  0xf60566c40710959d8d30b6067ce3c53c757bec78eecb0e46b83c7f8194ffae37\n    /* \"FlattenedVault.sol\":18449:18462  initialAdmins */\n  dup4\n    /* \"FlattenedVault.sol\":18463:18464  i */\n  dup4\n    /* \"FlattenedVault.sol\":18449:18465  initialAdmins[i] */\n  dup2\n  mload\n  dup2\n  lt\n  tag_13\n  jumpi\n  tag_13\n  tag_14\n  jump\t// in\n    /* \"FlattenedVault.sol\":18415:18466  _grantRole(UTILITY_INJECTOR_ROLE, initialAdmins[i]) */\ntag_25:\n  pop\n    /* \"FlattenedVault.sol\":18480:18525  _grantRole(WITHDRAWER_ROLE, initialAdmins[i]) */\n  tag_28\n    /* \"FlattenedVault.sol\":16681:16709  keccak256(\"WITHDRAWER_ROLE\") */\n  0x10dac8c06a04bec0b551627dad28bc00d6516b0caacd1c7b345fcdb5211334e4\n    /* \"FlattenedVault.sol\":18508:18521  initialAdmins */\n  dup4\n    /* \"FlattenedVault.sol\":18522:18523  i */\n  dup4\n    /* \"FlattenedVault.sol\":18508:18524  initialAdmins[i] */\n  dup2\n  mload\n  dup2\n  lt\n  tag_13\n  jumpi\n  tag_13\n  tag_14\n  jump\t// in\n    /* \"FlattenedVault.sol\":18480:18525  _grantRole(WITHDRAWER_ROLE, initialAdmins[i]) */\ntag_28:\n  pop\n    /* \"FlattenedVault.sol\":18168:18171  i++ */\n  0x01\n  add\n    /* \"FlattenedVault.sol\":18122:18536  for (uint256 i = 0; i < initialAdmins.length; i++) {... */\n  jump(tag_8)\ntag_9:\n  pop\n    /* \"FlattenedVault.sol\":18068:18542  constructor(address[] memory initialAdmins) {... */\n  pop\n    /* \"FlattenedVault.sol\":15844:28546  contract TimeLockedEthInvestmentVault is AccessControl, ReentrancyGuard {... */\n  jump(tag_43)\n    /* \"FlattenedVault.sol\":11455:11771  function _grantRole(bytes32 role, address account) internal virtual returns (bool) {... */\ntag_15:\n    /* \"FlattenedVault.sol\":11532:11536  bool */\n  0x00\n    /* \"FlattenedVault.sol\":8230:8242  _roles[role] */\n  dup3\n  dup2\n  mstore\n  0x20\n  dup2\n  dup2\n  mstore\n  0x40\n  dup1\n  dup4\n  keccak256\n  sub(shl(0xa0, 0x01), 0x01)\n    /* \"FlattenedVault.sol\":8230:8259  _roles[role].hasRole[account] */\n  dup6\n  and\n  dup5\n  mstore\n  swap1\n  swap2\n  mstore\n  dup2\n  keccak256\n  sload\n  0xff\n  and\n    /* \"FlattenedVault.sol\":11548:11765  if (!hasRole(role, account)) {... */\n  tag_35\n  jumpi\n    /* \"FlattenedVault.sol\":11591:11597  _roles */\n  0x00\n    /* \"FlattenedVault.sol\":11591:11603  _roles[role] */\n  dup4\n  dup2\n  mstore\n  0x20\n  dup2\n  dup2\n  mstore\n  0x40\n  dup1\n  dup4\n  keccak256\n  sub(shl(0xa0, 0x01), 0x01)\n    /* \"FlattenedVault.sol\":11591:11620  _roles[role].hasRole[account] */\n  dup7\n  and\n  dup5\n  mstore\n  swap1\n  swap2\n  mstore\n  swap1\n  keccak256\n    /* \"FlattenedVault.sol\":11591:11627  _roles[role].hasRole[account] = true */\n  dup1\n  sload\n  not(0xff)\n  and\n    /* \"FlattenedVault.sol\":11623:11627  true */\n  0x01\n    /* \"FlattenedVault.sol\":11591:11627  _roles[role].hasRole[account] = true */\n  or\n  swap1\n  sstore\n    /* \"FlattenedVault.sol\":11673:11685  _msgSender() */\n  tag_36\n    /* \"FlattenedVault.sol\":3875:3885  msg.sender */\n  caller\n  swap1\n    /* \"FlattenedVault.sol\":3796:3892  function _msgSender() internal view virtual returns (address) {... */\n  jump\n    /* \"FlattenedVault.sol\":11673:11685  _msgSender() */\ntag_36:\n  sub(shl(0xa0, 0x01), 0x01)\n    /* \"FlattenedVault.sol\":11646:11686  RoleGranted(role, account, _msgSender()) */\n  and\n    /* \"FlattenedVault.sol\":11664:11671  account */\n  dup3\n  sub(shl(0xa0, 0x01), 0x01)\n    /* \"FlattenedVault.sol\":11646:11686  RoleGranted(role, account, _msgSender()) */\n  and\n    /* \"FlattenedVault.sol\":11658:11662  role */\n  dup5\n    /* \"FlattenedVault.sol\":11646:11686  RoleGranted(role, account, _msgSender()) */\n  0x2f8788117e7eff1d82e926ec794901d17c78024a50270940304540a733656f0d\n  mload(0x40)\n  mload(0x40)\n  dup1\n  swap2\n  sub\n  swap1\n  log4\n  pop\n    /* \"FlattenedVault.sol\":11707:11711  true */\n  0x01\n    /* \"FlattenedVault.sol\":11700:11711  return true */\n  jump(tag_38)\n    /* \"FlattenedVault.sol\":11548:11765  if (!hasRole(role, account)) {... */\ntag_35:\n  pop\n    /* \"FlattenedVault.sol\":11749:11754  false */\n  0x00\n    /* \"FlattenedVault.sol\":11548:11765  if (!hasRole(role, account)) {... */\ntag_38:\n    /* \"FlattenedVault.sol\":11455:11771  function _grantRole(bytes32 role, address account) internal virtual returns (bool) {... */\n  swap3\n  swap2\n  pop\n  pop\n  jump\t// out\n    /* \"#utility.yul\":14:141   */\ntag_41:\n    /* \"#utility.yul\":75:85   */\n  0x4e487b71\n    /* \"#utility.yul\":70:73   */\n  0xe0\n    /* \"#utility.yul\":66:86   */\n  shl\n    /* \"#utility.yul\":63:64   */\n  0x00\n    /* \"#utility.yul\":56:87   */\n  mstore\n    /* \"#utility.yul\":106:110   */\n  0x41\n    /* \"#utility.yul\":103:104   */\n  0x04\n    /* \"#utility.yul\":96:111   */\n  mstore\n    /* \"#utility.yul\":130:134   */\n  0x24\n    /* \"#utility.yul\":127:128   */\n  0x00\n    /* \"#utility.yul\":120:135   */\n  revert\n    /* \"#utility.yul\":146:323   */\ntag_42:\n    /* \"#utility.yul\":225:238   */\n  dup1\n  mload\n  sub(shl(0xa0, 0x01), 0x01)\n    /* \"#utility.yul\":267:298   */\n  dup2\n  and\n    /* \"#utility.yul\":257:299   */\n  dup2\n  eq\n    /* \"#utility.yul\":247:317   */\n  tag_46\n  jumpi\n    /* \"#utility.yul\":313:314   */\n  0x00\n    /* \"#utility.yul\":310:311   */\n  dup1\n    /* \"#utility.yul\":303:315   */\n  revert\n    /* \"#utility.yul\":247:317   */\ntag_46:\n    /* \"#utility.yul\":146:323   */\n  swap2\n  swap1\n  pop\n  jump\t// out\n    /* \"#utility.yul\":328:1457   */\ntag_3:\n    /* \"#utility.yul\":423:429   */\n  0x00\n    /* \"#utility.yul\":454:456   */\n  0x20\n    /* \"#utility.yul\":497:499   */\n  dup1\n    /* \"#utility.yul\":485:494   */\n  dup4\n    /* \"#utility.yul\":476:483   */\n  dup6\n    /* \"#utility.yul\":472:495   */\n  sub\n    /* \"#utility.yul\":468:500   */\n  slt\n    /* \"#utility.yul\":465:517   */\n  iszero\n  tag_48\n  jumpi\n    /* \"#utility.yul\":513:514   */\n  0x00\n    /* \"#utility.yul\":510:511   */\n  dup1\n    /* \"#utility.yul\":503:515   */\n  revert\n    /* \"#utility.yul\":465:517   */\ntag_48:\n    /* \"#utility.yul\":540:556   */\n  dup3\n  mload\n  sub(shl(0x40, 0x01), 0x01)\n    /* \"#utility.yul\":605:619   */\n  dup1\n  dup3\n  gt\n    /* \"#utility.yul\":602:636   */\n  iszero\n  tag_49\n  jumpi\n    /* \"#utility.yul\":632:633   */\n  0x00\n    /* \"#utility.yul\":629:630   */\n  dup1\n    /* \"#utility.yul\":622:634   */\n  revert\n    /* \"#utility.yul\":602:636   */\ntag_49:\n    /* \"#utility.yul\":670:676   */\n  dup2\n    /* \"#utility.yul\":659:668   */\n  dup6\n    /* \"#utility.yul\":655:677   */\n  add\n    /* \"#utility.yul\":645:677   */\n  swap2\n  pop\n    /* \"#utility.yul\":715:722   */\n  dup6\n    /* \"#utility.yul\":708:712   */\n  0x1f\n    /* \"#utility.yul\":704:706   */\n  dup4\n    /* \"#utility.yul\":700:713   */\n  add\n    /* \"#utility.yul\":696:723   */\n  slt\n    /* \"#utility.yul\":686:741   */\n  tag_50\n  jumpi\n    /* \"#utility.yul\":737:738   */\n  0x00\n    /* \"#utility.yul\":734:735   */\n  dup1\n    /* \"#utility.yul\":727:739   */\n  revert\n    /* \"#utility.yul\":686:741   */\ntag_50:\n    /* \"#utility.yul\":766:768   */\n  dup2\n    /* \"#utility.yul\":760:769   */\n  mload\n    /* \"#utility.yul\":788:790   */\n  dup2\n    /* \"#utility.yul\":784:786   */\n  dup2\n    /* \"#utility.yul\":781:791   */\n  gt\n    /* \"#utility.yul\":778:814   */\n  iszero\n  tag_52\n  jumpi\n    /* \"#utility.yul\":794:812   */\n  tag_52\n  tag_41\n  jump\t// in\ntag_52:\n    /* \"#utility.yul\":840:842   */\n  dup1\n    /* \"#utility.yul\":837:838   */\n  0x05\n    /* \"#utility.yul\":833:843   */\n  shl\n    /* \"#utility.yul\":872:874   */\n  0x40\n    /* \"#utility.yul\":866:875   */\n  mload\n    /* \"#utility.yul\":935:937   */\n  0x1f\n    /* \"#utility.yul\":931:938   */\n  not\n    /* \"#utility.yul\":926:928   */\n  0x3f\n    /* \"#utility.yul\":922:924   */\n  dup4\n    /* \"#utility.yul\":918:929   */\n  add\n    /* \"#utility.yul\":914:939   */\n  and\n    /* \"#utility.yul\":906:912   */\n  dup2\n    /* \"#utility.yul\":902:940   */\n  add\n    /* \"#utility.yul\":990:996   */\n  dup2\n    /* \"#utility.yul\":978:988   */\n  dup2\n    /* \"#utility.yul\":975:997   */\n  lt\n    /* \"#utility.yul\":970:972   */\n  dup6\n    /* \"#utility.yul\":958:968   */\n  dup3\n    /* \"#utility.yul\":955:973   */\n  gt\n    /* \"#utility.yul\":952:998   */\n  or\n    /* \"#utility.yul\":949:1021   */\n  iszero\n  tag_54\n  jumpi\n    /* \"#utility.yul\":1001:1019   */\n  tag_54\n  tag_41\n  jump\t// in\ntag_54:\n    /* \"#utility.yul\":1037:1039   */\n  0x40\n    /* \"#utility.yul\":1030:1052   */\n  mstore\n    /* \"#utility.yul\":1087:1105   */\n  swap2\n  dup3\n  mstore\n    /* \"#utility.yul\":1121:1136   */\n  dup5\n  dup3\n  add\n  swap3\n  pop\n    /* \"#utility.yul\":1163:1174   */\n  dup4\n  dup2\n  add\n    /* \"#utility.yul\":1159:1179   */\n  dup6\n  add\n  swap2\n    /* \"#utility.yul\":1191:1210   */\n  dup9\n  dup4\n  gt\n    /* \"#utility.yul\":1188:1227   */\n  iszero\n  tag_55\n  jumpi\n    /* \"#utility.yul\":1223:1224   */\n  0x00\n    /* \"#utility.yul\":1220:1221   */\n  dup1\n    /* \"#utility.yul\":1213:1225   */\n  revert\n    /* \"#utility.yul\":1188:1227   */\ntag_55:\n    /* \"#utility.yul\":1247:1258   */\n  swap4\n  dup6\n  add\n  swap4\n    /* \"#utility.yul\":1267:1426   */\ntag_56:\n    /* \"#utility.yul\":1283:1289   */\n  dup3\n    /* \"#utility.yul\":1278:1281   */\n  dup6\n    /* \"#utility.yul\":1275:1290   */\n  lt\n    /* \"#utility.yul\":1267:1426   */\n  iszero\n  tag_58\n  jumpi\n    /* \"#utility.yul\":1349:1383   */\n  tag_59\n    /* \"#utility.yul\":1379:1382   */\n  dup6\n    /* \"#utility.yul\":1349:1383   */\n  tag_42\n  jump\t// in\ntag_59:\n    /* \"#utility.yul\":1337:1384   */\n  dup5\n  mstore\n    /* \"#utility.yul\":1300:1312   */\n  swap4\n  dup6\n  add\n  swap4\n    /* \"#utility.yul\":1404:1416   */\n  swap3\n  dup6\n  add\n  swap3\n    /* \"#utility.yul\":1267:1426   */\n  jump(tag_56)\ntag_58:\n    /* \"#utility.yul\":1445:1451   */\n  swap9\n    /* \"#utility.yul\":328:1457   */\n  swap8\n  pop\n  pop\n  pop\n  pop\n  pop\n  pop\n  pop\n  pop\n  jump\t// out\n    /* \"#utility.yul\":1462:1589   */\ntag_14:\n    /* \"#utility.yul\":1523:1533   */\n  0x4e487b71\n    /* \"#utility.yul\":1518:1521   */\n  0xe0\n    /* \"#utility.yul\":1514:1534   */\n  shl\n    /* \"#utility.yul\":1511:1512   */\n  0x00\n    /* \"#utility.yul\":1504:1535   */\n  mstore\n    /* \"#utility.yul\":1554:1558   */\n  0x32\n    /* \"#utility.yul\":1551:1552   */\n  0x04\n    /* \"#utility.yul\":1544:1559   */\n  mstore\n    /* \"#utility.yul\":1578:1582   */\n  0x24\n    /* \"#utility.yul\":1575:1576   */\n  0x00\n    /* \"#utility.yul\":1568:1583   */\n  revert\n    /* \"#utility.yul\":1462:1589   */\ntag_43:\n    /* \"FlattenedVault.sol\":15844:28546  contract TimeLockedEthInvestmentVault is AccessControl, ReentrancyGuard {... */\n  dataSize(sub_0)\n  dup1\n  dataOffset(sub_0)\n  0x00\n  codecopy\n  0x00\n  return\nstop\n\nsub_0: assembly {\n        /* \"FlattenedVault.sol\":15844:28546  contract TimeLockedEthInvestmentVault is AccessControl, ReentrancyGuard {... */\n      mstore(0x40, 0x80)\n      jumpi(tag_1, lt(calldatasize, 0x04))\n      shr(0xe0, calldataload(0x00))\n      dup1\n      0x5c975abb\n      gt\n      tag_48\n      jumpi\n      dup1\n      0xa217fddf\n      gt\n      tag_49\n      jumpi\n      dup1\n      0xe63ab1e9\n      gt\n      tag_50\n      jumpi\n      dup1\n      0xf340fa01\n      gt\n      tag_51\n      jumpi\n      dup1\n      0xf340fa01\n      eq\n      tag_45\n      jumpi\n      dup1\n      0xfdfbe0c8\n      eq\n      tag_46\n      jumpi\n      dup1\n      0xff50abdc\n      eq\n      tag_47\n      jumpi\n      0x00\n      dup1\n      revert\n    tag_51:\n      dup1\n      0xe63ab1e9\n      eq\n      tag_42\n      jumpi\n      dup1\n      0xebfa7c46\n      eq\n      tag_43\n      jumpi\n      dup1\n      0xec16d076\n      eq\n      tag_44\n      jumpi\n      0x00\n      dup1\n      revert\n    tag_50:\n      dup1\n      0xd547741f\n      gt\n      tag_52\n      jumpi\n      dup1\n      0xd547741f\n      eq\n      tag_39\n      jumpi\n      dup1\n      0xda8d5add\n      eq\n      tag_40\n      jumpi\n      dup1\n      0xe043b2b2\n      eq\n      tag_41\n      jumpi\n      0x00\n      dup1\n      revert\n    tag_52:\n      dup1\n      0xa217fddf\n      eq\n      tag_36\n      jumpi\n      dup1\n      0xa2bdedf4\n      eq\n      tag_37\n      jumpi\n      dup1\n      0xb3a7834d\n      eq\n      tag_38\n      jumpi\n      0x00\n      dup1\n      revert\n    tag_49:\n      dup1\n      0x85f438c1\n      gt\n      tag_53\n      jumpi\n      dup1\n      0x91d14854\n      gt\n      tag_54\n      jumpi\n      dup1\n      0x91d14854\n      eq\n      tag_33\n      jumpi\n      dup1\n      0x97f6ad87\n      eq\n      tag_34\n      jumpi\n      dup1\n      0x9a038b46\n      eq\n      tag_35\n      jumpi\n      0x00\n      dup1\n      revert\n    tag_54:\n      dup1\n      0x85f438c1\n      eq\n      tag_30\n      jumpi\n      dup1\n      0x867d099a\n      eq\n      tag_31\n      jumpi\n      dup1\n      0x8e957748\n      eq\n      tag_32\n      jumpi\n      0x00\n      dup1\n      revert\n    tag_53:\n      dup1\n      0x6eb80c1d\n      gt\n      tag_55\n      jumpi\n      dup1\n      0x6eb80c1d\n      eq\n      tag_27\n      jumpi\n      dup1\n      0x72e55399\n      eq\n      tag_28\n      jumpi\n      dup1\n      0x75b238fc\n      eq\n      tag_29\n      jumpi\n      0x00\n      dup1\n      revert\n    tag_55:\n      dup1\n      0x5c975abb\n      eq\n      tag_25\n      jumpi\n      dup1\n      0x5e0cde10\n      eq\n      tag_26\n      jumpi\n      0x00\n      dup1\n      revert\n    tag_48:\n      dup1\n      0x2f2ff15d\n      gt\n      tag_56\n      jumpi\n      dup1\n      0x462d6c3d\n      gt\n      tag_57\n      jumpi\n      dup1\n      0x51fb012d\n      gt\n      tag_58\n      jumpi\n      dup1\n      0x51fb012d\n      eq\n      tag_22\n      jumpi\n      dup1\n      0x53d6fd59\n      eq\n      tag_23\n      jumpi\n      dup1\n      0x588583a0\n      eq\n      tag_24\n      jumpi\n      0x00\n      dup1\n      revert\n    tag_58:\n      dup1\n      0x462d6c3d\n      eq\n      tag_19\n      jumpi\n      dup1\n      0x47af19aa\n      eq\n      tag_20\n      jumpi\n      dup1\n      0x4ff113e9\n      eq\n      tag_21\n      jumpi\n      0x00\n      dup1\n      revert\n    tag_57:\n      dup1\n      0x36568abe\n      gt\n      tag_59\n      jumpi\n      dup1\n      0x36568abe\n      eq\n      tag_16\n      jumpi\n      dup1\n      0x3a98ef39\n      eq\n      tag_17\n      jumpi\n      dup1\n      0x3af32abf\n      eq\n      tag_18\n      jumpi\n      0x00\n      dup1\n      revert\n    tag_59:\n      dup1\n      0x2f2ff15d\n      eq\n      tag_14\n      jumpi\n      dup1\n      0x3098924b\n      eq\n      tag_15\n      jumpi\n      0x00\n      dup1\n      revert\n    tag_56:\n      dup1\n      0x16c38b3c\n      gt\n      tag_60\n      jumpi\n      dup1\n      0x246d47b7\n      gt\n      tag_61\n      jumpi\n      dup1\n      0x246d47b7\n      eq\n      tag_11\n      jumpi\n      dup1\n      0x248a9ca3\n      eq\n      tag_12\n      jumpi\n      dup1\n      0x2e1a7d4d\n      eq\n      tag_13\n      jumpi\n      0x00\n      dup1\n      revert\n    tag_61:\n      dup1\n      0x16c38b3c\n      eq\n      tag_8\n      jumpi\n      dup1\n      0x20bc73f4\n      eq\n      tag_9\n      jumpi\n      dup1\n      0x23548b8b\n      eq\n      tag_10\n      jumpi\n      0x00\n      dup1\n      revert\n    tag_60:\n      dup1\n      0x08f43333\n      gt\n      tag_62\n      jumpi\n      dup1\n      0x08f43333\n      eq\n      tag_5\n      jumpi\n      dup1\n      0x093c87f3\n      eq\n      tag_6\n      jumpi\n      dup1\n      0x0c016ad5\n      eq\n      tag_7\n      jumpi\n      0x00\n      dup1\n      revert\n    tag_62:\n      dup1\n      0x01ffc9a7\n      eq\n      tag_3\n      jumpi\n      dup1\n      0x052d9e7e\n      eq\n      tag_4\n      jumpi\n      0x00\n      dup1\n      revert\n    tag_1:\n      jumpi(tag_2, calldatasize)\n        /* \"FlattenedVault.sol\":28162:28190  revert(\"Use deposit/inject\") */\n      mload(0x40)\n      shl(0xe5, 0x461bcd)\n      dup2\n      mstore\n        /* \"#utility.yul\":216:218   */\n      0x20\n        /* \"FlattenedVault.sol\":28162:28190  revert(\"Use deposit/inject\") */\n      0x04\n      dup3\n      add\n        /* \"#utility.yul\":198:219   */\n      mstore\n        /* \"#utility.yul\":255:257   */\n      0x12\n        /* \"#utility.yul\":235:253   */\n      0x24\n      dup3\n      add\n        /* \"#utility.yul\":228:258   */\n      mstore\n        /* \"#utility.yul\":294:314   */\n      0x557365206465706f7369742f696e6a6563740000000000000000000000000000\n        /* \"#utility.yul\":274:292   */\n      0x44\n      dup3\n      add\n        /* \"#utility.yul\":267:315   */\n      mstore\n        /* \"#utility.yul\":332:350   */\n      0x64\n      add\n        /* \"FlattenedVault.sol\":28162:28190  revert(\"Use deposit/inject\") */\n    tag_65:\n      mload(0x40)\n      dup1\n      swap2\n      sub\n      swap1\n      revert\n        /* \"FlattenedVault.sol\":15844:28546  contract TimeLockedEthInvestmentVault is AccessControl, ReentrancyGuard {... */\n    tag_2:\n      0x00\n      dup1\n      revert\n        /* \"FlattenedVault.sol\":7841:8043  function supportsInterface(bytes4 interfaceId) public view virtual override returns (bool) {... */\n    tag_3:\n      callvalue\n      dup1\n      iszero\n      tag_67\n      jumpi\n      0x00\n      dup1\n      revert\n    tag_67:\n      pop\n      tag_68\n      tag_69\n      calldatasize\n      0x04\n      tag_70\n      jump\t// in\n    tag_69:\n      tag_71\n      jump\t// in\n    tag_68:\n      mload(0x40)\n        /* \"#utility.yul\":817:831   */\n      swap1\n      iszero\n        /* \"#utility.yul\":810:832   */\n      iszero\n        /* \"#utility.yul\":792:833   */\n      dup2\n      mstore\n        /* \"#utility.yul\":780:782   */\n      0x20\n        /* \"#utility.yul\":765:783   */\n      add\n        /* \"FlattenedVault.sol\":7841:8043  function supportsInterface(bytes4 interfaceId) public view virtual override returns (bool) {... */\n    tag_72:\n      mload(0x40)\n      dup1\n      swap2\n      sub\n      swap1\n      return\n        /* \"FlattenedVault.sol\":19101:19217  function setWhitelistEnabled(bool enabled) external onlyRole(ADMIN_ROLE) {... */\n    tag_4:\n      callvalue\n      dup1\n      iszero\n      tag_74\n      jumpi\n      0x00\n      dup1\n      revert\n    tag_74:\n      pop\n      tag_75\n      tag_76\n      calldatasize\n      0x04\n      tag_77\n      jump\t// in\n    tag_76:\n      tag_78\n      jump\t// in\n    tag_75:\n      stop\n        /* \"FlattenedVault.sol\":16906:16959  mapping(address => DepositInfo[]) public userDeposits */\n    tag_5:\n      callvalue\n      dup1\n      iszero\n      tag_79\n      jumpi\n      0x00\n      dup1\n      revert\n    tag_79:\n      pop\n      tag_80\n      tag_81\n      calldatasize\n      0x04\n      tag_82\n      jump\t// in\n    tag_81:\n      tag_83\n      jump\t// in\n    tag_80:\n      0x40\n      dup1\n      mload\n        /* \"#utility.yul\":1923:1948   */\n      swap7\n      dup8\n      mstore\n        /* \"#utility.yul\":1979:1981   */\n      0x20\n        /* \"#utility.yul\":1964:1982   */\n      dup8\n      add\n        /* \"#utility.yul\":1957:1991   */\n      swap6\n      swap1\n      swap6\n      mstore\n        /* \"#utility.yul\":2007:2025   */\n      swap4\n      dup6\n      add\n        /* \"#utility.yul\":2000:2034   */\n      swap3\n      swap1\n      swap3\n      mstore\n        /* \"#utility.yul\":2077:2091   */\n      iszero\n        /* \"#utility.yul\":2070:2092   */\n      iszero\n        /* \"#utility.yul\":2065:2067   */\n      0x60\n        /* \"#utility.yul\":2050:2068   */\n      dup5\n      add\n        /* \"#utility.yul\":2043:2093   */\n      mstore\n        /* \"#utility.yul\":2137:2151   */\n      iszero\n        /* \"#utility.yul\":2130:2152   */\n      iszero\n        /* \"#utility.yul\":2124:2127   */\n      0x80\n        /* \"#utility.yul\":2109:2128   */\n      dup4\n      add\n        /* \"#utility.yul\":2102:2153   */\n      mstore\n        /* \"#utility.yul\":2197:2211   */\n      iszero\n        /* \"#utility.yul\":2190:2212   */\n      iszero\n        /* \"#utility.yul\":2184:2187   */\n      0xa0\n        /* \"#utility.yul\":2169:2188   */\n      dup3\n      add\n        /* \"#utility.yul\":2162:2213   */\n      mstore\n        /* \"#utility.yul\":1910:1913   */\n      0xc0\n        /* \"#utility.yul\":1895:1914   */\n      add\n        /* \"FlattenedVault.sol\":16906:16959  mapping(address => DepositInfo[]) public userDeposits */\n      tag_72\n        /* \"#utility.yul\":1654:2219   */\n      jump\n        /* \"FlattenedVault.sol\":27556:27641  function isPoolFull() public view returns (bool) { return totalDeposited >= maxCap; } */\n    tag_6:\n      callvalue\n      dup1\n      iszero\n      tag_86\n      jumpi\n      0x00\n      dup1\n      revert\n    tag_86:\n      pop\n        /* \"FlattenedVault.sol\":27614:27628  totalDeposited */\n      sload(0x04)\n        /* \"FlattenedVault.sol\":16075:16090  5_000_000 ether */\n      0x0422ca8b0a00a425000000\n      gt\n        /* \"FlattenedVault.sol\":27614:27638  totalDeposited >= maxCap */\n      iszero\n        /* \"FlattenedVault.sol\":27556:27641  function isPoolFull() public view returns (bool) { return totalDeposited >= maxCap; } */\n      jump(tag_68)\n        /* \"FlattenedVault.sol\":16551:16633  bytes32 public constant UTILITY_INJECTOR_ROLE = keccak256(\"UTILITY_INJECTOR_ROLE\") */\n    tag_7:\n      callvalue\n      dup1\n      iszero\n      tag_90\n      jumpi\n      0x00\n      dup1\n      revert\n    tag_90:\n      pop\n      tag_91\n        /* \"FlattenedVault.sol\":16599:16633  keccak256(\"UTILITY_INJECTOR_ROLE\") */\n      0xf60566c40710959d8d30b6067ce3c53c757bec78eecb0e46b83c7f8194ffae37\n        /* \"FlattenedVault.sol\":16551:16633  bytes32 public constant UTILITY_INJECTOR_ROLE = keccak256(\"UTILITY_INJECTOR_ROLE\") */\n      dup2\n      jump\n    tag_91:\n      mload(0x40)\n        /* \"#utility.yul\":2370:2395   */\n      swap1\n      dup2\n      mstore\n        /* \"#utility.yul\":2358:2360   */\n      0x20\n        /* \"#utility.yul\":2343:2361   */\n      add\n        /* \"FlattenedVault.sol\":16551:16633  bytes32 public constant UTILITY_INJECTOR_ROLE = keccak256(\"UTILITY_INJECTOR_ROLE\") */\n      tag_72\n        /* \"#utility.yul\":2224:2401   */\n      jump\n        /* \"FlattenedVault.sol\":24174:24307  function setPaused(bool _paused) external onlyRole(PAUSER_ROLE) {... */\n    tag_8:\n      callvalue\n      dup1\n      iszero\n      tag_95\n      jumpi\n      0x00\n      dup1\n      revert\n    tag_95:\n      pop\n      tag_75\n      tag_97\n      calldatasize\n      0x04\n      tag_77\n      jump\t// in\n    tag_97:\n      tag_98\n      jump\t// in\n        /* \"FlattenedVault.sol\":15976:16036  uint256 public constant LIQUIDATION_DEFAULT_DELAY = 540 days */\n    tag_9:\n      callvalue\n      dup1\n      iszero\n      tag_99\n      jumpi\n      0x00\n      dup1\n      revert\n    tag_99:\n      pop\n      tag_91\n        /* \"FlattenedVault.sol\":16028:16036  540 days */\n      0x02c7ea00\n        /* \"FlattenedVault.sol\":15976:16036  uint256 public constant LIQUIDATION_DEFAULT_DELAY = 540 days */\n      dup2\n      jump\n        /* \"FlattenedVault.sol\":16042:16090  uint256 public constant maxCap = 5_000_000 ether */\n    tag_10:\n      callvalue\n      dup1\n      iszero\n      tag_104\n      jumpi\n      0x00\n      dup1\n      revert\n    tag_104:\n      pop\n      tag_91\n        /* \"FlattenedVault.sol\":16075:16090  5_000_000 ether */\n      0x0422ca8b0a00a425000000\n        /* \"FlattenedVault.sol\":16042:16090  uint256 public constant maxCap = 5_000_000 ether */\n      dup2\n      jump\n        /* \"FlattenedVault.sol\":16155:16191  bool public globalLiquidationEnabled */\n    tag_11:\n      callvalue\n      dup1\n      iszero\n      tag_108\n      jumpi\n      0x00\n      dup1\n      revert\n    tag_108:\n      pop\n      sload(0x02)\n      tag_68\n      swap1\n      0x010000\n      swap1\n      div\n      0xff\n      and\n      dup2\n      jump\n        /* \"FlattenedVault.sol\":9086:9206  function getRoleAdmin(bytes32 role) public view virtual returns (bytes32) {... */\n    tag_12:\n      callvalue\n      dup1\n      iszero\n      tag_112\n      jumpi\n      0x00\n      dup1\n      revert\n    tag_112:\n      pop\n      tag_91\n      tag_114\n      calldatasize\n      0x04\n      tag_115\n      jump\t// in\n    tag_114:\n        /* \"FlattenedVault.sol\":9151:9158  bytes32 */\n      0x00\n        /* \"FlattenedVault.sol\":9177:9189  _roles[role] */\n      swap1\n      dup2\n      mstore\n      0x20\n      dup2\n      swap1\n      mstore\n      0x40\n      swap1\n      keccak256\n        /* \"FlattenedVault.sol\":9177:9199  _roles[role].adminRole */\n      0x01\n      add\n      sload\n      swap1\n        /* \"FlattenedVault.sol\":9086:9206  function getRoleAdmin(bytes32 role) public view virtual returns (bytes32) {... */\n      jump\n        /* \"FlattenedVault.sol\":23340:23547  function withdraw(uint256 depositIndex) external nonReentrant whenNotPaused {... */\n    tag_13:\n      callvalue\n      dup1\n      iszero\n      tag_118\n      jumpi\n      0x00\n      dup1\n      revert\n    tag_118:\n      pop\n      tag_75\n      tag_120\n      calldatasize\n      0x04\n      tag_115\n      jump\t// in\n    tag_120:\n      tag_122\n      jump\t// in\n        /* \"FlattenedVault.sol\":9502:9638  function grantRole(bytes32 role, address account) public virtual onlyRole(getRoleAdmin(role)) {... */\n    tag_14:\n      callvalue\n      dup1\n      iszero\n      tag_123\n      jumpi\n      0x00\n      dup1\n      revert\n    tag_123:\n      pop\n      tag_75\n      tag_125\n      calldatasize\n      0x04\n      tag_126\n      jump\t// in\n    tag_125:\n      tag_127\n      jump\t// in\n        /* \"FlattenedVault.sol\":24791:25242  function adminEmergencyWithdrawAll(address to) external onlyRole(ADMIN_ROLE) nonReentrant {... */\n    tag_15:\n      callvalue\n      dup1\n      iszero\n      tag_128\n      jumpi\n      0x00\n      dup1\n      revert\n    tag_128:\n      pop\n      tag_75\n      tag_130\n      calldatasize\n      0x04\n      tag_131\n      jump\t// in\n    tag_130:\n      tag_132\n      jump\t// in\n        /* \"FlattenedVault.sol\":10604:10849  function renounceRole(bytes32 role, address callerConfirmation) public virtual {... */\n    tag_16:\n      callvalue\n      dup1\n      iszero\n      tag_133\n      jumpi\n      0x00\n      dup1\n      revert\n    tag_133:\n      pop\n      tag_75\n      tag_135\n      calldatasize\n      0x04\n      tag_126\n      jump\t// in\n    tag_135:\n      tag_136\n      jump\t// in\n        /* \"FlattenedVault.sol\":16279:16305  uint256 public totalShares */\n    tag_17:\n      callvalue\n      dup1\n      iszero\n      tag_137\n      jumpi\n      0x00\n      dup1\n      revert\n    tag_137:\n      pop\n      tag_91\n      sload(0x05)\n      dup2\n      jump\n        /* \"FlattenedVault.sol\":16965:17010  mapping(address => bool) public isWhitelisted */\n    tag_18:\n      callvalue\n      dup1\n      iszero\n      tag_141\n      jumpi\n      0x00\n      dup1\n      revert\n    tag_141:\n      pop\n      tag_68\n      tag_143\n      calldatasize\n      0x04\n      tag_131\n      jump\t// in\n    tag_143:\n      mstore(0x20, 0x08)\n      0x00\n      swap1\n      dup2\n      mstore\n      0x40\n      swap1\n      keccak256\n      sload\n      0xff\n      and\n      dup2\n      jump\n        /* \"FlattenedVault.sol\":20198:20451  function injectUtility() external payable onlyRole(UTILITY_INJECTOR_ROLE) whenNotPaused {... */\n    tag_19:\n      tag_75\n      tag_147\n      jump\t// in\n        /* \"FlattenedVault.sol\":18749:19096  function setWhitelistBatch(address[] calldata users, bool[] calldata statuses) external onlyRole(ADMIN_ROLE) {... */\n    tag_20:\n      callvalue\n      dup1\n      iszero\n      tag_148\n      jumpi\n      0x00\n      dup1\n      revert\n    tag_148:\n      pop\n      tag_75\n      tag_150\n      calldatasize\n      0x04\n      tag_151\n      jump\t// in\n    tag_150:\n      tag_152\n      jump\t// in\n        /* \"FlattenedVault.sol\":27771:28128  function getAllUsers(uint256 start, uint256 limit) public view returns (address[] memory users) {... */\n    tag_21:\n      callvalue\n      dup1\n      iszero\n      tag_153\n      jumpi\n      0x00\n      dup1\n      revert\n    tag_153:\n      pop\n      tag_154\n      tag_155\n      calldatasize\n      0x04\n      tag_156\n      jump\t// in\n    tag_155:\n      tag_157\n      jump\t// in\n    tag_154:\n      mload(0x40)\n      tag_72\n      swap2\n      swap1\n      tag_159\n      jump\t// in\n        /* \"FlattenedVault.sol\":16121:16149  bool public whitelistEnabled */\n    tag_22:\n      callvalue\n      dup1\n      iszero\n      tag_160\n      jumpi\n      0x00\n      dup1\n      revert\n    tag_160:\n      pop\n      sload(0x02)\n      tag_68\n      swap1\n      0x0100\n      swap1\n      div\n      0xff\n      and\n      dup2\n      jump\n        /* \"FlattenedVault.sol\":18576:18744  function setWhitelist(address user, bool status) external onlyRole(ADMIN_ROLE) {... */\n    tag_23:\n      callvalue\n      dup1\n      iszero\n      tag_164\n      jumpi\n      0x00\n      dup1\n      revert\n    tag_164:\n      pop\n      tag_75\n      tag_166\n      calldatasize\n      0x04\n      tag_167\n      jump\t// in\n    tag_166:\n      tag_168\n      jump\t// in\n        /* \"FlattenedVault.sol\":16197:16238  uint256 public globalLiquidationTimestamp */\n    tag_24:\n      callvalue\n      dup1\n      iszero\n      tag_169\n      jumpi\n      0x00\n      dup1\n      revert\n    tag_169:\n      pop\n      tag_91\n      sload(0x03)\n      dup2\n      jump\n        /* \"FlattenedVault.sol\":16097:16115  bool public paused */\n    tag_25:\n      callvalue\n      dup1\n      iszero\n      tag_173\n      jumpi\n      0x00\n      dup1\n      revert\n    tag_173:\n      pop\n      sload(0x02)\n      tag_68\n      swap1\n      0xff\n      and\n      dup2\n      jump\n        /* \"FlattenedVault.sol\":16311:16338  uint256 public totalUtility */\n    tag_26:\n      callvalue\n      dup1\n      iszero\n      tag_177\n      jumpi\n      0x00\n      dup1\n      revert\n    tag_177:\n      pop\n      tag_91\n      sload(0x06)\n      dup2\n      jump\n        /* \"FlattenedVault.sol\":25270:26068  function getUnlockedDeposits(address user) external view returns (uint256 unlockedAmount, uint256[] memory unlockedIndexes) {... */\n    tag_27:\n      callvalue\n      dup1\n      iszero\n      tag_181\n      jumpi\n      0x00\n      dup1\n      revert\n    tag_181:\n      pop\n      tag_182\n      tag_183\n      calldatasize\n      0x04\n      tag_131\n      jump\t// in\n    tag_183:\n      tag_184\n      jump\t// in\n    tag_182:\n      mload(0x40)\n      tag_72\n      swap3\n      swap2\n      swap1\n      tag_186\n      jump\t// in\n        /* \"FlattenedVault.sol\":21488:21633  function batchWithdraw(uint256[] calldata depositIndices) public nonReentrant whenNotPaused {... */\n    tag_28:\n      callvalue\n      dup1\n      iszero\n      tag_187\n      jumpi\n      0x00\n      dup1\n      revert\n    tag_187:\n      pop\n      tag_75\n      tag_189\n      calldatasize\n      0x04\n      tag_190\n      jump\t// in\n    tag_189:\n      tag_191\n      jump\t// in\n        /* \"FlattenedVault.sol\":16345:16405  bytes32 public constant ADMIN_ROLE = keccak256(\"ADMIN_ROLE\") */\n    tag_29:\n      callvalue\n      dup1\n      iszero\n      tag_192\n      jumpi\n      0x00\n      dup1\n      revert\n    tag_192:\n      pop\n      tag_91\n        /* \"FlattenedVault.sol\":16382:16405  keccak256(\"ADMIN_ROLE\") */\n      0xa49807205ce4d355092ef5a8a18f56e8913cf4a201fbe287825b095693c21775\n        /* \"FlattenedVault.sol\":16345:16405  bytes32 public constant ADMIN_ROLE = keccak256(\"ADMIN_ROLE\") */\n      dup2\n      jump\n        /* \"FlattenedVault.sol\":16639:16709  bytes32 public constant WITHDRAWER_ROLE = keccak256(\"WITHDRAWER_ROLE\") */\n    tag_30:\n      callvalue\n      dup1\n      iszero\n      tag_196\n      jumpi\n      0x00\n      dup1\n      revert\n    tag_196:\n      pop\n      tag_91\n        /* \"FlattenedVault.sol\":16681:16709  keccak256(\"WITHDRAWER_ROLE\") */\n      0x10dac8c06a04bec0b551627dad28bc00d6516b0caacd1c7b345fcdb5211334e4\n        /* \"FlattenedVault.sol\":16639:16709  bytes32 public constant WITHDRAWER_ROLE = keccak256(\"WITHDRAWER_ROLE\") */\n      dup2\n      jump\n        /* \"FlattenedVault.sol\":20491:21062  function unlockDepositsForUser(address user, uint256[] calldata depositIndices) public onlyRole(UNLOCKER_ROLE) whenNotPaused {... */\n    tag_31:\n      callvalue\n      dup1\n      iszero\n      tag_200\n      jumpi\n      0x00\n      dup1\n      revert\n    tag_200:\n      pop\n      tag_75\n      tag_202\n      calldatasize\n      0x04\n      tag_203\n      jump\t// in\n    tag_202:\n      tag_204\n      jump\t// in\n        /* \"FlattenedVault.sol\":24349:24786  function adminWithdrawUtility(address to, uint256 amount) external onlyRole(ADMIN_ROLE) nonReentrant {... */\n    tag_32:\n      callvalue\n      dup1\n      iszero\n      tag_205\n      jumpi\n      0x00\n      dup1\n      revert\n    tag_205:\n      pop\n      tag_75\n      tag_207\n      calldatasize\n      0x04\n      tag_82\n      jump\t// in\n    tag_207:\n      tag_208\n      jump\t// in\n        /* \"FlattenedVault.sol\":8130:8266  function hasRole(bytes32 role, address account) public view virtual returns (bool) {... */\n    tag_33:\n      callvalue\n      dup1\n      iszero\n      tag_209\n      jumpi\n      0x00\n      dup1\n      revert\n    tag_209:\n      pop\n      tag_68\n      tag_211\n      calldatasize\n      0x04\n      tag_126\n      jump\t// in\n    tag_211:\n        /* \"FlattenedVault.sol\":8207:8211  bool */\n      0x00\n        /* \"FlattenedVault.sol\":8230:8242  _roles[role] */\n      swap2\n      dup3\n      mstore\n      0x20\n      dup3\n      dup2\n      mstore\n      0x40\n      dup1\n      dup5\n      keccak256\n      sub(shl(0xa0, 0x01), 0x01)\n        /* \"FlattenedVault.sol\":8230:8259  _roles[role].hasRole[account] */\n      swap4\n      swap1\n      swap4\n      and\n      dup5\n      mstore\n      swap2\n      swap1\n      mstore\n      swap1\n      keccak256\n      sload\n      0xff\n      and\n      swap1\n        /* \"FlattenedVault.sol\":8130:8266  function hasRole(bytes32 role, address account) public view virtual returns (bool) {... */\n      jump\n        /* \"FlattenedVault.sol\":26073:26160  function getUtilityPool() external view returns (uint256 util) { return totalUtility; } */\n    tag_34:\n      callvalue\n      dup1\n      iszero\n      tag_214\n      jumpi\n      0x00\n      dup1\n      revert\n    tag_214:\n      pop\n        /* \"FlattenedVault.sol\":26145:26157  totalUtility */\n      sload(0x06)\n        /* \"FlattenedVault.sol\":26073:26160  function getUtilityPool() external view returns (uint256 util) { return totalUtility; } */\n      jump(tag_91)\n        /* \"FlattenedVault.sol\":21068:21437  function batchUnlock(address[] calldata users, uint256[][] calldata indices) external onlyRole(UNLOCKER_ROLE) whenNotPaused {... */\n    tag_35:\n      callvalue\n      dup1\n      iszero\n      tag_218\n      jumpi\n      0x00\n      dup1\n      revert\n    tag_218:\n      pop\n      tag_75\n      tag_220\n      calldatasize\n      0x04\n      tag_151\n      jump\t// in\n    tag_220:\n      tag_222\n      jump\t// in\n        /* \"FlattenedVault.sol\":7463:7512  bytes32 public constant DEFAULT_ADMIN_ROLE = 0x00 */\n    tag_36:\n      callvalue\n      dup1\n      iszero\n      tag_223\n      jumpi\n      0x00\n      dup1\n      revert\n    tag_223:\n      pop\n      tag_91\n        /* \"FlattenedVault.sol\":7508:7512  0x00 */\n      0x00\n        /* \"FlattenedVault.sol\":7463:7512  bytes32 public constant DEFAULT_ADMIN_ROLE = 0x00 */\n      dup2\n      jump\n        /* \"FlattenedVault.sol\":17016:17041  address[] public allUsers */\n    tag_37:\n      callvalue\n      dup1\n      iszero\n      tag_227\n      jumpi\n      0x00\n      dup1\n      revert\n    tag_227:\n      pop\n      tag_228\n      tag_229\n      calldatasize\n      0x04\n      tag_115\n      jump\t// in\n    tag_229:\n      tag_230\n      jump\t// in\n    tag_228:\n      mload(0x40)\n      sub(shl(0xa0, 0x01), 0x01)\n        /* \"#utility.yul\":8461:8516   */\n      swap1\n      swap2\n      and\n        /* \"#utility.yul\":8443:8517   */\n      dup2\n      mstore\n        /* \"#utility.yul\":8431:8433   */\n      0x20\n        /* \"#utility.yul\":8416:8434   */\n      add\n        /* \"FlattenedVault.sol\":17016:17041  address[] public allUsers */\n      tag_72\n        /* \"#utility.yul\":8297:8523   */\n      jump\n        /* \"FlattenedVault.sol\":26654:27551  function getUserDepositInfo(address user) external view returns (... */\n    tag_38:\n      callvalue\n      dup1\n      iszero\n      tag_233\n      jumpi\n      0x00\n      dup1\n      revert\n    tag_233:\n      pop\n      tag_234\n      tag_235\n      calldatasize\n      0x04\n      tag_131\n      jump\t// in\n    tag_235:\n      tag_236\n      jump\t// in\n    tag_234:\n      mload(0x40)\n      tag_72\n      swap6\n      swap5\n      swap4\n      swap3\n      swap2\n      swap1\n      tag_238\n      jump\t// in\n        /* \"FlattenedVault.sol\":9918:10056  function revokeRole(bytes32 role, address account) public virtual onlyRole(getRoleAdmin(role)) {... */\n    tag_39:\n      callvalue\n      dup1\n      iszero\n      tag_239\n      jumpi\n      0x00\n      dup1\n      revert\n    tag_239:\n      pop\n      tag_75\n      tag_241\n      calldatasize\n      0x04\n      tag_126\n      jump\t// in\n    tag_241:\n      tag_242\n      jump\t// in\n        /* \"FlattenedVault.sol\":23580:24145  function enableGlobalLiquidation() external onlyRole(ADMIN_ROLE) whenNotPaused {... */\n    tag_40:\n      callvalue\n      dup1\n      iszero\n      tag_243\n      jumpi\n      0x00\n      dup1\n      revert\n    tag_243:\n      pop\n      tag_75\n      tag_245\n      jump\t// in\n        /* \"FlattenedVault.sol\":16479:16545  bytes32 public constant UNLOCKER_ROLE = keccak256(\"UNLOCKER_ROLE\") */\n    tag_41:\n      callvalue\n      dup1\n      iszero\n      tag_246\n      jumpi\n      0x00\n      dup1\n      revert\n    tag_246:\n      pop\n      tag_91\n        /* \"FlattenedVault.sol\":16519:16545  keccak256(\"UNLOCKER_ROLE\") */\n      0xc806897caf4fd5068191157e44d3988e43139a37e0b97b6793e1ed1184140604\n        /* \"FlattenedVault.sol\":16479:16545  bytes32 public constant UNLOCKER_ROLE = keccak256(\"UNLOCKER_ROLE\") */\n      dup2\n      jump\n        /* \"FlattenedVault.sol\":16411:16473  bytes32 public constant PAUSER_ROLE = keccak256(\"PAUSER_ROLE\") */\n    tag_42:\n      callvalue\n      dup1\n      iszero\n      tag_250\n      jumpi\n      0x00\n      dup1\n      revert\n    tag_250:\n      pop\n      tag_91\n        /* \"FlattenedVault.sol\":16449:16473  keccak256(\"PAUSER_ROLE\") */\n      0x65d7a28e3265b37a6474929f336521b332c1681b933f6cb9f3376673440d862a\n        /* \"FlattenedVault.sol\":16411:16473  bytes32 public constant PAUSER_ROLE = keccak256(\"PAUSER_ROLE\") */\n      dup2\n      jump\n        /* \"FlattenedVault.sol\":27646:27766  function poolRoomLeft() public view returns (uint256) { return totalDeposited >= maxCap ? 0 : maxCap - totalDeposited; } */\n    tag_43:\n      callvalue\n      dup1\n      iszero\n      tag_254\n      jumpi\n      0x00\n      dup1\n      revert\n    tag_254:\n      pop\n      tag_91\n      tag_256\n      jump\t// in\n        /* \"FlattenedVault.sol\":15922:15970  uint256 public constant LOCKUP_PERIOD = 180 days */\n    tag_44:\n      callvalue\n      dup1\n      iszero\n      tag_258\n      jumpi\n      0x00\n      dup1\n      revert\n    tag_258:\n      pop\n      tag_91\n        /* \"FlattenedVault.sol\":15962:15970  180 days */\n      0xed4e00\n        /* \"FlattenedVault.sol\":15922:15970  uint256 public constant LOCKUP_PERIOD = 180 days */\n      dup2\n      jump\n        /* \"FlattenedVault.sol\":19244:20124  function deposit(address receiver) external payable nonReentrant whenNotPaused returns (uint256 shares) {... */\n    tag_45:\n      tag_91\n      tag_263\n      calldatasize\n      0x04\n      tag_131\n      jump\t// in\n    tag_263:\n      tag_264\n      jump\t// in\n        /* \"FlattenedVault.sol\":26165:26649  function getEarliestDepositTimestamp() public view returns (uint256 earliest) {... */\n    tag_46:\n      callvalue\n      dup1\n      iszero\n      tag_266\n      jumpi\n      0x00\n      dup1\n      revert\n    tag_266:\n      pop\n      tag_91\n      tag_268\n      jump\t// in\n        /* \"FlattenedVault.sol\":16244:16273  uint256 public totalDeposited */\n    tag_47:\n      callvalue\n      dup1\n      iszero\n      tag_270\n      jumpi\n      0x00\n      dup1\n      revert\n    tag_270:\n      pop\n      tag_91\n      sload(0x04)\n      dup2\n      jump\n        /* \"FlattenedVault.sol\":7841:8043  function supportsInterface(bytes4 interfaceId) public view virtual override returns (bool) {... */\n    tag_71:\n        /* \"FlattenedVault.sol\":7926:7930  bool */\n      0x00\n      not(sub(shl(0xe0, 0x01), 0x01))\n        /* \"FlattenedVault.sol\":7949:7996  interfaceId == type(IAccessControl).interfaceId */\n      dup3\n      and\n      shl(0xe0, 0x7965db0b)\n      eq\n      dup1\n        /* \"FlattenedVault.sol\":7949:8036  interfaceId == type(IAccessControl).interfaceId || super.supportsInterface(interfaceId) */\n      tag_276\n      jumpi\n      pop\n      shl(0xe0, 0x01ffc9a7)\n      not(sub(shl(0xe0, 0x01), 0x01))\n        /* \"FlattenedVault.sol\":5516:5556  interfaceId == type(IERC165).interfaceId */\n      dup4\n      and\n      eq\n        /* \"FlattenedVault.sol\":8000:8036  super.supportsInterface(interfaceId) */\n    tag_276:\n        /* \"FlattenedVault.sol\":7942:8036  return interfaceId == type(IAccessControl).interfaceId || super.supportsInterface(interfaceId) */\n      swap3\n        /* \"FlattenedVault.sol\":7841:8043  function supportsInterface(bytes4 interfaceId) public view virtual override returns (bool) {... */\n      swap2\n      pop\n      pop\n      jump\t// out\n        /* \"FlattenedVault.sol\":19101:19217  function setWhitelistEnabled(bool enabled) external onlyRole(ADMIN_ROLE) {... */\n    tag_78:\n        /* \"FlattenedVault.sol\":16382:16405  keccak256(\"ADMIN_ROLE\") */\n      0xa49807205ce4d355092ef5a8a18f56e8913cf4a201fbe287825b095693c21775\n        /* \"FlattenedVault.sol\":7740:7756  _checkRole(role) */\n      tag_279\n        /* \"FlattenedVault.sol\":7751:7755  role */\n      dup2\n        /* \"FlattenedVault.sol\":7740:7750  _checkRole */\n      tag_280\n        /* \"FlattenedVault.sol\":7740:7756  _checkRole(role) */\n      jump\t// in\n    tag_279:\n      pop\n        /* \"FlattenedVault.sol\":19184:19200  whitelistEnabled */\n      0x02\n        /* \"FlattenedVault.sol\":19184:19210  whitelistEnabled = enabled */\n      dup1\n      sload\n      swap2\n      iszero\n      iszero\n      0x0100\n      mul\n      not(0xff00)\n      swap1\n      swap3\n      and\n      swap2\n      swap1\n      swap2\n      or\n      swap1\n      sstore\n        /* \"FlattenedVault.sol\":19101:19217  function setWhitelistEnabled(bool enabled) external onlyRole(ADMIN_ROLE) {... */\n      jump\t// out\n        /* \"FlattenedVault.sol\":16906:16959  mapping(address => DepositInfo[]) public userDeposits */\n    tag_83:\n      mstore(0x20, 0x07)\n      dup2\n      0x00\n      mstore\n      keccak256(0x00, 0x40)\n      dup2\n      dup2\n      sload\n      dup2\n      lt\n      tag_282\n      jumpi\n      0x00\n      dup1\n      revert\n    tag_282:\n      0x00\n      swap2\n      dup3\n      mstore\n      0x20\n      swap1\n      swap2\n      keccak256\n      0x04\n      swap1\n      swap2\n      mul\n      add\n      dup1\n      sload\n      0x01\n      dup3\n      add\n      sload\n      0x02\n      dup4\n      add\n      sload\n      0x03\n      swap1\n      swap4\n      add\n      sload\n      swap2\n      swap5\n      pop\n      swap3\n      pop\n      0xff\n      dup1\n      dup3\n      and\n      swap2\n      0x0100\n      dup2\n      div\n      dup3\n      and\n      swap2\n      0x010000\n      swap1\n      swap2\n      div\n      and\n      dup7\n      jump\t// out\n        /* \"FlattenedVault.sol\":24174:24307  function setPaused(bool _paused) external onlyRole(PAUSER_ROLE) {... */\n    tag_98:\n        /* \"FlattenedVault.sol\":16449:16473  keccak256(\"PAUSER_ROLE\") */\n      0x65d7a28e3265b37a6474929f336521b332c1681b933f6cb9f3376673440d862a\n        /* \"FlattenedVault.sol\":7740:7756  _checkRole(role) */\n      tag_286\n        /* \"FlattenedVault.sol\":7751:7755  role */\n      dup2\n        /* \"FlattenedVault.sol\":7740:7750  _checkRole */\n      tag_280\n        /* \"FlattenedVault.sol\":7740:7756  _checkRole(role) */\n      jump\t// in\n    tag_286:\n        /* \"FlattenedVault.sol\":24248:24254  paused */\n      0x02\n        /* \"FlattenedVault.sol\":24248:24264  paused = _paused */\n      dup1\n      sload\n      not(0xff)\n      and\n      dup4\n      iszero\n      iszero\n      swap1\n      dup2\n      or\n      swap1\n      swap2\n      sstore\n        /* \"FlattenedVault.sol\":24279:24300  PauseChanged(_paused) */\n      mload(0x40)\n        /* \"#utility.yul\":792:833   */\n      swap1\n      dup2\n      mstore\n        /* \"FlattenedVault.sol\":24279:24300  PauseChanged(_paused) */\n      0x8fb6c181ee25a520cf3dd6565006ef91229fcfe5a989566c2a3b8c115570cec5\n      swap1\n        /* \"#utility.yul\":780:782   */\n      0x20\n        /* \"#utility.yul\":765:783   */\n      add\n        /* \"FlattenedVault.sol\":24279:24300  PauseChanged(_paused) */\n      mload(0x40)\n      dup1\n      swap2\n      sub\n      swap1\n      log1\n        /* \"FlattenedVault.sol\":24174:24307  function setPaused(bool _paused) external onlyRole(PAUSER_ROLE) {... */\n      pop\n      pop\n      jump\t// out\n        /* \"FlattenedVault.sol\":23340:23547  function withdraw(uint256 depositIndex) external nonReentrant whenNotPaused {... */\n    tag_122:\n        /* \"FlattenedVault.sol\":14694:14715  _nonReentrantBefore() */\n      tag_291\n        /* \"FlattenedVault.sol\":14694:14713  _nonReentrantBefore */\n      tag_292\n        /* \"FlattenedVault.sol\":14694:14715  _nonReentrantBefore() */\n      jump\t// in\n    tag_291:\n        /* \"FlattenedVault.sol\":17963:17969  paused */\n      and(0xff, sload(0x02))\n        /* \"FlattenedVault.sol\":17962:17969  !paused */\n      iszero\n        /* \"FlattenedVault.sol\":17954:17986  require(!paused, \"Vault paused\") */\n      tag_294\n      jumpi\n      mload(0x40)\n      shl(0xe5, 0x461bcd)\n      dup2\n      mstore\n        /* \"#utility.yul\":10245:10247   */\n      0x20\n        /* \"FlattenedVault.sol\":17954:17986  require(!paused, \"Vault paused\") */\n      0x04\n      dup3\n      add\n        /* \"#utility.yul\":10227:10248   */\n      mstore\n        /* \"#utility.yul\":10284:10286   */\n      0x0c\n        /* \"#utility.yul\":10264:10282   */\n      0x24\n      dup3\n      add\n        /* \"#utility.yul\":10257:10287   */\n      mstore\n      shl(0xa2, 0x15985d5b1d081c185d5cd959)\n        /* \"#utility.yul\":10303:10321   */\n      0x44\n      dup3\n      add\n        /* \"#utility.yul\":10296:10338   */\n      mstore\n        /* \"#utility.yul\":10355:10373   */\n      0x64\n      add\n        /* \"FlattenedVault.sol\":17954:17986  require(!paused, \"Vault paused\") */\n      tag_65\n        /* \"#utility.yul\":10043:10379   */\n      jump\n        /* \"FlattenedVault.sol\":17954:17986  require(!paused, \"Vault paused\") */\n    tag_294:\n        /* \"FlattenedVault.sol\":23452:23468  new uint256[](1) */\n      0x40\n      dup1\n      mload\n        /* \"FlattenedVault.sol\":23466:23467  1 */\n      0x01\n        /* \"FlattenedVault.sol\":23452:23468  new uint256[](1) */\n      dup1\n      dup3\n      mstore\n      dup2\n      dup4\n      add\n      swap1\n      swap3\n      mstore\n        /* \"FlattenedVault.sol\":23426:23449  uint256[] memory single */\n      0x00\n      swap2\n        /* \"FlattenedVault.sol\":23452:23468  new uint256[](1) */\n      0x20\n      dup1\n      dup4\n      add\n      swap1\n      dup1\n      calldatasize\n      dup4\n      calldatacopy\n      add\n      swap1\n      pop\n      pop\n        /* \"FlattenedVault.sol\":23426:23468  uint256[] memory single = new uint256[](1) */\n      swap1\n      pop\n        /* \"FlattenedVault.sol\":23490:23502  depositIndex */\n      dup2\n        /* \"FlattenedVault.sol\":23478:23484  single */\n      dup2\n        /* \"FlattenedVault.sol\":23485:23486  0 */\n      0x00\n        /* \"FlattenedVault.sol\":23478:23487  single[0] */\n      dup2\n      mload\n      dup2\n      lt\n      tag_303\n      jumpi\n      tag_303\n      tag_304\n      jump\t// in\n    tag_303:\n      0x20\n      mul\n      0x20\n      add\n      add\n        /* \"FlattenedVault.sol\":23478:23502  single[0] = depositIndex */\n      dup2\n      dup2\n      mstore\n      pop\n      pop\n        /* \"FlattenedVault.sol\":23512:23540  _batchWithdrawMemory(single) */\n      tag_305\n        /* \"FlattenedVault.sol\":23533:23539  single */\n      dup2\n        /* \"FlattenedVault.sol\":23512:23532  _batchWithdrawMemory */\n      tag_306\n        /* \"FlattenedVault.sol\":23512:23540  _batchWithdrawMemory(single) */\n      jump\t// in\n    tag_305:\n        /* \"FlattenedVault.sol\":23416:23547  {... */\n      pop\n        /* \"FlattenedVault.sol\":14736:14756  _nonReentrantAfter() */\n      tag_307\n        /* \"FlattenedVault.sol\":14051:14052  1 */\n      0x01\n        /* \"FlattenedVault.sol\":15262:15283  _status = NOT_ENTERED */\n      dup1\n      sstore\n        /* \"FlattenedVault.sol\":15082:15290  function _nonReentrantAfter() private {... */\n      jump\n        /* \"FlattenedVault.sol\":14736:14756  _nonReentrantAfter() */\n    tag_307:\n        /* \"FlattenedVault.sol\":23340:23547  function withdraw(uint256 depositIndex) external nonReentrant whenNotPaused {... */\n      pop\n      jump\t// out\n        /* \"FlattenedVault.sol\":9502:9638  function grantRole(bytes32 role, address account) public virtual onlyRole(getRoleAdmin(role)) {... */\n    tag_127:\n        /* \"FlattenedVault.sol\":9151:9158  bytes32 */\n      0x00\n        /* \"FlattenedVault.sol\":9177:9189  _roles[role] */\n      dup3\n      dup2\n      mstore\n      0x20\n      dup2\n      swap1\n      mstore\n      0x40\n      swap1\n      keccak256\n        /* \"FlattenedVault.sol\":9177:9199  _roles[role].adminRole */\n      0x01\n      add\n      sload\n        /* \"FlattenedVault.sol\":7740:7756  _checkRole(role) */\n      tag_311\n        /* \"FlattenedVault.sol\":7751:7755  role */\n      dup2\n        /* \"FlattenedVault.sol\":7740:7750  _checkRole */\n      tag_280\n        /* \"FlattenedVault.sol\":7740:7756  _checkRole(role) */\n      jump\t// in\n    tag_311:\n        /* \"FlattenedVault.sol\":9606:9631  _grantRole(role, account) */\n      tag_313\n        /* \"FlattenedVault.sol\":9617:9621  role */\n      dup4\n        /* \"FlattenedVault.sol\":9623:9630  account */\n      dup4\n        /* \"FlattenedVault.sol\":9606:9616  _grantRole */\n      tag_314\n        /* \"FlattenedVault.sol\":9606:9631  _grantRole(role, account) */\n      jump\t// in\n    tag_313:\n      pop\n        /* \"FlattenedVault.sol\":9502:9638  function grantRole(bytes32 role, address account) public virtual onlyRole(getRoleAdmin(role)) {... */\n      pop\n      pop\n      pop\n      jump\t// out\n        /* \"FlattenedVault.sol\":24791:25242  function adminEmergencyWithdrawAll(address to) external onlyRole(ADMIN_ROLE) nonReentrant {... */\n    tag_132:\n        /* \"FlattenedVault.sol\":16382:16405  keccak256(\"ADMIN_ROLE\") */\n      0xa49807205ce4d355092ef5a8a18f56e8913cf4a201fbe287825b095693c21775\n        /* \"FlattenedVault.sol\":7740:7756  _checkRole(role) */\n      tag_316\n        /* \"FlattenedVault.sol\":7751:7755  role */\n      dup2\n        /* \"FlattenedVault.sol\":7740:7750  _checkRole */\n      tag_280\n        /* \"FlattenedVault.sol\":7740:7756  _checkRole(role) */\n      jump\t// in\n    tag_316:\n        /* \"FlattenedVault.sol\":14694:14715  _nonReentrantBefore() */\n      tag_318\n        /* \"FlattenedVault.sol\":14694:14713  _nonReentrantBefore */\n      tag_292\n        /* \"FlattenedVault.sol\":14694:14715  _nonReentrantBefore() */\n      jump\t// in\n    tag_318:\n      sub(shl(0xa0, 0x01), 0x01)\n        /* \"FlattenedVault.sol\":24899:24915  to != address(0) */\n      dup3\n      and\n        /* \"FlattenedVault.sol\":24891:24932  require(to != address(0), \"Invalid 'to'\") */\n      tag_320\n      jumpi\n      mload(0x40)\n      shl(0xe5, 0x461bcd)\n      dup2\n      mstore\n        /* \"#utility.yul\":10850:10852   */\n      0x20\n        /* \"FlattenedVault.sol\":24891:24932  require(to != address(0), \"Invalid 'to'\") */\n      0x04\n      dup3\n      add\n        /* \"#utility.yul\":10832:10853   */\n      mstore\n        /* \"#utility.yul\":10889:10891   */\n      0x0c\n        /* \"#utility.yul\":10869:10887   */\n      0x24\n      dup3\n      add\n        /* \"#utility.yul\":10862:10892   */\n      mstore\n      shl(0xa0, 0x496e76616c69642027746f27)\n        /* \"#utility.yul\":10908:10926   */\n      0x44\n      dup3\n      add\n        /* \"#utility.yul\":10901:10943   */\n      mstore\n        /* \"#utility.yul\":10960:10978   */\n      0x64\n      add\n        /* \"FlattenedVault.sol\":24891:24932  require(to != address(0), \"Invalid 'to'\") */\n      tag_65\n        /* \"#utility.yul\":10648:10984   */\n      jump\n        /* \"FlattenedVault.sol\":24891:24932  require(to != address(0), \"Invalid 'to'\") */\n    tag_320:\n        /* \"FlattenedVault.sol\":24950:24964  totalDeposited */\n      sload(0x04)\n        /* \"FlattenedVault.sol\":24950:24969  totalDeposited == 0 */\n      iszero\n        /* \"FlattenedVault.sol\":24950:24989  totalDeposited == 0 && totalShares == 0 */\n      dup1\n      iszero\n      tag_323\n      jumpi\n      pop\n        /* \"FlattenedVault.sol\":24973:24984  totalShares */\n      sload(0x05)\n        /* \"FlattenedVault.sol\":24973:24989  totalShares == 0 */\n      iszero\n        /* \"FlattenedVault.sol\":24950:24989  totalDeposited == 0 && totalShares == 0 */\n    tag_323:\n        /* \"FlattenedVault.sol\":24942:25010  require(totalDeposited == 0 && totalShares == 0, \"Deposits pending\") */\n      tag_324\n      jumpi\n      mload(0x40)\n      shl(0xe5, 0x461bcd)\n      dup2\n      mstore\n        /* \"#utility.yul\":11191:11193   */\n      0x20\n        /* \"FlattenedVault.sol\":24942:25010  require(totalDeposited == 0 && totalShares == 0, \"Deposits pending\") */\n      0x04\n      dup3\n      add\n        /* \"#utility.yul\":11173:11194   */\n      mstore\n        /* \"#utility.yul\":11230:11232   */\n      0x10\n        /* \"#utility.yul\":11210:11228   */\n      0x24\n      dup3\n      add\n        /* \"#utility.yul\":11203:11233   */\n      mstore\n        /* \"#utility.yul\":11269:11287   */\n      0x4465706f736974732070656e64696e6700000000000000000000000000000000\n        /* \"#utility.yul\":11249:11267   */\n      0x44\n      dup3\n      add\n        /* \"#utility.yul\":11242:11288   */\n      mstore\n        /* \"#utility.yul\":11305:11323   */\n      0x64\n      add\n        /* \"FlattenedVault.sol\":24942:25010  require(totalDeposited == 0 && totalShares == 0, \"Deposits pending\") */\n      tag_65\n        /* \"#utility.yul\":10989:11329   */\n      jump\n        /* \"FlattenedVault.sol\":24942:25010  require(totalDeposited == 0 && totalShares == 0, \"Deposits pending\") */\n    tag_324:\n        /* \"FlattenedVault.sol\":25084:25107  to.call{value: bal}(\"\") */\n      mload(0x40)\n        /* \"FlattenedVault.sol\":25034:25055  address(this).balance */\n      selfbalance\n      swap1\n        /* \"FlattenedVault.sol\":25020:25031  uint256 bal */\n      0x00\n      swap1\n      sub(shl(0xa0, 0x01), 0x01)\n        /* \"FlattenedVault.sol\":25084:25091  to.call */\n      dup6\n      and\n      swap1\n        /* \"FlattenedVault.sol\":25034:25055  address(this).balance */\n      dup4\n      swap1\n        /* \"FlattenedVault.sol\":25020:25031  uint256 bal */\n      dup4\n        /* \"FlattenedVault.sol\":25084:25107  to.call{value: bal}(\"\") */\n      dup2\n        /* \"FlattenedVault.sol\":25020:25031  uint256 bal */\n      dup2\n        /* \"FlattenedVault.sol\":25084:25107  to.call{value: bal}(\"\") */\n      dup2\n        /* \"FlattenedVault.sol\":25034:25055  address(this).balance */\n      dup6\n        /* \"FlattenedVault.sol\":25084:25091  to.call */\n      dup8\n        /* \"FlattenedVault.sol\":25084:25107  to.call{value: bal}(\"\") */\n      gas\n      call\n      swap3\n      pop\n      pop\n      pop\n      returndatasize\n      dup1\n      0x00\n      dup2\n      eq\n      tag_331\n      jumpi\n      mload(0x40)\n      swap2\n      pop\n      and(add(returndatasize, 0x3f), not(0x1f))\n      dup3\n      add\n      0x40\n      mstore\n      returndatasize\n      dup3\n      mstore\n      returndatasize\n      0x00\n      0x20\n      dup5\n      add\n      returndatacopy\n      jump(tag_330)\n    tag_331:\n      0x60\n      swap2\n      pop\n    tag_330:\n      pop\n        /* \"FlattenedVault.sol\":25065:25107  (bool success, ) = to.call{value: bal}(\"\") */\n      pop\n      swap1\n      pop\n        /* \"FlattenedVault.sol\":25125:25132  success */\n      dup1\n        /* \"FlattenedVault.sol\":25117:25156  require(success, \"ETH transfer failed\") */\n      tag_332\n      jumpi\n      mload(0x40)\n      shl(0xe5, 0x461bcd)\n      dup2\n      mstore\n        /* \"#utility.yul\":11746:11748   */\n      0x20\n        /* \"FlattenedVault.sol\":25117:25156  require(success, \"ETH transfer failed\") */\n      0x04\n      dup3\n      add\n        /* \"#utility.yul\":11728:11749   */\n      mstore\n        /* \"#utility.yul\":11785:11787   */\n      0x13\n        /* \"#utility.yul\":11765:11783   */\n      0x24\n      dup3\n      add\n        /* \"#utility.yul\":11758:11788   */\n      mstore\n      shl(0x6a, 0x115512081d1c985b9cd9995c8819985a5b1959)\n        /* \"#utility.yul\":11804:11822   */\n      0x44\n      dup3\n      add\n        /* \"#utility.yul\":11797:11846   */\n      mstore\n        /* \"#utility.yul\":11863:11881   */\n      0x64\n      add\n        /* \"FlattenedVault.sol\":25117:25156  require(success, \"ETH transfer failed\") */\n      tag_65\n        /* \"#utility.yul\":11544:11887   */\n      jump\n        /* \"FlattenedVault.sol\":25117:25156  require(success, \"ETH transfer failed\") */\n    tag_332:\n        /* \"FlattenedVault.sol\":25197:25199  to */\n      dup4\n      sub(shl(0xa0, 0x01), 0x01)\n        /* \"FlattenedVault.sol\":25171:25235  AdminWithdraw(msg.sender, to, bal, block.timestamp, \"emergency\") */\n      and\n        /* \"FlattenedVault.sol\":25185:25195  msg.sender */\n      caller\n      sub(shl(0xa0, 0x01), 0x01)\n        /* \"FlattenedVault.sol\":25171:25235  AdminWithdraw(msg.sender, to, bal, block.timestamp, \"emergency\") */\n      and\n      0xa42a4a1652be46e2b44488aec0a260d6f641d4e01decddf6f2b2217922aec3a6\n        /* \"FlattenedVault.sol\":25201:25204  bal */\n      dup5\n        /* \"FlattenedVault.sol\":25206:25221  block.timestamp */\n      timestamp\n        /* \"FlattenedVault.sol\":25171:25235  AdminWithdraw(msg.sender, to, bal, block.timestamp, \"emergency\") */\n      mload(0x40)\n      tag_335\n      swap3\n      swap2\n      swap1\n        /* \"#utility.yul\":12132:12157   */\n      swap2\n      dup3\n      mstore\n        /* \"#utility.yul\":12188:12190   */\n      0x20\n        /* \"#utility.yul\":12173:12191   */\n      dup3\n      add\n        /* \"#utility.yul\":12166:12200   */\n      mstore\n        /* \"#utility.yul\":12236:12238   */\n      0x60\n        /* \"#utility.yul\":12231:12233   */\n      0x40\n        /* \"#utility.yul\":12216:12234   */\n      dup3\n      add\n        /* \"#utility.yul\":12209:12239   */\n      dup2\n      swap1\n      mstore\n        /* \"#utility.yul\":12275:12276   */\n      0x09\n        /* \"#utility.yul\":12255:12273   */\n      swap1\n      dup3\n      add\n        /* \"#utility.yul\":12248:12277   */\n      mstore\n        /* \"#utility.yul\":12314:12325   */\n      0x656d657267656e63790000000000000000000000000000000000000000000000\n        /* \"#utility.yul\":12308:12311   */\n      0x80\n        /* \"#utility.yul\":12293:12312   */\n      dup3\n      add\n        /* \"#utility.yul\":12286:12326   */\n      mstore\n        /* \"#utility.yul\":12358:12361   */\n      0xa0\n        /* \"#utility.yul\":12343:12362   */\n      add\n      swap1\n        /* \"#utility.yul\":11892:12368   */\n      jump\n        /* \"FlattenedVault.sol\":25171:25235  AdminWithdraw(msg.sender, to, bal, block.timestamp, \"emergency\") */\n    tag_335:\n      mload(0x40)\n      dup1\n      swap2\n      sub\n      swap1\n      log3\n        /* \"FlattenedVault.sol\":24881:25242  {... */\n      pop\n      pop\n        /* \"FlattenedVault.sol\":14736:14756  _nonReentrantAfter() */\n      tag_337\n        /* \"FlattenedVault.sol\":14051:14052  1 */\n      0x01\n        /* \"FlattenedVault.sol\":15262:15283  _status = NOT_ENTERED */\n      dup1\n      sstore\n        /* \"FlattenedVault.sol\":15082:15290  function _nonReentrantAfter() private {... */\n      jump\n        /* \"FlattenedVault.sol\":14736:14756  _nonReentrantAfter() */\n    tag_337:\n        /* \"FlattenedVault.sol\":24791:25242  function adminEmergencyWithdrawAll(address to) external onlyRole(ADMIN_ROLE) nonReentrant {... */\n      pop\n      pop\n      jump\t// out\n        /* \"FlattenedVault.sol\":10604:10849  function renounceRole(bytes32 role, address callerConfirmation) public virtual {... */\n    tag_136:\n      sub(shl(0xa0, 0x01), 0x01)\n        /* \"FlattenedVault.sol\":10697:10731  callerConfirmation != _msgSender() */\n      dup2\n      and\n        /* \"FlattenedVault.sol\":3875:3885  msg.sender */\n      caller\n        /* \"FlattenedVault.sol\":10697:10731  callerConfirmation != _msgSender() */\n      eq\n        /* \"FlattenedVault.sol\":10693:10795  if (callerConfirmation != _msgSender()) {... */\n      tag_341\n      jumpi\n        /* \"FlattenedVault.sol\":10754:10784  AccessControlBadConfirmation() */\n      mload(0x40)\n      shl(0xe1, 0x334bd919)\n      dup2\n      mstore\n      0x04\n      add\n      mload(0x40)\n      dup1\n      swap2\n      sub\n      swap1\n      revert\n        /* \"FlattenedVault.sol\":10693:10795  if (callerConfirmation != _msgSender()) {... */\n    tag_341:\n        /* \"FlattenedVault.sol\":10805:10842  _revokeRole(role, callerConfirmation) */\n      tag_342\n        /* \"FlattenedVault.sol\":10817:10821  role */\n      dup3\n        /* \"FlattenedVault.sol\":10823:10841  callerConfirmation */\n      dup3\n        /* \"FlattenedVault.sol\":10805:10816  _revokeRole */\n      tag_343\n        /* \"FlattenedVault.sol\":10805:10842  _revokeRole(role, callerConfirmation) */\n      jump\t// in\n    tag_342:\n      pop\n        /* \"FlattenedVault.sol\":10604:10849  function renounceRole(bytes32 role, address callerConfirmation) public virtual {... */\n      pop\n      pop\n      jump\t// out\n        /* \"FlattenedVault.sol\":20198:20451  function injectUtility() external payable onlyRole(UTILITY_INJECTOR_ROLE) whenNotPaused {... */\n    tag_147:\n        /* \"FlattenedVault.sol\":16599:16633  keccak256(\"UTILITY_INJECTOR_ROLE\") */\n      0xf60566c40710959d8d30b6067ce3c53c757bec78eecb0e46b83c7f8194ffae37\n        /* \"FlattenedVault.sol\":7740:7756  _checkRole(role) */\n      tag_345\n        /* \"FlattenedVault.sol\":7751:7755  role */\n      dup2\n        /* \"FlattenedVault.sol\":7740:7750  _checkRole */\n      tag_280\n        /* \"FlattenedVault.sol\":7740:7756  _checkRole(role) */\n      jump\t// in\n    tag_345:\n        /* \"FlattenedVault.sol\":17963:17969  paused */\n      and(0xff, sload(0x02))\n        /* \"FlattenedVault.sol\":17962:17969  !paused */\n      iszero\n        /* \"FlattenedVault.sol\":17954:17986  require(!paused, \"Vault paused\") */\n      tag_347\n      jumpi\n      mload(0x40)\n      shl(0xe5, 0x461bcd)\n      dup2\n      mstore\n        /* \"#utility.yul\":10245:10247   */\n      0x20\n        /* \"FlattenedVault.sol\":17954:17986  require(!paused, \"Vault paused\") */\n      0x04\n      dup3\n      add\n        /* \"#utility.yul\":10227:10248   */\n      mstore\n        /* \"#utility.yul\":10284:10286   */\n      0x0c\n        /* \"#utility.yul\":10264:10282   */\n      0x24\n      dup3\n      add\n        /* \"#utility.yul\":10257:10287   */\n      mstore\n      shl(0xa2, 0x15985d5b1d081c185d5cd959)\n        /* \"#utility.yul\":10303:10321   */\n      0x44\n      dup3\n      add\n        /* \"#utility.yul\":10296:10338   */\n      mstore\n        /* \"#utility.yul\":10355:10373   */\n      0x64\n      add\n        /* \"FlattenedVault.sol\":17954:17986  require(!paused, \"Vault paused\") */\n      tag_65\n        /* \"#utility.yul\":10043:10379   */\n      jump\n        /* \"FlattenedVault.sol\":17954:17986  require(!paused, \"Vault paused\") */\n    tag_347:\n        /* \"FlattenedVault.sol\":20316:20317  0 */\n      0x00\n        /* \"FlattenedVault.sol\":20304:20313  msg.value */\n      callvalue\n        /* \"FlattenedVault.sol\":20304:20317  msg.value > 0 */\n      gt\n        /* \"FlattenedVault.sol\":20296:20333  require(msg.value > 0, \"No ETH sent\") */\n      tag_350\n      jumpi\n      mload(0x40)\n      shl(0xe5, 0x461bcd)\n      dup2\n      mstore\n        /* \"#utility.yul\":12575:12577   */\n      0x20\n        /* \"FlattenedVault.sol\":20296:20333  require(msg.value > 0, \"No ETH sent\") */\n      0x04\n      dup3\n      add\n        /* \"#utility.yul\":12557:12578   */\n      mstore\n        /* \"#utility.yul\":12614:12616   */\n      0x0b\n        /* \"#utility.yul\":12594:12612   */\n      0x24\n      dup3\n      add\n        /* \"#utility.yul\":12587:12617   */\n      mstore\n      shl(0xaa, 0x139bc8115512081cd95b9d)\n        /* \"#utility.yul\":12633:12651   */\n      0x44\n      dup3\n      add\n        /* \"#utility.yul\":12626:12667   */\n      mstore\n        /* \"#utility.yul\":12684:12702   */\n      0x64\n      add\n        /* \"FlattenedVault.sol\":20296:20333  require(msg.value > 0, \"No ETH sent\") */\n      tag_65\n        /* \"#utility.yul\":12373:12708   */\n      jump\n        /* \"FlattenedVault.sol\":20296:20333  require(msg.value > 0, \"No ETH sent\") */\n    tag_350:\n        /* \"FlattenedVault.sol\":20359:20368  msg.value */\n      callvalue\n        /* \"FlattenedVault.sol\":20343:20355  totalUtility */\n      0x06\n      0x00\n        /* \"FlattenedVault.sol\":20343:20368  totalUtility += msg.value */\n      dup3\n      dup3\n      sload\n      tag_353\n      swap2\n      swap1\n      tag_354\n      jump\t// in\n    tag_353:\n      swap1\n      swap2\n      sstore\n      pop\n      pop\n        /* \"FlattenedVault.sol\":20383:20444  AdminUtilityInjection(msg.sender, msg.value, block.timestamp) */\n      0x40\n      dup1\n      mload\n        /* \"FlattenedVault.sol\":20417:20426  msg.value */\n      callvalue\n        /* \"#utility.yul\":13149:13174   */\n      dup2\n      mstore\n        /* \"FlattenedVault.sol\":20428:20443  block.timestamp */\n      timestamp\n        /* \"#utility.yul\":13205:13207   */\n      0x20\n        /* \"#utility.yul\":13190:13208   */\n      dup3\n      add\n        /* \"#utility.yul\":13183:13217   */\n      mstore\n        /* \"FlattenedVault.sol\":20405:20415  msg.sender */\n      caller\n      swap2\n        /* \"FlattenedVault.sol\":20383:20444  AdminUtilityInjection(msg.sender, msg.value, block.timestamp) */\n      0xb717fe2b7c9b70bd4f64a85e911a9e4261c90db87aab224da0b8324f846c3d71\n      swap2\n        /* \"#utility.yul\":13122:13140   */\n      add\n        /* \"FlattenedVault.sol\":20383:20444  AdminUtilityInjection(msg.sender, msg.value, block.timestamp) */\n      mload(0x40)\n      dup1\n      swap2\n      sub\n      swap1\n      log2\n        /* \"FlattenedVault.sol\":20198:20451  function injectUtility() external payable onlyRole(UTILITY_INJECTOR_ROLE) whenNotPaused {... */\n      pop\n      jump\t// out\n        /* \"FlattenedVault.sol\":18749:19096  function setWhitelistBatch(address[] calldata users, bool[] calldata statuses) external onlyRole(ADMIN_ROLE) {... */\n    tag_152:\n        /* \"FlattenedVault.sol\":16382:16405  keccak256(\"ADMIN_ROLE\") */\n      0xa49807205ce4d355092ef5a8a18f56e8913cf4a201fbe287825b095693c21775\n        /* \"FlattenedVault.sol\":7740:7756  _checkRole(role) */\n      tag_358\n        /* \"FlattenedVault.sol\":7751:7755  role */\n      dup2\n        /* \"FlattenedVault.sol\":7740:7750  _checkRole */\n      tag_280\n        /* \"FlattenedVault.sol\":7740:7756  _checkRole(role) */\n      jump\t// in\n    tag_358:\n        /* \"FlattenedVault.sol\":18876:18907  users.length == statuses.length */\n      dup4\n      dup3\n      eq\n        /* \"FlattenedVault.sol\":18868:18920  require(users.length == statuses.length, \"Mismatch\") */\n      tag_360\n      jumpi\n      mload(0x40)\n      shl(0xe5, 0x461bcd)\n      dup2\n      mstore\n        /* \"#utility.yul\":13430:13432   */\n      0x20\n        /* \"FlattenedVault.sol\":18868:18920  require(users.length == statuses.length, \"Mismatch\") */\n      0x04\n      dup3\n      add\n        /* \"#utility.yul\":13412:13433   */\n      mstore\n        /* \"#utility.yul\":13469:13470   */\n      0x08\n        /* \"#utility.yul\":13449:13467   */\n      0x24\n      dup3\n      add\n        /* \"#utility.yul\":13442:13471   */\n      mstore\n        /* \"#utility.yul\":13507:13517   */\n      0x4d69736d61746368000000000000000000000000000000000000000000000000\n        /* \"#utility.yul\":13487:13505   */\n      0x44\n      dup3\n      add\n        /* \"#utility.yul\":13480:13518   */\n      mstore\n        /* \"#utility.yul\":13535:13553   */\n      0x64\n      add\n        /* \"FlattenedVault.sol\":18868:18920  require(users.length == statuses.length, \"Mismatch\") */\n      tag_65\n        /* \"#utility.yul\":13228:13559   */\n      jump\n        /* \"FlattenedVault.sol\":18868:18920  require(users.length == statuses.length, \"Mismatch\") */\n    tag_360:\n        /* \"FlattenedVault.sol\":18935:18944  uint256 i */\n      0x00\n        /* \"FlattenedVault.sol\":18930:19090  for (uint256 i=0; i < users.length; i++) {... */\n    tag_363:\n        /* \"FlattenedVault.sol\":18948:18964  i < users.length */\n      dup5\n      dup2\n      lt\n        /* \"FlattenedVault.sol\":18930:19090  for (uint256 i=0; i < users.length; i++) {... */\n      iszero\n      tag_364\n      jumpi\n        /* \"FlattenedVault.sol\":19011:19019  statuses */\n      dup4\n      dup4\n        /* \"FlattenedVault.sol\":19020:19021  i */\n      dup3\n        /* \"FlattenedVault.sol\":19011:19022  statuses[i] */\n      dup2\n      dup2\n      lt\n      tag_367\n      jumpi\n      tag_367\n      tag_304\n      jump\t// in\n    tag_367:\n      swap1\n      pop\n      0x20\n      mul\n      add\n      0x20\n      dup2\n      add\n      swap1\n      tag_368\n      swap2\n      swap1\n      tag_77\n      jump\t// in\n    tag_368:\n        /* \"FlattenedVault.sol\":18985:18998  isWhitelisted */\n      0x08\n        /* \"FlattenedVault.sol\":18985:19008  isWhitelisted[users[i]] */\n      0x00\n        /* \"FlattenedVault.sol\":18999:19004  users */\n      dup9\n      dup9\n        /* \"FlattenedVault.sol\":19005:19006  i */\n      dup6\n        /* \"FlattenedVault.sol\":18999:19007  users[i] */\n      dup2\n      dup2\n      lt\n      tag_370\n      jumpi\n      tag_370\n      tag_304\n      jump\t// in\n    tag_370:\n      swap1\n      pop\n      0x20\n      mul\n      add\n      0x20\n      dup2\n      add\n      swap1\n      tag_371\n      swap2\n      swap1\n      tag_131\n      jump\t// in\n    tag_371:\n      sub(shl(0xa0, 0x01), 0x01)\n        /* \"FlattenedVault.sol\":18985:19008  isWhitelisted[users[i]] */\n      and\n      dup2\n      mstore\n      0x20\n      dup2\n      add\n      swap2\n      swap1\n      swap2\n      mstore\n      0x40\n      add\n      0x00\n      keccak256\n        /* \"FlattenedVault.sol\":18985:19022  isWhitelisted[users[i]] = statuses[i] */\n      dup1\n      sload\n      not(0xff)\n      and\n      swap2\n      iszero\n      iszero\n      swap2\n      swap1\n      swap2\n      or\n      swap1\n      sstore\n        /* \"FlattenedVault.sol\":19057:19062  users */\n      dup6\n      dup6\n        /* \"FlattenedVault.sol\":19063:19064  i */\n      dup3\n        /* \"FlattenedVault.sol\":19057:19065  users[i] */\n      dup2\n      dup2\n      lt\n      tag_373\n      jumpi\n      tag_373\n      tag_304\n      jump\t// in\n    tag_373:\n      swap1\n      pop\n      0x20\n      mul\n      add\n      0x20\n      dup2\n      add\n      swap1\n      tag_374\n      swap2\n      swap1\n      tag_131\n      jump\t// in\n    tag_374:\n      sub(shl(0xa0, 0x01), 0x01)\n        /* \"FlattenedVault.sol\":19041:19079  UserWhitelisted(users[i], statuses[i]) */\n      and\n      0x995d2434d36c9bceaab42c56efe51e8ffe41fd11cabefd9e2cb83700d8b2035e\n        /* \"FlattenedVault.sol\":19067:19075  statuses */\n      dup6\n      dup6\n        /* \"FlattenedVault.sol\":19076:19077  i */\n      dup5\n        /* \"FlattenedVault.sol\":19067:19078  statuses[i] */\n      dup2\n      dup2\n      lt\n      tag_376\n      jumpi\n      tag_376\n      tag_304\n      jump\t// in\n    tag_376:\n      swap1\n      pop\n      0x20\n      mul\n      add\n      0x20\n      dup2\n      add\n      swap1\n      tag_377\n      swap2\n      swap1\n      tag_77\n      jump\t// in\n    tag_377:\n        /* \"FlattenedVault.sol\":19041:19079  UserWhitelisted(users[i], statuses[i]) */\n      mload(0x40)\n        /* \"#utility.yul\":817:831   */\n      swap1\n      iszero\n        /* \"#utility.yul\":810:832   */\n      iszero\n        /* \"#utility.yul\":792:833   */\n      dup2\n      mstore\n        /* \"#utility.yul\":780:782   */\n      0x20\n        /* \"#utility.yul\":765:783   */\n      add\n        /* \"FlattenedVault.sol\":19041:19079  UserWhitelisted(users[i], statuses[i]) */\n      mload(0x40)\n      dup1\n      swap2\n      sub\n      swap1\n      log2\n        /* \"FlattenedVault.sol\":18966:18969  i++ */\n      0x01\n      add\n        /* \"FlattenedVault.sol\":18930:19090  for (uint256 i=0; i < users.length; i++) {... */\n      jump(tag_363)\n    tag_364:\n      pop\n        /* \"FlattenedVault.sol\":18749:19096  function setWhitelistBatch(address[] calldata users, bool[] calldata statuses) external onlyRole(ADMIN_ROLE) {... */\n      pop\n      pop\n      pop\n      pop\n      pop\n      jump\t// out\n        /* \"FlattenedVault.sol\":27771:28128  function getAllUsers(uint256 start, uint256 limit) public view returns (address[] memory users) {... */\n    tag_157:\n        /* \"FlattenedVault.sol\":27893:27901  allUsers */\n      0x09\n        /* \"FlattenedVault.sol\":27893:27908  allUsers.length */\n      sload\n        /* \"FlattenedVault.sol\":27843:27865  address[] memory users */\n      0x60\n      swap1\n        /* \"FlattenedVault.sol\":27885:27908  start < allUsers.length */\n      dup4\n      lt\n        /* \"FlattenedVault.sol\":27877:27922  require(start < allUsers.length, \"start out\") */\n      tag_380\n      jumpi\n      mload(0x40)\n      shl(0xe5, 0x461bcd)\n      dup2\n      mstore\n        /* \"#utility.yul\":13766:13768   */\n      0x20\n        /* \"FlattenedVault.sol\":27877:27922  require(start < allUsers.length, \"start out\") */\n      0x04\n      dup3\n      add\n        /* \"#utility.yul\":13748:13769   */\n      mstore\n        /* \"#utility.yul\":13805:13806   */\n      0x09\n        /* \"#utility.yul\":13785:13803   */\n      0x24\n      dup3\n      add\n        /* \"#utility.yul\":13778:13807   */\n      mstore\n        /* \"#utility.yul\":13843:13854   */\n      0x7374617274206f75740000000000000000000000000000000000000000000000\n        /* \"#utility.yul\":13823:13841   */\n      0x44\n      dup3\n      add\n        /* \"#utility.yul\":13816:13855   */\n      mstore\n        /* \"#utility.yul\":13872:13890   */\n      0x64\n      add\n        /* \"FlattenedVault.sol\":27877:27922  require(start < allUsers.length, \"start out\") */\n      tag_65\n        /* \"#utility.yul\":13564:13896   */\n      jump\n        /* \"FlattenedVault.sol\":27877:27922  require(start < allUsers.length, \"start out\") */\n    tag_380:\n        /* \"FlattenedVault.sol\":27975:27983  allUsers */\n      0x09\n        /* \"FlattenedVault.sol\":27975:27990  allUsers.length */\n      sload\n        /* \"FlattenedVault.sol\":27944:27949  limit */\n      dup3\n      swap1\n        /* \"FlattenedVault.sol\":27963:27972  start + l */\n      tag_383\n        /* \"FlattenedVault.sol\":27944:27949  limit */\n      dup3\n        /* \"FlattenedVault.sol\":27963:27968  start */\n      dup7\n        /* \"FlattenedVault.sol\":27963:27972  start + l */\n      tag_354\n      jump\t// in\n    tag_383:\n        /* \"FlattenedVault.sol\":27963:27990  start + l > allUsers.length */\n      gt\n        /* \"FlattenedVault.sol\":27959:28019  if (start + l > allUsers.length) l = allUsers.length - start */\n      iszero\n      tag_384\n      jumpi\n        /* \"FlattenedVault.sol\":27996:28004  allUsers */\n      0x09\n        /* \"FlattenedVault.sol\":27996:28011  allUsers.length */\n      sload\n        /* \"FlattenedVault.sol\":27996:28019  allUsers.length - start */\n      tag_385\n      swap1\n        /* \"FlattenedVault.sol\":28014:28019  start */\n      dup6\n      swap1\n        /* \"FlattenedVault.sol\":27996:28019  allUsers.length - start */\n      tag_386\n      jump\t// in\n    tag_385:\n        /* \"FlattenedVault.sol\":27992:28019  l = allUsers.length - start */\n      swap1\n      pop\n        /* \"FlattenedVault.sol\":27959:28019  if (start + l > allUsers.length) l = allUsers.length - start */\n    tag_384:\n        /* \"FlattenedVault.sol\":28051:28052  l */\n      dup1\n        /* \"FlattenedVault.sol\":28037:28053  new address[](l) */\n      0xffffffffffffffff\n      dup2\n      gt\n      iszero\n      tag_388\n      jumpi\n      tag_388\n      tag_300\n      jump\t// in\n    tag_388:\n      mload(0x40)\n      swap1\n      dup1\n      dup3\n      mstore\n      dup1\n      0x20\n      mul\n      0x20\n      add\n      dup3\n      add\n      0x40\n      mstore\n      dup1\n      iszero\n      tag_389\n      jumpi\n      dup2\n      0x20\n      add\n      0x20\n      dup3\n      mul\n      dup1\n      calldatasize\n      dup4\n      calldatacopy\n      add\n      swap1\n      pop\n    tag_389:\n      pop\n        /* \"FlattenedVault.sol\":28029:28053  users = new address[](l) */\n      swap2\n      pop\n        /* \"FlattenedVault.sol\":28068:28077  uint256 i */\n      0x00\n        /* \"FlattenedVault.sol\":28063:28121  for (uint256 i=0; i < l; i++) users[i] = allUsers[start+i] */\n    tag_390:\n        /* \"FlattenedVault.sol\":28085:28086  l */\n      dup2\n        /* \"FlattenedVault.sol\":28081:28082  i */\n      dup2\n        /* \"FlattenedVault.sol\":28081:28086  i < l */\n      lt\n        /* \"FlattenedVault.sol\":28063:28121  for (uint256 i=0; i < l; i++) users[i] = allUsers[start+i] */\n      iszero\n      tag_391\n      jumpi\n        /* \"FlattenedVault.sol\":28104:28112  allUsers */\n      0x09\n        /* \"FlattenedVault.sol\":28113:28120  start+i */\n      tag_393\n        /* \"FlattenedVault.sol\":28119:28120  i */\n      dup3\n        /* \"FlattenedVault.sol\":28113:28118  start */\n      dup8\n        /* \"FlattenedVault.sol\":28113:28120  start+i */\n      tag_354\n      jump\t// in\n    tag_393:\n        /* \"FlattenedVault.sol\":28104:28121  allUsers[start+i] */\n      dup2\n      sload\n      dup2\n      lt\n      tag_395\n      jumpi\n      tag_395\n      tag_304\n      jump\t// in\n    tag_395:\n      swap1\n      0x00\n      mstore\n      keccak256(0x00, 0x20)\n      add\n      0x00\n      swap1\n      sload\n      swap1\n      0x0100\n      exp\n      swap1\n      div\n      sub(shl(0xa0, 0x01), 0x01)\n      and\n        /* \"FlattenedVault.sol\":28093:28098  users */\n      dup4\n        /* \"FlattenedVault.sol\":28099:28100  i */\n      dup3\n        /* \"FlattenedVault.sol\":28093:28101  users[i] */\n      dup2\n      mload\n      dup2\n      lt\n      tag_398\n      jumpi\n      tag_398\n      tag_304\n      jump\t// in\n    tag_398:\n      sub(shl(0xa0, 0x01), 0x01)\n        /* \"FlattenedVault.sol\":28093:28121  users[i] = allUsers[start+i] */\n      swap1\n      swap3\n      and\n        /* \"FlattenedVault.sol\":28093:28101  users[i] */\n      0x20\n      swap3\n      dup4\n      mul\n      swap2\n      swap1\n      swap2\n      add\n      swap1\n      swap2\n      add\n        /* \"FlattenedVault.sol\":28093:28121  users[i] = allUsers[start+i] */\n      mstore\n        /* \"FlattenedVault.sol\":28088:28091  i++ */\n      0x01\n      add\n        /* \"FlattenedVault.sol\":28063:28121  for (uint256 i=0; i < l; i++) users[i] = allUsers[start+i] */\n      jump(tag_390)\n    tag_391:\n      pop\n        /* \"FlattenedVault.sol\":27867:28128  {... */\n      pop\n        /* \"FlattenedVault.sol\":27771:28128  function getAllUsers(uint256 start, uint256 limit) public view returns (address[] memory users) {... */\n      swap3\n      swap2\n      pop\n      pop\n      jump\t// out\n        /* \"FlattenedVault.sol\":18576:18744  function setWhitelist(address user, bool status) external onlyRole(ADMIN_ROLE) {... */\n    tag_168:\n        /* \"FlattenedVault.sol\":16382:16405  keccak256(\"ADMIN_ROLE\") */\n      0xa49807205ce4d355092ef5a8a18f56e8913cf4a201fbe287825b095693c21775\n        /* \"FlattenedVault.sol\":7740:7756  _checkRole(role) */\n      tag_400\n        /* \"FlattenedVault.sol\":7751:7755  role */\n      dup2\n        /* \"FlattenedVault.sol\":7740:7750  _checkRole */\n      tag_280\n        /* \"FlattenedVault.sol\":7740:7756  _checkRole(role) */\n      jump\t// in\n    tag_400:\n      sub(shl(0xa0, 0x01), 0x01)\n        /* \"FlattenedVault.sol\":18665:18684  isWhitelisted[user] */\n      dup4\n      and\n      0x00\n      dup2\n      dup2\n      mstore\n        /* \"FlattenedVault.sol\":18665:18678  isWhitelisted */\n      0x08\n        /* \"FlattenedVault.sol\":18665:18684  isWhitelisted[user] */\n      0x20\n      swap1\n      dup2\n      mstore\n      0x40\n      swap2\n      dup3\n      swap1\n      keccak256\n        /* \"FlattenedVault.sol\":18665:18693  isWhitelisted[user] = status */\n      dup1\n      sload\n      not(0xff)\n      and\n      dup7\n      iszero\n      iszero\n      swap1\n      dup2\n      or\n      swap1\n      swap2\n      sstore\n        /* \"FlattenedVault.sol\":18708:18737  UserWhitelisted(user, status) */\n      swap2\n      mload\n        /* \"#utility.yul\":792:833   */\n      swap2\n      dup3\n      mstore\n        /* \"FlattenedVault.sol\":18708:18737  UserWhitelisted(user, status) */\n      0x995d2434d36c9bceaab42c56efe51e8ffe41fd11cabefd9e2cb83700d8b2035e\n      swap2\n        /* \"#utility.yul\":765:783   */\n      add\n        /* \"FlattenedVault.sol\":18708:18737  UserWhitelisted(user, status) */\n      mload(0x40)\n      dup1\n      swap2\n      sub\n      swap1\n      log2\n        /* \"FlattenedVault.sol\":18576:18744  function setWhitelist(address user, bool status) external onlyRole(ADMIN_ROLE) {... */\n      pop\n      pop\n      pop\n      jump\t// out\n        /* \"FlattenedVault.sol\":25270:26068  function getUnlockedDeposits(address user) external view returns (uint256 unlockedAmount, uint256[] memory unlockedIndexes) {... */\n    tag_184:\n      sub(shl(0xa0, 0x01), 0x01)\n        /* \"FlattenedVault.sol\":25437:25455  userDeposits[user] */\n      dup2\n      and\n        /* \"FlattenedVault.sol\":25336:25358  uint256 unlockedAmount */\n      0x00\n        /* \"FlattenedVault.sol\":25437:25455  userDeposits[user] */\n      swap1\n      dup2\n      mstore\n        /* \"FlattenedVault.sol\":25437:25449  userDeposits */\n      0x07\n        /* \"FlattenedVault.sol\":25437:25455  userDeposits[user] */\n      0x20\n      mstore\n      0x40\n      dup2\n      keccak256\n        /* \"FlattenedVault.sol\":25520:25535  deposits.length */\n      dup1\n      sload\n        /* \"FlattenedVault.sol\":25360:25392  uint256[] memory unlockedIndexes */\n      0x60\n      swap2\n        /* \"FlattenedVault.sol\":25437:25455  userDeposits[user] */\n      swap1\n        /* \"FlattenedVault.sol\":25336:25358  uint256 unlockedAmount */\n      dup4\n      swap1\n        /* \"FlattenedVault.sol\":25506:25536  new uint256[](deposits.length) */\n      0xffffffffffffffff\n      dup2\n      gt\n      iszero\n      tag_405\n      jumpi\n      tag_405\n      tag_300\n      jump\t// in\n    tag_405:\n      mload(0x40)\n      swap1\n      dup1\n      dup3\n      mstore\n      dup1\n      0x20\n      mul\n      0x20\n      add\n      dup3\n      add\n      0x40\n      mstore\n      dup1\n      iszero\n      tag_406\n      jumpi\n      dup2\n      0x20\n      add\n      0x20\n      dup3\n      mul\n      dup1\n      calldatasize\n      dup4\n      calldatacopy\n      add\n      swap1\n      pop\n    tag_406:\n      pop\n        /* \"FlattenedVault.sol\":25488:25536  unlockedIndexes = new uint256[](deposits.length) */\n      swap3\n      pop\n        /* \"FlattenedVault.sol\":25551:25560  uint256 i */\n      0x00\n        /* \"FlattenedVault.sol\":25546:26010  for (uint256 i = 0; i < deposits.length; i++) {... */\n    tag_407:\n        /* \"FlattenedVault.sol\":25570:25585  deposits.length */\n      dup3\n      sload\n        /* \"FlattenedVault.sol\":25566:25585  i < deposits.length */\n      dup2\n      lt\n        /* \"FlattenedVault.sol\":25546:26010  for (uint256 i = 0; i < deposits.length; i++) {... */\n      iszero\n      tag_408\n      jumpi\n        /* \"FlattenedVault.sol\":25606:25629  DepositInfo storage dep */\n      0x00\n        /* \"FlattenedVault.sol\":25632:25640  deposits */\n      dup4\n        /* \"FlattenedVault.sol\":25641:25642  i */\n      dup3\n        /* \"FlattenedVault.sol\":25632:25643  deposits[i] */\n      dup2\n      sload\n      dup2\n      lt\n      tag_411\n      jumpi\n      tag_411\n      tag_304\n      jump\t// in\n    tag_411:\n      0x00\n      swap2\n      dup3\n      mstore\n      0x20\n      dup3\n      keccak256\n        /* \"FlattenedVault.sol\":25674:25687  dep.withdrawn */\n      0x03\n        /* \"FlattenedVault.sol\":25632:25643  deposits[i] */\n      0x04\n      swap1\n      swap3\n      mul\n      add\n        /* \"FlattenedVault.sol\":25674:25687  dep.withdrawn */\n      swap1\n      dup2\n      add\n      sload\n        /* \"FlattenedVault.sol\":25632:25643  deposits[i] */\n      swap1\n      swap3\n      pop\n        /* \"FlattenedVault.sol\":25674:25687  dep.withdrawn */\n      0xff\n      and\n        /* \"FlattenedVault.sol\":25673:25687  !dep.withdrawn */\n      iszero\n        /* \"FlattenedVault.sol\":25673:25865  !dep.withdrawn &&... */\n      dup1\n      iszero\n      tag_417\n      jumpi\n      pop\n        /* \"FlattenedVault.sol\":15962:15970  180 days */\n      0xed4e00\n        /* \"FlattenedVault.sol\":25727:25730  dep */\n      dup3\n        /* \"FlattenedVault.sol\":25727:25740  dep.timestamp */\n      0x01\n      add\n      sload\n        /* \"FlattenedVault.sol\":25727:25756  dep.timestamp + LOCKUP_PERIOD */\n      tag_414\n      swap2\n      swap1\n      tag_354\n      jump\t// in\n    tag_414:\n        /* \"FlattenedVault.sol\":25708:25723  block.timestamp */\n      timestamp\n        /* \"FlattenedVault.sol\":25708:25756  block.timestamp >= dep.timestamp + LOCKUP_PERIOD */\n      lt\n      iszero\n        /* \"FlattenedVault.sol\":25708:25795  block.timestamp >= dep.timestamp + LOCKUP_PERIOD ||... */\n      dup1\n      tag_415\n      jumpi\n      pop\n        /* \"FlattenedVault.sol\":25776:25795  dep.unlockedByAdmin */\n      0x03\n      dup3\n      add\n      sload\n      0x0100\n      swap1\n      div\n      0xff\n      and\n        /* \"FlattenedVault.sol\":25708:25795  block.timestamp >= dep.timestamp + LOCKUP_PERIOD ||... */\n    tag_415:\n        /* \"FlattenedVault.sol\":25708:25864  block.timestamp >= dep.timestamp + LOCKUP_PERIOD ||... */\n      dup1\n      tag_417\n      jumpi\n      pop\n        /* \"FlattenedVault.sol\":25816:25840  globalLiquidationEnabled */\n      sload(0x02)\n      0x010000\n      swap1\n      div\n      0xff\n      and\n        /* \"FlattenedVault.sol\":25816:25863  globalLiquidationEnabled && dep.fullyRedeemable */\n      dup1\n      iszero\n      tag_417\n      jumpi\n      pop\n        /* \"FlattenedVault.sol\":25844:25863  dep.fullyRedeemable */\n      0x03\n      dup3\n      add\n      sload\n      0x010000\n      swap1\n      div\n      0xff\n      and\n        /* \"FlattenedVault.sol\":25816:25863  globalLiquidationEnabled && dep.fullyRedeemable */\n    tag_417:\n        /* \"FlattenedVault.sol\":25657:25865  bool unlocked = !dep.withdrawn &&... */\n      swap1\n      pop\n        /* \"FlattenedVault.sol\":25883:25891  unlocked */\n      dup1\n        /* \"FlattenedVault.sol\":25879:26000  if (unlocked) {... */\n      iszero\n      tag_418\n      jumpi\n        /* \"FlattenedVault.sol\":25929:25939  dep.amount */\n      dup2\n      sload\n        /* \"FlattenedVault.sol\":25911:25939  unlockedAmount += dep.amount */\n      tag_419\n      swap1\n      dup9\n      tag_354\n      jump\t// in\n    tag_419:\n      swap7\n      pop\n        /* \"FlattenedVault.sol\":25984:25985  i */\n      dup3\n        /* \"FlattenedVault.sol\":25957:25972  unlockedIndexes */\n      dup7\n        /* \"FlattenedVault.sol\":25973:25980  count++ */\n      dup6\n      tag_420\n      dup2\n      tag_421\n      jump\t// in\n    tag_420:\n      swap7\n      pop\n        /* \"FlattenedVault.sol\":25957:25981  unlockedIndexes[count++] */\n      dup2\n      mload\n      dup2\n      lt\n      tag_423\n      jumpi\n      tag_423\n      tag_304\n      jump\t// in\n    tag_423:\n      0x20\n      mul\n      0x20\n      add\n      add\n        /* \"FlattenedVault.sol\":25957:25985  unlockedIndexes[count++] = i */\n      dup2\n      dup2\n      mstore\n      pop\n      pop\n        /* \"FlattenedVault.sol\":25879:26000  if (unlocked) {... */\n    tag_418:\n      pop\n      pop\n        /* \"FlattenedVault.sol\":25587:25590  i++ */\n      0x01\n      add\n        /* \"FlattenedVault.sol\":25546:26010  for (uint256 i = 0; i < deposits.length; i++) {... */\n      jump(tag_407)\n    tag_408:\n      pop\n        /* \"FlattenedVault.sol\":26054:26059  count */\n      dup1\n        /* \"FlattenedVault.sol\":26037:26052  unlockedIndexes */\n      dup4\n        /* \"FlattenedVault.sol\":26030:26060  mstore(unlockedIndexes, count) */\n      mstore\n        /* \"FlattenedVault.sol\":26028:26062  { mstore(unlockedIndexes, count) } */\n      pop\n      pop\n        /* \"FlattenedVault.sol\":25270:26068  function getUnlockedDeposits(address user) external view returns (uint256 unlockedAmount, uint256[] memory unlockedIndexes) {... */\n      swap2\n      pop\n      swap2\n      jump\t// out\n        /* \"FlattenedVault.sol\":21488:21633  function batchWithdraw(uint256[] calldata depositIndices) public nonReentrant whenNotPaused {... */\n    tag_191:\n        /* \"FlattenedVault.sol\":14694:14715  _nonReentrantBefore() */\n      tag_425\n        /* \"FlattenedVault.sol\":14694:14713  _nonReentrantBefore */\n      tag_292\n        /* \"FlattenedVault.sol\":14694:14715  _nonReentrantBefore() */\n      jump\t// in\n    tag_425:\n        /* \"FlattenedVault.sol\":17963:17969  paused */\n      and(0xff, sload(0x02))\n        /* \"FlattenedVault.sol\":17962:17969  !paused */\n      iszero\n        /* \"FlattenedVault.sol\":17954:17986  require(!paused, \"Vault paused\") */\n      tag_427\n      jumpi\n      mload(0x40)\n      shl(0xe5, 0x461bcd)\n      dup2\n      mstore\n        /* \"#utility.yul\":10245:10247   */\n      0x20\n        /* \"FlattenedVault.sol\":17954:17986  require(!paused, \"Vault paused\") */\n      0x04\n      dup3\n      add\n        /* \"#utility.yul\":10227:10248   */\n      mstore\n        /* \"#utility.yul\":10284:10286   */\n      0x0c\n        /* \"#utility.yul\":10264:10282   */\n      0x24\n      dup3\n      add\n        /* \"#utility.yul\":10257:10287   */\n      mstore\n      shl(0xa2, 0x15985d5b1d081c185d5cd959)\n        /* \"#utility.yul\":10303:10321   */\n      0x44\n      dup3\n      add\n        /* \"#utility.yul\":10296:10338   */\n      mstore\n        /* \"#utility.yul\":10355:10373   */\n      0x64\n      add\n        /* \"FlattenedVault.sol\":17954:17986  require(!paused, \"Vault paused\") */\n      tag_65\n        /* \"#utility.yul\":10043:10379   */\n      jump\n        /* \"FlattenedVault.sol\":17954:17986  require(!paused, \"Vault paused\") */\n    tag_427:\n        /* \"FlattenedVault.sol\":21590:21626  _batchWithdrawMemory(depositIndices) */\n      tag_430\n        /* \"FlattenedVault.sol\":21611:21625  depositIndices */\n      dup3\n      dup3\n        /* \"FlattenedVault.sol\":21590:21626  _batchWithdrawMemory(depositIndices) */\n      dup1\n      dup1\n      0x20\n      mul\n      0x20\n      add\n      mload(0x40)\n      swap1\n      dup2\n      add\n      0x40\n      mstore\n      dup1\n      swap4\n      swap3\n      swap2\n      swap1\n      dup2\n      dup2\n      mstore\n      0x20\n      add\n      dup4\n      dup4\n      0x20\n      mul\n      dup1\n      dup3\n      dup5\n      calldatacopy\n      0x00\n      swap3\n      add\n      swap2\n      swap1\n      swap2\n      mstore\n      pop\n        /* \"FlattenedVault.sol\":21590:21610  _batchWithdrawMemory */\n      tag_306\n      swap3\n      pop\n      pop\n      pop\n        /* \"FlattenedVault.sol\":21590:21626  _batchWithdrawMemory(depositIndices) */\n      jump\t// in\n    tag_430:\n        /* \"FlattenedVault.sol\":14736:14756  _nonReentrantAfter() */\n      tag_337\n        /* \"FlattenedVault.sol\":14051:14052  1 */\n      0x01\n        /* \"FlattenedVault.sol\":15262:15283  _status = NOT_ENTERED */\n      dup1\n      sstore\n        /* \"FlattenedVault.sol\":15082:15290  function _nonReentrantAfter() private {... */\n      jump\n        /* \"FlattenedVault.sol\":20491:21062  function unlockDepositsForUser(address user, uint256[] calldata depositIndices) public onlyRole(UNLOCKER_ROLE) whenNotPaused {... */\n    tag_204:\n        /* \"FlattenedVault.sol\":16519:16545  keccak256(\"UNLOCKER_ROLE\") */\n      0xc806897caf4fd5068191157e44d3988e43139a37e0b97b6793e1ed1184140604\n        /* \"FlattenedVault.sol\":7740:7756  _checkRole(role) */\n      tag_433\n        /* \"FlattenedVault.sol\":7751:7755  role */\n      dup2\n        /* \"FlattenedVault.sol\":7740:7750  _checkRole */\n      tag_280\n        /* \"FlattenedVault.sol\":7740:7756  _checkRole(role) */\n      jump\t// in\n    tag_433:\n        /* \"FlattenedVault.sol\":17963:17969  paused */\n      and(0xff, sload(0x02))\n        /* \"FlattenedVault.sol\":17962:17969  !paused */\n      iszero\n        /* \"FlattenedVault.sol\":17954:17986  require(!paused, \"Vault paused\") */\n      tag_435\n      jumpi\n      mload(0x40)\n      shl(0xe5, 0x461bcd)\n      dup2\n      mstore\n        /* \"#utility.yul\":10245:10247   */\n      0x20\n        /* \"FlattenedVault.sol\":17954:17986  require(!paused, \"Vault paused\") */\n      0x04\n      dup3\n      add\n        /* \"#utility.yul\":10227:10248   */\n      mstore\n        /* \"#utility.yul\":10284:10286   */\n      0x0c\n        /* \"#utility.yul\":10264:10282   */\n      0x24\n      dup3\n      add\n        /* \"#utility.yul\":10257:10287   */\n      mstore\n      shl(0xa2, 0x15985d5b1d081c185d5cd959)\n        /* \"#utility.yul\":10303:10321   */\n      0x44\n      dup3\n      add\n        /* \"#utility.yul\":10296:10338   */\n      mstore\n        /* \"#utility.yul\":10355:10373   */\n      0x64\n      add\n        /* \"FlattenedVault.sol\":17954:17986  require(!paused, \"Vault paused\") */\n      tag_65\n        /* \"#utility.yul\":10043:10379   */\n      jump\n        /* \"FlattenedVault.sol\":17954:17986  require(!paused, \"Vault paused\") */\n    tag_435:\n        /* \"FlattenedVault.sol\":20631:20640  uint256 i */\n      0x00\n        /* \"FlattenedVault.sol\":20626:21056  for (uint256 i = 0; i < depositIndices.length; i++) {... */\n    tag_438:\n        /* \"FlattenedVault.sol\":20646:20671  i < depositIndices.length */\n      dup3\n      dup2\n      lt\n        /* \"FlattenedVault.sol\":20626:21056  for (uint256 i = 0; i < depositIndices.length; i++) {... */\n      iszero\n      tag_439\n      jumpi\n        /* \"FlattenedVault.sol\":20692:20703  uint256 idx */\n      0x00\n        /* \"FlattenedVault.sol\":20706:20720  depositIndices */\n      dup5\n      dup5\n        /* \"FlattenedVault.sol\":20721:20722  i */\n      dup4\n        /* \"FlattenedVault.sol\":20706:20723  depositIndices[i] */\n      dup2\n      dup2\n      lt\n      tag_442\n      jumpi\n      tag_442\n      tag_304\n      jump\t// in\n    tag_442:\n      sub(shl(0xa0, 0x01), 0x01)\n        /* \"FlattenedVault.sol\":20751:20769  userDeposits[user] */\n      dup10\n      and\n      0x00\n      swap1\n      dup2\n      mstore\n        /* \"FlattenedVault.sol\":20751:20763  userDeposits */\n      0x07\n        /* \"FlattenedVault.sol\":20706:20723  depositIndices[i] */\n      0x20\n        /* \"FlattenedVault.sol\":20751:20769  userDeposits[user] */\n      swap1\n      dup2\n      mstore\n      0x40\n      swap1\n      swap2\n      keccak256\n        /* \"FlattenedVault.sol\":20751:20776  userDeposits[user].length */\n      sload\n        /* \"FlattenedVault.sol\":20706:20723  depositIndices[i] */\n      swap2\n      mul\n      swap3\n      swap1\n      swap3\n      add\n      calldataload\n      swap3\n      pop\n      pop\n        /* \"FlattenedVault.sol\":20745:20776  idx < userDeposits[user].length */\n      dup2\n      lt\n        /* \"FlattenedVault.sol\":20737:20803  require(idx < userDeposits[user].length, \"Deposit does not exist\") */\n      tag_443\n      jumpi\n      mload(0x40)\n      shl(0xe5, 0x461bcd)\n      dup2\n      mstore\n        /* \"#utility.yul\":14376:14378   */\n      0x20\n        /* \"FlattenedVault.sol\":20737:20803  require(idx < userDeposits[user].length, \"Deposit does not exist\") */\n      0x04\n      dup3\n      add\n        /* \"#utility.yul\":14358:14379   */\n      mstore\n        /* \"#utility.yul\":14415:14417   */\n      0x16\n        /* \"#utility.yul\":14395:14413   */\n      0x24\n      dup3\n      add\n        /* \"#utility.yul\":14388:14418   */\n      mstore\n        /* \"#utility.yul\":14454:14478   */\n      0x4465706f73697420646f6573206e6f7420657869737400000000000000000000\n        /* \"#utility.yul\":14434:14452   */\n      0x44\n      dup3\n      add\n        /* \"#utility.yul\":14427:14479   */\n      mstore\n        /* \"#utility.yul\":14496:14514   */\n      0x64\n      add\n        /* \"FlattenedVault.sol\":20737:20803  require(idx < userDeposits[user].length, \"Deposit does not exist\") */\n      tag_65\n        /* \"#utility.yul\":14174:14520   */\n      jump\n        /* \"FlattenedVault.sol\":20737:20803  require(idx < userDeposits[user].length, \"Deposit does not exist\") */\n    tag_443:\n      sub(shl(0xa0, 0x01), 0x01)\n        /* \"FlattenedVault.sol\":20843:20861  userDeposits[user] */\n      dup7\n      and\n        /* \"FlattenedVault.sol\":20817:20840  DepositInfo storage dep */\n      0x00\n        /* \"FlattenedVault.sol\":20843:20861  userDeposits[user] */\n      swap1\n      dup2\n      mstore\n        /* \"FlattenedVault.sol\":20843:20855  userDeposits */\n      0x07\n        /* \"FlattenedVault.sol\":20843:20861  userDeposits[user] */\n      0x20\n      mstore\n      0x40\n      dup2\n      keccak256\n        /* \"FlattenedVault.sol\":20843:20866  userDeposits[user][idx] */\n      dup1\n      sload\n        /* \"FlattenedVault.sol\":20862:20865  idx */\n      dup4\n      swap1\n        /* \"FlattenedVault.sol\":20843:20866  userDeposits[user][idx] */\n      dup2\n      lt\n      tag_447\n      jumpi\n      tag_447\n      tag_304\n      jump\t// in\n    tag_447:\n      0x00\n      swap2\n      dup3\n      mstore\n      0x20\n      swap1\n      swap2\n      keccak256\n      0x04\n      swap1\n      swap2\n      mul\n      add\n        /* \"FlattenedVault.sol\":20889:20902  dep.withdrawn */\n      0x03\n      dup2\n      add\n      sload\n        /* \"FlattenedVault.sol\":20843:20866  userDeposits[user][idx] */\n      swap1\n      swap2\n      pop\n        /* \"FlattenedVault.sol\":20889:20902  dep.withdrawn */\n      0xff\n      and\n        /* \"FlattenedVault.sol\":20888:20902  !dep.withdrawn */\n      iszero\n        /* \"FlattenedVault.sol\":20888:20926  !dep.withdrawn && !dep.unlockedByAdmin */\n      dup1\n      iszero\n      tag_449\n      jumpi\n      pop\n        /* \"FlattenedVault.sol\":20907:20926  dep.unlockedByAdmin */\n      0x03\n      dup2\n      add\n      sload\n      0x0100\n      swap1\n      div\n      0xff\n      and\n        /* \"FlattenedVault.sol\":20906:20926  !dep.unlockedByAdmin */\n      iszero\n        /* \"FlattenedVault.sol\":20888:20926  !dep.withdrawn && !dep.unlockedByAdmin */\n    tag_449:\n        /* \"FlattenedVault.sol\":20880:20957  require(!dep.withdrawn && !dep.unlockedByAdmin, \"Already unlocked/withdrawn\") */\n      tag_450\n      jumpi\n      mload(0x40)\n      shl(0xe5, 0x461bcd)\n      dup2\n      mstore\n        /* \"#utility.yul\":14727:14729   */\n      0x20\n        /* \"FlattenedVault.sol\":20880:20957  require(!dep.withdrawn && !dep.unlockedByAdmin, \"Already unlocked/withdrawn\") */\n      0x04\n      dup3\n      add\n        /* \"#utility.yul\":14709:14730   */\n      mstore\n        /* \"#utility.yul\":14766:14768   */\n      0x1a\n        /* \"#utility.yul\":14746:14764   */\n      0x24\n      dup3\n      add\n        /* \"#utility.yul\":14739:14769   */\n      mstore\n        /* \"#utility.yul\":14805:14833   */\n      0x416c726561647920756e6c6f636b65642f77697468647261776e000000000000\n        /* \"#utility.yul\":14785:14803   */\n      0x44\n      dup3\n      add\n        /* \"#utility.yul\":14778:14834   */\n      mstore\n        /* \"#utility.yul\":14851:14869   */\n      0x64\n      add\n        /* \"FlattenedVault.sol\":20880:20957  require(!dep.withdrawn && !dep.unlockedByAdmin, \"Already unlocked/withdrawn\") */\n      tag_65\n        /* \"#utility.yul\":14525:14875   */\n      jump\n        /* \"FlattenedVault.sol\":20880:20957  require(!dep.withdrawn && !dep.unlockedByAdmin, \"Already unlocked/withdrawn\") */\n    tag_450:\n        /* \"FlattenedVault.sol\":20971:20990  dep.unlockedByAdmin */\n      0x03\n      dup2\n      add\n        /* \"FlattenedVault.sol\":20971:20997  dep.unlockedByAdmin = true */\n      dup1\n      sload\n      not(0xff00)\n      and\n      0x0100\n      or\n      swap1\n      sstore\n        /* \"FlattenedVault.sol\":21016:21045  AdminUnlockDeposit(user, idx) */\n      mload(0x40)\n      sub(shl(0xa0, 0x01), 0x01)\n      dup9\n      and\n      swap1\n      0xecb0219aa7bd617fe37e2c2bc56a11008c6133daf87510272c2b14b171f2d01a\n      swap1\n      tag_453\n      swap1\n        /* \"FlattenedVault.sol\":21041:21044  idx */\n      dup6\n        /* \"#utility.yul\":2370:2395   */\n      dup2\n      mstore\n        /* \"#utility.yul\":2358:2360   */\n      0x20\n        /* \"#utility.yul\":2343:2361   */\n      add\n      swap1\n        /* \"#utility.yul\":2224:2401   */\n      jump\n        /* \"FlattenedVault.sol\":21016:21045  AdminUnlockDeposit(user, idx) */\n    tag_453:\n      mload(0x40)\n      dup1\n      swap2\n      sub\n      swap1\n      log2\n      pop\n      pop\n        /* \"FlattenedVault.sol\":20673:20676  i++ */\n      0x01\n      add\n        /* \"FlattenedVault.sol\":20626:21056  for (uint256 i = 0; i < depositIndices.length; i++) {... */\n      jump(tag_438)\n    tag_439:\n      pop\n        /* \"FlattenedVault.sol\":20491:21062  function unlockDepositsForUser(address user, uint256[] calldata depositIndices) public onlyRole(UNLOCKER_ROLE) whenNotPaused {... */\n      pop\n      pop\n      pop\n      pop\n      jump\t// out\n        /* \"FlattenedVault.sol\":24349:24786  function adminWithdrawUtility(address to, uint256 amount) external onlyRole(ADMIN_ROLE) nonReentrant {... */\n    tag_208:\n        /* \"FlattenedVault.sol\":16382:16405  keccak256(\"ADMIN_ROLE\") */\n      0xa49807205ce4d355092ef5a8a18f56e8913cf4a201fbe287825b095693c21775\n        /* \"FlattenedVault.sol\":7740:7756  _checkRole(role) */\n      tag_455\n        /* \"FlattenedVault.sol\":7751:7755  role */\n      dup2\n        /* \"FlattenedVault.sol\":7740:7750  _checkRole */\n      tag_280\n        /* \"FlattenedVault.sol\":7740:7756  _checkRole(role) */\n      jump\t// in\n    tag_455:\n        /* \"FlattenedVault.sol\":14694:14715  _nonReentrantBefore() */\n      tag_457\n        /* \"FlattenedVault.sol\":14694:14713  _nonReentrantBefore */\n      tag_292\n        /* \"FlattenedVault.sol\":14694:14715  _nonReentrantBefore() */\n      jump\t// in\n    tag_457:\n      sub(shl(0xa0, 0x01), 0x01)\n        /* \"FlattenedVault.sol\":24468:24484  to != address(0) */\n      dup4\n      and\n        /* \"FlattenedVault.sol\":24460:24501  require(to != address(0), \"Invalid 'to'\") */\n      tag_459\n      jumpi\n      mload(0x40)\n      shl(0xe5, 0x461bcd)\n      dup2\n      mstore\n        /* \"#utility.yul\":10850:10852   */\n      0x20\n        /* \"FlattenedVault.sol\":24460:24501  require(to != address(0), \"Invalid 'to'\") */\n      0x04\n      dup3\n      add\n        /* \"#utility.yul\":10832:10853   */\n      mstore\n        /* \"#utility.yul\":10889:10891   */\n      0x0c\n        /* \"#utility.yul\":10869:10887   */\n      0x24\n      dup3\n      add\n        /* \"#utility.yul\":10862:10892   */\n      mstore\n      shl(0xa0, 0x496e76616c69642027746f27)\n        /* \"#utility.yul\":10908:10926   */\n      0x44\n      dup3\n      add\n        /* \"#utility.yul\":10901:10943   */\n      mstore\n        /* \"#utility.yul\":10960:10978   */\n      0x64\n      add\n        /* \"FlattenedVault.sol\":24460:24501  require(to != address(0), \"Invalid 'to'\") */\n      tag_65\n        /* \"#utility.yul\":10648:10984   */\n      jump\n        /* \"FlattenedVault.sol\":24460:24501  require(to != address(0), \"Invalid 'to'\") */\n    tag_459:\n        /* \"FlattenedVault.sol\":24529:24541  totalUtility */\n      sload(0x06)\n        /* \"FlattenedVault.sol\":24519:24525  amount */\n      dup3\n        /* \"FlattenedVault.sol\":24519:24541  amount <= totalUtility */\n      gt\n      iszero\n        /* \"FlattenedVault.sol\":24511:24563  require(amount <= totalUtility, \"Insufficient util\") */\n      tag_461\n      jumpi\n      mload(0x40)\n      shl(0xe5, 0x461bcd)\n      dup2\n      mstore\n        /* \"#utility.yul\":15082:15084   */\n      0x20\n        /* \"FlattenedVault.sol\":24511:24563  require(amount <= totalUtility, \"Insufficient util\") */\n      0x04\n      dup3\n      add\n        /* \"#utility.yul\":15064:15085   */\n      mstore\n        /* \"#utility.yul\":15121:15123   */\n      0x11\n        /* \"#utility.yul\":15101:15119   */\n      0x24\n      dup3\n      add\n        /* \"#utility.yul\":15094:15124   */\n      mstore\n        /* \"#utility.yul\":15160:15179   */\n      0x496e73756666696369656e74207574696c000000000000000000000000000000\n        /* \"#utility.yul\":15140:15158   */\n      0x44\n      dup3\n      add\n        /* \"#utility.yul\":15133:15180   */\n      mstore\n        /* \"#utility.yul\":15197:15215   */\n      0x64\n      add\n        /* \"FlattenedVault.sol\":24511:24563  require(amount <= totalUtility, \"Insufficient util\") */\n      tag_65\n        /* \"#utility.yul\":14880:15221   */\n      jump\n        /* \"FlattenedVault.sol\":24511:24563  require(amount <= totalUtility, \"Insufficient util\") */\n    tag_461:\n        /* \"FlattenedVault.sol\":24589:24595  amount */\n      dup2\n        /* \"FlattenedVault.sol\":24573:24585  totalUtility */\n      0x06\n      0x00\n        /* \"FlattenedVault.sol\":24573:24595  totalUtility -= amount */\n      dup3\n      dup3\n      sload\n      tag_464\n      swap2\n      swap1\n      tag_386\n      jump\t// in\n    tag_464:\n      swap1\n      swap2\n      sstore\n      pop\n      pop\n        /* \"FlattenedVault.sol\":24624:24650  to.call{value: amount}(\"\") */\n      mload(0x40)\n        /* \"FlattenedVault.sol\":24606:24618  bool success */\n      0x00\n      swap1\n      sub(shl(0xa0, 0x01), 0x01)\n        /* \"FlattenedVault.sol\":24624:24631  to.call */\n      dup6\n      and\n      swap1\n        /* \"FlattenedVault.sol\":24639:24645  amount */\n      dup5\n      swap1\n        /* \"FlattenedVault.sol\":24606:24618  bool success */\n      dup4\n        /* \"FlattenedVault.sol\":24624:24650  to.call{value: amount}(\"\") */\n      dup2\n        /* \"FlattenedVault.sol\":24606:24618  bool success */\n      dup2\n        /* \"FlattenedVault.sol\":24624:24650  to.call{value: amount}(\"\") */\n      dup2\n        /* \"FlattenedVault.sol\":24639:24645  amount */\n      dup6\n        /* \"FlattenedVault.sol\":24624:24631  to.call */\n      dup8\n        /* \"FlattenedVault.sol\":24624:24650  to.call{value: amount}(\"\") */\n      gas\n      call\n      swap3\n      pop\n      pop\n      pop\n      returndatasize\n      dup1\n      0x00\n      dup2\n      eq\n      tag_468\n      jumpi\n      mload(0x40)\n      swap2\n      pop\n      and(add(returndatasize, 0x3f), not(0x1f))\n      dup3\n      add\n      0x40\n      mstore\n      returndatasize\n      dup3\n      mstore\n      returndatasize\n      0x00\n      0x20\n      dup5\n      add\n      returndatacopy\n      jump(tag_467)\n    tag_468:\n      0x60\n      swap2\n      pop\n    tag_467:\n      pop\n        /* \"FlattenedVault.sol\":24605:24650  (bool success, ) = to.call{value: amount}(\"\") */\n      pop\n      swap1\n      pop\n        /* \"FlattenedVault.sol\":24668:24675  success */\n      dup1\n        /* \"FlattenedVault.sol\":24660:24699  require(success, \"ETH transfer failed\") */\n      tag_469\n      jumpi\n      mload(0x40)\n      shl(0xe5, 0x461bcd)\n      dup2\n      mstore\n        /* \"#utility.yul\":11746:11748   */\n      0x20\n        /* \"FlattenedVault.sol\":24660:24699  require(success, \"ETH transfer failed\") */\n      0x04\n      dup3\n      add\n        /* \"#utility.yul\":11728:11749   */\n      mstore\n        /* \"#utility.yul\":11785:11787   */\n      0x13\n        /* \"#utility.yul\":11765:11783   */\n      0x24\n      dup3\n      add\n        /* \"#utility.yul\":11758:11788   */\n      mstore\n      shl(0x6a, 0x115512081d1c985b9cd9995c8819985a5b1959)\n        /* \"#utility.yul\":11804:11822   */\n      0x44\n      dup3\n      add\n        /* \"#utility.yul\":11797:11846   */\n      mstore\n        /* \"#utility.yul\":11863:11881   */\n      0x64\n      add\n        /* \"FlattenedVault.sol\":24660:24699  require(success, \"ETH transfer failed\") */\n      tag_65\n        /* \"#utility.yul\":11544:11887   */\n      jump\n        /* \"FlattenedVault.sol\":24660:24699  require(success, \"ETH transfer failed\") */\n    tag_469:\n        /* \"FlattenedVault.sol\":24740:24742  to */\n      dup4\n      sub(shl(0xa0, 0x01), 0x01)\n        /* \"FlattenedVault.sol\":24714:24779  AdminWithdraw(msg.sender, to, amount, block.timestamp, \"utility\") */\n      and\n        /* \"FlattenedVault.sol\":24728:24738  msg.sender */\n      caller\n      sub(shl(0xa0, 0x01), 0x01)\n        /* \"FlattenedVault.sol\":24714:24779  AdminWithdraw(msg.sender, to, amount, block.timestamp, \"utility\") */\n      and\n      0xa42a4a1652be46e2b44488aec0a260d6f641d4e01decddf6f2b2217922aec3a6\n        /* \"FlattenedVault.sol\":24744:24750  amount */\n      dup6\n        /* \"FlattenedVault.sol\":24752:24767  block.timestamp */\n      timestamp\n        /* \"FlattenedVault.sol\":24714:24779  AdminWithdraw(msg.sender, to, amount, block.timestamp, \"utility\") */\n      mload(0x40)\n      tag_471\n      swap3\n      swap2\n      swap1\n        /* \"#utility.yul\":15466:15491   */\n      swap2\n      dup3\n      mstore\n        /* \"#utility.yul\":15522:15524   */\n      0x20\n        /* \"#utility.yul\":15507:15525   */\n      dup3\n      add\n        /* \"#utility.yul\":15500:15534   */\n      mstore\n        /* \"#utility.yul\":15570:15572   */\n      0x60\n        /* \"#utility.yul\":15565:15567   */\n      0x40\n        /* \"#utility.yul\":15550:15568   */\n      dup3\n      add\n        /* \"#utility.yul\":15543:15573   */\n      dup2\n      swap1\n      mstore\n        /* \"#utility.yul\":15609:15610   */\n      0x07\n        /* \"#utility.yul\":15589:15607   */\n      swap1\n      dup3\n      add\n        /* \"#utility.yul\":15582:15611   */\n      mstore\n        /* \"#utility.yul\":15648:15657   */\n      0x7574696c69747900000000000000000000000000000000000000000000000000\n        /* \"#utility.yul\":15642:15645   */\n      0x80\n        /* \"#utility.yul\":15627:15646   */\n      dup3\n      add\n        /* \"#utility.yul\":15620:15658   */\n      mstore\n        /* \"#utility.yul\":15690:15693   */\n      0xa0\n        /* \"#utility.yul\":15675:15694   */\n      add\n      swap1\n        /* \"#utility.yul\":15226:15700   */\n      jump\n        /* \"FlattenedVault.sol\":24714:24779  AdminWithdraw(msg.sender, to, amount, block.timestamp, \"utility\") */\n    tag_471:\n      mload(0x40)\n      dup1\n      swap2\n      sub\n      swap1\n      log3\n        /* \"FlattenedVault.sol\":24450:24786  {... */\n      pop\n        /* \"FlattenedVault.sol\":14736:14756  _nonReentrantAfter() */\n      tag_342\n        /* \"FlattenedVault.sol\":14051:14052  1 */\n      0x01\n        /* \"FlattenedVault.sol\":15262:15283  _status = NOT_ENTERED */\n      dup1\n      sstore\n        /* \"FlattenedVault.sol\":15082:15290  function _nonReentrantAfter() private {... */\n      jump\n        /* \"FlattenedVault.sol\":21068:21437  function batchUnlock(address[] calldata users, uint256[][] calldata indices) external onlyRole(UNLOCKER_ROLE) whenNotPaused {... */\n    tag_222:\n        /* \"FlattenedVault.sol\":16519:16545  keccak256(\"UNLOCKER_ROLE\") */\n      0xc806897caf4fd5068191157e44d3988e43139a37e0b97b6793e1ed1184140604\n        /* \"FlattenedVault.sol\":7740:7756  _checkRole(role) */\n      tag_477\n        /* \"FlattenedVault.sol\":7751:7755  role */\n      dup2\n        /* \"FlattenedVault.sol\":7740:7750  _checkRole */\n      tag_280\n        /* \"FlattenedVault.sol\":7740:7756  _checkRole(role) */\n      jump\t// in\n    tag_477:\n        /* \"FlattenedVault.sol\":17963:17969  paused */\n      and(0xff, sload(0x02))\n        /* \"FlattenedVault.sol\":17962:17969  !paused */\n      iszero\n        /* \"FlattenedVault.sol\":17954:17986  require(!paused, \"Vault paused\") */\n      tag_479\n      jumpi\n      mload(0x40)\n      shl(0xe5, 0x461bcd)\n      dup2\n      mstore\n        /* \"#utility.yul\":10245:10247   */\n      0x20\n        /* \"FlattenedVault.sol\":17954:17986  require(!paused, \"Vault paused\") */\n      0x04\n      dup3\n      add\n        /* \"#utility.yul\":10227:10248   */\n      mstore\n        /* \"#utility.yul\":10284:10286   */\n      0x0c\n        /* \"#utility.yul\":10264:10282   */\n      0x24\n      dup3\n      add\n        /* \"#utility.yul\":10257:10287   */\n      mstore\n      shl(0xa2, 0x15985d5b1d081c185d5cd959)\n        /* \"#utility.yul\":10303:10321   */\n      0x44\n      dup3\n      add\n        /* \"#utility.yul\":10296:10338   */\n      mstore\n        /* \"#utility.yul\":10355:10373   */\n      0x64\n      add\n        /* \"FlattenedVault.sol\":17954:17986  require(!paused, \"Vault paused\") */\n      tag_65\n        /* \"#utility.yul\":10043:10379   */\n      jump\n        /* \"FlattenedVault.sol\":17954:17986  require(!paused, \"Vault paused\") */\n    tag_479:\n        /* \"FlattenedVault.sol\":21210:21240  users.length == indices.length */\n      dup4\n      dup3\n      eq\n        /* \"FlattenedVault.sol\":21202:21259  require(users.length == indices.length, \"Array mismatch\") */\n      tag_482\n      jumpi\n      mload(0x40)\n      shl(0xe5, 0x461bcd)\n      dup2\n      mstore\n        /* \"#utility.yul\":15907:15909   */\n      0x20\n        /* \"FlattenedVault.sol\":21202:21259  require(users.length == indices.length, \"Array mismatch\") */\n      0x04\n      dup3\n      add\n        /* \"#utility.yul\":15889:15910   */\n      mstore\n        /* \"#utility.yul\":15946:15948   */\n      0x0e\n        /* \"#utility.yul\":15926:15944   */\n      0x24\n      dup3\n      add\n        /* \"#utility.yul\":15919:15949   */\n      mstore\n        /* \"#utility.yul\":15985:16001   */\n      0x4172726179206d69736d61746368000000000000000000000000000000000000\n        /* \"#utility.yul\":15965:15983   */\n      0x44\n      dup3\n      add\n        /* \"#utility.yul\":15958:16002   */\n      mstore\n        /* \"#utility.yul\":16019:16037   */\n      0x64\n      add\n        /* \"FlattenedVault.sol\":21202:21259  require(users.length == indices.length, \"Array mismatch\") */\n      tag_65\n        /* \"#utility.yul\":15705:16043   */\n      jump\n        /* \"FlattenedVault.sol\":21202:21259  require(users.length == indices.length, \"Array mismatch\") */\n    tag_482:\n        /* \"FlattenedVault.sol\":21274:21283  uint256 i */\n      0x00\n        /* \"FlattenedVault.sol\":21269:21377  for (uint256 i=0; i < users.length; i++){... */\n    tag_485:\n        /* \"FlattenedVault.sol\":21287:21303  i < users.length */\n      dup5\n      dup2\n      lt\n        /* \"FlattenedVault.sol\":21269:21377  for (uint256 i=0; i < users.length; i++){... */\n      iszero\n      tag_486\n      jumpi\n        /* \"FlattenedVault.sol\":21323:21366  unlockDepositsForUser(users[i], indices[i]) */\n      tag_488\n        /* \"FlattenedVault.sol\":21345:21350  users */\n      dup7\n      dup7\n        /* \"FlattenedVault.sol\":21351:21352  i */\n      dup4\n        /* \"FlattenedVault.sol\":21345:21353  users[i] */\n      dup2\n      dup2\n      lt\n      tag_490\n      jumpi\n      tag_490\n      tag_304\n      jump\t// in\n    tag_490:\n      swap1\n      pop\n      0x20\n      mul\n      add\n      0x20\n      dup2\n      add\n      swap1\n      tag_491\n      swap2\n      swap1\n      tag_131\n      jump\t// in\n    tag_491:\n        /* \"FlattenedVault.sol\":21355:21362  indices */\n      dup6\n      dup6\n        /* \"FlattenedVault.sol\":21363:21364  i */\n      dup5\n        /* \"FlattenedVault.sol\":21355:21365  indices[i] */\n      dup2\n      dup2\n      lt\n      tag_493\n      jumpi\n      tag_493\n      tag_304\n      jump\t// in\n    tag_493:\n      swap1\n      pop\n      0x20\n      mul\n      dup2\n      add\n      swap1\n      tag_202\n      swap2\n      swap1\n      tag_495\n      jump\t// in\n        /* \"FlattenedVault.sol\":21323:21366  unlockDepositsForUser(users[i], indices[i]) */\n    tag_488:\n        /* \"FlattenedVault.sol\":21305:21308  i++ */\n      0x01\n      add\n        /* \"FlattenedVault.sol\":21269:21377  for (uint256 i=0; i < users.length; i++){... */\n      jump(tag_485)\n    tag_486:\n      pop\n        /* \"FlattenedVault.sol\":21403:21413  msg.sender */\n      caller\n      sub(shl(0xa0, 0x01), 0x01)\n        /* \"FlattenedVault.sol\":21391:21430  BatchUnlock(msg.sender, users, indices) */\n      and\n      0xa1c93e37b8e644d8be9fc3e1b8b3a0cea82d2818f8214d4bfbfce5a49581705b\n        /* \"FlattenedVault.sol\":21415:21420  users */\n      dup7\n      dup7\n        /* \"FlattenedVault.sol\":21422:21429  indices */\n      dup7\n      dup7\n        /* \"FlattenedVault.sol\":21391:21430  BatchUnlock(msg.sender, users, indices) */\n      mload(0x40)\n      tag_496\n      swap5\n      swap4\n      swap3\n      swap2\n      swap1\n      tag_497\n      jump\t// in\n    tag_496:\n      mload(0x40)\n      dup1\n      swap2\n      sub\n      swap1\n      log2\n        /* \"FlattenedVault.sol\":21068:21437  function batchUnlock(address[] calldata users, uint256[][] calldata indices) external onlyRole(UNLOCKER_ROLE) whenNotPaused {... */\n      pop\n      pop\n      pop\n      pop\n      pop\n      jump\t// out\n        /* \"FlattenedVault.sol\":17016:17041  address[] public allUsers */\n    tag_230:\n      0x09\n      dup2\n      dup2\n      sload\n      dup2\n      lt\n      tag_498\n      jumpi\n      0x00\n      dup1\n      revert\n    tag_498:\n      0x00\n      swap2\n      dup3\n      mstore\n      0x20\n      swap1\n      swap2\n      keccak256\n      add\n      sload\n      sub(shl(0xa0, 0x01), 0x01)\n      and\n      swap1\n      pop\n      dup2\n      jump\t// out\n        /* \"FlattenedVault.sol\":26654:27551  function getUserDepositInfo(address user) external view returns (... */\n    tag_236:\n      sub(shl(0xa0, 0x01), 0x01)\n        /* \"FlattenedVault.sol\":26950:26968  userDeposits[user] */\n      dup2\n      and\n        /* \"FlattenedVault.sol\":26917:26947  DepositInfo[] storage deposits */\n      0x00\n        /* \"FlattenedVault.sol\":26950:26968  userDeposits[user] */\n      swap1\n      dup2\n      mstore\n        /* \"FlattenedVault.sol\":26950:26962  userDeposits */\n      0x07\n        /* \"FlattenedVault.sol\":26950:26968  userDeposits[user] */\n      0x20\n      mstore\n      0x40\n      swap1\n      keccak256\n        /* \"FlattenedVault.sol\":26992:27007  deposits.length */\n      dup1\n      sload\n        /* \"FlattenedVault.sol\":26728:26752  uint256[] memory amounts */\n      0x60\n      swap2\n      dup3\n      swap2\n      dup3\n      swap2\n      dup3\n      swap2\n      dup3\n      swap2\n        /* \"FlattenedVault.sol\":26950:26968  userDeposits[user] */\n      swap1\n        /* \"FlattenedVault.sol\":26992:27007  deposits.length */\n      dup1\n        /* \"FlattenedVault.sol\":27027:27045  new uint256[](len) */\n      0xffffffffffffffff\n      dup2\n      gt\n      iszero\n      tag_502\n      jumpi\n      tag_502\n      tag_300\n      jump\t// in\n    tag_502:\n      mload(0x40)\n      swap1\n      dup1\n      dup3\n      mstore\n      dup1\n      0x20\n      mul\n      0x20\n      add\n      dup3\n      add\n      0x40\n      mstore\n      dup1\n      iszero\n      tag_503\n      jumpi\n      dup2\n      0x20\n      add\n      0x20\n      dup3\n      mul\n      dup1\n      calldatasize\n      dup4\n      calldatacopy\n      add\n      swap1\n      pop\n    tag_503:\n      pop\n        /* \"FlattenedVault.sol\":27017:27045  amounts = new uint256[](len) */\n      swap7\n      pop\n        /* \"FlattenedVault.sol\":27082:27085  len */\n      dup1\n        /* \"FlattenedVault.sol\":27068:27086  new uint256[](len) */\n      0xffffffffffffffff\n      dup2\n      gt\n      iszero\n      tag_505\n      jumpi\n      tag_505\n      tag_300\n      jump\t// in\n    tag_505:\n      mload(0x40)\n      swap1\n      dup1\n      dup3\n      mstore\n      dup1\n      0x20\n      mul\n      0x20\n      add\n      dup3\n      add\n      0x40\n      mstore\n      dup1\n      iszero\n      tag_506\n      jumpi\n      dup2\n      0x20\n      add\n      0x20\n      dup3\n      mul\n      dup1\n      calldatasize\n      dup4\n      calldatacopy\n      add\n      swap1\n      pop\n    tag_506:\n      pop\n        /* \"FlattenedVault.sol\":27055:27086  timestamps = new uint256[](len) */\n      swap6\n      pop\n        /* \"FlattenedVault.sol\":27119:27122  len */\n      dup1\n        /* \"FlattenedVault.sol\":27108:27123  new bool[](len) */\n      0xffffffffffffffff\n      dup2\n      gt\n      iszero\n      tag_508\n      jumpi\n      tag_508\n      tag_300\n      jump\t// in\n    tag_508:\n      mload(0x40)\n      swap1\n      dup1\n      dup3\n      mstore\n      dup1\n      0x20\n      mul\n      0x20\n      add\n      dup3\n      add\n      0x40\n      mstore\n      dup1\n      iszero\n      tag_509\n      jumpi\n      dup2\n      0x20\n      add\n      0x20\n      dup3\n      mul\n      dup1\n      calldatasize\n      dup4\n      calldatacopy\n      add\n      swap1\n      pop\n    tag_509:\n      pop\n        /* \"FlattenedVault.sol\":27096:27123  withdrawn = new bool[](len) */\n      swap5\n      pop\n        /* \"FlattenedVault.sol\":27162:27165  len */\n      dup1\n        /* \"FlattenedVault.sol\":27151:27166  new bool[](len) */\n      0xffffffffffffffff\n      dup2\n      gt\n      iszero\n      tag_511\n      jumpi\n      tag_511\n      tag_300\n      jump\t// in\n    tag_511:\n      mload(0x40)\n      swap1\n      dup1\n      dup3\n      mstore\n      dup1\n      0x20\n      mul\n      0x20\n      add\n      dup3\n      add\n      0x40\n      mstore\n      dup1\n      iszero\n      tag_512\n      jumpi\n      dup2\n      0x20\n      add\n      0x20\n      dup3\n      mul\n      dup1\n      calldatasize\n      dup4\n      calldatacopy\n      add\n      swap1\n      pop\n    tag_512:\n      pop\n        /* \"FlattenedVault.sol\":27133:27166  unlockedByAdmin = new bool[](len) */\n      swap4\n      pop\n        /* \"FlattenedVault.sol\":27205:27208  len */\n      dup1\n        /* \"FlattenedVault.sol\":27194:27209  new bool[](len) */\n      0xffffffffffffffff\n      dup2\n      gt\n      iszero\n      tag_514\n      jumpi\n      tag_514\n      tag_300\n      jump\t// in\n    tag_514:\n      mload(0x40)\n      swap1\n      dup1\n      dup3\n      mstore\n      dup1\n      0x20\n      mul\n      0x20\n      add\n      dup3\n      add\n      0x40\n      mstore\n      dup1\n      iszero\n      tag_515\n      jumpi\n      dup2\n      0x20\n      add\n      0x20\n      dup3\n      mul\n      dup1\n      calldatasize\n      dup4\n      calldatacopy\n      add\n      swap1\n      pop\n    tag_515:\n      pop\n        /* \"FlattenedVault.sol\":27176:27209  fullyRedeemable = new bool[](len) */\n      swap3\n      pop\n        /* \"FlattenedVault.sol\":27224:27233  uint256 i */\n      0x00\n        /* \"FlattenedVault.sol\":27219:27545  for (uint256 i = 0; i < len; i++) {... */\n    tag_516:\n        /* \"FlattenedVault.sol\":27243:27246  len */\n      dup2\n        /* \"FlattenedVault.sol\":27239:27240  i */\n      dup2\n        /* \"FlattenedVault.sol\":27239:27246  i < len */\n      lt\n        /* \"FlattenedVault.sol\":27219:27545  for (uint256 i = 0; i < len; i++) {... */\n      iszero\n      tag_517\n      jumpi\n        /* \"FlattenedVault.sol\":27267:27290  DepositInfo storage dep */\n      0x00\n        /* \"FlattenedVault.sol\":27293:27301  deposits */\n      dup4\n        /* \"FlattenedVault.sol\":27302:27303  i */\n      dup3\n        /* \"FlattenedVault.sol\":27293:27304  deposits[i] */\n      dup2\n      sload\n      dup2\n      lt\n      tag_520\n      jumpi\n      tag_520\n      tag_304\n      jump\t// in\n    tag_520:\n      swap1\n      0x00\n      mstore\n      keccak256(0x00, 0x20)\n      swap1\n      0x04\n      mul\n      add\n        /* \"FlattenedVault.sol\":27267:27304  DepositInfo storage dep = deposits[i] */\n      swap1\n      pop\n        /* \"FlattenedVault.sol\":27331:27334  dep */\n      dup1\n        /* \"FlattenedVault.sol\":27331:27341  dep.amount */\n      0x00\n      add\n      sload\n        /* \"FlattenedVault.sol\":27318:27325  amounts */\n      dup10\n        /* \"FlattenedVault.sol\":27326:27327  i */\n      dup4\n        /* \"FlattenedVault.sol\":27318:27328  amounts[i] */\n      dup2\n      mload\n      dup2\n      lt\n      tag_523\n      jumpi\n      tag_523\n      tag_304\n      jump\t// in\n    tag_523:\n      0x20\n      mul\n      0x20\n      add\n      add\n        /* \"FlattenedVault.sol\":27318:27341  amounts[i] = dep.amount */\n      dup2\n      dup2\n      mstore\n      pop\n      pop\n        /* \"FlattenedVault.sol\":27371:27374  dep */\n      dup1\n        /* \"FlattenedVault.sol\":27371:27384  dep.timestamp */\n      0x01\n      add\n      sload\n        /* \"FlattenedVault.sol\":27355:27365  timestamps */\n      dup9\n        /* \"FlattenedVault.sol\":27366:27367  i */\n      dup4\n        /* \"FlattenedVault.sol\":27355:27368  timestamps[i] */\n      dup2\n      mload\n      dup2\n      lt\n      tag_525\n      jumpi\n      tag_525\n      tag_304\n      jump\t// in\n    tag_525:\n      0x20\n      swap1\n      dup2\n      mul\n      swap2\n      swap1\n      swap2\n      add\n      add\n        /* \"FlattenedVault.sol\":27355:27384  timestamps[i] = dep.timestamp */\n      mstore\n        /* \"FlattenedVault.sol\":27413:27426  dep.withdrawn */\n      0x03\n      dup2\n      add\n      sload\n        /* \"FlattenedVault.sol\":27398:27410  withdrawn[i] */\n      dup8\n      mload\n        /* \"FlattenedVault.sol\":27413:27426  dep.withdrawn */\n      0xff\n      swap1\n      swap2\n      and\n      swap1\n        /* \"FlattenedVault.sol\":27398:27407  withdrawn */\n      dup9\n      swap1\n        /* \"FlattenedVault.sol\":27408:27409  i */\n      dup5\n      swap1\n        /* \"FlattenedVault.sol\":27398:27410  withdrawn[i] */\n      dup2\n      lt\n      tag_527\n      jumpi\n      tag_527\n      tag_304\n      jump\t// in\n    tag_527:\n      0x20\n      mul\n      0x20\n      add\n      add\n        /* \"FlattenedVault.sol\":27398:27426  withdrawn[i] = dep.withdrawn */\n      swap1\n      iszero\n      iszero\n      swap1\n      dup2\n      iszero\n      iszero\n      dup2\n      mstore\n      pop\n      pop\n        /* \"FlattenedVault.sol\":27461:27464  dep */\n      dup1\n        /* \"FlattenedVault.sol\":27461:27480  dep.unlockedByAdmin */\n      0x03\n      add\n      0x01\n      swap1\n      sload\n      swap1\n      0x0100\n      exp\n      swap1\n      div\n      0xff\n      and\n        /* \"FlattenedVault.sol\":27440:27455  unlockedByAdmin */\n      dup7\n        /* \"FlattenedVault.sol\":27456:27457  i */\n      dup4\n        /* \"FlattenedVault.sol\":27440:27458  unlockedByAdmin[i] */\n      dup2\n      mload\n      dup2\n      lt\n      tag_529\n      jumpi\n      tag_529\n      tag_304\n      jump\t// in\n    tag_529:\n      0x20\n      mul\n      0x20\n      add\n      add\n        /* \"FlattenedVault.sol\":27440:27480  unlockedByAdmin[i] = dep.unlockedByAdmin */\n      swap1\n      iszero\n      iszero\n      swap1\n      dup2\n      iszero\n      iszero\n      dup2\n      mstore\n      pop\n      pop\n        /* \"FlattenedVault.sol\":27515:27518  dep */\n      dup1\n        /* \"FlattenedVault.sol\":27515:27534  dep.fullyRedeemable */\n      0x03\n      add\n      0x02\n      swap1\n      sload\n      swap1\n      0x0100\n      exp\n      swap1\n      div\n      0xff\n      and\n        /* \"FlattenedVault.sol\":27494:27509  fullyRedeemable */\n      dup6\n        /* \"FlattenedVault.sol\":27510:27511  i */\n      dup4\n        /* \"FlattenedVault.sol\":27494:27512  fullyRedeemable[i] */\n      dup2\n      mload\n      dup2\n      lt\n      tag_531\n      jumpi\n      tag_531\n      tag_304\n      jump\t// in\n    tag_531:\n        /* \"FlattenedVault.sol\":27494:27534  fullyRedeemable[i] = dep.fullyRedeemable */\n      swap2\n      iszero\n      iszero\n        /* \"FlattenedVault.sol\":27494:27512  fullyRedeemable[i] */\n      0x20\n      swap3\n      dup4\n      mul\n      swap2\n      swap1\n      swap2\n      add\n      swap1\n      swap2\n      add\n        /* \"FlattenedVault.sol\":27494:27534  fullyRedeemable[i] = dep.fullyRedeemable */\n      mstore\n      pop\n        /* \"FlattenedVault.sol\":27248:27251  i++ */\n      0x01\n      add\n        /* \"FlattenedVault.sol\":27219:27545  for (uint256 i = 0; i < len; i++) {... */\n      jump(tag_516)\n    tag_517:\n      pop\n        /* \"FlattenedVault.sol\":26907:27551  {... */\n      pop\n      pop\n        /* \"FlattenedVault.sol\":26654:27551  function getUserDepositInfo(address user) external view returns (... */\n      swap2\n      swap4\n      swap6\n      swap1\n      swap3\n      swap5\n      pop\n      jump\t// out\n        /* \"FlattenedVault.sol\":9918:10056  function revokeRole(bytes32 role, address account) public virtual onlyRole(getRoleAdmin(role)) {... */\n    tag_242:\n        /* \"FlattenedVault.sol\":9151:9158  bytes32 */\n      0x00\n        /* \"FlattenedVault.sol\":9177:9189  _roles[role] */\n      dup3\n      dup2\n      mstore\n      0x20\n      dup2\n      swap1\n      mstore\n      0x40\n      swap1\n      keccak256\n        /* \"FlattenedVault.sol\":9177:9199  _roles[role].adminRole */\n      0x01\n      add\n      sload\n        /* \"FlattenedVault.sol\":7740:7756  _checkRole(role) */\n      tag_534\n        /* \"FlattenedVault.sol\":7751:7755  role */\n      dup2\n        /* \"FlattenedVault.sol\":7740:7750  _checkRole */\n      tag_280\n        /* \"FlattenedVault.sol\":7740:7756  _checkRole(role) */\n      jump\t// in\n    tag_534:\n        /* \"FlattenedVault.sol\":10023:10049  _revokeRole(role, account) */\n      tag_313\n        /* \"FlattenedVault.sol\":10035:10039  role */\n      dup4\n        /* \"FlattenedVault.sol\":10041:10048  account */\n      dup4\n        /* \"FlattenedVault.sol\":10023:10034  _revokeRole */\n      tag_343\n        /* \"FlattenedVault.sol\":10023:10049  _revokeRole(role, account) */\n      jump\t// in\n        /* \"FlattenedVault.sol\":23580:24145  function enableGlobalLiquidation() external onlyRole(ADMIN_ROLE) whenNotPaused {... */\n    tag_245:\n        /* \"FlattenedVault.sol\":16382:16405  keccak256(\"ADMIN_ROLE\") */\n      0xa49807205ce4d355092ef5a8a18f56e8913cf4a201fbe287825b095693c21775\n        /* \"FlattenedVault.sol\":7740:7756  _checkRole(role) */\n      tag_538\n        /* \"FlattenedVault.sol\":7751:7755  role */\n      dup2\n        /* \"FlattenedVault.sol\":7740:7750  _checkRole */\n      tag_280\n        /* \"FlattenedVault.sol\":7740:7756  _checkRole(role) */\n      jump\t// in\n    tag_538:\n        /* \"FlattenedVault.sol\":17963:17969  paused */\n      and(0xff, sload(0x02))\n        /* \"FlattenedVault.sol\":17962:17969  !paused */\n      iszero\n        /* \"FlattenedVault.sol\":17954:17986  require(!paused, \"Vault paused\") */\n      tag_540\n      jumpi\n      mload(0x40)\n      shl(0xe5, 0x461bcd)\n      dup2\n      mstore\n        /* \"#utility.yul\":10245:10247   */\n      0x20\n        /* \"FlattenedVault.sol\":17954:17986  require(!paused, \"Vault paused\") */\n      0x04\n      dup3\n      add\n        /* \"#utility.yul\":10227:10248   */\n      mstore\n        /* \"#utility.yul\":10284:10286   */\n      0x0c\n        /* \"#utility.yul\":10264:10282   */\n      0x24\n      dup3\n      add\n        /* \"#utility.yul\":10257:10287   */\n      mstore\n      shl(0xa2, 0x15985d5b1d081c185d5cd959)\n        /* \"#utility.yul\":10303:10321   */\n      0x44\n      dup3\n      add\n        /* \"#utility.yul\":10296:10338   */\n      mstore\n        /* \"#utility.yul\":10355:10373   */\n      0x64\n      add\n        /* \"FlattenedVault.sol\":17954:17986  require(!paused, \"Vault paused\") */\n      tag_65\n        /* \"#utility.yul\":10043:10379   */\n      jump\n        /* \"FlattenedVault.sol\":17954:17986  require(!paused, \"Vault paused\") */\n    tag_540:\n        /* \"FlattenedVault.sol\":23678:23702  globalLiquidationEnabled */\n      sload(0x02)\n      0x010000\n      swap1\n      div\n      0xff\n      and\n        /* \"FlattenedVault.sol\":23677:23702  !globalLiquidationEnabled */\n      iszero\n        /* \"FlattenedVault.sol\":23669:23722  require(!globalLiquidationEnabled, \"Already enabled\") */\n      tag_543\n      jumpi\n      mload(0x40)\n      shl(0xe5, 0x461bcd)\n      dup2\n      mstore\n        /* \"#utility.yul\":19021:19023   */\n      0x20\n        /* \"FlattenedVault.sol\":23669:23722  require(!globalLiquidationEnabled, \"Already enabled\") */\n      0x04\n      dup3\n      add\n        /* \"#utility.yul\":19003:19024   */\n      mstore\n        /* \"#utility.yul\":19060:19062   */\n      0x0f\n        /* \"#utility.yul\":19040:19058   */\n      0x24\n      dup3\n      add\n        /* \"#utility.yul\":19033:19063   */\n      mstore\n        /* \"#utility.yul\":19099:19116   */\n      0x416c726561647920656e61626c65640000000000000000000000000000000000\n        /* \"#utility.yul\":19079:19097   */\n      0x44\n      dup3\n      add\n        /* \"#utility.yul\":19072:19117   */\n      mstore\n        /* \"#utility.yul\":19134:19152   */\n      0x64\n      add\n        /* \"FlattenedVault.sol\":23669:23722  require(!globalLiquidationEnabled, \"Already enabled\") */\n      tag_65\n        /* \"#utility.yul\":18819:19158   */\n      jump\n        /* \"FlattenedVault.sol\":23669:23722  require(!globalLiquidationEnabled, \"Already enabled\") */\n    tag_543:\n        /* \"FlattenedVault.sol\":16028:16036  540 days */\n      0x02c7ea00\n        /* \"FlattenedVault.sol\":23772:23801  getEarliestDepositTimestamp() */\n      tag_546\n        /* \"FlattenedVault.sol\":23772:23799  getEarliestDepositTimestamp */\n      tag_268\n        /* \"FlattenedVault.sol\":23772:23801  getEarliestDepositTimestamp() */\n      jump\t// in\n    tag_546:\n        /* \"FlattenedVault.sol\":23772:23829  getEarliestDepositTimestamp() + LIQUIDATION_DEFAULT_DELAY */\n      tag_547\n      swap2\n      swap1\n      tag_354\n      jump\t// in\n    tag_547:\n        /* \"FlattenedVault.sol\":23753:23768  block.timestamp */\n      timestamp\n        /* \"FlattenedVault.sol\":23753:23829  block.timestamp >= getEarliestDepositTimestamp() + LIQUIDATION_DEFAULT_DELAY */\n      lt\n      iszero\n        /* \"FlattenedVault.sol\":23753:23909  block.timestamp >= getEarliestDepositTimestamp() + LIQUIDATION_DEFAULT_DELAY ||... */\n      dup1\n      tag_548\n      jumpi\n      pop\n        /* \"FlattenedVault.sol\":15962:15970  180 days */\n      0xed4e00\n        /* \"FlattenedVault.sol\":23864:23893  getEarliestDepositTimestamp() */\n      tag_549\n        /* \"FlattenedVault.sol\":23864:23891  getEarliestDepositTimestamp */\n      tag_268\n        /* \"FlattenedVault.sol\":23864:23893  getEarliestDepositTimestamp() */\n      jump\t// in\n    tag_549:\n        /* \"FlattenedVault.sol\":23864:23909  getEarliestDepositTimestamp() + LOCKUP_PERIOD */\n      tag_550\n      swap2\n      swap1\n      tag_354\n      jump\t// in\n    tag_550:\n        /* \"FlattenedVault.sol\":23845:23860  block.timestamp */\n      timestamp\n        /* \"FlattenedVault.sol\":23845:23909  block.timestamp >= getEarliestDepositTimestamp() + LOCKUP_PERIOD */\n      lt\n      iszero\n        /* \"FlattenedVault.sol\":23753:23909  block.timestamp >= getEarliestDepositTimestamp() + LIQUIDATION_DEFAULT_DELAY ||... */\n    tag_548:\n        /* \"FlattenedVault.sol\":23732:23944  require(... */\n      tag_551\n      jumpi\n      mload(0x40)\n      shl(0xe5, 0x461bcd)\n      dup2\n      mstore\n        /* \"#utility.yul\":19365:19367   */\n      0x20\n        /* \"FlattenedVault.sol\":23732:23944  require(... */\n      0x04\n      dup3\n      add\n        /* \"#utility.yul\":19347:19368   */\n      mstore\n        /* \"#utility.yul\":19404:19405   */\n      0x09\n        /* \"#utility.yul\":19384:19402   */\n      0x24\n      dup3\n      add\n        /* \"#utility.yul\":19377:19406   */\n      mstore\n        /* \"#utility.yul\":19442:19453   */\n      0x546f6f206561726c790000000000000000000000000000000000000000000000\n        /* \"#utility.yul\":19422:19440   */\n      0x44\n      dup3\n      add\n        /* \"#utility.yul\":19415:19454   */\n      mstore\n        /* \"#utility.yul\":19471:19489   */\n      0x64\n      add\n        /* \"FlattenedVault.sol\":23732:23944  require(... */\n      tag_65\n        /* \"#utility.yul\":19163:19495   */\n      jump\n        /* \"FlattenedVault.sol\":23732:23944  require(... */\n    tag_551:\n        /* \"FlattenedVault.sol\":23954:23978  globalLiquidationEnabled */\n      0x02\n        /* \"FlattenedVault.sol\":23954:23985  globalLiquidationEnabled = true */\n      dup1\n      sload\n      not(0xff0000)\n      and\n      0x010000\n      or\n      swap1\n      sstore\n        /* \"FlattenedVault.sol\":24024:24039  block.timestamp */\n      timestamp\n        /* \"FlattenedVault.sol\":23995:24021  globalLiquidationTimestamp */\n      0x03\n        /* \"FlattenedVault.sol\":23995:24039  globalLiquidationTimestamp = block.timestamp */\n      sstore\n        /* \"FlattenedVault.sol\":24049:24082  _markAllDepositsFullyRedeemable() */\n      tag_554\n        /* \"FlattenedVault.sol\":24049:24080  _markAllDepositsFullyRedeemable */\n      tag_555\n        /* \"FlattenedVault.sol\":24049:24082  _markAllDepositsFullyRedeemable() */\n      jump\t// in\n    tag_554:\n        /* \"FlattenedVault.sol\":24097:24138  GlobalLiquidationEnabled(block.timestamp) */\n      mload(0x40)\n        /* \"FlattenedVault.sol\":24122:24137  block.timestamp */\n      timestamp\n        /* \"#utility.yul\":2370:2395   */\n      dup2\n      mstore\n        /* \"FlattenedVault.sol\":24097:24138  GlobalLiquidationEnabled(block.timestamp) */\n      0x2388ceaed48d21bd0802856df41a22705f9046a67a817a047352aa3bbfe5c5d1\n      swap1\n        /* \"#utility.yul\":2358:2360   */\n      0x20\n        /* \"#utility.yul\":2343:2361   */\n      add\n        /* \"FlattenedVault.sol\":24097:24138  GlobalLiquidationEnabled(block.timestamp) */\n      mload(0x40)\n      dup1\n      swap2\n      sub\n      swap1\n      log1\n        /* \"FlattenedVault.sol\":23580:24145  function enableGlobalLiquidation() external onlyRole(ADMIN_ROLE) whenNotPaused {... */\n      pop\n      jump\t// out\n        /* \"FlattenedVault.sol\":27646:27766  function poolRoomLeft() public view returns (uint256) { return totalDeposited >= maxCap ? 0 : maxCap - totalDeposited; } */\n    tag_256:\n        /* \"FlattenedVault.sol\":27691:27698  uint256 */\n      0x00\n        /* \"FlattenedVault.sol\":16075:16090  5_000_000 ether */\n      0x0422ca8b0a00a425000000\n        /* \"FlattenedVault.sol\":27709:27723  totalDeposited */\n      sload(0x04)\n        /* \"FlattenedVault.sol\":27709:27733  totalDeposited >= maxCap */\n      lt\n      iszero\n        /* \"FlattenedVault.sol\":27709:27763  totalDeposited >= maxCap ? 0 : maxCap - totalDeposited */\n      tag_558\n      jumpi\n        /* \"FlattenedVault.sol\":27749:27763  totalDeposited */\n      sload(0x04)\n        /* \"FlattenedVault.sol\":27740:27763  maxCap - totalDeposited */\n      tag_559\n      swap1\n        /* \"FlattenedVault.sol\":16075:16090  5_000_000 ether */\n      0x0422ca8b0a00a425000000\n        /* \"FlattenedVault.sol\":27740:27763  maxCap - totalDeposited */\n      tag_386\n      jump\t// in\n    tag_559:\n        /* \"FlattenedVault.sol\":27702:27763  return totalDeposited >= maxCap ? 0 : maxCap - totalDeposited */\n      swap1\n      pop\n        /* \"FlattenedVault.sol\":27646:27766  function poolRoomLeft() public view returns (uint256) { return totalDeposited >= maxCap ? 0 : maxCap - totalDeposited; } */\n      swap1\n      jump\t// out\n        /* \"FlattenedVault.sol\":27709:27763  totalDeposited >= maxCap ? 0 : maxCap - totalDeposited */\n    tag_558:\n      pop\n        /* \"FlattenedVault.sol\":27736:27737  0 */\n      0x00\n      swap1\n        /* \"FlattenedVault.sol\":27646:27766  function poolRoomLeft() public view returns (uint256) { return totalDeposited >= maxCap ? 0 : maxCap - totalDeposited; } */\n      jump\t// out\n        /* \"FlattenedVault.sol\":19244:20124  function deposit(address receiver) external payable nonReentrant whenNotPaused returns (uint256 shares) {... */\n    tag_264:\n        /* \"FlattenedVault.sol\":19332:19346  uint256 shares */\n      0x00\n        /* \"FlattenedVault.sol\":14694:14715  _nonReentrantBefore() */\n      tag_562\n        /* \"FlattenedVault.sol\":14694:14713  _nonReentrantBefore */\n      tag_292\n        /* \"FlattenedVault.sol\":14694:14715  _nonReentrantBefore() */\n      jump\t// in\n    tag_562:\n        /* \"FlattenedVault.sol\":17963:17969  paused */\n      and(0xff, sload(0x02))\n        /* \"FlattenedVault.sol\":17962:17969  !paused */\n      iszero\n        /* \"FlattenedVault.sol\":17954:17986  require(!paused, \"Vault paused\") */\n      tag_564\n      jumpi\n      mload(0x40)\n      shl(0xe5, 0x461bcd)\n      dup2\n      mstore\n        /* \"#utility.yul\":10245:10247   */\n      0x20\n        /* \"FlattenedVault.sol\":17954:17986  require(!paused, \"Vault paused\") */\n      0x04\n      dup3\n      add\n        /* \"#utility.yul\":10227:10248   */\n      mstore\n        /* \"#utility.yul\":10284:10286   */\n      0x0c\n        /* \"#utility.yul\":10264:10282   */\n      0x24\n      dup3\n      add\n        /* \"#utility.yul\":10257:10287   */\n      mstore\n      shl(0xa2, 0x15985d5b1d081c185d5cd959)\n        /* \"#utility.yul\":10303:10321   */\n      0x44\n      dup3\n      add\n        /* \"#utility.yul\":10296:10338   */\n      mstore\n        /* \"#utility.yul\":10355:10373   */\n      0x64\n      add\n        /* \"FlattenedVault.sol\":17954:17986  require(!paused, \"Vault paused\") */\n      tag_65\n        /* \"#utility.yul\":10043:10379   */\n      jump\n        /* \"FlattenedVault.sol\":17954:17986  require(!paused, \"Vault paused\") */\n    tag_564:\n        /* \"FlattenedVault.sol\":19362:19378  whitelistEnabled */\n      sload(0x02)\n      0x0100\n      swap1\n      div\n      0xff\n      and\n        /* \"FlattenedVault.sol\":19358:19431  if (whitelistEnabled) require(isWhitelisted[receiver], \"Not whitelisted\") */\n      iszero\n      tag_568\n      jumpi\n      sub(shl(0xa0, 0x01), 0x01)\n        /* \"FlattenedVault.sol\":19388:19411  isWhitelisted[receiver] */\n      dup3\n      and\n      0x00\n      swap1\n      dup2\n      mstore\n        /* \"FlattenedVault.sol\":19388:19401  isWhitelisted */\n      0x08\n        /* \"FlattenedVault.sol\":19388:19411  isWhitelisted[receiver] */\n      0x20\n      mstore\n      0x40\n      swap1\n      keccak256\n      sload\n      0xff\n      and\n        /* \"FlattenedVault.sol\":19380:19431  require(isWhitelisted[receiver], \"Not whitelisted\") */\n      tag_568\n      jumpi\n      mload(0x40)\n      shl(0xe5, 0x461bcd)\n      dup2\n      mstore\n        /* \"#utility.yul\":19702:19704   */\n      0x20\n        /* \"FlattenedVault.sol\":19380:19431  require(isWhitelisted[receiver], \"Not whitelisted\") */\n      0x04\n      dup3\n      add\n        /* \"#utility.yul\":19684:19705   */\n      mstore\n        /* \"#utility.yul\":19741:19743   */\n      0x0f\n        /* \"#utility.yul\":19721:19739   */\n      0x24\n      dup3\n      add\n        /* \"#utility.yul\":19714:19744   */\n      mstore\n        /* \"#utility.yul\":19780:19797   */\n      0x4e6f742077686974656c69737465640000000000000000000000000000000000\n        /* \"#utility.yul\":19760:19778   */\n      0x44\n      dup3\n      add\n        /* \"#utility.yul\":19753:19798   */\n      mstore\n        /* \"#utility.yul\":19815:19833   */\n      0x64\n      add\n        /* \"FlattenedVault.sol\":19380:19431  require(isWhitelisted[receiver], \"Not whitelisted\") */\n      tag_65\n        /* \"#utility.yul\":19500:19839   */\n      jump\n        /* \"FlattenedVault.sol\":19380:19431  require(isWhitelisted[receiver], \"Not whitelisted\") */\n    tag_568:\n        /* \"FlattenedVault.sol\":19461:19462  0 */\n      0x00\n        /* \"FlattenedVault.sol\":19449:19458  msg.value */\n      callvalue\n        /* \"FlattenedVault.sol\":19449:19462  msg.value > 0 */\n      gt\n        /* \"FlattenedVault.sol\":19441:19478  require(msg.value > 0, \"No ETH sent\") */\n      tag_571\n      jumpi\n      mload(0x40)\n      shl(0xe5, 0x461bcd)\n      dup2\n      mstore\n        /* \"#utility.yul\":12575:12577   */\n      0x20\n        /* \"FlattenedVault.sol\":19441:19478  require(msg.value > 0, \"No ETH sent\") */\n      0x04\n      dup3\n      add\n        /* \"#utility.yul\":12557:12578   */\n      mstore\n        /* \"#utility.yul\":12614:12616   */\n      0x0b\n        /* \"#utility.yul\":12594:12612   */\n      0x24\n      dup3\n      add\n        /* \"#utility.yul\":12587:12617   */\n      mstore\n      shl(0xaa, 0x139bc8115512081cd95b9d)\n        /* \"#utility.yul\":12633:12651   */\n      0x44\n      dup3\n      add\n        /* \"#utility.yul\":12626:12667   */\n      mstore\n        /* \"#utility.yul\":12684:12702   */\n      0x64\n      add\n        /* \"FlattenedVault.sol\":19441:19478  require(msg.value > 0, \"No ETH sent\") */\n      tag_65\n        /* \"#utility.yul\":12373:12708   */\n      jump\n        /* \"FlattenedVault.sol\":19441:19478  require(msg.value > 0, \"No ETH sent\") */\n    tag_571:\n        /* \"FlattenedVault.sol\":16075:16090  5_000_000 ether */\n      0x0422ca8b0a00a425000000\n        /* \"FlattenedVault.sol\":19513:19522  msg.value */\n      callvalue\n        /* \"FlattenedVault.sol\":19496:19510  totalDeposited */\n      sload(0x04)\n        /* \"FlattenedVault.sol\":19496:19522  totalDeposited + msg.value */\n      tag_573\n      swap2\n      swap1\n      tag_354\n      jump\t// in\n    tag_573:\n        /* \"FlattenedVault.sol\":19496:19532  totalDeposited + msg.value <= maxCap */\n      gt\n      iszero\n        /* \"FlattenedVault.sol\":19488:19548  require(totalDeposited + msg.value <= maxCap, \"Cap reached\") */\n      tag_574\n      jumpi\n      mload(0x40)\n      shl(0xe5, 0x461bcd)\n      dup2\n      mstore\n        /* \"#utility.yul\":20046:20048   */\n      0x20\n        /* \"FlattenedVault.sol\":19488:19548  require(totalDeposited + msg.value <= maxCap, \"Cap reached\") */\n      0x04\n      dup3\n      add\n        /* \"#utility.yul\":20028:20049   */\n      mstore\n        /* \"#utility.yul\":20085:20087   */\n      0x0b\n        /* \"#utility.yul\":20065:20083   */\n      0x24\n      dup3\n      add\n        /* \"#utility.yul\":20058:20088   */\n      mstore\n        /* \"#utility.yul\":20124:20137   */\n      0x4361702072656163686564000000000000000000000000000000000000000000\n        /* \"#utility.yul\":20104:20122   */\n      0x44\n      dup3\n      add\n        /* \"#utility.yul\":20097:20138   */\n      mstore\n        /* \"#utility.yul\":20155:20173   */\n      0x64\n      add\n        /* \"FlattenedVault.sol\":19488:19548  require(totalDeposited + msg.value <= maxCap, \"Cap reached\") */\n      tag_65\n        /* \"#utility.yul\":19844:20179   */\n      jump\n        /* \"FlattenedVault.sol\":19488:19548  require(totalDeposited + msg.value <= maxCap, \"Cap reached\") */\n    tag_574:\n      pop\n      sub(shl(0xa0, 0x01), 0x01)\n        /* \"FlattenedVault.sol\":19586:19608  userDeposits[receiver] */\n      dup2\n      and\n      0x00\n      swap1\n      dup2\n      mstore\n        /* \"FlattenedVault.sol\":19586:19598  userDeposits */\n      0x07\n        /* \"FlattenedVault.sol\":19586:19608  userDeposits[receiver] */\n      0x20\n      swap1\n      dup2\n      mstore\n      0x40\n      dup1\n      dup4\n      keccak256\n        /* \"FlattenedVault.sol\":19614:19838  DepositInfo({... */\n      dup2\n      mload\n      0xc0\n      dup2\n      add\n      dup4\n      mstore\n        /* \"FlattenedVault.sol\":19567:19576  msg.value */\n      callvalue\n        /* \"FlattenedVault.sol\":19614:19838  DepositInfo({... */\n      dup1\n      dup3\n      mstore\n        /* \"FlattenedVault.sol\":19682:19697  block.timestamp */\n      timestamp\n        /* \"FlattenedVault.sol\":19614:19838  DepositInfo({... */\n      dup3\n      dup7\n      add\n      swap1\n      dup2\n      mstore\n      swap4\n      dup3\n      add\n      dup2\n      dup2\n      mstore\n      0x60\n      dup4\n      add\n      dup8\n      dup2\n      mstore\n      0x80\n      dup5\n      add\n      dup9\n      dup2\n      mstore\n      0xa0\n      dup6\n      add\n      dup10\n      dup2\n      mstore\n        /* \"FlattenedVault.sol\":19586:19839  userDeposits[receiver].push(DepositInfo({... */\n      dup7\n      sload\n        /* \"FlattenedVault.sol\":19614:19838  DepositInfo({... */\n      0x01\n        /* \"FlattenedVault.sol\":19586:19839  userDeposits[receiver].push(DepositInfo({... */\n      dup2\n      dup2\n      add\n      dup10\n      sstore\n      swap8\n      dup12\n      mstore\n      swap9\n      dup11\n      keccak256\n      swap6\n      mload\n      0x04\n      swap10\n      dup11\n      mul\n      swap1\n      swap7\n      add\n      swap6\n      dup7\n      sstore\n      swap7\n      mload\n      swap6\n      dup6\n      add\n      swap6\n      swap1\n      swap6\n      sstore\n      swap1\n      mload\n      0x02\n      dup5\n      add\n      sstore\n      mload\n      0x03\n      swap1\n      swap3\n      add\n      dup1\n      sload\n      swap4\n      mload\n      swap5\n      mload\n      iszero\n      iszero\n      0x010000\n      mul\n      not(0xff0000)\n      swap6\n      iszero\n      iszero\n      0x0100\n      mul\n      not(0xff00)\n      swap5\n      iszero\n      iszero\n      swap5\n      swap1\n      swap5\n      and\n      not(0xffff)\n      swap1\n      swap6\n      and\n      swap5\n      swap1\n      swap5\n      or\n      swap3\n      swap1\n      swap3\n      or\n      swap4\n      swap1\n      swap4\n      and\n      swap2\n      swap1\n      swap2\n      or\n      swap1\n      sstore\n        /* \"FlattenedVault.sol\":19849:19876  totalDeposited += msg.value */\n      dup2\n      sload\n        /* \"FlattenedVault.sol\":19567:19576  msg.value */\n      swap1\n      swap3\n      dup4\n      swap3\n        /* \"FlattenedVault.sol\":19586:19839  userDeposits[receiver].push(DepositInfo({... */\n      swap2\n        /* \"FlattenedVault.sol\":19849:19876  totalDeposited += msg.value */\n      tag_578\n      swap1\n        /* \"FlattenedVault.sol\":19567:19576  msg.value */\n      dup5\n      swap1\n        /* \"FlattenedVault.sol\":19849:19876  totalDeposited += msg.value */\n      tag_354\n      jump\t// in\n    tag_578:\n      swap3\n      pop\n      pop\n      dup2\n      swap1\n      sstore\n      pop\n        /* \"FlattenedVault.sol\":19901:19907  shares */\n      dup1\n        /* \"FlattenedVault.sol\":19886:19897  totalShares */\n      0x05\n      0x00\n        /* \"FlattenedVault.sol\":19886:19907  totalShares += shares */\n      dup3\n      dup3\n      sload\n      tag_579\n      swap2\n      swap1\n      tag_354\n      jump\t// in\n    tag_579:\n      swap1\n      swap2\n      sstore\n      pop\n      pop\n      sub(shl(0xa0, 0x01), 0x01)\n        /* \"FlattenedVault.sol\":19921:19943  userDeposits[receiver] */\n      dup3\n      and\n      0x00\n      swap1\n      dup2\n      mstore\n        /* \"FlattenedVault.sol\":19921:19933  userDeposits */\n      0x07\n        /* \"FlattenedVault.sol\":19921:19943  userDeposits[receiver] */\n      0x20\n      mstore\n      0x40\n      swap1\n      keccak256\n        /* \"FlattenedVault.sol\":19921:19950  userDeposits[receiver].length */\n      sload\n        /* \"FlattenedVault.sol\":19954:19955  1 */\n      0x01\n        /* \"FlattenedVault.sol\":19921:19955  userDeposits[receiver].length == 1 */\n      sub\n        /* \"FlattenedVault.sol\":19917:20005  if (userDeposits[receiver].length == 1) {... */\n      tag_580\n      jumpi\n        /* \"FlattenedVault.sol\":19971:19979  allUsers */\n      0x09\n        /* \"FlattenedVault.sol\":19971:19994  allUsers.push(receiver) */\n      dup1\n      sload\n      0x01\n      dup2\n      add\n      dup3\n      sstore\n      0x00\n      swap2\n      swap1\n      swap2\n      mstore\n      0x6e1540171b6c0c960b71a7020d9f60077f6af931a8bbf590da0223dacf75c7af\n      add\n      dup1\n      sload\n      0xffffffffffffffffffffffff0000000000000000000000000000000000000000\n      and\n      sub(shl(0xa0, 0x01), 0x01)\n      dup5\n      and\n      or\n      swap1\n      sstore\n        /* \"FlattenedVault.sol\":19917:20005  if (userDeposits[receiver].length == 1) {... */\n    tag_580:\n      sub(shl(0xa0, 0x01), 0x01)\n        /* \"FlattenedVault.sol\":20019:20117  TimeLockedDeposit(receiver, msg.value, shares, block.timestamp, userDeposits[receiver].length - 1) */\n      dup3\n      and\n        /* \"FlattenedVault.sol\":20083:20105  userDeposits[receiver] */\n      0x00\n      dup2\n      dup2\n      mstore\n        /* \"FlattenedVault.sol\":20083:20095  userDeposits */\n      0x07\n        /* \"FlattenedVault.sol\":20083:20105  userDeposits[receiver] */\n      0x20\n      mstore\n      0x40\n      swap1\n      keccak256\n        /* \"FlattenedVault.sol\":20083:20112  userDeposits[receiver].length */\n      sload\n        /* \"FlattenedVault.sol\":20019:20117  TimeLockedDeposit(receiver, msg.value, shares, block.timestamp, userDeposits[receiver].length - 1) */\n      0x063a06ec64608a50e5667df73dd241e8d3594fc77298deba02f4d78b858cc52e\n      swap1\n        /* \"FlattenedVault.sol\":20047:20056  msg.value */\n      callvalue\n      swap1\n        /* \"FlattenedVault.sol\":20058:20064  shares */\n      dup5\n      swap1\n        /* \"FlattenedVault.sol\":20066:20081  block.timestamp */\n      timestamp\n      swap1\n        /* \"FlattenedVault.sol\":20083:20116  userDeposits[receiver].length - 1 */\n      tag_582\n      swap1\n        /* \"FlattenedVault.sol\":20115:20116  1 */\n      0x01\n      swap1\n        /* \"FlattenedVault.sol\":20083:20116  userDeposits[receiver].length - 1 */\n      tag_386\n      jump\t// in\n    tag_582:\n        /* \"FlattenedVault.sol\":20019:20117  TimeLockedDeposit(receiver, msg.value, shares, block.timestamp, userDeposits[receiver].length - 1) */\n      0x40\n      dup1\n      mload\n        /* \"#utility.yul\":20415:20440   */\n      swap5\n      dup6\n      mstore\n        /* \"#utility.yul\":20471:20473   */\n      0x20\n        /* \"#utility.yul\":20456:20474   */\n      dup6\n      add\n        /* \"#utility.yul\":20449:20483   */\n      swap4\n      swap1\n      swap4\n      mstore\n        /* \"#utility.yul\":20499:20517   */\n      swap2\n      dup4\n      add\n        /* \"#utility.yul\":20492:20526   */\n      mstore\n        /* \"#utility.yul\":20557:20559   */\n      0x60\n        /* \"#utility.yul\":20542:20560   */\n      dup3\n      add\n        /* \"#utility.yul\":20535:20569   */\n      mstore\n        /* \"#utility.yul\":20402:20405   */\n      0x80\n        /* \"#utility.yul\":20387:20406   */\n      add\n        /* \"FlattenedVault.sol\":20019:20117  TimeLockedDeposit(receiver, msg.value, shares, block.timestamp, userDeposits[receiver].length - 1) */\n      mload(0x40)\n      dup1\n      swap2\n      sub\n      swap1\n      log2\n        /* \"FlattenedVault.sol\":14736:14756  _nonReentrantAfter() */\n      tag_585\n        /* \"FlattenedVault.sol\":14051:14052  1 */\n      0x01\n        /* \"FlattenedVault.sol\":15262:15283  _status = NOT_ENTERED */\n      dup1\n      sstore\n        /* \"FlattenedVault.sol\":15082:15290  function _nonReentrantAfter() private {... */\n      jump\n        /* \"FlattenedVault.sol\":14736:14756  _nonReentrantAfter() */\n    tag_585:\n        /* \"FlattenedVault.sol\":19244:20124  function deposit(address receiver) external payable nonReentrant whenNotPaused returns (uint256 shares) {... */\n      swap2\n      swap1\n      pop\n      jump\t// out\n        /* \"FlattenedVault.sol\":26165:26649  function getEarliestDepositTimestamp() public view returns (uint256 earliest) {... */\n    tag_268:\n      not(0x00)\n        /* \"FlattenedVault.sol\":26225:26241  uint256 earliest */\n      0x00\n        /* \"FlattenedVault.sol\":26291:26572  for (uint256 i=0; i<allUsers.length; i++){... */\n    tag_587:\n        /* \"FlattenedVault.sol\":26311:26319  allUsers */\n      0x09\n        /* \"FlattenedVault.sol\":26311:26326  allUsers.length */\n      sload\n        /* \"FlattenedVault.sol\":26309:26326  i<allUsers.length */\n      dup2\n      lt\n        /* \"FlattenedVault.sol\":26291:26572  for (uint256 i=0; i<allUsers.length; i++){... */\n      iszero\n      tag_588\n      jumpi\n        /* \"FlattenedVault.sol\":26346:26376  DepositInfo[] storage deposits */\n      0x00\n        /* \"FlattenedVault.sol\":26379:26391  userDeposits */\n      0x07\n        /* \"FlattenedVault.sol\":26379:26404  userDeposits[allUsers[i]] */\n      0x00\n        /* \"FlattenedVault.sol\":26392:26400  allUsers */\n      0x09\n        /* \"FlattenedVault.sol\":26401:26402  i */\n      dup5\n        /* \"FlattenedVault.sol\":26392:26403  allUsers[i] */\n      dup2\n      sload\n      dup2\n      lt\n      tag_591\n      jumpi\n      tag_591\n      tag_304\n      jump\t// in\n    tag_591:\n      0x00\n      swap2\n      dup3\n      mstore\n      0x20\n      dup1\n      dup4\n      keccak256\n      swap1\n      swap2\n      add\n      sload\n      sub(shl(0xa0, 0x01), 0x01)\n      and\n        /* \"FlattenedVault.sol\":26379:26404  userDeposits[allUsers[i]] */\n      dup4\n      mstore\n      dup3\n      add\n      swap3\n      swap1\n      swap3\n      mstore\n      0x40\n      add\n      dup2\n      keccak256\n      swap2\n      pop\n        /* \"FlattenedVault.sol\":26418:26562  for (uint256 j=0; j<deposits.length; j++){... */\n    tag_593:\n        /* \"FlattenedVault.sol\":26438:26453  deposits.length */\n      dup2\n      sload\n        /* \"FlattenedVault.sol\":26436:26453  j<deposits.length */\n      dup2\n      lt\n        /* \"FlattenedVault.sol\":26418:26562  for (uint256 j=0; j<deposits.length; j++){... */\n      iszero\n      tag_594\n      jumpi\n        /* \"FlattenedVault.sol\":26505:26513  earliest */\n      dup4\n        /* \"FlattenedVault.sol\":26481:26489  deposits */\n      dup3\n        /* \"FlattenedVault.sol\":26490:26491  j */\n      dup3\n        /* \"FlattenedVault.sol\":26481:26492  deposits[j] */\n      dup2\n      sload\n      dup2\n      lt\n      tag_597\n      jumpi\n      tag_597\n      tag_304\n      jump\t// in\n    tag_597:\n      swap1\n      0x00\n      mstore\n      keccak256(0x00, 0x20)\n      swap1\n      0x04\n      mul\n      add\n        /* \"FlattenedVault.sol\":26481:26502  deposits[j].timestamp */\n      0x01\n      add\n      sload\n        /* \"FlattenedVault.sol\":26481:26513  deposits[j].timestamp < earliest */\n      lt\n        /* \"FlattenedVault.sol\":26477:26547  if (deposits[j].timestamp < earliest) earliest = deposits[j].timestamp */\n      iszero\n      tag_599\n      jumpi\n        /* \"FlattenedVault.sol\":26526:26534  deposits */\n      dup2\n        /* \"FlattenedVault.sol\":26535:26536  j */\n      dup2\n        /* \"FlattenedVault.sol\":26526:26537  deposits[j] */\n      dup2\n      sload\n      dup2\n      lt\n      tag_601\n      jumpi\n      tag_601\n      tag_304\n      jump\t// in\n    tag_601:\n      swap1\n      0x00\n      mstore\n      keccak256(0x00, 0x20)\n      swap1\n      0x04\n      mul\n      add\n        /* \"FlattenedVault.sol\":26526:26547  deposits[j].timestamp */\n      0x01\n      add\n      sload\n        /* \"FlattenedVault.sol\":26515:26547  earliest = deposits[j].timestamp */\n      swap4\n      pop\n        /* \"FlattenedVault.sol\":26477:26547  if (deposits[j].timestamp < earliest) earliest = deposits[j].timestamp */\n    tag_599:\n        /* \"FlattenedVault.sol\":26455:26458  j++ */\n      0x01\n      add\n        /* \"FlattenedVault.sol\":26418:26562  for (uint256 j=0; j<deposits.length; j++){... */\n      jump(tag_593)\n    tag_594:\n      pop\n      pop\n        /* \"FlattenedVault.sol\":26328:26331  i++ */\n      0x01\n      add\n        /* \"FlattenedVault.sol\":26291:26572  for (uint256 i=0; i<allUsers.length; i++){... */\n      jump(tag_587)\n    tag_588:\n      pop\n      not(0x00)\n        /* \"FlattenedVault.sol\":26585:26593  earliest */\n      dup2\n        /* \"FlattenedVault.sol\":26585:26614  earliest == type(uint256).max */\n      sub\n        /* \"FlattenedVault.sol\":26581:26642  if (earliest == type(uint256).max) earliest = block.timestamp */\n      tag_603\n      jumpi\n      pop\n        /* \"FlattenedVault.sol\":26627:26642  block.timestamp */\n      timestamp\n        /* \"FlattenedVault.sol\":26581:26642  if (earliest == type(uint256).max) earliest = block.timestamp */\n    tag_603:\n        /* \"FlattenedVault.sol\":26165:26649  function getEarliestDepositTimestamp() public view returns (uint256 earliest) {... */\n      swap1\n      jump\t// out\n        /* \"FlattenedVault.sol\":8475:8578  function _checkRole(bytes32 role) internal view virtual {... */\n    tag_280:\n        /* \"FlattenedVault.sol\":8541:8571  _checkRole(role, _msgSender()) */\n      tag_307\n        /* \"FlattenedVault.sol\":8552:8556  role */\n      dup2\n        /* \"FlattenedVault.sol\":3875:3885  msg.sender */\n      caller\n        /* \"FlattenedVault.sol\":8541:8551  _checkRole */\n      tag_608\n        /* \"FlattenedVault.sol\":8541:8571  _checkRole(role, _msgSender()) */\n      jump\t// in\n        /* \"FlattenedVault.sol\":14769:15076  function _nonReentrantBefore() private {... */\n    tag_292:\n        /* \"FlattenedVault.sol\":14093:14094  2 */\n      0x02\n        /* \"FlattenedVault.sol\":14896:14903  _status */\n      sload(0x01)\n        /* \"FlattenedVault.sol\":14896:14914  _status == ENTERED */\n      sub\n        /* \"FlattenedVault.sol\":14892:14978  if (_status == ENTERED) {... */\n      tag_610\n      jumpi\n        /* \"FlattenedVault.sol\":14937:14967  ReentrancyGuardReentrantCall() */\n      mload(0x40)\n      shl(0xe0, 0x3ee5aeb5)\n      dup2\n      mstore\n      0x04\n      add\n      mload(0x40)\n      dup1\n      swap2\n      sub\n      swap1\n      revert\n        /* \"FlattenedVault.sol\":14892:14978  if (_status == ENTERED) {... */\n    tag_610:\n        /* \"FlattenedVault.sol\":14093:14094  2 */\n      0x02\n        /* \"FlattenedVault.sol\":15052:15059  _status */\n      0x01\n        /* \"FlattenedVault.sol\":15052:15069  _status = ENTERED */\n      sstore\n        /* \"FlattenedVault.sol\":14769:15076  function _nonReentrantBefore() private {... */\n      jump\t// out\n        /* \"FlattenedVault.sol\":21638:23299  function _batchWithdrawMemory(uint256[] memory depositIndices) internal {... */\n    tag_306:\n        /* \"FlattenedVault.sol\":21720:21742  uint256 totalPrincipal */\n      0x00\n        /* \"FlattenedVault.sol\":21752:21769  uint256 totalUtil */\n      dup1\n        /* \"FlattenedVault.sol\":21784:21793  uint256 i */\n      0x00\n        /* \"FlattenedVault.sol\":21779:22989  for (uint256 i = 0; i < depositIndices.length; i++) {... */\n    tag_612:\n        /* \"FlattenedVault.sol\":21803:21817  depositIndices */\n      dup4\n        /* \"FlattenedVault.sol\":21803:21824  depositIndices.length */\n      mload\n        /* \"FlattenedVault.sol\":21799:21800  i */\n      dup2\n        /* \"FlattenedVault.sol\":21799:21824  i < depositIndices.length */\n      lt\n        /* \"FlattenedVault.sol\":21779:22989  for (uint256 i = 0; i < depositIndices.length; i++) {... */\n      iszero\n      tag_613\n      jumpi\n        /* \"FlattenedVault.sol\":21845:21856  uint256 idx */\n      0x00\n        /* \"FlattenedVault.sol\":21859:21873  depositIndices */\n      dup5\n        /* \"FlattenedVault.sol\":21874:21875  i */\n      dup3\n        /* \"FlattenedVault.sol\":21859:21876  depositIndices[i] */\n      dup2\n      mload\n      dup2\n      lt\n      tag_616\n      jumpi\n      tag_616\n      tag_304\n      jump\t// in\n    tag_616:\n      0x20\n      swap1\n      dup2\n      mul\n      swap2\n      swap1\n      swap2\n      add\n      dup2\n      add\n      mload\n        /* \"FlattenedVault.sol\":21917:21927  msg.sender */\n      caller\n        /* \"FlattenedVault.sol\":21904:21928  userDeposits[msg.sender] */\n      0x00\n      swap1\n      dup2\n      mstore\n        /* \"FlattenedVault.sol\":21904:21916  userDeposits */\n      0x07\n        /* \"FlattenedVault.sol\":21904:21928  userDeposits[msg.sender] */\n      swap1\n      swap3\n      mstore\n      0x40\n      swap1\n      swap2\n      keccak256\n        /* \"FlattenedVault.sol\":21904:21935  userDeposits[msg.sender].length */\n      sload\n        /* \"FlattenedVault.sol\":21859:21876  depositIndices[i] */\n      swap1\n      swap2\n      pop\n        /* \"FlattenedVault.sol\":21898:21935  idx < userDeposits[msg.sender].length */\n      dup2\n      lt\n        /* \"FlattenedVault.sol\":21890:21962  require(idx < userDeposits[msg.sender].length, \"Deposit does not exist\") */\n      tag_617\n      jumpi\n      mload(0x40)\n      shl(0xe5, 0x461bcd)\n      dup2\n      mstore\n        /* \"#utility.yul\":14376:14378   */\n      0x20\n        /* \"FlattenedVault.sol\":21890:21962  require(idx < userDeposits[msg.sender].length, \"Deposit does not exist\") */\n      0x04\n      dup3\n      add\n        /* \"#utility.yul\":14358:14379   */\n      mstore\n        /* \"#utility.yul\":14415:14417   */\n      0x16\n        /* \"#utility.yul\":14395:14413   */\n      0x24\n      dup3\n      add\n        /* \"#utility.yul\":14388:14418   */\n      mstore\n        /* \"#utility.yul\":14454:14478   */\n      0x4465706f73697420646f6573206e6f7420657869737400000000000000000000\n        /* \"#utility.yul\":14434:14452   */\n      0x44\n      dup3\n      add\n        /* \"#utility.yul\":14427:14479   */\n      mstore\n        /* \"#utility.yul\":14496:14514   */\n      0x64\n      add\n        /* \"FlattenedVault.sol\":21890:21962  require(idx < userDeposits[msg.sender].length, \"Deposit does not exist\") */\n      tag_65\n        /* \"#utility.yul\":14174:14520   */\n      jump\n        /* \"FlattenedVault.sol\":21890:21962  require(idx < userDeposits[msg.sender].length, \"Deposit does not exist\") */\n    tag_617:\n        /* \"FlattenedVault.sol\":22015:22025  msg.sender */\n      caller\n        /* \"FlattenedVault.sol\":21976:21999  DepositInfo storage dep */\n      0x00\n        /* \"FlattenedVault.sol\":22002:22026  userDeposits[msg.sender] */\n      swap1\n      dup2\n      mstore\n        /* \"FlattenedVault.sol\":22002:22014  userDeposits */\n      0x07\n        /* \"FlattenedVault.sol\":22002:22026  userDeposits[msg.sender] */\n      0x20\n      mstore\n      0x40\n      dup2\n      keccak256\n        /* \"FlattenedVault.sol\":22002:22031  userDeposits[msg.sender][idx] */\n      dup1\n      sload\n        /* \"FlattenedVault.sol\":22027:22030  idx */\n      dup4\n      swap1\n        /* \"FlattenedVault.sol\":22002:22031  userDeposits[msg.sender][idx] */\n      dup2\n      lt\n      tag_620\n      jumpi\n      tag_620\n      tag_304\n      jump\t// in\n    tag_620:\n      0x00\n      swap2\n      dup3\n      mstore\n      0x20\n      swap1\n      swap2\n      keccak256\n      0x04\n      swap1\n      swap2\n      mul\n      add\n        /* \"FlattenedVault.sol\":22054:22067  dep.withdrawn */\n      0x03\n      dup2\n      add\n      sload\n        /* \"FlattenedVault.sol\":22002:22031  userDeposits[msg.sender][idx] */\n      swap1\n      swap2\n      pop\n        /* \"FlattenedVault.sol\":22054:22067  dep.withdrawn */\n      0xff\n      and\n        /* \"FlattenedVault.sol\":22053:22067  !dep.withdrawn */\n      iszero\n        /* \"FlattenedVault.sol\":22045:22089  require(!dep.withdrawn, \"Already withdrawn\") */\n      tag_622\n      jumpi\n      mload(0x40)\n      shl(0xe5, 0x461bcd)\n      dup2\n      mstore\n        /* \"#utility.yul\":20782:20784   */\n      0x20\n        /* \"FlattenedVault.sol\":22045:22089  require(!dep.withdrawn, \"Already withdrawn\") */\n      0x04\n      dup3\n      add\n        /* \"#utility.yul\":20764:20785   */\n      mstore\n        /* \"#utility.yul\":20821:20823   */\n      0x11\n        /* \"#utility.yul\":20801:20819   */\n      0x24\n      dup3\n      add\n        /* \"#utility.yul\":20794:20824   */\n      mstore\n        /* \"#utility.yul\":20860:20879   */\n      0x416c72656164792077697468647261776e000000000000000000000000000000\n        /* \"#utility.yul\":20840:20858   */\n      0x44\n      dup3\n      add\n        /* \"#utility.yul\":20833:20880   */\n      mstore\n        /* \"#utility.yul\":20897:20915   */\n      0x64\n      add\n        /* \"FlattenedVault.sol\":22045:22089  require(!dep.withdrawn, \"Already withdrawn\") */\n      tag_65\n        /* \"#utility.yul\":20580:20921   */\n      jump\n        /* \"FlattenedVault.sol\":22045:22089  require(!dep.withdrawn, \"Already withdrawn\") */\n    tag_622:\n        /* \"FlattenedVault.sol\":22103:22116  bool unlocked */\n      0x00\n        /* \"FlattenedVault.sol\":15962:15970  180 days */\n      0xed4e00\n        /* \"FlattenedVault.sol\":22138:22141  dep */\n      dup3\n        /* \"FlattenedVault.sol\":22138:22151  dep.timestamp */\n      0x01\n      add\n      sload\n        /* \"FlattenedVault.sol\":22138:22167  dep.timestamp + LOCKUP_PERIOD */\n      tag_625\n      swap2\n      swap1\n      tag_354\n      jump\t// in\n    tag_625:\n        /* \"FlattenedVault.sol\":22119:22134  block.timestamp */\n      timestamp\n        /* \"FlattenedVault.sol\":22119:22167  block.timestamp >= dep.timestamp + LOCKUP_PERIOD */\n      lt\n      iszero\n        /* \"FlattenedVault.sol\":22119:22218  block.timestamp >= dep.timestamp + LOCKUP_PERIOD ||... */\n      dup1\n      tag_626\n      jumpi\n      pop\n        /* \"FlattenedVault.sol\":22199:22218  dep.unlockedByAdmin */\n      0x03\n      dup3\n      add\n      sload\n      0x0100\n      swap1\n      div\n      0xff\n      and\n        /* \"FlattenedVault.sol\":22119:22218  block.timestamp >= dep.timestamp + LOCKUP_PERIOD ||... */\n    tag_626:\n        /* \"FlattenedVault.sol\":22119:22299  block.timestamp >= dep.timestamp + LOCKUP_PERIOD ||... */\n      dup1\n      tag_628\n      jumpi\n      pop\n        /* \"FlattenedVault.sol\":22251:22275  globalLiquidationEnabled */\n      sload(0x02)\n      0x010000\n      swap1\n      div\n      0xff\n      and\n        /* \"FlattenedVault.sol\":22251:22298  globalLiquidationEnabled && dep.fullyRedeemable */\n      dup1\n      iszero\n      tag_628\n      jumpi\n      pop\n        /* \"FlattenedVault.sol\":22279:22298  dep.fullyRedeemable */\n      0x03\n      dup3\n      add\n      sload\n      0x010000\n      swap1\n      div\n      0xff\n      and\n        /* \"FlattenedVault.sol\":22251:22298  globalLiquidationEnabled && dep.fullyRedeemable */\n    tag_628:\n        /* \"FlattenedVault.sol\":22103:22299  bool unlocked = block.timestamp >= dep.timestamp + LOCKUP_PERIOD ||... */\n      swap1\n      pop\n        /* \"FlattenedVault.sol\":22321:22329  unlocked */\n      dup1\n        /* \"FlattenedVault.sol\":22313:22348  require(unlocked, \"Deposit locked\") */\n      tag_629\n      jumpi\n      mload(0x40)\n      shl(0xe5, 0x461bcd)\n      dup2\n      mstore\n        /* \"#utility.yul\":21128:21130   */\n      0x20\n        /* \"FlattenedVault.sol\":22313:22348  require(unlocked, \"Deposit locked\") */\n      0x04\n      dup3\n      add\n        /* \"#utility.yul\":21110:21131   */\n      mstore\n        /* \"#utility.yul\":21167:21169   */\n      0x0e\n        /* \"#utility.yul\":21147:21165   */\n      0x24\n      dup3\n      add\n        /* \"#utility.yul\":21140:21170   */\n      mstore\n        /* \"#utility.yul\":21206:21222   */\n      0x4465706f736974206c6f636b6564000000000000000000000000000000000000\n        /* \"#utility.yul\":21186:21204   */\n      0x44\n      dup3\n      add\n        /* \"#utility.yul\":21179:21223   */\n      mstore\n        /* \"#utility.yul\":21240:21258   */\n      0x64\n      add\n        /* \"FlattenedVault.sol\":22313:22348  require(unlocked, \"Deposit locked\") */\n      tag_65\n        /* \"#utility.yul\":20926:21264   */\n      jump\n        /* \"FlattenedVault.sol\":22313:22348  require(unlocked, \"Deposit locked\") */\n    tag_629:\n        /* \"FlattenedVault.sol\":22388:22398  dep.amount */\n      dup2\n      sload\n        /* \"FlattenedVault.sol\":22459:22471  totalUtility */\n      sload(0x06)\n        /* \"FlattenedVault.sol\":22362:22385  uint256 payoutPrincipal */\n      0x00\n      swap1\n        /* \"FlattenedVault.sol\":22459:22475  totalUtility > 0 */\n      iszero\n      dup1\n      iszero\n      swap1\n        /* \"FlattenedVault.sol\":22459:22493  totalUtility > 0 && dep.shares > 0 */\n      tag_632\n      jumpi\n      pop\n        /* \"FlattenedVault.sol\":22492:22493  0 */\n      0x00\n        /* \"FlattenedVault.sol\":22479:22482  dep */\n      dup5\n        /* \"FlattenedVault.sol\":22479:22489  dep.shares */\n      0x02\n      add\n      sload\n        /* \"FlattenedVault.sol\":22479:22493  dep.shares > 0 */\n      gt\n        /* \"FlattenedVault.sol\":22459:22493  totalUtility > 0 && dep.shares > 0 */\n    tag_632:\n        /* \"FlattenedVault.sol\":22459:22512  totalUtility > 0 && dep.shares > 0 && totalShares > 0 */\n      dup1\n      iszero\n      tag_633\n      jumpi\n      pop\n        /* \"FlattenedVault.sol\":22511:22512  0 */\n      0x00\n        /* \"FlattenedVault.sol\":22497:22508  totalShares */\n      sload(0x05)\n        /* \"FlattenedVault.sol\":22497:22512  totalShares > 0 */\n      gt\n        /* \"FlattenedVault.sol\":22459:22512  totalUtility > 0 && dep.shares > 0 && totalShares > 0 */\n    tag_633:\n        /* \"FlattenedVault.sol\":22455:22659  if (totalUtility > 0 && dep.shares > 0 && totalShares > 0) {... */\n      iszero\n      tag_634\n      jumpi\n        /* \"FlattenedVault.sol\":22582:22593  totalShares */\n      sload(0x05)\n        /* \"FlattenedVault.sol\":22568:22571  dep */\n      dup5\n        /* \"FlattenedVault.sol\":22568:22578  dep.shares */\n      0x02\n      add\n      sload\n        /* \"FlattenedVault.sol\":22553:22565  totalUtility */\n      sload(0x06)\n        /* \"FlattenedVault.sol\":22553:22578  totalUtility * dep.shares */\n      tag_635\n      swap2\n      swap1\n      tag_636\n      jump\t// in\n    tag_635:\n        /* \"FlattenedVault.sol\":22552:22593  (totalUtility * dep.shares) / totalShares */\n      tag_637\n      swap2\n      swap1\n      tag_638\n      jump\t// in\n    tag_637:\n        /* \"FlattenedVault.sol\":22532:22593  utilityForDeposit = (totalUtility * dep.shares) / totalShares */\n      swap1\n      pop\n        /* \"FlattenedVault.sol\":22627:22644  utilityForDeposit */\n      dup1\n        /* \"FlattenedVault.sol\":22611:22623  totalUtility */\n      0x06\n      0x00\n        /* \"FlattenedVault.sol\":22611:22644  totalUtility -= utilityForDeposit */\n      dup3\n      dup3\n      sload\n      tag_639\n      swap2\n      swap1\n      tag_386\n      jump\t// in\n    tag_639:\n      swap1\n      swap2\n      sstore\n      pop\n      pop\n        /* \"FlattenedVault.sol\":22455:22659  if (totalUtility > 0 && dep.shares > 0 && totalShares > 0) {... */\n    tag_634:\n        /* \"FlattenedVault.sol\":22672:22685  dep.withdrawn */\n      0x03\n      dup5\n      add\n        /* \"FlattenedVault.sol\":22672:22692  dep.withdrawn = true */\n      dup1\n      sload\n      not(0xff)\n      and\n        /* \"FlattenedVault.sol\":22688:22692  true */\n      0x01\n        /* \"FlattenedVault.sol\":22672:22692  dep.withdrawn = true */\n      or\n      swap1\n      sstore\n        /* \"FlattenedVault.sol\":22706:22720  totalDeposited */\n      0x04\n        /* \"FlattenedVault.sol\":22706:22739  totalDeposited -= payoutPrincipal */\n      dup1\n      sload\n        /* \"FlattenedVault.sol\":22724:22739  payoutPrincipal */\n      dup4\n      swap2\n        /* \"FlattenedVault.sol\":22706:22720  totalDeposited */\n      swap1\n        /* \"FlattenedVault.sol\":22672:22685  dep.withdrawn */\n      0x00\n      swap1\n        /* \"FlattenedVault.sol\":22706:22739  totalDeposited -= payoutPrincipal */\n      tag_640\n      swap1\n        /* \"FlattenedVault.sol\":22724:22739  payoutPrincipal */\n      dup5\n      swap1\n        /* \"FlattenedVault.sol\":22706:22739  totalDeposited -= payoutPrincipal */\n      tag_386\n      jump\t// in\n    tag_640:\n      swap1\n      swap2\n      sstore\n      pop\n      pop\n        /* \"FlattenedVault.sol\":22768:22778  dep.shares */\n      0x02\n      dup5\n      add\n      sload\n        /* \"FlattenedVault.sol\":22753:22764  totalShares */\n      0x05\n        /* \"FlattenedVault.sol\":22753:22778  totalShares -= dep.shares */\n      dup1\n      sload\n        /* \"FlattenedVault.sol\":22753:22764  totalShares */\n      0x00\n      swap1\n        /* \"FlattenedVault.sol\":22753:22778  totalShares -= dep.shares */\n      tag_641\n      swap1\n        /* \"FlattenedVault.sol\":22768:22778  dep.shares */\n      dup5\n      swap1\n        /* \"FlattenedVault.sol\":22753:22778  totalShares -= dep.shares */\n      tag_386\n      jump\t// in\n    tag_641:\n      swap1\n      swap2\n      sstore\n      pop\n        /* \"FlattenedVault.sol\":22792:22825  totalPrincipal += payoutPrincipal */\n      tag_642\n      swap1\n      pop\n        /* \"FlattenedVault.sol\":22810:22825  payoutPrincipal */\n      dup3\n        /* \"FlattenedVault.sol\":22792:22825  totalPrincipal += payoutPrincipal */\n      dup10\n      tag_354\n      jump\t// in\n    tag_642:\n      swap8\n      pop\n        /* \"FlattenedVault.sol\":22839:22869  totalUtil += utilityForDeposit */\n      tag_643\n        /* \"FlattenedVault.sol\":22852:22869  utilityForDeposit */\n      dup2\n        /* \"FlattenedVault.sol\":22839:22869  totalUtil += utilityForDeposit */\n      dup9\n      tag_354\n      jump\t// in\n    tag_643:\n        /* \"FlattenedVault.sol\":22945:22955  dep.shares */\n      0x02\n      dup6\n      add\n      sload\n        /* \"FlattenedVault.sol\":22888:22978  Withdraw(msg.sender, payoutPrincipal, utilityForDeposit, dep.shares, block.timestamp, idx) */\n      0x40\n      dup1\n      mload\n        /* \"#utility.yul\":21923:21948   */\n      dup6\n      dup2\n      mstore\n        /* \"#utility.yul\":21979:21981   */\n      0x20\n        /* \"#utility.yul\":21964:21982   */\n      dup2\n      add\n        /* \"#utility.yul\":21957:21991   */\n      dup6\n      swap1\n      mstore\n        /* \"#utility.yul\":22007:22025   */\n      dup1\n      dup3\n      add\n        /* \"#utility.yul\":22000:22034   */\n      swap3\n      swap1\n      swap3\n      mstore\n        /* \"FlattenedVault.sol\":22957:22972  block.timestamp */\n      timestamp\n        /* \"#utility.yul\":22065:22067   */\n      0x60\n        /* \"#utility.yul\":22050:22068   */\n      dup4\n      add\n        /* \"#utility.yul\":22043:22077   */\n      mstore\n        /* \"#utility.yul\":22108:22111   */\n      0x80\n        /* \"#utility.yul\":22093:22112   */\n      dup3\n      add\n        /* \"#utility.yul\":22086:22121   */\n      dup9\n      swap1\n      mstore\n        /* \"FlattenedVault.sol\":22888:22978  Withdraw(msg.sender, payoutPrincipal, utilityForDeposit, dep.shares, block.timestamp, idx) */\n      mload\n        /* \"FlattenedVault.sol\":22839:22869  totalUtil += utilityForDeposit */\n      swap2\n      swap9\n      pop\n        /* \"FlattenedVault.sol\":22897:22907  msg.sender */\n      caller\n      swap2\n        /* \"FlattenedVault.sol\":22888:22978  Withdraw(msg.sender, payoutPrincipal, utilityForDeposit, dep.shares, block.timestamp, idx) */\n      0xb7ee00edafdb5db3a1b52a5789a6b562eb48268842d113dbfe860b6f86e5f595\n      swap2\n      dup2\n      swap1\n      sub\n        /* \"#utility.yul\":21910:21913   */\n      0xa0\n        /* \"FlattenedVault.sol\":22888:22978  Withdraw(msg.sender, payoutPrincipal, utilityForDeposit, dep.shares, block.timestamp, idx) */\n      add\n      swap1\n      log2\n      pop\n      pop\n        /* \"FlattenedVault.sol\":21826:21829  i++ */\n      0x01\n      swap1\n      swap4\n      add\n      swap3\n      pop\n        /* \"FlattenedVault.sol\":21779:22989  for (uint256 i = 0; i < depositIndices.length; i++) {... */\n      tag_612\n      swap2\n      pop\n      pop\n      jump\n    tag_613:\n      pop\n        /* \"FlattenedVault.sol\":23035:23036  0 */\n      0x00\n        /* \"FlattenedVault.sol\":23006:23032  totalPrincipal + totalUtil */\n      tag_646\n        /* \"FlattenedVault.sol\":23023:23032  totalUtil */\n      dup3\n        /* \"FlattenedVault.sol\":23006:23020  totalPrincipal */\n      dup5\n        /* \"FlattenedVault.sol\":23006:23032  totalPrincipal + totalUtil */\n      tag_354\n      jump\t// in\n    tag_646:\n        /* \"FlattenedVault.sol\":23006:23036  totalPrincipal + totalUtil > 0 */\n      gt\n        /* \"FlattenedVault.sol\":22998:23060  require(totalPrincipal + totalUtil > 0, \"Nothing to withdraw\") */\n      tag_647\n      jumpi\n      mload(0x40)\n      shl(0xe5, 0x461bcd)\n      dup2\n      mstore\n        /* \"#utility.yul\":22334:22336   */\n      0x20\n        /* \"FlattenedVault.sol\":22998:23060  require(totalPrincipal + totalUtil > 0, \"Nothing to withdraw\") */\n      0x04\n      dup3\n      add\n        /* \"#utility.yul\":22316:22337   */\n      mstore\n        /* \"#utility.yul\":22373:22375   */\n      0x13\n        /* \"#utility.yul\":22353:22371   */\n      0x24\n      dup3\n      add\n        /* \"#utility.yul\":22346:22376   */\n      mstore\n        /* \"#utility.yul\":22412:22433   */\n      0x4e6f7468696e6720746f20776974686472617700000000000000000000000000\n        /* \"#utility.yul\":22392:22410   */\n      0x44\n      dup3\n      add\n        /* \"#utility.yul\":22385:22434   */\n      mstore\n        /* \"#utility.yul\":22451:22469   */\n      0x64\n      add\n        /* \"FlattenedVault.sol\":22998:23060  require(totalPrincipal + totalUtil > 0, \"Nothing to withdraw\") */\n      tag_65\n        /* \"#utility.yul\":22132:22475   */\n      jump\n        /* \"FlattenedVault.sol\":22998:23060  require(totalPrincipal + totalUtil > 0, \"Nothing to withdraw\") */\n    tag_647:\n        /* \"FlattenedVault.sol\":23071:23083  bool success */\n      0x00\n        /* \"FlattenedVault.sol\":23089:23099  msg.sender */\n      caller\n        /* \"FlattenedVault.sol\":23112:23138  totalPrincipal + totalUtil */\n      tag_650\n        /* \"FlattenedVault.sol\":23129:23138  totalUtil */\n      dup4\n        /* \"FlattenedVault.sol\":23112:23126  totalPrincipal */\n      dup6\n        /* \"FlattenedVault.sol\":23112:23138  totalPrincipal + totalUtil */\n      tag_354\n      jump\t// in\n    tag_650:\n        /* \"FlattenedVault.sol\":23089:23143  msg.sender.call{value: totalPrincipal + totalUtil}(\"\") */\n      mload(0x40)\n      0x00\n      dup2\n      dup2\n      dup2\n      dup6\n      dup8\n      gas\n      call\n      swap3\n      pop\n      pop\n      pop\n      returndatasize\n      dup1\n      0x00\n      dup2\n      eq\n      tag_654\n      jumpi\n      mload(0x40)\n      swap2\n      pop\n      and(add(returndatasize, 0x3f), not(0x1f))\n      dup3\n      add\n      0x40\n      mstore\n      returndatasize\n      dup3\n      mstore\n      returndatasize\n      0x00\n      0x20\n      dup5\n      add\n      returndatacopy\n      jump(tag_653)\n    tag_654:\n      0x60\n      swap2\n      pop\n    tag_653:\n      pop\n        /* \"FlattenedVault.sol\":23070:23143  (bool success, ) = msg.sender.call{value: totalPrincipal + totalUtil}(\"\") */\n      pop\n      swap1\n      pop\n        /* \"FlattenedVault.sol\":23161:23168  success */\n      dup1\n        /* \"FlattenedVault.sol\":23153:23192  require(success, \"ETH transfer failed\") */\n      tag_655\n      jumpi\n      mload(0x40)\n      shl(0xe5, 0x461bcd)\n      dup2\n      mstore\n        /* \"#utility.yul\":11746:11748   */\n      0x20\n        /* \"FlattenedVault.sol\":23153:23192  require(success, \"ETH transfer failed\") */\n      0x04\n      dup3\n      add\n        /* \"#utility.yul\":11728:11749   */\n      mstore\n        /* \"#utility.yul\":11785:11787   */\n      0x13\n        /* \"#utility.yul\":11765:11783   */\n      0x24\n      dup3\n      add\n        /* \"#utility.yul\":11758:11788   */\n      mstore\n      shl(0x6a, 0x115512081d1c985b9cd9995c8819985a5b1959)\n        /* \"#utility.yul\":11804:11822   */\n      0x44\n      dup3\n      add\n        /* \"#utility.yul\":11797:11846   */\n      mstore\n        /* \"#utility.yul\":11863:11881   */\n      0x64\n      add\n        /* \"FlattenedVault.sol\":23153:23192  require(success, \"ETH transfer failed\") */\n      tag_65\n        /* \"#utility.yul\":11544:11887   */\n      jump\n        /* \"FlattenedVault.sol\":23153:23192  require(success, \"ETH transfer failed\") */\n    tag_655:\n        /* \"FlattenedVault.sol\":23221:23231  msg.sender */\n      caller\n      sub(shl(0xa0, 0x01), 0x01)\n        /* \"FlattenedVault.sol\":23207:23292  BatchWithdraw(msg.sender, depositIndices, totalPrincipal, totalUtil, block.timestamp) */\n      and\n      0xdeea64db396f60259ae2fd8bff7020ea68e8e86e8d36d50d37ab00402ad3a5\n        /* \"FlattenedVault.sol\":23233:23247  depositIndices */\n      dup6\n        /* \"FlattenedVault.sol\":23249:23263  totalPrincipal */\n      dup6\n        /* \"FlattenedVault.sol\":23265:23274  totalUtil */\n      dup6\n        /* \"FlattenedVault.sol\":23276:23291  block.timestamp */\n      timestamp\n        /* \"FlattenedVault.sol\":23207:23292  BatchWithdraw(msg.sender, depositIndices, totalPrincipal, totalUtil, block.timestamp) */\n      mload(0x40)\n      tag_657\n      swap5\n      swap4\n      swap3\n      swap2\n      swap1\n      tag_658\n      jump\t// in\n    tag_657:\n      mload(0x40)\n      dup1\n      swap2\n      sub\n      swap1\n      log2\n        /* \"FlattenedVault.sol\":21710:23299  {... */\n      pop\n      pop\n      pop\n        /* \"FlattenedVault.sol\":21638:23299  function _batchWithdrawMemory(uint256[] memory depositIndices) internal {... */\n      pop\n      jump\t// out\n        /* \"FlattenedVault.sol\":11455:11771  function _grantRole(bytes32 role, address account) internal virtual returns (bool) {... */\n    tag_314:\n        /* \"FlattenedVault.sol\":11532:11536  bool */\n      0x00\n        /* \"FlattenedVault.sol\":8230:8242  _roles[role] */\n      dup3\n      dup2\n      mstore\n      0x20\n      dup2\n      dup2\n      mstore\n      0x40\n      dup1\n      dup4\n      keccak256\n      sub(shl(0xa0, 0x01), 0x01)\n        /* \"FlattenedVault.sol\":8230:8259  _roles[role].hasRole[account] */\n      dup6\n      and\n      dup5\n      mstore\n      swap1\n      swap2\n      mstore\n      dup2\n      keccak256\n      sload\n      0xff\n      and\n        /* \"FlattenedVault.sol\":11548:11765  if (!hasRole(role, account)) {... */\n      tag_662\n      jumpi\n        /* \"FlattenedVault.sol\":11591:11597  _roles */\n      0x00\n        /* \"FlattenedVault.sol\":11591:11603  _roles[role] */\n      dup4\n      dup2\n      mstore\n      0x20\n      dup2\n      dup2\n      mstore\n      0x40\n      dup1\n      dup4\n      keccak256\n      sub(shl(0xa0, 0x01), 0x01)\n        /* \"FlattenedVault.sol\":11591:11620  _roles[role].hasRole[account] */\n      dup7\n      and\n      dup5\n      mstore\n      swap1\n      swap2\n      mstore\n      swap1\n      keccak256\n        /* \"FlattenedVault.sol\":11591:11627  _roles[role].hasRole[account] = true */\n      dup1\n      sload\n      not(0xff)\n      and\n        /* \"FlattenedVault.sol\":11623:11627  true */\n      0x01\n        /* \"FlattenedVault.sol\":11591:11627  _roles[role].hasRole[account] = true */\n      or\n      swap1\n      sstore\n        /* \"FlattenedVault.sol\":11673:11685  _msgSender() */\n      tag_663\n        /* \"FlattenedVault.sol\":3875:3885  msg.sender */\n      caller\n      swap1\n        /* \"FlattenedVault.sol\":3796:3892  function _msgSender() internal view virtual returns (address) {... */\n      jump\n        /* \"FlattenedVault.sol\":11673:11685  _msgSender() */\n    tag_663:\n      sub(shl(0xa0, 0x01), 0x01)\n        /* \"FlattenedVault.sol\":11646:11686  RoleGranted(role, account, _msgSender()) */\n      and\n        /* \"FlattenedVault.sol\":11664:11671  account */\n      dup3\n      sub(shl(0xa0, 0x01), 0x01)\n        /* \"FlattenedVault.sol\":11646:11686  RoleGranted(role, account, _msgSender()) */\n      and\n        /* \"FlattenedVault.sol\":11658:11662  role */\n      dup5\n        /* \"FlattenedVault.sol\":11646:11686  RoleGranted(role, account, _msgSender()) */\n      0x2f8788117e7eff1d82e926ec794901d17c78024a50270940304540a733656f0d\n      mload(0x40)\n      mload(0x40)\n      dup1\n      swap2\n      sub\n      swap1\n      log4\n      pop\n        /* \"FlattenedVault.sol\":11707:11711  true */\n      0x01\n        /* \"FlattenedVault.sol\":11700:11711  return true */\n      jump(tag_276)\n        /* \"FlattenedVault.sol\":11548:11765  if (!hasRole(role, account)) {... */\n    tag_662:\n      pop\n        /* \"FlattenedVault.sol\":11749:11754  false */\n      0x00\n        /* \"FlattenedVault.sol\":11742:11754  return false */\n      jump(tag_276)\n        /* \"FlattenedVault.sol\":12008:12325  function _revokeRole(bytes32 role, address account) internal virtual returns (bool) {... */\n    tag_343:\n        /* \"FlattenedVault.sol\":12086:12090  bool */\n      0x00\n        /* \"FlattenedVault.sol\":8230:8242  _roles[role] */\n      dup3\n      dup2\n      mstore\n      0x20\n      dup2\n      dup2\n      mstore\n      0x40\n      dup1\n      dup4\n      keccak256\n      sub(shl(0xa0, 0x01), 0x01)\n        /* \"FlattenedVault.sol\":8230:8259  _roles[role].hasRole[account] */\n      dup6\n      and\n      dup5\n      mstore\n      swap1\n      swap2\n      mstore\n      dup2\n      keccak256\n      sload\n      0xff\n      and\n        /* \"FlattenedVault.sol\":12102:12319  if (hasRole(role, account)) {... */\n      iszero\n      tag_662\n      jumpi\n        /* \"FlattenedVault.sol\":12176:12181  false */\n      0x00\n        /* \"FlattenedVault.sol\":12144:12156  _roles[role] */\n      dup4\n      dup2\n      mstore\n      0x20\n      dup2\n      dup2\n      mstore\n      0x40\n      dup1\n      dup4\n      keccak256\n      sub(shl(0xa0, 0x01), 0x01)\n        /* \"FlattenedVault.sol\":12144:12173  _roles[role].hasRole[account] */\n      dup7\n      and\n      dup1\n      dup6\n      mstore\n      swap3\n      mstore\n      dup1\n      dup4\n      keccak256\n        /* \"FlattenedVault.sol\":12144:12181  _roles[role].hasRole[account] = false */\n      dup1\n      sload\n      not(0xff)\n      and\n      swap1\n      sstore\n        /* \"FlattenedVault.sol\":12200:12240  RoleRevoked(role, account, _msgSender()) */\n      mload\n        /* \"FlattenedVault.sol\":3875:3885  msg.sender */\n      caller\n      swap3\n        /* \"FlattenedVault.sol\":12144:12156  _roles[role] */\n      dup7\n      swap2\n        /* \"FlattenedVault.sol\":12200:12240  RoleRevoked(role, account, _msgSender()) */\n      0xf6391f5c32d9c69d2a47ea670b442974b53935d1edc7fd64eb21e047a839171b\n      swap2\n        /* \"FlattenedVault.sol\":12176:12181  false */\n      swap1\n        /* \"FlattenedVault.sol\":12200:12240  RoleRevoked(role, account, _msgSender()) */\n      log4\n      pop\n        /* \"FlattenedVault.sol\":12261:12265  true */\n      0x01\n        /* \"FlattenedVault.sol\":12254:12265  return true */\n      jump(tag_276)\n        /* \"FlattenedVault.sol\":28199:28544  function _markAllDepositsFullyRedeemable() internal {... */\n    tag_555:\n        /* \"FlattenedVault.sol\":28265:28274  uint256 i */\n      0x00\n        /* \"FlattenedVault.sol\":28261:28538  for(uint256 i=0; i<allUsers.length; i++){... */\n    tag_672:\n        /* \"FlattenedVault.sol\":28280:28288  allUsers */\n      0x09\n        /* \"FlattenedVault.sol\":28280:28295  allUsers.length */\n      sload\n        /* \"FlattenedVault.sol\":28278:28295  i<allUsers.length */\n      dup2\n      lt\n        /* \"FlattenedVault.sol\":28261:28538  for(uint256 i=0; i<allUsers.length; i++){... */\n      iszero\n      tag_307\n      jumpi\n        /* \"FlattenedVault.sol\":28315:28345  DepositInfo[] storage deposits */\n      0x00\n        /* \"FlattenedVault.sol\":28348:28360  userDeposits */\n      0x07\n        /* \"FlattenedVault.sol\":28348:28373  userDeposits[allUsers[i]] */\n      0x00\n        /* \"FlattenedVault.sol\":28361:28369  allUsers */\n      0x09\n        /* \"FlattenedVault.sol\":28370:28371  i */\n      dup5\n        /* \"FlattenedVault.sol\":28361:28372  allUsers[i] */\n      dup2\n      sload\n      dup2\n      lt\n      tag_676\n      jumpi\n      tag_676\n      tag_304\n      jump\t// in\n    tag_676:\n      0x00\n      swap2\n      dup3\n      mstore\n      0x20\n      dup1\n      dup4\n      keccak256\n      swap1\n      swap2\n      add\n      sload\n      sub(shl(0xa0, 0x01), 0x01)\n      and\n        /* \"FlattenedVault.sol\":28348:28373  userDeposits[allUsers[i]] */\n      dup4\n      mstore\n      dup3\n      add\n      swap3\n      swap1\n      swap3\n      mstore\n      0x40\n      add\n      dup2\n      keccak256\n      swap2\n      pop\n        /* \"FlattenedVault.sol\":28387:28528  for (uint256 j = 0; j < deposits.length; j++) {... */\n    tag_678:\n        /* \"FlattenedVault.sol\":28411:28426  deposits.length */\n      dup2\n      sload\n        /* \"FlattenedVault.sol\":28407:28426  j < deposits.length */\n      dup2\n      lt\n        /* \"FlattenedVault.sol\":28387:28528  for (uint256 j = 0; j < deposits.length; j++) {... */\n      iszero\n      tag_679\n      jumpi\n        /* \"FlattenedVault.sol\":28456:28464  deposits */\n      dup2\n        /* \"FlattenedVault.sol\":28465:28466  j */\n      dup2\n        /* \"FlattenedVault.sol\":28456:28467  deposits[j] */\n      dup2\n      sload\n      dup2\n      lt\n      tag_682\n      jumpi\n      tag_682\n      tag_304\n      jump\t// in\n    tag_682:\n      0x00\n      swap2\n      dup3\n      mstore\n      0x20\n      swap1\n      swap2\n      keccak256\n        /* \"FlattenedVault.sol\":28456:28477  deposits[j].withdrawn */\n      0x03\n        /* \"FlattenedVault.sol\":28456:28467  deposits[j] */\n      0x04\n      swap1\n      swap3\n      mul\n      add\n        /* \"FlattenedVault.sol\":28456:28477  deposits[j].withdrawn */\n      add\n      sload\n      0xff\n      and\n        /* \"FlattenedVault.sol\":28451:28513  if (!deposits[j].withdrawn) deposits[j].fullyRedeemable = true */\n      tag_684\n      jumpi\n        /* \"FlattenedVault.sol\":28509:28513  true */\n      0x01\n        /* \"FlattenedVault.sol\":28479:28487  deposits */\n      dup3\n        /* \"FlattenedVault.sol\":28488:28489  j */\n      dup3\n        /* \"FlattenedVault.sol\":28479:28490  deposits[j] */\n      dup2\n      sload\n      dup2\n      lt\n      tag_686\n      jumpi\n      tag_686\n      tag_304\n      jump\t// in\n    tag_686:\n      swap1\n      0x00\n      mstore\n      keccak256(0x00, 0x20)\n      swap1\n      0x04\n      mul\n      add\n        /* \"FlattenedVault.sol\":28479:28506  deposits[j].fullyRedeemable */\n      0x03\n      add\n      0x02\n        /* \"FlattenedVault.sol\":28479:28513  deposits[j].fullyRedeemable = true */\n      0x0100\n      exp\n      dup2\n      sload\n      dup2\n      0xff\n      mul\n      not\n      and\n      swap1\n      dup4\n      iszero\n      iszero\n      mul\n      or\n      swap1\n      sstore\n      pop\n        /* \"FlattenedVault.sol\":28451:28513  if (!deposits[j].withdrawn) deposits[j].fullyRedeemable = true */\n    tag_684:\n        /* \"FlattenedVault.sol\":28428:28431  j++ */\n      0x01\n      add\n        /* \"FlattenedVault.sol\":28387:28528  for (uint256 j = 0; j < deposits.length; j++) {... */\n      jump(tag_678)\n    tag_679:\n      pop\n      pop\n        /* \"FlattenedVault.sol\":28297:28300  i++ */\n      0x01\n      add\n        /* \"FlattenedVault.sol\":28261:28538  for(uint256 i=0; i<allUsers.length; i++){... */\n      jump(tag_672)\n        /* \"FlattenedVault.sol\":8708:8905  function _checkRole(bytes32 role, address account) internal view virtual {... */\n    tag_608:\n        /* \"FlattenedVault.sol\":8207:8211  bool */\n      0x00\n        /* \"FlattenedVault.sol\":8230:8242  _roles[role] */\n      dup3\n      dup2\n      mstore\n      0x20\n      dup2\n      dup2\n      mstore\n      0x40\n      dup1\n      dup4\n      keccak256\n      sub(shl(0xa0, 0x01), 0x01)\n        /* \"FlattenedVault.sol\":8230:8259  _roles[role].hasRole[account] */\n      dup6\n      and\n      dup5\n      mstore\n      swap1\n      swap2\n      mstore\n      swap1\n      keccak256\n      sload\n      0xff\n      and\n        /* \"FlattenedVault.sol\":8791:8899  if (!hasRole(role, account)) {... */\n      tag_337\n      jumpi\n        /* \"FlattenedVault.sol\":8841:8888  AccessControlUnauthorizedAccount(account, role) */\n      mload(0x40)\n      shl(0xe0, 0xe2517d3f)\n      dup2\n      mstore\n      sub(shl(0xa0, 0x01), 0x01)\n        /* \"#utility.yul\":23153:23208   */\n      dup3\n      and\n        /* \"FlattenedVault.sol\":8841:8888  AccessControlUnauthorizedAccount(account, role) */\n      0x04\n      dup3\n      add\n        /* \"#utility.yul\":23135:23209   */\n      mstore\n        /* \"#utility.yul\":23225:23243   */\n      0x24\n      dup2\n      add\n        /* \"#utility.yul\":23218:23252   */\n      dup4\n      swap1\n      mstore\n        /* \"#utility.yul\":23108:23126   */\n      0x44\n      add\n        /* \"FlattenedVault.sol\":8841:8888  AccessControlUnauthorizedAccount(account, role) */\n      tag_65\n        /* \"#utility.yul\":22961:23258   */\n      jump\n        /* \"#utility.yul\":361:647   */\n    tag_70:\n        /* \"#utility.yul\":419:425   */\n      0x00\n        /* \"#utility.yul\":472:474   */\n      0x20\n        /* \"#utility.yul\":460:469   */\n      dup3\n        /* \"#utility.yul\":451:458   */\n      dup5\n        /* \"#utility.yul\":447:470   */\n      sub\n        /* \"#utility.yul\":443:475   */\n      slt\n        /* \"#utility.yul\":440:492   */\n      iszero\n      tag_703\n      jumpi\n        /* \"#utility.yul\":488:489   */\n      0x00\n        /* \"#utility.yul\":485:486   */\n      dup1\n        /* \"#utility.yul\":478:490   */\n      revert\n        /* \"#utility.yul\":440:492   */\n    tag_703:\n        /* \"#utility.yul\":514:537   */\n      dup2\n      calldataload\n      not(sub(shl(0xe0, 0x01), 0x01))\n        /* \"#utility.yul\":566:598   */\n      dup2\n      and\n        /* \"#utility.yul\":556:599   */\n      dup2\n      eq\n        /* \"#utility.yul\":546:617   */\n      tag_704\n      jumpi\n        /* \"#utility.yul\":613:614   */\n      0x00\n        /* \"#utility.yul\":610:611   */\n      dup1\n        /* \"#utility.yul\":603:615   */\n      revert\n        /* \"#utility.yul\":546:617   */\n    tag_704:\n        /* \"#utility.yul\":636:641   */\n      swap4\n        /* \"#utility.yul\":361:647   */\n      swap3\n      pop\n      pop\n      pop\n      jump\t// out\n        /* \"#utility.yul\":844:1004   */\n    tag_693:\n        /* \"#utility.yul\":909:929   */\n      dup1\n      calldataload\n        /* \"#utility.yul\":965:978   */\n      dup1\n      iszero\n        /* \"#utility.yul\":958:979   */\n      iszero\n        /* \"#utility.yul\":948:980   */\n      dup2\n      eq\n        /* \"#utility.yul\":938:998   */\n      tag_585\n      jumpi\n        /* \"#utility.yul\":994:995   */\n      0x00\n        /* \"#utility.yul\":991:992   */\n      dup1\n        /* \"#utility.yul\":984:996   */\n      revert\n        /* \"#utility.yul\":1009:1189   */\n    tag_77:\n        /* \"#utility.yul\":1065:1071   */\n      0x00\n        /* \"#utility.yul\":1118:1120   */\n      0x20\n        /* \"#utility.yul\":1106:1115   */\n      dup3\n        /* \"#utility.yul\":1097:1104   */\n      dup5\n        /* \"#utility.yul\":1093:1116   */\n      sub\n        /* \"#utility.yul\":1089:1121   */\n      slt\n        /* \"#utility.yul\":1086:1138   */\n      iszero\n      tag_709\n      jumpi\n        /* \"#utility.yul\":1134:1135   */\n      0x00\n        /* \"#utility.yul\":1131:1132   */\n      dup1\n        /* \"#utility.yul\":1124:1136   */\n      revert\n        /* \"#utility.yul\":1086:1138   */\n    tag_709:\n        /* \"#utility.yul\":1157:1183   */\n      tag_704\n        /* \"#utility.yul\":1173:1182   */\n      dup3\n        /* \"#utility.yul\":1157:1183   */\n      tag_693\n      jump\t// in\n        /* \"#utility.yul\":1194:1390   */\n    tag_694:\n        /* \"#utility.yul\":1262:1282   */\n      dup1\n      calldataload\n      sub(shl(0xa0, 0x01), 0x01)\n        /* \"#utility.yul\":1311:1365   */\n      dup2\n      and\n        /* \"#utility.yul\":1301:1366   */\n      dup2\n      eq\n        /* \"#utility.yul\":1291:1384   */\n      tag_585\n      jumpi\n        /* \"#utility.yul\":1380:1381   */\n      0x00\n        /* \"#utility.yul\":1377:1378   */\n      dup1\n        /* \"#utility.yul\":1370:1382   */\n      revert\n        /* \"#utility.yul\":1395:1649   */\n    tag_82:\n        /* \"#utility.yul\":1463:1469   */\n      0x00\n        /* \"#utility.yul\":1471:1477   */\n      dup1\n        /* \"#utility.yul\":1524:1526   */\n      0x40\n        /* \"#utility.yul\":1512:1521   */\n      dup4\n        /* \"#utility.yul\":1503:1510   */\n      dup6\n        /* \"#utility.yul\":1499:1522   */\n      sub\n        /* \"#utility.yul\":1495:1527   */\n      slt\n        /* \"#utility.yul\":1492:1544   */\n      iszero\n      tag_714\n      jumpi\n        /* \"#utility.yul\":1540:1541   */\n      0x00\n        /* \"#utility.yul\":1537:1538   */\n      dup1\n        /* \"#utility.yul\":1530:1542   */\n      revert\n        /* \"#utility.yul\":1492:1544   */\n    tag_714:\n        /* \"#utility.yul\":1563:1592   */\n      tag_715\n        /* \"#utility.yul\":1582:1591   */\n      dup4\n        /* \"#utility.yul\":1563:1592   */\n      tag_694\n      jump\t// in\n    tag_715:\n        /* \"#utility.yul\":1553:1592   */\n      swap5\n        /* \"#utility.yul\":1639:1641   */\n      0x20\n        /* \"#utility.yul\":1624:1642   */\n      swap4\n      swap1\n      swap4\n      add\n        /* \"#utility.yul\":1611:1643   */\n      calldataload\n      swap4\n      pop\n      pop\n      pop\n        /* \"#utility.yul\":1395:1649   */\n      jump\t// out\n        /* \"#utility.yul\":2588:2768   */\n    tag_115:\n        /* \"#utility.yul\":2647:2653   */\n      0x00\n        /* \"#utility.yul\":2700:2702   */\n      0x20\n        /* \"#utility.yul\":2688:2697   */\n      dup3\n        /* \"#utility.yul\":2679:2686   */\n      dup5\n        /* \"#utility.yul\":2675:2698   */\n      sub\n        /* \"#utility.yul\":2671:2703   */\n      slt\n        /* \"#utility.yul\":2668:2720   */\n      iszero\n      tag_720\n      jumpi\n        /* \"#utility.yul\":2716:2717   */\n      0x00\n        /* \"#utility.yul\":2713:2714   */\n      dup1\n        /* \"#utility.yul\":2706:2718   */\n      revert\n        /* \"#utility.yul\":2668:2720   */\n    tag_720:\n      pop\n        /* \"#utility.yul\":2739:2762   */\n      calldataload\n      swap2\n        /* \"#utility.yul\":2588:2768   */\n      swap1\n      pop\n      jump\t// out\n        /* \"#utility.yul\":2958:3212   */\n    tag_126:\n        /* \"#utility.yul\":3026:3032   */\n      0x00\n        /* \"#utility.yul\":3034:3040   */\n      dup1\n        /* \"#utility.yul\":3087:3089   */\n      0x40\n        /* \"#utility.yul\":3075:3084   */\n      dup4\n        /* \"#utility.yul\":3066:3073   */\n      dup6\n        /* \"#utility.yul\":3062:3085   */\n      sub\n        /* \"#utility.yul\":3058:3090   */\n      slt\n        /* \"#utility.yul\":3055:3107   */\n      iszero\n      tag_724\n      jumpi\n        /* \"#utility.yul\":3103:3104   */\n      0x00\n        /* \"#utility.yul\":3100:3101   */\n      dup1\n        /* \"#utility.yul\":3093:3105   */\n      revert\n        /* \"#utility.yul\":3055:3107   */\n    tag_724:\n        /* \"#utility.yul\":3139:3148   */\n      dup3\n        /* \"#utility.yul\":3126:3149   */\n      calldataload\n        /* \"#utility.yul\":3116:3149   */\n      swap2\n      pop\n        /* \"#utility.yul\":3168:3206   */\n      tag_725\n        /* \"#utility.yul\":3202:3204   */\n      0x20\n        /* \"#utility.yul\":3191:3200   */\n      dup5\n        /* \"#utility.yul\":3187:3205   */\n      add\n        /* \"#utility.yul\":3168:3206   */\n      tag_694\n      jump\t// in\n    tag_725:\n        /* \"#utility.yul\":3158:3206   */\n      swap1\n      pop\n        /* \"#utility.yul\":2958:3212   */\n      swap3\n      pop\n      swap3\n      swap1\n      pop\n      jump\t// out\n        /* \"#utility.yul\":3217:3403   */\n    tag_131:\n        /* \"#utility.yul\":3276:3282   */\n      0x00\n        /* \"#utility.yul\":3329:3331   */\n      0x20\n        /* \"#utility.yul\":3317:3326   */\n      dup3\n        /* \"#utility.yul\":3308:3315   */\n      dup5\n        /* \"#utility.yul\":3304:3327   */\n      sub\n        /* \"#utility.yul\":3300:3332   */\n      slt\n        /* \"#utility.yul\":3297:3349   */\n      iszero\n      tag_727\n      jumpi\n        /* \"#utility.yul\":3345:3346   */\n      0x00\n        /* \"#utility.yul\":3342:3343   */\n      dup1\n        /* \"#utility.yul\":3335:3347   */\n      revert\n        /* \"#utility.yul\":3297:3349   */\n    tag_727:\n        /* \"#utility.yul\":3368:3397   */\n      tag_704\n        /* \"#utility.yul\":3387:3396   */\n      dup3\n        /* \"#utility.yul\":3368:3397   */\n      tag_694\n      jump\t// in\n        /* \"#utility.yul\":3408:3775   */\n    tag_695:\n        /* \"#utility.yul\":3471:3479   */\n      0x00\n        /* \"#utility.yul\":3481:3487   */\n      dup1\n        /* \"#utility.yul\":3535:3538   */\n      dup4\n        /* \"#utility.yul\":3528:3532   */\n      0x1f\n        /* \"#utility.yul\":3520:3526   */\n      dup5\n        /* \"#utility.yul\":3516:3533   */\n      add\n        /* \"#utility.yul\":3512:3539   */\n      slt\n        /* \"#utility.yul\":3502:3557   */\n      tag_730\n      jumpi\n        /* \"#utility.yul\":3553:3554   */\n      0x00\n        /* \"#utility.yul\":3550:3551   */\n      dup1\n        /* \"#utility.yul\":3543:3555   */\n      revert\n        /* \"#utility.yul\":3502:3557   */\n    tag_730:\n      pop\n        /* \"#utility.yul\":3576:3596   */\n      dup2\n      calldataload\n        /* \"#utility.yul\":3619:3637   */\n      0xffffffffffffffff\n        /* \"#utility.yul\":3608:3638   */\n      dup2\n      gt\n        /* \"#utility.yul\":3605:3655   */\n      iszero\n      tag_731\n      jumpi\n        /* \"#utility.yul\":3651:3652   */\n      0x00\n        /* \"#utility.yul\":3648:3649   */\n      dup1\n        /* \"#utility.yul\":3641:3653   */\n      revert\n        /* \"#utility.yul\":3605:3655   */\n    tag_731:\n        /* \"#utility.yul\":3688:3692   */\n      0x20\n        /* \"#utility.yul\":3680:3686   */\n      dup4\n        /* \"#utility.yul\":3676:3693   */\n      add\n        /* \"#utility.yul\":3664:3693   */\n      swap2\n      pop\n        /* \"#utility.yul\":3748:3751   */\n      dup4\n        /* \"#utility.yul\":3741:3745   */\n      0x20\n        /* \"#utility.yul\":3731:3737   */\n      dup3\n        /* \"#utility.yul\":3728:3729   */\n      0x05\n        /* \"#utility.yul\":3724:3738   */\n      shl\n        /* \"#utility.yul\":3716:3722   */\n      dup6\n        /* \"#utility.yul\":3712:3739   */\n      add\n        /* \"#utility.yul\":3708:3746   */\n      add\n        /* \"#utility.yul\":3705:3752   */\n      gt\n        /* \"#utility.yul\":3702:3769   */\n      iszero\n      tag_732\n      jumpi\n        /* \"#utility.yul\":3765:3766   */\n      0x00\n        /* \"#utility.yul\":3762:3763   */\n      dup1\n        /* \"#utility.yul\":3755:3767   */\n      revert\n        /* \"#utility.yul\":3702:3769   */\n    tag_732:\n        /* \"#utility.yul\":3408:3775   */\n      swap3\n      pop\n      swap3\n      swap1\n      pop\n      jump\t// out\n        /* \"#utility.yul\":3780:4550   */\n    tag_151:\n        /* \"#utility.yul\":3899:3905   */\n      0x00\n        /* \"#utility.yul\":3907:3913   */\n      dup1\n        /* \"#utility.yul\":3915:3921   */\n      0x00\n        /* \"#utility.yul\":3923:3929   */\n      dup1\n        /* \"#utility.yul\":3976:3978   */\n      0x40\n        /* \"#utility.yul\":3964:3973   */\n      dup6\n        /* \"#utility.yul\":3955:3962   */\n      dup8\n        /* \"#utility.yul\":3951:3974   */\n      sub\n        /* \"#utility.yul\":3947:3979   */\n      slt\n        /* \"#utility.yul\":3944:3996   */\n      iszero\n      tag_734\n      jumpi\n        /* \"#utility.yul\":3992:3993   */\n      0x00\n        /* \"#utility.yul\":3989:3990   */\n      dup1\n        /* \"#utility.yul\":3982:3994   */\n      revert\n        /* \"#utility.yul\":3944:3996   */\n    tag_734:\n        /* \"#utility.yul\":4032:4041   */\n      dup5\n        /* \"#utility.yul\":4019:4042   */\n      calldataload\n        /* \"#utility.yul\":4061:4079   */\n      0xffffffffffffffff\n        /* \"#utility.yul\":4102:4104   */\n      dup1\n        /* \"#utility.yul\":4094:4100   */\n      dup3\n        /* \"#utility.yul\":4091:4105   */\n      gt\n        /* \"#utility.yul\":4088:4122   */\n      iszero\n      tag_735\n      jumpi\n        /* \"#utility.yul\":4118:4119   */\n      0x00\n        /* \"#utility.yul\":4115:4116   */\n      dup1\n        /* \"#utility.yul\":4108:4120   */\n      revert\n        /* \"#utility.yul\":4088:4122   */\n    tag_735:\n        /* \"#utility.yul\":4157:4227   */\n      tag_736\n        /* \"#utility.yul\":4219:4226   */\n      dup9\n        /* \"#utility.yul\":4210:4216   */\n      dup4\n        /* \"#utility.yul\":4199:4208   */\n      dup10\n        /* \"#utility.yul\":4195:4217   */\n      add\n        /* \"#utility.yul\":4157:4227   */\n      tag_695\n      jump\t// in\n    tag_736:\n        /* \"#utility.yul\":4246:4254   */\n      swap1\n      swap7\n      pop\n        /* \"#utility.yul\":4131:4227   */\n      swap5\n      pop\n        /* \"#utility.yul\":4334:4336   */\n      0x20\n        /* \"#utility.yul\":4319:4337   */\n      dup8\n      add\n        /* \"#utility.yul\":4306:4338   */\n      calldataload\n      swap2\n      pop\n        /* \"#utility.yul\":4350:4366   */\n      dup1\n      dup3\n      gt\n        /* \"#utility.yul\":4347:4383   */\n      iszero\n      tag_737\n      jumpi\n        /* \"#utility.yul\":4379:4380   */\n      0x00\n        /* \"#utility.yul\":4376:4377   */\n      dup1\n        /* \"#utility.yul\":4369:4381   */\n      revert\n        /* \"#utility.yul\":4347:4383   */\n    tag_737:\n      pop\n        /* \"#utility.yul\":4418:4490   */\n      tag_738\n        /* \"#utility.yul\":4482:4489   */\n      dup8\n        /* \"#utility.yul\":4471:4479   */\n      dup3\n        /* \"#utility.yul\":4460:4469   */\n      dup9\n        /* \"#utility.yul\":4456:4480   */\n      add\n        /* \"#utility.yul\":4418:4490   */\n      tag_695\n      jump\t// in\n    tag_738:\n        /* \"#utility.yul\":3780:4550   */\n      swap6\n      swap9\n      swap5\n      swap8\n      pop\n        /* \"#utility.yul\":4509:4517   */\n      swap6\n      pop\n      pop\n      pop\n      pop\n        /* \"#utility.yul\":3780:4550   */\n      jump\t// out\n        /* \"#utility.yul\":4555:4803   */\n    tag_156:\n        /* \"#utility.yul\":4623:4629   */\n      0x00\n        /* \"#utility.yul\":4631:4637   */\n      dup1\n        /* \"#utility.yul\":4684:4686   */\n      0x40\n        /* \"#utility.yul\":4672:4681   */\n      dup4\n        /* \"#utility.yul\":4663:4670   */\n      dup6\n        /* \"#utility.yul\":4659:4682   */\n      sub\n        /* \"#utility.yul\":4655:4687   */\n      slt\n        /* \"#utility.yul\":4652:4704   */\n      iszero\n      tag_740\n      jumpi\n        /* \"#utility.yul\":4700:4701   */\n      0x00\n        /* \"#utility.yul\":4697:4698   */\n      dup1\n        /* \"#utility.yul\":4690:4702   */\n      revert\n        /* \"#utility.yul\":4652:4704   */\n    tag_740:\n      pop\n      pop\n        /* \"#utility.yul\":4723:4746   */\n      dup1\n      calldataload\n      swap3\n        /* \"#utility.yul\":4793:4795   */\n      0x20\n        /* \"#utility.yul\":4778:4796   */\n      swap1\n      swap2\n      add\n        /* \"#utility.yul\":4765:4797   */\n      calldataload\n      swap2\n      pop\n        /* \"#utility.yul\":4555:4803   */\n      jump\t// out\n        /* \"#utility.yul\":4808:5489   */\n    tag_159:\n        /* \"#utility.yul\":4979:4981   */\n      0x20\n        /* \"#utility.yul\":5031:5052   */\n      dup1\n      dup3\n      mstore\n        /* \"#utility.yul\":5101:5114   */\n      dup3\n      mload\n        /* \"#utility.yul\":5004:5022   */\n      dup3\n      dup3\n      add\n        /* \"#utility.yul\":5123:5145   */\n      dup2\n      swap1\n      mstore\n        /* \"#utility.yul\":4950:4954   */\n      0x00\n      swap2\n        /* \"#utility.yul\":4979:4981   */\n      swap1\n        /* \"#utility.yul\":5202:5217   */\n      dup5\n      dup3\n      add\n      swap1\n        /* \"#utility.yul\":5176:5178   */\n      0x40\n        /* \"#utility.yul\":5161:5179   */\n      dup6\n      add\n      swap1\n        /* \"#utility.yul\":4950:4954   */\n      dup5\n        /* \"#utility.yul\":5245:5463   */\n    tag_742:\n        /* \"#utility.yul\":5259:5265   */\n      dup2\n        /* \"#utility.yul\":5256:5257   */\n      dup2\n        /* \"#utility.yul\":5253:5266   */\n      lt\n        /* \"#utility.yul\":5245:5463   */\n      iszero\n      tag_744\n      jumpi\n        /* \"#utility.yul\":5324:5337   */\n      dup4\n      mload\n      sub(shl(0xa0, 0x01), 0x01)\n        /* \"#utility.yul\":5320:5382   */\n      and\n        /* \"#utility.yul\":5308:5383   */\n      dup4\n      mstore\n        /* \"#utility.yul\":5438:5453   */\n      swap3\n      dup5\n      add\n      swap3\n        /* \"#utility.yul\":5403:5415   */\n      swap2\n      dup5\n      add\n      swap2\n        /* \"#utility.yul\":5281:5282   */\n      0x01\n        /* \"#utility.yul\":5274:5283   */\n      add\n        /* \"#utility.yul\":5245:5463   */\n      jump(tag_742)\n    tag_744:\n      pop\n        /* \"#utility.yul\":5480:5483   */\n      swap1\n      swap7\n        /* \"#utility.yul\":4808:5489   */\n      swap6\n      pop\n      pop\n      pop\n      pop\n      pop\n      pop\n      jump\t// out\n        /* \"#utility.yul\":5494:5748   */\n    tag_167:\n        /* \"#utility.yul\":5559:5565   */\n      0x00\n        /* \"#utility.yul\":5567:5573   */\n      dup1\n        /* \"#utility.yul\":5620:5622   */\n      0x40\n        /* \"#utility.yul\":5608:5617   */\n      dup4\n        /* \"#utility.yul\":5599:5606   */\n      dup6\n        /* \"#utility.yul\":5595:5618   */\n      sub\n        /* \"#utility.yul\":5591:5623   */\n      slt\n        /* \"#utility.yul\":5588:5640   */\n      iszero\n      tag_746\n      jumpi\n        /* \"#utility.yul\":5636:5637   */\n      0x00\n        /* \"#utility.yul\":5633:5634   */\n      dup1\n        /* \"#utility.yul\":5626:5638   */\n      revert\n        /* \"#utility.yul\":5588:5640   */\n    tag_746:\n        /* \"#utility.yul\":5659:5688   */\n      tag_747\n        /* \"#utility.yul\":5678:5687   */\n      dup4\n        /* \"#utility.yul\":5659:5688   */\n      tag_694\n      jump\t// in\n    tag_747:\n        /* \"#utility.yul\":5649:5688   */\n      swap2\n      pop\n        /* \"#utility.yul\":5707:5742   */\n      tag_725\n        /* \"#utility.yul\":5738:5740   */\n      0x20\n        /* \"#utility.yul\":5727:5736   */\n      dup5\n        /* \"#utility.yul\":5723:5741   */\n      add\n        /* \"#utility.yul\":5707:5742   */\n      tag_693\n      jump\t// in\n        /* \"#utility.yul\":5753:6192   */\n    tag_696:\n        /* \"#utility.yul\":5806:5809   */\n      0x00\n        /* \"#utility.yul\":5844:5849   */\n      dup2\n        /* \"#utility.yul\":5838:5850   */\n      mload\n        /* \"#utility.yul\":5871:5877   */\n      dup1\n        /* \"#utility.yul\":5866:5869   */\n      dup5\n        /* \"#utility.yul\":5859:5878   */\n      mstore\n        /* \"#utility.yul\":5897:5901   */\n      0x20\n        /* \"#utility.yul\":5926:5930   */\n      dup1\n        /* \"#utility.yul\":5921:5924   */\n      dup6\n        /* \"#utility.yul\":5917:5931   */\n      add\n        /* \"#utility.yul\":5910:5931   */\n      swap5\n      pop\n        /* \"#utility.yul\":5965:5969   */\n      0x20\n        /* \"#utility.yul\":5958:5963   */\n      dup5\n        /* \"#utility.yul\":5954:5970   */\n      add\n        /* \"#utility.yul\":5988:5989   */\n      0x00\n        /* \"#utility.yul\":5998:6167   */\n    tag_750:\n        /* \"#utility.yul\":6012:6018   */\n      dup4\n        /* \"#utility.yul\":6009:6010   */\n      dup2\n        /* \"#utility.yul\":6006:6019   */\n      lt\n        /* \"#utility.yul\":5998:6167   */\n      iszero\n      tag_752\n      jumpi\n        /* \"#utility.yul\":6073:6086   */\n      dup2\n      mload\n        /* \"#utility.yul\":6061:6087   */\n      dup8\n      mstore\n        /* \"#utility.yul\":6107:6119   */\n      swap6\n      dup3\n      add\n      swap6\n        /* \"#utility.yul\":6142:6157   */\n      swap1\n      dup3\n      add\n      swap1\n        /* \"#utility.yul\":6034:6035   */\n      0x01\n        /* \"#utility.yul\":6027:6036   */\n      add\n        /* \"#utility.yul\":5998:6167   */\n      jump(tag_750)\n    tag_752:\n      pop\n        /* \"#utility.yul\":6183:6186   */\n      swap5\n      swap6\n        /* \"#utility.yul\":5753:6192   */\n      swap5\n      pop\n      pop\n      pop\n      pop\n      pop\n      jump\t// out\n        /* \"#utility.yul\":6197:6529   */\n    tag_186:\n        /* \"#utility.yul\":6404:6410   */\n      dup3\n        /* \"#utility.yul\":6393:6402   */\n      dup2\n        /* \"#utility.yul\":6386:6411   */\n      mstore\n        /* \"#utility.yul\":6447:6449   */\n      0x40\n        /* \"#utility.yul\":6442:6444   */\n      0x20\n        /* \"#utility.yul\":6431:6440   */\n      dup3\n        /* \"#utility.yul\":6427:6445   */\n      add\n        /* \"#utility.yul\":6420:6450   */\n      mstore\n        /* \"#utility.yul\":6367:6371   */\n      0x00\n        /* \"#utility.yul\":6467:6523   */\n      tag_754\n        /* \"#utility.yul\":6519:6521   */\n      0x40\n        /* \"#utility.yul\":6508:6517   */\n      dup4\n        /* \"#utility.yul\":6504:6522   */\n      add\n        /* \"#utility.yul\":6496:6502   */\n      dup5\n        /* \"#utility.yul\":6467:6523   */\n      tag_696\n      jump\t// in\n    tag_754:\n        /* \"#utility.yul\":6459:6523   */\n      swap5\n        /* \"#utility.yul\":6197:6529   */\n      swap4\n      pop\n      pop\n      pop\n      pop\n      jump\t// out\n        /* \"#utility.yul\":6534:6971   */\n    tag_190:\n        /* \"#utility.yul\":6620:6626   */\n      0x00\n        /* \"#utility.yul\":6628:6634   */\n      dup1\n        /* \"#utility.yul\":6681:6683   */\n      0x20\n        /* \"#utility.yul\":6669:6678   */\n      dup4\n        /* \"#utility.yul\":6660:6667   */\n      dup6\n        /* \"#utility.yul\":6656:6679   */\n      sub\n        /* \"#utility.yul\":6652:6684   */\n      slt\n        /* \"#utility.yul\":6649:6701   */\n      iszero\n      tag_756\n      jumpi\n        /* \"#utility.yul\":6697:6698   */\n      0x00\n        /* \"#utility.yul\":6694:6695   */\n      dup1\n        /* \"#utility.yul\":6687:6699   */\n      revert\n        /* \"#utility.yul\":6649:6701   */\n    tag_756:\n        /* \"#utility.yul\":6737:6746   */\n      dup3\n        /* \"#utility.yul\":6724:6747   */\n      calldataload\n        /* \"#utility.yul\":6770:6788   */\n      0xffffffffffffffff\n        /* \"#utility.yul\":6762:6768   */\n      dup2\n        /* \"#utility.yul\":6759:6789   */\n      gt\n        /* \"#utility.yul\":6756:6806   */\n      iszero\n      tag_757\n      jumpi\n        /* \"#utility.yul\":6802:6803   */\n      0x00\n        /* \"#utility.yul\":6799:6800   */\n      dup1\n        /* \"#utility.yul\":6792:6804   */\n      revert\n        /* \"#utility.yul\":6756:6806   */\n    tag_757:\n        /* \"#utility.yul\":6841:6911   */\n      tag_758\n        /* \"#utility.yul\":6903:6910   */\n      dup6\n        /* \"#utility.yul\":6894:6900   */\n      dup3\n        /* \"#utility.yul\":6883:6892   */\n      dup7\n        /* \"#utility.yul\":6879:6901   */\n      add\n        /* \"#utility.yul\":6841:6911   */\n      tag_695\n      jump\t// in\n    tag_758:\n        /* \"#utility.yul\":6930:6938   */\n      swap1\n      swap7\n        /* \"#utility.yul\":6815:6911   */\n      swap1\n      swap6\n      pop\n        /* \"#utility.yul\":6534:6971   */\n      swap4\n      pop\n      pop\n      pop\n      pop\n      jump\t// out\n        /* \"#utility.yul\":6976:7487   */\n    tag_203:\n        /* \"#utility.yul\":7071:7077   */\n      0x00\n        /* \"#utility.yul\":7079:7085   */\n      dup1\n        /* \"#utility.yul\":7087:7093   */\n      0x00\n        /* \"#utility.yul\":7140:7142   */\n      0x40\n        /* \"#utility.yul\":7128:7137   */\n      dup5\n        /* \"#utility.yul\":7119:7126   */\n      dup7\n        /* \"#utility.yul\":7115:7138   */\n      sub\n        /* \"#utility.yul\":7111:7143   */\n      slt\n        /* \"#utility.yul\":7108:7160   */\n      iszero\n      tag_760\n      jumpi\n        /* \"#utility.yul\":7156:7157   */\n      0x00\n        /* \"#utility.yul\":7153:7154   */\n      dup1\n        /* \"#utility.yul\":7146:7158   */\n      revert\n        /* \"#utility.yul\":7108:7160   */\n    tag_760:\n        /* \"#utility.yul\":7179:7208   */\n      tag_761\n        /* \"#utility.yul\":7198:7207   */\n      dup5\n        /* \"#utility.yul\":7179:7208   */\n      tag_694\n      jump\t// in\n    tag_761:\n        /* \"#utility.yul\":7169:7208   */\n      swap3\n      pop\n        /* \"#utility.yul\":7259:7261   */\n      0x20\n        /* \"#utility.yul\":7248:7257   */\n      dup5\n        /* \"#utility.yul\":7244:7262   */\n      add\n        /* \"#utility.yul\":7231:7263   */\n      calldataload\n        /* \"#utility.yul\":7286:7304   */\n      0xffffffffffffffff\n        /* \"#utility.yul\":7278:7284   */\n      dup2\n        /* \"#utility.yul\":7275:7305   */\n      gt\n        /* \"#utility.yul\":7272:7322   */\n      iszero\n      tag_762\n      jumpi\n        /* \"#utility.yul\":7318:7319   */\n      0x00\n        /* \"#utility.yul\":7315:7316   */\n      dup1\n        /* \"#utility.yul\":7308:7320   */\n      revert\n        /* \"#utility.yul\":7272:7322   */\n    tag_762:\n        /* \"#utility.yul\":7357:7427   */\n      tag_763\n        /* \"#utility.yul\":7419:7426   */\n      dup7\n        /* \"#utility.yul\":7410:7416   */\n      dup3\n        /* \"#utility.yul\":7399:7408   */\n      dup8\n        /* \"#utility.yul\":7395:7417   */\n      add\n        /* \"#utility.yul\":7357:7427   */\n      tag_695\n      jump\t// in\n    tag_763:\n        /* \"#utility.yul\":6976:7487   */\n      swap5\n      swap8\n        /* \"#utility.yul\":7446:7454   */\n      swap1\n      swap7\n      pop\n        /* \"#utility.yul\":7331:7427   */\n      swap4\n      swap5\n      pop\n      pop\n      pop\n      pop\n        /* \"#utility.yul\":6976:7487   */\n      jump\t// out\n        /* \"#utility.yul\":8528:8980   */\n    tag_697:\n        /* \"#utility.yul\":8578:8581   */\n      0x00\n        /* \"#utility.yul\":8616:8621   */\n      dup2\n        /* \"#utility.yul\":8610:8622   */\n      mload\n        /* \"#utility.yul\":8643:8649   */\n      dup1\n        /* \"#utility.yul\":8638:8641   */\n      dup5\n        /* \"#utility.yul\":8631:8650   */\n      mstore\n        /* \"#utility.yul\":8669:8673   */\n      0x20\n        /* \"#utility.yul\":8698:8702   */\n      dup1\n        /* \"#utility.yul\":8693:8696   */\n      dup6\n        /* \"#utility.yul\":8689:8703   */\n      add\n        /* \"#utility.yul\":8682:8703   */\n      swap5\n      pop\n        /* \"#utility.yul\":8737:8741   */\n      0x20\n        /* \"#utility.yul\":8730:8735   */\n      dup5\n        /* \"#utility.yul\":8726:8742   */\n      add\n        /* \"#utility.yul\":8760:8761   */\n      0x00\n        /* \"#utility.yul\":8770:8955   */\n    tag_772:\n        /* \"#utility.yul\":8784:8790   */\n      dup4\n        /* \"#utility.yul\":8781:8782   */\n      dup2\n        /* \"#utility.yul\":8778:8791   */\n      lt\n        /* \"#utility.yul\":8770:8955   */\n      iszero\n      tag_752\n      jumpi\n        /* \"#utility.yul\":8859:8872   */\n      dup2\n      mload\n        /* \"#utility.yul\":8852:8873   */\n      iszero\n        /* \"#utility.yul\":8845:8874   */\n      iszero\n        /* \"#utility.yul\":8833:8875   */\n      dup8\n      mstore\n        /* \"#utility.yul\":8895:8907   */\n      swap6\n      dup3\n      add\n      swap6\n        /* \"#utility.yul\":8930:8945   */\n      swap1\n      dup3\n      add\n      swap1\n        /* \"#utility.yul\":8806:8807   */\n      0x01\n        /* \"#utility.yul\":8799:8808   */\n      add\n        /* \"#utility.yul\":8770:8955   */\n      jump(tag_772)\n        /* \"#utility.yul\":8985:10038   */\n    tag_238:\n        /* \"#utility.yul\":9458:9461   */\n      0xa0\n        /* \"#utility.yul\":9447:9456   */\n      dup2\n        /* \"#utility.yul\":9440:9462   */\n      mstore\n        /* \"#utility.yul\":9421:9425   */\n      0x00\n        /* \"#utility.yul\":9485:9542   */\n      tag_776\n        /* \"#utility.yul\":9537:9540   */\n      0xa0\n        /* \"#utility.yul\":9526:9535   */\n      dup4\n        /* \"#utility.yul\":9522:9541   */\n      add\n        /* \"#utility.yul\":9514:9520   */\n      dup9\n        /* \"#utility.yul\":9485:9542   */\n      tag_696\n      jump\t// in\n    tag_776:\n        /* \"#utility.yul\":9590:9599   */\n      dup3\n        /* \"#utility.yul\":9582:9588   */\n      dup2\n        /* \"#utility.yul\":9578:9600   */\n      sub\n        /* \"#utility.yul\":9573:9575   */\n      0x20\n        /* \"#utility.yul\":9562:9571   */\n      dup5\n        /* \"#utility.yul\":9558:9576   */\n      add\n        /* \"#utility.yul\":9551:9601   */\n      mstore\n        /* \"#utility.yul\":9624:9668   */\n      tag_777\n        /* \"#utility.yul\":9661:9667   */\n      dup2\n        /* \"#utility.yul\":9653:9659   */\n      dup9\n        /* \"#utility.yul\":9624:9668   */\n      tag_696\n      jump\t// in\n    tag_777:\n        /* \"#utility.yul\":9610:9668   */\n      swap1\n      pop\n        /* \"#utility.yul\":9716:9725   */\n      dup3\n        /* \"#utility.yul\":9708:9714   */\n      dup2\n        /* \"#utility.yul\":9704:9726   */\n      sub\n        /* \"#utility.yul\":9699:9701   */\n      0x40\n        /* \"#utility.yul\":9688:9697   */\n      dup5\n        /* \"#utility.yul\":9684:9702   */\n      add\n        /* \"#utility.yul\":9677:9727   */\n      mstore\n        /* \"#utility.yul\":9750:9791   */\n      tag_778\n        /* \"#utility.yul\":9784:9790   */\n      dup2\n        /* \"#utility.yul\":9776:9782   */\n      dup8\n        /* \"#utility.yul\":9750:9791   */\n      tag_697\n      jump\t// in\n    tag_778:\n        /* \"#utility.yul\":9736:9791   */\n      swap1\n      pop\n        /* \"#utility.yul\":9839:9848   */\n      dup3\n        /* \"#utility.yul\":9831:9837   */\n      dup2\n        /* \"#utility.yul\":9827:9849   */\n      sub\n        /* \"#utility.yul\":9822:9824   */\n      0x60\n        /* \"#utility.yul\":9811:9820   */\n      dup5\n        /* \"#utility.yul\":9807:9825   */\n      add\n        /* \"#utility.yul\":9800:9850   */\n      mstore\n        /* \"#utility.yul\":9873:9914   */\n      tag_779\n        /* \"#utility.yul\":9907:9913   */\n      dup2\n        /* \"#utility.yul\":9899:9905   */\n      dup7\n        /* \"#utility.yul\":9873:9914   */\n      tag_697\n      jump\t// in\n    tag_779:\n        /* \"#utility.yul\":9859:9914   */\n      swap1\n      pop\n        /* \"#utility.yul\":9963:9972   */\n      dup3\n        /* \"#utility.yul\":9955:9961   */\n      dup2\n        /* \"#utility.yul\":9951:9973   */\n      sub\n        /* \"#utility.yul\":9945:9948   */\n      0x80\n        /* \"#utility.yul\":9934:9943   */\n      dup5\n        /* \"#utility.yul\":9930:9949   */\n      add\n        /* \"#utility.yul\":9923:9974   */\n      mstore\n        /* \"#utility.yul\":9991:10032   */\n      tag_780\n        /* \"#utility.yul\":10025:10031   */\n      dup2\n        /* \"#utility.yul\":10017:10023   */\n      dup6\n        /* \"#utility.yul\":9991:10032   */\n      tag_697\n      jump\t// in\n    tag_780:\n        /* \"#utility.yul\":9983:10032   */\n      swap9\n        /* \"#utility.yul\":8985:10038   */\n      swap8\n      pop\n      pop\n      pop\n      pop\n      pop\n      pop\n      pop\n      pop\n      jump\t// out\n        /* \"#utility.yul\":10384:10511   */\n    tag_300:\n        /* \"#utility.yul\":10445:10455   */\n      0x4e487b71\n        /* \"#utility.yul\":10440:10443   */\n      0xe0\n        /* \"#utility.yul\":10436:10456   */\n      shl\n        /* \"#utility.yul\":10433:10434   */\n      0x00\n        /* \"#utility.yul\":10426:10457   */\n      mstore\n        /* \"#utility.yul\":10476:10480   */\n      0x41\n        /* \"#utility.yul\":10473:10474   */\n      0x04\n        /* \"#utility.yul\":10466:10481   */\n      mstore\n        /* \"#utility.yul\":10500:10504   */\n      0x24\n        /* \"#utility.yul\":10497:10498   */\n      0x00\n        /* \"#utility.yul\":10490:10505   */\n      revert\n        /* \"#utility.yul\":10516:10643   */\n    tag_304:\n        /* \"#utility.yul\":10577:10587   */\n      0x4e487b71\n        /* \"#utility.yul\":10572:10575   */\n      0xe0\n        /* \"#utility.yul\":10568:10588   */\n      shl\n        /* \"#utility.yul\":10565:10566   */\n      0x00\n        /* \"#utility.yul\":10558:10589   */\n      mstore\n        /* \"#utility.yul\":10608:10612   */\n      0x32\n        /* \"#utility.yul\":10605:10606   */\n      0x04\n        /* \"#utility.yul\":10598:10613   */\n      mstore\n        /* \"#utility.yul\":10632:10636   */\n      0x24\n        /* \"#utility.yul\":10629:10630   */\n      0x00\n        /* \"#utility.yul\":10622:10637   */\n      revert\n        /* \"#utility.yul\":12713:12840   */\n    tag_698:\n        /* \"#utility.yul\":12774:12784   */\n      0x4e487b71\n        /* \"#utility.yul\":12769:12772   */\n      0xe0\n        /* \"#utility.yul\":12765:12785   */\n      shl\n        /* \"#utility.yul\":12762:12763   */\n      0x00\n        /* \"#utility.yul\":12755:12786   */\n      mstore\n        /* \"#utility.yul\":12805:12809   */\n      0x11\n        /* \"#utility.yul\":12802:12803   */\n      0x04\n        /* \"#utility.yul\":12795:12810   */\n      mstore\n        /* \"#utility.yul\":12829:12833   */\n      0x24\n        /* \"#utility.yul\":12826:12827   */\n      0x00\n        /* \"#utility.yul\":12819:12834   */\n      revert\n        /* \"#utility.yul\":12845:12970   */\n    tag_354:\n        /* \"#utility.yul\":12910:12919   */\n      dup1\n      dup3\n      add\n        /* \"#utility.yul\":12931:12941   */\n      dup1\n      dup3\n      gt\n        /* \"#utility.yul\":12928:12964   */\n      iszero\n      tag_276\n      jumpi\n        /* \"#utility.yul\":12944:12962   */\n      tag_276\n      tag_698\n      jump\t// in\n        /* \"#utility.yul\":13901:14029   */\n    tag_386:\n        /* \"#utility.yul\":13968:13977   */\n      dup2\n      dup2\n      sub\n        /* \"#utility.yul\":13989:14000   */\n      dup2\n      dup2\n      gt\n        /* \"#utility.yul\":13986:14023   */\n      iszero\n      tag_276\n      jumpi\n        /* \"#utility.yul\":14003:14021   */\n      tag_276\n      tag_698\n      jump\t// in\n        /* \"#utility.yul\":14034:14169   */\n    tag_421:\n        /* \"#utility.yul\":14073:14076   */\n      0x00\n        /* \"#utility.yul\":14094:14111   */\n      0x01\n      dup3\n      add\n        /* \"#utility.yul\":14091:14134   */\n      tag_802\n      jumpi\n        /* \"#utility.yul\":14114:14132   */\n      tag_802\n      tag_698\n      jump\t// in\n    tag_802:\n      pop\n        /* \"#utility.yul\":14161:14162   */\n      0x01\n        /* \"#utility.yul\":14150:14163   */\n      add\n      swap1\n        /* \"#utility.yul\":14034:14169   */\n      jump\t// out\n        /* \"#utility.yul\":16048:16593   */\n    tag_495:\n        /* \"#utility.yul\":16141:16145   */\n      0x00\n        /* \"#utility.yul\":16147:16153   */\n      dup1\n        /* \"#utility.yul\":16207:16218   */\n      dup4\n        /* \"#utility.yul\":16194:16219   */\n      calldataload\n        /* \"#utility.yul\":16301:16303   */\n      0x1e\n        /* \"#utility.yul\":16297:16304   */\n      not\n        /* \"#utility.yul\":16286:16294   */\n      dup5\n        /* \"#utility.yul\":16270:16284   */\n      calldatasize\n        /* \"#utility.yul\":16266:16295   */\n      sub\n        /* \"#utility.yul\":16262:16305   */\n      add\n        /* \"#utility.yul\":16242:16260   */\n      dup2\n        /* \"#utility.yul\":16238:16306   */\n      slt\n        /* \"#utility.yul\":16228:16324   */\n      tag_809\n      jumpi\n        /* \"#utility.yul\":16320:16321   */\n      0x00\n        /* \"#utility.yul\":16317:16318   */\n      dup1\n        /* \"#utility.yul\":16310:16322   */\n      revert\n        /* \"#utility.yul\":16228:16324   */\n    tag_809:\n        /* \"#utility.yul\":16347:16380   */\n      dup4\n      add\n        /* \"#utility.yul\":16399:16419   */\n      dup1\n      calldataload\n      swap2\n      pop\n        /* \"#utility.yul\":16442:16460   */\n      0xffffffffffffffff\n        /* \"#utility.yul\":16431:16461   */\n      dup3\n      gt\n        /* \"#utility.yul\":16428:16478   */\n      iszero\n      tag_810\n      jumpi\n        /* \"#utility.yul\":16474:16475   */\n      0x00\n        /* \"#utility.yul\":16471:16472   */\n      dup1\n        /* \"#utility.yul\":16464:16476   */\n      revert\n        /* \"#utility.yul\":16428:16478   */\n    tag_810:\n        /* \"#utility.yul\":16507:16511   */\n      0x20\n        /* \"#utility.yul\":16495:16512   */\n      add\n      swap2\n      pop\n        /* \"#utility.yul\":16558:16559   */\n      0x05\n        /* \"#utility.yul\":16554:16568   */\n      dup2\n      swap1\n      shl\n        /* \"#utility.yul\":16538:16552   */\n      calldatasize\n        /* \"#utility.yul\":16534:16569   */\n      sub\n        /* \"#utility.yul\":16524:16570   */\n      dup3\n      sgt\n        /* \"#utility.yul\":16521:16587   */\n      iszero\n      tag_732\n      jumpi\n        /* \"#utility.yul\":16583:16584   */\n      0x00\n        /* \"#utility.yul\":16580:16581   */\n      dup1\n        /* \"#utility.yul\":16573:16585   */\n      revert\n        /* \"#utility.yul\":16598:16956   */\n    tag_699:\n        /* \"#utility.yul\":16698:16704   */\n      dup2\n        /* \"#utility.yul\":16693:16696   */\n      dup4\n        /* \"#utility.yul\":16686:16705   */\n      mstore\n        /* \"#utility.yul\":16668:16671   */\n      0x00\n        /* \"#utility.yul\":16728:16794   */\n      0x07ffffffffffffffffffffffffffffffffffffffffffffffffffffffffffffff\n        /* \"#utility.yul\":16720:16726   */\n      dup4\n        /* \"#utility.yul\":16717:16795   */\n      gt\n        /* \"#utility.yul\":16714:16812   */\n      iszero\n      tag_813\n      jumpi\n        /* \"#utility.yul\":16808:16809   */\n      0x00\n        /* \"#utility.yul\":16805:16806   */\n      dup1\n        /* \"#utility.yul\":16798:16810   */\n      revert\n        /* \"#utility.yul\":16714:16812   */\n    tag_813:\n        /* \"#utility.yul\":16844:16850   */\n      dup3\n        /* \"#utility.yul\":16841:16842   */\n      0x05\n        /* \"#utility.yul\":16837:16851   */\n      shl\n        /* \"#utility.yul\":16896:16904   */\n      dup1\n        /* \"#utility.yul\":16889:16894   */\n      dup4\n        /* \"#utility.yul\":16882:16886   */\n      0x20\n        /* \"#utility.yul\":16877:16880   */\n      dup8\n        /* \"#utility.yul\":16873:16887   */\n      add\n        /* \"#utility.yul\":16860:16905   */\n      calldatacopy\n        /* \"#utility.yul\":16925:16943   */\n      swap4\n      swap1\n      swap4\n      add\n        /* \"#utility.yul\":16945:16949   */\n      0x20\n        /* \"#utility.yul\":16921:16950   */\n      add\n      swap4\n        /* \"#utility.yul\":16598:16956   */\n      swap3\n      pop\n      pop\n      pop\n      jump\t// out\n        /* \"#utility.yul\":16961:18814   */\n    tag_497:\n        /* \"#utility.yul\":17301:17303   */\n      0x40\n        /* \"#utility.yul\":17313:17334   */\n      dup1\n      dup3\n      mstore\n        /* \"#utility.yul\":17286:17304   */\n      dup2\n      add\n        /* \"#utility.yul\":17369:17391   */\n      dup5\n      swap1\n      mstore\n        /* \"#utility.yul\":17253:17257   */\n      0x00\n        /* \"#utility.yul\":17448:17454   */\n      dup6\n        /* \"#utility.yul\":17422:17424   */\n      0x60\n        /* \"#utility.yul\":17407:17425   */\n      dup4\n      add\n        /* \"#utility.yul\":17253:17257   */\n      dup3\n        /* \"#utility.yul\":17482:17740   */\n    tag_815:\n        /* \"#utility.yul\":17496:17502   */\n      dup8\n        /* \"#utility.yul\":17493:17494   */\n      dup2\n        /* \"#utility.yul\":17490:17503   */\n      lt\n        /* \"#utility.yul\":17482:17740   */\n      iszero\n      tag_817\n      jumpi\n      sub(shl(0xa0, 0x01), 0x01)\n        /* \"#utility.yul\":17561:17587   */\n      tag_818\n        /* \"#utility.yul\":17580:17586   */\n      dup5\n        /* \"#utility.yul\":17561:17587   */\n      tag_694\n      jump\t// in\n    tag_818:\n        /* \"#utility.yul\":17557:17632   */\n      and\n        /* \"#utility.yul\":17545:17633   */\n      dup3\n      mstore\n        /* \"#utility.yul\":17656:17660   */\n      0x20\n        /* \"#utility.yul\":17715:17730   */\n      swap3\n      dup4\n      add\n      swap3\n        /* \"#utility.yul\":17680:17692   */\n      swap1\n      swap2\n      add\n      swap1\n        /* \"#utility.yul\":17518:17519   */\n      0x01\n        /* \"#utility.yul\":17511:17520   */\n      add\n        /* \"#utility.yul\":17482:17740   */\n      jump(tag_815)\n    tag_817:\n        /* \"#utility.yul\":17486:17489   */\n      pop\n        /* \"#utility.yul\":17759:17763   */\n      0x20\n        /* \"#utility.yul\":17749:17763   */\n      swap2\n      pop\n        /* \"#utility.yul\":17808:17817   */\n      dup4\n        /* \"#utility.yul\":17803:17806   */\n      dup2\n        /* \"#utility.yul\":17799:17818   */\n      sub\n        /* \"#utility.yul\":17794:17796   */\n      dup3\n        /* \"#utility.yul\":17783:17792   */\n      dup6\n        /* \"#utility.yul\":17779:17797   */\n      add\n        /* \"#utility.yul\":17772:17819   */\n      mstore\n        /* \"#utility.yul\":17841:17844   */\n      dup1\n        /* \"#utility.yul\":17865:17871   */\n      dup6\n        /* \"#utility.yul\":17860:17863   */\n      dup3\n        /* \"#utility.yul\":17853:17872   */\n      mstore\n        /* \"#utility.yul\":17899:17901   */\n      dup3\n        /* \"#utility.yul\":17894:17897   */\n      dup3\n        /* \"#utility.yul\":17890:17902   */\n      add\n        /* \"#utility.yul\":17881:17902   */\n      swap1\n      pop\n        /* \"#utility.yul\":17921:17922   */\n      0x05\n        /* \"#utility.yul\":17975:17977   */\n      dup4\n        /* \"#utility.yul\":17965:17971   */\n      dup8\n        /* \"#utility.yul\":17962:17963   */\n      0x05\n        /* \"#utility.yul\":17958:17972   */\n      shl\n        /* \"#utility.yul\":17953:17956   */\n      dup5\n        /* \"#utility.yul\":17949:17973   */\n      add\n        /* \"#utility.yul\":17945:17978   */\n      add\n        /* \"#utility.yul\":18003:18009   */\n      dup9\n        /* \"#utility.yul\":18029:18030   */\n      0x00\n        /* \"#utility.yul\":18039:18785   */\n    tag_819:\n        /* \"#utility.yul\":18055:18061   */\n      dup10\n        /* \"#utility.yul\":18050:18053   */\n      dup2\n        /* \"#utility.yul\":18047:18062   */\n      lt\n        /* \"#utility.yul\":18039:18785   */\n      iszero\n      tag_821\n      jumpi\n        /* \"#utility.yul\":18126:18142   */\n      dup6\n      dup4\n      sub\n      not(0x1f)\n        /* \"#utility.yul\":18122:18152   */\n      add\n        /* \"#utility.yul\":18108:18153   */\n      dup6\n      mstore\n        /* \"#utility.yul\":18192:18214   */\n      dup2\n      calldataload\n        /* \"#utility.yul\":18269:18283   */\n      calldatasize\n        /* \"#utility.yul\":18265:18292   */\n      dup13\n      swap1\n      sub\n      not(0x1e)\n        /* \"#utility.yul\":18261:18302   */\n      add\n        /* \"#utility.yul\":18237:18303   */\n      dup2\n      slt\n        /* \"#utility.yul\":18227:18321   */\n      tag_822\n      jumpi\n        /* \"#utility.yul\":18317:18318   */\n      0x00\n        /* \"#utility.yul\":18314:18315   */\n      dup1\n        /* \"#utility.yul\":18307:18319   */\n      revert\n        /* \"#utility.yul\":18227:18321   */\n    tag_822:\n        /* \"#utility.yul\":18347:18378   */\n      dup12\n      add\n        /* \"#utility.yul\":18452:18466   */\n      dup8\n      dup2\n      add\n      swap1\n        /* \"#utility.yul\":18405:18424   */\n      calldataload\n        /* \"#utility.yul\":18493:18511   */\n      0xffffffffffffffff\n        /* \"#utility.yul\":18482:18512   */\n      dup2\n      gt\n        /* \"#utility.yul\":18479:18529   */\n      iszero\n      tag_823\n      jumpi\n        /* \"#utility.yul\":18525:18526   */\n      0x00\n        /* \"#utility.yul\":18522:18523   */\n      dup1\n        /* \"#utility.yul\":18515:18527   */\n      revert\n        /* \"#utility.yul\":18479:18529   */\n    tag_823:\n        /* \"#utility.yul\":18586:18592   */\n      dup1\n        /* \"#utility.yul\":18582:18584   */\n      dup7\n        /* \"#utility.yul\":18578:18593   */\n      shl\n        /* \"#utility.yul\":18562:18576   */\n      calldatasize\n        /* \"#utility.yul\":18558:18594   */\n      sub\n        /* \"#utility.yul\":18549:18556   */\n      dup3\n        /* \"#utility.yul\":18545:18595   */\n      sgt\n        /* \"#utility.yul\":18542:18612   */\n      iszero\n      tag_824\n      jumpi\n        /* \"#utility.yul\":18608:18609   */\n      0x00\n        /* \"#utility.yul\":18605:18606   */\n      dup1\n        /* \"#utility.yul\":18598:18610   */\n      revert\n        /* \"#utility.yul\":18542:18612   */\n    tag_824:\n        /* \"#utility.yul\":18635:18697   */\n      tag_825\n        /* \"#utility.yul\":18690:18696   */\n      dup6\n        /* \"#utility.yul\":18682:18688   */\n      dup3\n        /* \"#utility.yul\":18673:18680   */\n      dup5\n        /* \"#utility.yul\":18635:18697   */\n      tag_699\n      jump\t// in\n    tag_825:\n        /* \"#utility.yul\":18761:18775   */\n      swap7\n      dup10\n      add\n      swap7\n        /* \"#utility.yul\":18625:18697   */\n      swap5\n      pop\n      pop\n      pop\n        /* \"#utility.yul\":18722:18739   */\n      swap1\n      dup7\n      add\n      swap1\n        /* \"#utility.yul\":18081:18082   */\n      0x01\n        /* \"#utility.yul\":18072:18083   */\n      add\n        /* \"#utility.yul\":18039:18785   */\n      jump(tag_819)\n    tag_821:\n      pop\n        /* \"#utility.yul\":18802:18808   */\n      swap1\n      swap12\n        /* \"#utility.yul\":16961:18814   */\n      swap11\n      pop\n      pop\n      pop\n      pop\n      pop\n      pop\n      pop\n      pop\n      pop\n      pop\n      pop\n      jump\t// out\n        /* \"#utility.yul\":21269:21437   */\n    tag_636:\n        /* \"#utility.yul\":21342:21351   */\n      dup1\n      dup3\n      mul\n        /* \"#utility.yul\":21373:21382   */\n      dup2\n      iszero\n        /* \"#utility.yul\":21390:21405   */\n      dup3\n      dup3\n      div\n        /* \"#utility.yul\":21384:21406   */\n      dup5\n      eq\n        /* \"#utility.yul\":21370:21407   */\n      or\n        /* \"#utility.yul\":21360:21431   */\n      tag_276\n      jumpi\n        /* \"#utility.yul\":21411:21429   */\n      tag_276\n      tag_698\n      jump\t// in\n        /* \"#utility.yul\":21442:21659   */\n    tag_638:\n        /* \"#utility.yul\":21482:21483   */\n      0x00\n        /* \"#utility.yul\":21508:21509   */\n      dup3\n        /* \"#utility.yul\":21498:21630   */\n      tag_837\n      jumpi\n        /* \"#utility.yul\":21552:21562   */\n      0x4e487b71\n        /* \"#utility.yul\":21547:21550   */\n      0xe0\n        /* \"#utility.yul\":21543:21563   */\n      shl\n        /* \"#utility.yul\":21540:21541   */\n      0x00\n        /* \"#utility.yul\":21533:21564   */\n      mstore\n        /* \"#utility.yul\":21587:21591   */\n      0x12\n        /* \"#utility.yul\":21584:21585   */\n      0x04\n        /* \"#utility.yul\":21577:21592   */\n      mstore\n        /* \"#utility.yul\":21615:21619   */\n      0x24\n        /* \"#utility.yul\":21612:21613   */\n      0x00\n        /* \"#utility.yul\":21605:21620   */\n      revert\n        /* \"#utility.yul\":21498:21630   */\n    tag_837:\n      pop\n        /* \"#utility.yul\":21644:21653   */\n      div\n      swap1\n        /* \"#utility.yul\":21442:21659   */\n      jump\t// out\n        /* \"#utility.yul\":22480:22956   */\n    tag_658:\n        /* \"#utility.yul\":22743:22746   */\n      0x80\n        /* \"#utility.yul\":22732:22741   */\n      dup2\n        /* \"#utility.yul\":22725:22747   */\n      mstore\n        /* \"#utility.yul\":22706:22710   */\n      0x00\n        /* \"#utility.yul\":22764:22821   */\n      tag_841\n        /* \"#utility.yul\":22816:22819   */\n      0x80\n        /* \"#utility.yul\":22805:22814   */\n      dup4\n        /* \"#utility.yul\":22801:22820   */\n      add\n        /* \"#utility.yul\":22793:22799   */\n      dup8\n        /* \"#utility.yul\":22764:22821   */\n      tag_696\n      jump\t// in\n    tag_841:\n        /* \"#utility.yul\":22852:22854   */\n      0x20\n        /* \"#utility.yul\":22837:22855   */\n      dup4\n      add\n        /* \"#utility.yul\":22830:22864   */\n      swap6\n      swap1\n      swap6\n      mstore\n      pop\n        /* \"#utility.yul\":22895:22897   */\n      0x40\n        /* \"#utility.yul\":22880:22898   */\n      dup2\n      add\n        /* \"#utility.yul\":22873:22907   */\n      swap3\n      swap1\n      swap3\n      mstore\n        /* \"#utility.yul\":22938:22940   */\n      0x60\n        /* \"#utility.yul\":22923:22941   */\n      swap1\n      swap2\n      add\n        /* \"#utility.yul\":22916:22950   */\n      mstore\n        /* \"#utility.yul\":22756:22821   */\n      swap2\n        /* \"#utility.yul\":22480:22956   */\n      swap1\n      pop\n      jump\t// out\n\n    auxdata: 0xa26469706673582212201eded658b3f7665e655b412b9e64e5493f12cbb810c7009585de31fea3945a5264736f6c63430008190033\n}\n",
    "bytecode": {
      "linkReferences": {},
      "object": "608060405234801561000f575f80fd5b5060405161321f38038061321f83398101604081905261002e91610263565b600180555f5b8151811015610184576100685f801b83838151811061005557610055610322565b602002602001015161018b60201b60201c565b5061009f7fa49807205ce4d355092ef5a8a18f56e8913cf4a201fbe287825b095693c2177583838151811061005557610055610322565b506100d67f65d7a28e3265b37a6474929f336521b332c1681b933f6cb9f3376673440d862a83838151811061005557610055610322565b5061010d7fc806897caf4fd5068191157e44d3988e43139a37e0b97b6793e1ed118414060483838151811061005557610055610322565b506101447ff60566c40710959d8d30b6067ce3c53c757bec78eecb0e46b83c7f8194ffae3783838151811061005557610055610322565b5061017b7f10dac8c06a04bec0b551627dad28bc00d6516b0caacd1c7b345fcdb5211334e483838151811061005557610055610322565b50600101610034565b5050610336565b5f828152602081815260408083206001600160a01b038516845290915281205460ff1661022b575f838152602081815260408083206001600160a01b03861684529091529020805460ff191660011790556101e33390565b6001600160a01b0316826001600160a01b0316847f2f8788117e7eff1d82e926ec794901d17c78024a50270940304540a733656f0d60405160405180910390a450600161022e565b505f5b92915050565b634e487b7160e01b5f52604160045260245ffd5b80516001600160a01b038116811461025e575f80fd5b919050565b5f6020808385031215610274575f80fd5b82516001600160401b038082111561028a575f80fd5b818501915085601f83011261029d575f80fd5b8151818111156102af576102af610234565b8060051b604051601f19603f830116810181811085821117156102d4576102d4610234565b6040529182528482019250838101850191888311156102f1575f80fd5b938501935b828510156103165761030785610248565b845293850193928501926102f6565b98975050505050505050565b634e487b7160e01b5f52603260045260245ffd5b612edc806103435f395ff3fe6080604052600436106102e5575f3560e01c80635c975abb11610186578063a217fddf116100dc578063e63ab1e911610087578063f340fa0111610062578063f340fa011461091a578063fdfbe0c81461092d578063ff50abdc14610941575f80fd5b8063e63ab1e9146108bd578063ebfa7c46146108f0578063ec16d07614610904575f80fd5b8063d547741f116100b7578063d547741f14610857578063da8d5add14610876578063e043b2b21461088a575f80fd5b8063a217fddf146107dd578063a2bdedf4146107f0578063b3a7834d14610827575f80fd5b806385f438c11161013c57806391d148541161011757806391d148541461076857806397f6ad87146107aa5780639a038b46146107be575f80fd5b806385f438c1146106f7578063867d099a1461072a5780638e95774814610749575f80fd5b80636eb80c1d1161016c5780636eb80c1d1461067857806372e55399146106a557806375b238fc146106c4575f80fd5b80635c975abb1461064a5780635e0cde1014610663575f80fd5b80632f2ff15d1161023b578063462d6c3d116101f157806351fb012d116101cc57806351fb012d146105f857806353d6fd5914610616578063588583a014610635575f80fd5b8063462d6c3d146105a557806347af19aa146105ad5780634ff113e9146105cc575f80fd5b806336568abe1161022157806336568abe146105435780633a98ef39146105625780633af32abf14610577575f80fd5b80632f2ff15d146105055780633098924b14610524575f80fd5b806316c38b3c1161029b578063246d47b711610276578063246d47b714610499578063248a9ca3146104b85780632e1a7d4d146104e6575f80fd5b806316c38b3c1461044557806320bc73f41461046457806323548b8b1461047b575f80fd5b806308f43333116102cb57806308f4333314610390578063093c87f3146103e25780630c016ad514610404575f80fd5b806301ffc9a71461033b578063052d9e7e1461036f575f80fd5b366103375760405162461bcd60e51b815260206004820152601260248201527f557365206465706f7369742f696e6a656374000000000000000000000000000060448201526064015b60405180910390fd5b5f80fd5b348015610346575f80fd5b5061035a6103553660046128a1565b610956565b60405190151581526020015b60405180910390f35b34801561037a575f80fd5b5061038e6103893660046128de565b61098c565b005b34801561039b575f80fd5b506103af6103aa36600461290d565b6109d1565b604080519687526020870195909552938501929092521515606084015215156080830152151560a082015260c001610366565b3480156103ed575f80fd5b506004546a0422ca8b0a00a425000000111561035a565b34801561040f575f80fd5b506104377ff60566c40710959d8d30b6067ce3c53c757bec78eecb0e46b83c7f8194ffae3781565b604051908152602001610366565b348015610450575f80fd5b5061038e61045f3660046128de565b610a29565b34801561046f575f80fd5b506104376302c7ea0081565b348015610486575f80fd5b506104376a0422ca8b0a00a42500000081565b3480156104a4575f80fd5b5060025461035a9062010000900460ff1681565b3480156104c3575f80fd5b506104376104d2366004612935565b5f9081526020819052604090206001015490565b3480156104f1575f80fd5b5061038e610500366004612935565b610a9b565b348015610510575f80fd5b5061038e61051f36600461294c565b610b3b565b34801561052f575f80fd5b5061038e61053e366004612976565b610b65565b34801561054e575f80fd5b5061038e61055d36600461294c565b610d68565b34801561056d575f80fd5b5061043760055481565b348015610582575f80fd5b5061035a610591366004612976565b60086020525f908152604090205460ff1681565b61038e610da0565b3480156105b8575f80fd5b5061038e6105c73660046129d7565b610e9c565b3480156105d7575f80fd5b506105eb6105e6366004612a3e565b611032565b6040516103669190612a5e565b348015610603575f80fd5b5060025461035a90610100900460ff1681565b348015610621575f80fd5b5061038e610630366004612aaa565b61116c565b348015610640575f80fd5b5061043760035481565b348015610655575f80fd5b5060025461035a9060ff1681565b34801561066e575f80fd5b5061043760065481565b348015610683575f80fd5b50610697610692366004612976565b6111f5565b604051610366929190612b0c565b3480156106b0575f80fd5b5061038e6106bf366004612b2c565b611340565b3480156106cf575f80fd5b506104377fa49807205ce4d355092ef5a8a18f56e8913cf4a201fbe287825b095693c2177581565b348015610702575f80fd5b506104377f10dac8c06a04bec0b551627dad28bc00d6516b0caacd1c7b345fcdb5211334e481565b348015610735575f80fd5b5061038e610744366004612b6b565b6113ce565b348015610754575f80fd5b5061038e61076336600461290d565b6115d7565b348015610773575f80fd5b5061035a61078236600461294c565b5f918252602082815260408084206001600160a01b0393909316845291905290205460ff1690565b3480156107b5575f80fd5b50600654610437565b3480156107c9575f80fd5b5061038e6107d83660046129d7565b6117df565b3480156107e8575f80fd5b506104375f81565b3480156107fb575f80fd5b5061080f61080a366004612935565b611949565b6040516001600160a01b039091168152602001610366565b348015610832575f80fd5b50610846610841366004612976565b611971565b604051610366959493929190612beb565b348015610862575f80fd5b5061038e61087136600461294c565b611c0e565b348015610881575f80fd5b5061038e611c32565b348015610895575f80fd5b506104377fc806897caf4fd5068191157e44d3988e43139a37e0b97b6793e1ed118414060481565b3480156108c8575f80fd5b506104377f65d7a28e3265b37a6474929f336521b332c1681b933f6cb9f3376673440d862a81565b3480156108fb575f80fd5b50610437611dd0565b34801561090f575f80fd5b5061043762ed4e0081565b610437610928366004612976565b611e08565b348015610938575f80fd5b50610437612155565b34801561094c575f80fd5b5061043760045481565b5f6001600160e01b03198216637965db0b60e01b148061098657506301ffc9a760e01b6001600160e01b03198316145b92915050565b7fa49807205ce4d355092ef5a8a18f56e8913cf4a201fbe287825b095693c217756109b681612218565b50600280549115156101000261ff0019909216919091179055565b6007602052815f5260405f2081815481106109ea575f80fd5b5f9182526020909120600490910201805460018201546002830154600390930154919450925060ff808216916101008104821691620100009091041686565b7f65d7a28e3265b37a6474929f336521b332c1681b933f6cb9f3376673440d862a610a5381612218565b6002805460ff19168315159081179091556040519081527f8fb6c181ee25a520cf3dd6565006ef91229fcfe5a989566c2a3b8c115570cec59060200160405180910390a15050565b610aa3612222565b60025460ff1615610ae55760405162461bcd60e51b815260206004820152600c60248201526b15985d5b1d081c185d5cd95960a21b604482015260640161032e565b6040805160018082528183019092525f916020808301908036833701905050905081815f81518110610b1957610b19612c6b565b602002602001018181525050610b2e8161224c565b50610b3860018055565b50565b5f82815260208190526040902060010154610b5581612218565b610b5f838361265c565b50505050565b7fa49807205ce4d355092ef5a8a18f56e8913cf4a201fbe287825b095693c21775610b8f81612218565b610b97612222565b6001600160a01b038216610bdc5760405162461bcd60e51b815260206004820152600c60248201526b496e76616c69642027746f2760a01b604482015260640161032e565b600454158015610bec5750600554155b610c385760405162461bcd60e51b815260206004820152601060248201527f4465706f736974732070656e64696e6700000000000000000000000000000000604482015260640161032e565b60405147905f906001600160a01b0385169083908381818185875af1925050503d805f8114610c82576040519150601f19603f3d011682016040523d82523d5f602084013e610c87565b606091505b5050905080610cce5760405162461bcd60e51b8152602060048201526013602482015272115512081d1c985b9cd9995c8819985a5b1959606a1b604482015260640161032e565b836001600160a01b0316336001600160a01b03167fa42a4a1652be46e2b44488aec0a260d6f641d4e01decddf6f2b2217922aec3a68442604051610d5192919091825260208201526060604082018190526009908201527f656d657267656e63790000000000000000000000000000000000000000000000608082015260a00190565b60405180910390a35050610d6460018055565b5050565b6001600160a01b0381163314610d915760405163334bd91960e11b815260040160405180910390fd5b610d9b8282612703565b505050565b7ff60566c40710959d8d30b6067ce3c53c757bec78eecb0e46b83c7f8194ffae37610dca81612218565b60025460ff1615610e0c5760405162461bcd60e51b815260206004820152600c60248201526b15985d5b1d081c185d5cd95960a21b604482015260640161032e565b5f3411610e495760405162461bcd60e51b815260206004820152600b60248201526a139bc8115512081cd95b9d60aa1b604482015260640161032e565b3460065f828254610e5a9190612c93565b90915550506040805134815242602082015233917fb717fe2b7c9b70bd4f64a85e911a9e4261c90db87aab224da0b8324f846c3d71910160405180910390a250565b7fa49807205ce4d355092ef5a8a18f56e8913cf4a201fbe287825b095693c21775610ec681612218565b838214610f155760405162461bcd60e51b815260206004820152600860248201527f4d69736d61746368000000000000000000000000000000000000000000000000604482015260640161032e565b5f5b8481101561102a57838382818110610f3157610f31612c6b565b9050602002016020810190610f4691906128de565b60085f888885818110610f5b57610f5b612c6b565b9050602002016020810190610f709190612976565b6001600160a01b0316815260208101919091526040015f20805460ff1916911515919091179055858582818110610fa957610fa9612c6b565b9050602002016020810190610fbe9190612976565b6001600160a01b03167f995d2434d36c9bceaab42c56efe51e8ffe41fd11cabefd9e2cb83700d8b2035e858584818110610ffa57610ffa612c6b565b905060200201602081019061100f91906128de565b604051901515815260200160405180910390a2600101610f17565b505050505050565b60095460609083106110865760405162461bcd60e51b815260206004820152600960248201527f7374617274206f75740000000000000000000000000000000000000000000000604482015260640161032e565b60095482906110958286612c93565b11156110ac576009546110a9908590612ca6565b90505b8067ffffffffffffffff8111156110c5576110c5612c57565b6040519080825280602002602001820160405280156110ee578160200160208202803683370190505b5091505f5b818110156111645760096111078287612c93565b8154811061111757611117612c6b565b905f5260205f20015f9054906101000a90046001600160a01b031683828151811061114457611144612c6b565b6001600160a01b03909216602092830291909101909101526001016110f3565b505092915050565b7fa49807205ce4d355092ef5a8a18f56e8913cf4a201fbe287825b095693c2177561119681612218565b6001600160a01b0383165f81815260086020908152604091829020805460ff191686151590811790915591519182527f995d2434d36c9bceaab42c56efe51e8ffe41fd11cabefd9e2cb83700d8b2035e910160405180910390a2505050565b6001600160a01b0381165f908152600760205260408120805460609190839067ffffffffffffffff81111561122c5761122c612c57565b604051908082528060200260200182016040528015611255578160200160208202803683370190505b5092505f5b8254811015611335575f83828154811061127657611276612c6b565b5f9182526020822060036004909202019081015490925060ff161580156112ea575062ed4e0082600101546112ab9190612c93565b421015806112c257506003820154610100900460ff165b806112ea575060025462010000900460ff1680156112ea5750600382015462010000900460ff165b9050801561132b5781546112fe9088612c93565b965082868561130c81612cb9565b96508151811061131e5761131e612c6b565b6020026020010181815250505b505060010161125a565b508083525050915091565b611348612222565b60025460ff161561138a5760405162461bcd60e51b815260206004820152600c60248201526b15985d5b1d081c185d5cd95960a21b604482015260640161032e565b6113c58282808060200260200160405190810160405280939291908181526020018383602002808284375f9201919091525061224c92505050565b610d6460018055565b7fc806897caf4fd5068191157e44d3988e43139a37e0b97b6793e1ed11841406046113f881612218565b60025460ff161561143a5760405162461bcd60e51b815260206004820152600c60248201526b15985d5b1d081c185d5cd95960a21b604482015260640161032e565b5f5b828110156115d0575f84848381811061145757611457612c6b565b6001600160a01b0389165f908152600760209081526040909120549102929092013592505081106114ca5760405162461bcd60e51b815260206004820152601660248201527f4465706f73697420646f6573206e6f7420657869737400000000000000000000604482015260640161032e565b6001600160a01b0386165f9081526007602052604081208054839081106114f3576114f3612c6b565b5f9182526020909120600490910201600381015490915060ff1615801561152457506003810154610100900460ff16155b6115705760405162461bcd60e51b815260206004820152601a60248201527f416c726561647920756e6c6f636b65642f77697468647261776e000000000000604482015260640161032e565b60038101805461ff0019166101001790556040516001600160a01b038816907fecb0219aa7bd617fe37e2c2bc56a11008c6133daf87510272c2b14b171f2d01a906115be9085815260200190565b60405180910390a2505060010161143c565b5050505050565b7fa49807205ce4d355092ef5a8a18f56e8913cf4a201fbe287825b095693c2177561160181612218565b611609612222565b6001600160a01b03831661164e5760405162461bcd60e51b815260206004820152600c60248201526b496e76616c69642027746f2760a01b604482015260640161032e565b6006548211156116a05760405162461bcd60e51b815260206004820152601160248201527f496e73756666696369656e74207574696c000000000000000000000000000000604482015260640161032e565b8160065f8282546116b19190612ca6565b90915550506040515f906001600160a01b0385169084908381818185875af1925050503d805f81146116fe576040519150601f19603f3d011682016040523d82523d5f602084013e611703565b606091505b505090508061174a5760405162461bcd60e51b8152602060048201526013602482015272115512081d1c985b9cd9995c8819985a5b1959606a1b604482015260640161032e565b836001600160a01b0316336001600160a01b03167fa42a4a1652be46e2b44488aec0a260d6f641d4e01decddf6f2b2217922aec3a685426040516117cd92919091825260208201526060604082018190526007908201527f7574696c69747900000000000000000000000000000000000000000000000000608082015260a00190565b60405180910390a350610d9b60018055565b7fc806897caf4fd5068191157e44d3988e43139a37e0b97b6793e1ed118414060461180981612218565b60025460ff161561184b5760405162461bcd60e51b815260206004820152600c60248201526b15985d5b1d081c185d5cd95960a21b604482015260640161032e565b83821461189a5760405162461bcd60e51b815260206004820152600e60248201527f4172726179206d69736d61746368000000000000000000000000000000000000604482015260640161032e565b5f5b848110156118fa576118f28686838181106118b9576118b9612c6b565b90506020020160208101906118ce9190612976565b8585848181106118e0576118e0612c6b565b90506020028101906107449190612cd1565b60010161189c565b50336001600160a01b03167fa1c93e37b8e644d8be9fc3e1b8b3a0cea82d2818f8214d4bfbfce5a49581705b8686868660405161193a9493929190612d60565b60405180910390a25050505050565b60098181548110611958575f80fd5b5f918252602090912001546001600160a01b0316905081565b6001600160a01b0381165f90815260076020526040902080546060918291829182918291908067ffffffffffffffff8111156119af576119af612c57565b6040519080825280602002602001820160405280156119d8578160200160208202803683370190505b5096508067ffffffffffffffff8111156119f4576119f4612c57565b604051908082528060200260200182016040528015611a1d578160200160208202803683370190505b5095508067ffffffffffffffff811115611a3957611a39612c57565b604051908082528060200260200182016040528015611a62578160200160208202803683370190505b5094508067ffffffffffffffff811115611a7e57611a7e612c57565b604051908082528060200260200182016040528015611aa7578160200160208202803683370190505b5093508067ffffffffffffffff811115611ac357611ac3612c57565b604051908082528060200260200182016040528015611aec578160200160208202803683370190505b5092505f5b81811015611c02575f838281548110611b0c57611b0c612c6b565b905f5260205f2090600402019050805f0154898381518110611b3057611b30612c6b565b6020026020010181815250508060010154888381518110611b5357611b53612c6b565b60209081029190910101526003810154875160ff90911690889084908110611b7d57611b7d612c6b565b6020026020010190151590811515815250508060030160019054906101000a900460ff16868381518110611bb357611bb3612c6b565b6020026020010190151590811515815250508060030160029054906101000a900460ff16858381518110611be957611be9612c6b565b9115156020928302919091019091015250600101611af1565b50505091939590929450565b5f82815260208190526040902060010154611c2881612218565b610b5f8383612703565b7fa49807205ce4d355092ef5a8a18f56e8913cf4a201fbe287825b095693c21775611c5c81612218565b60025460ff1615611c9e5760405162461bcd60e51b815260206004820152600c60248201526b15985d5b1d081c185d5cd95960a21b604482015260640161032e565b60025462010000900460ff1615611cf75760405162461bcd60e51b815260206004820152600f60248201527f416c726561647920656e61626c65640000000000000000000000000000000000604482015260640161032e565b6302c7ea00611d04612155565b611d0e9190612c93565b42101580611d31575062ed4e00611d23612155565b611d2d9190612c93565b4210155b611d7d5760405162461bcd60e51b815260206004820152600960248201527f546f6f206561726c790000000000000000000000000000000000000000000000604482015260640161032e565b6002805462ff000019166201000017905542600355611d9a612784565b6040514281527f2388ceaed48d21bd0802856df41a22705f9046a67a817a047352aa3bbfe5c5d19060200160405180910390a150565b5f6a0422ca8b0a00a4250000006004541015611e0357600454611dfe906a0422ca8b0a00a425000000612ca6565b905090565b505f90565b5f611e11612222565b60025460ff1615611e535760405162461bcd60e51b815260206004820152600c60248201526b15985d5b1d081c185d5cd95960a21b604482015260640161032e565b600254610100900460ff1615611eca576001600160a01b0382165f9081526008602052604090205460ff16611eca5760405162461bcd60e51b815260206004820152600f60248201527f4e6f742077686974656c69737465640000000000000000000000000000000000604482015260640161032e565b5f3411611f075760405162461bcd60e51b815260206004820152600b60248201526a139bc8115512081cd95b9d60aa1b604482015260640161032e565b6a0422ca8b0a00a42500000034600454611f219190612c93565b1115611f6f5760405162461bcd60e51b815260206004820152600b60248201527f4361702072656163686564000000000000000000000000000000000000000000604482015260640161032e565b506001600160a01b0381165f908152600760209081526040808320815160c0810183523480825242828601908152938201818152606083018781526080840188815260a08501898152865460018181018955978b52988a2095516004998a02909601958655965195850195909555905160028401555160039092018054935194511515620100000262ff0000199515156101000261ff00199415159490941661ffff1990951694909417929092179390931691909117905581549092839291612039908490612c93565b925050819055508060055f8282546120519190612c93565b90915550506001600160a01b0382165f908152600760205260409020546001036120d857600980546001810182555f919091527f6e1540171b6c0c960b71a7020d9f60077f6af931a8bbf590da0223dacf75c7af0180547fffffffffffffffffffffffff0000000000000000000000000000000000000000166001600160a01b0384161790555b6001600160a01b0382165f818152600760205260409020547f063a06ec64608a50e5667df73dd241e8d3594fc77298deba02f4d78b858cc52e9034908490429061212490600190612ca6565b60408051948552602085019390935291830152606082015260800160405180910390a261215060018055565b919050565b5f195f5b600954811015612209575f60075f6009848154811061217a5761217a612c6b565b5f9182526020808320909101546001600160a01b03168352820192909252604001812091505b81548110156121ff57838282815481106121bc576121bc612c6b565b905f5260205f2090600402016001015410156121f7578181815481106121e4576121e4612c6b565b905f5260205f2090600402016001015493505b6001016121a0565b5050600101612159565b505f1981036122155750425b90565b610b38813361284f565b60026001540361224557604051633ee5aeb560e01b815260040160405180910390fd5b6002600155565b5f805f5b8351811015612526575f84828151811061226c5761226c612c6b565b602090810291909101810151335f908152600790925260409091205490915081106122d95760405162461bcd60e51b815260206004820152601660248201527f4465706f73697420646f6573206e6f7420657869737400000000000000000000604482015260640161032e565b335f9081526007602052604081208054839081106122f9576122f9612c6b565b5f9182526020909120600490910201600381015490915060ff16156123605760405162461bcd60e51b815260206004820152601160248201527f416c72656164792077697468647261776e000000000000000000000000000000604482015260640161032e565b5f62ed4e0082600101546123749190612c93565b4210158061238b57506003820154610100900460ff165b806123b3575060025462010000900460ff1680156123b35750600382015462010000900460ff165b9050806124025760405162461bcd60e51b815260206004820152600e60248201527f4465706f736974206c6f636b6564000000000000000000000000000000000000604482015260640161032e565b81546006545f901580159061241a57505f8460020154115b801561242757505f600554115b156124645760055484600201546006546124419190612e42565b61244b9190612e59565b90508060065f82825461245e9190612ca6565b90915550505b60038401805460ff19166001179055600480548391905f90612487908490612ca6565b90915550506002840154600580545f906124a2908490612ca6565b909155506124b290508289612c93565b97506124be8188612c93565b6002850154604080518581526020810185905280820192909252426060830152608082018890525191985033917fb7ee00edafdb5db3a1b52a5789a6b562eb48268842d113dbfe860b6f86e5f5959181900360a00190a2505060019093019250612250915050565b505f6125328284612c93565b1161257f5760405162461bcd60e51b815260206004820152601360248201527f4e6f7468696e6720746f20776974686472617700000000000000000000000000604482015260640161032e565b5f3361258b8385612c93565b6040515f81818185875af1925050503d805f81146125c4576040519150601f19603f3d011682016040523d82523d5f602084013e6125c9565b606091505b50509050806126105760405162461bcd60e51b8152602060048201526013602482015272115512081d1c985b9cd9995c8819985a5b1959606a1b604482015260640161032e565b336001600160a01b03167edeea64db396f60259ae2fd8bff7020ea68e8e86e8d36d50d37ab00402ad3a58585854260405161264e9493929190612e78565b60405180910390a250505050565b5f828152602081815260408083206001600160a01b038516845290915281205460ff166126fc575f838152602081815260408083206001600160a01b03861684529091529020805460ff191660011790556126b43390565b6001600160a01b0316826001600160a01b0316847f2f8788117e7eff1d82e926ec794901d17c78024a50270940304540a733656f0d60405160405180910390a4506001610986565b505f610986565b5f828152602081815260408083206001600160a01b038516845290915281205460ff16156126fc575f838152602081815260408083206001600160a01b0386168085529252808320805460ff1916905551339286917ff6391f5c32d9c69d2a47ea670b442974b53935d1edc7fd64eb21e047a839171b9190a4506001610986565b5f5b600954811015610b38575f60075f600984815481106127a7576127a7612c6b565b5f9182526020808320909101546001600160a01b03168352820192909252604001812091505b8154811015612845578181815481106127e8576127e8612c6b565b5f91825260209091206003600490920201015460ff1661283d57600182828154811061281657612816612c6b565b905f5260205f20906004020160030160026101000a81548160ff0219169083151502179055505b6001016127cd565b5050600101612786565b5f828152602081815260408083206001600160a01b038516845290915290205460ff16610d645760405163e2517d3f60e01b81526001600160a01b03821660048201526024810183905260440161032e565b5f602082840312156128b1575f80fd5b81356001600160e01b0319811681146128c8575f80fd5b9392505050565b80358015158114612150575f80fd5b5f602082840312156128ee575f80fd5b6128c8826128cf565b80356001600160a01b0381168114612150575f80fd5b5f806040838503121561291e575f80fd5b612927836128f7565b946020939093013593505050565b5f60208284031215612945575f80fd5b5035919050565b5f806040838503121561295d575f80fd5b8235915061296d602084016128f7565b90509250929050565b5f60208284031215612986575f80fd5b6128c8826128f7565b5f8083601f84011261299f575f80fd5b50813567ffffffffffffffff8111156129b6575f80fd5b6020830191508360208260051b85010111156129d0575f80fd5b9250929050565b5f805f80604085870312156129ea575f80fd5b843567ffffffffffffffff80821115612a01575f80fd5b612a0d8883890161298f565b90965094506020870135915080821115612a25575f80fd5b50612a328782880161298f565b95989497509550505050565b5f8060408385031215612a4f575f80fd5b50508035926020909101359150565b602080825282518282018190525f9190848201906040850190845b81811015612a9e5783516001600160a01b031683529284019291840191600101612a79565b50909695505050505050565b5f8060408385031215612abb575f80fd5b612ac4836128f7565b915061296d602084016128cf565b5f815180845260208085019450602084015f5b83811015612b0157815187529582019590820190600101612ae5565b509495945050505050565b828152604060208201525f612b246040830184612ad2565b949350505050565b5f8060208385031215612b3d575f80fd5b823567ffffffffffffffff811115612b53575f80fd5b612b5f8582860161298f565b90969095509350505050565b5f805f60408486031215612b7d575f80fd5b612b86846128f7565b9250602084013567ffffffffffffffff811115612ba1575f80fd5b612bad8682870161298f565b9497909650939450505050565b5f815180845260208085019450602084015f5b83811015612b01578151151587529582019590820190600101612bcd565b60a081525f612bfd60a0830188612ad2565b8281036020840152612c0f8188612ad2565b90508281036040840152612c238187612bba565b90508281036060840152612c378186612bba565b90508281036080840152612c4b8185612bba565b98975050505050505050565b634e487b7160e01b5f52604160045260245ffd5b634e487b7160e01b5f52603260045260245ffd5b634e487b7160e01b5f52601160045260245ffd5b8082018082111561098657610986612c7f565b8181038181111561098657610986612c7f565b5f60018201612cca57612cca612c7f565b5060010190565b5f808335601e19843603018112612ce6575f80fd5b83018035915067ffffffffffffffff821115612d00575f80fd5b6020019150600581901b36038213156129d0575f80fd5b8183525f7f07ffffffffffffffffffffffffffffffffffffffffffffffffffffffffffffff831115612d47575f80fd5b8260051b80836020870137939093016020019392505050565b604080825281018490525f8560608301825b87811015612da0576001600160a01b03612d8b846128f7565b16825260209283019290910190600101612d72565b5060209150838103828501528085825282820190506005838760051b840101885f5b89811015612e3157858303601f190185528135368c9003601e19018112612de7575f80fd5b8b01878101903567ffffffffffffffff811115612e02575f80fd5b80861b3603821315612e12575f80fd5b612e1d858284612d17565b968901969450505090860190600101612dc2565b50909b9a5050505050505050505050565b808202811582820484141761098657610986612c7f565b5f82612e7357634e487b7160e01b5f52601260045260245ffd5b500490565b608081525f612e8a6080830187612ad2565b602083019590955250604081019290925260609091015291905056fea26469706673582212201eded658b3f7665e655b412b9e64e5493f12cbb810c7009585de31fea3945a5264736f6c63430008190033",
      "opcodes": "PUSH1 0x80 PUSH1 0x40 MSTORE CALLVALUE DUP1 ISZERO PUSH2 0xF JUMPI PUSH0 DUP1 REVERT JUMPDEST POP PUSH1 0x40 MLOAD PUSH2 0x321F CODESIZE SUB DUP1 PUSH2 0x321F DUP4 CODECOPY DUP2 ADD PUSH1 0x40 DUP2 SWAP1 MSTORE PUSH2 0x2E SWAP2 PUSH2 0x263 JUMP JUMPDEST PUSH1 0x1 DUP1 SSTORE PUSH0 JUMPDEST DUP2 MLOAD DUP2 LT ISZERO PUSH2 0x184 JUMPI PUSH2 0x68 PUSH0 DUP1 SHL DUP4 DUP4 DUP2 MLOAD DUP2 LT PUSH2 0x55 JUMPI PUSH2 0x55 PUSH2 0x322 JUMP JUMPDEST PUSH1 0x20 MUL PUSH1 0x20 ADD ADD MLOAD PUSH2 0x18B PUSH1 0x20 SHL PUSH1 0x20 SHR JUMP JUMPDEST POP PUSH2 0x9F PUSH32 0xA49807205CE4D355092EF5A8A18F56E8913CF4A201FBE287825B095693C21775 DUP4 DUP4 DUP2 MLOAD DUP2 LT PUSH2 0x55 JUMPI PUSH2 0x55 PUSH2 0x322 JUMP JUMPDEST POP PUSH2 0xD6 PUSH32 0x65D7A28E3265B37A6474929F336521B332C1681B933F6CB9F3376673440D862A DUP4 DUP4 DUP2 MLOAD DUP2 LT PUSH2 0x55 JUMPI PUSH2 0x55 PUSH2 0x322 JUMP JUMPDEST POP PUSH2 0x10D PUSH32 0xC806897CAF4FD5068191157E44D3988E43139A37E0B97B6793E1ED1184140604 DUP4 DUP4 DUP2 MLOAD DUP2 LT PUSH2 0x55 JUMPI PUSH2 0x55 PUSH2 0x322 JUMP JUMPDEST POP PUSH2 0x144 PUSH32 0xF60566C40710959D8D30B6067CE3C53C757BEC78EECB0E46B83C7F8194FFAE37 DUP4 DUP4 DUP2 MLOAD DUP2 LT PUSH2 0x55 JUMPI PUSH2 0x55 PUSH2 0x322 JUMP JUMPDEST POP PUSH2 0x17B PUSH32 0x10DAC8C06A04BEC0B551627DAD28BC00D6516B0CAACD1C7B345FCDB5211334E4 DUP4 DUP4 DUP2 MLOAD DUP2 LT PUSH2 0x55 JUMPI PUSH2 0x55 PUSH2 0x322 JUMP JUMPDEST POP PUSH1 0x1 ADD PUSH2 0x34 JUMP JUMPDEST POP POP PUSH2 0x336 JUMP JUMPDEST PUSH0 DUP3 DUP2 MSTORE PUSH1 0x20 DUP2 DUP2 MSTORE PUSH1 0x40 DUP1 DUP4 KECCAK256 PUSH1 0x1 PUSH1 0x1 PUSH1 0xA0 SHL SUB DUP6 AND DUP5 MSTORE SWAP1 SWAP2 MSTORE DUP2 KECCAK256 SLOAD PUSH1 0xFF AND PUSH2 0x22B JUMPI PUSH0 DUP4 DUP2 MSTORE PUSH1 0x20 DUP2 DUP2 MSTORE PUSH1 0x40 DUP1 DUP4 KECCAK256 PUSH1 0x1 PUSH1 0x1 PUSH1 0xA0 SHL SUB DUP7 AND DUP5 MSTORE SWAP1 SWAP2 MSTORE SWAP1 KECCAK256 DUP1 SLOAD PUSH1 0xFF NOT AND PUSH1 0x1 OR SWAP1 SSTORE PUSH2 0x1E3 CALLER SWAP1 JUMP JUMPDEST PUSH1 0x1 PUSH1 0x1 PUSH1 0xA0 SHL SUB AND DUP3 PUSH1 0x1 PUSH1 0x1 PUSH1 0xA0 SHL SUB AND DUP5 PUSH32 0x2F8788117E7EFF1D82E926EC794901D17C78024A50270940304540A733656F0D PUSH1 0x40 MLOAD PUSH1 0x40 MLOAD DUP1 SWAP2 SUB SWAP1 LOG4 POP PUSH1 0x1 PUSH2 0x22E JUMP JUMPDEST POP PUSH0 JUMPDEST SWAP3 SWAP2 POP POP JUMP JUMPDEST PUSH4 0x4E487B71 PUSH1 0xE0 SHL PUSH0 MSTORE PUSH1 0x41 PUSH1 0x4 MSTORE PUSH1 0x24 PUSH0 REVERT JUMPDEST DUP1 MLOAD PUSH1 0x1 PUSH1 0x1 PUSH1 0xA0 SHL SUB DUP2 AND DUP2 EQ PUSH2 0x25E JUMPI PUSH0 DUP1 REVERT JUMPDEST SWAP2 SWAP1 POP JUMP JUMPDEST PUSH0 PUSH1 0x20 DUP1 DUP4 DUP6 SUB SLT ISZERO PUSH2 0x274 JUMPI PUSH0 DUP1 REVERT JUMPDEST DUP3 MLOAD PUSH1 0x1 PUSH1 0x1 PUSH1 0x40 SHL SUB DUP1 DUP3 GT ISZERO PUSH2 0x28A JUMPI PUSH0 DUP1 REVERT JUMPDEST DUP2 DUP6 ADD SWAP2 POP DUP6 PUSH1 0x1F DUP4 ADD SLT PUSH2 0x29D JUMPI PUSH0 DUP1 REVERT JUMPDEST DUP2 MLOAD DUP2 DUP2 GT ISZERO PUSH2 0x2AF JUMPI PUSH2 0x2AF PUSH2 0x234 JUMP JUMPDEST DUP1 PUSH1 0x5 SHL PUSH1 0x40 MLOAD PUSH1 0x1F NOT PUSH1 0x3F DUP4 ADD AND DUP2 ADD DUP2 DUP2 LT DUP6 DUP3 GT OR ISZERO PUSH2 0x2D4 JUMPI PUSH2 0x2D4 PUSH2 0x234 JUMP JUMPDEST PUSH1 0x40 MSTORE SWAP2 DUP3 MSTORE DUP5 DUP3 ADD SWAP3 POP DUP4 DUP2 ADD DUP6 ADD SWAP2 DUP9 DUP4 GT ISZERO PUSH2 0x2F1 JUMPI PUSH0 DUP1 REVERT JUMPDEST SWAP4 DUP6 ADD SWAP4 JUMPDEST DUP3 DUP6 LT ISZERO PUSH2 0x316 JUMPI PUSH2 0x307 DUP6 PUSH2 0x248 JUMP JUMPDEST DUP5 MSTORE SWAP4 DUP6 ADD SWAP4 SWAP3 DUP6 ADD SWAP3 PUSH2 0x2F6 JUMP JUMPDEST SWAP9 SWAP8 POP POP POP POP POP POP POP POP JUMP JUMPDEST PUSH4 0x4E487B71 PUSH1 0xE0 SHL PUSH0 MSTORE PUSH1 0x32 PUSH1 0x4 MSTORE PUSH1 0x24 PUSH0 REVERT JUMPDEST PUSH2 0x2EDC DUP1 PUSH2 0x343 PUSH0 CODECOPY PUSH0 RETURN INVALID PUSH1 0x80 PUSH1 0x40 MSTORE PUSH1 0x4 CALLDATASIZE LT PUSH2 0x2E5 JUMPI PUSH0 CALLDATALOAD PUSH1 0xE0 SHR DUP1 PUSH4 0x5C975ABB GT PUSH2 0x186 JUMPI DUP1 PUSH4 0xA217FDDF GT PUSH2 0xDC JUMPI DUP1 PUSH4 0xE63AB1E9 GT PUSH2 0x87 JUMPI DUP1 PUSH4 0xF340FA01 GT PUSH2 0x62 JUMPI DUP1 PUSH4 0xF340FA01 EQ PUSH2 0x91A JUMPI DUP1 PUSH4 0xFDFBE0C8 EQ PUSH2 0x92D JUMPI DUP1 PUSH4 0xFF50ABDC EQ PUSH2 0x941 JUMPI PUSH0 DUP1 REVERT JUMPDEST DUP1 PUSH4 0xE63AB1E9 EQ PUSH2 0x8BD JUMPI DUP1 PUSH4 0xEBFA7C46 EQ PUSH2 0x8F0 JUMPI DUP1 PUSH4 0xEC16D076 EQ PUSH2 0x904 JUMPI PUSH0 DUP1 REVERT JUMPDEST DUP1 PUSH4 0xD547741F GT PUSH2 0xB7 JUMPI DUP1 PUSH4 0xD547741F EQ PUSH2 0x857 JUMPI DUP1 PUSH4 0xDA8D5ADD EQ PUSH2 0x876 JUMPI DUP1 PUSH4 0xE043B2B2 EQ PUSH2 0x88A JUMPI PUSH0 DUP1 REVERT JUMPDEST DUP1 PUSH4 0xA217FDDF EQ PUSH2 0x7DD JUMPI DUP1 PUSH4 0xA2BDEDF4 EQ PUSH2 0x7F0 JUMPI DUP1 PUSH4 0xB3A7834D EQ PUSH2 0x827 JUMPI PUSH0 DUP1 REVERT JUMPDEST DUP1 PUSH4 0x85F438C1 GT PUSH2 0x13C JUMPI DUP1 PUSH4 0x91D14854 GT PUSH2 0x117 JUMPI DUP1 PUSH4 0x91D14854 EQ PUSH2 0x768 JUMPI DUP1 PUSH4 0x97F6AD87 EQ PUSH2 0x7AA JUMPI DUP1 PUSH4 0x9A038B46 EQ PUSH2 0x7BE JUMPI PUSH0 DUP1 REVERT JUMPDEST DUP1 PUSH4 0x85F438C1 EQ PUSH2 0x6F7 JUMPI DUP1 PUSH4 0x867D099A EQ PUSH2 0x72A JUMPI DUP1 PUSH4 0x8E957748 EQ PUSH2 0x749 JUMPI PUSH0 DUP1 REVERT JUMPDEST DUP1 PUSH4 0x6EB80C1D GT PUSH2 0x16C JUMPI DUP1 PUSH4 0x6EB80C1D EQ PUSH2 0x678 JUMPI DUP1 PUSH4 0x72E55399 EQ PUSH2 0x6A5 JUMPI DUP1 PUSH4 0x75B238FC EQ PUSH2 0x6C4 JUMPI PUSH0 DUP1 REVERT JUMPDEST DUP1 PUSH4 0x5C975ABB EQ PUSH2 0x64A JUMPI DUP1 PUSH4 0x5E0CDE10 EQ PUSH2 0x663 JUMPI PUSH0 DUP1 REVERT JUMPDEST DUP1 PUSH4 0x2F2FF15D GT PUSH2 0x23B JUMPI DUP1 PUSH4 0x462D6C3D GT PUSH2 0x1F1 JUMPI DUP1 PUSH4 0x51FB012D GT PUSH2 0x1CC JUMPI DUP1 PUSH4 0x51FB012D EQ PUSH2 0x5F8 JUMPI DUP1 PUSH4 0x53D6FD59 EQ PUSH2 0x616 JUMPI DUP1 PUSH4 0x588583A0 EQ PUSH2 0x635 JUMPI PUSH0 DUP1 REVERT JUMPDEST DUP1 PUSH4 0x462D6C3D EQ PUSH2 0x5A5 JUMPI DUP1 PUSH4 0x47AF19AA EQ PUSH2 0x5AD JUMPI DUP1 PUSH4 0x4FF113E9 EQ PUSH2 0x5CC JUMPI PUSH0 DUP1 REVERT JUMPDEST DUP1 PUSH4 0x36568ABE GT PUSH2 0x221 JUMPI DUP1 PUSH4 0x36568ABE EQ PUSH2 0x543 JUMPI DUP1 PUSH4 0x3A98EF39 EQ PUSH2 0x562 JUMPI DUP1 PUSH4 0x3AF32ABF EQ PUSH2 0x577 JUMPI PUSH0 DUP1 REVERT JUMPDEST DUP1 PUSH4 0x2F2FF15D EQ PUSH2 0x505 JUMPI DUP1 PUSH4 0x3098924B EQ PUSH2 0x524 JUMPI PUSH0 DUP1 REVERT JUMPDEST DUP1 PUSH4 0x16C38B3C GT PUSH2 0x29B JUMPI DUP1 PUSH4 0x246D47B7 GT PUSH2 0x276 JUMPI DUP1 PUSH4 0x246D47B7 EQ PUSH2 0x499 JUMPI DUP1 PUSH4 0x248A9CA3 EQ PUSH2 0x4B8 JUMPI DUP1 PUSH4 0x2E1A7D4D EQ PUSH2 0x4E6 JUMPI PUSH0 DUP1 REVERT JUMPDEST DUP1 PUSH4 0x16C38B3C EQ PUSH2 0x445 JUMPI DUP1 PUSH4 0x20BC73F4 EQ PUSH2 0x464 JUMPI DUP1 PUSH4 0x23548B8B EQ PUSH2 0x47B JUMPI PUSH0 DUP1 REVERT JUMPDEST DUP1 PUSH4 0x8F43333 GT PUSH2 0x2CB JUMPI DUP1 PUSH4 0x8F43333 EQ PUSH2 0x390 JUMPI DUP1 PUSH4 0x93C87F3 EQ PUSH2 0x3E2 JUMPI DUP1 PUSH4 0xC016AD5 EQ PUSH2 0x404 JUMPI PUSH0 DUP1 REVERT JUMPDEST DUP1 PUSH4 0x1FFC9A7 EQ PUSH2 0x33B JUMPI DUP1 PUSH4 0x52D9E7E EQ PUSH2 0x36F JUMPI PUSH0 DUP1 REVERT JUMPDEST CALLDATASIZE PUSH2 0x337 JUMPI PUSH1 0x40 MLOAD PUSH3 0x461BCD PUSH1 0xE5 SHL DUP2 MSTORE PUSH1 0x20 PUSH1 0x4 DUP3 ADD MSTORE PUSH1 0x12 PUSH1 0x24 DUP3 ADD MSTORE PUSH32 0x557365206465706F7369742F696E6A6563740000000000000000000000000000 PUSH1 0x44 DUP3 ADD MSTORE PUSH1 0x64 ADD JUMPDEST PUSH1 0x40 MLOAD DUP1 SWAP2 SUB SWAP1 REVERT JUMPDEST PUSH0 DUP1 REVERT JUMPDEST CALLVALUE DUP1 ISZERO PUSH2 0x346 JUMPI PUSH0 DUP1 REVERT JUMPDEST POP PUSH2 0x35A PUSH2 0x355 CALLDATASIZE PUSH1 0x4 PUSH2 0x28A1 JUMP JUMPDEST PUSH2 0x956 JUMP JUMPDEST PUSH1 0x40 MLOAD SWAP1 ISZERO ISZERO DUP2 MSTORE PUSH1 0x20 ADD JUMPDEST PUSH1 0x40 MLOAD DUP1 SWAP2 SUB SWAP1 RETURN JUMPDEST CALLVALUE DUP1 ISZERO PUSH2 0x37A JUMPI PUSH0 DUP1 REVERT JUMPDEST POP PUSH2 0x38E PUSH2 0x389 CALLDATASIZE PUSH1 0x4 PUSH2 0x28DE JUMP JUMPDEST PUSH2 0x98C JUMP JUMPDEST STOP JUMPDEST CALLVALUE DUP1 ISZERO PUSH2 0x39B JUMPI PUSH0 DUP1 REVERT JUMPDEST POP PUSH2 0x3AF PUSH2 0x3AA CALLDATASIZE PUSH1 0x4 PUSH2 0x290D JUMP JUMPDEST PUSH2 0x9D1 JUMP JUMPDEST PUSH1 0x40 DUP1 MLOAD SWAP7 DUP8 MSTORE PUSH1 0x20 DUP8 ADD SWAP6 SWAP1 SWAP6 MSTORE SWAP4 DUP6 ADD SWAP3 SWAP1 SWAP3 MSTORE ISZERO ISZERO PUSH1 0x60 DUP5 ADD MSTORE ISZERO ISZERO PUSH1 0x80 DUP4 ADD MSTORE ISZERO ISZERO PUSH1 0xA0 DUP3 ADD MSTORE PUSH1 0xC0 ADD PUSH2 0x366 JUMP JUMPDEST CALLVALUE DUP1 ISZERO PUSH2 0x3ED JUMPI PUSH0 DUP1 REVERT JUMPDEST POP PUSH1 0x4 SLOAD PUSH11 0x422CA8B0A00A425000000 GT ISZERO PUSH2 0x35A JUMP JUMPDEST CALLVALUE DUP1 ISZERO PUSH2 0x40F JUMPI PUSH0 DUP1 REVERT JUMPDEST POP PUSH2 0x437 PUSH32 0xF60566C40710959D8D30B6067CE3C53C757BEC78EECB0E46B83C7F8194FFAE37 DUP2 JUMP JUMPDEST PUSH1 0x40 MLOAD SWAP1 DUP2 MSTORE PUSH1 0x20 ADD PUSH2 0x366 JUMP JUMPDEST CALLVALUE DUP1 ISZERO PUSH2 0x450 JUMPI PUSH0 DUP1 REVERT JUMPDEST POP PUSH2 0x38E PUSH2 0x45F CALLDATASIZE PUSH1 0x4 PUSH2 0x28DE JUMP JUMPDEST PUSH2 0xA29 JUMP JUMPDEST CALLVALUE DUP1 ISZERO PUSH2 0x46F JUMPI PUSH0 DUP1 REVERT JUMPDEST POP PUSH2 0x437 PUSH4 0x2C7EA00 DUP2 JUMP JUMPDEST CALLVALUE DUP1 ISZERO PUSH2 0x486 JUMPI PUSH0 DUP1 REVERT JUMPDEST POP PUSH2 0x437 PUSH11 0x422CA8B0A00A425000000 DUP2 JUMP JUMPDEST CALLVALUE DUP1 ISZERO PUSH2 0x4A4 JUMPI PUSH0 DUP1 REVERT JUMPDEST POP PUSH1 0x2 SLOAD PUSH2 0x35A SWAP1 PUSH3 0x10000 SWAP1 DIV PUSH1 0xFF AND DUP2 JUMP JUMPDEST CALLVALUE DUP1 ISZERO PUSH2 0x4C3 JUMPI PUSH0 DUP1 REVERT JUMPDEST POP PUSH2 0x437 PUSH2 0x4D2 CALLDATASIZE PUSH1 0x4 PUSH2 0x2935 JUMP JUMPDEST PUSH0 SWAP1 DUP2 MSTORE PUSH1 0x20 DUP2 SWAP1 MSTORE PUSH1 0x40 SWAP1 KECCAK256 PUSH1 0x1 ADD SLOAD SWAP1 JUMP JUMPDEST CALLVALUE DUP1 ISZERO PUSH2 0x4F1 JUMPI PUSH0 DUP1 REVERT JUMPDEST POP PUSH2 0x38E PUSH2 0x500 CALLDATASIZE PUSH1 0x4 PUSH2 0x2935 JUMP JUMPDEST PUSH2 0xA9B JUMP JUMPDEST CALLVALUE DUP1 ISZERO PUSH2 0x510 JUMPI PUSH0 DUP1 REVERT JUMPDEST POP PUSH2 0x38E PUSH2 0x51F CALLDATASIZE PUSH1 0x4 PUSH2 0x294C JUMP JUMPDEST PUSH2 0xB3B JUMP JUMPDEST CALLVALUE DUP1 ISZERO PUSH2 0x52F JUMPI PUSH0 DUP1 REVERT JUMPDEST POP PUSH2 0x38E PUSH2 0x53E CALLDATASIZE PUSH1 0x4 PUSH2 0x2976 JUMP JUMPDEST PUSH2 0xB65 JUMP JUMPDEST CALLVALUE DUP1 ISZERO PUSH2 0x54E JUMPI PUSH0 DUP1 REVERT JUMPDEST POP PUSH2 0x38E PUSH2 0x55D CALLDATASIZE PUSH1 0x4 PUSH2 0x294C JUMP JUMPDEST PUSH2 0xD68 JUMP JUMPDEST CALLVALUE DUP1 ISZERO PUSH2 0x56D JUMPI PUSH0 DUP1 REVERT JUMPDEST POP PUSH2 0x437 PUSH1 0x5 SLOAD DUP2 JUMP JUMPDEST CALLVALUE DUP1 ISZERO PUSH2 0x582 JUMPI PUSH0 DUP1 REVERT JUMPDEST POP PUSH2 0x35A PUSH2 0x591 CALLDATASIZE PUSH1 0x4 PUSH2 0x2976 JUMP JUMPDEST PUSH1 0x8 PUSH1 0x20 MSTORE PUSH0 SWAP1 DUP2 MSTORE PUSH1 0x40 SWAP1 KECCAK256 SLOAD PUSH1 0xFF AND DUP2 JUMP JUMPDEST PUSH2 0x38E PUSH2 0xDA0 JUMP JUMPDEST CALLVALUE DUP1 ISZERO PUSH2 0x5B8 JUMPI PUSH0 DUP1 REVERT JUMPDEST POP PUSH2 0x38E PUSH2 0x5C7 CALLDATASIZE PUSH1 0x4 PUSH2 0x29D7 JUMP JUMPDEST PUSH2 0xE9C JUMP JUMPDEST CALLVALUE DUP1 ISZERO PUSH2 0x5D7 JUMPI PUSH0 DUP1 REVERT JUMPDEST POP PUSH2 0x5EB PUSH2 0x5E6 CALLDATASIZE PUSH1 0x4 PUSH2 0x2A3E JUMP JUMPDEST PUSH2 0x1032 JUMP JUMPDEST PUSH1 0x40 MLOAD PUSH2 0x366 SWAP2 SWAP1 PUSH2 0x2A5E JUMP JUMPDEST CALLVALUE DUP1 ISZERO PUSH2 0x603 JUMPI PUSH0 DUP1 REVERT JUMPDEST POP PUSH1 0x2 SLOAD PUSH2 0x35A SWAP1 PUSH2 0x100 SWAP1 DIV PUSH1 0xFF AND DUP2 JUMP JUMPDEST CALLVALUE DUP1 ISZERO PUSH2 0x621 JUMPI PUSH0 DUP1 REVERT JUMPDEST POP PUSH2 0x38E PUSH2 0x630 CALLDATASIZE PUSH1 0x4 PUSH2 0x2AAA JUMP JUMPDEST PUSH2 0x116C JUMP JUMPDEST CALLVALUE DUP1 ISZERO PUSH2 0x640 JUMPI PUSH0 DUP1 REVERT JUMPDEST POP PUSH2 0x437 PUSH1 0x3 SLOAD DUP2 JUMP JUMPDEST CALLVALUE DUP1 ISZERO PUSH2 0x655 JUMPI PUSH0 DUP1 REVERT JUMPDEST POP PUSH1 0x2 SLOAD PUSH2 0x35A SWAP1 PUSH1 0xFF AND DUP2 JUMP JUMPDEST CALLVALUE DUP1 ISZERO PUSH2 0x66E JUMPI PUSH0 DUP1 REVERT JUMPDEST POP PUSH2 0x437 PUSH1 0x6 SLOAD DUP2 JUMP JUMPDEST CALLVALUE DUP1 ISZERO PUSH2 0x683 JUMPI PUSH0 DUP1 REVERT JUMPDEST POP PUSH2 0x697 PUSH2 0x692 CALLDATASIZE PUSH1 0x4 PUSH2 0x2976 JUMP JUMPDEST PUSH2 0x11F5 JUMP JUMPDEST PUSH1 0x40 MLOAD PUSH2 0x366 SWAP3 SWAP2 SWAP1 PUSH2 0x2B0C JUMP JUMPDEST CALLVALUE DUP1 ISZERO PUSH2 0x6B0 JUMPI PUSH0 DUP1 REVERT JUMPDEST POP PUSH2 0x38E PUSH2 0x6BF CALLDATASIZE PUSH1 0x4 PUSH2 0x2B2C JUMP JUMPDEST PUSH2 0x1340 JUMP JUMPDEST CALLVALUE DUP1 ISZERO PUSH2 0x6CF JUMPI PUSH0 DUP1 REVERT JUMPDEST POP PUSH2 0x437 PUSH32 0xA49807205CE4D355092EF5A8A18F56E8913CF4A201FBE287825B095693C21775 DUP2 JUMP JUMPDEST CALLVALUE DUP1 ISZERO PUSH2 0x702 JUMPI PUSH0 DUP1 REVERT JUMPDEST POP PUSH2 0x437 PUSH32 0x10DAC8C06A04BEC0B551627DAD28BC00D6516B0CAACD1C7B345FCDB5211334E4 DUP2 JUMP JUMPDEST CALLVALUE DUP1 ISZERO PUSH2 0x735 JUMPI PUSH0 DUP1 REVERT JUMPDEST POP PUSH2 0x38E PUSH2 0x744 CALLDATASIZE PUSH1 0x4 PUSH2 0x2B6B JUMP JUMPDEST PUSH2 0x13CE JUMP JUMPDEST CALLVALUE DUP1 ISZERO PUSH2 0x754 JUMPI PUSH0 DUP1 REVERT JUMPDEST POP PUSH2 0x38E PUSH2 0x763 CALLDATASIZE PUSH1 0x4 PUSH2 0x290D JUMP JUMPDEST PUSH2 0x15D7 JUMP JUMPDEST CALLVALUE DUP1 ISZERO PUSH2 0x773 JUMPI PUSH0 DUP1 REVERT JUMPDEST POP PUSH2 0x35A PUSH2 0x782 CALLDATASIZE PUSH1 0x4 PUSH2 0x294C JUMP JUMPDEST PUSH0 SWAP2 DUP3 MSTORE PUSH1 0x20 DUP3 DUP2 MSTORE PUSH1 0x40 DUP1 DUP5 KECCAK256 PUSH1 0x1 PUSH1 0x1 PUSH1 0xA0 SHL SUB SWAP4 SWAP1 SWAP4 AND DUP5 MSTORE SWAP2 SWAP1 MSTORE SWAP1 KECCAK256 SLOAD PUSH1 0xFF AND SWAP1 JUMP JUMPDEST CALLVALUE DUP1 ISZERO PUSH2 0x7B5 JUMPI PUSH0 DUP1 REVERT JUMPDEST POP PUSH1 0x6 SLOAD PUSH2 0x437 JUMP JUMPDEST CALLVALUE DUP1 ISZERO PUSH2 0x7C9 JUMPI PUSH0 DUP1 REVERT JUMPDEST POP PUSH2 0x38E PUSH2 0x7D8 CALLDATASIZE PUSH1 0x4 PUSH2 0x29D7 JUMP JUMPDEST PUSH2 0x17DF JUMP JUMPDEST CALLVALUE DUP1 ISZERO PUSH2 0x7E8 JUMPI PUSH0 DUP1 REVERT JUMPDEST POP PUSH2 0x437 PUSH0 DUP2 JUMP JUMPDEST CALLVALUE DUP1 ISZERO PUSH2 0x7FB JUMPI PUSH0 DUP1 REVERT JUMPDEST POP PUSH2 0x80F PUSH2 0x80A CALLDATASIZE PUSH1 0x4 PUSH2 0x2935 JUMP JUMPDEST PUSH2 0x1949 JUMP JUMPDEST PUSH1 0x40 MLOAD PUSH1 0x1 PUSH1 0x1 PUSH1 0xA0 SHL SUB SWAP1 SWAP2 AND DUP2 MSTORE PUSH1 0x20 ADD PUSH2 0x366 JUMP JUMPDEST CALLVALUE DUP1 ISZERO PUSH2 0x832 JUMPI PUSH0 DUP1 REVERT JUMPDEST POP PUSH2 0x846 PUSH2 0x841 CALLDATASIZE PUSH1 0x4 PUSH2 0x2976 JUMP JUMPDEST PUSH2 0x1971 JUMP JUMPDEST PUSH1 0x40 MLOAD PUSH2 0x366 SWAP6 SWAP5 SWAP4 SWAP3 SWAP2 SWAP1 PUSH2 0x2BEB JUMP JUMPDEST CALLVALUE DUP1 ISZERO PUSH2 0x862 JUMPI PUSH0 DUP1 REVERT JUMPDEST POP PUSH2 0x38E PUSH2 0x871 CALLDATASIZE PUSH1 0x4 PUSH2 0x294C JUMP JUMPDEST PUSH2 0x1C0E JUMP JUMPDEST CALLVALUE DUP1 ISZERO PUSH2 0x881 JUMPI PUSH0 DUP1 REVERT JUMPDEST POP PUSH2 0x38E PUSH2 0x1C32 JUMP JUMPDEST CALLVALUE DUP1 ISZERO PUSH2 0x895 JUMPI PUSH0 DUP1 REVERT JUMPDEST POP PUSH2 0x437 PUSH32 0xC806897CAF4FD5068191157E44D3988E43139A37E0B97B6793E1ED1184140604 DUP2 JUMP JUMPDEST CALLVALUE DUP1 ISZERO PUSH2 0x8C8 JUMPI PUSH0 DUP1 REVERT JUMPDEST POP PUSH2 0x437 PUSH32 0x65D7A28E3265B37A6474929F336521B332C1681B933F6CB9F3376673440D862A DUP2 JUMP JUMPDEST CALLVALUE DUP1 ISZERO PUSH2 0x8FB JUMPI PUSH0 DUP1 REVERT JUMPDEST POP PUSH2 0x437 PUSH2 0x1DD0 JUMP JUMPDEST CALLVALUE DUP1 ISZERO PUSH2 0x90F JUMPI PUSH0 DUP1 REVERT JUMPDEST POP PUSH2 0x437 PUSH3 0xED4E00 DUP2 JUMP JUMPDEST PUSH2 0x437 PUSH2 0x928 CALLDATASIZE PUSH1 0x4 PUSH2 0x2976 JUMP JUMPDEST PUSH2 0x1E08 JUMP JUMPDEST CALLVALUE DUP1 ISZERO PUSH2 0x938 JUMPI PUSH0 DUP1 REVERT JUMPDEST POP PUSH2 0x437 PUSH2 0x2155 JUMP JUMPDEST CALLVALUE DUP1 ISZERO PUSH2 0x94C JUMPI PUSH0 DUP1 REVERT JUMPDEST POP PUSH2 0x437 PUSH1 0x4 SLOAD DUP2 JUMP JUMPDEST PUSH0 PUSH1 0x1 PUSH1 0x1 PUSH1 0xE0 SHL SUB NOT DUP3 AND PUSH4 0x7965DB0B PUSH1 0xE0 SHL EQ DUP1 PUSH2 0x986 JUMPI POP PUSH4 0x1FFC9A7 PUSH1 0xE0 SHL PUSH1 0x1 PUSH1 0x1 PUSH1 0xE0 SHL SUB NOT DUP4 AND EQ JUMPDEST SWAP3 SWAP2 POP POP JUMP JUMPDEST PUSH32 0xA49807205CE4D355092EF5A8A18F56E8913CF4A201FBE287825B095693C21775 PUSH2 0x9B6 DUP2 PUSH2 0x2218 JUMP JUMPDEST POP PUSH1 0x2 DUP1 SLOAD SWAP2 ISZERO ISZERO PUSH2 0x100 MUL PUSH2 0xFF00 NOT SWAP1 SWAP3 AND SWAP2 SWAP1 SWAP2 OR SWAP1 SSTORE JUMP JUMPDEST PUSH1 0x7 PUSH1 0x20 MSTORE DUP2 PUSH0 MSTORE PUSH1 0x40 PUSH0 KECCAK256 DUP2 DUP2 SLOAD DUP2 LT PUSH2 0x9EA JUMPI PUSH0 DUP1 REVERT JUMPDEST PUSH0 SWAP2 DUP3 MSTORE PUSH1 0x20 SWAP1 SWAP2 KECCAK256 PUSH1 0x4 SWAP1 SWAP2 MUL ADD DUP1 SLOAD PUSH1 0x1 DUP3 ADD SLOAD PUSH1 0x2 DUP4 ADD SLOAD PUSH1 0x3 SWAP1 SWAP4 ADD SLOAD SWAP2 SWAP5 POP SWAP3 POP PUSH1 0xFF DUP1 DUP3 AND SWAP2 PUSH2 0x100 DUP2 DIV DUP3 AND SWAP2 PUSH3 0x10000 SWAP1 SWAP2 DIV AND DUP7 JUMP JUMPDEST PUSH32 0x65D7A28E3265B37A6474929F336521B332C1681B933F6CB9F3376673440D862A PUSH2 0xA53 DUP2 PUSH2 0x2218 JUMP JUMPDEST PUSH1 0x2 DUP1 SLOAD PUSH1 0xFF NOT AND DUP4 ISZERO ISZERO SWAP1 DUP2 OR SWAP1 SWAP2 SSTORE PUSH1 0x40 MLOAD SWAP1 DUP2 MSTORE PUSH32 0x8FB6C181EE25A520CF3DD6565006EF91229FCFE5A989566C2A3B8C115570CEC5 SWAP1 PUSH1 0x20 ADD PUSH1 0x40 MLOAD DUP1 SWAP2 SUB SWAP1 LOG1 POP POP JUMP JUMPDEST PUSH2 0xAA3 PUSH2 0x2222 JUMP JUMPDEST PUSH1 0x2 SLOAD PUSH1 0xFF AND ISZERO PUSH2 0xAE5 JUMPI PUSH1 0x40 MLOAD PUSH3 0x461BCD PUSH1 0xE5 SHL DUP2 MSTORE PUSH1 0x20 PUSH1 0x4 DUP3 ADD MSTORE PUSH1 0xC PUSH1 0x24 DUP3 ADD MSTORE PUSH12 0x15985D5B1D081C185D5CD959 PUSH1 0xA2 SHL PUSH1 0x44 DUP3 ADD MSTORE PUSH1 0x64 ADD PUSH2 0x32E JUMP JUMPDEST PUSH1 0x40 DUP1 MLOAD PUSH1 0x1 DUP1 DUP3 MSTORE DUP2 DUP4 ADD SWAP1 SWAP3 MSTORE PUSH0 SWAP2 PUSH1 0x20 DUP1 DUP4 ADD SWAP1 DUP1 CALLDATASIZE DUP4 CALLDATACOPY ADD SWAP1 POP POP SWAP1 POP DUP2 DUP2 PUSH0 DUP2 MLOAD DUP2 LT PUSH2 0xB19 JUMPI PUSH2 0xB19 PUSH2 0x2C6B JUMP JUMPDEST PUSH1 0x20 MUL PUSH1 0x20 ADD ADD DUP2 DUP2 MSTORE POP POP PUSH2 0xB2E DUP2 PUSH2 0x224C JUMP JUMPDEST POP PUSH2 0xB38 PUSH1 0x1 DUP1 SSTORE JUMP JUMPDEST POP JUMP JUMPDEST PUSH0 DUP3 DUP2 MSTORE PUSH1 0x20 DUP2 SWAP1 MSTORE PUSH1 0x40 SWAP1 KECCAK256 PUSH1 0x1 ADD SLOAD PUSH2 0xB55 DUP2 PUSH2 0x2218 JUMP JUMPDEST PUSH2 0xB5F DUP4 DUP4 PUSH2 0x265C JUMP JUMPDEST POP POP POP POP JUMP JUMPDEST PUSH32 0xA49807205CE4D355092EF5A8A18F56E8913CF4A201FBE287825B095693C21775 PUSH2 0xB8F DUP2 PUSH2 0x2218 JUMP JUMPDEST PUSH2 0xB97 PUSH2 0x2222 JUMP JUMPDEST PUSH1 0x1 PUSH1 0x1 PUSH1 0xA0 SHL SUB DUP3 AND PUSH2 0xBDC JUMPI PUSH1 0x40 MLOAD PUSH3 0x461BCD PUSH1 0xE5 SHL DUP2 MSTORE PUSH1 0x20 PUSH1 0x4 DUP3 ADD MSTORE PUSH1 0xC PUSH1 0x24 DUP3 ADD MSTORE PUSH12 0x496E76616C69642027746F27 PUSH1 0xA0 SHL PUSH1 0x44 DUP3 ADD MSTORE PUSH1 0x64 ADD PUSH2 0x32E JUMP JUMPDEST PUSH1 0x4 SLOAD ISZERO DUP1 ISZERO PUSH2 0xBEC JUMPI POP PUSH1 0x5 SLOAD ISZERO JUMPDEST PUSH2 0xC38 JUMPI PUSH1 0x40 MLOAD PUSH3 0x461BCD PUSH1 0xE5 SHL DUP2 MSTORE PUSH1 0x20 PUSH1 0x4 DUP3 ADD MSTORE PUSH1 0x10 PUSH1 0x24 DUP3 ADD MSTORE PUSH32 0x4465706F736974732070656E64696E6700000000000000000000000000000000 PUSH1 0x44 DUP3 ADD MSTORE PUSH1 0x64 ADD PUSH2 0x32E JUMP JUMPDEST PUSH1 0x40 MLOAD SELFBALANCE SWAP1 PUSH0 SWAP1 PUSH1 0x1 PUSH1 0x1 PUSH1 0xA0 SHL SUB DUP6 AND SWAP1 DUP4 SWAP1 DUP4 DUP2 DUP2 DUP2 DUP6 DUP8 GAS CALL SWAP3 POP POP POP RETURNDATASIZE DUP1 PUSH0 DUP2 EQ PUSH2 0xC82 JUMPI PUSH1 0x40 MLOAD SWAP2 POP PUSH1 0x1F NOT PUSH1 0x3F RETURNDATASIZE ADD AND DUP3 ADD PUSH1 0x40 MSTORE RETURNDATASIZE DUP3 MSTORE RETURNDATASIZE PUSH0 PUSH1 0x20 DUP5 ADD RETURNDATACOPY PUSH2 0xC87 JUMP JUMPDEST PUSH1 0x60 SWAP2 POP JUMPDEST POP POP SWAP1 POP DUP1 PUSH2 0xCCE JUMPI PUSH1 0x40 MLOAD PUSH3 0x461BCD PUSH1 0xE5 SHL DUP2 MSTORE PUSH1 0x20 PUSH1 0x4 DUP3 ADD MSTORE PUSH1 0x13 PUSH1 0x24 DUP3 ADD MSTORE PUSH19 0x115512081D1C985B9CD9995C8819985A5B1959 PUSH1 0x6A SHL PUSH1 0x44 DUP3 ADD MSTORE PUSH1 0x64 ADD PUSH2 0x32E JUMP JUMPDEST DUP4 PUSH1 0x1 PUSH1 0x1 PUSH1 0xA0 SHL SUB AND CALLER PUSH1 0x1 PUSH1 0x1 PUSH1 0xA0 SHL SUB AND PUSH32 0xA42A4A1652BE46E2B44488AEC0A260D6F641D4E01DECDDF6F2B2217922AEC3A6 DUP5 TIMESTAMP PUSH1 0x40 MLOAD PUSH2 0xD51 SWAP3 SWAP2 SWAP1 SWAP2 DUP3 MSTORE PUSH1 0x20 DUP3 ADD MSTORE PUSH1 0x60 PUSH1 0x40 DUP3 ADD DUP2 SWAP1 MSTORE PUSH1 0x9 SWAP1 DUP3 ADD MSTORE PUSH32 0x656D657267656E63790000000000000000000000000000000000000000000000 PUSH1 0x80 DUP3 ADD MSTORE PUSH1 0xA0 ADD SWAP1 JUMP JUMPDEST PUSH1 0x40 MLOAD DUP1 SWAP2 SUB SWAP1 LOG3 POP POP PUSH2 0xD64 PUSH1 0x1 DUP1 SSTORE JUMP JUMPDEST POP POP JUMP JUMPDEST PUSH1 0x1 PUSH1 0x1 PUSH1 0xA0 SHL SUB DUP2 AND CALLER EQ PUSH2 0xD91 JUMPI PUSH1 0x40 MLOAD PUSH4 0x334BD919 PUSH1 0xE1 SHL DUP2 MSTORE PUSH1 0x4 ADD PUSH1 0x40 MLOAD DUP1 SWAP2 SUB SWAP1 REVERT JUMPDEST PUSH2 0xD9B DUP3 DUP3 PUSH2 0x2703 JUMP JUMPDEST POP POP POP JUMP JUMPDEST PUSH32 0xF60566C40710959D8D30B6067CE3C53C757BEC78EECB0E46B83C7F8194FFAE37 PUSH2 0xDCA DUP2 PUSH2 0x2218 JUMP JUMPDEST PUSH1 0x2 SLOAD PUSH1 0xFF AND ISZERO PUSH2 0xE0C JUMPI PUSH1 0x40 MLOAD PUSH3 0x461BCD PUSH1 0xE5 SHL DUP2 MSTORE PUSH1 0x20 PUSH1 0x4 DUP3 ADD MSTORE PUSH1 0xC PUSH1 0x24 DUP3 ADD MSTORE PUSH12 0x15985D5B1D081C185D5CD959 PUSH1 0xA2 SHL PUSH1 0x44 DUP3 ADD MSTORE PUSH1 0x64 ADD PUSH2 0x32E JUMP JUMPDEST PUSH0 CALLVALUE GT PUSH2 0xE49 JUMPI PUSH1 0x40 MLOAD PUSH3 0x461BCD PUSH1 0xE5 SHL DUP2 MSTORE PUSH1 0x20 PUSH1 0x4 DUP3 ADD MSTORE PUSH1 0xB PUSH1 0x24 DUP3 ADD MSTORE PUSH11 0x139BC8115512081CD95B9D PUSH1 0xAA SHL PUSH1 0x44 DUP3 ADD MSTORE PUSH1 0x64 ADD PUSH2 0x32E JUMP JUMPDEST CALLVALUE PUSH1 0x6 PUSH0 DUP3 DUP3 SLOAD PUSH2 0xE5A SWAP2 SWAP1 PUSH2 0x2C93 JUMP JUMPDEST SWAP1 SWAP2 SSTORE POP POP PUSH1 0x40 DUP1 MLOAD CALLVALUE DUP2 MSTORE TIMESTAMP PUSH1 0x20 DUP3 ADD MSTORE CALLER SWAP2 PUSH32 0xB717FE2B7C9B70BD4F64A85E911A9E4261C90DB87AAB224DA0B8324F846C3D71 SWAP2 ADD PUSH1 0x40 MLOAD DUP1 SWAP2 SUB SWAP1 LOG2 POP JUMP JUMPDEST PUSH32 0xA49807205CE4D355092EF5A8A18F56E8913CF4A201FBE287825B095693C21775 PUSH2 0xEC6 DUP2 PUSH2 0x2218 JUMP JUMPDEST DUP4 DUP3 EQ PUSH2 0xF15 JUMPI PUSH1 0x40 MLOAD PUSH3 0x461BCD PUSH1 0xE5 SHL DUP2 MSTORE PUSH1 0x20 PUSH1 0x4 DUP3 ADD MSTORE PUSH1 0x8 PUSH1 0x24 DUP3 ADD MSTORE PUSH32 0x4D69736D61746368000000000000000000000000000000000000000000000000 PUSH1 0x44 DUP3 ADD MSTORE PUSH1 0x64 ADD PUSH2 0x32E JUMP JUMPDEST PUSH0 JUMPDEST DUP5 DUP2 LT ISZERO PUSH2 0x102A JUMPI DUP4 DUP4 DUP3 DUP2 DUP2 LT PUSH2 0xF31 JUMPI PUSH2 0xF31 PUSH2 0x2C6B JUMP JUMPDEST SWAP1 POP PUSH1 0x20 MUL ADD PUSH1 0x20 DUP2 ADD SWAP1 PUSH2 0xF46 SWAP2 SWAP1 PUSH2 0x28DE JUMP JUMPDEST PUSH1 0x8 PUSH0 DUP9 DUP9 DUP6 DUP2 DUP2 LT PUSH2 0xF5B JUMPI PUSH2 0xF5B PUSH2 0x2C6B JUMP JUMPDEST SWAP1 POP PUSH1 0x20 MUL ADD PUSH1 0x20 DUP2 ADD SWAP1 PUSH2 0xF70 SWAP2 SWAP1 PUSH2 0x2976 JUMP JUMPDEST PUSH1 0x1 PUSH1 0x1 PUSH1 0xA0 SHL SUB AND DUP2 MSTORE PUSH1 0x20 DUP2 ADD SWAP2 SWAP1 SWAP2 MSTORE PUSH1 0x40 ADD PUSH0 KECCAK256 DUP1 SLOAD PUSH1 0xFF NOT AND SWAP2 ISZERO ISZERO SWAP2 SWAP1 SWAP2 OR SWAP1 SSTORE DUP6 DUP6 DUP3 DUP2 DUP2 LT PUSH2 0xFA9 JUMPI PUSH2 0xFA9 PUSH2 0x2C6B JUMP JUMPDEST SWAP1 POP PUSH1 0x20 MUL ADD PUSH1 0x20 DUP2 ADD SWAP1 PUSH2 0xFBE SWAP2 SWAP1 PUSH2 0x2976 JUMP JUMPDEST PUSH1 0x1 PUSH1 0x1 PUSH1 0xA0 SHL SUB AND PUSH32 0x995D2434D36C9BCEAAB42C56EFE51E8FFE41FD11CABEFD9E2CB83700D8B2035E DUP6 DUP6 DUP5 DUP2 DUP2 LT PUSH2 0xFFA JUMPI PUSH2 0xFFA PUSH2 0x2C6B JUMP JUMPDEST SWAP1 POP PUSH1 0x20 MUL ADD PUSH1 0x20 DUP2 ADD SWAP1 PUSH2 0x100F SWAP2 SWAP1 PUSH2 0x28DE JUMP JUMPDEST PUSH1 0x40 MLOAD SWAP1 ISZERO ISZERO DUP2 MSTORE PUSH1 0x20 ADD PUSH1 0x40 MLOAD DUP1 SWAP2 SUB SWAP1 LOG2 PUSH1 0x1 ADD PUSH2 0xF17 JUMP JUMPDEST POP POP POP POP POP POP JUMP JUMPDEST PUSH1 0x9 SLOAD PUSH1 0x60 SWAP1 DUP4 LT PUSH2 0x1086 JUMPI PUSH1 0x40 MLOAD PUSH3 0x461BCD PUSH1 0xE5 SHL DUP2 MSTORE PUSH1 0x20 PUSH1 0x4 DUP3 ADD MSTORE PUSH1 0x9 PUSH1 0x24 DUP3 ADD MSTORE PUSH32 0x7374617274206F75740000000000000000000000000000000000000000000000 PUSH1 0x44 DUP3 ADD MSTORE PUSH1 0x64 ADD PUSH2 0x32E JUMP JUMPDEST PUSH1 0x9 SLOAD DUP3 SWAP1 PUSH2 0x1095 DUP3 DUP7 PUSH2 0x2C93 JUMP JUMPDEST GT ISZERO PUSH2 0x10AC JUMPI PUSH1 0x9 SLOAD PUSH2 0x10A9 SWAP1 DUP6 SWAP1 PUSH2 0x2CA6 JUMP JUMPDEST SWAP1 POP JUMPDEST DUP1 PUSH8 0xFFFFFFFFFFFFFFFF DUP2 GT ISZERO PUSH2 0x10C5 JUMPI PUSH2 0x10C5 PUSH2 0x2C57 JUMP JUMPDEST PUSH1 0x40 MLOAD SWAP1 DUP1 DUP3 MSTORE DUP1 PUSH1 0x20 MUL PUSH1 0x20 ADD DUP3 ADD PUSH1 0x40 MSTORE DUP1 ISZERO PUSH2 0x10EE JUMPI DUP2 PUSH1 0x20 ADD PUSH1 0x20 DUP3 MUL DUP1 CALLDATASIZE DUP4 CALLDATACOPY ADD SWAP1 POP JUMPDEST POP SWAP2 POP PUSH0 JUMPDEST DUP2 DUP2 LT ISZERO PUSH2 0x1164 JUMPI PUSH1 0x9 PUSH2 0x1107 DUP3 DUP8 PUSH2 0x2C93 JUMP JUMPDEST DUP2 SLOAD DUP2 LT PUSH2 0x1117 JUMPI PUSH2 0x1117 PUSH2 0x2C6B JUMP JUMPDEST SWAP1 PUSH0 MSTORE PUSH1 0x20 PUSH0 KECCAK256 ADD PUSH0 SWAP1 SLOAD SWAP1 PUSH2 0x100 EXP SWAP1 DIV PUSH1 0x1 PUSH1 0x1 PUSH1 0xA0 SHL SUB AND DUP4 DUP3 DUP2 MLOAD DUP2 LT PUSH2 0x1144 JUMPI PUSH2 0x1144 PUSH2 0x2C6B JUMP JUMPDEST PUSH1 0x1 PUSH1 0x1 PUSH1 0xA0 SHL SUB SWAP1 SWAP3 AND PUSH1 0x20 SWAP3 DUP4 MUL SWAP2 SWAP1 SWAP2 ADD SWAP1 SWAP2 ADD MSTORE PUSH1 0x1 ADD PUSH2 0x10F3 JUMP JUMPDEST POP POP SWAP3 SWAP2 POP POP JUMP JUMPDEST PUSH32 0xA49807205CE4D355092EF5A8A18F56E8913CF4A201FBE287825B095693C21775 PUSH2 0x1196 DUP2 PUSH2 0x2218 JUMP JUMPDEST PUSH1 0x1 PUSH1 0x1 PUSH1 0xA0 SHL SUB DUP4 AND PUSH0 DUP2 DUP2 MSTORE PUSH1 0x8 PUSH1 0x20 SWAP1 DUP2 MSTORE PUSH1 0x40 SWAP2 DUP3 SWAP1 KECCAK256 DUP1 SLOAD PUSH1 0xFF NOT AND DUP7 ISZERO ISZERO SWAP1 DUP2 OR SWAP1 SWAP2 SSTORE SWAP2 MLOAD SWAP2 DUP3 MSTORE PUSH32 0x995D2434D36C9BCEAAB42C56EFE51E8FFE41FD11CABEFD9E2CB83700D8B2035E SWAP2 ADD PUSH1 0x40 MLOAD DUP1 SWAP2 SUB SWAP1 LOG2 POP POP POP JUMP JUMPDEST PUSH1 0x1 PUSH1 0x1 PUSH1 0xA0 SHL SUB DUP2 AND PUSH0 SWAP1 DUP2 MSTORE PUSH1 0x7 PUSH1 0x20 MSTORE PUSH1 0x40 DUP2 KECCAK256 DUP1 SLOAD PUSH1 0x60 SWAP2 SWAP1 DUP4 SWAP1 PUSH8 0xFFFFFFFFFFFFFFFF DUP2 GT ISZERO PUSH2 0x122C JUMPI PUSH2 0x122C PUSH2 0x2C57 JUMP JUMPDEST PUSH1 0x40 MLOAD SWAP1 DUP1 DUP3 MSTORE DUP1 PUSH1 0x20 MUL PUSH1 0x20 ADD DUP3 ADD PUSH1 0x40 MSTORE DUP1 ISZERO PUSH2 0x1255 JUMPI DUP2 PUSH1 0x20 ADD PUSH1 0x20 DUP3 MUL DUP1 CALLDATASIZE DUP4 CALLDATACOPY ADD SWAP1 POP JUMPDEST POP SWAP3 POP PUSH0 JUMPDEST DUP3 SLOAD DUP2 LT ISZERO PUSH2 0x1335 JUMPI PUSH0 DUP4 DUP3 DUP2 SLOAD DUP2 LT PUSH2 0x1276 JUMPI PUSH2 0x1276 PUSH2 0x2C6B JUMP JUMPDEST PUSH0 SWAP2 DUP3 MSTORE PUSH1 0x20 DUP3 KECCAK256 PUSH1 0x3 PUSH1 0x4 SWAP1 SWAP3 MUL ADD SWAP1 DUP2 ADD SLOAD SWAP1 SWAP3 POP PUSH1 0xFF AND ISZERO DUP1 ISZERO PUSH2 0x12EA JUMPI POP PUSH3 0xED4E00 DUP3 PUSH1 0x1 ADD SLOAD PUSH2 0x12AB SWAP2 SWAP1 PUSH2 0x2C93 JUMP JUMPDEST TIMESTAMP LT ISZERO DUP1 PUSH2 0x12C2 JUMPI POP PUSH1 0x3 DUP3 ADD SLOAD PUSH2 0x100 SWAP1 DIV PUSH1 0xFF AND JUMPDEST DUP1 PUSH2 0x12EA JUMPI POP PUSH1 0x2 SLOAD PUSH3 0x10000 SWAP1 DIV PUSH1 0xFF AND DUP1 ISZERO PUSH2 0x12EA JUMPI POP PUSH1 0x3 DUP3 ADD SLOAD PUSH3 0x10000 SWAP1 DIV PUSH1 0xFF AND JUMPDEST SWAP1 POP DUP1 ISZERO PUSH2 0x132B JUMPI DUP2 SLOAD PUSH2 0x12FE SWAP1 DUP9 PUSH2 0x2C93 JUMP JUMPDEST SWAP7 POP DUP3 DUP7 DUP6 PUSH2 0x130C DUP2 PUSH2 0x2CB9 JUMP JUMPDEST SWAP7 POP DUP2 MLOAD DUP2 LT PUSH2 0x131E JUMPI PUSH2 0x131E PUSH2 0x2C6B JUMP JUMPDEST PUSH1 0x20 MUL PUSH1 0x20 ADD ADD DUP2 DUP2 MSTORE POP POP JUMPDEST POP POP PUSH1 0x1 ADD PUSH2 0x125A JUMP JUMPDEST POP DUP1 DUP4 MSTORE POP POP SWAP2 POP SWAP2 JUMP JUMPDEST PUSH2 0x1348 PUSH2 0x2222 JUMP JUMPDEST PUSH1 0x2 SLOAD PUSH1 0xFF AND ISZERO PUSH2 0x138A JUMPI PUSH1 0x40 MLOAD PUSH3 0x461BCD PUSH1 0xE5 SHL DUP2 MSTORE PUSH1 0x20 PUSH1 0x4 DUP3 ADD MSTORE PUSH1 0xC PUSH1 0x24 DUP3 ADD MSTORE PUSH12 0x15985D5B1D081C185D5CD959 PUSH1 0xA2 SHL PUSH1 0x44 DUP3 ADD MSTORE PUSH1 0x64 ADD PUSH2 0x32E JUMP JUMPDEST PUSH2 0x13C5 DUP3 DUP3 DUP1 DUP1 PUSH1 0x20 MUL PUSH1 0x20 ADD PUSH1 0x40 MLOAD SWAP1 DUP2 ADD PUSH1 0x40 MSTORE DUP1 SWAP4 SWAP3 SWAP2 SWAP1 DUP2 DUP2 MSTORE PUSH1 0x20 ADD DUP4 DUP4 PUSH1 0x20 MUL DUP1 DUP3 DUP5 CALLDATACOPY PUSH0 SWAP3 ADD SWAP2 SWAP1 SWAP2 MSTORE POP PUSH2 0x224C SWAP3 POP POP POP JUMP JUMPDEST PUSH2 0xD64 PUSH1 0x1 DUP1 SSTORE JUMP JUMPDEST PUSH32 0xC806897CAF4FD5068191157E44D3988E43139A37E0B97B6793E1ED1184140604 PUSH2 0x13F8 DUP2 PUSH2 0x2218 JUMP JUMPDEST PUSH1 0x2 SLOAD PUSH1 0xFF AND ISZERO PUSH2 0x143A JUMPI PUSH1 0x40 MLOAD PUSH3 0x461BCD PUSH1 0xE5 SHL DUP2 MSTORE PUSH1 0x20 PUSH1 0x4 DUP3 ADD MSTORE PUSH1 0xC PUSH1 0x24 DUP3 ADD MSTORE PUSH12 0x15985D5B1D081C185D5CD959 PUSH1 0xA2 SHL PUSH1 0x44 DUP3 ADD MSTORE PUSH1 0x64 ADD PUSH2 0x32E JUMP JUMPDEST PUSH0 JUMPDEST DUP3 DUP2 LT ISZERO PUSH2 0x15D0 JUMPI PUSH0 DUP5 DUP5 DUP4 DUP2 DUP2 LT PUSH2 0x1457 JUMPI PUSH2 0x1457 PUSH2 0x2C6B JUMP JUMPDEST PUSH1 0x1 PUSH1 0x1 PUSH1 0xA0 SHL SUB DUP10 AND PUSH0 SWAP1 DUP2 MSTORE PUSH1 0x7 PUSH1 0x20 SWAP1 DUP2 MSTORE PUSH1 0x40 SWAP1 SWAP2 KECCAK256 SLOAD SWAP2 MUL SWAP3 SWAP1 SWAP3 ADD CALLDATALOAD SWAP3 POP POP DUP2 LT PUSH2 0x14CA JUMPI PUSH1 0x40 MLOAD PUSH3 0x461BCD PUSH1 0xE5 SHL DUP2 MSTORE PUSH1 0x20 PUSH1 0x4 DUP3 ADD MSTORE PUSH1 0x16 PUSH1 0x24 DUP3 ADD MSTORE PUSH32 0x4465706F73697420646F6573206E6F7420657869737400000000000000000000 PUSH1 0x44 DUP3 ADD MSTORE PUSH1 0x64 ADD PUSH2 0x32E JUMP JUMPDEST PUSH1 0x1 PUSH1 0x1 PUSH1 0xA0 SHL SUB DUP7 AND PUSH0 SWAP1 DUP2 MSTORE PUSH1 0x7 PUSH1 0x20 MSTORE PUSH1 0x40 DUP2 KECCAK256 DUP1 SLOAD DUP4 SWAP1 DUP2 LT PUSH2 0x14F3 JUMPI PUSH2 0x14F3 PUSH2 0x2C6B JUMP JUMPDEST PUSH0 SWAP2 DUP3 MSTORE PUSH1 0x20 SWAP1 SWAP2 KECCAK256 PUSH1 0x4 SWAP1 SWAP2 MUL ADD PUSH1 0x3 DUP2 ADD SLOAD SWAP1 SWAP2 POP PUSH1 0xFF AND ISZERO DUP1 ISZERO PUSH2 0x1524 JUMPI POP PUSH1 0x3 DUP2 ADD SLOAD PUSH2 0x100 SWAP1 DIV PUSH1 0xFF AND ISZERO JUMPDEST PUSH2 0x1570 JUMPI PUSH1 0x40 MLOAD PUSH3 0x461BCD PUSH1 0xE5 SHL DUP2 MSTORE PUSH1 0x20 PUSH1 0x4 DUP3 ADD MSTORE PUSH1 0x1A PUSH1 0x24 DUP3 ADD MSTORE PUSH32 0x416C726561647920756E6C6F636B65642F77697468647261776E000000000000 PUSH1 0x44 DUP3 ADD MSTORE PUSH1 0x64 ADD PUSH2 0x32E JUMP JUMPDEST PUSH1 0x3 DUP2 ADD DUP1 SLOAD PUSH2 0xFF00 NOT AND PUSH2 0x100 OR SWAP1 SSTORE PUSH1 0x40 MLOAD PUSH1 0x1 PUSH1 0x1 PUSH1 0xA0 SHL SUB DUP9 AND SWAP1 PUSH32 0xECB0219AA7BD617FE37E2C2BC56A11008C6133DAF87510272C2B14B171F2D01A SWAP1 PUSH2 0x15BE SWAP1 DUP6 DUP2 MSTORE PUSH1 0x20 ADD SWAP1 JUMP JUMPDEST PUSH1 0x40 MLOAD DUP1 SWAP2 SUB SWAP1 LOG2 POP POP PUSH1 0x1 ADD PUSH2 0x143C JUMP JUMPDEST POP POP POP POP POP JUMP JUMPDEST PUSH32 0xA49807205CE4D355092EF5A8A18F56E8913CF4A201FBE287825B095693C21775 PUSH2 0x1601 DUP2 PUSH2 0x2218 JUMP JUMPDEST PUSH2 0x1609 PUSH2 0x2222 JUMP JUMPDEST PUSH1 0x1 PUSH1 0x1 PUSH1 0xA0 SHL SUB DUP4 AND PUSH2 0x164E JUMPI PUSH1 0x40 MLOAD PUSH3 0x461BCD PUSH1 0xE5 SHL DUP2 MSTORE PUSH1 0x20 PUSH1 0x4 DUP3 ADD MSTORE PUSH1 0xC PUSH1 0x24 DUP3 ADD MSTORE PUSH12 0x496E76616C69642027746F27 PUSH1 0xA0 SHL PUSH1 0x44 DUP3 ADD MSTORE PUSH1 0x64 ADD PUSH2 0x32E JUMP JUMPDEST PUSH1 0x6 SLOAD DUP3 GT ISZERO PUSH2 0x16A0 JUMPI PUSH1 0x40 MLOAD PUSH3 0x461BCD PUSH1 0xE5 SHL DUP2 MSTORE PUSH1 0x20 PUSH1 0x4 DUP3 ADD MSTORE PUSH1 0x11 PUSH1 0x24 DUP3 ADD MSTORE PUSH32 0x496E73756666696369656E74207574696C000000000000000000000000000000 PUSH1 0x44 DUP3 ADD MSTORE PUSH1 0x64 ADD PUSH2 0x32E JUMP JUMPDEST DUP2 PUSH1 0x6 PUSH0 DUP3 DUP3 SLOAD PUSH2 0x16B1 SWAP2 SWAP1 PUSH2 0x2CA6 JUMP JUMPDEST SWAP1 SWAP2 SSTORE POP POP PUSH1 0x40 MLOAD PUSH0 SWAP1 PUSH1 0x1 PUSH1 0x1 PUSH1 0xA0 SHL SUB DUP6 AND SWAP1 DUP5 SWAP1 DUP4 DUP2 DUP2 DUP2 DUP6 DUP8 GAS CALL SWAP3 POP POP POP RETURNDATASIZE DUP1 PUSH0 DUP2 EQ PUSH2 0x16FE JUMPI PUSH1 0x40 MLOAD SWAP2 POP PUSH1 0x1F NOT PUSH1 0x3F RETURNDATASIZE ADD AND DUP3 ADD PUSH1 0x40 MSTORE RETURNDATASIZE DUP3 MSTORE RETURNDATASIZE PUSH0 PUSH1 0x20 DUP5 ADD RETURNDATACOPY PUSH2 0x1703 JUMP JUMPDEST PUSH1 0x60 SWAP2 POP JUMPDEST POP POP SWAP1 POP DUP1 PUSH2 0x174A JUMPI PUSH1 0x40 MLOAD PUSH3 0x461BCD PUSH1 0xE5 SHL DUP2 MSTORE PUSH1 0x20 PUSH1 0x4 DUP3 ADD MSTORE PUSH1 0x13 PUSH1 0x24 DUP3 ADD MSTORE PUSH19 0x115512081D1C985B9CD9995C8819985A5B1959 PUSH1 0x6A SHL PUSH1 0x44 DUP3 ADD MSTORE PUSH1 0x64 ADD PUSH2 0x32E JUMP JUMPDEST DUP4 PUSH1 0x1 PUSH1 0x1 PUSH1 0xA0 SHL SUB AND CALLER PUSH1 0x1 PUSH1 0x1 PUSH1 0xA0 SHL SUB AND PUSH32 0xA42A4A1652BE46E2B44488AEC0A260D6F641D4E01DECDDF6F2B2217922AEC3A6 DUP6 TIMESTAMP PUSH1 0x40 MLOAD PUSH2 0x17CD SWAP3 SWAP2 SWAP1 SWAP2 DUP3 MSTORE PUSH1 0x20 DUP3 ADD MSTORE PUSH1 0x60 PUSH1 0x40 DUP3 ADD DUP2 SWAP1 MSTORE PUSH1 0x7 SWAP1 DUP3 ADD MSTORE PUSH32 0x7574696C69747900000000000000000000000000000000000000000000000000 PUSH1 0x80 DUP3 ADD MSTORE PUSH1 0xA0 ADD SWAP1 JUMP JUMPDEST PUSH1 0x40 MLOAD DUP1 SWAP2 SUB SWAP1 LOG3 POP PUSH2 0xD9B PUSH1 0x1 DUP1 SSTORE JUMP JUMPDEST PUSH32 0xC806897CAF4FD5068191157E44D3988E43139A37E0B97B6793E1ED1184140604 PUSH2 0x1809 DUP2 PUSH2 0x2218 JUMP JUMPDEST PUSH1 0x2 SLOAD PUSH1 0xFF AND ISZERO PUSH2 0x184B JUMPI PUSH1 0x40 MLOAD PUSH3 0x461BCD PUSH1 0xE5 SHL DUP2 MSTORE PUSH1 0x20 PUSH1 0x4 DUP3 ADD MSTORE PUSH1 0xC PUSH1 0x24 DUP3 ADD MSTORE PUSH12 0x15985D5B1D081C185D5CD959 PUSH1 0xA2 SHL PUSH1 0x44 DUP3 ADD MSTORE PUSH1 0x64 ADD PUSH2 0x32E JUMP JUMPDEST DUP4 DUP3 EQ PUSH2 0x189A JUMPI PUSH1 0x40 MLOAD PUSH3 0x461BCD PUSH1 0xE5 SHL DUP2 MSTORE PUSH1 0x20 PUSH1 0x4 DUP3 ADD MSTORE PUSH1 0xE PUSH1 0x24 DUP3 ADD MSTORE PUSH32 0x4172726179206D69736D61746368000000000000000000000000000000000000 PUSH1 0x44 DUP3 ADD MSTORE PUSH1 0x64 ADD PUSH2 0x32E JUMP JUMPDEST PUSH0 JUMPDEST DUP5 DUP2 LT ISZERO PUSH2 0x18FA JUMPI PUSH2 0x18F2 DUP7 DUP7 DUP4 DUP2 DUP2 LT PUSH2 0x18B9 JUMPI PUSH2 0x18B9 PUSH2 0x2C6B JUMP JUMPDEST SWAP1 POP PUSH1 0x20 MUL ADD PUSH1 0x20 DUP2 ADD SWAP1 PUSH2 0x18CE SWAP2 SWAP1 PUSH2 0x2976 JUMP JUMPDEST DUP6 DUP6 DUP5 DUP2 DUP2 LT PUSH2 0x18E0 JUMPI PUSH2 0x18E0 PUSH2 0x2C6B JUMP JUMPDEST SWAP1 POP PUSH1 0x20 MUL DUP2 ADD SWAP1 PUSH2 0x744 SWAP2 SWAP1 PUSH2 0x2CD1 JUMP JUMPDEST PUSH1 0x1 ADD PUSH2 0x189C JUMP JUMPDEST POP CALLER PUSH1 0x1 PUSH1 0x1 PUSH1 0xA0 SHL SUB AND PUSH32 0xA1C93E37B8E644D8BE9FC3E1B8B3A0CEA82D2818F8214D4BFBFCE5A49581705B DUP7 DUP7 DUP7 DUP7 PUSH1 0x40 MLOAD PUSH2 0x193A SWAP5 SWAP4 SWAP3 SWAP2 SWAP1 PUSH2 0x2D60 JUMP JUMPDEST PUSH1 0x40 MLOAD DUP1 SWAP2 SUB SWAP1 LOG2 POP POP POP POP POP JUMP JUMPDEST PUSH1 0x9 DUP2 DUP2 SLOAD DUP2 LT PUSH2 0x1958 JUMPI PUSH0 DUP1 REVERT JUMPDEST PUSH0 SWAP2 DUP3 MSTORE PUSH1 0x20 SWAP1 SWAP2 KECCAK256 ADD SLOAD PUSH1 0x1 PUSH1 0x1 PUSH1 0xA0 SHL SUB AND SWAP1 POP DUP2 JUMP JUMPDEST PUSH1 0x1 PUSH1 0x1 PUSH1 0xA0 SHL SUB DUP2 AND PUSH0 SWAP1 DUP2 MSTORE PUSH1 0x7 PUSH1 0x20 MSTORE PUSH1 0x40 SWAP1 KECCAK256 DUP1 SLOAD PUSH1 0x60 SWAP2 DUP3 SWAP2 DUP3 SWAP2 DUP3 SWAP2 DUP3 SWAP2 SWAP1 DUP1 PUSH8 0xFFFFFFFFFFFFFFFF DUP2 GT ISZERO PUSH2 0x19AF JUMPI PUSH2 0x19AF PUSH2 0x2C57 JUMP JUMPDEST PUSH1 0x40 MLOAD SWAP1 DUP1 DUP3 MSTORE DUP1 PUSH1 0x20 MUL PUSH1 0x20 ADD DUP3 ADD PUSH1 0x40 MSTORE DUP1 ISZERO PUSH2 0x19D8 JUMPI DUP2 PUSH1 0x20 ADD PUSH1 0x20 DUP3 MUL DUP1 CALLDATASIZE DUP4 CALLDATACOPY ADD SWAP1 POP JUMPDEST POP SWAP7 POP DUP1 PUSH8 0xFFFFFFFFFFFFFFFF DUP2 GT ISZERO PUSH2 0x19F4 JUMPI PUSH2 0x19F4 PUSH2 0x2C57 JUMP JUMPDEST PUSH1 0x40 MLOAD SWAP1 DUP1 DUP3 MSTORE DUP1 PUSH1 0x20 MUL PUSH1 0x20 ADD DUP3 ADD PUSH1 0x40 MSTORE DUP1 ISZERO PUSH2 0x1A1D JUMPI DUP2 PUSH1 0x20 ADD PUSH1 0x20 DUP3 MUL DUP1 CALLDATASIZE DUP4 CALLDATACOPY ADD SWAP1 POP JUMPDEST POP SWAP6 POP DUP1 PUSH8 0xFFFFFFFFFFFFFFFF DUP2 GT ISZERO PUSH2 0x1A39 JUMPI PUSH2 0x1A39 PUSH2 0x2C57 JUMP JUMPDEST PUSH1 0x40 MLOAD SWAP1 DUP1 DUP3 MSTORE DUP1 PUSH1 0x20 MUL PUSH1 0x20 ADD DUP3 ADD PUSH1 0x40 MSTORE DUP1 ISZERO PUSH2 0x1A62 JUMPI DUP2 PUSH1 0x20 ADD PUSH1 0x20 DUP3 MUL DUP1 CALLDATASIZE DUP4 CALLDATACOPY ADD SWAP1 POP JUMPDEST POP SWAP5 POP DUP1 PUSH8 0xFFFFFFFFFFFFFFFF DUP2 GT ISZERO PUSH2 0x1A7E JUMPI PUSH2 0x1A7E PUSH2 0x2C57 JUMP JUMPDEST PUSH1 0x40 MLOAD SWAP1 DUP1 DUP3 MSTORE DUP1 PUSH1 0x20 MUL PUSH1 0x20 ADD DUP3 ADD PUSH1 0x40 MSTORE DUP1 ISZERO PUSH2 0x1AA7 JUMPI DUP2 PUSH1 0x20 ADD PUSH1 0x20 DUP3 MUL DUP1 CALLDATASIZE DUP4 CALLDATACOPY ADD SWAP1 POP JUMPDEST POP SWAP4 POP DUP1 PUSH8 0xFFFFFFFFFFFFFFFF DUP2 GT ISZERO PUSH2 0x1AC3 JUMPI PUSH2 0x1AC3 PUSH2 0x2C57 JUMP JUMPDEST PUSH1 0x40 MLOAD SWAP1 DUP1 DUP3 MSTORE DUP1 PUSH1 0x20 MUL PUSH1 0x20 ADD DUP3 ADD PUSH1 0x40 MSTORE DUP1 ISZERO PUSH2 0x1AEC JUMPI DUP2 PUSH1 0x20 ADD PUSH1 0x20 DUP3 MUL DUP1 CALLDATASIZE DUP4 CALLDATACOPY ADD SWAP1 POP JUMPDEST POP SWAP3 POP PUSH0 JUMPDEST DUP2 DUP2 LT ISZERO PUSH2 0x1C02 JUMPI PUSH0 DUP4 DUP3 DUP2 SLOAD DUP2 LT PUSH2 0x1B0C JUMPI PUSH2 0x1B0C PUSH2 0x2C6B JUMP JUMPDEST SWAP1 PUSH0 MSTORE PUSH1 0x20 PUSH0 KECCAK256 SWAP1 PUSH1 0x4 MUL ADD SWAP1 POP DUP1 PUSH0 ADD SLOAD DUP10 DUP4 DUP2 MLOAD DUP2 LT PUSH2 0x1B30 JUMPI PUSH2 0x1B30 PUSH2 0x2C6B JUMP JUMPDEST PUSH1 0x20 MUL PUSH1 0x20 ADD ADD DUP2 DUP2 MSTORE POP POP DUP1 PUSH1 0x1 ADD SLOAD DUP9 DUP4 DUP2 MLOAD DUP2 LT PUSH2 0x1B53 JUMPI PUSH2 0x1B53 PUSH2 0x2C6B JUMP JUMPDEST PUSH1 0x20 SWAP1 DUP2 MUL SWAP2 SWAP1 SWAP2 ADD ADD MSTORE PUSH1 0x3 DUP2 ADD SLOAD DUP8 MLOAD PUSH1 0xFF SWAP1 SWAP2 AND SWAP1 DUP9 SWAP1 DUP5 SWAP1 DUP2 LT PUSH2 0x1B7D JUMPI PUSH2 0x1B7D PUSH2 0x2C6B JUMP JUMPDEST PUSH1 0x20 MUL PUSH1 0x20 ADD ADD SWAP1 ISZERO ISZERO SWAP1 DUP2 ISZERO ISZERO DUP2 MSTORE POP POP DUP1 PUSH1 0x3 ADD PUSH1 0x1 SWAP1 SLOAD SWAP1 PUSH2 0x100 EXP SWAP1 DIV PUSH1 0xFF AND DUP7 DUP4 DUP2 MLOAD DUP2 LT PUSH2 0x1BB3 JUMPI PUSH2 0x1BB3 PUSH2 0x2C6B JUMP JUMPDEST PUSH1 0x20 MUL PUSH1 0x20 ADD ADD SWAP1 ISZERO ISZERO SWAP1 DUP2 ISZERO ISZERO DUP2 MSTORE POP POP DUP1 PUSH1 0x3 ADD PUSH1 0x2 SWAP1 SLOAD SWAP1 PUSH2 0x100 EXP SWAP1 DIV PUSH1 0xFF AND DUP6 DUP4 DUP2 MLOAD DUP2 LT PUSH2 0x1BE9 JUMPI PUSH2 0x1BE9 PUSH2 0x2C6B JUMP JUMPDEST SWAP2 ISZERO ISZERO PUSH1 0x20 SWAP3 DUP4 MUL SWAP2 SWAP1 SWAP2 ADD SWAP1 SWAP2 ADD MSTORE POP PUSH1 0x1 ADD PUSH2 0x1AF1 JUMP JUMPDEST POP POP POP SWAP2 SWAP4 SWAP6 SWAP1 SWAP3 SWAP5 POP JUMP JUMPDEST PUSH0 DUP3 DUP2 MSTORE PUSH1 0x20 DUP2 SWAP1 MSTORE PUSH1 0x40 SWAP1 KECCAK256 PUSH1 0x1 ADD SLOAD PUSH2 0x1C28 DUP2 PUSH2 0x2218 JUMP JUMPDEST PUSH2 0xB5F DUP4 DUP4 PUSH2 0x2703 JUMP JUMPDEST PUSH32 0xA49807205CE4D355092EF5A8A18F56E8913CF4A201FBE287825B095693C21775 PUSH2 0x1C5C DUP2 PUSH2 0x2218 JUMP JUMPDEST PUSH1 0x2 SLOAD PUSH1 0xFF AND ISZERO PUSH2 0x1C9E JUMPI PUSH1 0x40 MLOAD PUSH3 0x461BCD PUSH1 0xE5 SHL DUP2 MSTORE PUSH1 0x20 PUSH1 0x4 DUP3 ADD MSTORE PUSH1 0xC PUSH1 0x24 DUP3 ADD MSTORE PUSH12 0x15985D5B1D081C185D5CD959 PUSH1 0xA2 SHL PUSH1 0x44 DUP3 ADD MSTORE PUSH1 0x64 ADD PUSH2 0x32E JUMP JUMPDEST PUSH1 0x2 SLOAD PUSH3 0x10000 SWAP1 DIV PUSH1 0xFF AND ISZERO PUSH2 0x1CF7 JUMPI PUSH1 0x40 MLOAD PUSH3 0x461BCD PUSH1 0xE5 SHL DUP2 MSTORE PUSH1 0x20 PUSH1 0x4 DUP3 ADD MSTORE PUSH1 0xF PUSH1 0x24 DUP3 ADD MSTORE PUSH32 0x416C726561647920656E61626C65640000000000000000000000000000000000 PUSH1 0x44 DUP3 ADD MSTORE PUSH1 0x64 ADD PUSH2 0x32E JUMP JUMPDEST PUSH4 0x2C7EA00 PUSH2 0x1D04 PUSH2 0x2155 JUMP JUMPDEST PUSH2 0x1D0E SWAP2 SWAP1 PUSH2 0x2C93 JUMP JUMPDEST TIMESTAMP LT ISZERO DUP1 PUSH2 0x1D31 JUMPI POP PUSH3 0xED4E00 PUSH2 0x1D23 PUSH2 0x2155 JUMP JUMPDEST PUSH2 0x1D2D SWAP2 SWAP1 PUSH2 0x2C93 JUMP JUMPDEST TIMESTAMP LT ISZERO JUMPDEST PUSH2 0x1D7D JUMPI PUSH1 0x40 MLOAD PUSH3 0x461BCD PUSH1 0xE5 SHL DUP2 MSTORE PUSH1 0x20 PUSH1 0x4 DUP3 ADD MSTORE PUSH1 0x9 PUSH1 0x24 DUP3 ADD MSTORE PUSH32 0x546F6F206561726C790000000000000000000000000000000000000000000000 PUSH1 0x44 DUP3 ADD MSTORE PUSH1 0x64 ADD PUSH2 0x32E JUMP JUMPDEST PUSH1 0x2 DUP1 SLOAD PUSH3 0xFF0000 NOT AND PUSH3 0x10000 OR SWAP1 SSTORE TIMESTAMP PUSH1 0x3 SSTORE PUSH2 0x1D9A PUSH2 0x2784 JUMP JUMPDEST PUSH1 0x40 MLOAD TIMESTAMP DUP2 MSTORE PUSH32 0x2388CEAED48D21BD0802856DF41A22705F9046A67A817A047352AA3BBFE5C5D1 SWAP1 PUSH1 0x20 ADD PUSH1 0x40 MLOAD DUP1 SWAP2 SUB SWAP1 LOG1 POP JUMP JUMPDEST PUSH0 PUSH11 0x422CA8B0A00A425000000 PUSH1 0x4 SLOAD LT ISZERO PUSH2 0x1E03 JUMPI PUSH1 0x4 SLOAD PUSH2 0x1DFE SWAP1 PUSH11 0x422CA8B0A00A425000000 PUSH2 0x2CA6 JUMP JUMPDEST SWAP1 POP SWAP1 JUMP JUMPDEST POP PUSH0 SWAP1 JUMP JUMPDEST PUSH0 PUSH2 0x1E11 PUSH2 0x2222 JUMP JUMPDEST PUSH1 0x2 SLOAD PUSH1 0xFF AND ISZERO PUSH2 0x1E53 JUMPI PUSH1 0x40 MLOAD PUSH3 0x461BCD PUSH1 0xE5 SHL DUP2 MSTORE PUSH1 0x20 PUSH1 0x4 DUP3 ADD MSTORE PUSH1 0xC PUSH1 0x24 DUP3 ADD MSTORE PUSH12 0x15985D5B1D081C185D5CD959 PUSH1 0xA2 SHL PUSH1 0x44 DUP3 ADD MSTORE PUSH1 0x64 ADD PUSH2 0x32E JUMP JUMPDEST PUSH1 0x2 SLOAD PUSH2 0x100 SWAP1 DIV PUSH1 0xFF AND ISZERO PUSH2 0x1ECA JUMPI PUSH1 0x1 PUSH1 0x1 PUSH1 0xA0 SHL SUB DUP3 AND PUSH0 SWAP1 DUP2 MSTORE PUSH1 0x8 PUSH1 0x20 MSTORE PUSH1 0x40 SWAP1 KECCAK256 SLOAD PUSH1 0xFF AND PUSH2 0x1ECA JUMPI PUSH1 0x40 MLOAD PUSH3 0x461BCD PUSH1 0xE5 SHL DUP2 MSTORE PUSH1 0x20 PUSH1 0x4 DUP3 ADD MSTORE PUSH1 0xF PUSH1 0x24 DUP3 ADD MSTORE PUSH32 0x4E6F742077686974656C69737465640000000000000000000000000000000000 PUSH1 0x44 DUP3 ADD MSTORE PUSH1 0x64 ADD PUSH2 0x32E JUMP JUMPDEST PUSH0 CALLVALUE GT PUSH2 0x1F07 JUMPI PUSH1 0x40 MLOAD PUSH3 0x461BCD PUSH1 0xE5 SHL DUP2 MSTORE PUSH1 0x20 PUSH1 0x4 DUP3 ADD MSTORE PUSH1 0xB PUSH1 0x24 DUP3 ADD MSTORE PUSH11 0x139BC8115512081CD95B9D PUSH1 0xAA SHL PUSH1 0x44 DUP3 ADD MSTORE PUSH1 0x64 ADD PUSH2 0x32E JUMP JUMPDEST PUSH11 0x422CA8B0A00A425000000 CALLVALUE PUSH1 0x4 SLOAD PUSH2 0x1F21 SWAP2 SWAP1 PUSH2 0x2C93 JUMP JUMPDEST GT ISZERO PUSH2 0x1F6F JUMPI PUSH1 0x40 MLOAD PUSH3 0x461BCD PUSH1 0xE5 SHL DUP2 MSTORE PUSH1 0x20 PUSH1 0x4 DUP3 ADD MSTORE PUSH1 0xB PUSH1 0x24 DUP3 ADD MSTORE PUSH32 0x4361702072656163686564000000000000000000000000000000000000000000 PUSH1 0x44 DUP3 ADD MSTORE PUSH1 0x64 ADD PUSH2 0x32E JUMP JUMPDEST POP PUSH1 0x1 PUSH1 0x1 PUSH1 0xA0 SHL SUB DUP2 AND PUSH0 SWAP1 DUP2 MSTORE PUSH1 0x7 PUSH1 0x20 SWAP1 DUP2 MSTORE PUSH1 0x40 DUP1 DUP4 KECCAK256 DUP2 MLOAD PUSH1 0xC0 DUP2 ADD DUP4 MSTORE CALLVALUE DUP1 DUP3 MSTORE TIMESTAMP DUP3 DUP7 ADD SWAP1 DUP2 MSTORE SWAP4 DUP3 ADD DUP2 DUP2 MSTORE PUSH1 0x60 DUP4 ADD DUP8 DUP2 MSTORE PUSH1 0x80 DUP5 ADD DUP9 DUP2 MSTORE PUSH1 0xA0 DUP6 ADD DUP10 DUP2 MSTORE DUP7 SLOAD PUSH1 0x1 DUP2 DUP2 ADD DUP10 SSTORE SWAP8 DUP12 MSTORE SWAP9 DUP11 KECCAK256 SWAP6 MLOAD PUSH1 0x4 SWAP10 DUP11 MUL SWAP1 SWAP7 ADD SWAP6 DUP7 SSTORE SWAP7 MLOAD SWAP6 DUP6 ADD SWAP6 SWAP1 SWAP6 SSTORE SWAP1 MLOAD PUSH1 0x2 DUP5 ADD SSTORE MLOAD PUSH1 0x3 SWAP1 SWAP3 ADD DUP1 SLOAD SWAP4 MLOAD SWAP5 MLOAD ISZERO ISZERO PUSH3 0x10000 MUL PUSH3 0xFF0000 NOT SWAP6 ISZERO ISZERO PUSH2 0x100 MUL PUSH2 0xFF00 NOT SWAP5 ISZERO ISZERO SWAP5 SWAP1 SWAP5 AND PUSH2 0xFFFF NOT SWAP1 SWAP6 AND SWAP5 SWAP1 SWAP5 OR SWAP3 SWAP1 SWAP3 OR SWAP4 SWAP1 SWAP4 AND SWAP2 SWAP1 SWAP2 OR SWAP1 SSTORE DUP2 SLOAD SWAP1 SWAP3 DUP4 SWAP3 SWAP2 PUSH2 0x2039 SWAP1 DUP5 SWAP1 PUSH2 0x2C93 JUMP JUMPDEST SWAP3 POP POP DUP2 SWAP1 SSTORE POP DUP1 PUSH1 0x5 PUSH0 DUP3 DUP3 SLOAD PUSH2 0x2051 SWAP2 SWAP1 PUSH2 0x2C93 JUMP JUMPDEST SWAP1 SWAP2 SSTORE POP POP PUSH1 0x1 PUSH1 0x1 PUSH1 0xA0 SHL SUB DUP3 AND PUSH0 SWAP1 DUP2 MSTORE PUSH1 0x7 PUSH1 0x20 MSTORE PUSH1 0x40 SWAP1 KECCAK256 SLOAD PUSH1 0x1 SUB PUSH2 0x20D8 JUMPI PUSH1 0x9 DUP1 SLOAD PUSH1 0x1 DUP2 ADD DUP3 SSTORE PUSH0 SWAP2 SWAP1 SWAP2 MSTORE PUSH32 0x6E1540171B6C0C960B71A7020D9F60077F6AF931A8BBF590DA0223DACF75C7AF ADD DUP1 SLOAD PUSH32 0xFFFFFFFFFFFFFFFFFFFFFFFF0000000000000000000000000000000000000000 AND PUSH1 0x1 PUSH1 0x1 PUSH1 0xA0 SHL SUB DUP5 AND OR SWAP1 SSTORE JUMPDEST PUSH1 0x1 PUSH1 0x1 PUSH1 0xA0 SHL SUB DUP3 AND PUSH0 DUP2 DUP2 MSTORE PUSH1 0x7 PUSH1 0x20 MSTORE PUSH1 0x40 SWAP1 KECCAK256 SLOAD PUSH32 0x63A06EC64608A50E5667DF73DD241E8D3594FC77298DEBA02F4D78B858CC52E SWAP1 CALLVALUE SWAP1 DUP5 SWAP1 TIMESTAMP SWAP1 PUSH2 0x2124 SWAP1 PUSH1 0x1 SWAP1 PUSH2 0x2CA6 JUMP JUMPDEST PUSH1 0x40 DUP1 MLOAD SWAP5 DUP6 MSTORE PUSH1 0x20 DUP6 ADD SWAP4 SWAP1 SWAP4 MSTORE SWAP2 DUP4 ADD MSTORE PUSH1 0x60 DUP3 ADD MSTORE PUSH1 0x80 ADD PUSH1 0x40 MLOAD DUP1 SWAP2 SUB SWAP1 LOG2 PUSH2 0x2150 PUSH1 0x1 DUP1 SSTORE JUMP JUMPDEST SWAP2 SWAP1 POP JUMP JUMPDEST PUSH0 NOT PUSH0 JUMPDEST PUSH1 0x9 SLOAD DUP2 LT ISZERO PUSH2 0x2209 JUMPI PUSH0 PUSH1 0x7 PUSH0 PUSH1 0x9 DUP5 DUP2 SLOAD DUP2 LT PUSH2 0x217A JUMPI PUSH2 0x217A PUSH2 0x2C6B JUMP JUMPDEST PUSH0 SWAP2 DUP3 MSTORE PUSH1 0x20 DUP1 DUP4 KECCAK256 SWAP1 SWAP2 ADD SLOAD PUSH1 0x1 PUSH1 0x1 PUSH1 0xA0 SHL SUB AND DUP4 MSTORE DUP3 ADD SWAP3 SWAP1 SWAP3 MSTORE PUSH1 0x40 ADD DUP2 KECCAK256 SWAP2 POP JUMPDEST DUP2 SLOAD DUP2 LT ISZERO PUSH2 0x21FF JUMPI DUP4 DUP3 DUP3 DUP2 SLOAD DUP2 LT PUSH2 0x21BC JUMPI PUSH2 0x21BC PUSH2 0x2C6B JUMP JUMPDEST SWAP1 PUSH0 MSTORE PUSH1 0x20 PUSH0 KECCAK256 SWAP1 PUSH1 0x4 MUL ADD PUSH1 0x1 ADD SLOAD LT ISZERO PUSH2 0x21F7 JUMPI DUP2 DUP2 DUP2 SLOAD DUP2 LT PUSH2 0x21E4 JUMPI PUSH2 0x21E4 PUSH2 0x2C6B JUMP JUMPDEST SWAP1 PUSH0 MSTORE PUSH1 0x20 PUSH0 KECCAK256 SWAP1 PUSH1 0x4 MUL ADD PUSH1 0x1 ADD SLOAD SWAP4 POP JUMPDEST PUSH1 0x1 ADD PUSH2 0x21A0 JUMP JUMPDEST POP POP PUSH1 0x1 ADD PUSH2 0x2159 JUMP JUMPDEST POP PUSH0 NOT DUP2 SUB PUSH2 0x2215 JUMPI POP TIMESTAMP JUMPDEST SWAP1 JUMP JUMPDEST PUSH2 0xB38 DUP2 CALLER PUSH2 0x284F JUMP JUMPDEST PUSH1 0x2 PUSH1 0x1 SLOAD SUB PUSH2 0x2245 JUMPI PUSH1 0x40 MLOAD PUSH4 0x3EE5AEB5 PUSH1 0xE0 SHL DUP2 MSTORE PUSH1 0x4 ADD PUSH1 0x40 MLOAD DUP1 SWAP2 SUB SWAP1 REVERT JUMPDEST PUSH1 0x2 PUSH1 0x1 SSTORE JUMP JUMPDEST PUSH0 DUP1 PUSH0 JUMPDEST DUP4 MLOAD DUP2 LT ISZERO PUSH2 0x2526 JUMPI PUSH0 DUP5 DUP3 DUP2 MLOAD DUP2 LT PUSH2 0x226C JUMPI PUSH2 0x226C PUSH2 0x2C6B JUMP JUMPDEST PUSH1 0x20 SWAP1 DUP2 MUL SWAP2 SWAP1 SWAP2 ADD DUP2 ADD MLOAD CALLER PUSH0 SWAP1 DUP2 MSTORE PUSH1 0x7 SWAP1 SWAP3 MSTORE PUSH1 0x40 SWAP1 SWAP2 KECCAK256 SLOAD SWAP1 SWAP2 POP DUP2 LT PUSH2 0x22D9 JUMPI PUSH1 0x40 MLOAD PUSH3 0x461BCD PUSH1 0xE5 SHL DUP2 MSTORE PUSH1 0x20 PUSH1 0x4 DUP3 ADD MSTORE PUSH1 0x16 PUSH1 0x24 DUP3 ADD MSTORE PUSH32 0x4465706F73697420646F6573206E6F7420657869737400000000000000000000 PUSH1 0x44 DUP3 ADD MSTORE PUSH1 0x64 ADD PUSH2 0x32E JUMP JUMPDEST CALLER PUSH0 SWAP1 DUP2 MSTORE PUSH1 0x7 PUSH1 0x20 MSTORE PUSH1 0x40 DUP2 KECCAK256 DUP1 SLOAD DUP4 SWAP1 DUP2 LT PUSH2 0x22F9 JUMPI PUSH2 0x22F9 PUSH2 0x2C6B JUMP JUMPDEST PUSH0 SWAP2 DUP3 MSTORE PUSH1 0x20 SWAP1 SWAP2 KECCAK256 PUSH1 0x4 SWAP1 SWAP2 MUL ADD PUSH1 0x3 DUP2 ADD SLOAD SWAP1 SWAP2 POP PUSH1 0xFF AND ISZERO PUSH2 0x2360 JUMPI PUSH1 0x40 MLOAD PUSH3 0x461BCD PUSH1 0xE5 SHL DUP2 MSTORE PUSH1 0x20 PUSH1 0x4 DUP3 ADD MSTORE PUSH1 0x11 PUSH1 0x24 DUP3 ADD MSTORE PUSH32 0x416C72656164792077697468647261776E000000000000000000000000000000 PUSH1 0x44 DUP3 ADD MSTORE PUSH1 0x64 ADD PUSH2 0x32E JUMP JUMPDEST PUSH0 PUSH3 0xED4E00 DUP3 PUSH1 0x1 ADD SLOAD PUSH2 0x2374 SWAP2 SWAP1 PUSH2 0x2C93 JUMP JUMPDEST TIMESTAMP LT ISZERO DUP1 PUSH2 0x238B JUMPI POP PUSH1 0x3 DUP3 ADD SLOAD PUSH2 0x100 SWAP1 DIV PUSH1 0xFF AND JUMPDEST DUP1 PUSH2 0x23B3 JUMPI POP PUSH1 0x2 SLOAD PUSH3 0x10000 SWAP1 DIV PUSH1 0xFF AND DUP1 ISZERO PUSH2 0x23B3 JUMPI POP PUSH1 0x3 DUP3 ADD SLOAD PUSH3 0x10000 SWAP1 DIV PUSH1 0xFF AND JUMPDEST SWAP1 POP DUP1 PUSH2 0x2402 JUMPI PUSH1 0x40 MLOAD PUSH3 0x461BCD PUSH1 0xE5 SHL DUP2 MSTORE PUSH1 0x20 PUSH1 0x4 DUP3 ADD MSTORE PUSH1 0xE PUSH1 0x24 DUP3 ADD MSTORE PUSH32 0x4465706F736974206C6F636B6564000000000000000000000000000000000000 PUSH1 0x44 DUP3 ADD MSTORE PUSH1 0x64 ADD PUSH2 0x32E JUMP JUMPDEST DUP2 SLOAD PUSH1 0x6 SLOAD PUSH0 SWAP1 ISZERO DUP1 ISZERO SWAP1 PUSH2 0x241A JUMPI POP PUSH0 DUP5 PUSH1 0x2 ADD SLOAD GT JUMPDEST DUP1 ISZERO PUSH2 0x2427 JUMPI POP PUSH0 PUSH1 0x5 SLOAD GT JUMPDEST ISZERO PUSH2 0x2464 JUMPI PUSH1 0x5 SLOAD DUP5 PUSH1 0x2 ADD SLOAD PUSH1 0x6 SLOAD PUSH2 0x2441 SWAP2 SWAP1 PUSH2 0x2E42 JUMP JUMPDEST PUSH2 0x244B SWAP2 SWAP1 PUSH2 0x2E59 JUMP JUMPDEST SWAP1 POP DUP1 PUSH1 0x6 PUSH0 DUP3 DUP3 SLOAD PUSH2 0x245E SWAP2 SWAP1 PUSH2 0x2CA6 JUMP JUMPDEST SWAP1 SWAP2 SSTORE POP POP JUMPDEST PUSH1 0x3 DUP5 ADD DUP1 SLOAD PUSH1 0xFF NOT AND PUSH1 0x1 OR SWAP1 SSTORE PUSH1 0x4 DUP1 SLOAD DUP4 SWAP2 SWAP1 PUSH0 SWAP1 PUSH2 0x2487 SWAP1 DUP5 SWAP1 PUSH2 0x2CA6 JUMP JUMPDEST SWAP1 SWAP2 SSTORE POP POP PUSH1 0x2 DUP5 ADD SLOAD PUSH1 0x5 DUP1 SLOAD PUSH0 SWAP1 PUSH2 0x24A2 SWAP1 DUP5 SWAP1 PUSH2 0x2CA6 JUMP JUMPDEST SWAP1 SWAP2 SSTORE POP PUSH2 0x24B2 SWAP1 POP DUP3 DUP10 PUSH2 0x2C93 JUMP JUMPDEST SWAP8 POP PUSH2 0x24BE DUP2 DUP9 PUSH2 0x2C93 JUMP JUMPDEST PUSH1 0x2 DUP6 ADD SLOAD PUSH1 0x40 DUP1 MLOAD DUP6 DUP2 MSTORE PUSH1 0x20 DUP2 ADD DUP6 SWAP1 MSTORE DUP1 DUP3 ADD SWAP3 SWAP1 SWAP3 MSTORE TIMESTAMP PUSH1 0x60 DUP4 ADD MSTORE PUSH1 0x80 DUP3 ADD DUP9 SWAP1 MSTORE MLOAD SWAP2 SWAP9 POP CALLER SWAP2 PUSH32 0xB7EE00EDAFDB5DB3A1B52A5789A6B562EB48268842D113DBFE860B6F86E5F595 SWAP2 DUP2 SWAP1 SUB PUSH1 0xA0 ADD SWAP1 LOG2 POP POP PUSH1 0x1 SWAP1 SWAP4 ADD SWAP3 POP PUSH2 0x2250 SWAP2 POP POP JUMP JUMPDEST POP PUSH0 PUSH2 0x2532 DUP3 DUP5 PUSH2 0x2C93 JUMP JUMPDEST GT PUSH2 0x257F JUMPI PUSH1 0x40 MLOAD PUSH3 0x461BCD PUSH1 0xE5 SHL DUP2 MSTORE PUSH1 0x20 PUSH1 0x4 DUP3 ADD MSTORE PUSH1 0x13 PUSH1 0x24 DUP3 ADD MSTORE PUSH32 0x4E6F7468696E6720746F20776974686472617700000000000000000000000000 PUSH1 0x44 DUP3 ADD MSTORE PUSH1 0x64 ADD PUSH2 0x32E JUMP JUMPDEST PUSH0 CALLER PUSH2 0x258B DUP4 DUP6 PUSH2 0x2C93 JUMP JUMPDEST PUSH1 0x40 MLOAD PUSH0 DUP2 DUP2 DUP2 DUP6 DUP8 GAS CALL SWAP3 POP POP POP RETURNDATASIZE DUP1 PUSH0 DUP2 EQ PUSH2 0x25C4 JUMPI PUSH1 0x40 MLOAD SWAP2 POP PUSH1 0x1F NOT PUSH1 0x3F RETURNDATASIZE ADD AND DUP3 ADD PUSH1 0x40 MSTORE RETURNDATASIZE DUP3 MSTORE RETURNDATASIZE PUSH0 PUSH1 0x20 DUP5 ADD RETURNDATACOPY PUSH2 0x25C9 JUMP JUMPDEST PUSH1 0x60 SWAP2 POP JUMPDEST POP POP SWAP1 POP DUP1 PUSH2 0x2610 JUMPI PUSH1 0x40 MLOAD PUSH3 0x461BCD PUSH1 0xE5 SHL DUP2 MSTORE PUSH1 0x20 PUSH1 0x4 DUP3 ADD MSTORE PUSH1 0x13 PUSH1 0x24 DUP3 ADD MSTORE PUSH19 0x115512081D1C985B9CD9995C8819985A5B1959 PUSH1 0x6A SHL PUSH1 0x44 DUP3 ADD MSTORE PUSH1 0x64 ADD PUSH2 0x32E JUMP JUMPDEST CALLER PUSH1 0x1 PUSH1 0x1 PUSH1 0xA0 SHL SUB AND PUSH31 0xDEEA64DB396F60259AE2FD8BFF7020EA68E8E86E8D36D50D37AB00402AD3A5 DUP6 DUP6 DUP6 TIMESTAMP PUSH1 0x40 MLOAD PUSH2 0x264E SWAP5 SWAP4 SWAP3 SWAP2 SWAP1 PUSH2 0x2E78 JUMP JUMPDEST PUSH1 0x40 MLOAD DUP1 SWAP2 SUB SWAP1 LOG2 POP POP POP POP JUMP JUMPDEST PUSH0 DUP3 DUP2 MSTORE PUSH1 0x20 DUP2 DUP2 MSTORE PUSH1 0x40 DUP1 DUP4 KECCAK256 PUSH1 0x1 PUSH1 0x1 PUSH1 0xA0 SHL SUB DUP6 AND DUP5 MSTORE SWAP1 SWAP2 MSTORE DUP2 KECCAK256 SLOAD PUSH1 0xFF AND PUSH2 0x26FC JUMPI PUSH0 DUP4 DUP2 MSTORE PUSH1 0x20 DUP2 DUP2 MSTORE PUSH1 0x40 DUP1 DUP4 KECCAK256 PUSH1 0x1 PUSH1 0x1 PUSH1 0xA0 SHL SUB DUP7 AND DUP5 MSTORE SWAP1 SWAP2 MSTORE SWAP1 KECCAK256 DUP1 SLOAD PUSH1 0xFF NOT AND PUSH1 0x1 OR SWAP1 SSTORE PUSH2 0x26B4 CALLER SWAP1 JUMP JUMPDEST PUSH1 0x1 PUSH1 0x1 PUSH1 0xA0 SHL SUB AND DUP3 PUSH1 0x1 PUSH1 0x1 PUSH1 0xA0 SHL SUB AND DUP5 PUSH32 0x2F8788117E7EFF1D82E926EC794901D17C78024A50270940304540A733656F0D PUSH1 0x40 MLOAD PUSH1 0x40 MLOAD DUP1 SWAP2 SUB SWAP1 LOG4 POP PUSH1 0x1 PUSH2 0x986 JUMP JUMPDEST POP PUSH0 PUSH2 0x986 JUMP JUMPDEST PUSH0 DUP3 DUP2 MSTORE PUSH1 0x20 DUP2 DUP2 MSTORE PUSH1 0x40 DUP1 DUP4 KECCAK256 PUSH1 0x1 PUSH1 0x1 PUSH1 0xA0 SHL SUB DUP6 AND DUP5 MSTORE SWAP1 SWAP2 MSTORE DUP2 KECCAK256 SLOAD PUSH1 0xFF AND ISZERO PUSH2 0x26FC JUMPI PUSH0 DUP4 DUP2 MSTORE PUSH1 0x20 DUP2 DUP2 MSTORE PUSH1 0x40 DUP1 DUP4 KECCAK256 PUSH1 0x1 PUSH1 0x1 PUSH1 0xA0 SHL SUB DUP7 AND DUP1 DUP6 MSTORE SWAP3 MSTORE DUP1 DUP4 KECCAK256 DUP1 SLOAD PUSH1 0xFF NOT AND SWAP1 SSTORE MLOAD CALLER SWAP3 DUP7 SWAP2 PUSH32 0xF6391F5C32D9C69D2A47EA670B442974B53935D1EDC7FD64EB21E047A839171B SWAP2 SWAP1 LOG4 POP PUSH1 0x1 PUSH2 0x986 JUMP JUMPDEST PUSH0 JUMPDEST PUSH1 0x9 SLOAD DUP2 LT ISZERO PUSH2 0xB38 JUMPI PUSH0 PUSH1 0x7 PUSH0 PUSH1 0x9 DUP5 DUP2 SLOAD DUP2 LT PUSH2 0x27A7 JUMPI PUSH2 0x27A7 PUSH2 0x2C6B JUMP JUMPDEST PUSH0 SWAP2 DUP3 MSTORE PUSH1 0x20 DUP1 DUP4 KECCAK256 SWAP1 SWAP2 ADD SLOAD PUSH1 0x1 PUSH1 0x1 PUSH1 0xA0 SHL SUB AND DUP4 MSTORE DUP3 ADD SWAP3 SWAP1 SWAP3 MSTORE PUSH1 0x40 ADD DUP2 KECCAK256 SWAP2 POP JUMPDEST DUP2 SLOAD DUP2 LT ISZERO PUSH2 0x2845 JUMPI DUP2 DUP2 DUP2 SLOAD DUP2 LT PUSH2 0x27E8 JUMPI PUSH2 0x27E8 PUSH2 0x2C6B JUMP JUMPDEST PUSH0 SWAP2 DUP3 MSTORE PUSH1 0x20 SWAP1 SWAP2 KECCAK256 PUSH1 0x3 PUSH1 0x4 SWAP1 SWAP3 MUL ADD ADD SLOAD PUSH1 0xFF AND PUSH2 0x283D JUMPI PUSH1 0x1 DUP3 DUP3 DUP2 SLOAD DUP2 LT PUSH2 0x2816 JUMPI PUSH2 0x2816 PUSH2 0x2C6B JUMP JUMPDEST SWAP1 PUSH0 MSTORE PUSH1 0x20 PUSH0 KECCAK256 SWAP1 PUSH1 0x4 MUL ADD PUSH1 0x3 ADD PUSH1 0x2 PUSH2 0x100 EXP DUP2 SLOAD DUP2 PUSH1 0xFF MUL NOT AND SWAP1 DUP4 ISZERO ISZERO MUL OR SWAP1 SSTORE POP JUMPDEST PUSH1 0x1 ADD PUSH2 0x27CD JUMP JUMPDEST POP POP PUSH1 0x1 ADD PUSH2 0x2786 JUMP JUMPDEST PUSH0 DUP3 DUP2 MSTORE PUSH1 0x20 DUP2 DUP2 MSTORE PUSH1 0x40 DUP1 DUP4 KECCAK256 PUSH1 0x1 PUSH1 0x1 PUSH1 0xA0 SHL SUB DUP6 AND DUP5 MSTORE SWAP1 SWAP2 MSTORE SWAP1 KECCAK256 SLOAD PUSH1 0xFF AND PUSH2 0xD64 JUMPI PUSH1 0x40 MLOAD PUSH4 0xE2517D3F PUSH1 0xE0 SHL DUP2 MSTORE PUSH1 0x1 PUSH1 0x1 PUSH1 0xA0 SHL SUB DUP3 AND PUSH1 0x4 DUP3 ADD MSTORE PUSH1 0x24 DUP2 ADD DUP4 SWAP1 MSTORE PUSH1 0x44 ADD PUSH2 0x32E JUMP JUMPDEST PUSH0 PUSH1 0x20 DUP3 DUP5 SUB SLT ISZERO PUSH2 0x28B1 JUMPI PUSH0 DUP1 REVERT JUMPDEST DUP2 CALLDATALOAD PUSH1 0x1 PUSH1 0x1 PUSH1 0xE0 SHL SUB NOT DUP2 AND DUP2 EQ PUSH2 0x28C8 JUMPI PUSH0 DUP1 REVERT JUMPDEST SWAP4 SWAP3 POP POP POP JUMP JUMPDEST DUP1 CALLDATALOAD DUP1 ISZERO ISZERO DUP2 EQ PUSH2 0x2150 JUMPI PUSH0 DUP1 REVERT JUMPDEST PUSH0 PUSH1 0x20 DUP3 DUP5 SUB SLT ISZERO PUSH2 0x28EE JUMPI PUSH0 DUP1 REVERT JUMPDEST PUSH2 0x28C8 DUP3 PUSH2 0x28CF JUMP JUMPDEST DUP1 CALLDATALOAD PUSH1 0x1 PUSH1 0x1 PUSH1 0xA0 SHL SUB DUP2 AND DUP2 EQ PUSH2 0x2150 JUMPI PUSH0 DUP1 REVERT JUMPDEST PUSH0 DUP1 PUSH1 0x40 DUP4 DUP6 SUB SLT ISZERO PUSH2 0x291E JUMPI PUSH0 DUP1 REVERT JUMPDEST PUSH2 0x2927 DUP4 PUSH2 0x28F7 JUMP JUMPDEST SWAP5 PUSH1 0x20 SWAP4 SWAP1 SWAP4 ADD CALLDATALOAD SWAP4 POP POP POP JUMP JUMPDEST PUSH0 PUSH1 0x20 DUP3 DUP5 SUB SLT ISZERO PUSH2 0x2945 JUMPI PUSH0 DUP1 REVERT JUMPDEST POP CALLDATALOAD SWAP2 SWAP1 POP JUMP JUMPDEST PUSH0 DUP1 PUSH1 0x40 DUP4 DUP6 SUB SLT ISZERO PUSH2 0x295D JUMPI PUSH0 DUP1 REVERT JUMPDEST DUP3 CALLDATALOAD SWAP2 POP PUSH2 0x296D PUSH1 0x20 DUP5 ADD PUSH2 0x28F7 JUMP JUMPDEST SWAP1 POP SWAP3 POP SWAP3 SWAP1 POP JUMP JUMPDEST PUSH0 PUSH1 0x20 DUP3 DUP5 SUB SLT ISZERO PUSH2 0x2986 JUMPI PUSH0 DUP1 REVERT JUMPDEST PUSH2 0x28C8 DUP3 PUSH2 0x28F7 JUMP JUMPDEST PUSH0 DUP1 DUP4 PUSH1 0x1F DUP5 ADD SLT PUSH2 0x299F JUMPI PUSH0 DUP1 REVERT JUMPDEST POP DUP2 CALLDATALOAD PUSH8 0xFFFFFFFFFFFFFFFF DUP2 GT ISZERO PUSH2 0x29B6 JUMPI PUSH0 DUP1 REVERT JUMPDEST PUSH1 0x20 DUP4 ADD SWAP2 POP DUP4 PUSH1 0x20 DUP3 PUSH1 0x5 SHL DUP6 ADD ADD GT ISZERO PUSH2 0x29D0 JUMPI PUSH0 DUP1 REVERT JUMPDEST SWAP3 POP SWAP3 SWAP1 POP JUMP JUMPDEST PUSH0 DUP1 PUSH0 DUP1 PUSH1 0x40 DUP6 DUP8 SUB SLT ISZERO PUSH2 0x29EA JUMPI PUSH0 DUP1 REVERT JUMPDEST DUP5 CALLDATALOAD PUSH8 0xFFFFFFFFFFFFFFFF DUP1 DUP3 GT ISZERO PUSH2 0x2A01 JUMPI PUSH0 DUP1 REVERT JUMPDEST PUSH2 0x2A0D DUP9 DUP4 DUP10 ADD PUSH2 0x298F JUMP JUMPDEST SWAP1 SWAP7 POP SWAP5 POP PUSH1 0x20 DUP8 ADD CALLDATALOAD SWAP2 POP DUP1 DUP3 GT ISZERO PUSH2 0x2A25 JUMPI PUSH0 DUP1 REVERT JUMPDEST POP PUSH2 0x2A32 DUP8 DUP3 DUP9 ADD PUSH2 0x298F JUMP JUMPDEST SWAP6 SWAP9 SWAP5 SWAP8 POP SWAP6 POP POP POP POP JUMP JUMPDEST PUSH0 DUP1 PUSH1 0x40 DUP4 DUP6 SUB SLT ISZERO PUSH2 0x2A4F JUMPI PUSH0 DUP1 REVERT JUMPDEST POP POP DUP1 CALLDATALOAD SWAP3 PUSH1 0x20 SWAP1 SWAP2 ADD CALLDATALOAD SWAP2 POP JUMP JUMPDEST PUSH1 0x20 DUP1 DUP3 MSTORE DUP3 MLOAD DUP3 DUP3 ADD DUP2 SWAP1 MSTORE PUSH0 SWAP2 SWAP1 DUP5 DUP3 ADD SWAP1 PUSH1 0x40 DUP6 ADD SWAP1 DUP5 JUMPDEST DUP2 DUP2 LT ISZERO PUSH2 0x2A9E JUMPI DUP4 MLOAD PUSH1 0x1 PUSH1 0x1 PUSH1 0xA0 SHL SUB AND DUP4 MSTORE SWAP3 DUP5 ADD SWAP3 SWAP2 DUP5 ADD SWAP2 PUSH1 0x1 ADD PUSH2 0x2A79 JUMP JUMPDEST POP SWAP1 SWAP7 SWAP6 POP POP POP POP POP POP JUMP JUMPDEST PUSH0 DUP1 PUSH1 0x40 DUP4 DUP6 SUB SLT ISZERO PUSH2 0x2ABB JUMPI PUSH0 DUP1 REVERT JUMPDEST PUSH2 0x2AC4 DUP4 PUSH2 0x28F7 JUMP JUMPDEST SWAP2 POP PUSH2 0x296D PUSH1 0x20 DUP5 ADD PUSH2 0x28CF JUMP JUMPDEST PUSH0 DUP2 MLOAD DUP1 DUP5 MSTORE PUSH1 0x20 DUP1 DUP6 ADD SWAP5 POP PUSH1 0x20 DUP5 ADD PUSH0 JUMPDEST DUP4 DUP2 LT ISZERO PUSH2 0x2B01 JUMPI DUP2 MLOAD DUP8 MSTORE SWAP6 DUP3 ADD SWAP6 SWAP1 DUP3 ADD SWAP1 PUSH1 0x1 ADD PUSH2 0x2AE5 JUMP JUMPDEST POP SWAP5 SWAP6 SWAP5 POP POP POP POP POP JUMP JUMPDEST DUP3 DUP2 MSTORE PUSH1 0x40 PUSH1 0x20 DUP3 ADD MSTORE PUSH0 PUSH2 0x2B24 PUSH1 0x40 DUP4 ADD DUP5 PUSH2 0x2AD2 JUMP JUMPDEST SWAP5 SWAP4 POP POP POP POP JUMP JUMPDEST PUSH0 DUP1 PUSH1 0x20 DUP4 DUP6 SUB SLT ISZERO PUSH2 0x2B3D JUMPI PUSH0 DUP1 REVERT JUMPDEST DUP3 CALLDATALOAD PUSH8 0xFFFFFFFFFFFFFFFF DUP2 GT ISZERO PUSH2 0x2B53 JUMPI PUSH0 DUP1 REVERT JUMPDEST PUSH2 0x2B5F DUP6 DUP3 DUP7 ADD PUSH2 0x298F JUMP JUMPDEST SWAP1 SWAP7 SWAP1 SWAP6 POP SWAP4 POP POP POP POP JUMP JUMPDEST PUSH0 DUP1 PUSH0 PUSH1 0x40 DUP5 DUP7 SUB SLT ISZERO PUSH2 0x2B7D JUMPI PUSH0 DUP1 REVERT JUMPDEST PUSH2 0x2B86 DUP5 PUSH2 0x28F7 JUMP JUMPDEST SWAP3 POP PUSH1 0x20 DUP5 ADD CALLDATALOAD PUSH8 0xFFFFFFFFFFFFFFFF DUP2 GT ISZERO PUSH2 0x2BA1 JUMPI PUSH0 DUP1 REVERT JUMPDEST PUSH2 0x2BAD DUP7 DUP3 DUP8 ADD PUSH2 0x298F JUMP JUMPDEST SWAP5 SWAP8 SWAP1 SWAP7 POP SWAP4 SWAP5 POP POP POP POP JUMP JUMPDEST PUSH0 DUP2 MLOAD DUP1 DUP5 MSTORE PUSH1 0x20 DUP1 DUP6 ADD SWAP5 POP PUSH1 0x20 DUP5 ADD PUSH0 JUMPDEST DUP4 DUP2 LT ISZERO PUSH2 0x2B01 JUMPI DUP2 MLOAD ISZERO ISZERO DUP8 MSTORE SWAP6 DUP3 ADD SWAP6 SWAP1 DUP3 ADD SWAP1 PUSH1 0x1 ADD PUSH2 0x2BCD JUMP JUMPDEST PUSH1 0xA0 DUP2 MSTORE PUSH0 PUSH2 0x2BFD PUSH1 0xA0 DUP4 ADD DUP9 PUSH2 0x2AD2 JUMP JUMPDEST DUP3 DUP2 SUB PUSH1 0x20 DUP5 ADD MSTORE PUSH2 0x2C0F DUP2 DUP9 PUSH2 0x2AD2 JUMP JUMPDEST SWAP1 POP DUP3 DUP2 SUB PUSH1 0x40 DUP5 ADD MSTORE PUSH2 0x2C23 DUP2 DUP8 PUSH2 0x2BBA JUMP JUMPDEST SWAP1 POP DUP3 DUP2 SUB PUSH1 0x60 DUP5 ADD MSTORE PUSH2 0x2C37 DUP2 DUP7 PUSH2 0x2BBA JUMP JUMPDEST SWAP1 POP DUP3 DUP2 SUB PUSH1 0x80 DUP5 ADD MSTORE PUSH2 0x2C4B DUP2 DUP6 PUSH2 0x2BBA JUMP JUMPDEST SWAP9 SWAP8 POP POP POP POP POP POP POP POP JUMP JUMPDEST PUSH4 0x4E487B71 PUSH1 0xE0 SHL PUSH0 MSTORE PUSH1 0x41 PUSH1 0x4 MSTORE PUSH1 0x24 PUSH0 REVERT JUMPDEST PUSH4 0x4E487B71 PUSH1 0xE0 SHL PUSH0 MSTORE PUSH1 0x32 PUSH1 0x4 MSTORE PUSH1 0x24 PUSH0 REVERT JUMPDEST PUSH4 0x4E487B71 PUSH1 0xE0 SHL PUSH0 MSTORE PUSH1 0x11 PUSH1 0x4 MSTORE PUSH1 0x24 PUSH0 REVERT JUMPDEST DUP1 DUP3 ADD DUP1 DUP3 GT ISZERO PUSH2 0x986 JUMPI PUSH2 0x986 PUSH2 0x2C7F JUMP JUMPDEST DUP2 DUP2 SUB DUP2 DUP2 GT ISZERO PUSH2 0x986 JUMPI PUSH2 0x986 PUSH2 0x2C7F JUMP JUMPDEST PUSH0 PUSH1 0x1 DUP3 ADD PUSH2 0x2CCA JUMPI PUSH2 0x2CCA PUSH2 0x2C7F JUMP JUMPDEST POP PUSH1 0x1 ADD SWAP1 JUMP JUMPDEST PUSH0 DUP1 DUP4 CALLDATALOAD PUSH1 0x1E NOT DUP5 CALLDATASIZE SUB ADD DUP2 SLT PUSH2 0x2CE6 JUMPI PUSH0 DUP1 REVERT JUMPDEST DUP4 ADD DUP1 CALLDATALOAD SWAP2 POP PUSH8 0xFFFFFFFFFFFFFFFF DUP3 GT ISZERO PUSH2 0x2D00 JUMPI PUSH0 DUP1 REVERT JUMPDEST PUSH1 0x20 ADD SWAP2 POP PUSH1 0x5 DUP2 SWAP1 SHL CALLDATASIZE SUB DUP3 SGT ISZERO PUSH2 0x29D0 JUMPI PUSH0 DUP1 REVERT JUMPDEST DUP2 DUP4 MSTORE PUSH0 PUSH32 0x7FFFFFFFFFFFFFFFFFFFFFFFFFFFFFFFFFFFFFFFFFFFFFFFFFFFFFFFFFFFFFF DUP4 GT ISZERO PUSH2 0x2D47 JUMPI PUSH0 DUP1 REVERT JUMPDEST DUP3 PUSH1 0x5 SHL DUP1 DUP4 PUSH1 0x20 DUP8 ADD CALLDATACOPY SWAP4 SWAP1 SWAP4 ADD PUSH1 0x20 ADD SWAP4 SWAP3 POP POP POP JUMP JUMPDEST PUSH1 0x40 DUP1 DUP3 MSTORE DUP2 ADD DUP5 SWAP1 MSTORE PUSH0 DUP6 PUSH1 0x60 DUP4 ADD DUP3 JUMPDEST DUP8 DUP2 LT ISZERO PUSH2 0x2DA0 JUMPI PUSH1 0x1 PUSH1 0x1 PUSH1 0xA0 SHL SUB PUSH2 0x2D8B DUP5 PUSH2 0x28F7 JUMP JUMPDEST AND DUP3 MSTORE PUSH1 0x20 SWAP3 DUP4 ADD SWAP3 SWAP1 SWAP2 ADD SWAP1 PUSH1 0x1 ADD PUSH2 0x2D72 JUMP JUMPDEST POP PUSH1 0x20 SWAP2 POP DUP4 DUP2 SUB DUP3 DUP6 ADD MSTORE DUP1 DUP6 DUP3 MSTORE DUP3 DUP3 ADD SWAP1 POP PUSH1 0x5 DUP4 DUP8 PUSH1 0x5 SHL DUP5 ADD ADD DUP9 PUSH0 JUMPDEST DUP10 DUP2 LT ISZERO PUSH2 0x2E31 JUMPI DUP6 DUP4 SUB PUSH1 0x1F NOT ADD DUP6 MSTORE DUP2 CALLDATALOAD CALLDATASIZE DUP13 SWAP1 SUB PUSH1 0x1E NOT ADD DUP2 SLT PUSH2 0x2DE7 JUMPI PUSH0 DUP1 REVERT JUMPDEST DUP12 ADD DUP8 DUP2 ADD SWAP1 CALLDATALOAD PUSH8 0xFFFFFFFFFFFFFFFF DUP2 GT ISZERO PUSH2 0x2E02 JUMPI PUSH0 DUP1 REVERT JUMPDEST DUP1 DUP7 SHL CALLDATASIZE SUB DUP3 SGT ISZERO PUSH2 0x2E12 JUMPI PUSH0 DUP1 REVERT JUMPDEST PUSH2 0x2E1D DUP6 DUP3 DUP5 PUSH2 0x2D17 JUMP JUMPDEST SWAP7 DUP10 ADD SWAP7 SWAP5 POP POP POP SWAP1 DUP7 ADD SWAP1 PUSH1 0x1 ADD PUSH2 0x2DC2 JUMP JUMPDEST POP SWAP1 SWAP12 SWAP11 POP POP POP POP POP POP POP POP POP POP POP JUMP JUMPDEST DUP1 DUP3 MUL DUP2 ISZERO DUP3 DUP3 DIV DUP5 EQ OR PUSH2 0x986 JUMPI PUSH2 0x986 PUSH2 0x2C7F JUMP JUMPDEST PUSH0 DUP3 PUSH2 0x2E73 JUMPI PUSH4 0x4E487B71 PUSH1 0xE0 SHL PUSH0 MSTORE PUSH1 0x12 PUSH1 0x4 MSTORE PUSH1 0x24 PUSH0 REVERT JUMPDEST POP DIV SWAP1 JUMP JUMPDEST PUSH1 0x80 DUP2 MSTORE PUSH0 PUSH2 0x2E8A PUSH1 0x80 DUP4 ADD DUP8 PUSH2 0x2AD2 JUMP JUMPDEST PUSH1 0x20 DUP4 ADD SWAP6 SWAP1 SWAP6 MSTORE POP PUSH1 0x40 DUP2 ADD SWAP3 SWAP1 SWAP3 MSTORE PUSH1 0x60 SWAP1 SWAP2 ADD MSTORE SWAP2 SWAP1 POP JUMP INVALID LOG2 PUSH5 0x6970667358 0x22 SLT KECCAK256 0x1E 0xDE 0xD6 PC 0xB3 0xF7 PUSH7 0x5E655B412B9E64 0xE5 BLOBHASH EXTCODEHASH SLT 0xCB 0xB8 LT 0xC7 STOP SWAP6 DUP6 0xDE BALANCE INVALID LOG3 SWAP5 GAS MSTORE PUSH5 0x736F6C6343 STOP ADDMOD NOT STOP CALLER "
    },
    "gasEstimates": {
      "creation": {
        "codeDepositCost": "2399200",
        "executionCost": "infinite",
        "totalCost": "infinite"
      },
      "external": {
        "ADMIN_ROLE()": "306",
        "DEFAULT_ADMIN_ROLE()": "261",
        "LIQUIDATION_DEFAULT_DELAY()": "285",
        "LOCKUP_PERIOD()": "305",
        "PAUSER_ROLE()": "261",
        "UNLOCKER_ROLE()": "305",
        "UTILITY_INJECTOR_ROLE()": "307",
        "WITHDRAWER_ROLE()": "262",
        "adminEmergencyWithdrawAll(address)": "infinite",
        "adminWithdrawUtility(address,uint256)": "infinite",
        "allUsers(uint256)": "4701",
        "batchUnlock(address[],uint256[][])": "infinite",
        "batchWithdraw(uint256[])": "infinite",
        "deposit(address)": "infinite",
        "enableGlobalLiquidation()": "infinite",
        "getAllUsers(uint256,uint256)": "infinite",
        "getEarliestDepositTimestamp()": "infinite",
        "getRoleAdmin(bytes32)": "2534",
        "getUnlockedDeposits(address)": "infinite",
        "getUserDepositInfo(address)": "infinite",
        "getUtilityPool()": "2380",
        "globalLiquidationEnabled()": "2377",
        "globalLiquidationTimestamp()": "2405",
        "grantRole(bytes32,address)": "33585",
        "hasRole(bytes32,address)": "2703",
        "injectUtility()": "30683",
        "isPoolFull()": "2386",
        "isWhitelisted(address)": "2629",
        "maxCap()": "307",
        "paused()": "2367",
        "poolRoomLeft()": "4602",
        "renounceRole(bytes32,address)": "29045",
        "revokeRole(bytes32,address)": "33520",
        "setPaused(bool)": "27997",
        "setWhitelist(address,bool)": "infinite",
        "setWhitelistBatch(address[],bool[])": "infinite",
        "setWhitelistEnabled(bool)": "26975",
        "supportsInterface(bytes4)": "493",
        "totalDeposited()": "2404",
        "totalShares()": "2384",
        "totalUtility()": "2385",
        "unlockDepositsForUser(address,uint256[])": "infinite",
        "userDeposits(address,uint256)": "11325",
        "whitelistEnabled()": "2376",
        "withdraw(uint256)": "infinite"
      },
      "internal": {
        "_batchWithdrawMemory(uint256[] memory)": "infinite",
        "_markAllDepositsFullyRedeemable()": "infinite"
      }
    },
    "methodIdentifiers": {
      "ADMIN_ROLE()": "75b238fc",
      "DEFAULT_ADMIN_ROLE()": "a217fddf",
      "LIQUIDATION_DEFAULT_DELAY()": "20bc73f4",
      "LOCKUP_PERIOD()": "ec16d076",
      "PAUSER_ROLE()": "e63ab1e9",
      "UNLOCKER_ROLE()": "e043b2b2",
      "UTILITY_INJECTOR_ROLE()": "0c016ad5",
      "WITHDRAWER_ROLE()": "85f438c1",
      "adminEmergencyWithdrawAll(address)": "3098924b",
      "adminWithdrawUtility(address,uint256)": "8e957748",
      "allUsers(uint256)": "a2bdedf4",
      "batchUnlock(address[],uint256[][])": "9a038b46",
      "batchWithdraw(uint256[])": "72e55399",
      "deposit(address)": "f340fa01",
      "enableGlobalLiquidation()": "da8d5add",
      "getAllUsers(uint256,uint256)": "4ff113e9",
      "getEarliestDepositTimestamp()": "fdfbe0c8",
      "getRoleAdmin(bytes32)": "248a9ca3",
      "getUnlockedDeposits(address)": "6eb80c1d",
      "getUserDepositInfo(address)": "b3a7834d",
      "getUtilityPool()": "97f6ad87",
      "globalLiquidationEnabled()": "246d47b7",
      "globalLiquidationTimestamp()": "588583a0",
      "grantRole(bytes32,address)": "2f2ff15d",
      "hasRole(bytes32,address)": "91d14854",
      "injectUtility()": "462d6c3d",
      "isPoolFull()": "093c87f3",
      "isWhitelisted(address)": "3af32abf",
      "maxCap()": "23548b8b",
      "paused()": "5c975abb",
      "poolRoomLeft()": "ebfa7c46",
      "renounceRole(bytes32,address)": "36568abe",
      "revokeRole(bytes32,address)": "d547741f",
      "setPaused(bool)": "16c38b3c",
      "setWhitelist(address,bool)": "53d6fd59",
      "setWhitelistBatch(address[],bool[])": "47af19aa",
      "setWhitelistEnabled(bool)": "052d9e7e",
      "supportsInterface(bytes4)": "01ffc9a7",
      "totalDeposited()": "ff50abdc",
      "totalShares()": "3a98ef39",
      "totalUtility()": "5e0cde10",
      "unlockDepositsForUser(address,uint256[])": "867d099a",
      "userDeposits(address,uint256)": "08f43333",
      "whitelistEnabled()": "51fb012d",
      "withdraw(uint256)": "2e1a7d4d"
    }
  },
  "storageLayout": {
    "storage": [
      {
        "astId": 2871,
        "contract": "FlattenedVault.sol:TimeLockedEthInvestmentVault",
        "label": "_roles",
        "offset": 0,
        "slot": "0",
        "type": "t_mapping(t_bytes32,t_struct(RoleData)2866_storage)"
      },
      {
        "astId": 3149,
        "contract": "FlattenedVault.sol:TimeLockedEthInvestmentVault",
        "label": "_status",
        "offset": 0,
        "slot": "1",
        "type": "t_uint256"
      },
      {
        "astId": 3223,
        "contract": "FlattenedVault.sol:TimeLockedEthInvestmentVault",
        "label": "paused",
        "offset": 0,
        "slot": "2",
        "type": "t_bool"
      },
      {
        "astId": 3225,
        "contract": "FlattenedVault.sol:TimeLockedEthInvestmentVault",
        "label": "whitelistEnabled",
        "offset": 1,
        "slot": "2",
        "type": "t_bool"
      },
      {
        "astId": 3227,
        "contract": "FlattenedVault.sol:TimeLockedEthInvestmentVault",
        "label": "globalLiquidationEnabled",
        "offset": 2,
        "slot": "2",
        "type": "t_bool"
      },
      {
        "astId": 3229,
        "contract": "FlattenedVault.sol:TimeLockedEthInvestmentVault",
        "label": "globalLiquidationTimestamp",
        "offset": 0,
        "slot": "3",
        "type": "t_uint256"
      },
      {
        "astId": 3231,
        "contract": "FlattenedVault.sol:TimeLockedEthInvestmentVault",
        "label": "totalDeposited",
        "offset": 0,
        "slot": "4",
        "type": "t_uint256"
      },
      {
        "astId": 3233,
        "contract": "FlattenedVault.sol:TimeLockedEthInvestmentVault",
        "label": "totalShares",
        "offset": 0,
        "slot": "5",
        "type": "t_uint256"
      },
      {
        "astId": 3235,
        "contract": "FlattenedVault.sol:TimeLockedEthInvestmentVault",
        "label": "totalUtility",
        "offset": 0,
        "slot": "6",
        "type": "t_uint256"
      },
      {
        "astId": 3279,
        "contract": "FlattenedVault.sol:TimeLockedEthInvestmentVault",
        "label": "userDeposits",
        "offset": 0,
        "slot": "7",
        "type": "t_mapping(t_address,t_array(t_struct(DepositInfo)3273_storage)dyn_storage)"
      },
      {
        "astId": 3283,
        "contract": "FlattenedVault.sol:TimeLockedEthInvestmentVault",
        "label": "isWhitelisted",
        "offset": 0,
        "slot": "8",
        "type": "t_mapping(t_address,t_bool)"
      },
      {
        "astId": 3286,
        "contract": "FlattenedVault.sol:TimeLockedEthInvestmentVault",
        "label": "allUsers",
        "offset": 0,
        "slot": "9",
        "type": "t_array(t_address)dyn_storage"
      }
    ],
    "types": {
      "t_address": {
        "encoding": "inplace",
        "label": "address",
        "numberOfBytes": "20"
      },
      "t_array(t_address)dyn_storage": {
        "base": "t_address",
        "encoding": "dynamic_array",
        "label": "address[]",
        "numberOfBytes": "32"
      },
      "t_array(t_struct(DepositInfo)3273_storage)dyn_storage": {
        "base": "t_struct(DepositInfo)3273_storage",
        "encoding": "dynamic_array",
        "label": "struct TimeLockedEthInvestmentVault.DepositInfo[]",
        "numberOfBytes": "32"
      },
      "t_bool": {
        "encoding": "inplace",
        "label": "bool",
        "numberOfBytes": "1"
      },
      "t_bytes32": {
        "encoding": "inplace",
        "label": "bytes32",
        "numberOfBytes": "32"
      },
      "t_mapping(t_address,t_array(t_struct(DepositInfo)3273_storage)dyn_storage)": {
        "encoding": "mapping",
        "key": "t_address",
        "label": "mapping(address => struct TimeLockedEthInvestmentVault.DepositInfo[])",
        "numberOfBytes": "32",
        "value": "t_array(t_struct(DepositInfo)3273_storage)dyn_storage"
      },
      "t_mapping(t_address,t_bool)": {
        "encoding": "mapping",
        "key": "t_address",
        "label": "mapping(address => bool)",
        "numberOfBytes": "32",
        "value": "t_bool"
      },
      "t_mapping(t_bytes32,t_struct(RoleData)2866_storage)": {
        "encoding": "mapping",
        "key": "t_bytes32",
        "label": "mapping(bytes32 => struct AccessControl.RoleData)",
        "numberOfBytes": "32",
        "value": "t_struct(RoleData)2866_storage"
      },
      "t_struct(DepositInfo)3273_storage": {
        "encoding": "inplace",
        "label": "struct TimeLockedEthInvestmentVault.DepositInfo",
        "members": [
          {
            "astId": 3262,
            "contract": "FlattenedVault.sol:TimeLockedEthInvestmentVault",
            "label": "amount",
            "offset": 0,
            "slot": "0",
            "type": "t_uint256"
          },
          {
            "astId": 3264,
            "contract": "FlattenedVault.sol:TimeLockedEthInvestmentVault",
            "label": "timestamp",
            "offset": 0,
            "slot": "1",
            "type": "t_uint256"
          },
          {
            "astId": 3266,
            "contract": "FlattenedVault.sol:TimeLockedEthInvestmentVault",
            "label": "shares",
            "offset": 0,
            "slot": "2",
            "type": "t_uint256"
          },
          {
            "astId": 3268,
            "contract": "FlattenedVault.sol:TimeLockedEthInvestmentVault",
            "label": "withdrawn",
            "offset": 0,
            "slot": "3",
            "type": "t_bool"
          },
          {
            "astId": 3270,
            "contract": "FlattenedVault.sol:TimeLockedEthInvestmentVault",
            "label": "unlockedByAdmin",
            "offset": 1,
            "slot": "3",
            "type": "t_bool"
          },
          {
            "astId": 3272,
            "contract": "FlattenedVault.sol:TimeLockedEthInvestmentVault",
            "label": "fullyRedeemable",
            "offset": 2,
            "slot": "3",
            "type": "t_bool"
          }
        ],
        "numberOfBytes": "128"
      },
      "t_struct(RoleData)2866_storage": {
        "encoding": "inplace",
        "label": "struct AccessControl.RoleData",
        "members": [
          {
            "astId": 2863,
            "contract": "FlattenedVault.sol:TimeLockedEthInvestmentVault",
            "label": "hasRole",
            "offset": 0,
            "slot": "0",
            "type": "t_mapping(t_address,t_bool)"
          },
          {
            "astId": 2865,
            "contract": "FlattenedVault.sol:TimeLockedEthInvestmentVault",
            "label": "adminRole",
            "offset": 0,
            "slot": "1",
            "type": "t_bytes32"
          }
        ],
        "numberOfBytes": "64"
      },
      "t_uint256": {
        "encoding": "inplace",
        "label": "uint256",
        "numberOfBytes": "32"
      }
    }
  },
  "userdoc": {
    "kind": "user",
    "methods": {},
    "notice": "Vault robusto de inversión en ETH con lockup y utilidades administradas por roles",
    "version": 1
  }
}