{
  "_format": "hh-sol-artifact-1",
  "contractName": "PoolPandoras",
  "sourceName": "contracts/PoolPandoras.sol",
  "abi": [
    {
      "inputs": [
        {
          "internalType": "address[]",
          "name": "initialAdmins",
          "type": "address[]"
        },
        {
          "internalType": "address",
          "name": "_utilityAddress",
          "type": "address"
        },
        {
          "internalType": "address",
          "name": "trustedForwarder",
          "type": "address"
        }
      ],
      "stateMutability": "nonpayable",
      "type": "constructor"
    },
    {
      "inputs": [],
      "name": "AccessControlBadConfirmation",
      "type": "error"
    },
    {
      "inputs": [
        {
          "internalType": "address",
          "name": "account",
          "type": "address"
        },
        {
          "internalType": "bytes32",
          "name": "neededRole",
          "type": "bytes32"
        }
      ],
      "name": "AccessControlUnauthorizedAccount",
      "type": "error"
    },
    {
      "inputs": [],
      "name": "AlreadyUnlockedOrWithdrawn",
      "type": "error"
    },
    {
      "inputs": [],
      "name": "AlreadyWithdrawn",
      "type": "error"
    },
    {
      "inputs": [],
      "name": "ArrayLengthMismatch",
      "type": "error"
    },
    {
      "inputs": [],
      "name": "CapReached",
      "type": "error"
    },
    {
      "inputs": [],
      "name": "DepositLocked",
      "type": "error"
    },
    {
      "inputs": [],
      "name": "DepositsPaused",
      "type": "error"
    },
    {
      "inputs": [],
      "name": "ExceedsTotalUtility",
      "type": "error"
    },
    {
      "inputs": [],
      "name": "GlobalLiquidationAlreadyEnabled",
      "type": "error"
    },
    {
      "inputs": [],
      "name": "InsufficientBalance",
      "type": "error"
    },
    {
      "inputs": [],
      "name": "InvalidAmount",
      "type": "error"
    },
    {
      "inputs": [],
      "name": "NoUtilityToClaim",
      "type": "error"
    },
    {
      "inputs": [],
      "name": "NotWhitelisted",
      "type": "error"
    },
    {
      "inputs": [],
      "name": "ReentrancyGuardReentrantCall",
      "type": "error"
    },
    {
      "inputs": [],
      "name": "ReturnedAmountExceedsInvested",
      "type": "error"
    },
    {
      "inputs": [],
      "name": "TransferFailed",
      "type": "error"
    },
    {
      "inputs": [],
      "name": "WithdrawalsPaused",
      "type": "error"
    },
    {
      "inputs": [],
      "name": "ZeroAddress",
      "type": "error"
    },
    {
      "anonymous": false,
      "inputs": [
        {
          "indexed": true,
          "internalType": "address",
          "name": "user",
          "type": "address"
        },
        {
          "indexed": false,
          "internalType": "enum PoolPandoras.TokenType",
          "name": "token",
          "type": "uint8"
        },
        {
          "indexed": false,
          "internalType": "uint256[]",
          "name": "indices",
          "type": "uint256[]"
        },
        {
          "indexed": false,
          "internalType": "uint256",
          "name": "totalPrincipal",
          "type": "uint256"
        },
        {
          "indexed": false,
          "internalType": "uint256",
          "name": "totalYield",
          "type": "uint256"
        },
        {
          "indexed": false,
          "internalType": "uint256",
          "name": "when",
          "type": "uint256"
        }
      ],
      "name": "BatchWithdraw",
      "type": "event"
    },
    {
      "anonymous": false,
      "inputs": [
        {
          "indexed": true,
          "internalType": "address",
          "name": "user",
          "type": "address"
        },
        {
          "indexed": false,
          "internalType": "enum PoolPandoras.TokenType",
          "name": "token",
          "type": "uint8"
        },
        {
          "indexed": false,
          "internalType": "uint256",
          "name": "amount",
          "type": "uint256"
        },
        {
          "indexed": false,
          "internalType": "uint256",
          "name": "when",
          "type": "uint256"
        }
      ],
      "name": "ClaimUtility",
      "type": "event"
    },
    {
      "anonymous": false,
      "inputs": [
        {
          "indexed": true,
          "internalType": "address",
          "name": "user",
          "type": "address"
        },
        {
          "indexed": false,
          "internalType": "enum PoolPandoras.TokenType",
          "name": "token",
          "type": "uint8"
        },
        {
          "indexed": false,
          "internalType": "uint256",
          "name": "amount",
          "type": "uint256"
        },
        {
          "indexed": false,
          "internalType": "uint256",
          "name": "when",
          "type": "uint256"
        },
        {
          "indexed": false,
          "internalType": "uint256",
          "name": "depositIndex",
          "type": "uint256"
        },
        {
          "indexed": false,
          "internalType": "bool",
          "name": "reinvestment",
          "type": "bool"
        }
      ],
      "name": "Deposit",
      "type": "event"
    },
    {
      "anonymous": false,
      "inputs": [
        {
          "indexed": true,
          "internalType": "address",
          "name": "user",
          "type": "address"
        },
        {
          "indexed": false,
          "internalType": "uint256[]",
          "name": "indices",
          "type": "uint256[]"
        }
      ],
      "name": "DepositsUnlocked",
      "type": "event"
    },
    {
      "anonymous": false,
      "inputs": [
        {
          "indexed": true,
          "internalType": "address",
          "name": "token",
          "type": "address"
        },
        {
          "indexed": true,
          "internalType": "address",
          "name": "to",
          "type": "address"
        },
        {
          "indexed": false,
          "internalType": "uint256",
          "name": "amount",
          "type": "uint256"
        }
      ],
      "name": "ERC20Rescued",
      "type": "event"
    },
    {
      "anonymous": false,
      "inputs": [
        {
          "indexed": false,
          "internalType": "uint256",
          "name": "when",
          "type": "uint256"
        }
      ],
      "name": "GlobalLiquidationEnabled",
      "type": "event"
    },
    {
      "anonymous": false,
      "inputs": [
        {
          "indexed": true,
          "internalType": "address",
          "name": "manager",
          "type": "address"
        },
        {
          "indexed": false,
          "internalType": "enum PoolPandoras.TokenType",
          "name": "token",
          "type": "uint8"
        },
        {
          "indexed": false,
          "internalType": "uint256",
          "name": "amount",
          "type": "uint256"
        },
        {
          "indexed": false,
          "internalType": "uint256",
          "name": "when",
          "type": "uint256"
        }
      ],
      "name": "InvestmentReturned",
      "type": "event"
    },
    {
      "anonymous": false,
      "inputs": [
        {
          "indexed": false,
          "internalType": "uint256",
          "name": "newPeriod",
          "type": "uint256"
        }
      ],
      "name": "LockupPeriodChanged",
      "type": "event"
    },
    {
      "anonymous": false,
      "inputs": [
        {
          "indexed": false,
          "internalType": "enum PoolPandoras.TokenType",
          "name": "token",
          "type": "uint8"
        },
        {
          "indexed": false,
          "internalType": "uint256",
          "name": "newCap",
          "type": "uint256"
        }
      ],
      "name": "MaxCapChanged",
      "type": "event"
    },
    {
      "anonymous": false,
      "inputs": [
        {
          "indexed": false,
          "internalType": "bool",
          "name": "depositsPaused",
          "type": "bool"
        },
        {
          "indexed": false,
          "internalType": "bool",
          "name": "withdrawalsPaused",
          "type": "bool"
        }
      ],
      "name": "PauseChanged",
      "type": "event"
    },
    {
      "anonymous": false,
      "inputs": [
        {
          "indexed": true,
          "internalType": "address",
          "name": "user",
          "type": "address"
        },
        {
          "indexed": false,
          "internalType": "enum PoolPandoras.TokenType",
          "name": "token",
          "type": "uint8"
        },
        {
          "indexed": false,
          "internalType": "uint256",
          "name": "amount",
          "type": "uint256"
        },
        {
          "indexed": false,
          "internalType": "uint256",
          "name": "when",
          "type": "uint256"
        }
      ],
      "name": "Reinvest",
      "type": "event"
    },
    {
      "anonymous": false,
      "inputs": [
        {
          "indexed": true,
          "internalType": "bytes32",
          "name": "role",
          "type": "bytes32"
        },
        {
          "indexed": true,
          "internalType": "bytes32",
          "name": "previousAdminRole",
          "type": "bytes32"
        },
        {
          "indexed": true,
          "internalType": "bytes32",
          "name": "newAdminRole",
          "type": "bytes32"
        }
      ],
      "name": "RoleAdminChanged",
      "type": "event"
    },
    {
      "anonymous": false,
      "inputs": [
        {
          "indexed": true,
          "internalType": "bytes32",
          "name": "role",
          "type": "bytes32"
        },
        {
          "indexed": true,
          "internalType": "address",
          "name": "account",
          "type": "address"
        },
        {
          "indexed": true,
          "internalType": "address",
          "name": "sender",
          "type": "address"
        }
      ],
      "name": "RoleGranted",
      "type": "event"
    },
    {
      "anonymous": false,
      "inputs": [
        {
          "indexed": true,
          "internalType": "bytes32",
          "name": "role",
          "type": "bytes32"
        },
        {
          "indexed": true,
          "internalType": "address",
          "name": "account",
          "type": "address"
        },
        {
          "indexed": true,
          "internalType": "address",
          "name": "sender",
          "type": "address"
        }
      ],
      "name": "RoleRevoked",
      "type": "event"
    },
    {
      "anonymous": false,
      "inputs": [
        {
          "indexed": true,
          "internalType": "address",
          "name": "user",
          "type": "address"
        },
        {
          "indexed": false,
          "internalType": "bool",
          "name": "status",
          "type": "bool"
        }
      ],
      "name": "UserWhitelisted",
      "type": "event"
    },
    {
      "anonymous": false,
      "inputs": [
        {
          "indexed": false,
          "internalType": "address",
          "name": "newUtilityAddress",
          "type": "address"
        }
      ],
      "name": "UtilityAddressChanged",
      "type": "event"
    },
    {
      "anonymous": false,
      "inputs": [
        {
          "indexed": true,
          "internalType": "address",
          "name": "admin",
          "type": "address"
        },
        {
          "indexed": false,
          "internalType": "enum PoolPandoras.TokenType",
          "name": "token",
          "type": "uint8"
        },
        {
          "indexed": false,
          "internalType": "uint256",
          "name": "amount",
          "type": "uint256"
        },
        {
          "indexed": false,
          "internalType": "uint256",
          "name": "when",
          "type": "uint256"
        }
      ],
      "name": "UtilityInjected",
      "type": "event"
    },
    {
      "anonymous": false,
      "inputs": [
        {
          "indexed": true,
          "internalType": "address",
          "name": "to",
          "type": "address"
        },
        {
          "indexed": false,
          "internalType": "enum PoolPandoras.TokenType",
          "name": "token",
          "type": "uint8"
        },
        {
          "indexed": false,
          "internalType": "uint256",
          "name": "amount",
          "type": "uint256"
        },
        {
          "indexed": false,
          "internalType": "uint256",
          "name": "when",
          "type": "uint256"
        }
      ],
      "name": "UtilityWithdrawn",
      "type": "event"
    },
    {
      "anonymous": false,
      "inputs": [
        {
          "indexed": true,
          "internalType": "address",
          "name": "user",
          "type": "address"
        },
        {
          "indexed": false,
          "internalType": "enum PoolPandoras.TokenType",
          "name": "token",
          "type": "uint8"
        },
        {
          "indexed": false,
          "internalType": "uint256",
          "name": "principal",
          "type": "uint256"
        },
        {
          "indexed": false,
          "internalType": "uint256",
          "name": "yield",
          "type": "uint256"
        },
        {
          "indexed": false,
          "internalType": "uint256",
          "name": "when",
          "type": "uint256"
        },
        {
          "indexed": false,
          "internalType": "uint256",
          "name": "depositIndex",
          "type": "uint256"
        }
      ],
      "name": "Withdraw",
      "type": "event"
    },
    {
      "anonymous": false,
      "inputs": [
        {
          "indexed": true,
          "internalType": "address",
          "name": "manager",
          "type": "address"
        },
        {
          "indexed": false,
          "internalType": "enum PoolPandoras.TokenType",
          "name": "token",
          "type": "uint8"
        },
        {
          "indexed": true,
          "internalType": "address",
          "name": "to",
          "type": "address"
        },
        {
          "indexed": false,
          "internalType": "uint256",
          "name": "amount",
          "type": "uint256"
        },
        {
          "indexed": false,
          "internalType": "uint256",
          "name": "when",
          "type": "uint256"
        }
      ],
      "name": "WithdrawnForInvestment",
      "type": "event"
    },
    {
      "inputs": [],
      "name": "ADMIN_ROLE",
      "outputs": [
        {
          "internalType": "bytes32",
          "name": "",
          "type": "bytes32"
        }
      ],
      "stateMutability": "view",
      "type": "function"
    },
    {
      "inputs": [],
      "name": "DEFAULT_ADMIN_ROLE",
      "outputs": [
        {
          "internalType": "bytes32",
          "name": "",
          "type": "bytes32"
        }
      ],
      "stateMutability": "view",
      "type": "function"
    },
    {
      "inputs": [],
      "name": "MANAGER_ROLE",
      "outputs": [
        {
          "internalType": "bytes32",
          "name": "",
          "type": "bytes32"
        }
      ],
      "stateMutability": "view",
      "type": "function"
    },
    {
      "inputs": [],
      "name": "PAUSER_ROLE",
      "outputs": [
        {
          "internalType": "bytes32",
          "name": "",
          "type": "bytes32"
        }
      ],
      "stateMutability": "view",
      "type": "function"
    },
    {
      "inputs": [],
      "name": "UNLOCKER_ROLE",
      "outputs": [
        {
          "internalType": "bytes32",
          "name": "",
          "type": "bytes32"
        }
      ],
      "stateMutability": "view",
      "type": "function"
    },
    {
      "inputs": [],
      "name": "USDC",
      "outputs": [
        {
          "internalType": "address",
          "name": "",
          "type": "address"
        }
      ],
      "stateMutability": "view",
      "type": "function"
    },
    {
      "inputs": [],
      "name": "UTILITY_INJECTOR_ROLE",
      "outputs": [
        {
          "internalType": "bytes32",
          "name": "",
          "type": "bytes32"
        }
      ],
      "stateMutability": "view",
      "type": "function"
    },
    {
      "inputs": [],
      "name": "UTILITY_WITHDRAWER_ROLE",
      "outputs": [
        {
          "internalType": "bytes32",
          "name": "",
          "type": "bytes32"
        }
      ],
      "stateMutability": "view",
      "type": "function"
    },
    {
      "inputs": [
        {
          "internalType": "address",
          "name": "user",
          "type": "address"
        },
        {
          "internalType": "uint256",
          "name": "amount",
          "type": "uint256"
        }
      ],
      "name": "assignUtilityETH",
      "outputs": [],
      "stateMutability": "nonpayable",
      "type": "function"
    },
    {
      "inputs": [
        {
          "internalType": "address[]",
          "name": "users",
          "type": "address[]"
        },
        {
          "internalType": "uint256[]",
          "name": "amounts",
          "type": "uint256[]"
        }
      ],
      "name": "assignUtilityETHBatch",
      "outputs": [],
      "stateMutability": "nonpayable",
      "type": "function"
    },
    {
      "inputs": [
        {
          "internalType": "address",
          "name": "user",
          "type": "address"
        },
        {
          "internalType": "uint256",
          "name": "amount",
          "type": "uint256"
        }
      ],
      "name": "assignUtilityUSDC",
      "outputs": [],
      "stateMutability": "nonpayable",
      "type": "function"
    },
    {
      "inputs": [
        {
          "internalType": "address[]",
          "name": "users",
          "type": "address[]"
        },
        {
          "internalType": "uint256[]",
          "name": "amounts",
          "type": "uint256[]"
        }
      ],
      "name": "assignUtilityUSDCBatch",
      "outputs": [],
      "stateMutability": "nonpayable",
      "type": "function"
    },
    {
      "inputs": [
        {
          "internalType": "uint256[]",
          "name": "depositIndices",
          "type": "uint256[]"
        }
      ],
      "name": "batchWithdraw",
      "outputs": [],
      "stateMutability": "nonpayable",
      "type": "function"
    },
    {
      "inputs": [],
      "name": "claimUtilityETH",
      "outputs": [],
      "stateMutability": "nonpayable",
      "type": "function"
    },
    {
      "inputs": [],
      "name": "claimUtilityUSDC",
      "outputs": [],
      "stateMutability": "nonpayable",
      "type": "function"
    },
    {
      "inputs": [],
      "name": "depositETH",
      "outputs": [],
      "stateMutability": "payable",
      "type": "function"
    },
    {
      "inputs": [
        {
          "internalType": "uint256",
          "name": "amount",
          "type": "uint256"
        }
      ],
      "name": "depositUSDC",
      "outputs": [],
      "stateMutability": "nonpayable",
      "type": "function"
    },
    {
      "inputs": [],
      "name": "enableGlobalLiquidation",
      "outputs": [],
      "stateMutability": "nonpayable",
      "type": "function"
    },
    {
      "inputs": [
        {
          "internalType": "bytes32",
          "name": "role",
          "type": "bytes32"
        }
      ],
      "name": "getRoleAdmin",
      "outputs": [
        {
          "internalType": "bytes32",
          "name": "",
          "type": "bytes32"
        }
      ],
      "stateMutability": "view",
      "type": "function"
    },
    {
      "inputs": [
        {
          "internalType": "address",
          "name": "user",
          "type": "address"
        }
      ],
      "name": "getUserDeposits",
      "outputs": [
        {
          "components": [
            {
              "internalType": "uint96",
              "name": "amount",
              "type": "uint96"
            },
            {
              "internalType": "uint96",
              "name": "yieldReceived",
              "type": "uint96"
            },
            {
              "internalType": "uint48",
              "name": "timestamp",
              "type": "uint48"
            },
            {
              "internalType": "uint48",
              "name": "withdrawnAt",
              "type": "uint48"
            },
            {
              "internalType": "enum PoolPandoras.TokenType",
              "name": "token",
              "type": "uint8"
            },
            {
              "internalType": "uint8",
              "name": "flags",
              "type": "uint8"
            }
          ],
          "internalType": "struct PoolPandoras.DepositInfo[]",
          "name": "",
          "type": "tuple[]"
        }
      ],
      "stateMutability": "view",
      "type": "function"
    },
    {
      "inputs": [
        {
          "internalType": "address",
          "name": "user",
          "type": "address"
        }
      ],
      "name": "getUserStats",
      "outputs": [
        {
          "internalType": "uint256",
          "name": "depositedETH",
          "type": "uint256"
        },
        {
          "internalType": "uint256",
          "name": "depositedUSDC",
          "type": "uint256"
        },
        {
          "internalType": "uint256",
          "name": "withdrawnETH",
          "type": "uint256"
        },
        {
          "internalType": "uint256",
          "name": "withdrawnUSDC",
          "type": "uint256"
        },
        {
          "internalType": "uint256",
          "name": "claimableUtilityETH",
          "type": "uint256"
        },
        {
          "internalType": "uint256",
          "name": "claimableUtilityUSDC",
          "type": "uint256"
        },
        {
          "internalType": "uint256",
          "name": "reinvestedETH",
          "type": "uint256"
        },
        {
          "internalType": "uint256",
          "name": "reinvestedUSDC",
          "type": "uint256"
        }
      ],
      "stateMutability": "view",
      "type": "function"
    },
    {
      "inputs": [],
      "name": "getVaultStats",
      "outputs": [
        {
          "internalType": "uint256",
          "name": "ethInVault",
          "type": "uint256"
        },
        {
          "internalType": "uint256",
          "name": "usdcInVault",
          "type": "uint256"
        },
        {
          "internalType": "uint256",
          "name": "totalDepositedETH_",
          "type": "uint256"
        },
        {
          "internalType": "uint256",
          "name": "totalDepositedUSDC_",
          "type": "uint256"
        },
        {
          "internalType": "uint256",
          "name": "totalWithdrawnETH_",
          "type": "uint256"
        },
        {
          "internalType": "uint256",
          "name": "totalWithdrawnUSDC_",
          "type": "uint256"
        },
        {
          "internalType": "uint256",
          "name": "totalUtilityETH_",
          "type": "uint256"
        },
        {
          "internalType": "uint256",
          "name": "totalUtilityUSDC_",
          "type": "uint256"
        },
        {
          "internalType": "uint256",
          "name": "totalReinvestedETH_",
          "type": "uint256"
        },
        {
          "internalType": "uint256",
          "name": "totalReinvestedUSDC_",
          "type": "uint256"
        },
        {
          "internalType": "uint256",
          "name": "totalInvestedETH_",
          "type": "uint256"
        },
        {
          "internalType": "uint256",
          "name": "totalInvestedUSDC_",
          "type": "uint256"
        },
        {
          "internalType": "uint256",
          "name": "numDepositors",
          "type": "uint256"
        },
        {
          "internalType": "uint256",
          "name": "numWithdrawnUsers",
          "type": "uint256"
        }
      ],
      "stateMutability": "view",
      "type": "function"
    },
    {
      "inputs": [],
      "name": "globalLiquidationEnabled",
      "outputs": [
        {
          "internalType": "bool",
          "name": "",
          "type": "bool"
        }
      ],
      "stateMutability": "view",
      "type": "function"
    },
    {
      "inputs": [],
      "name": "globalLiquidationTimestamp",
      "outputs": [
        {
          "internalType": "uint48",
          "name": "",
          "type": "uint48"
        }
      ],
      "stateMutability": "view",
      "type": "function"
    },
    {
      "inputs": [
        {
          "internalType": "bytes32",
          "name": "role",
          "type": "bytes32"
        },
        {
          "internalType": "address",
          "name": "account",
          "type": "address"
        }
      ],
      "name": "grantRole",
      "outputs": [],
      "stateMutability": "nonpayable",
      "type": "function"
    },
    {
      "inputs": [
        {
          "internalType": "bytes32",
          "name": "role",
          "type": "bytes32"
        },
        {
          "internalType": "address",
          "name": "account",
          "type": "address"
        }
      ],
      "name": "hasRole",
      "outputs": [
        {
          "internalType": "bool",
          "name": "",
          "type": "bool"
        }
      ],
      "stateMutability": "view",
      "type": "function"
    },
    {
      "inputs": [
        {
          "internalType": "address",
          "name": "",
          "type": "address"
        }
      ],
      "name": "hasWithdrawn",
      "outputs": [
        {
          "internalType": "bool",
          "name": "",
          "type": "bool"
        }
      ],
      "stateMutability": "view",
      "type": "function"
    },
    {
      "inputs": [],
      "name": "injectUtilityETH",
      "outputs": [],
      "stateMutability": "payable",
      "type": "function"
    },
    {
      "inputs": [
        {
          "internalType": "uint256",
          "name": "amount",
          "type": "uint256"
        }
      ],
      "name": "injectUtilityUSDC",
      "outputs": [],
      "stateMutability": "nonpayable",
      "type": "function"
    },
    {
      "inputs": [
        {
          "internalType": "address",
          "name": "",
          "type": "address"
        }
      ],
      "name": "isKnownDepositor",
      "outputs": [
        {
          "internalType": "bool",
          "name": "",
          "type": "bool"
        }
      ],
      "stateMutability": "view",
      "type": "function"
    },
    {
      "inputs": [
        {
          "internalType": "address",
          "name": "forwarder",
          "type": "address"
        }
      ],
      "name": "isTrustedForwarder",
      "outputs": [
        {
          "internalType": "bool",
          "name": "",
          "type": "bool"
        }
      ],
      "stateMutability": "view",
      "type": "function"
    },
    {
      "inputs": [
        {
          "internalType": "address",
          "name": "",
          "type": "address"
        }
      ],
      "name": "isWhitelisted",
      "outputs": [
        {
          "internalType": "bool",
          "name": "",
          "type": "bool"
        }
      ],
      "stateMutability": "view",
      "type": "function"
    },
    {
      "inputs": [],
      "name": "lockupPeriod",
      "outputs": [
        {
          "internalType": "uint256",
          "name": "",
          "type": "uint256"
        }
      ],
      "stateMutability": "view",
      "type": "function"
    },
    {
      "inputs": [],
      "name": "maxCapETH",
      "outputs": [
        {
          "internalType": "uint256",
          "name": "",
          "type": "uint256"
        }
      ],
      "stateMutability": "view",
      "type": "function"
    },
    {
      "inputs": [],
      "name": "maxCapUSDC",
      "outputs": [
        {
          "internalType": "uint256",
          "name": "",
          "type": "uint256"
        }
      ],
      "stateMutability": "view",
      "type": "function"
    },
    {
      "inputs": [],
      "name": "pausedDeposits",
      "outputs": [
        {
          "internalType": "bool",
          "name": "",
          "type": "bool"
        }
      ],
      "stateMutability": "view",
      "type": "function"
    },
    {
      "inputs": [],
      "name": "pausedWithdrawals",
      "outputs": [
        {
          "internalType": "bool",
          "name": "",
          "type": "bool"
        }
      ],
      "stateMutability": "view",
      "type": "function"
    },
    {
      "inputs": [],
      "name": "reinvestUtilityETH",
      "outputs": [],
      "stateMutability": "nonpayable",
      "type": "function"
    },
    {
      "inputs": [],
      "name": "reinvestUtilityUSDC",
      "outputs": [],
      "stateMutability": "nonpayable",
      "type": "function"
    },
    {
      "inputs": [
        {
          "internalType": "bytes32",
          "name": "role",
          "type": "bytes32"
        },
        {
          "internalType": "address",
          "name": "callerConfirmation",
          "type": "address"
        }
      ],
      "name": "renounceRole",
      "outputs": [],
      "stateMutability": "nonpayable",
      "type": "function"
    },
    {
      "inputs": [
        {
          "internalType": "address",
          "name": "token",
          "type": "address"
        },
        {
          "internalType": "address",
          "name": "to",
          "type": "address"
        },
        {
          "internalType": "uint256",
          "name": "amount",
          "type": "uint256"
        }
      ],
      "name": "rescueERC20",
      "outputs": [],
      "stateMutability": "nonpayable",
      "type": "function"
    },
    {
      "inputs": [],
      "name": "returnInvestmentETH",
      "outputs": [],
      "stateMutability": "payable",
      "type": "function"
    },
    {
      "inputs": [
        {
          "internalType": "uint256",
          "name": "amount",
          "type": "uint256"
        }
      ],
      "name": "returnInvestmentUSDC",
      "outputs": [],
      "stateMutability": "nonpayable",
      "type": "function"
    },
    {
      "inputs": [
        {
          "internalType": "bytes32",
          "name": "role",
          "type": "bytes32"
        },
        {
          "internalType": "address",
          "name": "account",
          "type": "address"
        }
      ],
      "name": "revokeRole",
      "outputs": [],
      "stateMutability": "nonpayable",
      "type": "function"
    },
    {
      "inputs": [
        {
          "internalType": "address",
          "name": "user",
          "type": "address"
        },
        {
          "internalType": "uint256[]",
          "name": "depositIndices",
          "type": "uint256[]"
        }
      ],
      "name": "setDepositsAsRedeemable",
      "outputs": [],
      "stateMutability": "nonpayable",
      "type": "function"
    },
    {
      "inputs": [
        {
          "internalType": "uint256",
          "name": "newPeriod",
          "type": "uint256"
        }
      ],
      "name": "setLockupPeriod",
      "outputs": [],
      "stateMutability": "nonpayable",
      "type": "function"
    },
    {
      "inputs": [
        {
          "internalType": "enum PoolPandoras.TokenType",
          "name": "token",
          "type": "uint8"
        },
        {
          "internalType": "uint256",
          "name": "newCap",
          "type": "uint256"
        }
      ],
      "name": "setMaxCap",
      "outputs": [],
      "stateMutability": "nonpayable",
      "type": "function"
    },
    {
      "inputs": [
        {
          "internalType": "bool",
          "name": "_deposits",
          "type": "bool"
        },
        {
          "internalType": "bool",
          "name": "_withdrawals",
          "type": "bool"
        }
      ],
      "name": "setPaused",
      "outputs": [],
      "stateMutability": "nonpayable",
      "type": "function"
    },
    {
      "inputs": [
        {
          "internalType": "address",
          "name": "newUtilityAddress",
          "type": "address"
        }
      ],
      "name": "setUtilityAddress",
      "outputs": [],
      "stateMutability": "nonpayable",
      "type": "function"
    },
    {
      "inputs": [
        {
          "internalType": "address",
          "name": "user",
          "type": "address"
        },
        {
          "internalType": "bool",
          "name": "status",
          "type": "bool"
        }
      ],
      "name": "setWhitelist",
      "outputs": [],
      "stateMutability": "nonpayable",
      "type": "function"
    },
    {
      "inputs": [
        {
          "internalType": "address[]",
          "name": "users",
          "type": "address[]"
        },
        {
          "internalType": "bool[]",
          "name": "statuses",
          "type": "bool[]"
        }
      ],
      "name": "setWhitelistBatch",
      "outputs": [],
      "stateMutability": "nonpayable",
      "type": "function"
    },
    {
      "inputs": [
        {
          "internalType": "bool",
          "name": "enabled",
          "type": "bool"
        }
      ],
      "name": "setWhitelistEnabled",
      "outputs": [],
      "stateMutability": "nonpayable",
      "type": "function"
    },
    {
      "inputs": [
        {
          "internalType": "bytes4",
          "name": "interfaceId",
          "type": "bytes4"
        }
      ],
      "name": "supportsInterface",
      "outputs": [
        {
          "internalType": "bool",
          "name": "",
          "type": "bool"
        }
      ],
      "stateMutability": "view",
      "type": "function"
    },
    {
      "inputs": [],
      "name": "totalDepositedETH",
      "outputs": [
        {
          "internalType": "uint256",
          "name": "",
          "type": "uint256"
        }
      ],
      "stateMutability": "view",
      "type": "function"
    },
    {
      "inputs": [],
      "name": "totalDepositedUSDC",
      "outputs": [
        {
          "internalType": "uint256",
          "name": "",
          "type": "uint256"
        }
      ],
      "stateMutability": "view",
      "type": "function"
    },
    {
      "inputs": [],
      "name": "totalInvestedETH",
      "outputs": [
        {
          "internalType": "uint256",
          "name": "",
          "type": "uint256"
        }
      ],
      "stateMutability": "view",
      "type": "function"
    },
    {
      "inputs": [],
      "name": "totalInvestedUSDC",
      "outputs": [
        {
          "internalType": "uint256",
          "name": "",
          "type": "uint256"
        }
      ],
      "stateMutability": "view",
      "type": "function"
    },
    {
      "inputs": [],
      "name": "totalReinvestedETH",
      "outputs": [
        {
          "internalType": "uint256",
          "name": "",
          "type": "uint256"
        }
      ],
      "stateMutability": "view",
      "type": "function"
    },
    {
      "inputs": [],
      "name": "totalReinvestedUSDC",
      "outputs": [
        {
          "internalType": "uint256",
          "name": "",
          "type": "uint256"
        }
      ],
      "stateMutability": "view",
      "type": "function"
    },
    {
      "inputs": [],
      "name": "totalUtilityETH",
      "outputs": [
        {
          "internalType": "uint256",
          "name": "",
          "type": "uint256"
        }
      ],
      "stateMutability": "view",
      "type": "function"
    },
    {
      "inputs": [],
      "name": "totalUtilityUSDC",
      "outputs": [
        {
          "internalType": "uint256",
          "name": "",
          "type": "uint256"
        }
      ],
      "stateMutability": "view",
      "type": "function"
    },
    {
      "inputs": [],
      "name": "totalWithdrawnETH",
      "outputs": [
        {
          "internalType": "uint256",
          "name": "",
          "type": "uint256"
        }
      ],
      "stateMutability": "view",
      "type": "function"
    },
    {
      "inputs": [],
      "name": "totalWithdrawnUSDC",
      "outputs": [
        {
          "internalType": "uint256",
          "name": "",
          "type": "uint256"
        }
      ],
      "stateMutability": "view",
      "type": "function"
    },
    {
      "inputs": [],
      "name": "trustedForwarder",
      "outputs": [
        {
          "internalType": "address",
          "name": "",
          "type": "address"
        }
      ],
      "stateMutability": "view",
      "type": "function"
    },
    {
      "inputs": [
        {
          "internalType": "address",
          "name": "user",
          "type": "address"
        },
        {
          "internalType": "uint256[]",
          "name": "depositIndices",
          "type": "uint256[]"
        }
      ],
      "name": "unlockDepositsForUser",
      "outputs": [],
      "stateMutability": "nonpayable",
      "type": "function"
    },
    {
      "inputs": [
        {
          "internalType": "address",
          "name": "",
          "type": "address"
        }
      ],
      "name": "userClaimableUtilityETH",
      "outputs": [
        {
          "internalType": "uint256",
          "name": "",
          "type": "uint256"
        }
      ],
      "stateMutability": "view",
      "type": "function"
    },
    {
      "inputs": [
        {
          "internalType": "address",
          "name": "",
          "type": "address"
        }
      ],
      "name": "userClaimableUtilityUSDC",
      "outputs": [
        {
          "internalType": "uint256",
          "name": "",
          "type": "uint256"
        }
      ],
      "stateMutability": "view",
      "type": "function"
    },
    {
      "inputs": [
        {
          "internalType": "address",
          "name": "",
          "type": "address"
        },
        {
          "internalType": "uint256",
          "name": "",
          "type": "uint256"
        }
      ],
      "name": "userDeposits",
      "outputs": [
        {
          "internalType": "uint96",
          "name": "amount",
          "type": "uint96"
        },
        {
          "internalType": "uint96",
          "name": "yieldReceived",
          "type": "uint96"
        },
        {
          "internalType": "uint48",
          "name": "timestamp",
          "type": "uint48"
        },
        {
          "internalType": "uint48",
          "name": "withdrawnAt",
          "type": "uint48"
        },
        {
          "internalType": "enum PoolPandoras.TokenType",
          "name": "token",
          "type": "uint8"
        },
        {
          "internalType": "uint8",
          "name": "flags",
          "type": "uint8"
        }
      ],
      "stateMutability": "view",
      "type": "function"
    },
    {
      "inputs": [
        {
          "internalType": "address",
          "name": "",
          "type": "address"
        }
      ],
      "name": "userTotalReinvestedETH",
      "outputs": [
        {
          "internalType": "uint256",
          "name": "",
          "type": "uint256"
        }
      ],
      "stateMutability": "view",
      "type": "function"
    },
    {
      "inputs": [
        {
          "internalType": "address",
          "name": "",
          "type": "address"
        }
      ],
      "name": "userTotalReinvestedUSDC",
      "outputs": [
        {
          "internalType": "uint256",
          "name": "",
          "type": "uint256"
        }
      ],
      "stateMutability": "view",
      "type": "function"
    },
    {
      "inputs": [],
      "name": "utilityAddress",
      "outputs": [
        {
          "internalType": "address",
          "name": "",
          "type": "address"
        }
      ],
      "stateMutability": "view",
      "type": "function"
    },
    {
      "inputs": [],
      "name": "whitelistEnabled",
      "outputs": [
        {
          "internalType": "bool",
          "name": "",
          "type": "bool"
        }
      ],
      "stateMutability": "view",
      "type": "function"
    },
    {
      "inputs": [
        {
          "internalType": "uint256",
          "name": "depositIndex",
          "type": "uint256"
        }
      ],
      "name": "withdraw",
      "outputs": [],
      "stateMutability": "nonpayable",
      "type": "function"
    },
    {
      "inputs": [
        {
          "internalType": "address",
          "name": "to",
          "type": "address"
        },
        {
          "internalType": "uint256",
          "name": "amount",
          "type": "uint256"
        }
      ],
      "name": "withdrawForInvestmentETH",
      "outputs": [],
      "stateMutability": "nonpayable",
      "type": "function"
    },
    {
      "inputs": [
        {
          "internalType": "address",
          "name": "to",
          "type": "address"
        },
        {
          "internalType": "uint256",
          "name": "amount",
          "type": "uint256"
        }
      ],
      "name": "withdrawForInvestmentUSDC",
      "outputs": [],
      "stateMutability": "nonpayable",
      "type": "function"
    },
    {
      "inputs": [
        {
          "internalType": "uint256",
          "name": "amount",
          "type": "uint256"
        }
      ],
      "name": "withdrawUtilityETH",
      "outputs": [],
      "stateMutability": "nonpayable",
      "type": "function"
    },
    {
      "inputs": [
        {
          "internalType": "uint256",
          "name": "amount",
          "type": "uint256"
        }
      ],
      "name": "withdrawUtilityUSDC",
      "outputs": [],
      "stateMutability": "nonpayable",
      "type": "function"
    },
    {
      "inputs": [
        {
          "internalType": "uint256",
          "name": "",
          "type": "uint256"
        }
      ],
      "name": "withdrawnUsers",
      "outputs": [
        {
          "internalType": "address",
          "name": "",
          "type": "address"
        }
      ],
      "stateMutability": "view",
      "type": "function"
    },
    {
      "stateMutability": "payable",
      "type": "receive"
    }
  ],
  "bytecode": "0x60a06040523462000208576200416a803803806200001d8162000223565b9283398101606082820312620002085781516001600160401b03908181116200020857830182601f82011215620002085780519182116200020d5760059282841b60209283806200007081850162000223565b809781520192820101928311620002085783809101915b838310620001ed5750620000af925060409150620000a790870162000249565b950162000249565b9260019384805560805262ed4e006002556a0422ca8b0a00a42500000060035560049165048c27395000835560018060a01b039081871615620001dc578254600160501b600160f01b03191660509790971b600160501b600160f01b03169690961782556000958694865b62000147575b604051613a559081620006f58239608051818181611a810152818161259b01526137800152f35b8051881015620001d657620001ad83838a871b84010151166200016a816200025e565b506200017681620002eb565b5062000182816200039a565b506200018e816200043a565b506200019a81620004da565b50620001a6816200057a565b506200061a565b506000198814620001c35786809801976200011a565b634e487b7160e01b865260118552602486fd5b62000120565b60405163d92e233d60e01b81528490fd5b8190620001fa8462000249565b815201910190839062000087565b600080fd5b634e487b7160e01b600052604160045260246000fd5b6040519190601f01601f191682016001600160401b038111838210176200020d57604052565b51906001600160a01b03821682036200020857565b6001600160a01b0390811660008181527fad3228b676f7d3cd4284a5443f17f1962b36e491b30a40b2405849e597ba5fb5602052604081205490929060ff16620002e657828052826020526040832082845260205260408320600160ff19825416179055620002cc620006b5565b16916000805160206200414a8339815191528180a4600190565b505090565b6001600160a01b0390811660008181527f7d7ffb7a348e1c6a02869081a26547b49160dd3df72d1d75a570eb9b698292ec602052604081205490927fa49807205ce4d355092ef5a8a18f56e8913cf4a201fbe287825b095693c217759160ff1662000394576000805160206200414a83398151915290828552846020526040852084865260205260408520600160ff198254161790556200038b620006b5565b169380a4600190565b50505090565b6001600160a01b0390811660008181527ff7c9542c591017a21c74b6f3fab6263c7952fc0aaf9db4c22a2a04ddc7f8674f602052604081205490927f65d7a28e3265b37a6474929f336521b332c1681b933f6cb9f3376673440d862a9160ff1662000394576000805160206200414a83398151915290828552846020526040852084865260205260408520600160ff198254161790556200038b620006b5565b6001600160a01b0390811660008181527f2eb8dcb37180405b14a1bdb0a7c9bf5c42acb064f7e582ada9a56e709d942e57602052604081205490927fc806897caf4fd5068191157e44d3988e43139a37e0b97b6793e1ed11841406049160ff1662000394576000805160206200414a83398151915290828552846020526040852084865260205260408520600160ff198254161790556200038b620006b5565b6001600160a01b0390811660008181527f9505c8401a8a13f8b514b3efaaa61be2dc9810e3f02fbd8edeba297fdd793d65602052604081205490927ff60566c40710959d8d30b6067ce3c53c757bec78eecb0e46b83c7f8194ffae379160ff1662000394576000805160206200414a83398151915290828552846020526040852084865260205260408520600160ff198254161790556200038b620006b5565b6001600160a01b0390811660008181527fca62ffb99fa36d4130bbee1a8581c4d2fd87e1d2bf4a5e65538ad96ae66582c9602052604081205490927f78c90eb9e475048b483a290aee04b5fe48355537c3623c7637b17d3bed71c6ed9160ff1662000394576000805160206200414a83398151915290828552846020526040852084865260205260408520600160ff198254161790556200038b620006b5565b6001600160a01b0390811660008181527fe84508f2c7fa9c351146748b3025cb78b45df37d868e48c6a75102fecdeee645602052604081205490927f241ecf16d79d0f8dbfb92cbc07fe17840425976cf0667f022fe9877caa831b089160ff1662000394576000805160206200414a83398151915290828552846020526040852084865260205260408520600160ff198254161790556200038b5b601436101580620006df575b15620006db57601319360136811162000208573560601c90565b3390565b506080516001600160a01b03163314620006c156fe608080604052600436101561001d575b50361561001b57600080fd5b005b60003560e01c90816301ffc9a7146132d65750806304c68af01461329c578063052d9e7e1461325d57806308f43333146131b95780630c016ad51461317e57806317b51642146130f55780631c5aeef7146130d7578063246d47b7146130b1578063248a9ca31461308257806327175b2314613064578063275991d214612e265780632a5bf6d214612d075780632aad5edd14612ce95780632e1a7d4d14612a875780632f2ff15d14612a485780633408567c14612a0e57806336568abe146129bd5780633ac439701461299f5780633af32abf1461296057806341debf1f146128c457806347af19aa146127f35780634e43603a1461266657806351fb012d1461264057806353d6fd59146125c2578063572b6c0514612572578063588583a01461254a5780635983b0bd146124535780635e2c19db146124145780636068d6cb146123f157806364021b131461237d5780636426be481461229e57806365d5ec961461225f5780636c6ff56c146121625780636ec239951461210157806372e5539914611c4357806375b238fc14611c08578063762e1c7314611ba257806376c1d3db14611ab05780637da0a87714611a6b578063867d099a146118fb578063885f5029146118c0578063886d589d14611886578063899aa9911461186857806389a302711461183957806389bad0a61461179b5780638b713b2e1461177d5780638dd4928e146115ff57806391d14854146115b257806393055c431461151357806397d9e5b4146114f55780639ddc3912146114d75780639e657e331461147c578063a217fddf14611460578063a59aa5a614611360578063b2118a8d14611292578063b2b77ae21461126c578063b65ba94b1461124e578063b758aeaa14611177578063bda821e814610f3b578063c6d95b7414610e64578063c771c39014610e18578063d547741f14610dd9578063d830d5cc14610d08578063da8d5add14610c7a578063e043b2b214610c3f578063e15e23c114610c21578063e340b78314610c03578063e399067f14610b3a578063e63ab1e914610aff578063e9fe0c7814610ac5578063ec87621c14610a8a578063ee947a7c14610a6c578063f29b223914610a3f578063f5f11350146109b9578063f5f69af214610946578063f6326fb314610719578063f688bcfb146103a75763fd46a17114610384573861000f565b346103a25760003660031901126103a2576020601754604051908152f35b600080fd5b346103a2576020806003193601126103a257600435906103c5613879565b60055460ff81166107075782156106f5576103e2836010546137ee565b600454106106e35760101c60ff16806106bb575b6106a95761043e8183610407613755565b6040516323b872dd60e01b81526001600160a01b039091166004820152306024820152604481019190915291829081906064820190565b0381600073833589fcd6edb6e08f4c7c32d4f71b54bda029135af1801561069d57610670575b506001600160a01b03610475613755565b1691826000526006825260406000209260405193610492856137fb565b6001600160601b03808416865284860160008152604087019665ffffffffffff908142168952606081019360008552608082019360019a8b865260a0840197600089528054600160401b81101561065a576104f1918e82018155613373565b9390936106445793518354925191516001600160f01b031990931694169390931760609390931b600160601b600160c01b03169290921760c09290921b65ffffffffffff60c01b1691909117815592519288018054925191909316939091600283101561062e576105929460ff60301b60ff9460301b169166ffffffffffffff191617178355511660ff60381b82549160381b169060ff60381b1916179055565b80600052600d8352604060002084815460ff81161561061f575b505060068452506040600020546000198101939084116106095760a06000805160206139e083398151915291610602958560405192898452830152426040830152606082015260006080820152a26010546137ee565b6010558055005b634e487b7160e01b600052601160045260246000fd5b60ff19161790558484816105ac565b634e487b7160e01b600052602160045260246000fd5b634e487b7160e01b600052600060045260246000fd5b634e487b7160e01b600052604160045260246000fd5b61068f90823d8411610696575b6106878183613817565b81019061389c565b5082610464565b503d61067d565b6040513d6000823e3d90fd5b604051630b094f2760e31b8152600490fd5b506001600160a01b036106cc613755565b166000526007815260ff60406000205416156103f6565b604051636bf4c8e960e11b8152600490fd5b60405163162908e360e11b8152600490fd5b60405163deeb694360e01b8152600490fd5b60003660031901126103a25761072d613879565b60055460ff81166107075734156106f55761074a34600f546137ee565b600354106106e35760101c60ff168061091d575b6106a9576001600160a01b03610772613755565b16806000526006602052604060002060405161078d816137fb565b6001600160601b03908134168152602081019160008352604082019165ffffffffffff91824216845260608201946000865260808301946000865260a0840197600089528054600160401b81101561065a576107ee91600182018155613373565b9390936106445793518354925191516001600160f01b031990931694169390931760609390931b600160601b600160c01b03169290921760c09290921b65ffffffffffff60c01b1691909117815592516001939093018054925191909316939091600283101561062e576108929460ff60301b60ff9460301b169166ffffffffffffff191617178355511660ff60381b82549160381b169060ff60381b1916179055565b80600052600d6020526040600020805460ff81161561090d575b5050600660205260406000205460001981019081116106095760a06000805160206139e0833981519152916040519060008252346020830152426040830152606082015260006080820152a261090434600f546137ee565b600f5560018055005b60ff1916600117905581806108ac565b506001600160a01b0361092e613755565b16600052600760205260ff604060002054161561075e565b346103a25760403660031901126103a25760043560028110156103a25760407f5d7976bccd4b396c1a1a0020032e62bf8a381bcffc61e69a13ea61761b7572189160243561099261346e565b816109b057806003555b6109a8835180936133a5565b6020820152a1005b8060045561099c565b346103a2576109c73661342e565b906109d061346e565b60005b8281106109dc57005b610a3a9060018060a01b0385166000526006602052610a356001610a106040600020610a098589896137bd565b3590613373565b5001805460ff60381b198116603891821c60ff1660041790911b60ff60381b16179055565b6137ae565b6109d3565b346103a25760003660031901126103a25760055460405160509190911c6001600160a01b03168152602090f35b346103a25760003660031901126103a2576020600254604051908152f35b346103a25760003660031901126103a25760206040517f241ecf16d79d0f8dbfb92cbc07fe17840425976cf0667f022fe9877caa831b088152f35b346103a25760203660031901126103a2576001600160a01b03610ae6613329565b16600052600a6020526020604060002054604051908152f35b346103a25760003660031901126103a25760206040517f65d7a28e3265b37a6474929f336521b332c1681b933f6cb9f3376673440d862a8152f35b346103a25760003660031901126103a257610b53613879565b610b5b613755565b6001600160a01b03811660008181526009602052604090205490918115610bf1576000808084819487835260096020528260408120555af1610b9b613839565b5015610bdf5760607f6914793c7a82461acec66c7de7fdbbbf1f825c26bc2fe939b61f0e4f8964c2b59160405190600082526020820152426040820152a260018055005b6040516312171d8360e31b8152600490fd5b604051633bd65a7b60e21b8152600490fd5b346103a25760003660031901126103a2576020601254604051908152f35b346103a25760003660031901126103a2576020601654604051908152f35b346103a25760003660031901126103a25760206040517fc806897caf4fd5068191157e44d3988e43139a37e0b97b6793e1ed11841406048152f35b346103a25760003660031901126103a257610c9361346e565b60055460ff8160181c16610cf65763010000009069ffffffffffff000000004260201b169069ffffffffffffff000000191617176005557f2388ceaed48d21bd0802856df41a22705f9046a67a817a047352aa3bbfe5c5d16020604051428152a1005b60405163ae7fe58960e01b8152600490fd5b346103a25760203660031901126103a257600435610d24613548565b80156106f557610d38602082610407613755565b0381600073833589fcd6edb6e08f4c7c32d4f71b54bda029135af1801561069d57610dbb575b50610d6b816014546137ee565b6014557f8bafec96fcffb6f12596b4635c76397b7bc1f363b22c49c13136b63677323dcc6060610d99613755565b6040805160018152602081019590955242908501526001600160a01b031692a2005b610dd29060203d8111610696576106878183613817565b5081610d5e565b346103a25760403660031901126103a25761001b600435610df861333f565b90806000526000602052610e13600160406000200154613622565b6136e3565b346103a25760203660031901126103a2577fc5e00a325524bc148ddc05bb642b804e9ae1dfc670c217ed3c4c6595f7427ef46020600435610e5761346e565b80600255604051908152a1005b346103a25760403660031901126103a257610e7d613329565b602435610e886134db565b610e90613879565b6001600160a01b03828116928315610f2957478311610f175760008080858194610ebc826017546137ee565b6017555af1610ec9613839565b5015610bdf5760607f8d4f9c9a6da9172da9a02229d92e4af088c62953986a74048d010260b197def391610efb613755565b604051946000865260208601524260408601521692a360018055005b604051631e9acf1760e31b8152600490fd5b60405163d92e233d60e01b8152600490fd5b346103a25760003660031901126103a257610f54613879565b6001600160a01b03610f64613755565b1680600052602090600a82526040600020548015610bf15781600052600a8352600060408120556006835260406000209260405193610fa2856137fb565b6001600160601b03808416865282860160008152604087019665ffffffffffff908142168952606081019360008552608082019360019a8b865260a0840197600889528054600160401b81101561065a57611001918e82018155613373565b9390936106445793518354925191516001600160f01b031990931694169390931760609390931b600160601b600160c01b03169290921760c09290921b65ffffffffffff60c01b1691909117815592519288018054925191909316939091600283101561062e576110a29460ff60301b60ff9460301b169166ffffffffffffff191617178355511660ff60381b82549160381b169060ff60381b1916179055565b82600052600d8152604060002084815460ff811615611168575b50506006825250604060002054600019810191908211610609577f997d2ec09b086de73d509bbc4ad2b52fd7e2338024464bede93a41abd6ccdc3892846000805160206139e083398151915260a0606095604051908a8252858783015242604083015287820152896080820152a2611136816016546137ee565b60165584600052600c825260406000206111518282546137ee565b905560405191868352820152426040820152a28055005b60ff19161790558484816110bc565b346103a257611185366133e3565b929161118f61346e565b83810361123c579291906000936000935b8185106111d257601354868181116111c0576111bb916138b4565b601355005b604051632f37549d60e01b8152600490fd5b90919293946111e28683866137bd565b359081156106f5576112339161122d916001600160a01b0361120d6112088b898c6137bd565b6137da565b16600052600960205260406000206112268382546137ee565b90556137ee565b956137ae565b939291906111a0565b60405163512509d360e11b8152600490fd5b346103a25760003660031901126103a2576020601354604051908152f35b346103a25760003660031901126103a257602060ff60055460081c166040519015158152f35b346103a25760603660031901126103a2576112ab613329565b6112b361333f565b604435916112bf61346e565b6001600160a01b0382811693908415610f295760405163a9059cbb60e01b81526001600160a01b03949094166004850152602484018290529190911691906020826044816000875af190811561069d577f8bbfbb5d7fcacf6fc74005cdede0635561638507f576c95f7f294c22141be2e592602092611343575b50604051908152a3005b61135990833d8111610696576106878183613817565b5085611339565b346103a25760003660031901126103a2576040516370a0823160e01b81523060048201524760208260248173833589fcd6edb6e08f4c7c32d4f71b54bda029135afa801561069d5760009061142d575b6101c09250600f546010546011546012546013546014549060155492601654946017549660185498600e549a6040519c8d5260208d015260408c015260608b015260808a015260a089015260c088015260e087015261010086015261012085015261014084015261016083015260006101808301526101a0820152f35b506020823d8211611458575b8161144660209383613817565b810103126103a2576101c091516113b0565b3d9150611439565b346103a25760003660031901126103a257602060405160008152f35b346103a25760203660031901126103a257600435600e548110156103a257600e6000527fbb7b4a454dc3493923482f07822329ed19e8244eff582cc204f8554c3620c3fd01546040516001600160a01b039091168152602090f35b346103a25760003660031901126103a2576020600354604051908152f35b346103a25760003660031901126103a2576020601554604051908152f35b346103a25760203660031901126103a25760043561152f6135b5565b611537613879565b6005546001600160a01b039060501c81168015610f2957478311610f1757600080808581945af1611566613839565b5015610bdf5760607f9adbdc797aca3ce26a722598f00149b2328fd124444e6d0b10c4bdc7cfc381969160055460501c169260405190600082526020820152426040820152a260018055005b346103a25760403660031901126103a2576115cb61333f565b600435600052600060205260406000209060018060a01b0316600052602052602060ff604060002054166040519015158152f35b346103a25760403660031901126103a257611618613329565b602435906116246134db565b61162c613879565b6001600160a01b03818116929091908315610f29576040516370a0823160e01b81523060048201526020939073833589fcd6edb6e08f4c7c32d4f71b54bda02913908581602481855afa90811561069d57600091611750575b508311610f17578285916116da9561169f836018546137ee565b60185560405163a9059cbb60e01b81526001600160a01b03909116600482015260248101929092529094859190829060009082906044820190565b03925af191821561069d577f8d4f9c9a6da9172da9a02229d92e4af088c62953986a74048d010260b197def393606093611733575b50611718613755565b9060405195600187528601524260408601521692a360018055005b61174990863d8811610696576106878183613817565b508661170f565b90508581813d8311611776575b6117678183613817565b810103126103a2575187611685565b503d61175d565b346103a25760003660031901126103a2576020601154604051908152f35b346103a25760203660031901126103a2576117b4613329565b6117bc61346e565b6001600160a01b038116908115610f2957600580547fffff0000000000000000000000000000000000000000ffffffffffffffffffff1660509290921b600160501b600160f01b03169190911790556040519081527f1d6240e71a77c9e9d07d1d6ecbb9ea4274fcc8bc19adc5b05a3548ac7e40e18990602090a1005b346103a25760003660031901126103a257602060405173833589fcd6edb6e08f4c7c32d4f71b54bda029138152f35b346103a25760003660031901126103a2576020600f54604051908152f35b346103a25760203660031901126103a2576001600160a01b036118a7613329565b16600052600b6020526020604060002054604051908152f35b346103a25760003660031901126103a25760206040517f78c90eb9e475048b483a290aee04b5fe48355537c3623c7637b17d3bed71c6ed8152f35b346103a2576119093661342e565b91611912613755565b6001600160a01b0390811660008181527f2eb8dcb37180405b14a1bdb0a7c9bf5c42acb064f7e582ada9a56e709d942e57602090815260409091205490959294929160ff917fc806897caf4fd5068191157e44d3988e43139a37e0b97b6793e1ed118414060490831615611a4d57505060005b8281106119cb57604051878152858716907f8b655a966f162e1d3686ea25cd61682331984ab5662b451deff96f12d716f45b90806119c6818c01888a613950565b0390a2005b858516600052600687526119e86040600020610a098386886137bd565b5090600180920191825460381c90811615801590611a41575b611a2f57825460ff60381b191690841660021760381b60ff60381b1617909155611a2a906137ae565b611985565b60405163181821bd60e11b8152600490fd5b50600281161515611a01565b604492506040519163e2517d3f60e01b835260048301526024820152fd5b346103a25760003660031901126103a2576040517f00000000000000000000000000000000000000000000000000000000000000006001600160a01b03168152602090f35b346103a25760203660031901126103a257600435611acc6135b5565b611ad4613879565b60055460501c6001600160a01b03908116908115610f295760405163a9059cbb60e01b81526001600160a01b0392909216600483015260248201839052602082604481600073833589fcd6edb6e08f4c7c32d4f71b54bda029135af190811561069d577f9adbdc797aca3ce26a722598f00149b2328fd124444e6d0b10c4bdc7cfc3819692606092611b84575b5060055460501c169260405190600182526020820152426040820152a260018055005b611b9b9060203d8111610696576106878183613817565b5084611b61565b346103a25760403660031901126103a257611bbb613329565b602435611bc661346e565b80156106f55760145481116111c057611c039160018060a01b0316600052600a6020526040600020611bf98282546137ee565b90556014546138b4565b601455005b346103a25760003660031901126103a25760206040517fa49807205ce4d355092ef5a8a18f56e8913cf4a201fbe287825b095693c217758152f35b346103a25760203660031901126103a25760043567ffffffffffffffff81116103a257611c749036906004016133b2565b90611c7d613879565b60ff60055460081c166120ef57611c92613755565b60009283929183808080805b868110611ee0575080611ecb575b5080611eb6575b506001600160a01b03831660009081526008602052604090205460ff161580611ead575b611e7c575b611ce681836137ee565b611df3575b5050611cf784866137ee565b611d02575b60018055005b836020611d12611d4296886137ee565b60405163a9059cbb60e01b81526001600160a01b0385166004820152602481019190915295869081906044820190565b0381600073833589fcd6edb6e08f4c7c32d4f71b54bda029135af194851561069d577fbf06e98fe211a4b82f625232ab1c7a75caea5e0d624bc267578d6f22fce788c395611dd4575b50611daa6040519485946001865260a0602087015260a0860191613950565b604084019690965260608301524260808301526001600160a01b0316930390a28080808080611cfc565b611dec9060203d602011610696576106878183613817565b5086611d8b565b6000808080611e0285876137ee565b875af1611e0d613839565b5015610bdf577fbf06e98fe211a4b82f625232ab1c7a75caea5e0d624bc267578d6f22fce788c390604051906000825260a06020830152611e5260a083018789613950565b604083019490945260608201524260808201526001600160a01b0384169281900390a28580611ceb565b611e85836138c1565b6001600160a01b0383166000908152600860205260409020805460ff19166001179055611cdc565b50831515611cd7565b611ec2906012546137ee565b60125587611cb3565b611ed7906011546137ee565b60115588611cac565b90939192611eef82888a6137bd565b359460018060a01b0387166000526006602052611f10866040600020613373565b5091600183015460381c600181166120dd57611f3b65ffffffffffff855460c01c16600254906137ee565b4210806120d2575b806120b0575b61209e57600160ff611f75921617600185019060ff60381b82549160381b169060ff60381b1916179055565b65ffffffffffff421665ffffffffffff1960018501541617928360018201555491600260ff8560301c16101561062e5760ff8460301c16156000146120415788611fee989796959361203461200061203c9795611ff4600080516020613a00833981519152966001600160601b039e8f871680926137ee565b9b6137ee565b9c8460601c16906137ee565b995b6040516001600160a01b039094169584934291606082901c6001600160601b0390811692169060301c60ff1686613925565b0390a26137ae565b611c9e565b93919290959496889b9c6001600160601b0385169687612060916137ee565b9661206a916137ee565b9c8460601c6001600160601b0316612081916137ee565b9b61203c94612034600080516020613a0083398151915293612002565b60405163f38b9b5b60e01b8152600490fd5b5060ff60055460181c16806120c6575b15611f49565b506004811615156120c0565b506002811615611f43565b604051636507689f60e01b8152600490fd5b604051636022a9e760e01b8152600490fd5b346103a25760403660031901126103a25761211a613329565b60243561212561346e565b80156106f55760135481116111c0576111bb9160018060a01b0316600052600960205260406000206121588282546137ee565b90556013546138b4565b346103a25760003660031901126103a25761217b613879565b612183613755565b60018060a01b03811690816000526020600a8152604060002054908115610bf1576000848152600a825260408082208290555163a9059cbb60e01b81526001600160a01b039490941660048501526024840183905281908490604490829073833589fcd6edb6e08f4c7c32d4f71b54bda029135af191821561069d577f6914793c7a82461acec66c7de7fdbbbf1f825c26bc2fe939b61f0e4f8964c2b593606093612242575b506040519160018352820152426040820152a260018055005b61225890833d8511610696576106878183613817565b5085612229565b346103a25760203660031901126103a2576001600160a01b03612280613329565b16600052600d602052602060ff604060002054166040519015158152f35b346103a25760403660031901126103a2576122b7613355565b6122bf613364565b906122c8613755565b6001600160a01b031660008181527ff7c9542c591017a21c74b6f3fab6263c7952fc0aaf9db4c22a2a04ddc7f8674f60205260409020547f65d7a28e3265b37a6474929f336521b332c1681b933f6cb9f3376673440d862a9060ff1615611a4d577fac1664632d6278432aa05a6afc0aa83e5ea08e8df9a1436736daa5d6283211c0604085851515906005549015159061ff008260081b169060ff84169061ffff1916171760055582519182526020820152a1005b60003660031901126103a257612391613548565b34156106f5576123a3346013546137ee565b6013556123ae613755565b7f8bafec96fcffb6f12596b4635c76397b7bc1f363b22c49c13136b63677323dcc6060604051926000845234602085015242604085015260018060a01b031692a2005b346103a25760003660031901126103a257602060ff600554166040519015158152f35b346103a25760203660031901126103a2576001600160a01b03612435613329565b166000526008602052602060ff604060002054166040519015158152f35b346103a25760203660031901126103a25760043561246f6134db565b612477613879565b80156106f5576018548082116125385781612491916138b4565b6018556124a2602082610407613755565b0381600073833589fcd6edb6e08f4c7c32d4f71b54bda029135af1801561069d5761251a575b507f1b0029d3a4003762f16d0dc71199ce167b1d4bf00c5b97a3e28f613e921d654060606124f4613755565b6040805160018152602081019590955242908501526001600160a01b031692a260018055005b6125319060203d8111610696576106878183613817565b50816124c8565b604051630471131160e21b8152600490fd5b346103a25760003660031901126103a257602060055465ffffffffffff60405191831c168152f35b346103a25760203660031901126103a257602061258d613329565b6040519060018060a01b03807f0000000000000000000000000000000000000000000000000000000000000000169116148152f35b346103a25760403660031901126103a2576125db613329565b7f995d2434d36c9bceaab42c56efe51e8ffe41fd11cabefd9e2cb83700d8b2035e6020612606613364565b9261260f61346e565b6001600160a01b031660008181526007835260409020805460ff191660ff86151516179055926040519015158152a2005b346103a25760003660031901126103a257602060ff60055460101c166040519015158152f35b346103a25760203660031901126103a25761267f613329565b6001600160a01b031660008181526006602052604081208054919283928392839283928392835b8281106126fb575050509561010096600052600960205260406000205491600a60205260406000205493604051978852602088015260408701526060860152608085015260a084015260c083015260e0820152f35b61270e6127088284613373565b50613974565b9860a08a019960088b511615156080820151600281101561062e576127915760016127456001600160601b039485855116906137ee565b9c511661277c575b612762575b505061275d906137ae565b6126a6565b976127749161275d93995116906137ee565b96908b612752565b9661278b9083835116906137ee565b9661274d565b60016127ad6001600160601b039d9a949d9485855116906137ee565b9951166127de575b6127c457505061275d906137ae565b986127d69161275d939a5116906137ee565b97908b612752565b9b6127ed9083835116906137ee565b9b6127b5565b346103a257612801366133e3565b61280961346e565b80830361123c5760005b83811061281c57005b8061283361282e6128bf9385876137bd565b6137cd565b6001600160a01b03907f995d2434d36c9bceaab42c56efe51e8ffe41fd11cabefd9e2cb83700d8b2035e908261286d611208868b8d6137bd565b166000526128916020916007835260406000209060ff801983541691151516179055565b61289f611208858a8c6137bd565b926128ae61282e86898b6137bd565b9360405194151585521692a26137ae565b612813565b346103a2576128d2366133e3565b92916128dc61346e565b83810361123c579291906000936000935b81851061290857601454868181116111c057611c03916138b4565b90919293946129188683866137bd565b359081156106f5576129579161122d916001600160a01b0361293e6112088b898c6137bd565b16600052600a60205260406000206112268382546137ee565b939291906128ed565b346103a25760203660031901126103a2576001600160a01b03612981613329565b166000526007602052602060ff604060002054166040519015158152f35b346103a25760003660031901126103a2576020601454604051908152f35b346103a25760403660031901126103a2576129d661333f565b6001600160a01b03806129e7613755565b16908216036129fc5761001b906004356136e3565b60405163334bd91960e11b8152600490fd5b346103a25760203660031901126103a2576001600160a01b03612a2f613329565b1660005260096020526020604060002054604051908152f35b346103a25760403660031901126103a25761001b600435612a6761333f565b90806000526000602052612a82600160406000200154613622565b61365c565b346103a2576020806003193601126103a25760043590612aa5613879565b60055460ff92838260081c166120ef57612abd613755565b9160018060a01b038316938460005260068152612ade836040600020613373565b509260019687850193845460381c8981166120dd5765ffffffffffff9183612b0f848a5460c01c16600254906137ee565b42109182612cdd575b82612cbd575b505061209e57855460ff60381b19169083168a1760381b60ff60381b16178555421665ffffffffffff1985541617948585555493816001600160601b038087169660601c169660301c16600281101561062e57612c1157612b81856011546137ee565b6011556000808080612b938a8a6137ee565b8b5af1612b9e613839565b5015610bdf57600080516020613a0083398151915296612be4945b8960005260088152836040600020541615612beb575b50505460301c16604051948594429286613925565b0390a28055005b612bf66008926138c1565b896000525260406000208960ff198254161790558980612bcf565b612c5f96612c21866012546137ee565b60125584612c2f88886137ee565b60405163a9059cbb60e01b81526001600160a01b0384166004820152602481019190915298899081906044820190565b0381600073833589fcd6edb6e08f4c7c32d4f71b54bda029135af194851561069d57600080516020613a0083398151915298612be496612ca0575b50612bb9565b612cb690823d8411610696576106878183613817565b508b612c9a565b60181c16905080612cd1575b15838c612b1e565b50600481161515612cc9565b60028416159250612b18565b346103a25760003660031901126103a2576020601854604051908152f35b346103a2576020806003193601126103a2576001600160a01b03612d29613329565b1660005260068152604060002090815467ffffffffffffffff811161065a5760405190612d5b838260051b0183613817565b8082528282018094600052836000206000915b838310612e095760408051878152865181890181905289928201908960005b828110612d9a5784840385f35b9091928260c060019288516001600160601b0380825116835284820151168483015265ffffffffffff806040830151166040840152606090818301511690830152612ded608080830151908401906133a5565b60ff60a080920151169082015201960191019492919094612d8d565b600286600192612e1885613974565b815201920192019190612d6e565b346103a25760003660031901126103a257612e3f613879565b6001600160a01b03612e4f613755565b1680600052602090600982526040600020548015610bf15781600052600983526000604081205560068352604060002092604051612e8c816137fb565b6001600160601b03808416825282820160008152604083019265ffffffffffff90814216855260608101936000855260808201936000855260a0830196600888528b54600160401b81101561065a57612eec9060019d8e82018155613373565b9390936106445793518354925191516001600160f01b031990931694169390931760609390931b600160601b600160c01b03169290921760c09290921b65ffffffffffff60c01b1691909117815592519288018054925191909316939091600283101561062e57612f8d9460ff60301b60ff9460301b169166ffffffffffffff191617178355511660ff60381b82549160381b169060ff60381b1916179055565b82600052600d8152604060002084815460ff811615613055575b50506006825250604060002054600019810191908211610609577f997d2ec09b086de73d509bbc4ad2b52fd7e2338024464bede93a41abd6ccdc3892846000805160206139e083398151915260a06060956040519060008252858783015242604083015287820152896080820152a2613022816015546137ee565b60155584600052600b8252604060002061303d8282546137ee565b90556040519160008352820152426040820152a28055005b60ff1916179055848481612fa7565b346103a25760003660031901126103a2576020601054604051908152f35b346103a25760203660031901126103a25760043560005260006020526020600160406000200154604051908152f35b346103a25760003660031901126103a257602060ff60055460181c166040519015158152f35b346103a25760003660031901126103a2576020600454604051908152f35b60003660031901126103a2576131096134db565b613111613879565b34156106f5576017548034116125385761312c9034906138b4565b601755613137613755565b7f1b0029d3a4003762f16d0dc71199ce167b1d4bf00c5b97a3e28f613e921d65406060604051926000845234602085015242604085015260018060a01b031692a260018055005b346103a25760003660031901126103a25760206040517ff60566c40710959d8d30b6067ce3c53c757bec78eecb0e46b83c7f8194ffae378152f35b346103a25760403660031901126103a2576131d2613329565b6001600160a01b03166000908152600660205260409020805460243591908210156103a25760c09161320391613373565b5060ff60018254920154604051926001600160601b0380821685528160601c16602085015265ffffffffffff8091861c1660408501528116606084015261325260808401838360301c166133a5565b60381c1660a0820152f35b346103a25760203660031901126103a257613276613355565b61327e61346e565b62ff000060055491151560101b169062ff0000191617600555600080f35b346103a25760203660031901126103a2576001600160a01b036132bd613329565b16600052600c6020526020604060002054604051908152f35b346103a25760203660031901126103a2576004359063ffffffff60e01b82168092036103a257602091637965db0b60e01b8114908115613318575b5015158152f35b6301ffc9a760e01b14905083613311565b600435906001600160a01b03821682036103a257565b602435906001600160a01b03821682036103a257565b6004359081151582036103a257565b6024359081151582036103a257565b805482101561338f5760005260206000209060011b0190600090565b634e487b7160e01b600052603260045260246000fd5b90600282101561062e5752565b9181601f840112156103a25782359167ffffffffffffffff83116103a2576020808501948460051b0101116103a257565b60406003198201126103a25767ffffffffffffffff916004358381116103a25782613410916004016133b2565b939093926024359182116103a25761342a916004016133b2565b9091565b9060406003198301126103a2576004356001600160a01b03811681036103a257916024359067ffffffffffffffff82116103a25761342a916004016133b2565b613476613755565b6001600160a01b031660008181527f7d7ffb7a348e1c6a02869081a26547b49160dd3df72d1d75a570eb9b698292ec60205260409020547fa49807205ce4d355092ef5a8a18f56e8913cf4a201fbe287825b095693c217759060ff1615611a4d575050565b6134e3613755565b6001600160a01b031660008181527fe84508f2c7fa9c351146748b3025cb78b45df37d868e48c6a75102fecdeee64560205260409020547f241ecf16d79d0f8dbfb92cbc07fe17840425976cf0667f022fe9877caa831b089060ff1615611a4d575050565b613550613755565b6001600160a01b031660008181527f9505c8401a8a13f8b514b3efaaa61be2dc9810e3f02fbd8edeba297fdd793d6560205260409020547ff60566c40710959d8d30b6067ce3c53c757bec78eecb0e46b83c7f8194ffae379060ff1615611a4d575050565b6135bd613755565b6001600160a01b031660008181527fca62ffb99fa36d4130bbee1a8581c4d2fd87e1d2bf4a5e65538ad96ae66582c960205260409020547f78c90eb9e475048b483a290aee04b5fe48355537c3623c7637b17d3bed71c6ed9060ff1615611a4d575050565b61362a613755565b9080600052600060205260406000209160018060a01b0316918260005260205260ff6040600020541615611a4d575050565b6000818152602081815260408083206001600160a01b039586168085529252822054919390929160ff166136dd577f2f8788117e7eff1d82e926ec794901d17c78024a50270940304540a733656f0d90828552846020526040852084865260205260408520600160ff198254161790556136d4613755565b169380a4600190565b50505090565b6000818152602081815260408083206001600160a01b039586168085529252822054919390929160ff16156136dd577ff6391f5c32d9c69d2a47ea670b442974b53935d1edc7fd64eb21e047a839171b9082855284602052604085208486526020526040852060ff1981541690556136d45b60143610158061377c575b156137785760131936013681116103a2573560601c90565b3390565b50337f00000000000000000000000000000000000000000000000000000000000000006001600160a01b031614613760565b60001981146106095760010190565b919081101561338f5760051b0190565b3580151581036103a25790565b356001600160a01b03811681036103a25790565b9190820180921161060957565b60c0810190811067ffffffffffffffff82111761065a57604052565b90601f8019910116810190811067ffffffffffffffff82111761065a57604052565b3d15613874573d9067ffffffffffffffff821161065a5760405191613868601f8201601f191660200184613817565b82523d6000602084013e565b606090565b60026001541461388a576002600155565b604051633ee5aeb560e01b8152600490fd5b908160209103126103a2575180151581036103a25790565b9190820391821161060957565b600e54600160401b81101561065a576001810180600e5581101561338f57600e6000527fbb7b4a454dc3493923482f07822329ed19e8244eff582cc204f8554c3620c3fd0180546001600160a01b0319166001600160a01b03909216919091179055565b9192608093969594919661393d8460a08101996133a5565b6020840152604083015260608201520152565b81835290916001600160fb1b0383116103a25760209260051b809284830137010190565b90604051613981816137fb565b809260018154916001600160601b0380841685528360601c16602085015265ffffffffffff809360c01c1660408501520154908116606083015260ff8160301c16600281101561062e5760a09160ff91608085015260381c1691015256fe48916ac7f9777648255ab8645729ff3b5d20aa412a40fe81dac2433522eaa058cb034b37ef3764745c35bafecd525367bcf312e9010239e6aeebbe6bcf57727fa2646970667358221220859934c75b20932874c2a6b6bace653ddb9db8c708424d84fcd76d1ac2f592e064736f6c634300081400332f8788117e7eff1d82e926ec794901d17c78024a50270940304540a733656f0d",
  "linkReferences": {},
  "deployedLinkReferences": {}
}