{
  "_format": "hh-sol-artifact-1",
  "contractName": "PoolPandoras",
  "sourceName": "contracts/PoolPandoras.sol",
  "abi": [
    {
      "inputs": [
        {
          "internalType": "address[]",
          "name": "initialAdmins",
          "type": "address[]"
        },
        {
          "internalType": "address",
          "name": "_utilityAddress",
          "type": "address"
        },
        {
          "internalType": "address",
          "name": "trustedForwarder",
          "type": "address"
        },
        {
          "internalType": "address",
          "name": "_usdcAddress",
          "type": "address"
        }
      ],
      "stateMutability": "nonpayable",
      "type": "constructor"
    },
    {
      "inputs": [],
      "name": "AccessControlBadConfirmation",
      "type": "error"
    },
    {
      "inputs": [
        {
          "internalType": "address",
          "name": "account",
          "type": "address"
        },
        {
          "internalType": "bytes32",
          "name": "neededRole",
          "type": "bytes32"
        }
      ],
      "name": "AccessControlUnauthorizedAccount",
      "type": "error"
    },
    {
      "inputs": [],
      "name": "AlreadyUnlockedOrWithdrawn",
      "type": "error"
    },
    {
      "inputs": [],
      "name": "AlreadyWithdrawn",
      "type": "error"
    },
    {
      "inputs": [],
      "name": "ArrayLengthMismatch",
      "type": "error"
    },
    {
      "inputs": [],
      "name": "CapReached",
      "type": "error"
    },
    {
      "inputs": [],
      "name": "DepositLocked",
      "type": "error"
    },
    {
      "inputs": [],
      "name": "DepositsPaused",
      "type": "error"
    },
    {
      "inputs": [],
      "name": "ExceedsTotalUtility",
      "type": "error"
    },
    {
      "inputs": [],
      "name": "GlobalLiquidationAlreadyEnabled",
      "type": "error"
    },
    {
      "inputs": [],
      "name": "InsufficientBalance",
      "type": "error"
    },
    {
      "inputs": [],
      "name": "InvalidAmount",
      "type": "error"
    },
    {
      "inputs": [],
      "name": "NoUtilityToClaim",
      "type": "error"
    },
    {
      "inputs": [],
      "name": "NotWhitelisted",
      "type": "error"
    },
    {
      "inputs": [],
      "name": "ReentrancyGuardReentrantCall",
      "type": "error"
    },
    {
      "inputs": [],
      "name": "ReturnedAmountExceedsInvested",
      "type": "error"
    },
    {
      "inputs": [],
      "name": "TransferFailed",
      "type": "error"
    },
    {
      "inputs": [],
      "name": "WithdrawalsPaused",
      "type": "error"
    },
    {
      "inputs": [],
      "name": "ZeroAddress",
      "type": "error"
    },
    {
      "anonymous": false,
      "inputs": [
        {
          "indexed": true,
          "internalType": "address",
          "name": "user",
          "type": "address"
        },
        {
          "indexed": false,
          "internalType": "enum PoolPandoras.TokenType",
          "name": "token",
          "type": "uint8"
        },
        {
          "indexed": false,
          "internalType": "uint256[]",
          "name": "indices",
          "type": "uint256[]"
        },
        {
          "indexed": false,
          "internalType": "uint256",
          "name": "totalPrincipal",
          "type": "uint256"
        },
        {
          "indexed": false,
          "internalType": "uint256",
          "name": "totalYield",
          "type": "uint256"
        },
        {
          "indexed": false,
          "internalType": "uint256",
          "name": "when",
          "type": "uint256"
        }
      ],
      "name": "BatchWithdraw",
      "type": "event"
    },
    {
      "anonymous": false,
      "inputs": [
        {
          "indexed": true,
          "internalType": "address",
          "name": "user",
          "type": "address"
        },
        {
          "indexed": false,
          "internalType": "enum PoolPandoras.TokenType",
          "name": "token",
          "type": "uint8"
        },
        {
          "indexed": false,
          "internalType": "uint256",
          "name": "amount",
          "type": "uint256"
        },
        {
          "indexed": false,
          "internalType": "uint256",
          "name": "when",
          "type": "uint256"
        }
      ],
      "name": "ClaimUtility",
      "type": "event"
    },
    {
      "anonymous": false,
      "inputs": [
        {
          "indexed": false,
          "internalType": "string",
          "name": "key",
          "type": "string"
        },
        {
          "indexed": false,
          "internalType": "uint256",
          "name": "value",
          "type": "uint256"
        }
      ],
      "name": "ConfigChanged",
      "type": "event"
    },
    {
      "anonymous": false,
      "inputs": [
        {
          "indexed": true,
          "internalType": "address",
          "name": "user",
          "type": "address"
        },
        {
          "indexed": false,
          "internalType": "enum PoolPandoras.TokenType",
          "name": "token",
          "type": "uint8"
        },
        {
          "indexed": false,
          "internalType": "uint256",
          "name": "amount",
          "type": "uint256"
        },
        {
          "indexed": false,
          "internalType": "uint256",
          "name": "when",
          "type": "uint256"
        },
        {
          "indexed": false,
          "internalType": "uint256",
          "name": "depositIndex",
          "type": "uint256"
        },
        {
          "indexed": false,
          "internalType": "bool",
          "name": "reinvestment",
          "type": "bool"
        }
      ],
      "name": "Deposit",
      "type": "event"
    },
    {
      "anonymous": false,
      "inputs": [
        {
          "indexed": true,
          "internalType": "address",
          "name": "user",
          "type": "address"
        },
        {
          "indexed": false,
          "internalType": "uint256[]",
          "name": "indices",
          "type": "uint256[]"
        }
      ],
      "name": "DepositsUnlocked",
      "type": "event"
    },
    {
      "anonymous": false,
      "inputs": [
        {
          "indexed": true,
          "internalType": "address",
          "name": "token",
          "type": "address"
        },
        {
          "indexed": true,
          "internalType": "address",
          "name": "to",
          "type": "address"
        },
        {
          "indexed": false,
          "internalType": "uint256",
          "name": "amount",
          "type": "uint256"
        }
      ],
      "name": "ERC20Rescued",
      "type": "event"
    },
    {
      "anonymous": false,
      "inputs": [
        {
          "indexed": false,
          "internalType": "uint256",
          "name": "when",
          "type": "uint256"
        }
      ],
      "name": "GlobalLiquidationEnabled",
      "type": "event"
    },
    {
      "anonymous": false,
      "inputs": [
        {
          "indexed": true,
          "internalType": "address",
          "name": "manager",
          "type": "address"
        },
        {
          "indexed": false,
          "internalType": "enum PoolPandoras.TokenType",
          "name": "token",
          "type": "uint8"
        },
        {
          "indexed": false,
          "internalType": "uint256",
          "name": "amount",
          "type": "uint256"
        },
        {
          "indexed": false,
          "internalType": "uint256",
          "name": "when",
          "type": "uint256"
        }
      ],
      "name": "InvestmentReturned",
      "type": "event"
    },
    {
      "anonymous": false,
      "inputs": [
        {
          "indexed": false,
          "internalType": "uint256",
          "name": "newPeriod",
          "type": "uint256"
        }
      ],
      "name": "LockupPeriodChanged",
      "type": "event"
    },
    {
      "anonymous": false,
      "inputs": [
        {
          "indexed": false,
          "internalType": "enum PoolPandoras.TokenType",
          "name": "token",
          "type": "uint8"
        },
        {
          "indexed": false,
          "internalType": "uint256",
          "name": "newCap",
          "type": "uint256"
        }
      ],
      "name": "MaxCapChanged",
      "type": "event"
    },
    {
      "anonymous": false,
      "inputs": [
        {
          "indexed": false,
          "internalType": "bool",
          "name": "depositsPaused",
          "type": "bool"
        },
        {
          "indexed": false,
          "internalType": "bool",
          "name": "withdrawalsPaused",
          "type": "bool"
        }
      ],
      "name": "PauseChanged",
      "type": "event"
    },
    {
      "anonymous": false,
      "inputs": [
        {
          "indexed": true,
          "internalType": "address",
          "name": "user",
          "type": "address"
        },
        {
          "indexed": false,
          "internalType": "uint256",
          "name": "amount",
          "type": "uint256"
        },
        {
          "indexed": false,
          "internalType": "uint256",
          "name": "penalty",
          "type": "uint256"
        },
        {
          "indexed": false,
          "internalType": "uint256",
          "name": "when",
          "type": "uint256"
        }
      ],
      "name": "PenaltyApplied",
      "type": "event"
    },
    {
      "anonymous": false,
      "inputs": [
        {
          "indexed": true,
          "internalType": "uint256",
          "name": "id",
          "type": "uint256"
        },
        {
          "indexed": false,
          "internalType": "bool",
          "name": "executed",
          "type": "bool"
        }
      ],
      "name": "ProposalClosed",
      "type": "event"
    },
    {
      "anonymous": false,
      "inputs": [
        {
          "indexed": true,
          "internalType": "uint256",
          "name": "id",
          "type": "uint256"
        },
        {
          "indexed": true,
          "internalType": "address",
          "name": "proposer",
          "type": "address"
        },
        {
          "indexed": false,
          "internalType": "string",
          "name": "title",
          "type": "string"
        },
        {
          "indexed": false,
          "internalType": "uint256",
          "name": "endTime",
          "type": "uint256"
        }
      ],
      "name": "ProposalCreated",
      "type": "event"
    },
    {
      "anonymous": false,
      "inputs": [
        {
          "indexed": true,
          "internalType": "address",
          "name": "user",
          "type": "address"
        },
        {
          "indexed": false,
          "internalType": "enum PoolPandoras.TokenType",
          "name": "token",
          "type": "uint8"
        },
        {
          "indexed": false,
          "internalType": "uint256",
          "name": "amount",
          "type": "uint256"
        },
        {
          "indexed": false,
          "internalType": "uint256",
          "name": "when",
          "type": "uint256"
        }
      ],
      "name": "Reinvest",
      "type": "event"
    },
    {
      "anonymous": false,
      "inputs": [
        {
          "indexed": true,
          "internalType": "bytes32",
          "name": "role",
          "type": "bytes32"
        },
        {
          "indexed": true,
          "internalType": "bytes32",
          "name": "previousAdminRole",
          "type": "bytes32"
        },
        {
          "indexed": true,
          "internalType": "bytes32",
          "name": "newAdminRole",
          "type": "bytes32"
        }
      ],
      "name": "RoleAdminChanged",
      "type": "event"
    },
    {
      "anonymous": false,
      "inputs": [
        {
          "indexed": true,
          "internalType": "bytes32",
          "name": "role",
          "type": "bytes32"
        },
        {
          "indexed": true,
          "internalType": "address",
          "name": "account",
          "type": "address"
        },
        {
          "indexed": true,
          "internalType": "address",
          "name": "sender",
          "type": "address"
        }
      ],
      "name": "RoleGranted",
      "type": "event"
    },
    {
      "anonymous": false,
      "inputs": [
        {
          "indexed": true,
          "internalType": "bytes32",
          "name": "role",
          "type": "bytes32"
        },
        {
          "indexed": true,
          "internalType": "address",
          "name": "account",
          "type": "address"
        },
        {
          "indexed": true,
          "internalType": "address",
          "name": "sender",
          "type": "address"
        }
      ],
      "name": "RoleRevoked",
      "type": "event"
    },
    {
      "anonymous": false,
      "inputs": [
        {
          "indexed": true,
          "internalType": "address",
          "name": "user",
          "type": "address"
        },
        {
          "indexed": false,
          "internalType": "bool",
          "name": "status",
          "type": "bool"
        }
      ],
      "name": "UserWhitelisted",
      "type": "event"
    },
    {
      "anonymous": false,
      "inputs": [
        {
          "indexed": false,
          "internalType": "address",
          "name": "newUtilityAddress",
          "type": "address"
        }
      ],
      "name": "UtilityAddressChanged",
      "type": "event"
    },
    {
      "anonymous": false,
      "inputs": [
        {
          "indexed": true,
          "internalType": "address",
          "name": "admin",
          "type": "address"
        },
        {
          "indexed": false,
          "internalType": "enum PoolPandoras.TokenType",
          "name": "token",
          "type": "uint8"
        },
        {
          "indexed": false,
          "internalType": "uint256",
          "name": "amount",
          "type": "uint256"
        },
        {
          "indexed": false,
          "internalType": "uint256",
          "name": "when",
          "type": "uint256"
        }
      ],
      "name": "UtilityInjected",
      "type": "event"
    },
    {
      "anonymous": false,
      "inputs": [
        {
          "indexed": true,
          "internalType": "address",
          "name": "to",
          "type": "address"
        },
        {
          "indexed": false,
          "internalType": "enum PoolPandoras.TokenType",
          "name": "token",
          "type": "uint8"
        },
        {
          "indexed": false,
          "internalType": "uint256",
          "name": "amount",
          "type": "uint256"
        },
        {
          "indexed": false,
          "internalType": "uint256",
          "name": "when",
          "type": "uint256"
        }
      ],
      "name": "UtilityWithdrawn",
      "type": "event"
    },
    {
      "anonymous": false,
      "inputs": [
        {
          "indexed": true,
          "internalType": "uint256",
          "name": "id",
          "type": "uint256"
        },
        {
          "indexed": true,
          "internalType": "address",
          "name": "voter",
          "type": "address"
        },
        {
          "indexed": false,
          "internalType": "bool",
          "name": "support",
          "type": "bool"
        },
        {
          "indexed": false,
          "internalType": "uint256",
          "name": "weight",
          "type": "uint256"
        }
      ],
      "name": "Voted",
      "type": "event"
    },
    {
      "anonymous": false,
      "inputs": [
        {
          "indexed": true,
          "internalType": "address",
          "name": "user",
          "type": "address"
        },
        {
          "indexed": false,
          "internalType": "enum PoolPandoras.TokenType",
          "name": "token",
          "type": "uint8"
        },
        {
          "indexed": false,
          "internalType": "uint256",
          "name": "principal",
          "type": "uint256"
        },
        {
          "indexed": false,
          "internalType": "uint256",
          "name": "yield",
          "type": "uint256"
        },
        {
          "indexed": false,
          "internalType": "uint256",
          "name": "when",
          "type": "uint256"
        },
        {
          "indexed": false,
          "internalType": "uint256",
          "name": "depositIndex",
          "type": "uint256"
        }
      ],
      "name": "Withdraw",
      "type": "event"
    },
    {
      "anonymous": false,
      "inputs": [
        {
          "indexed": true,
          "internalType": "address",
          "name": "manager",
          "type": "address"
        },
        {
          "indexed": false,
          "internalType": "enum PoolPandoras.TokenType",
          "name": "token",
          "type": "uint8"
        },
        {
          "indexed": true,
          "internalType": "address",
          "name": "to",
          "type": "address"
        },
        {
          "indexed": false,
          "internalType": "uint256",
          "name": "amount",
          "type": "uint256"
        },
        {
          "indexed": false,
          "internalType": "uint256",
          "name": "when",
          "type": "uint256"
        }
      ],
      "name": "WithdrawnForInvestment",
      "type": "event"
    },
    {
      "inputs": [],
      "name": "ADMIN_ROLE",
      "outputs": [
        {
          "internalType": "bytes32",
          "name": "",
          "type": "bytes32"
        }
      ],
      "stateMutability": "view",
      "type": "function"
    },
    {
      "inputs": [],
      "name": "DEFAULT_ADMIN_ROLE",
      "outputs": [
        {
          "internalType": "bytes32",
          "name": "",
          "type": "bytes32"
        }
      ],
      "stateMutability": "view",
      "type": "function"
    },
    {
      "inputs": [],
      "name": "MANAGER_ROLE",
      "outputs": [
        {
          "internalType": "bytes32",
          "name": "",
          "type": "bytes32"
        }
      ],
      "stateMutability": "view",
      "type": "function"
    },
    {
      "inputs": [],
      "name": "PAUSER_ROLE",
      "outputs": [
        {
          "internalType": "bytes32",
          "name": "",
          "type": "bytes32"
        }
      ],
      "stateMutability": "view",
      "type": "function"
    },
    {
      "inputs": [],
      "name": "PROPOSAL_CREATOR_ROLE",
      "outputs": [
        {
          "internalType": "bytes32",
          "name": "",
          "type": "bytes32"
        }
      ],
      "stateMutability": "view",
      "type": "function"
    },
    {
      "inputs": [],
      "name": "PROPOSAL_THRESHOLD",
      "outputs": [
        {
          "internalType": "uint256",
          "name": "",
          "type": "uint256"
        }
      ],
      "stateMutability": "view",
      "type": "function"
    },
    {
      "inputs": [],
      "name": "UNLOCKER_ROLE",
      "outputs": [
        {
          "internalType": "bytes32",
          "name": "",
          "type": "bytes32"
        }
      ],
      "stateMutability": "view",
      "type": "function"
    },
    {
      "inputs": [],
      "name": "UTILITY_INJECTOR_ROLE",
      "outputs": [
        {
          "internalType": "bytes32",
          "name": "",
          "type": "bytes32"
        }
      ],
      "stateMutability": "view",
      "type": "function"
    },
    {
      "inputs": [],
      "name": "UTILITY_WITHDRAWER_ROLE",
      "outputs": [
        {
          "internalType": "bytes32",
          "name": "",
          "type": "bytes32"
        }
      ],
      "stateMutability": "view",
      "type": "function"
    },
    {
      "inputs": [],
      "name": "VP_ETH_MULTIPLIER",
      "outputs": [
        {
          "internalType": "uint256",
          "name": "",
          "type": "uint256"
        }
      ],
      "stateMutability": "view",
      "type": "function"
    },
    {
      "inputs": [
        {
          "internalType": "address",
          "name": "user",
          "type": "address"
        },
        {
          "internalType": "uint256",
          "name": "amount",
          "type": "uint256"
        }
      ],
      "name": "assignUtilityETH",
      "outputs": [],
      "stateMutability": "nonpayable",
      "type": "function"
    },
    {
      "inputs": [
        {
          "internalType": "address[]",
          "name": "users",
          "type": "address[]"
        },
        {
          "internalType": "uint256[]",
          "name": "amounts",
          "type": "uint256[]"
        }
      ],
      "name": "assignUtilityETHBatch",
      "outputs": [],
      "stateMutability": "nonpayable",
      "type": "function"
    },
    {
      "inputs": [
        {
          "internalType": "address",
          "name": "user",
          "type": "address"
        },
        {
          "internalType": "uint256",
          "name": "amount",
          "type": "uint256"
        }
      ],
      "name": "assignUtilityUSDC",
      "outputs": [],
      "stateMutability": "nonpayable",
      "type": "function"
    },
    {
      "inputs": [
        {
          "internalType": "address[]",
          "name": "users",
          "type": "address[]"
        },
        {
          "internalType": "uint256[]",
          "name": "amounts",
          "type": "uint256[]"
        }
      ],
      "name": "assignUtilityUSDCBatch",
      "outputs": [],
      "stateMutability": "nonpayable",
      "type": "function"
    },
    {
      "inputs": [
        {
          "internalType": "uint256[]",
          "name": "depositIndices",
          "type": "uint256[]"
        }
      ],
      "name": "batchWithdraw",
      "outputs": [],
      "stateMutability": "nonpayable",
      "type": "function"
    },
    {
      "inputs": [],
      "name": "claimUtilityETH",
      "outputs": [],
      "stateMutability": "nonpayable",
      "type": "function"
    },
    {
      "inputs": [],
      "name": "claimUtilityUSDC",
      "outputs": [],
      "stateMutability": "nonpayable",
      "type": "function"
    },
    {
      "inputs": [
        {
          "internalType": "uint256",
          "name": "proposalId",
          "type": "uint256"
        }
      ],
      "name": "closeProposal",
      "outputs": [],
      "stateMutability": "nonpayable",
      "type": "function"
    },
    {
      "inputs": [
        {
          "internalType": "string",
          "name": "title",
          "type": "string"
        },
        {
          "internalType": "string",
          "name": "description",
          "type": "string"
        },
        {
          "internalType": "uint256",
          "name": "daysOpen",
          "type": "uint256"
        }
      ],
      "name": "createProposal",
      "outputs": [],
      "stateMutability": "nonpayable",
      "type": "function"
    },
    {
      "inputs": [],
      "name": "depositETH",
      "outputs": [],
      "stateMutability": "payable",
      "type": "function"
    },
    {
      "inputs": [
        {
          "internalType": "uint256",
          "name": "amount",
          "type": "uint256"
        }
      ],
      "name": "depositUSDC",
      "outputs": [],
      "stateMutability": "nonpayable",
      "type": "function"
    },
    {
      "inputs": [],
      "name": "earlyWithdrawalPenaltyBps",
      "outputs": [
        {
          "internalType": "uint256",
          "name": "",
          "type": "uint256"
        }
      ],
      "stateMutability": "view",
      "type": "function"
    },
    {
      "inputs": [],
      "name": "enableGlobalLiquidation",
      "outputs": [],
      "stateMutability": "nonpayable",
      "type": "function"
    },
    {
      "inputs": [],
      "name": "getAllProposals",
      "outputs": [
        {
          "components": [
            {
              "internalType": "uint256",
              "name": "id",
              "type": "uint256"
            },
            {
              "internalType": "address",
              "name": "proposer",
              "type": "address"
            },
            {
              "internalType": "string",
              "name": "title",
              "type": "string"
            },
            {
              "internalType": "string",
              "name": "description",
              "type": "string"
            },
            {
              "internalType": "uint256",
              "name": "startTime",
              "type": "uint256"
            },
            {
              "internalType": "uint256",
              "name": "endTime",
              "type": "uint256"
            },
            {
              "internalType": "uint256",
              "name": "forVotes",
              "type": "uint256"
            },
            {
              "internalType": "uint256",
              "name": "againstVotes",
              "type": "uint256"
            },
            {
              "internalType": "bool",
              "name": "active",
              "type": "bool"
            },
            {
              "internalType": "bool",
              "name": "executed",
              "type": "bool"
            }
          ],
          "internalType": "struct PoolPandoras.Proposal[]",
          "name": "",
          "type": "tuple[]"
        }
      ],
      "stateMutability": "view",
      "type": "function"
    },
    {
      "inputs": [
        {
          "internalType": "bytes32",
          "name": "role",
          "type": "bytes32"
        }
      ],
      "name": "getRoleAdmin",
      "outputs": [
        {
          "internalType": "bytes32",
          "name": "",
          "type": "bytes32"
        }
      ],
      "stateMutability": "view",
      "type": "function"
    },
    {
      "inputs": [
        {
          "internalType": "address",
          "name": "user",
          "type": "address"
        }
      ],
      "name": "getUserDeposits",
      "outputs": [
        {
          "components": [
            {
              "internalType": "uint96",
              "name": "amount",
              "type": "uint96"
            },
            {
              "internalType": "uint96",
              "name": "yieldReceived",
              "type": "uint96"
            },
            {
              "internalType": "uint48",
              "name": "timestamp",
              "type": "uint48"
            },
            {
              "internalType": "uint48",
              "name": "withdrawnAt",
              "type": "uint48"
            },
            {
              "internalType": "enum PoolPandoras.TokenType",
              "name": "token",
              "type": "uint8"
            },
            {
              "internalType": "uint8",
              "name": "flags",
              "type": "uint8"
            }
          ],
          "internalType": "struct PoolPandoras.DepositInfo[]",
          "name": "",
          "type": "tuple[]"
        }
      ],
      "stateMutability": "view",
      "type": "function"
    },
    {
      "inputs": [
        {
          "internalType": "address",
          "name": "user",
          "type": "address"
        }
      ],
      "name": "getUserStats",
      "outputs": [
        {
          "internalType": "uint256",
          "name": "depositedETH",
          "type": "uint256"
        },
        {
          "internalType": "uint256",
          "name": "depositedUSDC",
          "type": "uint256"
        },
        {
          "internalType": "uint256",
          "name": "withdrawnETH",
          "type": "uint256"
        },
        {
          "internalType": "uint256",
          "name": "withdrawnUSDC",
          "type": "uint256"
        },
        {
          "internalType": "uint256",
          "name": "claimableUtilityETH",
          "type": "uint256"
        },
        {
          "internalType": "uint256",
          "name": "claimableUtilityUSDC",
          "type": "uint256"
        },
        {
          "internalType": "uint256",
          "name": "reinvestedETH",
          "type": "uint256"
        },
        {
          "internalType": "uint256",
          "name": "reinvestedUSDC",
          "type": "uint256"
        }
      ],
      "stateMutability": "view",
      "type": "function"
    },
    {
      "inputs": [],
      "name": "getVaultStats",
      "outputs": [
        {
          "internalType": "uint256",
          "name": "ethInVault",
          "type": "uint256"
        },
        {
          "internalType": "uint256",
          "name": "usdcInVault",
          "type": "uint256"
        },
        {
          "internalType": "uint256",
          "name": "totalDepositedETH_",
          "type": "uint256"
        },
        {
          "internalType": "uint256",
          "name": "totalDepositedUSDC_",
          "type": "uint256"
        },
        {
          "internalType": "uint256",
          "name": "totalWithdrawnETH_",
          "type": "uint256"
        },
        {
          "internalType": "uint256",
          "name": "totalWithdrawnUSDC_",
          "type": "uint256"
        },
        {
          "internalType": "uint256",
          "name": "totalUtilityETH_",
          "type": "uint256"
        },
        {
          "internalType": "uint256",
          "name": "totalUtilityUSDC_",
          "type": "uint256"
        },
        {
          "internalType": "uint256",
          "name": "totalReinvestedETH_",
          "type": "uint256"
        },
        {
          "internalType": "uint256",
          "name": "totalReinvestedUSDC_",
          "type": "uint256"
        },
        {
          "internalType": "uint256",
          "name": "totalInvestedETH_",
          "type": "uint256"
        },
        {
          "internalType": "uint256",
          "name": "totalInvestedUSDC_",
          "type": "uint256"
        },
        {
          "internalType": "uint256",
          "name": "numDepositors",
          "type": "uint256"
        },
        {
          "internalType": "uint256",
          "name": "numWithdrawnUsers",
          "type": "uint256"
        }
      ],
      "stateMutability": "view",
      "type": "function"
    },
    {
      "inputs": [
        {
          "internalType": "address",
          "name": "user",
          "type": "address"
        }
      ],
      "name": "getVotingPower",
      "outputs": [
        {
          "internalType": "uint256",
          "name": "",
          "type": "uint256"
        }
      ],
      "stateMutability": "view",
      "type": "function"
    },
    {
      "inputs": [],
      "name": "globalLiquidationEnabled",
      "outputs": [
        {
          "internalType": "bool",
          "name": "",
          "type": "bool"
        }
      ],
      "stateMutability": "view",
      "type": "function"
    },
    {
      "inputs": [],
      "name": "globalLiquidationTimestamp",
      "outputs": [
        {
          "internalType": "uint48",
          "name": "",
          "type": "uint48"
        }
      ],
      "stateMutability": "view",
      "type": "function"
    },
    {
      "inputs": [
        {
          "internalType": "bytes32",
          "name": "role",
          "type": "bytes32"
        },
        {
          "internalType": "address",
          "name": "account",
          "type": "address"
        }
      ],
      "name": "grantRole",
      "outputs": [],
      "stateMutability": "nonpayable",
      "type": "function"
    },
    {
      "inputs": [
        {
          "internalType": "bytes32",
          "name": "role",
          "type": "bytes32"
        },
        {
          "internalType": "address",
          "name": "account",
          "type": "address"
        }
      ],
      "name": "hasRole",
      "outputs": [
        {
          "internalType": "bool",
          "name": "",
          "type": "bool"
        }
      ],
      "stateMutability": "view",
      "type": "function"
    },
    {
      "inputs": [
        {
          "internalType": "uint256",
          "name": "",
          "type": "uint256"
        },
        {
          "internalType": "address",
          "name": "",
          "type": "address"
        }
      ],
      "name": "hasVoted",
      "outputs": [
        {
          "internalType": "bool",
          "name": "",
          "type": "bool"
        }
      ],
      "stateMutability": "view",
      "type": "function"
    },
    {
      "inputs": [
        {
          "internalType": "address",
          "name": "",
          "type": "address"
        }
      ],
      "name": "hasWithdrawn",
      "outputs": [
        {
          "internalType": "bool",
          "name": "",
          "type": "bool"
        }
      ],
      "stateMutability": "view",
      "type": "function"
    },
    {
      "inputs": [],
      "name": "injectUtilityETH",
      "outputs": [],
      "stateMutability": "payable",
      "type": "function"
    },
    {
      "inputs": [
        {
          "internalType": "uint256",
          "name": "amount",
          "type": "uint256"
        }
      ],
      "name": "injectUtilityUSDC",
      "outputs": [],
      "stateMutability": "nonpayable",
      "type": "function"
    },
    {
      "inputs": [
        {
          "internalType": "address",
          "name": "",
          "type": "address"
        }
      ],
      "name": "isKnownDepositor",
      "outputs": [
        {
          "internalType": "bool",
          "name": "",
          "type": "bool"
        }
      ],
      "stateMutability": "view",
      "type": "function"
    },
    {
      "inputs": [
        {
          "internalType": "address",
          "name": "forwarder",
          "type": "address"
        }
      ],
      "name": "isTrustedForwarder",
      "outputs": [
        {
          "internalType": "bool",
          "name": "",
          "type": "bool"
        }
      ],
      "stateMutability": "view",
      "type": "function"
    },
    {
      "inputs": [
        {
          "internalType": "address",
          "name": "",
          "type": "address"
        }
      ],
      "name": "isWhitelisted",
      "outputs": [
        {
          "internalType": "bool",
          "name": "",
          "type": "bool"
        }
      ],
      "stateMutability": "view",
      "type": "function"
    },
    {
      "inputs": [],
      "name": "lockupPeriod",
      "outputs": [
        {
          "internalType": "uint256",
          "name": "",
          "type": "uint256"
        }
      ],
      "stateMutability": "view",
      "type": "function"
    },
    {
      "inputs": [],
      "name": "maxCapETH",
      "outputs": [
        {
          "internalType": "uint256",
          "name": "",
          "type": "uint256"
        }
      ],
      "stateMutability": "view",
      "type": "function"
    },
    {
      "inputs": [],
      "name": "maxCapUSDC",
      "outputs": [
        {
          "internalType": "uint256",
          "name": "",
          "type": "uint256"
        }
      ],
      "stateMutability": "view",
      "type": "function"
    },
    {
      "inputs": [],
      "name": "minDepositETH",
      "outputs": [
        {
          "internalType": "uint256",
          "name": "",
          "type": "uint256"
        }
      ],
      "stateMutability": "view",
      "type": "function"
    },
    {
      "inputs": [],
      "name": "minDepositUSDC",
      "outputs": [
        {
          "internalType": "uint256",
          "name": "",
          "type": "uint256"
        }
      ],
      "stateMutability": "view",
      "type": "function"
    },
    {
      "inputs": [],
      "name": "pausedDeposits",
      "outputs": [
        {
          "internalType": "bool",
          "name": "",
          "type": "bool"
        }
      ],
      "stateMutability": "view",
      "type": "function"
    },
    {
      "inputs": [],
      "name": "pausedWithdrawals",
      "outputs": [
        {
          "internalType": "bool",
          "name": "",
          "type": "bool"
        }
      ],
      "stateMutability": "view",
      "type": "function"
    },
    {
      "inputs": [],
      "name": "proposalCount",
      "outputs": [
        {
          "internalType": "uint256",
          "name": "",
          "type": "uint256"
        }
      ],
      "stateMutability": "view",
      "type": "function"
    },
    {
      "inputs": [
        {
          "internalType": "uint256",
          "name": "",
          "type": "uint256"
        }
      ],
      "name": "proposals",
      "outputs": [
        {
          "internalType": "uint256",
          "name": "id",
          "type": "uint256"
        },
        {
          "internalType": "address",
          "name": "proposer",
          "type": "address"
        },
        {
          "internalType": "string",
          "name": "title",
          "type": "string"
        },
        {
          "internalType": "string",
          "name": "description",
          "type": "string"
        },
        {
          "internalType": "uint256",
          "name": "startTime",
          "type": "uint256"
        },
        {
          "internalType": "uint256",
          "name": "endTime",
          "type": "uint256"
        },
        {
          "internalType": "uint256",
          "name": "forVotes",
          "type": "uint256"
        },
        {
          "internalType": "uint256",
          "name": "againstVotes",
          "type": "uint256"
        },
        {
          "internalType": "bool",
          "name": "active",
          "type": "bool"
        },
        {
          "internalType": "bool",
          "name": "executed",
          "type": "bool"
        }
      ],
      "stateMutability": "view",
      "type": "function"
    },
    {
      "inputs": [],
      "name": "reinvestUtilityETH",
      "outputs": [],
      "stateMutability": "nonpayable",
      "type": "function"
    },
    {
      "inputs": [],
      "name": "reinvestUtilityUSDC",
      "outputs": [],
      "stateMutability": "nonpayable",
      "type": "function"
    },
    {
      "inputs": [
        {
          "internalType": "bytes32",
          "name": "role",
          "type": "bytes32"
        },
        {
          "internalType": "address",
          "name": "callerConfirmation",
          "type": "address"
        }
      ],
      "name": "renounceRole",
      "outputs": [],
      "stateMutability": "nonpayable",
      "type": "function"
    },
    {
      "inputs": [
        {
          "internalType": "address",
          "name": "token",
          "type": "address"
        },
        {
          "internalType": "address",
          "name": "to",
          "type": "address"
        },
        {
          "internalType": "uint256",
          "name": "amount",
          "type": "uint256"
        }
      ],
      "name": "rescueERC20",
      "outputs": [],
      "stateMutability": "nonpayable",
      "type": "function"
    },
    {
      "inputs": [],
      "name": "returnInvestmentETH",
      "outputs": [],
      "stateMutability": "payable",
      "type": "function"
    },
    {
      "inputs": [
        {
          "internalType": "uint256",
          "name": "amount",
          "type": "uint256"
        }
      ],
      "name": "returnInvestmentUSDC",
      "outputs": [],
      "stateMutability": "nonpayable",
      "type": "function"
    },
    {
      "inputs": [
        {
          "internalType": "bytes32",
          "name": "role",
          "type": "bytes32"
        },
        {
          "internalType": "address",
          "name": "account",
          "type": "address"
        }
      ],
      "name": "revokeRole",
      "outputs": [],
      "stateMutability": "nonpayable",
      "type": "function"
    },
    {
      "inputs": [
        {
          "internalType": "address",
          "name": "user",
          "type": "address"
        },
        {
          "internalType": "uint256[]",
          "name": "depositIndices",
          "type": "uint256[]"
        }
      ],
      "name": "setDepositsAsRedeemable",
      "outputs": [],
      "stateMutability": "nonpayable",
      "type": "function"
    },
    {
      "inputs": [
        {
          "internalType": "uint256",
          "name": "bps",
          "type": "uint256"
        }
      ],
      "name": "setEarlyWithdrawalPenalty",
      "outputs": [],
      "stateMutability": "nonpayable",
      "type": "function"
    },
    {
      "inputs": [
        {
          "internalType": "uint256",
          "name": "newPeriod",
          "type": "uint256"
        }
      ],
      "name": "setLockupPeriod",
      "outputs": [],
      "stateMutability": "nonpayable",
      "type": "function"
    },
    {
      "inputs": [
        {
          "internalType": "enum PoolPandoras.TokenType",
          "name": "token",
          "type": "uint8"
        },
        {
          "internalType": "uint256",
          "name": "newCap",
          "type": "uint256"
        }
      ],
      "name": "setMaxCap",
      "outputs": [],
      "stateMutability": "nonpayable",
      "type": "function"
    },
    {
      "inputs": [
        {
          "internalType": "enum PoolPandoras.TokenType",
          "name": "token",
          "type": "uint8"
        },
        {
          "internalType": "uint256",
          "name": "newMin",
          "type": "uint256"
        }
      ],
      "name": "setMinDeposit",
      "outputs": [],
      "stateMutability": "nonpayable",
      "type": "function"
    },
    {
      "inputs": [
        {
          "internalType": "bool",
          "name": "_deposits",
          "type": "bool"
        },
        {
          "internalType": "bool",
          "name": "_withdrawals",
          "type": "bool"
        }
      ],
      "name": "setPaused",
      "outputs": [],
      "stateMutability": "nonpayable",
      "type": "function"
    },
    {
      "inputs": [
        {
          "internalType": "address",
          "name": "newUtilityAddress",
          "type": "address"
        }
      ],
      "name": "setUtilityAddress",
      "outputs": [],
      "stateMutability": "nonpayable",
      "type": "function"
    },
    {
      "inputs": [
        {
          "internalType": "address",
          "name": "user",
          "type": "address"
        },
        {
          "internalType": "bool",
          "name": "status",
          "type": "bool"
        }
      ],
      "name": "setWhitelist",
      "outputs": [],
      "stateMutability": "nonpayable",
      "type": "function"
    },
    {
      "inputs": [
        {
          "internalType": "address[]",
          "name": "users",
          "type": "address[]"
        },
        {
          "internalType": "bool[]",
          "name": "statuses",
          "type": "bool[]"
        }
      ],
      "name": "setWhitelistBatch",
      "outputs": [],
      "stateMutability": "nonpayable",
      "type": "function"
    },
    {
      "inputs": [
        {
          "internalType": "bool",
          "name": "enabled",
          "type": "bool"
        }
      ],
      "name": "setWhitelistEnabled",
      "outputs": [],
      "stateMutability": "nonpayable",
      "type": "function"
    },
    {
      "inputs": [
        {
          "internalType": "bytes4",
          "name": "interfaceId",
          "type": "bytes4"
        }
      ],
      "name": "supportsInterface",
      "outputs": [
        {
          "internalType": "bool",
          "name": "",
          "type": "bool"
        }
      ],
      "stateMutability": "view",
      "type": "function"
    },
    {
      "inputs": [],
      "name": "totalDepositedETH",
      "outputs": [
        {
          "internalType": "uint256",
          "name": "",
          "type": "uint256"
        }
      ],
      "stateMutability": "view",
      "type": "function"
    },
    {
      "inputs": [],
      "name": "totalDepositedUSDC",
      "outputs": [
        {
          "internalType": "uint256",
          "name": "",
          "type": "uint256"
        }
      ],
      "stateMutability": "view",
      "type": "function"
    },
    {
      "inputs": [],
      "name": "totalInvestedETH",
      "outputs": [
        {
          "internalType": "uint256",
          "name": "",
          "type": "uint256"
        }
      ],
      "stateMutability": "view",
      "type": "function"
    },
    {
      "inputs": [],
      "name": "totalInvestedUSDC",
      "outputs": [
        {
          "internalType": "uint256",
          "name": "",
          "type": "uint256"
        }
      ],
      "stateMutability": "view",
      "type": "function"
    },
    {
      "inputs": [],
      "name": "totalReinvestedETH",
      "outputs": [
        {
          "internalType": "uint256",
          "name": "",
          "type": "uint256"
        }
      ],
      "stateMutability": "view",
      "type": "function"
    },
    {
      "inputs": [],
      "name": "totalReinvestedUSDC",
      "outputs": [
        {
          "internalType": "uint256",
          "name": "",
          "type": "uint256"
        }
      ],
      "stateMutability": "view",
      "type": "function"
    },
    {
      "inputs": [],
      "name": "totalUtilityETH",
      "outputs": [
        {
          "internalType": "uint256",
          "name": "",
          "type": "uint256"
        }
      ],
      "stateMutability": "view",
      "type": "function"
    },
    {
      "inputs": [],
      "name": "totalUtilityUSDC",
      "outputs": [
        {
          "internalType": "uint256",
          "name": "",
          "type": "uint256"
        }
      ],
      "stateMutability": "view",
      "type": "function"
    },
    {
      "inputs": [],
      "name": "totalWithdrawnETH",
      "outputs": [
        {
          "internalType": "uint256",
          "name": "",
          "type": "uint256"
        }
      ],
      "stateMutability": "view",
      "type": "function"
    },
    {
      "inputs": [],
      "name": "totalWithdrawnUSDC",
      "outputs": [
        {
          "internalType": "uint256",
          "name": "",
          "type": "uint256"
        }
      ],
      "stateMutability": "view",
      "type": "function"
    },
    {
      "inputs": [],
      "name": "trustedForwarder",
      "outputs": [
        {
          "internalType": "address",
          "name": "",
          "type": "address"
        }
      ],
      "stateMutability": "view",
      "type": "function"
    },
    {
      "inputs": [
        {
          "internalType": "address",
          "name": "user",
          "type": "address"
        },
        {
          "internalType": "uint256[]",
          "name": "depositIndices",
          "type": "uint256[]"
        }
      ],
      "name": "unlockDepositsForUser",
      "outputs": [],
      "stateMutability": "nonpayable",
      "type": "function"
    },
    {
      "inputs": [],
      "name": "usdc",
      "outputs": [
        {
          "internalType": "contract IERC20",
          "name": "",
          "type": "address"
        }
      ],
      "stateMutability": "view",
      "type": "function"
    },
    {
      "inputs": [
        {
          "internalType": "address",
          "name": "",
          "type": "address"
        }
      ],
      "name": "userClaimableUtilityETH",
      "outputs": [
        {
          "internalType": "uint256",
          "name": "",
          "type": "uint256"
        }
      ],
      "stateMutability": "view",
      "type": "function"
    },
    {
      "inputs": [
        {
          "internalType": "address",
          "name": "",
          "type": "address"
        }
      ],
      "name": "userClaimableUtilityUSDC",
      "outputs": [
        {
          "internalType": "uint256",
          "name": "",
          "type": "uint256"
        }
      ],
      "stateMutability": "view",
      "type": "function"
    },
    {
      "inputs": [
        {
          "internalType": "address",
          "name": "",
          "type": "address"
        },
        {
          "internalType": "uint256",
          "name": "",
          "type": "uint256"
        }
      ],
      "name": "userDeposits",
      "outputs": [
        {
          "internalType": "uint96",
          "name": "amount",
          "type": "uint96"
        },
        {
          "internalType": "uint96",
          "name": "yieldReceived",
          "type": "uint96"
        },
        {
          "internalType": "uint48",
          "name": "timestamp",
          "type": "uint48"
        },
        {
          "internalType": "uint48",
          "name": "withdrawnAt",
          "type": "uint48"
        },
        {
          "internalType": "enum PoolPandoras.TokenType",
          "name": "token",
          "type": "uint8"
        },
        {
          "internalType": "uint8",
          "name": "flags",
          "type": "uint8"
        }
      ],
      "stateMutability": "view",
      "type": "function"
    },
    {
      "inputs": [
        {
          "internalType": "address",
          "name": "",
          "type": "address"
        }
      ],
      "name": "userTotalReinvestedETH",
      "outputs": [
        {
          "internalType": "uint256",
          "name": "",
          "type": "uint256"
        }
      ],
      "stateMutability": "view",
      "type": "function"
    },
    {
      "inputs": [
        {
          "internalType": "address",
          "name": "",
          "type": "address"
        }
      ],
      "name": "userTotalReinvestedUSDC",
      "outputs": [
        {
          "internalType": "uint256",
          "name": "",
          "type": "uint256"
        }
      ],
      "stateMutability": "view",
      "type": "function"
    },
    {
      "inputs": [],
      "name": "utilityAddress",
      "outputs": [
        {
          "internalType": "address",
          "name": "",
          "type": "address"
        }
      ],
      "stateMutability": "view",
      "type": "function"
    },
    {
      "inputs": [
        {
          "internalType": "uint256",
          "name": "proposalId",
          "type": "uint256"
        },
        {
          "internalType": "bool",
          "name": "support",
          "type": "bool"
        }
      ],
      "name": "vote",
      "outputs": [],
      "stateMutability": "nonpayable",
      "type": "function"
    },
    {
      "inputs": [],
      "name": "whitelistEnabled",
      "outputs": [
        {
          "internalType": "bool",
          "name": "",
          "type": "bool"
        }
      ],
      "stateMutability": "view",
      "type": "function"
    },
    {
      "inputs": [
        {
          "internalType": "uint256",
          "name": "depositIndex",
          "type": "uint256"
        }
      ],
      "name": "withdraw",
      "outputs": [],
      "stateMutability": "nonpayable",
      "type": "function"
    },
    {
      "inputs": [
        {
          "internalType": "address",
          "name": "to",
          "type": "address"
        },
        {
          "internalType": "uint256",
          "name": "amount",
          "type": "uint256"
        }
      ],
      "name": "withdrawForInvestmentETH",
      "outputs": [],
      "stateMutability": "nonpayable",
      "type": "function"
    },
    {
      "inputs": [
        {
          "internalType": "address",
          "name": "to",
          "type": "address"
        },
        {
          "internalType": "uint256",
          "name": "amount",
          "type": "uint256"
        }
      ],
      "name": "withdrawForInvestmentUSDC",
      "outputs": [],
      "stateMutability": "nonpayable",
      "type": "function"
    },
    {
      "inputs": [
        {
          "internalType": "uint256",
          "name": "amount",
          "type": "uint256"
        }
      ],
      "name": "withdrawUtilityETH",
      "outputs": [],
      "stateMutability": "nonpayable",
      "type": "function"
    },
    {
      "inputs": [
        {
          "internalType": "uint256",
          "name": "amount",
          "type": "uint256"
        }
      ],
      "name": "withdrawUtilityUSDC",
      "outputs": [],
      "stateMutability": "nonpayable",
      "type": "function"
    },
    {
      "inputs": [
        {
          "internalType": "uint256",
          "name": "",
          "type": "uint256"
        }
      ],
      "name": "withdrawnUsers",
      "outputs": [
        {
          "internalType": "address",
          "name": "",
          "type": "address"
        }
      ],
      "stateMutability": "view",
      "type": "function"
    },
    {
      "stateMutability": "payable",
      "type": "receive"
    }
  ],
  "bytecode": "0x60c0604052346200028b576200562f803803806200001d81620002a6565b9283398101906080818303126200028b5780516001600160401b03908181116200028b57820183601f820112156200028b578051918211620002905760059382851b602092838062000071818501620002a6565b8097815201928201019283116200028b5783809101915b8383106200027057509050620000a191508401620002cc565b93620000be6060620000b660408701620002cc565b9501620002cc565b9460019485805560805262ed4e006002556a0422ca8b0a00a42500000060035560049265048c27395000845566038d7ea4c680008355620f42406006556000948560075560018060a01b0392838116156200025f5760088054600160501b600160f01b03191660509290921b600160501b600160f01b031691909117905596821660a0529395869490865b620001be575b604051614df790816200081882396080518181816121e301528181612ecb0152614a4d015260a05181818161048101528181610f2501528181611a3e01528181611d20015281816122b8015281816124f201528181612ad501528181612dd1015281816132f301526136dc0152f35b805188101562000259576200023083838a871b8401015116620001e181620002e1565b50620001ed816200036e565b50620001f9816200041d565b506200020581620004bd565b5062000211816200055d565b506200021d81620005fd565b5062000229816200069d565b506200073d565b5060001988146200024657868098019762000149565b634e487b7160e01b865260118552602486fd5b6200014f565b60405163d92e233d60e01b81528690fd5b81906200027d84620002cc565b815201910190839062000088565b600080fd5b634e487b7160e01b600052604160045260246000fd5b6040519190601f01601f191682016001600160401b038111838210176200029057604052565b51906001600160a01b03821682036200028b57565b6001600160a01b0390811660008181527fad3228b676f7d3cd4284a5443f17f1962b36e491b30a40b2405849e597ba5fb5602052604081205490929060ff166200036957828052826020526040832082845260205260408320600160ff198254161790556200034f620007d8565b16916000805160206200560f8339815191528180a4600190565b505090565b6001600160a01b0390811660008181527f7d7ffb7a348e1c6a02869081a26547b49160dd3df72d1d75a570eb9b698292ec602052604081205490927fa49807205ce4d355092ef5a8a18f56e8913cf4a201fbe287825b095693c217759160ff1662000417576000805160206200560f83398151915290828552846020526040852084865260205260408520600160ff198254161790556200040e620007d8565b169380a4600190565b50505090565b6001600160a01b0390811660008181527ff7c9542c591017a21c74b6f3fab6263c7952fc0aaf9db4c22a2a04ddc7f8674f602052604081205490927f65d7a28e3265b37a6474929f336521b332c1681b933f6cb9f3376673440d862a9160ff1662000417576000805160206200560f83398151915290828552846020526040852084865260205260408520600160ff198254161790556200040e620007d8565b6001600160a01b0390811660008181527f2eb8dcb37180405b14a1bdb0a7c9bf5c42acb064f7e582ada9a56e709d942e57602052604081205490927fc806897caf4fd5068191157e44d3988e43139a37e0b97b6793e1ed11841406049160ff1662000417576000805160206200560f83398151915290828552846020526040852084865260205260408520600160ff198254161790556200040e620007d8565b6001600160a01b0390811660008181527f9505c8401a8a13f8b514b3efaaa61be2dc9810e3f02fbd8edeba297fdd793d65602052604081205490927ff60566c40710959d8d30b6067ce3c53c757bec78eecb0e46b83c7f8194ffae379160ff1662000417576000805160206200560f83398151915290828552846020526040852084865260205260408520600160ff198254161790556200040e620007d8565b6001600160a01b0390811660008181527fca62ffb99fa36d4130bbee1a8581c4d2fd87e1d2bf4a5e65538ad96ae66582c9602052604081205490927f78c90eb9e475048b483a290aee04b5fe48355537c3623c7637b17d3bed71c6ed9160ff1662000417576000805160206200560f83398151915290828552846020526040852084865260205260408520600160ff198254161790556200040e620007d8565b6001600160a01b0390811660008181527fe84508f2c7fa9c351146748b3025cb78b45df37d868e48c6a75102fecdeee645602052604081205490927f241ecf16d79d0f8dbfb92cbc07fe17840425976cf0667f022fe9877caa831b089160ff1662000417576000805160206200560f83398151915290828552846020526040852084865260205260408520600160ff198254161790556200040e620007d8565b6001600160a01b0390811660008181527f45f124abc56411fa20fb79132d4e5e0dad891ecf0313a820e14c2799f454ad5b602052604081205490927f8a21e8fdae6c23863f7de5307e2e7162c88dab602a41610addb5f1505d2593989160ff1662000417576000805160206200560f83398151915290828552846020526040852084865260205260408520600160ff198254161790556200040e5b60143610158062000802575b15620007fe5760131936013681116200028b573560601c90565b3390565b506080516001600160a01b03163314620007e456fe6080604052600436101561001b575b361561001957600080fd5b005b60003560e01c8063013cf08b1461434e57806301ffc9a7146142f85780630386a0161461429157806304c68af014614257578063052d9e7e1461421857806308f43333146141745780630c016ad5146141395780630ce0ebf414613d4557806315b3958e14613d0a57806317b5164214613c815780631c5aeef714613c63578063246d47b714613c3d578063248a9ca314613c0e57806327175b2314613bf0578063275991d2146139b25780632a5bf6d21461389e5780632aad5edd146138805780632b9c4ede146138625780632e1a7d4d146134495780632f2ff15d1461340a5780633408567c146133d057806336568abe1461337f5780633ac43970146133615780633af32abf146133225780633e413bee146132dd57806341debf1f1461324157806343859632146131f457806347af19aa146131235780634e43603a14612f9657806351fb012d14612f7057806353d6fd5914612ef2578063572b6c0514612ea2578063588583a014612e7a5780635983b0bd14612d525780635e2c19db14612d135780636068d6cb14612cf057806364021b1314612c7c5780636426be4814612b9d57806365d5ec9614612b5e5780636c6ff56c14612a4e5780636ec23995146129ed57806372e55399146123ee57806375b238fc146123b3578063762e1c731461234d57806376c1d3db1461224d5780637bd05cf5146122305780637c48373b146122125780637da0a877146121cd578063867d099a1461205d578063885f502914612022578063886d589d14611fe8578063899aa99114611fca57806389bad0a614611f2c5780638a2e98f314611e6f5780638b713b2e14611e515780638dd4928e14611cc557806391d1485414611c7857806393055c4314611bd957806397d9e5b414611bbb5780639ddc391214611b9d5780639e657e3314611b42578063a217fddf14611b26578063a59aa5a614611a11578063a6317f2a146119f3578063a6c26603146119cf578063b2118a8d14611901578063b2b77ae2146118db578063b65ba94b146118bd578063b758aeaa146117e6578063bb4d4436146117c0578063bda821e814611584578063c6d95b74146114bf578063c771c39014611473578063c9d27afe14611268578063cceb68f514611006578063d547741f14610fc7578063d830d5cc14610ec5578063da35c66414610ea7578063da8d5add14610e19578063e043b2b214610dde578063e0912d2a14610d0a578063e15e23c114610cec578063e340b78314610cce578063e399067f14610c05578063e63ab1e914610bca578063e9fe0c7814610b90578063ec87621c14610b55578063ee947a7c14610b37578063f29b223914610b0a578063f5f1135014610a84578063f5f69af214610a19578063f6326fb3146107e9578063f688bcfb1461044d5763fd46a1710361000e5734610448576000366003190112610448576020601a54604051908152f35b600080fd5b3461044857602080600319360112610448576004359061046b614b07565b60085460ff81166107d7576001600160a01b03907f000000000000000000000000000000000000000000000000000000000000000082169081156107c55760065485106107b3576104be85601354614abb565b600454106107a15760101c60ff1680610780575b61076e578284610522926104e4614a22565b6040516323b872dd60e01b81526001600160a01b03909116600482015230602482015260448101929092529092839190829060009082906064820190565b03925af1801561076257610735575b5061053a614a22565b169182600052600982526040600020926040519361055785614470565b6001600160601b03808416865284860160008152604087019665ffffffffffff908142168952606081019360008552608082019360019a8b865260a0840197600089528054600160401b81101561071f576105b6918e820181556145f7565b9390936107095793518354925191516001600160f01b031990931694169390931760609390931b600160601b600160c01b03169290921760c09290921b65ffffffffffff60c01b169190911781559251928801805492519190931693909160028310156106f3576106579460ff60301b60ff9460301b169166ffffffffffffff191617178355511660ff60381b82549160381b169060ff60381b1916179055565b8060005260108352604060002084815460ff8116156106e4575b505060098452506040600020546000198101939084116106ce5760a0600080516020614d82833981519152916106c7958560405192898452830152426040830152606082015260006080820152a2601354614abb565b6013558055005b634e487b7160e01b600052601160045260246000fd5b60ff1916179055848481610671565b634e487b7160e01b600052602160045260246000fd5b634e487b7160e01b600052600060045260246000fd5b634e487b7160e01b600052604160045260246000fd5b61075490833d851161075b575b61074c81836144a6565b810190614b2a565b5083610531565b503d610742565b6040513d6000823e3d90fd5b604051630b094f2760e31b8152600490fd5b508161078a614a22565b16600052600a835260ff60406000205416156104d2565b604051636bf4c8e960e11b8152600490fd5b60405163162908e360e11b8152600490fd5b60405163d92e233d60e01b8152600490fd5b60405163deeb694360e01b8152600490fd5b6000366003190112610448576107fd614b07565b60085460ff81166107d75760055434106107b35761081d34601254614abb565b600354106107a15760101c60ff16806109f0575b61076e576001600160a01b03610845614a22565b16806000526009602052604060002060405161086081614470565b6001600160601b03908134168152602081019160008352604082019165ffffffffffff91824216845260608201946000865260808301946000865260a0840197600089528054600160401b81101561071f576108c1916001820181556145f7565b9390936107095793518354925191516001600160f01b031990931694169390931760609390931b600160601b600160c01b03169290921760c09290921b65ffffffffffff60c01b169190911781559251600193909301805492519190931693909160028310156106f3576109659460ff60301b60ff9460301b169166ffffffffffffff191617178355511660ff60381b82549160381b169060ff60381b1916179055565b8060005260106020526040600020805460ff8116156109e0575b5050600960205260406000205460001981019081116106ce5760a0600080516020614d82833981519152916040519060008252346020830152426040830152606082015260006080820152a26109d734601254614abb565b60125560018055005b60ff19166001179055818061097f565b506001600160a01b03610a01614a22565b16600052600a60205260ff6040600020541615610831565b3461044857610a273661471c565b610a2f61473b565b60028210156106f3577f5d7976bccd4b396c1a1a0020032e62bf8a381bcffc61e69a13ea61761b7572189160409181610a7b57806003555b610a7383518093614629565b6020820152a1005b80600455610a67565b3461044857610a92366146dd565b90610a9b61473b565b60005b828110610aa757005b610b059060018060a01b0385166000526009602052610b006001610adb6040600020610ad4858989614a8a565b35906145f7565b5001805460ff60381b198116603891821c60ff1660041790911b60ff60381b16179055565b614a7b565b610a9e565b346104485760003660031901126104485760085460405160509190911c6001600160a01b03168152602090f35b34610448576000366003190112610448576020600254604051908152f35b346104485760003660031901126104485760206040517f241ecf16d79d0f8dbfb92cbc07fe17840425976cf0667f022fe9877caa831b088152f35b34610448576020366003190112610448576001600160a01b03610bb16145ad565b16600052600d6020526020604060002054604051908152f35b346104485760003660031901126104485760206040517f65d7a28e3265b37a6474929f336521b332c1681b933f6cb9f3376673440d862a8152f35b3461044857600036600319011261044857610c1e614b07565b610c26614a22565b6001600160a01b0381166000818152600c602052604090205490918115610cbc5760008080848194878352600c6020528260408120555af1610c66614ac8565b5015610caa5760607f6914793c7a82461acec66c7de7fdbbbf1f825c26bc2fe939b61f0e4f8964c2b59160405190600082526020820152426040820152a260018055005b6040516312171d8360e31b8152600490fd5b604051633bd65a7b60e21b8152600490fd5b34610448576000366003190112610448576020601554604051908152f35b34610448576000366003190112610448576020601954604051908152f35b3461044857610d183661471c565b90610d2161473b565b60028110156106f3577fe2020ccdffc33d6bd83958b54f2a2c8ff6a9ed4c929f154aa10fe7f5ff238b2291610d9d91158015610dd557816005555b15610da857604051610d6d8161448b565b600d81526c0dad2dc88cae0dee6d2e88aa89609b1b6020820152905b60405192839260408452604084019061456d565b9060208301520390a1005b604051610db48161448b565b600e81526d6d696e4465706f7369745553444360901b602082015290610d89565b81600655610d5c565b346104485760003660031901126104485760206040517fc806897caf4fd5068191157e44d3988e43139a37e0b97b6793e1ed11841406048152f35b3461044857600036600319011261044857610e3261473b565b60085460ff8160181c16610e955763010000009069ffffffffffff000000004260201b169069ffffffffffffff000000191617176008557f2388ceaed48d21bd0802856df41a22705f9046a67a817a047352aa3bbfe5c5d16020604051428152a1005b60405163ae7fe58960e01b8152600490fd5b34610448576000366003190112610448576020601c54604051908152f35b3461044857602036600319011261044857600435610ee1614815565b80156107b35780610ef0614a22565b6040516323b872dd60e01b81526001600160a01b039182166004820152306024820152604481019290925260208260648160007f000000000000000000000000000000000000000000000000000000000000000086165af1908115610762577f8bafec96fcffb6f12596b4635c76397b7bc1f363b22c49c13136b63677323dcc92606092610fa9575b50610f8684601754614abb565b601755610f91614a22565b604051946001865260208601524260408601521692a2005b610fc09060203d811161075b5761074c81836144a6565b5084610f79565b3461044857604036600319011261044857610019600435610fe66145c3565b908060005260006020526110016001604060002001546148ef565b6149b0565b3461044857600036600319011261044857601c5461102381614d56565b61103060405191826144a6565b818152601f1961103f83614d56565b0160005b81811061120b575050600191825b81811115611141578284604051918291602090818401828552835180915260408501928060408360051b8801019501936000905b8382106110925787870388f35b918496819592949698508190603f198b82030185528951908151815260018060a01b038383015116838201526110ed6110da604084015161014080604086015284019061456d565b606080850151908483039085015261456d565b916080808201519083015260a0808201519083015260c0808201519083015260e081015160e08301526101008082015115159083015261012080910151151591015298019201920187969593919492611085565b80600052602090601d8252604060002060001982018281116106ce5761120693611200926040519161117283614454565b81548352898201546001600160a01b031690830152611193600282016144c7565b60408301526111a4600382016144c7565b606083015260048101546080830152600581015460a0830152600681015460c0830152600781015460e083015260088091015460ff9182821615156101008501521c1615156101208201526111f98288614d6d565b5285614d6d565b50614a7b565b611051565b60209060405161121a81614454565b600081528260008183015260608060408401528083015260006080830152600060a0830152600060c0830152600060e083015260006101008301526000610120830152828601015201611043565b34610448576040366003190112610448576004356112846145e8565b9061128d614b07565b80600052602091601d8352604060002060ff600882015416156114385760058101544211611404576000838152601e8552604090206001600160a01b0390816112d4614a22565b16600052855260ff604060002054166113cf576112f76112f2614a22565b614c80565b91821561139857917f7c2de587c00d75474a0c6c6fa96fd3b45dc974cd4e8a75f712bb84c950dce1b5939160409386600052601e8852846000208261133a614a22565b16600052885284600020600160ff198254161790558360001461138357600601611365838254614abb565b90555b611370614a22565b169583519215158352820152a360018055005b600701611391838254614abb565b9055611368565b60405162461bcd60e51b815260048101879052600f60248201526e2737902b37ba34b733902837bbb2b960891b6044820152606490fd5b60405162461bcd60e51b815260048101869052600d60248201526c105b1c9958591e481d9bdd1959609a1b6044820152606490fd5b60405162461bcd60e51b815260048101859052600c60248201526b159bdd1a5b99c8195b99195960a21b6044820152606490fd5b60405162461bcd60e51b815260048101859052601360248201527250726f706f73616c206e6f742061637469766560681b6044820152606490fd5b34610448576020366003190112610448577fc5e00a325524bc148ddc05bb642b804e9ae1dfc670c217ed3c4c6595f7427ef460206004356114b261473b565b80600255604051908152a1005b34610448576040366003190112610448576114d86145ad565b6024356114e36147a8565b6114eb614b07565b6001600160a01b038281169283156107c557478311611572576000808085819461151782601a54614abb565b601a555af1611524614ac8565b5015610caa5760607f8d4f9c9a6da9172da9a02229d92e4af088c62953986a74048d010260b197def391611556614a22565b604051946000865260208601524260408601521692a360018055005b604051631e9acf1760e31b8152600490fd5b346104485760003660031901126104485761159d614b07565b6001600160a01b036115ad614a22565b1680600052602090600d82526040600020548015610cbc5781600052600d83526000604081205560098352604060002092604051936115eb85614470565b6001600160601b03808416865282860160008152604087019665ffffffffffff908142168952606081019360008552608082019360019a8b865260a0840197600889528054600160401b81101561071f5761164a918e820181556145f7565b9390936107095793518354925191516001600160f01b031990931694169390931760609390931b600160601b600160c01b03169290921760c09290921b65ffffffffffff60c01b169190911781559251928801805492519190931693909160028310156106f3576116eb9460ff60301b60ff9460301b169166ffffffffffffff191617178355511660ff60381b82549160381b169060ff60381b1916179055565b8260005260108152604060002084815460ff8116156117b1575b505060098252506040600020546000198101919082116106ce577f997d2ec09b086de73d509bbc4ad2b52fd7e2338024464bede93a41abd6ccdc389284600080516020614d8283398151915260a0606095604051908a8252858783015242604083015287820152896080820152a261177f81601954614abb565b60195584600052600f8252604060002061179a828254614abb565b905560405191868352820152426040820152a28055005b60ff1916179055848481611705565b346104485760203660031901126104485760206117de6112f26145ad565b604051908152f35b34610448576117f436614693565b92916117fe61473b565b8381036118ab579291906000936000935b818510611841576016548681811161182f5761182a91614b42565b601655005b604051632f37549d60e01b8152600490fd5b9091929394611851868386614a8a565b359081156107b3576118a29161189c916001600160a01b0361187c6118778b898c614a8a565b614aa7565b16600052600c6020526040600020611895838254614abb565b9055614abb565b95614a7b565b9392919061180f565b60405163512509d360e11b8152600490fd5b34610448576000366003190112610448576020601654604051908152f35b3461044857600036600319011261044857602060ff60085460081c166040519015158152f35b346104485760603660031901126104485761191a6145ad565b6119226145c3565b6044359161192e61473b565b6001600160a01b03828116939084156107c55760405163a9059cbb60e01b81526001600160a01b03949094166004850152602484018290529190911691906020826044816000875af1908115610762577f8bbfbb5d7fcacf6fc74005cdede0635561638507f576c95f7f294c22141be2e5926020926119b2575b50604051908152a3005b6119c890833d811161075b5761074c81836144a6565b50856119a8565b34610448576000366003190112610448576020604051681b1ae4d6e2ef5000008152f35b34610448576000366003190112610448576020600754604051908152f35b34610448576000366003190112610448576040516370a0823160e01b8152306004820152476020826024817f00000000000000000000000000000000000000000000000000000000000000006001600160a01b03165afa801561076257600090611af3575b6101c09250601254601354601454601554601654601754906018549260195494601a5496601b54986011549a6040519c8d5260208d015260408c015260608b015260808a015260a089015260c088015260e087015261010086015261012085015261014084015261016083015260006101808301526101a0820152f35b506020823d8211611b1e575b81611b0c602093836144a6565b81010312610448576101c09151611a76565b3d9150611aff565b3461044857600036600319011261044857602060405160008152f35b34610448576020366003190112610448576004356011548110156104485760116000527f31ecc21a745e3968a04e9570e4425bc18fa8019c68028196b546d1669c200c6801546040516001600160a01b039091168152602090f35b34610448576000366003190112610448576020600354604051908152f35b34610448576000366003190112610448576020601854604051908152f35b3461044857602036600319011261044857600435611bf5614882565b611bfd614b07565b6008546001600160a01b039060501c811680156107c55747831161157257600080808581945af1611c2c614ac8565b5015610caa5760607f9adbdc797aca3ce26a722598f00149b2328fd124444e6d0b10c4bdc7cfc381969160085460501c169260405190600082526020820152426040820152a260018055005b3461044857604036600319011261044857611c916145c3565b600435600052600060205260406000209060018060a01b0316600052602052602060ff604060002054166040519015158152f35b3461044857604036600319011261044857611cde6145ad565b60243590611cea6147a8565b611cf2614b07565b6001600160a01b038181169290919083156107c5576040516370a0823160e01b8152306004820152602093907f00000000000000000000000000000000000000000000000000000000000000008216908581602481855afa90811561076257600091611e24575b50831161157257828591611dae95611d7383601b54614abb565b601b5560405163a9059cbb60e01b81526001600160a01b03909116600482015260248101929092529094859190829060009082906044820190565b03925af1918215610762577f8d4f9c9a6da9172da9a02229d92e4af088c62953986a74048d010260b197def393606093611e07575b50611dec614a22565b9060405195600187528601524260408601521692a360018055005b611e1d90863d881161075b5761074c81836144a6565b5086611de3565b90508581813d8311611e4a575b611e3b81836144a6565b81010312610448575187611d59565b503d611e31565b34610448576000366003190112610448576020601454604051908152f35b3461044857602036600319011261044857600435611e8b61473b565b6127108111611ef9576080817fe2020ccdffc33d6bd83958b54f2a2c8ff6a9ed4c929f154aa10fe7f5ff238b22926007556040519060408252601960408301527f6561726c795769746864726177616c50656e616c74794270730000000000000060608301526020820152a1005b60405162461bcd60e51b815260206004820152600b60248201526a496e76616c69642042505360a81b6044820152606490fd5b3461044857602036600319011261044857611f456145ad565b611f4d61473b565b6001600160a01b0381169081156107c557600880547fffff0000000000000000000000000000000000000000ffffffffffffffffffff1660509290921b600160501b600160f01b03169190911790556040519081527f1d6240e71a77c9e9d07d1d6ecbb9ea4274fcc8bc19adc5b05a3548ac7e40e18990602090a1005b34610448576000366003190112610448576020601254604051908152f35b34610448576020366003190112610448576001600160a01b036120096145ad565b16600052600e6020526020604060002054604051908152f35b346104485760003660031901126104485760206040517f78c90eb9e475048b483a290aee04b5fe48355537c3623c7637b17d3bed71c6ed8152f35b346104485761206b366146dd565b91612074614a22565b6001600160a01b0390811660008181527f2eb8dcb37180405b14a1bdb0a7c9bf5c42acb064f7e582ada9a56e709d942e57602090815260409091205490959294929160ff917fc806897caf4fd5068191157e44d3988e43139a37e0b97b6793e1ed1184140604908316156121af57505060005b82811061212d57604051878152858716907f8b655a966f162e1d3686ea25cd61682331984ab5662b451deff96f12d716f45b9080612128818c01888a614bf1565b0390a2005b8585166000526009875261214a6040600020610ad4838688614a8a565b5090600180920191825460381c908116158015906121a3575b61219157825460ff60381b191690841660021760381b60ff60381b161790915561218c90614a7b565b6120e7565b60405163181821bd60e11b8152600490fd5b50600281161515612163565b604492506040519163e2517d3f60e01b835260048301526024820152fd5b34610448576000366003190112610448576040517f00000000000000000000000000000000000000000000000000000000000000006001600160a01b03168152602090f35b34610448576000366003190112610448576020600654604051908152f35b346104485760003660031901126104485760206040516107d08152f35b3461044857602036600319011261044857600435612269614882565b612271614b07565b60085460501c6001600160a01b039081169081156107c55760405163a9059cbb60e01b81526001600160a01b039290921660048301526024820183905260208260448160007f000000000000000000000000000000000000000000000000000000000000000086165af1908115610762577f9adbdc797aca3ce26a722598f00149b2328fd124444e6d0b10c4bdc7cfc381969260609261232f575b5060085460501c169260405190600182526020820152426040820152a260018055005b6123469060203d811161075b5761074c81836144a6565b508461230c565b34610448576040366003190112610448576123666145ad565b60243561237161473b565b80156107b357601754811161182f576123ae9160018060a01b0316600052600d60205260406000206123a4828254614abb565b9055601754614b42565b601755005b346104485760003660031901126104485760206040517fa49807205ce4d355092ef5a8a18f56e8913cf4a201fbe287825b095693c217758152f35b34610448576020366003190112610448576004356001600160401b0381116104485761241e903690600401614663565b90612427614b07565b60ff60085460081c166129db5761243c614a22565b60009283929183808080805b86811061269f57508061268a575b5080612675575b506001600160a01b0383166000908152600b602052604090205460ff16158061266c575b61263b575b6124908183614abb565b6125b2575b50506124a18486614abb565b6124ac575b60018055005b8360206124bc6124ec9688614abb565b60405163a9059cbb60e01b81526001600160a01b0385166004820152602481019190915295869081906044820190565b038160007f00000000000000000000000000000000000000000000000000000000000000006001600160a01b03165af1948515610762577fbf06e98fe211a4b82f625232ab1c7a75caea5e0d624bc267578d6f22fce788c395612593575b506125696040519485946001865260a0602087015260a0860191614bf1565b604084019690965260608301524260808301526001600160a01b0316930390a280808080806124a6565b6125ab9060203d60201161075b5761074c81836144a6565b508661254a565b60008080806125c18587614abb565b875af16125cc614ac8565b5015610caa577fbf06e98fe211a4b82f625232ab1c7a75caea5e0d624bc267578d6f22fce788c390604051906000825260a0602083015261261160a083018789614bf1565b604083019490945260608201524260808201526001600160a01b0384169281900390a28580612495565b61264483614b62565b6001600160a01b0383166000908152600b60205260409020805460ff19166001179055612486565b50831515612481565b61268190601554614abb565b6015558761245d565b61269690601454614abb565b60145588612456565b6126ae81888a97949697614a8a565b3560018060a01b03871660005260096020526126ce8160406000206145f7565b5094600186015460018160381c166129c9576126f9875465ffffffffffff6002549160c01c16614abb565b4210806129bb575b80612996575b61297d575b600160ff6127379260381c1617600188019060ff60381b82549160381b169060ff60381b1916179055565b65ffffffffffff421665ffffffffffff1960018801541617918260018801558654916001600160601b0383169384908b60009261278160025465ffffffffffff8960c01c16614abb565b42108061296f575b8061294a575b6128bd575b5050600260ff8260301c1610156106f35760301c60ff166128505761282e600080516020614da28339815191529360ff60016128018f958a6127e7816128369e9d9c9a846127ed9561283b575b50614abb565b9d614abb565b9e6001600160601b038860601c1690614abb565b9c5b015460301c169360405194859460018060a01b0316976001600160601b03429360601c169186614bc6565b0390a2614a7b565b612448565b6128486016918254614abb565b9055386127e1565b9d61286e8b9e9f958099878297959a9d9c9699986128b05750614abb565b9761287891614abb565b9d8160601c6001600160601b031661288f91614abb565b9c61282e6128369660ff6001600080516020614da283398151915296612803565b6128486017918254614abb565b600754806128cc575b50612794565b88945061290d61271061290561293f937f4515dd4239fbbcde39ac2bd5b1d60b7ccae104945f1429d0fa69eea33447885895969c614b4f565b048096614b42565b604080516001600160601b039095168552602085018790524290850152986001600160a01b0316929081906060820190565b0390a28b38806128c6565b5060ff60085460181c1680612960575b1561278f565b5060048360381c16151561295a565b5060028360381c1615612789565b60075461270c5760405163f38b9b5b60e01b8152600490fd5b5060ff60085460181c16806129ac575b15612707565b5060048160381c1615156129a6565b5060028160381c1615612701565b604051636507689f60e01b8152600490fd5b604051636022a9e760e01b8152600490fd5b3461044857604036600319011261044857612a066145ad565b602435612a1161473b565b80156107b357601654811161182f5761182a9160018060a01b0316600052600c6020526040600020612a44828254614abb565b9055601654614b42565b3461044857600036600319011261044857612a67614b07565b612a6f614a22565b6001600160a01b038181166000818152600d60209081526040909120549193928215610cbc576000858152600d835260408082208290555163a9059cbb60e01b81526001600160a01b0395909516600486015260248501849052829185916044918391907f0000000000000000000000000000000000000000000000000000000000000000165af1918215610762577f6914793c7a82461acec66c7de7fdbbbf1f825c26bc2fe939b61f0e4f8964c2b593606093612b41575b506040519160018352820152426040820152a260018055005b612b5790833d851161075b5761074c81836144a6565b5085612b28565b34610448576020366003190112610448576001600160a01b03612b7f6145ad565b166000526010602052602060ff604060002054166040519015158152f35b3461044857604036600319011261044857612bb66145d9565b612bbe6145e8565b90612bc7614a22565b6001600160a01b031660008181527ff7c9542c591017a21c74b6f3fab6263c7952fc0aaf9db4c22a2a04ddc7f8674f60205260409020547f65d7a28e3265b37a6474929f336521b332c1681b933f6cb9f3376673440d862a9060ff16156121af577fac1664632d6278432aa05a6afc0aa83e5ea08e8df9a1436736daa5d6283211c0604085851515906008549015159061ff008260081b169060ff84169061ffff1916171760085582519182526020820152a1005b600036600319011261044857612c90614815565b34156107b357612ca234601654614abb565b601655612cad614a22565b7f8bafec96fcffb6f12596b4635c76397b7bc1f363b22c49c13136b63677323dcc6060604051926000845234602085015242604085015260018060a01b031692a2005b3461044857600036600319011261044857602060ff600854166040519015158152f35b34610448576020366003190112610448576001600160a01b03612d346145ad565b16600052600b602052602060ff604060002054166040519015158152f35b3461044857602036600319011261044857600435612d6e6147a8565b612d76614b07565b80156107b357601b54808211612e685781612d9091614b42565b601b5580612d9c614a22565b6040516323b872dd60e01b81526001600160a01b039182166004820152306024820152604481019290925260208260648160007f000000000000000000000000000000000000000000000000000000000000000086165af1908115610762577f1b0029d3a4003762f16d0dc71199ce167b1d4bf00c5b97a3e28f613e921d654092606092612e4a575b50612e2e614a22565b604051946001865260208601524260408601521692a260018055005b612e619060203d811161075b5761074c81836144a6565b5084612e25565b604051630471131160e21b8152600490fd5b3461044857600036600319011261044857602060085465ffffffffffff60405191831c168152f35b34610448576020366003190112610448576020612ebd6145ad565b6040519060018060a01b03807f0000000000000000000000000000000000000000000000000000000000000000169116148152f35b3461044857604036600319011261044857612f0b6145ad565b7f995d2434d36c9bceaab42c56efe51e8ffe41fd11cabefd9e2cb83700d8b2035e6020612f366145e8565b92612f3f61473b565b6001600160a01b03166000818152600a835260409020805460ff191660ff86151516179055926040519015158152a2005b3461044857600036600319011261044857602060ff60085460101c166040519015158152f35b3461044857602036600319011261044857612faf6145ad565b6001600160a01b031660008181526009602052604081208054919283928392839283928392835b82811061302b575050509561010096600052600c60205260406000205491600d60205260406000205493604051978852602088015260408701526060860152608085015260a084015260c083015260e0820152f35b61303e61303882846145f7565b50614c15565b9860a08a019960088b51161515608082015160028110156106f3576130c15760016130756001600160601b03948585511690614abb565b9c51166130ac575b613092575b505061308d90614a7b565b612fd6565b976130a49161308d9399511690614abb565b96908b613082565b966130bb908383511690614abb565b9661307d565b60016130dd6001600160601b039d9a949d948585511690614abb565b99511661310e575b6130f457505061308d90614a7b565b986131069161308d939a511690614abb565b97908b613082565b9b61311d908383511690614abb565b9b6130e5565b346104485761313136614693565b61313961473b565b8083036118ab5760005b83811061314c57005b8061316361315e6131ef938587614a8a565b614a9a565b6001600160a01b03907f995d2434d36c9bceaab42c56efe51e8ffe41fd11cabefd9e2cb83700d8b2035e908261319d611877868b8d614a8a565b166000526131c1602091600a835260406000209060ff801983541691151516179055565b6131cf611877858a8c614a8a565b926131de61315e86898b614a8a565b9360405194151585521692a2614a7b565b613143565b346104485760403660031901126104485761320d6145c3565b600435600052601e60205260406000209060018060a01b0316600052602052602060ff604060002054166040519015158152f35b346104485761324f36614693565b929161325961473b565b8381036118ab579291906000936000935b818510613285576017548681811161182f576123ae91614b42565b9091929394613295868386614a8a565b359081156107b3576132d49161189c916001600160a01b036132bb6118778b898c614a8a565b16600052600d6020526040600020611895838254614abb565b9392919061326a565b34610448576000366003190112610448576040517f00000000000000000000000000000000000000000000000000000000000000006001600160a01b03168152602090f35b34610448576020366003190112610448576001600160a01b036133436145ad565b16600052600a602052602060ff604060002054166040519015158152f35b34610448576000366003190112610448576020601754604051908152f35b34610448576040366003190112610448576133986145c3565b6001600160a01b03806133a9614a22565b16908216036133be57610019906004356149b0565b60405163334bd91960e11b8152600490fd5b34610448576020366003190112610448576001600160a01b036133f16145ad565b16600052600c6020526020604060002054604051908152f35b34610448576040366003190112610448576100196004356134296145c3565b908060005260006020526134446001604060002001546148ef565b614929565b3461044857602036600319011261044857613462614b07565b60085460ff8160081c166129db57613478614a22565b9060018060a01b038216600052600960205261349a60043560406000206145f7565b5090600182015460381c90600182166129c9576134c6835465ffffffffffff6002549160c01c16614abb565b42109081613856575b81613835575b5061381c575b600160ff613503921617600183019060ff60381b82549160381b169060ff60381b1916179055565b65ffffffffffff421665ffffffffffff1960018301541617918260018301558154906001600160601b038216938460009161354b60025465ffffffffffff8760c01c16614abb565b42108061380e575b806137e9575b613765575b600260ff8260301c1610156106f35760301c60ff16613673575061358e6001600160601b03855416601454614abb565b6014558061365e575b5060008080806135b36001600160601b038760601c1689614abb565b855af16135be614ac8565b5015610caa5761362960ff6001600080516020614da2833981519152955b818060a01b038516600052600b602052826040600020541615613632575b015460301c169460405193849360018060a01b031696600435926001600160601b03429360601c169186614bc6565b0390a260018055005b61363b85614b62565b818060a01b038516600052600b60205260406000208284198254161790556135fa565b61366a90601654614abb565b60165584613597565b906136846136d69592601554614abb565b60155580613750575b5060206136a66001600160601b038560601c1687614abb565b60405163a9059cbb60e01b81526001600160a01b0385166004820152602481019190915294859081906044820190565b038160007f00000000000000000000000000000000000000000000000000000000000000006001600160a01b03165af19384156107625760016136299260ff92600080516020614da283398151915297613731575b506135dc565b6137499060203d60201161075b5761074c81836144a6565b508861372b565b61375c90601754614abb565b6017558561368d565b60075480613774575b5061355e565b879350613788612710916137909399614b4f565b048093614b42565b604080516001600160601b03841681526020810185905242918101919091529096906001600160a01b038516907f4515dd4239fbbcde39ac2bd5b1d60b7ccae104945f1429d0fa69eea33447885890606090a28761376e565b5060ff60085460181c16806137ff575b15613559565b5060048160381c1615156137f9565b5060028160381c1615613553565b6007546134db5760405163f38b9b5b60e01b8152600490fd5b60ff915060181c168061384a575b15846134d5565b50600481161515613843565b600283161591506134cf565b34610448576000366003190112610448576020600554604051908152f35b34610448576000366003190112610448576020601b54604051908152f35b3461044857602080600319360112610448576001600160a01b036138c06145ad565b166000526009815260406000209081546138d981614d56565b906138e760405192836144a6565b8082528282018094600052836000206000915b8383106139955760408051878152865181890181905289928201908960005b8281106139265784840385f35b9091928260c060019288516001600160601b0380825116835284820151168483015265ffffffffffff80604083015116604084015260609081830151169083015261397960808083015190840190614629565b60ff60a080920151169082015201960191019492919094613919565b6002866001926139a485614c15565b8152019201920191906138fa565b34610448576000366003190112610448576139cb614b07565b6001600160a01b036139db614a22565b1680600052602090600c82526040600020548015610cbc5781600052600c83526000604081205560098352604060002092604051613a1881614470565b6001600160601b03808416825282820160008152604083019265ffffffffffff90814216855260608101936000855260808201936000855260a0830196600888528b54600160401b81101561071f57613a789060019d8e820181556145f7565b9390936107095793518354925191516001600160f01b031990931694169390931760609390931b600160601b600160c01b03169290921760c09290921b65ffffffffffff60c01b169190911781559251928801805492519190931693909160028310156106f357613b199460ff60301b60ff9460301b169166ffffffffffffff191617178355511660ff60381b82549160381b169060ff60381b1916179055565b8260005260108152604060002084815460ff811615613be1575b505060098252506040600020546000198101919082116106ce577f997d2ec09b086de73d509bbc4ad2b52fd7e2338024464bede93a41abd6ccdc389284600080516020614d8283398151915260a06060956040519060008252858783015242604083015287820152896080820152a2613bae81601854614abb565b60185584600052600e82526040600020613bc9828254614abb565b90556040519160008352820152426040820152a28055005b60ff1916179055848481613b33565b34610448576000366003190112610448576020601354604051908152f35b346104485760203660031901126104485760043560005260006020526020600160406000200154604051908152f35b3461044857600036600319011261044857602060ff60085460181c166040519015158152f35b34610448576000366003190112610448576020600454604051908152f35b600036600319011261044857613c956147a8565b613c9d614b07565b34156107b357601a54803411612e6857613cb8903490614b42565b601a55613cc3614a22565b7f1b0029d3a4003762f16d0dc71199ce167b1d4bf00c5b97a3e28f613e921d65406060604051926000845234602085015242604085015260018060a01b031692a260018055005b346104485760003660031901126104485760206040517f8a21e8fdae6c23863f7de5307e2e7162c88dab602a41610addb5f1505d2593988152f35b34610448576060366003190112610448576004356001600160401b03811161044857613d75903690600401614636565b906024356001600160401b03811161044857613d95903690600401614636565b919092613da0614b07565b613da8614a22565b6001600160a01b031660008181527f45f124abc56411fa20fb79132d4e5e0dad891ecf0313a820e14c2799f454ad5b60205260409020547f8a21e8fdae6c23863f7de5307e2e7162c88dab602a41610addb5f1505d2593989060ff16156121af575050604435156107b357613e1e601c54614a7b565b9283601c5583600052601d602052604060002094848655613e3d614a22565b6001870180546001600160a01b0319166001600160a01b039092169190911790556001600160401b03831161071f57613e79600287015461441a565b601f81116140f2575b50826000601f821160011461408457600091614079575b508360011b906000198560031b1c19161760028701555b6001600160401b03821161071f578190613ecd600388015461441a565b601f8111614026575b50600090601f8311600114613fb557600092613faa575b50508160011b916000199060031b1c19161760038501555b426004850155620151808060443502906044358204036106ce577f98120a6aaa04295520ab4e01c6c1235dd316e822cc9ff31db7b3f197366d18bd926008613f4f60609342614abb565b600588018190559601805460ff19166001179055826001600160a01b03613f74614a22565b1696604051948593604085528160408601528585013760008383018501526020830152601f01601f19168101030190a360018055005b013590508680613eed565b909250600387016000526020600020906000935b601f198416851061400e576001945083601f19811610613ff4575b505050811b016003850155613f05565b0135600019600384901b60f8161c19169055868080613fe4565b81810135835560209485019460019093019201613fc9565b909150600387016000526020600020601f840160051c810160208510614072575b90849392915b601f830160051c82018110614063575050613ed6565b6000815585945060010161404d565b5080614047565b905084013587613e99565b90506002870160005260206000209060005b601f19861681106140da575084601f198116106140c0575b5050600183811b016002870155613eb0565b850135600019600386901b60f8161c1916905586806140ae565b9091602060018192858a013581550193019101614096565b600287016000526020600020601f850160051c810160208610614132575b601f830160051c82018110614126575050613e82565b60008155600101614110565b5080614110565b346104485760003660031901126104485760206040517ff60566c40710959d8d30b6067ce3c53c757bec78eecb0e46b83c7f8194ffae378152f35b346104485760403660031901126104485761418d6145ad565b6001600160a01b03166000908152600960205260409020805460243591908210156104485760c0916141be916145f7565b5060ff60018254920154604051926001600160601b0380821685528160601c16602085015265ffffffffffff8091861c1660408501528116606084015261420d60808401838360301c16614629565b60381c1660a0820152f35b34610448576020366003190112610448576142316145d9565b61423961473b565b62ff000060085491151560101b169062ff0000191617600855600080f35b34610448576020366003190112610448576001600160a01b036142786145ad565b16600052600f6020526020604060002054604051908152f35b34610448576020366003190112610448576004356142ad61473b565b80600052601d602052600860406000200161010061ffff198254161790557faffed5d901d9fbe9106721fa52653ede403c09699f9f810f6d378acc51fb50fa602060405160018152a2005b346104485760203660031901126104485760043563ffffffff60e01b811680910361044857602090637965db0b60e01b811490811561433d575b506040519015158152f35b6301ffc9a760e01b14905082614332565b34610448576020366003190112610448576004356000908152601d60205260409020805460018201546001600160a01b03169160ff61438f600283016144c7565b61439b600384016144c7565b9260048101549360058201546143ea6006840154926143dc60086007870154960154966040519b8c9b8c5260208c01526101408060408d01528b019061456d565b9089820360608b015261456d565b95608088015260a087015260c086015260e0850152818116151561010085015260081c1615156101208301520390f35b90600182811c9216801561444a575b602083101461443457565b634e487b7160e01b600052602260045260246000fd5b91607f1691614429565b61014081019081106001600160401b0382111761071f57604052565b60c081019081106001600160401b0382111761071f57604052565b604081019081106001600160401b0382111761071f57604052565b90601f801991011681019081106001600160401b0382111761071f57604052565b90604051918260008254926144db8461441a565b90818452600194858116908160001461454a5750600114614507575b5050614505925003836144a6565b565b9093915060005260209081600020936000915b818310614532575050614505935082010138806144f7565b8554888401850152948501948794509183019161451a565b91505061450594506020925060ff191682840152151560051b82010138806144f7565b919082519283825260005b848110614599575050826000602080949584010152601f8019910116010190565b602081830181015184830182015201614578565b600435906001600160a01b038216820361044857565b602435906001600160a01b038216820361044857565b60043590811515820361044857565b60243590811515820361044857565b80548210156146135760005260206000209060011b0190600090565b634e487b7160e01b600052603260045260246000fd5b9060028210156106f35752565b9181601f84011215610448578235916001600160401b038311610448576020838186019501011161044857565b9181601f84011215610448578235916001600160401b038311610448576020808501948460051b01011161044857565b6040600319820112610448576001600160401b039160043583811161044857826146bf91600401614663565b93909392602435918211610448576146d991600401614663565b9091565b906040600319830112610448576004356001600160a01b03811681036104485791602435906001600160401b038211610448576146d991600401614663565b6040906003190112610448576004356002811015610448579060243590565b614743614a22565b6001600160a01b031660008181527f7d7ffb7a348e1c6a02869081a26547b49160dd3df72d1d75a570eb9b698292ec60205260409020547fa49807205ce4d355092ef5a8a18f56e8913cf4a201fbe287825b095693c217759060ff16156121af575050565b6147b0614a22565b6001600160a01b031660008181527fe84508f2c7fa9c351146748b3025cb78b45df37d868e48c6a75102fecdeee64560205260409020547f241ecf16d79d0f8dbfb92cbc07fe17840425976cf0667f022fe9877caa831b089060ff16156121af575050565b61481d614a22565b6001600160a01b031660008181527f9505c8401a8a13f8b514b3efaaa61be2dc9810e3f02fbd8edeba297fdd793d6560205260409020547ff60566c40710959d8d30b6067ce3c53c757bec78eecb0e46b83c7f8194ffae379060ff16156121af575050565b61488a614a22565b6001600160a01b031660008181527fca62ffb99fa36d4130bbee1a8581c4d2fd87e1d2bf4a5e65538ad96ae66582c960205260409020547f78c90eb9e475048b483a290aee04b5fe48355537c3623c7637b17d3bed71c6ed9060ff16156121af575050565b6148f7614a22565b9080600052600060205260406000209160018060a01b0316918260005260205260ff60406000205416156121af575050565b6000818152602081815260408083206001600160a01b039586168085529252822054919390929160ff166149aa577f2f8788117e7eff1d82e926ec794901d17c78024a50270940304540a733656f0d90828552846020526040852084865260205260408520600160ff198254161790556149a1614a22565b169380a4600190565b50505090565b6000818152602081815260408083206001600160a01b039586168085529252822054919390929160ff16156149aa577ff6391f5c32d9c69d2a47ea670b442974b53935d1edc7fd64eb21e047a839171b9082855284602052604085208486526020526040852060ff1981541690556149a15b601436101580614a49575b15614a45576013193601368111610448573560601c90565b3390565b50337f00000000000000000000000000000000000000000000000000000000000000006001600160a01b031614614a2d565b60001981146106ce5760010190565b91908110156146135760051b0190565b3580151581036104485790565b356001600160a01b03811681036104485790565b919082018092116106ce57565b3d15614b02573d906001600160401b03821161071f5760405191614af6601f8201601f1916602001846144a6565b82523d6000602084013e565b606090565b600260015414614b18576002600155565b604051633ee5aeb560e01b8152600490fd5b90816020910312610448575180151581036104485790565b919082039182116106ce57565b818102929181159184041417156106ce57565b601154600160401b81101561071f5760018101806011558110156146135760116000527f31ecc21a745e3968a04e9570e4425bc18fa8019c68028196b546d1669c200c680180546001600160a01b0319166001600160a01b03909216919091179055565b91926080939695949196614bde8460a0810199614629565b6020840152604083015260608201520152565b81835290916001600160fb1b0383116104485760209260051b809284830137010190565b90604051614c2281614470565b809260018154916001600160601b0380841685528360601c16602085015265ffffffffffff809360c01c1660408501520154908116606083015260ff8160301c1660028110156106f35760a09160ff91608085015260381c16910152565b6001600160a01b0316600090815260096020526040812080548291825b828110614cd7575050506107d0908181029181830414901517156106ce57670de0b6b3a7640000620f4240614cd493049104614abb565b90565b614ce461303882846145f7565b600160a08201511615614d01575b50614cfc90614a7b565b614c9d565b608081959295015160028110156106f357614d3657614cfc916001600160601b03614d2e92511690614abb565b935b90614cf2565b614cfc9194956001600160601b03614d5092511690614abb565b94614d30565b6001600160401b03811161071f5760051b60200190565b80518210156146135760209160051b01019056fe48916ac7f9777648255ab8645729ff3b5d20aa412a40fe81dac2433522eaa058cb034b37ef3764745c35bafecd525367bcf312e9010239e6aeebbe6bcf57727fa26469706673582212205a109b28223910b8b1763dae120903cdde901f317cee3ad989c84fbeb0ffb84664736f6c634300081400332f8788117e7eff1d82e926ec794901d17c78024a50270940304540a733656f0d",
  "linkReferences": {},
  "deployedLinkReferences": {}
}