{
  "_format": "hh-sol-artifact-1",
  "contractName": "W2EUtility",
  "sourceName": "contracts/W2EUtility.sol",
  "abi": [
    {
      "inputs": [
        {
          "internalType": "string",
          "name": "name",
          "type": "string"
        },
        {
          "internalType": "string",
          "name": "symbol",
          "type": "string"
        },
        {
          "internalType": "address",
          "name": "initialOwner",
          "type": "address"
        }
      ],
      "stateMutability": "nonpayable",
      "type": "constructor"
    },
    {
      "anonymous": false,
      "inputs": [
        {
          "indexed": true,
          "internalType": "address",
          "name": "owner",
          "type": "address"
        },
        {
          "indexed": true,
          "internalType": "address",
          "name": "spender",
          "type": "address"
        },
        {
          "indexed": false,
          "internalType": "uint256",
          "name": "value",
          "type": "uint256"
        }
      ],
      "name": "Approval",
      "type": "event"
    },
    {
      "anonymous": false,
      "inputs": [
        {
          "indexed": true,
          "internalType": "address",
          "name": "from",
          "type": "address"
        },
        {
          "indexed": false,
          "internalType": "uint256",
          "name": "amount",
          "type": "uint256"
        },
        {
          "indexed": false,
          "internalType": "uint256",
          "name": "fee",
          "type": "uint256"
        }
      ],
      "name": "FeeCollected",
      "type": "event"
    },
    {
      "anonymous": false,
      "inputs": [
        {
          "indexed": true,
          "internalType": "address",
          "name": "oldLoom",
          "type": "address"
        },
        {
          "indexed": true,
          "internalType": "address",
          "name": "newLoom",
          "type": "address"
        }
      ],
      "name": "LoomAddressUpdated",
      "type": "event"
    },
    {
      "anonymous": false,
      "inputs": [
        {
          "indexed": true,
          "internalType": "address",
          "name": "previousOwner",
          "type": "address"
        },
        {
          "indexed": true,
          "internalType": "address",
          "name": "newOwner",
          "type": "address"
        }
      ],
      "name": "OwnershipTransferred",
      "type": "event"
    },
    {
      "anonymous": false,
      "inputs": [
        {
          "indexed": false,
          "internalType": "address",
          "name": "account",
          "type": "address"
        }
      ],
      "name": "Paused",
      "type": "event"
    },
    {
      "anonymous": false,
      "inputs": [
        {
          "indexed": true,
          "internalType": "address",
          "name": "user",
          "type": "address"
        },
        {
          "indexed": false,
          "internalType": "uint256",
          "name": "amount",
          "type": "uint256"
        },
        {
          "indexed": false,
          "internalType": "uint256",
          "name": "lockPeriod",
          "type": "uint256"
        }
      ],
      "name": "Staked",
      "type": "event"
    },
    {
      "anonymous": false,
      "inputs": [
        {
          "indexed": true,
          "internalType": "address",
          "name": "from",
          "type": "address"
        },
        {
          "indexed": false,
          "internalType": "uint256",
          "name": "amount",
          "type": "uint256"
        }
      ],
      "name": "TokensBurned",
      "type": "event"
    },
    {
      "anonymous": false,
      "inputs": [
        {
          "indexed": true,
          "internalType": "address",
          "name": "to",
          "type": "address"
        },
        {
          "indexed": false,
          "internalType": "uint256",
          "name": "amount",
          "type": "uint256"
        }
      ],
      "name": "TokensMinted",
      "type": "event"
    },
    {
      "anonymous": false,
      "inputs": [
        {
          "indexed": true,
          "internalType": "address",
          "name": "from",
          "type": "address"
        },
        {
          "indexed": true,
          "internalType": "address",
          "name": "to",
          "type": "address"
        },
        {
          "indexed": false,
          "internalType": "uint256",
          "name": "value",
          "type": "uint256"
        }
      ],
      "name": "Transfer",
      "type": "event"
    },
    {
      "anonymous": false,
      "inputs": [
        {
          "indexed": false,
          "internalType": "address",
          "name": "account",
          "type": "address"
        }
      ],
      "name": "Unpaused",
      "type": "event"
    },
    {
      "anonymous": false,
      "inputs": [
        {
          "indexed": true,
          "internalType": "address",
          "name": "user",
          "type": "address"
        },
        {
          "indexed": false,
          "internalType": "uint256",
          "name": "amount",
          "type": "uint256"
        },
        {
          "indexed": false,
          "internalType": "uint256",
          "name": "reward",
          "type": "uint256"
        }
      ],
      "name": "Unstaked",
      "type": "event"
    },
    {
      "inputs": [
        {
          "internalType": "address",
          "name": "owner",
          "type": "address"
        },
        {
          "internalType": "address",
          "name": "spender",
          "type": "address"
        }
      ],
      "name": "allowance",
      "outputs": [
        {
          "internalType": "uint256",
          "name": "",
          "type": "uint256"
        }
      ],
      "stateMutability": "view",
      "type": "function"
    },
    {
      "inputs": [
        {
          "internalType": "address",
          "name": "spender",
          "type": "address"
        },
        {
          "internalType": "uint256",
          "name": "amount",
          "type": "uint256"
        }
      ],
      "name": "approve",
      "outputs": [
        {
          "internalType": "bool",
          "name": "",
          "type": "bool"
        }
      ],
      "stateMutability": "nonpayable",
      "type": "function"
    },
    {
      "inputs": [
        {
          "internalType": "address",
          "name": "account",
          "type": "address"
        }
      ],
      "name": "balanceOf",
      "outputs": [
        {
          "internalType": "uint256",
          "name": "",
          "type": "uint256"
        }
      ],
      "stateMutability": "view",
      "type": "function"
    },
    {
      "inputs": [
        {
          "internalType": "uint256",
          "name": "amount",
          "type": "uint256"
        }
      ],
      "name": "burn",
      "outputs": [],
      "stateMutability": "nonpayable",
      "type": "function"
    },
    {
      "inputs": [
        {
          "internalType": "address",
          "name": "from",
          "type": "address"
        },
        {
          "internalType": "uint256",
          "name": "amount",
          "type": "uint256"
        }
      ],
      "name": "burnFrom",
      "outputs": [],
      "stateMutability": "nonpayable",
      "type": "function"
    },
    {
      "inputs": [
        {
          "internalType": "address",
          "name": "user",
          "type": "address"
        }
      ],
      "name": "calculateStakingReward",
      "outputs": [
        {
          "internalType": "uint256",
          "name": "",
          "type": "uint256"
        }
      ],
      "stateMutability": "view",
      "type": "function"
    },
    {
      "inputs": [
        {
          "internalType": "address",
          "name": "user",
          "type": "address"
        }
      ],
      "name": "canUnstake",
      "outputs": [
        {
          "internalType": "bool",
          "name": "",
          "type": "bool"
        }
      ],
      "stateMutability": "view",
      "type": "function"
    },
    {
      "inputs": [],
      "name": "decimals",
      "outputs": [
        {
          "internalType": "uint8",
          "name": "",
          "type": "uint8"
        }
      ],
      "stateMutability": "view",
      "type": "function"
    },
    {
      "inputs": [
        {
          "internalType": "address",
          "name": "spender",
          "type": "address"
        },
        {
          "internalType": "uint256",
          "name": "subtractedValue",
          "type": "uint256"
        }
      ],
      "name": "decreaseAllowance",
      "outputs": [
        {
          "internalType": "bool",
          "name": "",
          "type": "bool"
        }
      ],
      "stateMutability": "nonpayable",
      "type": "function"
    },
    {
      "inputs": [],
      "name": "getDeflationMetrics",
      "outputs": [
        {
          "internalType": "uint256",
          "name": "currentSupply",
          "type": "uint256"
        },
        {
          "internalType": "uint256",
          "name": "burned",
          "type": "uint256"
        },
        {
          "internalType": "uint256",
          "name": "staked",
          "type": "uint256"
        }
      ],
      "stateMutability": "view",
      "type": "function"
    },
    {
      "inputs": [
        {
          "internalType": "address",
          "name": "user",
          "type": "address"
        }
      ],
      "name": "getStakeInfo",
      "outputs": [
        {
          "internalType": "uint256",
          "name": "amount",
          "type": "uint256"
        },
        {
          "internalType": "uint256",
          "name": "startTime",
          "type": "uint256"
        },
        {
          "internalType": "uint256",
          "name": "lockPeriod",
          "type": "uint256"
        },
        {
          "internalType": "bool",
          "name": "active",
          "type": "bool"
        }
      ],
      "stateMutability": "view",
      "type": "function"
    },
    {
      "inputs": [
        {
          "internalType": "address",
          "name": "spender",
          "type": "address"
        },
        {
          "internalType": "uint256",
          "name": "addedValue",
          "type": "uint256"
        }
      ],
      "name": "increaseAllowance",
      "outputs": [
        {
          "internalType": "bool",
          "name": "",
          "type": "bool"
        }
      ],
      "stateMutability": "nonpayable",
      "type": "function"
    },
    {
      "inputs": [
        {
          "internalType": "address",
          "name": "to",
          "type": "address"
        },
        {
          "internalType": "uint256",
          "name": "amount",
          "type": "uint256"
        }
      ],
      "name": "mint",
      "outputs": [],
      "stateMutability": "nonpayable",
      "type": "function"
    },
    {
      "inputs": [],
      "name": "name",
      "outputs": [
        {
          "internalType": "string",
          "name": "",
          "type": "string"
        }
      ],
      "stateMutability": "view",
      "type": "function"
    },
    {
      "inputs": [],
      "name": "owner",
      "outputs": [
        {
          "internalType": "address",
          "name": "",
          "type": "address"
        }
      ],
      "stateMutability": "view",
      "type": "function"
    },
    {
      "inputs": [],
      "name": "pause",
      "outputs": [],
      "stateMutability": "nonpayable",
      "type": "function"
    },
    {
      "inputs": [],
      "name": "paused",
      "outputs": [
        {
          "internalType": "bool",
          "name": "",
          "type": "bool"
        }
      ],
      "stateMutability": "view",
      "type": "function"
    },
    {
      "inputs": [],
      "name": "renounceOwnership",
      "outputs": [],
      "stateMutability": "nonpayable",
      "type": "function"
    },
    {
      "inputs": [
        {
          "internalType": "uint256",
          "name": "newFee",
          "type": "uint256"
        }
      ],
      "name": "setTransactionFee",
      "outputs": [],
      "stateMutability": "nonpayable",
      "type": "function"
    },
    {
      "inputs": [
        {
          "internalType": "address",
          "name": "treasury",
          "type": "address"
        }
      ],
      "name": "setTreasuryAddress",
      "outputs": [],
      "stateMutability": "nonpayable",
      "type": "function"
    },
    {
      "inputs": [
        {
          "internalType": "address",
          "name": "loomAddress",
          "type": "address"
        }
      ],
      "name": "setW2ELoomAddress",
      "outputs": [],
      "stateMutability": "nonpayable",
      "type": "function"
    },
    {
      "inputs": [
        {
          "internalType": "uint256",
          "name": "amount",
          "type": "uint256"
        },
        {
          "internalType": "uint256",
          "name": "lockPeriod",
          "type": "uint256"
        }
      ],
      "name": "stake",
      "outputs": [],
      "stateMutability": "nonpayable",
      "type": "function"
    },
    {
      "inputs": [
        {
          "internalType": "address",
          "name": "",
          "type": "address"
        }
      ],
      "name": "stakes",
      "outputs": [
        {
          "internalType": "uint256",
          "name": "amount",
          "type": "uint256"
        },
        {
          "internalType": "uint256",
          "name": "startTime",
          "type": "uint256"
        },
        {
          "internalType": "uint256",
          "name": "lockPeriod",
          "type": "uint256"
        },
        {
          "internalType": "bool",
          "name": "active",
          "type": "bool"
        }
      ],
      "stateMutability": "view",
      "type": "function"
    },
    {
      "inputs": [],
      "name": "symbol",
      "outputs": [
        {
          "internalType": "string",
          "name": "",
          "type": "string"
        }
      ],
      "stateMutability": "view",
      "type": "function"
    },
    {
      "inputs": [],
      "name": "totalBurned",
      "outputs": [
        {
          "internalType": "uint256",
          "name": "",
          "type": "uint256"
        }
      ],
      "stateMutability": "view",
      "type": "function"
    },
    {
      "inputs": [],
      "name": "totalStaked",
      "outputs": [
        {
          "internalType": "uint256",
          "name": "",
          "type": "uint256"
        }
      ],
      "stateMutability": "view",
      "type": "function"
    },
    {
      "inputs": [],
      "name": "totalSupply",
      "outputs": [
        {
          "internalType": "uint256",
          "name": "",
          "type": "uint256"
        }
      ],
      "stateMutability": "view",
      "type": "function"
    },
    {
      "inputs": [],
      "name": "transactionFee",
      "outputs": [
        {
          "internalType": "uint256",
          "name": "",
          "type": "uint256"
        }
      ],
      "stateMutability": "view",
      "type": "function"
    },
    {
      "inputs": [
        {
          "internalType": "address",
          "name": "to",
          "type": "address"
        },
        {
          "internalType": "uint256",
          "name": "amount",
          "type": "uint256"
        }
      ],
      "name": "transfer",
      "outputs": [
        {
          "internalType": "bool",
          "name": "",
          "type": "bool"
        }
      ],
      "stateMutability": "nonpayable",
      "type": "function"
    },
    {
      "inputs": [
        {
          "internalType": "address",
          "name": "from",
          "type": "address"
        },
        {
          "internalType": "address",
          "name": "to",
          "type": "address"
        },
        {
          "internalType": "uint256",
          "name": "amount",
          "type": "uint256"
        }
      ],
      "name": "transferFrom",
      "outputs": [
        {
          "internalType": "bool",
          "name": "",
          "type": "bool"
        }
      ],
      "stateMutability": "nonpayable",
      "type": "function"
    },
    {
      "inputs": [
        {
          "internalType": "address",
          "name": "newOwner",
          "type": "address"
        }
      ],
      "name": "transferOwnership",
      "outputs": [],
      "stateMutability": "nonpayable",
      "type": "function"
    },
    {
      "inputs": [],
      "name": "treasuryAddress",
      "outputs": [
        {
          "internalType": "address",
          "name": "",
          "type": "address"
        }
      ],
      "stateMutability": "view",
      "type": "function"
    },
    {
      "inputs": [],
      "name": "unpause",
      "outputs": [],
      "stateMutability": "nonpayable",
      "type": "function"
    },
    {
      "inputs": [],
      "name": "unstake",
      "outputs": [],
      "stateMutability": "nonpayable",
      "type": "function"
    },
    {
      "inputs": [],
      "name": "w2eLoomAddress",
      "outputs": [
        {
          "internalType": "address",
          "name": "",
          "type": "address"
        }
      ],
      "stateMutability": "view",
      "type": "function"
    }
  ],
  "bytecode": "0x608060405260326009553480156200001657600080fd5b506040516200223b3803806200223b8339810160408190526200003991620001ab565b82826003620000498382620002c7565b506004620000588282620002c7565b505050620000756200006f6200009060201b60201c565b62000094565b50506005805460ff60a01b1916905550600160065562000393565b3390565b600580546001600160a01b038381166001600160a01b0319831681179093556040519116919082907f8be0079c531659141344cd1fd0a4f28419497f9722a3daafe3b4186f6b6457e090600090a35050565b634e487b7160e01b600052604160045260246000fd5b600082601f8301126200010e57600080fd5b81516001600160401b03808211156200012b576200012b620000e6565b604051601f8301601f19908116603f01168101908282118183101715620001565762000156620000e6565b816040528381526020925086838588010111156200017357600080fd5b600091505b8382101562000197578582018301518183018401529082019062000178565b600093810190920192909252949350505050565b600080600060608486031215620001c157600080fd5b83516001600160401b0380821115620001d957600080fd5b620001e787838801620000fc565b94506020860151915080821115620001fe57600080fd5b506200020d86828701620000fc565b604086015190935090506001600160a01b03811681146200022d57600080fd5b809150509250925092565b600181811c908216806200024d57607f821691505b6020821081036200026e57634e487b7160e01b600052602260045260246000fd5b50919050565b601f821115620002c257600081815260208120601f850160051c810160208610156200029d5750805b601f850160051c820191505b81811015620002be57828155600101620002a9565b5050505b505050565b81516001600160401b03811115620002e357620002e3620000e6565b620002fb81620002f4845462000238565b8462000274565b602080601f8311600181146200033357600084156200031a5750858301515b600019600386901b1c1916600185901b178555620002be565b600085815260208120601f198616915b82811015620003645788860151825594840194600190910190840162000343565b5085821015620003835787850151600019600388901b60f8161c191681555b5050505050600190811b01905550565b611e9880620003a36000396000f3fe608060405234801561001057600080fd5b50600436106102115760003560e01c8063715018a6116101255780639ed3edf0116100ad578063c5f956af1161007c578063c5f956af146104ce578063d89135cd146104e1578063dd62ed3e146104ea578063f2fde38b146104fd578063f82226501461051057600080fd5b80639ed3edf01461045d578063a457c2d714610466578063a9059cbb14610479578063c34531531461048c57600080fd5b80638456cb59116100f45780638456cb591461040257806385f4498b1461040a5780638da5cb5b1461041d57806395d89b41146104425780639e05220d1461044a57600080fd5b8063715018a6146103cb57806379cc6790146103d35780637b0472f0146103e6578063817b1cd2146103f957600080fd5b80632def6620116101a857806340c10f191161017757806340c10f191461035757806342966c681461036a5780635c975abb1461037d5780636605bfda1461038f57806370a08231146103a257600080fd5b80632def662014610325578063313ce5671461032d578063395093511461033c5780633f4ba83a1461034f57600080fd5b806316934fc4116101e457806316934fc41461028d57806318160ddd146102e757806323b872dd146102ef5780632662388f1461030257600080fd5b806306fdde0314610216578063095ea7b314610234578063096a8ab7146102575780630d5055411461026c575b600080fd5b61021e610523565b60405161022b9190611bec565b60405180910390f35b610247610242366004611c56565b6105b5565b604051901515815260200161022b565b61026a610265366004611c80565b6105cf565b005b61027f61027a366004611c99565b610633565b60405190815260200161022b565b6102c561029b366004611c99565b600b6020526000908152604090208054600182015460028301546003909301549192909160ff1684565b604080519485526020850193909352918301521515606082015260800161022b565b60025461027f565b6102476102fd366004611cb4565b6106a9565b61030a61088a565b6040805193845260208401929092529082015260600161022b565b61026a6108a9565b6040516012815260200161022b565b61024761034a366004611c56565b610a0b565b61026a610a28565b61026a610365366004611c56565b610a38565b61026a610378366004611c80565b610b32565b600554600160a01b900460ff16610247565b61026a61039d366004611c99565b610c50565b61027f6103b0366004611c99565b6001600160a01b031660009081526020819052604090205490565b61026a610cd0565b61026a6103e1366004611c56565b610ce2565b61026a6103f4366004611cf0565b610e47565b61027f600c5481565b61026a611040565b610247610418366004611c99565b611050565b6005546001600160a01b03165b6040516001600160a01b03909116815260200161022b565b61021e611095565b60075461042a906001600160a01b031681565b61027f60095481565b610247610474366004611c56565b6110a4565b610247610487366004611c56565b61112a565b6102c561049a366004611c99565b6001600160a01b03166000908152600b60205260409020805460018201546002830154600390930154919390929160ff1690565b60085461042a906001600160a01b031681565b61027f600a5481565b61027f6104f8366004611d12565b611272565b61026a61050b366004611c99565b61129d565b61026a61051e366004611c99565b611313565b60606003805461053290611d45565b80601f016020809104026020016040519081016040528092919081815260200182805461055e90611d45565b80156105ab5780601f10610580576101008083540402835291602001916105ab565b820191906000526020600020905b81548152906001019060200180831161058e57829003601f168201915b5050505050905090565b6000336105c38185856113c3565b60019150505b92915050565b6105d76114e8565b6103e881111561062e5760405162461bcd60e51b815260206004820152601a60248201527f5732453a204665652063616e6e6f74206578636565642031302500000000000060448201526064015b60405180910390fd5b600955565b6001600160a01b0381166000908152600b60205260408120600381015460ff166106605750600092915050565b60008160010154426106729190611d95565b9050600063bbf81e0082846000015461068b9190611da8565b610696906005611da8565b6106a09190611dbf565b95945050505050565b60006106b3611542565b6106bb61159b565b6001600160a01b03831661070a5760405162461bcd60e51b815260206004820152601660248201527515cc914e88125b9d985b1a59081c9958da5c1a595b9d60521b6044820152606401610625565b600060095411801561072a57506007546001600160a01b03858116911614155b801561074457506008546001600160a01b03858116911614155b1561086b5760006127106009548461075c9190611da8565b6107669190611dbf565b905060006107748285611d95565b60085490915061078f9087906001600160a01b0316846115e8565b600061079b8733611272565b9050848110156107fc5760405162461bcd60e51b815260206004820152602660248201527f5732453a205472616e7366657220616d6f756e74206578636565647320616c6c6044820152656f77616e636560d01b6064820152608401610625565b610810873361080b8885611d95565b6113c3565b61081b8787846115e8565b60408051868152602081018590526001600160a01b038916917f108516ddcf5ba43cea6bb2cd5ff6d59ac196c1c86ccb9178332b9dd72d1ca561910160405180910390a260019350505050610879565b610876848484611799565b90505b6108836001600655565b9392505050565b600080600061089860025490565b600a54600c54925092509250909192565b6108b1611542565b6108b961159b565b336000908152600b60205260409020600381015460ff166109135760405162461bcd60e51b81526020600482015260146024820152735732453a204e6f20616374697665207374616b6560601b6044820152606401610625565b806002015481600101546109279190611de1565b4210156109765760405162461bcd60e51b815260206004820152601a60248201527f5732453a204c6f636b20706572696f64206e6f7420656e6465640000000000006044820152606401610625565b8054600061098333610633565b60038401805460ff19169055600c805491925083916000906109a6908490611d95565b909155506109b6905033826117b2565b6109c13033846115e8565b604080518381526020810183905233917f7fc4727e062e336010f2c282598ef5f14facb3de68cf8195c2f23e1454b2b74e910160405180910390a2505050610a096001600655565b565b6000336105c3818585610a1e8383611272565b61080b9190611de1565b610a306114e8565b610a0961187d565b6007546001600160a01b03163314610a625760405162461bcd60e51b815260040161062590611df4565b610a6a611542565b6001600160a01b038216610ab75760405162461bcd60e51b81526020600482015260146024820152735732453a20496e76616c6964206164647265737360601b6044820152606401610625565b60008111610ad75760405162461bcd60e51b815260040161062590611e2b565b610ae182826117b2565b816001600160a01b03167f3f2c9d57c068687834f0de942a9babb9e5acab57d516d3480a3c16ee165a427382604051610b1c91815260200190565b60405180910390a2610b2e6001600655565b5050565b6007546001600160a01b03163314610b5c5760405162461bcd60e51b815260040161062590611df4565b610b64611542565b60008111610b845760405162461bcd60e51b815260040161062590611e2b565b30600090815260208190526040902054811115610bed5760405162461bcd60e51b815260206004820152602160248201527f5732453a20496e73756666696369656e742062616c616e636520746f206275726044820152603760f91b6064820152608401610625565b610bf730826118d2565b80600a6000828254610c099190611de1565b909155505060405181815230907ffd38818f5291bf0bb3a2a48aadc06ba8757865d1dabd804585338aab3009dcb69060200160405180910390a2610c4d6001600655565b50565b610c586114e8565b6001600160a01b038116610cae5760405162461bcd60e51b815260206004820152601d60248201527f5732453a20496e76616c696420747265617375727920616464726573730000006044820152606401610625565b600880546001600160a01b0319166001600160a01b0392909216919091179055565b610cd86114e8565b610a096000611a0d565b6007546001600160a01b03163314610d0c5760405162461bcd60e51b815260040161062590611df4565b610d14611542565b6001600160a01b038216610d615760405162461bcd60e51b81526020600482015260146024820152735732453a20496e76616c6964206164647265737360601b6044820152606401610625565b60008111610d815760405162461bcd60e51b815260040161062590611e2b565b80610da1836001600160a01b031660009081526020819052604090205490565b1015610deb5760405162461bcd60e51b81526020600482015260196024820152785732453a20496e73756666696369656e742062616c616e636560381b6044820152606401610625565b610df582826118d2565b80600a6000828254610e079190611de1565b90915550506040518181526001600160a01b038316907ffd38818f5291bf0bb3a2a48aadc06ba8757865d1dabd804585338aab3009dcb690602001610b1c565b610e4f611542565b610e5761159b565b60008211610e775760405162461bcd60e51b815260040161062590611e2b565b33600090815260208190526040902054821115610ed25760405162461bcd60e51b81526020600482015260196024820152785732453a20496e73756666696369656e742062616c616e636560381b6044820152606401610625565b336000908152600b602052604090206003015460ff1615610f2c5760405162461bcd60e51b81526020600482015260146024820152735732453a20416c7265616479207374616b696e6760601b6044820152606401610625565b62015180811015610f895760405162461bcd60e51b815260206004820152602160248201527f5732453a204d696e696d756d206c6f636b20706572696f6420697320312064616044820152607960f81b6064820152608401610625565b610f943330846115e8565b60408051608081018252838152426020808301918252828401858152600160608501818152336000908152600b909452958320945185559251928401929092559051600283015591516003909101805460ff1916911515919091179055600c8054849290611003908490611de1565b9091555050604080518381526020810183905233917f1449c6dd7851abc30abf37f57715f492010519147cc2652fbc38202c18a6ee909101610b1c565b6110486114e8565b610a09611a5f565b6001600160a01b0381166000908152600b60205260408120600381015460ff16801561088357508060020154816001015461108b9190611de1565b4210159392505050565b60606004805461053290611d45565b600033816110b28286611272565b9050838110156111125760405162461bcd60e51b815260206004820152602560248201527f45524332303a2064656372656173656420616c6c6f77616e63652062656c6f77604482015264207a65726f60d81b6064820152608401610625565b61111f82868684036113c3565b506001949350505050565b6000611134611542565b61113c61159b565b6001600160a01b03831661118b5760405162461bcd60e51b815260206004820152601660248201527515cc914e88125b9d985b1a59081c9958da5c1a595b9d60521b6044820152606401610625565b60006009541180156111a857506007546001600160a01b03163314155b80156111bf57506008546001600160a01b03163314155b1561125b576000612710600954846111d79190611da8565b6111e19190611dbf565b905060006111ef8285611d95565b60085490915061120a9033906001600160a01b0316846115e8565b6112153386836115e8565b604080518581526020810184905233917f108516ddcf5ba43cea6bb2cd5ff6d59ac196c1c86ccb9178332b9dd72d1ca561910160405180910390a2600192505050611268565b6112658383611aa2565b90505b6105c96001600655565b6001600160a01b03918216600090815260016020908152604080832093909416825291909152205490565b6112a56114e8565b6001600160a01b03811661130a5760405162461bcd60e51b815260206004820152602660248201527f4f776e61626c653a206e6577206f776e657220697320746865207a65726f206160448201526564647265737360d01b6064820152608401610625565b610c4d81611a0d565b61131b6114e8565b6001600160a01b0381166113715760405162461bcd60e51b815260206004820152601960248201527f5732453a20496e76616c6964206c6f6f6d2061646472657373000000000000006044820152606401610625565b600780546001600160a01b038381166001600160a01b0319831681179093556040519116919082907fa863b0ab9c9fd113534a73dc48e152501881699e0c41fa017f1036a31b30927b90600090a35050565b6001600160a01b0383166114255760405162461bcd60e51b8152602060048201526024808201527f45524332303a20617070726f76652066726f6d20746865207a65726f206164646044820152637265737360e01b6064820152608401610625565b6001600160a01b0382166114865760405162461bcd60e51b815260206004820152602260248201527f45524332303a20617070726f766520746f20746865207a65726f206164647265604482015261737360f01b6064820152608401610625565b6001600160a01b0383811660008181526001602090815260408083209487168084529482529182902085905590518481527f8c5be1e5ebec7d5bd14f71427d1e84f3dd0314c0f7b2291e5b200ac8c7c3b92591015b60405180910390a3505050565b6005546001600160a01b03163314610a095760405162461bcd60e51b815260206004820181905260248201527f4f776e61626c653a2063616c6c6572206973206e6f7420746865206f776e65726044820152606401610625565b6002600654036115945760405162461bcd60e51b815260206004820152601f60248201527f5265656e7472616e637947756172643a207265656e7472616e742063616c6c006044820152606401610625565b6002600655565b600554600160a01b900460ff1615610a095760405162461bcd60e51b815260206004820152601060248201526f14185d5cd8589b194e881c185d5cd95960821b6044820152606401610625565b6001600160a01b03831661164c5760405162461bcd60e51b815260206004820152602560248201527f45524332303a207472616e736665722066726f6d20746865207a65726f206164604482015264647265737360d81b6064820152608401610625565b6001600160a01b0382166116ae5760405162461bcd60e51b815260206004820152602360248201527f45524332303a207472616e7366657220746f20746865207a65726f206164647260448201526265737360e81b6064820152608401610625565b6116b9838383611ab0565b6001600160a01b038316600090815260208190526040902054818110156117315760405162461bcd60e51b815260206004820152602660248201527f45524332303a207472616e7366657220616d6f756e7420657863656564732062604482015265616c616e636560d01b6064820152608401610625565b6001600160a01b03848116600081815260208181526040808320878703905593871680835291849020805487019055925185815290927fddf252ad1be2c89b69c2b068fc378daa952ba7f163c4a11628f55a4df523b3ef910160405180910390a35b50505050565b6000336117a7858285611abb565b61111f8585856115e8565b6001600160a01b0382166118085760405162461bcd60e51b815260206004820152601f60248201527f45524332303a206d696e7420746f20746865207a65726f2061646472657373006044820152606401610625565b61181460008383611ab0565b80600260008282546118269190611de1565b90915550506001600160a01b038216600081815260208181526040808320805486019055518481527fddf252ad1be2c89b69c2b068fc378daa952ba7f163c4a11628f55a4df523b3ef910160405180910390a35050565b611885611b2f565b6005805460ff60a01b191690557f5db9ee0a495bf2e6ff9c91a7834c1ba4fdd244a5e8aa4e537bd38aeae4b073aa335b6040516001600160a01b03909116815260200160405180910390a1565b6001600160a01b0382166119325760405162461bcd60e51b815260206004820152602160248201527f45524332303a206275726e2066726f6d20746865207a65726f206164647265736044820152607360f81b6064820152608401610625565b61193e82600083611ab0565b6001600160a01b038216600090815260208190526040902054818110156119b25760405162461bcd60e51b815260206004820152602260248201527f45524332303a206275726e20616d6f756e7420657863656564732062616c616e604482015261636560f01b6064820152608401610625565b6001600160a01b0383166000818152602081815260408083208686039055600280548790039055518581529192917fddf252ad1be2c89b69c2b068fc378daa952ba7f163c4a11628f55a4df523b3ef91016114db565b505050565b600580546001600160a01b038381166001600160a01b0319831681179093556040519116919082907f8be0079c531659141344cd1fd0a4f28419497f9722a3daafe3b4186f6b6457e090600090a35050565b611a6761159b565b6005805460ff60a01b1916600160a01b1790557f62e78cea01bee320cd4e420270b5ea74000d11b0c9f74754ebdbfc544b05a2586118b53390565b6000336105c38185856115e8565b611a08838383611b7f565b6000611ac78484611272565b905060001981146117935781811015611b225760405162461bcd60e51b815260206004820152601d60248201527f45524332303a20696e73756666696369656e7420616c6c6f77616e63650000006044820152606401610625565b61179384848484036113c3565b600554600160a01b900460ff16610a095760405162461bcd60e51b815260206004820152601460248201527314185d5cd8589b194e881b9bdd081c185d5cd95960621b6044820152606401610625565b600554600160a01b900460ff1615611a085760405162461bcd60e51b815260206004820152602a60248201527f45524332305061757361626c653a20746f6b656e207472616e736665722077686044820152691a5b19481c185d5cd95960b21b6064820152608401610625565b600060208083528351808285015260005b81811015611c1957858101830151858201604001528201611bfd565b506000604082860101526040601f19601f8301168501019250505092915050565b80356001600160a01b0381168114611c5157600080fd5b919050565b60008060408385031215611c6957600080fd5b611c7283611c3a565b946020939093013593505050565b600060208284031215611c9257600080fd5b5035919050565b600060208284031215611cab57600080fd5b61088382611c3a565b600080600060608486031215611cc957600080fd5b611cd284611c3a565b9250611ce060208501611c3a565b9150604084013590509250925092565b60008060408385031215611d0357600080fd5b50508035926020909101359150565b60008060408385031215611d2557600080fd5b611d2e83611c3a565b9150611d3c60208401611c3a565b90509250929050565b600181811c90821680611d5957607f821691505b602082108103611d7957634e487b7160e01b600052602260045260246000fd5b50919050565b634e487b7160e01b600052601160045260246000fd5b818103818111156105c9576105c9611d7f565b80820281158282048414176105c9576105c9611d7f565b600082611ddc57634e487b7160e01b600052601260045260246000fd5b500490565b808201808211156105c9576105c9611d7f565b6020808252601a908201527f5732453a204e6f7420573245204c6f6f6d20436f6e7472616374000000000000604082015260600190565b6020808252601c908201527f5732453a20416d6f756e74206d75737420626520706f7369746976650000000060408201526060019056fea264697066735822122031f436e75774926b360bab3540a42265d07c08138ba4518898fde45def4f066c64736f6c63430008140033",
  "linkReferences": {},
  "deployedLinkReferences": {}
}