{
  "abi": [
    {
      "inputs": [
        {
          "internalType": "address[]",
          "name": "initialAdmins",
          "type": "address[]"
        },
        {
          "internalType": "address",
          "name": "_utilityAddress",
          "type": "address"
        },
        {
          "internalType": "address",
          "name": "trustedForwarder",
          "type": "address"
        }
      ],
      "stateMutability": "nonpayable",
      "type": "constructor"
    },
    {
      "inputs": [],
      "name": "AccessControlBadConfirmation",
      "type": "error"
    },
    {
      "inputs": [
        {
          "internalType": "address",
          "name": "account",
          "type": "address"
        },
        {
          "internalType": "bytes32",
          "name": "neededRole",
          "type": "bytes32"
        }
      ],
      "name": "AccessControlUnauthorizedAccount",
      "type": "error"
    },
    {
      "inputs": [],
      "name": "AlreadyUnlockedOrWithdrawn",
      "type": "error"
    },
    {
      "inputs": [],
      "name": "AlreadyWithdrawn",
      "type": "error"
    },
    {
      "inputs": [],
      "name": "ArrayLengthMismatch",
      "type": "error"
    },
    {
      "inputs": [],
      "name": "CapReached",
      "type": "error"
    },
    {
      "inputs": [],
      "name": "DepositLocked",
      "type": "error"
    },
    {
      "inputs": [],
      "name": "DepositsPaused",
      "type": "error"
    },
    {
      "inputs": [],
      "name": "ExceedsTotalUtility",
      "type": "error"
    },
    {
      "inputs": [],
      "name": "GlobalLiquidationAlreadyEnabled",
      "type": "error"
    },
    {
      "inputs": [],
      "name": "InsufficientBalance",
      "type": "error"
    },
    {
      "inputs": [],
      "name": "InvalidAmount",
      "type": "error"
    },
    {
      "inputs": [],
      "name": "NoUtilityToClaim",
      "type": "error"
    },
    {
      "inputs": [],
      "name": "NotWhitelisted",
      "type": "error"
    },
    {
      "inputs": [],
      "name": "ReentrancyGuardReentrantCall",
      "type": "error"
    },
    {
      "inputs": [],
      "name": "ReturnedAmountExceedsInvested",
      "type": "error"
    },
    {
      "inputs": [],
      "name": "TransferFailed",
      "type": "error"
    },
    {
      "inputs": [],
      "name": "WithdrawalsPaused",
      "type": "error"
    },
    {
      "inputs": [],
      "name": "ZeroAddress",
      "type": "error"
    },
    {
      "anonymous": false,
      "inputs": [
        {
          "indexed": true,
          "internalType": "address",
          "name": "user",
          "type": "address"
        },
        {
          "indexed": false,
          "internalType": "uint256[]",
          "name": "indices",
          "type": "uint256[]"
        },
        {
          "indexed": false,
          "internalType": "uint256",
          "name": "totalPrincipal",
          "type": "uint256"
        },
        {
          "indexed": false,
          "internalType": "uint256",
          "name": "totalYield",
          "type": "uint256"
        },
        {
          "indexed": false,
          "internalType": "uint256",
          "name": "when",
          "type": "uint256"
        }
      ],
      "name": "BatchWithdraw",
      "type": "event"
    },
    {
      "anonymous": false,
      "inputs": [
        {
          "indexed": true,
          "internalType": "address",
          "name": "user",
          "type": "address"
        },
        {
          "indexed": false,
          "internalType": "uint256",
          "name": "amount",
          "type": "uint256"
        },
        {
          "indexed": false,
          "internalType": "uint256",
          "name": "when",
          "type": "uint256"
        }
      ],
      "name": "ClaimUtility",
      "type": "event"
    },
    {
      "anonymous": false,
      "inputs": [
        {
          "indexed": true,
          "internalType": "address",
          "name": "user",
          "type": "address"
        },
        {
          "indexed": false,
          "internalType": "uint256",
          "name": "amount",
          "type": "uint256"
        },
        {
          "indexed": false,
          "internalType": "uint256",
          "name": "when",
          "type": "uint256"
        },
        {
          "indexed": false,
          "internalType": "uint256",
          "name": "depositIndex",
          "type": "uint256"
        },
        {
          "indexed": false,
          "internalType": "bool",
          "name": "reinvestment",
          "type": "bool"
        }
      ],
      "name": "Deposit",
      "type": "event"
    },
    {
      "anonymous": false,
      "inputs": [
        {
          "indexed": true,
          "internalType": "address",
          "name": "user",
          "type": "address"
        },
        {
          "indexed": false,
          "internalType": "uint256[]",
          "name": "indices",
          "type": "uint256[]"
        }
      ],
      "name": "DepositsUnlocked",
      "type": "event"
    },
    {
      "anonymous": false,
      "inputs": [
        {
          "indexed": true,
          "internalType": "address",
          "name": "token",
          "type": "address"
        },
        {
          "indexed": true,
          "internalType": "address",
          "name": "to",
          "type": "address"
        },
        {
          "indexed": false,
          "internalType": "uint256",
          "name": "amount",
          "type": "uint256"
        }
      ],
      "name": "ERC20Rescued",
      "type": "event"
    },
    {
      "anonymous": false,
      "inputs": [
        {
          "indexed": false,
          "internalType": "uint256",
          "name": "when",
          "type": "uint256"
        }
      ],
      "name": "GlobalLiquidationEnabled",
      "type": "event"
    },
    {
      "anonymous": false,
      "inputs": [
        {
          "indexed": true,
          "internalType": "address",
          "name": "manager",
          "type": "address"
        },
        {
          "indexed": false,
          "internalType": "uint256",
          "name": "amount",
          "type": "uint256"
        },
        {
          "indexed": false,
          "internalType": "uint256",
          "name": "when",
          "type": "uint256"
        }
      ],
      "name": "InvestmentReturned",
      "type": "event"
    },
    {
      "anonymous": false,
      "inputs": [
        {
          "indexed": false,
          "internalType": "uint256",
          "name": "newPeriod",
          "type": "uint256"
        }
      ],
      "name": "LockupPeriodChanged",
      "type": "event"
    },
    {
      "anonymous": false,
      "inputs": [
        {
          "indexed": false,
          "internalType": "uint256",
          "name": "newCap",
          "type": "uint256"
        }
      ],
      "name": "MaxCapChanged",
      "type": "event"
    },
    {
      "anonymous": false,
      "inputs": [
        {
          "indexed": false,
          "internalType": "bool",
          "name": "depositsPaused",
          "type": "bool"
        },
        {
          "indexed": false,
          "internalType": "bool",
          "name": "withdrawalsPaused",
          "type": "bool"
        }
      ],
      "name": "PauseChanged",
      "type": "event"
    },
    {
      "anonymous": false,
      "inputs": [
        {
          "indexed": true,
          "internalType": "address",
          "name": "user",
          "type": "address"
        },
        {
          "indexed": false,
          "internalType": "uint256",
          "name": "amount",
          "type": "uint256"
        },
        {
          "indexed": false,
          "internalType": "uint256",
          "name": "when",
          "type": "uint256"
        }
      ],
      "name": "Reinvest",
      "type": "event"
    },
    {
      "anonymous": false,
      "inputs": [
        {
          "indexed": true,
          "internalType": "bytes32",
          "name": "role",
          "type": "bytes32"
        },
        {
          "indexed": true,
          "internalType": "bytes32",
          "name": "previousAdminRole",
          "type": "bytes32"
        },
        {
          "indexed": true,
          "internalType": "bytes32",
          "name": "newAdminRole",
          "type": "bytes32"
        }
      ],
      "name": "RoleAdminChanged",
      "type": "event"
    },
    {
      "anonymous": false,
      "inputs": [
        {
          "indexed": true,
          "internalType": "bytes32",
          "name": "role",
          "type": "bytes32"
        },
        {
          "indexed": true,
          "internalType": "address",
          "name": "account",
          "type": "address"
        },
        {
          "indexed": true,
          "internalType": "address",
          "name": "sender",
          "type": "address"
        }
      ],
      "name": "RoleGranted",
      "type": "event"
    },
    {
      "anonymous": false,
      "inputs": [
        {
          "indexed": true,
          "internalType": "bytes32",
          "name": "role",
          "type": "bytes32"
        },
        {
          "indexed": true,
          "internalType": "address",
          "name": "account",
          "type": "address"
        },
        {
          "indexed": true,
          "internalType": "address",
          "name": "sender",
          "type": "address"
        }
      ],
      "name": "RoleRevoked",
      "type": "event"
    },
    {
      "anonymous": false,
      "inputs": [
        {
          "indexed": true,
          "internalType": "address",
          "name": "user",
          "type": "address"
        },
        {
          "indexed": false,
          "internalType": "bool",
          "name": "status",
          "type": "bool"
        }
      ],
      "name": "UserWhitelisted",
      "type": "event"
    },
    {
      "anonymous": false,
      "inputs": [
        {
          "indexed": false,
          "internalType": "address",
          "name": "newUtilityAddress",
          "type": "address"
        }
      ],
      "name": "UtilityAddressChanged",
      "type": "event"
    },
    {
      "anonymous": false,
      "inputs": [
        {
          "indexed": true,
          "internalType": "address",
          "name": "admin",
          "type": "address"
        },
        {
          "indexed": false,
          "internalType": "uint256",
          "name": "amount",
          "type": "uint256"
        },
        {
          "indexed": false,
          "internalType": "uint256",
          "name": "when",
          "type": "uint256"
        }
      ],
      "name": "UtilityInjected",
      "type": "event"
    },
    {
      "anonymous": false,
      "inputs": [
        {
          "indexed": true,
          "internalType": "address",
          "name": "to",
          "type": "address"
        },
        {
          "indexed": false,
          "internalType": "uint256",
          "name": "amount",
          "type": "uint256"
        },
        {
          "indexed": false,
          "internalType": "uint256",
          "name": "when",
          "type": "uint256"
        }
      ],
      "name": "UtilityWithdrawn",
      "type": "event"
    },
    {
      "anonymous": false,
      "inputs": [
        {
          "indexed": true,
          "internalType": "address",
          "name": "user",
          "type": "address"
        },
        {
          "indexed": false,
          "internalType": "uint256",
          "name": "principal",
          "type": "uint256"
        },
        {
          "indexed": false,
          "internalType": "uint256",
          "name": "yield",
          "type": "uint256"
        },
        {
          "indexed": false,
          "internalType": "uint256",
          "name": "when",
          "type": "uint256"
        },
        {
          "indexed": false,
          "internalType": "uint256",
          "name": "depositIndex",
          "type": "uint256"
        }
      ],
      "name": "Withdraw",
      "type": "event"
    },
    {
      "anonymous": false,
      "inputs": [
        {
          "indexed": true,
          "internalType": "address",
          "name": "manager",
          "type": "address"
        },
        {
          "indexed": true,
          "internalType": "address",
          "name": "to",
          "type": "address"
        },
        {
          "indexed": false,
          "internalType": "uint256",
          "name": "amount",
          "type": "uint256"
        },
        {
          "indexed": false,
          "internalType": "uint256",
          "name": "when",
          "type": "uint256"
        }
      ],
      "name": "WithdrawnForInvestment",
      "type": "event"
    },
    {
      "inputs": [],
      "name": "ADMIN_ROLE",
      "outputs": [
        {
          "internalType": "bytes32",
          "name": "",
          "type": "bytes32"
        }
      ],
      "stateMutability": "view",
      "type": "function"
    },
    {
      "inputs": [],
      "name": "DEFAULT_ADMIN_ROLE",
      "outputs": [
        {
          "internalType": "bytes32",
          "name": "",
          "type": "bytes32"
        }
      ],
      "stateMutability": "view",
      "type": "function"
    },
    {
      "inputs": [],
      "name": "MANAGER_ROLE",
      "outputs": [
        {
          "internalType": "bytes32",
          "name": "",
          "type": "bytes32"
        }
      ],
      "stateMutability": "view",
      "type": "function"
    },
    {
      "inputs": [],
      "name": "PAUSER_ROLE",
      "outputs": [
        {
          "internalType": "bytes32",
          "name": "",
          "type": "bytes32"
        }
      ],
      "stateMutability": "view",
      "type": "function"
    },
    {
      "inputs": [],
      "name": "UNLOCKER_ROLE",
      "outputs": [
        {
          "internalType": "bytes32",
          "name": "",
          "type": "bytes32"
        }
      ],
      "stateMutability": "view",
      "type": "function"
    },
    {
      "inputs": [],
      "name": "UTILITY_INJECTOR_ROLE",
      "outputs": [
        {
          "internalType": "bytes32",
          "name": "",
          "type": "bytes32"
        }
      ],
      "stateMutability": "view",
      "type": "function"
    },
    {
      "inputs": [],
      "name": "UTILITY_WITHDRAWER_ROLE",
      "outputs": [
        {
          "internalType": "bytes32",
          "name": "",
          "type": "bytes32"
        }
      ],
      "stateMutability": "view",
      "type": "function"
    },
    {
      "inputs": [
        {
          "internalType": "address",
          "name": "user",
          "type": "address"
        },
        {
          "internalType": "uint256",
          "name": "amount",
          "type": "uint256"
        }
      ],
      "name": "assignUtilityETH",
      "outputs": [],
      "stateMutability": "nonpayable",
      "type": "function"
    },
    {
      "inputs": [
        {
          "internalType": "address[]",
          "name": "users",
          "type": "address[]"
        },
        {
          "internalType": "uint256[]",
          "name": "amounts",
          "type": "uint256[]"
        }
      ],
      "name": "assignUtilityETHBatch",
      "outputs": [],
      "stateMutability": "nonpayable",
      "type": "function"
    },
    {
      "inputs": [
        {
          "internalType": "uint256[]",
          "name": "depositIndices",
          "type": "uint256[]"
        }
      ],
      "name": "batchWithdraw",
      "outputs": [],
      "stateMutability": "nonpayable",
      "type": "function"
    },
    {
      "inputs": [],
      "name": "claimUtilityETH",
      "outputs": [],
      "stateMutability": "nonpayable",
      "type": "function"
    },
    {
      "inputs": [],
      "name": "depositETH",
      "outputs": [],
      "stateMutability": "payable",
      "type": "function"
    },
    {
      "inputs": [],
      "name": "enableGlobalLiquidation",
      "outputs": [],
      "stateMutability": "nonpayable",
      "type": "function"
    },
    {
      "inputs": [
        {
          "internalType": "bytes32",
          "name": "role",
          "type": "bytes32"
        }
      ],
      "name": "getRoleAdmin",
      "outputs": [
        {
          "internalType": "bytes32",
          "name": "",
          "type": "bytes32"
        }
      ],
      "stateMutability": "view",
      "type": "function"
    },
    {
      "inputs": [
        {
          "internalType": "address",
          "name": "user",
          "type": "address"
        }
      ],
      "name": "getUserDeposits",
      "outputs": [
        {
          "components": [
            {
              "internalType": "uint96",
              "name": "amount",
              "type": "uint96"
            },
            {
              "internalType": "uint96",
              "name": "yieldReceived",
              "type": "uint96"
            },
            {
              "internalType": "uint48",
              "name": "timestamp",
              "type": "uint48"
            },
            {
              "internalType": "uint48",
              "name": "withdrawnAt",
              "type": "uint48"
            },
            {
              "internalType": "uint8",
              "name": "flags",
              "type": "uint8"
            }
          ],
          "internalType": "struct TestPool.DepositInfo[]",
          "name": "",
          "type": "tuple[]"
        }
      ],
      "stateMutability": "view",
      "type": "function"
    },
    {
      "inputs": [
        {
          "internalType": "address",
          "name": "user",
          "type": "address"
        }
      ],
      "name": "getUserStats",
      "outputs": [
        {
          "internalType": "uint256",
          "name": "depositedETH",
          "type": "uint256"
        },
        {
          "internalType": "uint256",
          "name": "withdrawnETH",
          "type": "uint256"
        },
        {
          "internalType": "uint256",
          "name": "claimableUtilityETH",
          "type": "uint256"
        },
        {
          "internalType": "uint256",
          "name": "reinvestedETH",
          "type": "uint256"
        }
      ],
      "stateMutability": "view",
      "type": "function"
    },
    {
      "inputs": [],
      "name": "getVaultStats",
      "outputs": [
        {
          "internalType": "uint256",
          "name": "ethInVault",
          "type": "uint256"
        },
        {
          "internalType": "uint256",
          "name": "totalDepositedETH_",
          "type": "uint256"
        },
        {
          "internalType": "uint256",
          "name": "totalWithdrawnETH_",
          "type": "uint256"
        },
        {
          "internalType": "uint256",
          "name": "totalUtilityETH_",
          "type": "uint256"
        },
        {
          "internalType": "uint256",
          "name": "totalReinvestedETH_",
          "type": "uint256"
        },
        {
          "internalType": "uint256",
          "name": "totalInvestedETH_",
          "type": "uint256"
        },
        {
          "internalType": "uint256",
          "name": "numWithdrawnUsers",
          "type": "uint256"
        }
      ],
      "stateMutability": "view",
      "type": "function"
    },
    {
      "inputs": [],
      "name": "globalLiquidationEnabled",
      "outputs": [
        {
          "internalType": "bool",
          "name": "",
          "type": "bool"
        }
      ],
      "stateMutability": "view",
      "type": "function"
    },
    {
      "inputs": [],
      "name": "globalLiquidationTimestamp",
      "outputs": [
        {
          "internalType": "uint48",
          "name": "",
          "type": "uint48"
        }
      ],
      "stateMutability": "view",
      "type": "function"
    },
    {
      "inputs": [
        {
          "internalType": "bytes32",
          "name": "role",
          "type": "bytes32"
        },
        {
          "internalType": "address",
          "name": "account",
          "type": "address"
        }
      ],
      "name": "grantRole",
      "outputs": [],
      "stateMutability": "nonpayable",
      "type": "function"
    },
    {
      "inputs": [
        {
          "internalType": "bytes32",
          "name": "role",
          "type": "bytes32"
        },
        {
          "internalType": "address",
          "name": "account",
          "type": "address"
        }
      ],
      "name": "hasRole",
      "outputs": [
        {
          "internalType": "bool",
          "name": "",
          "type": "bool"
        }
      ],
      "stateMutability": "view",
      "type": "function"
    },
    {
      "inputs": [
        {
          "internalType": "address",
          "name": "",
          "type": "address"
        }
      ],
      "name": "hasWithdrawn",
      "outputs": [
        {
          "internalType": "bool",
          "name": "",
          "type": "bool"
        }
      ],
      "stateMutability": "view",
      "type": "function"
    },
    {
      "inputs": [],
      "name": "injectUtilityETH",
      "outputs": [],
      "stateMutability": "payable",
      "type": "function"
    },
    {
      "inputs": [
        {
          "internalType": "address",
          "name": "",
          "type": "address"
        }
      ],
      "name": "isKnownDepositor",
      "outputs": [
        {
          "internalType": "bool",
          "name": "",
          "type": "bool"
        }
      ],
      "stateMutability": "view",
      "type": "function"
    },
    {
      "inputs": [
        {
          "internalType": "address",
          "name": "forwarder",
          "type": "address"
        }
      ],
      "name": "isTrustedForwarder",
      "outputs": [
        {
          "internalType": "bool",
          "name": "",
          "type": "bool"
        }
      ],
      "stateMutability": "view",
      "type": "function"
    },
    {
      "inputs": [
        {
          "internalType": "address",
          "name": "",
          "type": "address"
        }
      ],
      "name": "isWhitelisted",
      "outputs": [
        {
          "internalType": "bool",
          "name": "",
          "type": "bool"
        }
      ],
      "stateMutability": "view",
      "type": "function"
    },
    {
      "inputs": [],
      "name": "lockupPeriod",
      "outputs": [
        {
          "internalType": "uint256",
          "name": "",
          "type": "uint256"
        }
      ],
      "stateMutability": "view",
      "type": "function"
    },
    {
      "inputs": [],
      "name": "maxCapETH",
      "outputs": [
        {
          "internalType": "uint256",
          "name": "",
          "type": "uint256"
        }
      ],
      "stateMutability": "view",
      "type": "function"
    },
    {
      "inputs": [],
      "name": "pausedDeposits",
      "outputs": [
        {
          "internalType": "bool",
          "name": "",
          "type": "bool"
        }
      ],
      "stateMutability": "view",
      "type": "function"
    },
    {
      "inputs": [],
      "name": "pausedWithdrawals",
      "outputs": [
        {
          "internalType": "bool",
          "name": "",
          "type": "bool"
        }
      ],
      "stateMutability": "view",
      "type": "function"
    },
    {
      "inputs": [],
      "name": "reinvestUtilityETH",
      "outputs": [],
      "stateMutability": "nonpayable",
      "type": "function"
    },
    {
      "inputs": [
        {
          "internalType": "bytes32",
          "name": "role",
          "type": "bytes32"
        },
        {
          "internalType": "address",
          "name": "callerConfirmation",
          "type": "address"
        }
      ],
      "name": "renounceRole",
      "outputs": [],
      "stateMutability": "nonpayable",
      "type": "function"
    },
    {
      "inputs": [
        {
          "internalType": "address",
          "name": "token",
          "type": "address"
        },
        {
          "internalType": "address",
          "name": "to",
          "type": "address"
        },
        {
          "internalType": "uint256",
          "name": "amount",
          "type": "uint256"
        }
      ],
      "name": "rescueERC20",
      "outputs": [],
      "stateMutability": "nonpayable",
      "type": "function"
    },
    {
      "inputs": [],
      "name": "returnInvestmentETH",
      "outputs": [],
      "stateMutability": "payable",
      "type": "function"
    },
    {
      "inputs": [
        {
          "internalType": "bytes32",
          "name": "role",
          "type": "bytes32"
        },
        {
          "internalType": "address",
          "name": "account",
          "type": "address"
        }
      ],
      "name": "revokeRole",
      "outputs": [],
      "stateMutability": "nonpayable",
      "type": "function"
    },
    {
      "inputs": [
        {
          "internalType": "address",
          "name": "user",
          "type": "address"
        },
        {
          "internalType": "uint256[]",
          "name": "depositIndices",
          "type": "uint256[]"
        }
      ],
      "name": "setDepositsAsRedeemable",
      "outputs": [],
      "stateMutability": "nonpayable",
      "type": "function"
    },
    {
      "inputs": [
        {
          "internalType": "uint256",
          "name": "newPeriod",
          "type": "uint256"
        }
      ],
      "name": "setLockupPeriod",
      "outputs": [],
      "stateMutability": "nonpayable",
      "type": "function"
    },
    {
      "inputs": [
        {
          "internalType": "uint256",
          "name": "newCap",
          "type": "uint256"
        }
      ],
      "name": "setMaxCap",
      "outputs": [],
      "stateMutability": "nonpayable",
      "type": "function"
    },
    {
      "inputs": [
        {
          "internalType": "bool",
          "name": "_deposits",
          "type": "bool"
        },
        {
          "internalType": "bool",
          "name": "_withdrawals",
          "type": "bool"
        }
      ],
      "name": "setPaused",
      "outputs": [],
      "stateMutability": "nonpayable",
      "type": "function"
    },
    {
      "inputs": [
        {
          "internalType": "address",
          "name": "newUtilityAddress",
          "type": "address"
        }
      ],
      "name": "setUtilityAddress",
      "outputs": [],
      "stateMutability": "nonpayable",
      "type": "function"
    },
    {
      "inputs": [
        {
          "internalType": "address",
          "name": "user",
          "type": "address"
        },
        {
          "internalType": "bool",
          "name": "status",
          "type": "bool"
        }
      ],
      "name": "setWhitelist",
      "outputs": [],
      "stateMutability": "nonpayable",
      "type": "function"
    },
    {
      "inputs": [
        {
          "internalType": "address[]",
          "name": "users",
          "type": "address[]"
        },
        {
          "internalType": "bool[]",
          "name": "statuses",
          "type": "bool[]"
        }
      ],
      "name": "setWhitelistBatch",
      "outputs": [],
      "stateMutability": "nonpayable",
      "type": "function"
    },
    {
      "inputs": [
        {
          "internalType": "bool",
          "name": "enabled",
          "type": "bool"
        }
      ],
      "name": "setWhitelistEnabled",
      "outputs": [],
      "stateMutability": "nonpayable",
      "type": "function"
    },
    {
      "inputs": [
        {
          "internalType": "bytes4",
          "name": "interfaceId",
          "type": "bytes4"
        }
      ],
      "name": "supportsInterface",
      "outputs": [
        {
          "internalType": "bool",
          "name": "",
          "type": "bool"
        }
      ],
      "stateMutability": "view",
      "type": "function"
    },
    {
      "inputs": [],
      "name": "totalDepositedETH",
      "outputs": [
        {
          "internalType": "uint256",
          "name": "",
          "type": "uint256"
        }
      ],
      "stateMutability": "view",
      "type": "function"
    },
    {
      "inputs": [],
      "name": "totalInvestedETH",
      "outputs": [
        {
          "internalType": "uint256",
          "name": "",
          "type": "uint256"
        }
      ],
      "stateMutability": "view",
      "type": "function"
    },
    {
      "inputs": [],
      "name": "totalReinvestedETH",
      "outputs": [
        {
          "internalType": "uint256",
          "name": "",
          "type": "uint256"
        }
      ],
      "stateMutability": "view",
      "type": "function"
    },
    {
      "inputs": [],
      "name": "totalUtilityETH",
      "outputs": [
        {
          "internalType": "uint256",
          "name": "",
          "type": "uint256"
        }
      ],
      "stateMutability": "view",
      "type": "function"
    },
    {
      "inputs": [],
      "name": "totalWithdrawnETH",
      "outputs": [
        {
          "internalType": "uint256",
          "name": "",
          "type": "uint256"
        }
      ],
      "stateMutability": "view",
      "type": "function"
    },
    {
      "inputs": [],
      "name": "trustedForwarder",
      "outputs": [
        {
          "internalType": "address",
          "name": "",
          "type": "address"
        }
      ],
      "stateMutability": "view",
      "type": "function"
    },
    {
      "inputs": [
        {
          "internalType": "address",
          "name": "user",
          "type": "address"
        },
        {
          "internalType": "uint256[]",
          "name": "depositIndices",
          "type": "uint256[]"
        }
      ],
      "name": "unlockDepositsForUser",
      "outputs": [],
      "stateMutability": "nonpayable",
      "type": "function"
    },
    {
      "inputs": [
        {
          "internalType": "address",
          "name": "",
          "type": "address"
        }
      ],
      "name": "userClaimableUtilityETH",
      "outputs": [
        {
          "internalType": "uint256",
          "name": "",
          "type": "uint256"
        }
      ],
      "stateMutability": "view",
      "type": "function"
    },
    {
      "inputs": [
        {
          "internalType": "address",
          "name": "",
          "type": "address"
        },
        {
          "internalType": "uint256",
          "name": "",
          "type": "uint256"
        }
      ],
      "name": "userDeposits",
      "outputs": [
        {
          "internalType": "uint96",
          "name": "amount",
          "type": "uint96"
        },
        {
          "internalType": "uint96",
          "name": "yieldReceived",
          "type": "uint96"
        },
        {
          "internalType": "uint48",
          "name": "timestamp",
          "type": "uint48"
        },
        {
          "internalType": "uint48",
          "name": "withdrawnAt",
          "type": "uint48"
        },
        {
          "internalType": "uint8",
          "name": "flags",
          "type": "uint8"
        }
      ],
      "stateMutability": "view",
      "type": "function"
    },
    {
      "inputs": [
        {
          "internalType": "address",
          "name": "",
          "type": "address"
        }
      ],
      "name": "userTotalReinvestedETH",
      "outputs": [
        {
          "internalType": "uint256",
          "name": "",
          "type": "uint256"
        }
      ],
      "stateMutability": "view",
      "type": "function"
    },
    {
      "inputs": [],
      "name": "utilityAddress",
      "outputs": [
        {
          "internalType": "address",
          "name": "",
          "type": "address"
        }
      ],
      "stateMutability": "view",
      "type": "function"
    },
    {
      "inputs": [],
      "name": "version",
      "outputs": [
        {
          "internalType": "string",
          "name": "",
          "type": "string"
        }
      ],
      "stateMutability": "view",
      "type": "function"
    },
    {
      "inputs": [],
      "name": "whitelistEnabled",
      "outputs": [
        {
          "internalType": "bool",
          "name": "",
          "type": "bool"
        }
      ],
      "stateMutability": "view",
      "type": "function"
    },
    {
      "inputs": [
        {
          "internalType": "uint256",
          "name": "depositIndex",
          "type": "uint256"
        }
      ],
      "name": "withdraw",
      "outputs": [],
      "stateMutability": "nonpayable",
      "type": "function"
    },
    {
      "inputs": [
        {
          "internalType": "address",
          "name": "to",
          "type": "address"
        },
        {
          "internalType": "uint256",
          "name": "amount",
          "type": "uint256"
        }
      ],
      "name": "withdrawForInvestmentETH",
      "outputs": [],
      "stateMutability": "nonpayable",
      "type": "function"
    },
    {
      "inputs": [
        {
          "internalType": "uint256",
          "name": "amount",
          "type": "uint256"
        }
      ],
      "name": "withdrawUtilityETH",
      "outputs": [],
      "stateMutability": "nonpayable",
      "type": "function"
    },
    {
      "inputs": [
        {
          "internalType": "uint256",
          "name": "",
          "type": "uint256"
        }
      ],
      "name": "withdrawnUsers",
      "outputs": [
        {
          "internalType": "address",
          "name": "",
          "type": "address"
        }
      ],
      "stateMutability": "view",
      "type": "function"
    },
    {
      "stateMutability": "payable",
      "type": "receive"
    }
  ],
  "devdoc": {
    "errors": {
      "AccessControlBadConfirmation()": [
        {
          "details": "The caller of a function is not the expected one. NOTE: Don't confuse with {AccessControlUnauthorizedAccount}."
        }
      ],
      "AccessControlUnauthorizedAccount(address,bytes32)": [
        {
          "details": "The `account` is missing a role."
        }
      ],
      "ReentrancyGuardReentrantCall()": [
        {
          "details": "Unauthorized reentrant call."
        }
      ]
    },
    "events": {
      "RoleAdminChanged(bytes32,bytes32,bytes32)": {
        "details": "Emitted when `newAdminRole` is set as ``role``'s admin role, replacing `previousAdminRole` `DEFAULT_ADMIN_ROLE` is the starting admin for all roles, despite {RoleAdminChanged} not being emitted to signal this."
      },
      "RoleGranted(bytes32,address,address)": {
        "details": "Emitted when `account` is granted `role`. `sender` is the account that originated the contract call. This account bears the admin role (for the granted role). Expected in cases where the role was granted using the internal {AccessControl-_grantRole}."
      },
      "RoleRevoked(bytes32,address,address)": {
        "details": "Emitted when `account` is revoked `role`. `sender` is the account that originated the contract call:   - if using `revokeRole`, it is the admin role bearer   - if using `renounceRole`, it is the role bearer (i.e. `account`)"
      }
    },
    "kind": "dev",
    "methods": {
      "getRoleAdmin(bytes32)": {
        "details": "Returns the admin role that controls `role`. See {grantRole} and {revokeRole}. To change a role's admin, use {_setRoleAdmin}."
      },
      "grantRole(bytes32,address)": {
        "details": "Grants `role` to `account`. If `account` had not been already granted `role`, emits a {RoleGranted} event. Requirements: - the caller must have ``role``'s admin role. May emit a {RoleGranted} event."
      },
      "hasRole(bytes32,address)": {
        "details": "Returns `true` if `account` has been granted `role`."
      },
      "isTrustedForwarder(address)": {
        "details": "Indicates whether any particular address is the trusted forwarder."
      },
      "renounceRole(bytes32,address)": {
        "details": "Revokes `role` from the calling account. Roles are often managed via {grantRole} and {revokeRole}: this function's purpose is to provide a mechanism for accounts to lose their privileges if they are compromised (such as when a trusted device is misplaced). If the calling account had been revoked `role`, emits a {RoleRevoked} event. Requirements: - the caller must be `callerConfirmation`. May emit a {RoleRevoked} event."
      },
      "revokeRole(bytes32,address)": {
        "details": "Revokes `role` from `account`. If `account` had been granted `role`, emits a {RoleRevoked} event. Requirements: - the caller must have ``role``'s admin role. May emit a {RoleRevoked} event."
      },
      "supportsInterface(bytes4)": {
        "details": "Returns true if this contract implements the interface defined by `interfaceId`. See the corresponding https://eips.ethereum.org/EIPS/eip-165#how-interfaces-are-identified[ERC section] to learn more about how these ids are created. This function call must use less than 30 000 gas."
      },
      "trustedForwarder()": {
        "details": "Returns the address of the trusted forwarder."
      }
    },
    "version": 1
  },
  "evm": {
    "assembly": "    /* \"TestPool.sol\":295:17455  contract TestPool is AccessControl, ReentrancyGuard, ERC2771Context {... */\n  mstore(0x40, 0xa0)\n    /* \"TestPool.sol\":1009:1017  180 days */\n  0xed4e00\n    /* \"TestPool.sol\":979:1017  uint256 public lockupPeriod = 180 days */\n  0x02\n  sstore\n    /* \"TestPool.sol\":1050:1065  5_000_000 ether */\n  0x0422ca8b0a00a425000000\n    /* \"TestPool.sol\":1023:1065  uint256 public maxCapETH = 5_000_000 ether */\n  0x03\n  sstore\n    /* \"TestPool.sol\":4326:5055  constructor(... */\n  callvalue\n  dup1\n  iszero\n  tag_1\n  jumpi\n  0x00\n  dup1\n  revert\ntag_1:\n  pop\n  mload(0x40)\n  sub(codesize, bytecodeSize)\n  dup1\n  bytecodeSize\n  dup4\n  codecopy\n  dup2\n  add\n  0x40\n  dup2\n  swap1\n  mstore\n  tag_2\n  swap2\n  tag_3\n  jump\t// in\ntag_2:\n    /* \"@openzeppelin/contracts/utils/ReentrancyGuard.sol\":1857:1858   */\n  0x01\n    /* \"@openzeppelin/contracts/utils/ReentrancyGuard.sol\":2061:2082   */\n  dup1\n  sstore\n  sub(shl(0xa0, 0x01), 0x01)\n    /* \"@openzeppelin/contracts/metatx/ERC2771Context.sol\":1500:1537   */\n  dup1\n  dup3\n  and\n  0x80\n  mstore\n    /* \"TestPool.sol\":4498:4527  _utilityAddress == address(0) */\n  dup3\n  and\n    /* \"TestPool.sol\":4494:4549  if (_utilityAddress == address(0)) revert ZeroAddress() */\n  tag_10\n  jumpi\n    /* \"TestPool.sol\":4536:4549  ZeroAddress() */\n  mload(0x40)\n  shl(0xe0, 0xd92e233d)\n  dup2\n  mstore\n  0x04\n  add\n  mload(0x40)\n  dup1\n  swap2\n  sub\n  swap1\n  revert\n    /* \"TestPool.sol\":4494:4549  if (_utilityAddress == address(0)) revert ZeroAddress() */\ntag_10:\n    /* \"TestPool.sol\":4559:4573  utilityAddress */\n  0x04\n    /* \"TestPool.sol\":4559:4591  utilityAddress = _utilityAddress */\n  dup1\n  sload\n  not(sub(shl(0xf0, 0x01), shl(0x50, 0x01)))\n  and\n  0x0100000000000000000000\n  sub(shl(0xa0, 0x01), 0x01)\n  dup6\n  and\n  mul\n  or\n  swap1\n  sstore\n  0x00\n    /* \"TestPool.sol\":4602:5049  for (uint256 i = 0; i < initialAdmins.length; i++) {... */\ntag_11:\n    /* \"TestPool.sol\":4626:4639  initialAdmins */\n  dup4\n    /* \"TestPool.sol\":4626:4646  initialAdmins.length */\n  mload\n    /* \"TestPool.sol\":4622:4623  i */\n  dup2\n    /* \"TestPool.sol\":4622:4646  i < initialAdmins.length */\n  lt\n    /* \"TestPool.sol\":4602:5049  for (uint256 i = 0; i < initialAdmins.length; i++) {... */\n  iszero\n  tag_12\n  jumpi\n    /* \"TestPool.sol\":4667:4680  address admin */\n  0x00\n    /* \"TestPool.sol\":4683:4696  initialAdmins */\n  dup5\n    /* \"TestPool.sol\":4697:4698  i */\n  dup3\n    /* \"TestPool.sol\":4683:4699  initialAdmins[i] */\n  dup2\n  mload\n  dup2\n  lt\n  tag_15\n  jumpi\n  tag_15\n  tag_16\n  jump\t// in\ntag_15:\n  0x20\n  mul\n  0x20\n  add\n  add\n  mload\n    /* \"TestPool.sol\":4667:4699  address admin = initialAdmins[i] */\n  swap1\n  pop\n    /* \"TestPool.sol\":4713:4750  _grantRole(DEFAULT_ADMIN_ROLE, admin) */\n  tag_17\n    /* \"@openzeppelin/contracts/access/AccessControl.sol\":2241:2245   */\n  0x00\n    /* \"TestPool.sol\":4724:4742  DEFAULT_ADMIN_ROLE */\n  dup1\n  shl\n    /* \"TestPool.sol\":4744:4749  admin */\n  dup3\n    /* \"TestPool.sol\":4713:4723  _grantRole */\n  shl(0x20, tag_18)\n    /* \"TestPool.sol\":4713:4750  _grantRole(DEFAULT_ADMIN_ROLE, admin) */\n  0x20\n  shr\n  jump\t// in\ntag_17:\n  pop\n    /* \"TestPool.sol\":4764:4793  _grantRole(ADMIN_ROLE, admin) */\n  tag_19\n    /* \"TestPool.sol\":1403:1426  keccak256(\"ADMIN_ROLE\") */\n  0xa49807205ce4d355092ef5a8a18f56e8913cf4a201fbe287825b095693c21775\n    /* \"TestPool.sol\":4787:4792  admin */\n  dup3\n    /* \"TestPool.sol\":4764:4774  _grantRole */\n  tag_18\n    /* \"TestPool.sol\":4764:4793  _grantRole(ADMIN_ROLE, admin) */\n  jump\t// in\ntag_19:\n  pop\n    /* \"TestPool.sol\":4807:4837  _grantRole(PAUSER_ROLE, admin) */\n  tag_20\n    /* \"TestPool.sol\":1470:1494  keccak256(\"PAUSER_ROLE\") */\n  0x65d7a28e3265b37a6474929f336521b332c1681b933f6cb9f3376673440d862a\n    /* \"TestPool.sol\":4831:4836  admin */\n  dup3\n    /* \"TestPool.sol\":4807:4817  _grantRole */\n  tag_18\n    /* \"TestPool.sol\":4807:4837  _grantRole(PAUSER_ROLE, admin) */\n  jump\t// in\ntag_20:\n  pop\n    /* \"TestPool.sol\":4851:4883  _grantRole(UNLOCKER_ROLE, admin) */\n  tag_21\n    /* \"TestPool.sol\":1540:1566  keccak256(\"UNLOCKER_ROLE\") */\n  0xc806897caf4fd5068191157e44d3988e43139a37e0b97b6793e1ed1184140604\n    /* \"TestPool.sol\":4877:4882  admin */\n  dup3\n    /* \"TestPool.sol\":4851:4861  _grantRole */\n  tag_18\n    /* \"TestPool.sol\":4851:4883  _grantRole(UNLOCKER_ROLE, admin) */\n  jump\t// in\ntag_21:\n  pop\n    /* \"TestPool.sol\":4897:4937  _grantRole(UTILITY_INJECTOR_ROLE, admin) */\n  tag_22\n    /* \"TestPool.sol\":1620:1654  keccak256(\"UTILITY_INJECTOR_ROLE\") */\n  0xf60566c40710959d8d30b6067ce3c53c757bec78eecb0e46b83c7f8194ffae37\n    /* \"TestPool.sol\":4931:4936  admin */\n  dup3\n    /* \"TestPool.sol\":4897:4907  _grantRole */\n  tag_18\n    /* \"TestPool.sol\":4897:4937  _grantRole(UTILITY_INJECTOR_ROLE, admin) */\n  jump\t// in\ntag_22:\n  pop\n    /* \"TestPool.sol\":4951:4993  _grantRole(UTILITY_WITHDRAWER_ROLE, admin) */\n  tag_23\n    /* \"TestPool.sol\":1710:1746  keccak256(\"UTILITY_WITHDRAWER_ROLE\") */\n  0x78c90eb9e475048b483a290aee04b5fe48355537c3623c7637b17d3bed71c6ed\n    /* \"TestPool.sol\":4987:4992  admin */\n  dup3\n    /* \"TestPool.sol\":4951:4961  _grantRole */\n  tag_18\n    /* \"TestPool.sol\":4951:4993  _grantRole(UTILITY_WITHDRAWER_ROLE, admin) */\n  jump\t// in\ntag_23:\n  pop\n    /* \"TestPool.sol\":5007:5038  _grantRole(MANAGER_ROLE, admin) */\n  tag_24\n    /* \"TestPool.sol\":1791:1816  keccak256(\"MANAGER_ROLE\") */\n  0x241ecf16d79d0f8dbfb92cbc07fe17840425976cf0667f022fe9877caa831b08\n    /* \"TestPool.sol\":5032:5037  admin */\n  dup3\n    /* \"TestPool.sol\":5007:5017  _grantRole */\n  tag_18\n    /* \"TestPool.sol\":5007:5038  _grantRole(MANAGER_ROLE, admin) */\n  jump\t// in\ntag_24:\n  pop\n  pop\n    /* \"TestPool.sol\":4648:4651  i++ */\n  0x01\n  add\n    /* \"TestPool.sol\":4602:5049  for (uint256 i = 0; i < initialAdmins.length; i++) {... */\n  jump(tag_11)\ntag_12:\n  pop\n    /* \"TestPool.sol\":4326:5055  constructor(... */\n  pop\n  pop\n  pop\n    /* \"TestPool.sol\":295:17455  contract TestPool is AccessControl, ReentrancyGuard, ERC2771Context {... */\n  jump(tag_62)\n    /* \"@openzeppelin/contracts/access/AccessControl.sol\":6155:6471   */\ntag_18:\n    /* \"@openzeppelin/contracts/access/AccessControl.sol\":6232:6236   */\n  0x00\n    /* \"@openzeppelin/contracts/access/AccessControl.sol\":2930:2942   */\n  dup3\n  dup2\n  mstore\n  0x20\n  dup2\n  dup2\n  mstore\n  0x40\n  dup1\n  dup4\n  keccak256\n  sub(shl(0xa0, 0x01), 0x01)\n    /* \"@openzeppelin/contracts/access/AccessControl.sol\":2930:2959   */\n  dup6\n  and\n  dup5\n  mstore\n  swap1\n  swap2\n  mstore\n  dup2\n  keccak256\n  sload\n  0xff\n  and\n    /* \"@openzeppelin/contracts/access/AccessControl.sol\":6248:6465   */\n  tag_29\n  jumpi\n    /* \"@openzeppelin/contracts/access/AccessControl.sol\":6291:6297   */\n  0x00\n    /* \"@openzeppelin/contracts/access/AccessControl.sol\":6291:6303   */\n  dup4\n  dup2\n  mstore\n  0x20\n  dup2\n  dup2\n  mstore\n  0x40\n  dup1\n  dup4\n  keccak256\n  sub(shl(0xa0, 0x01), 0x01)\n    /* \"@openzeppelin/contracts/access/AccessControl.sol\":6291:6320   */\n  dup7\n  and\n  dup5\n  mstore\n  swap1\n  swap2\n  mstore\n  swap1\n  keccak256\n    /* \"@openzeppelin/contracts/access/AccessControl.sol\":6291:6327   */\n  dup1\n  sload\n  not(0xff)\n  and\n    /* \"@openzeppelin/contracts/access/AccessControl.sol\":6323:6327   */\n  0x01\n    /* \"@openzeppelin/contracts/access/AccessControl.sol\":6291:6327   */\n  or\n  swap1\n  sstore\n    /* \"@openzeppelin/contracts/access/AccessControl.sol\":6373:6385   */\n  tag_30\n    /* \"@openzeppelin/contracts/access/AccessControl.sol\":6373:6383   */\n  tag_31\n    /* \"@openzeppelin/contracts/access/AccessControl.sol\":6373:6385   */\n  jump\t// in\ntag_30:\n  sub(shl(0xa0, 0x01), 0x01)\n    /* \"@openzeppelin/contracts/access/AccessControl.sol\":6346:6386   */\n  and\n    /* \"@openzeppelin/contracts/access/AccessControl.sol\":6364:6371   */\n  dup3\n  sub(shl(0xa0, 0x01), 0x01)\n    /* \"@openzeppelin/contracts/access/AccessControl.sol\":6346:6386   */\n  and\n    /* \"@openzeppelin/contracts/access/AccessControl.sol\":6358:6362   */\n  dup5\n    /* \"@openzeppelin/contracts/access/AccessControl.sol\":6346:6386   */\n  0x2f8788117e7eff1d82e926ec794901d17c78024a50270940304540a733656f0d\n  mload(0x40)\n  mload(0x40)\n  dup1\n  swap2\n  sub\n  swap1\n  log4\n  pop\n    /* \"@openzeppelin/contracts/access/AccessControl.sol\":6407:6411   */\n  0x01\n    /* \"@openzeppelin/contracts/access/AccessControl.sol\":6400:6411   */\n  jump(tag_32)\n    /* \"@openzeppelin/contracts/access/AccessControl.sol\":6248:6465   */\ntag_29:\n  pop\n    /* \"@openzeppelin/contracts/access/AccessControl.sol\":6449:6454   */\n  0x00\n    /* \"@openzeppelin/contracts/access/AccessControl.sol\":6248:6465   */\ntag_32:\n    /* \"@openzeppelin/contracts/access/AccessControl.sol\":6155:6471   */\n  swap3\n  swap2\n  pop\n  pop\n  jump\t// out\n    /* \"TestPool.sol\":5101:5247  function _msgSender() internal view override(Context, ERC2771Context) returns (address sender) {... */\ntag_31:\n    /* \"TestPool.sol\":5180:5194  address sender */\n  0x00\n    /* \"TestPool.sol\":5213:5240  ERC2771Context._msgSender() */\n  tag_35\n    /* \"TestPool.sol\":5213:5238  ERC2771Context._msgSender */\n  tag_36\n    /* \"TestPool.sol\":5213:5240  ERC2771Context._msgSender() */\n  jump\t// in\ntag_35:\n    /* \"TestPool.sol\":5206:5240  return ERC2771Context._msgSender() */\n  swap1\n  pop\n    /* \"TestPool.sol\":5101:5247  function _msgSender() internal view override(Context, ERC2771Context) returns (address sender) {... */\n  swap1\n  jump\t// out\n    /* \"@openzeppelin/contracts/metatx/ERC2771Context.sol\":2206:2677   */\ntag_36:\n    /* \"@openzeppelin/contracts/metatx/ERC2771Context.sol\":2268:2275   */\n  0x00\n    /* \"@openzeppelin/contracts/metatx/ERC2771Context.sol\":2312:2320   */\n  calldatasize\n    /* \"@openzeppelin/contracts/metatx/ERC2771Context.sol\":3567:3569   */\n  0x14\n    /* \"@openzeppelin/contracts/metatx/ERC2771Context.sol\":2403:2440   */\n  dup1\n  dup3\n  lt\n  dup1\n  iszero\n  swap1\n    /* \"@openzeppelin/contracts/metatx/ERC2771Context.sol\":2403:2474   */\n  tag_41\n  jumpi\n  pop\n    /* \"@openzeppelin/contracts/metatx/ERC2771Context.sol\":2444:2474   */\n  tag_41\n    /* \"@openzeppelin/contracts/metatx/ERC2771Context.sol\":2463:2473   */\n  caller\n    /* \"@openzeppelin/contracts/metatx/ERC2771Context.sol\":2444:2462   */\n  tag_42\n    /* \"@openzeppelin/contracts/metatx/ERC2771Context.sol\":2444:2474   */\n  jump\t// in\ntag_41:\n    /* \"@openzeppelin/contracts/metatx/ERC2771Context.sol\":2399:2671   */\n  iszero\n  tag_43\n  jumpi\n    /* \"@openzeppelin/contracts/metatx/ERC2771Context.sol\":2541:2588   */\n  tag_44\n    /* \"@openzeppelin/contracts/metatx/ERC2771Context.sol\":2541:2549   */\n  calldatasize\n    /* \"@openzeppelin/contracts/metatx/ERC2771Context.sol\":2550:2586   */\n  dup3\n  dup5\n  sub\n    /* \"@openzeppelin/contracts/metatx/ERC2771Context.sol\":2541:2549   */\n  dup2\n  0x00\n    /* \"@openzeppelin/contracts/metatx/ERC2771Context.sol\":2541:2588   */\n  tag_45\n  jump\t// in\ntag_44:\n    /* \"@openzeppelin/contracts/metatx/ERC2771Context.sol\":2533:2589   */\n  tag_46\n  swap2\n  tag_47\n  jump\t// in\ntag_46:\n    /* \"@openzeppelin/contracts/metatx/ERC2771Context.sol\":2525:2590   */\n  0x60\n  shr\n    /* \"@openzeppelin/contracts/metatx/ERC2771Context.sol\":2518:2590   */\n  swap3\n  pop\n  pop\n  pop\n    /* \"@openzeppelin/contracts/metatx/ERC2771Context.sol\":2206:2677   */\n  swap1\n  jump\t// out\n    /* \"@openzeppelin/contracts/metatx/ERC2771Context.sol\":2399:2671   */\ntag_43:\n    /* \"@openzeppelin/contracts/utils/Context.sol\":735:745   */\n  caller\n    /* \"@openzeppelin/contracts/metatx/ERC2771Context.sol\":2635:2660   */\n  swap3\n  pop\n  pop\n  pop\n    /* \"@openzeppelin/contracts/metatx/ERC2771Context.sol\":2206:2677   */\n  swap1\n  jump\t// out\n    /* \"@openzeppelin/contracts/metatx/ERC2771Context.sol\":1832:1969   */\ntag_42:\n    /* \"@openzeppelin/contracts/metatx/ERC2771Context.sol\":1908:1912   */\n  0x00\n    /* \"@openzeppelin/contracts/metatx/ERC2771Context.sol\":1944:1962   */\n  tag_55\n    /* \"@openzeppelin/contracts/metatx/ERC2771Context.sol\":1707:1724   */\n  mload(0x80)\n  swap1\n    /* \"@openzeppelin/contracts/metatx/ERC2771Context.sol\":1624:1731   */\n  jump\n    /* \"@openzeppelin/contracts/metatx/ERC2771Context.sol\":1944:1962   */\ntag_55:\n  sub(shl(0xa0, 0x01), 0x01)\n    /* \"@openzeppelin/contracts/metatx/ERC2771Context.sol\":1931:1962   */\n  and\n    /* \"@openzeppelin/contracts/metatx/ERC2771Context.sol\":1931:1940   */\n  dup3\n  sub(shl(0xa0, 0x01), 0x01)\n    /* \"@openzeppelin/contracts/metatx/ERC2771Context.sol\":1931:1962   */\n  and\n  eq\n    /* \"@openzeppelin/contracts/metatx/ERC2771Context.sol\":1924:1962   */\n  swap1\n  pop\n    /* \"@openzeppelin/contracts/metatx/ERC2771Context.sol\":1832:1969   */\n  swap2\n  swap1\n  pop\n  jump\t// out\n    /* \"#utility.yul\":14:141   */\ntag_60:\n    /* \"#utility.yul\":75:85   */\n  0x4e487b71\n    /* \"#utility.yul\":70:73   */\n  0xe0\n    /* \"#utility.yul\":66:86   */\n  shl\n    /* \"#utility.yul\":63:64   */\n  0x00\n    /* \"#utility.yul\":56:87   */\n  mstore\n    /* \"#utility.yul\":106:110   */\n  0x41\n    /* \"#utility.yul\":103:104   */\n  0x04\n    /* \"#utility.yul\":96:111   */\n  mstore\n    /* \"#utility.yul\":130:134   */\n  0x24\n    /* \"#utility.yul\":127:128   */\n  0x00\n    /* \"#utility.yul\":120:135   */\n  revert\n    /* \"#utility.yul\":146:323   */\ntag_61:\n    /* \"#utility.yul\":225:238   */\n  dup1\n  mload\n  sub(shl(0xa0, 0x01), 0x01)\n    /* \"#utility.yul\":267:298   */\n  dup2\n  and\n    /* \"#utility.yul\":257:299   */\n  dup2\n  eq\n    /* \"#utility.yul\":247:317   */\n  tag_65\n  jumpi\n    /* \"#utility.yul\":313:314   */\n  0x00\n    /* \"#utility.yul\":310:311   */\n  dup1\n    /* \"#utility.yul\":303:315   */\n  revert\n    /* \"#utility.yul\":247:317   */\ntag_65:\n    /* \"#utility.yul\":146:323   */\n  swap2\n  swap1\n  pop\n  jump\t// out\n    /* \"#utility.yul\":328:1629   */\ntag_3:\n    /* \"#utility.yul\":441:447   */\n  0x00\n    /* \"#utility.yul\":449:455   */\n  dup1\n    /* \"#utility.yul\":457:463   */\n  0x00\n    /* \"#utility.yul\":510:512   */\n  0x60\n    /* \"#utility.yul\":498:507   */\n  dup5\n    /* \"#utility.yul\":489:496   */\n  dup7\n    /* \"#utility.yul\":485:508   */\n  sub\n    /* \"#utility.yul\":481:513   */\n  slt\n    /* \"#utility.yul\":478:530   */\n  iszero\n  tag_67\n  jumpi\n    /* \"#utility.yul\":526:527   */\n  0x00\n    /* \"#utility.yul\":523:524   */\n  dup1\n    /* \"#utility.yul\":516:528   */\n  revert\n    /* \"#utility.yul\":478:530   */\ntag_67:\n    /* \"#utility.yul\":553:569   */\n  dup4\n  mload\n  sub(shl(0x40, 0x01), 0x01)\n    /* \"#utility.yul\":618:632   */\n  dup1\n  dup3\n  gt\n    /* \"#utility.yul\":615:649   */\n  iszero\n  tag_68\n  jumpi\n    /* \"#utility.yul\":645:646   */\n  0x00\n    /* \"#utility.yul\":642:643   */\n  dup1\n    /* \"#utility.yul\":635:647   */\n  revert\n    /* \"#utility.yul\":615:649   */\ntag_68:\n    /* \"#utility.yul\":683:689   */\n  dup2\n    /* \"#utility.yul\":672:681   */\n  dup7\n    /* \"#utility.yul\":668:690   */\n  add\n    /* \"#utility.yul\":658:690   */\n  swap2\n  pop\n    /* \"#utility.yul\":728:735   */\n  dup7\n    /* \"#utility.yul\":721:725   */\n  0x1f\n    /* \"#utility.yul\":717:719   */\n  dup4\n    /* \"#utility.yul\":713:726   */\n  add\n    /* \"#utility.yul\":709:736   */\n  slt\n    /* \"#utility.yul\":699:754   */\n  tag_69\n  jumpi\n    /* \"#utility.yul\":750:751   */\n  0x00\n    /* \"#utility.yul\":747:748   */\n  dup1\n    /* \"#utility.yul\":740:752   */\n  revert\n    /* \"#utility.yul\":699:754   */\ntag_69:\n    /* \"#utility.yul\":779:781   */\n  dup2\n    /* \"#utility.yul\":773:782   */\n  mload\n    /* \"#utility.yul\":801:805   */\n  0x20\n    /* \"#utility.yul\":824:826   */\n  dup3\n    /* \"#utility.yul\":820:822   */\n  dup3\n    /* \"#utility.yul\":817:827   */\n  gt\n    /* \"#utility.yul\":814:850   */\n  iszero\n  tag_71\n  jumpi\n    /* \"#utility.yul\":830:848   */\n  tag_71\n  tag_60\n  jump\t// in\ntag_71:\n    /* \"#utility.yul\":876:878   */\n  dup2\n    /* \"#utility.yul\":873:874   */\n  0x05\n    /* \"#utility.yul\":869:879   */\n  shl\n    /* \"#utility.yul\":908:910   */\n  0x40\n    /* \"#utility.yul\":902:911   */\n  mload\n    /* \"#utility.yul\":971:973   */\n  0x1f\n    /* \"#utility.yul\":967:974   */\n  not\n    /* \"#utility.yul\":962:964   */\n  0x3f\n    /* \"#utility.yul\":958:960   */\n  dup4\n    /* \"#utility.yul\":954:965   */\n  add\n    /* \"#utility.yul\":950:975   */\n  and\n    /* \"#utility.yul\":942:948   */\n  dup2\n    /* \"#utility.yul\":938:976   */\n  add\n    /* \"#utility.yul\":1026:1032   */\n  dup2\n    /* \"#utility.yul\":1014:1024   */\n  dup2\n    /* \"#utility.yul\":1011:1033   */\n  lt\n    /* \"#utility.yul\":1006:1008   */\n  dup7\n    /* \"#utility.yul\":994:1004   */\n  dup3\n    /* \"#utility.yul\":991:1009   */\n  gt\n    /* \"#utility.yul\":988:1034   */\n  or\n    /* \"#utility.yul\":985:1057   */\n  iszero\n  tag_73\n  jumpi\n    /* \"#utility.yul\":1037:1055   */\n  tag_73\n  tag_60\n  jump\t// in\ntag_73:\n    /* \"#utility.yul\":1073:1075   */\n  0x40\n    /* \"#utility.yul\":1066:1088   */\n  mstore\n    /* \"#utility.yul\":1123:1141   */\n  swap3\n  dup4\n  mstore\n    /* \"#utility.yul\":1157:1172   */\n  dup2\n  dup4\n  add\n  swap4\n  pop\n    /* \"#utility.yul\":1199:1210   */\n  dup5\n  dup2\n  add\n    /* \"#utility.yul\":1195:1215   */\n  dup3\n  add\n  swap3\n    /* \"#utility.yul\":1227:1246   */\n  dup11\n  dup5\n  gt\n    /* \"#utility.yul\":1224:1263   */\n  iszero\n  tag_74\n  jumpi\n    /* \"#utility.yul\":1259:1260   */\n  0x00\n    /* \"#utility.yul\":1256:1257   */\n  dup1\n    /* \"#utility.yul\":1249:1261   */\n  revert\n    /* \"#utility.yul\":1224:1263   */\ntag_74:\n    /* \"#utility.yul\":1283:1294   */\n  swap5\n  dup3\n  add\n  swap5\n    /* \"#utility.yul\":1303:1462   */\ntag_75:\n    /* \"#utility.yul\":1319:1325   */\n  dup4\n    /* \"#utility.yul\":1314:1317   */\n  dup7\n    /* \"#utility.yul\":1311:1326   */\n  lt\n    /* \"#utility.yul\":1303:1462   */\n  iszero\n  tag_77\n  jumpi\n    /* \"#utility.yul\":1385:1419   */\n  tag_78\n    /* \"#utility.yul\":1415:1418   */\n  dup7\n    /* \"#utility.yul\":1385:1419   */\n  tag_61\n  jump\t// in\ntag_78:\n    /* \"#utility.yul\":1373:1420   */\n  dup6\n  mstore\n    /* \"#utility.yul\":1336:1348   */\n  swap5\n  dup3\n  add\n  swap5\n    /* \"#utility.yul\":1440:1452   */\n  swap4\n  dup3\n  add\n  swap4\n    /* \"#utility.yul\":1303:1462   */\n  jump(tag_75)\ntag_77:\n    /* \"#utility.yul\":1481:1487   */\n  swap8\n  pop\n    /* \"#utility.yul\":1506:1555   */\n  tag_79\n  swap1\n  pop\n    /* \"#utility.yul\":1536:1554   */\n  dup9\n  dup3\n  add\n    /* \"#utility.yul\":1506:1555   */\n  tag_61\n  jump\t// in\ntag_79:\n    /* \"#utility.yul\":1496:1555   */\n  swap6\n  pop\n  pop\n  pop\n  pop\n  pop\n    /* \"#utility.yul\":1574:1623   */\n  tag_80\n    /* \"#utility.yul\":1619:1621   */\n  0x40\n    /* \"#utility.yul\":1608:1617   */\n  dup6\n    /* \"#utility.yul\":1604:1622   */\n  add\n    /* \"#utility.yul\":1574:1623   */\n  tag_61\n  jump\t// in\ntag_80:\n    /* \"#utility.yul\":1564:1623   */\n  swap1\n  pop\n    /* \"#utility.yul\":328:1629   */\n  swap3\n  pop\n  swap3\n  pop\n  swap3\n  jump\t// out\n    /* \"#utility.yul\":1634:1761   */\ntag_16:\n    /* \"#utility.yul\":1695:1705   */\n  0x4e487b71\n    /* \"#utility.yul\":1690:1693   */\n  0xe0\n    /* \"#utility.yul\":1686:1706   */\n  shl\n    /* \"#utility.yul\":1683:1684   */\n  0x00\n    /* \"#utility.yul\":1676:1707   */\n  mstore\n    /* \"#utility.yul\":1726:1730   */\n  0x32\n    /* \"#utility.yul\":1723:1724   */\n  0x04\n    /* \"#utility.yul\":1716:1731   */\n  mstore\n    /* \"#utility.yul\":1750:1754   */\n  0x24\n    /* \"#utility.yul\":1747:1748   */\n  0x00\n    /* \"#utility.yul\":1740:1755   */\n  revert\n    /* \"#utility.yul\":1766:2097   */\ntag_45:\n    /* \"#utility.yul\":1871:1880   */\n  0x00\n    /* \"#utility.yul\":1882:1891   */\n  dup1\n    /* \"#utility.yul\":1924:1932   */\n  dup6\n    /* \"#utility.yul\":1912:1922   */\n  dup6\n    /* \"#utility.yul\":1909:1933   */\n  gt\n    /* \"#utility.yul\":1906:1950   */\n  iszero\n  tag_83\n  jumpi\n    /* \"#utility.yul\":1946:1947   */\n  0x00\n    /* \"#utility.yul\":1943:1944   */\n  dup1\n    /* \"#utility.yul\":1936:1948   */\n  revert\n    /* \"#utility.yul\":1906:1950   */\ntag_83:\n    /* \"#utility.yul\":1975:1981   */\n  dup4\n    /* \"#utility.yul\":1965:1973   */\n  dup7\n    /* \"#utility.yul\":1962:1982   */\n  gt\n    /* \"#utility.yul\":1959:1999   */\n  iszero\n  tag_84\n  jumpi\n    /* \"#utility.yul\":1995:1996   */\n  0x00\n    /* \"#utility.yul\":1992:1993   */\n  dup1\n    /* \"#utility.yul\":1985:1997   */\n  revert\n    /* \"#utility.yul\":1959:1999   */\ntag_84:\n  pop\n  pop\n    /* \"#utility.yul\":2021:2044   */\n  dup3\n  add\n  swap4\n    /* \"#utility.yul\":2066:2091   */\n  swap2\n  swap1\n  swap3\n  sub\n  swap2\n  pop\n    /* \"#utility.yul\":1766:2097   */\n  jump\t// out\n    /* \"#utility.yul\":2102:2431   */\ntag_47:\n  not(sub(shl(0x60, 0x01), 0x01))\n    /* \"#utility.yul\":2223:2242   */\n  dup2\n  calldataload\n    /* \"#utility.yul\":2302:2313   */\n  dup2\n  dup2\n  and\n  swap2\n    /* \"#utility.yul\":2333:2335   */\n  0x14\n    /* \"#utility.yul\":2325:2336   */\n  dup6\n  lt\n    /* \"#utility.yul\":2322:2425   */\n  iszero\n  tag_86\n  jumpi\n    /* \"#utility.yul\":2412:2414   */\n  dup1\n    /* \"#utility.yul\":2406:2408   */\n  dup2\n    /* \"#utility.yul\":2399:2402   */\n  dup7\n    /* \"#utility.yul\":2395:2397   */\n  0x14\n    /* \"#utility.yul\":2391:2403   */\n  sub\n    /* \"#utility.yul\":2388:2389   */\n  0x03\n    /* \"#utility.yul\":2384:2404   */\n  shl\n    /* \"#utility.yul\":2380:2409   */\n  shl\n    /* \"#utility.yul\":2376:2378   */\n  dup4\n    /* \"#utility.yul\":2372:2410   */\n  and\n    /* \"#utility.yul\":2368:2415   */\n  and\n    /* \"#utility.yul\":2359:2415   */\n  swap3\n  pop\n    /* \"#utility.yul\":2322:2425   */\ntag_86:\n  pop\n  pop\n    /* \"#utility.yul\":2102:2431   */\n  swap3\n  swap2\n  pop\n  pop\n  jump\t// out\ntag_62:\n    /* \"TestPool.sol\":295:17455  contract TestPool is AccessControl, ReentrancyGuard, ERC2771Context {... */\n  mload(0x80)\n  codecopy(0x00, dataOffset(sub_0), dataSize(sub_0))\n  0x00\n  assignImmutable(\"0xe672b8f1e043b1abd7182a7eb25ee85f549ed715877451e167234999e566d177\")\n  return(0x00, dataSize(sub_0))\nstop\n\nsub_0: assembly {\n        /* \"TestPool.sol\":295:17455  contract TestPool is AccessControl, ReentrancyGuard, ERC2771Context {... */\n      mstore(0x40, 0x80)\n      jumpi(tag_1, lt(calldatasize, 0x04))\n      shr(0xe0, calldataload(0x00))\n      dup1\n      0x7da0a877\n      gt\n      tag_64\n      jumpi\n      dup1\n      0xb2b77ae2\n      gt\n      tag_65\n      jumpi\n      dup1\n      0xe399067f\n      gt\n      tag_66\n      jumpi\n      dup1\n      0xf29b2239\n      gt\n      tag_67\n      jumpi\n      dup1\n      0xf29b2239\n      eq\n      tag_60\n      jumpi\n      dup1\n      0xf5f11350\n      eq\n      tag_61\n      jumpi\n      dup1\n      0xf6326fb3\n      eq\n      tag_62\n      jumpi\n      dup1\n      0xfd46a171\n      eq\n      tag_63\n      jumpi\n      0x00\n      dup1\n      revert\n    tag_67:\n      dup1\n      0xe399067f\n      eq\n      tag_56\n      jumpi\n      dup1\n      0xe63ab1e9\n      eq\n      tag_57\n      jumpi\n      dup1\n      0xec87621c\n      eq\n      tag_58\n      jumpi\n      dup1\n      0xee947a7c\n      eq\n      tag_59\n      jumpi\n      0x00\n      dup1\n      revert\n    tag_66:\n      dup1\n      0xc771c390\n      gt\n      tag_68\n      jumpi\n      dup1\n      0xc771c390\n      eq\n      tag_52\n      jumpi\n      dup1\n      0xd547741f\n      eq\n      tag_53\n      jumpi\n      dup1\n      0xda8d5add\n      eq\n      tag_54\n      jumpi\n      dup1\n      0xe043b2b2\n      eq\n      tag_55\n      jumpi\n      0x00\n      dup1\n      revert\n    tag_68:\n      dup1\n      0xb2b77ae2\n      eq\n      tag_48\n      jumpi\n      dup1\n      0xb65ba94b\n      eq\n      tag_49\n      jumpi\n      dup1\n      0xb758aeaa\n      eq\n      tag_50\n      jumpi\n      dup1\n      0xc6d95b74\n      eq\n      tag_51\n      jumpi\n      0x00\n      dup1\n      revert\n    tag_65:\n      dup1\n      0x91d14854\n      gt\n      tag_69\n      jumpi\n      dup1\n      0x9e657e33\n      gt\n      tag_70\n      jumpi\n      dup1\n      0x9e657e33\n      eq\n      tag_44\n      jumpi\n      dup1\n      0xa217fddf\n      eq\n      tag_45\n      jumpi\n      dup1\n      0xa59aa5a6\n      eq\n      tag_46\n      jumpi\n      dup1\n      0xb2118a8d\n      eq\n      tag_47\n      jumpi\n      0x00\n      dup1\n      revert\n    tag_70:\n      dup1\n      0x91d14854\n      eq\n      tag_40\n      jumpi\n      dup1\n      0x93055c43\n      eq\n      tag_41\n      jumpi\n      dup1\n      0x97d9e5b4\n      eq\n      tag_42\n      jumpi\n      dup1\n      0x9ddc3912\n      eq\n      tag_43\n      jumpi\n      0x00\n      dup1\n      revert\n    tag_69:\n      dup1\n      0x886d589d\n      gt\n      tag_71\n      jumpi\n      dup1\n      0x886d589d\n      eq\n      tag_36\n      jumpi\n      dup1\n      0x899aa991\n      eq\n      tag_37\n      jumpi\n      dup1\n      0x89bad0a6\n      eq\n      tag_38\n      jumpi\n      dup1\n      0x8b713b2e\n      eq\n      tag_39\n      jumpi\n      0x00\n      dup1\n      revert\n    tag_71:\n      dup1\n      0x7da0a877\n      eq\n      tag_33\n      jumpi\n      dup1\n      0x867d099a\n      eq\n      tag_34\n      jumpi\n      dup1\n      0x885f5029\n      eq\n      tag_35\n      jumpi\n      0x00\n      dup1\n      revert\n    tag_64:\n      dup1\n      0x4e43603a\n      gt\n      tag_72\n      jumpi\n      dup1\n      0x6068d6cb\n      gt\n      tag_73\n      jumpi\n      dup1\n      0x6ec23995\n      gt\n      tag_74\n      jumpi\n      dup1\n      0x6ec23995\n      eq\n      tag_29\n      jumpi\n      dup1\n      0x72e55399\n      eq\n      tag_30\n      jumpi\n      dup1\n      0x75b238fc\n      eq\n      tag_31\n      jumpi\n      dup1\n      0x763265de\n      eq\n      tag_32\n      jumpi\n      0x00\n      dup1\n      revert\n    tag_74:\n      dup1\n      0x6068d6cb\n      eq\n      tag_25\n      jumpi\n      dup1\n      0x64021b13\n      eq\n      tag_26\n      jumpi\n      dup1\n      0x6426be48\n      eq\n      tag_27\n      jumpi\n      dup1\n      0x65d5ec96\n      eq\n      tag_28\n      jumpi\n      0x00\n      dup1\n      revert\n    tag_73:\n      dup1\n      0x54fd4d50\n      gt\n      tag_75\n      jumpi\n      dup1\n      0x54fd4d50\n      eq\n      tag_21\n      jumpi\n      dup1\n      0x572b6c05\n      eq\n      tag_22\n      jumpi\n      dup1\n      0x588583a0\n      eq\n      tag_23\n      jumpi\n      dup1\n      0x5e2c19db\n      eq\n      tag_24\n      jumpi\n      0x00\n      dup1\n      revert\n    tag_75:\n      dup1\n      0x4e43603a\n      eq\n      tag_18\n      jumpi\n      dup1\n      0x51fb012d\n      eq\n      tag_19\n      jumpi\n      dup1\n      0x53d6fd59\n      eq\n      tag_20\n      jumpi\n      0x00\n      dup1\n      revert\n    tag_72:\n      dup1\n      0x275991d2\n      gt\n      tag_76\n      jumpi\n      dup1\n      0x3408567c\n      gt\n      tag_77\n      jumpi\n      dup1\n      0x3408567c\n      eq\n      tag_14\n      jumpi\n      dup1\n      0x36568abe\n      eq\n      tag_15\n      jumpi\n      dup1\n      0x3af32abf\n      eq\n      tag_16\n      jumpi\n      dup1\n      0x47af19aa\n      eq\n      tag_17\n      jumpi\n      0x00\n      dup1\n      revert\n    tag_77:\n      dup1\n      0x275991d2\n      eq\n      tag_10\n      jumpi\n      dup1\n      0x2a5bf6d2\n      eq\n      tag_11\n      jumpi\n      dup1\n      0x2e1a7d4d\n      eq\n      tag_12\n      jumpi\n      dup1\n      0x2f2ff15d\n      eq\n      tag_13\n      jumpi\n      0x00\n      dup1\n      revert\n    tag_76:\n      dup1\n      0x0c016ad5\n      gt\n      tag_78\n      jumpi\n      dup1\n      0x0c016ad5\n      eq\n      tag_6\n      jumpi\n      dup1\n      0x17b51642\n      eq\n      tag_7\n      jumpi\n      dup1\n      0x246d47b7\n      eq\n      tag_8\n      jumpi\n      dup1\n      0x248a9ca3\n      eq\n      tag_9\n      jumpi\n      0x00\n      dup1\n      revert\n    tag_78:\n      dup1\n      0x01ffc9a7\n      eq\n      tag_3\n      jumpi\n      dup1\n      0x052d9e7e\n      eq\n      tag_4\n      jumpi\n      dup1\n      0x08f43333\n      eq\n      tag_5\n      jumpi\n      0x00\n      dup1\n      revert\n    tag_1:\n      jumpi(tag_2, calldatasize)\n      stop\n    tag_2:\n      0x00\n      dup1\n      revert\n        /* \"@openzeppelin/contracts/access/AccessControl.sol\":2541:2743   */\n    tag_3:\n      callvalue\n      dup1\n      iszero\n      tag_81\n      jumpi\n      0x00\n      dup1\n      revert\n    tag_81:\n      pop\n      tag_82\n      tag_83\n      calldatasize\n      0x04\n      tag_84\n      jump\t// in\n    tag_83:\n      tag_85\n      jump\t// in\n    tag_82:\n      mload(0x40)\n        /* \"#utility.yul\":470:484   */\n      swap1\n      iszero\n        /* \"#utility.yul\":463:485   */\n      iszero\n        /* \"#utility.yul\":445:486   */\n      dup2\n      mstore\n        /* \"#utility.yul\":433:435   */\n      0x20\n        /* \"#utility.yul\":418:436   */\n      add\n        /* \"@openzeppelin/contracts/access/AccessControl.sol\":2541:2743   */\n    tag_86:\n      mload(0x40)\n      dup1\n      swap2\n      sub\n      swap1\n      return\n        /* \"TestPool.sol\":6132:6248  function setWhitelistEnabled(bool enabled) external onlyRole(ADMIN_ROLE) {... */\n    tag_4:\n      callvalue\n      dup1\n      iszero\n      tag_88\n      jumpi\n      0x00\n      dup1\n      revert\n    tag_88:\n      pop\n      tag_89\n      tag_90\n      calldatasize\n      0x04\n      tag_91\n      jump\t// in\n    tag_90:\n      tag_92\n      jump\t// in\n    tag_89:\n      stop\n        /* \"TestPool.sol\":2132:2185  mapping(address => DepositInfo[]) public userDeposits */\n    tag_5:\n      callvalue\n      dup1\n      iszero\n      tag_93\n      jumpi\n      0x00\n      dup1\n      revert\n    tag_93:\n      pop\n      tag_94\n      tag_95\n      calldatasize\n      0x04\n      tag_96\n      jump\t// in\n    tag_95:\n      tag_97\n      jump\t// in\n    tag_94:\n      0x40\n      dup1\n      mload\n      sub(shl(0x60, 0x01), 0x01)\n        /* \"#utility.yul\":1636:1651   */\n      swap7\n      dup8\n      and\n        /* \"#utility.yul\":1618:1652   */\n      dup2\n      mstore\n        /* \"#utility.yul\":1688:1703   */\n      swap6\n      swap1\n      swap5\n      and\n        /* \"#utility.yul\":1683:1685   */\n      0x20\n        /* \"#utility.yul\":1668:1686   */\n      dup7\n      add\n        /* \"#utility.yul\":1661:1704   */\n      mstore\n        /* \"#utility.yul\":1723:1737   */\n      0xffffffffffff\n        /* \"#utility.yul\":1773:1788   */\n      swap3\n      dup4\n      and\n        /* \"#utility.yul\":1753:1771   */\n      swap4\n      dup6\n      add\n        /* \"#utility.yul\":1746:1789   */\n      swap4\n      swap1\n      swap4\n      mstore\n        /* \"#utility.yul\":1825:1840   */\n      and\n        /* \"#utility.yul\":1820:1822   */\n      0x60\n        /* \"#utility.yul\":1805:1823   */\n      dup4\n      add\n        /* \"#utility.yul\":1798:1841   */\n      mstore\n        /* \"#utility.yul\":1890:1894   */\n      0xff\n        /* \"#utility.yul\":1878:1895   */\n      and\n        /* \"#utility.yul\":1872:1875   */\n      0x80\n        /* \"#utility.yul\":1857:1876   */\n      dup3\n      add\n        /* \"#utility.yul\":1850:1896   */\n      mstore\n        /* \"#utility.yul\":1560:1563   */\n      0xa0\n        /* \"#utility.yul\":1545:1564   */\n      add\n        /* \"TestPool.sol\":2132:2185  mapping(address => DepositInfo[]) public userDeposits */\n      tag_86\n        /* \"#utility.yul\":1326:1902   */\n      jump\n        /* \"TestPool.sol\":1572:1654  bytes32 public constant UTILITY_INJECTOR_ROLE = keccak256(\"UTILITY_INJECTOR_ROLE\") */\n    tag_6:\n      callvalue\n      dup1\n      iszero\n      tag_100\n      jumpi\n      0x00\n      dup1\n      revert\n    tag_100:\n      pop\n      tag_101\n        /* \"TestPool.sol\":1620:1654  keccak256(\"UTILITY_INJECTOR_ROLE\") */\n      0xf60566c40710959d8d30b6067ce3c53c757bec78eecb0e46b83c7f8194ffae37\n        /* \"TestPool.sol\":1572:1654  bytes32 public constant UTILITY_INJECTOR_ROLE = keccak256(\"UTILITY_INJECTOR_ROLE\") */\n      dup2\n      jump\n    tag_101:\n      mload(0x40)\n        /* \"#utility.yul\":2053:2078   */\n      swap1\n      dup2\n      mstore\n        /* \"#utility.yul\":2041:2043   */\n      0x20\n        /* \"#utility.yul\":2026:2044   */\n      add\n        /* \"TestPool.sol\":1572:1654  bytes32 public constant UTILITY_INJECTOR_ROLE = keccak256(\"UTILITY_INJECTOR_ROLE\") */\n      tag_86\n        /* \"#utility.yul\":1907:2084   */\n      jump\n        /* \"TestPool.sol\":7559:7908  function returnInvestmentETH() external payable onlyRole(MANAGER_ROLE) nonReentrant {... */\n    tag_7:\n      tag_89\n      tag_106\n      jump\t// in\n        /* \"TestPool.sol\":1206:1242  bool public globalLiquidationEnabled */\n    tag_8:\n      callvalue\n      dup1\n      iszero\n      tag_107\n      jumpi\n      0x00\n      dup1\n      revert\n    tag_107:\n      pop\n      sload(0x04)\n      tag_82\n      swap1\n      0x01000000\n      swap1\n      div\n      0xff\n      and\n      dup2\n      jump\n        /* \"@openzeppelin/contracts/access/AccessControl.sol\":3786:3906   */\n    tag_9:\n      callvalue\n      dup1\n      iszero\n      tag_111\n      jumpi\n      0x00\n      dup1\n      revert\n    tag_111:\n      pop\n      tag_101\n      tag_113\n      calldatasize\n      0x04\n      tag_114\n      jump\t// in\n    tag_113:\n        /* \"@openzeppelin/contracts/access/AccessControl.sol\":3851:3858   */\n      0x00\n        /* \"@openzeppelin/contracts/access/AccessControl.sol\":3877:3889   */\n      swap1\n      dup2\n      mstore\n      0x20\n      dup2\n      swap1\n      mstore\n      0x40\n      swap1\n      keccak256\n        /* \"@openzeppelin/contracts/access/AccessControl.sol\":3877:3899   */\n      0x01\n      add\n      sload\n      swap1\n        /* \"@openzeppelin/contracts/access/AccessControl.sol\":3786:3906   */\n      jump\n        /* \"TestPool.sol\":14821:15236  function reinvestUtilityETH() external nonReentrant {... */\n    tag_10:\n      callvalue\n      dup1\n      iszero\n      tag_117\n      jumpi\n      0x00\n      dup1\n      revert\n    tag_117:\n      pop\n      tag_89\n      tag_119\n      jump\t// in\n        /* \"TestPool.sol\":17015:17141  function getUserDeposits(address user) external view returns (DepositInfo[] memory) {... */\n    tag_11:\n      callvalue\n      dup1\n      iszero\n      tag_120\n      jumpi\n      0x00\n      dup1\n      revert\n    tag_120:\n      pop\n      tag_121\n      tag_122\n      calldatasize\n      0x04\n      tag_123\n      jump\t// in\n    tag_122:\n      tag_124\n      jump\t// in\n    tag_121:\n      mload(0x40)\n      tag_86\n      swap2\n      swap1\n      tag_126\n      jump\t// in\n        /* \"TestPool.sol\":9356:10428  function withdraw(uint256 depositIndex) external nonReentrant whenWithdrawalsNotPaused {... */\n    tag_12:\n      callvalue\n      dup1\n      iszero\n      tag_127\n      jumpi\n      0x00\n      dup1\n      revert\n    tag_127:\n      pop\n      tag_89\n      tag_129\n      calldatasize\n      0x04\n      tag_114\n      jump\t// in\n    tag_129:\n      tag_131\n      jump\t// in\n        /* \"@openzeppelin/contracts/access/AccessControl.sol\":4202:4338   */\n    tag_13:\n      callvalue\n      dup1\n      iszero\n      tag_132\n      jumpi\n      0x00\n      dup1\n      revert\n    tag_132:\n      pop\n      tag_89\n      tag_134\n      calldatasize\n      0x04\n      tag_135\n      jump\t// in\n    tag_134:\n      tag_136\n      jump\t// in\n        /* \"TestPool.sol\":2292:2350  mapping(address => uint256) public userClaimableUtilityETH */\n    tag_14:\n      callvalue\n      dup1\n      iszero\n      tag_137\n      jumpi\n      0x00\n      dup1\n      revert\n    tag_137:\n      pop\n      tag_101\n      tag_139\n      calldatasize\n      0x04\n      tag_123\n      jump\t// in\n    tag_139:\n      mstore(0x20, 0x08)\n      0x00\n      swap1\n      dup2\n      mstore\n      0x40\n      swap1\n      keccak256\n      sload\n      dup2\n      jump\n        /* \"@openzeppelin/contracts/access/AccessControl.sol\":5304:5549   */\n    tag_15:\n      callvalue\n      dup1\n      iszero\n      tag_143\n      jumpi\n      0x00\n      dup1\n      revert\n    tag_143:\n      pop\n      tag_89\n      tag_145\n      calldatasize\n      0x04\n      tag_135\n      jump\t// in\n    tag_145:\n      tag_146\n      jump\t// in\n        /* \"TestPool.sol\":2191:2236  mapping(address => bool) public isWhitelisted */\n    tag_16:\n      callvalue\n      dup1\n      iszero\n      tag_147\n      jumpi\n      0x00\n      dup1\n      revert\n    tag_147:\n      pop\n      tag_82\n      tag_149\n      calldatasize\n      0x04\n      tag_123\n      jump\t// in\n    tag_149:\n      mstore(0x20, 0x06)\n      0x00\n      swap1\n      dup2\n      mstore\n      0x40\n      swap1\n      keccak256\n      sload\n      0xff\n      and\n      dup2\n      jump\n        /* \"TestPool.sol\":6428:6790  function setWhitelistBatch(address[] calldata users, bool[] calldata statuses) external onlyRole(ADMIN_ROLE) {... */\n    tag_17:\n      callvalue\n      dup1\n      iszero\n      tag_152\n      jumpi\n      0x00\n      dup1\n      revert\n    tag_152:\n      pop\n      tag_89\n      tag_154\n      calldatasize\n      0x04\n      tag_155\n      jump\t// in\n    tag_154:\n      tag_156\n      jump\t// in\n        /* \"TestPool.sol\":16350:17009  function getUserStats(address user) external view returns (... */\n    tag_18:\n      callvalue\n      dup1\n      iszero\n      tag_157\n      jumpi\n      0x00\n      dup1\n      revert\n    tag_157:\n      pop\n      tag_158\n      tag_159\n      calldatasize\n      0x04\n      tag_123\n      jump\t// in\n    tag_159:\n      tag_160\n      jump\t// in\n    tag_158:\n      0x40\n      dup1\n      mload\n        /* \"#utility.yul\":5663:5688   */\n      swap5\n      dup6\n      mstore\n        /* \"#utility.yul\":5719:5721   */\n      0x20\n        /* \"#utility.yul\":5704:5722   */\n      dup6\n      add\n        /* \"#utility.yul\":5697:5731   */\n      swap4\n      swap1\n      swap4\n      mstore\n        /* \"#utility.yul\":5747:5765   */\n      swap2\n      dup4\n      add\n        /* \"#utility.yul\":5740:5774   */\n      mstore\n        /* \"#utility.yul\":5805:5807   */\n      0x60\n        /* \"#utility.yul\":5790:5808   */\n      dup3\n      add\n        /* \"#utility.yul\":5783:5817   */\n      mstore\n        /* \"#utility.yul\":5650:5653   */\n      0x80\n        /* \"#utility.yul\":5635:5654   */\n      add\n        /* \"TestPool.sol\":16350:17009  function getUserStats(address user) external view returns (... */\n      tag_86\n        /* \"#utility.yul\":5432:5823   */\n      jump\n        /* \"TestPool.sol\":1172:1200  bool public whitelistEnabled */\n    tag_19:\n      callvalue\n      dup1\n      iszero\n      tag_163\n      jumpi\n      0x00\n      dup1\n      revert\n    tag_163:\n      pop\n      sload(0x04)\n      tag_82\n      swap1\n      0x010000\n      swap1\n      div\n      0xff\n      and\n      dup2\n      jump\n        /* \"TestPool.sol\":6254:6422  function setWhitelist(address user, bool status) external onlyRole(ADMIN_ROLE) {... */\n    tag_20:\n      callvalue\n      dup1\n      iszero\n      tag_167\n      jumpi\n      0x00\n      dup1\n      revert\n    tag_167:\n      pop\n      tag_89\n      tag_169\n      calldatasize\n      0x04\n      tag_170\n      jump\t// in\n    tag_169:\n      tag_171\n      jump\t// in\n        /* \"TestPool.sol\":933:973  string public constant version = \"1.0.1\" */\n    tag_21:\n      callvalue\n      dup1\n      iszero\n      tag_172\n      jumpi\n      0x00\n      dup1\n      revert\n    tag_172:\n      pop\n      tag_173\n      mload(0x40)\n      dup1\n      0x40\n      add\n      0x40\n      mstore\n      dup1\n      0x05\n      dup2\n      mstore\n      0x20\n      add\n      0x312e302e31000000000000000000000000000000000000000000000000000000\n      dup2\n      mstore\n      pop\n      dup2\n      jump\n    tag_173:\n      mload(0x40)\n      tag_86\n      swap2\n      swap1\n      tag_176\n      jump\t// in\n        /* \"@openzeppelin/contracts/metatx/ERC2771Context.sol\":1832:1969   */\n    tag_22:\n      callvalue\n      dup1\n      iszero\n      tag_177\n      jumpi\n      0x00\n      dup1\n      revert\n    tag_177:\n      pop\n      tag_82\n      tag_179\n      calldatasize\n      0x04\n      tag_123\n      jump\t// in\n    tag_179:\n        /* \"@openzeppelin/contracts/metatx/ERC2771Context.sol\":1707:1724   */\n      immutable(\"0xe672b8f1e043b1abd7182a7eb25ee85f549ed715877451e167234999e566d177\")\n      sub(shl(0xa0, 0x01), 0x01)\n        /* \"@openzeppelin/contracts/metatx/ERC2771Context.sol\":1931:1962   */\n      swap1\n      dup2\n      and\n      swap2\n      and\n      eq\n      swap1\n        /* \"@openzeppelin/contracts/metatx/ERC2771Context.sol\":1832:1969   */\n      jump\n        /* \"TestPool.sol\":1248:1288  uint48 public globalLiquidationTimestamp */\n    tag_23:\n      callvalue\n      dup1\n      iszero\n      tag_182\n      jumpi\n      0x00\n      dup1\n      revert\n    tag_182:\n      pop\n      sload(0x04)\n      tag_183\n      swap1\n      0x0100000000\n      swap1\n      div\n      0xffffffffffff\n      and\n      dup2\n      jump\n    tag_183:\n      mload(0x40)\n        /* \"#utility.yul\":6745:6759   */\n      0xffffffffffff\n        /* \"#utility.yul\":6733:6760   */\n      swap1\n      swap2\n      and\n        /* \"#utility.yul\":6715:6761   */\n      dup2\n      mstore\n        /* \"#utility.yul\":6703:6705   */\n      0x20\n        /* \"#utility.yul\":6688:6706   */\n      add\n        /* \"TestPool.sol\":1248:1288  uint48 public globalLiquidationTimestamp */\n      tag_86\n        /* \"#utility.yul\":6571:6767   */\n      jump\n        /* \"TestPool.sol\":2242:2286  mapping(address => bool) public hasWithdrawn */\n    tag_24:\n      callvalue\n      dup1\n      iszero\n      tag_187\n      jumpi\n      0x00\n      dup1\n      revert\n    tag_187:\n      pop\n      tag_82\n      tag_189\n      calldatasize\n      0x04\n      tag_123\n      jump\t// in\n    tag_189:\n      mstore(0x20, 0x07)\n      0x00\n      swap1\n      dup2\n      mstore\n      0x40\n      swap1\n      keccak256\n      sload\n      0xff\n      and\n      dup2\n      jump\n        /* \"TestPool.sol\":1105:1131  bool public pausedDeposits */\n    tag_25:\n      callvalue\n      dup1\n      iszero\n      tag_192\n      jumpi\n      0x00\n      dup1\n      revert\n    tag_192:\n      pop\n      sload(0x04)\n      tag_82\n      swap1\n      0xff\n      and\n      dup2\n      jump\n        /* \"TestPool.sol\":13318:13564  function injectUtilityETH() external payable onlyRole(UTILITY_INJECTOR_ROLE) {... */\n    tag_26:\n      tag_89\n      tag_197\n      jump\t// in\n        /* \"TestPool.sol\":5904:6126  function setPaused(bool _deposits, bool _withdrawals) external onlyRole(PAUSER_ROLE) {... */\n    tag_27:\n      callvalue\n      dup1\n      iszero\n      tag_198\n      jumpi\n      0x00\n      dup1\n      revert\n    tag_198:\n      pop\n      tag_89\n      tag_200\n      calldatasize\n      0x04\n      tag_201\n      jump\t// in\n    tag_200:\n      tag_202\n      jump\t// in\n        /* \"TestPool.sol\":2419:2467  mapping(address => bool) public isKnownDepositor */\n    tag_28:\n      callvalue\n      dup1\n      iszero\n      tag_203\n      jumpi\n      0x00\n      dup1\n      revert\n    tag_203:\n      pop\n      tag_82\n      tag_205\n      calldatasize\n      0x04\n      tag_123\n      jump\t// in\n    tag_205:\n      mstore(0x20, 0x0a)\n      0x00\n      swap1\n      dup2\n      mstore\n      0x40\n      swap1\n      keccak256\n      sload\n      0xff\n      and\n      dup2\n      jump\n        /* \"TestPool.sol\":13570:13864  function assignUtilityETH(address user, uint256 amount) external onlyRole(ADMIN_ROLE) {... */\n    tag_29:\n      callvalue\n      dup1\n      iszero\n      tag_208\n      jumpi\n      0x00\n      dup1\n      revert\n    tag_208:\n      pop\n      tag_89\n      tag_210\n      calldatasize\n      0x04\n      tag_96\n      jump\t// in\n    tag_210:\n      tag_211\n      jump\t// in\n        /* \"TestPool.sol\":10434:12126  function batchWithdraw(uint256[] calldata depositIndices) external nonReentrant whenWithdrawalsNotPaused {... */\n    tag_30:\n      callvalue\n      dup1\n      iszero\n      tag_212\n      jumpi\n      0x00\n      dup1\n      revert\n    tag_212:\n      pop\n      tag_89\n      tag_214\n      calldatasize\n      0x04\n      tag_215\n      jump\t// in\n    tag_214:\n      tag_216\n      jump\t// in\n        /* \"TestPool.sol\":1366:1426  bytes32 public constant ADMIN_ROLE = keccak256(\"ADMIN_ROLE\") */\n    tag_31:\n      callvalue\n      dup1\n      iszero\n      tag_217\n      jumpi\n      0x00\n      dup1\n      revert\n    tag_217:\n      pop\n      tag_101\n      0x00\n      dup1\n      mload\n      0x20\n      data_cb864c43dd5d441bb6271f424f11befa622c032dfd374d226e26fbbdb782b8f8\n      dup4\n      codecopy\n      dup2\n      mload\n      swap2\n      mstore\n      dup2\n      jump\n        /* \"TestPool.sol\":5762:5898  function setMaxCap(uint256 newCap) external onlyRole(ADMIN_ROLE) {... */\n    tag_32:\n      callvalue\n      dup1\n      iszero\n      tag_221\n      jumpi\n      0x00\n      dup1\n      revert\n    tag_221:\n      pop\n      tag_89\n      tag_223\n      calldatasize\n      0x04\n      tag_114\n      jump\t// in\n    tag_223:\n      tag_224\n      jump\t// in\n        /* \"@openzeppelin/contracts/metatx/ERC2771Context.sol\":1624:1731   */\n    tag_33:\n      callvalue\n      dup1\n      iszero\n      tag_225\n      jumpi\n      0x00\n      dup1\n      revert\n    tag_225:\n      pop\n        /* \"@openzeppelin/contracts/metatx/ERC2771Context.sol\":1707:1724   */\n      immutable(\"0xe672b8f1e043b1abd7182a7eb25ee85f549ed715877451e167234999e566d177\")\n        /* \"@openzeppelin/contracts/metatx/ERC2771Context.sol\":1624:1731   */\n    tag_226:\n      mload(0x40)\n      sub(shl(0xa0, 0x01), 0x01)\n        /* \"#utility.yul\":7759:7814   */\n      swap1\n      swap2\n      and\n        /* \"#utility.yul\":7741:7815   */\n      dup2\n      mstore\n        /* \"#utility.yul\":7729:7731   */\n      0x20\n        /* \"#utility.yul\":7714:7732   */\n      add\n        /* \"@openzeppelin/contracts/metatx/ERC2771Context.sol\":1624:1731   */\n      tag_86\n        /* \"#utility.yul\":7595:7821   */\n      jump\n        /* \"TestPool.sol\":12168:12706  function unlockDepositsForUser(address user, uint256[] calldata depositIndices) external onlyRole(UNLOCKER_ROLE) {... */\n    tag_34:\n      callvalue\n      dup1\n      iszero\n      tag_230\n      jumpi\n      0x00\n      dup1\n      revert\n    tag_230:\n      pop\n      tag_89\n      tag_232\n      calldatasize\n      0x04\n      tag_233\n      jump\t// in\n    tag_232:\n      tag_234\n      jump\t// in\n        /* \"TestPool.sol\":1660:1746  bytes32 public constant UTILITY_WITHDRAWER_ROLE = keccak256(\"UTILITY_WITHDRAWER_ROLE\") */\n    tag_35:\n      callvalue\n      dup1\n      iszero\n      tag_235\n      jumpi\n      0x00\n      dup1\n      revert\n    tag_235:\n      pop\n      tag_101\n        /* \"TestPool.sol\":1710:1746  keccak256(\"UTILITY_WITHDRAWER_ROLE\") */\n      0x78c90eb9e475048b483a290aee04b5fe48355537c3623c7637b17d3bed71c6ed\n        /* \"TestPool.sol\":1660:1746  bytes32 public constant UTILITY_WITHDRAWER_ROLE = keccak256(\"UTILITY_WITHDRAWER_ROLE\") */\n      dup2\n      jump\n        /* \"TestPool.sol\":2356:2413  mapping(address => uint256) public userTotalReinvestedETH */\n    tag_36:\n      callvalue\n      dup1\n      iszero\n      tag_239\n      jumpi\n      0x00\n      dup1\n      revert\n    tag_239:\n      pop\n      tag_101\n      tag_241\n      calldatasize\n      0x04\n      tag_123\n      jump\t// in\n    tag_241:\n      mstore(0x20, 0x09)\n      0x00\n      swap1\n      dup2\n      mstore\n      0x40\n      swap1\n      keccak256\n      sload\n      dup2\n      jump\n        /* \"TestPool.sol\":2542:2574  uint256 public totalDepositedETH */\n    tag_37:\n      callvalue\n      dup1\n      iszero\n      tag_244\n      jumpi\n      0x00\n      dup1\n      revert\n    tag_244:\n      pop\n      tag_101\n      sload(0x0c)\n      dup2\n      jump\n        /* \"TestPool.sol\":6796:7053  function setUtilityAddress(address newUtilityAddress) external onlyRole(ADMIN_ROLE) {... */\n    tag_38:\n      callvalue\n      dup1\n      iszero\n      tag_248\n      jumpi\n      0x00\n      dup1\n      revert\n    tag_248:\n      pop\n      tag_89\n      tag_250\n      calldatasize\n      0x04\n      tag_123\n      jump\t// in\n    tag_250:\n      tag_251\n      jump\t// in\n        /* \"TestPool.sol\":2580:2612  uint256 public totalWithdrawnETH */\n    tag_39:\n      callvalue\n      dup1\n      iszero\n      tag_252\n      jumpi\n      0x00\n      dup1\n      revert\n    tag_252:\n      pop\n      tag_101\n      sload(0x0d)\n      dup2\n      jump\n        /* \"@openzeppelin/contracts/access/AccessControl.sol\":2830:2966   */\n    tag_40:\n      callvalue\n      dup1\n      iszero\n      tag_256\n      jumpi\n      0x00\n      dup1\n      revert\n    tag_256:\n      pop\n      tag_82\n      tag_258\n      calldatasize\n      0x04\n      tag_135\n      jump\t// in\n    tag_258:\n        /* \"@openzeppelin/contracts/access/AccessControl.sol\":2907:2911   */\n      0x00\n        /* \"@openzeppelin/contracts/access/AccessControl.sol\":2930:2942   */\n      swap2\n      dup3\n      mstore\n      0x20\n      dup3\n      dup2\n      mstore\n      0x40\n      dup1\n      dup5\n      keccak256\n      sub(shl(0xa0, 0x01), 0x01)\n        /* \"@openzeppelin/contracts/access/AccessControl.sol\":2930:2959   */\n      swap4\n      swap1\n      swap4\n      and\n      dup5\n      mstore\n      swap2\n      swap1\n      mstore\n      swap1\n      keccak256\n      sload\n      0xff\n      and\n      swap1\n        /* \"@openzeppelin/contracts/access/AccessControl.sol\":2830:2966   */\n      jump\n        /* \"TestPool.sol\":15242:15663  function withdrawUtilityETH(uint256 amount) external onlyRole(UTILITY_WITHDRAWER_ROLE) nonReentrant {... */\n    tag_41:\n      callvalue\n      dup1\n      iszero\n      tag_261\n      jumpi\n      0x00\n      dup1\n      revert\n    tag_261:\n      pop\n      tag_89\n      tag_263\n      calldatasize\n      0x04\n      tag_114\n      jump\t// in\n    tag_263:\n      tag_264\n      jump\t// in\n        /* \"TestPool.sol\":2654:2687  uint256 public totalReinvestedETH */\n    tag_42:\n      callvalue\n      dup1\n      iszero\n      tag_265\n      jumpi\n      0x00\n      dup1\n      revert\n    tag_265:\n      pop\n      tag_101\n      sload(0x0f)\n      dup2\n      jump\n        /* \"TestPool.sol\":1023:1065  uint256 public maxCapETH = 5_000_000 ether */\n    tag_43:\n      callvalue\n      dup1\n      iszero\n      tag_269\n      jumpi\n      0x00\n      dup1\n      revert\n    tag_269:\n      pop\n      tag_101\n      sload(0x03)\n      dup2\n      jump\n        /* \"TestPool.sol\":2474:2505  address[] public withdrawnUsers */\n    tag_44:\n      callvalue\n      dup1\n      iszero\n      tag_273\n      jumpi\n      0x00\n      dup1\n      revert\n    tag_273:\n      pop\n      tag_226\n      tag_275\n      calldatasize\n      0x04\n      tag_114\n      jump\t// in\n    tag_275:\n      tag_276\n      jump\t// in\n        /* \"@openzeppelin/contracts/access/AccessControl.sol\":2196:2245   */\n    tag_45:\n      callvalue\n      dup1\n      iszero\n      tag_278\n      jumpi\n      0x00\n      dup1\n      revert\n    tag_278:\n      pop\n      tag_101\n        /* \"@openzeppelin/contracts/access/AccessControl.sol\":2241:2245   */\n      0x00\n        /* \"@openzeppelin/contracts/access/AccessControl.sol\":2196:2245   */\n      dup2\n      jump\n        /* \"TestPool.sol\":15711:16344  function getVaultStats() external view returns (... */\n    tag_46:\n      callvalue\n      dup1\n      iszero\n      tag_282\n      jumpi\n      0x00\n      dup1\n      revert\n    tag_282:\n      pop\n      tag_283\n        /* \"TestPool.sol\":16081:16098  totalDepositedETH */\n      sload(0x0c)\n        /* \"TestPool.sol\":16129:16146  totalWithdrawnETH */\n      sload(0x0d)\n        /* \"TestPool.sol\":16175:16190  totalUtilityETH */\n      sload(0x0e)\n        /* \"TestPool.sol\":16222:16240  totalReinvestedETH */\n      sload(0x0f)\n        /* \"TestPool.sol\":16270:16286  totalInvestedETH */\n      sload(0x10)\n        /* \"TestPool.sol\":16316:16330  withdrawnUsers */\n      0x0b\n        /* \"TestPool.sol\":16316:16337  withdrawnUsers.length */\n      sload\n        /* \"TestPool.sol\":16029:16050  address(this).balance */\n      selfbalance\n      swap7\n        /* \"TestPool.sol\":15711:16344  function getVaultStats() external view returns (... */\n      jump\n    tag_283:\n      0x40\n      dup1\n      mload\n        /* \"#utility.yul\":8657:8682   */\n      swap8\n      dup9\n      mstore\n        /* \"#utility.yul\":8713:8715   */\n      0x20\n        /* \"#utility.yul\":8698:8716   */\n      dup9\n      add\n        /* \"#utility.yul\":8691:8725   */\n      swap7\n      swap1\n      swap7\n      mstore\n        /* \"#utility.yul\":8741:8759   */\n      swap5\n      dup7\n      add\n        /* \"#utility.yul\":8734:8768   */\n      swap4\n      swap1\n      swap4\n      mstore\n        /* \"#utility.yul\":8799:8801   */\n      0x60\n        /* \"#utility.yul\":8784:8802   */\n      dup6\n      add\n        /* \"#utility.yul\":8777:8811   */\n      swap2\n      swap1\n      swap2\n      mstore\n        /* \"#utility.yul\":8842:8845   */\n      0x80\n        /* \"#utility.yul\":8827:8846   */\n      dup5\n      add\n        /* \"#utility.yul\":8820:8855   */\n      mstore\n        /* \"#utility.yul\":8886:8889   */\n      0xa0\n        /* \"#utility.yul\":8871:8890   */\n      dup4\n      add\n        /* \"#utility.yul\":8864:8899   */\n      mstore\n        /* \"#utility.yul\":8930:8933   */\n      0xc0\n        /* \"#utility.yul\":8915:8934   */\n      dup3\n      add\n        /* \"#utility.yul\":8908:8943   */\n      mstore\n        /* \"#utility.yul\":8644:8647   */\n      0xe0\n        /* \"#utility.yul\":8629:8648   */\n      add\n        /* \"TestPool.sol\":15711:16344  function getVaultStats() external view returns (... */\n      tag_86\n        /* \"#utility.yul\":8342:8949   */\n      jump\n        /* \"TestPool.sol\":17175:17418  function rescueERC20(address token, address to, uint256 amount) external onlyRole(ADMIN_ROLE) {... */\n    tag_47:\n      callvalue\n      dup1\n      iszero\n      tag_287\n      jumpi\n      0x00\n      dup1\n      revert\n    tag_287:\n      pop\n      tag_89\n      tag_289\n      calldatasize\n      0x04\n      tag_290\n      jump\t// in\n    tag_289:\n      tag_291\n      jump\t// in\n        /* \"TestPool.sol\":1137:1166  bool public pausedWithdrawals */\n    tag_48:\n      callvalue\n      dup1\n      iszero\n      tag_292\n      jumpi\n      0x00\n      dup1\n      revert\n    tag_292:\n      pop\n      sload(0x04)\n      tag_82\n      swap1\n      0x0100\n      swap1\n      div\n      0xff\n      and\n      dup2\n      jump\n        /* \"TestPool.sol\":2618:2648  uint256 public totalUtilityETH */\n    tag_49:\n      callvalue\n      dup1\n      iszero\n      tag_296\n      jumpi\n      0x00\n      dup1\n      revert\n    tag_296:\n      pop\n      tag_101\n      sload(0x0e)\n      dup2\n      jump\n        /* \"TestPool.sol\":13870:14425  function assignUtilityETHBatch(address[] calldata users, uint256[] calldata amounts) external onlyRole(ADMIN_ROLE) {... */\n    tag_50:\n      callvalue\n      dup1\n      iszero\n      tag_300\n      jumpi\n      0x00\n      dup1\n      revert\n    tag_300:\n      pop\n      tag_89\n      tag_302\n      calldatasize\n      0x04\n      tag_155\n      jump\t// in\n    tag_302:\n      tag_304\n      jump\t// in\n        /* \"TestPool.sol\":7092:7553  function withdrawForInvestmentETH(address to, uint256 amount) external onlyRole(MANAGER_ROLE) nonReentrant {... */\n    tag_51:\n      callvalue\n      dup1\n      iszero\n      tag_305\n      jumpi\n      0x00\n      dup1\n      revert\n    tag_305:\n      pop\n      tag_89\n      tag_307\n      calldatasize\n      0x04\n      tag_96\n      jump\t// in\n    tag_307:\n      tag_308\n      jump\t// in\n        /* \"TestPool.sol\":5596:5756  function setLockupPeriod(uint256 newPeriod) external onlyRole(ADMIN_ROLE) {... */\n    tag_52:\n      callvalue\n      dup1\n      iszero\n      tag_309\n      jumpi\n      0x00\n      dup1\n      revert\n    tag_309:\n      pop\n      tag_89\n      tag_311\n      calldatasize\n      0x04\n      tag_114\n      jump\t// in\n    tag_311:\n      tag_312\n      jump\t// in\n        /* \"@openzeppelin/contracts/access/AccessControl.sol\":4618:4756   */\n    tag_53:\n      callvalue\n      dup1\n      iszero\n      tag_313\n      jumpi\n      0x00\n      dup1\n      revert\n    tag_313:\n      pop\n      tag_89\n      tag_315\n      calldatasize\n      0x04\n      tag_135\n      jump\t// in\n    tag_315:\n      tag_316\n      jump\t// in\n        /* \"TestPool.sol\":12712:13023  function enableGlobalLiquidation() external onlyRole(ADMIN_ROLE) {... */\n    tag_54:\n      callvalue\n      dup1\n      iszero\n      tag_317\n      jumpi\n      0x00\n      dup1\n      revert\n    tag_317:\n      pop\n      tag_89\n      tag_319\n      jump\t// in\n        /* \"TestPool.sol\":1500:1566  bytes32 public constant UNLOCKER_ROLE = keccak256(\"UNLOCKER_ROLE\") */\n    tag_55:\n      callvalue\n      dup1\n      iszero\n      tag_320\n      jumpi\n      0x00\n      dup1\n      revert\n    tag_320:\n      pop\n      tag_101\n        /* \"TestPool.sol\":1540:1566  keccak256(\"UNLOCKER_ROLE\") */\n      0xc806897caf4fd5068191157e44d3988e43139a37e0b97b6793e1ed1184140604\n        /* \"TestPool.sol\":1500:1566  bytes32 public constant UNLOCKER_ROLE = keccak256(\"UNLOCKER_ROLE\") */\n      dup2\n      jump\n        /* \"TestPool.sol\":14431:14815  function claimUtilityETH() external nonReentrant {... */\n    tag_56:\n      callvalue\n      dup1\n      iszero\n      tag_324\n      jumpi\n      0x00\n      dup1\n      revert\n    tag_324:\n      pop\n      tag_89\n      tag_326\n      jump\t// in\n        /* \"TestPool.sol\":1432:1494  bytes32 public constant PAUSER_ROLE = keccak256(\"PAUSER_ROLE\") */\n    tag_57:\n      callvalue\n      dup1\n      iszero\n      tag_327\n      jumpi\n      0x00\n      dup1\n      revert\n    tag_327:\n      pop\n      tag_101\n        /* \"TestPool.sol\":1470:1494  keccak256(\"PAUSER_ROLE\") */\n      0x65d7a28e3265b37a6474929f336521b332c1681b933f6cb9f3376673440d862a\n        /* \"TestPool.sol\":1432:1494  bytes32 public constant PAUSER_ROLE = keccak256(\"PAUSER_ROLE\") */\n      dup2\n      jump\n        /* \"TestPool.sol\":1752:1816  bytes32 public constant MANAGER_ROLE = keccak256(\"MANAGER_ROLE\") */\n    tag_58:\n      callvalue\n      dup1\n      iszero\n      tag_331\n      jumpi\n      0x00\n      dup1\n      revert\n    tag_331:\n      pop\n      tag_101\n        /* \"TestPool.sol\":1791:1816  keccak256(\"MANAGER_ROLE\") */\n      0x241ecf16d79d0f8dbfb92cbc07fe17840425976cf0667f022fe9877caa831b08\n        /* \"TestPool.sol\":1752:1816  bytes32 public constant MANAGER_ROLE = keccak256(\"MANAGER_ROLE\") */\n      dup2\n      jump\n        /* \"TestPool.sol\":979:1017  uint256 public lockupPeriod = 180 days */\n    tag_59:\n      callvalue\n      dup1\n      iszero\n      tag_335\n      jumpi\n      0x00\n      dup1\n      revert\n    tag_335:\n      pop\n      tag_101\n      sload(0x02)\n      dup2\n      jump\n        /* \"TestPool.sol\":1295:1324  address public utilityAddress */\n    tag_60:\n      callvalue\n      dup1\n      iszero\n      tag_339\n      jumpi\n      0x00\n      dup1\n      revert\n    tag_339:\n      pop\n      sload(0x04)\n      tag_226\n      swap1\n      shl(0x50, 0x01)\n      swap1\n      div\n      sub(shl(0xa0, 0x01), 0x01)\n      and\n      dup2\n      jump\n        /* \"TestPool.sol\":13029:13289  function setDepositsAsRedeemable(address user, uint256[] calldata depositIndices) external onlyRole(ADMIN_ROLE) {... */\n    tag_61:\n      callvalue\n      dup1\n      iszero\n      tag_343\n      jumpi\n      0x00\n      dup1\n      revert\n    tag_343:\n      pop\n      tag_89\n      tag_345\n      calldatasize\n      0x04\n      tag_233\n      jump\t// in\n    tag_345:\n      tag_346\n      jump\t// in\n        /* \"TestPool.sol\":7938:8342  function depositETH() external payable nonReentrant whenDepositsNotPaused {... */\n    tag_62:\n      tag_89\n      tag_348\n      jump\t// in\n        /* \"TestPool.sol\":2693:2724  uint256 public totalInvestedETH */\n    tag_63:\n      callvalue\n      dup1\n      iszero\n      tag_349\n      jumpi\n      0x00\n      dup1\n      revert\n    tag_349:\n      pop\n      tag_101\n      sload(0x10)\n      dup2\n      jump\n        /* \"@openzeppelin/contracts/access/AccessControl.sol\":2541:2743   */\n    tag_85:\n        /* \"@openzeppelin/contracts/access/AccessControl.sol\":2626:2630   */\n      0x00\n      not(sub(shl(0xe0, 0x01), 0x01))\n        /* \"@openzeppelin/contracts/access/AccessControl.sol\":2649:2696   */\n      dup3\n      and\n      shl(0xe0, 0x7965db0b)\n      eq\n      dup1\n        /* \"@openzeppelin/contracts/access/AccessControl.sol\":2649:2736   */\n      tag_355\n      jumpi\n      pop\n      shl(0xe0, 0x01ffc9a7)\n      not(sub(shl(0xe0, 0x01), 0x01))\n        /* \"@openzeppelin/contracts/utils/introspection/ERC165.sol\":829:869   */\n      dup4\n      and\n      eq\n        /* \"@openzeppelin/contracts/access/AccessControl.sol\":2700:2736   */\n    tag_355:\n        /* \"@openzeppelin/contracts/access/AccessControl.sol\":2642:2736   */\n      swap3\n        /* \"@openzeppelin/contracts/access/AccessControl.sol\":2541:2743   */\n      swap2\n      pop\n      pop\n      jump\t// out\n        /* \"TestPool.sol\":6132:6248  function setWhitelistEnabled(bool enabled) external onlyRole(ADMIN_ROLE) {... */\n    tag_92:\n      0x00\n      dup1\n      mload\n      0x20\n      data_cb864c43dd5d441bb6271f424f11befa622c032dfd374d226e26fbbdb782b8f8\n      dup4\n      codecopy\n      dup2\n      mload\n      swap2\n      mstore\n        /* \"@openzeppelin/contracts/access/AccessControl.sol\":2473:2489   */\n      tag_358\n        /* \"@openzeppelin/contracts/access/AccessControl.sol\":2484:2488   */\n      dup2\n        /* \"@openzeppelin/contracts/access/AccessControl.sol\":2473:2483   */\n      tag_359\n        /* \"@openzeppelin/contracts/access/AccessControl.sol\":2473:2489   */\n      jump\t// in\n    tag_358:\n      pop\n        /* \"TestPool.sol\":6215:6231  whitelistEnabled */\n      0x04\n        /* \"TestPool.sol\":6215:6241  whitelistEnabled = enabled */\n      dup1\n      sload\n      swap2\n      iszero\n      iszero\n      0x010000\n      mul\n      not(0xff0000)\n      swap1\n      swap3\n      and\n      swap2\n      swap1\n      swap2\n      or\n      swap1\n      sstore\n        /* \"TestPool.sol\":6132:6248  function setWhitelistEnabled(bool enabled) external onlyRole(ADMIN_ROLE) {... */\n      jump\t// out\n        /* \"TestPool.sol\":2132:2185  mapping(address => DepositInfo[]) public userDeposits */\n    tag_97:\n      mstore(0x20, 0x05)\n      dup2\n      0x00\n      mstore\n      keccak256(0x00, 0x40)\n      dup2\n      dup2\n      sload\n      dup2\n      lt\n      tag_361\n      jumpi\n      0x00\n      dup1\n      revert\n    tag_361:\n      0x00\n      swap2\n      dup3\n      mstore\n      0x20\n      swap1\n      swap2\n      keccak256\n      0x02\n      swap1\n      swap2\n      mul\n      add\n      dup1\n      sload\n      0x01\n      swap1\n      swap2\n      add\n      sload\n      sub(shl(0x60, 0x01), 0x01)\n      dup1\n      dup4\n      and\n      swap5\n      pop\n      shl(0x60, 0x01)\n      dup4\n      div\n      and\n      swap3\n      pop\n      0xffffffffffff\n      shl(0xc0, 0x01)\n      swap1\n      swap3\n      div\n      dup3\n      and\n      swap2\n      dup2\n      and\n      swap1\n      0xff\n      shl(0x30, 0x01)\n      swap1\n      swap2\n      div\n      and\n      dup6\n      jump\t// out\n        /* \"TestPool.sol\":7559:7908  function returnInvestmentETH() external payable onlyRole(MANAGER_ROLE) nonReentrant {... */\n    tag_106:\n        /* \"TestPool.sol\":1791:1816  keccak256(\"MANAGER_ROLE\") */\n      0x241ecf16d79d0f8dbfb92cbc07fe17840425976cf0667f022fe9877caa831b08\n        /* \"@openzeppelin/contracts/access/AccessControl.sol\":2473:2489   */\n      tag_364\n        /* \"@openzeppelin/contracts/access/AccessControl.sol\":2484:2488   */\n      dup2\n        /* \"@openzeppelin/contracts/access/AccessControl.sol\":2473:2483   */\n      tag_359\n        /* \"@openzeppelin/contracts/access/AccessControl.sol\":2473:2489   */\n      jump\t// in\n    tag_364:\n        /* \"@openzeppelin/contracts/utils/ReentrancyGuard.sol\":2500:2521   */\n      tag_366\n        /* \"@openzeppelin/contracts/utils/ReentrancyGuard.sol\":2500:2519   */\n      tag_367\n        /* \"@openzeppelin/contracts/utils/ReentrancyGuard.sol\":2500:2521   */\n      jump\t// in\n    tag_366:\n        /* \"TestPool.sol\":7657:7666  msg.value */\n      callvalue\n        /* \"TestPool.sol\":7670:7671  0 */\n      0x00\n        /* \"TestPool.sol\":7657:7671  msg.value == 0 */\n      sub\n        /* \"TestPool.sol\":7653:7695  if (msg.value == 0) revert InvalidAmount() */\n      tag_369\n      jumpi\n        /* \"TestPool.sol\":7680:7695  InvalidAmount() */\n      mload(0x40)\n      shl(0xe1, 0x162908e3)\n      dup2\n      mstore\n      0x04\n      add\n      mload(0x40)\n      dup1\n      swap2\n      sub\n      swap1\n      revert\n        /* \"TestPool.sol\":7653:7695  if (msg.value == 0) revert InvalidAmount() */\n    tag_369:\n        /* \"TestPool.sol\":7721:7737  totalInvestedETH */\n      sload(0x10)\n        /* \"TestPool.sol\":7709:7718  msg.value */\n      callvalue\n        /* \"TestPool.sol\":7709:7737  msg.value > totalInvestedETH */\n      gt\n        /* \"TestPool.sol\":7705:7777  if (msg.value > totalInvestedETH) revert ReturnedAmountExceedsInvested() */\n      iszero\n      tag_370\n      jumpi\n        /* \"TestPool.sol\":7746:7777  ReturnedAmountExceedsInvested() */\n      mload(0x40)\n      shl(0xe2, 0x04711311)\n      dup2\n      mstore\n      0x04\n      add\n      mload(0x40)\n      dup1\n      swap2\n      sub\n      swap1\n      revert\n        /* \"TestPool.sol\":7705:7777  if (msg.value > totalInvestedETH) revert ReturnedAmountExceedsInvested() */\n    tag_370:\n        /* \"TestPool.sol\":7816:7825  msg.value */\n      callvalue\n        /* \"TestPool.sol\":7796:7812  totalInvestedETH */\n      0x10\n      0x00\n        /* \"TestPool.sol\":7796:7825  totalInvestedETH -= msg.value */\n      dup3\n      dup3\n      sload\n      tag_371\n      swap2\n      swap1\n      tag_372\n      jump\t// in\n    tag_371:\n      swap1\n      swap2\n      sstore\n      pop\n        /* \"TestPool.sol\":7860:7872  _msgSender() */\n      tag_373\n      swap1\n      pop\n        /* \"TestPool.sol\":7860:7870  _msgSender */\n      tag_374\n        /* \"TestPool.sol\":7860:7872  _msgSender() */\n      jump\t// in\n    tag_373:\n      sub(shl(0xa0, 0x01), 0x01)\n        /* \"TestPool.sol\":7841:7901  InvestmentReturned(_msgSender(), msg.value, block.timestamp) */\n      and\n      0xcb619aa4d31d17bcf75519deb5bd3e1fe12d44c8a845bd640d85328477e53592\n        /* \"TestPool.sol\":7874:7883  msg.value */\n      callvalue\n        /* \"TestPool.sol\":7885:7900  block.timestamp */\n      timestamp\n        /* \"TestPool.sol\":7841:7901  InvestmentReturned(_msgSender(), msg.value, block.timestamp) */\n      mload(0x40)\n      tag_375\n      swap3\n      swap2\n      swap1\n        /* \"#utility.yul\":10504:10529   */\n      swap2\n      dup3\n      mstore\n        /* \"#utility.yul\":10560:10562   */\n      0x20\n        /* \"#utility.yul\":10545:10563   */\n      dup3\n      add\n        /* \"#utility.yul\":10538:10572   */\n      mstore\n        /* \"#utility.yul\":10492:10494   */\n      0x40\n        /* \"#utility.yul\":10477:10495   */\n      add\n      swap1\n        /* \"#utility.yul\":10330:10578   */\n      jump\n        /* \"TestPool.sol\":7841:7901  InvestmentReturned(_msgSender(), msg.value, block.timestamp) */\n    tag_375:\n      mload(0x40)\n      dup1\n      swap2\n      sub\n      swap1\n      log2\n        /* \"@openzeppelin/contracts/utils/ReentrancyGuard.sol\":2542:2562   */\n      tag_377\n        /* \"@openzeppelin/contracts/utils/ReentrancyGuard.sol\":1857:1858   */\n      0x01\n        /* \"@openzeppelin/contracts/utils/ReentrancyGuard.sol\":3068:3089   */\n      dup1\n      sstore\n        /* \"@openzeppelin/contracts/utils/ReentrancyGuard.sol\":2888:3096   */\n      jump\n        /* \"@openzeppelin/contracts/utils/ReentrancyGuard.sol\":2542:2562   */\n    tag_377:\n        /* \"TestPool.sol\":7559:7908  function returnInvestmentETH() external payable onlyRole(MANAGER_ROLE) nonReentrant {... */\n      pop\n      jump\t// out\n        /* \"TestPool.sol\":14821:15236  function reinvestUtilityETH() external nonReentrant {... */\n    tag_119:\n        /* \"@openzeppelin/contracts/utils/ReentrancyGuard.sol\":2500:2521   */\n      tag_381\n        /* \"@openzeppelin/contracts/utils/ReentrancyGuard.sol\":2500:2519   */\n      tag_367\n        /* \"@openzeppelin/contracts/utils/ReentrancyGuard.sol\":2500:2521   */\n      jump\t// in\n    tag_381:\n        /* \"TestPool.sol\":14883:14895  address user */\n      0x00\n        /* \"TestPool.sol\":14898:14910  _msgSender() */\n      tag_383\n        /* \"TestPool.sol\":14898:14908  _msgSender */\n      tag_374\n        /* \"TestPool.sol\":14898:14910  _msgSender() */\n      jump\t// in\n    tag_383:\n      sub(shl(0xa0, 0x01), 0x01)\n        /* \"TestPool.sol\":14934:14963  userClaimableUtilityETH[user] */\n      dup2\n      and\n        /* \"TestPool.sol\":14920:14931  uint256 amt */\n      0x00\n        /* \"TestPool.sol\":14934:14963  userClaimableUtilityETH[user] */\n      swap1\n      dup2\n      mstore\n        /* \"TestPool.sol\":14934:14957  userClaimableUtilityETH */\n      0x08\n        /* \"TestPool.sol\":14934:14963  userClaimableUtilityETH[user] */\n      0x20\n      mstore\n      0x40\n      dup2\n      keccak256\n      sload\n        /* \"TestPool.sol\":14883:14910  address user = _msgSender() */\n      swap2\n      swap3\n      pop\n        /* \"TestPool.sol\":14977:14985  amt == 0 */\n      dup2\n      swap1\n      sub\n        /* \"TestPool.sol\":14973:15012  if (amt == 0) revert NoUtilityToClaim() */\n      tag_384\n      jumpi\n        /* \"TestPool.sol\":14994:15012  NoUtilityToClaim() */\n      mload(0x40)\n      shl(0xe2, 0x3bd65a7b)\n      dup2\n      mstore\n      0x04\n      add\n      mload(0x40)\n      dup1\n      swap2\n      sub\n      swap1\n      revert\n        /* \"TestPool.sol\":14973:15012  if (amt == 0) revert NoUtilityToClaim() */\n    tag_384:\n      sub(shl(0xa0, 0x01), 0x01)\n        /* \"TestPool.sol\":15022:15051  userClaimableUtilityETH[user] */\n      dup3\n      and\n        /* \"TestPool.sol\":15054:15055  0 */\n      0x00\n        /* \"TestPool.sol\":15022:15051  userClaimableUtilityETH[user] */\n      swap1\n      dup2\n      mstore\n        /* \"TestPool.sol\":15022:15045  userClaimableUtilityETH */\n      0x08\n        /* \"TestPool.sol\":15022:15051  userClaimableUtilityETH[user] */\n      0x20\n      mstore\n      0x40\n      dup2\n      keccak256\n        /* \"TestPool.sol\":15022:15055  userClaimableUtilityETH[user] = 0 */\n      sstore\n        /* \"TestPool.sol\":15065:15098  _registerDeposit(user, amt, true) */\n      tag_385\n        /* \"TestPool.sol\":15046:15050  user */\n      dup3\n        /* \"TestPool.sol\":15088:15091  amt */\n      dup3\n        /* \"TestPool.sol\":15093:15097  true */\n      0x01\n        /* \"TestPool.sol\":15065:15081  _registerDeposit */\n      tag_386\n        /* \"TestPool.sol\":15065:15098  _registerDeposit(user, amt, true) */\n      jump\t// in\n    tag_385:\n        /* \"TestPool.sol\":15130:15133  amt */\n      dup1\n        /* \"TestPool.sol\":15108:15126  totalReinvestedETH */\n      0x0f\n      0x00\n        /* \"TestPool.sol\":15108:15133  totalReinvestedETH += amt */\n      dup3\n      dup3\n      sload\n      tag_387\n      swap2\n      swap1\n      tag_388\n      jump\t// in\n    tag_387:\n      swap1\n      swap2\n      sstore\n      pop\n      pop\n      sub(shl(0xa0, 0x01), 0x01)\n        /* \"TestPool.sol\":15143:15171  userTotalReinvestedETH[user] */\n      dup3\n      and\n      0x00\n      swap1\n      dup2\n      mstore\n        /* \"TestPool.sol\":15143:15165  userTotalReinvestedETH */\n      0x09\n        /* \"TestPool.sol\":15143:15171  userTotalReinvestedETH[user] */\n      0x20\n      mstore\n      0x40\n      dup2\n      keccak256\n        /* \"TestPool.sol\":15143:15178  userTotalReinvestedETH[user] += amt */\n      dup1\n      sload\n        /* \"TestPool.sol\":15175:15178  amt */\n      dup4\n      swap3\n        /* \"TestPool.sol\":15143:15171  userTotalReinvestedETH[user] */\n      swap1\n        /* \"TestPool.sol\":15143:15178  userTotalReinvestedETH[user] += amt */\n      tag_389\n      swap1\n        /* \"TestPool.sol\":15175:15178  amt */\n      dup5\n      swap1\n        /* \"TestPool.sol\":15143:15178  userTotalReinvestedETH[user] += amt */\n      tag_388\n      jump\t// in\n    tag_389:\n      swap1\n      swap2\n      sstore\n      pop\n      pop\n        /* \"TestPool.sol\":15193:15229  Reinvest(user, amt, block.timestamp) */\n      0x40\n      dup1\n      mload\n        /* \"#utility.yul\":10504:10529   */\n      dup3\n      dup2\n      mstore\n        /* \"TestPool.sol\":15213:15228  block.timestamp */\n      timestamp\n        /* \"#utility.yul\":10560:10562   */\n      0x20\n        /* \"#utility.yul\":10545:10563   */\n      dup3\n      add\n        /* \"#utility.yul\":10538:10572   */\n      mstore\n      sub(shl(0xa0, 0x01), 0x01)\n        /* \"TestPool.sol\":15193:15229  Reinvest(user, amt, block.timestamp) */\n      dup5\n      and\n      swap2\n      0xc003f45bc224d116b6d079100d4ab57a5b9633244c47a5a92a176c5b79a85f28\n      swap2\n        /* \"#utility.yul\":10477:10495   */\n      add\n        /* \"TestPool.sol\":15193:15229  Reinvest(user, amt, block.timestamp) */\n      mload(0x40)\n      dup1\n      swap2\n      sub\n      swap1\n      log2\n        /* \"TestPool.sol\":14873:15236  {... */\n      pop\n      pop\n        /* \"@openzeppelin/contracts/utils/ReentrancyGuard.sol\":2542:2562   */\n      tag_391\n        /* \"@openzeppelin/contracts/utils/ReentrancyGuard.sol\":1857:1858   */\n      0x01\n        /* \"@openzeppelin/contracts/utils/ReentrancyGuard.sol\":3068:3089   */\n      dup1\n      sstore\n        /* \"@openzeppelin/contracts/utils/ReentrancyGuard.sol\":2888:3096   */\n      jump\n        /* \"@openzeppelin/contracts/utils/ReentrancyGuard.sol\":2542:2562   */\n    tag_391:\n        /* \"TestPool.sol\":14821:15236  function reinvestUtilityETH() external nonReentrant {... */\n      jump\t// out\n        /* \"TestPool.sol\":17015:17141  function getUserDeposits(address user) external view returns (DepositInfo[] memory) {... */\n    tag_124:\n      sub(shl(0xa0, 0x01), 0x01)\n        /* \"TestPool.sol\":17116:17134  userDeposits[user] */\n      dup2\n      and\n      0x00\n      swap1\n      dup2\n      mstore\n        /* \"TestPool.sol\":17116:17128  userDeposits */\n      0x05\n        /* \"TestPool.sol\":17116:17134  userDeposits[user] */\n      0x20\n      swap1\n      dup2\n      mstore\n      0x40\n      dup1\n      dup4\n      keccak256\n        /* \"TestPool.sol\":17109:17134  return userDeposits[user] */\n      dup1\n      sload\n      dup3\n      mload\n      dup2\n      dup6\n      mul\n      dup2\n      add\n      dup6\n      add\n      swap1\n      swap4\n      mstore\n      dup1\n      dup4\n      mstore\n        /* \"TestPool.sol\":17077:17097  DepositInfo[] memory */\n      0x60\n      swap5\n        /* \"TestPool.sol\":17109:17134  return userDeposits[user] */\n      swap3\n      swap4\n        /* \"TestPool.sol\":17116:17134  userDeposits[user] */\n      swap2\n      swap3\n        /* \"TestPool.sol\":17109:17134  return userDeposits[user] */\n      swap1\n      swap2\n      dup5\n      add\n    tag_393:\n      dup3\n      dup3\n      lt\n      iszero\n      tag_394\n      jumpi\n      0x00\n      dup5\n      dup2\n      mstore\n      0x20\n      swap1\n      dup2\n      swap1\n      keccak256\n      0x40\n      dup1\n      mload\n      0xa0\n      dup2\n      add\n      dup3\n      mstore\n      0x02\n      dup7\n      mul\n      swap1\n      swap3\n      add\n      dup1\n      sload\n      sub(shl(0x60, 0x01), 0x01)\n      dup1\n      dup3\n      and\n      dup6\n      mstore\n      shl(0x60, 0x01)\n      dup3\n      div\n      and\n      dup5\n      dup7\n      add\n      mstore\n      shl(0xc0, 0x01)\n      swap1\n      div\n      0xffffffffffff\n      swap1\n      dup2\n      and\n      swap3\n      dup5\n      add\n      swap3\n      swap1\n      swap3\n      mstore\n      0x01\n      swap1\n      dup2\n      add\n      sload\n      swap2\n      dup3\n      and\n      0x60\n      dup5\n      add\n      mstore\n      shl(0x30, 0x01)\n      swap1\n      swap2\n      div\n      0xff\n      and\n      0x80\n      dup4\n      add\n      mstore\n      swap1\n      dup4\n      mstore\n      swap1\n      swap3\n      add\n      swap2\n      add\n      jump(tag_393)\n    tag_394:\n      pop\n      pop\n      pop\n      pop\n      swap1\n      pop\n        /* \"TestPool.sol\":17015:17141  function getUserDeposits(address user) external view returns (DepositInfo[] memory) {... */\n      swap2\n      swap1\n      pop\n      jump\t// out\n        /* \"TestPool.sol\":9356:10428  function withdraw(uint256 depositIndex) external nonReentrant whenWithdrawalsNotPaused {... */\n    tag_131:\n        /* \"@openzeppelin/contracts/utils/ReentrancyGuard.sol\":2500:2521   */\n      tag_397\n        /* \"@openzeppelin/contracts/utils/ReentrancyGuard.sol\":2500:2519   */\n      tag_367\n        /* \"@openzeppelin/contracts/utils/ReentrancyGuard.sol\":2500:2521   */\n      jump\t// in\n    tag_397:\n        /* \"TestPool.sol\":4242:4259  pausedWithdrawals */\n      sload(0x04)\n      0x0100\n      swap1\n      div\n      0xff\n      and\n        /* \"TestPool.sol\":4238:4287  if (pausedWithdrawals) revert WithdrawalsPaused() */\n      iszero\n      tag_399\n      jumpi\n        /* \"TestPool.sol\":4268:4287  WithdrawalsPaused() */\n      mload(0x40)\n      shl(0xe0, 0x6022a9e7)\n      dup2\n      mstore\n      0x04\n      add\n      mload(0x40)\n      dup1\n      swap2\n      sub\n      swap1\n      revert\n        /* \"TestPool.sol\":4238:4287  if (pausedWithdrawals) revert WithdrawalsPaused() */\n    tag_399:\n        /* \"TestPool.sol\":9453:9465  address user */\n      0x00\n        /* \"TestPool.sol\":9468:9480  _msgSender() */\n      tag_401\n        /* \"TestPool.sol\":9468:9478  _msgSender */\n      tag_374\n        /* \"TestPool.sol\":9468:9480  _msgSender() */\n      jump\t// in\n    tag_401:\n      sub(shl(0xa0, 0x01), 0x01)\n        /* \"TestPool.sol\":9516:9534  userDeposits[user] */\n      dup2\n      and\n        /* \"TestPool.sol\":9490:9513  DepositInfo storage dep */\n      0x00\n        /* \"TestPool.sol\":9516:9534  userDeposits[user] */\n      swap1\n      dup2\n      mstore\n        /* \"TestPool.sol\":9516:9528  userDeposits */\n      0x05\n        /* \"TestPool.sol\":9516:9534  userDeposits[user] */\n      0x20\n      mstore\n      0x40\n      dup2\n      keccak256\n        /* \"TestPool.sol\":9516:9548  userDeposits[user][depositIndex] */\n      dup1\n      sload\n        /* \"TestPool.sol\":9453:9480  address user = _msgSender() */\n      swap3\n      swap4\n      pop\n        /* \"TestPool.sol\":9490:9513  DepositInfo storage dep */\n      swap1\n      swap2\n        /* \"TestPool.sol\":9535:9547  depositIndex */\n      dup5\n      swap1\n        /* \"TestPool.sol\":9516:9548  userDeposits[user][depositIndex] */\n      dup2\n      lt\n      tag_403\n      jumpi\n      tag_403\n      tag_404\n      jump\t// in\n    tag_403:\n      0x00\n      swap2\n      dup3\n      mstore\n      0x20\n      swap1\n      swap2\n      keccak256\n        /* \"TestPool.sol\":9576:9585  dep.flags */\n      0x01\n        /* \"TestPool.sol\":9516:9548  userDeposits[user][depositIndex] */\n      0x02\n      swap1\n      swap3\n      mul\n      add\n        /* \"TestPool.sol\":9576:9585  dep.flags */\n      dup2\n      dup2\n      add\n      sload\n        /* \"TestPool.sol\":9516:9548  userDeposits[user][depositIndex] */\n      swap1\n      swap3\n      pop\n      shl(0x30, 0x01)\n        /* \"TestPool.sol\":9576:9585  dep.flags */\n      swap1\n      div\n        /* \"TestPool.sol\":9075:9091  flags & (1 << 0) */\n      and\n        /* \"TestPool.sol\":9074:9097  (flags & (1 << 0)) != 0 */\n      iszero\n        /* \"TestPool.sol\":9559:9613  if (_isWithdrawn(dep.flags)) revert AlreadyWithdrawn() */\n      tag_408\n      jumpi\n        /* \"TestPool.sol\":9595:9613  AlreadyWithdrawn() */\n      mload(0x40)\n      shl(0xe0, 0x6507689f)\n      dup2\n      mstore\n      0x04\n      add\n      mload(0x40)\n      dup1\n      swap2\n      sub\n      swap1\n      revert\n        /* \"TestPool.sol\":9559:9613  if (_isWithdrawn(dep.flags)) revert AlreadyWithdrawn() */\n    tag_408:\n        /* \"TestPool.sol\":9674:9686  lockupPeriod */\n      sload(0x02)\n        /* \"TestPool.sol\":9658:9671  dep.timestamp */\n      dup2\n      sload\n        /* \"TestPool.sol\":9658:9686  dep.timestamp + lockupPeriod */\n      tag_409\n      swap2\n        /* \"TestPool.sol\":9674:9686  lockupPeriod */\n      swap1\n      shl(0xc0, 0x01)\n        /* \"TestPool.sol\":9658:9671  dep.timestamp */\n      swap1\n      div\n      0xffffffffffff\n      and\n        /* \"TestPool.sol\":9658:9686  dep.timestamp + lockupPeriod */\n      tag_388\n      jump\t// in\n    tag_409:\n        /* \"TestPool.sol\":9640:9655  block.timestamp */\n      timestamp\n        /* \"TestPool.sol\":9640:9686  block.timestamp < dep.timestamp + lockupPeriod */\n      lt\n        /* \"TestPool.sol\":9640:9732  block.timestamp < dep.timestamp + lockupPeriod &&... */\n      dup1\n      iszero\n      tag_410\n      jumpi\n      pop\n        /* \"TestPool.sol\":9722:9731  dep.flags */\n      0x01\n      dup2\n      add\n      sload\n      shl(0x30, 0x01)\n      swap1\n      div\n        /* \"TestPool.sol\":9207:9213  1 << 1 */\n      0x02\n        /* \"TestPool.sol\":9198:9214  flags & (1 << 1) */\n      and\n        /* \"TestPool.sol\":9197:9220  (flags & (1 << 1)) != 0 */\n      iszero\n        /* \"TestPool.sol\":9640:9732  block.timestamp < dep.timestamp + lockupPeriod &&... */\n    tag_410:\n        /* \"TestPool.sol\":9640:9808  block.timestamp < dep.timestamp + lockupPeriod &&... */\n      dup1\n      iszero\n      tag_413\n      jumpi\n      pop\n        /* \"TestPool.sol\":9750:9774  globalLiquidationEnabled */\n      sload(0x04)\n      0x01000000\n      swap1\n      div\n      0xff\n      and\n        /* \"TestPool.sol\":9750:9807  globalLiquidationEnabled && _isFullyRedeemable(dep.flags) */\n      dup1\n      iszero\n      tag_415\n      jumpi\n      pop\n        /* \"TestPool.sol\":9797:9806  dep.flags */\n      0x01\n      dup2\n      add\n      sload\n      shl(0x30, 0x01)\n      swap1\n      div\n        /* \"TestPool.sol\":9330:9336  1 << 2 */\n      0x04\n        /* \"TestPool.sol\":9321:9337  flags & (1 << 2) */\n      and\n        /* \"TestPool.sol\":9320:9343  (flags & (1 << 2)) != 0 */\n      iszero\n      iszero\n        /* \"TestPool.sol\":9778:9807  _isFullyRedeemable(dep.flags) */\n    tag_415:\n        /* \"TestPool.sol\":9748:9808  !(globalLiquidationEnabled && _isFullyRedeemable(dep.flags)) */\n      iszero\n        /* \"TestPool.sol\":9640:9808  block.timestamp < dep.timestamp + lockupPeriod &&... */\n    tag_413:\n        /* \"TestPool.sol\":9623:9866  if (... */\n      iszero\n      tag_417\n      jumpi\n        /* \"TestPool.sol\":9840:9855  DepositLocked() */\n      mload(0x40)\n      shl(0xe0, 0xf38b9b5b)\n      dup2\n      mstore\n      0x04\n      add\n      mload(0x40)\n      dup1\n      swap2\n      sub\n      swap1\n      revert\n        /* \"TestPool.sol\":9623:9866  if (... */\n    tag_417:\n        /* \"TestPool.sol\":9888:9897  dep.flags */\n      0x01\n      dup2\n      dup2\n      add\n      dup1\n      sload\n      not(0xffffffffffffff)\n        /* \"TestPool.sol\":9939:9980  dep.withdrawnAt = uint48(block.timestamp) */\n      dup2\n      and\n      shl(0x30, 0x01)\n        /* \"TestPool.sol\":9888:9897  dep.flags */\n      swap2\n      dup3\n      swap1\n      div\n      0xff\n      and\n        /* \"TestPool.sol\":9888:9908  dep.flags | (1 << 0) */\n      swap1\n      swap4\n      or\n        /* \"TestPool.sol\":9876:9908  dep.flags = dep.flags | (1 << 0) */\n      mul\n      not(0xffffffffffff)\n        /* \"TestPool.sol\":9939:9980  dep.withdrawnAt = uint48(block.timestamp) */\n      and\n      swap2\n      swap1\n      swap2\n      or\n        /* \"TestPool.sol\":9964:9979  block.timestamp */\n      timestamp\n        /* \"TestPool.sol\":9939:9980  dep.withdrawnAt = uint48(block.timestamp) */\n      0xffffffffffff\n      and\n      or\n      swap1\n      sstore\n        /* \"TestPool.sol\":10010:10020  dep.amount */\n      dup1\n      sload\n        /* \"TestPool.sol\":10077:10094  totalWithdrawnETH */\n      0x0d\n        /* \"TestPool.sol\":10077:10107  totalWithdrawnETH += principal */\n      dup1\n      sload\n      sub(shl(0x60, 0x01), 0x01)\n        /* \"TestPool.sol\":10010:10020  dep.amount */\n      dup1\n      dup5\n      and\n      swap4\n      shl(0x60, 0x01)\n        /* \"TestPool.sol\":10049:10066  dep.yieldReceived */\n      swap1\n      div\n      and\n      swap2\n        /* \"TestPool.sol\":10010:10020  dep.amount */\n      dup4\n      swap2\n      0x00\n      swap1\n        /* \"TestPool.sol\":10077:10107  totalWithdrawnETH += principal */\n      tag_418\n      swap1\n        /* \"TestPool.sol\":10010:10020  dep.amount */\n      dup5\n      swap1\n        /* \"TestPool.sol\":10077:10107  totalWithdrawnETH += principal */\n      tag_388\n      jump\t// in\n    tag_418:\n      swap1\n      swap2\n      sstore\n      pop\n        /* \"TestPool.sol\":10118:10125  bool ok */\n      0x00\n      swap1\n      pop\n      sub(shl(0xa0, 0x01), 0x01)\n        /* \"TestPool.sol\":10131:10140  user.call */\n      dup6\n      and\n        /* \"TestPool.sol\":10148:10168  principal + yieldAmt */\n      tag_419\n        /* \"TestPool.sol\":10160:10168  yieldAmt */\n      dup4\n        /* \"TestPool.sol\":10148:10157  principal */\n      dup6\n        /* \"TestPool.sol\":10148:10168  principal + yieldAmt */\n      tag_388\n      jump\t// in\n    tag_419:\n        /* \"TestPool.sol\":10131:10173  user.call{value: principal + yieldAmt}(\"\") */\n      mload(0x40)\n      0x00\n      dup2\n      dup2\n      dup2\n      dup6\n      dup8\n      gas\n      call\n      swap3\n      pop\n      pop\n      pop\n      returndatasize\n      dup1\n      0x00\n      dup2\n      eq\n      tag_424\n      jumpi\n      mload(0x40)\n      swap2\n      pop\n      and(add(returndatasize, 0x3f), not(0x1f))\n      dup3\n      add\n      0x40\n      mstore\n      returndatasize\n      dup3\n      mstore\n      returndatasize\n      0x00\n      0x20\n      dup5\n      add\n      returndatacopy\n      jump(tag_423)\n    tag_424:\n      0x60\n      swap2\n      pop\n    tag_423:\n      pop\n        /* \"TestPool.sol\":10117:10173  (bool ok, ) = user.call{value: principal + yieldAmt}(\"\") */\n      pop\n      swap1\n      pop\n        /* \"TestPool.sol\":10188:10190  ok */\n      dup1\n        /* \"TestPool.sol\":10183:10215  if (!ok) revert TransferFailed() */\n      tag_425\n      jumpi\n        /* \"TestPool.sol\":10199:10215  TransferFailed() */\n      mload(0x40)\n      shl(0xe3, 0x12171d83)\n      dup2\n      mstore\n      0x04\n      add\n      mload(0x40)\n      dup1\n      swap2\n      sub\n      swap1\n      revert\n        /* \"TestPool.sol\":10183:10215  if (!ok) revert TransferFailed() */\n    tag_425:\n      sub(shl(0xa0, 0x01), 0x01)\n        /* \"TestPool.sol\":10231:10249  hasWithdrawn[user] */\n      dup6\n      and\n      0x00\n      swap1\n      dup2\n      mstore\n        /* \"TestPool.sol\":10231:10243  hasWithdrawn */\n      0x07\n        /* \"TestPool.sol\":10231:10249  hasWithdrawn[user] */\n      0x20\n      mstore\n      0x40\n      swap1\n      keccak256\n      sload\n      0xff\n      and\n        /* \"TestPool.sol\":10226:10340  if (!hasWithdrawn[user]) {... */\n      tag_426\n      jumpi\n        /* \"TestPool.sol\":10265:10279  withdrawnUsers */\n      0x0b\n        /* \"TestPool.sol\":10265:10290  withdrawnUsers.push(user) */\n      dup1\n      sload\n      0x01\n      dup1\n      dup3\n      add\n      swap1\n      swap3\n      sstore\n      0x0175b7a638427703f0dbe7bb9bbf987a2551717b34e79f33b5b1008d1fa01db9\n      add\n      dup1\n      sload\n      not(0xffffffffffffffffffffffffffffffffffffffff)\n      and\n      sub(shl(0xa0, 0x01), 0x01)\n      dup9\n      and\n      swap1\n      dup2\n      or\n      swap1\n      swap2\n      sstore\n      0x00\n        /* \"TestPool.sol\":10304:10322  hasWithdrawn[user] */\n      swap1\n      dup2\n      mstore\n        /* \"TestPool.sol\":10304:10316  hasWithdrawn */\n      0x07\n        /* \"TestPool.sol\":10265:10290  withdrawnUsers.push(user) */\n      0x20\n        /* \"TestPool.sol\":10304:10322  hasWithdrawn[user] */\n      mstore\n      0x40\n      swap1\n      keccak256\n        /* \"TestPool.sol\":10304:10329  hasWithdrawn[user] = true */\n      dup1\n      sload\n      not(0xff)\n      and\n      swap1\n      swap2\n      or\n      swap1\n      sstore\n        /* \"TestPool.sol\":10226:10340  if (!hasWithdrawn[user]) {... */\n    tag_426:\n        /* \"TestPool.sol\":10355:10421  Withdraw(user, principal, yieldAmt, block.timestamp, depositIndex) */\n      0x40\n      dup1\n      mload\n        /* \"#utility.yul\":5663:5688   */\n      dup5\n      dup2\n      mstore\n        /* \"#utility.yul\":5719:5721   */\n      0x20\n        /* \"#utility.yul\":5704:5722   */\n      dup2\n      add\n        /* \"#utility.yul\":5697:5731   */\n      dup5\n      swap1\n      mstore\n        /* \"TestPool.sol\":10391:10406  block.timestamp */\n      timestamp\n        /* \"#utility.yul\":5747:5765   */\n      dup2\n      dup4\n      add\n        /* \"#utility.yul\":5740:5774   */\n      mstore\n        /* \"#utility.yul\":5805:5807   */\n      0x60\n        /* \"#utility.yul\":5790:5808   */\n      dup2\n      add\n        /* \"#utility.yul\":5783:5817   */\n      dup9\n      swap1\n      mstore\n        /* \"TestPool.sol\":10355:10421  Withdraw(user, principal, yieldAmt, block.timestamp, depositIndex) */\n      swap1\n      mload\n      sub(shl(0xa0, 0x01), 0x01)\n      dup8\n      and\n      swap2\n      0xe08737ac48a1dab4b1a46c7dc9398bd5bfc6d7ad6fabb7cd8caa254de14def35\n      swap2\n      swap1\n      dup2\n      swap1\n      sub\n        /* \"#utility.yul\":5650:5653   */\n      0x80\n        /* \"TestPool.sol\":10355:10421  Withdraw(user, principal, yieldAmt, block.timestamp, depositIndex) */\n      add\n      swap1\n      log2\n        /* \"TestPool.sol\":9443:10428  {... */\n      pop\n      pop\n      pop\n      pop\n      pop\n        /* \"@openzeppelin/contracts/utils/ReentrancyGuard.sol\":2542:2562   */\n      tag_377\n        /* \"@openzeppelin/contracts/utils/ReentrancyGuard.sol\":1857:1858   */\n      0x01\n        /* \"@openzeppelin/contracts/utils/ReentrancyGuard.sol\":3068:3089   */\n      dup1\n      sstore\n        /* \"@openzeppelin/contracts/utils/ReentrancyGuard.sol\":2888:3096   */\n      jump\n        /* \"@openzeppelin/contracts/access/AccessControl.sol\":4202:4338   */\n    tag_136:\n        /* \"@openzeppelin/contracts/access/AccessControl.sol\":3851:3858   */\n      0x00\n        /* \"@openzeppelin/contracts/access/AccessControl.sol\":3877:3889   */\n      dup3\n      dup2\n      mstore\n      0x20\n      dup2\n      swap1\n      mstore\n      0x40\n      swap1\n      keccak256\n        /* \"@openzeppelin/contracts/access/AccessControl.sol\":3877:3899   */\n      0x01\n      add\n      sload\n        /* \"@openzeppelin/contracts/access/AccessControl.sol\":2473:2489   */\n      tag_432\n        /* \"@openzeppelin/contracts/access/AccessControl.sol\":2484:2488   */\n      dup2\n        /* \"@openzeppelin/contracts/access/AccessControl.sol\":2473:2483   */\n      tag_359\n        /* \"@openzeppelin/contracts/access/AccessControl.sol\":2473:2489   */\n      jump\t// in\n    tag_432:\n        /* \"@openzeppelin/contracts/access/AccessControl.sol\":4306:4331   */\n      tag_434\n        /* \"@openzeppelin/contracts/access/AccessControl.sol\":4317:4321   */\n      dup4\n        /* \"@openzeppelin/contracts/access/AccessControl.sol\":4323:4330   */\n      dup4\n        /* \"@openzeppelin/contracts/access/AccessControl.sol\":4306:4316   */\n      tag_435\n        /* \"@openzeppelin/contracts/access/AccessControl.sol\":4306:4331   */\n      jump\t// in\n    tag_434:\n      pop\n        /* \"@openzeppelin/contracts/access/AccessControl.sol\":4202:4338   */\n      pop\n      pop\n      pop\n      jump\t// out\n        /* \"@openzeppelin/contracts/access/AccessControl.sol\":5304:5549   */\n    tag_146:\n        /* \"@openzeppelin/contracts/access/AccessControl.sol\":5419:5431   */\n      tag_437\n        /* \"@openzeppelin/contracts/access/AccessControl.sol\":5419:5429   */\n      tag_374\n        /* \"@openzeppelin/contracts/access/AccessControl.sol\":5419:5431   */\n      jump\t// in\n    tag_437:\n      sub(shl(0xa0, 0x01), 0x01)\n        /* \"@openzeppelin/contracts/access/AccessControl.sol\":5397:5431   */\n      and\n        /* \"@openzeppelin/contracts/access/AccessControl.sol\":5397:5415   */\n      dup2\n      sub(shl(0xa0, 0x01), 0x01)\n        /* \"@openzeppelin/contracts/access/AccessControl.sol\":5397:5431   */\n      and\n      eq\n        /* \"@openzeppelin/contracts/access/AccessControl.sol\":5393:5495   */\n      tag_438\n      jumpi\n        /* \"@openzeppelin/contracts/access/AccessControl.sol\":5454:5484   */\n      mload(0x40)\n      shl(0xe1, 0x334bd919)\n      dup2\n      mstore\n      0x04\n      add\n      mload(0x40)\n      dup1\n      swap2\n      sub\n      swap1\n      revert\n        /* \"@openzeppelin/contracts/access/AccessControl.sol\":5393:5495   */\n    tag_438:\n        /* \"@openzeppelin/contracts/access/AccessControl.sol\":5505:5542   */\n      tag_439\n        /* \"@openzeppelin/contracts/access/AccessControl.sol\":5517:5521   */\n      dup3\n        /* \"@openzeppelin/contracts/access/AccessControl.sol\":5523:5541   */\n      dup3\n        /* \"@openzeppelin/contracts/access/AccessControl.sol\":5505:5516   */\n      tag_440\n        /* \"@openzeppelin/contracts/access/AccessControl.sol\":5505:5542   */\n      jump\t// in\n    tag_439:\n      pop\n        /* \"@openzeppelin/contracts/access/AccessControl.sol\":5304:5549   */\n      pop\n      pop\n      jump\t// out\n        /* \"TestPool.sol\":6428:6790  function setWhitelistBatch(address[] calldata users, bool[] calldata statuses) external onlyRole(ADMIN_ROLE) {... */\n    tag_156:\n      0x00\n      dup1\n      mload\n      0x20\n      data_cb864c43dd5d441bb6271f424f11befa622c032dfd374d226e26fbbdb782b8f8\n      dup4\n      codecopy\n      dup2\n      mload\n      swap2\n      mstore\n        /* \"@openzeppelin/contracts/access/AccessControl.sol\":2473:2489   */\n      tag_442\n        /* \"@openzeppelin/contracts/access/AccessControl.sol\":2484:2488   */\n      dup2\n        /* \"@openzeppelin/contracts/access/AccessControl.sol\":2473:2483   */\n      tag_359\n        /* \"@openzeppelin/contracts/access/AccessControl.sol\":2473:2489   */\n      jump\t// in\n    tag_442:\n        /* \"TestPool.sol\":6551:6582  users.length != statuses.length */\n      dup4\n      dup3\n      eq\n        /* \"TestPool.sol\":6547:6612  if (users.length != statuses.length) revert ArrayLengthMismatch() */\n      tag_444\n      jumpi\n        /* \"TestPool.sol\":6591:6612  ArrayLengthMismatch() */\n      mload(0x40)\n      shl(0xe1, 0x512509d3)\n      dup2\n      mstore\n      0x04\n      add\n      mload(0x40)\n      dup1\n      swap2\n      sub\n      swap1\n      revert\n        /* \"TestPool.sol\":6547:6612  if (users.length != statuses.length) revert ArrayLengthMismatch() */\n    tag_444:\n        /* \"TestPool.sol\":6627:6636  uint256 i */\n      0x00\n        /* \"TestPool.sol\":6622:6784  for (uint256 i = 0; i < users.length; i++) {... */\n    tag_445:\n        /* \"TestPool.sol\":6642:6658  i < users.length */\n      dup5\n      dup2\n      lt\n        /* \"TestPool.sol\":6622:6784  for (uint256 i = 0; i < users.length; i++) {... */\n      iszero\n      tag_446\n      jumpi\n        /* \"TestPool.sol\":6705:6713  statuses */\n      dup4\n      dup4\n        /* \"TestPool.sol\":6714:6715  i */\n      dup3\n        /* \"TestPool.sol\":6705:6716  statuses[i] */\n      dup2\n      dup2\n      lt\n      tag_449\n      jumpi\n      tag_449\n      tag_404\n      jump\t// in\n    tag_449:\n      swap1\n      pop\n      0x20\n      mul\n      add\n      0x20\n      dup2\n      add\n      swap1\n      tag_450\n      swap2\n      swap1\n      tag_91\n      jump\t// in\n    tag_450:\n        /* \"TestPool.sol\":6679:6692  isWhitelisted */\n      0x06\n        /* \"TestPool.sol\":6679:6702  isWhitelisted[users[i]] */\n      0x00\n        /* \"TestPool.sol\":6693:6698  users */\n      dup9\n      dup9\n        /* \"TestPool.sol\":6699:6700  i */\n      dup6\n        /* \"TestPool.sol\":6693:6701  users[i] */\n      dup2\n      dup2\n      lt\n      tag_452\n      jumpi\n      tag_452\n      tag_404\n      jump\t// in\n    tag_452:\n      swap1\n      pop\n      0x20\n      mul\n      add\n      0x20\n      dup2\n      add\n      swap1\n      tag_453\n      swap2\n      swap1\n      tag_123\n      jump\t// in\n    tag_453:\n      sub(shl(0xa0, 0x01), 0x01)\n        /* \"TestPool.sol\":6679:6702  isWhitelisted[users[i]] */\n      and\n      dup2\n      mstore\n      0x20\n      dup2\n      add\n      swap2\n      swap1\n      swap2\n      mstore\n      0x40\n      add\n      0x00\n      keccak256\n        /* \"TestPool.sol\":6679:6716  isWhitelisted[users[i]] = statuses[i] */\n      dup1\n      sload\n      not(0xff)\n      and\n      swap2\n      iszero\n      iszero\n      swap2\n      swap1\n      swap2\n      or\n      swap1\n      sstore\n        /* \"TestPool.sol\":6751:6756  users */\n      dup6\n      dup6\n        /* \"TestPool.sol\":6757:6758  i */\n      dup3\n        /* \"TestPool.sol\":6751:6759  users[i] */\n      dup2\n      dup2\n      lt\n      tag_455\n      jumpi\n      tag_455\n      tag_404\n      jump\t// in\n    tag_455:\n      swap1\n      pop\n      0x20\n      mul\n      add\n      0x20\n      dup2\n      add\n      swap1\n      tag_456\n      swap2\n      swap1\n      tag_123\n      jump\t// in\n    tag_456:\n      sub(shl(0xa0, 0x01), 0x01)\n        /* \"TestPool.sol\":6735:6773  UserWhitelisted(users[i], statuses[i]) */\n      and\n      0x995d2434d36c9bceaab42c56efe51e8ffe41fd11cabefd9e2cb83700d8b2035e\n        /* \"TestPool.sol\":6761:6769  statuses */\n      dup6\n      dup6\n        /* \"TestPool.sol\":6770:6771  i */\n      dup5\n        /* \"TestPool.sol\":6761:6772  statuses[i] */\n      dup2\n      dup2\n      lt\n      tag_458\n      jumpi\n      tag_458\n      tag_404\n      jump\t// in\n    tag_458:\n      swap1\n      pop\n      0x20\n      mul\n      add\n      0x20\n      dup2\n      add\n      swap1\n      tag_459\n      swap2\n      swap1\n      tag_91\n      jump\t// in\n    tag_459:\n        /* \"TestPool.sol\":6735:6773  UserWhitelisted(users[i], statuses[i]) */\n      mload(0x40)\n        /* \"#utility.yul\":470:484   */\n      swap1\n      iszero\n        /* \"#utility.yul\":463:485   */\n      iszero\n        /* \"#utility.yul\":445:486   */\n      dup2\n      mstore\n        /* \"#utility.yul\":433:435   */\n      0x20\n        /* \"#utility.yul\":418:436   */\n      add\n        /* \"TestPool.sol\":6735:6773  UserWhitelisted(users[i], statuses[i]) */\n      mload(0x40)\n      dup1\n      swap2\n      sub\n      swap1\n      log2\n        /* \"TestPool.sol\":6660:6663  i++ */\n      0x01\n      add\n        /* \"TestPool.sol\":6622:6784  for (uint256 i = 0; i < users.length; i++) {... */\n      jump(tag_445)\n    tag_446:\n      pop\n        /* \"TestPool.sol\":6428:6790  function setWhitelistBatch(address[] calldata users, bool[] calldata statuses) external onlyRole(ADMIN_ROLE) {... */\n      pop\n      pop\n      pop\n      pop\n      pop\n      jump\t// out\n        /* \"TestPool.sol\":16350:17009  function getUserStats(address user) external view returns (... */\n    tag_160:\n      sub(shl(0xa0, 0x01), 0x01)\n        /* \"TestPool.sol\":16582:16600  userDeposits[user] */\n      dup2\n      and\n        /* \"TestPool.sol\":16418:16438  uint256 depositedETH */\n      0x00\n        /* \"TestPool.sol\":16582:16600  userDeposits[user] */\n      swap1\n      dup2\n      mstore\n        /* \"TestPool.sol\":16582:16594  userDeposits */\n      0x05\n        /* \"TestPool.sol\":16582:16600  userDeposits[user] */\n      0x20\n      mstore\n      0x40\n      dup2\n      keccak256\n        /* \"TestPool.sol\":16418:16438  uint256 depositedETH */\n      dup2\n      swap1\n      dup2\n      swap1\n      dup2\n      swap1\n      dup2\n        /* \"TestPool.sol\":16610:16942  for (uint256 i = 0; i < deps.length; i++) {... */\n    tag_462:\n        /* \"TestPool.sol\":16634:16645  deps.length */\n      dup2\n      sload\n        /* \"TestPool.sol\":16630:16645  i < deps.length */\n      dup2\n      lt\n        /* \"TestPool.sol\":16610:16942  for (uint256 i = 0; i < deps.length; i++) {... */\n      iszero\n      tag_463\n      jumpi\n        /* \"TestPool.sol\":16666:16688  DepositInfo memory dep */\n      0x00\n        /* \"TestPool.sol\":16691:16695  deps */\n      dup3\n        /* \"TestPool.sol\":16696:16697  i */\n      dup3\n        /* \"TestPool.sol\":16691:16698  deps[i] */\n      dup2\n      sload\n      dup2\n      lt\n      tag_466\n      jumpi\n      tag_466\n      tag_404\n      jump\t// in\n    tag_466:\n      0x00\n      swap2\n      dup3\n      mstore\n      0x20\n      swap2\n      dup3\n      swap1\n      keccak256\n        /* \"TestPool.sol\":16666:16698  DepositInfo memory dep = deps[i] */\n      0x40\n      dup1\n      mload\n      0xa0\n      dup2\n      add\n      dup3\n      mstore\n        /* \"TestPool.sol\":16691:16698  deps[i] */\n      0x02\n      swap4\n      swap1\n      swap4\n      mul\n      swap1\n      swap2\n      add\n        /* \"TestPool.sol\":16666:16698  DepositInfo memory dep = deps[i] */\n      dup1\n      sload\n      sub(shl(0x60, 0x01), 0x01)\n      dup1\n      dup3\n      and\n      dup1\n      dup7\n      mstore\n      shl(0x60, 0x01)\n      dup4\n      div\n      swap1\n      swap2\n      and\n      swap6\n      dup6\n      add\n      swap6\n      swap1\n      swap6\n      mstore\n      shl(0xc0, 0x01)\n      swap1\n      div\n      0xffffffffffff\n      swap1\n      dup2\n      and\n      swap3\n      dup5\n      add\n      swap3\n      swap1\n      swap3\n      mstore\n      0x01\n      add\n      sload\n      swap1\n      dup2\n      and\n      0x60\n      dup4\n      add\n      mstore\n      shl(0x30, 0x01)\n      swap1\n      div\n      0xff\n      dup2\n      and\n      0x80\n      dup4\n      add\n      mstore\n      swap1\n      swap3\n      pop\n        /* \"TestPool.sol\":16748:16754  1 << 3 */\n      0x08\n        /* \"TestPool.sol\":16735:16755  dep.flags & (1 << 3) */\n      and\n        /* \"TestPool.sol\":16734:16761  (dep.flags & (1 << 3)) != 0 */\n      iszero\n      iszero\n      swap1\n        /* \"TestPool.sol\":16775:16801  depositedETH += dep.amount */\n      tag_468\n      swap1\n      dup10\n      tag_388\n      jump\t// in\n    tag_468:\n      swap8\n      pop\n        /* \"TestPool.sol\":16819:16842  _isWithdrawn(dep.flags) */\n      tag_469\n        /* \"TestPool.sol\":16832:16835  dep */\n      dup3\n        /* \"TestPool.sol\":16832:16841  dep.flags */\n      0x80\n      add\n      mload\n        /* \"TestPool.sol\":9084:9090  1 << 0 */\n      0x01\n        /* \"TestPool.sol\":9075:9091  flags & (1 << 0) */\n      and\n        /* \"TestPool.sol\":9074:9097  (flags & (1 << 0)) != 0 */\n      iszero\n      iszero\n      swap1\n        /* \"TestPool.sol\":8993:9104  function _isWithdrawn(uint8 flags) internal pure returns (bool) {... */\n      jump\n        /* \"TestPool.sol\":16819:16842  _isWithdrawn(dep.flags) */\n    tag_469:\n        /* \"TestPool.sol\":16815:16870  if (_isWithdrawn(dep.flags)) withdrawnETH += dep.amount */\n      iszero\n      tag_470\n      jumpi\n        /* \"TestPool.sol\":16860:16870  dep.amount */\n      dup2\n      mload\n        /* \"TestPool.sol\":16844:16870  withdrawnETH += dep.amount */\n      tag_471\n      swap1\n      sub(shl(0x60, 0x01), 0x01)\n      and\n      dup9\n      tag_388\n      jump\t// in\n    tag_471:\n      swap7\n      pop\n        /* \"TestPool.sol\":16815:16870  if (_isWithdrawn(dep.flags)) withdrawnETH += dep.amount */\n    tag_470:\n        /* \"TestPool.sol\":16888:16902  isReinvestment */\n      dup1\n        /* \"TestPool.sol\":16884:16931  if (isReinvestment) reinvestedETH += dep.amount */\n      iszero\n      tag_472\n      jumpi\n        /* \"TestPool.sol\":16921:16931  dep.amount */\n      dup2\n      mload\n        /* \"TestPool.sol\":16904:16931  reinvestedETH += dep.amount */\n      tag_473\n      swap1\n      sub(shl(0x60, 0x01), 0x01)\n      and\n      dup7\n      tag_388\n      jump\t// in\n    tag_473:\n      swap5\n      pop\n        /* \"TestPool.sol\":16884:16931  if (isReinvestment) reinvestedETH += dep.amount */\n    tag_472:\n      pop\n      pop\n        /* \"TestPool.sol\":16647:16650  i++ */\n      0x01\n      add\n        /* \"TestPool.sol\":16610:16942  for (uint256 i = 0; i < deps.length; i++) {... */\n      jump(tag_462)\n    tag_463:\n      pop\n      pop\n      sub(shl(0xa0, 0x01), 0x01)\n        /* \"TestPool.sol\":16973:17002  userClaimableUtilityETH[user] */\n      swap1\n      swap5\n      and\n      0x00\n      swap1\n      dup2\n      mstore\n        /* \"TestPool.sol\":16973:16996  userClaimableUtilityETH */\n      0x08\n        /* \"TestPool.sol\":16973:17002  userClaimableUtilityETH[user] */\n      0x20\n      mstore\n      0x40\n      swap1\n      keccak256\n      sload\n        /* \"TestPool.sol\":16350:17009  function getUserStats(address user) external view returns (... */\n      swap3\n      swap5\n      swap2\n      swap4\n      swap2\n      swap1\n      pop\n      jump\t// out\n        /* \"TestPool.sol\":6254:6422  function setWhitelist(address user, bool status) external onlyRole(ADMIN_ROLE) {... */\n    tag_171:\n      0x00\n      dup1\n      mload\n      0x20\n      data_cb864c43dd5d441bb6271f424f11befa622c032dfd374d226e26fbbdb782b8f8\n      dup4\n      codecopy\n      dup2\n      mload\n      swap2\n      mstore\n        /* \"@openzeppelin/contracts/access/AccessControl.sol\":2473:2489   */\n      tag_475\n        /* \"@openzeppelin/contracts/access/AccessControl.sol\":2484:2488   */\n      dup2\n        /* \"@openzeppelin/contracts/access/AccessControl.sol\":2473:2483   */\n      tag_359\n        /* \"@openzeppelin/contracts/access/AccessControl.sol\":2473:2489   */\n      jump\t// in\n    tag_475:\n      sub(shl(0xa0, 0x01), 0x01)\n        /* \"TestPool.sol\":6343:6362  isWhitelisted[user] */\n      dup4\n      and\n      0x00\n      dup2\n      dup2\n      mstore\n        /* \"TestPool.sol\":6343:6356  isWhitelisted */\n      0x06\n        /* \"TestPool.sol\":6343:6362  isWhitelisted[user] */\n      0x20\n      swap1\n      dup2\n      mstore\n      0x40\n      swap2\n      dup3\n      swap1\n      keccak256\n        /* \"TestPool.sol\":6343:6371  isWhitelisted[user] = status */\n      dup1\n      sload\n      not(0xff)\n      and\n      dup7\n      iszero\n      iszero\n      swap1\n      dup2\n      or\n      swap1\n      swap2\n      sstore\n        /* \"TestPool.sol\":6386:6415  UserWhitelisted(user, status) */\n      swap2\n      mload\n        /* \"#utility.yul\":445:486   */\n      swap2\n      dup3\n      mstore\n        /* \"TestPool.sol\":6386:6415  UserWhitelisted(user, status) */\n      0x995d2434d36c9bceaab42c56efe51e8ffe41fd11cabefd9e2cb83700d8b2035e\n      swap2\n        /* \"#utility.yul\":418:436   */\n      add\n        /* \"TestPool.sol\":6386:6415  UserWhitelisted(user, status) */\n      mload(0x40)\n      dup1\n      swap2\n      sub\n      swap1\n      log2\n        /* \"TestPool.sol\":6254:6422  function setWhitelist(address user, bool status) external onlyRole(ADMIN_ROLE) {... */\n      pop\n      pop\n      pop\n      jump\t// out\n        /* \"TestPool.sol\":13318:13564  function injectUtilityETH() external payable onlyRole(UTILITY_INJECTOR_ROLE) {... */\n    tag_197:\n        /* \"TestPool.sol\":1620:1654  keccak256(\"UTILITY_INJECTOR_ROLE\") */\n      0xf60566c40710959d8d30b6067ce3c53c757bec78eecb0e46b83c7f8194ffae37\n        /* \"@openzeppelin/contracts/access/AccessControl.sol\":2473:2489   */\n      tag_481\n        /* \"@openzeppelin/contracts/access/AccessControl.sol\":2484:2488   */\n      dup2\n        /* \"@openzeppelin/contracts/access/AccessControl.sol\":2473:2483   */\n      tag_359\n        /* \"@openzeppelin/contracts/access/AccessControl.sol\":2473:2489   */\n      jump\t// in\n    tag_481:\n        /* \"TestPool.sol\":13409:13418  msg.value */\n      callvalue\n        /* \"TestPool.sol\":13422:13423  0 */\n      0x00\n        /* \"TestPool.sol\":13409:13423  msg.value == 0 */\n      sub\n        /* \"TestPool.sol\":13405:13447  if (msg.value == 0) revert InvalidAmount() */\n      tag_483\n      jumpi\n        /* \"TestPool.sol\":13432:13447  InvalidAmount() */\n      mload(0x40)\n      shl(0xe1, 0x162908e3)\n      dup2\n      mstore\n      0x04\n      add\n      mload(0x40)\n      dup1\n      swap2\n      sub\n      swap1\n      revert\n        /* \"TestPool.sol\":13405:13447  if (msg.value == 0) revert InvalidAmount() */\n    tag_483:\n        /* \"TestPool.sol\":13476:13485  msg.value */\n      callvalue\n        /* \"TestPool.sol\":13457:13472  totalUtilityETH */\n      0x0e\n      0x00\n        /* \"TestPool.sol\":13457:13485  totalUtilityETH += msg.value */\n      dup3\n      dup3\n      sload\n      tag_484\n      swap2\n      swap1\n      tag_388\n      jump\t// in\n    tag_484:\n      swap1\n      swap2\n      sstore\n      pop\n        /* \"TestPool.sol\":13516:13528  _msgSender() */\n      tag_485\n      swap1\n      pop\n        /* \"TestPool.sol\":13516:13526  _msgSender */\n      tag_374\n        /* \"TestPool.sol\":13516:13528  _msgSender() */\n      jump\t// in\n    tag_485:\n      sub(shl(0xa0, 0x01), 0x01)\n        /* \"TestPool.sol\":13500:13557  UtilityInjected(_msgSender(), msg.value, block.timestamp) */\n      and\n      0xe1887f49a055375cbb879ad11f651acb6c9726240b290b3a8b37062f15a34b83\n        /* \"TestPool.sol\":13530:13539  msg.value */\n      callvalue\n        /* \"TestPool.sol\":13541:13556  block.timestamp */\n      timestamp\n        /* \"TestPool.sol\":13500:13557  UtilityInjected(_msgSender(), msg.value, block.timestamp) */\n      mload(0x40)\n      tag_486\n      swap3\n      swap2\n      swap1\n        /* \"#utility.yul\":10504:10529   */\n      swap2\n      dup3\n      mstore\n        /* \"#utility.yul\":10560:10562   */\n      0x20\n        /* \"#utility.yul\":10545:10563   */\n      dup3\n      add\n        /* \"#utility.yul\":10538:10572   */\n      mstore\n        /* \"#utility.yul\":10492:10494   */\n      0x40\n        /* \"#utility.yul\":10477:10495   */\n      add\n      swap1\n        /* \"#utility.yul\":10330:10578   */\n      jump\n        /* \"TestPool.sol\":13500:13557  UtilityInjected(_msgSender(), msg.value, block.timestamp) */\n    tag_486:\n      mload(0x40)\n      dup1\n      swap2\n      sub\n      swap1\n      log2\n        /* \"TestPool.sol\":13318:13564  function injectUtilityETH() external payable onlyRole(UTILITY_INJECTOR_ROLE) {... */\n      pop\n      jump\t// out\n        /* \"TestPool.sol\":5904:6126  function setPaused(bool _deposits, bool _withdrawals) external onlyRole(PAUSER_ROLE) {... */\n    tag_202:\n        /* \"TestPool.sol\":1470:1494  keccak256(\"PAUSER_ROLE\") */\n      0x65d7a28e3265b37a6474929f336521b332c1681b933f6cb9f3376673440d862a\n        /* \"@openzeppelin/contracts/access/AccessControl.sol\":2473:2489   */\n      tag_488\n        /* \"@openzeppelin/contracts/access/AccessControl.sol\":2484:2488   */\n      dup2\n        /* \"@openzeppelin/contracts/access/AccessControl.sol\":2473:2483   */\n      tag_359\n        /* \"@openzeppelin/contracts/access/AccessControl.sol\":2473:2489   */\n      jump\t// in\n    tag_488:\n        /* \"TestPool.sol\":5999:6013  pausedDeposits */\n      0x04\n        /* \"TestPool.sol\":5999:6025  pausedDeposits = _deposits */\n      dup1\n      sload\n        /* \"TestPool.sol\":6035:6067  pausedWithdrawals = _withdrawals */\n      dup4\n      iszero\n      iszero\n        /* \"TestPool.sol\":5999:6025  pausedDeposits = _deposits */\n      0x0100\n        /* \"TestPool.sol\":6035:6067  pausedWithdrawals = _withdrawals */\n      dup2\n      mul\n      not(0xff00)\n        /* \"TestPool.sol\":5999:6025  pausedDeposits = _deposits */\n      dup8\n      iszero\n      iszero\n        /* \"TestPool.sol\":6035:6067  pausedWithdrawals = _withdrawals */\n      swap1\n      dup2\n      and\n      not(0xffff)\n      swap1\n      swap5\n      and\n      swap4\n      swap1\n      swap4\n      or\n      or\n      swap1\n      swap3\n      sstore\n        /* \"TestPool.sol\":6082:6119  PauseChanged(_deposits, _withdrawals) */\n      0x40\n      dup1\n      mload\n        /* \"#utility.yul\":11217:11258   */\n      swap2\n      dup3\n      mstore\n        /* \"#utility.yul\":11289:11291   */\n      0x20\n        /* \"#utility.yul\":11274:11292   */\n      dup3\n      add\n        /* \"#utility.yul\":11267:11317   */\n      swap3\n      swap1\n      swap3\n      mstore\n        /* \"TestPool.sol\":6082:6119  PauseChanged(_deposits, _withdrawals) */\n      0xac1664632d6278432aa05a6afc0aa83e5ea08e8df9a1436736daa5d6283211c0\n      swap2\n        /* \"#utility.yul\":11190:11208   */\n      add\n        /* \"TestPool.sol\":6082:6119  PauseChanged(_deposits, _withdrawals) */\n      mload(0x40)\n      dup1\n      swap2\n      sub\n      swap1\n      log1\n        /* \"TestPool.sol\":5904:6126  function setPaused(bool _deposits, bool _withdrawals) external onlyRole(PAUSER_ROLE) {... */\n      pop\n      pop\n      pop\n      jump\t// out\n        /* \"TestPool.sol\":13570:13864  function assignUtilityETH(address user, uint256 amount) external onlyRole(ADMIN_ROLE) {... */\n    tag_211:\n      0x00\n      dup1\n      mload\n      0x20\n      data_cb864c43dd5d441bb6271f424f11befa622c032dfd374d226e26fbbdb782b8f8\n      dup4\n      codecopy\n      dup2\n      mload\n      swap2\n      mstore\n        /* \"@openzeppelin/contracts/access/AccessControl.sol\":2473:2489   */\n      tag_493\n        /* \"@openzeppelin/contracts/access/AccessControl.sol\":2484:2488   */\n      dup2\n        /* \"@openzeppelin/contracts/access/AccessControl.sol\":2473:2483   */\n      tag_359\n        /* \"@openzeppelin/contracts/access/AccessControl.sol\":2473:2489   */\n      jump\t// in\n    tag_493:\n        /* \"TestPool.sol\":13670:13676  amount */\n      dup2\n        /* \"TestPool.sol\":13680:13681  0 */\n      0x00\n        /* \"TestPool.sol\":13670:13681  amount == 0 */\n      sub\n        /* \"TestPool.sol\":13666:13705  if (amount == 0) revert InvalidAmount() */\n      tag_495\n      jumpi\n        /* \"TestPool.sol\":13690:13705  InvalidAmount() */\n      mload(0x40)\n      shl(0xe1, 0x162908e3)\n      dup2\n      mstore\n      0x04\n      add\n      mload(0x40)\n      dup1\n      swap2\n      sub\n      swap1\n      revert\n        /* \"TestPool.sol\":13666:13705  if (amount == 0) revert InvalidAmount() */\n    tag_495:\n        /* \"TestPool.sol\":13728:13743  totalUtilityETH */\n      sload(0x0e)\n        /* \"TestPool.sol\":13719:13725  amount */\n      dup3\n        /* \"TestPool.sol\":13719:13743  amount > totalUtilityETH */\n      gt\n        /* \"TestPool.sol\":13715:13773  if (amount > totalUtilityETH) revert ExceedsTotalUtility() */\n      iszero\n      tag_496\n      jumpi\n        /* \"TestPool.sol\":13752:13773  ExceedsTotalUtility() */\n      mload(0x40)\n      shl(0xe0, 0x2f37549d)\n      dup2\n      mstore\n      0x04\n      add\n      mload(0x40)\n      dup1\n      swap2\n      sub\n      swap1\n      revert\n        /* \"TestPool.sol\":13715:13773  if (amount > totalUtilityETH) revert ExceedsTotalUtility() */\n    tag_496:\n      sub(shl(0xa0, 0x01), 0x01)\n        /* \"TestPool.sol\":13783:13812  userClaimableUtilityETH[user] */\n      dup4\n      and\n      0x00\n      swap1\n      dup2\n      mstore\n        /* \"TestPool.sol\":13783:13806  userClaimableUtilityETH */\n      0x08\n        /* \"TestPool.sol\":13783:13812  userClaimableUtilityETH[user] */\n      0x20\n      mstore\n      0x40\n      dup2\n      keccak256\n        /* \"TestPool.sol\":13783:13822  userClaimableUtilityETH[user] += amount */\n      dup1\n      sload\n        /* \"TestPool.sol\":13816:13822  amount */\n      dup5\n      swap3\n        /* \"TestPool.sol\":13783:13812  userClaimableUtilityETH[user] */\n      swap1\n        /* \"TestPool.sol\":13783:13822  userClaimableUtilityETH[user] += amount */\n      tag_497\n      swap1\n        /* \"TestPool.sol\":13816:13822  amount */\n      dup5\n      swap1\n        /* \"TestPool.sol\":13783:13822  userClaimableUtilityETH[user] += amount */\n      tag_388\n      jump\t// in\n    tag_497:\n      swap3\n      pop\n      pop\n      dup2\n      swap1\n      sstore\n      pop\n        /* \"TestPool.sol\":13851:13857  amount */\n      dup2\n        /* \"TestPool.sol\":13832:13847  totalUtilityETH */\n      0x0e\n      0x00\n        /* \"TestPool.sol\":13832:13857  totalUtilityETH -= amount */\n      dup3\n      dup3\n      sload\n      tag_498\n      swap2\n      swap1\n      tag_372\n      jump\t// in\n    tag_498:\n      swap1\n      swap2\n      sstore\n      pop\n      pop\n      pop\n      pop\n      pop\n        /* \"TestPool.sol\":13570:13864  function assignUtilityETH(address user, uint256 amount) external onlyRole(ADMIN_ROLE) {... */\n      jump\t// out\n        /* \"TestPool.sol\":10434:12126  function batchWithdraw(uint256[] calldata depositIndices) external nonReentrant whenWithdrawalsNotPaused {... */\n    tag_216:\n        /* \"@openzeppelin/contracts/utils/ReentrancyGuard.sol\":2500:2521   */\n      tag_500\n        /* \"@openzeppelin/contracts/utils/ReentrancyGuard.sol\":2500:2519   */\n      tag_367\n        /* \"@openzeppelin/contracts/utils/ReentrancyGuard.sol\":2500:2521   */\n      jump\t// in\n    tag_500:\n        /* \"TestPool.sol\":4242:4259  pausedWithdrawals */\n      sload(0x04)\n      0x0100\n      swap1\n      div\n      0xff\n      and\n        /* \"TestPool.sol\":4238:4287  if (pausedWithdrawals) revert WithdrawalsPaused() */\n      iszero\n      tag_502\n      jumpi\n        /* \"TestPool.sol\":4268:4287  WithdrawalsPaused() */\n      mload(0x40)\n      shl(0xe0, 0x6022a9e7)\n      dup2\n      mstore\n      0x04\n      add\n      mload(0x40)\n      dup1\n      swap2\n      sub\n      swap1\n      revert\n        /* \"TestPool.sol\":4238:4287  if (pausedWithdrawals) revert WithdrawalsPaused() */\n    tag_502:\n        /* \"TestPool.sol\":10549:10561  address user */\n      0x00\n        /* \"TestPool.sol\":10564:10576  _msgSender() */\n      tag_504\n        /* \"TestPool.sol\":10564:10574  _msgSender */\n      tag_374\n        /* \"TestPool.sol\":10564:10576  _msgSender() */\n      jump\t// in\n    tag_504:\n        /* \"TestPool.sol\":10549:10576  address user = _msgSender() */\n      swap1\n      pop\n        /* \"TestPool.sol\":10586:10611  uint256 totalPrincipalETH */\n      0x00\n        /* \"TestPool.sol\":10621:10642  uint256 totalYieldETH */\n      dup1\n        /* \"TestPool.sol\":10658:10667  uint256 i */\n      0x00\n        /* \"TestPool.sol\":10653:11569  for (uint256 i = 0; i < depositIndices.length; i++) {... */\n    tag_505:\n        /* \"TestPool.sol\":10673:10698  i < depositIndices.length */\n      dup5\n      dup2\n      lt\n        /* \"TestPool.sol\":10653:11569  for (uint256 i = 0; i < depositIndices.length; i++) {... */\n      iszero\n      tag_506\n      jumpi\n        /* \"TestPool.sol\":10719:10732  uint256 index */\n      0x00\n        /* \"TestPool.sol\":10735:10749  depositIndices */\n      dup7\n      dup7\n        /* \"TestPool.sol\":10750:10751  i */\n      dup4\n        /* \"TestPool.sol\":10735:10752  depositIndices[i] */\n      dup2\n      dup2\n      lt\n      tag_509\n      jumpi\n      tag_509\n      tag_404\n      jump\t// in\n    tag_509:\n      swap1\n      pop\n      0x20\n      mul\n      add\n      calldataload\n        /* \"TestPool.sol\":10719:10752  uint256 index = depositIndices[i] */\n      swap1\n      pop\n        /* \"TestPool.sol\":10766:10789  DepositInfo storage dep */\n      0x00\n        /* \"TestPool.sol\":10792:10804  userDeposits */\n      0x05\n        /* \"TestPool.sol\":10792:10810  userDeposits[user] */\n      0x00\n        /* \"TestPool.sol\":10805:10809  user */\n      dup8\n      sub(shl(0xa0, 0x01), 0x01)\n        /* \"TestPool.sol\":10792:10810  userDeposits[user] */\n      and\n      sub(shl(0xa0, 0x01), 0x01)\n      and\n      dup2\n      mstore\n      0x20\n      add\n      swap1\n      dup2\n      mstore\n      0x20\n      add\n      0x00\n      keccak256\n        /* \"TestPool.sol\":10811:10816  index */\n      dup3\n        /* \"TestPool.sol\":10792:10817  userDeposits[user][index] */\n      dup2\n      sload\n      dup2\n      lt\n      tag_511\n      jumpi\n      tag_511\n      tag_404\n      jump\t// in\n    tag_511:\n      0x00\n      swap2\n      dup3\n      mstore\n      0x20\n      swap1\n      swap2\n      keccak256\n        /* \"TestPool.sol\":10849:10858  dep.flags */\n      0x01\n        /* \"TestPool.sol\":10792:10817  userDeposits[user][index] */\n      0x02\n      swap1\n      swap3\n      mul\n      add\n        /* \"TestPool.sol\":10849:10858  dep.flags */\n      dup2\n      dup2\n      add\n      sload\n        /* \"TestPool.sol\":10792:10817  userDeposits[user][index] */\n      swap1\n      swap3\n      pop\n      shl(0x30, 0x01)\n        /* \"TestPool.sol\":10849:10858  dep.flags */\n      swap1\n      div\n        /* \"TestPool.sol\":9075:9091  flags & (1 << 0) */\n      and\n        /* \"TestPool.sol\":9074:9097  (flags & (1 << 0)) != 0 */\n      iszero\n        /* \"TestPool.sol\":10832:10886  if (_isWithdrawn(dep.flags)) revert AlreadyWithdrawn() */\n      tag_514\n      jumpi\n        /* \"TestPool.sol\":10868:10886  AlreadyWithdrawn() */\n      mload(0x40)\n      shl(0xe0, 0x6507689f)\n      dup2\n      mstore\n      0x04\n      add\n      mload(0x40)\n      dup1\n      swap2\n      sub\n      swap1\n      revert\n        /* \"TestPool.sol\":10832:10886  if (_isWithdrawn(dep.flags)) revert AlreadyWithdrawn() */\n    tag_514:\n        /* \"TestPool.sol\":10955:10967  lockupPeriod */\n      sload(0x02)\n        /* \"TestPool.sol\":10939:10952  dep.timestamp */\n      dup2\n      sload\n        /* \"TestPool.sol\":10939:10967  dep.timestamp + lockupPeriod */\n      tag_515\n      swap2\n        /* \"TestPool.sol\":10955:10967  lockupPeriod */\n      swap1\n      shl(0xc0, 0x01)\n        /* \"TestPool.sol\":10939:10952  dep.timestamp */\n      swap1\n      div\n      0xffffffffffff\n      and\n        /* \"TestPool.sol\":10939:10967  dep.timestamp + lockupPeriod */\n      tag_388\n      jump\t// in\n    tag_515:\n        /* \"TestPool.sol\":10921:10936  block.timestamp */\n      timestamp\n        /* \"TestPool.sol\":10921:10967  block.timestamp < dep.timestamp + lockupPeriod */\n      lt\n        /* \"TestPool.sol\":10921:11017  block.timestamp < dep.timestamp + lockupPeriod &&... */\n      dup1\n      iszero\n      tag_516\n      jumpi\n      pop\n        /* \"TestPool.sol\":11007:11016  dep.flags */\n      0x01\n      dup2\n      add\n      sload\n      shl(0x30, 0x01)\n      swap1\n      div\n        /* \"TestPool.sol\":9207:9213  1 << 1 */\n      0x02\n        /* \"TestPool.sol\":9198:9214  flags & (1 << 1) */\n      and\n        /* \"TestPool.sol\":9197:9220  (flags & (1 << 1)) != 0 */\n      iszero\n        /* \"TestPool.sol\":10921:11017  block.timestamp < dep.timestamp + lockupPeriod &&... */\n    tag_516:\n        /* \"TestPool.sol\":10921:11097  block.timestamp < dep.timestamp + lockupPeriod &&... */\n      dup1\n      iszero\n      tag_518\n      jumpi\n      pop\n        /* \"TestPool.sol\":11039:11063  globalLiquidationEnabled */\n      sload(0x04)\n      0x01000000\n      swap1\n      div\n      0xff\n      and\n        /* \"TestPool.sol\":11039:11096  globalLiquidationEnabled && _isFullyRedeemable(dep.flags) */\n      dup1\n      iszero\n      tag_520\n      jumpi\n      pop\n        /* \"TestPool.sol\":11086:11095  dep.flags */\n      0x01\n      dup2\n      add\n      sload\n      shl(0x30, 0x01)\n      swap1\n      div\n        /* \"TestPool.sol\":9330:9336  1 << 2 */\n      0x04\n        /* \"TestPool.sol\":9321:9337  flags & (1 << 2) */\n      and\n        /* \"TestPool.sol\":9320:9343  (flags & (1 << 2)) != 0 */\n      iszero\n      iszero\n        /* \"TestPool.sol\":11067:11096  _isFullyRedeemable(dep.flags) */\n    tag_520:\n        /* \"TestPool.sol\":11037:11097  !(globalLiquidationEnabled && _isFullyRedeemable(dep.flags)) */\n      iszero\n        /* \"TestPool.sol\":10921:11097  block.timestamp < dep.timestamp + lockupPeriod &&... */\n    tag_518:\n        /* \"TestPool.sol\":10900:11167  if (... */\n      iszero\n      tag_521\n      jumpi\n        /* \"TestPool.sol\":11137:11152  DepositLocked() */\n      mload(0x40)\n      shl(0xe0, 0xf38b9b5b)\n      dup2\n      mstore\n      0x04\n      add\n      mload(0x40)\n      dup1\n      swap2\n      sub\n      swap1\n      revert\n        /* \"TestPool.sol\":10900:11167  if (... */\n    tag_521:\n        /* \"TestPool.sol\":11193:11202  dep.flags */\n      0x01\n      dup2\n      dup2\n      add\n      dup1\n      sload\n      not(0xffffffffffffff)\n        /* \"TestPool.sol\":11248:11289  dep.withdrawnAt = uint48(block.timestamp) */\n      dup2\n      and\n      shl(0x30, 0x01)\n        /* \"TestPool.sol\":11193:11202  dep.flags */\n      swap2\n      dup3\n      swap1\n      div\n      0xff\n      and\n        /* \"TestPool.sol\":11193:11213  dep.flags | (1 << 0) */\n      swap1\n      swap4\n      or\n        /* \"TestPool.sol\":11181:11213  dep.flags = dep.flags | (1 << 0) */\n      mul\n      not(0xffffffffffff)\n        /* \"TestPool.sol\":11248:11289  dep.withdrawnAt = uint48(block.timestamp) */\n      and\n      swap2\n      swap1\n      swap2\n      or\n        /* \"TestPool.sol\":11273:11288  block.timestamp */\n      timestamp\n        /* \"TestPool.sol\":11248:11289  dep.withdrawnAt = uint48(block.timestamp) */\n      0xffffffffffff\n      and\n      or\n      swap1\n      sstore\n        /* \"TestPool.sol\":11323:11333  dep.amount */\n      dup1\n      sload\n      sub(shl(0x60, 0x01), 0x01)\n      dup1\n      dup3\n      and\n      swap2\n      shl(0x60, 0x01)\n        /* \"TestPool.sol\":11366:11383  dep.yieldReceived */\n      swap1\n      div\n      and\n        /* \"TestPool.sol\":11398:11428  totalPrincipalETH += principal */\n      tag_522\n        /* \"TestPool.sol\":11323:11333  dep.amount */\n      dup3\n        /* \"TestPool.sol\":11398:11428  totalPrincipalETH += principal */\n      dup9\n      tag_388\n      jump\t// in\n    tag_522:\n      swap7\n      pop\n        /* \"TestPool.sol\":11442:11467  totalYieldETH += yieldAmt */\n      tag_523\n        /* \"TestPool.sol\":11459:11467  yieldAmt */\n      dup2\n        /* \"TestPool.sol\":11442:11467  totalYieldETH += yieldAmt */\n      dup8\n      tag_388\n      jump\t// in\n    tag_523:\n        /* \"TestPool.sol\":11499:11558  Withdraw(user, principal, yieldAmt, block.timestamp, index) */\n      0x40\n      dup1\n      mload\n        /* \"#utility.yul\":5663:5688   */\n      dup5\n      dup2\n      mstore\n        /* \"#utility.yul\":5719:5721   */\n      0x20\n        /* \"#utility.yul\":5704:5722   */\n      dup2\n      add\n        /* \"#utility.yul\":5697:5731   */\n      dup5\n      swap1\n      mstore\n        /* \"TestPool.sol\":11535:11550  block.timestamp */\n      timestamp\n        /* \"#utility.yul\":5747:5765   */\n      dup2\n      dup4\n      add\n        /* \"#utility.yul\":5740:5774   */\n      mstore\n        /* \"#utility.yul\":5805:5807   */\n      0x60\n        /* \"#utility.yul\":5790:5808   */\n      dup2\n      add\n        /* \"#utility.yul\":5783:5817   */\n      dup8\n      swap1\n      mstore\n        /* \"TestPool.sol\":11499:11558  Withdraw(user, principal, yieldAmt, block.timestamp, index) */\n      swap1\n      mload\n        /* \"TestPool.sol\":11442:11467  totalYieldETH += yieldAmt */\n      swap2\n      swap8\n      pop\n      sub(shl(0xa0, 0x01), 0x01)\n        /* \"TestPool.sol\":11499:11558  Withdraw(user, principal, yieldAmt, block.timestamp, index) */\n      dup11\n      and\n      swap2\n      0xe08737ac48a1dab4b1a46c7dc9398bd5bfc6d7ad6fabb7cd8caa254de14def35\n      swap2\n      dup2\n      swap1\n      sub\n        /* \"#utility.yul\":5650:5653   */\n      0x80\n        /* \"TestPool.sol\":11499:11558  Withdraw(user, principal, yieldAmt, block.timestamp, index) */\n      add\n      swap1\n      log2\n      pop\n      pop\n        /* \"TestPool.sol\":10700:10703  i++ */\n      0x01\n      swap1\n      swap3\n      add\n      swap2\n      pop\n        /* \"TestPool.sol\":10653:11569  for (uint256 i = 0; i < depositIndices.length; i++) {... */\n      tag_505\n      swap1\n      pop\n      jump\n    tag_506:\n      pop\n        /* \"TestPool.sol\":11583:11604  totalPrincipalETH > 0 */\n      dup2\n      iszero\n        /* \"TestPool.sol\":11579:11669  if (totalPrincipalETH > 0) {... */\n      tag_525\n      jumpi\n        /* \"TestPool.sol\":11641:11658  totalPrincipalETH */\n      dup2\n        /* \"TestPool.sol\":11620:11637  totalWithdrawnETH */\n      0x0d\n      0x00\n        /* \"TestPool.sol\":11620:11658  totalWithdrawnETH += totalPrincipalETH */\n      dup3\n      dup3\n      sload\n      tag_526\n      swap2\n      swap1\n      tag_388\n      jump\t// in\n    tag_526:\n      swap1\n      swap2\n      sstore\n      pop\n      pop\n        /* \"TestPool.sol\":11579:11669  if (totalPrincipalETH > 0) {... */\n    tag_525:\n      sub(shl(0xa0, 0x01), 0x01)\n        /* \"TestPool.sol\":11684:11702  hasWithdrawn[user] */\n      dup4\n      and\n      0x00\n      swap1\n      dup2\n      mstore\n        /* \"TestPool.sol\":11684:11696  hasWithdrawn */\n      0x07\n        /* \"TestPool.sol\":11684:11702  hasWithdrawn[user] */\n      0x20\n      mstore\n      0x40\n      swap1\n      keccak256\n      sload\n      0xff\n      and\n        /* \"TestPool.sol\":11683:11702  !hasWithdrawn[user] */\n      iszero\n        /* \"TestPool.sol\":11683:11731  !hasWithdrawn[user] && depositIndices.length > 0 */\n      dup1\n      iszero\n      tag_527\n      jumpi\n      pop\n        /* \"TestPool.sol\":11706:11731  depositIndices.length > 0 */\n      dup4\n      iszero\n      iszero\n        /* \"TestPool.sol\":11683:11731  !hasWithdrawn[user] && depositIndices.length > 0 */\n    tag_527:\n        /* \"TestPool.sol\":11679:11822  if (!hasWithdrawn[user] && depositIndices.length > 0) {... */\n      iszero\n      tag_528\n      jumpi\n        /* \"TestPool.sol\":11747:11761  withdrawnUsers */\n      0x0b\n        /* \"TestPool.sol\":11747:11772  withdrawnUsers.push(user) */\n      dup1\n      sload\n      0x01\n      dup1\n      dup3\n      add\n      swap1\n      swap3\n      sstore\n      0x0175b7a638427703f0dbe7bb9bbf987a2551717b34e79f33b5b1008d1fa01db9\n      add\n      dup1\n      sload\n      not(0xffffffffffffffffffffffffffffffffffffffff)\n      and\n      sub(shl(0xa0, 0x01), 0x01)\n      dup7\n      and\n      swap1\n      dup2\n      or\n      swap1\n      swap2\n      sstore\n      0x00\n        /* \"TestPool.sol\":11786:11804  hasWithdrawn[user] */\n      swap1\n      dup2\n      mstore\n        /* \"TestPool.sol\":11786:11798  hasWithdrawn */\n      0x07\n        /* \"TestPool.sol\":11747:11772  withdrawnUsers.push(user) */\n      0x20\n        /* \"TestPool.sol\":11786:11804  hasWithdrawn[user] */\n      mstore\n      0x40\n      swap1\n      keccak256\n        /* \"TestPool.sol\":11786:11811  hasWithdrawn[user] = true */\n      dup1\n      sload\n      not(0xff)\n      and\n      swap1\n      swap2\n      or\n      swap1\n      sstore\n        /* \"TestPool.sol\":11679:11822  if (!hasWithdrawn[user] && depositIndices.length > 0) {... */\n    tag_528:\n        /* \"TestPool.sol\":11872:11873  0 */\n      0x00\n        /* \"TestPool.sol\":11836:11869  totalPrincipalETH + totalYieldETH */\n      tag_530\n        /* \"TestPool.sol\":11856:11869  totalYieldETH */\n      dup3\n        /* \"TestPool.sol\":11836:11853  totalPrincipalETH */\n      dup5\n        /* \"TestPool.sol\":11836:11869  totalPrincipalETH + totalYieldETH */\n      tag_388\n      jump\t// in\n    tag_530:\n        /* \"TestPool.sol\":11836:11873  totalPrincipalETH + totalYieldETH > 0 */\n      gt\n        /* \"TestPool.sol\":11832:12120  if (totalPrincipalETH + totalYieldETH > 0) {... */\n      iszero\n      tag_531\n      jumpi\n        /* \"TestPool.sol\":11890:11897  bool ok */\n      0x00\n      sub(shl(0xa0, 0x01), 0x01)\n        /* \"TestPool.sol\":11903:11912  user.call */\n      dup5\n      and\n        /* \"TestPool.sol\":11920:11953  totalPrincipalETH + totalYieldETH */\n      tag_532\n        /* \"TestPool.sol\":11940:11953  totalYieldETH */\n      dup4\n        /* \"TestPool.sol\":11920:11937  totalPrincipalETH */\n      dup6\n        /* \"TestPool.sol\":11920:11953  totalPrincipalETH + totalYieldETH */\n      tag_388\n      jump\t// in\n    tag_532:\n        /* \"TestPool.sol\":11903:11958  user.call{value: totalPrincipalETH + totalYieldETH}(\"\") */\n      mload(0x40)\n      0x00\n      dup2\n      dup2\n      dup2\n      dup6\n      dup8\n      gas\n      call\n      swap3\n      pop\n      pop\n      pop\n      returndatasize\n      dup1\n      0x00\n      dup2\n      eq\n      tag_536\n      jumpi\n      mload(0x40)\n      swap2\n      pop\n      and(add(returndatasize, 0x3f), not(0x1f))\n      dup3\n      add\n      0x40\n      mstore\n      returndatasize\n      dup3\n      mstore\n      returndatasize\n      0x00\n      0x20\n      dup5\n      add\n      returndatacopy\n      jump(tag_535)\n    tag_536:\n      0x60\n      swap2\n      pop\n    tag_535:\n      pop\n        /* \"TestPool.sol\":11889:11958  (bool ok, ) = user.call{value: totalPrincipalETH + totalYieldETH}(\"\") */\n      pop\n      swap1\n      pop\n        /* \"TestPool.sol\":11977:11979  ok */\n      dup1\n        /* \"TestPool.sol\":11972:12004  if (!ok) revert TransferFailed() */\n      tag_537\n      jumpi\n        /* \"TestPool.sol\":11988:12004  TransferFailed() */\n      mload(0x40)\n      shl(0xe3, 0x12171d83)\n      dup2\n      mstore\n      0x04\n      add\n      mload(0x40)\n      dup1\n      swap2\n      sub\n      swap1\n      revert\n        /* \"TestPool.sol\":11972:12004  if (!ok) revert TransferFailed() */\n    tag_537:\n        /* \"TestPool.sol\":12037:12041  user */\n      dup4\n      sub(shl(0xa0, 0x01), 0x01)\n        /* \"TestPool.sol\":12023:12109  BatchWithdraw(user, depositIndices, totalPrincipalETH, totalYieldETH, block.timestamp) */\n      and\n      0xdeea64db396f60259ae2fd8bff7020ea68e8e86e8d36d50d37ab00402ad3a5\n        /* \"TestPool.sol\":12043:12057  depositIndices */\n      dup8\n      dup8\n        /* \"TestPool.sol\":12059:12076  totalPrincipalETH */\n      dup7\n        /* \"TestPool.sol\":12078:12091  totalYieldETH */\n      dup7\n        /* \"TestPool.sol\":12093:12108  block.timestamp */\n      timestamp\n        /* \"TestPool.sol\":12023:12109  BatchWithdraw(user, depositIndices, totalPrincipalETH, totalYieldETH, block.timestamp) */\n      mload(0x40)\n      tag_538\n      swap6\n      swap5\n      swap4\n      swap3\n      swap2\n      swap1\n      tag_539\n      jump\t// in\n    tag_538:\n      mload(0x40)\n      dup1\n      swap2\n      sub\n      swap1\n      log2\n        /* \"TestPool.sol\":11875:12120  {... */\n      pop\n        /* \"TestPool.sol\":11832:12120  if (totalPrincipalETH + totalYieldETH > 0) {... */\n    tag_531:\n        /* \"TestPool.sol\":10539:12126  {... */\n      pop\n      pop\n      pop\n        /* \"@openzeppelin/contracts/utils/ReentrancyGuard.sol\":2542:2562   */\n      tag_540\n        /* \"@openzeppelin/contracts/utils/ReentrancyGuard.sol\":1857:1858   */\n      0x01\n        /* \"@openzeppelin/contracts/utils/ReentrancyGuard.sol\":3068:3089   */\n      dup1\n      sstore\n        /* \"@openzeppelin/contracts/utils/ReentrancyGuard.sol\":2888:3096   */\n      jump\n        /* \"@openzeppelin/contracts/utils/ReentrancyGuard.sol\":2542:2562   */\n    tag_540:\n        /* \"TestPool.sol\":10434:12126  function batchWithdraw(uint256[] calldata depositIndices) external nonReentrant whenWithdrawalsNotPaused {... */\n      pop\n      pop\n      jump\t// out\n        /* \"TestPool.sol\":5762:5898  function setMaxCap(uint256 newCap) external onlyRole(ADMIN_ROLE) {... */\n    tag_224:\n      0x00\n      dup1\n      mload\n      0x20\n      data_cb864c43dd5d441bb6271f424f11befa622c032dfd374d226e26fbbdb782b8f8\n      dup4\n      codecopy\n      dup2\n      mload\n      swap2\n      mstore\n        /* \"@openzeppelin/contracts/access/AccessControl.sol\":2473:2489   */\n      tag_542\n        /* \"@openzeppelin/contracts/access/AccessControl.sol\":2484:2488   */\n      dup2\n        /* \"@openzeppelin/contracts/access/AccessControl.sol\":2473:2483   */\n      tag_359\n        /* \"@openzeppelin/contracts/access/AccessControl.sol\":2473:2489   */\n      jump\t// in\n    tag_542:\n        /* \"TestPool.sol\":5837:5846  maxCapETH */\n      0x03\n        /* \"TestPool.sol\":5837:5855  maxCapETH = newCap */\n      dup3\n      swap1\n      sstore\n        /* \"TestPool.sol\":5870:5891  MaxCapChanged(newCap) */\n      mload(0x40)\n        /* \"#utility.yul\":2053:2078   */\n      dup3\n      dup2\n      mstore\n        /* \"TestPool.sol\":5870:5891  MaxCapChanged(newCap) */\n      0x1e6516523c603edd47bf2f9e4d2c46464a7b7588009b39bc0d190e86d0eb0747\n      swap1\n        /* \"#utility.yul\":2041:2043   */\n      0x20\n        /* \"#utility.yul\":2026:2044   */\n      add\n        /* \"TestPool.sol\":5870:5891  MaxCapChanged(newCap) */\n    tag_544:\n      mload(0x40)\n      dup1\n      swap2\n      sub\n      swap1\n      log1\n        /* \"TestPool.sol\":5762:5898  function setMaxCap(uint256 newCap) external onlyRole(ADMIN_ROLE) {... */\n      pop\n      pop\n      jump\t// out\n        /* \"TestPool.sol\":12168:12706  function unlockDepositsForUser(address user, uint256[] calldata depositIndices) external onlyRole(UNLOCKER_ROLE) {... */\n    tag_234:\n        /* \"TestPool.sol\":1540:1566  keccak256(\"UNLOCKER_ROLE\") */\n      0xc806897caf4fd5068191157e44d3988e43139a37e0b97b6793e1ed1184140604\n        /* \"@openzeppelin/contracts/access/AccessControl.sol\":2473:2489   */\n      tag_547\n        /* \"@openzeppelin/contracts/access/AccessControl.sol\":2484:2488   */\n      dup2\n        /* \"@openzeppelin/contracts/access/AccessControl.sol\":2473:2483   */\n      tag_359\n        /* \"@openzeppelin/contracts/access/AccessControl.sol\":2473:2489   */\n      jump\t// in\n    tag_547:\n        /* \"TestPool.sol\":12296:12305  uint256 i */\n      0x00\n        /* \"TestPool.sol\":12291:12647  for (uint256 i = 0; i < depositIndices.length; i++) {... */\n    tag_549:\n        /* \"TestPool.sol\":12311:12336  i < depositIndices.length */\n      dup3\n      dup2\n      lt\n        /* \"TestPool.sol\":12291:12647  for (uint256 i = 0; i < depositIndices.length; i++) {... */\n      iszero\n      tag_550\n      jumpi\n      sub(shl(0xa0, 0x01), 0x01)\n        /* \"TestPool.sol\":12383:12401  userDeposits[user] */\n      dup6\n      and\n        /* \"TestPool.sol\":12357:12380  DepositInfo storage dep */\n      0x00\n        /* \"TestPool.sol\":12383:12401  userDeposits[user] */\n      swap1\n      dup2\n      mstore\n        /* \"TestPool.sol\":12383:12395  userDeposits */\n      0x05\n        /* \"TestPool.sol\":12383:12401  userDeposits[user] */\n      0x20\n      mstore\n      0x40\n      dup2\n      keccak256\n        /* \"TestPool.sol\":12402:12416  depositIndices */\n      dup6\n      dup6\n        /* \"TestPool.sol\":12417:12418  i */\n      dup5\n        /* \"TestPool.sol\":12402:12419  depositIndices[i] */\n      dup2\n      dup2\n      lt\n      tag_553\n      jumpi\n      tag_553\n      tag_404\n      jump\t// in\n    tag_553:\n      swap1\n      pop\n      0x20\n      mul\n      add\n      calldataload\n        /* \"TestPool.sol\":12383:12420  userDeposits[user][depositIndices[i]] */\n      dup2\n      sload\n      dup2\n      lt\n      tag_555\n      jumpi\n      tag_555\n      tag_404\n      jump\t// in\n    tag_555:\n      0x00\n      swap2\n      dup3\n      mstore\n      0x20\n      swap1\n      swap2\n      keccak256\n        /* \"TestPool.sol\":12451:12460  dep.flags */\n      0x01\n        /* \"TestPool.sol\":12383:12420  userDeposits[user][depositIndices[i]] */\n      0x02\n      swap1\n      swap3\n      mul\n      add\n        /* \"TestPool.sol\":12451:12460  dep.flags */\n      dup2\n      dup2\n      add\n      sload\n        /* \"TestPool.sol\":12383:12420  userDeposits[user][depositIndices[i]] */\n      swap1\n      swap3\n      pop\n      shl(0x30, 0x01)\n        /* \"TestPool.sol\":12451:12460  dep.flags */\n      swap1\n      div\n        /* \"TestPool.sol\":9075:9091  flags & (1 << 0) */\n      and\n        /* \"TestPool.sol\":9074:9097  (flags & (1 << 0)) != 0 */\n      iszero\n      iszero\n        /* \"TestPool.sol\":12438:12494  _isWithdrawn(dep.flags) || _isUnlockedByAdmin(dep.flags) */\n      dup1\n      tag_559\n      jumpi\n      pop\n        /* \"TestPool.sol\":12484:12493  dep.flags */\n      0x01\n      dup2\n      add\n      sload\n      shl(0x30, 0x01)\n      swap1\n      div\n        /* \"TestPool.sol\":9207:9213  1 << 1 */\n      0x02\n        /* \"TestPool.sol\":9198:9214  flags & (1 << 1) */\n      and\n        /* \"TestPool.sol\":9197:9220  (flags & (1 << 1)) != 0 */\n      iszero\n      iszero\n        /* \"TestPool.sol\":12465:12494  _isUnlockedByAdmin(dep.flags) */\n    tag_559:\n        /* \"TestPool.sol\":12434:12564  if (_isWithdrawn(dep.flags) || _isUnlockedByAdmin(dep.flags)) {... */\n      iszero\n      tag_560\n      jumpi\n        /* \"TestPool.sol\":12521:12549  AlreadyUnlockedOrWithdrawn() */\n      mload(0x40)\n      shl(0xe1, 0x181821bd)\n      dup2\n      mstore\n      0x04\n      add\n      mload(0x40)\n      dup1\n      swap2\n      sub\n      swap1\n      revert\n        /* \"TestPool.sol\":12434:12564  if (_isWithdrawn(dep.flags) || _isUnlockedByAdmin(dep.flags)) {... */\n    tag_560:\n        /* \"TestPool.sol\":12589:12598  dep.flags */\n      0x01\n      swap1\n      dup2\n      add\n      dup1\n      sload\n      not(0xff000000000000)\n        /* \"TestPool.sol\":12577:12609  dep.flags = dep.flags | (1 << 1) */\n      dup2\n      and\n      shl(0x30, 0x01)\n        /* \"TestPool.sol\":12589:12598  dep.flags */\n      swap2\n      dup3\n      swap1\n      div\n      0xff\n      and\n        /* \"TestPool.sol\":12602:12608  1 << 1 */\n      0x02\n        /* \"TestPool.sol\":12589:12609  dep.flags | (1 << 1) */\n      or\n        /* \"TestPool.sol\":12577:12609  dep.flags = dep.flags | (1 << 1) */\n      swap1\n      swap2\n      mul\n      or\n      swap1\n      sstore\n        /* \"TestPool.sol\":12338:12341  i++ */\n      add\n        /* \"TestPool.sol\":12291:12647  for (uint256 i = 0; i < depositIndices.length; i++) {... */\n      jump(tag_549)\n    tag_550:\n      pop\n        /* \"TestPool.sol\":12678:12682  user */\n      dup4\n      sub(shl(0xa0, 0x01), 0x01)\n        /* \"TestPool.sol\":12661:12699  DepositsUnlocked(user, depositIndices) */\n      and\n      0x8b655a966f162e1d3686ea25cd61682331984ab5662b451deff96f12d716f45b\n        /* \"TestPool.sol\":12684:12698  depositIndices */\n      dup5\n      dup5\n        /* \"TestPool.sol\":12661:12699  DepositsUnlocked(user, depositIndices) */\n      mload(0x40)\n      tag_561\n      swap3\n      swap2\n      swap1\n      tag_562\n      jump\t// in\n    tag_561:\n      mload(0x40)\n      dup1\n      swap2\n      sub\n      swap1\n      log2\n        /* \"TestPool.sol\":12168:12706  function unlockDepositsForUser(address user, uint256[] calldata depositIndices) external onlyRole(UNLOCKER_ROLE) {... */\n      pop\n      pop\n      pop\n      pop\n      jump\t// out\n        /* \"TestPool.sol\":6796:7053  function setUtilityAddress(address newUtilityAddress) external onlyRole(ADMIN_ROLE) {... */\n    tag_251:\n      0x00\n      dup1\n      mload\n      0x20\n      data_cb864c43dd5d441bb6271f424f11befa622c032dfd374d226e26fbbdb782b8f8\n      dup4\n      codecopy\n      dup2\n      mload\n      swap2\n      mstore\n        /* \"@openzeppelin/contracts/access/AccessControl.sol\":2473:2489   */\n      tag_564\n        /* \"@openzeppelin/contracts/access/AccessControl.sol\":2484:2488   */\n      dup2\n        /* \"@openzeppelin/contracts/access/AccessControl.sol\":2473:2483   */\n      tag_359\n        /* \"@openzeppelin/contracts/access/AccessControl.sol\":2473:2489   */\n      jump\t// in\n    tag_564:\n      sub(shl(0xa0, 0x01), 0x01)\n        /* \"TestPool.sol\":6894:6925  newUtilityAddress == address(0) */\n      dup3\n      and\n        /* \"TestPool.sol\":6890:6947  if (newUtilityAddress == address(0)) revert ZeroAddress() */\n      tag_566\n      jumpi\n        /* \"TestPool.sol\":6934:6947  ZeroAddress() */\n      mload(0x40)\n      shl(0xe0, 0xd92e233d)\n      dup2\n      mstore\n      0x04\n      add\n      mload(0x40)\n      dup1\n      swap2\n      sub\n      swap1\n      revert\n        /* \"TestPool.sol\":6890:6947  if (newUtilityAddress == address(0)) revert ZeroAddress() */\n    tag_566:\n        /* \"TestPool.sol\":6957:6971  utilityAddress */\n      0x04\n        /* \"TestPool.sol\":6957:6991  utilityAddress = newUtilityAddress */\n      dup1\n      sload\n      0xffff0000000000000000000000000000000000000000ffffffffffffffffffff\n      and\n      shl(0x50, 0x01)\n      sub(shl(0xa0, 0x01), 0x01)\n      dup6\n      and\n      swap1\n      dup2\n      mul\n      swap2\n      swap1\n      swap2\n      or\n      swap1\n      swap2\n      sstore\n        /* \"TestPool.sol\":7006:7046  UtilityAddressChanged(newUtilityAddress) */\n      mload(0x40)\n        /* \"#utility.yul\":7741:7815   */\n      swap1\n      dup2\n      mstore\n        /* \"TestPool.sol\":7006:7046  UtilityAddressChanged(newUtilityAddress) */\n      0x1d6240e71a77c9e9d07d1d6ecbb9ea4274fcc8bc19adc5b05a3548ac7e40e189\n      swap1\n        /* \"#utility.yul\":7729:7731   */\n      0x20\n        /* \"#utility.yul\":7714:7732   */\n      add\n        /* \"TestPool.sol\":7006:7046  UtilityAddressChanged(newUtilityAddress) */\n      tag_544\n        /* \"#utility.yul\":7595:7821   */\n      jump\n        /* \"TestPool.sol\":15242:15663  function withdrawUtilityETH(uint256 amount) external onlyRole(UTILITY_WITHDRAWER_ROLE) nonReentrant {... */\n    tag_264:\n        /* \"TestPool.sol\":1710:1746  keccak256(\"UTILITY_WITHDRAWER_ROLE\") */\n      0x78c90eb9e475048b483a290aee04b5fe48355537c3623c7637b17d3bed71c6ed\n        /* \"@openzeppelin/contracts/access/AccessControl.sol\":2473:2489   */\n      tag_570\n        /* \"@openzeppelin/contracts/access/AccessControl.sol\":2484:2488   */\n      dup2\n        /* \"@openzeppelin/contracts/access/AccessControl.sol\":2473:2483   */\n      tag_359\n        /* \"@openzeppelin/contracts/access/AccessControl.sol\":2473:2489   */\n      jump\t// in\n    tag_570:\n        /* \"@openzeppelin/contracts/utils/ReentrancyGuard.sol\":2500:2521   */\n      tag_572\n        /* \"@openzeppelin/contracts/utils/ReentrancyGuard.sol\":2500:2519   */\n      tag_367\n        /* \"@openzeppelin/contracts/utils/ReentrancyGuard.sol\":2500:2521   */\n      jump\t// in\n    tag_572:\n        /* \"TestPool.sol\":15356:15370  utilityAddress */\n      sload(0x04)\n      shl(0x50, 0x01)\n      swap1\n      div\n      sub(shl(0xa0, 0x01), 0x01)\n      and\n        /* \"TestPool.sol\":15352:15406  if (utilityAddress == address(0)) revert ZeroAddress() */\n      tag_574\n      jumpi\n        /* \"TestPool.sol\":15393:15406  ZeroAddress() */\n      mload(0x40)\n      shl(0xe0, 0xd92e233d)\n      dup2\n      mstore\n      0x04\n      add\n      mload(0x40)\n      dup1\n      swap2\n      sub\n      swap1\n      revert\n        /* \"TestPool.sol\":15352:15406  if (utilityAddress == address(0)) revert ZeroAddress() */\n    tag_574:\n        /* \"TestPool.sol\":15429:15450  address(this).balance */\n      selfbalance\n        /* \"TestPool.sol\":15420:15426  amount */\n      dup3\n        /* \"TestPool.sol\":15420:15450  amount > address(this).balance */\n      gt\n        /* \"TestPool.sol\":15416:15480  if (amount > address(this).balance) revert InsufficientBalance() */\n      iszero\n      tag_575\n      jumpi\n        /* \"TestPool.sol\":15459:15480  InsufficientBalance() */\n      mload(0x40)\n      shl(0xe3, 0x1e9acf17)\n      dup2\n      mstore\n      0x04\n      add\n      mload(0x40)\n      dup1\n      swap2\n      sub\n      swap1\n      revert\n        /* \"TestPool.sol\":15416:15480  if (amount > address(this).balance) revert InsufficientBalance() */\n    tag_575:\n        /* \"TestPool.sol\":15504:15518  utilityAddress */\n      sload(0x04)\n        /* \"TestPool.sol\":15504:15542  utilityAddress.call{value: amount}(\"\") */\n      mload(0x40)\n        /* \"TestPool.sol\":15491:15498  bool ok */\n      0x00\n      swap2\n      shl(0x50, 0x01)\n        /* \"TestPool.sol\":15504:15518  utilityAddress */\n      swap1\n      div\n      sub(shl(0xa0, 0x01), 0x01)\n      and\n      swap1\n        /* \"TestPool.sol\":15531:15537  amount */\n      dup5\n      swap1\n        /* \"TestPool.sol\":15491:15498  bool ok */\n      dup4\n        /* \"TestPool.sol\":15504:15542  utilityAddress.call{value: amount}(\"\") */\n      dup2\n        /* \"TestPool.sol\":15491:15498  bool ok */\n      dup2\n        /* \"TestPool.sol\":15504:15542  utilityAddress.call{value: amount}(\"\") */\n      dup2\n        /* \"TestPool.sol\":15531:15537  amount */\n      dup6\n        /* \"TestPool.sol\":15504:15518  utilityAddress */\n      dup8\n        /* \"TestPool.sol\":15504:15542  utilityAddress.call{value: amount}(\"\") */\n      gas\n      call\n      swap3\n      pop\n      pop\n      pop\n      returndatasize\n      dup1\n      0x00\n      dup2\n      eq\n      tag_579\n      jumpi\n      mload(0x40)\n      swap2\n      pop\n      and(add(returndatasize, 0x3f), not(0x1f))\n      dup3\n      add\n      0x40\n      mstore\n      returndatasize\n      dup3\n      mstore\n      returndatasize\n      0x00\n      0x20\n      dup5\n      add\n      returndatacopy\n      jump(tag_578)\n    tag_579:\n      0x60\n      swap2\n      pop\n    tag_578:\n      pop\n        /* \"TestPool.sol\":15490:15542  (bool ok, ) = utilityAddress.call{value: amount}(\"\") */\n      pop\n      swap1\n      pop\n        /* \"TestPool.sol\":15557:15559  ok */\n      dup1\n        /* \"TestPool.sol\":15552:15584  if (!ok) revert TransferFailed() */\n      tag_580\n      jumpi\n        /* \"TestPool.sol\":15568:15584  TransferFailed() */\n      mload(0x40)\n      shl(0xe3, 0x12171d83)\n      dup2\n      mstore\n      0x04\n      add\n      mload(0x40)\n      dup1\n      swap2\n      sub\n      swap1\n      revert\n        /* \"TestPool.sol\":15552:15584  if (!ok) revert TransferFailed() */\n    tag_580:\n        /* \"TestPool.sol\":15616:15630  utilityAddress */\n      sload(0x04)\n        /* \"TestPool.sol\":15599:15656  UtilityWithdrawn(utilityAddress, amount, block.timestamp) */\n      0x40\n      dup1\n      mload\n        /* \"#utility.yul\":10504:10529   */\n      dup6\n      dup2\n      mstore\n        /* \"TestPool.sol\":15640:15655  block.timestamp */\n      timestamp\n        /* \"#utility.yul\":10560:10562   */\n      0x20\n        /* \"#utility.yul\":10545:10563   */\n      dup3\n      add\n        /* \"#utility.yul\":10538:10572   */\n      mstore\n      shl(0x50, 0x01)\n        /* \"TestPool.sol\":15616:15630  utilityAddress */\n      swap1\n      swap3\n      div\n      sub(shl(0xa0, 0x01), 0x01)\n      and\n      swap2\n        /* \"TestPool.sol\":15599:15656  UtilityWithdrawn(utilityAddress, amount, block.timestamp) */\n      0x18b8c45e12ff31e9be3bd15fb0f0c293c632e978e181920a25cbc7d639e479ec\n      swap2\n        /* \"#utility.yul\":10477:10495   */\n      add\n        /* \"TestPool.sol\":15599:15656  UtilityWithdrawn(utilityAddress, amount, block.timestamp) */\n      mload(0x40)\n      dup1\n      swap2\n      sub\n      swap1\n      log2\n        /* \"TestPool.sol\":15342:15663  {... */\n      pop\n        /* \"@openzeppelin/contracts/utils/ReentrancyGuard.sol\":2542:2562   */\n      tag_540\n        /* \"@openzeppelin/contracts/utils/ReentrancyGuard.sol\":1857:1858   */\n      0x01\n        /* \"@openzeppelin/contracts/utils/ReentrancyGuard.sol\":3068:3089   */\n      dup1\n      sstore\n        /* \"@openzeppelin/contracts/utils/ReentrancyGuard.sol\":2888:3096   */\n      jump\n        /* \"TestPool.sol\":2474:2505  address[] public withdrawnUsers */\n    tag_276:\n      0x0b\n      dup2\n      dup2\n      sload\n      dup2\n      lt\n      tag_583\n      jumpi\n      0x00\n      dup1\n      revert\n    tag_583:\n      0x00\n      swap2\n      dup3\n      mstore\n      0x20\n      swap1\n      swap2\n      keccak256\n      add\n      sload\n      sub(shl(0xa0, 0x01), 0x01)\n      and\n      swap1\n      pop\n      dup2\n      jump\t// out\n        /* \"TestPool.sol\":17175:17418  function rescueERC20(address token, address to, uint256 amount) external onlyRole(ADMIN_ROLE) {... */\n    tag_291:\n      0x00\n      dup1\n      mload\n      0x20\n      data_cb864c43dd5d441bb6271f424f11befa622c032dfd374d226e26fbbdb782b8f8\n      dup4\n      codecopy\n      dup2\n      mload\n      swap2\n      mstore\n        /* \"@openzeppelin/contracts/access/AccessControl.sol\":2473:2489   */\n      tag_587\n        /* \"@openzeppelin/contracts/access/AccessControl.sol\":2484:2488   */\n      dup2\n        /* \"@openzeppelin/contracts/access/AccessControl.sol\":2473:2483   */\n      tag_359\n        /* \"@openzeppelin/contracts/access/AccessControl.sol\":2473:2489   */\n      jump\t// in\n    tag_587:\n      sub(shl(0xa0, 0x01), 0x01)\n        /* \"TestPool.sol\":17283:17299  to == address(0) */\n      dup4\n      and\n        /* \"TestPool.sol\":17279:17321  if (to == address(0)) revert ZeroAddress() */\n      tag_589\n      jumpi\n        /* \"TestPool.sol\":17308:17321  ZeroAddress() */\n      mload(0x40)\n      shl(0xe0, 0xd92e233d)\n      dup2\n      mstore\n      0x04\n      add\n      mload(0x40)\n      dup1\n      swap2\n      sub\n      swap1\n      revert\n        /* \"TestPool.sol\":17279:17321  if (to == address(0)) revert ZeroAddress() */\n    tag_589:\n        /* \"TestPool.sol\":17331:17365  IERC20(token).transfer(to, amount) */\n      mload(0x40)\n      shl(0xe0, 0xa9059cbb)\n      dup2\n      mstore\n      sub(shl(0xa0, 0x01), 0x01)\n        /* \"#utility.yul\":12684:12739   */\n      dup5\n      dup2\n      and\n        /* \"TestPool.sol\":17331:17365  IERC20(token).transfer(to, amount) */\n      0x04\n      dup4\n      add\n        /* \"#utility.yul\":12666:12740   */\n      mstore\n        /* \"#utility.yul\":12756:12774   */\n      0x24\n      dup3\n      add\n        /* \"#utility.yul\":12749:12783   */\n      dup5\n      swap1\n      mstore\n        /* \"TestPool.sol\":17331:17353  IERC20(token).transfer */\n      dup6\n      and\n      swap1\n      0xa9059cbb\n      swap1\n        /* \"#utility.yul\":12639:12657   */\n      0x44\n      add\n        /* \"TestPool.sol\":17331:17365  IERC20(token).transfer(to, amount) */\n      0x20\n      mload(0x40)\n      dup1\n      dup4\n      sub\n      dup2\n      0x00\n      dup8\n      gas\n      call\n      iszero\n      dup1\n      iszero\n      tag_593\n      jumpi\n      returndatasize\n      0x00\n      dup1\n      returndatacopy\n      revert(0x00, returndatasize)\n    tag_593:\n      pop\n      pop\n      pop\n      pop\n      mload(0x40)\n      returndatasize\n      not(0x1f)\n      0x1f\n      dup3\n      add\n      and\n      dup3\n      add\n      dup1\n      0x40\n      mstore\n      pop\n      dup2\n      add\n      swap1\n      tag_594\n      swap2\n      swap1\n      tag_595\n      jump\t// in\n    tag_594:\n      pop\n        /* \"TestPool.sol\":17400:17402  to */\n      dup3\n      sub(shl(0xa0, 0x01), 0x01)\n        /* \"TestPool.sol\":17380:17411  ERC20Rescued(token, to, amount) */\n      and\n        /* \"TestPool.sol\":17393:17398  token */\n      dup5\n      sub(shl(0xa0, 0x01), 0x01)\n        /* \"TestPool.sol\":17380:17411  ERC20Rescued(token, to, amount) */\n      and\n      0x8bbfbb5d7fcacf6fc74005cdede0635561638507f576c95f7f294c22141be2e5\n        /* \"TestPool.sol\":17404:17410  amount */\n      dup5\n        /* \"TestPool.sol\":17380:17411  ERC20Rescued(token, to, amount) */\n      mload(0x40)\n      tag_596\n      swap2\n        /* \"#utility.yul\":2053:2078   */\n      dup2\n      mstore\n        /* \"#utility.yul\":2041:2043   */\n      0x20\n        /* \"#utility.yul\":2026:2044   */\n      add\n      swap1\n        /* \"#utility.yul\":1907:2084   */\n      jump\n        /* \"TestPool.sol\":17380:17411  ERC20Rescued(token, to, amount) */\n    tag_596:\n      mload(0x40)\n      dup1\n      swap2\n      sub\n      swap1\n      log3\n        /* \"TestPool.sol\":17175:17418  function rescueERC20(address token, address to, uint256 amount) external onlyRole(ADMIN_ROLE) {... */\n      pop\n      pop\n      pop\n      pop\n      jump\t// out\n        /* \"TestPool.sol\":13870:14425  function assignUtilityETHBatch(address[] calldata users, uint256[] calldata amounts) external onlyRole(ADMIN_ROLE) {... */\n    tag_304:\n      0x00\n      dup1\n      mload\n      0x20\n      data_cb864c43dd5d441bb6271f424f11befa622c032dfd374d226e26fbbdb782b8f8\n      dup4\n      codecopy\n      dup2\n      mload\n      swap2\n      mstore\n        /* \"@openzeppelin/contracts/access/AccessControl.sol\":2473:2489   */\n      tag_598\n        /* \"@openzeppelin/contracts/access/AccessControl.sol\":2484:2488   */\n      dup2\n        /* \"@openzeppelin/contracts/access/AccessControl.sol\":2473:2483   */\n      tag_359\n        /* \"@openzeppelin/contracts/access/AccessControl.sol\":2473:2489   */\n      jump\t// in\n    tag_598:\n        /* \"TestPool.sol\":13999:14029  users.length != amounts.length */\n      dup4\n      dup3\n      eq\n        /* \"TestPool.sol\":13995:14059  if (users.length != amounts.length) revert ArrayLengthMismatch() */\n      tag_600\n      jumpi\n        /* \"TestPool.sol\":14038:14059  ArrayLengthMismatch() */\n      mload(0x40)\n      shl(0xe1, 0x512509d3)\n      dup2\n      mstore\n      0x04\n      add\n      mload(0x40)\n      dup1\n      swap2\n      sub\n      swap1\n      revert\n        /* \"TestPool.sol\":13995:14059  if (users.length != amounts.length) revert ArrayLengthMismatch() */\n    tag_600:\n        /* \"TestPool.sol\":14069:14080  uint256 sum */\n      0x00\n      dup1\n        /* \"TestPool.sol\":14090:14322  for (uint256 i = 0; i < users.length; i++) {... */\n    tag_601:\n        /* \"TestPool.sol\":14110:14126  i < users.length */\n      dup6\n      dup2\n      lt\n        /* \"TestPool.sol\":14090:14322  for (uint256 i = 0; i < users.length; i++) {... */\n      iszero\n      tag_602\n      jumpi\n        /* \"TestPool.sol\":14147:14161  uint256 amount */\n      0x00\n        /* \"TestPool.sol\":14164:14171  amounts */\n      dup6\n      dup6\n        /* \"TestPool.sol\":14172:14173  i */\n      dup4\n        /* \"TestPool.sol\":14164:14174  amounts[i] */\n      dup2\n      dup2\n      lt\n      tag_605\n      jumpi\n      tag_605\n      tag_404\n      jump\t// in\n    tag_605:\n      swap1\n      pop\n      0x20\n      mul\n      add\n      calldataload\n        /* \"TestPool.sol\":14147:14174  uint256 amount = amounts[i] */\n      swap1\n      pop\n        /* \"TestPool.sol\":14192:14198  amount */\n      dup1\n        /* \"TestPool.sol\":14202:14203  0 */\n      0x00\n        /* \"TestPool.sol\":14192:14203  amount == 0 */\n      sub\n        /* \"TestPool.sol\":14188:14227  if (amount == 0) revert InvalidAmount() */\n      tag_606\n      jumpi\n        /* \"TestPool.sol\":14212:14227  InvalidAmount() */\n      mload(0x40)\n      shl(0xe1, 0x162908e3)\n      dup2\n      mstore\n      0x04\n      add\n      mload(0x40)\n      dup1\n      swap2\n      sub\n      swap1\n      revert\n        /* \"TestPool.sol\":14188:14227  if (amount == 0) revert InvalidAmount() */\n    tag_606:\n        /* \"TestPool.sol\":14278:14284  amount */\n      dup1\n        /* \"TestPool.sol\":14241:14264  userClaimableUtilityETH */\n      0x08\n        /* \"TestPool.sol\":14241:14274  userClaimableUtilityETH[users[i]] */\n      0x00\n        /* \"TestPool.sol\":14265:14270  users */\n      dup11\n      dup11\n        /* \"TestPool.sol\":14271:14272  i */\n      dup7\n        /* \"TestPool.sol\":14265:14273  users[i] */\n      dup2\n      dup2\n      lt\n      tag_608\n      jumpi\n      tag_608\n      tag_404\n      jump\t// in\n    tag_608:\n      swap1\n      pop\n      0x20\n      mul\n      add\n      0x20\n      dup2\n      add\n      swap1\n      tag_609\n      swap2\n      swap1\n      tag_123\n      jump\t// in\n    tag_609:\n      sub(shl(0xa0, 0x01), 0x01)\n        /* \"TestPool.sol\":14241:14274  userClaimableUtilityETH[users[i]] */\n      and\n      sub(shl(0xa0, 0x01), 0x01)\n      and\n      dup2\n      mstore\n      0x20\n      add\n      swap1\n      dup2\n      mstore\n      0x20\n      add\n      0x00\n      keccak256\n      0x00\n        /* \"TestPool.sol\":14241:14284  userClaimableUtilityETH[users[i]] += amount */\n      dup3\n      dup3\n      sload\n      tag_610\n      swap2\n      swap1\n      tag_388\n      jump\t// in\n    tag_610:\n      swap1\n      swap2\n      sstore\n      pop\n        /* \"TestPool.sol\":14298:14311  sum += amount */\n      tag_611\n      swap1\n      pop\n        /* \"TestPool.sol\":14305:14311  amount */\n      dup2\n        /* \"TestPool.sol\":14298:14311  sum += amount */\n      dup5\n      tag_388\n      jump\t// in\n    tag_611:\n      swap3\n      pop\n      pop\n        /* \"TestPool.sol\":14128:14131  i++ */\n      0x01\n      add\n        /* \"TestPool.sol\":14090:14322  for (uint256 i = 0; i < users.length; i++) {... */\n      jump(tag_601)\n    tag_602:\n      pop\n        /* \"TestPool.sol\":14341:14356  totalUtilityETH */\n      sload(0x0e)\n        /* \"TestPool.sol\":14335:14338  sum */\n      dup2\n        /* \"TestPool.sol\":14335:14356  sum > totalUtilityETH */\n      gt\n        /* \"TestPool.sol\":14331:14386  if (sum > totalUtilityETH) revert ExceedsTotalUtility() */\n      iszero\n      tag_612\n      jumpi\n        /* \"TestPool.sol\":14365:14386  ExceedsTotalUtility() */\n      mload(0x40)\n      shl(0xe0, 0x2f37549d)\n      dup2\n      mstore\n      0x04\n      add\n      mload(0x40)\n      dup1\n      swap2\n      sub\n      swap1\n      revert\n        /* \"TestPool.sol\":14331:14386  if (sum > totalUtilityETH) revert ExceedsTotalUtility() */\n    tag_612:\n        /* \"TestPool.sol\":14415:14418  sum */\n      dup1\n        /* \"TestPool.sol\":14396:14411  totalUtilityETH */\n      0x0e\n      0x00\n        /* \"TestPool.sol\":14396:14418  totalUtilityETH -= sum */\n      dup3\n      dup3\n      sload\n      tag_613\n      swap2\n      swap1\n      tag_372\n      jump\t// in\n    tag_613:\n      swap1\n      swap2\n      sstore\n      pop\n      pop\n      pop\n      pop\n      pop\n      pop\n      pop\n      pop\n        /* \"TestPool.sol\":13870:14425  function assignUtilityETHBatch(address[] calldata users, uint256[] calldata amounts) external onlyRole(ADMIN_ROLE) {... */\n      jump\t// out\n        /* \"TestPool.sol\":7092:7553  function withdrawForInvestmentETH(address to, uint256 amount) external onlyRole(MANAGER_ROLE) nonReentrant {... */\n    tag_308:\n        /* \"TestPool.sol\":1791:1816  keccak256(\"MANAGER_ROLE\") */\n      0x241ecf16d79d0f8dbfb92cbc07fe17840425976cf0667f022fe9877caa831b08\n        /* \"@openzeppelin/contracts/access/AccessControl.sol\":2473:2489   */\n      tag_615\n        /* \"@openzeppelin/contracts/access/AccessControl.sol\":2484:2488   */\n      dup2\n        /* \"@openzeppelin/contracts/access/AccessControl.sol\":2473:2483   */\n      tag_359\n        /* \"@openzeppelin/contracts/access/AccessControl.sol\":2473:2489   */\n      jump\t// in\n    tag_615:\n        /* \"@openzeppelin/contracts/utils/ReentrancyGuard.sol\":2500:2521   */\n      tag_617\n        /* \"@openzeppelin/contracts/utils/ReentrancyGuard.sol\":2500:2519   */\n      tag_367\n        /* \"@openzeppelin/contracts/utils/ReentrancyGuard.sol\":2500:2521   */\n      jump\t// in\n    tag_617:\n      sub(shl(0xa0, 0x01), 0x01)\n        /* \"TestPool.sol\":7213:7229  to == address(0) */\n      dup4\n      and\n        /* \"TestPool.sol\":7209:7251  if (to == address(0)) revert ZeroAddress() */\n      tag_619\n      jumpi\n        /* \"TestPool.sol\":7238:7251  ZeroAddress() */\n      mload(0x40)\n      shl(0xe0, 0xd92e233d)\n      dup2\n      mstore\n      0x04\n      add\n      mload(0x40)\n      dup1\n      swap2\n      sub\n      swap1\n      revert\n        /* \"TestPool.sol\":7209:7251  if (to == address(0)) revert ZeroAddress() */\n    tag_619:\n        /* \"TestPool.sol\":7274:7295  address(this).balance */\n      selfbalance\n        /* \"TestPool.sol\":7265:7271  amount */\n      dup3\n        /* \"TestPool.sol\":7265:7295  amount > address(this).balance */\n      gt\n        /* \"TestPool.sol\":7261:7325  if (amount > address(this).balance) revert InsufficientBalance() */\n      iszero\n      tag_620\n      jumpi\n        /* \"TestPool.sol\":7304:7325  InsufficientBalance() */\n      mload(0x40)\n      shl(0xe3, 0x1e9acf17)\n      dup2\n      mstore\n      0x04\n      add\n      mload(0x40)\n      dup1\n      swap2\n      sub\n      swap1\n      revert\n        /* \"TestPool.sol\":7261:7325  if (amount > address(this).balance) revert InsufficientBalance() */\n    tag_620:\n        /* \"TestPool.sol\":7356:7362  amount */\n      dup2\n        /* \"TestPool.sol\":7336:7352  totalInvestedETH */\n      0x10\n      0x00\n        /* \"TestPool.sol\":7336:7362  totalInvestedETH += amount */\n      dup3\n      dup3\n      sload\n      tag_621\n      swap2\n      swap1\n      tag_388\n      jump\t// in\n    tag_621:\n      swap1\n      swap2\n      sstore\n      pop\n      pop\n        /* \"TestPool.sol\":7392:7418  to.call{value: amount}(\"\") */\n      mload(0x40)\n        /* \"TestPool.sol\":7374:7386  bool success */\n      0x00\n      swap1\n      sub(shl(0xa0, 0x01), 0x01)\n        /* \"TestPool.sol\":7392:7399  to.call */\n      dup6\n      and\n      swap1\n        /* \"TestPool.sol\":7407:7413  amount */\n      dup5\n      swap1\n        /* \"TestPool.sol\":7374:7386  bool success */\n      dup4\n        /* \"TestPool.sol\":7392:7418  to.call{value: amount}(\"\") */\n      dup2\n        /* \"TestPool.sol\":7374:7386  bool success */\n      dup2\n        /* \"TestPool.sol\":7392:7418  to.call{value: amount}(\"\") */\n      dup2\n        /* \"TestPool.sol\":7407:7413  amount */\n      dup6\n        /* \"TestPool.sol\":7392:7399  to.call */\n      dup8\n        /* \"TestPool.sol\":7392:7418  to.call{value: amount}(\"\") */\n      gas\n      call\n      swap3\n      pop\n      pop\n      pop\n      returndatasize\n      dup1\n      0x00\n      dup2\n      eq\n      tag_625\n      jumpi\n      mload(0x40)\n      swap2\n      pop\n      and(add(returndatasize, 0x3f), not(0x1f))\n      dup3\n      add\n      0x40\n      mstore\n      returndatasize\n      dup3\n      mstore\n      returndatasize\n      0x00\n      0x20\n      dup5\n      add\n      returndatacopy\n      jump(tag_624)\n    tag_625:\n      0x60\n      swap2\n      pop\n    tag_624:\n      pop\n        /* \"TestPool.sol\":7373:7418  (bool success, ) = to.call{value: amount}(\"\") */\n      pop\n      swap1\n      pop\n        /* \"TestPool.sol\":7433:7440  success */\n      dup1\n        /* \"TestPool.sol\":7428:7465  if (!success) revert TransferFailed() */\n      tag_626\n      jumpi\n        /* \"TestPool.sol\":7449:7465  TransferFailed() */\n      mload(0x40)\n      shl(0xe3, 0x12171d83)\n      dup2\n      mstore\n      0x04\n      add\n      mload(0x40)\n      dup1\n      swap2\n      sub\n      swap1\n      revert\n        /* \"TestPool.sol\":7428:7465  if (!success) revert TransferFailed() */\n    tag_626:\n        /* \"TestPool.sol\":7518:7520  to */\n      dup4\n      sub(shl(0xa0, 0x01), 0x01)\n        /* \"TestPool.sol\":7481:7546  WithdrawnForInvestment(_msgSender(), to, amount, block.timestamp) */\n      and\n        /* \"TestPool.sol\":7504:7516  _msgSender() */\n      tag_627\n        /* \"TestPool.sol\":7504:7514  _msgSender */\n      tag_374\n        /* \"TestPool.sol\":7504:7516  _msgSender() */\n      jump\t// in\n    tag_627:\n      sub(shl(0xa0, 0x01), 0x01)\n        /* \"TestPool.sol\":7481:7546  WithdrawnForInvestment(_msgSender(), to, amount, block.timestamp) */\n      and\n      0x02d0981b01e87d345bd4dcdfff34b16820fd446ebb56bd591255f8a115a0b2ca\n        /* \"TestPool.sol\":7522:7528  amount */\n      dup6\n        /* \"TestPool.sol\":7530:7545  block.timestamp */\n      timestamp\n        /* \"TestPool.sol\":7481:7546  WithdrawnForInvestment(_msgSender(), to, amount, block.timestamp) */\n      mload(0x40)\n      tag_628\n      swap3\n      swap2\n      swap1\n        /* \"#utility.yul\":10504:10529   */\n      swap2\n      dup3\n      mstore\n        /* \"#utility.yul\":10560:10562   */\n      0x20\n        /* \"#utility.yul\":10545:10563   */\n      dup3\n      add\n        /* \"#utility.yul\":10538:10572   */\n      mstore\n        /* \"#utility.yul\":10492:10494   */\n      0x40\n        /* \"#utility.yul\":10477:10495   */\n      add\n      swap1\n        /* \"#utility.yul\":10330:10578   */\n      jump\n        /* \"TestPool.sol\":7481:7546  WithdrawnForInvestment(_msgSender(), to, amount, block.timestamp) */\n    tag_628:\n      mload(0x40)\n      dup1\n      swap2\n      sub\n      swap1\n      log3\n        /* \"TestPool.sol\":7199:7553  {... */\n      pop\n        /* \"@openzeppelin/contracts/utils/ReentrancyGuard.sol\":2542:2562   */\n      tag_439\n        /* \"@openzeppelin/contracts/utils/ReentrancyGuard.sol\":1857:1858   */\n      0x01\n        /* \"@openzeppelin/contracts/utils/ReentrancyGuard.sol\":3068:3089   */\n      dup1\n      sstore\n        /* \"@openzeppelin/contracts/utils/ReentrancyGuard.sol\":2888:3096   */\n      jump\n        /* \"TestPool.sol\":5596:5756  function setLockupPeriod(uint256 newPeriod) external onlyRole(ADMIN_ROLE) {... */\n    tag_312:\n      0x00\n      dup1\n      mload\n      0x20\n      data_cb864c43dd5d441bb6271f424f11befa622c032dfd374d226e26fbbdb782b8f8\n      dup4\n      codecopy\n      dup2\n      mload\n      swap2\n      mstore\n        /* \"@openzeppelin/contracts/access/AccessControl.sol\":2473:2489   */\n      tag_631\n        /* \"@openzeppelin/contracts/access/AccessControl.sol\":2484:2488   */\n      dup2\n        /* \"@openzeppelin/contracts/access/AccessControl.sol\":2473:2483   */\n      tag_359\n        /* \"@openzeppelin/contracts/access/AccessControl.sol\":2473:2489   */\n      jump\t// in\n    tag_631:\n        /* \"TestPool.sol\":5680:5692  lockupPeriod */\n      0x02\n        /* \"TestPool.sol\":5680:5704  lockupPeriod = newPeriod */\n      dup3\n      swap1\n      sstore\n        /* \"TestPool.sol\":5719:5749  LockupPeriodChanged(newPeriod) */\n      mload(0x40)\n        /* \"#utility.yul\":2053:2078   */\n      dup3\n      dup2\n      mstore\n        /* \"TestPool.sol\":5719:5749  LockupPeriodChanged(newPeriod) */\n      0xc5e00a325524bc148ddc05bb642b804e9ae1dfc670c217ed3c4c6595f7427ef4\n      swap1\n        /* \"#utility.yul\":2041:2043   */\n      0x20\n        /* \"#utility.yul\":2026:2044   */\n      add\n        /* \"TestPool.sol\":5719:5749  LockupPeriodChanged(newPeriod) */\n      tag_544\n        /* \"#utility.yul\":1907:2084   */\n      jump\n        /* \"@openzeppelin/contracts/access/AccessControl.sol\":4618:4756   */\n    tag_316:\n        /* \"@openzeppelin/contracts/access/AccessControl.sol\":3851:3858   */\n      0x00\n        /* \"@openzeppelin/contracts/access/AccessControl.sol\":3877:3889   */\n      dup3\n      dup2\n      mstore\n      0x20\n      dup2\n      swap1\n      mstore\n      0x40\n      swap1\n      keccak256\n        /* \"@openzeppelin/contracts/access/AccessControl.sol\":3877:3899   */\n      0x01\n      add\n      sload\n        /* \"@openzeppelin/contracts/access/AccessControl.sol\":2473:2489   */\n      tag_636\n        /* \"@openzeppelin/contracts/access/AccessControl.sol\":2484:2488   */\n      dup2\n        /* \"@openzeppelin/contracts/access/AccessControl.sol\":2473:2483   */\n      tag_359\n        /* \"@openzeppelin/contracts/access/AccessControl.sol\":2473:2489   */\n      jump\t// in\n    tag_636:\n        /* \"@openzeppelin/contracts/access/AccessControl.sol\":4723:4749   */\n      tag_434\n        /* \"@openzeppelin/contracts/access/AccessControl.sol\":4735:4739   */\n      dup4\n        /* \"@openzeppelin/contracts/access/AccessControl.sol\":4741:4748   */\n      dup4\n        /* \"@openzeppelin/contracts/access/AccessControl.sol\":4723:4734   */\n      tag_440\n        /* \"@openzeppelin/contracts/access/AccessControl.sol\":4723:4749   */\n      jump\t// in\n        /* \"TestPool.sol\":12712:13023  function enableGlobalLiquidation() external onlyRole(ADMIN_ROLE) {... */\n    tag_319:\n      0x00\n      dup1\n      mload\n      0x20\n      data_cb864c43dd5d441bb6271f424f11befa622c032dfd374d226e26fbbdb782b8f8\n      dup4\n      codecopy\n      dup2\n      mload\n      swap2\n      mstore\n        /* \"@openzeppelin/contracts/access/AccessControl.sol\":2473:2489   */\n      tag_640\n        /* \"@openzeppelin/contracts/access/AccessControl.sol\":2484:2488   */\n      dup2\n        /* \"@openzeppelin/contracts/access/AccessControl.sol\":2473:2483   */\n      tag_359\n        /* \"@openzeppelin/contracts/access/AccessControl.sol\":2473:2489   */\n      jump\t// in\n    tag_640:\n        /* \"TestPool.sol\":12791:12815  globalLiquidationEnabled */\n      sload(0x04)\n      0x01000000\n      swap1\n      div\n      0xff\n      and\n        /* \"TestPool.sol\":12787:12857  if (globalLiquidationEnabled) revert GlobalLiquidationAlreadyEnabled() */\n      iszero\n      tag_642\n      jumpi\n        /* \"TestPool.sol\":12824:12857  GlobalLiquidationAlreadyEnabled() */\n      mload(0x40)\n      shl(0xe0, 0xae7fe589)\n      dup2\n      mstore\n      0x04\n      add\n      mload(0x40)\n      dup1\n      swap2\n      sub\n      swap1\n      revert\n        /* \"TestPool.sol\":12787:12857  if (globalLiquidationEnabled) revert GlobalLiquidationAlreadyEnabled() */\n    tag_642:\n        /* \"TestPool.sol\":12867:12891  globalLiquidationEnabled */\n      0x04\n        /* \"TestPool.sol\":12867:12898  globalLiquidationEnabled = true */\n      dup1\n      sload\n        /* \"TestPool.sol\":12908:12960  globalLiquidationTimestamp = uint48(block.timestamp) */\n      0xffffffffffff\n        /* \"TestPool.sol\":12944:12959  block.timestamp */\n      timestamp\n        /* \"TestPool.sol\":12908:12960  globalLiquidationTimestamp = uint48(block.timestamp) */\n      swap1\n      dup2\n      and\n      0x0100000000\n      mul\n      not(0xffffffffffffff000000)\n      swap1\n      swap3\n      and\n      swap2\n      swap1\n      swap2\n      or\n        /* \"TestPool.sol\":12867:12898  globalLiquidationEnabled = true */\n      0x01000000\n        /* \"TestPool.sol\":12908:12960  globalLiquidationTimestamp = uint48(block.timestamp) */\n      or\n      swap1\n      swap2\n      sstore\n        /* \"TestPool.sol\":12975:13016  GlobalLiquidationEnabled(block.timestamp) */\n      mload(0x40)\n      0x2388ceaed48d21bd0802856df41a22705f9046a67a817a047352aa3bbfe5c5d1\n      swap2\n      tag_643\n      swap2\n        /* \"#utility.yul\":2053:2078   */\n      swap1\n      dup2\n      mstore\n        /* \"#utility.yul\":2041:2043   */\n      0x20\n        /* \"#utility.yul\":2026:2044   */\n      add\n      swap1\n        /* \"#utility.yul\":1907:2084   */\n      jump\n        /* \"TestPool.sol\":12975:13016  GlobalLiquidationEnabled(block.timestamp) */\n    tag_643:\n      mload(0x40)\n      dup1\n      swap2\n      sub\n      swap1\n      log1\n        /* \"TestPool.sol\":12712:13023  function enableGlobalLiquidation() external onlyRole(ADMIN_ROLE) {... */\n      pop\n      jump\t// out\n        /* \"TestPool.sol\":14431:14815  function claimUtilityETH() external nonReentrant {... */\n    tag_326:\n        /* \"@openzeppelin/contracts/utils/ReentrancyGuard.sol\":2500:2521   */\n      tag_645\n        /* \"@openzeppelin/contracts/utils/ReentrancyGuard.sol\":2500:2519   */\n      tag_367\n        /* \"@openzeppelin/contracts/utils/ReentrancyGuard.sol\":2500:2521   */\n      jump\t// in\n    tag_645:\n        /* \"TestPool.sol\":14490:14502  address user */\n      0x00\n        /* \"TestPool.sol\":14505:14517  _msgSender() */\n      tag_647\n        /* \"TestPool.sol\":14505:14515  _msgSender */\n      tag_374\n        /* \"TestPool.sol\":14505:14517  _msgSender() */\n      jump\t// in\n    tag_647:\n      sub(shl(0xa0, 0x01), 0x01)\n        /* \"TestPool.sol\":14541:14570  userClaimableUtilityETH[user] */\n      dup2\n      and\n        /* \"TestPool.sol\":14527:14538  uint256 amt */\n      0x00\n        /* \"TestPool.sol\":14541:14570  userClaimableUtilityETH[user] */\n      swap1\n      dup2\n      mstore\n        /* \"TestPool.sol\":14541:14564  userClaimableUtilityETH */\n      0x08\n        /* \"TestPool.sol\":14541:14570  userClaimableUtilityETH[user] */\n      0x20\n      mstore\n      0x40\n      dup2\n      keccak256\n      sload\n        /* \"TestPool.sol\":14490:14517  address user = _msgSender() */\n      swap2\n      swap3\n      pop\n        /* \"TestPool.sol\":14584:14592  amt == 0 */\n      dup2\n      swap1\n      sub\n        /* \"TestPool.sol\":14580:14619  if (amt == 0) revert NoUtilityToClaim() */\n      tag_648\n      jumpi\n        /* \"TestPool.sol\":14601:14619  NoUtilityToClaim() */\n      mload(0x40)\n      shl(0xe2, 0x3bd65a7b)\n      dup2\n      mstore\n      0x04\n      add\n      mload(0x40)\n      dup1\n      swap2\n      sub\n      swap1\n      revert\n        /* \"TestPool.sol\":14580:14619  if (amt == 0) revert NoUtilityToClaim() */\n    tag_648:\n      sub(shl(0xa0, 0x01), 0x01)\n        /* \"TestPool.sol\":14629:14658  userClaimableUtilityETH[user] */\n      dup3\n      and\n        /* \"TestPool.sol\":14661:14662  0 */\n      0x00\n        /* \"TestPool.sol\":14629:14658  userClaimableUtilityETH[user] */\n      dup2\n      dup2\n      mstore\n        /* \"TestPool.sol\":14629:14652  userClaimableUtilityETH */\n      0x08\n        /* \"TestPool.sol\":14629:14658  userClaimableUtilityETH[user] */\n      0x20\n      mstore\n      0x40\n      dup1\n      dup3\n      keccak256\n        /* \"TestPool.sol\":14629:14662  userClaimableUtilityETH[user] = 0 */\n      dup3\n      swap1\n      sstore\n        /* \"TestPool.sol\":14686:14711  user.call{value: amt}(\"\") */\n      mload\n        /* \"TestPool.sol\":14661:14662  0 */\n      swap1\n      swap2\n        /* \"TestPool.sol\":14629:14658  userClaimableUtilityETH[user] */\n      swap1\n        /* \"TestPool.sol\":14703:14706  amt */\n      dup4\n      swap1\n        /* \"TestPool.sol\":14661:14662  0 */\n      dup4\n        /* \"TestPool.sol\":14686:14711  user.call{value: amt}(\"\") */\n      dup2\n        /* \"TestPool.sol\":14661:14662  0 */\n      dup2\n        /* \"TestPool.sol\":14686:14711  user.call{value: amt}(\"\") */\n      dup2\n        /* \"TestPool.sol\":14703:14706  amt */\n      dup6\n        /* \"TestPool.sol\":14629:14658  userClaimableUtilityETH[user] */\n      dup8\n        /* \"TestPool.sol\":14686:14711  user.call{value: amt}(\"\") */\n      gas\n      call\n      swap3\n      pop\n      pop\n      pop\n      returndatasize\n      dup1\n      0x00\n      dup2\n      eq\n      tag_652\n      jumpi\n      mload(0x40)\n      swap2\n      pop\n      and(add(returndatasize, 0x3f), not(0x1f))\n      dup3\n      add\n      0x40\n      mstore\n      returndatasize\n      dup3\n      mstore\n      returndatasize\n      0x00\n      0x20\n      dup5\n      add\n      returndatacopy\n      jump(tag_651)\n    tag_652:\n      0x60\n      swap2\n      pop\n    tag_651:\n      pop\n        /* \"TestPool.sol\":14672:14711  (bool ok, ) = user.call{value: amt}(\"\") */\n      pop\n      swap1\n      pop\n        /* \"TestPool.sol\":14726:14728  ok */\n      dup1\n        /* \"TestPool.sol\":14721:14753  if (!ok) revert TransferFailed() */\n      tag_653\n      jumpi\n        /* \"TestPool.sol\":14737:14753  TransferFailed() */\n      mload(0x40)\n      shl(0xe3, 0x12171d83)\n      dup2\n      mstore\n      0x04\n      add\n      mload(0x40)\n      dup1\n      swap2\n      sub\n      swap1\n      revert\n        /* \"TestPool.sol\":14721:14753  if (!ok) revert TransferFailed() */\n    tag_653:\n        /* \"TestPool.sol\":14768:14808  ClaimUtility(user, amt, block.timestamp) */\n      0x40\n      dup1\n      mload\n        /* \"#utility.yul\":10504:10529   */\n      dup4\n      dup2\n      mstore\n        /* \"TestPool.sol\":14792:14807  block.timestamp */\n      timestamp\n        /* \"#utility.yul\":10560:10562   */\n      0x20\n        /* \"#utility.yul\":10545:10563   */\n      dup3\n      add\n        /* \"#utility.yul\":10538:10572   */\n      mstore\n      sub(shl(0xa0, 0x01), 0x01)\n        /* \"TestPool.sol\":14768:14808  ClaimUtility(user, amt, block.timestamp) */\n      dup6\n      and\n      swap2\n      0x11334d8f338bc4b6e8bd6a91f0582c803e7fdf7f983dff6f56d5c85c2a8c2051\n      swap2\n        /* \"#utility.yul\":10477:10495   */\n      add\n        /* \"TestPool.sol\":14768:14808  ClaimUtility(user, amt, block.timestamp) */\n      mload(0x40)\n      dup1\n      swap2\n      sub\n      swap1\n      log2\n        /* \"TestPool.sol\":14480:14815  {... */\n      pop\n      pop\n      pop\n        /* \"@openzeppelin/contracts/utils/ReentrancyGuard.sol\":2542:2562   */\n      tag_391\n        /* \"@openzeppelin/contracts/utils/ReentrancyGuard.sol\":1857:1858   */\n      0x01\n        /* \"@openzeppelin/contracts/utils/ReentrancyGuard.sol\":3068:3089   */\n      dup1\n      sstore\n        /* \"@openzeppelin/contracts/utils/ReentrancyGuard.sol\":2888:3096   */\n      jump\n        /* \"TestPool.sol\":13029:13289  function setDepositsAsRedeemable(address user, uint256[] calldata depositIndices) external onlyRole(ADMIN_ROLE) {... */\n    tag_346:\n      0x00\n      dup1\n      mload\n      0x20\n      data_cb864c43dd5d441bb6271f424f11befa622c032dfd374d226e26fbbdb782b8f8\n      dup4\n      codecopy\n      dup2\n      mload\n      swap2\n      mstore\n        /* \"@openzeppelin/contracts/access/AccessControl.sol\":2473:2489   */\n      tag_657\n        /* \"@openzeppelin/contracts/access/AccessControl.sol\":2484:2488   */\n      dup2\n        /* \"@openzeppelin/contracts/access/AccessControl.sol\":2473:2483   */\n      tag_359\n        /* \"@openzeppelin/contracts/access/AccessControl.sol\":2473:2489   */\n      jump\t// in\n    tag_657:\n        /* \"TestPool.sol\":13156:13165  uint256 i */\n      0x00\n        /* \"TestPool.sol\":13151:13283  for (uint256 i = 0; i < depositIndices.length; i++) {... */\n    tag_659:\n        /* \"TestPool.sol\":13171:13196  i < depositIndices.length */\n      dup3\n      dup2\n      lt\n        /* \"TestPool.sol\":13151:13283  for (uint256 i = 0; i < depositIndices.length; i++) {... */\n      iszero\n      tag_660\n      jumpi\n      sub(shl(0xa0, 0x01), 0x01)\n        /* \"TestPool.sol\":13217:13235  userDeposits[user] */\n      dup6\n      and\n      0x00\n      swap1\n      dup2\n      mstore\n        /* \"TestPool.sol\":13217:13229  userDeposits */\n      0x05\n        /* \"TestPool.sol\":13217:13235  userDeposits[user] */\n      0x20\n      mstore\n      0x40\n      swap1\n      keccak256\n        /* \"TestPool.sol\":13265:13271  1 << 2 */\n      0x04\n      swap1\n        /* \"TestPool.sol\":13236:13250  depositIndices */\n      dup6\n      dup6\n        /* \"TestPool.sol\":13251:13252  i */\n      dup5\n        /* \"TestPool.sol\":13236:13253  depositIndices[i] */\n      dup2\n      dup2\n      lt\n      tag_663\n      jumpi\n      tag_663\n      tag_404\n      jump\t// in\n    tag_663:\n      swap1\n      pop\n      0x20\n      mul\n      add\n      calldataload\n        /* \"TestPool.sol\":13217:13254  userDeposits[user][depositIndices[i]] */\n      dup2\n      sload\n      dup2\n      lt\n      tag_665\n      jumpi\n      tag_665\n      tag_404\n      jump\t// in\n    tag_665:\n      0x00\n      swap2\n      dup3\n      mstore\n      0x20\n      swap1\n      swap2\n      keccak256\n        /* \"TestPool.sol\":13217:13260  userDeposits[user][depositIndices[i]].flags */\n      0x01\n        /* \"TestPool.sol\":13217:13254  userDeposits[user][depositIndices[i]] */\n      0x02\n      swap1\n      swap3\n      mul\n      add\n        /* \"TestPool.sol\":13217:13260  userDeposits[user][depositIndices[i]].flags */\n      dup2\n      add\n        /* \"TestPool.sol\":13217:13272  userDeposits[user][depositIndices[i]].flags |= (1 << 2) */\n      dup1\n      sload\n      0xff\n      swap4\n      dup5\n      and\n      shl(0x30, 0x01)\n      dup1\n      dup4\n      div\n      swap6\n      swap1\n      swap6\n      and\n      or\n      swap1\n      swap4\n      mul\n      not(0xff000000000000)\n      swap1\n      swap4\n      and\n      swap3\n      swap1\n      swap3\n      or\n      swap1\n      swap2\n      sstore\n        /* \"TestPool.sol\":13198:13201  i++ */\n      add\n        /* \"TestPool.sol\":13151:13283  for (uint256 i = 0; i < depositIndices.length; i++) {... */\n      jump(tag_659)\n    tag_660:\n      pop\n        /* \"TestPool.sol\":13029:13289  function setDepositsAsRedeemable(address user, uint256[] calldata depositIndices) external onlyRole(ADMIN_ROLE) {... */\n      pop\n      pop\n      pop\n      pop\n      jump\t// out\n        /* \"TestPool.sol\":7938:8342  function depositETH() external payable nonReentrant whenDepositsNotPaused {... */\n    tag_348:\n        /* \"@openzeppelin/contracts/utils/ReentrancyGuard.sol\":2500:2521   */\n      tag_668\n        /* \"@openzeppelin/contracts/utils/ReentrancyGuard.sol\":2500:2519   */\n      tag_367\n        /* \"@openzeppelin/contracts/utils/ReentrancyGuard.sol\":2500:2521   */\n      jump\t// in\n    tag_668:\n        /* \"TestPool.sol\":4150:4164  pausedDeposits */\n      and(0xff, sload(0x04))\n        /* \"TestPool.sol\":4146:4189  if (pausedDeposits) revert DepositsPaused() */\n      iszero\n      tag_670\n      jumpi\n        /* \"TestPool.sol\":4173:4189  DepositsPaused() */\n      mload(0x40)\n      shl(0xe0, 0xdeeb6943)\n      dup2\n      mstore\n      0x04\n      add\n      mload(0x40)\n      dup1\n      swap2\n      sub\n      swap1\n      revert\n        /* \"TestPool.sol\":4146:4189  if (pausedDeposits) revert DepositsPaused() */\n    tag_670:\n        /* \"TestPool.sol\":8036:8045  msg.value */\n      callvalue\n        /* \"TestPool.sol\":8022:8033  uint256 amt */\n      0x00\n        /* \"TestPool.sol\":8059:8067  amt == 0 */\n      dup2\n      swap1\n      sub\n        /* \"TestPool.sol\":8055:8091  if (amt == 0) revert InvalidAmount() */\n      tag_672\n      jumpi\n        /* \"TestPool.sol\":8076:8091  InvalidAmount() */\n      mload(0x40)\n      shl(0xe1, 0x162908e3)\n      dup2\n      mstore\n      0x04\n      add\n      mload(0x40)\n      dup1\n      swap2\n      sub\n      swap1\n      revert\n        /* \"TestPool.sol\":8055:8091  if (amt == 0) revert InvalidAmount() */\n    tag_672:\n        /* \"TestPool.sol\":8131:8140  maxCapETH */\n      sload(0x03)\n        /* \"TestPool.sol\":8125:8128  amt */\n      dup2\n        /* \"TestPool.sol\":8105:8122  totalDepositedETH */\n      sload(0x0c)\n        /* \"TestPool.sol\":8105:8128  totalDepositedETH + amt */\n      tag_673\n      swap2\n      swap1\n      tag_388\n      jump\t// in\n    tag_673:\n        /* \"TestPool.sol\":8105:8140  totalDepositedETH + amt > maxCapETH */\n      gt\n        /* \"TestPool.sol\":8101:8161  if (totalDepositedETH + amt > maxCapETH) revert CapReached() */\n      iszero\n      tag_674\n      jumpi\n        /* \"TestPool.sol\":8149:8161  CapReached() */\n      mload(0x40)\n      shl(0xe1, 0x6bf4c8e9)\n      dup2\n      mstore\n      0x04\n      add\n      mload(0x40)\n      dup1\n      swap2\n      sub\n      swap1\n      revert\n        /* \"TestPool.sol\":8101:8161  if (totalDepositedETH + amt > maxCapETH) revert CapReached() */\n    tag_674:\n        /* \"TestPool.sol\":8175:8191  whitelistEnabled */\n      sload(0x04)\n      0x010000\n      swap1\n      div\n      0xff\n      and\n        /* \"TestPool.sol\":8175:8223  whitelistEnabled && !isWhitelisted[_msgSender()] */\n      dup1\n      iszero\n      tag_675\n      jumpi\n      pop\n        /* \"TestPool.sol\":8196:8209  isWhitelisted */\n      0x06\n        /* \"TestPool.sol\":8196:8223  isWhitelisted[_msgSender()] */\n      0x00\n        /* \"TestPool.sol\":8210:8222  _msgSender() */\n      tag_676\n        /* \"TestPool.sol\":8210:8220  _msgSender */\n      tag_374\n        /* \"TestPool.sol\":8210:8222  _msgSender() */\n      jump\t// in\n    tag_676:\n      sub(shl(0xa0, 0x01), 0x01)\n        /* \"TestPool.sol\":8196:8223  isWhitelisted[_msgSender()] */\n      and\n      dup2\n      mstore\n      0x20\n      dup2\n      add\n      swap2\n      swap1\n      swap2\n      mstore\n      0x40\n      add\n      0x00\n      keccak256\n      sload\n      0xff\n      and\n        /* \"TestPool.sol\":8195:8223  !isWhitelisted[_msgSender()] */\n      iszero\n        /* \"TestPool.sol\":8175:8223  whitelistEnabled && !isWhitelisted[_msgSender()] */\n    tag_675:\n        /* \"TestPool.sol\":8171:8248  if (whitelistEnabled && !isWhitelisted[_msgSender()]) revert NotWhitelisted() */\n      iszero\n      tag_677\n      jumpi\n        /* \"TestPool.sol\":8232:8248  NotWhitelisted() */\n      mload(0x40)\n      shl(0xe3, 0x0b094f27)\n      dup2\n      mstore\n      0x04\n      add\n      mload(0x40)\n      dup1\n      swap2\n      sub\n      swap1\n      revert\n        /* \"TestPool.sol\":8171:8248  if (whitelistEnabled && !isWhitelisted[_msgSender()]) revert NotWhitelisted() */\n    tag_677:\n        /* \"TestPool.sol\":8259:8301  _registerDeposit(_msgSender(), amt, false) */\n      tag_678\n        /* \"TestPool.sol\":8276:8288  _msgSender() */\n      tag_679\n        /* \"TestPool.sol\":8276:8286  _msgSender */\n      tag_374\n        /* \"TestPool.sol\":8276:8288  _msgSender() */\n      jump\t// in\n    tag_679:\n        /* \"TestPool.sol\":8290:8293  amt */\n      dup3\n        /* \"TestPool.sol\":8295:8300  false */\n      0x00\n        /* \"TestPool.sol\":8259:8275  _registerDeposit */\n      tag_386\n        /* \"TestPool.sol\":8259:8301  _registerDeposit(_msgSender(), amt, false) */\n      jump\t// in\n    tag_678:\n        /* \"TestPool.sol\":8332:8335  amt */\n      dup1\n        /* \"TestPool.sol\":8311:8328  totalDepositedETH */\n      0x0c\n      0x00\n        /* \"TestPool.sol\":8311:8335  totalDepositedETH += amt */\n      dup3\n      dup3\n      sload\n      tag_680\n      swap2\n      swap1\n      tag_388\n      jump\t// in\n    tag_680:\n      swap1\n      swap2\n      sstore\n      pop\n      pop\n        /* \"@openzeppelin/contracts/utils/ReentrancyGuard.sol\":1857:1858   */\n      0x01\n        /* \"@openzeppelin/contracts/utils/ReentrancyGuard.sol\":3068:3089   */\n      dup1\n      sstore\n      pop\n        /* \"TestPool.sol\":14821:15236  function reinvestUtilityETH() external nonReentrant {... */\n      jump\t// out\n        /* \"@openzeppelin/contracts/access/AccessControl.sol\":3175:3278   */\n    tag_359:\n        /* \"@openzeppelin/contracts/access/AccessControl.sol\":3241:3271   */\n      tag_377\n        /* \"@openzeppelin/contracts/access/AccessControl.sol\":3252:3256   */\n      dup2\n        /* \"@openzeppelin/contracts/access/AccessControl.sol\":3258:3270   */\n      tag_685\n        /* \"@openzeppelin/contracts/access/AccessControl.sol\":3258:3268   */\n      tag_374\n        /* \"@openzeppelin/contracts/access/AccessControl.sol\":3258:3270   */\n      jump\t// in\n    tag_685:\n        /* \"@openzeppelin/contracts/access/AccessControl.sol\":3241:3251   */\n      tag_686\n        /* \"@openzeppelin/contracts/access/AccessControl.sol\":3241:3271   */\n      jump\t// in\n        /* \"@openzeppelin/contracts/utils/ReentrancyGuard.sol\":2575:2882   */\n    tag_367:\n        /* \"@openzeppelin/contracts/utils/ReentrancyGuard.sol\":1899:1900   */\n      0x02\n        /* \"@openzeppelin/contracts/utils/ReentrancyGuard.sol\":2702:2709   */\n      sload(0x01)\n        /* \"@openzeppelin/contracts/utils/ReentrancyGuard.sol\":2702:2720   */\n      sub\n        /* \"@openzeppelin/contracts/utils/ReentrancyGuard.sol\":2698:2784   */\n      tag_688\n      jumpi\n        /* \"@openzeppelin/contracts/utils/ReentrancyGuard.sol\":2743:2773   */\n      mload(0x40)\n      shl(0xe0, 0x3ee5aeb5)\n      dup2\n      mstore\n      0x04\n      add\n      mload(0x40)\n      dup1\n      swap2\n      sub\n      swap1\n      revert\n        /* \"@openzeppelin/contracts/utils/ReentrancyGuard.sol\":2698:2784   */\n    tag_688:\n        /* \"@openzeppelin/contracts/utils/ReentrancyGuard.sol\":1899:1900   */\n      0x02\n        /* \"@openzeppelin/contracts/utils/ReentrancyGuard.sol\":2858:2865   */\n      0x01\n        /* \"@openzeppelin/contracts/utils/ReentrancyGuard.sol\":2858:2875   */\n      sstore\n        /* \"@openzeppelin/contracts/utils/ReentrancyGuard.sol\":2575:2882   */\n      jump\t// out\n        /* \"TestPool.sol\":5101:5247  function _msgSender() internal view override(Context, ERC2771Context) returns (address sender) {... */\n    tag_374:\n        /* \"TestPool.sol\":5180:5194  address sender */\n      0x00\n        /* \"TestPool.sol\":5213:5240  ERC2771Context._msgSender() */\n      tag_690\n        /* \"TestPool.sol\":5213:5238  ERC2771Context._msgSender */\n      tag_691\n        /* \"TestPool.sol\":5213:5240  ERC2771Context._msgSender() */\n      jump\t// in\n    tag_690:\n        /* \"TestPool.sol\":5206:5240  return ERC2771Context._msgSender() */\n      swap1\n      pop\n        /* \"TestPool.sol\":5101:5247  function _msgSender() internal view override(Context, ERC2771Context) returns (address sender) {... */\n      swap1\n      jump\t// out\n        /* \"TestPool.sol\":8348:8960  function _registerDeposit(address user, uint256 amount, bool isReinvestment) internal {... */\n    tag_386:\n        /* \"TestPool.sol\":8444:8455  uint8 flags */\n      0x00\n        /* \"TestPool.sol\":8469:8483  isReinvestment */\n      dup2\n        /* \"TestPool.sol\":8465:8534  if (isReinvestment) {... */\n      iszero\n      tag_694\n      jumpi\n        /* \"TestPool.sol\":8516:8522  1 << 3 */\n      0x08\n        /* \"TestPool.sol\":8507:8523  flags | (1 << 3) */\n      or\n        /* \"TestPool.sol\":8465:8534  if (isReinvestment) {... */\n    tag_694:\n      sub(shl(0xa0, 0x01), 0x01)\n        /* \"TestPool.sol\":8544:8562  userDeposits[user] */\n      dup5\n      and\n      0x00\n      dup2\n      dup2\n      mstore\n        /* \"TestPool.sol\":8544:8556  userDeposits */\n      0x05\n        /* \"TestPool.sol\":8544:8562  userDeposits[user] */\n      0x20\n      swap1\n      dup2\n      mstore\n      0x40\n      dup1\n      dup4\n      keccak256\n        /* \"TestPool.sol\":8568:8759  DepositInfo({... */\n      dup2\n      mload\n      0xa0\n      dup2\n      add\n      dup4\n      mstore\n      sub(shl(0x60, 0x01), 0x01)\n      dup1\n      dup11\n      and\n      dup3\n      mstore\n      dup2\n      dup6\n      add\n      dup7\n      dup2\n      mstore\n      0xffffffffffff\n        /* \"TestPool.sol\":8678:8693  block.timestamp */\n      timestamp\n        /* \"TestPool.sol\":8568:8759  DepositInfo({... */\n      dup2\n      and\n      dup5\n      dup8\n      add\n      swap1\n      dup2\n      mstore\n      0x60\n      dup6\n      add\n      dup10\n      dup2\n      mstore\n      0xff\n      dup1\n      dup14\n      and\n      0x80\n      dup9\n      add\n      swap1\n      dup2\n      mstore\n        /* \"TestPool.sol\":8544:8760  userDeposits[user].push(DepositInfo({... */\n      dup9\n      sload\n      0x01\n      dup2\n      dup2\n      add\n      dup12\n      sstore\n      swap10\n      dup14\n      mstore\n      dup12\n      dup14\n      keccak256\n      swap9\n      mload\n      0x02\n      swap1\n      swap2\n      mul\n      swap1\n      swap9\n      add\n      dup1\n      sload\n      swap7\n      mload\n      swap5\n      mload\n      dup7\n      and\n      shl(0xc0, 0x01)\n      mul\n      0xffff000000000000ffffffffffffffffffffffffffffffffffffffffffffffff\n      swap6\n      dup10\n      and\n      shl(0x60, 0x01)\n      mul\n      0xffffffffffffffff000000000000000000000000000000000000000000000000\n      swap1\n      swap9\n      and\n      swap10\n      swap1\n      swap9\n      and\n      swap9\n      swap1\n      swap9\n      or\n      swap6\n      swap1\n      swap6\n      or\n      swap3\n      swap1\n      swap3\n      and\n      swap5\n      swap1\n      swap5\n      or\n      dup6\n      sstore\n      swap3\n      mload\n      swap4\n      swap1\n      swap5\n      add\n      dup1\n      sload\n      swap2\n      mload\n      dup4\n      and\n      shl(0x30, 0x01)\n      mul\n      not(0xffffffffffffff)\n      swap1\n      swap3\n      and\n      swap4\n      swap1\n      swap5\n      and\n      swap3\n      swap1\n      swap3\n      or\n      swap2\n      swap1\n      swap2\n      or\n      swap1\n      swap2\n      sstore\n        /* \"TestPool.sol\":8776:8798  isKnownDepositor[user] */\n      swap4\n      dup4\n      mstore\n        /* \"TestPool.sol\":8776:8792  isKnownDepositor */\n      0x0a\n        /* \"TestPool.sol\":8776:8798  isKnownDepositor[user] */\n      swap1\n      swap2\n      mstore\n      swap1\n      keccak256\n      sload\n      and\n        /* \"TestPool.sol\":8771:8854  if (!isKnownDepositor[user]) {... */\n      tag_696\n      jumpi\n      sub(shl(0xa0, 0x01), 0x01)\n        /* \"TestPool.sol\":8814:8836  isKnownDepositor[user] */\n      dup5\n      and\n      0x00\n      swap1\n      dup2\n      mstore\n        /* \"TestPool.sol\":8814:8830  isKnownDepositor */\n      0x0a\n        /* \"TestPool.sol\":8814:8836  isKnownDepositor[user] */\n      0x20\n      mstore\n      0x40\n      swap1\n      keccak256\n        /* \"TestPool.sol\":8814:8843  isKnownDepositor[user] = true */\n      dup1\n      sload\n      not(0xff)\n      and\n        /* \"TestPool.sol\":8839:8843  true */\n      0x01\n        /* \"TestPool.sol\":8814:8843  isKnownDepositor[user] = true */\n      or\n      swap1\n      sstore\n        /* \"TestPool.sol\":8771:8854  if (!isKnownDepositor[user]) {... */\n    tag_696:\n      sub(shl(0xa0, 0x01), 0x01)\n        /* \"TestPool.sol\":8868:8953  Deposit(user, amount, block.timestamp, userDeposits[user].length - 1, isReinvestment) */\n      dup5\n      and\n        /* \"TestPool.sol\":8907:8925  userDeposits[user] */\n      0x00\n      dup2\n      dup2\n      mstore\n        /* \"TestPool.sol\":8907:8919  userDeposits */\n      0x05\n        /* \"TestPool.sol\":8907:8925  userDeposits[user] */\n      0x20\n      mstore\n      0x40\n      swap1\n      keccak256\n        /* \"TestPool.sol\":8907:8932  userDeposits[user].length */\n      sload\n        /* \"TestPool.sol\":8868:8953  Deposit(user, amount, block.timestamp, userDeposits[user].length - 1, isReinvestment) */\n      0xb270be37bc8056efcfbd6e72df3ade4284f22c6a0c84cb85759cfff07234dd92\n      swap1\n        /* \"TestPool.sol\":8882:8888  amount */\n      dup6\n      swap1\n        /* \"TestPool.sol\":8890:8905  block.timestamp */\n      timestamp\n      swap1\n        /* \"TestPool.sol\":8907:8936  userDeposits[user].length - 1 */\n      tag_697\n      swap1\n        /* \"TestPool.sol\":8935:8936  1 */\n      0x01\n      swap1\n        /* \"TestPool.sol\":8907:8936  userDeposits[user].length - 1 */\n      tag_372\n      jump\t// in\n    tag_697:\n        /* \"TestPool.sol\":8868:8953  Deposit(user, amount, block.timestamp, userDeposits[user].length - 1, isReinvestment) */\n      0x40\n      dup1\n      mload\n        /* \"#utility.yul\":13269:13294   */\n      swap4\n      dup5\n      mstore\n        /* \"#utility.yul\":13325:13327   */\n      0x20\n        /* \"#utility.yul\":13310:13328   */\n      dup5\n      add\n        /* \"#utility.yul\":13303:13337   */\n      swap3\n      swap1\n      swap3\n      mstore\n        /* \"#utility.yul\":13353:13371   */\n      swap1\n      dup3\n      add\n        /* \"#utility.yul\":13346:13380   */\n      mstore\n        /* \"#utility.yul\":13423:13437   */\n      dup5\n      iszero\n        /* \"#utility.yul\":13416:13438   */\n      iszero\n        /* \"#utility.yul\":13411:13413   */\n      0x60\n        /* \"#utility.yul\":13396:13414   */\n      dup3\n      add\n        /* \"#utility.yul\":13389:13439   */\n      mstore\n        /* \"#utility.yul\":13256:13259   */\n      0x80\n        /* \"#utility.yul\":13241:13260   */\n      add\n        /* \"TestPool.sol\":8868:8953  Deposit(user, amount, block.timestamp, userDeposits[user].length - 1, isReinvestment) */\n      tag_561\n        /* \"#utility.yul\":13044:13445   */\n      jump\n        /* \"@openzeppelin/contracts/access/AccessControl.sol\":6155:6471   */\n    tag_435:\n        /* \"@openzeppelin/contracts/access/AccessControl.sol\":6232:6236   */\n      0x00\n        /* \"@openzeppelin/contracts/access/AccessControl.sol\":2930:2942   */\n      dup3\n      dup2\n      mstore\n      0x20\n      dup2\n      dup2\n      mstore\n      0x40\n      dup1\n      dup4\n      keccak256\n      sub(shl(0xa0, 0x01), 0x01)\n        /* \"@openzeppelin/contracts/access/AccessControl.sol\":2930:2959   */\n      dup6\n      and\n      dup5\n      mstore\n      swap1\n      swap2\n      mstore\n      dup2\n      keccak256\n      sload\n      0xff\n      and\n        /* \"@openzeppelin/contracts/access/AccessControl.sol\":6248:6465   */\n      tag_705\n      jumpi\n        /* \"@openzeppelin/contracts/access/AccessControl.sol\":6291:6297   */\n      0x00\n        /* \"@openzeppelin/contracts/access/AccessControl.sol\":6291:6303   */\n      dup4\n      dup2\n      mstore\n      0x20\n      dup2\n      dup2\n      mstore\n      0x40\n      dup1\n      dup4\n      keccak256\n      sub(shl(0xa0, 0x01), 0x01)\n        /* \"@openzeppelin/contracts/access/AccessControl.sol\":6291:6320   */\n      dup7\n      and\n      dup5\n      mstore\n      swap1\n      swap2\n      mstore\n      swap1\n      keccak256\n        /* \"@openzeppelin/contracts/access/AccessControl.sol\":6291:6327   */\n      dup1\n      sload\n      not(0xff)\n      and\n        /* \"@openzeppelin/contracts/access/AccessControl.sol\":6323:6327   */\n      0x01\n        /* \"@openzeppelin/contracts/access/AccessControl.sol\":6291:6327   */\n      or\n      swap1\n      sstore\n        /* \"@openzeppelin/contracts/access/AccessControl.sol\":6373:6385   */\n      tag_706\n        /* \"@openzeppelin/contracts/access/AccessControl.sol\":6373:6383   */\n      tag_374\n        /* \"@openzeppelin/contracts/access/AccessControl.sol\":6373:6385   */\n      jump\t// in\n    tag_706:\n      sub(shl(0xa0, 0x01), 0x01)\n        /* \"@openzeppelin/contracts/access/AccessControl.sol\":6346:6386   */\n      and\n        /* \"@openzeppelin/contracts/access/AccessControl.sol\":6364:6371   */\n      dup3\n      sub(shl(0xa0, 0x01), 0x01)\n        /* \"@openzeppelin/contracts/access/AccessControl.sol\":6346:6386   */\n      and\n        /* \"@openzeppelin/contracts/access/AccessControl.sol\":6358:6362   */\n      dup5\n        /* \"@openzeppelin/contracts/access/AccessControl.sol\":6346:6386   */\n      0x2f8788117e7eff1d82e926ec794901d17c78024a50270940304540a733656f0d\n      mload(0x40)\n      mload(0x40)\n      dup1\n      swap2\n      sub\n      swap1\n      log4\n      pop\n        /* \"@openzeppelin/contracts/access/AccessControl.sol\":6407:6411   */\n      0x01\n        /* \"@openzeppelin/contracts/access/AccessControl.sol\":6400:6411   */\n      jump(tag_355)\n        /* \"@openzeppelin/contracts/access/AccessControl.sol\":6248:6465   */\n    tag_705:\n      pop\n        /* \"@openzeppelin/contracts/access/AccessControl.sol\":6449:6454   */\n      0x00\n        /* \"@openzeppelin/contracts/access/AccessControl.sol\":6442:6454   */\n      jump(tag_355)\n        /* \"@openzeppelin/contracts/access/AccessControl.sol\":6708:7025   */\n    tag_440:\n        /* \"@openzeppelin/contracts/access/AccessControl.sol\":6786:6790   */\n      0x00\n        /* \"@openzeppelin/contracts/access/AccessControl.sol\":2930:2942   */\n      dup3\n      dup2\n      mstore\n      0x20\n      dup2\n      dup2\n      mstore\n      0x40\n      dup1\n      dup4\n      keccak256\n      sub(shl(0xa0, 0x01), 0x01)\n        /* \"@openzeppelin/contracts/access/AccessControl.sol\":2930:2959   */\n      dup6\n      and\n      dup5\n      mstore\n      swap1\n      swap2\n      mstore\n      dup2\n      keccak256\n      sload\n      0xff\n      and\n        /* \"@openzeppelin/contracts/access/AccessControl.sol\":6802:7019   */\n      iszero\n      tag_705\n      jumpi\n        /* \"@openzeppelin/contracts/access/AccessControl.sol\":6876:6881   */\n      0x00\n        /* \"@openzeppelin/contracts/access/AccessControl.sol\":6844:6856   */\n      dup4\n      dup2\n      mstore\n      0x20\n      dup2\n      dup2\n      mstore\n      0x40\n      dup1\n      dup4\n      keccak256\n      sub(shl(0xa0, 0x01), 0x01)\n        /* \"@openzeppelin/contracts/access/AccessControl.sol\":6844:6873   */\n      dup7\n      and\n      dup5\n      mstore\n      swap1\n      swap2\n      mstore\n      swap1\n      keccak256\n        /* \"@openzeppelin/contracts/access/AccessControl.sol\":6844:6881   */\n      dup1\n      sload\n      not(0xff)\n      and\n      swap1\n      sstore\n        /* \"@openzeppelin/contracts/access/AccessControl.sol\":6927:6939   */\n      tag_711\n        /* \"@openzeppelin/contracts/access/AccessControl.sol\":6927:6937   */\n      tag_374\n        /* \"@openzeppelin/contracts/access/AccessControl.sol\":6927:6939   */\n      jump\t// in\n    tag_711:\n      sub(shl(0xa0, 0x01), 0x01)\n        /* \"@openzeppelin/contracts/access/AccessControl.sol\":6900:6940   */\n      and\n        /* \"@openzeppelin/contracts/access/AccessControl.sol\":6918:6925   */\n      dup3\n      sub(shl(0xa0, 0x01), 0x01)\n        /* \"@openzeppelin/contracts/access/AccessControl.sol\":6900:6940   */\n      and\n        /* \"@openzeppelin/contracts/access/AccessControl.sol\":6912:6916   */\n      dup5\n        /* \"@openzeppelin/contracts/access/AccessControl.sol\":6900:6940   */\n      0xf6391f5c32d9c69d2a47ea670b442974b53935d1edc7fd64eb21e047a839171b\n      mload(0x40)\n      mload(0x40)\n      dup1\n      swap2\n      sub\n      swap1\n      log4\n      pop\n        /* \"@openzeppelin/contracts/access/AccessControl.sol\":6961:6965   */\n      0x01\n        /* \"@openzeppelin/contracts/access/AccessControl.sol\":6954:6965   */\n      jump(tag_355)\n        /* \"@openzeppelin/contracts/access/AccessControl.sol\":3408:3605   */\n    tag_686:\n        /* \"@openzeppelin/contracts/access/AccessControl.sol\":2907:2911   */\n      0x00\n        /* \"@openzeppelin/contracts/access/AccessControl.sol\":2930:2942   */\n      dup3\n      dup2\n      mstore\n      0x20\n      dup2\n      dup2\n      mstore\n      0x40\n      dup1\n      dup4\n      keccak256\n      sub(shl(0xa0, 0x01), 0x01)\n        /* \"@openzeppelin/contracts/access/AccessControl.sol\":2930:2959   */\n      dup6\n      and\n      dup5\n      mstore\n      swap1\n      swap2\n      mstore\n      swap1\n      keccak256\n      sload\n      0xff\n      and\n        /* \"@openzeppelin/contracts/access/AccessControl.sol\":3491:3599   */\n      tag_540\n      jumpi\n        /* \"@openzeppelin/contracts/access/AccessControl.sol\":3541:3588   */\n      mload(0x40)\n      shl(0xe0, 0xe2517d3f)\n      dup2\n      mstore\n      sub(shl(0xa0, 0x01), 0x01)\n        /* \"#utility.yul\":12684:12739   */\n      dup3\n      and\n        /* \"@openzeppelin/contracts/access/AccessControl.sol\":3541:3588   */\n      0x04\n      dup3\n      add\n        /* \"#utility.yul\":12666:12740   */\n      mstore\n        /* \"#utility.yul\":12756:12774   */\n      0x24\n      dup2\n      add\n        /* \"#utility.yul\":12749:12783   */\n      dup4\n      swap1\n      mstore\n        /* \"#utility.yul\":12639:12657   */\n      0x44\n      add\n        /* \"@openzeppelin/contracts/access/AccessControl.sol\":3541:3588   */\n      mload(0x40)\n      dup1\n      swap2\n      sub\n      swap1\n      revert\n        /* \"@openzeppelin/contracts/metatx/ERC2771Context.sol\":2206:2677   */\n    tag_691:\n        /* \"@openzeppelin/contracts/metatx/ERC2771Context.sol\":2268:2275   */\n      0x00\n        /* \"@openzeppelin/contracts/metatx/ERC2771Context.sol\":2312:2320   */\n      calldatasize\n        /* \"@openzeppelin/contracts/metatx/ERC2771Context.sol\":3567:3569   */\n      0x14\n        /* \"@openzeppelin/contracts/metatx/ERC2771Context.sol\":2403:2440   */\n      dup1\n      dup3\n      lt\n      dup1\n      iszero\n      swap1\n        /* \"@openzeppelin/contracts/metatx/ERC2771Context.sol\":2403:2474   */\n      tag_722\n      jumpi\n      pop\n        /* \"@openzeppelin/contracts/metatx/ERC2771Context.sol\":1707:1724   */\n      immutable(\"0xe672b8f1e043b1abd7182a7eb25ee85f549ed715877451e167234999e566d177\")\n      sub(shl(0xa0, 0x01), 0x01)\n        /* \"@openzeppelin/contracts/metatx/ERC2771Context.sol\":1931:1962   */\n      and\n        /* \"@openzeppelin/contracts/metatx/ERC2771Context.sol\":2463:2473   */\n      caller\n        /* \"@openzeppelin/contracts/metatx/ERC2771Context.sol\":1931:1962   */\n      eq\n        /* \"@openzeppelin/contracts/metatx/ERC2771Context.sol\":2444:2474   */\n    tag_722:\n        /* \"@openzeppelin/contracts/metatx/ERC2771Context.sol\":2399:2671   */\n      iszero\n      tag_723\n      jumpi\n        /* \"@openzeppelin/contracts/metatx/ERC2771Context.sol\":2541:2588   */\n      tag_724\n        /* \"@openzeppelin/contracts/metatx/ERC2771Context.sol\":2541:2549   */\n      calldatasize\n        /* \"@openzeppelin/contracts/metatx/ERC2771Context.sol\":2550:2586   */\n      dup3\n      dup5\n      sub\n        /* \"@openzeppelin/contracts/metatx/ERC2771Context.sol\":2541:2549   */\n      dup2\n      0x00\n        /* \"@openzeppelin/contracts/metatx/ERC2771Context.sol\":2541:2588   */\n      tag_725\n      jump\t// in\n    tag_724:\n        /* \"@openzeppelin/contracts/metatx/ERC2771Context.sol\":2533:2589   */\n      tag_726\n      swap2\n      tag_727\n      jump\t// in\n    tag_726:\n        /* \"@openzeppelin/contracts/metatx/ERC2771Context.sol\":2525:2590   */\n      0x60\n      shr\n        /* \"@openzeppelin/contracts/metatx/ERC2771Context.sol\":2518:2590   */\n      swap3\n      pop\n      pop\n      pop\n        /* \"@openzeppelin/contracts/metatx/ERC2771Context.sol\":2206:2677   */\n      swap1\n      jump\t// out\n        /* \"@openzeppelin/contracts/metatx/ERC2771Context.sol\":2399:2671   */\n    tag_723:\n        /* \"@openzeppelin/contracts/utils/Context.sol\":735:745   */\n      caller\n        /* \"@openzeppelin/contracts/metatx/ERC2771Context.sol\":2635:2660   */\n      swap3\n      pop\n      pop\n      pop\n        /* \"@openzeppelin/contracts/metatx/ERC2771Context.sol\":2206:2677   */\n      swap1\n      jump\t// out\n        /* \"#utility.yul\":14:300   */\n    tag_84:\n        /* \"#utility.yul\":72:78   */\n      0x00\n        /* \"#utility.yul\":125:127   */\n      0x20\n        /* \"#utility.yul\":113:122   */\n      dup3\n        /* \"#utility.yul\":104:111   */\n      dup5\n        /* \"#utility.yul\":100:123   */\n      sub\n        /* \"#utility.yul\":96:128   */\n      slt\n        /* \"#utility.yul\":93:145   */\n      iszero\n      tag_743\n      jumpi\n        /* \"#utility.yul\":141:142   */\n      0x00\n        /* \"#utility.yul\":138:139   */\n      dup1\n        /* \"#utility.yul\":131:143   */\n      revert\n        /* \"#utility.yul\":93:145   */\n    tag_743:\n        /* \"#utility.yul\":167:190   */\n      dup2\n      calldataload\n      not(sub(shl(0xe0, 0x01), 0x01))\n        /* \"#utility.yul\":219:251   */\n      dup2\n      and\n        /* \"#utility.yul\":209:252   */\n      dup2\n      eq\n        /* \"#utility.yul\":199:270   */\n      tag_744\n      jumpi\n        /* \"#utility.yul\":266:267   */\n      0x00\n        /* \"#utility.yul\":263:264   */\n      dup1\n        /* \"#utility.yul\":256:268   */\n      revert\n        /* \"#utility.yul\":199:270   */\n    tag_744:\n        /* \"#utility.yul\":289:294   */\n      swap4\n        /* \"#utility.yul\":14:300   */\n      swap3\n      pop\n      pop\n      pop\n      jump\t// out\n        /* \"#utility.yul\":497:615   */\n    tag_736:\n        /* \"#utility.yul\":583:588   */\n      dup1\n        /* \"#utility.yul\":576:589   */\n      iszero\n        /* \"#utility.yul\":569:590   */\n      iszero\n        /* \"#utility.yul\":562:567   */\n      dup2\n        /* \"#utility.yul\":559:591   */\n      eq\n        /* \"#utility.yul\":549:609   */\n      tag_377\n      jumpi\n        /* \"#utility.yul\":605:606   */\n      0x00\n        /* \"#utility.yul\":602:603   */\n      dup1\n        /* \"#utility.yul\":595:607   */\n      revert\n        /* \"#utility.yul\":620:861   */\n    tag_91:\n        /* \"#utility.yul\":676:682   */\n      0x00\n        /* \"#utility.yul\":729:731   */\n      0x20\n        /* \"#utility.yul\":717:726   */\n      dup3\n        /* \"#utility.yul\":708:715   */\n      dup5\n        /* \"#utility.yul\":704:727   */\n      sub\n        /* \"#utility.yul\":700:732   */\n      slt\n        /* \"#utility.yul\":697:749   */\n      iszero\n      tag_749\n      jumpi\n        /* \"#utility.yul\":745:746   */\n      0x00\n        /* \"#utility.yul\":742:743   */\n      dup1\n        /* \"#utility.yul\":735:747   */\n      revert\n        /* \"#utility.yul\":697:749   */\n    tag_749:\n        /* \"#utility.yul\":784:793   */\n      dup2\n        /* \"#utility.yul\":771:794   */\n      calldataload\n        /* \"#utility.yul\":803:831   */\n      tag_744\n        /* \"#utility.yul\":825:830   */\n      dup2\n        /* \"#utility.yul\":803:831   */\n      tag_736\n      jump\t// in\n        /* \"#utility.yul\":866:1062   */\n    tag_737:\n        /* \"#utility.yul\":934:954   */\n      dup1\n      calldataload\n      sub(shl(0xa0, 0x01), 0x01)\n        /* \"#utility.yul\":983:1037   */\n      dup2\n      and\n        /* \"#utility.yul\":973:1038   */\n      dup2\n      eq\n        /* \"#utility.yul\":963:1056   */\n      tag_752\n      jumpi\n        /* \"#utility.yul\":1052:1053   */\n      0x00\n        /* \"#utility.yul\":1049:1050   */\n      dup1\n        /* \"#utility.yul\":1042:1054   */\n      revert\n        /* \"#utility.yul\":963:1056   */\n    tag_752:\n        /* \"#utility.yul\":866:1062   */\n      swap2\n      swap1\n      pop\n      jump\t// out\n        /* \"#utility.yul\":1067:1321   */\n    tag_96:\n        /* \"#utility.yul\":1135:1141   */\n      0x00\n        /* \"#utility.yul\":1143:1149   */\n      dup1\n        /* \"#utility.yul\":1196:1198   */\n      0x40\n        /* \"#utility.yul\":1184:1193   */\n      dup4\n        /* \"#utility.yul\":1175:1182   */\n      dup6\n        /* \"#utility.yul\":1171:1194   */\n      sub\n        /* \"#utility.yul\":1167:1199   */\n      slt\n        /* \"#utility.yul\":1164:1216   */\n      iszero\n      tag_754\n      jumpi\n        /* \"#utility.yul\":1212:1213   */\n      0x00\n        /* \"#utility.yul\":1209:1210   */\n      dup1\n        /* \"#utility.yul\":1202:1214   */\n      revert\n        /* \"#utility.yul\":1164:1216   */\n    tag_754:\n        /* \"#utility.yul\":1235:1264   */\n      tag_755\n        /* \"#utility.yul\":1254:1263   */\n      dup4\n        /* \"#utility.yul\":1235:1264   */\n      tag_737\n      jump\t// in\n    tag_755:\n        /* \"#utility.yul\":1225:1264   */\n      swap5\n        /* \"#utility.yul\":1311:1313   */\n      0x20\n        /* \"#utility.yul\":1296:1314   */\n      swap4\n      swap1\n      swap4\n      add\n        /* \"#utility.yul\":1283:1315   */\n      calldataload\n      swap4\n      pop\n      pop\n      pop\n        /* \"#utility.yul\":1067:1321   */\n      jump\t// out\n        /* \"#utility.yul\":2089:2269   */\n    tag_114:\n        /* \"#utility.yul\":2148:2154   */\n      0x00\n        /* \"#utility.yul\":2201:2203   */\n      0x20\n        /* \"#utility.yul\":2189:2198   */\n      dup3\n        /* \"#utility.yul\":2180:2187   */\n      dup5\n        /* \"#utility.yul\":2176:2199   */\n      sub\n        /* \"#utility.yul\":2172:2204   */\n      slt\n        /* \"#utility.yul\":2169:2221   */\n      iszero\n      tag_759\n      jumpi\n        /* \"#utility.yul\":2217:2218   */\n      0x00\n        /* \"#utility.yul\":2214:2215   */\n      dup1\n        /* \"#utility.yul\":2207:2219   */\n      revert\n        /* \"#utility.yul\":2169:2221   */\n    tag_759:\n      pop\n        /* \"#utility.yul\":2240:2263   */\n      calldataload\n      swap2\n        /* \"#utility.yul\":2089:2269   */\n      swap1\n      pop\n      jump\t// out\n        /* \"#utility.yul\":2274:2460   */\n    tag_123:\n        /* \"#utility.yul\":2333:2339   */\n      0x00\n        /* \"#utility.yul\":2386:2388   */\n      0x20\n        /* \"#utility.yul\":2374:2383   */\n      dup3\n        /* \"#utility.yul\":2365:2372   */\n      dup5\n        /* \"#utility.yul\":2361:2384   */\n      sub\n        /* \"#utility.yul\":2357:2389   */\n      slt\n        /* \"#utility.yul\":2354:2406   */\n      iszero\n      tag_761\n      jumpi\n        /* \"#utility.yul\":2402:2403   */\n      0x00\n        /* \"#utility.yul\":2399:2400   */\n      dup1\n        /* \"#utility.yul\":2392:2404   */\n      revert\n        /* \"#utility.yul\":2354:2406   */\n    tag_761:\n        /* \"#utility.yul\":2425:2454   */\n      tag_744\n        /* \"#utility.yul\":2444:2453   */\n      dup3\n        /* \"#utility.yul\":2425:2454   */\n      tag_737\n      jump\t// in\n        /* \"#utility.yul\":2465:3654   */\n    tag_126:\n        /* \"#utility.yul\":2694:2696   */\n      0x20\n        /* \"#utility.yul\":2746:2767   */\n      dup1\n      dup3\n      mstore\n        /* \"#utility.yul\":2816:2829   */\n      dup3\n      mload\n        /* \"#utility.yul\":2719:2737   */\n      dup3\n      dup3\n      add\n        /* \"#utility.yul\":2838:2860   */\n      dup2\n      swap1\n      mstore\n        /* \"#utility.yul\":2665:2669   */\n      0x00\n      swap2\n        /* \"#utility.yul\":2694:2696   */\n      swap1\n        /* \"#utility.yul\":2879:2881   */\n      0x40\n      swap1\n        /* \"#utility.yul\":2897:2915   */\n      dup2\n      dup6\n      add\n      swap1\n        /* \"#utility.yul\":2938:2953   */\n      dup7\n      dup5\n      add\n        /* \"#utility.yul\":2665:2669   */\n      dup6\n        /* \"#utility.yul\":2981:3628   */\n    tag_764:\n        /* \"#utility.yul\":2995:3001   */\n      dup3\n        /* \"#utility.yul\":2992:2993   */\n      dup2\n        /* \"#utility.yul\":2989:3002   */\n      lt\n        /* \"#utility.yul\":2981:3628   */\n      iszero\n      tag_766\n      jumpi\n        /* \"#utility.yul\":3054:3067   */\n      dup2\n      mload\n        /* \"#utility.yul\":3145:3154   */\n      dup1\n      mload\n      sub(shl(0x60, 0x01), 0x01)\n        /* \"#utility.yul\":3141:3159   */\n      swap1\n      dup2\n      and\n        /* \"#utility.yul\":3129:3160   */\n      dup7\n      mstore\n        /* \"#utility.yul\":3204:3215   */\n      dup8\n      dup3\n      add\n        /* \"#utility.yul\":3198:3216   */\n      mload\n        /* \"#utility.yul\":3194:3221   */\n      and\n        /* \"#utility.yul\":3180:3192   */\n      dup8\n      dup7\n      add\n        /* \"#utility.yul\":3173:3222   */\n      mstore\n        /* \"#utility.yul\":3261:3272   */\n      dup6\n      dup2\n      add\n        /* \"#utility.yul\":3255:3273   */\n      mload\n        /* \"#utility.yul\":3296:3310   */\n      0xffffffffffff\n        /* \"#utility.yul\":3344:3365   */\n      swap1\n      dup2\n      and\n        /* \"#utility.yul\":3330:3342   */\n      dup8\n      dup8\n      add\n        /* \"#utility.yul\":3323:3366   */\n      mstore\n        /* \"#utility.yul\":3389:3393   */\n      0x60\n        /* \"#utility.yul\":3437:3448   */\n      dup1\n      dup4\n      add\n        /* \"#utility.yul\":3431:3449   */\n      mload\n        /* \"#utility.yul\":3427:3454   */\n      swap1\n      swap2\n      and\n        /* \"#utility.yul\":3413:3425   */\n      swap1\n      dup7\n      add\n        /* \"#utility.yul\":3406:3455   */\n      mstore\n        /* \"#utility.yul\":3478:3482   */\n      0x80\n        /* \"#utility.yul\":3526:3537   */\n      swap1\n      dup2\n      add\n        /* \"#utility.yul\":3520:3538   */\n      mload\n        /* \"#utility.yul\":3540:3544   */\n      0xff\n        /* \"#utility.yul\":3516:3545   */\n      and\n        /* \"#utility.yul\":3502:3514   */\n      swap1\n      dup6\n      add\n        /* \"#utility.yul\":3495:3546   */\n      mstore\n        /* \"#utility.yul\":3575:3579   */\n      0xa0\n        /* \"#utility.yul\":3566:3580   */\n      swap1\n      swap4\n      add\n      swap3\n        /* \"#utility.yul\":3603:3618   */\n      swap1\n      dup6\n      add\n      swap1\n        /* \"#utility.yul\":3017:3018   */\n      0x01\n        /* \"#utility.yul\":3010:3019   */\n      add\n        /* \"#utility.yul\":2981:3628   */\n      jump(tag_764)\n    tag_766:\n      pop\n        /* \"#utility.yul\":3645:3648   */\n      swap2\n      swap8\n        /* \"#utility.yul\":2465:3654   */\n      swap7\n      pop\n      pop\n      pop\n      pop\n      pop\n      pop\n      pop\n      jump\t// out\n        /* \"#utility.yul\":3844:4098   */\n    tag_135:\n        /* \"#utility.yul\":3912:3918   */\n      0x00\n        /* \"#utility.yul\":3920:3926   */\n      dup1\n        /* \"#utility.yul\":3973:3975   */\n      0x40\n        /* \"#utility.yul\":3961:3970   */\n      dup4\n        /* \"#utility.yul\":3952:3959   */\n      dup6\n        /* \"#utility.yul\":3948:3971   */\n      sub\n        /* \"#utility.yul\":3944:3976   */\n      slt\n        /* \"#utility.yul\":3941:3993   */\n      iszero\n      tag_770\n      jumpi\n        /* \"#utility.yul\":3989:3990   */\n      0x00\n        /* \"#utility.yul\":3986:3987   */\n      dup1\n        /* \"#utility.yul\":3979:3991   */\n      revert\n        /* \"#utility.yul\":3941:3993   */\n    tag_770:\n        /* \"#utility.yul\":4025:4034   */\n      dup3\n        /* \"#utility.yul\":4012:4035   */\n      calldataload\n        /* \"#utility.yul\":4002:4035   */\n      swap2\n      pop\n        /* \"#utility.yul\":4054:4092   */\n      tag_771\n        /* \"#utility.yul\":4088:4090   */\n      0x20\n        /* \"#utility.yul\":4077:4086   */\n      dup5\n        /* \"#utility.yul\":4073:4091   */\n      add\n        /* \"#utility.yul\":4054:4092   */\n      tag_737\n      jump\t// in\n    tag_771:\n        /* \"#utility.yul\":4044:4092   */\n      swap1\n      pop\n        /* \"#utility.yul\":3844:4098   */\n      swap3\n      pop\n      swap3\n      swap1\n      pop\n      jump\t// out\n        /* \"#utility.yul\":4285:4652   */\n    tag_738:\n        /* \"#utility.yul\":4348:4356   */\n      0x00\n        /* \"#utility.yul\":4358:4364   */\n      dup1\n        /* \"#utility.yul\":4412:4415   */\n      dup4\n        /* \"#utility.yul\":4405:4409   */\n      0x1f\n        /* \"#utility.yul\":4397:4403   */\n      dup5\n        /* \"#utility.yul\":4393:4410   */\n      add\n        /* \"#utility.yul\":4389:4416   */\n      slt\n        /* \"#utility.yul\":4379:4434   */\n      tag_774\n      jumpi\n        /* \"#utility.yul\":4430:4431   */\n      0x00\n        /* \"#utility.yul\":4427:4428   */\n      dup1\n        /* \"#utility.yul\":4420:4432   */\n      revert\n        /* \"#utility.yul\":4379:4434   */\n    tag_774:\n      pop\n        /* \"#utility.yul\":4453:4473   */\n      dup2\n      calldataload\n        /* \"#utility.yul\":4496:4514   */\n      0xffffffffffffffff\n        /* \"#utility.yul\":4485:4515   */\n      dup2\n      gt\n        /* \"#utility.yul\":4482:4532   */\n      iszero\n      tag_775\n      jumpi\n        /* \"#utility.yul\":4528:4529   */\n      0x00\n        /* \"#utility.yul\":4525:4526   */\n      dup1\n        /* \"#utility.yul\":4518:4530   */\n      revert\n        /* \"#utility.yul\":4482:4532   */\n    tag_775:\n        /* \"#utility.yul\":4565:4569   */\n      0x20\n        /* \"#utility.yul\":4557:4563   */\n      dup4\n        /* \"#utility.yul\":4553:4570   */\n      add\n        /* \"#utility.yul\":4541:4570   */\n      swap2\n      pop\n        /* \"#utility.yul\":4625:4628   */\n      dup4\n        /* \"#utility.yul\":4618:4622   */\n      0x20\n        /* \"#utility.yul\":4608:4614   */\n      dup3\n        /* \"#utility.yul\":4605:4606   */\n      0x05\n        /* \"#utility.yul\":4601:4615   */\n      shl\n        /* \"#utility.yul\":4593:4599   */\n      dup6\n        /* \"#utility.yul\":4589:4616   */\n      add\n        /* \"#utility.yul\":4585:4623   */\n      add\n        /* \"#utility.yul\":4582:4629   */\n      gt\n        /* \"#utility.yul\":4579:4646   */\n      iszero\n      tag_776\n      jumpi\n        /* \"#utility.yul\":4642:4643   */\n      0x00\n        /* \"#utility.yul\":4639:4640   */\n      dup1\n        /* \"#utility.yul\":4632:4644   */\n      revert\n        /* \"#utility.yul\":4579:4646   */\n    tag_776:\n        /* \"#utility.yul\":4285:4652   */\n      swap3\n      pop\n      swap3\n      swap1\n      pop\n      jump\t// out\n        /* \"#utility.yul\":4657:5427   */\n    tag_155:\n        /* \"#utility.yul\":4776:4782   */\n      0x00\n        /* \"#utility.yul\":4784:4790   */\n      dup1\n        /* \"#utility.yul\":4792:4798   */\n      0x00\n        /* \"#utility.yul\":4800:4806   */\n      dup1\n        /* \"#utility.yul\":4853:4855   */\n      0x40\n        /* \"#utility.yul\":4841:4850   */\n      dup6\n        /* \"#utility.yul\":4832:4839   */\n      dup8\n        /* \"#utility.yul\":4828:4851   */\n      sub\n        /* \"#utility.yul\":4824:4856   */\n      slt\n        /* \"#utility.yul\":4821:4873   */\n      iszero\n      tag_778\n      jumpi\n        /* \"#utility.yul\":4869:4870   */\n      0x00\n        /* \"#utility.yul\":4866:4867   */\n      dup1\n        /* \"#utility.yul\":4859:4871   */\n      revert\n        /* \"#utility.yul\":4821:4873   */\n    tag_778:\n        /* \"#utility.yul\":4909:4918   */\n      dup5\n        /* \"#utility.yul\":4896:4919   */\n      calldataload\n        /* \"#utility.yul\":4938:4956   */\n      0xffffffffffffffff\n        /* \"#utility.yul\":4979:4981   */\n      dup1\n        /* \"#utility.yul\":4971:4977   */\n      dup3\n        /* \"#utility.yul\":4968:4982   */\n      gt\n        /* \"#utility.yul\":4965:4999   */\n      iszero\n      tag_779\n      jumpi\n        /* \"#utility.yul\":4995:4996   */\n      0x00\n        /* \"#utility.yul\":4992:4993   */\n      dup1\n        /* \"#utility.yul\":4985:4997   */\n      revert\n        /* \"#utility.yul\":4965:4999   */\n    tag_779:\n        /* \"#utility.yul\":5034:5104   */\n      tag_780\n        /* \"#utility.yul\":5096:5103   */\n      dup9\n        /* \"#utility.yul\":5087:5093   */\n      dup4\n        /* \"#utility.yul\":5076:5085   */\n      dup10\n        /* \"#utility.yul\":5072:5094   */\n      add\n        /* \"#utility.yul\":5034:5104   */\n      tag_738\n      jump\t// in\n    tag_780:\n        /* \"#utility.yul\":5123:5131   */\n      swap1\n      swap7\n      pop\n        /* \"#utility.yul\":5008:5104   */\n      swap5\n      pop\n        /* \"#utility.yul\":5211:5213   */\n      0x20\n        /* \"#utility.yul\":5196:5214   */\n      dup8\n      add\n        /* \"#utility.yul\":5183:5215   */\n      calldataload\n      swap2\n      pop\n        /* \"#utility.yul\":5227:5243   */\n      dup1\n      dup3\n      gt\n        /* \"#utility.yul\":5224:5260   */\n      iszero\n      tag_781\n      jumpi\n        /* \"#utility.yul\":5256:5257   */\n      0x00\n        /* \"#utility.yul\":5253:5254   */\n      dup1\n        /* \"#utility.yul\":5246:5258   */\n      revert\n        /* \"#utility.yul\":5224:5260   */\n    tag_781:\n      pop\n        /* \"#utility.yul\":5295:5367   */\n      tag_782\n        /* \"#utility.yul\":5359:5366   */\n      dup8\n        /* \"#utility.yul\":5348:5356   */\n      dup3\n        /* \"#utility.yul\":5337:5346   */\n      dup9\n        /* \"#utility.yul\":5333:5357   */\n      add\n        /* \"#utility.yul\":5295:5367   */\n      tag_738\n      jump\t// in\n    tag_782:\n        /* \"#utility.yul\":4657:5427   */\n      swap6\n      swap9\n      swap5\n      swap8\n      pop\n        /* \"#utility.yul\":5386:5394   */\n      swap6\n      pop\n      pop\n      pop\n      pop\n        /* \"#utility.yul\":4657:5427   */\n      jump\t// out\n        /* \"#utility.yul\":5828:6143   */\n    tag_170:\n        /* \"#utility.yul\":5893:5899   */\n      0x00\n        /* \"#utility.yul\":5901:5907   */\n      dup1\n        /* \"#utility.yul\":5954:5956   */\n      0x40\n        /* \"#utility.yul\":5942:5951   */\n      dup4\n        /* \"#utility.yul\":5933:5940   */\n      dup6\n        /* \"#utility.yul\":5929:5952   */\n      sub\n        /* \"#utility.yul\":5925:5957   */\n      slt\n        /* \"#utility.yul\":5922:5974   */\n      iszero\n      tag_785\n      jumpi\n        /* \"#utility.yul\":5970:5971   */\n      0x00\n        /* \"#utility.yul\":5967:5968   */\n      dup1\n        /* \"#utility.yul\":5960:5972   */\n      revert\n        /* \"#utility.yul\":5922:5974   */\n    tag_785:\n        /* \"#utility.yul\":5993:6022   */\n      tag_786\n        /* \"#utility.yul\":6012:6021   */\n      dup4\n        /* \"#utility.yul\":5993:6022   */\n      tag_737\n      jump\t// in\n    tag_786:\n        /* \"#utility.yul\":5983:6022   */\n      swap2\n      pop\n        /* \"#utility.yul\":6072:6074   */\n      0x20\n        /* \"#utility.yul\":6061:6070   */\n      dup4\n        /* \"#utility.yul\":6057:6075   */\n      add\n        /* \"#utility.yul\":6044:6076   */\n      calldataload\n        /* \"#utility.yul\":6085:6113   */\n      tag_787\n        /* \"#utility.yul\":6107:6112   */\n      dup2\n        /* \"#utility.yul\":6085:6113   */\n      tag_736\n      jump\t// in\n    tag_787:\n        /* \"#utility.yul\":6132:6137   */\n      dup1\n        /* \"#utility.yul\":6122:6137   */\n      swap2\n      pop\n      pop\n        /* \"#utility.yul\":5828:6143   */\n      swap3\n      pop\n      swap3\n      swap1\n      pop\n      jump\t// out\n        /* \"#utility.yul\":6148:6566   */\n    tag_176:\n        /* \"#utility.yul\":6297:6299   */\n      0x20\n        /* \"#utility.yul\":6286:6295   */\n      dup2\n        /* \"#utility.yul\":6279:6300   */\n      mstore\n        /* \"#utility.yul\":6260:6264   */\n      0x00\n        /* \"#utility.yul\":6329:6335   */\n      dup3\n        /* \"#utility.yul\":6323:6336   */\n      mload\n        /* \"#utility.yul\":6372:6378   */\n      dup1\n        /* \"#utility.yul\":6367:6369   */\n      0x20\n        /* \"#utility.yul\":6356:6365   */\n      dup5\n        /* \"#utility.yul\":6352:6370   */\n      add\n        /* \"#utility.yul\":6345:6379   */\n      mstore\n        /* \"#utility.yul\":6431:6437   */\n      dup1\n        /* \"#utility.yul\":6426:6428   */\n      0x20\n        /* \"#utility.yul\":6418:6424   */\n      dup6\n        /* \"#utility.yul\":6414:6429   */\n      add\n        /* \"#utility.yul\":6409:6411   */\n      0x40\n        /* \"#utility.yul\":6398:6407   */\n      dup6\n        /* \"#utility.yul\":6394:6412   */\n      add\n        /* \"#utility.yul\":6388:6438   */\n      mcopy\n        /* \"#utility.yul\":6487:6488   */\n      0x00\n        /* \"#utility.yul\":6482:6484   */\n      0x40\n        /* \"#utility.yul\":6473:6479   */\n      dup3\n        /* \"#utility.yul\":6462:6471   */\n      dup6\n        /* \"#utility.yul\":6458:6480   */\n      add\n        /* \"#utility.yul\":6454:6485   */\n      add\n        /* \"#utility.yul\":6447:6489   */\n      mstore\n        /* \"#utility.yul\":6557:6559   */\n      0x40\n        /* \"#utility.yul\":6550:6552   */\n      0x1f\n        /* \"#utility.yul\":6546:6553   */\n      not\n        /* \"#utility.yul\":6541:6543   */\n      0x1f\n        /* \"#utility.yul\":6533:6539   */\n      dup4\n        /* \"#utility.yul\":6529:6544   */\n      add\n        /* \"#utility.yul\":6525:6554   */\n      and\n        /* \"#utility.yul\":6514:6523   */\n      dup5\n        /* \"#utility.yul\":6510:6555   */\n      add\n        /* \"#utility.yul\":6506:6560   */\n      add\n        /* \"#utility.yul\":6498:6560   */\n      swap2\n      pop\n      pop\n        /* \"#utility.yul\":6148:6566   */\n      swap3\n      swap2\n      pop\n      pop\n      jump\t// out\n        /* \"#utility.yul\":6772:7148   */\n    tag_201:\n        /* \"#utility.yul\":6834:6840   */\n      0x00\n        /* \"#utility.yul\":6842:6848   */\n      dup1\n        /* \"#utility.yul\":6895:6897   */\n      0x40\n        /* \"#utility.yul\":6883:6892   */\n      dup4\n        /* \"#utility.yul\":6874:6881   */\n      dup6\n        /* \"#utility.yul\":6870:6893   */\n      sub\n        /* \"#utility.yul\":6866:6898   */\n      slt\n        /* \"#utility.yul\":6863:6915   */\n      iszero\n      tag_791\n      jumpi\n        /* \"#utility.yul\":6911:6912   */\n      0x00\n        /* \"#utility.yul\":6908:6909   */\n      dup1\n        /* \"#utility.yul\":6901:6913   */\n      revert\n        /* \"#utility.yul\":6863:6915   */\n    tag_791:\n        /* \"#utility.yul\":6950:6959   */\n      dup3\n        /* \"#utility.yul\":6937:6960   */\n      calldataload\n        /* \"#utility.yul\":6969:6997   */\n      tag_786\n        /* \"#utility.yul\":6991:6996   */\n      dup2\n        /* \"#utility.yul\":6969:6997   */\n      tag_736\n      jump\t// in\n        /* \"#utility.yul\":7153:7590   */\n    tag_215:\n        /* \"#utility.yul\":7239:7245   */\n      0x00\n        /* \"#utility.yul\":7247:7253   */\n      dup1\n        /* \"#utility.yul\":7300:7302   */\n      0x20\n        /* \"#utility.yul\":7288:7297   */\n      dup4\n        /* \"#utility.yul\":7279:7286   */\n      dup6\n        /* \"#utility.yul\":7275:7298   */\n      sub\n        /* \"#utility.yul\":7271:7303   */\n      slt\n        /* \"#utility.yul\":7268:7320   */\n      iszero\n      tag_795\n      jumpi\n        /* \"#utility.yul\":7316:7317   */\n      0x00\n        /* \"#utility.yul\":7313:7314   */\n      dup1\n        /* \"#utility.yul\":7306:7318   */\n      revert\n        /* \"#utility.yul\":7268:7320   */\n    tag_795:\n        /* \"#utility.yul\":7356:7365   */\n      dup3\n        /* \"#utility.yul\":7343:7366   */\n      calldataload\n        /* \"#utility.yul\":7389:7407   */\n      0xffffffffffffffff\n        /* \"#utility.yul\":7381:7387   */\n      dup2\n        /* \"#utility.yul\":7378:7408   */\n      gt\n        /* \"#utility.yul\":7375:7425   */\n      iszero\n      tag_796\n      jumpi\n        /* \"#utility.yul\":7421:7422   */\n      0x00\n        /* \"#utility.yul\":7418:7419   */\n      dup1\n        /* \"#utility.yul\":7411:7423   */\n      revert\n        /* \"#utility.yul\":7375:7425   */\n    tag_796:\n        /* \"#utility.yul\":7460:7530   */\n      tag_797\n        /* \"#utility.yul\":7522:7529   */\n      dup6\n        /* \"#utility.yul\":7513:7519   */\n      dup3\n        /* \"#utility.yul\":7502:7511   */\n      dup7\n        /* \"#utility.yul\":7498:7520   */\n      add\n        /* \"#utility.yul\":7460:7530   */\n      tag_738\n      jump\t// in\n    tag_797:\n        /* \"#utility.yul\":7549:7557   */\n      swap1\n      swap7\n        /* \"#utility.yul\":7434:7530   */\n      swap1\n      swap6\n      pop\n        /* \"#utility.yul\":7153:7590   */\n      swap4\n      pop\n      pop\n      pop\n      pop\n      jump\t// out\n        /* \"#utility.yul\":7826:8337   */\n    tag_233:\n        /* \"#utility.yul\":7921:7927   */\n      0x00\n        /* \"#utility.yul\":7929:7935   */\n      dup1\n        /* \"#utility.yul\":7937:7943   */\n      0x00\n        /* \"#utility.yul\":7990:7992   */\n      0x40\n        /* \"#utility.yul\":7978:7987   */\n      dup5\n        /* \"#utility.yul\":7969:7976   */\n      dup7\n        /* \"#utility.yul\":7965:7988   */\n      sub\n        /* \"#utility.yul\":7961:7993   */\n      slt\n        /* \"#utility.yul\":7958:8010   */\n      iszero\n      tag_800\n      jumpi\n        /* \"#utility.yul\":8006:8007   */\n      0x00\n        /* \"#utility.yul\":8003:8004   */\n      dup1\n        /* \"#utility.yul\":7996:8008   */\n      revert\n        /* \"#utility.yul\":7958:8010   */\n    tag_800:\n        /* \"#utility.yul\":8029:8058   */\n      tag_801\n        /* \"#utility.yul\":8048:8057   */\n      dup5\n        /* \"#utility.yul\":8029:8058   */\n      tag_737\n      jump\t// in\n    tag_801:\n        /* \"#utility.yul\":8019:8058   */\n      swap3\n      pop\n        /* \"#utility.yul\":8109:8111   */\n      0x20\n        /* \"#utility.yul\":8098:8107   */\n      dup5\n        /* \"#utility.yul\":8094:8112   */\n      add\n        /* \"#utility.yul\":8081:8113   */\n      calldataload\n        /* \"#utility.yul\":8136:8154   */\n      0xffffffffffffffff\n        /* \"#utility.yul\":8128:8134   */\n      dup2\n        /* \"#utility.yul\":8125:8155   */\n      gt\n        /* \"#utility.yul\":8122:8172   */\n      iszero\n      tag_802\n      jumpi\n        /* \"#utility.yul\":8168:8169   */\n      0x00\n        /* \"#utility.yul\":8165:8166   */\n      dup1\n        /* \"#utility.yul\":8158:8170   */\n      revert\n        /* \"#utility.yul\":8122:8172   */\n    tag_802:\n        /* \"#utility.yul\":8207:8277   */\n      tag_803\n        /* \"#utility.yul\":8269:8276   */\n      dup7\n        /* \"#utility.yul\":8260:8266   */\n      dup3\n        /* \"#utility.yul\":8249:8258   */\n      dup8\n        /* \"#utility.yul\":8245:8267   */\n      add\n        /* \"#utility.yul\":8207:8277   */\n      tag_738\n      jump\t// in\n    tag_803:\n        /* \"#utility.yul\":7826:8337   */\n      swap5\n      swap8\n        /* \"#utility.yul\":8296:8304   */\n      swap1\n      swap7\n      pop\n        /* \"#utility.yul\":8181:8277   */\n      swap4\n      swap5\n      pop\n      pop\n      pop\n      pop\n        /* \"#utility.yul\":7826:8337   */\n      jump\t// out\n        /* \"#utility.yul\":8954:9282   */\n    tag_290:\n        /* \"#utility.yul\":9031:9037   */\n      0x00\n        /* \"#utility.yul\":9039:9045   */\n      dup1\n        /* \"#utility.yul\":9047:9053   */\n      0x00\n        /* \"#utility.yul\":9100:9102   */\n      0x60\n        /* \"#utility.yul\":9088:9097   */\n      dup5\n        /* \"#utility.yul\":9079:9086   */\n      dup7\n        /* \"#utility.yul\":9075:9098   */\n      sub\n        /* \"#utility.yul\":9071:9103   */\n      slt\n        /* \"#utility.yul\":9068:9120   */\n      iszero\n      tag_806\n      jumpi\n        /* \"#utility.yul\":9116:9117   */\n      0x00\n        /* \"#utility.yul\":9113:9114   */\n      dup1\n        /* \"#utility.yul\":9106:9118   */\n      revert\n        /* \"#utility.yul\":9068:9120   */\n    tag_806:\n        /* \"#utility.yul\":9139:9168   */\n      tag_807\n        /* \"#utility.yul\":9158:9167   */\n      dup5\n        /* \"#utility.yul\":9139:9168   */\n      tag_737\n      jump\t// in\n    tag_807:\n        /* \"#utility.yul\":9129:9168   */\n      swap3\n      pop\n        /* \"#utility.yul\":9187:9225   */\n      tag_808\n        /* \"#utility.yul\":9221:9223   */\n      0x20\n        /* \"#utility.yul\":9210:9219   */\n      dup6\n        /* \"#utility.yul\":9206:9224   */\n      add\n        /* \"#utility.yul\":9187:9225   */\n      tag_737\n      jump\t// in\n    tag_808:\n        /* \"#utility.yul\":9177:9225   */\n      swap2\n      pop\n        /* \"#utility.yul\":9272:9274   */\n      0x40\n        /* \"#utility.yul\":9261:9270   */\n      dup5\n        /* \"#utility.yul\":9257:9275   */\n      add\n        /* \"#utility.yul\":9244:9276   */\n      calldataload\n        /* \"#utility.yul\":9234:9276   */\n      swap1\n      pop\n        /* \"#utility.yul\":8954:9282   */\n      swap3\n      pop\n      swap3\n      pop\n      swap3\n      jump\t// out\n        /* \"#utility.yul\":10065:10192   */\n    tag_739:\n        /* \"#utility.yul\":10126:10136   */\n      0x4e487b71\n        /* \"#utility.yul\":10121:10124   */\n      0xe0\n        /* \"#utility.yul\":10117:10137   */\n      shl\n        /* \"#utility.yul\":10114:10115   */\n      0x00\n        /* \"#utility.yul\":10107:10138   */\n      mstore\n        /* \"#utility.yul\":10157:10161   */\n      0x11\n        /* \"#utility.yul\":10154:10155   */\n      0x04\n        /* \"#utility.yul\":10147:10162   */\n      mstore\n        /* \"#utility.yul\":10181:10185   */\n      0x24\n        /* \"#utility.yul\":10178:10179   */\n      0x00\n        /* \"#utility.yul\":10171:10186   */\n      revert\n        /* \"#utility.yul\":10197:10325   */\n    tag_372:\n        /* \"#utility.yul\":10264:10273   */\n      dup2\n      dup2\n      sub\n        /* \"#utility.yul\":10285:10296   */\n      dup2\n      dup2\n      gt\n        /* \"#utility.yul\":10282:10319   */\n      iszero\n      tag_355\n      jumpi\n        /* \"#utility.yul\":10299:10317   */\n      tag_355\n      tag_739\n      jump\t// in\n        /* \"#utility.yul\":10583:10708   */\n    tag_388:\n        /* \"#utility.yul\":10648:10657   */\n      dup1\n      dup3\n      add\n        /* \"#utility.yul\":10669:10679   */\n      dup1\n      dup3\n      gt\n        /* \"#utility.yul\":10666:10702   */\n      iszero\n      tag_355\n      jumpi\n        /* \"#utility.yul\":10682:10700   */\n      tag_355\n      tag_739\n      jump\t// in\n        /* \"#utility.yul\":10713:10840   */\n    tag_404:\n        /* \"#utility.yul\":10774:10784   */\n      0x4e487b71\n        /* \"#utility.yul\":10769:10772   */\n      0xe0\n        /* \"#utility.yul\":10765:10785   */\n      shl\n        /* \"#utility.yul\":10762:10763   */\n      0x00\n        /* \"#utility.yul\":10755:10786   */\n      mstore\n        /* \"#utility.yul\":10805:10809   */\n      0x32\n        /* \"#utility.yul\":10802:10803   */\n      0x04\n        /* \"#utility.yul\":10795:10810   */\n      mstore\n        /* \"#utility.yul\":10829:10833   */\n      0x24\n        /* \"#utility.yul\":10826:10827   */\n      0x00\n        /* \"#utility.yul\":10819:10834   */\n      revert\n        /* \"#utility.yul\":11328:11686   */\n    tag_740:\n        /* \"#utility.yul\":11428:11434   */\n      dup2\n        /* \"#utility.yul\":11423:11426   */\n      dup4\n        /* \"#utility.yul\":11416:11435   */\n      mstore\n        /* \"#utility.yul\":11398:11401   */\n      0x00\n        /* \"#utility.yul\":11458:11524   */\n      0x07ffffffffffffffffffffffffffffffffffffffffffffffffffffffffffffff\n        /* \"#utility.yul\":11450:11456   */\n      dup4\n        /* \"#utility.yul\":11447:11525   */\n      gt\n        /* \"#utility.yul\":11444:11542   */\n      iszero\n      tag_827\n      jumpi\n        /* \"#utility.yul\":11538:11539   */\n      0x00\n        /* \"#utility.yul\":11535:11536   */\n      dup1\n        /* \"#utility.yul\":11528:11540   */\n      revert\n        /* \"#utility.yul\":11444:11542   */\n    tag_827:\n        /* \"#utility.yul\":11574:11580   */\n      dup3\n        /* \"#utility.yul\":11571:11572   */\n      0x05\n        /* \"#utility.yul\":11567:11581   */\n      shl\n        /* \"#utility.yul\":11626:11634   */\n      dup1\n        /* \"#utility.yul\":11619:11624   */\n      dup4\n        /* \"#utility.yul\":11612:11616   */\n      0x20\n        /* \"#utility.yul\":11607:11610   */\n      dup8\n        /* \"#utility.yul\":11603:11617   */\n      add\n        /* \"#utility.yul\":11590:11635   */\n      calldatacopy\n        /* \"#utility.yul\":11655:11673   */\n      swap4\n      swap1\n      swap4\n      add\n        /* \"#utility.yul\":11675:11679   */\n      0x20\n        /* \"#utility.yul\":11651:11680   */\n      add\n      swap4\n        /* \"#utility.yul\":11328:11686   */\n      swap3\n      pop\n      pop\n      pop\n      jump\t// out\n        /* \"#utility.yul\":11691:12194   */\n    tag_539:\n        /* \"#utility.yul\":11964:11967   */\n      0x80\n        /* \"#utility.yul\":11953:11962   */\n      dup2\n        /* \"#utility.yul\":11946:11968   */\n      mstore\n        /* \"#utility.yul\":11927:11931   */\n      0x00\n        /* \"#utility.yul\":11985:12059   */\n      tag_829\n        /* \"#utility.yul\":12054:12057   */\n      0x80\n        /* \"#utility.yul\":12043:12052   */\n      dup4\n        /* \"#utility.yul\":12039:12058   */\n      add\n        /* \"#utility.yul\":12031:12037   */\n      dup8\n        /* \"#utility.yul\":12023:12029   */\n      dup10\n        /* \"#utility.yul\":11985:12059   */\n      tag_740\n      jump\t// in\n    tag_829:\n        /* \"#utility.yul\":12090:12092   */\n      0x20\n        /* \"#utility.yul\":12075:12093   */\n      dup4\n      add\n        /* \"#utility.yul\":12068:12102   */\n      swap6\n      swap1\n      swap6\n      mstore\n      pop\n        /* \"#utility.yul\":12133:12135   */\n      0x40\n        /* \"#utility.yul\":12118:12136   */\n      dup2\n      add\n        /* \"#utility.yul\":12111:12145   */\n      swap3\n      swap1\n      swap3\n      mstore\n        /* \"#utility.yul\":12176:12178   */\n      0x60\n        /* \"#utility.yul\":12161:12179   */\n      swap1\n      swap2\n      add\n        /* \"#utility.yul\":12154:12188   */\n      mstore\n        /* \"#utility.yul\":11977:12059   */\n      swap3\n        /* \"#utility.yul\":11691:12194   */\n      swap2\n      pop\n      pop\n      jump\t// out\n        /* \"#utility.yul\":12199:12487   */\n    tag_562:\n        /* \"#utility.yul\":12388:12390   */\n      0x20\n        /* \"#utility.yul\":12377:12386   */\n      dup2\n        /* \"#utility.yul\":12370:12391   */\n      mstore\n        /* \"#utility.yul\":12351:12355   */\n      0x00\n        /* \"#utility.yul\":12408:12481   */\n      tag_831\n        /* \"#utility.yul\":12477:12479   */\n      0x20\n        /* \"#utility.yul\":12466:12475   */\n      dup4\n        /* \"#utility.yul\":12462:12480   */\n      add\n        /* \"#utility.yul\":12454:12460   */\n      dup5\n        /* \"#utility.yul\":12446:12452   */\n      dup7\n        /* \"#utility.yul\":12408:12481   */\n      tag_740\n      jump\t// in\n    tag_831:\n        /* \"#utility.yul\":12400:12481   */\n      swap5\n        /* \"#utility.yul\":12199:12487   */\n      swap4\n      pop\n      pop\n      pop\n      pop\n      jump\t// out\n        /* \"#utility.yul\":12794:13039   */\n    tag_595:\n        /* \"#utility.yul\":12861:12867   */\n      0x00\n        /* \"#utility.yul\":12914:12916   */\n      0x20\n        /* \"#utility.yul\":12902:12911   */\n      dup3\n        /* \"#utility.yul\":12893:12900   */\n      dup5\n        /* \"#utility.yul\":12889:12912   */\n      sub\n        /* \"#utility.yul\":12885:12917   */\n      slt\n        /* \"#utility.yul\":12882:12934   */\n      iszero\n      tag_834\n      jumpi\n        /* \"#utility.yul\":12930:12931   */\n      0x00\n        /* \"#utility.yul\":12927:12928   */\n      dup1\n        /* \"#utility.yul\":12920:12932   */\n      revert\n        /* \"#utility.yul\":12882:12934   */\n    tag_834:\n        /* \"#utility.yul\":12962:12971   */\n      dup2\n        /* \"#utility.yul\":12956:12972   */\n      mload\n        /* \"#utility.yul\":12981:13009   */\n      tag_744\n        /* \"#utility.yul\":13003:13008   */\n      dup2\n        /* \"#utility.yul\":12981:13009   */\n      tag_736\n      jump\t// in\n        /* \"#utility.yul\":13752:14083   */\n    tag_725:\n        /* \"#utility.yul\":13857:13866   */\n      0x00\n        /* \"#utility.yul\":13868:13877   */\n      dup1\n        /* \"#utility.yul\":13910:13918   */\n      dup6\n        /* \"#utility.yul\":13898:13908   */\n      dup6\n        /* \"#utility.yul\":13895:13919   */\n      gt\n        /* \"#utility.yul\":13892:13936   */\n      iszero\n      tag_839\n      jumpi\n        /* \"#utility.yul\":13932:13933   */\n      0x00\n        /* \"#utility.yul\":13929:13930   */\n      dup1\n        /* \"#utility.yul\":13922:13934   */\n      revert\n        /* \"#utility.yul\":13892:13936   */\n    tag_839:\n        /* \"#utility.yul\":13961:13967   */\n      dup4\n        /* \"#utility.yul\":13951:13959   */\n      dup7\n        /* \"#utility.yul\":13948:13968   */\n      gt\n        /* \"#utility.yul\":13945:13985   */\n      iszero\n      tag_840\n      jumpi\n        /* \"#utility.yul\":13981:13982   */\n      0x00\n        /* \"#utility.yul\":13978:13979   */\n      dup1\n        /* \"#utility.yul\":13971:13983   */\n      revert\n        /* \"#utility.yul\":13945:13985   */\n    tag_840:\n      pop\n      pop\n        /* \"#utility.yul\":14007:14030   */\n      dup3\n      add\n      swap4\n        /* \"#utility.yul\":14052:14077   */\n      swap2\n      swap1\n      swap3\n      sub\n      swap2\n      pop\n        /* \"#utility.yul\":13752:14083   */\n      jump\t// out\n        /* \"#utility.yul\":14088:14425   */\n    tag_727:\n      not(0xffffffffffffffffffffffff)\n        /* \"#utility.yul\":14209:14228   */\n      dup2\n      calldataload\n        /* \"#utility.yul\":14296:14307   */\n      dup2\n      dup2\n      and\n      swap2\n        /* \"#utility.yul\":14327:14329   */\n      0x14\n        /* \"#utility.yul\":14319:14330   */\n      dup6\n      lt\n        /* \"#utility.yul\":14316:14419   */\n      iszero\n      tag_842\n      jumpi\n        /* \"#utility.yul\":14406:14408   */\n      dup1\n        /* \"#utility.yul\":14400:14402   */\n      dup2\n        /* \"#utility.yul\":14393:14396   */\n      dup7\n        /* \"#utility.yul\":14389:14391   */\n      0x14\n        /* \"#utility.yul\":14385:14397   */\n      sub\n        /* \"#utility.yul\":14382:14383   */\n      0x03\n        /* \"#utility.yul\":14378:14398   */\n      shl\n        /* \"#utility.yul\":14374:14403   */\n      shl\n        /* \"#utility.yul\":14370:14372   */\n      dup4\n        /* \"#utility.yul\":14366:14404   */\n      and\n        /* \"#utility.yul\":14362:14409   */\n      and\n        /* \"#utility.yul\":14353:14409   */\n      swap3\n      pop\n        /* \"#utility.yul\":14316:14419   */\n    tag_842:\n      pop\n      pop\n        /* \"#utility.yul\":14088:14425   */\n      swap3\n      swap2\n      pop\n      pop\n      jump\t// out\n    stop\n    data_cb864c43dd5d441bb6271f424f11befa622c032dfd374d226e26fbbdb782b8f8 a49807205ce4d355092ef5a8a18f56e8913cf4a201fbe287825b095693c21775\n\n    auxdata: 0xa2646970667358221220ea3678fbe02a349a2f32b8b846928b3b64d0ac00c095ac2962d5c5c209b883b464736f6c63430008190033\n}\n",
    "bytecode": {
      "linkReferences": {},
      "object": "60a060405262ed4e006002556a0422ca8b0a00a425000000600355348015610025575f80fd5b5060405161356838038061356883398101604081905261004491610341565b600180556001600160a01b0380821660805282166100755760405163d92e233d60e01b815260040160405180910390fd5b60048054600160501b600160f01b0319166a01000000000000000000006001600160a01b038516021790555f5b83518110156101e6575f8482815181106100be576100be610421565b602002602001015190506100da5f801b826101ef60201b60201c565b506101057fa49807205ce4d355092ef5a8a18f56e8913cf4a201fbe287825b095693c21775826101ef565b506101307f65d7a28e3265b37a6474929f336521b332c1681b933f6cb9f3376673440d862a826101ef565b5061015b7fc806897caf4fd5068191157e44d3988e43139a37e0b97b6793e1ed1184140604826101ef565b506101867ff60566c40710959d8d30b6067ce3c53c757bec78eecb0e46b83c7f8194ffae37826101ef565b506101b17f78c90eb9e475048b483a290aee04b5fe48355537c3623c7637b17d3bed71c6ed826101ef565b506101dc7f241ecf16d79d0f8dbfb92cbc07fe17840425976cf0667f022fe9877caa831b08826101ef565b50506001016100a2565b5050505061048c565b5f828152602081815260408083206001600160a01b038516845290915281205460ff16610290575f838152602081815260408083206001600160a01b03861684529091529020805460ff19166001179055610248610299565b6001600160a01b0316826001600160a01b0316847f2f8788117e7eff1d82e926ec794901d17c78024a50270940304540a733656f0d60405160405180910390a4506001610293565b505f5b92915050565b5f6102a26102a7565b905090565b5f3660148082108015906102bf57506102bf336102ed565b156102e5576102d236828403815f610435565b6102db9161045c565b60601c9250505090565b339250505090565b5f6102f760805190565b6001600160a01b0316826001600160a01b0316149050919050565b634e487b7160e01b5f52604160045260245ffd5b80516001600160a01b038116811461033c575f80fd5b919050565b5f805f60608486031215610353575f80fd5b83516001600160401b0380821115610369575f80fd5b818601915086601f83011261037c575f80fd5b815160208282111561039057610390610312565b8160051b604051601f19603f830116810181811086821117156103b5576103b5610312565b60405292835281830193508481018201928a8411156103d2575f80fd5b948201945b838610156103f7576103e886610326565b855294820194938201936103d7565b97506104069050888201610326565b95505050505061041860408501610326565b90509250925092565b634e487b7160e01b5f52603260045260245ffd5b5f8085851115610443575f80fd5b8386111561044f575f80fd5b5050820193919092039150565b6001600160601b031981358181169160148510156104845780818660140360031b1b83161692505b505092915050565b6080516130b66104b25f395f81816106ef015281816108830152612b3601526130b65ff3fe608060405260043610610395575f3560e01c80637da0a877116101de578063b2b77ae211610108578063e399067f1161009d578063f29b22391161006d578063f29b223914610c3c578063f5f1135014610c62578063f6326fb314610c81578063fd46a17114610c89575f80fd5b8063e399067f14610bad578063e63ab1e914610bc1578063ec87621c14610bf4578063ee947a7c14610c27575f80fd5b8063c771c390116100d8578063c771c39014610b28578063d547741f14610b47578063da8d5add14610b66578063e043b2b214610b7a575f80fd5b8063b2b77ae214610ab7578063b65ba94b14610ad5578063b758aeaa14610aea578063c6d95b7414610b09575f80fd5b806391d148541161017e5780639e657e331161014e5780639e657e3314610a0c578063a217fddf14610a2b578063a59aa5a614610a3e578063b2118a8d14610a98575f80fd5b806391d148541461098157806393055c43146109c357806397d9e5b4146109e25780639ddc3912146109f7575f80fd5b8063886d589d116101b9578063886d589d1461090d578063899aa9911461093857806389bad0a61461094d5780638b713b2e1461096c575f80fd5b80637da0a87714610875578063867d099a146108bb578063885f5029146108da575f80fd5b80634e43603a116102bf5780636068d6cb1161025f5780636ec239951161022f5780636ec23995146107f857806372e553991461081757806375b238fc14610836578063763265de14610856575f80fd5b80636068d6cb1461078a57806364021b13146107a35780636426be48146107ab57806365d5ec96146107ca575f80fd5b806354fd4d501161029a57806354fd4d501461067e578063572b6c05146106d3578063588583a01461071f5780635e2c19db1461075c575f80fd5b80634e43603a1461060157806351fb012d1461064057806353d6fd591461065f575f80fd5b8063275991d2116103355780633408567c116103055780633408567c1461056a57806336568abe146105955780633af32abf146105b457806347af19aa146105e2575f80fd5b8063275991d2146104ec5780632a5bf6d2146105005780632e1a7d4d1461052c5780632f2ff15d1461054b575f80fd5b80630c016ad5116103705780630c016ad51461045557806317b5164214610496578063246d47b71461049e578063248a9ca3146104be575f80fd5b806301ffc9a7146103a0578063052d9e7e146103d457806308f43333146103f5575f80fd5b3661039c57005b5f80fd5b3480156103ab575f80fd5b506103bf6103ba366004612b8f565b610c9e565b60405190151581526020015b60405180910390f35b3480156103df575f80fd5b506103f36103ee366004612bca565b610cd4565b005b348015610400575f80fd5b5061041461040f366004612c00565b610d08565b604080516001600160601b03968716815295909416602086015265ffffffffffff9283169385019390935216606083015260ff16608082015260a0016103cb565b348015610460575f80fd5b506104887ff60566c40710959d8d30b6067ce3c53c757bec78eecb0e46b83c7f8194ffae3781565b6040519081526020016103cb565b6103f3610d72565b3480156104a9575f80fd5b506004546103bf906301000000900460ff1681565b3480156104c9575f80fd5b506104886104d8366004612c28565b5f9081526020819052604090206001015490565b3480156104f7575f80fd5b506103f3610e5d565b34801561050b575f80fd5b5061051f61051a366004612c3f565b610f5f565b6040516103cb9190612c58565b348015610537575f80fd5b506103f3610546366004612c28565b611022565b348015610556575f80fd5b506103f3610565366004612ce1565b61131c565b348015610575575f80fd5b50610488610584366004612c3f565b60086020525f908152604090205481565b3480156105a0575f80fd5b506103f36105af366004612ce1565b611346565b3480156105bf575f80fd5b506103bf6105ce366004612c3f565b60066020525f908152604090205460ff1681565b3480156105ed575f80fd5b506103f36105fc366004612d53565b61138e565b34801561060c575f80fd5b5061062061061b366004612c3f565b6114e2565b6040805194855260208501939093529183015260608201526080016103cb565b34801561064b575f80fd5b506004546103bf9062010000900460ff1681565b34801561066a575f80fd5b506103f3610679366004612dba565b61161d565b348015610689575f80fd5b506106c66040518060400160405280600581526020017f312e302e3100000000000000000000000000000000000000000000000000000081525081565b6040516103cb9190612def565b3480156106de575f80fd5b506103bf6106ed366004612c3f565b7f00000000000000000000000000000000000000000000000000000000000000006001600160a01b0390811691161490565b34801561072a575f80fd5b5060045461074590640100000000900465ffffffffffff1681565b60405165ffffffffffff90911681526020016103cb565b348015610767575f80fd5b506103bf610776366004612c3f565b60076020525f908152604090205460ff1681565b348015610795575f80fd5b506004546103bf9060ff1681565b6103f3611693565b3480156107b6575f80fd5b506103f36107c5366004612e24565b61174a565b3480156107d5575f80fd5b506103bf6107e4366004612c3f565b600a6020525f908152604090205460ff1681565b348015610803575f80fd5b506103f3610812366004612c00565b6117d8565b348015610822575f80fd5b506103f3610831366004612e40565b61187b565b348015610841575f80fd5b506104885f8051602061306183398151915281565b348015610861575f80fd5b506103f3610870366004612c28565b611c3c565b348015610880575f80fd5b507f00000000000000000000000000000000000000000000000000000000000000005b6040516001600160a01b0390911681526020016103cb565b3480156108c6575f80fd5b506103f36108d5366004612e7f565b611c90565b3480156108e5575f80fd5b506104887f78c90eb9e475048b483a290aee04b5fe48355537c3623c7637b17d3bed71c6ed81565b348015610918575f80fd5b50610488610927366004612c3f565b60096020525f908152604090205481565b348015610943575f80fd5b50610488600c5481565b348015610958575f80fd5b506103f3610967366004612c3f565b611dd3565b348015610977575f80fd5b50610488600d5481565b34801561098c575f80fd5b506103bf61099b366004612ce1565b5f918252602082815260408084206001600160a01b0393909316845291905290205460ff1690565b3480156109ce575f80fd5b506103f36109dd366004612c28565b611e80565b3480156109ed575f80fd5b50610488600f5481565b348015610a02575f80fd5b5061048860035481565b348015610a17575f80fd5b506108a3610a26366004612c28565b611fd2565b348015610a36575f80fd5b506104885f81565b348015610a49575f80fd5b50610a63600c54600d54600e54600f54601054600b544796565b604080519788526020880196909652948601939093526060850191909152608084015260a083015260c082015260e0016103cb565b348015610aa3575f80fd5b506103f3610ab2366004612ece565b611ffa565b348015610ac2575f80fd5b506004546103bf90610100900460ff1681565b348015610ae0575f80fd5b50610488600e5481565b348015610af5575f80fd5b506103f3610b04366004612d53565b6120fc565b348015610b14575f80fd5b506103f3610b23366004612c00565b61222f565b348015610b33575f80fd5b506103f3610b42366004612c28565b612395565b348015610b52575f80fd5b506103f3610b61366004612ce1565b6123e1565b348015610b71575f80fd5b506103f3612405565b348015610b85575f80fd5b506104887fc806897caf4fd5068191157e44d3988e43139a37e0b97b6793e1ed118414060481565b348015610bb8575f80fd5b506103f36124b6565b348015610bcc575f80fd5b506104887f65d7a28e3265b37a6474929f336521b332c1681b933f6cb9f3376673440d862a81565b348015610bff575f80fd5b506104887f241ecf16d79d0f8dbfb92cbc07fe17840425976cf0667f022fe9877caa831b0881565b348015610c32575f80fd5b5061048860025481565b348015610c47575f80fd5b506004546108a390600160501b90046001600160a01b031681565b348015610c6d575f80fd5b506103f3610c7c366004612e7f565b6125cf565b6103f361267d565b348015610c94575f80fd5b5061048860105481565b5f6001600160e01b03198216637965db0b60e01b1480610cce57506301ffc9a760e01b6001600160e01b03198316145b92915050565b5f80516020613061833981519152610ceb81612784565b5060048054911515620100000262ff000019909216919091179055565b6005602052815f5260405f208181548110610d21575f80fd5b5f918252602090912060029091020180546001909101546001600160601b038083169450600160601b830416925065ffffffffffff600160c01b90920482169181169060ff600160301b9091041685565b7f241ecf16d79d0f8dbfb92cbc07fe17840425976cf0667f022fe9877caa831b08610d9c81612784565b610da4612795565b345f03610dc45760405163162908e360e11b815260040160405180910390fd5b601054341115610de757604051630471131160e21b815260040160405180910390fd5b3460105f828254610df89190612f1b565b90915550610e0690506127bf565b6001600160a01b03167fcb619aa4d31d17bcf75519deb5bd3e1fe12d44c8a845bd640d85328477e535923442604051610e49929190918252602082015260400190565b60405180910390a2610e5a60018055565b50565b610e65612795565b5f610e6e6127bf565b6001600160a01b0381165f90815260086020526040812054919250819003610ea957604051633bd65a7b60e21b815260040160405180910390fd5b6001600160a01b0382165f90815260086020526040812055610ecd828260016127cd565b80600f5f828254610ede9190612f2e565b90915550506001600160a01b0382165f9081526009602052604081208054839290610f0a908490612f2e565b9091555050604080518281524260208201526001600160a01b038416917fc003f45bc224d116b6d079100d4ab57a5b9633244c47a5a92a176c5b79a85f28910160405180910390a25050610f5d60018055565b565b6001600160a01b0381165f908152600560209081526040808320805482518185028101850190935280835260609492939192909184015b82821015611017575f8481526020908190206040805160a0810182526002860290920180546001600160601b038082168552600160601b82041684860152600160c01b900465ffffffffffff908116928401929092526001908101549182166060840152600160301b90910460ff1660808301529083529092019101610f96565b505050509050919050565b61102a612795565b600454610100900460ff161561105357604051636022a9e760e01b815260040160405180910390fd5b5f61105c6127bf565b6001600160a01b0381165f908152600560205260408120805492935090918490811061108a5761108a612f41565b5f9182526020909120600160029092020181810154909250600160301b900416156110c857604051636507689f60e01b815260040160405180910390fd5b60025481546110e69190600160c01b900465ffffffffffff16612f2e565b4210801561110057506001810154600160301b9004600216155b801561112f57506004546301000000900460ff16801561112d57506001810154600160301b900460041615155b155b1561114d5760405163f38b9b5b60e01b815260040160405180910390fd5b6001818101805466ffffffffffffff198116600160301b9182900460ff169093170265ffffffffffff1916919091174265ffffffffffff161790558054600d80546001600160601b0380841693600160601b9004169183915f906111b2908490612f2e565b909155505f90506001600160a01b0385166111cd8385612f2e565b6040515f81818185875af1925050503d805f8114611206576040519150601f19603f3d011682016040523d82523d5f602084013e61120b565b606091505b505090508061122d576040516312171d8360e31b815260040160405180910390fd5b6001600160a01b0385165f9081526007602052604090205460ff166112bc57600b805460018082019092557f0175b7a638427703f0dbe7bb9bbf987a2551717b34e79f33b5b1008d1fa01db901805473ffffffffffffffffffffffffffffffffffffffff19166001600160a01b0388169081179091555f908152600760205260409020805460ff191690911790555b604080518481526020810184905242818301526060810188905290516001600160a01b038716917fe08737ac48a1dab4b1a46c7dc9398bd5bfc6d7ad6fabb7cd8caa254de14def35919081900360800190a25050505050610e5a60018055565b5f8281526020819052604090206001015461133681612784565b6113408383612988565b50505050565b61134e6127bf565b6001600160a01b0316816001600160a01b03161461137f5760405163334bd91960e11b815260040160405180910390fd5b6113898282612a30565b505050565b5f805160206130618339815191526113a581612784565b8382146113c55760405163512509d360e11b815260040160405180910390fd5b5f5b848110156114da578383828181106113e1576113e1612f41565b90506020020160208101906113f69190612bca565b60065f88888581811061140b5761140b612f41565b90506020020160208101906114209190612c3f565b6001600160a01b0316815260208101919091526040015f20805460ff191691151591909117905585858281811061145957611459612f41565b905060200201602081019061146e9190612c3f565b6001600160a01b03167f995d2434d36c9bceaab42c56efe51e8ffe41fd11cabefd9e2cb83700d8b2035e8585848181106114aa576114aa612f41565b90506020020160208101906114bf9190612bca565b604051901515815260200160405180910390a26001016113c7565b505050505050565b6001600160a01b0381165f908152600560205260408120819081908190815b81548110156115f9575f82828154811061151d5761151d612f41565b5f9182526020918290206040805160a08101825260029390930290910180546001600160601b03808216808652600160601b830490911695850195909552600160c01b900465ffffffffffff90811692840192909252600101549081166060830152600160301b900460ff811660808301529092506008161515906115a29089612f2e565b97506115b48260800151600116151590565b156115d15781516115ce906001600160601b031688612f2e565b96505b80156115ef5781516115ec906001600160601b031686612f2e565b94505b5050600101611501565b50506001600160a01b039094165f9081526008602052604090205492949193919050565b5f8051602061306183398151915261163481612784565b6001600160a01b0383165f81815260066020908152604091829020805460ff191686151590811790915591519182527f995d2434d36c9bceaab42c56efe51e8ffe41fd11cabefd9e2cb83700d8b2035e910160405180910390a2505050565b7ff60566c40710959d8d30b6067ce3c53c757bec78eecb0e46b83c7f8194ffae376116bd81612784565b345f036116dd5760405163162908e360e11b815260040160405180910390fd5b34600e5f8282546116ee9190612f2e565b909155506116fc90506127bf565b6001600160a01b03167fe1887f49a055375cbb879ad11f651acb6c9726240b290b3a8b37062f15a34b83344260405161173f929190918252602082015260400190565b60405180910390a250565b7f65d7a28e3265b37a6474929f336521b332c1681b933f6cb9f3376673440d862a61177481612784565b60048054831515610100810261ff001987151590811661ffff1990941693909317179092556040805191825260208201929092527fac1664632d6278432aa05a6afc0aa83e5ea08e8df9a1436736daa5d6283211c0910160405180910390a1505050565b5f805160206130618339815191526117ef81612784565b815f0361180f5760405163162908e360e11b815260040160405180910390fd5b600e5482111561183257604051632f37549d60e01b815260040160405180910390fd5b6001600160a01b0383165f9081526008602052604081208054849290611859908490612f2e565b9250508190555081600e5f8282546118719190612f1b565b9091555050505050565b611883612795565b600454610100900460ff16156118ac57604051636022a9e760e01b815260040160405180910390fd5b5f6118b56127bf565b90505f805f5b84811015611aa2575f8686838181106118d6576118d6612f41565b9050602002013590505f60055f876001600160a01b03166001600160a01b031681526020019081526020015f20828154811061191457611914612f41565b5f9182526020909120600160029092020181810154909250600160301b9004161561195257604051636507689f60e01b815260040160405180910390fd5b60025481546119709190600160c01b900465ffffffffffff16612f2e565b4210801561198a57506001810154600160301b9004600216155b80156119b957506004546301000000900460ff1680156119b757506001810154600160301b900460041615155b155b156119d75760405163f38b9b5b60e01b815260040160405180910390fd5b6001818101805466ffffffffffffff198116600160301b9182900460ff169093170265ffffffffffff1916919091174265ffffffffffff1617905580546001600160601b0380821691600160601b900416611a328288612f2e565b9650611a3e8187612f2e565b604080518481526020810184905242818301526060810187905290519197506001600160a01b038a16917fe08737ac48a1dab4b1a46c7dc9398bd5bfc6d7ad6fabb7cd8caa254de14def359181900360800190a25050600190920191506118bb9050565b508115611ac05781600d5f828254611aba9190612f2e565b90915550505b6001600160a01b0383165f9081526007602052604090205460ff16158015611ae757508315155b15611b5c57600b805460018082019092557f0175b7a638427703f0dbe7bb9bbf987a2551717b34e79f33b5b1008d1fa01db901805473ffffffffffffffffffffffffffffffffffffffff19166001600160a01b0386169081179091555f908152600760205260409020805460ff191690911790555b5f611b678284612f2e565b1115611c2c575f6001600160a01b038416611b828385612f2e565b6040515f81818185875af1925050503d805f8114611bbb576040519150601f19603f3d011682016040523d82523d5f602084013e611bc0565b606091505b5050905080611be2576040516312171d8360e31b815260040160405180910390fd5b836001600160a01b03167edeea64db396f60259ae2fd8bff7020ea68e8e86e8d36d50d37ab00402ad3a58787868642604051611c22959493929190612f9e565b60405180910390a2505b505050611c3860018055565b5050565b5f80516020613061833981519152611c5381612784565b60038290556040518281527f1e6516523c603edd47bf2f9e4d2c46464a7b7588009b39bc0d190e86d0eb0747906020015b60405180910390a15050565b7fc806897caf4fd5068191157e44d3988e43139a37e0b97b6793e1ed1184140604611cba81612784565b5f5b82811015611d89576001600160a01b0385165f908152600560205260408120858584818110611ced57611ced612f41565b9050602002013581548110611d0457611d04612f41565b5f9182526020909120600160029092020181810154909250600160301b900416151580611d3e57506001810154600160301b900460021615155b15611d5c5760405163181821bd60e11b815260040160405180910390fd5b6001908101805466ff000000000000198116600160301b9182900460ff1660021790910217905501611cbc565b50836001600160a01b03167f8b655a966f162e1d3686ea25cd61682331984ab5662b451deff96f12d716f45b8484604051611dc5929190612fce565b60405180910390a250505050565b5f80516020613061833981519152611dea81612784565b6001600160a01b038216611e115760405163d92e233d60e01b815260040160405180910390fd5b600480547fffff0000000000000000000000000000000000000000ffffffffffffffffffff16600160501b6001600160a01b038516908102919091179091556040519081527f1d6240e71a77c9e9d07d1d6ecbb9ea4274fcc8bc19adc5b05a3548ac7e40e18990602001611c84565b7f78c90eb9e475048b483a290aee04b5fe48355537c3623c7637b17d3bed71c6ed611eaa81612784565b611eb2612795565b600454600160501b90046001600160a01b0316611ee25760405163d92e233d60e01b815260040160405180910390fd5b47821115611f0357604051631e9acf1760e31b815260040160405180910390fd5b6004546040515f91600160501b90046001600160a01b03169084908381818185875af1925050503d805f8114611f54576040519150601f19603f3d011682016040523d82523d5f602084013e611f59565b606091505b5050905080611f7b576040516312171d8360e31b815260040160405180910390fd5b60045460408051858152426020820152600160501b9092046001600160a01b0316917f18b8c45e12ff31e9be3bd15fb0f0c293c632e978e181920a25cbc7d639e479ec910160405180910390a250611c3860018055565b600b8181548110611fe1575f80fd5b5f918252602090912001546001600160a01b0316905081565b5f8051602061306183398151915261201181612784565b6001600160a01b0383166120385760405163d92e233d60e01b815260040160405180910390fd5b60405163a9059cbb60e01b81526001600160a01b0384811660048301526024820184905285169063a9059cbb906044016020604051808303815f875af1158015612084573d5f803e3d5ffd5b505050506040513d601f19601f820116820180604052508101906120a89190612fe9565b50826001600160a01b0316846001600160a01b03167f8bbfbb5d7fcacf6fc74005cdede0635561638507f576c95f7f294c22141be2e5846040516120ee91815260200190565b60405180910390a350505050565b5f8051602061306183398151915261211381612784565b8382146121335760405163512509d360e11b815260040160405180910390fd5b5f805b858110156121ed575f85858381811061215157612151612f41565b905060200201359050805f0361217a5760405163162908e360e11b815260040160405180910390fd5b8060085f8a8a8681811061219057612190612f41565b90506020020160208101906121a59190612c3f565b6001600160a01b03166001600160a01b031681526020019081526020015f205f8282546121d29190612f2e565b909155506121e290508184612f2e565b925050600101612136565b50600e5481111561221157604051632f37549d60e01b815260040160405180910390fd5b80600e5f8282546122229190612f1b565b9091555050505050505050565b7f241ecf16d79d0f8dbfb92cbc07fe17840425976cf0667f022fe9877caa831b0861225981612784565b612261612795565b6001600160a01b0383166122885760405163d92e233d60e01b815260040160405180910390fd5b478211156122a957604051631e9acf1760e31b815260040160405180910390fd5b8160105f8282546122ba9190612f2e565b90915550506040515f906001600160a01b0385169084908381818185875af1925050503d805f8114612307576040519150601f19603f3d011682016040523d82523d5f602084013e61230c565b606091505b505090508061232e576040516312171d8360e31b815260040160405180910390fd5b836001600160a01b03166123406127bf565b6001600160a01b03167f02d0981b01e87d345bd4dcdfff34b16820fd446ebb56bd591255f8a115a0b2ca8542604051612383929190918252602082015260400190565b60405180910390a35061138960018055565b5f805160206130618339815191526123ac81612784565b60028290556040518281527fc5e00a325524bc148ddc05bb642b804e9ae1dfc670c217ed3c4c6595f7427ef490602001611c84565b5f828152602081905260409020600101546123fb81612784565b6113408383612a30565b5f8051602061306183398151915261241c81612784565b6004546301000000900460ff16156124475760405163ae7fe58960e01b815260040160405180910390fd5b6004805465ffffffffffff429081166401000000000269ffffffffffffff00000019909216919091176301000000179091556040517f2388ceaed48d21bd0802856df41a22705f9046a67a817a047352aa3bbfe5c5d1916124ab9190815260200190565b60405180910390a150565b6124be612795565b5f6124c76127bf565b6001600160a01b0381165f9081526008602052604081205491925081900361250257604051633bd65a7b60e21b815260040160405180910390fd5b6001600160a01b0382165f818152600860205260408082208290555190919083908381818185875af1925050503d805f8114612559576040519150601f19603f3d011682016040523d82523d5f602084013e61255e565b606091505b5050905080612580576040516312171d8360e31b815260040160405180910390fd5b604080518381524260208201526001600160a01b038516917f11334d8f338bc4b6e8bd6a91f0582c803e7fdf7f983dff6f56d5c85c2a8c2051910160405180910390a2505050610f5d60018055565b5f805160206130618339815191526125e681612784565b5f5b82811015612676576001600160a01b0385165f90815260056020526040902060049085858481811061261c5761261c612f41565b905060200201358154811061263357612633612f41565b5f918252602090912060016002909202018101805460ff938416600160301b808304959095161790930266ff0000000000001990931692909217909155016125e8565b5050505050565b612685612795565b60045460ff16156126a95760405163deeb694360e01b815260040160405180910390fd5b345f8190036126cb5760405163162908e360e11b815260040160405180910390fd5b60035481600c546126dc9190612f2e565b11156126fb57604051636bf4c8e960e11b815260040160405180910390fd5b60045462010000900460ff168015612737575060065f6127196127bf565b6001600160a01b0316815260208101919091526040015f205460ff16155b1561275557604051630b094f2760e31b815260040160405180910390fd5b6127676127606127bf565b825f6127cd565b80600c5f8282546127789190612f2e565b90915550506001805550565b610e5a816127906127bf565b612acf565b6002600154036127b857604051633ee5aeb560e01b815260040160405180910390fd5b6002600155565b5f6127c8612b25565b905090565b5f81156127d8576008175b6001600160a01b0384165f818152600560209081526040808320815160a0810183526001600160601b03808a16825281850186815265ffffffffffff4281168487019081526060850189815260ff808d1660808801908152885460018181018b55998d528b8d20985160029091029098018054965194518616600160c01b027fffff000000000000ffffffffffffffffffffffffffffffffffffffffffffffff958916600160601b027fffffffffffffffff00000000000000000000000000000000000000000000000090981699909816989098179590951792909216949094178555925193909401805491518316600160301b0266ffffffffffffff19909216939094169290921791909117909155938352600a9091529020541661291b576001600160a01b0384165f908152600a60205260409020805460ff191660011790555b6001600160a01b0384165f818152600560205260409020547fb270be37bc8056efcfbd6e72df3ade4284f22c6a0c84cb85759cfff07234dd92908590429061296590600190612f1b565b604080519384526020840192909252908201528415156060820152608001611dc5565b5f828152602081815260408083206001600160a01b038516845290915281205460ff16612a29575f838152602081815260408083206001600160a01b03861684529091529020805460ff191660011790556129e16127bf565b6001600160a01b0316826001600160a01b0316847f2f8788117e7eff1d82e926ec794901d17c78024a50270940304540a733656f0d60405160405180910390a4506001610cce565b505f610cce565b5f828152602081815260408083206001600160a01b038516845290915281205460ff1615612a29575f838152602081815260408083206001600160a01b03861684529091529020805460ff19169055612a876127bf565b6001600160a01b0316826001600160a01b0316847ff6391f5c32d9c69d2a47ea670b442974b53935d1edc7fd64eb21e047a839171b60405160405180910390a4506001610cce565b5f828152602081815260408083206001600160a01b038516845290915290205460ff16611c385760405163e2517d3f60e01b81526001600160a01b03821660048201526024810183905260440160405180910390fd5b5f366014808210801590612b6157507f00000000000000000000000000000000000000000000000000000000000000006001600160a01b031633145b15612b8757612b7436828403815f613004565b612b7d9161302b565b60601c9250505090565b339250505090565b5f60208284031215612b9f575f80fd5b81356001600160e01b031981168114612bb6575f80fd5b9392505050565b8015158114610e5a575f80fd5b5f60208284031215612bda575f80fd5b8135612bb681612bbd565b80356001600160a01b0381168114612bfb575f80fd5b919050565b5f8060408385031215612c11575f80fd5b612c1a83612be5565b946020939093013593505050565b5f60208284031215612c38575f80fd5b5035919050565b5f60208284031215612c4f575f80fd5b612bb682612be5565b602080825282518282018190525f919060409081850190868401855b82811015612cd457815180516001600160601b0390811686528782015116878601528581015165ffffffffffff908116878701526060808301519091169086015260809081015160ff169085015260a09093019290850190600101612c74565b5091979650505050505050565b5f8060408385031215612cf2575f80fd5b82359150612d0260208401612be5565b90509250929050565b5f8083601f840112612d1b575f80fd5b50813567ffffffffffffffff811115612d32575f80fd5b6020830191508360208260051b8501011115612d4c575f80fd5b9250929050565b5f805f8060408587031215612d66575f80fd5b843567ffffffffffffffff80821115612d7d575f80fd5b612d8988838901612d0b565b90965094506020870135915080821115612da1575f80fd5b50612dae87828801612d0b565b95989497509550505050565b5f8060408385031215612dcb575f80fd5b612dd483612be5565b91506020830135612de481612bbd565b809150509250929050565b602081525f82518060208401528060208501604085015e5f604082850101526040601f19601f83011684010191505092915050565b5f8060408385031215612e35575f80fd5b8235612dd481612bbd565b5f8060208385031215612e51575f80fd5b823567ffffffffffffffff811115612e67575f80fd5b612e7385828601612d0b565b90969095509350505050565b5f805f60408486031215612e91575f80fd5b612e9a84612be5565b9250602084013567ffffffffffffffff811115612eb5575f80fd5b612ec186828701612d0b565b9497909650939450505050565b5f805f60608486031215612ee0575f80fd5b612ee984612be5565b9250612ef760208501612be5565b9150604084013590509250925092565b634e487b7160e01b5f52601160045260245ffd5b81810381811115610cce57610cce612f07565b80820180821115610cce57610cce612f07565b634e487b7160e01b5f52603260045260245ffd5b8183525f7f07ffffffffffffffffffffffffffffffffffffffffffffffffffffffffffffff831115612f85575f80fd5b8260051b80836020870137939093016020019392505050565b608081525f612fb1608083018789612f55565b602083019590955250604081019290925260609091015292915050565b602081525f612fe1602083018486612f55565b949350505050565b5f60208284031215612ff9575f80fd5b8151612bb681612bbd565b5f8085851115613012575f80fd5b8386111561301e575f80fd5b5050820193919092039150565b6bffffffffffffffffffffffff1981358181169160148510156130585780818660140360031b1b83161692505b50509291505056fea49807205ce4d355092ef5a8a18f56e8913cf4a201fbe287825b095693c21775a2646970667358221220ea3678fbe02a349a2f32b8b846928b3b64d0ac00c095ac2962d5c5c209b883b464736f6c63430008190033",
      "opcodes": "PUSH1 0xA0 PUSH1 0x40 MSTORE PUSH3 0xED4E00 PUSH1 0x2 SSTORE PUSH11 0x422CA8B0A00A425000000 PUSH1 0x3 SSTORE CALLVALUE DUP1 ISZERO PUSH2 0x25 JUMPI PUSH0 DUP1 REVERT JUMPDEST POP PUSH1 0x40 MLOAD PUSH2 0x3568 CODESIZE SUB DUP1 PUSH2 0x3568 DUP4 CODECOPY DUP2 ADD PUSH1 0x40 DUP2 SWAP1 MSTORE PUSH2 0x44 SWAP2 PUSH2 0x341 JUMP JUMPDEST PUSH1 0x1 DUP1 SSTORE PUSH1 0x1 PUSH1 0x1 PUSH1 0xA0 SHL SUB DUP1 DUP3 AND PUSH1 0x80 MSTORE DUP3 AND PUSH2 0x75 JUMPI PUSH1 0x40 MLOAD PUSH4 0xD92E233D PUSH1 0xE0 SHL DUP2 MSTORE PUSH1 0x4 ADD PUSH1 0x40 MLOAD DUP1 SWAP2 SUB SWAP1 REVERT JUMPDEST PUSH1 0x4 DUP1 SLOAD PUSH1 0x1 PUSH1 0x50 SHL PUSH1 0x1 PUSH1 0xF0 SHL SUB NOT AND PUSH11 0x100000000000000000000 PUSH1 0x1 PUSH1 0x1 PUSH1 0xA0 SHL SUB DUP6 AND MUL OR SWAP1 SSTORE PUSH0 JUMPDEST DUP4 MLOAD DUP2 LT ISZERO PUSH2 0x1E6 JUMPI PUSH0 DUP5 DUP3 DUP2 MLOAD DUP2 LT PUSH2 0xBE JUMPI PUSH2 0xBE PUSH2 0x421 JUMP JUMPDEST PUSH1 0x20 MUL PUSH1 0x20 ADD ADD MLOAD SWAP1 POP PUSH2 0xDA PUSH0 DUP1 SHL DUP3 PUSH2 0x1EF PUSH1 0x20 SHL PUSH1 0x20 SHR JUMP JUMPDEST POP PUSH2 0x105 PUSH32 0xA49807205CE4D355092EF5A8A18F56E8913CF4A201FBE287825B095693C21775 DUP3 PUSH2 0x1EF JUMP JUMPDEST POP PUSH2 0x130 PUSH32 0x65D7A28E3265B37A6474929F336521B332C1681B933F6CB9F3376673440D862A DUP3 PUSH2 0x1EF JUMP JUMPDEST POP PUSH2 0x15B PUSH32 0xC806897CAF4FD5068191157E44D3988E43139A37E0B97B6793E1ED1184140604 DUP3 PUSH2 0x1EF JUMP JUMPDEST POP PUSH2 0x186 PUSH32 0xF60566C40710959D8D30B6067CE3C53C757BEC78EECB0E46B83C7F8194FFAE37 DUP3 PUSH2 0x1EF JUMP JUMPDEST POP PUSH2 0x1B1 PUSH32 0x78C90EB9E475048B483A290AEE04B5FE48355537C3623C7637B17D3BED71C6ED DUP3 PUSH2 0x1EF JUMP JUMPDEST POP PUSH2 0x1DC PUSH32 0x241ECF16D79D0F8DBFB92CBC07FE17840425976CF0667F022FE9877CAA831B08 DUP3 PUSH2 0x1EF JUMP JUMPDEST POP POP PUSH1 0x1 ADD PUSH2 0xA2 JUMP JUMPDEST POP POP POP POP PUSH2 0x48C JUMP JUMPDEST PUSH0 DUP3 DUP2 MSTORE PUSH1 0x20 DUP2 DUP2 MSTORE PUSH1 0x40 DUP1 DUP4 KECCAK256 PUSH1 0x1 PUSH1 0x1 PUSH1 0xA0 SHL SUB DUP6 AND DUP5 MSTORE SWAP1 SWAP2 MSTORE DUP2 KECCAK256 SLOAD PUSH1 0xFF AND PUSH2 0x290 JUMPI PUSH0 DUP4 DUP2 MSTORE PUSH1 0x20 DUP2 DUP2 MSTORE PUSH1 0x40 DUP1 DUP4 KECCAK256 PUSH1 0x1 PUSH1 0x1 PUSH1 0xA0 SHL SUB DUP7 AND DUP5 MSTORE SWAP1 SWAP2 MSTORE SWAP1 KECCAK256 DUP1 SLOAD PUSH1 0xFF NOT AND PUSH1 0x1 OR SWAP1 SSTORE PUSH2 0x248 PUSH2 0x299 JUMP JUMPDEST PUSH1 0x1 PUSH1 0x1 PUSH1 0xA0 SHL SUB AND DUP3 PUSH1 0x1 PUSH1 0x1 PUSH1 0xA0 SHL SUB AND DUP5 PUSH32 0x2F8788117E7EFF1D82E926EC794901D17C78024A50270940304540A733656F0D PUSH1 0x40 MLOAD PUSH1 0x40 MLOAD DUP1 SWAP2 SUB SWAP1 LOG4 POP PUSH1 0x1 PUSH2 0x293 JUMP JUMPDEST POP PUSH0 JUMPDEST SWAP3 SWAP2 POP POP JUMP JUMPDEST PUSH0 PUSH2 0x2A2 PUSH2 0x2A7 JUMP JUMPDEST SWAP1 POP SWAP1 JUMP JUMPDEST PUSH0 CALLDATASIZE PUSH1 0x14 DUP1 DUP3 LT DUP1 ISZERO SWAP1 PUSH2 0x2BF JUMPI POP PUSH2 0x2BF CALLER PUSH2 0x2ED JUMP JUMPDEST ISZERO PUSH2 0x2E5 JUMPI PUSH2 0x2D2 CALLDATASIZE DUP3 DUP5 SUB DUP2 PUSH0 PUSH2 0x435 JUMP JUMPDEST PUSH2 0x2DB SWAP2 PUSH2 0x45C JUMP JUMPDEST PUSH1 0x60 SHR SWAP3 POP POP POP SWAP1 JUMP JUMPDEST CALLER SWAP3 POP POP POP SWAP1 JUMP JUMPDEST PUSH0 PUSH2 0x2F7 PUSH1 0x80 MLOAD SWAP1 JUMP JUMPDEST PUSH1 0x1 PUSH1 0x1 PUSH1 0xA0 SHL SUB AND DUP3 PUSH1 0x1 PUSH1 0x1 PUSH1 0xA0 SHL SUB AND EQ SWAP1 POP SWAP2 SWAP1 POP JUMP JUMPDEST PUSH4 0x4E487B71 PUSH1 0xE0 SHL PUSH0 MSTORE PUSH1 0x41 PUSH1 0x4 MSTORE PUSH1 0x24 PUSH0 REVERT JUMPDEST DUP1 MLOAD PUSH1 0x1 PUSH1 0x1 PUSH1 0xA0 SHL SUB DUP2 AND DUP2 EQ PUSH2 0x33C JUMPI PUSH0 DUP1 REVERT JUMPDEST SWAP2 SWAP1 POP JUMP JUMPDEST PUSH0 DUP1 PUSH0 PUSH1 0x60 DUP5 DUP7 SUB SLT ISZERO PUSH2 0x353 JUMPI PUSH0 DUP1 REVERT JUMPDEST DUP4 MLOAD PUSH1 0x1 PUSH1 0x1 PUSH1 0x40 SHL SUB DUP1 DUP3 GT ISZERO PUSH2 0x369 JUMPI PUSH0 DUP1 REVERT JUMPDEST DUP2 DUP7 ADD SWAP2 POP DUP7 PUSH1 0x1F DUP4 ADD SLT PUSH2 0x37C JUMPI PUSH0 DUP1 REVERT JUMPDEST DUP2 MLOAD PUSH1 0x20 DUP3 DUP3 GT ISZERO PUSH2 0x390 JUMPI PUSH2 0x390 PUSH2 0x312 JUMP JUMPDEST DUP2 PUSH1 0x5 SHL PUSH1 0x40 MLOAD PUSH1 0x1F NOT PUSH1 0x3F DUP4 ADD AND DUP2 ADD DUP2 DUP2 LT DUP7 DUP3 GT OR ISZERO PUSH2 0x3B5 JUMPI PUSH2 0x3B5 PUSH2 0x312 JUMP JUMPDEST PUSH1 0x40 MSTORE SWAP3 DUP4 MSTORE DUP2 DUP4 ADD SWAP4 POP DUP5 DUP2 ADD DUP3 ADD SWAP3 DUP11 DUP5 GT ISZERO PUSH2 0x3D2 JUMPI PUSH0 DUP1 REVERT JUMPDEST SWAP5 DUP3 ADD SWAP5 JUMPDEST DUP4 DUP7 LT ISZERO PUSH2 0x3F7 JUMPI PUSH2 0x3E8 DUP7 PUSH2 0x326 JUMP JUMPDEST DUP6 MSTORE SWAP5 DUP3 ADD SWAP5 SWAP4 DUP3 ADD SWAP4 PUSH2 0x3D7 JUMP JUMPDEST SWAP8 POP PUSH2 0x406 SWAP1 POP DUP9 DUP3 ADD PUSH2 0x326 JUMP JUMPDEST SWAP6 POP POP POP POP POP PUSH2 0x418 PUSH1 0x40 DUP6 ADD PUSH2 0x326 JUMP JUMPDEST SWAP1 POP SWAP3 POP SWAP3 POP SWAP3 JUMP JUMPDEST PUSH4 0x4E487B71 PUSH1 0xE0 SHL PUSH0 MSTORE PUSH1 0x32 PUSH1 0x4 MSTORE PUSH1 0x24 PUSH0 REVERT JUMPDEST PUSH0 DUP1 DUP6 DUP6 GT ISZERO PUSH2 0x443 JUMPI PUSH0 DUP1 REVERT JUMPDEST DUP4 DUP7 GT ISZERO PUSH2 0x44F JUMPI PUSH0 DUP1 REVERT JUMPDEST POP POP DUP3 ADD SWAP4 SWAP2 SWAP1 SWAP3 SUB SWAP2 POP JUMP JUMPDEST PUSH1 0x1 PUSH1 0x1 PUSH1 0x60 SHL SUB NOT DUP2 CALLDATALOAD DUP2 DUP2 AND SWAP2 PUSH1 0x14 DUP6 LT ISZERO PUSH2 0x484 JUMPI DUP1 DUP2 DUP7 PUSH1 0x14 SUB PUSH1 0x3 SHL SHL DUP4 AND AND SWAP3 POP JUMPDEST POP POP SWAP3 SWAP2 POP POP JUMP JUMPDEST PUSH1 0x80 MLOAD PUSH2 0x30B6 PUSH2 0x4B2 PUSH0 CODECOPY PUSH0 DUP2 DUP2 PUSH2 0x6EF ADD MSTORE DUP2 DUP2 PUSH2 0x883 ADD MSTORE PUSH2 0x2B36 ADD MSTORE PUSH2 0x30B6 PUSH0 RETURN INVALID PUSH1 0x80 PUSH1 0x40 MSTORE PUSH1 0x4 CALLDATASIZE LT PUSH2 0x395 JUMPI PUSH0 CALLDATALOAD PUSH1 0xE0 SHR DUP1 PUSH4 0x7DA0A877 GT PUSH2 0x1DE JUMPI DUP1 PUSH4 0xB2B77AE2 GT PUSH2 0x108 JUMPI DUP1 PUSH4 0xE399067F GT PUSH2 0x9D JUMPI DUP1 PUSH4 0xF29B2239 GT PUSH2 0x6D JUMPI DUP1 PUSH4 0xF29B2239 EQ PUSH2 0xC3C JUMPI DUP1 PUSH4 0xF5F11350 EQ PUSH2 0xC62 JUMPI DUP1 PUSH4 0xF6326FB3 EQ PUSH2 0xC81 JUMPI DUP1 PUSH4 0xFD46A171 EQ PUSH2 0xC89 JUMPI PUSH0 DUP1 REVERT JUMPDEST DUP1 PUSH4 0xE399067F EQ PUSH2 0xBAD JUMPI DUP1 PUSH4 0xE63AB1E9 EQ PUSH2 0xBC1 JUMPI DUP1 PUSH4 0xEC87621C EQ PUSH2 0xBF4 JUMPI DUP1 PUSH4 0xEE947A7C EQ PUSH2 0xC27 JUMPI PUSH0 DUP1 REVERT JUMPDEST DUP1 PUSH4 0xC771C390 GT PUSH2 0xD8 JUMPI DUP1 PUSH4 0xC771C390 EQ PUSH2 0xB28 JUMPI DUP1 PUSH4 0xD547741F EQ PUSH2 0xB47 JUMPI DUP1 PUSH4 0xDA8D5ADD EQ PUSH2 0xB66 JUMPI DUP1 PUSH4 0xE043B2B2 EQ PUSH2 0xB7A JUMPI PUSH0 DUP1 REVERT JUMPDEST DUP1 PUSH4 0xB2B77AE2 EQ PUSH2 0xAB7 JUMPI DUP1 PUSH4 0xB65BA94B EQ PUSH2 0xAD5 JUMPI DUP1 PUSH4 0xB758AEAA EQ PUSH2 0xAEA JUMPI DUP1 PUSH4 0xC6D95B74 EQ PUSH2 0xB09 JUMPI PUSH0 DUP1 REVERT JUMPDEST DUP1 PUSH4 0x91D14854 GT PUSH2 0x17E JUMPI DUP1 PUSH4 0x9E657E33 GT PUSH2 0x14E JUMPI DUP1 PUSH4 0x9E657E33 EQ PUSH2 0xA0C JUMPI DUP1 PUSH4 0xA217FDDF EQ PUSH2 0xA2B JUMPI DUP1 PUSH4 0xA59AA5A6 EQ PUSH2 0xA3E JUMPI DUP1 PUSH4 0xB2118A8D EQ PUSH2 0xA98 JUMPI PUSH0 DUP1 REVERT JUMPDEST DUP1 PUSH4 0x91D14854 EQ PUSH2 0x981 JUMPI DUP1 PUSH4 0x93055C43 EQ PUSH2 0x9C3 JUMPI DUP1 PUSH4 0x97D9E5B4 EQ PUSH2 0x9E2 JUMPI DUP1 PUSH4 0x9DDC3912 EQ PUSH2 0x9F7 JUMPI PUSH0 DUP1 REVERT JUMPDEST DUP1 PUSH4 0x886D589D GT PUSH2 0x1B9 JUMPI DUP1 PUSH4 0x886D589D EQ PUSH2 0x90D JUMPI DUP1 PUSH4 0x899AA991 EQ PUSH2 0x938 JUMPI DUP1 PUSH4 0x89BAD0A6 EQ PUSH2 0x94D JUMPI DUP1 PUSH4 0x8B713B2E EQ PUSH2 0x96C JUMPI PUSH0 DUP1 REVERT JUMPDEST DUP1 PUSH4 0x7DA0A877 EQ PUSH2 0x875 JUMPI DUP1 PUSH4 0x867D099A EQ PUSH2 0x8BB JUMPI DUP1 PUSH4 0x885F5029 EQ PUSH2 0x8DA JUMPI PUSH0 DUP1 REVERT JUMPDEST DUP1 PUSH4 0x4E43603A GT PUSH2 0x2BF JUMPI DUP1 PUSH4 0x6068D6CB GT PUSH2 0x25F JUMPI DUP1 PUSH4 0x6EC23995 GT PUSH2 0x22F JUMPI DUP1 PUSH4 0x6EC23995 EQ PUSH2 0x7F8 JUMPI DUP1 PUSH4 0x72E55399 EQ PUSH2 0x817 JUMPI DUP1 PUSH4 0x75B238FC EQ PUSH2 0x836 JUMPI DUP1 PUSH4 0x763265DE EQ PUSH2 0x856 JUMPI PUSH0 DUP1 REVERT JUMPDEST DUP1 PUSH4 0x6068D6CB EQ PUSH2 0x78A JUMPI DUP1 PUSH4 0x64021B13 EQ PUSH2 0x7A3 JUMPI DUP1 PUSH4 0x6426BE48 EQ PUSH2 0x7AB JUMPI DUP1 PUSH4 0x65D5EC96 EQ PUSH2 0x7CA JUMPI PUSH0 DUP1 REVERT JUMPDEST DUP1 PUSH4 0x54FD4D50 GT PUSH2 0x29A JUMPI DUP1 PUSH4 0x54FD4D50 EQ PUSH2 0x67E JUMPI DUP1 PUSH4 0x572B6C05 EQ PUSH2 0x6D3 JUMPI DUP1 PUSH4 0x588583A0 EQ PUSH2 0x71F JUMPI DUP1 PUSH4 0x5E2C19DB EQ PUSH2 0x75C JUMPI PUSH0 DUP1 REVERT JUMPDEST DUP1 PUSH4 0x4E43603A EQ PUSH2 0x601 JUMPI DUP1 PUSH4 0x51FB012D EQ PUSH2 0x640 JUMPI DUP1 PUSH4 0x53D6FD59 EQ PUSH2 0x65F JUMPI PUSH0 DUP1 REVERT JUMPDEST DUP1 PUSH4 0x275991D2 GT PUSH2 0x335 JUMPI DUP1 PUSH4 0x3408567C GT PUSH2 0x305 JUMPI DUP1 PUSH4 0x3408567C EQ PUSH2 0x56A JUMPI DUP1 PUSH4 0x36568ABE EQ PUSH2 0x595 JUMPI DUP1 PUSH4 0x3AF32ABF EQ PUSH2 0x5B4 JUMPI DUP1 PUSH4 0x47AF19AA EQ PUSH2 0x5E2 JUMPI PUSH0 DUP1 REVERT JUMPDEST DUP1 PUSH4 0x275991D2 EQ PUSH2 0x4EC JUMPI DUP1 PUSH4 0x2A5BF6D2 EQ PUSH2 0x500 JUMPI DUP1 PUSH4 0x2E1A7D4D EQ PUSH2 0x52C JUMPI DUP1 PUSH4 0x2F2FF15D EQ PUSH2 0x54B JUMPI PUSH0 DUP1 REVERT JUMPDEST DUP1 PUSH4 0xC016AD5 GT PUSH2 0x370 JUMPI DUP1 PUSH4 0xC016AD5 EQ PUSH2 0x455 JUMPI DUP1 PUSH4 0x17B51642 EQ PUSH2 0x496 JUMPI DUP1 PUSH4 0x246D47B7 EQ PUSH2 0x49E JUMPI DUP1 PUSH4 0x248A9CA3 EQ PUSH2 0x4BE JUMPI PUSH0 DUP1 REVERT JUMPDEST DUP1 PUSH4 0x1FFC9A7 EQ PUSH2 0x3A0 JUMPI DUP1 PUSH4 0x52D9E7E EQ PUSH2 0x3D4 JUMPI DUP1 PUSH4 0x8F43333 EQ PUSH2 0x3F5 JUMPI PUSH0 DUP1 REVERT JUMPDEST CALLDATASIZE PUSH2 0x39C JUMPI STOP JUMPDEST PUSH0 DUP1 REVERT JUMPDEST CALLVALUE DUP1 ISZERO PUSH2 0x3AB JUMPI PUSH0 DUP1 REVERT JUMPDEST POP PUSH2 0x3BF PUSH2 0x3BA CALLDATASIZE PUSH1 0x4 PUSH2 0x2B8F JUMP JUMPDEST PUSH2 0xC9E JUMP JUMPDEST PUSH1 0x40 MLOAD SWAP1 ISZERO ISZERO DUP2 MSTORE PUSH1 0x20 ADD JUMPDEST PUSH1 0x40 MLOAD DUP1 SWAP2 SUB SWAP1 RETURN JUMPDEST CALLVALUE DUP1 ISZERO PUSH2 0x3DF JUMPI PUSH0 DUP1 REVERT JUMPDEST POP PUSH2 0x3F3 PUSH2 0x3EE CALLDATASIZE PUSH1 0x4 PUSH2 0x2BCA JUMP JUMPDEST PUSH2 0xCD4 JUMP JUMPDEST STOP JUMPDEST CALLVALUE DUP1 ISZERO PUSH2 0x400 JUMPI PUSH0 DUP1 REVERT JUMPDEST POP PUSH2 0x414 PUSH2 0x40F CALLDATASIZE PUSH1 0x4 PUSH2 0x2C00 JUMP JUMPDEST PUSH2 0xD08 JUMP JUMPDEST PUSH1 0x40 DUP1 MLOAD PUSH1 0x1 PUSH1 0x1 PUSH1 0x60 SHL SUB SWAP7 DUP8 AND DUP2 MSTORE SWAP6 SWAP1 SWAP5 AND PUSH1 0x20 DUP7 ADD MSTORE PUSH6 0xFFFFFFFFFFFF SWAP3 DUP4 AND SWAP4 DUP6 ADD SWAP4 SWAP1 SWAP4 MSTORE AND PUSH1 0x60 DUP4 ADD MSTORE PUSH1 0xFF AND PUSH1 0x80 DUP3 ADD MSTORE PUSH1 0xA0 ADD PUSH2 0x3CB JUMP JUMPDEST CALLVALUE DUP1 ISZERO PUSH2 0x460 JUMPI PUSH0 DUP1 REVERT JUMPDEST POP PUSH2 0x488 PUSH32 0xF60566C40710959D8D30B6067CE3C53C757BEC78EECB0E46B83C7F8194FFAE37 DUP2 JUMP JUMPDEST PUSH1 0x40 MLOAD SWAP1 DUP2 MSTORE PUSH1 0x20 ADD PUSH2 0x3CB JUMP JUMPDEST PUSH2 0x3F3 PUSH2 0xD72 JUMP JUMPDEST CALLVALUE DUP1 ISZERO PUSH2 0x4A9 JUMPI PUSH0 DUP1 REVERT JUMPDEST POP PUSH1 0x4 SLOAD PUSH2 0x3BF SWAP1 PUSH4 0x1000000 SWAP1 DIV PUSH1 0xFF AND DUP2 JUMP JUMPDEST CALLVALUE DUP1 ISZERO PUSH2 0x4C9 JUMPI PUSH0 DUP1 REVERT JUMPDEST POP PUSH2 0x488 PUSH2 0x4D8 CALLDATASIZE PUSH1 0x4 PUSH2 0x2C28 JUMP JUMPDEST PUSH0 SWAP1 DUP2 MSTORE PUSH1 0x20 DUP2 SWAP1 MSTORE PUSH1 0x40 SWAP1 KECCAK256 PUSH1 0x1 ADD SLOAD SWAP1 JUMP JUMPDEST CALLVALUE DUP1 ISZERO PUSH2 0x4F7 JUMPI PUSH0 DUP1 REVERT JUMPDEST POP PUSH2 0x3F3 PUSH2 0xE5D JUMP JUMPDEST CALLVALUE DUP1 ISZERO PUSH2 0x50B JUMPI PUSH0 DUP1 REVERT JUMPDEST POP PUSH2 0x51F PUSH2 0x51A CALLDATASIZE PUSH1 0x4 PUSH2 0x2C3F JUMP JUMPDEST PUSH2 0xF5F JUMP JUMPDEST PUSH1 0x40 MLOAD PUSH2 0x3CB SWAP2 SWAP1 PUSH2 0x2C58 JUMP JUMPDEST CALLVALUE DUP1 ISZERO PUSH2 0x537 JUMPI PUSH0 DUP1 REVERT JUMPDEST POP PUSH2 0x3F3 PUSH2 0x546 CALLDATASIZE PUSH1 0x4 PUSH2 0x2C28 JUMP JUMPDEST PUSH2 0x1022 JUMP JUMPDEST CALLVALUE DUP1 ISZERO PUSH2 0x556 JUMPI PUSH0 DUP1 REVERT JUMPDEST POP PUSH2 0x3F3 PUSH2 0x565 CALLDATASIZE PUSH1 0x4 PUSH2 0x2CE1 JUMP JUMPDEST PUSH2 0x131C JUMP JUMPDEST CALLVALUE DUP1 ISZERO PUSH2 0x575 JUMPI PUSH0 DUP1 REVERT JUMPDEST POP PUSH2 0x488 PUSH2 0x584 CALLDATASIZE PUSH1 0x4 PUSH2 0x2C3F JUMP JUMPDEST PUSH1 0x8 PUSH1 0x20 MSTORE PUSH0 SWAP1 DUP2 MSTORE PUSH1 0x40 SWAP1 KECCAK256 SLOAD DUP2 JUMP JUMPDEST CALLVALUE DUP1 ISZERO PUSH2 0x5A0 JUMPI PUSH0 DUP1 REVERT JUMPDEST POP PUSH2 0x3F3 PUSH2 0x5AF CALLDATASIZE PUSH1 0x4 PUSH2 0x2CE1 JUMP JUMPDEST PUSH2 0x1346 JUMP JUMPDEST CALLVALUE DUP1 ISZERO PUSH2 0x5BF JUMPI PUSH0 DUP1 REVERT JUMPDEST POP PUSH2 0x3BF PUSH2 0x5CE CALLDATASIZE PUSH1 0x4 PUSH2 0x2C3F JUMP JUMPDEST PUSH1 0x6 PUSH1 0x20 MSTORE PUSH0 SWAP1 DUP2 MSTORE PUSH1 0x40 SWAP1 KECCAK256 SLOAD PUSH1 0xFF AND DUP2 JUMP JUMPDEST CALLVALUE DUP1 ISZERO PUSH2 0x5ED JUMPI PUSH0 DUP1 REVERT JUMPDEST POP PUSH2 0x3F3 PUSH2 0x5FC CALLDATASIZE PUSH1 0x4 PUSH2 0x2D53 JUMP JUMPDEST PUSH2 0x138E JUMP JUMPDEST CALLVALUE DUP1 ISZERO PUSH2 0x60C JUMPI PUSH0 DUP1 REVERT JUMPDEST POP PUSH2 0x620 PUSH2 0x61B CALLDATASIZE PUSH1 0x4 PUSH2 0x2C3F JUMP JUMPDEST PUSH2 0x14E2 JUMP JUMPDEST PUSH1 0x40 DUP1 MLOAD SWAP5 DUP6 MSTORE PUSH1 0x20 DUP6 ADD SWAP4 SWAP1 SWAP4 MSTORE SWAP2 DUP4 ADD MSTORE PUSH1 0x60 DUP3 ADD MSTORE PUSH1 0x80 ADD PUSH2 0x3CB JUMP JUMPDEST CALLVALUE DUP1 ISZERO PUSH2 0x64B JUMPI PUSH0 DUP1 REVERT JUMPDEST POP PUSH1 0x4 SLOAD PUSH2 0x3BF SWAP1 PUSH3 0x10000 SWAP1 DIV PUSH1 0xFF AND DUP2 JUMP JUMPDEST CALLVALUE DUP1 ISZERO PUSH2 0x66A JUMPI PUSH0 DUP1 REVERT JUMPDEST POP PUSH2 0x3F3 PUSH2 0x679 CALLDATASIZE PUSH1 0x4 PUSH2 0x2DBA JUMP JUMPDEST PUSH2 0x161D JUMP JUMPDEST CALLVALUE DUP1 ISZERO PUSH2 0x689 JUMPI PUSH0 DUP1 REVERT JUMPDEST POP PUSH2 0x6C6 PUSH1 0x40 MLOAD DUP1 PUSH1 0x40 ADD PUSH1 0x40 MSTORE DUP1 PUSH1 0x5 DUP2 MSTORE PUSH1 0x20 ADD PUSH32 0x312E302E31000000000000000000000000000000000000000000000000000000 DUP2 MSTORE POP DUP2 JUMP JUMPDEST PUSH1 0x40 MLOAD PUSH2 0x3CB SWAP2 SWAP1 PUSH2 0x2DEF JUMP JUMPDEST CALLVALUE DUP1 ISZERO PUSH2 0x6DE JUMPI PUSH0 DUP1 REVERT JUMPDEST POP PUSH2 0x3BF PUSH2 0x6ED CALLDATASIZE PUSH1 0x4 PUSH2 0x2C3F JUMP JUMPDEST PUSH32 0x0 PUSH1 0x1 PUSH1 0x1 PUSH1 0xA0 SHL SUB SWAP1 DUP2 AND SWAP2 AND EQ SWAP1 JUMP JUMPDEST CALLVALUE DUP1 ISZERO PUSH2 0x72A JUMPI PUSH0 DUP1 REVERT JUMPDEST POP PUSH1 0x4 SLOAD PUSH2 0x745 SWAP1 PUSH5 0x100000000 SWAP1 DIV PUSH6 0xFFFFFFFFFFFF AND DUP2 JUMP JUMPDEST PUSH1 0x40 MLOAD PUSH6 0xFFFFFFFFFFFF SWAP1 SWAP2 AND DUP2 MSTORE PUSH1 0x20 ADD PUSH2 0x3CB JUMP JUMPDEST CALLVALUE DUP1 ISZERO PUSH2 0x767 JUMPI PUSH0 DUP1 REVERT JUMPDEST POP PUSH2 0x3BF PUSH2 0x776 CALLDATASIZE PUSH1 0x4 PUSH2 0x2C3F JUMP JUMPDEST PUSH1 0x7 PUSH1 0x20 MSTORE PUSH0 SWAP1 DUP2 MSTORE PUSH1 0x40 SWAP1 KECCAK256 SLOAD PUSH1 0xFF AND DUP2 JUMP JUMPDEST CALLVALUE DUP1 ISZERO PUSH2 0x795 JUMPI PUSH0 DUP1 REVERT JUMPDEST POP PUSH1 0x4 SLOAD PUSH2 0x3BF SWAP1 PUSH1 0xFF AND DUP2 JUMP JUMPDEST PUSH2 0x3F3 PUSH2 0x1693 JUMP JUMPDEST CALLVALUE DUP1 ISZERO PUSH2 0x7B6 JUMPI PUSH0 DUP1 REVERT JUMPDEST POP PUSH2 0x3F3 PUSH2 0x7C5 CALLDATASIZE PUSH1 0x4 PUSH2 0x2E24 JUMP JUMPDEST PUSH2 0x174A JUMP JUMPDEST CALLVALUE DUP1 ISZERO PUSH2 0x7D5 JUMPI PUSH0 DUP1 REVERT JUMPDEST POP PUSH2 0x3BF PUSH2 0x7E4 CALLDATASIZE PUSH1 0x4 PUSH2 0x2C3F JUMP JUMPDEST PUSH1 0xA PUSH1 0x20 MSTORE PUSH0 SWAP1 DUP2 MSTORE PUSH1 0x40 SWAP1 KECCAK256 SLOAD PUSH1 0xFF AND DUP2 JUMP JUMPDEST CALLVALUE DUP1 ISZERO PUSH2 0x803 JUMPI PUSH0 DUP1 REVERT JUMPDEST POP PUSH2 0x3F3 PUSH2 0x812 CALLDATASIZE PUSH1 0x4 PUSH2 0x2C00 JUMP JUMPDEST PUSH2 0x17D8 JUMP JUMPDEST CALLVALUE DUP1 ISZERO PUSH2 0x822 JUMPI PUSH0 DUP1 REVERT JUMPDEST POP PUSH2 0x3F3 PUSH2 0x831 CALLDATASIZE PUSH1 0x4 PUSH2 0x2E40 JUMP JUMPDEST PUSH2 0x187B JUMP JUMPDEST CALLVALUE DUP1 ISZERO PUSH2 0x841 JUMPI PUSH0 DUP1 REVERT JUMPDEST POP PUSH2 0x488 PUSH0 DUP1 MLOAD PUSH1 0x20 PUSH2 0x3061 DUP4 CODECOPY DUP2 MLOAD SWAP2 MSTORE DUP2 JUMP JUMPDEST CALLVALUE DUP1 ISZERO PUSH2 0x861 JUMPI PUSH0 DUP1 REVERT JUMPDEST POP PUSH2 0x3F3 PUSH2 0x870 CALLDATASIZE PUSH1 0x4 PUSH2 0x2C28 JUMP JUMPDEST PUSH2 0x1C3C JUMP JUMPDEST CALLVALUE DUP1 ISZERO PUSH2 0x880 JUMPI PUSH0 DUP1 REVERT JUMPDEST POP PUSH32 0x0 JUMPDEST PUSH1 0x40 MLOAD PUSH1 0x1 PUSH1 0x1 PUSH1 0xA0 SHL SUB SWAP1 SWAP2 AND DUP2 MSTORE PUSH1 0x20 ADD PUSH2 0x3CB JUMP JUMPDEST CALLVALUE DUP1 ISZERO PUSH2 0x8C6 JUMPI PUSH0 DUP1 REVERT JUMPDEST POP PUSH2 0x3F3 PUSH2 0x8D5 CALLDATASIZE PUSH1 0x4 PUSH2 0x2E7F JUMP JUMPDEST PUSH2 0x1C90 JUMP JUMPDEST CALLVALUE DUP1 ISZERO PUSH2 0x8E5 JUMPI PUSH0 DUP1 REVERT JUMPDEST POP PUSH2 0x488 PUSH32 0x78C90EB9E475048B483A290AEE04B5FE48355537C3623C7637B17D3BED71C6ED DUP2 JUMP JUMPDEST CALLVALUE DUP1 ISZERO PUSH2 0x918 JUMPI PUSH0 DUP1 REVERT JUMPDEST POP PUSH2 0x488 PUSH2 0x927 CALLDATASIZE PUSH1 0x4 PUSH2 0x2C3F JUMP JUMPDEST PUSH1 0x9 PUSH1 0x20 MSTORE PUSH0 SWAP1 DUP2 MSTORE PUSH1 0x40 SWAP1 KECCAK256 SLOAD DUP2 JUMP JUMPDEST CALLVALUE DUP1 ISZERO PUSH2 0x943 JUMPI PUSH0 DUP1 REVERT JUMPDEST POP PUSH2 0x488 PUSH1 0xC SLOAD DUP2 JUMP JUMPDEST CALLVALUE DUP1 ISZERO PUSH2 0x958 JUMPI PUSH0 DUP1 REVERT JUMPDEST POP PUSH2 0x3F3 PUSH2 0x967 CALLDATASIZE PUSH1 0x4 PUSH2 0x2C3F JUMP JUMPDEST PUSH2 0x1DD3 JUMP JUMPDEST CALLVALUE DUP1 ISZERO PUSH2 0x977 JUMPI PUSH0 DUP1 REVERT JUMPDEST POP PUSH2 0x488 PUSH1 0xD SLOAD DUP2 JUMP JUMPDEST CALLVALUE DUP1 ISZERO PUSH2 0x98C JUMPI PUSH0 DUP1 REVERT JUMPDEST POP PUSH2 0x3BF PUSH2 0x99B CALLDATASIZE PUSH1 0x4 PUSH2 0x2CE1 JUMP JUMPDEST PUSH0 SWAP2 DUP3 MSTORE PUSH1 0x20 DUP3 DUP2 MSTORE PUSH1 0x40 DUP1 DUP5 KECCAK256 PUSH1 0x1 PUSH1 0x1 PUSH1 0xA0 SHL SUB SWAP4 SWAP1 SWAP4 AND DUP5 MSTORE SWAP2 SWAP1 MSTORE SWAP1 KECCAK256 SLOAD PUSH1 0xFF AND SWAP1 JUMP JUMPDEST CALLVALUE DUP1 ISZERO PUSH2 0x9CE JUMPI PUSH0 DUP1 REVERT JUMPDEST POP PUSH2 0x3F3 PUSH2 0x9DD CALLDATASIZE PUSH1 0x4 PUSH2 0x2C28 JUMP JUMPDEST PUSH2 0x1E80 JUMP JUMPDEST CALLVALUE DUP1 ISZERO PUSH2 0x9ED JUMPI PUSH0 DUP1 REVERT JUMPDEST POP PUSH2 0x488 PUSH1 0xF SLOAD DUP2 JUMP JUMPDEST CALLVALUE DUP1 ISZERO PUSH2 0xA02 JUMPI PUSH0 DUP1 REVERT JUMPDEST POP PUSH2 0x488 PUSH1 0x3 SLOAD DUP2 JUMP JUMPDEST CALLVALUE DUP1 ISZERO PUSH2 0xA17 JUMPI PUSH0 DUP1 REVERT JUMPDEST POP PUSH2 0x8A3 PUSH2 0xA26 CALLDATASIZE PUSH1 0x4 PUSH2 0x2C28 JUMP JUMPDEST PUSH2 0x1FD2 JUMP JUMPDEST CALLVALUE DUP1 ISZERO PUSH2 0xA36 JUMPI PUSH0 DUP1 REVERT JUMPDEST POP PUSH2 0x488 PUSH0 DUP2 JUMP JUMPDEST CALLVALUE DUP1 ISZERO PUSH2 0xA49 JUMPI PUSH0 DUP1 REVERT JUMPDEST POP PUSH2 0xA63 PUSH1 0xC SLOAD PUSH1 0xD SLOAD PUSH1 0xE SLOAD PUSH1 0xF SLOAD PUSH1 0x10 SLOAD PUSH1 0xB SLOAD SELFBALANCE SWAP7 JUMP JUMPDEST PUSH1 0x40 DUP1 MLOAD SWAP8 DUP9 MSTORE PUSH1 0x20 DUP9 ADD SWAP7 SWAP1 SWAP7 MSTORE SWAP5 DUP7 ADD SWAP4 SWAP1 SWAP4 MSTORE PUSH1 0x60 DUP6 ADD SWAP2 SWAP1 SWAP2 MSTORE PUSH1 0x80 DUP5 ADD MSTORE PUSH1 0xA0 DUP4 ADD MSTORE PUSH1 0xC0 DUP3 ADD MSTORE PUSH1 0xE0 ADD PUSH2 0x3CB JUMP JUMPDEST CALLVALUE DUP1 ISZERO PUSH2 0xAA3 JUMPI PUSH0 DUP1 REVERT JUMPDEST POP PUSH2 0x3F3 PUSH2 0xAB2 CALLDATASIZE PUSH1 0x4 PUSH2 0x2ECE JUMP JUMPDEST PUSH2 0x1FFA JUMP JUMPDEST CALLVALUE DUP1 ISZERO PUSH2 0xAC2 JUMPI PUSH0 DUP1 REVERT JUMPDEST POP PUSH1 0x4 SLOAD PUSH2 0x3BF SWAP1 PUSH2 0x100 SWAP1 DIV PUSH1 0xFF AND DUP2 JUMP JUMPDEST CALLVALUE DUP1 ISZERO PUSH2 0xAE0 JUMPI PUSH0 DUP1 REVERT JUMPDEST POP PUSH2 0x488 PUSH1 0xE SLOAD DUP2 JUMP JUMPDEST CALLVALUE DUP1 ISZERO PUSH2 0xAF5 JUMPI PUSH0 DUP1 REVERT JUMPDEST POP PUSH2 0x3F3 PUSH2 0xB04 CALLDATASIZE PUSH1 0x4 PUSH2 0x2D53 JUMP JUMPDEST PUSH2 0x20FC JUMP JUMPDEST CALLVALUE DUP1 ISZERO PUSH2 0xB14 JUMPI PUSH0 DUP1 REVERT JUMPDEST POP PUSH2 0x3F3 PUSH2 0xB23 CALLDATASIZE PUSH1 0x4 PUSH2 0x2C00 JUMP JUMPDEST PUSH2 0x222F JUMP JUMPDEST CALLVALUE DUP1 ISZERO PUSH2 0xB33 JUMPI PUSH0 DUP1 REVERT JUMPDEST POP PUSH2 0x3F3 PUSH2 0xB42 CALLDATASIZE PUSH1 0x4 PUSH2 0x2C28 JUMP JUMPDEST PUSH2 0x2395 JUMP JUMPDEST CALLVALUE DUP1 ISZERO PUSH2 0xB52 JUMPI PUSH0 DUP1 REVERT JUMPDEST POP PUSH2 0x3F3 PUSH2 0xB61 CALLDATASIZE PUSH1 0x4 PUSH2 0x2CE1 JUMP JUMPDEST PUSH2 0x23E1 JUMP JUMPDEST CALLVALUE DUP1 ISZERO PUSH2 0xB71 JUMPI PUSH0 DUP1 REVERT JUMPDEST POP PUSH2 0x3F3 PUSH2 0x2405 JUMP JUMPDEST CALLVALUE DUP1 ISZERO PUSH2 0xB85 JUMPI PUSH0 DUP1 REVERT JUMPDEST POP PUSH2 0x488 PUSH32 0xC806897CAF4FD5068191157E44D3988E43139A37E0B97B6793E1ED1184140604 DUP2 JUMP JUMPDEST CALLVALUE DUP1 ISZERO PUSH2 0xBB8 JUMPI PUSH0 DUP1 REVERT JUMPDEST POP PUSH2 0x3F3 PUSH2 0x24B6 JUMP JUMPDEST CALLVALUE DUP1 ISZERO PUSH2 0xBCC JUMPI PUSH0 DUP1 REVERT JUMPDEST POP PUSH2 0x488 PUSH32 0x65D7A28E3265B37A6474929F336521B332C1681B933F6CB9F3376673440D862A DUP2 JUMP JUMPDEST CALLVALUE DUP1 ISZERO PUSH2 0xBFF JUMPI PUSH0 DUP1 REVERT JUMPDEST POP PUSH2 0x488 PUSH32 0x241ECF16D79D0F8DBFB92CBC07FE17840425976CF0667F022FE9877CAA831B08 DUP2 JUMP JUMPDEST CALLVALUE DUP1 ISZERO PUSH2 0xC32 JUMPI PUSH0 DUP1 REVERT JUMPDEST POP PUSH2 0x488 PUSH1 0x2 SLOAD DUP2 JUMP JUMPDEST CALLVALUE DUP1 ISZERO PUSH2 0xC47 JUMPI PUSH0 DUP1 REVERT JUMPDEST POP PUSH1 0x4 SLOAD PUSH2 0x8A3 SWAP1 PUSH1 0x1 PUSH1 0x50 SHL SWAP1 DIV PUSH1 0x1 PUSH1 0x1 PUSH1 0xA0 SHL SUB AND DUP2 JUMP JUMPDEST CALLVALUE DUP1 ISZERO PUSH2 0xC6D JUMPI PUSH0 DUP1 REVERT JUMPDEST POP PUSH2 0x3F3 PUSH2 0xC7C CALLDATASIZE PUSH1 0x4 PUSH2 0x2E7F JUMP JUMPDEST PUSH2 0x25CF JUMP JUMPDEST PUSH2 0x3F3 PUSH2 0x267D JUMP JUMPDEST CALLVALUE DUP1 ISZERO PUSH2 0xC94 JUMPI PUSH0 DUP1 REVERT JUMPDEST POP PUSH2 0x488 PUSH1 0x10 SLOAD DUP2 JUMP JUMPDEST PUSH0 PUSH1 0x1 PUSH1 0x1 PUSH1 0xE0 SHL SUB NOT DUP3 AND PUSH4 0x7965DB0B PUSH1 0xE0 SHL EQ DUP1 PUSH2 0xCCE JUMPI POP PUSH4 0x1FFC9A7 PUSH1 0xE0 SHL PUSH1 0x1 PUSH1 0x1 PUSH1 0xE0 SHL SUB NOT DUP4 AND EQ JUMPDEST SWAP3 SWAP2 POP POP JUMP JUMPDEST PUSH0 DUP1 MLOAD PUSH1 0x20 PUSH2 0x3061 DUP4 CODECOPY DUP2 MLOAD SWAP2 MSTORE PUSH2 0xCEB DUP2 PUSH2 0x2784 JUMP JUMPDEST POP PUSH1 0x4 DUP1 SLOAD SWAP2 ISZERO ISZERO PUSH3 0x10000 MUL PUSH3 0xFF0000 NOT SWAP1 SWAP3 AND SWAP2 SWAP1 SWAP2 OR SWAP1 SSTORE JUMP JUMPDEST PUSH1 0x5 PUSH1 0x20 MSTORE DUP2 PUSH0 MSTORE PUSH1 0x40 PUSH0 KECCAK256 DUP2 DUP2 SLOAD DUP2 LT PUSH2 0xD21 JUMPI PUSH0 DUP1 REVERT JUMPDEST PUSH0 SWAP2 DUP3 MSTORE PUSH1 0x20 SWAP1 SWAP2 KECCAK256 PUSH1 0x2 SWAP1 SWAP2 MUL ADD DUP1 SLOAD PUSH1 0x1 SWAP1 SWAP2 ADD SLOAD PUSH1 0x1 PUSH1 0x1 PUSH1 0x60 SHL SUB DUP1 DUP4 AND SWAP5 POP PUSH1 0x1 PUSH1 0x60 SHL DUP4 DIV AND SWAP3 POP PUSH6 0xFFFFFFFFFFFF PUSH1 0x1 PUSH1 0xC0 SHL SWAP1 SWAP3 DIV DUP3 AND SWAP2 DUP2 AND SWAP1 PUSH1 0xFF PUSH1 0x1 PUSH1 0x30 SHL SWAP1 SWAP2 DIV AND DUP6 JUMP JUMPDEST PUSH32 0x241ECF16D79D0F8DBFB92CBC07FE17840425976CF0667F022FE9877CAA831B08 PUSH2 0xD9C DUP2 PUSH2 0x2784 JUMP JUMPDEST PUSH2 0xDA4 PUSH2 0x2795 JUMP JUMPDEST CALLVALUE PUSH0 SUB PUSH2 0xDC4 JUMPI PUSH1 0x40 MLOAD PUSH4 0x162908E3 PUSH1 0xE1 SHL DUP2 MSTORE PUSH1 0x4 ADD PUSH1 0x40 MLOAD DUP1 SWAP2 SUB SWAP1 REVERT JUMPDEST PUSH1 0x10 SLOAD CALLVALUE GT ISZERO PUSH2 0xDE7 JUMPI PUSH1 0x40 MLOAD PUSH4 0x4711311 PUSH1 0xE2 SHL DUP2 MSTORE PUSH1 0x4 ADD PUSH1 0x40 MLOAD DUP1 SWAP2 SUB SWAP1 REVERT JUMPDEST CALLVALUE PUSH1 0x10 PUSH0 DUP3 DUP3 SLOAD PUSH2 0xDF8 SWAP2 SWAP1 PUSH2 0x2F1B JUMP JUMPDEST SWAP1 SWAP2 SSTORE POP PUSH2 0xE06 SWAP1 POP PUSH2 0x27BF JUMP JUMPDEST PUSH1 0x1 PUSH1 0x1 PUSH1 0xA0 SHL SUB AND PUSH32 0xCB619AA4D31D17BCF75519DEB5BD3E1FE12D44C8A845BD640D85328477E53592 CALLVALUE TIMESTAMP PUSH1 0x40 MLOAD PUSH2 0xE49 SWAP3 SWAP2 SWAP1 SWAP2 DUP3 MSTORE PUSH1 0x20 DUP3 ADD MSTORE PUSH1 0x40 ADD SWAP1 JUMP JUMPDEST PUSH1 0x40 MLOAD DUP1 SWAP2 SUB SWAP1 LOG2 PUSH2 0xE5A PUSH1 0x1 DUP1 SSTORE JUMP JUMPDEST POP JUMP JUMPDEST PUSH2 0xE65 PUSH2 0x2795 JUMP JUMPDEST PUSH0 PUSH2 0xE6E PUSH2 0x27BF JUMP JUMPDEST PUSH1 0x1 PUSH1 0x1 PUSH1 0xA0 SHL SUB DUP2 AND PUSH0 SWAP1 DUP2 MSTORE PUSH1 0x8 PUSH1 0x20 MSTORE PUSH1 0x40 DUP2 KECCAK256 SLOAD SWAP2 SWAP3 POP DUP2 SWAP1 SUB PUSH2 0xEA9 JUMPI PUSH1 0x40 MLOAD PUSH4 0x3BD65A7B PUSH1 0xE2 SHL DUP2 MSTORE PUSH1 0x4 ADD PUSH1 0x40 MLOAD DUP1 SWAP2 SUB SWAP1 REVERT JUMPDEST PUSH1 0x1 PUSH1 0x1 PUSH1 0xA0 SHL SUB DUP3 AND PUSH0 SWAP1 DUP2 MSTORE PUSH1 0x8 PUSH1 0x20 MSTORE PUSH1 0x40 DUP2 KECCAK256 SSTORE PUSH2 0xECD DUP3 DUP3 PUSH1 0x1 PUSH2 0x27CD JUMP JUMPDEST DUP1 PUSH1 0xF PUSH0 DUP3 DUP3 SLOAD PUSH2 0xEDE SWAP2 SWAP1 PUSH2 0x2F2E JUMP JUMPDEST SWAP1 SWAP2 SSTORE POP POP PUSH1 0x1 PUSH1 0x1 PUSH1 0xA0 SHL SUB DUP3 AND PUSH0 SWAP1 DUP2 MSTORE PUSH1 0x9 PUSH1 0x20 MSTORE PUSH1 0x40 DUP2 KECCAK256 DUP1 SLOAD DUP4 SWAP3 SWAP1 PUSH2 0xF0A SWAP1 DUP5 SWAP1 PUSH2 0x2F2E JUMP JUMPDEST SWAP1 SWAP2 SSTORE POP POP PUSH1 0x40 DUP1 MLOAD DUP3 DUP2 MSTORE TIMESTAMP PUSH1 0x20 DUP3 ADD MSTORE PUSH1 0x1 PUSH1 0x1 PUSH1 0xA0 SHL SUB DUP5 AND SWAP2 PUSH32 0xC003F45BC224D116B6D079100D4AB57A5B9633244C47A5A92A176C5B79A85F28 SWAP2 ADD PUSH1 0x40 MLOAD DUP1 SWAP2 SUB SWAP1 LOG2 POP POP PUSH2 0xF5D PUSH1 0x1 DUP1 SSTORE JUMP JUMPDEST JUMP JUMPDEST PUSH1 0x1 PUSH1 0x1 PUSH1 0xA0 SHL SUB DUP2 AND PUSH0 SWAP1 DUP2 MSTORE PUSH1 0x5 PUSH1 0x20 SWAP1 DUP2 MSTORE PUSH1 0x40 DUP1 DUP4 KECCAK256 DUP1 SLOAD DUP3 MLOAD DUP2 DUP6 MUL DUP2 ADD DUP6 ADD SWAP1 SWAP4 MSTORE DUP1 DUP4 MSTORE PUSH1 0x60 SWAP5 SWAP3 SWAP4 SWAP2 SWAP3 SWAP1 SWAP2 DUP5 ADD JUMPDEST DUP3 DUP3 LT ISZERO PUSH2 0x1017 JUMPI PUSH0 DUP5 DUP2 MSTORE PUSH1 0x20 SWAP1 DUP2 SWAP1 KECCAK256 PUSH1 0x40 DUP1 MLOAD PUSH1 0xA0 DUP2 ADD DUP3 MSTORE PUSH1 0x2 DUP7 MUL SWAP1 SWAP3 ADD DUP1 SLOAD PUSH1 0x1 PUSH1 0x1 PUSH1 0x60 SHL SUB DUP1 DUP3 AND DUP6 MSTORE PUSH1 0x1 PUSH1 0x60 SHL DUP3 DIV AND DUP5 DUP7 ADD MSTORE PUSH1 0x1 PUSH1 0xC0 SHL SWAP1 DIV PUSH6 0xFFFFFFFFFFFF SWAP1 DUP2 AND SWAP3 DUP5 ADD SWAP3 SWAP1 SWAP3 MSTORE PUSH1 0x1 SWAP1 DUP2 ADD SLOAD SWAP2 DUP3 AND PUSH1 0x60 DUP5 ADD MSTORE PUSH1 0x1 PUSH1 0x30 SHL SWAP1 SWAP2 DIV PUSH1 0xFF AND PUSH1 0x80 DUP4 ADD MSTORE SWAP1 DUP4 MSTORE SWAP1 SWAP3 ADD SWAP2 ADD PUSH2 0xF96 JUMP JUMPDEST POP POP POP POP SWAP1 POP SWAP2 SWAP1 POP JUMP JUMPDEST PUSH2 0x102A PUSH2 0x2795 JUMP JUMPDEST PUSH1 0x4 SLOAD PUSH2 0x100 SWAP1 DIV PUSH1 0xFF AND ISZERO PUSH2 0x1053 JUMPI PUSH1 0x40 MLOAD PUSH4 0x6022A9E7 PUSH1 0xE0 SHL DUP2 MSTORE PUSH1 0x4 ADD PUSH1 0x40 MLOAD DUP1 SWAP2 SUB SWAP1 REVERT JUMPDEST PUSH0 PUSH2 0x105C PUSH2 0x27BF JUMP JUMPDEST PUSH1 0x1 PUSH1 0x1 PUSH1 0xA0 SHL SUB DUP2 AND PUSH0 SWAP1 DUP2 MSTORE PUSH1 0x5 PUSH1 0x20 MSTORE PUSH1 0x40 DUP2 KECCAK256 DUP1 SLOAD SWAP3 SWAP4 POP SWAP1 SWAP2 DUP5 SWAP1 DUP2 LT PUSH2 0x108A JUMPI PUSH2 0x108A PUSH2 0x2F41 JUMP JUMPDEST PUSH0 SWAP2 DUP3 MSTORE PUSH1 0x20 SWAP1 SWAP2 KECCAK256 PUSH1 0x1 PUSH1 0x2 SWAP1 SWAP3 MUL ADD DUP2 DUP2 ADD SLOAD SWAP1 SWAP3 POP PUSH1 0x1 PUSH1 0x30 SHL SWAP1 DIV AND ISZERO PUSH2 0x10C8 JUMPI PUSH1 0x40 MLOAD PUSH4 0x6507689F PUSH1 0xE0 SHL DUP2 MSTORE PUSH1 0x4 ADD PUSH1 0x40 MLOAD DUP1 SWAP2 SUB SWAP1 REVERT JUMPDEST PUSH1 0x2 SLOAD DUP2 SLOAD PUSH2 0x10E6 SWAP2 SWAP1 PUSH1 0x1 PUSH1 0xC0 SHL SWAP1 DIV PUSH6 0xFFFFFFFFFFFF AND PUSH2 0x2F2E JUMP JUMPDEST TIMESTAMP LT DUP1 ISZERO PUSH2 0x1100 JUMPI POP PUSH1 0x1 DUP2 ADD SLOAD PUSH1 0x1 PUSH1 0x30 SHL SWAP1 DIV PUSH1 0x2 AND ISZERO JUMPDEST DUP1 ISZERO PUSH2 0x112F JUMPI POP PUSH1 0x4 SLOAD PUSH4 0x1000000 SWAP1 DIV PUSH1 0xFF AND DUP1 ISZERO PUSH2 0x112D JUMPI POP PUSH1 0x1 DUP2 ADD SLOAD PUSH1 0x1 PUSH1 0x30 SHL SWAP1 DIV PUSH1 0x4 AND ISZERO ISZERO JUMPDEST ISZERO JUMPDEST ISZERO PUSH2 0x114D JUMPI PUSH1 0x40 MLOAD PUSH4 0xF38B9B5B PUSH1 0xE0 SHL DUP2 MSTORE PUSH1 0x4 ADD PUSH1 0x40 MLOAD DUP1 SWAP2 SUB SWAP1 REVERT JUMPDEST PUSH1 0x1 DUP2 DUP2 ADD DUP1 SLOAD PUSH7 0xFFFFFFFFFFFFFF NOT DUP2 AND PUSH1 0x1 PUSH1 0x30 SHL SWAP2 DUP3 SWAP1 DIV PUSH1 0xFF AND SWAP1 SWAP4 OR MUL PUSH6 0xFFFFFFFFFFFF NOT AND SWAP2 SWAP1 SWAP2 OR TIMESTAMP PUSH6 0xFFFFFFFFFFFF AND OR SWAP1 SSTORE DUP1 SLOAD PUSH1 0xD DUP1 SLOAD PUSH1 0x1 PUSH1 0x1 PUSH1 0x60 SHL SUB DUP1 DUP5 AND SWAP4 PUSH1 0x1 PUSH1 0x60 SHL SWAP1 DIV AND SWAP2 DUP4 SWAP2 PUSH0 SWAP1 PUSH2 0x11B2 SWAP1 DUP5 SWAP1 PUSH2 0x2F2E JUMP JUMPDEST SWAP1 SWAP2 SSTORE POP PUSH0 SWAP1 POP PUSH1 0x1 PUSH1 0x1 PUSH1 0xA0 SHL SUB DUP6 AND PUSH2 0x11CD DUP4 DUP6 PUSH2 0x2F2E JUMP JUMPDEST PUSH1 0x40 MLOAD PUSH0 DUP2 DUP2 DUP2 DUP6 DUP8 GAS CALL SWAP3 POP POP POP RETURNDATASIZE DUP1 PUSH0 DUP2 EQ PUSH2 0x1206 JUMPI PUSH1 0x40 MLOAD SWAP2 POP PUSH1 0x1F NOT PUSH1 0x3F RETURNDATASIZE ADD AND DUP3 ADD PUSH1 0x40 MSTORE RETURNDATASIZE DUP3 MSTORE RETURNDATASIZE PUSH0 PUSH1 0x20 DUP5 ADD RETURNDATACOPY PUSH2 0x120B JUMP JUMPDEST PUSH1 0x60 SWAP2 POP JUMPDEST POP POP SWAP1 POP DUP1 PUSH2 0x122D JUMPI PUSH1 0x40 MLOAD PUSH4 0x12171D83 PUSH1 0xE3 SHL DUP2 MSTORE PUSH1 0x4 ADD PUSH1 0x40 MLOAD DUP1 SWAP2 SUB SWAP1 REVERT JUMPDEST PUSH1 0x1 PUSH1 0x1 PUSH1 0xA0 SHL SUB DUP6 AND PUSH0 SWAP1 DUP2 MSTORE PUSH1 0x7 PUSH1 0x20 MSTORE PUSH1 0x40 SWAP1 KECCAK256 SLOAD PUSH1 0xFF AND PUSH2 0x12BC JUMPI PUSH1 0xB DUP1 SLOAD PUSH1 0x1 DUP1 DUP3 ADD SWAP1 SWAP3 SSTORE PUSH32 0x175B7A638427703F0DBE7BB9BBF987A2551717B34E79F33B5B1008D1FA01DB9 ADD DUP1 SLOAD PUSH20 0xFFFFFFFFFFFFFFFFFFFFFFFFFFFFFFFFFFFFFFFF NOT AND PUSH1 0x1 PUSH1 0x1 PUSH1 0xA0 SHL SUB DUP9 AND SWAP1 DUP2 OR SWAP1 SWAP2 SSTORE PUSH0 SWAP1 DUP2 MSTORE PUSH1 0x7 PUSH1 0x20 MSTORE PUSH1 0x40 SWAP1 KECCAK256 DUP1 SLOAD PUSH1 0xFF NOT AND SWAP1 SWAP2 OR SWAP1 SSTORE JUMPDEST PUSH1 0x40 DUP1 MLOAD DUP5 DUP2 MSTORE PUSH1 0x20 DUP2 ADD DUP5 SWAP1 MSTORE TIMESTAMP DUP2 DUP4 ADD MSTORE PUSH1 0x60 DUP2 ADD DUP9 SWAP1 MSTORE SWAP1 MLOAD PUSH1 0x1 PUSH1 0x1 PUSH1 0xA0 SHL SUB DUP8 AND SWAP2 PUSH32 0xE08737AC48A1DAB4B1A46C7DC9398BD5BFC6D7AD6FABB7CD8CAA254DE14DEF35 SWAP2 SWAP1 DUP2 SWAP1 SUB PUSH1 0x80 ADD SWAP1 LOG2 POP POP POP POP POP PUSH2 0xE5A PUSH1 0x1 DUP1 SSTORE JUMP JUMPDEST PUSH0 DUP3 DUP2 MSTORE PUSH1 0x20 DUP2 SWAP1 MSTORE PUSH1 0x40 SWAP1 KECCAK256 PUSH1 0x1 ADD SLOAD PUSH2 0x1336 DUP2 PUSH2 0x2784 JUMP JUMPDEST PUSH2 0x1340 DUP4 DUP4 PUSH2 0x2988 JUMP JUMPDEST POP POP POP POP JUMP JUMPDEST PUSH2 0x134E PUSH2 0x27BF JUMP JUMPDEST PUSH1 0x1 PUSH1 0x1 PUSH1 0xA0 SHL SUB AND DUP2 PUSH1 0x1 PUSH1 0x1 PUSH1 0xA0 SHL SUB AND EQ PUSH2 0x137F JUMPI PUSH1 0x40 MLOAD PUSH4 0x334BD919 PUSH1 0xE1 SHL DUP2 MSTORE PUSH1 0x4 ADD PUSH1 0x40 MLOAD DUP1 SWAP2 SUB SWAP1 REVERT JUMPDEST PUSH2 0x1389 DUP3 DUP3 PUSH2 0x2A30 JUMP JUMPDEST POP POP POP JUMP JUMPDEST PUSH0 DUP1 MLOAD PUSH1 0x20 PUSH2 0x3061 DUP4 CODECOPY DUP2 MLOAD SWAP2 MSTORE PUSH2 0x13A5 DUP2 PUSH2 0x2784 JUMP JUMPDEST DUP4 DUP3 EQ PUSH2 0x13C5 JUMPI PUSH1 0x40 MLOAD PUSH4 0x512509D3 PUSH1 0xE1 SHL DUP2 MSTORE PUSH1 0x4 ADD PUSH1 0x40 MLOAD DUP1 SWAP2 SUB SWAP1 REVERT JUMPDEST PUSH0 JUMPDEST DUP5 DUP2 LT ISZERO PUSH2 0x14DA JUMPI DUP4 DUP4 DUP3 DUP2 DUP2 LT PUSH2 0x13E1 JUMPI PUSH2 0x13E1 PUSH2 0x2F41 JUMP JUMPDEST SWAP1 POP PUSH1 0x20 MUL ADD PUSH1 0x20 DUP2 ADD SWAP1 PUSH2 0x13F6 SWAP2 SWAP1 PUSH2 0x2BCA JUMP JUMPDEST PUSH1 0x6 PUSH0 DUP9 DUP9 DUP6 DUP2 DUP2 LT PUSH2 0x140B JUMPI PUSH2 0x140B PUSH2 0x2F41 JUMP JUMPDEST SWAP1 POP PUSH1 0x20 MUL ADD PUSH1 0x20 DUP2 ADD SWAP1 PUSH2 0x1420 SWAP2 SWAP1 PUSH2 0x2C3F JUMP JUMPDEST PUSH1 0x1 PUSH1 0x1 PUSH1 0xA0 SHL SUB AND DUP2 MSTORE PUSH1 0x20 DUP2 ADD SWAP2 SWAP1 SWAP2 MSTORE PUSH1 0x40 ADD PUSH0 KECCAK256 DUP1 SLOAD PUSH1 0xFF NOT AND SWAP2 ISZERO ISZERO SWAP2 SWAP1 SWAP2 OR SWAP1 SSTORE DUP6 DUP6 DUP3 DUP2 DUP2 LT PUSH2 0x1459 JUMPI PUSH2 0x1459 PUSH2 0x2F41 JUMP JUMPDEST SWAP1 POP PUSH1 0x20 MUL ADD PUSH1 0x20 DUP2 ADD SWAP1 PUSH2 0x146E SWAP2 SWAP1 PUSH2 0x2C3F JUMP JUMPDEST PUSH1 0x1 PUSH1 0x1 PUSH1 0xA0 SHL SUB AND PUSH32 0x995D2434D36C9BCEAAB42C56EFE51E8FFE41FD11CABEFD9E2CB83700D8B2035E DUP6 DUP6 DUP5 DUP2 DUP2 LT PUSH2 0x14AA JUMPI PUSH2 0x14AA PUSH2 0x2F41 JUMP JUMPDEST SWAP1 POP PUSH1 0x20 MUL ADD PUSH1 0x20 DUP2 ADD SWAP1 PUSH2 0x14BF SWAP2 SWAP1 PUSH2 0x2BCA JUMP JUMPDEST PUSH1 0x40 MLOAD SWAP1 ISZERO ISZERO DUP2 MSTORE PUSH1 0x20 ADD PUSH1 0x40 MLOAD DUP1 SWAP2 SUB SWAP1 LOG2 PUSH1 0x1 ADD PUSH2 0x13C7 JUMP JUMPDEST POP POP POP POP POP POP JUMP JUMPDEST PUSH1 0x1 PUSH1 0x1 PUSH1 0xA0 SHL SUB DUP2 AND PUSH0 SWAP1 DUP2 MSTORE PUSH1 0x5 PUSH1 0x20 MSTORE PUSH1 0x40 DUP2 KECCAK256 DUP2 SWAP1 DUP2 SWAP1 DUP2 SWAP1 DUP2 JUMPDEST DUP2 SLOAD DUP2 LT ISZERO PUSH2 0x15F9 JUMPI PUSH0 DUP3 DUP3 DUP2 SLOAD DUP2 LT PUSH2 0x151D JUMPI PUSH2 0x151D PUSH2 0x2F41 JUMP JUMPDEST PUSH0 SWAP2 DUP3 MSTORE PUSH1 0x20 SWAP2 DUP3 SWAP1 KECCAK256 PUSH1 0x40 DUP1 MLOAD PUSH1 0xA0 DUP2 ADD DUP3 MSTORE PUSH1 0x2 SWAP4 SWAP1 SWAP4 MUL SWAP1 SWAP2 ADD DUP1 SLOAD PUSH1 0x1 PUSH1 0x1 PUSH1 0x60 SHL SUB DUP1 DUP3 AND DUP1 DUP7 MSTORE PUSH1 0x1 PUSH1 0x60 SHL DUP4 DIV SWAP1 SWAP2 AND SWAP6 DUP6 ADD SWAP6 SWAP1 SWAP6 MSTORE PUSH1 0x1 PUSH1 0xC0 SHL SWAP1 DIV PUSH6 0xFFFFFFFFFFFF SWAP1 DUP2 AND SWAP3 DUP5 ADD SWAP3 SWAP1 SWAP3 MSTORE PUSH1 0x1 ADD SLOAD SWAP1 DUP2 AND PUSH1 0x60 DUP4 ADD MSTORE PUSH1 0x1 PUSH1 0x30 SHL SWAP1 DIV PUSH1 0xFF DUP2 AND PUSH1 0x80 DUP4 ADD MSTORE SWAP1 SWAP3 POP PUSH1 0x8 AND ISZERO ISZERO SWAP1 PUSH2 0x15A2 SWAP1 DUP10 PUSH2 0x2F2E JUMP JUMPDEST SWAP8 POP PUSH2 0x15B4 DUP3 PUSH1 0x80 ADD MLOAD PUSH1 0x1 AND ISZERO ISZERO SWAP1 JUMP JUMPDEST ISZERO PUSH2 0x15D1 JUMPI DUP2 MLOAD PUSH2 0x15CE SWAP1 PUSH1 0x1 PUSH1 0x1 PUSH1 0x60 SHL SUB AND DUP9 PUSH2 0x2F2E JUMP JUMPDEST SWAP7 POP JUMPDEST DUP1 ISZERO PUSH2 0x15EF JUMPI DUP2 MLOAD PUSH2 0x15EC SWAP1 PUSH1 0x1 PUSH1 0x1 PUSH1 0x60 SHL SUB AND DUP7 PUSH2 0x2F2E JUMP JUMPDEST SWAP5 POP JUMPDEST POP POP PUSH1 0x1 ADD PUSH2 0x1501 JUMP JUMPDEST POP POP PUSH1 0x1 PUSH1 0x1 PUSH1 0xA0 SHL SUB SWAP1 SWAP5 AND PUSH0 SWAP1 DUP2 MSTORE PUSH1 0x8 PUSH1 0x20 MSTORE PUSH1 0x40 SWAP1 KECCAK256 SLOAD SWAP3 SWAP5 SWAP2 SWAP4 SWAP2 SWAP1 POP JUMP JUMPDEST PUSH0 DUP1 MLOAD PUSH1 0x20 PUSH2 0x3061 DUP4 CODECOPY DUP2 MLOAD SWAP2 MSTORE PUSH2 0x1634 DUP2 PUSH2 0x2784 JUMP JUMPDEST PUSH1 0x1 PUSH1 0x1 PUSH1 0xA0 SHL SUB DUP4 AND PUSH0 DUP2 DUP2 MSTORE PUSH1 0x6 PUSH1 0x20 SWAP1 DUP2 MSTORE PUSH1 0x40 SWAP2 DUP3 SWAP1 KECCAK256 DUP1 SLOAD PUSH1 0xFF NOT AND DUP7 ISZERO ISZERO SWAP1 DUP2 OR SWAP1 SWAP2 SSTORE SWAP2 MLOAD SWAP2 DUP3 MSTORE PUSH32 0x995D2434D36C9BCEAAB42C56EFE51E8FFE41FD11CABEFD9E2CB83700D8B2035E SWAP2 ADD PUSH1 0x40 MLOAD DUP1 SWAP2 SUB SWAP1 LOG2 POP POP POP JUMP JUMPDEST PUSH32 0xF60566C40710959D8D30B6067CE3C53C757BEC78EECB0E46B83C7F8194FFAE37 PUSH2 0x16BD DUP2 PUSH2 0x2784 JUMP JUMPDEST CALLVALUE PUSH0 SUB PUSH2 0x16DD JUMPI PUSH1 0x40 MLOAD PUSH4 0x162908E3 PUSH1 0xE1 SHL DUP2 MSTORE PUSH1 0x4 ADD PUSH1 0x40 MLOAD DUP1 SWAP2 SUB SWAP1 REVERT JUMPDEST CALLVALUE PUSH1 0xE PUSH0 DUP3 DUP3 SLOAD PUSH2 0x16EE SWAP2 SWAP1 PUSH2 0x2F2E JUMP JUMPDEST SWAP1 SWAP2 SSTORE POP PUSH2 0x16FC SWAP1 POP PUSH2 0x27BF JUMP JUMPDEST PUSH1 0x1 PUSH1 0x1 PUSH1 0xA0 SHL SUB AND PUSH32 0xE1887F49A055375CBB879AD11F651ACB6C9726240B290B3A8B37062F15A34B83 CALLVALUE TIMESTAMP PUSH1 0x40 MLOAD PUSH2 0x173F SWAP3 SWAP2 SWAP1 SWAP2 DUP3 MSTORE PUSH1 0x20 DUP3 ADD MSTORE PUSH1 0x40 ADD SWAP1 JUMP JUMPDEST PUSH1 0x40 MLOAD DUP1 SWAP2 SUB SWAP1 LOG2 POP JUMP JUMPDEST PUSH32 0x65D7A28E3265B37A6474929F336521B332C1681B933F6CB9F3376673440D862A PUSH2 0x1774 DUP2 PUSH2 0x2784 JUMP JUMPDEST PUSH1 0x4 DUP1 SLOAD DUP4 ISZERO ISZERO PUSH2 0x100 DUP2 MUL PUSH2 0xFF00 NOT DUP8 ISZERO ISZERO SWAP1 DUP2 AND PUSH2 0xFFFF NOT SWAP1 SWAP5 AND SWAP4 SWAP1 SWAP4 OR OR SWAP1 SWAP3 SSTORE PUSH1 0x40 DUP1 MLOAD SWAP2 DUP3 MSTORE PUSH1 0x20 DUP3 ADD SWAP3 SWAP1 SWAP3 MSTORE PUSH32 0xAC1664632D6278432AA05A6AFC0AA83E5EA08E8DF9A1436736DAA5D6283211C0 SWAP2 ADD PUSH1 0x40 MLOAD DUP1 SWAP2 SUB SWAP1 LOG1 POP POP POP JUMP JUMPDEST PUSH0 DUP1 MLOAD PUSH1 0x20 PUSH2 0x3061 DUP4 CODECOPY DUP2 MLOAD SWAP2 MSTORE PUSH2 0x17EF DUP2 PUSH2 0x2784 JUMP JUMPDEST DUP2 PUSH0 SUB PUSH2 0x180F JUMPI PUSH1 0x40 MLOAD PUSH4 0x162908E3 PUSH1 0xE1 SHL DUP2 MSTORE PUSH1 0x4 ADD PUSH1 0x40 MLOAD DUP1 SWAP2 SUB SWAP1 REVERT JUMPDEST PUSH1 0xE SLOAD DUP3 GT ISZERO PUSH2 0x1832 JUMPI PUSH1 0x40 MLOAD PUSH4 0x2F37549D PUSH1 0xE0 SHL DUP2 MSTORE PUSH1 0x4 ADD PUSH1 0x40 MLOAD DUP1 SWAP2 SUB SWAP1 REVERT JUMPDEST PUSH1 0x1 PUSH1 0x1 PUSH1 0xA0 SHL SUB DUP4 AND PUSH0 SWAP1 DUP2 MSTORE PUSH1 0x8 PUSH1 0x20 MSTORE PUSH1 0x40 DUP2 KECCAK256 DUP1 SLOAD DUP5 SWAP3 SWAP1 PUSH2 0x1859 SWAP1 DUP5 SWAP1 PUSH2 0x2F2E JUMP JUMPDEST SWAP3 POP POP DUP2 SWAP1 SSTORE POP DUP2 PUSH1 0xE PUSH0 DUP3 DUP3 SLOAD PUSH2 0x1871 SWAP2 SWAP1 PUSH2 0x2F1B JUMP JUMPDEST SWAP1 SWAP2 SSTORE POP POP POP POP POP JUMP JUMPDEST PUSH2 0x1883 PUSH2 0x2795 JUMP JUMPDEST PUSH1 0x4 SLOAD PUSH2 0x100 SWAP1 DIV PUSH1 0xFF AND ISZERO PUSH2 0x18AC JUMPI PUSH1 0x40 MLOAD PUSH4 0x6022A9E7 PUSH1 0xE0 SHL DUP2 MSTORE PUSH1 0x4 ADD PUSH1 0x40 MLOAD DUP1 SWAP2 SUB SWAP1 REVERT JUMPDEST PUSH0 PUSH2 0x18B5 PUSH2 0x27BF JUMP JUMPDEST SWAP1 POP PUSH0 DUP1 PUSH0 JUMPDEST DUP5 DUP2 LT ISZERO PUSH2 0x1AA2 JUMPI PUSH0 DUP7 DUP7 DUP4 DUP2 DUP2 LT PUSH2 0x18D6 JUMPI PUSH2 0x18D6 PUSH2 0x2F41 JUMP JUMPDEST SWAP1 POP PUSH1 0x20 MUL ADD CALLDATALOAD SWAP1 POP PUSH0 PUSH1 0x5 PUSH0 DUP8 PUSH1 0x1 PUSH1 0x1 PUSH1 0xA0 SHL SUB AND PUSH1 0x1 PUSH1 0x1 PUSH1 0xA0 SHL SUB AND DUP2 MSTORE PUSH1 0x20 ADD SWAP1 DUP2 MSTORE PUSH1 0x20 ADD PUSH0 KECCAK256 DUP3 DUP2 SLOAD DUP2 LT PUSH2 0x1914 JUMPI PUSH2 0x1914 PUSH2 0x2F41 JUMP JUMPDEST PUSH0 SWAP2 DUP3 MSTORE PUSH1 0x20 SWAP1 SWAP2 KECCAK256 PUSH1 0x1 PUSH1 0x2 SWAP1 SWAP3 MUL ADD DUP2 DUP2 ADD SLOAD SWAP1 SWAP3 POP PUSH1 0x1 PUSH1 0x30 SHL SWAP1 DIV AND ISZERO PUSH2 0x1952 JUMPI PUSH1 0x40 MLOAD PUSH4 0x6507689F PUSH1 0xE0 SHL DUP2 MSTORE PUSH1 0x4 ADD PUSH1 0x40 MLOAD DUP1 SWAP2 SUB SWAP1 REVERT JUMPDEST PUSH1 0x2 SLOAD DUP2 SLOAD PUSH2 0x1970 SWAP2 SWAP1 PUSH1 0x1 PUSH1 0xC0 SHL SWAP1 DIV PUSH6 0xFFFFFFFFFFFF AND PUSH2 0x2F2E JUMP JUMPDEST TIMESTAMP LT DUP1 ISZERO PUSH2 0x198A JUMPI POP PUSH1 0x1 DUP2 ADD SLOAD PUSH1 0x1 PUSH1 0x30 SHL SWAP1 DIV PUSH1 0x2 AND ISZERO JUMPDEST DUP1 ISZERO PUSH2 0x19B9 JUMPI POP PUSH1 0x4 SLOAD PUSH4 0x1000000 SWAP1 DIV PUSH1 0xFF AND DUP1 ISZERO PUSH2 0x19B7 JUMPI POP PUSH1 0x1 DUP2 ADD SLOAD PUSH1 0x1 PUSH1 0x30 SHL SWAP1 DIV PUSH1 0x4 AND ISZERO ISZERO JUMPDEST ISZERO JUMPDEST ISZERO PUSH2 0x19D7 JUMPI PUSH1 0x40 MLOAD PUSH4 0xF38B9B5B PUSH1 0xE0 SHL DUP2 MSTORE PUSH1 0x4 ADD PUSH1 0x40 MLOAD DUP1 SWAP2 SUB SWAP1 REVERT JUMPDEST PUSH1 0x1 DUP2 DUP2 ADD DUP1 SLOAD PUSH7 0xFFFFFFFFFFFFFF NOT DUP2 AND PUSH1 0x1 PUSH1 0x30 SHL SWAP2 DUP3 SWAP1 DIV PUSH1 0xFF AND SWAP1 SWAP4 OR MUL PUSH6 0xFFFFFFFFFFFF NOT AND SWAP2 SWAP1 SWAP2 OR TIMESTAMP PUSH6 0xFFFFFFFFFFFF AND OR SWAP1 SSTORE DUP1 SLOAD PUSH1 0x1 PUSH1 0x1 PUSH1 0x60 SHL SUB DUP1 DUP3 AND SWAP2 PUSH1 0x1 PUSH1 0x60 SHL SWAP1 DIV AND PUSH2 0x1A32 DUP3 DUP9 PUSH2 0x2F2E JUMP JUMPDEST SWAP7 POP PUSH2 0x1A3E DUP2 DUP8 PUSH2 0x2F2E JUMP JUMPDEST PUSH1 0x40 DUP1 MLOAD DUP5 DUP2 MSTORE PUSH1 0x20 DUP2 ADD DUP5 SWAP1 MSTORE TIMESTAMP DUP2 DUP4 ADD MSTORE PUSH1 0x60 DUP2 ADD DUP8 SWAP1 MSTORE SWAP1 MLOAD SWAP2 SWAP8 POP PUSH1 0x1 PUSH1 0x1 PUSH1 0xA0 SHL SUB DUP11 AND SWAP2 PUSH32 0xE08737AC48A1DAB4B1A46C7DC9398BD5BFC6D7AD6FABB7CD8CAA254DE14DEF35 SWAP2 DUP2 SWAP1 SUB PUSH1 0x80 ADD SWAP1 LOG2 POP POP PUSH1 0x1 SWAP1 SWAP3 ADD SWAP2 POP PUSH2 0x18BB SWAP1 POP JUMP JUMPDEST POP DUP2 ISZERO PUSH2 0x1AC0 JUMPI DUP2 PUSH1 0xD PUSH0 DUP3 DUP3 SLOAD PUSH2 0x1ABA SWAP2 SWAP1 PUSH2 0x2F2E JUMP JUMPDEST SWAP1 SWAP2 SSTORE POP POP JUMPDEST PUSH1 0x1 PUSH1 0x1 PUSH1 0xA0 SHL SUB DUP4 AND PUSH0 SWAP1 DUP2 MSTORE PUSH1 0x7 PUSH1 0x20 MSTORE PUSH1 0x40 SWAP1 KECCAK256 SLOAD PUSH1 0xFF AND ISZERO DUP1 ISZERO PUSH2 0x1AE7 JUMPI POP DUP4 ISZERO ISZERO JUMPDEST ISZERO PUSH2 0x1B5C JUMPI PUSH1 0xB DUP1 SLOAD PUSH1 0x1 DUP1 DUP3 ADD SWAP1 SWAP3 SSTORE PUSH32 0x175B7A638427703F0DBE7BB9BBF987A2551717B34E79F33B5B1008D1FA01DB9 ADD DUP1 SLOAD PUSH20 0xFFFFFFFFFFFFFFFFFFFFFFFFFFFFFFFFFFFFFFFF NOT AND PUSH1 0x1 PUSH1 0x1 PUSH1 0xA0 SHL SUB DUP7 AND SWAP1 DUP2 OR SWAP1 SWAP2 SSTORE PUSH0 SWAP1 DUP2 MSTORE PUSH1 0x7 PUSH1 0x20 MSTORE PUSH1 0x40 SWAP1 KECCAK256 DUP1 SLOAD PUSH1 0xFF NOT AND SWAP1 SWAP2 OR SWAP1 SSTORE JUMPDEST PUSH0 PUSH2 0x1B67 DUP3 DUP5 PUSH2 0x2F2E JUMP JUMPDEST GT ISZERO PUSH2 0x1C2C JUMPI PUSH0 PUSH1 0x1 PUSH1 0x1 PUSH1 0xA0 SHL SUB DUP5 AND PUSH2 0x1B82 DUP4 DUP6 PUSH2 0x2F2E JUMP JUMPDEST PUSH1 0x40 MLOAD PUSH0 DUP2 DUP2 DUP2 DUP6 DUP8 GAS CALL SWAP3 POP POP POP RETURNDATASIZE DUP1 PUSH0 DUP2 EQ PUSH2 0x1BBB JUMPI PUSH1 0x40 MLOAD SWAP2 POP PUSH1 0x1F NOT PUSH1 0x3F RETURNDATASIZE ADD AND DUP3 ADD PUSH1 0x40 MSTORE RETURNDATASIZE DUP3 MSTORE RETURNDATASIZE PUSH0 PUSH1 0x20 DUP5 ADD RETURNDATACOPY PUSH2 0x1BC0 JUMP JUMPDEST PUSH1 0x60 SWAP2 POP JUMPDEST POP POP SWAP1 POP DUP1 PUSH2 0x1BE2 JUMPI PUSH1 0x40 MLOAD PUSH4 0x12171D83 PUSH1 0xE3 SHL DUP2 MSTORE PUSH1 0x4 ADD PUSH1 0x40 MLOAD DUP1 SWAP2 SUB SWAP1 REVERT JUMPDEST DUP4 PUSH1 0x1 PUSH1 0x1 PUSH1 0xA0 SHL SUB AND PUSH31 0xDEEA64DB396F60259AE2FD8BFF7020EA68E8E86E8D36D50D37AB00402AD3A5 DUP8 DUP8 DUP7 DUP7 TIMESTAMP PUSH1 0x40 MLOAD PUSH2 0x1C22 SWAP6 SWAP5 SWAP4 SWAP3 SWAP2 SWAP1 PUSH2 0x2F9E JUMP JUMPDEST PUSH1 0x40 MLOAD DUP1 SWAP2 SUB SWAP1 LOG2 POP JUMPDEST POP POP POP PUSH2 0x1C38 PUSH1 0x1 DUP1 SSTORE JUMP JUMPDEST POP POP JUMP JUMPDEST PUSH0 DUP1 MLOAD PUSH1 0x20 PUSH2 0x3061 DUP4 CODECOPY DUP2 MLOAD SWAP2 MSTORE PUSH2 0x1C53 DUP2 PUSH2 0x2784 JUMP JUMPDEST PUSH1 0x3 DUP3 SWAP1 SSTORE PUSH1 0x40 MLOAD DUP3 DUP2 MSTORE PUSH32 0x1E6516523C603EDD47BF2F9E4D2C46464A7B7588009B39BC0D190E86D0EB0747 SWAP1 PUSH1 0x20 ADD JUMPDEST PUSH1 0x40 MLOAD DUP1 SWAP2 SUB SWAP1 LOG1 POP POP JUMP JUMPDEST PUSH32 0xC806897CAF4FD5068191157E44D3988E43139A37E0B97B6793E1ED1184140604 PUSH2 0x1CBA DUP2 PUSH2 0x2784 JUMP JUMPDEST PUSH0 JUMPDEST DUP3 DUP2 LT ISZERO PUSH2 0x1D89 JUMPI PUSH1 0x1 PUSH1 0x1 PUSH1 0xA0 SHL SUB DUP6 AND PUSH0 SWAP1 DUP2 MSTORE PUSH1 0x5 PUSH1 0x20 MSTORE PUSH1 0x40 DUP2 KECCAK256 DUP6 DUP6 DUP5 DUP2 DUP2 LT PUSH2 0x1CED JUMPI PUSH2 0x1CED PUSH2 0x2F41 JUMP JUMPDEST SWAP1 POP PUSH1 0x20 MUL ADD CALLDATALOAD DUP2 SLOAD DUP2 LT PUSH2 0x1D04 JUMPI PUSH2 0x1D04 PUSH2 0x2F41 JUMP JUMPDEST PUSH0 SWAP2 DUP3 MSTORE PUSH1 0x20 SWAP1 SWAP2 KECCAK256 PUSH1 0x1 PUSH1 0x2 SWAP1 SWAP3 MUL ADD DUP2 DUP2 ADD SLOAD SWAP1 SWAP3 POP PUSH1 0x1 PUSH1 0x30 SHL SWAP1 DIV AND ISZERO ISZERO DUP1 PUSH2 0x1D3E JUMPI POP PUSH1 0x1 DUP2 ADD SLOAD PUSH1 0x1 PUSH1 0x30 SHL SWAP1 DIV PUSH1 0x2 AND ISZERO ISZERO JUMPDEST ISZERO PUSH2 0x1D5C JUMPI PUSH1 0x40 MLOAD PUSH4 0x181821BD PUSH1 0xE1 SHL DUP2 MSTORE PUSH1 0x4 ADD PUSH1 0x40 MLOAD DUP1 SWAP2 SUB SWAP1 REVERT JUMPDEST PUSH1 0x1 SWAP1 DUP2 ADD DUP1 SLOAD PUSH7 0xFF000000000000 NOT DUP2 AND PUSH1 0x1 PUSH1 0x30 SHL SWAP2 DUP3 SWAP1 DIV PUSH1 0xFF AND PUSH1 0x2 OR SWAP1 SWAP2 MUL OR SWAP1 SSTORE ADD PUSH2 0x1CBC JUMP JUMPDEST POP DUP4 PUSH1 0x1 PUSH1 0x1 PUSH1 0xA0 SHL SUB AND PUSH32 0x8B655A966F162E1D3686EA25CD61682331984AB5662B451DEFF96F12D716F45B DUP5 DUP5 PUSH1 0x40 MLOAD PUSH2 0x1DC5 SWAP3 SWAP2 SWAP1 PUSH2 0x2FCE JUMP JUMPDEST PUSH1 0x40 MLOAD DUP1 SWAP2 SUB SWAP1 LOG2 POP POP POP POP JUMP JUMPDEST PUSH0 DUP1 MLOAD PUSH1 0x20 PUSH2 0x3061 DUP4 CODECOPY DUP2 MLOAD SWAP2 MSTORE PUSH2 0x1DEA DUP2 PUSH2 0x2784 JUMP JUMPDEST PUSH1 0x1 PUSH1 0x1 PUSH1 0xA0 SHL SUB DUP3 AND PUSH2 0x1E11 JUMPI PUSH1 0x40 MLOAD PUSH4 0xD92E233D PUSH1 0xE0 SHL DUP2 MSTORE PUSH1 0x4 ADD PUSH1 0x40 MLOAD DUP1 SWAP2 SUB SWAP1 REVERT JUMPDEST PUSH1 0x4 DUP1 SLOAD PUSH32 0xFFFF0000000000000000000000000000000000000000FFFFFFFFFFFFFFFFFFFF AND PUSH1 0x1 PUSH1 0x50 SHL PUSH1 0x1 PUSH1 0x1 PUSH1 0xA0 SHL SUB DUP6 AND SWAP1 DUP2 MUL SWAP2 SWAP1 SWAP2 OR SWAP1 SWAP2 SSTORE PUSH1 0x40 MLOAD SWAP1 DUP2 MSTORE PUSH32 0x1D6240E71A77C9E9D07D1D6ECBB9EA4274FCC8BC19ADC5B05A3548AC7E40E189 SWAP1 PUSH1 0x20 ADD PUSH2 0x1C84 JUMP JUMPDEST PUSH32 0x78C90EB9E475048B483A290AEE04B5FE48355537C3623C7637B17D3BED71C6ED PUSH2 0x1EAA DUP2 PUSH2 0x2784 JUMP JUMPDEST PUSH2 0x1EB2 PUSH2 0x2795 JUMP JUMPDEST PUSH1 0x4 SLOAD PUSH1 0x1 PUSH1 0x50 SHL SWAP1 DIV PUSH1 0x1 PUSH1 0x1 PUSH1 0xA0 SHL SUB AND PUSH2 0x1EE2 JUMPI PUSH1 0x40 MLOAD PUSH4 0xD92E233D PUSH1 0xE0 SHL DUP2 MSTORE PUSH1 0x4 ADD PUSH1 0x40 MLOAD DUP1 SWAP2 SUB SWAP1 REVERT JUMPDEST SELFBALANCE DUP3 GT ISZERO PUSH2 0x1F03 JUMPI PUSH1 0x40 MLOAD PUSH4 0x1E9ACF17 PUSH1 0xE3 SHL DUP2 MSTORE PUSH1 0x4 ADD PUSH1 0x40 MLOAD DUP1 SWAP2 SUB SWAP1 REVERT JUMPDEST PUSH1 0x4 SLOAD PUSH1 0x40 MLOAD PUSH0 SWAP2 PUSH1 0x1 PUSH1 0x50 SHL SWAP1 DIV PUSH1 0x1 PUSH1 0x1 PUSH1 0xA0 SHL SUB AND SWAP1 DUP5 SWAP1 DUP4 DUP2 DUP2 DUP2 DUP6 DUP8 GAS CALL SWAP3 POP POP POP RETURNDATASIZE DUP1 PUSH0 DUP2 EQ PUSH2 0x1F54 JUMPI PUSH1 0x40 MLOAD SWAP2 POP PUSH1 0x1F NOT PUSH1 0x3F RETURNDATASIZE ADD AND DUP3 ADD PUSH1 0x40 MSTORE RETURNDATASIZE DUP3 MSTORE RETURNDATASIZE PUSH0 PUSH1 0x20 DUP5 ADD RETURNDATACOPY PUSH2 0x1F59 JUMP JUMPDEST PUSH1 0x60 SWAP2 POP JUMPDEST POP POP SWAP1 POP DUP1 PUSH2 0x1F7B JUMPI PUSH1 0x40 MLOAD PUSH4 0x12171D83 PUSH1 0xE3 SHL DUP2 MSTORE PUSH1 0x4 ADD PUSH1 0x40 MLOAD DUP1 SWAP2 SUB SWAP1 REVERT JUMPDEST PUSH1 0x4 SLOAD PUSH1 0x40 DUP1 MLOAD DUP6 DUP2 MSTORE TIMESTAMP PUSH1 0x20 DUP3 ADD MSTORE PUSH1 0x1 PUSH1 0x50 SHL SWAP1 SWAP3 DIV PUSH1 0x1 PUSH1 0x1 PUSH1 0xA0 SHL SUB AND SWAP2 PUSH32 0x18B8C45E12FF31E9BE3BD15FB0F0C293C632E978E181920A25CBC7D639E479EC SWAP2 ADD PUSH1 0x40 MLOAD DUP1 SWAP2 SUB SWAP1 LOG2 POP PUSH2 0x1C38 PUSH1 0x1 DUP1 SSTORE JUMP JUMPDEST PUSH1 0xB DUP2 DUP2 SLOAD DUP2 LT PUSH2 0x1FE1 JUMPI PUSH0 DUP1 REVERT JUMPDEST PUSH0 SWAP2 DUP3 MSTORE PUSH1 0x20 SWAP1 SWAP2 KECCAK256 ADD SLOAD PUSH1 0x1 PUSH1 0x1 PUSH1 0xA0 SHL SUB AND SWAP1 POP DUP2 JUMP JUMPDEST PUSH0 DUP1 MLOAD PUSH1 0x20 PUSH2 0x3061 DUP4 CODECOPY DUP2 MLOAD SWAP2 MSTORE PUSH2 0x2011 DUP2 PUSH2 0x2784 JUMP JUMPDEST PUSH1 0x1 PUSH1 0x1 PUSH1 0xA0 SHL SUB DUP4 AND PUSH2 0x2038 JUMPI PUSH1 0x40 MLOAD PUSH4 0xD92E233D PUSH1 0xE0 SHL DUP2 MSTORE PUSH1 0x4 ADD PUSH1 0x40 MLOAD DUP1 SWAP2 SUB SWAP1 REVERT JUMPDEST PUSH1 0x40 MLOAD PUSH4 0xA9059CBB PUSH1 0xE0 SHL DUP2 MSTORE PUSH1 0x1 PUSH1 0x1 PUSH1 0xA0 SHL SUB DUP5 DUP2 AND PUSH1 0x4 DUP4 ADD MSTORE PUSH1 0x24 DUP3 ADD DUP5 SWAP1 MSTORE DUP6 AND SWAP1 PUSH4 0xA9059CBB SWAP1 PUSH1 0x44 ADD PUSH1 0x20 PUSH1 0x40 MLOAD DUP1 DUP4 SUB DUP2 PUSH0 DUP8 GAS CALL ISZERO DUP1 ISZERO PUSH2 0x2084 JUMPI RETURNDATASIZE PUSH0 DUP1 RETURNDATACOPY RETURNDATASIZE PUSH0 REVERT JUMPDEST POP POP POP POP PUSH1 0x40 MLOAD RETURNDATASIZE PUSH1 0x1F NOT PUSH1 0x1F DUP3 ADD AND DUP3 ADD DUP1 PUSH1 0x40 MSTORE POP DUP2 ADD SWAP1 PUSH2 0x20A8 SWAP2 SWAP1 PUSH2 0x2FE9 JUMP JUMPDEST POP DUP3 PUSH1 0x1 PUSH1 0x1 PUSH1 0xA0 SHL SUB AND DUP5 PUSH1 0x1 PUSH1 0x1 PUSH1 0xA0 SHL SUB AND PUSH32 0x8BBFBB5D7FCACF6FC74005CDEDE0635561638507F576C95F7F294C22141BE2E5 DUP5 PUSH1 0x40 MLOAD PUSH2 0x20EE SWAP2 DUP2 MSTORE PUSH1 0x20 ADD SWAP1 JUMP JUMPDEST PUSH1 0x40 MLOAD DUP1 SWAP2 SUB SWAP1 LOG3 POP POP POP POP JUMP JUMPDEST PUSH0 DUP1 MLOAD PUSH1 0x20 PUSH2 0x3061 DUP4 CODECOPY DUP2 MLOAD SWAP2 MSTORE PUSH2 0x2113 DUP2 PUSH2 0x2784 JUMP JUMPDEST DUP4 DUP3 EQ PUSH2 0x2133 JUMPI PUSH1 0x40 MLOAD PUSH4 0x512509D3 PUSH1 0xE1 SHL DUP2 MSTORE PUSH1 0x4 ADD PUSH1 0x40 MLOAD DUP1 SWAP2 SUB SWAP1 REVERT JUMPDEST PUSH0 DUP1 JUMPDEST DUP6 DUP2 LT ISZERO PUSH2 0x21ED JUMPI PUSH0 DUP6 DUP6 DUP4 DUP2 DUP2 LT PUSH2 0x2151 JUMPI PUSH2 0x2151 PUSH2 0x2F41 JUMP JUMPDEST SWAP1 POP PUSH1 0x20 MUL ADD CALLDATALOAD SWAP1 POP DUP1 PUSH0 SUB PUSH2 0x217A JUMPI PUSH1 0x40 MLOAD PUSH4 0x162908E3 PUSH1 0xE1 SHL DUP2 MSTORE PUSH1 0x4 ADD PUSH1 0x40 MLOAD DUP1 SWAP2 SUB SWAP1 REVERT JUMPDEST DUP1 PUSH1 0x8 PUSH0 DUP11 DUP11 DUP7 DUP2 DUP2 LT PUSH2 0x2190 JUMPI PUSH2 0x2190 PUSH2 0x2F41 JUMP JUMPDEST SWAP1 POP PUSH1 0x20 MUL ADD PUSH1 0x20 DUP2 ADD SWAP1 PUSH2 0x21A5 SWAP2 SWAP1 PUSH2 0x2C3F JUMP JUMPDEST PUSH1 0x1 PUSH1 0x1 PUSH1 0xA0 SHL SUB AND PUSH1 0x1 PUSH1 0x1 PUSH1 0xA0 SHL SUB AND DUP2 MSTORE PUSH1 0x20 ADD SWAP1 DUP2 MSTORE PUSH1 0x20 ADD PUSH0 KECCAK256 PUSH0 DUP3 DUP3 SLOAD PUSH2 0x21D2 SWAP2 SWAP1 PUSH2 0x2F2E JUMP JUMPDEST SWAP1 SWAP2 SSTORE POP PUSH2 0x21E2 SWAP1 POP DUP2 DUP5 PUSH2 0x2F2E JUMP JUMPDEST SWAP3 POP POP PUSH1 0x1 ADD PUSH2 0x2136 JUMP JUMPDEST POP PUSH1 0xE SLOAD DUP2 GT ISZERO PUSH2 0x2211 JUMPI PUSH1 0x40 MLOAD PUSH4 0x2F37549D PUSH1 0xE0 SHL DUP2 MSTORE PUSH1 0x4 ADD PUSH1 0x40 MLOAD DUP1 SWAP2 SUB SWAP1 REVERT JUMPDEST DUP1 PUSH1 0xE PUSH0 DUP3 DUP3 SLOAD PUSH2 0x2222 SWAP2 SWAP1 PUSH2 0x2F1B JUMP JUMPDEST SWAP1 SWAP2 SSTORE POP POP POP POP POP POP POP POP JUMP JUMPDEST PUSH32 0x241ECF16D79D0F8DBFB92CBC07FE17840425976CF0667F022FE9877CAA831B08 PUSH2 0x2259 DUP2 PUSH2 0x2784 JUMP JUMPDEST PUSH2 0x2261 PUSH2 0x2795 JUMP JUMPDEST PUSH1 0x1 PUSH1 0x1 PUSH1 0xA0 SHL SUB DUP4 AND PUSH2 0x2288 JUMPI PUSH1 0x40 MLOAD PUSH4 0xD92E233D PUSH1 0xE0 SHL DUP2 MSTORE PUSH1 0x4 ADD PUSH1 0x40 MLOAD DUP1 SWAP2 SUB SWAP1 REVERT JUMPDEST SELFBALANCE DUP3 GT ISZERO PUSH2 0x22A9 JUMPI PUSH1 0x40 MLOAD PUSH4 0x1E9ACF17 PUSH1 0xE3 SHL DUP2 MSTORE PUSH1 0x4 ADD PUSH1 0x40 MLOAD DUP1 SWAP2 SUB SWAP1 REVERT JUMPDEST DUP2 PUSH1 0x10 PUSH0 DUP3 DUP3 SLOAD PUSH2 0x22BA SWAP2 SWAP1 PUSH2 0x2F2E JUMP JUMPDEST SWAP1 SWAP2 SSTORE POP POP PUSH1 0x40 MLOAD PUSH0 SWAP1 PUSH1 0x1 PUSH1 0x1 PUSH1 0xA0 SHL SUB DUP6 AND SWAP1 DUP5 SWAP1 DUP4 DUP2 DUP2 DUP2 DUP6 DUP8 GAS CALL SWAP3 POP POP POP RETURNDATASIZE DUP1 PUSH0 DUP2 EQ PUSH2 0x2307 JUMPI PUSH1 0x40 MLOAD SWAP2 POP PUSH1 0x1F NOT PUSH1 0x3F RETURNDATASIZE ADD AND DUP3 ADD PUSH1 0x40 MSTORE RETURNDATASIZE DUP3 MSTORE RETURNDATASIZE PUSH0 PUSH1 0x20 DUP5 ADD RETURNDATACOPY PUSH2 0x230C JUMP JUMPDEST PUSH1 0x60 SWAP2 POP JUMPDEST POP POP SWAP1 POP DUP1 PUSH2 0x232E JUMPI PUSH1 0x40 MLOAD PUSH4 0x12171D83 PUSH1 0xE3 SHL DUP2 MSTORE PUSH1 0x4 ADD PUSH1 0x40 MLOAD DUP1 SWAP2 SUB SWAP1 REVERT JUMPDEST DUP4 PUSH1 0x1 PUSH1 0x1 PUSH1 0xA0 SHL SUB AND PUSH2 0x2340 PUSH2 0x27BF JUMP JUMPDEST PUSH1 0x1 PUSH1 0x1 PUSH1 0xA0 SHL SUB AND PUSH32 0x2D0981B01E87D345BD4DCDFFF34B16820FD446EBB56BD591255F8A115A0B2CA DUP6 TIMESTAMP PUSH1 0x40 MLOAD PUSH2 0x2383 SWAP3 SWAP2 SWAP1 SWAP2 DUP3 MSTORE PUSH1 0x20 DUP3 ADD MSTORE PUSH1 0x40 ADD SWAP1 JUMP JUMPDEST PUSH1 0x40 MLOAD DUP1 SWAP2 SUB SWAP1 LOG3 POP PUSH2 0x1389 PUSH1 0x1 DUP1 SSTORE JUMP JUMPDEST PUSH0 DUP1 MLOAD PUSH1 0x20 PUSH2 0x3061 DUP4 CODECOPY DUP2 MLOAD SWAP2 MSTORE PUSH2 0x23AC DUP2 PUSH2 0x2784 JUMP JUMPDEST PUSH1 0x2 DUP3 SWAP1 SSTORE PUSH1 0x40 MLOAD DUP3 DUP2 MSTORE PUSH32 0xC5E00A325524BC148DDC05BB642B804E9AE1DFC670C217ED3C4C6595F7427EF4 SWAP1 PUSH1 0x20 ADD PUSH2 0x1C84 JUMP JUMPDEST PUSH0 DUP3 DUP2 MSTORE PUSH1 0x20 DUP2 SWAP1 MSTORE PUSH1 0x40 SWAP1 KECCAK256 PUSH1 0x1 ADD SLOAD PUSH2 0x23FB DUP2 PUSH2 0x2784 JUMP JUMPDEST PUSH2 0x1340 DUP4 DUP4 PUSH2 0x2A30 JUMP JUMPDEST PUSH0 DUP1 MLOAD PUSH1 0x20 PUSH2 0x3061 DUP4 CODECOPY DUP2 MLOAD SWAP2 MSTORE PUSH2 0x241C DUP2 PUSH2 0x2784 JUMP JUMPDEST PUSH1 0x4 SLOAD PUSH4 0x1000000 SWAP1 DIV PUSH1 0xFF AND ISZERO PUSH2 0x2447 JUMPI PUSH1 0x40 MLOAD PUSH4 0xAE7FE589 PUSH1 0xE0 SHL DUP2 MSTORE PUSH1 0x4 ADD PUSH1 0x40 MLOAD DUP1 SWAP2 SUB SWAP1 REVERT JUMPDEST PUSH1 0x4 DUP1 SLOAD PUSH6 0xFFFFFFFFFFFF TIMESTAMP SWAP1 DUP2 AND PUSH5 0x100000000 MUL PUSH10 0xFFFFFFFFFFFFFF000000 NOT SWAP1 SWAP3 AND SWAP2 SWAP1 SWAP2 OR PUSH4 0x1000000 OR SWAP1 SWAP2 SSTORE PUSH1 0x40 MLOAD PUSH32 0x2388CEAED48D21BD0802856DF41A22705F9046A67A817A047352AA3BBFE5C5D1 SWAP2 PUSH2 0x24AB SWAP2 SWAP1 DUP2 MSTORE PUSH1 0x20 ADD SWAP1 JUMP JUMPDEST PUSH1 0x40 MLOAD DUP1 SWAP2 SUB SWAP1 LOG1 POP JUMP JUMPDEST PUSH2 0x24BE PUSH2 0x2795 JUMP JUMPDEST PUSH0 PUSH2 0x24C7 PUSH2 0x27BF JUMP JUMPDEST PUSH1 0x1 PUSH1 0x1 PUSH1 0xA0 SHL SUB DUP2 AND PUSH0 SWAP1 DUP2 MSTORE PUSH1 0x8 PUSH1 0x20 MSTORE PUSH1 0x40 DUP2 KECCAK256 SLOAD SWAP2 SWAP3 POP DUP2 SWAP1 SUB PUSH2 0x2502 JUMPI PUSH1 0x40 MLOAD PUSH4 0x3BD65A7B PUSH1 0xE2 SHL DUP2 MSTORE PUSH1 0x4 ADD PUSH1 0x40 MLOAD DUP1 SWAP2 SUB SWAP1 REVERT JUMPDEST PUSH1 0x1 PUSH1 0x1 PUSH1 0xA0 SHL SUB DUP3 AND PUSH0 DUP2 DUP2 MSTORE PUSH1 0x8 PUSH1 0x20 MSTORE PUSH1 0x40 DUP1 DUP3 KECCAK256 DUP3 SWAP1 SSTORE MLOAD SWAP1 SWAP2 SWAP1 DUP4 SWAP1 DUP4 DUP2 DUP2 DUP2 DUP6 DUP8 GAS CALL SWAP3 POP POP POP RETURNDATASIZE DUP1 PUSH0 DUP2 EQ PUSH2 0x2559 JUMPI PUSH1 0x40 MLOAD SWAP2 POP PUSH1 0x1F NOT PUSH1 0x3F RETURNDATASIZE ADD AND DUP3 ADD PUSH1 0x40 MSTORE RETURNDATASIZE DUP3 MSTORE RETURNDATASIZE PUSH0 PUSH1 0x20 DUP5 ADD RETURNDATACOPY PUSH2 0x255E JUMP JUMPDEST PUSH1 0x60 SWAP2 POP JUMPDEST POP POP SWAP1 POP DUP1 PUSH2 0x2580 JUMPI PUSH1 0x40 MLOAD PUSH4 0x12171D83 PUSH1 0xE3 SHL DUP2 MSTORE PUSH1 0x4 ADD PUSH1 0x40 MLOAD DUP1 SWAP2 SUB SWAP1 REVERT JUMPDEST PUSH1 0x40 DUP1 MLOAD DUP4 DUP2 MSTORE TIMESTAMP PUSH1 0x20 DUP3 ADD MSTORE PUSH1 0x1 PUSH1 0x1 PUSH1 0xA0 SHL SUB DUP6 AND SWAP2 PUSH32 0x11334D8F338BC4B6E8BD6A91F0582C803E7FDF7F983DFF6F56D5C85C2A8C2051 SWAP2 ADD PUSH1 0x40 MLOAD DUP1 SWAP2 SUB SWAP1 LOG2 POP POP POP PUSH2 0xF5D PUSH1 0x1 DUP1 SSTORE JUMP JUMPDEST PUSH0 DUP1 MLOAD PUSH1 0x20 PUSH2 0x3061 DUP4 CODECOPY DUP2 MLOAD SWAP2 MSTORE PUSH2 0x25E6 DUP2 PUSH2 0x2784 JUMP JUMPDEST PUSH0 JUMPDEST DUP3 DUP2 LT ISZERO PUSH2 0x2676 JUMPI PUSH1 0x1 PUSH1 0x1 PUSH1 0xA0 SHL SUB DUP6 AND PUSH0 SWAP1 DUP2 MSTORE PUSH1 0x5 PUSH1 0x20 MSTORE PUSH1 0x40 SWAP1 KECCAK256 PUSH1 0x4 SWAP1 DUP6 DUP6 DUP5 DUP2 DUP2 LT PUSH2 0x261C JUMPI PUSH2 0x261C PUSH2 0x2F41 JUMP JUMPDEST SWAP1 POP PUSH1 0x20 MUL ADD CALLDATALOAD DUP2 SLOAD DUP2 LT PUSH2 0x2633 JUMPI PUSH2 0x2633 PUSH2 0x2F41 JUMP JUMPDEST PUSH0 SWAP2 DUP3 MSTORE PUSH1 0x20 SWAP1 SWAP2 KECCAK256 PUSH1 0x1 PUSH1 0x2 SWAP1 SWAP3 MUL ADD DUP2 ADD DUP1 SLOAD PUSH1 0xFF SWAP4 DUP5 AND PUSH1 0x1 PUSH1 0x30 SHL DUP1 DUP4 DIV SWAP6 SWAP1 SWAP6 AND OR SWAP1 SWAP4 MUL PUSH7 0xFF000000000000 NOT SWAP1 SWAP4 AND SWAP3 SWAP1 SWAP3 OR SWAP1 SWAP2 SSTORE ADD PUSH2 0x25E8 JUMP JUMPDEST POP POP POP POP POP JUMP JUMPDEST PUSH2 0x2685 PUSH2 0x2795 JUMP JUMPDEST PUSH1 0x4 SLOAD PUSH1 0xFF AND ISZERO PUSH2 0x26A9 JUMPI PUSH1 0x40 MLOAD PUSH4 0xDEEB6943 PUSH1 0xE0 SHL DUP2 MSTORE PUSH1 0x4 ADD PUSH1 0x40 MLOAD DUP1 SWAP2 SUB SWAP1 REVERT JUMPDEST CALLVALUE PUSH0 DUP2 SWAP1 SUB PUSH2 0x26CB JUMPI PUSH1 0x40 MLOAD PUSH4 0x162908E3 PUSH1 0xE1 SHL DUP2 MSTORE PUSH1 0x4 ADD PUSH1 0x40 MLOAD DUP1 SWAP2 SUB SWAP1 REVERT JUMPDEST PUSH1 0x3 SLOAD DUP2 PUSH1 0xC SLOAD PUSH2 0x26DC SWAP2 SWAP1 PUSH2 0x2F2E JUMP JUMPDEST GT ISZERO PUSH2 0x26FB JUMPI PUSH1 0x40 MLOAD PUSH4 0x6BF4C8E9 PUSH1 0xE1 SHL DUP2 MSTORE PUSH1 0x4 ADD PUSH1 0x40 MLOAD DUP1 SWAP2 SUB SWAP1 REVERT JUMPDEST PUSH1 0x4 SLOAD PUSH3 0x10000 SWAP1 DIV PUSH1 0xFF AND DUP1 ISZERO PUSH2 0x2737 JUMPI POP PUSH1 0x6 PUSH0 PUSH2 0x2719 PUSH2 0x27BF JUMP JUMPDEST PUSH1 0x1 PUSH1 0x1 PUSH1 0xA0 SHL SUB AND DUP2 MSTORE PUSH1 0x20 DUP2 ADD SWAP2 SWAP1 SWAP2 MSTORE PUSH1 0x40 ADD PUSH0 KECCAK256 SLOAD PUSH1 0xFF AND ISZERO JUMPDEST ISZERO PUSH2 0x2755 JUMPI PUSH1 0x40 MLOAD PUSH4 0xB094F27 PUSH1 0xE3 SHL DUP2 MSTORE PUSH1 0x4 ADD PUSH1 0x40 MLOAD DUP1 SWAP2 SUB SWAP1 REVERT JUMPDEST PUSH2 0x2767 PUSH2 0x2760 PUSH2 0x27BF JUMP JUMPDEST DUP3 PUSH0 PUSH2 0x27CD JUMP JUMPDEST DUP1 PUSH1 0xC PUSH0 DUP3 DUP3 SLOAD PUSH2 0x2778 SWAP2 SWAP1 PUSH2 0x2F2E JUMP JUMPDEST SWAP1 SWAP2 SSTORE POP POP PUSH1 0x1 DUP1 SSTORE POP JUMP JUMPDEST PUSH2 0xE5A DUP2 PUSH2 0x2790 PUSH2 0x27BF JUMP JUMPDEST PUSH2 0x2ACF JUMP JUMPDEST PUSH1 0x2 PUSH1 0x1 SLOAD SUB PUSH2 0x27B8 JUMPI PUSH1 0x40 MLOAD PUSH4 0x3EE5AEB5 PUSH1 0xE0 SHL DUP2 MSTORE PUSH1 0x4 ADD PUSH1 0x40 MLOAD DUP1 SWAP2 SUB SWAP1 REVERT JUMPDEST PUSH1 0x2 PUSH1 0x1 SSTORE JUMP JUMPDEST PUSH0 PUSH2 0x27C8 PUSH2 0x2B25 JUMP JUMPDEST SWAP1 POP SWAP1 JUMP JUMPDEST PUSH0 DUP2 ISZERO PUSH2 0x27D8 JUMPI PUSH1 0x8 OR JUMPDEST PUSH1 0x1 PUSH1 0x1 PUSH1 0xA0 SHL SUB DUP5 AND PUSH0 DUP2 DUP2 MSTORE PUSH1 0x5 PUSH1 0x20 SWAP1 DUP2 MSTORE PUSH1 0x40 DUP1 DUP4 KECCAK256 DUP2 MLOAD PUSH1 0xA0 DUP2 ADD DUP4 MSTORE PUSH1 0x1 PUSH1 0x1 PUSH1 0x60 SHL SUB DUP1 DUP11 AND DUP3 MSTORE DUP2 DUP6 ADD DUP7 DUP2 MSTORE PUSH6 0xFFFFFFFFFFFF TIMESTAMP DUP2 AND DUP5 DUP8 ADD SWAP1 DUP2 MSTORE PUSH1 0x60 DUP6 ADD DUP10 DUP2 MSTORE PUSH1 0xFF DUP1 DUP14 AND PUSH1 0x80 DUP9 ADD SWAP1 DUP2 MSTORE DUP9 SLOAD PUSH1 0x1 DUP2 DUP2 ADD DUP12 SSTORE SWAP10 DUP14 MSTORE DUP12 DUP14 KECCAK256 SWAP9 MLOAD PUSH1 0x2 SWAP1 SWAP2 MUL SWAP1 SWAP9 ADD DUP1 SLOAD SWAP7 MLOAD SWAP5 MLOAD DUP7 AND PUSH1 0x1 PUSH1 0xC0 SHL MUL PUSH32 0xFFFF000000000000FFFFFFFFFFFFFFFFFFFFFFFFFFFFFFFFFFFFFFFFFFFFFFFF SWAP6 DUP10 AND PUSH1 0x1 PUSH1 0x60 SHL MUL PUSH32 0xFFFFFFFFFFFFFFFF000000000000000000000000000000000000000000000000 SWAP1 SWAP9 AND SWAP10 SWAP1 SWAP9 AND SWAP9 SWAP1 SWAP9 OR SWAP6 SWAP1 SWAP6 OR SWAP3 SWAP1 SWAP3 AND SWAP5 SWAP1 SWAP5 OR DUP6 SSTORE SWAP3 MLOAD SWAP4 SWAP1 SWAP5 ADD DUP1 SLOAD SWAP2 MLOAD DUP4 AND PUSH1 0x1 PUSH1 0x30 SHL MUL PUSH7 0xFFFFFFFFFFFFFF NOT SWAP1 SWAP3 AND SWAP4 SWAP1 SWAP5 AND SWAP3 SWAP1 SWAP3 OR SWAP2 SWAP1 SWAP2 OR SWAP1 SWAP2 SSTORE SWAP4 DUP4 MSTORE PUSH1 0xA SWAP1 SWAP2 MSTORE SWAP1 KECCAK256 SLOAD AND PUSH2 0x291B JUMPI PUSH1 0x1 PUSH1 0x1 PUSH1 0xA0 SHL SUB DUP5 AND PUSH0 SWAP1 DUP2 MSTORE PUSH1 0xA PUSH1 0x20 MSTORE PUSH1 0x40 SWAP1 KECCAK256 DUP1 SLOAD PUSH1 0xFF NOT AND PUSH1 0x1 OR SWAP1 SSTORE JUMPDEST PUSH1 0x1 PUSH1 0x1 PUSH1 0xA0 SHL SUB DUP5 AND PUSH0 DUP2 DUP2 MSTORE PUSH1 0x5 PUSH1 0x20 MSTORE PUSH1 0x40 SWAP1 KECCAK256 SLOAD PUSH32 0xB270BE37BC8056EFCFBD6E72DF3ADE4284F22C6A0C84CB85759CFFF07234DD92 SWAP1 DUP6 SWAP1 TIMESTAMP SWAP1 PUSH2 0x2965 SWAP1 PUSH1 0x1 SWAP1 PUSH2 0x2F1B JUMP JUMPDEST PUSH1 0x40 DUP1 MLOAD SWAP4 DUP5 MSTORE PUSH1 0x20 DUP5 ADD SWAP3 SWAP1 SWAP3 MSTORE SWAP1 DUP3 ADD MSTORE DUP5 ISZERO ISZERO PUSH1 0x60 DUP3 ADD MSTORE PUSH1 0x80 ADD PUSH2 0x1DC5 JUMP JUMPDEST PUSH0 DUP3 DUP2 MSTORE PUSH1 0x20 DUP2 DUP2 MSTORE PUSH1 0x40 DUP1 DUP4 KECCAK256 PUSH1 0x1 PUSH1 0x1 PUSH1 0xA0 SHL SUB DUP6 AND DUP5 MSTORE SWAP1 SWAP2 MSTORE DUP2 KECCAK256 SLOAD PUSH1 0xFF AND PUSH2 0x2A29 JUMPI PUSH0 DUP4 DUP2 MSTORE PUSH1 0x20 DUP2 DUP2 MSTORE PUSH1 0x40 DUP1 DUP4 KECCAK256 PUSH1 0x1 PUSH1 0x1 PUSH1 0xA0 SHL SUB DUP7 AND DUP5 MSTORE SWAP1 SWAP2 MSTORE SWAP1 KECCAK256 DUP1 SLOAD PUSH1 0xFF NOT AND PUSH1 0x1 OR SWAP1 SSTORE PUSH2 0x29E1 PUSH2 0x27BF JUMP JUMPDEST PUSH1 0x1 PUSH1 0x1 PUSH1 0xA0 SHL SUB AND DUP3 PUSH1 0x1 PUSH1 0x1 PUSH1 0xA0 SHL SUB AND DUP5 PUSH32 0x2F8788117E7EFF1D82E926EC794901D17C78024A50270940304540A733656F0D PUSH1 0x40 MLOAD PUSH1 0x40 MLOAD DUP1 SWAP2 SUB SWAP1 LOG4 POP PUSH1 0x1 PUSH2 0xCCE JUMP JUMPDEST POP PUSH0 PUSH2 0xCCE JUMP JUMPDEST PUSH0 DUP3 DUP2 MSTORE PUSH1 0x20 DUP2 DUP2 MSTORE PUSH1 0x40 DUP1 DUP4 KECCAK256 PUSH1 0x1 PUSH1 0x1 PUSH1 0xA0 SHL SUB DUP6 AND DUP5 MSTORE SWAP1 SWAP2 MSTORE DUP2 KECCAK256 SLOAD PUSH1 0xFF AND ISZERO PUSH2 0x2A29 JUMPI PUSH0 DUP4 DUP2 MSTORE PUSH1 0x20 DUP2 DUP2 MSTORE PUSH1 0x40 DUP1 DUP4 KECCAK256 PUSH1 0x1 PUSH1 0x1 PUSH1 0xA0 SHL SUB DUP7 AND DUP5 MSTORE SWAP1 SWAP2 MSTORE SWAP1 KECCAK256 DUP1 SLOAD PUSH1 0xFF NOT AND SWAP1 SSTORE PUSH2 0x2A87 PUSH2 0x27BF JUMP JUMPDEST PUSH1 0x1 PUSH1 0x1 PUSH1 0xA0 SHL SUB AND DUP3 PUSH1 0x1 PUSH1 0x1 PUSH1 0xA0 SHL SUB AND DUP5 PUSH32 0xF6391F5C32D9C69D2A47EA670B442974B53935D1EDC7FD64EB21E047A839171B PUSH1 0x40 MLOAD PUSH1 0x40 MLOAD DUP1 SWAP2 SUB SWAP1 LOG4 POP PUSH1 0x1 PUSH2 0xCCE JUMP JUMPDEST PUSH0 DUP3 DUP2 MSTORE PUSH1 0x20 DUP2 DUP2 MSTORE PUSH1 0x40 DUP1 DUP4 KECCAK256 PUSH1 0x1 PUSH1 0x1 PUSH1 0xA0 SHL SUB DUP6 AND DUP5 MSTORE SWAP1 SWAP2 MSTORE SWAP1 KECCAK256 SLOAD PUSH1 0xFF AND PUSH2 0x1C38 JUMPI PUSH1 0x40 MLOAD PUSH4 0xE2517D3F PUSH1 0xE0 SHL DUP2 MSTORE PUSH1 0x1 PUSH1 0x1 PUSH1 0xA0 SHL SUB DUP3 AND PUSH1 0x4 DUP3 ADD MSTORE PUSH1 0x24 DUP2 ADD DUP4 SWAP1 MSTORE PUSH1 0x44 ADD PUSH1 0x40 MLOAD DUP1 SWAP2 SUB SWAP1 REVERT JUMPDEST PUSH0 CALLDATASIZE PUSH1 0x14 DUP1 DUP3 LT DUP1 ISZERO SWAP1 PUSH2 0x2B61 JUMPI POP PUSH32 0x0 PUSH1 0x1 PUSH1 0x1 PUSH1 0xA0 SHL SUB AND CALLER EQ JUMPDEST ISZERO PUSH2 0x2B87 JUMPI PUSH2 0x2B74 CALLDATASIZE DUP3 DUP5 SUB DUP2 PUSH0 PUSH2 0x3004 JUMP JUMPDEST PUSH2 0x2B7D SWAP2 PUSH2 0x302B JUMP JUMPDEST PUSH1 0x60 SHR SWAP3 POP POP POP SWAP1 JUMP JUMPDEST CALLER SWAP3 POP POP POP SWAP1 JUMP JUMPDEST PUSH0 PUSH1 0x20 DUP3 DUP5 SUB SLT ISZERO PUSH2 0x2B9F JUMPI PUSH0 DUP1 REVERT JUMPDEST DUP2 CALLDATALOAD PUSH1 0x1 PUSH1 0x1 PUSH1 0xE0 SHL SUB NOT DUP2 AND DUP2 EQ PUSH2 0x2BB6 JUMPI PUSH0 DUP1 REVERT JUMPDEST SWAP4 SWAP3 POP POP POP JUMP JUMPDEST DUP1 ISZERO ISZERO DUP2 EQ PUSH2 0xE5A JUMPI PUSH0 DUP1 REVERT JUMPDEST PUSH0 PUSH1 0x20 DUP3 DUP5 SUB SLT ISZERO PUSH2 0x2BDA JUMPI PUSH0 DUP1 REVERT JUMPDEST DUP2 CALLDATALOAD PUSH2 0x2BB6 DUP2 PUSH2 0x2BBD JUMP JUMPDEST DUP1 CALLDATALOAD PUSH1 0x1 PUSH1 0x1 PUSH1 0xA0 SHL SUB DUP2 AND DUP2 EQ PUSH2 0x2BFB JUMPI PUSH0 DUP1 REVERT JUMPDEST SWAP2 SWAP1 POP JUMP JUMPDEST PUSH0 DUP1 PUSH1 0x40 DUP4 DUP6 SUB SLT ISZERO PUSH2 0x2C11 JUMPI PUSH0 DUP1 REVERT JUMPDEST PUSH2 0x2C1A DUP4 PUSH2 0x2BE5 JUMP JUMPDEST SWAP5 PUSH1 0x20 SWAP4 SWAP1 SWAP4 ADD CALLDATALOAD SWAP4 POP POP POP JUMP JUMPDEST PUSH0 PUSH1 0x20 DUP3 DUP5 SUB SLT ISZERO PUSH2 0x2C38 JUMPI PUSH0 DUP1 REVERT JUMPDEST POP CALLDATALOAD SWAP2 SWAP1 POP JUMP JUMPDEST PUSH0 PUSH1 0x20 DUP3 DUP5 SUB SLT ISZERO PUSH2 0x2C4F JUMPI PUSH0 DUP1 REVERT JUMPDEST PUSH2 0x2BB6 DUP3 PUSH2 0x2BE5 JUMP JUMPDEST PUSH1 0x20 DUP1 DUP3 MSTORE DUP3 MLOAD DUP3 DUP3 ADD DUP2 SWAP1 MSTORE PUSH0 SWAP2 SWAP1 PUSH1 0x40 SWAP1 DUP2 DUP6 ADD SWAP1 DUP7 DUP5 ADD DUP6 JUMPDEST DUP3 DUP2 LT ISZERO PUSH2 0x2CD4 JUMPI DUP2 MLOAD DUP1 MLOAD PUSH1 0x1 PUSH1 0x1 PUSH1 0x60 SHL SUB SWAP1 DUP2 AND DUP7 MSTORE DUP8 DUP3 ADD MLOAD AND DUP8 DUP7 ADD MSTORE DUP6 DUP2 ADD MLOAD PUSH6 0xFFFFFFFFFFFF SWAP1 DUP2 AND DUP8 DUP8 ADD MSTORE PUSH1 0x60 DUP1 DUP4 ADD MLOAD SWAP1 SWAP2 AND SWAP1 DUP7 ADD MSTORE PUSH1 0x80 SWAP1 DUP2 ADD MLOAD PUSH1 0xFF AND SWAP1 DUP6 ADD MSTORE PUSH1 0xA0 SWAP1 SWAP4 ADD SWAP3 SWAP1 DUP6 ADD SWAP1 PUSH1 0x1 ADD PUSH2 0x2C74 JUMP JUMPDEST POP SWAP2 SWAP8 SWAP7 POP POP POP POP POP POP POP JUMP JUMPDEST PUSH0 DUP1 PUSH1 0x40 DUP4 DUP6 SUB SLT ISZERO PUSH2 0x2CF2 JUMPI PUSH0 DUP1 REVERT JUMPDEST DUP3 CALLDATALOAD SWAP2 POP PUSH2 0x2D02 PUSH1 0x20 DUP5 ADD PUSH2 0x2BE5 JUMP JUMPDEST SWAP1 POP SWAP3 POP SWAP3 SWAP1 POP JUMP JUMPDEST PUSH0 DUP1 DUP4 PUSH1 0x1F DUP5 ADD SLT PUSH2 0x2D1B JUMPI PUSH0 DUP1 REVERT JUMPDEST POP DUP2 CALLDATALOAD PUSH8 0xFFFFFFFFFFFFFFFF DUP2 GT ISZERO PUSH2 0x2D32 JUMPI PUSH0 DUP1 REVERT JUMPDEST PUSH1 0x20 DUP4 ADD SWAP2 POP DUP4 PUSH1 0x20 DUP3 PUSH1 0x5 SHL DUP6 ADD ADD GT ISZERO PUSH2 0x2D4C JUMPI PUSH0 DUP1 REVERT JUMPDEST SWAP3 POP SWAP3 SWAP1 POP JUMP JUMPDEST PUSH0 DUP1 PUSH0 DUP1 PUSH1 0x40 DUP6 DUP8 SUB SLT ISZERO PUSH2 0x2D66 JUMPI PUSH0 DUP1 REVERT JUMPDEST DUP5 CALLDATALOAD PUSH8 0xFFFFFFFFFFFFFFFF DUP1 DUP3 GT ISZERO PUSH2 0x2D7D JUMPI PUSH0 DUP1 REVERT JUMPDEST PUSH2 0x2D89 DUP9 DUP4 DUP10 ADD PUSH2 0x2D0B JUMP JUMPDEST SWAP1 SWAP7 POP SWAP5 POP PUSH1 0x20 DUP8 ADD CALLDATALOAD SWAP2 POP DUP1 DUP3 GT ISZERO PUSH2 0x2DA1 JUMPI PUSH0 DUP1 REVERT JUMPDEST POP PUSH2 0x2DAE DUP8 DUP3 DUP9 ADD PUSH2 0x2D0B JUMP JUMPDEST SWAP6 SWAP9 SWAP5 SWAP8 POP SWAP6 POP POP POP POP JUMP JUMPDEST PUSH0 DUP1 PUSH1 0x40 DUP4 DUP6 SUB SLT ISZERO PUSH2 0x2DCB JUMPI PUSH0 DUP1 REVERT JUMPDEST PUSH2 0x2DD4 DUP4 PUSH2 0x2BE5 JUMP JUMPDEST SWAP2 POP PUSH1 0x20 DUP4 ADD CALLDATALOAD PUSH2 0x2DE4 DUP2 PUSH2 0x2BBD JUMP JUMPDEST DUP1 SWAP2 POP POP SWAP3 POP SWAP3 SWAP1 POP JUMP JUMPDEST PUSH1 0x20 DUP2 MSTORE PUSH0 DUP3 MLOAD DUP1 PUSH1 0x20 DUP5 ADD MSTORE DUP1 PUSH1 0x20 DUP6 ADD PUSH1 0x40 DUP6 ADD MCOPY PUSH0 PUSH1 0x40 DUP3 DUP6 ADD ADD MSTORE PUSH1 0x40 PUSH1 0x1F NOT PUSH1 0x1F DUP4 ADD AND DUP5 ADD ADD SWAP2 POP POP SWAP3 SWAP2 POP POP JUMP JUMPDEST PUSH0 DUP1 PUSH1 0x40 DUP4 DUP6 SUB SLT ISZERO PUSH2 0x2E35 JUMPI PUSH0 DUP1 REVERT JUMPDEST DUP3 CALLDATALOAD PUSH2 0x2DD4 DUP2 PUSH2 0x2BBD JUMP JUMPDEST PUSH0 DUP1 PUSH1 0x20 DUP4 DUP6 SUB SLT ISZERO PUSH2 0x2E51 JUMPI PUSH0 DUP1 REVERT JUMPDEST DUP3 CALLDATALOAD PUSH8 0xFFFFFFFFFFFFFFFF DUP2 GT ISZERO PUSH2 0x2E67 JUMPI PUSH0 DUP1 REVERT JUMPDEST PUSH2 0x2E73 DUP6 DUP3 DUP7 ADD PUSH2 0x2D0B JUMP JUMPDEST SWAP1 SWAP7 SWAP1 SWAP6 POP SWAP4 POP POP POP POP JUMP JUMPDEST PUSH0 DUP1 PUSH0 PUSH1 0x40 DUP5 DUP7 SUB SLT ISZERO PUSH2 0x2E91 JUMPI PUSH0 DUP1 REVERT JUMPDEST PUSH2 0x2E9A DUP5 PUSH2 0x2BE5 JUMP JUMPDEST SWAP3 POP PUSH1 0x20 DUP5 ADD CALLDATALOAD PUSH8 0xFFFFFFFFFFFFFFFF DUP2 GT ISZERO PUSH2 0x2EB5 JUMPI PUSH0 DUP1 REVERT JUMPDEST PUSH2 0x2EC1 DUP7 DUP3 DUP8 ADD PUSH2 0x2D0B JUMP JUMPDEST SWAP5 SWAP8 SWAP1 SWAP7 POP SWAP4 SWAP5 POP POP POP POP JUMP JUMPDEST PUSH0 DUP1 PUSH0 PUSH1 0x60 DUP5 DUP7 SUB SLT ISZERO PUSH2 0x2EE0 JUMPI PUSH0 DUP1 REVERT JUMPDEST PUSH2 0x2EE9 DUP5 PUSH2 0x2BE5 JUMP JUMPDEST SWAP3 POP PUSH2 0x2EF7 PUSH1 0x20 DUP6 ADD PUSH2 0x2BE5 JUMP JUMPDEST SWAP2 POP PUSH1 0x40 DUP5 ADD CALLDATALOAD SWAP1 POP SWAP3 POP SWAP3 POP SWAP3 JUMP JUMPDEST PUSH4 0x4E487B71 PUSH1 0xE0 SHL PUSH0 MSTORE PUSH1 0x11 PUSH1 0x4 MSTORE PUSH1 0x24 PUSH0 REVERT JUMPDEST DUP2 DUP2 SUB DUP2 DUP2 GT ISZERO PUSH2 0xCCE JUMPI PUSH2 0xCCE PUSH2 0x2F07 JUMP JUMPDEST DUP1 DUP3 ADD DUP1 DUP3 GT ISZERO PUSH2 0xCCE JUMPI PUSH2 0xCCE PUSH2 0x2F07 JUMP JUMPDEST PUSH4 0x4E487B71 PUSH1 0xE0 SHL PUSH0 MSTORE PUSH1 0x32 PUSH1 0x4 MSTORE PUSH1 0x24 PUSH0 REVERT JUMPDEST DUP2 DUP4 MSTORE PUSH0 PUSH32 0x7FFFFFFFFFFFFFFFFFFFFFFFFFFFFFFFFFFFFFFFFFFFFFFFFFFFFFFFFFFFFFF DUP4 GT ISZERO PUSH2 0x2F85 JUMPI PUSH0 DUP1 REVERT JUMPDEST DUP3 PUSH1 0x5 SHL DUP1 DUP4 PUSH1 0x20 DUP8 ADD CALLDATACOPY SWAP4 SWAP1 SWAP4 ADD PUSH1 0x20 ADD SWAP4 SWAP3 POP POP POP JUMP JUMPDEST PUSH1 0x80 DUP2 MSTORE PUSH0 PUSH2 0x2FB1 PUSH1 0x80 DUP4 ADD DUP8 DUP10 PUSH2 0x2F55 JUMP JUMPDEST PUSH1 0x20 DUP4 ADD SWAP6 SWAP1 SWAP6 MSTORE POP PUSH1 0x40 DUP2 ADD SWAP3 SWAP1 SWAP3 MSTORE PUSH1 0x60 SWAP1 SWAP2 ADD MSTORE SWAP3 SWAP2 POP POP JUMP JUMPDEST PUSH1 0x20 DUP2 MSTORE PUSH0 PUSH2 0x2FE1 PUSH1 0x20 DUP4 ADD DUP5 DUP7 PUSH2 0x2F55 JUMP JUMPDEST SWAP5 SWAP4 POP POP POP POP JUMP JUMPDEST PUSH0 PUSH1 0x20 DUP3 DUP5 SUB SLT ISZERO PUSH2 0x2FF9 JUMPI PUSH0 DUP1 REVERT JUMPDEST DUP2 MLOAD PUSH2 0x2BB6 DUP2 PUSH2 0x2BBD JUMP JUMPDEST PUSH0 DUP1 DUP6 DUP6 GT ISZERO PUSH2 0x3012 JUMPI PUSH0 DUP1 REVERT JUMPDEST DUP4 DUP7 GT ISZERO PUSH2 0x301E JUMPI PUSH0 DUP1 REVERT JUMPDEST POP POP DUP3 ADD SWAP4 SWAP2 SWAP1 SWAP3 SUB SWAP2 POP JUMP JUMPDEST PUSH12 0xFFFFFFFFFFFFFFFFFFFFFFFF NOT DUP2 CALLDATALOAD DUP2 DUP2 AND SWAP2 PUSH1 0x14 DUP6 LT ISZERO PUSH2 0x3058 JUMPI DUP1 DUP2 DUP7 PUSH1 0x14 SUB PUSH1 0x3 SHL SHL DUP4 AND AND SWAP3 POP JUMPDEST POP POP SWAP3 SWAP2 POP POP JUMP INVALID LOG4 SWAP9 SMOD KECCAK256 TLOAD 0xE4 0xD3 SSTORE MULMOD 0x2E CREATE2 0xA8 LOG1 DUP16 JUMP 0xE8 SWAP2 EXTCODECOPY DELEGATECALL LOG2 ADD 0xFB 0xE2 DUP8 DUP3 JUMPDEST MULMOD JUMP SWAP4 0xC2 OR PUSH22 0xA2646970667358221220EA3678FBE02A349A2F32B8B8 CHAINID SWAP3 DUP12 EXTCODESIZE PUSH5 0xD0AC00C095 0xAC 0x29 PUSH3 0xD5C5C2 MULMOD 0xB8 DUP4 0xB4 PUSH5 0x736F6C6343 STOP ADDMOD NOT STOP CALLER "
    },
    "gasEstimates": {
      "creation": {
        "codeDepositCost": "2494000",
        "executionCost": "infinite",
        "totalCost": "infinite"
      },
      "external": {
        "ADMIN_ROLE()": "infinite",
        "DEFAULT_ADMIN_ROLE()": "282",
        "MANAGER_ROLE()": "305",
        "PAUSER_ROLE()": "283",
        "UNLOCKER_ROLE()": "327",
        "UTILITY_INJECTOR_ROLE()": "263",
        "UTILITY_WITHDRAWER_ROLE()": "307",
        "assignUtilityETH(address,uint256)": "infinite",
        "assignUtilityETHBatch(address[],uint256[])": "infinite",
        "batchWithdraw(uint256[])": "infinite",
        "claimUtilityETH()": "infinite",
        "depositETH()": "infinite",
        "enableGlobalLiquidation()": "infinite",
        "getRoleAdmin(bytes32)": "2579",
        "getUserDeposits(address)": "infinite",
        "getUserStats(address)": "infinite",
        "getVaultStats()": "13045",
        "globalLiquidationEnabled()": "2422",
        "globalLiquidationTimestamp()": "2435",
        "grantRole(bytes32,address)": "infinite",
        "hasRole(bytes32,address)": "2704",
        "hasWithdrawn(address)": "2651",
        "injectUtilityETH()": "infinite",
        "isKnownDepositor(address)": "2651",
        "isTrustedForwarder(address)": "infinite",
        "isWhitelisted(address)": "2629",
        "lockupPeriod()": "2427",
        "maxCapETH()": "2428",
        "pausedDeposits()": "2366",
        "pausedWithdrawals()": "2377",
        "reinvestUtilityETH()": "infinite",
        "renounceRole(bytes32,address)": "infinite",
        "rescueERC20(address,address,uint256)": "infinite",
        "returnInvestmentETH()": "infinite",
        "revokeRole(bytes32,address)": "infinite",
        "setDepositsAsRedeemable(address,uint256[])": "infinite",
        "setLockupPeriod(uint256)": "infinite",
        "setMaxCap(uint256)": "infinite",
        "setPaused(bool,bool)": "infinite",
        "setUtilityAddress(address)": "infinite",
        "setWhitelist(address,bool)": "infinite",
        "setWhitelistBatch(address[],bool[])": "infinite",
        "setWhitelistEnabled(bool)": "infinite",
        "supportsInterface(bytes4)": "493",
        "totalDepositedETH()": "2384",
        "totalInvestedETH()": "2426",
        "totalReinvestedETH()": "2406",
        "totalUtilityETH()": "2384",
        "totalWithdrawnETH()": "2428",
        "trustedForwarder()": "infinite",
        "unlockDepositsForUser(address,uint256[])": "infinite",
        "userClaimableUtilityETH(address)": "2584",
        "userDeposits(address,uint256)": "7220",
        "userTotalReinvestedETH(address)": "2584",
        "utilityAddress()": "2419",
        "version()": "infinite",
        "whitelistEnabled()": "2400",
        "withdraw(uint256)": "infinite",
        "withdrawForInvestmentETH(address,uint256)": "infinite",
        "withdrawUtilityETH(uint256)": "infinite",
        "withdrawnUsers(uint256)": "4678"
      },
      "internal": {
        "_contextSuffixLength()": "infinite",
        "_isFullyRedeemable(uint8)": "infinite",
        "_isUnlockedByAdmin(uint8)": "infinite",
        "_isWithdrawn(uint8)": "infinite",
        "_msgData()": "infinite",
        "_msgSender()": "infinite",
        "_registerDeposit(address,uint256,bool)": "infinite"
      }
    },
    "methodIdentifiers": {
      "ADMIN_ROLE()": "75b238fc",
      "DEFAULT_ADMIN_ROLE()": "a217fddf",
      "MANAGER_ROLE()": "ec87621c",
      "PAUSER_ROLE()": "e63ab1e9",
      "UNLOCKER_ROLE()": "e043b2b2",
      "UTILITY_INJECTOR_ROLE()": "0c016ad5",
      "UTILITY_WITHDRAWER_ROLE()": "885f5029",
      "assignUtilityETH(address,uint256)": "6ec23995",
      "assignUtilityETHBatch(address[],uint256[])": "b758aeaa",
      "batchWithdraw(uint256[])": "72e55399",
      "claimUtilityETH()": "e399067f",
      "depositETH()": "f6326fb3",
      "enableGlobalLiquidation()": "da8d5add",
      "getRoleAdmin(bytes32)": "248a9ca3",
      "getUserDeposits(address)": "2a5bf6d2",
      "getUserStats(address)": "4e43603a",
      "getVaultStats()": "a59aa5a6",
      "globalLiquidationEnabled()": "246d47b7",
      "globalLiquidationTimestamp()": "588583a0",
      "grantRole(bytes32,address)": "2f2ff15d",
      "hasRole(bytes32,address)": "91d14854",
      "hasWithdrawn(address)": "5e2c19db",
      "injectUtilityETH()": "64021b13",
      "isKnownDepositor(address)": "65d5ec96",
      "isTrustedForwarder(address)": "572b6c05",
      "isWhitelisted(address)": "3af32abf",
      "lockupPeriod()": "ee947a7c",
      "maxCapETH()": "9ddc3912",
      "pausedDeposits()": "6068d6cb",
      "pausedWithdrawals()": "b2b77ae2",
      "reinvestUtilityETH()": "275991d2",
      "renounceRole(bytes32,address)": "36568abe",
      "rescueERC20(address,address,uint256)": "b2118a8d",
      "returnInvestmentETH()": "17b51642",
      "revokeRole(bytes32,address)": "d547741f",
      "setDepositsAsRedeemable(address,uint256[])": "f5f11350",
      "setLockupPeriod(uint256)": "c771c390",
      "setMaxCap(uint256)": "763265de",
      "setPaused(bool,bool)": "6426be48",
      "setUtilityAddress(address)": "89bad0a6",
      "setWhitelist(address,bool)": "53d6fd59",
      "setWhitelistBatch(address[],bool[])": "47af19aa",
      "setWhitelistEnabled(bool)": "052d9e7e",
      "supportsInterface(bytes4)": "01ffc9a7",
      "totalDepositedETH()": "899aa991",
      "totalInvestedETH()": "fd46a171",
      "totalReinvestedETH()": "97d9e5b4",
      "totalUtilityETH()": "b65ba94b",
      "totalWithdrawnETH()": "8b713b2e",
      "trustedForwarder()": "7da0a877",
      "unlockDepositsForUser(address,uint256[])": "867d099a",
      "userClaimableUtilityETH(address)": "3408567c",
      "userDeposits(address,uint256)": "08f43333",
      "userTotalReinvestedETH(address)": "886d589d",
      "utilityAddress()": "f29b2239",
      "version()": "54fd4d50",
      "whitelistEnabled()": "51fb012d",
      "withdraw(uint256)": "2e1a7d4d",
      "withdrawForInvestmentETH(address,uint256)": "c6d95b74",
      "withdrawUtilityETH(uint256)": "93055c43",
      "withdrawnUsers(uint256)": "9e657e33"
    }
  },
  "storageLayout": {
    "storage": [
      {
        "astId": 10502,
        "contract": "TestPool.sol:TestPool",
        "label": "_roles",
        "offset": 0,
        "slot": "0",
        "type": "t_mapping(t_bytes32,t_struct(RoleData)10497_storage)"
      },
      {
        "astId": 12235,
        "contract": "TestPool.sol:TestPool",
        "label": "_status",
        "offset": 0,
        "slot": "1",
        "type": "t_uint256"
      },
      {
        "astId": 8698,
        "contract": "TestPool.sol:TestPool",
        "label": "lockupPeriod",
        "offset": 0,
        "slot": "2",
        "type": "t_uint256"
      },
      {
        "astId": 8701,
        "contract": "TestPool.sol:TestPool",
        "label": "maxCapETH",
        "offset": 0,
        "slot": "3",
        "type": "t_uint256"
      },
      {
        "astId": 8703,
        "contract": "TestPool.sol:TestPool",
        "label": "pausedDeposits",
        "offset": 0,
        "slot": "4",
        "type": "t_bool"
      },
      {
        "astId": 8705,
        "contract": "TestPool.sol:TestPool",
        "label": "pausedWithdrawals",
        "offset": 1,
        "slot": "4",
        "type": "t_bool"
      },
      {
        "astId": 8707,
        "contract": "TestPool.sol:TestPool",
        "label": "whitelistEnabled",
        "offset": 2,
        "slot": "4",
        "type": "t_bool"
      },
      {
        "astId": 8709,
        "contract": "TestPool.sol:TestPool",
        "label": "globalLiquidationEnabled",
        "offset": 3,
        "slot": "4",
        "type": "t_bool"
      },
      {
        "astId": 8711,
        "contract": "TestPool.sol:TestPool",
        "label": "globalLiquidationTimestamp",
        "offset": 4,
        "slot": "4",
        "type": "t_uint48"
      },
      {
        "astId": 8713,
        "contract": "TestPool.sol:TestPool",
        "label": "utilityAddress",
        "offset": 10,
        "slot": "4",
        "type": "t_address"
      },
      {
        "astId": 8760,
        "contract": "TestPool.sol:TestPool",
        "label": "userDeposits",
        "offset": 0,
        "slot": "5",
        "type": "t_mapping(t_address,t_array(t_struct(DepositInfo)8754_storage)dyn_storage)"
      },
      {
        "astId": 8764,
        "contract": "TestPool.sol:TestPool",
        "label": "isWhitelisted",
        "offset": 0,
        "slot": "6",
        "type": "t_mapping(t_address,t_bool)"
      },
      {
        "astId": 8768,
        "contract": "TestPool.sol:TestPool",
        "label": "hasWithdrawn",
        "offset": 0,
        "slot": "7",
        "type": "t_mapping(t_address,t_bool)"
      },
      {
        "astId": 8772,
        "contract": "TestPool.sol:TestPool",
        "label": "userClaimableUtilityETH",
        "offset": 0,
        "slot": "8",
        "type": "t_mapping(t_address,t_uint256)"
      },
      {
        "astId": 8776,
        "contract": "TestPool.sol:TestPool",
        "label": "userTotalReinvestedETH",
        "offset": 0,
        "slot": "9",
        "type": "t_mapping(t_address,t_uint256)"
      },
      {
        "astId": 8780,
        "contract": "TestPool.sol:TestPool",
        "label": "isKnownDepositor",
        "offset": 0,
        "slot": "10",
        "type": "t_mapping(t_address,t_bool)"
      },
      {
        "astId": 8783,
        "contract": "TestPool.sol:TestPool",
        "label": "withdrawnUsers",
        "offset": 0,
        "slot": "11",
        "type": "t_array(t_address)dyn_storage"
      },
      {
        "astId": 8785,
        "contract": "TestPool.sol:TestPool",
        "label": "totalDepositedETH",
        "offset": 0,
        "slot": "12",
        "type": "t_uint256"
      },
      {
        "astId": 8787,
        "contract": "TestPool.sol:TestPool",
        "label": "totalWithdrawnETH",
        "offset": 0,
        "slot": "13",
        "type": "t_uint256"
      },
      {
        "astId": 8789,
        "contract": "TestPool.sol:TestPool",
        "label": "totalUtilityETH",
        "offset": 0,
        "slot": "14",
        "type": "t_uint256"
      },
      {
        "astId": 8791,
        "contract": "TestPool.sol:TestPool",
        "label": "totalReinvestedETH",
        "offset": 0,
        "slot": "15",
        "type": "t_uint256"
      },
      {
        "astId": 8793,
        "contract": "TestPool.sol:TestPool",
        "label": "totalInvestedETH",
        "offset": 0,
        "slot": "16",
        "type": "t_uint256"
      }
    ],
    "types": {
      "t_address": {
        "encoding": "inplace",
        "label": "address",
        "numberOfBytes": "20"
      },
      "t_array(t_address)dyn_storage": {
        "base": "t_address",
        "encoding": "dynamic_array",
        "label": "address[]",
        "numberOfBytes": "32"
      },
      "t_array(t_struct(DepositInfo)8754_storage)dyn_storage": {
        "base": "t_struct(DepositInfo)8754_storage",
        "encoding": "dynamic_array",
        "label": "struct TestPool.DepositInfo[]",
        "numberOfBytes": "32"
      },
      "t_bool": {
        "encoding": "inplace",
        "label": "bool",
        "numberOfBytes": "1"
      },
      "t_bytes32": {
        "encoding": "inplace",
        "label": "bytes32",
        "numberOfBytes": "32"
      },
      "t_mapping(t_address,t_array(t_struct(DepositInfo)8754_storage)dyn_storage)": {
        "encoding": "mapping",
        "key": "t_address",
        "label": "mapping(address => struct TestPool.DepositInfo[])",
        "numberOfBytes": "32",
        "value": "t_array(t_struct(DepositInfo)8754_storage)dyn_storage"
      },
      "t_mapping(t_address,t_bool)": {
        "encoding": "mapping",
        "key": "t_address",
        "label": "mapping(address => bool)",
        "numberOfBytes": "32",
        "value": "t_bool"
      },
      "t_mapping(t_address,t_uint256)": {
        "encoding": "mapping",
        "key": "t_address",
        "label": "mapping(address => uint256)",
        "numberOfBytes": "32",
        "value": "t_uint256"
      },
      "t_mapping(t_bytes32,t_struct(RoleData)10497_storage)": {
        "encoding": "mapping",
        "key": "t_bytes32",
        "label": "mapping(bytes32 => struct AccessControl.RoleData)",
        "numberOfBytes": "32",
        "value": "t_struct(RoleData)10497_storage"
      },
      "t_struct(DepositInfo)8754_storage": {
        "encoding": "inplace",
        "label": "struct TestPool.DepositInfo",
        "members": [
          {
            "astId": 8745,
            "contract": "TestPool.sol:TestPool",
            "label": "amount",
            "offset": 0,
            "slot": "0",
            "type": "t_uint96"
          },
          {
            "astId": 8747,
            "contract": "TestPool.sol:TestPool",
            "label": "yieldReceived",
            "offset": 12,
            "slot": "0",
            "type": "t_uint96"
          },
          {
            "astId": 8749,
            "contract": "TestPool.sol:TestPool",
            "label": "timestamp",
            "offset": 24,
            "slot": "0",
            "type": "t_uint48"
          },
          {
            "astId": 8751,
            "contract": "TestPool.sol:TestPool",
            "label": "withdrawnAt",
            "offset": 0,
            "slot": "1",
            "type": "t_uint48"
          },
          {
            "astId": 8753,
            "contract": "TestPool.sol:TestPool",
            "label": "flags",
            "offset": 6,
            "slot": "1",
            "type": "t_uint8"
          }
        ],
        "numberOfBytes": "64"
      },
      "t_struct(RoleData)10497_storage": {
        "encoding": "inplace",
        "label": "struct AccessControl.RoleData",
        "members": [
          {
            "astId": 10494,
            "contract": "TestPool.sol:TestPool",
            "label": "hasRole",
            "offset": 0,
            "slot": "0",
            "type": "t_mapping(t_address,t_bool)"
          },
          {
            "astId": 10496,
            "contract": "TestPool.sol:TestPool",
            "label": "adminRole",
            "offset": 0,
            "slot": "1",
            "type": "t_bytes32"
          }
        ],
        "numberOfBytes": "64"
      },
      "t_uint256": {
        "encoding": "inplace",
        "label": "uint256",
        "numberOfBytes": "32"
      },
      "t_uint48": {
        "encoding": "inplace",
        "label": "uint48",
        "numberOfBytes": "6"
      },
      "t_uint8": {
        "encoding": "inplace",
        "label": "uint8",
        "numberOfBytes": "1"
      },
      "t_uint96": {
        "encoding": "inplace",
        "label": "uint96",
        "numberOfBytes": "12"
      }
    }
  },
  "userdoc": {
    "kind": "user",
    "methods": {},
    "version": 1
  }
}